{"hash": "e62c55d6cc2d5b6506b5b1b6825ee9daf1504bd42a635e341b499f2cfc7d8aaa", "blockhash": "0000000000000000001cda96e906b7601b7a6fb1a3b62bca570a9e5d8f4b3de1", "vout": [{"scriptPubKey": {"type": "nulldata", "hex": "6a146f6d6e69000000000000001f00000005e423fc00", "asm": "OP_RETURN 6f6d6e69000000000000001f00000005e423fc00"}, "value": 0.0, "n": 0}, {"scriptPubKey": {"reqSigs": 1, "hex": "a9140aeb64a83bde1fc5b119107ae1bb85f44baf940f87", "addresses": ["32gkfsHSA1wAM8UiDRm2tWuayCfBDRecEH"], "asm": "OP_HASH160 0aeb64a83bde1fc5b119107ae1bb85f44baf940f OP_EQUAL", "type": "scripthash"}, "value": 5.4e-06, "n": 1}, {"scriptPubKey": {"reqSigs": 1, "hex": "76a914fe4ac80e7fd8c8ec48837621d61b04122c5543b488ac", "addresses": ["1QBaDdhCTC2k9WWFhCXCJvYHpVSqLSRxaJ"], "asm": "OP_DUP OP_HASH160 fe4ac80e7fd8c8ec48837621d61b04122c5543b4 OP_EQUALVERIFY OP_CHECKSIG", "type": "pubkeyhash"}, "value": 0.039278, "n": 2}], "hex": "0100000001f929ce394a7ab386b86fc87cffc3792b7cd995930a99d160c25f45f0d32cea85000000006a473044022071b5cc5e7f6270eb68697cccb813647c0d87f7f4d7dea265027e7b46b77c1e04022038443d2b3419994563c36ec5911e7571dbf25876ab99dedac8e33f5f8f429ca20121023ccb07d9d195dd94a9f83a586fe543a2b3ad03d7a780bac883bdf3c47f5b4ebcfeffffff030000000000000000166a146f6d6e69000000000000001f00000005e423fc001c0200000000000017a9140aeb64a83bde1fc5b119107ae1bb85f44baf940f87f8ee3b00000000001976a914fe4ac80e7fd8c8ec48837621d61b04122c5543b488ac13490800", "vin": [{"sequence": 4294967294, "scriptSig": {"hex": "473044022071b5cc5e7f6270eb68697cccb813647c0d87f7f4d7dea265027e7b46b77c1e04022038443d2b3419994563c36ec5911e7571dbf25876ab99dedac8e33f5f8f429ca20121023ccb07d9d195dd94a9f83a586fe543a2b3ad03d7a780bac883bdf3c47f5b4ebc", "asm": "3044022071b5cc5e7f6270eb68697cccb813647c0d87f7f4d7dea265027e7b46b77c1e04022038443d2b3419994563c36ec5911e7571dbf25876ab99dedac8e33f5f8f429ca2[ALL] 023ccb07d9d195dd94a9f83a586fe543a2b3ad03d7a780bac883bdf3c47f5b4ebc"}, "vout": 0, "txid": "85ea2cd3f0455fc260d1990a9395d97c2b79c3ff7cc86fb886b37a4a39ce29f9"}], "txid": "e62c55d6cc2d5b6506b5b1b6825ee9daf1504bd42a635e341b499f2cfc7d8aaa", "blocktime": 1537873282, "version": 1, "confirmations": 11484, "time": 1537873282, "locktime": 542995, "vsize": 254, "size": 254}