{"hash": "e62c5883ffeb766af2c8645f395f2de60b48c1c5e205af9e485fb72bb18dac7d", "blockhash": "00000000000000000024a2167bbff67b0be802c0b01cdd79e6331c2be6459f87", "vout": [{"scriptPubKey": {"reqSigs": 1, "hex": "a914f956491905e3fb896a6852bd10bdfd9f22513bbe87", "addresses": ["3QRPYXv1ioGNLBFSyEowvHVeYrdPEvcY2g"], "asm": "OP_HASH160 f956491905e3fb896a6852bd10bdfd9f22513bbe OP_EQUAL", "type": "scripthash"}, "value": 0.01838238, "n": 0}, {"scriptPubKey": {"reqSigs": 1, "hex": "76a9143ac7ba22d197d4dc1a48b7d1f41bef968d3355e488ac", "addresses": ["16MoTQfGGiCxgW54rDqjkibXRc8DULY291"], "asm": "OP_DUP OP_HASH160 3ac7ba22d197d4dc1a48b7d1f41bef968d3355e4 OP_EQUALVERIFY OP_CHECKSIG", "type": "pubkeyhash"}, "value": 0.05260813, "n": 1}], "hex": "0100000001b93add744a503ae7c31ed5caaf8771836e3f463f535341443a4eb0270ca47f58000000006a473044022072f24b38ac1c42fa5b45cd59a78c4e3271fd3dd6e1f829a3d1ced33b0f1f317402201f7139525781fc9e163f605d0f730740668d8807c98601d4abc775a816261514012102636acbf8b86349cc756f6c51d58e9be6db7c4186b8087ebb65d7bbafc4eca4ebffffffff029e0c1c000000000017a914f956491905e3fb896a6852bd10bdfd9f22513bbe870d465000000000001976a9143ac7ba22d197d4dc1a48b7d1f41bef968d3355e488ac00000000", "vin": [{"sequence": 4294967295, "scriptSig": {"hex": "473044022072f24b38ac1c42fa5b45cd59a78c4e3271fd3dd6e1f829a3d1ced33b0f1f317402201f7139525781fc9e163f605d0f730740668d8807c98601d4abc775a816261514012102636acbf8b86349cc756f6c51d58e9be6db7c4186b8087ebb65d7bbafc4eca4eb", "asm": "3044022072f24b38ac1c42fa5b45cd59a78c4e3271fd3dd6e1f829a3d1ced33b0f1f317402201f7139525781fc9e163f605d0f730740668d8807c98601d4abc775a816261514[ALL] 02636acbf8b86349cc756f6c51d58e9be6db7c4186b8087ebb65d7bbafc4eca4eb"}, "vout": 0, "txid": "587fa40c27b04e3a444153533f463f6e837187afcad51ec3e73a504a74dd3ab9"}], "txid": "e62c5883ffeb766af2c8645f395f2de60b48c1c5e205af9e485fb72bb18dac7d", "blocktime": 1537870564, "version": 1, "confirmations": 11515, "time": 1537870564, "locktime": 0, "vsize": 223, "size": 223}