{"hash": "e62d5c5eab04778d2cabfd605dd4f6a06ef38688de04358ef325999c1292d091", "blockhash": "00000000000000000017f5eb5941039fbcee6240d03bc1f2f8e35350df66a1d8", "vout": [{"scriptPubKey": {"reqSigs": 1, "hex": "a914852e41991838819b70852bb5664296db7271eebe87", "addresses": ["3DqDCzo2exCR4cpbtDTQJ3jqrFGDr7Qmo2"], "asm": "OP_HASH160 852e41991838819b70852bb5664296db7271eebe OP_EQUAL", "type": "scripthash"}, "value": 0.0061, "n": 0}, {"scriptPubKey": {"reqSigs": 1, "hex": "76a914a1e297b99d2898b442b1f53635cbcb11bae60c9688ac", "addresses": ["1FkyEpYvhw52ZUVY9hkF57Vg7yYEp4N9Vy"], "asm": "OP_DUP OP_HASH160 a1e297b99d2898b442b1f53635cbcb11bae60c96 OP_EQUALVERIFY OP_CHECKSIG", "type": "pubkeyhash"}, "value": 0.00668192, "n": 1}], "hex": "0100000001e988312f899a67247e3a2478152e22bc2c99caabe29bfedbac1b793238271bdc030000006a473044022048a9fe5aee2eecf04b170c6e2e0adb43143b92d7fd3c2462a15942b91cefbf31022079521d24648a44bb763e568774d4d0c5ffc50457bf9964e7c3a0a34ef1c3cccd0121035dc6b56df6504634ffa22e39d84d0353113d26a3e246f379976bf21ea54cbc40ffffffff02d04e09000000000017a914852e41991838819b70852bb5664296db7271eebe8720320a00000000001976a914a1e297b99d2898b442b1f53635cbcb11bae60c9688ac00000000", "vin": [{"sequence": 4294967295, "scriptSig": {"hex": "473044022048a9fe5aee2eecf04b170c6e2e0adb43143b92d7fd3c2462a15942b91cefbf31022079521d24648a44bb763e568774d4d0c5ffc50457bf9964e7c3a0a34ef1c3cccd0121035dc6b56df6504634ffa22e39d84d0353113d26a3e246f379976bf21ea54cbc40", "asm": "3044022048a9fe5aee2eecf04b170c6e2e0adb43143b92d7fd3c2462a15942b91cefbf31022079521d24648a44bb763e568774d4d0c5ffc50457bf9964e7c3a0a34ef1c3cccd[ALL] 035dc6b56df6504634ffa22e39d84d0353113d26a3e246f379976bf21ea54cbc40"}, "vout": 3, "txid": "dc1b273832791bacdbfe9be2abca992cbc222e1578243a7e24679a892f3188e9"}], "txid": "e62d5c5eab04778d2cabfd605dd4f6a06ef38688de04358ef325999c1292d091", "blocktime": 1537874412, "version": 1, "confirmations": 11467, "time": 1537874412, "locktime": 0, "vsize": 223, "size": 223}