{"hash": "e62df7d6b16b37797d3cc538fd237abf42344f7d17d7e43fb305dffb8b1a5cb1", "blockhash": "00000000000000000024a2167bbff67b0be802c0b01cdd79e6331c2be6459f87", "vout": [{"scriptPubKey": {"reqSigs": 1, "hex": "a9145cb1f43b50a64c1aa23fdbb27450ca821459825f87", "addresses": ["3A99GewRWm9EFquq4FZXTsY1139KU9wjd7"], "asm": "OP_HASH160 5cb1f43b50a64c1aa23fdbb27450ca821459825f OP_EQUAL", "type": "scripthash"}, "value": 0.01, "n": 0}, {"scriptPubKey": {"reqSigs": 1, "hex": "76a9147e352e81e7ab7b3896ca12008025af3b077c260788ac", "addresses": ["1CWKrJGsr9yUyaVAjGVk8Yt3sWrDd78pRU"], "asm": "OP_DUP OP_HASH160 7e352e81e7ab7b3896ca12008025af3b077c2607 OP_EQUALVERIFY OP_CHECKSIG", "type": "pubkeyhash"}, "value": 0.11893105, "n": 1}], "hex": "0100000001a5c84799590edfd4cee6920029dc3fd5a6cdb8cf30e29a1b34705a06f4eb958b010000006b483045022100d74d2b4296cc8a872f9d2fef808af51a3dd6458c3c6a3e5081a2aca623334c3f022061291c873b89e297bb38622291cfe6cb3b1c94c7fae3295d97703b11a9ce5cb00121035cc6a726c483e6c64487fbc9d7b31867b01b989393a55e2a531c5c1f692b0535ffffffff0240420f000000000017a9145cb1f43b50a64c1aa23fdbb27450ca821459825f877179b500000000001976a9147e352e81e7ab7b3896ca12008025af3b077c260788ac00000000", "vin": [{"sequence": 4294967295, "scriptSig": {"hex": "483045022100d74d2b4296cc8a872f9d2fef808af51a3dd6458c3c6a3e5081a2aca623334c3f022061291c873b89e297bb38622291cfe6cb3b1c94c7fae3295d97703b11a9ce5cb00121035cc6a726c483e6c64487fbc9d7b31867b01b989393a55e2a531c5c1f692b0535", "asm": "3045022100d74d2b4296cc8a872f9d2fef808af51a3dd6458c3c6a3e5081a2aca623334c3f022061291c873b89e297bb38622291cfe6cb3b1c94c7fae3295d97703b11a9ce5cb0[ALL] 035cc6a726c483e6c64487fbc9d7b31867b01b989393a55e2a531c5c1f692b0535"}, "vout": 1, "txid": "8b95ebf4065a70341b9ae230cfb8cda6d53fdc290092e6ced4df0e599947c8a5"}], "txid": "e62df7d6b16b37797d3cc538fd237abf42344f7d17d7e43fb305dffb8b1a5cb1", "blocktime": 1537870564, "version": 1, "confirmations": 11515, "time": 1537870564, "locktime": 0, "vsize": 224, "size": 224}