{"hash": "878f5471cc84e937e0250366d2827a38c36975dc2bebed2ac5049f4a1252e40f", "blockhash": "0000000000000000001e0dab787dd257d1dbfcb92a98c2207d5e1078be1f4165", "vout": [{"scriptPubKey": {"reqSigs": 1, "hex": "a9143104fdd25010466e6419b053f3db8dc01341b06987", "addresses": ["36AD1kw6FPzChhfA9vN3oSCtW7hjLXoiQf"], "asm": "OP_HASH160 3104fdd25010466e6419b053f3db8dc01341b069 OP_EQUAL", "type": "scripthash"}, "value": 0.01899233, "n": 0}, {"scriptPubKey": {"reqSigs": 1, "hex": "a914322be67fee525766db39ca56aa6259d50153d64c87", "addresses": ["36GJJPSsMVZCkjTkvDNA6VrUDocWUPHLsF"], "asm": "OP_HASH160 322be67fee525766db39ca56aa6259d50153d64c OP_EQUAL", "type": "scripthash"}, "value": 0.01, "n": 1}], "hex": "0100000000010163c75d5454fc109b20e3c999caad7c0ce89894290dc2060c09f0a065bb1e679c0100000023220020bcf297329ef1e845a069b5522eb49ad6a58fdc71d8763b58e20552e621916d0fffffffff02e1fa1c000000000017a9143104fdd25010466e6419b053f3db8dc01341b0698740420f000000000017a914322be67fee525766db39ca56aa6259d50153d64c87040047304402204792c44c28bde509d4efaed7123f35508706815c314f22e628acf6e1cbd0fa07022028582361034bb1b2112427ab26c4251b0def710b9c6a4fa4b7e54dbb88192eba01483045022100b73d5f33b4e08453ea3081bc8b84af5358882c1a66d1abffb3c9c9ac5acb347e022048962d71bbad5de7c3b450cf4ab1999605925f19acc2774edc8a3b9717bd206b016952210293f12786b35abb9cf0e90e58b5334b3f9793a68d4de707ff2ab6cc6aeaf365012103fcaf645e0f85377b809425c4a706c8d0c98868ee6a9a74e1e44d7590b48918892103d7a15d1238b52a58690c4436fdefd60b4be632ba5d39c1b7828af0565c1405bb53ae13490800", "vin": [{"txinwitness": ["", "304402204792c44c28bde509d4efaed7123f35508706815c314f22e628acf6e1cbd0fa07022028582361034bb1b2112427ab26c4251b0def710b9c6a4fa4b7e54dbb88192eba01", "3045022100b73d5f33b4e08453ea3081bc8b84af5358882c1a66d1abffb3c9c9ac5acb347e022048962d71bbad5de7c3b450cf4ab1999605925f19acc2774edc8a3b9717bd206b01", "52210293f12786b35abb9cf0e90e58b5334b3f9793a68d4de707ff2ab6cc6aeaf365012103fcaf645e0f85377b809425c4a706c8d0c98868ee6a9a74e1e44d7590b48918892103d7a15d1238b52a58690c4436fdefd60b4be632ba5d39c1b7828af0565c1405bb53ae"], "sequence": 4294967295, "scriptSig": {"hex": "220020bcf297329ef1e845a069b5522eb49ad6a58fdc71d8763b58e20552e621916d0f", "asm": "0020bcf297329ef1e845a069b5522eb49ad6a58fdc71d8763b58e20552e621916d0f"}, "vout": 1, "txid": "9c671ebb65a0f0090c06c20d299498e80c7cadca99c9e3209b10fc54545dc763"}], "txid": "e6309191866866e391bac58a644f3cf72b60386c167220034859ed6b32764fe9", "blocktime": 1537872475, "version": 1, "confirmations": 11486, "time": 1537872475, "locktime": 542995, "vsize": 214, "size": 405}