{"hash": "e63124547d842cf00b429092cdcceb552eec3bc1ec7868f644ebd1199652ae21", "blockhash": "0000000000000000001f76057863aec43deb6fa401d9628bb513d65a8098bfab", "vout": [{"scriptPubKey": {"reqSigs": 1, "hex": "a9144a0473abc79d5e869ef9c94b691c347090e06e9187", "addresses": ["38SPG4Lvffjn7QCnofikEvEn3DNUVXRXaW"], "asm": "OP_HASH160 4a0473abc79d5e869ef9c94b691c347090e06e91 OP_EQUAL", "type": "scripthash"}, "value": 0.00156347, "n": 0}, {"scriptPubKey": {"reqSigs": 1, "hex": "a914591ef95f4ee40bdd2d91fcbb79398eef5b3126de87", "addresses": ["39pFAjcnBcka6yfbrTjwvvDDJSTED1vKXG"], "asm": "OP_HASH160 591ef95f4ee40bdd2d91fcbb79398eef5b3126de OP_EQUAL", "type": "scripthash"}, "value": 0.00307996, "n": 1}, {"scriptPubKey": {"reqSigs": 1, "hex": "76a9146c599a207154725ae82371106f4f742c77b3138888ac", "addresses": ["1AsuKNusbo29JSATAqnwoJcUXVhiH3sPSC"], "asm": "OP_DUP OP_HASH160 6c599a207154725ae82371106f4f742c77b31388 OP_EQUALVERIFY OP_CHECKSIG", "type": "pubkeyhash"}, "value": 8.633e-05, "n": 2}], "hex": "01000000025bfe55564d9b3cfa43dde503b00b3c2b1fc69af2677aa36b8df09fa45fd2910305000000d900473044022035460e83bbe2189bbe9f7df2ec0644aec4654d15818b89aa634f2beef5902f400220310149af8101df9d01861633959db6665785c31d7b1957b39d759417f49ed157014730440220276f27c39c813f0b0a9a7697d9021399e6e551bdf7b782ecd6396e498fa98764022034c7ef94e523956bec5bd65d399e7c062af523be565f3884c5d07143eb603faa0147522102907a54bed8ad74b3f35638c60114ca240a308cb986f3f2f306178869a8880b612102f1a9d52e4a08f092e0b77a44ee1636e57b54944d696ea33a54b89d9ad60e597d52aeffffffff1c219ef247fe314ad65bc9d1a545b790bab3c6e2844fa689255e23fa70122b8a010000006a47304402207b101e74ccbc383044ffeef3093125317b99eda0fed529f0db6f2cade842d05802207559c72b98294ab6a11ed4b471742a782cc3b494beae7f42348811e2f1133c2d012103a010ee6a2cb51d44ad9578d2279dfb24ced860bae5cc38cf7ba2889cda927385ffffffff03bb6202000000000017a9144a0473abc79d5e869ef9c94b691c347090e06e91871cb304000000000017a914591ef95f4ee40bdd2d91fcbb79398eef5b3126de87b9210000000000001976a9146c599a207154725ae82371106f4f742c77b3138888ac00000000", "vin": [{"sequence": 4294967295, "scriptSig": {"hex": "00473044022035460e83bbe2189bbe9f7df2ec0644aec4654d15818b89aa634f2beef5902f400220310149af8101df9d01861633959db6665785c31d7b1957b39d759417f49ed157014730440220276f27c39c813f0b0a9a7697d9021399e6e551bdf7b782ecd6396e498fa98764022034c7ef94e523956bec5bd65d399e7c062af523be565f3884c5d07143eb603faa0147522102907a54bed8ad74b3f35638c60114ca240a308cb986f3f2f306178869a8880b612102f1a9d52e4a08f092e0b77a44ee1636e57b54944d696ea33a54b89d9ad60e597d52ae", "asm": "0 3044022035460e83bbe2189bbe9f7df2ec0644aec4654d15818b89aa634f2beef5902f400220310149af8101df9d01861633959db6665785c31d7b1957b39d759417f49ed157[ALL] 30440220276f27c39c813f0b0a9a7697d9021399e6e551bdf7b782ecd6396e498fa98764022034c7ef94e523956bec5bd65d399e7c062af523be565f3884c5d07143eb603faa[ALL] 522102907a54bed8ad74b3f35638c60114ca240a308cb986f3f2f306178869a8880b612102f1a9d52e4a08f092e0b77a44ee1636e57b54944d696ea33a54b89d9ad60e597d52ae"}, "vout": 5, "txid": "0391d25fa49ff08d6ba37a67f29ac61f2b3c0bb003e5dd43fa3c9b4d5655fe5b"}, {"sequence": 4294967295, "scriptSig": {"hex": "47304402207b101e74ccbc383044ffeef3093125317b99eda0fed529f0db6f2cade842d05802207559c72b98294ab6a11ed4b471742a782cc3b494beae7f42348811e2f1133c2d012103a010ee6a2cb51d44ad9578d2279dfb24ced860bae5cc38cf7ba2889cda927385", "asm": "304402207b101e74ccbc383044ffeef3093125317b99eda0fed529f0db6f2cade842d05802207559c72b98294ab6a11ed4b471742a782cc3b494beae7f42348811e2f1133c2d[ALL] 03a010ee6a2cb51d44ad9578d2279dfb24ced860bae5cc38cf7ba2889cda927385"}, "vout": 1, "txid": "8a2b1270fa235e2589a64f84e2c6b3ba90b745a5d1c95bd64a31fe47f29e211c"}], "txid": "e63124547d842cf00b429092cdcceb552eec3bc1ec7868f644ebd1199652ae21", "blocktime": 1537873891, "version": 1, "confirmations": 11478, "time": 1537873891, "locktime": 0, "vsize": 513, "size": 513}