{"hash": "e3aad4c91f8718b84d4468231cfcc3c555e11e6dd638587887e8423678f17b5b", "blockhash": "0000000000000000000baef3f32e3676a92c3b2e5da21b426e4f302fc371ce76", "vout": [{"scriptPubKey": {"reqSigs": 1, "hex": "a9141b068ac0cf78750c7ef95310dd3168c48b3ee60787", "addresses": ["349v1GbFokY4sFUyEAAJX3wu81wvT59G9T"], "asm": "OP_HASH160 1b068ac0cf78750c7ef95310dd3168c48b3ee607 OP_EQUAL", "type": "scripthash"}, "value": 0.00999085, "n": 0}, {"scriptPubKey": {"reqSigs": 1, "hex": "76a9148d3ea1a917d300e0b527fa1e7ad4fc2222d9f33288ac", "addresses": ["1DsqJm5puCeVDWDfNDptpGHkVQrtG5a3aQ"], "asm": "OP_DUP OP_HASH160 8d3ea1a917d300e0b527fa1e7ad4fc2222d9f332 OP_EQUALVERIFY OP_CHECKSIG", "type": "pubkeyhash"}, "value": 0.0051946, "n": 1}], "hex": "0200000000010222e1d892dc20b245ab887dff3728f34f73c965a89a338aafc759a4f2a2355a860800000017160014610fa3a4098a52a2d2c66349315ca6c68e430d35feffffffb751c177c173dc9f1cd4eab6359ab3a99cd68562c4b0644ae138e7f32e1cfd56000000001716001489f421cd72cc24db8485d6746a5eb749531a9348feffffff02ad3e0f000000000017a9141b068ac0cf78750c7ef95310dd3168c48b3ee6078724ed0700000000001976a9148d3ea1a917d300e0b527fa1e7ad4fc2222d9f33288ac02483045022100faed2c1fdfa55b27d0aadc5518d75ec77ce495d68464121db620a13ae96475970220482b5ebecf262d1760bd9125099676c77d9c798d6c8dce01c9d0bb0b2552ab3a01210263776f8e6aa125d7c939e1bd63f1e92eaa2f5c0110bbb6a238934d3d032858e40247304402205f59d9dbeb372d22c723fae87353cfeb747b6f1ce2a39489dee65f4ca603a2ba02200c93b6912818d9fc12190c505176768d667d53289e72f508dcc738d570e1d04d0121028d04ac6f7eb3ff782004c28a2efedbe76229abab4e651ca863a737cb60fe998517490800", "vin": [{"txinwitness": ["3045022100faed2c1fdfa55b27d0aadc5518d75ec77ce495d68464121db620a13ae96475970220482b5ebecf262d1760bd9125099676c77d9c798d6c8dce01c9d0bb0b2552ab3a01", "0263776f8e6aa125d7c939e1bd63f1e92eaa2f5c0110bbb6a238934d3d032858e4"], "sequence": 4294967294, "scriptSig": {"hex": "160014610fa3a4098a52a2d2c66349315ca6c68e430d35", "asm": "0014610fa3a4098a52a2d2c66349315ca6c68e430d35"}, "vout": 8, "txid": "865a35a2f2a459c7af8a339aa865c9734ff32837ff7d88ab45b220dc92d8e122"}, {"txinwitness": ["304402205f59d9dbeb372d22c723fae87353cfeb747b6f1ce2a39489dee65f4ca603a2ba02200c93b6912818d9fc12190c505176768d667d53289e72f508dcc738d570e1d04d01", "028d04ac6f7eb3ff782004c28a2efedbe76229abab4e651ca863a737cb60fe9985"], "sequence": 4294967294, "scriptSig": {"hex": "16001489f421cd72cc24db8485d6746a5eb749531a9348", "asm": "001489f421cd72cc24db8485d6746a5eb749531a9348"}, "vout": 0, "txid": "56fd1c2ef3e738e14a64b0c46285d69ca9b39a35b6ead41c9fdc73c177c151b7"}], "txid": "e6384c0eeca15a8f44121b3fe28b11308b50d7411de8a62186e91948bebac871", "blocktime": 1537876114, "version": 2, "confirmations": 11462, "time": 1537876114, "locktime": 542999, "vsize": 259, "size": 421}