{"hash": "e64c95370eca223f59895666ce1de737bbe39b90fcbdee4a83d814931919dba9", "blockhash": "00000000000000000017f5eb5941039fbcee6240d03bc1f2f8e35350df66a1d8", "vout": [{"scriptPubKey": {"reqSigs": 1, "hex": "76a914e962dfbec25f1f6c808039785894ca5768a99cea88ac", "addresses": ["1NH2taoQ5dZcds3DXvTkbSHRBjg2RBrA4t"], "asm": "OP_DUP OP_HASH160 e962dfbec25f1f6c808039785894ca5768a99cea OP_EQUALVERIFY OP_CHECKSIG", "type": "pubkeyhash"}, "value": 0.00022967, "n": 0}, {"scriptPubKey": {"reqSigs": 1, "hex": "76a9140a24deae373b71f11ad1683d7f93baf5f736d91388ac", "addresses": ["1vdvgSsAzNRwhkPf5nyeetvxmRTTiPJNi"], "asm": "OP_DUP OP_HASH160 0a24deae373b71f11ad1683d7f93baf5f736d913 OP_EQUALVERIFY OP_CHECKSIG", "type": "pubkeyhash"}, "value": 0.16776355, "n": 1}], "hex": "01000000015706aa5df5750859a20f423e56f993f086b5298b7807ae10d060cfc9f199520a000000006b483045022100c0fb23fbef8b430cb71a10d05a3034b48028532a794f634dad847306c42e32c402204c4b2ffd7aaad59b8075226efe518384df530abeb861171e479b0c7aece0df5c012103f332ce37795dab4616b6f5d19a74885132c25fa03a0d7bf4f74adb9905d846a8ffffffff02b7590000000000001976a914e962dfbec25f1f6c808039785894ca5768a99cea88aca3fcff00000000001976a9140a24deae373b71f11ad1683d7f93baf5f736d91388ac00000000", "vin": [{"sequence": 4294967295, "scriptSig": {"hex": "483045022100c0fb23fbef8b430cb71a10d05a3034b48028532a794f634dad847306c42e32c402204c4b2ffd7aaad59b8075226efe518384df530abeb861171e479b0c7aece0df5c012103f332ce37795dab4616b6f5d19a74885132c25fa03a0d7bf4f74adb9905d846a8", "asm": "3045022100c0fb23fbef8b430cb71a10d05a3034b48028532a794f634dad847306c42e32c402204c4b2ffd7aaad59b8075226efe518384df530abeb861171e479b0c7aece0df5c[ALL] 03f332ce37795dab4616b6f5d19a74885132c25fa03a0d7bf4f74adb9905d846a8"}, "vout": 0, "txid": "0a5299f1c9cf60d010ae07788b29b586f093f9563e420fa2590875f55daa0657"}], "txid": "e64c95370eca223f59895666ce1de737bbe39b90fcbdee4a83d814931919dba9", "blocktime": 1537874412, "version": 1, "confirmations": 11468, "time": 1537874412, "locktime": 0, "vsize": 226, "size": 226}