{"hash": "e64d809a49ed8fe9f0a931fd11767bc0ac0944295f8ddc708900360b82db7e20", "blockhash": "00000000000000000018f53835495a110e01622372bf6ae95dc86f2b0ab887b0", "vout": [{"scriptPubKey": {"reqSigs": 1, "hex": "76a914308ab940984d1547271c3e6e71ac46e06dd815b688ac", "addresses": ["15RfctwPAAWxbra5QRQcTHUAdYaK4RAFDR"], "asm": "OP_DUP OP_HASH160 308ab940984d1547271c3e6e71ac46e06dd815b6 OP_EQUALVERIFY OP_CHECKSIG", "type": "pubkeyhash"}, "value": 0.00499064, "n": 0}, {"scriptPubKey": {"type": "nulldata", "hex": "6a146f6d6e69000000000000001f00002d7b8d02d380", "asm": "OP_RETURN 6f6d6e69000000000000001f00002d7b8d02d380"}, "value": 0.0, "n": 1}, {"scriptPubKey": {"reqSigs": 1, "hex": "76a914a25dec4d0011064ef106a983c39c7a540699f22088ac", "addresses": ["1FoWyxwPXuj4C6abqwhjDWdz6D4PZgYRjA"], "asm": "OP_DUP OP_HASH160 a25dec4d0011064ef106a983c39c7a540699f220 OP_EQUALVERIFY OP_CHECKSIG", "type": "pubkeyhash"}, "value": 5.46e-06, "n": 2}], "hex": "01000000010d01a2029185c1752ddb6f4edd511a7d23d380cfcef6d7a0ca449357da1f4f33000000006b483045022100f66239a084071bc98f008f89c9bfa94cb6d54e440197e0d72194ce1044ae51ae02207a920213d7f904b65f73ebb5981762f7b51670b921abc33a596ab2abe7050f20012103ebc89a3c2d5789d05ec31dedd13c2a5588a659973e22bea6fd305c6fa65c3384feffffff03789d0700000000001976a914308ab940984d1547271c3e6e71ac46e06dd815b688ac0000000000000000166a146f6d6e69000000000000001f00002d7b8d02d38022020000000000001976a914a25dec4d0011064ef106a983c39c7a540699f22088ac0d490800", "vin": [{"sequence": 4294967294, "scriptSig": {"hex": "483045022100f66239a084071bc98f008f89c9bfa94cb6d54e440197e0d72194ce1044ae51ae02207a920213d7f904b65f73ebb5981762f7b51670b921abc33a596ab2abe7050f20012103ebc89a3c2d5789d05ec31dedd13c2a5588a659973e22bea6fd305c6fa65c3384", "asm": "3045022100f66239a084071bc98f008f89c9bfa94cb6d54e440197e0d72194ce1044ae51ae02207a920213d7f904b65f73ebb5981762f7b51670b921abc33a596ab2abe7050f20[ALL] 03ebc89a3c2d5789d05ec31dedd13c2a5588a659973e22bea6fd305c6fa65c3384"}, "vout": 0, "txid": "334f1fda579344caa0d7f6cecf80d3237d1a51dd4e6fdb2d75c1859102a2010d"}], "txid": "e64d809a49ed8fe9f0a931fd11767bc0ac0944295f8ddc708900360b82db7e20", "blocktime": 1537870928, "version": 1, "confirmations": 11514, "time": 1537870928, "locktime": 542989, "vsize": 257, "size": 257}