{"hash": "ea26a8edb1a917b3071b96b51de1c7a5a21081bba8ed66ddb0b642cc3d463bed", "blockhash": "0000000000000000001cda96e906b7601b7a6fb1a3b62bca570a9e5d8f4b3de1", "vout": [{"scriptPubKey": {"reqSigs": 1, "hex": "a914c404c53cdef493c28fb2bf195b39a70c17c13c9a87", "addresses": ["3KZU5bkHr7MExFa2fuyX2bUPxE2vSexUpH"], "asm": "OP_HASH160 c404c53cdef493c28fb2bf195b39a70c17c13c9a OP_EQUAL", "type": "scripthash"}, "value": 0.01424033, "n": 0}, {"scriptPubKey": {"reqSigs": 1, "hex": "a91478005c9a77a4967d9ef8af47f99467cb882279e187", "addresses": ["3CdXShNuRSks8SA2utE1YrNiSvjZKc9equ"], "asm": "OP_HASH160 78005c9a77a4967d9ef8af47f99467cb882279e1 OP_EQUAL", "type": "scripthash"}, "value": 0.0016, "n": 1}], "hex": "01000000000101eaee3eb724a5c1fc32ad995dfa431688f175d0666c47ddb1f09b286a0f4f4107000000002322002046c020124bf7538cddf55621523bf81b29b2b39290a2705539adf86d168803f3ffffffff02a1ba15000000000017a914c404c53cdef493c28fb2bf195b39a70c17c13c9a87007102000000000017a91478005c9a77a4967d9ef8af47f99467cb882279e1870400473044022019217120c66b59658f8db806f5cbbc2a481d54ed226892f24421367c7632aead02200d4364c7bc9e88895463857f388b66eacec28844c68010991e06363e1421016201483045022100b8b71e666e173f663fa98c80357846ca83daa7de496c1d3074713f244c1f4a24022010e4740ba51b417b0e0c793e095685ec3a4d16a7cc9dfda37b67be161b88159f016952210217b4688de638644c06a3c74bb6bb10f0ba6046f564b8e5ffcd92be1be0e439b321032deae91968ba1e15e607fd53d059382dbd4048aa3328b6a9b781d3e8cabac7072103af6294a3c2d00eaf46e23c6f0b0bf38483435eb378cb7f7df11fd2a5cdbf52d153ae00000000", "vin": [{"txinwitness": ["", "3044022019217120c66b59658f8db806f5cbbc2a481d54ed226892f24421367c7632aead02200d4364c7bc9e88895463857f388b66eacec28844c68010991e06363e1421016201", "3045022100b8b71e666e173f663fa98c80357846ca83daa7de496c1d3074713f244c1f4a24022010e4740ba51b417b0e0c793e095685ec3a4d16a7cc9dfda37b67be161b88159f01", "52210217b4688de638644c06a3c74bb6bb10f0ba6046f564b8e5ffcd92be1be0e439b321032deae91968ba1e15e607fd53d059382dbd4048aa3328b6a9b781d3e8cabac7072103af6294a3c2d00eaf46e23c6f0b0bf38483435eb378cb7f7df11fd2a5cdbf52d153ae"], "sequence": 4294967295, "scriptSig": {"hex": "22002046c020124bf7538cddf55621523bf81b29b2b39290a2705539adf86d168803f3", "asm": "002046c020124bf7538cddf55621523bf81b29b2b39290a2705539adf86d168803f3"}, "vout": 0, "txid": "07414f0f6a289bf0b1dd476c66d075f1881643fa5d99ad32fcc1a524b73eeeea"}], "txid": "e651dbd46e7652db19ad23f8fd772cc665785fa549e3d6b51a81ede4af4829ea", "blocktime": 1537873282, "version": 1, "confirmations": 11484, "time": 1537873282, "locktime": 0, "vsize": 214, "size": 405}