{"hash": "e65288b752bde97ecf70a28e829d1620b07ae4e9a49ebe86827dd2d0d72bf862", "blockhash": "00000000000000000018f53835495a110e01622372bf6ae95dc86f2b0ab887b0", "vout": [{"scriptPubKey": {"type": "nulldata", "hex": "6a4c500000778500011343bf3df5a55b4c8efc4953bcbefa6b8351586b4e86aeaeacb577c031fc02ef87d56d6274dc15270394bd3085cd5baa0b420613f088758564291d100759d4ba30d2c37bb011d97e02cf", "asm": "OP_RETURN 0000778500011343bf3df5a55b4c8efc4953bcbefa6b8351586b4e86aeaeacb577c031fc02ef87d56d6274dc15270394bd3085cd5baa0b420613f088758564291d100759d4ba30d2c37bb011d97e02cf"}, "value": 0.0, "n": 0}, {"scriptPubKey": {"reqSigs": 1, "hex": "76a914b66753b1eb63ea68c1b91d2ce8ad5c42771ecb3088ac", "addresses": ["1HdTmCGmgsRYP5criEkBCLWLMuXgTA4vkS"], "asm": "OP_DUP OP_HASH160 b66753b1eb63ea68c1b91d2ce8ad5c42771ecb30 OP_EQUALVERIFY OP_CHECKSIG", "type": "pubkeyhash"}, "value": 0.00644309, "n": 1}], "hex": "0100000001e858852ac75813881949d19d60d9544d6c572fd5e63ac28fef46a9e9838f957c000000006a47304402200f0be671f98b989c52af4622cd51c38c9bbe42eab792813b8f6daf12d529c374022067accbb5f7201abdc8ab2d1da0d3cc45c13037876cd7d7e2e772a3792083e645012103486f0f22df4ce1696d9b6107b502682eed0fc60ec9458df1ffa3333240c0f1acffffffff020000000000000000536a4c500000778500011343bf3df5a55b4c8efc4953bcbefa6b8351586b4e86aeaeacb577c031fc02ef87d56d6274dc15270394bd3085cd5baa0b420613f088758564291d100759d4ba30d2c37bb011d97e02cfd5d40900000000001976a914b66753b1eb63ea68c1b91d2ce8ad5c42771ecb3088ac00000000", "vin": [{"sequence": 4294967295, "scriptSig": {"hex": "47304402200f0be671f98b989c52af4622cd51c38c9bbe42eab792813b8f6daf12d529c374022067accbb5f7201abdc8ab2d1da0d3cc45c13037876cd7d7e2e772a3792083e645012103486f0f22df4ce1696d9b6107b502682eed0fc60ec9458df1ffa3333240c0f1ac", "asm": "304402200f0be671f98b989c52af4622cd51c38c9bbe42eab792813b8f6daf12d529c374022067accbb5f7201abdc8ab2d1da0d3cc45c13037876cd7d7e2e772a3792083e645[ALL] 03486f0f22df4ce1696d9b6107b502682eed0fc60ec9458df1ffa3333240c0f1ac"}, "vout": 0, "txid": "7c958f83e9a946ef8fc23ae6d52f576c4d54d9609dd14919881358c72a8558e8"}], "txid": "e65288b752bde97ecf70a28e829d1620b07ae4e9a49ebe86827dd2d0d72bf862", "blocktime": 1537870928, "version": 1, "confirmations": 11512, "time": 1537870928, "locktime": 0, "vsize": 283, "size": 283}