{"hash": "8a1ece448ccd82f52e33362ff546f049cc74856245b45632a6bc4fe8e5f92b12", "blockhash": "00000000000000000018f53835495a110e01622372bf6ae95dc86f2b0ab887b0", "vout": [{"scriptPubKey": {"reqSigs": 1, "hex": "001456a1f4fb2b9fd51af2402877f2088fbf56c0983b", "addresses": ["bc1q26slf7etnl234ujq9pmlyzy0hatvpxpm4mgxk5"], "asm": "0 56a1f4fb2b9fd51af2402877f2088fbf56c0983b", "type": "witness_v0_keyhash"}, "value": 0.00022366, "n": 0}, {"scriptPubKey": {"reqSigs": 1, "hex": "0020be5898a38a239b1566cefc394966d2ed28358736610ff20a8a5d65ba3aeb6e9b", "addresses": ["bc1qhevf3gu2ywd32ekwlsu5jekja55rtpekvy8lyz52t4jm5whtd6dscshf4p"], "asm": "0 be5898a38a239b1566cefc394966d2ed28358736610ff20a8a5d65ba3aeb6e9b", "type": "witness_v0_scripthash"}, "value": 0.00778864, "n": 1}], "hex": "01000000000103f22fe0123a5eb70329c63f92390f4b2993d6407eb664b687ef6e30fcf6fee14a0000000000ffffffff9ef7dca7622ef96977cdc73b81aeef25c3746760ec7de4d2b3e1a08a34775d860000000000fffffffff08ded0324e121364859d0df9a0ea3c60c079567d7fb8052663c0ce998b7e4d10000000000ffffffff025e5700000000000016001456a1f4fb2b9fd51af2402877f2088fbf56c0983b70e20b0000000000220020be5898a38a239b1566cefc394966d2ed28358736610ff20a8a5d65ba3aeb6e9b02473044022079188363dbba4d09b3982389a95a5cbdae669cecc5f15344b2e2ee9e32ac715e022067d6a7f77e086528a8d90b9fd123501a31d3f01204115995f0a82a805a286954012102ba78c0e9868913202bab84e0f4dc745a07029c682b199f736c3a096859fad9e702473044022049bb9eb2867221b3862503295081903275b3b81be1f3bbd32746f1a55fbbefed02203dc0887ab05a245bd19fcc9507a99ef28b868be2279e78b4d375bb46ed3355dd01210314c35b5a6ba0695cd489db784c29ceeda49b21a9700e78be29d0097603bae9800247304402205e1cb361e1a6a6b4653311dbe0583aad46e4ddd4499b23f001e554101a789c99022016d539189eb7c69873198793f23a320b94845f086e62aa364053a0e86bc1f615012103db773dd09e8474a2948c9c74bbd70c6d3a8307535cb82de03a8431b388b4ee2600000000", "vin": [{"txinwitness": ["3044022079188363dbba4d09b3982389a95a5cbdae669cecc5f15344b2e2ee9e32ac715e022067d6a7f77e086528a8d90b9fd123501a31d3f01204115995f0a82a805a28695401", "02ba78c0e9868913202bab84e0f4dc745a07029c682b199f736c3a096859fad9e7"], "sequence": 4294967295, "scriptSig": {"hex": "", "asm": ""}, "vout": 0, "txid": "4ae1fef6fc306eef87b664b67e40d693294b0f39923fc62903b75e3a12e02ff2"}, {"txinwitness": ["3044022049bb9eb2867221b3862503295081903275b3b81be1f3bbd32746f1a55fbbefed02203dc0887ab05a245bd19fcc9507a99ef28b868be2279e78b4d375bb46ed3355dd01", "0314c35b5a6ba0695cd489db784c29ceeda49b21a9700e78be29d0097603bae980"], "sequence": 4294967295, "scriptSig": {"hex": "", "asm": ""}, "vout": 0, "txid": "865d77348aa0e1b3d2e47dec606774c325efae813bc7cd7769f92e62a7dcf79e"}, {"txinwitness": ["304402205e1cb361e1a6a6b4653311dbe0583aad46e4ddd4499b23f001e554101a789c99022016d539189eb7c69873198793f23a320b94845f086e62aa364053a0e86bc1f61501", "03db773dd09e8474a2948c9c74bbd70c6d3a8307535cb82de03a8431b388b4ee26"], "sequence": 4294967295, "scriptSig": {"hex": "", "asm": ""}, "vout": 0, "txid": "d1e4b798e90c3c665280fbd76795070cc6a30e9adfd059483621e12403ed8df0"}], "txid": "e652d35d6eb57eb2279c364808068bea5145a7cb7689b9cc7b06cc6ab6ba2266", "blocktime": 1537870928, "version": 1, "confirmations": 11512, "time": 1537870928, "locktime": 0, "vsize": 288, "size": 530}