{"hash": "ae27113035ac023519d06ab47d48d75abbe140dff3971effcf30210385276d8a", "blockhash": "00000000000000000024a2167bbff67b0be802c0b01cdd79e6331c2be6459f87", "vout": [{"scriptPubKey": {"reqSigs": 1, "hex": "76a914e7a8af4ae522ede9c0d127ac94acd6109a5e814d88ac", "addresses": ["1N7uAjZVMrqwkzoMewimHUtrUu7uEpWKam"], "asm": "OP_DUP OP_HASH160 e7a8af4ae522ede9c0d127ac94acd6109a5e814d OP_EQUALVERIFY OP_CHECKSIG", "type": "pubkeyhash"}, "value": 0.00349479, "n": 0}, {"scriptPubKey": {"reqSigs": 1, "hex": "a9147ad63b89128bf17ff09fd8c0c573b10bded2854587", "addresses": ["3CtX15xbeKuQbUJnoefP49TXciA5JBidq2"], "asm": "OP_HASH160 7ad63b89128bf17ff09fd8c0c573b10bded28545 OP_EQUAL", "type": "scripthash"}, "value": 0.04498259, "n": 1}], "hex": "01000000000101a3a55713be1bb9e5551989430f5fd31ef6c050a4470d03c878249e11651b638d03000000171600147b5939465f3c42d4087326098cadabfcf5877c0effffffff0227550500000000001976a914e7a8af4ae522ede9c0d127ac94acd6109a5e814d88ac53a344000000000017a9147ad63b89128bf17ff09fd8c0c573b10bded285458702473044022039ec0dd8cadc4fdaf6730066f789080680eb54e02351a8fca4021524efe7cba2022055bb5bd864dbf4565128508f570d204fe081170015323cb1dd5f3bc864cc27cb012103acc765727d0f320166ee530e98a4712d72a1480442b8456540407f550b4c252200000000", "vin": [{"txinwitness": ["3044022039ec0dd8cadc4fdaf6730066f789080680eb54e02351a8fca4021524efe7cba2022055bb5bd864dbf4565128508f570d204fe081170015323cb1dd5f3bc864cc27cb01", "03acc765727d0f320166ee530e98a4712d72a1480442b8456540407f550b4c2522"], "sequence": 4294967295, "scriptSig": {"hex": "1600147b5939465f3c42d4087326098cadabfcf5877c0e", "asm": "00147b5939465f3c42d4087326098cadabfcf5877c0e"}, "vout": 3, "txid": "8d631b65119e2478c8030d47a450c0f61ed35f0f43891955e5b91bbe1357a5a3"}], "txid": "e655eb73e1d4f33768b5bc862fada86c84d24f1de5d9623213b893a2876ec6fe", "blocktime": 1537870564, "version": 1, "confirmations": 11515, "time": 1537870564, "locktime": 0, "vsize": 168, "size": 249}