{"hash": "e65519f34eb2311df16779865c11d24f0aeab35b0bf38648ff0d6c34514d532e", "blockhash": "0000000000000000000e13cef7c366c0283d82e591d1acd082e914b08063cdf1", "vout": [{"scriptPubKey": {"reqSigs": 1, "hex": "a914e386579de6926cd4a9a38a78ac7e819d0a9f00e087", "addresses": ["3NS4FMQZFu1hC2Y1yfLcEVZh1QJvGeSrwM"], "asm": "OP_HASH160 e386579de6926cd4a9a38a78ac7e819d0a9f00e0 OP_EQUAL", "type": "scripthash"}, "value": 0.00438, "n": 0}, {"scriptPubKey": {"reqSigs": 1, "hex": "76a914f4980987786e661c1370344844f2da0f07aab16b88ac", "addresses": ["1PJJ1YDA56FFWkQKooXUPSFq5EyR9iS3Y9"], "asm": "OP_DUP OP_HASH160 f4980987786e661c1370344844f2da0f07aab16b OP_EQUALVERIFY OP_CHECKSIG", "type": "pubkeyhash"}, "value": 0.00644078, "n": 1}], "hex": "01000000013e0a8504bb44313b56e581da7259ff136fc263241aa29c1eced327db801bccac010000006a47304402202af56b7af1f8ac4e41771c44238c8d18c8ebb165021513d1d8903dc720f9cee0022054a102eb442117c4f7cff94a500164f457908e9c830748ae01091fbce1a5e2df01210370948e881e868b35262e44a3e2c47445c454c4bc8ada5c22648aba4d74791283ffffffff02f0ae06000000000017a914e386579de6926cd4a9a38a78ac7e819d0a9f00e087eed30900000000001976a914f4980987786e661c1370344844f2da0f07aab16b88ac00000000", "vin": [{"sequence": 4294967295, "scriptSig": {"hex": "47304402202af56b7af1f8ac4e41771c44238c8d18c8ebb165021513d1d8903dc720f9cee0022054a102eb442117c4f7cff94a500164f457908e9c830748ae01091fbce1a5e2df01210370948e881e868b35262e44a3e2c47445c454c4bc8ada5c22648aba4d74791283", "asm": "304402202af56b7af1f8ac4e41771c44238c8d18c8ebb165021513d1d8903dc720f9cee0022054a102eb442117c4f7cff94a500164f457908e9c830748ae01091fbce1a5e2df[ALL] 0370948e881e868b35262e44a3e2c47445c454c4bc8ada5c22648aba4d74791283"}, "vout": 1, "txid": "accc1b80db27d3ce1e9ca21a2463c26f13ff5972da81e5563b3144bb04850a3e"}], "txid": "e65519f34eb2311df16779865c11d24f0aeab35b0bf38648ff0d6c34514d532e", "blocktime": 1537871767, "version": 1, "confirmations": 11495, "time": 1537871767, "locktime": 0, "vsize": 223, "size": 223}