{"hash": "e658e390de04e9a5508665513f2b414724f5d249aecc5a1e097882b0133b9aad", "blockhash": "0000000000000000001f0ddff1eddb255c1121bcd4da4f1bc9a0da00cae72433", "vout": [{"scriptPubKey": {"reqSigs": 1, "hex": "76a914c0821a88a356a1569803b0e569282a300d4735ad88ac", "addresses": ["1JYtbbJGsA3zYw2brXAhJM5dCA58RwTcHZ"], "asm": "OP_DUP OP_HASH160 c0821a88a356a1569803b0e569282a300d4735ad OP_EQUALVERIFY OP_CHECKSIG", "type": "pubkeyhash"}, "value": 1.377e-05, "n": 0}, {"scriptPubKey": {"reqSigs": 1, "hex": "76a914b7664ba0cfad3518c70b8cb57b3cd88fb959c2b188ac", "addresses": ["1HijCiW3MMScVg2HPidknC9dx9UQ3SLS4r"], "asm": "OP_DUP OP_HASH160 b7664ba0cfad3518c70b8cb57b3cd88fb959c2b1 OP_EQUALVERIFY OP_CHECKSIG", "type": "pubkeyhash"}, "value": 0.0012496, "n": 1}], "hex": "01000000040fb001428ce012626a5a6b58a32d5a1c04faf3663b6c791530ff6c11e3858b07000000006b483045022100d932c83764a8e860c1e9784c55d8fd8d60639def6f704b79e94b9c799c40fd280220715b48a1e7a9ae725e35735c1d51a196b9d634c7c8325028f49cb3c2f0c615f30121034a58de38c6786b75feeff86e949678db9b9a0fa121b7ac3128f649a75c6bc2c6ffffffffab02ed3a7f402a9a8b7db1d193ecf60b7d795f5ebece1fb6047f786ba106cf58000000006a4730440220551cd8963ad2cc0f6c37a6fc2f1538d441f028cc9dbe884b6542833cde0efdb302205f9090a6457131adc14ded6f718ae5851a4614162269e4415dd950f2ceb5483e012102b088f13c19ffebb66885e0db2abee6e9af0073a6514b3a662d3a78527bf8a1e6ffffffffc5266745455dd8f47b608bd47bd132389ccde447cd8c8b69f8b41e55e849f1a1000000006b483045022100d616f22ab29c1ce6c5ae3f0dbf6efc90f206e36f193be66584c60837a1d4cc2b02201e91616f0c536368ce96ec96af08b4c514b8cfca797cc53f49bb9c42c3cce8680121034a58de38c6786b75feeff86e949678db9b9a0fa121b7ac3128f649a75c6bc2c6ffffffffb342957a548d56017deab1662f81a9f74c3d7d94db91a69d93f08a82dc32ded1000000006b483045022100e327785e80dd6d4f31e708f41342306c05932a58588592e11b9b34087984695302203914dc169938b0466d0a68e012242a0622f44fff324c4927cd755c502ce2e547012103d6e51428ae3dab020c7287e1c4e3bbd8d3e54498af64cb47b52da293759b8ca4ffffffff0261050000000000001976a914c0821a88a356a1569803b0e569282a300d4735ad88ac20e80100000000001976a914b7664ba0cfad3518c70b8cb57b3cd88fb959c2b188ac00000000", "vin": [{"sequence": 4294967295, "scriptSig": {"hex": "483045022100d932c83764a8e860c1e9784c55d8fd8d60639def6f704b79e94b9c799c40fd280220715b48a1e7a9ae725e35735c1d51a196b9d634c7c8325028f49cb3c2f0c615f30121034a58de38c6786b75feeff86e949678db9b9a0fa121b7ac3128f649a75c6bc2c6", "asm": "3045022100d932c83764a8e860c1e9784c55d8fd8d60639def6f704b79e94b9c799c40fd280220715b48a1e7a9ae725e35735c1d51a196b9d634c7c8325028f49cb3c2f0c615f3[ALL] 034a58de38c6786b75feeff86e949678db9b9a0fa121b7ac3128f649a75c6bc2c6"}, "vout": 0, "txid": "078b85e3116cff3015796c3b66f3fa041c5a2da3586b5a6a6212e08c4201b00f"}, {"sequence": 4294967295, "scriptSig": {"hex": "4730440220551cd8963ad2cc0f6c37a6fc2f1538d441f028cc9dbe884b6542833cde0efdb302205f9090a6457131adc14ded6f718ae5851a4614162269e4415dd950f2ceb5483e012102b088f13c19ffebb66885e0db2abee6e9af0073a6514b3a662d3a78527bf8a1e6", "asm": "30440220551cd8963ad2cc0f6c37a6fc2f1538d441f028cc9dbe884b6542833cde0efdb302205f9090a6457131adc14ded6f718ae5851a4614162269e4415dd950f2ceb5483e[ALL] 02b088f13c19ffebb66885e0db2abee6e9af0073a6514b3a662d3a78527bf8a1e6"}, "vout": 0, "txid": "58cf06a16b787f04b61fcebe5e5f797d0bf6ec93d1b17d8b9a2a407f3aed02ab"}, {"sequence": 4294967295, "scriptSig": {"hex": "483045022100d616f22ab29c1ce6c5ae3f0dbf6efc90f206e36f193be66584c60837a1d4cc2b02201e91616f0c536368ce96ec96af08b4c514b8cfca797cc53f49bb9c42c3cce8680121034a58de38c6786b75feeff86e949678db9b9a0fa121b7ac3128f649a75c6bc2c6", "asm": "3045022100d616f22ab29c1ce6c5ae3f0dbf6efc90f206e36f193be66584c60837a1d4cc2b02201e91616f0c536368ce96ec96af08b4c514b8cfca797cc53f49bb9c42c3cce868[ALL] 034a58de38c6786b75feeff86e949678db9b9a0fa121b7ac3128f649a75c6bc2c6"}, "vout": 0, "txid": "a1f149e8551eb4f8698b8ccd47e4cd9c3832d17bd48b607bf4d85d45456726c5"}, {"sequence": 4294967295, "scriptSig": {"hex": "483045022100e327785e80dd6d4f31e708f41342306c05932a58588592e11b9b34087984695302203914dc169938b0466d0a68e012242a0622f44fff324c4927cd755c502ce2e547012103d6e51428ae3dab020c7287e1c4e3bbd8d3e54498af64cb47b52da293759b8ca4", "asm": "3045022100e327785e80dd6d4f31e708f41342306c05932a58588592e11b9b34087984695302203914dc169938b0466d0a68e012242a0622f44fff324c4927cd755c502ce2e547[ALL] 03d6e51428ae3dab020c7287e1c4e3bbd8d3e54498af64cb47b52da293759b8ca4"}, "vout": 0, "txid": "d1de32dc828af0939da691db947d3d4cf7a9812f66b1ea7d01568d547a9542b3"}], "txid": "e658e390de04e9a5508665513f2b414724f5d249aecc5a1e097882b0133b9aad", "blocktime": 1537872018, "version": 1, "confirmations": 11489, "time": 1537872018, "locktime": 0, "vsize": 669, "size": 669}