{"hash": "0e61f654f9bbefe48a43512d7af57da54dbd1f7fa98cc739def2fa126fbbbf57", "blockhash": "0000000000000000001cda96e906b7601b7a6fb1a3b62bca570a9e5d8f4b3de1", "vout": [{"scriptPubKey": {"reqSigs": 1, "hex": "a914cf66d6097af8dff78f130306a6d3fd0eed78fc3887", "addresses": ["3LbezRq5feDDtbnLuJNRLgsWJp2C4ysSaX"], "asm": "OP_HASH160 cf66d6097af8dff78f130306a6d3fd0eed78fc38 OP_EQUAL", "type": "scripthash"}, "value": 0.299265, "n": 0}, {"scriptPubKey": {"reqSigs": 1, "hex": "a9149f509549cbcc6d038efa79eeefa2183804e4ae5987", "addresses": ["3GDPu4UW8yKGV3CUhx7rj9M56LvDM7XUpD"], "asm": "OP_HASH160 9f509549cbcc6d038efa79eeefa2183804e4ae59 OP_EQUAL", "type": "scripthash"}, "value": 0.33688808, "n": 1}], "hex": "0200000000010193086adc17f4f24a8d80588d3e8617419f6fd91fbb4152f08c58af86d3504a13000000001716001425ff92e12343a020f7fc00ad6d7d93756f78036cfeffffff0264a4c8010000000017a914cf66d6097af8dff78f130306a6d3fd0eed78fc3887e80c02020000000017a9149f509549cbcc6d038efa79eeefa2183804e4ae59870247304402205de384154ff4ca4a689b313f8cdeebd3a4974997622cc3b7f13c63e1e803169a0220532defb1f16e7fe7f312264ed01e446d440674b04385914e47436117a3d3d078012103565959a20051473a96fd2c577a2c01de272a3e08a7870322e9bca5e8d08b0e9d13490800", "vin": [{"txinwitness": ["304402205de384154ff4ca4a689b313f8cdeebd3a4974997622cc3b7f13c63e1e803169a0220532defb1f16e7fe7f312264ed01e446d440674b04385914e47436117a3d3d07801", "03565959a20051473a96fd2c577a2c01de272a3e08a7870322e9bca5e8d08b0e9d"], "sequence": 4294967294, "scriptSig": {"hex": "16001425ff92e12343a020f7fc00ad6d7d93756f78036c", "asm": "001425ff92e12343a020f7fc00ad6d7d93756f78036c"}, "vout": 0, "txid": "134a50d386af588cf05241bb1fd96f9f4117863e8d58808d4af2f417dc6a0893"}], "txid": "e6626e195e6295ecb512b5a0fcb34b70e3f0603218c59b5bcaf901407ac6b258", "blocktime": 1537873282, "version": 2, "confirmations": 11484, "time": 1537873282, "locktime": 542995, "vsize": 166, "size": 247}