{"hash": "e66cffeedeca516558205499b8e7138ba4b14ae088300e90fc9178365a4f9792", "blockhash": "0000000000000000000baef3f32e3676a92c3b2e5da21b426e4f302fc371ce76", "vout": [{"scriptPubKey": {"reqSigs": 1, "hex": "76a914e8cea30989bd15530f819b766684b00dc7ba7cfa88ac", "addresses": ["1NDyJtNTjmwk5xPNhjgAMu4HDHigtobu1s"], "asm": "OP_DUP OP_HASH160 e8cea30989bd15530f819b766684b00dc7ba7cfa OP_EQUALVERIFY OP_CHECKSIG", "type": "pubkeyhash"}, "value": 1.66363481, "n": 0}, {"scriptPubKey": {"reqSigs": 1, "hex": "76a914555584915ac4e20e996180dd765ac7948349675288ac", "addresses": ["18nCtBzR1tbx9U9TSxWcH77xM2GViLJEpF"], "asm": "OP_DUP OP_HASH160 555584915ac4e20e996180dd765ac79483496752 OP_EQUALVERIFY OP_CHECKSIG", "type": "pubkeyhash"}, "value": 7.67613919, "n": 1}], "hex": "02000000014e221c0d63114e0c61437bb614c633398bd9ba1fee5a6d5104e60cf5e43a639d000000006a473044022001cf94417ab8bc3f08d0956f7ddcc6a22c86dbe738b6e63aae2d8436a034087802207462ab7b02eb5ab7bd54f328fa51dd7cbfdfc5c439c7b80194d7c71be5398413012102f1bc529c990820661626521aad77a6fb9ec9d752edfbf1b88d059229f3889574feffffff025981ea09000000001976a914e8cea30989bd15530f819b766684b00dc7ba7cfa88acdfdbc02d000000001976a914555584915ac4e20e996180dd765ac7948349675288ac17490800", "vin": [{"sequence": 4294967294, "scriptSig": {"hex": "473044022001cf94417ab8bc3f08d0956f7ddcc6a22c86dbe738b6e63aae2d8436a034087802207462ab7b02eb5ab7bd54f328fa51dd7cbfdfc5c439c7b80194d7c71be5398413012102f1bc529c990820661626521aad77a6fb9ec9d752edfbf1b88d059229f3889574", "asm": "3044022001cf94417ab8bc3f08d0956f7ddcc6a22c86dbe738b6e63aae2d8436a034087802207462ab7b02eb5ab7bd54f328fa51dd7cbfdfc5c439c7b80194d7c71be5398413[ALL] 02f1bc529c990820661626521aad77a6fb9ec9d752edfbf1b88d059229f3889574"}, "vout": 0, "txid": "9d633ae4f50ce604516d5aee1fbad98b3933c614b67b43610c4e11630d1c224e"}], "txid": "e66cffeedeca516558205499b8e7138ba4b14ae088300e90fc9178365a4f9792", "blocktime": 1537876114, "version": 2, "confirmations": 11459, "time": 1537876114, "locktime": 542999, "vsize": 225, "size": 225}