{"hash": "e670b169f73727bd5ccf5c467199a897c3a568d685ec4b0606b908676a255dae", "blockhash": "0000000000000000001f76057863aec43deb6fa401d9628bb513d65a8098bfab", "vout": [{"scriptPubKey": {"reqSigs": 1, "hex": "76a91452923251c408ba9921a8d73875fa4f5bc54e339288ac", "addresses": ["18XbYeRN7TeNCf44vvwATqiwx9CW8DaLpg"], "asm": "OP_DUP OP_HASH160 52923251c408ba9921a8d73875fa4f5bc54e3392 OP_EQUALVERIFY OP_CHECKSIG", "type": "pubkeyhash"}, "value": 0.127203, "n": 0}, {"scriptPubKey": {"reqSigs": 1, "hex": "76a9140fa5b4f55964870fb2651567fabaed02644d74e288ac", "addresses": ["12RjePmWWNea4CvtpVdgNqTxKXwQcA9hRN"], "asm": "OP_DUP OP_HASH160 0fa5b4f55964870fb2651567fabaed02644d74e2 OP_EQUALVERIFY OP_CHECKSIG", "type": "pubkeyhash"}, "value": 1.33480732, "n": 1}], "hex": "0100000001e6c0eae89bbc988875c43b705641dedd72a30a4eb248439cf7afb4fcab725b1e010000006a473044022017b24af4d812ba3960c62a8b234654dcfc815bc3544444a6e3e43a68488088310220160ae8931bb9c2714e8af08e84bafb0d61eac4dd361ea7baf88e46c2654929eb0121030123f51bdf7dd81d1cee99900ecc5bea356c2ca23335345bb4eb8f4ecb83dbc6ffffffff02ac18c200000000001976a91452923251c408ba9921a8d73875fa4f5bc54e339288ac1cc1f407000000001976a9140fa5b4f55964870fb2651567fabaed02644d74e288ac00000000", "vin": [{"sequence": 4294967295, "scriptSig": {"hex": "473044022017b24af4d812ba3960c62a8b234654dcfc815bc3544444a6e3e43a68488088310220160ae8931bb9c2714e8af08e84bafb0d61eac4dd361ea7baf88e46c2654929eb0121030123f51bdf7dd81d1cee99900ecc5bea356c2ca23335345bb4eb8f4ecb83dbc6", "asm": "3044022017b24af4d812ba3960c62a8b234654dcfc815bc3544444a6e3e43a68488088310220160ae8931bb9c2714e8af08e84bafb0d61eac4dd361ea7baf88e46c2654929eb[ALL] 030123f51bdf7dd81d1cee99900ecc5bea356c2ca23335345bb4eb8f4ecb83dbc6"}, "vout": 1, "txid": "1e5b72abfcb4aff79c4348b24e0aa372ddde4156703bc4758898bc9be8eac0e6"}], "txid": "e670b169f73727bd5ccf5c467199a897c3a568d685ec4b0606b908676a255dae", "blocktime": 1537873891, "version": 1, "confirmations": 11474, "time": 1537873891, "locktime": 0, "vsize": 225, "size": 225}