{"hash": "87f6768725e71f5001eeb593d66c83844e4d521262d52019474975bf0f1608d1", "blockhash": "0000000000000000000dcc0f55137456b1a82d3642486a52398922ac4d620174", "vout": [{"scriptPubKey": {"reqSigs": 1, "hex": "76a9142e1b944fe7ffbe969fc1df8d662fd7b5d6303c9b88ac", "addresses": ["15Co856cRnFRCKwSSzECoyT3ozVhuFoJZ6"], "asm": "OP_DUP OP_HASH160 2e1b944fe7ffbe969fc1df8d662fd7b5d6303c9b OP_EQUALVERIFY OP_CHECKSIG", "type": "pubkeyhash"}, "value": 1.987e-05, "n": 0}, {"scriptPubKey": {"reqSigs": 1, "hex": "a91493f04f144525f3658f4f50683d6de045bc3d983087", "addresses": ["3FBF8hSkWzwmQvHgoEZCkAAr8TY3WMkmht"], "asm": "OP_HASH160 93f04f144525f3658f4f50683d6de045bc3d9830 OP_EQUAL", "type": "scripthash"}, "value": 0.01004714, "n": 1}], "hex": "020000000001013a8640fac284a7ec8be251ac28bfce68bc5080a3c621bb43658caf3f7a7a2c2d0100000017160014e04ad8809b6cc3696e9c763b678f11d033d7d788feffffff02c3070000000000001976a9142e1b944fe7ffbe969fc1df8d662fd7b5d6303c9b88acaa540f000000000017a91493f04f144525f3658f4f50683d6de045bc3d98308702483045022100b49c7b462e80fafa74ad987981365d670cbbec789e9f4bdbfb2989a33367911702201247a91e7de5f95ee6acc5e9f84959026c0acc4ca9f4d6aff9d49116a07f4e0201210385dc3e8cf0174c1ee600c12abd8e80084dd1fc4ad57c5699cbe088b1a5bfc8c30c490800", "vin": [{"txinwitness": ["3045022100b49c7b462e80fafa74ad987981365d670cbbec789e9f4bdbfb2989a33367911702201247a91e7de5f95ee6acc5e9f84959026c0acc4ca9f4d6aff9d49116a07f4e0201", "0385dc3e8cf0174c1ee600c12abd8e80084dd1fc4ad57c5699cbe088b1a5bfc8c3"], "sequence": 4294967294, "scriptSig": {"hex": "160014e04ad8809b6cc3696e9c763b678f11d033d7d788", "asm": "0014e04ad8809b6cc3696e9c763b678f11d033d7d788"}, "vout": 1, "txid": "2d2c7a7a3faf8c6543bb21c6a38050bc68cebf28ac51e28beca784c2fa40863a"}], "txid": "e675586e14667ca0289f9f064e9b9d5e80e6f4ef07da291dac160338d21488fc", "blocktime": 1537870268, "version": 2, "confirmations": 11518, "time": 1537870268, "locktime": 542988, "vsize": 168, "size": 250}