{"hash": "e6818a3912b4be4b82207ea07abac69da66849ad8aa3a79f695dae8524150e1e", "blockhash": "0000000000000000000e13cef7c366c0283d82e591d1acd082e914b08063cdf1", "vout": [{"scriptPubKey": {"reqSigs": 1, "hex": "76a91407ff996877802f1863bbc55861dea9825ac59ddc88ac", "addresses": ["1jHvh2NzPw7wES3sYREoudTEc16r6bXsf"], "asm": "OP_DUP OP_HASH160 07ff996877802f1863bbc55861dea9825ac59ddc OP_EQUALVERIFY OP_CHECKSIG", "type": "pubkeyhash"}, "value": 0.00095768, "n": 0}, {"scriptPubKey": {"reqSigs": 1, "hex": "76a914f968111ca24f542d664ffa198117ff0c5bb0b93488ac", "addresses": ["1PjjvTVgG6U51PLUnUJhdUUupfHjepMKKy"], "asm": "OP_DUP OP_HASH160 f968111ca24f542d664ffa198117ff0c5bb0b934 OP_EQUALVERIFY OP_CHECKSIG", "type": "pubkeyhash"}, "value": 0.00371505, "n": 1}], "hex": "0100000002c17ebba694fd77230652697628ea36827f1f756d36047cea93067f6fe1d897b1000000006b48304502210087235b7fc9f242d4625c704799eb5eda851e32afede86fa222da47e78951f102022031cb80740e10befbcb6b8e0b5a88416673c896a5c527ac2e9de65885ff1e23cc01210295739d7196ab294264e2210ddca9cf6308e9373201cf45b47412cd0dbd1b735dffffffff50beb557d1fc6c48f0be0257f142031870f208b6922c078b034c19bcae867bdf000000006b483045022100f5656e3b83d37976aa362bb24b16641eae93052c0e257129292bce0551936e2c02204140a33316e86ada7bb9d24a6db7268d75de079da9109771746152b4cf42b9d0012103e10950eb3b0c417456a72355ebb14220da1b7f6709312e109e3b0c49e8a7edc9ffffffff0218760100000000001976a91407ff996877802f1863bbc55861dea9825ac59ddc88ac31ab0500000000001976a914f968111ca24f542d664ffa198117ff0c5bb0b93488ac00000000", "vin": [{"sequence": 4294967295, "scriptSig": {"hex": "48304502210087235b7fc9f242d4625c704799eb5eda851e32afede86fa222da47e78951f102022031cb80740e10befbcb6b8e0b5a88416673c896a5c527ac2e9de65885ff1e23cc01210295739d7196ab294264e2210ddca9cf6308e9373201cf45b47412cd0dbd1b735d", "asm": "304502210087235b7fc9f242d4625c704799eb5eda851e32afede86fa222da47e78951f102022031cb80740e10befbcb6b8e0b5a88416673c896a5c527ac2e9de65885ff1e23cc[ALL] 0295739d7196ab294264e2210ddca9cf6308e9373201cf45b47412cd0dbd1b735d"}, "vout": 0, "txid": "b197d8e16f7f0693ea7c04366d751f7f8236ea28766952062377fd94a6bb7ec1"}, {"sequence": 4294967295, "scriptSig": {"hex": "483045022100f5656e3b83d37976aa362bb24b16641eae93052c0e257129292bce0551936e2c02204140a33316e86ada7bb9d24a6db7268d75de079da9109771746152b4cf42b9d0012103e10950eb3b0c417456a72355ebb14220da1b7f6709312e109e3b0c49e8a7edc9", "asm": "3045022100f5656e3b83d37976aa362bb24b16641eae93052c0e257129292bce0551936e2c02204140a33316e86ada7bb9d24a6db7268d75de079da9109771746152b4cf42b9d0[ALL] 03e10950eb3b0c417456a72355ebb14220da1b7f6709312e109e3b0c49e8a7edc9"}, "vout": 0, "txid": "df7b86aebc194c038b072c92b608f270180342f15702bef0486cfcd157b5be50"}], "txid": "e6818a3912b4be4b82207ea07abac69da66849ad8aa3a79f695dae8524150e1e", "blocktime": 1537871767, "version": 1, "confirmations": 11495, "time": 1537871767, "locktime": 0, "vsize": 374, "size": 374}