{"hash": "e6835dce27855d7386fec7c365de25de71400f200c4d906a44cc5b3fe1ac88c3", "blockhash": "0000000000000000000e13cef7c366c0283d82e591d1acd082e914b08063cdf1", "vout": [{"scriptPubKey": {"reqSigs": 1, "hex": "76a914592a9e1a0cce37e825583e5a4973f9f829e28efa88ac", "addresses": ["198UCCHiagwfFwipfvjWxBRenoogNsTnPT"], "asm": "OP_DUP OP_HASH160 592a9e1a0cce37e825583e5a4973f9f829e28efa OP_EQUALVERIFY OP_CHECKSIG", "type": "pubkeyhash"}, "value": 0.00396658, "n": 0}, {"scriptPubKey": {"reqSigs": 1, "hex": "a9144eed3614dbb36842e4a28cc440d8e09e25a33f7d87", "addresses": ["38tLoEVpXFa4JTJeWynE49FfUXZJEAyNXi"], "asm": "OP_HASH160 4eed3614dbb36842e4a28cc440d8e09e25a33f7d OP_EQUAL", "type": "scripthash"}, "value": 0.06, "n": 1}], "hex": "010000000199995aeaf4e14addc42352a39f1ac324dead778dafb200d01ebdb54ebde48283080000006a4730440220060a97da07e1350d818e1f5a3ad4498e7c4e58021b8e2750dfa292ead3c3c09d0220365005c4cc35e2a0214f73be9cbc31e2867946aaea3430db14c83b51d307256d012103c63c4fc81a79916aacaa8ecb6f1dbdd1bd0ab52468c2fe8afd805b4858632183ffffffff02720d0600000000001976a914592a9e1a0cce37e825583e5a4973f9f829e28efa88ac808d5b000000000017a9144eed3614dbb36842e4a28cc440d8e09e25a33f7d8700000000", "vin": [{"sequence": 4294967295, "scriptSig": {"hex": "4730440220060a97da07e1350d818e1f5a3ad4498e7c4e58021b8e2750dfa292ead3c3c09d0220365005c4cc35e2a0214f73be9cbc31e2867946aaea3430db14c83b51d307256d012103c63c4fc81a79916aacaa8ecb6f1dbdd1bd0ab52468c2fe8afd805b4858632183", "asm": "30440220060a97da07e1350d818e1f5a3ad4498e7c4e58021b8e2750dfa292ead3c3c09d0220365005c4cc35e2a0214f73be9cbc31e2867946aaea3430db14c83b51d307256d[ALL] 03c63c4fc81a79916aacaa8ecb6f1dbdd1bd0ab52468c2fe8afd805b4858632183"}, "vout": 8, "txid": "8382e4bd4eb5bd1ed000b2af8d77adde24c31a9fa35223c4dd4ae1f4ea5a9999"}], "txid": "e6835dce27855d7386fec7c365de25de71400f200c4d906a44cc5b3fe1ac88c3", "blocktime": 1537871767, "version": 1, "confirmations": 11490, "time": 1537871767, "locktime": 0, "vsize": 223, "size": 223}