{"hash": "e68330d5158f36e8e5adb2460cedbc7fb3981df2467596fdfe628e447c98a8e9", "blockhash": "0000000000000000001cda96e906b7601b7a6fb1a3b62bca570a9e5d8f4b3de1", "vout": [{"scriptPubKey": {"reqSigs": 1, "hex": "76a9143fe3c779b53e6ce2d555ef7c927a4551948264b188ac", "addresses": ["16ppSTmyzpRyE96fK6wZquWsXfLWcF8zkP"], "asm": "OP_DUP OP_HASH160 3fe3c779b53e6ce2d555ef7c927a4551948264b1 OP_EQUALVERIFY OP_CHECKSIG", "type": "pubkeyhash"}, "value": 0.00099475, "n": 0}], "hex": "01000000011335821da8012619ac1023f6aaa7013fceae20e2a6d1ed4251a5dc4576ba6d68000000006a4730440220341a109ad8aac6851134279ee85c6161f5cc1000bf523e9908546ebb627521a2022003c19b4f72374e0172bde50f019f20f1fef997677a186d6b207a07fc28cb8fdd012102e0a06a8f614daac7064ef9f1b3b4c17f23aa6fa9592eac40ca1f7e5f99f74207ffffffff0193840100000000001976a9143fe3c779b53e6ce2d555ef7c927a4551948264b188ac00000000", "vin": [{"sequence": 4294967295, "scriptSig": {"hex": "4730440220341a109ad8aac6851134279ee85c6161f5cc1000bf523e9908546ebb627521a2022003c19b4f72374e0172bde50f019f20f1fef997677a186d6b207a07fc28cb8fdd012102e0a06a8f614daac7064ef9f1b3b4c17f23aa6fa9592eac40ca1f7e5f99f74207", "asm": "30440220341a109ad8aac6851134279ee85c6161f5cc1000bf523e9908546ebb627521a2022003c19b4f72374e0172bde50f019f20f1fef997677a186d6b207a07fc28cb8fdd[ALL] 02e0a06a8f614daac7064ef9f1b3b4c17f23aa6fa9592eac40ca1f7e5f99f74207"}, "vout": 0, "txid": "686dba7645dca55142edd1a6e220aece3f01a7aaf62310ac192601a81d823513"}], "txid": "e68330d5158f36e8e5adb2460cedbc7fb3981df2467596fdfe628e447c98a8e9", "blocktime": 1537873282, "version": 1, "confirmations": 11484, "time": 1537873282, "locktime": 0, "vsize": 191, "size": 191}