{"hash": "e687ba3f053b17839baf33fe7ebe640d63c423e840cda7bd2447d953d4cb2c79", "blockhash": "00000000000000000018f53835495a110e01622372bf6ae95dc86f2b0ab887b0", "vout": [{"scriptPubKey": {"reqSigs": 1, "hex": "76a914d64b9877dd5e674b683721921dd35061a99703f188ac", "addresses": ["1LY6AXRpgEvHaWZsFVb9UX1mXNut6TKYrd"], "asm": "OP_DUP OP_HASH160 d64b9877dd5e674b683721921dd35061a99703f1 OP_EQUALVERIFY OP_CHECKSIG", "type": "pubkeyhash"}, "value": 0.00024361, "n": 0}, {"scriptPubKey": {"reqSigs": 1, "hex": "76a914e01d060fa8b7ce3047f324b6ff0882007db56b2b88ac", "addresses": ["1MS18a5r7fqMVvbExujNdxSd9cJ6dMWbEb"], "asm": "OP_DUP OP_HASH160 e01d060fa8b7ce3047f324b6ff0882007db56b2b OP_EQUALVERIFY OP_CHECKSIG", "type": "pubkeyhash"}, "value": 0.00192, "n": 1}], "hex": "0100000004642dae0dd7dac055d0d85c5bdf08addc63954bf8265edc3ca98a3c00b7ebbed6000000006b483045022100bdb8f401933e8c027a08f8c7334d7c66def41e596cf058895afc9fa8d1f4be82022067f7dd89698529e6b90990493c1344e2bbf8d6e9bb8c485f2c753c32c333c5b8012103eb1650437334ba641ed029b9f31d51c47d5b2b3ab16ba67e1c09ec7eb1db7abaffffffffd6d614ecaf0c556ef54e01cf312680c09962a480058d66655cf705f6f8dfad84000000006a473044022011c71719fe31461cabf02af419ffe75c42224ba46de26e5dc302539ccfe8b23202202e6a97e6556395af27c9321d81f03d2e295434124cff8ebde2b5dbd9e26d8c6a012103071caa887fb8f3b499a5840d73dd721212ff93c9f03bcf72584cec3988035c92fffffffff62a31da4e7c3449b6f0269b99ef7938b8c4d9332649fa6ef685b4bf8de11981010000006a473044022003a106d765cc3dc2ff4bd878d8c18a01fcbaad942ba0520ad5281512bd1a9c7002205f9eb55ebab5571dccd1f9c919433e27a134a6a8a38227d39338d6b702734929012103a8592275b4d99e2cb2c455f51baafa8dea449d15f63b452ade415fbf086fc8ccffffffffbd4bc58ad93abadcd46eb7a759120d142ae41bfea6ca8f99b07c484597b3ab31010000006b483045022100c6b11b25cb679d7aa049fccbc88a13bdf235ff7b9a4b6b853ce8abd58a535cf902207396413c7881e0780d62e0fb2235e9ea5e89061df7a1eea009a5c6e1fd4442ac012102f53e9ec946c2f5818479c4cd0068feb78f570b7be06ec7c2710ec6c655d672eaffffffff02295f0000000000001976a914d64b9877dd5e674b683721921dd35061a99703f188ac00ee0200000000001976a914e01d060fa8b7ce3047f324b6ff0882007db56b2b88ac00000000", "vin": [{"sequence": 4294967295, "scriptSig": {"hex": "483045022100bdb8f401933e8c027a08f8c7334d7c66def41e596cf058895afc9fa8d1f4be82022067f7dd89698529e6b90990493c1344e2bbf8d6e9bb8c485f2c753c32c333c5b8012103eb1650437334ba641ed029b9f31d51c47d5b2b3ab16ba67e1c09ec7eb1db7aba", "asm": "3045022100bdb8f401933e8c027a08f8c7334d7c66def41e596cf058895afc9fa8d1f4be82022067f7dd89698529e6b90990493c1344e2bbf8d6e9bb8c485f2c753c32c333c5b8[ALL] 03eb1650437334ba641ed029b9f31d51c47d5b2b3ab16ba67e1c09ec7eb1db7aba"}, "vout": 0, "txid": "d6beebb7003c8aa93cdc5e26f84b9563dcad08df5b5cd8d055c0dad70dae2d64"}, {"sequence": 4294967295, "scriptSig": {"hex": "473044022011c71719fe31461cabf02af419ffe75c42224ba46de26e5dc302539ccfe8b23202202e6a97e6556395af27c9321d81f03d2e295434124cff8ebde2b5dbd9e26d8c6a012103071caa887fb8f3b499a5840d73dd721212ff93c9f03bcf72584cec3988035c92", "asm": "3044022011c71719fe31461cabf02af419ffe75c42224ba46de26e5dc302539ccfe8b23202202e6a97e6556395af27c9321d81f03d2e295434124cff8ebde2b5dbd9e26d8c6a[ALL] 03071caa887fb8f3b499a5840d73dd721212ff93c9f03bcf72584cec3988035c92"}, "vout": 0, "txid": "84addff8f605f75c65668d0580a46299c0802631cf014ef56e550cafec14d6d6"}, {"sequence": 4294967295, "scriptSig": {"hex": "473044022003a106d765cc3dc2ff4bd878d8c18a01fcbaad942ba0520ad5281512bd1a9c7002205f9eb55ebab5571dccd1f9c919433e27a134a6a8a38227d39338d6b702734929012103a8592275b4d99e2cb2c455f51baafa8dea449d15f63b452ade415fbf086fc8cc", "asm": "3044022003a106d765cc3dc2ff4bd878d8c18a01fcbaad942ba0520ad5281512bd1a9c7002205f9eb55ebab5571dccd1f9c919433e27a134a6a8a38227d39338d6b702734929[ALL] 03a8592275b4d99e2cb2c455f51baafa8dea449d15f63b452ade415fbf086fc8cc"}, "vout": 1, "txid": "8119e18dbfb485f66efa492633d9c4b83879ef999b26f0b649347c4eda312af6"}, {"sequence": 4294967295, "scriptSig": {"hex": "483045022100c6b11b25cb679d7aa049fccbc88a13bdf235ff7b9a4b6b853ce8abd58a535cf902207396413c7881e0780d62e0fb2235e9ea5e89061df7a1eea009a5c6e1fd4442ac012102f53e9ec946c2f5818479c4cd0068feb78f570b7be06ec7c2710ec6c655d672ea", "asm": "3045022100c6b11b25cb679d7aa049fccbc88a13bdf235ff7b9a4b6b853ce8abd58a535cf902207396413c7881e0780d62e0fb2235e9ea5e89061df7a1eea009a5c6e1fd4442ac[ALL] 02f53e9ec946c2f5818479c4cd0068feb78f570b7be06ec7c2710ec6c655d672ea"}, "vout": 1, "txid": "31abb39745487cb0998fcaa6fe1be42a140d1259a7b76ed4dcba3ad98ac54bbd"}], "txid": "e687ba3f053b17839baf33fe7ebe640d63c423e840cda7bd2447d953d4cb2c79", "blocktime": 1537870928, "version": 1, "confirmations": 11514, "time": 1537870928, "locktime": 0, "vsize": 668, "size": 668}