{"hash": "e690eb19a6194dd0b8e10d9a5539dbc2ab41f896bf6a09430f5ead36dc8d20ef", "blockhash": "0000000000000000000e13cef7c366c0283d82e591d1acd082e914b08063cdf1", "vout": [{"scriptPubKey": {"reqSigs": 1, "hex": "76a9147846a831ff2c428bdced87ce31d591ae285e846088ac", "addresses": ["1BxxjMb8Ng6o4seBg2Yp5qtobCxr6vhTgg"], "asm": "OP_DUP OP_HASH160 7846a831ff2c428bdced87ce31d591ae285e8460 OP_EQUALVERIFY OP_CHECKSIG", "type": "pubkeyhash"}, "value": 0.01694614, "n": 0}], "hex": "0100000001ac7b827bb3421634d45be62c0b5cda2e0a0e77491b7e73b1b11bc4e7a8ebe48f0000000069463043021f29b6dffa36e67907f7b0772c88b30c76e305e9d9905fcca5c16cacbcf6badd0220635f5c44bcd71fd4d4713752568c87d7f4629091856747a41aafe5989996474c0121035568b559ebced266c5b64fa5c4925ec759520a08eec377fcc14ea3d4223a2258ffffffff0196db1900000000001976a9147846a831ff2c428bdced87ce31d591ae285e846088ac00000000", "vin": [{"sequence": 4294967295, "scriptSig": {"hex": "463043021f29b6dffa36e67907f7b0772c88b30c76e305e9d9905fcca5c16cacbcf6badd0220635f5c44bcd71fd4d4713752568c87d7f4629091856747a41aafe5989996474c0121035568b559ebced266c5b64fa5c4925ec759520a08eec377fcc14ea3d4223a2258", "asm": "3043021f29b6dffa36e67907f7b0772c88b30c76e305e9d9905fcca5c16cacbcf6badd0220635f5c44bcd71fd4d4713752568c87d7f4629091856747a41aafe5989996474c[ALL] 035568b559ebced266c5b64fa5c4925ec759520a08eec377fcc14ea3d4223a2258"}, "vout": 0, "txid": "8fe4eba8e7c41bb1b1737e1b49770e0a2eda5c0b2ce65bd4341642b37b827bac"}], "txid": "e690eb19a6194dd0b8e10d9a5539dbc2ab41f896bf6a09430f5ead36dc8d20ef", "blocktime": 1537871767, "version": 1, "confirmations": 11495, "time": 1537871767, "locktime": 0, "vsize": 190, "size": 190}