{"hash": "e6928a72f54710a6fcaf98753f5436f7a9ecef53e6c9b7d47e9962c6f68dccae", "blockhash": "00000000000000000024a2167bbff67b0be802c0b01cdd79e6331c2be6459f87", "vout": [{"scriptPubKey": {"reqSigs": 1, "hex": "76a914bbf676c726d241beafc244296f7969827012eec788ac", "addresses": ["1J8rcVPwRjJdi1jhk95AsjMfsLBbP7x7pS"], "asm": "OP_DUP OP_HASH160 bbf676c726d241beafc244296f7969827012eec7 OP_EQUALVERIFY OP_CHECKSIG", "type": "pubkeyhash"}, "value": 0.02892164, "n": 0}, {"scriptPubKey": {"type": "nulldata", "hex": "6a146f6d6e69000000000000001f0000016abbf5742f", "asm": "OP_RETURN 6f6d6e69000000000000001f0000016abbf5742f"}, "value": 0.0, "n": 1}, {"scriptPubKey": {"reqSigs": 1, "hex": "76a91437f758bf0d4654bbc6de4098670c55dfe635e87288ac", "addresses": ["166vUVu9zA71GGhk5BPooYHKQhEL2BELWz"], "asm": "OP_DUP OP_HASH160 37f758bf0d4654bbc6de4098670c55dfe635e872 OP_EQUALVERIFY OP_CHECKSIG", "type": "pubkeyhash"}, "value": 5.46e-06, "n": 2}], "hex": "0100000001942f404937f572c8a6338f5bbede040628723f312c43f15bd4a84f8ddbc1e3fc000000006a473044022000e64d2dce99a86538830ca47c022fcf0ebe8a9c0052ce86cbe398eb03d2bedb022010eafe5cc75dea4da8a4f00d144d6c05239765b91b99016fbaa91b76e1616954012102061af1d6ec220f4ce39a77205368245c29cd0d340edeb4ced8fd2bd0bc788d42ffffffff0384212c00000000001976a914bbf676c726d241beafc244296f7969827012eec788ac0000000000000000166a146f6d6e69000000000000001f0000016abbf5742f22020000000000001976a91437f758bf0d4654bbc6de4098670c55dfe635e87288ac00000000", "vin": [{"sequence": 4294967295, "scriptSig": {"hex": "473044022000e64d2dce99a86538830ca47c022fcf0ebe8a9c0052ce86cbe398eb03d2bedb022010eafe5cc75dea4da8a4f00d144d6c05239765b91b99016fbaa91b76e1616954012102061af1d6ec220f4ce39a77205368245c29cd0d340edeb4ced8fd2bd0bc788d42", "asm": "3044022000e64d2dce99a86538830ca47c022fcf0ebe8a9c0052ce86cbe398eb03d2bedb022010eafe5cc75dea4da8a4f00d144d6c05239765b91b99016fbaa91b76e1616954[ALL] 02061af1d6ec220f4ce39a77205368245c29cd0d340edeb4ced8fd2bd0bc788d42"}, "vout": 0, "txid": "fce3c1db8d4fa8d45bf1432c313f72280604debe5b8f33a6c872f53749402f94"}], "txid": "e6928a72f54710a6fcaf98753f5436f7a9ecef53e6c9b7d47e9962c6f68dccae", "blocktime": 1537870564, "version": 1, "confirmations": 11515, "time": 1537870564, "locktime": 0, "vsize": 256, "size": 256}