{"hash": "e692d5db9ea8ec0ebd10e7871aacbb6419c18186209aa50f2e53e920527c1cb3", "blockhash": "000000000000000000022b45ed06c6f4ccd3cf7fb5ba4856ebd2e58215665228", "vout": [{"scriptPubKey": {"reqSigs": 1, "hex": "76a914b05fb2c332326cd8508c0f28cac09ee3f7e32cba88ac", "addresses": ["1H5aZzmULCwiYtJ9Jr9Zhy6TKKiVMzLttW"], "asm": "OP_DUP OP_HASH160 b05fb2c332326cd8508c0f28cac09ee3f7e32cba OP_EQUALVERIFY OP_CHECKSIG", "type": "pubkeyhash"}, "value": 0.021145, "n": 0}, {"scriptPubKey": {"reqSigs": 1, "hex": "76a914ccec17c2844d5248ea2a7d2750a61bb273697cbd88ac", "addresses": ["1KgXg9g6nc84zvQoTbLcF3nnUcXhqEXjP3"], "asm": "OP_DUP OP_HASH160 ccec17c2844d5248ea2a7d2750a61bb273697cbd OP_EQUALVERIFY OP_CHECKSIG", "type": "pubkeyhash"}, "value": 0.0126381, "n": 1}], "hex": "01000000027d89adcd5162f82b8f91cfe15c353741348c138ee726a05e12de3ac6f271b731000000006b483045022100ac7370fd7727752098f569242e7666c4762e2ce417c96cc5d31fea072a41efd0022003781d4f9e6e92a0eff85347284d4f084b1db6a57d305b8c6dc961fedf3b9122012102969aedd848f2fd02695dcb04d5d9599f7b336c80f4019f1c31605563cfdfae42ffffffff729c3fbb3cfd6c4679a1e708047f61e7918a05882a1f7680c82cb51746c5afb8010000006b483045022100f3996192997f9ad2f7683326c54bccdfb9a13d8ec92868b6bd50d6a56d9655ca02204c5cbd7f143fb7fcca0bece0e5c788266684265d5ca2a1105145076d2cb95b89012102b66fc047bb35f22a40e05151a45dccfc0a7424ef8ab024b6a0120a53835283abffffffff02c4432000000000001976a914b05fb2c332326cd8508c0f28cac09ee3f7e32cba88acc2481300000000001976a914ccec17c2844d5248ea2a7d2750a61bb273697cbd88ac00000000", "vin": [{"sequence": 4294967295, "scriptSig": {"hex": "483045022100ac7370fd7727752098f569242e7666c4762e2ce417c96cc5d31fea072a41efd0022003781d4f9e6e92a0eff85347284d4f084b1db6a57d305b8c6dc961fedf3b9122012102969aedd848f2fd02695dcb04d5d9599f7b336c80f4019f1c31605563cfdfae42", "asm": "3045022100ac7370fd7727752098f569242e7666c4762e2ce417c96cc5d31fea072a41efd0022003781d4f9e6e92a0eff85347284d4f084b1db6a57d305b8c6dc961fedf3b9122[ALL] 02969aedd848f2fd02695dcb04d5d9599f7b336c80f4019f1c31605563cfdfae42"}, "vout": 0, "txid": "31b771f2c63ade125ea026e78e138c344137355ce1cf918f2bf86251cdad897d"}, {"sequence": 4294967295, "scriptSig": {"hex": "483045022100f3996192997f9ad2f7683326c54bccdfb9a13d8ec92868b6bd50d6a56d9655ca02204c5cbd7f143fb7fcca0bece0e5c788266684265d5ca2a1105145076d2cb95b89012102b66fc047bb35f22a40e05151a45dccfc0a7424ef8ab024b6a0120a53835283ab", "asm": "3045022100f3996192997f9ad2f7683326c54bccdfb9a13d8ec92868b6bd50d6a56d9655ca02204c5cbd7f143fb7fcca0bece0e5c788266684265d5ca2a1105145076d2cb95b89[ALL] 02b66fc047bb35f22a40e05151a45dccfc0a7424ef8ab024b6a0120a53835283ab"}, "vout": 1, "txid": "b8afc54617b52cc880761f2a88058a91e7617f0408e7a179466cfd3cbb3f9c72"}], "txid": "e692d5db9ea8ec0ebd10e7871aacbb6419c18186209aa50f2e53e920527c1cb3", "blocktime": 1537869901, "version": 1, "confirmations": 11524, "time": 1537869901, "locktime": 0, "vsize": 374, "size": 374}