{"hash": "262567755b5ff3e0695b936e649c38f272b4cc2d1f9ebbd3178f0b7aed8d9ed1", "blockhash": "0000000000000000000baef3f32e3676a92c3b2e5da21b426e4f302fc371ce76", "vout": [{"scriptPubKey": {"reqSigs": 1, "hex": "76a914a3dc17681c2ec77f0d08ceb075e35c683d3a37c788ac", "addresses": ["1FwQoVNZc2v6dNorn6uJAvPUNruaSwLwUG"], "asm": "OP_DUP OP_HASH160 a3dc17681c2ec77f0d08ceb075e35c683d3a37c7 OP_EQUALVERIFY OP_CHECKSIG", "type": "pubkeyhash"}, "value": 0.00235732, "n": 0}], "hex": "01000000000101893658c3fa2c9d5036d4e2a63434f8ef062fb0fdef980bc4e9e81337ad1bb23d0000000023220020b4ddc4c23afff1b1a82039a55890a55531d7702008c431a5b2d2039332f8ea8dffffffff01d4980300000000001976a914a3dc17681c2ec77f0d08ceb075e35c683d3a37c788ac0400483045022100f75aa1395622693ae020e5dcd1d289a05aa3462ac9fec0e833cead00b0132da8022075aaef9526b90895979f94edd685993f27dc23e765eba6ec36103c24f158c07a014830450221008292ac2906c8807b7226048dc52b764de6f785060f58ab473670eb5b2f96847602203ea94b49ebaa2b05cae19f2c7287b51a6a02e55f7dd2beee7c898a59d2a5ed7501695221021da631dd240f94c7fcc119f0119024413e5ec1b685c06623940becae4fb5c9bf2103c314a5868c32d97f328a1e13ebef276a67ca94e87e9c366f03bae269fa089e652102d7fbfe347525a260ceecee7d607516417eac02f634267b238bc7b1089d91da2f53ae00000000", "vin": [{"txinwitness": ["", "3045022100f75aa1395622693ae020e5dcd1d289a05aa3462ac9fec0e833cead00b0132da8022075aaef9526b90895979f94edd685993f27dc23e765eba6ec36103c24f158c07a01", "30450221008292ac2906c8807b7226048dc52b764de6f785060f58ab473670eb5b2f96847602203ea94b49ebaa2b05cae19f2c7287b51a6a02e55f7dd2beee7c898a59d2a5ed7501", "5221021da631dd240f94c7fcc119f0119024413e5ec1b685c06623940becae4fb5c9bf2103c314a5868c32d97f328a1e13ebef276a67ca94e87e9c366f03bae269fa089e652102d7fbfe347525a260ceecee7d607516417eac02f634267b238bc7b1089d91da2f53ae"], "sequence": 4294967295, "scriptSig": {"hex": "220020b4ddc4c23afff1b1a82039a55890a55531d7702008c431a5b2d2039332f8ea8d", "asm": "0020b4ddc4c23afff1b1a82039a55890a55531d7702008c431a5b2d2039332f8ea8d"}, "vout": 0, "txid": "3db21bad3713e8e9c40b98effdb02f06eff83434a6e2d436509d2cfac3583689"}], "txid": "e693027a16d1ab7dae33baddfc52049590b464472a3c01a6482e4b5f35212719", "blocktime": 1537876114, "version": 1, "confirmations": 11460, "time": 1537876114, "locktime": 0, "vsize": 184, "size": 376}