{"hash": "e69bb7114e4a9ddbc034a6bb5d8743c35fee05bd7920500a7adb830c3aceb866", "blockhash": "0000000000000000000dcc0f55137456b1a82d3642486a52398922ac4d620174", "vout": [{"scriptPubKey": {"reqSigs": 1, "hex": "76a9140a6b825daa1b89f8e100ed8eec6d79b592500f4988ac", "addresses": ["1x6YnuBVeeE65dQRZztRWgUPwyBjHCA5g"], "asm": "OP_DUP OP_HASH160 0a6b825daa1b89f8e100ed8eec6d79b592500f49 OP_EQUALVERIFY OP_CHECKSIG", "type": "pubkeyhash"}, "value": 0.4479835, "n": 0}, {"scriptPubKey": {"reqSigs": 1, "hex": "76a914f52303b6783fd107b3b37987e0cf56cbd428b70588ac", "addresses": ["1PMAVrEGq8D2ohvvsipWrjt72szpCvK96N"], "asm": "OP_DUP OP_HASH160 f52303b6783fd107b3b37987e0cf56cbd428b705 OP_EQUALVERIFY OP_CHECKSIG", "type": "pubkeyhash"}, "value": 5.46e-06, "n": 1}, {"scriptPubKey": {"type": "nulldata", "hex": "6a146f6d6e69000000000000001f0000002bf55b6000", "asm": "OP_RETURN 6f6d6e69000000000000001f0000002bf55b6000"}, "value": 0.0, "n": 2}], "hex": "010000000183711c906e3f95e1b9bd33d7c08e334396076e53c568f9c2ded0db12fa2e1cc1010000006b4830450221008dd117ea70e388cf3bd2934611c1d379087b19f734b04fdb1eea71d38c0aa92102202fa3b51911202a5e28a418bb7564553ca965c7ca592330d4976f59ba2f8a55df012103fe02b06a6bfd9b5a83e0417430a3235a39a0b4c7973591ca27ac58f6474d9120ffffffff038e91ab02000000001976a9140a6b825daa1b89f8e100ed8eec6d79b592500f4988ac22020000000000001976a914f52303b6783fd107b3b37987e0cf56cbd428b70588ac0000000000000000166a146f6d6e69000000000000001f0000002bf55b600000000000", "vin": [{"sequence": 4294967295, "scriptSig": {"hex": "4830450221008dd117ea70e388cf3bd2934611c1d379087b19f734b04fdb1eea71d38c0aa92102202fa3b51911202a5e28a418bb7564553ca965c7ca592330d4976f59ba2f8a55df012103fe02b06a6bfd9b5a83e0417430a3235a39a0b4c7973591ca27ac58f6474d9120", "asm": "30450221008dd117ea70e388cf3bd2934611c1d379087b19f734b04fdb1eea71d38c0aa92102202fa3b51911202a5e28a418bb7564553ca965c7ca592330d4976f59ba2f8a55df[ALL] 03fe02b06a6bfd9b5a83e0417430a3235a39a0b4c7973591ca27ac58f6474d9120"}, "vout": 1, "txid": "c11c2efa12dbd0dec2f968c5536e079643338ec0d733bdb9e1953f6e901c7183"}], "txid": "e69bb7114e4a9ddbc034a6bb5d8743c35fee05bd7920500a7adb830c3aceb866", "blocktime": 1537870268, "version": 1, "confirmations": 11516, "time": 1537870268, "locktime": 0, "vsize": 257, "size": 257}