{"hash": "0b3ce631dc2110ab4ed2849337a25af80e61a895cbb34c80d8f31f354db7608a", "blockhash": "000000000000000000022b45ed06c6f4ccd3cf7fb5ba4856ebd2e58215665228", "vout": [{"scriptPubKey": {"reqSigs": 1, "hex": "a914cfaabfe8c271f99a4364b5197ba50c6cddb7adb987", "addresses": ["3Ld4M9RPwEG3VeQbHcC1PsKUndQL7VYLZP"], "asm": "OP_HASH160 cfaabfe8c271f99a4364b5197ba50c6cddb7adb9 OP_EQUAL", "type": "scripthash"}, "value": 0.0154798, "n": 0}, {"scriptPubKey": {"reqSigs": 1, "hex": "a914dfc444567da57d879d238be1461a9afccf559b2e87", "addresses": ["3N6BjBsnptuLAbSCGhe7t1hJpjnW389JaH"], "asm": "OP_HASH160 dfc444567da57d879d238be1461a9afccf559b2e OP_EQUAL", "type": "scripthash"}, "value": 0.07732463, "n": 1}], "hex": "01000000000102f705a2f07e9f2a56a44c02b5a70a637f1b00c5905fe694994700057baad4fd2a0100000023220020e541f93e6cade8098735b3d86bf951c8973253da324689d8842f7087677e6c02ffffffff50da3a725f4ab04282c03c5c8a03e38fc216458e3ecd6603c597102fe797620f070000002322002080b302f942047e0093fc536eecfc421f46898dec637ed6bcbfb0246c0f3ae8a7ffffffff02cc9e17000000000017a914cfaabfe8c271f99a4364b5197ba50c6cddb7adb987effc75000000000017a914dfc444567da57d879d238be1461a9afccf559b2e870400483045022100b4adf915e1a1aee7ec9616a89247c33e3043d5eab1aa5a4172fbbb30aced1e690220135b9354e635d8d74029266d1c5ec0401fc1b45c7a2b0b3713e22dab24ec815701483045022100d6dd605c104476cf8e054baa9525a9ebf89d904c5be807164f7925f267fbe302022003a76f707d36d312a730cfec8dfc3fa4152b970b0420bcfaf3b003be4297afd80147522103ae239a24ccd4b127f94bf086f50e9139e05a215e83594d408705456640f9e96b21033e4af03ed09dbd8a417ba042650d5bd1db7f14f271a8f660974e3abf1fdfa4da52ae04004730440220653eadb5f8de0c212c1966324d86d08df856cde6d1ff99a34c6b3ccc3c40465302201c31ab7566783f7d1c257d5823ea45bfd67c4ba271c355bc1d2cde62840c42760147304402206dcba9e19d15840573066f160479023272fdadfc63f8425046398e97e8a0a29c022020e9158f5e6518acb207e13303aed186fb34fd0f4a1a219d6d429199607e3d8f0147522103c347d860c1901b68ed65caa7bfbc1ac56368fd1fc2c30c4643f60eda6149817321033e4af03ed09dbd8a417ba042650d5bd1db7f14f271a8f660974e3abf1fdfa4da52ae00000000", "vin": [{"txinwitness": ["", "3045022100b4adf915e1a1aee7ec9616a89247c33e3043d5eab1aa5a4172fbbb30aced1e690220135b9354e635d8d74029266d1c5ec0401fc1b45c7a2b0b3713e22dab24ec815701", "3045022100d6dd605c104476cf8e054baa9525a9ebf89d904c5be807164f7925f267fbe302022003a76f707d36d312a730cfec8dfc3fa4152b970b0420bcfaf3b003be4297afd801", "522103ae239a24ccd4b127f94bf086f50e9139e05a215e83594d408705456640f9e96b21033e4af03ed09dbd8a417ba042650d5bd1db7f14f271a8f660974e3abf1fdfa4da52ae"], "sequence": 4294967295, "scriptSig": {"hex": "220020e541f93e6cade8098735b3d86bf951c8973253da324689d8842f7087677e6c02", "asm": "0020e541f93e6cade8098735b3d86bf951c8973253da324689d8842f7087677e6c02"}, "vout": 1, "txid": "2afdd4aa7b0500479994e65f90c5001b7f630aa7b5024ca4562a9f7ef0a205f7"}, {"txinwitness": ["", "30440220653eadb5f8de0c212c1966324d86d08df856cde6d1ff99a34c6b3ccc3c40465302201c31ab7566783f7d1c257d5823ea45bfd67c4ba271c355bc1d2cde62840c427601", "304402206dcba9e19d15840573066f160479023272fdadfc63f8425046398e97e8a0a29c022020e9158f5e6518acb207e13303aed186fb34fd0f4a1a219d6d429199607e3d8f01", "522103c347d860c1901b68ed65caa7bfbc1ac56368fd1fc2c30c4643f60eda6149817321033e4af03ed09dbd8a417ba042650d5bd1db7f14f271a8f660974e3abf1fdfa4da52ae"], "sequence": 4294967295, "scriptSig": {"hex": "22002080b302f942047e0093fc536eecfc421f46898dec637ed6bcbfb0246c0f3ae8a7", "asm": "002080b302f942047e0093fc536eecfc421f46898dec637ed6bcbfb0246c0f3ae8a7"}, "vout": 7, "txid": "0f6297e72f1097c50366cd3e8e4516c28fe3038a5c3cc08242b04a5f723ada50"}], "txid": "e6a2c3f454fc07f20e52f60ff85379897d024e1afe425d07f35c4cbd7d4bbca2", "blocktime": 1537869901, "version": 1, "confirmations": 11524, "time": 1537869901, "locktime": 0, "vsize": 336, "size": 666}