{"hash": "e6abadab42095c4bd2ff85d519030a11d0a7ac45ad481c56f4dd97a73614062b", "blockhash": "00000000000000000018f53835495a110e01622372bf6ae95dc86f2b0ab887b0", "vout": [{"scriptPubKey": {"type": "nulldata", "hex": "6a146f6d6e69000000000000001f0000000264053f00", "asm": "OP_RETURN 6f6d6e69000000000000001f0000000264053f00"}, "value": 0.0, "n": 0}, {"scriptPubKey": {"reqSigs": 1, "hex": "76a91441f714e7bd51f28150f84228c1ef01ea89d92f0d88ac", "addresses": ["171nv1Ddg8F4mywNxJT2gdQ1Uz5nNpJXp8"], "asm": "OP_DUP OP_HASH160 41f714e7bd51f28150f84228c1ef01ea89d92f0d OP_EQUALVERIFY OP_CHECKSIG", "type": "pubkeyhash"}, "value": 5.46e-06, "n": 1}, {"scriptPubKey": {"reqSigs": 1, "hex": "76a9140ea2c16f9786cdfea33384770c72f226ae93ef3f88ac", "addresses": ["12LPS9L3BtpHJxCw7CBABQHFsKc7wFRjAR"], "asm": "OP_DUP OP_HASH160 0ea2c16f9786cdfea33384770c72f226ae93ef3f OP_EQUALVERIFY OP_CHECKSIG", "type": "pubkeyhash"}, "value": 0.36173777, "n": 2}], "hex": "0100000001830a4e0e2bf18a1bcf0a186887300798fa3b61fc42200b91b450a29ab82dd477000000006b483045022100b88f479bbe7bdc84c68d913f13066ec03620803d4b0d6407dbabbbf479fc9f9002203ff3293c21718f25053b354ba6ed9ecd825fc9492fe2efc7e88b568af462daaf01210242604bdd2261b6188326b9f490e074dda990f5bb746eb9716e491b86b498f4c5feffffff030000000000000000166a146f6d6e69000000000000001f0000000264053f0022020000000000001976a91441f714e7bd51f28150f84228c1ef01ea89d92f0d88acd1f72702000000001976a9140ea2c16f9786cdfea33384770c72f226ae93ef3f88ac0e490800", "vin": [{"sequence": 4294967294, "scriptSig": {"hex": "483045022100b88f479bbe7bdc84c68d913f13066ec03620803d4b0d6407dbabbbf479fc9f9002203ff3293c21718f25053b354ba6ed9ecd825fc9492fe2efc7e88b568af462daaf01210242604bdd2261b6188326b9f490e074dda990f5bb746eb9716e491b86b498f4c5", "asm": "3045022100b88f479bbe7bdc84c68d913f13066ec03620803d4b0d6407dbabbbf479fc9f9002203ff3293c21718f25053b354ba6ed9ecd825fc9492fe2efc7e88b568af462daaf[ALL] 0242604bdd2261b6188326b9f490e074dda990f5bb746eb9716e491b86b498f4c5"}, "vout": 0, "txid": "77d42db89aa250b4910b2042fc613bfa9807308768180acf1b8af12b0e4e0a83"}], "txid": "e6abadab42095c4bd2ff85d519030a11d0a7ac45ad481c56f4dd97a73614062b", "blocktime": 1537870928, "version": 1, "confirmations": 11512, "time": 1537870928, "locktime": 542990, "vsize": 257, "size": 257}