{"hash": "ff389dd9b77e5235e5d482ee36a630dee8eabda8e3058794905a1a112d2d68bd", "blockhash": "0000000000000000001f0ddff1eddb255c1121bcd4da4f1bc9a0da00cae72433", "vout": [{"scriptPubKey": {"reqSigs": 1, "hex": "a914f728f841b3ba88634342ca416a1690bf3fb258ea87", "addresses": ["3QDsuZ6WVDFb26stiZ1MmRYdEUTC4ZaKiD"], "asm": "OP_HASH160 f728f841b3ba88634342ca416a1690bf3fb258ea OP_EQUAL", "type": "scripthash"}, "value": 0.0100141, "n": 0}, {"scriptPubKey": {"reqSigs": 1, "hex": "a914afde16f3fa9a80af1ffc94c6cbe56a78a3c2dc6687", "addresses": ["3HivEB4GPYWSQxcQHi5gmLqPfsRpKypxJj"], "asm": "OP_HASH160 afde16f3fa9a80af1ffc94c6cbe56a78a3c2dc66 OP_EQUAL", "type": "scripthash"}, "value": 0.00135535, "n": 1}], "hex": "020000000001030e729802bf98ae57c856c1d4d18aed95f684b1dec29c5f2ca80c38bd5ad3baf50000000017160014b9351c4492b33f5045657515c71736845dd5dfe8feffffffda5cd360d75fd3a2375d916b8575dbdd33a2d376570117374f361018c5aac79a0000000017160014408d83227d85502da59a1bbccecef2f9b930a90efeffffffe34752f8384270f2e03728031534b5af1b7cab0f3074d73b3206aa60a9c3acf00100000017160014f24bee03a5752364c7b5a0f109050881df6d8c47feffffff02c2470f000000000017a914f728f841b3ba88634342ca416a1690bf3fb258ea876f1102000000000017a914afde16f3fa9a80af1ffc94c6cbe56a78a3c2dc668702483045022100f955825a66852d74a04e000e04e741a696d3880a863a55c4ec004e661f606c28022002f485604e4c0aabe58ce694841a05fc405c231f937ce299facc3e291e1d47a5012103cd824206f55ace69e919de4e0f0590a32a93755bcb1dae157c9e0a577257b3ac0247304402202e67c77af7c568a31e30b94144c8a589f2bb9e6b881b723101862fa4888ec35c02205de01afb13969245a1e4ddb23ce735efa55c5c3b7b8306b1831fdd918b6d8ef6012102197556dd793435b32a70a47cb1c5ca4a6d18710f7a286d0e9935a4cbed167a6d024830450221008b19047e747063cc1c6cf30ab9972f6d5dd432abe17eda28f25e94e8be6ae457022010795b06c8523f3c5cefa77bf8fb9682fec4570e53f030d9df51268b34c013700121031a56d3278d668a47ff00fc59cdf002b7d5aa85614dfbc1f519a364d00ec38f21b6480800", "vin": [{"txinwitness": ["3045022100f955825a66852d74a04e000e04e741a696d3880a863a55c4ec004e661f606c28022002f485604e4c0aabe58ce694841a05fc405c231f937ce299facc3e291e1d47a501", "03cd824206f55ace69e919de4e0f0590a32a93755bcb1dae157c9e0a577257b3ac"], "sequence": 4294967294, "scriptSig": {"hex": "160014b9351c4492b33f5045657515c71736845dd5dfe8", "asm": "0014b9351c4492b33f5045657515c71736845dd5dfe8"}, "vout": 0, "txid": "f5bad35abd380ca82c5f9cc2deb184f695ed8ad1d4c156c857ae98bf0298720e"}, {"txinwitness": ["304402202e67c77af7c568a31e30b94144c8a589f2bb9e6b881b723101862fa4888ec35c02205de01afb13969245a1e4ddb23ce735efa55c5c3b7b8306b1831fdd918b6d8ef601", "02197556dd793435b32a70a47cb1c5ca4a6d18710f7a286d0e9935a4cbed167a6d"], "sequence": 4294967294, "scriptSig": {"hex": "160014408d83227d85502da59a1bbccecef2f9b930a90e", "asm": "0014408d83227d85502da59a1bbccecef2f9b930a90e"}, "vout": 0, "txid": "9ac7aac51810364f3717015776d3a233dddb75856b915d37a2d35fd760d35cda"}, {"txinwitness": ["30450221008b19047e747063cc1c6cf30ab9972f6d5dd432abe17eda28f25e94e8be6ae457022010795b06c8523f3c5cefa77bf8fb9682fec4570e53f030d9df51268b34c0137001", "031a56d3278d668a47ff00fc59cdf002b7d5aa85614dfbc1f519a364d00ec38f21"], "sequence": 4294967294, "scriptSig": {"hex": "160014f24bee03a5752364c7b5a0f109050881df6d8c47", "asm": "0014f24bee03a5752364c7b5a0f109050881df6d8c47"}, "vout": 1, "txid": "f0acc3a960aa06323bd774300fab7c1bafb53415032837e0f2704238f85247e3"}], "txid": "e6b1246d3da9eb61e30f78c3431ced61e0857890832f90af59d073330fe17571", "blocktime": 1537872018, "version": 2, "confirmations": 11489, "time": 1537872018, "locktime": 542902, "vsize": 348, "size": 591}