{"hash": "e6b8eecd27396ff081b7791893b371a28705ea0de16c55f37148264ac64bea75", "blockhash": "0000000000000000000baef3f32e3676a92c3b2e5da21b426e4f302fc371ce76", "vout": [{"scriptPubKey": {"reqSigs": 1, "hex": "76a914a67e8575d7f9fc7c3ecd77ad76fdc90d98bc294288ac", "addresses": ["1GBLjhbZr82grFt17VrcGohjSHJW1eXfX5"], "asm": "OP_DUP OP_HASH160 a67e8575d7f9fc7c3ecd77ad76fdc90d98bc2942 OP_EQUALVERIFY OP_CHECKSIG", "type": "pubkeyhash"}, "value": 0.08480756, "n": 0}], "hex": "0100000001270e7a71f51793d7a38980d0852d7b7e6e3d986c9c4eb18ea718a850e76d1639000000006b4830450221008c6a2ba0a15a50a5ff654f135efb59b28a6b4bd935b6116a6ca34c997b24882c0220759a9ec5a13b8bd0f01381bd67fc311e07b07489d650d32bdb28f1b61dc91ad20121034d2f9f4e623875d6cd6b40e78dafc1c0510add02282e67443d913a49cccd3c0dfeffffff01f4678100000000001976a914a67e8575d7f9fc7c3ecd77ad76fdc90d98bc294288ac16490800", "vin": [{"sequence": 4294967294, "scriptSig": {"hex": "4830450221008c6a2ba0a15a50a5ff654f135efb59b28a6b4bd935b6116a6ca34c997b24882c0220759a9ec5a13b8bd0f01381bd67fc311e07b07489d650d32bdb28f1b61dc91ad20121034d2f9f4e623875d6cd6b40e78dafc1c0510add02282e67443d913a49cccd3c0d", "asm": "30450221008c6a2ba0a15a50a5ff654f135efb59b28a6b4bd935b6116a6ca34c997b24882c0220759a9ec5a13b8bd0f01381bd67fc311e07b07489d650d32bdb28f1b61dc91ad2[ALL] 034d2f9f4e623875d6cd6b40e78dafc1c0510add02282e67443d913a49cccd3c0d"}, "vout": 0, "txid": "39166de750a818a78eb14e9c6c983d6e7e7b2d85d08089a3d79317f5717a0e27"}], "txid": "e6b8eecd27396ff081b7791893b371a28705ea0de16c55f37148264ac64bea75", "blocktime": 1537876114, "version": 1, "confirmations": 11462, "time": 1537876114, "locktime": 542998, "vsize": 192, "size": 192}