{"hash": "f0d1985718c0ec7052ad8ed36a541ae3b493b0741e5b3b8de3e5a7584913a53c", "blockhash": "0000000000000000000baef3f32e3676a92c3b2e5da21b426e4f302fc371ce76", "vout": [{"scriptPubKey": {"reqSigs": 1, "hex": "a914b97e0c5ce4d94d6709b45247442f232c3e4681fd87", "addresses": ["3Jbow2BqNyVxxHamUk7yhppA8sj6TmF3cL"], "asm": "OP_HASH160 b97e0c5ce4d94d6709b45247442f232c3e4681fd OP_EQUAL", "type": "scripthash"}, "value": 0.01289263, "n": 0}, {"scriptPubKey": {"reqSigs": 1, "hex": "76a91474bd75a03ab2fefbabd69e900f0970bf44519b8588ac", "addresses": ["1BeGM8PwmEALuabScwqn27LPmT4BanN9Um"], "asm": "OP_DUP OP_HASH160 74bd75a03ab2fefbabd69e900f0970bf44519b85 OP_EQUALVERIFY OP_CHECKSIG", "type": "pubkeyhash"}, "value": 0.0020396, "n": 1}], "hex": "0200000000010262427f0ba53ec60b32f2fdfb2d8fcff9ea05486d9e0a8d9399ed51ad6faa8e710000000017160014b31b07c583ca9b7a44bfd67f67f194b2863cbb0bfeffffff9527ee05f13de4f81fefe218874de15f232b907f213b412317077bb1cb225f56010000001716001419da2fead5b07a0c9c5dea31fd660ed9995f0c89feffffff022fac13000000000017a914b97e0c5ce4d94d6709b45247442f232c3e4681fd87b81c0300000000001976a91474bd75a03ab2fefbabd69e900f0970bf44519b8588ac02483045022100a6a2366ff9b05699b8cfa997be3b4812109f6248dd0476ba37620b1902e2ea6d022018b55b7ff587b9584625743f2f8bdcf23b8122bcbc5804229b7c47c28cd598a3012102aff6eb47b7313c6c075eb8d27bc94c077d11c42937b114514ababee2d2225b5d024830450221008ec3757f792d0839a85d6fcf84d0fa77c53ec0d695e17123045de53ed648c6f90220347745e7cd8f833114ac6af7663a075227d07c49e052b6ce86c99ef2a8533e4f012103f3ba2afaa0b87c56d23c8110a3d54cd5ba13b168af908539a46d99be63742ff317490800", "vin": [{"txinwitness": ["3045022100a6a2366ff9b05699b8cfa997be3b4812109f6248dd0476ba37620b1902e2ea6d022018b55b7ff587b9584625743f2f8bdcf23b8122bcbc5804229b7c47c28cd598a301", "02aff6eb47b7313c6c075eb8d27bc94c077d11c42937b114514ababee2d2225b5d"], "sequence": 4294967294, "scriptSig": {"hex": "160014b31b07c583ca9b7a44bfd67f67f194b2863cbb0b", "asm": "0014b31b07c583ca9b7a44bfd67f67f194b2863cbb0b"}, "vout": 0, "txid": "718eaa6fad51ed99938d0a9e6d4805eaf9cf8f2dfbfdf2320bc63ea50b7f4262"}, {"txinwitness": ["30450221008ec3757f792d0839a85d6fcf84d0fa77c53ec0d695e17123045de53ed648c6f90220347745e7cd8f833114ac6af7663a075227d07c49e052b6ce86c99ef2a8533e4f01", "03f3ba2afaa0b87c56d23c8110a3d54cd5ba13b168af908539a46d99be63742ff3"], "sequence": 4294967294, "scriptSig": {"hex": "16001419da2fead5b07a0c9c5dea31fd660ed9995f0c89", "asm": "001419da2fead5b07a0c9c5dea31fd660ed9995f0c89"}, "vout": 1, "txid": "565f22cbb17b071723413b217f902b235fe14d8718e2ef1ff8e43df105ee2795"}], "txid": "e6bde971d0223e40790209229ca52bb628eab03db4269a14ba7120eabb0e5f4d", "blocktime": 1537876114, "version": 2, "confirmations": 11460, "time": 1537876114, "locktime": 542999, "vsize": 259, "size": 422}