{"hash": "1aed4102631b29f7080327131dc7533157f38346c407804ae23347f3960f3636", "blockhash": "0000000000000000001cda96e906b7601b7a6fb1a3b62bca570a9e5d8f4b3de1", "vout": [{"scriptPubKey": {"reqSigs": 1, "hex": "76a91401c006cffe9cb6df1f28d342d605f2f2f8a823c788ac", "addresses": ["1AFiSDHFqTkdxWFgxYp9ZqQdkiwnz3Y2M"], "asm": "OP_DUP OP_HASH160 01c006cffe9cb6df1f28d342d605f2f2f8a823c7 OP_EQUALVERIFY OP_CHECKSIG", "type": "pubkeyhash"}, "value": 0.00527589, "n": 0}, {"scriptPubKey": {"reqSigs": 1, "hex": "0014e4af970106fd5a29045018f887d27086bd8318ab", "addresses": ["bc1qujhewqgxl4dzjpzsrrug05nss67cxx9tdg0xkg"], "asm": "0 e4af970106fd5a29045018f887d27086bd8318ab", "type": "witness_v0_keyhash"}, "value": 0.00010653, "n": 1}], "hex": "010000000001011c438e837b342c1fc0899302ffd6e77b82c1623aa20061d695c3ea2c1a9861900000000000ffffffff02e50c0800000000001976a91401c006cffe9cb6df1f28d342d605f2f2f8a823c788ac9d29000000000000160014e4af970106fd5a29045018f887d27086bd8318ab024730440220054ece85c59d3d81a05426e6d1b027f2aeb8b0eef04026b0520a8a70740d24f702203e69a9b546df67c24cc1bdd66d40f872b4bcd649736e5d77b08e9989734234d701210216615f56adba64d68ec4ac9dac1727853ab2b461e21cfe969dbda0b323c887e500000000", "vin": [{"txinwitness": ["30440220054ece85c59d3d81a05426e6d1b027f2aeb8b0eef04026b0520a8a70740d24f702203e69a9b546df67c24cc1bdd66d40f872b4bcd649736e5d77b08e9989734234d701", "0216615f56adba64d68ec4ac9dac1727853ab2b461e21cfe969dbda0b323c887e5"], "sequence": 4294967295, "scriptSig": {"hex": "", "asm": ""}, "vout": 0, "txid": "9061981a2ceac395d66100a23a62c1827be7d6ff029389c01f2c347b838e431c"}], "txid": "e6c2a8db04cde219c40292508fb80a03867e90eb934b0fb74249c00c40f73fdb", "blocktime": 1537873282, "version": 1, "confirmations": 11484, "time": 1537873282, "locktime": 0, "vsize": 144, "size": 225}