{"hash": "e6c45f33d94ce3f1b786cac8debc452752ac974c6f233513ecb99458fa917233", "blockhash": "0000000000000000001cda96e906b7601b7a6fb1a3b62bca570a9e5d8f4b3de1", "vout": [{"scriptPubKey": {"reqSigs": 1, "hex": "76a91491ed8252adaaccf5964c8d8630308dcd88e8217d88ac", "addresses": ["1EJbWEeAGNNR5DQDM9rkUZQUKiq2G1UWhW"], "asm": "OP_DUP OP_HASH160 91ed8252adaaccf5964c8d8630308dcd88e8217d OP_EQUALVERIFY OP_CHECKSIG", "type": "pubkeyhash"}, "value": 0.02408, "n": 0}, {"scriptPubKey": {"reqSigs": 1, "hex": "a914e370231feecbfc25e2e2423a5a79bf79bfdca59887", "addresses": ["3NRbeX3vD5VaVE4TDU9ivCDsEf7NPPte6J"], "asm": "OP_HASH160 e370231feecbfc25e2e2423a5a79bf79bfdca598 OP_EQUAL", "type": "scripthash"}, "value": 3.27493373, "n": 1}], "hex": "0100000001323181029b12f9a082c5a0f28f9c60f1d237762a3ffaa24552ae29dee153bfb701000000da0047304402204b4390da3d2e2536d3e663788f946a80455121bfdae949fa0206c001faf61d6a022009fe8f2836404c5aadb3d27e1a3f041595bcfbb8bd5e61f48fd1b3ba16dfd32801483045022100ca1df4f01ef4a56fe46ac1821a6c72a3e018d6e97d92ae482766cac1994e451502201ec8e279e73ef3e5b5bb09454c54e2c5149fe6ddc26e8b7134542a11f3deefab014752210327881b6abce6535553a3ce21fad12a7d74fd237ce7c4cd270a267162344e3082210256141f8eb687f5a68c5cc65054652dc25116fa285e44d72b44368827ffe77d9a52aeffffffff0240be2400000000001976a91491ed8252adaaccf5964c8d8630308dcd88e8217d88acfd2685130000000017a914e370231feecbfc25e2e2423a5a79bf79bfdca5988700000000", "vin": [{"sequence": 4294967295, "scriptSig": {"hex": "0047304402204b4390da3d2e2536d3e663788f946a80455121bfdae949fa0206c001faf61d6a022009fe8f2836404c5aadb3d27e1a3f041595bcfbb8bd5e61f48fd1b3ba16dfd32801483045022100ca1df4f01ef4a56fe46ac1821a6c72a3e018d6e97d92ae482766cac1994e451502201ec8e279e73ef3e5b5bb09454c54e2c5149fe6ddc26e8b7134542a11f3deefab014752210327881b6abce6535553a3ce21fad12a7d74fd237ce7c4cd270a267162344e3082210256141f8eb687f5a68c5cc65054652dc25116fa285e44d72b44368827ffe77d9a52ae", "asm": "0 304402204b4390da3d2e2536d3e663788f946a80455121bfdae949fa0206c001faf61d6a022009fe8f2836404c5aadb3d27e1a3f041595bcfbb8bd5e61f48fd1b3ba16dfd328[ALL] 3045022100ca1df4f01ef4a56fe46ac1821a6c72a3e018d6e97d92ae482766cac1994e451502201ec8e279e73ef3e5b5bb09454c54e2c5149fe6ddc26e8b7134542a11f3deefab[ALL] 52210327881b6abce6535553a3ce21fad12a7d74fd237ce7c4cd270a267162344e3082210256141f8eb687f5a68c5cc65054652dc25116fa285e44d72b44368827ffe77d9a52ae"}, "vout": 1, "txid": "b7bf53e1de29ae5245a2fa3f2a7637d2f1609c8ff2a0c582a0f9129b02813132"}], "txid": "e6c45f33d94ce3f1b786cac8debc452752ac974c6f233513ecb99458fa917233", "blocktime": 1537873282, "version": 1, "confirmations": 11484, "time": 1537873282, "locktime": 0, "vsize": 335, "size": 335}