{"hash": "e6c6d8772473c9157435e4d9fa86bfdca5987cf1f4446379d53c812275dcaaca", "blockhash": "0000000000000000001f0ddff1eddb255c1121bcd4da4f1bc9a0da00cae72433", "vout": [{"scriptPubKey": {"reqSigs": 1, "hex": "76a91427d51d1aecba602dea991d6cff202e50703ee88188ac", "addresses": ["14dcet4Lqh3XUBWSU5GhVQREgfmMG9mAA5"], "asm": "OP_DUP OP_HASH160 27d51d1aecba602dea991d6cff202e50703ee881 OP_EQUALVERIFY OP_CHECKSIG", "type": "pubkeyhash"}, "value": 0.14711924, "n": 0}, {"scriptPubKey": {"type": "nulldata", "hex": "6a146f6d6e69000000000000001f00000009d141f9ea", "asm": "OP_RETURN 6f6d6e69000000000000001f00000009d141f9ea"}, "value": 0.0, "n": 1}, {"scriptPubKey": {"reqSigs": 1, "hex": "76a914b2e4f724cc7509f1dde96c06cc346a1988b99db988ac", "addresses": ["1HJuZwamMswxqVw5HqRSRX4UHe8e1JCngd"], "asm": "OP_DUP OP_HASH160 b2e4f724cc7509f1dde96c06cc346a1988b99db9 OP_EQUALVERIFY OP_CHECKSIG", "type": "pubkeyhash"}, "value": 5.46e-06, "n": 2}], "hex": "010000000279ab4e6e3ab3c0aa694e549e9305b4a2dfde3a2c036cd779b8c06590eacbc2b2020000006a47304402200827486b3681d862d9eb7beb3a06bbfc28a6e9109dd6831931cac591e089b8f5022028b40aa4519a3451dd3a75bb68bc0b489d339cf531eca0c6df68667ebeae7baa0121022b91cf6614bf1e172c0ced56cc61b40c432f483a2a8ec38b46a68066b114937effffffff5445cfe602c626ce0e438ee5389d6d269cf4419ae5b2c0e32afc215f412d0d62000000006b483045022100982dcf73d524801fa1a0e9837f108658cc3a7243632e402d390fd5da09d6c924022078b95443edeec3d92bffffc52477341bfc1a4a450bf41130776280529107ebf30121039d6badaa44b1756460faa2d4bf0daa40e46c5206ec9ef5963decb350076e7f6affffffff03747ce000000000001976a91427d51d1aecba602dea991d6cff202e50703ee88188ac0000000000000000166a146f6d6e69000000000000001f00000009d141f9ea22020000000000001976a914b2e4f724cc7509f1dde96c06cc346a1988b99db988ac00000000", "vin": [{"sequence": 4294967295, "scriptSig": {"hex": "47304402200827486b3681d862d9eb7beb3a06bbfc28a6e9109dd6831931cac591e089b8f5022028b40aa4519a3451dd3a75bb68bc0b489d339cf531eca0c6df68667ebeae7baa0121022b91cf6614bf1e172c0ced56cc61b40c432f483a2a8ec38b46a68066b114937e", "asm": "304402200827486b3681d862d9eb7beb3a06bbfc28a6e9109dd6831931cac591e089b8f5022028b40aa4519a3451dd3a75bb68bc0b489d339cf531eca0c6df68667ebeae7baa[ALL] 022b91cf6614bf1e172c0ced56cc61b40c432f483a2a8ec38b46a68066b114937e"}, "vout": 2, "txid": "b2c2cbea9065c0b879d76c032c3adedfa2b405939e544e69aac0b33a6e4eab79"}, {"sequence": 4294967295, "scriptSig": {"hex": "483045022100982dcf73d524801fa1a0e9837f108658cc3a7243632e402d390fd5da09d6c924022078b95443edeec3d92bffffc52477341bfc1a4a450bf41130776280529107ebf30121039d6badaa44b1756460faa2d4bf0daa40e46c5206ec9ef5963decb350076e7f6a", "asm": "3045022100982dcf73d524801fa1a0e9837f108658cc3a7243632e402d390fd5da09d6c924022078b95443edeec3d92bffffc52477341bfc1a4a450bf41130776280529107ebf3[ALL] 039d6badaa44b1756460faa2d4bf0daa40e46c5206ec9ef5963decb350076e7f6a"}, "vout": 0, "txid": "620d2d415f21fc2ae3c0b2e59a41f49c266d9d38e58e430ece26c602e6cf4554"}], "txid": "e6c6d8772473c9157435e4d9fa86bfdca5987cf1f4446379d53c812275dcaaca", "blocktime": 1537872018, "version": 1, "confirmations": 11489, "time": 1537872018, "locktime": 0, "vsize": 404, "size": 404}