{"hash": "e6ce23fe1ad2c3b8344175ce96759eece92ed87cfbd98206023503504edf4014", "blockhash": "0000000000000000000dcc0f55137456b1a82d3642486a52398922ac4d620174", "vout": [{"scriptPubKey": {"reqSigs": 1, "hex": "76a914573e1f8e3798c9c2df7a548a984b1e1a215da22588ac", "addresses": ["18xJD6BN7H5BEVKK5Hjh9FuGJ82XwMBMfs"], "asm": "OP_DUP OP_HASH160 573e1f8e3798c9c2df7a548a984b1e1a215da225 OP_EQUALVERIFY OP_CHECKSIG", "type": "pubkeyhash"}, "value": 0.01167004, "n": 0}], "hex": "02000000015d500b81072d828b3e8679e89099ca64f4286111edd7f47f90bb2e06f9fd459c6a0000006b483045022100f3782b76c74ff1b91b9aea0631c3bc06ce1c7fd9ca21d27e4c8e7926a8e3710e02201e9db30619ab19eba3bb24a3b45fb3898042c7fb8c16e2a2d6da3633e0719f850121023c5926e7e7519c2653132a1f9e4b20c85cf08d9a775695f8e6f68985ce939b78fdffffff019cce1100000000001976a914573e1f8e3798c9c2df7a548a984b1e1a215da22588ac0c490800", "vin": [{"sequence": 4294967293, "scriptSig": {"hex": "483045022100f3782b76c74ff1b91b9aea0631c3bc06ce1c7fd9ca21d27e4c8e7926a8e3710e02201e9db30619ab19eba3bb24a3b45fb3898042c7fb8c16e2a2d6da3633e0719f850121023c5926e7e7519c2653132a1f9e4b20c85cf08d9a775695f8e6f68985ce939b78", "asm": "3045022100f3782b76c74ff1b91b9aea0631c3bc06ce1c7fd9ca21d27e4c8e7926a8e3710e02201e9db30619ab19eba3bb24a3b45fb3898042c7fb8c16e2a2d6da3633e0719f85[ALL] 023c5926e7e7519c2653132a1f9e4b20c85cf08d9a775695f8e6f68985ce939b78"}, "vout": 106, "txid": "9c45fdf9062ebb907ff4d7ed116128f464ca9990e879863e8b822d07810b505d"}], "txid": "e6ce23fe1ad2c3b8344175ce96759eece92ed87cfbd98206023503504edf4014", "blocktime": 1537870268, "version": 2, "confirmations": 11518, "time": 1537870268, "locktime": 542988, "vsize": 192, "size": 192}