{"hash": "e6d0cb45127e621dd58f9766f12e02cc3132b257a4b5eec843ac5a2d30d705b8", "blockhash": "00000000000000000024a2167bbff67b0be802c0b01cdd79e6331c2be6459f87", "vout": [{"scriptPubKey": {"reqSigs": 1, "hex": "76a91431ffc797b09956100d4dace51bbdb2182d58b32688ac", "addresses": ["15ZNXHMMzeTnvFRqh2p8yKR2AvDkyX5t3Q"], "asm": "OP_DUP OP_HASH160 31ffc797b09956100d4dace51bbdb2182d58b326 OP_EQUALVERIFY OP_CHECKSIG", "type": "pubkeyhash"}, "value": 0.00020776, "n": 0}, {"scriptPubKey": {"reqSigs": 1, "hex": "a9145f71691df21319640d2acd82d9818b781b29717387", "addresses": ["3APfyg7bfej6WncCRJVi75CUiKuAd4PieC"], "asm": "OP_HASH160 5f71691df21319640d2acd82d9818b781b297173 OP_EQUAL", "type": "scripthash"}, "value": 0.00215635, "n": 1}], "hex": "01000000016210b86b0bfa305ba77fa78d1fa54f45be1cab9d33743995f39121f51b6b6bcf000000006b483045022100d3cf289d2598a90befff6589f2a901515fba94b6751aca88c3248eb98e306a740220504edfac43adb2ef19526b9aa7c6142f49fd07c14416ea0df920b3bbe31d42f601210259eddbacbb5a29bf7e1463c0e4e27ad4a552007b076e56356dc4a8d08d26a9fcffffffff0228510000000000001976a91431ffc797b09956100d4dace51bbdb2182d58b32688ac534a03000000000017a9145f71691df21319640d2acd82d9818b781b2971738700000000", "vin": [{"sequence": 4294967295, "scriptSig": {"hex": "483045022100d3cf289d2598a90befff6589f2a901515fba94b6751aca88c3248eb98e306a740220504edfac43adb2ef19526b9aa7c6142f49fd07c14416ea0df920b3bbe31d42f601210259eddbacbb5a29bf7e1463c0e4e27ad4a552007b076e56356dc4a8d08d26a9fc", "asm": "3045022100d3cf289d2598a90befff6589f2a901515fba94b6751aca88c3248eb98e306a740220504edfac43adb2ef19526b9aa7c6142f49fd07c14416ea0df920b3bbe31d42f6[ALL] 0259eddbacbb5a29bf7e1463c0e4e27ad4a552007b076e56356dc4a8d08d26a9fc"}, "vout": 0, "txid": "cf6b6b1bf52191f3953974339dab1cbe454fa51f8da77fa75b30fa0b6bb81062"}], "txid": "e6d0cb45127e621dd58f9766f12e02cc3132b257a4b5eec843ac5a2d30d705b8", "blocktime": 1537870564, "version": 1, "confirmations": 11515, "time": 1537870564, "locktime": 0, "vsize": 224, "size": 224}