{"hash": "13b79bcad7f04fb944da8298faba22b1c536dd4f52d423cf5cf2b89411f3d21b", "blockhash": "00000000000000000017f5eb5941039fbcee6240d03bc1f2f8e35350df66a1d8", "vout": [{"scriptPubKey": {"reqSigs": 1, "hex": "a914a5f2b1a4afcdc718df0c3901ba7fdad1fa403ead87", "addresses": ["3GpU9s7mv84HwnHK23baGht2iBrhFrXyy2"], "asm": "OP_HASH160 a5f2b1a4afcdc718df0c3901ba7fdad1fa403ead OP_EQUAL", "type": "scripthash"}, "value": 0.03, "n": 0}, {"scriptPubKey": {"reqSigs": 1, "hex": "a91445237c9ebdae81e3e8adc863f38b23e58852257587", "addresses": ["37zb4SpRSPNqFhvRtyZfrB3WeE9ffMXHJD"], "asm": "OP_HASH160 45237c9ebdae81e3e8adc863f38b23e588522575 OP_EQUAL", "type": "scripthash"}, "value": 0.1498, "n": 1}, {"scriptPubKey": {"reqSigs": 1, "hex": "76a914fcaa4b120cd7858af64dd493c654b98745d19d1788ac", "addresses": ["1Q2yHXMPhWRLaQf5XrH3kF7hDNtpr2bJ3d"], "asm": "OP_DUP OP_HASH160 fcaa4b120cd7858af64dd493c654b98745d19d17 OP_EQUALVERIFY OP_CHECKSIG", "type": "pubkeyhash"}, "value": 0.0841, "n": 2}, {"scriptPubKey": {"reqSigs": 1, "hex": "a9143e609684539243df640b730d0c036f17fe97588287", "addresses": ["37NqXV9ZUZHgnjPp68Mg2gkoLu89dKYJTS"], "asm": "OP_HASH160 3e609684539243df640b730d0c036f17fe975882 OP_EQUAL", "type": "scripthash"}, "value": 0.0033276, "n": 3}, {"scriptPubKey": {"reqSigs": 1, "hex": "a91413b9d0051f905da5d603252462d23bb0b424092d87", "addresses": ["33VKMfyYtmAE1vfEihnSPpa3AuQr9j9K9g"], "asm": "OP_HASH160 13b9d0051f905da5d603252462d23bb0b424092d OP_EQUAL", "type": "scripthash"}, "value": 0.0025, "n": 4}, {"scriptPubKey": {"reqSigs": 1, "hex": "a9144817bd42a277fad21f080e979a8ec772ffe1e0dc87", "addresses": ["38GD1npo7tFHZETuGk7VhPdaa18anEJAaM"], "asm": "OP_HASH160 4817bd42a277fad21f080e979a8ec772ffe1e0dc OP_EQUAL", "type": "scripthash"}, "value": 0.00281149, "n": 5}, {"scriptPubKey": {"reqSigs": 1, "hex": "a91408b126cc8f023fa6947019f0a4ccc1a809d2e36387", "addresses": ["32UyYnTH3hcfrFmxvXjqPUF31EcpaKv8J6"], "asm": "OP_HASH160 08b126cc8f023fa6947019f0a4ccc1a809d2e363 OP_EQUAL", "type": "scripthash"}, "value": 0.01944246, "n": 6}, {"scriptPubKey": {"reqSigs": 1, "hex": "a914e2b1d14cbb7e5cf3f0dfc7d95006e59a8c0f48cd87", "addresses": ["3NMfesxADnXv4XK5z12y4uZnwrwJUuAdve"], "asm": "OP_HASH160 e2b1d14cbb7e5cf3f0dfc7d95006e59a8c0f48cd OP_EQUAL", "type": "scripthash"}, "value": 0.00474499, "n": 7}, {"scriptPubKey": {"reqSigs": 1, "hex": "a9145e6d19b901b8e737389962c2c2e42b9c6066c44487", "addresses": ["3AJJ91XuZJmmj1qoFJVaXPvWBpuid35Ks7"], "asm": "OP_HASH160 5e6d19b901b8e737389962c2c2e42b9c6066c444 OP_EQUAL", "type": "scripthash"}, "value": 0.98417456, "n": 8}, {"scriptPubKey": {"reqSigs": 1, "hex": "a91469cff5f4ac57da6ec2cae8671d58720fb43275a087", "addresses": ["3BLW143BvsfHcbpxXn1cvZ2iGRL9KMQWQn"], "asm": "OP_HASH160 69cff5f4ac57da6ec2cae8671d58720fb43275a0 OP_EQUAL", "type": "scripthash"}, "value": 0.0019, "n": 9}, {"scriptPubKey": {"reqSigs": 1, "hex": "76a914d0d1c0b522f9ccb94eb9c310b659cebc4418a9f188ac", "addresses": ["1L38pn95GZhbYR9qkH41AnDTQqFaUG7JnR"], "asm": "OP_DUP OP_HASH160 d0d1c0b522f9ccb94eb9c310b659cebc4418a9f1 OP_EQUALVERIFY OP_CHECKSIG", "type": "pubkeyhash"}, "value": 0.01046367, "n": 10}, {"scriptPubKey": {"reqSigs": 1, "hex": "76a914f144c08e8690ce2deba6063df4e71e4cb44f4b1b88ac", "addresses": ["1NziDDXZLVWbLwSysqdzFqx3EjMgNrTwJz"], "asm": "OP_DUP OP_HASH160 f144c08e8690ce2deba6063df4e71e4cb44f4b1b OP_EQUALVERIFY OP_CHECKSIG", "type": "pubkeyhash"}, "value": 0.04731921, "n": 11}, {"scriptPubKey": {"reqSigs": 1, "hex": "76a914b55734dfa8c3fa99076252da88e45a64a7c81def88ac", "addresses": ["1HXqmwPgE4zt63zedBs12Satkd74w1vWSF"], "asm": "OP_DUP OP_HASH160 b55734dfa8c3fa99076252da88e45a64a7c81def OP_EQUALVERIFY OP_CHECKSIG", "type": "pubkeyhash"}, "value": 0.0001, "n": 12}, {"scriptPubKey": {"reqSigs": 1, "hex": "a9147fc182312d35be6ac352bee6803316fc98619ac687", "addresses": ["3DLXZ7jRaaJsm8xznapoH5uAX1xMohp8bP"], "asm": "OP_HASH160 7fc182312d35be6ac352bee6803316fc98619ac6 OP_EQUAL", "type": "scripthash"}, "value": 0.00558244, "n": 13}, {"scriptPubKey": {"reqSigs": 1, "hex": "76a914393af2c395c76ebbbe2247ebb46d99f261ebbb7988ac", "addresses": ["16Dc8jZXP39drizXhaRpd3j8Y4GFGTmjw2"], "asm": "OP_DUP OP_HASH160 393af2c395c76ebbbe2247ebb46d99f261ebbb79 OP_EQUALVERIFY OP_CHECKSIG", "type": "pubkeyhash"}, "value": 0.002098, "n": 14}, {"scriptPubKey": {"reqSigs": 1, "hex": "a91469f374c5bab47cb5f99f50a57aad6afdf57d37a287", "addresses": ["3BMEXKEmDZGaw6xyKdV8yN7PYc74Bmdx1f"], "asm": "OP_HASH160 69f374c5bab47cb5f99f50a57aad6afdf57d37a2 OP_EQUAL", "type": "scripthash"}, "value": 0.05, "n": 15}, {"scriptPubKey": {"reqSigs": 1, "hex": "a914de0701b717dd3eebbeea1d4a051f64a76875806587", "addresses": ["3MvzKxsgpZi7XvvLxMp8KZ43Cnmg36L8em"], "asm": "OP_HASH160 de0701b717dd3eebbeea1d4a051f64a768758065 OP_EQUAL", "type": "scripthash"}, "value": 0.00675507, "n": 16}, {"scriptPubKey": {"reqSigs": 1, "hex": "76a9148901fffddb02e4e15d3a79faab84a8788a28227788ac", "addresses": ["1DVRyEyVMJhbrmm3uTTmW6mRJBjycaBWc2"], "asm": "OP_DUP OP_HASH160 8901fffddb02e4e15d3a79faab84a8788a282277 OP_EQUALVERIFY OP_CHECKSIG", "type": "pubkeyhash"}, "value": 0.00271829, "n": 17}, {"scriptPubKey": {"reqSigs": 1, "hex": "76a914877fccbb42e5e61d88353bbb25104af674a0e6ec88ac", "addresses": ["1DMTKaY1b5Jfy6DEwCCFrAAtD9G5dcATrQ"], "asm": "OP_DUP OP_HASH160 877fccbb42e5e61d88353bbb25104af674a0e6ec OP_EQUALVERIFY OP_CHECKSIG", "type": "pubkeyhash"}, "value": 0.00797417, "n": 18}, {"scriptPubKey": {"reqSigs": 1, "hex": "a91401d9b243939c065327e62d009dff2819cc92863887", "addresses": ["31roPYRwYVN7ZpoqMiEEZCimQdsWKoaKAM"], "asm": "OP_HASH160 01d9b243939c065327e62d009dff2819cc928638 OP_EQUAL", "type": "scripthash"}, "value": 0.00295023, "n": 19}, {"scriptPubKey": {"reqSigs": 1, "hex": "a914085928d6319b1307f796b8314495d98c6886eee687", "addresses": ["32TA8zPjyHCMebMBpnH68j71ZduCin7J97"], "asm": "OP_HASH160 085928d6319b1307f796b8314495d98c6886eee6 OP_EQUAL", "type": "scripthash"}, "value": 1.97500738, "n": 20}, {"scriptPubKey": {"reqSigs": 1, "hex": "a9142377ac60c198fa057fe8104eaf96a7099767fc3287", "addresses": ["34vYwJpWyXo7zd2kYvPaken9jmjeu21ELg"], "asm": "OP_HASH160 2377ac60c198fa057fe8104eaf96a7099767fc32 OP_EQUAL", "type": "scripthash"}, "value": 0.01609801, "n": 21}, {"scriptPubKey": {"reqSigs": 1, "hex": "76a914c1e9306a73a144c559533ab6af124c08b24fc20c88ac", "addresses": ["1JgJmHgjc9jFFJFxqqx4S9wk75m2dn7GXq"], "asm": "OP_DUP OP_HASH160 c1e9306a73a144c559533ab6af124c08b24fc20c OP_EQUALVERIFY OP_CHECKSIG", "type": "pubkeyhash"}, "value": 0.00469, "n": 22}, {"scriptPubKey": {"reqSigs": 1, "hex": "a914a92ee5aa51c88b3488dc7b97f92b1f166a393fb187", "addresses": ["3H7aJS4G56FdbdhwjRsAuTsAkYGhciA8jg"], "asm": "OP_HASH160 a92ee5aa51c88b3488dc7b97f92b1f166a393fb1 OP_EQUAL", "type": "scripthash"}, "value": 0.0022556, "n": 23}, {"scriptPubKey": {"reqSigs": 1, "hex": "a91404ec709a4ca83346321477d902e8c51631b587af87", "addresses": ["3293sSUyB4ev74cDiqnrWU2jmGVrmqaaA4"], "asm": "OP_HASH160 04ec709a4ca83346321477d902e8c51631b587af OP_EQUAL", "type": "scripthash"}, "value": 0.00410704, "n": 24}, {"scriptPubKey": {"reqSigs": 1, "hex": "76a914ef2ce0bb60e0dead86e7d901632395a1c76c6d4c88ac", "addresses": ["1NoeG1v7uWf8zC5QGxZ4byoaNMMGrmNTQq"], "asm": "OP_DUP OP_HASH160 ef2ce0bb60e0dead86e7d901632395a1c76c6d4c OP_EQUALVERIFY OP_CHECKSIG", "type": "pubkeyhash"}, "value": 0.61629998, "n": 25}, {"scriptPubKey": {"reqSigs": 1, "hex": "76a914c88b9fa637ad46d0913c357622d25cf3fe87294c88ac", "addresses": ["1KHPQazDBPjTKhbYwTU7JtmZhDTy8VGP92"], "asm": "OP_DUP OP_HASH160 c88b9fa637ad46d0913c357622d25cf3fe87294c OP_EQUALVERIFY OP_CHECKSIG", "type": "pubkeyhash"}, "value": 0.00456894, "n": 26}, {"scriptPubKey": {"reqSigs": 1, "hex": "76a914f4c6f885f06b7c93cb47436eea40bcebf71f29c588ac", "addresses": ["1PKGEYJfxVLeufegaNdoNvZxaNXwBMpKgs"], "asm": "OP_DUP OP_HASH160 f4c6f885f06b7c93cb47436eea40bcebf71f29c5 OP_EQUALVERIFY OP_CHECKSIG", "type": "pubkeyhash"}, "value": 0.00151394, "n": 27}, {"scriptPubKey": {"reqSigs": 1, "hex": "a914f87fc233be7317c402aca38c96c7b2eb5dfb388a87", "addresses": ["3QLxYwXjzi1Ntw1xTGb7bQtSrxQHN9Bspc"], "asm": "OP_HASH160 f87fc233be7317c402aca38c96c7b2eb5dfb388a OP_EQUAL", "type": "scripthash"}, "value": 0.00352225, "n": 28}, {"scriptPubKey": {"reqSigs": 1, "hex": "a914a3aaef7a98b86d23311d63ecb273f64aa9d1425787", "addresses": ["3GcQqchogkQne84tRxFUbWL3ydGL8uWoVb"], "asm": "OP_HASH160 a3aaef7a98b86d23311d63ecb273f64aa9d14257 OP_EQUAL", "type": "scripthash"}, "value": 0.003294, "n": 29}, {"scriptPubKey": {"reqSigs": 1, "hex": "a91407d7950409bf8d89cb92a3e4cf05f48f632b666987", "addresses": ["32QUunwpygWpUF64fvQjYvmigLteGhA3M2"], "asm": "OP_HASH160 07d7950409bf8d89cb92a3e4cf05f48f632b6669 OP_EQUAL", "type": "scripthash"}, "value": 0.00479597, "n": 30}, {"scriptPubKey": {"reqSigs": 1, "hex": "a91478b44cd4b5bf2a6b8c48361f798b41913a3920be87", "addresses": ["3ChF131NrvwP12sj8diH3tF89vRsCaermT"], "asm": "OP_HASH160 78b44cd4b5bf2a6b8c48361f798b41913a3920be OP_EQUAL", "type": "scripthash"}, "value": 0.0030896, "n": 31}, {"scriptPubKey": {"reqSigs": 1, "hex": "a914991e2f022f110c246429ba0221cdb65fcebd5d5887", "addresses": ["3FedU67bNkmwsSdw5NTecvruSaboWM7XyB"], "asm": "OP_HASH160 991e2f022f110c246429ba0221cdb65fcebd5d58 OP_EQUAL", "type": "scripthash"}, "value": 0.00394113, "n": 32}, {"scriptPubKey": {"reqSigs": 1, "hex": "a91441d18a2d7db69a1117548b78bcb0327431b1de6087", "addresses": ["37h2s6BtVGfUtvV8Xipniujj1DuC61hwn1"], "asm": "OP_HASH160 41d18a2d7db69a1117548b78bcb0327431b1de60 OP_EQUAL", "type": "scripthash"}, "value": 0.00248031, "n": 33}, {"scriptPubKey": {"reqSigs": 1, "hex": "a9141ff763c7bdc89c59f5137e654818aa986bdb913d87", "addresses": ["34c3ES4G1WqvhcthoNB7BjoVE93aVPWfJa"], "asm": "OP_HASH160 1ff763c7bdc89c59f5137e654818aa986bdb913d OP_EQUAL", "type": "scripthash"}, "value": 0.00917935, "n": 34}, {"scriptPubKey": {"reqSigs": 1, "hex": "a91410a16ccbf3f6c4f043d315113f295a5ece77aa7a87", "addresses": ["33Cx7cnSSuugVfGRYPFvm4Hfny3Q8dNKGR"], "asm": "OP_HASH160 10a16ccbf3f6c4f043d315113f295a5ece77aa7a OP_EQUAL", "type": "scripthash"}, "value": 0.00419182, "n": 35}], "hex": "0200000000010194caff22ec2f9aaba24490db86eed64a2a5e1da72c8689996d51f8e7ad73a0c90200000017160014a6299b84dcd021a1bf33f09a19806ad0ef315745feffffff24c0c62d000000000017a914a5f2b1a4afcdc718df0c3901ba7fdad1fa403ead87a093e4000000000017a91445237c9ebdae81e3e8adc863f38b23e5885225758790538000000000001976a914fcaa4b120cd7858af64dd493c654b98745d19d1788acd81305000000000017a9143e609684539243df640b730d0c036f17fe9758828790d003000000000017a91413b9d0051f905da5d603252462d23bb0b424092d873d4a04000000000017a9144817bd42a277fad21f080e979a8ec772ffe1e0dc87b6aa1d000000000017a91408b126cc8f023fa6947019f0a4ccc1a809d2e36387833d07000000000017a914e2b1d14cbb7e5cf3f0dfc7d95006e59a8c0f48cd8730bbdd050000000017a9145e6d19b901b8e737389962c2c2e42b9c6066c4448730e602000000000017a91469cff5f4ac57da6ec2cae8671d58720fb43275a0875ff70f00000000001976a914d0d1c0b522f9ccb94eb9c310b659cebc4418a9f188ac11344800000000001976a914f144c08e8690ce2deba6063df4e71e4cb44f4b1b88ac10270000000000001976a914b55734dfa8c3fa99076252da88e45a64a7c81def88aca48408000000000017a9147fc182312d35be6ac352bee6803316fc98619ac68788330300000000001976a914393af2c395c76ebbbe2247ebb46d99f261ebbb7988ac404b4c000000000017a91469f374c5bab47cb5f99f50a57aad6afdf57d37a287b34e0a000000000017a914de0701b717dd3eebbeea1d4a051f64a76875806587d5250400000000001976a9148901fffddb02e4e15d3a79faab84a8788a28227788ace92a0c00000000001976a914877fccbb42e5e61d88353bbb25104af674a0e6ec88ac6f8004000000000017a91401d9b243939c065327e62d009dff2819cc92863887429fc50b0000000017a914085928d6319b1307f796b8314495d98c6886eee687499018000000000017a9142377ac60c198fa057fe8104eaf96a7099767fc328708280700000000001976a914c1e9306a73a144c559533ab6af124c08b24fc20c88ac187103000000000017a914a92ee5aa51c88b3488dc7b97f92b1f166a393fb187504406000000000017a91404ec709a4ca83346321477d902e8c51631b587af872e66ac03000000001976a914ef2ce0bb60e0dead86e7d901632395a1c76c6d4c88acbef80600000000001976a914c88b9fa637ad46d0913c357622d25cf3fe87294c88ac624f0200000000001976a914f4c6f885f06b7c93cb47436eea40bcebf71f29c588ace15f05000000000017a914f87fc233be7317c402aca38c96c7b2eb5dfb388a87b80605000000000017a914a3aaef7a98b86d23311d63ecb273f64aa9d14257876d5107000000000017a91407d7950409bf8d89cb92a3e4cf05f48f632b666987e0b604000000000017a91478b44cd4b5bf2a6b8c48361f798b41913a3920be87810306000000000017a914991e2f022f110c246429ba0221cdb65fcebd5d5887dfc803000000000017a91441d18a2d7db69a1117548b78bcb0327431b1de6087af010e000000000017a9141ff763c7bdc89c59f5137e654818aa986bdb913d876e6506000000000017a91410a16ccbf3f6c4f043d315113f295a5ece77aa7a870247304402204eb23e031b015709e36d438a078aa2e3e5bfc2bbc7f5d044cd6dcff78abd030102207985373b61c9788d4167d2c05d1fe7c3e202d843b8b6ca3c3577ce87a784cd9801210240888d3a7640410807c1e5f6c1b01b5feb80e1563b703fbf24f25fa29ce6da2315490800", "vin": [{"txinwitness": ["304402204eb23e031b015709e36d438a078aa2e3e5bfc2bbc7f5d044cd6dcff78abd030102207985373b61c9788d4167d2c05d1fe7c3e202d843b8b6ca3c3577ce87a784cd9801", "0240888d3a7640410807c1e5f6c1b01b5feb80e1563b703fbf24f25fa29ce6da23"], "sequence": 4294967294, "scriptSig": {"hex": "160014a6299b84dcd021a1bf33f09a19806ad0ef315745", "asm": "0014a6299b84dcd021a1bf33f09a19806ad0ef315745"}, "vout": 2, "txid": "c9a073ade7f8516d9989862ca71d5e2a4ad6ee86db9044a2ab9a2fec22ffca94"}], "txid": "e6d228ded887f7d573ad274e083f912efd7d3dedb54c2d09a439d4a9eea14729", "blocktime": 1537874412, "version": 2, "confirmations": 11467, "time": 1537874412, "locktime": 542997, "vsize": 1276, "size": 1357}