{"hash": "e6d331c7ffa6e718c98438f41e275a8e6c2cd3b9b8e2e5a79da9264f1ddd9290", "blockhash": "0000000000000000000baef3f32e3676a92c3b2e5da21b426e4f302fc371ce76", "vout": [{"scriptPubKey": {"reqSigs": 1, "hex": "76a9149367591bae80e7c7cc6fe341df3b2e7240d602dc88ac", "addresses": ["1ESQ8x4zXc61fvU7NhcPnMeu9x3r6Bumhh"], "asm": "OP_DUP OP_HASH160 9367591bae80e7c7cc6fe341df3b2e7240d602dc OP_EQUALVERIFY OP_CHECKSIG", "type": "pubkeyhash"}, "value": 0.019, "n": 0}, {"scriptPubKey": {"reqSigs": 1, "hex": "76a914e349bc52d6b8100b58d3fce45135a91c5c128a1d88ac", "addresses": ["1MiningDkXkhKaXBTMKXfLemnk1YY5rbkT"], "asm": "OP_DUP OP_HASH160 e349bc52d6b8100b58d3fce45135a91c5c128a1d OP_EQUALVERIFY OP_CHECKSIG", "type": "pubkeyhash"}, "value": 0.09638917, "n": 1}], "hex": "0200000001e9c627f20b35a91c1dc7329ed606920d3692e6237b6d57645456f2fef59e0440010000008a47304402204ec93d99fd549926ae590ac5152516127a82a1c126a87dd786f413ce1797e8c6022021e12471a76dc93174246f30f488f8d96a28acb2cee8ee6dbe8c8facd2e9be34014104ae414abde7876c34e01694b38b2341d10b9b4c8db18a66262bd8df26bcb57893885c9fe8b79aa25330d5f05bb5aa9ab636a908a72e27956572b44190b22809beffffffff02e0fd1c00000000001976a9149367591bae80e7c7cc6fe341df3b2e7240d602dc88ac05149300000000001976a914e349bc52d6b8100b58d3fce45135a91c5c128a1d88ac00000000", "vin": [{"sequence": 4294967295, "scriptSig": {"hex": "47304402204ec93d99fd549926ae590ac5152516127a82a1c126a87dd786f413ce1797e8c6022021e12471a76dc93174246f30f488f8d96a28acb2cee8ee6dbe8c8facd2e9be34014104ae414abde7876c34e01694b38b2341d10b9b4c8db18a66262bd8df26bcb57893885c9fe8b79aa25330d5f05bb5aa9ab636a908a72e27956572b44190b22809be", "asm": "304402204ec93d99fd549926ae590ac5152516127a82a1c126a87dd786f413ce1797e8c6022021e12471a76dc93174246f30f488f8d96a28acb2cee8ee6dbe8c8facd2e9be34[ALL] 04ae414abde7876c34e01694b38b2341d10b9b4c8db18a66262bd8df26bcb57893885c9fe8b79aa25330d5f05bb5aa9ab636a908a72e27956572b44190b22809be"}, "vout": 1, "txid": "40049ef5fef2565464576d7b23e692360d9206d69e32c71d1ca9350bf227c6e9"}], "txid": "e6d331c7ffa6e718c98438f41e275a8e6c2cd3b9b8e2e5a79da9264f1ddd9290", "blocktime": 1537876114, "version": 2, "confirmations": 11460, "time": 1537876114, "locktime": 0, "vsize": 257, "size": 257}