{"hash": "9453b89ad07d9dac991e5f37380a2f7c9faa7eb8ad5b926ca3e7497ce72b52bd", "blockhash": "0000000000000000001cda96e906b7601b7a6fb1a3b62bca570a9e5d8f4b3de1", "vout": [{"scriptPubKey": {"reqSigs": 1, "hex": "76a914ad1e9db88faca4afac65db54c854947d4bc4fa0288ac", "addresses": ["1GnNaRxtDW3KPFv1LvA59x2JU7GTgcWSZ9"], "asm": "OP_DUP OP_HASH160 ad1e9db88faca4afac65db54c854947d4bc4fa02 OP_EQUALVERIFY OP_CHECKSIG", "type": "pubkeyhash"}, "value": 0.05707607, "n": 0}, {"scriptPubKey": {"reqSigs": 1, "hex": "a91479452a6a181c8ab43c0601dbc5002095f8d1a4f787", "addresses": ["3CkEYUGnULLQ8EH6RRTRr5aSvYyvuvhypV"], "asm": "OP_HASH160 79452a6a181c8ab43c0601dbc5002095f8d1a4f7 OP_EQUAL", "type": "scripthash"}, "value": 0.08047626, "n": 1}], "hex": "01000000000101c5e0e41570ee6c2f87c83b56c9831032d69ebc29f04351796a97f6d217d94ac60100000023220020089706c69dbb97056e543c68d80b77be4a67fb50e8ddc1004146f8730cf5e22dffffffff0257175700000000001976a914ad1e9db88faca4afac65db54c854947d4bc4fa0288ac0acc7a000000000017a91479452a6a181c8ab43c0601dbc5002095f8d1a4f7870400483045022100acf5d0978cf98657047a6e3b9b9fd1f101b9bb33a389f8e5dff1587d0d96b296022057c632baa68d71c52ed7632a10a079cc16fac9aee244d06edecedc61e2fbbb3101483045022100f057e983a2b6ce535363be6d1d4147f9df54794f714cc5dd409c8df39fb366910220274f3ec614110493e3554d58c356de6ce287696d066d0b0aaf6112d9aa3925d901695221039ac4e132950a3699970e74cd5859d17cf3ebb272d5c33ed7768b270ff01efd602102a77df8b1d41cb3b8a98f7c57fa794e8f227856803f760010a537bbed7a6c2fe02103dce66e1feeb1adc088b036350b4a7fb713c8443409bca6a445f5115d2eb8ab7f53ae14490800", "vin": [{"txinwitness": ["", "3045022100acf5d0978cf98657047a6e3b9b9fd1f101b9bb33a389f8e5dff1587d0d96b296022057c632baa68d71c52ed7632a10a079cc16fac9aee244d06edecedc61e2fbbb3101", "3045022100f057e983a2b6ce535363be6d1d4147f9df54794f714cc5dd409c8df39fb366910220274f3ec614110493e3554d58c356de6ce287696d066d0b0aaf6112d9aa3925d901", "5221039ac4e132950a3699970e74cd5859d17cf3ebb272d5c33ed7768b270ff01efd602102a77df8b1d41cb3b8a98f7c57fa794e8f227856803f760010a537bbed7a6c2fe02103dce66e1feeb1adc088b036350b4a7fb713c8443409bca6a445f5115d2eb8ab7f53ae"], "sequence": 4294967295, "scriptSig": {"hex": "220020089706c69dbb97056e543c68d80b77be4a67fb50e8ddc1004146f8730cf5e22d", "asm": "0020089706c69dbb97056e543c68d80b77be4a67fb50e8ddc1004146f8730cf5e22d"}, "vout": 1, "txid": "c64ad917d2f6976a795143f029bc9ed6321083c9563bc8872f6cee7015e4e0c5"}], "txid": "e6d5e1640a36134d61a51b669fc55fdcc582782ff13733aa18bb9a692147e89e", "blocktime": 1537873282, "version": 1, "confirmations": 11484, "time": 1537873282, "locktime": 542996, "vsize": 216, "size": 408}