{"hash": "faf80b03e136bbb9a19a047788b24bc5d2cbf8a51beb0170c36c9f1315d73490", "blockhash": "0000000000000000000e13cef7c366c0283d82e591d1acd082e914b08063cdf1", "vout": [{"scriptPubKey": {"reqSigs": 1, "hex": "76a9146e86ea3c38fc9422be2670aefbbb54b23e0e918d88ac", "addresses": ["1B5QxACWYgkLPiJFPZQiAuuYPpy3TD5s3f"], "asm": "OP_DUP OP_HASH160 6e86ea3c38fc9422be2670aefbbb54b23e0e918d OP_EQUALVERIFY OP_CHECKSIG", "type": "pubkeyhash"}, "value": 0.06243755, "n": 0}, {"scriptPubKey": {"reqSigs": 1, "hex": "a9141988a27e3c2df4ddee7fad5a2303d086179b2a3087", "addresses": ["3422VtS7UtCvXYxoXMVp6eZupR252z85oC"], "asm": "OP_HASH160 1988a27e3c2df4ddee7fad5a2303d086179b2a30 OP_EQUAL", "type": "scripthash"}, "value": 2.814698, "n": 1}], "hex": "010000000001017b5731589a9cc89c4a95ae7e66e4095e5020f134702b1f67f9dea25de63892d301000000232200202035e78a6b34d583ad0a874b80ee41a0507b92cf0b671656108f594c7f75ca90ffffffff02ab455f00000000001976a9146e86ea3c38fc9422be2670aefbbb54b23e0e918d88ac68e3c6100000000017a9141988a27e3c2df4ddee7fad5a2303d086179b2a30870400473044022053e03a25c6734b40a0198dbfb50df137fe7e4678b1f0615335f3e1d50e9a6ae102200b2a2e1421d2d4deeb9d376483c62f40f157befebdde51bf1746742e8398e0c501483045022100bea631dbeae0254b26d4cbc3193ae6463412a0c674057003dba0a7597b04726402201f00f08c095a95614c8496e5eba3c4e84122a3528eab7536a5df9a85addde3e701695221029103d1dfbbee9ea5249ee0b03ca59e08291ce34a7467513edf8ea767b5aa26382103dce07bea5905a1c3e70f86c1f74f0e98e7cf3b6f5d02226a4c531c9e930c613b210268d8878afaf4b55118519d8520fe0db27f9596a812d4378f4bf4a96a5333694653ae00000000", "vin": [{"txinwitness": ["", "3044022053e03a25c6734b40a0198dbfb50df137fe7e4678b1f0615335f3e1d50e9a6ae102200b2a2e1421d2d4deeb9d376483c62f40f157befebdde51bf1746742e8398e0c501", "3045022100bea631dbeae0254b26d4cbc3193ae6463412a0c674057003dba0a7597b04726402201f00f08c095a95614c8496e5eba3c4e84122a3528eab7536a5df9a85addde3e701", "5221029103d1dfbbee9ea5249ee0b03ca59e08291ce34a7467513edf8ea767b5aa26382103dce07bea5905a1c3e70f86c1f74f0e98e7cf3b6f5d02226a4c531c9e930c613b210268d8878afaf4b55118519d8520fe0db27f9596a812d4378f4bf4a96a5333694653ae"], "sequence": 4294967295, "scriptSig": {"hex": "2200202035e78a6b34d583ad0a874b80ee41a0507b92cf0b671656108f594c7f75ca90", "asm": "00202035e78a6b34d583ad0a874b80ee41a0507b92cf0b671656108f594c7f75ca90"}, "vout": 1, "txid": "d39238e65da2def9671f2b7034f120505e09e4667eae954a9cc89c9a5831577b"}], "txid": "e6d7b35994d0fc32cb886d99e3d637cd436325b2b3aede0c682f65d843c6151a", "blocktime": 1537871767, "version": 1, "confirmations": 11491, "time": 1537871767, "locktime": 0, "vsize": 216, "size": 407}