{"hash": "67c1012783497d759022ff051ef223528d8c018b5ce7cab14eeb9e3c389a9df9", "blockhash": "0000000000000000001f0ddff1eddb255c1121bcd4da4f1bc9a0da00cae72433", "vout": [{"scriptPubKey": {"reqSigs": 1, "hex": "0014d18d4019866efe2347e00852d76e1bac85eb39c9", "addresses": ["bc1q6xx5qxvxdmlzx3lqppfdwmsm4jz7kwwflp032j"], "asm": "0 d18d4019866efe2347e00852d76e1bac85eb39c9", "type": "witness_v0_keyhash"}, "value": 0.03251735, "n": 0}, {"scriptPubKey": {"reqSigs": 1, "hex": "76a9140e574bd5425ae5973f88fcfa78a390a3fee3d57b88ac", "addresses": ["12Jq38kAp8Y2Z92ExQ7k3JvBfLv4bM8yod"], "asm": "OP_DUP OP_HASH160 0e574bd5425ae5973f88fcfa78a390a3fee3d57b OP_EQUALVERIFY OP_CHECKSIG", "type": "pubkeyhash"}, "value": 2.71949003, "n": 1}], "hex": "0100000000010113f89d144c96f88ff53311ff6670073e42817d4fa72d3f927f583d226e9a9f620000000000ffffffff02179e310000000000160014d18d4019866efe2347e00852d76e1bac85eb39c9cb9c3510000000001976a9140e574bd5425ae5973f88fcfa78a390a3fee3d57b88ac02483045022100b65ed2864bb2000d6cbfd5ffffd7f7b26c0722b319449d3465849f5b97435ae1022019683343999be608bd84207bf58166ad8b697f738d25941461bf395355a511d8012103446c1bae34c711341fb9fbc1f089b6030d786bfde85b278a271af921b6dc3a2900000000", "vin": [{"txinwitness": ["3045022100b65ed2864bb2000d6cbfd5ffffd7f7b26c0722b319449d3465849f5b97435ae1022019683343999be608bd84207bf58166ad8b697f738d25941461bf395355a511d801", "03446c1bae34c711341fb9fbc1f089b6030d786bfde85b278a271af921b6dc3a29"], "sequence": 4294967295, "scriptSig": {"hex": "", "asm": ""}, "vout": 0, "txid": "629f9a6e223d587f923f2da74f7d81423e077066ff1133f58ff8964c149df813"}], "txid": "e6d8b66220dc7ca93885c145d74ff6872c0b4d0c41400cc27c83b0ad73d9c958", "blocktime": 1537872018, "version": 1, "confirmations": 11489, "time": 1537872018, "locktime": 0, "vsize": 144, "size": 226}