{"hash": "e6df683aa1a913e06f04cdb4aba25b5d2ec99eba52300bfb77257d9570b752e7", "blockhash": "0000000000000000001cda96e906b7601b7a6fb1a3b62bca570a9e5d8f4b3de1", "vout": [{"scriptPubKey": {"reqSigs": 1, "hex": "76a9143b580dfdc3f2a5fd89ec4fbda9c20cc1bae369c588ac", "addresses": ["16QnMTq6FK4SKNNAE84PtjNNUg3PaXMcbQ"], "asm": "OP_DUP OP_HASH160 3b580dfdc3f2a5fd89ec4fbda9c20cc1bae369c5 OP_EQUALVERIFY OP_CHECKSIG", "type": "pubkeyhash"}, "value": 2.73e-05, "n": 0}, {"scriptPubKey": {"reqSigs": 1, "hex": "76a914ab2a9d50d30937548f24999a134f7b21dbb99a2a88ac", "addresses": ["1Gc3biG5hsHAoj4ZNAtnT4sCBbtF9sKEEL"], "asm": "OP_DUP OP_HASH160 ab2a9d50d30937548f24999a134f7b21dbb99a2a OP_EQUALVERIFY OP_CHECKSIG", "type": "pubkeyhash"}, "value": 0.00583877, "n": 1}, {"scriptPubKey": {"type": "nulldata", "hex": "6a146f6d6e69000000000000001f0000000dd260edeb", "asm": "OP_RETURN 6f6d6e69000000000000001f0000000dd260edeb"}, "value": 0.0, "n": 2}], "hex": "0100000001931d6b55b1fdff811bff70bfc4b248e709ffbd2f2943b0fb0c5b67f53b2ae8a6010000006a473044022074dfa0fab48bd0a206ea651e7fa862d35d5edbead77104adfd1db78d94521f26022031d438bac29f0e1cbdffa6be5d9c50c35da73bd01ad49f2cc334f701412e8b9f01210390424deb98da6c45c0af5063423f08c91c8161cac684e32e1a05023933e974b9ffffffff03aa0a0000000000001976a9143b580dfdc3f2a5fd89ec4fbda9c20cc1bae369c588acc5e80800000000001976a914ab2a9d50d30937548f24999a134f7b21dbb99a2a88ac0000000000000000166a146f6d6e69000000000000001f0000000dd260edeb00000000", "vin": [{"sequence": 4294967295, "scriptSig": {"hex": "473044022074dfa0fab48bd0a206ea651e7fa862d35d5edbead77104adfd1db78d94521f26022031d438bac29f0e1cbdffa6be5d9c50c35da73bd01ad49f2cc334f701412e8b9f01210390424deb98da6c45c0af5063423f08c91c8161cac684e32e1a05023933e974b9", "asm": "3044022074dfa0fab48bd0a206ea651e7fa862d35d5edbead77104adfd1db78d94521f26022031d438bac29f0e1cbdffa6be5d9c50c35da73bd01ad49f2cc334f701412e8b9f[ALL] 0390424deb98da6c45c0af5063423f08c91c8161cac684e32e1a05023933e974b9"}, "vout": 1, "txid": "a6e82a3bf5675b0cfbb043292fbdff09e748b2c4bf70ff1b81fffdb1556b1d93"}], "txid": "e6df683aa1a913e06f04cdb4aba25b5d2ec99eba52300bfb77257d9570b752e7", "blocktime": 1537873282, "version": 1, "confirmations": 11484, "time": 1537873282, "locktime": 0, "vsize": 256, "size": 256}