{"hash": "e6e6e4d2968639cf2ca13407bd33fa3492c2da05df475e9b387623a3edf88605", "blockhash": "0000000000000000000baef3f32e3676a92c3b2e5da21b426e4f302fc371ce76", "vout": [{"scriptPubKey": {"reqSigs": 1, "hex": "a9148d5c42f20609d554d755d23de488e1bfa29cda5487", "addresses": ["3EaTj2uNednpMAJUPRW4aESzGMKfgXr9dc"], "asm": "OP_HASH160 8d5c42f20609d554d755d23de488e1bfa29cda54 OP_EQUAL", "type": "scripthash"}, "value": 0.00509367, "n": 0}, {"scriptPubKey": {"reqSigs": 1, "hex": "76a914e1eb0c6e35e9ed236890a2c49b8f78ac363690cb88ac", "addresses": ["1MbYcd4ykK8G2PtFsznRgLRR9gv8mYSTjq"], "asm": "OP_DUP OP_HASH160 e1eb0c6e35e9ed236890a2c49b8f78ac363690cb OP_EQUALVERIFY OP_CHECKSIG", "type": "pubkeyhash"}, "value": 0.05392666, "n": 1}], "hex": "010000000138536f5617ebbbc8b74979ee2b0924fa4033dc1bbbc57b1e0eb00aa4bb9b8a68010000006b483045022100e6bc09069dfc7529d5301bd2bd19fd3af67f81c127f0409cc83b5af08ece79fd0220068a1ba119b5d6895b5ea42e251756111b3137b79b7e5ede4412a638ef3d19530121029dc7e2be085ddb2cc0ec899f359e9d2d868a9719708678b38e9cdcda01d915f0ffffffff02b7c507000000000017a9148d5c42f20609d554d755d23de488e1bfa29cda54871a495200000000001976a914e1eb0c6e35e9ed236890a2c49b8f78ac363690cb88ac00000000", "vin": [{"sequence": 4294967295, "scriptSig": {"hex": "483045022100e6bc09069dfc7529d5301bd2bd19fd3af67f81c127f0409cc83b5af08ece79fd0220068a1ba119b5d6895b5ea42e251756111b3137b79b7e5ede4412a638ef3d19530121029dc7e2be085ddb2cc0ec899f359e9d2d868a9719708678b38e9cdcda01d915f0", "asm": "3045022100e6bc09069dfc7529d5301bd2bd19fd3af67f81c127f0409cc83b5af08ece79fd0220068a1ba119b5d6895b5ea42e251756111b3137b79b7e5ede4412a638ef3d1953[ALL] 029dc7e2be085ddb2cc0ec899f359e9d2d868a9719708678b38e9cdcda01d915f0"}, "vout": 1, "txid": "688a9bbba40ab00e1e7bc5bb1bdc3340fa24092bee7949b7c8bbeb17566f5338"}], "txid": "e6e6e4d2968639cf2ca13407bd33fa3492c2da05df475e9b387623a3edf88605", "blocktime": 1537876114, "version": 1, "confirmations": 11460, "time": 1537876114, "locktime": 0, "vsize": 224, "size": 224}