{"hash": "e6e76b4639b482f11672ee6cacc78a6c0baa114bf61b301fdc8a933a65fca16e", "blockhash": "0000000000000000000e13cef7c366c0283d82e591d1acd082e914b08063cdf1", "vout": [{"scriptPubKey": {"reqSigs": 1, "hex": "76a9144cba367a8ceeb83c345e460e1ea03e78d2fbfd3388ac", "addresses": ["17zhRsZjNF79JYBKhAjX263L2DkGiBGfuF"], "asm": "OP_DUP OP_HASH160 4cba367a8ceeb83c345e460e1ea03e78d2fbfd33 OP_EQUALVERIFY OP_CHECKSIG", "type": "pubkeyhash"}, "value": 0.00143904, "n": 0}, {"scriptPubKey": {"type": "nulldata", "hex": "6a4c50000077a50001cbb205e5d82553f51ee4a0c3af6c953dd567cf27e7e3ef3236678a6250971726b13df038a3ece4a19bad472bfa265baa0efa0614574a5cb5650dbc9a9526289ac0f6612cd74e33776ee4", "asm": "OP_RETURN 000077a50001cbb205e5d82553f51ee4a0c3af6c953dd567cf27e7e3ef3236678a6250971726b13df038a3ece4a19bad472bfa265baa0efa0614574a5cb5650dbc9a9526289ac0f6612cd74e33776ee4"}, "value": 0.0, "n": 1}], "hex": "0100000001035aeaa26ec99696186fd5f3b54353fd883aeae12f5e76d2f145183f862f1efd010000006b4830450221008041a98cd251a07e9494cf925eb0c86da46e5c27f9de4ebb2a216edf929600830220091b8eb843ef024a337da7e9d0b976fa193f8dc9490d6756a2f6a21fac2e10700121034d8159fbc44be8155373583742c1bc981bd0daf09bd3e89d16e3b2f76d31bcd7ffffffff0220320200000000001976a9144cba367a8ceeb83c345e460e1ea03e78d2fbfd3388ac0000000000000000536a4c50000077a50001cbb205e5d82553f51ee4a0c3af6c953dd567cf27e7e3ef3236678a6250971726b13df038a3ece4a19bad472bfa265baa0efa0614574a5cb5650dbc9a9526289ac0f6612cd74e33776ee400000000", "vin": [{"sequence": 4294967295, "scriptSig": {"hex": "4830450221008041a98cd251a07e9494cf925eb0c86da46e5c27f9de4ebb2a216edf929600830220091b8eb843ef024a337da7e9d0b976fa193f8dc9490d6756a2f6a21fac2e10700121034d8159fbc44be8155373583742c1bc981bd0daf09bd3e89d16e3b2f76d31bcd7", "asm": "30450221008041a98cd251a07e9494cf925eb0c86da46e5c27f9de4ebb2a216edf929600830220091b8eb843ef024a337da7e9d0b976fa193f8dc9490d6756a2f6a21fac2e1070[ALL] 034d8159fbc44be8155373583742c1bc981bd0daf09bd3e89d16e3b2f76d31bcd7"}, "vout": 1, "txid": "fd1e2f863f1845f1d2765e2fe1ea3a88fd5343b5f3d56f189696c96ea2ea5a03"}], "txid": "e6e76b4639b482f11672ee6cacc78a6c0baa114bf61b301fdc8a933a65fca16e", "blocktime": 1537871767, "version": 1, "confirmations": 11493, "time": 1537871767, "locktime": 0, "vsize": 284, "size": 284}