{"hash": "e6e7279fb73bc8f71f2423f7388ab0e1c8285c88156db547c3228443ec223273", "blockhash": "0000000000000000000dcc0f55137456b1a82d3642486a52398922ac4d620174", "vout": [{"scriptPubKey": {"reqSigs": 1, "hex": "76a914677be2c42d3b4652e0a4c2d4575e6f875595a57a88ac", "addresses": ["1ASB1VixkMRd5MLWf4Lynpm8YqBfDNc6AB"], "asm": "OP_DUP OP_HASH160 677be2c42d3b4652e0a4c2d4575e6f875595a57a OP_EQUALVERIFY OP_CHECKSIG", "type": "pubkeyhash"}, "value": 0.0017, "n": 0}, {"scriptPubKey": {"reqSigs": 1, "hex": "76a91441f2b89896788b8f51aa78ff802c12bd91a5348488ac", "addresses": ["171hh2TcjYW2cdzSWPqVRBYsrdNtFgx4VP"], "asm": "OP_DUP OP_HASH160 41f2b89896788b8f51aa78ff802c12bd91a53484 OP_EQUALVERIFY OP_CHECKSIG", "type": "pubkeyhash"}, "value": 0.094888, "n": 1}], "hex": "0100000001f14d1d223fec24558289495f069a0b957d249bd0aabbc71f7535c5999fc915b3000000006b483045022100b7ae030cddda1ccd911f4d24a20da08e942fba3e4302cb75fa9ca76d5baf32f2022076e85fec82aae3d3d786ebd0855428e46e8ec88f97d9be535822fb404beed384012103f3608e3eb968ecab2b6cec13391c360050944257686ddf43d4c4d71f90153906feffffff0210980200000000001976a914677be2c42d3b4652e0a4c2d4575e6f875595a57a88aca0c99000000000001976a91441f2b89896788b8f51aa78ff802c12bd91a5348488ac00000000", "vin": [{"sequence": 4294967294, "scriptSig": {"hex": "483045022100b7ae030cddda1ccd911f4d24a20da08e942fba3e4302cb75fa9ca76d5baf32f2022076e85fec82aae3d3d786ebd0855428e46e8ec88f97d9be535822fb404beed384012103f3608e3eb968ecab2b6cec13391c360050944257686ddf43d4c4d71f90153906", "asm": "3045022100b7ae030cddda1ccd911f4d24a20da08e942fba3e4302cb75fa9ca76d5baf32f2022076e85fec82aae3d3d786ebd0855428e46e8ec88f97d9be535822fb404beed384[ALL] 03f3608e3eb968ecab2b6cec13391c360050944257686ddf43d4c4d71f90153906"}, "vout": 0, "txid": "b315c99f99c535751fc7bbaad09b247d950b9a065f4989825524ec3f221d4df1"}], "txid": "e6e7279fb73bc8f71f2423f7388ab0e1c8285c88156db547c3228443ec223273", "blocktime": 1537870268, "version": 1, "confirmations": 11516, "time": 1537870268, "locktime": 0, "vsize": 226, "size": 226}