{"hash": "e6e84264b8a822a90252a7270b50d224303bded2ddf53af945e3c2c76a476104", "blockhash": "0000000000000000001cda96e906b7601b7a6fb1a3b62bca570a9e5d8f4b3de1", "vout": [{"scriptPubKey": {"reqSigs": 1, "hex": "76a91431a00897fc6e0effc1363dea8c0ff82dc00e9cd088ac", "addresses": ["15XPpjAf1iUJ6YTknxHZM1CUHFtXVEPrNd"], "asm": "OP_DUP OP_HASH160 31a00897fc6e0effc1363dea8c0ff82dc00e9cd0 OP_EQUALVERIFY OP_CHECKSIG", "type": "pubkeyhash"}, "value": 0.01346264, "n": 0}, {"scriptPubKey": {"reqSigs": 1, "hex": "76a9146b21a74f8facecaa81fc7b4b79b63a096e448bf288ac", "addresses": ["1AmTcpLANiRpMfzKfVbv42EgQnTqE5Yob8"], "asm": "OP_DUP OP_HASH160 6b21a74f8facecaa81fc7b4b79b63a096e448bf2 OP_EQUALVERIFY OP_CHECKSIG", "type": "pubkeyhash"}, "value": 0.00149583, "n": 1}, {"scriptPubKey": {"reqSigs": 1, "hex": "a9143f538b29ffd80472c75c2c331270b730e3d7558d87", "addresses": ["37TraLioZJTuin8fJdnDYA26TF39rUUtH4"], "asm": "OP_HASH160 3f538b29ffd80472c75c2c331270b730e3d7558d OP_EQUAL", "type": "scripthash"}, "value": 7.516e-05, "n": 2}], "hex": "01000000011d13bbded6736448ba8338749c21a2a776c68e783c4850825537bb17244cd68b000000006b483045022100e48672b68509685ec9cba528234fc56e62dc680508e2f6f77f91bb4ae8f7339402201ec3be6ea647c729f8c279fbd503e840fd486968b0e31f15ea2eca32187283e7012103e909f1c5047ec7011e152fad1b78a01729d87310d24764e7d76f20c1d7031006ffffffff03d88a1400000000001976a91431a00897fc6e0effc1363dea8c0ff82dc00e9cd088ac4f480200000000001976a9146b21a74f8facecaa81fc7b4b79b63a096e448bf288ac5c1d00000000000017a9143f538b29ffd80472c75c2c331270b730e3d7558d8700000000", "vin": [{"sequence": 4294967295, "scriptSig": {"hex": "483045022100e48672b68509685ec9cba528234fc56e62dc680508e2f6f77f91bb4ae8f7339402201ec3be6ea647c729f8c279fbd503e840fd486968b0e31f15ea2eca32187283e7012103e909f1c5047ec7011e152fad1b78a01729d87310d24764e7d76f20c1d7031006", "asm": "3045022100e48672b68509685ec9cba528234fc56e62dc680508e2f6f77f91bb4ae8f7339402201ec3be6ea647c729f8c279fbd503e840fd486968b0e31f15ea2eca32187283e7[ALL] 03e909f1c5047ec7011e152fad1b78a01729d87310d24764e7d76f20c1d7031006"}, "vout": 0, "txid": "8bd64c2417bb37558250483c788ec676a7a2219c743883ba486473d6debb131d"}], "txid": "e6e84264b8a822a90252a7270b50d224303bded2ddf53af945e3c2c76a476104", "blocktime": 1537873282, "version": 1, "confirmations": 11485, "time": 1537873282, "locktime": 0, "vsize": 258, "size": 258}