{"hash": "e6e8affbb1c9188136b2277b1d1969e9a835d3b7cbf68b8060dbec4c9fe1a7c4", "blockhash": "0000000000000000001e0dab787dd257d1dbfcb92a98c2207d5e1078be1f4165", "vout": [{"scriptPubKey": {"reqSigs": 1, "hex": "76a914b8347182f6cc7beee5bfd3b7f8de1416a436029088ac", "addresses": ["1HnzA8T3B1TovgKatpf6Bm5nf4it96b3Jz"], "asm": "OP_DUP OP_HASH160 b8347182f6cc7beee5bfd3b7f8de1416a4360290 OP_EQUALVERIFY OP_CHECKSIG", "type": "pubkeyhash"}, "value": 0.00014, "n": 0}, {"scriptPubKey": {"reqSigs": 1, "hex": "a914dc22b8ba49105a206df3d74dc64d1d064194608987", "addresses": ["3MkzBFAPR4rzv1iRACzKWgSBJ9CGZi634d"], "asm": "OP_HASH160 dc22b8ba49105a206df3d74dc64d1d0641946089 OP_EQUAL", "type": "scripthash"}, "value": 0.011, "n": 1}], "hex": "010000000114861947e2dbfd01dc8776a0dba7bd225173716c258fd87772c2ba6c189847fd010000006b483045022100f49af30c0dcebbfc70f18cc7ad670a054affcce92d6d54ae8184bf594177093602204c88f1bd5ce0689bed50755312ecff262b0b48600d20666a65977f4dd214f83101210391e06a593d9730cf8e1de7f3a7a5ce58f497c399e5ec2deaadea23e7b6547f0affffffff02b0360000000000001976a914b8347182f6cc7beee5bfd3b7f8de1416a436029088ace0c810000000000017a914dc22b8ba49105a206df3d74dc64d1d06419460898700000000", "vin": [{"sequence": 4294967295, "scriptSig": {"hex": "483045022100f49af30c0dcebbfc70f18cc7ad670a054affcce92d6d54ae8184bf594177093602204c88f1bd5ce0689bed50755312ecff262b0b48600d20666a65977f4dd214f83101210391e06a593d9730cf8e1de7f3a7a5ce58f497c399e5ec2deaadea23e7b6547f0a", "asm": "3045022100f49af30c0dcebbfc70f18cc7ad670a054affcce92d6d54ae8184bf594177093602204c88f1bd5ce0689bed50755312ecff262b0b48600d20666a65977f4dd214f831[ALL] 0391e06a593d9730cf8e1de7f3a7a5ce58f497c399e5ec2deaadea23e7b6547f0a"}, "vout": 1, "txid": "fd4798186cbac27277d88f256c71735122bda7dba07687dc01fddbe247198614"}], "txid": "e6e8affbb1c9188136b2277b1d1969e9a835d3b7cbf68b8060dbec4c9fe1a7c4", "blocktime": 1537872475, "version": 1, "confirmations": 11486, "time": 1537872475, "locktime": 0, "vsize": 224, "size": 224}