{"hash": "e6e9d2f1ff6280a0b4767bf537e29cc8f1c1ca88ed6cb558529dc9485807e87d", "blockhash": "0000000000000000001f0ddff1eddb255c1121bcd4da4f1bc9a0da00cae72433", "vout": [{"scriptPubKey": {"reqSigs": 1, "hex": "a9147c2e9acec226c82d2c20f75647e88b93d7707dc787", "addresses": ["3D1dYUyw8xrVk8mtbpRNVmUX8Vo5ip2axT"], "asm": "OP_HASH160 7c2e9acec226c82d2c20f75647e88b93d7707dc7 OP_EQUAL", "type": "scripthash"}, "value": 0.00567318, "n": 0}], "hex": "0100000002961cbfd83153218412a8037ced7a0488fae0064f91a646f7f70aa2e823faba40090000006b483045022100e800970045db798d44177c05d333d8735cbd008e74605590bb41b059b721215502204819329c720e4d308665b5c166585ebd7f564f11a2f468377863fa714676853a012102cc458d255c0075b25089327152c0fdde9636619520c170cf0863baa7920cdd2fffffffffe38a5148e3393738805f379fc849e683f4ebee05f1f45c51db4a891a8ef6dd7c000000006a47304402207cd76865a865ad5994809fe5e0852655135e60352a92dfb02b15320523811d27022075117d9e17a7a0a629deae94958d0c17237e5fd03527e04c087c1546f2e8a7a801210360ce0ffddf83d682ae5a014cfd84b30832aa05bb9575a0d5637099a9b30d0a2fffffffff0116a808000000000017a9147c2e9acec226c82d2c20f75647e88b93d7707dc78700000000", "vin": [{"sequence": 4294967295, "scriptSig": {"hex": "483045022100e800970045db798d44177c05d333d8735cbd008e74605590bb41b059b721215502204819329c720e4d308665b5c166585ebd7f564f11a2f468377863fa714676853a012102cc458d255c0075b25089327152c0fdde9636619520c170cf0863baa7920cdd2f", "asm": "3045022100e800970045db798d44177c05d333d8735cbd008e74605590bb41b059b721215502204819329c720e4d308665b5c166585ebd7f564f11a2f468377863fa714676853a[ALL] 02cc458d255c0075b25089327152c0fdde9636619520c170cf0863baa7920cdd2f"}, "vout": 9, "txid": "40bafa23e8a20af7f746a6914f06e0fa88047aed7c03a81284215331d8bf1c96"}, {"sequence": 4294967295, "scriptSig": {"hex": "47304402207cd76865a865ad5994809fe5e0852655135e60352a92dfb02b15320523811d27022075117d9e17a7a0a629deae94958d0c17237e5fd03527e04c087c1546f2e8a7a801210360ce0ffddf83d682ae5a014cfd84b30832aa05bb9575a0d5637099a9b30d0a2f", "asm": "304402207cd76865a865ad5994809fe5e0852655135e60352a92dfb02b15320523811d27022075117d9e17a7a0a629deae94958d0c17237e5fd03527e04c087c1546f2e8a7a8[ALL] 0360ce0ffddf83d682ae5a014cfd84b30832aa05bb9575a0d5637099a9b30d0a2f"}, "vout": 0, "txid": "7cddf68e1a894adb515cf4f105eeebf483e649c89f375f80383739e348518ae3"}], "txid": "e6e9d2f1ff6280a0b4767bf537e29cc8f1c1ca88ed6cb558529dc9485807e87d", "blocktime": 1537872018, "version": 1, "confirmations": 11489, "time": 1537872018, "locktime": 0, "vsize": 337, "size": 337}