{"hash": "e6e9b937f16a2e6470c7a90aecb8a46471e3f70d41420e04fc2eb7f4adbc1560", "blockhash": "00000000000000000004ffacab907a6b429b9a5745fa0b75af4234bf69dd7176", "vout": [{"scriptPubKey": {"reqSigs": 1, "hex": "76a914f4b6131d64f083d4e4aeb48f174a8535f743333a88ac", "addresses": ["1PJuzaRdZs4gMsVUiPiJuMRcGGu655bXqu"], "asm": "OP_DUP OP_HASH160 f4b6131d64f083d4e4aeb48f174a8535f743333a OP_EQUALVERIFY OP_CHECKSIG", "type": "pubkeyhash"}, "value": 0.01798709, "n": 0}], "hex": "0100000006cd5b6a17f50979a5cfd8b68df07fdbe02640c98d08563eca4133854f99ae4002000000006a473044022067ba0e07b8f29a667fd57db9855c3a6454e40a496813aa03b9a8a4e37003628f02207b96aa2b785d170d8244127cebe64d5b7260d8e5d20827e45580cb2bd0673aea01210271fb90152f803146e8b184a95bc7468926b6d193d3de0350781d629af3fdcff3ffffffff7b1ab14aed002e221f5f2c3eea72a4363ff4bc023700f0448c7b09987333893d000000006a47304402200def275ba731091dc60a7a8dad9617a2b01d5f8f3941caa49d719bbe57f9d46d022044ceb97ab10a6976848e925d2844645172f359185e417a86ebb710ac0b08035801210271fb90152f803146e8b184a95bc7468926b6d193d3de0350781d629af3fdcff3ffffffff0b0ab3eec7d32c67c60ca3a602f77ceca3ba7ec9ce756656b828e1e9cb44402d000000006b483045022100f654085bc5ecbdfb73650f2df17fff938930e51f25a8642fa92cafe522dca11202201d62a229a7ed05ec74852549ea834e613a0d76fed750dff123bc424a6ff90ab901210271fb90152f803146e8b184a95bc7468926b6d193d3de0350781d629af3fdcff3ffffffff4208cfcceb608b0683fe7fb9c4eefe6eb6b44e3145ff4ce0982aac0114b6e94f000000006a47304402200c67366f9d80fe3aaf746c24429c9e97b8eda0c8d418386d22b0333baf66894e02206b4cf045d299361e86906b0affda489247e98102946266e22d00ce4a572888b001210271fb90152f803146e8b184a95bc7468926b6d193d3de0350781d629af3fdcff3ffffffffa43277a769b98cf111000397b11b845340a3cfa18f4d0419b0248d64ec5eba64000000006b48304502210092c63222a4402a03c136cc87a91819f233fc05e4c79c34200df7c4992870bd7702201f85681f5b515fd0d6f6737ad0922b4ca993e73805bdfa5d12671d4d92374e4601210271fb90152f803146e8b184a95bc7468926b6d193d3de0350781d629af3fdcff3ffffffffa8ab0f47e28777803601faa695799ee8213b1c7f9c558b92e793d98f38088c0d000000006b4830450221008d1dbaa80e5aa432398100942a3fd4641d42bf21600fa145f01cb03025712a7f0220215f98d8fddf14cd580b483bbd11c91528a85a6b455d47a13f923cefa88dd36101210271fb90152f803146e8b184a95bc7468926b6d193d3de0350781d629af3fdcff3ffffffff0135721b00000000001976a914f4b6131d64f083d4e4aeb48f174a8535f743333a88ac00000000", "vin": [{"sequence": 4294967295, "scriptSig": {"hex": "473044022067ba0e07b8f29a667fd57db9855c3a6454e40a496813aa03b9a8a4e37003628f02207b96aa2b785d170d8244127cebe64d5b7260d8e5d20827e45580cb2bd0673aea01210271fb90152f803146e8b184a95bc7468926b6d193d3de0350781d629af3fdcff3", "asm": "3044022067ba0e07b8f29a667fd57db9855c3a6454e40a496813aa03b9a8a4e37003628f02207b96aa2b785d170d8244127cebe64d5b7260d8e5d20827e45580cb2bd0673aea[ALL] 0271fb90152f803146e8b184a95bc7468926b6d193d3de0350781d629af3fdcff3"}, "vout": 0, "txid": "0240ae994f853341ca3e56088dc94026e0db7ff08db6d8cfa57909f5176a5bcd"}, {"sequence": 4294967295, "scriptSig": {"hex": "47304402200def275ba731091dc60a7a8dad9617a2b01d5f8f3941caa49d719bbe57f9d46d022044ceb97ab10a6976848e925d2844645172f359185e417a86ebb710ac0b08035801210271fb90152f803146e8b184a95bc7468926b6d193d3de0350781d629af3fdcff3", "asm": "304402200def275ba731091dc60a7a8dad9617a2b01d5f8f3941caa49d719bbe57f9d46d022044ceb97ab10a6976848e925d2844645172f359185e417a86ebb710ac0b080358[ALL] 0271fb90152f803146e8b184a95bc7468926b6d193d3de0350781d629af3fdcff3"}, "vout": 0, "txid": "3d89337398097b8c44f0003702bcf43f36a472ea3e2c5f1f222e00ed4ab11a7b"}, {"sequence": 4294967295, "scriptSig": {"hex": "483045022100f654085bc5ecbdfb73650f2df17fff938930e51f25a8642fa92cafe522dca11202201d62a229a7ed05ec74852549ea834e613a0d76fed750dff123bc424a6ff90ab901210271fb90152f803146e8b184a95bc7468926b6d193d3de0350781d629af3fdcff3", "asm": "3045022100f654085bc5ecbdfb73650f2df17fff938930e51f25a8642fa92cafe522dca11202201d62a229a7ed05ec74852549ea834e613a0d76fed750dff123bc424a6ff90ab9[ALL] 0271fb90152f803146e8b184a95bc7468926b6d193d3de0350781d629af3fdcff3"}, "vout": 0, "txid": "2d4044cbe9e128b8566675cec97ebaa3ec7cf702a6a30cc6672cd3c7eeb30a0b"}, {"sequence": 4294967295, "scriptSig": {"hex": "47304402200c67366f9d80fe3aaf746c24429c9e97b8eda0c8d418386d22b0333baf66894e02206b4cf045d299361e86906b0affda489247e98102946266e22d00ce4a572888b001210271fb90152f803146e8b184a95bc7468926b6d193d3de0350781d629af3fdcff3", "asm": "304402200c67366f9d80fe3aaf746c24429c9e97b8eda0c8d418386d22b0333baf66894e02206b4cf045d299361e86906b0affda489247e98102946266e22d00ce4a572888b0[ALL] 0271fb90152f803146e8b184a95bc7468926b6d193d3de0350781d629af3fdcff3"}, "vout": 0, "txid": "4fe9b61401ac2a98e04cff45314eb4b66efeeec4b97ffe83068b60ebcccf0842"}, {"sequence": 4294967295, "scriptSig": {"hex": "48304502210092c63222a4402a03c136cc87a91819f233fc05e4c79c34200df7c4992870bd7702201f85681f5b515fd0d6f6737ad0922b4ca993e73805bdfa5d12671d4d92374e4601210271fb90152f803146e8b184a95bc7468926b6d193d3de0350781d629af3fdcff3", "asm": "304502210092c63222a4402a03c136cc87a91819f233fc05e4c79c34200df7c4992870bd7702201f85681f5b515fd0d6f6737ad0922b4ca993e73805bdfa5d12671d4d92374e46[ALL] 0271fb90152f803146e8b184a95bc7468926b6d193d3de0350781d629af3fdcff3"}, "vout": 0, "txid": "64ba5eec648d24b019044d8fa1cfa34053841bb197030011f18cb969a77732a4"}, {"sequence": 4294967295, "scriptSig": {"hex": "4830450221008d1dbaa80e5aa432398100942a3fd4641d42bf21600fa145f01cb03025712a7f0220215f98d8fddf14cd580b483bbd11c91528a85a6b455d47a13f923cefa88dd36101210271fb90152f803146e8b184a95bc7468926b6d193d3de0350781d629af3fdcff3", "asm": "30450221008d1dbaa80e5aa432398100942a3fd4641d42bf21600fa145f01cb03025712a7f0220215f98d8fddf14cd580b483bbd11c91528a85a6b455d47a13f923cefa88dd361[ALL] 0271fb90152f803146e8b184a95bc7468926b6d193d3de0350781d629af3fdcff3"}, "vout": 0, "txid": "0d8c08388fd993e7928b559c7f1c3b21e89e7995a6fa0136807787e2470faba8"}], "txid": "e6e9b937f16a2e6470c7a90aecb8a46471e3f70d41420e04fc2eb7f4adbc1560", "blocktime": 1537875543, "version": 1, "confirmations": 11464, "time": 1537875543, "locktime": 0, "vsize": 929, "size": 929}