{"hash": "e6ee63c62c651924f0115ba96932aba07006cc251b92296bcd8340efeee84f16", "blockhash": "0000000000000000000dcc0f55137456b1a82d3642486a52398922ac4d620174", "vout": [{"scriptPubKey": {"reqSigs": 1, "hex": "76a914adeff8445d45b1fd8d37dee3217fd7579c82237388ac", "addresses": ["1GrhNaen5faa9K1xCrmQErNzXYMqyXq1hS"], "asm": "OP_DUP OP_HASH160 adeff8445d45b1fd8d37dee3217fd7579c822373 OP_EQUALVERIFY OP_CHECKSIG", "type": "pubkeyhash"}, "value": 0.00647794, "n": 0}, {"scriptPubKey": {"type": "nulldata", "hex": "6a4c50000077700001f1e0f3fd498128f625bc77ac86aeaeacb577c031fc3a016b46dc7dc7d096a94c0b9d4a75be2925b3093b19e1bfd95baa08d806139b5fe17228381d100759d4ba30d2c37bb011d97e02cf", "asm": "OP_RETURN 000077700001f1e0f3fd498128f625bc77ac86aeaeacb577c031fc3a016b46dc7dc7d096a94c0b9d4a75be2925b3093b19e1bfd95baa08d806139b5fe17228381d100759d4ba30d2c37bb011d97e02cf"}, "value": 0.0, "n": 1}], "hex": "0100000001ec776285980e3d95e588d0fa0a8cdf11d6618018be80cf0a49789193442e44c8000000006a47304402201923cc9fec259a0840e932f53bd4a52ca4fc0e88909d78335d7724b3eda7adf5022023309c7d576bf0bf5b94f2c54806b10a4cda9bb36174e7c97da29c2460cc00ea0121033e5740d3ebae9141af2fbb4ce2a25e031b87949aa37f4ad346481b332e70e269ffffffff0272e20900000000001976a914adeff8445d45b1fd8d37dee3217fd7579c82237388ac0000000000000000536a4c50000077700001f1e0f3fd498128f625bc77ac86aeaeacb577c031fc3a016b46dc7dc7d096a94c0b9d4a75be2925b3093b19e1bfd95baa08d806139b5fe17228381d100759d4ba30d2c37bb011d97e02cf00000000", "vin": [{"sequence": 4294967295, "scriptSig": {"hex": "47304402201923cc9fec259a0840e932f53bd4a52ca4fc0e88909d78335d7724b3eda7adf5022023309c7d576bf0bf5b94f2c54806b10a4cda9bb36174e7c97da29c2460cc00ea0121033e5740d3ebae9141af2fbb4ce2a25e031b87949aa37f4ad346481b332e70e269", "asm": "304402201923cc9fec259a0840e932f53bd4a52ca4fc0e88909d78335d7724b3eda7adf5022023309c7d576bf0bf5b94f2c54806b10a4cda9bb36174e7c97da29c2460cc00ea[ALL] 033e5740d3ebae9141af2fbb4ce2a25e031b87949aa37f4ad346481b332e70e269"}, "vout": 0, "txid": "c8442e44939178490acf80be188061d611df8c0afad088e5953d0e98856277ec"}], "txid": "e6ee63c62c651924f0115ba96932aba07006cc251b92296bcd8340efeee84f16", "blocktime": 1537870268, "version": 1, "confirmations": 11518, "time": 1537870268, "locktime": 0, "vsize": 283, "size": 283}