{"hash": "4833d09d2b42891dc57a9bf8399efd493aef7f09c089c5c0a0906814890d74d0", "blockhash": "00000000000000000024a2167bbff67b0be802c0b01cdd79e6331c2be6459f87", "vout": [{"scriptPubKey": {"reqSigs": 1, "hex": "a9148e495c3ba46f17154c716e4f02bc15aab7e5371587", "addresses": ["3EfMkwoPEGaW6eSUjvXb9YY9Ww3zMCzKTp"], "asm": "OP_HASH160 8e495c3ba46f17154c716e4f02bc15aab7e53715 OP_EQUAL", "type": "scripthash"}, "value": 0.01492661, "n": 0}, {"scriptPubKey": {"reqSigs": 1, "hex": "a9146765e8592cdc5de041270f39bc48a470825b9f5687", "addresses": ["3B7jby3xBn1UKtQLdai4AGYViNpahDcQyn"], "asm": "OP_HASH160 6765e8592cdc5de041270f39bc48a470825b9f56 OP_EQUAL", "type": "scripthash"}, "value": 0.03762862, "n": 1}], "hex": "01000000000101047acc517a3091d20f4b2706ac4f2eae521bfc13a300248db01162009034a6120100000023220020cc9b47bfbc943791abb795de46270d618445b4a4fec7d71de85fb5ef0ed308bdffffffff02b5c616000000000017a9148e495c3ba46f17154c716e4f02bc15aab7e5371587ae6a39000000000017a9146765e8592cdc5de041270f39bc48a470825b9f568704004830450221008d25e72b06099757961523119a300ec242da95838ed4553f11dcd84001ff77d602206fe81619e7a7d9fc7d4dfb608e44deade7b568d2903e76e4432527a57505f83201473044022050c274dcfa88d72ed9f2fd782878f060f7c0fb8643b7c18ae48928fd7025fa2702204cd48ac84650c699bc5927898f8b8279a57a29d22cd0f54dd7c413d551c2e8820147522102dd24bc8e28d9ecbe2691f6e682dd94dc40284d627d31b7d55a6c3a1c2960cd5c21038407424ead2b88063db2d589e50c34e1572f6b82eb9e266dec536939ee0db9eb52ae00000000", "vin": [{"txinwitness": ["", "30450221008d25e72b06099757961523119a300ec242da95838ed4553f11dcd84001ff77d602206fe81619e7a7d9fc7d4dfb608e44deade7b568d2903e76e4432527a57505f83201", "3044022050c274dcfa88d72ed9f2fd782878f060f7c0fb8643b7c18ae48928fd7025fa2702204cd48ac84650c699bc5927898f8b8279a57a29d22cd0f54dd7c413d551c2e88201", "522102dd24bc8e28d9ecbe2691f6e682dd94dc40284d627d31b7d55a6c3a1c2960cd5c21038407424ead2b88063db2d589e50c34e1572f6b82eb9e266dec536939ee0db9eb52ae"], "sequence": 4294967295, "scriptSig": {"hex": "220020cc9b47bfbc943791abb795de46270d618445b4a4fec7d71de85fb5ef0ed308bd", "asm": "0020cc9b47bfbc943791abb795de46270d618445b4a4fec7d71de85fb5ef0ed308bd"}, "vout": 1, "txid": "12a63490006211b08d2400a313fc1b52ae2e4fac06274b0fd291307a51cc7a04"}], "txid": "e6f0be6bd4ab88c4a43d353a73d0f9dce821bd994ceefdd8e560e169aa41f3b4", "blocktime": 1537870564, "version": 1, "confirmations": 11515, "time": 1537870564, "locktime": 0, "vsize": 206, "size": 371}