{"hash": "edbee45a6f794616db2db4183d27dd747b815dccac1b5f1c0fa0bd8e597323a0", "blockhash": "0000000000000000000dcc0f55137456b1a82d3642486a52398922ac4d620174", "vout": [{"scriptPubKey": {"reqSigs": 1, "hex": "76a914446db24d5d13c9963ba30c0ec2686d1f6fdba1a888ac", "addresses": ["17EpMteNhH9bK59yf4XeTVMdAxEgTdcvQk"], "asm": "OP_DUP OP_HASH160 446db24d5d13c9963ba30c0ec2686d1f6fdba1a8 OP_EQUALVERIFY OP_CHECKSIG", "type": "pubkeyhash"}, "value": 7.791e-05, "n": 0}, {"scriptPubKey": {"reqSigs": 1, "hex": "a914b07d95e4d13653d6f97fe16930914690da07c1f387", "addresses": ["3HnDJ98aapixYYCnb5NgU92MDhrMrgFCyX"], "asm": "OP_HASH160 b07d95e4d13653d6f97fe16930914690da07c1f3 OP_EQUAL", "type": "scripthash"}, "value": 0.0113661, "n": 1}], "hex": "020000000001015a8458fbdb1d26089f7ace38dfc7448f4569de98f4feacf34645fdec5c6bdb3e000000001716001406058254130097714adde3133b5ee63e8d3f04cffeffffff026f1e0000000000001976a914446db24d5d13c9963ba30c0ec2686d1f6fdba1a888ace25711000000000017a914b07d95e4d13653d6f97fe16930914690da07c1f3870247304402207069c8718dae11166a9175636e09f93fadf1b8c49b9dda5976caaf166eed189902207a9913fa41d818a6138fe72bc0e0833a7e334895ebf9c37fa9b424cdcd0663c00121031bb0606f984e684ab60b000223a671a9d20d61d24177389c220e1b92b816c3a00c490800", "vin": [{"txinwitness": ["304402207069c8718dae11166a9175636e09f93fadf1b8c49b9dda5976caaf166eed189902207a9913fa41d818a6138fe72bc0e0833a7e334895ebf9c37fa9b424cdcd0663c001", "031bb0606f984e684ab60b000223a671a9d20d61d24177389c220e1b92b816c3a0"], "sequence": 4294967294, "scriptSig": {"hex": "16001406058254130097714adde3133b5ee63e8d3f04cf", "asm": "001406058254130097714adde3133b5ee63e8d3f04cf"}, "vout": 0, "txid": "3edb6b5cecfd4546f3acfef498de69458f44c7df38ce7a9f08261ddbfb58845a"}], "txid": "e6f29fa2dc88d64bc512df4fdbb4291cc3582cedeed8bb5aa2569608a1e507b2", "blocktime": 1537870268, "version": 2, "confirmations": 11518, "time": 1537870268, "locktime": 542988, "vsize": 168, "size": 249}