{"hash": "e6f74a49192d74674af56d8662e6b99526f99e9dab29f1d53136f1c51ffa4b0a", "blockhash": "00000000000000000018f53835495a110e01622372bf6ae95dc86f2b0ab887b0", "vout": [{"scriptPubKey": {"reqSigs": 1, "hex": "76a91438a5a508458ee8554a42b247f66c92f027114d5488ac", "addresses": ["16AXGwEb9htgBVQS1Z8ge5dUy97gEca6xB"], "asm": "OP_DUP OP_HASH160 38a5a508458ee8554a42b247f66c92f027114d54 OP_EQUALVERIFY OP_CHECKSIG", "type": "pubkeyhash"}, "value": 0.01349322, "n": 0}, {"scriptPubKey": {"reqSigs": 1, "hex": "76a914599e535d8e62428405fa509b3baf6157825e1b4788ac", "addresses": ["19ArojSL2ND3n3Z3hVhmDqSiyR52e1GoHX"], "asm": "OP_DUP OP_HASH160 599e535d8e62428405fa509b3baf6157825e1b47 OP_EQUALVERIFY OP_CHECKSIG", "type": "pubkeyhash"}, "value": 0.0135, "n": 1}], "hex": "0100000001925d6fe91ed8e3a1e0a3a813f2a6bfd6c7d4fcd966112bfc6f2cee3c0d6a442c000000006a47304402201016568c3f64db304db8554a553c2ab5b46cbc550e82c9e4ea48c4e96022932902206d98110311f988ec315435999820ec57c0c4b3b2d3943f1332ef78ba22298fe00121036060723e2476baaa99bf4b74a2dea5815417812c6b44d0c1efbb1c53fd9fcaceffffffff02ca961400000000001976a91438a5a508458ee8554a42b247f66c92f027114d5488ac70991400000000001976a914599e535d8e62428405fa509b3baf6157825e1b4788ac00000000", "vin": [{"sequence": 4294967295, "scriptSig": {"hex": "47304402201016568c3f64db304db8554a553c2ab5b46cbc550e82c9e4ea48c4e96022932902206d98110311f988ec315435999820ec57c0c4b3b2d3943f1332ef78ba22298fe00121036060723e2476baaa99bf4b74a2dea5815417812c6b44d0c1efbb1c53fd9fcace", "asm": "304402201016568c3f64db304db8554a553c2ab5b46cbc550e82c9e4ea48c4e96022932902206d98110311f988ec315435999820ec57c0c4b3b2d3943f1332ef78ba22298fe0[ALL] 036060723e2476baaa99bf4b74a2dea5815417812c6b44d0c1efbb1c53fd9fcace"}, "vout": 0, "txid": "2c446a0d3cee2c6ffc2b1166d9fcd4c7d6bfa6f213a8a3e0a1e3d81ee96f5d92"}], "txid": "e6f74a49192d74674af56d8662e6b99526f99e9dab29f1d53136f1c51ffa4b0a", "blocktime": 1537870928, "version": 1, "confirmations": 11514, "time": 1537870928, "locktime": 0, "vsize": 225, "size": 225}