{"hash": "e7020e1910c1faa085d38c3b13a8d24b25f1108d09de1b3100423235967e1eb2", "blockhash": "0000000000000000001f76057863aec43deb6fa401d9628bb513d65a8098bfab", "vout": [{"scriptPubKey": {"type": "nulldata", "hex": "6a4c50000077dd0001df7f9b25c367783ad17e05127af8e8e963c7cfd5b95b23cc0f42c2fc38c574de08ad8eb88e5b1ec203ef39f6eff25baa161e06130a5f4f3406731d100759d4ba30d2c37bb011d97e02cf", "asm": "OP_RETURN 000077dd0001df7f9b25c367783ad17e05127af8e8e963c7cfd5b95b23cc0f42c2fc38c574de08ad8eb88e5b1ec203ef39f6eff25baa161e06130a5f4f3406731d100759d4ba30d2c37bb011d97e02cf"}, "value": 0.0, "n": 0}, {"scriptPubKey": {"reqSigs": 1, "hex": "76a9142afc7ad7fbb3452ddaaefa97aedb5abb96947d3288ac", "addresses": ["14vHqfZwSYSzDaoN4T24WPgNKyu2vh525t"], "asm": "OP_DUP OP_HASH160 2afc7ad7fbb3452ddaaefa97aedb5abb96947d32 OP_EQUALVERIFY OP_CHECKSIG", "type": "pubkeyhash"}, "value": 0.00636375, "n": 1}], "hex": "0100000001d18eff5c9a3677df2bf840e01e3dfa3de14b3ffe7f56b1b0487bb752e3157ffb000000006b483045022100b712c82a327234612e7ce69c6ed2f448351c5188c29af72168510cf0088e786302202eac0816e0fc1c481ad63e7b01cd295fc93599abf1cafa440dc4d30f039b17e301210284684f1d32ca9f366785253d231a0ad2fa8341f89d09915d53f4c0c91a77ef31ffffffff020000000000000000536a4c50000077dd0001df7f9b25c367783ad17e05127af8e8e963c7cfd5b95b23cc0f42c2fc38c574de08ad8eb88e5b1ec203ef39f6eff25baa161e06130a5f4f3406731d100759d4ba30d2c37bb011d97e02cfd7b50900000000001976a9142afc7ad7fbb3452ddaaefa97aedb5abb96947d3288ac00000000", "vin": [{"sequence": 4294967295, "scriptSig": {"hex": "483045022100b712c82a327234612e7ce69c6ed2f448351c5188c29af72168510cf0088e786302202eac0816e0fc1c481ad63e7b01cd295fc93599abf1cafa440dc4d30f039b17e301210284684f1d32ca9f366785253d231a0ad2fa8341f89d09915d53f4c0c91a77ef31", "asm": "3045022100b712c82a327234612e7ce69c6ed2f448351c5188c29af72168510cf0088e786302202eac0816e0fc1c481ad63e7b01cd295fc93599abf1cafa440dc4d30f039b17e3[ALL] 0284684f1d32ca9f366785253d231a0ad2fa8341f89d09915d53f4c0c91a77ef31"}, "vout": 0, "txid": "fb7f15e352b77b48b0b1567ffe3f4be13dfa3d1ee040f82bdf77369a5cff8ed1"}], "txid": "e7020e1910c1faa085d38c3b13a8d24b25f1108d09de1b3100423235967e1eb2", "blocktime": 1537873891, "version": 1, "confirmations": 11478, "time": 1537873891, "locktime": 0, "vsize": 284, "size": 284}