{"hash": "e706bc995e4b7cbafc77661bfc26f121a2a01e18fe2bf0afc4b16aa8c664d7db", "blockhash": "0000000000000000001e0dab787dd257d1dbfcb92a98c2207d5e1078be1f4165", "vout": [{"scriptPubKey": {"reqSigs": 1, "hex": "76a914806719c168d7511956dcdf6380c9b659b81f4bdb88ac", "addresses": ["1Chw17PKpjaqdTqVHkEXDQqrdpWAw49eMX"], "asm": "OP_DUP OP_HASH160 806719c168d7511956dcdf6380c9b659b81f4bdb OP_EQUALVERIFY OP_CHECKSIG", "type": "pubkeyhash"}, "value": 0.00542842, "n": 0}, {"scriptPubKey": {"reqSigs": 1, "hex": "a914d2de7db4d92b82e32ca69bbf51ef55c8a72247a087", "addresses": ["3LuzMmzy2jrdymztFGjgxVEjzXqnTQvZih"], "asm": "OP_HASH160 d2de7db4d92b82e32ca69bbf51ef55c8a72247a0 OP_EQUAL", "type": "scripthash"}, "value": 0.00998012, "n": 1}], "hex": "02000000018cd3e4a72480de8b2095476c9071d0c5b759d6770469d3e5aa4b1ffc40c0c02c000000006a4730440220568623431314d9b8f0325f2c688cbff843ab90140902d2e5024ff5fd9892d0a4022022eb170816309b295fe22e131f01b0e5ce2ea4bd00156aa450a6ae91f632d51c01210221eb4b4970c1bf00b8d75d01c364a3fc57fc05632d8fb85d401a8509c5f07f46feffffff027a480800000000001976a914806719c168d7511956dcdf6380c9b659b81f4bdb88ac7c3a0f000000000017a914d2de7db4d92b82e32ca69bbf51ef55c8a72247a08712490800", "vin": [{"sequence": 4294967294, "scriptSig": {"hex": "4730440220568623431314d9b8f0325f2c688cbff843ab90140902d2e5024ff5fd9892d0a4022022eb170816309b295fe22e131f01b0e5ce2ea4bd00156aa450a6ae91f632d51c01210221eb4b4970c1bf00b8d75d01c364a3fc57fc05632d8fb85d401a8509c5f07f46", "asm": "30440220568623431314d9b8f0325f2c688cbff843ab90140902d2e5024ff5fd9892d0a4022022eb170816309b295fe22e131f01b0e5ce2ea4bd00156aa450a6ae91f632d51c[ALL] 0221eb4b4970c1bf00b8d75d01c364a3fc57fc05632d8fb85d401a8509c5f07f46"}, "vout": 0, "txid": "2cc0c040fc1f4baae5d3690477d659b7c5d071906c4795208bde8024a7e4d38c"}], "txid": "e706bc995e4b7cbafc77661bfc26f121a2a01e18fe2bf0afc4b16aa8c664d7db", "blocktime": 1537872475, "version": 2, "confirmations": 11486, "time": 1537872475, "locktime": 542994, "vsize": 223, "size": 223}