{"hash": "e709b7926e49f6164b343e4f253710bf23f5cd92f317bfe177e17f78d9a1606a", "blockhash": "0000000000000000000baef3f32e3676a92c3b2e5da21b426e4f302fc371ce76", "vout": [{"scriptPubKey": {"reqSigs": 1, "hex": "76a9145dad27d83bda00cc8d2c6d68d80cb0d7d3d70fb288ac", "addresses": ["19YKGuWDsmB8ibLkgCxENCokc1kMZZqNby"], "asm": "OP_DUP OP_HASH160 5dad27d83bda00cc8d2c6d68d80cb0d7d3d70fb2 OP_EQUALVERIFY OP_CHECKSIG", "type": "pubkeyhash"}, "value": 0.05, "n": 0}, {"scriptPubKey": {"reqSigs": 1, "hex": "76a914e6dc185ddf9206876ffdde516aec0704d3e2dc2288ac", "addresses": ["1N3g5bwMXNbozULDrtPY95xQSE3bMZiUPX"], "asm": "OP_DUP OP_HASH160 e6dc185ddf9206876ffdde516aec0704d3e2dc22 OP_EQUALVERIFY OP_CHECKSIG", "type": "pubkeyhash"}, "value": 0.25889193, "n": 1}], "hex": "0100000004be82e3e7ab019f329e4f84d41fffd0df312449134919d37d4d602efa57342045000000006a473044022076cbf94348b6067f6eaf7fa11058d0f21a4efd5f6c84ae1b8f037088f4ad482002204dc678e277697eaa7ab5a4a8e6d57877461797a582e9259e23ed7ba8465fe11e01210342af3a5531efcdbff978fe7570a14b70a4a4acd6193c115e8380f250a1be13f6ffffffff4fc0b6401966b4364d92ab184744cde94eb9d9fb8dedcec8ff95004634e451d2010000006b483045022100995a8a5b1175772269920d2ab825d0a2dd0e1ac0a7e534a4b9429225948207fc022041b211df862ff6d69066aa290bbb21bf75b89389211741a6c77aba1471aeab850121023d5ce734e79b4ada4ee8ac11087037471ffacc671531ebf232ef6071cb75ee5affffffff9e60a5448c926aeab4bc4f41859cdf5b295c8381820d2ec91456bb6aea798157010000006b4830450221009fde7e859b52511dc0247ae6bbcfc239768776cef97b9b714c3ba2819eae515802204f0b96f8e26fd7ac894998a423b66c7bba28f938456a61dfaea88cc840a7536b0121028b02e77b2a72fe2b14c3d1f57738ab559c7ea46255c65f23d78cd5b639ad334cffffffff46b0106d991eaf824cff9c278be8995b0817c7ac8d08488664793bdf8f2d8ef4010000006b483045022100e926f28cd74217860025043fc34fba15a1a7087f256ee6b216a3ef08e29c6226022064c96c94d2b712907a283bb285cdcd63a0bf10a6742a132a41e4309c47301ab70121033a1583f881b9d176f198b4c15d760db7e8daa14dd36565c110568f3cf7afe50fffffffff02404b4c00000000001976a9145dad27d83bda00cc8d2c6d68d80cb0d7d3d70fb288aca9098b01000000001976a914e6dc185ddf9206876ffdde516aec0704d3e2dc2288ac00000000", "vin": [{"sequence": 4294967295, "scriptSig": {"hex": "473044022076cbf94348b6067f6eaf7fa11058d0f21a4efd5f6c84ae1b8f037088f4ad482002204dc678e277697eaa7ab5a4a8e6d57877461797a582e9259e23ed7ba8465fe11e01210342af3a5531efcdbff978fe7570a14b70a4a4acd6193c115e8380f250a1be13f6", "asm": "3044022076cbf94348b6067f6eaf7fa11058d0f21a4efd5f6c84ae1b8f037088f4ad482002204dc678e277697eaa7ab5a4a8e6d57877461797a582e9259e23ed7ba8465fe11e[ALL] 0342af3a5531efcdbff978fe7570a14b70a4a4acd6193c115e8380f250a1be13f6"}, "vout": 0, "txid": "45203457fa2e604d7dd3194913492431dfd0ff1fd4844f9e329f01abe7e382be"}, {"sequence": 4294967295, "scriptSig": {"hex": "483045022100995a8a5b1175772269920d2ab825d0a2dd0e1ac0a7e534a4b9429225948207fc022041b211df862ff6d69066aa290bbb21bf75b89389211741a6c77aba1471aeab850121023d5ce734e79b4ada4ee8ac11087037471ffacc671531ebf232ef6071cb75ee5a", "asm": "3045022100995a8a5b1175772269920d2ab825d0a2dd0e1ac0a7e534a4b9429225948207fc022041b211df862ff6d69066aa290bbb21bf75b89389211741a6c77aba1471aeab85[ALL] 023d5ce734e79b4ada4ee8ac11087037471ffacc671531ebf232ef6071cb75ee5a"}, "vout": 1, "txid": "d251e434460095ffc8ceed8dfbd9b94ee9cd444718ab924d36b4661940b6c04f"}, {"sequence": 4294967295, "scriptSig": {"hex": "4830450221009fde7e859b52511dc0247ae6bbcfc239768776cef97b9b714c3ba2819eae515802204f0b96f8e26fd7ac894998a423b66c7bba28f938456a61dfaea88cc840a7536b0121028b02e77b2a72fe2b14c3d1f57738ab559c7ea46255c65f23d78cd5b639ad334c", "asm": "30450221009fde7e859b52511dc0247ae6bbcfc239768776cef97b9b714c3ba2819eae515802204f0b96f8e26fd7ac894998a423b66c7bba28f938456a61dfaea88cc840a7536b[ALL] 028b02e77b2a72fe2b14c3d1f57738ab559c7ea46255c65f23d78cd5b639ad334c"}, "vout": 1, "txid": "578179ea6abb5614c92e0d8281835c295bdf9c85414fbcb4ea6a928c44a5609e"}, {"sequence": 4294967295, "scriptSig": {"hex": "483045022100e926f28cd74217860025043fc34fba15a1a7087f256ee6b216a3ef08e29c6226022064c96c94d2b712907a283bb285cdcd63a0bf10a6742a132a41e4309c47301ab70121033a1583f881b9d176f198b4c15d760db7e8daa14dd36565c110568f3cf7afe50f", "asm": "3045022100e926f28cd74217860025043fc34fba15a1a7087f256ee6b216a3ef08e29c6226022064c96c94d2b712907a283bb285cdcd63a0bf10a6742a132a41e4309c47301ab7[ALL] 033a1583f881b9d176f198b4c15d760db7e8daa14dd36565c110568f3cf7afe50f"}, "vout": 1, "txid": "f48e2d8fdf3b79648648088dacc717085b99e88b279cff4c82af1e996d10b046"}], "txid": "e709b7926e49f6164b343e4f253710bf23f5cd92f317bfe177e17f78d9a1606a", "blocktime": 1537876114, "version": 1, "confirmations": 11460, "time": 1537876114, "locktime": 0, "vsize": 669, "size": 669}