{"hash": "e70b8b5a12114b9568ecb79f1e93097826b2a144b21a114676f97d35605e3c89", "blockhash": "0000000000000000001cda96e906b7601b7a6fb1a3b62bca570a9e5d8f4b3de1", "vout": [{"scriptPubKey": {"type": "nulldata", "hex": "6a4c50000077d100018db13301a1b9b350ec67fd425b23cc0f42c2fc38c5e5bf9ae76da98a211a3cc616770e89ddbb7fc9a7f4c6f763565baa14480613be1a3ec7129e4bbf23acfcfaac8058b692fe6808c31d", "asm": "OP_RETURN 000077d100018db13301a1b9b350ec67fd425b23cc0f42c2fc38c5e5bf9ae76da98a211a3cc616770e89ddbb7fc9a7f4c6f763565baa14480613be1a3ec7129e4bbf23acfcfaac8058b692fe6808c31d"}, "value": 0.0, "n": 0}, {"scriptPubKey": {"reqSigs": 1, "hex": "76a914c35ec18ed5ac0f2566e34eb548b2f2d2dc6d6f1588ac", "addresses": ["1Jp2HBALe2Eyd4L3ksW6gxt7sSbBUHoFaY"], "asm": "OP_DUP OP_HASH160 c35ec18ed5ac0f2566e34eb548b2f2d2dc6d6f15 OP_EQUALVERIFY OP_CHECKSIG", "type": "pubkeyhash"}, "value": 0.00011169, "n": 1}], "hex": "010000000132b557aeb6d8b0c3a33e099fdcb997fc23f4fb1b53b527fdca48be4a0298ca24010000006a473044022052a75c485d4c2cfb716bdf6b38470b5abaeede322c43aaa58156ab8cbf78d879022039f00a5a1191ab02752d41f37f0d5ab61a8f3841481ca0275a89bd9ebbb4da980121023501cc7f8c45fc76b27705075554a18ddb2f8b7b92492b72354de399799991fdffffffff020000000000000000536a4c50000077d100018db13301a1b9b350ec67fd425b23cc0f42c2fc38c5e5bf9ae76da98a211a3cc616770e89ddbb7fc9a7f4c6f763565baa14480613be1a3ec7129e4bbf23acfcfaac8058b692fe6808c31da12b0000000000001976a914c35ec18ed5ac0f2566e34eb548b2f2d2dc6d6f1588ac00000000", "vin": [{"sequence": 4294967295, "scriptSig": {"hex": "473044022052a75c485d4c2cfb716bdf6b38470b5abaeede322c43aaa58156ab8cbf78d879022039f00a5a1191ab02752d41f37f0d5ab61a8f3841481ca0275a89bd9ebbb4da980121023501cc7f8c45fc76b27705075554a18ddb2f8b7b92492b72354de399799991fd", "asm": "3044022052a75c485d4c2cfb716bdf6b38470b5abaeede322c43aaa58156ab8cbf78d879022039f00a5a1191ab02752d41f37f0d5ab61a8f3841481ca0275a89bd9ebbb4da98[ALL] 023501cc7f8c45fc76b27705075554a18ddb2f8b7b92492b72354de399799991fd"}, "vout": 1, "txid": "24ca98024abe48cafd27b5531bfbf423fc97b9dc9f093ea3c3b0d8b6ae57b532"}], "txid": "e70b8b5a12114b9568ecb79f1e93097826b2a144b21a114676f97d35605e3c89", "blocktime": 1537873282, "version": 1, "confirmations": 11484, "time": 1537873282, "locktime": 0, "vsize": 283, "size": 283}