{"hash": "e718a645461adae8060b229b8062ef5092038f41f8e263edcb0c4f9177740d13", "blockhash": "00000000000000000018f53835495a110e01622372bf6ae95dc86f2b0ab887b0", "vout": [{"scriptPubKey": {"reqSigs": 1, "hex": "76a91446d56b6fd44149b9fd17bb2896b56912ec57005388ac", "addresses": ["17TXy645N2iR3RnpWEQcnsFZHpJqvsRu2b"], "asm": "OP_DUP OP_HASH160 46d56b6fd44149b9fd17bb2896b56912ec570053 OP_EQUALVERIFY OP_CHECKSIG", "type": "pubkeyhash"}, "value": 9.16, "n": 0}, {"scriptPubKey": {"reqSigs": 1, "hex": "76a914cabe4d73bbd5e09592fa6c790e1171f4132fc44d88ac", "addresses": ["1KV1UCkK1EqYR4pLf4P7vTPEUq9MC6utLc"], "asm": "OP_DUP OP_HASH160 cabe4d73bbd5e09592fa6c790e1171f4132fc44d OP_EQUALVERIFY OP_CHECKSIG", "type": "pubkeyhash"}, "value": 9.53995254, "n": 1}], "hex": "01000000019d04fd36cdd6b69b58ee4c1cd668e1633e56043588305564fb280b4a72a9df98010000006a4730440220562820ac7b7cdfcdc8c6c33781a1655bb494a6f8073b5595053b42201145378702206c7f08305cfcfb7c2599f3076b105cb0185c5317c92e787490b1f55eaf4e1eb0012103a75b88c96b1e21d29cf77db0d961f82c4f066a2b3af365912f82ab86f291f3d8ffffffff02000d9936000000001976a91446d56b6fd44149b9fd17bb2896b56912ec57005388acf6cfdc38000000001976a914cabe4d73bbd5e09592fa6c790e1171f4132fc44d88ac00000000", "vin": [{"sequence": 4294967295, "scriptSig": {"hex": "4730440220562820ac7b7cdfcdc8c6c33781a1655bb494a6f8073b5595053b42201145378702206c7f08305cfcfb7c2599f3076b105cb0185c5317c92e787490b1f55eaf4e1eb0012103a75b88c96b1e21d29cf77db0d961f82c4f066a2b3af365912f82ab86f291f3d8", "asm": "30440220562820ac7b7cdfcdc8c6c33781a1655bb494a6f8073b5595053b42201145378702206c7f08305cfcfb7c2599f3076b105cb0185c5317c92e787490b1f55eaf4e1eb0[ALL] 03a75b88c96b1e21d29cf77db0d961f82c4f066a2b3af365912f82ab86f291f3d8"}, "vout": 1, "txid": "98dfa9724a0b28fb645530883504563e63e168d61c4cee589bb6d6cd36fd049d"}], "txid": "e718a645461adae8060b229b8062ef5092038f41f8e263edcb0c4f9177740d13", "blocktime": 1537870928, "version": 1, "confirmations": 11512, "time": 1537870928, "locktime": 0, "vsize": 225, "size": 225}