{"hash": "e71df2b29b392bb2971a2a19bb462b774e734a66836dfab3965e845cda6cbf96", "blockhash": "0000000000000000001cda96e906b7601b7a6fb1a3b62bca570a9e5d8f4b3de1", "vout": [{"scriptPubKey": {"reqSigs": 1, "hex": "76a914482f4d7d00b2d0ff3d6c1d7a7f8ae30138056c4f88ac", "addresses": ["17agKThAcmmgMLGG1tRdnbUsvcETfb1d8A"], "asm": "OP_DUP OP_HASH160 482f4d7d00b2d0ff3d6c1d7a7f8ae30138056c4f OP_EQUALVERIFY OP_CHECKSIG", "type": "pubkeyhash"}, "value": 0.00746866, "n": 0}, {"scriptPubKey": {"reqSigs": 1, "hex": "a914ad8db087ecf9cc5f1758c65db7a434ac9f5db81c87", "addresses": ["3HWgZVe8VUxY15tBV5KyBtXxyYpdwdeE3Z"], "asm": "OP_HASH160 ad8db087ecf9cc5f1758c65db7a434ac9f5db81c OP_EQUAL", "type": "scripthash"}, "value": 0.75835056, "n": 1}], "hex": "02000000087f803f7e022f5381cb54a48f56fb174bb943e9639b68b1fe02838007b741ee9ea20100006a473044022064fe6363a305852f373a0f15f4ea29ebcb99e33ad08e5ff3da1178ce8720aa7b022012a8bfb1ec49216797e78e4843632df46e1673ef1799f62004f0028f5cc45a61012102754e3fbff3b9651e9df3345a24eb6d8711644d7c4cf550400a598a0ddf22d55cfeffffff7f803f7e022f5381cb54a48f56fb174bb943e9639b68b1fe02838007b741ee9e1b0200006b483045022100bbfa7eb9ae62b92b3f72fd91486d2eea933f2bfc3ed69ae6cb22911857ef04b80220740b6305cf62eef1ec4fa384f2017b2242cb3e49c7605bf5275a03ffd0457064012102e6cd1608a55a5b856a3f5a7009322f2355ceb88c619f59f9792c9843d417efe3feffffffaa6cfd500c45c6feb9733c28d1e2b16d9b8ba133c3865be1189a467fdecb31c1010000006a4730440220727fd6a1f24335bf2d7591e54a070a27324e67747b18bde26c6085e17df76f8e02207497b44371bb3e51f64df04c8acfa050e9cbfd6a0fb88c386535ec078431a279012102b5f36ef4a32d0e712faf730333dfa65f628a6ad8ef122dbd8210e4d1641bb819feffffff18709baf2819664cee51aa0b6f814dde4cbba8d5c9f2a0a4465f6872b51b2ba5010000006a47304402202e60ef2a4d74470207a0e582ac2fbb84759a50f591df0e68183cdc2f52d7ada2022062f286b334b8a59566935d470678e96a4992033cdad87ca8de5014e6f4ab01c1012102ab41ff5bb5aa0d954d3701a52abe45e73290916c801dd93a1d06f9a4544b2fe0feffffff20554915cba852717c54beab6b5ae17fbf98fe20b657c3f72ac3018dd70d19c7000000006a473044022027d3a3e847179c21bc2ed6a7e5625421eeab2fa809c7ca3aa6f113c65a7e407c022036b1c06c08c7bfafc8a0cd7ab93fb1b8f85c8163ccbeb40e20afe42c84aed2360121031e5d5f93dacfff110705f48c00a7a36db922ffbd77b289f30588b497044bd7b9feffffff5c6af286e8a77870b69beaf035d2c7fbd483164a4b32bf0009a3126d08d42f35000000006b483045022100c944a9ac389f83e1808e4b9b9e8cf65a4b66342c8b197c7bebf31abc34bfccf00220785eb65393f0887c1ee5e17aebe98bab9c52f49deefee18beb80fadaec50d72b012103107f7d14f13675ea4000636f7e6cf064d0f3c368132faf6ca4c7a7e497576f40feffffff5030d7c17aad3db48a4aaec2f93c49fbbcacbc0a12299e0d06d448205efc699d110000006b483045022100eed0c96b2464b8054a16bc92dcec5999c220c4196f7e0a8ba755d2aa03d6ecf7022018d694214906b152813017844aced65f42841783b908d31e4fc29393cd68d57001210317f1c4e20a8c84f0100640529c542282d3520e137bb795af457d701b5da57372feffffff2ffca41c9c3bfce1c238103b3bbffbf60932f9421c8bdc3247895ddbc872f4d0010000006b483045022100b8b07da927c5be93fb593666b6292d8f9f6e08e7cae711d4efd1609a47c9450802206b782d7df16e23d3b2433f1222f215f0551ae9b6a99c2a07cf77f5fdb4db1816012102d1d8b3b036b136298882f4d75a1b006d494b804822034a912bd2fd600b1768e3feffffff0272650b00000000001976a914482f4d7d00b2d0ff3d6c1d7a7f8ae30138056c4f88acb02685040000000017a914ad8db087ecf9cc5f1758c65db7a434ac9f5db81c8713490800", "vin": [{"sequence": 4294967294, "scriptSig": {"hex": "473044022064fe6363a305852f373a0f15f4ea29ebcb99e33ad08e5ff3da1178ce8720aa7b022012a8bfb1ec49216797e78e4843632df46e1673ef1799f62004f0028f5cc45a61012102754e3fbff3b9651e9df3345a24eb6d8711644d7c4cf550400a598a0ddf22d55c", "asm": "3044022064fe6363a305852f373a0f15f4ea29ebcb99e33ad08e5ff3da1178ce8720aa7b022012a8bfb1ec49216797e78e4843632df46e1673ef1799f62004f0028f5cc45a61[ALL] 02754e3fbff3b9651e9df3345a24eb6d8711644d7c4cf550400a598a0ddf22d55c"}, "vout": 418, "txid": "9eee41b707808302feb1689b63e943b94b17fb568fa454cb81532f027e3f807f"}, {"sequence": 4294967294, "scriptSig": {"hex": "483045022100bbfa7eb9ae62b92b3f72fd91486d2eea933f2bfc3ed69ae6cb22911857ef04b80220740b6305cf62eef1ec4fa384f2017b2242cb3e49c7605bf5275a03ffd0457064012102e6cd1608a55a5b856a3f5a7009322f2355ceb88c619f59f9792c9843d417efe3", "asm": "3045022100bbfa7eb9ae62b92b3f72fd91486d2eea933f2bfc3ed69ae6cb22911857ef04b80220740b6305cf62eef1ec4fa384f2017b2242cb3e49c7605bf5275a03ffd0457064[ALL] 02e6cd1608a55a5b856a3f5a7009322f2355ceb88c619f59f9792c9843d417efe3"}, "vout": 539, "txid": "9eee41b707808302feb1689b63e943b94b17fb568fa454cb81532f027e3f807f"}, {"sequence": 4294967294, "scriptSig": {"hex": "4730440220727fd6a1f24335bf2d7591e54a070a27324e67747b18bde26c6085e17df76f8e02207497b44371bb3e51f64df04c8acfa050e9cbfd6a0fb88c386535ec078431a279012102b5f36ef4a32d0e712faf730333dfa65f628a6ad8ef122dbd8210e4d1641bb819", "asm": "30440220727fd6a1f24335bf2d7591e54a070a27324e67747b18bde26c6085e17df76f8e02207497b44371bb3e51f64df04c8acfa050e9cbfd6a0fb88c386535ec078431a279[ALL] 02b5f36ef4a32d0e712faf730333dfa65f628a6ad8ef122dbd8210e4d1641bb819"}, "vout": 1, "txid": "c131cbde7f469a18e15b86c333a18b9b6db1e2d1283c73b9fec6450c50fd6caa"}, {"sequence": 4294967294, "scriptSig": {"hex": "47304402202e60ef2a4d74470207a0e582ac2fbb84759a50f591df0e68183cdc2f52d7ada2022062f286b334b8a59566935d470678e96a4992033cdad87ca8de5014e6f4ab01c1012102ab41ff5bb5aa0d954d3701a52abe45e73290916c801dd93a1d06f9a4544b2fe0", "asm": "304402202e60ef2a4d74470207a0e582ac2fbb84759a50f591df0e68183cdc2f52d7ada2022062f286b334b8a59566935d470678e96a4992033cdad87ca8de5014e6f4ab01c1[ALL] 02ab41ff5bb5aa0d954d3701a52abe45e73290916c801dd93a1d06f9a4544b2fe0"}, "vout": 1, "txid": "a52b1bb572685f46a4a0f2c9d5a8bb4cde4d816f0baa51ee4c661928af9b7018"}, {"sequence": 4294967294, "scriptSig": {"hex": "473044022027d3a3e847179c21bc2ed6a7e5625421eeab2fa809c7ca3aa6f113c65a7e407c022036b1c06c08c7bfafc8a0cd7ab93fb1b8f85c8163ccbeb40e20afe42c84aed2360121031e5d5f93dacfff110705f48c00a7a36db922ffbd77b289f30588b497044bd7b9", "asm": "3044022027d3a3e847179c21bc2ed6a7e5625421eeab2fa809c7ca3aa6f113c65a7e407c022036b1c06c08c7bfafc8a0cd7ab93fb1b8f85c8163ccbeb40e20afe42c84aed236[ALL] 031e5d5f93dacfff110705f48c00a7a36db922ffbd77b289f30588b497044bd7b9"}, "vout": 0, "txid": "c7190dd78d01c32af7c357b620fe98bf7fe15a6babbe547c7152a8cb15495520"}, {"sequence": 4294967294, "scriptSig": {"hex": "483045022100c944a9ac389f83e1808e4b9b9e8cf65a4b66342c8b197c7bebf31abc34bfccf00220785eb65393f0887c1ee5e17aebe98bab9c52f49deefee18beb80fadaec50d72b012103107f7d14f13675ea4000636f7e6cf064d0f3c368132faf6ca4c7a7e497576f40", "asm": "3045022100c944a9ac389f83e1808e4b9b9e8cf65a4b66342c8b197c7bebf31abc34bfccf00220785eb65393f0887c1ee5e17aebe98bab9c52f49deefee18beb80fadaec50d72b[ALL] 03107f7d14f13675ea4000636f7e6cf064d0f3c368132faf6ca4c7a7e497576f40"}, "vout": 0, "txid": "352fd4086d12a30900bf324b4a1683d4fbc7d235f0ea9bb67078a7e886f26a5c"}, {"sequence": 4294967294, "scriptSig": {"hex": "483045022100eed0c96b2464b8054a16bc92dcec5999c220c4196f7e0a8ba755d2aa03d6ecf7022018d694214906b152813017844aced65f42841783b908d31e4fc29393cd68d57001210317f1c4e20a8c84f0100640529c542282d3520e137bb795af457d701b5da57372", "asm": "3045022100eed0c96b2464b8054a16bc92dcec5999c220c4196f7e0a8ba755d2aa03d6ecf7022018d694214906b152813017844aced65f42841783b908d31e4fc29393cd68d570[ALL] 0317f1c4e20a8c84f0100640529c542282d3520e137bb795af457d701b5da57372"}, "vout": 17, "txid": "9d69fc5e2048d4060d9e29120abcacbcfb493cf9c2ae4a8ab43dad7ac1d73050"}, {"sequence": 4294967294, "scriptSig": {"hex": "483045022100b8b07da927c5be93fb593666b6292d8f9f6e08e7cae711d4efd1609a47c9450802206b782d7df16e23d3b2433f1222f215f0551ae9b6a99c2a07cf77f5fdb4db1816012102d1d8b3b036b136298882f4d75a1b006d494b804822034a912bd2fd600b1768e3", "asm": "3045022100b8b07da927c5be93fb593666b6292d8f9f6e08e7cae711d4efd1609a47c9450802206b782d7df16e23d3b2433f1222f215f0551ae9b6a99c2a07cf77f5fdb4db1816[ALL] 02d1d8b3b036b136298882f4d75a1b006d494b804822034a912bd2fd600b1768e3"}, "vout": 1, "txid": "d0f472c8db5d894732dc8b1c42f93209f6fbbf3b3b1038c2e1fc3b9c1ca4fc2f"}], "txid": "e71df2b29b392bb2971a2a19bb462b774e734a66836dfab3965e845cda6cbf96", "blocktime": 1537873282, "version": 2, "confirmations": 11480, "time": 1537873282, "locktime": 542995, "vsize": 1256, "size": 1256}