{"hash": "e727ac0d171fb3aae95168d5f1cae50fc03c75c87976aa2d97adbdc025857ce5", "blockhash": "0000000000000000001cda96e906b7601b7a6fb1a3b62bca570a9e5d8f4b3de1", "vout": [{"scriptPubKey": {"reqSigs": 1, "hex": "76a9146f3687d4d5cc1993979ea484eddd28e301dfc29088ac", "addresses": ["1B93L9R5EGGd8YSCgUjnKSmF55nkvxUqNj"], "asm": "OP_DUP OP_HASH160 6f3687d4d5cc1993979ea484eddd28e301dfc290 OP_EQUALVERIFY OP_CHECKSIG", "type": "pubkeyhash"}, "value": 0.0155, "n": 0}, {"scriptPubKey": {"reqSigs": 1, "hex": "76a914225d5d66e4a17c5f86d1c6d5744d45ce8036983f88ac", "addresses": ["148hpdJHRfWktf1Ab8PCoGnY7E6phUe7Ae"], "asm": "OP_DUP OP_HASH160 225d5d66e4a17c5f86d1c6d5744d45ce8036983f OP_EQUALVERIFY OP_CHECKSIG", "type": "pubkeyhash"}, "value": 0.02, "n": 1}, {"scriptPubKey": {"reqSigs": 1, "hex": "a9144446bc4acecbb66d21d39ddcf8783dbec0ef196687", "addresses": ["37v2cNt5VRdmJ6D7Hfmtkuo4BbtspT9fXV"], "asm": "OP_HASH160 4446bc4acecbb66d21d39ddcf8783dbec0ef1966 OP_EQUAL", "type": "scripthash"}, "value": 0.04297801, "n": 2}, {"scriptPubKey": {"reqSigs": 1, "hex": "76a91443849383122ebb8a28268a89700c9f723663b5b888ac", "addresses": ["17A16QmavnUfCW11DAApiJxp7ARnxN5pGX"], "asm": "OP_DUP OP_HASH160 43849383122ebb8a28268a89700c9f723663b5b8 OP_EQUALVERIFY OP_CHECKSIG", "type": "pubkeyhash"}, "value": 132.58959071, "n": 3}], "hex": "020000000125e9f897dc5c4e3e2910941759b0e99c07e793666d102acce35a1feebc29b45d030000008b483045022100bf074d255c18c7c73bf022c92b41af1d1e7417af496f8b1fc11098da139caf6802207d0bd4665c284f8a6ecf613041e249d2f1bf7540a43716180e94c17e63fae83d0141047146f0e0fcb3139947cf0beb870fe251930ca10d4545793d31033e801b5219abf56c11a3cf3406ca590e4c14b0dab749d20862b3adc4709153c280c2a78be10cffffffff04b0a61700000000001976a9146f3687d4d5cc1993979ea484eddd28e301dfc29088ac80841e00000000001976a914225d5d66e4a17c5f86d1c6d5744d45ce8036983f88ac499441000000000017a9144446bc4acecbb66d21d39ddcf8783dbec0ef196687dfa84b16030000001976a91443849383122ebb8a28268a89700c9f723663b5b888ac00000000", "vin": [{"sequence": 4294967295, "scriptSig": {"hex": "483045022100bf074d255c18c7c73bf022c92b41af1d1e7417af496f8b1fc11098da139caf6802207d0bd4665c284f8a6ecf613041e249d2f1bf7540a43716180e94c17e63fae83d0141047146f0e0fcb3139947cf0beb870fe251930ca10d4545793d31033e801b5219abf56c11a3cf3406ca590e4c14b0dab749d20862b3adc4709153c280c2a78be10c", "asm": "3045022100bf074d255c18c7c73bf022c92b41af1d1e7417af496f8b1fc11098da139caf6802207d0bd4665c284f8a6ecf613041e249d2f1bf7540a43716180e94c17e63fae83d[ALL] 047146f0e0fcb3139947cf0beb870fe251930ca10d4545793d31033e801b5219abf56c11a3cf3406ca590e4c14b0dab749d20862b3adc4709153c280c2a78be10c"}, "vout": 3, "txid": "5db429bcee1f5ae3cc2a106d6693e7079ce9b059179410293e4e5cdc97f8e925"}], "txid": "e727ac0d171fb3aae95168d5f1cae50fc03c75c87976aa2d97adbdc025857ce5", "blocktime": 1537873282, "version": 2, "confirmations": 11480, "time": 1537873282, "locktime": 0, "vsize": 324, "size": 324}