{"hash": "a611e48eb531851fa1d1b02e6e6d947e5edc007255efaf0d8c5d567b50ecb164", "blockhash": "00000000000000000024a2167bbff67b0be802c0b01cdd79e6331c2be6459f87", "vout": [{"scriptPubKey": {"reqSigs": 1, "hex": "76a9148679440b19b8804458163cbd9c083f13b35a232288ac", "addresses": ["1DG2pQDtMNDrQgtpkqwNYfPeNoy4WYGPGa"], "asm": "OP_DUP OP_HASH160 8679440b19b8804458163cbd9c083f13b35a2322 OP_EQUALVERIFY OP_CHECKSIG", "type": "pubkeyhash"}, "value": 0.03382029, "n": 0}, {"scriptPubKey": {"reqSigs": 1, "hex": "a9143d1478edd32c693a92c816f6800a7cc990f21c4687", "addresses": ["37Fyfh3ZgvFqFSPVUCjb8krMVEmeTyPA5d"], "asm": "OP_HASH160 3d1478edd32c693a92c816f6800a7cc990f21c46 OP_EQUAL", "type": "scripthash"}, "value": 0.68808448, "n": 1}, {"scriptPubKey": {"reqSigs": 1, "hex": "76a914321ac85289a785134ecf31ef9404d66379afd2bf88ac", "addresses": ["15ZvsURqLA3vWjRXz5181bJ2ygJ9n5v2aa"], "asm": "OP_DUP OP_HASH160 321ac85289a785134ecf31ef9404d66379afd2bf OP_EQUALVERIFY OP_CHECKSIG", "type": "pubkeyhash"}, "value": 0.0152429, "n": 2}], "hex": "020000000001040620e4d3fce21ae1bc7e39861669b2a0336565fd508803c6a3658cef1eadc235030000006a47304402207f315e8ffc06c5456e4aea52118b86881054995a01d27138b98622bff33d4b8102203f8191f7feb9b12cc216def321032f10850b17d91f9e9ae7add586c25e9d54e6012102e39b107261038294a270ad6b230ae08f7852d8fbf2e7e5622eb0c91201c1a20cfeffffff158fc66702228ba1a9f7576ffe4c25e455065ce7def1e5335fa61e4003040ea4000000006b483045022100f25e02e9a038033f4e8fa3d6765f1e9ba57b258e780d021eba376814a52f9cd902206ecfd2214381494004ab7782b2cc435f6682595250e540b930e82536ad772261012102394f47da99ecd91d13084c45c5d399305b070cc11c32b6a285239933571837adfeffffff6f44c39ce8261370d394050f417cd8dfa34bf1c36a7f4c86d17d4592d8e8625c010000006b48304502210097566285555d109f20db5285a07d10639747ae8e3a33a7670996099d1c22d2910220498e5234922887fc7fa5410bc4a66fb68386d9c8c8fc15694e88c66fb71bd3d10121028c615190abf9b498af1328b1a7dca1fd4f2dc15d185af276d96d2b21b2580e2afeffffffa263d061584fcbe7ec74f3d0a2a1f73dc87be8d04abff09d50545f1b5c3c916f010000001716001430f710f83acab620c55447645fc18de6f069b73dfeffffff030d9b3300000000001976a9148679440b19b8804458163cbd9c083f13b35a232288ac00ef19040000000017a9143d1478edd32c693a92c816f6800a7cc990f21c468742421700000000001976a914321ac85289a785134ecf31ef9404d66379afd2bf88ac000000024730440220261d24a9869cc210329f4d5a3aa5c4bc9b35179acc470a747ca85ac9e41b403002206b2d5d55f0af3284807e6577bf85945aa9f7d11564d424660b54ea322d8498630121030c3eec02d3dbd3e91ce283dbb794ba79515b7555c2a02a9f2731f880841e0c640d490800", "vin": [{"sequence": 4294967294, "scriptSig": {"hex": "47304402207f315e8ffc06c5456e4aea52118b86881054995a01d27138b98622bff33d4b8102203f8191f7feb9b12cc216def321032f10850b17d91f9e9ae7add586c25e9d54e6012102e39b107261038294a270ad6b230ae08f7852d8fbf2e7e5622eb0c91201c1a20c", "asm": "304402207f315e8ffc06c5456e4aea52118b86881054995a01d27138b98622bff33d4b8102203f8191f7feb9b12cc216def321032f10850b17d91f9e9ae7add586c25e9d54e6[ALL] 02e39b107261038294a270ad6b230ae08f7852d8fbf2e7e5622eb0c91201c1a20c"}, "vout": 3, "txid": "35c2ad1eef8c65a3c6038850fd656533a0b2691686397ebce11ae2fcd3e42006"}, {"sequence": 4294967294, "scriptSig": {"hex": "483045022100f25e02e9a038033f4e8fa3d6765f1e9ba57b258e780d021eba376814a52f9cd902206ecfd2214381494004ab7782b2cc435f6682595250e540b930e82536ad772261012102394f47da99ecd91d13084c45c5d399305b070cc11c32b6a285239933571837ad", "asm": "3045022100f25e02e9a038033f4e8fa3d6765f1e9ba57b258e780d021eba376814a52f9cd902206ecfd2214381494004ab7782b2cc435f6682595250e540b930e82536ad772261[ALL] 02394f47da99ecd91d13084c45c5d399305b070cc11c32b6a285239933571837ad"}, "vout": 0, "txid": "a40e0403401ea65f33e5f1dee75c0655e4254cfe6f57f7a9a18b220267c68f15"}, {"sequence": 4294967294, "scriptSig": {"hex": "48304502210097566285555d109f20db5285a07d10639747ae8e3a33a7670996099d1c22d2910220498e5234922887fc7fa5410bc4a66fb68386d9c8c8fc15694e88c66fb71bd3d10121028c615190abf9b498af1328b1a7dca1fd4f2dc15d185af276d96d2b21b2580e2a", "asm": "304502210097566285555d109f20db5285a07d10639747ae8e3a33a7670996099d1c22d2910220498e5234922887fc7fa5410bc4a66fb68386d9c8c8fc15694e88c66fb71bd3d1[ALL] 028c615190abf9b498af1328b1a7dca1fd4f2dc15d185af276d96d2b21b2580e2a"}, "vout": 1, "txid": "5c62e8d892457dd1864c7f6ac3f14ba3dfd87c410f0594d3701326e89cc3446f"}, {"txinwitness": ["30440220261d24a9869cc210329f4d5a3aa5c4bc9b35179acc470a747ca85ac9e41b403002206b2d5d55f0af3284807e6577bf85945aa9f7d11564d424660b54ea322d84986301", "030c3eec02d3dbd3e91ce283dbb794ba79515b7555c2a02a9f2731f880841e0c64"], "sequence": 4294967294, "scriptSig": {"hex": "16001430f710f83acab620c55447645fc18de6f069b73d", "asm": "001430f710f83acab620c55447645fc18de6f069b73d"}, "vout": 1, "txid": "6f913c5c1b5f54509df0bf4ad0e87bc83df7a1a2d0f374ece7cb4f5861d063a2"}], "txid": "e7276b94601152c61caee6a7ddf915a2cd06a29ef49c3b74a9a64be580d50bf6", "blocktime": 1537870564, "version": 2, "confirmations": 11515, "time": 1537870564, "locktime": 542989, "vsize": 645, "size": 729}