{"hash": "e72797c4a3411e151ad8b007fe2a876808444994d6901f1ae5fcef2bc071e13d", "blockhash": "0000000000000000001cda96e906b7601b7a6fb1a3b62bca570a9e5d8f4b3de1", "vout": [{"scriptPubKey": {"reqSigs": 1, "hex": "76a914de9b6a788944bbcbcb2f05f3b6ee117a75ce6dff88ac", "addresses": ["1MJ3C5CwjwF7KiMWN2LbEAY2uiL9uMVKo4"], "asm": "OP_DUP OP_HASH160 de9b6a788944bbcbcb2f05f3b6ee117a75ce6dff OP_EQUALVERIFY OP_CHECKSIG", "type": "pubkeyhash"}, "value": 0.00154387, "n": 0}, {"scriptPubKey": {"reqSigs": 1, "hex": "76a9146b8c8c6754b38b781b512e16ccb6fc801c86098288ac", "addresses": ["1Aofg1Chuyh5YwQVJGoKcPvERYZj6qMUQW"], "asm": "OP_DUP OP_HASH160 6b8c8c6754b38b781b512e16ccb6fc801c860982 OP_EQUALVERIFY OP_CHECKSIG", "type": "pubkeyhash"}, "value": 0.00437136, "n": 1}], "hex": "01000000024e5cd14cfb12942dddc9b8c00577c9c9a3421f716baf32a3718f1afa2124c7d9010000006a473044022055edba6d76a815c2b76ac849c2a2f2a7eefa85268465f6ff13612a14815945e8022036bcd1ba557782e8668e020e77f2f2e1f5af4894bb77793932df421ef1b2deab012103608613b650da282c8c0cf5ee5dc5a54411f93d7fe8a56791f4a08c10bbf076acffffffff7259d9c3c82b2fed45bca2cef66d923a0cb9073a2e83d90db7ec932dd5a1f4fc000000006a47304402202fc0055ad86ad6911ff7ec6868501fcaacfe04acd7af1d6a9a088f1b3c38441c02205cc3bd670cd5a99b8ebeac47028d1d5100cbb6aec78c7b8375c6de7b334c5419012103afb2ecf9e8bbba2e5b49c7a2480546b15d75bf33a0a4a4b7ecea41e37b706f5affffffff02135b0200000000001976a914de9b6a788944bbcbcb2f05f3b6ee117a75ce6dff88ac90ab0600000000001976a9146b8c8c6754b38b781b512e16ccb6fc801c86098288ac00000000", "vin": [{"sequence": 4294967295, "scriptSig": {"hex": "473044022055edba6d76a815c2b76ac849c2a2f2a7eefa85268465f6ff13612a14815945e8022036bcd1ba557782e8668e020e77f2f2e1f5af4894bb77793932df421ef1b2deab012103608613b650da282c8c0cf5ee5dc5a54411f93d7fe8a56791f4a08c10bbf076ac", "asm": "3044022055edba6d76a815c2b76ac849c2a2f2a7eefa85268465f6ff13612a14815945e8022036bcd1ba557782e8668e020e77f2f2e1f5af4894bb77793932df421ef1b2deab[ALL] 03608613b650da282c8c0cf5ee5dc5a54411f93d7fe8a56791f4a08c10bbf076ac"}, "vout": 1, "txid": "d9c72421fa1a8f71a332af6b711f42a3c9c97705c0b8c9dd2d9412fb4cd15c4e"}, {"sequence": 4294967295, "scriptSig": {"hex": "47304402202fc0055ad86ad6911ff7ec6868501fcaacfe04acd7af1d6a9a088f1b3c38441c02205cc3bd670cd5a99b8ebeac47028d1d5100cbb6aec78c7b8375c6de7b334c5419012103afb2ecf9e8bbba2e5b49c7a2480546b15d75bf33a0a4a4b7ecea41e37b706f5a", "asm": "304402202fc0055ad86ad6911ff7ec6868501fcaacfe04acd7af1d6a9a088f1b3c38441c02205cc3bd670cd5a99b8ebeac47028d1d5100cbb6aec78c7b8375c6de7b334c5419[ALL] 03afb2ecf9e8bbba2e5b49c7a2480546b15d75bf33a0a4a4b7ecea41e37b706f5a"}, "vout": 0, "txid": "fcf4a1d52d93ecb70dd9832e3a07b90c3a926df6cea2bc45ed2f2bc8c3d95972"}], "txid": "e72797c4a3411e151ad8b007fe2a876808444994d6901f1ae5fcef2bc071e13d", "blocktime": 1537873282, "version": 1, "confirmations": 11484, "time": 1537873282, "locktime": 0, "vsize": 372, "size": 372}