{"hash": "e736e52a640393b9051a47502f5b7c3493aec0be723c3b639eefd22d6ae66e21", "blockhash": "00000000000000000017f5eb5941039fbcee6240d03bc1f2f8e35350df66a1d8", "vout": [{"scriptPubKey": {"reqSigs": 1, "hex": "76a914f423dfee34e4833104508103d89e316b4a49314088ac", "addresses": ["1PFtrRjbq4aLfM7k4tyLZ3ZAuTsgLr6Q8Q"], "asm": "OP_DUP OP_HASH160 f423dfee34e4833104508103d89e316b4a493140 OP_EQUALVERIFY OP_CHECKSIG", "type": "pubkeyhash"}, "value": 0.00042994, "n": 0}, {"scriptPubKey": {"type": "nulldata", "hex": "6a146f6d6e69000000000000001f000001d1a94a2000", "asm": "OP_RETURN 6f6d6e69000000000000001f000001d1a94a2000"}, "value": 0.0, "n": 1}], "hex": "0100000002165ff0a11ef2efd3242df3762bdc83c8222407e4c4837548251e7333ce24f8d9020000006b48304502210096cae57cdf2e1c557ce5cd9461ce2251179716c1147a80e94faab9602b7bf04f02204c75cd45eb169ccf3a0b6fcad951087a0a8fed1281ef2d6cda2b00bda2adf4090121038062f923f0b3bfcbac74a4e19be321cfd20c37d2ec3c5a28fb3699ca602fa837ffffffff60d6c38ab4c565b496cbea190494a731dfa47c104d8b8871d5016a3e7038c944000000006a47304402201029968b77719964d8d9afc16abc44afadea8722b51f9a0b6c45c87d1b101c83022045694dc0bd7645c3f75c94d3e450752378736da7a19ccd693a4fd24be514578e0121039a403b4eeaf8f7a9c5cc655cf2d17310fcd606a75b1392f7892f6b514a67d23cffffffff02f2a70000000000001976a914f423dfee34e4833104508103d89e316b4a49314088ac0000000000000000166a146f6d6e69000000000000001f000001d1a94a200000000000", "vin": [{"sequence": 4294967295, "scriptSig": {"hex": "48304502210096cae57cdf2e1c557ce5cd9461ce2251179716c1147a80e94faab9602b7bf04f02204c75cd45eb169ccf3a0b6fcad951087a0a8fed1281ef2d6cda2b00bda2adf4090121038062f923f0b3bfcbac74a4e19be321cfd20c37d2ec3c5a28fb3699ca602fa837", "asm": "304502210096cae57cdf2e1c557ce5cd9461ce2251179716c1147a80e94faab9602b7bf04f02204c75cd45eb169ccf3a0b6fcad951087a0a8fed1281ef2d6cda2b00bda2adf409[ALL] 038062f923f0b3bfcbac74a4e19be321cfd20c37d2ec3c5a28fb3699ca602fa837"}, "vout": 2, "txid": "d9f824ce33731e25487583c4e4072422c883dc2b76f32d24d3eff21ea1f05f16"}, {"sequence": 4294967295, "scriptSig": {"hex": "47304402201029968b77719964d8d9afc16abc44afadea8722b51f9a0b6c45c87d1b101c83022045694dc0bd7645c3f75c94d3e450752378736da7a19ccd693a4fd24be514578e0121039a403b4eeaf8f7a9c5cc655cf2d17310fcd606a75b1392f7892f6b514a67d23c", "asm": "304402201029968b77719964d8d9afc16abc44afadea8722b51f9a0b6c45c87d1b101c83022045694dc0bd7645c3f75c94d3e450752378736da7a19ccd693a4fd24be514578e[ALL] 039a403b4eeaf8f7a9c5cc655cf2d17310fcd606a75b1392f7892f6b514a67d23c"}, "vout": 0, "txid": "44c938703e6a01d571888b4d107ca4df31a7940419eacb96b465c5b48ac3d660"}], "txid": "e736e52a640393b9051a47502f5b7c3493aec0be723c3b639eefd22d6ae66e21", "blocktime": 1537874412, "version": 1, "confirmations": 11466, "time": 1537874412, "locktime": 0, "vsize": 370, "size": 370}