{"hash": "e73cc554f1d4c0a91062956588f82b87c758bdb3101e81d590e1db21092aaee9", "blockhash": "0000000000000000000baef3f32e3676a92c3b2e5da21b426e4f302fc371ce76", "vout": [{"scriptPubKey": {"type": "nulldata", "hex": "6a4c50000078250001e43253a151760d471cb5d826019d6ddc0f1b8ff117702940d64fa54d8eb2ed1c8c257f307573a921e1029cab64255baa1e3d061414d5308588c1bc9a9526289ac0f6612cd74e33776ee4", "asm": "OP_RETURN 000078250001e43253a151760d471cb5d826019d6ddc0f1b8ff117702940d64fa54d8eb2ed1c8c257f307573a921e1029cab64255baa1e3d061414d5308588c1bc9a9526289ac0f6612cd74e33776ee4"}, "value": 0.0, "n": 0}, {"scriptPubKey": {"reqSigs": 1, "hex": "76a91421885c19d0f28239d6b3b536cabb4d8ac3face8788ac", "addresses": ["144JemrCjbtEBCjPDq8M3cTMErtK14C7qE"], "asm": "OP_DUP OP_HASH160 21885c19d0f28239d6b3b536cabb4d8ac3face87 OP_EQUALVERIFY OP_CHECKSIG", "type": "pubkeyhash"}, "value": 0.021962, "n": 1}], "hex": "0100000001d032d300487bfee1b4706e8f766e50ec511eb91c179e9c15831cfecd850ae9e4010000006a473044022047d06a10261c75a4e06cbde4b39cdaa7bda4dcab7cdf91c103775b28b369218302206d9b64d5d705d90862c00dfa28baaf5624079d82a2cb105ab74e9fe04c24b1020121038a5528de9c989fffd6179faf548fd9bfd654ac1edfab580a8fe58b6d6550ebbfffffffff020000000000000000536a4c50000078250001e43253a151760d471cb5d826019d6ddc0f1b8ff117702940d64fa54d8eb2ed1c8c257f307573a921e1029cab64255baa1e3d061414d5308588c1bc9a9526289ac0f6612cd74e33776ee4e8822100000000001976a91421885c19d0f28239d6b3b536cabb4d8ac3face8788ac00000000", "vin": [{"sequence": 4294967295, "scriptSig": {"hex": "473044022047d06a10261c75a4e06cbde4b39cdaa7bda4dcab7cdf91c103775b28b369218302206d9b64d5d705d90862c00dfa28baaf5624079d82a2cb105ab74e9fe04c24b1020121038a5528de9c989fffd6179faf548fd9bfd654ac1edfab580a8fe58b6d6550ebbf", "asm": "3044022047d06a10261c75a4e06cbde4b39cdaa7bda4dcab7cdf91c103775b28b369218302206d9b64d5d705d90862c00dfa28baaf5624079d82a2cb105ab74e9fe04c24b102[ALL] 038a5528de9c989fffd6179faf548fd9bfd654ac1edfab580a8fe58b6d6550ebbf"}, "vout": 1, "txid": "e4e90a85cdfe1c83159c9e171cb91e51ec506e768f6e70b4e1fe7b4800d332d0"}], "txid": "e73cc554f1d4c0a91062956588f82b87c758bdb3101e81d590e1db21092aaee9", "blocktime": 1537876114, "version": 1, "confirmations": 11460, "time": 1537876114, "locktime": 0, "vsize": 283, "size": 283}