{"hash": "165266269c79b02cba82f3ae5b31e90d87e6111a084649451f028a2b72998a1f", "blockhash": "0000000000000000001cda96e906b7601b7a6fb1a3b62bca570a9e5d8f4b3de1", "vout": [{"scriptPubKey": {"reqSigs": 1, "hex": "a91468caa9070b5257298f5a4e6a8600a05c29f11e3287", "addresses": ["3BF6yaNFeCj5M6E4pBhgRDbKXVdQeSmxbu"], "asm": "OP_HASH160 68caa9070b5257298f5a4e6a8600a05c29f11e32 OP_EQUAL", "type": "scripthash"}, "value": 0.01000681, "n": 0}, {"scriptPubKey": {"reqSigs": 1, "hex": "a914748a3925bdec429363a93c40fea39f0a1fa009c387", "addresses": ["3CKDtiQEaynWF9vxRMt2MUJGrhumGAYcTG"], "asm": "OP_HASH160 748a3925bdec429363a93c40fea39f0a1fa009c3 OP_EQUAL", "type": "scripthash"}, "value": 0.0025156, "n": 1}], "hex": "020000000001020d89565229d10026143540e4b94ee6916d0004acb26a0cbbc25df410f4d3a8b10100000017160014887dc90db35d1759299f37a7bbbe0f0cf1c574d6feffffffb403a6841c7fee65d89995b55e836048b729a00b4caa033ed7c98fb269fc1afd0700000017160014ef1cfb27bf05a71307f9c1dba38a7300c9709e58feffffff02e9440f000000000017a91468caa9070b5257298f5a4e6a8600a05c29f11e3287a8d603000000000017a914748a3925bdec429363a93c40fea39f0a1fa009c38702483045022100c830d13af9c00c0a5d435495a5db85c3f957fd23d0b9b4502b15c7d96f4f34250220103ca9a916f75b0c1bf3c4d8c1cc386ad77d424514a30d0f442123a3ef3bb055012103d1fbc6604e2e7604a272500cba60e67e1a3922a30d3add300726eec42be80383024730440220764e6338b75ceca18e336762cce2c7f0933eb2924eca492fcc2d496970e207dc02207f6a416b72e526bcbc34f8f2a77c3720a68fa711f50532ffca1850f30ae70933012102e050fd4d1931e42e34f389423f6c03d9e986d0e203146e0f4caddf77bcffcf2913490800", "vin": [{"txinwitness": ["3045022100c830d13af9c00c0a5d435495a5db85c3f957fd23d0b9b4502b15c7d96f4f34250220103ca9a916f75b0c1bf3c4d8c1cc386ad77d424514a30d0f442123a3ef3bb05501", "03d1fbc6604e2e7604a272500cba60e67e1a3922a30d3add300726eec42be80383"], "sequence": 4294967294, "scriptSig": {"hex": "160014887dc90db35d1759299f37a7bbbe0f0cf1c574d6", "asm": "0014887dc90db35d1759299f37a7bbbe0f0cf1c574d6"}, "vout": 1, "txid": "b1a8d3f410f45dc2bb0c6ab2ac04006d91e64eb9e44035142600d1295256890d"}, {"txinwitness": ["30440220764e6338b75ceca18e336762cce2c7f0933eb2924eca492fcc2d496970e207dc02207f6a416b72e526bcbc34f8f2a77c3720a68fa711f50532ffca1850f30ae7093301", "02e050fd4d1931e42e34f389423f6c03d9e986d0e203146e0f4caddf77bcffcf29"], "sequence": 4294967294, "scriptSig": {"hex": "160014ef1cfb27bf05a71307f9c1dba38a7300c9709e58", "asm": "0014ef1cfb27bf05a71307f9c1dba38a7300c9709e58"}, "vout": 7, "txid": "fd1afc69b28fc9d73e03aa4c0ba029b74860835eb59599d865ee7f1c84a603b4"}], "txid": "e73d30da90ec272c079659ac867da2ddfc3b7dc87e7fb4d3e5def5257b109268", "blocktime": 1537873282, "version": 2, "confirmations": 11484, "time": 1537873282, "locktime": 542995, "vsize": 257, "size": 419}