{"hash": "6493c626e4fabd92a903d8375606a8b3b535171a4feacd3c88304a881b70d22d", "blockhash": "00000000000000000018f53835495a110e01622372bf6ae95dc86f2b0ab887b0", "vout": [{"scriptPubKey": {"reqSigs": 1, "hex": "76a9146cbbe11337648dc99bb71f23c09732b5ea8f841188ac", "addresses": ["1Auw3o1iopxg6RD88Ti1n9e6htVJawqDLY"], "asm": "OP_DUP OP_HASH160 6cbbe11337648dc99bb71f23c09732b5ea8f8411 OP_EQUALVERIFY OP_CHECKSIG", "type": "pubkeyhash"}, "value": 0.037558, "n": 0}, {"scriptPubKey": {"reqSigs": 1, "hex": "a9144509805970b6068352cdfe7ba58b7938735ea9e787", "addresses": ["37z3vwr7EgEWC4W9Dxys65i1aPnD9AZ4Fc"], "asm": "OP_HASH160 4509805970b6068352cdfe7ba58b7938735ea9e7 OP_EQUAL", "type": "scripthash"}, "value": 0.00998782, "n": 1}], "hex": "02000000000101ab253bd587f0a3ea389e7fb9a6c09349d7a0e51ca14c7f5a878cbf6fb62d182d000000001716001470ad13eea742c8bc659bcfdbc8aa4a120f2b79f3feffffff02184f3900000000001976a9146cbbe11337648dc99bb71f23c09732b5ea8f841188ac7e3d0f000000000017a9144509805970b6068352cdfe7ba58b7938735ea9e7870247304402200421b20d4d2e0df40ece2685b2cd4b80c0266c01c031bd7c2231c6b6a7a76c770220362b1b991267f28d9da8065e7b8281baf62a3bad15cad08c1030c93826671cc50121029c405ca67d4ce4c478ffd379c836f38bafb5619bb32c37d5bd6407f12b3966b70d490800", "vin": [{"txinwitness": ["304402200421b20d4d2e0df40ece2685b2cd4b80c0266c01c031bd7c2231c6b6a7a76c770220362b1b991267f28d9da8065e7b8281baf62a3bad15cad08c1030c93826671cc501", "029c405ca67d4ce4c478ffd379c836f38bafb5619bb32c37d5bd6407f12b3966b7"], "sequence": 4294967294, "scriptSig": {"hex": "16001470ad13eea742c8bc659bcfdbc8aa4a120f2b79f3", "asm": "001470ad13eea742c8bc659bcfdbc8aa4a120f2b79f3"}, "vout": 0, "txid": "2d182db66fbf8c875a7f4ca11ce5a0d74993c0a6b97f9e38eaa3f087d53b25ab"}], "txid": "e74519c7dcdd1cebc15a808de27d154649754e37b552b58e227aa20f3285bd85", "blocktime": 1537870928, "version": 2, "confirmations": 11512, "time": 1537870928, "locktime": 542989, "vsize": 168, "size": 249}