{"hash": "a0455ce1dc892325f92302739f4eaaf518aacb45b75904a4e5fe83f7132c79bb", "blockhash": "0000000000000000001cda96e906b7601b7a6fb1a3b62bca570a9e5d8f4b3de1", "vout": [{"scriptPubKey": {"reqSigs": 1, "hex": "76a914c517ad2bab70ac759b18e156b743aa100d90eec188ac", "addresses": ["1Jy8UrpiV4J74zNjy6mQzvawspKy5n6fLB"], "asm": "OP_DUP OP_HASH160 c517ad2bab70ac759b18e156b743aa100d90eec1 OP_EQUALVERIFY OP_CHECKSIG", "type": "pubkeyhash"}, "value": 0.0151, "n": 0}, {"scriptPubKey": {"reqSigs": 1, "hex": "76a914321875bf81ac0ac2532b4a0ad05ea09385d1d10188ac", "addresses": ["15Zt66jdJqUhCVmqGzKeHAYkSueo7FbHqE"], "asm": "OP_DUP OP_HASH160 321875bf81ac0ac2532b4a0ad05ea09385d1d101 OP_EQUALVERIFY OP_CHECKSIG", "type": "pubkeyhash"}, "value": 0.0054748, "n": 1}, {"scriptPubKey": {"reqSigs": 1, "hex": "76a9149dafa23c73a2148e8b75f3a9241705a2393e390888ac", "addresses": ["1FNmVN4rgGBCoNmhp9CVbJkjEcJQJMKr7e"], "asm": "OP_DUP OP_HASH160 9dafa23c73a2148e8b75f3a9241705a2393e3908 OP_EQUALVERIFY OP_CHECKSIG", "type": "pubkeyhash"}, "value": 0.00419774, "n": 2}, {"scriptPubKey": {"reqSigs": 1, "hex": "76a91447fa998af748cd9cf8a7f711f0a10808f99f78ff88ac", "addresses": ["17ZbBbfexnamUCab7a5hXNst5rjmpaEMAi"], "asm": "OP_DUP OP_HASH160 47fa998af748cd9cf8a7f711f0a10808f99f78ff OP_EQUALVERIFY OP_CHECKSIG", "type": "pubkeyhash"}, "value": 0.0321232, "n": 3}, {"scriptPubKey": {"reqSigs": 1, "hex": "76a914ccf870fa43d25d2b5782feb7b549e06a7705a60988ac", "addresses": ["1KgnU947GEenAkUFgMCfcBE7gzX9ypgY1B"], "asm": "OP_DUP OP_HASH160 ccf870fa43d25d2b5782feb7b549e06a7705a609 OP_EQUALVERIFY OP_CHECKSIG", "type": "pubkeyhash"}, "value": 0.12542517, "n": 4}, {"scriptPubKey": {"reqSigs": 1, "hex": "76a914a38f85cfcb774d56f07c30d4b6858408eb5a083388ac", "addresses": ["1Fuq5QEKsVyCLam8o1HoWWLj4o6Gzbs8Ni"], "asm": "OP_DUP OP_HASH160 a38f85cfcb774d56f07c30d4b6858408eb5a0833 OP_EQUALVERIFY OP_CHECKSIG", "type": "pubkeyhash"}, "value": 0.011103, "n": 5}, {"scriptPubKey": {"reqSigs": 1, "hex": "76a9149898aafabdd6bc052260678d496fc2376c7942d588ac", "addresses": ["1Eurbi8M7aUrunfGjaUJGrhaVQBd7Wa4rF"], "asm": "OP_DUP OP_HASH160 9898aafabdd6bc052260678d496fc2376c7942d5 OP_EQUALVERIFY OP_CHECKSIG", "type": "pubkeyhash"}, "value": 0.0049, "n": 6}, {"scriptPubKey": {"reqSigs": 1, "hex": "a914c40d36043dbda7c26dcecdf1698ec079951cbc6787", "addresses": ["3KZeC4NsV6RS4G4ovWTvfowvVYGM2yRGwc"], "asm": "OP_HASH160 c40d36043dbda7c26dcecdf1698ec079951cbc67 OP_EQUAL", "type": "scripthash"}, "value": 0.00172602, "n": 7}, {"scriptPubKey": {"reqSigs": 1, "hex": "a914c7df12451df7b590d4d369bc535cf2d2e5bd4d8a87", "addresses": ["3KuqczGx8mXptMBw6SwBdYPVVVRZ4cBCdK"], "asm": "OP_HASH160 c7df12451df7b590d4d369bc535cf2d2e5bd4d8a OP_EQUAL", "type": "scripthash"}, "value": 0.22107121, "n": 8}, {"scriptPubKey": {"reqSigs": 1, "hex": "76a91492856f33d814aeddc865cf073feafbc2523301a888ac", "addresses": ["1EMjWC4xyc2q62zw4aUmx32cHTaGNzMo2s"], "asm": "OP_DUP OP_HASH160 92856f33d814aeddc865cf073feafbc2523301a8 OP_EQUALVERIFY OP_CHECKSIG", "type": "pubkeyhash"}, "value": 0.005, "n": 9}, {"scriptPubKey": {"reqSigs": 1, "hex": "a9148f232548586f1b81e7a6b33accae10dd7c4e8e7587", "addresses": ["3EjrewJULVsU21oN452NE4PGYSMiYxJHgj"], "asm": "OP_HASH160 8f232548586f1b81e7a6b33accae10dd7c4e8e75 OP_EQUAL", "type": "scripthash"}, "value": 0.2346654, "n": 10}, {"scriptPubKey": {"reqSigs": 1, "hex": "a9144ef80fc876552582c416fdfda11973a6e48d501387", "addresses": ["38tZo8dLQ5Et7jw5XWso2uqRi9DH9tLzpk"], "asm": "OP_HASH160 4ef80fc876552582c416fdfda11973a6e48d5013 OP_EQUAL", "type": "scripthash"}, "value": 0.00347008, "n": 11}, {"scriptPubKey": {"reqSigs": 1, "hex": "a9143bad69845efa22ad1a26853f92b4d448b7646f5887", "addresses": ["378ZXkWXYUGhVTYj5VELS9p1Mcz18t5DLt"], "asm": "OP_HASH160 3bad69845efa22ad1a26853f92b4d448b7646f58 OP_EQUAL", "type": "scripthash"}, "value": 0.00221636, "n": 12}, {"scriptPubKey": {"reqSigs": 1, "hex": "a914a623340a5a872f1a5bbdd0c5203791e7c4a4bb7787", "addresses": ["3GqUGMX5cbz85fH3Gh5Jtbykzf1B3UGR6v"], "asm": "OP_HASH160 a623340a5a872f1a5bbdd0c5203791e7c4a4bb77 OP_EQUAL", "type": "scripthash"}, "value": 0.14922735, "n": 13}, {"scriptPubKey": {"reqSigs": 1, "hex": "76a914fdc8259c421057160e67edf93c215b8fbfa4059e88ac", "addresses": ["1Q8siz79UjsHxxKyKJqb89YMX6gChJGbqf"], "asm": "OP_DUP OP_HASH160 fdc8259c421057160e67edf93c215b8fbfa4059e OP_EQUALVERIFY OP_CHECKSIG", "type": "pubkeyhash"}, "value": 0.0293893, "n": 14}, {"scriptPubKey": {"reqSigs": 1, "hex": "76a914d50458f5682207fecdd1fe23a526d81ec4138f7588ac", "addresses": ["1LRL8vtVfMZ7o1cjZijzcZZvy2cE6xkPT3"], "asm": "OP_DUP OP_HASH160 d50458f5682207fecdd1fe23a526d81ec4138f75 OP_EQUALVERIFY OP_CHECKSIG", "type": "pubkeyhash"}, "value": 0.00625691, "n": 15}], "hex": "01000000000104cf04fb75c108d61c1500eee022804b904d577c75f678f988a34c75c08a209ae900000000fc00473044022038aeaf4f4aa947d2845c75c0e6edd1ddc0594e705ea3b0623b7d35db7894c28a02200d94ceeff7df5f0506067b828b53c26013cf2e5e7e13156951d0b9945edd34510147304402202e6c5504067c39dea4c43b6408dcf2e1f42c7c13f480d4bd46c8848ede77284f022035b186befb7dfdd590c0a1bfa59ac034b085014a98664a8b4d9a0076a7638f41014c695221030dd294708f2f66704e547bda26a8717051899e721f22caa43838dbd4591b6d9b21031ab02751a3a01bbe35d908af53b6bc3383c63e37959d5af5ff716a238311cb9b2102e849fba39451431146dcb4f048d6cc6919c4eb737819cdc2a3a5fa84c503b5a353aeffffffff42bb4dfca0eb9e699431fe52d5ad0a33e6851e342642101604da60d173ef04e60f00000023220020cbb9614822d181de2e2be1dbad13bd38fc9fde0c5abfbcf2857c1f82eb820218ffffffff1f5dba8295019595ee0b28fc1a9475530b4baf59c6a4df2951c9f894e64da68600000000232200201ad4849bbf36440f34964c99e367c8ef4f01a3a2404f7b053ec1d5e12215c4e8ffffffff1f5dba8295019595ee0b28fc1a9475530b4baf59c6a4df2951c9f894e64da686020000002322002060e371065c278c5d334889be420b1bc4b2c61a45a348c7ba5e7020d0dff4ac68ffffffff10700a1700000000001976a914c517ad2bab70ac759b18e156b743aa100d90eec188ac985a0800000000001976a914321875bf81ac0ac2532b4a0ad05ea09385d1d10188acbe670600000000001976a9149dafa23c73a2148e8b75f3a9241705a2393e390888ac20043100000000001976a91447fa998af748cd9cf8a7f711f0a10808f99f78ff88ac3562bf00000000001976a914ccf870fa43d25d2b5782feb7b549e06a7705a60988ac1cf11000000000001976a914a38f85cfcb774d56f07c30d4b6858408eb5a083388ac107a0700000000001976a9149898aafabdd6bc052260678d496fc2376c7942d588ac3aa202000000000017a914c40d36043dbda7c26dcecdf1698ec079951cbc6787f15351010000000017a914c7df12451df7b590d4d369bc535cf2d2e5bd4d8a8720a10700000000001976a91492856f33d814aeddc865cf073feafbc2523301a888ac2c1266010000000017a9148f232548586f1b81e7a6b33accae10dd7c4e8e7587804b05000000000017a9144ef80fc876552582c416fdfda11973a6e48d501387c46103000000000017a9143bad69845efa22ad1a26853f92b4d448b7646f5887efb3e3000000000017a914a623340a5a872f1a5bbdd0c5203791e7c4a4bb778732d82c00000000001976a914fdc8259c421057160e67edf93c215b8fbfa4059e88ac1b8c0900000000001976a914d50458f5682207fecdd1fe23a526d81ec4138f7588ac000400483045022100b2d410cda96b1182bc70484d1e1ee50fdd8e0936645a293cd60dcc3c85059615022031d68d0fa10ced0bbf2a4f359a7d8ed582a777c95293252ab892bf619303b93401483045022100cea2c144018ce5a602608f5efdb0c0e70b82190d02fdee52b36f0984b615554102204c6341f42a2b852cc59a83690e0f5ee2cc9a77a6f25b5c1a3a1d7e779a7cd3650169522103f526abd2c15eb79f0c10fce16458515ce73289bd1c8a777cc65c6e5f943074a22102349cd7b8e21c76205d579704afc92707cae2cea2ee49a15cd2081e22f939f1a52102db006556529708781909b6cbd1307e167e33147fb1de9e402c0d411e00c7069153ae0400473044022041b89cd19bc2823ecc8a016019f9649fd41ca0725d310474a8d6ccf46230e3640220349afc0d81b7af9d9e145d9ffbb67a7d20e46dc6172d7c12122b221316f0921b0147304402205c84f7017df2f40434106e89afa5c4dc8e29f44fab0a3f04b9ef250edd8e3d7a0220049fcf7ecd682dbcfdfdad56343c95c770638e56863699d737039845daed2c8501695221033a85572c62e7def7485f6f3edaa0ceb976cfb1cf5ded62919e748844cea051a2210377e701a720bbd83b8f2174238a246014831af3f8774570848429d2df62a78d462103054e19b49fbe9e35fbbf4b6e009ffd17fcc110222232413d31ef6abb86591b1c53ae04004830450221008900fd1355147bb740f481c76c0cadd3ff6ecfd17f41dc2361b0ffa8e88914ba02205a0ba1a7d8396db8876f64474372048d0f25aedbcb892b6bdf2f7520dc932bfc01473044022041a348aed1627c332637aaec9540dec923074816b8ff3e92681dc3b5602d510a022027b72111f48e8468afa7ffd154cc4a922b275cd074d6e1a3116ded9a62c3bc410169522102ad6637119d9c5693b0857389cbdd83dc52e296d22307882ff293cd23d3c9ab86210354cd05b14a7f57fda48a85189ff07abadf2172f4ef21d43571a504b5944829282102a0c7c16a28db418457ea6ed7198201e47001449f1eb9b2966b653c45029b256353ae00000000", "vin": [{"sequence": 4294967295, "scriptSig": {"hex": "00473044022038aeaf4f4aa947d2845c75c0e6edd1ddc0594e705ea3b0623b7d35db7894c28a02200d94ceeff7df5f0506067b828b53c26013cf2e5e7e13156951d0b9945edd34510147304402202e6c5504067c39dea4c43b6408dcf2e1f42c7c13f480d4bd46c8848ede77284f022035b186befb7dfdd590c0a1bfa59ac034b085014a98664a8b4d9a0076a7638f41014c695221030dd294708f2f66704e547bda26a8717051899e721f22caa43838dbd4591b6d9b21031ab02751a3a01bbe35d908af53b6bc3383c63e37959d5af5ff716a238311cb9b2102e849fba39451431146dcb4f048d6cc6919c4eb737819cdc2a3a5fa84c503b5a353ae", "asm": "0 3044022038aeaf4f4aa947d2845c75c0e6edd1ddc0594e705ea3b0623b7d35db7894c28a02200d94ceeff7df5f0506067b828b53c26013cf2e5e7e13156951d0b9945edd3451[ALL] 304402202e6c5504067c39dea4c43b6408dcf2e1f42c7c13f480d4bd46c8848ede77284f022035b186befb7dfdd590c0a1bfa59ac034b085014a98664a8b4d9a0076a7638f41[ALL] 5221030dd294708f2f66704e547bda26a8717051899e721f22caa43838dbd4591b6d9b21031ab02751a3a01bbe35d908af53b6bc3383c63e37959d5af5ff716a238311cb9b2102e849fba39451431146dcb4f048d6cc6919c4eb737819cdc2a3a5fa84c503b5a353ae"}, "vout": 0, "txid": "e99a208ac0754ca388f978f6757c574d904b8022e0ee00151cd608c175fb04cf"}, {"txinwitness": ["", "3045022100b2d410cda96b1182bc70484d1e1ee50fdd8e0936645a293cd60dcc3c85059615022031d68d0fa10ced0bbf2a4f359a7d8ed582a777c95293252ab892bf619303b93401", "3045022100cea2c144018ce5a602608f5efdb0c0e70b82190d02fdee52b36f0984b615554102204c6341f42a2b852cc59a83690e0f5ee2cc9a77a6f25b5c1a3a1d7e779a7cd36501", "522103f526abd2c15eb79f0c10fce16458515ce73289bd1c8a777cc65c6e5f943074a22102349cd7b8e21c76205d579704afc92707cae2cea2ee49a15cd2081e22f939f1a52102db006556529708781909b6cbd1307e167e33147fb1de9e402c0d411e00c7069153ae"], "sequence": 4294967295, "scriptSig": {"hex": "220020cbb9614822d181de2e2be1dbad13bd38fc9fde0c5abfbcf2857c1f82eb820218", "asm": "0020cbb9614822d181de2e2be1dbad13bd38fc9fde0c5abfbcf2857c1f82eb820218"}, "vout": 15, "txid": "e604ef73d160da0416104226341e85e6330aadd552fe3194699eeba0fc4dbb42"}, {"txinwitness": ["", "3044022041b89cd19bc2823ecc8a016019f9649fd41ca0725d310474a8d6ccf46230e3640220349afc0d81b7af9d9e145d9ffbb67a7d20e46dc6172d7c12122b221316f0921b01", "304402205c84f7017df2f40434106e89afa5c4dc8e29f44fab0a3f04b9ef250edd8e3d7a0220049fcf7ecd682dbcfdfdad56343c95c770638e56863699d737039845daed2c8501", "5221033a85572c62e7def7485f6f3edaa0ceb976cfb1cf5ded62919e748844cea051a2210377e701a720bbd83b8f2174238a246014831af3f8774570848429d2df62a78d462103054e19b49fbe9e35fbbf4b6e009ffd17fcc110222232413d31ef6abb86591b1c53ae"], "sequence": 4294967295, "scriptSig": {"hex": "2200201ad4849bbf36440f34964c99e367c8ef4f01a3a2404f7b053ec1d5e12215c4e8", "asm": "00201ad4849bbf36440f34964c99e367c8ef4f01a3a2404f7b053ec1d5e12215c4e8"}, "vout": 0, "txid": "86a64de694f8c95129dfa4c659af4b0b5375941afc280bee9595019582ba5d1f"}, {"txinwitness": ["", "30450221008900fd1355147bb740f481c76c0cadd3ff6ecfd17f41dc2361b0ffa8e88914ba02205a0ba1a7d8396db8876f64474372048d0f25aedbcb892b6bdf2f7520dc932bfc01", "3044022041a348aed1627c332637aaec9540dec923074816b8ff3e92681dc3b5602d510a022027b72111f48e8468afa7ffd154cc4a922b275cd074d6e1a3116ded9a62c3bc4101", "522102ad6637119d9c5693b0857389cbdd83dc52e296d22307882ff293cd23d3c9ab86210354cd05b14a7f57fda48a85189ff07abadf2172f4ef21d43571a504b5944829282102a0c7c16a28db418457ea6ed7198201e47001449f1eb9b2966b653c45029b256353ae"], "sequence": 4294967295, "scriptSig": {"hex": "22002060e371065c278c5d334889be420b1bc4b2c61a45a348c7ba5e7020d0dff4ac68", "asm": "002060e371065c278c5d334889be420b1bc4b2c61a45a348c7ba5e7020d0dff4ac68"}, "vout": 2, "txid": "86a64de694f8c95129dfa4c659af4b0b5375941afc280bee9595019582ba5d1f"}], "txid": "e7454841fb50da6184c429b2956cc70dc82f860ccff803cece3b6a3c02234d5e", "blocktime": 1537873282, "version": 1, "confirmations": 11484, "time": 1537873282, "locktime": 0, "vsize": 1254, "size": 1825}