{"hash": "e75247357abb098d5640db5f10f3e16b5dc740c54aff65b19da16eb9b8556965", "blockhash": "0000000000000000001cda96e906b7601b7a6fb1a3b62bca570a9e5d8f4b3de1", "vout": [{"scriptPubKey": {"reqSigs": 1, "hex": "76a914356208f7f836a4fec459e26d0c33fde5461c4d0e88ac", "addresses": ["15sGFm7ZLzPCH58zmtTkPowWCkEhmWJzZB"], "asm": "OP_DUP OP_HASH160 356208f7f836a4fec459e26d0c33fde5461c4d0e OP_EQUALVERIFY OP_CHECKSIG", "type": "pubkeyhash"}, "value": 2.14333495, "n": 0}], "hex": "010000000366fc3fb3af42c706f16767d5a279efd0be15bdef5026e8e3597c3690a0fe3736000000006b483045022100ac449cd6364bdfae860d857c597c00b839065b5907daa9ba5e49fcf03faba29e02201655a07e304349e8acf1e3c6b9e90ffe59dcbee55c9c368eb16993ac911849c7012102ee03c85e4fef6d6f77dc43de2bdfdcd485143c571e9a7e490f2afe519ae7af50ffffffff2350060516c9c775f78bd78a4f04eb8675a2630238fdd274970eb712a3c3aa4a180000006a4730440220203b771e16ce87e5092483f0067e996c0bed3442b700fad7f74c17561994861402206c82f1015bbc91fc38342145cf00ea470f9e040c78465922220ae763a5ca9d1b01210395b28023d1c26ecad75eba27306e75c0d84f16a9e9a08c621d4f4751c322d855ffffffffc9d3117831c3c2cf6dd7a47bbf6c56f3b046c8430865af76978b394940c7d3ed0f0000006a47304402207306471bc6284785fffa41847e331cfc9dc664ffaa4d57c7adbc43596025d43902205bae28bec97fb9c8042afc8e3f05eb6d37a93d1a5393afdff9ed2179cb32104e01210395b28023d1c26ecad75eba27306e75c0d84f16a9e9a08c621d4f4751c322d855ffffffff013778c60c000000001976a914356208f7f836a4fec459e26d0c33fde5461c4d0e88ac00000000", "vin": [{"sequence": 4294967295, "scriptSig": {"hex": "483045022100ac449cd6364bdfae860d857c597c00b839065b5907daa9ba5e49fcf03faba29e02201655a07e304349e8acf1e3c6b9e90ffe59dcbee55c9c368eb16993ac911849c7012102ee03c85e4fef6d6f77dc43de2bdfdcd485143c571e9a7e490f2afe519ae7af50", "asm": "3045022100ac449cd6364bdfae860d857c597c00b839065b5907daa9ba5e49fcf03faba29e02201655a07e304349e8acf1e3c6b9e90ffe59dcbee55c9c368eb16993ac911849c7[ALL] 02ee03c85e4fef6d6f77dc43de2bdfdcd485143c571e9a7e490f2afe519ae7af50"}, "vout": 0, "txid": "3637fea090367c59e3e82650efbd15bed0ef79a2d56767f106c742afb33ffc66"}, {"sequence": 4294967295, "scriptSig": {"hex": "4730440220203b771e16ce87e5092483f0067e996c0bed3442b700fad7f74c17561994861402206c82f1015bbc91fc38342145cf00ea470f9e040c78465922220ae763a5ca9d1b01210395b28023d1c26ecad75eba27306e75c0d84f16a9e9a08c621d4f4751c322d855", "asm": "30440220203b771e16ce87e5092483f0067e996c0bed3442b700fad7f74c17561994861402206c82f1015bbc91fc38342145cf00ea470f9e040c78465922220ae763a5ca9d1b[ALL] 0395b28023d1c26ecad75eba27306e75c0d84f16a9e9a08c621d4f4751c322d855"}, "vout": 24, "txid": "4aaac3a312b70e9774d2fd380263a27586eb044f8ad78bf775c7c91605065023"}, {"sequence": 4294967295, "scriptSig": {"hex": "47304402207306471bc6284785fffa41847e331cfc9dc664ffaa4d57c7adbc43596025d43902205bae28bec97fb9c8042afc8e3f05eb6d37a93d1a5393afdff9ed2179cb32104e01210395b28023d1c26ecad75eba27306e75c0d84f16a9e9a08c621d4f4751c322d855", "asm": "304402207306471bc6284785fffa41847e331cfc9dc664ffaa4d57c7adbc43596025d43902205bae28bec97fb9c8042afc8e3f05eb6d37a93d1a5393afdff9ed2179cb32104e[ALL] 0395b28023d1c26ecad75eba27306e75c0d84f16a9e9a08c621d4f4751c322d855"}, "vout": 15, "txid": "edd3c74049398b9776af650843c846b0f3566cbf7ba4d76dcfc2c3317811d3c9"}], "txid": "e75247357abb098d5640db5f10f3e16b5dc740c54aff65b19da16eb9b8556965", "blocktime": 1537873282, "version": 1, "confirmations": 11485, "time": 1537873282, "locktime": 0, "vsize": 486, "size": 486}