{"hash": "e75240cb51ff3fa2dad45d723db5e39e54d6f87a5adf15be6de94544d77cbe64", "blockhash": "0000000000000000001e0dab787dd257d1dbfcb92a98c2207d5e1078be1f4165", "vout": [{"scriptPubKey": {"reqSigs": 1, "hex": "a9140bd5b1926a70e442b24e1fe38f82275c1f57636387", "addresses": ["32mbMM9zxWXpUEYyLPKb6PZmKEgYbGfs1X"], "asm": "OP_HASH160 0bd5b1926a70e442b24e1fe38f82275c1f576363 OP_EQUAL", "type": "scripthash"}, "value": 0.005598, "n": 0}], "hex": "0100000002566c3c49882972e13d5a5d76570f90ff912682ec9400b2b46dadf8dcd5bb2d72000000006a47304402201971df42b92164dde96e3beba3f24a7ec2d612b2f25893bcd51899122764ab3702205d21d5adf1049dc11446e6ea961daacf37fcc092962083da7db546efbe90d0000121023d13ae291511848cd7e4bc9af309d388789df64eb4040d4d204622a86905548dffffffffe68ca99c9d5b87cba9857268017feab25013235287f941ce034f637b1fb44e75000000006b483045022100cf646c9bf174b1342c6400151ae9c12e5e6f94ea8013fa6832f27340429777f402200ebc17a60e138ebf7cee14620eccecb26e7456d4aff4260fa25535f23207fb18012102a6205610f58b95dba98c73ac243de125f6233f7830f5486f855c41963f489d70ffffffff01b88a08000000000017a9140bd5b1926a70e442b24e1fe38f82275c1f5763638700000000", "vin": [{"sequence": 4294967295, "scriptSig": {"hex": "47304402201971df42b92164dde96e3beba3f24a7ec2d612b2f25893bcd51899122764ab3702205d21d5adf1049dc11446e6ea961daacf37fcc092962083da7db546efbe90d0000121023d13ae291511848cd7e4bc9af309d388789df64eb4040d4d204622a86905548d", "asm": "304402201971df42b92164dde96e3beba3f24a7ec2d612b2f25893bcd51899122764ab3702205d21d5adf1049dc11446e6ea961daacf37fcc092962083da7db546efbe90d000[ALL] 023d13ae291511848cd7e4bc9af309d388789df64eb4040d4d204622a86905548d"}, "vout": 0, "txid": "722dbbd5dcf8ad6db4b20094ec822691ff900f57765d5a3de1722988493c6c56"}, {"sequence": 4294967295, "scriptSig": {"hex": "483045022100cf646c9bf174b1342c6400151ae9c12e5e6f94ea8013fa6832f27340429777f402200ebc17a60e138ebf7cee14620eccecb26e7456d4aff4260fa25535f23207fb18012102a6205610f58b95dba98c73ac243de125f6233f7830f5486f855c41963f489d70", "asm": "3045022100cf646c9bf174b1342c6400151ae9c12e5e6f94ea8013fa6832f27340429777f402200ebc17a60e138ebf7cee14620eccecb26e7456d4aff4260fa25535f23207fb18[ALL] 02a6205610f58b95dba98c73ac243de125f6233f7830f5486f855c41963f489d70"}, "vout": 0, "txid": "754eb41f7b634f03ce41f98752231350b2ea7f01687285a9cb875b9d9ca98ce6"}], "txid": "e75240cb51ff3fa2dad45d723db5e39e54d6f87a5adf15be6de94544d77cbe64", "blocktime": 1537872475, "version": 1, "confirmations": 11486, "time": 1537872475, "locktime": 0, "vsize": 337, "size": 337}