{"hash": "8a22fba31632398451428b146a7899f04e2808f50ee58aeced9e5ab1ac144dc6", "blockhash": "0000000000000000000e13cef7c366c0283d82e591d1acd082e914b08063cdf1", "vout": [{"scriptPubKey": {"reqSigs": 1, "hex": "76a914221ec67854086b98b902d76c9225ccc99fbdd9c788ac", "addresses": ["147QqptkXWzByZLQqtwoMRVpYJVErpTgKy"], "asm": "OP_DUP OP_HASH160 221ec67854086b98b902d76c9225ccc99fbdd9c7 OP_EQUALVERIFY OP_CHECKSIG", "type": "pubkeyhash"}, "value": 0.0010034, "n": 0}, {"scriptPubKey": {"reqSigs": 1, "hex": "a91486c3fd19c6c9a0b596046179f8c72dcbdf95c96387", "addresses": ["3DybFnF6r6riDz1W1wSmv2rvjo8NCGH4xi"], "asm": "OP_HASH160 86c3fd19c6c9a0b596046179f8c72dcbdf95c963 OP_EQUAL", "type": "scripthash"}, "value": 31.60116872, "n": 1}], "hex": "0100000000010123e4fc885d8273ed37d887cd450f6c08baa4116a36fd367038c8c65d7d08afb5020000001716001431a2ce0c031351dd9c5dad168af8b76d65147419ffffffff02f4870100000000001976a914221ec67854086b98b902d76c9225ccc99fbdd9c788ac888e5bbc0000000017a91486c3fd19c6c9a0b596046179f8c72dcbdf95c9638702483045022100d29d400343cfa504cb193ebdba68b09559a0f2f3ba2b1ad0fe01970b6f8b848102204eedbd419730997a815ee1f130ba1d031f88c325cc2b19cf030f03bbe414b34901210221a47cdb1df834e604d49ce29497c00a12d0daec0ae8a10a6ce689780b05085300000000", "vin": [{"txinwitness": ["3045022100d29d400343cfa504cb193ebdba68b09559a0f2f3ba2b1ad0fe01970b6f8b848102204eedbd419730997a815ee1f130ba1d031f88c325cc2b19cf030f03bbe414b34901", "0221a47cdb1df834e604d49ce29497c00a12d0daec0ae8a10a6ce689780b050853"], "sequence": 4294967295, "scriptSig": {"hex": "16001431a2ce0c031351dd9c5dad168af8b76d65147419", "asm": "001431a2ce0c031351dd9c5dad168af8b76d65147419"}, "vout": 2, "txid": "b5af087d5dc6c8387036fd366a11a4ba086c0f45cd87d837ed73825d88fce423"}], "txid": "e756253009e2402721a4002cbc371ad8386d863c10d6faee8bb336542b376c9b", "blocktime": 1537871767, "version": 1, "confirmations": 11493, "time": 1537871767, "locktime": 0, "vsize": 168, "size": 250}