{"hash": "e758ffa55f9af1889af4befb5a6b7fe26531a2ffa654d6a4299483160d4dd147", "blockhash": "00000000000000000004ffacab907a6b429b9a5745fa0b75af4234bf69dd7176", "vout": [{"scriptPubKey": {"reqSigs": 1, "hex": "76a914ada673f1db85aff86cddaaa51dd099d3b38e609488ac", "addresses": ["1GqBJYBK7JawVuZKdtdfgbjqYsc49Q1zPA"], "asm": "OP_DUP OP_HASH160 ada673f1db85aff86cddaaa51dd099d3b38e6094 OP_EQUALVERIFY OP_CHECKSIG", "type": "pubkeyhash"}, "value": 0.00980436, "n": 0}], "hex": "0100000002b1612898c7693e394a4017ca014c9fbe020f502dd946c59ee1cbb98f28a16547010000006b483045022100b607059abb87d36a93dd63c395b407b7e693f9c29a0a5a8b875a5de5abafe6290220176b216b307f6ec1ddedfe0937ea2f90b6fbfa3941a2d5d8e7b320a9842c754d01210349cb0e2fe9e9092f5de5cb03fdc65418bf20955eb869df66340a1d9a060907b2ffffffff35c43802e6afcc864c1f00be37c0fd0171e5d7ff52ffc1d37105eaa4a107a0a3000000006a4730440220535d8f42dedfe1eadfe5d77a0b61e2dcc079500fe080854497db1b3be17ae24a0220451410cfba4930b13b7ac444e3aa7b7e273ecd0b9f4836121aa3cd738c203bf5012102c5f5668301397bd50a8d97512f76f7a4e214d898a8d9c259908838228e736381ffffffff01d4f50e00000000001976a914ada673f1db85aff86cddaaa51dd099d3b38e609488ac00000000", "vin": [{"sequence": 4294967295, "scriptSig": {"hex": "483045022100b607059abb87d36a93dd63c395b407b7e693f9c29a0a5a8b875a5de5abafe6290220176b216b307f6ec1ddedfe0937ea2f90b6fbfa3941a2d5d8e7b320a9842c754d01210349cb0e2fe9e9092f5de5cb03fdc65418bf20955eb869df66340a1d9a060907b2", "asm": "3045022100b607059abb87d36a93dd63c395b407b7e693f9c29a0a5a8b875a5de5abafe6290220176b216b307f6ec1ddedfe0937ea2f90b6fbfa3941a2d5d8e7b320a9842c754d[ALL] 0349cb0e2fe9e9092f5de5cb03fdc65418bf20955eb869df66340a1d9a060907b2"}, "vout": 1, "txid": "4765a1288fb9cbe19ec546d92d500f02be9f4c01ca17404a393e69c7982861b1"}, {"sequence": 4294967295, "scriptSig": {"hex": "4730440220535d8f42dedfe1eadfe5d77a0b61e2dcc079500fe080854497db1b3be17ae24a0220451410cfba4930b13b7ac444e3aa7b7e273ecd0b9f4836121aa3cd738c203bf5012102c5f5668301397bd50a8d97512f76f7a4e214d898a8d9c259908838228e736381", "asm": "30440220535d8f42dedfe1eadfe5d77a0b61e2dcc079500fe080854497db1b3be17ae24a0220451410cfba4930b13b7ac444e3aa7b7e273ecd0b9f4836121aa3cd738c203bf5[ALL] 02c5f5668301397bd50a8d97512f76f7a4e214d898a8d9c259908838228e736381"}, "vout": 0, "txid": "a3a007a1a4ea0571d3c1ff52ffd7e57101fdc037be001f4c86ccafe60238c435"}], "txid": "e758ffa55f9af1889af4befb5a6b7fe26531a2ffa654d6a4299483160d4dd147", "blocktime": 1537875543, "version": 1, "confirmations": 11464, "time": 1537875543, "locktime": 0, "vsize": 339, "size": 339}