{"hash": "e7582298a35f0b953eeb53f318fae5e28042cbb11e20a37972f68ae41af2c96e", "blockhash": "0000000000000000001f76057863aec43deb6fa401d9628bb513d65a8098bfab", "vout": [{"scriptPubKey": {"reqSigs": 1, "hex": "a914ae0fc4ba80d724ac8601d900ca9b660051ba244487", "addresses": ["3HZNPXyLoLbEp2ZtiS8v2PfPJKMuJWyvPG"], "asm": "OP_HASH160 ae0fc4ba80d724ac8601d900ca9b660051ba2444 OP_EQUAL", "type": "scripthash"}, "value": 0.00046128, "n": 0}, {"scriptPubKey": {"reqSigs": 1, "hex": "76a9149b78f9786264610b4285cf6b8c1221aa497a32f288ac", "addresses": ["1FB4fBxKTWtQBrYuJidbGyKhFpH6wAQZ6e"], "asm": "OP_DUP OP_HASH160 9b78f9786264610b4285cf6b8c1221aa497a32f2 OP_EQUALVERIFY OP_CHECKSIG", "type": "pubkeyhash"}, "value": 9.2e-06, "n": 1}], "hex": "010000000107db1a552de74a206eae1b91d7bf50ca6cef00489cde5cd26c3ae138906ff87b010000006a47304402205e2a90484c048f987a1377846573c0b76ae10e4688119cc86038cb5ffed9bfd00220753c56d0d75847e65a39c1f31c868984c3c941d7eca144553f5a85bc23c60d90012103824b3eb590558f64d92828dc4e0254f2654224d6ea67a3335395382a4dcbf5deffffffff0230b400000000000017a914ae0fc4ba80d724ac8601d900ca9b660051ba24448798030000000000001976a9149b78f9786264610b4285cf6b8c1221aa497a32f288ac00000000", "vin": [{"sequence": 4294967295, "scriptSig": {"hex": "47304402205e2a90484c048f987a1377846573c0b76ae10e4688119cc86038cb5ffed9bfd00220753c56d0d75847e65a39c1f31c868984c3c941d7eca144553f5a85bc23c60d90012103824b3eb590558f64d92828dc4e0254f2654224d6ea67a3335395382a4dcbf5de", "asm": "304402205e2a90484c048f987a1377846573c0b76ae10e4688119cc86038cb5ffed9bfd00220753c56d0d75847e65a39c1f31c868984c3c941d7eca144553f5a85bc23c60d90[ALL] 03824b3eb590558f64d92828dc4e0254f2654224d6ea67a3335395382a4dcbf5de"}, "vout": 1, "txid": "7bf86f9038e13a6cd25cde9c4800ef6cca50bfd7911bae6e204ae72d551adb07"}], "txid": "e7582298a35f0b953eeb53f318fae5e28042cbb11e20a37972f68ae41af2c96e", "blocktime": 1537873891, "version": 1, "confirmations": 11477, "time": 1537873891, "locktime": 0, "vsize": 223, "size": 223}