{"hash": "81e0d5b6c80e53742a5a0d1e708011270cad958985a8f86945853a9ffc65a394", "blockhash": "0000000000000000001cda96e906b7601b7a6fb1a3b62bca570a9e5d8f4b3de1", "vout": [{"scriptPubKey": {"reqSigs": 1, "hex": "76a914785001bb06843d08b126797b30e2d8dd3f01f61c88ac", "addresses": ["1By9vzEa5iXCvGSJ6cRNVe3vqNGwsdz6vB"], "asm": "OP_DUP OP_HASH160 785001bb06843d08b126797b30e2d8dd3f01f61c OP_EQUALVERIFY OP_CHECKSIG", "type": "pubkeyhash"}, "value": 0.01719699, "n": 0}, {"scriptPubKey": {"reqSigs": 1, "hex": "a914a2bdf6dca35ac9c6a9791833df78a8fa37f72fbe87", "addresses": ["3GXWxa6smMQCa1vtZkCNCKJV6tNo3Qq3jb"], "asm": "OP_HASH160 a2bdf6dca35ac9c6a9791833df78a8fa37f72fbe OP_EQUAL", "type": "scripthash"}, "value": 0.01279706, "n": 1}], "hex": "02000000000103a35f832799de6d962821337c76654f40023df390529c82683f09a69e35a5d5d00000000017160014df2c1225cfdd165a1d3e654c82cf907dee7ac621feffffffb2b9db1bfc3236f621fb5a64068e0ee63f5e8fc48c13714236fa543b1ec6590a01000000171600140942f70c0f2c90673fa930c70c86ce1ac1af0ac0feffffffeecd136bf1c0d816e6c5eb7cd90791280e5f224545319c52246bf19c2b5cd47e01000000171600144ea66f3aadd250a2b62d0942546e63b42f171f25feffffff02933d1a00000000001976a914785001bb06843d08b126797b30e2d8dd3f01f61c88acda8613000000000017a914a2bdf6dca35ac9c6a9791833df78a8fa37f72fbe87024830450221009d18ce22267a986396df71905dbccd5e2ae39435d8916c8ce09d968ac4a6e9c002201b55b3258866d77ad88049acbc72b786afad43aa55e9d2357299e96d79ef066e0121021f41a5757c863ef6661a0f5efe73bc0d480989f730aefade555167f33d9aec8002473044022057cc0c1864af817e2b1f3ea049ad245f9ea84b265d46b3ed2fd11bfe720d0bd60220062f87a48c6cf551b0f1bb41aff28fe6d3ce7cd4d173256eba608a423401a261012102540770048f67aef14a08944ae8d68ca4418940a9e059a69e3c5ec841b5fa6782024730440220636c4c75ed319bf6466d4653db701c4f4014ac4a6743e6e462530e5862269ab3022010c290cb95ef0167d329c94c51a60699f2e09e774c17ae340207e5d1c2ca40cc0121031c565d2a39fdcb73346e677ad785f3797bf0e6e567d94d118430004c957c9cbe00000000", "vin": [{"txinwitness": ["30450221009d18ce22267a986396df71905dbccd5e2ae39435d8916c8ce09d968ac4a6e9c002201b55b3258866d77ad88049acbc72b786afad43aa55e9d2357299e96d79ef066e01", "021f41a5757c863ef6661a0f5efe73bc0d480989f730aefade555167f33d9aec80"], "sequence": 4294967294, "scriptSig": {"hex": "160014df2c1225cfdd165a1d3e654c82cf907dee7ac621", "asm": "0014df2c1225cfdd165a1d3e654c82cf907dee7ac621"}, "vout": 0, "txid": "d0d5a5359ea6093f68829c5290f33d02404f65767c332128966dde9927835fa3"}, {"txinwitness": ["3044022057cc0c1864af817e2b1f3ea049ad245f9ea84b265d46b3ed2fd11bfe720d0bd60220062f87a48c6cf551b0f1bb41aff28fe6d3ce7cd4d173256eba608a423401a26101", "02540770048f67aef14a08944ae8d68ca4418940a9e059a69e3c5ec841b5fa6782"], "sequence": 4294967294, "scriptSig": {"hex": "1600140942f70c0f2c90673fa930c70c86ce1ac1af0ac0", "asm": "00140942f70c0f2c90673fa930c70c86ce1ac1af0ac0"}, "vout": 1, "txid": "0a59c61e3b54fa364271138cc48f5e3fe60e8e06645afb21f63632fc1bdbb9b2"}, {"txinwitness": ["30440220636c4c75ed319bf6466d4653db701c4f4014ac4a6743e6e462530e5862269ab3022010c290cb95ef0167d329c94c51a60699f2e09e774c17ae340207e5d1c2ca40cc01", "031c565d2a39fdcb73346e677ad785f3797bf0e6e567d94d118430004c957c9cbe"], "sequence": 4294967294, "scriptSig": {"hex": "1600144ea66f3aadd250a2b62d0942546e63b42f171f25", "asm": "00144ea66f3aadd250a2b62d0942546e63b42f171f25"}, "vout": 1, "txid": "7ed45c2b9cf16b24529c314545225f0e289107d97cebc5e616d8c0f16b13cdee"}], "txid": "e759b42153a57d0472c7b7f46d835ecd1c4b7e262c9fafe3f94b4eef1fd83cb3", "blocktime": 1537873282, "version": 2, "confirmations": 11485, "time": 1537873282, "locktime": 0, "vsize": 349, "size": 592}