{"hash": "e75d8d2774d64088e33ff041e419be17c24eba1fd5b55529030f9953d2cc15e3", "blockhash": "0000000000000000000dcc0f55137456b1a82d3642486a52398922ac4d620174", "vout": [{"scriptPubKey": {"reqSigs": 1, "hex": "76a914659ba7b12f8a732d51bae1baa86e170f4e50fde088ac", "addresses": ["1AGFiUgBuUgBHMvaqzwDeZzmWmd9qeAVRJ"], "asm": "OP_DUP OP_HASH160 659ba7b12f8a732d51bae1baa86e170f4e50fde0 OP_EQUALVERIFY OP_CHECKSIG", "type": "pubkeyhash"}, "value": 0.02478813, "n": 0}, {"scriptPubKey": {"reqSigs": 1, "hex": "76a914df26414ccc77ca2162a581a31e121c5aabe61c6788ac", "addresses": ["1MLuWngWquCb811r7XvJCYuQgFnvY2bZSD"], "asm": "OP_DUP OP_HASH160 df26414ccc77ca2162a581a31e121c5aabe61c67 OP_EQUALVERIFY OP_CHECKSIG", "type": "pubkeyhash"}, "value": 11.06598836, "n": 1}], "hex": "020000000130ef7ff3f4b4cf53e071fe5b37c04edf798f94177c52c0797f757c61746bc289010000006b483045022100bf4f9035551a6d372a6121e479212d0eda2f9e3bc4f55f30e18acc4ba4455ab90220630c20d037d734a8d33433697cd61a0788041dce63d7e3d6d58b0e00ea56fb65012102693bb259dc7efbbcf33b6c958fc49a1420bc35a396ad74b8172c05e9ff1dcb48ffffffff02ddd22500000000001976a914659ba7b12f8a732d51bae1baa86e170f4e50fde088acb45bf541000000001976a914df26414ccc77ca2162a581a31e121c5aabe61c6788ac00000000", "vin": [{"sequence": 4294967295, "scriptSig": {"hex": "483045022100bf4f9035551a6d372a6121e479212d0eda2f9e3bc4f55f30e18acc4ba4455ab90220630c20d037d734a8d33433697cd61a0788041dce63d7e3d6d58b0e00ea56fb65012102693bb259dc7efbbcf33b6c958fc49a1420bc35a396ad74b8172c05e9ff1dcb48", "asm": "3045022100bf4f9035551a6d372a6121e479212d0eda2f9e3bc4f55f30e18acc4ba4455ab90220630c20d037d734a8d33433697cd61a0788041dce63d7e3d6d58b0e00ea56fb65[ALL] 02693bb259dc7efbbcf33b6c958fc49a1420bc35a396ad74b8172c05e9ff1dcb48"}, "vout": 1, "txid": "89c26b74617c757f79c0527c17948f79df4ec0375bfe71e053cfb4f4f37fef30"}], "txid": "e75d8d2774d64088e33ff041e419be17c24eba1fd5b55529030f9953d2cc15e3", "blocktime": 1537870268, "version": 2, "confirmations": 11518, "time": 1537870268, "locktime": 0, "vsize": 226, "size": 226}