{"hash": "e75d50d282dcc5f634e9a12ec93f53d14ac003a0226626163955940f616498fc", "blockhash": "0000000000000000000e13cef7c366c0283d82e591d1acd082e914b08063cdf1", "vout": [{"scriptPubKey": {"reqSigs": 1, "hex": "a9148de452f7bce4a6634314d8decc9067465da93d0f87", "addresses": ["3EdGipyP13YShgjNPoJxwHiSS7LhpLB2t5"], "asm": "OP_HASH160 8de452f7bce4a6634314d8decc9067465da93d0f OP_EQUAL", "type": "scripthash"}, "value": 0.00933841, "n": 0}], "hex": "010000000103ef04868c9163fdc14a6088a44bec2496c4ce5d0b2afe8a01baef3b5af3ecd4010000006b48304502210082d48e37a2b0dcd0e30447f0bfbad20eddffe13470b541ffeb05f47e0ee636ed022015382899d12dccfa2496905149829565ab6fcc323f8c232d0b5d04a5d858d19e012102493bf3df8809b7c02ab5381c5c15cff127f9b7e104ee8d3a7d94883034bcba7bffffffff01d13f0e000000000017a9148de452f7bce4a6634314d8decc9067465da93d0f8700000000", "vin": [{"sequence": 4294967295, "scriptSig": {"hex": "48304502210082d48e37a2b0dcd0e30447f0bfbad20eddffe13470b541ffeb05f47e0ee636ed022015382899d12dccfa2496905149829565ab6fcc323f8c232d0b5d04a5d858d19e012102493bf3df8809b7c02ab5381c5c15cff127f9b7e104ee8d3a7d94883034bcba7b", "asm": "304502210082d48e37a2b0dcd0e30447f0bfbad20eddffe13470b541ffeb05f47e0ee636ed022015382899d12dccfa2496905149829565ab6fcc323f8c232d0b5d04a5d858d19e[ALL] 02493bf3df8809b7c02ab5381c5c15cff127f9b7e104ee8d3a7d94883034bcba7b"}, "vout": 1, "txid": "d4ecf35a3befba018afe2a0b5dcec49624ec4ba488604ac1fd63918c8604ef03"}], "txid": "e75d50d282dcc5f634e9a12ec93f53d14ac003a0226626163955940f616498fc", "blocktime": 1537871767, "version": 1, "confirmations": 11495, "time": 1537871767, "locktime": 0, "vsize": 190, "size": 190}