{"hash": "fb52b023eb3927b3c63cab5e81ce82ffd3e71d13312ada2eacf82d268c27107e", "blockhash": "0000000000000000001cda96e906b7601b7a6fb1a3b62bca570a9e5d8f4b3de1", "vout": [{"scriptPubKey": {"reqSigs": 1, "hex": "76a914a8d14ccf350599411331bfc3c7a17d02dc078df988ac", "addresses": ["1GPdFeeGJHdEZWYKu2yStedN2EGhNbmSXs"], "asm": "OP_DUP OP_HASH160 a8d14ccf350599411331bfc3c7a17d02dc078df9 OP_EQUALVERIFY OP_CHECKSIG", "type": "pubkeyhash"}, "value": 0.00201584, "n": 0}, {"scriptPubKey": {"reqSigs": 1, "hex": "a91424a6d52ea60d5ed31ca1390dad2c110fe94463fb87", "addresses": ["352p7C5eVKR2eUQTPpnqDHAMvnvh7kukkV"], "asm": "OP_HASH160 24a6d52ea60d5ed31ca1390dad2c110fe94463fb OP_EQUAL", "type": "scripthash"}, "value": 0.01044922, "n": 1}], "hex": "020000000001016265c87399bb13a65754cb736ccac764847ee28e9f7a0d1d3db6003f45a4921d000000001716001402cb20318fcf71f4788b0a139777f38221a063affeffffff0270130300000000001976a914a8d14ccf350599411331bfc3c7a17d02dc078df988acbaf10f000000000017a91424a6d52ea60d5ed31ca1390dad2c110fe94463fb8702483045022100de24823d0bee656b285dc4c50905bcfd8e4c5cd5edc844d5e03c357d584d045f02207f5a280f100b0a49840e6070537b911b77ca40335cd7f58c73f097e7a4b051af01210244813c6a8ae7f978726ee029d8b77d355533dc9d57997d7a0b22460557ac63f813490800", "vin": [{"txinwitness": ["3045022100de24823d0bee656b285dc4c50905bcfd8e4c5cd5edc844d5e03c357d584d045f02207f5a280f100b0a49840e6070537b911b77ca40335cd7f58c73f097e7a4b051af01", "0244813c6a8ae7f978726ee029d8b77d355533dc9d57997d7a0b22460557ac63f8"], "sequence": 4294967294, "scriptSig": {"hex": "16001402cb20318fcf71f4788b0a139777f38221a063af", "asm": "001402cb20318fcf71f4788b0a139777f38221a063af"}, "vout": 0, "txid": "1d92a4453f00b63d1d0d7a9f8ee27e8464c7ca6c73cb5457a613bb9973c86562"}], "txid": "e7627f26b3edf012df776b28be1eced322f03cfe1066e575613c0a4eb9fa2027", "blocktime": 1537873282, "version": 2, "confirmations": 11484, "time": 1537873282, "locktime": 542995, "vsize": 168, "size": 250}