{"hash": "e76da7e69b7e02971da96394b89f6c7f25ec225e65984c7a926917ca66e325f6", "blockhash": "0000000000000000000dcc0f55137456b1a82d3642486a52398922ac4d620174", "vout": [{"scriptPubKey": {"reqSigs": 1, "hex": "76a914a378e9f697d9a53f7383ff5f9b4f5ea297f336e988ac", "addresses": ["1FuMzWrZLCuFiUbEN8EFx3DjggrmkqgiN7"], "asm": "OP_DUP OP_HASH160 a378e9f697d9a53f7383ff5f9b4f5ea297f336e9 OP_EQUALVERIFY OP_CHECKSIG", "type": "pubkeyhash"}, "value": 0.0154381, "n": 0}, {"scriptPubKey": {"reqSigs": 1, "hex": "76a914f001be518ed70af0319ebc352cf910467a90443f88ac", "addresses": ["1Nt3GB9xq22Gfa4RYwJddXhdwgCCKmTeLx"], "asm": "OP_DUP OP_HASH160 f001be518ed70af0319ebc352cf910467a90443f OP_EQUALVERIFY OP_CHECKSIG", "type": "pubkeyhash"}, "value": 0.08899755, "n": 1}], "hex": "0100000001d9fe54c92fab09c93fd45d22203068d2161c7491ccd67af62f0b9233f6ccff6f010000006a47304402200af482a6f66eb3b02effeddbe97a920930ab8417ae48bb52cce4a3d72d8b44bf022046acef507c2cafb5921dd836e4a4936a9d12c1f37695d7e21c6eb4412e7cd8d901210311adce3ffb41f5e7d624cbc21c70655824e6288e588dc8bd074b3fe6ca02c7f2ffffffff02828e1700000000001976a914a378e9f697d9a53f7383ff5f9b4f5ea297f336e988acabcc8700000000001976a914f001be518ed70af0319ebc352cf910467a90443f88ac00000000", "vin": [{"sequence": 4294967295, "scriptSig": {"hex": "47304402200af482a6f66eb3b02effeddbe97a920930ab8417ae48bb52cce4a3d72d8b44bf022046acef507c2cafb5921dd836e4a4936a9d12c1f37695d7e21c6eb4412e7cd8d901210311adce3ffb41f5e7d624cbc21c70655824e6288e588dc8bd074b3fe6ca02c7f2", "asm": "304402200af482a6f66eb3b02effeddbe97a920930ab8417ae48bb52cce4a3d72d8b44bf022046acef507c2cafb5921dd836e4a4936a9d12c1f37695d7e21c6eb4412e7cd8d9[ALL] 0311adce3ffb41f5e7d624cbc21c70655824e6288e588dc8bd074b3fe6ca02c7f2"}, "vout": 1, "txid": "6fffccf633920b2ff67ad6cc91741c16d2683020225dd43fc909ab2fc954fed9"}], "txid": "e76da7e69b7e02971da96394b89f6c7f25ec225e65984c7a926917ca66e325f6", "blocktime": 1537870268, "version": 1, "confirmations": 11518, "time": 1537870268, "locktime": 0, "vsize": 225, "size": 225}