{"hash": "cf7c9c0fdd0cfa76ef8311d82fb535f144b2ba9ec784deee7f588f7c41b2682f", "blockhash": "0000000000000000000e13cef7c366c0283d82e591d1acd082e914b08063cdf1", "vout": [{"scriptPubKey": {"reqSigs": 1, "hex": "76a91485f2d3b5965ffdb14dafa198e49e7b0ad8f8c83988ac", "addresses": ["1DDFmRrMaQX5WgT7ZP1LpjCfKEmkvk426Z"], "asm": "OP_DUP OP_HASH160 85f2d3b5965ffdb14dafa198e49e7b0ad8f8c839 OP_EQUALVERIFY OP_CHECKSIG", "type": "pubkeyhash"}, "value": 0.04023909, "n": 0}], "hex": "010000000001014eba170b1d17ae963be511feb61c4c936135c90a8d99247a1562d61da29001cc010000002322002031ad2bd92e33ce35fccd049b4bc86495f89f6113c53eb4a9cd4759881512f363ffffffff0165663d00000000001976a91485f2d3b5965ffdb14dafa198e49e7b0ad8f8c83988ac040047304402202ab28e5ac97abce93bd79f45fe7c96cff827f04e1d62c999619a265d1845ba2102202a40e7cd038ebbadee8efb0ab6c0d08a41dc02af3bc0029b85e17c4ba2c461440148304502210099d62df0b47c7c518ee9bc245be0477c4eaba7d2112019a7ee0666b11087766a022003d5cb8d8b862a6af24558880db92b6a85daeace7da7d5b7d3e3d5a930ad6f6301475221030395b52e09b640bbd9ef71890557c5e7d2dc550309219945c047502f35d36ec62103195485cf09cfec7a2dadac75c8673718421f8d88cee66ade79cad49a0ff15d7952ae00000000", "vin": [{"txinwitness": ["", "304402202ab28e5ac97abce93bd79f45fe7c96cff827f04e1d62c999619a265d1845ba2102202a40e7cd038ebbadee8efb0ab6c0d08a41dc02af3bc0029b85e17c4ba2c4614401", "304502210099d62df0b47c7c518ee9bc245be0477c4eaba7d2112019a7ee0666b11087766a022003d5cb8d8b862a6af24558880db92b6a85daeace7da7d5b7d3e3d5a930ad6f6301", "5221030395b52e09b640bbd9ef71890557c5e7d2dc550309219945c047502f35d36ec62103195485cf09cfec7a2dadac75c8673718421f8d88cee66ade79cad49a0ff15d7952ae"], "sequence": 4294967295, "scriptSig": {"hex": "22002031ad2bd92e33ce35fccd049b4bc86495f89f6113c53eb4a9cd4759881512f363", "asm": "002031ad2bd92e33ce35fccd049b4bc86495f89f6113c53eb4a9cd4759881512f363"}, "vout": 1, "txid": "cc0190a21dd662157a24998d0ac93561934c1cb6fe11e53b96ae171d0b17ba4e"}], "txid": "e76f0d86809f21a28756856904329aecebf57a76582c82c6a6a62622aae78d88", "blocktime": 1537871767, "version": 1, "confirmations": 11495, "time": 1537871767, "locktime": 0, "vsize": 176, "size": 341}