{"hash": "e771a0bf1de6dfdd356d6cf5f42db671e6744560ed36b731cda05525577fa5d4", "blockhash": "0000000000000000001f76057863aec43deb6fa401d9628bb513d65a8098bfab", "vout": [{"scriptPubKey": {"reqSigs": 1, "hex": "76a914303352ca27dff79d3f90a4b1dec5c5cda4f5d5a588ac", "addresses": ["15PrvDm7ioT364cxEBd8ueDRDqBAwWXDyv"], "asm": "OP_DUP OP_HASH160 303352ca27dff79d3f90a4b1dec5c5cda4f5d5a5 OP_EQUALVERIFY OP_CHECKSIG", "type": "pubkeyhash"}, "value": 0.00591173, "n": 0}, {"scriptPubKey": {"reqSigs": 1, "hex": "76a914cca2f68cd0dee9404db55d52394ac2b201c2a0c388ac", "addresses": ["1Kf251R1TaNjjtH4pcGrephCF3S5vdzWc8"], "asm": "OP_DUP OP_HASH160 cca2f68cd0dee9404db55d52394ac2b201c2a0c3 OP_EQUALVERIFY OP_CHECKSIG", "type": "pubkeyhash"}, "value": 0.25, "n": 1}], "hex": "010000000901c1a0b74fb2f6bf82d6c1c52cf00f6cf22b257007ab1e2e6f39e84d34eaea040000000068453042021e3899cb20e197cd64e5ba1ad0c3a0fddf6e7501e97210004e39f3bbb3d93002201ab06d46c3009a3d987dfca10a3007e34efcdbd273bbf47ae62fdff8288236a8012102ae4e7cb714f89a3e43d3978a2fdbb9d2be987c64aaa293dbf36b3c1d4601eac0ffffffff839f04b8cd4ab1e549aec5e110ab9b94dcd21f8604fe3934510e07e40ef1e310000000006a47304402204c293e83e05cc47bd1d86793ddf821779e79c7bd967ba25624f4737c2dbfc05002203203a90e32611a5021532b98c38c8798cf88560850db9f448b578f8565978f90012102ae4e7cb714f89a3e43d3978a2fdbb9d2be987c64aaa293dbf36b3c1d4601eac0ffffffffa667db4fa7bb431b900a1957166f128a8f7a45ad602cdde198bdd67293ff6023000000006a4730440220166b8f465ba7b7227cbec1579d44649f7c9317fffa9dc35991260ea6543f71270220058453c8c5c8d900f2312ff7772d418cb6b819d234da3c4032e280b7c814ee6b012103717adcfa515b90f304c910053753c9ae08bb53588bb433331eb96a7b2c4d5edbffffffffe6645d2036fda17fc1b34f50c1357aaf1f78155c8a0ca14dc41a34f6c3931950000000006a47304402205188a068feee35d3332eaca4a4be41f7e6a336f4d1ba30dd22b03b72d2be32f30220737cc99e8be5520ed36121d2ba6645c3ff502364ffd1f331fc59311858fa137e0121035ae5bef9aa6f069aabba5a94aba8418bd8ef25a9be0aa8cb4799e305b97a8654ffffffff2b29a0a7456dce73378cec4d6ca84f4f199a00b5e39ec7cb4f57bea81b1ea274000000006b4830450221008184a6c5a8e6b9683ecde5e0b95067d49f8f221fe158167f6eff7bfc219dbfaa022039725918269782833eda67186d1206447c30b7b734fea0985c72674eb086597a012102ae4e7cb714f89a3e43d3978a2fdbb9d2be987c64aaa293dbf36b3c1d4601eac0ffffffffc437bc0d1598990bf654dfe80cc4f42295e30f78924a3916fc5a913e33fae678000000006b483045022100da04cb7fed95f072417698d4662e4a6ff9b29b24bc75953936658209ed738bc502205628419cca0ef2d755f712700bc582a616b3da07637577d181d5da546a7bb8bd012102ae4e7cb714f89a3e43d3978a2fdbb9d2be987c64aaa293dbf36b3c1d4601eac0ffffffff146a778d29c12fbd2968523b1c18017a45ce20f2596704f6663dc030e796417f000000006b483045022100dd0afdd3daac08163466dd00f8ac877a94e9e8149894b35168ddcef3edca230102205e406daa6694b6e00f4189c3028d0e2d6c829f9a141eb819f3fceec1763374af012102ae4e7cb714f89a3e43d3978a2fdbb9d2be987c64aaa293dbf36b3c1d4601eac0ffffffff5bab8bed8c43c0a079439823a8f5e426fe911b362188fc9b1c295f0b28f9f68a000000006b48304502210082d0981ece841d15487a9d9a564e0b511e7479a85d7fa866731f4a2a907c1fc00220139a049b44e2149dba8ebbfc7544b906d60dea715c2077d4835b686c5ec27c3f012102ae4e7cb714f89a3e43d3978a2fdbb9d2be987c64aaa293dbf36b3c1d4601eac0ffffffff3eea79a46c0d9839b7345ce7a020766e2f92e7b9c529956e31549ddb305eff94000000006b483045022100fd5dd31e0582dcbbd06e3f998f4467624e32c5eaf0482d756a88c1f33246b65b0220789484037d3de7c061c657994bf3005c776c0fe524ace798dfc21d421c900b4c012102ae4e7cb714f89a3e43d3978a2fdbb9d2be987c64aaa293dbf36b3c1d4601eac0ffffffff0245050900000000001976a914303352ca27dff79d3f90a4b1dec5c5cda4f5d5a588ac40787d01000000001976a914cca2f68cd0dee9404db55d52394ac2b201c2a0c388ac00000000", "vin": [{"sequence": 4294967295, "scriptSig": {"hex": "453042021e3899cb20e197cd64e5ba1ad0c3a0fddf6e7501e97210004e39f3bbb3d93002201ab06d46c3009a3d987dfca10a3007e34efcdbd273bbf47ae62fdff8288236a8012102ae4e7cb714f89a3e43d3978a2fdbb9d2be987c64aaa293dbf36b3c1d4601eac0", "asm": "3042021e3899cb20e197cd64e5ba1ad0c3a0fddf6e7501e97210004e39f3bbb3d93002201ab06d46c3009a3d987dfca10a3007e34efcdbd273bbf47ae62fdff8288236a8[ALL] 02ae4e7cb714f89a3e43d3978a2fdbb9d2be987c64aaa293dbf36b3c1d4601eac0"}, "vout": 0, "txid": "04eaea344de8396f2e1eab0770252bf26c0ff02cc5c1d682bff6b24fb7a0c101"}, {"sequence": 4294967295, "scriptSig": {"hex": "47304402204c293e83e05cc47bd1d86793ddf821779e79c7bd967ba25624f4737c2dbfc05002203203a90e32611a5021532b98c38c8798cf88560850db9f448b578f8565978f90012102ae4e7cb714f89a3e43d3978a2fdbb9d2be987c64aaa293dbf36b3c1d4601eac0", "asm": "304402204c293e83e05cc47bd1d86793ddf821779e79c7bd967ba25624f4737c2dbfc05002203203a90e32611a5021532b98c38c8798cf88560850db9f448b578f8565978f90[ALL] 02ae4e7cb714f89a3e43d3978a2fdbb9d2be987c64aaa293dbf36b3c1d4601eac0"}, "vout": 0, "txid": "10e3f10ee4070e513439fe04861fd2dc949bab10e1c5ae49e5b14acdb8049f83"}, {"sequence": 4294967295, "scriptSig": {"hex": "4730440220166b8f465ba7b7227cbec1579d44649f7c9317fffa9dc35991260ea6543f71270220058453c8c5c8d900f2312ff7772d418cb6b819d234da3c4032e280b7c814ee6b012103717adcfa515b90f304c910053753c9ae08bb53588bb433331eb96a7b2c4d5edb", "asm": "30440220166b8f465ba7b7227cbec1579d44649f7c9317fffa9dc35991260ea6543f71270220058453c8c5c8d900f2312ff7772d418cb6b819d234da3c4032e280b7c814ee6b[ALL] 03717adcfa515b90f304c910053753c9ae08bb53588bb433331eb96a7b2c4d5edb"}, "vout": 0, "txid": "2360ff9372d6bd98e1dd2c60ad457a8f8a126f1657190a901b43bba74fdb67a6"}, {"sequence": 4294967295, "scriptSig": {"hex": "47304402205188a068feee35d3332eaca4a4be41f7e6a336f4d1ba30dd22b03b72d2be32f30220737cc99e8be5520ed36121d2ba6645c3ff502364ffd1f331fc59311858fa137e0121035ae5bef9aa6f069aabba5a94aba8418bd8ef25a9be0aa8cb4799e305b97a8654", "asm": "304402205188a068feee35d3332eaca4a4be41f7e6a336f4d1ba30dd22b03b72d2be32f30220737cc99e8be5520ed36121d2ba6645c3ff502364ffd1f331fc59311858fa137e[ALL] 035ae5bef9aa6f069aabba5a94aba8418bd8ef25a9be0aa8cb4799e305b97a8654"}, "vout": 0, "txid": "501993c3f6341ac44da10c8a5c15781faf7a35c1504fb3c17fa1fd36205d64e6"}, {"sequence": 4294967295, "scriptSig": {"hex": "4830450221008184a6c5a8e6b9683ecde5e0b95067d49f8f221fe158167f6eff7bfc219dbfaa022039725918269782833eda67186d1206447c30b7b734fea0985c72674eb086597a012102ae4e7cb714f89a3e43d3978a2fdbb9d2be987c64aaa293dbf36b3c1d4601eac0", "asm": "30450221008184a6c5a8e6b9683ecde5e0b95067d49f8f221fe158167f6eff7bfc219dbfaa022039725918269782833eda67186d1206447c30b7b734fea0985c72674eb086597a[ALL] 02ae4e7cb714f89a3e43d3978a2fdbb9d2be987c64aaa293dbf36b3c1d4601eac0"}, "vout": 0, "txid": "74a21e1ba8be574fcbc79ee3b5009a194f4fa86c4dec8c3773ce6d45a7a0292b"}, {"sequence": 4294967295, "scriptSig": {"hex": "483045022100da04cb7fed95f072417698d4662e4a6ff9b29b24bc75953936658209ed738bc502205628419cca0ef2d755f712700bc582a616b3da07637577d181d5da546a7bb8bd012102ae4e7cb714f89a3e43d3978a2fdbb9d2be987c64aaa293dbf36b3c1d4601eac0", "asm": "3045022100da04cb7fed95f072417698d4662e4a6ff9b29b24bc75953936658209ed738bc502205628419cca0ef2d755f712700bc582a616b3da07637577d181d5da546a7bb8bd[ALL] 02ae4e7cb714f89a3e43d3978a2fdbb9d2be987c64aaa293dbf36b3c1d4601eac0"}, "vout": 0, "txid": "78e6fa333e915afc16394a92780fe39522f4c40ce8df54f60b9998150dbc37c4"}, {"sequence": 4294967295, "scriptSig": {"hex": "483045022100dd0afdd3daac08163466dd00f8ac877a94e9e8149894b35168ddcef3edca230102205e406daa6694b6e00f4189c3028d0e2d6c829f9a141eb819f3fceec1763374af012102ae4e7cb714f89a3e43d3978a2fdbb9d2be987c64aaa293dbf36b3c1d4601eac0", "asm": "3045022100dd0afdd3daac08163466dd00f8ac877a94e9e8149894b35168ddcef3edca230102205e406daa6694b6e00f4189c3028d0e2d6c829f9a141eb819f3fceec1763374af[ALL] 02ae4e7cb714f89a3e43d3978a2fdbb9d2be987c64aaa293dbf36b3c1d4601eac0"}, "vout": 0, "txid": "7f4196e730c03d66f6046759f220ce457a01181c3b526829bd2fc1298d776a14"}, {"sequence": 4294967295, "scriptSig": {"hex": "48304502210082d0981ece841d15487a9d9a564e0b511e7479a85d7fa866731f4a2a907c1fc00220139a049b44e2149dba8ebbfc7544b906d60dea715c2077d4835b686c5ec27c3f012102ae4e7cb714f89a3e43d3978a2fdbb9d2be987c64aaa293dbf36b3c1d4601eac0", "asm": "304502210082d0981ece841d15487a9d9a564e0b511e7479a85d7fa866731f4a2a907c1fc00220139a049b44e2149dba8ebbfc7544b906d60dea715c2077d4835b686c5ec27c3f[ALL] 02ae4e7cb714f89a3e43d3978a2fdbb9d2be987c64aaa293dbf36b3c1d4601eac0"}, "vout": 0, "txid": "8af6f9280b5f291c9bfc8821361b91fe26e4f5a823984379a0c0438ced8bab5b"}, {"sequence": 4294967295, "scriptSig": {"hex": "483045022100fd5dd31e0582dcbbd06e3f998f4467624e32c5eaf0482d756a88c1f33246b65b0220789484037d3de7c061c657994bf3005c776c0fe524ace798dfc21d421c900b4c012102ae4e7cb714f89a3e43d3978a2fdbb9d2be987c64aaa293dbf36b3c1d4601eac0", "asm": "3045022100fd5dd31e0582dcbbd06e3f998f4467624e32c5eaf0482d756a88c1f33246b65b0220789484037d3de7c061c657994bf3005c776c0fe524ace798dfc21d421c900b4c[ALL] 02ae4e7cb714f89a3e43d3978a2fdbb9d2be987c64aaa293dbf36b3c1d4601eac0"}, "vout": 0, "txid": "94ff5e30db9d54316e9529c5b9e7922f6e7620a0e75c34b739980d6ca479ea3e"}], "txid": "e771a0bf1de6dfdd356d6cf5f42db671e6744560ed36b731cda05525577fa5d4", "blocktime": 1537873891, "version": 1, "confirmations": 11478, "time": 1537873891, "locktime": 0, "vsize": 1404, "size": 1404}