{"hash": "35429822648e27b457b8244e32337e55078d225ffcd27df0841bb54490ff9576", "blockhash": "0000000000000000001cda96e906b7601b7a6fb1a3b62bca570a9e5d8f4b3de1", "vout": [{"scriptPubKey": {"reqSigs": 1, "hex": "76a914c2eea62831b2a071d593f96bd28b010fc81b6e0a88ac", "addresses": ["1JmhyqpyXgASytsMkPa5hAfDLnW13WXH9u"], "asm": "OP_DUP OP_HASH160 c2eea62831b2a071d593f96bd28b010fc81b6e0a OP_EQUALVERIFY OP_CHECKSIG", "type": "pubkeyhash"}, "value": 0.03238742, "n": 0}], "hex": "01000000000103b3a173c722eccd587edc5877ed01a6ddcffd771a4ff861c93d172d8e58786fa50000000000ffffffffaee70924490faac7ce33db42b9a6269d0ce04899b7c651152364678fad44be470100000000ffffffff2ea0c91943c57742bfef1035541ca1b141077ae1b4a0581350d9afe18841e67e000000006a473044022029321f340320ed12d5d36aaf03ef4e9b33aa005d2f5f744d7e3d08cf9b6cc73402201a6654835236ad9ab5a790c6f3f753c5c3bb1bb885c75700e977fda68cb1f2a4012102e4781219d906ee4dd5ad6b9af0ba888c2adc584da970a3ece9277f0bd1b70defffffffff01566b3100000000001976a914c2eea62831b2a071d593f96bd28b010fc81b6e0a88ac02483045022100e858753c6527a0e6054ee7b44ed3e084f628cac188e6c87fc2a2828ddadbd0f00220056eac2fcfe0a9541a4d08637773a8aea5b84ffeea332a273968b7b8aec1daaa01210386c8bf4abe3a2741504a9da95aee258b6dd0004c0bad0ae089df0e691e10a0f802483045022100b7de771159cabc5aa6f92310c83ce9a6974067b0a4a346baf55b5056decc02f702204ff7f3b02ac8940601dd2a2c6bfb246e93593fc1a932af1bbbb4fd2a458dd70d01210307ff87ea27916d19f7e7ed104b938f501436b240aac9c65ff4e22579d59d343c0000000000", "vin": [{"txinwitness": ["3045022100e858753c6527a0e6054ee7b44ed3e084f628cac188e6c87fc2a2828ddadbd0f00220056eac2fcfe0a9541a4d08637773a8aea5b84ffeea332a273968b7b8aec1daaa01", "0386c8bf4abe3a2741504a9da95aee258b6dd0004c0bad0ae089df0e691e10a0f8"], "sequence": 4294967295, "scriptSig": {"hex": "", "asm": ""}, "vout": 0, "txid": "a56f78588e2d173dc961f84f1a77fdcfdda601ed7758dc7e58cdec22c773a1b3"}, {"txinwitness": ["3045022100b7de771159cabc5aa6f92310c83ce9a6974067b0a4a346baf55b5056decc02f702204ff7f3b02ac8940601dd2a2c6bfb246e93593fc1a932af1bbbb4fd2a458dd70d01", "0307ff87ea27916d19f7e7ed104b938f501436b240aac9c65ff4e22579d59d343c"], "sequence": 4294967295, "scriptSig": {"hex": "", "asm": ""}, "vout": 1, "txid": "47be44ad8f6764231551c6b79948e00c9d26a6b942db33cec7aa0f492409e7ae"}, {"sequence": 4294967295, "scriptSig": {"hex": "473044022029321f340320ed12d5d36aaf03ef4e9b33aa005d2f5f744d7e3d08cf9b6cc73402201a6654835236ad9ab5a790c6f3f753c5c3bb1bb885c75700e977fda68cb1f2a4012102e4781219d906ee4dd5ad6b9af0ba888c2adc584da970a3ece9277f0bd1b70def", "asm": "3044022029321f340320ed12d5d36aaf03ef4e9b33aa005d2f5f744d7e3d08cf9b6cc73402201a6654835236ad9ab5a790c6f3f753c5c3bb1bb885c75700e977fda68cb1f2a4[ALL] 02e4781219d906ee4dd5ad6b9af0ba888c2adc584da970a3ece9277f0bd1b70def"}, "vout": 0, "txid": "7ee64188e1afd9501358a0b4e17a0741b1a11c543510efbf4277c54319c9a02e"}], "txid": "e773bcf1010b81ce49b7e21863fb7aa5ddd10c390055a9c41f8b9f541476e066", "blocktime": 1537873282, "version": 1, "confirmations": 11481, "time": 1537873282, "locktime": 0, "vsize": 328, "size": 492}