{"hash": "e78654654557be6d2c940773cc20006e0830fdd51cc7d4d2543f528ece363242", "blockhash": "0000000000000000000e13cef7c366c0283d82e591d1acd082e914b08063cdf1", "vout": [{"scriptPubKey": {"reqSigs": 1, "hex": "76a914e5e150f0c0045082753163198c8889a11754632188ac", "addresses": ["1MxVfAwTJ23meWNERQUiewnKTCrkD4jwfe"], "asm": "OP_DUP OP_HASH160 e5e150f0c0045082753163198c8889a117546321 OP_EQUALVERIFY OP_CHECKSIG", "type": "pubkeyhash"}, "value": 0.00192393, "n": 0}, {"scriptPubKey": {"reqSigs": 1, "hex": "76a9149fe975b52ca4075c3ed1abe3b59df7be20f2b4d388ac", "addresses": ["1FaY7aBGyHLvYtczudsc7DD32QfsBHvpMy"], "asm": "OP_DUP OP_HASH160 9fe975b52ca4075c3ed1abe3b59df7be20f2b4d3 OP_EQUALVERIFY OP_CHECKSIG", "type": "pubkeyhash"}, "value": 0.07768, "n": 1}], "hex": "0100000006048f9615436e1e72e5e4f51ef570a883884edbe4f1c3a21ac6c39abed162d400010000006a47304402203a89cec308475dd51609c014c287d7f2459b187baf3b298b3283f9031fdea89c022002b3a0d1d296b8a8ff3ac04154576aa39f89c7b0f8caf1e535b655040c00ef4e01210348b2003b2258f1fedacb9d7e060136c70235d656ae12d49f9aa56a457ee7ae8affffffff07039146bb31b75e9f13c0da8fc77ae8dac5d773382751995ffffee0fda74918010000006a47304402201ff6f0fa29476657b442ccd109adb39fccd28f783b6090e17e37936ad7c7662e02201643d64f50ab4747bb15cee81b429130422b90c5c7d4a5a652d3aaaebee76d54012102c25dfb436ecd3268d8f10cb8d49f6e17900f2c05289031892207c3fb259995d7ffffffffc7ec31a0cb7607472524a673315564c5b4b0c62cb6cb9b80bc1408b7a1d24d34010000006a47304402201120c6ec566a1cc31bf98b86ea9c4751d01b5cf7ee0c94bc8a5dd3352886620002206de7ed9179b80c2b8a107ec99bda9134851392073cb3e15570059a894bea1b6b012102a8072af0ae6b6eb50f370893aefd5dac55ef931d068ddf75ccd3d7860690d2ecffffffff87b187e383c260cf2c4ad450597bb0060446edca95e03befb58c61e2e893acc3010000006b483045022100d65a25d80ea28635ef7e40cd4788279021e1ee1cb4739c61cb9087e54b24fd63022037f10db0ddce13ad66c3b6b4001f1bb753448849b08be5c30515ce7dd275d2780121037f944e9e04fd319da9c7a6c8ca98d6f484bad72bbb0d81e5ae1c8ea5866ada79ffffffff456cb4f215c7a471acc47356cb0c87ece2aa11e9d27caf9ca846e9f2d0da5edd010000006b483045022100a002c5efc62ea623e3296ca5df1ee7878ed67af412e8b917becb4ecc246a78e602204da4d61b488601a3760bfdb84abac3605168b5be38d009327f455a927524bb0a012102096eafd2813b4e252aba21780642a5846c015a4b363ea72072afce613d3c8337fffffffff46ed2b06abb9806b1f2ecb89db3dd3b85b68add2d06878564e1c4710c5364fb010000006a473044022003ee516cd95349043ab34e3e3d0e8b35c340d15bb45d5fc2790698636dd54067022061c27673ab7aadf5b942309bc5d196fad6694e7152d1329b94ec423d77ac64370121026fe8ba8497e235083e29c54a03fc4246e11390ca85e9220a7865c792d347fea5ffffffff0289ef0200000000001976a914e5e150f0c0045082753163198c8889a11754632188acc0877600000000001976a9149fe975b52ca4075c3ed1abe3b59df7be20f2b4d388ac00000000", "vin": [{"sequence": 4294967295, "scriptSig": {"hex": "47304402203a89cec308475dd51609c014c287d7f2459b187baf3b298b3283f9031fdea89c022002b3a0d1d296b8a8ff3ac04154576aa39f89c7b0f8caf1e535b655040c00ef4e01210348b2003b2258f1fedacb9d7e060136c70235d656ae12d49f9aa56a457ee7ae8a", "asm": "304402203a89cec308475dd51609c014c287d7f2459b187baf3b298b3283f9031fdea89c022002b3a0d1d296b8a8ff3ac04154576aa39f89c7b0f8caf1e535b655040c00ef4e[ALL] 0348b2003b2258f1fedacb9d7e060136c70235d656ae12d49f9aa56a457ee7ae8a"}, "vout": 1, "txid": "00d462d1be9ac3c61aa2c3f1e4db4e8883a870f51ef5e4e5721e6e4315968f04"}, {"sequence": 4294967295, "scriptSig": {"hex": "47304402201ff6f0fa29476657b442ccd109adb39fccd28f783b6090e17e37936ad7c7662e02201643d64f50ab4747bb15cee81b429130422b90c5c7d4a5a652d3aaaebee76d54012102c25dfb436ecd3268d8f10cb8d49f6e17900f2c05289031892207c3fb259995d7", "asm": "304402201ff6f0fa29476657b442ccd109adb39fccd28f783b6090e17e37936ad7c7662e02201643d64f50ab4747bb15cee81b429130422b90c5c7d4a5a652d3aaaebee76d54[ALL] 02c25dfb436ecd3268d8f10cb8d49f6e17900f2c05289031892207c3fb259995d7"}, "vout": 1, "txid": "1849a7fde0feff5f9951273873d7c5dae87ac78fdac0139f5eb731bb46910307"}, {"sequence": 4294967295, "scriptSig": {"hex": "47304402201120c6ec566a1cc31bf98b86ea9c4751d01b5cf7ee0c94bc8a5dd3352886620002206de7ed9179b80c2b8a107ec99bda9134851392073cb3e15570059a894bea1b6b012102a8072af0ae6b6eb50f370893aefd5dac55ef931d068ddf75ccd3d7860690d2ec", "asm": "304402201120c6ec566a1cc31bf98b86ea9c4751d01b5cf7ee0c94bc8a5dd3352886620002206de7ed9179b80c2b8a107ec99bda9134851392073cb3e15570059a894bea1b6b[ALL] 02a8072af0ae6b6eb50f370893aefd5dac55ef931d068ddf75ccd3d7860690d2ec"}, "vout": 1, "txid": "344dd2a1b70814bc809bcbb62cc6b0b4c564553173a62425470776cba031ecc7"}, {"sequence": 4294967295, "scriptSig": {"hex": "483045022100d65a25d80ea28635ef7e40cd4788279021e1ee1cb4739c61cb9087e54b24fd63022037f10db0ddce13ad66c3b6b4001f1bb753448849b08be5c30515ce7dd275d2780121037f944e9e04fd319da9c7a6c8ca98d6f484bad72bbb0d81e5ae1c8ea5866ada79", "asm": "3045022100d65a25d80ea28635ef7e40cd4788279021e1ee1cb4739c61cb9087e54b24fd63022037f10db0ddce13ad66c3b6b4001f1bb753448849b08be5c30515ce7dd275d278[ALL] 037f944e9e04fd319da9c7a6c8ca98d6f484bad72bbb0d81e5ae1c8ea5866ada79"}, "vout": 1, "txid": "c3ac93e8e2618cb5ef3be095caed460406b07b5950d44a2ccf60c283e387b187"}, {"sequence": 4294967295, "scriptSig": {"hex": "483045022100a002c5efc62ea623e3296ca5df1ee7878ed67af412e8b917becb4ecc246a78e602204da4d61b488601a3760bfdb84abac3605168b5be38d009327f455a927524bb0a012102096eafd2813b4e252aba21780642a5846c015a4b363ea72072afce613d3c8337", "asm": "3045022100a002c5efc62ea623e3296ca5df1ee7878ed67af412e8b917becb4ecc246a78e602204da4d61b488601a3760bfdb84abac3605168b5be38d009327f455a927524bb0a[ALL] 02096eafd2813b4e252aba21780642a5846c015a4b363ea72072afce613d3c8337"}, "vout": 1, "txid": "dd5edad0f2e946a89caf7cd2e911aae2ec870ccb5673c4ac71a4c715f2b46c45"}, {"sequence": 4294967295, "scriptSig": {"hex": "473044022003ee516cd95349043ab34e3e3d0e8b35c340d15bb45d5fc2790698636dd54067022061c27673ab7aadf5b942309bc5d196fad6694e7152d1329b94ec423d77ac64370121026fe8ba8497e235083e29c54a03fc4246e11390ca85e9220a7865c792d347fea5", "asm": "3044022003ee516cd95349043ab34e3e3d0e8b35c340d15bb45d5fc2790698636dd54067022061c27673ab7aadf5b942309bc5d196fad6694e7152d1329b94ec423d77ac6437[ALL] 026fe8ba8497e235083e29c54a03fc4246e11390ca85e9220a7865c792d347fea5"}, "vout": 1, "txid": "fb64530c71c4e1648587062ddd8ab6853bddb39db8ecf2b10698bb6ab0d26ef4"}], "txid": "e78654654557be6d2c940773cc20006e0830fdd51cc7d4d2543f528ece363242", "blocktime": 1537871767, "version": 1, "confirmations": 11495, "time": 1537871767, "locktime": 0, "vsize": 962, "size": 962}