{"hash": "e78954e7d0a9b3ce5e96daf9d3fea125359168f7cdde3f629573269c793f3651", "blockhash": "00000000000000000017f5eb5941039fbcee6240d03bc1f2f8e35350df66a1d8", "vout": [{"scriptPubKey": {"reqSigs": 1, "hex": "76a9149325097ff1d11767b8112efe2946ce628efda6cb88ac", "addresses": ["1ER2hanVA9yT1N5yoQZWULGLPv1ChuSKkN"], "asm": "OP_DUP OP_HASH160 9325097ff1d11767b8112efe2946ce628efda6cb OP_EQUALVERIFY OP_CHECKSIG", "type": "pubkeyhash"}, "value": 0.19680133, "n": 0}, {"scriptPubKey": {"reqSigs": 1, "hex": "76a914db43a0428407f6f20115fb380325f7ad52a1482c88ac", "addresses": ["1LzMzkRp6A8R26iT4QUVqN27GaNeVHUcNV"], "asm": "OP_DUP OP_HASH160 db43a0428407f6f20115fb380325f7ad52a1482c OP_EQUALVERIFY OP_CHECKSIG", "type": "pubkeyhash"}, "value": 0.004, "n": 1}, {"scriptPubKey": {"reqSigs": 1, "hex": "76a91453c90d648cbb1c7c2b43b393d608afd6a00ed0dd88ac", "addresses": ["18e1wHLfH5BUqx79VmkvxtMJ89GgP5hvZA"], "asm": "OP_DUP OP_HASH160 53c90d648cbb1c7c2b43b393d608afd6a00ed0dd OP_EQUALVERIFY OP_CHECKSIG", "type": "pubkeyhash"}, "value": 0.21215855, "n": 2}, {"scriptPubKey": {"reqSigs": 1, "hex": "76a9143d66bd8b23b4f38b4308b5d473014b69ab16bf5c88ac", "addresses": ["16bfJEM3cke7dbmPNoNvbMQRwmj5dbDgcf"], "asm": "OP_DUP OP_HASH160 3d66bd8b23b4f38b4308b5d473014b69ab16bf5c OP_EQUALVERIFY OP_CHECKSIG", "type": "pubkeyhash"}, "value": 0.079, "n": 3}, {"scriptPubKey": {"reqSigs": 1, "hex": "a9144ebbf546c55cd305d19f167fa13890b48a1afa1b87", "addresses": ["38sKo4j3CYoMqbf24YrDSmJTvmrgwy3ArP"], "asm": "OP_HASH160 4ebbf546c55cd305d19f167fa13890b48a1afa1b OP_EQUAL", "type": "scripthash"}, "value": 0.015, "n": 4}, {"scriptPubKey": {"reqSigs": 1, "hex": "76a9147e420b536da8d9b4050dca98b302a4fd4024cdc588ac", "addresses": ["1CWbG1HpFfrREganMY1dL6KRnaJ7TtogH5"], "asm": "OP_DUP OP_HASH160 7e420b536da8d9b4050dca98b302a4fd4024cdc5 OP_EQUALVERIFY OP_CHECKSIG", "type": "pubkeyhash"}, "value": 0.0207182, "n": 5}, {"scriptPubKey": {"reqSigs": 1, "hex": "76a9144a58510352c1baa9cd088c18767d152655f9509e88ac", "addresses": ["17n6oXmTfyVRG542vjTzMe9Lx4QeKUHqmU"], "asm": "OP_DUP OP_HASH160 4a58510352c1baa9cd088c18767d152655f9509e OP_EQUALVERIFY OP_CHECKSIG", "type": "pubkeyhash"}, "value": 0.025, "n": 6}, {"scriptPubKey": {"reqSigs": 1, "hex": "a9147fa64d165e5f23f84a54c4f39f1a85b6d1b7ffcc87", "addresses": ["3DKxxiBKrDttiwzAdVpq3y7RcykDq3Sr7K"], "asm": "OP_HASH160 7fa64d165e5f23f84a54c4f39f1a85b6d1b7ffcc OP_EQUAL", "type": "scripthash"}, "value": 0.02719463, "n": 7}, {"scriptPubKey": {"reqSigs": 1, "hex": "76a914fba8e05e64014fbbd81dbd62c0485746de49648088ac", "addresses": ["1PweutdgC8TDCYZuHXskAkMZzeFZQsfbxB"], "asm": "OP_DUP OP_HASH160 fba8e05e64014fbbd81dbd62c0485746de496480 OP_EQUALVERIFY OP_CHECKSIG", "type": "pubkeyhash"}, "value": 0.01321669, "n": 8}, {"scriptPubKey": {"reqSigs": 1, "hex": "76a914cf8d8855efd55d5b2bcb9558ce2fc22e473eada488ac", "addresses": ["1KvSRZh8kxNYAKgmGCXcsH7xgFb2CuVr1p"], "asm": "OP_DUP OP_HASH160 cf8d8855efd55d5b2bcb9558ce2fc22e473eada4 OP_EQUALVERIFY OP_CHECKSIG", "type": "pubkeyhash"}, "value": 1.0, "n": 9}, {"scriptPubKey": {"reqSigs": 1, "hex": "a914fdc7180ce2af444f7138c05457ef9fba7be77ded87", "addresses": ["3QpsPNE5pUMCjV3Kb47SKar53SMQPccGMH"], "asm": "OP_HASH160 fdc7180ce2af444f7138c05457ef9fba7be77ded OP_EQUAL", "type": "scripthash"}, "value": 0.0305437, "n": 10}, {"scriptPubKey": {"reqSigs": 1, "hex": "76a914236e60b16382b3b345367d5e3e3f43e0b3d2908588ac", "addresses": ["14ELstiGfMKsVaL54H7UJo96hu9deWHU8G"], "asm": "OP_DUP OP_HASH160 236e60b16382b3b345367d5e3e3f43e0b3d29085 OP_EQUALVERIFY OP_CHECKSIG", "type": "pubkeyhash"}, "value": 0.01770389, "n": 11}, {"scriptPubKey": {"reqSigs": 1, "hex": "76a914626955075d8256df57589e1cb94f22c483c7fe3e88ac", "addresses": ["19yMQQVWB2GJyDfgyscXNh3QaVUuWXpcbQ"], "asm": "OP_DUP OP_HASH160 626955075d8256df57589e1cb94f22c483c7fe3e OP_EQUALVERIFY OP_CHECKSIG", "type": "pubkeyhash"}, "value": 0.32622574, "n": 12}, {"scriptPubKey": {"reqSigs": 1, "hex": "a914491561d6336053f8d2d3cea6fc3a068e9821207587", "addresses": ["38MSsCxKjxQuGqmX7zhnQwHuT74VFS7XKW"], "asm": "OP_HASH160 491561d6336053f8d2d3cea6fc3a068e98212075 OP_EQUAL", "type": "scripthash"}, "value": 0.03338695, "n": 13}, {"scriptPubKey": {"reqSigs": 1, "hex": "a914e24ef8c4c9579021fb74d503dceb0639c6e5eb9c87", "addresses": ["3NKdEx7RdrqvZcNQdqiKeJ8bF5CMHQZ7vz"], "asm": "OP_HASH160 e24ef8c4c9579021fb74d503dceb0639c6e5eb9c OP_EQUAL", "type": "scripthash"}, "value": 0.02271, "n": 14}, {"scriptPubKey": {"reqSigs": 1, "hex": "76a914e71debe251bb26c7e757d9ae265da6e5d00f31b988ac", "addresses": ["1N52wHoVR79PMDishab2XmRHsbekCdGquK"], "asm": "OP_DUP OP_HASH160 e71debe251bb26c7e757d9ae265da6e5d00f31b9 OP_EQUALVERIFY OP_CHECKSIG", "type": "pubkeyhash"}, "value": 0.1486544, "n": 15}], "hex": "010000000112dca2426fc9116b5fd0154f943545855264dc899820b4a3744590fba42f1b05000000006a47304402204e15d49414e44edd20a4de7e276c7fe117801be0a99320d46358840b2727b9c402202339d83cc14bada434543d566c277d8babc8257169be3472b8d0ab0745a8c71a01210376a7c0fb9effe06972e5b2c0f4910c999ec93ba99434a9619dce07ebb7f2b8d3ffffffff10854b2c01000000001976a9149325097ff1d11767b8112efe2946ce628efda6cb88ac801a0600000000001976a914db43a0428407f6f20115fb380325f7ad52a1482c88ac6fba4301000000001976a91453c90d648cbb1c7c2b43b393d608afd6a00ed0dd88ac608b7800000000001976a9143d66bd8b23b4f38b4308b5d473014b69ab16bf5c88ac60e316000000000017a9144ebbf546c55cd305d19f167fa13890b48a1afa1b870c9d1f00000000001976a9147e420b536da8d9b4050dca98b302a4fd4024cdc588aca0252600000000001976a9144a58510352c1baa9cd088c18767d152655f9509e88ace77e29000000000017a9147fa64d165e5f23f84a54c4f39f1a85b6d1b7ffcc87c52a1400000000001976a914fba8e05e64014fbbd81dbd62c0485746de49648088ac00e1f505000000001976a914cf8d8855efd55d5b2bcb9558ce2fc22e473eada488ac229b2e000000000017a914fdc7180ce2af444f7138c05457ef9fba7be77ded8795031b00000000001976a914236e60b16382b3b345367d5e3e3f43e0b3d2908588aceec7f101000000001976a914626955075d8256df57589e1cb94f22c483c7fe3e88acc7f132000000000017a914491561d6336053f8d2d3cea6fc3a068e982120758718a722000000000017a914e24ef8c4c9579021fb74d503dceb0639c6e5eb9c8720d4e200000000001976a914e71debe251bb26c7e757d9ae265da6e5d00f31b988ac00000000", "vin": [{"sequence": 4294967295, "scriptSig": {"hex": "47304402204e15d49414e44edd20a4de7e276c7fe117801be0a99320d46358840b2727b9c402202339d83cc14bada434543d566c277d8babc8257169be3472b8d0ab0745a8c71a01210376a7c0fb9effe06972e5b2c0f4910c999ec93ba99434a9619dce07ebb7f2b8d3", "asm": "304402204e15d49414e44edd20a4de7e276c7fe117801be0a99320d46358840b2727b9c402202339d83cc14bada434543d566c277d8babc8257169be3472b8d0ab0745a8c71a[ALL] 0376a7c0fb9effe06972e5b2c0f4910c999ec93ba99434a9619dce07ebb7f2b8d3"}, "vout": 0, "txid": "051b2fa4fb904574a3b4209889dc6452854535944f15d05f6b11c96f42a2dc12"}], "txid": "e78954e7d0a9b3ce5e96daf9d3fea125359168f7cdde3f629573269c793f3651", "blocktime": 1537874412, "version": 1, "confirmations": 11466, "time": 1537874412, "locktime": 0, "vsize": 691, "size": 691}