{"hash": "e78f8faedd87ced122ac22e299e1e26b87fde4f98d16c9df359f60405630e3db", "blockhash": "0000000000000000001e0dab787dd257d1dbfcb92a98c2207d5e1078be1f4165", "vout": [{"scriptPubKey": {"reqSigs": 1, "hex": "76a914c9480ba139881833b6c0700c9be1be08c1d3180988ac", "addresses": ["1KMH8Mzzq1kKWnEBBVeHSzX3TT8YuiByqP"], "asm": "OP_DUP OP_HASH160 c9480ba139881833b6c0700c9be1be08c1d31809 OP_EQUALVERIFY OP_CHECKSIG", "type": "pubkeyhash"}, "value": 0.0006874, "n": 0}, {"scriptPubKey": {"type": "nulldata", "hex": "6a4c50000077bc0001c3bd13c224aaea86eb8b9a95e5bf9ae76da98a211aaf6c953dd567cf27e717bec04e98f481516d0dd5eb94374f945baa121906130c1b5edcf4b4bc9a9526289ac0f6612cd74e33776ee4", "asm": "OP_RETURN 000077bc0001c3bd13c224aaea86eb8b9a95e5bf9ae76da98a211aaf6c953dd567cf27e717bec04e98f481516d0dd5eb94374f945baa121906130c1b5edcf4b4bc9a9526289ac0f6612cd74e33776ee4"}, "value": 0.0, "n": 1}], "hex": "0100000001a9f5ab222ce22dbcf622c43c79e341808917b8b1f89ee76f7f20ad04eec9f727000000006a473044022027325b38904b13a5cee57b4b34ad9e144aa35e7c3612044d05415c0887076f700220187c736e06d92d6810707b3239e45716998b3715c7e24712897195561f077607012103c0d775c137b7a78588cd6498233281a00fa14ea99e61a3b2813b5d57df79490effffffff02840c0100000000001976a914c9480ba139881833b6c0700c9be1be08c1d3180988ac0000000000000000536a4c50000077bc0001c3bd13c224aaea86eb8b9a95e5bf9ae76da98a211aaf6c953dd567cf27e717bec04e98f481516d0dd5eb94374f945baa121906130c1b5edcf4b4bc9a9526289ac0f6612cd74e33776ee400000000", "vin": [{"sequence": 4294967295, "scriptSig": {"hex": "473044022027325b38904b13a5cee57b4b34ad9e144aa35e7c3612044d05415c0887076f700220187c736e06d92d6810707b3239e45716998b3715c7e24712897195561f077607012103c0d775c137b7a78588cd6498233281a00fa14ea99e61a3b2813b5d57df79490e", "asm": "3044022027325b38904b13a5cee57b4b34ad9e144aa35e7c3612044d05415c0887076f700220187c736e06d92d6810707b3239e45716998b3715c7e24712897195561f077607[ALL] 03c0d775c137b7a78588cd6498233281a00fa14ea99e61a3b2813b5d57df79490e"}, "vout": 0, "txid": "27f7c9ee04ad207f6fe79ef8b1b817898041e3793cc422f6bc2de22c22abf5a9"}], "txid": "e78f8faedd87ced122ac22e299e1e26b87fde4f98d16c9df359f60405630e3db", "blocktime": 1537872475, "version": 1, "confirmations": 11486, "time": 1537872475, "locktime": 0, "vsize": 283, "size": 283}