{"hash": "33898b62d4ed0f3333805490a79aa6aea9bbe21b35b3b29e826cd2f232cae5bc", "blockhash": "0000000000000000001f76057863aec43deb6fa401d9628bb513d65a8098bfab", "vout": [{"scriptPubKey": {"reqSigs": 1, "hex": "76a9143d077bc2d4fbab91fece8eb94aa3fc9cd444c72e88ac", "addresses": ["16ZhBfJErRZsoSjs9ebPXgMX5L5CGTFRgR"], "asm": "OP_DUP OP_HASH160 3d077bc2d4fbab91fece8eb94aa3fc9cd444c72e OP_EQUALVERIFY OP_CHECKSIG", "type": "pubkeyhash"}, "value": 0.016692, "n": 0}, {"scriptPubKey": {"reqSigs": 1, "hex": "00144eeb536aa3d3e499c7c540744c6c32c2556bc1f6", "addresses": ["bc1qfm44x64r60jfn379gp6ycmpjcf2khs0k9n25u5"], "asm": "0 4eeb536aa3d3e499c7c540744c6c32c2556bc1f6", "type": "witness_v0_keyhash"}, "value": 0.75246621, "n": 1}], "hex": "0100000000010126a7fc86fc66e3e074981c7be292b05547b52a9efb5a0bed3312e56d83b3509e0100000000ffffffff0250781900000000001976a9143d077bc2d4fbab91fece8eb94aa3fc9cd444c72e88ac1d2c7c04000000001600144eeb536aa3d3e499c7c540744c6c32c2556bc1f602483045022100d44bbc9dd35c4c2dce7a75a7c38de440f8e7fe1465ed147a3aae139da8b808da022007fcadfdffa0048c56b296dfa35ea60d6ed51d834fd0c3a368cd934504dc0365012102ac345be4b016d93346a4bcf43567479c7b811a423564740b924047cb27bae20a00000000", "vin": [{"txinwitness": ["3045022100d44bbc9dd35c4c2dce7a75a7c38de440f8e7fe1465ed147a3aae139da8b808da022007fcadfdffa0048c56b296dfa35ea60d6ed51d834fd0c3a368cd934504dc036501", "02ac345be4b016d93346a4bcf43567479c7b811a423564740b924047cb27bae20a"], "sequence": 4294967295, "scriptSig": {"hex": "", "asm": ""}, "vout": 1, "txid": "9e50b3836de51233ed0b5afb9e2ab54755b092e27b1c9874e0e366fc86fca726"}], "txid": "e795f8eb1ea3da355a68cf401686c86b795627233c7909f1822afc7910b1f32a", "blocktime": 1537873891, "version": 1, "confirmations": 11478, "time": 1537873891, "locktime": 0, "vsize": 144, "size": 226}