{"hash": "e797eea5fd580abe5a6e10f471165a2ff2375e26bbc8511b8c5a65e449032d26", "blockhash": "0000000000000000001e0dab787dd257d1dbfcb92a98c2207d5e1078be1f4165", "vout": [{"scriptPubKey": {"reqSigs": 1, "hex": "76a914e047982f186f83ae58a1f499dffda282cf1e098788ac", "addresses": ["1MSt8SaCGvk9KngsUyTSk77RgLBkNdR4wb"], "asm": "OP_DUP OP_HASH160 e047982f186f83ae58a1f499dffda282cf1e0987 OP_EQUALVERIFY OP_CHECKSIG", "type": "pubkeyhash"}, "value": 4.488e-05, "n": 0}, {"scriptPubKey": {"reqSigs": 1, "hex": "76a9145b9a8d32f392694ef86a0552d3454af9c71934d988ac", "addresses": ["19MMdtTHe2qcRcSsm22RHiJWv9aTX2bZic"], "asm": "OP_DUP OP_HASH160 5b9a8d32f392694ef86a0552d3454af9c71934d9 OP_EQUALVERIFY OP_CHECKSIG", "type": "pubkeyhash"}, "value": 0.00821284, "n": 1}], "hex": "0100000002923402200c54e1539beb7a16d478c2e0f0275ea7dcca9021991e300c3bea5d06010000006a47304402201ac74ff69dbd53cb1b960dc95fcbc2cd228631866e22d604fb72005ede3ac147022043add4db67d7d61de97902349a550e1140ff9766aa207924a2e88a1f1c761240012102686d75abfcd8b6e698a0d7dd49994a3b95a6f46c8a18b609e9a9576d370acd8affffffff0f591d2a2d1a98d797576007be40447b001e93ca47d605497e056e6a8f053f34000000006b483045022100cfb2be20dfcd89b1a067014e19160f87b78469d24d118bb2ff29d0ac6500999502203e973cf7a6a0d3c09c548664deeeb0cea993d0d749b4a1cb1b017051a6e7af6c01210372921ea551050e61f9c3bc5cd3cd57926bdb8c931872ab20ee100171f71a9208ffffffff0288110000000000001976a914e047982f186f83ae58a1f499dffda282cf1e098788ac24880c00000000001976a9145b9a8d32f392694ef86a0552d3454af9c71934d988ac00000000", "vin": [{"sequence": 4294967295, "scriptSig": {"hex": "47304402201ac74ff69dbd53cb1b960dc95fcbc2cd228631866e22d604fb72005ede3ac147022043add4db67d7d61de97902349a550e1140ff9766aa207924a2e88a1f1c761240012102686d75abfcd8b6e698a0d7dd49994a3b95a6f46c8a18b609e9a9576d370acd8a", "asm": "304402201ac74ff69dbd53cb1b960dc95fcbc2cd228631866e22d604fb72005ede3ac147022043add4db67d7d61de97902349a550e1140ff9766aa207924a2e88a1f1c761240[ALL] 02686d75abfcd8b6e698a0d7dd49994a3b95a6f46c8a18b609e9a9576d370acd8a"}, "vout": 1, "txid": "065dea3b0c301e992190cadca75e27f0e0c278d4167aeb9b53e1540c20023492"}, {"sequence": 4294967295, "scriptSig": {"hex": "483045022100cfb2be20dfcd89b1a067014e19160f87b78469d24d118bb2ff29d0ac6500999502203e973cf7a6a0d3c09c548664deeeb0cea993d0d749b4a1cb1b017051a6e7af6c01210372921ea551050e61f9c3bc5cd3cd57926bdb8c931872ab20ee100171f71a9208", "asm": "3045022100cfb2be20dfcd89b1a067014e19160f87b78469d24d118bb2ff29d0ac6500999502203e973cf7a6a0d3c09c548664deeeb0cea993d0d749b4a1cb1b017051a6e7af6c[ALL] 0372921ea551050e61f9c3bc5cd3cd57926bdb8c931872ab20ee100171f71a9208"}, "vout": 0, "txid": "343f058f6a6e057e4905d647ca931e007b4440be07605797d7981a2d2a1d590f"}], "txid": "e797eea5fd580abe5a6e10f471165a2ff2375e26bbc8511b8c5a65e449032d26", "blocktime": 1537872475, "version": 1, "confirmations": 11487, "time": 1537872475, "locktime": 0, "vsize": 373, "size": 373}