{"hash": "e79982c9750366a45a3dd3c97e352223d423693cbbc198ad32c0698fc5c38043", "blockhash": "0000000000000000000baef3f32e3676a92c3b2e5da21b426e4f302fc371ce76", "vout": [{"scriptPubKey": {"reqSigs": 1, "hex": "76a9144e35d1d5ef146faa8ea5669ca6fc8c24641d5cf188ac", "addresses": ["188YBRJfe35Vjxmp7nk6sXScFbE8gt2ne5"], "asm": "OP_DUP OP_HASH160 4e35d1d5ef146faa8ea5669ca6fc8c24641d5cf1 OP_EQUALVERIFY OP_CHECKSIG", "type": "pubkeyhash"}, "value": 0.00116544, "n": 0}, {"scriptPubKey": {"type": "nulldata", "hex": "6a4c500000781d0001ad42223ae4f35bb39ba81a5c019d6ddc0f1b8ff117702940d64fa54d8eb2e23c00c15bb4cc6028b3d7279f80780a5baa1cff0614a1619937fb38bc9a9526289ac0f6612cd74e33776ee4", "asm": "OP_RETURN 0000781d0001ad42223ae4f35bb39ba81a5c019d6ddc0f1b8ff117702940d64fa54d8eb2e23c00c15bb4cc6028b3d7279f80780a5baa1cff0614a1619937fb38bc9a9526289ac0f6612cd74e33776ee4"}, "value": 0.0, "n": 1}], "hex": "01000000019e9e4efce60f4dcb8a6d6c1603574160ec640a263d176d4eb99700b38204f150010000006b483045022100b5f1fa15f6662d4615be40218dd4bfed03e5c0dcddf951efd5540c4115727343022008ee264c0cb21e555ab4461dc5b1b5358875cd4117f1b7e1b9e7f3c8613024620121038743824086276532cb3195f87a031068bbe84231bab76683d58ebae3e417c8d5ffffffff0240c70100000000001976a9144e35d1d5ef146faa8ea5669ca6fc8c24641d5cf188ac0000000000000000536a4c500000781d0001ad42223ae4f35bb39ba81a5c019d6ddc0f1b8ff117702940d64fa54d8eb2e23c00c15bb4cc6028b3d7279f80780a5baa1cff0614a1619937fb38bc9a9526289ac0f6612cd74e33776ee400000000", "vin": [{"sequence": 4294967295, "scriptSig": {"hex": "483045022100b5f1fa15f6662d4615be40218dd4bfed03e5c0dcddf951efd5540c4115727343022008ee264c0cb21e555ab4461dc5b1b5358875cd4117f1b7e1b9e7f3c8613024620121038743824086276532cb3195f87a031068bbe84231bab76683d58ebae3e417c8d5", "asm": "3045022100b5f1fa15f6662d4615be40218dd4bfed03e5c0dcddf951efd5540c4115727343022008ee264c0cb21e555ab4461dc5b1b5358875cd4117f1b7e1b9e7f3c861302462[ALL] 038743824086276532cb3195f87a031068bbe84231bab76683d58ebae3e417c8d5"}, "vout": 1, "txid": "50f10482b30097b94e6d173d260a64ec60415703166c6d8acb4d0fe6fc4e9e9e"}], "txid": "e79982c9750366a45a3dd3c97e352223d423693cbbc198ad32c0698fc5c38043", "blocktime": 1537876114, "version": 1, "confirmations": 11461, "time": 1537876114, "locktime": 0, "vsize": 284, "size": 284}