{"hash": "e7a2f7d1ea6abbabb219b9ee7d28805c89a8d0adca1bce5226cc7b34a6c140eb", "blockhash": "00000000000000000018f53835495a110e01622372bf6ae95dc86f2b0ab887b0", "vout": [{"scriptPubKey": {"reqSigs": 1, "hex": "76a91441e8b3a7e250a58eeeb6adec61665c43fbe8eb0488ac", "addresses": ["171Vgsarvc3X6EKDyeGzCxuuRUtjEszkaZ"], "asm": "OP_DUP OP_HASH160 41e8b3a7e250a58eeeb6adec61665c43fbe8eb04 OP_EQUALVERIFY OP_CHECKSIG", "type": "pubkeyhash"}, "value": 0.0084085, "n": 0}, {"scriptPubKey": {"type": "nulldata", "hex": "6a146f6d6e69000000000000001f000000e8b6d7ab00", "asm": "OP_RETURN 6f6d6e69000000000000001f000000e8b6d7ab00"}, "value": 0.0, "n": 1}, {"scriptPubKey": {"reqSigs": 1, "hex": "76a914a25dec4d0011064ef106a983c39c7a540699f22088ac", "addresses": ["1FoWyxwPXuj4C6abqwhjDWdz6D4PZgYRjA"], "asm": "OP_DUP OP_HASH160 a25dec4d0011064ef106a983c39c7a540699f220 OP_EQUALVERIFY OP_CHECKSIG", "type": "pubkeyhash"}, "value": 5.46e-06, "n": 2}], "hex": "010000000e943f77f9ef0796d033cafd5644b72629a52cd25dde318c35562950514571aa68020000006b483045022100e633047d1423d8a52b29694f00b824ecae12717313a4f8ac2e59c48de5f670d0022024c598fa86ebfe70522d77c5894b175f3895c72be1e228a167d4962846db7a0c012102a40c9bb02a3f4750478c0fb76248e99030b1740a05d615cf20bf23469520cb7afeffffffa0f1383db2ed4010b7632438852831d2ab566baefd578e047be41ec7503ebb14020000006a47304402203244db4c2d72a5a70adb078ad9c66c1bd98beb562ee40e1e185c4ac4cc0ef63702207e455bd6591fd0b0e16283bdb4bedab5e9e50e4e74076fb9a54a64b06aecf823012102a40c9bb02a3f4750478c0fb76248e99030b1740a05d615cf20bf23469520cb7afeffffffa122a0c824c266bb12d2e5b5f81fbc2a711485c5f58aa6f8af93afe5e448cca7020000006a47304402207fcd82a503eab5a5682d65bf2e2e43994e9dcd879f802f0ab0d446e2faac733b022018596e60bb979989252fffcac929cece05f55dd38006cdf820b1347bbd1e7502012102a40c9bb02a3f4750478c0fb76248e99030b1740a05d615cf20bf23469520cb7afeffffffa416f1e560982bde2a192426bd927350fcc72b79d85aa33b95ad37a4c348cf98010000006a47304402204a2bd61da8b9b22c7ac80eb3b6c9be0d28dade5e6e1aadc973c16cc40d3d86fb0220742242d8a7b15953a4ac3cbc277a08c30952378e67fa471f5a2d1122dc2e0973012102a40c9bb02a3f4750478c0fb76248e99030b1740a05d615cf20bf23469520cb7afeffffffbc9009bd2ddfda1ed1fe2415a24206f97107d638d37a11050a4ee564b7b4637c010000006a473044022003135742c4f122a4853d88d9c3f907a8d01a7690242d58e21ac965274da006450220032b868ced56af906ffa44a074bb232a1ea35b8e04b2002c825a54bb9ef5f073012102a40c9bb02a3f4750478c0fb76248e99030b1740a05d615cf20bf23469520cb7afeffffffbd1d3346ca4ae1063e920cd35bcfcf0db7e60c74b8a309d82e7197733c1d7c59020000006b483045022100881ceb4612e56b31925a879e1e47e754d557babcd197a138b826231560e6d146022005f4676204fead8d02e462ab09fc2315ba24dbd113cfb343c31364f35493ac50012102a40c9bb02a3f4750478c0fb76248e99030b1740a05d615cf20bf23469520cb7afeffffffe6375cfccb8cdfb791d8935c98b0ba970994b9a90047dcd843bdf6ad09f3e8d1020000006b483045022100a07ef5c41760a06f4d429f8274b56fcc9e36732c5b1ddccc07faf6c5faedaa2a022017a0a88f5debe59cdcf89e1d40f0ddaffe630511530196537b010281a3b388dd012102a40c9bb02a3f4750478c0fb76248e99030b1740a05d615cf20bf23469520cb7afefffffff0d04924046c00750ddf638af814746499b7821df8109f609f45914c1152e81a020000006b483045022100de9ad1f94f507c38f3981568781bec391d91a8a251d014ecd01f263a1212765f02202e539aeb6dd1da59b2d4d90b9cbc8110d06d1b335e7f0df8371f465cf6086845012102a40c9bb02a3f4750478c0fb76248e99030b1740a05d615cf20bf23469520cb7afeffffffd5dd22dc89fe43a7f7eeb10b6bf7cadabbebc408f59b1fc58694d162814a4e73010000006a47304402200350909f236b10286df4968c3bd0a652e1421e43bcaa5f90554ffe0524cf90b70220652a15e8a08772d2cd81ff05a4b05c79ab3e021babbe27b2c452b0a5e39f67c2012102a40c9bb02a3f4750478c0fb76248e99030b1740a05d615cf20bf23469520cb7afeffffffdd8f269583323175ae044276fc72d73a38b93f6e284495a2b36112f41bd73cb2020000006b483045022100833481ced3418225eb62a1f2a1b7ca1426feb424e990b986e418f4d679d11c1c022074b1a0caea59d5ad938d3b426f058d8158db2ac2be3fd02da46fefda44f8efdc012102a40c9bb02a3f4750478c0fb76248e99030b1740a05d615cf20bf23469520cb7afeffffffb5845f921bcae0cc4bb727f812fd3b6fa8226f77f77e7c66b7db659ed999f3f9020000006a47304402200baa473c6a16bd632bc58eb05adc8231e786946a3d7cf7d000fdb8f544f5538402202230ce8bb85274e0e9a0f39c459bdde39841864216975b5f4025a3f8916205c3012102a40c9bb02a3f4750478c0fb76248e99030b1740a05d615cf20bf23469520cb7afeffffffc37d6c535f16d269e5690dbbebfe6884e8bf0d668057dd02c7199c7c1a880ace010000006b483045022100bf5fb58b8c0049398d936c2bd0d6b23eb30ab862a640a20a7353cbd8073008240220708be587ba9b17ad5bd88ce3ccbe8808190638ace0b8414f5d2bee21114d360f012102a40c9bb02a3f4750478c0fb76248e99030b1740a05d615cf20bf23469520cb7afeffffff066b364a98fc0672857900c07e66a5389d258cd24d0764ab9b31497cb24f90f5020000006b483045022100e14061ac8cc02bca3508ab8b676f60ce84e3a38f9b60097a617cff38fa7c032d0220694f381386668d896d4b7e21953789bccefd3eada49984c8c1ce4d8cfcaf8a7f012102a40c9bb02a3f4750478c0fb76248e99030b1740a05d615cf20bf23469520cb7afefffffffdd8acad2a851e6f9a2072677e9a57685bb70335b15b94f954d2d4d56352f18c020000006a47304402206513491a97f1ccfd94df84218e39180c271768ed5042b7d6cf093480da713cbd02206701ac4266f9dbf7fe2e035b2d5246ce9885c0aabb38bfbf01faf390a7165b41012102a40c9bb02a3f4750478c0fb76248e99030b1740a05d615cf20bf23469520cb7afeffffff0392d40c00000000001976a91441e8b3a7e250a58eeeb6adec61665c43fbe8eb0488ac0000000000000000166a146f6d6e69000000000000001f000000e8b6d7ab0022020000000000001976a914a25dec4d0011064ef106a983c39c7a540699f22088ac0d490800", "vin": [{"sequence": 4294967294, "scriptSig": {"hex": "483045022100e633047d1423d8a52b29694f00b824ecae12717313a4f8ac2e59c48de5f670d0022024c598fa86ebfe70522d77c5894b175f3895c72be1e228a167d4962846db7a0c012102a40c9bb02a3f4750478c0fb76248e99030b1740a05d615cf20bf23469520cb7a", "asm": "3045022100e633047d1423d8a52b29694f00b824ecae12717313a4f8ac2e59c48de5f670d0022024c598fa86ebfe70522d77c5894b175f3895c72be1e228a167d4962846db7a0c[ALL] 02a40c9bb02a3f4750478c0fb76248e99030b1740a05d615cf20bf23469520cb7a"}, "vout": 2, "txid": "68aa714551502956358c31de5dd22ca52926b74456fdca33d09607eff9773f94"}, {"sequence": 4294967294, "scriptSig": {"hex": "47304402203244db4c2d72a5a70adb078ad9c66c1bd98beb562ee40e1e185c4ac4cc0ef63702207e455bd6591fd0b0e16283bdb4bedab5e9e50e4e74076fb9a54a64b06aecf823012102a40c9bb02a3f4750478c0fb76248e99030b1740a05d615cf20bf23469520cb7a", "asm": "304402203244db4c2d72a5a70adb078ad9c66c1bd98beb562ee40e1e185c4ac4cc0ef63702207e455bd6591fd0b0e16283bdb4bedab5e9e50e4e74076fb9a54a64b06aecf823[ALL] 02a40c9bb02a3f4750478c0fb76248e99030b1740a05d615cf20bf23469520cb7a"}, "vout": 2, "txid": "14bb3e50c71ee47b048e57fdae6b56abd2312885382463b71040edb23d38f1a0"}, {"sequence": 4294967294, "scriptSig": {"hex": "47304402207fcd82a503eab5a5682d65bf2e2e43994e9dcd879f802f0ab0d446e2faac733b022018596e60bb979989252fffcac929cece05f55dd38006cdf820b1347bbd1e7502012102a40c9bb02a3f4750478c0fb76248e99030b1740a05d615cf20bf23469520cb7a", "asm": "304402207fcd82a503eab5a5682d65bf2e2e43994e9dcd879f802f0ab0d446e2faac733b022018596e60bb979989252fffcac929cece05f55dd38006cdf820b1347bbd1e7502[ALL] 02a40c9bb02a3f4750478c0fb76248e99030b1740a05d615cf20bf23469520cb7a"}, "vout": 2, "txid": "a7cc48e4e5af93aff8a68af5c58514712abc1ff8b5e5d212bb66c224c8a022a1"}, {"sequence": 4294967294, "scriptSig": {"hex": "47304402204a2bd61da8b9b22c7ac80eb3b6c9be0d28dade5e6e1aadc973c16cc40d3d86fb0220742242d8a7b15953a4ac3cbc277a08c30952378e67fa471f5a2d1122dc2e0973012102a40c9bb02a3f4750478c0fb76248e99030b1740a05d615cf20bf23469520cb7a", "asm": "304402204a2bd61da8b9b22c7ac80eb3b6c9be0d28dade5e6e1aadc973c16cc40d3d86fb0220742242d8a7b15953a4ac3cbc277a08c30952378e67fa471f5a2d1122dc2e0973[ALL] 02a40c9bb02a3f4750478c0fb76248e99030b1740a05d615cf20bf23469520cb7a"}, "vout": 1, "txid": "98cf48c3a437ad953ba35ad8792bc7fc507392bd2624192ade2b9860e5f116a4"}, {"sequence": 4294967294, "scriptSig": {"hex": "473044022003135742c4f122a4853d88d9c3f907a8d01a7690242d58e21ac965274da006450220032b868ced56af906ffa44a074bb232a1ea35b8e04b2002c825a54bb9ef5f073012102a40c9bb02a3f4750478c0fb76248e99030b1740a05d615cf20bf23469520cb7a", "asm": "3044022003135742c4f122a4853d88d9c3f907a8d01a7690242d58e21ac965274da006450220032b868ced56af906ffa44a074bb232a1ea35b8e04b2002c825a54bb9ef5f073[ALL] 02a40c9bb02a3f4750478c0fb76248e99030b1740a05d615cf20bf23469520cb7a"}, "vout": 1, "txid": "7c63b4b764e54e0a05117ad338d60771f90642a21524fed11edadf2dbd0990bc"}, {"sequence": 4294967294, "scriptSig": {"hex": "483045022100881ceb4612e56b31925a879e1e47e754d557babcd197a138b826231560e6d146022005f4676204fead8d02e462ab09fc2315ba24dbd113cfb343c31364f35493ac50012102a40c9bb02a3f4750478c0fb76248e99030b1740a05d615cf20bf23469520cb7a", "asm": "3045022100881ceb4612e56b31925a879e1e47e754d557babcd197a138b826231560e6d146022005f4676204fead8d02e462ab09fc2315ba24dbd113cfb343c31364f35493ac50[ALL] 02a40c9bb02a3f4750478c0fb76248e99030b1740a05d615cf20bf23469520cb7a"}, "vout": 2, "txid": "597c1d3c7397712ed809a3b8740ce6b70dcfcf5bd30c923e06e14aca46331dbd"}, {"sequence": 4294967294, "scriptSig": {"hex": "483045022100a07ef5c41760a06f4d429f8274b56fcc9e36732c5b1ddccc07faf6c5faedaa2a022017a0a88f5debe59cdcf89e1d40f0ddaffe630511530196537b010281a3b388dd012102a40c9bb02a3f4750478c0fb76248e99030b1740a05d615cf20bf23469520cb7a", "asm": "3045022100a07ef5c41760a06f4d429f8274b56fcc9e36732c5b1ddccc07faf6c5faedaa2a022017a0a88f5debe59cdcf89e1d40f0ddaffe630511530196537b010281a3b388dd[ALL] 02a40c9bb02a3f4750478c0fb76248e99030b1740a05d615cf20bf23469520cb7a"}, "vout": 2, "txid": "d1e8f309adf6bd43d8dc4700a9b9940997bab0985c93d891b7df8ccbfc5c37e6"}, {"sequence": 4294967294, "scriptSig": {"hex": "483045022100de9ad1f94f507c38f3981568781bec391d91a8a251d014ecd01f263a1212765f02202e539aeb6dd1da59b2d4d90b9cbc8110d06d1b335e7f0df8371f465cf6086845012102a40c9bb02a3f4750478c0fb76248e99030b1740a05d615cf20bf23469520cb7a", "asm": "3045022100de9ad1f94f507c38f3981568781bec391d91a8a251d014ecd01f263a1212765f02202e539aeb6dd1da59b2d4d90b9cbc8110d06d1b335e7f0df8371f465cf6086845[ALL] 02a40c9bb02a3f4750478c0fb76248e99030b1740a05d615cf20bf23469520cb7a"}, "vout": 2, "txid": "1ae852114c91459f609f10f81d82b799647414f88a63df0d75006c042449d0f0"}, {"sequence": 4294967294, "scriptSig": {"hex": "47304402200350909f236b10286df4968c3bd0a652e1421e43bcaa5f90554ffe0524cf90b70220652a15e8a08772d2cd81ff05a4b05c79ab3e021babbe27b2c452b0a5e39f67c2012102a40c9bb02a3f4750478c0fb76248e99030b1740a05d615cf20bf23469520cb7a", "asm": "304402200350909f236b10286df4968c3bd0a652e1421e43bcaa5f90554ffe0524cf90b70220652a15e8a08772d2cd81ff05a4b05c79ab3e021babbe27b2c452b0a5e39f67c2[ALL] 02a40c9bb02a3f4750478c0fb76248e99030b1740a05d615cf20bf23469520cb7a"}, "vout": 1, "txid": "734e4a8162d19486c51f9bf508c4ebbbdacaf76b0bb1eef7a743fe89dc22ddd5"}, {"sequence": 4294967294, "scriptSig": {"hex": "483045022100833481ced3418225eb62a1f2a1b7ca1426feb424e990b986e418f4d679d11c1c022074b1a0caea59d5ad938d3b426f058d8158db2ac2be3fd02da46fefda44f8efdc012102a40c9bb02a3f4750478c0fb76248e99030b1740a05d615cf20bf23469520cb7a", "asm": "3045022100833481ced3418225eb62a1f2a1b7ca1426feb424e990b986e418f4d679d11c1c022074b1a0caea59d5ad938d3b426f058d8158db2ac2be3fd02da46fefda44f8efdc[ALL] 02a40c9bb02a3f4750478c0fb76248e99030b1740a05d615cf20bf23469520cb7a"}, "vout": 2, "txid": "b23cd71bf41261b3a29544286e3fb9383ad772fc764204ae7531328395268fdd"}, {"sequence": 4294967294, "scriptSig": {"hex": "47304402200baa473c6a16bd632bc58eb05adc8231e786946a3d7cf7d000fdb8f544f5538402202230ce8bb85274e0e9a0f39c459bdde39841864216975b5f4025a3f8916205c3012102a40c9bb02a3f4750478c0fb76248e99030b1740a05d615cf20bf23469520cb7a", "asm": "304402200baa473c6a16bd632bc58eb05adc8231e786946a3d7cf7d000fdb8f544f5538402202230ce8bb85274e0e9a0f39c459bdde39841864216975b5f4025a3f8916205c3[ALL] 02a40c9bb02a3f4750478c0fb76248e99030b1740a05d615cf20bf23469520cb7a"}, "vout": 2, "txid": "f9f399d99e65dbb7667c7ef7776f22a86f3bfd12f827b74bcce0ca1b925f84b5"}, {"sequence": 4294967294, "scriptSig": {"hex": "483045022100bf5fb58b8c0049398d936c2bd0d6b23eb30ab862a640a20a7353cbd8073008240220708be587ba9b17ad5bd88ce3ccbe8808190638ace0b8414f5d2bee21114d360f012102a40c9bb02a3f4750478c0fb76248e99030b1740a05d615cf20bf23469520cb7a", "asm": "3045022100bf5fb58b8c0049398d936c2bd0d6b23eb30ab862a640a20a7353cbd8073008240220708be587ba9b17ad5bd88ce3ccbe8808190638ace0b8414f5d2bee21114d360f[ALL] 02a40c9bb02a3f4750478c0fb76248e99030b1740a05d615cf20bf23469520cb7a"}, "vout": 1, "txid": "ce0a881a7c9c19c702dd5780660dbfe88468feebbb0d69e569d2165f536c7dc3"}, {"sequence": 4294967294, "scriptSig": {"hex": "483045022100e14061ac8cc02bca3508ab8b676f60ce84e3a38f9b60097a617cff38fa7c032d0220694f381386668d896d4b7e21953789bccefd3eada49984c8c1ce4d8cfcaf8a7f012102a40c9bb02a3f4750478c0fb76248e99030b1740a05d615cf20bf23469520cb7a", "asm": "3045022100e14061ac8cc02bca3508ab8b676f60ce84e3a38f9b60097a617cff38fa7c032d0220694f381386668d896d4b7e21953789bccefd3eada49984c8c1ce4d8cfcaf8a7f[ALL] 02a40c9bb02a3f4750478c0fb76248e99030b1740a05d615cf20bf23469520cb7a"}, "vout": 2, "txid": "f5904fb27c49319bab64074dd28c259d38a5667ec00079857206fc984a366b06"}, {"sequence": 4294967294, "scriptSig": {"hex": "47304402206513491a97f1ccfd94df84218e39180c271768ed5042b7d6cf093480da713cbd02206701ac4266f9dbf7fe2e035b2d5246ce9885c0aabb38bfbf01faf390a7165b41012102a40c9bb02a3f4750478c0fb76248e99030b1740a05d615cf20bf23469520cb7a", "asm": "304402206513491a97f1ccfd94df84218e39180c271768ed5042b7d6cf093480da713cbd02206701ac4266f9dbf7fe2e035b2d5246ce9885c0aabb38bfbf01faf390a7165b41[ALL] 02a40c9bb02a3f4750478c0fb76248e99030b1740a05d615cf20bf23469520cb7a"}, "vout": 2, "txid": "8cf15263d5d4d254f9945bb13503b75b68579a7e6772209a6f1e852aadacd8fd"}], "txid": "e7a2f7d1ea6abbabb219b9ee7d28805c89a8d0adca1bce5226cc7b34a6c140eb", "blocktime": 1537870928, "version": 1, "confirmations": 11514, "time": 1537870928, "locktime": 542989, "vsize": 2174, "size": 2174}