{"hash": "e7a28af89eedf265aa79e07e4b3208dcbff016dd78918b6d9c05b0a982e484ac", "blockhash": "00000000000000000018f53835495a110e01622372bf6ae95dc86f2b0ab887b0", "vout": [{"scriptPubKey": {"reqSigs": 1, "hex": "a9143e6f15908582f42917ec31e39bf8722fc9d5db3f87", "addresses": ["37P8thrtDXb6Di5E7f4FL3bpzum3fhUvT7"], "asm": "OP_HASH160 3e6f15908582f42917ec31e39bf8722fc9d5db3f OP_EQUAL", "type": "scripthash"}, "value": 0.0002, "n": 0}, {"scriptPubKey": {"reqSigs": 1, "hex": "76a9141bd99f87dbf5c1bab319ffaa366b9b32d05814b488ac", "addresses": ["13YFwuKnG9qDZAzyve8xztGAgPxwZYwb5X"], "asm": "OP_DUP OP_HASH160 1bd99f87dbf5c1bab319ffaa366b9b32d05814b4 OP_EQUALVERIFY OP_CHECKSIG", "type": "pubkeyhash"}, "value": 0.00076448, "n": 1}], "hex": "0100000001c3a6f73c58325f79b86fe5307cfd8a8407e6380345b5131bf797e91708b5d504000000006b48304502210096160374cf8e837527f0c0408fcb221396fd8f71c32c78909e75124681b65b43022051cef89009eda5de43810d27587e15dea79bd6a1fb0b45e5583c245e71ce1b53012102610f18f3bfafbdb1f9b622a8f6801c70d70d1bc5ad4f8a7883c0049abda02fdaffffffff02204e00000000000017a9143e6f15908582f42917ec31e39bf8722fc9d5db3f87a02a0100000000001976a9141bd99f87dbf5c1bab319ffaa366b9b32d05814b488ac00000000", "vin": [{"sequence": 4294967295, "scriptSig": {"hex": "48304502210096160374cf8e837527f0c0408fcb221396fd8f71c32c78909e75124681b65b43022051cef89009eda5de43810d27587e15dea79bd6a1fb0b45e5583c245e71ce1b53012102610f18f3bfafbdb1f9b622a8f6801c70d70d1bc5ad4f8a7883c0049abda02fda", "asm": "304502210096160374cf8e837527f0c0408fcb221396fd8f71c32c78909e75124681b65b43022051cef89009eda5de43810d27587e15dea79bd6a1fb0b45e5583c245e71ce1b53[ALL] 02610f18f3bfafbdb1f9b622a8f6801c70d70d1bc5ad4f8a7883c0049abda02fda"}, "vout": 0, "txid": "04d5b50817e997f71b13b5450338e607848afd7c30e56fb8795f32583cf7a6c3"}], "txid": "e7a28af89eedf265aa79e07e4b3208dcbff016dd78918b6d9c05b0a982e484ac", "blocktime": 1537870928, "version": 1, "confirmations": 11512, "time": 1537870928, "locktime": 0, "vsize": 224, "size": 224}