{"hash": "e7a6cd9d49b07b37888263ebc19457151f723ea5d360bae24fa782d5dc2451f6", "blockhash": "0000000000000000000e13cef7c366c0283d82e591d1acd082e914b08063cdf1", "vout": [{"scriptPubKey": {"reqSigs": 1, "hex": "a914192f4ff11908d9293fefeddc46b2ed528ed68d1087", "addresses": ["33zBVesnp132DStdXoPwa5a5qtw8MPRiyd"], "asm": "OP_HASH160 192f4ff11908d9293fefeddc46b2ed528ed68d10 OP_EQUAL", "type": "scripthash"}, "value": 0.009278, "n": 0}], "hex": "010000000127ed08908beda38bf37c4c3656fe60eb800baec64eeacbde6b53a09e7db83a77010000006b483045022100c2321bf705e9bc80c4ad13a7ef806682ec710af7098fae2b2be250c9921911c502203b4529557f3ca4e393a24dcf6cd5700bc74bc4aea3a509e58b6c33ee94ef968601210247a4737ab16c9a5c606b2a238a8f8885a82ff3ceda380a599351c47a5baf7492ffffffff0138280e000000000017a914192f4ff11908d9293fefeddc46b2ed528ed68d108700000000", "vin": [{"sequence": 4294967295, "scriptSig": {"hex": "483045022100c2321bf705e9bc80c4ad13a7ef806682ec710af7098fae2b2be250c9921911c502203b4529557f3ca4e393a24dcf6cd5700bc74bc4aea3a509e58b6c33ee94ef968601210247a4737ab16c9a5c606b2a238a8f8885a82ff3ceda380a599351c47a5baf7492", "asm": "3045022100c2321bf705e9bc80c4ad13a7ef806682ec710af7098fae2b2be250c9921911c502203b4529557f3ca4e393a24dcf6cd5700bc74bc4aea3a509e58b6c33ee94ef9686[ALL] 0247a4737ab16c9a5c606b2a238a8f8885a82ff3ceda380a599351c47a5baf7492"}, "vout": 1, "txid": "773ab87d9ea0536bdecbea4ec6ae0b80eb60fe56364c7cf38ba3ed8b9008ed27"}], "txid": "e7a6cd9d49b07b37888263ebc19457151f723ea5d360bae24fa782d5dc2451f6", "blocktime": 1537871767, "version": 1, "confirmations": 11494, "time": 1537871767, "locktime": 0, "vsize": 190, "size": 190}