{"hash": "e7a63904b32d6d38e73c21dfdc6dfe4cac6a51ba751891d51392d8d0eb5f3e64", "blockhash": "00000000000000000004ffacab907a6b429b9a5745fa0b75af4234bf69dd7176", "vout": [{"scriptPubKey": {"reqSigs": 1, "hex": "a914d7b66949e296b08c38f8921b68e744f1e222ba5e87", "addresses": ["3MMbiwnq8WLqei51SJZstgP65fqG36US5m"], "asm": "OP_HASH160 d7b66949e296b08c38f8921b68e744f1e222ba5e OP_EQUAL", "type": "scripthash"}, "value": 0.0023766, "n": 0}, {"scriptPubKey": {"reqSigs": 1, "hex": "76a914188b163f6426e2446c423ae7ca177d5eb2844c2e88ac", "addresses": ["13EmqXpworKi3LENcFtwK2o5voCddKHpN7"], "asm": "OP_DUP OP_HASH160 188b163f6426e2446c423ae7ca177d5eb2844c2e OP_EQUALVERIFY OP_CHECKSIG", "type": "pubkeyhash"}, "value": 0.03804519, "n": 1}], "hex": "01000000012323b1afd1d722b2975c4976289f0969881429cba2068a0e500826444d24b1e9010000006a47304402200514434fbcbc25c99431652dfad0d54bd4a1758beaa0468854814dc00fe37562022051ecca0739887858f4b0c24343ef295a9d244ff88aede4b9c577fd49dfa50c7a0121030233dfbfb5f7f635b5664a53af191ab5c4d832f1b64b2b88557c2ce8f1d3a3fbffffffff025ca003000000000017a914d7b66949e296b08c38f8921b68e744f1e222ba5e87670d3a00000000001976a914188b163f6426e2446c423ae7ca177d5eb2844c2e88ac00000000", "vin": [{"sequence": 4294967295, "scriptSig": {"hex": "47304402200514434fbcbc25c99431652dfad0d54bd4a1758beaa0468854814dc00fe37562022051ecca0739887858f4b0c24343ef295a9d244ff88aede4b9c577fd49dfa50c7a0121030233dfbfb5f7f635b5664a53af191ab5c4d832f1b64b2b88557c2ce8f1d3a3fb", "asm": "304402200514434fbcbc25c99431652dfad0d54bd4a1758beaa0468854814dc00fe37562022051ecca0739887858f4b0c24343ef295a9d244ff88aede4b9c577fd49dfa50c7a[ALL] 030233dfbfb5f7f635b5664a53af191ab5c4d832f1b64b2b88557c2ce8f1d3a3fb"}, "vout": 1, "txid": "e9b1244d442608500e8a06a2cb29148869099f2876495c97b222d7d1afb12323"}], "txid": "e7a63904b32d6d38e73c21dfdc6dfe4cac6a51ba751891d51392d8d0eb5f3e64", "blocktime": 1537875543, "version": 1, "confirmations": 11464, "time": 1537875543, "locktime": 0, "vsize": 223, "size": 223}