{"hash": "e7a92744182daed77b3908717dd6ad1b9aec8a006ed9957a0746465fc60cbb7b", "blockhash": "00000000000000000018f53835495a110e01622372bf6ae95dc86f2b0ab887b0", "vout": [{"scriptPubKey": {"reqSigs": 1, "hex": "76a91434dbf6fbeb1c8a9e384d52ceb0d2353600e2228788ac", "addresses": ["15pVePybdrp9wUBr6fiTWo4Bpn8wKUjWZB"], "asm": "OP_DUP OP_HASH160 34dbf6fbeb1c8a9e384d52ceb0d2353600e22287 OP_EQUALVERIFY OP_CHECKSIG", "type": "pubkeyhash"}, "value": 0.00058738, "n": 0}, {"scriptPubKey": {"reqSigs": 1, "hex": "76a9148f033f9fafdc2bef934510fd312a5ef988819a8588ac", "addresses": ["1E3BX9L4ecv7hrCLLCbeZsYZJGZt7NR1d3"], "asm": "OP_DUP OP_HASH160 8f033f9fafdc2bef934510fd312a5ef988819a85 OP_EQUALVERIFY OP_CHECKSIG", "type": "pubkeyhash"}, "value": 0.00698994, "n": 1}], "hex": "0100000001f8736a3aa06ff1512bc73873c5981f1472aa8ed0d5e8b217918098e101ff71e3000000006a47304402200a49f1a350d8ed0219981bc3899dcc1d9f372568daca8e293a989b811edf077802201a7ba042bec236dc80d05df181f9977baa6a8e1706c6e87a370a7694b1fdf755012103a972d45bc3da7021b909ca383f9c084669718e3407cc7e1cf048863f79a5c505fdffffff0272e50000000000001976a91434dbf6fbeb1c8a9e384d52ceb0d2353600e2228788ac72aa0a00000000001976a9148f033f9fafdc2bef934510fd312a5ef988819a8588ac0e490800", "vin": [{"sequence": 4294967293, "scriptSig": {"hex": "47304402200a49f1a350d8ed0219981bc3899dcc1d9f372568daca8e293a989b811edf077802201a7ba042bec236dc80d05df181f9977baa6a8e1706c6e87a370a7694b1fdf755012103a972d45bc3da7021b909ca383f9c084669718e3407cc7e1cf048863f79a5c505", "asm": "304402200a49f1a350d8ed0219981bc3899dcc1d9f372568daca8e293a989b811edf077802201a7ba042bec236dc80d05df181f9977baa6a8e1706c6e87a370a7694b1fdf755[ALL] 03a972d45bc3da7021b909ca383f9c084669718e3407cc7e1cf048863f79a5c505"}, "vout": 0, "txid": "e371ff01e198809117b2e8d5d08eaa72141f98c57338c72b51f16fa03a6a73f8"}], "txid": "e7a92744182daed77b3908717dd6ad1b9aec8a006ed9957a0746465fc60cbb7b", "blocktime": 1537870928, "version": 1, "confirmations": 11512, "time": 1537870928, "locktime": 542990, "vsize": 225, "size": 225}