{"hash": "bb1d58a59827999d24c7a2d654a5c81f36c3f8951c1f0be97da5182facf4aff9", "blockhash": "00000000000000000017f5eb5941039fbcee6240d03bc1f2f8e35350df66a1d8", "vout": [{"scriptPubKey": {"reqSigs": 1, "hex": "76a9147fd415d527a1b693c77d7b776d0e364b40f2277388ac", "addresses": ["1CettJmSrHosc4m7SyVpcq48XM9Hz6NyVZ"], "asm": "OP_DUP OP_HASH160 7fd415d527a1b693c77d7b776d0e364b40f22773 OP_EQUALVERIFY OP_CHECKSIG", "type": "pubkeyhash"}, "value": 0.01893969, "n": 0}, {"scriptPubKey": {"reqSigs": 1, "hex": "a91408d001e3551d3ce83bd32e12f5296206cc4dd5a687", "addresses": ["32VcWgdry8nUd42dA72Vq4YqN6M9eDA4rT"], "asm": "OP_HASH160 08d001e3551d3ce83bd32e12f5296206cc4dd5a6 OP_EQUAL", "type": "scripthash"}, "value": 1.31147334, "n": 1}], "hex": "01000000000103e7ec9568cfb1283ccbd4ca4d041222e069a3d8b74b17f32871ca14ef840824c5000000002322002002702c07cfc5db75dde7c2cca9746e04cba282b39a5809139be3ec025e82507effffffff820c82395920937fc4d8d1cc728c957abb2e10d4c83798866a4dd93616e92d140100000023220020b62c98bbc49977660109ca5811d9a706ca71fc13c46778d0a8cfd8ca23a961acffffffff2261b35ee7f123805dec4bc3c432c0d8b8e598400204138dd86a7de3fa8474cd0100000023220020ca96902fcb665c94a3834ad4f51d6b18c7ec1284932199a2addfdde7a8d1a7bbffffffff0251e61c00000000001976a9147fd415d527a1b693c77d7b776d0e364b40f2277388ac4626d1070000000017a91408d001e3551d3ce83bd32e12f5296206cc4dd5a6870400473044022076931ef6343c26b47502aaae8bc999ceb156519a337966dee27311b502b114ed02200347e8be4b53527d728e85e91a75e8f5ebd0e5ae5e7416a3c1f4e9cb0e9f89f701483045022100c48254749ba4163ef0ea9827a16f5fda0c3cfb1fff3cae423306d842a973af170220090e9be3b7910d451671080498a1853b2bc5a8e7fe29945a59249fb7b95423df014752210244d10f9ef54b49f63320281f382fd874bd3fbca61b3a356d230f723cdbfffded21035103ae7fde57e8b6bb3bb5f71f41a1a19d611723da7ff266c973839886408c4452ae0400483045022100aaf5f76b87639154f9ee743017916f8d60874deeebdf927f49e1d04d57baf9e90220143f750f1e8231150295bbb7ae5aadc18df6d462753a5b88b9140516f5a4d732014830450221009d1e34092f46d4b9dcd5f6cdefb993267d3c4df05e7b1af769e428c06d5371c202204f24898df7912a0bf92ac065eb283c505bcc345a6fc2e709d5665d6a7cf8fbfe014752210255990108210c55725aaae3dced19ab0692ece4c2101975ec559d55be0b837f4621035103ae7fde57e8b6bb3bb5f71f41a1a19d611723da7ff266c973839886408c4452ae04004730440220379228fe146248ee2520ee1230a37db07da7307379e983fcc94805f47c6af0da02205fdc85421cd4f08d1a296dc13725dfc18a8498a04bba473c0a26641fc4ce78470148304502210091d14d9c047f9a2d332562ef6a50152783c31ec2ed254c1a53888894866e6ca002207869511d8b54c4f8af4adad7f158c1f79081e860ff9ee48684c42b8aa094497f014752210236155d50029dca74760e35f0eabb4424eb6d649bf250f7d17826d4bc70264eac21035103ae7fde57e8b6bb3bb5f71f41a1a19d611723da7ff266c973839886408c4452ae00000000", "vin": [{"txinwitness": ["", "3044022076931ef6343c26b47502aaae8bc999ceb156519a337966dee27311b502b114ed02200347e8be4b53527d728e85e91a75e8f5ebd0e5ae5e7416a3c1f4e9cb0e9f89f701", "3045022100c48254749ba4163ef0ea9827a16f5fda0c3cfb1fff3cae423306d842a973af170220090e9be3b7910d451671080498a1853b2bc5a8e7fe29945a59249fb7b95423df01", "52210244d10f9ef54b49f63320281f382fd874bd3fbca61b3a356d230f723cdbfffded21035103ae7fde57e8b6bb3bb5f71f41a1a19d611723da7ff266c973839886408c4452ae"], "sequence": 4294967295, "scriptSig": {"hex": "22002002702c07cfc5db75dde7c2cca9746e04cba282b39a5809139be3ec025e82507e", "asm": "002002702c07cfc5db75dde7c2cca9746e04cba282b39a5809139be3ec025e82507e"}, "vout": 0, "txid": "c5240884ef14ca7128f3174bb7d8a369e02212044dcad4cb3c28b1cf6895ece7"}, {"txinwitness": ["", "3045022100aaf5f76b87639154f9ee743017916f8d60874deeebdf927f49e1d04d57baf9e90220143f750f1e8231150295bbb7ae5aadc18df6d462753a5b88b9140516f5a4d73201", "30450221009d1e34092f46d4b9dcd5f6cdefb993267d3c4df05e7b1af769e428c06d5371c202204f24898df7912a0bf92ac065eb283c505bcc345a6fc2e709d5665d6a7cf8fbfe01", "52210255990108210c55725aaae3dced19ab0692ece4c2101975ec559d55be0b837f4621035103ae7fde57e8b6bb3bb5f71f41a1a19d611723da7ff266c973839886408c4452ae"], "sequence": 4294967295, "scriptSig": {"hex": "220020b62c98bbc49977660109ca5811d9a706ca71fc13c46778d0a8cfd8ca23a961ac", "asm": "0020b62c98bbc49977660109ca5811d9a706ca71fc13c46778d0a8cfd8ca23a961ac"}, "vout": 1, "txid": "142de91636d94d6a869837c8d4102ebb7a958c72ccd1d8c47f93205939820c82"}, {"txinwitness": ["", "30440220379228fe146248ee2520ee1230a37db07da7307379e983fcc94805f47c6af0da02205fdc85421cd4f08d1a296dc13725dfc18a8498a04bba473c0a26641fc4ce784701", "304502210091d14d9c047f9a2d332562ef6a50152783c31ec2ed254c1a53888894866e6ca002207869511d8b54c4f8af4adad7f158c1f79081e860ff9ee48684c42b8aa094497f01", "52210236155d50029dca74760e35f0eabb4424eb6d649bf250f7d17826d4bc70264eac21035103ae7fde57e8b6bb3bb5f71f41a1a19d611723da7ff266c973839886408c4452ae"], "sequence": 4294967295, "scriptSig": {"hex": "220020ca96902fcb665c94a3834ad4f51d6b18c7ec1284932199a2addfdde7a8d1a7bb", "asm": "0020ca96902fcb665c94a3834ad4f51d6b18c7ec1284932199a2addfdde7a8d1a7bb"}, "vout": 1, "txid": "cd7484fae37d6ad88d1304024098e5b8d8c032c4c34bec5d8023f1e75eb36122"}], "txid": "e7afccbeffed74d630601cf7fadf1db864087a0771493ef2c5fc985a8c0e5c38", "blocktime": 1537874412, "version": 1, "confirmations": 11468, "time": 1537874412, "locktime": 0, "vsize": 469, "size": 964}