{"hash": "e7b0e9d549d0a93616683b90b8a18a5f99036e55ba9d72efdcbf8b440118096e", "blockhash": "0000000000000000000dcc0f55137456b1a82d3642486a52398922ac4d620174", "vout": [{"scriptPubKey": {"reqSigs": 1, "hex": "76a91465ad260cf2bc3286876d0e389245a40d9ebd5dc588ac", "addresses": ["1AGcfxGiVZWyK6rZ1juYew1xjyiq5CHbda"], "asm": "OP_DUP OP_HASH160 65ad260cf2bc3286876d0e389245a40d9ebd5dc5 OP_EQUALVERIFY OP_CHECKSIG", "type": "pubkeyhash"}, "value": 0.20974537, "n": 0}, {"scriptPubKey": {"reqSigs": 1, "hex": "a914fa60db5d0a368845fa3e5c9f499859b09799b23c87", "addresses": ["3QWttEdyhQpN6EBoeyAPbR3Z1fDoFGKPTi"], "asm": "OP_HASH160 fa60db5d0a368845fa3e5c9f499859b09799b23c OP_EQUAL", "type": "scripthash"}, "value": 0.013, "n": 1}], "hex": "010000000202c543c45ca29194389d7534ced960cc532f659fa78c5fbe3f8db6bbc1500bf2000000006b483045022100c9efd35b37fe107fd8ef4bf571e9ff234631f5900099e7689f13c6a1e3725c000220091a815e514c8125549ff192ec143633c064420e19d51fa03137117d957195ad0121021a68300f6c8876ba2622291bdb725131b68486fae2f9675af5c7851b357940f2ffffffff2d361e912373dbce8472d60bb18e825327dae528f14c0203282fc71a8df43084010000006a47304402201b99746f37a6b7a9bb22d62a111bf28aeb28917dfb4d00ba1063151267dd0bb60220540f3b64612ed0c85fd73eb97c2cf51cc5cdb650e519a1a29993252052f118b40121021a68300f6c8876ba2622291bdb725131b68486fae2f9675af5c7851b357940f2ffffffff02c90b4001000000001976a91465ad260cf2bc3286876d0e389245a40d9ebd5dc588ac20d613000000000017a914fa60db5d0a368845fa3e5c9f499859b09799b23c8700000000", "vin": [{"sequence": 4294967295, "scriptSig": {"hex": "483045022100c9efd35b37fe107fd8ef4bf571e9ff234631f5900099e7689f13c6a1e3725c000220091a815e514c8125549ff192ec143633c064420e19d51fa03137117d957195ad0121021a68300f6c8876ba2622291bdb725131b68486fae2f9675af5c7851b357940f2", "asm": "3045022100c9efd35b37fe107fd8ef4bf571e9ff234631f5900099e7689f13c6a1e3725c000220091a815e514c8125549ff192ec143633c064420e19d51fa03137117d957195ad[ALL] 021a68300f6c8876ba2622291bdb725131b68486fae2f9675af5c7851b357940f2"}, "vout": 0, "txid": "f20b50c1bbb68d3fbe5f8ca79f652f53cc60d9ce34759d389491a25cc443c502"}, {"sequence": 4294967295, "scriptSig": {"hex": "47304402201b99746f37a6b7a9bb22d62a111bf28aeb28917dfb4d00ba1063151267dd0bb60220540f3b64612ed0c85fd73eb97c2cf51cc5cdb650e519a1a29993252052f118b40121021a68300f6c8876ba2622291bdb725131b68486fae2f9675af5c7851b357940f2", "asm": "304402201b99746f37a6b7a9bb22d62a111bf28aeb28917dfb4d00ba1063151267dd0bb60220540f3b64612ed0c85fd73eb97c2cf51cc5cdb650e519a1a29993252052f118b4[ALL] 021a68300f6c8876ba2622291bdb725131b68486fae2f9675af5c7851b357940f2"}, "vout": 1, "txid": "8430f48d1ac72f2803024cf128e5da2753828eb10bd67284cedb7323911e362d"}], "txid": "e7b0e9d549d0a93616683b90b8a18a5f99036e55ba9d72efdcbf8b440118096e", "blocktime": 1537870268, "version": 1, "confirmations": 11516, "time": 1537870268, "locktime": 0, "vsize": 371, "size": 371}