{"hash": "5f6d9d0f55efa8931d8b5387aa8e76295b0d5243c203cc98d0db52c12b351b6b", "blockhash": "0000000000000000000e13cef7c366c0283d82e591d1acd082e914b08063cdf1", "vout": [{"scriptPubKey": {"reqSigs": 1, "hex": "a9146d7572a6091200e1c7592abcc0609311aab0d5e487", "addresses": ["3BfnGsZvK7E7qhkN4aj5gn1bJWzom9hDeA"], "asm": "OP_HASH160 6d7572a6091200e1c7592abcc0609311aab0d5e4 OP_EQUAL", "type": "scripthash"}, "value": 0.00320035, "n": 0}, {"scriptPubKey": {"reqSigs": 1, "hex": "76a914161cbb4990366ba44c96ab5b5a9d39be39ab219c88ac", "addresses": ["131vHXXE1PVejJNePcEkKm72JNhpLgaWdi"], "asm": "OP_DUP OP_HASH160 161cbb4990366ba44c96ab5b5a9d39be39ab219c OP_EQUALVERIFY OP_CHECKSIG", "type": "pubkeyhash"}, "value": 0.00421806, "n": 1}, {"scriptPubKey": {"reqSigs": 1, "hex": "76a914c3792cd826cb6c04233296cbc450fcead702501788ac", "addresses": ["1JpZvoiw5ZRSdQsTXAQSPku2zHqiuuPP2J"], "asm": "OP_DUP OP_HASH160 c3792cd826cb6c04233296cbc450fcead7025017 OP_EQUALVERIFY OP_CHECKSIG", "type": "pubkeyhash"}, "value": 0.03940953, "n": 2}, {"scriptPubKey": {"reqSigs": 1, "hex": "a914f44375e9e0966e29963d524458fd2514fca1502e87", "addresses": ["3PxZcbTwedQKjL2qXGP8oUg9gNXvDrFhuA"], "asm": "OP_HASH160 f44375e9e0966e29963d524458fd2514fca1502e OP_EQUAL", "type": "scripthash"}, "value": 0.79083268, "n": 3}], "hex": "02000000000102b324d042082f4ae8285f215b9f6d20c15d475bade402d7f8d1916c0c4373d6120100000023220020162438b292922c042ea407f1aeace784fe72cd5bae05403186e203f7747eaccdffffffff04a5aa72dfc486c3896e1f880b6bad0e3cb85f8870aee724f4b428749caa7b3001000000fc00473044022021572dd6b7d1b37c67e4e72a1ffcf20c20570ce77c8a033dd92db2c312456bfe02207550638780959f32aedee5def6a1d9e54ae1d3d334095d716189ca44f16562420147304402207a885d31c802ac25d539045deae10e8815f95d1ded5aa1a2b002e24e8f452d41022025c0ef1e8d1577ca3aea4ff18817080f97e201ab026e1eea8cd3fe7c848ac688014c6952210228b133b198a0a2b4b04fb860deee00d1eaba0ed70a90e1b1c6892add116ac7fe21030bbcbea6da372129cd8490206713c1cf350f329f7c0de92b950b7a7d3fa65a8821038a82c17e356a6ae1e45323f60d18d8be642be3411419457d1272b34fd71d239d53aeffffffff0423e204000000000017a9146d7572a6091200e1c7592abcc0609311aab0d5e487ae6f0600000000001976a914161cbb4990366ba44c96ab5b5a9d39be39ab219c88ac59223c00000000001976a914c3792cd826cb6c04233296cbc450fcead702501788ac04b7b6040000000017a914f44375e9e0966e29963d524458fd2514fca1502e8704004730440220109d3f0bb247766a35e98909408455034522da1ee04b8b02d7d16001b5217bf30220679e3c704a1069b556f3eb3b64a14e563dc4f07d399ebd383e4e2c8eb9b6b28501483045022100cdec2ded902be835c7d6e9a7bdc5961a7a01aabd1a784c61264c96964168bb2d022012f98f0785454fb9c0c37aedfa76fa0a3860b941dc4774e4e1b4584b7500e6af01695221032e48834a459bad88d88a638d1d6e22ab5deacb7c2b4daa5f2b061f9a6709a2d6210334a5fd46e4343f04c2270b7d4045e0e81a533495418915202362e75e54f8debd2102eb1288e0da631201aae1945a34945a660fb27e5590eab60cdcadafd979b1224053ae0000000000", "vin": [{"txinwitness": ["", "30440220109d3f0bb247766a35e98909408455034522da1ee04b8b02d7d16001b5217bf30220679e3c704a1069b556f3eb3b64a14e563dc4f07d399ebd383e4e2c8eb9b6b28501", "3045022100cdec2ded902be835c7d6e9a7bdc5961a7a01aabd1a784c61264c96964168bb2d022012f98f0785454fb9c0c37aedfa76fa0a3860b941dc4774e4e1b4584b7500e6af01", "5221032e48834a459bad88d88a638d1d6e22ab5deacb7c2b4daa5f2b061f9a6709a2d6210334a5fd46e4343f04c2270b7d4045e0e81a533495418915202362e75e54f8debd2102eb1288e0da631201aae1945a34945a660fb27e5590eab60cdcadafd979b1224053ae"], "sequence": 4294967295, "scriptSig": {"hex": "220020162438b292922c042ea407f1aeace784fe72cd5bae05403186e203f7747eaccd", "asm": "0020162438b292922c042ea407f1aeace784fe72cd5bae05403186e203f7747eaccd"}, "vout": 1, "txid": "12d673430c6c91d1f8d702e4ad5b475dc1206d9f5b215f28e84a2f0842d024b3"}, {"sequence": 4294967295, "scriptSig": {"hex": "00473044022021572dd6b7d1b37c67e4e72a1ffcf20c20570ce77c8a033dd92db2c312456bfe02207550638780959f32aedee5def6a1d9e54ae1d3d334095d716189ca44f16562420147304402207a885d31c802ac25d539045deae10e8815f95d1ded5aa1a2b002e24e8f452d41022025c0ef1e8d1577ca3aea4ff18817080f97e201ab026e1eea8cd3fe7c848ac688014c6952210228b133b198a0a2b4b04fb860deee00d1eaba0ed70a90e1b1c6892add116ac7fe21030bbcbea6da372129cd8490206713c1cf350f329f7c0de92b950b7a7d3fa65a8821038a82c17e356a6ae1e45323f60d18d8be642be3411419457d1272b34fd71d239d53ae", "asm": "0 3044022021572dd6b7d1b37c67e4e72a1ffcf20c20570ce77c8a033dd92db2c312456bfe02207550638780959f32aedee5def6a1d9e54ae1d3d334095d716189ca44f1656242[ALL] 304402207a885d31c802ac25d539045deae10e8815f95d1ded5aa1a2b002e24e8f452d41022025c0ef1e8d1577ca3aea4ff18817080f97e201ab026e1eea8cd3fe7c848ac688[ALL] 52210228b133b198a0a2b4b04fb860deee00d1eaba0ed70a90e1b1c6892add116ac7fe21030bbcbea6da372129cd8490206713c1cf350f329f7c0de92b950b7a7d3fa65a8821038a82c17e356a6ae1e45323f60d18d8be642be3411419457d1272b34fd71d239d53ae"}, "vout": 1, "txid": "307baa9c7428b4f424e7ae70885fb83c0ead6b0b881f6e89c386c4df72aaa504"}], "txid": "e7b5023d8874d783edfb1119f2e399ffb2273951b99c0f2e8030b002c04d15e5", "blocktime": 1537871767, "version": 2, "confirmations": 11490, "time": 1537871767, "locktime": 0, "vsize": 575, "size": 767}