{"hash": "c037dd840706c956207bd90cc45a8f0c977a5928bbef49a041ce258e2dbe5879", "blockhash": "0000000000000000001cda96e906b7601b7a6fb1a3b62bca570a9e5d8f4b3de1", "vout": [{"scriptPubKey": {"reqSigs": 1, "hex": "a9142faefcc6004cdb718581e6d9d939f5a38096f92d87", "addresses": ["3639JtzX87E89Tu4o8tuuFUAF7anQzYquD"], "asm": "OP_HASH160 2faefcc6004cdb718581e6d9d939f5a38096f92d OP_EQUAL", "type": "scripthash"}, "value": 0.01198151, "n": 0}, {"scriptPubKey": {"reqSigs": 1, "hex": "a91451ff7e3cb638b53979829cf04cfcb9b53256c66c87", "addresses": ["39Aaj48YdNoo6GoBr5s1tF26t8Zg3c164b"], "asm": "OP_HASH160 51ff7e3cb638b53979829cf04cfcb9b53256c66c OP_EQUAL", "type": "scripthash"}, "value": 0.008836, "n": 1}], "hex": "010000000001012ad20748ccf538a17c71353e322cab829a5a12c02b32d4fdbab8597e8274e6aa01000000232200201990344015c9359692abc80b8809eefd3896a58787078c568aaa7dd0aca65a17ffffffff02474812000000000017a9142faefcc6004cdb718581e6d9d939f5a38096f92d87907b0d000000000017a91451ff7e3cb638b53979829cf04cfcb9b53256c66c87040047304402200980361440148c9b0bcafda851d892611358167a0e9d6407fe2d20af2fd7499002204d33c7decbdcc6c5f7e9df8bdc674b3dfbf779a7d42e6c592c8bd7bc5accae8201473044022029281b69ffb313bbe6bef6108de240ecaf99c82507ddb0b187eb6aa36f58b1d802202e30021e3789c7428b2e652af952bd4c06bb6ea577add9ff4179af1bb25b4b5f01475221029f452d1622dcb157864bfec54b087ea91305afec74a4010ac6df5cb3a4832eef21038407424ead2b88063db2d589e50c34e1572f6b82eb9e266dec536939ee0db9eb52ae00000000", "vin": [{"txinwitness": ["", "304402200980361440148c9b0bcafda851d892611358167a0e9d6407fe2d20af2fd7499002204d33c7decbdcc6c5f7e9df8bdc674b3dfbf779a7d42e6c592c8bd7bc5accae8201", "3044022029281b69ffb313bbe6bef6108de240ecaf99c82507ddb0b187eb6aa36f58b1d802202e30021e3789c7428b2e652af952bd4c06bb6ea577add9ff4179af1bb25b4b5f01", "5221029f452d1622dcb157864bfec54b087ea91305afec74a4010ac6df5cb3a4832eef21038407424ead2b88063db2d589e50c34e1572f6b82eb9e266dec536939ee0db9eb52ae"], "sequence": 4294967295, "scriptSig": {"hex": "2200201990344015c9359692abc80b8809eefd3896a58787078c568aaa7dd0aca65a17", "asm": "00201990344015c9359692abc80b8809eefd3896a58787078c568aaa7dd0aca65a17"}, "vout": 1, "txid": "aae674827e59b8bafdd4322bc0125a9a82ab2c323e35717ca138f5cc4807d22a"}], "txid": "e7b51a8e01a141b2b9ef76ae9e7008ed8177bb7d0528b949e800783c171388ee", "blocktime": 1537873282, "version": 1, "confirmations": 11481, "time": 1537873282, "locktime": 0, "vsize": 205, "size": 370}