{"hash": "bbe5129bd2d7d3872418d210df65ec6fcce6acc2eff4b0df6fbbc7d7512acac4", "blockhash": "0000000000000000001e0dab787dd257d1dbfcb92a98c2207d5e1078be1f4165", "vout": [{"scriptPubKey": {"reqSigs": 1, "hex": "76a91451a48d39d9107e559c6b293dfe329cd59e9c8a1488ac", "addresses": ["18SgrnitHn8P83de5Pm1ry3Pb4nRMVikey"], "asm": "OP_DUP OP_HASH160 51a48d39d9107e559c6b293dfe329cd59e9c8a14 OP_EQUALVERIFY OP_CHECKSIG", "type": "pubkeyhash"}, "value": 0.01051829, "n": 0}, {"scriptPubKey": {"reqSigs": 1, "hex": "a9142ba85313b3061c707e8f1b898c8b6c83d85b053087", "addresses": ["35frdBgvnA7NqX8gNb63Ph6SmiidxAyWPq"], "asm": "OP_HASH160 2ba85313b3061c707e8f1b898c8b6c83d85b0530 OP_EQUAL", "type": "scripthash"}, "value": 0.03231593, "n": 1}], "hex": "020000000001020abad4a47869d18079af502bf390e3131dac68c93e693089ad3adf5754060dcc01000000171600145b9fd608f4d1decb6da05e4ada5f49a5066878cffeffffff34be4446b3be37d51b921af5ae3e10fe598b1c62608ef8275369acf6ce3d1ab7000000001716001405a90fb2a4b1f6bb938558994e2ab12e6196a314feffffff02b50c1000000000001976a91451a48d39d9107e559c6b293dfe329cd59e9c8a1488ac694f31000000000017a9142ba85313b3061c707e8f1b898c8b6c83d85b0530870247304402200339bf3653bd03715ceb6f35bb4987526a4911ee69c6581ca3a9d42e18f681e9022074b6421abf0d5ce3cecb77ed708cc469302600917f2556d87df4d283716a16680121031f0bb342582b04557de09e86242cfee220ad0389c4aff6cce3482f1ee79c38870248304502210097e3a48d00f346d8d9a906b2ed997604c6306f535e6b6f525b57328e70cd88e8022009545ed13c936bc0b163ebec77f16d865c5f442b64e5d1cc621f8b587209ce5f01210228129a2d87a00455000ea25945f258457b8a9d400e50966b95609a68c4e5cb7d12490800", "vin": [{"txinwitness": ["304402200339bf3653bd03715ceb6f35bb4987526a4911ee69c6581ca3a9d42e18f681e9022074b6421abf0d5ce3cecb77ed708cc469302600917f2556d87df4d283716a166801", "031f0bb342582b04557de09e86242cfee220ad0389c4aff6cce3482f1ee79c3887"], "sequence": 4294967294, "scriptSig": {"hex": "1600145b9fd608f4d1decb6da05e4ada5f49a5066878cf", "asm": "00145b9fd608f4d1decb6da05e4ada5f49a5066878cf"}, "vout": 1, "txid": "cc0d065457df3aad8930693ec968ac1d13e390f32b50af7980d16978a4d4ba0a"}, {"txinwitness": ["304502210097e3a48d00f346d8d9a906b2ed997604c6306f535e6b6f525b57328e70cd88e8022009545ed13c936bc0b163ebec77f16d865c5f442b64e5d1cc621f8b587209ce5f01", "0228129a2d87a00455000ea25945f258457b8a9d400e50966b95609a68c4e5cb7d"], "sequence": 4294967294, "scriptSig": {"hex": "16001405a90fb2a4b1f6bb938558994e2ab12e6196a314", "asm": "001405a90fb2a4b1f6bb938558994e2ab12e6196a314"}, "vout": 0, "txid": "b71a3dcef6ac695327f88e60621c8b59fe103eaef51a921bd537beb34644be34"}], "txid": "e7b94e7926096e03db308e2a2ef9aee676fcddaa806a7357a0f16629e771084e", "blocktime": 1537872475, "version": 2, "confirmations": 11486, "time": 1537872475, "locktime": 542994, "vsize": 259, "size": 421}