{"hash": "e7bb33671b03f8c556f1abce1a59ad3948af11906f375a1f3454f65da0f800bd", "blockhash": "00000000000000000018f53835495a110e01622372bf6ae95dc86f2b0ab887b0", "vout": [{"scriptPubKey": {"reqSigs": 1, "hex": "76a914197d414fe1fcdd7bc0af0ffcebc9b8786b756fd888ac", "addresses": ["13Kmwg7n7jAPuSMqTXTFYxZmLTRD59598c"], "asm": "OP_DUP OP_HASH160 197d414fe1fcdd7bc0af0ffcebc9b8786b756fd8 OP_EQUALVERIFY OP_CHECKSIG", "type": "pubkeyhash"}, "value": 0.003124, "n": 0}, {"scriptPubKey": {"reqSigs": 1, "hex": "76a91450f72fa034f018ab741ceeb416219b2bf4cf85b488ac", "addresses": ["18P7B8jzYMjRdXArdiXNivj3ZxhJt6SEo9"], "asm": "OP_DUP OP_HASH160 50f72fa034f018ab741ceeb416219b2bf4cf85b4 OP_EQUALVERIFY OP_CHECKSIG", "type": "pubkeyhash"}, "value": 0.00410822, "n": 1}], "hex": "010000000134c269b2a1671db6942d33df4b65dd4e55582d89dad1892779a4888f5d17fe46010000006a47304402204bfe58fadaa1ea7fb63b24f5c9d9a4eea8450b014da593f39fa5a49120340b300220146012f8b514b4dde3f213fa14c61adac1b63026d5a85351a78a1ab7aca2449a0121025200f48424866308926e07dd51d1b4f3f914e3d42617b0d780d2db55b3d2e812ffffffff0250c40400000000001976a914197d414fe1fcdd7bc0af0ffcebc9b8786b756fd888acc6440600000000001976a91450f72fa034f018ab741ceeb416219b2bf4cf85b488ac00000000", "vin": [{"sequence": 4294967295, "scriptSig": {"hex": "47304402204bfe58fadaa1ea7fb63b24f5c9d9a4eea8450b014da593f39fa5a49120340b300220146012f8b514b4dde3f213fa14c61adac1b63026d5a85351a78a1ab7aca2449a0121025200f48424866308926e07dd51d1b4f3f914e3d42617b0d780d2db55b3d2e812", "asm": "304402204bfe58fadaa1ea7fb63b24f5c9d9a4eea8450b014da593f39fa5a49120340b300220146012f8b514b4dde3f213fa14c61adac1b63026d5a85351a78a1ab7aca2449a[ALL] 025200f48424866308926e07dd51d1b4f3f914e3d42617b0d780d2db55b3d2e812"}, "vout": 1, "txid": "46fe175d8f88a4792789d1da892d58554edd654bdf332d94b61d67a1b269c234"}], "txid": "e7bb33671b03f8c556f1abce1a59ad3948af11906f375a1f3454f65da0f800bd", "blocktime": 1537870928, "version": 1, "confirmations": 11514, "time": 1537870928, "locktime": 0, "vsize": 225, "size": 225}