{"hash": "7eba6b0294fce52a835b871614ee9d140caa87714b9d463b07ebc7dbb611eaeb", "blockhash": "00000000000000000017f5eb5941039fbcee6240d03bc1f2f8e35350df66a1d8", "vout": [{"scriptPubKey": {"reqSigs": 1, "hex": "a91436336ea6555966dde845c3cb4ac00fe3bf1128f587", "addresses": ["36dc2UaStn7SaFXj2Lc1PcM3PdxzufimVo"], "asm": "OP_HASH160 36336ea6555966dde845c3cb4ac00fe3bf1128f5 OP_EQUAL", "type": "scripthash"}, "value": 0.00314884, "n": 0}, {"scriptPubKey": {"reqSigs": 1, "hex": "a9140b43c557760eee7bd69ca7a692ffe450a63abe3b87", "addresses": ["32iaYTQtop8THSth2bDUPHe2RFMiR1uGbE"], "asm": "OP_HASH160 0b43c557760eee7bd69ca7a692ffe450a63abe3b OP_EQUAL", "type": "scripthash"}, "value": 0.43738769, "n": 1}, {"scriptPubKey": {"reqSigs": 1, "hex": "a9146402a62c450ecf9c76403f9716821be2d11f47da87", "addresses": ["3Aopfno92NWBpUFwrtKxFDCeukbQifQ6WQ"], "asm": "OP_HASH160 6402a62c450ecf9c76403f9716821be2d11f47da OP_EQUAL", "type": "scripthash"}, "value": 0.37855578, "n": 2}], "hex": "010000000001019dbfad676e2509e31ed1630c087cf44136fcecf6dce2dbac121b02b4ebe8a7dc0600000023220020e614cb47f9d3888e2ecd2868e48d58f550df3322edda6418602be23e2bb5d7a9ffffffff0304ce04000000000017a91436336ea6555966dde845c3cb4ac00fe3bf1128f58791669b020000000017a9140b43c557760eee7bd69ca7a692ffe450a63abe3b875aa141020000000017a9146402a62c450ecf9c76403f9716821be2d11f47da8704004730440220463c01527d06e11b1fc9e9d28fc0cca6bad3ba1606a9f798155749047e157971022031a5a13b977ac9e1d3f666e47de4adb5135596076c776c85d8ed27a72b7c9c9301483045022100eb5dde1115a4d38816524270414788f69af938d5bad3c6bd12865910d77d57c702204136777d29c3b73bd9fa335acdf69857bb427f0bb08a49f30c16841b1bfa2cb60169522103c7958b48af32995add4836fadbf4aa524ea83da962b700c346d849d3d16ef493210233519a879c8cd169d4ddee185a4c80c8f90e08f234a5260a7e84044e1d208dcd210206af8d9355e4c8cfd73f0369bd6195d2b596d6a64c4e9d4773ac03edc7e3e93853ae00000000", "vin": [{"txinwitness": ["", "30440220463c01527d06e11b1fc9e9d28fc0cca6bad3ba1606a9f798155749047e157971022031a5a13b977ac9e1d3f666e47de4adb5135596076c776c85d8ed27a72b7c9c9301", "3045022100eb5dde1115a4d38816524270414788f69af938d5bad3c6bd12865910d77d57c702204136777d29c3b73bd9fa335acdf69857bb427f0bb08a49f30c16841b1bfa2cb601", "522103c7958b48af32995add4836fadbf4aa524ea83da962b700c346d849d3d16ef493210233519a879c8cd169d4ddee185a4c80c8f90e08f234a5260a7e84044e1d208dcd210206af8d9355e4c8cfd73f0369bd6195d2b596d6a64c4e9d4773ac03edc7e3e93853ae"], "sequence": 4294967295, "scriptSig": {"hex": "220020e614cb47f9d3888e2ecd2868e48d58f550df3322edda6418602be23e2bb5d7a9", "asm": "0020e614cb47f9d3888e2ecd2868e48d58f550df3322edda6418602be23e2bb5d7a9"}, "vout": 6, "txid": "dca7e8ebb4021b12acdbe2dcf6ecfc3641f47c080c63d11ee309256e67adbf9d"}], "txid": "e7bc33a37fd7c6247efe03dd251b9c87a6ed90f9033e7db0d5837c6233df0ac6", "blocktime": 1537874412, "version": 1, "confirmations": 11467, "time": 1537874412, "locktime": 0, "vsize": 246, "size": 437}