{"hash": "e7c7df67b21d42eda136155c1ef5ec3c627d048213594824f7ce94988d923c03", "blockhash": "0000000000000000000baef3f32e3676a92c3b2e5da21b426e4f302fc371ce76", "vout": [{"scriptPubKey": {"type": "nulldata", "hex": "6a4c5000007804000170c1f99337c475708b4b19e8702940d64fa54d8eb2d19ed074892d00f8e830f2fc8be9a7253da60fb49cdc31f4c05baa1a7106138d8261798802bc9a9526289ac0f6612cd74e33776ee4", "asm": "OP_RETURN 00007804000170c1f99337c475708b4b19e8702940d64fa54d8eb2d19ed074892d00f8e830f2fc8be9a7253da60fb49cdc31f4c05baa1a7106138d8261798802bc9a9526289ac0f6612cd74e33776ee4"}, "value": 0.0, "n": 0}, {"scriptPubKey": {"reqSigs": 1, "hex": "76a914d04c681c194e58e98079efbac66ffaeef18ea25588ac", "addresses": ["1KzP5jLAzQs6d1w76CFQBuSsvaaRB5Wuqc"], "asm": "OP_DUP OP_HASH160 d04c681c194e58e98079efbac66ffaeef18ea255 OP_EQUALVERIFY OP_CHECKSIG", "type": "pubkeyhash"}, "value": 0.0008356, "n": 1}], "hex": "0100000001ffea6dd5c093a58cd7db45eb0b58f98a853b2c728a2fd0697828bc52dc4afb4c010000006b483045022100cc9c4fc0fdb00f80817d35b54fa2de37440fe5c38ab66d7df5f88ceeab924f73022055bc742209f4d58be6eaf7cd60e4966762471a9ef317ea70350aecd517f71516012102ae415952c1bd57a0eb267c14c40e9e567775ab652bb06c460f29425a0517a3fcffffffff020000000000000000536a4c5000007804000170c1f99337c475708b4b19e8702940d64fa54d8eb2d19ed074892d00f8e830f2fc8be9a7253da60fb49cdc31f4c05baa1a7106138d8261798802bc9a9526289ac0f6612cd74e33776ee468460100000000001976a914d04c681c194e58e98079efbac66ffaeef18ea25588ac00000000", "vin": [{"sequence": 4294967295, "scriptSig": {"hex": "483045022100cc9c4fc0fdb00f80817d35b54fa2de37440fe5c38ab66d7df5f88ceeab924f73022055bc742209f4d58be6eaf7cd60e4966762471a9ef317ea70350aecd517f71516012102ae415952c1bd57a0eb267c14c40e9e567775ab652bb06c460f29425a0517a3fc", "asm": "3045022100cc9c4fc0fdb00f80817d35b54fa2de37440fe5c38ab66d7df5f88ceeab924f73022055bc742209f4d58be6eaf7cd60e4966762471a9ef317ea70350aecd517f71516[ALL] 02ae415952c1bd57a0eb267c14c40e9e567775ab652bb06c460f29425a0517a3fc"}, "vout": 1, "txid": "4cfb4adc52bc287869d02f8a722c3b858af9580beb45dbd78ca593c0d56deaff"}], "txid": "e7c7df67b21d42eda136155c1ef5ec3c627d048213594824f7ce94988d923c03", "blocktime": 1537876114, "version": 1, "confirmations": 11460, "time": 1537876114, "locktime": 0, "vsize": 284, "size": 284}