{"hash": "e7c937be9c434a020ce0d696b474119be076d84172394c3e815104491c1595c3", "blockhash": "00000000000000000017f5eb5941039fbcee6240d03bc1f2f8e35350df66a1d8", "vout": [{"scriptPubKey": {"type": "nulldata", "hex": "6a146f6d6e69000000000000001f000000e8d4a51000", "asm": "OP_RETURN 6f6d6e69000000000000001f000000e8d4a51000"}, "value": 0.0, "n": 0}, {"scriptPubKey": {"reqSigs": 1, "hex": "76a914443bab01c32cdb1cc99b6abf70108d404aad9fed88ac", "addresses": ["17DnRrGg2f7QFZnr6LfAU7i8rbiJkKa51j"], "asm": "OP_DUP OP_HASH160 443bab01c32cdb1cc99b6abf70108d404aad9fed OP_EQUALVERIFY OP_CHECKSIG", "type": "pubkeyhash"}, "value": 0.00306892, "n": 1}, {"scriptPubKey": {"reqSigs": 1, "hex": "76a914a25dec4d0011064ef106a983c39c7a540699f22088ac", "addresses": ["1FoWyxwPXuj4C6abqwhjDWdz6D4PZgYRjA"], "asm": "OP_DUP OP_HASH160 a25dec4d0011064ef106a983c39c7a540699f220 OP_EQUALVERIFY OP_CHECKSIG", "type": "pubkeyhash"}, "value": 5.46e-06, "n": 2}], "hex": "0100000001119c0842c268ca6865eabe0230558c074378887a349acb3b81bffbe27900de0e020000006b483045022100a1fe0f5ef2e643c8e07423f3132b5bf165eb432d67e952149f274ba4c40d4aa302205886f0ce69d99ca6a5c03f8bc91eda05b0dec07b758628447f3ec1191650ce65012103ffc403d2cb98f8ce105f7cbbbbd0e6279b148a762819efe52165ccb7f2df2b40feffffff030000000000000000166a146f6d6e69000000000000001f000000e8d4a51000ccae0400000000001976a914443bab01c32cdb1cc99b6abf70108d404aad9fed88ac22020000000000001976a914a25dec4d0011064ef106a983c39c7a540699f22088ac15490800", "vin": [{"sequence": 4294967294, "scriptSig": {"hex": "483045022100a1fe0f5ef2e643c8e07423f3132b5bf165eb432d67e952149f274ba4c40d4aa302205886f0ce69d99ca6a5c03f8bc91eda05b0dec07b758628447f3ec1191650ce65012103ffc403d2cb98f8ce105f7cbbbbd0e6279b148a762819efe52165ccb7f2df2b40", "asm": "3045022100a1fe0f5ef2e643c8e07423f3132b5bf165eb432d67e952149f274ba4c40d4aa302205886f0ce69d99ca6a5c03f8bc91eda05b0dec07b758628447f3ec1191650ce65[ALL] 03ffc403d2cb98f8ce105f7cbbbbd0e6279b148a762819efe52165ccb7f2df2b40"}, "vout": 2, "txid": "0ede0079e2fbbf813bcb9a347a887843078c553002beea6568ca68c242089c11"}], "txid": "e7c937be9c434a020ce0d696b474119be076d84172394c3e815104491c1595c3", "blocktime": 1537874412, "version": 1, "confirmations": 11468, "time": 1537874412, "locktime": 542997, "vsize": 257, "size": 257}