{"hash": "e7cb64ef77c7f90f75f4a5837a531fac8f918dec3a23096cd3c670edec7dab4a", "blockhash": "0000000000000000000dcc0f55137456b1a82d3642486a52398922ac4d620174", "vout": [{"scriptPubKey": {"reqSigs": 1, "hex": "76a914ab2eb86cf98d1907e8c407370729c1b5639e6dfb88ac", "addresses": ["1Gc8WzfUEo3a4MQWYi9FeGpcnNCrDnZGRY"], "asm": "OP_DUP OP_HASH160 ab2eb86cf98d1907e8c407370729c1b5639e6dfb OP_EQUALVERIFY OP_CHECKSIG", "type": "pubkeyhash"}, "value": 0.0224978, "n": 0}, {"scriptPubKey": {"type": "nulldata", "hex": "6a4c500000776a00016ffdf9b6d3fe46470d82d05786aeaeacb577c031fc3a016b46dc7dc7d09686d8413c3fc6baecaaad8911649aec025baa084106138d9ae0bd8c5cbc9a9526289ac0f6612cd74e33776ee4", "asm": "OP_RETURN 0000776a00016ffdf9b6d3fe46470d82d05786aeaeacb577c031fc3a016b46dc7dc7d09686d8413c3fc6baecaaad8911649aec025baa084106138d9ae0bd8c5cbc9a9526289ac0f6612cd74e33776ee4"}, "value": 0.0, "n": 1}], "hex": "0100000001cd24264222c9c8bb8d0acf4e2897220c1993778e47c291e6f65b5ae7d861f7a6010000006a4730440220227cb9eab1a83260a9c34ddaa03e9254015639a4ec1343fcb11014d290caafc902207bb198a0aaf50a0658051f9c10905327fb3ea267da8f1fed82eb7ed439caa3f1012102eff3e1a83ea0deda7c568f94f696859f7e4eaf96705a90caa0c12ac521c5f8eeffffffff0234542200000000001976a914ab2eb86cf98d1907e8c407370729c1b5639e6dfb88ac0000000000000000536a4c500000776a00016ffdf9b6d3fe46470d82d05786aeaeacb577c031fc3a016b46dc7dc7d09686d8413c3fc6baecaaad8911649aec025baa084106138d9ae0bd8c5cbc9a9526289ac0f6612cd74e33776ee400000000", "vin": [{"sequence": 4294967295, "scriptSig": {"hex": "4730440220227cb9eab1a83260a9c34ddaa03e9254015639a4ec1343fcb11014d290caafc902207bb198a0aaf50a0658051f9c10905327fb3ea267da8f1fed82eb7ed439caa3f1012102eff3e1a83ea0deda7c568f94f696859f7e4eaf96705a90caa0c12ac521c5f8ee", "asm": "30440220227cb9eab1a83260a9c34ddaa03e9254015639a4ec1343fcb11014d290caafc902207bb198a0aaf50a0658051f9c10905327fb3ea267da8f1fed82eb7ed439caa3f1[ALL] 02eff3e1a83ea0deda7c568f94f696859f7e4eaf96705a90caa0c12ac521c5f8ee"}, "vout": 1, "txid": "a6f761d8e75a5bf6e691c2478e7793190c2297284ecf0a8dbbc8c922422624cd"}], "txid": "e7cb64ef77c7f90f75f4a5837a531fac8f918dec3a23096cd3c670edec7dab4a", "blocktime": 1537870268, "version": 1, "confirmations": 11518, "time": 1537870268, "locktime": 0, "vsize": 283, "size": 283}