{"hash": "e7cc412bc4a8ee17294f45bddf670a9ebe617bc546b300466b827b24a640045d", "blockhash": "0000000000000000000baef3f32e3676a92c3b2e5da21b426e4f302fc371ce76", "vout": [{"scriptPubKey": {"reqSigs": 1, "hex": "76a91484b2781a269250c57b5f25ca9e720d00033904be88ac", "addresses": ["1D6dzaNvE5R9Cj1WwanMdxdir33jQpRZyC"], "asm": "OP_DUP OP_HASH160 84b2781a269250c57b5f25ca9e720d00033904be OP_EQUALVERIFY OP_CHECKSIG", "type": "pubkeyhash"}, "value": 0.00628209, "n": 0}, {"scriptPubKey": {"type": "nulldata", "hex": "6a4c500000781c00018f0bdad15bc188214cd37c29019d6ddc0f1b8ff117702940d64fa54d8eb2f97d5819c6de140ae1275a42503c72e75baa1ce40614542c9a77fe351d100759d4ba30d2c37bb011d97e02cf", "asm": "OP_RETURN 0000781c00018f0bdad15bc188214cd37c29019d6ddc0f1b8ff117702940d64fa54d8eb2f97d5819c6de140ae1275a42503c72e75baa1ce40614542c9a77fe351d100759d4ba30d2c37bb011d97e02cf"}, "value": 0.0, "n": 1}], "hex": "010000000176b8a09a11378f4fd5e78849458abd7feffc212d3a5a0d1617817befdb4b5d79010000006a47304402204bcaab3d29b413348aec9d723509097c403a0dabe99c24eb95998975829bd4b9022017a0cc4473f306c3f2ad7dc743b18d4130fd4c9660a6b9de3775c721e5e80c8901210305da2ae0a66d5df9ecc8e03a4bc789dc734f41fa672d9f2e87cd7e7fca22034effffffff02f1950900000000001976a91484b2781a269250c57b5f25ca9e720d00033904be88ac0000000000000000536a4c500000781c00018f0bdad15bc188214cd37c29019d6ddc0f1b8ff117702940d64fa54d8eb2f97d5819c6de140ae1275a42503c72e75baa1ce40614542c9a77fe351d100759d4ba30d2c37bb011d97e02cf00000000", "vin": [{"sequence": 4294967295, "scriptSig": {"hex": "47304402204bcaab3d29b413348aec9d723509097c403a0dabe99c24eb95998975829bd4b9022017a0cc4473f306c3f2ad7dc743b18d4130fd4c9660a6b9de3775c721e5e80c8901210305da2ae0a66d5df9ecc8e03a4bc789dc734f41fa672d9f2e87cd7e7fca22034e", "asm": "304402204bcaab3d29b413348aec9d723509097c403a0dabe99c24eb95998975829bd4b9022017a0cc4473f306c3f2ad7dc743b18d4130fd4c9660a6b9de3775c721e5e80c89[ALL] 0305da2ae0a66d5df9ecc8e03a4bc789dc734f41fa672d9f2e87cd7e7fca22034e"}, "vout": 1, "txid": "795d4bdbef7b8117160d5a3a2d21fcef7fbd8a454988e7d54f8f37119aa0b876"}], "txid": "e7cc412bc4a8ee17294f45bddf670a9ebe617bc546b300466b827b24a640045d", "blocktime": 1537876114, "version": 1, "confirmations": 11460, "time": 1537876114, "locktime": 0, "vsize": 283, "size": 283}