{"hash": "e7d086672de0574e083066f74643fcd24b2749790fb2ff1b2122a8654686fa06", "blockhash": "00000000000000000018f53835495a110e01622372bf6ae95dc86f2b0ab887b0", "vout": [{"scriptPubKey": {"reqSigs": 1, "hex": "76a914e08a9fcbd908bd690460ff89459eddb9f8e73c0b88ac", "addresses": ["1MUGRkRDsfX6tfpvHnoUaCGxbFhn5MjEnU"], "asm": "OP_DUP OP_HASH160 e08a9fcbd908bd690460ff89459eddb9f8e73c0b OP_EQUALVERIFY OP_CHECKSIG", "type": "pubkeyhash"}, "value": 0.07820463, "n": 0}, {"scriptPubKey": {"reqSigs": 1, "hex": "76a914f19eff774f46a4e2a333503df614b13c3700d88688ac", "addresses": ["1P2aKbo2Myw57ss1Ge7XkeNxWkxBjFL3M2"], "asm": "OP_DUP OP_HASH160 f19eff774f46a4e2a333503df614b13c3700d886 OP_EQUALVERIFY OP_CHECKSIG", "type": "pubkeyhash"}, "value": 0.047608, "n": 1}], "hex": "0100000001f0fd2c2fd799d161116a5bffded517a3fb5f2a46bb46a9de1f0897c3011fd709010000006a4730440220189318fd1b9eeb68eb97e1d721e34eb9723f290e1fc535f2b7df08ea7b680cb30220618e588ce348322d76a97a6a12b7c3b04f0bff8f69a7e6d86fb683e48cdbe8b40121039b0cb4df5c328e863081cb167430144149e9b011103e469d6141012f9f613c89ffffffff02af547700000000001976a914e08a9fcbd908bd690460ff89459eddb9f8e73c0b88ace0a44800000000001976a914f19eff774f46a4e2a333503df614b13c3700d88688ac00000000", "vin": [{"sequence": 4294967295, "scriptSig": {"hex": "4730440220189318fd1b9eeb68eb97e1d721e34eb9723f290e1fc535f2b7df08ea7b680cb30220618e588ce348322d76a97a6a12b7c3b04f0bff8f69a7e6d86fb683e48cdbe8b40121039b0cb4df5c328e863081cb167430144149e9b011103e469d6141012f9f613c89", "asm": "30440220189318fd1b9eeb68eb97e1d721e34eb9723f290e1fc535f2b7df08ea7b680cb30220618e588ce348322d76a97a6a12b7c3b04f0bff8f69a7e6d86fb683e48cdbe8b4[ALL] 039b0cb4df5c328e863081cb167430144149e9b011103e469d6141012f9f613c89"}, "vout": 1, "txid": "09d71f01c397081fdea946bb462a5ffba317d5deff5b6a1161d199d72f2cfdf0"}], "txid": "e7d086672de0574e083066f74643fcd24b2749790fb2ff1b2122a8654686fa06", "blocktime": 1537870928, "version": 1, "confirmations": 11514, "time": 1537870928, "locktime": 0, "vsize": 225, "size": 225}