{"hash": "e7d4f538946df442ccc2500268f8b54ebb37a836f102e42c40fd1a75e52d541b", "blockhash": "0000000000000000000baef3f32e3676a92c3b2e5da21b426e4f302fc371ce76", "vout": [{"scriptPubKey": {"reqSigs": 1, "hex": "76a9144fceee700a31f782ba4f9ebd2b127cd400041bb188ac", "addresses": ["18GzH11T5h2fpvUoBJDub7MgNJVw3FfqQ8"], "asm": "OP_DUP OP_HASH160 4fceee700a31f782ba4f9ebd2b127cd400041bb1 OP_EQUALVERIFY OP_CHECKSIG", "type": "pubkeyhash"}, "value": 5e-05, "n": 0}, {"scriptPubKey": {"reqSigs": 1, "hex": "76a914bda57bb0d6ef1106a562b88b5687aedec404d3e588ac", "addresses": ["1JHkxEDuG6MM49xa2YE1yXAjdtUxxPFc5D"], "asm": "OP_DUP OP_HASH160 bda57bb0d6ef1106a562b88b5687aedec404d3e5 OP_EQUALVERIFY OP_CHECKSIG", "type": "pubkeyhash"}, "value": 0.01, "n": 1}, {"scriptPubKey": {"reqSigs": 1, "hex": "76a914485bbc85d304d336ee3fc5087ce641004dea8cec88ac", "addresses": ["17bbYmeZWfsDEwpYKfw4YMfvdwfakWBDrX"], "asm": "OP_DUP OP_HASH160 485bbc85d304d336ee3fc5087ce641004dea8cec OP_EQUALVERIFY OP_CHECKSIG", "type": "pubkeyhash"}, "value": 0.00114873, "n": 2}], "hex": "010000000474c99458393c48076f8ec61629ad70788ea0a86d87482f113b96471d4e1791e1020000006b483045022100a4acaddcdf96703f720ca17d2c9b5e56fa3153b5d6e81f123c622128d7c3edb80220761bd0266c025c440b2852522e42d9430ef710150ff6e17a8c455acb95707caa012103df6dc704701d386657f773fc1414e5ac61bc7147918052570560eb29e473b107ffffffff2aa06e62966f2057cc206615336fc708d66809b3b3aef2c0b84be826a264c08a020000006a4730440220381250b90f1acaf152b202e469466b9f6a1cb1db0da2a710991b3e2ea444cc9002200937ee65b52a3db260e281f12c6620e867c8016c777c4af61bcf46d47b5d6845012102ae69bf01772cf0f067a28efbbd26694d04db421641a713f1976094bb4a9860ceffffffff121ffde050ca93b52cb2939a1bce7573b4153b13f10723fb5e7da7f9e61d3932020000006a4730440220304791ef003ee1beed9e0d896a8749ad3cdcb6c3847265c999fbac7feaa4eb86022070eb53901c73a9eb1f3a865183e0c7a8ba391706a8cb889ac5535a9bba84046b012102ae69bf01772cf0f067a28efbbd26694d04db421641a713f1976094bb4a9860ceffffffff11398f54ce6fda9970637674a7fa8cd2651bf79c35ebb4df760830e55f63b6d4000000006a4730440220294c74c13a3e500695a2081b98fe40cce3e1c043206e767f8b241573bd3a0951022019dc115c4168c9dd6e794c5620cdcee103c1db9289bc9b4ba06cb52f94f90173012102e679deb5b881b14284ce88895cda73ae62340c27b560cb51531757d41642c2d9ffffffff0388130000000000001976a9144fceee700a31f782ba4f9ebd2b127cd400041bb188ac40420f00000000001976a914bda57bb0d6ef1106a562b88b5687aedec404d3e588acb9c00100000000001976a914485bbc85d304d336ee3fc5087ce641004dea8cec88ac00000000", "vin": [{"sequence": 4294967295, "scriptSig": {"hex": "483045022100a4acaddcdf96703f720ca17d2c9b5e56fa3153b5d6e81f123c622128d7c3edb80220761bd0266c025c440b2852522e42d9430ef710150ff6e17a8c455acb95707caa012103df6dc704701d386657f773fc1414e5ac61bc7147918052570560eb29e473b107", "asm": "3045022100a4acaddcdf96703f720ca17d2c9b5e56fa3153b5d6e81f123c622128d7c3edb80220761bd0266c025c440b2852522e42d9430ef710150ff6e17a8c455acb95707caa[ALL] 03df6dc704701d386657f773fc1414e5ac61bc7147918052570560eb29e473b107"}, "vout": 2, "txid": "e191174e1d47963b112f48876da8a08e7870ad2916c68e6f07483c395894c974"}, {"sequence": 4294967295, "scriptSig": {"hex": "4730440220381250b90f1acaf152b202e469466b9f6a1cb1db0da2a710991b3e2ea444cc9002200937ee65b52a3db260e281f12c6620e867c8016c777c4af61bcf46d47b5d6845012102ae69bf01772cf0f067a28efbbd26694d04db421641a713f1976094bb4a9860ce", "asm": "30440220381250b90f1acaf152b202e469466b9f6a1cb1db0da2a710991b3e2ea444cc9002200937ee65b52a3db260e281f12c6620e867c8016c777c4af61bcf46d47b5d6845[ALL] 02ae69bf01772cf0f067a28efbbd26694d04db421641a713f1976094bb4a9860ce"}, "vout": 2, "txid": "8ac064a226e84bb8c0f2aeb3b30968d608c76f33156620cc57206f96626ea02a"}, {"sequence": 4294967295, "scriptSig": {"hex": "4730440220304791ef003ee1beed9e0d896a8749ad3cdcb6c3847265c999fbac7feaa4eb86022070eb53901c73a9eb1f3a865183e0c7a8ba391706a8cb889ac5535a9bba84046b012102ae69bf01772cf0f067a28efbbd26694d04db421641a713f1976094bb4a9860ce", "asm": "30440220304791ef003ee1beed9e0d896a8749ad3cdcb6c3847265c999fbac7feaa4eb86022070eb53901c73a9eb1f3a865183e0c7a8ba391706a8cb889ac5535a9bba84046b[ALL] 02ae69bf01772cf0f067a28efbbd26694d04db421641a713f1976094bb4a9860ce"}, "vout": 2, "txid": "32391de6f9a77d5efb2307f1133b15b47375ce1b9a93b22cb593ca50e0fd1f12"}, {"sequence": 4294967295, "scriptSig": {"hex": "4730440220294c74c13a3e500695a2081b98fe40cce3e1c043206e767f8b241573bd3a0951022019dc115c4168c9dd6e794c5620cdcee103c1db9289bc9b4ba06cb52f94f90173012102e679deb5b881b14284ce88895cda73ae62340c27b560cb51531757d41642c2d9", "asm": "30440220294c74c13a3e500695a2081b98fe40cce3e1c043206e767f8b241573bd3a0951022019dc115c4168c9dd6e794c5620cdcee103c1db9289bc9b4ba06cb52f94f90173[ALL] 02e679deb5b881b14284ce88895cda73ae62340c27b560cb51531757d41642c2d9"}, "vout": 0, "txid": "d4b6635fe5300876dfb4eb359cf71b65d28cfaa77476637099da6fce548f3911"}], "txid": "e7d4f538946df442ccc2500268f8b54ebb37a836f102e42c40fd1a75e52d541b", "blocktime": 1537876114, "version": 1, "confirmations": 11460, "time": 1537876114, "locktime": 0, "vsize": 701, "size": 701}