{"hash": "9311f4db1d53a7ac249dd5da7e83e26a6a0a024d24905c1dedd65ca462b75b1c", "blockhash": "00000000000000000018f53835495a110e01622372bf6ae95dc86f2b0ab887b0", "vout": [{"scriptPubKey": {"reqSigs": 1, "hex": "a914a6332968433f6fd3ab0c8478a2dd4140b100bb0a87", "addresses": ["3GqoPAhoChjS3VAY4vYoCuxUdpH1grbrS1"], "asm": "OP_HASH160 a6332968433f6fd3ab0c8478a2dd4140b100bb0a OP_EQUAL", "type": "scripthash"}, "value": 0.00016236, "n": 0}, {"scriptPubKey": {"reqSigs": 1, "hex": "a91418c020eadd70986e5a2392ca8cef705bf6a7fcd787", "addresses": ["33wtJUYYuRYx25ZspXbSUyyzoPwzBETW13"], "asm": "OP_HASH160 18c020eadd70986e5a2392ca8cef705bf6a7fcd7 OP_EQUAL", "type": "scripthash"}, "value": 0.0023818, "n": 1}], "hex": "010000000001013400489eac6b4b46c7426ec9c5efa59a79d66a6ae7c593a784d3312fe954dbb4010000002322002034d286ccab95ac2830f1056ba57f00e0448d1d5ecf2fff624cf6f42fa30a8290ffffffff026c3f00000000000017a914a6332968433f6fd3ab0c8478a2dd4140b100bb0a8764a203000000000017a91418c020eadd70986e5a2392ca8cef705bf6a7fcd7870400483045022100f5d130333cca27f3bf1f4405603c46452eb8306c956aeaf0127c130f0a43fa4c0220580c201c4f0290fae021d09e4379ad8ac3cb348663a07b10339e492e2d41f55c01483045022100a49383100a3e7bf2f83713ed3a0de5770922380f346a6898fea277a2e539349d022051410d7e1681eff32cb358935cec78bf3b49840521315589b5797798a18e0dfd014752210348e3cf19d1b9cafc84385efb67f6683c8f43574f31fab2ae0219a9b9d14edd212103871fc2ca08e6950b38867e8e6a0e94ee625223d3aa0df5c65f414c6d784467e252ae00000000", "vin": [{"txinwitness": ["", "3045022100f5d130333cca27f3bf1f4405603c46452eb8306c956aeaf0127c130f0a43fa4c0220580c201c4f0290fae021d09e4379ad8ac3cb348663a07b10339e492e2d41f55c01", "3045022100a49383100a3e7bf2f83713ed3a0de5770922380f346a6898fea277a2e539349d022051410d7e1681eff32cb358935cec78bf3b49840521315589b5797798a18e0dfd01", "52210348e3cf19d1b9cafc84385efb67f6683c8f43574f31fab2ae0219a9b9d14edd212103871fc2ca08e6950b38867e8e6a0e94ee625223d3aa0df5c65f414c6d784467e252ae"], "sequence": 4294967295, "scriptSig": {"hex": "22002034d286ccab95ac2830f1056ba57f00e0448d1d5ecf2fff624cf6f42fa30a8290", "asm": "002034d286ccab95ac2830f1056ba57f00e0448d1d5ecf2fff624cf6f42fa30a8290"}, "vout": 1, "txid": "b4db54e92f31d384a793c5e76a6ad6799aa5efc5c96e42c7464b6bac9e480034"}], "txid": "e7d8312c02dbc00a96cd699fa9549373363d9b7010edf150c01185ba6685756d", "blocktime": 1537870928, "version": 1, "confirmations": 11514, "time": 1537870928, "locktime": 0, "vsize": 206, "size": 372}