{"hash": "9558c597b35283b2d8fc29d5fd363ae02e8db8c13c3e815f70bc03df9675e81c", "blockhash": "0000000000000000000e13cef7c366c0283d82e591d1acd082e914b08063cdf1", "vout": [{"scriptPubKey": {"reqSigs": 1, "hex": "0014f8eca91b3cdbfc9c0ebe9ea77a7a99308ae53a16", "addresses": ["bc1qlrk2jxeum07fcr47n6nh575exz9w2wskr7j62p"], "asm": "0 f8eca91b3cdbfc9c0ebe9ea77a7a99308ae53a16", "type": "witness_v0_keyhash"}, "value": 0.8172993, "n": 0}, {"scriptPubKey": {"reqSigs": 1, "hex": "76a9147780e155b12930cddf0901c6020bd9e3a3e2cf1588ac", "addresses": ["1Btsoam4QDyvmxp9fPUN3Ce8D2DHeY4biz"], "asm": "OP_DUP OP_HASH160 7780e155b12930cddf0901c6020bd9e3a3e2cf15 OP_EQUALVERIFY OP_CHECKSIG", "type": "pubkeyhash"}, "value": 0.02375, "n": 1}], "hex": "01000000000101b8ec5252bc6e6e826b53aaf202241c4dc4fcf93194f3e537630b28542bb93f2b0000000000ffffffff028a19df0400000000160014f8eca91b3cdbfc9c0ebe9ea77a7a99308ae53a16583d2400000000001976a9147780e155b12930cddf0901c6020bd9e3a3e2cf1588ac0247304402200de46a31edcc2b98ef53aa3cd81718a66cd718493ad87708a584f96965600a2702200cbaf8892a4c1203b7366ad15ba06dc27860f6ba5d284f56d8f21b4f057b517e0121034d37262afe19e1aae08f923bed43e478e35765b1309259dfbdcd7331ca331fe800000000", "vin": [{"txinwitness": ["304402200de46a31edcc2b98ef53aa3cd81718a66cd718493ad87708a584f96965600a2702200cbaf8892a4c1203b7366ad15ba06dc27860f6ba5d284f56d8f21b4f057b517e01", "034d37262afe19e1aae08f923bed43e478e35765b1309259dfbdcd7331ca331fe8"], "sequence": 4294967295, "scriptSig": {"hex": "", "asm": ""}, "vout": 0, "txid": "2b3fb92b54280b6337e5f39431f9fcc44d1c2402f2aa536b826e6ebc5252ecb8"}], "txid": "e7d9814bf9f6c5e31712724228c3858775175382f0b96da07a8d052dc9ec8bf0", "blocktime": 1537871767, "version": 1, "confirmations": 11495, "time": 1537871767, "locktime": 0, "vsize": 144, "size": 225}