{"hash": "9b38db9435e8d2de63b9c4826ed9d7286b5307208107bc6db89e5b54f16ea6b7", "blockhash": "00000000000000000018f53835495a110e01622372bf6ae95dc86f2b0ab887b0", "vout": [{"scriptPubKey": {"reqSigs": 1, "hex": "76a914658bc2e4001cfacc64a3e041943e921b3086737588ac", "addresses": ["1AFvgAG4FN8fhtp3ZtSF8hsmKvPTDiB4RV"], "asm": "OP_DUP OP_HASH160 658bc2e4001cfacc64a3e041943e921b30867375 OP_EQUALVERIFY OP_CHECKSIG", "type": "pubkeyhash"}, "value": 3.296e-05, "n": 0}, {"scriptPubKey": {"reqSigs": 1, "hex": "a914e8db75c900cf08f06518e96d167331f2a4abfb3387", "addresses": ["3NvFbQMAkkqEFj4i1sYPPLkSWzxTFUchjA"], "asm": "OP_HASH160 e8db75c900cf08f06518e96d167331f2a4abfb33 OP_EQUAL", "type": "scripthash"}, "value": 9.167e-05, "n": 1}], "hex": "0100000000010207d73e1557f920c00b9109a2517f84db2b0a26057e7411a87031cdf067f333710100000023220020941cfaff8837763dc1f69ff82b6d6553fdea17a41cfc29a04403293eedd8ccc7ffffffffb576c1f93f067fadb322fb394a02a6b151eeee206cf5812a5019672f4a751b880100000023220020941cfaff8837763dc1f69ff82b6d6553fdea17a41cfc29a04403293eedd8ccc7ffffffff02e00c0000000000001976a914658bc2e4001cfacc64a3e041943e921b3086737588accf2300000000000017a914e8db75c900cf08f06518e96d167331f2a4abfb33870400483045022100fe8f3571219acd1c686ec29d695b43f000d6bc95401e13b4beaf644176038f4b02201f783e7ef1cf5790ce1b661b0d5c495f857bb14a5e23995d205cff09c75396a201483045022100ab3a88063881475af36cecbc84821fcfdb73e6620247bc72b37f9b31d15f370b02205e87de8b430413351c5f5ee3f34d88230af7e9c0a993d50de568d050b35606860147522102531db3a5883f29bab4241dd0cd726936667bcda445d89bdd22244e828b6993342103148c80a5bdfddb05ff5bcffc397c8ca748d8b435ec6a175bc9d7bfc7fc6f853752ae040048304502210093342a5a029167e5c6e692e0272ac5c8dc673f63d77181a67972a66f970cc17402204bd4e657a761aed90ec14829940f93acc5a978f2a73fbc68eb80e68bd37800bb0147304402203cdeafbca807597dc93b2d172cecfd3350f51ccf7c3684d9207303a82a989a6f022068cd08913f5b8293c8a86f5ce951aded418a1b99800efddebf00291ebfe69ffe0147522102531db3a5883f29bab4241dd0cd726936667bcda445d89bdd22244e828b6993342103148c80a5bdfddb05ff5bcffc397c8ca748d8b435ec6a175bc9d7bfc7fc6f853752ae00000000", "vin": [{"txinwitness": ["", "3045022100fe8f3571219acd1c686ec29d695b43f000d6bc95401e13b4beaf644176038f4b02201f783e7ef1cf5790ce1b661b0d5c495f857bb14a5e23995d205cff09c75396a201", "3045022100ab3a88063881475af36cecbc84821fcfdb73e6620247bc72b37f9b31d15f370b02205e87de8b430413351c5f5ee3f34d88230af7e9c0a993d50de568d050b356068601", "522102531db3a5883f29bab4241dd0cd726936667bcda445d89bdd22244e828b6993342103148c80a5bdfddb05ff5bcffc397c8ca748d8b435ec6a175bc9d7bfc7fc6f853752ae"], "sequence": 4294967295, "scriptSig": {"hex": "220020941cfaff8837763dc1f69ff82b6d6553fdea17a41cfc29a04403293eedd8ccc7", "asm": "0020941cfaff8837763dc1f69ff82b6d6553fdea17a41cfc29a04403293eedd8ccc7"}, "vout": 1, "txid": "7133f367f0cd3170a811747e05260a2bdb847f51a209910bc020f957153ed707"}, {"txinwitness": ["", "304502210093342a5a029167e5c6e692e0272ac5c8dc673f63d77181a67972a66f970cc17402204bd4e657a761aed90ec14829940f93acc5a978f2a73fbc68eb80e68bd37800bb01", "304402203cdeafbca807597dc93b2d172cecfd3350f51ccf7c3684d9207303a82a989a6f022068cd08913f5b8293c8a86f5ce951aded418a1b99800efddebf00291ebfe69ffe01", "522102531db3a5883f29bab4241dd0cd726936667bcda445d89bdd22244e828b6993342103148c80a5bdfddb05ff5bcffc397c8ca748d8b435ec6a175bc9d7bfc7fc6f853752ae"], "sequence": 4294967295, "scriptSig": {"hex": "220020941cfaff8837763dc1f69ff82b6d6553fdea17a41cfc29a04403293eedd8ccc7", "asm": "0020941cfaff8837763dc1f69ff82b6d6553fdea17a41cfc29a04403293eedd8ccc7"}, "vout": 1, "txid": "881b754a2f6719502a81f56c20eeee51b1a6024a39fb22b3ad7f063ff9c176b5"}], "txid": "e7de67e9cd639c4024f069cbc760d17b58886574864f3f5301f51452e6fa4a57", "blocktime": 1537870928, "version": 1, "confirmations": 11514, "time": 1537870928, "locktime": 0, "vsize": 339, "size": 669}