{"hash": "e7e16d5bd5a4980bf4cf8221012447538d9e337fa4f038bcd2e7446b57be7c5f", "blockhash": "00000000000000000018f53835495a110e01622372bf6ae95dc86f2b0ab887b0", "vout": [{"scriptPubKey": {"type": "nulldata", "hex": "6a4c500000778600012f061448616686459b63732dbcbefa6b8351586b4e86aeaeacb577c031fc8103ac2eb340c5c4766774c5a44536ff5baa0b59061431619b2703debc9a9526289ac0f6612cd74e33776ee4", "asm": "OP_RETURN 0000778600012f061448616686459b63732dbcbefa6b8351586b4e86aeaeacb577c031fc8103ac2eb340c5c4766774c5a44536ff5baa0b59061431619b2703debc9a9526289ac0f6612cd74e33776ee4"}, "value": 0.0, "n": 0}, {"scriptPubKey": {"reqSigs": 1, "hex": "76a914d52f0ce3ded65dbc9de156330954034000adfe6688ac", "addresses": ["1LSDHyb5xmPTueriLFZhU1YjxutNPorKhD"], "asm": "OP_DUP OP_HASH160 d52f0ce3ded65dbc9de156330954034000adfe66 OP_EQUALVERIFY OP_CHECKSIG", "type": "pubkeyhash"}, "value": 0.01415704, "n": 1}], "hex": "010000000148b031050c00efbb398d8e28d68603b96d49d58f5955ba935d66f1b5fe4c355e000000006b483045022100ed5f1ed744865abcfef5d6e7a5b93d8d3e28c58e640d611a0f3ea6a55dc57312022021f96da727f9b81cacf14bdfcf9700ad061ea979b9a3553b10d6fedcadf060b7012102622cebcfce9feb502e4145384b6965690f2d4412775e75ee17afc58109ce173cffffffff020000000000000000536a4c500000778600012f061448616686459b63732dbcbefa6b8351586b4e86aeaeacb577c031fc8103ac2eb340c5c4766774c5a44536ff5baa0b59061431619b2703debc9a9526289ac0f6612cd74e33776ee4189a1500000000001976a914d52f0ce3ded65dbc9de156330954034000adfe6688ac00000000", "vin": [{"sequence": 4294967295, "scriptSig": {"hex": "483045022100ed5f1ed744865abcfef5d6e7a5b93d8d3e28c58e640d611a0f3ea6a55dc57312022021f96da727f9b81cacf14bdfcf9700ad061ea979b9a3553b10d6fedcadf060b7012102622cebcfce9feb502e4145384b6965690f2d4412775e75ee17afc58109ce173c", "asm": "3045022100ed5f1ed744865abcfef5d6e7a5b93d8d3e28c58e640d611a0f3ea6a55dc57312022021f96da727f9b81cacf14bdfcf9700ad061ea979b9a3553b10d6fedcadf060b7[ALL] 02622cebcfce9feb502e4145384b6965690f2d4412775e75ee17afc58109ce173c"}, "vout": 0, "txid": "5e354cfeb5f1665d93ba55598fd5496db90386d6288e8d39bbef000c0531b048"}], "txid": "e7e16d5bd5a4980bf4cf8221012447538d9e337fa4f038bcd2e7446b57be7c5f", "blocktime": 1537870928, "version": 1, "confirmations": 11512, "time": 1537870928, "locktime": 0, "vsize": 284, "size": 284}