{"hash": "c0d6f1e03ccdbcd9ca139c4833029f1c76c7906af042b467843c5fd533e23d7e", "blockhash": "0000000000000000000baef3f32e3676a92c3b2e5da21b426e4f302fc371ce76", "vout": [{"scriptPubKey": {"reqSigs": 1, "hex": "a91469b2c0d2d00304b3f643ef0019bf1cc4be4d703987", "addresses": ["3BKu1gEJSqog5rioUPs5GmC9yYbCWDtB5W"], "asm": "OP_HASH160 69b2c0d2d00304b3f643ef0019bf1cc4be4d7039 OP_EQUAL", "type": "scripthash"}, "value": 1.43038875, "n": 0}], "hex": "010000000001018884cca098f4501b05edf1fa507f673e4331e20cba2954aa794239dc11ff43510000000017160014a8701143a0830af51aef8eebfc030e310098e7b0feffffff019b9986080000000017a91469b2c0d2d00304b3f643ef0019bf1cc4be4d703987024730440220736815ff70d8071779181600e0a6ed48df81fb799936e79849b0c8e1a6f2bc5102204e0d2d0f64340e87591cb3f3106bb14241109102f60987c805bd819b6685b543012103161e377aedb18907ef79422b01d3f6986fc831789efc7ce1e1b81aa8bf6cbfdb16490800", "vin": [{"txinwitness": ["30440220736815ff70d8071779181600e0a6ed48df81fb799936e79849b0c8e1a6f2bc5102204e0d2d0f64340e87591cb3f3106bb14241109102f60987c805bd819b6685b54301", "03161e377aedb18907ef79422b01d3f6986fc831789efc7ce1e1b81aa8bf6cbfdb"], "sequence": 4294967294, "scriptSig": {"hex": "160014a8701143a0830af51aef8eebfc030e310098e7b0", "asm": "0014a8701143a0830af51aef8eebfc030e310098e7b0"}, "vout": 0, "txid": "5143ff11dc394279aa5429ba0ce231433e677f50faf1ed051b50f498a0cc8488"}], "txid": "e7e639324981a83031390418d956b3e744b47dd1f7ec758983fa31f7962da30d", "blocktime": 1537876114, "version": 1, "confirmations": 11460, "time": 1537876114, "locktime": 542998, "vsize": 134, "size": 215}