{"hash": "d99207557547ef02fee7775c5d932bc7a154eefb41ae4d5d4fb334d123e24e30", "blockhash": "0000000000000000001e0dab787dd257d1dbfcb92a98c2207d5e1078be1f4165", "vout": [{"scriptPubKey": {"reqSigs": 1, "hex": "76a91443abd9fcb1a93e575fa12c45355f8633e9103f3588ac", "addresses": ["17Ap9Jh7CgKncryjg9YXAnxok2uFXXF4iC"], "asm": "OP_DUP OP_HASH160 43abd9fcb1a93e575fa12c45355f8633e9103f35 OP_EQUALVERIFY OP_CHECKSIG", "type": "pubkeyhash"}, "value": 0.0098209, "n": 0}, {"scriptPubKey": {"reqSigs": 1, "hex": "a91427409eb98e562e6b812344c81e6da216443943d487", "addresses": ["35GZguK9dY5jJZDrHcw5gnUcHVkmcWAw7w"], "asm": "OP_HASH160 27409eb98e562e6b812344c81e6da216443943d4 OP_EQUAL", "type": "scripthash"}, "value": 0.12162339, "n": 1}], "hex": "01000000000101284f6701576972e7bfd0ae1d5234ba73e2b925e5ff50a780f7e3af80af499aea0000000023220020465dd46c012f1ab824baabf32715c26967888f830e850eb69e8a793931428560fdffffff024afc0e00000000001976a91443abd9fcb1a93e575fa12c45355f8633e9103f3588ac2395b9000000000017a91427409eb98e562e6b812344c81e6da216443943d4870400483045022100ea0a47402eade178eb352a2f30fb7e33573e06e0469e4d072929f0eb9d956aa302203f5488c998a3519b165fe38dd4762bd326978e2144115632a595df77b79cd8f001483045022100bed6e330b1e05e0795351e1632e4a2e47fb64899f851ef3d2684f9f73d71a5d9022006a3f8d9f2938a06cedb9c4b809e441578d6ea316e33fa896cb35a813e48d66e0147522103c182ec80770ec0f9441e257e48598b1f9bb9d1d3c4dad6a70c80798b84d28c0b21035e7bac9f10922438abcb1d4880507136fd5b9f7341d0e1487fc5faf4a8a2c5c552ae11490800", "vin": [{"txinwitness": ["", "3045022100ea0a47402eade178eb352a2f30fb7e33573e06e0469e4d072929f0eb9d956aa302203f5488c998a3519b165fe38dd4762bd326978e2144115632a595df77b79cd8f001", "3045022100bed6e330b1e05e0795351e1632e4a2e47fb64899f851ef3d2684f9f73d71a5d9022006a3f8d9f2938a06cedb9c4b809e441578d6ea316e33fa896cb35a813e48d66e01", "522103c182ec80770ec0f9441e257e48598b1f9bb9d1d3c4dad6a70c80798b84d28c0b21035e7bac9f10922438abcb1d4880507136fd5b9f7341d0e1487fc5faf4a8a2c5c552ae"], "sequence": 4294967293, "scriptSig": {"hex": "220020465dd46c012f1ab824baabf32715c26967888f830e850eb69e8a793931428560", "asm": "0020465dd46c012f1ab824baabf32715c26967888f830e850eb69e8a793931428560"}, "vout": 0, "txid": "ea9a49af80afe3f780a750ffe525b9e273ba34521daed0bfe772695701674f28"}], "txid": "e7e988c03102e6a6f09687f0097707d9663fe8f53d88ac5993374ddddd54d6cf", "blocktime": 1537872475, "version": 1, "confirmations": 11487, "time": 1537872475, "locktime": 542993, "vsize": 208, "size": 374}