{"hash": "e7eb35dcb6cf6bad1c0bb4a5ff14ac11e95cedc5c5c116e9f839cb73b4bd6442", "blockhash": "0000000000000000001f76057863aec43deb6fa401d9628bb513d65a8098bfab", "vout": [{"scriptPubKey": {"reqSigs": 1, "hex": "76a914cd90a63139914a34bf3fe14a21fd20f3cf3754c888ac", "addresses": ["1KjvojApPAmLQxBXPXcpe39KZDSWBQFxUo"], "asm": "OP_DUP OP_HASH160 cd90a63139914a34bf3fe14a21fd20f3cf3754c8 OP_EQUALVERIFY OP_CHECKSIG", "type": "pubkeyhash"}, "value": 0.0995, "n": 0}, {"scriptPubKey": {"reqSigs": 1, "hex": "76a914691fdbc213e97a323f320fa0f43cd5e08bfab13888ac", "addresses": ["1Aar7hshdfYMwBifUsKPkoR5HmucaJxchk"], "asm": "OP_DUP OP_HASH160 691fdbc213e97a323f320fa0f43cd5e08bfab138 OP_EQUALVERIFY OP_CHECKSIG", "type": "pubkeyhash"}, "value": 0.25036717, "n": 1}], "hex": "0200000001150e5cdf77a1a4f9c063517b8ee92eae1590b94918193c93dfe90b52d1bb3a3e030000006b483045022100fabfbafb97928c1eda6b1dce97a44b37497ebb9c8d81cf0ab87a7cb162e6daf502205b9ac492972aea3a71eefd5beb59c26895ff466d35bcd5ceb3f559142cc58c8d012103bdec043d457ece738463179aab92042953b9b4c0713857979ab5d0f11832fd3bfeffffff0230d39700000000001976a914cd90a63139914a34bf3fe14a21fd20f3cf3754c888acad077e01000000001976a914691fdbc213e97a323f320fa0f43cd5e08bfab13888ac14490800", "vin": [{"sequence": 4294967294, "scriptSig": {"hex": "483045022100fabfbafb97928c1eda6b1dce97a44b37497ebb9c8d81cf0ab87a7cb162e6daf502205b9ac492972aea3a71eefd5beb59c26895ff466d35bcd5ceb3f559142cc58c8d012103bdec043d457ece738463179aab92042953b9b4c0713857979ab5d0f11832fd3b", "asm": "3045022100fabfbafb97928c1eda6b1dce97a44b37497ebb9c8d81cf0ab87a7cb162e6daf502205b9ac492972aea3a71eefd5beb59c26895ff466d35bcd5ceb3f559142cc58c8d[ALL] 03bdec043d457ece738463179aab92042953b9b4c0713857979ab5d0f11832fd3b"}, "vout": 3, "txid": "3e3abbd1520be9df933c191849b99015ae2ee98e7b5163c0f9a4a177df5c0e15"}], "txid": "e7eb35dcb6cf6bad1c0bb4a5ff14ac11e95cedc5c5c116e9f839cb73b4bd6442", "blocktime": 1537873891, "version": 2, "confirmations": 11474, "time": 1537873891, "locktime": 542996, "vsize": 226, "size": 226}