{"hash": "44007cb07d26217ebd03532bcbb997ea387a9dd63aa9ccb0760ee945a10bd6fa", "blockhash": "0000000000000000000baef3f32e3676a92c3b2e5da21b426e4f302fc371ce76", "vout": [{"scriptPubKey": {"reqSigs": 1, "hex": "76a91485db7cab769f93a69785c13cc1e0df51be1f9d8b88ac", "addresses": ["1DCmojk8DoVM3CmvYCzyJbGfcHzZstF2vU"], "asm": "OP_DUP OP_HASH160 85db7cab769f93a69785c13cc1e0df51be1f9d8b OP_EQUALVERIFY OP_CHECKSIG", "type": "pubkeyhash"}, "value": 2.293e-05, "n": 0}, {"scriptPubKey": {"reqSigs": 1, "hex": "a914e8db75c900cf08f06518e96d167331f2a4abfb3387", "addresses": ["3NvFbQMAkkqEFj4i1sYPPLkSWzxTFUchjA"], "asm": "OP_HASH160 e8db75c900cf08f06518e96d167331f2a4abfb33 OP_EQUAL", "type": "scripthash"}, "value": 0.00163339, "n": 1}], "hex": "0100000000010106f5663c286cb64e0bc36d94247dfe76772fc52c71c23d0a05cb130bab9bd8700100000023220020941cfaff8837763dc1f69ff82b6d6553fdea17a41cfc29a04403293eedd8ccc7ffffffff02f5080000000000001976a91485db7cab769f93a69785c13cc1e0df51be1f9d8b88ac0b7e02000000000017a914e8db75c900cf08f06518e96d167331f2a4abfb33870400483045022100f5f7f02dc99b50a0db8b00edebeb038f30806808fbecb4851ae169d3b25d1eb502202fb49123feb7c2bf7f1935720627da6f635059e5810a13f24d243c3468c46466014830450221009881b154f8f0cf149a1fc8edf2c12b9be0184cd5aa32d9a32b884a8ca4f4474c02205bf6e218a641231731b74c3e81eefb0f569393368e373c87a15eef75e806a4fa0147522102531db3a5883f29bab4241dd0cd726936667bcda445d89bdd22244e828b6993342103148c80a5bdfddb05ff5bcffc397c8ca748d8b435ec6a175bc9d7bfc7fc6f853752ae00000000", "vin": [{"txinwitness": ["", "3045022100f5f7f02dc99b50a0db8b00edebeb038f30806808fbecb4851ae169d3b25d1eb502202fb49123feb7c2bf7f1935720627da6f635059e5810a13f24d243c3468c4646601", "30450221009881b154f8f0cf149a1fc8edf2c12b9be0184cd5aa32d9a32b884a8ca4f4474c02205bf6e218a641231731b74c3e81eefb0f569393368e373c87a15eef75e806a4fa01", "522102531db3a5883f29bab4241dd0cd726936667bcda445d89bdd22244e828b6993342103148c80a5bdfddb05ff5bcffc397c8ca748d8b435ec6a175bc9d7bfc7fc6f853752ae"], "sequence": 4294967295, "scriptSig": {"hex": "220020941cfaff8837763dc1f69ff82b6d6553fdea17a41cfc29a04403293eedd8ccc7", "asm": "0020941cfaff8837763dc1f69ff82b6d6553fdea17a41cfc29a04403293eedd8ccc7"}, "vout": 1, "txid": "70d89bab0b13cb050a3dc2712cc52f7776fe7d24946dc30b4eb66c283c66f506"}], "txid": "e7ec4ebf42465914d5c870d7d72f8fe5337462fe88ad18a577ed9801da15bfe8", "blocktime": 1537876114, "version": 1, "confirmations": 11462, "time": 1537876114, "locktime": 0, "vsize": 208, "size": 374}