{"hash": "e7f2d3f20a9162ba3c814937ab50cbfacb66f665485d82aac9a829ff46a2c07c", "blockhash": "0000000000000000000e13cef7c366c0283d82e591d1acd082e914b08063cdf1", "vout": [{"scriptPubKey": {"reqSigs": 1, "hex": "a914de6bee22a649a298f75a18822aad0bb53176d78787", "addresses": ["3My5EFdLYmNBcsA4V7gNThB2uzuXeauu1A"], "asm": "OP_HASH160 de6bee22a649a298f75a18822aad0bb53176d787 OP_EQUAL", "type": "scripthash"}, "value": 0.002, "n": 0}, {"scriptPubKey": {"reqSigs": 1, "hex": "76a91466a457e7bbc5b407cd49b4d943ef6a5a20abb16e88ac", "addresses": ["1AMioM1HBmvb6FSuDR2rrQsQJNNzR5QkGZ"], "asm": "OP_DUP OP_HASH160 66a457e7bbc5b407cd49b4d943ef6a5a20abb16e OP_EQUALVERIFY OP_CHECKSIG", "type": "pubkeyhash"}, "value": 0.00936275, "n": 1}], "hex": "01000000017fc12a14a7d51b7320785993be182de0159ae916bf26e4a9671022dfa7600268010000006b483045022100b2a2cc9422e1c0c65b1c070b632fe7db9cf146592c94248925ae85debe7f0729022030d301bed20579445b247d1cf718c052b03e5bd99c7fc6c6e71f415e5b77bc4901210205b9fd2c5551217dc399bd9b22a55010d0c9409a778970bf5be751304b186fe5ffffffff02400d03000000000017a914de6bee22a649a298f75a18822aad0bb53176d7878753490e00000000001976a91466a457e7bbc5b407cd49b4d943ef6a5a20abb16e88ac00000000", "vin": [{"sequence": 4294967295, "scriptSig": {"hex": "483045022100b2a2cc9422e1c0c65b1c070b632fe7db9cf146592c94248925ae85debe7f0729022030d301bed20579445b247d1cf718c052b03e5bd99c7fc6c6e71f415e5b77bc4901210205b9fd2c5551217dc399bd9b22a55010d0c9409a778970bf5be751304b186fe5", "asm": "3045022100b2a2cc9422e1c0c65b1c070b632fe7db9cf146592c94248925ae85debe7f0729022030d301bed20579445b247d1cf718c052b03e5bd99c7fc6c6e71f415e5b77bc49[ALL] 0205b9fd2c5551217dc399bd9b22a55010d0c9409a778970bf5be751304b186fe5"}, "vout": 1, "txid": "680260a7df221067a9e426bf16e99a15e02d18be93597820731bd5a7142ac17f"}], "txid": "e7f2d3f20a9162ba3c814937ab50cbfacb66f665485d82aac9a829ff46a2c07c", "blocktime": 1537871767, "version": 1, "confirmations": 11493, "time": 1537871767, "locktime": 0, "vsize": 224, "size": 224}