{"hash": "fc321a4f5da6a4d3dd8ece4f3879a79726938c1132dfa490297ed386e2672523", "blockhash": "000000000000000000022b45ed06c6f4ccd3cf7fb5ba4856ebd2e58215665228", "vout": [{"scriptPubKey": {"reqSigs": 1, "hex": "76a91493e5f962bbc6f69a77bb04455dce89abe1d9e3b188ac", "addresses": ["1EV1q5sgeLULqTtf4a6QuRc7BEvC86HGt6"], "asm": "OP_DUP OP_HASH160 93e5f962bbc6f69a77bb04455dce89abe1d9e3b1 OP_EQUALVERIFY OP_CHECKSIG", "type": "pubkeyhash"}, "value": 0.01748034, "n": 0}, {"scriptPubKey": {"reqSigs": 1, "hex": "00142188a1186dd3e5374b84175a5c51b18d28be3e16", "addresses": ["bc1qyxy2zxrd60jnwjuyzad9c5d3355tu0sk0lr526"], "asm": "0 2188a1186dd3e5374b84175a5c51b18d28be3e16", "type": "witness_v0_keyhash"}, "value": 0.00110001, "n": 1}], "hex": "010000000001012e82a13051626a98375bcbe603c242d8d53523bc24b202c42e4fa4a20d1c618b0100000017160014b8ac0332d5a4846ced8df4d8abbcc431e99f0620ffffffff0242ac1a00000000001976a91493e5f962bbc6f69a77bb04455dce89abe1d9e3b188acb1ad0100000000001600142188a1186dd3e5374b84175a5c51b18d28be3e160247304402201ec58248d256ee6572fa7480876e1d88e8579adeb1ddef5528ad6031f3d27a2e022050d9d97d0482109a4b89c66a24c7336c4795844e46da0cbc7b71af0aec3d87e7012103787d294942953b92d57f410c2d99fc67f2c65c22efd460d90150cfa2dfaca62e00000000", "vin": [{"txinwitness": ["304402201ec58248d256ee6572fa7480876e1d88e8579adeb1ddef5528ad6031f3d27a2e022050d9d97d0482109a4b89c66a24c7336c4795844e46da0cbc7b71af0aec3d87e701", "03787d294942953b92d57f410c2d99fc67f2c65c22efd460d90150cfa2dfaca62e"], "sequence": 4294967295, "scriptSig": {"hex": "160014b8ac0332d5a4846ced8df4d8abbcc431e99f0620", "asm": "0014b8ac0332d5a4846ced8df4d8abbcc431e99f0620"}, "vout": 1, "txid": "8b611c0da2a44f2ec402b224bc2335d5d842c203e6cb5b37986a625130a1822e"}], "txid": "e7f3f2a29f25730560ff67b5fdd4c5a3915c158d55469517aebb4a412121583f", "blocktime": 1537869901, "version": 1, "confirmations": 11523, "time": 1537869901, "locktime": 0, "vsize": 167, "size": 248}