{"hash": "e7f755cdb80721225de307f3002829a8de04d408d0fe486fbe4fbb7383aeba91", "blockhash": "0000000000000000001e0dab787dd257d1dbfcb92a98c2207d5e1078be1f4165", "vout": [{"scriptPubKey": {"reqSigs": 1, "hex": "76a9146f7418b575b07c43d544e649630e7ab09ef77bcc88ac", "addresses": ["1BAK5pbunjSNeSV4T5GkLhoeM72oBgi39J"], "asm": "OP_DUP OP_HASH160 6f7418b575b07c43d544e649630e7ab09ef77bcc OP_EQUALVERIFY OP_CHECKSIG", "type": "pubkeyhash"}, "value": 0.00144328, "n": 0}, {"scriptPubKey": {"reqSigs": 1, "hex": "76a9146438611929060118ea682dd0559e0e906367360688ac", "addresses": ["1A8v7V7rpN5KFF94X2nFWBPBsecbUBbYpa"], "asm": "OP_DUP OP_HASH160 6438611929060118ea682dd0559e0e9063673606 OP_EQUALVERIFY OP_CHECKSIG", "type": "pubkeyhash"}, "value": 1.46121187, "n": 1}], "hex": "01000000015eb8cca29f0907adea75de69335c1ecc170481e939576ef037f3d7bdd3210b22010000006a473044022057c31ec00b1ec44a4d84a68bcb09611910ecb3e8f506f7f42724dc717a5c8fb702201009310850e67a3454bea48074eb3343b0b13b080857e0d082f5a80078a25bef0121024610d836d662dded124c10c466f9be04c3ec0d4aeae25513d2fd1a49dac2196affffffff02c8330200000000001976a9146f7418b575b07c43d544e649630e7ab09ef77bcc88ace3a1b508000000001976a9146438611929060118ea682dd0559e0e906367360688ac00000000", "vin": [{"sequence": 4294967295, "scriptSig": {"hex": "473044022057c31ec00b1ec44a4d84a68bcb09611910ecb3e8f506f7f42724dc717a5c8fb702201009310850e67a3454bea48074eb3343b0b13b080857e0d082f5a80078a25bef0121024610d836d662dded124c10c466f9be04c3ec0d4aeae25513d2fd1a49dac2196a", "asm": "3044022057c31ec00b1ec44a4d84a68bcb09611910ecb3e8f506f7f42724dc717a5c8fb702201009310850e67a3454bea48074eb3343b0b13b080857e0d082f5a80078a25bef[ALL] 024610d836d662dded124c10c466f9be04c3ec0d4aeae25513d2fd1a49dac2196a"}, "vout": 1, "txid": "220b21d3bdd7f337f06e5739e9810417cc1e5c3369de75eaad07099fa2ccb85e"}], "txid": "e7f755cdb80721225de307f3002829a8de04d408d0fe486fbe4fbb7383aeba91", "blocktime": 1537872475, "version": 1, "confirmations": 11487, "time": 1537872475, "locktime": 0, "vsize": 225, "size": 225}