{"hash": "e7f712f13b0ca2443be124e8b1e77b0b41a2418d15c5527b19fdd25bd886e1f3", "blockhash": "0000000000000000001cda96e906b7601b7a6fb1a3b62bca570a9e5d8f4b3de1", "vout": [{"scriptPubKey": {"reqSigs": 1, "hex": "76a914c7785a98ac114ec6d5826bb6d9a94336f670c24988ac", "addresses": ["1KBheWYDBMYhxWRrriGDZgaSerww3EyuSQ"], "asm": "OP_DUP OP_HASH160 c7785a98ac114ec6d5826bb6d9a94336f670c249 OP_EQUALVERIFY OP_CHECKSIG", "type": "pubkeyhash"}, "value": 0.0154569, "n": 0}, {"scriptPubKey": {"reqSigs": 1, "hex": "76a9145f9dfd3eb3e46c10f9af953ef5e2eed372f6337488ac", "addresses": ["19iaTWVuQmKk1RKLZKz4kvxTbfh8rCkz5i"], "asm": "OP_DUP OP_HASH160 5f9dfd3eb3e46c10f9af953ef5e2eed372f63374 OP_EQUALVERIFY OP_CHECKSIG", "type": "pubkeyhash"}, "value": 0.11624466, "n": 1}], "hex": "01000000012af6ecd1e068e94eb072d1f80112e60221d2ffb9e5d09dfaae8d28cd3c1468e9010000006a47304402207c34fec4b13a8ee9dbe9848b73f1b9d989e7cd244043ef2ac0b31e71300fd16a0220498ac2f4716d9f72ea37d2a76d4a1d797af004414986b136bdb22e29852df9130121028e20751f00f0d3508bd0afab3b434932a67def5a0d9831bee8afad630eadc138ffffffff02da951700000000001976a914c7785a98ac114ec6d5826bb6d9a94336f670c24988ac1260b100000000001976a9145f9dfd3eb3e46c10f9af953ef5e2eed372f6337488ac00000000", "vin": [{"sequence": 4294967295, "scriptSig": {"hex": "47304402207c34fec4b13a8ee9dbe9848b73f1b9d989e7cd244043ef2ac0b31e71300fd16a0220498ac2f4716d9f72ea37d2a76d4a1d797af004414986b136bdb22e29852df9130121028e20751f00f0d3508bd0afab3b434932a67def5a0d9831bee8afad630eadc138", "asm": "304402207c34fec4b13a8ee9dbe9848b73f1b9d989e7cd244043ef2ac0b31e71300fd16a0220498ac2f4716d9f72ea37d2a76d4a1d797af004414986b136bdb22e29852df913[ALL] 028e20751f00f0d3508bd0afab3b434932a67def5a0d9831bee8afad630eadc138"}, "vout": 1, "txid": "e968143ccd288daefa9dd0e5b9ffd22102e61201f8d172b04ee968e0d1ecf62a"}], "txid": "e7f712f13b0ca2443be124e8b1e77b0b41a2418d15c5527b19fdd25bd886e1f3", "blocktime": 1537873282, "version": 1, "confirmations": 11484, "time": 1537873282, "locktime": 0, "vsize": 225, "size": 225}