{"hash": "c7e7e0e3c25811e93de0c4d0d38118b8e9d6ee56a67199dda5f0eb52a3447b35", "blockhash": "0000000000000000000dcc0f55137456b1a82d3642486a52398922ac4d620174", "vout": [{"scriptPubKey": {"reqSigs": 1, "hex": "76a914c7432b172ccb81685716efc68f94d7ddee281d6088ac", "addresses": ["1KAbw7SmfYd9m1feorFwAZzT6HbLqkZpmX"], "asm": "OP_DUP OP_HASH160 c7432b172ccb81685716efc68f94d7ddee281d60 OP_EQUALVERIFY OP_CHECKSIG", "type": "pubkeyhash"}, "value": 0.0014616, "n": 0}, {"scriptPubKey": {"reqSigs": 1, "hex": "0014d798bf16eaa2abc022f1c7726642dd759d0f1f47", "addresses": ["bc1q67vt79h2524uqgh3caexvskawkws78686fmzy6"], "asm": "0 d798bf16eaa2abc022f1c7726642dd759d0f1f47", "type": "witness_v0_keyhash"}, "value": 1.175e-05, "n": 1}], "hex": "01000000000101d8a3c5cf3b1c3d21e7bc583e2d468d503a9e8a29f2da378e94dd264ad28c8e450000000000ffffffff02f03a0200000000001976a914c7432b172ccb81685716efc68f94d7ddee281d6088ac9704000000000000160014d798bf16eaa2abc022f1c7726642dd759d0f1f47024730440220699eaf21cf5065e1da2bfda7db37d0d7f0501d3ce62c67a54ecc0ab3b289f89202201b8717697668f92c30941df4ecb7f7c3e7fadfd2f2e5ed3cd59362db9daf2b99012102d2e65a701373499bf4d8946883d895a6f06915a930c146998a6dbe3f0513a97200000000", "vin": [{"txinwitness": ["30440220699eaf21cf5065e1da2bfda7db37d0d7f0501d3ce62c67a54ecc0ab3b289f89202201b8717697668f92c30941df4ecb7f7c3e7fadfd2f2e5ed3cd59362db9daf2b9901", "02d2e65a701373499bf4d8946883d895a6f06915a930c146998a6dbe3f0513a972"], "sequence": 4294967295, "scriptSig": {"hex": "", "asm": ""}, "vout": 0, "txid": "458e8cd24a26dd948e37daf2298a9e3a508d462d3e58bce7213d1c3bcfc5a3d8"}], "txid": "e7fc91378d4f16574dabff4cf4cba44ef2e78fdc84f25a4bbd2d69409156f7e1", "blocktime": 1537870268, "version": 1, "confirmations": 11518, "time": 1537870268, "locktime": 0, "vsize": 144, "size": 225}