{"hash": "e7fe11b547926dc2db5226a5b34dabb1ca531a937b526d19ff88d3399dc1750a", "blockhash": "0000000000000000001f76057863aec43deb6fa401d9628bb513d65a8098bfab", "vout": [{"scriptPubKey": {"reqSigs": 1, "hex": "76a9149f85d6375b86e9814d1c4c6201a9046cd7ab8e8e88ac", "addresses": ["1FYUmeLNH5au6aCmZ1sXMDgbq8ezw3j9ud"], "asm": "OP_DUP OP_HASH160 9f85d6375b86e9814d1c4c6201a9046cd7ab8e8e OP_EQUALVERIFY OP_CHECKSIG", "type": "pubkeyhash"}, "value": 0.15599847, "n": 0}, {"scriptPubKey": {"reqSigs": 1, "hex": "76a914697f75dbe13679d7058b4b626e364bd62bcd96c988ac", "addresses": ["1AcpeFDW4vBu1J4Y79xfVRCufbA3WtxX4S"], "asm": "OP_DUP OP_HASH160 697f75dbe13679d7058b4b626e364bd62bcd96c9 OP_EQUALVERIFY OP_CHECKSIG", "type": "pubkeyhash"}, "value": 0.36665985, "n": 1}], "hex": "02000000013fc864ab83730cd1eca98b6aab63d78b0bd4692e39c71a9e9a4ee7d180474a14010000006a473044022035f9b735deec307e6b84700db404e9befb73e9c5677804c7a2ef66822ce529cf02201622f8fbe46f2d8577ed9d403fd0e1077988eec67216ad6f49187babe2972233012103778418b828973e7df802cbf8bb7e75bf639671a27d66fd42d5cbb475ecbc17b8feffffff02e708ee00000000001976a9149f85d6375b86e9814d1c4c6201a9046cd7ab8e8e88ac817a2f02000000001976a914697f75dbe13679d7058b4b626e364bd62bcd96c988ac13490800", "vin": [{"sequence": 4294967294, "scriptSig": {"hex": "473044022035f9b735deec307e6b84700db404e9befb73e9c5677804c7a2ef66822ce529cf02201622f8fbe46f2d8577ed9d403fd0e1077988eec67216ad6f49187babe2972233012103778418b828973e7df802cbf8bb7e75bf639671a27d66fd42d5cbb475ecbc17b8", "asm": "3044022035f9b735deec307e6b84700db404e9befb73e9c5677804c7a2ef66822ce529cf02201622f8fbe46f2d8577ed9d403fd0e1077988eec67216ad6f49187babe2972233[ALL] 03778418b828973e7df802cbf8bb7e75bf639671a27d66fd42d5cbb475ecbc17b8"}, "vout": 1, "txid": "144a4780d1e74e9a9e1ac7392e69d40b8bd763ab6a8ba9ecd10c7383ab64c83f"}], "txid": "e7fe11b547926dc2db5226a5b34dabb1ca531a937b526d19ff88d3399dc1750a", "blocktime": 1537873891, "version": 2, "confirmations": 11478, "time": 1537873891, "locktime": 542995, "vsize": 225, "size": 225}