{"hash": "e7fe3fbb5f0d1ffcd83d5d27f052d9c33c0f74d7ad449a18d839a703347973e1", "blockhash": "0000000000000000001cda96e906b7601b7a6fb1a3b62bca570a9e5d8f4b3de1", "vout": [{"scriptPubKey": {"reqSigs": 1, "hex": "a914cf4492499ccb9b5c7fa4cd303a809e9680e99b6b87", "addresses": ["3LawwgNCT4T5aCX4qmF7YE5DadE4XAig2T"], "asm": "OP_HASH160 cf4492499ccb9b5c7fa4cd303a809e9680e99b6b OP_EQUAL", "type": "scripthash"}, "value": 0.0025666, "n": 0}, {"scriptPubKey": {"reqSigs": 1, "hex": "76a914f8c3dabe4409f8db7ceef06bada1164703575e1a88ac", "addresses": ["1PgMCnHacEuhVMZqEE6PrqMP3swiEL8dyE"], "asm": "OP_DUP OP_HASH160 f8c3dabe4409f8db7ceef06bada1164703575e1a OP_EQUALVERIFY OP_CHECKSIG", "type": "pubkeyhash"}, "value": 0.13359273, "n": 1}], "hex": "010000000170b4cfc09d251129d9e5c3a6aa9a108adb149369a4c43a3e1030634a0db8a3b1100000006a473044022008e7dbe1bb8c294369735a78789f8df778ed7c791c4479cfffc685cd0f8e8a4602207e1e6789ae72084aa645de1c7014f1b706f10971bb456aec4ac688b8b00f4a3f012103753edc507f9e99b74addf7b6b6551868ed28c58db74b8767a87acd88719f9429ffffffff0294ea03000000000017a914cf4492499ccb9b5c7fa4cd303a809e9680e99b6b87a9d8cb00000000001976a914f8c3dabe4409f8db7ceef06bada1164703575e1a88ac00000000", "vin": [{"sequence": 4294967295, "scriptSig": {"hex": "473044022008e7dbe1bb8c294369735a78789f8df778ed7c791c4479cfffc685cd0f8e8a4602207e1e6789ae72084aa645de1c7014f1b706f10971bb456aec4ac688b8b00f4a3f012103753edc507f9e99b74addf7b6b6551868ed28c58db74b8767a87acd88719f9429", "asm": "3044022008e7dbe1bb8c294369735a78789f8df778ed7c791c4479cfffc685cd0f8e8a4602207e1e6789ae72084aa645de1c7014f1b706f10971bb456aec4ac688b8b00f4a3f[ALL] 03753edc507f9e99b74addf7b6b6551868ed28c58db74b8767a87acd88719f9429"}, "vout": 16, "txid": "b1a3b80d4a6330103e3ac4a4699314db8a109aaaa6c3e5d92911259dc0cfb470"}], "txid": "e7fe3fbb5f0d1ffcd83d5d27f052d9c33c0f74d7ad449a18d839a703347973e1", "blocktime": 1537873282, "version": 1, "confirmations": 11481, "time": 1537873282, "locktime": 0, "vsize": 223, "size": 223}