{"hash": "e7fee0ba5514b8e93b4d88689f7c9b8b3a4f277071dc782e9395c87dec8d28c5", "blockhash": "0000000000000000001cda96e906b7601b7a6fb1a3b62bca570a9e5d8f4b3de1", "vout": [{"scriptPubKey": {"reqSigs": 1, "hex": "76a914d30b259d1b29aa3c654c07da10f5513bb828854d88ac", "addresses": ["1LEtvykJMUqQV2GwJXfpFgkwg3dn6EjCAU"], "asm": "OP_DUP OP_HASH160 d30b259d1b29aa3c654c07da10f5513bb828854d OP_EQUALVERIFY OP_CHECKSIG", "type": "pubkeyhash"}, "value": 0.00286427, "n": 0}, {"scriptPubKey": {"reqSigs": 1, "hex": "a91449f91e9957a1bd5f8d9778e8c8b6482cb86178ca87", "addresses": ["38S9gg8unwUrNAymZAJqV8wKC6258nmCNw"], "asm": "OP_HASH160 49f91e9957a1bd5f8d9778e8c8b6482cb86178ca OP_EQUAL", "type": "scripthash"}, "value": 0.07854557, "n": 1}], "hex": "01000000051b2f89ebfe79ce1375f7f03d1b8cd3ff2d14851316fae0c5c04ca3acad578b2c010000006b483045022100823d82bbbbbc6c98b70eef162be2dcc00dc806969568231bea31f20cf565b2f102200ba9ce1c3c219ddc240d2e9512ed762f6d979955c23f816fbaad34967619576e012102d050daff3a8cf28dafb3584472bad3448c2627b0ed7a8d7f4d4603ab3cba1fbdfffffffff2325b7de03327ea2f7a45271535bd5d2033c99a4c3b2fc494da6e5c665c1841000000006b483045022100b9c7687e0f414d539ea5bd232d2fa23e9dc9c1d3fdbbf0b902aa600b4158e5bf02202988eae1fde439563505ff07b246f2669240ecfc239d9ea5833faaea6d57f680012102dac259e6bc72fb72ca22901c63ca5d892ce8e049666895d4287a9d03938c7104fffffffff74481b7854f1cd875740ef205eb33f92a891cdebaa2432de83d520786485a42010000006a47304402202f0d6a40fea69802416f1c248b8e1ec999532ff6dd1d35bdd8a5b2b29f579a3602206ad88c35a7e8a295539093f9a63746c8c9ed0702ba32a14cde1e970a334c67fd0121021a3687ff69f6254ca8ec8bd76c283e35fa4e6656589819bb4f2e5468e07a0e47ffffffff8bc0744e217bf75f0d6deddeffdb6a1f0580a2f8b01bd8e8df8c8578f0c51959010000006b483045022100fcb3fc87471d2b76ec90253f175935ccb8a3ee271554a5334baa686ebd7bba03022078b0de7372bd29fac3e7658d27350a5c3c1b71adb4216df5a5779386dc474cf2012103e923e5a2cd17816de3bdf8608f267f3016935f1930d79b024ee6371e9663d1e5ffffffff26d1e869fc0c7d4973b41792b9969a08bfc5f000c43820d48af4b2a3bbbb9e69010000006a47304402207251201dd953cec9af681fe3baa8add9fff9f7ea6126940df19bfb4f14ec8461022067104f4960b99bdf8e591224eaf57e8cce4570767f7b996f420e09e5d142584f012103b815a65e879b844554a45df25826ffa5c62cecfc7ffc4ea6747d48fba75faa1dffffffff02db5e0400000000001976a914d30b259d1b29aa3c654c07da10f5513bb828854d88acddd977000000000017a91449f91e9957a1bd5f8d9778e8c8b6482cb86178ca8700000000", "vin": [{"sequence": 4294967295, "scriptSig": {"hex": "483045022100823d82bbbbbc6c98b70eef162be2dcc00dc806969568231bea31f20cf565b2f102200ba9ce1c3c219ddc240d2e9512ed762f6d979955c23f816fbaad34967619576e012102d050daff3a8cf28dafb3584472bad3448c2627b0ed7a8d7f4d4603ab3cba1fbd", "asm": "3045022100823d82bbbbbc6c98b70eef162be2dcc00dc806969568231bea31f20cf565b2f102200ba9ce1c3c219ddc240d2e9512ed762f6d979955c23f816fbaad34967619576e[ALL] 02d050daff3a8cf28dafb3584472bad3448c2627b0ed7a8d7f4d4603ab3cba1fbd"}, "vout": 1, "txid": "2c8b57adaca34cc0c5e0fa161385142dffd38c1b3df0f77513ce79feeb892f1b"}, {"sequence": 4294967295, "scriptSig": {"hex": "483045022100b9c7687e0f414d539ea5bd232d2fa23e9dc9c1d3fdbbf0b902aa600b4158e5bf02202988eae1fde439563505ff07b246f2669240ecfc239d9ea5833faaea6d57f680012102dac259e6bc72fb72ca22901c63ca5d892ce8e049666895d4287a9d03938c7104", "asm": "3045022100b9c7687e0f414d539ea5bd232d2fa23e9dc9c1d3fdbbf0b902aa600b4158e5bf02202988eae1fde439563505ff07b246f2669240ecfc239d9ea5833faaea6d57f680[ALL] 02dac259e6bc72fb72ca22901c63ca5d892ce8e049666895d4287a9d03938c7104"}, "vout": 0, "txid": "41185c665c6eda94c42f3b4c9ac933205dbd351527457a2fea2733e07d5b32f2"}, {"sequence": 4294967295, "scriptSig": {"hex": "47304402202f0d6a40fea69802416f1c248b8e1ec999532ff6dd1d35bdd8a5b2b29f579a3602206ad88c35a7e8a295539093f9a63746c8c9ed0702ba32a14cde1e970a334c67fd0121021a3687ff69f6254ca8ec8bd76c283e35fa4e6656589819bb4f2e5468e07a0e47", "asm": "304402202f0d6a40fea69802416f1c248b8e1ec999532ff6dd1d35bdd8a5b2b29f579a3602206ad88c35a7e8a295539093f9a63746c8c9ed0702ba32a14cde1e970a334c67fd[ALL] 021a3687ff69f6254ca8ec8bd76c283e35fa4e6656589819bb4f2e5468e07a0e47"}, "vout": 1, "txid": "425a488607523de82d43a2bade1c892af933eb05f20e7475d81c4f85b78144f7"}, {"sequence": 4294967295, "scriptSig": {"hex": "483045022100fcb3fc87471d2b76ec90253f175935ccb8a3ee271554a5334baa686ebd7bba03022078b0de7372bd29fac3e7658d27350a5c3c1b71adb4216df5a5779386dc474cf2012103e923e5a2cd17816de3bdf8608f267f3016935f1930d79b024ee6371e9663d1e5", "asm": "3045022100fcb3fc87471d2b76ec90253f175935ccb8a3ee271554a5334baa686ebd7bba03022078b0de7372bd29fac3e7658d27350a5c3c1b71adb4216df5a5779386dc474cf2[ALL] 03e923e5a2cd17816de3bdf8608f267f3016935f1930d79b024ee6371e9663d1e5"}, "vout": 1, "txid": "5919c5f078858cdfe8d81bb0f8a280051f6adbffdeed6d0d5ff77b214e74c08b"}, {"sequence": 4294967295, "scriptSig": {"hex": "47304402207251201dd953cec9af681fe3baa8add9fff9f7ea6126940df19bfb4f14ec8461022067104f4960b99bdf8e591224eaf57e8cce4570767f7b996f420e09e5d142584f012103b815a65e879b844554a45df25826ffa5c62cecfc7ffc4ea6747d48fba75faa1d", "asm": "304402207251201dd953cec9af681fe3baa8add9fff9f7ea6126940df19bfb4f14ec8461022067104f4960b99bdf8e591224eaf57e8cce4570767f7b996f420e09e5d142584f[ALL] 03b815a65e879b844554a45df25826ffa5c62cecfc7ffc4ea6747d48fba75faa1d"}, "vout": 1, "txid": "699ebbbba3b2f48ad42038c400f0c5bf089a96b99217b473497d0cfc69e8d126"}], "txid": "e7fee0ba5514b8e93b4d88689f7c9b8b3a4f277071dc782e9395c87dec8d28c5", "blocktime": 1537873282, "version": 1, "confirmations": 11482, "time": 1537873282, "locktime": 0, "vsize": 814, "size": 814}