{"hash": "e7ff8ee575575223bbf72ab0b197997afb4d51a0a90292083210397cfcef931e", "blockhash": "0000000000000000001f0ddff1eddb255c1121bcd4da4f1bc9a0da00cae72433", "vout": [{"scriptPubKey": {"reqSigs": 1, "hex": "76a914db29db1ab391f515a0a8f212ff080fcb05811e0388ac", "addresses": ["1Lyq8D58KZiX6BxBgZERSSfJCnzDTVrDZU"], "asm": "OP_DUP OP_HASH160 db29db1ab391f515a0a8f212ff080fcb05811e03 OP_EQUALVERIFY OP_CHECKSIG", "type": "pubkeyhash"}, "value": 0.0002, "n": 0}, {"scriptPubKey": {"reqSigs": 1, "hex": "76a914f1e4a0c23042cc8fe1b44295b2c87368fe1b1aba88ac", "addresses": ["1P41jafnXX9t3h7NEA2ZJwt9nvWF6VBojE"], "asm": "OP_DUP OP_HASH160 f1e4a0c23042cc8fe1b44295b2c87368fe1b1aba OP_EQUALVERIFY OP_CHECKSIG", "type": "pubkeyhash"}, "value": 0.66228752, "n": 1}, {"scriptPubKey": {"type": "nulldata", "hex": "6a254d4700050489c5df6d3074535262a75f23114fb9b427d3194469a3e772d2d6dd7ecf8002d2", "asm": "OP_RETURN 4d4700050489c5df6d3074535262a75f23114fb9b427d3194469a3e772d2d6dd7ecf8002d2"}, "value": 0.0, "n": 2}], "hex": "0100000001dd09400d47dd228c2c85d73834828b5eb66c5213b386d741b840295706bc69b3010000006b483045022100a82ebff74db7e8755945bf64d967693a299b3b251c6fe0124fac95d405ba96fe022055c927fccaf768b73fa81c5743f9a02d925fbde877cf1ebe80c5080e40112d700121033ff37f08b4aef829d4fd8d9c6e20176af681280342230d036803a3848f41baedffffffff03204e0000000000001976a914db29db1ab391f515a0a8f212ff080fcb05811e0388ac1092f203000000001976a914f1e4a0c23042cc8fe1b44295b2c87368fe1b1aba88ac0000000000000000276a254d4700050489c5df6d3074535262a75f23114fb9b427d3194469a3e772d2d6dd7ecf8002d200000000", "vin": [{"sequence": 4294967295, "scriptSig": {"hex": "483045022100a82ebff74db7e8755945bf64d967693a299b3b251c6fe0124fac95d405ba96fe022055c927fccaf768b73fa81c5743f9a02d925fbde877cf1ebe80c5080e40112d700121033ff37f08b4aef829d4fd8d9c6e20176af681280342230d036803a3848f41baed", "asm": "3045022100a82ebff74db7e8755945bf64d967693a299b3b251c6fe0124fac95d405ba96fe022055c927fccaf768b73fa81c5743f9a02d925fbde877cf1ebe80c5080e40112d70[ALL] 033ff37f08b4aef829d4fd8d9c6e20176af681280342230d036803a3848f41baed"}, "vout": 1, "txid": "b369bc06572940b841d786b313526cb65e8b823438d7852c8c22dd470d4009dd"}], "txid": "e7ff8ee575575223bbf72ab0b197997afb4d51a0a90292083210397cfcef931e", "blocktime": 1537872018, "version": 1, "confirmations": 11489, "time": 1537872018, "locktime": 0, "vsize": 274, "size": 274}