{"hash": "e80aff2a51cac218ed456ae5cfc77c571a90ac7dee3b4f3486fa7df2658a7e14", "blockhash": "00000000000000000004ffacab907a6b429b9a5745fa0b75af4234bf69dd7176", "vout": [{"scriptPubKey": {"reqSigs": 1, "hex": "76a914e3df07fec2ec5358ddf052090965706dcb1c320788ac", "addresses": ["1Mmsa2aDDBRGhFPEjQmsD3vExhUYQKs7xh"], "asm": "OP_DUP OP_HASH160 e3df07fec2ec5358ddf052090965706dcb1c3207 OP_EQUALVERIFY OP_CHECKSIG", "type": "pubkeyhash"}, "value": 1.2, "n": 0}, {"scriptPubKey": {"reqSigs": 1, "hex": "76a9149e58beb6662d925c3660547ce65ddf36f0e4170f88ac", "addresses": ["1FSG5REiFfqCxxFE7wCpL8Q4S8daVUT1TD"], "asm": "OP_DUP OP_HASH160 9e58beb6662d925c3660547ce65ddf36f0e4170f OP_EQUALVERIFY OP_CHECKSIG", "type": "pubkeyhash"}, "value": 0.13432, "n": 1}], "hex": "0100000002b8b7cc201e5ca110bfb51668d3af2a1f3cf26f1b39a36a9665ce844bc83c1bd8010000006a47304402202790da6e3de22a345c2ca0a27db4c4c30380371e612764515abe0da42ea5789c0220523614f1cba307f373e7a8a98f606d10004e82de8436cf8770e19676e9cc7615012103d5f4c0c4930e18ee3e50227fbba8e52ea65982dc81793f70a0d66affc4a80886ffffffffb8b7cc201e5ca110bfb51668d3af2a1f3cf26f1b39a36a9665ce844bc83c1bd8000000006a473044022021ca9ee52b449dce9b0ef6a7bf871838477c1513fdad4d7980c118b807835bc502207881548a91e5ac7b0bb092e4cb45a5cc94c83e50567939cc37b1df6330191ed1012102d6da48754d70a126d87343c75a5d791bae82ef6853f384bec24cffc0a6f5bd98ffffffff02000e2707000000001976a914e3df07fec2ec5358ddf052090965706dcb1c320788acc0f4cc00000000001976a9149e58beb6662d925c3660547ce65ddf36f0e4170f88ac00000000", "vin": [{"sequence": 4294967295, "scriptSig": {"hex": "47304402202790da6e3de22a345c2ca0a27db4c4c30380371e612764515abe0da42ea5789c0220523614f1cba307f373e7a8a98f606d10004e82de8436cf8770e19676e9cc7615012103d5f4c0c4930e18ee3e50227fbba8e52ea65982dc81793f70a0d66affc4a80886", "asm": "304402202790da6e3de22a345c2ca0a27db4c4c30380371e612764515abe0da42ea5789c0220523614f1cba307f373e7a8a98f606d10004e82de8436cf8770e19676e9cc7615[ALL] 03d5f4c0c4930e18ee3e50227fbba8e52ea65982dc81793f70a0d66affc4a80886"}, "vout": 1, "txid": "d81b3cc84b84ce65966aa3391b6ff23c1f2aafd36816b5bf10a15c1e20ccb7b8"}, {"sequence": 4294967295, "scriptSig": {"hex": "473044022021ca9ee52b449dce9b0ef6a7bf871838477c1513fdad4d7980c118b807835bc502207881548a91e5ac7b0bb092e4cb45a5cc94c83e50567939cc37b1df6330191ed1012102d6da48754d70a126d87343c75a5d791bae82ef6853f384bec24cffc0a6f5bd98", "asm": "3044022021ca9ee52b449dce9b0ef6a7bf871838477c1513fdad4d7980c118b807835bc502207881548a91e5ac7b0bb092e4cb45a5cc94c83e50567939cc37b1df6330191ed1[ALL] 02d6da48754d70a126d87343c75a5d791bae82ef6853f384bec24cffc0a6f5bd98"}, "vout": 0, "txid": "d81b3cc84b84ce65966aa3391b6ff23c1f2aafd36816b5bf10a15c1e20ccb7b8"}], "txid": "e80aff2a51cac218ed456ae5cfc77c571a90ac7dee3b4f3486fa7df2658a7e14", "blocktime": 1537875543, "version": 1, "confirmations": 11464, "time": 1537875543, "locktime": 0, "vsize": 372, "size": 372}