{"hash": "0383f1e871bcfee480d0d0da0593273401334a736d19cd25452b9bad95281dff", "blockhash": "0000000000000000001e0dab787dd257d1dbfcb92a98c2207d5e1078be1f4165", "vout": [{"scriptPubKey": {"reqSigs": 1, "hex": "a91453330c7ee5537790685c6a50cdf8b0a37dd562e587", "addresses": ["39GwAQ7PeH7fJTFa4DXguurfn7GULq2pTs"], "asm": "OP_HASH160 53330c7ee5537790685c6a50cdf8b0a37dd562e5 OP_EQUAL", "type": "scripthash"}, "value": 0.00228367, "n": 0}, {"scriptPubKey": {"reqSigs": 1, "hex": "a91408d001e3551d3ce83bd32e12f5296206cc4dd5a687", "addresses": ["32VcWgdry8nUd42dA72Vq4YqN6M9eDA4rT"], "asm": "OP_HASH160 08d001e3551d3ce83bd32e12f5296206cc4dd5a6 OP_EQUAL", "type": "scripthash"}, "value": 0.22611035, "n": 1}], "hex": "0100000000010145773f2764d5dad203dcddccaf0d3040fe4dd38ab0bad04a112f2d50e1070b850100000023220020ca96902fcb665c94a3834ad4f51d6b18c7ec1284932199a2addfdde7a8d1a7bbffffffff020f7c03000000000017a91453330c7ee5537790685c6a50cdf8b0a37dd562e5875b0459010000000017a91408d001e3551d3ce83bd32e12f5296206cc4dd5a6870400483045022100d919297908cdb76f258ac67ab09f988ace9c4bfd0c32d35fc3e257b0e63fa4760220147590d4d719cb47e6c91fc92e5369c0dd79d89ba53de295e00db1a24e6958d201483045022100a3bd29ec3d546a6d6d93f6ab37b628128ff6726132818d00e3c00cef67fb846b022023b1836522483ed150ff9dfa76e211afd0f2f259df5171836b2711c00f3151e8014752210236155d50029dca74760e35f0eabb4424eb6d649bf250f7d17826d4bc70264eac21035103ae7fde57e8b6bb3bb5f71f41a1a19d611723da7ff266c973839886408c4452ae00000000", "vin": [{"txinwitness": ["", "3045022100d919297908cdb76f258ac67ab09f988ace9c4bfd0c32d35fc3e257b0e63fa4760220147590d4d719cb47e6c91fc92e5369c0dd79d89ba53de295e00db1a24e6958d201", "3045022100a3bd29ec3d546a6d6d93f6ab37b628128ff6726132818d00e3c00cef67fb846b022023b1836522483ed150ff9dfa76e211afd0f2f259df5171836b2711c00f3151e801", "52210236155d50029dca74760e35f0eabb4424eb6d649bf250f7d17826d4bc70264eac21035103ae7fde57e8b6bb3bb5f71f41a1a19d611723da7ff266c973839886408c4452ae"], "sequence": 4294967295, "scriptSig": {"hex": "220020ca96902fcb665c94a3834ad4f51d6b18c7ec1284932199a2addfdde7a8d1a7bb", "asm": "0020ca96902fcb665c94a3834ad4f51d6b18c7ec1284932199a2addfdde7a8d1a7bb"}, "vout": 1, "txid": "850b07e1502d2f114ad0bab08ad34dfe40300dafccdddc03d2dad564273f7745"}], "txid": "e81204b89aae0535d7536c2ccc3d720b0f93dfe8b1706edeffadb9f44c69c6bb", "blocktime": 1537872475, "version": 1, "confirmations": 11487, "time": 1537872475, "locktime": 0, "vsize": 206, "size": 372}