{"hash": "e8141059b00212d86d67d3b06f1832476fb1debf1cee49b3bcfa9574ec7231bc", "blockhash": "0000000000000000001cda96e906b7601b7a6fb1a3b62bca570a9e5d8f4b3de1", "vout": [{"scriptPubKey": {"reqSigs": 1, "hex": "76a914e256c27e457f0d7ddcf10eec7996d70f810a432188ac", "addresses": ["1MdmeXWbVkvo9D1HkJSPoYD495uctaK7kS"], "asm": "OP_DUP OP_HASH160 e256c27e457f0d7ddcf10eec7996d70f810a4321 OP_EQUALVERIFY OP_CHECKSIG", "type": "pubkeyhash"}, "value": 0.00013516, "n": 0}], "hex": "010000000168ed587db823ef8f6259e33b7dae7e135fc62dead9b7540a54334e0bddf343be000000006a4730440220489810703e8ff156a538a8e4f6adf91d0ad67d0a08b1317eb675772858518e17022077d208a4a16ebd4f16dfd57f99ba3755cbdecddc85cc1c9cd394d6c4826311db01210345c4b3e32127a220e04fa46b26c853c28ecc97b8286e4e3cbb735d2a159713ffffffffff01cc340000000000001976a914e256c27e457f0d7ddcf10eec7996d70f810a432188ac00000000", "vin": [{"sequence": 4294967295, "scriptSig": {"hex": "4730440220489810703e8ff156a538a8e4f6adf91d0ad67d0a08b1317eb675772858518e17022077d208a4a16ebd4f16dfd57f99ba3755cbdecddc85cc1c9cd394d6c4826311db01210345c4b3e32127a220e04fa46b26c853c28ecc97b8286e4e3cbb735d2a159713ff", "asm": "30440220489810703e8ff156a538a8e4f6adf91d0ad67d0a08b1317eb675772858518e17022077d208a4a16ebd4f16dfd57f99ba3755cbdecddc85cc1c9cd394d6c4826311db[ALL] 0345c4b3e32127a220e04fa46b26c853c28ecc97b8286e4e3cbb735d2a159713ff"}, "vout": 0, "txid": "be43f3dd0b4e33540a54b7d9ea2dc65f137eae7d3be359628fef23b87d58ed68"}], "txid": "e8141059b00212d86d67d3b06f1832476fb1debf1cee49b3bcfa9574ec7231bc", "blocktime": 1537873282, "version": 1, "confirmations": 11481, "time": 1537873282, "locktime": 0, "vsize": 191, "size": 191}