{"hash": "7d073dfb9b7942632f28bcd9083f8c4aa193398b435f551da829c2c0f6d647e8", "blockhash": "0000000000000000000e13cef7c366c0283d82e591d1acd082e914b08063cdf1", "vout": [{"scriptPubKey": {"reqSigs": 1, "hex": "a9147821c80f759b76a78fba8e4a854c46326bce15bf87", "addresses": ["3CeDUjzzNCtZMoVyoRozepsjTPvMWkQ27V"], "asm": "OP_HASH160 7821c80f759b76a78fba8e4a854c46326bce15bf OP_EQUAL", "type": "scripthash"}, "value": 0.00041056, "n": 0}, {"scriptPubKey": {"reqSigs": 1, "hex": "a914a5cb6d8c4286a5de7fe0921dde3267adc77ff9ed87", "addresses": ["3Gof7cexUxQWMSB5e4adGtarBJDNNv4Vjy"], "asm": "OP_HASH160 a5cb6d8c4286a5de7fe0921dde3267adc77ff9ed OP_EQUAL", "type": "scripthash"}, "value": 0.00730924, "n": 1}], "hex": "010000000001012aab338b0ef7a50f2945595883f3fda2df4b58cd1a7123e64bf993f17d30950e0100000023220020b3338f9571dda5ad799834148ea1ed19d1123924bdbb356e0c8c610b69cfd906ffffffff0260a000000000000017a9147821c80f759b76a78fba8e4a854c46326bce15bf872c270b000000000017a914a5cb6d8c4286a5de7fe0921dde3267adc77ff9ed87040047304402200dfe480ad34d4ae0c9c92669d09407c10ed525ec676233364055db628d46e8b70220546bdd6380f304c9f77c1261566bf1dfe81a1b78a0dd5f9cd0b48bf429ca5ac50147304402204cfe0f3f44edbb5e6b2abd3f9993d1628dd2a35f552465b4e92a36997565174f02205c7974e274dbfeed6bd652956ffc44cb96a90da09068732704ff3eae9263ea2001475221030c187397a5b8dfedda9f5fedc3a23f7c20923351690c4b0247f9bce94499c4202103871fc2ca08e6950b38867e8e6a0e94ee625223d3aa0df5c65f414c6d784467e252ae00000000", "vin": [{"txinwitness": ["", "304402200dfe480ad34d4ae0c9c92669d09407c10ed525ec676233364055db628d46e8b70220546bdd6380f304c9f77c1261566bf1dfe81a1b78a0dd5f9cd0b48bf429ca5ac501", "304402204cfe0f3f44edbb5e6b2abd3f9993d1628dd2a35f552465b4e92a36997565174f02205c7974e274dbfeed6bd652956ffc44cb96a90da09068732704ff3eae9263ea2001", "5221030c187397a5b8dfedda9f5fedc3a23f7c20923351690c4b0247f9bce94499c4202103871fc2ca08e6950b38867e8e6a0e94ee625223d3aa0df5c65f414c6d784467e252ae"], "sequence": 4294967295, "scriptSig": {"hex": "220020b3338f9571dda5ad799834148ea1ed19d1123924bdbb356e0c8c610b69cfd906", "asm": "0020b3338f9571dda5ad799834148ea1ed19d1123924bdbb356e0c8c610b69cfd906"}, "vout": 1, "txid": "0e95307df193f94be623711acd584bdfa2fdf383585945290fa5f70e8b33ab2a"}], "txid": "e81654143f7d6216776356387819d0ba21f81a4d5ca762f7b051114f1b14d110", "blocktime": 1537871767, "version": 1, "confirmations": 11495, "time": 1537871767, "locktime": 0, "vsize": 205, "size": 370}