{"hash": "e8234a2da5701e719fb9c6ecaddb7e5bb03702f8994e2a63dcdbe439a5d63c57", "blockhash": "00000000000000000004ffacab907a6b429b9a5745fa0b75af4234bf69dd7176", "vout": [{"scriptPubKey": {"reqSigs": 1, "hex": "a914f570b5461e80efb4efacfb9eea954d60f11dc0ea87", "addresses": ["3Q4nVdyiN6t7uuXxjG68BEsUNaMoPmvFDi"], "asm": "OP_HASH160 f570b5461e80efb4efacfb9eea954d60f11dc0ea OP_EQUAL", "type": "scripthash"}, "value": 0.01852658, "n": 0}, {"scriptPubKey": {"reqSigs": 1, "hex": "76a91416fd9e29d2dd887646cbb58c622af07e3f1c11fc88ac", "addresses": ["136ZgtxDv7VRSD1mndwWojFRZwW5gYxgck"], "asm": "OP_DUP OP_HASH160 16fd9e29d2dd887646cbb58c622af07e3f1c11fc OP_EQUALVERIFY OP_CHECKSIG", "type": "pubkeyhash"}, "value": 37.40258281, "n": 1}], "hex": "010000000169ac438f77cc96eac7c5673090b4c8c16bc1e038234bbb270319f21d1901ec95010000006a47304402206d7e4fd89247fc322af572665206450776f77dd980f53e5c1fe57ceaaa4c929702206c3fd47213465547fee658b9561dcaa0737d8df51ed1d4949f2fe448e979e1d0012102ffd8dabea96b6c885e4070dea3bd86bb7efa0bce01e0707ae100f6d1ada6a431ffffffff02f2441c000000000017a914f570b5461e80efb4efacfb9eea954d60f11dc0ea87e9cfefde000000001976a91416fd9e29d2dd887646cbb58c622af07e3f1c11fc88ac00000000", "vin": [{"sequence": 4294967295, "scriptSig": {"hex": "47304402206d7e4fd89247fc322af572665206450776f77dd980f53e5c1fe57ceaaa4c929702206c3fd47213465547fee658b9561dcaa0737d8df51ed1d4949f2fe448e979e1d0012102ffd8dabea96b6c885e4070dea3bd86bb7efa0bce01e0707ae100f6d1ada6a431", "asm": "304402206d7e4fd89247fc322af572665206450776f77dd980f53e5c1fe57ceaaa4c929702206c3fd47213465547fee658b9561dcaa0737d8df51ed1d4949f2fe448e979e1d0[ALL] 02ffd8dabea96b6c885e4070dea3bd86bb7efa0bce01e0707ae100f6d1ada6a431"}, "vout": 1, "txid": "95ec01191df2190327bb4b2338e0c16bc1c8b4903067c5c7ea96cc778f43ac69"}], "txid": "e8234a2da5701e719fb9c6ecaddb7e5bb03702f8994e2a63dcdbe439a5d63c57", "blocktime": 1537875543, "version": 1, "confirmations": 11464, "time": 1537875543, "locktime": 0, "vsize": 223, "size": 223}