{"hash": "f7432054688c740cfcef198b502d7aa7cfa34f09714d9bbe00db5e0ab03f33ad", "blockhash": "00000000000000000004ffacab907a6b429b9a5745fa0b75af4234bf69dd7176", "vout": [{"scriptPubKey": {"reqSigs": 1, "hex": "76a9146882b6a2c067149f07a7260d2ba8efd0a42f07b488ac", "addresses": ["1AXbs5Xcvm72vjhmCbQTnwZLe3wrpturgo"], "asm": "OP_DUP OP_HASH160 6882b6a2c067149f07a7260d2ba8efd0a42f07b4 OP_EQUALVERIFY OP_CHECKSIG", "type": "pubkeyhash"}, "value": 0.00181155, "n": 0}, {"scriptPubKey": {"reqSigs": 1, "hex": "a9142b95df0e02d9da38dc53b0276fd0443cb054942987", "addresses": ["35fUX2tqLYXzV8ZboEMrKK8beuehGM8PaZ"], "asm": "OP_HASH160 2b95df0e02d9da38dc53b0276fd0443cb0549429 OP_EQUAL", "type": "scripthash"}, "value": 0.0084107, "n": 1}], "hex": "02000000000101b3f4e95093809f96d61c17f946ffb8437169235b2cc07aaf4d4f56d38c6ca6dd00000000171600148fdab4bd17c9dd263893de4005d006d9c94935abfdffffff02a3c30200000000001976a9146882b6a2c067149f07a7260d2ba8efd0a42f07b488ac6ed50c000000000017a9142b95df0e02d9da38dc53b0276fd0443cb0549429870247304402205ebaff017d00b482c9b73d524eaaaafbab6ffc642332013214241af38d9a43480220357e293897c4fb6f0a9ead8d6ed3f1c44410f5f71544a0ffbc0a0bf9c3e1340801210296ac1b3c7647aa87ae70b4efeffcb4061bb7c0cb30a7f7f05c0e52e335de3f1616490800", "vin": [{"txinwitness": ["304402205ebaff017d00b482c9b73d524eaaaafbab6ffc642332013214241af38d9a43480220357e293897c4fb6f0a9ead8d6ed3f1c44410f5f71544a0ffbc0a0bf9c3e1340801", "0296ac1b3c7647aa87ae70b4efeffcb4061bb7c0cb30a7f7f05c0e52e335de3f16"], "sequence": 4294967293, "scriptSig": {"hex": "1600148fdab4bd17c9dd263893de4005d006d9c94935ab", "asm": "00148fdab4bd17c9dd263893de4005d006d9c94935ab"}, "vout": 0, "txid": "dda66c8cd3564f4daf7ac02c5b23697143b8ff46f9171cd6969f809350e9f4b3"}], "txid": "e827f9f9999b1149f6023aa977fc327c49f179a77d699f974edd8a723d37a9ea", "blocktime": 1537875543, "version": 2, "confirmations": 11464, "time": 1537875543, "locktime": 542998, "vsize": 168, "size": 249}