{"hash": "ef838a7b46097f1a3be6c889b7f417e53ff6074135b70e766749527c063a72dd", "blockhash": "0000000000000000001f76057863aec43deb6fa401d9628bb513d65a8098bfab", "vout": [{"scriptPubKey": {"reqSigs": 1, "hex": "a914f242d756679a58dc55638f974894cb6de8b4b05d87", "addresses": ["3PmyXAw8wPqujMhD69JtEWGiNAA7MdaVYT"], "asm": "OP_HASH160 f242d756679a58dc55638f974894cb6de8b4b05d OP_EQUAL", "type": "scripthash"}, "value": 0.15019888, "n": 0}, {"scriptPubKey": {"reqSigs": 1, "hex": "a914a649e9064f56a1cb85036c9121447fdce22c9aef87", "addresses": ["3GrGdm9Yp5ZKoHiGcYJ4aj8hGm7PourJjy"], "asm": "OP_HASH160 a649e9064f56a1cb85036c9121447fdce22c9aef OP_EQUAL", "type": "scripthash"}, "value": 0.05507916, "n": 1}], "hex": "01000000000101e6a5801fb6fa4ebeea3299ee3ab04f06d3421a1993af93b5c8d1892be5e54714000000001716001401343868bf4f7af445232c08cded0de4cad5012bffffffff02702fe5000000000017a914f242d756679a58dc55638f974894cb6de8b4b05d874c0b54000000000017a914a649e9064f56a1cb85036c9121447fdce22c9aef870247304402201268f702beba2a37995a46a0e3ad879c860c8099d825af9a92abac5c4bbdc488022035cf87c72ce72681a2f601025cef1542ba30d16b8ff88d90ed5a0a47cd15b6e9012102b4a1c05df8bdfe41d9647f32d554385aeda0881a9b0efd34ecaa1eb54ab70b8700000000", "vin": [{"txinwitness": ["304402201268f702beba2a37995a46a0e3ad879c860c8099d825af9a92abac5c4bbdc488022035cf87c72ce72681a2f601025cef1542ba30d16b8ff88d90ed5a0a47cd15b6e901", "02b4a1c05df8bdfe41d9647f32d554385aeda0881a9b0efd34ecaa1eb54ab70b87"], "sequence": 4294967295, "scriptSig": {"hex": "16001401343868bf4f7af445232c08cded0de4cad5012b", "asm": "001401343868bf4f7af445232c08cded0de4cad5012b"}, "vout": 0, "txid": "1447e5e52b89d1c8b593af93191a42d3064fb03aee9932eabe4efab61f80a5e6"}], "txid": "e82b47ca33180e49b0c5f4e7ab2b469c1e9275ba8f5ad7b22ff5ca8d25683810", "blocktime": 1537873891, "version": 1, "confirmations": 11474, "time": 1537873891, "locktime": 0, "vsize": 166, "size": 247}