{"hash": "e82cebcc5c6132eca7476e97000e458518f35b1109ed946d1e863c7d93daece4", "blockhash": "0000000000000000001f76057863aec43deb6fa401d9628bb513d65a8098bfab", "vout": [{"scriptPubKey": {"reqSigs": 1, "hex": "a914555dae79a248122cc9592ff94bc6d5348fa13f3887", "addresses": ["39UPaxTv2jvzxuBF4pHpqgciLm8nVPpSFE"], "asm": "OP_HASH160 555dae79a248122cc9592ff94bc6d5348fa13f38 OP_EQUAL", "type": "scripthash"}, "value": 0.03120914, "n": 0}, {"scriptPubKey": {"reqSigs": 1, "hex": "76a9140857a5d3609014857407e5d71783cd019ca79d5888ac", "addresses": ["1m7QQdx2F91FtgtAcHuwVFEFgFJB8T4FE"], "asm": "OP_DUP OP_HASH160 0857a5d3609014857407e5d71783cd019ca79d58 OP_EQUALVERIFY OP_CHECKSIG", "type": "pubkeyhash"}, "value": 0.15896245, "n": 1}], "hex": "0100000001f3d7cb0933a9fd0e6812ce1fb7ca188df7ec090e0bef5a7559fee54c7f849275010000006b483045022100a8483fb213e996862a220ea941f4497d1084799f1b2a589bd0c93e939c8ee3800220021dd6b5402ab32e8db494c0379d6d845facd0551c9e3f9c73d99dfcc818d15b012102fc758eb38206b8426486f7d6c34aab5ed4479f412a4d20d3e4a679d38a0cfdddffffffff02129f2f000000000017a914555dae79a248122cc9592ff94bc6d5348fa13f3887b58ef200000000001976a9140857a5d3609014857407e5d71783cd019ca79d5888ac00000000", "vin": [{"sequence": 4294967295, "scriptSig": {"hex": "483045022100a8483fb213e996862a220ea941f4497d1084799f1b2a589bd0c93e939c8ee3800220021dd6b5402ab32e8db494c0379d6d845facd0551c9e3f9c73d99dfcc818d15b012102fc758eb38206b8426486f7d6c34aab5ed4479f412a4d20d3e4a679d38a0cfddd", "asm": "3045022100a8483fb213e996862a220ea941f4497d1084799f1b2a589bd0c93e939c8ee3800220021dd6b5402ab32e8db494c0379d6d845facd0551c9e3f9c73d99dfcc818d15b[ALL] 02fc758eb38206b8426486f7d6c34aab5ed4479f412a4d20d3e4a679d38a0cfddd"}, "vout": 1, "txid": "7592847f4ce5fe59755aef0b0e09ecf78d18cab71fce12680efda93309cbd7f3"}], "txid": "e82cebcc5c6132eca7476e97000e458518f35b1109ed946d1e863c7d93daece4", "blocktime": 1537873891, "version": 1, "confirmations": 11475, "time": 1537873891, "locktime": 0, "vsize": 224, "size": 224}