{"hash": "e836560de9eda5c992236db080331e251f46da702f20ff683341530944debd3e", "blockhash": "00000000000000000018f53835495a110e01622372bf6ae95dc86f2b0ab887b0", "vout": [{"scriptPubKey": {"reqSigs": 1, "hex": "76a914588221d2f79ab2309f32fb28647963a03275514488ac", "addresses": ["194zMcwXswZtkMdpoX9BYDc4T4iGqW1G61"], "asm": "OP_DUP OP_HASH160 588221d2f79ab2309f32fb28647963a032755144 OP_EQUALVERIFY OP_CHECKSIG", "type": "pubkeyhash"}, "value": 0.0033943, "n": 0}], "hex": "0100000001ea0bc6e8a98a001d1dfc2c559eb7696665f6f56229ea8f35d40fefe345036fd8010000006b483045022100f49370ea8a2e2e2d71435c33b3f8b6c44499f1d049097c41bd7938725181e8a5022067df1da3d8fb4e0b685350e408e65b208a4ec37a9fd321d178939225aee970c10121032fcd546d45e477def9227592fdde629fa293e1f00bc9b3715ddf1b5975e7eb3affffffff01e62d0500000000001976a914588221d2f79ab2309f32fb28647963a03275514488ac00000000", "vin": [{"sequence": 4294967295, "scriptSig": {"hex": "483045022100f49370ea8a2e2e2d71435c33b3f8b6c44499f1d049097c41bd7938725181e8a5022067df1da3d8fb4e0b685350e408e65b208a4ec37a9fd321d178939225aee970c10121032fcd546d45e477def9227592fdde629fa293e1f00bc9b3715ddf1b5975e7eb3a", "asm": "3045022100f49370ea8a2e2e2d71435c33b3f8b6c44499f1d049097c41bd7938725181e8a5022067df1da3d8fb4e0b685350e408e65b208a4ec37a9fd321d178939225aee970c1[ALL] 032fcd546d45e477def9227592fdde629fa293e1f00bc9b3715ddf1b5975e7eb3a"}, "vout": 1, "txid": "d86f0345e3ef0fd4358fea2962f5f6656669b79e552cfc1d1d008aa9e8c60bea"}], "txid": "e836560de9eda5c992236db080331e251f46da702f20ff683341530944debd3e", "blocktime": 1537870928, "version": 1, "confirmations": 11514, "time": 1537870928, "locktime": 0, "vsize": 192, "size": 192}