{"hash": "e83ca13cf0e006661009a5a0c2cbce2364c705309dd9d845ae3e4eb182b89ded", "blockhash": "00000000000000000004ffacab907a6b429b9a5745fa0b75af4234bf69dd7176", "vout": [{"scriptPubKey": {"reqSigs": 1, "hex": "76a9145f9a4df13ab9e018f0b09d21bade8c5b8d473f3988ac", "addresses": ["19iW3VBUtXjTxfKWJqpo3FkBnRtXyk35Xs"], "asm": "OP_DUP OP_HASH160 5f9a4df13ab9e018f0b09d21bade8c5b8d473f39 OP_EQUALVERIFY OP_CHECKSIG", "type": "pubkeyhash"}, "value": 0.3, "n": 0}, {"scriptPubKey": {"reqSigs": 1, "hex": "76a9144fb4913dfed9ad2f4c2fd75534cb16ba9fe46a6288ac", "addresses": ["18GShCGENdYyhVCJLqz2k5xrz7gULdPs9G"], "asm": "OP_DUP OP_HASH160 4fb4913dfed9ad2f4c2fd75534cb16ba9fe46a62 OP_EQUALVERIFY OP_CHECKSIG", "type": "pubkeyhash"}, "value": 0.19593192, "n": 1}], "hex": "0100000001f942578e220fe2e387986aa75ad865a6225fae737563174123a604a3fadb2879000000006b4830450221009b3a91cc04a50f5ac2258d86eb3eb522e3744ff29d8c509257926aebc46aa31002203ea05a36fd21afae66fe99cabc76ea33b8f8d5cf7ba1ba66dc39132574b387a001210253c74e18f5791294b73a06d2270cbee0ae5b3e78601a1419adf6d8421cc07029ffffffff0280c3c901000000001976a9145f9a4df13ab9e018f0b09d21bade8c5b8d473f3988ace8f72a01000000001976a9144fb4913dfed9ad2f4c2fd75534cb16ba9fe46a6288ac00000000", "vin": [{"sequence": 4294967295, "scriptSig": {"hex": "4830450221009b3a91cc04a50f5ac2258d86eb3eb522e3744ff29d8c509257926aebc46aa31002203ea05a36fd21afae66fe99cabc76ea33b8f8d5cf7ba1ba66dc39132574b387a001210253c74e18f5791294b73a06d2270cbee0ae5b3e78601a1419adf6d8421cc07029", "asm": "30450221009b3a91cc04a50f5ac2258d86eb3eb522e3744ff29d8c509257926aebc46aa31002203ea05a36fd21afae66fe99cabc76ea33b8f8d5cf7ba1ba66dc39132574b387a0[ALL] 0253c74e18f5791294b73a06d2270cbee0ae5b3e78601a1419adf6d8421cc07029"}, "vout": 0, "txid": "7928dbfaa304a6234117637573ae5f22a665d85aa76a9887e3e20f228e5742f9"}], "txid": "e83ca13cf0e006661009a5a0c2cbce2364c705309dd9d845ae3e4eb182b89ded", "blocktime": 1537875543, "version": 1, "confirmations": 11464, "time": 1537875543, "locktime": 0, "vsize": 226, "size": 226}