{"hash": "bb5a5fa2452ddda943612086b7301e172872333c473440d97d96e4fd0c5a92b6", "blockhash": "0000000000000000001cda96e906b7601b7a6fb1a3b62bca570a9e5d8f4b3de1", "vout": [{"scriptPubKey": {"reqSigs": 1, "hex": "a91450b34e8a0eec106964733348ea0ccbf78ee3546587", "addresses": ["393inLwfbFTeM7JYrPFb9GMwnjQ6RthQoo"], "asm": "OP_HASH160 50b34e8a0eec106964733348ea0ccbf78ee35465 OP_EQUAL", "type": "scripthash"}, "value": 0.006257, "n": 0}, {"scriptPubKey": {"reqSigs": 1, "hex": "a9149d9a18fab5f7f69f43283a9cac13e4fe20a035f087", "addresses": ["3G4LcYm1imtGNtZTVBaennLQvLtVeTHyuV"], "asm": "OP_HASH160 9d9a18fab5f7f69f43283a9cac13e4fe20a035f0 OP_EQUAL", "type": "scripthash"}, "value": 0.00084056, "n": 1}], "hex": "0100000000010187fe0239281a98a6f04449c07c43b308c78fc3dec9133ea411e6b7a9c52803b00100000023220020c3964200ddbb4e600e115db6744137acf9c5b5180748db0dab55922fc334e804ffffffff02248c09000000000017a91450b34e8a0eec106964733348ea0ccbf78ee3546587584801000000000017a9149d9a18fab5f7f69f43283a9cac13e4fe20a035f0870400483045022100ac6533b249442d0c427d94bff71e3c3e231c6c7395fe2cb735ec3c389d93b9ea022028f95ff39591d1b4bfa110258573828d0153f6ac3c3489bec4423d1983c2780901483045022100bb8e045a0aca48e80e935998eb2da99169bd452d3a38d84b1701bc1d1459284302200ad621ef1c15cc97a21e34a9171a1def107a62cc7eca42a0aa8422013d0a3fe501475221027d90ea13cc3a124e627d9d5322f164d434224b8aeb00f9f70ede6ef87b3f275e21029c8006ed371347b9b242eb59b1d04b30a7692604a2e5ed7e14dcbe0d4057c94d52ae00000000", "vin": [{"txinwitness": ["", "3045022100ac6533b249442d0c427d94bff71e3c3e231c6c7395fe2cb735ec3c389d93b9ea022028f95ff39591d1b4bfa110258573828d0153f6ac3c3489bec4423d1983c2780901", "3045022100bb8e045a0aca48e80e935998eb2da99169bd452d3a38d84b1701bc1d1459284302200ad621ef1c15cc97a21e34a9171a1def107a62cc7eca42a0aa8422013d0a3fe501", "5221027d90ea13cc3a124e627d9d5322f164d434224b8aeb00f9f70ede6ef87b3f275e21029c8006ed371347b9b242eb59b1d04b30a7692604a2e5ed7e14dcbe0d4057c94d52ae"], "sequence": 4294967295, "scriptSig": {"hex": "220020c3964200ddbb4e600e115db6744137acf9c5b5180748db0dab55922fc334e804", "asm": "0020c3964200ddbb4e600e115db6744137acf9c5b5180748db0dab55922fc334e804"}, "vout": 1, "txid": "b00328c5a9b7e611a43e13c9dec38fc708b3437cc04944f0a6981a283902fe87"}], "txid": "e846b273f7ee47980d80b193acd876e9a0890677ae2301b2e00f0cbaae1e6327", "blocktime": 1537873282, "version": 1, "confirmations": 11481, "time": 1537873282, "locktime": 0, "vsize": 206, "size": 372}