{"hash": "e84b9f532e82ad9b860667be6932b7f99d406c9fecb4d1f91cc00f9784fbff60", "blockhash": "0000000000000000000baef3f32e3676a92c3b2e5da21b426e4f302fc371ce76", "vout": [{"scriptPubKey": {"reqSigs": 1, "hex": "76a914f9ac016a250afe9ecba5e23bfab9656f0efe427688ac", "addresses": ["1Pm9JvKJ1xvsizcYttDUcXtpbY1DBQeLdK"], "asm": "OP_DUP OP_HASH160 f9ac016a250afe9ecba5e23bfab9656f0efe4276 OP_EQUALVERIFY OP_CHECKSIG", "type": "pubkeyhash"}, "value": 0.001, "n": 0}, {"scriptPubKey": {"reqSigs": 1, "hex": "76a914e349bc52d6b8100b58d3fce45135a91c5c128a1d88ac", "addresses": ["1MiningDkXkhKaXBTMKXfLemnk1YY5rbkT"], "asm": "OP_DUP OP_HASH160 e349bc52d6b8100b58d3fce45135a91c5c128a1d OP_EQUALVERIFY OP_CHECKSIG", "type": "pubkeyhash"}, "value": 0.00736797, "n": 1}], "hex": "0200000001c3381319b82fbc31bdb512ad30d3c5ed0efdcb03f5ed8f9f63d0e8f2b704ea77010000008b483045022100a2ffd3b964501f8d586a82fbcdd1fbf0d10343fbbfac68f91fd7cd5d60e83ad0022054ebbf0b253425becf84eefb62aa9eafceccb2111e8c714f9e0b79993c2cb7a9014104ae414abde7876c34e01694b38b2341d10b9b4c8db18a66262bd8df26bcb57893885c9fe8b79aa25330d5f05bb5aa9ab636a908a72e27956572b44190b22809beffffffff02a0860100000000001976a914f9ac016a250afe9ecba5e23bfab9656f0efe427688ac1d3e0b00000000001976a914e349bc52d6b8100b58d3fce45135a91c5c128a1d88ac00000000", "vin": [{"sequence": 4294967295, "scriptSig": {"hex": "483045022100a2ffd3b964501f8d586a82fbcdd1fbf0d10343fbbfac68f91fd7cd5d60e83ad0022054ebbf0b253425becf84eefb62aa9eafceccb2111e8c714f9e0b79993c2cb7a9014104ae414abde7876c34e01694b38b2341d10b9b4c8db18a66262bd8df26bcb57893885c9fe8b79aa25330d5f05bb5aa9ab636a908a72e27956572b44190b22809be", "asm": "3045022100a2ffd3b964501f8d586a82fbcdd1fbf0d10343fbbfac68f91fd7cd5d60e83ad0022054ebbf0b253425becf84eefb62aa9eafceccb2111e8c714f9e0b79993c2cb7a9[ALL] 04ae414abde7876c34e01694b38b2341d10b9b4c8db18a66262bd8df26bcb57893885c9fe8b79aa25330d5f05bb5aa9ab636a908a72e27956572b44190b22809be"}, "vout": 1, "txid": "77ea04b7f2e8d0639f8fedf503cbfd0eedc5d330ad12b5bd31bc2fb8191338c3"}], "txid": "e84b9f532e82ad9b860667be6932b7f99d406c9fecb4d1f91cc00f9784fbff60", "blocktime": 1537876114, "version": 2, "confirmations": 11460, "time": 1537876114, "locktime": 0, "vsize": 258, "size": 258}