{"hash": "e851f5bea1d532bc9d1a708f1eedaca0e3b2058f66de5795335e45765feab8eb", "blockhash": "0000000000000000000e13cef7c366c0283d82e591d1acd082e914b08063cdf1", "vout": [{"scriptPubKey": {"reqSigs": 1, "hex": "a9144ff100c615ec326282baec6f4832c75f584da68a87", "addresses": ["38yi1t744e1TkcEVjEPGxi4h355G6tyrTD"], "asm": "OP_HASH160 4ff100c615ec326282baec6f4832c75f584da68a OP_EQUAL", "type": "scripthash"}, "value": 0.00469, "n": 0}, {"scriptPubKey": {"reqSigs": 1, "hex": "76a914ffad8ea88c1576e3725a7b7d5f496bab3c5a720d88ac", "addresses": ["1QJuDtRLAZcbpMY7n61D2j8vet7Jmb3DLP"], "asm": "OP_DUP OP_HASH160 ffad8ea88c1576e3725a7b7d5f496bab3c5a720d OP_EQUALVERIFY OP_CHECKSIG", "type": "pubkeyhash"}, "value": 0.01082314, "n": 1}], "hex": "0100000001479174dfc297f0d832e85777bd7f9d6291a405a18a60d1a1ebbeaaee7644f38b010000006b48304502210091d618755fa2ecdc366c72094422be10c32735c44de81df6dd3b6768c1cc4cb7022048521021c4ae6ddb96629d66248e4d0a955ff4ca7d7634d1938a87d4140bff7701210200188d0714cf72c18fca436187a8a19edff4cbc0542341d5723cd3b8c26c0d3fffffffff02082807000000000017a9144ff100c615ec326282baec6f4832c75f584da68a87ca831000000000001976a914ffad8ea88c1576e3725a7b7d5f496bab3c5a720d88ac00000000", "vin": [{"sequence": 4294967295, "scriptSig": {"hex": "48304502210091d618755fa2ecdc366c72094422be10c32735c44de81df6dd3b6768c1cc4cb7022048521021c4ae6ddb96629d66248e4d0a955ff4ca7d7634d1938a87d4140bff7701210200188d0714cf72c18fca436187a8a19edff4cbc0542341d5723cd3b8c26c0d3f", "asm": "304502210091d618755fa2ecdc366c72094422be10c32735c44de81df6dd3b6768c1cc4cb7022048521021c4ae6ddb96629d66248e4d0a955ff4ca7d7634d1938a87d4140bff77[ALL] 0200188d0714cf72c18fca436187a8a19edff4cbc0542341d5723cd3b8c26c0d3f"}, "vout": 1, "txid": "8bf34476eeaabeeba1d1608aa105a491629d7fbd7757e832d8f097c2df749147"}], "txid": "e851f5bea1d532bc9d1a708f1eedaca0e3b2058f66de5795335e45765feab8eb", "blocktime": 1537871767, "version": 1, "confirmations": 11495, "time": 1537871767, "locktime": 0, "vsize": 224, "size": 224}