{"hash": "e855c10e71d2fd4a5f1a4934c38a6c3683ede2aaff017de121ad5f27479ee328", "blockhash": "0000000000000000000dcc0f55137456b1a82d3642486a52398922ac4d620174", "vout": [{"scriptPubKey": {"reqSigs": 1, "hex": "a914b95deb76b9f6d6b8c3d11e075c7856ca2ea4957587", "addresses": ["3Jb9Sh9vVxhc9ktQBSAB4DxiALFH4B9ywG"], "asm": "OP_HASH160 b95deb76b9f6d6b8c3d11e075c7856ca2ea49575 OP_EQUAL", "type": "scripthash"}, "value": 0.01165117, "n": 0}, {"scriptPubKey": {"reqSigs": 1, "hex": "00146de19f31b20e45fbb6379f6d34e02df947cdb2e4", "addresses": ["bc1qdhse7vdjpezlhd3hnaknfcpdl9rumvhykn6lp9"], "asm": "0 6de19f31b20e45fbb6379f6d34e02df947cdb2e4", "type": "witness_v0_keyhash"}, "value": 0.00342106, "n": 1}], "hex": "0100000001a8a1fac447b4531ce2e2640a75b128579b1fb74bdd21909bd9d1cc36e59f6a95000000006b483045022100f83e2c89443aaf91cd5f59c51a9b4afade724f48296bd513ca2e5d24cb0dd8900220115d26ebd4a505aaa7b72ae92856804aeb260aa59a197b6dd38937c9d10866ef01210336f75d2aa2b8f4e411c6b13476548e075f6ef9506f98a196b2a88b6e90f86eb9ffffffff023dc711000000000017a914b95deb76b9f6d6b8c3d11e075c7856ca2ea49575875a380500000000001600146de19f31b20e45fbb6379f6d34e02df947cdb2e400000000", "vin": [{"sequence": 4294967295, "scriptSig": {"hex": "483045022100f83e2c89443aaf91cd5f59c51a9b4afade724f48296bd513ca2e5d24cb0dd8900220115d26ebd4a505aaa7b72ae92856804aeb260aa59a197b6dd38937c9d10866ef01210336f75d2aa2b8f4e411c6b13476548e075f6ef9506f98a196b2a88b6e90f86eb9", "asm": "3045022100f83e2c89443aaf91cd5f59c51a9b4afade724f48296bd513ca2e5d24cb0dd8900220115d26ebd4a505aaa7b72ae92856804aeb260aa59a197b6dd38937c9d10866ef[ALL] 0336f75d2aa2b8f4e411c6b13476548e075f6ef9506f98a196b2a88b6e90f86eb9"}, "vout": 0, "txid": "956a9fe536ccd1d99b9021dd4bb71f9b5728b1750a64e2e21c53b447c4faa1a8"}], "txid": "e855c10e71d2fd4a5f1a4934c38a6c3683ede2aaff017de121ad5f27479ee328", "blocktime": 1537870268, "version": 1, "confirmations": 11518, "time": 1537870268, "locktime": 0, "vsize": 221, "size": 221}