{"hash": "381f653c43cb089b1520f55872e6af74438c6f1b3977565971e16ea9d4d29a5f", "blockhash": "00000000000000000017f5eb5941039fbcee6240d03bc1f2f8e35350df66a1d8", "vout": [{"scriptPubKey": {"reqSigs": 1, "hex": "a91490e99e8d26d05ead3c05430c292a887bbff695f587", "addresses": ["3EuF6KjJawxTiUsea3Sc8hsLUGmVEf7Xg5"], "asm": "OP_HASH160 90e99e8d26d05ead3c05430c292a887bbff695f5 OP_EQUAL", "type": "scripthash"}, "value": 0.00122552, "n": 0}, {"scriptPubKey": {"type": "nulldata", "hex": "6a146f6d6e69000000000000001f0000000005f5e100", "asm": "OP_RETURN 6f6d6e69000000000000001f0000000005f5e100"}, "value": 0.0, "n": 1}, {"scriptPubKey": {"reqSigs": 1, "hex": "a91490e99e8d26d05ead3c05430c292a887bbff695f587", "addresses": ["3EuF6KjJawxTiUsea3Sc8hsLUGmVEf7Xg5"], "asm": "OP_HASH160 90e99e8d26d05ead3c05430c292a887bbff695f5 OP_EQUAL", "type": "scripthash"}, "value": 5.4e-06, "n": 2}], "hex": "0100000000010244efe8f9e92c6cd47027c252d4d872d0b684828e50cec956d4c0e9f604e213c90000000017160014f6e1792e7852ebd5ae795c2a25d579acdfadec2dffffffff44efe8f9e92c6cd47027c252d4d872d0b684828e50cec956d4c0e9f604e213c90200000017160014f6e1792e7852ebd5ae795c2a25d579acdfadec2dffffffff03b8de01000000000017a91490e99e8d26d05ead3c05430c292a887bbff695f5870000000000000000166a146f6d6e69000000000000001f0000000005f5e1001c0200000000000017a91490e99e8d26d05ead3c05430c292a887bbff695f587024830450221009d0b543597786a6e8bd74bbf10016c99dd98272de9aecf7abdf8880cd4e2a50d02200d6d4ee8619b930d80e8bb68682372f98dc7e4c52881da6acbe29884f05ed04e012103f1cf988013a33e053d1e9bd54c4798c1a6dc362a5b2798b5344049fca40e2db002483045022100bec4050a59084b9ad11a322b9330a966bc4d2ca49d02aac7c1ee5c09fce2e5ac02206a2814f5caf7b584cbabec46e17835e65ad8161d25af9e8ece8b45de9bfa3e41012103f1cf988013a33e053d1e9bd54c4798c1a6dc362a5b2798b5344049fca40e2db000000000", "vin": [{"txinwitness": ["30450221009d0b543597786a6e8bd74bbf10016c99dd98272de9aecf7abdf8880cd4e2a50d02200d6d4ee8619b930d80e8bb68682372f98dc7e4c52881da6acbe29884f05ed04e01", "03f1cf988013a33e053d1e9bd54c4798c1a6dc362a5b2798b5344049fca40e2db0"], "sequence": 4294967295, "scriptSig": {"hex": "160014f6e1792e7852ebd5ae795c2a25d579acdfadec2d", "asm": "0014f6e1792e7852ebd5ae795c2a25d579acdfadec2d"}, "vout": 0, "txid": "c913e204f6e9c0d456c9ce508e8284b6d072d8d452c22770d46c2ce9f9e8ef44"}, {"txinwitness": ["3045022100bec4050a59084b9ad11a322b9330a966bc4d2ca49d02aac7c1ee5c09fce2e5ac02206a2814f5caf7b584cbabec46e17835e65ad8161d25af9e8ece8b45de9bfa3e4101", "03f1cf988013a33e053d1e9bd54c4798c1a6dc362a5b2798b5344049fca40e2db0"], "sequence": 4294967295, "scriptSig": {"hex": "160014f6e1792e7852ebd5ae795c2a25d579acdfadec2d", "asm": "0014f6e1792e7852ebd5ae795c2a25d579acdfadec2d"}, "vout": 2, "txid": "c913e204f6e9c0d456c9ce508e8284b6d072d8d452c22770d46c2ce9f9e8ef44"}], "txid": "e8725824b48facad8ec011b68e2b737a55e35c9d0f8d9ac55fceb94190053970", "blocktime": 1537874412, "version": 1, "confirmations": 11467, "time": 1537874412, "locktime": 0, "vsize": 288, "size": 451}