{"hash": "e87567722d40629596820fdc4f8b4faf232279e0e7414ffb2241504b0a23c50a", "blockhash": "0000000000000000001cda96e906b7601b7a6fb1a3b62bca570a9e5d8f4b3de1", "vout": [{"scriptPubKey": {"reqSigs": 1, "hex": "76a914342aa5a9e2361d0c083074da0b5248a2ae68d00d88ac", "addresses": ["15kqE9f93hEUC4FmiwKDCtD6PbNMiSbK2b"], "asm": "OP_DUP OP_HASH160 342aa5a9e2361d0c083074da0b5248a2ae68d00d OP_EQUALVERIFY OP_CHECKSIG", "type": "pubkeyhash"}, "value": 0.03123219, "n": 0}, {"scriptPubKey": {"reqSigs": 1, "hex": "76a914f784dc5d40220662856f1a58b7cb006568622cc388ac", "addresses": ["1PZm4iJoFrx7bVYF1uGJzbVAD4WnrFif2v"], "asm": "OP_DUP OP_HASH160 f784dc5d40220662856f1a58b7cb006568622cc3 OP_EQUALVERIFY OP_CHECKSIG", "type": "pubkeyhash"}, "value": 7.30949914, "n": 1}], "hex": "0100000001fe8f483acaba0b6a75064103da158bd3ae90a6d55f2ed1ebf665dfe67c582227010000006b483045022100ead1d39f0d01e2e293623bc3a757fbd973ed86cf6f9156379b2123dd2b0989c802207c4b0a69b189cfc4705911a392a676eb9a74eb0a2e77c0a1c033452e23dc2119012102cfc612e6313e2a07cfbd818add0603115fe32b8eb230a80a5b28755362a99767feffffff0213a82f00000000001976a914342aa5a9e2361d0c083074da0b5248a2ae68d00d88ac1a69912b000000001976a914f784dc5d40220662856f1a58b7cb006568622cc388ac00000000", "vin": [{"sequence": 4294967294, "scriptSig": {"hex": "483045022100ead1d39f0d01e2e293623bc3a757fbd973ed86cf6f9156379b2123dd2b0989c802207c4b0a69b189cfc4705911a392a676eb9a74eb0a2e77c0a1c033452e23dc2119012102cfc612e6313e2a07cfbd818add0603115fe32b8eb230a80a5b28755362a99767", "asm": "3045022100ead1d39f0d01e2e293623bc3a757fbd973ed86cf6f9156379b2123dd2b0989c802207c4b0a69b189cfc4705911a392a676eb9a74eb0a2e77c0a1c033452e23dc2119[ALL] 02cfc612e6313e2a07cfbd818add0603115fe32b8eb230a80a5b28755362a99767"}, "vout": 1, "txid": "2722587ce6df65f6ebd12e5fd5a690aed38b15da034106756a0bbaca3a488ffe"}], "txid": "e87567722d40629596820fdc4f8b4faf232279e0e7414ffb2241504b0a23c50a", "blocktime": 1537873282, "version": 1, "confirmations": 11484, "time": 1537873282, "locktime": 0, "vsize": 226, "size": 226}