{"hash": "03198017b54ced431923f0a8f1416119537971b20336764ac45ef2d82e787006", "blockhash": "0000000000000000000e13cef7c366c0283d82e591d1acd082e914b08063cdf1", "vout": [{"scriptPubKey": {"reqSigs": 1, "hex": "0014cff6c5cbbfe2450598dcd7f62eb880970e9c891b", "addresses": ["bc1qelmvtjalufzstxxu6lmzawyqju8fezgmrr3wut"], "asm": "0 cff6c5cbbfe2450598dcd7f62eb880970e9c891b", "type": "witness_v0_keyhash"}, "value": 0.00081772, "n": 0}, {"scriptPubKey": {"reqSigs": 1, "hex": "76a9149dfa3cdd7c4e74d5e40b539c00f1fd6c9d5fcfe588ac", "addresses": ["1FQJrwbnyENFyPzAgq4BCqYXMXBXR2ho5x"], "asm": "OP_DUP OP_HASH160 9dfa3cdd7c4e74d5e40b539c00f1fd6c9d5fcfe5 OP_EQUALVERIFY OP_CHECKSIG", "type": "pubkeyhash"}, "value": 0.00874747, "n": 1}], "hex": "010000000001018577803dc9c91691d6a00d62af7b38f8f30d8982d8f61bf2a3cfa615c7aaf6fd0000000000ffffffff026c3f010000000000160014cff6c5cbbfe2450598dcd7f62eb880970e9c891bfb580d00000000001976a9149dfa3cdd7c4e74d5e40b539c00f1fd6c9d5fcfe588ac0247304402206e023b979a2fe971decae1bee0613c20ddbf2734e333610715d424ae9dfbc38002201f02164b211d528050c6599d51cbf44761c3eff82703a528c54cf970bb4adce70121030aa4ab1c9dd7e96b25786b57187e7f85e9fbfeef2dd23c2e82ad9c5d8436b23000000000", "vin": [{"txinwitness": ["304402206e023b979a2fe971decae1bee0613c20ddbf2734e333610715d424ae9dfbc38002201f02164b211d528050c6599d51cbf44761c3eff82703a528c54cf970bb4adce701", "030aa4ab1c9dd7e96b25786b57187e7f85e9fbfeef2dd23c2e82ad9c5d8436b230"], "sequence": 4294967295, "scriptSig": {"hex": "", "asm": ""}, "vout": 0, "txid": "fdf6aac715a6cfa3f21bf6d882890df3f8387baf620da0d69116c9c93d807785"}], "txid": "e88289d27a1b05275502081c2dad84327d132bd788b90679b343ccf1be600065", "blocktime": 1537871767, "version": 1, "confirmations": 11495, "time": 1537871767, "locktime": 0, "vsize": 144, "size": 225}