{"hash": "7c690bbe6c9b120043d681a7f9d84a992443e87c28e5246554673fff82e14ead", "blockhash": "0000000000000000001f76057863aec43deb6fa401d9628bb513d65a8098bfab", "vout": [{"scriptPubKey": {"reqSigs": 1, "hex": "a914540c785e9ef5e523eccd0fc6f8d46086877a95cf87", "addresses": ["39MRd6rb4YmgxSFJSXh9bpSKR15PPM7tKW"], "asm": "OP_HASH160 540c785e9ef5e523eccd0fc6f8d46086877a95cf OP_EQUAL", "type": "scripthash"}, "value": 0.00171933, "n": 0}, {"scriptPubKey": {"reqSigs": 1, "hex": "a914dd213e8f04faa420f1fc671aa8a428ee1045113c87", "addresses": ["3MrF5oDL5D3sDUy4WxgPeXuDUEU557mJLF"], "asm": "OP_HASH160 dd213e8f04faa420f1fc671aa8a428ee1045113c OP_EQUAL", "type": "scripthash"}, "value": 0.01368024, "n": 1}], "hex": "02000000000101ecb2306dccacf7f8ce41f61e96c512faf2d83396f8f53b940fae5ae5b837422001000000171600144442a7801a01947556e4e17f5bf338d29f121d43feffffff029d9f02000000000017a914540c785e9ef5e523eccd0fc6f8d46086877a95cf87d8df14000000000017a914dd213e8f04faa420f1fc671aa8a428ee1045113c8702473044022028b9371616e3ee6826ada3473aeb3f5df0a196dcd53e543567f803cb7561137702205cd7671fe87f719ca16dcee0c899edd3e7e22ab78d7a279822d15b7e6dfe91cd0121031baf9271edc5957a05a4f4687b2905a5233b567ad317ba9b4f663609d7f32dbe11490800", "vin": [{"txinwitness": ["3044022028b9371616e3ee6826ada3473aeb3f5df0a196dcd53e543567f803cb7561137702205cd7671fe87f719ca16dcee0c899edd3e7e22ab78d7a279822d15b7e6dfe91cd01", "031baf9271edc5957a05a4f4687b2905a5233b567ad317ba9b4f663609d7f32dbe"], "sequence": 4294967294, "scriptSig": {"hex": "1600144442a7801a01947556e4e17f5bf338d29f121d43", "asm": "00144442a7801a01947556e4e17f5bf338d29f121d43"}, "vout": 1, "txid": "204237b8e55aae0f943bf5f89633d8f2fa12c5961ef641cef8f7accc6d30b2ec"}], "txid": "e885e8429b4b00e289539a06d00479250f5979c147d925bda49a5ed280d9c2b3", "blocktime": 1537873891, "version": 2, "confirmations": 11479, "time": 1537873891, "locktime": 542993, "vsize": 166, "size": 247}