{"hash": "e8872e5a84b3aadef11182f1144ccd87f3fd4e41d68765720cd2a9d67baefe68", "blockhash": "0000000000000000001e0dab787dd257d1dbfcb92a98c2207d5e1078be1f4165", "vout": [{"scriptPubKey": {"reqSigs": 1, "hex": "a9140e5be99299bd949746ab452e9223b07ab275539187", "addresses": ["32zwVQzMG1s5kEHW4oTC2Ny2gYvDkHxPhq"], "asm": "OP_HASH160 0e5be99299bd949746ab452e9223b07ab2755391 OP_EQUAL", "type": "scripthash"}, "value": 0.009, "n": 0}, {"scriptPubKey": {"reqSigs": 1, "hex": "76a914c55ac4421997e326eb3af52e705f5bfaa7d94b1f88ac", "addresses": ["1JzWrNH7G4yBjbF9jHKt3ewTUfbLV1r2W3"], "asm": "OP_DUP OP_HASH160 c55ac4421997e326eb3af52e705f5bfaa7d94b1f OP_EQUALVERIFY OP_CHECKSIG", "type": "pubkeyhash"}, "value": 0.01045199, "n": 1}], "hex": "0200000002887b98a38de13e11b49080e07af0b4267b6cde5820e1bac177764f35e9b76caf000000006b483045022100c52b9356429a72d9d3cb40f407c2ce36647f56279c99627cef25446b4c7d7b130220665a5a0dcdd27847e16f0305156185950f77978a0160bea5ab50666f05e9db8301210397e00042ba3c18956b5fba94142d041078424aafef0c8b6b58bbe7d089812793feffffff90ecfe55f97378dc67e192d78572468425eb9e24f415c1bd13580b9d7ac53574000000006a47304402202076ee437f6a1b1748314e47accac3d6b6c23518d80be9fa06c35ad2fe9a1cd902201d98c490860b51e660a3ad38295c7b9fc0d937547807e097ec42dc4995218961012102ebbe75a11def89ecdd57b2f33033b930cad53942f41289b7bc61ff78fa33790dfeffffff02a0bb0d000000000017a9140e5be99299bd949746ab452e9223b07ab275539187cff20f00000000001976a914c55ac4421997e326eb3af52e705f5bfaa7d94b1f88ac12490800", "vin": [{"sequence": 4294967294, "scriptSig": {"hex": "483045022100c52b9356429a72d9d3cb40f407c2ce36647f56279c99627cef25446b4c7d7b130220665a5a0dcdd27847e16f0305156185950f77978a0160bea5ab50666f05e9db8301210397e00042ba3c18956b5fba94142d041078424aafef0c8b6b58bbe7d089812793", "asm": "3045022100c52b9356429a72d9d3cb40f407c2ce36647f56279c99627cef25446b4c7d7b130220665a5a0dcdd27847e16f0305156185950f77978a0160bea5ab50666f05e9db83[ALL] 0397e00042ba3c18956b5fba94142d041078424aafef0c8b6b58bbe7d089812793"}, "vout": 0, "txid": "af6cb7e9354f7677c1bae12058de6c7b26b4f07ae08090b4113ee18da3987b88"}, {"sequence": 4294967294, "scriptSig": {"hex": "47304402202076ee437f6a1b1748314e47accac3d6b6c23518d80be9fa06c35ad2fe9a1cd902201d98c490860b51e660a3ad38295c7b9fc0d937547807e097ec42dc4995218961012102ebbe75a11def89ecdd57b2f33033b930cad53942f41289b7bc61ff78fa33790d", "asm": "304402202076ee437f6a1b1748314e47accac3d6b6c23518d80be9fa06c35ad2fe9a1cd902201d98c490860b51e660a3ad38295c7b9fc0d937547807e097ec42dc4995218961[ALL] 02ebbe75a11def89ecdd57b2f33033b930cad53942f41289b7bc61ff78fa33790d"}, "vout": 0, "txid": "7435c57a9d0b5813bdc115f4249eeb2584467285d792e167dc7873f955feec90"}], "txid": "e8872e5a84b3aadef11182f1144ccd87f3fd4e41d68765720cd2a9d67baefe68", "blocktime": 1537872475, "version": 2, "confirmations": 11486, "time": 1537872475, "locktime": 542994, "vsize": 371, "size": 371}