{"hash": "e888d217f95ca9c09d00423e4d26b94a7d2430a129ef580c76118dd1a04bdd71", "blockhash": "00000000000000000024a2167bbff67b0be802c0b01cdd79e6331c2be6459f87", "vout": [{"scriptPubKey": {"type": "nulldata", "hex": "6a146f6d6e69000000000000001f0000065dd0837000", "asm": "OP_RETURN 6f6d6e69000000000000001f0000065dd0837000"}, "value": 0.0, "n": 0}, {"scriptPubKey": {"reqSigs": 1, "hex": "76a914ac99401b8cd81a9e99082364d6ab148c64b272b488ac", "addresses": ["1Gjcp2CgJzENGcW6NGZDeseLdCLEqZPCoq"], "asm": "OP_DUP OP_HASH160 ac99401b8cd81a9e99082364d6ab148c64b272b4 OP_EQUALVERIFY OP_CHECKSIG", "type": "pubkeyhash"}, "value": 5.46e-06, "n": 1}, {"scriptPubKey": {"reqSigs": 1, "hex": "76a914cb71a5b80cfc05f2920248186c8d6a4a8f49ee8e88ac", "addresses": ["1KYiKJEfdJtap9QX2v9BXJMpz2SfU4pgZw"], "asm": "OP_DUP OP_HASH160 cb71a5b80cfc05f2920248186c8d6a4a8f49ee8e OP_EQUALVERIFY OP_CHECKSIG", "type": "pubkeyhash"}, "value": 0.8937285, "n": 2}], "hex": "01000000015b367a067f55d32484c914696233fcda0ddec4dba7c70b0275f698ea22dc19ed000000006a473044022009226a0add245317d6aaa58570e0852b3d2f7ba413e08bc704af1eba42245b6f02207fe590c2db4173440f7d5488e02b8bfa7832b44cf7ed01eb0f472c3c80332ce901210364e7d27a8abe0408b754ee0c88a6d1be37bbd9416ad1621013c6381301c65e8efeffffff030000000000000000166a146f6d6e69000000000000001f0000065dd083700022020000000000001976a914ac99401b8cd81a9e99082364d6ab148c64b272b488acb2b85305000000001976a914cb71a5b80cfc05f2920248186c8d6a4a8f49ee8e88ac0d490800", "vin": [{"sequence": 4294967294, "scriptSig": {"hex": "473044022009226a0add245317d6aaa58570e0852b3d2f7ba413e08bc704af1eba42245b6f02207fe590c2db4173440f7d5488e02b8bfa7832b44cf7ed01eb0f472c3c80332ce901210364e7d27a8abe0408b754ee0c88a6d1be37bbd9416ad1621013c6381301c65e8e", "asm": "3044022009226a0add245317d6aaa58570e0852b3d2f7ba413e08bc704af1eba42245b6f02207fe590c2db4173440f7d5488e02b8bfa7832b44cf7ed01eb0f472c3c80332ce9[ALL] 0364e7d27a8abe0408b754ee0c88a6d1be37bbd9416ad1621013c6381301c65e8e"}, "vout": 0, "txid": "ed19dc22ea98f675020bc7a7dbc4de0ddafc33626914c98424d3557f067a365b"}], "txid": "e888d217f95ca9c09d00423e4d26b94a7d2430a129ef580c76118dd1a04bdd71", "blocktime": 1537870564, "version": 1, "confirmations": 11515, "time": 1537870564, "locktime": 542989, "vsize": 256, "size": 256}