{"hash": "e88951db51d644d4b28f1fa95175b60f4e1442461ee31d44ad4b36b73acf13a9", "blockhash": "000000000000000000022b45ed06c6f4ccd3cf7fb5ba4856ebd2e58215665228", "vout": [{"scriptPubKey": {"reqSigs": 1, "hex": "76a914d243e6abb9a60fbff430b421d2df4b7d59ec186088ac", "addresses": ["1LAnF8h3qMGx3TSwNUHVneBZUEpwE4gu3D"], "asm": "OP_DUP OP_HASH160 d243e6abb9a60fbff430b421d2df4b7d59ec1860 OP_EQUALVERIFY OP_CHECKSIG", "type": "pubkeyhash"}, "value": 0.00076972, "n": 0}, {"scriptPubKey": {"reqSigs": 1, "hex": "76a9143851f34d13937b673a7d24a1950bb5b21ce94af388ac", "addresses": ["168o1kqNquEJeR9vosUB5fw4eAwcVAgh8P"], "asm": "OP_DUP OP_HASH160 3851f34d13937b673a7d24a1950bb5b21ce94af3 OP_EQUALVERIFY OP_CHECKSIG", "type": "pubkeyhash"}, "value": 5.46e-06, "n": 1}, {"scriptPubKey": {"type": "nulldata", "hex": "6a146f6d6e69000000000000001f0000001cc7225400", "asm": "OP_RETURN 6f6d6e69000000000000001f0000001cc7225400"}, "value": 0.0, "n": 2}], "hex": "010000000289f8a2a686c25bf3c75e7a682d46875be5e380331ff8f5e37ebca75d90f15842010000006a473044022038ff6453bc062f9a7a1995ea6e0bc710bf5f8fed2b24b9e27a5988e9582c483102201d2c7ee96bb55cefb5851d7ef5393f2f2f70817175a514fd4ef63ae8b33abfb4012102b1a2087f5d3170b3d4d542c54115533afd1baeec238dfb6203289b94f6f9af55ffffffff1013d603b80bf2a088a2dcfb28dcd72b89ca993099d6d561619605916a35049e000000006b48304502210097350eca16d1537fac0e2cd6026ba34b6208ffecc4d7302f20bc5677d536e95b022035937ab8d893bba78559dd58b862f7272a55f44f636fb8e1162bdcb8b1cd2cf601210271977291b74f1f5f5c42157e8aae804664eaaeccfd097918450d37f28fb94d77ffffffff03ac2c0100000000001976a914d243e6abb9a60fbff430b421d2df4b7d59ec186088ac22020000000000001976a9143851f34d13937b673a7d24a1950bb5b21ce94af388ac0000000000000000166a146f6d6e69000000000000001f0000001cc722540000000000", "vin": [{"sequence": 4294967295, "scriptSig": {"hex": "473044022038ff6453bc062f9a7a1995ea6e0bc710bf5f8fed2b24b9e27a5988e9582c483102201d2c7ee96bb55cefb5851d7ef5393f2f2f70817175a514fd4ef63ae8b33abfb4012102b1a2087f5d3170b3d4d542c54115533afd1baeec238dfb6203289b94f6f9af55", "asm": "3044022038ff6453bc062f9a7a1995ea6e0bc710bf5f8fed2b24b9e27a5988e9582c483102201d2c7ee96bb55cefb5851d7ef5393f2f2f70817175a514fd4ef63ae8b33abfb4[ALL] 02b1a2087f5d3170b3d4d542c54115533afd1baeec238dfb6203289b94f6f9af55"}, "vout": 1, "txid": "4258f1905da7bc7ee3f5f81f3380e3e55b87462d687a5ec7f35bc286a6a2f889"}, {"sequence": 4294967295, "scriptSig": {"hex": "48304502210097350eca16d1537fac0e2cd6026ba34b6208ffecc4d7302f20bc5677d536e95b022035937ab8d893bba78559dd58b862f7272a55f44f636fb8e1162bdcb8b1cd2cf601210271977291b74f1f5f5c42157e8aae804664eaaeccfd097918450d37f28fb94d77", "asm": "304502210097350eca16d1537fac0e2cd6026ba34b6208ffecc4d7302f20bc5677d536e95b022035937ab8d893bba78559dd58b862f7272a55f44f636fb8e1162bdcb8b1cd2cf6[ALL] 0271977291b74f1f5f5c42157e8aae804664eaaeccfd097918450d37f28fb94d77"}, "vout": 0, "txid": "9e04356a9105966161d5d6993099ca892bd7dc28fbdca288a0f20bb803d61310"}], "txid": "e88951db51d644d4b28f1fa95175b60f4e1442461ee31d44ad4b36b73acf13a9", "blocktime": 1537869901, "version": 1, "confirmations": 11522, "time": 1537869901, "locktime": 0, "vsize": 404, "size": 404}