{"hash": "e88992e887ede8576e5376beab0299f7e6da4e3e6c0ac2fc64ca6d5fef05ff37", "blockhash": "0000000000000000000e13cef7c366c0283d82e591d1acd082e914b08063cdf1", "vout": [{"scriptPubKey": {"reqSigs": 1, "hex": "a91498d48594d25516c10837489c33e36e10cd3cbb5887", "addresses": ["3Fd7DyYN1RhVmfdue6iAfRw1t99BbBgCV4"], "asm": "OP_HASH160 98d48594d25516c10837489c33e36e10cd3cbb58 OP_EQUAL", "type": "scripthash"}, "value": 0.02045448, "n": 0}], "hex": "010000000336a2f321f218982305ad4a0601130b1f192477e389d3ed30e49e48a9409b3f5c000000006a473044022058a1aaf5497adf55c53540b2d858cde74500fc173259a4ca429dd425de35cecb022011a1f6c7f54a2cd786a4a0e22f3fe83322559266840cb319422b9426fae642b1012102ac0dd24806bac38c999c7bb4e57e4a6819fd823134caab51b30d6052f6f9d74dffffffffdb727e48c3c0b3dbfb769a6d5e86e84f53896cc645b600db18cae39d09580196000000006b483045022100dfb71a446ecb47418240b3fe38fc33a15080ba0cadc636dcd4aca1cf07517efc02207171a250940e9ec55fd178b94b7a6064c7ba3008f7995a9a3ffb5fe5ddf3142a01210272c22f5f51a8a2819a31c94ce55b2d12b7bde817c52e2301271eabd6b630e627ffffffffa22559ee13aeaeafa75b5341ad3774ec852fa3751a22ccc2ab96d96e40fffbed000000006b48304502210092cdbd2a41b3d0ec5d6a8f19a3aab737761ae913384c64431cccfda198fdbb2c02200b107292567731da4bf76d49667cd8af24d313392c0436ee1156a33c0f2538fa0121020d9083433cf91107f467a2dc7b9c34330f705c3c95c8e840cef6e4eed2019b44ffffffff0108361f000000000017a91498d48594d25516c10837489c33e36e10cd3cbb588700000000", "vin": [{"sequence": 4294967295, "scriptSig": {"hex": "473044022058a1aaf5497adf55c53540b2d858cde74500fc173259a4ca429dd425de35cecb022011a1f6c7f54a2cd786a4a0e22f3fe83322559266840cb319422b9426fae642b1012102ac0dd24806bac38c999c7bb4e57e4a6819fd823134caab51b30d6052f6f9d74d", "asm": "3044022058a1aaf5497adf55c53540b2d858cde74500fc173259a4ca429dd425de35cecb022011a1f6c7f54a2cd786a4a0e22f3fe83322559266840cb319422b9426fae642b1[ALL] 02ac0dd24806bac38c999c7bb4e57e4a6819fd823134caab51b30d6052f6f9d74d"}, "vout": 0, "txid": "5c3f9b40a9489ee430edd389e37724191f0b1301064aad05239818f221f3a236"}, {"sequence": 4294967295, "scriptSig": {"hex": "483045022100dfb71a446ecb47418240b3fe38fc33a15080ba0cadc636dcd4aca1cf07517efc02207171a250940e9ec55fd178b94b7a6064c7ba3008f7995a9a3ffb5fe5ddf3142a01210272c22f5f51a8a2819a31c94ce55b2d12b7bde817c52e2301271eabd6b630e627", "asm": "3045022100dfb71a446ecb47418240b3fe38fc33a15080ba0cadc636dcd4aca1cf07517efc02207171a250940e9ec55fd178b94b7a6064c7ba3008f7995a9a3ffb5fe5ddf3142a[ALL] 0272c22f5f51a8a2819a31c94ce55b2d12b7bde817c52e2301271eabd6b630e627"}, "vout": 0, "txid": "960158099de3ca18db00b645c66c89534fe8865e6d9a76fbdbb3c0c3487e72db"}, {"sequence": 4294967295, "scriptSig": {"hex": "48304502210092cdbd2a41b3d0ec5d6a8f19a3aab737761ae913384c64431cccfda198fdbb2c02200b107292567731da4bf76d49667cd8af24d313392c0436ee1156a33c0f2538fa0121020d9083433cf91107f467a2dc7b9c34330f705c3c95c8e840cef6e4eed2019b44", "asm": "304502210092cdbd2a41b3d0ec5d6a8f19a3aab737761ae913384c64431cccfda198fdbb2c02200b107292567731da4bf76d49667cd8af24d313392c0436ee1156a33c0f2538fa[ALL] 020d9083433cf91107f467a2dc7b9c34330f705c3c95c8e840cef6e4eed2019b44"}, "vout": 0, "txid": "edfbff406ed996abc2cc221a75a32f85ec7437ad41535ba7afaeae13ee5925a2"}], "txid": "e88992e887ede8576e5376beab0299f7e6da4e3e6c0ac2fc64ca6d5fef05ff37", "blocktime": 1537871767, "version": 1, "confirmations": 11493, "time": 1537871767, "locktime": 0, "vsize": 485, "size": 485}