{"hash": "90b56200daa30417bbd931cac341bb9aa99a670b30fc2fa8e9143bdf952edbd6", "blockhash": "00000000000000000024a2167bbff67b0be802c0b01cdd79e6331c2be6459f87", "vout": [{"scriptPubKey": {"reqSigs": 1, "hex": "76a914a3cdd76b4b8c019f3aa00587931f2c28c7a0894d88ac", "addresses": ["1Fw7jPLmfWPRbyQ69isveRELoPjVFG7reD"], "asm": "OP_DUP OP_HASH160 a3cdd76b4b8c019f3aa00587931f2c28c7a0894d OP_EQUALVERIFY OP_CHECKSIG", "type": "pubkeyhash"}, "value": 0.023, "n": 0}, {"scriptPubKey": {"reqSigs": 1, "hex": "0014877ebd9db55a099539507267f402d1e3b0a725d9", "addresses": ["bc1qsaltm8d4tgye2w2swfnlgqk3uwc2wfwermd209"], "asm": "0 877ebd9db55a099539507267f402d1e3b0a725d9", "type": "witness_v0_keyhash"}, "value": 0.00393564, "n": 1}], "hex": "01000000000101f28ca73cc58921bec8b6ba0af9724993adb25dd04a5071b8514a78d66a74d5840000000000ffffffff0260182300000000001976a914a3cdd76b4b8c019f3aa00587931f2c28c7a0894d88ac5c01060000000000160014877ebd9db55a099539507267f402d1e3b0a725d9024730440220675a9e5cf009f4632a1298af4b781a70998b216fd4828718c0c2f748838da091022053aac27fbdaec0a430ff9bb828605019319a45f433f92aaf9875bfdd2848cf7d012102350db7df0401fe5fe53485cb69d5bf1ab7e52954e9df0c97a3d78f3ca1b35aa600000000", "vin": [{"txinwitness": ["30440220675a9e5cf009f4632a1298af4b781a70998b216fd4828718c0c2f748838da091022053aac27fbdaec0a430ff9bb828605019319a45f433f92aaf9875bfdd2848cf7d01", "02350db7df0401fe5fe53485cb69d5bf1ab7e52954e9df0c97a3d78f3ca1b35aa6"], "sequence": 4294967295, "scriptSig": {"hex": "", "asm": ""}, "vout": 0, "txid": "84d5746ad6784a51b871504ad05db2ad934972f90abab6c8be2189c53ca78cf2"}], "txid": "e8893734e1c5c4ece4f48bfe566a765aeb065287956b7c8bf678c3d43630862d", "blocktime": 1537870564, "version": 1, "confirmations": 11515, "time": 1537870564, "locktime": 0, "vsize": 144, "size": 225}