{"hash": "e88badf65ee37cc2665c67ffe2c6e06f1cc0708edc51c4ca50a1bb4b3f632a4a", "blockhash": "0000000000000000001f76057863aec43deb6fa401d9628bb513d65a8098bfab", "vout": [{"scriptPubKey": {"reqSigs": 1, "hex": "76a914b8815e723d9f7a60c28725774fa2b4ecac1e9f4088ac", "addresses": ["1HpaK1Sr5sMVbxJvEyeHyNxHWkGyKPnSgH"], "asm": "OP_DUP OP_HASH160 b8815e723d9f7a60c28725774fa2b4ecac1e9f40 OP_EQUALVERIFY OP_CHECKSIG", "type": "pubkeyhash"}, "value": 0.04683985, "n": 0}, {"scriptPubKey": {"reqSigs": 1, "hex": "76a914d361da5ebcd9a72648ba3e81cdf643a497b3102e88ac", "addresses": ["1LGgoRVzyPDDdb9wfXKBzNhD11Rih1efmq"], "asm": "OP_DUP OP_HASH160 d361da5ebcd9a72648ba3e81cdf643a497b3102e OP_EQUALVERIFY OP_CHECKSIG", "type": "pubkeyhash"}, "value": 0.10431673, "n": 1}], "hex": "0200000001c56b8713954821556847e92905437a71f771280925ab07b19b856dc05e331cdf000000006a473044022002f1f3d9db123c477cb364117bb61e4f6137cd6b4eeb41199d2887a445f3d95902205344090a714f098bca664516c3372a5c4952ad8c1e91b53f88f8c0b1b7445a2d012102177e38c013af05dce497c5ceb331b2a4904ef949163f9c13e28a97b63e9a34a5feffffff02d1784700000000001976a914b8815e723d9f7a60c28725774fa2b4ecac1e9f4088acb92c9f00000000001976a914d361da5ebcd9a72648ba3e81cdf643a497b3102e88ac13490800", "vin": [{"sequence": 4294967294, "scriptSig": {"hex": "473044022002f1f3d9db123c477cb364117bb61e4f6137cd6b4eeb41199d2887a445f3d95902205344090a714f098bca664516c3372a5c4952ad8c1e91b53f88f8c0b1b7445a2d012102177e38c013af05dce497c5ceb331b2a4904ef949163f9c13e28a97b63e9a34a5", "asm": "3044022002f1f3d9db123c477cb364117bb61e4f6137cd6b4eeb41199d2887a445f3d95902205344090a714f098bca664516c3372a5c4952ad8c1e91b53f88f8c0b1b7445a2d[ALL] 02177e38c013af05dce497c5ceb331b2a4904ef949163f9c13e28a97b63e9a34a5"}, "vout": 0, "txid": "df1c335ec06d859bb107ab25092871f7717a430529e947685521489513876bc5"}], "txid": "e88badf65ee37cc2665c67ffe2c6e06f1cc0708edc51c4ca50a1bb4b3f632a4a", "blocktime": 1537873891, "version": 2, "confirmations": 11478, "time": 1537873891, "locktime": 542995, "vsize": 225, "size": 225}