{"hash": "e88d98ffe2cd498da9553408cfaaf39c502ddc1b82a62db6d72c88e2819cb2d3", "blockhash": "00000000000000000018f53835495a110e01622372bf6ae95dc86f2b0ab887b0", "vout": [{"scriptPubKey": {"reqSigs": 1, "hex": "a91470df400002d7ce0f021bb93a80888c829ef9977487", "addresses": ["3Byq3iB5q99TGpNNzYKfEFHVEqDM9akGMF"], "asm": "OP_HASH160 70df400002d7ce0f021bb93a80888c829ef99774 OP_EQUAL", "type": "scripthash"}, "value": 0.00063992, "n": 0}], "hex": "0100000001eb07b7fa99346e3144d5c3b0acac1a68889d1fd75c49e3ef6d46cf1325181ecc010000006b4830450221008fc6d48533952f79686615d7a8f1358e40464eef01f020ffa3e86aafea226c05022070b1d778b05089182679e44ac975915d9f9531e2ccdb60160d841883002b29e30121032725397aef20b294572abd5700e1b0972cfedf05571431d434f3cd07a8eac5e9ffffffff01f8f900000000000017a91470df400002d7ce0f021bb93a80888c829ef997748700000000", "vin": [{"sequence": 4294967295, "scriptSig": {"hex": "4830450221008fc6d48533952f79686615d7a8f1358e40464eef01f020ffa3e86aafea226c05022070b1d778b05089182679e44ac975915d9f9531e2ccdb60160d841883002b29e30121032725397aef20b294572abd5700e1b0972cfedf05571431d434f3cd07a8eac5e9", "asm": "30450221008fc6d48533952f79686615d7a8f1358e40464eef01f020ffa3e86aafea226c05022070b1d778b05089182679e44ac975915d9f9531e2ccdb60160d841883002b29e3[ALL] 032725397aef20b294572abd5700e1b0972cfedf05571431d434f3cd07a8eac5e9"}, "vout": 1, "txid": "cc1e182513cf466defe3495cd71f9d88681aacacb0c3d544316e3499fab707eb"}], "txid": "e88d98ffe2cd498da9553408cfaaf39c502ddc1b82a62db6d72c88e2819cb2d3", "blocktime": 1537870928, "version": 1, "confirmations": 11512, "time": 1537870928, "locktime": 0, "vsize": 190, "size": 190}