{"hash": "e893e865d8b4321b10359305e5020dbab14c46dbfe243162a29f50f198f01282", "blockhash": "00000000000000000004ffacab907a6b429b9a5745fa0b75af4234bf69dd7176", "vout": [{"scriptPubKey": {"reqSigs": 1, "hex": "76a9145d01ae0eb2e399d56b4d64d49b752fc5d3cba4ce88ac", "addresses": ["19UmrZdQWXYDwfYweX2noVfFML9U6YnyNY"], "asm": "OP_DUP OP_HASH160 5d01ae0eb2e399d56b4d64d49b752fc5d3cba4ce OP_EQUALVERIFY OP_CHECKSIG", "type": "pubkeyhash"}, "value": 0.109502, "n": 0}, {"scriptPubKey": {"reqSigs": 1, "hex": "76a914a9e2cab2ec95289715dd6c474ba7d6e9e2cc20e188ac", "addresses": ["1GVGtByxzTXgyxPt2PQvDgUwb6qTs6rcMi"], "asm": "OP_DUP OP_HASH160 a9e2cab2ec95289715dd6c474ba7d6e9e2cc20e1 OP_EQUALVERIFY OP_CHECKSIG", "type": "pubkeyhash"}, "value": 0.9829421, "n": 1}], "hex": "02000000016f8cde5e168b0c1137b068867a623dde0e28c9db6283ec43f0558199002249fd000000006a473044022077fb8430e2656faaa88b4cb85305d12d667a793b56c480dd4e93765feb568b7902201f93ab68d944fdb5e13752ff71100bc5ba5680d04ac4be2ad3176941e7eb777c012103e72afef5ae842d270a3b72880fe82d977c75bee3fdcefeaa4e11f3d81f1f9ac6feffffff023816a700000000001976a9145d01ae0eb2e399d56b4d64d49b752fc5d3cba4ce88acc2d9db05000000001976a914a9e2cab2ec95289715dd6c474ba7d6e9e2cc20e188ac16490800", "vin": [{"sequence": 4294967294, "scriptSig": {"hex": "473044022077fb8430e2656faaa88b4cb85305d12d667a793b56c480dd4e93765feb568b7902201f93ab68d944fdb5e13752ff71100bc5ba5680d04ac4be2ad3176941e7eb777c012103e72afef5ae842d270a3b72880fe82d977c75bee3fdcefeaa4e11f3d81f1f9ac6", "asm": "3044022077fb8430e2656faaa88b4cb85305d12d667a793b56c480dd4e93765feb568b7902201f93ab68d944fdb5e13752ff71100bc5ba5680d04ac4be2ad3176941e7eb777c[ALL] 03e72afef5ae842d270a3b72880fe82d977c75bee3fdcefeaa4e11f3d81f1f9ac6"}, "vout": 0, "txid": "fd492200998155f043ec8362dbc9280ede3d627a8668b037110c8b165ede8c6f"}], "txid": "e893e865d8b4321b10359305e5020dbab14c46dbfe243162a29f50f198f01282", "blocktime": 1537875543, "version": 2, "confirmations": 11464, "time": 1537875543, "locktime": 542998, "vsize": 225, "size": 225}