{"hash": "8235cf7910495239bc83b18b90263b847c5d729de79ec4ae461755e0786482fb", "blockhash": "000000000000000000022b45ed06c6f4ccd3cf7fb5ba4856ebd2e58215665228", "vout": [{"scriptPubKey": {"reqSigs": 1, "hex": "a91423abc3e8759057331039dff704da8cfb411bc27987", "addresses": ["34wdLiadieqjyVRkQQtwHvnYVNCpQ5ajk5"], "asm": "OP_HASH160 23abc3e8759057331039dff704da8cfb411bc279 OP_EQUAL", "type": "scripthash"}, "value": 0.0322354, "n": 0}, {"scriptPubKey": {"reqSigs": 1, "hex": "a914807cf2a99f3fa045edc58ce88a2aaaad636eb18c87", "addresses": ["3DQQ6dWsqBhnFCkhM137f6nMGQydXENzWY"], "asm": "OP_HASH160 807cf2a99f3fa045edc58ce88a2aaaad636eb18c OP_EQUAL", "type": "scripthash"}, "value": 0.00999955, "n": 1}], "hex": "02000000000101c9c1a0250612c152cc93188ebf896424ec469aca18f470e4ab82b2a18fe62a0f0100000017160014ec878dc7b5fc0b67a0f9022a48877a3d36bb2b0afeffffff02f42f31000000000017a91423abc3e8759057331039dff704da8cfb411bc2798713420f000000000017a914807cf2a99f3fa045edc58ce88a2aaaad636eb18c8702483045022100c20a96a0d71b70699be8858fa8794c60acc61efbd59e596031a30f54cf85813002202a9b37067ef9d247ff5d5297f2fc3a8aacf728edc9a886f3b7ee51940f9b3fce0121027f2be055c38e45bf3350dec5117c543910174abd191318f29edeca261d5d35480b490800", "vin": [{"txinwitness": ["3045022100c20a96a0d71b70699be8858fa8794c60acc61efbd59e596031a30f54cf85813002202a9b37067ef9d247ff5d5297f2fc3a8aacf728edc9a886f3b7ee51940f9b3fce01", "027f2be055c38e45bf3350dec5117c543910174abd191318f29edeca261d5d3548"], "sequence": 4294967294, "scriptSig": {"hex": "160014ec878dc7b5fc0b67a0f9022a48877a3d36bb2b0a", "asm": "0014ec878dc7b5fc0b67a0f9022a48877a3d36bb2b0a"}, "vout": 1, "txid": "0f2ae68fa1b282abe470f418ca9a46ec246489bf8e1893cc52c1120625a0c1c9"}], "txid": "e894669dddb5ec1376c1e4fbe75ac545f911c2edd62d1baa4dcc88a988dc9eff", "blocktime": 1537869901, "version": 2, "confirmations": 11522, "time": 1537869901, "locktime": 542987, "vsize": 166, "size": 248}