{"hash": "e896f4fbf1d0530d576e67a829960eb2acec8ebaf7880e8dd0c37d8df1600d8a", "blockhash": "00000000000000000004ffacab907a6b429b9a5745fa0b75af4234bf69dd7176", "vout": [{"scriptPubKey": {"reqSigs": 1, "hex": "a914bfd95538f1f3391ce03dd15b9c4b31ff24f1d73f87", "addresses": ["3KBRLjkstZbqkV1iUrDfcrHBY46GjuAzgJ"], "asm": "OP_HASH160 bfd95538f1f3391ce03dd15b9c4b31ff24f1d73f OP_EQUAL", "type": "scripthash"}, "value": 0.079, "n": 0}], "hex": "010000000113d0b75b7a52fd514cbfc20941d50c544478789733a20b3d4a787ff1eafac712110000006b483045022100a2668cea8d817b6a5a4027d73d75adc45e3a4466479e8e59f07343cf0268390d0220603a8a43a31448ff6fafd135d28fa2132aced16013c65446d7f4187b726604390121037416bded32393c2178abc57ed1eee1cb2113d028b6f29c330ac5f9d0610390f2ffffffff01608b78000000000017a914bfd95538f1f3391ce03dd15b9c4b31ff24f1d73f8700000000", "vin": [{"sequence": 4294967295, "scriptSig": {"hex": "483045022100a2668cea8d817b6a5a4027d73d75adc45e3a4466479e8e59f07343cf0268390d0220603a8a43a31448ff6fafd135d28fa2132aced16013c65446d7f4187b726604390121037416bded32393c2178abc57ed1eee1cb2113d028b6f29c330ac5f9d0610390f2", "asm": "3045022100a2668cea8d817b6a5a4027d73d75adc45e3a4466479e8e59f07343cf0268390d0220603a8a43a31448ff6fafd135d28fa2132aced16013c65446d7f4187b72660439[ALL] 037416bded32393c2178abc57ed1eee1cb2113d028b6f29c330ac5f9d0610390f2"}, "vout": 17, "txid": "12c7faeaf17f784a3d0ba23397787844540cd54109c2bf4c51fd527a5bb7d013"}], "txid": "e896f4fbf1d0530d576e67a829960eb2acec8ebaf7880e8dd0c37d8df1600d8a", "blocktime": 1537875543, "version": 1, "confirmations": 11464, "time": 1537875543, "locktime": 0, "vsize": 190, "size": 190}