{"hash": "6ff991f3df356fede77ce2cdb0810b88634a88add8a912ed1b0cc71e6b3739ee", "blockhash": "0000000000000000001f76057863aec43deb6fa401d9628bb513d65a8098bfab", "vout": [{"scriptPubKey": {"reqSigs": 1, "hex": "a914e9ae5ee8678e590b0e48b915a8e18216507e58e587", "addresses": ["3NzcFjN5CPoG2TRqGKBUH6LPpcwN7DaWB5"], "asm": "OP_HASH160 e9ae5ee8678e590b0e48b915a8e18216507e58e5 OP_EQUAL", "type": "scripthash"}, "value": 0.01041703, "n": 0}, {"scriptPubKey": {"reqSigs": 1, "hex": "a91454f28258c830c051fb078d3cc857a1318b959eee87", "addresses": ["39SBCVN65opX1XNo6j4x65GThft2vEhPou"], "asm": "OP_HASH160 54f28258c830c051fb078d3cc857a1318b959eee OP_EQUAL", "type": "scripthash"}, "value": 0.2387404, "n": 1}], "hex": "01000000000101192d1df1f815313ea576c9a4f37da6c8f4074204f2ec8463512881d3d46a4eec010000001716001419d14a2ceda82a4a6f7e1ce96f37f42ae242952cffffffff0227e50f000000000017a914e9ae5ee8678e590b0e48b915a8e18216507e58e587f8496c010000000017a91454f28258c830c051fb078d3cc857a1318b959eee8702473044022006dfa65151ff46e1b4d93f4dd753667ab779521f1490fd751893529f7c6a0a34022017a17ee4db8090cab20a82e15b22ed57a85b29f1142771ace51eb2442991f423012102b1941dffc9928e9c448e395d0a19dcad308d0cf296181b05187167b74f0066f000000000", "vin": [{"txinwitness": ["3044022006dfa65151ff46e1b4d93f4dd753667ab779521f1490fd751893529f7c6a0a34022017a17ee4db8090cab20a82e15b22ed57a85b29f1142771ace51eb2442991f42301", "02b1941dffc9928e9c448e395d0a19dcad308d0cf296181b05187167b74f0066f0"], "sequence": 4294967295, "scriptSig": {"hex": "16001419d14a2ceda82a4a6f7e1ce96f37f42ae242952c", "asm": "001419d14a2ceda82a4a6f7e1ce96f37f42ae242952c"}, "vout": 1, "txid": "ec4e6ad4d38128516384ecf2044207f4c8a67df3a4c976a53e3115f8f11d2d19"}], "txid": "e898b9c823ee9fdaa5bcec958df2f72e5af82a6f0ee153218f2a66d790a565ab", "blocktime": 1537873891, "version": 1, "confirmations": 11478, "time": 1537873891, "locktime": 0, "vsize": 166, "size": 247}