{"hash": "e20ff18db0f4add39b3f26ab660413af901649378652041862f1e51097b0069b", "blockhash": "0000000000000000001f76057863aec43deb6fa401d9628bb513d65a8098bfab", "vout": [{"scriptPubKey": {"reqSigs": 1, "hex": "a9140462a4ab862e4a2b4e17168a6ef63564c06cc72687", "addresses": ["326CoASx7SGYTPEBHQuCQnHw4cdojRUuXj"], "asm": "OP_HASH160 0462a4ab862e4a2b4e17168a6ef63564c06cc726 OP_EQUAL", "type": "scripthash"}, "value": 0.0498992, "n": 0}, {"scriptPubKey": {"reqSigs": 1, "hex": "76a914e688a53bcb7a42e33a48a5bbd99180df67771fdc88ac", "addresses": ["1N1x7QwtM91srRhBaoyD3pS9Sq7usEgh8L"], "asm": "OP_DUP OP_HASH160 e688a53bcb7a42e33a48a5bbd99180df67771fdc OP_EQUALVERIFY OP_CHECKSIG", "type": "pubkeyhash"}, "value": 0.3, "n": 1}], "hex": "020000000001011977a03430dfcc2aeac3d752c5383f4ceac924911f0dff5f099c201f60b0b11404000000171600142418951282237105de7cccbd50d1a006cd9df852fdffffff02e0234c000000000017a9140462a4ab862e4a2b4e17168a6ef63564c06cc7268780c3c901000000001976a914e688a53bcb7a42e33a48a5bbd99180df67771fdc88ac02473044022065f966745331ea932548c5a75897f464dfa058227305c2450292e8da519359d9022012a95c1d453acc1c491b44143f2df20a5257eb331b7c395b7f7f2759872fabb9012102bd5d2f12b6dd58150dd79b32cd0638022ace21ad9fba6a276ce3f9e1e7103ceb14490800", "vin": [{"txinwitness": ["3044022065f966745331ea932548c5a75897f464dfa058227305c2450292e8da519359d9022012a95c1d453acc1c491b44143f2df20a5257eb331b7c395b7f7f2759872fabb901", "02bd5d2f12b6dd58150dd79b32cd0638022ace21ad9fba6a276ce3f9e1e7103ceb"], "sequence": 4294967293, "scriptSig": {"hex": "1600142418951282237105de7cccbd50d1a006cd9df852", "asm": "00142418951282237105de7cccbd50d1a006cd9df852"}, "vout": 4, "txid": "14b1b0601f209c095fff0d1f9124c9ea4c3f38c552d7c3ea2accdf3034a07719"}], "txid": "e899fae6cdf605fbb98611e48658e5b4aa2c682f3f260398e6aacf3ba60a19d7", "blocktime": 1537873891, "version": 2, "confirmations": 11474, "time": 1537873891, "locktime": 542996, "vsize": 168, "size": 249}