{"hash": "5b8fb593677ffcd66dcbce42a77b7c17892e4e753eabfcd10cf74a98c6452303", "blockhash": "0000000000000000001cda96e906b7601b7a6fb1a3b62bca570a9e5d8f4b3de1", "vout": [{"scriptPubKey": {"reqSigs": 1, "hex": "76a91499bfa0bc37d94f726eadd6d0638309fb0ac7f30e88ac", "addresses": ["1F1wwtWJAKrekQ3GqwgvNsbd67Gzi4XoVg"], "asm": "OP_DUP OP_HASH160 99bfa0bc37d94f726eadd6d0638309fb0ac7f30e OP_EQUALVERIFY OP_CHECKSIG", "type": "pubkeyhash"}, "value": 0.0017292, "n": 0}, {"scriptPubKey": {"reqSigs": 1, "hex": "a914b9d6b6c68ebf2017cd95c4d3f33a5529a572b39387", "addresses": ["3Jde9cwAZjhqYvrCFKiVUJzJ2dtHb5V4TM"], "asm": "OP_HASH160 b9d6b6c68ebf2017cd95c4d3f33a5529a572b393 OP_EQUAL", "type": "scripthash"}, "value": 0.010305, "n": 1}], "hex": "02000000000102e3ea604a1b5fd66952e5a8be4806b06991435cb120cdc52cbdea01a3991d55aa01000000171600148ab1d54f1ececcf7a69d4379c9fcd1dd0d9888e1fefffffffd8698d0260801289ea1fbdb12418fefcc6beb864281932c026892cc3098d21a070000001716001442cff939ce302eac2c69b4746aef87171845eafafeffffff0278a30200000000001976a91499bfa0bc37d94f726eadd6d0638309fb0ac7f30e88ac64b90f000000000017a914b9d6b6c68ebf2017cd95c4d3f33a5529a572b3938702483045022100b7744ca03a667a43589397f1f6474d3fa20ad80851ce94c09678272e0a0e9fe602201521c6b9694fcd86ccf970c430bb534121f6a0344ccec175fa4a323ad1874b55012103b71a1b10d6b923a4b7ea3054b92caf446cd3eccfe12fc681d75af357268a7e610247304402200ad63da60203c0b9282e33ae813da3d59331832ca80d9b4c0d5c725136be9576022052de15129fbfbda1eba685b321d9ce714bafb16e14adce95e371f977ecaf7e6701210370d283820a3ec950ab1b350457e53d20bfee8a91ba5275a2fcec43d7e2a641d013490800", "vin": [{"txinwitness": ["3045022100b7744ca03a667a43589397f1f6474d3fa20ad80851ce94c09678272e0a0e9fe602201521c6b9694fcd86ccf970c430bb534121f6a0344ccec175fa4a323ad1874b5501", "03b71a1b10d6b923a4b7ea3054b92caf446cd3eccfe12fc681d75af357268a7e61"], "sequence": 4294967294, "scriptSig": {"hex": "1600148ab1d54f1ececcf7a69d4379c9fcd1dd0d9888e1", "asm": "00148ab1d54f1ececcf7a69d4379c9fcd1dd0d9888e1"}, "vout": 1, "txid": "aa551d99a301eabd2cc5cd20b15c439169b00648bea8e55269d65f1b4a60eae3"}, {"txinwitness": ["304402200ad63da60203c0b9282e33ae813da3d59331832ca80d9b4c0d5c725136be9576022052de15129fbfbda1eba685b321d9ce714bafb16e14adce95e371f977ecaf7e6701", "0370d283820a3ec950ab1b350457e53d20bfee8a91ba5275a2fcec43d7e2a641d0"], "sequence": 4294967294, "scriptSig": {"hex": "16001442cff939ce302eac2c69b4746aef87171845eafa", "asm": "001442cff939ce302eac2c69b4746aef87171845eafa"}, "vout": 7, "txid": "1ad29830cc9268022c93814286eb6bccef8f4112dbfba19e28010826d09886fd"}], "txid": "e89ba5d851c1ddff7fc39e12886f64b4f6062fdca8901dd5d2a128f37c414840", "blocktime": 1537873282, "version": 2, "confirmations": 11485, "time": 1537873282, "locktime": 542995, "vsize": 259, "size": 421}