{"hash": "e8adbf7220693df0218cae692faf2c8e90d9161e007cb1e8ef6fc176c1869192", "blockhash": "0000000000000000001f76057863aec43deb6fa401d9628bb513d65a8098bfab", "vout": [{"scriptPubKey": {"reqSigs": 1, "hex": "76a9144eb66ea7014769debbe4676f1d79113bee5f8ea688ac", "addresses": ["18BCFaT8kaXagH4AQP6MueWMcamsbZFYgk"], "asm": "OP_DUP OP_HASH160 4eb66ea7014769debbe4676f1d79113bee5f8ea6 OP_EQUALVERIFY OP_CHECKSIG", "type": "pubkeyhash"}, "value": 5.283e-05, "n": 0}, {"scriptPubKey": {"reqSigs": 1, "hex": "a9146039bf912aba578c02e8977b4941e89ad4479e7f87", "addresses": ["3AToyP8McA9fZB4UHQ1XtitM4LWKrgXTSW"], "asm": "OP_HASH160 6039bf912aba578c02e8977b4941e89ad4479e7f OP_EQUAL", "type": "scripthash"}, "value": 0.016, "n": 1}], "hex": "010000000169f3cdf1c58ce010d767013aecdfd7bed2e080fe72269e6fc787c48a496024fc000000006b483045022100e24662d1fe2080222b909c1c85fa8e15f1083b072b71b55983bd674e8652468b02207da35d623ba831bc28423aa6d2d7a8e2182f7aaa5ca15d21d8f425960e1e6b6f0121031e9bf1d02715c96c8df060c931ad981fe3042d0f1dc8c5b89bdaab828af361d8fdffffff02a3140000000000001976a9144eb66ea7014769debbe4676f1d79113bee5f8ea688ac006a18000000000017a9146039bf912aba578c02e8977b4941e89ad4479e7f8714490800", "vin": [{"sequence": 4294967293, "scriptSig": {"hex": "483045022100e24662d1fe2080222b909c1c85fa8e15f1083b072b71b55983bd674e8652468b02207da35d623ba831bc28423aa6d2d7a8e2182f7aaa5ca15d21d8f425960e1e6b6f0121031e9bf1d02715c96c8df060c931ad981fe3042d0f1dc8c5b89bdaab828af361d8", "asm": "3045022100e24662d1fe2080222b909c1c85fa8e15f1083b072b71b55983bd674e8652468b02207da35d623ba831bc28423aa6d2d7a8e2182f7aaa5ca15d21d8f425960e1e6b6f[ALL] 031e9bf1d02715c96c8df060c931ad981fe3042d0f1dc8c5b89bdaab828af361d8"}, "vout": 0, "txid": "fc2460498ac487c76f9e2672fe80e0d2bed7dfec3a0167d710e08cc5f1cdf369"}], "txid": "e8adbf7220693df0218cae692faf2c8e90d9161e007cb1e8ef6fc176c1869192", "blocktime": 1537873891, "version": 1, "confirmations": 11478, "time": 1537873891, "locktime": 542996, "vsize": 224, "size": 224}