{"hash": "7af53953d1c1b75f3f6bfde05919c429711ac7a9ae93850546dc74287c53dd74", "blockhash": "00000000000000000004ffacab907a6b429b9a5745fa0b75af4234bf69dd7176", "vout": [{"scriptPubKey": {"reqSigs": 1, "hex": "76a914ef604e885c42a70ea510443718a4ec9c0ebb858588ac", "addresses": ["1NphsMpnwjLSPuXeot75JBbreDunAWgwzd"], "asm": "OP_DUP OP_HASH160 ef604e885c42a70ea510443718a4ec9c0ebb8585 OP_EQUALVERIFY OP_CHECKSIG", "type": "pubkeyhash"}, "value": 0.0013378, "n": 0}, {"scriptPubKey": {"reqSigs": 1, "hex": "a914ed157c6e21461e33983017341fbc18dcd88f215a87", "addresses": ["3PJbotGwzNQuPUi6hVEWfHZwPeJfVUzVqt"], "asm": "OP_HASH160 ed157c6e21461e33983017341fbc18dcd88f215a OP_EQUAL", "type": "scripthash"}, "value": 0.01003105, "n": 1}], "hex": "020000000001026ccac8e31845fe434fe27f7c2527a334855a894d92fdb34ce5ed189e4480344300000000171600142a240f0e956123b06e6e8b7aa1280379897e8888feffffffe54fb3425fde7075c0a6e627a06a4c801c81562c08aa35e6657916838d0c62b20e00000017160014d76d359c05958fac26ddb1a5070b1cf41b632c4afeffffff02940a0200000000001976a914ef604e885c42a70ea510443718a4ec9c0ebb858588ac614e0f000000000017a914ed157c6e21461e33983017341fbc18dcd88f215a870248304502210099fccb88e185423595d3d7e3c7f0074cfd9edead2ecfa151dba300fe6dcfb2e70220207a5f7e2b320cf25125224a4736b8bc6a071fae25eeee71c64ec51a5f72436f0121030eea5e60914d5e25d1e9129dc2102811a383cffe30dbee244f44658ba65f3c2602473044022034103a60446db4aaf5206dc76bf878cc40018f5a264703057d5ff3c31bbd8a3c0220746722c0f3e74497677dd69388926954f276809fb7aa3517020421f0f888d653012103972eff97fbad240aece64e7b55d544701bbd752122234c3b87c4b834a44d9b3215490800", "vin": [{"txinwitness": ["304502210099fccb88e185423595d3d7e3c7f0074cfd9edead2ecfa151dba300fe6dcfb2e70220207a5f7e2b320cf25125224a4736b8bc6a071fae25eeee71c64ec51a5f72436f01", "030eea5e60914d5e25d1e9129dc2102811a383cffe30dbee244f44658ba65f3c26"], "sequence": 4294967294, "scriptSig": {"hex": "1600142a240f0e956123b06e6e8b7aa1280379897e8888", "asm": "00142a240f0e956123b06e6e8b7aa1280379897e8888"}, "vout": 0, "txid": "433480449e18ede54cb3fd924d895a8534a327257c7fe24f43fe4518e3c8ca6c"}, {"txinwitness": ["3044022034103a60446db4aaf5206dc76bf878cc40018f5a264703057d5ff3c31bbd8a3c0220746722c0f3e74497677dd69388926954f276809fb7aa3517020421f0f888d65301", "03972eff97fbad240aece64e7b55d544701bbd752122234c3b87c4b834a44d9b32"], "sequence": 4294967294, "scriptSig": {"hex": "160014d76d359c05958fac26ddb1a5070b1cf41b632c4a", "asm": "0014d76d359c05958fac26ddb1a5070b1cf41b632c4a"}, "vout": 14, "txid": "b2620c8d83167965e635aa082c56811c804c6aa027e6a6c07570de5f42b34fe5"}], "txid": "e8adae16415fc54200ddb35914a3daca186f6a3ac0cccd2d50cf96762b342663", "blocktime": 1537875543, "version": 2, "confirmations": 11464, "time": 1537875543, "locktime": 542997, "vsize": 259, "size": 421}