{"hash": "e8ae7b393e5f98e1c3082004d8395726c241116bca223f4aad3931d1e570e04c", "blockhash": "00000000000000000017f5eb5941039fbcee6240d03bc1f2f8e35350df66a1d8", "vout": [{"scriptPubKey": {"reqSigs": 1, "hex": "76a91457b034cf0f56e36630733a51303e1965f9742f7388ac", "addresses": ["18zesiZQ3FxW5dxVV4UPNNRLxD1VEAo236"], "asm": "OP_DUP OP_HASH160 57b034cf0f56e36630733a51303e1965f9742f73 OP_EQUALVERIFY OP_CHECKSIG", "type": "pubkeyhash"}, "value": 0.00011605, "n": 0}, {"scriptPubKey": {"reqSigs": 1, "hex": "a914c23a08c2f8109615ce57707fbc5849bb7cf59a5b87", "addresses": ["3KPzY3i3A2kt6qoee6Vbbxrn3NhhD14X5u"], "asm": "OP_HASH160 c23a08c2f8109615ce57707fbc5849bb7cf59a5b OP_EQUAL", "type": "scripthash"}, "value": 0.00073528, "n": 1}], "hex": "01000000017e456c29bf690328714cbe4a52893cc292f37245da625875b83b408b25905e8c000000006a473044022038f080e79218d2fc6ac5a68c879aa76fe4e6869e6d76d21faef376039d65b6f802204d3f2523a36305e726ef06893fdcddea660cf4a8b48ec5dae2701b50bf40b322012102a58668e21cee3e8fcddc7da9bda5aaaa3af05542233bf9e7b15e2e114ac5f235ffffffff02552d0000000000001976a91457b034cf0f56e36630733a51303e1965f9742f7388ac381f01000000000017a914c23a08c2f8109615ce57707fbc5849bb7cf59a5b8700000000", "vin": [{"sequence": 4294967295, "scriptSig": {"hex": "473044022038f080e79218d2fc6ac5a68c879aa76fe4e6869e6d76d21faef376039d65b6f802204d3f2523a36305e726ef06893fdcddea660cf4a8b48ec5dae2701b50bf40b322012102a58668e21cee3e8fcddc7da9bda5aaaa3af05542233bf9e7b15e2e114ac5f235", "asm": "3044022038f080e79218d2fc6ac5a68c879aa76fe4e6869e6d76d21faef376039d65b6f802204d3f2523a36305e726ef06893fdcddea660cf4a8b48ec5dae2701b50bf40b322[ALL] 02a58668e21cee3e8fcddc7da9bda5aaaa3af05542233bf9e7b15e2e114ac5f235"}, "vout": 0, "txid": "8c5e90258b403bb8755862da4572f392c23c89524abe4c71280369bf296c457e"}], "txid": "e8ae7b393e5f98e1c3082004d8395726c241116bca223f4aad3931d1e570e04c", "blocktime": 1537874412, "version": 1, "confirmations": 11467, "time": 1537874412, "locktime": 0, "vsize": 223, "size": 223}