{"hash": "a4878c66fc336a7997be1cf4206ece258b94f0f42aa6d07be8367a0ce32b9c3a", "blockhash": "00000000000000000024a2167bbff67b0be802c0b01cdd79e6331c2be6459f87", "vout": [{"scriptPubKey": {"reqSigs": 1, "hex": "a914a7c256dd94c46e548a44b608daa768e766c4fc8687", "addresses": ["3Gz3aWeeu36nuu4xo5T2FiHFsFPvqfqFUb"], "asm": "OP_HASH160 a7c256dd94c46e548a44b608daa768e766c4fc86 OP_EQUAL", "type": "scripthash"}, "value": 0.01008101, "n": 0}, {"scriptPubKey": {"reqSigs": 1, "hex": "a91463917f7ce12b4ca9d96ca1581fb1d33bf296b11987", "addresses": ["3AmV7uvCgNv7Acp319bVXS3HspYJ8uEa5N"], "asm": "OP_HASH160 63917f7ce12b4ca9d96ca1581fb1d33bf296b119 OP_EQUAL", "type": "scripthash"}, "value": 0.03, "n": 1}], "hex": "02000000000101ba7b8b75d53be03e054725f60f8887df1ad7c3a5315555e68d96bd43e607a6f60600000017160014912182946b90b8a86303c30b2beaf3b11cf60479feffffff02e5610f000000000017a914a7c256dd94c46e548a44b608daa768e766c4fc8687c0c62d000000000017a91463917f7ce12b4ca9d96ca1581fb1d33bf296b1198702483045022100e9db5db7bf001ecd61c6e5bc1d21337d3c93305d1f7298962d22805a24a7b1f1022029fbd62a188f329c4d978239cc914b0433cea91fca72138a46819a1e5a7339ab01210378695757becd8c94e25efd92d79a8c49a9a82474cc47c3997cf7c4a52c3f37ec0d490800", "vin": [{"txinwitness": ["3045022100e9db5db7bf001ecd61c6e5bc1d21337d3c93305d1f7298962d22805a24a7b1f1022029fbd62a188f329c4d978239cc914b0433cea91fca72138a46819a1e5a7339ab01", "0378695757becd8c94e25efd92d79a8c49a9a82474cc47c3997cf7c4a52c3f37ec"], "sequence": 4294967294, "scriptSig": {"hex": "160014912182946b90b8a86303c30b2beaf3b11cf60479", "asm": "0014912182946b90b8a86303c30b2beaf3b11cf60479"}, "vout": 6, "txid": "f6a607e643bd968de6555531a5c3d71adf87880ff62547053ee03bd5758b7bba"}], "txid": "e8b0ce90b2ebb6a22859349bb4ae87b08f7bb58d2b422b95bb4c1acafc2e26ec", "blocktime": 1537870564, "version": 2, "confirmations": 11515, "time": 1537870564, "locktime": 542989, "vsize": 166, "size": 248}