{"hash": "e8b191435a053161284aa26c7bd8099b5e61774ab4c2276cf003dfb6d79bcdb2", "blockhash": "0000000000000000000e13cef7c366c0283d82e591d1acd082e914b08063cdf1", "vout": [{"scriptPubKey": {"type": "nulldata", "hex": "6a146f6d6e69000000000000001f0000001f4ad10b00", "asm": "OP_RETURN 6f6d6e69000000000000001f0000001f4ad10b00"}, "value": 0.0, "n": 0}, {"scriptPubKey": {"reqSigs": 1, "hex": "76a914beaab5340895e4e375698ec6d96c6260fd5463d788ac", "addresses": ["1JP9tSFjJcGpsCfF51sa1Tf4iHXvmUWQGx"], "asm": "OP_DUP OP_HASH160 beaab5340895e4e375698ec6d96c6260fd5463d7 OP_EQUALVERIFY OP_CHECKSIG", "type": "pubkeyhash"}, "value": 0.20378667, "n": 1}, {"scriptPubKey": {"reqSigs": 1, "hex": "76a914c26b307af8bef4d742fa6b04d1617ab419b574f488ac", "addresses": ["1JizVs5wwrL5hNoJpmHfAxgXSUunvQMq5B"], "asm": "OP_DUP OP_HASH160 c26b307af8bef4d742fa6b04d1617ab419b574f4 OP_EQUALVERIFY OP_CHECKSIG", "type": "pubkeyhash"}, "value": 5.46e-06, "n": 2}], "hex": "010000000131b72ef8574509c6b7d434403cf47b04fe934604e07b322b7eb267b9500a8850020000006a47304402206da674951fd7d17cd85221ae6a5e81757a80def397bbda964f8b1816bf1d11c0022002dd92f0f2e58cd9bb5c1f41c8bf910f745071f51d0515c7c05417a39f453101012102f740c6c4c53c1c9d9d0e10086342160b4617f1f6e9e561116a9e4d62922cca86feffffff030000000000000000166a146f6d6e69000000000000001f0000001f4ad10b002bf43601000000001976a914beaab5340895e4e375698ec6d96c6260fd5463d788ac22020000000000001976a914c26b307af8bef4d742fa6b04d1617ab419b574f488ac10490800", "vin": [{"sequence": 4294967294, "scriptSig": {"hex": "47304402206da674951fd7d17cd85221ae6a5e81757a80def397bbda964f8b1816bf1d11c0022002dd92f0f2e58cd9bb5c1f41c8bf910f745071f51d0515c7c05417a39f453101012102f740c6c4c53c1c9d9d0e10086342160b4617f1f6e9e561116a9e4d62922cca86", "asm": "304402206da674951fd7d17cd85221ae6a5e81757a80def397bbda964f8b1816bf1d11c0022002dd92f0f2e58cd9bb5c1f41c8bf910f745071f51d0515c7c05417a39f453101[ALL] 02f740c6c4c53c1c9d9d0e10086342160b4617f1f6e9e561116a9e4d62922cca86"}, "vout": 2, "txid": "50880a50b967b27e2b327be0044693fe047bf43c4034d4b7c6094557f82eb731"}], "txid": "e8b191435a053161284aa26c7bd8099b5e61774ab4c2276cf003dfb6d79bcdb2", "blocktime": 1537871767, "version": 1, "confirmations": 11493, "time": 1537871767, "locktime": 542992, "vsize": 256, "size": 256}