{"hash": "3fc8ff0eaafa0313b7cdee88b5d5a082496a3ac77e95abb81f2d888b19ea79b6", "blockhash": "00000000000000000018f53835495a110e01622372bf6ae95dc86f2b0ab887b0", "vout": [{"scriptPubKey": {"reqSigs": 1, "hex": "a914d5bedd3758a9c05e003d6cdfa98313887f90ed7e87", "addresses": ["3MBCVsjhyWZJG5CcfSkg7C1d7djUiKoqhc"], "asm": "OP_HASH160 d5bedd3758a9c05e003d6cdfa98313887f90ed7e OP_EQUAL", "type": "scripthash"}, "value": 9.464e-05, "n": 0}], "hex": "01000000000101d9e71fdc979654fe1cb3f7d76b9b0ce5e16ef560659204374786682f00d288270000000017160014ff03f9c02880f96dc014624352abaf556cc88f29ffffffff01f82400000000000017a914d5bedd3758a9c05e003d6cdfa98313887f90ed7e87024730440220330e5373e8a6f0b64be00664db37516aca679a78517abd27083d2c7916095ae902202fc828374c5d5bd0ab53099beaf84c5e1d7d244af340f2a5d9bcece015e052bc0121031aed2e575a2c74d1607e3fbbce12636ea537bb5c8e1196073092f39a1c15d37100000000", "vin": [{"txinwitness": ["30440220330e5373e8a6f0b64be00664db37516aca679a78517abd27083d2c7916095ae902202fc828374c5d5bd0ab53099beaf84c5e1d7d244af340f2a5d9bcece015e052bc01", "031aed2e575a2c74d1607e3fbbce12636ea537bb5c8e1196073092f39a1c15d371"], "sequence": 4294967295, "scriptSig": {"hex": "160014ff03f9c02880f96dc014624352abaf556cc88f29", "asm": "0014ff03f9c02880f96dc014624352abaf556cc88f29"}, "vout": 0, "txid": "2788d2002f6886473704926560f56ee1e50c9b6bd7f7b31cfe549697dc1fe7d9"}], "txid": "e8b2d462b1783282d36e1adb5b69c97c93882a83c1294ccc80fc07fd34cbbbc5", "blocktime": 1537870928, "version": 1, "confirmations": 11514, "time": 1537870928, "locktime": 0, "vsize": 134, "size": 215}