{"hash": "e8b6d9bd4d2e63942b8b58e991bc5815aea7dfad400deadfbed0f036f3a44e0f", "blockhash": "0000000000000000001f76057863aec43deb6fa401d9628bb513d65a8098bfab", "vout": [{"scriptPubKey": {"reqSigs": 1, "hex": "76a9143f73db6e2772302671d6ddbd7a0713f3c9eff6ff88ac", "addresses": ["16nWMyujSqWtF7uFJfRPyK8m3DHa7oX5qd"], "asm": "OP_DUP OP_HASH160 3f73db6e2772302671d6ddbd7a0713f3c9eff6ff OP_EQUALVERIFY OP_CHECKSIG", "type": "pubkeyhash"}, "value": 0.01477288, "n": 0}, {"scriptPubKey": {"reqSigs": 1, "hex": "76a9142905c419f20f43091f8e4dfd328625c58d82ce1e88ac", "addresses": ["14jucVirzFU4YNPiuFdsGbQEvsSkpb8kKh"], "asm": "OP_DUP OP_HASH160 2905c419f20f43091f8e4dfd328625c58d82ce1e OP_EQUALVERIFY OP_CHECKSIG", "type": "pubkeyhash"}, "value": 0.05, "n": 1}], "hex": "0100000001ec818c995dc77aa82f8e40128c6d4b2871d47909955dc691fea94469a0533b8f010000006a47304402207b482997f0fb360f73b69e1e6ed80a4c2fcc8d1f93e5a7a66954b7cb49b3c5b102201dc1b8f7c53390d290a655eac4b1bb0140bae88fcb67e9f6627a2cd29b56056a012102dd04eefbbdec7fc3001ee2aed3dc68470f9d990aeaba63fcaff6b3c08f805ed7fdffffff02a88a1600000000001976a9143f73db6e2772302671d6ddbd7a0713f3c9eff6ff88ac404b4c00000000001976a9142905c419f20f43091f8e4dfd328625c58d82ce1e88ac14490800", "vin": [{"sequence": 4294967293, "scriptSig": {"hex": "47304402207b482997f0fb360f73b69e1e6ed80a4c2fcc8d1f93e5a7a66954b7cb49b3c5b102201dc1b8f7c53390d290a655eac4b1bb0140bae88fcb67e9f6627a2cd29b56056a012102dd04eefbbdec7fc3001ee2aed3dc68470f9d990aeaba63fcaff6b3c08f805ed7", "asm": "304402207b482997f0fb360f73b69e1e6ed80a4c2fcc8d1f93e5a7a66954b7cb49b3c5b102201dc1b8f7c53390d290a655eac4b1bb0140bae88fcb67e9f6627a2cd29b56056a[ALL] 02dd04eefbbdec7fc3001ee2aed3dc68470f9d990aeaba63fcaff6b3c08f805ed7"}, "vout": 1, "txid": "8f3b53a06944a9fe91c65d950979d471284b6d8c12408e2fa87ac75d998c81ec"}], "txid": "e8b6d9bd4d2e63942b8b58e991bc5815aea7dfad400deadfbed0f036f3a44e0f", "blocktime": 1537873891, "version": 1, "confirmations": 11477, "time": 1537873891, "locktime": 542996, "vsize": 225, "size": 225}