{"hash": "5ef6c11df6429b6f2a722e6a93523cfb39776b2466463e6f45a73f0ffc630260", "blockhash": "0000000000000000000e13cef7c366c0283d82e591d1acd082e914b08063cdf1", "vout": [{"scriptPubKey": {"reqSigs": 1, "hex": "a914d20603a3a698f1211bc57c800a4c04afa6de2eb887", "addresses": ["3LqX2hjmfc9pW7LoGHa1A5QkxsN7A2uLyh"], "asm": "OP_HASH160 d20603a3a698f1211bc57c800a4c04afa6de2eb8 OP_EQUAL", "type": "scripthash"}, "value": 0.0034666, "n": 0}, {"scriptPubKey": {"reqSigs": 1, "hex": "a914adedf7a5dc418ee7345f178a9c4ee36efe2404ae87", "addresses": ["3HYftzaH2wG6Ra1B9NCiSpM5akpsJDu7gP"], "asm": "OP_HASH160 adedf7a5dc418ee7345f178a9c4ee36efe2404ae OP_EQUAL", "type": "scripthash"}, "value": 0.01001591, "n": 1}], "hex": "020000000001021de5499a89f467f20820d5b70027e17d9028066d9eccfc972a455889354976f90000000017160014c3072211b3bce1e35c9fd4282315594356ce98cefeffffffea78916916e332db4845511f43328b222184a1a09c93d2a7ff795c57e46c90391200000017160014352475dd369b8db86d91131ab27859f120c5acc4feffffff02244a05000000000017a914d20603a3a698f1211bc57c800a4c04afa6de2eb88777480f000000000017a914adedf7a5dc418ee7345f178a9c4ee36efe2404ae870247304402202ab0e24d62cf87a43af265799c5b666bcb80c6c67f50e63913a5f5eeccb0fdf002201c5a5d9f669f1a525bd4f58427b2103bac8fb05078f1b103fd26ad5ccd81fb2601210274057835b64fa8c10475d0eac513ffdeae7a2e623b847ac79457d5132834108602483045022100d065f3f92a8cd619c128dca510fffb3bee03c023e8b38b78f93af650fc4c4810022013635d9a02b4c5902b821507fc9688431d49a1e754820dbdde18bd57b59b45290121029066fe09ee044a40c8b768f3d16b126a5d510bcd0bfc96e86deb7673546030c810490800", "vin": [{"txinwitness": ["304402202ab0e24d62cf87a43af265799c5b666bcb80c6c67f50e63913a5f5eeccb0fdf002201c5a5d9f669f1a525bd4f58427b2103bac8fb05078f1b103fd26ad5ccd81fb2601", "0274057835b64fa8c10475d0eac513ffdeae7a2e623b847ac79457d51328341086"], "sequence": 4294967294, "scriptSig": {"hex": "160014c3072211b3bce1e35c9fd4282315594356ce98ce", "asm": "0014c3072211b3bce1e35c9fd4282315594356ce98ce"}, "vout": 0, "txid": "f97649358958452a97fccc9e6d0628907de12700b7d52008f267f4899a49e51d"}, {"txinwitness": ["3045022100d065f3f92a8cd619c128dca510fffb3bee03c023e8b38b78f93af650fc4c4810022013635d9a02b4c5902b821507fc9688431d49a1e754820dbdde18bd57b59b452901", "029066fe09ee044a40c8b768f3d16b126a5d510bcd0bfc96e86deb7673546030c8"], "sequence": 4294967294, "scriptSig": {"hex": "160014352475dd369b8db86d91131ab27859f120c5acc4", "asm": "0014352475dd369b8db86d91131ab27859f120c5acc4"}, "vout": 18, "txid": "39906ce4575c79ffa7d2939ca0a18421228b32431f514548db32e316699178ea"}], "txid": "e8b74f4233a237f38cfc6f1f4c7b18712006a77c492ced250623dd59f936b106", "blocktime": 1537871767, "version": 2, "confirmations": 11495, "time": 1537871767, "locktime": 542992, "vsize": 257, "size": 419}