{"hash": "e8b79b026317d1c01b9475214f81b61d2275c6f7c665bd05d588a8fdb7bb00d6", "blockhash": "0000000000000000000e13cef7c366c0283d82e591d1acd082e914b08063cdf1", "vout": [{"scriptPubKey": {"reqSigs": 1, "hex": "76a914b25533b5b68a1b5a8253756386fd4ab29d81f94d88ac", "addresses": ["1HFwM5sThFe4evjdjP7vNvcKejtGafC9fu"], "asm": "OP_DUP OP_HASH160 b25533b5b68a1b5a8253756386fd4ab29d81f94d OP_EQUALVERIFY OP_CHECKSIG", "type": "pubkeyhash"}, "value": 0.00052596, "n": 0}, {"scriptPubKey": {"reqSigs": 1, "hex": "76a91459fc517deff66e77aab4cc9e31d222cf3b0dc73288ac", "addresses": ["19CoQTYd2yQaHdhEqc6tcejuhK8GQ743Wq"], "asm": "OP_DUP OP_HASH160 59fc517deff66e77aab4cc9e31d222cf3b0dc732 OP_EQUALVERIFY OP_CHECKSIG", "type": "pubkeyhash"}, "value": 0.02910315, "n": 1}, {"scriptPubKey": {"reqSigs": 1, "hex": "76a914f4a4c6a48b4c1cbfa312fa6ede5796d0af0cec3988ac", "addresses": ["1PJZGe8hCfWPh4WqWxkEpPk7MzPiCLNnGE"], "asm": "OP_DUP OP_HASH160 f4a4c6a48b4c1cbfa312fa6ede5796d0af0cec39 OP_EQUALVERIFY OP_CHECKSIG", "type": "pubkeyhash"}, "value": 0.00269348, "n": 2}, {"scriptPubKey": {"reqSigs": 1, "hex": "76a9146b25af322f32f44e29bdfc63d1d3abfd216122d488ac", "addresses": ["1AmYSt6sbiNzejNw8R9h2xnANjCFBMWUGs"], "asm": "OP_DUP OP_HASH160 6b25af322f32f44e29bdfc63d1d3abfd216122d4 OP_EQUALVERIFY OP_CHECKSIG", "type": "pubkeyhash"}, "value": 0.00995448, "n": 3}], "hex": "020000000483887ca9f8ffb277aa404a27c2ca05405bbb0ac8d77a657f6fc797b722a23829010000006a473044022048a8adedebd25ee1207aaeedf5061a57c3659948fe6ee9daaf0c6ffc9519ce85022025a5b40c968908f5c8b5ccc16e5d912939c981a1125c95ab379a76add66f60280121020bcc3de3c250c51b05ee231bf6a4b1e3ce07eda4351d2899b503c18eb446540dfeffffffa5411207ba6fc6332d91543a1cc3bcddf57170263b35cd3ff71310d779017f63000000006b483045022100b290ac2b4b55bcfb790bba7fe2cf846886dce03009635b753225851e114824e802203738d4808a1db9b05996e6c6efa00335403cebed043d9162a67554f88b358ba6012103b4e632b9471a9c1ab49de9cbab75da9ac500e130837887815bec8f948580465ffeffffffb7d4acf0576073d9524374414733eeab96c64a0daf3f8a882c7028c999d1fbd2000000006b483045022100a90bb778d3e4db252cd2805afeb8866a912a3812f6e406bd2d1ed888087eaece0220056b50d42343acd1cc64cd693409e7f18d7411a728765a132629016fb8a16c2c0121022970ced7f82f4a2321d2b64f1e6be885ada9e4ed803f7aad254772b26f492f5afeffffffcc5c95ea378647ba9cc518b3d3dd9ca1faa94f00f0d4d8703171f20cd053c88f000000006a47304402202799040257bfa33e0d2e8e99a664893ed124e138fd3b5abe58e5b9c5116c346c0220466ee8fe995c3dfb9fbedbdcb3f0c46cea2844770922441bff1e145f3cc28036012103c35a7a06a8ae6e49c074bb21046577a71131395984647c5d40ff43c7b77f1143feffffff0474cd0000000000001976a914b25533b5b68a1b5a8253756386fd4ab29d81f94d88ac6b682c00000000001976a91459fc517deff66e77aab4cc9e31d222cf3b0dc73288ac241c0400000000001976a914f4a4c6a48b4c1cbfa312fa6ede5796d0af0cec3988ac78300f00000000001976a9146b25af322f32f44e29bdfc63d1d3abfd216122d488ac10490800", "vin": [{"sequence": 4294967294, "scriptSig": {"hex": "473044022048a8adedebd25ee1207aaeedf5061a57c3659948fe6ee9daaf0c6ffc9519ce85022025a5b40c968908f5c8b5ccc16e5d912939c981a1125c95ab379a76add66f60280121020bcc3de3c250c51b05ee231bf6a4b1e3ce07eda4351d2899b503c18eb446540d", "asm": "3044022048a8adedebd25ee1207aaeedf5061a57c3659948fe6ee9daaf0c6ffc9519ce85022025a5b40c968908f5c8b5ccc16e5d912939c981a1125c95ab379a76add66f6028[ALL] 020bcc3de3c250c51b05ee231bf6a4b1e3ce07eda4351d2899b503c18eb446540d"}, "vout": 1, "txid": "2938a222b797c76f7f657ad7c80abb5b4005cac2274a40aa77b2fff8a97c8883"}, {"sequence": 4294967294, "scriptSig": {"hex": "483045022100b290ac2b4b55bcfb790bba7fe2cf846886dce03009635b753225851e114824e802203738d4808a1db9b05996e6c6efa00335403cebed043d9162a67554f88b358ba6012103b4e632b9471a9c1ab49de9cbab75da9ac500e130837887815bec8f948580465f", "asm": "3045022100b290ac2b4b55bcfb790bba7fe2cf846886dce03009635b753225851e114824e802203738d4808a1db9b05996e6c6efa00335403cebed043d9162a67554f88b358ba6[ALL] 03b4e632b9471a9c1ab49de9cbab75da9ac500e130837887815bec8f948580465f"}, "vout": 0, "txid": "637f0179d71013f73fcd353b267071f5ddbcc31c3a54912d33c66fba071241a5"}, {"sequence": 4294967294, "scriptSig": {"hex": "483045022100a90bb778d3e4db252cd2805afeb8866a912a3812f6e406bd2d1ed888087eaece0220056b50d42343acd1cc64cd693409e7f18d7411a728765a132629016fb8a16c2c0121022970ced7f82f4a2321d2b64f1e6be885ada9e4ed803f7aad254772b26f492f5a", "asm": "3045022100a90bb778d3e4db252cd2805afeb8866a912a3812f6e406bd2d1ed888087eaece0220056b50d42343acd1cc64cd693409e7f18d7411a728765a132629016fb8a16c2c[ALL] 022970ced7f82f4a2321d2b64f1e6be885ada9e4ed803f7aad254772b26f492f5a"}, "vout": 0, "txid": "d2fbd199c928702c888a3faf0d4ac696abee334741744352d9736057f0acd4b7"}, {"sequence": 4294967294, "scriptSig": {"hex": "47304402202799040257bfa33e0d2e8e99a664893ed124e138fd3b5abe58e5b9c5116c346c0220466ee8fe995c3dfb9fbedbdcb3f0c46cea2844770922441bff1e145f3cc28036012103c35a7a06a8ae6e49c074bb21046577a71131395984647c5d40ff43c7b77f1143", "asm": "304402202799040257bfa33e0d2e8e99a664893ed124e138fd3b5abe58e5b9c5116c346c0220466ee8fe995c3dfb9fbedbdcb3f0c46cea2844770922441bff1e145f3cc28036[ALL] 03c35a7a06a8ae6e49c074bb21046577a71131395984647c5d40ff43c7b77f1143"}, "vout": 0, "txid": "8fc853d00cf2713170d8d4f0004fa9faa19cddd3b318c59cba478637ea955ccc"}], "txid": "e8b79b026317d1c01b9475214f81b61d2275c6f7c665bd05d588a8fdb7bb00d6", "blocktime": 1537871767, "version": 2, "confirmations": 11490, "time": 1537871767, "locktime": 542992, "vsize": 736, "size": 736}