{"hash": "066875cd86a193d2df4babeb950e489588288418376375447e16d1fc8908351d", "blockhash": "0000000000000000001f76057863aec43deb6fa401d9628bb513d65a8098bfab", "vout": [{"scriptPubKey": {"reqSigs": 1, "hex": "76a91413b4a310be1188a21fd6414293fa18c79d9fa0de88ac", "addresses": ["12oCEXGGEE7EZVYeH2nEzADqBamWxVfgin"], "asm": "OP_DUP OP_HASH160 13b4a310be1188a21fd6414293fa18c79d9fa0de OP_EQUALVERIFY OP_CHECKSIG", "type": "pubkeyhash"}, "value": 0.03063195, "n": 0}, {"scriptPubKey": {"reqSigs": 1, "hex": "a914719b1689abc476fb168fb6bfc2fe3e6f96756de687", "addresses": ["3C3i4vgeZcyuFpcsdaHAHjhwAJ8EfbhDWa"], "asm": "OP_HASH160 719b1689abc476fb168fb6bfc2fe3e6f96756de6 OP_EQUAL", "type": "scripthash"}, "value": 16.91073808, "n": 1}], "hex": "02000000000101bc66b1d800efdc46ce42c97ea53c26c409a64a14d6bcecbe26582c20c55df63e01000000171600141dfb563e8b64abd19c18a91d7e02ad7a23753c29ffffffff029bbd2e00000000001976a91413b4a310be1188a21fd6414293fa18c79d9fa0de88ac10bdcb640000000017a914719b1689abc476fb168fb6bfc2fe3e6f96756de6870247304402201d591792b7607327db4e9614437b21933f38035994de5c58a946e5d8b81ff49202207e2788ea20c6d3c7abd4bff19c90c12fadd4147a3653641d8a047e3851f167000121038e75014a574ae484a45e060c0710eb0cb748d68ba8e5905ffbf6c3703ededc6800000000", "vin": [{"txinwitness": ["304402201d591792b7607327db4e9614437b21933f38035994de5c58a946e5d8b81ff49202207e2788ea20c6d3c7abd4bff19c90c12fadd4147a3653641d8a047e3851f1670001", "038e75014a574ae484a45e060c0710eb0cb748d68ba8e5905ffbf6c3703ededc68"], "sequence": 4294967295, "scriptSig": {"hex": "1600141dfb563e8b64abd19c18a91d7e02ad7a23753c29", "asm": "00141dfb563e8b64abd19c18a91d7e02ad7a23753c29"}, "vout": 1, "txid": "3ef65dc5202c5826beecbcd6144aa609c4263ca57ec942ce46dcef00d8b166bc"}], "txid": "e8c093b1441671235a8965d3a453eccb7fce86c11be09805e06659528d59c38a", "blocktime": 1537873891, "version": 2, "confirmations": 11478, "time": 1537873891, "locktime": 0, "vsize": 168, "size": 249}