{"hash": "e8cd8be1c8f653cdcf37d04c81d355a6831a15c1c58a71abfb45ae53ab435b29", "blockhash": "0000000000000000000e13cef7c366c0283d82e591d1acd082e914b08063cdf1", "vout": [{"scriptPubKey": {"reqSigs": 1, "hex": "76a914042862f5ce7e388d2cf751e6c0b5fafab960606c88ac", "addresses": ["1Nz5skFwrRCWsNvEvpUykvsNY2n7Hgw3r"], "asm": "OP_DUP OP_HASH160 042862f5ce7e388d2cf751e6c0b5fafab960606c OP_EQUALVERIFY OP_CHECKSIG", "type": "pubkeyhash"}, "value": 0.00234271, "n": 0}, {"scriptPubKey": {"reqSigs": 1, "hex": "76a91454b7cf9849620fec51376330ca09151c78ce9c1a88ac", "addresses": ["18iwxXAwuPGbY5V89y2PRB83NPuKm6AztC"], "asm": "OP_DUP OP_HASH160 54b7cf9849620fec51376330ca09151c78ce9c1a OP_EQUALVERIFY OP_CHECKSIG", "type": "pubkeyhash"}, "value": 0.00283664, "n": 1}], "hex": "01000000017b9056b544724e424d085730cbcaac3074482602a7581a1a5aacb4660fad3a4d010000006a47304402202b06e8913da0917432a7ed9e9ffe6f8b9042782e132064700812de8bdce3245902207cf22dafedc7b0493777095d56968ca7c5ec6831ae5e7093fc28a42e69e58360012103a645dabe298472f08f7689a5542b1b4a4bd2a8d611922eb0245e335924b46f2effffffff021f930300000000001976a914042862f5ce7e388d2cf751e6c0b5fafab960606c88ac10540400000000001976a91454b7cf9849620fec51376330ca09151c78ce9c1a88ac00000000", "vin": [{"sequence": 4294967295, "scriptSig": {"hex": "47304402202b06e8913da0917432a7ed9e9ffe6f8b9042782e132064700812de8bdce3245902207cf22dafedc7b0493777095d56968ca7c5ec6831ae5e7093fc28a42e69e58360012103a645dabe298472f08f7689a5542b1b4a4bd2a8d611922eb0245e335924b46f2e", "asm": "304402202b06e8913da0917432a7ed9e9ffe6f8b9042782e132064700812de8bdce3245902207cf22dafedc7b0493777095d56968ca7c5ec6831ae5e7093fc28a42e69e58360[ALL] 03a645dabe298472f08f7689a5542b1b4a4bd2a8d611922eb0245e335924b46f2e"}, "vout": 1, "txid": "4d3aad0f66b4ac5a1a1a58a70226487430accacb3057084d424e7244b556907b"}], "txid": "e8cd8be1c8f653cdcf37d04c81d355a6831a15c1c58a71abfb45ae53ab435b29", "blocktime": 1537871767, "version": 1, "confirmations": 11493, "time": 1537871767, "locktime": 0, "vsize": 225, "size": 225}