{"hash": "e8ce7e9147f1e388550e27a8a841ef2b899daffc6bacadec37393790fd458e84", "blockhash": "0000000000000000000baef3f32e3676a92c3b2e5da21b426e4f302fc371ce76", "vout": [{"scriptPubKey": {"reqSigs": 1, "hex": "a9146cda076dce8c17bd8497d2c59ce18a1e7d758f1a87", "addresses": ["3Bca6Bao5f5qnjMkXa1cHren3ZfVNcAVz5"], "asm": "OP_HASH160 6cda076dce8c17bd8497d2c59ce18a1e7d758f1a OP_EQUAL", "type": "scripthash"}, "value": 1.0, "n": 0}, {"scriptPubKey": {"reqSigs": 1, "hex": "76a9140b37ca034ab967d4a69031d477b76064a905a42f88ac", "addresses": ["122KGQXaqyvtUoZFEopgmsT3RYkW9uuE2S"], "asm": "OP_DUP OP_HASH160 0b37ca034ab967d4a69031d477b76064a905a42f OP_EQUALVERIFY OP_CHECKSIG", "type": "pubkeyhash"}, "value": 2.65795202, "n": 1}], "hex": "0100000002353f63a5f6deeef8062d704e26b31a3ae63c2e1e9cc2a79630541a8b978736055f0000006b4830450221009c86794ef1168d6c15f9df84907d560e3f478f883506f22b44bc4ee1fdcec82f022002857799e45a68aea3abb17821427560463f678cb98592eebffe18b59896b945012102791a9f27336c7f9200404685b2c623165dfd5635352f01771d7bb5250838be27ffffffff753d5bca97ef12f0a3cf820611ed7bd1a2aab788ff0fd09ac1b55ec9798526a2010000006b483045022100d834dbb3bcdf54da7d3003c6095a88e647bdf8958896927751ff2e7940a50f5c0220464274cf669e3056613c2c75b6353d5e8a493f932b3a3d3752bc49ba7b1ad37c012102c14962fd6705c85f4a1de54011f18575ed6633505713296bb1749859d493c457ffffffff0200e1f5050000000017a9146cda076dce8c17bd8497d2c59ce18a1e7d758f1a8782b6d70f000000001976a9140b37ca034ab967d4a69031d477b76064a905a42f88ac00000000", "vin": [{"sequence": 4294967295, "scriptSig": {"hex": "4830450221009c86794ef1168d6c15f9df84907d560e3f478f883506f22b44bc4ee1fdcec82f022002857799e45a68aea3abb17821427560463f678cb98592eebffe18b59896b945012102791a9f27336c7f9200404685b2c623165dfd5635352f01771d7bb5250838be27", "asm": "30450221009c86794ef1168d6c15f9df84907d560e3f478f883506f22b44bc4ee1fdcec82f022002857799e45a68aea3abb17821427560463f678cb98592eebffe18b59896b945[ALL] 02791a9f27336c7f9200404685b2c623165dfd5635352f01771d7bb5250838be27"}, "vout": 95, "txid": "053687978b1a543096a7c29c1e2e3ce63a1ab3264e702d06f8eedef6a5633f35"}, {"sequence": 4294967295, "scriptSig": {"hex": "483045022100d834dbb3bcdf54da7d3003c6095a88e647bdf8958896927751ff2e7940a50f5c0220464274cf669e3056613c2c75b6353d5e8a493f932b3a3d3752bc49ba7b1ad37c012102c14962fd6705c85f4a1de54011f18575ed6633505713296bb1749859d493c457", "asm": "3045022100d834dbb3bcdf54da7d3003c6095a88e647bdf8958896927751ff2e7940a50f5c0220464274cf669e3056613c2c75b6353d5e8a493f932b3a3d3752bc49ba7b1ad37c[ALL] 02c14962fd6705c85f4a1de54011f18575ed6633505713296bb1749859d493c457"}, "vout": 1, "txid": "a2268579c95eb5c19ad00fff88b7aaa2d17bed110682cfa3f012ef97ca5b3d75"}], "txid": "e8ce7e9147f1e388550e27a8a841ef2b899daffc6bacadec37393790fd458e84", "blocktime": 1537876114, "version": 1, "confirmations": 11459, "time": 1537876114, "locktime": 0, "vsize": 372, "size": 372}