{"hash": "e7fd0149fb519e1e00627421ef1b597069d5e70f374bdaa7431edd2f32de4049", "blockhash": "0000000000000000001f76057863aec43deb6fa401d9628bb513d65a8098bfab", "vout": [{"scriptPubKey": {"reqSigs": 1, "hex": "0014901b30b9da42e00d85080362a13add818a9ecb21", "addresses": ["bc1qjqdnpww6gtsqmpggqd32zwkasx9fajeppzkw8l"], "asm": "0 901b30b9da42e00d85080362a13add818a9ecb21", "type": "witness_v0_keyhash"}, "value": 2.356e-05, "n": 0}, {"scriptPubKey": {"reqSigs": 1, "hex": "a9148272b0762d5320d9b9bf6f11e78f5f8dd85f817e87", "addresses": ["3DamAEY6h9SP7CJ9WyJhmimnVBe1NWtxvn"], "asm": "OP_HASH160 8272b0762d5320d9b9bf6f11e78f5f8dd85f817e OP_EQUAL", "type": "scripthash"}, "value": 0.002, "n": 1}], "hex": "01000000000101ab0d3e77fe3edcf320c6b12a08678af3ceeaed5a61e2269859911218353d183d0000000000ffffffff023409000000000000160014901b30b9da42e00d85080362a13add818a9ecb21400d03000000000017a9148272b0762d5320d9b9bf6f11e78f5f8dd85f817e8702483045022100d246a0dbcf6ce964833e3038a5fcda62eb28709a3cc20c6e0677e9cf03be6b8202206ecb1f778af441d663e1e3fd66ac18eb810ba79111612f366ef59bb20993bd7e012102f4b53e1272fb3441a2c7829cd8eb6c36cbd4699b7ae981bbd54381369bc33d7600000000", "vin": [{"txinwitness": ["3045022100d246a0dbcf6ce964833e3038a5fcda62eb28709a3cc20c6e0677e9cf03be6b8202206ecb1f778af441d663e1e3fd66ac18eb810ba79111612f366ef59bb20993bd7e01", "02f4b53e1272fb3441a2c7829cd8eb6c36cbd4699b7ae981bbd54381369bc33d76"], "sequence": 4294967295, "scriptSig": {"hex": "", "asm": ""}, "vout": 0, "txid": "3d183d35181291599826e2615aedeacef38a67082ab1c620f3dc3efe773e0dab"}], "txid": "e8cf822074eba55fa8652f157cfb4c4d0377ae74c8129eafdd33ac657d29f9ac", "blocktime": 1537873891, "version": 1, "confirmations": 11478, "time": 1537873891, "locktime": 0, "vsize": 142, "size": 224}