{"hash": "e8d6db8d28ecbad8893aad17fad3e1cb17dba3bb563df4a5c5d45f485b0ce62f", "blockhash": "0000000000000000000e13cef7c366c0283d82e591d1acd082e914b08063cdf1", "vout": [{"scriptPubKey": {"reqSigs": 1, "hex": "76a9147357848748877f1d2d372c37305a1843bccd0b0388ac", "addresses": ["1BWsYtyf45PV7G1Hf9Fh1f3XMVr2PLFAjH"], "asm": "OP_DUP OP_HASH160 7357848748877f1d2d372c37305a1843bccd0b03 OP_EQUALVERIFY OP_CHECKSIG", "type": "pubkeyhash"}, "value": 5.46e-06, "n": 0}, {"scriptPubKey": {"reqSigs": 1, "hex": "a9143f4eecba122ad73039d481c8d37f99cb4f887cd887", "addresses": ["37Tm3Qz8Zw2VJrheUUhArDAoq58S6YrS3g"], "asm": "OP_HASH160 3f4eecba122ad73039d481c8d37f99cb4f887cd8 OP_EQUAL", "type": "scripthash"}, "value": 0.99997454, "n": 1}, {"scriptPubKey": {"type": "nulldata", "hex": "6a146f6d6e69000000000000001f00000004a817c800", "asm": "OP_RETURN 6f6d6e69000000000000001f00000004a817c800"}, "value": 0.0, "n": 2}], "hex": "0100000001c529128a7f200723109ea40f7ae743f9368b406a200c1fa8ead1ae6001657f0800000000fc00473044022039c301c2f9dcd191774168def231180166cd610236ddea52107ebd1a53ec36b802204b8393396698973bd6d6c9b8df5487a8bd5516611af1cf4b0c78b3011d96be48014730440220795935c52f149e8cc11db5ddfe067b8bca3dc157c0943e5e0041e862cc8e82d8022071acacc0772c9ea40fced5896b3ea0a1961341e92c05f22fce6e6055ddb1a00e014c6952210246ccf4de0c54cc7f3354cdd993c2c50cf965fd82238b89659fbd73a1b4bf05a121024fc59f72272a897fe43803374969f396058152fe4765a8d15216f94624257b1b21022593bc69ecbf3bbcc3c58082267cb49dadaf4ca8dbf1b2297338a9d628c4297653aeffffffff0322020000000000001976a9147357848748877f1d2d372c37305a1843bccd0b0388ac0ed7f5050000000017a9143f4eecba122ad73039d481c8d37f99cb4f887cd8870000000000000000166a146f6d6e69000000000000001f00000004a817c80000000000", "vin": [{"sequence": 4294967295, "scriptSig": {"hex": "00473044022039c301c2f9dcd191774168def231180166cd610236ddea52107ebd1a53ec36b802204b8393396698973bd6d6c9b8df5487a8bd5516611af1cf4b0c78b3011d96be48014730440220795935c52f149e8cc11db5ddfe067b8bca3dc157c0943e5e0041e862cc8e82d8022071acacc0772c9ea40fced5896b3ea0a1961341e92c05f22fce6e6055ddb1a00e014c6952210246ccf4de0c54cc7f3354cdd993c2c50cf965fd82238b89659fbd73a1b4bf05a121024fc59f72272a897fe43803374969f396058152fe4765a8d15216f94624257b1b21022593bc69ecbf3bbcc3c58082267cb49dadaf4ca8dbf1b2297338a9d628c4297653ae", "asm": "0 3044022039c301c2f9dcd191774168def231180166cd610236ddea52107ebd1a53ec36b802204b8393396698973bd6d6c9b8df5487a8bd5516611af1cf4b0c78b3011d96be48[ALL] 30440220795935c52f149e8cc11db5ddfe067b8bca3dc157c0943e5e0041e862cc8e82d8022071acacc0772c9ea40fced5896b3ea0a1961341e92c05f22fce6e6055ddb1a00e[ALL] 52210246ccf4de0c54cc7f3354cdd993c2c50cf965fd82238b89659fbd73a1b4bf05a121024fc59f72272a897fe43803374969f396058152fe4765a8d15216f94624257b1b21022593bc69ecbf3bbcc3c58082267cb49dadaf4ca8dbf1b2297338a9d628c4297653ae"}, "vout": 0, "txid": "087f650160aed1eaa81f0c206a408b36f943e77a0fa49e102307207f8a1229c5"}], "txid": "e8d6db8d28ecbad8893aad17fad3e1cb17dba3bb563df4a5c5d45f485b0ce62f", "blocktime": 1537871767, "version": 1, "confirmations": 11493, "time": 1537871767, "locktime": 0, "vsize": 400, "size": 400}