{"hash": "e8d7d305581f065950e7b1f9eb9fb6b07b8d625a1c06d0841df98442fa052583", "blockhash": "0000000000000000001f76057863aec43deb6fa401d9628bb513d65a8098bfab", "vout": [{"scriptPubKey": {"reqSigs": 1, "hex": "a914feb3e757bc7d31d7d0fc6a6b7c460b62565ebbfc87", "addresses": ["3Qum5CJWxbG7siPvBd57mowSbTRyLFxSkG"], "asm": "OP_HASH160 feb3e757bc7d31d7d0fc6a6b7c460b62565ebbfc OP_EQUAL", "type": "scripthash"}, "value": 0.01326564, "n": 0}, {"scriptPubKey": {"reqSigs": 1, "hex": "76a91415d57e7864ffc6cad1e97b171aef70177ace2b5d88ac", "addresses": ["12zSwrVa75pA27YVYXVjuYanQMobK8BiRG"], "asm": "OP_DUP OP_HASH160 15d57e7864ffc6cad1e97b171aef70177ace2b5d OP_EQUALVERIFY OP_CHECKSIG", "type": "pubkeyhash"}, "value": 0.09331353, "n": 1}], "hex": "0100000001ef35e51b9d95168300ea7166708509cc2b3602ab64510e40b5f50943483c1184010000006a473044022072dc1606b88d082a33bdd478ae544e959164b6fd69695421aa27122b2394c1e702207dd31023e8050cd3ca741652bb27f1b22aa974595adbd7cee63ccfb386ac5d5c0121035424d81350fe94f2b30143302ffd59c6f74c88c834aa0b95fde10a016495a148ffffffff02e43d14000000000017a914feb3e757bc7d31d7d0fc6a6b7c460b62565ebbfc8799628e00000000001976a91415d57e7864ffc6cad1e97b171aef70177ace2b5d88ac00000000", "vin": [{"sequence": 4294967295, "scriptSig": {"hex": "473044022072dc1606b88d082a33bdd478ae544e959164b6fd69695421aa27122b2394c1e702207dd31023e8050cd3ca741652bb27f1b22aa974595adbd7cee63ccfb386ac5d5c0121035424d81350fe94f2b30143302ffd59c6f74c88c834aa0b95fde10a016495a148", "asm": "3044022072dc1606b88d082a33bdd478ae544e959164b6fd69695421aa27122b2394c1e702207dd31023e8050cd3ca741652bb27f1b22aa974595adbd7cee63ccfb386ac5d5c[ALL] 035424d81350fe94f2b30143302ffd59c6f74c88c834aa0b95fde10a016495a148"}, "vout": 1, "txid": "84113c484309f5b5400e5164ab02362bcc0985706671ea008316959d1be535ef"}], "txid": "e8d7d305581f065950e7b1f9eb9fb6b07b8d625a1c06d0841df98442fa052583", "blocktime": 1537873891, "version": 1, "confirmations": 11478, "time": 1537873891, "locktime": 0, "vsize": 223, "size": 223}