{"hash": "e8d9ae2e535de6cf1d5e096d68802cb479fe0ffd21576d77234e01f16b6fab95", "blockhash": "0000000000000000000e13cef7c366c0283d82e591d1acd082e914b08063cdf1", "vout": [{"scriptPubKey": {"reqSigs": 1, "hex": "76a914e84c8d6c4614832d1710dcf0a1a2f625b33edd9888ac", "addresses": ["1NBHUTjiw3aTRJSUJtHeLRaCiMdV7kQ7Tb"], "asm": "OP_DUP OP_HASH160 e84c8d6c4614832d1710dcf0a1a2f625b33edd98 OP_EQUALVERIFY OP_CHECKSIG", "type": "pubkeyhash"}, "value": 0.00032267, "n": 0}, {"scriptPubKey": {"reqSigs": 1, "hex": "76a914aa2610077c83e6d43ade168cf58fe37edd031f3a88ac", "addresses": ["1GWfUFPBHYxe2NEH6UCYW47toxzsv34Eb9"], "asm": "OP_DUP OP_HASH160 aa2610077c83e6d43ade168cf58fe37edd031f3a OP_EQUALVERIFY OP_CHECKSIG", "type": "pubkeyhash"}, "value": 0.0226372, "n": 1}], "hex": "01000000017ff2fe61cd7cd4ac3a2002484595765aa404a158d66efb0032244b9138fa6fb7000000006a4730440220711b53a312ece45397e18a78f1f440dc9a70cadb0159fc52052e4ac798becc2d022074c6bc45e08536d762102103b024a4f057f4d1b26196f9dc93aec4d7fe2ef905012102b80389e2aa4bf3549dbc48f83a2a99af32ccab2801a3c9a73a62c64f0bb58360ffffffff020b7e0000000000001976a914e84c8d6c4614832d1710dcf0a1a2f625b33edd9888aca88a2200000000001976a914aa2610077c83e6d43ade168cf58fe37edd031f3a88ac00000000", "vin": [{"sequence": 4294967295, "scriptSig": {"hex": "4730440220711b53a312ece45397e18a78f1f440dc9a70cadb0159fc52052e4ac798becc2d022074c6bc45e08536d762102103b024a4f057f4d1b26196f9dc93aec4d7fe2ef905012102b80389e2aa4bf3549dbc48f83a2a99af32ccab2801a3c9a73a62c64f0bb58360", "asm": "30440220711b53a312ece45397e18a78f1f440dc9a70cadb0159fc52052e4ac798becc2d022074c6bc45e08536d762102103b024a4f057f4d1b26196f9dc93aec4d7fe2ef905[ALL] 02b80389e2aa4bf3549dbc48f83a2a99af32ccab2801a3c9a73a62c64f0bb58360"}, "vout": 0, "txid": "b76ffa38914b243200fb6ed658a104a45a7695454802203aacd47ccd61fef27f"}], "txid": "e8d9ae2e535de6cf1d5e096d68802cb479fe0ffd21576d77234e01f16b6fab95", "blocktime": 1537871767, "version": 1, "confirmations": 11490, "time": 1537871767, "locktime": 0, "vsize": 225, "size": 225}