{"hash": "e8da6bb242740db86630646d9b8491f96a2beefa6e59faea7696e60b493612c0", "blockhash": "0000000000000000001e0dab787dd257d1dbfcb92a98c2207d5e1078be1f4165", "vout": [{"scriptPubKey": {"reqSigs": 1, "hex": "76a9149caabf8725441688d8205bd56fdcd47d01e0143e88ac", "addresses": ["1FHNxiVcw6ncQCXiVLFBPNVid5qXyz4u2R"], "asm": "OP_DUP OP_HASH160 9caabf8725441688d8205bd56fdcd47d01e0143e OP_EQUALVERIFY OP_CHECKSIG", "type": "pubkeyhash"}, "value": 0.00914393, "n": 0}], "hex": "0100000001601a3f846416b6b7479566d5a8c9e92d9985086e4eedd9c4a9f2d7ea026b3db3090000006a473044022046ca46f8d3d95b0de28c34eba352c7dfb9c6bce72d42cf920047855c4db2edb902207a4f37cd7ccd3eef86b42cd03afc529a0ce6628713a5ed68f1c2e1c15568ef0c0121024d2e4007d313face37aac1bf171aac65c85c33933b7c70124d0df876f8a80112ffffffff01d9f30d00000000001976a9149caabf8725441688d8205bd56fdcd47d01e0143e88ac00000000", "vin": [{"sequence": 4294967295, "scriptSig": {"hex": "473044022046ca46f8d3d95b0de28c34eba352c7dfb9c6bce72d42cf920047855c4db2edb902207a4f37cd7ccd3eef86b42cd03afc529a0ce6628713a5ed68f1c2e1c15568ef0c0121024d2e4007d313face37aac1bf171aac65c85c33933b7c70124d0df876f8a80112", "asm": "3044022046ca46f8d3d95b0de28c34eba352c7dfb9c6bce72d42cf920047855c4db2edb902207a4f37cd7ccd3eef86b42cd03afc529a0ce6628713a5ed68f1c2e1c15568ef0c[ALL] 024d2e4007d313face37aac1bf171aac65c85c33933b7c70124d0df876f8a80112"}, "vout": 9, "txid": "b33d6b02ead7f2a9c4d9ed4e6e0885992de9c9a8d5669547b7b61664843f1a60"}], "txid": "e8da6bb242740db86630646d9b8491f96a2beefa6e59faea7696e60b493612c0", "blocktime": 1537872475, "version": 1, "confirmations": 11486, "time": 1537872475, "locktime": 0, "vsize": 191, "size": 191}