{"hash": "73b431cf46ed20444fc856b6d7f0b88d278b02fa13840d62152c5a133a890a8a", "blockhash": "0000000000000000001f76057863aec43deb6fa401d9628bb513d65a8098bfab", "vout": [{"scriptPubKey": {"reqSigs": 1, "hex": "a91482b619af1685b7cb4d0104f8ed5bcbe44e47fc2587", "addresses": ["3Dc9v2weiBnwVrYpLLNFJadw3VMendQGn2"], "asm": "OP_HASH160 82b619af1685b7cb4d0104f8ed5bcbe44e47fc25 OP_EQUAL", "type": "scripthash"}, "value": 0.1890824, "n": 0}, {"scriptPubKey": {"reqSigs": 1, "hex": "76a914e643e59062268cc64276c7448924f2ac026c141488ac", "addresses": ["1MzXkfnrmbVZZt2dX3picXeBP17spN21Rg"], "asm": "OP_DUP OP_HASH160 e643e59062268cc64276c7448924f2ac026c1414 OP_EQUALVERIFY OP_CHECKSIG", "type": "pubkeyhash"}, "value": 0.006, "n": 1}], "hex": "01000000000101a29ff93c8943884222b7887a30aa980a4c8dc83dbbd92c2f14d8e9864ad5cb8b0100000023220020b0480fe78963b3235a890a62c3a2acbd2594030520af681e63418fa87fd0dd5bffffffff02508420010000000017a91482b619af1685b7cb4d0104f8ed5bcbe44e47fc2587c0270900000000001976a914e643e59062268cc64276c7448924f2ac026c141488ac040047304402206b2aad7d46a8e8e2cf2290e54c807ba57e4374e055e430d7e898c9846fb483af02207d7bb7b5a40079b812646354e35e434cdbd483ee4482f952f1c34265dbed57de01483045022100992f2a5fceedfde3098dd8bd97bc66313c4ade12382099ce1213a8329c45991d0220691d793de4d5a0ea6d31a91ea06c2ca6685b11581ee6bdb17574942201e078f601695221020eeee3f5970b89f0c1d6860ad9aecbb46ce8d04cd717e39c0849172dba003acb210258d972b9a73a4321f686535184c7f84291fd2f710c0b66d8ee83e0944729517221032e02240a5f1025e91bb897cd7d6c8f457533a9c9e860c8335b9cc1347f7483c253ae15490800", "vin": [{"txinwitness": ["", "304402206b2aad7d46a8e8e2cf2290e54c807ba57e4374e055e430d7e898c9846fb483af02207d7bb7b5a40079b812646354e35e434cdbd483ee4482f952f1c34265dbed57de01", "3045022100992f2a5fceedfde3098dd8bd97bc66313c4ade12382099ce1213a8329c45991d0220691d793de4d5a0ea6d31a91ea06c2ca6685b11581ee6bdb17574942201e078f601", "5221020eeee3f5970b89f0c1d6860ad9aecbb46ce8d04cd717e39c0849172dba003acb210258d972b9a73a4321f686535184c7f84291fd2f710c0b66d8ee83e0944729517221032e02240a5f1025e91bb897cd7d6c8f457533a9c9e860c8335b9cc1347f7483c253ae"], "sequence": 4294967295, "scriptSig": {"hex": "220020b0480fe78963b3235a890a62c3a2acbd2594030520af681e63418fa87fd0dd5b", "asm": "0020b0480fe78963b3235a890a62c3a2acbd2594030520af681e63418fa87fd0dd5b"}, "vout": 1, "txid": "8bcbd54a86e9d8142f2cd9bb3dc88d4c0a98aa307a88b722428843893cf99fa2"}], "txid": "e8de2022c88eac4ebdddebfbfbd7d9bf88ee17c9da203001cfd336b927e345ae", "blocktime": 1537873891, "version": 1, "confirmations": 11475, "time": 1537873891, "locktime": 542997, "vsize": 216, "size": 407}