{"hash": "8569008431206e8133d52e77c16764b02e9697ebb968e1dec254ba702c492ec9", "blockhash": "0000000000000000001f0ddff1eddb255c1121bcd4da4f1bc9a0da00cae72433", "vout": [{"scriptPubKey": {"reqSigs": 1, "hex": "a914852ffc48c2d325fed5098693a281bef68a2ddf6887", "addresses": ["3DqFH9VKK53ku7rPqUM9LCZ9HjNuhUwwyN"], "asm": "OP_HASH160 852ffc48c2d325fed5098693a281bef68a2ddf68 OP_EQUAL", "type": "scripthash"}, "value": 0.1, "n": 0}, {"scriptPubKey": {"reqSigs": 1, "hex": "a914165a63d753036e780b992d3e368282238df13fe387", "addresses": ["33jD5AucDSfMyHb7uJUfSyb2zSxYzb5Hoh"], "asm": "OP_HASH160 165a63d753036e780b992d3e368282238df13fe3 OP_EQUAL", "type": "scripthash"}, "value": 0.63702884, "n": 1}], "hex": "01000000000101c6968629fe9cd2c15c6f1db5f02facab82d462f0ce5d08cd93cc4b15439f4596010000001716001439b2b9b47f45b6efd897607d677bc904bdda9cd4fdffffff02809698000000000017a914852ffc48c2d325fed5098693a281bef68a2ddf68876407cc030000000017a914165a63d753036e780b992d3e368282238df13fe3870247304402204ddd23f3859f4f537ea1fcd316ddee6f2a9e2aa7c35fdbe6d9321542ac4d80a2022076dca8bc1d41631875c7f3133d4a80b00fdcd0eeae029958752dc94f8d047c370121022e7821b30701131008a3012686f9fd26c6d43adbbdec1655de0d7e9bed3678ff10490800", "vin": [{"txinwitness": ["304402204ddd23f3859f4f537ea1fcd316ddee6f2a9e2aa7c35fdbe6d9321542ac4d80a2022076dca8bc1d41631875c7f3133d4a80b00fdcd0eeae029958752dc94f8d047c3701", "022e7821b30701131008a3012686f9fd26c6d43adbbdec1655de0d7e9bed3678ff"], "sequence": 4294967293, "scriptSig": {"hex": "16001439b2b9b47f45b6efd897607d677bc904bdda9cd4", "asm": "001439b2b9b47f45b6efd897607d677bc904bdda9cd4"}, "vout": 1, "txid": "96459f43154bcc93cd085dcef062d482abac2ff0b51d6f5cc1d29cfe298696c6"}], "txid": "e8df4fb8d3d0a69a2908fe76c6d20149f66ab30e02112d05aa54847a5b377592", "blocktime": 1537872018, "version": 1, "confirmations": 11489, "time": 1537872018, "locktime": 542992, "vsize": 166, "size": 247}