{"hash": "e8e13804d1143375b4a4ce4415b622848bd0378ee8fdbe4fba43a40d6b850f88", "blockhash": "0000000000000000001e0dab787dd257d1dbfcb92a98c2207d5e1078be1f4165", "vout": [{"scriptPubKey": {"reqSigs": 1, "hex": "76a91436948a4c579eaae124a03cdbae20b010ffa842c788ac", "addresses": ["15ybS7f7KjZTSpTGsjkXNHUDmUeykExJ7g"], "asm": "OP_DUP OP_HASH160 36948a4c579eaae124a03cdbae20b010ffa842c7 OP_EQUALVERIFY OP_CHECKSIG", "type": "pubkeyhash"}, "value": 0.03821848, "n": 0}, {"scriptPubKey": {"reqSigs": 1, "hex": "76a9145bf214cd77b732e236f4d740db1a175555c76f3588ac", "addresses": ["19PAVZL6rYhY314sSWrsE7QBSNiVq9Xg6C"], "asm": "OP_DUP OP_HASH160 5bf214cd77b732e236f4d740db1a175555c76f35 OP_EQUALVERIFY OP_CHECKSIG", "type": "pubkeyhash"}, "value": 0.11694954, "n": 1}], "hex": "01000000019c77c539e9467e271e0231699c1d110d1a1b627fdfb0e0490ecedfd37ceef104010000006a473044022001e28d2354f2a00f74f4aa87b40b5e6d1c861f969af438c2f2a4fae472533c0f02205449f8c2ea32f7c36d38a0816e9b94aa1927c7601a6af4b57acd76d7406c4810012103c278fb816eee845cf8ee2567a0d93b1e6f4b608cb1e986585c57c5e2a50e1844ffffffff0218513a00000000001976a91436948a4c579eaae124a03cdbae20b010ffa842c788ac6a73b200000000001976a9145bf214cd77b732e236f4d740db1a175555c76f3588ac00000000", "vin": [{"sequence": 4294967295, "scriptSig": {"hex": "473044022001e28d2354f2a00f74f4aa87b40b5e6d1c861f969af438c2f2a4fae472533c0f02205449f8c2ea32f7c36d38a0816e9b94aa1927c7601a6af4b57acd76d7406c4810012103c278fb816eee845cf8ee2567a0d93b1e6f4b608cb1e986585c57c5e2a50e1844", "asm": "3044022001e28d2354f2a00f74f4aa87b40b5e6d1c861f969af438c2f2a4fae472533c0f02205449f8c2ea32f7c36d38a0816e9b94aa1927c7601a6af4b57acd76d7406c4810[ALL] 03c278fb816eee845cf8ee2567a0d93b1e6f4b608cb1e986585c57c5e2a50e1844"}, "vout": 1, "txid": "04f1ee7cd3dfce0e49e0b0df7f621b1a0d111d9c6931021e277e46e939c5779c"}], "txid": "e8e13804d1143375b4a4ce4415b622848bd0378ee8fdbe4fba43a40d6b850f88", "blocktime": 1537872475, "version": 1, "confirmations": 11487, "time": 1537872475, "locktime": 0, "vsize": 225, "size": 225}