{"hash": "e8e485bc05e26bb6d32a8a56201002dcab46c081030e454048f41064e41185ad", "blockhash": "0000000000000000001e0dab787dd257d1dbfcb92a98c2207d5e1078be1f4165", "vout": [{"scriptPubKey": {"reqSigs": 1, "hex": "a9146ad4527a2973d33a3b26609a1d89e5525f1a749d87", "addresses": ["3BRsuHGKJJTF125W5FFpLD9yMED8eu1Vrs"], "asm": "OP_HASH160 6ad4527a2973d33a3b26609a1d89e5525f1a749d OP_EQUAL", "type": "scripthash"}, "value": 0.04011461, "n": 0}], "hex": "0100000003d4f8501c3e8d0a69000d1fef4871f393ad4ef750fa9739593be2128fa4da38a14d0000006a47304402206f5ee77e7409f61bffccf3311ece5e22aadaafe6f891881d72d11780bbf4840d0220504946eb45b9458f5e30edd89ff5069e49c52ab9e947999cebb38bd61bc47aaa012103a5bb49b9735f8a605b502db4f208e9bd886ac7d83c79554f1d00fc73e1710c3bffffffff8c8d756ef34a018444de9c8b8b084747e41897224301e98272e2a0322fc9d5d1470000006b483045022100f6263fb7a17315b846166d15f3a3ed8e824cb690f046768c77ce550d25624bf002204fd310cefbcbb5169874490d5c88c90fa5dc35fbf09ae3981bccbcbeaff31ac9012103a5bb49b9735f8a605b502db4f208e9bd886ac7d83c79554f1d00fc73e1710c3bffffffff019bcc440e0061b7f981e9b318b583354d1007097e11018beb825d0330e86ad9450000006a4730440220052f13e8c9ac9c5c0c0cdb8a0b1277227def88787f593cc7192aa29ec072304b022055062a446b82b7f17b9fb62b9882144c2515e74900ecd81b02d7fa673bcfbb7b012103a5bb49b9735f8a605b502db4f208e9bd886ac7d83c79554f1d00fc73e1710c3bffffffff01c5353d000000000017a9146ad4527a2973d33a3b26609a1d89e5525f1a749d8700000000", "vin": [{"sequence": 4294967295, "scriptSig": {"hex": "47304402206f5ee77e7409f61bffccf3311ece5e22aadaafe6f891881d72d11780bbf4840d0220504946eb45b9458f5e30edd89ff5069e49c52ab9e947999cebb38bd61bc47aaa012103a5bb49b9735f8a605b502db4f208e9bd886ac7d83c79554f1d00fc73e1710c3b", "asm": "304402206f5ee77e7409f61bffccf3311ece5e22aadaafe6f891881d72d11780bbf4840d0220504946eb45b9458f5e30edd89ff5069e49c52ab9e947999cebb38bd61bc47aaa[ALL] 03a5bb49b9735f8a605b502db4f208e9bd886ac7d83c79554f1d00fc73e1710c3b"}, "vout": 77, "txid": "a138daa48f12e23b593997fa50f74ead93f37148ef1f0d00690a8d3e1c50f8d4"}, {"sequence": 4294967295, "scriptSig": {"hex": "483045022100f6263fb7a17315b846166d15f3a3ed8e824cb690f046768c77ce550d25624bf002204fd310cefbcbb5169874490d5c88c90fa5dc35fbf09ae3981bccbcbeaff31ac9012103a5bb49b9735f8a605b502db4f208e9bd886ac7d83c79554f1d00fc73e1710c3b", "asm": "3045022100f6263fb7a17315b846166d15f3a3ed8e824cb690f046768c77ce550d25624bf002204fd310cefbcbb5169874490d5c88c90fa5dc35fbf09ae3981bccbcbeaff31ac9[ALL] 03a5bb49b9735f8a605b502db4f208e9bd886ac7d83c79554f1d00fc73e1710c3b"}, "vout": 71, "txid": "d1d5c92f32a0e27282e90143229718e44747088b8b9cde4484014af36e758d8c"}, {"sequence": 4294967295, "scriptSig": {"hex": "4730440220052f13e8c9ac9c5c0c0cdb8a0b1277227def88787f593cc7192aa29ec072304b022055062a446b82b7f17b9fb62b9882144c2515e74900ecd81b02d7fa673bcfbb7b012103a5bb49b9735f8a605b502db4f208e9bd886ac7d83c79554f1d00fc73e1710c3b", "asm": "30440220052f13e8c9ac9c5c0c0cdb8a0b1277227def88787f593cc7192aa29ec072304b022055062a446b82b7f17b9fb62b9882144c2515e74900ecd81b02d7fa673bcfbb7b[ALL] 03a5bb49b9735f8a605b502db4f208e9bd886ac7d83c79554f1d00fc73e1710c3b"}, "vout": 69, "txid": "d96ae830035d82eb8b01117e0907104d3583b518b3e981f9b761000e44cc9b01"}], "txid": "e8e485bc05e26bb6d32a8a56201002dcab46c081030e454048f41064e41185ad", "blocktime": 1537872475, "version": 1, "confirmations": 11486, "time": 1537872475, "locktime": 0, "vsize": 484, "size": 484}