{"hash": "cde3553be5dad310b9d5398f9dde37d9449111d744d1ee7ef25e4c0089e0a256", "blockhash": "00000000000000000024a2167bbff67b0be802c0b01cdd79e6331c2be6459f87", "vout": [{"scriptPubKey": {"reqSigs": 1, "hex": "76a9142e1b944fe7ffbe969fc1df8d662fd7b5d6303c9b88ac", "addresses": ["15Co856cRnFRCKwSSzECoyT3ozVhuFoJZ6"], "asm": "OP_DUP OP_HASH160 2e1b944fe7ffbe969fc1df8d662fd7b5d6303c9b OP_EQUALVERIFY OP_CHECKSIG", "type": "pubkeyhash"}, "value": 0.0051396, "n": 0}, {"scriptPubKey": {"reqSigs": 1, "hex": "a9141023c6929481d729878ff4be54611185c9fef4f687", "addresses": ["33AMbMHC5yfMWUfkQ2d6Hg5jjz5Tur6LmR"], "asm": "OP_HASH160 1023c6929481d729878ff4be54611185c9fef4f6 OP_EQUAL", "type": "scripthash"}, "value": 0.00999316, "n": 1}], "hex": "020000000001028e6dc1cace014472e00cf6df1878a54072f1e5843802764eb486bbd0d4d020080a000000171600149e3121e59fc0a73233919d84b2ccbbb361f5a310feffffffc404cf2df1670845274f2796c4d43772714ebda064fd37f6cceded111ca3b02300000000171600144a615fa3cacbff2451cf3494f482d6e990e860aafeffffff02a8d70700000000001976a9142e1b944fe7ffbe969fc1df8d662fd7b5d6303c9b88ac943f0f000000000017a9141023c6929481d729878ff4be54611185c9fef4f6870247304402200b384e9af8bdf2ade757581f7eabc210e90b647eda023d1d508da6add9b41c8c02206af2cd5fc682ada88e0e4e65e81ea8ccf142156b2c7d38b53dbe7c783f3a7ac90121034c17b95444887abca79db2cc730e7083b6f7bb13c257a890cd1a7838d5bde80e024730440220199bc8dfd12279f2c2bb8f33259f7366b17cd080cc34230b395863f268ccbdb202203b1638f4259f8f08f5853ea38c9a773f4a5439059cf2c65819bd29623264bddd012102903196067c3aa30f2b278ef96e6805829f656667d0cf0418d14cb0e0f2dd62fcac480800", "vin": [{"txinwitness": ["304402200b384e9af8bdf2ade757581f7eabc210e90b647eda023d1d508da6add9b41c8c02206af2cd5fc682ada88e0e4e65e81ea8ccf142156b2c7d38b53dbe7c783f3a7ac901", "034c17b95444887abca79db2cc730e7083b6f7bb13c257a890cd1a7838d5bde80e"], "sequence": 4294967294, "scriptSig": {"hex": "1600149e3121e59fc0a73233919d84b2ccbbb361f5a310", "asm": "00149e3121e59fc0a73233919d84b2ccbbb361f5a310"}, "vout": 10, "txid": "0820d0d4d0bb86b44e76023884e5f17240a57818dff60ce0724401cecac16d8e"}, {"txinwitness": ["30440220199bc8dfd12279f2c2bb8f33259f7366b17cd080cc34230b395863f268ccbdb202203b1638f4259f8f08f5853ea38c9a773f4a5439059cf2c65819bd29623264bddd01", "02903196067c3aa30f2b278ef96e6805829f656667d0cf0418d14cb0e0f2dd62fc"], "sequence": 4294967294, "scriptSig": {"hex": "1600144a615fa3cacbff2451cf3494f482d6e990e860aa", "asm": "00144a615fa3cacbff2451cf3494f482d6e990e860aa"}, "vout": 0, "txid": "23b0a31c11ededccf637fd64a0bd4e717237d4c496274f27450867f12dcf04c4"}], "txid": "e8e5d4590236d5e4121e612dcd8cb95f6d57219399be74f69431a1a281caaca7", "blocktime": 1537870564, "version": 2, "confirmations": 11515, "time": 1537870564, "locktime": 542892, "vsize": 258, "size": 420}