{"hash": "e8ebd787ee0ad63f908e8983c8a633c5da6c2bfc0dfed8119693436e350f9c04", "blockhash": "00000000000000000018f53835495a110e01622372bf6ae95dc86f2b0ab887b0", "vout": [{"scriptPubKey": {"reqSigs": 1, "hex": "76a914b60df73b2d0c40ac0815aed67e9de124ae4b1cec88ac", "addresses": ["1HbciGg3tdN1UkQEsb2M8pg6dhb3PE6EYq"], "asm": "OP_DUP OP_HASH160 b60df73b2d0c40ac0815aed67e9de124ae4b1cec OP_EQUALVERIFY OP_CHECKSIG", "type": "pubkeyhash"}, "value": 0.3638436, "n": 0}], "hex": "010000000453b8ad7fd1dfe5c7bed7f30741268159525eeb5122a20d877196d096ae4adb04000000006a47304402207a966303674617bd4ba18e5cc71f363c2f121b8de52557c26a61b93dec45770f022022a00a2394ba84cb5c878c3563446dd5434b798c47848da58c711b231ccd0ee601210370037e65dbe9a9f70da9f39012748c9c68adda31332fa0f163e7e8ebf03fec03ffffffffc85650b93fe7d75311d425d9dd47b8a9a0b9b83f271afad7a0d176dfc68f4c3c000000006a473044022048a66192a92bdcb2cc2a1a1e00bc5fe1c3da2d1c7cd4939b383765505693ef7f0220609bd0c50c1f3878bf30e8a17a4b8f188df9a19ef82e3da457ef66099d5c9c82012102d000abb7f1059fa520941f12d06f65691667c510aba4c7a2d52a054b649ddff8ffffffffe2e9dc5569c1fe085fafab5418e99630c10532e13bbc6c8ee8187a4d7656bca1000000006a47304402202c2bc3b1fc7e6944ad5b45a624b9a6843f454d86df51f813273552788b62546c0220739551d756cbc15103b5d1c1a4449019b3114c850a89c7a85b79fdb64b442bc801210337d7591d5435c36bd58ff18426b33bf0ee5fbb7229cba4f4ce4c1634bc8e84fdffffffff292bea024f24200a376c346122aa1a7489f82c5e024b82d854b2738ee0a956f1010000006a47304402205a0450b9405f6ecd6a6248599b19c7056e62dac0d8648c3350a20cb5cc5c53ce02204e37144b3ba23155815ce16449dae2f392c6fe7366441a58e919fe0e7f363ed90121030b18528d55e4e8bdac07d50da50aa35183ad8eb453a9e42b7e2c04b17bb43d06ffffffff01682e2b02000000001976a914b60df73b2d0c40ac0815aed67e9de124ae4b1cec88ac00000000", "vin": [{"sequence": 4294967295, "scriptSig": {"hex": "47304402207a966303674617bd4ba18e5cc71f363c2f121b8de52557c26a61b93dec45770f022022a00a2394ba84cb5c878c3563446dd5434b798c47848da58c711b231ccd0ee601210370037e65dbe9a9f70da9f39012748c9c68adda31332fa0f163e7e8ebf03fec03", "asm": "304402207a966303674617bd4ba18e5cc71f363c2f121b8de52557c26a61b93dec45770f022022a00a2394ba84cb5c878c3563446dd5434b798c47848da58c711b231ccd0ee6[ALL] 0370037e65dbe9a9f70da9f39012748c9c68adda31332fa0f163e7e8ebf03fec03"}, "vout": 0, "txid": "04db4aae96d09671870da22251eb5e525981264107f3d7bec7e5dfd17fadb853"}, {"sequence": 4294967295, "scriptSig": {"hex": "473044022048a66192a92bdcb2cc2a1a1e00bc5fe1c3da2d1c7cd4939b383765505693ef7f0220609bd0c50c1f3878bf30e8a17a4b8f188df9a19ef82e3da457ef66099d5c9c82012102d000abb7f1059fa520941f12d06f65691667c510aba4c7a2d52a054b649ddff8", "asm": "3044022048a66192a92bdcb2cc2a1a1e00bc5fe1c3da2d1c7cd4939b383765505693ef7f0220609bd0c50c1f3878bf30e8a17a4b8f188df9a19ef82e3da457ef66099d5c9c82[ALL] 02d000abb7f1059fa520941f12d06f65691667c510aba4c7a2d52a054b649ddff8"}, "vout": 0, "txid": "3c4c8fc6df76d1a0d7fa1a273fb8b9a0a9b847ddd925d41153d7e73fb95056c8"}, {"sequence": 4294967295, "scriptSig": {"hex": "47304402202c2bc3b1fc7e6944ad5b45a624b9a6843f454d86df51f813273552788b62546c0220739551d756cbc15103b5d1c1a4449019b3114c850a89c7a85b79fdb64b442bc801210337d7591d5435c36bd58ff18426b33bf0ee5fbb7229cba4f4ce4c1634bc8e84fd", "asm": "304402202c2bc3b1fc7e6944ad5b45a624b9a6843f454d86df51f813273552788b62546c0220739551d756cbc15103b5d1c1a4449019b3114c850a89c7a85b79fdb64b442bc8[ALL] 0337d7591d5435c36bd58ff18426b33bf0ee5fbb7229cba4f4ce4c1634bc8e84fd"}, "vout": 0, "txid": "a1bc56764d7a18e88e6cbc3be13205c13096e91854abaf5f08fec16955dce9e2"}, {"sequence": 4294967295, "scriptSig": {"hex": "47304402205a0450b9405f6ecd6a6248599b19c7056e62dac0d8648c3350a20cb5cc5c53ce02204e37144b3ba23155815ce16449dae2f392c6fe7366441a58e919fe0e7f363ed90121030b18528d55e4e8bdac07d50da50aa35183ad8eb453a9e42b7e2c04b17bb43d06", "asm": "304402205a0450b9405f6ecd6a6248599b19c7056e62dac0d8648c3350a20cb5cc5c53ce02204e37144b3ba23155815ce16449dae2f392c6fe7366441a58e919fe0e7f363ed9[ALL] 030b18528d55e4e8bdac07d50da50aa35183ad8eb453a9e42b7e2c04b17bb43d06"}, "vout": 1, "txid": "f156a9e08e73b254d8824b025e2cf889741aaa2261346c370a20244f02ea2b29"}], "txid": "e8ebd787ee0ad63f908e8983c8a633c5da6c2bfc0dfed8119693436e350f9c04", "blocktime": 1537870928, "version": 1, "confirmations": 11514, "time": 1537870928, "locktime": 0, "vsize": 632, "size": 632}