{"hash": "5c3c690be006107b507f0ccb32cd4ebbefc2da730b3b907122957f87d565c0f9", "blockhash": "00000000000000000004ffacab907a6b429b9a5745fa0b75af4234bf69dd7176", "vout": [{"scriptPubKey": {"reqSigs": 1, "hex": "a914fc3faf0d17aa343e97fe11a4c4b9e6cad84ffd4d87", "addresses": ["3QgnViHKrVSmqE2UDqweX4iwnx4XPaQwUZ"], "asm": "OP_HASH160 fc3faf0d17aa343e97fe11a4c4b9e6cad84ffd4d OP_EQUAL", "type": "scripthash"}, "value": 3.28342786, "n": 0}, {"scriptPubKey": {"reqSigs": 1, "hex": "76a914e99ae29b47bdc3e0491f382a6eaf1b864332e6e088ac", "addresses": ["1NJBzJqjKoQED56kwyxqHLBcHVExAEAxD6"], "asm": "OP_DUP OP_HASH160 e99ae29b47bdc3e0491f382a6eaf1b864332e6e0 OP_EQUALVERIFY OP_CHECKSIG", "type": "pubkeyhash"}, "value": 0.02894009, "n": 1}], "hex": "020000000001018300d4dec55acbd42a47ae27af6eadd66507ef9d5d36608c6b17ca836997abf60000000017160014f7c326cbcda5ccb5bc56e85c929f78cf5dbc06b7feffffff02021d92130000000017a914fc3faf0d17aa343e97fe11a4c4b9e6cad84ffd4d87b9282c00000000001976a914e99ae29b47bdc3e0491f382a6eaf1b864332e6e088ac02473044022016f4b8ee3205ea118ce6ae261a087d1fcc8582ec643fd2375d249082a7d032210220469dfea60a824574b9af91286a4c453466df57d7c45910420c3f5828a4cd6694012103916dba0eabcdd39140eeed94deff77246773c967e21b20bce4133b37c3d199e916490800", "vin": [{"txinwitness": ["3044022016f4b8ee3205ea118ce6ae261a087d1fcc8582ec643fd2375d249082a7d032210220469dfea60a824574b9af91286a4c453466df57d7c45910420c3f5828a4cd669401", "03916dba0eabcdd39140eeed94deff77246773c967e21b20bce4133b37c3d199e9"], "sequence": 4294967294, "scriptSig": {"hex": "160014f7c326cbcda5ccb5bc56e85c929f78cf5dbc06b7", "asm": "0014f7c326cbcda5ccb5bc56e85c929f78cf5dbc06b7"}, "vout": 0, "txid": "f6ab976983ca176b8c60365d9def0765d6ad6eaf27ae472ad4cb5ac5ded40083"}], "txid": "e8ec64240a4f6b5a85711b5d775d7bb31213fd95c9da691bb80ef1a7b2c632fb", "blocktime": 1537875543, "version": 2, "confirmations": 11464, "time": 1537875543, "locktime": 542998, "vsize": 168, "size": 249}