{"hash": "e8ed29d36c572c8efe992c86de795f64400a98f55b826b022aeddedda9c21d51", "blockhash": "0000000000000000001e0dab787dd257d1dbfcb92a98c2207d5e1078be1f4165", "vout": [{"scriptPubKey": {"reqSigs": 1, "hex": "76a91433651e8cb54ff44db335ca2208e6bb75224372ef88ac", "addresses": ["15gkbgKQwd8NsbqtM8k5nEtvB55RKbpjNn"], "asm": "OP_DUP OP_HASH160 33651e8cb54ff44db335ca2208e6bb75224372ef OP_EQUALVERIFY OP_CHECKSIG", "type": "pubkeyhash"}, "value": 7.01996472, "n": 0}], "hex": "0100000005ca163364d3923af3fb0717e8705c9d5a18d2bcfbd9e7ee0cb700ef263a54092f000000006b483045022100da9385e179f42a9cd8d3d1268407840be6497856850d178d305f1449d49d1c00022066ee089e0f0e202922534965f09bf9243b01bc906be455743f4d031b736c9994012102d76a34b15518401ce6bc9a607e1c21984d599325428d2e49bea90a1a08dcc5ecffffffff237a0cb9018ca60f91e89f62421cc89a2bfa8676205c1d27fa132d5541d66035010000006a473044022022ead65800badc203a6ea965fa3929b4bed27844cb81056946dfc755299b351a022040c19169680e743eb5506878b0bc562e1c114dce8cb51cda7226efcd11fc8562012102b0e5954d8e42d4fc5197046a06b251dec837a5e1a6b34359d59b4b5dd651adb1ffffffffd785af88e16a57da399b3e75e02c4cb3d8a9feafe2716c1cdfc2cd527062bb6b010000006b4830450221008f2e28c9ba559491a1ecd943dc68ee54b2862429162c1c33bbfffd00445630440220028b8e0e6ae708c696ebc6240a778dff588f1df31f8e8156fd91f11a654ecba8012103d14bd48f6da2719d8c8db7019ad2ebb4d5effaaf81eb069c0975a6bb295fb0bdffffffff564e3cf419cf3157f8a6567d7656ec515f9048fe566afced7c48542965ba7572000000006b48304502210080e959e5bd6ed747e5f0ad1f9c574b2984d84ea2640f430ce5ed150940e86d6902200f401e0f350ca0cd8e49e8ee414715b39fb60e50bee35a60c98cd3524022133b0121025284768378eefc9614895a690c125573eb63444cfb2668ae41e63734ec5fdd9fffffffffb92968855a5c9c85bf1d4f835720c25ba8dd1ad2b957ac322128dfc04a6aa6b9010000006b4830450221008e5a7e6e8824324f0ba0fc96780d0d91c9f8fe63b552afe3aa5bf3ff5b925f2d022022372d81f23c20ee736bb8b708a1250b578f0c4b89e6731589b5e621ded567730121027b69299bcaae67dd9cb03049d1bbbd0253d9c2814375d3ba1d66d4110babb989ffffffff01b89dd729000000001976a91433651e8cb54ff44db335ca2208e6bb75224372ef88ac00000000", "vin": [{"sequence": 4294967295, "scriptSig": {"hex": "483045022100da9385e179f42a9cd8d3d1268407840be6497856850d178d305f1449d49d1c00022066ee089e0f0e202922534965f09bf9243b01bc906be455743f4d031b736c9994012102d76a34b15518401ce6bc9a607e1c21984d599325428d2e49bea90a1a08dcc5ec", "asm": "3045022100da9385e179f42a9cd8d3d1268407840be6497856850d178d305f1449d49d1c00022066ee089e0f0e202922534965f09bf9243b01bc906be455743f4d031b736c9994[ALL] 02d76a34b15518401ce6bc9a607e1c21984d599325428d2e49bea90a1a08dcc5ec"}, "vout": 0, "txid": "2f09543a26ef00b70ceee7d9fbbcd2185a9d5c70e81707fbf33a92d3643316ca"}, {"sequence": 4294967295, "scriptSig": {"hex": "473044022022ead65800badc203a6ea965fa3929b4bed27844cb81056946dfc755299b351a022040c19169680e743eb5506878b0bc562e1c114dce8cb51cda7226efcd11fc8562012102b0e5954d8e42d4fc5197046a06b251dec837a5e1a6b34359d59b4b5dd651adb1", "asm": "3044022022ead65800badc203a6ea965fa3929b4bed27844cb81056946dfc755299b351a022040c19169680e743eb5506878b0bc562e1c114dce8cb51cda7226efcd11fc8562[ALL] 02b0e5954d8e42d4fc5197046a06b251dec837a5e1a6b34359d59b4b5dd651adb1"}, "vout": 1, "txid": "3560d641552d13fa271d5c207686fa2b9ac81c42629fe8910fa68c01b90c7a23"}, {"sequence": 4294967295, "scriptSig": {"hex": "4830450221008f2e28c9ba559491a1ecd943dc68ee54b2862429162c1c33bbfffd00445630440220028b8e0e6ae708c696ebc6240a778dff588f1df31f8e8156fd91f11a654ecba8012103d14bd48f6da2719d8c8db7019ad2ebb4d5effaaf81eb069c0975a6bb295fb0bd", "asm": "30450221008f2e28c9ba559491a1ecd943dc68ee54b2862429162c1c33bbfffd00445630440220028b8e0e6ae708c696ebc6240a778dff588f1df31f8e8156fd91f11a654ecba8[ALL] 03d14bd48f6da2719d8c8db7019ad2ebb4d5effaaf81eb069c0975a6bb295fb0bd"}, "vout": 1, "txid": "6bbb627052cdc2df1c6c71e2affea9d8b34c2ce0753e9b39da576ae188af85d7"}, {"sequence": 4294967295, "scriptSig": {"hex": "48304502210080e959e5bd6ed747e5f0ad1f9c574b2984d84ea2640f430ce5ed150940e86d6902200f401e0f350ca0cd8e49e8ee414715b39fb60e50bee35a60c98cd3524022133b0121025284768378eefc9614895a690c125573eb63444cfb2668ae41e63734ec5fdd9f", "asm": "304502210080e959e5bd6ed747e5f0ad1f9c574b2984d84ea2640f430ce5ed150940e86d6902200f401e0f350ca0cd8e49e8ee414715b39fb60e50bee35a60c98cd3524022133b[ALL] 025284768378eefc9614895a690c125573eb63444cfb2668ae41e63734ec5fdd9f"}, "vout": 0, "txid": "7275ba652954487cedfc6a56fe48905f51ec56767d56a6f85731cf19f43c4e56"}, {"sequence": 4294967295, "scriptSig": {"hex": "4830450221008e5a7e6e8824324f0ba0fc96780d0d91c9f8fe63b552afe3aa5bf3ff5b925f2d022022372d81f23c20ee736bb8b708a1250b578f0c4b89e6731589b5e621ded567730121027b69299bcaae67dd9cb03049d1bbbd0253d9c2814375d3ba1d66d4110babb989", "asm": "30450221008e5a7e6e8824324f0ba0fc96780d0d91c9f8fe63b552afe3aa5bf3ff5b925f2d022022372d81f23c20ee736bb8b708a1250b578f0c4b89e6731589b5e621ded56773[ALL] 027b69299bcaae67dd9cb03049d1bbbd0253d9c2814375d3ba1d66d4110babb989"}, "vout": 1, "txid": "b9a66a4ac0df282132ac57b9d21adda85bc22057834f1dbf859c5c5a856829b9"}], "txid": "e8ed29d36c572c8efe992c86de795f64400a98f55b826b022aeddedda9c21d51", "blocktime": 1537872475, "version": 1, "confirmations": 11487, "time": 1537872475, "locktime": 0, "vsize": 783, "size": 783}