{"hash": "e8ef19607d0a8d654390c6904fae77c91ee735697964ffef24b8777a1a5137bc", "blockhash": "0000000000000000001f76057863aec43deb6fa401d9628bb513d65a8098bfab", "vout": [{"scriptPubKey": {"reqSigs": 1, "hex": "76a914a00269e576db7a92aaa8fa81caa62b081c3fa65488ac", "addresses": ["1Fb41Q1dA6npWredBpRQdcrW4uKJjKMVfA"], "asm": "OP_DUP OP_HASH160 a00269e576db7a92aaa8fa81caa62b081c3fa654 OP_EQUALVERIFY OP_CHECKSIG", "type": "pubkeyhash"}, "value": 0.00233783, "n": 0}, {"scriptPubKey": {"reqSigs": 1, "hex": "76a9148050febcd8d9e5327b58c2c916425172403290b488ac", "addresses": ["1ChUXC3M2FD7JDNUNtDx94HbtRK7CYsJVX"], "asm": "OP_DUP OP_HASH160 8050febcd8d9e5327b58c2c916425172403290b4 OP_EQUALVERIFY OP_CHECKSIG", "type": "pubkeyhash"}, "value": 0.18437803, "n": 1}], "hex": "010000000152a5457c7c75e3d2c47ee83b61c181aa0e8e8777ead94cb835abce6f8ec1a6b3010000006b483045022100c0fe6b7edf40fbe4bda5919c33b9cb712d918fa860c3d00ae4e4c464031413e102204c09dd06bae327fc789129dd5bc23cb14efade8a7b0254101dcdf9fb0c69c2cc0121026963b9b43c6734e9c9208bba46041c07172ddd566a36a3b97d05d8c352f94eebffffffff0237910300000000001976a914a00269e576db7a92aaa8fa81caa62b081c3fa65488acab561901000000001976a9148050febcd8d9e5327b58c2c916425172403290b488ac00000000", "vin": [{"sequence": 4294967295, "scriptSig": {"hex": "483045022100c0fe6b7edf40fbe4bda5919c33b9cb712d918fa860c3d00ae4e4c464031413e102204c09dd06bae327fc789129dd5bc23cb14efade8a7b0254101dcdf9fb0c69c2cc0121026963b9b43c6734e9c9208bba46041c07172ddd566a36a3b97d05d8c352f94eeb", "asm": "3045022100c0fe6b7edf40fbe4bda5919c33b9cb712d918fa860c3d00ae4e4c464031413e102204c09dd06bae327fc789129dd5bc23cb14efade8a7b0254101dcdf9fb0c69c2cc[ALL] 026963b9b43c6734e9c9208bba46041c07172ddd566a36a3b97d05d8c352f94eeb"}, "vout": 1, "txid": "b3a6c18e6fceab35b84cd9ea77878e0eaa81c1613be87ec4d2e3757c7c45a552"}], "txid": "e8ef19607d0a8d654390c6904fae77c91ee735697964ffef24b8777a1a5137bc", "blocktime": 1537873891, "version": 1, "confirmations": 11478, "time": 1537873891, "locktime": 0, "vsize": 226, "size": 226}