{"hash": "e8f2eb86635c49b318486b9b56959bc3ddf46f2ea472a9a0fa5e08c249112e38", "blockhash": "000000000000000000022b45ed06c6f4ccd3cf7fb5ba4856ebd2e58215665228", "vout": [{"scriptPubKey": {"reqSigs": 1, "hex": "76a914ba4b8d5cc1eb217a42ba2df170e61d16d1fb3ac788ac", "addresses": ["1Hz3C94xgLvLfMG4zdt9W2e5c9zayVZ1Hm"], "asm": "OP_DUP OP_HASH160 ba4b8d5cc1eb217a42ba2df170e61d16d1fb3ac7 OP_EQUALVERIFY OP_CHECKSIG", "type": "pubkeyhash"}, "value": 0.00878201, "n": 0}, {"scriptPubKey": {"reqSigs": 1, "hex": "76a914e8cea30989bd15530f819b766684b00dc7ba7cfa88ac", "addresses": ["1NDyJtNTjmwk5xPNhjgAMu4HDHigtobu1s"], "asm": "OP_DUP OP_HASH160 e8cea30989bd15530f819b766684b00dc7ba7cfa OP_EQUALVERIFY OP_CHECKSIG", "type": "pubkeyhash"}, "value": 27.05372268, "n": 1}], "hex": "02000000171725c4a11bbd8c6795f27a410256ad7bffd05d37fc2cd06b0c5edb56132b20e3000000006b483045022100c98a93dbb3f67f704d3deedf55f1594661e525c73642062866dc1af1432b1bd3022046c7482a6af28e6a7bd8ea538709f3d379174a2f070a0c27b6f58799f520e9600121026b24fd27f231e26bc7ed2d5d4105029a10eec3a914e5c4dee22a0840bdde54defeffffff208252f50f385d01bbdfb3e2a44b299d4e4565322816b657ece592dcfe77b09c000000006b483045022100a8aa82c3238831ac2c66c6c64ea2b62cd33626261a6bd3f4eebb3b4c9142357202205ab701fa5075c8c25565ab780f8ddaedd72505777684709bfc35c4bb5d5cf94a0121032b420fccebd7383bd772ab8efec8f74505827f5b917ca014ffdbb80214dc9653feffffff309f9cc977fc89dfa3ee0be7a9218415e406d058c3277f1a91adfba05a9357f4780000006a473044022024bb3988aa4d0d81acfcde40b27e7b5851ecd510f63a51474932c70431216c8c02206cf5f7429d575a11060711272d399d9d014cf67403e0d439cb0004c8fbc258ad0121035477d94043721b10ba41de4799ea6eee4e9602697e93f2703168209be71216dcfeffffff53ed48d88d6c1022fc39721335d7b8ebd72e416c74f826b29ff33379b41e80081a0000006a473044022010a8d733e11f90805296814adf7f68b7f7954d5d8def2d056bcc3cb157ac466a022040a16c74d3707dedfba2d895e0f914d47006c54186c642dd25078454d41fd72d012102c8621691669673bdbf958e82291d727bac3b4acd40b54557b4b1ac46078d2549feffffff668238d1a76b6e29ab978be309996253315c54e20a76a9da6690666900f15351020000006a4730440220521119c83019709a713f587c7853c57c263710966ee947ca3309b43242aafadd02205260483c60902e26ba49997a8f3c07c5b1f6c6b96aba5a53c72cd82b96582b2801210388aea41e44938caaf1ae8684b2686e7ec8696d3a1f40f8e01e12ec5c84d7ec34feffffff6b62583d7b80e566161d64b72d0da00dc5d20190d1d60845ef9db44bf6adaf78000000006a47304402206a38010adb5ad02036cebe9af2f4baafd2d7b47e0f5df5e5feb809c1908717ee02206d95e798a46f60ebdeeb65962cab94e7913e780c3e4b4b3acdc5af3dfc236c6001210269682453c859e88aeddeb03ae373ed571940d5d41272a091ae4bfcd5ffad22dffeffffff6c7145936562035d7dde1f3ff5545934075d8c970c2f39dfef7522f0408bad07000000006b483045022100b3ce753d55b501dddfaf7387326ee3bb5e3d59e2521b5e149ab1b609b0884d430220645f331f8be57eb68220f8c041d3c8313df7a07bf7a0324f54e2bf55ff40cc3801210282eeb8541b1289aa62d2262052c4c13bbac3e86d688832d237b213a192c95715feffffff782df87850db0bb4b226a4f068e06ab2bd88c0c992868ddd3231540049e751cc040000006a473044022035e467f7e7825a70374e3aaffe48de1587605b7fdc24f246fc55552ecd52264d022039c76967083c449e6c3c92ec1e4bd16a2c2d3088777319e31331b19a99f5678801210290efe30303e1786463d49d083201f74844deb7379b0891f50425d353a45744ddfeffffff7a625df3845e55aea26379c52bafba051d97a4ab9b28b610ec80629521501d8e040000006a4730440220557534a02a0501801f37ae071abd3424c91ca118f60b6f002f957c0ed1ce54b10220348a9bdad93c11b12cb0b1451adb62d6709bce6963624093f8911c24988f2bc0012102b34e0fa2307974108aafc87c3c697bbab0733e744ac3be8b25026a8528bf30d7feffffff8a309d4f0fb085936340391046000c967d50c79951a617452b475944f7bfa4e7000000006b483045022100d701680e124b061561020462cf99094b516d7a9daab934f46aeba7d3dd06a06e02205b42b6b045e64a98905fee368f5ae7226ee8b87eabe698518cb5cc6926065ba30121026eed8d28167e9d1ece787b36d50bf4409d28d3246f95e7fdba3cb6cb0d70c3c9feffffff9347588e4d9488c22e4acaf5d640c500171e4e270abffa3a4a4c445cb5deb1df000000006a4730440220439b9bb7d15660b2ae186293ccf631a549425db6dd9d2088c5f8c4beb715b9fc022061ca8dcb4663de05508cfdaf17b7fae47b3483d6f52ff3fe9873795a0fa519160121024cd710e259448deacb33edc83290993f2c26ea372eb5a66ef5f667a5e925f5edfeffffffad0b351b6fdfe28f738c5d53a8bd6fa173addaef6a5b093cb87b1363812a3c5c000000006b48304502210085d1673cf454040e681cde7164b189e528e6d275ee56439629a3ff31803670bd02200a9017f3fd9957598dfa9db23605a58bd67823d2f7e8ab50d9c19ca9fb074907012103e63d6ab646d79c4b854a7a2ae8aff98e485526ff21f81ffc873e1da08c35f812feffffffad0b351b6fdfe28f738c5d53a8bd6fa173addaef6a5b093cb87b1363812a3c5c010000006b483045022100dcc1e76c437b62b480df73f4d17ff58d2027fb2aafafc2a37a95599f049eea20022022c3e4b903787b9cd870897b29b07cd75f9a97f9a907fff87e56e4523a108a77012102864f62c5013738e472cb994d13ccf44cafe7892ee83964df94277a8298872930feffffffb081efe3ffd17be94c6bbcc7dd9a8405564a7a0e16c3e20d0cc37b3987551fe50f0000006b483045022100d48c53a3a177606de8113cddbb2ba8edcac86090ab8147ef2e67cc66ddf0161502201677109db3870ecb715742991e24d16ec284e0727f71091911abbe5810e0e91f012103025e774e84f60e8807f702b2a33cae5256986f40ea7a6efff9325485953105b8feffffffb5f66f945491021f57caa9cbd519b1488413184658cd711376f0e778363c8fed000000006b483045022100a5771ca331f43f55563d5a6d185918f5b34bebce6981de6fa1aaf2dccd00ecd90220535b760ea2f732679ce4449f168e88bf718093a2feafce20132e6ef2865eb283012102ffbd603e89bc07453fb7a80ab739b9bd8c4595e286283fc3e0005c8b1a59d67bfeffffffb619d4408890c7dc09d500e670d1ec3eb067a7ed82f02544a7242e83f0b0c9e0010000006a47304402205f2eb01ee9eb402282a2c1b897d8c38341cf6057ab46316fe28b171e1220ffda02201f994cd6573c0c4143dee9b293196e7f088a6eb6a23bce21e7c6a0843178236e0121039fc51e4adc8cf660295dcf221e13c4c11910bb99c37bb598bd989d437defc3d3feffffffb9131c93a43abc6cfaf4c535e83cd88d8b1ebccc99f82b2d2d04eba92c2d38f1050000006b483045022100aa910cedaa93b5f93a9eee206430c40a6eadf3371a32b3e465dc01560ccafa1b02201d22350caa837b4617f262e4280550e4a12c13d680c65bc2b5044c15c14333a5012102fbcacb10b13cfc40fe6ecee41c63fface18db99f361dd7739c8bfe7b2bcc30cafeffffffbfd78519814a82471cf83c1fd14e83f622c158bb051ed77e62603dda88b21a2c000000006a47304402203a21954149478062f324ccc0d6e8a294354cfa7529782143bed01aaaf7090f030220082d691c2cbc4060734d583ce9e2cb4584a2cd320a9b62d1c14f8e78dc58949b01210353f0ea8da5125e5c98322bc6e5a70e655eda7197d8a4b0381826851739d035bcfeffffffc26d2a1578722a64b686da728ead487bdbcc285e8d90d8aed422d841aca3e83d000000006b4830450221008cb430f5f414b71c19b8cf9fd7d638fc62d1980a8c8f94895be799f0b426bc0a02202d0989a058adb9bd99c543e837f0a92af3f398678030bf3965b6ab177303e1aa012102ab4acbbc5a2851e2cf8728b49c5812ad3e3504d90c80124e4fb0bb49bcae0581feffffffddbd0dfe92942495eec9d7b4c4322962e28ad329b9d209036f00eee34a1865bd010000006b483045022100b9253eb250edb89606116722dd69160be158df6656e718d504faf2c94bea9b2b02204c8c9dc7830b7fd397ccfbda5f92fdfb356d07986891fb7065a76079b59475860121028b195f17117db02427b8643da19221da3008e375714303f118c79d30edd5d869feffffffe6cdcddfdace2f4c099ec31ba8a7ebaa0fe578faa28d60a5a1b66c127c7b20e5000000006b483045022100e091b806311f7adf319be7e5e7152699037b530a7f46811e9d20a9f9491f636502205be9a9038641bdc4e0c12b3e6e9b1fa86c5aa411773c7212af787b3f87c620320121032f108a06668a99fa241472f92b359f9d2e4dcf6224697d95a47e3e75f4b7798dfeffffffe96ec3403119f2c6dcfb980605c135ad925290fb21f678ca7c7a84384165781d000000006a47304402206d493bcba1927c452cf84070d837c91ef1ae2e65d5d5e4c38437693aa0ff89bc022039413de96053c70e0b83f0d9986e8b316d4313ea8662a2fb1b0b7d637f5f2a9201210269682453c859e88aeddeb03ae373ed571940d5d41272a091ae4bfcd5ffad22dffeffffffed24bf93b3a1fa87bd0a915faf7bd6d898c4cd9634f8c96ab41bf327cc33f0f6dc0000006a47304402205f38c39765a5b58c500c2efd6752adc5a5b07d9a36bfafe6013925e13bb4b7c702205797b77669eb2f5a9e3f0a491d59830b8c08e941128f9599479afc4e0e14e09a012103282cb15fe8a42cdcd8a9a1b24046214cdcc3657672bccd927a7c9b67866c9e58feffffff0279660d00000000001976a914ba4b8d5cc1eb217a42ba2df170e61d16d1fb3ac788ac6cb440a1000000001976a914e8cea30989bd15530f819b766684b00dc7ba7cfa88ac0b490800", "vin": [{"sequence": 4294967294, "scriptSig": {"hex": "483045022100c98a93dbb3f67f704d3deedf55f1594661e525c73642062866dc1af1432b1bd3022046c7482a6af28e6a7bd8ea538709f3d379174a2f070a0c27b6f58799f520e9600121026b24fd27f231e26bc7ed2d5d4105029a10eec3a914e5c4dee22a0840bdde54de", "asm": "3045022100c98a93dbb3f67f704d3deedf55f1594661e525c73642062866dc1af1432b1bd3022046c7482a6af28e6a7bd8ea538709f3d379174a2f070a0c27b6f58799f520e960[ALL] 026b24fd27f231e26bc7ed2d5d4105029a10eec3a914e5c4dee22a0840bdde54de"}, "vout": 0, "txid": "e3202b1356db5e0c6bd02cfc375dd0ff7bad5602417af295678cbd1ba1c42517"}, {"sequence": 4294967294, "scriptSig": {"hex": "483045022100a8aa82c3238831ac2c66c6c64ea2b62cd33626261a6bd3f4eebb3b4c9142357202205ab701fa5075c8c25565ab780f8ddaedd72505777684709bfc35c4bb5d5cf94a0121032b420fccebd7383bd772ab8efec8f74505827f5b917ca014ffdbb80214dc9653", "asm": "3045022100a8aa82c3238831ac2c66c6c64ea2b62cd33626261a6bd3f4eebb3b4c9142357202205ab701fa5075c8c25565ab780f8ddaedd72505777684709bfc35c4bb5d5cf94a[ALL] 032b420fccebd7383bd772ab8efec8f74505827f5b917ca014ffdbb80214dc9653"}, "vout": 0, "txid": "9cb077fedc92e5ec57b616283265454e9d294ba4e2b3dfbb015d380ff5528220"}, {"sequence": 4294967294, "scriptSig": {"hex": "473044022024bb3988aa4d0d81acfcde40b27e7b5851ecd510f63a51474932c70431216c8c02206cf5f7429d575a11060711272d399d9d014cf67403e0d439cb0004c8fbc258ad0121035477d94043721b10ba41de4799ea6eee4e9602697e93f2703168209be71216dc", "asm": "3044022024bb3988aa4d0d81acfcde40b27e7b5851ecd510f63a51474932c70431216c8c02206cf5f7429d575a11060711272d399d9d014cf67403e0d439cb0004c8fbc258ad[ALL] 035477d94043721b10ba41de4799ea6eee4e9602697e93f2703168209be71216dc"}, "vout": 120, "txid": "f457935aa0fbad911a7f27c358d006e4158421a9e70beea3df89fc77c99c9f30"}, {"sequence": 4294967294, "scriptSig": {"hex": "473044022010a8d733e11f90805296814adf7f68b7f7954d5d8def2d056bcc3cb157ac466a022040a16c74d3707dedfba2d895e0f914d47006c54186c642dd25078454d41fd72d012102c8621691669673bdbf958e82291d727bac3b4acd40b54557b4b1ac46078d2549", "asm": "3044022010a8d733e11f90805296814adf7f68b7f7954d5d8def2d056bcc3cb157ac466a022040a16c74d3707dedfba2d895e0f914d47006c54186c642dd25078454d41fd72d[ALL] 02c8621691669673bdbf958e82291d727bac3b4acd40b54557b4b1ac46078d2549"}, "vout": 26, "txid": "08801eb47933f39fb226f8746c412ed7ebb8d735137239fc22106c8dd848ed53"}, {"sequence": 4294967294, "scriptSig": {"hex": "4730440220521119c83019709a713f587c7853c57c263710966ee947ca3309b43242aafadd02205260483c60902e26ba49997a8f3c07c5b1f6c6b96aba5a53c72cd82b96582b2801210388aea41e44938caaf1ae8684b2686e7ec8696d3a1f40f8e01e12ec5c84d7ec34", "asm": "30440220521119c83019709a713f587c7853c57c263710966ee947ca3309b43242aafadd02205260483c60902e26ba49997a8f3c07c5b1f6c6b96aba5a53c72cd82b96582b28[ALL] 0388aea41e44938caaf1ae8684b2686e7ec8696d3a1f40f8e01e12ec5c84d7ec34"}, "vout": 2, "txid": "5153f10069669066daa9760ae2545c3153629909e38b97ab296e6ba7d1388266"}, {"sequence": 4294967294, "scriptSig": {"hex": "47304402206a38010adb5ad02036cebe9af2f4baafd2d7b47e0f5df5e5feb809c1908717ee02206d95e798a46f60ebdeeb65962cab94e7913e780c3e4b4b3acdc5af3dfc236c6001210269682453c859e88aeddeb03ae373ed571940d5d41272a091ae4bfcd5ffad22df", "asm": "304402206a38010adb5ad02036cebe9af2f4baafd2d7b47e0f5df5e5feb809c1908717ee02206d95e798a46f60ebdeeb65962cab94e7913e780c3e4b4b3acdc5af3dfc236c60[ALL] 0269682453c859e88aeddeb03ae373ed571940d5d41272a091ae4bfcd5ffad22df"}, "vout": 0, "txid": "78afadf64bb49def4508d6d19001d2c50da00d2db7641d1666e5807b3d58626b"}, {"sequence": 4294967294, "scriptSig": {"hex": "483045022100b3ce753d55b501dddfaf7387326ee3bb5e3d59e2521b5e149ab1b609b0884d430220645f331f8be57eb68220f8c041d3c8313df7a07bf7a0324f54e2bf55ff40cc3801210282eeb8541b1289aa62d2262052c4c13bbac3e86d688832d237b213a192c95715", "asm": "3045022100b3ce753d55b501dddfaf7387326ee3bb5e3d59e2521b5e149ab1b609b0884d430220645f331f8be57eb68220f8c041d3c8313df7a07bf7a0324f54e2bf55ff40cc38[ALL] 0282eeb8541b1289aa62d2262052c4c13bbac3e86d688832d237b213a192c95715"}, "vout": 0, "txid": "07ad8b40f02275efdf392f0c978c5d07345954f53f1fde7d5d0362659345716c"}, {"sequence": 4294967294, "scriptSig": {"hex": "473044022035e467f7e7825a70374e3aaffe48de1587605b7fdc24f246fc55552ecd52264d022039c76967083c449e6c3c92ec1e4bd16a2c2d3088777319e31331b19a99f5678801210290efe30303e1786463d49d083201f74844deb7379b0891f50425d353a45744dd", "asm": "3044022035e467f7e7825a70374e3aaffe48de1587605b7fdc24f246fc55552ecd52264d022039c76967083c449e6c3c92ec1e4bd16a2c2d3088777319e31331b19a99f56788[ALL] 0290efe30303e1786463d49d083201f74844deb7379b0891f50425d353a45744dd"}, "vout": 4, "txid": "cc51e74900543132dd8d8692c9c088bdb26ae068f0a426b2b40bdb5078f82d78"}, {"sequence": 4294967294, "scriptSig": {"hex": "4730440220557534a02a0501801f37ae071abd3424c91ca118f60b6f002f957c0ed1ce54b10220348a9bdad93c11b12cb0b1451adb62d6709bce6963624093f8911c24988f2bc0012102b34e0fa2307974108aafc87c3c697bbab0733e744ac3be8b25026a8528bf30d7", "asm": "30440220557534a02a0501801f37ae071abd3424c91ca118f60b6f002f957c0ed1ce54b10220348a9bdad93c11b12cb0b1451adb62d6709bce6963624093f8911c24988f2bc0[ALL] 02b34e0fa2307974108aafc87c3c697bbab0733e744ac3be8b25026a8528bf30d7"}, "vout": 4, "txid": "8e1d5021956280ec10b6289baba4971d05baaf2bc57963a2ae555e84f35d627a"}, {"sequence": 4294967294, "scriptSig": {"hex": "483045022100d701680e124b061561020462cf99094b516d7a9daab934f46aeba7d3dd06a06e02205b42b6b045e64a98905fee368f5ae7226ee8b87eabe698518cb5cc6926065ba30121026eed8d28167e9d1ece787b36d50bf4409d28d3246f95e7fdba3cb6cb0d70c3c9", "asm": "3045022100d701680e124b061561020462cf99094b516d7a9daab934f46aeba7d3dd06a06e02205b42b6b045e64a98905fee368f5ae7226ee8b87eabe698518cb5cc6926065ba3[ALL] 026eed8d28167e9d1ece787b36d50bf4409d28d3246f95e7fdba3cb6cb0d70c3c9"}, "vout": 0, "txid": "e7a4bff74459472b4517a65199c7507d960c0046103940639385b00f4f9d308a"}, {"sequence": 4294967294, "scriptSig": {"hex": "4730440220439b9bb7d15660b2ae186293ccf631a549425db6dd9d2088c5f8c4beb715b9fc022061ca8dcb4663de05508cfdaf17b7fae47b3483d6f52ff3fe9873795a0fa519160121024cd710e259448deacb33edc83290993f2c26ea372eb5a66ef5f667a5e925f5ed", "asm": "30440220439b9bb7d15660b2ae186293ccf631a549425db6dd9d2088c5f8c4beb715b9fc022061ca8dcb4663de05508cfdaf17b7fae47b3483d6f52ff3fe9873795a0fa51916[ALL] 024cd710e259448deacb33edc83290993f2c26ea372eb5a66ef5f667a5e925f5ed"}, "vout": 0, "txid": "dfb1deb55c444c4a3afabf0a274e1e1700c540d6f5ca4a2ec288944d8e584793"}, {"sequence": 4294967294, "scriptSig": {"hex": "48304502210085d1673cf454040e681cde7164b189e528e6d275ee56439629a3ff31803670bd02200a9017f3fd9957598dfa9db23605a58bd67823d2f7e8ab50d9c19ca9fb074907012103e63d6ab646d79c4b854a7a2ae8aff98e485526ff21f81ffc873e1da08c35f812", "asm": "304502210085d1673cf454040e681cde7164b189e528e6d275ee56439629a3ff31803670bd02200a9017f3fd9957598dfa9db23605a58bd67823d2f7e8ab50d9c19ca9fb074907[ALL] 03e63d6ab646d79c4b854a7a2ae8aff98e485526ff21f81ffc873e1da08c35f812"}, "vout": 0, "txid": "5c3c2a8163137bb83c095b6aefdaad73a16fbda8535d8c738fe2df6f1b350bad"}, {"sequence": 4294967294, "scriptSig": {"hex": "483045022100dcc1e76c437b62b480df73f4d17ff58d2027fb2aafafc2a37a95599f049eea20022022c3e4b903787b9cd870897b29b07cd75f9a97f9a907fff87e56e4523a108a77012102864f62c5013738e472cb994d13ccf44cafe7892ee83964df94277a8298872930", "asm": "3045022100dcc1e76c437b62b480df73f4d17ff58d2027fb2aafafc2a37a95599f049eea20022022c3e4b903787b9cd870897b29b07cd75f9a97f9a907fff87e56e4523a108a77[ALL] 02864f62c5013738e472cb994d13ccf44cafe7892ee83964df94277a8298872930"}, "vout": 1, "txid": "5c3c2a8163137bb83c095b6aefdaad73a16fbda8535d8c738fe2df6f1b350bad"}, {"sequence": 4294967294, "scriptSig": {"hex": "483045022100d48c53a3a177606de8113cddbb2ba8edcac86090ab8147ef2e67cc66ddf0161502201677109db3870ecb715742991e24d16ec284e0727f71091911abbe5810e0e91f012103025e774e84f60e8807f702b2a33cae5256986f40ea7a6efff9325485953105b8", "asm": "3045022100d48c53a3a177606de8113cddbb2ba8edcac86090ab8147ef2e67cc66ddf0161502201677109db3870ecb715742991e24d16ec284e0727f71091911abbe5810e0e91f[ALL] 03025e774e84f60e8807f702b2a33cae5256986f40ea7a6efff9325485953105b8"}, "vout": 15, "txid": "e51f5587397bc30c0de2c3160e7a4a5605849addc7bc6b4ce97bd1ffe3ef81b0"}, {"sequence": 4294967294, "scriptSig": {"hex": "483045022100a5771ca331f43f55563d5a6d185918f5b34bebce6981de6fa1aaf2dccd00ecd90220535b760ea2f732679ce4449f168e88bf718093a2feafce20132e6ef2865eb283012102ffbd603e89bc07453fb7a80ab739b9bd8c4595e286283fc3e0005c8b1a59d67b", "asm": "3045022100a5771ca331f43f55563d5a6d185918f5b34bebce6981de6fa1aaf2dccd00ecd90220535b760ea2f732679ce4449f168e88bf718093a2feafce20132e6ef2865eb283[ALL] 02ffbd603e89bc07453fb7a80ab739b9bd8c4595e286283fc3e0005c8b1a59d67b"}, "vout": 0, "txid": "ed8f3c3678e7f0761371cd584618138448b119d5cba9ca571f029154946ff6b5"}, {"sequence": 4294967294, "scriptSig": {"hex": "47304402205f2eb01ee9eb402282a2c1b897d8c38341cf6057ab46316fe28b171e1220ffda02201f994cd6573c0c4143dee9b293196e7f088a6eb6a23bce21e7c6a0843178236e0121039fc51e4adc8cf660295dcf221e13c4c11910bb99c37bb598bd989d437defc3d3", "asm": "304402205f2eb01ee9eb402282a2c1b897d8c38341cf6057ab46316fe28b171e1220ffda02201f994cd6573c0c4143dee9b293196e7f088a6eb6a23bce21e7c6a0843178236e[ALL] 039fc51e4adc8cf660295dcf221e13c4c11910bb99c37bb598bd989d437defc3d3"}, "vout": 1, "txid": "e0c9b0f0832e24a74425f082eda767b03eecd170e600d509dcc7908840d419b6"}, {"sequence": 4294967294, "scriptSig": {"hex": "483045022100aa910cedaa93b5f93a9eee206430c40a6eadf3371a32b3e465dc01560ccafa1b02201d22350caa837b4617f262e4280550e4a12c13d680c65bc2b5044c15c14333a5012102fbcacb10b13cfc40fe6ecee41c63fface18db99f361dd7739c8bfe7b2bcc30ca", "asm": "3045022100aa910cedaa93b5f93a9eee206430c40a6eadf3371a32b3e465dc01560ccafa1b02201d22350caa837b4617f262e4280550e4a12c13d680c65bc2b5044c15c14333a5[ALL] 02fbcacb10b13cfc40fe6ecee41c63fface18db99f361dd7739c8bfe7b2bcc30ca"}, "vout": 5, "txid": "f1382d2ca9eb042d2d2bf899ccbc1e8b8dd83ce835c5f4fa6cbc3aa4931c13b9"}, {"sequence": 4294967294, "scriptSig": {"hex": "47304402203a21954149478062f324ccc0d6e8a294354cfa7529782143bed01aaaf7090f030220082d691c2cbc4060734d583ce9e2cb4584a2cd320a9b62d1c14f8e78dc58949b01210353f0ea8da5125e5c98322bc6e5a70e655eda7197d8a4b0381826851739d035bc", "asm": "304402203a21954149478062f324ccc0d6e8a294354cfa7529782143bed01aaaf7090f030220082d691c2cbc4060734d583ce9e2cb4584a2cd320a9b62d1c14f8e78dc58949b[ALL] 0353f0ea8da5125e5c98322bc6e5a70e655eda7197d8a4b0381826851739d035bc"}, "vout": 0, "txid": "2c1ab288da3d60627ed71e05bb58c122f6834ed11f3cf81c47824a811985d7bf"}, {"sequence": 4294967294, "scriptSig": {"hex": "4830450221008cb430f5f414b71c19b8cf9fd7d638fc62d1980a8c8f94895be799f0b426bc0a02202d0989a058adb9bd99c543e837f0a92af3f398678030bf3965b6ab177303e1aa012102ab4acbbc5a2851e2cf8728b49c5812ad3e3504d90c80124e4fb0bb49bcae0581", "asm": "30450221008cb430f5f414b71c19b8cf9fd7d638fc62d1980a8c8f94895be799f0b426bc0a02202d0989a058adb9bd99c543e837f0a92af3f398678030bf3965b6ab177303e1aa[ALL] 02ab4acbbc5a2851e2cf8728b49c5812ad3e3504d90c80124e4fb0bb49bcae0581"}, "vout": 0, "txid": "3de8a3ac41d822d4aed8908d5e28ccdb7b48ad8e72da86b6642a7278152a6dc2"}, {"sequence": 4294967294, "scriptSig": {"hex": "483045022100b9253eb250edb89606116722dd69160be158df6656e718d504faf2c94bea9b2b02204c8c9dc7830b7fd397ccfbda5f92fdfb356d07986891fb7065a76079b59475860121028b195f17117db02427b8643da19221da3008e375714303f118c79d30edd5d869", "asm": "3045022100b9253eb250edb89606116722dd69160be158df6656e718d504faf2c94bea9b2b02204c8c9dc7830b7fd397ccfbda5f92fdfb356d07986891fb7065a76079b5947586[ALL] 028b195f17117db02427b8643da19221da3008e375714303f118c79d30edd5d869"}, "vout": 1, "txid": "bd65184ae3ee006f0309d2b929d38ae2622932c4b4d7c9ee95249492fe0dbddd"}, {"sequence": 4294967294, "scriptSig": {"hex": "483045022100e091b806311f7adf319be7e5e7152699037b530a7f46811e9d20a9f9491f636502205be9a9038641bdc4e0c12b3e6e9b1fa86c5aa411773c7212af787b3f87c620320121032f108a06668a99fa241472f92b359f9d2e4dcf6224697d95a47e3e75f4b7798d", "asm": "3045022100e091b806311f7adf319be7e5e7152699037b530a7f46811e9d20a9f9491f636502205be9a9038641bdc4e0c12b3e6e9b1fa86c5aa411773c7212af787b3f87c62032[ALL] 032f108a06668a99fa241472f92b359f9d2e4dcf6224697d95a47e3e75f4b7798d"}, "vout": 0, "txid": "e5207b7c126cb6a1a5608da2fa78e50faaeba7a81bc39e094c2fcedadfcdcde6"}, {"sequence": 4294967294, "scriptSig": {"hex": "47304402206d493bcba1927c452cf84070d837c91ef1ae2e65d5d5e4c38437693aa0ff89bc022039413de96053c70e0b83f0d9986e8b316d4313ea8662a2fb1b0b7d637f5f2a9201210269682453c859e88aeddeb03ae373ed571940d5d41272a091ae4bfcd5ffad22df", "asm": "304402206d493bcba1927c452cf84070d837c91ef1ae2e65d5d5e4c38437693aa0ff89bc022039413de96053c70e0b83f0d9986e8b316d4313ea8662a2fb1b0b7d637f5f2a92[ALL] 0269682453c859e88aeddeb03ae373ed571940d5d41272a091ae4bfcd5ffad22df"}, "vout": 0, "txid": "1d78654138847a7cca78f621fb905292ad35c1050698fbdcc6f2193140c36ee9"}, {"sequence": 4294967294, "scriptSig": {"hex": "47304402205f38c39765a5b58c500c2efd6752adc5a5b07d9a36bfafe6013925e13bb4b7c702205797b77669eb2f5a9e3f0a491d59830b8c08e941128f9599479afc4e0e14e09a012103282cb15fe8a42cdcd8a9a1b24046214cdcc3657672bccd927a7c9b67866c9e58", "asm": "304402205f38c39765a5b58c500c2efd6752adc5a5b07d9a36bfafe6013925e13bb4b7c702205797b77669eb2f5a9e3f0a491d59830b8c08e941128f9599479afc4e0e14e09a[ALL] 03282cb15fe8a42cdcd8a9a1b24046214cdcc3657672bccd927a7c9b67866c9e58"}, "vout": 220, "txid": "f6f033cc27f31bb46ac9f83496cdc498d8d67baf5f910abd87faa1b393bf24ed"}], "txid": "e8f2eb86635c49b318486b9b56959bc3ddf46f2ea472a9a0fa5e08c249112e38", "blocktime": 1537869901, "version": 2, "confirmations": 11522, "time": 1537869901, "locktime": 542987, "vsize": 3471, "size": 3471}