{"hash": "e8fdefb205d260168d9d089e0090eabf97b486b964470541b07aa87a9e804945", "blockhash": "0000000000000000001f76057863aec43deb6fa401d9628bb513d65a8098bfab", "vout": [{"scriptPubKey": {"reqSigs": 1, "hex": "a9143410b0a7b50b2abd9a4ca32d2a2b717699d3e5a987", "addresses": ["36SK4AVrN6ro3cEWVrMVvqCUFtZHk2UCG4"], "asm": "OP_HASH160 3410b0a7b50b2abd9a4ca32d2a2b717699d3e5a9 OP_EQUAL", "type": "scripthash"}, "value": 0.168941, "n": 0}, {"scriptPubKey": {"reqSigs": 1, "hex": "76a9140ffbd8fca6e8778fca2d37a0b46407e8b14e33e388ac", "addresses": ["12TWqZEqB1pqUofjmgaSUxzor1DN7wzAPU"], "asm": "OP_DUP OP_HASH160 0ffbd8fca6e8778fca2d37a0b46407e8b14e33e3 OP_EQUALVERIFY OP_CHECKSIG", "type": "pubkeyhash"}, "value": 16.49092154, "n": 1}], "hex": "01000000018e643bbfd25e2f3b808af3948193a502198ef235a19ab96d246a23b3835dc345010000008a4730440220147b2a93c79e3f6e9a6d795e0df1c92c3e78098892da85b67897c7cf3433881a022068943135d802ca0c3d1e2358cf048707619d0775e941810f0e37a5a088cd34eb0141043d3231d748da62221b0d59dfb3d9342f0ca9c7f3461dc2d89b7fba35c7d4986d350533fba458840c9441292f32a3af0dfdbade232008fbbe4ae40ac90f4aa9cefdffffff0294c801010000000017a9143410b0a7b50b2abd9a4ca32d2a2b717699d3e5a9873a264b62000000001976a9140ffbd8fca6e8778fca2d37a0b46407e8b14e33e388ac14490800", "vin": [{"sequence": 4294967293, "scriptSig": {"hex": "4730440220147b2a93c79e3f6e9a6d795e0df1c92c3e78098892da85b67897c7cf3433881a022068943135d802ca0c3d1e2358cf048707619d0775e941810f0e37a5a088cd34eb0141043d3231d748da62221b0d59dfb3d9342f0ca9c7f3461dc2d89b7fba35c7d4986d350533fba458840c9441292f32a3af0dfdbade232008fbbe4ae40ac90f4aa9ce", "asm": "30440220147b2a93c79e3f6e9a6d795e0df1c92c3e78098892da85b67897c7cf3433881a022068943135d802ca0c3d1e2358cf048707619d0775e941810f0e37a5a088cd34eb[ALL] 043d3231d748da62221b0d59dfb3d9342f0ca9c7f3461dc2d89b7fba35c7d4986d350533fba458840c9441292f32a3af0dfdbade232008fbbe4ae40ac90f4aa9ce"}, "vout": 1, "txid": "45c35d83b3236a246db99aa135f28e1902a5938194f38a803b2f5ed2bf3b648e"}], "txid": "e8fdefb205d260168d9d089e0090eabf97b486b964470541b07aa87a9e804945", "blocktime": 1537873891, "version": 1, "confirmations": 11477, "time": 1537873891, "locktime": 542996, "vsize": 255, "size": 255}