{"hash": "e7af224df52fa0f5cfb881509f51011a139310c87dec25ea980ed8e81290db23", "blockhash": "00000000000000000024a2167bbff67b0be802c0b01cdd79e6331c2be6459f87", "vout": [{"scriptPubKey": {"reqSigs": 1, "hex": "a91432e1233b69e6d01f37d68395f5c7ae510f84443287", "addresses": ["36L3QyK7uvjA6K62gNuUUv2UcdVMkJ2kB4"], "asm": "OP_HASH160 32e1233b69e6d01f37d68395f5c7ae510f844432 OP_EQUAL", "type": "scripthash"}, "value": 0.09863871, "n": 0}, {"scriptPubKey": {"reqSigs": 1, "hex": "a91499554b5075e7b3ac944f77b51569c1b88aa7982287", "addresses": ["3FfmVEnV3tko8CeUrsvioQgKDCmFVJuiQj"], "asm": "OP_HASH160 99554b5075e7b3ac944f77b51569c1b88aa79822 OP_EQUAL", "type": "scripthash"}, "value": 0.64154433, "n": 1}], "hex": "02000000000101730fa170fcb611cd4d29d35ce4b4f148a1bae433fecd951df667c79ae1f4e5f8000000001716001407ff25bfffe9bb3a2f8595abc3f1776e85654754feffffff02bf8296000000000017a91432e1233b69e6d01f37d68395f5c7ae510f8444328741ebd2030000000017a91499554b5075e7b3ac944f77b51569c1b88aa798228702483045022100b9efa9e14a19a30fbbda5922e02ca8021b2b1a8e561cc16be10fe215e351b3d802200d2fe28946329f66426da58d3f7370ec7185e961790b752fea7bfb5c3553f4aa01210242cc6219911c2b88f0615a1698d4fe15f3bb4b271309159fa7a5d10db6085d950d490800", "vin": [{"txinwitness": ["3045022100b9efa9e14a19a30fbbda5922e02ca8021b2b1a8e561cc16be10fe215e351b3d802200d2fe28946329f66426da58d3f7370ec7185e961790b752fea7bfb5c3553f4aa01", "0242cc6219911c2b88f0615a1698d4fe15f3bb4b271309159fa7a5d10db6085d95"], "sequence": 4294967294, "scriptSig": {"hex": "16001407ff25bfffe9bb3a2f8595abc3f1776e85654754", "asm": "001407ff25bfffe9bb3a2f8595abc3f1776e85654754"}, "vout": 0, "txid": "f8e5f4e19ac767f61d95cdfe33e4baa148f1b4e45cd3294dcd11b6fc70a10f73"}], "txid": "e9087732bf363215428679b4f9179299b6c8edfe6f7db4d6dbbab658d6bb1be6", "blocktime": 1537870564, "version": 2, "confirmations": 11515, "time": 1537870564, "locktime": 542989, "vsize": 166, "size": 248}