{"hash": "c5cbb37ad75b42dc76a1662f47fa5325b4c008924439d9eac3c04b1aac33b429", "blockhash": "0000000000000000000dcc0f55137456b1a82d3642486a52398922ac4d620174", "vout": [{"scriptPubKey": {"reqSigs": 1, "hex": "76a914cbc08e3ec8e7949387b924501b8bf71afa8731a988ac", "addresses": ["1KaLqwf9n2DFtQvpuHRrxZtJktna6ktPMZ"], "asm": "OP_DUP OP_HASH160 cbc08e3ec8e7949387b924501b8bf71afa8731a9 OP_EQUALVERIFY OP_CHECKSIG", "type": "pubkeyhash"}, "value": 0.00314, "n": 0}, {"scriptPubKey": {"reqSigs": 1, "hex": "76a914f972eb64702b7632f504a777f2b08941ce02bcd388ac", "addresses": ["1PjxvWjkTPSLyQi6eBsHhFNbSGubSFRGMk"], "asm": "OP_DUP OP_HASH160 f972eb64702b7632f504a777f2b08941ce02bcd3 OP_EQUALVERIFY OP_CHECKSIG", "type": "pubkeyhash"}, "value": 6.829e-05, "n": 1}, {"scriptPubKey": {"reqSigs": 1, "hex": "a914b8c3fef1e9e055ad129ea4f7a4e540d161223dd187", "addresses": ["3JXy3sarpxBn8UEh1ZNohZbwJu7HZT9zPz"], "asm": "OP_HASH160 b8c3fef1e9e055ad129ea4f7a4e540d161223dd1 OP_EQUAL", "type": "scripthash"}, "value": 0.0029566, "n": 2}, {"scriptPubKey": {"reqSigs": 1, "hex": "a914558a9943dac163721c0c77a4117c7b3a02e3035e87", "addresses": ["39VKPrZLyTWUkNiNHry9QkWKWSUxRX7n7v"], "asm": "OP_HASH160 558a9943dac163721c0c77a4117c7b3a02e3035e OP_EQUAL", "type": "scripthash"}, "value": 0.0027766, "n": 3}, {"scriptPubKey": {"reqSigs": 1, "hex": "a914c45077a116c05fc0be06a845358ad5858d5f5b7687", "addresses": ["3Kb2m7FnQ3Yb2SzJjvzaKASKADK6ov6R8J"], "asm": "OP_HASH160 c45077a116c05fc0be06a845358ad5858d5f5b76 OP_EQUAL", "type": "scripthash"}, "value": 0.0022726, "n": 4}, {"scriptPubKey": {"reqSigs": 1, "hex": "76a914125b633d5597b28c1515e2e01d1be08f70c5d7c988ac", "addresses": ["12g4eBMWSDzrJu8ged5X3MdLX1wVXhh1pX"], "asm": "OP_DUP OP_HASH160 125b633d5597b28c1515e2e01d1be08f70c5d7c9 OP_EQUALVERIFY OP_CHECKSIG", "type": "pubkeyhash"}, "value": 0.00223281, "n": 5}, {"scriptPubKey": {"reqSigs": 1, "hex": "a9147cde85b2c290c2ab9596d13c55f8b5448a40303887", "addresses": ["3D5GHSxRZQ8duTibC43f3r1tEGDNpezG8m"], "asm": "OP_HASH160 7cde85b2c290c2ab9596d13c55f8b5448a403038 OP_EQUAL", "type": "scripthash"}, "value": 0.0033226, "n": 6}, {"scriptPubKey": {"reqSigs": 1, "hex": "a9147f757a8260b8eeb39ff4c35a652003e3ecb5964e87", "addresses": ["3DJxUTag8FER5anJua5LN8rph9v6YaRwG2"], "asm": "OP_HASH160 7f757a8260b8eeb39ff4c35a652003e3ecb5964e OP_EQUAL", "type": "scripthash"}, "value": 0.00422508, "n": 7}, {"scriptPubKey": {"reqSigs": 1, "hex": "a914e54360aea2d930f718bb883f6f0fcb1e3ae290a987", "addresses": ["3NbFNxMLUTMwtp79brocVUfcjm4AnA97Jg"], "asm": "OP_HASH160 e54360aea2d930f718bb883f6f0fcb1e3ae290a9 OP_EQUAL", "type": "scripthash"}, "value": 0.0031896, "n": 8}, {"scriptPubKey": {"reqSigs": 1, "hex": "76a914fdb5dec2ae70530b21f100237d4a531b0358a7ff88ac", "addresses": ["1Q8Vq6QaM751RMVjyLyD8MLSu1AsX8v7HB"], "asm": "OP_DUP OP_HASH160 fdb5dec2ae70530b21f100237d4a531b0358a7ff OP_EQUALVERIFY OP_CHECKSIG", "type": "pubkeyhash"}, "value": 0.00217055, "n": 9}, {"scriptPubKey": {"reqSigs": 1, "hex": "a914abb393e12848c693efbb44bf861446abce30685387", "addresses": ["3HLtbcy3Cx1mgaFMhR1SEyNAd2tic3ww5Q"], "asm": "OP_HASH160 abb393e12848c693efbb44bf861446abce306853 OP_EQUAL", "type": "scripthash"}, "value": 0.0025626, "n": 10}, {"scriptPubKey": {"reqSigs": 1, "hex": "a914579fdbaab15d631dea7ccba5ffe983406733574487", "addresses": ["39gLDNDgXuxy2bcSxQh1SB1dMDEVL8fBDY"], "asm": "OP_HASH160 579fdbaab15d631dea7ccba5ffe9834067335744 OP_EQUAL", "type": "scripthash"}, "value": 0.00198864, "n": 11}, {"scriptPubKey": {"reqSigs": 1, "hex": "a914dba404bda6050a12309b735f8e684d4c8861160587", "addresses": ["3MiNPm6ZhwoaWZoGX3VJAvNWw3T7qeiZru"], "asm": "OP_HASH160 dba404bda6050a12309b735f8e684d4c88611605 OP_EQUAL", "type": "scripthash"}, "value": 0.00469479, "n": 12}, {"scriptPubKey": {"reqSigs": 1, "hex": "a91422070528419c17ac9790c8f6b4cb81bd4594316987", "addresses": ["34nwJqLfjHbBA2rrzX8nAjiZktSDd56LDC"], "asm": "OP_HASH160 22070528419c17ac9790c8f6b4cb81bd45943169 OP_EQUAL", "type": "scripthash"}, "value": 0.00607208, "n": 13}, {"scriptPubKey": {"reqSigs": 1, "hex": "a9146c7cc1571cef142b87a9e2b5ee2eb3670c5d396887", "addresses": ["3BaeMQZxBm64HKeAyikmseFSzdVHB1Hne5"], "asm": "OP_HASH160 6c7cc1571cef142b87a9e2b5ee2eb3670c5d3968 OP_EQUAL", "type": "scripthash"}, "value": 0.0027056, "n": 14}, {"scriptPubKey": {"reqSigs": 1, "hex": "a9141e2b98fa94c016bacfc94a791bd498229372446587", "addresses": ["34SYRWbseKGWSGaNSjhpK1DqSzzwyzKSk9"], "asm": "OP_HASH160 1e2b98fa94c016bacfc94a791bd4982293724465 OP_EQUAL", "type": "scripthash"}, "value": 0.0026636, "n": 15}, {"scriptPubKey": {"reqSigs": 1, "hex": "a914be925a04f267e05b911159021b73859b5ba764b487", "addresses": ["3K4fdgVBuBmHv38kpWfRMGvtyaMhxDWquR"], "asm": "OP_HASH160 be925a04f267e05b911159021b73859b5ba764b4 OP_EQUAL", "type": "scripthash"}, "value": 0.0032036, "n": 16}, {"scriptPubKey": {"reqSigs": 1, "hex": "a91472e8e5a3fe87d1665c03eae499e90b6344dc3c1c87", "addresses": ["3CAbxP7KVxCa1FmZRFtrdTTixbi2qXDsL4"], "asm": "OP_HASH160 72e8e5a3fe87d1665c03eae499e90b6344dc3c1c OP_EQUAL", "type": "scripthash"}, "value": 1.17322687, "n": 17}, {"scriptPubKey": {"reqSigs": 1, "hex": "a914cf2bdd408a712daed1f9fd181e536f3beb90bc6987", "addresses": ["3LaSLzgQAHBAy9GT5tfGESS2NzXwokKtVV"], "asm": "OP_HASH160 cf2bdd408a712daed1f9fd181e536f3beb90bc69 OP_EQUAL", "type": "scripthash"}, "value": 0.0044976, "n": 18}, {"scriptPubKey": {"reqSigs": 1, "hex": "a914e96679b019cb3b904be9f0dd794e6f563298401187", "addresses": ["3Ny88MN7YqTH8KZ9dnsc1L9WTvvXbgDBdo"], "asm": "OP_HASH160 e96679b019cb3b904be9f0dd794e6f5632984011 OP_EQUAL", "type": "scripthash"}, "value": 0.00241682, "n": 19}, {"scriptPubKey": {"reqSigs": 1, "hex": "a914326341a9195e635e20eadfbfe19f8e487b2d0b8e87", "addresses": ["36HScba69oZtKCPBdmyfnNzXGc8Cuhjfsp"], "asm": "OP_HASH160 326341a9195e635e20eadfbfe19f8e487b2d0b8e OP_EQUAL", "type": "scripthash"}, "value": 0.0018156, "n": 20}, {"scriptPubKey": {"reqSigs": 1, "hex": "a9146993d08f4db174780d0254768c8e0097554e2b9287", "addresses": ["3BKFx2icGe6EJk78tMS4UAszGWj5ekrUHX"], "asm": "OP_HASH160 6993d08f4db174780d0254768c8e0097554e2b92 OP_EQUAL", "type": "scripthash"}, "value": 0.0027726, "n": 21}, {"scriptPubKey": {"reqSigs": 1, "hex": "76a914dbe38e8c49bf1e9dd7f9ce10341e720f09e7a00588ac", "addresses": ["1M3fawKGQundDDLHxo8MYG82Tvc9XRhQFo"], "asm": "OP_DUP OP_HASH160 dbe38e8c49bf1e9dd7f9ce10341e720f09e7a005 OP_EQUALVERIFY OP_CHECKSIG", "type": "pubkeyhash"}, "value": 0.0028463, "n": 22}, {"scriptPubKey": {"reqSigs": 1, "hex": "a9141fa834571160e73eceea5ebf71ee421f4dfdc8ab87", "addresses": ["34aQNYKZbU7nbSgRpfCN2vJn2WtEKenr5F"], "asm": "OP_HASH160 1fa834571160e73eceea5ebf71ee421f4dfdc8ab OP_EQUAL", "type": "scripthash"}, "value": 0.0064196, "n": 23}, {"scriptPubKey": {"reqSigs": 1, "hex": "a914c720f2d72fde987af13b5abfc8feedbf7232ea4987", "addresses": ["3Kqus2Vhv4SyJaxJzVnaWqyK2r9WYssYfM"], "asm": "OP_HASH160 c720f2d72fde987af13b5abfc8feedbf7232ea49 OP_EQUAL", "type": "scripthash"}, "value": 0.00300066, "n": 24}, {"scriptPubKey": {"reqSigs": 1, "hex": "76a914de72ddcbeda096cb5f5d672012d62822f155f0a588ac", "addresses": ["1MHCceJuHP9KfymYQM4AgbNyDpdpkJo1Km"], "asm": "OP_DUP OP_HASH160 de72ddcbeda096cb5f5d672012d62822f155f0a5 OP_EQUALVERIFY OP_CHECKSIG", "type": "pubkeyhash"}, "value": 0.00015753, "n": 25}], "hex": "02000000000101093503a18869faa9353069952992d17c9a0dd59de53240af23d702a0c51ef5160e00000017160014f70c3837b2b7a223ee11ef527000bd396a72ccd5feffffff1a90ca0400000000001976a914cbc08e3ec8e7949387b924501b8bf71afa8731a988acad1a0000000000001976a914f972eb64702b7632f504a777f2b08941ce02bcd388acec8204000000000017a914b8c3fef1e9e055ad129ea4f7a4e540d161223dd1879c3c04000000000017a914558a9943dac163721c0c77a4117c7b3a02e3035e87bc7703000000000017a914c45077a116c05fc0be06a845358ad5858d5f5b768731680300000000001976a914125b633d5597b28c1515e2e01d1be08f70c5d7c988ace41105000000000017a9147cde85b2c290c2ab9596d13c55f8b5448a403038876c7206000000000017a9147f757a8260b8eeb39ff4c35a652003e3ecb5964e87f0dd04000000000017a914e54360aea2d930f718bb883f6f0fcb1e3ae290a987df4f0300000000001976a914fdb5dec2ae70530b21f100237d4a531b0358a7ff88ac04e903000000000017a914abb393e12848c693efbb44bf861446abce30685387d00803000000000017a914579fdbaab15d631dea7ccba5ffe983406733574487e72907000000000017a914dba404bda6050a12309b735f8e684d4c8861160587e84309000000000017a91422070528419c17ac9790c8f6b4cb81bd4594316987e02004000000000017a9146c7cc1571cef142b87a9e2b5ee2eb3670c5d396887781004000000000017a9141e2b98fa94c016bacfc94a791bd49822937244658768e304000000000017a914be925a04f267e05b911159021b73859b5ba764b487bf33fe060000000017a91472e8e5a3fe87d1665c03eae499e90b6344dc3c1c87e0dc06000000000017a914cf2bdd408a712daed1f9fd181e536f3beb90bc698712b003000000000017a914e96679b019cb3b904be9f0dd794e6f56329840118738c502000000000017a914326341a9195e635e20eadfbfe19f8e487b2d0b8e870c3b04000000000017a9146993d08f4db174780d0254768c8e0097554e2b9287d6570400000000001976a914dbe38e8c49bf1e9dd7f9ce10341e720f09e7a00588aca8cb09000000000017a9141fa834571160e73eceea5ebf71ee421f4dfdc8ab87229404000000000017a914c720f2d72fde987af13b5abfc8feedbf7232ea4987893d0000000000001976a914de72ddcbeda096cb5f5d672012d62822f155f0a588ac024830450221009f8729e95adace14bbcddbccd49cd55d9253e1acb31ae6d1b93d1f90447f2a7602207743b72d4a0e1f9f3799ad6543f8c0fffbcc74918feb76d23e44db4bc6b350180121029350b32909dbf7afe0081f5b930bcbe6c6c24f83173c7a474cc1d0c86f7634090c490800", "vin": [{"txinwitness": ["30450221009f8729e95adace14bbcddbccd49cd55d9253e1acb31ae6d1b93d1f90447f2a7602207743b72d4a0e1f9f3799ad6543f8c0fffbcc74918feb76d23e44db4bc6b3501801", "029350b32909dbf7afe0081f5b930bcbe6c6c24f83173c7a474cc1d0c86f763409"], "sequence": 4294967294, "scriptSig": {"hex": "160014f70c3837b2b7a223ee11ef527000bd396a72ccd5", "asm": "0014f70c3837b2b7a223ee11ef527000bd396a72ccd5"}, "vout": 14, "txid": "16f51ec5a002d723af4032e59dd50d9a7cd1922995693035a9fa6988a1033509"}], "txid": "e90a3e6a7173cc136abe4c36741240a2aa0d49076a3b576c3f410b37bf1b4187", "blocktime": 1537870268, "version": 2, "confirmations": 11516, "time": 1537870268, "locktime": 542988, "vsize": 946, "size": 1028}