{"hash": "e3aa20daa96fa7fd01a196650acb76f178eabbd041d81b362cf701cdcfab2179", "blockhash": "0000000000000000001e0dab787dd257d1dbfcb92a98c2207d5e1078be1f4165", "vout": [{"scriptPubKey": {"reqSigs": 1, "hex": "76a914597172f2f82d2cee43acb792554bef63f2bbece388ac", "addresses": ["199w3eeF7hRGY2Rzivj4z4oj6FS6tG37jt"], "asm": "OP_DUP OP_HASH160 597172f2f82d2cee43acb792554bef63f2bbece3 OP_EQUALVERIFY OP_CHECKSIG", "type": "pubkeyhash"}, "value": 0.01484, "n": 0}, {"scriptPubKey": {"reqSigs": 1, "hex": "a914ce794358d54d000e7520bbe1aae72952e7396bb387", "addresses": ["3LWkPZqPyaARqTQBhAAAyCfjabyZ9hZbto"], "asm": "OP_HASH160 ce794358d54d000e7520bbe1aae72952e7396bb3 OP_EQUAL", "type": "scripthash"}, "value": 0.35206561, "n": 1}], "hex": "010000000001018a145da6818126d5331d94372b682a2326cab2f14f4b192e49e1109a92afb80601000000232200202d4515d412d2adc56ee7f32aa27575b9a142cc4132849e1577e7a0fa45820c14ffffffff02e0a41600000000001976a914597172f2f82d2cee43acb792554bef63f2bbece388aca13519020000000017a914ce794358d54d000e7520bbe1aae72952e7396bb387040047304402206a7b75de113042a15ccffa6596aefcc95cd51fab3b96469bc7f51e912b1ecc9e0220316994640cc461086fe8b669183220aa00ab29ee7c30b704dab85150d17f776d01473044022026eb8893409e71f440ee420585b4b05fcf5cc1123a1e3c27b77ceff28f18b29902202c3a2afe180b89fb5937feee9743e30696aaf5f49c7af0ef5fb4c0b9c86cc54d0147522102fa19578b79eca19b7593441271ac497a30a8288df78a0d0e1a640b087d8943762103555f8a0fbc16380f6c50b382800f927c71e2a43576133a0d6aaafdd743210a8252ae00000000", "vin": [{"txinwitness": ["", "304402206a7b75de113042a15ccffa6596aefcc95cd51fab3b96469bc7f51e912b1ecc9e0220316994640cc461086fe8b669183220aa00ab29ee7c30b704dab85150d17f776d01", "3044022026eb8893409e71f440ee420585b4b05fcf5cc1123a1e3c27b77ceff28f18b29902202c3a2afe180b89fb5937feee9743e30696aaf5f49c7af0ef5fb4c0b9c86cc54d01", "522102fa19578b79eca19b7593441271ac497a30a8288df78a0d0e1a640b087d8943762103555f8a0fbc16380f6c50b382800f927c71e2a43576133a0d6aaafdd743210a8252ae"], "sequence": 4294967295, "scriptSig": {"hex": "2200202d4515d412d2adc56ee7f32aa27575b9a142cc4132849e1577e7a0fa45820c14", "asm": "00202d4515d412d2adc56ee7f32aa27575b9a142cc4132849e1577e7a0fa45820c14"}, "vout": 1, "txid": "06b8af929a10e1492e194b4ff1b2ca26232a682b37941d33d5268181a65d148a"}], "txid": "e90d1388f66fad469aee5fa518b5131230a0be267067144d68a99780d492e36f", "blocktime": 1537872475, "version": 1, "confirmations": 11487, "time": 1537872475, "locktime": 0, "vsize": 207, "size": 372}