{"hash": "629a4ff0119fba395a56a38c4e1ef61a27d2dc1953a9553de3a664b7feaf6457", "blockhash": "00000000000000000004ffacab907a6b429b9a5745fa0b75af4234bf69dd7176", "vout": [{"scriptPubKey": {"reqSigs": 1, "hex": "76a914ffd8b85ded9acb1cf7d68ee9705eade8c8e1d7a688ac", "addresses": ["1QKnvu9UjNCAhqQWjnHwVjYZK3Hr2cY5re"], "asm": "OP_DUP OP_HASH160 ffd8b85ded9acb1cf7d68ee9705eade8c8e1d7a6 OP_EQUALVERIFY OP_CHECKSIG", "type": "pubkeyhash"}, "value": 0.03211279, "n": 0}, {"scriptPubKey": {"reqSigs": 1, "hex": "a914956cbed28ffce555a053b007fd5e5fffb6211d0b87", "addresses": ["3FK6stY6KTBCNootCkTGNcGu11FBS4K1kU"], "asm": "OP_HASH160 956cbed28ffce555a053b007fd5e5fffb6211d0b OP_EQUAL", "type": "scripthash"}, "value": 0.10151971, "n": 1}, {"scriptPubKey": {"reqSigs": 1, "hex": "a914e488a9b1352428a2a084ae60be7f2b0d30f4858b87", "addresses": ["3NXPhnNYxjsE4Y7V27AvkoPzZGWVx7azdN"], "asm": "OP_HASH160 e488a9b1352428a2a084ae60be7f2b0d30f4858b OP_EQUAL", "type": "scripthash"}, "value": 0.00172689, "n": 2}], "hex": "01000000000101f651e219b52be72ff415091bb1b02c82609035ff6c7cf7cd366a955e2c73d6782400000017160014970cfde30ff0bb49cd6119e4d0582d9bebf756f8ffffffff030f003100000000001976a914ffd8b85ded9acb1cf7d68ee9705eade8c8e1d7a688ac23e89a000000000017a914956cbed28ffce555a053b007fd5e5fffb6211d0b8791a202000000000017a914e488a9b1352428a2a084ae60be7f2b0d30f4858b8702473044022025890bacd5c18d795da0e8f1f07e7ccd03e14c6032b4e1a2f73edca4d9ccb4e002201958116bdeb98d65b704d081d4b8c8d194d7c548ffa3e83360ae001b7182c883012103bf8d503b9be1093427ef372050a695fbdbae1ec5878ecdfeae451b94a3278cbe00000000", "vin": [{"txinwitness": ["3044022025890bacd5c18d795da0e8f1f07e7ccd03e14c6032b4e1a2f73edca4d9ccb4e002201958116bdeb98d65b704d081d4b8c8d194d7c548ffa3e83360ae001b7182c88301", "03bf8d503b9be1093427ef372050a695fbdbae1ec5878ecdfeae451b94a3278cbe"], "sequence": 4294967295, "scriptSig": {"hex": "160014970cfde30ff0bb49cd6119e4d0582d9bebf756f8", "asm": "0014970cfde30ff0bb49cd6119e4d0582d9bebf756f8"}, "vout": 36, "txid": "78d6732c5e956a36cdf77c6cff359060822cb0b11b0915f42fe72bb519e251f6"}], "txid": "e90fab4b5c55ab8491797dd2daa9c09243bf258ed02a5fbad0bdebe90adfea36", "blocktime": 1537875543, "version": 1, "confirmations": 11464, "time": 1537875543, "locktime": 0, "vsize": 200, "size": 281}