{"hash": "e9112315a4909c0304194dd5d6e72567501ba0ab4a58f9c3f7d6f38ef96c3bde", "blockhash": "000000000000000000022b45ed06c6f4ccd3cf7fb5ba4856ebd2e58215665228", "vout": [{"scriptPubKey": {"type": "nulldata", "hex": "6a2034307c818b509e9ab86b7f483f5ed7067d5c8279c632c51c1eecb8407a3a345c", "asm": "OP_RETURN 34307c818b509e9ab86b7f483f5ed7067d5c8279c632c51c1eecb8407a3a345c"}, "value": 0.0, "n": 0}, {"scriptPubKey": {"reqSigs": 1, "hex": "76a91488cc4cc4b7c2b04a33d8f1cabe5610bd435645b788ac", "addresses": ["1DUKe6Qc3tz9gZtLpjRAy1HtkYnZQ7vW24"], "asm": "OP_DUP OP_HASH160 88cc4cc4b7c2b04a33d8f1cabe5610bd435645b7 OP_EQUALVERIFY OP_CHECKSIG", "type": "pubkeyhash"}, "value": 0.4374899, "n": 1}], "hex": "010000000199be18df48bf854ad486593921eb2435aaf942e4731aa97b9806936a36142eb3010000006a473044022056ff2adccc6342fdb049eaf1e40f3884d20dfe533d4a576f729260f1bf31cb7602201a43bff07bc17a3450f672c4c968f7317ccc510758ee54e69dccf189fa41b1f80121023f64280243b139aecdcd947b732f2cbcb49e6c78550929a5f8f3679837b8ebf7ffffffff020000000000000000226a2034307c818b509e9ab86b7f483f5ed7067d5c8279c632c51c1eecb8407a3a345c7e8e9b02000000001976a91488cc4cc4b7c2b04a33d8f1cabe5610bd435645b788ac00000000", "vin": [{"sequence": 4294967295, "scriptSig": {"hex": "473044022056ff2adccc6342fdb049eaf1e40f3884d20dfe533d4a576f729260f1bf31cb7602201a43bff07bc17a3450f672c4c968f7317ccc510758ee54e69dccf189fa41b1f80121023f64280243b139aecdcd947b732f2cbcb49e6c78550929a5f8f3679837b8ebf7", "asm": "3044022056ff2adccc6342fdb049eaf1e40f3884d20dfe533d4a576f729260f1bf31cb7602201a43bff07bc17a3450f672c4c968f7317ccc510758ee54e69dccf189fa41b1f8[ALL] 023f64280243b139aecdcd947b732f2cbcb49e6c78550929a5f8f3679837b8ebf7"}, "vout": 1, "txid": "b32e14366a9306987ba91a73e442f9aa3524eb21395986d44a85bf48df18be99"}], "txid": "e9112315a4909c0304194dd5d6e72567501ba0ab4a58f9c3f7d6f38ef96c3bde", "blocktime": 1537869901, "version": 1, "confirmations": 11522, "time": 1537869901, "locktime": 0, "vsize": 234, "size": 234}