{"hash": "e912a3979f2ba729b8059fd09947dd5afbf0c0a23a0118fd3989db3e185bb746", "blockhash": "0000000000000000000e13cef7c366c0283d82e591d1acd082e914b08063cdf1", "vout": [{"scriptPubKey": {"reqSigs": 1, "hex": "a91481efbf7739de3264d393f6c2f06d231752e0f2ab87", "addresses": ["3DY4JGS8NnTjTeKh9XpgfWXvHACC1MBmfS"], "asm": "OP_HASH160 81efbf7739de3264d393f6c2f06d231752e0f2ab OP_EQUAL", "type": "scripthash"}, "value": 0.01199245, "n": 0}, {"scriptPubKey": {"reqSigs": 1, "hex": "76a914705e75e6a3f4cc4c98260a56ea2ba9d4991d790988ac", "addresses": ["1BF9qii7wrVCSkHo6y54vCeRiqe8sjvK2A"], "asm": "OP_DUP OP_HASH160 705e75e6a3f4cc4c98260a56ea2ba9d4991d7909 OP_EQUALVERIFY OP_CHECKSIG", "type": "pubkeyhash"}, "value": 0.00782448, "n": 1}], "hex": "0100000001e876cbf94be6f88ee1c6965ce7b45849748ec0af448b87cbe38b65bc06fb0aa401000000fdfe0000483045022100d41989d23654fca0e06fc99e8a1971ecbb5a51c708658a864c43f7c5fbb657b202203c4fdca2271aade51a7180d84ff5df3f14ead687a7305c8dc21ded02a9a0bc2801483045022100ed27ece304e0d710b89db8091ddd599ee35db23e8d1fb99022b6569e6764df2b022009dc9b0eb6c6a845bd0586767b6c6425038946ba1952e87a7c291f3bc357b359014c695221029104288d81c2bce01a190cff2e7f1aceec0a95d66cc8197ffa91a3f70a6e774a2102cee082741bf58f6cd7da29fd7c19262b10d0d2dd6c7da4947169fbd7d80759db21030281b81473a7b6ab6041cf0c612ab4f904789bd216f28a68087590a3b400dde853aeffffffff028d4c12000000000017a91481efbf7739de3264d393f6c2f06d231752e0f2ab8770f00b00000000001976a914705e75e6a3f4cc4c98260a56ea2ba9d4991d790988ac00000000", "vin": [{"sequence": 4294967295, "scriptSig": {"hex": "00483045022100d41989d23654fca0e06fc99e8a1971ecbb5a51c708658a864c43f7c5fbb657b202203c4fdca2271aade51a7180d84ff5df3f14ead687a7305c8dc21ded02a9a0bc2801483045022100ed27ece304e0d710b89db8091ddd599ee35db23e8d1fb99022b6569e6764df2b022009dc9b0eb6c6a845bd0586767b6c6425038946ba1952e87a7c291f3bc357b359014c695221029104288d81c2bce01a190cff2e7f1aceec0a95d66cc8197ffa91a3f70a6e774a2102cee082741bf58f6cd7da29fd7c19262b10d0d2dd6c7da4947169fbd7d80759db21030281b81473a7b6ab6041cf0c612ab4f904789bd216f28a68087590a3b400dde853ae", "asm": "0 3045022100d41989d23654fca0e06fc99e8a1971ecbb5a51c708658a864c43f7c5fbb657b202203c4fdca2271aade51a7180d84ff5df3f14ead687a7305c8dc21ded02a9a0bc28[ALL] 3045022100ed27ece304e0d710b89db8091ddd599ee35db23e8d1fb99022b6569e6764df2b022009dc9b0eb6c6a845bd0586767b6c6425038946ba1952e87a7c291f3bc357b359[ALL] 5221029104288d81c2bce01a190cff2e7f1aceec0a95d66cc8197ffa91a3f70a6e774a2102cee082741bf58f6cd7da29fd7c19262b10d0d2dd6c7da4947169fbd7d80759db21030281b81473a7b6ab6041cf0c612ab4f904789bd216f28a68087590a3b400dde853ae"}, "vout": 1, "txid": "a40afb06bc658be3cb878b44afc08e744958b4e75c96c6e18ef8e64bf9cb76e8"}], "txid": "e912a3979f2ba729b8059fd09947dd5afbf0c0a23a0118fd3989db3e185bb746", "blocktime": 1537871767, "version": 1, "confirmations": 11493, "time": 1537871767, "locktime": 0, "vsize": 373, "size": 373}