{"hash": "e04a5e862dc071f906494e0946c672bf5ade557c814f482ef09354bf9ee0bdda", "blockhash": "00000000000000000024a2167bbff67b0be802c0b01cdd79e6331c2be6459f87", "vout": [{"scriptPubKey": {"reqSigs": 1, "hex": "76a91461316a511caeec5878b5202eff041aebd5c7dcae88ac", "addresses": ["19ruk3UyZKdCGKYakf9cp8x8VPe337eHmK"], "asm": "OP_DUP OP_HASH160 61316a511caeec5878b5202eff041aebd5c7dcae OP_EQUALVERIFY OP_CHECKSIG", "type": "pubkeyhash"}, "value": 0.02294271, "n": 0}, {"scriptPubKey": {"reqSigs": 1, "hex": "00149729f9fdcb05d0cf18361c901138c586f370c0c7", "addresses": ["bc1qju5lnlwtqhgv7xpkrjgpzwx9smehpsx8820sfw"], "asm": "0 9729f9fdcb05d0cf18361c901138c586f370c0c7", "type": "witness_v0_keyhash"}, "value": 0.13302808, "n": 1}], "hex": "010000000001013a3f93609037ada6c75903a290b6de38e9a0fcca67039e9a0486a5cd48b4e6d00100000017160014eb9d801fbeb7370eda5159afcd80f25730858b8cffffffff02ff012300000000001976a91461316a511caeec5878b5202eff041aebd5c7dcae88ac18fcca00000000001600149729f9fdcb05d0cf18361c901138c586f370c0c702473044022015ce33b5e4cc9b18806f51e3b91bdd48a0a005d76aa69c799581993c3d2a3cec02207cae298da59c2fcb5c84f6f725862ff7bb5a5ee9a66294b8347ce1e61690b1e2012103da19c59617ac4f9d721355a66c4248b3e14e1cf02bcc67b6808e996287ed07c700000000", "vin": [{"txinwitness": ["3044022015ce33b5e4cc9b18806f51e3b91bdd48a0a005d76aa69c799581993c3d2a3cec02207cae298da59c2fcb5c84f6f725862ff7bb5a5ee9a66294b8347ce1e61690b1e201", "03da19c59617ac4f9d721355a66c4248b3e14e1cf02bcc67b6808e996287ed07c7"], "sequence": 4294967295, "scriptSig": {"hex": "160014eb9d801fbeb7370eda5159afcd80f25730858b8c", "asm": "0014eb9d801fbeb7370eda5159afcd80f25730858b8c"}, "vout": 1, "txid": "d0e6b448cda586049a9e0367cafca0e938deb690a20359c7a6ad379060933f3a"}], "txid": "e92537cb863cbcb6b7197f036825657d5095767aaa85a36f23126651af53c971", "blocktime": 1537870564, "version": 1, "confirmations": 11515, "time": 1537870564, "locktime": 0, "vsize": 167, "size": 248}