{"hash": "e9267d7bccf6425fea8382ee11f67688c67fda3d03595452025801dd064cd8ff", "blockhash": "0000000000000000001cda96e906b7601b7a6fb1a3b62bca570a9e5d8f4b3de1", "vout": [{"scriptPubKey": {"reqSigs": 1, "hex": "a9146411e0f23a7ce1a788f5fba85e63d47540f11dc887", "addresses": ["3Ap8uxeyEBuCWSGEH7nFkCmAAV3ETUMike"], "asm": "OP_HASH160 6411e0f23a7ce1a788f5fba85e63d47540f11dc8 OP_EQUAL", "type": "scripthash"}, "value": 0.02540894, "n": 0}, {"scriptPubKey": {"reqSigs": 1, "hex": "76a914dd78bde10d37bf00e00e8491b39debe7f317d86a88ac", "addresses": ["1MC2ygCyWqixqD5AuAU4AePoThQhUdNdpL"], "asm": "OP_DUP OP_HASH160 dd78bde10d37bf00e00e8491b39debe7f317d86a OP_EQUALVERIFY OP_CHECKSIG", "type": "pubkeyhash"}, "value": 0.76955615, "n": 1}], "hex": "0100000001d2f7424c3afcab958c0b0139e38f7439e438d21dc19e0d5cda3c626b19de4ae2010000006a473044022020c9dd7b22dd2095e9a4975f40d49a7f484437f73993858e755bbb0f4677bc8002205576f61533ea9ab041175bba27a41b4a83aae231293269ab52935ffde49db0d7012103be793e5ba2bab91e7049b07587e138e8fc0984cfadbd46c7b8d78872a15c5e8affffffff025ec526000000000017a9146411e0f23a7ce1a788f5fba85e63d47540f11dc887df3f9604000000001976a914dd78bde10d37bf00e00e8491b39debe7f317d86a88ac00000000", "vin": [{"sequence": 4294967295, "scriptSig": {"hex": "473044022020c9dd7b22dd2095e9a4975f40d49a7f484437f73993858e755bbb0f4677bc8002205576f61533ea9ab041175bba27a41b4a83aae231293269ab52935ffde49db0d7012103be793e5ba2bab91e7049b07587e138e8fc0984cfadbd46c7b8d78872a15c5e8a", "asm": "3044022020c9dd7b22dd2095e9a4975f40d49a7f484437f73993858e755bbb0f4677bc8002205576f61533ea9ab041175bba27a41b4a83aae231293269ab52935ffde49db0d7[ALL] 03be793e5ba2bab91e7049b07587e138e8fc0984cfadbd46c7b8d78872a15c5e8a"}, "vout": 1, "txid": "e24ade196b623cda5c0d9ec11dd238e439748fe339010b8c95abfc3a4c42f7d2"}], "txid": "e9267d7bccf6425fea8382ee11f67688c67fda3d03595452025801dd064cd8ff", "blocktime": 1537873282, "version": 1, "confirmations": 11484, "time": 1537873282, "locktime": 0, "vsize": 223, "size": 223}