{"hash": "e9274af80265c1b4e0979d0a3e80b31b7482a53d50039e712f9c17280224a46e", "blockhash": "0000000000000000001cda96e906b7601b7a6fb1a3b62bca570a9e5d8f4b3de1", "vout": [{"scriptPubKey": {"reqSigs": 1, "hex": "76a91451da8234b232065e4ce9e44f1d3d02503713ce8488ac", "addresses": ["18ToVnRNUNntfKAG4X1rVKfUfzwqyRFbie"], "asm": "OP_DUP OP_HASH160 51da8234b232065e4ce9e44f1d3d02503713ce84 OP_EQUALVERIFY OP_CHECKSIG", "type": "pubkeyhash"}, "value": 0.00232457, "n": 0}, {"scriptPubKey": {"reqSigs": 1, "hex": "76a914fcc816f15e6cb73156e12234a24703fdf218d8a388ac", "addresses": ["1Q3ayp5yhrXPdcJ6N2tEGzi5qtPh7JTPCd"], "asm": "OP_DUP OP_HASH160 fcc816f15e6cb73156e12234a24703fdf218d8a3 OP_EQUALVERIFY OP_CHECKSIG", "type": "pubkeyhash"}, "value": 0.39, "n": 1}], "hex": "01000000010604c56c52381f98fdd2aec0b05ceec49d0ca3ad574892162cf29b18e97ea8a5050000006a47304402201e464e58ce1aa523dda1d5ab1574212b0e33d7c2cecc2a40c7fbe7fc2f9a1828022075cf8fa81da7330e6ad6df66b2d5aa9800dff6ddd59c81e02eaf685e427399de012102c89ec96f8544b58d19ad7d5ec1fcc927872f6964e248f93c475ab9972e57161effffffff02098c0300000000001976a91451da8234b232065e4ce9e44f1d3d02503713ce8488acc0175302000000001976a914fcc816f15e6cb73156e12234a24703fdf218d8a388ac00000000", "vin": [{"sequence": 4294967295, "scriptSig": {"hex": "47304402201e464e58ce1aa523dda1d5ab1574212b0e33d7c2cecc2a40c7fbe7fc2f9a1828022075cf8fa81da7330e6ad6df66b2d5aa9800dff6ddd59c81e02eaf685e427399de012102c89ec96f8544b58d19ad7d5ec1fcc927872f6964e248f93c475ab9972e57161e", "asm": "304402201e464e58ce1aa523dda1d5ab1574212b0e33d7c2cecc2a40c7fbe7fc2f9a1828022075cf8fa81da7330e6ad6df66b2d5aa9800dff6ddd59c81e02eaf685e427399de[ALL] 02c89ec96f8544b58d19ad7d5ec1fcc927872f6964e248f93c475ab9972e57161e"}, "vout": 5, "txid": "a5a87ee9189bf22c16924857ada30c9dc4ee5cb0c0aed2fd981f38526cc50406"}], "txid": "e9274af80265c1b4e0979d0a3e80b31b7482a53d50039e712f9c17280224a46e", "blocktime": 1537873282, "version": 1, "confirmations": 11485, "time": 1537873282, "locktime": 0, "vsize": 225, "size": 225}