{"hash": "e92cb5688b5ea37ce20d86ad621d6c9a7366992082fd70e346e584c338888edf", "blockhash": "000000000000000000022b45ed06c6f4ccd3cf7fb5ba4856ebd2e58215665228", "vout": [{"scriptPubKey": {"reqSigs": 1, "hex": "a914cc369b82cb3a87d3319c8e214ffa0aff1431afcd87", "addresses": ["3LJoBsRyaJYdqYLkhqMD68XN2mYAMLgygc"], "asm": "OP_HASH160 cc369b82cb3a87d3319c8e214ffa0aff1431afcd OP_EQUAL", "type": "scripthash"}, "value": 0.004991, "n": 0}, {"scriptPubKey": {"reqSigs": 1, "hex": "76a914312f2c4893d9594b46c49b8d829fb347e37bb0e588ac", "addresses": ["15V4d361WSFJDzUUvu17WNztWQ37pQHcog"], "asm": "OP_DUP OP_HASH160 312f2c4893d9594b46c49b8d829fb347e37bb0e5 OP_EQUALVERIFY OP_CHECKSIG", "type": "pubkeyhash"}, "value": 0.1244035, "n": 1}], "hex": "0100000001e82b4f1f3f5270068a4e11313c6db3427c142d1ebabb3335288633f895b75313010000006a47304402202a2c9a73c87b43ddd46e3e2ff654ad29dd7832766393d6a24abf28fb419e07b6022028c1780e45d502e2dcd54a8dc3a6f78943e9342ac49f043853d2d98dad364f38012102ed4618d165efdbac13e281753dc2f6d659beb624f0bea29229efef08a14ed37fffffffff029c9d07000000000017a914cc369b82cb3a87d3319c8e214ffa0aff1431afcd871ed3bd00000000001976a914312f2c4893d9594b46c49b8d829fb347e37bb0e588ac00000000", "vin": [{"sequence": 4294967295, "scriptSig": {"hex": "47304402202a2c9a73c87b43ddd46e3e2ff654ad29dd7832766393d6a24abf28fb419e07b6022028c1780e45d502e2dcd54a8dc3a6f78943e9342ac49f043853d2d98dad364f38012102ed4618d165efdbac13e281753dc2f6d659beb624f0bea29229efef08a14ed37f", "asm": "304402202a2c9a73c87b43ddd46e3e2ff654ad29dd7832766393d6a24abf28fb419e07b6022028c1780e45d502e2dcd54a8dc3a6f78943e9342ac49f043853d2d98dad364f38[ALL] 02ed4618d165efdbac13e281753dc2f6d659beb624f0bea29229efef08a14ed37f"}, "vout": 1, "txid": "1353b795f83386283533bbba1e2d147c42b36d3c31114e8a0670523f1f4f2be8"}], "txid": "e92cb5688b5ea37ce20d86ad621d6c9a7366992082fd70e346e584c338888edf", "blocktime": 1537869901, "version": 1, "confirmations": 11523, "time": 1537869901, "locktime": 0, "vsize": 223, "size": 223}