{"hash": "e931e69c0d53e821d5e80ed7838831db2de58f98da6899f3495593d3ba90b945", "blockhash": "00000000000000000024a2167bbff67b0be802c0b01cdd79e6331c2be6459f87", "vout": [{"scriptPubKey": {"reqSigs": 1, "hex": "a914d8b273d14eea5d5e648a4d149fd4f60841720e5b87", "addresses": ["3MSof528c9xRazSzFfaNiR561kFX3M6F7V"], "asm": "OP_HASH160 d8b273d14eea5d5e648a4d149fd4f60841720e5b OP_EQUAL", "type": "scripthash"}, "value": 0.33, "n": 0}, {"scriptPubKey": {"reqSigs": 1, "hex": "76a914337272ad6db37f5253768ff85d49c955e268d6a188ac", "addresses": ["15h2ZmUydeTnNBCjqH3uKSbDTR1VKAj8ae"], "asm": "OP_DUP OP_HASH160 337272ad6db37f5253768ff85d49c955e268d6a1 OP_EQUALVERIFY OP_CHECKSIG", "type": "pubkeyhash"}, "value": 0.00239996, "n": 1}], "hex": "01000000021c3a903754df6c4dcf640a191e6e1d19f6a9b79fbaaebee59f50691bbe6995d6010000006a47304402205c920a2fcbd127a44533b29087994299c0e7864c1def8b3327d22f98142eb22a022071e67150456fb605d5de21a3cbf5b2a33e6a44c4f0dddffc5bbe9859616be136012103a7c632327e509e1b95557ae99fbf734ade8be958f31f693f362d14a8480a0bb6ffffffff54cd360602068ffec272e23a5e3aa5e7cee028867c38a51662db899514bb8404000000006a47304402201ab69dddb30e6635663a3e9314b73b54c7434a81826de9b50d83d2992acef38202207a60e17f0da95a3311dcae6f3db033a5a80d42bcd3da83e22808d4a1c75bcb12012103298380cd4221f3f973f5f4fe9020aff5334811b36182f0f07ae8528d967a0417ffffffff02408af7010000000017a914d8b273d14eea5d5e648a4d149fd4f60841720e5b877ca90300000000001976a914337272ad6db37f5253768ff85d49c955e268d6a188ac00000000", "vin": [{"sequence": 4294967295, "scriptSig": {"hex": "47304402205c920a2fcbd127a44533b29087994299c0e7864c1def8b3327d22f98142eb22a022071e67150456fb605d5de21a3cbf5b2a33e6a44c4f0dddffc5bbe9859616be136012103a7c632327e509e1b95557ae99fbf734ade8be958f31f693f362d14a8480a0bb6", "asm": "304402205c920a2fcbd127a44533b29087994299c0e7864c1def8b3327d22f98142eb22a022071e67150456fb605d5de21a3cbf5b2a33e6a44c4f0dddffc5bbe9859616be136[ALL] 03a7c632327e509e1b95557ae99fbf734ade8be958f31f693f362d14a8480a0bb6"}, "vout": 1, "txid": "d69569be1b69509fe5beaeba9fb7a9f6191d6e1e190a64cf4d6cdf5437903a1c"}, {"sequence": 4294967295, "scriptSig": {"hex": "47304402201ab69dddb30e6635663a3e9314b73b54c7434a81826de9b50d83d2992acef38202207a60e17f0da95a3311dcae6f3db033a5a80d42bcd3da83e22808d4a1c75bcb12012103298380cd4221f3f973f5f4fe9020aff5334811b36182f0f07ae8528d967a0417", "asm": "304402201ab69dddb30e6635663a3e9314b73b54c7434a81826de9b50d83d2992acef38202207a60e17f0da95a3311dcae6f3db033a5a80d42bcd3da83e22808d4a1c75bcb12[ALL] 03298380cd4221f3f973f5f4fe9020aff5334811b36182f0f07ae8528d967a0417"}, "vout": 0, "txid": "0484bb149589db6216a5387c8628e0cee7a53a5e3ae272c2fe8f06020636cd54"}], "txid": "e931e69c0d53e821d5e80ed7838831db2de58f98da6899f3495593d3ba90b945", "blocktime": 1537870564, "version": 1, "confirmations": 11515, "time": 1537870564, "locktime": 0, "vsize": 370, "size": 370}