{"hash": "e93591fd4115af9ed3e91fe2bf62cba338e217a7529f1bd9a1a9c20ccfd0fd12", "blockhash": "0000000000000000000e13cef7c366c0283d82e591d1acd082e914b08063cdf1", "vout": [{"scriptPubKey": {"reqSigs": 1, "hex": "76a914d243e6abb9a60fbff430b421d2df4b7d59ec186088ac", "addresses": ["1LAnF8h3qMGx3TSwNUHVneBZUEpwE4gu3D"], "asm": "OP_DUP OP_HASH160 d243e6abb9a60fbff430b421d2df4b7d59ec1860 OP_EQUALVERIFY OP_CHECKSIG", "type": "pubkeyhash"}, "value": 0.00086484, "n": 0}, {"scriptPubKey": {"reqSigs": 1, "hex": "76a9143851f34d13937b673a7d24a1950bb5b21ce94af388ac", "addresses": ["168o1kqNquEJeR9vosUB5fw4eAwcVAgh8P"], "asm": "OP_DUP OP_HASH160 3851f34d13937b673a7d24a1950bb5b21ce94af3 OP_EQUALVERIFY OP_CHECKSIG", "type": "pubkeyhash"}, "value": 5.46e-06, "n": 1}, {"scriptPubKey": {"type": "nulldata", "hex": "6a146f6d6e69000000000000001f00000050539a3a00", "asm": "OP_RETURN 6f6d6e69000000000000001f00000050539a3a00"}, "value": 0.0, "n": 2}], "hex": "01000000028497b5ca297871c7cd67f79686984d41c3270ec69a360b42fdebdc489df11161000000006b483045022100cac98d45b5e5ced4e023bd943ccd3f30f9a276b7723f2e1431c880f39537137002205ac8fa342c5ba24f198ed398ca87413c8a48dc30b2d4f38b80fa6c2025619c6d012103306a793d85befc897cef6b843f21105c13d06b85ad4cd15b52ac40a24dfa19fcffffffff8a0321bea02778ff7442a59525cdaf7a03b21e1179d8b502ea116c129b616e14000000006a47304402203e5bb754e216abcc7a9a59b42d5f141f2be083dcc469934f32df5bb5777d9ff1022037e9f09f401d83dcf1a50e626a0ff8f5cc830d51fdda8d162d604bd29781fe6b01210271977291b74f1f5f5c42157e8aae804664eaaeccfd097918450d37f28fb94d77ffffffff03d4510100000000001976a914d243e6abb9a60fbff430b421d2df4b7d59ec186088ac22020000000000001976a9143851f34d13937b673a7d24a1950bb5b21ce94af388ac0000000000000000166a146f6d6e69000000000000001f00000050539a3a0000000000", "vin": [{"sequence": 4294967295, "scriptSig": {"hex": "483045022100cac98d45b5e5ced4e023bd943ccd3f30f9a276b7723f2e1431c880f39537137002205ac8fa342c5ba24f198ed398ca87413c8a48dc30b2d4f38b80fa6c2025619c6d012103306a793d85befc897cef6b843f21105c13d06b85ad4cd15b52ac40a24dfa19fc", "asm": "3045022100cac98d45b5e5ced4e023bd943ccd3f30f9a276b7723f2e1431c880f39537137002205ac8fa342c5ba24f198ed398ca87413c8a48dc30b2d4f38b80fa6c2025619c6d[ALL] 03306a793d85befc897cef6b843f21105c13d06b85ad4cd15b52ac40a24dfa19fc"}, "vout": 0, "txid": "6111f19d48dcebfd420b369ac60e27c3414d988696f767cdc7717829cab59784"}, {"sequence": 4294967295, "scriptSig": {"hex": "47304402203e5bb754e216abcc7a9a59b42d5f141f2be083dcc469934f32df5bb5777d9ff1022037e9f09f401d83dcf1a50e626a0ff8f5cc830d51fdda8d162d604bd29781fe6b01210271977291b74f1f5f5c42157e8aae804664eaaeccfd097918450d37f28fb94d77", "asm": "304402203e5bb754e216abcc7a9a59b42d5f141f2be083dcc469934f32df5bb5777d9ff1022037e9f09f401d83dcf1a50e626a0ff8f5cc830d51fdda8d162d604bd29781fe6b[ALL] 0271977291b74f1f5f5c42157e8aae804664eaaeccfd097918450d37f28fb94d77"}, "vout": 0, "txid": "146e619b126c11ea02b5d879111eb2037aafcd2595a54274ff7827a0be21038a"}], "txid": "e93591fd4115af9ed3e91fe2bf62cba338e217a7529f1bd9a1a9c20ccfd0fd12", "blocktime": 1537871767, "version": 1, "confirmations": 11491, "time": 1537871767, "locktime": 0, "vsize": 404, "size": 404}