{"hash": "e93b820269667cc85ebb53d1586957fbc0b1a8f62fab2eb7214f76f3083e8ef1", "blockhash": "00000000000000000018f53835495a110e01622372bf6ae95dc86f2b0ab887b0", "vout": [{"scriptPubKey": {"reqSigs": 1, "hex": "76a914b383e4da7a0c3d71ea4e9ef1c0e60cb1d7a4cfe688ac", "addresses": ["1HNBxVTDqpp28SjMVi8x3ZVkVSvp8c8HwL"], "asm": "OP_DUP OP_HASH160 b383e4da7a0c3d71ea4e9ef1c0e60cb1d7a4cfe6 OP_EQUALVERIFY OP_CHECKSIG", "type": "pubkeyhash"}, "value": 0.2, "n": 0}, {"scriptPubKey": {"reqSigs": 1, "hex": "76a9145099d64cfc2e72409ab81954d52a1ea6f49b3a7e88ac", "addresses": ["18MBM8umeDF9DzEcgnCi7GkeqX2jyzUU8h"], "asm": "OP_DUP OP_HASH160 5099d64cfc2e72409ab81954d52a1ea6f49b3a7e OP_EQUALVERIFY OP_CHECKSIG", "type": "pubkeyhash"}, "value": 91.95506512, "n": 1}], "hex": "0200000001fea39deed0ccdb6ee6434a4436608c5eecc1c3c78fd9d04cf8de3ef51023bc05000000006b483045022100d4d8f8077fe2d656e8016230bb3abd25d08e7e50d5d33ba89d4b649f84ec87f10220288df13d4f5ebc14523efee03a0e1c3d5a89ea0e589f235725c635a4b44c1558012102cfd0c98eb906bfdb6ea92c0269875097a0c0a4d4bff582735c2daeb3eb501227ffffffff02002d3101000000001976a914b383e4da7a0c3d71ea4e9ef1c0e60cb1d7a4cfe688ac504b1824020000001976a9145099d64cfc2e72409ab81954d52a1ea6f49b3a7e88ac00000000", "vin": [{"sequence": 4294967295, "scriptSig": {"hex": "483045022100d4d8f8077fe2d656e8016230bb3abd25d08e7e50d5d33ba89d4b649f84ec87f10220288df13d4f5ebc14523efee03a0e1c3d5a89ea0e589f235725c635a4b44c1558012102cfd0c98eb906bfdb6ea92c0269875097a0c0a4d4bff582735c2daeb3eb501227", "asm": "3045022100d4d8f8077fe2d656e8016230bb3abd25d08e7e50d5d33ba89d4b649f84ec87f10220288df13d4f5ebc14523efee03a0e1c3d5a89ea0e589f235725c635a4b44c1558[ALL] 02cfd0c98eb906bfdb6ea92c0269875097a0c0a4d4bff582735c2daeb3eb501227"}, "vout": 0, "txid": "05bc2310f53edef84cd0d98fc7c3c1ec5e8c6036444a43e66edbccd0ee9da3fe"}], "txid": "e93b820269667cc85ebb53d1586957fbc0b1a8f62fab2eb7214f76f3083e8ef1", "blocktime": 1537870928, "version": 2, "confirmations": 11512, "time": 1537870928, "locktime": 0, "vsize": 226, "size": 226}