{"hash": "c3591602d889f394f23088a7a08c7521a5815f2e949c60edc10e6573fcecf66c", "blockhash": "00000000000000000018f53835495a110e01622372bf6ae95dc86f2b0ab887b0", "vout": [{"scriptPubKey": {"reqSigs": 1, "hex": "76a91462f9a19bb360a0c3c690c954a73ac93b0defb7bb88ac", "addresses": ["1A2LGV8JrkBhHwfUaMMLy55eF2uQ2wYnWE"], "asm": "OP_DUP OP_HASH160 62f9a19bb360a0c3c690c954a73ac93b0defb7bb OP_EQUALVERIFY OP_CHECKSIG", "type": "pubkeyhash"}, "value": 0.010557, "n": 0}, {"scriptPubKey": {"reqSigs": 1, "hex": "00142743467f01b1b97e688807da99ed256f09c9b3e2", "addresses": ["bc1qyap5vlcpkxuhu6ygqldfnmf9duyunvlzcwnera"], "asm": "0 2743467f01b1b97e688807da99ed256f09c9b3e2", "type": "witness_v0_keyhash"}, "value": 0.00049494, "n": 1}], "hex": "01000000000101595808a1ffad19e1e4ea2218d0e0752b826939c578f810687a987b93bf00e8300100000000ffffffff02d41b1000000000001976a91462f9a19bb360a0c3c690c954a73ac93b0defb7bb88ac56c10000000000001600142743467f01b1b97e688807da99ed256f09c9b3e20247304402204fb38fae63968faaadfafb3a6399e20f521cea9af692a0394d6f40866dec5a6402201b63a1f4af9eda84f9a55bee48da5885d7ca6aca02f98557de35b969848a93a7012102281da9063ae228109e35163b6d639151fcf91b9bea314c8cf6fcc00c79402dbb00000000", "vin": [{"txinwitness": ["304402204fb38fae63968faaadfafb3a6399e20f521cea9af692a0394d6f40866dec5a6402201b63a1f4af9eda84f9a55bee48da5885d7ca6aca02f98557de35b969848a93a701", "02281da9063ae228109e35163b6d639151fcf91b9bea314c8cf6fcc00c79402dbb"], "sequence": 4294967295, "scriptSig": {"hex": "", "asm": ""}, "vout": 1, "txid": "30e800bf937b987a6810f878c53969822b75e0d01822eae4e119adffa1085859"}], "txid": "e93b94e63e14d147a6f059590d9fed4c87514da0524985d80afbc1d9974463cf", "blocktime": 1537870928, "version": 1, "confirmations": 11514, "time": 1537870928, "locktime": 0, "vsize": 144, "size": 225}