{"hash": "b423dce7b1d79dcecde6a66e2b1ad5f5822eaff79b913681aac71f6b08760ab5", "blockhash": "0000000000000000000baef3f32e3676a92c3b2e5da21b426e4f302fc371ce76", "vout": [{"scriptPubKey": {"reqSigs": 1, "hex": "a91487ebf92e8a83cd5ae6df5f4f526e9cbd757d996187", "addresses": ["3E5hqA75LFZtsLBCcC221rvM4jHwjGKM2T"], "asm": "OP_HASH160 87ebf92e8a83cd5ae6df5f4f526e9cbd757d9961 OP_EQUAL", "type": "scripthash"}, "value": 0.02042597, "n": 0}, {"scriptPubKey": {"reqSigs": 1, "hex": "76a914f1ee60e6e9726e9ae0fdf9a6d65b44e9093806f988ac", "addresses": ["1P4DR4ZER8nb9raJztaWUGfMb5RLke9zxo"], "asm": "OP_DUP OP_HASH160 f1ee60e6e9726e9ae0fdf9a6d65b44e9093806f9 OP_EQUALVERIFY OP_CHECKSIG", "type": "pubkeyhash"}, "value": 0.015702, "n": 1}], "hex": "010000000001019a7965d44b0e5853f61cfc71807ff6fe9b38e54ea4865319750ae3ba024319c400000000232200205dc5511cf7958770edfa0a3ca19ed95046286e18063af1af5bbb7ddb8157fab3ffffffff02e52a1f000000000017a91487ebf92e8a83cd5ae6df5f4f526e9cbd757d99618798f51700000000001976a914f1ee60e6e9726e9ae0fdf9a6d65b44e9093806f988ac0400483045022100b0032fd900c1adbac1e6df03f77842612d001eea09d22f0509c430a3c1f9fe0e0220511c0f423df326e059250a0ce635a582cddb2cb5280fe7330b6cb3ba1bdccd0901473044022072b21f05a5207b3f7f7a15c2d9fdd3a3c21dcf7980faa71c9c5a06e55cf6186e0220533ed56fef14fe73f574421e3bf973ff81ee802811c9399bb653e90ccb03b562016952210211a473d645f9ff3fbde0a1f125bd0d393f707cb2b12b092ef364e5257749c507210236cd9f99008c025d595a9f67eff87fe3ea561d7e4ca8d769be27fba55b9f322921024c91b53c27b565b8107cfe99aaf5fd57c79e577db7a6d09d5cd35d080a2e2d5f53ae00000000", "vin": [{"txinwitness": ["", "3045022100b0032fd900c1adbac1e6df03f77842612d001eea09d22f0509c430a3c1f9fe0e0220511c0f423df326e059250a0ce635a582cddb2cb5280fe7330b6cb3ba1bdccd0901", "3044022072b21f05a5207b3f7f7a15c2d9fdd3a3c21dcf7980faa71c9c5a06e55cf6186e0220533ed56fef14fe73f574421e3bf973ff81ee802811c9399bb653e90ccb03b56201", "52210211a473d645f9ff3fbde0a1f125bd0d393f707cb2b12b092ef364e5257749c507210236cd9f99008c025d595a9f67eff87fe3ea561d7e4ca8d769be27fba55b9f322921024c91b53c27b565b8107cfe99aaf5fd57c79e577db7a6d09d5cd35d080a2e2d5f53ae"], "sequence": 4294967295, "scriptSig": {"hex": "2200205dc5511cf7958770edfa0a3ca19ed95046286e18063af1af5bbb7ddb8157fab3", "asm": "00205dc5511cf7958770edfa0a3ca19ed95046286e18063af1af5bbb7ddb8157fab3"}, "vout": 0, "txid": "c4194302bae30a75195386a44ee5389bfef67f8071fc1cf653580e4bd465799a"}], "txid": "e93e1cbb02766ef742865595c167cf79f9b0a3ce076c723c769175c6c525d4f8", "blocktime": 1537876114, "version": 1, "confirmations": 11460, "time": 1537876114, "locktime": 0, "vsize": 216, "size": 407}