{"hash": "e9445a7ca894a575bf14c8bf13e17c7556e13a1a10199e554ca5cb968c941181", "blockhash": "00000000000000000004ffacab907a6b429b9a5745fa0b75af4234bf69dd7176", "vout": [{"scriptPubKey": {"reqSigs": 1, "hex": "76a914ccebad344873b1b5c00e2048e21a8b1170ff9d7088ac", "addresses": ["1KgXBEHzvA1RjAAvBhwiyrQKEiicB1xEp3"], "asm": "OP_DUP OP_HASH160 ccebad344873b1b5c00e2048e21a8b1170ff9d70 OP_EQUALVERIFY OP_CHECKSIG", "type": "pubkeyhash"}, "value": 62.81625778, "n": 0}, {"scriptPubKey": {"reqSigs": 1, "hex": "a9145132ab9f33082728314d4f4d5e0a65fcf52966d887", "addresses": ["396MMitPDMB37XhwvmSZp2hDVtq15nzanH"], "asm": "OP_HASH160 5132ab9f33082728314d4f4d5e0a65fcf52966d8 OP_EQUAL", "type": "scripthash"}, "value": 0.0081291, "n": 1}], "hex": "0200000001129c2ac062e9706bdf8559d092054dc5b3d8370c4ffe5046e8cd3178ee65418b020000006b483045022100f27dce3b2ef2dd3bb5ad25799c227470915f3a4acb67c312c021bbf498ddfc7c0220690a086eb55106ca989b20e05be4eb768f77ae4b8a0bb82c4c70dc04b80a6033012103965d8b9fb51435f0c1ccfac9fe835c13e00f38cd2e66c9a597bbae7202e6324dffffffff02b2006a76010000001976a914ccebad344873b1b5c00e2048e21a8b1170ff9d7088ac6e670c000000000017a9145132ab9f33082728314d4f4d5e0a65fcf52966d88700000000", "vin": [{"sequence": 4294967295, "scriptSig": {"hex": "483045022100f27dce3b2ef2dd3bb5ad25799c227470915f3a4acb67c312c021bbf498ddfc7c0220690a086eb55106ca989b20e05be4eb768f77ae4b8a0bb82c4c70dc04b80a6033012103965d8b9fb51435f0c1ccfac9fe835c13e00f38cd2e66c9a597bbae7202e6324d", "asm": "3045022100f27dce3b2ef2dd3bb5ad25799c227470915f3a4acb67c312c021bbf498ddfc7c0220690a086eb55106ca989b20e05be4eb768f77ae4b8a0bb82c4c70dc04b80a6033[ALL] 03965d8b9fb51435f0c1ccfac9fe835c13e00f38cd2e66c9a597bbae7202e6324d"}, "vout": 2, "txid": "8b4165ee7831cde84650fe4f0c37d8b3c54d0592d05985df6b70e962c02a9c12"}], "txid": "e9445a7ca894a575bf14c8bf13e17c7556e13a1a10199e554ca5cb968c941181", "blocktime": 1537875543, "version": 2, "confirmations": 11464, "time": 1537875543, "locktime": 0, "vsize": 224, "size": 224}