{"hash": "e94a23b121054ad9d973b42324a01988fd2cc0aedc1d245d538ed73ce1fcb061", "blockhash": "0000000000000000000baef3f32e3676a92c3b2e5da21b426e4f302fc371ce76", "vout": [{"scriptPubKey": {"reqSigs": 1, "hex": "76a914b344c8ef019c994f3525bfc6ed565edfbb7514bc88ac", "addresses": ["1HLtMbaBc3pHhR1rnXWP4bfk8jkwiHeJXL"], "asm": "OP_DUP OP_HASH160 b344c8ef019c994f3525bfc6ed565edfbb7514bc OP_EQUALVERIFY OP_CHECKSIG", "type": "pubkeyhash"}, "value": 0.1946648, "n": 0}, {"scriptPubKey": {"reqSigs": 1, "hex": "76a9148f2a708036a6b9277ce6aa30eaa74cc1be013fd588ac", "addresses": ["1E3zUBG1KrSq3RB2ZGxBuo633G2zKzwLBH"], "asm": "OP_DUP OP_HASH160 8f2a708036a6b9277ce6aa30eaa74cc1be013fd5 OP_EQUALVERIFY OP_CHECKSIG", "type": "pubkeyhash"}, "value": 0.0004, "n": 1}], "hex": "0200000001ae28054ed70174b47cb2967dd049c4159537ae50aaa1042b52989e86199c41e4010000006b4830450221008107a55490635ef73efbc7a764a3060add3dd59b035c62cca51f39e3efb8703b0220082a1987b85602b56b0b1af249d813e1e11f4ad54c7d5725144aa0bd272a5349012102d2386a2d0c78b08644e38b3f8f739f7128bcb7eb1fa407cd091d8e8e759c385cfeffffff02f0082901000000001976a914b344c8ef019c994f3525bfc6ed565edfbb7514bc88ac409c0000000000001976a9148f2a708036a6b9277ce6aa30eaa74cc1be013fd588ac17490800", "vin": [{"sequence": 4294967294, "scriptSig": {"hex": "4830450221008107a55490635ef73efbc7a764a3060add3dd59b035c62cca51f39e3efb8703b0220082a1987b85602b56b0b1af249d813e1e11f4ad54c7d5725144aa0bd272a5349012102d2386a2d0c78b08644e38b3f8f739f7128bcb7eb1fa407cd091d8e8e759c385c", "asm": "30450221008107a55490635ef73efbc7a764a3060add3dd59b035c62cca51f39e3efb8703b0220082a1987b85602b56b0b1af249d813e1e11f4ad54c7d5725144aa0bd272a5349[ALL] 02d2386a2d0c78b08644e38b3f8f739f7128bcb7eb1fa407cd091d8e8e759c385c"}, "vout": 1, "txid": "e4419c19869e98522b04a1aa50ae379515c449d07d96b27cb47401d74e0528ae"}], "txid": "e94a23b121054ad9d973b42324a01988fd2cc0aedc1d245d538ed73ce1fcb061", "blocktime": 1537876114, "version": 2, "confirmations": 11460, "time": 1537876114, "locktime": 542999, "vsize": 226, "size": 226}