{"hash": "e94c2632bce2300aa781216774869cf85d149512ffd11de9fa786923b1348dce", "blockhash": "000000000000000000022b45ed06c6f4ccd3cf7fb5ba4856ebd2e58215665228", "vout": [{"scriptPubKey": {"reqSigs": 1, "hex": "76a914fbb5b52df96cb965f0e023d502a0bd7be531f64d88ac", "addresses": ["1PwvHRbUzbZDUykJfsQG3eRBmnvgDCGewy"], "asm": "OP_DUP OP_HASH160 fbb5b52df96cb965f0e023d502a0bd7be531f64d OP_EQUALVERIFY OP_CHECKSIG", "type": "pubkeyhash"}, "value": 0.0535698, "n": 0}, {"scriptPubKey": {"reqSigs": 1, "hex": "a91447eba05cb5b1c99a97bb34d11569da429a90742687", "addresses": ["38FJAmr3XLsDHDMbZeWdbj4TTAYc2YgtkN"], "asm": "OP_HASH160 47eba05cb5b1c99a97bb34d11569da429a907426 OP_EQUAL", "type": "scripthash"}, "value": 0.00640866, "n": 1}, {"scriptPubKey": {"reqSigs": 1, "hex": "76a9142a9eefb7a54afcda8d96b0c70fa4f38a3ff3b7b588ac", "addresses": ["14tMn9ms68mQRbaPsjGzo9SNQxnrHNJu6h"], "asm": "OP_DUP OP_HASH160 2a9eefb7a54afcda8d96b0c70fa4f38a3ff3b7b5 OP_EQUALVERIFY OP_CHECKSIG", "type": "pubkeyhash"}, "value": 0.00997558, "n": 2}, {"scriptPubKey": {"reqSigs": 1, "hex": "a9148902ac1b89fe48b04f5b583a15a78b2e49ef8cde87", "addresses": ["3EBThVtNqaeUhebZB97Ym6ut5s5CY1ftTj"], "asm": "OP_HASH160 8902ac1b89fe48b04f5b583a15a78b2e49ef8cde OP_EQUAL", "type": "scripthash"}, "value": 0.0029826, "n": 3}, {"scriptPubKey": {"reqSigs": 1, "hex": "a91439cd520c58646eaeb56789b6e539050825396c5d87", "addresses": ["36xeQPxNW95iGDdeDmGDfgDeLXh3UWP2t5"], "asm": "OP_HASH160 39cd520c58646eaeb56789b6e539050825396c5d OP_EQUAL", "type": "scripthash"}, "value": 0.01097148, "n": 4}, {"scriptPubKey": {"reqSigs": 1, "hex": "a914a71dd91323b8ade7684f1ed276d0dbfb202d793487", "addresses": ["3GveXT8DnXjwHNi9ReBHNvFttcb8QkMGj5"], "asm": "OP_HASH160 a71dd91323b8ade7684f1ed276d0dbfb202d7934 OP_EQUAL", "type": "scripthash"}, "value": 0.00179498, "n": 5}, {"scriptPubKey": {"reqSigs": 1, "hex": "a9140837aff5bb691c7920060fa59c3903fd61c8972887", "addresses": ["32SU3JX22scBUe4MKwzMTBmVGkiMSvBZTP"], "asm": "OP_HASH160 0837aff5bb691c7920060fa59c3903fd61c89728 OP_EQUAL", "type": "scripthash"}, "value": 0.00221306, "n": 6}, {"scriptPubKey": {"reqSigs": 1, "hex": "a9148751c6b3e091553a013179e7389b6f3c279006a287", "addresses": ["3E2X7MELvzRNsRx5sYi4cRLtA3wv91uF6n"], "asm": "OP_HASH160 8751c6b3e091553a013179e7389b6f3c279006a2 OP_EQUAL", "type": "scripthash"}, "value": 0.00531045, "n": 7}, {"scriptPubKey": {"reqSigs": 1, "hex": "76a9141395130055bda6d42bd623444cefce98ae2a40a388ac", "addresses": ["12nYRWCZengSgHvueS7k1WHgcAve55CERw"], "asm": "OP_DUP OP_HASH160 1395130055bda6d42bd623444cefce98ae2a40a3 OP_EQUALVERIFY OP_CHECKSIG", "type": "pubkeyhash"}, "value": 0.02752643, "n": 8}], "hex": "020000000388c1cec7d9d181fa952630ba30a22b9d94c373c41f558db0b580a65015ab1011010000006b483045022100881deb46c0f8eb41e0a38e04525bba6a25549cad8723e9a15d190f056b81553b02202c85537b928423c73f2b059cb94e7940b82bcfb63c1c089415e94d1576ea8d31012102d4bf26860bd4388c5bec40f3a4e233fa07b9d7763bce6aeb3f97abf5a3af9649feffffffc94e8c74799a572d24733441d7acd5866318465b896cb2281c09bcbeded89f052f0100006b483045022100b669a7f8574286bf9ac2d516c3d47462e31eeb29e57afc7aac077e8fa7698d0c022037fa16559b8328b214543948a794a9866ebb3b7b006c3fd199931540038da89601210346217d43db87d9678f670d9b7d02755735b8fdd3f48279bc4bfe685a14af429efefffffff651e219b52be72ff415091bb1b02c82609035ff6c7cf7cd366a955e2c73d678480000006b483045022100ff71e0829013c0ba3d28903292062ca57cdb9785cfe1d937156b8186f236af80022055c8eec0e6d86360adf3e8e4b4fc8a022241487e62ec8d8eee87b347ed17a2f8012103c91984b6a3b5663dc1edfa20981a72f7e17954db87229a6fa0a5376fb44a68b5feffffff09b4bd5100000000001976a914fbb5b52df96cb965f0e023d502a0bd7be531f64d88ac62c709000000000017a91447eba05cb5b1c99a97bb34d11569da429a90742687b6380f00000000001976a9142a9eefb7a54afcda8d96b0c70fa4f38a3ff3b7b588ac148d04000000000017a9148902ac1b89fe48b04f5b583a15a78b2e49ef8cde87bcbd10000000000017a91439cd520c58646eaeb56789b6e539050825396c5d872abd02000000000017a914a71dd91323b8ade7684f1ed276d0dbfb202d7934877a6003000000000017a9140837aff5bb691c7920060fa59c3903fd61c8972887651a08000000000017a9148751c6b3e091553a013179e7389b6f3c279006a28783002a00000000001976a9141395130055bda6d42bd623444cefce98ae2a40a388ac0b490800", "vin": [{"sequence": 4294967294, "scriptSig": {"hex": "483045022100881deb46c0f8eb41e0a38e04525bba6a25549cad8723e9a15d190f056b81553b02202c85537b928423c73f2b059cb94e7940b82bcfb63c1c089415e94d1576ea8d31012102d4bf26860bd4388c5bec40f3a4e233fa07b9d7763bce6aeb3f97abf5a3af9649", "asm": "3045022100881deb46c0f8eb41e0a38e04525bba6a25549cad8723e9a15d190f056b81553b02202c85537b928423c73f2b059cb94e7940b82bcfb63c1c089415e94d1576ea8d31[ALL] 02d4bf26860bd4388c5bec40f3a4e233fa07b9d7763bce6aeb3f97abf5a3af9649"}, "vout": 1, "txid": "1110ab1550a680b5b08d551fc473c3949d2ba230ba302695fa81d1d9c7cec188"}, {"sequence": 4294967294, "scriptSig": {"hex": "483045022100b669a7f8574286bf9ac2d516c3d47462e31eeb29e57afc7aac077e8fa7698d0c022037fa16559b8328b214543948a794a9866ebb3b7b006c3fd199931540038da89601210346217d43db87d9678f670d9b7d02755735b8fdd3f48279bc4bfe685a14af429e", "asm": "3045022100b669a7f8574286bf9ac2d516c3d47462e31eeb29e57afc7aac077e8fa7698d0c022037fa16559b8328b214543948a794a9866ebb3b7b006c3fd199931540038da896[ALL] 0346217d43db87d9678f670d9b7d02755735b8fdd3f48279bc4bfe685a14af429e"}, "vout": 303, "txid": "059fd8debebc091c28b26c895b46186386d5acd7413473242d579a79748c4ec9"}, {"sequence": 4294967294, "scriptSig": {"hex": "483045022100ff71e0829013c0ba3d28903292062ca57cdb9785cfe1d937156b8186f236af80022055c8eec0e6d86360adf3e8e4b4fc8a022241487e62ec8d8eee87b347ed17a2f8012103c91984b6a3b5663dc1edfa20981a72f7e17954db87229a6fa0a5376fb44a68b5", "asm": "3045022100ff71e0829013c0ba3d28903292062ca57cdb9785cfe1d937156b8186f236af80022055c8eec0e6d86360adf3e8e4b4fc8a022241487e62ec8d8eee87b347ed17a2f8[ALL] 03c91984b6a3b5663dc1edfa20981a72f7e17954db87229a6fa0a5376fb44a68b5"}, "vout": 72, "txid": "78d6732c5e956a36cdf77c6cff359060822cb0b11b0915f42fe72bb519e251f6"}], "txid": "e94c2632bce2300aa781216774869cf85d149512ffd11de9fa786923b1348dce", "blocktime": 1537869901, "version": 2, "confirmations": 11523, "time": 1537869901, "locktime": 542987, "vsize": 748, "size": 748}