{"hash": "e94e33ae514240eb47ac56b1d9dcad6ae89aa53fd6ccf16707b959bab0d8bae8", "blockhash": "00000000000000000018f53835495a110e01622372bf6ae95dc86f2b0ab887b0", "vout": [{"scriptPubKey": {"reqSigs": 1, "hex": "76a914fa0692278afe508514b5ffee8fe5e97732ce066988ac", "addresses": ["1Po1oWkD2LmodfkBYiAktwh76vkF93LKnh"], "asm": "OP_DUP OP_HASH160 fa0692278afe508514b5ffee8fe5e97732ce0669 OP_EQUALVERIFY OP_CHECKSIG", "type": "pubkeyhash"}, "value": 2.19e-05, "n": 0}, {"scriptPubKey": {"type": "nulldata", "hex": "6a146f6d6e69000000000000001f000000028fa6ae00", "asm": "OP_RETURN 6f6d6e69000000000000001f000000028fa6ae00"}, "value": 0.0, "n": 1}, {"scriptPubKey": {"reqSigs": 1, "hex": "a914a38e8bcb40c472429720e8b6d461eba9d574ebef87", "addresses": ["3Gbpq5yum8WX2dr5z7uVizupqpDLLNU7cn"], "asm": "OP_HASH160 a38e8bcb40c472429720e8b6d461eba9d574ebef OP_EQUAL", "type": "scripthash"}, "value": 5.4e-06, "n": 2}], "hex": "010000000160188ae2e89a6f7ee5925756b57031d2333bb4c3afeaabe85e936278213e6fa7df0000008b483045022100a64d8589203346103f3451aa7dacda9efce865b4955231b32f6818df94d8e21d022061ae75d0a64b8747cadf9da2f8d8738b6268a8e1950108fce4e61bbc4a6a77bf014104fcf07bb1222f7925f2b7cc15183a40443c578e62ea17100aa3b44ba66905c95d4980aec4cd2f6eb426d1b1ec45d76724f26901099416b9265b76ba67c8b0b73dffffffff038e080000000000001976a914fa0692278afe508514b5ffee8fe5e97732ce066988ac0000000000000000166a146f6d6e69000000000000001f000000028fa6ae001c0200000000000017a914a38e8bcb40c472429720e8b6d461eba9d574ebef8700000000", "vin": [{"sequence": 4294967295, "scriptSig": {"hex": "483045022100a64d8589203346103f3451aa7dacda9efce865b4955231b32f6818df94d8e21d022061ae75d0a64b8747cadf9da2f8d8738b6268a8e1950108fce4e61bbc4a6a77bf014104fcf07bb1222f7925f2b7cc15183a40443c578e62ea17100aa3b44ba66905c95d4980aec4cd2f6eb426d1b1ec45d76724f26901099416b9265b76ba67c8b0b73d", "asm": "3045022100a64d8589203346103f3451aa7dacda9efce865b4955231b32f6818df94d8e21d022061ae75d0a64b8747cadf9da2f8d8738b6268a8e1950108fce4e61bbc4a6a77bf[ALL] 04fcf07bb1222f7925f2b7cc15183a40443c578e62ea17100aa3b44ba66905c95d4980aec4cd2f6eb426d1b1ec45d76724f26901099416b9265b76ba67c8b0b73d"}, "vout": 223, "txid": "a76f3e217862935ee8abeaafc3b43b33d23170b5565792e57e6f9ae8e28a1860"}], "txid": "e94e33ae514240eb47ac56b1d9dcad6ae89aa53fd6ccf16707b959bab0d8bae8", "blocktime": 1537870928, "version": 1, "confirmations": 11512, "time": 1537870928, "locktime": 0, "vsize": 287, "size": 287}