{"hash": "e94e72058c62f03dca2f5670224d478fdf4da6742103a880a3db1a438bc24c6b", "blockhash": "000000000000000000022b45ed06c6f4ccd3cf7fb5ba4856ebd2e58215665228", "vout": [{"scriptPubKey": {"reqSigs": 1, "hex": "76a9141b4de11f8d5fa11b0ba5a2f6dba8ad0ac3b2c67688ac", "addresses": ["13VNYLP4E4K1h52H9rJaYWHW75F6Eevr4H"], "asm": "OP_DUP OP_HASH160 1b4de11f8d5fa11b0ba5a2f6dba8ad0ac3b2c676 OP_EQUALVERIFY OP_CHECKSIG", "type": "pubkeyhash"}, "value": 0.1573543, "n": 0}, {"scriptPubKey": {"reqSigs": 1, "hex": "76a91451708d03dfb8a39c788ff87b135c25e02145723e88ac", "addresses": ["18RcZi3sLUshevWqPBSU289xMFqzboUvEf"], "asm": "OP_DUP OP_HASH160 51708d03dfb8a39c788ff87b135c25e02145723e OP_EQUALVERIFY OP_CHECKSIG", "type": "pubkeyhash"}, "value": 0.03125801, "n": 1}], "hex": "010000000165e196d2ce643fcc8e3199b8eb4f6cda7d1749cc231b0097ff00581d163cc231010000006b48304502210089fa7010e7e4adbb8ffe9ac103f62def4cf65430ca4e8bf2f5392f5b10b7a15a022033722a4c42686210cb10420ebb0ff33359987ebc718cc69b0a651c2d775dfd14012102197036cd21a3aaf99c7890ba5488dd0cf075c36e2b92ccb77b40e1d83d111babffffffff02861af000000000001976a9141b4de11f8d5fa11b0ba5a2f6dba8ad0ac3b2c67688ac29b22f00000000001976a91451708d03dfb8a39c788ff87b135c25e02145723e88ac00000000", "vin": [{"sequence": 4294967295, "scriptSig": {"hex": "48304502210089fa7010e7e4adbb8ffe9ac103f62def4cf65430ca4e8bf2f5392f5b10b7a15a022033722a4c42686210cb10420ebb0ff33359987ebc718cc69b0a651c2d775dfd14012102197036cd21a3aaf99c7890ba5488dd0cf075c36e2b92ccb77b40e1d83d111bab", "asm": "304502210089fa7010e7e4adbb8ffe9ac103f62def4cf65430ca4e8bf2f5392f5b10b7a15a022033722a4c42686210cb10420ebb0ff33359987ebc718cc69b0a651c2d775dfd14[ALL] 02197036cd21a3aaf99c7890ba5488dd0cf075c36e2b92ccb77b40e1d83d111bab"}, "vout": 1, "txid": "31c23c161d5800ff97001b23cc49177dda6c4febb899318ecc3f64ced296e165"}], "txid": "e94e72058c62f03dca2f5670224d478fdf4da6742103a880a3db1a438bc24c6b", "blocktime": 1537869901, "version": 1, "confirmations": 11522, "time": 1537869901, "locktime": 0, "vsize": 226, "size": 226}