{"hash": "e9563c68e42f7fab9b301f45addce49d9895ded7fd9fd9e497c60f9cec04ff7f", "blockhash": "0000000000000000000baef3f32e3676a92c3b2e5da21b426e4f302fc371ce76", "vout": [{"scriptPubKey": {"reqSigs": 1, "hex": "a91469f375c01349436a65f60a793be294f38202f09a87", "addresses": ["3BMEXaddCALSY3RN1teRJ7ezSghbsXSA4x"], "asm": "OP_HASH160 69f375c01349436a65f60a793be294f38202f09a OP_EQUAL", "type": "scripthash"}, "value": 0.06294093, "n": 0}], "hex": "010000000383555df4ce18cf4c7a3ef03a2b6268baa440fd7fd59f32a80d899e260800f766010000006b483045022100d12079077565f948baca1c904203568a5f06175cd09302f172e657930f5503b00220211f957e3b48afea61702dad282b40613fe6bf003cf965cf4dd3fca96378b37e012102d92e4be1ce9378121adb3e9143d8cccaf1f3df36fd6d0fba1c304e03821e180bffffffff645a868762246ffaff7a779e393c393d1cb4db2696fdce375826877dd22312d6000000006a4730440220616cf0e36d09be1ecf0884c176dedafaf098773b41bb53bf7876b6e242207d970220364a8544a6b53a0792b74974b32e1abfb42ca1e565d20442638c33ea115977b8012102c9da20044716f13e560bc7320ab74345286e7feb00a7706c5aa50b7da2134953ffffffff92c7269367527d6201137c946bd3644238cb03c330abf90f088c8563c1dae689000000006a473044022034bca2c71ca68eaf13b5b5b1fd6124486e59a5434ee69637b9934c406f30ca380220307bb39e0d224adac231c25a39d23da708a684024d3e0aca0c15c790e27f39b9012102c9da20044716f13e560bc7320ab74345286e7feb00a7706c5aa50b7da2134953ffffffff014d0a60000000000017a91469f375c01349436a65f60a793be294f38202f09a8700000000", "vin": [{"sequence": 4294967295, "scriptSig": {"hex": "483045022100d12079077565f948baca1c904203568a5f06175cd09302f172e657930f5503b00220211f957e3b48afea61702dad282b40613fe6bf003cf965cf4dd3fca96378b37e012102d92e4be1ce9378121adb3e9143d8cccaf1f3df36fd6d0fba1c304e03821e180b", "asm": "3045022100d12079077565f948baca1c904203568a5f06175cd09302f172e657930f5503b00220211f957e3b48afea61702dad282b40613fe6bf003cf965cf4dd3fca96378b37e[ALL] 02d92e4be1ce9378121adb3e9143d8cccaf1f3df36fd6d0fba1c304e03821e180b"}, "vout": 1, "txid": "66f70008269e890da8329fd57ffd40a4ba68622b3af03e7a4ccf18cef45d5583"}, {"sequence": 4294967295, "scriptSig": {"hex": "4730440220616cf0e36d09be1ecf0884c176dedafaf098773b41bb53bf7876b6e242207d970220364a8544a6b53a0792b74974b32e1abfb42ca1e565d20442638c33ea115977b8012102c9da20044716f13e560bc7320ab74345286e7feb00a7706c5aa50b7da2134953", "asm": "30440220616cf0e36d09be1ecf0884c176dedafaf098773b41bb53bf7876b6e242207d970220364a8544a6b53a0792b74974b32e1abfb42ca1e565d20442638c33ea115977b8[ALL] 02c9da20044716f13e560bc7320ab74345286e7feb00a7706c5aa50b7da2134953"}, "vout": 0, "txid": "d61223d27d87265837cefd9626dbb41c3d393c399e777afffa6f246287865a64"}, {"sequence": 4294967295, "scriptSig": {"hex": "473044022034bca2c71ca68eaf13b5b5b1fd6124486e59a5434ee69637b9934c406f30ca380220307bb39e0d224adac231c25a39d23da708a684024d3e0aca0c15c790e27f39b9012102c9da20044716f13e560bc7320ab74345286e7feb00a7706c5aa50b7da2134953", "asm": "3044022034bca2c71ca68eaf13b5b5b1fd6124486e59a5434ee69637b9934c406f30ca380220307bb39e0d224adac231c25a39d23da708a684024d3e0aca0c15c790e27f39b9[ALL] 02c9da20044716f13e560bc7320ab74345286e7feb00a7706c5aa50b7da2134953"}, "vout": 0, "txid": "89e6dac163858c080ff9ab30c303cb384264d36b947c1301627d52679326c792"}], "txid": "e9563c68e42f7fab9b301f45addce49d9895ded7fd9fd9e497c60f9cec04ff7f", "blocktime": 1537876114, "version": 1, "confirmations": 11460, "time": 1537876114, "locktime": 0, "vsize": 484, "size": 484}