{"hash": "8981faf004ab7851ba860e9fa85bd37492e188a08a8d6c1818a30444648cafc5", "blockhash": "00000000000000000018f53835495a110e01622372bf6ae95dc86f2b0ab887b0", "vout": [{"scriptPubKey": {"reqSigs": 1, "hex": "76a914f420f5161af42ad0c7d31d8c9b750fd3e80d8b7788ac", "addresses": ["1PFqMj31Lh7EbbkWx1jXXfJ3TvSRSmRRiD"], "asm": "OP_DUP OP_HASH160 f420f5161af42ad0c7d31d8c9b750fd3e80d8b77 OP_EQUALVERIFY OP_CHECKSIG", "type": "pubkeyhash"}, "value": 0.0145156, "n": 0}, {"scriptPubKey": {"reqSigs": 1, "hex": "a914240c7703d2424ae071e21697c8677c30801b2de487", "addresses": ["34ydBXUUvFtTbKcLXrjCcZVtFfLPe7k1oE"], "asm": "OP_HASH160 240c7703d2424ae071e21697c8677c30801b2de4 OP_EQUAL", "type": "scripthash"}, "value": 0.00999343, "n": 1}], "hex": "02000000000103630d75bfdef1d84a47022c8e84b8bffc45ff3a752d0bf6b4d99a243bfb67716c00000000171600140e5b0128def1e4cabb3c98e2a410cd31abb96939feffffffe0bec9a662eb5d23dd7895cb84dc4c65fcd070d7a27a5147c1137a72a97a7732010000001716001404e9760cafdb1ea5a1aea94dc60b55f712a8eb29feffffffeaf9d540f00e12f67e88c6b5315f3f62b22605fd053e744c721ff14e49148e480100000017160014c059316d2d9ce447b0143ed035e73e21c1bdc632feffffff0228261600000000001976a914f420f5161af42ad0c7d31d8c9b750fd3e80d8b7788acaf3f0f000000000017a914240c7703d2424ae071e21697c8677c30801b2de48702483045022100f926d88e242fcd0176d452696e03f6aa28eb36ebbd2122432a545862b60dcea002201d63d74ca31e4ed3543b4e352e1d7b42b7c986599dc8fc8aed0b5524887145e901210347ae05d41c01102c673e2f99534e69e643ed0add03e9a8cce2627ba1b67e893302473044022006e5b909e5de03c8820a64ed7113d7ae223a56df17d4fa6957f42075ba91d2aa022061f135e3584faa8ce04c5122c2bfd114bcac81cbf141e69417a69aa9eb44b6b301210265a74c37b5d442227bb4d338967a34041a216975be32b58e8122f20777a853dc0247304402206d00c93e30f788bd9fac2ae48b2362d14cfb021f11cf3832ff787ee1ede39e1802200886e6100d0728404d17a14348eb8ee2a51645c2d56d288d6a1bc74c9d8ff04701210221b3274ad17bfff615b56164c2b1fceb1539533d5e14bb0137cdfc20fa5c647d0e490800", "vin": [{"txinwitness": ["3045022100f926d88e242fcd0176d452696e03f6aa28eb36ebbd2122432a545862b60dcea002201d63d74ca31e4ed3543b4e352e1d7b42b7c986599dc8fc8aed0b5524887145e901", "0347ae05d41c01102c673e2f99534e69e643ed0add03e9a8cce2627ba1b67e8933"], "sequence": 4294967294, "scriptSig": {"hex": "1600140e5b0128def1e4cabb3c98e2a410cd31abb96939", "asm": "00140e5b0128def1e4cabb3c98e2a410cd31abb96939"}, "vout": 0, "txid": "6c7167fb3b249ad9b4f60b2d753aff45fcbfb8848e2c02474ad8f1debf750d63"}, {"txinwitness": ["3044022006e5b909e5de03c8820a64ed7113d7ae223a56df17d4fa6957f42075ba91d2aa022061f135e3584faa8ce04c5122c2bfd114bcac81cbf141e69417a69aa9eb44b6b301", "0265a74c37b5d442227bb4d338967a34041a216975be32b58e8122f20777a853dc"], "sequence": 4294967294, "scriptSig": {"hex": "16001404e9760cafdb1ea5a1aea94dc60b55f712a8eb29", "asm": "001404e9760cafdb1ea5a1aea94dc60b55f712a8eb29"}, "vout": 1, "txid": "32777aa9727a13c147517aa2d770d0fc654cdc84cb9578dd235deb62a6c9bee0"}, {"txinwitness": ["304402206d00c93e30f788bd9fac2ae48b2362d14cfb021f11cf3832ff787ee1ede39e1802200886e6100d0728404d17a14348eb8ee2a51645c2d56d288d6a1bc74c9d8ff04701", "0221b3274ad17bfff615b56164c2b1fceb1539533d5e14bb0137cdfc20fa5c647d"], "sequence": 4294967294, "scriptSig": {"hex": "160014c059316d2d9ce447b0143ed035e73e21c1bdc632", "asm": "0014c059316d2d9ce447b0143ed035e73e21c1bdc632"}, "vout": 1, "txid": "488e14494ef11f724c743e05fd0526b2623f5f31b5c6887ef6120ef040d5f9ea"}], "txid": "e95ecf8e3396240571266ab6cafb64021ea1f5e5e95c49b567169b9bba978129", "blocktime": 1537870928, "version": 2, "confirmations": 11514, "time": 1537870928, "locktime": 542990, "vsize": 349, "size": 592}