{"hash": "e95fe48aa35737f0a2639394ca139556bdc91e1b6412fa46f97d2325db6339e2", "blockhash": "0000000000000000001f76057863aec43deb6fa401d9628bb513d65a8098bfab", "vout": [{"scriptPubKey": {"reqSigs": 1, "hex": "76a9140b4942117a2738ccf7445667c1f594eedc44607588ac", "addresses": ["122gCAuGjKFhQM8Ur1CR68RnKZ3b8B8F5h"], "asm": "OP_DUP OP_HASH160 0b4942117a2738ccf7445667c1f594eedc446075 OP_EQUALVERIFY OP_CHECKSIG", "type": "pubkeyhash"}, "value": 0.0221216, "n": 0}, {"scriptPubKey": {"type": "nulldata", "hex": "6a4c50000077ee0001ab0c9dba3ac280be113ad72cd19ed074892d00f8e87af8e8e963c7cfd5b9c5b4bc5aea6a81de856dad7fc7696b3f5baa17bb0613a7bfd3fe3d4fbc9a9526289ac0f6612cd74e33776ee4", "asm": "OP_RETURN 000077ee0001ab0c9dba3ac280be113ad72cd19ed074892d00f8e87af8e8e963c7cfd5b9c5b4bc5aea6a81de856dad7fc7696b3f5baa17bb0613a7bfd3fe3d4fbc9a9526289ac0f6612cd74e33776ee4"}, "value": 0.0, "n": 1}], "hex": "010000000183be8147427f9efbbafb815482e82fb308b8d7a2b3507e43a44bc562367de758000000006a473044022011a77e7947ddc010f4f71d70ff9749d93244f4f39d0dfad812a36b5824ec9b9502201f90952b092c5f77fbc2b3090dcc2ff34f04d5b489bc2c49cef6919975ad70bb01210317431f68d18d822231b29b96a481be0b19046d0a834a7156684d413cd9815537ffffffff0240c12100000000001976a9140b4942117a2738ccf7445667c1f594eedc44607588ac0000000000000000536a4c50000077ee0001ab0c9dba3ac280be113ad72cd19ed074892d00f8e87af8e8e963c7cfd5b9c5b4bc5aea6a81de856dad7fc7696b3f5baa17bb0613a7bfd3fe3d4fbc9a9526289ac0f6612cd74e33776ee400000000", "vin": [{"sequence": 4294967295, "scriptSig": {"hex": "473044022011a77e7947ddc010f4f71d70ff9749d93244f4f39d0dfad812a36b5824ec9b9502201f90952b092c5f77fbc2b3090dcc2ff34f04d5b489bc2c49cef6919975ad70bb01210317431f68d18d822231b29b96a481be0b19046d0a834a7156684d413cd9815537", "asm": "3044022011a77e7947ddc010f4f71d70ff9749d93244f4f39d0dfad812a36b5824ec9b9502201f90952b092c5f77fbc2b3090dcc2ff34f04d5b489bc2c49cef6919975ad70bb[ALL] 0317431f68d18d822231b29b96a481be0b19046d0a834a7156684d413cd9815537"}, "vout": 0, "txid": "58e77d3662c54ba4437e50b3a2d7b808b32fe8825481fbbafb9e7f424781be83"}], "txid": "e95fe48aa35737f0a2639394ca139556bdc91e1b6412fa46f97d2325db6339e2", "blocktime": 1537873891, "version": 1, "confirmations": 11478, "time": 1537873891, "locktime": 0, "vsize": 283, "size": 283}