{"hash": "e9619bb87dff4178a837e91fc33200c2251f8d0f156631fa70d56a34b9929c82", "blockhash": "0000000000000000000baef3f32e3676a92c3b2e5da21b426e4f302fc371ce76", "vout": [{"scriptPubKey": {"reqSigs": 1, "hex": "76a9142b73e34ea84a25994043b80c09c8a614ca0ddac488ac", "addresses": ["14xktHPG8ij6kT5qaZo8AbHLHnCB5CMNLG"], "asm": "OP_DUP OP_HASH160 2b73e34ea84a25994043b80c09c8a614ca0ddac4 OP_EQUALVERIFY OP_CHECKSIG", "type": "pubkeyhash"}, "value": 0.00129285, "n": 0}, {"scriptPubKey": {"reqSigs": 1, "hex": "76a91451f516f4783566e9598e75ba79dbc3de680cde4988ac", "addresses": ["18UMLfgXtdnZthfVxfwTWjjxKJFYGcWvAP"], "asm": "OP_DUP OP_HASH160 51f516f4783566e9598e75ba79dbc3de680cde49 OP_EQUALVERIFY OP_CHECKSIG", "type": "pubkeyhash"}, "value": 0.0467315, "n": 1}], "hex": "0100000001fea3045cdd591a48233b64e4808be6301077fc174dae0946a25843d0350fbc0c000000006b483045022100a1cb92bfb5e0883aea47ea4d50a355c19d169166f5392d225c3749a77c94168702202feb33fe755cc2770bc70b553feef3dd8e6cb32550ae02f55e6c7e969e9ffae9012103bfeba103e9e2da9fa004f64d85e25dbd5d8ef09f1428f7c0b2e7bbf8a2aa1c82ffffffff0205f90100000000001976a9142b73e34ea84a25994043b80c09c8a614ca0ddac488ac7e4e4700000000001976a91451f516f4783566e9598e75ba79dbc3de680cde4988ac00000000", "vin": [{"sequence": 4294967295, "scriptSig": {"hex": "483045022100a1cb92bfb5e0883aea47ea4d50a355c19d169166f5392d225c3749a77c94168702202feb33fe755cc2770bc70b553feef3dd8e6cb32550ae02f55e6c7e969e9ffae9012103bfeba103e9e2da9fa004f64d85e25dbd5d8ef09f1428f7c0b2e7bbf8a2aa1c82", "asm": "3045022100a1cb92bfb5e0883aea47ea4d50a355c19d169166f5392d225c3749a77c94168702202feb33fe755cc2770bc70b553feef3dd8e6cb32550ae02f55e6c7e969e9ffae9[ALL] 03bfeba103e9e2da9fa004f64d85e25dbd5d8ef09f1428f7c0b2e7bbf8a2aa1c82"}, "vout": 0, "txid": "0cbc0f35d04358a24609ae4d17fc771030e68b80e4643b23481a59dd5c04a3fe"}], "txid": "e9619bb87dff4178a837e91fc33200c2251f8d0f156631fa70d56a34b9929c82", "blocktime": 1537876114, "version": 1, "confirmations": 11459, "time": 1537876114, "locktime": 0, "vsize": 226, "size": 226}