{"hash": "e96597bf67da7201a8b56f76251085bc1b9b1c5d833ff64be084ddca2576702e", "blockhash": "0000000000000000000e13cef7c366c0283d82e591d1acd082e914b08063cdf1", "vout": [{"scriptPubKey": {"reqSigs": 1, "hex": "76a9148ab22332932f1188aed6b6126dda794d3dc2160888ac", "addresses": ["1DeMegafnALaP73kAasWv4v5y4NRePL3ZW"], "asm": "OP_DUP OP_HASH160 8ab22332932f1188aed6b6126dda794d3dc21608 OP_EQUALVERIFY OP_CHECKSIG", "type": "pubkeyhash"}, "value": 0.0134223, "n": 0}, {"scriptPubKey": {"reqSigs": 1, "hex": "a914ce25d12413eac9d111de369ddb237c181a3add5e87", "addresses": ["3LV2RdSLt7qjLdNWegSvmCjr9jWkGKg4mt"], "asm": "OP_HASH160 ce25d12413eac9d111de369ddb237c181a3add5e OP_EQUAL", "type": "scripthash"}, "value": 0.07242863, "n": 1}], "hex": "020000000471b60abaf6503c72b8be0e61241d55d63a6810b4faa7e93c1f4c904c413c2795000000006a47304402200d7611f0f48e2fe44b2b5de08235f0c713d9030f190b9ef1881e5cefedc6e8fa02204ee692bf44f0195f2f98f080571bc5ddee679e37b1695005fd1ce7143ffdfde80121026e55d620903ab91c182b91da6786ca507c771854d800756dc3f5055229810ef0feffffffb541710500d8290ad94890177e6e3acfe023edf00f25ef56f85d8701b7540921000000006b4830450221009af27a6a45aa6677f0676748a0648bcd12f749421195ef7707e889895a2100930220795625ad0c2273222761e73e5373fabcd33796f1d20e9f39022b37a4af778b43012103ef3e4927f9c383dbaebb7fcf85709c5497639022fe1f9917b5df4f143a43fb40feffffffceae3906f44be0cc7fa780a80037ad1622bc88e0ca8db85af0d9f7a80c4789ff3b0000006a473044022076556e52d9d057e609c75a9c249f50e35785ced2dade73ab715427ee85787294022011ecf2141787d31510fc3d4d6398711ae97aa199f98da4b5739d3d05cad007550121022f9b3b77ff96c6ca2e6be844172b46a1ca0622ae7b6c4320f0e8b2a1d8683168feffffffd12f3ec53e8eb16b1f14655bf69a7c0c3157a08ddd8f8b7659de86b68ef00cf7010000006a4730440220377e1069ca2bcb9d83bb94f7541e4244bfebf90c48f9e762053d71ef6ec2e3c80220363c8bb990601676897a178b00bddb09ab38bfd72f342637036872bf606f3f63012103133e2c4d72aa78c02422680c51b98edde8e87d10d4c4466537a51a658418bdcdfeffffff02167b1400000000001976a9148ab22332932f1188aed6b6126dda794d3dc2160888ac6f846e000000000017a914ce25d12413eac9d111de369ddb237c181a3add5e8700000000", "vin": [{"sequence": 4294967294, "scriptSig": {"hex": "47304402200d7611f0f48e2fe44b2b5de08235f0c713d9030f190b9ef1881e5cefedc6e8fa02204ee692bf44f0195f2f98f080571bc5ddee679e37b1695005fd1ce7143ffdfde80121026e55d620903ab91c182b91da6786ca507c771854d800756dc3f5055229810ef0", "asm": "304402200d7611f0f48e2fe44b2b5de08235f0c713d9030f190b9ef1881e5cefedc6e8fa02204ee692bf44f0195f2f98f080571bc5ddee679e37b1695005fd1ce7143ffdfde8[ALL] 026e55d620903ab91c182b91da6786ca507c771854d800756dc3f5055229810ef0"}, "vout": 0, "txid": "95273c414c904c1f3ce9a7fab410683ad6551d24610ebeb8723c50f6ba0ab671"}, {"sequence": 4294967294, "scriptSig": {"hex": "4830450221009af27a6a45aa6677f0676748a0648bcd12f749421195ef7707e889895a2100930220795625ad0c2273222761e73e5373fabcd33796f1d20e9f39022b37a4af778b43012103ef3e4927f9c383dbaebb7fcf85709c5497639022fe1f9917b5df4f143a43fb40", "asm": "30450221009af27a6a45aa6677f0676748a0648bcd12f749421195ef7707e889895a2100930220795625ad0c2273222761e73e5373fabcd33796f1d20e9f39022b37a4af778b43[ALL] 03ef3e4927f9c383dbaebb7fcf85709c5497639022fe1f9917b5df4f143a43fb40"}, "vout": 0, "txid": "210954b701875df856ef250ff0ed23e0cf3a6e7e179048d90a29d800057141b5"}, {"sequence": 4294967294, "scriptSig": {"hex": "473044022076556e52d9d057e609c75a9c249f50e35785ced2dade73ab715427ee85787294022011ecf2141787d31510fc3d4d6398711ae97aa199f98da4b5739d3d05cad007550121022f9b3b77ff96c6ca2e6be844172b46a1ca0622ae7b6c4320f0e8b2a1d8683168", "asm": "3044022076556e52d9d057e609c75a9c249f50e35785ced2dade73ab715427ee85787294022011ecf2141787d31510fc3d4d6398711ae97aa199f98da4b5739d3d05cad00755[ALL] 022f9b3b77ff96c6ca2e6be844172b46a1ca0622ae7b6c4320f0e8b2a1d8683168"}, "vout": 59, "txid": "ff89470ca8f7d9f05ab88dcae088bc2216ad3700a880a77fcce04bf40639aece"}, {"sequence": 4294967294, "scriptSig": {"hex": "4730440220377e1069ca2bcb9d83bb94f7541e4244bfebf90c48f9e762053d71ef6ec2e3c80220363c8bb990601676897a178b00bddb09ab38bfd72f342637036872bf606f3f63012103133e2c4d72aa78c02422680c51b98edde8e87d10d4c4466537a51a658418bdcd", "asm": "30440220377e1069ca2bcb9d83bb94f7541e4244bfebf90c48f9e762053d71ef6ec2e3c80220363c8bb990601676897a178b00bddb09ab38bfd72f342637036872bf606f3f63[ALL] 03133e2c4d72aa78c02422680c51b98edde8e87d10d4c4466537a51a658418bdcd"}, "vout": 1, "txid": "f70cf08eb686de59768b8fdd8da057310c7c9af65b65141f6bb18e3ec53e2fd1"}], "txid": "e96597bf67da7201a8b56f76251085bc1b9b1c5d833ff64be084ddca2576702e", "blocktime": 1537871767, "version": 2, "confirmations": 11493, "time": 1537871767, "locktime": 0, "vsize": 665, "size": 665}