{"hash": "e967fcd6cc4102652575838d3ce7497e184342bb7c489cec6deee579ffe4ca5c", "blockhash": "00000000000000000017f5eb5941039fbcee6240d03bc1f2f8e35350df66a1d8", "vout": [{"scriptPubKey": {"reqSigs": 1, "hex": "76a914fa458d314f8e01068dbb49eb350753d79f548b1d88ac", "addresses": ["1PpKFV1RXd4wxP4FoDMeSU48qUhiTmHkpZ"], "asm": "OP_DUP OP_HASH160 fa458d314f8e01068dbb49eb350753d79f548b1d OP_EQUALVERIFY OP_CHECKSIG", "type": "pubkeyhash"}, "value": 0.00784, "n": 0}, {"scriptPubKey": {"reqSigs": 1, "hex": "76a914ffbe58aef782f5b3959dd1ee8127193f62565dbe88ac", "addresses": ["1QKFLREguYhshX6c4Udq21nUW2HMX6vnxv"], "asm": "OP_DUP OP_HASH160 ffbe58aef782f5b3959dd1ee8127193f62565dbe OP_EQUALVERIFY OP_CHECKSIG", "type": "pubkeyhash"}, "value": 0.20386491, "n": 1}], "hex": "01000000018f2025d555ce09b57955c2730bddf3a7599310946b0e3d4a5e15fa0ce770ce98000000006b483045022100aa6f121773bb3dee958472f4a91b595aa3accf95b854de4a438ae1fea31b67f0022074b4822f1f1b2938577d246ab7fbf32afec96b05e90d91cb9cdecd7e282d887a01210304843c57400011df1fd8b7193e350fbefb1e642de6ce9399959727b52e0bd8acffffffff0280f60b00000000001976a914fa458d314f8e01068dbb49eb350753d79f548b1d88acbb123701000000001976a914ffbe58aef782f5b3959dd1ee8127193f62565dbe88ac00000000", "vin": [{"sequence": 4294967295, "scriptSig": {"hex": "483045022100aa6f121773bb3dee958472f4a91b595aa3accf95b854de4a438ae1fea31b67f0022074b4822f1f1b2938577d246ab7fbf32afec96b05e90d91cb9cdecd7e282d887a01210304843c57400011df1fd8b7193e350fbefb1e642de6ce9399959727b52e0bd8ac", "asm": "3045022100aa6f121773bb3dee958472f4a91b595aa3accf95b854de4a438ae1fea31b67f0022074b4822f1f1b2938577d246ab7fbf32afec96b05e90d91cb9cdecd7e282d887a[ALL] 0304843c57400011df1fd8b7193e350fbefb1e642de6ce9399959727b52e0bd8ac"}, "vout": 0, "txid": "98ce70e70cfa155e4a3d0e6b94109359a7f3dd0b73c25579b509ce55d525208f"}], "txid": "e967fcd6cc4102652575838d3ce7497e184342bb7c489cec6deee579ffe4ca5c", "blocktime": 1537874412, "version": 1, "confirmations": 11468, "time": 1537874412, "locktime": 0, "vsize": 226, "size": 226}