{"hash": "e968143ccd288daefa9dd0e5b9ffd22102e61201f8d172b04ee968e0d1ecf62a", "blockhash": "0000000000000000001cda96e906b7601b7a6fb1a3b62bca570a9e5d8f4b3de1", "vout": [{"scriptPubKey": {"reqSigs": 1, "hex": "76a91410c47a908b4be2b672ae71da1caac8c298e5fef888ac", "addresses": ["12XfBeu7AtwyDqSQr3CmWSSke3omyqAVPi"], "asm": "OP_DUP OP_HASH160 10c47a908b4be2b672ae71da1caac8c298e5fef8 OP_EQUALVERIFY OP_CHECKSIG", "type": "pubkeyhash"}, "value": 0.07808, "n": 0}, {"scriptPubKey": {"reqSigs": 1, "hex": "76a9148d9927341ccdaec272d3dfc760d0ca9ad7cdf25688ac", "addresses": ["1DuhkKFmgQdLCsfmNCgzrKmndhYypjitoq"], "asm": "OP_DUP OP_HASH160 8d9927341ccdaec272d3dfc760d0ca9ad7cdf256 OP_EQUALVERIFY OP_CHECKSIG", "type": "pubkeyhash"}, "value": 0.13170834, "n": 1}], "hex": "0100000001782e441b0efdee57bf2898413a9a9bca75726d785d445b376744b476d208b465010000006b483045022100cf6ce504f117517caf1b1bf9d530f390375376a19b587b487cc21959137eb2d002200081bb1afb0756d07bfb337d8ce254551f132c3b8e9b3e67461fd87d8a54dc67012103ad4aaa8ba3a7d18da06f3004f3d93fb6b6629511bd1e89c64e0323efc86be39cffffffff0200247700000000001976a91410c47a908b4be2b672ae71da1caac8c298e5fef888ac92f8c800000000001976a9148d9927341ccdaec272d3dfc760d0ca9ad7cdf25688ac00000000", "vin": [{"sequence": 4294967295, "scriptSig": {"hex": "483045022100cf6ce504f117517caf1b1bf9d530f390375376a19b587b487cc21959137eb2d002200081bb1afb0756d07bfb337d8ce254551f132c3b8e9b3e67461fd87d8a54dc67012103ad4aaa8ba3a7d18da06f3004f3d93fb6b6629511bd1e89c64e0323efc86be39c", "asm": "3045022100cf6ce504f117517caf1b1bf9d530f390375376a19b587b487cc21959137eb2d002200081bb1afb0756d07bfb337d8ce254551f132c3b8e9b3e67461fd87d8a54dc67[ALL] 03ad4aaa8ba3a7d18da06f3004f3d93fb6b6629511bd1e89c64e0323efc86be39c"}, "vout": 1, "txid": "65b408d276b44467375b445d786d7275ca9b9a3a419828bf57eefd0e1b442e78"}], "txid": "e968143ccd288daefa9dd0e5b9ffd22102e61201f8d172b04ee968e0d1ecf62a", "blocktime": 1537873282, "version": 1, "confirmations": 11484, "time": 1537873282, "locktime": 0, "vsize": 226, "size": 226}