{"hash": "e969aa8f7e3f50c641febc32697a37b32c07402677d3bb4900e0463583241e72", "blockhash": "0000000000000000000baef3f32e3676a92c3b2e5da21b426e4f302fc371ce76", "vout": [{"scriptPubKey": {"reqSigs": 1, "hex": "76a9148becdbde714a928180077e214b298a00aa7533ea88ac", "addresses": ["1DkrfubH6BhhRVGWmq287q5QxQ4C4Dfydi"], "asm": "OP_DUP OP_HASH160 8becdbde714a928180077e214b298a00aa7533ea OP_EQUALVERIFY OP_CHECKSIG", "type": "pubkeyhash"}, "value": 0.24875582, "n": 0}], "hex": "01000000018b2c387aa0694626d198c2345570283552dd001bd56e36ac4f19a2ca2476e53b010000006b483045022100afd67d5cac6a7bc9d8bc0c8e69712aa7750cfb2b0d7881ed9ff6b658f80280060220709b79da919ac93719f2130e6cde20d6b7c6fb95f952aa3a89e01386b8eba8c401210313f23edeed7ccda197871f98bb59d884c5e00beef48575b115e3c435f016c4c2ffffffff013e927b01000000001976a9148becdbde714a928180077e214b298a00aa7533ea88ac00000000", "vin": [{"sequence": 4294967295, "scriptSig": {"hex": "483045022100afd67d5cac6a7bc9d8bc0c8e69712aa7750cfb2b0d7881ed9ff6b658f80280060220709b79da919ac93719f2130e6cde20d6b7c6fb95f952aa3a89e01386b8eba8c401210313f23edeed7ccda197871f98bb59d884c5e00beef48575b115e3c435f016c4c2", "asm": "3045022100afd67d5cac6a7bc9d8bc0c8e69712aa7750cfb2b0d7881ed9ff6b658f80280060220709b79da919ac93719f2130e6cde20d6b7c6fb95f952aa3a89e01386b8eba8c4[ALL] 0313f23edeed7ccda197871f98bb59d884c5e00beef48575b115e3c435f016c4c2"}, "vout": 1, "txid": "3be57624caa2194fac366ed51b00dd523528705534c298d1264669a07a382c8b"}], "txid": "e969aa8f7e3f50c641febc32697a37b32c07402677d3bb4900e0463583241e72", "blocktime": 1537876114, "version": 1, "confirmations": 11460, "time": 1537876114, "locktime": 0, "vsize": 192, "size": 192}