{"hash": "e96940141e3050f791ab9ee330b2386416856cbf919644dd8d0da283f33d4e90", "blockhash": "0000000000000000000e13cef7c366c0283d82e591d1acd082e914b08063cdf1", "vout": [{"scriptPubKey": {"reqSigs": 1, "hex": "a91410b1033a4a8f179caa387a879a9ee1cd991593c387", "addresses": ["33DGnfWDoRRxdFUXP25VhTzSN4rxaNhmS7"], "asm": "OP_HASH160 10b1033a4a8f179caa387a879a9ee1cd991593c3 OP_EQUAL", "type": "scripthash"}, "value": 0.025019, "n": 0}, {"scriptPubKey": {"reqSigs": 1, "hex": "76a914b5415fefe0bbc6c8011258293f93f4c816a9765288ac", "addresses": ["1HXPd3FgGpgR1KvQbEbXowpns6susQVdWd"], "asm": "OP_DUP OP_HASH160 b5415fefe0bbc6c8011258293f93f4c816a97652 OP_EQUALVERIFY OP_CHECKSIG", "type": "pubkeyhash"}, "value": 0.002846, "n": 1}], "hex": "010000000297c8b880bc1fc8c101192e9a869bc2134e4bf9022dbd25cfe9e515e4a37c70e7010000006a47304402206bfeb5f99754121dd8c9dd6c9a4a500a82e38954f945d69d28e787de5c8fe0c402205c1c2d6bd2c6760f0eeb506d92c7a08066ec6db93aabf39e6dbba4767f52ca1a0121029e503de73626ca3a7c6d38412aba29b1c7f7671ea5dd85039f8eb57713abe76cffffffff60cb9bea8f940bdd0a203565dfab3b5a204a80b6aeea74995e2e66b9538a8c24040000006b483045022100dc5c937dcbd428a200fa47927cf9068f77750d34c2755546c5c99e65a26864fe02203a78060f507027d846fb23cbb032be4d280d143b4621ca8fceae0396edbec442012102389ecc571d87cd9cc10976b2f581f345f94d0b061d2bc421813a2db5a0e15b4affffffff020c2d26000000000017a91410b1033a4a8f179caa387a879a9ee1cd991593c387b8570400000000001976a914b5415fefe0bbc6c8011258293f93f4c816a9765288ac00000000", "vin": [{"sequence": 4294967295, "scriptSig": {"hex": "47304402206bfeb5f99754121dd8c9dd6c9a4a500a82e38954f945d69d28e787de5c8fe0c402205c1c2d6bd2c6760f0eeb506d92c7a08066ec6db93aabf39e6dbba4767f52ca1a0121029e503de73626ca3a7c6d38412aba29b1c7f7671ea5dd85039f8eb57713abe76c", "asm": "304402206bfeb5f99754121dd8c9dd6c9a4a500a82e38954f945d69d28e787de5c8fe0c402205c1c2d6bd2c6760f0eeb506d92c7a08066ec6db93aabf39e6dbba4767f52ca1a[ALL] 029e503de73626ca3a7c6d38412aba29b1c7f7671ea5dd85039f8eb57713abe76c"}, "vout": 1, "txid": "e7707ca3e415e5e9cf25bd2d02f94b4e13c29b869a2e1901c1c81fbc80b8c897"}, {"sequence": 4294967295, "scriptSig": {"hex": "483045022100dc5c937dcbd428a200fa47927cf9068f77750d34c2755546c5c99e65a26864fe02203a78060f507027d846fb23cbb032be4d280d143b4621ca8fceae0396edbec442012102389ecc571d87cd9cc10976b2f581f345f94d0b061d2bc421813a2db5a0e15b4a", "asm": "3045022100dc5c937dcbd428a200fa47927cf9068f77750d34c2755546c5c99e65a26864fe02203a78060f507027d846fb23cbb032be4d280d143b4621ca8fceae0396edbec442[ALL] 02389ecc571d87cd9cc10976b2f581f345f94d0b061d2bc421813a2db5a0e15b4a"}, "vout": 4, "txid": "248c8a53b9662e5e9974eaaeb6804a205a3babdf6535200add0b948fea9bcb60"}], "txid": "e96940141e3050f791ab9ee330b2386416856cbf919644dd8d0da283f33d4e90", "blocktime": 1537871767, "version": 1, "confirmations": 11495, "time": 1537871767, "locktime": 0, "vsize": 371, "size": 371}