{"hash": "e9780da532faf4e4ae7525f0747dde50c1944e0c66dc1511435334beac594ac0", "blockhash": "00000000000000000024a2167bbff67b0be802c0b01cdd79e6331c2be6459f87", "vout": [{"scriptPubKey": {"reqSigs": 1, "hex": "76a914dc645778cf94a30e783d0884f3e383de0116305688ac", "addresses": ["1M6Ks4np5hAFZmePf94oc73f2arTm5M46w"], "asm": "OP_DUP OP_HASH160 dc645778cf94a30e783d0884f3e383de01163056 OP_EQUALVERIFY OP_CHECKSIG", "type": "pubkeyhash"}, "value": 0.361, "n": 0}, {"scriptPubKey": {"reqSigs": 1, "hex": "76a91407a1fef7b31ad0f2fd869c920cecc37937016a4488ac", "addresses": ["1hMo2A3zB3aFh41quffc7hA3xZ2tYAqDT"], "asm": "OP_DUP OP_HASH160 07a1fef7b31ad0f2fd869c920cecc37937016a44 OP_EQUALVERIFY OP_CHECKSIG", "type": "pubkeyhash"}, "value": 0.0001291, "n": 1}], "hex": "01000000068736903769e2a77a0f4fc5777dcd28f9a1a2341a95923f67ea86c69bb12f93c7010000006b483045022100b847ffb4307f8832cefa652afec856bdf7a96d8848c90600f19555d90d2f173c02207ba3f7b0ba78766a2c4a4c61a1ff5df8522958fc1af4b3b2dc2f9b340b8bc194012102dc680c0fd9914b0e18a9cfd5d0c8a204fb24b89d25229dc16b2a37353f1ee92bffffffff7fa5176361377c0d9c6e57a3a3a35a4cfade246bc46585653d869eb4bc2b0ae3230000006b483045022100c89cddbcd515cfb077394fc9a181b0eb68aaeb8df47a1a73fc7fdfe819baa8d402204b366d59f0583666783cbbcc4208f9f0d71f41c937504698fabce4ee167df3f50121032b9e3216d03acec8c2568df1f466f7660e22f09aaad6077dc7e23c9a7eda90cbffffffff5c1201451fce915aa0ed74cbceb5327d6fcead54504f192c40423343e6910ee81d0000006b483045022100b254ed29f50f676c2729fda0816fa021507d35e00a669bfffe2289d974300a0402202e6ed08837ab7ac508f0ead9608d8055f7f33b4249011be531587174799998ce0121032b9e3216d03acec8c2568df1f466f7660e22f09aaad6077dc7e23c9a7eda90cbffffffff4d96cbd98d5c3f6c67f9e0262da07798c1b1e1d2e25a9313acbcc79c4f571b1ffb0000006a47304402206a0e84c13d6ee3eb3e48b5b5f30c2cfc1bfe7d320cc56e963cc3aa3ec5b49aba02204d17b03bc62e505f844377ea557720872fc3430ddaa93c49ce79f6f7bd8fd1770121032b9e3216d03acec8c2568df1f466f7660e22f09aaad6077dc7e23c9a7eda90cbffffffffcdd7988503d704e4f96e744b7006363b160c4470dd682403ce30972dc731aaae010000006a4730440220133c1b6608ab36e030113d271c672569c7d2e72909afb2660a8f5959c92b074c02205ec4ca2d7bff0b9ae42f766444debbf5627701615a440c6b9cfd19e96a4ffe80012102ca27bde96e9458df2da33c2cbb4d3a1530524555ac8e2800501d64b277eab72effffffff9c194cf76711dda5d3ad45c3b28e4396126840aedb90d1317f76001bad802a6e870000006a47304402200093d6bfff2fb6854f0f168058275a801ae84ee47b924adc6da253949a3dea3702205e31c722f9614f59ca0d948280251012647abc0bfda329b39b6d1bbfc654d2aa0121032b9e3216d03acec8c2568df1f466f7660e22f09aaad6077dc7e23c9a7eda90cbffffffff02a0d72602000000001976a914dc645778cf94a30e783d0884f3e383de0116305688ac6e320000000000001976a91407a1fef7b31ad0f2fd869c920cecc37937016a4488ac00000000", "vin": [{"sequence": 4294967295, "scriptSig": {"hex": "483045022100b847ffb4307f8832cefa652afec856bdf7a96d8848c90600f19555d90d2f173c02207ba3f7b0ba78766a2c4a4c61a1ff5df8522958fc1af4b3b2dc2f9b340b8bc194012102dc680c0fd9914b0e18a9cfd5d0c8a204fb24b89d25229dc16b2a37353f1ee92b", "asm": "3045022100b847ffb4307f8832cefa652afec856bdf7a96d8848c90600f19555d90d2f173c02207ba3f7b0ba78766a2c4a4c61a1ff5df8522958fc1af4b3b2dc2f9b340b8bc194[ALL] 02dc680c0fd9914b0e18a9cfd5d0c8a204fb24b89d25229dc16b2a37353f1ee92b"}, "vout": 1, "txid": "c7932fb19bc686ea673f92951a34a2a1f928cd7d77c54f0f7aa7e26937903687"}, {"sequence": 4294967295, "scriptSig": {"hex": "483045022100c89cddbcd515cfb077394fc9a181b0eb68aaeb8df47a1a73fc7fdfe819baa8d402204b366d59f0583666783cbbcc4208f9f0d71f41c937504698fabce4ee167df3f50121032b9e3216d03acec8c2568df1f466f7660e22f09aaad6077dc7e23c9a7eda90cb", "asm": "3045022100c89cddbcd515cfb077394fc9a181b0eb68aaeb8df47a1a73fc7fdfe819baa8d402204b366d59f0583666783cbbcc4208f9f0d71f41c937504698fabce4ee167df3f5[ALL] 032b9e3216d03acec8c2568df1f466f7660e22f09aaad6077dc7e23c9a7eda90cb"}, "vout": 35, "txid": "e30a2bbcb49e863d658565c46b24defa4c5aa3a3a3576e9c0d7c37616317a57f"}, {"sequence": 4294967295, "scriptSig": {"hex": "483045022100b254ed29f50f676c2729fda0816fa021507d35e00a669bfffe2289d974300a0402202e6ed08837ab7ac508f0ead9608d8055f7f33b4249011be531587174799998ce0121032b9e3216d03acec8c2568df1f466f7660e22f09aaad6077dc7e23c9a7eda90cb", "asm": "3045022100b254ed29f50f676c2729fda0816fa021507d35e00a669bfffe2289d974300a0402202e6ed08837ab7ac508f0ead9608d8055f7f33b4249011be531587174799998ce[ALL] 032b9e3216d03acec8c2568df1f466f7660e22f09aaad6077dc7e23c9a7eda90cb"}, "vout": 29, "txid": "e80e91e6433342402c194f5054adce6f7d32b5cecb74eda05a91ce1f4501125c"}, {"sequence": 4294967295, "scriptSig": {"hex": "47304402206a0e84c13d6ee3eb3e48b5b5f30c2cfc1bfe7d320cc56e963cc3aa3ec5b49aba02204d17b03bc62e505f844377ea557720872fc3430ddaa93c49ce79f6f7bd8fd1770121032b9e3216d03acec8c2568df1f466f7660e22f09aaad6077dc7e23c9a7eda90cb", "asm": "304402206a0e84c13d6ee3eb3e48b5b5f30c2cfc1bfe7d320cc56e963cc3aa3ec5b49aba02204d17b03bc62e505f844377ea557720872fc3430ddaa93c49ce79f6f7bd8fd177[ALL] 032b9e3216d03acec8c2568df1f466f7660e22f09aaad6077dc7e23c9a7eda90cb"}, "vout": 251, "txid": "1f1b574f9cc7bcac13935ae2d2e1b1c19877a02d26e0f9676c3f5c8dd9cb964d"}, {"sequence": 4294967295, "scriptSig": {"hex": "4730440220133c1b6608ab36e030113d271c672569c7d2e72909afb2660a8f5959c92b074c02205ec4ca2d7bff0b9ae42f766444debbf5627701615a440c6b9cfd19e96a4ffe80012102ca27bde96e9458df2da33c2cbb4d3a1530524555ac8e2800501d64b277eab72e", "asm": "30440220133c1b6608ab36e030113d271c672569c7d2e72909afb2660a8f5959c92b074c02205ec4ca2d7bff0b9ae42f766444debbf5627701615a440c6b9cfd19e96a4ffe80[ALL] 02ca27bde96e9458df2da33c2cbb4d3a1530524555ac8e2800501d64b277eab72e"}, "vout": 1, "txid": "aeaa31c72d9730ce032468dd70440c163b3606704b746ef9e404d7038598d7cd"}, {"sequence": 4294967295, "scriptSig": {"hex": "47304402200093d6bfff2fb6854f0f168058275a801ae84ee47b924adc6da253949a3dea3702205e31c722f9614f59ca0d948280251012647abc0bfda329b39b6d1bbfc654d2aa0121032b9e3216d03acec8c2568df1f466f7660e22f09aaad6077dc7e23c9a7eda90cb", "asm": "304402200093d6bfff2fb6854f0f168058275a801ae84ee47b924adc6da253949a3dea3702205e31c722f9614f59ca0d948280251012647abc0bfda329b39b6d1bbfc654d2aa[ALL] 032b9e3216d03acec8c2568df1f466f7660e22f09aaad6077dc7e23c9a7eda90cb"}, "vout": 135, "txid": "6e2a80ad1b00767f31d190dbae40681296438eb2c345add3a5dd1167f74c199c"}], "txid": "e9780da532faf4e4ae7525f0747dde50c1944e0c66dc1511435334beac594ac0", "blocktime": 1537870564, "version": 1, "confirmations": 11515, "time": 1537870564, "locktime": 0, "vsize": 963, "size": 963}