{"hash": "e97c57712aa2f04183515505381c13d057cf2ecf4ec676130d1e9f73da3dc8cb", "blockhash": "0000000000000000000baef3f32e3676a92c3b2e5da21b426e4f302fc371ce76", "vout": [{"scriptPubKey": {"reqSigs": 1, "hex": "76a91449648b4e48ce1f2720aad83cd000aa296251c5d588ac", "addresses": ["17h4mwCrCpT5WZY8qdePqtUEqjVQvRHUDX"], "asm": "OP_DUP OP_HASH160 49648b4e48ce1f2720aad83cd000aa296251c5d5 OP_EQUALVERIFY OP_CHECKSIG", "type": "pubkeyhash"}, "value": 0.04916418, "n": 0}, {"scriptPubKey": {"reqSigs": 1, "hex": "a9141e43a56f20801db4237a4f672f6dc768b4aa50df87", "addresses": ["34T3ESXUkMFN3THagp9hhcACbGHP9UT4Nh"], "asm": "OP_HASH160 1e43a56f20801db4237a4f672f6dc768b4aa50df OP_EQUAL", "type": "scripthash"}, "value": 0.01760195, "n": 1}], "hex": "0100000001ba1eb396d98fb93919cc7bba66626b467e30ffe4a7aa014a7ea60cbd09ee80af00000000fdfd0000473044022070854211a466aed22e6a19cc7b17678fab7e6cd5f0b1cad0f98982147178c1fc0220374bd5d1a7cfef70243e9a0c1820e6d8454face1a07eaf1325041e1749c9bcef01483045022100b361a0685dbbaef6ecce09ba3ec4f6e0f36b939c6c1529e00eb0ba46034c13bf02203f274927c34937be7ca2130d6b84d221b23e33d4ddd12fb1ea8f8d5a75ce0baa014c695221039d0808cb3aeedae5baf0c9e67439c53f74d5024008f37033b13caf7f2b64bdf02103ade34cca8f1983e62798f9bd8379c9715d4f06483e591cd319acb417371ba4022103fce8540d14bfb8a5e940bfa96fa3ebe8209a49edd1c235ce2f5de08394e29a9f53aeffffffff02c2044b00000000001976a91449648b4e48ce1f2720aad83cd000aa296251c5d588acc3db1a000000000017a9141e43a56f20801db4237a4f672f6dc768b4aa50df8700000000", "vin": [{"sequence": 4294967295, "scriptSig": {"hex": "00473044022070854211a466aed22e6a19cc7b17678fab7e6cd5f0b1cad0f98982147178c1fc0220374bd5d1a7cfef70243e9a0c1820e6d8454face1a07eaf1325041e1749c9bcef01483045022100b361a0685dbbaef6ecce09ba3ec4f6e0f36b939c6c1529e00eb0ba46034c13bf02203f274927c34937be7ca2130d6b84d221b23e33d4ddd12fb1ea8f8d5a75ce0baa014c695221039d0808cb3aeedae5baf0c9e67439c53f74d5024008f37033b13caf7f2b64bdf02103ade34cca8f1983e62798f9bd8379c9715d4f06483e591cd319acb417371ba4022103fce8540d14bfb8a5e940bfa96fa3ebe8209a49edd1c235ce2f5de08394e29a9f53ae", "asm": "0 3044022070854211a466aed22e6a19cc7b17678fab7e6cd5f0b1cad0f98982147178c1fc0220374bd5d1a7cfef70243e9a0c1820e6d8454face1a07eaf1325041e1749c9bcef[ALL] 3045022100b361a0685dbbaef6ecce09ba3ec4f6e0f36b939c6c1529e00eb0ba46034c13bf02203f274927c34937be7ca2130d6b84d221b23e33d4ddd12fb1ea8f8d5a75ce0baa[ALL] 5221039d0808cb3aeedae5baf0c9e67439c53f74d5024008f37033b13caf7f2b64bdf02103ade34cca8f1983e62798f9bd8379c9715d4f06483e591cd319acb417371ba4022103fce8540d14bfb8a5e940bfa96fa3ebe8209a49edd1c235ce2f5de08394e29a9f53ae"}, "vout": 0, "txid": "af80ee09bd0ca67e4a01aaa7e4ff307e466b6266ba7bcc1939b98fd996b31eba"}], "txid": "e97c57712aa2f04183515505381c13d057cf2ecf4ec676130d1e9f73da3dc8cb", "blocktime": 1537876114, "version": 1, "confirmations": 11460, "time": 1537876114, "locktime": 0, "vsize": 372, "size": 372}