{"hash": "e4fd9e50febbd0ad4bf8cab414f22cae6d57b031b51051f9bd6173fe57be769a", "blockhash": "00000000000000000017f5eb5941039fbcee6240d03bc1f2f8e35350df66a1d8", "vout": [{"scriptPubKey": {"reqSigs": 1, "hex": "a9146a433f251b057da73f360613d1f1cdb1d8c10dc487", "addresses": ["3BNt7FttzByUGYRcAonk9RYikx6EDeRSK4"], "asm": "OP_HASH160 6a433f251b057da73f360613d1f1cdb1d8c10dc4 OP_EQUAL", "type": "scripthash"}, "value": 1.73688056, "n": 0}, {"scriptPubKey": {"reqSigs": 1, "hex": "a914cf5af3935c50790ce8cb50d1a74f0e8e7b8614a087", "addresses": ["3LbQkftnxKpEJgny9SahcK69wqqCJQqC8n"], "asm": "OP_HASH160 cf5af3935c50790ce8cb50d1a74f0e8e7b8614a0 OP_EQUAL", "type": "scripthash"}, "value": 0.00317046, "n": 1}], "hex": "02000000000101f8ea15cc34123d41e695c514482aa379125fdac16b031b83e00a51678fd239d00000000017160014fd4b4cfb83d17a8892102dbded45ff9ce3390744feffffff02f8445a0a0000000017a9146a433f251b057da73f360613d1f1cdb1d8c10dc48776d604000000000017a914cf5af3935c50790ce8cb50d1a74f0e8e7b8614a0870248304502210090b656220f543384528830addf95ef36071b396e1d5479833402e99755515b560220530396d491feab770260f2a8ea283ef1926cec2c555e699915fc23bcf40286d1012103c279c0df4ed3e3ae5e4e2cc3f0bc287d4dffc61ae2b17dee990c1b4d856c8f2715490800", "vin": [{"txinwitness": ["304502210090b656220f543384528830addf95ef36071b396e1d5479833402e99755515b560220530396d491feab770260f2a8ea283ef1926cec2c555e699915fc23bcf40286d101", "03c279c0df4ed3e3ae5e4e2cc3f0bc287d4dffc61ae2b17dee990c1b4d856c8f27"], "sequence": 4294967294, "scriptSig": {"hex": "160014fd4b4cfb83d17a8892102dbded45ff9ce3390744", "asm": "0014fd4b4cfb83d17a8892102dbded45ff9ce3390744"}, "vout": 0, "txid": "d039d28f67510ae0831b036bc1da5f1279a32a4814c595e6413d1234cc15eaf8"}], "txid": "e981faa3dcb1835b4bab70fc4f0eff7058931e489932e135ff940f46c8e83c99", "blocktime": 1537874412, "version": 2, "confirmations": 11468, "time": 1537874412, "locktime": 542997, "vsize": 166, "size": 248}