{"hash": "e98f66c54a6c5099d85ef41fe21f4d39e6f8d927266d9a6786ac8a98156fbfb5", "blockhash": "0000000000000000000e13cef7c366c0283d82e591d1acd082e914b08063cdf1", "vout": [{"scriptPubKey": {"reqSigs": 1, "hex": "76a9149a9901335dc6aea7c3a6107f6387d6813d62adfe88ac", "addresses": ["1F6SMVfE3ddkXM55P6obYiVw1xrCaF8cx9"], "asm": "OP_DUP OP_HASH160 9a9901335dc6aea7c3a6107f6387d6813d62adfe OP_EQUALVERIFY OP_CHECKSIG", "type": "pubkeyhash"}, "value": 0.00977895, "n": 0}, {"scriptPubKey": {"reqSigs": 1, "hex": "76a914e8f4342e8e625e4b4803b7a2eab2900592612ec588ac", "addresses": ["1NEkK5ubs231234ko9PqCinzWcRjZpsMpz"], "asm": "OP_DUP OP_HASH160 e8f4342e8e625e4b4803b7a2eab2900592612ec5 OP_EQUALVERIFY OP_CHECKSIG", "type": "pubkeyhash"}, "value": 0.45325389, "n": 1}], "hex": "010000000be188b2b5121eac3f55203d085ed8833c398da50dc96dcb79ed798d13dd071a11010000006b483045022100980c1f0b39fa851143ce3afe11eed19810b75c9964565f43ed0d51491ffe64890220716e68686e6e0d49064204b9e99f07e50a38f59d462a61f6ae5563bd5628d6be0121026990ee6f6d9203ddffc90ab0fd97e212e0b6004f3ff7a3ab41937deaf6089597ffffffff2481a2171ce98898070a260be5f4e1966d6975ee13777f4453cd59614e8f1a25000000006a4730440220134f43e07e824459b5e36f6a681040dd64e036320ee6f2be31f508f5995f365c02201e463513d124f79d22d76d00062bfbacfd41a724c2cef81717172e9c160ec51901210340db1e3504d9ef64c30f7cf84538a45e8d8ca2f390481f6d2b2ddbcd727be260ffffffffa8e0f4f38b92c0df1f2b1afcf014d736e698648d1faab28dd1cb5f04172b1142010000006b4830450221009872b1d2c2737768bc8dcfe0dd44b1e4f13869be7ad8201085a647d343d3ccb702206a9cd36f99a1671c2d654f03e97c703e29d108769d29bd8c291286aba7e4266401210369a103b7c8d93fe21e95fc07c27baf33ac3567282210a0a41d347455150fcf13ffffffff5121265874cb09e46d7222c5898da885a2120580e542e6ea19ed0be180c0b162000000006b4830450221009739f322b7f9ebfdc7e6c54aea7acb6edccd5a0201f0eecad311fd753afc139b02202d7eb79e8801bc6db5e129da7aefbcc041e565577295ae6af2e43d80595216100121032541ea627365896c87e19fe556a69f281a503d8606c4e8dbcc0a09b8eda38dc0ffffffff3f2b0161b012368503de2ec210632b5524bf271539d151dc518c35e71d1d437c000000006a473044022009088ef1e8a5dd000525acd41341a15e7ed5838e954cfd81b19f22f3c3f0f6930220662bd1a74b852dba3b17c108dd75bab86c74c6c1d4712b7eb68d163ae75569c0012103e8780554a0fd1f80995f14fe59f0a1f3f7640a949a26bcb28610e23cd1b11619ffffffffbd9d7dc6514fb3d73383c352f2f11da4b3ba0cffb76e177ce54486a4dff5fd84010000006a47304402206a68505996a594d1ec7c8f7b664fd58cc6d9ff76494bd5f7e81fd2ac503485ac022009ea039c75a2a31745e7cf675878cdb31a10632d9a6d798f961fb00e5c9566a0012103e0a5170482a99f97486c36881dcaa4e38f35fdbcb3825516d0b680dfa996c708ffffffff5cea1e33de528c3231a1379d6dbd0da29fdb3d1a1360ea5f6c8106444b9c3c95010000006a473044022060c968970278667cf85ab4388751fd3bcb8212755daf4ccb5d5a24d9613cf554022043c84bf3a7d052445a8211cb4f7f45ba2e41a9b76576a9cbf2ce05f0a9699e460121039046113f9b40cd8e97b7cb83e51e9a16212a8b4b4afbbfaf3c89eab8f326feebffffffffe1221f214c047110f4c077e26aa49c89052497c65cc7e9ac9111711f3465969d010000006a4730440220546bbd1d69c4c58a205ef14ab68f5a9e56debd339707edcfd84fbd98a0cdbfe902206d8cf1177bf9b7cef9c2c764018732868a5d7ab026ae75160ae98a9d1d87863f012103e0a5170482a99f97486c36881dcaa4e38f35fdbcb3825516d0b680dfa996c708ffffffffa2d356638dd17531804f508b8512bbe5463f10e420760234ca004253bb8f59a0010000006b483045022100beff36fdb8b2b0b7e0abf40c1f73199bb6bab7aa8f78484a245dd931228ccc6c02207a13043bff39d14de5ab50edf6f0a5db50e86ed294ba4d8811df3999165fa4e1012103e0a5170482a99f97486c36881dcaa4e38f35fdbcb3825516d0b680dfa996c708ffffffff45cd946dad666c2e99f9db990ba991b4dfd294bb8a8c16afaf34f8f57b7dc2e6010000006b483045022100d88c742c900d042465b013ba50a7b3d88f4b50c78a7ac9ca2bc0f9fc0ec8451c0220681bea4243e3ba05815148b55990e70471688e55a4be1387169896fe394ac0400121036f91a2984db5041a6c774d5df42405e99aec32ae870730971ff818fdcbfc5a4effffffff7824cd39e496c0c99af51619ca8029687566bc9aef8059e3e6191530702019ff010000006a473044022079be03474eeb962041593374e68cb26070fb3f6e0e0cca9e762c9596aa8f4a70022079c259eec20b5d185052ae1fe28a23a660bfffc793eb4c91a139fd2d81f24cac012103ddff21bca5ea438b5295014709cf38ff0bb968bef88d79116e95b9447a14feeeffffffff02e7eb0e00000000001976a9149a9901335dc6aea7c3a6107f6387d6813d62adfe88ac4d9cb302000000001976a914e8f4342e8e625e4b4803b7a2eab2900592612ec588ac00000000", "vin": [{"sequence": 4294967295, "scriptSig": {"hex": "483045022100980c1f0b39fa851143ce3afe11eed19810b75c9964565f43ed0d51491ffe64890220716e68686e6e0d49064204b9e99f07e50a38f59d462a61f6ae5563bd5628d6be0121026990ee6f6d9203ddffc90ab0fd97e212e0b6004f3ff7a3ab41937deaf6089597", "asm": "3045022100980c1f0b39fa851143ce3afe11eed19810b75c9964565f43ed0d51491ffe64890220716e68686e6e0d49064204b9e99f07e50a38f59d462a61f6ae5563bd5628d6be[ALL] 026990ee6f6d9203ddffc90ab0fd97e212e0b6004f3ff7a3ab41937deaf6089597"}, "vout": 1, "txid": "111a07dd138d79ed79cb6dc90da58d393c83d85e083d20553fac1e12b5b288e1"}, {"sequence": 4294967295, "scriptSig": {"hex": "4730440220134f43e07e824459b5e36f6a681040dd64e036320ee6f2be31f508f5995f365c02201e463513d124f79d22d76d00062bfbacfd41a724c2cef81717172e9c160ec51901210340db1e3504d9ef64c30f7cf84538a45e8d8ca2f390481f6d2b2ddbcd727be260", "asm": "30440220134f43e07e824459b5e36f6a681040dd64e036320ee6f2be31f508f5995f365c02201e463513d124f79d22d76d00062bfbacfd41a724c2cef81717172e9c160ec519[ALL] 0340db1e3504d9ef64c30f7cf84538a45e8d8ca2f390481f6d2b2ddbcd727be260"}, "vout": 0, "txid": "251a8f4e6159cd53447f7713ee75696d96e1f4e50b260a079888e91c17a28124"}, {"sequence": 4294967295, "scriptSig": {"hex": "4830450221009872b1d2c2737768bc8dcfe0dd44b1e4f13869be7ad8201085a647d343d3ccb702206a9cd36f99a1671c2d654f03e97c703e29d108769d29bd8c291286aba7e4266401210369a103b7c8d93fe21e95fc07c27baf33ac3567282210a0a41d347455150fcf13", "asm": "30450221009872b1d2c2737768bc8dcfe0dd44b1e4f13869be7ad8201085a647d343d3ccb702206a9cd36f99a1671c2d654f03e97c703e29d108769d29bd8c291286aba7e42664[ALL] 0369a103b7c8d93fe21e95fc07c27baf33ac3567282210a0a41d347455150fcf13"}, "vout": 1, "txid": "42112b17045fcbd18db2aa1f8d6498e636d714f0fc1a2b1fdfc0928bf3f4e0a8"}, {"sequence": 4294967295, "scriptSig": {"hex": "4830450221009739f322b7f9ebfdc7e6c54aea7acb6edccd5a0201f0eecad311fd753afc139b02202d7eb79e8801bc6db5e129da7aefbcc041e565577295ae6af2e43d80595216100121032541ea627365896c87e19fe556a69f281a503d8606c4e8dbcc0a09b8eda38dc0", "asm": "30450221009739f322b7f9ebfdc7e6c54aea7acb6edccd5a0201f0eecad311fd753afc139b02202d7eb79e8801bc6db5e129da7aefbcc041e565577295ae6af2e43d8059521610[ALL] 032541ea627365896c87e19fe556a69f281a503d8606c4e8dbcc0a09b8eda38dc0"}, "vout": 0, "txid": "62b1c080e10bed19eae642e5800512a285a88d89c522726de409cb7458262151"}, {"sequence": 4294967295, "scriptSig": {"hex": "473044022009088ef1e8a5dd000525acd41341a15e7ed5838e954cfd81b19f22f3c3f0f6930220662bd1a74b852dba3b17c108dd75bab86c74c6c1d4712b7eb68d163ae75569c0012103e8780554a0fd1f80995f14fe59f0a1f3f7640a949a26bcb28610e23cd1b11619", "asm": "3044022009088ef1e8a5dd000525acd41341a15e7ed5838e954cfd81b19f22f3c3f0f6930220662bd1a74b852dba3b17c108dd75bab86c74c6c1d4712b7eb68d163ae75569c0[ALL] 03e8780554a0fd1f80995f14fe59f0a1f3f7640a949a26bcb28610e23cd1b11619"}, "vout": 0, "txid": "7c431d1de7358c51dc51d1391527bf24552b6310c22ede03853612b061012b3f"}, {"sequence": 4294967295, "scriptSig": {"hex": "47304402206a68505996a594d1ec7c8f7b664fd58cc6d9ff76494bd5f7e81fd2ac503485ac022009ea039c75a2a31745e7cf675878cdb31a10632d9a6d798f961fb00e5c9566a0012103e0a5170482a99f97486c36881dcaa4e38f35fdbcb3825516d0b680dfa996c708", "asm": "304402206a68505996a594d1ec7c8f7b664fd58cc6d9ff76494bd5f7e81fd2ac503485ac022009ea039c75a2a31745e7cf675878cdb31a10632d9a6d798f961fb00e5c9566a0[ALL] 03e0a5170482a99f97486c36881dcaa4e38f35fdbcb3825516d0b680dfa996c708"}, "vout": 1, "txid": "84fdf5dfa48644e57c176eb7ff0cbab3a41df1f252c38333d7b34f51c67d9dbd"}, {"sequence": 4294967295, "scriptSig": {"hex": "473044022060c968970278667cf85ab4388751fd3bcb8212755daf4ccb5d5a24d9613cf554022043c84bf3a7d052445a8211cb4f7f45ba2e41a9b76576a9cbf2ce05f0a9699e460121039046113f9b40cd8e97b7cb83e51e9a16212a8b4b4afbbfaf3c89eab8f326feeb", "asm": "3044022060c968970278667cf85ab4388751fd3bcb8212755daf4ccb5d5a24d9613cf554022043c84bf3a7d052445a8211cb4f7f45ba2e41a9b76576a9cbf2ce05f0a9699e46[ALL] 039046113f9b40cd8e97b7cb83e51e9a16212a8b4b4afbbfaf3c89eab8f326feeb"}, "vout": 1, "txid": "953c9c4b4406816c5fea60131a3ddb9fa20dbd6d9d37a131328c52de331eea5c"}, {"sequence": 4294967295, "scriptSig": {"hex": "4730440220546bbd1d69c4c58a205ef14ab68f5a9e56debd339707edcfd84fbd98a0cdbfe902206d8cf1177bf9b7cef9c2c764018732868a5d7ab026ae75160ae98a9d1d87863f012103e0a5170482a99f97486c36881dcaa4e38f35fdbcb3825516d0b680dfa996c708", "asm": "30440220546bbd1d69c4c58a205ef14ab68f5a9e56debd339707edcfd84fbd98a0cdbfe902206d8cf1177bf9b7cef9c2c764018732868a5d7ab026ae75160ae98a9d1d87863f[ALL] 03e0a5170482a99f97486c36881dcaa4e38f35fdbcb3825516d0b680dfa996c708"}, "vout": 1, "txid": "9d9665341f711191ace9c75cc6972405899ca46ae277c0f41071044c211f22e1"}, {"sequence": 4294967295, "scriptSig": {"hex": "483045022100beff36fdb8b2b0b7e0abf40c1f73199bb6bab7aa8f78484a245dd931228ccc6c02207a13043bff39d14de5ab50edf6f0a5db50e86ed294ba4d8811df3999165fa4e1012103e0a5170482a99f97486c36881dcaa4e38f35fdbcb3825516d0b680dfa996c708", "asm": "3045022100beff36fdb8b2b0b7e0abf40c1f73199bb6bab7aa8f78484a245dd931228ccc6c02207a13043bff39d14de5ab50edf6f0a5db50e86ed294ba4d8811df3999165fa4e1[ALL] 03e0a5170482a99f97486c36881dcaa4e38f35fdbcb3825516d0b680dfa996c708"}, "vout": 1, "txid": "a0598fbb534200ca34027620e4103f46e5bb12858b504f803175d18d6356d3a2"}, {"sequence": 4294967295, "scriptSig": {"hex": "483045022100d88c742c900d042465b013ba50a7b3d88f4b50c78a7ac9ca2bc0f9fc0ec8451c0220681bea4243e3ba05815148b55990e70471688e55a4be1387169896fe394ac0400121036f91a2984db5041a6c774d5df42405e99aec32ae870730971ff818fdcbfc5a4e", "asm": "3045022100d88c742c900d042465b013ba50a7b3d88f4b50c78a7ac9ca2bc0f9fc0ec8451c0220681bea4243e3ba05815148b55990e70471688e55a4be1387169896fe394ac040[ALL] 036f91a2984db5041a6c774d5df42405e99aec32ae870730971ff818fdcbfc5a4e"}, "vout": 1, "txid": "e6c27d7bf5f834afaf168c8abb94d2dfb491a90b99dbf9992e6c66ad6d94cd45"}, {"sequence": 4294967295, "scriptSig": {"hex": "473044022079be03474eeb962041593374e68cb26070fb3f6e0e0cca9e762c9596aa8f4a70022079c259eec20b5d185052ae1fe28a23a660bfffc793eb4c91a139fd2d81f24cac012103ddff21bca5ea438b5295014709cf38ff0bb968bef88d79116e95b9447a14feee", "asm": "3044022079be03474eeb962041593374e68cb26070fb3f6e0e0cca9e762c9596aa8f4a70022079c259eec20b5d185052ae1fe28a23a660bfffc793eb4c91a139fd2d81f24cac[ALL] 03ddff21bca5ea438b5295014709cf38ff0bb968bef88d79116e95b9447a14feee"}, "vout": 1, "txid": "ff192070301519e6e35980ef9abc6675682980ca1916f59ac9c096e439cd2478"}], "txid": "e98f66c54a6c5099d85ef41fe21f4d39e6f8d927266d9a6786ac8a98156fbfb5", "blocktime": 1537871767, "version": 1, "confirmations": 11495, "time": 1537871767, "locktime": 0, "vsize": 1700, "size": 1700}