{"hash": "e9916785ce790e0335f224054eb560a4fc051073259b46f7a8e0bf2174a3027e", "blockhash": "0000000000000000001e0dab787dd257d1dbfcb92a98c2207d5e1078be1f4165", "vout": [{"scriptPubKey": {"reqSigs": 1, "hex": "76a9148f552f2579c88a5583bad04df814f6387e7cb6a888ac", "addresses": ["1E4sg8cpLg1p7Bra6zhE3ZjJdVkkcGmDAJ"], "asm": "OP_DUP OP_HASH160 8f552f2579c88a5583bad04df814f6387e7cb6a8 OP_EQUALVERIFY OP_CHECKSIG", "type": "pubkeyhash"}, "value": 0.015, "n": 0}, {"scriptPubKey": {"reqSigs": 1, "hex": "76a914609f9adcc45cac77dd1e5197a835ae26465946a188ac", "addresses": ["19ou4xixZj84cCJZKNeVMUmi6gupVg8aFf"], "asm": "OP_DUP OP_HASH160 609f9adcc45cac77dd1e5197a835ae26465946a1 OP_EQUALVERIFY OP_CHECKSIG", "type": "pubkeyhash"}, "value": 1.58373162, "n": 1}], "hex": "010000000475fd72bb58f22b90304f738b5d4290720ede8f854d241f0f31b66f618c826ce3000000006b483045022100d8da1aa79c3c300305903c7653fa08b83c2741d8d45296353e8e8142138543080220709ddc615d2009cf6421e59abd30ff492f04bd7c8daecf36d37f4439d1abd84e012103e7fbfbcd9ba9875c0ca8d53f2fd2ab9a77ae25dddf5df1bd3b91bc62cc9abbddffffffff1e396b313f878f8184e40dfc782bf8c1030ba643f82ded0621c7ec1e1852d7a4000000006a47304402203d16f3f094725f82049786cef31dddc3f307e3e7cbb056a349d7e1d6ef1fe674022008940a6bb3b2f8624a033d28b12580ccee27a7e18a0e4fa8cbca495134b387910121029493faa17aa6b3ce955c832b783219ede9ea3364aae9ecc6b6fc95e1c075170dffffffffacf3774eac0e820e0fe3944dba86fe7675fb11b5487ab78935477ab4d401e5e4010000006b483045022100c5602bdea842d99fef17a3ea4e5d8f558652f0fb078b59d7ca00e671f137bef9022008d18c59f11e515d6a156cb0e50ed9710c143947ba515c516965006d9e2d18a2012103e5ac37efae0f3a2674b30a6a45556586ef2b90b4079094f0b85a0cac0693dd3effffffff688c356ae90a170baf19314f22b17409116f86e7b228ba6e6af20645921f4c74010000006b483045022100e8da5b0196691651f30ab63090196c592223a088fe0bde8cc1f468949ad9e36e02202ae3e5cbe3d5eb3984077240142d1696fb43968075a49a3a1712802d5b01f32e012102f9defa4690a17d8129d3ea0fca2a2492c5637cd2b0a38343abe2e094f08c05eaffffffff0260e31600000000001976a9148f552f2579c88a5583bad04df814f6387e7cb6a888ac2a957009000000001976a914609f9adcc45cac77dd1e5197a835ae26465946a188ac00000000", "vin": [{"sequence": 4294967295, "scriptSig": {"hex": "483045022100d8da1aa79c3c300305903c7653fa08b83c2741d8d45296353e8e8142138543080220709ddc615d2009cf6421e59abd30ff492f04bd7c8daecf36d37f4439d1abd84e012103e7fbfbcd9ba9875c0ca8d53f2fd2ab9a77ae25dddf5df1bd3b91bc62cc9abbdd", "asm": "3045022100d8da1aa79c3c300305903c7653fa08b83c2741d8d45296353e8e8142138543080220709ddc615d2009cf6421e59abd30ff492f04bd7c8daecf36d37f4439d1abd84e[ALL] 03e7fbfbcd9ba9875c0ca8d53f2fd2ab9a77ae25dddf5df1bd3b91bc62cc9abbdd"}, "vout": 0, "txid": "e36c828c616fb6310f1f244d858fde0e7290425d8b734f30902bf258bb72fd75"}, {"sequence": 4294967295, "scriptSig": {"hex": "47304402203d16f3f094725f82049786cef31dddc3f307e3e7cbb056a349d7e1d6ef1fe674022008940a6bb3b2f8624a033d28b12580ccee27a7e18a0e4fa8cbca495134b387910121029493faa17aa6b3ce955c832b783219ede9ea3364aae9ecc6b6fc95e1c075170d", "asm": "304402203d16f3f094725f82049786cef31dddc3f307e3e7cbb056a349d7e1d6ef1fe674022008940a6bb3b2f8624a033d28b12580ccee27a7e18a0e4fa8cbca495134b38791[ALL] 029493faa17aa6b3ce955c832b783219ede9ea3364aae9ecc6b6fc95e1c075170d"}, "vout": 0, "txid": "a4d752181eecc72106ed2df843a60b03c1f82b78fc0de484818f873f316b391e"}, {"sequence": 4294967295, "scriptSig": {"hex": "483045022100c5602bdea842d99fef17a3ea4e5d8f558652f0fb078b59d7ca00e671f137bef9022008d18c59f11e515d6a156cb0e50ed9710c143947ba515c516965006d9e2d18a2012103e5ac37efae0f3a2674b30a6a45556586ef2b90b4079094f0b85a0cac0693dd3e", "asm": "3045022100c5602bdea842d99fef17a3ea4e5d8f558652f0fb078b59d7ca00e671f137bef9022008d18c59f11e515d6a156cb0e50ed9710c143947ba515c516965006d9e2d18a2[ALL] 03e5ac37efae0f3a2674b30a6a45556586ef2b90b4079094f0b85a0cac0693dd3e"}, "vout": 1, "txid": "e4e501d4b47a473589b77a48b511fb7576fe86ba4d94e30f0e820eac4e77f3ac"}, {"sequence": 4294967295, "scriptSig": {"hex": "483045022100e8da5b0196691651f30ab63090196c592223a088fe0bde8cc1f468949ad9e36e02202ae3e5cbe3d5eb3984077240142d1696fb43968075a49a3a1712802d5b01f32e012102f9defa4690a17d8129d3ea0fca2a2492c5637cd2b0a38343abe2e094f08c05ea", "asm": "3045022100e8da5b0196691651f30ab63090196c592223a088fe0bde8cc1f468949ad9e36e02202ae3e5cbe3d5eb3984077240142d1696fb43968075a49a3a1712802d5b01f32e[ALL] 02f9defa4690a17d8129d3ea0fca2a2492c5637cd2b0a38343abe2e094f08c05ea"}, "vout": 1, "txid": "744c1f924506f26a6eba28b2e7866f110974b1224f3119af0b170ae96a358c68"}], "txid": "e9916785ce790e0335f224054eb560a4fc051073259b46f7a8e0bf2174a3027e", "blocktime": 1537872475, "version": 1, "confirmations": 11486, "time": 1537872475, "locktime": 0, "vsize": 669, "size": 669}