{"hash": "e9a3c0d0bd4a3ab0a44c0d17be8f809d14c571f4d5a317c6737dbebb4781e28b", "blockhash": "0000000000000000001cda96e906b7601b7a6fb1a3b62bca570a9e5d8f4b3de1", "vout": [{"scriptPubKey": {"reqSigs": 1, "hex": "76a914c8e16a75d83c5614e96fc74d716890be602def6188ac", "addresses": ["1KKABY1bT9P8gi2YpobGQzuRoYnMhGvAUN"], "asm": "OP_DUP OP_HASH160 c8e16a75d83c5614e96fc74d716890be602def61 OP_EQUALVERIFY OP_CHECKSIG", "type": "pubkeyhash"}, "value": 0.063236, "n": 0}, {"scriptPubKey": {"reqSigs": 1, "hex": "76a9146a80b8e115afdd4145c5cde24adbe90726a1400b88ac", "addresses": ["1Ai8q7Gz62f3Nkii3MmqP6euEXd8Rnp81K"], "asm": "OP_DUP OP_HASH160 6a80b8e115afdd4145c5cde24adbe90726a1400b OP_EQUALVERIFY OP_CHECKSIG", "type": "pubkeyhash"}, "value": 0.59923253, "n": 1}], "hex": "01000000013b5de3f8829c531435b8c18d578cd35a0332e1941dfef6bffd191e23d57dca57010000006b483045022100fc4a9bed93bfabc3a19ac342d4a882591f8f447b27fa69fd50ef5c67488ab3fc0220634597bee30e497678f9cb3765a7f12ab2d563940295224ce923e208af138dd60121020425027b620cc3c5142a5f379db5c5c9c1f24456eef5ef2cb58a8c740719ece1ffffffff02907d6000000000001976a914c8e16a75d83c5614e96fc74d716890be602def6188ac355b9203000000001976a9146a80b8e115afdd4145c5cde24adbe90726a1400b88ac00000000", "vin": [{"sequence": 4294967295, "scriptSig": {"hex": "483045022100fc4a9bed93bfabc3a19ac342d4a882591f8f447b27fa69fd50ef5c67488ab3fc0220634597bee30e497678f9cb3765a7f12ab2d563940295224ce923e208af138dd60121020425027b620cc3c5142a5f379db5c5c9c1f24456eef5ef2cb58a8c740719ece1", "asm": "3045022100fc4a9bed93bfabc3a19ac342d4a882591f8f447b27fa69fd50ef5c67488ab3fc0220634597bee30e497678f9cb3765a7f12ab2d563940295224ce923e208af138dd6[ALL] 020425027b620cc3c5142a5f379db5c5c9c1f24456eef5ef2cb58a8c740719ece1"}, "vout": 1, "txid": "57ca7dd5231e19fdbff6fe1d94e132035ad38c578dc1b83514539c82f8e35d3b"}], "txid": "e9a3c0d0bd4a3ab0a44c0d17be8f809d14c571f4d5a317c6737dbebb4781e28b", "blocktime": 1537873282, "version": 1, "confirmations": 11485, "time": 1537873282, "locktime": 0, "vsize": 226, "size": 226}