{"hash": "e9a4cf6c024740ead24da412f7ff5746663109f2fbace2fa419d231fb7a8dd38", "blockhash": "0000000000000000001e0dab787dd257d1dbfcb92a98c2207d5e1078be1f4165", "vout": [{"scriptPubKey": {"reqSigs": 1, "hex": "76a9140274ebd4c8e2dd8e8c9beb2f75ef472b6b030f7b88ac", "addresses": ["1DzRDJe5faqrvfLHq9F3gWLJGzLbxpqGE"], "asm": "OP_DUP OP_HASH160 0274ebd4c8e2dd8e8c9beb2f75ef472b6b030f7b OP_EQUALVERIFY OP_CHECKSIG", "type": "pubkeyhash"}, "value": 0.06387517, "n": 0}, {"scriptPubKey": {"reqSigs": 1, "hex": "a91430bd2028325c40ecc715a254ff5fc78b9eb1da2f87", "addresses": ["368ivRsS2TXXUMCRZa1M59mr6g2WZi5dNJ"], "asm": "OP_HASH160 30bd2028325c40ecc715a254ff5fc78b9eb1da2f OP_EQUAL", "type": "scripthash"}, "value": 0.1027576, "n": 1}], "hex": "0100000001bb12a6d66d8f4ddc04000f9ea83578cdf013c2a55d6a058b28165b48d3fc0baa000000006a4730440220196c148141c03e4b971cd3a6eb4fcccd11a244c8fc2fd97c6c28535d7cd9bf9f0220686dde85024012e70eee0698a18465ccba6c18a13c408b5f11e4d5b738b2a5b1012102212245b223edb1d858922c0d2e3ccd4aea937b487e56b25a9c845463e809f38effffffff023d776100000000001976a9140274ebd4c8e2dd8e8c9beb2f75ef472b6b030f7b88acb0cb9c000000000017a91430bd2028325c40ecc715a254ff5fc78b9eb1da2f8700000000", "vin": [{"sequence": 4294967295, "scriptSig": {"hex": "4730440220196c148141c03e4b971cd3a6eb4fcccd11a244c8fc2fd97c6c28535d7cd9bf9f0220686dde85024012e70eee0698a18465ccba6c18a13c408b5f11e4d5b738b2a5b1012102212245b223edb1d858922c0d2e3ccd4aea937b487e56b25a9c845463e809f38e", "asm": "30440220196c148141c03e4b971cd3a6eb4fcccd11a244c8fc2fd97c6c28535d7cd9bf9f0220686dde85024012e70eee0698a18465ccba6c18a13c408b5f11e4d5b738b2a5b1[ALL] 02212245b223edb1d858922c0d2e3ccd4aea937b487e56b25a9c845463e809f38e"}, "vout": 0, "txid": "aa0bfcd3485b16288b056a5da5c213f0cd7835a89e0f0004dc4d8f6dd6a612bb"}], "txid": "e9a4cf6c024740ead24da412f7ff5746663109f2fbace2fa419d231fb7a8dd38", "blocktime": 1537872475, "version": 1, "confirmations": 11486, "time": 1537872475, "locktime": 0, "vsize": 223, "size": 223}