{"hash": "91d10207042f46287d9bedb7e0142b6f8956fed7d9c638eda643297bea18d4a7", "blockhash": "0000000000000000000e13cef7c366c0283d82e591d1acd082e914b08063cdf1", "vout": [{"scriptPubKey": {"reqSigs": 1, "hex": "a91479b76ac9376cf48d22470f5c2804b79112b656db87", "addresses": ["3CnbQoQxP77rWcSezvFr6JcVwoFtf8DTXD"], "asm": "OP_HASH160 79b76ac9376cf48d22470f5c2804b79112b656db OP_EQUAL", "type": "scripthash"}, "value": 0.489, "n": 0}, {"scriptPubKey": {"reqSigs": 1, "hex": "a914908cf1ec4697cef58efb3e00e62fb8c662caf5cb87", "addresses": ["3EsL5CTjZ73EA7wVPbmu6Wh3hBoE65z3Yp"], "asm": "OP_HASH160 908cf1ec4697cef58efb3e00e62fb8c662caf5cb OP_EQUAL", "type": "scripthash"}, "value": 0.00044638, "n": 1}], "hex": "010000000001102dc338221848239e614d86f9709ce1cd23449ba6630728552890f020f462fd220000000017160014d3e275303019d5b84ec2a82d8b6981a06938a44fffffff00980974438284445be5aff779d3b53c83c6523fbf72b4b9aad40c2c2103096abf0000000017160014d3e275303019d5b84ec2a82d8b6981a06938a44fffffff001c34f3ec368922cfe8e6c93fecd4500244af982bcc2cc492dc009664939fe0f50400000017160014d3e275303019d5b84ec2a82d8b6981a06938a44fffffff004b727ac1152047e1debbe978707d3740afc1ddcf5886d5f0d96d11f43a3f63fc0700000017160014d3e275303019d5b84ec2a82d8b6981a06938a44fffffff00c99418ec7428a6d6a74b40d3dcc69f5c0cbb08fb0c85447b50fcafbed4c5ef1c0700000017160014d3e275303019d5b84ec2a82d8b6981a06938a44fffffff00b071869e0f5641b390560b8bb4b817ac0a0e4057813a282cc5396f19f7f422830700000017160014d3e275303019d5b84ec2a82d8b6981a06938a44fffffff00c93d1f4b1729d454accc88b1d26928861c089319e9937eaba52b270fed885c690400000017160014d3e275303019d5b84ec2a82d8b6981a06938a44fffffff0047c451d2e627d232a5518184e9caffe7f9297be42e6577df3ec35158aeb1c44b0000000017160014d3e275303019d5b84ec2a82d8b6981a06938a44fffffff00f7f4d5bf2f81761af2b63b9cef7fb468158826786bb6f7e98545f034fec0f8f30100000017160014d3e275303019d5b84ec2a82d8b6981a06938a44fffffff002aff5d968f5398723d345ff53878f98e90d188c66e372fcadaddc735563e2b360000000017160014d3e275303019d5b84ec2a82d8b6981a06938a44fffffff00e8f97795a44248e91a88c9a03a8b037b8f891365bee75752e90f8dbd17046d130000000017160014d3e275303019d5b84ec2a82d8b6981a06938a44fffffff004b23d5277845f40e313744e4aa0dd7349e98b043b01b5e20e6891188a03024f10100000017160014d3e275303019d5b84ec2a82d8b6981a06938a44fffffff002c8c242d1666e56af5e2d648ad860ab8479c6c0ab41b2c349d23b2c9687a39be0000000017160014d3e275303019d5b84ec2a82d8b6981a06938a44fffffff00a01d44d8008c9479581285704fd629594127707013b3277fc3b2eecaa7d3b8ba0000000017160014d3e275303019d5b84ec2a82d8b6981a06938a44fffffff00f0b68f4e4f922eebd199caa1ac1f432d531e2f669a1e71f08e94344cd69430d60000000017160014d3e275303019d5b84ec2a82d8b6981a06938a44fffffff0050fe2f9567ac3883da42d3770ab40d791682a0249a450f160d1d39b781bc936f0100000017160014d3e275303019d5b84ec2a82d8b6981a06938a44fffffff0002a027ea020000000017a91479b76ac9376cf48d22470f5c2804b79112b656db875eae00000000000017a914908cf1ec4697cef58efb3e00e62fb8c662caf5cb87024730440220199fa4ab17698d8888a1dbed5cf7ceb24630e1396d5101500be2550679423614022025c52be6a0907c8fe38d1d9def67231596892fc3dd0d963abb965f7e20c7af440121032af7f01e2718e2534a0f9101fbdf80f5d0fe15294f4cd422cfbae7c6d445a87402473044022043a46b4ad75357d7e429f5ab6f61b5bbad69e7996bc83fc6bc10fc5e64344e4d02207623995c073e1f012c094655c8294ae9b927b08fe38879ca202cb66e8f2c2e470121032af7f01e2718e2534a0f9101fbdf80f5d0fe15294f4cd422cfbae7c6d445a8740247304402206c2bcfdd65328e21c323f2aa7e3a261734aadc120ba4473464b21dc97abfdd80022034ed348e73bb48e9bd7d26096ebdc731304ba04e0e904ae0f2af4236087abc8a0121032af7f01e2718e2534a0f9101fbdf80f5d0fe15294f4cd422cfbae7c6d445a87402483045022100a0dc9c411e9bce0aa5967432b99d88551d3d9c1daf735d9d8dc848f41960068f02200b212b5124614cc2b4c5e65479753550d6b2970334ba2f5e47e2ec4563c65ac20121032af7f01e2718e2534a0f9101fbdf80f5d0fe15294f4cd422cfbae7c6d445a8740247304402200af6514f49d706e9c5fcb0a4129a90a457c62bdb8b81a41b871b0a226cd70bf902202c28466d114bd996833e79dee4cde862f20958da13d7ad38f7bbdcd038913cff0121032af7f01e2718e2534a0f9101fbdf80f5d0fe15294f4cd422cfbae7c6d445a87402483045022100ebabbc0463a202e5532899326c5ddaee69d730dfcb66cc696c757e2735466e4502202b78819977db66a3d9b29ed1df824f86c8f190a51f3b67c2806e8135e81ec7830121032af7f01e2718e2534a0f9101fbdf80f5d0fe15294f4cd422cfbae7c6d445a87402483045022100da8062373eab7d1fb1e36d35118dcc79112bf8ebdd8717aa992e5e692bcbcc990220551aa037eb29b0cf9f0ee8a7a5f734e1d24e2057be903611c97516a6c78e16c50121032af7f01e2718e2534a0f9101fbdf80f5d0fe15294f4cd422cfbae7c6d445a87402483045022100cf4238bceb67ef52ae26b76c5817d9bcb859a6c9140e86644daa409edbbac076022066ed09f59efca3c66f72961c9da549a2df608d5a05d7caa61a5aa31e1ef968bb0121032af7f01e2718e2534a0f9101fbdf80f5d0fe15294f4cd422cfbae7c6d445a8740247304402207d7c12a95c8e0c95f69c15b84a013fb51cd4f40781cfd4fd62f357ef521598b6022006d98fc724599b6179918d7e3c9dfbbcc617e2ce9160eea46378e81e222c4de90121032af7f01e2718e2534a0f9101fbdf80f5d0fe15294f4cd422cfbae7c6d445a87402473044022003a57893fd1dd19cecbba9d670e5affc47807b4b0220262b178e99b0f41f8ff5022014f1f2f1c7020bd231e11e2996bd9761de29937954ec77aa6759e8714ef67c550121032af7f01e2718e2534a0f9101fbdf80f5d0fe15294f4cd422cfbae7c6d445a8740247304402200bb2487a6f75e3adf54eeb5c62391fa0b28eaa301dbe03983bd8d57f9e8f61dc022000a88aa50850107f90ab06832808c73ed3c6142272ad44a490b5c49de8564ada0121032af7f01e2718e2534a0f9101fbdf80f5d0fe15294f4cd422cfbae7c6d445a87402473044022018fe2446e14c477ec6a993973788bc821e924fce8c5091d97e5f45992aca95e0022034180bca9ede24b03d4b314b54b42a3540f8cf04a7384652b092a3faa493688d0121032af7f01e2718e2534a0f9101fbdf80f5d0fe15294f4cd422cfbae7c6d445a87402483045022100acc961062d5262b2b208f1ec719ce5db3257cab38a61c371646989791ba00432022010dd34c16e28e398a7896cc7db44e8e26b5400221367898a5db48caaf22e9d570121032af7f01e2718e2534a0f9101fbdf80f5d0fe15294f4cd422cfbae7c6d445a87402473044022077b979d3cf7cd9fcb27ecffb51b8971e736d57b4a2ba0efca967740b318d089302207784e8c6b981bafdf30bfde73e080ce5ac004c0823e968fb48a5a9dda7d46a710121032af7f01e2718e2534a0f9101fbdf80f5d0fe15294f4cd422cfbae7c6d445a874024830450221009bc469e504ecce10b01a93b044d286135561bddf7c8963921dd36db23c0935420220214f729c3d2b080f4217d3c923873bb9fc847f51ca2935478c1ded86c92df2230121032af7f01e2718e2534a0f9101fbdf80f5d0fe15294f4cd422cfbae7c6d445a87402473044022076025dbc88ec1df1acfaa3c835f28b6f3bd75a2da863208e23f6ed1bf86272d302200bb1350c03c044a27e6c6c39964d63f4ac90d38ca57db7939169f14256526dc70121032af7f01e2718e2534a0f9101fbdf80f5d0fe15294f4cd422cfbae7c6d445a87400000000", "vin": [{"txinwitness": ["30440220199fa4ab17698d8888a1dbed5cf7ceb24630e1396d5101500be2550679423614022025c52be6a0907c8fe38d1d9def67231596892fc3dd0d963abb965f7e20c7af4401", "032af7f01e2718e2534a0f9101fbdf80f5d0fe15294f4cd422cfbae7c6d445a874"], "sequence": 16777215, "scriptSig": {"hex": "160014d3e275303019d5b84ec2a82d8b6981a06938a44f", "asm": "0014d3e275303019d5b84ec2a82d8b6981a06938a44f"}, "vout": 0, "txid": "22fd62f420f0902855280763a69b4423cde19c70f9864d619e2348182238c32d"}, {"txinwitness": ["3044022043a46b4ad75357d7e429f5ab6f61b5bbad69e7996bc83fc6bc10fc5e64344e4d02207623995c073e1f012c094655c8294ae9b927b08fe38879ca202cb66e8f2c2e4701", "032af7f01e2718e2534a0f9101fbdf80f5d0fe15294f4cd422cfbae7c6d445a874"], "sequence": 16777215, "scriptSig": {"hex": "160014d3e275303019d5b84ec2a82d8b6981a06938a44f", "asm": "0014d3e275303019d5b84ec2a82d8b6981a06938a44f"}, "vout": 0, "txid": "bf6a0903212c0cd4aab9b472bf3f52c6833cb5d379f7afe55b44848243740998"}, {"txinwitness": ["304402206c2bcfdd65328e21c323f2aa7e3a261734aadc120ba4473464b21dc97abfdd80022034ed348e73bb48e9bd7d26096ebdc731304ba04e0e904ae0f2af4236087abc8a01", "032af7f01e2718e2534a0f9101fbdf80f5d0fe15294f4cd422cfbae7c6d445a874"], "sequence": 16777215, "scriptSig": {"hex": "160014d3e275303019d5b84ec2a82d8b6981a06938a44f", "asm": "0014d3e275303019d5b84ec2a82d8b6981a06938a44f"}, "vout": 4, "txid": "f5e09f93649600dc92c42ccc2b98af440250d4ec3fc9e6e8cf228936ecf3341c"}, {"txinwitness": ["3045022100a0dc9c411e9bce0aa5967432b99d88551d3d9c1daf735d9d8dc848f41960068f02200b212b5124614cc2b4c5e65479753550d6b2970334ba2f5e47e2ec4563c65ac201", "032af7f01e2718e2534a0f9101fbdf80f5d0fe15294f4cd422cfbae7c6d445a874"], "sequence": 16777215, "scriptSig": {"hex": "160014d3e275303019d5b84ec2a82d8b6981a06938a44f", "asm": "0014d3e275303019d5b84ec2a82d8b6981a06938a44f"}, "vout": 7, "txid": "fc633f3af4116dd9f0d58658cfddc1af40377d7078e9bbdee1472015c17a724b"}, {"txinwitness": ["304402200af6514f49d706e9c5fcb0a4129a90a457c62bdb8b81a41b871b0a226cd70bf902202c28466d114bd996833e79dee4cde862f20958da13d7ad38f7bbdcd038913cff01", "032af7f01e2718e2534a0f9101fbdf80f5d0fe15294f4cd422cfbae7c6d445a874"], "sequence": 16777215, "scriptSig": {"hex": "160014d3e275303019d5b84ec2a82d8b6981a06938a44f", "asm": "0014d3e275303019d5b84ec2a82d8b6981a06938a44f"}, "vout": 7, "txid": "1cefc5d4beaffc507b44850cfb08bb0c5c9fc6dcd3404ba7d6a62874ec1894c9"}, {"txinwitness": ["3045022100ebabbc0463a202e5532899326c5ddaee69d730dfcb66cc696c757e2735466e4502202b78819977db66a3d9b29ed1df824f86c8f190a51f3b67c2806e8135e81ec78301", "032af7f01e2718e2534a0f9101fbdf80f5d0fe15294f4cd422cfbae7c6d445a874"], "sequence": 16777215, "scriptSig": {"hex": "160014d3e275303019d5b84ec2a82d8b6981a06938a44f", "asm": "0014d3e275303019d5b84ec2a82d8b6981a06938a44f"}, "vout": 7, "txid": "8322f4f7196f39c52c283a8157400e0aac17b8b48b0b5690b341560f9e8671b0"}, {"txinwitness": ["3045022100da8062373eab7d1fb1e36d35118dcc79112bf8ebdd8717aa992e5e692bcbcc990220551aa037eb29b0cf9f0ee8a7a5f734e1d24e2057be903611c97516a6c78e16c501", "032af7f01e2718e2534a0f9101fbdf80f5d0fe15294f4cd422cfbae7c6d445a874"], "sequence": 16777215, "scriptSig": {"hex": "160014d3e275303019d5b84ec2a82d8b6981a06938a44f", "asm": "0014d3e275303019d5b84ec2a82d8b6981a06938a44f"}, "vout": 4, "txid": "695c88ed0f272ba5ab7e93e91993081c862869d2b188ccac54d429174b1f3dc9"}, {"txinwitness": ["3045022100cf4238bceb67ef52ae26b76c5817d9bcb859a6c9140e86644daa409edbbac076022066ed09f59efca3c66f72961c9da549a2df608d5a05d7caa61a5aa31e1ef968bb01", "032af7f01e2718e2534a0f9101fbdf80f5d0fe15294f4cd422cfbae7c6d445a874"], "sequence": 16777215, "scriptSig": {"hex": "160014d3e275303019d5b84ec2a82d8b6981a06938a44f", "asm": "0014d3e275303019d5b84ec2a82d8b6981a06938a44f"}, "vout": 0, "txid": "4bc4b1ae5851c33edf77652ee47b29f9e7ffcae9848151a532d227e6d251c447"}, {"txinwitness": ["304402207d7c12a95c8e0c95f69c15b84a013fb51cd4f40781cfd4fd62f357ef521598b6022006d98fc724599b6179918d7e3c9dfbbcc617e2ce9160eea46378e81e222c4de901", "032af7f01e2718e2534a0f9101fbdf80f5d0fe15294f4cd422cfbae7c6d445a874"], "sequence": 16777215, "scriptSig": {"hex": "160014d3e275303019d5b84ec2a82d8b6981a06938a44f", "asm": "0014d3e275303019d5b84ec2a82d8b6981a06938a44f"}, "vout": 1, "txid": "f3f8c0fe34f04585e9f7b66b7826881568b47fef9c3bb6f21a76812fbfd5f4f7"}, {"txinwitness": ["3044022003a57893fd1dd19cecbba9d670e5affc47807b4b0220262b178e99b0f41f8ff5022014f1f2f1c7020bd231e11e2996bd9761de29937954ec77aa6759e8714ef67c5501", "032af7f01e2718e2534a0f9101fbdf80f5d0fe15294f4cd422cfbae7c6d445a874"], "sequence": 16777215, "scriptSig": {"hex": "160014d3e275303019d5b84ec2a82d8b6981a06938a44f", "asm": "0014d3e275303019d5b84ec2a82d8b6981a06938a44f"}, "vout": 0, "txid": "362b3e5635c7dddaca2f376ec688d1908ef97838f55f343d7298538f965dff2a"}, {"txinwitness": ["304402200bb2487a6f75e3adf54eeb5c62391fa0b28eaa301dbe03983bd8d57f9e8f61dc022000a88aa50850107f90ab06832808c73ed3c6142272ad44a490b5c49de8564ada01", "032af7f01e2718e2534a0f9101fbdf80f5d0fe15294f4cd422cfbae7c6d445a874"], "sequence": 16777215, "scriptSig": {"hex": "160014d3e275303019d5b84ec2a82d8b6981a06938a44f", "asm": "0014d3e275303019d5b84ec2a82d8b6981a06938a44f"}, "vout": 0, "txid": "136d0417bd8d0fe95257e7be6513898f7b038b3aa0c9881ae94842a49577f9e8"}, {"txinwitness": ["3044022018fe2446e14c477ec6a993973788bc821e924fce8c5091d97e5f45992aca95e0022034180bca9ede24b03d4b314b54b42a3540f8cf04a7384652b092a3faa493688d01", "032af7f01e2718e2534a0f9101fbdf80f5d0fe15294f4cd422cfbae7c6d445a874"], "sequence": 16777215, "scriptSig": {"hex": "160014d3e275303019d5b84ec2a82d8b6981a06938a44f", "asm": "0014d3e275303019d5b84ec2a82d8b6981a06938a44f"}, "vout": 1, "txid": "f12430a0881189e6205e1bb043b0989e34d70daae44437310ef4457827d5234b"}, {"txinwitness": ["3045022100acc961062d5262b2b208f1ec719ce5db3257cab38a61c371646989791ba00432022010dd34c16e28e398a7896cc7db44e8e26b5400221367898a5db48caaf22e9d5701", "032af7f01e2718e2534a0f9101fbdf80f5d0fe15294f4cd422cfbae7c6d445a874"], "sequence": 16777215, "scriptSig": {"hex": "160014d3e275303019d5b84ec2a82d8b6981a06938a44f", "asm": "0014d3e275303019d5b84ec2a82d8b6981a06938a44f"}, "vout": 0, "txid": "be397a68c9b2239d342c1bb40a6c9c47b80a86ad48d6e2f56ae566162d248c2c"}, {"txinwitness": ["3044022077b979d3cf7cd9fcb27ecffb51b8971e736d57b4a2ba0efca967740b318d089302207784e8c6b981bafdf30bfde73e080ce5ac004c0823e968fb48a5a9dda7d46a7101", "032af7f01e2718e2534a0f9101fbdf80f5d0fe15294f4cd422cfbae7c6d445a874"], "sequence": 16777215, "scriptSig": {"hex": "160014d3e275303019d5b84ec2a82d8b6981a06938a44f", "asm": "0014d3e275303019d5b84ec2a82d8b6981a06938a44f"}, "vout": 0, "txid": "bab8d3a7caeeb2c37f27b313707027415929d64f7085125879948c00d8441da0"}, {"txinwitness": ["30450221009bc469e504ecce10b01a93b044d286135561bddf7c8963921dd36db23c0935420220214f729c3d2b080f4217d3c923873bb9fc847f51ca2935478c1ded86c92df22301", "032af7f01e2718e2534a0f9101fbdf80f5d0fe15294f4cd422cfbae7c6d445a874"], "sequence": 16777215, "scriptSig": {"hex": "160014d3e275303019d5b84ec2a82d8b6981a06938a44f", "asm": "0014d3e275303019d5b84ec2a82d8b6981a06938a44f"}, "vout": 0, "txid": "d63094d64c34948ef0711e9a662f1e532d431faca1ca99d1eb2e924f4e8fb6f0"}, {"txinwitness": ["3044022076025dbc88ec1df1acfaa3c835f28b6f3bd75a2da863208e23f6ed1bf86272d302200bb1350c03c044a27e6c6c39964d63f4ac90d38ca57db7939169f14256526dc701", "032af7f01e2718e2534a0f9101fbdf80f5d0fe15294f4cd422cfbae7c6d445a874"], "sequence": 16777215, "scriptSig": {"hex": "160014d3e275303019d5b84ec2a82d8b6981a06938a44f", "asm": "0014d3e275303019d5b84ec2a82d8b6981a06938a44f"}, "vout": 1, "txid": "6f93bc81b7391d0d160f459a24a08216790db40a77d342da8338ac67952ffe50"}], "txid": "e9aedd18dd8de4f641496203c61f8dd6acde5b84d50b53b57e565b5514b9a8ac", "blocktime": 1537871767, "version": 1, "confirmations": 11493, "time": 1537871767, "locktime": 0, "vsize": 1528, "size": 2818}