{"hash": "6834d672eb44da25b42ebaa70287ab54ba59e034186afd884fd3f7ef99af0d15", "blockhash": "0000000000000000000e13cef7c366c0283d82e591d1acd082e914b08063cdf1", "vout": [{"scriptPubKey": {"reqSigs": 1, "hex": "a914df678dceb58473f86d368d74d75021dc1cfd799c87", "addresses": ["3N4GfNjTFnCZapmbc1M3Wn2ewYX3FwDz31"], "asm": "OP_HASH160 df678dceb58473f86d368d74d75021dc1cfd799c OP_EQUAL", "type": "scripthash"}, "value": 1.61709624, "n": 0}, {"scriptPubKey": {"reqSigs": 1, "hex": "76a914bbeae0a0bf497f4607a0ee96b11f1a25aa9f2b9888ac", "addresses": ["1J8cjSjypvJc9eqDv5UHJbBNBHx5rS8zFx"], "asm": "OP_DUP OP_HASH160 bbeae0a0bf497f4607a0ee96b11f1a25aa9f2b98 OP_EQUALVERIFY OP_CHECKSIG", "type": "pubkeyhash"}, "value": 0.014971, "n": 1}], "hex": "020000000001014335f760c1cbd227cebc855656a456b5eb0123d31dae64d1e5e3eec1c2467bec0100000017160014ef2ba518b3a45c93094edc3e9b4ff9c284def5b2feffffff02387ea3090000000017a914df678dceb58473f86d368d74d75021dc1cfd799c870cd81600000000001976a914bbeae0a0bf497f4607a0ee96b11f1a25aa9f2b9888ac02483045022100d8abbf345b2c30b0e6f9a79f185d86bcf4a04dd8fa66d66ef95cd553dfe3412a022055c0cdf52989c37322153544df52c02bdd9afbee9c058e4a341d6a4110f5545c012103eb593cef7967dd7c33a1e5a5ac4d34d5a9b9c4693f446ebe02406e1b22f257f010490800", "vin": [{"txinwitness": ["3045022100d8abbf345b2c30b0e6f9a79f185d86bcf4a04dd8fa66d66ef95cd553dfe3412a022055c0cdf52989c37322153544df52c02bdd9afbee9c058e4a341d6a4110f5545c01", "03eb593cef7967dd7c33a1e5a5ac4d34d5a9b9c4693f446ebe02406e1b22f257f0"], "sequence": 4294967294, "scriptSig": {"hex": "160014ef2ba518b3a45c93094edc3e9b4ff9c284def5b2", "asm": "0014ef2ba518b3a45c93094edc3e9b4ff9c284def5b2"}, "vout": 1, "txid": "ec7b46c2c1eee3e5d164ae1dd32301ebb556a4565685bcce27d2cbc160f73543"}], "txid": "e9b0ed77054302081af6cab79aef623dc93f74a89c714e026820055851634b57", "blocktime": 1537871767, "version": 2, "confirmations": 11490, "time": 1537871767, "locktime": 542992, "vsize": 168, "size": 250}