{"hash": "e9b1244d442608500e8a06a2cb29148869099f2876495c97b222d7d1afb12323", "blockhash": "00000000000000000017f5eb5941039fbcee6240d03bc1f2f8e35350df66a1d8", "vout": [{"scriptPubKey": {"reqSigs": 1, "hex": "a914d7b66949e296b08c38f8921b68e744f1e222ba5e87", "addresses": ["3MMbiwnq8WLqei51SJZstgP65fqG36US5m"], "asm": "OP_HASH160 d7b66949e296b08c38f8921b68e744f1e222ba5e OP_EQUAL", "type": "scripthash"}, "value": 0.00237499, "n": 0}, {"scriptPubKey": {"reqSigs": 1, "hex": "76a914c10606a243b0f68222b6ce7d7e58c6aabb5eeeb288ac", "addresses": ["1JbcdiF4tNgvkQBFMH98cUmy69oH9GPAGT"], "asm": "OP_DUP OP_HASH160 c10606a243b0f68222b6ce7d7e58c6aabb5eeeb2 OP_EQUALVERIFY OP_CHECKSIG", "type": "pubkeyhash"}, "value": 0.04043987, "n": 1}], "hex": "0100000001d31e0b65594226e65644f56c70af65a4938468a4811223926938263e8cae7056010000006b483045022100fad1f122ede602f1be0653ff018b4b6a5a20b7f6829dc511cd7b667d182e1b26022020b3794272b7a755c5f4349bd4990236b797f87b61ea9b8ba5ff42e41ceca4d9012102787af5841a7ffc1f5542622f0b1bb677554b38930a808d659b364f25e79b21ffffffffff02bb9f03000000000017a914d7b66949e296b08c38f8921b68e744f1e222ba5e87d3b43d00000000001976a914c10606a243b0f68222b6ce7d7e58c6aabb5eeeb288ac00000000", "vin": [{"sequence": 4294967295, "scriptSig": {"hex": "483045022100fad1f122ede602f1be0653ff018b4b6a5a20b7f6829dc511cd7b667d182e1b26022020b3794272b7a755c5f4349bd4990236b797f87b61ea9b8ba5ff42e41ceca4d9012102787af5841a7ffc1f5542622f0b1bb677554b38930a808d659b364f25e79b21ff", "asm": "3045022100fad1f122ede602f1be0653ff018b4b6a5a20b7f6829dc511cd7b667d182e1b26022020b3794272b7a755c5f4349bd4990236b797f87b61ea9b8ba5ff42e41ceca4d9[ALL] 02787af5841a7ffc1f5542622f0b1bb677554b38930a808d659b364f25e79b21ff"}, "vout": 1, "txid": "5670ae8c3e26386992231281a4688493a465af706cf54456e6264259650b1ed3"}], "txid": "e9b1244d442608500e8a06a2cb29148869099f2876495c97b222d7d1afb12323", "blocktime": 1537874412, "version": 1, "confirmations": 11467, "time": 1537874412, "locktime": 0, "vsize": 224, "size": 224}