{"hash": "e9b6fc2d4cc1c414acbc2345f64147f1787c423395649f285e97b3801c2fe279", "blockhash": "00000000000000000024a2167bbff67b0be802c0b01cdd79e6331c2be6459f87", "vout": [{"scriptPubKey": {"reqSigs": 1, "hex": "76a9148d00f88586e080ada6fcddc17f72f5b67be76c3188ac", "addresses": ["1DrZSVybtQbZyyLQTBJXprfjRdBDhYwi9X"], "asm": "OP_DUP OP_HASH160 8d00f88586e080ada6fcddc17f72f5b67be76c31 OP_EQUALVERIFY OP_CHECKSIG", "type": "pubkeyhash"}, "value": 0.00489936, "n": 0}, {"scriptPubKey": {"reqSigs": 1, "hex": "a914f40235c3b0aabdfcd763fdd156fb94773f70c5d887", "addresses": ["3PwDSuStxP2DSx519sqiC8AKxamaLHfj8p"], "asm": "OP_HASH160 f40235c3b0aabdfcd763fdd156fb94773f70c5d8 OP_EQUAL", "type": "scripthash"}, "value": 0.006, "n": 1}], "hex": "01000000012bf03647701c8d3724aa30dc5f9e8c99de3a042636686047c263862010fe10ebda0100006b483045022100832ffd3b523a5dfac4ed8acf8d5fec497641ca62153d75e8813400d98292986b0220171b63cab12f0d2ca86a7d7479858b17fec2a82f4f2d50c2d994e91356fa9f7a0121025fa58cc9f90f831282ec156b9a3210524e6693ec1d6aab0eb348b9cf2989a275ffffffff02d0790700000000001976a9148d00f88586e080ada6fcddc17f72f5b67be76c3188acc02709000000000017a914f40235c3b0aabdfcd763fdd156fb94773f70c5d88700000000", "vin": [{"sequence": 4294967295, "scriptSig": {"hex": "483045022100832ffd3b523a5dfac4ed8acf8d5fec497641ca62153d75e8813400d98292986b0220171b63cab12f0d2ca86a7d7479858b17fec2a82f4f2d50c2d994e91356fa9f7a0121025fa58cc9f90f831282ec156b9a3210524e6693ec1d6aab0eb348b9cf2989a275", "asm": "3045022100832ffd3b523a5dfac4ed8acf8d5fec497641ca62153d75e8813400d98292986b0220171b63cab12f0d2ca86a7d7479858b17fec2a82f4f2d50c2d994e91356fa9f7a[ALL] 025fa58cc9f90f831282ec156b9a3210524e6693ec1d6aab0eb348b9cf2989a275"}, "vout": 474, "txid": "eb10fe10208663c24760683626043ade998c9e5fdc30aa24378d1c704736f02b"}], "txid": "e9b6fc2d4cc1c414acbc2345f64147f1787c423395649f285e97b3801c2fe279", "blocktime": 1537870564, "version": 1, "confirmations": 11515, "time": 1537870564, "locktime": 0, "vsize": 224, "size": 224}