{"hash": "e9b7163847050cfc5b9992aec5d72697f07d79232183916720f8e000b0367154", "blockhash": "0000000000000000000baef3f32e3676a92c3b2e5da21b426e4f302fc371ce76", "vout": [{"scriptPubKey": {"reqSigs": 1, "hex": "a9142f7a7095938741bd51872d1dcc1e267b4fcb555c87", "addresses": ["3624MpoZoDLmHaAiMSMsbKTZSvPqWijPyp"], "asm": "OP_HASH160 2f7a7095938741bd51872d1dcc1e267b4fcb555c OP_EQUAL", "type": "scripthash"}, "value": 0.00099071, "n": 0}, {"scriptPubKey": {"reqSigs": 1, "hex": "76a914ef027b2ea7fe9d4b43fc06fce7270b7230155b9888ac", "addresses": ["1NnmUF6Ceyho1eKTe6UdE9xGmfMCwqnqjm"], "asm": "OP_DUP OP_HASH160 ef027b2ea7fe9d4b43fc06fce7270b7230155b98 OP_EQUALVERIFY OP_CHECKSIG", "type": "pubkeyhash"}, "value": 0.0460896, "n": 1}], "hex": "0100000001d6184fd43692f81716162b572692887262e4e6e59e161e555ba0e73cd474b1a4000000006a4730440220782d3e160972c5dc6fe4851fbfed33fe9598544fa049a484abc1991c5ab73a9b02204a873a3123b95f23a2c1260f40043014c4adf63152f824e81caadf39d66f8be001210252f6aa7958d5b871f2f7cc2767f7dd1add6f34e9a4ab5ee011ce45a6b9c7f024ffffffff02ff8201000000000017a9142f7a7095938741bd51872d1dcc1e267b4fcb555c87c0534600000000001976a914ef027b2ea7fe9d4b43fc06fce7270b7230155b9888ac00000000", "vin": [{"sequence": 4294967295, "scriptSig": {"hex": "4730440220782d3e160972c5dc6fe4851fbfed33fe9598544fa049a484abc1991c5ab73a9b02204a873a3123b95f23a2c1260f40043014c4adf63152f824e81caadf39d66f8be001210252f6aa7958d5b871f2f7cc2767f7dd1add6f34e9a4ab5ee011ce45a6b9c7f024", "asm": "30440220782d3e160972c5dc6fe4851fbfed33fe9598544fa049a484abc1991c5ab73a9b02204a873a3123b95f23a2c1260f40043014c4adf63152f824e81caadf39d66f8be0[ALL] 0252f6aa7958d5b871f2f7cc2767f7dd1add6f34e9a4ab5ee011ce45a6b9c7f024"}, "vout": 0, "txid": "a4b174d43ce7a05b551e169ee5e6e46272889226572b161617f89236d44f18d6"}], "txid": "e9b7163847050cfc5b9992aec5d72697f07d79232183916720f8e000b0367154", "blocktime": 1537876114, "version": 1, "confirmations": 11460, "time": 1537876114, "locktime": 0, "vsize": 223, "size": 223}