{"hash": "94e54b5975d85c5b5ecbdf7a828475e5ef43accbb54c34fc5573fa18f8e3fe03", "blockhash": "00000000000000000017f5eb5941039fbcee6240d03bc1f2f8e35350df66a1d8", "vout": [{"scriptPubKey": {"reqSigs": 1, "hex": "a914e91b327d58af188a5a9a6ee49cb454be5951140a87", "addresses": ["3NwZwwGtCVEnvqBatk9YgA3dGzSDxU6pHM"], "asm": "OP_HASH160 e91b327d58af188a5a9a6ee49cb454be5951140a OP_EQUAL", "type": "scripthash"}, "value": 0.00211751, "n": 0}, {"scriptPubKey": {"reqSigs": 1, "hex": "a914e1dd8c28bb51b3bb47e7c33114eb01468017310a87", "addresses": ["3NHHN6VaqyHabQff5n42jx1vFnCT3mGwih"], "asm": "OP_HASH160 e1dd8c28bb51b3bb47e7c33114eb01468017310a OP_EQUAL", "type": "scripthash"}, "value": 0.62817094, "n": 1}], "hex": "01000000000101918177ba8f582159b0a124abee02647cd9f684d07bf0496087f637b2255c5dac00000000232200200f9837b175887ab4c45feb55e6f3cdb2c271833e0a0cc23af5a2dd2cf1d34d21ffffffff02273b03000000000017a914e91b327d58af188a5a9a6ee49cb454be5951140a874683be030000000017a914e1dd8c28bb51b3bb47e7c33114eb01468017310a87040047304402203a787f40c4ca7c50b77b35c08f88127e06c37cddd8aafc60b771916de06548c20220431ae7f050886a92b7db09d6ae69fcc0a5788f32791fbd24606e9912023e990801483045022100e3befe86cf94672d5df5e796540d3e496ac80d4d90c0638cd0192267c906f8bd022030de2c84d7fd4c7ad7d6716d267c58b289f2f893b84079785ad4ca249f315ffc01695221021e4e0c64f8d8ad7861b56e7653ecfdcfcf3bf402f9bcebd2985a94c2784711aa210361d720c7f58634c206ff065e3fa6d80aff619a96c117b357a18b43de5941c9d62103eb10fd966686bb88929cf31810a9b8bcd716bedc4dbc95681b5dbe4707e1355353ae00000000", "vin": [{"txinwitness": ["", "304402203a787f40c4ca7c50b77b35c08f88127e06c37cddd8aafc60b771916de06548c20220431ae7f050886a92b7db09d6ae69fcc0a5788f32791fbd24606e9912023e990801", "3045022100e3befe86cf94672d5df5e796540d3e496ac80d4d90c0638cd0192267c906f8bd022030de2c84d7fd4c7ad7d6716d267c58b289f2f893b84079785ad4ca249f315ffc01", "5221021e4e0c64f8d8ad7861b56e7653ecfdcfcf3bf402f9bcebd2985a94c2784711aa210361d720c7f58634c206ff065e3fa6d80aff619a96c117b357a18b43de5941c9d62103eb10fd966686bb88929cf31810a9b8bcd716bedc4dbc95681b5dbe4707e1355353ae"], "sequence": 4294967295, "scriptSig": {"hex": "2200200f9837b175887ab4c45feb55e6f3cdb2c271833e0a0cc23af5a2dd2cf1d34d21", "asm": "00200f9837b175887ab4c45feb55e6f3cdb2c271833e0a0cc23af5a2dd2cf1d34d21"}, "vout": 0, "txid": "ac5d5c25b237f6876049f07bd084f6d97c6402eeab24a1b05921588fba778191"}], "txid": "e9bc3bc41bdca8a0abd73dc4b370bad9f1738a5811a569559e6cbd5dd6b0d673", "blocktime": 1537874412, "version": 1, "confirmations": 11467, "time": 1537874412, "locktime": 0, "vsize": 214, "size": 405}