{"hash": "e9bc075605893358e65dc758df2322e55456acc20e539ce0683fda8ac8076e97", "blockhash": "0000000000000000001e0dab787dd257d1dbfcb92a98c2207d5e1078be1f4165", "vout": [{"scriptPubKey": {"reqSigs": 1, "hex": "a9145fd9590d623d06c18b123d3714cbb024549eb2ed87", "addresses": ["3ARpVMw93ujmKBGLXY8NyUHfSjKSMhH4hx"], "asm": "OP_HASH160 5fd9590d623d06c18b123d3714cbb024549eb2ed OP_EQUAL", "type": "scripthash"}, "value": 0.00057815, "n": 0}, {"scriptPubKey": {"reqSigs": 1, "hex": "76a914e349bc52d6b8100b58d3fce45135a91c5c128a1d88ac", "addresses": ["1MiningDkXkhKaXBTMKXfLemnk1YY5rbkT"], "asm": "OP_DUP OP_HASH160 e349bc52d6b8100b58d3fce45135a91c5c128a1d OP_EQUALVERIFY OP_CHECKSIG", "type": "pubkeyhash"}, "value": 0.21586148, "n": 1}], "hex": "0200000001532b6f666362df74eec18d14580bf1ea0d4f246f7aef24e39d97b1cb7544c454010000008a473044022074f4c9c5eb21b19e2c2732910877609c92086e4edd6b629a709f7fe4e360c7ca0220506531863a9220bdc3a9d38c067579578c84e2f45aea22163efab6a20ebe09f5014104ae414abde7876c34e01694b38b2341d10b9b4c8db18a66262bd8df26bcb57893885c9fe8b79aa25330d5f05bb5aa9ab636a908a72e27956572b44190b22809beffffffff02d7e100000000000017a9145fd9590d623d06c18b123d3714cbb024549eb2ed87e4604901000000001976a914e349bc52d6b8100b58d3fce45135a91c5c128a1d88ac00000000", "vin": [{"sequence": 4294967295, "scriptSig": {"hex": "473044022074f4c9c5eb21b19e2c2732910877609c92086e4edd6b629a709f7fe4e360c7ca0220506531863a9220bdc3a9d38c067579578c84e2f45aea22163efab6a20ebe09f5014104ae414abde7876c34e01694b38b2341d10b9b4c8db18a66262bd8df26bcb57893885c9fe8b79aa25330d5f05bb5aa9ab636a908a72e27956572b44190b22809be", "asm": "3044022074f4c9c5eb21b19e2c2732910877609c92086e4edd6b629a709f7fe4e360c7ca0220506531863a9220bdc3a9d38c067579578c84e2f45aea22163efab6a20ebe09f5[ALL] 04ae414abde7876c34e01694b38b2341d10b9b4c8db18a66262bd8df26bcb57893885c9fe8b79aa25330d5f05bb5aa9ab636a908a72e27956572b44190b22809be"}, "vout": 1, "txid": "54c44475cbb1979de324ef7a6f244f0deaf10b58148dc1ee74df6263666f2b53"}], "txid": "e9bc075605893358e65dc758df2322e55456acc20e539ce0683fda8ac8076e97", "blocktime": 1537872475, "version": 2, "confirmations": 11486, "time": 1537872475, "locktime": 0, "vsize": 255, "size": 255}