{"hash": "e9bc355a384315e0f6fdd101d9fd2786c8b975e5b364a4d45e900d978adc05b0", "blockhash": "0000000000000000001f76057863aec43deb6fa401d9628bb513d65a8098bfab", "vout": [{"scriptPubKey": {"reqSigs": 1, "hex": "76a914253b0709ab3ac2abe683861511695165bb7b5c2b88ac", "addresses": ["14PriQBfJQynnLsE1x4gz5wHXF9q2GEpqv"], "asm": "OP_DUP OP_HASH160 253b0709ab3ac2abe683861511695165bb7b5c2b OP_EQUALVERIFY OP_CHECKSIG", "type": "pubkeyhash"}, "value": 0.03791056, "n": 0}, {"scriptPubKey": {"reqSigs": 1, "hex": "76a9147fc6f97df49cc35b0dfe7de2facf835a05e42f0988ac", "addresses": ["1CedBMo5FzN9DCWLJm6FmxFAkdErNjofz2"], "asm": "OP_DUP OP_HASH160 7fc6f97df49cc35b0dfe7de2facf835a05e42f09 OP_EQUALVERIFY OP_CHECKSIG", "type": "pubkeyhash"}, "value": 0.01107898, "n": 1}], "hex": "0100000001e902fc8a32f859aa712ba14b16586f2e5291b1448fa64486a92599eeb5900aa5010000006b4830450221009abfc09670dfb1fb07df9207b10279ebbdd69a3ffc5bf69689059c083cff196a022072244c65725288f7dd7f16964c47ecc07e08aa9e807fa0370f98854cee36916e0121023ee76a273b8fe25e4873125d184465fe085d84caa79faf5399550aa4f585999cffffffff02d0d83900000000001976a914253b0709ab3ac2abe683861511695165bb7b5c2b88acbae71000000000001976a9147fc6f97df49cc35b0dfe7de2facf835a05e42f0988ac00000000", "vin": [{"sequence": 4294967295, "scriptSig": {"hex": "4830450221009abfc09670dfb1fb07df9207b10279ebbdd69a3ffc5bf69689059c083cff196a022072244c65725288f7dd7f16964c47ecc07e08aa9e807fa0370f98854cee36916e0121023ee76a273b8fe25e4873125d184465fe085d84caa79faf5399550aa4f585999c", "asm": "30450221009abfc09670dfb1fb07df9207b10279ebbdd69a3ffc5bf69689059c083cff196a022072244c65725288f7dd7f16964c47ecc07e08aa9e807fa0370f98854cee36916e[ALL] 023ee76a273b8fe25e4873125d184465fe085d84caa79faf5399550aa4f585999c"}, "vout": 1, "txid": "a50a90b5ee9925a98644a68f44b191522e6f58164ba12b71aa59f8328afc02e9"}], "txid": "e9bc355a384315e0f6fdd101d9fd2786c8b975e5b364a4d45e900d978adc05b0", "blocktime": 1537873891, "version": 1, "confirmations": 11475, "time": 1537873891, "locktime": 0, "vsize": 226, "size": 226}