{"hash": "e9bf1d5a3b363f5409727926a29ff1cc06345d13a064e1f8f9d0dc4a5c01d180", "blockhash": "0000000000000000001cda96e906b7601b7a6fb1a3b62bca570a9e5d8f4b3de1", "vout": [{"scriptPubKey": {"reqSigs": 1, "hex": "a91474ed9a5d653e5d2a5c0247aa0dfd4d9c0db465cd87", "addresses": ["3CMGwjwFiCUe4LM5TdXNutvzK1hviZHhMw"], "asm": "OP_HASH160 74ed9a5d653e5d2a5c0247aa0dfd4d9c0db465cd OP_EQUAL", "type": "scripthash"}, "value": 0.0008316, "n": 0}, {"scriptPubKey": {"reqSigs": 1, "hex": "76a91438478645a15f9730e481041ab00a672a2de47fcb88ac", "addresses": ["168aXMQjxjZsAuDDraME33D6grLcxGgGW5"], "asm": "OP_DUP OP_HASH160 38478645a15f9730e481041ab00a672a2de47fcb OP_EQUALVERIFY OP_CHECKSIG", "type": "pubkeyhash"}, "value": 0.01592482, "n": 1}], "hex": "02000000015bd89590cae758991df889c48409466e0f2c2717ece16596a310d67282e9ca0d000000006b483045022100bae782a0da21c193c14a317b2e55c9e14ea8edeabbe15483e989fd7d4bdc37f50220127daeca6b7935749c257852e5b3fbd0c6cc04061a0683c45ecc3e324c1f4197012102576ed8fcb04db9df453fdeec6de0a78c9dbda3c97bb7f3814113721c2e4b5717feffffff02d84401000000000017a91474ed9a5d653e5d2a5c0247aa0dfd4d9c0db465cd87a24c1800000000001976a91438478645a15f9730e481041ab00a672a2de47fcb88ac00000000", "vin": [{"sequence": 4294967294, "scriptSig": {"hex": "483045022100bae782a0da21c193c14a317b2e55c9e14ea8edeabbe15483e989fd7d4bdc37f50220127daeca6b7935749c257852e5b3fbd0c6cc04061a0683c45ecc3e324c1f4197012102576ed8fcb04db9df453fdeec6de0a78c9dbda3c97bb7f3814113721c2e4b5717", "asm": "3045022100bae782a0da21c193c14a317b2e55c9e14ea8edeabbe15483e989fd7d4bdc37f50220127daeca6b7935749c257852e5b3fbd0c6cc04061a0683c45ecc3e324c1f4197[ALL] 02576ed8fcb04db9df453fdeec6de0a78c9dbda3c97bb7f3814113721c2e4b5717"}, "vout": 0, "txid": "0dcae98272d610a39665e1ec17272c0f6e460984c489f81d9958e7ca9095d85b"}], "txid": "e9bf1d5a3b363f5409727926a29ff1cc06345d13a064e1f8f9d0dc4a5c01d180", "blocktime": 1537873282, "version": 2, "confirmations": 11482, "time": 1537873282, "locktime": 0, "vsize": 224, "size": 224}