{"hash": "e9bf4f1fab1967012b95c00ca903f29288fc090454272329298fa7245703a7e1", "blockhash": "00000000000000000004ffacab907a6b429b9a5745fa0b75af4234bf69dd7176", "vout": [{"scriptPubKey": {"reqSigs": 1, "hex": "76a9146d3b734d1270f6a511c0749625726937834ad76088ac", "addresses": ["1AxZsbXnzQ2RSSmUo6rCkqUi9qNBRip3kq"], "asm": "OP_DUP OP_HASH160 6d3b734d1270f6a511c0749625726937834ad760 OP_EQUALVERIFY OP_CHECKSIG", "type": "pubkeyhash"}, "value": 2.142e-05, "n": 0}, {"scriptPubKey": {"reqSigs": 1, "hex": "76a91440e176bbd01de924b7c1c7cf6ae9861c4325308188ac", "addresses": ["16v4Ln4GmYPRrzZ3Eg1roWRqexqpG8yzAQ"], "asm": "OP_DUP OP_HASH160 40e176bbd01de924b7c1c7cf6ae9861c43253081 OP_EQUALVERIFY OP_CHECKSIG", "type": "pubkeyhash"}, "value": 0.054, "n": 1}], "hex": "0100000008b0f2ca5188f68405e54792dc0ea16f8ce31b45298850b0debd30cb9af084c950000000006b483045022100b7e58bd22f0ade7a0fb13d88e3c92a892e45b7f65fa7f28594cf375830cf084602203265d5b5c140f8138a6f1acd86b43b089a6fcea6f25fb3784b3b3e12b5d813cb012102ef208bf5c99cc1d8774b1000f873d43edcbdade2a2477aeda5b4c7a530342edcfffffffff362ecd71864f156917bb01bd7d4f45933db1a4dd2ae08e663ae69fb21711457000000006a473044022014c6c161b4a2c184076b8d7310b1bca170c6a7c04c46a266951e3fbc16b977f102205f146aeaa7d1dfc02758d7a662c9e9684201ea8eee6414fd5ac61edf6d114e0301210371005bca90ec0984316b3ee7be185ff392b3f69f167fc01574c122f81b40caafffffffffca4b66e19e284507e1f946b66e176a4488bfcc86b5da0628c0c31e3a12822172010000006b483045022100ed6bc89d7684a514013faa007f306aeb92a52405b197102d1589e8a7102e04d40220305c9d63965abaa86a1215a9105688556d6819b7b025524b0390750d03666f2201210252da34f194d4d79d7c0455fc1bad77afafa22d35f42171fa64e2d4a8fef0f6e6ffffffff8b1c85927d887fba765a054cc4fd621b40dc0929c99567a03bba149f02afec79010000006a47304402203fad80a674de7e1e5a60c51b1778eda37041d7d27cdebecf587f8cc4bdcf99b702203b2fc37e45780e65fa41b188bafa0f34cb1580ea70687a9ab28e15c55804c3ea012103516da432d3eced636fafdcc3047f491da4cb6b09d1b484f6b522901b18e2604affffffff6957907c0061abaed980ae1a9326a02701ec94ee94797ce61799ebcb71276386010000006a4730440220661f5d73119c4f034af17147a59e94feb1dbf41f6d70f30872bf868a9f0e0dbc02202c389c55ece3a7df22fb84f9aaf07441e1722cb570de2b00591ccbdc3cac2c6301210395e6c34331bed5c504bd3834dc8dd43be0106b1e828aecebc3e935e550eedc61ffffffffa3acec85c8c87c89610591309d8484f128da61949cce64a608a9ec1a18a6e59f000000006b4830450221008596cd0609581b41e29b1d55edd65f55ded9b452f1bcdb4ab2f491e52adcb48b0220776c29a3471843b2f6dd04a688fbbceb732e1e56b6188cad6adfa92562951acb01210300e4fe73e9c30bc418bd54b82a89f2a1f68c479c93302b42288c7f67dbbd584cffffffff64d456ccc2bdc53f7dd081f506f5cac0ec5750bf4982e46144ec90d2bb84bded010000006a47304402206c959f278acdeb7ddda1d13d1a9cb488a0a4da0eeb5044a3da06a5248eb41b87022057e3797a03379b52b5a86ce9cdfacba039d91252f90275f6ae6d62e3fe013f56012103c91a041a3c87b7a6ad84caa4c96449dc640ef4baa0a9922f81c5072a62af44a2ffffffff154f34656c42538f0876af66d756b57a5c9212ffee7cbfb0284c09cec45ef9fc000000006a4730440220306fdef02f8513149f3896d34946f6ddf7d47c779ef00697fd839f13cc51538302203a7c57f699b57d31058bb46ce856cb88af95dfc6e27922ccf4033281645ed41e012103d9e0a180d583ec9bc7681d79003526f348644710f0265f46275f127404d93895ffffffff025e080000000000001976a9146d3b734d1270f6a511c0749625726937834ad76088acc0655200000000001976a91440e176bbd01de924b7c1c7cf6ae9861c4325308188ac00000000", "vin": [{"sequence": 4294967295, "scriptSig": {"hex": "483045022100b7e58bd22f0ade7a0fb13d88e3c92a892e45b7f65fa7f28594cf375830cf084602203265d5b5c140f8138a6f1acd86b43b089a6fcea6f25fb3784b3b3e12b5d813cb012102ef208bf5c99cc1d8774b1000f873d43edcbdade2a2477aeda5b4c7a530342edc", "asm": "3045022100b7e58bd22f0ade7a0fb13d88e3c92a892e45b7f65fa7f28594cf375830cf084602203265d5b5c140f8138a6f1acd86b43b089a6fcea6f25fb3784b3b3e12b5d813cb[ALL] 02ef208bf5c99cc1d8774b1000f873d43edcbdade2a2477aeda5b4c7a530342edc"}, "vout": 0, "txid": "50c984f09acb30bddeb0508829451be38c6fa10edc9247e50584f68851caf2b0"}, {"sequence": 4294967295, "scriptSig": {"hex": "473044022014c6c161b4a2c184076b8d7310b1bca170c6a7c04c46a266951e3fbc16b977f102205f146aeaa7d1dfc02758d7a662c9e9684201ea8eee6414fd5ac61edf6d114e0301210371005bca90ec0984316b3ee7be185ff392b3f69f167fc01574c122f81b40caaf", "asm": "3044022014c6c161b4a2c184076b8d7310b1bca170c6a7c04c46a266951e3fbc16b977f102205f146aeaa7d1dfc02758d7a662c9e9684201ea8eee6414fd5ac61edf6d114e03[ALL] 0371005bca90ec0984316b3ee7be185ff392b3f69f167fc01574c122f81b40caaf"}, "vout": 0, "txid": "57147121fb69ae63e608aed24d1adb3359f4d4d71bb07b9156f16418d7ec62f3"}, {"sequence": 4294967295, "scriptSig": {"hex": "483045022100ed6bc89d7684a514013faa007f306aeb92a52405b197102d1589e8a7102e04d40220305c9d63965abaa86a1215a9105688556d6819b7b025524b0390750d03666f2201210252da34f194d4d79d7c0455fc1bad77afafa22d35f42171fa64e2d4a8fef0f6e6", "asm": "3045022100ed6bc89d7684a514013faa007f306aeb92a52405b197102d1589e8a7102e04d40220305c9d63965abaa86a1215a9105688556d6819b7b025524b0390750d03666f22[ALL] 0252da34f194d4d79d7c0455fc1bad77afafa22d35f42171fa64e2d4a8fef0f6e6"}, "vout": 1, "txid": "722182123a1ec3c02806dab586ccbf88446a176eb646f9e10745289ee1664bca"}, {"sequence": 4294967295, "scriptSig": {"hex": "47304402203fad80a674de7e1e5a60c51b1778eda37041d7d27cdebecf587f8cc4bdcf99b702203b2fc37e45780e65fa41b188bafa0f34cb1580ea70687a9ab28e15c55804c3ea012103516da432d3eced636fafdcc3047f491da4cb6b09d1b484f6b522901b18e2604a", "asm": "304402203fad80a674de7e1e5a60c51b1778eda37041d7d27cdebecf587f8cc4bdcf99b702203b2fc37e45780e65fa41b188bafa0f34cb1580ea70687a9ab28e15c55804c3ea[ALL] 03516da432d3eced636fafdcc3047f491da4cb6b09d1b484f6b522901b18e2604a"}, "vout": 1, "txid": "79ecaf029f14ba3ba06795c92909dc401b62fdc44c055a76ba7f887d92851c8b"}, {"sequence": 4294967295, "scriptSig": {"hex": "4730440220661f5d73119c4f034af17147a59e94feb1dbf41f6d70f30872bf868a9f0e0dbc02202c389c55ece3a7df22fb84f9aaf07441e1722cb570de2b00591ccbdc3cac2c6301210395e6c34331bed5c504bd3834dc8dd43be0106b1e828aecebc3e935e550eedc61", "asm": "30440220661f5d73119c4f034af17147a59e94feb1dbf41f6d70f30872bf868a9f0e0dbc02202c389c55ece3a7df22fb84f9aaf07441e1722cb570de2b00591ccbdc3cac2c63[ALL] 0395e6c34331bed5c504bd3834dc8dd43be0106b1e828aecebc3e935e550eedc61"}, "vout": 1, "txid": "86632771cbeb9917e67c7994ee94ec0127a026931aae80d9aeab61007c905769"}, {"sequence": 4294967295, "scriptSig": {"hex": "4830450221008596cd0609581b41e29b1d55edd65f55ded9b452f1bcdb4ab2f491e52adcb48b0220776c29a3471843b2f6dd04a688fbbceb732e1e56b6188cad6adfa92562951acb01210300e4fe73e9c30bc418bd54b82a89f2a1f68c479c93302b42288c7f67dbbd584c", "asm": "30450221008596cd0609581b41e29b1d55edd65f55ded9b452f1bcdb4ab2f491e52adcb48b0220776c29a3471843b2f6dd04a688fbbceb732e1e56b6188cad6adfa92562951acb[ALL] 0300e4fe73e9c30bc418bd54b82a89f2a1f68c479c93302b42288c7f67dbbd584c"}, "vout": 0, "txid": "9fe5a6181aeca908a664ce9c9461da28f184849d30910561897cc8c885ecaca3"}, {"sequence": 4294967295, "scriptSig": {"hex": "47304402206c959f278acdeb7ddda1d13d1a9cb488a0a4da0eeb5044a3da06a5248eb41b87022057e3797a03379b52b5a86ce9cdfacba039d91252f90275f6ae6d62e3fe013f56012103c91a041a3c87b7a6ad84caa4c96449dc640ef4baa0a9922f81c5072a62af44a2", "asm": "304402206c959f278acdeb7ddda1d13d1a9cb488a0a4da0eeb5044a3da06a5248eb41b87022057e3797a03379b52b5a86ce9cdfacba039d91252f90275f6ae6d62e3fe013f56[ALL] 03c91a041a3c87b7a6ad84caa4c96449dc640ef4baa0a9922f81c5072a62af44a2"}, "vout": 1, "txid": "edbd84bbd290ec4461e48249bf5057ecc0caf506f581d07d3fc5bdc2cc56d464"}, {"sequence": 4294967295, "scriptSig": {"hex": "4730440220306fdef02f8513149f3896d34946f6ddf7d47c779ef00697fd839f13cc51538302203a7c57f699b57d31058bb46ce856cb88af95dfc6e27922ccf4033281645ed41e012103d9e0a180d583ec9bc7681d79003526f348644710f0265f46275f127404d93895", "asm": "30440220306fdef02f8513149f3896d34946f6ddf7d47c779ef00697fd839f13cc51538302203a7c57f699b57d31058bb46ce856cb88af95dfc6e27922ccf4033281645ed41e[ALL] 03d9e0a180d583ec9bc7681d79003526f348644710f0265f46275f127404d93895"}, "vout": 0, "txid": "fcf95ec4ce094c28b0bf7ceeff12925c7ab556d766af76088f53426c65344f15"}], "txid": "e9bf4f1fab1967012b95c00ca903f29288fc090454272329298fa7245703a7e1", "blocktime": 1537875543, "version": 1, "confirmations": 11464, "time": 1537875543, "locktime": 0, "vsize": 1257, "size": 1257}