{"hash": "ab9300a4ebada7de28fe8a8f97ad72b012e2e436eef5a6b1c3a5e8f953e8bbf8", "blockhash": "0000000000000000000baef3f32e3676a92c3b2e5da21b426e4f302fc371ce76", "vout": [{"scriptPubKey": {"reqSigs": 1, "hex": "a914ac9515139b6bfc01ad4072b4efeb79b0307b4fc587", "addresses": ["3HRYjxfNfczNatiksaT1YnAyX49o67XeoC"], "asm": "OP_HASH160 ac9515139b6bfc01ad4072b4efeb79b0307b4fc5 OP_EQUAL", "type": "scripthash"}, "value": 0.02392, "n": 0}, {"scriptPubKey": {"reqSigs": 1, "hex": "a914bf1835267a8b8ae6a915b0af2eaf5f5a75e2099387", "addresses": ["3K7RzA8MofHZb9ssYorL22U3hwzeTsy8gs"], "asm": "OP_HASH160 bf1835267a8b8ae6a915b0af2eaf5f5a75e20993 OP_EQUAL", "type": "scripthash"}, "value": 1.03104302, "n": 1}], "hex": "02000000000101bf549a59fed52af68b449a1a131066415448eb9acdade66db0a46e7c3a48db0200000000171600145382de455480c281de7acf26bbd5e6474d2ede95ffffffff02c07f24000000000017a914ac9515139b6bfc01ad4072b4efeb79b0307b4fc5872e3f25060000000017a914bf1835267a8b8ae6a915b0af2eaf5f5a75e20993870247304402203361f37b42aa819a6a1661a72bc501217b5376ad8bd5696806481ae12469322202204a2ce1f9e5a3fc476cc335250696a22faa5dbdef709f6eb2326f749dc54666890121035802b9cb08b13464f583b15d65d36fa00ef5f0a9afa0a586b0c7b4bbfe5d4fa300000000", "vin": [{"txinwitness": ["304402203361f37b42aa819a6a1661a72bc501217b5376ad8bd5696806481ae12469322202204a2ce1f9e5a3fc476cc335250696a22faa5dbdef709f6eb2326f749dc546668901", "035802b9cb08b13464f583b15d65d36fa00ef5f0a9afa0a586b0c7b4bbfe5d4fa3"], "sequence": 4294967295, "scriptSig": {"hex": "1600145382de455480c281de7acf26bbd5e6474d2ede95", "asm": "00145382de455480c281de7acf26bbd5e6474d2ede95"}, "vout": 0, "txid": "02db483a7c6ea4b06de6adcd9aeb4854416610131a9a448bf62ad5fe599a54bf"}], "txid": "e9c2f21f26c6ceec541e833a587337942d18cd78068cff7863ac72036d154481", "blocktime": 1537876114, "version": 2, "confirmations": 11460, "time": 1537876114, "locktime": 0, "vsize": 166, "size": 247}