{"hash": "74aa920b2d0b77f5d3a4834118ead9820288199f872c4a9ec04db86b7a9cb849", "blockhash": "00000000000000000017f5eb5941039fbcee6240d03bc1f2f8e35350df66a1d8", "vout": [{"scriptPubKey": {"reqSigs": 1, "hex": "a9147a026a524797e5e83aef170d8badb6d393e58e8c87", "addresses": ["3Cp9FmQ69wJN7rnhQJ4jixyZWAhxoH8gNh"], "asm": "OP_HASH160 7a026a524797e5e83aef170d8badb6d393e58e8c OP_EQUAL", "type": "scripthash"}, "value": 0.01877757, "n": 0}, {"scriptPubKey": {"reqSigs": 1, "hex": "a914231e199ff349f2b6f3ea25f141f529ab564e611987", "addresses": ["34thdecDQSzoaqSpoTAvyNxQccH1LK8GEa"], "asm": "OP_HASH160 231e199ff349f2b6f3ea25f141f529ab564e6119 OP_EQUAL", "type": "scripthash"}, "value": 0.00114265, "n": 1}], "hex": "01000000000104f1a187115be28dccea1f46bbcec2aa0bf7c78c87044cb96a19240d302889e9240000000023220020cdafa10aab1aaa124a6118fc734c6de668c825386795794a90e9019bdbf5bb83ffffffff9de95dea0509bd84628f61d73090aee0e2085ce2f333edb23c1ba152920fdca00000000023220020cdafa10aab1aaa124a6118fc734c6de668c825386795794a90e9019bdbf5bb83ffffffff671c3eac40e391622236b00d1565a789a5085c7441a4a5e91366835f4ef18a900000000023220020cdafa10aab1aaa124a6118fc734c6de668c825386795794a90e9019bdbf5bb83ffffffffde68007be6a81e11df4ae82467b39932dca7fa0f026d19fbbdbceeef509977800000000023220020cdafa10aab1aaa124a6118fc734c6de668c825386795794a90e9019bdbf5bb83ffffffff02fda61c000000000017a9147a026a524797e5e83aef170d8badb6d393e58e8c8759be01000000000017a914231e199ff349f2b6f3ea25f141f529ab564e611987040048304502210088af4f5df3d64328ebf87bd6dec5cc0df2054ca87e93efce099af0a1017a93710220528e63ad440ccb3aff80a8cf3a853f5a324d3e38ea9d3f425ef839615b3828bc0147304402206a47911468d26284a09a3dcb041bfade10809244b0ac449103e279849691042602205f604e04c6bd4452e7e7f5efd7dc9b5072303bfd58c95e86b0cf2bb65df9b2ca01475221024876e76f0163eba3ea103501c302228e545e5be1f7822f240009c14774c01785210277a81d678c83107207ed37b2d105224aef4b8a021163b4f29221fa69aff0927d52ae040047304402204a396bd6d1d4591dae85d7df235e3693bf345be4e7b0501604b1adb48b654e6b02201d4d000b3bae57fee0d19a55fe3c41e0f293d85b4175e67e2c1d89561ed7a18001483045022100c8603006d9ec5a2c748d6ee019dd5c31327110d7b051588093985c74683124a80220123e0c58354b95db404f9d36c5cba377ed3b1e89ff42394ca94d2517433f209701475221024876e76f0163eba3ea103501c302228e545e5be1f7822f240009c14774c01785210277a81d678c83107207ed37b2d105224aef4b8a021163b4f29221fa69aff0927d52ae0400483045022100da13dd22b8d550c6e27825038cfd1ef2462e858c1ef1fa301b615e967fa61e3a02201650df7752364fa1bb4e6b4e57a8db4c17fb3f11c4ca4861231d49195ae7689e0147304402205eb6deebabd99c4066f682d2263a7a46cdca9172aba7d4a7ce069d4bf118d8c1022003c59dd907f4db3f63d304129014ef5c230df9df29badbe1e084a8e5d74e897b01475221024876e76f0163eba3ea103501c302228e545e5be1f7822f240009c14774c01785210277a81d678c83107207ed37b2d105224aef4b8a021163b4f29221fa69aff0927d52ae040048304502210089e1947b0a3008dd2bd9260f754d1af716817ba9ab462e4e2df4f762b0ba4c120220430a2b1fa4d86d243686b562404a751dab64252749b6fcc11e0705377978ff0201483045022100fdb480759b93acc1add3cb4f5bf24f3ff9cb64c5e9dd8adb60bf87b13fc77fe7022030b01564664756972dd0d60d688b52f6f408371d24c139951112447e29d4aee601475221024876e76f0163eba3ea103501c302228e545e5be1f7822f240009c14774c01785210277a81d678c83107207ed37b2d105224aef4b8a021163b4f29221fa69aff0927d52ae00000000", "vin": [{"txinwitness": ["", "304502210088af4f5df3d64328ebf87bd6dec5cc0df2054ca87e93efce099af0a1017a93710220528e63ad440ccb3aff80a8cf3a853f5a324d3e38ea9d3f425ef839615b3828bc01", "304402206a47911468d26284a09a3dcb041bfade10809244b0ac449103e279849691042602205f604e04c6bd4452e7e7f5efd7dc9b5072303bfd58c95e86b0cf2bb65df9b2ca01", "5221024876e76f0163eba3ea103501c302228e545e5be1f7822f240009c14774c01785210277a81d678c83107207ed37b2d105224aef4b8a021163b4f29221fa69aff0927d52ae"], "sequence": 4294967295, "scriptSig": {"hex": "220020cdafa10aab1aaa124a6118fc734c6de668c825386795794a90e9019bdbf5bb83", "asm": "0020cdafa10aab1aaa124a6118fc734c6de668c825386795794a90e9019bdbf5bb83"}, "vout": 0, "txid": "24e98928300d24196ab94c04878cc7f70baac2cebb461feacc8de25b1187a1f1"}, {"txinwitness": ["", "304402204a396bd6d1d4591dae85d7df235e3693bf345be4e7b0501604b1adb48b654e6b02201d4d000b3bae57fee0d19a55fe3c41e0f293d85b4175e67e2c1d89561ed7a18001", "3045022100c8603006d9ec5a2c748d6ee019dd5c31327110d7b051588093985c74683124a80220123e0c58354b95db404f9d36c5cba377ed3b1e89ff42394ca94d2517433f209701", "5221024876e76f0163eba3ea103501c302228e545e5be1f7822f240009c14774c01785210277a81d678c83107207ed37b2d105224aef4b8a021163b4f29221fa69aff0927d52ae"], "sequence": 4294967295, "scriptSig": {"hex": "220020cdafa10aab1aaa124a6118fc734c6de668c825386795794a90e9019bdbf5bb83", "asm": "0020cdafa10aab1aaa124a6118fc734c6de668c825386795794a90e9019bdbf5bb83"}, "vout": 0, "txid": "a0dc0f9252a11b3cb2ed33f3e25c08e2e0ae9030d7618f6284bd0905ea5de99d"}, {"txinwitness": ["", "3045022100da13dd22b8d550c6e27825038cfd1ef2462e858c1ef1fa301b615e967fa61e3a02201650df7752364fa1bb4e6b4e57a8db4c17fb3f11c4ca4861231d49195ae7689e01", "304402205eb6deebabd99c4066f682d2263a7a46cdca9172aba7d4a7ce069d4bf118d8c1022003c59dd907f4db3f63d304129014ef5c230df9df29badbe1e084a8e5d74e897b01", "5221024876e76f0163eba3ea103501c302228e545e5be1f7822f240009c14774c01785210277a81d678c83107207ed37b2d105224aef4b8a021163b4f29221fa69aff0927d52ae"], "sequence": 4294967295, "scriptSig": {"hex": "220020cdafa10aab1aaa124a6118fc734c6de668c825386795794a90e9019bdbf5bb83", "asm": "0020cdafa10aab1aaa124a6118fc734c6de668c825386795794a90e9019bdbf5bb83"}, "vout": 0, "txid": "908af14e5f836613e9a5a441745c08a589a765150db036226291e340ac3e1c67"}, {"txinwitness": ["", "304502210089e1947b0a3008dd2bd9260f754d1af716817ba9ab462e4e2df4f762b0ba4c120220430a2b1fa4d86d243686b562404a751dab64252749b6fcc11e0705377978ff0201", "3045022100fdb480759b93acc1add3cb4f5bf24f3ff9cb64c5e9dd8adb60bf87b13fc77fe7022030b01564664756972dd0d60d688b52f6f408371d24c139951112447e29d4aee601", "5221024876e76f0163eba3ea103501c302228e545e5be1f7822f240009c14774c01785210277a81d678c83107207ed37b2d105224aef4b8a021163b4f29221fa69aff0927d52ae"], "sequence": 4294967295, "scriptSig": {"hex": "220020cdafa10aab1aaa124a6118fc734c6de668c825386795794a90e9019bdbf5bb83", "asm": "0020cdafa10aab1aaa124a6118fc734c6de668c825386795794a90e9019bdbf5bb83"}, "vout": 0, "txid": "80779950efeebcbdfb196d020ffaa7dc3299b36724e84adf111ea8e67b0068de"}], "txid": "e9c2e9f5458c2d9014e82f3546112b3dcbf9cbd2c30fe932749f44bea3ca2a95", "blocktime": 1537874412, "version": 1, "confirmations": 11468, "time": 1537874412, "locktime": 0, "vsize": 598, "size": 1257}