{"hash": "e9c644a6d4f740784dbfe856a4716a504af49921a1a52f58ac33b0f4e7077b40", "blockhash": "00000000000000000024a2167bbff67b0be802c0b01cdd79e6331c2be6459f87", "vout": [{"scriptPubKey": {"reqSigs": 1, "hex": "a914bc453ffaf68e0bc8897f923d2b1510ffb428fa4987", "addresses": ["3JrVvBDJ5DtBtwZ61Spkdf7ACfASzT3qX7"], "asm": "OP_HASH160 bc453ffaf68e0bc8897f923d2b1510ffb428fa49 OP_EQUAL", "type": "scripthash"}, "value": 0.013, "n": 0}, {"scriptPubKey": {"reqSigs": 1, "hex": "76a914ddf216874d9951cc13489ea3d3e5b53ee282f6bb88ac", "addresses": ["1MEYLxuC4ycjDpm23rhJt47uDC2S9bNo53"], "asm": "OP_DUP OP_HASH160 ddf216874d9951cc13489ea3d3e5b53ee282f6bb OP_EQUALVERIFY OP_CHECKSIG", "type": "pubkeyhash"}, "value": 0.00068062, "n": 1}], "hex": "0100000001298689655b9e4e928299956976a6450188b055b7785a928cd8bf7cb30f84acd4010000006a473044022072b044d4a5193e561a33ef9c3d2940ae0514cef560c87b23e10494a421d519ea02206fb76894571b262aacafcbbeb573c13ae4f7576cdca36b855b5af93b22f2af65012103ebc3f1e6afe1df2adedfc83939f498082f044125bcc894ac25584d1b8efb8230ffffffff0220d613000000000017a914bc453ffaf68e0bc8897f923d2b1510ffb428fa4987de090100000000001976a914ddf216874d9951cc13489ea3d3e5b53ee282f6bb88ac00000000", "vin": [{"sequence": 4294967295, "scriptSig": {"hex": "473044022072b044d4a5193e561a33ef9c3d2940ae0514cef560c87b23e10494a421d519ea02206fb76894571b262aacafcbbeb573c13ae4f7576cdca36b855b5af93b22f2af65012103ebc3f1e6afe1df2adedfc83939f498082f044125bcc894ac25584d1b8efb8230", "asm": "3044022072b044d4a5193e561a33ef9c3d2940ae0514cef560c87b23e10494a421d519ea02206fb76894571b262aacafcbbeb573c13ae4f7576cdca36b855b5af93b22f2af65[ALL] 03ebc3f1e6afe1df2adedfc83939f498082f044125bcc894ac25584d1b8efb8230"}, "vout": 1, "txid": "d4ac840fb37cbfd88c925a78b755b0880145a67669959982924e9e5b65898629"}], "txid": "e9c644a6d4f740784dbfe856a4716a504af49921a1a52f58ac33b0f4e7077b40", "blocktime": 1537870564, "version": 1, "confirmations": 11515, "time": 1537870564, "locktime": 0, "vsize": 223, "size": 223}