{"hash": "2c86ad86d82cbf4b299204e60f9cf95c66324c03654831f8fa5f470d5f5eb14b", "blockhash": "000000000000000000022b45ed06c6f4ccd3cf7fb5ba4856ebd2e58215665228", "vout": [{"scriptPubKey": {"reqSigs": 1, "hex": "76a9141a875f5e8a6be4c7bc961170d0257dd1c91afb8888ac", "addresses": ["13RGjqWMDPfx5VC5JTz1bFogbzyEwqfkmM"], "asm": "OP_DUP OP_HASH160 1a875f5e8a6be4c7bc961170d0257dd1c91afb88 OP_EQUALVERIFY OP_CHECKSIG", "type": "pubkeyhash"}, "value": 0.0124, "n": 0}, {"scriptPubKey": {"reqSigs": 1, "hex": "a91450e04bd8afa1e9905a5681d986984b63fe99377187", "addresses": ["394egGXomUQedzX6ViT4AmcMZYhhrs1J63"], "asm": "OP_HASH160 50e04bd8afa1e9905a5681d986984b63fe993771 OP_EQUAL", "type": "scripthash"}, "value": 0.01001889, "n": 1}], "hex": "02000000000102d2121f862a443808184de5a54e68bae3908474a6195ebf7d8a74e46598f49f030100000017160014b9c1a66634607358a39ad939cfcb25cf763deda0fefffffff1ec26aabc37346f6081b0857ac3229ac03fa88a162364c7668d4dce748ee7ee0100000017160014673f2a1d4e9f649efd6eb145e3f3d3c0580e709bfeffffff02c0eb1200000000001976a9141a875f5e8a6be4c7bc961170d0257dd1c91afb8888aca1490f000000000017a91450e04bd8afa1e9905a5681d986984b63fe9937718702483045022100f8314456a94e35b80a2a1351907b4e69b11fb3e31fa688474e3dcce8a5f04b6502200b028a2c7242106cccadcf39c533b6bba9c6ab96fe1c5dc01786a0d21c4ab2cb012103f42de50c125ed72a974106058f0027396a59091a778b8b865c0601e26c2ab9ed0247304402201a029eba3a3dc8d6cf3c140c8aa3802b84ce969d3b468ea0a34ffbb154c89c090220173e9c7264ea29f33d05912aa6bda495cea6b94338dfd25bf272a545689da2d1012103a71e416205e3a0a95d80eb49d310e471dda181d446c2d420b129edfca865683e0b490800", "vin": [{"txinwitness": ["3045022100f8314456a94e35b80a2a1351907b4e69b11fb3e31fa688474e3dcce8a5f04b6502200b028a2c7242106cccadcf39c533b6bba9c6ab96fe1c5dc01786a0d21c4ab2cb01", "03f42de50c125ed72a974106058f0027396a59091a778b8b865c0601e26c2ab9ed"], "sequence": 4294967294, "scriptSig": {"hex": "160014b9c1a66634607358a39ad939cfcb25cf763deda0", "asm": "0014b9c1a66634607358a39ad939cfcb25cf763deda0"}, "vout": 1, "txid": "039ff49865e4748a7dbf5e19a6748490e3ba684ea5e54d180838442a861f12d2"}, {"txinwitness": ["304402201a029eba3a3dc8d6cf3c140c8aa3802b84ce969d3b468ea0a34ffbb154c89c090220173e9c7264ea29f33d05912aa6bda495cea6b94338dfd25bf272a545689da2d101", "03a71e416205e3a0a95d80eb49d310e471dda181d446c2d420b129edfca865683e"], "sequence": 4294967294, "scriptSig": {"hex": "160014673f2a1d4e9f649efd6eb145e3f3d3c0580e709b", "asm": "0014673f2a1d4e9f649efd6eb145e3f3d3c0580e709b"}, "vout": 1, "txid": "eee78e74ce4d8d66c76423168aa83fc09a22c37a85b081606f3437bcaa26ecf1"}], "txid": "e9deee09b01789d18efcefc6ba30f2eaa9b540c6cab99c9487acb698d9ce6463", "blocktime": 1537869901, "version": 2, "confirmations": 11522, "time": 1537869901, "locktime": 542987, "vsize": 259, "size": 421}