{"hash": "f019f1d07271d203d1c9c2df3b6c67b102d43150f72810dc7be99ded30b935ee", "blockhash": "00000000000000000004ffacab907a6b429b9a5745fa0b75af4234bf69dd7176", "vout": [{"scriptPubKey": {"reqSigs": 1, "hex": "76a914cb20819b7955dfa44ca709e99ac1217b6061677588ac", "addresses": ["1KX37X1ZQ36g1gSr1VFNRw6DccS121AzSe"], "asm": "OP_DUP OP_HASH160 cb20819b7955dfa44ca709e99ac1217b60616775 OP_EQUALVERIFY OP_CHECKSIG", "type": "pubkeyhash"}, "value": 0.03, "n": 0}, {"scriptPubKey": {"reqSigs": 1, "hex": "a914e2375092b49c2865ddfda1f7e0f9de50a5561e6487", "addresses": ["3NK8uETXmSQbGjY4zX5hQRn51m8JuWtdaF"], "asm": "OP_HASH160 e2375092b49c2865ddfda1f7e0f9de50a5561e64 OP_EQUAL", "type": "scripthash"}, "value": 0.1167, "n": 1}], "hex": "01000000000101f1342a1f65b4aaeb40761bed6f75b929df9c9d67d1c9a61af7f7a7c9f299d149030000002322002054deff30f247469bec979d098195281d84a8649ad9b8b5fd407d6da3b0fdf1f0ffffffff02c0c62d00000000001976a914cb20819b7955dfa44ca709e99ac1217b6061677588acf011b2000000000017a914e2375092b49c2865ddfda1f7e0f9de50a5561e6487040047304402202f854fac9ae283f094890b6f5374ef1539dd70dc75e76777d7b6fa9940607cb10220027d262e03efda96ab198aaeb60d4dae5b45197a222d5becd7600ec124810c9801483045022100d7644ce4e45dcef3c5b7766de87eacfb98d01f18483d6a9f157b8573cc42a27a022078bcf9fdef200feae567ff3f49a125f35c87d2a72dbab992ca3b03283c773f420169522103c4b24cb0e5ee199d029a60a5d1eaf8886d0f55305ca4b49d32fdaa8737d85aa921023a44a63f2a65ae9221da8d2acb2f70f440b143a18b122098cf365c62dfcbae2d21024f38dd512db112bb88a65a64a543b48656d036ac449008f322d8e457bce7aa7753ae00000000", "vin": [{"txinwitness": ["", "304402202f854fac9ae283f094890b6f5374ef1539dd70dc75e76777d7b6fa9940607cb10220027d262e03efda96ab198aaeb60d4dae5b45197a222d5becd7600ec124810c9801", "3045022100d7644ce4e45dcef3c5b7766de87eacfb98d01f18483d6a9f157b8573cc42a27a022078bcf9fdef200feae567ff3f49a125f35c87d2a72dbab992ca3b03283c773f4201", "522103c4b24cb0e5ee199d029a60a5d1eaf8886d0f55305ca4b49d32fdaa8737d85aa921023a44a63f2a65ae9221da8d2acb2f70f440b143a18b122098cf365c62dfcbae2d21024f38dd512db112bb88a65a64a543b48656d036ac449008f322d8e457bce7aa7753ae"], "sequence": 4294967295, "scriptSig": {"hex": "22002054deff30f247469bec979d098195281d84a8649ad9b8b5fd407d6da3b0fdf1f0", "asm": "002054deff30f247469bec979d098195281d84a8649ad9b8b5fd407d6da3b0fdf1f0"}, "vout": 3, "txid": "49d199f2c9a7f7f71aa6c9d1679d9cdf29b9756fed1b7640ebaab4651f2a34f1"}], "txid": "e9dfe4cb8a1b75596293774f006fb8437e4232eb83f1eb1b96c3633a5f4ca83d", "blocktime": 1537875543, "version": 1, "confirmations": 11464, "time": 1537875543, "locktime": 0, "vsize": 216, "size": 407}