{"hash": "e9e60e0ec39b4d8d8b181dd5b3cfefa047a6b717880dee118f32ed23e7cd0f13", "blockhash": "0000000000000000000dcc0f55137456b1a82d3642486a52398922ac4d620174", "vout": [{"scriptPubKey": {"reqSigs": 1, "hex": "76a914bbe4fd1432b5032837f90645d1474666442df72f88ac", "addresses": ["1J8VgH9aRU6jCMMWaVbGjBAgbh1B55b2pe"], "asm": "OP_DUP OP_HASH160 bbe4fd1432b5032837f90645d1474666442df72f OP_EQUALVERIFY OP_CHECKSIG", "type": "pubkeyhash"}, "value": 0.00042576, "n": 0}, {"scriptPubKey": {"reqSigs": 1, "hex": "76a914c477d06d75ecd37cfd7e75478db3dab7c032330b88ac", "addresses": ["1JupyS8U9NAFMMxMCnNiHe8oRDtmciobcR"], "asm": "OP_DUP OP_HASH160 c477d06d75ecd37cfd7e75478db3dab7c032330b OP_EQUALVERIFY OP_CHECKSIG", "type": "pubkeyhash"}, "value": 0.008507, "n": 1}], "hex": "01000000014806a7dcca0c280d0c4325fe5c2e25003566d601e8b703dff3e7df1f0b7cd10a010000006a47304402203dd0b32e3a973466e1bed66a17dc98952738a21b35c2a7f4a0667de80b2fc60802206689d52781eec3a306ac2c06d5009145b51b056073c24a317ca5f50424a1778a012102b9d154791bb1a7db34ecf363451d3093d25023f0fcad5102fac5a77a267cd558ffffffff0250a60000000000001976a914bbe4fd1432b5032837f90645d1474666442df72f88ac0cfb0c00000000001976a914c477d06d75ecd37cfd7e75478db3dab7c032330b88ac00000000", "vin": [{"sequence": 4294967295, "scriptSig": {"hex": "47304402203dd0b32e3a973466e1bed66a17dc98952738a21b35c2a7f4a0667de80b2fc60802206689d52781eec3a306ac2c06d5009145b51b056073c24a317ca5f50424a1778a012102b9d154791bb1a7db34ecf363451d3093d25023f0fcad5102fac5a77a267cd558", "asm": "304402203dd0b32e3a973466e1bed66a17dc98952738a21b35c2a7f4a0667de80b2fc60802206689d52781eec3a306ac2c06d5009145b51b056073c24a317ca5f50424a1778a[ALL] 02b9d154791bb1a7db34ecf363451d3093d25023f0fcad5102fac5a77a267cd558"}, "vout": 1, "txid": "0ad17c0b1fdfe7f3df03b7e801d6663500252e5cfe25430c0d280ccadca70648"}], "txid": "e9e60e0ec39b4d8d8b181dd5b3cfefa047a6b717880dee118f32ed23e7cd0f13", "blocktime": 1537870268, "version": 1, "confirmations": 11518, "time": 1537870268, "locktime": 0, "vsize": 225, "size": 225}