{"hash": "e9e7ca95d52f76ae3f4bf1c797c3dfc60a67e15c29a150931db083fd57e6c3ba", "blockhash": "0000000000000000000dcc0f55137456b1a82d3642486a52398922ac4d620174", "vout": [{"scriptPubKey": {"reqSigs": 1, "hex": "a914e2a7fa2ed7e18785bce74febad15c641052efc7f87", "addresses": ["3NMTsARUXTVcLBHFiLUUUeXh8tnWg4dR2W"], "asm": "OP_HASH160 e2a7fa2ed7e18785bce74febad15c641052efc7f OP_EQUAL", "type": "scripthash"}, "value": 0.589394, "n": 0}, {"scriptPubKey": {"reqSigs": 1, "hex": "76a91453db280f29a4e99b49426c84ee94ca5cd9d7bc4588ac", "addresses": ["18ePdBWZeKqjAd76nHdnHowgM2C4MkpppA"], "asm": "OP_DUP OP_HASH160 53db280f29a4e99b49426c84ee94ca5cd9d7bc45 OP_EQUALVERIFY OP_CHECKSIG", "type": "pubkeyhash"}, "value": 1.58059018, "n": 1}], "hex": "0100000001c35b7ae2fd82b196cac849e32cd00f41f14d6f1037bfb8c8b41d670873eae9fb010000006a473044022066ba76cbd35d60eff67f024b043995782faccb6e2fa59229616f70b50a1b6ba402204f927fc98a7937b967011ff9616359537519742e00559c2b1acb08a9d1c8ab2b01210387f8959d3c16985bf6ad12f6d1371a6f4879dae7e18ab12c54cd495961be0d14ffffffff02085883030000000017a914e2a7fa2ed7e18785bce74febad15c641052efc7f870aca6b09000000001976a91453db280f29a4e99b49426c84ee94ca5cd9d7bc4588ac00000000", "vin": [{"sequence": 4294967295, "scriptSig": {"hex": "473044022066ba76cbd35d60eff67f024b043995782faccb6e2fa59229616f70b50a1b6ba402204f927fc98a7937b967011ff9616359537519742e00559c2b1acb08a9d1c8ab2b01210387f8959d3c16985bf6ad12f6d1371a6f4879dae7e18ab12c54cd495961be0d14", "asm": "3044022066ba76cbd35d60eff67f024b043995782faccb6e2fa59229616f70b50a1b6ba402204f927fc98a7937b967011ff9616359537519742e00559c2b1acb08a9d1c8ab2b[ALL] 0387f8959d3c16985bf6ad12f6d1371a6f4879dae7e18ab12c54cd495961be0d14"}, "vout": 1, "txid": "fbe9ea7308671db4c8b8bf37106f4df1410fd02ce349c8ca96b182fde27a5bc3"}], "txid": "e9e7ca95d52f76ae3f4bf1c797c3dfc60a67e15c29a150931db083fd57e6c3ba", "blocktime": 1537870268, "version": 1, "confirmations": 11516, "time": 1537870268, "locktime": 0, "vsize": 223, "size": 223}