{"hash": "e9eddbba3b67b02efacbf0399323670df605201d33fe1633977c02b41d63623e", "blockhash": "0000000000000000000dcc0f55137456b1a82d3642486a52398922ac4d620174", "vout": [{"scriptPubKey": {"reqSigs": 1, "hex": "76a9145c16b92a3bf71de83286c496b93357670319336f88ac", "addresses": ["19PvPVUktt62TCVkF2QnXZMkkVVqGe3cNZ"], "asm": "OP_DUP OP_HASH160 5c16b92a3bf71de83286c496b93357670319336f OP_EQUALVERIFY OP_CHECKSIG", "type": "pubkeyhash"}, "value": 1.009201, "n": 0}, {"scriptPubKey": {"reqSigs": 1, "hex": "76a914ab5932a72513180bfd480cf9020d8aa82660618b88ac", "addresses": ["1Gd1QNzXNvy3GnWW6mrfrzAk4EXhy2VPJY"], "asm": "OP_DUP OP_HASH160 ab5932a72513180bfd480cf9020d8aa82660618b OP_EQUALVERIFY OP_CHECKSIG", "type": "pubkeyhash"}, "value": 0.00261847, "n": 1}], "hex": "01000000023f8f56f13efaf8612f2e264b2700fe833b3ef0fb5ec76bed5de1592b9033016f010000006a47304402205d779b805aed35bf87ab47f0e2199665317b684885df88a7429d244e8979b512022060aa5a3a5a5169d82747c3525679495350b3046645b93f718c6e1f3ff521a9ee012102068045df61f05bfbfe9c8d7534b431d56d2d94b1604ba64fe4c02bd7bffb3e7affffffffcee8afefb1e88df97b797d7bfb0e26b8c21a6bf03e56f29148dca88a23c7e44f000000006b483045022100d99ece474a3f57acd8486f34a6cf46428397264599aff6b37ce79939820505d40220608572a53379bd1a2d8ab762a57a052b4b660d09f0b51ba9041a53b2a89323b80121022e699a4a8a37f78c714210d6d230bcda84a396add94c1f29dfb0a834245b3537ffffffff0224eb0306000000001976a9145c16b92a3bf71de83286c496b93357670319336f88acd7fe0300000000001976a914ab5932a72513180bfd480cf9020d8aa82660618b88ac00000000", "vin": [{"sequence": 4294967295, "scriptSig": {"hex": "47304402205d779b805aed35bf87ab47f0e2199665317b684885df88a7429d244e8979b512022060aa5a3a5a5169d82747c3525679495350b3046645b93f718c6e1f3ff521a9ee012102068045df61f05bfbfe9c8d7534b431d56d2d94b1604ba64fe4c02bd7bffb3e7a", "asm": "304402205d779b805aed35bf87ab47f0e2199665317b684885df88a7429d244e8979b512022060aa5a3a5a5169d82747c3525679495350b3046645b93f718c6e1f3ff521a9ee[ALL] 02068045df61f05bfbfe9c8d7534b431d56d2d94b1604ba64fe4c02bd7bffb3e7a"}, "vout": 1, "txid": "6f0133902b59e15ded6bc75efbf03e3b83fe00274b262e2f61f8fa3ef1568f3f"}, {"sequence": 4294967295, "scriptSig": {"hex": "483045022100d99ece474a3f57acd8486f34a6cf46428397264599aff6b37ce79939820505d40220608572a53379bd1a2d8ab762a57a052b4b660d09f0b51ba9041a53b2a89323b80121022e699a4a8a37f78c714210d6d230bcda84a396add94c1f29dfb0a834245b3537", "asm": "3045022100d99ece474a3f57acd8486f34a6cf46428397264599aff6b37ce79939820505d40220608572a53379bd1a2d8ab762a57a052b4b660d09f0b51ba9041a53b2a89323b8[ALL] 022e699a4a8a37f78c714210d6d230bcda84a396add94c1f29dfb0a834245b3537"}, "vout": 0, "txid": "4fe4c7238aa8dc4891f2563ef06b1ac2b8260efb7b7d797bf98de8b1efafe8ce"}], "txid": "e9eddbba3b67b02efacbf0399323670df605201d33fe1633977c02b41d63623e", "blocktime": 1537870268, "version": 1, "confirmations": 11518, "time": 1537870268, "locktime": 0, "vsize": 373, "size": 373}