{"hash": "e9edb963e32904981425d5d9ed9f9a5d37e1d136c1cd9cd5132a1efdaf6b432b", "blockhash": "0000000000000000000dcc0f55137456b1a82d3642486a52398922ac4d620174", "vout": [{"scriptPubKey": {"reqSigs": 1, "hex": "76a914978726e2d324aadd3f5f3e4cbabfdf7cf0380c1088ac", "addresses": ["1EpCwV8KEsmxuCfNzXdYJGtCrjhVJxPzTb"], "asm": "OP_DUP OP_HASH160 978726e2d324aadd3f5f3e4cbabfdf7cf0380c10 OP_EQUALVERIFY OP_CHECKSIG", "type": "pubkeyhash"}, "value": 0.0054, "n": 0}], "hex": "0200000001c52a9db86ae5602c921f5d6355e08a9285e31b35bda62a5ae9280aa968c6b6fb000000006b483045022100af6c2fa864a3787fb04dab3089a5767107a69bb30f51ef44d1db73562c7eea1a02200dc8c2ad12c89dc994a7645a8b8911b4c402f3e1a43dd3901e0eb33e769ca786012103fbcab8ea2f4819c6dd1415a3ecf15cb4fd6ae178633ae1adfaa406370765703afeffffff01603d0800000000001976a914978726e2d324aadd3f5f3e4cbabfdf7cf0380c1088ac0c490800", "vin": [{"sequence": 4294967294, "scriptSig": {"hex": "483045022100af6c2fa864a3787fb04dab3089a5767107a69bb30f51ef44d1db73562c7eea1a02200dc8c2ad12c89dc994a7645a8b8911b4c402f3e1a43dd3901e0eb33e769ca786012103fbcab8ea2f4819c6dd1415a3ecf15cb4fd6ae178633ae1adfaa406370765703a", "asm": "3045022100af6c2fa864a3787fb04dab3089a5767107a69bb30f51ef44d1db73562c7eea1a02200dc8c2ad12c89dc994a7645a8b8911b4c402f3e1a43dd3901e0eb33e769ca786[ALL] 03fbcab8ea2f4819c6dd1415a3ecf15cb4fd6ae178633ae1adfaa406370765703a"}, "vout": 0, "txid": "fbb6c668a90a28e95a2aa6bd351be385928ae055635d1f922c60e56ab89d2ac5"}], "txid": "e9edb963e32904981425d5d9ed9f9a5d37e1d136c1cd9cd5132a1efdaf6b432b", "blocktime": 1537870268, "version": 2, "confirmations": 11516, "time": 1537870268, "locktime": 542988, "vsize": 192, "size": 192}