{"hash": "ece3c64c122b471e0b2a06b5ae76d52df951438fc4130ede658b0b6ff6cb2ba4", "blockhash": "0000000000000000000dcc0f55137456b1a82d3642486a52398922ac4d620174", "vout": [{"scriptPubKey": {"reqSigs": 1, "hex": "0014f7dad8efb74be12fb1065ba29f5ba99dbb6bf11c", "addresses": ["bc1q7ldd3mahf0sjlvgxtw3f7kafnkakhugu7xs3km"], "asm": "0 f7dad8efb74be12fb1065ba29f5ba99dbb6bf11c", "type": "witness_v0_keyhash"}, "value": 0.00841202, "n": 0}, {"scriptPubKey": {"reqSigs": 1, "hex": "76a91498078f0e730e9d1c1c978eecbc3f80b568cc249688ac", "addresses": ["1ErrmMXLBXUBEiD3vX7Z5h9GQ2ZPzihaNh"], "asm": "OP_DUP OP_HASH160 98078f0e730e9d1c1c978eecbc3f80b568cc2496 OP_EQUALVERIFY OP_CHECKSIG", "type": "pubkeyhash"}, "value": 0.12, "n": 1}], "hex": "01000000000101c2f6fd1b2f30ba09fa420023d5e0f4f770123a4460ecf2d402b6c1e05228be060000000000ffffffff02f2d50c0000000000160014f7dad8efb74be12fb1065ba29f5ba99dbb6bf11c001bb700000000001976a91498078f0e730e9d1c1c978eecbc3f80b568cc249688ac02483045022100fe95e87e49c2c7ce018f5d2efd641e080a01944f1d440a8e92de8059b5c66b2302201009171c66da938813b4ef959a25c9179589133a7365d36ff55ee99baaffd6a60121023c9c16e90a6b40cdbfa5d76bf6d9a96c5acc3155d7008d455da3403af186580300000000", "vin": [{"txinwitness": ["3045022100fe95e87e49c2c7ce018f5d2efd641e080a01944f1d440a8e92de8059b5c66b2302201009171c66da938813b4ef959a25c9179589133a7365d36ff55ee99baaffd6a601", "023c9c16e90a6b40cdbfa5d76bf6d9a96c5acc3155d7008d455da3403af1865803"], "sequence": 4294967295, "scriptSig": {"hex": "", "asm": ""}, "vout": 0, "txid": "06be2852e0c1b602d4f2ec60443a1270f7f4e0d5230042fa09ba302f1bfdf6c2"}], "txid": "e9f0576e6c8b0457ef21b34f94a9439271d4d2a413c1ffe473d5ddb4bda2a9ec", "blocktime": 1537870268, "version": 1, "confirmations": 11518, "time": 1537870268, "locktime": 0, "vsize": 144, "size": 226}