{"hash": "e9f49a1643ff9688771868e8ed18e61603672370d7b0be1b9b9876c77c0cc43f", "blockhash": "0000000000000000000baef3f32e3676a92c3b2e5da21b426e4f302fc371ce76", "vout": [{"scriptPubKey": {"reqSigs": 1, "hex": "76a9149a098b9f93992f532363b869e7bb5323143f898f88ac", "addresses": ["1F3UVmZ6L85GPHD7hX5YQmdmb28Br7jCon"], "asm": "OP_DUP OP_HASH160 9a098b9f93992f532363b869e7bb5323143f898f OP_EQUALVERIFY OP_CHECKSIG", "type": "pubkeyhash"}, "value": 0.51199427, "n": 0}], "hex": "0100000001bc69d971927a69e9c1d878ab9d402a1f1cb4e23b0d8299172e08f5a7d4fd76fc090000006a47304402201fcc446f1ef8c402ce10965e19e386314e1ee63a08623e12828cd6bb796d89ec022019c21d7767d89a66f0fe5621713b73d72e3f4fcde54acc2672d7fcf45ac3804a01210351f5015dabb8cde4e4d3e73073eea2af9b9a7c089297c745de64358de1317e8effffffff01c33d0d03000000001976a9149a098b9f93992f532363b869e7bb5323143f898f88ac00000000", "vin": [{"sequence": 4294967295, "scriptSig": {"hex": "47304402201fcc446f1ef8c402ce10965e19e386314e1ee63a08623e12828cd6bb796d89ec022019c21d7767d89a66f0fe5621713b73d72e3f4fcde54acc2672d7fcf45ac3804a01210351f5015dabb8cde4e4d3e73073eea2af9b9a7c089297c745de64358de1317e8e", "asm": "304402201fcc446f1ef8c402ce10965e19e386314e1ee63a08623e12828cd6bb796d89ec022019c21d7767d89a66f0fe5621713b73d72e3f4fcde54acc2672d7fcf45ac3804a[ALL] 0351f5015dabb8cde4e4d3e73073eea2af9b9a7c089297c745de64358de1317e8e"}, "vout": 9, "txid": "fc76fdd4a7f5082e1799820d3be2b41c1f2a409dab78d8c1e9697a9271d969bc"}], "txid": "e9f49a1643ff9688771868e8ed18e61603672370d7b0be1b9b9876c77c0cc43f", "blocktime": 1537876114, "version": 1, "confirmations": 11460, "time": 1537876114, "locktime": 0, "vsize": 191, "size": 191}