{"hash": "ba732c9e1af713b0fe18d9c44d709bf2f66b3410aa3c05567768c6b5f2c47980", "blockhash": "0000000000000000000baef3f32e3676a92c3b2e5da21b426e4f302fc371ce76", "vout": [{"scriptPubKey": {"reqSigs": 1, "hex": "a9148b79bb91e9f4b87d6b6010e3b27e8f2ac890e3c187", "addresses": ["3EQVgLutyZmPVBvYs7wgKZvF8iVGXBLhR7"], "asm": "OP_HASH160 8b79bb91e9f4b87d6b6010e3b27e8f2ac890e3c1 OP_EQUAL", "type": "scripthash"}, "value": 0.01332488, "n": 0}, {"scriptPubKey": {"reqSigs": 1, "hex": "a9144084b27a43636edf77ccfecd1c5d7243f01b7d9387", "addresses": ["37aA8nLV9pDrEjowEnQJJiwaFEDXphUP5K"], "asm": "OP_HASH160 4084b27a43636edf77ccfecd1c5d7243f01b7d93 OP_EQUAL", "type": "scripthash"}, "value": 0.02073435, "n": 1}], "hex": "02000000000101469ad95820eb88e5dcd14cb6ebaa86cc54e3eca1ec5dd4f67b6ea9937313418a0100000017160014c8f769032fc69eeb2e5e77ebd923d35e3646ac09ffffffff02085514000000000017a9148b79bb91e9f4b87d6b6010e3b27e8f2ac890e3c1875ba31f000000000017a9144084b27a43636edf77ccfecd1c5d7243f01b7d93870248304502210083adc081a63a4cc65159bde4a8c1ce4cf000fe23129d38bac3666e59272684440220769d744a157230d5ea2ac43c72bb2a408d9577c9394b293a33a51cc1b57010b2012103ce6f8c205a8c78e79125d83ca56bee565274ba9e19d4bf2125e0d422857ee22200000000", "vin": [{"txinwitness": ["304502210083adc081a63a4cc65159bde4a8c1ce4cf000fe23129d38bac3666e59272684440220769d744a157230d5ea2ac43c72bb2a408d9577c9394b293a33a51cc1b57010b201", "03ce6f8c205a8c78e79125d83ca56bee565274ba9e19d4bf2125e0d422857ee222"], "sequence": 4294967295, "scriptSig": {"hex": "160014c8f769032fc69eeb2e5e77ebd923d35e3646ac09", "asm": "0014c8f769032fc69eeb2e5e77ebd923d35e3646ac09"}, "vout": 1, "txid": "8a41137393a96e7bf6d45deca1ece354cc86aaebb64cd1dce588eb2058d99a46"}], "txid": "e9fb15bfcceaeb8330e3bccf45e829f5ee1a99648cea72d50611d89ecdf98706", "blocktime": 1537876114, "version": 2, "confirmations": 11460, "time": 1537876114, "locktime": 0, "vsize": 166, "size": 248}