{"hash": "951af639b8fafc644726dc0c30227de1fb2d3f1530d86375c5405f0e28dbf2a7", "blockhash": "0000000000000000000e13cef7c366c0283d82e591d1acd082e914b08063cdf1", "vout": [{"scriptPubKey": {"reqSigs": 1, "hex": "76a9140ec5b3b70c0951fc99fa71855440fff6810c552388ac", "addresses": ["12M7JGD8RKg7z7FM7A87nEpYjwRrPD91an"], "asm": "OP_DUP OP_HASH160 0ec5b3b70c0951fc99fa71855440fff6810c5523 OP_EQUALVERIFY OP_CHECKSIG", "type": "pubkeyhash"}, "value": 0.32824505, "n": 0}, {"scriptPubKey": {"reqSigs": 1, "hex": "76a914d39e25fe373864c8092289d885847a3fda1580dd88ac", "addresses": ["1LHw2paqU49APLQ9T9KSBj6wTmTHGAggKp"], "asm": "OP_DUP OP_HASH160 d39e25fe373864c8092289d885847a3fda1580dd OP_EQUALVERIFY OP_CHECKSIG", "type": "pubkeyhash"}, "value": 0.11391877, "n": 1}], "hex": "0200000000010156734d5e4aded201b043fd14f3cf43837d77f79493d0d7d1d0b2338d512778a40000000017160014e1c3976d8a80abf709d47ed48bc796082f804520feffffff02b9dcf401000000001976a9140ec5b3b70c0951fc99fa71855440fff6810c552388ac85d3ad00000000001976a914d39e25fe373864c8092289d885847a3fda1580dd88ac02483045022100c7eaf8e0544d6f698fc07b5b5c6a53cc10f4a5f76f43e5f3b40c9b61704ab00202202e8a5c55b343032cf9b7c23dee4e9d67ddf68e7561efdfad91ab675d586af81e01210374ac4d1bae7b4fb12605bfb1b5e40eccd0e1e3f7ddf3357112aea9f823a88db310490800", "vin": [{"txinwitness": ["3045022100c7eaf8e0544d6f698fc07b5b5c6a53cc10f4a5f76f43e5f3b40c9b61704ab00202202e8a5c55b343032cf9b7c23dee4e9d67ddf68e7561efdfad91ab675d586af81e01", "0374ac4d1bae7b4fb12605bfb1b5e40eccd0e1e3f7ddf3357112aea9f823a88db3"], "sequence": 4294967294, "scriptSig": {"hex": "160014e1c3976d8a80abf709d47ed48bc796082f804520", "asm": "0014e1c3976d8a80abf709d47ed48bc796082f804520"}, "vout": 0, "txid": "a47827518d33b2d0d1d7d09394f7777d8343cff314fd43b001d2de4a5e4d7356"}], "txid": "e9fc73431f3d21cd5f483d0c0a8d0a5bbd137e9ff0387a20508a5decabc89775", "blocktime": 1537871767, "version": 2, "confirmations": 11490, "time": 1537871767, "locktime": 542992, "vsize": 170, "size": 252}