{"hash": "ea012244a9480906678a62673e6779034f05f85aa5f0e8b0035d5a1fb2c0460e", "blockhash": "0000000000000000001f76057863aec43deb6fa401d9628bb513d65a8098bfab", "vout": [{"scriptPubKey": {"reqSigs": 1, "hex": "a914ee6729afa51af6c319a49be437acef9a9165810587", "addresses": ["3PRaL5XmCV5bUHchVMHAoJtc5absn6u2K9"], "asm": "OP_HASH160 ee6729afa51af6c319a49be437acef9a91658105 OP_EQUAL", "type": "scripthash"}, "value": 0.008, "n": 0}, {"scriptPubKey": {"reqSigs": 1, "hex": "76a9144adf041c2e9622a842f0bbafffde59366e28886788ac", "addresses": ["17ptAd7T852SAMYRcwQhpq2Nu8wRjXR8hW"], "asm": "OP_DUP OP_HASH160 4adf041c2e9622a842f0bbafffde59366e288867 OP_EQUALVERIFY OP_CHECKSIG", "type": "pubkeyhash"}, "value": 0.37087904, "n": 1}], "hex": "010000000169c1f2afef78d977d43dade0d469a2861fce12cde5cb88c948f8dd32374194ee010000006b48304502210094fc8f1b3905784c1a5c872de9d356ea0a4e6cf2d3bef68c274056fed477cc440220307d66490d7de81212ad7a77601d4398148baa286cd7a9fae9cf6434927d6278012102e018f3c3d46ff3194bf3ba883c370c40cf4f538e1f57ab991bd141c1d177fc6dffffffff0200350c000000000017a914ee6729afa51af6c319a49be437acef9a9165810587a0ea3502000000001976a9144adf041c2e9622a842f0bbafffde59366e28886788ac00000000", "vin": [{"sequence": 4294967295, "scriptSig": {"hex": "48304502210094fc8f1b3905784c1a5c872de9d356ea0a4e6cf2d3bef68c274056fed477cc440220307d66490d7de81212ad7a77601d4398148baa286cd7a9fae9cf6434927d6278012102e018f3c3d46ff3194bf3ba883c370c40cf4f538e1f57ab991bd141c1d177fc6d", "asm": "304502210094fc8f1b3905784c1a5c872de9d356ea0a4e6cf2d3bef68c274056fed477cc440220307d66490d7de81212ad7a77601d4398148baa286cd7a9fae9cf6434927d6278[ALL] 02e018f3c3d46ff3194bf3ba883c370c40cf4f538e1f57ab991bd141c1d177fc6d"}, "vout": 1, "txid": "ee94413732ddf848c988cbe5cd12ce1f86a269d4e0ad3dd477d978efaff2c169"}], "txid": "ea012244a9480906678a62673e6779034f05f85aa5f0e8b0035d5a1fb2c0460e", "blocktime": 1537873891, "version": 1, "confirmations": 11475, "time": 1537873891, "locktime": 0, "vsize": 224, "size": 224}