{"hash": "42d27bdce3ca9787f3ac3bd41351fabbddbc749437a521d0fb8b9290be7a7b9b", "blockhash": "00000000000000000017f5eb5941039fbcee6240d03bc1f2f8e35350df66a1d8", "vout": [{"scriptPubKey": {"reqSigs": 1, "hex": "76a914546868ef806ff7d669be2e91ea3520a745caed7288ac", "addresses": ["18hJqeBfSvutpSiJ4hE9jQSagbYett4LP5"], "asm": "OP_DUP OP_HASH160 546868ef806ff7d669be2e91ea3520a745caed72 OP_EQUALVERIFY OP_CHECKSIG", "type": "pubkeyhash"}, "value": 0.03054105, "n": 0}, {"scriptPubKey": {"reqSigs": 1, "hex": "a9147b507a195cc7f8f1a9543e33da06ac60f8cdb3ef87", "addresses": ["3Cw3SmvcZEJXjsvZa4TCdKdJzRqhCKEnUc"], "asm": "OP_HASH160 7b507a195cc7f8f1a9543e33da06ac60f8cdb3ef OP_EQUAL", "type": "scripthash"}, "value": 8.53234275, "n": 1}], "hex": "0200000000010153b81aa61fe10dacbafec53da67407bc29806d947d3706c0b78bd08139a456d70100000017160014d6959b9ec0c293e15a544e1242e6e6ab034ebbbdfeffffff02199a2e00000000001976a914546868ef806ff7d669be2e91ea3520a745caed7288ac6352db320000000017a9147b507a195cc7f8f1a9543e33da06ac60f8cdb3ef870247304402206e1431b8dbd30964d9bb875af12db24b9956de20524d575e14abcc4d8bcdc9ea0220254dd0bce9a6552d50151ba0e30c7b1b1b5b07a8132abe70c33a0bb79222a7f5012102ff77ce67c32f4331d43e42cf07d7df099a6439468254cc66eebb0d65a867675815490800", "vin": [{"txinwitness": ["304402206e1431b8dbd30964d9bb875af12db24b9956de20524d575e14abcc4d8bcdc9ea0220254dd0bce9a6552d50151ba0e30c7b1b1b5b07a8132abe70c33a0bb79222a7f501", "02ff77ce67c32f4331d43e42cf07d7df099a6439468254cc66eebb0d65a8676758"], "sequence": 4294967294, "scriptSig": {"hex": "160014d6959b9ec0c293e15a544e1242e6e6ab034ebbbd", "asm": "0014d6959b9ec0c293e15a544e1242e6e6ab034ebbbd"}, "vout": 1, "txid": "d756a43981d08bb7c006377d946d8029bc0774a63dc5febaac0de11fa61ab853"}], "txid": "ea0e27f5dcd1b270937e50c584dbc720bf3250ad3e1361c1b43eaee9a43caea9", "blocktime": 1537874412, "version": 2, "confirmations": 11468, "time": 1537874412, "locktime": 542997, "vsize": 168, "size": 249}