{"hash": "ea14afeb638e2cdc9f1dfb4971d56a2e330cb958daa657bcd7cc1eabd6782583", "blockhash": "00000000000000000018f53835495a110e01622372bf6ae95dc86f2b0ab887b0", "vout": [{"scriptPubKey": {"reqSigs": 1, "hex": "a914684eeb0e0ea9fa7aa4f200434c7df406f7cb05c887", "addresses": ["3BCYjpqdn1bcj3HxDkcKPqudUe8x4Hcnhk"], "asm": "OP_HASH160 684eeb0e0ea9fa7aa4f200434c7df406f7cb05c8 OP_EQUAL", "type": "scripthash"}, "value": 0.13164511, "n": 0}, {"scriptPubKey": {"reqSigs": 1, "hex": "76a9144aeaea6129ee7f917cad777ee242e73c7a78b7c188ac", "addresses": ["17q8RQzbTUwuJBwe2Bvzy2yLrnCb2hMMHe"], "asm": "OP_DUP OP_HASH160 4aeaea6129ee7f917cad777ee242e73c7a78b7c1 OP_EQUALVERIFY OP_CHECKSIG", "type": "pubkeyhash"}, "value": 0.01056807, "n": 1}], "hex": "010000000101e72172d4f07f1446fb83bd144b84c777cc72d045a0e8797f37d206ddd69fc800000000db00483045022100b958198f717b211d662d13a63eb2121a04df0e8a88de45f4c187bd1a062b8e690220799c1f07deffd06e1975366d829c4b57e215c6924db86c8ef265a7cb0cbf2e9201483045022100b81ca2c3f5b8184d66416db76174dc2de3cc5f3b1a21856bf5da834b7b5c98b102206bc67fe9996a61a94dffe9dab7ec99375582c330c91fe9dbd8b96bf92acc87af0147522102907a54bed8ad74b3f35638c60114ca240a308cb986f3f2f306178869a8880b6121030be38aee873764a7373e35493b2eb048245f48a4723bd5f3b1efd6cb35ad708f52aeffffffff02dfdfc8000000000017a914684eeb0e0ea9fa7aa4f200434c7df406f7cb05c88727201000000000001976a9144aeaea6129ee7f917cad777ee242e73c7a78b7c188ac00000000", "vin": [{"sequence": 4294967295, "scriptSig": {"hex": "00483045022100b958198f717b211d662d13a63eb2121a04df0e8a88de45f4c187bd1a062b8e690220799c1f07deffd06e1975366d829c4b57e215c6924db86c8ef265a7cb0cbf2e9201483045022100b81ca2c3f5b8184d66416db76174dc2de3cc5f3b1a21856bf5da834b7b5c98b102206bc67fe9996a61a94dffe9dab7ec99375582c330c91fe9dbd8b96bf92acc87af0147522102907a54bed8ad74b3f35638c60114ca240a308cb986f3f2f306178869a8880b6121030be38aee873764a7373e35493b2eb048245f48a4723bd5f3b1efd6cb35ad708f52ae", "asm": "0 3045022100b958198f717b211d662d13a63eb2121a04df0e8a88de45f4c187bd1a062b8e690220799c1f07deffd06e1975366d829c4b57e215c6924db86c8ef265a7cb0cbf2e92[ALL] 3045022100b81ca2c3f5b8184d66416db76174dc2de3cc5f3b1a21856bf5da834b7b5c98b102206bc67fe9996a61a94dffe9dab7ec99375582c330c91fe9dbd8b96bf92acc87af[ALL] 522102907a54bed8ad74b3f35638c60114ca240a308cb986f3f2f306178869a8880b6121030be38aee873764a7373e35493b2eb048245f48a4723bd5f3b1efd6cb35ad708f52ae"}, "vout": 0, "txid": "c89fd6dd06d2377f79e8a045d072cc77c7844b14bd83fb46147ff0d47221e701"}], "txid": "ea14afeb638e2cdc9f1dfb4971d56a2e330cb958daa657bcd7cc1eabd6782583", "blocktime": 1537870928, "version": 1, "confirmations": 11512, "time": 1537870928, "locktime": 0, "vsize": 336, "size": 336}