{"hash": "ea1709f6f9027439ce3f6bc29956bddaf6fa36f0ac3e7b2f387c6b64f29840a5", "blockhash": "00000000000000000018f53835495a110e01622372bf6ae95dc86f2b0ab887b0", "vout": [{"scriptPubKey": {"reqSigs": 1, "hex": "76a914e5e5e8ac66b0d7d01458094779c268137055bbb688ac", "addresses": ["1MxbAH91GwPJTAgLeENzh9G7TXXpTcf5cY"], "asm": "OP_DUP OP_HASH160 e5e5e8ac66b0d7d01458094779c268137055bbb6 OP_EQUALVERIFY OP_CHECKSIG", "type": "pubkeyhash"}, "value": 0.00365381, "n": 0}, {"scriptPubKey": {"reqSigs": 1, "hex": "76a914b2a83b139212fd2c40eb1a6e365f0f1482adc75088ac", "addresses": ["1HHep2RFojsacn2w4UcbdaibDaG3c1trWf"], "asm": "OP_DUP OP_HASH160 b2a83b139212fd2c40eb1a6e365f0f1482adc750 OP_EQUALVERIFY OP_CHECKSIG", "type": "pubkeyhash"}, "value": 0.21, "n": 1}], "hex": "0100000005299b03ddcd7db2f5fce10254ae01d83ad7b20570b2039e7760d38e13bb361f3c010000006b4830450221009a1ccf503bfbcdb4579695beeae61d1207d573254f1afbdf53a419b122c0755602203a408e678a3a9b8359b3c07a26c99c16fdbe76ed1e9ec33a8a384fa83eb7a89a012103ec49325df922d630191bddcba0bb08bab7bcb09d048c650248366f32201f587effffffffd852699e46c4c98d681a1780a37da1b1de679043473ecb718f8c0929ac33f895000000006b483045022100d94b11bdc7e37d80bbfc4f5b31f07b3afece714ea0ef5d831c774fca48e6262c02205740b51c2adc9be66f90e3a254b1a55c2526f71dd190a9b0c741ff5f9a65676a012103ec49325df922d630191bddcba0bb08bab7bcb09d048c650248366f32201f587effffffffd273cbf0173b795a5da5abdf7036ae2357a7b5e7840e136179a736ebbca2d1ca000000006a4730440220222a27425d67f91cfc4899d302d20101f75697322bf8978d1715b4aa685fdaa5022025f7cdb2edabd8154a49773afb46dfb05f09745889ffbc9461c22a7b1e1357dc012103ec49325df922d630191bddcba0bb08bab7bcb09d048c650248366f32201f587effffffff97e0e288b76fc387ca6e885ba5b6723779f7599554bdb46bb88637eb0f6dbad30c0000006b483045022100df6d25c480aeae4443c14a1aaa4ce0f5fbbe83a464f062276ed44f9730471aa702205c8b0115c321ce3a7a3d557b86dd74fccb92206c2483954f49afba120d3863ed012103ec49325df922d630191bddcba0bb08bab7bcb09d048c650248366f32201f587effffffff12f9207cccd2813548128592e5d42da3155081d1a58883bf79a59286230640f5260000006b48304502210081f97064f395e19dca7cd27aa33308d68071a83df3f38a4dd2d71b96718d9ead022055dc0266c927dc8f0b6bad85b2f8501d53dd3144ec9815f78064b4a678be6b50012103ec49325df922d630191bddcba0bb08bab7bcb09d048c650248366f32201f587effffffff0245930500000000001976a914e5e5e8ac66b0d7d01458094779c268137055bbb688ac406f4001000000001976a914b2a83b139212fd2c40eb1a6e365f0f1482adc75088ac00000000", "vin": [{"sequence": 4294967295, "scriptSig": {"hex": "4830450221009a1ccf503bfbcdb4579695beeae61d1207d573254f1afbdf53a419b122c0755602203a408e678a3a9b8359b3c07a26c99c16fdbe76ed1e9ec33a8a384fa83eb7a89a012103ec49325df922d630191bddcba0bb08bab7bcb09d048c650248366f32201f587e", "asm": "30450221009a1ccf503bfbcdb4579695beeae61d1207d573254f1afbdf53a419b122c0755602203a408e678a3a9b8359b3c07a26c99c16fdbe76ed1e9ec33a8a384fa83eb7a89a[ALL] 03ec49325df922d630191bddcba0bb08bab7bcb09d048c650248366f32201f587e"}, "vout": 1, "txid": "3c1f36bb138ed360779e03b27005b2d73ad801ae5402e1fcf5b27dcddd039b29"}, {"sequence": 4294967295, "scriptSig": {"hex": "483045022100d94b11bdc7e37d80bbfc4f5b31f07b3afece714ea0ef5d831c774fca48e6262c02205740b51c2adc9be66f90e3a254b1a55c2526f71dd190a9b0c741ff5f9a65676a012103ec49325df922d630191bddcba0bb08bab7bcb09d048c650248366f32201f587e", "asm": "3045022100d94b11bdc7e37d80bbfc4f5b31f07b3afece714ea0ef5d831c774fca48e6262c02205740b51c2adc9be66f90e3a254b1a55c2526f71dd190a9b0c741ff5f9a65676a[ALL] 03ec49325df922d630191bddcba0bb08bab7bcb09d048c650248366f32201f587e"}, "vout": 0, "txid": "95f833ac29098c8f71cb3e47439067deb1a17da380171a688dc9c4469e6952d8"}, {"sequence": 4294967295, "scriptSig": {"hex": "4730440220222a27425d67f91cfc4899d302d20101f75697322bf8978d1715b4aa685fdaa5022025f7cdb2edabd8154a49773afb46dfb05f09745889ffbc9461c22a7b1e1357dc012103ec49325df922d630191bddcba0bb08bab7bcb09d048c650248366f32201f587e", "asm": "30440220222a27425d67f91cfc4899d302d20101f75697322bf8978d1715b4aa685fdaa5022025f7cdb2edabd8154a49773afb46dfb05f09745889ffbc9461c22a7b1e1357dc[ALL] 03ec49325df922d630191bddcba0bb08bab7bcb09d048c650248366f32201f587e"}, "vout": 0, "txid": "cad1a2bceb36a77961130e84e7b5a75723ae3670dfaba55d5a793b17f0cb73d2"}, {"sequence": 4294967295, "scriptSig": {"hex": "483045022100df6d25c480aeae4443c14a1aaa4ce0f5fbbe83a464f062276ed44f9730471aa702205c8b0115c321ce3a7a3d557b86dd74fccb92206c2483954f49afba120d3863ed012103ec49325df922d630191bddcba0bb08bab7bcb09d048c650248366f32201f587e", "asm": "3045022100df6d25c480aeae4443c14a1aaa4ce0f5fbbe83a464f062276ed44f9730471aa702205c8b0115c321ce3a7a3d557b86dd74fccb92206c2483954f49afba120d3863ed[ALL] 03ec49325df922d630191bddcba0bb08bab7bcb09d048c650248366f32201f587e"}, "vout": 12, "txid": "d3ba6d0feb3786b86bb4bd549559f7793772b6a55b886eca87c36fb788e2e097"}, {"sequence": 4294967295, "scriptSig": {"hex": "48304502210081f97064f395e19dca7cd27aa33308d68071a83df3f38a4dd2d71b96718d9ead022055dc0266c927dc8f0b6bad85b2f8501d53dd3144ec9815f78064b4a678be6b50012103ec49325df922d630191bddcba0bb08bab7bcb09d048c650248366f32201f587e", "asm": "304502210081f97064f395e19dca7cd27aa33308d68071a83df3f38a4dd2d71b96718d9ead022055dc0266c927dc8f0b6bad85b2f8501d53dd3144ec9815f78064b4a678be6b50[ALL] 03ec49325df922d630191bddcba0bb08bab7bcb09d048c650248366f32201f587e"}, "vout": 38, "txid": "f54006238692a579bf8388a5d1815015a32dd4e5928512483581d2cc7c20f912"}], "txid": "ea1709f6f9027439ce3f6bc29956bddaf6fa36f0ac3e7b2f387c6b64f29840a5", "blocktime": 1537870928, "version": 1, "confirmations": 11514, "time": 1537870928, "locktime": 0, "vsize": 817, "size": 817}