{"hash": "ea17b7bf1e7cb5b795f0ea2e2dfab05fcd2a53ec209db1f841c47c1b0ce56e10", "blockhash": "0000000000000000001e0dab787dd257d1dbfcb92a98c2207d5e1078be1f4165", "vout": [{"scriptPubKey": {"reqSigs": 1, "hex": "a9149700ac7fab2e02afd085c9ee6e96a87b938cedd087", "addresses": ["3FTSmKzJQJbwnbibPTdteLh6XQeAZCt6y2"], "asm": "OP_HASH160 9700ac7fab2e02afd085c9ee6e96a87b938cedd0 OP_EQUAL", "type": "scripthash"}, "value": 0.01257187, "n": 0}, {"scriptPubKey": {"reqSigs": 1, "hex": "76a914f6e341689b7e566a7f27573d890e3fcfea922a4688ac", "addresses": ["1PWRUBQXutsiaA6kZ6hc6EtgdPtQ9rTtVa"], "asm": "OP_DUP OP_HASH160 f6e341689b7e566a7f27573d890e3fcfea922a46 OP_EQUALVERIFY OP_CHECKSIG", "type": "pubkeyhash"}, "value": 0.13881013, "n": 1}], "hex": "01000000010a725460e21c5a21ef2d71d6ae0750409d1ce9c735f352936f8390ade310627f010000006b483045022100a7b5c5d54e36e312042dbf77dfc6b2441414f72036ccf60108258a743ead2fd302207dcb2980958d94e82cc0fb36c4f18c402a3b2ee407abe7d9b98315c7fb4ca4750121025edc30603356619df3dadc90670a5cdb4853d4876811c8f27626fbadf8e34e1affffffff02e32e13000000000017a9149700ac7fab2e02afd085c9ee6e96a87b938cedd087b5ced300000000001976a914f6e341689b7e566a7f27573d890e3fcfea922a4688ac00000000", "vin": [{"sequence": 4294967295, "scriptSig": {"hex": "483045022100a7b5c5d54e36e312042dbf77dfc6b2441414f72036ccf60108258a743ead2fd302207dcb2980958d94e82cc0fb36c4f18c402a3b2ee407abe7d9b98315c7fb4ca4750121025edc30603356619df3dadc90670a5cdb4853d4876811c8f27626fbadf8e34e1a", "asm": "3045022100a7b5c5d54e36e312042dbf77dfc6b2441414f72036ccf60108258a743ead2fd302207dcb2980958d94e82cc0fb36c4f18c402a3b2ee407abe7d9b98315c7fb4ca475[ALL] 025edc30603356619df3dadc90670a5cdb4853d4876811c8f27626fbadf8e34e1a"}, "vout": 1, "txid": "7f6210e3ad90836f9352f335c7e91c9d405007aed6712def215a1ce26054720a"}], "txid": "ea17b7bf1e7cb5b795f0ea2e2dfab05fcd2a53ec209db1f841c47c1b0ce56e10", "blocktime": 1537872475, "version": 1, "confirmations": 11487, "time": 1537872475, "locktime": 0, "vsize": 224, "size": 224}