{"hash": "ea18a349955ffd9fac32cf35e5867611e886c0ac1614e881ff52c58f827cb498", "blockhash": "0000000000000000001cda96e906b7601b7a6fb1a3b62bca570a9e5d8f4b3de1", "vout": [{"scriptPubKey": {"reqSigs": 1, "hex": "76a9146ef25d8223912dc789dd310684fdb6a24336134d88ac", "addresses": ["1B7dfwFRDa9GteSjeL4GaFfCRpQD9nX4xH"], "asm": "OP_DUP OP_HASH160 6ef25d8223912dc789dd310684fdb6a24336134d OP_EQUALVERIFY OP_CHECKSIG", "type": "pubkeyhash"}, "value": 0.05325213, "n": 0}], "hex": "010000000330c45704d743d60b57447059003bf2d31ea2ad267e784b61f18c77558add8086000000006b4830450221009665c437aedb7528d2fa76e0adf5272d5d698a854051313b39c36b3a2d050f79022078dbb5d56080ee5c3c34219939e16957061f4b84ec709a6ca056782d5096b8d801210347caa96cb4c6604b0ec44ad3b353ad9acc2442f644e1fc1d3bb465c789d6db85ffffffff842d1c2d68006783e2b675a25953d3d6e87b60339b0f351287f993e78642dbd2000000006a47304402205c5066e7df108c201bdd0830f204802d149127a1dc78b17646532de8e5baacb1022053193df9c42cbbb4f6ee1a481f87662ce729b0ea651a931982dd0754ae1805c40121022e5e34addee2aa08b7bd9cd507990b47fff22d7c17be36fe6f8b81febe0d124fffffffffcfe185b0645d68af7e78ce9138c6b3111b00957221fafe265f2cfea8af5f04ff010000006b4830450221008bd1e438b25779f7e68970a678ba41bbf0ee1a63d8c80145310223a25811e4710220343de6bb2e948a3874b87759f2250a60a85e1390e326c1d9e368dc12b5fca37f012102b6544c07703ab71a62af2eccc1c5468f252c5132c657fcee1640ddd6ea9da35fffffffff019d415100000000001976a9146ef25d8223912dc789dd310684fdb6a24336134d88ac00000000", "vin": [{"sequence": 4294967295, "scriptSig": {"hex": "4830450221009665c437aedb7528d2fa76e0adf5272d5d698a854051313b39c36b3a2d050f79022078dbb5d56080ee5c3c34219939e16957061f4b84ec709a6ca056782d5096b8d801210347caa96cb4c6604b0ec44ad3b353ad9acc2442f644e1fc1d3bb465c789d6db85", "asm": "30450221009665c437aedb7528d2fa76e0adf5272d5d698a854051313b39c36b3a2d050f79022078dbb5d56080ee5c3c34219939e16957061f4b84ec709a6ca056782d5096b8d8[ALL] 0347caa96cb4c6604b0ec44ad3b353ad9acc2442f644e1fc1d3bb465c789d6db85"}, "vout": 0, "txid": "8680dd8a55778cf1614b787e26ada21ed3f23b00597044570bd643d70457c430"}, {"sequence": 4294967295, "scriptSig": {"hex": "47304402205c5066e7df108c201bdd0830f204802d149127a1dc78b17646532de8e5baacb1022053193df9c42cbbb4f6ee1a481f87662ce729b0ea651a931982dd0754ae1805c40121022e5e34addee2aa08b7bd9cd507990b47fff22d7c17be36fe6f8b81febe0d124f", "asm": "304402205c5066e7df108c201bdd0830f204802d149127a1dc78b17646532de8e5baacb1022053193df9c42cbbb4f6ee1a481f87662ce729b0ea651a931982dd0754ae1805c4[ALL] 022e5e34addee2aa08b7bd9cd507990b47fff22d7c17be36fe6f8b81febe0d124f"}, "vout": 0, "txid": "d2db4286e793f98712350f9b33607be8d6d35359a275b6e2836700682d1c2d84"}, {"sequence": 4294967295, "scriptSig": {"hex": "4830450221008bd1e438b25779f7e68970a678ba41bbf0ee1a63d8c80145310223a25811e4710220343de6bb2e948a3874b87759f2250a60a85e1390e326c1d9e368dc12b5fca37f012102b6544c07703ab71a62af2eccc1c5468f252c5132c657fcee1640ddd6ea9da35f", "asm": "30450221008bd1e438b25779f7e68970a678ba41bbf0ee1a63d8c80145310223a25811e4710220343de6bb2e948a3874b87759f2250a60a85e1390e326c1d9e368dc12b5fca37f[ALL] 02b6544c07703ab71a62af2eccc1c5468f252c5132c657fcee1640ddd6ea9da35f"}, "vout": 1, "txid": "ff045fafa8fe2c5f26fefa217295001b11b3c63891ce787eaf685d64b085e1cf"}], "txid": "ea18a349955ffd9fac32cf35e5867611e886c0ac1614e881ff52c58f827cb498", "blocktime": 1537873282, "version": 1, "confirmations": 11485, "time": 1537873282, "locktime": 0, "vsize": 487, "size": 487}