{"hash": "ea18ef387dfc55e85289f58d14e1cb2cfa8bf902c959e6976d557812e60228ce", "blockhash": "0000000000000000000dcc0f55137456b1a82d3642486a52398922ac4d620174", "vout": [{"scriptPubKey": {"reqSigs": 1, "hex": "76a914ad19e096ddf7cc17085d3477adef89c93fa5a41d88ac", "addresses": ["1GnGuB3QhEMwUgFiiyrUQkAr9GAoawKoBx"], "asm": "OP_DUP OP_HASH160 ad19e096ddf7cc17085d3477adef89c93fa5a41d OP_EQUALVERIFY OP_CHECKSIG", "type": "pubkeyhash"}, "value": 0.00083382, "n": 0}, {"scriptPubKey": {"reqSigs": 1, "hex": "76a9143a278abd766b75f0d0deee2b4bf63f3f90174ec988ac", "addresses": ["16JVZYrhdDSDrjdcjSZho1Qg7JkHwQqSET"], "asm": "OP_DUP OP_HASH160 3a278abd766b75f0d0deee2b4bf63f3f90174ec9 OP_EQUALVERIFY OP_CHECKSIG", "type": "pubkeyhash"}, "value": 0.0252, "n": 1}], "hex": "0100000002b8ed91d1eb47e52cd3f8e52739beae710759b0bf027700de98dd540769338262000000006b483045022100cba19ee927caf138b3180353f6320a644ab8f76414cc53c0030d9b7144b6a9fd022059e5b9693bf39a168b8a6eaa48ca2a917a22252953a54eef38286065289c98c5012103aaa34473d0c2b3d244ba2cf8bef978000091559d747c89ecc5db2ee195f38805ffffffff8c657c8e30ea7eda4d4a22c09dbbc204ba8e59a110513ece7b79b203561ddad50d0000006b483045022100e9ba79c84f0fe647fba5a6833ee77d3e53a5e491cb66feb9abb20ad852cfea9902207e82a145f9fbcf13e80a048edc2085d04f78b8012c7c51d993cf40f4fadab9770121025d520c4749010387167c5c916e75a9d1a5cd3b2627bf2fa66fd816688839ccc5ffffffff02b6450100000000001976a914ad19e096ddf7cc17085d3477adef89c93fa5a41d88acc0732600000000001976a9143a278abd766b75f0d0deee2b4bf63f3f90174ec988ac00000000", "vin": [{"sequence": 4294967295, "scriptSig": {"hex": "483045022100cba19ee927caf138b3180353f6320a644ab8f76414cc53c0030d9b7144b6a9fd022059e5b9693bf39a168b8a6eaa48ca2a917a22252953a54eef38286065289c98c5012103aaa34473d0c2b3d244ba2cf8bef978000091559d747c89ecc5db2ee195f38805", "asm": "3045022100cba19ee927caf138b3180353f6320a644ab8f76414cc53c0030d9b7144b6a9fd022059e5b9693bf39a168b8a6eaa48ca2a917a22252953a54eef38286065289c98c5[ALL] 03aaa34473d0c2b3d244ba2cf8bef978000091559d747c89ecc5db2ee195f38805"}, "vout": 0, "txid": "628233690754dd98de007702bfb0590771aebe3927e5f8d32ce547ebd191edb8"}, {"sequence": 4294967295, "scriptSig": {"hex": "483045022100e9ba79c84f0fe647fba5a6833ee77d3e53a5e491cb66feb9abb20ad852cfea9902207e82a145f9fbcf13e80a048edc2085d04f78b8012c7c51d993cf40f4fadab9770121025d520c4749010387167c5c916e75a9d1a5cd3b2627bf2fa66fd816688839ccc5", "asm": "3045022100e9ba79c84f0fe647fba5a6833ee77d3e53a5e491cb66feb9abb20ad852cfea9902207e82a145f9fbcf13e80a048edc2085d04f78b8012c7c51d993cf40f4fadab977[ALL] 025d520c4749010387167c5c916e75a9d1a5cd3b2627bf2fa66fd816688839ccc5"}, "vout": 13, "txid": "d5da1d5603b2797bce3e5110a1598eba04c2bb9dc0224a4dda7eea308e7c658c"}], "txid": "ea18ef387dfc55e85289f58d14e1cb2cfa8bf902c959e6976d557812e60228ce", "blocktime": 1537870268, "version": 1, "confirmations": 11518, "time": 1537870268, "locktime": 0, "vsize": 374, "size": 374}