{"hash": "30d60d6346bf5bb727d68c40b2b49ae1e4f22447697c58cfd59a0c7217d8c08f", "blockhash": "000000000000000000022b45ed06c6f4ccd3cf7fb5ba4856ebd2e58215665228", "vout": [{"scriptPubKey": {"reqSigs": 1, "hex": "76a914a0e76250de3555df8f99c76121996f133c2eeaed88ac", "addresses": ["1FfnJYDi4GqhZkgufZpvyNgBUWtP6HYqry"], "asm": "OP_DUP OP_HASH160 a0e76250de3555df8f99c76121996f133c2eeaed OP_EQUALVERIFY OP_CHECKSIG", "type": "pubkeyhash"}, "value": 0.00012, "n": 0}, {"scriptPubKey": {"reqSigs": 1, "hex": "a914ea260850510ddafee67708b52e33432a377a8a2e87", "addresses": ["3P35byVUeFSUvG1zR4VZbdg8pY14JS5oLJ"], "asm": "OP_HASH160 ea260850510ddafee67708b52e33432a377a8a2e OP_EQUAL", "type": "scripthash"}, "value": 0.00033253, "n": 1}], "hex": "01000000000103513a51a938359790ff8437ccf152dedabaa76d373afcb411b868bd39e7abcd450100000023220020da59eb29f0a6f28428a359046d1dc695049bc931da20ed6e71f658f1a67af13dfffffffff41e56c616b5b5402c2866e1439fc2ee83e9ceef3493a1698e4cfa6b714384570100000023220020d398b471392c9e1b2fc7b15b34f2e2853a5b9110cacaf26a2bd8123b99355e86ffffffffb429bb24fee886bb4f41b46433caf58ad32c16c0e7ea660cd9c2c73b3d8bf97101000000232200203d57f37c60df271f41df9909e264da072d7b4e3e68389b72f0f110c6f82b6d7fffffffff02e02e0000000000001976a914a0e76250de3555df8f99c76121996f133c2eeaed88ace58100000000000017a914ea260850510ddafee67708b52e33432a377a8a2e870400483045022100e9b2908035a49f9ca6f113e15898454858641fcb3b7d68344cbea15c33acc68202207bb50699f0c28a9b48474e0b25a6372f51fa9d898a0a24cd457b0f8abac31a2001483045022100869aa790176bce036b707da51da99ec6288dce8ebe35dac45a9b590df81597d702207af697cec230e0e33e01f7e5fca692c0b6e079734b07900177c3e11d5541cfc70147522103bc69a5ce8b9b06eb8ee512edc813eaf3eb15aecaa250c07a36f30049da1ea9732102726ff74b232948bf3b0b4302934f660ce5f3375e3c0ec0ccd022a4260517f25a52ae04004830450221008283f7f00194629a5b8d5bb75d5b8454ac0e4c4348e378ba31540c7cd56ff04c02201601d4dd0755bff2dafbbd0b99fbc690a25179aead93ee9eed12f91f9b2273dc01463043021f617e78680bb04c231fd11275dcf04831d601c376865ce5f604fa559b9c7f9f0220113b4b7c5085dcd62f18a59e257e23e215bc79561fc62aea806b4f1db868e5940147522102e845eeeeabcbe9ae0c0a3b287b5a01b7674645595adef0824416acbc5121e7442102726ff74b232948bf3b0b4302934f660ce5f3375e3c0ec0ccd022a4260517f25a52ae0400483045022100881bb9df13290366b05e6c4fcfdcc3e6d9b40daf6f39fb54863c6696e7685d8202203fcdf04a6c7fe22769816f4107ebb702f6458d3622d9a502a14b8bbf3df60cf301483045022100dae436f2ecdcfe6f41fb274206fbedb8cfa8bbf22ab6078747a8bf4de39715fa02200b0306e9e19b9f2461beb8ee104b0aa0ec81c4afe1cb6c1946df8840ac5416640147522102a107a7c9651ec8b08d2ff9cdf203137cfd247e4c4e432aa2ae3adb79f0e35b4d2102726ff74b232948bf3b0b4302934f660ce5f3375e3c0ec0ccd022a4260517f25a52ae00000000", "vin": [{"txinwitness": ["", "3045022100e9b2908035a49f9ca6f113e15898454858641fcb3b7d68344cbea15c33acc68202207bb50699f0c28a9b48474e0b25a6372f51fa9d898a0a24cd457b0f8abac31a2001", "3045022100869aa790176bce036b707da51da99ec6288dce8ebe35dac45a9b590df81597d702207af697cec230e0e33e01f7e5fca692c0b6e079734b07900177c3e11d5541cfc701", "522103bc69a5ce8b9b06eb8ee512edc813eaf3eb15aecaa250c07a36f30049da1ea9732102726ff74b232948bf3b0b4302934f660ce5f3375e3c0ec0ccd022a4260517f25a52ae"], "sequence": 4294967295, "scriptSig": {"hex": "220020da59eb29f0a6f28428a359046d1dc695049bc931da20ed6e71f658f1a67af13d", "asm": "0020da59eb29f0a6f28428a359046d1dc695049bc931da20ed6e71f658f1a67af13d"}, "vout": 1, "txid": "45cdabe739bd68b811b4fc3a376da7badade52f1cc3784ff90973538a9513a51"}, {"txinwitness": ["", "30450221008283f7f00194629a5b8d5bb75d5b8454ac0e4c4348e378ba31540c7cd56ff04c02201601d4dd0755bff2dafbbd0b99fbc690a25179aead93ee9eed12f91f9b2273dc01", "3043021f617e78680bb04c231fd11275dcf04831d601c376865ce5f604fa559b9c7f9f0220113b4b7c5085dcd62f18a59e257e23e215bc79561fc62aea806b4f1db868e59401", "522102e845eeeeabcbe9ae0c0a3b287b5a01b7674645595adef0824416acbc5121e7442102726ff74b232948bf3b0b4302934f660ce5f3375e3c0ec0ccd022a4260517f25a52ae"], "sequence": 4294967295, "scriptSig": {"hex": "220020d398b471392c9e1b2fc7b15b34f2e2853a5b9110cacaf26a2bd8123b99355e86", "asm": "0020d398b471392c9e1b2fc7b15b34f2e2853a5b9110cacaf26a2bd8123b99355e86"}, "vout": 1, "txid": "578443716bfa4c8e69a19334efcee983eec29f43e166282c40b5b516c6561ef4"}, {"txinwitness": ["", "3045022100881bb9df13290366b05e6c4fcfdcc3e6d9b40daf6f39fb54863c6696e7685d8202203fcdf04a6c7fe22769816f4107ebb702f6458d3622d9a502a14b8bbf3df60cf301", "3045022100dae436f2ecdcfe6f41fb274206fbedb8cfa8bbf22ab6078747a8bf4de39715fa02200b0306e9e19b9f2461beb8ee104b0aa0ec81c4afe1cb6c1946df8840ac54166401", "522102a107a7c9651ec8b08d2ff9cdf203137cfd247e4c4e432aa2ae3adb79f0e35b4d2102726ff74b232948bf3b0b4302934f660ce5f3375e3c0ec0ccd022a4260517f25a52ae"], "sequence": 4294967295, "scriptSig": {"hex": "2200203d57f37c60df271f41df9909e264da072d7b4e3e68389b72f0f110c6f82b6d7f", "asm": "00203d57f37c60df271f41df9909e264da072d7b4e3e68389b72f0f110c6f82b6d7f"}, "vout": 1, "txid": "71f98b3d3bc7c2d90c66eae7c0162cd38af5ca3364b4414fbb86e8fe24bb29b4"}], "txid": "ea1a54101560d356f2ab0787b27a190ebf2b26dbd657ff90e398a924277fcf0e", "blocktime": 1537869901, "version": 1, "confirmations": 11524, "time": 1537869901, "locktime": 0, "vsize": 469, "size": 964}