{"hash": "ea214bdd10612c6681a6539f301e38f5fece3b21b56c2be590128c08619c21c8", "blockhash": "0000000000000000001f0ddff1eddb255c1121bcd4da4f1bc9a0da00cae72433", "vout": [{"scriptPubKey": {"reqSigs": 1, "hex": "76a914e512c4ec93d8b4aa9c745b7ae99759006e9cfd7d88ac", "addresses": ["1MtEE3EQgc3xjs94vAKR43uzHHDHsJKyNo"], "asm": "OP_DUP OP_HASH160 e512c4ec93d8b4aa9c745b7ae99759006e9cfd7d OP_EQUALVERIFY OP_CHECKSIG", "type": "pubkeyhash"}, "value": 0.00397537, "n": 0}, {"scriptPubKey": {"reqSigs": 1, "hex": "76a9143aabedaf5e2be521b2feea307cce99a91a2442f588ac", "addresses": ["16ME9vdzqzHbx44FsnY6Z51dTEcM3h1Gd6"], "asm": "OP_DUP OP_HASH160 3aabedaf5e2be521b2feea307cce99a91a2442f5 OP_EQUALVERIFY OP_CHECKSIG", "type": "pubkeyhash"}, "value": 0.008, "n": 1}], "hex": "0100000002575bd5a39b9eff7d53126467c07b4ec36892df951ce6afa5eb50f39425993e6c000000006a473044022022fe2562f644ce497fdea28660b1e83e3b844fe57fc676c432bba1bc00afdd0f022062f050332088b29fb3e5d6303d7d28339a003aa0a39323090208eee3e78b2f6e012103713fb7f44029ed475907b12ae5523886edb755f4373438553e0845e2a017f251fffffffff75c995f0a0cd1acd7f18827fc251f96ca2b4b7d1212cfd832a9f450929126bc000000006b483045022100ec519ae869fffc2a0422688e7c895259e70a9f7db01759bc2a607b28e6d9e97602201f972e520599d53852e71abf159bc72f44ee678b2941afacf313f211857b725d012102b82b22078919b310a388c6175bd7b9ca7608cbf637adb7c5c922fc8e304ad06dffffffff02e1100600000000001976a914e512c4ec93d8b4aa9c745b7ae99759006e9cfd7d88ac00350c00000000001976a9143aabedaf5e2be521b2feea307cce99a91a2442f588ac00000000", "vin": [{"sequence": 4294967295, "scriptSig": {"hex": "473044022022fe2562f644ce497fdea28660b1e83e3b844fe57fc676c432bba1bc00afdd0f022062f050332088b29fb3e5d6303d7d28339a003aa0a39323090208eee3e78b2f6e012103713fb7f44029ed475907b12ae5523886edb755f4373438553e0845e2a017f251", "asm": "3044022022fe2562f644ce497fdea28660b1e83e3b844fe57fc676c432bba1bc00afdd0f022062f050332088b29fb3e5d6303d7d28339a003aa0a39323090208eee3e78b2f6e[ALL] 03713fb7f44029ed475907b12ae5523886edb755f4373438553e0845e2a017f251"}, "vout": 0, "txid": "6c3e992594f350eba5afe61c95df9268c34e7bc0676412537dff9e9ba3d55b57"}, {"sequence": 4294967295, "scriptSig": {"hex": "483045022100ec519ae869fffc2a0422688e7c895259e70a9f7db01759bc2a607b28e6d9e97602201f972e520599d53852e71abf159bc72f44ee678b2941afacf313f211857b725d012102b82b22078919b310a388c6175bd7b9ca7608cbf637adb7c5c922fc8e304ad06d", "asm": "3045022100ec519ae869fffc2a0422688e7c895259e70a9f7db01759bc2a607b28e6d9e97602201f972e520599d53852e71abf159bc72f44ee678b2941afacf313f211857b725d[ALL] 02b82b22078919b310a388c6175bd7b9ca7608cbf637adb7c5c922fc8e304ad06d"}, "vout": 0, "txid": "bc26919250f4a932d8cf12127d4b2bca961f25fc2788f1d7acd10c0a5f995cf7"}], "txid": "ea214bdd10612c6681a6539f301e38f5fece3b21b56c2be590128c08619c21c8", "blocktime": 1537872018, "version": 1, "confirmations": 11489, "time": 1537872018, "locktime": 0, "vsize": 373, "size": 373}