{"hash": "ea2121fb8adef22130139ace0404b393406a6539e20db59cf291ccff1ba9c9a4", "blockhash": "00000000000000000004ffacab907a6b429b9a5745fa0b75af4234bf69dd7176", "vout": [{"scriptPubKey": {"reqSigs": 1, "hex": "76a91491edf99df5bc8eba4a4f8beaf733ae357813dd8b88ac", "addresses": ["1EJc4cYpdWuA8jxb4Y9sWsEK65mgAguNDP"], "asm": "OP_DUP OP_HASH160 91edf99df5bc8eba4a4f8beaf733ae357813dd8b OP_EQUALVERIFY OP_CHECKSIG", "type": "pubkeyhash"}, "value": 0.99, "n": 0}, {"scriptPubKey": {"reqSigs": 1, "hex": "76a914c9b18eb7cee6671c4d968026b9808b918d729d6f88ac", "addresses": ["1KPTXUBtCp54DqXsQYnhwez3Wv3pASkFJ9"], "asm": "OP_DUP OP_HASH160 c9b18eb7cee6671c4d968026b9808b918d729d6f OP_EQUALVERIFY OP_CHECKSIG", "type": "pubkeyhash"}, "value": 3.85392, "n": 1}], "hex": "010000000131f2a3162ace0dd0da2c3c9f08ab652dba7254cb085d3cc95eed34f6a7e412d1010000006a47304402200b7ab1e88e981943802af21610590651c699ef20761d760ed84d2bf000c7ad7a022007889cbfd5f6fe9cd1998c15e357063070b434bdb0db23a7b0bb7c6acafd51c3012103e7f2ee40c0c0dbded1a9e0b043dd4a3f4022fe800438a3e884f7584e92d247d6ffffffff02c09ee605000000001976a91491edf99df5bc8eba4a4f8beaf733ae357813dd8b88ac809df816000000001976a914c9b18eb7cee6671c4d968026b9808b918d729d6f88ac00000000", "vin": [{"sequence": 4294967295, "scriptSig": {"hex": "47304402200b7ab1e88e981943802af21610590651c699ef20761d760ed84d2bf000c7ad7a022007889cbfd5f6fe9cd1998c15e357063070b434bdb0db23a7b0bb7c6acafd51c3012103e7f2ee40c0c0dbded1a9e0b043dd4a3f4022fe800438a3e884f7584e92d247d6", "asm": "304402200b7ab1e88e981943802af21610590651c699ef20761d760ed84d2bf000c7ad7a022007889cbfd5f6fe9cd1998c15e357063070b434bdb0db23a7b0bb7c6acafd51c3[ALL] 03e7f2ee40c0c0dbded1a9e0b043dd4a3f4022fe800438a3e884f7584e92d247d6"}, "vout": 1, "txid": "d112e4a7f634ed5ec93c5d08cb5472ba2d65ab089f3c2cdad00dce2a16a3f231"}], "txid": "ea2121fb8adef22130139ace0404b393406a6539e20db59cf291ccff1ba9c9a4", "blocktime": 1537875543, "version": 1, "confirmations": 11464, "time": 1537875543, "locktime": 0, "vsize": 225, "size": 225}