{"hash": "20e26b80df402a37cabc2ffb5878c72cce7a8fdcc25b417beb9a327344023594", "blockhash": "00000000000000000017f5eb5941039fbcee6240d03bc1f2f8e35350df66a1d8", "vout": [{"scriptPubKey": {"reqSigs": 1, "hex": "00144cb83e36c87b17865f0e0ae490913ea426fb4baa", "addresses": ["bc1qfjurudkg0vtcvhcwptjfpyf75sn0kja26n8w7z"], "asm": "0 4cb83e36c87b17865f0e0ae490913ea426fb4baa", "type": "witness_v0_keyhash"}, "value": 0.48515449, "n": 0}, {"scriptPubKey": {"reqSigs": 1, "hex": "76a91415b7d83655e11b15486196a96ed1b407f7fa02d288ac", "addresses": ["12yqRmsqbdmbWoFZQJbgHo9T6dA2ZnHScV"], "asm": "OP_DUP OP_HASH160 15b7d83655e11b15486196a96ed1b407f7fa02d2 OP_EQUALVERIFY OP_CHECKSIG", "type": "pubkeyhash"}, "value": 0.13010813, "n": 1}], "hex": "01000000000101f10d0e87644e9316e3bbf5783ee902d3ca638c915f23faf4f7997d37f8eefc470000000000ffffffff027949e402000000001600144cb83e36c87b17865f0e0ae490913ea426fb4baa7d87c600000000001976a91415b7d83655e11b15486196a96ed1b407f7fa02d288ac02473044022071306d7c91ac5adffefd96acca27aa1eb52f92298cbe2b7b5aad9e68822332a902207a005c0837edd4bcefd9f4a2c005d1301bad1731e62ed313770f3ff5a8a26e040121038b0ac62c3954fe6d2796fdd8e24fdf1b943506e48e9ef3a17cf02e5e06f0516e00000000", "vin": [{"txinwitness": ["3044022071306d7c91ac5adffefd96acca27aa1eb52f92298cbe2b7b5aad9e68822332a902207a005c0837edd4bcefd9f4a2c005d1301bad1731e62ed313770f3ff5a8a26e0401", "038b0ac62c3954fe6d2796fdd8e24fdf1b943506e48e9ef3a17cf02e5e06f0516e"], "sequence": 4294967295, "scriptSig": {"hex": "", "asm": ""}, "vout": 0, "txid": "47fceef8377d99f7f4fa235f918c63cad302e93e78f5bbe316934e64870e0df1"}], "txid": "ea225ec40b405c52ffdaebe636f1ed9cff32721fe35f8f6db7fe2a0d9a7134ee", "blocktime": 1537874412, "version": 1, "confirmations": 11467, "time": 1537874412, "locktime": 0, "vsize": 144, "size": 225}