{"hash": "ea2248c574d1d79d95eb48dbe2490fdae8b6259231be8eb705bacb62d10b21de", "blockhash": "0000000000000000000dcc0f55137456b1a82d3642486a52398922ac4d620174", "vout": [{"scriptPubKey": {"reqSigs": 1, "hex": "76a9141021faf0d09a23c975e55b43dbb08300b51681fc88ac", "addresses": ["12UJX4LbBZmhzXjB7m79pXqNXnyzMTM6xC"], "asm": "OP_DUP OP_HASH160 1021faf0d09a23c975e55b43dbb08300b51681fc OP_EQUALVERIFY OP_CHECKSIG", "type": "pubkeyhash"}, "value": 0.00913696, "n": 0}, {"scriptPubKey": {"type": "nulldata", "hex": "6a146f6d6e69000000000000001f000000032ead2100", "asm": "OP_RETURN 6f6d6e69000000000000001f000000032ead2100"}, "value": 0.0, "n": 1}, {"scriptPubKey": {"reqSigs": 1, "hex": "76a9143cfae885218a5fa802c7c18890eaecb8682ac14d88ac", "addresses": ["16ZS7vXTQFLwp4DRMzM85QTsatqtvw68sk"], "asm": "OP_DUP OP_HASH160 3cfae885218a5fa802c7c18890eaecb8682ac14d OP_EQUALVERIFY OP_CHECKSIG", "type": "pubkeyhash"}, "value": 5.46e-06, "n": 2}], "hex": "010000000193e59b246effa4cc364ccaeb0bdd67d5119934883becb23b51d0f1146bad0c31020000006b483045022100f8ef69b342b5875d0e355588075b4347052bdf7a27136810bfc1867224aa9a41022070e17649c379b622b76a78c02b6ab80f051c58d328e26407e28625ee50b3613701210274883ddf5ec53f444246ebd1e8ac1091aeaf3b156e2eb48022d6ba4f1a9dea5afeffffff0320f10d00000000001976a9141021faf0d09a23c975e55b43dbb08300b51681fc88ac0000000000000000166a146f6d6e69000000000000001f000000032ead210022020000000000001976a9143cfae885218a5fa802c7c18890eaecb8682ac14d88ac0c490800", "vin": [{"sequence": 4294967294, "scriptSig": {"hex": "483045022100f8ef69b342b5875d0e355588075b4347052bdf7a27136810bfc1867224aa9a41022070e17649c379b622b76a78c02b6ab80f051c58d328e26407e28625ee50b3613701210274883ddf5ec53f444246ebd1e8ac1091aeaf3b156e2eb48022d6ba4f1a9dea5a", "asm": "3045022100f8ef69b342b5875d0e355588075b4347052bdf7a27136810bfc1867224aa9a41022070e17649c379b622b76a78c02b6ab80f051c58d328e26407e28625ee50b36137[ALL] 0274883ddf5ec53f444246ebd1e8ac1091aeaf3b156e2eb48022d6ba4f1a9dea5a"}, "vout": 2, "txid": "310cad6b14f1d0513bb2ec3b88349911d567dd0bebca4c36cca4ff6e249be593"}], "txid": "ea2248c574d1d79d95eb48dbe2490fdae8b6259231be8eb705bacb62d10b21de", "blocktime": 1537870268, "version": 1, "confirmations": 11516, "time": 1537870268, "locktime": 542988, "vsize": 257, "size": 257}