{"hash": "ea23719edbf4ae2867ea11c0a3271b99b2727a4bf1001082ae5f3c0490a6b748", "blockhash": "0000000000000000001cda96e906b7601b7a6fb1a3b62bca570a9e5d8f4b3de1", "vout": [{"scriptPubKey": {"reqSigs": 1, "hex": "76a914ea58999933a06b5046db0b3b52e3d5a8903f970288ac", "addresses": ["1NN7Fvaj4hJjjGcZAy3rzothhxZqMTgxyc"], "asm": "OP_DUP OP_HASH160 ea58999933a06b5046db0b3b52e3d5a8903f9702 OP_EQUALVERIFY OP_CHECKSIG", "type": "pubkeyhash"}, "value": 0.00781223, "n": 0}, {"scriptPubKey": {"reqSigs": 1, "hex": "76a914fdc72f0d8ca65ad24f3e68420f6bf69356cefe1588ac", "addresses": ["1Q8ra4qd8iTMZbYGpw777ZYbjbqJXQi6qq"], "asm": "OP_DUP OP_HASH160 fdc72f0d8ca65ad24f3e68420f6bf69356cefe15 OP_EQUALVERIFY OP_CHECKSIG", "type": "pubkeyhash"}, "value": 0.01330107, "n": 1}], "hex": "01000000018d1cb313f35dafcde7d2d69c4feec996a449403f6a95a1f77091fd3b84b72401010000006a473044022003b61387636fa6afd3b0b36fe6adf411cf4203150d44ed9ffdae36d6a3e6ede302200699c761df7e50caa3fd9f39f15cfe24b70f04df529ad3bffbb838f47698e38e0121022bafdd28d73bdac1980742022a4a3e1b6fe888c40814986f517c716ea487ce3bffffffff02a7eb0b00000000001976a914ea58999933a06b5046db0b3b52e3d5a8903f970288acbb4b1400000000001976a914fdc72f0d8ca65ad24f3e68420f6bf69356cefe1588ac00000000", "vin": [{"sequence": 4294967295, "scriptSig": {"hex": "473044022003b61387636fa6afd3b0b36fe6adf411cf4203150d44ed9ffdae36d6a3e6ede302200699c761df7e50caa3fd9f39f15cfe24b70f04df529ad3bffbb838f47698e38e0121022bafdd28d73bdac1980742022a4a3e1b6fe888c40814986f517c716ea487ce3b", "asm": "3044022003b61387636fa6afd3b0b36fe6adf411cf4203150d44ed9ffdae36d6a3e6ede302200699c761df7e50caa3fd9f39f15cfe24b70f04df529ad3bffbb838f47698e38e[ALL] 022bafdd28d73bdac1980742022a4a3e1b6fe888c40814986f517c716ea487ce3b"}, "vout": 1, "txid": "0124b7843bfd9170f7a1956a3f4049a496c9ee4f9cd6d2e7cdaf5df313b31c8d"}], "txid": "ea23719edbf4ae2867ea11c0a3271b99b2727a4bf1001082ae5f3c0490a6b748", "blocktime": 1537873282, "version": 1, "confirmations": 11482, "time": 1537873282, "locktime": 0, "vsize": 225, "size": 225}