{"hash": "ea27c4103a400051c8542a4cbd3847db52ce0e721d203b238c0580af88dd60a4", "blockhash": "0000000000000000000baef3f32e3676a92c3b2e5da21b426e4f302fc371ce76", "vout": [{"scriptPubKey": {"type": "nulldata", "hex": "6a4c500000781400015db435de848d4898009fffa1702940d64fa54d8eb2d19ed074892d00f8e8966f861419e591b40a61c2bfa2d1b1055baa1bca06151c4efe29a49f1d100759d4ba30d2c37bb011d97e02cf", "asm": "OP_RETURN 0000781400015db435de848d4898009fffa1702940d64fa54d8eb2d19ed074892d00f8e8966f861419e591b40a61c2bfa2d1b1055baa1bca06151c4efe29a49f1d100759d4ba30d2c37bb011d97e02cf"}, "value": 0.0, "n": 0}, {"scriptPubKey": {"reqSigs": 1, "hex": "76a914e37b291219833a4d7587a382f2d9993b6836766388ac", "addresses": ["1MjovtBJ6TWNBieYPfybqeTd9PcmhT3tfS"], "asm": "OP_DUP OP_HASH160 e37b291219833a4d7587a382f2d9993b68367663 OP_EQUALVERIFY OP_CHECKSIG", "type": "pubkeyhash"}, "value": 0.0058165, "n": 1}], "hex": "010000000168e6c63864e08b0d04103477be8a21a5beec267296c4c3f709ba8961d54d672c010000006a47304402200d45de255f087de504f8ca765d76203b1e1be9aff33716ffe0b341164944f6fe02201fef43ab8014f46559902de4d1518782bdc75340928ba6c3048fafc2d642f9ad012103aa92b4de1ff92e6b0402329008213b65eb22baeebf9b46b657658380315ec91fffffffff020000000000000000536a4c500000781400015db435de848d4898009fffa1702940d64fa54d8eb2d19ed074892d00f8e8966f861419e591b40a61c2bfa2d1b1055baa1bca06151c4efe29a49f1d100759d4ba30d2c37bb011d97e02cf12e00800000000001976a914e37b291219833a4d7587a382f2d9993b6836766388ac00000000", "vin": [{"sequence": 4294967295, "scriptSig": {"hex": "47304402200d45de255f087de504f8ca765d76203b1e1be9aff33716ffe0b341164944f6fe02201fef43ab8014f46559902de4d1518782bdc75340928ba6c3048fafc2d642f9ad012103aa92b4de1ff92e6b0402329008213b65eb22baeebf9b46b657658380315ec91f", "asm": "304402200d45de255f087de504f8ca765d76203b1e1be9aff33716ffe0b341164944f6fe02201fef43ab8014f46559902de4d1518782bdc75340928ba6c3048fafc2d642f9ad[ALL] 03aa92b4de1ff92e6b0402329008213b65eb22baeebf9b46b657658380315ec91f"}, "vout": 1, "txid": "2c674dd56189ba09f7c3c4967226ecbea5218abe773410040d8be06438c6e668"}], "txid": "ea27c4103a400051c8542a4cbd3847db52ce0e721d203b238c0580af88dd60a4", "blocktime": 1537876114, "version": 1, "confirmations": 11460, "time": 1537876114, "locktime": 0, "vsize": 283, "size": 283}