{"hash": "ea2d97854bb6c90e69c32bc1e6c64e2c69b259aa48049bcc98b11a216fedc639", "blockhash": "00000000000000000017f5eb5941039fbcee6240d03bc1f2f8e35350df66a1d8", "vout": [{"scriptPubKey": {"reqSigs": 1, "hex": "a91414c7ed2feed48f103a3547fe72a92d9efc7e1e6087", "addresses": ["33atwWzmXmNU5vGiLBSxLnZicyZyGB6xTf"], "asm": "OP_HASH160 14c7ed2feed48f103a3547fe72a92d9efc7e1e60 OP_EQUAL", "type": "scripthash"}, "value": 0.020647, "n": 0}, {"scriptPubKey": {"reqSigs": 1, "hex": "76a91430f1318c348e3a42e6af3d25c8267880ddb0c98e88ac", "addresses": ["15TnNdVeHn9wKs5GU99QbCPTucamYJC2yu"], "asm": "OP_DUP OP_HASH160 30f1318c348e3a42e6af3d25c8267880ddb0c98e OP_EQUALVERIFY OP_CHECKSIG", "type": "pubkeyhash"}, "value": 0.0489531, "n": 1}], "hex": "01000000013e1d044126af24c3372e2be618dfd58a089bf2f5e526e94f642c8e61609c170a010000006a473044022062352262b0acacb093588247b02f464a4fd4525c85590ad711e8e5b4f4cb7cd2022025e8f0c9c29a00fcb8dccd6bfa91ca02d736959513151cd6a69621242bd248220121035f5d16ba53e63911ad00c96bc6dd2e9d3c260a65196b22c6606b47fface7a23afeffffff023c811f000000000017a91414c7ed2feed48f103a3547fe72a92d9efc7e1e60874eb24a00000000001976a91430f1318c348e3a42e6af3d25c8267880ddb0c98e88ac15490800", "vin": [{"sequence": 4294967294, "scriptSig": {"hex": "473044022062352262b0acacb093588247b02f464a4fd4525c85590ad711e8e5b4f4cb7cd2022025e8f0c9c29a00fcb8dccd6bfa91ca02d736959513151cd6a69621242bd248220121035f5d16ba53e63911ad00c96bc6dd2e9d3c260a65196b22c6606b47fface7a23a", "asm": "3044022062352262b0acacb093588247b02f464a4fd4525c85590ad711e8e5b4f4cb7cd2022025e8f0c9c29a00fcb8dccd6bfa91ca02d736959513151cd6a69621242bd24822[ALL] 035f5d16ba53e63911ad00c96bc6dd2e9d3c260a65196b22c6606b47fface7a23a"}, "vout": 1, "txid": "0a179c60618e2c644fe926e5f5f29b088ad5df18e62b2e37c324af2641041d3e"}], "txid": "ea2d97854bb6c90e69c32bc1e6c64e2c69b259aa48049bcc98b11a216fedc639", "blocktime": 1537874412, "version": 1, "confirmations": 11467, "time": 1537874412, "locktime": 542997, "vsize": 223, "size": 223}