{"hash": "ea33d89ccbe476adfc5ae745d14e4332f9d43b293ed6d798c63400ec3edd38dc", "blockhash": "00000000000000000017f5eb5941039fbcee6240d03bc1f2f8e35350df66a1d8", "vout": [{"scriptPubKey": {"reqSigs": 1, "hex": "76a914e8cea30989bd15530f819b766684b00dc7ba7cfa88ac", "addresses": ["1NDyJtNTjmwk5xPNhjgAMu4HDHigtobu1s"], "asm": "OP_DUP OP_HASH160 e8cea30989bd15530f819b766684b00dc7ba7cfa OP_EQUALVERIFY OP_CHECKSIG", "type": "pubkeyhash"}, "value": 4.55262166, "n": 0}, {"scriptPubKey": {"reqSigs": 1, "hex": "76a914ae69f3c84d866196a803d0238f9b7bbcca2337c388ac", "addresses": ["1GuDW59xWB3wAhWvYtjpbwBjm2nDfYygkf"], "asm": "OP_DUP OP_HASH160 ae69f3c84d866196a803d0238f9b7bbcca2337c3 OP_EQUALVERIFY OP_CHECKSIG", "type": "pubkeyhash"}, "value": 0.00873899, "n": 1}], "hex": "0200000008148c111abee505f7c18c268e85b27bc4679b77083e650b576d34d2bf16a65826030000006b483045022100b430185ca0f946b3a8bbaa462ba747bf4a4b3275777c83cacf01721b9473a87b02200c189a0d6fb1cf6a07eaa274a88bcbdeee632e98e09f7b72ed4f709adf1a6f6901210396dbfa954354ccbe9743b7be10bf4f85c48a7ced7f779f6970077bf177d62815feffffff31626187af40731efa1767f08abff0f9191d5ba1a66cd019ca4a72ddb9367c73010000006b483045022100c66286340cf72116ad3ebb80ee2f95caaf9a428c4e24d9544edafba114fa1a1002207830a84bfa658936638023db3c2ca086471c96e1cde2ed39f6e2e5150158946301210272caafdac2299fa854ad8138a2ba9ff672da30a8ad00975d985e00796c75f7a3feffffff55b3e340b4d32ff1a9f606a4b90ea3658c3730e05edbbca229af3d4ef7036989000000006b483045022100a5d4d75adb2a0c2e7b21f0ef7123f2161306ce7a8a90c48148dfd7dd1a97dad802201d48e09a5bdab76696183f16f77d1f0168b4395b716cd98640f439b122794efc0121036274a6e66d30b0e9e4b1c34cbd88c86ea6db1441bee27a54ee6992b13a915c34feffffff7a0063c277804d6ac2b5df026170534112644c3cf7f2c37b25f6925d7bbce900070000006b483045022100e626bc7ab633abaa8f56a56edda215926a165a16165d99778444ff69a715a3e702203c6c769c4a6a17ce73417fc38d959f2b13a0bc88c0d738f067148458f8c65c780121036ac96e8ca6a1c37b7cf7971290b25e608c829312379e43d3f98867b20abd2cdffeffffff7f803f7e022f5381cb54a48f56fb174bb943e9639b68b1fe02838007b741ee9e4d0200006a47304402205800224f39a53791a563022493fa505955fd6eed6c8737081ece8a4ba903e60e02205a471cb8fc3d309c4b412f0e732cc1c6cd3ee458cd9ee0ca02556ee8a04bfdc00121038b8f0247b4f4766e6ea52b9f74b9f83c70c9c3bf65116731ea517018b17e0c1afeffffff806c9fe856315e2504108a7d2af7ffdc61b65ada68a87c91fc1b71e9bb643e6b010000006b483045022100f151a9eca14a0d26780ffeb38eaa029cba6a03525308eb8a3299c6177c64bb1702203c57e8392ad2cbef750b09b6c64add49b2b9a73d2e66b3d76aa534e7fa56150701210266682112efbce036d528bf3dda8225ae591cc25300ec4a7231367b7f7b3c4fecfeffffffb1b4a9a6fcaa96fbd01287d9fff4ec9922ff4f8b12d15b45839ff7dc21009ab3000000006b483045022100abf9d375f009a55815c4c77f81440058d501405ee19483c7602a1df52bcc40ac0220289c6caec6bbc24d518d71ba7bfcfff03aaa3cb5817bf9c8f5a420a82be0ae73012103983e8842d67832229fa26584830239a329585986acb662db43b0712fed99dfd9feffffffb2c01a6f5ca3daf42c811113515ae35bffa7b39ce28a601e20082e5d80e80875060000006b4830450221009102a977fa0c9180b53df6d9b5834f83616d251ed8c69d2a487bbbe2e675226202206558ffbb4cfa6ff157064f8c1df3d95f72c52a942cd5edec563064eb59f5d2c4012103e60cc4da159329911fa78d934879b9a1a1e62b9464eed5e11f2877b71394d2e3feffffff02d6bf221b000000001976a914e8cea30989bd15530f819b766684b00dc7ba7cfa88acab550d00000000001976a914ae69f3c84d866196a803d0238f9b7bbcca2337c388ac15490800", "vin": [{"sequence": 4294967294, "scriptSig": {"hex": "483045022100b430185ca0f946b3a8bbaa462ba747bf4a4b3275777c83cacf01721b9473a87b02200c189a0d6fb1cf6a07eaa274a88bcbdeee632e98e09f7b72ed4f709adf1a6f6901210396dbfa954354ccbe9743b7be10bf4f85c48a7ced7f779f6970077bf177d62815", "asm": "3045022100b430185ca0f946b3a8bbaa462ba747bf4a4b3275777c83cacf01721b9473a87b02200c189a0d6fb1cf6a07eaa274a88bcbdeee632e98e09f7b72ed4f709adf1a6f69[ALL] 0396dbfa954354ccbe9743b7be10bf4f85c48a7ced7f779f6970077bf177d62815"}, "vout": 3, "txid": "2658a616bfd2346d570b653e08779b67c47bb2858e268cc1f705e5be1a118c14"}, {"sequence": 4294967294, "scriptSig": {"hex": "483045022100c66286340cf72116ad3ebb80ee2f95caaf9a428c4e24d9544edafba114fa1a1002207830a84bfa658936638023db3c2ca086471c96e1cde2ed39f6e2e5150158946301210272caafdac2299fa854ad8138a2ba9ff672da30a8ad00975d985e00796c75f7a3", "asm": "3045022100c66286340cf72116ad3ebb80ee2f95caaf9a428c4e24d9544edafba114fa1a1002207830a84bfa658936638023db3c2ca086471c96e1cde2ed39f6e2e51501589463[ALL] 0272caafdac2299fa854ad8138a2ba9ff672da30a8ad00975d985e00796c75f7a3"}, "vout": 1, "txid": "737c36b9dd724aca19d06ca6a15b1d19f9f0bf8af06717fa1e7340af87616231"}, {"sequence": 4294967294, "scriptSig": {"hex": "483045022100a5d4d75adb2a0c2e7b21f0ef7123f2161306ce7a8a90c48148dfd7dd1a97dad802201d48e09a5bdab76696183f16f77d1f0168b4395b716cd98640f439b122794efc0121036274a6e66d30b0e9e4b1c34cbd88c86ea6db1441bee27a54ee6992b13a915c34", "asm": "3045022100a5d4d75adb2a0c2e7b21f0ef7123f2161306ce7a8a90c48148dfd7dd1a97dad802201d48e09a5bdab76696183f16f77d1f0168b4395b716cd98640f439b122794efc[ALL] 036274a6e66d30b0e9e4b1c34cbd88c86ea6db1441bee27a54ee6992b13a915c34"}, "vout": 0, "txid": "896903f74e3daf29a2bcdb5ee030378c65a30eb9a406f6a9f12fd3b440e3b355"}, {"sequence": 4294967294, "scriptSig": {"hex": "483045022100e626bc7ab633abaa8f56a56edda215926a165a16165d99778444ff69a715a3e702203c6c769c4a6a17ce73417fc38d959f2b13a0bc88c0d738f067148458f8c65c780121036ac96e8ca6a1c37b7cf7971290b25e608c829312379e43d3f98867b20abd2cdf", "asm": "3045022100e626bc7ab633abaa8f56a56edda215926a165a16165d99778444ff69a715a3e702203c6c769c4a6a17ce73417fc38d959f2b13a0bc88c0d738f067148458f8c65c78[ALL] 036ac96e8ca6a1c37b7cf7971290b25e608c829312379e43d3f98867b20abd2cdf"}, "vout": 7, "txid": "00e9bc7b5d92f6257bc3f2f73c4c64124153706102dfb5c26a4d8077c263007a"}, {"sequence": 4294967294, "scriptSig": {"hex": "47304402205800224f39a53791a563022493fa505955fd6eed6c8737081ece8a4ba903e60e02205a471cb8fc3d309c4b412f0e732cc1c6cd3ee458cd9ee0ca02556ee8a04bfdc00121038b8f0247b4f4766e6ea52b9f74b9f83c70c9c3bf65116731ea517018b17e0c1a", "asm": "304402205800224f39a53791a563022493fa505955fd6eed6c8737081ece8a4ba903e60e02205a471cb8fc3d309c4b412f0e732cc1c6cd3ee458cd9ee0ca02556ee8a04bfdc0[ALL] 038b8f0247b4f4766e6ea52b9f74b9f83c70c9c3bf65116731ea517018b17e0c1a"}, "vout": 589, "txid": "9eee41b707808302feb1689b63e943b94b17fb568fa454cb81532f027e3f807f"}, {"sequence": 4294967294, "scriptSig": {"hex": "483045022100f151a9eca14a0d26780ffeb38eaa029cba6a03525308eb8a3299c6177c64bb1702203c57e8392ad2cbef750b09b6c64add49b2b9a73d2e66b3d76aa534e7fa56150701210266682112efbce036d528bf3dda8225ae591cc25300ec4a7231367b7f7b3c4fec", "asm": "3045022100f151a9eca14a0d26780ffeb38eaa029cba6a03525308eb8a3299c6177c64bb1702203c57e8392ad2cbef750b09b6c64add49b2b9a73d2e66b3d76aa534e7fa561507[ALL] 0266682112efbce036d528bf3dda8225ae591cc25300ec4a7231367b7f7b3c4fec"}, "vout": 1, "txid": "6b3e64bbe9711bfc917ca868da5ab661dcfff72a7d8a1004255e3156e89f6c80"}, {"sequence": 4294967294, "scriptSig": {"hex": "483045022100abf9d375f009a55815c4c77f81440058d501405ee19483c7602a1df52bcc40ac0220289c6caec6bbc24d518d71ba7bfcfff03aaa3cb5817bf9c8f5a420a82be0ae73012103983e8842d67832229fa26584830239a329585986acb662db43b0712fed99dfd9", "asm": "3045022100abf9d375f009a55815c4c77f81440058d501405ee19483c7602a1df52bcc40ac0220289c6caec6bbc24d518d71ba7bfcfff03aaa3cb5817bf9c8f5a420a82be0ae73[ALL] 03983e8842d67832229fa26584830239a329585986acb662db43b0712fed99dfd9"}, "vout": 0, "txid": "b39a0021dcf79f83455bd1128b4fff2299ecf4ffd98712d0fb96aafca6a9b4b1"}, {"sequence": 4294967294, "scriptSig": {"hex": "4830450221009102a977fa0c9180b53df6d9b5834f83616d251ed8c69d2a487bbbe2e675226202206558ffbb4cfa6ff157064f8c1df3d95f72c52a942cd5edec563064eb59f5d2c4012103e60cc4da159329911fa78d934879b9a1a1e62b9464eed5e11f2877b71394d2e3", "asm": "30450221009102a977fa0c9180b53df6d9b5834f83616d251ed8c69d2a487bbbe2e675226202206558ffbb4cfa6ff157064f8c1df3d95f72c52a942cd5edec563064eb59f5d2c4[ALL] 03e60cc4da159329911fa78d934879b9a1a1e62b9464eed5e11f2877b71394d2e3"}, "vout": 6, "txid": "7508e8805d2e08201e608ae29cb3a7ff5be35a511311812cf4daa35c6f1ac0b2"}], "txid": "ea33d89ccbe476adfc5ae745d14e4332f9d43b293ed6d798c63400ec3edd38dc", "blocktime": 1537874412, "version": 2, "confirmations": 11466, "time": 1537874412, "locktime": 542997, "vsize": 1261, "size": 1261}