{"hash": "ea37c939549b58087d3687f42bef099650c61fdace6056502aa1c18d8001abc1", "blockhash": "0000000000000000001f76057863aec43deb6fa401d9628bb513d65a8098bfab", "vout": [{"scriptPubKey": {"reqSigs": 1, "hex": "76a914f7dc6eba54ecb51e1664c5ee7e7e6f1f2e0b557988ac", "addresses": ["1PbZyJZoB2hjosfeUEi4VRGLSjDN5u4Ghg"], "asm": "OP_DUP OP_HASH160 f7dc6eba54ecb51e1664c5ee7e7e6f1f2e0b5579 OP_EQUALVERIFY OP_CHECKSIG", "type": "pubkeyhash"}, "value": 0.07817852, "n": 0}, {"scriptPubKey": {"reqSigs": 1, "hex": "76a91482e51328100570a9b4d7657eb8424730174b338888ac", "addresses": ["1Cw7GLVumZq4rULGmPtq2MvGxBYKnwtpjM"], "asm": "OP_DUP OP_HASH160 82e51328100570a9b4d7657eb8424730174b3388 OP_EQUALVERIFY OP_CHECKSIG", "type": "pubkeyhash"}, "value": 4.31523337, "n": 1}], "hex": "01000000013b923afdb87759cebf01c33b8b9657921ef92341f1e6435bd13db61f14f52b21010000006a47304402207539c3c6d9d1098e7bbd0a8a2029d286b917236b770d39d8fbbc0c78f954815f022046bbb997800d41245586126e21e92a380c597de5dd7cfbb9c9a08d95dab1e231012103aed8ccd569cec7733bf115c28d17b74f56762af586edc93e59494e414ef877e1ffffffff027c4a7700000000001976a914f7dc6eba54ecb51e1664c5ee7e7e6f1f2e0b557988ac0986b819000000001976a91482e51328100570a9b4d7657eb8424730174b338888ac00000000", "vin": [{"sequence": 4294967295, "scriptSig": {"hex": "47304402207539c3c6d9d1098e7bbd0a8a2029d286b917236b770d39d8fbbc0c78f954815f022046bbb997800d41245586126e21e92a380c597de5dd7cfbb9c9a08d95dab1e231012103aed8ccd569cec7733bf115c28d17b74f56762af586edc93e59494e414ef877e1", "asm": "304402207539c3c6d9d1098e7bbd0a8a2029d286b917236b770d39d8fbbc0c78f954815f022046bbb997800d41245586126e21e92a380c597de5dd7cfbb9c9a08d95dab1e231[ALL] 03aed8ccd569cec7733bf115c28d17b74f56762af586edc93e59494e414ef877e1"}, "vout": 1, "txid": "212bf5141fb63dd15b43e6f14123f91e9257968b3bc301bfce5977b8fd3a923b"}], "txid": "ea37c939549b58087d3687f42bef099650c61fdace6056502aa1c18d8001abc1", "blocktime": 1537873891, "version": 1, "confirmations": 11478, "time": 1537873891, "locktime": 0, "vsize": 225, "size": 225}