{"hash": "4093d583447e5ddf47d3c44315c473220d8da14543a1df30ad1ccb82da009db8", "blockhash": "0000000000000000001cda96e906b7601b7a6fb1a3b62bca570a9e5d8f4b3de1", "vout": [{"scriptPubKey": {"reqSigs": 1, "hex": "a914c2f859e053450632ecdbc9f47f96e60c1601957287", "addresses": ["3KTvXVdFJaHbgq4EDpx2jYTDfSVKT4sxs3"], "asm": "OP_HASH160 c2f859e053450632ecdbc9f47f96e60c16019572 OP_EQUAL", "type": "scripthash"}, "value": 0.0699414, "n": 0}, {"scriptPubKey": {"reqSigs": 1, "hex": "a91487efedb389ff5cc271bfe928c3d2c5b59b3624b887", "addresses": ["3E5nZy2N8hSqsZ96pFWfVCbwuBwZkYJfNu"], "asm": "OP_HASH160 87efedb389ff5cc271bfe928c3d2c5b59b3624b8 OP_EQUAL", "type": "scripthash"}, "value": 0.01162179, "n": 1}], "hex": "02000000000104078074e926f02bc7cbe08d2292278c9ef91e97e6bb4a243dcffe9ea881664b3c100000001716001468589ccf4ded9d67e598c1b75a8c7861c687ddebfeffffff31ad09d775ea723d9772f46a1bba3ecb1ca0892a9e695008e9e234564f5d7a920000000017160014e2cc91bc66660fb1d00d29ab3297d7ab5153be56feffffff78396a66d3a57034da58fa84cf0c3e1b78e7ecac4c5c0caf55c6d7de7bf85e31000000001716001400ba0ae371cf6cac58d9350ea25bebd2fbacdb6ffeffffffd49bfd418a97b58d1b61162f317ce286842727f92f145b160f82d02721c5ac7f0000000017160014197090ffbd5be0351a3b8e2f2c874fb8c07e8ce1feffffff02dcb86a000000000017a914c2f859e053450632ecdbc9f47f96e60c1601957287c3bb11000000000017a91487efedb389ff5cc271bfe928c3d2c5b59b3624b88702483045022100b5bcb77f0a1c911f21df8539b8c24ff761dc6d12629d93454c1cdb4c56dee2b802203126c276e19ea57eeda7bae7d63a5eaf1df27f21ae6e2b050c731dd8bb45187101210278626bf29a961c3d2213da9bb5c1516ec24a5217e188c74b5d60161bbb4a6c980247304402206da96f2b460b2afd0269b8fc30c4ad23d6ebea42416f1e1fee2641061494914902202af11fdcb4376c1282b039f4e62f596a49db4eb8d4b5b8f45b0a184537d5e13201210293be1e6672d4770a84becb0fab55a96cd4ac166718ef48253733aa24539e8fcd02483045022100bd658c3f2daa7bc2c3708a17659a542707d49004ee6037762892ffd5ddcc6fd302200aeee5e3716dc5155d40edb13fa421df936c738d71df75ba19ea2316f91a39800121026e44dfa67720fa3ab2bb33a6ed62ef7267278ee66c8c80566b7950b076e6bc4502473044022041e7f047f40ca359c0300fd72e6f478da2402018e83d45b627c11b140c6d996002207d3d190cfe4074ee39b4d14be7ff8d3313e7869857301c6a5b0f844df70199670121029c502e8551f98821c442cc0fb88fd890204f0f968201c55c9e9a9738305debe912490800", "vin": [{"txinwitness": ["3045022100b5bcb77f0a1c911f21df8539b8c24ff761dc6d12629d93454c1cdb4c56dee2b802203126c276e19ea57eeda7bae7d63a5eaf1df27f21ae6e2b050c731dd8bb45187101", "0278626bf29a961c3d2213da9bb5c1516ec24a5217e188c74b5d60161bbb4a6c98"], "sequence": 4294967294, "scriptSig": {"hex": "16001468589ccf4ded9d67e598c1b75a8c7861c687ddeb", "asm": "001468589ccf4ded9d67e598c1b75a8c7861c687ddeb"}, "vout": 16, "txid": "3c4b6681a89efecf3d244abbe6971ef99e8c2792228de0cbc72bf026e9748007"}, {"txinwitness": ["304402206da96f2b460b2afd0269b8fc30c4ad23d6ebea42416f1e1fee2641061494914902202af11fdcb4376c1282b039f4e62f596a49db4eb8d4b5b8f45b0a184537d5e13201", "0293be1e6672d4770a84becb0fab55a96cd4ac166718ef48253733aa24539e8fcd"], "sequence": 4294967294, "scriptSig": {"hex": "160014e2cc91bc66660fb1d00d29ab3297d7ab5153be56", "asm": "0014e2cc91bc66660fb1d00d29ab3297d7ab5153be56"}, "vout": 0, "txid": "927a5d4f5634e2e90850699e2a89a01ccb3eba1b6af472973d72ea75d709ad31"}, {"txinwitness": ["3045022100bd658c3f2daa7bc2c3708a17659a542707d49004ee6037762892ffd5ddcc6fd302200aeee5e3716dc5155d40edb13fa421df936c738d71df75ba19ea2316f91a398001", "026e44dfa67720fa3ab2bb33a6ed62ef7267278ee66c8c80566b7950b076e6bc45"], "sequence": 4294967294, "scriptSig": {"hex": "16001400ba0ae371cf6cac58d9350ea25bebd2fbacdb6f", "asm": "001400ba0ae371cf6cac58d9350ea25bebd2fbacdb6f"}, "vout": 0, "txid": "315ef87bded7c655af0c5c4cacece7781b3e0ccf84fa58da3470a5d3666a3978"}, {"txinwitness": ["3044022041e7f047f40ca359c0300fd72e6f478da2402018e83d45b627c11b140c6d996002207d3d190cfe4074ee39b4d14be7ff8d3313e7869857301c6a5b0f844df701996701", "029c502e8551f98821c442cc0fb88fd890204f0f968201c55c9e9a9738305debe9"], "sequence": 4294967294, "scriptSig": {"hex": "160014197090ffbd5be0351a3b8e2f2c874fb8c07e8ce1", "asm": "0014197090ffbd5be0351a3b8e2f2c874fb8c07e8ce1"}, "vout": 0, "txid": "7facc52127d0820f165b142ff927278486e27c312f16611b8db5978a41fd9bd4"}], "txid": "ea3b85ec39fc85762a3cc1d2f5edd216ec11f6037a533266216086721b54e008", "blocktime": 1537873282, "version": 2, "confirmations": 11485, "time": 1537873282, "locktime": 542994, "vsize": 438, "size": 762}