{"hash": "ea3c796a93f6dfd88d9e37a1634d607ec257be84ffca4f91f599ba0a823cbdd1", "blockhash": "0000000000000000000e13cef7c366c0283d82e591d1acd082e914b08063cdf1", "vout": [{"scriptPubKey": {"type": "nulldata", "hex": "6a146f6d6e69000000000000001f000006d23ad5f800", "asm": "OP_RETURN 6f6d6e69000000000000001f000006d23ad5f800"}, "value": 0.0, "n": 0}, {"scriptPubKey": {"reqSigs": 1, "hex": "76a9144af8ea583bc8b22147f3f9b2b061d1c2a0f2adcb88ac", "addresses": ["17qRC9CC6NZzQPuKT6geVQD4edypaimUFJ"], "asm": "OP_DUP OP_HASH160 4af8ea583bc8b22147f3f9b2b061d1c2a0f2adcb OP_EQUALVERIFY OP_CHECKSIG", "type": "pubkeyhash"}, "value": 5.46e-06, "n": 1}, {"scriptPubKey": {"reqSigs": 1, "hex": "76a91458f32143a95cd11ee5f37e5d1dff6f9fbafa660b88ac", "addresses": ["197Kir2psnjrTFwx8R9cUnmVCUFeUgCNxS"], "asm": "OP_DUP OP_HASH160 58f32143a95cd11ee5f37e5d1dff6f9fbafa660b OP_EQUALVERIFY OP_CHECKSIG", "type": "pubkeyhash"}, "value": 0.91698268, "n": 2}], "hex": "01000000010f34b94239fbeb92e04230d5d33a199a96c009c3cd3c872edb1779fd5348ef3c020000006a47304402206f24a19470c536950a0ffdd31c2997d93fabd5eb16869efaa0d3549c8e642964022045d978be75dfb60c110437e967e25dd2096f73b8db19e4b6fae63f87c6c3d4ab01210251e12972b557d5dbac73bfd2470adeac64ac46202389f0ef2db7231f645a0aeafeffffff030000000000000000166a146f6d6e69000000000000001f000006d23ad5f80022020000000000001976a9144af8ea583bc8b22147f3f9b2b061d1c2a0f2adcb88ac5c347705000000001976a91458f32143a95cd11ee5f37e5d1dff6f9fbafa660b88ac10490800", "vin": [{"sequence": 4294967294, "scriptSig": {"hex": "47304402206f24a19470c536950a0ffdd31c2997d93fabd5eb16869efaa0d3549c8e642964022045d978be75dfb60c110437e967e25dd2096f73b8db19e4b6fae63f87c6c3d4ab01210251e12972b557d5dbac73bfd2470adeac64ac46202389f0ef2db7231f645a0aea", "asm": "304402206f24a19470c536950a0ffdd31c2997d93fabd5eb16869efaa0d3549c8e642964022045d978be75dfb60c110437e967e25dd2096f73b8db19e4b6fae63f87c6c3d4ab[ALL] 0251e12972b557d5dbac73bfd2470adeac64ac46202389f0ef2db7231f645a0aea"}, "vout": 2, "txid": "3cef4853fd7917db2e873ccdc309c0969a193ad3d53042e092ebfb3942b9340f"}], "txid": "ea3c796a93f6dfd88d9e37a1634d607ec257be84ffca4f91f599ba0a823cbdd1", "blocktime": 1537871767, "version": 1, "confirmations": 11493, "time": 1537871767, "locktime": 542992, "vsize": 256, "size": 256}