{"hash": "58a13da9851cd04b1a76c9ec522ab667db3059f24fa102df672e24520676510f", "blockhash": "00000000000000000017f5eb5941039fbcee6240d03bc1f2f8e35350df66a1d8", "vout": [{"scriptPubKey": {"reqSigs": 1, "hex": "76a9148fd242b807efd2abf23c29eb2bc733f072b1f36a88ac", "addresses": ["1E7TWbZDhZQJoPsqie9DEesSspc3wV2Gwz"], "asm": "OP_DUP OP_HASH160 8fd242b807efd2abf23c29eb2bc733f072b1f36a OP_EQUALVERIFY OP_CHECKSIG", "type": "pubkeyhash"}, "value": 0.00782843, "n": 0}, {"scriptPubKey": {"reqSigs": 1, "hex": "a914de55b07683c5f9869d63fed482b8348450aff8ba87", "addresses": ["3MxcavkocZp3ZRy942W6dRkF22SCeXgTWg"], "asm": "OP_HASH160 de55b07683c5f9869d63fed482b8348450aff8ba OP_EQUAL", "type": "scripthash"}, "value": 0.09624919, "n": 1}], "hex": "02000000000101d1908294ba263ca0449d2add7ca8e861d22acb32025fe309ca19f98bfe314f9601000000171600141a0ad9c5ccaf644e5851876a9facf92c9c4b1fe9ffffffff02fbf10b00000000001976a9148fd242b807efd2abf23c29eb2bc733f072b1f36a88ac57dd92000000000017a914de55b07683c5f9869d63fed482b8348450aff8ba870247304402205f1a48f94d21c7a49e7a13056de3e11fafa84924578e7df13e2b64588c14515402206ca253533ec3aba1843b05b44a22d68289f01391c30eb86f50faef180b84a53c0121039ed4a7c11fe752f1e53cdd4d30609a76793c8c4ffb95eb0fd5fd9d4fc1ae0a7400000000", "vin": [{"txinwitness": ["304402205f1a48f94d21c7a49e7a13056de3e11fafa84924578e7df13e2b64588c14515402206ca253533ec3aba1843b05b44a22d68289f01391c30eb86f50faef180b84a53c01", "039ed4a7c11fe752f1e53cdd4d30609a76793c8c4ffb95eb0fd5fd9d4fc1ae0a74"], "sequence": 4294967295, "scriptSig": {"hex": "1600141a0ad9c5ccaf644e5851876a9facf92c9c4b1fe9", "asm": "00141a0ad9c5ccaf644e5851876a9facf92c9c4b1fe9"}, "vout": 1, "txid": "964f31fe8bf919ca09e35f0232cb2ad261e8a87cdd2a9d44a03c26ba948290d1"}], "txid": "ea3c09d0727b900c1844c812abbe1da74be06ef0e3dd87b5f0d25455772e862d", "blocktime": 1537874412, "version": 2, "confirmations": 11467, "time": 1537874412, "locktime": 0, "vsize": 168, "size": 249}