{"hash": "ea3d79af9b7d868c665032a0a6e7fb2d18718b301147dab433c81532007489bf", "blockhash": "00000000000000000017f5eb5941039fbcee6240d03bc1f2f8e35350df66a1d8", "vout": [{"scriptPubKey": {"reqSigs": 1, "hex": "a9143baa0d6be43346a79357f93eaa4145ef4d97f6d387", "addresses": ["378VWK2KNpXbFWanQvH7MwTjku348741gH"], "asm": "OP_HASH160 3baa0d6be43346a79357f93eaa4145ef4d97f6d3 OP_EQUAL", "type": "scripthash"}, "value": 0.0025246, "n": 0}, {"scriptPubKey": {"reqSigs": 1, "hex": "76a91436ab5d75c926ea83c97d1835b7383c007b48620288ac", "addresses": ["15z4n1mXTQXAzY2km9bdJZ6xvzHfbnxmis"], "asm": "OP_DUP OP_HASH160 36ab5d75c926ea83c97d1835b7383c007b486202 OP_EQUALVERIFY OP_CHECKSIG", "type": "pubkeyhash"}, "value": 0.00653854, "n": 1}], "hex": "01000000011db8645a65de0926771a4c444607b282c4465f342c954f0b79864b98e365d268010000006b483045022100cd72923163fca7ba1bd13b2b436f553439bde2be49c0db8b6077df3208b7b7b702205531fb38546bd0a3a806192da63f4c3a90bcc890020ab941ff90735b0dd401da0121027a2638df3f9a40c43dbe07a40f596f34dd06ae283c892cbe39c00d243b8fc34cffffffff022cda03000000000017a9143baa0d6be43346a79357f93eaa4145ef4d97f6d3871efa0900000000001976a91436ab5d75c926ea83c97d1835b7383c007b48620288ac00000000", "vin": [{"sequence": 4294967295, "scriptSig": {"hex": "483045022100cd72923163fca7ba1bd13b2b436f553439bde2be49c0db8b6077df3208b7b7b702205531fb38546bd0a3a806192da63f4c3a90bcc890020ab941ff90735b0dd401da0121027a2638df3f9a40c43dbe07a40f596f34dd06ae283c892cbe39c00d243b8fc34c", "asm": "3045022100cd72923163fca7ba1bd13b2b436f553439bde2be49c0db8b6077df3208b7b7b702205531fb38546bd0a3a806192da63f4c3a90bcc890020ab941ff90735b0dd401da[ALL] 027a2638df3f9a40c43dbe07a40f596f34dd06ae283c892cbe39c00d243b8fc34c"}, "vout": 1, "txid": "68d265e3984b86790b4f952c345f46c482b20746444c1a772609de655a64b81d"}], "txid": "ea3d79af9b7d868c665032a0a6e7fb2d18718b301147dab433c81532007489bf", "blocktime": 1537874412, "version": 1, "confirmations": 11468, "time": 1537874412, "locktime": 0, "vsize": 224, "size": 224}