{"hash": "ea3f41fbaf5495cf209cd64b140daa6964cad88df34606174e14787e113c8166", "blockhash": "0000000000000000001f76057863aec43deb6fa401d9628bb513d65a8098bfab", "vout": [{"scriptPubKey": {"reqSigs": 1, "hex": "76a914cff5fb750bc48054d02902548ea80e9c040dd15a88ac", "addresses": ["1KxbYrdBbHaSSVtJozW36sP7DdAtGLL68y"], "asm": "OP_DUP OP_HASH160 cff5fb750bc48054d02902548ea80e9c040dd15a OP_EQUALVERIFY OP_CHECKSIG", "type": "pubkeyhash"}, "value": 0.0364519, "n": 0}, {"scriptPubKey": {"type": "nulldata", "hex": "6a146f6d6e69000000000000001f00000008278967a3", "asm": "OP_RETURN 6f6d6e69000000000000001f00000008278967a3"}, "value": 0.0, "n": 1}, {"scriptPubKey": {"reqSigs": 1, "hex": "76a9142570bc6450971881da6794e13a6f04c42e1cfab488ac", "addresses": ["14Qy48J78C2RQbH1zSUfBsGJPYnrhLTyrs"], "asm": "OP_DUP OP_HASH160 2570bc6450971881da6794e13a6f04c42e1cfab4 OP_EQUALVERIFY OP_CHECKSIG", "type": "pubkeyhash"}, "value": 5.46e-06, "n": 2}], "hex": "0100000001fdbfe17e03084c4516c8911ee42d62cbad2e8289b03a71f7a0fa20c5735868cf000000006b483045022100af9218e12d4ddb379c0b42f7f59e4115226dc48f6e922b60230d6353a596b8c0022005705d6f083eea955acad251115c6a85c8e6ca8853880e48d5c54b98077f67860121034c9ee28259d5e83fc3b92adc9f2d784bb204330205de629c33336451f91808faffffffff03069f3700000000001976a914cff5fb750bc48054d02902548ea80e9c040dd15a88ac0000000000000000166a146f6d6e69000000000000001f00000008278967a322020000000000001976a9142570bc6450971881da6794e13a6f04c42e1cfab488ac00000000", "vin": [{"sequence": 4294967295, "scriptSig": {"hex": "483045022100af9218e12d4ddb379c0b42f7f59e4115226dc48f6e922b60230d6353a596b8c0022005705d6f083eea955acad251115c6a85c8e6ca8853880e48d5c54b98077f67860121034c9ee28259d5e83fc3b92adc9f2d784bb204330205de629c33336451f91808fa", "asm": "3045022100af9218e12d4ddb379c0b42f7f59e4115226dc48f6e922b60230d6353a596b8c0022005705d6f083eea955acad251115c6a85c8e6ca8853880e48d5c54b98077f6786[ALL] 034c9ee28259d5e83fc3b92adc9f2d784bb204330205de629c33336451f91808fa"}, "vout": 0, "txid": "cf685873c520faa0f7713ab089822eadcb622de41e91c816454c08037ee1bffd"}], "txid": "ea3f41fbaf5495cf209cd64b140daa6964cad88df34606174e14787e113c8166", "blocktime": 1537873891, "version": 1, "confirmations": 11474, "time": 1537873891, "locktime": 0, "vsize": 257, "size": 257}