{"hash": "ea3f66435ba8e59a5b6f241325b1b5e8cb88f26d6148ea321717f9d85d985661", "blockhash": "0000000000000000001cda96e906b7601b7a6fb1a3b62bca570a9e5d8f4b3de1", "vout": [{"scriptPubKey": {"reqSigs": 1, "hex": "a914820476842dd29c62c3a4aa2084b7dba15a7547ea87", "addresses": ["3DYV7aCYvnmdf1y1QXBM4DK3LmFjHSDNmW"], "asm": "OP_HASH160 820476842dd29c62c3a4aa2084b7dba15a7547ea OP_EQUAL", "type": "scripthash"}, "value": 0.00312277, "n": 0}], "hex": "0100000002819ba892a599a8c3f4536a9e1c4ce7f536b40ae10382430c6499b202a182fdbf000000006a47304402204f6e36e82893047b4acd8e376f355c6b2efa73a94f32452254a337de12c3f21102204e99016da8200176feeaaef8578897c69385ad8635b4ab7c225f11fe214516d5012102a2b2f34f9b2dc97051fcf38a1f29919cf131a3907a9e1a962f21a81704b4c671ffffffffea1ad9a46e95673b120686319409ed75354c116858fcb15dfedfcc75b3013df2000000006a473044022054efa7f9c178f20cb5e4c58ca0b27e572b662851881efba078128d988af79521022068a74514e7523a834d49d15fc8b74c9d8b0c8a900e3084a5c58c5f1065d9ba56012103733f00b9e50d3ced1f08aa6b04ed80416344d93e4bde6e9094b20a7db70e3866ffffffff01d5c304000000000017a914820476842dd29c62c3a4aa2084b7dba15a7547ea8700000000", "vin": [{"sequence": 4294967295, "scriptSig": {"hex": "47304402204f6e36e82893047b4acd8e376f355c6b2efa73a94f32452254a337de12c3f21102204e99016da8200176feeaaef8578897c69385ad8635b4ab7c225f11fe214516d5012102a2b2f34f9b2dc97051fcf38a1f29919cf131a3907a9e1a962f21a81704b4c671", "asm": "304402204f6e36e82893047b4acd8e376f355c6b2efa73a94f32452254a337de12c3f21102204e99016da8200176feeaaef8578897c69385ad8635b4ab7c225f11fe214516d5[ALL] 02a2b2f34f9b2dc97051fcf38a1f29919cf131a3907a9e1a962f21a81704b4c671"}, "vout": 0, "txid": "bffd82a102b299640c438203e10ab436f5e74c1c9e6a53f4c3a899a592a89b81"}, {"sequence": 4294967295, "scriptSig": {"hex": "473044022054efa7f9c178f20cb5e4c58ca0b27e572b662851881efba078128d988af79521022068a74514e7523a834d49d15fc8b74c9d8b0c8a900e3084a5c58c5f1065d9ba56012103733f00b9e50d3ced1f08aa6b04ed80416344d93e4bde6e9094b20a7db70e3866", "asm": "3044022054efa7f9c178f20cb5e4c58ca0b27e572b662851881efba078128d988af79521022068a74514e7523a834d49d15fc8b74c9d8b0c8a900e3084a5c58c5f1065d9ba56[ALL] 03733f00b9e50d3ced1f08aa6b04ed80416344d93e4bde6e9094b20a7db70e3866"}, "vout": 0, "txid": "f23d01b375ccdffe5db1fc5868114c3575ed0994318606123b67956ea4d91aea"}], "txid": "ea3f66435ba8e59a5b6f241325b1b5e8cb88f26d6148ea321717f9d85d985661", "blocktime": 1537873282, "version": 1, "confirmations": 11484, "time": 1537873282, "locktime": 0, "vsize": 336, "size": 336}