{"hash": "ea42ca5ea1eab67db2fd52387926b4d123870db312c568f4db257c1286ad5eec", "blockhash": "0000000000000000001e0dab787dd257d1dbfcb92a98c2207d5e1078be1f4165", "vout": [{"scriptPubKey": {"reqSigs": 1, "hex": "76a914a10bc1d02b2fb3c062c6efabd84fd6634267b36388ac", "addresses": ["1FgXsnJhA93Bpxkv4DR5XMUaCmfDimaZPB"], "asm": "OP_DUP OP_HASH160 a10bc1d02b2fb3c062c6efabd84fd6634267b363 OP_EQUALVERIFY OP_CHECKSIG", "type": "pubkeyhash"}, "value": 0.02070146, "n": 0}, {"scriptPubKey": {"reqSigs": 1, "hex": "76a9147431f19193ea784d3b2951200be716b4f7fc9e6a88ac", "addresses": ["1BbPDPzXESs6Fbajka1GwBMisR2QXn9FvB"], "asm": "OP_DUP OP_HASH160 7431f19193ea784d3b2951200be716b4f7fc9e6a OP_EQUALVERIFY OP_CHECKSIG", "type": "pubkeyhash"}, "value": 0.04588053, "n": 1}], "hex": "01000000018c64e44bb15f7f98dd62bfe29e273cc94b5e9257305138b3c6a7811f72d6abc4000000006a473044022021da7d5c1868da0e4c7d262854e640c5e8716d670b4358af06833dc0e1c5f78f02201f5c588e9d71a6b07ba24616c615ada3142cc1ef0a1faa8e51cc30f913913dbf012102b6884a6879c97563b432fa5f07fb96dcc9b4d867da4270f397d25f109fbc3753ffffffff0282961f00000000001976a914a10bc1d02b2fb3c062c6efabd84fd6634267b36388ac15024600000000001976a9147431f19193ea784d3b2951200be716b4f7fc9e6a88ac00000000", "vin": [{"sequence": 4294967295, "scriptSig": {"hex": "473044022021da7d5c1868da0e4c7d262854e640c5e8716d670b4358af06833dc0e1c5f78f02201f5c588e9d71a6b07ba24616c615ada3142cc1ef0a1faa8e51cc30f913913dbf012102b6884a6879c97563b432fa5f07fb96dcc9b4d867da4270f397d25f109fbc3753", "asm": "3044022021da7d5c1868da0e4c7d262854e640c5e8716d670b4358af06833dc0e1c5f78f02201f5c588e9d71a6b07ba24616c615ada3142cc1ef0a1faa8e51cc30f913913dbf[ALL] 02b6884a6879c97563b432fa5f07fb96dcc9b4d867da4270f397d25f109fbc3753"}, "vout": 0, "txid": "c4abd6721f81a7c6b338513057925e4bc93c279ee2bf62dd987f5fb14be4648c"}], "txid": "ea42ca5ea1eab67db2fd52387926b4d123870db312c568f4db257c1286ad5eec", "blocktime": 1537872475, "version": 1, "confirmations": 11487, "time": 1537872475, "locktime": 0, "vsize": 225, "size": 225}