{"hash": "a3412bbb9e65250271aa6caae534fade280c95cd9ef4e3f69220e5e5e2012256", "blockhash": "0000000000000000001f0ddff1eddb255c1121bcd4da4f1bc9a0da00cae72433", "vout": [{"scriptPubKey": {"reqSigs": 1, "hex": "a914d774b7614ba468659501a900392d5c4b1d8253df87", "addresses": ["3MLF2NzSGhnG7Rpfbut5kihKdzPtKoZmaf"], "asm": "OP_HASH160 d774b7614ba468659501a900392d5c4b1d8253df OP_EQUAL", "type": "scripthash"}, "value": 0.00999082, "n": 0}, {"scriptPubKey": {"reqSigs": 1, "hex": "76a9144abbbd86f9fad303c748f950a6e764ee0d5ed14788ac", "addresses": ["17p9ud8ptNLe6Ty9vR871buVSPvCU3VztU"], "asm": "OP_DUP OP_HASH160 4abbbd86f9fad303c748f950a6e764ee0d5ed147 OP_EQUALVERIFY OP_CHECKSIG", "type": "pubkeyhash"}, "value": 0.039882, "n": 1}], "hex": "020000000001034744e326d5cbb64ec1fef366e0da3ccdea0d21bfa87d917e2c17772fec5762394d0000001716001400f66bd78a38ee6524d88f319bc6c212a25cb5eefeffffff4744e326d5cbb64ec1fef366e0da3ccdea0d21bfa87d917e2c17772fec5762394f00000017160014d6bab79ac98b30e9c3b90a62d5e3a08d930fdcacfeffffffb7ad33cc3ba552348136d3154dd19d51a8c7bd3390da380e3cafd1fa797b73855e0800006b483045022100cfb4bd4035bbe7a3cda0e948c2d8cb03f315373c8813ab293535dd91783699190220619d91fc8d08aba9117cc638fefaa340c1a0b5708130204a503a67482e6811f3012102619b3a20a0ba6536458043a74ef13a5bb45bbd8e72590e8cc1c4ffe99f3e09bbfeffffff02aa3e0f000000000017a914d774b7614ba468659501a900392d5c4b1d8253df87e8da3c00000000001976a9144abbbd86f9fad303c748f950a6e764ee0d5ed14788ac0248304502210097a3af4c20f53a0bada458ba3c901b2297c739e30f8ef37bc4eef4cf51f816f60220080e53d3a9d9e1c1057942365d2dfc1abbb5675036ad1fcb905a8c246d3b1528012102432097f756a62b7ae1f751cc9c9d12c1c13b77a2f851cf3b54b40941bdc90b5b024730440220077a3566585531cd28025ae59c1542a5900d60a100abe9a1fcb1d5b3d60f5df9022010e37b913e28e8e092261f516460c1df0fb7b48d0d2fdc99c2ce7bf7201ab5cc01210399063d483ebf6390b3814978643b01a7a7b1f11ef9050285ad542cd88fea17b80011490800", "vin": [{"txinwitness": ["304502210097a3af4c20f53a0bada458ba3c901b2297c739e30f8ef37bc4eef4cf51f816f60220080e53d3a9d9e1c1057942365d2dfc1abbb5675036ad1fcb905a8c246d3b152801", "02432097f756a62b7ae1f751cc9c9d12c1c13b77a2f851cf3b54b40941bdc90b5b"], "sequence": 4294967294, "scriptSig": {"hex": "16001400f66bd78a38ee6524d88f319bc6c212a25cb5ee", "asm": "001400f66bd78a38ee6524d88f319bc6c212a25cb5ee"}, "vout": 77, "txid": "396257ec2f77172c7e917da8bf210deacd3cdae066f3fec14eb6cbd526e34447"}, {"txinwitness": ["30440220077a3566585531cd28025ae59c1542a5900d60a100abe9a1fcb1d5b3d60f5df9022010e37b913e28e8e092261f516460c1df0fb7b48d0d2fdc99c2ce7bf7201ab5cc01", "0399063d483ebf6390b3814978643b01a7a7b1f11ef9050285ad542cd88fea17b8"], "sequence": 4294967294, "scriptSig": {"hex": "160014d6bab79ac98b30e9c3b90a62d5e3a08d930fdcac", "asm": "0014d6bab79ac98b30e9c3b90a62d5e3a08d930fdcac"}, "vout": 79, "txid": "396257ec2f77172c7e917da8bf210deacd3cdae066f3fec14eb6cbd526e34447"}, {"sequence": 4294967294, "scriptSig": {"hex": "483045022100cfb4bd4035bbe7a3cda0e948c2d8cb03f315373c8813ab293535dd91783699190220619d91fc8d08aba9117cc638fefaa340c1a0b5708130204a503a67482e6811f3012102619b3a20a0ba6536458043a74ef13a5bb45bbd8e72590e8cc1c4ffe99f3e09bb", "asm": "3045022100cfb4bd4035bbe7a3cda0e948c2d8cb03f315373c8813ab293535dd91783699190220619d91fc8d08aba9117cc638fefaa340c1a0b5708130204a503a67482e6811f3[ALL] 02619b3a20a0ba6536458043a74ef13a5bb45bbd8e72590e8cc1c4ffe99f3e09bb"}, "vout": 2142, "txid": "85737b79fad1af3c0e38da9033bdc7a8519dd14d15d336813452a53bcc33adb7"}], "txid": "ea48fe7d2efb48cf253cda190bf21a5b74063faec1bf517bde3fa9136e06f613", "blocktime": 1537872018, "version": 2, "confirmations": 11489, "time": 1537872018, "locktime": 542993, "vsize": 407, "size": 570}