{"hash": "ea4b2cf9aebbf0e099c2a7868ab2703460cad9de35be05184d43336e4fc7ecb0", "blockhash": "0000000000000000001f76057863aec43deb6fa401d9628bb513d65a8098bfab", "vout": [{"scriptPubKey": {"reqSigs": 1, "hex": "76a9143a11b16ba56203fa3261c351cc98c149ca76778e88ac", "addresses": ["16J3PTixB1t5vYPv32sVUnGi84wqa4VmEy"], "asm": "OP_DUP OP_HASH160 3a11b16ba56203fa3261c351cc98c149ca76778e OP_EQUALVERIFY OP_CHECKSIG", "type": "pubkeyhash"}, "value": 0.00636761, "n": 0}, {"scriptPubKey": {"type": "nulldata", "hex": "6a4c50000077db0001a7a87563874182cc956141857af8e8e963c7cfd5b95b23cc0f42c2fc38c55223f8946ef7c6e26582f8f0d13053bd5baa15c906130cdae951bca81d100759d4ba30d2c37bb011d97e02cf", "asm": "OP_RETURN 000077db0001a7a87563874182cc956141857af8e8e963c7cfd5b95b23cc0f42c2fc38c55223f8946ef7c6e26582f8f0d13053bd5baa15c906130cdae951bca81d100759d4ba30d2c37bb011d97e02cf"}, "value": 0.0, "n": 1}], "hex": "0100000001dc24f73d6ef956bd1cfda6ad9c516d7002fb864b08c8c7ea63ee1a668e1b23bb010000006a47304402210095b4d41a054d6761778a64063151005686021b163b32670ef267607bd2525cd6021f4a60db945b2a1678d491b15ab521574d0a6c13465c9e36f8dbd886d6d543020121036bcf272bde3220cc940bc01640e52b381d0c80e352e545a6d5601673106138d5ffffffff0259b70900000000001976a9143a11b16ba56203fa3261c351cc98c149ca76778e88ac0000000000000000536a4c50000077db0001a7a87563874182cc956141857af8e8e963c7cfd5b95b23cc0f42c2fc38c55223f8946ef7c6e26582f8f0d13053bd5baa15c906130cdae951bca81d100759d4ba30d2c37bb011d97e02cf00000000", "vin": [{"sequence": 4294967295, "scriptSig": {"hex": "47304402210095b4d41a054d6761778a64063151005686021b163b32670ef267607bd2525cd6021f4a60db945b2a1678d491b15ab521574d0a6c13465c9e36f8dbd886d6d543020121036bcf272bde3220cc940bc01640e52b381d0c80e352e545a6d5601673106138d5", "asm": "304402210095b4d41a054d6761778a64063151005686021b163b32670ef267607bd2525cd6021f4a60db945b2a1678d491b15ab521574d0a6c13465c9e36f8dbd886d6d54302[ALL] 036bcf272bde3220cc940bc01640e52b381d0c80e352e545a6d5601673106138d5"}, "vout": 1, "txid": "bb231b8e661aee63eac7c8084b86fb02706d519cada6fd1cbd56f96e3df724dc"}], "txid": "ea4b2cf9aebbf0e099c2a7868ab2703460cad9de35be05184d43336e4fc7ecb0", "blocktime": 1537873891, "version": 1, "confirmations": 11478, "time": 1537873891, "locktime": 0, "vsize": 283, "size": 283}