{"hash": "4de6e74bfcc2ee3097a55de74c65ea4152ad11e39ef4144e83c25c2fdf88db74", "blockhash": "00000000000000000017f5eb5941039fbcee6240d03bc1f2f8e35350df66a1d8", "vout": [{"scriptPubKey": {"reqSigs": 1, "hex": "a91478f9f8f8443faf206f38fef817041be635887ccb87", "addresses": ["3CigTxdBvPtZfTqbHFqpDFmMXTqSsyrXzH"], "asm": "OP_HASH160 78f9f8f8443faf206f38fef817041be635887ccb OP_EQUAL", "type": "scripthash"}, "value": 0.15645363, "n": 0}, {"scriptPubKey": {"reqSigs": 1, "hex": "0014b106487c6b3af74ffd6410cf3db5d65915be962b", "addresses": ["bc1qkyryslrt8tm5lltyzr8nmdwkty2ma93tr840ty"], "asm": "0 b106487c6b3af74ffd6410cf3db5d65915be962b", "type": "witness_v0_keyhash"}, "value": 0.37943252, "n": 1}], "hex": "01000000000101778e215ff76ef73c4b5922a85a73ee74193da28c7a7be9d8a36bbcb70b1059080100000000ffffffff02b3baee000000000017a91478f9f8f8443faf206f38fef817041be635887ccb87d4f7420200000000160014b106487c6b3af74ffd6410cf3db5d65915be962b02483045022100f3fe5d9f55f4781adcee8e17c55d708b4af49f98258e7dc0d48bbbe8465750590220088767ef7e4a5a163dd3e5747acfe7628a71f030f96403135572f5d4a42dfc66012103683095316b4e380053ecdfb1e6eb76bd0f0f837022c6685a3780a5a9b41ca41100000000", "vin": [{"txinwitness": ["3045022100f3fe5d9f55f4781adcee8e17c55d708b4af49f98258e7dc0d48bbbe8465750590220088767ef7e4a5a163dd3e5747acfe7628a71f030f96403135572f5d4a42dfc6601", "03683095316b4e380053ecdfb1e6eb76bd0f0f837022c6685a3780a5a9b41ca411"], "sequence": 4294967295, "scriptSig": {"hex": "", "asm": ""}, "vout": 1, "txid": "0859100bb7bc6ba3d8e97b7a8ca23d1974ee735aa822594b3cf76ef75f218e77"}], "txid": "ea4eea7161375d8bd498ef0dd5f5268017b52e89bacc20975cec26e4cedf1128", "blocktime": 1537874412, "version": 1, "confirmations": 11467, "time": 1537874412, "locktime": 0, "vsize": 142, "size": 224}