{"hash": "e2c3c144004305c0a54b266ee93304a66949de50afe1f828b3e3f785897a1edb", "blockhash": "00000000000000000018f53835495a110e01622372bf6ae95dc86f2b0ab887b0", "vout": [{"scriptPubKey": {"reqSigs": 1, "hex": "a914043f555f2305fd5553798a004cd7f957639eb35d87", "addresses": ["325UVoGnxrCDcZDzCJHJnkWdZAptiKhQCV"], "asm": "OP_HASH160 043f555f2305fd5553798a004cd7f957639eb35d OP_EQUAL", "type": "scripthash"}, "value": 0.053092, "n": 0}, {"scriptPubKey": {"reqSigs": 1, "hex": "a9142e0ae6ab1dc66b98a8c6556965a84b2ec8f8b2ff87", "addresses": ["35tU4nYdw1Q9Z3eMunoGWiFrgW9tXUWmTx"], "asm": "OP_HASH160 2e0ae6ab1dc66b98a8c6556965a84b2ec8f8b2ff OP_EQUAL", "type": "scripthash"}, "value": 0.00998714, "n": 1}], "hex": "020000000001015e5f815a721bc17527f8ec4c4024e403d1ddcb019db3b70ea1ed894f17a460ac0000000017160014aeb63cf9a319c88b1cc666496af7861bb020b8c9feffffff02100351000000000017a914043f555f2305fd5553798a004cd7f957639eb35d873a3d0f000000000017a9142e0ae6ab1dc66b98a8c6556965a84b2ec8f8b2ff870247304402206b5efde63f91e61825e86038c16316d4148e8297eb44ce6b0f0a4d2a84f30d2a022069b35d9afd2b75eeeeec3a92d3b99ca3f819c909a00764f37100a3727371d97a0121032a15757bd1908974be2b37e903c55493c2efb8cd3a00a7eaa85707e6d39923660e490800", "vin": [{"txinwitness": ["304402206b5efde63f91e61825e86038c16316d4148e8297eb44ce6b0f0a4d2a84f30d2a022069b35d9afd2b75eeeeec3a92d3b99ca3f819c909a00764f37100a3727371d97a01", "032a15757bd1908974be2b37e903c55493c2efb8cd3a00a7eaa85707e6d3992366"], "sequence": 4294967294, "scriptSig": {"hex": "160014aeb63cf9a319c88b1cc666496af7861bb020b8c9", "asm": "0014aeb63cf9a319c88b1cc666496af7861bb020b8c9"}, "vout": 0, "txid": "ac60a4174f89eda10eb7b39d01cbddd103e424404cecf82775c11b725a815f5e"}], "txid": "ea58afc5b367dda67619cc694641e984546e1a4dba7fd9495752245f8ff6ec87", "blocktime": 1537870928, "version": 2, "confirmations": 11512, "time": 1537870928, "locktime": 542990, "vsize": 166, "size": 247}