{"hash": "285595f42a8050543ab5767241bdd637784ad19b373c98da031f733bf0d4912a", "blockhash": "0000000000000000001f0ddff1eddb255c1121bcd4da4f1bc9a0da00cae72433", "vout": [{"scriptPubKey": {"reqSigs": 1, "hex": "76a914240ef5dd38847a9f89d03c2815d3a1f5a399343388ac", "addresses": ["14HfFNePZkzfSnjbXuY681vzy5ansbZM3z"], "asm": "OP_DUP OP_HASH160 240ef5dd38847a9f89d03c2815d3a1f5a3993433 OP_EQUALVERIFY OP_CHECKSIG", "type": "pubkeyhash"}, "value": 0.03433668, "n": 0}, {"scriptPubKey": {"reqSigs": 1, "hex": "0014800bd8b6e64db00d8d96f4015b4cfaf4d7290473", "addresses": ["bc1qsq9a3dhxfkcqmrvk7sq4kn867ntjjprnwp2ux3"], "asm": "0 800bd8b6e64db00d8d96f4015b4cfaf4d7290473", "type": "witness_v0_keyhash"}, "value": 0.00871344, "n": 1}], "hex": "01000000000101c98414220d0cce075b0ea9b1f17e999b2fd5e0175cfeb0cee94124ed5e29dff90000000017160014d9fe587b343c9c4a3c2cd94dea883e5575403026ffffffff02c4643400000000001976a914240ef5dd38847a9f89d03c2815d3a1f5a399343388acb04b0d0000000000160014800bd8b6e64db00d8d96f4015b4cfaf4d729047302483045022100c1d3f552685bf206769226bf00deeceedeeccc693b98f549ac8a2f88de49dad302203224e501a5010a5c829695adb96ddcc0fee2a77157fd15515585e7ee40337ca60121035a01e532f55bef9d7850dc18adeeab9cc2553825366f858e7a521b78d8ad358a00000000", "vin": [{"txinwitness": ["3045022100c1d3f552685bf206769226bf00deeceedeeccc693b98f549ac8a2f88de49dad302203224e501a5010a5c829695adb96ddcc0fee2a77157fd15515585e7ee40337ca601", "035a01e532f55bef9d7850dc18adeeab9cc2553825366f858e7a521b78d8ad358a"], "sequence": 4294967295, "scriptSig": {"hex": "160014d9fe587b343c9c4a3c2cd94dea883e5575403026", "asm": "0014d9fe587b343c9c4a3c2cd94dea883e5575403026"}, "vout": 0, "txid": "f9df295eed2441e9ceb0fe5c17e0d52f9b997ef1b1a90e5b07ce0c0d221484c9"}], "txid": "ea5f398403e269252f5b7edfeded50881e1291b09a2538b7c0052b6da99a14e7", "blocktime": 1537872018, "version": 1, "confirmations": 11489, "time": 1537872018, "locktime": 0, "vsize": 167, "size": 249}