{"hash": "ea5f672af8f7d7435b42ed961bbcdde0c72dd1009e83b285768c833e3528ece3", "blockhash": "0000000000000000001f76057863aec43deb6fa401d9628bb513d65a8098bfab", "vout": [{"scriptPubKey": {"reqSigs": 1, "hex": "76a914face2d842315badd25c2d0bcaa52b62efdc7cf4c88ac", "addresses": ["1Ps8vSeHWf1Pd7svSwnic9MqFVdekQApH5"], "asm": "OP_DUP OP_HASH160 face2d842315badd25c2d0bcaa52b62efdc7cf4c OP_EQUALVERIFY OP_CHECKSIG", "type": "pubkeyhash"}, "value": 0.00432886, "n": 0}], "hex": "01000000056631076d197aa7fc6f176be5ce55ef07d5e90b0c469a1d83e198de3808453dd20b0000006b483045022100c1bb135f5c428bf828067cf0bcd42d71dd932f9baeac8770c8d0b00ce6bff8410220359b2dc3fcd48cb3556c76c29cd9bf6c5304aad70869dbd7d405f57a59cace7a01210392d7302a9e99a1321330eefdf2c9792268bd8dfdc6494be15088edb5349e4ca1ffffffffff21f261895c23fc915c7de9bb7b4bc2fb90ea1fbe1afdf7c38faf8750cd33ec120000006a473044022067f09725d9f11052f7a7f384500d908a2e967d24306eebae9098652842b406cb02207dd983c84f3942abb6c70c177d36db2e9a967fb4a4b5abd733513eca7bcf5785012102ffdca06cd15a4663b4eed135f8ff37b64760fc7c3941c06c4f9834d0d59013ccffffffff3f0a405083eae3e78783777499c8b049868ae71ad0da56b5e1d657fdff340777060000006a47304402207c209696236f482431ec8958637c859db9254ff59c3fe16f7d167225738eaf3402204457b215719e2f8738e479b058ac531414050fc28f01bafb374e5e8de667bb1d012103242159f494b200efa93772fca07fa14050bcca360349a863d1bc0520768c2bbeffffffff3a3964882fb47094b95c3a1e4f78d4ec2d2037bb110ca41cd58c02c00f863a220b0000006b483045022100b78142c4d53feb7040ba869ba0ffc84f043bdc194e13b001b3ff68756ea90c01022029c6eb2b8d59953766d4fc0b4e0d50d6b646b2e3e8e17e2b2369c88baf6b8157012102d7d70976096a2aa48625191966908beb5a97997232b12825f405f974da9bad22ffffffffcea92dfb8752b291f7caeff66db23f237f3c62e62cd81f510b0ff199d623b8da060000006b483045022100aabec83a49e05c3ae27c0f1ae66146f2833e37ef95312b4862463392605e448a0220052c4615943740c8b17e2ab761f60f7c610ad4b77d95940827e05b4657127d5b012103439c9b7f34a5ee4e50f04e53a99ee681766004869439def7f35664f58800ee4effffffff01f69a0600000000001976a914face2d842315badd25c2d0bcaa52b62efdc7cf4c88ac00000000", "vin": [{"sequence": 4294967295, "scriptSig": {"hex": "483045022100c1bb135f5c428bf828067cf0bcd42d71dd932f9baeac8770c8d0b00ce6bff8410220359b2dc3fcd48cb3556c76c29cd9bf6c5304aad70869dbd7d405f57a59cace7a01210392d7302a9e99a1321330eefdf2c9792268bd8dfdc6494be15088edb5349e4ca1", "asm": "3045022100c1bb135f5c428bf828067cf0bcd42d71dd932f9baeac8770c8d0b00ce6bff8410220359b2dc3fcd48cb3556c76c29cd9bf6c5304aad70869dbd7d405f57a59cace7a[ALL] 0392d7302a9e99a1321330eefdf2c9792268bd8dfdc6494be15088edb5349e4ca1"}, "vout": 11, "txid": "d23d450838de98e1831d9a460c0be9d507ef55cee56b176ffca77a196d073166"}, {"sequence": 4294967295, "scriptSig": {"hex": "473044022067f09725d9f11052f7a7f384500d908a2e967d24306eebae9098652842b406cb02207dd983c84f3942abb6c70c177d36db2e9a967fb4a4b5abd733513eca7bcf5785012102ffdca06cd15a4663b4eed135f8ff37b64760fc7c3941c06c4f9834d0d59013cc", "asm": "3044022067f09725d9f11052f7a7f384500d908a2e967d24306eebae9098652842b406cb02207dd983c84f3942abb6c70c177d36db2e9a967fb4a4b5abd733513eca7bcf5785[ALL] 02ffdca06cd15a4663b4eed135f8ff37b64760fc7c3941c06c4f9834d0d59013cc"}, "vout": 18, "txid": "ec33cd5087af8fc3f7fd1abe1fea90fbc24b7bbbe97d5c91fc235c8961f221ff"}, {"sequence": 4294967295, "scriptSig": {"hex": "47304402207c209696236f482431ec8958637c859db9254ff59c3fe16f7d167225738eaf3402204457b215719e2f8738e479b058ac531414050fc28f01bafb374e5e8de667bb1d012103242159f494b200efa93772fca07fa14050bcca360349a863d1bc0520768c2bbe", "asm": "304402207c209696236f482431ec8958637c859db9254ff59c3fe16f7d167225738eaf3402204457b215719e2f8738e479b058ac531414050fc28f01bafb374e5e8de667bb1d[ALL] 03242159f494b200efa93772fca07fa14050bcca360349a863d1bc0520768c2bbe"}, "vout": 6, "txid": "770734fffd57d6e1b556dad01ae78a8649b0c89974778387e7e3ea8350400a3f"}, {"sequence": 4294967295, "scriptSig": {"hex": "483045022100b78142c4d53feb7040ba869ba0ffc84f043bdc194e13b001b3ff68756ea90c01022029c6eb2b8d59953766d4fc0b4e0d50d6b646b2e3e8e17e2b2369c88baf6b8157012102d7d70976096a2aa48625191966908beb5a97997232b12825f405f974da9bad22", "asm": "3045022100b78142c4d53feb7040ba869ba0ffc84f043bdc194e13b001b3ff68756ea90c01022029c6eb2b8d59953766d4fc0b4e0d50d6b646b2e3e8e17e2b2369c88baf6b8157[ALL] 02d7d70976096a2aa48625191966908beb5a97997232b12825f405f974da9bad22"}, "vout": 11, "txid": "223a860fc0028cd51ca40c11bb37202decd4784f1e3a5cb99470b42f8864393a"}, {"sequence": 4294967295, "scriptSig": {"hex": "483045022100aabec83a49e05c3ae27c0f1ae66146f2833e37ef95312b4862463392605e448a0220052c4615943740c8b17e2ab761f60f7c610ad4b77d95940827e05b4657127d5b012103439c9b7f34a5ee4e50f04e53a99ee681766004869439def7f35664f58800ee4e", "asm": "3045022100aabec83a49e05c3ae27c0f1ae66146f2833e37ef95312b4862463392605e448a0220052c4615943740c8b17e2ab761f60f7c610ad4b77d95940827e05b4657127d5b[ALL] 03439c9b7f34a5ee4e50f04e53a99ee681766004869439def7f35664f58800ee4e"}, "vout": 6, "txid": "dab823d699f10f0b511fd82ce6623c7f233fb26df6efcaf791b25287fb2da9ce"}], "txid": "ea5f672af8f7d7435b42ed961bbcdde0c72dd1009e83b285768c833e3528ece3", "blocktime": 1537873891, "version": 1, "confirmations": 11475, "time": 1537873891, "locktime": 0, "vsize": 782, "size": 782}