{"hash": "ea6686b1faf128eefafd39b95712b8a1c4fa58d47b711550f10ed4c273d040c0", "blockhash": "00000000000000000024a2167bbff67b0be802c0b01cdd79e6331c2be6459f87", "vout": [{"scriptPubKey": {"reqSigs": 1, "hex": "a914d9b9f461e4f7d40d2cce4af13acde44188f6a02d87", "addresses": ["3MYFKXNFSbAavLjn9di1yNcHoJfKfTiPRX"], "asm": "OP_HASH160 d9b9f461e4f7d40d2cce4af13acde44188f6a02d OP_EQUAL", "type": "scripthash"}, "value": 0.01058058, "n": 0}], "hex": "01000000018afb83d44ed8a27f50b517e5fe8fd8def2b0c59c0714d326489943c2859c3429080000006b483045022100cce2d287942e300c6ff125a1b6eae4040965d5b4602309b3fe3a907b218b104202203a2030b745caa481116baa8108e10667a821eca49aa6caa3ec5a3ff0028e1c49012102b96ca194de98ed5989b32beddce78162494b34c75a15b1dcf2e0bdf56c0d9f0fffffffff010a2510000000000017a914d9b9f461e4f7d40d2cce4af13acde44188f6a02d8700000000", "vin": [{"sequence": 4294967295, "scriptSig": {"hex": "483045022100cce2d287942e300c6ff125a1b6eae4040965d5b4602309b3fe3a907b218b104202203a2030b745caa481116baa8108e10667a821eca49aa6caa3ec5a3ff0028e1c49012102b96ca194de98ed5989b32beddce78162494b34c75a15b1dcf2e0bdf56c0d9f0f", "asm": "3045022100cce2d287942e300c6ff125a1b6eae4040965d5b4602309b3fe3a907b218b104202203a2030b745caa481116baa8108e10667a821eca49aa6caa3ec5a3ff0028e1c49[ALL] 02b96ca194de98ed5989b32beddce78162494b34c75a15b1dcf2e0bdf56c0d9f0f"}, "vout": 8, "txid": "29349c85c243994826d314079cc5b0f2ded88ffee517b5507fa2d84ed483fb8a"}], "txid": "ea6686b1faf128eefafd39b95712b8a1c4fa58d47b711550f10ed4c273d040c0", "blocktime": 1537870564, "version": 1, "confirmations": 11515, "time": 1537870564, "locktime": 0, "vsize": 190, "size": 190}