{"hash": "58cd188cf0926e404b1280ef7dd0b7b88a3a50af6a3ea96e0fd1ff51e4147181", "blockhash": "000000000000000000022b45ed06c6f4ccd3cf7fb5ba4856ebd2e58215665228", "vout": [{"scriptPubKey": {"reqSigs": 1, "hex": "76a914337681d2d7565b401e2adbdcb1e5524c55c7f68e88ac", "addresses": ["15h7RoZ5atLksEdsutNRThoTzZWJpSK79s"], "asm": "OP_DUP OP_HASH160 337681d2d7565b401e2adbdcb1e5524c55c7f68e OP_EQUALVERIFY OP_CHECKSIG", "type": "pubkeyhash"}, "value": 0.1059, "n": 0}], "hex": "020000000001042d0025a696800b412593e27ca5d837e67601f1effab187c877fe9878ed97f85e040000001716001411e85da8c5e9354f58195d5ef9a5a6035b4a09dbfdffffff78dfac99d39688389b17dbd4b18f36c6cf0e02212a4af5b4045e4983b009972a00000000171600143a44545ea5c9ad7d78d7a718bdfa4a085d9fe80cfdffffff9a9be0481971d58e4d1768e8ebbe3c8664a11665469f07a679222af686fd627c00000000171600140c7cbceed87ca68da4de86a0d45f46c79026d199fdffffffa103345e6228a08961c66ec540eb6a33c229912982c4b46b68e37606a7020d850000000017160014ee0aaf4998ae6e6bf02fa1aa396e0caa8be2d614fdffffff013097a100000000001976a914337681d2d7565b401e2adbdcb1e5524c55c7f68e88ac02483045022100f4071e571da828714c78a955a22fbea1d922d74fdeca1dab4fec5a11dec270b6022065e282e088c7289963de14eb16794d42d1257788dec0b6d507d33e8bd983e2760121038307ad5bee63803a2de80233555c2e5071597770629a7decd0610b9637f02e250247304402200201fdd6dd2cbecf8c5011382a9af8372594471a43935ea7f2ebe609cd62bd2c022003e1cb8554387e0e8a230ed3d2e44ecf1a81dd8e0d8282e9f11b0f8ace6cb19d01210392d1d6cf1ef1694e33e1cd7ca1fbc8477f729abae69b88a9222a9dec5c015dfb024730440220384ab93cb6cd664788a32c7efeadef3bcca65f554db5c46ca711b797bbac637202200a4e3872d8da063305ff9441e06cb267ee1a9627b669d7d192843cc0810d2f2d0121021acf89a62fe9c1008cbcbc5c5ce04e50c03a34c7639b8c3208b24a830762ba9602473044022055afd6fc9a439d738bd5bb7ff7df6401b6236414fd04c5707ee05ff4b0982a7c02202aa065710578b3fe72e30fa00ed6ba6584a0f0087bda31c4b1404b0ef436e2f601210218fb7d0251a3c6a63314a4b13d740a4d32628adfad5a0acf8dbff987536a9a930b490800", "vin": [{"txinwitness": ["3045022100f4071e571da828714c78a955a22fbea1d922d74fdeca1dab4fec5a11dec270b6022065e282e088c7289963de14eb16794d42d1257788dec0b6d507d33e8bd983e27601", "038307ad5bee63803a2de80233555c2e5071597770629a7decd0610b9637f02e25"], "sequence": 4294967293, "scriptSig": {"hex": "16001411e85da8c5e9354f58195d5ef9a5a6035b4a09db", "asm": "001411e85da8c5e9354f58195d5ef9a5a6035b4a09db"}, "vout": 4, "txid": "5ef897ed7898fe77c887b1faeff10176e637d8a57ce29325410b8096a625002d"}, {"txinwitness": ["304402200201fdd6dd2cbecf8c5011382a9af8372594471a43935ea7f2ebe609cd62bd2c022003e1cb8554387e0e8a230ed3d2e44ecf1a81dd8e0d8282e9f11b0f8ace6cb19d01", "0392d1d6cf1ef1694e33e1cd7ca1fbc8477f729abae69b88a9222a9dec5c015dfb"], "sequence": 4294967293, "scriptSig": {"hex": "1600143a44545ea5c9ad7d78d7a718bdfa4a085d9fe80c", "asm": "00143a44545ea5c9ad7d78d7a718bdfa4a085d9fe80c"}, "vout": 0, "txid": "2a9709b083495e04b4f54a2a21020ecfc6368fb1d4db179b388896d399acdf78"}, {"txinwitness": ["30440220384ab93cb6cd664788a32c7efeadef3bcca65f554db5c46ca711b797bbac637202200a4e3872d8da063305ff9441e06cb267ee1a9627b669d7d192843cc0810d2f2d01", "021acf89a62fe9c1008cbcbc5c5ce04e50c03a34c7639b8c3208b24a830762ba96"], "sequence": 4294967293, "scriptSig": {"hex": "1600140c7cbceed87ca68da4de86a0d45f46c79026d199", "asm": "00140c7cbceed87ca68da4de86a0d45f46c79026d199"}, "vout": 0, "txid": "7c62fd86f62a2279a6079f466516a164863cbeebe868174d8ed5711948e09b9a"}, {"txinwitness": ["3044022055afd6fc9a439d738bd5bb7ff7df6401b6236414fd04c5707ee05ff4b0982a7c02202aa065710578b3fe72e30fa00ed6ba6584a0f0087bda31c4b1404b0ef436e2f601", "0218fb7d0251a3c6a63314a4b13d740a4d32628adfad5a0acf8dbff987536a9a93"], "sequence": 4294967293, "scriptSig": {"hex": "160014ee0aaf4998ae6e6bf02fa1aa396e0caa8be2d614", "asm": "0014ee0aaf4998ae6e6bf02fa1aa396e0caa8be2d614"}, "vout": 0, "txid": "850d02a70676e3686bb4c482299129c2336aeb40c56ec66189a028625e3403a1"}], "txid": "ea6c12123bfba2735f71cbba6b150dae0e155173f93e36f3368db27690ed700e", "blocktime": 1537869901, "version": 2, "confirmations": 11524, "time": 1537869901, "locktime": 542987, "vsize": 408, "size": 731}