{"hash": "7d9b8161f69e4e9d5099baa5e950c5fd3f2556359072dc13617288c5838ea382", "blockhash": "0000000000000000001cda96e906b7601b7a6fb1a3b62bca570a9e5d8f4b3de1", "vout": [{"scriptPubKey": {"reqSigs": 1, "hex": "001486de840d4c9ca200d469765ee8720062321efb5a", "addresses": ["bc1qsm0ggr2vnj3qp4rfwe0wsusqvgepa766w8gdhh"], "asm": "0 86de840d4c9ca200d469765ee8720062321efb5a", "type": "witness_v0_keyhash"}, "value": 5.917e-05, "n": 0}, {"scriptPubKey": {"reqSigs": 1, "hex": "a914ea56c44e8b58fad1e925456b13ef5563a76119a387", "addresses": ["3P45z6ZQkMzUUoRQnGd7kiEnt2G7HDhcuH"], "asm": "OP_HASH160 ea56c44e8b58fad1e925456b13ef5563a76119a3 OP_EQUAL", "type": "scripthash"}, "value": 0.00322018, "n": 1}], "hex": "01000000000101dddc388aed34ddce2af16ea50fe9434739d3d332abe56960ef35f68153b5d2d30100000000ffffffff021d1700000000000016001486de840d4c9ca200d469765ee8720062321efb5ae2e904000000000017a914ea56c44e8b58fad1e925456b13ef5563a76119a3870247304402202d3f362d72197429b68ecf7884b0fad208d4811c9c742b3088cde8c759335a2b02206cea490f134f809bfd6fccc4e60f9ca0a02ddfa9ea9b49dbb6bdfc5037d3446b012103de42ec79d0bb2e64ebe656736c8e458b760ce4601f14e7f1fcd5254f32e7593b00000000", "vin": [{"txinwitness": ["304402202d3f362d72197429b68ecf7884b0fad208d4811c9c742b3088cde8c759335a2b02206cea490f134f809bfd6fccc4e60f9ca0a02ddfa9ea9b49dbb6bdfc5037d3446b01", "03de42ec79d0bb2e64ebe656736c8e458b760ce4601f14e7f1fcd5254f32e7593b"], "sequence": 4294967295, "scriptSig": {"hex": "", "asm": ""}, "vout": 1, "txid": "d3d2b55381f635ef6069e5ab32d3d3394743e90fa56ef12acedd34ed8a38dcdd"}], "txid": "ea706624958b3dc52f7fe22575e4f9a92c3c474f2fc8e40993a6682bcd431bb5", "blocktime": 1537873282, "version": 1, "confirmations": 11484, "time": 1537873282, "locktime": 0, "vsize": 142, "size": 223}