{"hash": "deceab1aa800e1d8416b9cde06bac1d7a035aad59b7b166e49969010ecdd66b3", "blockhash": "0000000000000000001cda96e906b7601b7a6fb1a3b62bca570a9e5d8f4b3de1", "vout": [{"scriptPubKey": {"reqSigs": 1, "hex": "a914b44337f216fcdcf0a5895a72e8c4169a68ef293e87", "addresses": ["3J8A5VuG2KUQmCweiwHBDfv67VqWTciCM2"], "asm": "OP_HASH160 b44337f216fcdcf0a5895a72e8c4169a68ef293e OP_EQUAL", "type": "scripthash"}, "value": 0.01170518, "n": 0}], "hex": "01000000000101f85193ea7437681962790d6773688ad9c199b1c7437437e2a888335effe10deb2200000017160014f35e3644b78b5107d3a2304a934c0d258d589cebffffffff0156dc11000000000017a914b44337f216fcdcf0a5895a72e8c4169a68ef293e8702473044022034f7701821daa04a5f18a6d536d7bafda878f6b8949f1d1b0dbc4b0a7fe136ff022069fe309653b4e3cf6a342ee69580bddf8e34f14f27407581e4a0cc7fa4f5dfc0012103c6eae32d45d5cb2256955c24e7431efde9ace4463752d3d67fe31a1f6e199abe00000000", "vin": [{"txinwitness": ["3044022034f7701821daa04a5f18a6d536d7bafda878f6b8949f1d1b0dbc4b0a7fe136ff022069fe309653b4e3cf6a342ee69580bddf8e34f14f27407581e4a0cc7fa4f5dfc001", "03c6eae32d45d5cb2256955c24e7431efde9ace4463752d3d67fe31a1f6e199abe"], "sequence": 4294967295, "scriptSig": {"hex": "160014f35e3644b78b5107d3a2304a934c0d258d589ceb", "asm": "0014f35e3644b78b5107d3a2304a934c0d258d589ceb"}, "vout": 34, "txid": "eb0de1ff5e3388a8e2377443c7b199c1d98a6873670d796219683774ea9351f8"}], "txid": "ea75c8ea3f3117a8f68731fb6054c7d4410b92f6dd9a2d1cb1fc787cd328de5c", "blocktime": 1537873282, "version": 1, "confirmations": 11484, "time": 1537873282, "locktime": 0, "vsize": 134, "size": 215}