{"hash": "6da893b034e6fcdc9e42fbfb55281a19f4323f81c95bdad6c64d5263059b7d3c", "blockhash": "00000000000000000024a2167bbff67b0be802c0b01cdd79e6331c2be6459f87", "vout": [{"scriptPubKey": {"reqSigs": 1, "hex": "a914bf928cedb5fc68058f5736e075364ca8b4b1b76187", "addresses": ["3K9xYh1zYgN3JFmMHARrJn1xa6wjAE3n4X"], "asm": "OP_HASH160 bf928cedb5fc68058f5736e075364ca8b4b1b761 OP_EQUAL", "type": "scripthash"}, "value": 0.0001683, "n": 0}, {"scriptPubKey": {"reqSigs": 1, "hex": "a914f5342287aaa57f5c05756dbd5ef14091cc70030f87", "addresses": ["3Q3XvwKWsx3ocmCXheK6pAo5ieooFx75hh"], "asm": "OP_HASH160 f5342287aaa57f5c05756dbd5ef14091cc70030f OP_EQUAL", "type": "scripthash"}, "value": 0.14798552, "n": 1}], "hex": "01000000000101053d975d7ef3d47f9c58906876ddf2902195b88fc482311d8cea88f70f2bc38801000000232200204fd7968ffe15cb453352a1e9ee2915eff8b6d6252d5a351f9092b82ca10eb12cffffffff02be4100000000000017a914bf928cedb5fc68058f5736e075364ca8b4b1b76187d8cee1000000000017a914f5342287aaa57f5c05756dbd5ef14091cc70030f870400483045022100dd379534ec5a5fca21a0c487e5ecbaeb008749ec7543732218be3a72e415ef37022025fea2315fc906aa5187090fb4ce419cf59c220dc0122f20a0483a844ba09407014730440220404fc1e461567ee4497bde26c5c5f2e8358dbae24ff9b8c97475bbc96b9c118a02203816d16167ec6b78af49bd8851756552bb6a16f1ed808cc5c23c1ddc274bab3f0147522103b70e79262cbb7310fe069dea7c473b53276b75c67fb841ff66279f152a3fe0172103871fc2ca08e6950b38867e8e6a0e94ee625223d3aa0df5c65f414c6d784467e252ae00000000", "vin": [{"txinwitness": ["", "3045022100dd379534ec5a5fca21a0c487e5ecbaeb008749ec7543732218be3a72e415ef37022025fea2315fc906aa5187090fb4ce419cf59c220dc0122f20a0483a844ba0940701", "30440220404fc1e461567ee4497bde26c5c5f2e8358dbae24ff9b8c97475bbc96b9c118a02203816d16167ec6b78af49bd8851756552bb6a16f1ed808cc5c23c1ddc274bab3f01", "522103b70e79262cbb7310fe069dea7c473b53276b75c67fb841ff66279f152a3fe0172103871fc2ca08e6950b38867e8e6a0e94ee625223d3aa0df5c65f414c6d784467e252ae"], "sequence": 4294967295, "scriptSig": {"hex": "2200204fd7968ffe15cb453352a1e9ee2915eff8b6d6252d5a351f9092b82ca10eb12c", "asm": "00204fd7968ffe15cb453352a1e9ee2915eff8b6d6252d5a351f9092b82ca10eb12c"}, "vout": 1, "txid": "88c32b0ff788ea8c1d3182c48fb8952190f2dd766890589c7fd4f37e5d973d05"}], "txid": "ea7eaf12bac79f3a441b92ffc092647239ad4b773625475421436fee91dfa9f3", "blocktime": 1537870564, "version": 1, "confirmations": 11515, "time": 1537870564, "locktime": 0, "vsize": 206, "size": 371}