{"hash": "4faeed720fe3dce1393c7d8d77266bc8ce033c36ec69eb57be1e1fa30cce043e", "blockhash": "0000000000000000000baef3f32e3676a92c3b2e5da21b426e4f302fc371ce76", "vout": [{"scriptPubKey": {"reqSigs": 1, "hex": "76a9149f5c760951389fd00d6dbcf27dda321014fda87788ac", "addresses": ["1FXdCox5rU4FmQE63H1B8RfxcWk6wYv3mi"], "asm": "OP_DUP OP_HASH160 9f5c760951389fd00d6dbcf27dda321014fda877 OP_EQUALVERIFY OP_CHECKSIG", "type": "pubkeyhash"}, "value": 0.006, "n": 0}, {"scriptPubKey": {"reqSigs": 1, "hex": "a9142d20bc8c0c3f9a9045802b40049debed09ed2e1b87", "addresses": ["35odYkPPD9z4TvkTCKyhsAqVYUjZyb2NJa"], "asm": "OP_HASH160 2d20bc8c0c3f9a9045802b40049debed09ed2e1b OP_EQUAL", "type": "scripthash"}, "value": 0.04399165, "n": 1}], "hex": "01000000000101820286969d18dc6a278df8036a905a2c90689ee844b932ca2a039e525450e6f20100000017160014a69f3b69248f34487fee6ab9cb56c4a50cbcd868ffffffff02c0270900000000001976a9149f5c760951389fd00d6dbcf27dda321014fda87788ac3d2043000000000017a9142d20bc8c0c3f9a9045802b40049debed09ed2e1b870247304402206dae5fb814a530da5e5bd6cd50e9ba66bddaf97b11d50cf37305b9d6eb25a23102206b45f6f061ecacc6152e02a5b76ade4333d9368f6bc36aad3c13cf3fb294b173012102b42f150977148b9b703fcfcaf938beeb4737c2a5c45861dcb419b681f20e26c400000000", "vin": [{"txinwitness": ["304402206dae5fb814a530da5e5bd6cd50e9ba66bddaf97b11d50cf37305b9d6eb25a23102206b45f6f061ecacc6152e02a5b76ade4333d9368f6bc36aad3c13cf3fb294b17301", "02b42f150977148b9b703fcfcaf938beeb4737c2a5c45861dcb419b681f20e26c4"], "sequence": 4294967295, "scriptSig": {"hex": "160014a69f3b69248f34487fee6ab9cb56c4a50cbcd868", "asm": "0014a69f3b69248f34487fee6ab9cb56c4a50cbcd868"}, "vout": 1, "txid": "f2e65054529e032aca32b944e89e68902c5a906a03f88d276adc189d96860282"}], "txid": "ea82b30a5d5772d82fc93df6adf1f534efac75d0bf88b3b5c5b829b452f1e110", "blocktime": 1537876114, "version": 1, "confirmations": 11460, "time": 1537876114, "locktime": 0, "vsize": 168, "size": 249}