{"hash": "6ad501936b00449fb6498488e33509dc08c7975f864692e5e68030df3341a1cc", "blockhash": "0000000000000000000e13cef7c366c0283d82e591d1acd082e914b08063cdf1", "vout": [{"scriptPubKey": {"reqSigs": 1, "hex": "76a914658bc2e4001cfacc64a3e041943e921b3086737588ac", "addresses": ["1AFvgAG4FN8fhtp3ZtSF8hsmKvPTDiB4RV"], "asm": "OP_DUP OP_HASH160 658bc2e4001cfacc64a3e041943e921b30867375 OP_EQUALVERIFY OP_CHECKSIG", "type": "pubkeyhash"}, "value": 3.281e-05, "n": 0}, {"scriptPubKey": {"reqSigs": 1, "hex": "a914e8db75c900cf08f06518e96d167331f2a4abfb3387", "addresses": ["3NvFbQMAkkqEFj4i1sYPPLkSWzxTFUchjA"], "asm": "OP_HASH160 e8db75c900cf08f06518e96d167331f2a4abfb33 OP_EQUAL", "type": "scripthash"}, "value": 0.00127577, "n": 1}], "hex": "0100000000010146086f6d2f55c72f6d19d1f2c3af7c5c15283212cbfacf85c14783f5129746c90100000023220020941cfaff8837763dc1f69ff82b6d6553fdea17a41cfc29a04403293eedd8ccc7ffffffff02d10c0000000000001976a914658bc2e4001cfacc64a3e041943e921b3086737588ac59f201000000000017a914e8db75c900cf08f06518e96d167331f2a4abfb33870400483045022100f5dde5058f14984a3af9e472216fa07f1b0e555b91b4e6a75e0356794ff3292e022021430c0194f0560f188a0f1d3401427b4f8bf63d362c0e4e81e73a954b5ad8c101473044022058c69f6e9e878be6e585f83909bbeeeaca455b57cb93366c99e0ae4bbef7dd2902200abc591504f214d5d8b60a49b3b9145b671719ec0493bde9f491ce7f01cabd750147522102531db3a5883f29bab4241dd0cd726936667bcda445d89bdd22244e828b6993342103148c80a5bdfddb05ff5bcffc397c8ca748d8b435ec6a175bc9d7bfc7fc6f853752ae00000000", "vin": [{"txinwitness": ["", "3045022100f5dde5058f14984a3af9e472216fa07f1b0e555b91b4e6a75e0356794ff3292e022021430c0194f0560f188a0f1d3401427b4f8bf63d362c0e4e81e73a954b5ad8c101", "3044022058c69f6e9e878be6e585f83909bbeeeaca455b57cb93366c99e0ae4bbef7dd2902200abc591504f214d5d8b60a49b3b9145b671719ec0493bde9f491ce7f01cabd7501", "522102531db3a5883f29bab4241dd0cd726936667bcda445d89bdd22244e828b6993342103148c80a5bdfddb05ff5bcffc397c8ca748d8b435ec6a175bc9d7bfc7fc6f853752ae"], "sequence": 4294967295, "scriptSig": {"hex": "220020941cfaff8837763dc1f69ff82b6d6553fdea17a41cfc29a04403293eedd8ccc7", "asm": "0020941cfaff8837763dc1f69ff82b6d6553fdea17a41cfc29a04403293eedd8ccc7"}, "vout": 1, "txid": "c9469712f58347c185cffacb123228155c7cafc3f2d1196d2fc7552f6d6f0846"}], "txid": "ea84261ddf14a8363bf1908381bfb0e4ba35a8a8a05ab41e81cce945b185427b", "blocktime": 1537871767, "version": 1, "confirmations": 11495, "time": 1537871767, "locktime": 0, "vsize": 208, "size": 373}