{"hash": "23f163bbaf6f34cbaab19c0451f0356375b5a498c72269186c4f34709488bc86", "blockhash": "0000000000000000000dcc0f55137456b1a82d3642486a52398922ac4d620174", "vout": [{"scriptPubKey": {"reqSigs": 1, "hex": "a914c437c39b435d46b12125760fb73041ffeb3a63f387", "addresses": ["3KaXAhWb74C1ruDfje57YehAo69ssvX51n"], "asm": "OP_HASH160 c437c39b435d46b12125760fb73041ffeb3a63f3 OP_EQUAL", "type": "scripthash"}, "value": 0.00036225, "n": 0}, {"scriptPubKey": {"reqSigs": 1, "hex": "a9144f0389f5b74f6abb2e018ae307eb17a9eca055d387", "addresses": ["38toYavybbmK1NH1Naxtb2dunRfb7jUZhn"], "asm": "OP_HASH160 4f0389f5b74f6abb2e018ae307eb17a9eca055d3 OP_EQUAL", "type": "scripthash"}, "value": 0.36225907, "n": 1}, {"scriptPubKey": {"reqSigs": 1, "hex": "a914bc7b2a74da607fd368804815f4cf77cc503418a587", "addresses": ["3JscWKZapTNoMyoC2nYa3Lim5csfm5wEne"], "asm": "OP_HASH160 bc7b2a74da607fd368804815f4cf77cc503418a5 OP_EQUAL", "type": "scripthash"}, "value": 0.01878046, "n": 2}], "hex": "01000000000102cab5addbadb10c1d93d1abaacece9d7ad404ed36f933336ede9be6594b94f3ed0100000023220020d647f5c784ca92501ac0645ce6cf2fbc301e62faeeee7e1de06cad8600c88f57ffffffff3c4f59e019290445232bcdec6e9f755263531e93614defc4502cdb6bfb2b0cfc0100000023220020ff7ac593aa9011a13eddd957d8a9087ba46e7b210911422986379bd35554d4b7ffffffff03818d00000000000017a914c437c39b435d46b12125760fb73041ffeb3a63f38773c328020000000017a9144f0389f5b74f6abb2e018ae307eb17a9eca055d3871ea81c000000000017a914bc7b2a74da607fd368804815f4cf77cc503418a5870400483045022100910afc4b974775b23413a03ab488efcb3272d23e1a27f6e8495410054432a47f02206f0039a1a94e31c2a7c821a227ca856dc80061cc47cbb7d378a5937f1711dbe901473044022046266a3e477fc8bf49771acbfc77c9687dc08735c290b2c4b7e681671dff385102200a9a46faa550f252bf1fd7259c1acb9a025aedf02eddf29d628ec1fb75493b1f01695221038f69542f785f7b1d74d25acd8da768ebb236e3d461ce0098dabbf2a916338ec72102423c27328600df64d4891e316153e4684a4811be5e4e0b619c1dc28306ab0eee21034618ef787fd56bee64de88cd0e7a1a849bd64dd683982e356eb0260bb2a669df53ae0400483045022100f1b1e4f660ad6dd1a4c393b4417e6fc8bf1a6fa7a4e2c93be2413e41b48c67b002205149a16b476e70ae6bd8827b967c9551ba5ca148a3c884d889f0a6dd61c2298101483045022100ccbb209daee3fb5635561d83547a4bbda4aac8b7235488af6de7872c1bc013a702203d136ef6ecb5d7b43c4ed1aaa78cc7b8f615b859a76f21130170d7ad155b4d960169522102d5d10fa0a11148b4acac8cdb3847812f0b377f5a3749ebe7a271f84e5c4507a82103390b1d35f972f75281c7f12341cf1ff84fbd4edd0c9c0261c65f9bdd47c2c0532102af7540f7b193185d1e210a5ec51f0f402a24e46b9b8607080a797a40ecfe16db53ae0d490800", "vin": [{"txinwitness": ["", "3045022100910afc4b974775b23413a03ab488efcb3272d23e1a27f6e8495410054432a47f02206f0039a1a94e31c2a7c821a227ca856dc80061cc47cbb7d378a5937f1711dbe901", "3044022046266a3e477fc8bf49771acbfc77c9687dc08735c290b2c4b7e681671dff385102200a9a46faa550f252bf1fd7259c1acb9a025aedf02eddf29d628ec1fb75493b1f01", "5221038f69542f785f7b1d74d25acd8da768ebb236e3d461ce0098dabbf2a916338ec72102423c27328600df64d4891e316153e4684a4811be5e4e0b619c1dc28306ab0eee21034618ef787fd56bee64de88cd0e7a1a849bd64dd683982e356eb0260bb2a669df53ae"], "sequence": 4294967295, "scriptSig": {"hex": "220020d647f5c784ca92501ac0645ce6cf2fbc301e62faeeee7e1de06cad8600c88f57", "asm": "0020d647f5c784ca92501ac0645ce6cf2fbc301e62faeeee7e1de06cad8600c88f57"}, "vout": 1, "txid": "edf3944b59e69bde6e3333f936ed04d47a9dceceaaabd1931d0cb1addbadb5ca"}, {"txinwitness": ["", "3045022100f1b1e4f660ad6dd1a4c393b4417e6fc8bf1a6fa7a4e2c93be2413e41b48c67b002205149a16b476e70ae6bd8827b967c9551ba5ca148a3c884d889f0a6dd61c2298101", "3045022100ccbb209daee3fb5635561d83547a4bbda4aac8b7235488af6de7872c1bc013a702203d136ef6ecb5d7b43c4ed1aaa78cc7b8f615b859a76f21130170d7ad155b4d9601", "522102d5d10fa0a11148b4acac8cdb3847812f0b377f5a3749ebe7a271f84e5c4507a82103390b1d35f972f75281c7f12341cf1ff84fbd4edd0c9c0261c65f9bdd47c2c0532102af7540f7b193185d1e210a5ec51f0f402a24e46b9b8607080a797a40ecfe16db53ae"], "sequence": 4294967295, "scriptSig": {"hex": "220020ff7ac593aa9011a13eddd957d8a9087ba46e7b210911422986379bd35554d4b7", "asm": "0020ff7ac593aa9011a13eddd957d8a9087ba46e7b210911422986379bd35554d4b7"}, "vout": 1, "txid": "fc0c2bfb6bdb2c50c4ef4d61931e536352759f6eeccd2b2345042919e0594f3c"}], "txid": "ea894a8e6bbef3210abd6412e93e73f3c4e01dfb02deeb1abeccb6d3a059b1d3", "blocktime": 1537870268, "version": 1, "confirmations": 11518, "time": 1537870268, "locktime": 542989, "vsize": 386, "size": 767}