{"hash": "ea8c61c5b1be95ae81904500f811499e6fa56e32b9cbe0613f0174b2e673dfc7", "blockhash": "0000000000000000000dcc0f55137456b1a82d3642486a52398922ac4d620174", "vout": [{"scriptPubKey": {"reqSigs": 1, "hex": "76a914885b6b6cfd249a55719a7ff0c75791d5c39a6b5688ac", "addresses": ["1DRzR379g1Vcsh3k8DP3ufKoyuxN3BMAeJ"], "asm": "OP_DUP OP_HASH160 885b6b6cfd249a55719a7ff0c75791d5c39a6b56 OP_EQUALVERIFY OP_CHECKSIG", "type": "pubkeyhash"}, "value": 0.02023362, "n": 0}, {"scriptPubKey": {"reqSigs": 1, "hex": "76a9146d37f4403a89b576633229e729931806f25a209488ac", "addresses": ["1AxVgfo9oZgnz8xBDjQmwS57od8xrdApHs"], "asm": "OP_DUP OP_HASH160 6d37f4403a89b576633229e729931806f25a2094 OP_EQUALVERIFY OP_CHECKSIG", "type": "pubkeyhash"}, "value": 0.031186, "n": 1}], "hex": "01000000010a90b217d846f3a1f4cd858b6e85944239c8ed2c1da6000101f156f5cdfd75eb010000006b483045022100c177c8f6fabac998556fc8ee104b44273e5e055521ce39cd67db48c23a047f3a02207598a2ac03000afcebe34cfa650fe4315b36082a40821cba961f653b8331d47c012103ba202ec85e7abcabb24d127a2c33d700966d7a4404d1040910c386129d7a0284ffffffff02c2df1e00000000001976a914885b6b6cfd249a55719a7ff0c75791d5c39a6b5688ac08962f00000000001976a9146d37f4403a89b576633229e729931806f25a209488ac00000000", "vin": [{"sequence": 4294967295, "scriptSig": {"hex": "483045022100c177c8f6fabac998556fc8ee104b44273e5e055521ce39cd67db48c23a047f3a02207598a2ac03000afcebe34cfa650fe4315b36082a40821cba961f653b8331d47c012103ba202ec85e7abcabb24d127a2c33d700966d7a4404d1040910c386129d7a0284", "asm": "3045022100c177c8f6fabac998556fc8ee104b44273e5e055521ce39cd67db48c23a047f3a02207598a2ac03000afcebe34cfa650fe4315b36082a40821cba961f653b8331d47c[ALL] 03ba202ec85e7abcabb24d127a2c33d700966d7a4404d1040910c386129d7a0284"}, "vout": 1, "txid": "eb75fdcdf556f1010100a61d2cedc8394294856e8b85cdf4a1f346d817b2900a"}], "txid": "ea8c61c5b1be95ae81904500f811499e6fa56e32b9cbe0613f0174b2e673dfc7", "blocktime": 1537870268, "version": 1, "confirmations": 11518, "time": 1537870268, "locktime": 0, "vsize": 226, "size": 226}