{"hash": "ea9032833c5d18eda83a0c7bd09e981508b04087bfd31968c3a9ac56f5c3a8e4", "blockhash": "000000000000000000022b45ed06c6f4ccd3cf7fb5ba4856ebd2e58215665228", "vout": [{"scriptPubKey": {"reqSigs": 1, "hex": "a914a00a46567b692c457a27c23307272ba5c7d7be7d87", "addresses": ["3GHEM92j5RdHqy9LDk1ncEhiWaXfXQ1RZR"], "asm": "OP_HASH160 a00a46567b692c457a27c23307272ba5c7d7be7d OP_EQUAL", "type": "scripthash"}, "value": 0.0031168, "n": 0}, {"scriptPubKey": {"reqSigs": 1, "hex": "76a9149d8616e8ba48ff118a27c4e7de48155d528c0c6d88ac", "addresses": ["1FMuipU2fQFUAbpVHrjUa3rFBJCuQLoZ9n"], "asm": "OP_DUP OP_HASH160 9d8616e8ba48ff118a27c4e7de48155d528c0c6d OP_EQUALVERIFY OP_CHECKSIG", "type": "pubkeyhash"}, "value": 0.00424279, "n": 1}], "hex": "010000000156afc5ffbc5cf44cebad3b9d7d1e1d73374427c48effa1d02ac5943ba9602387000000006a4730440220177378bce348252b862632f7ecabbd7feb4db196e194cf30cd797edd317e174e022011c9c4ca844e72e7b567b5d6f4f37e721065a19ab3c4379820b4dc1a24d48b52012103c80b5aae25e8554a78b2bbacc1008a4f072b5d9ea49e4d582d9952bc435b86e5ffffffff0280c104000000000017a914a00a46567b692c457a27c23307272ba5c7d7be7d8757790600000000001976a9149d8616e8ba48ff118a27c4e7de48155d528c0c6d88ac00000000", "vin": [{"sequence": 4294967295, "scriptSig": {"hex": "4730440220177378bce348252b862632f7ecabbd7feb4db196e194cf30cd797edd317e174e022011c9c4ca844e72e7b567b5d6f4f37e721065a19ab3c4379820b4dc1a24d48b52012103c80b5aae25e8554a78b2bbacc1008a4f072b5d9ea49e4d582d9952bc435b86e5", "asm": "30440220177378bce348252b862632f7ecabbd7feb4db196e194cf30cd797edd317e174e022011c9c4ca844e72e7b567b5d6f4f37e721065a19ab3c4379820b4dc1a24d48b52[ALL] 03c80b5aae25e8554a78b2bbacc1008a4f072b5d9ea49e4d582d9952bc435b86e5"}, "vout": 0, "txid": "872360a93b94c52ad0a1ff8ec4274437731d1e7d9d3badeb4cf45cbcffc5af56"}], "txid": "ea9032833c5d18eda83a0c7bd09e981508b04087bfd31968c3a9ac56f5c3a8e4", "blocktime": 1537869901, "version": 1, "confirmations": 11522, "time": 1537869901, "locktime": 0, "vsize": 223, "size": 223}