{"hash": "ea9c455e7a28c470f52fb10ee8fac56a960cbd68e006760a79fb8f1149278985", "blockhash": "0000000000000000001cda96e906b7601b7a6fb1a3b62bca570a9e5d8f4b3de1", "vout": [{"scriptPubKey": {"reqSigs": 1, "hex": "a914c567df317639b394a94d1cd01d77f4c54426f2fc87", "addresses": ["3KgoUUcZHtozf31E6ZaJyXDSqFsNCKgoBu"], "asm": "OP_HASH160 c567df317639b394a94d1cd01d77f4c54426f2fc OP_EQUAL", "type": "scripthash"}, "value": 0.00446697, "n": 0}], "hex": "010000000125024856db4c1e240a551d0b12e0a034e3d5ac5911839ee203508a5693ccb955000000006b483045022100d7336704909eb470942999647cb035306527186ce1eb0000cbf9c11e4e0d4dd30220385c47ca55c7124b688085faf03b098237bc7d5e2424480a775b27a6f1d8b695012103452ac1498adc15a03cb895c78616b37be3a3b873fc83849d07b12e6844ddc7cfffffffff01e9d006000000000017a914c567df317639b394a94d1cd01d77f4c54426f2fc8700000000", "vin": [{"sequence": 4294967295, "scriptSig": {"hex": "483045022100d7336704909eb470942999647cb035306527186ce1eb0000cbf9c11e4e0d4dd30220385c47ca55c7124b688085faf03b098237bc7d5e2424480a775b27a6f1d8b695012103452ac1498adc15a03cb895c78616b37be3a3b873fc83849d07b12e6844ddc7cf", "asm": "3045022100d7336704909eb470942999647cb035306527186ce1eb0000cbf9c11e4e0d4dd30220385c47ca55c7124b688085faf03b098237bc7d5e2424480a775b27a6f1d8b695[ALL] 03452ac1498adc15a03cb895c78616b37be3a3b873fc83849d07b12e6844ddc7cf"}, "vout": 0, "txid": "55b9cc93568a5003e29e831159acd5e334a0e0120b1d550a241e4cdb56480225"}], "txid": "ea9c455e7a28c470f52fb10ee8fac56a960cbd68e006760a79fb8f1149278985", "blocktime": 1537873282, "version": 1, "confirmations": 11485, "time": 1537873282, "locktime": 0, "vsize": 190, "size": 190}