{"hash": "ea9d0bdd37c37a40b124b8f25173299b65ba0f12e0aad3aa7a0f0f5de654afaf", "blockhash": "0000000000000000001e0dab787dd257d1dbfcb92a98c2207d5e1078be1f4165", "vout": [{"scriptPubKey": {"reqSigs": 1, "hex": "76a914cd83d5088cce3ff1ad775ea3c3c7e136cba3e2c888ac", "addresses": ["1KjfTBhNaBL2bvVicW8tm7B3fPPrjGQga4"], "asm": "OP_DUP OP_HASH160 cd83d5088cce3ff1ad775ea3c3c7e136cba3e2c8 OP_EQUALVERIFY OP_CHECKSIG", "type": "pubkeyhash"}, "value": 0.00312873, "n": 0}, {"scriptPubKey": {"reqSigs": 1, "hex": "a9144db20afeea9a199a39a8d41fbbcc5e5c9ef6f18f87", "addresses": ["38mqExPrsdARYncYqzevwX6fnBvnxzW4vm"], "asm": "OP_HASH160 4db20afeea9a199a39a8d41fbbcc5e5c9ef6f18f OP_EQUAL", "type": "scripthash"}, "value": 0.01825946, "n": 1}], "hex": "01000000013722a741c3d1450fa5921ea8b99b3c0c29f5cb8ce09900ae9e2c46d02700f02210000000fdfd00004830450221008a99ba1843f5bd109b2109d98f2492c96767d3777986676a8b58668bfa65d1ad02206c7b6c6f18c188056687f7b1402ded7c556550c380201a5799c52bc7a48341930147304402201f9c9b5dd2698244b71b40b7046e5bb4403afad92e4f73efdc61a394066b29cf02202dc07de9ad8ce334fe63f92dc5c8316f9b0385885bb6f3d9a0a738d3e7f07904014c69522102872e902f2c78c298d3db380fc9519eb3de310573190929e82d246da8d1fc384221029167f5c46091479da18ed5cba199c796ed7665cddfc0e20ddecd9bbdcd0410562102a34560de8ead89bf5e860912c4b00678e699473eaf765b7ee55d54e977a9a79f53aeffffffff0229c60400000000001976a914cd83d5088cce3ff1ad775ea3c3c7e136cba3e2c888ac9adc1b000000000017a9144db20afeea9a199a39a8d41fbbcc5e5c9ef6f18f8700000000", "vin": [{"sequence": 4294967295, "scriptSig": {"hex": "004830450221008a99ba1843f5bd109b2109d98f2492c96767d3777986676a8b58668bfa65d1ad02206c7b6c6f18c188056687f7b1402ded7c556550c380201a5799c52bc7a48341930147304402201f9c9b5dd2698244b71b40b7046e5bb4403afad92e4f73efdc61a394066b29cf02202dc07de9ad8ce334fe63f92dc5c8316f9b0385885bb6f3d9a0a738d3e7f07904014c69522102872e902f2c78c298d3db380fc9519eb3de310573190929e82d246da8d1fc384221029167f5c46091479da18ed5cba199c796ed7665cddfc0e20ddecd9bbdcd0410562102a34560de8ead89bf5e860912c4b00678e699473eaf765b7ee55d54e977a9a79f53ae", "asm": "0 30450221008a99ba1843f5bd109b2109d98f2492c96767d3777986676a8b58668bfa65d1ad02206c7b6c6f18c188056687f7b1402ded7c556550c380201a5799c52bc7a4834193[ALL] 304402201f9c9b5dd2698244b71b40b7046e5bb4403afad92e4f73efdc61a394066b29cf02202dc07de9ad8ce334fe63f92dc5c8316f9b0385885bb6f3d9a0a738d3e7f07904[ALL] 522102872e902f2c78c298d3db380fc9519eb3de310573190929e82d246da8d1fc384221029167f5c46091479da18ed5cba199c796ed7665cddfc0e20ddecd9bbdcd0410562102a34560de8ead89bf5e860912c4b00678e699473eaf765b7ee55d54e977a9a79f53ae"}, "vout": 16, "txid": "22f00027d0462c9eae0099e08ccbf5290c3c9bb9a81e92a50f45d1c341a72237"}], "txid": "ea9d0bdd37c37a40b124b8f25173299b65ba0f12e0aad3aa7a0f0f5de654afaf", "blocktime": 1537872475, "version": 1, "confirmations": 11486, "time": 1537872475, "locktime": 0, "vsize": 372, "size": 372}