{"hash": "ea9df041a5fb9833f07cbee6428fae5db64759f244f49e62424be01fbc5e3234", "blockhash": "00000000000000000017f5eb5941039fbcee6240d03bc1f2f8e35350df66a1d8", "vout": [{"scriptPubKey": {"reqSigs": 1, "hex": "76a9146f12e9c83e1e08cda6cce38ddaa6fae50725b07388ac", "addresses": ["1B8JfQZLW5fEdaMgD3fD17VboweQrF9pui"], "asm": "OP_DUP OP_HASH160 6f12e9c83e1e08cda6cce38ddaa6fae50725b073 OP_EQUALVERIFY OP_CHECKSIG", "type": "pubkeyhash"}, "value": 0.00298816, "n": 0}, {"scriptPubKey": {"reqSigs": 1, "hex": "a9148017b7d034f7a88f2030cb088beef022e37a359e87", "addresses": ["3DNJq49LVVivT8iszU2GN1dHUcSAj24sz8"], "asm": "OP_HASH160 8017b7d034f7a88f2030cb088beef022e37a359e OP_EQUAL", "type": "scripthash"}, "value": 0.004507, "n": 1}], "hex": "0100000001e85373481dc6d4086febb197e71d9f72928e1477654bb7321f8375390af1d385010000006a4730440220643795c09c627ae35b97ae6505b514628a47977eed1c51e871507c716d00504f022032d8fafc8de893aaaae514f88c638090e0277247cb9e267cd8954c4d862803180121028112dffc34e3c373725c27b1ae02920b077280962af12f28b658574691895af5ffffffff02408f0400000000001976a9146f12e9c83e1e08cda6cce38ddaa6fae50725b07388ac8ce006000000000017a9148017b7d034f7a88f2030cb088beef022e37a359e8700000000", "vin": [{"sequence": 4294967295, "scriptSig": {"hex": "4730440220643795c09c627ae35b97ae6505b514628a47977eed1c51e871507c716d00504f022032d8fafc8de893aaaae514f88c638090e0277247cb9e267cd8954c4d862803180121028112dffc34e3c373725c27b1ae02920b077280962af12f28b658574691895af5", "asm": "30440220643795c09c627ae35b97ae6505b514628a47977eed1c51e871507c716d00504f022032d8fafc8de893aaaae514f88c638090e0277247cb9e267cd8954c4d86280318[ALL] 028112dffc34e3c373725c27b1ae02920b077280962af12f28b658574691895af5"}, "vout": 1, "txid": "85d3f10a3975831f32b74b6577148e92729f1de797b1eb6f08d4c61d487353e8"}], "txid": "ea9df041a5fb9833f07cbee6428fae5db64759f244f49e62424be01fbc5e3234", "blocktime": 1537874412, "version": 1, "confirmations": 11467, "time": 1537874412, "locktime": 0, "vsize": 223, "size": 223}