{"hash": "eaa2ed004d7e1506ac07d00e80d95919b711bb34c213af031e4f2704377ad26b", "blockhash": "0000000000000000000dcc0f55137456b1a82d3642486a52398922ac4d620174", "vout": [{"scriptPubKey": {"reqSigs": 1, "hex": "76a914e8769bf8d32e97d51a01b41023aa91ea740b509d88ac", "addresses": ["1NC9rd1iRX5ChNeSFF5fnKLMY1SYnoH6s8"], "asm": "OP_DUP OP_HASH160 e8769bf8d32e97d51a01b41023aa91ea740b509d OP_EQUALVERIFY OP_CHECKSIG", "type": "pubkeyhash"}, "value": 0.02942202, "n": 0}, {"scriptPubKey": {"reqSigs": 1, "hex": "76a9142ae2dae6e715e4802663848dae11071ac899ff3c88ac", "addresses": ["14um9E2SvLPuFKSARRuyFV37MBqQdgegRs"], "asm": "OP_DUP OP_HASH160 2ae2dae6e715e4802663848dae11071ac899ff3c OP_EQUALVERIFY OP_CHECKSIG", "type": "pubkeyhash"}, "value": 0.1633036, "n": 1}], "hex": "01000000012c94b98532ece025327c97a682c934869eaa6617b3bf96d23bbc694d738a5b1a010000006b483045022100aeb769c2b1bb0e06dfc121257bc8274d3c5e244324b20fefefc6b0edd337bbae022011d81e3dda03ab038bbbb4773723760025bfd3380615ee5493c47115ed39fde80121026f26968fa028705a9dd47a1e17641b3fcc78e60b782f665172767385874c175dffffffff02fae42c00000000001976a914e8769bf8d32e97d51a01b41023aa91ea740b509d88ac782ef900000000001976a9142ae2dae6e715e4802663848dae11071ac899ff3c88ac00000000", "vin": [{"sequence": 4294967295, "scriptSig": {"hex": "483045022100aeb769c2b1bb0e06dfc121257bc8274d3c5e244324b20fefefc6b0edd337bbae022011d81e3dda03ab038bbbb4773723760025bfd3380615ee5493c47115ed39fde80121026f26968fa028705a9dd47a1e17641b3fcc78e60b782f665172767385874c175d", "asm": "3045022100aeb769c2b1bb0e06dfc121257bc8274d3c5e244324b20fefefc6b0edd337bbae022011d81e3dda03ab038bbbb4773723760025bfd3380615ee5493c47115ed39fde8[ALL] 026f26968fa028705a9dd47a1e17641b3fcc78e60b782f665172767385874c175d"}, "vout": 1, "txid": "1a5b8a734d69bc3bd296bfb31766aa9e8634c982a6977c3225e0ec3285b9942c"}], "txid": "eaa2ed004d7e1506ac07d00e80d95919b711bb34c213af031e4f2704377ad26b", "blocktime": 1537870268, "version": 1, "confirmations": 11518, "time": 1537870268, "locktime": 0, "vsize": 226, "size": 226}