{"hash": "eab4f270ad90d948a251a14060d8a0e1c60861a78453157feee194b3b8ab4253", "blockhash": "000000000000000000022b45ed06c6f4ccd3cf7fb5ba4856ebd2e58215665228", "vout": [{"scriptPubKey": {"reqSigs": 1, "hex": "76a914d254114a93d71a4430bcc9142629aaebd4de7ca288ac", "addresses": ["1LB7cQBoHsunqGUiPe57UUP9AVdJPaNQHp"], "asm": "OP_DUP OP_HASH160 d254114a93d71a4430bcc9142629aaebd4de7ca2 OP_EQUALVERIFY OP_CHECKSIG", "type": "pubkeyhash"}, "value": 0.00624564, "n": 0}, {"scriptPubKey": {"reqSigs": 1, "hex": "76a914e882c085f20f860750f92c81d7777830cf7df13888ac", "addresses": ["1NCQQKKnz31xks13KXa854QeMFgcZBygR5"], "asm": "OP_DUP OP_HASH160 e882c085f20f860750f92c81d7777830cf7df138 OP_EQUALVERIFY OP_CHECKSIG", "type": "pubkeyhash"}, "value": 0.04547301, "n": 1}], "hex": "01000000017e16c27be6162810731baf177a8fe1dcb083b9496691f0cfedcd9ff8fc0bfbf8010000006b48304502210093c055f884a9e81450141d29f9b7e5b5b8bd3aedc1420879cb1fb52e8a82d6f302206db1375c0ecb8f0498e88bd1a3381ff10114b6bae86b37a2275f199c7dc09a10012102afe74ee1be4dccb66dbbfce815d4c9a79d581d18666b928ee9328e674e284b88ffffffff02b4870900000000001976a914d254114a93d71a4430bcc9142629aaebd4de7ca288ace5624500000000001976a914e882c085f20f860750f92c81d7777830cf7df13888ac00000000", "vin": [{"sequence": 4294967295, "scriptSig": {"hex": "48304502210093c055f884a9e81450141d29f9b7e5b5b8bd3aedc1420879cb1fb52e8a82d6f302206db1375c0ecb8f0498e88bd1a3381ff10114b6bae86b37a2275f199c7dc09a10012102afe74ee1be4dccb66dbbfce815d4c9a79d581d18666b928ee9328e674e284b88", "asm": "304502210093c055f884a9e81450141d29f9b7e5b5b8bd3aedc1420879cb1fb52e8a82d6f302206db1375c0ecb8f0498e88bd1a3381ff10114b6bae86b37a2275f199c7dc09a10[ALL] 02afe74ee1be4dccb66dbbfce815d4c9a79d581d18666b928ee9328e674e284b88"}, "vout": 1, "txid": "f8fb0bfcf89fcdedcff0916649b983b0dce18f7a17af1b73102816e67bc2167e"}], "txid": "eab4f270ad90d948a251a14060d8a0e1c60861a78453157feee194b3b8ab4253", "blocktime": 1537869901, "version": 1, "confirmations": 11524, "time": 1537869901, "locktime": 0, "vsize": 226, "size": 226}