{"hash": "eabeeaf507b6c0d2ad79c709b7a249f7dbbc174d9e87dce4038731b54d4d0a4a", "blockhash": "0000000000000000001f76057863aec43deb6fa401d9628bb513d65a8098bfab", "vout": [{"scriptPubKey": {"reqSigs": 1, "hex": "a914e21dd0c63c5e3e4f1c7e5fc97598b73dbb432c3e87", "addresses": ["3NJcMWuTuK3opGZK3Z1kGutV9sZmuSZZZQ"], "asm": "OP_HASH160 e21dd0c63c5e3e4f1c7e5fc97598b73dbb432c3e OP_EQUAL", "type": "scripthash"}, "value": 0.00015607, "n": 0}], "hex": "0100000001b40ad664fd9bed79f5ce69f789288feb77b5a156c9a6cfa1ceb70a4d285a7b66000000006a473044022042b4d3a2956c218050ec6c6e64ba9116010879d56904876b23fbeec0a3509c9002203bf40267eb23b99cda3ff399a9cdc7d8e5529c81c4bfb586a92a2b9f37ae039b012102209f4aff855a8b883eb3cf0110837bc574f40249aa934fc928278d2911e54436ffffffff01f73c00000000000017a914e21dd0c63c5e3e4f1c7e5fc97598b73dbb432c3e8700000000", "vin": [{"sequence": 4294967295, "scriptSig": {"hex": "473044022042b4d3a2956c218050ec6c6e64ba9116010879d56904876b23fbeec0a3509c9002203bf40267eb23b99cda3ff399a9cdc7d8e5529c81c4bfb586a92a2b9f37ae039b012102209f4aff855a8b883eb3cf0110837bc574f40249aa934fc928278d2911e54436", "asm": "3044022042b4d3a2956c218050ec6c6e64ba9116010879d56904876b23fbeec0a3509c9002203bf40267eb23b99cda3ff399a9cdc7d8e5529c81c4bfb586a92a2b9f37ae039b[ALL] 02209f4aff855a8b883eb3cf0110837bc574f40249aa934fc928278d2911e54436"}, "vout": 0, "txid": "667b5a284d0ab7cea1cfa6c956a1b577eb8f2889f769cef579ed9bfd64d60ab4"}], "txid": "eabeeaf507b6c0d2ad79c709b7a249f7dbbc174d9e87dce4038731b54d4d0a4a", "blocktime": 1537873891, "version": 1, "confirmations": 11478, "time": 1537873891, "locktime": 0, "vsize": 189, "size": 189}