{"hash": "eac03c87adc0523b3deab24bcf93786609240f7dc446083889d5255139f55040", "blockhash": "0000000000000000001f76057863aec43deb6fa401d9628bb513d65a8098bfab", "vout": [{"scriptPubKey": {"reqSigs": 1, "hex": "a914834723e73a97df074e9290a497697f989e003dd887", "addresses": ["3Df9farhji4S1Z1iZAZfrCtJMR3zjCqDPf"], "asm": "OP_HASH160 834723e73a97df074e9290a497697f989e003dd8 OP_EQUAL", "type": "scripthash"}, "value": 0.03173753, "n": 0}], "hex": "0100000001362ef5b0e2d7aefffa82b3ce353c659cfa1f4a16581c776dc1cb45500cb0b0e5000000006b483045022100837cb33c51ddbe66ef1ae6e8d51140d5841e4ebbbc8c5b91c0db92a67645712a02202e88dd5d1144849247aa5500dbe8b2caf53c2eb3f9d944826806d921e21f51100121020a85d2c1863d4b4944d3ff897e2e4e641e21d3de337a502e84f2b5dcd0a76a12ffffffff01796d30000000000017a914834723e73a97df074e9290a497697f989e003dd88700000000", "vin": [{"sequence": 4294967295, "scriptSig": {"hex": "483045022100837cb33c51ddbe66ef1ae6e8d51140d5841e4ebbbc8c5b91c0db92a67645712a02202e88dd5d1144849247aa5500dbe8b2caf53c2eb3f9d944826806d921e21f51100121020a85d2c1863d4b4944d3ff897e2e4e641e21d3de337a502e84f2b5dcd0a76a12", "asm": "3045022100837cb33c51ddbe66ef1ae6e8d51140d5841e4ebbbc8c5b91c0db92a67645712a02202e88dd5d1144849247aa5500dbe8b2caf53c2eb3f9d944826806d921e21f5110[ALL] 020a85d2c1863d4b4944d3ff897e2e4e641e21d3de337a502e84f2b5dcd0a76a12"}, "vout": 0, "txid": "e5b0b00c5045cbc16d771c58164a1ffa9c653c35ceb382faffaed7e2b0f52e36"}], "txid": "eac03c87adc0523b3deab24bcf93786609240f7dc446083889d5255139f55040", "blocktime": 1537873891, "version": 1, "confirmations": 11478, "time": 1537873891, "locktime": 0, "vsize": 190, "size": 190}