{"hash": "eac18cd9bc751c1c290fde2a9fdd0ce88937e803fb8637573a375d28e242ca51", "blockhash": "0000000000000000000e13cef7c366c0283d82e591d1acd082e914b08063cdf1", "vout": [{"scriptPubKey": {"reqSigs": 1, "hex": "76a9149602065d4a1bb9028a8041a843a9432f4bf7259488ac", "addresses": ["1EgAnTw9HB6QB7HS3VnzeXTxMALb2xV3Vg"], "asm": "OP_DUP OP_HASH160 9602065d4a1bb9028a8041a843a9432f4bf72594 OP_EQUALVERIFY OP_CHECKSIG", "type": "pubkeyhash"}, "value": 0.00027061, "n": 0}], "hex": "0100000001a725f8d223389e4939ea31657e584c21bfeeb0be38a72d0f04845e5b2235568a000000006b483045022100a61cfbd6267140d5f7528371e616bc0e09b1f66577ea9c4b78b099dcb825497a02207f55fb7373ef1eb77ffa8636643be31c040d96bdbfe07eece1e79a89726d293c012102f308d3c91d02eaa6c3c295d965a45675de731f375abf7c92c2d9f2aca89be619ffffffff01b5690000000000001976a9149602065d4a1bb9028a8041a843a9432f4bf7259488ac00000000", "vin": [{"sequence": 4294967295, "scriptSig": {"hex": "483045022100a61cfbd6267140d5f7528371e616bc0e09b1f66577ea9c4b78b099dcb825497a02207f55fb7373ef1eb77ffa8636643be31c040d96bdbfe07eece1e79a89726d293c012102f308d3c91d02eaa6c3c295d965a45675de731f375abf7c92c2d9f2aca89be619", "asm": "3045022100a61cfbd6267140d5f7528371e616bc0e09b1f66577ea9c4b78b099dcb825497a02207f55fb7373ef1eb77ffa8636643be31c040d96bdbfe07eece1e79a89726d293c[ALL] 02f308d3c91d02eaa6c3c295d965a45675de731f375abf7c92c2d9f2aca89be619"}, "vout": 0, "txid": "8a5635225b5e84040f2da738beb0eebf214c587e6531ea39499e3823d2f825a7"}], "txid": "eac18cd9bc751c1c290fde2a9fdd0ce88937e803fb8637573a375d28e242ca51", "blocktime": 1537871767, "version": 1, "confirmations": 11495, "time": 1537871767, "locktime": 0, "vsize": 192, "size": 192}