{"hash": "eac10ec9612b4fc892ca20645bbe3e3271624fe1aea37970c054737c035c350d", "blockhash": "00000000000000000004ffacab907a6b429b9a5745fa0b75af4234bf69dd7176", "vout": [{"scriptPubKey": {"type": "nulldata", "hex": "6a146f6d6e69000000000000001f0000010de694475c", "asm": "OP_RETURN 6f6d6e69000000000000001f0000010de694475c"}, "value": 0.0, "n": 0}, {"scriptPubKey": {"reqSigs": 1, "hex": "76a9142be7527695ff8c27175bef0a5e75249243fe694188ac", "addresses": ["1519Anuep9P21E5M9FxfLoCgSE1AXZcnB3"], "asm": "OP_DUP OP_HASH160 2be7527695ff8c27175bef0a5e75249243fe6941 OP_EQUALVERIFY OP_CHECKSIG", "type": "pubkeyhash"}, "value": 5.46e-06, "n": 1}, {"scriptPubKey": {"reqSigs": 1, "hex": "76a914a25dec4d0011064ef106a983c39c7a540699f22088ac", "addresses": ["1FoWyxwPXuj4C6abqwhjDWdz6D4PZgYRjA"], "asm": "OP_DUP OP_HASH160 a25dec4d0011064ef106a983c39c7a540699f220 OP_EQUALVERIFY OP_CHECKSIG", "type": "pubkeyhash"}, "value": 0.01985596, "n": 2}], "hex": "0100000001219e63ed67f5d3b267ad649c399ddbfc82e372e55fc30d031b9769566ecdb029010000006a473044022070d6abeece78e6dfd6e377129551a8194297bdc40aea6fcdf892cb6bcf174682022058cb7a82f90aa1442c81677d893c2a0f150f7088660d9834a17246f314b00f43012103da5bac7b36d5aa38f531c6b9601e21bb598a4b6716ebed38b009a55dabde9440feffffff030000000000000000166a146f6d6e69000000000000001f0000010de694475c22020000000000001976a9142be7527695ff8c27175bef0a5e75249243fe694188ac3c4c1e00000000001976a914a25dec4d0011064ef106a983c39c7a540699f22088ac16490800", "vin": [{"sequence": 4294967294, "scriptSig": {"hex": "473044022070d6abeece78e6dfd6e377129551a8194297bdc40aea6fcdf892cb6bcf174682022058cb7a82f90aa1442c81677d893c2a0f150f7088660d9834a17246f314b00f43012103da5bac7b36d5aa38f531c6b9601e21bb598a4b6716ebed38b009a55dabde9440", "asm": "3044022070d6abeece78e6dfd6e377129551a8194297bdc40aea6fcdf892cb6bcf174682022058cb7a82f90aa1442c81677d893c2a0f150f7088660d9834a17246f314b00f43[ALL] 03da5bac7b36d5aa38f531c6b9601e21bb598a4b6716ebed38b009a55dabde9440"}, "vout": 1, "txid": "29b0cd6e5669971b030dc35fe572e382fcdb9d399c64ad67b2d3f567ed639e21"}], "txid": "eac10ec9612b4fc892ca20645bbe3e3271624fe1aea37970c054737c035c350d", "blocktime": 1537875543, "version": 1, "confirmations": 11464, "time": 1537875543, "locktime": 542998, "vsize": 256, "size": 256}