{"hash": "eac374fb5e81cab7348e7e994984c956e3d87dd108c036e49ceae3a3b48c1090", "blockhash": "00000000000000000004ffacab907a6b429b9a5745fa0b75af4234bf69dd7176", "vout": [{"scriptPubKey": {"reqSigs": 1, "hex": "a914fd7f0a375d1da483bf815ffa87f4d4c236973d2987", "addresses": ["3QoP4xtLefz14WGefxy2VBKHoUSiaAm9fa"], "asm": "OP_HASH160 fd7f0a375d1da483bf815ffa87f4d4c236973d29 OP_EQUAL", "type": "scripthash"}, "value": 0.01, "n": 0}, {"scriptPubKey": {"reqSigs": 1, "hex": "76a914d6f41af737d03ddac5349a11a31fdfc2bacdd58788ac", "addresses": ["1Lba2ngrdAUJJv5VmLWXGLhswgbN2MNLQL"], "asm": "OP_DUP OP_HASH160 d6f41af737d03ddac5349a11a31fdfc2bacdd587 OP_EQUALVERIFY OP_CHECKSIG", "type": "pubkeyhash"}, "value": 0.00755101, "n": 1}], "hex": "0100000002f19c88dbcfa7f084a80229a7a4de01be07536dc05925aaa43505170e79c163b4010000006b483045022100ba15343648b6a3ead94fc5adb0bf4b6c95d6e152723f1eda7e3e6ab72a4e79270220792d178be233560f913207127b8423b3ad03d1be52ff341fa6cce08474696ed30121031901ca216389ac68ed7443a55c001ac6077d8a03c1a52fde3769cbc305c05befffffffff36d48bab88f3a6ca97b0f79f606ba5721413a0d00c48029918095dc402770b71010000006b483045022100a0e52790c8567b9e30b96501ee1314c4bb6e36820936594da9f624c24a4cb7fc022009e40a2f3ccae0388181795b4c758055a7608444231126524fbeece343fa11f70121022df406fd081dea75a3039aa0d876706e741198eeb5b03cba6cd4c868200b69b5ffffffff0240420f000000000017a914fd7f0a375d1da483bf815ffa87f4d4c236973d29879d850b00000000001976a914d6f41af737d03ddac5349a11a31fdfc2bacdd58788ac00000000", "vin": [{"sequence": 4294967295, "scriptSig": {"hex": "483045022100ba15343648b6a3ead94fc5adb0bf4b6c95d6e152723f1eda7e3e6ab72a4e79270220792d178be233560f913207127b8423b3ad03d1be52ff341fa6cce08474696ed30121031901ca216389ac68ed7443a55c001ac6077d8a03c1a52fde3769cbc305c05bef", "asm": "3045022100ba15343648b6a3ead94fc5adb0bf4b6c95d6e152723f1eda7e3e6ab72a4e79270220792d178be233560f913207127b8423b3ad03d1be52ff341fa6cce08474696ed3[ALL] 031901ca216389ac68ed7443a55c001ac6077d8a03c1a52fde3769cbc305c05bef"}, "vout": 1, "txid": "b463c1790e170535a4aa2559c06d5307be01dea4a72902a884f0a7cfdb889cf1"}, {"sequence": 4294967295, "scriptSig": {"hex": "483045022100a0e52790c8567b9e30b96501ee1314c4bb6e36820936594da9f624c24a4cb7fc022009e40a2f3ccae0388181795b4c758055a7608444231126524fbeece343fa11f70121022df406fd081dea75a3039aa0d876706e741198eeb5b03cba6cd4c868200b69b5", "asm": "3045022100a0e52790c8567b9e30b96501ee1314c4bb6e36820936594da9f624c24a4cb7fc022009e40a2f3ccae0388181795b4c758055a7608444231126524fbeece343fa11f7[ALL] 022df406fd081dea75a3039aa0d876706e741198eeb5b03cba6cd4c868200b69b5"}, "vout": 1, "txid": "710b7702c45d09189902480cd0a0131472a56b609ff7b097caa6f388ab8bd436"}], "txid": "eac374fb5e81cab7348e7e994984c956e3d87dd108c036e49ceae3a3b48c1090", "blocktime": 1537875543, "version": 1, "confirmations": 11464, "time": 1537875543, "locktime": 0, "vsize": 372, "size": 372}