{"hash": "eacbe73f76f099ce60842a8dbc58d1123c9a583fff06fd764a2285cd7e233d12", "blockhash": "0000000000000000001f76057863aec43deb6fa401d9628bb513d65a8098bfab", "vout": [{"scriptPubKey": {"reqSigs": 1, "hex": "76a9144ba7d79dc1fdacf61c566d700afcfedea3a2887288ac", "addresses": ["17u2kGjjUd4XKoAUg4vb5GEM6Vu5kpgZSE"], "asm": "OP_DUP OP_HASH160 4ba7d79dc1fdacf61c566d700afcfedea3a28872 OP_EQUALVERIFY OP_CHECKSIG", "type": "pubkeyhash"}, "value": 0.18987474, "n": 0}, {"scriptPubKey": {"reqSigs": 1, "hex": "76a914f0c34ea4cbae55c424febc68f129323f01514b5e88ac", "addresses": ["1Nx39DrULFvHPXp743Uxttu1Fc9QJSRodC"], "asm": "OP_DUP OP_HASH160 f0c34ea4cbae55c424febc68f129323f01514b5e OP_EQUALVERIFY OP_CHECKSIG", "type": "pubkeyhash"}, "value": 0.64038043, "n": 1}], "hex": "0100000001e85337687a98374a0569ce08c8020d8804dca2e9a64c8c03788415e61b7d53f7010000006a47304402204927c172f156dd0a6a899e2fefdda6449bb394c749867aa1de66c64de8f1c87e022006e1b5e27d99a09d2a4f28698435096b7269fa76f430ae585abbcc2ad3913dd401210363bad0e2d0c5dfe089e89153176ce81050010976a4758b5343b27d36d2f9f2eafeffffff02d2b92101000000001976a9144ba7d79dc1fdacf61c566d700afcfedea3a2887288ac9b24d103000000001976a914f0c34ea4cbae55c424febc68f129323f01514b5e88ac14490800", "vin": [{"sequence": 4294967294, "scriptSig": {"hex": "47304402204927c172f156dd0a6a899e2fefdda6449bb394c749867aa1de66c64de8f1c87e022006e1b5e27d99a09d2a4f28698435096b7269fa76f430ae585abbcc2ad3913dd401210363bad0e2d0c5dfe089e89153176ce81050010976a4758b5343b27d36d2f9f2ea", "asm": "304402204927c172f156dd0a6a899e2fefdda6449bb394c749867aa1de66c64de8f1c87e022006e1b5e27d99a09d2a4f28698435096b7269fa76f430ae585abbcc2ad3913dd4[ALL] 0363bad0e2d0c5dfe089e89153176ce81050010976a4758b5343b27d36d2f9f2ea"}, "vout": 1, "txid": "f7537d1be6158478038c4ca6e9a2dc04880d02c808ce69054a37987a683753e8"}], "txid": "eacbe73f76f099ce60842a8dbc58d1123c9a583fff06fd764a2285cd7e233d12", "blocktime": 1537873891, "version": 1, "confirmations": 11477, "time": 1537873891, "locktime": 542996, "vsize": 225, "size": 225}