{"hash": "eacdb80ded413bb8df463644f37df06f377eb7ae288fa9c84b95c9141674bb7a", "blockhash": "0000000000000000000e13cef7c366c0283d82e591d1acd082e914b08063cdf1", "vout": [{"scriptPubKey": {"reqSigs": 1, "hex": "a914d268badb925b235dc225fe297529a18885745e0c87", "addresses": ["3LsZHbBDWGD9dSVRp6ViX4UQVvxzipT66i"], "asm": "OP_HASH160 d268badb925b235dc225fe297529a18885745e0c OP_EQUAL", "type": "scripthash"}, "value": 0.025114, "n": 0}, {"scriptPubKey": {"reqSigs": 1, "hex": "a91425d56abac6049b4c33754211ec7431358a87ac0c87", "addresses": ["3594b7FJRpzEdjwWwFCCNZMnZKbSH1wquu"], "asm": "OP_HASH160 25d56abac6049b4c33754211ec7431358a87ac0c OP_EQUAL", "type": "scripthash"}, "value": 0.0082842, "n": 1}, {"scriptPubKey": {"reqSigs": 1, "hex": "a914f170991b161c56fbea621ab22967837ceeebb57d87", "addresses": ["3PhdfE4DnjkLUVJimEM9ty3MaAKQQAv1xJ"], "asm": "OP_HASH160 f170991b161c56fbea621ab22967837ceeebb57d OP_EQUAL", "type": "scripthash"}, "value": 0.02582139, "n": 2}, {"scriptPubKey": {"reqSigs": 1, "hex": "a914ff67adb734f788e27e37c68746b120c6841a4ac887", "addresses": ["3QyUSB4eRYePHcvpS6k6YDMBUDGXRSSMPc"], "asm": "OP_HASH160 ff67adb734f788e27e37c68746b120c6841a4ac8 OP_EQUAL", "type": "scripthash"}, "value": 4.76535813, "n": 3}], "hex": "0100000001005b2f8869dc3c6aeaa071ef6a334845a6588bedd3b095b39a2b314f428846e602000000da00483045022100a4ed367ecd0b47599cfa8f21be07d64d48e97e63b5a5aafd85f0347eb64f63c3022047217157822cfaad38dd17227e3717a2a8e7b09eab3bc64cf98f9c072c8c0b1d0147304402205aed29b31a0fc9edca7c4d68cdea586a1d639cd43478bc76989b5bfa424683f602201e8ad7db63229f242c677f6ae543c25084bdb432e075798d1f81c13e3ac620770147522102ba7ba7ef20369396e189ece0837706df9e94f61bed8996ba1fcc867b47cbf2f12103edcc3625b8fbcef2964c0b61ae748164d2a5a00c28350d2873d1f4869f5057ca52aeffffffff04285226000000000017a914d268badb925b235dc225fe297529a18885745e0c8704a40c000000000017a91425d56abac6049b4c33754211ec7431358a87ac0c877b6627000000000017a914f170991b161c56fbea621ab22967837ceeebb57d87055c671c0000000017a914ff67adb734f788e27e37c68746b120c6841a4ac88700000000", "vin": [{"sequence": 4294967295, "scriptSig": {"hex": "00483045022100a4ed367ecd0b47599cfa8f21be07d64d48e97e63b5a5aafd85f0347eb64f63c3022047217157822cfaad38dd17227e3717a2a8e7b09eab3bc64cf98f9c072c8c0b1d0147304402205aed29b31a0fc9edca7c4d68cdea586a1d639cd43478bc76989b5bfa424683f602201e8ad7db63229f242c677f6ae543c25084bdb432e075798d1f81c13e3ac620770147522102ba7ba7ef20369396e189ece0837706df9e94f61bed8996ba1fcc867b47cbf2f12103edcc3625b8fbcef2964c0b61ae748164d2a5a00c28350d2873d1f4869f5057ca52ae", "asm": "0 3045022100a4ed367ecd0b47599cfa8f21be07d64d48e97e63b5a5aafd85f0347eb64f63c3022047217157822cfaad38dd17227e3717a2a8e7b09eab3bc64cf98f9c072c8c0b1d[ALL] 304402205aed29b31a0fc9edca7c4d68cdea586a1d639cd43478bc76989b5bfa424683f602201e8ad7db63229f242c677f6ae543c25084bdb432e075798d1f81c13e3ac62077[ALL] 522102ba7ba7ef20369396e189ece0837706df9e94f61bed8996ba1fcc867b47cbf2f12103edcc3625b8fbcef2964c0b61ae748164d2a5a00c28350d2873d1f4869f5057ca52ae"}, "vout": 2, "txid": "e64688424f312b9ab395b0d3ed8b58a64548336aef71a0ea6a3cdc69882f5b00"}], "txid": "eacdb80ded413bb8df463644f37df06f377eb7ae288fa9c84b95c9141674bb7a", "blocktime": 1537871767, "version": 1, "confirmations": 11495, "time": 1537871767, "locktime": 0, "vsize": 397, "size": 397}