{"hash": "f296658a14aeb1229c8e426e1b43d5032d2b0170aad552ffc122fe755234073e", "blockhash": "00000000000000000017f5eb5941039fbcee6240d03bc1f2f8e35350df66a1d8", "vout": [{"scriptPubKey": {"reqSigs": 1, "hex": "76a91420546bec6ebddc1c6f0c50051b34e5b6204a1e8f88ac", "addresses": ["13wwkrSw4hapxVCM6F3BBwxez88D6BkpEe"], "asm": "OP_DUP OP_HASH160 20546bec6ebddc1c6f0c50051b34e5b6204a1e8f OP_EQUALVERIFY OP_CHECKSIG", "type": "pubkeyhash"}, "value": 0.081476, "n": 0}, {"scriptPubKey": {"reqSigs": 1, "hex": "a914c5cfd7ecccd801f566c876eb18626bb9ca2b83b387", "addresses": ["3Kix2YuXLinByjkraebpPwZ9RaDMtZY4yA"], "asm": "OP_HASH160 c5cfd7ecccd801f566c876eb18626bb9ca2b83b3 OP_EQUAL", "type": "scripthash"}, "value": 0.00996912, "n": 1}], "hex": "020000000001029c8654ac91fb56ec3b45b1fccd68db55f2e488601259bda25c6954fcc2bd412a010000001716001452aeed03b1d15e1c9acad246da9a2c5e15690a83feffffffac34244ae192ea82b2f016129c201613e4d47dd27017265e369df5dee9a8387301000000171600148da8ac865f2f076158597a241c161e014187caf6feffffff0290527c00000000001976a91420546bec6ebddc1c6f0c50051b34e5b6204a1e8f88ac30360f000000000017a914c5cfd7ecccd801f566c876eb18626bb9ca2b83b3870247304402202b567d51705121774737ef71a128d472025c7cbce152783dc0b9d1c18399d99e0220278a2b9a9d1a38976d73e808a0cbecf4a687bd6245d314ceec5b097613db1f3501210302144a16a1b1931c3e5f1ee868d0a22f45e927edc85e8b38c1196cd9119e95260247304402203db7321f24dc3b41237c7af5cdba693e82163cd99031090d08351ab1520ad5c9022043856fb009d42828d0247de5e64580a1d2b5c6f85c69f61dde26024bbc9a8aed0121024a5a535df6d4ba76eb624cbe9aecd645a91ed9c3ea04c7359dc5e98fb6e3dba015490800", "vin": [{"txinwitness": ["304402202b567d51705121774737ef71a128d472025c7cbce152783dc0b9d1c18399d99e0220278a2b9a9d1a38976d73e808a0cbecf4a687bd6245d314ceec5b097613db1f3501", "0302144a16a1b1931c3e5f1ee868d0a22f45e927edc85e8b38c1196cd9119e9526"], "sequence": 4294967294, "scriptSig": {"hex": "16001452aeed03b1d15e1c9acad246da9a2c5e15690a83", "asm": "001452aeed03b1d15e1c9acad246da9a2c5e15690a83"}, "vout": 1, "txid": "2a41bdc2fc54695ca2bd59126088e4f255db68cdfcb1453bec56fb91ac54869c"}, {"txinwitness": ["304402203db7321f24dc3b41237c7af5cdba693e82163cd99031090d08351ab1520ad5c9022043856fb009d42828d0247de5e64580a1d2b5c6f85c69f61dde26024bbc9a8aed01", "024a5a535df6d4ba76eb624cbe9aecd645a91ed9c3ea04c7359dc5e98fb6e3dba0"], "sequence": 4294967294, "scriptSig": {"hex": "1600148da8ac865f2f076158597a241c161e014187caf6", "asm": "00148da8ac865f2f076158597a241c161e014187caf6"}, "vout": 1, "txid": "7338a8e9def59d365e261770d27dd4e41316209c1216f0b282ea92e14a2434ac"}], "txid": "eacfe9744b23fa15a22bef429847f2851493318f5aba597f4671abdfc3c2658f", "blocktime": 1537874412, "version": 2, "confirmations": 11467, "time": 1537874412, "locktime": 542997, "vsize": 258, "size": 420}