{"hash": "f3cd7d05597b9e8a040b671042106140bcdf858a84e8bf81b98c2030545b2ac6", "blockhash": "00000000000000000018f53835495a110e01622372bf6ae95dc86f2b0ab887b0", "vout": [{"scriptPubKey": {"reqSigs": 1, "hex": "a9146ee18f94b11c0ef5fbd5cc6b73ddc6554abb650687", "addresses": ["3BoJTtVTcC8XRHeMZ9T5AKKXUa4LveYHfM"], "asm": "OP_HASH160 6ee18f94b11c0ef5fbd5cc6b73ddc6554abb6506 OP_EQUAL", "type": "scripthash"}, "value": 0.08326717, "n": 0}, {"scriptPubKey": {"reqSigs": 1, "hex": "a9146152d94ff3f3d15a30faa19054bb97786ff7605f87", "addresses": ["3AZcibJDmT8VsQ85LKthb6gn1eP66m1zYP"], "asm": "OP_HASH160 6152d94ff3f3d15a30faa19054bb97786ff7605f OP_EQUAL", "type": "scripthash"}, "value": 0.2895, "n": 1}], "hex": "01000000000103d07f2b6ebb03d8b49f741bfdaa37d226211cf086a3c7b22d09e9226f5e748b7b0000000023220020c0f83af84640f5ad59cefde76402fab43b398180e3764a59cf90065268972bd8ffffffff1ce3176d1f56f398e7e3b50f2a66875efe1f47371ab90e0d853b354059ea79b300000000232200200cb191460dde398d25ea503def7f5752be6092bb5acc4cdf4818af600bb6dee6ffffffff22d622b2bd5409ef039fc48d06b32f00acee558c5bd9e2d11b15273d8b0cbb2e0000000023220020c0f83af84640f5ad59cefde76402fab43b398180e3764a59cf90065268972bd8ffffffff023d0e7f000000000017a9146ee18f94b11c0ef5fbd5cc6b73ddc6554abb650687f0bdb9010000000017a9146152d94ff3f3d15a30faa19054bb97786ff7605f870400483045022100ebea205989170d3c5c061d7df5c088919ff2bf7bb50d225b510b0003cefe3dd002205fae0d2e65f1d1e15b899d551aef8f2ac8ec50b2052e378b998b4c6c014b68a801473044022022db7f50701306aa9eaf95581040efd39c5944148a74644c7a2f13bb35d41d5d02201ad3264fcfe18559f4ea90a4b56174b31745ea4e95c18e9582b3ac51c444a71a01695221031e8d7dac97a4aebe5d82fb32564627c592a0f93f937cec9551b652bf86600e3e2102b2cbb30babe89530fbd47dbc55fbe52d63c69cec2c56abf416c46d5e964047032103051e83be7c31a26fd8cb05c1454c2a32fda9b41424a3b9c4e38ca2999d881e8753ae040047304402200142c1d5672ba31a6eaa7f2d8a4c2d2e932820196afd5b47b51e6aba4f4c1eeb022013793720d01c9024fe73ffea1070e03cc7978d31be1a4d4a60d5d7a0b882bef90147304402203a07673105bb1493c0ca9e8535c71eb27e8453d047810d2342d4d6c9dba6fc8f022078f3ae5be9a7e2d206ed684b1d443d2d3005a8bfa09acb6fd75d360bf24067240169522102d5a10a89801e579b1e464d04e8d5284035b6ebc6687fee1ea9d26908345d353d2103897946c80c8f0cdddd3d628fc3232df4a6a670a9e2e2cc0aa57e5ea43ffaff102103b1bbcb37810be89cff162e84e1a5adebb490d8e877fbe874ad12ff1f4ea69c8753ae040047304402206ec86cd25bfb514f45b40b158d76c791c72915b0f16f3b06871f3a59e0b529340220680ac25fbb25944c5e24ad0d6746a6735795a89d6ac9518204be10bbb021167301483045022100ee6c4f9c30e24538978cc91d2df602f832f7404f1dd8f5bb70b3a4d82d84c60d022065eefdf595e4e5f2a525e13829bc435495c990ac190993c337f4d8106464d96e01695221031e8d7dac97a4aebe5d82fb32564627c592a0f93f937cec9551b652bf86600e3e2102b2cbb30babe89530fbd47dbc55fbe52d63c69cec2c56abf416c46d5e964047032103051e83be7c31a26fd8cb05c1454c2a32fda9b41424a3b9c4e38ca2999d881e8753ae00000000", "vin": [{"txinwitness": ["", "3045022100ebea205989170d3c5c061d7df5c088919ff2bf7bb50d225b510b0003cefe3dd002205fae0d2e65f1d1e15b899d551aef8f2ac8ec50b2052e378b998b4c6c014b68a801", "3044022022db7f50701306aa9eaf95581040efd39c5944148a74644c7a2f13bb35d41d5d02201ad3264fcfe18559f4ea90a4b56174b31745ea4e95c18e9582b3ac51c444a71a01", "5221031e8d7dac97a4aebe5d82fb32564627c592a0f93f937cec9551b652bf86600e3e2102b2cbb30babe89530fbd47dbc55fbe52d63c69cec2c56abf416c46d5e964047032103051e83be7c31a26fd8cb05c1454c2a32fda9b41424a3b9c4e38ca2999d881e8753ae"], "sequence": 4294967295, "scriptSig": {"hex": "220020c0f83af84640f5ad59cefde76402fab43b398180e3764a59cf90065268972bd8", "asm": "0020c0f83af84640f5ad59cefde76402fab43b398180e3764a59cf90065268972bd8"}, "vout": 0, "txid": "7b8b745e6f22e9092db2c7a386f01c2126d237aafd1b749fb4d803bb6e2b7fd0"}, {"txinwitness": ["", "304402200142c1d5672ba31a6eaa7f2d8a4c2d2e932820196afd5b47b51e6aba4f4c1eeb022013793720d01c9024fe73ffea1070e03cc7978d31be1a4d4a60d5d7a0b882bef901", "304402203a07673105bb1493c0ca9e8535c71eb27e8453d047810d2342d4d6c9dba6fc8f022078f3ae5be9a7e2d206ed684b1d443d2d3005a8bfa09acb6fd75d360bf240672401", "522102d5a10a89801e579b1e464d04e8d5284035b6ebc6687fee1ea9d26908345d353d2103897946c80c8f0cdddd3d628fc3232df4a6a670a9e2e2cc0aa57e5ea43ffaff102103b1bbcb37810be89cff162e84e1a5adebb490d8e877fbe874ad12ff1f4ea69c8753ae"], "sequence": 4294967295, "scriptSig": {"hex": "2200200cb191460dde398d25ea503def7f5752be6092bb5acc4cdf4818af600bb6dee6", "asm": "00200cb191460dde398d25ea503def7f5752be6092bb5acc4cdf4818af600bb6dee6"}, "vout": 0, "txid": "b379ea5940353b850d0eb91a37471ffe5e87662a0fb5e3e798f3561f6d17e31c"}, {"txinwitness": ["", "304402206ec86cd25bfb514f45b40b158d76c791c72915b0f16f3b06871f3a59e0b529340220680ac25fbb25944c5e24ad0d6746a6735795a89d6ac9518204be10bbb021167301", "3045022100ee6c4f9c30e24538978cc91d2df602f832f7404f1dd8f5bb70b3a4d82d84c60d022065eefdf595e4e5f2a525e13829bc435495c990ac190993c337f4d8106464d96e01", "5221031e8d7dac97a4aebe5d82fb32564627c592a0f93f937cec9551b652bf86600e3e2102b2cbb30babe89530fbd47dbc55fbe52d63c69cec2c56abf416c46d5e964047032103051e83be7c31a26fd8cb05c1454c2a32fda9b41424a3b9c4e38ca2999d881e8753ae"], "sequence": 4294967295, "scriptSig": {"hex": "220020c0f83af84640f5ad59cefde76402fab43b398180e3764a59cf90065268972bd8", "asm": "0020c0f83af84640f5ad59cefde76402fab43b398180e3764a59cf90065268972bd8"}, "vout": 0, "txid": "2ebb0c8b3d27151bd1e2d95b8c55eeac002fb3068dc49f03ef0954bdb222d622"}], "txid": "ead65628ae02b4af3c3a92ba3353103c06cc00ccdf9c4b92eef0baf716ea7f57", "blocktime": 1537870928, "version": 1, "confirmations": 11512, "time": 1537870928, "locktime": 0, "vsize": 492, "size": 1062}