{"hash": "eaddeab9b6b757b487e1c05df77e75170fd77b127661b08d51ba8bc92a254e8f", "blockhash": "0000000000000000001f0ddff1eddb255c1121bcd4da4f1bc9a0da00cae72433", "vout": [{"scriptPubKey": {"reqSigs": 1, "hex": "76a914382ce655e1cdd01af2d9e46573e9fbd0bb749d3688ac", "addresses": ["1682dS3BbTDCgAgnRYMNhDwEGYjRpaS3h3"], "asm": "OP_DUP OP_HASH160 382ce655e1cdd01af2d9e46573e9fbd0bb749d36 OP_EQUALVERIFY OP_CHECKSIG", "type": "pubkeyhash"}, "value": 0.01214362, "n": 0}, {"scriptPubKey": {"type": "nulldata", "hex": "6a146f6d6e69000000000000001f00000004fd5119fc", "asm": "OP_RETURN 6f6d6e69000000000000001f00000004fd5119fc"}, "value": 0.0, "n": 1}, {"scriptPubKey": {"reqSigs": 1, "hex": "76a914ba5b429b67ebb80c1f048a492a6b41e1bf54aba788ac", "addresses": ["1HzN1YrUv442DCS379b4qnpgTJuUgjJzUn"], "asm": "OP_DUP OP_HASH160 ba5b429b67ebb80c1f048a492a6b41e1bf54aba7 OP_EQUALVERIFY OP_CHECKSIG", "type": "pubkeyhash"}, "value": 5.46e-06, "n": 2}], "hex": "01000000026799a17103f2b87975851fcebfb4cfa8f3778c17634ae0450c427cf8caa73082010000006a4730440220689cf71c117ecb84bc038c08f773d765f4f63df5b08775555cfa5605fb09eeb602200d4f61a92f63fc9225de84e1ef89b54456a9c4f5ff98ae848f3b48498878624901210369052d798c7dcc0398317497382e27f6f2b11d96f03fb52a1ee1ebec7a6c1ed7ffffffffe7bc554220fd22ece1a3c9472bf5eda4c5eeb50576d5f5308b679d49ef8ec593000000006b4830450221009287e227ea45ca3ce0dd3098e19f4874a2681c8eef36dc84df608cfa63ae295702204565ff8276cd7a05564312a587087985e7d46223000c18133cf906cd8ce321f80121039000d0616967dd25f800d8a8f45648c89fb366c2caeefd348010ea3a8f9a69ffffffffff039a871200000000001976a914382ce655e1cdd01af2d9e46573e9fbd0bb749d3688ac0000000000000000166a146f6d6e69000000000000001f00000004fd5119fc22020000000000001976a914ba5b429b67ebb80c1f048a492a6b41e1bf54aba788ac00000000", "vin": [{"sequence": 4294967295, "scriptSig": {"hex": "4730440220689cf71c117ecb84bc038c08f773d765f4f63df5b08775555cfa5605fb09eeb602200d4f61a92f63fc9225de84e1ef89b54456a9c4f5ff98ae848f3b48498878624901210369052d798c7dcc0398317497382e27f6f2b11d96f03fb52a1ee1ebec7a6c1ed7", "asm": "30440220689cf71c117ecb84bc038c08f773d765f4f63df5b08775555cfa5605fb09eeb602200d4f61a92f63fc9225de84e1ef89b54456a9c4f5ff98ae848f3b484988786249[ALL] 0369052d798c7dcc0398317497382e27f6f2b11d96f03fb52a1ee1ebec7a6c1ed7"}, "vout": 1, "txid": "8230a7caf87c420c45e04a63178c77f3a8cfb4bfce1f857579b8f20371a19967"}, {"sequence": 4294967295, "scriptSig": {"hex": "4830450221009287e227ea45ca3ce0dd3098e19f4874a2681c8eef36dc84df608cfa63ae295702204565ff8276cd7a05564312a587087985e7d46223000c18133cf906cd8ce321f80121039000d0616967dd25f800d8a8f45648c89fb366c2caeefd348010ea3a8f9a69ff", "asm": "30450221009287e227ea45ca3ce0dd3098e19f4874a2681c8eef36dc84df608cfa63ae295702204565ff8276cd7a05564312a587087985e7d46223000c18133cf906cd8ce321f8[ALL] 039000d0616967dd25f800d8a8f45648c89fb366c2caeefd348010ea3a8f9a69ff"}, "vout": 0, "txid": "93c58eef499d678b30f5d57605b5eec5a4edf52b47c9a3e1ec22fd204255bce7"}], "txid": "eaddeab9b6b757b487e1c05df77e75170fd77b127661b08d51ba8bc92a254e8f", "blocktime": 1537872018, "version": 1, "confirmations": 11489, "time": 1537872018, "locktime": 0, "vsize": 404, "size": 404}