{"hash": "514b4e41da4d8d5ada7daf483dc9d2961f7f839d5c552769b0a543b3d1e9e76b", "blockhash": "000000000000000000022b45ed06c6f4ccd3cf7fb5ba4856ebd2e58215665228", "vout": [{"scriptPubKey": {"reqSigs": 1, "hex": "a9144bbe7db46b7df77d5f45c803fc06436f75b406ee87", "addresses": ["38bWoUoQai2Hy9J7SZUEepvazfSgesLyju"], "asm": "OP_HASH160 4bbe7db46b7df77d5f45c803fc06436f75b406ee OP_EQUAL", "type": "scripthash"}, "value": 0.00090036, "n": 0}, {"scriptPubKey": {"reqSigs": 1, "hex": "a9145eaada4845c3d8a3927a4e297b93aed91d868faf87", "addresses": ["3AKa7dKraPacwp7eVCwxgXueTgazV6gouD"], "asm": "OP_HASH160 5eaada4845c3d8a3927a4e297b93aed91d868faf OP_EQUAL", "type": "scripthash"}, "value": 0.02662893, "n": 1}], "hex": "01000000000101d8a91633d02e94d51a45754519dfec2f61f56594bffa910aa8f2a5b13caf73960100000023220020d4d5df029411299e1d3362ef6a8daf52165a0effbaf546e0d63aa8a0c0c1f7dcffffffff02b45f01000000000017a9144bbe7db46b7df77d5f45c803fc06436f75b406ee87eda128000000000017a9145eaada4845c3d8a3927a4e297b93aed91d868faf87040047304402205ecf96801de437c9febbb9bc69f2a0146ac9f110b7ddcd0b226ad7b62befdba9022000a5d2d85897eaeb2966c2318636c1cf9dd65e34b2fdb77443901cc1177a1aba01483045022100b35f603d50778764d54239f9c355e8b2a1ce5455cf51477d4527830793c964e002203e2ffe8fb213ca9738bc0e205609dfb220ff025dc8ebba2de2368d477bc08b250147522102cd6be34bdaa89e84223115ae737e814f12b7eb41a2dbe171e47acb70527b1b7d2103871fc2ca08e6950b38867e8e6a0e94ee625223d3aa0df5c65f414c6d784467e252ae00000000", "vin": [{"txinwitness": ["", "304402205ecf96801de437c9febbb9bc69f2a0146ac9f110b7ddcd0b226ad7b62befdba9022000a5d2d85897eaeb2966c2318636c1cf9dd65e34b2fdb77443901cc1177a1aba01", "3045022100b35f603d50778764d54239f9c355e8b2a1ce5455cf51477d4527830793c964e002203e2ffe8fb213ca9738bc0e205609dfb220ff025dc8ebba2de2368d477bc08b2501", "522102cd6be34bdaa89e84223115ae737e814f12b7eb41a2dbe171e47acb70527b1b7d2103871fc2ca08e6950b38867e8e6a0e94ee625223d3aa0df5c65f414c6d784467e252ae"], "sequence": 4294967295, "scriptSig": {"hex": "220020d4d5df029411299e1d3362ef6a8daf52165a0effbaf546e0d63aa8a0c0c1f7dc", "asm": "0020d4d5df029411299e1d3362ef6a8daf52165a0effbaf546e0d63aa8a0c0c1f7dc"}, "vout": 1, "txid": "9673af3cb1a5f2a80a91fabf9465f5612fecdf194575451ad5942ed03316a9d8"}], "txid": "eaddde3ec6bb83dbfa141ddd555b33f669208e25e02f251f8043a0d5e63c244a", "blocktime": 1537869901, "version": 1, "confirmations": 11524, "time": 1537869901, "locktime": 0, "vsize": 206, "size": 371}