{"hash": "eae3fd135ac7022d23bf987c86b00bec2bc248d469298fdebc41a8640c065f77", "blockhash": "0000000000000000001e0dab787dd257d1dbfcb92a98c2207d5e1078be1f4165", "vout": [{"scriptPubKey": {"reqSigs": 1, "hex": "76a91498585a48b16dda05d8666d7fde0d7a2b0737982d88ac", "addresses": ["1EtXZ1Ysm4iRpm3eZrHVXHAsKN4i1HZVn3"], "asm": "OP_DUP OP_HASH160 98585a48b16dda05d8666d7fde0d7a2b0737982d OP_EQUALVERIFY OP_CHECKSIG", "type": "pubkeyhash"}, "value": 0.00290513, "n": 0}, {"scriptPubKey": {"reqSigs": 1, "hex": "76a914b57d44427e6257f2670d9a5f84e22102cbc1c88e88ac", "addresses": ["1HYdNQCe9MeTNmrAdBZT3jo2B9iSnNNN12"], "asm": "OP_DUP OP_HASH160 b57d44427e6257f2670d9a5f84e22102cbc1c88e OP_EQUALVERIFY OP_CHECKSIG", "type": "pubkeyhash"}, "value": 0.015616, "n": 1}], "hex": "0100000002928c8f85ad2d68bfd5202a6c123813f184dab07d191565ae36131c02b5aa4645010000006a47304402206d3317743a783e6811d94b1f74c630c2ff3f4c19b3ad0de8c00ad7ea0b19d97c02201b0b44a633cda72c4f6f49d9a6fd8244e3d5262461fe859ba9690b8e3083604d01210301e279a7e63adffcff76d73a55eca94b4ad50f6d4269559de23a9cee40df675fffffffff40ce786f9dece897e58032476f090c42515654c545a68fba0c9509c11dd106cf010000006a47304402205c323ae113fb00876e95e80bcfbb68ca78f1f6deaed5a87ae2fd664ac960a2af022038458f1b93c838116bc51049b409f61941abdff7445e84b45ea9252bffb2b825012103759463e07be24031b1f93174549e8af96442c6c123cce417c09b9d7a36217e55ffffffff02d16e0400000000001976a91498585a48b16dda05d8666d7fde0d7a2b0737982d88ac00d41700000000001976a914b57d44427e6257f2670d9a5f84e22102cbc1c88e88ac00000000", "vin": [{"sequence": 4294967295, "scriptSig": {"hex": "47304402206d3317743a783e6811d94b1f74c630c2ff3f4c19b3ad0de8c00ad7ea0b19d97c02201b0b44a633cda72c4f6f49d9a6fd8244e3d5262461fe859ba9690b8e3083604d01210301e279a7e63adffcff76d73a55eca94b4ad50f6d4269559de23a9cee40df675f", "asm": "304402206d3317743a783e6811d94b1f74c630c2ff3f4c19b3ad0de8c00ad7ea0b19d97c02201b0b44a633cda72c4f6f49d9a6fd8244e3d5262461fe859ba9690b8e3083604d[ALL] 0301e279a7e63adffcff76d73a55eca94b4ad50f6d4269559de23a9cee40df675f"}, "vout": 1, "txid": "4546aab5021c1336ae6515197db0da84f11338126c2a20d5bf682dad858f8c92"}, {"sequence": 4294967295, "scriptSig": {"hex": "47304402205c323ae113fb00876e95e80bcfbb68ca78f1f6deaed5a87ae2fd664ac960a2af022038458f1b93c838116bc51049b409f61941abdff7445e84b45ea9252bffb2b825012103759463e07be24031b1f93174549e8af96442c6c123cce417c09b9d7a36217e55", "asm": "304402205c323ae113fb00876e95e80bcfbb68ca78f1f6deaed5a87ae2fd664ac960a2af022038458f1b93c838116bc51049b409f61941abdff7445e84b45ea9252bffb2b825[ALL] 03759463e07be24031b1f93174549e8af96442c6c123cce417c09b9d7a36217e55"}, "vout": 1, "txid": "cf06d11dc109950cba8fa645c5545651420c096f473280e597e8ec9d6f78ce40"}], "txid": "eae3fd135ac7022d23bf987c86b00bec2bc248d469298fdebc41a8640c065f77", "blocktime": 1537872475, "version": 1, "confirmations": 11486, "time": 1537872475, "locktime": 0, "vsize": 372, "size": 372}