{"hash": "eae51926dd48f67083454a5224c86e8f29384c8888dbbc73921d192f8b56677b", "blockhash": "00000000000000000024a2167bbff67b0be802c0b01cdd79e6331c2be6459f87", "vout": [{"scriptPubKey": {"reqSigs": 1, "hex": "76a91470d8a09ec2b9316d0e36bb8c529e701b6aaa15c688ac", "addresses": ["1BHgC2Hf9UG9WjgroMQ97xjxZ5BzVn2Fqz"], "asm": "OP_DUP OP_HASH160 70d8a09ec2b9316d0e36bb8c529e701b6aaa15c6 OP_EQUALVERIFY OP_CHECKSIG", "type": "pubkeyhash"}, "value": 0.0095, "n": 0}, {"scriptPubKey": {"reqSigs": 1, "hex": "76a914d30a6f0ddd7b07b983d76d3aff8548aea1934c5c88ac", "addresses": ["1LEt5RvakjHBtgNe5s94ZRf3NyFknnnDew"], "asm": "OP_DUP OP_HASH160 d30a6f0ddd7b07b983d76d3aff8548aea1934c5c OP_EQUALVERIFY OP_CHECKSIG", "type": "pubkeyhash"}, "value": 0.46935856, "n": 1}], "hex": "01000000017189d82564715f9df6f5ebcf509cd56d8ffd2b7ff028e632fc39be9392b84e68010000006a47304402200c095c07b2e4529d49e708348b9259a9355a95ad3db3c9a59521e34b1dd03c27022041489e78474507a86ab119fe7b0f75db09d2f9dcac1933d9695c75d6f77bb313012102ca6d52919e099beedd7f78006024acfe9a2410cbb2b5185287eb01466ab3fb35ffffffff02f07e0e00000000001976a91470d8a09ec2b9316d0e36bb8c529e701b6aaa15c688ac302fcc02000000001976a914d30a6f0ddd7b07b983d76d3aff8548aea1934c5c88ac00000000", "vin": [{"sequence": 4294967295, "scriptSig": {"hex": "47304402200c095c07b2e4529d49e708348b9259a9355a95ad3db3c9a59521e34b1dd03c27022041489e78474507a86ab119fe7b0f75db09d2f9dcac1933d9695c75d6f77bb313012102ca6d52919e099beedd7f78006024acfe9a2410cbb2b5185287eb01466ab3fb35", "asm": "304402200c095c07b2e4529d49e708348b9259a9355a95ad3db3c9a59521e34b1dd03c27022041489e78474507a86ab119fe7b0f75db09d2f9dcac1933d9695c75d6f77bb313[ALL] 02ca6d52919e099beedd7f78006024acfe9a2410cbb2b5185287eb01466ab3fb35"}, "vout": 1, "txid": "684eb89293be39fc32e628f07f2bfd8f6dd59c50cfebf5f69d5f716425d88971"}], "txid": "eae51926dd48f67083454a5224c86e8f29384c8888dbbc73921d192f8b56677b", "blocktime": 1537870564, "version": 1, "confirmations": 11515, "time": 1537870564, "locktime": 0, "vsize": 225, "size": 225}