{"hash": "3a6e5b5c266f8e09ea22791641a9f778fc895f29a45492b19c89c4dfb12161a1", "blockhash": "0000000000000000000e13cef7c366c0283d82e591d1acd082e914b08063cdf1", "vout": [{"scriptPubKey": {"reqSigs": 1, "hex": "76a914b65fe2ab9e2b06903724de8402345315ca29c39688ac", "addresses": ["1HdJr9gZduzjDL541QFjGDAyGbL7haJ7J7"], "asm": "OP_DUP OP_HASH160 b65fe2ab9e2b06903724de8402345315ca29c396 OP_EQUALVERIFY OP_CHECKSIG", "type": "pubkeyhash"}, "value": 0.04738, "n": 0}, {"scriptPubKey": {"reqSigs": 1, "hex": "a91448df054a6ae8b6688105abdc2a3c6fb3aafc5e2e87", "addresses": ["38LKk6wBaMwp169ySS8kdq7TqmK5i1Q6VJ"], "asm": "OP_HASH160 48df054a6ae8b6688105abdc2a3c6fb3aafc5e2e OP_EQUAL", "type": "scripthash"}, "value": 0.50680336, "n": 1}], "hex": "010000000001010e260a8bc04455bcfcc95984c82b053cd5bd76e0614c61382365fb841faa93740100000023220020e796925840ccd164bba833403a0e8064e6538ba3a38ee1f4416a744154bc4244ffffffff02d04b4800000000001976a914b65fe2ab9e2b06903724de8402345315ca29c39688ac105205030000000017a91448df054a6ae8b6688105abdc2a3c6fb3aafc5e2e87040047304402203b939151f44e800ea1ea15092e57eb70b5867da610ce2e41d69a92f7608e640502200ad85d8c52ce36262adb8d1fbbc7c7eb0b26c3ca0a2e9a40cf3a13292417b04e01473044022078cbc3ac588e34029d1553ddf6e119d019b63264e2f939c58d940723cd977047022040f858e002dad1d981cd0529519cf336769c1111a63e3b3e6983e069d64beed10147522103f0248aa4a418ed50d19a0016339810dd988db7713e3b23c8770eb399b30a6a432103775727e939d2d52832d787818e9cc31e086ea173bbfa7d8248bbfa2aaee3bde052ae00000000", "vin": [{"txinwitness": ["", "304402203b939151f44e800ea1ea15092e57eb70b5867da610ce2e41d69a92f7608e640502200ad85d8c52ce36262adb8d1fbbc7c7eb0b26c3ca0a2e9a40cf3a13292417b04e01", "3044022078cbc3ac588e34029d1553ddf6e119d019b63264e2f939c58d940723cd977047022040f858e002dad1d981cd0529519cf336769c1111a63e3b3e6983e069d64beed101", "522103f0248aa4a418ed50d19a0016339810dd988db7713e3b23c8770eb399b30a6a432103775727e939d2d52832d787818e9cc31e086ea173bbfa7d8248bbfa2aaee3bde052ae"], "sequence": 4294967295, "scriptSig": {"hex": "220020e796925840ccd164bba833403a0e8064e6538ba3a38ee1f4416a744154bc4244", "asm": "0020e796925840ccd164bba833403a0e8064e6538ba3a38ee1f4416a744154bc4244"}, "vout": 1, "txid": "7493aa1f84fb652338614c61e076bdd53c052bc88459c9fcbc5544c08b0a260e"}], "txid": "eae9a1c3c66b6477790cec5f5699da2282eee818467a2340a51dbaa32ef86dac", "blocktime": 1537871767, "version": 1, "confirmations": 11495, "time": 1537871767, "locktime": 0, "vsize": 207, "size": 372}