{"hash": "d1b9fc34d07eabb6c7b0616cbb825c8e12b5b521b577d1ce58c3ac051ffb72fe", "blockhash": "000000000000000000022b45ed06c6f4ccd3cf7fb5ba4856ebd2e58215665228", "vout": [{"scriptPubKey": {"reqSigs": 1, "hex": "a914f25d57d411b7912fa618790674f138820e66c1e087", "addresses": ["3PnXGZHzKVQA7osYXqptEX2KzGn77KTahU"], "asm": "OP_HASH160 f25d57d411b7912fa618790674f138820e66c1e0 OP_EQUAL", "type": "scripthash"}, "value": 0.00997542, "n": 0}, {"scriptPubKey": {"reqSigs": 1, "hex": "a914eacaec7f19a00ef929c05b63db543466f094f5b287", "addresses": ["3P6V8prVnmusNQ4UGsqpSNyxWbAmFe1jTx"], "asm": "OP_HASH160 eacaec7f19a00ef929c05b63db543466f094f5b2 OP_EQUAL", "type": "scripthash"}, "value": 19.52952349, "n": 1}], "hex": "020000000001250939c489c684384c62c1a06233deab71fadb02b2ee99b0eda1b0887ac3ee4a840100000017160014d7a18a4179bb3f11c71cc461d41f7a8697dfce1cfeffffff15211708370b40532a9c07346f15ff6c8fcb2b3b32dc68ed28b3560d08027688010000001716001432f337ec7862d44a818e6b24e6c678e8e4c10a0dfeffffff16fe403f3bee4cfc87920a54ea5631ac60b7a123cbc79bb6787cf753fcded3d20100000017160014d7634ead6f2e1b16994d34aa9e5241418010b246feffffff18e98fc2897ba87d727e5f6dd985cbf2e012277a005c761e4496d1df6a14929d000000001716001493fd5fd3f891eaa94d178f7a57cee901e93447a3feffffff21dc3f4892a54170a23c2473ebbcbeeb4a97014d96aedeea8dd66b0da6682a2d0100000017160014c828463e792e3197fec98a17b6e1a57a63b52af6feffffff29791a864e5ce14b34782162dad129a328d88dbc1d5ffe852953962d81b8cb9e01000000171600148b751a87bb0061227e587d29548e0360f992f623feffffff34f47e312dfbd3f47fe7a29e5a6a3aa7c5e839ee8e93af4ad38a2bcba77ade960000000017160014019e79f9c4707742c1bcddf6b303e8360aa44cdbfeffffff3a3f93609037ada6c75903a290b6de38e9a0fcca67039e9a0486a5cd48b4e6d000000000171600147d61edf85a29e691a084279659935b1ab5e75e8cfeffffff44135463d1d8c1c296e5ae6352d15b44d6e75c8a0c846e99fe657112aa57cd700000000017160014703d0d64402add3e6f7293d9f2cac90040aa325dfeffffff49f20cdae212cf6b24264aac128a14dc653d03add45ed211347ee14f43c112260000000017160014547830fb64aa7408fe61b16488147e92395e2e23feffffff5a32ada6a7d7e0ddbfb8114034ad32e8dd313df1f1e4fa057afc8366a8fed0890000000017160014551d28a6aefae96128f3c84e9615895cdeb4feb3feffffff67394c9fb3569456a72472707b2b2fe7c54bbd0c795b98065c2befcb65bd3baa00000000171600144b522c582b0d72f4a480c8efcbb82fc935f8755afeffffff6902ad313d254230c3f91a735533d3a300831519558c9dbae5eb7aad3240733700000000171600142e0569a971af89e7ade742b0c10f4d56bdc571a3feffffff6b9237dffa55ee0cd66228cd6adb474f85131c187b593eb7cd0f70efab5a8a4c01000000171600142dadb7758ca7ea35d750579ca4ef606148ea23fdfeffffff6ce89a5fc35003ab2ff41ece59d105c6f627d98b852dd51188e49bf30e1c93350100000017160014a3dc20de05cfddf295c23a61e8380efb82ef9a0afeffffff78051a9fb16bdf7c047f3fe2c22ab8c70a732ec88b1bea06e1044bfa3d21a549000000001716001471b3b64184c1d208157d42cdb02c822769962dfbfeffffff78051a9fb16bdf7c047f3fe2c22ab8c70a732ec88b1bea06e1044bfa3d21a54901000000171600140ebfc6c65d4d886626f940196cd2945b93670c15feffffff79cf1fb994bed9eb0810f773dc117e6d5d983c095910e25e6a3fa7a992dfaa5600000000171600147b05cf4665841d0723f565946ba82502ce6b3ec7feffffff818d83f20a0a60f2360b64ce465bfa1f194e57464f85c1830d0e19926adbf51809000000171600147d136527dafb21954f1d0f367731df624b377870feffffff839f823d4cb3c806e969662bfd4c2dd75a8048e45e728a60a9b0fac5a52ee2a10000000017160014e716808ce6b66d8799f7b296076fcfd80eda00a2feffffff871e2d522b8e0cd33093bcdf0cab150b5a6d2e4eb6bae4c89ea34598afc643ec0100000017160014731b85bc403368aab49e0118e09a4641e4b1d115feffffff8af86f2fcba389b0fc6395fd2e9749b136ff4af4c727795ba94177d89a713ae00000000017160014aaba98478e5fe97c350f8e0fd93c9784266ccf4dfeffffff8babb4b4d051c785e03f9d71b1c85a992e67bec953fb7b89f48b340daa39cca90100000017160014f30ae9508b1392a84c9e96f8b92a305d9523bd12feffffff9437d0284c85209df7a61ca3d186d14ac36beb71dd29bff640538a01f04bfc2800000000171600147485240ae511ccc392110e84746fbcec65e4011afeffffff9962d5301d6ead7d93f30cb7919f39202e1ac22fc6998e63fa78583b0b3fd787000000001716001442c32392889880f728b1ddb9949c14b050286b94feffffff9db6629aa1491611b90ba66038611ea0d32cb724af12698188f5c1fb9f506d7d0000000017160014c44ceb3bcff4605b8c6b73529b06fbd8f1b3cfb2feffffffa416b4efe4fc54c0648ff5f91f87a1184137d502590f6be8bf4e855e60ee312c000000001716001474655e8b90ef0f89a713f89b92c384e6900321b6feffffffaafec9420ca78bae62d74322f4986a8c614d671f25fb404c32c4053fb07b12d50100000017160014d35f84c457eb752c048b45e70e121f731fa1dc69feffffffbd20acefa32eac8da8064019c3a8e03620394ec66405b1e73a66b6ef568ae4e60000000017160014547989ed1b8b7c06ae380545c67a35c0cf9cd069feffffffbfc8911bcc970a911abab79d4f334ecff3edf2b6e73d78b914c688eee3d091b5000000001716001458a3dd93a381ca047316fc4c257d2fdd69a262ecfeffffffd69e5f72f09d280cb20c267dde591d8324e345112a7368019b1ce6c5130a4b7b000000001716001433015f4651d87573e04b6c228c779e6073d9c8f1feffffffdaa33803267213a8cab33d9aa66f692d48d9203872316aedeb544f1b2c6c80e1000000001716001450494a7e13f310d773eae65d5b66b1f741e63573feffffffe6a34ce83a5fe23fc7049f2bf54fb3908b33dbfe6d56ff3494f6883b1b335f130100000017160014361a47cb6ee6fcf07766c129a70e5b3e025307d9feffffffee18ac5044f92c8fb48afcf50af195d12ccda93a731d5b962c606c74a3385e660000000017160014449d76d8ce5007a483c1f5ae7d7cec799f977f61fefffffff06d3fbed2e21daed48ad348bfbea9b70adabc5ebd0cde823e3c1d37d4dacbe801000000171600147dfd2cbd97b69a70d32acfd82fd952f3e401e6e0fefffffff233321e66f498a7558cafcf1244551e8b0904b2359ea0c6faac9e5820a99b610000000017160014128abc681f8b4d74d890930b69ee3dad4262fcdefefffffff7f0467c490877f4afa20d24022ba2ae63cbdc6991ddb49a8585f302523df5a301000000171600140f93f2438afe5b87d2ec0467c13c570e8b9d4fc0feffffff02a6380f000000000017a914f25d57d411b7912fa618790674f138820e66c1e0871db067740000000017a914eacaec7f19a00ef929c05b63db543466f094f5b28702473044022009d501c48826e6f7647b6d17e45fb37fb1c5d71844de9facadf95efde4b0a9c6022002f9e3d77985008c214d5c2160fadce715a0c9538e40622d91ad4d2b0195c0740121020d859f5a00522179894b5adfaa9503df15e58c2a7cd5318ffc0dd8e1f7c1102302483045022100e45a3cbe1d3e79189516609ec2b5a9e72bba7c118c56773c56a13d129ba1905202203e890bc58d41ace893bfd999081cd85797946dd5bd708b684d084454bb88e20c0121031f6e6a5750858a5d5a730fb8a2481b1396c55bb808459788d056ed32e235d9a202483045022100ea9f1be63203ef2f834aff1517848ac3ef9ff79162fdeb1fdd9c8252071227de022067d8a8358acf684c3987bffddcd6cad30e233c56f393bafac2a72c35a053cba201210395bf9fc6995aea2a7b4701e2f5d2df15d9aa0c3e4508d2fbab1ccdc5332a74d002483045022100c28108731298dcfef5959748cda46f85b77bfd1f8b9119aba33c64d58a5878540220698e302ea9f38e4b0d52e25243759e8b568dca9dd723151bc14d112503dd96210121028e794f7b586bec9eb59922f6544638468fc86b73692bcc5a27d47d6431e644b402483045022100b504643992060c2093dc76752b0f2780d043852d2b4e8d5e8929aa1c111c681d0220550b8e2fe44c8dc22b5f535ebc594534a94ae4e64dc0b043f7928fcfa9b5eee401210346a33f325f73925037784eef674162c5e8b7c2b518ae9923c7b1cc42a2fe776b0247304402206cd05b26c87566c0dbd303a7f0ae38bf58e1a1d24eb803ce1f2a42ebca94419f022038a009c0c4575f53af965afe10b8bb348adf5cdde746dc8b53ce2864e674e11f01210342ea72058b0ebcc75112694beeb63253b1a6ced78302a154403c01d4dbdfac6402483045022100cb59698015df47154dda275c46d72d62d232c558befe15461d5b1fd90cf84bb4022013d4730f9b141e9443960c941cb247392bd4cb087eda9513c23426b5b5877b980121030d39805ab0efbcca1c22416cce6fed5ae114d704b29e45da78188c61aa474e480247304402203610303b75e064021ccf7f00ae54b88aeb61184cdca69f34ca68575d9154fd5c02205c87d834dd8eb9c5844a40549e5dcaa60b7d1a26e0ebfabd6659ebf10b221dd3012103c3181c7532b84e5da80e9db3a5baad11c01aa927b83f87c6334a677284c3ad14024830450221009c676b7953a42ee1f5e22a3e7d3d8ea8cfe607c57d49c0ca8ae135da67400b8f02200e6b9fff82b72dd4210581c03272432159918e430c331b919f6c04f5b93ef6240121036cbdcdb49e5fd76fbf8dc40af4ea613cb537a95c4c773633eb962f786f97f6d1024730440220664c92e4e8a212d60fd5d4dbeded365a11903746480564085a2738794a75c8d802205367fce512ccef818d1f697e4e972aa278e24a17b14399250c2afb59c55baf8b012103dbcfcb5e3725bed67d10fdbfbb10fa7cc8c2c75e659c17c0345d9e7be9ad08cc02473044022005913021c3e1caf38d3e380d308e1a64762563a27293b27e0373feaa7d742b5802202963b90c28bbef2a577d0815b15c65cc02a2c42f830ebb19ad0060503ef86518012103fd0d2c2d210b45170bbe576d5b1417b2be32be2e5ae33beadad02505873abae00247304402204a78a1cbb2ed5410bdd9ca443841503276d0db0f084465bba6fae53b0f448f9c0220427e52882dde57c13db224777e848dc1156775da9d71314e496774c222f2d6f20121032d1b3e847e1945d65830cc9e83d40c5480c8792229b606f2f48a145e83f19cd90247304402206e8ac0689db998fff60753decc9a2d855c64d90cd8989dea5885c635ab1699f302207bd2266aaeda65d77bc16a50ec22f5d06ab2a9cf8cb5c71b238ec14b9e1ce4b0012103c4fb661e4ef3f1a0e3e3e63e76dd0dcb9a9eb4b17ca5e0bb0b25a957f1babe640247304402206cb5410a48efbd4a692a5ba8c22c859710cb125dba267f624a622bb5f3257fee022006e6082ce55b5c0ef4790425c4b41f51c263d2597e54892ee6c5cf25ee1807780121036cba2320a601f8977c77a094d4fa8a0ba32e55252a3d9e3eb7c892300759ab5c024730440220501f47464fd672025810f89f46742803bf071a2440119f48d8e328ada3630792022048c7656404c65b915db4d747c3cd154925a42e29332aeae12aafdb5f247ed04a01210255afb27cfa64308e44fbe02b93425444107bbd37a6f20cae359ad5171c917fdb02483045022100f542f3a153ff0f9000b3c4e59b7a9e19ef73031ec4bf921c02f87337e5df261d022046ce03e54dafd5e26b6ca0b115af9d297a4dc537363ede7fa8efe6e6563819f70121033be15ebc42ae1b146dbcb600d31a2326e6c5436f75ea55536716b8513e516b3d02483045022100f275c940ec2d4afd4b20cb84dffe4ba33f9b6c6118101d063456c46a53f0fd2f0220399a989c54c8e39e006729d5badd1766fafa1edf9cbb8c569faa953d48f954900121028b36a82a471b84d8c50758b033b96551d3d1af228cad46dc9211eb0cd0ea555302473044022041500fc0adcc5613dc5621d5e44e761f7dbca9ce15bd23d9deeae83aa04b7c3b02200127535635d6aedfbf0a82af17cb5bc3c812266b8edcd0f29a5aa0e006f792b70121026cd75d39735fd2014a79c456dde9e6bfe36c859b32043b24665b5ece603f280f0247304402207c80ef5002f4b1d15e9e7b4cb0a817a56eb377f1e2ccfbe9498f887032b16272022023e16b746c6b7dd07bc9d636ff28a067b2305358fa21e008c5165c6872f1c0b0012103475242879c53e219965a4487bfc52d741e3f8b7d8caaa86d8e5bc2f4b80c893902483045022100eff2a2490479fc62802421c7d6cb5f655efbfa6a70ce6171a7e76410c1a2dafc022052f380d64208bab894b0fc3b0d3c2d37d1c09324eb1872ada54fe230104189b5012103eb1abad0e34c8f89fd210d818df23ea3371dd82ee058e8d6b9b47566b1ae61b10247304402206169cbbfd64528eac9fb6186da515147ad49a3d556733b6c290ede4ab6c684bf022079dee2965cea4cac369faf1267066520f9601d90d627695f9eed49a11d842e130121034623aa1e8b8765664edcb836fdcac15a61b4c2fb5e70b42f9e9b6d9126fe55c4024730440220221708b8518bca86db52eba9e3d36b98c03472232fe687b78f06095b4c0f21fc02206d9ff13442e59ea580234391c902c16f8e0fd0e2e9c8cf48c18c978dd7655cd0012102f89e2ef3cc15fc5d8a2676e04cc95966243d9a711b3075a3036441496a40cd22024730440220729a91c30b31e75a896c2b3e1090d38b0af3814bdce91aa7f60ffa0011799e450220495e963b1897c897224ea4f013d40d7241746d7e10bda5a47873510147bf76fa0121029152cda9bc1ee60a973677f56b07548be7b6385c7cb1bf9f322ac466746598620247304402202558d6ee3408a410978de0aeeaa77b8021d044d434f48dc2b118b0887fcc2b8502201fcebda825c3e23e146cf92e2c5ae03081bf268ca5734cfbf7db76da3ec2a25401210348d25a78d5011e3b6b651be67b9aa61960ba72df74f9039fa68a28ded2fbee2502483045022100b732b5325b679c726091b83ad13653b19a2e0d5579b07685a34f8e4170f4fc7302205eae43db19426bbccf2b1cfc5ee4dbc1a7a00fb385e0df280acae7b3b66bafcf012103ad6bde685993710d7eefe1533a1e53fa1c4824720bb6ba936766fb607892f016024830450221008378a0448797164b9d604580f730c42dda7f36b8a97c95e46cc8594595d5c03a022062f8d96fe22658d3f39e0dba9cfeea8d91d7939ea73a447d2ae81c52170481120121036c157fede33211d0243bbb15ba5e75bb43834ac8d92568c883c12b782e60f38602483045022100e7d5573ce90c73d4b2b8ac7968017750ab5985cfb017ca051564165922b8e91e0220472782a9a6550029b7012f2583d917d06063c485a798013f0ac81dd1408db1bb012103f545939aadea22a2b8d3ab848f10db6c05f50da68315f221369dabff86b685180247304402203064ad7969200d89faf3eb11b6800617298791eb9d346517c5714a4344dfede3022060be8bd5faf5bc5b8169f2ba3a66b22653c00c22f0dc37eb3d6c1335dd3deaa0012102eb676e5f14af64b18d6d29ec0e10c1e02a28b937ea56c9ad121e346b47468d1e024830450221008fc23237c121e05bd69604b2d2c723632adde6a45258e8946059d2b0e371b4fe02201bd4c72a701e10c98e9a26702ec90b093039632e3a7ab4ca798cc26635bc2a920121020788244d9de20f8a663493b215d3570896a2f9868f88b6f83707c1b15e94cd680247304402203dc5d4688285cf121466593dd0acec181d98ca9facc69dc0f5f6f7fb5699d1df02204e44743c61a6268b4b6b95d0d19ca555b039167934d520a956f0156130e6ab07012102040e2065861d2034a19f8986ae6c6022aa003eb455e3f8d3ed5d526dbc237162024730440220441d2b4b8fe8edf0b0f3f46f75c9b1fc247c027414b78cab6219854905690a2802200214de75c0b1ea1cbe73fd05d70e1122a073f47a43f35a80be88f8e45792195b012102b6dd013375dcb538a4193276711018b92b8812c1fcaa08fb5797c98ca48b22e502483045022100a6ddd2c05be48ae7e2e180943a15c8c06cc43771ab72ea10b96fc3de2796bd9d022042d1aaf256ba230f0a66d4a0b5c497b4229cdcb8269c4d75e5d103a92220ecac012103c304b9245f0a8cad548b5a5e0e730fffac1c9907928e6b4d5f81dda3e75b233602483045022100e600f2ad4b825e5c0ee2f3b3e0f1f57218d3e854039ecbbbe6632c9c55790eeb02202d0f0420d54d716dba818104ea2f82e01277ac6dbebb689e25ce6f210005962b012103217771def8b3b443a0d074cc31b57bbe4a61f7e64967f1a586b9be0b4c3c500602483045022100921d62661172ca2f420f76318599d22ceb58d6d4fd912cb03c7e34562ca80ed702204b9a770ae9e345e57346b795b7fca5ca206ab9923010192a5d12aa4bf43f63b601210394edcdd3e9d7256f96c3bedede16b33e0f578a0d8331bb32607d0e042786cac80248304502210099468cecac242bfc81b3c66925ca356fb53a5f63048781e0075ec9463920ddef022069a86ad6e9d4ce4c190f0fe2c3a15775e29c341aa2c5d8265ec83627df24e8dc012102a5e8e07eacf594e6d8bbc3d53bd2a7147c460b99ffa71ebb5899af3cd8e8d5d202473044022052874017847b10c78eeb69bf071e1578992c61d715cc234a181c99da0dea5fc30220670c5d6eb99a6d2d3375d28417295fc71e60857b311643f5edd36541bd64b9eb012102477257191458182dfd6bfa26475bd0a638691d50d7b325b1706e94f2d1d040f002483045022100c84b1605d469d2e9210550ddc5a5be2d4ea027b30ccbf582dddf3894ea2ce1e802205153094c0187a7d265e6d4a8e28f6688d82b87eb3e972b7081f62d2a9bd9e33f01210314f0144f5b03300bf226cabd9baf7837584840f7714fce49676620140c9c484700000000", "vin": [{"txinwitness": ["3044022009d501c48826e6f7647b6d17e45fb37fb1c5d71844de9facadf95efde4b0a9c6022002f9e3d77985008c214d5c2160fadce715a0c9538e40622d91ad4d2b0195c07401", "020d859f5a00522179894b5adfaa9503df15e58c2a7cd5318ffc0dd8e1f7c11023"], "sequence": 4294967294, "scriptSig": {"hex": "160014d7a18a4179bb3f11c71cc461d41f7a8697dfce1c", "asm": "0014d7a18a4179bb3f11c71cc461d41f7a8697dfce1c"}, "vout": 1, "txid": "844aeec37a88b0a1edb099eeb202dbfa71abde3362a0c1624c3884c689c43909"}, {"txinwitness": ["3045022100e45a3cbe1d3e79189516609ec2b5a9e72bba7c118c56773c56a13d129ba1905202203e890bc58d41ace893bfd999081cd85797946dd5bd708b684d084454bb88e20c01", "031f6e6a5750858a5d5a730fb8a2481b1396c55bb808459788d056ed32e235d9a2"], "sequence": 4294967294, "scriptSig": {"hex": "16001432f337ec7862d44a818e6b24e6c678e8e4c10a0d", "asm": "001432f337ec7862d44a818e6b24e6c678e8e4c10a0d"}, "vout": 1, "txid": "887602080d56b328ed68dc323b2bcb8f6cff156f34079c2a53400b3708172115"}, {"txinwitness": ["3045022100ea9f1be63203ef2f834aff1517848ac3ef9ff79162fdeb1fdd9c8252071227de022067d8a8358acf684c3987bffddcd6cad30e233c56f393bafac2a72c35a053cba201", "0395bf9fc6995aea2a7b4701e2f5d2df15d9aa0c3e4508d2fbab1ccdc5332a74d0"], "sequence": 4294967294, "scriptSig": {"hex": "160014d7634ead6f2e1b16994d34aa9e5241418010b246", "asm": "0014d7634ead6f2e1b16994d34aa9e5241418010b246"}, "vout": 1, "txid": "d2d3defc53f77c78b69bc7cb23a1b760ac3156ea540a9287fc4cee3b3f40fe16"}, {"txinwitness": ["3045022100c28108731298dcfef5959748cda46f85b77bfd1f8b9119aba33c64d58a5878540220698e302ea9f38e4b0d52e25243759e8b568dca9dd723151bc14d112503dd962101", "028e794f7b586bec9eb59922f6544638468fc86b73692bcc5a27d47d6431e644b4"], "sequence": 4294967294, "scriptSig": {"hex": "16001493fd5fd3f891eaa94d178f7a57cee901e93447a3", "asm": "001493fd5fd3f891eaa94d178f7a57cee901e93447a3"}, "vout": 0, "txid": "9d92146adfd196441e765c007a2712e0f2cb85d96d5f7e727da87b89c28fe918"}, {"txinwitness": ["3045022100b504643992060c2093dc76752b0f2780d043852d2b4e8d5e8929aa1c111c681d0220550b8e2fe44c8dc22b5f535ebc594534a94ae4e64dc0b043f7928fcfa9b5eee401", "0346a33f325f73925037784eef674162c5e8b7c2b518ae9923c7b1cc42a2fe776b"], "sequence": 4294967294, "scriptSig": {"hex": "160014c828463e792e3197fec98a17b6e1a57a63b52af6", "asm": "0014c828463e792e3197fec98a17b6e1a57a63b52af6"}, "vout": 1, "txid": "2d2a68a60d6bd68deadeae964d01974aebbebceb73243ca27041a592483fdc21"}, {"txinwitness": ["304402206cd05b26c87566c0dbd303a7f0ae38bf58e1a1d24eb803ce1f2a42ebca94419f022038a009c0c4575f53af965afe10b8bb348adf5cdde746dc8b53ce2864e674e11f01", "0342ea72058b0ebcc75112694beeb63253b1a6ced78302a154403c01d4dbdfac64"], "sequence": 4294967294, "scriptSig": {"hex": "1600148b751a87bb0061227e587d29548e0360f992f623", "asm": "00148b751a87bb0061227e587d29548e0360f992f623"}, "vout": 1, "txid": "9ecbb8812d96532985fe5f1dbc8dd828a329d1da622178344be15c4e861a7929"}, {"txinwitness": ["3045022100cb59698015df47154dda275c46d72d62d232c558befe15461d5b1fd90cf84bb4022013d4730f9b141e9443960c941cb247392bd4cb087eda9513c23426b5b5877b9801", "030d39805ab0efbcca1c22416cce6fed5ae114d704b29e45da78188c61aa474e48"], "sequence": 4294967294, "scriptSig": {"hex": "160014019e79f9c4707742c1bcddf6b303e8360aa44cdb", "asm": "0014019e79f9c4707742c1bcddf6b303e8360aa44cdb"}, "vout": 0, "txid": "96de7aa7cb2b8ad34aaf938eee39e8c5a73a6a5a9ea2e77ff4d3fb2d317ef434"}, {"txinwitness": ["304402203610303b75e064021ccf7f00ae54b88aeb61184cdca69f34ca68575d9154fd5c02205c87d834dd8eb9c5844a40549e5dcaa60b7d1a26e0ebfabd6659ebf10b221dd301", "03c3181c7532b84e5da80e9db3a5baad11c01aa927b83f87c6334a677284c3ad14"], "sequence": 4294967294, "scriptSig": {"hex": "1600147d61edf85a29e691a084279659935b1ab5e75e8c", "asm": "00147d61edf85a29e691a084279659935b1ab5e75e8c"}, "vout": 0, "txid": "d0e6b448cda586049a9e0367cafca0e938deb690a20359c7a6ad379060933f3a"}, {"txinwitness": ["30450221009c676b7953a42ee1f5e22a3e7d3d8ea8cfe607c57d49c0ca8ae135da67400b8f02200e6b9fff82b72dd4210581c03272432159918e430c331b919f6c04f5b93ef62401", "036cbdcdb49e5fd76fbf8dc40af4ea613cb537a95c4c773633eb962f786f97f6d1"], "sequence": 4294967294, "scriptSig": {"hex": "160014703d0d64402add3e6f7293d9f2cac90040aa325d", "asm": "0014703d0d64402add3e6f7293d9f2cac90040aa325d"}, "vout": 0, "txid": "70cd57aa127165fe996e840c8a5ce7d6445bd15263aee596c2c1d8d163541344"}, {"txinwitness": ["30440220664c92e4e8a212d60fd5d4dbeded365a11903746480564085a2738794a75c8d802205367fce512ccef818d1f697e4e972aa278e24a17b14399250c2afb59c55baf8b01", "03dbcfcb5e3725bed67d10fdbfbb10fa7cc8c2c75e659c17c0345d9e7be9ad08cc"], "sequence": 4294967294, "scriptSig": {"hex": "160014547830fb64aa7408fe61b16488147e92395e2e23", "asm": "0014547830fb64aa7408fe61b16488147e92395e2e23"}, "vout": 0, "txid": "2612c1434fe17e3411d25ed4ad033d65dc148a12ac4a26246bcf12e2da0cf249"}, {"txinwitness": ["3044022005913021c3e1caf38d3e380d308e1a64762563a27293b27e0373feaa7d742b5802202963b90c28bbef2a577d0815b15c65cc02a2c42f830ebb19ad0060503ef8651801", "03fd0d2c2d210b45170bbe576d5b1417b2be32be2e5ae33beadad02505873abae0"], "sequence": 4294967294, "scriptSig": {"hex": "160014551d28a6aefae96128f3c84e9615895cdeb4feb3", "asm": "0014551d28a6aefae96128f3c84e9615895cdeb4feb3"}, "vout": 0, "txid": "89d0fea86683fc7a05fae4f1f13d31dde832ad344011b8bfdde0d7a7a6ad325a"}, {"txinwitness": ["304402204a78a1cbb2ed5410bdd9ca443841503276d0db0f084465bba6fae53b0f448f9c0220427e52882dde57c13db224777e848dc1156775da9d71314e496774c222f2d6f201", "032d1b3e847e1945d65830cc9e83d40c5480c8792229b606f2f48a145e83f19cd9"], "sequence": 4294967294, "scriptSig": {"hex": "1600144b522c582b0d72f4a480c8efcbb82fc935f8755a", "asm": "00144b522c582b0d72f4a480c8efcbb82fc935f8755a"}, "vout": 0, "txid": "aa3bbd65cbef2b5c06985b790cbd4bc5e72f2b7b707224a7569456b39f4c3967"}, {"txinwitness": ["304402206e8ac0689db998fff60753decc9a2d855c64d90cd8989dea5885c635ab1699f302207bd2266aaeda65d77bc16a50ec22f5d06ab2a9cf8cb5c71b238ec14b9e1ce4b001", "03c4fb661e4ef3f1a0e3e3e63e76dd0dcb9a9eb4b17ca5e0bb0b25a957f1babe64"], "sequence": 4294967294, "scriptSig": {"hex": "1600142e0569a971af89e7ade742b0c10f4d56bdc571a3", "asm": "00142e0569a971af89e7ade742b0c10f4d56bdc571a3"}, "vout": 0, "txid": "37734032ad7aebe5ba9d8c5519158300a3d33355731af9c33042253d31ad0269"}, {"txinwitness": ["304402206cb5410a48efbd4a692a5ba8c22c859710cb125dba267f624a622bb5f3257fee022006e6082ce55b5c0ef4790425c4b41f51c263d2597e54892ee6c5cf25ee18077801", "036cba2320a601f8977c77a094d4fa8a0ba32e55252a3d9e3eb7c892300759ab5c"], "sequence": 4294967294, "scriptSig": {"hex": "1600142dadb7758ca7ea35d750579ca4ef606148ea23fd", "asm": "00142dadb7758ca7ea35d750579ca4ef606148ea23fd"}, "vout": 1, "txid": "4c8a5aabef700fcdb73e597b181c13854f47db6acd2862d60cee55fadf37926b"}, {"txinwitness": ["30440220501f47464fd672025810f89f46742803bf071a2440119f48d8e328ada3630792022048c7656404c65b915db4d747c3cd154925a42e29332aeae12aafdb5f247ed04a01", "0255afb27cfa64308e44fbe02b93425444107bbd37a6f20cae359ad5171c917fdb"], "sequence": 4294967294, "scriptSig": {"hex": "160014a3dc20de05cfddf295c23a61e8380efb82ef9a0a", "asm": "0014a3dc20de05cfddf295c23a61e8380efb82ef9a0a"}, "vout": 1, "txid": "35931c0ef39be48811d52d858bd927f6c605d159ce1ef42fab0350c35f9ae86c"}, {"txinwitness": ["3045022100f542f3a153ff0f9000b3c4e59b7a9e19ef73031ec4bf921c02f87337e5df261d022046ce03e54dafd5e26b6ca0b115af9d297a4dc537363ede7fa8efe6e6563819f701", "033be15ebc42ae1b146dbcb600d31a2326e6c5436f75ea55536716b8513e516b3d"], "sequence": 4294967294, "scriptSig": {"hex": "16001471b3b64184c1d208157d42cdb02c822769962dfb", "asm": "001471b3b64184c1d208157d42cdb02c822769962dfb"}, "vout": 0, "txid": "49a5213dfa4b04e106ea1b8bc82e730ac7b82ac2e23f7f047cdf6bb19f1a0578"}, {"txinwitness": ["3045022100f275c940ec2d4afd4b20cb84dffe4ba33f9b6c6118101d063456c46a53f0fd2f0220399a989c54c8e39e006729d5badd1766fafa1edf9cbb8c569faa953d48f9549001", "028b36a82a471b84d8c50758b033b96551d3d1af228cad46dc9211eb0cd0ea5553"], "sequence": 4294967294, "scriptSig": {"hex": "1600140ebfc6c65d4d886626f940196cd2945b93670c15", "asm": "00140ebfc6c65d4d886626f940196cd2945b93670c15"}, "vout": 1, "txid": "49a5213dfa4b04e106ea1b8bc82e730ac7b82ac2e23f7f047cdf6bb19f1a0578"}, {"txinwitness": ["3044022041500fc0adcc5613dc5621d5e44e761f7dbca9ce15bd23d9deeae83aa04b7c3b02200127535635d6aedfbf0a82af17cb5bc3c812266b8edcd0f29a5aa0e006f792b701", "026cd75d39735fd2014a79c456dde9e6bfe36c859b32043b24665b5ece603f280f"], "sequence": 4294967294, "scriptSig": {"hex": "1600147b05cf4665841d0723f565946ba82502ce6b3ec7", "asm": "00147b05cf4665841d0723f565946ba82502ce6b3ec7"}, "vout": 0, "txid": "56aadf92a9a73f6a5ee21059093c985d6d7e11dc73f71008ebd9be94b91fcf79"}, {"txinwitness": ["304402207c80ef5002f4b1d15e9e7b4cb0a817a56eb377f1e2ccfbe9498f887032b16272022023e16b746c6b7dd07bc9d636ff28a067b2305358fa21e008c5165c6872f1c0b001", "03475242879c53e219965a4487bfc52d741e3f8b7d8caaa86d8e5bc2f4b80c8939"], "sequence": 4294967294, "scriptSig": {"hex": "1600147d136527dafb21954f1d0f367731df624b377870", "asm": "00147d136527dafb21954f1d0f367731df624b377870"}, "vout": 9, "txid": "18f5db6a92190e0d83c1854f46574e191ffa5b46ce640b36f2600a0af2838d81"}, {"txinwitness": ["3045022100eff2a2490479fc62802421c7d6cb5f655efbfa6a70ce6171a7e76410c1a2dafc022052f380d64208bab894b0fc3b0d3c2d37d1c09324eb1872ada54fe230104189b501", "03eb1abad0e34c8f89fd210d818df23ea3371dd82ee058e8d6b9b47566b1ae61b1"], "sequence": 4294967294, "scriptSig": {"hex": "160014e716808ce6b66d8799f7b296076fcfd80eda00a2", "asm": "0014e716808ce6b66d8799f7b296076fcfd80eda00a2"}, "vout": 0, "txid": "a1e22ea5c5fab0a9608a725ee448805ad72d4cfd2b6669e906c8b34c3d829f83"}, {"txinwitness": ["304402206169cbbfd64528eac9fb6186da515147ad49a3d556733b6c290ede4ab6c684bf022079dee2965cea4cac369faf1267066520f9601d90d627695f9eed49a11d842e1301", "034623aa1e8b8765664edcb836fdcac15a61b4c2fb5e70b42f9e9b6d9126fe55c4"], "sequence": 4294967294, "scriptSig": {"hex": "160014731b85bc403368aab49e0118e09a4641e4b1d115", "asm": "0014731b85bc403368aab49e0118e09a4641e4b1d115"}, "vout": 1, "txid": "ec43c6af9845a39ec8e4bab64e2e6d5a0b15ab0cdfbc9330d30c8e2b522d1e87"}, {"txinwitness": ["30440220221708b8518bca86db52eba9e3d36b98c03472232fe687b78f06095b4c0f21fc02206d9ff13442e59ea580234391c902c16f8e0fd0e2e9c8cf48c18c978dd7655cd001", "02f89e2ef3cc15fc5d8a2676e04cc95966243d9a711b3075a3036441496a40cd22"], "sequence": 4294967294, "scriptSig": {"hex": "160014aaba98478e5fe97c350f8e0fd93c9784266ccf4d", "asm": "0014aaba98478e5fe97c350f8e0fd93c9784266ccf4d"}, "vout": 0, "txid": "e03a719ad87741a95b7927c7f44aff36b149972efd9563fcb089a3cb2f6ff88a"}, {"txinwitness": ["30440220729a91c30b31e75a896c2b3e1090d38b0af3814bdce91aa7f60ffa0011799e450220495e963b1897c897224ea4f013d40d7241746d7e10bda5a47873510147bf76fa01", "029152cda9bc1ee60a973677f56b07548be7b6385c7cb1bf9f322ac46674659862"], "sequence": 4294967294, "scriptSig": {"hex": "160014f30ae9508b1392a84c9e96f8b92a305d9523bd12", "asm": "0014f30ae9508b1392a84c9e96f8b92a305d9523bd12"}, "vout": 1, "txid": "a9cc39aa0d348bf4897bfb53c9be672e995ac8b1719d3fe085c751d0b4b4ab8b"}, {"txinwitness": ["304402202558d6ee3408a410978de0aeeaa77b8021d044d434f48dc2b118b0887fcc2b8502201fcebda825c3e23e146cf92e2c5ae03081bf268ca5734cfbf7db76da3ec2a25401", "0348d25a78d5011e3b6b651be67b9aa61960ba72df74f9039fa68a28ded2fbee25"], "sequence": 4294967294, "scriptSig": {"hex": "1600147485240ae511ccc392110e84746fbcec65e4011a", "asm": "00147485240ae511ccc392110e84746fbcec65e4011a"}, "vout": 0, "txid": "28fc4bf0018a5340f6bf29dd71eb6bc34ad186d1a31ca6f79d20854c28d03794"}, {"txinwitness": ["3045022100b732b5325b679c726091b83ad13653b19a2e0d5579b07685a34f8e4170f4fc7302205eae43db19426bbccf2b1cfc5ee4dbc1a7a00fb385e0df280acae7b3b66bafcf01", "03ad6bde685993710d7eefe1533a1e53fa1c4824720bb6ba936766fb607892f016"], "sequence": 4294967294, "scriptSig": {"hex": "16001442c32392889880f728b1ddb9949c14b050286b94", "asm": "001442c32392889880f728b1ddb9949c14b050286b94"}, "vout": 0, "txid": "87d73f0b3b5878fa638e99c62fc21a2e20399f91b70cf3937dad6e1d30d56299"}, {"txinwitness": ["30450221008378a0448797164b9d604580f730c42dda7f36b8a97c95e46cc8594595d5c03a022062f8d96fe22658d3f39e0dba9cfeea8d91d7939ea73a447d2ae81c521704811201", "036c157fede33211d0243bbb15ba5e75bb43834ac8d92568c883c12b782e60f386"], "sequence": 4294967294, "scriptSig": {"hex": "160014c44ceb3bcff4605b8c6b73529b06fbd8f1b3cfb2", "asm": "0014c44ceb3bcff4605b8c6b73529b06fbd8f1b3cfb2"}, "vout": 0, "txid": "7d6d509ffbc1f588816912af24b72cd3a01e613860a60bb9111649a19a62b69d"}, {"txinwitness": ["3045022100e7d5573ce90c73d4b2b8ac7968017750ab5985cfb017ca051564165922b8e91e0220472782a9a6550029b7012f2583d917d06063c485a798013f0ac81dd1408db1bb01", "03f545939aadea22a2b8d3ab848f10db6c05f50da68315f221369dabff86b68518"], "sequence": 4294967294, "scriptSig": {"hex": "16001474655e8b90ef0f89a713f89b92c384e6900321b6", "asm": "001474655e8b90ef0f89a713f89b92c384e6900321b6"}, "vout": 0, "txid": "2c31ee605e854ebfe86b0f5902d5374118a1871ff9f58f64c054fce4efb416a4"}, {"txinwitness": ["304402203064ad7969200d89faf3eb11b6800617298791eb9d346517c5714a4344dfede3022060be8bd5faf5bc5b8169f2ba3a66b22653c00c22f0dc37eb3d6c1335dd3deaa001", "02eb676e5f14af64b18d6d29ec0e10c1e02a28b937ea56c9ad121e346b47468d1e"], "sequence": 4294967294, "scriptSig": {"hex": "160014d35f84c457eb752c048b45e70e121f731fa1dc69", "asm": "0014d35f84c457eb752c048b45e70e121f731fa1dc69"}, "vout": 1, "txid": "d5127bb03f05c4324c40fb251f674d618c6a98f42243d762ae8ba70c42c9feaa"}, {"txinwitness": ["30450221008fc23237c121e05bd69604b2d2c723632adde6a45258e8946059d2b0e371b4fe02201bd4c72a701e10c98e9a26702ec90b093039632e3a7ab4ca798cc26635bc2a9201", "020788244d9de20f8a663493b215d3570896a2f9868f88b6f83707c1b15e94cd68"], "sequence": 4294967294, "scriptSig": {"hex": "160014547989ed1b8b7c06ae380545c67a35c0cf9cd069", "asm": "0014547989ed1b8b7c06ae380545c67a35c0cf9cd069"}, "vout": 0, "txid": "e6e48a56efb6663ae7b10564c64e392036e0a8c3194006a88dac2ea3efac20bd"}, {"txinwitness": ["304402203dc5d4688285cf121466593dd0acec181d98ca9facc69dc0f5f6f7fb5699d1df02204e44743c61a6268b4b6b95d0d19ca555b039167934d520a956f0156130e6ab0701", "02040e2065861d2034a19f8986ae6c6022aa003eb455e3f8d3ed5d526dbc237162"], "sequence": 4294967294, "scriptSig": {"hex": "16001458a3dd93a381ca047316fc4c257d2fdd69a262ec", "asm": "001458a3dd93a381ca047316fc4c257d2fdd69a262ec"}, "vout": 0, "txid": "b591d0e3ee88c614b9783de7b6f2edf3cf4e334f9db7ba1a910a97cc1b91c8bf"}, {"txinwitness": ["30440220441d2b4b8fe8edf0b0f3f46f75c9b1fc247c027414b78cab6219854905690a2802200214de75c0b1ea1cbe73fd05d70e1122a073f47a43f35a80be88f8e45792195b01", "02b6dd013375dcb538a4193276711018b92b8812c1fcaa08fb5797c98ca48b22e5"], "sequence": 4294967294, "scriptSig": {"hex": "16001433015f4651d87573e04b6c228c779e6073d9c8f1", "asm": "001433015f4651d87573e04b6c228c779e6073d9c8f1"}, "vout": 0, "txid": "7b4b0a13c5e61c9b0168732a1145e324831d59de7d260cb20c289df0725f9ed6"}, {"txinwitness": ["3045022100a6ddd2c05be48ae7e2e180943a15c8c06cc43771ab72ea10b96fc3de2796bd9d022042d1aaf256ba230f0a66d4a0b5c497b4229cdcb8269c4d75e5d103a92220ecac01", "03c304b9245f0a8cad548b5a5e0e730fffac1c9907928e6b4d5f81dda3e75b2336"], "sequence": 4294967294, "scriptSig": {"hex": "16001450494a7e13f310d773eae65d5b66b1f741e63573", "asm": "001450494a7e13f310d773eae65d5b66b1f741e63573"}, "vout": 0, "txid": "e1806c2c1b4f54ebed6a31723820d9482d696fa69a3db3caa81372260338a3da"}, {"txinwitness": ["3045022100e600f2ad4b825e5c0ee2f3b3e0f1f57218d3e854039ecbbbe6632c9c55790eeb02202d0f0420d54d716dba818104ea2f82e01277ac6dbebb689e25ce6f210005962b01", "03217771def8b3b443a0d074cc31b57bbe4a61f7e64967f1a586b9be0b4c3c5006"], "sequence": 4294967294, "scriptSig": {"hex": "160014361a47cb6ee6fcf07766c129a70e5b3e025307d9", "asm": "0014361a47cb6ee6fcf07766c129a70e5b3e025307d9"}, "vout": 1, "txid": "135f331b3b88f69434ff566dfedb338b90b34ff52b9f04c73fe25f3ae84ca3e6"}, {"txinwitness": ["3045022100921d62661172ca2f420f76318599d22ceb58d6d4fd912cb03c7e34562ca80ed702204b9a770ae9e345e57346b795b7fca5ca206ab9923010192a5d12aa4bf43f63b601", "0394edcdd3e9d7256f96c3bedede16b33e0f578a0d8331bb32607d0e042786cac8"], "sequence": 4294967294, "scriptSig": {"hex": "160014449d76d8ce5007a483c1f5ae7d7cec799f977f61", "asm": "0014449d76d8ce5007a483c1f5ae7d7cec799f977f61"}, "vout": 0, "txid": "665e38a3746c602c965b1d733aa9cd2cd195f10af5fc8ab48f2cf94450ac18ee"}, {"txinwitness": ["304502210099468cecac242bfc81b3c66925ca356fb53a5f63048781e0075ec9463920ddef022069a86ad6e9d4ce4c190f0fe2c3a15775e29c341aa2c5d8265ec83627df24e8dc01", "02a5e8e07eacf594e6d8bbc3d53bd2a7147c460b99ffa71ebb5899af3cd8e8d5d2"], "sequence": 4294967294, "scriptSig": {"hex": "1600147dfd2cbd97b69a70d32acfd82fd952f3e401e6e0", "asm": "00147dfd2cbd97b69a70d32acfd82fd952f3e401e6e0"}, "vout": 1, "txid": "e8cbdad4371d3c3e82de0cbd5ebcda0ab7a9bebf48d38ad4ae1de2d2be3f6df0"}, {"txinwitness": ["3044022052874017847b10c78eeb69bf071e1578992c61d715cc234a181c99da0dea5fc30220670c5d6eb99a6d2d3375d28417295fc71e60857b311643f5edd36541bd64b9eb01", "02477257191458182dfd6bfa26475bd0a638691d50d7b325b1706e94f2d1d040f0"], "sequence": 4294967294, "scriptSig": {"hex": "160014128abc681f8b4d74d890930b69ee3dad4262fcde", "asm": "0014128abc681f8b4d74d890930b69ee3dad4262fcde"}, "vout": 0, "txid": "619ba920589eacfac6a09e35b204098b1e554412cfaf8c55a798f4661e3233f2"}, {"txinwitness": ["3045022100c84b1605d469d2e9210550ddc5a5be2d4ea027b30ccbf582dddf3894ea2ce1e802205153094c0187a7d265e6d4a8e28f6688d82b87eb3e972b7081f62d2a9bd9e33f01", "0314f0144f5b03300bf226cabd9baf7837584840f7714fce49676620140c9c4847"], "sequence": 4294967294, "scriptSig": {"hex": "1600140f93f2438afe5b87d2ec0467c13c570e8b9d4fc0", "asm": "00140f93f2438afe5b87d2ec0467c13c570e8b9d4fc0"}, "vout": 1, "txid": "a3f53d5202f385859ab4dd9169dccb63aea22b02240da2aff47708497c46f0f7"}], "txid": "eaea0d3ca6ceb8f3f9ce8aaa9d5543823881ee67d0b92bbf6454aa9f9899ed49", "blocktime": 1537869901, "version": 2, "confirmations": 11524, "time": 1537869901, "locktime": 0, "vsize": 3437, "size": 6421}