{"hash": "82c850741c0d5251b2df804a29d8e27262d3b0e589629f284e610cef02a90d61", "blockhash": "0000000000000000000dcc0f55137456b1a82d3642486a52398922ac4d620174", "vout": [{"scriptPubKey": {"reqSigs": 1, "hex": "76a914232ef29ca404c239b6917a59abcd94d53d7b38e788ac", "addresses": ["14D2thTqBsHZsZRtBmmaACfDcK2PH5SFDi"], "asm": "OP_DUP OP_HASH160 232ef29ca404c239b6917a59abcd94d53d7b38e7 OP_EQUALVERIFY OP_CHECKSIG", "type": "pubkeyhash"}, "value": 0.10037757, "n": 0}, {"scriptPubKey": {"reqSigs": 1, "hex": "76a9142b1cf14af9e2a28fdb5ebde16bcecc9b1de4f0f288ac", "addresses": ["14vxjDKNR53pQitUCg1MDSVcXEFomy7FW3"], "asm": "OP_DUP OP_HASH160 2b1cf14af9e2a28fdb5ebde16bcecc9b1de4f0f2 OP_EQUALVERIFY OP_CHECKSIG", "type": "pubkeyhash"}, "value": 0.02969711, "n": 1}, {"scriptPubKey": {"reqSigs": 1, "hex": "76a91487018b27ff448121638f8cb0490cfa6c00d1c0ad88ac", "addresses": ["1DJr59X37SQaTwbKWUbTxszx12wKxtLgxC"], "asm": "OP_DUP OP_HASH160 87018b27ff448121638f8cb0490cfa6c00d1c0ad OP_EQUALVERIFY OP_CHECKSIG", "type": "pubkeyhash"}, "value": 0.01204408, "n": 2}, {"scriptPubKey": {"reqSigs": 1, "hex": "76a9145a685286696562121d98204ff04e91919fc608ed88ac", "addresses": ["19F2niABJRsbJLSbWbVnEhLMhCq5a5FmCD"], "asm": "OP_DUP OP_HASH160 5a685286696562121d98204ff04e91919fc608ed OP_EQUALVERIFY OP_CHECKSIG", "type": "pubkeyhash"}, "value": 0.03068459, "n": 3}, {"scriptPubKey": {"reqSigs": 1, "hex": "76a91425958ef44e25a9898176005c9e0afdf0a6c3159088ac", "addresses": ["14RjAbigG7sAqsZxfMQ8KjqZZg959o6zbk"], "asm": "OP_DUP OP_HASH160 25958ef44e25a9898176005c9e0afdf0a6c31590 OP_EQUALVERIFY OP_CHECKSIG", "type": "pubkeyhash"}, "value": 0.0246, "n": 4}, {"scriptPubKey": {"reqSigs": 1, "hex": "76a9140efe30fa559001f3b8207884fe052c3a953c107788ac", "addresses": ["12NGyD5E5tJmyNmfPV5oT8StQe3uuvrKw5"], "asm": "OP_DUP OP_HASH160 0efe30fa559001f3b8207884fe052c3a953c1077 OP_EQUALVERIFY OP_CHECKSIG", "type": "pubkeyhash"}, "value": 0.18746023, "n": 5}, {"scriptPubKey": {"reqSigs": 1, "hex": "a914da053e31f773b16cbfcc0a7c5068023aaf9822d887", "addresses": ["3MZoWeccH53v9WAmVaPbuJAa46gCZRVavL"], "asm": "OP_HASH160 da053e31f773b16cbfcc0a7c5068023aaf9822d8 OP_EQUAL", "type": "scripthash"}, "value": 0.01937327, "n": 6}], "hex": "02000000000101040f12aa1c757fe8699eb1f62f98229d53ab5a11079fbbc6e1485f5a1b8dc0a00100000017160014ef795856bfe137437b0cf44405a30229e7eb5e88ffffffff07fd299900000000001976a914232ef29ca404c239b6917a59abcd94d53d7b38e788ac6f502d00000000001976a9142b1cf14af9e2a28fdb5ebde16bcecc9b1de4f0f288acb8601200000000001976a91487018b27ff448121638f8cb0490cfa6c00d1c0ad88ac2bd22e00000000001976a9145a685286696562121d98204ff04e91919fc608ed88ac60892500000000001976a91425958ef44e25a9898176005c9e0afdf0a6c3159088aca70a1e01000000001976a9140efe30fa559001f3b8207884fe052c3a953c107788acaf8f1d000000000017a914da053e31f773b16cbfcc0a7c5068023aaf9822d88702483045022100f35d7e22a13120c7c95cb298ab5130059706a33d38c25642d7f220a0483201fa022022e421f0f240a2f546e46d3edcff19ee01474977d7906da27a04e95a7062ff6e0121022d17495703455e40f8a0fae833a6d21dae863c213b3a3dcd956ea844a23fa93600000000", "vin": [{"txinwitness": ["3045022100f35d7e22a13120c7c95cb298ab5130059706a33d38c25642d7f220a0483201fa022022e421f0f240a2f546e46d3edcff19ee01474977d7906da27a04e95a7062ff6e01", "022d17495703455e40f8a0fae833a6d21dae863c213b3a3dcd956ea844a23fa936"], "sequence": 4294967295, "scriptSig": {"hex": "160014ef795856bfe137437b0cf44405a30229e7eb5e88", "asm": "0014ef795856bfe137437b0cf44405a30229e7eb5e88"}, "vout": 1, "txid": "a0c08d1b5a5f48e1c6bb9f07115aab539d22982ff6b19e69e87f751caa120f04"}], "txid": "eaefaef53cbea8324dc5aee427da3eee651c2f5080d19978d7b30d328109c1d4", "blocktime": 1537870268, "version": 2, "confirmations": 11516, "time": 1537870268, "locktime": 0, "vsize": 338, "size": 420}