{"hash": "eaf5e3fff4978e82cb94353c03a73f4455ff067588a753b378a5e631a5850da7", "blockhash": "0000000000000000001cda96e906b7601b7a6fb1a3b62bca570a9e5d8f4b3de1", "vout": [{"scriptPubKey": {"reqSigs": 1, "hex": "76a914d243e6abb9a60fbff430b421d2df4b7d59ec186088ac", "addresses": ["1LAnF8h3qMGx3TSwNUHVneBZUEpwE4gu3D"], "asm": "OP_DUP OP_HASH160 d243e6abb9a60fbff430b421d2df4b7d59ec1860 OP_EQUALVERIFY OP_CHECKSIG", "type": "pubkeyhash"}, "value": 0.00077314, "n": 0}, {"scriptPubKey": {"reqSigs": 1, "hex": "76a914916a3fd7a7230a5cadf950a5a53d783bc51b79ea88ac", "addresses": ["1EFtG9pX5ddf8GCkr4hNam1ujYviP95CDC"], "asm": "OP_DUP OP_HASH160 916a3fd7a7230a5cadf950a5a53d783bc51b79ea OP_EQUALVERIFY OP_CHECKSIG", "type": "pubkeyhash"}, "value": 5.46e-06, "n": 1}, {"scriptPubKey": {"type": "nulldata", "hex": "6a146f6d6e69000000000000001f000001206419e580", "asm": "OP_RETURN 6f6d6e69000000000000001f000001206419e580"}, "value": 0.0, "n": 2}], "hex": "01000000010a16823c1bd7c08c1b540f8f87312486438018a7bee4f9e702d7d1713c0332b1000000006b483045022100bd0dc7da1492e257c06adb87e6a9816a45abc13adc84126cdb1db8ba13fdd95602204cd207d007f208e9c2c477dcb71e9a557bc152e0cdbd3d6effb8b648da6c1fad01210271977291b74f1f5f5c42157e8aae804664eaaeccfd097918450d37f28fb94d77ffffffff03022e0100000000001976a914d243e6abb9a60fbff430b421d2df4b7d59ec186088ac22020000000000001976a914916a3fd7a7230a5cadf950a5a53d783bc51b79ea88ac0000000000000000166a146f6d6e69000000000000001f000001206419e58000000000", "vin": [{"sequence": 4294967295, "scriptSig": {"hex": "483045022100bd0dc7da1492e257c06adb87e6a9816a45abc13adc84126cdb1db8ba13fdd95602204cd207d007f208e9c2c477dcb71e9a557bc152e0cdbd3d6effb8b648da6c1fad01210271977291b74f1f5f5c42157e8aae804664eaaeccfd097918450d37f28fb94d77", "asm": "3045022100bd0dc7da1492e257c06adb87e6a9816a45abc13adc84126cdb1db8ba13fdd95602204cd207d007f208e9c2c477dcb71e9a557bc152e0cdbd3d6effb8b648da6c1fad[ALL] 0271977291b74f1f5f5c42157e8aae804664eaaeccfd097918450d37f28fb94d77"}, "vout": 0, "txid": "b132033c71d1d702e7f9e4bea7188043862431878f0f541b8cc0d71b3c82160a"}], "txid": "eaf5e3fff4978e82cb94353c03a73f4455ff067588a753b378a5e631a5850da7", "blocktime": 1537873282, "version": 1, "confirmations": 11483, "time": 1537873282, "locktime": 0, "vsize": 257, "size": 257}