{"hash": "eaf5887041456bcb3cd3615cb409d9fd1dd873625fd4d908daa43d0e7c0c6897", "blockhash": "0000000000000000000dcc0f55137456b1a82d3642486a52398922ac4d620174", "vout": [{"scriptPubKey": {"reqSigs": 1, "hex": "76a9147f02ed6ca650529c2c70102f72176401d9e2dd1a88ac", "addresses": ["1CaaKmLmsQFPgRRu1DvQuuLTV7FU32UmUX"], "asm": "OP_DUP OP_HASH160 7f02ed6ca650529c2c70102f72176401d9e2dd1a OP_EQUALVERIFY OP_CHECKSIG", "type": "pubkeyhash"}, "value": 0.00193719, "n": 0}, {"scriptPubKey": {"reqSigs": 1, "hex": "76a914b6745651855b33196d71303af777869fc081b71c88ac", "addresses": ["1HdjMAQg3v2bneBjC5bVEiSH17dxeQXk8y"], "asm": "OP_DUP OP_HASH160 b6745651855b33196d71303af777869fc081b71c OP_EQUALVERIFY OP_CHECKSIG", "type": "pubkeyhash"}, "value": 0.06471925, "n": 1}], "hex": "0100000001140680587726c1e6e3c93e4dc072912ee79b680609f8feaf141f314e288cfb01000000006b483045022100ffb5cffa8f69dff5c426204d2392c78754741f8a32aa24f4bdf2510ece5b9c6e022028d0ff3ae5cf39d7b58979755aa7a91e956ff615d88812759822b2355a0e8c0f0121022564d42ec9b3a587d195abc4d87e72da6b135a65740878833433d154b687a97bffffffff02b7f40200000000001976a9147f02ed6ca650529c2c70102f72176401d9e2dd1a88acf5c06200000000001976a914b6745651855b33196d71303af777869fc081b71c88ac00000000", "vin": [{"sequence": 4294967295, "scriptSig": {"hex": "483045022100ffb5cffa8f69dff5c426204d2392c78754741f8a32aa24f4bdf2510ece5b9c6e022028d0ff3ae5cf39d7b58979755aa7a91e956ff615d88812759822b2355a0e8c0f0121022564d42ec9b3a587d195abc4d87e72da6b135a65740878833433d154b687a97b", "asm": "3045022100ffb5cffa8f69dff5c426204d2392c78754741f8a32aa24f4bdf2510ece5b9c6e022028d0ff3ae5cf39d7b58979755aa7a91e956ff615d88812759822b2355a0e8c0f[ALL] 022564d42ec9b3a587d195abc4d87e72da6b135a65740878833433d154b687a97b"}, "vout": 0, "txid": "01fb8c284e311f14affef80906689be72e9172c04d3ec9e3e6c1267758800614"}], "txid": "eaf5887041456bcb3cd3615cb409d9fd1dd873625fd4d908daa43d0e7c0c6897", "blocktime": 1537870268, "version": 1, "confirmations": 11516, "time": 1537870268, "locktime": 0, "vsize": 226, "size": 226}