{"hash": "eaf74933b04b5c9207dd6cb53a82e7c6b30142cb12f0d8a1883ee12d81b5d845", "blockhash": "00000000000000000017f5eb5941039fbcee6240d03bc1f2f8e35350df66a1d8", "vout": [{"scriptPubKey": {"reqSigs": 1, "hex": "76a914a94f78b3a3abadc90f59683141880279374e000688ac", "addresses": ["1GSEQCL925HpSc5zsG7wCf1ZMKRrHudbCa"], "asm": "OP_DUP OP_HASH160 a94f78b3a3abadc90f59683141880279374e0006 OP_EQUALVERIFY OP_CHECKSIG", "type": "pubkeyhash"}, "value": 0.00593399, "n": 0}, {"scriptPubKey": {"reqSigs": 1, "hex": "76a914e7fcf942e0205fbc394e65b3a93467143ca1a58488ac", "addresses": ["1N9e9ETYKy36uK9c7hrVz23buER2A5fZxD"], "asm": "OP_DUP OP_HASH160 e7fcf942e0205fbc394e65b3a93467143ca1a584 OP_EQUALVERIFY OP_CHECKSIG", "type": "pubkeyhash"}, "value": 0.0125048, "n": 1}], "hex": "01000000012b22ca2b5ed5736ebaefdc15a2a6f7f83b91502efcd4d010d589f263f92dceef010000006b483045022100a19d008224055b4a01bc39dfa11cbfd1100620e1930988e828bdefe1d8c669bc0220157f56d3a147c8587eafc931eee98da12cd95ac29cbccd6f4be523096f636468012103c0cecf6c0e58326225fae60abd35c285df7dc17baa944febf6cb7962105b1102ffffffff02f70d0900000000001976a914a94f78b3a3abadc90f59683141880279374e000688acb0141300000000001976a914e7fcf942e0205fbc394e65b3a93467143ca1a58488ac00000000", "vin": [{"sequence": 4294967295, "scriptSig": {"hex": "483045022100a19d008224055b4a01bc39dfa11cbfd1100620e1930988e828bdefe1d8c669bc0220157f56d3a147c8587eafc931eee98da12cd95ac29cbccd6f4be523096f636468012103c0cecf6c0e58326225fae60abd35c285df7dc17baa944febf6cb7962105b1102", "asm": "3045022100a19d008224055b4a01bc39dfa11cbfd1100620e1930988e828bdefe1d8c669bc0220157f56d3a147c8587eafc931eee98da12cd95ac29cbccd6f4be523096f636468[ALL] 03c0cecf6c0e58326225fae60abd35c285df7dc17baa944febf6cb7962105b1102"}, "vout": 1, "txid": "efce2df963f289d510d0d4fc2e50913bf8f7a6a215dcefba6e73d55e2bca222b"}], "txid": "eaf74933b04b5c9207dd6cb53a82e7c6b30142cb12f0d8a1883ee12d81b5d845", "blocktime": 1537874412, "version": 1, "confirmations": 11467, "time": 1537874412, "locktime": 0, "vsize": 226, "size": 226}