{"hash": "09e1a8f457567a5208caff1ac0159e824416a5ddd18f08d7f2207e4b1bfdc463", "blockhash": "000000000000000000022b45ed06c6f4ccd3cf7fb5ba4856ebd2e58215665228", "vout": [{"scriptPubKey": {"reqSigs": 1, "hex": "76a9141d9ed3c11528e59c62db0464f1f2c530bd24f9c988ac", "addresses": ["13hcs4weXoq6FrVqVr84JNTMxLxU1fp5D2"], "asm": "OP_DUP OP_HASH160 1d9ed3c11528e59c62db0464f1f2c530bd24f9c9 OP_EQUALVERIFY OP_CHECKSIG", "type": "pubkeyhash"}, "value": 0.02396686, "n": 0}, {"scriptPubKey": {"reqSigs": 1, "hex": "a91437339a1dd19c65fa251cf11c5d088fe8cceeb20a87", "addresses": ["36ituTx4C3YAcNAzBQu9YVQyLfnhfijpnA"], "asm": "OP_HASH160 37339a1dd19c65fa251cf11c5d088fe8cceeb20a OP_EQUAL", "type": "scripthash"}, "value": 0.15602099, "n": 1}], "hex": "020000000001010212185a583b806284ed6d39d1eb54b58a09e2ed598bfc5ea068be2bfcb6712c00000000171600143fe09df683d7b101bf2a2bd2f98e700f78a9fa29ffffffff020e922400000000001976a9141d9ed3c11528e59c62db0464f1f2c530bd24f9c988acb311ee000000000017a91437339a1dd19c65fa251cf11c5d088fe8cceeb20a87024730440220425f1e31a01682bce72005fac161d109c08a006ba88943c5780366f4e65881a902201d68b17768fdaebf27c10ba0aed58bbb7626d405051922de0bbb1521425783550121025231256de5207e6f5dcd7983c196e352b7f9a1055bc1e11e4f5468e0f3996beb00000000", "vin": [{"txinwitness": ["30440220425f1e31a01682bce72005fac161d109c08a006ba88943c5780366f4e65881a902201d68b17768fdaebf27c10ba0aed58bbb7626d405051922de0bbb15214257835501", "025231256de5207e6f5dcd7983c196e352b7f9a1055bc1e11e4f5468e0f3996beb"], "sequence": 4294967295, "scriptSig": {"hex": "1600143fe09df683d7b101bf2a2bd2f98e700f78a9fa29", "asm": "00143fe09df683d7b101bf2a2bd2f98e700f78a9fa29"}, "vout": 0, "txid": "2c71b6fc2bbe68a05efc8b59ede2098ab554ebd1396ded8462803b585a181202"}], "txid": "eaff7b45fa2acee8a4d2ae701efb885e6dec2ab1168ccd02d5212f7d710c245f", "blocktime": 1537869901, "version": 2, "confirmations": 11522, "time": 1537869901, "locktime": 0, "vsize": 168, "size": 249}