{"hash": "1c3bf7f1fba6c9bc75224c56175313418389f2c12ce211a5a8baca5efcd4afec", "blockhash": "0000000000000000001cda96e906b7601b7a6fb1a3b62bca570a9e5d8f4b3de1", "vout": [{"scriptPubKey": {"reqSigs": 1, "hex": "76a914b7c867bb9f54e076cda6733e5d79d194cc7f765b88ac", "addresses": ["1HkkjWAYCGAApGimb5F96exhHBT8CH9NMc"], "asm": "OP_DUP OP_HASH160 b7c867bb9f54e076cda6733e5d79d194cc7f765b OP_EQUALVERIFY OP_CHECKSIG", "type": "pubkeyhash"}, "value": 0.00569188, "n": 0}, {"scriptPubKey": {"reqSigs": 1, "hex": "a91485d547ce0a3b02b09068c37515529d7574c5037187", "addresses": ["3DtfJ3aZo7iaAz6G1douiSjFkcwRSpNWHT"], "asm": "OP_HASH160 85d547ce0a3b02b09068c37515529d7574c50371 OP_EQUAL", "type": "scripthash"}, "value": 0.0105, "n": 1}, {"scriptPubKey": {"reqSigs": 1, "hex": "76a9140cc3e57aa244383245fd7d3318433a9b8a331a1888ac", "addresses": ["12AVnRWj3nRE5mrk3sHczCKokPwwk2RCok"], "asm": "OP_DUP OP_HASH160 0cc3e57aa244383245fd7d3318433a9b8a331a18 OP_EQUALVERIFY OP_CHECKSIG", "type": "pubkeyhash"}, "value": 0.0006, "n": 2}, {"scriptPubKey": {"reqSigs": 1, "hex": "a914d1c9c4eb3c5a1d22d0714f621f0d42ec705f8b0f87", "addresses": ["3LpGromLqmW2USuGNGnnhzAASbCfw7udZL"], "asm": "OP_HASH160 d1c9c4eb3c5a1d22d0714f621f0d42ec705f8b0f OP_EQUAL", "type": "scripthash"}, "value": 0.0099854, "n": 3}], "hex": "02000000000104507cf80bbbb2da527b241a5d92616c2bbe8159d31a60e490b9d432e62e82a23500000000171600146e825a9a00fbf15f2bb11cddaa4c971792b3a2d3feffffff51371a1c650e8cc3f8b0acaa1801c2eec08b7abdb8e96663b5a3c76dfdf83bec010000001716001463f226a747a5bceec29356f0a5766ab7965eb53dfeffffffd8307c1e75f4241d42cfc2be82634c352d6ed83a80e582ae65c4c1410b669adf0000000017160014617fa115732ea3c9f424c186e743083555f35260feffffffdc8c84daa742bd7187c632fd2021ea8251fb1b1e5d35681c2e235568e4efac890d00000017160014948f69ea46637f7d4184ae3e92718f24a7149b0dfeffffff0464af0800000000001976a914b7c867bb9f54e076cda6733e5d79d194cc7f765b88ac900510000000000017a91485d547ce0a3b02b09068c37515529d7574c503718760ea0000000000001976a9140cc3e57aa244383245fd7d3318433a9b8a331a1888ac8c3c0f000000000017a914d1c9c4eb3c5a1d22d0714f621f0d42ec705f8b0f8702483045022100d35caa96eb4637b88f8710c101d580d4cef384789d8c3b0ec54f13cfdfdface102205982cc325f6e4e6c6caaaad87b337d69082cd4e88a8bdf1d749580ff7fff64d10121023b3bfde0963d0106f4ded4f9a87a997cf216649971e94637d5c6f9817febd81c02483045022100c648826be6b7fcdee7424ae8c996718410951215d9892322fbb20b8c3aed50550220169a8cacb5527725df54ec81cd47ba3e6f16a448d819c664f2c1042f9c7b2e64012103a676b2612c2e1ee8945bb5459346f166836444b1b1fb705c98acdf2ff43a5ebc02483045022100e6322d4ca86ff7b8d89993ed8d75dc51693529f1f75094ff680909cbfd8685b1022012dfebbb9324da5e5031f52a5484a2d6181d804a7f7f7b426531face2054c78b012103c093b5ba920388f8afb7a8a4ff1a98c25bace177dc1c45f625623eee27ab1f8a024730440220245fb7a33e4979fd4f463044b7337161a2cbacce8f2e079e8faa46079926905702206e4eb306ff40c61cff9cc65c1a2f0fa704d595b0b90a77f24f4b5c408e53dc8a012103811deeff7a8ea35df302f306413c1824973bd2652a3d826f17470ac26b2d0ba713490800", "vin": [{"txinwitness": ["3045022100d35caa96eb4637b88f8710c101d580d4cef384789d8c3b0ec54f13cfdfdface102205982cc325f6e4e6c6caaaad87b337d69082cd4e88a8bdf1d749580ff7fff64d101", "023b3bfde0963d0106f4ded4f9a87a997cf216649971e94637d5c6f9817febd81c"], "sequence": 4294967294, "scriptSig": {"hex": "1600146e825a9a00fbf15f2bb11cddaa4c971792b3a2d3", "asm": "00146e825a9a00fbf15f2bb11cddaa4c971792b3a2d3"}, "vout": 0, "txid": "35a2822ee632d4b990e4601ad35981be2b6c61925d1a247b52dab2bb0bf87c50"}, {"txinwitness": ["3045022100c648826be6b7fcdee7424ae8c996718410951215d9892322fbb20b8c3aed50550220169a8cacb5527725df54ec81cd47ba3e6f16a448d819c664f2c1042f9c7b2e6401", "03a676b2612c2e1ee8945bb5459346f166836444b1b1fb705c98acdf2ff43a5ebc"], "sequence": 4294967294, "scriptSig": {"hex": "16001463f226a747a5bceec29356f0a5766ab7965eb53d", "asm": "001463f226a747a5bceec29356f0a5766ab7965eb53d"}, "vout": 1, "txid": "ec3bf8fd6dc7a3b56366e9b8bd7a8bc0eec20118aaacb0f8c38c0e651c1a3751"}, {"txinwitness": ["3045022100e6322d4ca86ff7b8d89993ed8d75dc51693529f1f75094ff680909cbfd8685b1022012dfebbb9324da5e5031f52a5484a2d6181d804a7f7f7b426531face2054c78b01", "03c093b5ba920388f8afb7a8a4ff1a98c25bace177dc1c45f625623eee27ab1f8a"], "sequence": 4294967294, "scriptSig": {"hex": "160014617fa115732ea3c9f424c186e743083555f35260", "asm": "0014617fa115732ea3c9f424c186e743083555f35260"}, "vout": 0, "txid": "df9a660b41c1c465ae82e5803ad86e2d354c6382bec2cf421d24f4751e7c30d8"}, {"txinwitness": ["30440220245fb7a33e4979fd4f463044b7337161a2cbacce8f2e079e8faa46079926905702206e4eb306ff40c61cff9cc65c1a2f0fa704d595b0b90a77f24f4b5c408e53dc8a01", "03811deeff7a8ea35df302f306413c1824973bd2652a3d826f17470ac26b2d0ba7"], "sequence": 4294967294, "scriptSig": {"hex": "160014948f69ea46637f7d4184ae3e92718f24a7149b0d", "asm": "0014948f69ea46637f7d4184ae3e92718f24a7149b0d"}, "vout": 13, "txid": "89acefe46855232e1c68355d1e1bfb5182ea2120fd32c68771bd42a7da848cdc"}], "txid": "eb01b6dc09bf78dec36bd464c10f8177ad86dacc3ec7692175aad207a3a2b9b8", "blocktime": 1537873282, "version": 2, "confirmations": 11484, "time": 1537873282, "locktime": 542995, "vsize": 507, "size": 831}