{"hash": "5f7d0872d70062706c9ad1d2bf0ca1fb5148aabc1496d1d4473d9b927b132574", "blockhash": "00000000000000000017f5eb5941039fbcee6240d03bc1f2f8e35350df66a1d8", "vout": [{"scriptPubKey": {"reqSigs": 1, "hex": "0014304e047fdebd4a2770f93ed48406b9c607dc477e", "addresses": ["bc1qxp8qgl77h49zwu8e8m2ggp4eccrac3m7zcyhl8"], "asm": "0 304e047fdebd4a2770f93ed48406b9c607dc477e", "type": "witness_v0_keyhash"}, "value": 2.625e-05, "n": 0}, {"scriptPubKey": {"reqSigs": 1, "hex": "a9141ab6596452bc83567ecd62abcd7f5625cf387eea87", "addresses": ["348FwNhgYvz7DrTaY23Cn7ovsG1F32d52r"], "asm": "OP_HASH160 1ab6596452bc83567ecd62abcd7f5625cf387eea OP_EQUAL", "type": "scripthash"}, "value": 0.00609114, "n": 1}], "hex": "0100000000010165c6e99f3d3531b3e18758f782384e3935ce812a0332ace85849551f94e6307a0100000000ffffffff02410a000000000000160014304e047fdebd4a2770f93ed48406b9c607dc477e5a4b09000000000017a9141ab6596452bc83567ecd62abcd7f5625cf387eea8702483045022100e43ff9fc87e40c6f68378d1e5ab8655cc5f5d66888db138cf3fab697ae794c7c02202d4a5eab4efd5a47a5e1f0cefe1857812324fd3b27c5a15e38ea85330370d27001210286ef6caa08f5765b0f04d1d163537d22ac94e53ecfc4d0b8ce55db880ece6a3500000000", "vin": [{"txinwitness": ["3045022100e43ff9fc87e40c6f68378d1e5ab8655cc5f5d66888db138cf3fab697ae794c7c02202d4a5eab4efd5a47a5e1f0cefe1857812324fd3b27c5a15e38ea85330370d27001", "0286ef6caa08f5765b0f04d1d163537d22ac94e53ecfc4d0b8ce55db880ece6a35"], "sequence": 4294967295, "scriptSig": {"hex": "", "asm": ""}, "vout": 1, "txid": "7a30e6941f554958e8ac32032a81ce35394e3882f75887e1b331353d9fe9c665"}], "txid": "eb0326af2bd70ca44a724ca4379d208dc3234e3366b64ca954938672d6d888e2", "blocktime": 1537874412, "version": 1, "confirmations": 11467, "time": 1537874412, "locktime": 0, "vsize": 142, "size": 224}