{"hash": "eb04f09d22fb15007525fa5412059d4d6ddc1f7a2b4ee0f6759e6ad1f0915d4d", "blockhash": "00000000000000000024a2167bbff67b0be802c0b01cdd79e6331c2be6459f87", "vout": [{"scriptPubKey": {"reqSigs": 1, "hex": "76a914b30e6a6d9517d95f204d728173b06c032d9f569d88ac", "addresses": ["1HKmDxhwDy72Goy3ixQJkJruaNctEVjJC5"], "asm": "OP_DUP OP_HASH160 b30e6a6d9517d95f204d728173b06c032d9f569d OP_EQUALVERIFY OP_CHECKSIG", "type": "pubkeyhash"}, "value": 9.053e-05, "n": 0}, {"scriptPubKey": {"reqSigs": 1, "hex": "a9141b3eafc762290968d936c77a205e29948d659dee87", "addresses": ["34B5GGSUMHLxC3kwxCVEFM7tSPgoG82zof"], "asm": "OP_HASH160 1b3eafc762290968d936c77a205e29948d659dee OP_EQUAL", "type": "scripthash"}, "value": 0.0255, "n": 1}], "hex": "0100000001951a5bdcb136ecb826cb2d56fb9914f234ca4653d3bac7eaf376b50bba78a558000000006a47304402200c16231a06fefd552b4ec5c9a14d1c9b36d685c25070fc4551b75e6ad000489f02207f446d4c0f90e349272dc524e655b73ad32fd0bd19ac77a021a113199ce4c169012102d71af9fb03de6facb72547d8934db890eefb1158910b5dafbbed9573ec6f8a82ffffffff025d230000000000001976a914b30e6a6d9517d95f204d728173b06c032d9f569d88acf0e826000000000017a9141b3eafc762290968d936c77a205e29948d659dee8700000000", "vin": [{"sequence": 4294967295, "scriptSig": {"hex": "47304402200c16231a06fefd552b4ec5c9a14d1c9b36d685c25070fc4551b75e6ad000489f02207f446d4c0f90e349272dc524e655b73ad32fd0bd19ac77a021a113199ce4c169012102d71af9fb03de6facb72547d8934db890eefb1158910b5dafbbed9573ec6f8a82", "asm": "304402200c16231a06fefd552b4ec5c9a14d1c9b36d685c25070fc4551b75e6ad000489f02207f446d4c0f90e349272dc524e655b73ad32fd0bd19ac77a021a113199ce4c169[ALL] 02d71af9fb03de6facb72547d8934db890eefb1158910b5dafbbed9573ec6f8a82"}, "vout": 0, "txid": "58a578ba0bb576f3eac7bad35346ca34f21499fb562dcb26b8ec36b1dc5b1a95"}], "txid": "eb04f09d22fb15007525fa5412059d4d6ddc1f7a2b4ee0f6759e6ad1f0915d4d", "blocktime": 1537870564, "version": 1, "confirmations": 11515, "time": 1537870564, "locktime": 0, "vsize": 223, "size": 223}