{"hash": "5cd2e13fd4dddcd375afa720dc4c8394bff4ad6e3ae19ea68fb2a20a58997c59", "blockhash": "0000000000000000001cda96e906b7601b7a6fb1a3b62bca570a9e5d8f4b3de1", "vout": [{"scriptPubKey": {"reqSigs": 1, "hex": "a9145f5014977dd7b82b01e9ad89af4401e89718c84b87", "addresses": ["3ANz3rUr75UgDqsdVUGBfsPAP5b1wS1Be8"], "asm": "OP_HASH160 5f5014977dd7b82b01e9ad89af4401e89718c84b OP_EQUAL", "type": "scripthash"}, "value": 0.01298855, "n": 0}, {"scriptPubKey": {"reqSigs": 1, "hex": "a914799391599a55d0b4444613854e0c9a96ff6cfb0987", "addresses": ["3CmrTwhVFLcfqoeewdUQ93m6N5Vyn5XJUi"], "asm": "OP_HASH160 799391599a55d0b4444613854e0c9a96ff6cfb09 OP_EQUAL", "type": "scripthash"}, "value": 0.00215, "n": 1}, {"scriptPubKey": {"reqSigs": 1, "hex": "76a914ad1a566b946585fe216376e5fc33ff6e116cd19088ac", "addresses": ["1GnHT9vAdn38YE3a8igTGJeo7jUPPHRtWb"], "asm": "OP_DUP OP_HASH160 ad1a566b946585fe216376e5fc33ff6e116cd190 OP_EQUALVERIFY OP_CHECKSIG", "type": "pubkeyhash"}, "value": 2.0, "n": 2}, {"scriptPubKey": {"reqSigs": 1, "hex": "76a9145750d960287a95e4c6634dcc019167d81fc2180c88ac", "addresses": ["18xgeBimNDjq6Uwg3BgeKhtX5PxdEZohW2"], "asm": "OP_DUP OP_HASH160 5750d960287a95e4c6634dcc019167d81fc2180c OP_EQUALVERIFY OP_CHECKSIG", "type": "pubkeyhash"}, "value": 0.00295968, "n": 3}, {"scriptPubKey": {"reqSigs": 1, "hex": "a91418668ca196c1298ba47d5863dd6ae5445fc00c1a87", "addresses": ["33v2zQCVtSkQbvELTNzM5MSPfeyDm57ZUH"], "asm": "OP_HASH160 18668ca196c1298ba47d5863dd6ae5445fc00c1a OP_EQUAL", "type": "scripthash"}, "value": 0.00192889, "n": 4}, {"scriptPubKey": {"reqSigs": 1, "hex": "76a91480ffef1ade60dabdce5e20a7626f418833ffc12b88ac", "addresses": ["1Cm66AKLW3dNmrxDfqrERqKGAmanoxphsW"], "asm": "OP_DUP OP_HASH160 80ffef1ade60dabdce5e20a7626f418833ffc12b OP_EQUALVERIFY OP_CHECKSIG", "type": "pubkeyhash"}, "value": 0.00487576, "n": 5}, {"scriptPubKey": {"reqSigs": 1, "hex": "a914092cfe749a83f26a29ea51dab555ce38b8a026ad87", "addresses": ["32XXuWHuc7TCFDXA4zNurTmfkUQrTSupTd"], "asm": "OP_HASH160 092cfe749a83f26a29ea51dab555ce38b8a026ad OP_EQUAL", "type": "scripthash"}, "value": 0.0023766, "n": 6}, {"scriptPubKey": {"reqSigs": 1, "hex": "a91416ecb7cfb993f439e881fb12b23d661cb5bba4c787", "addresses": ["33nENDi7oxNRfEQwh4xUL6jvMnXywSwVm4"], "asm": "OP_HASH160 16ecb7cfb993f439e881fb12b23d661cb5bba4c7 OP_EQUAL", "type": "scripthash"}, "value": 0.0026216, "n": 7}, {"scriptPubKey": {"reqSigs": 1, "hex": "a9140a6dd659ae6a9a43632f2862c1989f483d6ed95387", "addresses": ["32eAG6HHh4LhE4V4oMbfFrG79fmPze7JGH"], "asm": "OP_HASH160 0a6dd659ae6a9a43632f2862c1989f483d6ed953 OP_EQUAL", "type": "scripthash"}, "value": 0.00353981, "n": 8}, {"scriptPubKey": {"reqSigs": 1, "hex": "76a914bf058f86a1518a4c26ff7f49938fa0735c3afe6488ac", "addresses": ["1JR2j11htFN5mbD1vnWEvqjjW1F5wrktGU"], "asm": "OP_DUP OP_HASH160 bf058f86a1518a4c26ff7f49938fa0735c3afe64 OP_EQUALVERIFY OP_CHECKSIG", "type": "pubkeyhash"}, "value": 0.00809088, "n": 9}, {"scriptPubKey": {"reqSigs": 1, "hex": "a914082d2b796e1c3d9e04d8535bf40fe90cbe82fbff87", "addresses": ["32SFSXr171P5Eankj9FN3ioBfSXz6roPxb"], "asm": "OP_HASH160 082d2b796e1c3d9e04d8535bf40fe90cbe82fbff OP_EQUAL", "type": "scripthash"}, "value": 0.00546661, "n": 10}, {"scriptPubKey": {"reqSigs": 1, "hex": "a91462da96eaeea14d9312294aa539c152497fe63fea87", "addresses": ["3Ahi1D6gvAmAqXAJwSizbLxYYMzjMxPH6B"], "asm": "OP_HASH160 62da96eaeea14d9312294aa539c152497fe63fea OP_EQUAL", "type": "scripthash"}, "value": 0.24, "n": 11}, {"scriptPubKey": {"reqSigs": 1, "hex": "76a914a741d40590cde0316d048a43540d4322b20ac28488ac", "addresses": ["1GFNhrsfttUPmoZtEDZqgu2mb4kTzBrKC7"], "asm": "OP_DUP OP_HASH160 a741d40590cde0316d048a43540d4322b20ac284 OP_EQUALVERIFY OP_CHECKSIG", "type": "pubkeyhash"}, "value": 0.35, "n": 12}, {"scriptPubKey": {"reqSigs": 1, "hex": "a9141955dd43d8ad31f686215275832adbe9baf6825487", "addresses": ["33zygJAjsapLS2FfiSAAiGsnTDxhuqFJ9K"], "asm": "OP_HASH160 1955dd43d8ad31f686215275832adbe9baf68254 OP_EQUAL", "type": "scripthash"}, "value": 0.00378203, "n": 13}, {"scriptPubKey": {"reqSigs": 1, "hex": "a914ad503fd9dd01d7e1c08056025a625b751731b57c87", "addresses": ["3HVQxZJUY1YddpLaWhEP9T9a4e1Fszq31o"], "asm": "OP_HASH160 ad503fd9dd01d7e1c08056025a625b751731b57c OP_EQUAL", "type": "scripthash"}, "value": 0.00456, "n": 14}, {"scriptPubKey": {"reqSigs": 1, "hex": "76a914da036ff0b106cc61f67a0622f30b93459e039c0a88ac", "addresses": ["1LskReP4Tk6cdyxTp2AGw1C83qSns2zcdk"], "asm": "OP_DUP OP_HASH160 da036ff0b106cc61f67a0622f30b93459e039c0a OP_EQUALVERIFY OP_CHECKSIG", "type": "pubkeyhash"}, "value": 0.00750953, "n": 15}, {"scriptPubKey": {"reqSigs": 1, "hex": "a914d18294df2724c1184050baca0d9e5ad8455d9a0c87", "addresses": ["3LnoabkvChtgnSw8pX2iHfyWhEzgBhALEb"], "asm": "OP_HASH160 d18294df2724c1184050baca0d9e5ad8455d9a0c OP_EQUAL", "type": "scripthash"}, "value": 0.00223571, "n": 16}, {"scriptPubKey": {"reqSigs": 1, "hex": "a914420d157041931fc3ec4ff852ffe919c0a11aa80d87", "addresses": ["37iGCH8x3QMk92bUt3UAc44ZVd7vW1mAqW"], "asm": "OP_HASH160 420d157041931fc3ec4ff852ffe919c0a11aa80d OP_EQUAL", "type": "scripthash"}, "value": 0.00919003, "n": 17}, {"scriptPubKey": {"reqSigs": 1, "hex": "a91468f28881ffaae3814af54bd4c198142f5711605887", "addresses": ["3BFvjzsbgEH1fLXwVdZMRp2hcKcZGt9WDu"], "asm": "OP_HASH160 68f28881ffaae3814af54bd4c198142f57116058 OP_EQUAL", "type": "scripthash"}, "value": 0.0020311, "n": 18}, {"scriptPubKey": {"reqSigs": 1, "hex": "76a914b3fb5cac9720308d8161f67f4156cbfa5a5eb23088ac", "addresses": ["1HQf5H24e8FTXYV6jKMAbsWnEs5Y1uymHd"], "asm": "OP_DUP OP_HASH160 b3fb5cac9720308d8161f67f4156cbfa5a5eb230 OP_EQUALVERIFY OP_CHECKSIG", "type": "pubkeyhash"}, "value": 0.00139, "n": 19}, {"scriptPubKey": {"reqSigs": 1, "hex": "a91441f25089dee8432fd03d3f5b92db39f0271ed1cd87", "addresses": ["37hi8KtoJzEt9qRmshqeLa8dDhsBGEtfYg"], "asm": "OP_HASH160 41f25089dee8432fd03d3f5b92db39f0271ed1cd OP_EQUAL", "type": "scripthash"}, "value": 0.00270856, "n": 20}, {"scriptPubKey": {"reqSigs": 1, "hex": "a914dc6d12d60c5cc6dd4d8eba4467d541da9dca8f1b87", "addresses": ["3MnXFK2JjZp3q6vG6a8bzZ3nzkCU6CbcWb"], "asm": "OP_HASH160 dc6d12d60c5cc6dd4d8eba4467d541da9dca8f1b OP_EQUAL", "type": "scripthash"}, "value": 42.37188555, "n": 21}, {"scriptPubKey": {"reqSigs": 1, "hex": "a9146b31eb8e66e60f5fde96e90e842a385b2f8b8c3f87", "addresses": ["3BTp2ahcpDz2tpktHQnRwuHEyUiWVDvEfs"], "asm": "OP_HASH160 6b31eb8e66e60f5fde96e90e842a385b2f8b8c3f OP_EQUAL", "type": "scripthash"}, "value": 0.00189865, "n": 22}, {"scriptPubKey": {"reqSigs": 1, "hex": "76a9148b15a0ef1a9afd4473e09731d58264365c4cbb5f88ac", "addresses": ["1DgQqT4LSMVpeTG6VL9kNuAetVmgPuCgUc"], "asm": "OP_DUP OP_HASH160 8b15a0ef1a9afd4473e09731d58264365c4cbb5f OP_EQUALVERIFY OP_CHECKSIG", "type": "pubkeyhash"}, "value": 0.00312031, "n": 23}, {"scriptPubKey": {"reqSigs": 1, "hex": "a914f30b2fa01d87ecb25145bd8c536701bc08174b2687", "addresses": ["3Pr7XNsuB82VJceSguRFhsnU27czAcetdF"], "asm": "OP_HASH160 f30b2fa01d87ecb25145bd8c536701bc08174b26 OP_EQUAL", "type": "scripthash"}, "value": 0.00486112, "n": 24}, {"scriptPubKey": {"reqSigs": 1, "hex": "76a914e781a238ec6b773d2039e20916a440457f058f7488ac", "addresses": ["1N76PRJADGA69ckwRHi32xk34G8MpAb5Gc"], "asm": "OP_DUP OP_HASH160 e781a238ec6b773d2039e20916a440457f058f74 OP_EQUALVERIFY OP_CHECKSIG", "type": "pubkeyhash"}, "value": 0.00325398, "n": 25}, {"scriptPubKey": {"reqSigs": 1, "hex": "76a91414e9ab9aa6b1bfb8cc62af427bea41f5958392b088ac", "addresses": ["12uaSY4yuhYb1JSUq77wgCP4pqzJN1MPRQ"], "asm": "OP_DUP OP_HASH160 14e9ab9aa6b1bfb8cc62af427bea41f5958392b0 OP_EQUALVERIFY OP_CHECKSIG", "type": "pubkeyhash"}, "value": 0.089, "n": 26}, {"scriptPubKey": {"reqSigs": 1, "hex": "76a914197d414fe1fcdd7bc0af0ffcebc9b8786b756fd888ac", "addresses": ["13Kmwg7n7jAPuSMqTXTFYxZmLTRD59598c"], "asm": "OP_DUP OP_HASH160 197d414fe1fcdd7bc0af0ffcebc9b8786b756fd8 OP_EQUALVERIFY OP_CHECKSIG", "type": "pubkeyhash"}, "value": 0.00127036, "n": 27}, {"scriptPubKey": {"reqSigs": 1, "hex": "a9146e05000060208961fc6fede69e385dd45c99c07687", "addresses": ["3BikF3woCExYwrTxLWcPeEK2N3wbCzqz6Y"], "asm": "OP_HASH160 6e05000060208961fc6fede69e385dd45c99c076 OP_EQUAL", "type": "scripthash"}, "value": 0.00443771, "n": 28}, {"scriptPubKey": {"reqSigs": 1, "hex": "a914908adea65afa3da437edab14bf93e55734c90afd87", "addresses": ["3EsHb1FDoJm5CDzuFu2gcjmeX3dgDZm48G"], "asm": "OP_HASH160 908adea65afa3da437edab14bf93e55734c90afd OP_EQUAL", "type": "scripthash"}, "value": 0.00203218, "n": 29}, {"scriptPubKey": {"reqSigs": 1, "hex": "a914f88bcb481db935717bfc2edef72224ab3f85309e87", "addresses": ["3QMCyBPT7hBfw9vfaykNb5ThBqNQ945K34"], "asm": "OP_HASH160 f88bcb481db935717bfc2edef72224ab3f85309e OP_EQUAL", "type": "scripthash"}, "value": 0.00596376, "n": 30}, {"scriptPubKey": {"reqSigs": 1, "hex": "a914272546dfe5efc8b8983809fe85b178683e50837487", "addresses": ["35Fzw4oUeCCLAnPHHHAKTtA1mqMBvtBKiN"], "asm": "OP_HASH160 272546dfe5efc8b8983809fe85b178683e508374 OP_EQUAL", "type": "scripthash"}, "value": 0.00573035, "n": 31}, {"scriptPubKey": {"reqSigs": 1, "hex": "a914f3c8e3f698fd0936ef437f1396bde5a96c53ef2187", "addresses": ["3Pv2nGqfm6fB2hB8jE7GU3B722zAM1NQW8"], "asm": "OP_HASH160 f3c8e3f698fd0936ef437f1396bde5a96c53ef21 OP_EQUAL", "type": "scripthash"}, "value": 0.00333348, "n": 32}, {"scriptPubKey": {"reqSigs": 1, "hex": "a91477da159b06e872a3992dc72f83c662a20e5b617987", "addresses": ["3Ccjb98wRa8YUjs7aQqnAhHwNAYhpiDNZ5"], "asm": "OP_HASH160 77da159b06e872a3992dc72f83c662a20e5b6179 OP_EQUAL", "type": "scripthash"}, "value": 0.00295231, "n": 33}, {"scriptPubKey": {"reqSigs": 1, "hex": "a914433bbce7259414cc04380d92545c4c72e601082b87", "addresses": ["37pWm4MMKkrU77ozwUZQQewNuvHPoEHvWp"], "asm": "OP_HASH160 433bbce7259414cc04380d92545c4c72e601082b OP_EQUAL", "type": "scripthash"}, "value": 0.01170944, "n": 34}, {"scriptPubKey": {"reqSigs": 1, "hex": "a914723b4fee25c053f722f8e8a2d65bf86466e1676687", "addresses": ["3C721VrLhEExnL4jX1uTxXmdRXnzdKMH3G"], "asm": "OP_HASH160 723b4fee25c053f722f8e8a2d65bf86466e16766 OP_EQUAL", "type": "scripthash"}, "value": 0.00783, "n": 35}, {"scriptPubKey": {"reqSigs": 1, "hex": "a91429d7be3620bef05234631c13183c80de141fa79d87", "addresses": ["35WG5VjMwdmbEeW4NS8HdPvWQDVYv9wRyZ"], "asm": "OP_HASH160 29d7be3620bef05234631c13183c80de141fa79d OP_EQUAL", "type": "scripthash"}, "value": 0.00356313, "n": 36}, {"scriptPubKey": {"reqSigs": 1, "hex": "76a9142dce3280908037e892b7718bea859632a8642e0a88ac", "addresses": ["15BCRUGamMzfZaak7ssGMS6nYDRrN69HFc"], "asm": "OP_DUP OP_HASH160 2dce3280908037e892b7718bea859632a8642e0a OP_EQUALVERIFY OP_CHECKSIG", "type": "pubkeyhash"}, "value": 0.0082203, "n": 37}, {"scriptPubKey": {"reqSigs": 1, "hex": "76a914da6f103430c0b01beb2507ce1f8d35bef33a7a9888ac", "addresses": ["1LuyMdfYam6EvwtNzXZuQmtPoUoGJG3msi"], "asm": "OP_DUP OP_HASH160 da6f103430c0b01beb2507ce1f8d35bef33a7a98 OP_EQUALVERIFY OP_CHECKSIG", "type": "pubkeyhash"}, "value": 0.00440534, "n": 38}, {"scriptPubKey": {"reqSigs": 1, "hex": "a914b2e797a9a750d03157d7b2a551f72b76882083f987", "addresses": ["3Hzye1kvwpsqwdpGMek1jDxdFSntkZQaWM"], "asm": "OP_HASH160 b2e797a9a750d03157d7b2a551f72b76882083f9 OP_EQUAL", "type": "scripthash"}, "value": 0.00660927, "n": 39}, {"scriptPubKey": {"reqSigs": 1, "hex": "a91440654ca27f4b8621b6baf28410e0f7427e11a3a887", "addresses": ["37ZWXDuvBakAMTxdSdyPp5BGVXuxwooaWv"], "asm": "OP_HASH160 40654ca27f4b8621b6baf28410e0f7427e11a3a8 OP_EQUAL", "type": "scripthash"}, "value": 0.00315742, "n": 40}, {"scriptPubKey": {"reqSigs": 1, "hex": "a914476c5f27d0166bcffa2cac2a37f78dc47e4a56a087", "addresses": ["38CfixipDHKuDYYtYVTozrSfeUCBg9YMhK"], "asm": "OP_HASH160 476c5f27d0166bcffa2cac2a37f78dc47e4a56a0 OP_EQUAL", "type": "scripthash"}, "value": 0.00285725, "n": 41}, {"scriptPubKey": {"reqSigs": 1, "hex": "a914e74a4cbe01ed1e57aececf3cccfa6455589d5c0687", "addresses": ["3Nmy2J5z52mBktgeG2M5dxmjuZMNaeiJ2S"], "asm": "OP_HASH160 e74a4cbe01ed1e57aececf3cccfa6455589d5c06 OP_EQUAL", "type": "scripthash"}, "value": 0.00189956, "n": 42}, {"scriptPubKey": {"reqSigs": 1, "hex": "76a91429ff9d02e6d2c3939a971b0cf575248eb546da3188ac", "addresses": ["14q4vC33pURRvhd543LreQvmW7kftsWsxi"], "asm": "OP_DUP OP_HASH160 29ff9d02e6d2c3939a971b0cf575248eb546da31 OP_EQUALVERIFY OP_CHECKSIG", "type": "pubkeyhash"}, "value": 0.00335821, "n": 43}], "hex": "020000000001012d5a70aa72aadff88d0605216e10eeac0f69d43b4aa40fc7ba1cdff6cf52340b010000001716001444f3419a353b689d6e15e80f6e49bf7fab62c0c0feffffff2ca7d113000000000017a9145f5014977dd7b82b01e9ad89af4401e89718c84b87d84703000000000017a914799391599a55d0b4444613854e0c9a96ff6cfb098700c2eb0b000000001976a914ad1a566b946585fe216376e5fc33ff6e116cd19088ac20840400000000001976a9145750d960287a95e4c6634dcc019167d81fc2180c88ac79f102000000000017a91418668ca196c1298ba47d5863dd6ae5445fc00c1a8798700700000000001976a91480ffef1ade60dabdce5e20a7626f418833ffc12b88ac5ca003000000000017a914092cfe749a83f26a29ea51dab555ce38b8a026ad87100004000000000017a91416ecb7cfb993f439e881fb12b23d661cb5bba4c787bd6605000000000017a9140a6dd659ae6a9a43632f2862c1989f483d6ed9538780580c00000000001976a914bf058f86a1518a4c26ff7f49938fa0735c3afe6488ac655708000000000017a914082d2b796e1c3d9e04d8535bf40fe90cbe82fbff8700366e010000000017a91462da96eaeea14d9312294aa539c152497fe63fea87c00e1602000000001976a914a741d40590cde0316d048a43540d4322b20ac28488ac5bc505000000000017a9141955dd43d8ad31f686215275832adbe9baf682548740f506000000000017a914ad503fd9dd01d7e1c08056025a625b751731b57c8769750b00000000001976a914da036ff0b106cc61f67a0622f30b93459e039c0a88ac536903000000000017a914d18294df2724c1184050baca0d9e5ad8455d9a0c87db050e000000000017a914420d157041931fc3ec4ff852ffe919c0a11aa80d87661903000000000017a91468f28881ffaae3814af54bd4c198142f5711605887f81e0200000000001976a914b3fb5cac9720308d8161f67f4156cbfa5a5eb23088ac082204000000000017a91441f25089dee8432fd03d3f5b92db39f0271ed1cd87cb5d8efc0000000017a914dc6d12d60c5cc6dd4d8eba4467d541da9dca8f1b87a9e502000000000017a9146b31eb8e66e60f5fde96e90e842a385b2f8b8c3f87dfc20400000000001976a9148b15a0ef1a9afd4473e09731d58264365c4cbb5f88ace06a07000000000017a914f30b2fa01d87ecb25145bd8c536701bc08174b268716f70400000000001976a914e781a238ec6b773d2039e20916a440457f058f7488aca0cd8700000000001976a91414e9ab9aa6b1bfb8cc62af427bea41f5958392b088ac3cf00100000000001976a914197d414fe1fcdd7bc0af0ffcebc9b8786b756fd888ac7bc506000000000017a9146e05000060208961fc6fede69e385dd45c99c07687d21903000000000017a914908adea65afa3da437edab14bf93e55734c90afd87981909000000000017a914f88bcb481db935717bfc2edef72224ab3f85309e876bbe08000000000017a914272546dfe5efc8b8983809fe85b178683e50837487241605000000000017a914f3c8e3f698fd0936ef437f1396bde5a96c53ef21873f8104000000000017a91477da159b06e872a3992dc72f83c662a20e5b61798700de11000000000017a914433bbce7259414cc04380d92545c4c72e601082b8798f20b000000000017a914723b4fee25c053f722f8e8a2d65bf86466e1676687d96f05000000000017a91429d7be3620bef05234631c13183c80de141fa79d870e8b0c00000000001976a9142dce3280908037e892b7718bea859632a8642e0a88acd6b80600000000001976a914da6f103430c0b01beb2507ce1f8d35bef33a7a9888acbf150a000000000017a914b2e797a9a750d03157d7b2a551f72b76882083f9875ed104000000000017a91440654ca27f4b8621b6baf28410e0f7427e11a3a8871d5c04000000000017a914476c5f27d0166bcffa2cac2a37f78dc47e4a56a08704e602000000000017a914e74a4cbe01ed1e57aececf3cccfa6455589d5c0687cd1f0500000000001976a91429ff9d02e6d2c3939a971b0cf575248eb546da3188ac024830450221009134b88751475178db55d47b99a2a72e1879f16d8be0501b3a79cbac91f2d50302202dc2c75feaa76497caeafda085b66039bd0796dfc48f7f1581f112fc4e9ec5bb0121030446adc91edead29fff57e29f127e6998fc76956b12c991b3202c2c9f9bc845213490800", "vin": [{"txinwitness": ["30450221009134b88751475178db55d47b99a2a72e1879f16d8be0501b3a79cbac91f2d50302202dc2c75feaa76497caeafda085b66039bd0796dfc48f7f1581f112fc4e9ec5bb01", "030446adc91edead29fff57e29f127e6998fc76956b12c991b3202c2c9f9bc8452"], "sequence": 4294967294, "scriptSig": {"hex": "16001444f3419a353b689d6e15e80f6e49bf7fab62c0c0", "asm": "001444f3419a353b689d6e15e80f6e49bf7fab62c0c0"}, "vout": 1, "txid": "0b3452cff6df1cbac70fa44a3bd4690facee106e2105068df8dfaa72aa705a2d"}], "txid": "eb0de1ff5e3388a8e2377443c7b199c1d98a6873670d796219683774ea9351f8", "blocktime": 1537873282, "version": 2, "confirmations": 11481, "time": 1537873282, "locktime": 542995, "vsize": 1538, "size": 1620}