{"hash": "eb17b03e21a9ec457bb05b3847b6685461e2ce580606edd041893d261f87affe", "blockhash": "0000000000000000001f0ddff1eddb255c1121bcd4da4f1bc9a0da00cae72433", "vout": [{"scriptPubKey": {"reqSigs": 1, "hex": "a9142148e54eee6a075255e9c969e983e5cf63917dfd87", "addresses": ["34j1YkxQ4HW5rx1ddPwwgFNqXruFdCrQUu"], "asm": "OP_HASH160 2148e54eee6a075255e9c969e983e5cf63917dfd OP_EQUAL", "type": "scripthash"}, "value": 0.0204818, "n": 0}, {"scriptPubKey": {"reqSigs": 1, "hex": "a914062b5509e2eca513bf4761665571b9bc56aa676187", "addresses": ["32FdtU52duxkwGGSRJ5NuLqYUi2qJfqot1"], "asm": "OP_HASH160 062b5509e2eca513bf4761665571b9bc56aa6761 OP_EQUAL", "type": "scripthash"}, "value": 0.47493322, "n": 1}], "hex": "010000000189528554e3edc7d1889669ca6810368438f4d94cd06b3c8486e29f392f292ebf01000000da00473044022020ece05b0172570fca185f5ac40d2216d3e4268754d2cbf6197b3d99f5b0afc2022054c434b85772893606e9e717120e4c8e59a5ad5d7c92e21d8bb699ed7b6845cb01483045022100b6147c9ba15bf4125dacbd89ce45f8567e4bb78135b5d719ae2345e11d18a254022063dfc7f8b9fd1317178000707a2897ed5b2b1fd18b2b1730ed971e205bc658c10147522103abc8a801f5fbb4fd5f6510ba530d534b0efb584b4298cea1e6e2d45cd1000aef2102a29577404fa42d6d12e0d867249d4ee805afecc9e10879ed668da9958dc7b65052aeffffffff02b4401f000000000017a9142148e54eee6a075255e9c969e983e5cf63917dfd87cab0d4020000000017a914062b5509e2eca513bf4761665571b9bc56aa67618700000000", "vin": [{"sequence": 4294967295, "scriptSig": {"hex": "00473044022020ece05b0172570fca185f5ac40d2216d3e4268754d2cbf6197b3d99f5b0afc2022054c434b85772893606e9e717120e4c8e59a5ad5d7c92e21d8bb699ed7b6845cb01483045022100b6147c9ba15bf4125dacbd89ce45f8567e4bb78135b5d719ae2345e11d18a254022063dfc7f8b9fd1317178000707a2897ed5b2b1fd18b2b1730ed971e205bc658c10147522103abc8a801f5fbb4fd5f6510ba530d534b0efb584b4298cea1e6e2d45cd1000aef2102a29577404fa42d6d12e0d867249d4ee805afecc9e10879ed668da9958dc7b65052ae", "asm": "0 3044022020ece05b0172570fca185f5ac40d2216d3e4268754d2cbf6197b3d99f5b0afc2022054c434b85772893606e9e717120e4c8e59a5ad5d7c92e21d8bb699ed7b6845cb[ALL] 3045022100b6147c9ba15bf4125dacbd89ce45f8567e4bb78135b5d719ae2345e11d18a254022063dfc7f8b9fd1317178000707a2897ed5b2b1fd18b2b1730ed971e205bc658c1[ALL] 522103abc8a801f5fbb4fd5f6510ba530d534b0efb584b4298cea1e6e2d45cd1000aef2102a29577404fa42d6d12e0d867249d4ee805afecc9e10879ed668da9958dc7b65052ae"}, "vout": 1, "txid": "bf2e292f399fe286843c6bd04cd9f43884361068ca699688d1c7ede354855289"}], "txid": "eb17b03e21a9ec457bb05b3847b6685461e2ce580606edd041893d261f87affe", "blocktime": 1537872018, "version": 1, "confirmations": 11489, "time": 1537872018, "locktime": 0, "vsize": 333, "size": 333}