{"hash": "eb1c9fb5eaf695bcae9dd90670f0f0e8feaf819eb179f2b386c6a049e7a27d7b", "blockhash": "0000000000000000001e0dab787dd257d1dbfcb92a98c2207d5e1078be1f4165", "vout": [{"scriptPubKey": {"type": "nulldata", "hex": "6a4c50000077af000133d242bfa6513a9aee3b9501af6c953dd567cf27e7e3ef3236678a62509767e2578ffb078e13fec09074c7521b0a5baa11320612075735e6fe334bbf23acfcfaac8058b692fe6808c31d", "asm": "OP_RETURN 000077af000133d242bfa6513a9aee3b9501af6c953dd567cf27e7e3ef3236678a62509767e2578ffb078e13fec09074c7521b0a5baa11320612075735e6fe334bbf23acfcfaac8058b692fe6808c31d"}, "value": 0.0, "n": 0}, {"scriptPubKey": {"reqSigs": 1, "hex": "76a9143f9fe9444197dee9b10766bb002c039e1d6a2c9788ac", "addresses": ["16oR8unepAbveiC9Qzw9JueAYbHNxFR86h"], "asm": "OP_DUP OP_HASH160 3f9fe9444197dee9b10766bb002c039e1d6a2c97 OP_EQUALVERIFY OP_CHECKSIG", "type": "pubkeyhash"}, "value": 0.00018169, "n": 1}], "hex": "01000000019f0b278aa41fbb1e252f83f92195d79a8ca830213f85c96b687d96cf018c3c45010000006b483045022100faaa07a81dd8f57a923557e8bcef772dbb3ff7500a91a6373f028df14d53319902200a7cc6eef8e9436ca67d992a7a0682f212297480855ea00dc8bee313a755f1800121027aa09a39eae1f93757a216680dad75c11b5479ba11dac47373e29128b46cdfd8ffffffff020000000000000000536a4c50000077af000133d242bfa6513a9aee3b9501af6c953dd567cf27e7e3ef3236678a62509767e2578ffb078e13fec09074c7521b0a5baa11320612075735e6fe334bbf23acfcfaac8058b692fe6808c31df9460000000000001976a9143f9fe9444197dee9b10766bb002c039e1d6a2c9788ac00000000", "vin": [{"sequence": 4294967295, "scriptSig": {"hex": "483045022100faaa07a81dd8f57a923557e8bcef772dbb3ff7500a91a6373f028df14d53319902200a7cc6eef8e9436ca67d992a7a0682f212297480855ea00dc8bee313a755f1800121027aa09a39eae1f93757a216680dad75c11b5479ba11dac47373e29128b46cdfd8", "asm": "3045022100faaa07a81dd8f57a923557e8bcef772dbb3ff7500a91a6373f028df14d53319902200a7cc6eef8e9436ca67d992a7a0682f212297480855ea00dc8bee313a755f180[ALL] 027aa09a39eae1f93757a216680dad75c11b5479ba11dac47373e29128b46cdfd8"}, "vout": 1, "txid": "453c8c01cf967d686bc9853f2130a88c9ad79521f9832f251ebb1fa48a270b9f"}], "txid": "eb1c9fb5eaf695bcae9dd90670f0f0e8feaf819eb179f2b386c6a049e7a27d7b", "blocktime": 1537872475, "version": 1, "confirmations": 11486, "time": 1537872475, "locktime": 0, "vsize": 284, "size": 284}