{"hash": "eb1cf9cea1590627f8eb60fa20163d3097d92da61f6f24a0638f6eeb32749dd1", "blockhash": "0000000000000000001f76057863aec43deb6fa401d9628bb513d65a8098bfab", "vout": [{"scriptPubKey": {"reqSigs": 1, "hex": "a91408b69f9e56f432e8f1477defb44a3e73788bdf9487", "addresses": ["32V66yvkKY7Kqs2rsVkRetEGKPfRQ7zgJt"], "asm": "OP_HASH160 08b69f9e56f432e8f1477defb44a3e73788bdf94 OP_EQUAL", "type": "scripthash"}, "value": 0.0028, "n": 0}, {"scriptPubKey": {"reqSigs": 1, "hex": "76a914b230e3861bc27e83b3ce54e3e5c2f0e90fa7843c88ac", "addresses": ["1HFBqzp7WBkHcwc1NAY43MpVfBEx2ubEgd"], "asm": "OP_DUP OP_HASH160 b230e3861bc27e83b3ce54e3e5c2f0e90fa7843c OP_EQUALVERIFY OP_CHECKSIG", "type": "pubkeyhash"}, "value": 0.01, "n": 1}], "hex": "0200000001682ce76f125a543250a7b9653ca59abca3044e4dca726300f20ca227a350ac30070000006a473044022012fe9c6cd34acb4fc52ccc2231e6788cb30ff90a045a9e5517fa67c4d2603f6d02204bff90475364e56d4735bbfcd3b870a5e68e282b36337f459bfef834ab147ff20121034e32f32bd8303468489af054808cb2cacf620f56b60c3e09035f0ce980dacb8efeffffff02c04504000000000017a91408b69f9e56f432e8f1477defb44a3e73788bdf948740420f00000000001976a914b230e3861bc27e83b3ce54e3e5c2f0e90fa7843c88ac14490800", "vin": [{"sequence": 4294967294, "scriptSig": {"hex": "473044022012fe9c6cd34acb4fc52ccc2231e6788cb30ff90a045a9e5517fa67c4d2603f6d02204bff90475364e56d4735bbfcd3b870a5e68e282b36337f459bfef834ab147ff20121034e32f32bd8303468489af054808cb2cacf620f56b60c3e09035f0ce980dacb8e", "asm": "3044022012fe9c6cd34acb4fc52ccc2231e6788cb30ff90a045a9e5517fa67c4d2603f6d02204bff90475364e56d4735bbfcd3b870a5e68e282b36337f459bfef834ab147ff2[ALL] 034e32f32bd8303468489af054808cb2cacf620f56b60c3e09035f0ce980dacb8e"}, "vout": 7, "txid": "30ac50a327a20cf2006372ca4d4e04a3bc9aa53c65b9a75032545a126fe72c68"}], "txid": "eb1cf9cea1590627f8eb60fa20163d3097d92da61f6f24a0638f6eeb32749dd1", "blocktime": 1537873891, "version": 2, "confirmations": 11474, "time": 1537873891, "locktime": 542996, "vsize": 223, "size": 223}