{"hash": "eb221f50cf50ba3c1d82c126d587a33e91779d56f0cf5b5b37483d688f3a568f", "blockhash": "00000000000000000004ffacab907a6b429b9a5745fa0b75af4234bf69dd7176", "vout": [{"scriptPubKey": {"reqSigs": 1, "hex": "a914030e438119ea47380eadd7afa81d5a510c79cfe187", "addresses": ["31yB3BG4noPnpYVgiUVvBQky7DtViaKrgA"], "asm": "OP_HASH160 030e438119ea47380eadd7afa81d5a510c79cfe1 OP_EQUAL", "type": "scripthash"}, "value": 0.1, "n": 0}, {"scriptPubKey": {"reqSigs": 1, "hex": "76a9146bc455d6161702cc74f1914c94836491695a8a5c88ac", "addresses": ["1AppW9D3H1m5GBFDmuaNzcT92pZ3w7aYwE"], "asm": "OP_DUP OP_HASH160 6bc455d6161702cc74f1914c94836491695a8a5c OP_EQUALVERIFY OP_CHECKSIG", "type": "pubkeyhash"}, "value": 0.21944476, "n": 1}], "hex": "0100000001db995dc7b252ef592b20d52aad5a92e9b8ba88e3c6afa43cb4e1a8224be03303000000006a473044022013c3d86ba0ed98921eb5c9254260d1ad28b061ae0ad9dc4182b974d458a33f670220468a9211cc5c2e2e30e103a9a213f18acdcba173c910a5183599fd3bfd9a0ba80121034d6333ef21dcf53cfd3f904d938929d971d36b9ae8224805ee875a9e567b5f81ffffffff02809698000000000017a914030e438119ea47380eadd7afa81d5a510c79cfe1879cd84e01000000001976a9146bc455d6161702cc74f1914c94836491695a8a5c88ac00000000", "vin": [{"sequence": 4294967295, "scriptSig": {"hex": "473044022013c3d86ba0ed98921eb5c9254260d1ad28b061ae0ad9dc4182b974d458a33f670220468a9211cc5c2e2e30e103a9a213f18acdcba173c910a5183599fd3bfd9a0ba80121034d6333ef21dcf53cfd3f904d938929d971d36b9ae8224805ee875a9e567b5f81", "asm": "3044022013c3d86ba0ed98921eb5c9254260d1ad28b061ae0ad9dc4182b974d458a33f670220468a9211cc5c2e2e30e103a9a213f18acdcba173c910a5183599fd3bfd9a0ba8[ALL] 034d6333ef21dcf53cfd3f904d938929d971d36b9ae8224805ee875a9e567b5f81"}, "vout": 0, "txid": "0333e04b22a8e1b43ca4afc6e388bab8e9925aad2ad5202b59ef52b2c75d99db"}], "txid": "eb221f50cf50ba3c1d82c126d587a33e91779d56f0cf5b5b37483d688f3a568f", "blocktime": 1537875543, "version": 1, "confirmations": 11464, "time": 1537875543, "locktime": 0, "vsize": 223, "size": 223}