{"hash": "eb269f0a19dc4099746a7ca9e305c7bd486f11ac4439f65430f727ec61b0b49a", "blockhash": "0000000000000000000e13cef7c366c0283d82e591d1acd082e914b08063cdf1", "vout": [{"scriptPubKey": {"reqSigs": 1, "hex": "a9143f8f997f4f9c8cc46ec7fc6bb7e214da7d928a5487", "addresses": ["37V6X6zVwgbiPnP5ZkMdJExnbtUah7qhWp"], "asm": "OP_HASH160 3f8f997f4f9c8cc46ec7fc6bb7e214da7d928a54 OP_EQUAL", "type": "scripthash"}, "value": 0.00035, "n": 0}], "hex": "01000000035a0a664ca0d8e30fd01cea12174a5f383909948b640bba395a3240a56118f836000000006b483045022100c3615624567c92e67dc62e83bd6629f4aff6c8b457d157a5acab72e6af314ab30220754f0ea478fa7e748452793617d9246936169e68ff93ae00b8a24795aff8a216012102017c3f47f13370fb6bcd15604bbbdb9ecbc308d690df3e98fc08c455dfcb284effffffff72e05114f7b51928683c478c5685ed861c39b3ef1de9f1fcd932692c0d20c684000000006b483045022100f84fe07e5db4fcdeecefd58f67f6472eac0412964e32c21857611c7b589f06cd02206b14f53a755a4c3c2f429abaf117d135e21fb118a56f244532d467470aba278a0121027bce9e308990280dee2d0de59e949f2cae576038cf2916b6abdd647f933946b8ffffffff61b8eeff6b7f6e5f2e439d62b8ef289a78af0d7fa3e6cd83e796260bcd2334ca000000006b483045022100ab72e1ffbbaf542776657562da17561f49f9a3c2ff640ec371c65c89996fd2b5022011ecdd9588294239bdfa55158b20fbdcf43a544405c5e063d56984895bb72121012102b996e41b15f95807f145f990a8877c24c79adfd3ca7c6698c4c3f412a8e882dcffffffff01b88800000000000017a9143f8f997f4f9c8cc46ec7fc6bb7e214da7d928a548700000000", "vin": [{"sequence": 4294967295, "scriptSig": {"hex": "483045022100c3615624567c92e67dc62e83bd6629f4aff6c8b457d157a5acab72e6af314ab30220754f0ea478fa7e748452793617d9246936169e68ff93ae00b8a24795aff8a216012102017c3f47f13370fb6bcd15604bbbdb9ecbc308d690df3e98fc08c455dfcb284e", "asm": "3045022100c3615624567c92e67dc62e83bd6629f4aff6c8b457d157a5acab72e6af314ab30220754f0ea478fa7e748452793617d9246936169e68ff93ae00b8a24795aff8a216[ALL] 02017c3f47f13370fb6bcd15604bbbdb9ecbc308d690df3e98fc08c455dfcb284e"}, "vout": 0, "txid": "36f81861a540325a39ba0b648b940939385f4a1712ea1cd00fe3d8a04c660a5a"}, {"sequence": 4294967295, "scriptSig": {"hex": "483045022100f84fe07e5db4fcdeecefd58f67f6472eac0412964e32c21857611c7b589f06cd02206b14f53a755a4c3c2f429abaf117d135e21fb118a56f244532d467470aba278a0121027bce9e308990280dee2d0de59e949f2cae576038cf2916b6abdd647f933946b8", "asm": "3045022100f84fe07e5db4fcdeecefd58f67f6472eac0412964e32c21857611c7b589f06cd02206b14f53a755a4c3c2f429abaf117d135e21fb118a56f244532d467470aba278a[ALL] 027bce9e308990280dee2d0de59e949f2cae576038cf2916b6abdd647f933946b8"}, "vout": 0, "txid": "84c6200d2c6932d9fcf1e91defb3391c86ed85568c473c682819b5f71451e072"}, {"sequence": 4294967295, "scriptSig": {"hex": "483045022100ab72e1ffbbaf542776657562da17561f49f9a3c2ff640ec371c65c89996fd2b5022011ecdd9588294239bdfa55158b20fbdcf43a544405c5e063d56984895bb72121012102b996e41b15f95807f145f990a8877c24c79adfd3ca7c6698c4c3f412a8e882dc", "asm": "3045022100ab72e1ffbbaf542776657562da17561f49f9a3c2ff640ec371c65c89996fd2b5022011ecdd9588294239bdfa55158b20fbdcf43a544405c5e063d56984895bb72121[ALL] 02b996e41b15f95807f145f990a8877c24c79adfd3ca7c6698c4c3f412a8e882dc"}, "vout": 0, "txid": "ca3423cd0b2696e783cde6a37f0daf789a28efb8629d432e5f6e7f6bffeeb861"}], "txid": "eb269f0a19dc4099746a7ca9e305c7bd486f11ac4439f65430f727ec61b0b49a", "blocktime": 1537871767, "version": 1, "confirmations": 11491, "time": 1537871767, "locktime": 0, "vsize": 486, "size": 486}