{"hash": "1e00433a7e1c1596cddf71ef17cc7b05309480d486da7b371a82b82aecd531a2", "blockhash": "0000000000000000000e13cef7c366c0283d82e591d1acd082e914b08063cdf1", "vout": [{"scriptPubKey": {"reqSigs": 1, "hex": "a914e853c2a45a660a40aad3f850ba0644b5876f41c087", "addresses": ["3NsT2pNJknKFr6XF8KhNwztihARiUMVwpZ"], "asm": "OP_HASH160 e853c2a45a660a40aad3f850ba0644b5876f41c0 OP_EQUAL", "type": "scripthash"}, "value": 0.0005, "n": 0}, {"scriptPubKey": {"reqSigs": 1, "hex": "76a9142d17a30c0b618604cb10e7785991fba6698a495b88ac", "addresses": ["157RixHPm2keJnbdtZQXV3j5Hny6BACjN4"], "asm": "OP_DUP OP_HASH160 2d17a30c0b618604cb10e7785991fba6698a495b OP_EQUALVERIFY OP_CHECKSIG", "type": "pubkeyhash"}, "value": 0.49386, "n": 1}, {"scriptPubKey": {"reqSigs": 1, "hex": "a914898424bfe15b3375c83fd27fc7b4c3485b9fc32c87", "addresses": ["3EE8oKVB4da2A4MprspZ1NoGmfPqRP3cPQ"], "asm": "OP_HASH160 898424bfe15b3375c83fd27fc7b4c3485b9fc32c OP_EQUAL", "type": "scripthash"}, "value": 0.83827232, "n": 2}], "hex": "02000000000101b3303e13112f93331d4755d97192aaa1f25c2bede09cf75c711cf5ae7ac1007d0000000017160014c206223a4dfe3d8e4341c374e8210e1a9226e282feffffff0350c300000000000017a914e853c2a45a660a40aad3f850ba0644b5876f41c0871092f102000000001976a9142d17a30c0b618604cb10e7785991fba6698a495b88ac201aff040000000017a914898424bfe15b3375c83fd27fc7b4c3485b9fc32c870247304402201eda9231ff1a8be3600e8a1c2d4575cf5018e662d3ef26458b4532ccc2aee86102201d075f23ccd0701875fc6ea3cfebcc28ae48fe7cb35afb8ae49428e74701991d0121020e9a88616cbcf6325f82261aee7fb7f1af7b9b4f28eca7c2507faca389981f2810490800", "vin": [{"txinwitness": ["304402201eda9231ff1a8be3600e8a1c2d4575cf5018e662d3ef26458b4532ccc2aee86102201d075f23ccd0701875fc6ea3cfebcc28ae48fe7cb35afb8ae49428e74701991d01", "020e9a88616cbcf6325f82261aee7fb7f1af7b9b4f28eca7c2507faca389981f28"], "sequence": 4294967294, "scriptSig": {"hex": "160014c206223a4dfe3d8e4341c374e8210e1a9226e282", "asm": "0014c206223a4dfe3d8e4341c374e8210e1a9226e282"}, "vout": 0, "txid": "7d00c17aaef51c715cf79ce0ed2b5cf2a1aa9271d955471d33932f11133e30b3"}], "txid": "eb37eaa654817daa7b0c9b52dd7417e659026ca30b50066df969ab03e9058e09", "blocktime": 1537871767, "version": 2, "confirmations": 11491, "time": 1537871767, "locktime": 542992, "vsize": 200, "size": 281}