{"hash": "7575fba5f283c5a6e787d1258739d4b81779c819cc9256427ef82d3924fcfb7b", "blockhash": "000000000000000000022b45ed06c6f4ccd3cf7fb5ba4856ebd2e58215665228", "vout": [{"scriptPubKey": {"reqSigs": 1, "hex": "a9144e6c464717c7d4f2c0c42ebb8757c755e4ed6a3b87", "addresses": ["38qgLYyw2kQx1ZYHvpVoqXQQ5MLNK9T1x5"], "asm": "OP_HASH160 4e6c464717c7d4f2c0c42ebb8757c755e4ed6a3b OP_EQUAL", "type": "scripthash"}, "value": 0.0003, "n": 0}, {"scriptPubKey": {"reqSigs": 1, "hex": "76a914970c72b241f6ae9339f3a2a784c0f5dc8709438788ac", "addresses": ["1EmfwsWZ4jvBrrn7GZmRiJsFLicjkH62ds"], "asm": "OP_DUP OP_HASH160 970c72b241f6ae9339f3a2a784c0f5dc87094387 OP_EQUALVERIFY OP_CHECKSIG", "type": "pubkeyhash"}, "value": 0.020963, "n": 1}, {"scriptPubKey": {"reqSigs": 1, "hex": "a9141988a27e3c2df4ddee7fad5a2303d086179b2a3087", "addresses": ["3422VtS7UtCvXYxoXMVp6eZupR252z85oC"], "asm": "OP_HASH160 1988a27e3c2df4ddee7fad5a2303d086179b2a30 OP_EQUAL", "type": "scripthash"}, "value": 2.34502585, "n": 2}, {"scriptPubKey": {"reqSigs": 1, "hex": "76a914f188bd873a5fa88351be5269564381f11283adf788ac", "addresses": ["1P27f7n3w1mpNAkdb31kBa39edzRrkPc67"], "asm": "OP_DUP OP_HASH160 f188bd873a5fa88351be5269564381f11283adf7 OP_EQUALVERIFY OP_CHECKSIG", "type": "pubkeyhash"}, "value": 0.00186201, "n": 3}, {"scriptPubKey": {"reqSigs": 1, "hex": "76a9145812d5fdfe47c2c858f72f774a99d8d7315c6d2588ac", "addresses": ["192h2d8CkTJJ5m7Kf7kCJBRZ25b8HjCD74"], "asm": "OP_DUP OP_HASH160 5812d5fdfe47c2c858f72f774a99d8d7315c6d25 OP_EQUALVERIFY OP_CHECKSIG", "type": "pubkeyhash"}, "value": 0.004, "n": 4}, {"scriptPubKey": {"reqSigs": 1, "hex": "76a914f7ac04c520e431d6021ad4387ccd9d3b2dbe2f5388ac", "addresses": ["1PaZyStEWCdefUqufvJwDJCfhQXxmJDX3W"], "asm": "OP_DUP OP_HASH160 f7ac04c520e431d6021ad4387ccd9d3b2dbe2f53 OP_EQUALVERIFY OP_CHECKSIG", "type": "pubkeyhash"}, "value": 0.15574, "n": 5}, {"scriptPubKey": {"reqSigs": 1, "hex": "76a91413d186eb7447af2a72b9e040be47af405a5464a988ac", "addresses": ["12onqqcEuWLGTGfHYrkAJvZHmrMGyVieDa"], "asm": "OP_DUP OP_HASH160 13d186eb7447af2a72b9e040be47af405a5464a9 OP_EQUALVERIFY OP_CHECKSIG", "type": "pubkeyhash"}, "value": 0.0047, "n": 6}], "hex": "01000000000101dc4aaeec85d098ad28593c7586f69fc0d5a82bcb8bbff9ccef5903e406b1120303000000232200202035e78a6b34d583ad0a874b80ee41a0507b92cf0b671656108f594c7f75ca90ffffffff07307500000000000017a9144e6c464717c7d4f2c0c42ebb8757c755e4ed6a3b87acfc1f00000000001976a914970c72b241f6ae9339f3a2a784c0f5dc8709438788acb939fa0d0000000017a9141988a27e3c2df4ddee7fad5a2303d086179b2a308759d70200000000001976a914f188bd873a5fa88351be5269564381f11283adf788ac801a0600000000001976a9145812d5fdfe47c2c858f72f774a99d8d7315c6d2588acf0a3ed00000000001976a914f7ac04c520e431d6021ad4387ccd9d3b2dbe2f5388acf02b0700000000001976a91413d186eb7447af2a72b9e040be47af405a5464a988ac0400483045022100ee8022a13527326a396894e2397259b9ca26518786922a8a660efdbc4264c64a02202967d8cd12cfec89443d7c68f4bf0bc86691a3d29e19f46a6f765e89113b8f630147304402204c0dec974351ead9334f4bee0a4d5232085dabae5aa19dbb90964f704030fff90220166e01d2d0257ed918aabc11c430f0209b3fc30f3c86d75664b04c3316c621ed01695221029103d1dfbbee9ea5249ee0b03ca59e08291ce34a7467513edf8ea767b5aa26382103dce07bea5905a1c3e70f86c1f74f0e98e7cf3b6f5d02226a4c531c9e930c613b210268d8878afaf4b55118519d8520fe0db27f9596a812d4378f4bf4a96a5333694653ae00000000", "vin": [{"txinwitness": ["", "3045022100ee8022a13527326a396894e2397259b9ca26518786922a8a660efdbc4264c64a02202967d8cd12cfec89443d7c68f4bf0bc86691a3d29e19f46a6f765e89113b8f6301", "304402204c0dec974351ead9334f4bee0a4d5232085dabae5aa19dbb90964f704030fff90220166e01d2d0257ed918aabc11c430f0209b3fc30f3c86d75664b04c3316c621ed01", "5221029103d1dfbbee9ea5249ee0b03ca59e08291ce34a7467513edf8ea767b5aa26382103dce07bea5905a1c3e70f86c1f74f0e98e7cf3b6f5d02226a4c531c9e930c613b210268d8878afaf4b55118519d8520fe0db27f9596a812d4378f4bf4a96a5333694653ae"], "sequence": 4294967295, "scriptSig": {"hex": "2200202035e78a6b34d583ad0a874b80ee41a0507b92cf0b671656108f594c7f75ca90", "asm": "00202035e78a6b34d583ad0a874b80ee41a0507b92cf0b671656108f594c7f75ca90"}, "vout": 3, "txid": "0312b106e40359efccf9bf8bcb2ba8d5c09ff686753c5928ad98d085ecae4adc"}], "txid": "eb3ddeb31fb88d73ff7f1a38071469f30056148590ac9f89b061d8323383c63b", "blocktime": 1537869901, "version": 1, "confirmations": 11522, "time": 1537869901, "locktime": 0, "vsize": 384, "size": 575}