{"hash": "e95ccfb7277382f76199ad8ec8cb0720009d9b09f58459e6fade125c583bcb61", "blockhash": "0000000000000000001f76057863aec43deb6fa401d9628bb513d65a8098bfab", "vout": [{"scriptPubKey": {"reqSigs": 1, "hex": "a9147869f4a5dd738cc0f992ce047300ab7e4a87a69987", "addresses": ["3CfhwVTTNVgddgTtbmGqaCJcDx9ZU9z2mH"], "asm": "OP_HASH160 7869f4a5dd738cc0f992ce047300ab7e4a87a699 OP_EQUAL", "type": "scripthash"}, "value": 0.00998966, "n": 0}, {"scriptPubKey": {"reqSigs": 1, "hex": "76a91427b10fa81ea5bb69ff9089d01e39011cc0895f8988ac", "addresses": ["14csTua7E8hT8tQui8upiQ57bgwYn46Nz2"], "asm": "OP_DUP OP_HASH160 27b10fa81ea5bb69ff9089d01e39011cc0895f89 OP_EQUALVERIFY OP_CHECKSIG", "type": "pubkeyhash"}, "value": 0.0026116, "n": 1}], "hex": "02000000000102093503a18869faa9353069952992d17c9a0dd59de53240af23d702a0c51ef5160f00000017160014649778e1605642742cfcc613d9d8a17cd7972a59feffffff16a3a9529779e30b3a995e687a83f7f0318cfe90c23ea5f2ab1c67d2a6c6cc5a000000001716001477eebb8fc35627dcf5f97496b8483428170c39befeffffff02363e0f000000000017a9147869f4a5dd738cc0f992ce047300ab7e4a87a6998728fc0300000000001976a91427b10fa81ea5bb69ff9089d01e39011cc0895f8988ac0247304402201835250a56a7c3748110512ed7a441ee8a63ee5ed713bff91aada0216a36be030220547ea2f9f294680f21a9747c0aa0a02f9cb1e31136e22006545bb220e4e8cbfa01210264a4769e12095e4a3338a991107e838445e9caa282f605a07fa3526f375fa9fc02483045022100e07e227808f21144e6bbf530d04aedeed18c8b24e15418a204b659440eecfb5902207987e8b6b95788373066ccca795d4a878840037f53f015880e689bb41524e0b3012102df9facecf965313d318702da929a6fa2a519cb4df7a626cc53c9c6066ef6592c14490800", "vin": [{"txinwitness": ["304402201835250a56a7c3748110512ed7a441ee8a63ee5ed713bff91aada0216a36be030220547ea2f9f294680f21a9747c0aa0a02f9cb1e31136e22006545bb220e4e8cbfa01", "0264a4769e12095e4a3338a991107e838445e9caa282f605a07fa3526f375fa9fc"], "sequence": 4294967294, "scriptSig": {"hex": "160014649778e1605642742cfcc613d9d8a17cd7972a59", "asm": "0014649778e1605642742cfcc613d9d8a17cd7972a59"}, "vout": 15, "txid": "16f51ec5a002d723af4032e59dd50d9a7cd1922995693035a9fa6988a1033509"}, {"txinwitness": ["3045022100e07e227808f21144e6bbf530d04aedeed18c8b24e15418a204b659440eecfb5902207987e8b6b95788373066ccca795d4a878840037f53f015880e689bb41524e0b301", "02df9facecf965313d318702da929a6fa2a519cb4df7a626cc53c9c6066ef6592c"], "sequence": 4294967294, "scriptSig": {"hex": "16001477eebb8fc35627dcf5f97496b8483428170c39be", "asm": "001477eebb8fc35627dcf5f97496b8483428170c39be"}, "vout": 0, "txid": "5accc6a6d2671cabf2a53ec290fe8c31f0f7837a685e993a0be3799752a9a316"}], "txid": "eb3d58bccd7adbc5452b4e511cc0ffd28d55cfe4c981b285b7b71f5d9b25f752", "blocktime": 1537873891, "version": 2, "confirmations": 11478, "time": 1537873891, "locktime": 542996, "vsize": 259, "size": 421}