{"hash": "eb41decd6771db0d23fcfd533619251f8acd2ea49fefde895591beb611be7e32", "blockhash": "0000000000000000000e13cef7c366c0283d82e591d1acd082e914b08063cdf1", "vout": [{"scriptPubKey": {"reqSigs": 1, "hex": "a91456c167364f1db0526456d42d6390eec3ae445f1f87", "addresses": ["39bjivqzUD3cj2WK5vb3hppPF1aPJhvfqr"], "asm": "OP_HASH160 56c167364f1db0526456d42d6390eec3ae445f1f OP_EQUAL", "type": "scripthash"}, "value": 0.03001824, "n": 0}, {"scriptPubKey": {"reqSigs": 1, "hex": "76a914b0ed70d15688f23c01c93ad7352a99484c52bdac88ac", "addresses": ["1H8WNRzFtkbQhzm4qtUeB4QRTrgp3zAux2"], "asm": "OP_DUP OP_HASH160 b0ed70d15688f23c01c93ad7352a99484c52bdac OP_EQUALVERIFY OP_CHECKSIG", "type": "pubkeyhash"}, "value": 0.00043574, "n": 1}], "hex": "0100000002df34484d203554f526ff0d70b3c3b6ea5449a01f1c75f8057f3fdded1afd80d900000000d900473044022017d97b0f926de0d2ae11365874888a6a13f5d5e3a59b4805928d8e9d5b3315fd0220319591462d4daa8ef2f55607b9556b7ecd3a33a67da3b56471d4f82ebdd515d8014730440220650fcb32148a0ab975f8c89f47bc11a13442cb46e3bbc48a132c376164b8cb1802203c58bc17971f8bcb467e98307a425e0afaf155b603018a5b6fa8a6cf9c56ddcc0147522102907a54bed8ad74b3f35638c60114ca240a308cb986f3f2f306178869a8880b612102baa42fcd1ad9bb5c7ba61bd2ae46c714bf154dd40e9a17be5e957fe16878d98152aeffffffff678a9bdbef2a576662b865849ddbd6e453ddcce82ba84c3e86be22da42b5b41400000000db00483045022100e7472c7eb6cac4f3a4029f3d1e52c7a1d06c7db567337700da149b373bb2a56102204216c75289629eda2f6b843bb3ffe1d0047c01fec6660c0eacabea4e4209f33701483045022100a19a564d5f465e162027bc216d9742c49a62a112af0b7ed01127c312392de139022025d9a0f44c0bc9374849cb8da5329a926ea5cd529d26e30d64cca4f74a9f290a01475221021464ae82d5a702005ba3a2186d50838d18f612d56cfd42a8219f183432e121532102907a54bed8ad74b3f35638c60114ca240a308cb986f3f2f306178869a8880b6152aeffffffff02e0cd2d000000000017a91456c167364f1db0526456d42d6390eec3ae445f1f8736aa0000000000001976a914b0ed70d15688f23c01c93ad7352a99484c52bdac88ac00000000", "vin": [{"sequence": 4294967295, "scriptSig": {"hex": "00473044022017d97b0f926de0d2ae11365874888a6a13f5d5e3a59b4805928d8e9d5b3315fd0220319591462d4daa8ef2f55607b9556b7ecd3a33a67da3b56471d4f82ebdd515d8014730440220650fcb32148a0ab975f8c89f47bc11a13442cb46e3bbc48a132c376164b8cb1802203c58bc17971f8bcb467e98307a425e0afaf155b603018a5b6fa8a6cf9c56ddcc0147522102907a54bed8ad74b3f35638c60114ca240a308cb986f3f2f306178869a8880b612102baa42fcd1ad9bb5c7ba61bd2ae46c714bf154dd40e9a17be5e957fe16878d98152ae", "asm": "0 3044022017d97b0f926de0d2ae11365874888a6a13f5d5e3a59b4805928d8e9d5b3315fd0220319591462d4daa8ef2f55607b9556b7ecd3a33a67da3b56471d4f82ebdd515d8[ALL] 30440220650fcb32148a0ab975f8c89f47bc11a13442cb46e3bbc48a132c376164b8cb1802203c58bc17971f8bcb467e98307a425e0afaf155b603018a5b6fa8a6cf9c56ddcc[ALL] 522102907a54bed8ad74b3f35638c60114ca240a308cb986f3f2f306178869a8880b612102baa42fcd1ad9bb5c7ba61bd2ae46c714bf154dd40e9a17be5e957fe16878d98152ae"}, "vout": 0, "txid": "d980fd1aeddd3f7f05f8751c1fa04954eab6c3b3700dff26f55435204d4834df"}, {"sequence": 4294967295, "scriptSig": {"hex": "00483045022100e7472c7eb6cac4f3a4029f3d1e52c7a1d06c7db567337700da149b373bb2a56102204216c75289629eda2f6b843bb3ffe1d0047c01fec6660c0eacabea4e4209f33701483045022100a19a564d5f465e162027bc216d9742c49a62a112af0b7ed01127c312392de139022025d9a0f44c0bc9374849cb8da5329a926ea5cd529d26e30d64cca4f74a9f290a01475221021464ae82d5a702005ba3a2186d50838d18f612d56cfd42a8219f183432e121532102907a54bed8ad74b3f35638c60114ca240a308cb986f3f2f306178869a8880b6152ae", "asm": "0 3045022100e7472c7eb6cac4f3a4029f3d1e52c7a1d06c7db567337700da149b373bb2a56102204216c75289629eda2f6b843bb3ffe1d0047c01fec6660c0eacabea4e4209f337[ALL] 3045022100a19a564d5f465e162027bc216d9742c49a62a112af0b7ed01127c312392de139022025d9a0f44c0bc9374849cb8da5329a926ea5cd529d26e30d64cca4f74a9f290a[ALL] 5221021464ae82d5a702005ba3a2186d50838d18f612d56cfd42a8219f183432e121532102907a54bed8ad74b3f35638c60114ca240a308cb986f3f2f306178869a8880b6152ae"}, "vout": 0, "txid": "14b4b542da22be863e4ca82be8ccdd53e4d6db9d8465b86266572aefdb9b8a67"}], "txid": "eb41decd6771db0d23fcfd533619251f8acd2ea49fefde895591beb611be7e32", "blocktime": 1537871767, "version": 1, "confirmations": 11495, "time": 1537871767, "locktime": 0, "vsize": 594, "size": 594}