{"hash": "eb4452001d6fd8654d830b8b67aea9ff4231bf3a6f07825f0b3a7f0c983a4d26", "blockhash": "0000000000000000001cda96e906b7601b7a6fb1a3b62bca570a9e5d8f4b3de1", "vout": [{"scriptPubKey": {"reqSigs": 1, "hex": "a91489e37bb8d40efcfe72f835dddd7d40f7a132ce5a87", "addresses": ["3EG71e71vuUjpQLGD8bkXNKDMpFcJkpbxB"], "asm": "OP_HASH160 89e37bb8d40efcfe72f835dddd7d40f7a132ce5a OP_EQUAL", "type": "scripthash"}, "value": 0.00365794, "n": 0}, {"scriptPubKey": {"reqSigs": 1, "hex": "76a914a59e7d6d0af7c11fe5fa991a086c04cf4cff74b988ac", "addresses": ["1G6iMj8p7N3HKXUGM4jJdqC6pfFeBsQx49"], "asm": "OP_DUP OP_HASH160 a59e7d6d0af7c11fe5fa991a086c04cf4cff74b9 OP_EQUALVERIFY OP_CHECKSIG", "type": "pubkeyhash"}, "value": 0.03207319, "n": 1}], "hex": "010000000216d6b4e3bedfe16618a00febae2ffee723dd7bd3ac3461a9f49fd46f8d740759000000006a473044022018d750d93a56a3ee3e1c6cbfadf1301aebea0dad5fa7877a034cacd5c941718102202df5ecebdf27aae3e3f2ad1a06d1c3dc0e134d924fae7e5b240fb77f99841b030121035c988471a3c5606bfe8044dcd2b72080f7c20a5c944ef3334c3a61fa0b05c44cffffffff30e7ff9bab0bf5a99879dd9c4076d45fb49a511cc8952a1475bb298c6a6e1f7b000000006b483045022100e6345f8c7773c6bc823b9d68c78721c10778ab6c6f8b633925bc804902d69ad002201387abd9164a6f2117c8820760e9198e83cd2201872ce2f1e8851c321dc3cd160121031ae03fc24056cbd30c53958efc630c6438c88b03f0e541f591608bc0d0e7183affffffff02e29405000000000017a91489e37bb8d40efcfe72f835dddd7d40f7a132ce5a8797f03000000000001976a914a59e7d6d0af7c11fe5fa991a086c04cf4cff74b988ac00000000", "vin": [{"sequence": 4294967295, "scriptSig": {"hex": "473044022018d750d93a56a3ee3e1c6cbfadf1301aebea0dad5fa7877a034cacd5c941718102202df5ecebdf27aae3e3f2ad1a06d1c3dc0e134d924fae7e5b240fb77f99841b030121035c988471a3c5606bfe8044dcd2b72080f7c20a5c944ef3334c3a61fa0b05c44c", "asm": "3044022018d750d93a56a3ee3e1c6cbfadf1301aebea0dad5fa7877a034cacd5c941718102202df5ecebdf27aae3e3f2ad1a06d1c3dc0e134d924fae7e5b240fb77f99841b03[ALL] 035c988471a3c5606bfe8044dcd2b72080f7c20a5c944ef3334c3a61fa0b05c44c"}, "vout": 0, "txid": "5907748d6fd49ff4a96134acd37bdd23e7fe2faeeb0fa01866e1dfbee3b4d616"}, {"sequence": 4294967295, "scriptSig": {"hex": "483045022100e6345f8c7773c6bc823b9d68c78721c10778ab6c6f8b633925bc804902d69ad002201387abd9164a6f2117c8820760e9198e83cd2201872ce2f1e8851c321dc3cd160121031ae03fc24056cbd30c53958efc630c6438c88b03f0e541f591608bc0d0e7183a", "asm": "3045022100e6345f8c7773c6bc823b9d68c78721c10778ab6c6f8b633925bc804902d69ad002201387abd9164a6f2117c8820760e9198e83cd2201872ce2f1e8851c321dc3cd16[ALL] 031ae03fc24056cbd30c53958efc630c6438c88b03f0e541f591608bc0d0e7183a"}, "vout": 0, "txid": "7b1f6e6a8c29bb75142a95c81c519ab45fd476409cdd7998a9f50bab9bffe730"}], "txid": "eb4452001d6fd8654d830b8b67aea9ff4231bf3a6f07825f0b3a7f0c983a4d26", "blocktime": 1537873282, "version": 1, "confirmations": 11483, "time": 1537873282, "locktime": 0, "vsize": 371, "size": 371}