{"hash": "eb4777e7d601486facff417c262c2cadc9f2fbe24048ac45ced7085e428013a5", "blockhash": "0000000000000000000baef3f32e3676a92c3b2e5da21b426e4f302fc371ce76", "vout": [{"scriptPubKey": {"reqSigs": 1, "hex": "76a9145ea6e21012c061b1c1587ec2ac892df15f5417de88ac", "addresses": ["19dUSGfvSfAkjatNBC2aVpWRKZVPTdF7m4"], "asm": "OP_DUP OP_HASH160 5ea6e21012c061b1c1587ec2ac892df15f5417de OP_EQUALVERIFY OP_CHECKSIG", "type": "pubkeyhash"}, "value": 0.0046996, "n": 0}, {"scriptPubKey": {"reqSigs": 1, "hex": "76a914f41d492c0a8611d55a8b138e1d169a95ea37d14188ac", "addresses": ["1PFkxd4Cz7zb8deTUtuuamyexFp3rsRpMq"], "asm": "OP_DUP OP_HASH160 f41d492c0a8611d55a8b138e1d169a95ea37d141 OP_EQUALVERIFY OP_CHECKSIG", "type": "pubkeyhash"}, "value": 0.0568456, "n": 1}, {"scriptPubKey": {"reqSigs": 1, "hex": "76a91431f4b18566426a6b6fe16c85ce269f54ed35b35788ac", "addresses": ["15Z9EztYrAyAMVHuy3vkTSCG8a2EEK2PRP"], "asm": "OP_DUP OP_HASH160 31f4b18566426a6b6fe16c85ce269f54ed35b357 OP_EQUALVERIFY OP_CHECKSIG", "type": "pubkeyhash"}, "value": 0.081857, "n": 2}, {"scriptPubKey": {"reqSigs": 1, "hex": "76a914c01190a6aca21bd569fda8eeafeaa334bf694b3c88ac", "addresses": ["1JWZnGn9WkK16fCoFcRep7179Uqv4Vkggr"], "asm": "OP_DUP OP_HASH160 c01190a6aca21bd569fda8eeafeaa334bf694b3c OP_EQUALVERIFY OP_CHECKSIG", "type": "pubkeyhash"}, "value": 0.09158457, "n": 3}], "hex": "0100000001faa4940ce36f1672bb1d85b14bbfbcdf94304318c93fbdae93672a665618f34f010000006a473044022061638694775d0ebbf756feca8b343429848772c1f40b157804f20895c3b21d46022044a26a0fbc1d997910da97e63a416400e7dfac2c23f578de5d7575ded6450c6d01210221e0a0a98c097e8af3bfbec6888be54053c4ed0ab78edbc58ce10f70c47db14bfdffffff04c82b0700000000001976a9145ea6e21012c061b1c1587ec2ac892df15f5417de88ac50bd5600000000001976a914f41d492c0a8611d55a8b138e1d169a95ea37d14188ac64e77c00000000001976a91431f4b18566426a6b6fe16c85ce269f54ed35b35788ac39bf8b00000000001976a914c01190a6aca21bd569fda8eeafeaa334bf694b3c88ac17490800", "vin": [{"sequence": 4294967293, "scriptSig": {"hex": "473044022061638694775d0ebbf756feca8b343429848772c1f40b157804f20895c3b21d46022044a26a0fbc1d997910da97e63a416400e7dfac2c23f578de5d7575ded6450c6d01210221e0a0a98c097e8af3bfbec6888be54053c4ed0ab78edbc58ce10f70c47db14b", "asm": "3044022061638694775d0ebbf756feca8b343429848772c1f40b157804f20895c3b21d46022044a26a0fbc1d997910da97e63a416400e7dfac2c23f578de5d7575ded6450c6d[ALL] 0221e0a0a98c097e8af3bfbec6888be54053c4ed0ab78edbc58ce10f70c47db14b"}, "vout": 1, "txid": "4ff31856662a6793aebd3fc918433094dfbcbf4bb1851dbb72166fe30c94a4fa"}], "txid": "eb4777e7d601486facff417c262c2cadc9f2fbe24048ac45ced7085e428013a5", "blocktime": 1537876114, "version": 1, "confirmations": 11460, "time": 1537876114, "locktime": 542999, "vsize": 293, "size": 293}