{"hash": "64aacc4ee13b200487f0a86be841d98bfbdc8ec246dbaf64ad78aeb272e88c99", "blockhash": "0000000000000000000baef3f32e3676a92c3b2e5da21b426e4f302fc371ce76", "vout": [{"scriptPubKey": {"reqSigs": 1, "hex": "a91490e99e8d26d05ead3c05430c292a887bbff695f587", "addresses": ["3EuF6KjJawxTiUsea3Sc8hsLUGmVEf7Xg5"], "asm": "OP_HASH160 90e99e8d26d05ead3c05430c292a887bbff695f5 OP_EQUAL", "type": "scripthash"}, "value": 0.00101455, "n": 0}, {"scriptPubKey": {"type": "nulldata", "hex": "6a146f6d6e69000000000000001f0000000005f5e100", "asm": "OP_RETURN 6f6d6e69000000000000001f0000000005f5e100"}, "value": 0.0, "n": 1}, {"scriptPubKey": {"reqSigs": 1, "hex": "a91490e99e8d26d05ead3c05430c292a887bbff695f587", "addresses": ["3EuF6KjJawxTiUsea3Sc8hsLUGmVEf7Xg5"], "asm": "OP_HASH160 90e99e8d26d05ead3c05430c292a887bbff695f5 OP_EQUAL", "type": "scripthash"}, "value": 5.4e-06, "n": 2}], "hex": "01000000000102dcd5d73035f9fd77dced3a17a119ffd8e8255d65f8d35b788c636ff4353cb9ce0000000017160014f6e1792e7852ebd5ae795c2a25d579acdfadec2dffffffffdcd5d73035f9fd77dced3a17a119ffd8e8255d65f8d35b788c636ff4353cb9ce0200000017160014f6e1792e7852ebd5ae795c2a25d579acdfadec2dffffffff034f8c01000000000017a91490e99e8d26d05ead3c05430c292a887bbff695f5870000000000000000166a146f6d6e69000000000000001f0000000005f5e1001c0200000000000017a91490e99e8d26d05ead3c05430c292a887bbff695f58702483045022100a55f4f50b64fa8334ef0d6999f63854bdad797774577dda84973ff4657bb963c022055acf106f70896686a124ba9503e55c450d9bfd45edd022ecc4814a437b698ea012103f1cf988013a33e053d1e9bd54c4798c1a6dc362a5b2798b5344049fca40e2db00247304402203551e14bfda249e04d9de233c290c4bb84b8bd349db1302edaf5d7a55848f78b022005f375df8ff57a07d4dfe00f55000070e4b206ad771dd28d2641076bb8574caf012103f1cf988013a33e053d1e9bd54c4798c1a6dc362a5b2798b5344049fca40e2db000000000", "vin": [{"txinwitness": ["3045022100a55f4f50b64fa8334ef0d6999f63854bdad797774577dda84973ff4657bb963c022055acf106f70896686a124ba9503e55c450d9bfd45edd022ecc4814a437b698ea01", "03f1cf988013a33e053d1e9bd54c4798c1a6dc362a5b2798b5344049fca40e2db0"], "sequence": 4294967295, "scriptSig": {"hex": "160014f6e1792e7852ebd5ae795c2a25d579acdfadec2d", "asm": "0014f6e1792e7852ebd5ae795c2a25d579acdfadec2d"}, "vout": 0, "txid": "ceb93c35f46f638c785bd3f8655d25e8d8ff19a1173aeddc77fdf93530d7d5dc"}, {"txinwitness": ["304402203551e14bfda249e04d9de233c290c4bb84b8bd349db1302edaf5d7a55848f78b022005f375df8ff57a07d4dfe00f55000070e4b206ad771dd28d2641076bb8574caf01", "03f1cf988013a33e053d1e9bd54c4798c1a6dc362a5b2798b5344049fca40e2db0"], "sequence": 4294967295, "scriptSig": {"hex": "160014f6e1792e7852ebd5ae795c2a25d579acdfadec2d", "asm": "0014f6e1792e7852ebd5ae795c2a25d579acdfadec2d"}, "vout": 2, "txid": "ceb93c35f46f638c785bd3f8655d25e8d8ff19a1173aeddc77fdf93530d7d5dc"}], "txid": "eb490df43e414f988ea001e0021021a2b772f3ba818a8ea8d194156934529973", "blocktime": 1537876114, "version": 1, "confirmations": 11460, "time": 1537876114, "locktime": 0, "vsize": 288, "size": 450}