{"hash": "568d7a2f1780b952625d218434fc71dec981c54e90c41f59786eac9cee74a626", "blockhash": "00000000000000000017f5eb5941039fbcee6240d03bc1f2f8e35350df66a1d8", "vout": [{"scriptPubKey": {"reqSigs": 1, "hex": "76a9140fd11dc963a5bc81a54f09476ba5fa14b14d76e688ac", "addresses": ["12SdeY7gTMpSM2iFrfX4pMSpWDurY9iaE8"], "asm": "OP_DUP OP_HASH160 0fd11dc963a5bc81a54f09476ba5fa14b14d76e6 OP_EQUALVERIFY OP_CHECKSIG", "type": "pubkeyhash"}, "value": 0.0234, "n": 0}, {"scriptPubKey": {"reqSigs": 1, "hex": "00140cea5a4548e7e65556c8554da09b7384a3c95260", "addresses": ["bc1qpn49532guln924kg24x6pxmnsj3uj5nq5pg4gm"], "asm": "0 0cea5a4548e7e65556c8554da09b7384a3c95260", "type": "witness_v0_keyhash"}, "value": 0.45292585, "n": 1}], "hex": "01000000000101496dd0f10bc2fcb28389f2e29e8fa193023899ea819924979fcdec345afdd2ad0100000000ffffffff02a0b42300000000001976a9140fd11dc963a5bc81a54f09476ba5fa14b14d76e688ac291cb302000000001600140cea5a4548e7e65556c8554da09b7384a3c9526002483045022100c001d45c82879d08e6f853b426032bdd6e029e6f0f92b9df06efab19b65851430220361f1089daa163b4bbe2424270c218d43489b3e03d913addddd05d236e7deb390121021bcd5e8a2eb13b6d3ab661ee1420b3a05356b89d513ce44793e2bccbd342311100000000", "vin": [{"txinwitness": ["3045022100c001d45c82879d08e6f853b426032bdd6e029e6f0f92b9df06efab19b65851430220361f1089daa163b4bbe2424270c218d43489b3e03d913addddd05d236e7deb3901", "021bcd5e8a2eb13b6d3ab661ee1420b3a05356b89d513ce44793e2bccbd3423111"], "sequence": 4294967295, "scriptSig": {"hex": "", "asm": ""}, "vout": 1, "txid": "add2fd5a34eccd9f97249981ea99380293a18f9ee2f28983b2fcc20bf1d06d49"}], "txid": "eb4a27dba3d6b2a34b7f63956c539a2b074a8a88c88684a9b32e5169a7926532", "blocktime": 1537874412, "version": 1, "confirmations": 11467, "time": 1537874412, "locktime": 0, "vsize": 144, "size": 226}