{"hash": "c7c99f9826da3ff0e111bb89577cbb069a1eb9208a772e5946d078452ad450bb", "blockhash": "0000000000000000001e0dab787dd257d1dbfcb92a98c2207d5e1078be1f4165", "vout": [{"scriptPubKey": {"reqSigs": 1, "hex": "a91494fbb5bb90080671770402a432fe22913e4054dd87", "addresses": ["3FGmU3YRsXGPbKyPGgaTBkq4aam4zHnUCE"], "asm": "OP_HASH160 94fbb5bb90080671770402a432fe22913e4054dd OP_EQUAL", "type": "scripthash"}, "value": 0.01420838, "n": 0}, {"scriptPubKey": {"reqSigs": 1, "hex": "a91498fe97c7ef08fcc4c8ae6256dd3d462769db4e5587", "addresses": ["3Fdyd8HUXd8FHS86JpvF5zs9cV9pBcLz2g"], "asm": "OP_HASH160 98fe97c7ef08fcc4c8ae6256dd3d462769db4e55 OP_EQUAL", "type": "scripthash"}, "value": 0.00036616, "n": 1}], "hex": "010000000001010ebc22de9a5a98995c31bc8a13ebcb2dbd937577d2375193fb0d4bf61592008800000000171600140f789dbaaa1c8a0c15fe9d9395ee270ded87146bffffffff0226ae15000000000017a91494fbb5bb90080671770402a432fe22913e4054dd87088f00000000000017a91498fe97c7ef08fcc4c8ae6256dd3d462769db4e558702473044022075c347ef9cea2effaf0cd390baff43eb0c1efdb1fff4b3103a6b9023f1af87380220526faf2d0ae232e8b0b4456fdcb81a795e8a9d080dc8826bd0461126aebadc5301210382cb326fff68e40b752ed98662f37b6f0b11e84997fff01b761fa8111ea439b300000000", "vin": [{"txinwitness": ["3044022075c347ef9cea2effaf0cd390baff43eb0c1efdb1fff4b3103a6b9023f1af87380220526faf2d0ae232e8b0b4456fdcb81a795e8a9d080dc8826bd0461126aebadc5301", "0382cb326fff68e40b752ed98662f37b6f0b11e84997fff01b761fa8111ea439b3"], "sequence": 4294967295, "scriptSig": {"hex": "1600140f789dbaaa1c8a0c15fe9d9395ee270ded87146b", "asm": "00140f789dbaaa1c8a0c15fe9d9395ee270ded87146b"}, "vout": 0, "txid": "88009215f64b0dfb935137d2777593bd2dcbeb138abc315c99985a9ade22bc0e"}], "txid": "eb503e3c72b40d98c500cf2ff2066e491feee90e631225e202c2c455b6dea7c0", "blocktime": 1537872475, "version": 1, "confirmations": 11486, "time": 1537872475, "locktime": 0, "vsize": 166, "size": 247}