{"hash": "eb51964c0be8d3cafae19652eb468d72b532ad2024ab3f8bca08f804098bf66b", "blockhash": "0000000000000000000baef3f32e3676a92c3b2e5da21b426e4f302fc371ce76", "vout": [{"scriptPubKey": {"reqSigs": 1, "hex": "76a914a399bbd4263361ccad78116ec85c481b01215bcf88ac", "addresses": ["1Fv3JsfUGExsG1ieNJdWGeZqSoGWk78JpR"], "asm": "OP_DUP OP_HASH160 a399bbd4263361ccad78116ec85c481b01215bcf OP_EQUALVERIFY OP_CHECKSIG", "type": "pubkeyhash"}, "value": 0.0046982, "n": 0}, {"scriptPubKey": {"reqSigs": 1, "hex": "76a914269d1dc2e7dd493e97a7ea7fe08958064e3f7db988ac", "addresses": ["14XAtvGLrTG2LUPSSbEVRpqdfGYjQ4Seov"], "asm": "OP_DUP OP_HASH160 269d1dc2e7dd493e97a7ea7fe08958064e3f7db9 OP_EQUALVERIFY OP_CHECKSIG", "type": "pubkeyhash"}, "value": 0.19743923, "n": 1}], "hex": "010000000165d712a76815f022f1dc516a7d9c2b531797902432987260c9f3259cb48f0f84200000006a473044022016f0620f49251aa685c2da973913aaf53e0c08e01536ae4f74bdda2ecacd402202207492224500e031e28364673b233408a6fc727e6360455e696573fbd477788fea01210345534c8549b238bb64de236f4d168be04bf8c4ce2017d2fe6c1d380f23c3b457ffffffff023c2b0700000000001976a914a399bbd4263361ccad78116ec85c481b01215bcf88acb3442d01000000001976a914269d1dc2e7dd493e97a7ea7fe08958064e3f7db988ac00000000", "vin": [{"sequence": 4294967295, "scriptSig": {"hex": "473044022016f0620f49251aa685c2da973913aaf53e0c08e01536ae4f74bdda2ecacd402202207492224500e031e28364673b233408a6fc727e6360455e696573fbd477788fea01210345534c8549b238bb64de236f4d168be04bf8c4ce2017d2fe6c1d380f23c3b457", "asm": "3044022016f0620f49251aa685c2da973913aaf53e0c08e01536ae4f74bdda2ecacd402202207492224500e031e28364673b233408a6fc727e6360455e696573fbd477788fea[ALL] 0345534c8549b238bb64de236f4d168be04bf8c4ce2017d2fe6c1d380f23c3b457"}, "vout": 32, "txid": "840f8fb49c25f3c96072983224909717532b9c7d6a51dcf122f01568a712d765"}], "txid": "eb51964c0be8d3cafae19652eb468d72b532ad2024ab3f8bca08f804098bf66b", "blocktime": 1537876114, "version": 1, "confirmations": 11460, "time": 1537876114, "locktime": 0, "vsize": 225, "size": 225}