{"hash": "5d2b4d82a5063f7770cd31005febec828b26fdfa608ab3398f20a1e5e97974b5", "blockhash": "00000000000000000018f53835495a110e01622372bf6ae95dc86f2b0ab887b0", "vout": [{"scriptPubKey": {"reqSigs": 1, "hex": "76a914e2e935237afbbfe00bd99aaa81246024105058c788ac", "addresses": ["1Mgo5uCE8xnPyzaSukNvFp2KYQNQKmaVky"], "asm": "OP_DUP OP_HASH160 e2e935237afbbfe00bd99aaa81246024105058c7 OP_EQUALVERIFY OP_CHECKSIG", "type": "pubkeyhash"}, "value": 0.0031036, "n": 0}, {"scriptPubKey": {"reqSigs": 1, "hex": "a91439b842ad9e30b8c22cad2cb31892d80b06cadb3a87", "addresses": ["36xDB7sxNJSrs5zBMiMxGZfyTD8oWKcUhY"], "asm": "OP_HASH160 39b842ad9e30b8c22cad2cb31892d80b06cadb3a OP_EQUAL", "type": "scripthash"}, "value": 0.00999909, "n": 1}], "hex": "020000000001025facaf964d0432b6e17c7d371d9e2494b1385a07356f0fce6827b5d1ca63fab100000000171600149b7d1bedaefa1864abc898faa0f6891b4a6ac6d4feffffffce0b0ee88c82a4703d67a0b5bf138fcb213b59a9799d5ddcc79416b37bdb715907000000171600140696f2261653d1eeaef62485d4d571662deda5e8feffffff0258bc0400000000001976a914e2e935237afbbfe00bd99aaa81246024105058c788ace5410f000000000017a91439b842ad9e30b8c22cad2cb31892d80b06cadb3a8702483045022100fb582e978b9e580cba5365fb9023c69456a17271d0ab0fbcd3594b44032f92c6022036c9fb39ec72099869b67da1f8dff175e8a8be6ca2d534a2aec59623a94c5628012103ffafa654be2691075289bab67b4eb395ce6232afca409919875aededd56a03d1024730440220391d2df2308f83ac325e4a5bb09927915841c2859f8b9b91b16436211ce54a6002206eeb5580820259a6898e8e0032b37a436c1258ed1727a70d072e0d59872b9f9101210244a427e77a1efe0e4ece075e3f42c9bcf253e0b9755a3da59c816f38204758600d490800", "vin": [{"txinwitness": ["3045022100fb582e978b9e580cba5365fb9023c69456a17271d0ab0fbcd3594b44032f92c6022036c9fb39ec72099869b67da1f8dff175e8a8be6ca2d534a2aec59623a94c562801", "03ffafa654be2691075289bab67b4eb395ce6232afca409919875aededd56a03d1"], "sequence": 4294967294, "scriptSig": {"hex": "1600149b7d1bedaefa1864abc898faa0f6891b4a6ac6d4", "asm": "00149b7d1bedaefa1864abc898faa0f6891b4a6ac6d4"}, "vout": 0, "txid": "b1fa63cad1b52768ce0f6f35075a38b194249e1d377d7ce1b632044d96afac5f"}, {"txinwitness": ["30440220391d2df2308f83ac325e4a5bb09927915841c2859f8b9b91b16436211ce54a6002206eeb5580820259a6898e8e0032b37a436c1258ed1727a70d072e0d59872b9f9101", "0244a427e77a1efe0e4ece075e3f42c9bcf253e0b9755a3da59c816f3820475860"], "sequence": 4294967294, "scriptSig": {"hex": "1600140696f2261653d1eeaef62485d4d571662deda5e8", "asm": "00140696f2261653d1eeaef62485d4d571662deda5e8"}, "vout": 7, "txid": "5971db7bb31694c7dc5d9d79a9593b21cb8f13bfb5a0673d70a4828ce80e0bce"}], "txid": "eb55e36baaf3cd38bd4d9f48648200e8b6fa83f205d3662d970995a843cb441a", "blocktime": 1537870928, "version": 2, "confirmations": 11514, "time": 1537870928, "locktime": 542989, "vsize": 259, "size": 421}