{"hash": "eb57bf7a510c94b7477ef9c90c2a21526f60fc5973ee93d44fd0b93a2c38291a", "blockhash": "0000000000000000001f76057863aec43deb6fa401d9628bb513d65a8098bfab", "vout": [{"scriptPubKey": {"reqSigs": 1, "hex": "a914ad1357dc25a1f780461e117cdee654e24640ead787", "addresses": ["3HU9zihPAvvtuRm6SuKnZkk4HFdnZN8owF"], "asm": "OP_HASH160 ad1357dc25a1f780461e117cdee654e24640ead7 OP_EQUAL", "type": "scripthash"}, "value": 0.00023174, "n": 0}, {"scriptPubKey": {"reqSigs": 1, "hex": "76a91402a344e4aa93126f954066047aee9e752a3058e188ac", "addresses": ["1EwwXCGGAznJuzCsYcd98YmsaXtezvQqv"], "asm": "OP_DUP OP_HASH160 02a344e4aa93126f954066047aee9e752a3058e1 OP_EQUALVERIFY OP_CHECKSIG", "type": "pubkeyhash"}, "value": 0.01545711, "n": 1}, {"scriptPubKey": {"reqSigs": 1, "hex": "a91464702c25da0a13d77c700ff5bc243d97e5ec09ba87", "addresses": ["3Ar5sc4wYaXsa1FyhpnDmYzhbkL2ZZNKEm"], "asm": "OP_HASH160 64702c25da0a13d77c700ff5bc243d97e5ec09ba OP_EQUAL", "type": "scripthash"}, "value": 0.00225, "n": 2}], "hex": "01000000017b906c018c7198eab79bc5c3e20ca9124379562fe05c136748c4e11bf4edd1dc00000000fdfe0000483045022100e50319808fe80d02e12444051421ff52f2dac3e1c6894306eb21994e7fb369a302203d4d2f5e574605941b1bad67efe5a3d1ac7eef3eb61b7d803a7b046ed31eab0f01483045022100c582316b4df86c03f8f4d291396bc6eb654cca6d8a263cc243c3a4042dcb0b0d02206e7c7b11f426b523d1fb04e9e18b89a3e69ca0100d9215884d7044d2d8c663db014c695221026ee00efc1e030f6eb9ba09da6df66f0d7d1b883a4989b5118c2773327deb88e4210208422e75f9ad83894f72fa178565f3b5e96b66060e79acc4fb472d0011b60cbe2103cd72e255b24c898e6c2fe30328292103d7291b1779e661c148af876c23796af153aeffffffff03865a00000000000017a914ad1357dc25a1f780461e117cdee654e24640ead787ef951700000000001976a91402a344e4aa93126f954066047aee9e752a3058e188ace86e03000000000017a91464702c25da0a13d77c700ff5bc243d97e5ec09ba8700000000", "vin": [{"sequence": 4294967295, "scriptSig": {"hex": "00483045022100e50319808fe80d02e12444051421ff52f2dac3e1c6894306eb21994e7fb369a302203d4d2f5e574605941b1bad67efe5a3d1ac7eef3eb61b7d803a7b046ed31eab0f01483045022100c582316b4df86c03f8f4d291396bc6eb654cca6d8a263cc243c3a4042dcb0b0d02206e7c7b11f426b523d1fb04e9e18b89a3e69ca0100d9215884d7044d2d8c663db014c695221026ee00efc1e030f6eb9ba09da6df66f0d7d1b883a4989b5118c2773327deb88e4210208422e75f9ad83894f72fa178565f3b5e96b66060e79acc4fb472d0011b60cbe2103cd72e255b24c898e6c2fe30328292103d7291b1779e661c148af876c23796af153ae", "asm": "0 3045022100e50319808fe80d02e12444051421ff52f2dac3e1c6894306eb21994e7fb369a302203d4d2f5e574605941b1bad67efe5a3d1ac7eef3eb61b7d803a7b046ed31eab0f[ALL] 3045022100c582316b4df86c03f8f4d291396bc6eb654cca6d8a263cc243c3a4042dcb0b0d02206e7c7b11f426b523d1fb04e9e18b89a3e69ca0100d9215884d7044d2d8c663db[ALL] 5221026ee00efc1e030f6eb9ba09da6df66f0d7d1b883a4989b5118c2773327deb88e4210208422e75f9ad83894f72fa178565f3b5e96b66060e79acc4fb472d0011b60cbe2103cd72e255b24c898e6c2fe30328292103d7291b1779e661c148af876c23796af153ae"}, "vout": 0, "txid": "dcd1edf41be1c44867135ce02f56794312a90ce2c3c59bb7ea98718c016c907b"}], "txid": "eb57bf7a510c94b7477ef9c90c2a21526f60fc5973ee93d44fd0b93a2c38291a", "blocktime": 1537873891, "version": 1, "confirmations": 11478, "time": 1537873891, "locktime": 0, "vsize": 405, "size": 405}