{"hash": "eb61b7daa4f2cbb1923eb1032d5ff0e2191443c0f9f1599b553be21b7868f2e4", "blockhash": "0000000000000000001e0dab787dd257d1dbfcb92a98c2207d5e1078be1f4165", "vout": [{"scriptPubKey": {"reqSigs": 1, "hex": "76a9140c8e9cbf919a5c6fd1bc55e328768ec05682a30e88ac", "addresses": ["129PxBLJZ9QiKnVTzRux6TWc3mguGubeVa"], "asm": "OP_DUP OP_HASH160 0c8e9cbf919a5c6fd1bc55e328768ec05682a30e OP_EQUALVERIFY OP_CHECKSIG", "type": "pubkeyhash"}, "value": 0.0065205, "n": 0}, {"scriptPubKey": {"reqSigs": 1, "hex": "76a914e293c9e53c268bbab7dccd52b8378f7bae29dcb088ac", "addresses": ["1Mf2ktasvWaEMmTE5k1FwnLTog9u5zu3tG"], "asm": "OP_DUP OP_HASH160 e293c9e53c268bbab7dccd52b8378f7bae29dcb0 OP_EQUALVERIFY OP_CHECKSIG", "type": "pubkeyhash"}, "value": 0.6094376, "n": 1}], "hex": "0100000004110730aa04691e549101f5a4abe5916c1dacbe293809ce6b333b7036798c0108010000006a473044022008fa8af5066222c1feeafaff0554b542555af18eacd321e8899ea1187aa53e30022044f394fdce695216bc3500df4ad2bc18da77d9c0a5a8a2b77864a5cf9ac0e7540121021b1ce37f991ac24a6126c3b81426ed1300fbb345ee50a0894a36b6e974465be5fdffffffd372761480a6f8ce0af632cbc5932e8b125a86ffe7085c87135d38db1d686d8d060000006a473044022024a267ca52bf83394c7c732df6bce12a133b5fd9c9cfcd90f693d913953f9baa02206c6a7891b700785f081b1a9519d6cb7b39bf2eccdb88da0f2e593d1f3ff58265012103dccad3957ab68a0ddf4cd84c33e1582833240e28d92b0854bfa85168c4d0d748fdffffff618d86b9296e9ab1d91e55af2af80f344553d1c5f2597b612d439fcecf3e07e4010000006b4830450221008b657d5f2d5158a5c75bc33b2b88b2679bfc6e6b9d124e79e6ca93f1a131a71202207a5ca82ca978ebfb8c287cf600ea16eb048cb6c21b311d5da214393b30af402a01210321630b1a8f0ba489f777aac92669c92e521ba539cc23694e85d7fc13a43e29e5fdffffff8000da4eb5de63630768202c496f571be1a1b74e3c3dc32b4ddba67c4705d5f7010000006a47304402200f6cc3a3e79a93d52b74cc44ae063db188536211b5209d555172ec168381e989022037e968c6f363ea00dc9b50d47abd28f922203d44ed4926f5774a9dee836d1d6b012102c9f67f1630e2f84c1b777bcd4660fa3b96c817b2b267a83c6108b738d8a474e1fdffffff0212f30900000000001976a9140c8e9cbf919a5c6fd1bc55e328768ec05682a30e88ac90eda103000000001976a914e293c9e53c268bbab7dccd52b8378f7bae29dcb088ac12490800", "vin": [{"sequence": 4294967293, "scriptSig": {"hex": "473044022008fa8af5066222c1feeafaff0554b542555af18eacd321e8899ea1187aa53e30022044f394fdce695216bc3500df4ad2bc18da77d9c0a5a8a2b77864a5cf9ac0e7540121021b1ce37f991ac24a6126c3b81426ed1300fbb345ee50a0894a36b6e974465be5", "asm": "3044022008fa8af5066222c1feeafaff0554b542555af18eacd321e8899ea1187aa53e30022044f394fdce695216bc3500df4ad2bc18da77d9c0a5a8a2b77864a5cf9ac0e754[ALL] 021b1ce37f991ac24a6126c3b81426ed1300fbb345ee50a0894a36b6e974465be5"}, "vout": 1, "txid": "08018c7936703b336bce093829beac1d6c91e5aba4f50191541e6904aa300711"}, {"sequence": 4294967293, "scriptSig": {"hex": "473044022024a267ca52bf83394c7c732df6bce12a133b5fd9c9cfcd90f693d913953f9baa02206c6a7891b700785f081b1a9519d6cb7b39bf2eccdb88da0f2e593d1f3ff58265012103dccad3957ab68a0ddf4cd84c33e1582833240e28d92b0854bfa85168c4d0d748", "asm": "3044022024a267ca52bf83394c7c732df6bce12a133b5fd9c9cfcd90f693d913953f9baa02206c6a7891b700785f081b1a9519d6cb7b39bf2eccdb88da0f2e593d1f3ff58265[ALL] 03dccad3957ab68a0ddf4cd84c33e1582833240e28d92b0854bfa85168c4d0d748"}, "vout": 6, "txid": "8d6d681ddb385d13875c08e7ff865a128b2e93c5cb32f60acef8a680147672d3"}, {"sequence": 4294967293, "scriptSig": {"hex": "4830450221008b657d5f2d5158a5c75bc33b2b88b2679bfc6e6b9d124e79e6ca93f1a131a71202207a5ca82ca978ebfb8c287cf600ea16eb048cb6c21b311d5da214393b30af402a01210321630b1a8f0ba489f777aac92669c92e521ba539cc23694e85d7fc13a43e29e5", "asm": "30450221008b657d5f2d5158a5c75bc33b2b88b2679bfc6e6b9d124e79e6ca93f1a131a71202207a5ca82ca978ebfb8c287cf600ea16eb048cb6c21b311d5da214393b30af402a[ALL] 0321630b1a8f0ba489f777aac92669c92e521ba539cc23694e85d7fc13a43e29e5"}, "vout": 1, "txid": "e4073ecfce9f432d617b59f2c5d15345340ff82aaf551ed9b19a6e29b9868d61"}, {"sequence": 4294967293, "scriptSig": {"hex": "47304402200f6cc3a3e79a93d52b74cc44ae063db188536211b5209d555172ec168381e989022037e968c6f363ea00dc9b50d47abd28f922203d44ed4926f5774a9dee836d1d6b012102c9f67f1630e2f84c1b777bcd4660fa3b96c817b2b267a83c6108b738d8a474e1", "asm": "304402200f6cc3a3e79a93d52b74cc44ae063db188536211b5209d555172ec168381e989022037e968c6f363ea00dc9b50d47abd28f922203d44ed4926f5774a9dee836d1d6b[ALL] 02c9f67f1630e2f84c1b777bcd4660fa3b96c817b2b267a83c6108b738d8a474e1"}, "vout": 1, "txid": "f7d505477ca6db4d2bc33d3c4eb7a1e11b576f492c2068076363deb54eda0080"}], "txid": "eb61b7daa4f2cbb1923eb1032d5ff0e2191443c0f9f1599b553be21b7868f2e4", "blocktime": 1537872475, "version": 1, "confirmations": 11486, "time": 1537872475, "locktime": 542994, "vsize": 667, "size": 667}