{"hash": "f10f5fcda5e7ae0d8875a4142afc6d9f33e358d0a73b861792ca797ee345353e", "blockhash": "00000000000000000018f53835495a110e01622372bf6ae95dc86f2b0ab887b0", "vout": [{"scriptPubKey": {"reqSigs": 1, "hex": "a914b44337f216fcdcf0a5895a72e8c4169a68ef293e87", "addresses": ["3J8A5VuG2KUQmCweiwHBDfv67VqWTciCM2"], "asm": "OP_HASH160 b44337f216fcdcf0a5895a72e8c4169a68ef293e OP_EQUAL", "type": "scripthash"}, "value": 0.01186985, "n": 0}], "hex": "01000000000101f0125b4447d5760dbf1f1ccbe3ec465fb56e90ceab15ec969848d8cd32430c46010000001716001483237fec6036f7972245246adfaef5d65fec0ab9ffffffff01a91c12000000000017a914b44337f216fcdcf0a5895a72e8c4169a68ef293e870247304402203507bce5ca546be52e184e00bc10c932dd580d9d98aa101634e179e96d9a278302204e8170ebc58f4f22a800e448322f085b73c1b0d02dd3dc1632d53c295c205eed012102faf3f413b148e4dd76be4917635c2b8b4f56413ddbbde6d61b05ffe93c6dfcc700000000", "vin": [{"txinwitness": ["304402203507bce5ca546be52e184e00bc10c932dd580d9d98aa101634e179e96d9a278302204e8170ebc58f4f22a800e448322f085b73c1b0d02dd3dc1632d53c295c205eed01", "02faf3f413b148e4dd76be4917635c2b8b4f56413ddbbde6d61b05ffe93c6dfcc7"], "sequence": 4294967295, "scriptSig": {"hex": "16001483237fec6036f7972245246adfaef5d65fec0ab9", "asm": "001483237fec6036f7972245246adfaef5d65fec0ab9"}, "vout": 1, "txid": "460c4332cdd8489896ec15abce906eb55f46ece3cb1c1fbf0d76d547445b12f0"}], "txid": "eb671b0a778269593a492da337366922d858a52876edf921513db2f824862538", "blocktime": 1537870928, "version": 1, "confirmations": 11514, "time": 1537870928, "locktime": 0, "vsize": 134, "size": 215}