{"hash": "eb6ac7b08c6bc7e490c66344c3bfdbe257d059d94372ba5da08522ace51eff19", "blockhash": "0000000000000000001e0dab787dd257d1dbfcb92a98c2207d5e1078be1f4165", "vout": [{"scriptPubKey": {"reqSigs": 1, "hex": "76a9148878b4e7c9575687b91b9bd2b96d0956b550ef3a88ac", "addresses": ["1DSbVwDmLca6m1LCAtGofFcuLrvsnW7xF9"], "asm": "OP_DUP OP_HASH160 8878b4e7c9575687b91b9bd2b96d0956b550ef3a OP_EQUALVERIFY OP_CHECKSIG", "type": "pubkeyhash"}, "value": 0.0154638, "n": 0}, {"scriptPubKey": {"reqSigs": 1, "hex": "76a9147a6a97aff87a58c1a7042b560095cc8aefefd6b488ac", "addresses": ["1CAH8am2qrE339njzqZGnwbY6BtPuX1ruh"], "asm": "OP_DUP OP_HASH160 7a6a97aff87a58c1a7042b560095cc8aefefd6b4 OP_EQUALVERIFY OP_CHECKSIG", "type": "pubkeyhash"}, "value": 0.07952942, "n": 1}], "hex": "01000000013639ef4c7edfbe15916e76d1d6f461c474d9c7d531bb7087343ea81dacb6b9fe010000006b483045022100d3a66642fc53305eb1f0bc682f6286d5626b8859459ee55b14a6942404e9cf2b02201ef3d4b000c441949784e0838020b070897d1e66911e0738f6cf41eca03083bd012103dd84396bd1f6209617b6d92890ed931a931f0539823ab3ff0188bed511598aebffffffff028c981700000000001976a9148878b4e7c9575687b91b9bd2b96d0956b550ef3a88ac2e5a7900000000001976a9147a6a97aff87a58c1a7042b560095cc8aefefd6b488ac00000000", "vin": [{"sequence": 4294967295, "scriptSig": {"hex": "483045022100d3a66642fc53305eb1f0bc682f6286d5626b8859459ee55b14a6942404e9cf2b02201ef3d4b000c441949784e0838020b070897d1e66911e0738f6cf41eca03083bd012103dd84396bd1f6209617b6d92890ed931a931f0539823ab3ff0188bed511598aeb", "asm": "3045022100d3a66642fc53305eb1f0bc682f6286d5626b8859459ee55b14a6942404e9cf2b02201ef3d4b000c441949784e0838020b070897d1e66911e0738f6cf41eca03083bd[ALL] 03dd84396bd1f6209617b6d92890ed931a931f0539823ab3ff0188bed511598aeb"}, "vout": 1, "txid": "feb9b6ac1da83e348770bb31d5c7d974c461f4d6d1766e9115bedf7e4cef3936"}], "txid": "eb6ac7b08c6bc7e490c66344c3bfdbe257d059d94372ba5da08522ace51eff19", "blocktime": 1537872475, "version": 1, "confirmations": 11487, "time": 1537872475, "locktime": 0, "vsize": 226, "size": 226}