{"hash": "eb6b6a442c5dcbbf7263dc2c18632e32df46d1bb603339dbf667f13ea8d1576f", "blockhash": "0000000000000000000e13cef7c366c0283d82e591d1acd082e914b08063cdf1", "vout": [{"scriptPubKey": {"type": "nulldata", "hex": "6a146f6d6e69000000000000001f0000006a01fea900", "asm": "OP_RETURN 6f6d6e69000000000000001f0000006a01fea900"}, "value": 0.0, "n": 0}, {"scriptPubKey": {"reqSigs": 1, "hex": "76a91459f9b2559ef28bcdbe00329c5f9e180417ab15d788ac", "addresses": ["19CkGJHxpqb8utjNBB7UaLsUKpgRPFzHmz"], "asm": "OP_DUP OP_HASH160 59f9b2559ef28bcdbe00329c5f9e180417ab15d7 OP_EQUALVERIFY OP_CHECKSIG", "type": "pubkeyhash"}, "value": 0.01922706, "n": 1}, {"scriptPubKey": {"reqSigs": 1, "hex": "76a914bf141fac70e84e4f565bbeedcc3756da4505489288ac", "addresses": ["1JRLAruqi8DP5SEkcFTaswSi9aZu3vUUMx"], "asm": "OP_DUP OP_HASH160 bf141fac70e84e4f565bbeedcc3756da45054892 OP_EQUALVERIFY OP_CHECKSIG", "type": "pubkeyhash"}, "value": 5.46e-06, "n": 2}], "hex": "0200000001cf28135db2b54fad17a8003c8420092ba2f00e5592ad27471cc933e8fa6c7378010000006a473044022051439ebf54a9704b6a31f314bc12c87442618f5d0eee5b72015df9b899e8d4ff02202f111f12c63cf749e179a33f2c37ce10d95ae2e69aed9091c223e060c46a87180121028787ff0d0c7983ef6021a4e3c03f2142fe180b7f489e4ba649fc858d8c4c35e8ffffffff030000000000000000166a146f6d6e69000000000000001f0000006a01fea90092561d00000000001976a91459f9b2559ef28bcdbe00329c5f9e180417ab15d788ac22020000000000001976a914bf141fac70e84e4f565bbeedcc3756da4505489288ac00000000", "vin": [{"sequence": 4294967295, "scriptSig": {"hex": "473044022051439ebf54a9704b6a31f314bc12c87442618f5d0eee5b72015df9b899e8d4ff02202f111f12c63cf749e179a33f2c37ce10d95ae2e69aed9091c223e060c46a87180121028787ff0d0c7983ef6021a4e3c03f2142fe180b7f489e4ba649fc858d8c4c35e8", "asm": "3044022051439ebf54a9704b6a31f314bc12c87442618f5d0eee5b72015df9b899e8d4ff02202f111f12c63cf749e179a33f2c37ce10d95ae2e69aed9091c223e060c46a8718[ALL] 028787ff0d0c7983ef6021a4e3c03f2142fe180b7f489e4ba649fc858d8c4c35e8"}, "vout": 1, "txid": "78736cfae833c91c4727ad92550ef0a22b0920843c00a817ad4fb5b25d1328cf"}], "txid": "eb6b6a442c5dcbbf7263dc2c18632e32df46d1bb603339dbf667f13ea8d1576f", "blocktime": 1537871767, "version": 2, "confirmations": 11495, "time": 1537871767, "locktime": 0, "vsize": 256, "size": 256}