{"hash": "8c47349e0e36a742d13ba1350bed637dd93a3c0afb8c4cc154a5c4bc0e8cbf7d", "blockhash": "0000000000000000000baef3f32e3676a92c3b2e5da21b426e4f302fc371ce76", "vout": [{"scriptPubKey": {"reqSigs": 1, "hex": "a914c8948f84ab8bc2187580e4fb86ecf2a0a06e11cf87", "addresses": ["3Kyb35jwJ7YCiAF7JRfW5VZdpyywKap5YB"], "asm": "OP_HASH160 c8948f84ab8bc2187580e4fb86ecf2a0a06e11cf OP_EQUAL", "type": "scripthash"}, "value": 4.068e-05, "n": 0}, {"scriptPubKey": {"reqSigs": 1, "hex": "a91449d7e96499e76d96ef877a2fcb98823c8bccba2187", "addresses": ["38RTuMXR3rjgmqC2TwiJHrCLzc9nbGoNw7"], "asm": "OP_HASH160 49d7e96499e76d96ef877a2fcb98823c8bccba21 OP_EQUAL", "type": "scripthash"}, "value": 0.00134682, "n": 1}], "hex": "010000000001017bdfa70fe2554289588b211605807ecd79d647c90e294b034b553f7731dab7f400000000232200202a9a1aa43dd52fca361d638a9bb1c7c7a7b32bed598a04104268b8ecbdbfe96fffffffff02e40f00000000000017a914c8948f84ab8bc2187580e4fb86ecf2a0a06e11cf871a0e02000000000017a91449d7e96499e76d96ef877a2fcb98823c8bccba21870400483045022100cde5bc574d612a3ef1b9446ed3ca69c979e51559f2c1e662bd9cd84b1effc1bb022073dde8401367d175ea76913131118f5c3a91649ca0c76c7990e67c40179ad94701483045022100ccb016678ee6ed32f33165ec814ab2c7a9ea05e82d416bb876b382a431ee353c02201c4622bbde35b6147478eda5e9129a34a67cce2111b592f7da87f3699dfe82920147522103ea39afa13bfc0b16775c1ffdd58dbb69a77441d8211cfd208f16ac7437c451312103338f346cab6ba87fe940591a03ac234be06520c5ab386d4b6632e8eef0d0db7652ae00000000", "vin": [{"txinwitness": ["", "3045022100cde5bc574d612a3ef1b9446ed3ca69c979e51559f2c1e662bd9cd84b1effc1bb022073dde8401367d175ea76913131118f5c3a91649ca0c76c7990e67c40179ad94701", "3045022100ccb016678ee6ed32f33165ec814ab2c7a9ea05e82d416bb876b382a431ee353c02201c4622bbde35b6147478eda5e9129a34a67cce2111b592f7da87f3699dfe829201", "522103ea39afa13bfc0b16775c1ffdd58dbb69a77441d8211cfd208f16ac7437c451312103338f346cab6ba87fe940591a03ac234be06520c5ab386d4b6632e8eef0d0db7652ae"], "sequence": 4294967295, "scriptSig": {"hex": "2200202a9a1aa43dd52fca361d638a9bb1c7c7a7b32bed598a04104268b8ecbdbfe96f", "asm": "00202a9a1aa43dd52fca361d638a9bb1c7c7a7b32bed598a04104268b8ecbdbfe96f"}, "vout": 0, "txid": "f4b7da31773f554b034b290ec947d679cd7e800516218b58894255e20fa7df7b"}], "txid": "eb6c46eaefbf05870f411d1341a5d7bf2e29cd218ab3debb9ee84c964c2f07dd", "blocktime": 1537876114, "version": 1, "confirmations": 11462, "time": 1537876114, "locktime": 0, "vsize": 206, "size": 372}