{"hash": "eb703936c0bfe2e210be8134ba987d4b97c4c95e689a9f963c25cd3c69ce5f00", "blockhash": "0000000000000000000dcc0f55137456b1a82d3642486a52398922ac4d620174", "vout": [{"scriptPubKey": {"reqSigs": 1, "hex": "76a91441ad2c0cfdfff1844707bb61b5ff29d709d712dc88ac", "addresses": ["16zGNgBbrfeA6V6dDuxBUhEzkDyeMjTYbo"], "asm": "OP_DUP OP_HASH160 41ad2c0cfdfff1844707bb61b5ff29d709d712dc OP_EQUALVERIFY OP_CHECKSIG", "type": "pubkeyhash"}, "value": 5.46e-06, "n": 0}, {"scriptPubKey": {"type": "nulldata", "hex": "6a146f6d6e69000000000000001f000000070084243b", "asm": "OP_RETURN 6f6d6e69000000000000001f000000070084243b"}, "value": 0.0, "n": 1}, {"scriptPubKey": {"reqSigs": 1, "hex": "76a914af520ab47ccdd77a4c94826f54326ca93778148688ac", "addresses": ["1Gz1XwGbLLoHRPLSGmWktiUkpmS3ro6vin"], "asm": "OP_DUP OP_HASH160 af520ab47ccdd77a4c94826f54326ca937781486 OP_EQUALVERIFY OP_CHECKSIG", "type": "pubkeyhash"}, "value": 0.00171845, "n": 2}], "hex": "0100000001868cd2271957e3af5dd2d8545f773309ed35a0cad4746513c2ad6fbccdd716bf020000006b483045022100d2d8e1b8dec1c1af126706d7745999f0716dd8669cf78fd2005d273826ec34ec02200ead3d6db5d0531df03951a3901b20e1cd52064c7a2b352c37bf1bfa5db5824301210303d0a9f18c3beaa7f607e88b7ea4d4998775eb12bf70f6ead2bac850b244e660ffffffff0322020000000000001976a91441ad2c0cfdfff1844707bb61b5ff29d709d712dc88ac0000000000000000166a146f6d6e69000000000000001f000000070084243b459f0200000000001976a914af520ab47ccdd77a4c94826f54326ca93778148688ac00000000", "vin": [{"sequence": 4294967295, "scriptSig": {"hex": "483045022100d2d8e1b8dec1c1af126706d7745999f0716dd8669cf78fd2005d273826ec34ec02200ead3d6db5d0531df03951a3901b20e1cd52064c7a2b352c37bf1bfa5db5824301210303d0a9f18c3beaa7f607e88b7ea4d4998775eb12bf70f6ead2bac850b244e660", "asm": "3045022100d2d8e1b8dec1c1af126706d7745999f0716dd8669cf78fd2005d273826ec34ec02200ead3d6db5d0531df03951a3901b20e1cd52064c7a2b352c37bf1bfa5db58243[ALL] 0303d0a9f18c3beaa7f607e88b7ea4d4998775eb12bf70f6ead2bac850b244e660"}, "vout": 2, "txid": "bf16d7cdbc6fadc2136574d4caa035ed0933775f54d8d25dafe3571927d28c86"}], "txid": "eb703936c0bfe2e210be8134ba987d4b97c4c95e689a9f963c25cd3c69ce5f00", "blocktime": 1537870268, "version": 1, "confirmations": 11517, "time": 1537870268, "locktime": 0, "vsize": 257, "size": 257}