{"hash": "bb1bb228a62189d8e6dbb5f654ebb464947a7d2331a9e8081b36f262d70c3102", "blockhash": "0000000000000000000e13cef7c366c0283d82e591d1acd082e914b08063cdf1", "vout": [{"scriptPubKey": {"reqSigs": 1, "hex": "76a9142180102b7c7adf36c15ed67f57bc2fc2809a435b88ac", "addresses": ["1448iKGf94uCKtCejMTxQUadDxoeKr9VnF"], "asm": "OP_DUP OP_HASH160 2180102b7c7adf36c15ed67f57bc2fc2809a435b OP_EQUALVERIFY OP_CHECKSIG", "type": "pubkeyhash"}, "value": 0.0024626, "n": 0}, {"scriptPubKey": {"reqSigs": 1, "hex": "a914a495852ae96e0f1f380c3a132c89cc247218365c87", "addresses": ["3GhFrrAw64B4S1DJAM8h6VAsDHADicWq3o"], "asm": "OP_HASH160 a495852ae96e0f1f380c3a132c89cc247218365c OP_EQUAL", "type": "scripthash"}, "value": 0.01008394, "n": 1}], "hex": "020000000001021a5a27cd7d9dadbab624c255c5daa595004be75b811183defdff2cb4abf08d8c000000001716001482dfe4cf9398b7cbde0279fcc22be93702c2d204fefffffff81251724f47dd1c21992500cf0bc9ce9a6324d6bf776fa84d0442719c3c21e50000000017160014cbe4e9a602080b40c40bd089ae8200bd211db4a0feffffff02f4c10300000000001976a9142180102b7c7adf36c15ed67f57bc2fc2809a435b88ac0a630f000000000017a914a495852ae96e0f1f380c3a132c89cc247218365c870247304402200d6ce9370429c5a3957ceda6f0e3789d33f4d88634107f9803aa739b90cf1ca702204268ce88f19d18148f425b3ab03fbd6021d4fd36ccce440e77296525dc375bda012103ff5c26b48c790bdddff8ec9794bbe29aab1115b04f64be227ff1c0022591a3a302473044022031aea7b495cfab390c74e71ed39b69dad522a715624769ea2d4ce43ac14de343022040280ece339eb424035867deebd4dea834664d748c213865882bf8307a2f11e4012102011c9039e8c0613bdceff0ac161a00fa34ee0f52dd0f5b37458c29b94195955910490800", "vin": [{"txinwitness": ["304402200d6ce9370429c5a3957ceda6f0e3789d33f4d88634107f9803aa739b90cf1ca702204268ce88f19d18148f425b3ab03fbd6021d4fd36ccce440e77296525dc375bda01", "03ff5c26b48c790bdddff8ec9794bbe29aab1115b04f64be227ff1c0022591a3a3"], "sequence": 4294967294, "scriptSig": {"hex": "16001482dfe4cf9398b7cbde0279fcc22be93702c2d204", "asm": "001482dfe4cf9398b7cbde0279fcc22be93702c2d204"}, "vout": 0, "txid": "8c8df0abb42cfffdde8311815be74b0095a5dac555c224b6baad9d7dcd275a1a"}, {"txinwitness": ["3044022031aea7b495cfab390c74e71ed39b69dad522a715624769ea2d4ce43ac14de343022040280ece339eb424035867deebd4dea834664d748c213865882bf8307a2f11e401", "02011c9039e8c0613bdceff0ac161a00fa34ee0f52dd0f5b37458c29b941959559"], "sequence": 4294967294, "scriptSig": {"hex": "160014cbe4e9a602080b40c40bd089ae8200bd211db4a0", "asm": "0014cbe4e9a602080b40c40bd089ae8200bd211db4a0"}, "vout": 0, "txid": "e5213c9c7142044da86f77bfd624639acec90bcf002599211cdd474f725112f8"}], "txid": "eb71dcd35207ce43e8f65229f6873267c25c6e2b2d1cdf10cd2f27746047040d", "blocktime": 1537871767, "version": 2, "confirmations": 11495, "time": 1537871767, "locktime": 542992, "vsize": 258, "size": 420}