{"hash": "4242c37d822634379601ea395c2f5241e88af9af5388da3fd33b7b8e4b6f9ad0", "blockhash": "0000000000000000001cda96e906b7601b7a6fb1a3b62bca570a9e5d8f4b3de1", "vout": [{"scriptPubKey": {"reqSigs": 1, "hex": "a9147326c23f71cea8f869b823956ce5a2a8b1ab3ed587", "addresses": ["3CBt4cRUE4nrhf6svJnxntUKJ2V5D9S9AQ"], "asm": "OP_HASH160 7326c23f71cea8f869b823956ce5a2a8b1ab3ed5 OP_EQUAL", "type": "scripthash"}, "value": 0.0100807, "n": 0}, {"scriptPubKey": {"reqSigs": 1, "hex": "76a9142e1b944fe7ffbe969fc1df8d662fd7b5d6303c9b88ac", "addresses": ["15Co856cRnFRCKwSSzECoyT3ozVhuFoJZ6"], "asm": "OP_DUP OP_HASH160 2e1b944fe7ffbe969fc1df8d662fd7b5d6303c9b OP_EQUALVERIFY OP_CHECKSIG", "type": "pubkeyhash"}, "value": 0.0028676, "n": 1}], "hex": "02000000000102998fccadf9b4ceb163f9fde53a28c36ae6bd83956f7caec6b43b2a95b9bc3e0e04000000171600143448c99377361778dc34ee4f5aeb9b7ed26e8912feffffffc2f6a0153f4cec2a62321799a0f7b24cfb0cad429678e9d1a9ec6b17bb7bab4300000000171600140a855b28d013a809678eaac2c4dadbcb50db977afeffffff02c6610f000000000017a9147326c23f71cea8f869b823956ce5a2a8b1ab3ed58728600400000000001976a9142e1b944fe7ffbe969fc1df8d662fd7b5d6303c9b88ac0248304502210096bb86748e28f3fca1b6c0ded08303b8360e92b4dac2486d55bd300b6950d02602200cd0eecb97f9a975273968c7d074db3643b2f3d4f21e701b6c4676db3405d2750121022f865e7c7c602581fda623b247f2bbbc25ab515878210e05d2a2a47400a86d2302473044022075641ba70e62eb1ab4a466999c348d9f1c8be6cea8fe1a34ac717fda4c5da7620220430b8e77adcead93e8791977d9e893f52fe151ba8123dfffbd971208462042df012102a906ee24a6e5ebb900ab50efa75aecfc5e40c6da2647393c1b11da0beb2d96bd13490800", "vin": [{"txinwitness": ["304502210096bb86748e28f3fca1b6c0ded08303b8360e92b4dac2486d55bd300b6950d02602200cd0eecb97f9a975273968c7d074db3643b2f3d4f21e701b6c4676db3405d27501", "022f865e7c7c602581fda623b247f2bbbc25ab515878210e05d2a2a47400a86d23"], "sequence": 4294967294, "scriptSig": {"hex": "1600143448c99377361778dc34ee4f5aeb9b7ed26e8912", "asm": "00143448c99377361778dc34ee4f5aeb9b7ed26e8912"}, "vout": 4, "txid": "0e3ebcb9952a3bb4c6ae7c6f9583bde66ac3283ae5fdf963b1ceb4f9adcc8f99"}, {"txinwitness": ["3044022075641ba70e62eb1ab4a466999c348d9f1c8be6cea8fe1a34ac717fda4c5da7620220430b8e77adcead93e8791977d9e893f52fe151ba8123dfffbd971208462042df01", "02a906ee24a6e5ebb900ab50efa75aecfc5e40c6da2647393c1b11da0beb2d96bd"], "sequence": 4294967294, "scriptSig": {"hex": "1600140a855b28d013a809678eaac2c4dadbcb50db977a", "asm": "00140a855b28d013a809678eaac2c4dadbcb50db977a"}, "vout": 0, "txid": "43ab7bbb176beca9d1e9789642ad0cfb4cb2f7a0991732622aec4c3f15a0f6c2"}], "txid": "eb750d2d9635ce31a0c010340bd4b157b6c4b055735e54d4d1d9954eda30605d", "blocktime": 1537873282, "version": 2, "confirmations": 11484, "time": 1537873282, "locktime": 542995, "vsize": 259, "size": 421}