{"hash": "87b82f7ab7c2aaa1a041b9689fef36e2e33ad4b34e58d6a90780f60dcd33fd33", "blockhash": "0000000000000000000dcc0f55137456b1a82d3642486a52398922ac4d620174", "vout": [{"scriptPubKey": {"reqSigs": 1, "hex": "a91437a95ab285d4df9695b59d67c77b12cdb96d17a587", "addresses": ["36mKy35BriV2ThKJDyuHh5iw3hA3egVgd2"], "asm": "OP_HASH160 37a95ab285d4df9695b59d67c77b12cdb96d17a5 OP_EQUAL", "type": "scripthash"}, "value": 0.04030106, "n": 0}], "hex": "02000000000103c35bb8d4dea8ad9469e75f15b517f427a25122ce4f6ee39ba1bbd6ce6bee0fbf0100000017160014df1d58ae79b981696ca0702933b7044f9ee954cffeffffff4e72d7fa611f4dc034bd278fb1341917d7629e195f8232f7031ec596a7629cb5010000006a473044022009c6703056a5c1cc54c893c1897820825cb71df16696a71c1e4eab9b207941b102206433ee58dd213c6eda74c82ccb5dc0db9d829f5427886d063cec5cb08daf7d100121026dbf2c4e69636188fc215e2b8674a16d1d456c6f2ccf2c18e7843debde593a1afeffffffb7ad33cc3ba552348136d3154dd19d51a8c7bd3390da380e3cafd1fa797b7385cd0400006a47304402205ac6ad5a3d9e4358afc9a10bfe49a0aba0789d932c865c278af44e805d2bfcc302203650824e74a67ec28ecab5d442a5400b2d76f69bfcc627257800d3e0235054a101210386ac01a27851ecb8cca5992aaf1b056e6ffdfd4ba95f88346803f83c5b45f8befeffffff019a7e3d000000000017a91437a95ab285d4df9695b59d67c77b12cdb96d17a5870247304402207456b0728f2aab15cfb5342475577a43127c77617c6c91eb071390488a005a6c022044653e0a6bd6aff54638264dcb6a6207d487e17a8bf0d9ba4a42bdd1301b62820121038b7d74a77c9b1bfc1df807a174bdf66919f05cfa6153bc6eaf2087fcfacbaf2300000c490800", "vin": [{"txinwitness": ["304402207456b0728f2aab15cfb5342475577a43127c77617c6c91eb071390488a005a6c022044653e0a6bd6aff54638264dcb6a6207d487e17a8bf0d9ba4a42bdd1301b628201", "038b7d74a77c9b1bfc1df807a174bdf66919f05cfa6153bc6eaf2087fcfacbaf23"], "sequence": 4294967294, "scriptSig": {"hex": "160014df1d58ae79b981696ca0702933b7044f9ee954cf", "asm": "0014df1d58ae79b981696ca0702933b7044f9ee954cf"}, "vout": 1, "txid": "bf0fee6bced6bba19be36e4fce2251a227f417b5155fe76994ada8ded4b85bc3"}, {"sequence": 4294967294, "scriptSig": {"hex": "473044022009c6703056a5c1cc54c893c1897820825cb71df16696a71c1e4eab9b207941b102206433ee58dd213c6eda74c82ccb5dc0db9d829f5427886d063cec5cb08daf7d100121026dbf2c4e69636188fc215e2b8674a16d1d456c6f2ccf2c18e7843debde593a1a", "asm": "3044022009c6703056a5c1cc54c893c1897820825cb71df16696a71c1e4eab9b207941b102206433ee58dd213c6eda74c82ccb5dc0db9d829f5427886d063cec5cb08daf7d10[ALL] 026dbf2c4e69636188fc215e2b8674a16d1d456c6f2ccf2c18e7843debde593a1a"}, "vout": 1, "txid": "b59c62a796c51e03f732825f199e62d7171934b18f27bd34c04d1f61fad7724e"}, {"sequence": 4294967294, "scriptSig": {"hex": "47304402205ac6ad5a3d9e4358afc9a10bfe49a0aba0789d932c865c278af44e805d2bfcc302203650824e74a67ec28ecab5d442a5400b2d76f69bfcc627257800d3e0235054a101210386ac01a27851ecb8cca5992aaf1b056e6ffdfd4ba95f88346803f83c5b45f8be", "asm": "304402205ac6ad5a3d9e4358afc9a10bfe49a0aba0789d932c865c278af44e805d2bfcc302203650824e74a67ec28ecab5d442a5400b2d76f69bfcc627257800d3e0235054a1[ALL] 0386ac01a27851ecb8cca5992aaf1b056e6ffdfd4ba95f88346803f83c5b45f8be"}, "vout": 1229, "txid": "85737b79fad1af3c0e38da9033bdc7a8519dd14d15d336813452a53bcc33adb7"}], "txid": "eb7b62bfb017069f3ee08d1837505638a45000c9e50c8ab4be39ede7ed48429d", "blocktime": 1537870268, "version": 2, "confirmations": 11518, "time": 1537870268, "locktime": 542988, "vsize": 428, "size": 511}