{"hash": "eb7f9e56f2b1b3506f0b5c11fe185f9ff64e8fdd3ec10451332a0c14645c0816", "blockhash": "000000000000000000022b45ed06c6f4ccd3cf7fb5ba4856ebd2e58215665228", "vout": [{"scriptPubKey": {"reqSigs": 1, "hex": "76a914eda338dcc8f7c01b32e8620142d39d10dfebb8c088ac", "addresses": ["1NfWgLTTP5gmUkfJq6BJqKoenbnk8REFVu"], "asm": "OP_DUP OP_HASH160 eda338dcc8f7c01b32e8620142d39d10dfebb8c0 OP_EQUALVERIFY OP_CHECKSIG", "type": "pubkeyhash"}, "value": 0.00406483, "n": 0}], "hex": "0100000002d9ee0ba77492a1fce1d15f8d965a2eb2482ac881495eeda55b7e904166dd092b000000006a47304402200886b684fb79b6e381cba5f98b9a305985507a933937ff726274f1113d4eafbe02206aabd06811fdc11c09d50184f6a40527a58f7f568ebc6dc067241dad3f72d00c0121034bb542356b2715348b2c92af49552cf493511dba8d8dd7287880784a06ded193fffffffff0b01b14a66d80514b3fcfa1efc6df56f4e3caa404f378f6ff40af6caeea8886010000006a47304402200ccea97b33a1ecadf3daa0a39e195288320e0490c55bfa40a5cfd82ae2c48ec10220494134efec77045a9530127744531439b5b76ef27fb234d8a1408d7b368c4aeb012103bd107413812bcc15ccf6868033111e90bce0c10e1e784815d644c496515f94ffffffffff01d3330600000000001976a914eda338dcc8f7c01b32e8620142d39d10dfebb8c088ac00000000", "vin": [{"sequence": 4294967295, "scriptSig": {"hex": "47304402200886b684fb79b6e381cba5f98b9a305985507a933937ff726274f1113d4eafbe02206aabd06811fdc11c09d50184f6a40527a58f7f568ebc6dc067241dad3f72d00c0121034bb542356b2715348b2c92af49552cf493511dba8d8dd7287880784a06ded193", "asm": "304402200886b684fb79b6e381cba5f98b9a305985507a933937ff726274f1113d4eafbe02206aabd06811fdc11c09d50184f6a40527a58f7f568ebc6dc067241dad3f72d00c[ALL] 034bb542356b2715348b2c92af49552cf493511dba8d8dd7287880784a06ded193"}, "vout": 0, "txid": "2b09dd6641907e5ba5ed5e4981c82a48b22e5a968d5fd1e1fca19274a70beed9"}, {"sequence": 4294967295, "scriptSig": {"hex": "47304402200ccea97b33a1ecadf3daa0a39e195288320e0490c55bfa40a5cfd82ae2c48ec10220494134efec77045a9530127744531439b5b76ef27fb234d8a1408d7b368c4aeb012103bd107413812bcc15ccf6868033111e90bce0c10e1e784815d644c496515f94ff", "asm": "304402200ccea97b33a1ecadf3daa0a39e195288320e0490c55bfa40a5cfd82ae2c48ec10220494134efec77045a9530127744531439b5b76ef27fb234d8a1408d7b368c4aeb[ALL] 03bd107413812bcc15ccf6868033111e90bce0c10e1e784815d644c496515f94ff"}, "vout": 1, "txid": "8688eaae6caf40fff678f304a4cae3f456dfc6efa1cf3f4b51806da6141bb0f0"}], "txid": "eb7f9e56f2b1b3506f0b5c11fe185f9ff64e8fdd3ec10451332a0c14645c0816", "blocktime": 1537869901, "version": 1, "confirmations": 11524, "time": 1537869901, "locktime": 0, "vsize": 338, "size": 338}