{"hash": "e61257a02482b144c3524379fef89157a81afdc89580e976ec35c136240be43b", "blockhash": "0000000000000000000dcc0f55137456b1a82d3642486a52398922ac4d620174", "vout": [{"scriptPubKey": {"reqSigs": 1, "hex": "a9145ffa9d5bed561379ddc8cb0f2129d9f681f2522887", "addresses": ["3ASWLnG4MEkWmnhWaFyZvDneVRGUzgnSNx"], "asm": "OP_HASH160 5ffa9d5bed561379ddc8cb0f2129d9f681f25228 OP_EQUAL", "type": "scripthash"}, "value": 0.01400454, "n": 0}, {"scriptPubKey": {"reqSigs": 1, "hex": "a91425f90964c54cb099a1fd06d610a34e6833d7736287", "addresses": ["359oG1nRWhD6P2HguprBXEVzD7gujDbuWc"], "asm": "OP_HASH160 25f90964c54cb099a1fd06d610a34e6833d77362 OP_EQUAL", "type": "scripthash"}, "value": 0.00955903, "n": 1}], "hex": "01000000000101ab14f3052e17fffa9ce918cf2b97204351288e7195913f40ce16b41882f814e601000000171600144f3cbed35bf433fda783d2bb1b2ca0d1104bee65fdffffff02865e15000000000017a9145ffa9d5bed561379ddc8cb0f2129d9f681f2522887ff950e000000000017a91425f90964c54cb099a1fd06d610a34e6833d773628702483045022100e02925791796874cf3e8aa55dc9934c434564aac3dde7ba0689c15f9d30084a102204d8a5272bcb47dd6772e4e3d1821a48822227ed2f953e7c61b245326970c0249012102eee7b0832ec8aaf32c637ea27984300d233344f5a7cd5085aa69c894fba059e400000000", "vin": [{"txinwitness": ["3045022100e02925791796874cf3e8aa55dc9934c434564aac3dde7ba0689c15f9d30084a102204d8a5272bcb47dd6772e4e3d1821a48822227ed2f953e7c61b245326970c024901", "02eee7b0832ec8aaf32c637ea27984300d233344f5a7cd5085aa69c894fba059e4"], "sequence": 4294967293, "scriptSig": {"hex": "1600144f3cbed35bf433fda783d2bb1b2ca0d1104bee65", "asm": "00144f3cbed35bf433fda783d2bb1b2ca0d1104bee65"}, "vout": 1, "txid": "e614f88218b416ce403f9195718e28514320972bcf18e99cfaff172e05f314ab"}], "txid": "eb803e869ef6cd4a557cf6383bcb04b5b130aabdc8d52185b5ac3b2d49ddfd8c", "blocktime": 1537870268, "version": 1, "confirmations": 11516, "time": 1537870268, "locktime": 0, "vsize": 166, "size": 248}