{"hash": "eb8b045950140a7cdd124aea3e01308ae849e4405ee3a984385f6fa265a1632a", "blockhash": "00000000000000000004ffacab907a6b429b9a5745fa0b75af4234bf69dd7176", "vout": [{"scriptPubKey": {"reqSigs": 1, "hex": "76a914bbc54fbf4596f75ae6d43e0565ceb537b44b7f2a88ac", "addresses": ["1J7qjKMjSGYxaziEcscEPsSVPhNevuUhiZ"], "asm": "OP_DUP OP_HASH160 bbc54fbf4596f75ae6d43e0565ceb537b44b7f2a OP_EQUALVERIFY OP_CHECKSIG", "type": "pubkeyhash"}, "value": 0.07819, "n": 0}, {"scriptPubKey": {"reqSigs": 1, "hex": "76a914a787ba579f6fccffff3308138d33d16e48ef5dff88ac", "addresses": ["1GGpSaNsXWyX35iYQVEEbRCib4pZ6jgkpS"], "asm": "OP_DUP OP_HASH160 a787ba579f6fccffff3308138d33d16e48ef5dff OP_EQUALVERIFY OP_CHECKSIG", "type": "pubkeyhash"}, "value": 0.20932825, "n": 1}], "hex": "01000000014e9fab46675f37a63480502b610d9547583228ce1a3fb0ffbd2b6b9c6d4c4dac010000006a473044022052f8f6bf4d008bbb728981dd19d2e46d46b3569c8a8226b2eacb297ce30973ee02200674575f7a1b02ff27b26b3fc15e8bdadf2ee9a9886188754c2f3fe4d1e6a809012103d6b2e6ebd6e182a6b215dbeeef8b82f6152fbf561dc14866aac628867870c79dffffffff02f84e7700000000001976a914bbc54fbf4596f75ae6d43e0565ceb537b44b7f2a88acd9683f01000000001976a914a787ba579f6fccffff3308138d33d16e48ef5dff88ac00000000", "vin": [{"sequence": 4294967295, "scriptSig": {"hex": "473044022052f8f6bf4d008bbb728981dd19d2e46d46b3569c8a8226b2eacb297ce30973ee02200674575f7a1b02ff27b26b3fc15e8bdadf2ee9a9886188754c2f3fe4d1e6a809012103d6b2e6ebd6e182a6b215dbeeef8b82f6152fbf561dc14866aac628867870c79d", "asm": "3044022052f8f6bf4d008bbb728981dd19d2e46d46b3569c8a8226b2eacb297ce30973ee02200674575f7a1b02ff27b26b3fc15e8bdadf2ee9a9886188754c2f3fe4d1e6a809[ALL] 03d6b2e6ebd6e182a6b215dbeeef8b82f6152fbf561dc14866aac628867870c79d"}, "vout": 1, "txid": "ac4d4c6d9c6b2bbdffb03f1ace28325847950d612b508034a6375f6746ab9f4e"}], "txid": "eb8b045950140a7cdd124aea3e01308ae849e4405ee3a984385f6fa265a1632a", "blocktime": 1537875543, "version": 1, "confirmations": 11464, "time": 1537875543, "locktime": 0, "vsize": 225, "size": 225}