{"hash": "eb8c3f2fb556805b37b951eee95dd7e3f09790a20c621e35e97ec559fa2022f9", "blockhash": "0000000000000000000baef3f32e3676a92c3b2e5da21b426e4f302fc371ce76", "vout": [{"scriptPubKey": {"type": "nulldata", "hex": "6a146f6d6e69000000000000001f000000a02c453360", "asm": "OP_RETURN 6f6d6e69000000000000001f000000a02c453360"}, "value": 0.0, "n": 0}, {"scriptPubKey": {"reqSigs": 1, "hex": "76a914bd16ae64837df240d09ef868d967dd14365bc15388ac", "addresses": ["1JEotB97sfcVEzmZrMRekJpqfMnuD7JSvW"], "asm": "OP_DUP OP_HASH160 bd16ae64837df240d09ef868d967dd14365bc153 OP_EQUALVERIFY OP_CHECKSIG", "type": "pubkeyhash"}, "value": 6e-06, "n": 1}, {"scriptPubKey": {"reqSigs": 1, "hex": "76a9140e49b81f43f719255334d008a790ef674e2e72c288ac", "addresses": ["12JYmnfYU2ghzjwUAspzJsSnmJtK9bZPYR"], "asm": "OP_DUP OP_HASH160 0e49b81f43f719255334d008a790ef674e2e72c2 OP_EQUALVERIFY OP_CHECKSIG", "type": "pubkeyhash"}, "value": 0.08516302, "n": 2}, {"scriptPubKey": {"reqSigs": 1, "hex": "a91447bb11c6b60e5a2461570385adc02ed575ad909c87", "addresses": ["38EHzya3WesgTiV3wzF9GDekizFf1PN3vz"], "asm": "OP_HASH160 47bb11c6b60e5a2461570385adc02ed575ad909c OP_EQUAL", "type": "scripthash"}, "value": 6e-06, "n": 3}], "hex": "010000000295cb8c72c1df2c859896d81b02c7f2908e8c89e1145261dffd9bd7eeb6b02381010000006b4830450221008dc04a46cc5b43ccf79a6f27ada254a4d1eec901c7c7f978e604e7ee706f81f50220103b2d4f9251ebae5d5f1b924223d1db466ec4d834fdafe0ea7f5974e45e604f0121023835bc70698e571a392746efa8f4286a677dc066911c2938583679d488505d72ffffffff1f2fd35be7a80f202e351496f5bf3cfd150b2f3f8ecd791fa9b79b149acc8683020000006b483045022100f5483eac915a7a624d96e2d22c7fb22ae18dd3bb8d30190740174047d120fd2002201b88595a655c743bfbeeea5599f43691398e0be0b23f49a86bd827c2a1727f8501210361f26bf6731f956d2e62ee98a7a9fc6f0d36efdc9e6916973e7986a5ba9d19c4ffffffff040000000000000000166a146f6d6e69000000000000001f000000a02c45336058020000000000001976a914bd16ae64837df240d09ef868d967dd14365bc15388accef28100000000001976a9140e49b81f43f719255334d008a790ef674e2e72c288ac580200000000000017a91447bb11c6b60e5a2461570385adc02ed575ad909c8700000000", "vin": [{"sequence": 4294967295, "scriptSig": {"hex": "4830450221008dc04a46cc5b43ccf79a6f27ada254a4d1eec901c7c7f978e604e7ee706f81f50220103b2d4f9251ebae5d5f1b924223d1db466ec4d834fdafe0ea7f5974e45e604f0121023835bc70698e571a392746efa8f4286a677dc066911c2938583679d488505d72", "asm": "30450221008dc04a46cc5b43ccf79a6f27ada254a4d1eec901c7c7f978e604e7ee706f81f50220103b2d4f9251ebae5d5f1b924223d1db466ec4d834fdafe0ea7f5974e45e604f[ALL] 023835bc70698e571a392746efa8f4286a677dc066911c2938583679d488505d72"}, "vout": 1, "txid": "8123b0b6eed79bfddf615214e1898c8e90f2c7021bd89698852cdfc1728ccb95"}, {"sequence": 4294967295, "scriptSig": {"hex": "483045022100f5483eac915a7a624d96e2d22c7fb22ae18dd3bb8d30190740174047d120fd2002201b88595a655c743bfbeeea5599f43691398e0be0b23f49a86bd827c2a1727f8501210361f26bf6731f956d2e62ee98a7a9fc6f0d36efdc9e6916973e7986a5ba9d19c4", "asm": "3045022100f5483eac915a7a624d96e2d22c7fb22ae18dd3bb8d30190740174047d120fd2002201b88595a655c743bfbeeea5599f43691398e0be0b23f49a86bd827c2a1727f85[ALL] 0361f26bf6731f956d2e62ee98a7a9fc6f0d36efdc9e6916973e7986a5ba9d19c4"}, "vout": 2, "txid": "8386cc9a149bb7a91f79cd8e3f2f0b15fd3cbff59614352e200fa8e75bd32f1f"}], "txid": "eb8c3f2fb556805b37b951eee95dd7e3f09790a20c621e35e97ec559fa2022f9", "blocktime": 1537876114, "version": 1, "confirmations": 11460, "time": 1537876114, "locktime": 0, "vsize": 437, "size": 437}