{"hash": "eb92a8c7fc5eb5dacd3b7fdcc4094e885a50d99c56b2da7a664aab350c340454", "blockhash": "0000000000000000000e13cef7c366c0283d82e591d1acd082e914b08063cdf1", "vout": [{"scriptPubKey": {"reqSigs": 1, "hex": "76a914de503b30fb31efc042bbc0ed3b8fb7910541380f88ac", "addresses": ["1MGV89eAh31FKmVW2orYGAWYSuKJMVq8De"], "asm": "OP_DUP OP_HASH160 de503b30fb31efc042bbc0ed3b8fb7910541380f OP_EQUALVERIFY OP_CHECKSIG", "type": "pubkeyhash"}, "value": 0.00039838, "n": 0}, {"scriptPubKey": {"reqSigs": 1, "hex": "76a9148ae6d899a46f6a6485ce22cc69b28c13b08571ac88ac", "addresses": ["1DfSnwYbeghE12xRV9DF5hui3omb8PsDkZ"], "asm": "OP_DUP OP_HASH160 8ae6d899a46f6a6485ce22cc69b28c13b08571ac OP_EQUALVERIFY OP_CHECKSIG", "type": "pubkeyhash"}, "value": 0.01406383, "n": 1}], "hex": "010000000449c9aee4481f1454184aa6748dd5c0f32d2b03cf638aed2aaf53cef51f2bd91c000000006a47304402200aa4e8fb80ef6f0741f8a7083957a64d1ce8e24919952badf522baa8ee45fac102203347549469cbd9d69c7469895bc9f7569edc2d1e1abecd997fbd8c0e0b02ff49012102e064ccec37755d0d8f838342971e6eea222c8b20048c0bf19f8629f10e3e9391ffffffff472b4b91d26b08d8a2e05d0fdcd728e5721606ecc97c58254df9ce3f5463b368000000006a473044022042de6bd0ec2af1f9993379f162dbd659a49fd8dc1522efa44eaf57faa9656e0a0220533baf32f6b19e4196924697cd56b478018a7dea263d2ea3680cdaf10feb0c9b012103724bb62d4b01aba38006de4b465376ca926fdfa4926b40da496e415d07e84794ffffffffdd4afe0dea168b21e1a22a06f9827cf68f4d3e97aa35c6d16211f8d294262480000000006b483045022100d5f6107863dbb02df1ba509e11441558b8b8442dca156869535e5f0bf45a071502202dd51ad111c74e7b602471c8268261087bb3c175299a78786bea33a46bdf90f90121027b7be5592ef520f8f13bb29f54f3e40658804699235fe0edb3c36be737096c86ffffffff8575aac08898dc7317897bc55bd40a5cd2943e807a256ed57a74d3b664fc88d0000000006a473044022017a384e975b64ca07028699ed43918ef4b0b2d7b9adba4a480bad623bd3a725a02203973bea0bf7766bda481bb26e904ba2151bc1c8a2a91aefe3aae72cf60002d9c0121029f7882c26a6c71b25113a15ddb627c03ebab0e49f8b00ba4c78061a341bf51b8ffffffff029e9b0000000000001976a914de503b30fb31efc042bbc0ed3b8fb7910541380f88acaf751500000000001976a9148ae6d899a46f6a6485ce22cc69b28c13b08571ac88ac00000000", "vin": [{"sequence": 4294967295, "scriptSig": {"hex": "47304402200aa4e8fb80ef6f0741f8a7083957a64d1ce8e24919952badf522baa8ee45fac102203347549469cbd9d69c7469895bc9f7569edc2d1e1abecd997fbd8c0e0b02ff49012102e064ccec37755d0d8f838342971e6eea222c8b20048c0bf19f8629f10e3e9391", "asm": "304402200aa4e8fb80ef6f0741f8a7083957a64d1ce8e24919952badf522baa8ee45fac102203347549469cbd9d69c7469895bc9f7569edc2d1e1abecd997fbd8c0e0b02ff49[ALL] 02e064ccec37755d0d8f838342971e6eea222c8b20048c0bf19f8629f10e3e9391"}, "vout": 0, "txid": "1cd92b1ff5ce53af2aed8a63cf032b2df3c0d58d74a64a1854141f48e4aec949"}, {"sequence": 4294967295, "scriptSig": {"hex": "473044022042de6bd0ec2af1f9993379f162dbd659a49fd8dc1522efa44eaf57faa9656e0a0220533baf32f6b19e4196924697cd56b478018a7dea263d2ea3680cdaf10feb0c9b012103724bb62d4b01aba38006de4b465376ca926fdfa4926b40da496e415d07e84794", "asm": "3044022042de6bd0ec2af1f9993379f162dbd659a49fd8dc1522efa44eaf57faa9656e0a0220533baf32f6b19e4196924697cd56b478018a7dea263d2ea3680cdaf10feb0c9b[ALL] 03724bb62d4b01aba38006de4b465376ca926fdfa4926b40da496e415d07e84794"}, "vout": 0, "txid": "68b363543fcef94d25587cc9ec061672e528d7dc0f5de0a2d8086bd2914b2b47"}, {"sequence": 4294967295, "scriptSig": {"hex": "483045022100d5f6107863dbb02df1ba509e11441558b8b8442dca156869535e5f0bf45a071502202dd51ad111c74e7b602471c8268261087bb3c175299a78786bea33a46bdf90f90121027b7be5592ef520f8f13bb29f54f3e40658804699235fe0edb3c36be737096c86", "asm": "3045022100d5f6107863dbb02df1ba509e11441558b8b8442dca156869535e5f0bf45a071502202dd51ad111c74e7b602471c8268261087bb3c175299a78786bea33a46bdf90f9[ALL] 027b7be5592ef520f8f13bb29f54f3e40658804699235fe0edb3c36be737096c86"}, "vout": 0, "txid": "80242694d2f81162d1c635aa973e4d8ff67c82f9062aa2e1218b16ea0dfe4add"}, {"sequence": 4294967295, "scriptSig": {"hex": "473044022017a384e975b64ca07028699ed43918ef4b0b2d7b9adba4a480bad623bd3a725a02203973bea0bf7766bda481bb26e904ba2151bc1c8a2a91aefe3aae72cf60002d9c0121029f7882c26a6c71b25113a15ddb627c03ebab0e49f8b00ba4c78061a341bf51b8", "asm": "3044022017a384e975b64ca07028699ed43918ef4b0b2d7b9adba4a480bad623bd3a725a02203973bea0bf7766bda481bb26e904ba2151bc1c8a2a91aefe3aae72cf60002d9c[ALL] 029f7882c26a6c71b25113a15ddb627c03ebab0e49f8b00ba4c78061a341bf51b8"}, "vout": 0, "txid": "d088fc64b6d3747ad56e257a803e94d25c0ad45bc57b891773dc9888c0aa7585"}], "txid": "eb92a8c7fc5eb5dacd3b7fdcc4094e885a50d99c56b2da7a664aab350c340454", "blocktime": 1537871767, "version": 1, "confirmations": 11495, "time": 1537871767, "locktime": 0, "vsize": 667, "size": 667}