{"hash": "ae404957be589d927e9d35ab446187f66ed26046da3aa5d55819c5aa987b8e21", "blockhash": "0000000000000000001f0ddff1eddb255c1121bcd4da4f1bc9a0da00cae72433", "vout": [{"scriptPubKey": {"reqSigs": 1, "hex": "a914dd4052afec4be3f919474b2b36ed479428168b6a87", "addresses": ["3MrtKBJZT68myhCbs56KNjWCpvmXjrR1fy"], "asm": "OP_HASH160 dd4052afec4be3f919474b2b36ed479428168b6a OP_EQUAL", "type": "scripthash"}, "value": 0.00718843, "n": 0}, {"scriptPubKey": {"reqSigs": 1, "hex": "a9146a27298f35b9c49cd86cbe491bcd13667ab98eb587", "addresses": ["3BNJTvbqdWN4oj9noMwfsTMcySYL4ZD6JE"], "asm": "OP_HASH160 6a27298f35b9c49cd86cbe491bcd13667ab98eb5 OP_EQUAL", "type": "scripthash"}, "value": 0.19119998, "n": 1}], "hex": "02000000000101c5a795f2a1fbe68256260d5c7172ede8100928fdca69b974d29f37cd3ccc7df9010000001716001411e419b57352e755ef84a9ec4416259888787ffdfeffffff02fbf70a000000000017a914dd4052afec4be3f919474b2b36ed479428168b6a877ebf23010000000017a9146a27298f35b9c49cd86cbe491bcd13667ab98eb5870247304402205469a39a871e4f99316dd06edfcb5f486d4fe2776ccf3fff80e6171a40e3099902206d5417b80f086e32b8e787c8fcfa99fca69bb96ac2892d2adeba1761e8c61fd4012103fc16c07eec69907e4e1a28af79398e5b4e1bc7ee85fb30a962788700d4bb218d11490800", "vin": [{"txinwitness": ["304402205469a39a871e4f99316dd06edfcb5f486d4fe2776ccf3fff80e6171a40e3099902206d5417b80f086e32b8e787c8fcfa99fca69bb96ac2892d2adeba1761e8c61fd401", "03fc16c07eec69907e4e1a28af79398e5b4e1bc7ee85fb30a962788700d4bb218d"], "sequence": 4294967294, "scriptSig": {"hex": "16001411e419b57352e755ef84a9ec4416259888787ffd", "asm": "001411e419b57352e755ef84a9ec4416259888787ffd"}, "vout": 1, "txid": "f97dcc3ccd379fd274b969cafd280910e8ed72715c0d265682e6fba1f295a7c5"}], "txid": "eb9362125629317d450bea3c567db5280ebc418a1792c7f93ac5f7e4ce2c0eea", "blocktime": 1537872018, "version": 2, "confirmations": 11489, "time": 1537872018, "locktime": 542993, "vsize": 166, "size": 247}