{"hash": "eb94228b6aad7d1fbf77d4d62c67cf6b8b433afd33d18597f58f1958fd8f5e1f", "blockhash": "0000000000000000001f76057863aec43deb6fa401d9628bb513d65a8098bfab", "vout": [{"scriptPubKey": {"reqSigs": 1, "hex": "a914d70a63d7fd1e772132b89146139e6b919ffe6b0687", "addresses": ["3MJ3ehSrEeaAAy5aH7rBia9vzvRneBYiTK"], "asm": "OP_HASH160 d70a63d7fd1e772132b89146139e6b919ffe6b06 OP_EQUAL", "type": "scripthash"}, "value": 0.00509, "n": 0}], "hex": "010000000226c837bbd904f9671e727f1053124336e1ea244df00ad0fab47044d3baeb5934100000006b483045022100f9ac6bdae18d0744a5c75b6cc8780c6052202ebf41271d49754af4c624d177030220759ed64d9e4ff4c72177ceba17d6aa658c35f131989b7b5983c409093c5f1246012103f542fa381c6251edffc64524f74dd41a4fec959a5f44cb51a76404bd8fe2212dfdffffff1eaf5b56712c4b42ab7a6f71c53068c75217480c4efb2582911ab1c199f88387000000006b483045022100bf8422a8ae0b4fda5bcf424e9546593444e6f714888c608eaca2969b85dcc30e022052ba475654a6f0752c033dba27d30e9a9b3f76180be682218cc4d3c1a32acfb90121025f50dfea595c60d67f32d89e12ed44f1d47eccb1e79aa45627a93d7b36f4c579fdffffff0148c407000000000017a914d70a63d7fd1e772132b89146139e6b919ffe6b068700000000", "vin": [{"sequence": 4294967293, "scriptSig": {"hex": "483045022100f9ac6bdae18d0744a5c75b6cc8780c6052202ebf41271d49754af4c624d177030220759ed64d9e4ff4c72177ceba17d6aa658c35f131989b7b5983c409093c5f1246012103f542fa381c6251edffc64524f74dd41a4fec959a5f44cb51a76404bd8fe2212d", "asm": "3045022100f9ac6bdae18d0744a5c75b6cc8780c6052202ebf41271d49754af4c624d177030220759ed64d9e4ff4c72177ceba17d6aa658c35f131989b7b5983c409093c5f1246[ALL] 03f542fa381c6251edffc64524f74dd41a4fec959a5f44cb51a76404bd8fe2212d"}, "vout": 16, "txid": "3459ebbad34470b4fad00af04d24eae136431253107f721e67f904d9bb37c826"}, {"sequence": 4294967293, "scriptSig": {"hex": "483045022100bf8422a8ae0b4fda5bcf424e9546593444e6f714888c608eaca2969b85dcc30e022052ba475654a6f0752c033dba27d30e9a9b3f76180be682218cc4d3c1a32acfb90121025f50dfea595c60d67f32d89e12ed44f1d47eccb1e79aa45627a93d7b36f4c579", "asm": "3045022100bf8422a8ae0b4fda5bcf424e9546593444e6f714888c608eaca2969b85dcc30e022052ba475654a6f0752c033dba27d30e9a9b3f76180be682218cc4d3c1a32acfb9[ALL] 025f50dfea595c60d67f32d89e12ed44f1d47eccb1e79aa45627a93d7b36f4c579"}, "vout": 0, "txid": "8783f899c1b11a918225fb4e0c481752c76830c5716f7aab424b2c71565baf1e"}], "txid": "eb94228b6aad7d1fbf77d4d62c67cf6b8b433afd33d18597f58f1958fd8f5e1f", "blocktime": 1537873891, "version": 1, "confirmations": 11478, "time": 1537873891, "locktime": 0, "vsize": 338, "size": 338}