{"hash": "eb9595a94dc39f882e068d516f3efc677339be9180deb9227d0b962782890fe3", "blockhash": "0000000000000000001f76057863aec43deb6fa401d9628bb513d65a8098bfab", "vout": [{"scriptPubKey": {"type": "nulldata", "hex": "6a146f6d6e69000000000000001f000000173a55888c", "asm": "OP_RETURN 6f6d6e69000000000000001f000000173a55888c"}, "value": 0.0, "n": 0}, {"scriptPubKey": {"reqSigs": 1, "hex": "76a914a25dec4d0011064ef106a983c39c7a540699f22088ac", "addresses": ["1FoWyxwPXuj4C6abqwhjDWdz6D4PZgYRjA"], "asm": "OP_DUP OP_HASH160 a25dec4d0011064ef106a983c39c7a540699f220 OP_EQUALVERIFY OP_CHECKSIG", "type": "pubkeyhash"}, "value": 0.01985619, "n": 1}, {"scriptPubKey": {"reqSigs": 1, "hex": "a9143bd42bbb948a92cabc96c90b556d5ac3fbdaf4c687", "addresses": ["379MxkRfk3zFoKBbCHA4mmSYPFSPGSRYj1"], "asm": "OP_HASH160 3bd42bbb948a92cabc96c90b556d5ac3fbdaf4c6 OP_EQUAL", "type": "scripthash"}, "value": 5.4e-06, "n": 2}], "hex": "01000000011d4ee14f259c3c41d54009f84a77b438cef0d8147c20f91c70bc084c33a9609a010000006a47304402205e9274c49d771b0ea283ef464e893679b219cd6b129478e73d982aee1fb5d31a022052d10b1ec77857f086f9028a4018411576715adea4c3d188900ba160a7827240012103da5bac7b36d5aa38f531c6b9601e21bb598a4b6716ebed38b009a55dabde9440feffffff030000000000000000166a146f6d6e69000000000000001f000000173a55888c534c1e00000000001976a914a25dec4d0011064ef106a983c39c7a540699f22088ac1c0200000000000017a9143bd42bbb948a92cabc96c90b556d5ac3fbdaf4c68713490800", "vin": [{"sequence": 4294967294, "scriptSig": {"hex": "47304402205e9274c49d771b0ea283ef464e893679b219cd6b129478e73d982aee1fb5d31a022052d10b1ec77857f086f9028a4018411576715adea4c3d188900ba160a7827240012103da5bac7b36d5aa38f531c6b9601e21bb598a4b6716ebed38b009a55dabde9440", "asm": "304402205e9274c49d771b0ea283ef464e893679b219cd6b129478e73d982aee1fb5d31a022052d10b1ec77857f086f9028a4018411576715adea4c3d188900ba160a7827240[ALL] 03da5bac7b36d5aa38f531c6b9601e21bb598a4b6716ebed38b009a55dabde9440"}, "vout": 1, "txid": "9a60a9334c08bc701cf9207c14d8f0ce38b4774af80940d5413c9c254fe14e1d"}], "txid": "eb9595a94dc39f882e068d516f3efc677339be9180deb9227d0b962782890fe3", "blocktime": 1537873891, "version": 1, "confirmations": 11475, "time": 1537873891, "locktime": 542995, "vsize": 254, "size": 254}