{"hash": "54f202f532832a569579a292cbeec20100f563a9bbacf520a455b4d646206a90", "blockhash": "0000000000000000001cda96e906b7601b7a6fb1a3b62bca570a9e5d8f4b3de1", "vout": [{"scriptPubKey": {"reqSigs": 1, "hex": "a9140c5f1bfc817cdb0f283bcf8312cba944f7d8c15f87", "addresses": ["32pRyA5DEd6Q8nBDgCW3a8ZyFxeZnyFUUj"], "asm": "OP_HASH160 0c5f1bfc817cdb0f283bcf8312cba944f7d8c15f OP_EQUAL", "type": "scripthash"}, "value": 0.45, "n": 0}, {"scriptPubKey": {"reqSigs": 1, "hex": "a91477d9a4972fc19104cf00491d62a09dbfb6436cba87", "addresses": ["3Ccj4U5ETYaYx4rXXtCNEFSy4QTVveQJp1"], "asm": "OP_HASH160 77d9a4972fc19104cf00491d62a09dbfb6436cba OP_EQUAL", "type": "scripthash"}, "value": 1.58357862, "n": 1}], "hex": "0100000000010195f18f7168bf1f30142c493c29dc76ea7de54cc856810946e25a730ecce056dd0000000017160014d1b5c5ec201030a2c54b4b7cf7762a2efe7d1099ffffffff0240a5ae020000000017a9140c5f1bfc817cdb0f283bcf8312cba944f7d8c15f87665970090000000017a91477d9a4972fc19104cf00491d62a09dbfb6436cba8702483045022100fb7fa38badd58c4b33621156e16ee679889ef59349f5d6bded68c9347ddd846b02203a41ca4fc0c51a53d847495331852726ef3a8f4acddea383d2bc91984059c97e012102d2f760896bdd97d720c4a023f71835f03f808fd159801dbcfac1cb2794fc638d00000000", "vin": [{"txinwitness": ["3045022100fb7fa38badd58c4b33621156e16ee679889ef59349f5d6bded68c9347ddd846b02203a41ca4fc0c51a53d847495331852726ef3a8f4acddea383d2bc91984059c97e01", "02d2f760896bdd97d720c4a023f71835f03f808fd159801dbcfac1cb2794fc638d"], "sequence": 4294967295, "scriptSig": {"hex": "160014d1b5c5ec201030a2c54b4b7cf7762a2efe7d1099", "asm": "0014d1b5c5ec201030a2c54b4b7cf7762a2efe7d1099"}, "vout": 0, "txid": "dd56e0cc0e735ae246098156c84ce57dea76dc293c492c14301fbf68718ff195"}], "txid": "eb99925e31af2e77b0dd2c47fdeaec3b85c5bf8b49164f69c213146287023b46", "blocktime": 1537873282, "version": 1, "confirmations": 11484, "time": 1537873282, "locktime": 0, "vsize": 166, "size": 248}