{"hash": "eb9d86fe9c14b44ffc1a4462bc6b8be4bfca97262f3619459349e06443f25422", "blockhash": "0000000000000000000dcc0f55137456b1a82d3642486a52398922ac4d620174", "vout": [{"scriptPubKey": {"reqSigs": 1, "hex": "a914dbda0eb4866a614f8170a7befa239e50c182e64887", "addresses": ["3MjV8T8SmQgPHobpYmMnwiYuTZgDfge8ht"], "asm": "OP_HASH160 dbda0eb4866a614f8170a7befa239e50c182e648 OP_EQUAL", "type": "scripthash"}, "value": 0.01244491, "n": 0}, {"scriptPubKey": {"reqSigs": 1, "hex": "a91469f37694fd72eb2f5a56b81e5000d22286996df687", "addresses": ["3BMEXoizDUWR6ituaKZHfRGFkRfj3HU45D"], "asm": "OP_HASH160 69f37694fd72eb2f5a56b81e5000d22286996df6 OP_EQUAL", "type": "scripthash"}, "value": 0.03907819, "n": 1}, {"scriptPubKey": {"reqSigs": 1, "hex": "76a91406d5fed39c43b78b0df311eeafebbc6ac91d446288ac", "addresses": ["1d9QpAYGBsa9ADQADtuWV6o8kVXjmRyUP"], "asm": "OP_DUP OP_HASH160 06d5fed39c43b78b0df311eeafebbc6ac91d4462 OP_EQUALVERIFY OP_CHECKSIG", "type": "pubkeyhash"}, "value": 0.04663239, "n": 2}, {"scriptPubKey": {"reqSigs": 1, "hex": "76a914b1c36cdbc8488828fdf7c51a01ffdc5fad795f3f88ac", "addresses": ["1HCviLYNqHAyeZxGTj9Mtgvj1NJgQuSo91"], "asm": "OP_DUP OP_HASH160 b1c36cdbc8488828fdf7c51a01ffdc5fad795f3f OP_EQUALVERIFY OP_CHECKSIG", "type": "pubkeyhash"}, "value": 0.47213547, "n": 3}, {"scriptPubKey": {"reqSigs": 1, "hex": "a9142d574addff407e79ee67c0beee12cf7a615b222487", "addresses": ["35pkuMwbEiLu2besX8KuvHo1vcXH5cauGe"], "asm": "OP_HASH160 2d574addff407e79ee67c0beee12cf7a615b2224 OP_EQUAL", "type": "scripthash"}, "value": 0.02787326, "n": 4}, {"scriptPubKey": {"reqSigs": 1, "hex": "a91409f323345f58ccf95ecc1f8095c6ee338f94343587", "addresses": ["32bdGm6huz47wwNrrQwLcK8NnfL6hCFon3"], "asm": "OP_HASH160 09f323345f58ccf95ecc1f8095c6ee338f943435 OP_EQUAL", "type": "scripthash"}, "value": 0.00883753, "n": 5}], "hex": "0100000006c0ffe871618f097d6ab6a25e524768eda604752123a3d4d5c350203265c05169920000006a473044022031893a3b9c2a10690a28f1983375829771c5706ba5ecb36391d09790fb7e0b3402206d000ba6a1d7b602ed860878f53aac69f9da87e77fb8368549f9dd9a4285b728012103a5b4ce465fbb02dd415166d07b83dd105e820926f5f157f1592cd9f7dadf8027ffffffffed24bf93b3a1fa87bd0a915faf7bd6d898c4cd9634f8c96ab41bf327cc33f0f6dd0000006a47304402207836af2f8f38df2af89deaad27b8dfeac43f78e82d6efdca6160b6131aac982a022079dd69d92b01bd847b0bcd987abf2d8e6f846e60280ac3f09c8cde6fb4893e110121031756ae453d1871951e6d60015c6494a8b80a52800a852d0134dea130ed057c56ffffffffc2ebcb28758ebb12c789f79fa158c4c9bf8d4de56ccc9ed4960674187c74204e000000006b4830450221008c434988ca8e60a9dcf66bc8e50693895c170d10534d7809c8712be6e05d750c02200bec88368ff53c9e8e1f17f59e95ed20e18b97b759950f62561d41b8da1e2388012103faf000adebe8975de04babbd2aed4c9f474bc25b3c816dc50c3652946e80c60dffffffffc0ffe871618f097d6ab6a25e524768eda604752123a3d4d5c350203265c05169630000006b48304502210097234a7b3578bfef1b8a91e8511910cfe7fcfb72be39a3c677997d707ccd292602207d2d3e192b1e0eec1e22bea0e9e52084582c36d7a1dae49d18d44aac7338760c01210276a932b78135906ccae00705b8a3868a22bdfc62e4ef469c7803cd86e7e76fe4ffffffffa611fe24cbc0f415caeea8fb19c137eb4b3ac5a3816e670169d43d4c42ab98f8000000006a473044022067775115430f28b7a733f4ef5b3ef9c38955b1472b4149f35760760d3f88f7ef02205517cb3f0e497f33291afbfaef414a65065c16667b368f4765da3aff485521c4012102bc94fc0fec87accd4903e80d06afb112a46f743e997af2c7680035cba6d4b38cfffffffff825fd46d67fa6f581f47ddae06b4d693e52a1ad37fa94f7f655269ce84f5f4f030000006b483045022100e345f7c301cf113ac818d8caefcc8dc54be62bcdcb61064fba7081e78ca2509102204053d09ec5649acd416526b150190ca372785bdf62576f06dab310c761eac6b6012102bc94fc0fec87accd4903e80d06afb112a46f743e997af2c7680035cba6d4b38cffffffff064bfd12000000000017a914dbda0eb4866a614f8170a7befa239e50c182e64887eba03b000000000017a91469f37694fd72eb2f5a56b81e5000d22286996df687c7274700000000001976a91406d5fed39c43b78b0df311eeafebbc6ac91d446288aceb6bd002000000001976a914b1c36cdbc8488828fdf7c51a01ffdc5fad795f3f88acfe872a000000000017a9142d574addff407e79ee67c0beee12cf7a615b222487297c0d000000000017a91409f323345f58ccf95ecc1f8095c6ee338f9434358700000000", "vin": [{"sequence": 4294967295, "scriptSig": {"hex": "473044022031893a3b9c2a10690a28f1983375829771c5706ba5ecb36391d09790fb7e0b3402206d000ba6a1d7b602ed860878f53aac69f9da87e77fb8368549f9dd9a4285b728012103a5b4ce465fbb02dd415166d07b83dd105e820926f5f157f1592cd9f7dadf8027", "asm": "3044022031893a3b9c2a10690a28f1983375829771c5706ba5ecb36391d09790fb7e0b3402206d000ba6a1d7b602ed860878f53aac69f9da87e77fb8368549f9dd9a4285b728[ALL] 03a5b4ce465fbb02dd415166d07b83dd105e820926f5f157f1592cd9f7dadf8027"}, "vout": 146, "txid": "6951c065322050c3d5d4a323217504a6ed6847525ea2b66a7d098f6171e8ffc0"}, {"sequence": 4294967295, "scriptSig": {"hex": "47304402207836af2f8f38df2af89deaad27b8dfeac43f78e82d6efdca6160b6131aac982a022079dd69d92b01bd847b0bcd987abf2d8e6f846e60280ac3f09c8cde6fb4893e110121031756ae453d1871951e6d60015c6494a8b80a52800a852d0134dea130ed057c56", "asm": "304402207836af2f8f38df2af89deaad27b8dfeac43f78e82d6efdca6160b6131aac982a022079dd69d92b01bd847b0bcd987abf2d8e6f846e60280ac3f09c8cde6fb4893e11[ALL] 031756ae453d1871951e6d60015c6494a8b80a52800a852d0134dea130ed057c56"}, "vout": 221, "txid": "f6f033cc27f31bb46ac9f83496cdc498d8d67baf5f910abd87faa1b393bf24ed"}, {"sequence": 4294967295, "scriptSig": {"hex": "4830450221008c434988ca8e60a9dcf66bc8e50693895c170d10534d7809c8712be6e05d750c02200bec88368ff53c9e8e1f17f59e95ed20e18b97b759950f62561d41b8da1e2388012103faf000adebe8975de04babbd2aed4c9f474bc25b3c816dc50c3652946e80c60d", "asm": "30450221008c434988ca8e60a9dcf66bc8e50693895c170d10534d7809c8712be6e05d750c02200bec88368ff53c9e8e1f17f59e95ed20e18b97b759950f62561d41b8da1e2388[ALL] 03faf000adebe8975de04babbd2aed4c9f474bc25b3c816dc50c3652946e80c60d"}, "vout": 0, "txid": "4e20747c18740696d49ecc6ce54d8dbfc9c458a19ff789c712bb8e7528cbebc2"}, {"sequence": 4294967295, "scriptSig": {"hex": "48304502210097234a7b3578bfef1b8a91e8511910cfe7fcfb72be39a3c677997d707ccd292602207d2d3e192b1e0eec1e22bea0e9e52084582c36d7a1dae49d18d44aac7338760c01210276a932b78135906ccae00705b8a3868a22bdfc62e4ef469c7803cd86e7e76fe4", "asm": "304502210097234a7b3578bfef1b8a91e8511910cfe7fcfb72be39a3c677997d707ccd292602207d2d3e192b1e0eec1e22bea0e9e52084582c36d7a1dae49d18d44aac7338760c[ALL] 0276a932b78135906ccae00705b8a3868a22bdfc62e4ef469c7803cd86e7e76fe4"}, "vout": 99, "txid": "6951c065322050c3d5d4a323217504a6ed6847525ea2b66a7d098f6171e8ffc0"}, {"sequence": 4294967295, "scriptSig": {"hex": "473044022067775115430f28b7a733f4ef5b3ef9c38955b1472b4149f35760760d3f88f7ef02205517cb3f0e497f33291afbfaef414a65065c16667b368f4765da3aff485521c4012102bc94fc0fec87accd4903e80d06afb112a46f743e997af2c7680035cba6d4b38c", "asm": "3044022067775115430f28b7a733f4ef5b3ef9c38955b1472b4149f35760760d3f88f7ef02205517cb3f0e497f33291afbfaef414a65065c16667b368f4765da3aff485521c4[ALL] 02bc94fc0fec87accd4903e80d06afb112a46f743e997af2c7680035cba6d4b38c"}, "vout": 0, "txid": "f898ab424c3dd46901676e81a3c53a4beb37c119fba8eeca15f4c0cb24fe11a6"}, {"sequence": 4294967295, "scriptSig": {"hex": "483045022100e345f7c301cf113ac818d8caefcc8dc54be62bcdcb61064fba7081e78ca2509102204053d09ec5649acd416526b150190ca372785bdf62576f06dab310c761eac6b6012102bc94fc0fec87accd4903e80d06afb112a46f743e997af2c7680035cba6d4b38c", "asm": "3045022100e345f7c301cf113ac818d8caefcc8dc54be62bcdcb61064fba7081e78ca2509102204053d09ec5649acd416526b150190ca372785bdf62576f06dab310c761eac6b6[ALL] 02bc94fc0fec87accd4903e80d06afb112a46f743e997af2c7680035cba6d4b38c"}, "vout": 3, "txid": "4f5f4fe89c2655f6f794fa37ada1523e694d6be0da7df481f5a67fd646fd25f8"}], "txid": "eb9d86fe9c14b44ffc1a4462bc6b8be4bfca97262f3619459349e06443f25422", "blocktime": 1537870268, "version": 1, "confirmations": 11518, "time": 1537870268, "locktime": 0, "vsize": 1091, "size": 1091}