{"hash": "eb9e8524bcc2deb0057e79868b4a33fdb052e2c68df0bba5ec112feecdf67b6d", "blockhash": "0000000000000000001e0dab787dd257d1dbfcb92a98c2207d5e1078be1f4165", "vout": [{"scriptPubKey": {"reqSigs": 1, "hex": "76a9143ad9dffbb574ef42a807e7776b6b2e01db71c8f688ac", "addresses": ["16NBCLqWQg36LzZKNND6cqhTsXwR3Rb4pp"], "asm": "OP_DUP OP_HASH160 3ad9dffbb574ef42a807e7776b6b2e01db71c8f6 OP_EQUALVERIFY OP_CHECKSIG", "type": "pubkeyhash"}, "value": 0.00031464, "n": 0}, {"scriptPubKey": {"reqSigs": 1, "hex": "a91448af628dbc44ade8eef7be24d7f57aab8500006d87", "addresses": ["38KLgKMW6e8SWkgah1JURYU9MmZhkTDrZA"], "asm": "OP_HASH160 48af628dbc44ade8eef7be24d7f57aab8500006d OP_EQUAL", "type": "scripthash"}, "value": 0.004686, "n": 1}], "hex": "01000000027b298a2093647231313789f05a3685ee28a772f1ab677967992e31e7aedcfb03010000006a47304402203eb41f0bfb2fc1bfde89c29a3be03e1af8cfd98b936eea9459cf355c363815eb022034494fcc0e75920571b383f19c981b78a28332bb6f3681ad2568b6093c3dec3d01210340052911a220f69f2c39737c36c5d4f5625ec73d456ef410aaaef1f0aca37941ffffffff01edf994a07f1ce71afee0406c9427de0f6bd233cc30441553cd88f4fac4b687000000006b483045022100b2fd8ded37fc2f6f569ebbc75d6657e1ea2ed390ee924fc6a4f7317d845b4ae50220201fd0fb63d2564cbd2a520052da9630bcc576f43bda66122fcbd99a8b4bd62d0121036544f291969fcef3826a644ffc0073c97d1b2c84a6042e8e2bb99783ce125131ffffffff02e87a0000000000001976a9143ad9dffbb574ef42a807e7776b6b2e01db71c8f688ac782607000000000017a91448af628dbc44ade8eef7be24d7f57aab8500006d8700000000", "vin": [{"sequence": 4294967295, "scriptSig": {"hex": "47304402203eb41f0bfb2fc1bfde89c29a3be03e1af8cfd98b936eea9459cf355c363815eb022034494fcc0e75920571b383f19c981b78a28332bb6f3681ad2568b6093c3dec3d01210340052911a220f69f2c39737c36c5d4f5625ec73d456ef410aaaef1f0aca37941", "asm": "304402203eb41f0bfb2fc1bfde89c29a3be03e1af8cfd98b936eea9459cf355c363815eb022034494fcc0e75920571b383f19c981b78a28332bb6f3681ad2568b6093c3dec3d[ALL] 0340052911a220f69f2c39737c36c5d4f5625ec73d456ef410aaaef1f0aca37941"}, "vout": 1, "txid": "03fbdcaee7312e99677967abf172a728ee85365af089373131726493208a297b"}, {"sequence": 4294967295, "scriptSig": {"hex": "483045022100b2fd8ded37fc2f6f569ebbc75d6657e1ea2ed390ee924fc6a4f7317d845b4ae50220201fd0fb63d2564cbd2a520052da9630bcc576f43bda66122fcbd99a8b4bd62d0121036544f291969fcef3826a644ffc0073c97d1b2c84a6042e8e2bb99783ce125131", "asm": "3045022100b2fd8ded37fc2f6f569ebbc75d6657e1ea2ed390ee924fc6a4f7317d845b4ae50220201fd0fb63d2564cbd2a520052da9630bcc576f43bda66122fcbd99a8b4bd62d[ALL] 036544f291969fcef3826a644ffc0073c97d1b2c84a6042e8e2bb99783ce125131"}, "vout": 0, "txid": "87b6c4faf488cd53154430cc33d26b0fde27946c40e0fe1ae71c7fa094f9ed01"}], "txid": "eb9e8524bcc2deb0057e79868b4a33fdb052e2c68df0bba5ec112feecdf67b6d", "blocktime": 1537872475, "version": 1, "confirmations": 11486, "time": 1537872475, "locktime": 0, "vsize": 371, "size": 371}