{"hash": "eba1bace9dd4911f913aa92ef07034bbd773c7a5085290be5645162c51bcbcfc", "blockhash": "0000000000000000001cda96e906b7601b7a6fb1a3b62bca570a9e5d8f4b3de1", "vout": [{"scriptPubKey": {"reqSigs": 1, "hex": "76a914a427bb149539d7228cb7cffe594b081cec6f967088ac", "addresses": ["1FxyR1CMTMK5La9CgeYj5xASFsSvhSxLt8"], "asm": "OP_DUP OP_HASH160 a427bb149539d7228cb7cffe594b081cec6f9670 OP_EQUALVERIFY OP_CHECKSIG", "type": "pubkeyhash"}, "value": 0.009, "n": 0}, {"scriptPubKey": {"reqSigs": 1, "hex": "a914c81a3a242cf30e15fda8b74e6ce4338c0851ab2987", "addresses": ["3Kw4VCemiDvuWsxjNY1u8ko3hMdhCpSkEk"], "asm": "OP_HASH160 c81a3a242cf30e15fda8b74e6ce4338c0851ab29 OP_EQUAL", "type": "scripthash"}, "value": 0.00997058, "n": 1}], "hex": "02000000044180fb500076e19441009eee26a9d570a38800d7af7861f967640e4f6a17b878000000006a4730440220782f147ef02dab26fbe127dba028f3d4cd5b073b511d7c77577313415ca6724802206577c03d77421f4fa233254379a92636dc5ca092bb9871dc01490c91749fe53a012103d07eff234cbb4c8f53b0db559fbf12e99a6e95064baa1da17b7a5039dad40a1ffdffffff7f803f7e022f5381cb54a48f56fb174bb943e9639b68b1fe02838007b741ee9e420000006b483045022100e7703159e749f6b9246725ae361921ac2aedc6514ec33b4cd2968dc7d08ddbae022030e563857d34e60a99ee82c736f2dc9a411ca5c1df34d0e3be2f6c2bef1a4663012102719977901906c584b27a74ab6611dfd097db34cf61075c533e01c2acf8b18db9fdffffff7f803f7e022f5381cb54a48f56fb174bb943e9639b68b1fe02838007b741ee9e450100006b483045022100f0c966af8970948595d1301de0e6000f6400d59c03991680dcf0bfcded0d8a0d02204e80083e6fc4e53657f6b52da81f794d75be870d5da657c2ecdc229ee8cd44610121028ef1a29c98452b22e29c560c716529f9eb5f3939b54853a0982e1d79fc30ed8bfdffffffc843057c1c000748d2d878cfb258d5372009b633bafdbfd405d962dc496a15e9c50000006b483045022100e30fd44c0affb794ac2b785e3ed08374378754dbeec1ac9c381507eaac85dded02205db4d1b21222ebc12a5f2b1c8626ebbfc37b30eb9b6c6bbabffb4eb2d94d4705012102fab02dc4429c5c512bf54084ba9a89b9e77ed2e6216ff7ea042a5e3d0055e6d6fdffffff02a0bb0d00000000001976a914a427bb149539d7228cb7cffe594b081cec6f967088acc2360f000000000017a914c81a3a242cf30e15fda8b74e6ce4338c0851ab298713490800", "vin": [{"sequence": 4294967293, "scriptSig": {"hex": "4730440220782f147ef02dab26fbe127dba028f3d4cd5b073b511d7c77577313415ca6724802206577c03d77421f4fa233254379a92636dc5ca092bb9871dc01490c91749fe53a012103d07eff234cbb4c8f53b0db559fbf12e99a6e95064baa1da17b7a5039dad40a1f", "asm": "30440220782f147ef02dab26fbe127dba028f3d4cd5b073b511d7c77577313415ca6724802206577c03d77421f4fa233254379a92636dc5ca092bb9871dc01490c91749fe53a[ALL] 03d07eff234cbb4c8f53b0db559fbf12e99a6e95064baa1da17b7a5039dad40a1f"}, "vout": 0, "txid": "78b8176a4f0e6467f96178afd70088a370d5a926ee9e004194e1760050fb8041"}, {"sequence": 4294967293, "scriptSig": {"hex": "483045022100e7703159e749f6b9246725ae361921ac2aedc6514ec33b4cd2968dc7d08ddbae022030e563857d34e60a99ee82c736f2dc9a411ca5c1df34d0e3be2f6c2bef1a4663012102719977901906c584b27a74ab6611dfd097db34cf61075c533e01c2acf8b18db9", "asm": "3045022100e7703159e749f6b9246725ae361921ac2aedc6514ec33b4cd2968dc7d08ddbae022030e563857d34e60a99ee82c736f2dc9a411ca5c1df34d0e3be2f6c2bef1a4663[ALL] 02719977901906c584b27a74ab6611dfd097db34cf61075c533e01c2acf8b18db9"}, "vout": 66, "txid": "9eee41b707808302feb1689b63e943b94b17fb568fa454cb81532f027e3f807f"}, {"sequence": 4294967293, "scriptSig": {"hex": "483045022100f0c966af8970948595d1301de0e6000f6400d59c03991680dcf0bfcded0d8a0d02204e80083e6fc4e53657f6b52da81f794d75be870d5da657c2ecdc229ee8cd44610121028ef1a29c98452b22e29c560c716529f9eb5f3939b54853a0982e1d79fc30ed8b", "asm": "3045022100f0c966af8970948595d1301de0e6000f6400d59c03991680dcf0bfcded0d8a0d02204e80083e6fc4e53657f6b52da81f794d75be870d5da657c2ecdc229ee8cd4461[ALL] 028ef1a29c98452b22e29c560c716529f9eb5f3939b54853a0982e1d79fc30ed8b"}, "vout": 325, "txid": "9eee41b707808302feb1689b63e943b94b17fb568fa454cb81532f027e3f807f"}, {"sequence": 4294967293, "scriptSig": {"hex": "483045022100e30fd44c0affb794ac2b785e3ed08374378754dbeec1ac9c381507eaac85dded02205db4d1b21222ebc12a5f2b1c8626ebbfc37b30eb9b6c6bbabffb4eb2d94d4705012102fab02dc4429c5c512bf54084ba9a89b9e77ed2e6216ff7ea042a5e3d0055e6d6", "asm": "3045022100e30fd44c0affb794ac2b785e3ed08374378754dbeec1ac9c381507eaac85dded02205db4d1b21222ebc12a5f2b1c8626ebbfc37b30eb9b6c6bbabffb4eb2d94d4705[ALL] 02fab02dc4429c5c512bf54084ba9a89b9e77ed2e6216ff7ea042a5e3d0055e6d6"}, "vout": 197, "txid": "e9156a49dc62d905d4bffdba33b6092037d558b2cf78d8d24807001c7c0543c8"}], "txid": "eba1bace9dd4911f913aa92ef07034bbd773c7a5085290be5645162c51bcbcfc", "blocktime": 1537873282, "version": 2, "confirmations": 11481, "time": 1537873282, "locktime": 542995, "vsize": 667, "size": 667}