{"hash": "db9b6147e26823197465a8292c9c72074bf9cb6476f6903e5a0b2d90462d91f4", "blockhash": "0000000000000000001f76057863aec43deb6fa401d9628bb513d65a8098bfab", "vout": [{"scriptPubKey": {"reqSigs": 1, "hex": "a914766aab177fb28175d8377bb2558700ee6d32b1cc87", "addresses": ["3CV9SdCwfiPV69pdSNToWaCrbnzMSE8d3P"], "asm": "OP_HASH160 766aab177fb28175d8377bb2558700ee6d32b1cc OP_EQUAL", "type": "scripthash"}, "value": 0.01002816, "n": 0}, {"scriptPubKey": {"reqSigs": 1, "hex": "76a914e2e935237afbbfe00bd99aaa81246024105058c788ac", "addresses": ["1Mgo5uCE8xnPyzaSukNvFp2KYQNQKmaVky"], "asm": "OP_DUP OP_HASH160 e2e935237afbbfe00bd99aaa81246024105058c7 OP_EQUALVERIFY OP_CHECKSIG", "type": "pubkeyhash"}, "value": 0.0021236, "n": 1}], "hex": "0200000000010255fcffcc9078741d80e59ecd5b6284a7e0e191d17935fd006bc07e98277b93f5010000001716001451208c7ac2925b22dbda5f2dd50ec2a6f4251709feffffffa2f5a82fe9a8068cedf91c9b7bd09f14acf4087623b505e7fcf8065b9246daa70600000017160014b3374bbe95b4640588e0cd716008440ae7485c32feffffff02404d0f000000000017a914766aab177fb28175d8377bb2558700ee6d32b1cc87883d0300000000001976a914e2e935237afbbfe00bd99aaa81246024105058c788ac02483045022100f4e703402ca9e225167276951595002138f1a4706163966ee7c73c38c9a5ad34022065c262773dffa090e5decc283f34c903b51581e0cbfd879a1faed184f812275e0121035ee9ac5850d1cb32e9ef473abc24714c42e0c06bd61f6f7c3d203acc00d8effb02483045022100dc5af05cba388b70e772cbdbd05a8c1640d914bada2f74db7f309cb6b201773202200b7fd3a97452b51262e5b2dddbc2adfae2f490be7af47e6d2fb72534e04be92e012102c106ad620e9d86c5f8f4fff0d610b22e2c798459d82516e5075344bc911db72414490800", "vin": [{"txinwitness": ["3045022100f4e703402ca9e225167276951595002138f1a4706163966ee7c73c38c9a5ad34022065c262773dffa090e5decc283f34c903b51581e0cbfd879a1faed184f812275e01", "035ee9ac5850d1cb32e9ef473abc24714c42e0c06bd61f6f7c3d203acc00d8effb"], "sequence": 4294967294, "scriptSig": {"hex": "16001451208c7ac2925b22dbda5f2dd50ec2a6f4251709", "asm": "001451208c7ac2925b22dbda5f2dd50ec2a6f4251709"}, "vout": 1, "txid": "f5937b27987ec06b00fd3579d191e1e0a784625bcd9ee5801d747890ccfffc55"}, {"txinwitness": ["3045022100dc5af05cba388b70e772cbdbd05a8c1640d914bada2f74db7f309cb6b201773202200b7fd3a97452b51262e5b2dddbc2adfae2f490be7af47e6d2fb72534e04be92e01", "02c106ad620e9d86c5f8f4fff0d610b22e2c798459d82516e5075344bc911db724"], "sequence": 4294967294, "scriptSig": {"hex": "160014b3374bbe95b4640588e0cd716008440ae7485c32", "asm": "0014b3374bbe95b4640588e0cd716008440ae7485c32"}, "vout": 6, "txid": "a7da46925b06f8fce705b5237608f4ac149fd07b9b1cf9ed8c06a8e92fa8f5a2"}], "txid": "eba1b8be2d8db0debf34c9c85f8317a872866020eac8a5bf941307f5ea49dd83", "blocktime": 1537873891, "version": 2, "confirmations": 11478, "time": 1537873891, "locktime": 542996, "vsize": 259, "size": 422}