{"hash": "d145e7f798d2bdb5f1e8d1f0ce4411154363bb4995da80fbfc9d69d5afb0595b", "blockhash": "0000000000000000001cda96e906b7601b7a6fb1a3b62bca570a9e5d8f4b3de1", "vout": [{"scriptPubKey": {"reqSigs": 1, "hex": "a914e7f3b207fa3ddc7bc4a6fbf236e51b07b1153b0587", "addresses": ["3NqTx7TfuGSzsVbgUZmQ1tFHk5eGxJPqaY"], "asm": "OP_HASH160 e7f3b207fa3ddc7bc4a6fbf236e51b07b1153b05 OP_EQUAL", "type": "scripthash"}, "value": 0.5995, "n": 0}, {"scriptPubKey": {"reqSigs": 1, "hex": "a914a99ec7afefde0a5ca153e12f00f689a25165258487", "addresses": ["3H9tLC95C21naF6pY7BgWhqxKyfMUwrSj7"], "asm": "OP_HASH160 a99ec7afefde0a5ca153e12f00f689a251652584 OP_EQUAL", "type": "scripthash"}, "value": 0.01054929, "n": 1}], "hex": "0200000000010400c783696494eee9575b085007ead0b9c4057a5d02a75632138f5c4d8828fcbd06000000171600140276cf05d01f451bb73e08bdf70de3a3e64fdbb1feffffff138e8b9d1e4c6621c822dae63bda6103cce3bce62c7cf2d1f5e97ff3dc8078422500000017160014387a0a3acfff3104f2177fcc45ab38dc2e18f0b1feffffff201aaf1660ed5897f9366223c52ce4b88e766767a6c7c55c784c58c0d4ea3e290100000017160014f60990eb8842f275edfe63bd8796b131b793e998feffffffc1c1e80daf16465e1361dc2269535f0f22eca98310bd485541c602890224e72c00000000171600144c35719150d7938b403564d73048d16f36ef92d1feffffff02b0c392030000000017a914e7f3b207fa3ddc7bc4a6fbf236e51b07b1153b0587d11810000000000017a914a99ec7afefde0a5ca153e12f00f689a251652584870247304402206da63b91ed864ac01eb5b355265fd0d27bec52243a3f253e3232f265e052e89602201a4b918315922f0181bfa2ccf9c7f25966400d61f1323f823f2dc6fc29ea918c012102f09362478de32fbff4c7ad28b6c2e44ba15da66c005dd2dfab7b79875559ddbb02473044022077d251f3fc02661de6157736d893b96c54c928f66cfa621fec229137fc9e8d5502200a4a605f944f4d44ce7a7525568e734fc91c39a3b7d5b289bbd9db08ddc8cfa1012103791f1ff56d9be30e8858ff0f98151b953fd790b395b82ce1cf850874895c8af0024730440220381560f9ffa8cee40dcd87542d4320c1b321a6df758f13344853066676ff1062022043ca9676ba8420dd15bdeae8734d01a01b32023a389be110673395c4ca9e4b01012102894f14cc0b4711ea69fad6a2cb42feef7e2444ef726ae132b2679e0b26301835024730440220669c3bf3f5948dba350d3d9049c41face4dd578eed326feaad194ff90fe90116022002077118f40bf12d7dcc83211f5753e713009302ebfae918b7bc8714b30666c7012103dcc54e05f86299d32dba0ecd060ac7b69a5b15c8121ea6af8d8545f6f4f342ea13490800", "vin": [{"txinwitness": ["304402206da63b91ed864ac01eb5b355265fd0d27bec52243a3f253e3232f265e052e89602201a4b918315922f0181bfa2ccf9c7f25966400d61f1323f823f2dc6fc29ea918c01", "02f09362478de32fbff4c7ad28b6c2e44ba15da66c005dd2dfab7b79875559ddbb"], "sequence": 4294967294, "scriptSig": {"hex": "1600140276cf05d01f451bb73e08bdf70de3a3e64fdbb1", "asm": "00140276cf05d01f451bb73e08bdf70de3a3e64fdbb1"}, "vout": 6, "txid": "bdfc28884d5c8f133256a7025d7a05c4b9d0ea0750085b57e9ee94646983c700"}, {"txinwitness": ["3044022077d251f3fc02661de6157736d893b96c54c928f66cfa621fec229137fc9e8d5502200a4a605f944f4d44ce7a7525568e734fc91c39a3b7d5b289bbd9db08ddc8cfa101", "03791f1ff56d9be30e8858ff0f98151b953fd790b395b82ce1cf850874895c8af0"], "sequence": 4294967294, "scriptSig": {"hex": "160014387a0a3acfff3104f2177fcc45ab38dc2e18f0b1", "asm": "0014387a0a3acfff3104f2177fcc45ab38dc2e18f0b1"}, "vout": 37, "txid": "427880dcf37fe9f5d1f27c2ce6bce3cc0361da3be6da22c821664c1e9d8b8e13"}, {"txinwitness": ["30440220381560f9ffa8cee40dcd87542d4320c1b321a6df758f13344853066676ff1062022043ca9676ba8420dd15bdeae8734d01a01b32023a389be110673395c4ca9e4b0101", "02894f14cc0b4711ea69fad6a2cb42feef7e2444ef726ae132b2679e0b26301835"], "sequence": 4294967294, "scriptSig": {"hex": "160014f60990eb8842f275edfe63bd8796b131b793e998", "asm": "0014f60990eb8842f275edfe63bd8796b131b793e998"}, "vout": 1, "txid": "293eead4c0584c785cc5c7a66767768eb8e42cc5236236f99758ed6016af1a20"}, {"txinwitness": ["30440220669c3bf3f5948dba350d3d9049c41face4dd578eed326feaad194ff90fe90116022002077118f40bf12d7dcc83211f5753e713009302ebfae918b7bc8714b30666c701", "03dcc54e05f86299d32dba0ecd060ac7b69a5b15c8121ea6af8d8545f6f4f342ea"], "sequence": 4294967294, "scriptSig": {"hex": "1600144c35719150d7938b403564d73048d16f36ef92d1", "asm": "00144c35719150d7938b403564d73048d16f36ef92d1"}, "vout": 0, "txid": "2ce724028902c6415548bd1083a9ec220f5f536922dc61135e4616af0de8c1c1"}], "txid": "eba4a2d84d14b87e426f3f75fb9fb696b28404706cd5229393da9eeb2b94153e", "blocktime": 1537873282, "version": 2, "confirmations": 11485, "time": 1537873282, "locktime": 542995, "vsize": 438, "size": 760}