{"hash": "294ef1e74432e214547ab22870df9868ef84dff0714718653ad2c9e966b77275", "blockhash": "00000000000000000017f5eb5941039fbcee6240d03bc1f2f8e35350df66a1d8", "vout": [{"scriptPubKey": {"reqSigs": 1, "hex": "a9146162513a096e28389c9e3a115aac33e502644b1c87", "addresses": ["3AZwFMdWxmaQHoDNg5xogaPmVd5bmM2cU1"], "asm": "OP_HASH160 6162513a096e28389c9e3a115aac33e502644b1c OP_EQUAL", "type": "scripthash"}, "value": 3.597e-05, "n": 0}, {"scriptPubKey": {"reqSigs": 1, "hex": "a914b8182b166e9cb20253940107ea48181c4f411a4487", "addresses": ["3JURD5qe5SXebRBRV1veSudJYMyhzdMLLS"], "asm": "OP_HASH160 b8182b166e9cb20253940107ea48181c4f411a44 OP_EQUAL", "type": "scripthash"}, "value": 0.01027224, "n": 1}], "hex": "02000000000101bc5b95d3e524e085561c63d64afc57a15738f2fb9386376bd6039a7e03a34f19010000001716001487a6c6d95d23f280776947c06b4a21255461e030feffffff020d0e00000000000017a9146162513a096e28389c9e3a115aac33e502644b1c8798ac0f000000000017a914b8182b166e9cb20253940107ea48181c4f411a44870247304402205d98c312b51ac42902fb636e127d7496b89eac07ad7ca87935a3619e1fb0b4650220666476ccd4a65e7be6e12e463f2ad090f4d33dfa0ed81f6d4d56d9d1bb634a03012103c26ec54d7de30fa685da0c3863238b8e5a49d5963edf86fabf1d3e8e4f51776f15490800", "vin": [{"txinwitness": ["304402205d98c312b51ac42902fb636e127d7496b89eac07ad7ca87935a3619e1fb0b4650220666476ccd4a65e7be6e12e463f2ad090f4d33dfa0ed81f6d4d56d9d1bb634a0301", "03c26ec54d7de30fa685da0c3863238b8e5a49d5963edf86fabf1d3e8e4f51776f"], "sequence": 4294967294, "scriptSig": {"hex": "16001487a6c6d95d23f280776947c06b4a21255461e030", "asm": "001487a6c6d95d23f280776947c06b4a21255461e030"}, "vout": 1, "txid": "194fa3037e9a03d66b378693fbf23857a157fc4ad6631c5685e024e5d3955bbc"}], "txid": "ebadce47416b93aeccdbe9f039bd28fbc382e79e7802dfe3ea08b85200e56595", "blocktime": 1537874412, "version": 2, "confirmations": 11468, "time": 1537874412, "locktime": 542997, "vsize": 166, "size": 247}