{"hash": "ebae7d5c17e0f21117cf769d7a42a344f76139772963406c869d2b70a8804dfd", "blockhash": "0000000000000000001cda96e906b7601b7a6fb1a3b62bca570a9e5d8f4b3de1", "vout": [{"scriptPubKey": {"reqSigs": 1, "hex": "76a9143418ca67fc3965b6ff5d9939a54de881ed2fe4da88ac", "addresses": ["15kTqTfNzZXhjpQYjawX2pFfuHGkR71i54"], "asm": "OP_DUP OP_HASH160 3418ca67fc3965b6ff5d9939a54de881ed2fe4da OP_EQUALVERIFY OP_CHECKSIG", "type": "pubkeyhash"}, "value": 0.00111324, "n": 0}, {"scriptPubKey": {"type": "nulldata", "hex": "6a4c50000077d000019c73d99efb9d24c1c7b933b95b23cc0f42c2fc38c5e5bf9ae76da98a211ab8cb1b1ba6933e896348f4bc16d7326a5baa144106137d3d3a4ebb52bc9a9526289ac0f6612cd74e33776ee4", "asm": "OP_RETURN 000077d000019c73d99efb9d24c1c7b933b95b23cc0f42c2fc38c5e5bf9ae76da98a211ab8cb1b1ba6933e896348f4bc16d7326a5baa144106137d3d3a4ebb52bc9a9526289ac0f6612cd74e33776ee4"}, "value": 0.0, "n": 1}], "hex": "0100000001a08a43e9020178f24de46ceee0d489ebfccb0033579b7504c0bb14e4e5cb7d5f000000006a473044022042ced6bf94d71664b960a0ea0cdf1e316a13ae7e838662c6f310d297a893051a02207cdccbba1cda03f7805d1474e39f4579618e85d4e4643daa5a2a3e515f80336301210384fa440f33fba88ca6f297094ed3d1609c28882eb58d665dc01c72102cd4e713ffffffff02dcb20100000000001976a9143418ca67fc3965b6ff5d9939a54de881ed2fe4da88ac0000000000000000536a4c50000077d000019c73d99efb9d24c1c7b933b95b23cc0f42c2fc38c5e5bf9ae76da98a211ab8cb1b1ba6933e896348f4bc16d7326a5baa144106137d3d3a4ebb52bc9a9526289ac0f6612cd74e33776ee400000000", "vin": [{"sequence": 4294967295, "scriptSig": {"hex": "473044022042ced6bf94d71664b960a0ea0cdf1e316a13ae7e838662c6f310d297a893051a02207cdccbba1cda03f7805d1474e39f4579618e85d4e4643daa5a2a3e515f80336301210384fa440f33fba88ca6f297094ed3d1609c28882eb58d665dc01c72102cd4e713", "asm": "3044022042ced6bf94d71664b960a0ea0cdf1e316a13ae7e838662c6f310d297a893051a02207cdccbba1cda03f7805d1474e39f4579618e85d4e4643daa5a2a3e515f803363[ALL] 0384fa440f33fba88ca6f297094ed3d1609c28882eb58d665dc01c72102cd4e713"}, "vout": 0, "txid": "5f7dcbe5e414bbc004759b573300cbfceb89d4e0ee6ce44df2780102e9438aa0"}], "txid": "ebae7d5c17e0f21117cf769d7a42a344f76139772963406c869d2b70a8804dfd", "blocktime": 1537873282, "version": 1, "confirmations": 11484, "time": 1537873282, "locktime": 0, "vsize": 283, "size": 283}