{"hash": "fa332e71869193c5e56bbe031272c6d7b7165eca14041881bf3d9049fc3ed1b0", "blockhash": "0000000000000000001cda96e906b7601b7a6fb1a3b62bca570a9e5d8f4b3de1", "vout": [{"scriptPubKey": {"reqSigs": 1, "hex": "a9142fa6b53df66e3644532cf87e977b6ffcb3bfe85487", "addresses": ["362yPdfuTa4Ek4BW9yHmhRJEKm6DKiRhBT"], "asm": "OP_HASH160 2fa6b53df66e3644532cf87e977b6ffcb3bfe854 OP_EQUAL", "type": "scripthash"}, "value": 0.00215267, "n": 0}, {"scriptPubKey": {"reqSigs": 1, "hex": "76a9148e40875628470c0e9636a5208f3e27fece68bfbc88ac", "addresses": ["1DyAFmeJ7r8ZkTUhUyT5rifWhV9JpByvmY"], "asm": "OP_DUP OP_HASH160 8e40875628470c0e9636a5208f3e27fece68bfbc OP_EQUALVERIFY OP_CHECKSIG", "type": "pubkeyhash"}, "value": 0.00325397, "n": 1}, {"scriptPubKey": {"reqSigs": 1, "hex": "a914cf1526369679d21b3addc90267febe46a7b21cbc87", "addresses": ["3LZy8jH3Kq9BRiBBNo93gFT5spryZTpswc"], "asm": "OP_HASH160 cf1526369679d21b3addc90267febe46a7b21cbc OP_EQUAL", "type": "scripthash"}, "value": 0.00208205, "n": 2}, {"scriptPubKey": {"reqSigs": 1, "hex": "a9144694f2735e97adc2cf60da6e89a1cf42a09d71e587", "addresses": ["388DezibGHx3DPHzxYxu6n8Tq7gdU5DVAF"], "asm": "OP_HASH160 4694f2735e97adc2cf60da6e89a1cf42a09d71e5 OP_EQUAL", "type": "scripthash"}, "value": 0.00322915, "n": 3}, {"scriptPubKey": {"reqSigs": 1, "hex": "a914f78c36a43970807345ae845f61ddceaf4e4999dd87", "addresses": ["3QFvo8JVGXK6CPNo8tsaRUaUeuLJiyiiLP"], "asm": "OP_HASH160 f78c36a43970807345ae845f61ddceaf4e4999dd OP_EQUAL", "type": "scripthash"}, "value": 0.00682032, "n": 4}, {"scriptPubKey": {"reqSigs": 1, "hex": "a914a3d0283a0af6daf7e1005f082d4df9265bda407b87", "addresses": ["3GdBRpiLy9SP1ifvb6Lxy1Wer3xH89DTkT"], "asm": "OP_HASH160 a3d0283a0af6daf7e1005f082d4df9265bda407b OP_EQUAL", "type": "scripthash"}, "value": 0.02145, "n": 5}, {"scriptPubKey": {"reqSigs": 1, "hex": "a9148918281bce9e046e9b7e9b3fe2a3d31c435285c687", "addresses": ["3EBuSG1oiUkjNVDJFdU4mCYtkFwF6MLKH2"], "asm": "OP_HASH160 8918281bce9e046e9b7e9b3fe2a3d31c435285c6 OP_EQUAL", "type": "scripthash"}, "value": 0.01472551, "n": 6}, {"scriptPubKey": {"reqSigs": 1, "hex": "76a9143f485f8df51b198411d707bae7b6dd8cf1ee405188ac", "addresses": ["16mcGfihU8vxLixVAE23T5NRxNCBbtCVCp"], "asm": "OP_DUP OP_HASH160 3f485f8df51b198411d707bae7b6dd8cf1ee4051 OP_EQUALVERIFY OP_CHECKSIG", "type": "pubkeyhash"}, "value": 0.00456361, "n": 7}, {"scriptPubKey": {"reqSigs": 1, "hex": "a9148d6fb059d565ef39a8fdc4dd87e31654aa6fa9ce87", "addresses": ["3EarzsT3wt5JCfbuP9F4wqX28pngnhrbuG"], "asm": "OP_HASH160 8d6fb059d565ef39a8fdc4dd87e31654aa6fa9ce OP_EQUAL", "type": "scripthash"}, "value": 0.00571617, "n": 8}, {"scriptPubKey": {"reqSigs": 1, "hex": "a91475efd6fe55088d46273ab9f21e28523ae3839cb587", "addresses": ["3CScJMHndK6LdgNvTXDzfAmkwfsrMFtUAt"], "asm": "OP_HASH160 75efd6fe55088d46273ab9f21e28523ae3839cb5 OP_EQUAL", "type": "scripthash"}, "value": 0.01148403, "n": 9}, {"scriptPubKey": {"reqSigs": 1, "hex": "a9145e464d302536a85d79b4026603b508552701472b87", "addresses": ["3AHVfDBHYoddJCQvVCXZdFgMtDkvCRDDUg"], "asm": "OP_HASH160 5e464d302536a85d79b4026603b508552701472b OP_EQUAL", "type": "scripthash"}, "value": 0.0026, "n": 10}, {"scriptPubKey": {"reqSigs": 1, "hex": "a91433fb1afbc4bd7ce11bd6e33f7558206b9fc402f687", "addresses": ["36RsCSGVVuCdPyKWrp8kmpLUY9jT232MZD"], "asm": "OP_HASH160 33fb1afbc4bd7ce11bd6e33f7558206b9fc402f6 OP_EQUAL", "type": "scripthash"}, "value": 0.0031086, "n": 11}, {"scriptPubKey": {"reqSigs": 1, "hex": "a914535cd3f519be388a20e9482219311acae18d6e4087", "addresses": ["39HoDGLnwP66UnkTAk9H2bDKeKwRTu2qXR"], "asm": "OP_HASH160 535cd3f519be388a20e9482219311acae18d6e40 OP_EQUAL", "type": "scripthash"}, "value": 0.00390624, "n": 12}, {"scriptPubKey": {"reqSigs": 1, "hex": "a91451972ac13cd759dad0b6263317f92fd9b678e87e87", "addresses": ["398RkMFvpGWY2FCg9tKposen3oT6Hchufb"], "asm": "OP_HASH160 51972ac13cd759dad0b6263317f92fd9b678e87e OP_EQUAL", "type": "scripthash"}, "value": 0.00874634, "n": 13}, {"scriptPubKey": {"reqSigs": 1, "hex": "a914189ed2d557848e467661657b99e1026b272944a387", "addresses": ["33wCQQJjDztEjwEZkhCcb1vouWq4ybu6ft"], "asm": "OP_HASH160 189ed2d557848e467661657b99e1026b272944a3 OP_EQUAL", "type": "scripthash"}, "value": 0.00452, "n": 14}, {"scriptPubKey": {"reqSigs": 1, "hex": "a91456f568f5c46556b2d216a12df17af6553b26711d87", "addresses": ["39cp2RiNbzWfsuHyzc65gNjDXcioSxAHX3"], "asm": "OP_HASH160 56f568f5c46556b2d216a12df17af6553b26711d OP_EQUAL", "type": "scripthash"}, "value": 0.002487, "n": 15}, {"scriptPubKey": {"reqSigs": 1, "hex": "a914812e6f15871bbbfe6c64b005806293186328b1fd87", "addresses": ["3DU4iaKkSRTZYXJJgLVTZcfycqB8NvaK1X"], "asm": "OP_HASH160 812e6f15871bbbfe6c64b005806293186328b1fd OP_EQUAL", "type": "scripthash"}, "value": 0.00326495, "n": 16}, {"scriptPubKey": {"reqSigs": 1, "hex": "a91474047769099d0d8babf260ac523ab51f1a5282a787", "addresses": ["3CGTf8WLDvaCDqVyuoaaEC1cexwKcNjq5s"], "asm": "OP_HASH160 74047769099d0d8babf260ac523ab51f1a5282a7 OP_EQUAL", "type": "scripthash"}, "value": 0.0122015, "n": 17}, {"scriptPubKey": {"reqSigs": 1, "hex": "a914d894cf7c8ce6d758104f75db3bb101938848aa7b87", "addresses": ["3MSC9WjmCUc1WPrdB26C7VnjQW7qk5FCey"], "asm": "OP_HASH160 d894cf7c8ce6d758104f75db3bb101938848aa7b OP_EQUAL", "type": "scripthash"}, "value": 17.04882301, "n": 18}, {"scriptPubKey": {"reqSigs": 1, "hex": "a914e16ed9ffacd056ba7078d9ae3692371ee72bd9b787", "addresses": ["3NEzkokUSABa4bxk9pf8eKGFY4PyueYPNc"], "asm": "OP_HASH160 e16ed9ffacd056ba7078d9ae3692371ee72bd9b7 OP_EQUAL", "type": "scripthash"}, "value": 0.00269147, "n": 19}, {"scriptPubKey": {"reqSigs": 1, "hex": "a9141990645cbdd067ceb9a662a5134dec9b437f32d087", "addresses": ["342BnsfYhDnCj4CmjuJnHez4dcUGoafDPH"], "asm": "OP_HASH160 1990645cbdd067ceb9a662a5134dec9b437f32d0 OP_EQUAL", "type": "scripthash"}, "value": 0.0044446, "n": 20}, {"scriptPubKey": {"reqSigs": 1, "hex": "a91453ba12ee4a39f77650d4fb336bd9d0d85b6bfde287", "addresses": ["39Kiv7MDorgqsn8FqrMVgxZMeBe49uFfxU"], "asm": "OP_HASH160 53ba12ee4a39f77650d4fb336bd9d0d85b6bfde2 OP_EQUAL", "type": "scripthash"}, "value": 0.0055178, "n": 21}, {"scriptPubKey": {"reqSigs": 1, "hex": "a9143c4240836fcb4a40f133ddff56b5fedb6d43191787", "addresses": ["37BdqKiw3gSuncNMphAA4y17axiRh8vYG7"], "asm": "OP_HASH160 3c4240836fcb4a40f133ddff56b5fedb6d431917 OP_EQUAL", "type": "scripthash"}, "value": 0.00159908, "n": 22}, {"scriptPubKey": {"reqSigs": 1, "hex": "a914b3592632c7e3528a3e14a170b6512b1c757e29da87", "addresses": ["3J3Kg5SAwyq5KBM7rUAT32585YR7Gs1rQW"], "asm": "OP_HASH160 b3592632c7e3528a3e14a170b6512b1c757e29da OP_EQUAL", "type": "scripthash"}, "value": 0.0046256, "n": 23}, {"scriptPubKey": {"reqSigs": 1, "hex": "a914f2a19658d6bac88495173d176e7f40f4ed6da11d87", "addresses": ["3Pow2FNmHEVBFgTzpGmGxiJ3Zt7UuTeTDZ"], "asm": "OP_HASH160 f2a19658d6bac88495173d176e7f40f4ed6da11d OP_EQUAL", "type": "scripthash"}, "value": 0.002663, "n": 24}, {"scriptPubKey": {"reqSigs": 1, "hex": "76a914fd3346ea4d07b15fd5213f3f3dbb1ca5ccb55f7f88ac", "addresses": ["1Q5oPKhY6wfBFeN15Eucy2NUMJ7X7kN8bx"], "asm": "OP_DUP OP_HASH160 fd3346ea4d07b15fd5213f3f3dbb1ca5ccb55f7f OP_EQUALVERIFY OP_CHECKSIG", "type": "pubkeyhash"}, "value": 0.12438162, "n": 25}], "hex": "020000000001019040d0c625926b75477adf7e9f26eb67774ec6eac1738bff2fecd0dc688b83f40600000017160014a2154bed6ca6148131abbbaf3165db5782706923feffffff1ae34803000000000017a9142fa6b53df66e3644532cf87e977b6ffcb3bfe8548715f70400000000001976a9148e40875628470c0e9636a5208f3e27fece68bfbc88ac4d2d03000000000017a914cf1526369679d21b3addc90267febe46a7b21cbc8763ed04000000000017a9144694f2735e97adc2cf60da6e89a1cf42a09d71e58730680a000000000017a914f78c36a43970807345ae845f61ddceaf4e4999dd87e8ba20000000000017a914a3d0283a0af6daf7e1005f082d4df9265bda407b87277816000000000017a9148918281bce9e046e9b7e9b3fe2a3d31c435285c687a9f60600000000001976a9143f485f8df51b198411d707bae7b6dd8cf1ee405188ace1b808000000000017a9148d6fb059d565ef39a8fdc4dd87e31654aa6fa9ce87f38511000000000017a91475efd6fe55088d46273ab9f21e28523ae3839cb587a0f703000000000017a9145e464d302536a85d79b4026603b508552701472b874cbe04000000000017a91433fb1afbc4bd7ce11bd6e33f7558206b9fc402f687e0f505000000000017a914535cd3f519be388a20e9482219311acae18d6e40878a580d000000000017a91451972ac13cd759dad0b6263317f92fd9b678e87e87a0e506000000000017a914189ed2d557848e467661657b99e1026b272944a3877ccb03000000000017a91456f568f5c46556b2d216a12df17af6553b26711d875ffb04000000000017a914812e6f15871bbbfe6c64b005806293186328b1fd87369e12000000000017a91474047769099d0d8babf260ac523ab51f1a5282a7877d709e650000000017a914d894cf7c8ce6d758104f75db3bb101938848aa7b875b1b04000000000017a914e16ed9ffacd056ba7078d9ae3692371ee72bd9b7872cc806000000000017a9141990645cbdd067ceb9a662a5134dec9b437f32d087646b08000000000017a91453ba12ee4a39f77650d4fb336bd9d0d85b6bfde287a47002000000000017a9143c4240836fcb4a40f133ddff56b5fedb6d43191787e00e07000000000017a914b3592632c7e3528a3e14a170b6512b1c757e29da873c1004000000000017a914f2a19658d6bac88495173d176e7f40f4ed6da11d8792cabd00000000001976a914fd3346ea4d07b15fd5213f3f3dbb1ca5ccb55f7f88ac02483045022100bf11e5f7b049709903b34278c9a2967f53359264e6c1711a6415eb67a3fb434502206e221cb833b8734c2604c17e2de5365341ca022a66b47f054842d416ed8bd52d012103745c0ca58154e4d68b50766e5d2475ea240245036950d669f6ccd03bf04647e4b9480800", "vin": [{"txinwitness": ["3045022100bf11e5f7b049709903b34278c9a2967f53359264e6c1711a6415eb67a3fb434502206e221cb833b8734c2604c17e2de5365341ca022a66b47f054842d416ed8bd52d01", "03745c0ca58154e4d68b50766e5d2475ea240245036950d669f6ccd03bf04647e4"], "sequence": 4294967294, "scriptSig": {"hex": "160014a2154bed6ca6148131abbbaf3165db5782706923", "asm": "0014a2154bed6ca6148131abbbaf3165db5782706923"}, "vout": 6, "txid": "f4838b68dcd0ec2fff8b73c1eac64e7767eb269f7edf7a47756b9225c6d04090"}], "txid": "ebaffa9fc76bc2e1b957274bfaad14ad83903784ff1772d88366e05efaf2ba13", "blocktime": 1537873282, "version": 2, "confirmations": 11481, "time": 1537873282, "locktime": 542905, "vsize": 940, "size": 1022}