{"hash": "ebb17e6b77cb218b0179aef443299a2d19dcbb9beef7b1f9d393397ac251f19a", "blockhash": "0000000000000000001cda96e906b7601b7a6fb1a3b62bca570a9e5d8f4b3de1", "vout": [{"scriptPubKey": {"reqSigs": 1, "hex": "a91414767eedbacbd7bd0d13cbc31f5885fbed9bf91a87", "addresses": ["33ZDPcZVfwKp1dWaowiwtcVnPJa2TFyFN1"], "asm": "OP_HASH160 14767eedbacbd7bd0d13cbc31f5885fbed9bf91a OP_EQUAL", "type": "scripthash"}, "value": 0.15646318, "n": 0}, {"scriptPubKey": {"reqSigs": 1, "hex": "a9141364a1e35861df645ae75952cc28eb6aab71d69b87", "addresses": ["33TZKFNMbWxyKJfx7tX5oc1HMGamkeUcJR"], "asm": "OP_HASH160 1364a1e35861df645ae75952cc28eb6aab71d69b OP_EQUAL", "type": "scripthash"}, "value": 0.05496621, "n": 1}, {"scriptPubKey": {"reqSigs": 1, "hex": "76a91465b6b030f5b5a3cc416f17bc547b4cc29606bea388ac", "addresses": ["1AGp6n4BjrNL6u6VrJ8b9eVsd1ngqGPdPg"], "asm": "OP_DUP OP_HASH160 65b6b030f5b5a3cc416f17bc547b4cc29606bea3 OP_EQUALVERIFY OP_CHECKSIG", "type": "pubkeyhash"}, "value": 0.00878781, "n": 2}], "hex": "0100000002f4e6bbb90e2ab1cd2ed19d8090f341bddda06340c2671306b0695dc4e4741bb800000000db00483045022100ba1bb8c12a908e157c4232bf2848ad518969da8556581501588290a86fc6423c022020b60015564be92dde857462a06a0b3bf99ec3b5b8dfa8e8bdb738b01b259e1501483045022100983b2f76e4237177e0aadae3d55d8e2da1b155ccf6fb9d4700b295e322b38cee02201517eb3b55cee4ffc51506b513ce5241bd38e999c618e9933517732d450214520147522102907a54bed8ad74b3f35638c60114ca240a308cb986f3f2f306178869a8880b6121034c126e185386d084ff60f34e46a5ba4c00d782c2e29f8e1aad3944a3deed41ee52aefffffffffade18ab9a0efe15d0fbc61d7a30086cf8e082a71558adb1397a89ae721336fe00000000da0047304402203ba110cbab4dd53958adc5aad0c88551f59ba820e23bf07880f3cae9aa096bd602206d1d93bdfb0085d96a0121e2de2a722fe7fb93aa9c41c6c9407b346159eccb3801483045022100d76ebc62cb6eb43d46b186c7bcbc431737cfe396f6ebc9c5dc055a5ec135dc350220049e36580cb1e3b9a302a5a76795526a781a9d9e43e6d546088df9714b9b356c014752210273d5de5a3a6dd10de90754482bcaced8e9dd0094c1cf01ba8a298fe51620a6792102907a54bed8ad74b3f35638c60114ca240a308cb986f3f2f306178869a8880b6152aeffffffff036ebeee000000000017a91414767eedbacbd7bd0d13cbc31f5885fbed9bf91a872ddf53000000000017a9141364a1e35861df645ae75952cc28eb6aab71d69b87bd680d00000000001976a91465b6b030f5b5a3cc416f17bc547b4cc29606bea388ac00000000", "vin": [{"sequence": 4294967295, "scriptSig": {"hex": "00483045022100ba1bb8c12a908e157c4232bf2848ad518969da8556581501588290a86fc6423c022020b60015564be92dde857462a06a0b3bf99ec3b5b8dfa8e8bdb738b01b259e1501483045022100983b2f76e4237177e0aadae3d55d8e2da1b155ccf6fb9d4700b295e322b38cee02201517eb3b55cee4ffc51506b513ce5241bd38e999c618e9933517732d450214520147522102907a54bed8ad74b3f35638c60114ca240a308cb986f3f2f306178869a8880b6121034c126e185386d084ff60f34e46a5ba4c00d782c2e29f8e1aad3944a3deed41ee52ae", "asm": "0 3045022100ba1bb8c12a908e157c4232bf2848ad518969da8556581501588290a86fc6423c022020b60015564be92dde857462a06a0b3bf99ec3b5b8dfa8e8bdb738b01b259e15[ALL] 3045022100983b2f76e4237177e0aadae3d55d8e2da1b155ccf6fb9d4700b295e322b38cee02201517eb3b55cee4ffc51506b513ce5241bd38e999c618e9933517732d45021452[ALL] 522102907a54bed8ad74b3f35638c60114ca240a308cb986f3f2f306178869a8880b6121034c126e185386d084ff60f34e46a5ba4c00d782c2e29f8e1aad3944a3deed41ee52ae"}, "vout": 0, "txid": "b81b74e4c45d69b0061367c24063a0ddbd41f390809dd12ecdb12a0eb9bbe6f4"}, {"sequence": 4294967295, "scriptSig": {"hex": "0047304402203ba110cbab4dd53958adc5aad0c88551f59ba820e23bf07880f3cae9aa096bd602206d1d93bdfb0085d96a0121e2de2a722fe7fb93aa9c41c6c9407b346159eccb3801483045022100d76ebc62cb6eb43d46b186c7bcbc431737cfe396f6ebc9c5dc055a5ec135dc350220049e36580cb1e3b9a302a5a76795526a781a9d9e43e6d546088df9714b9b356c014752210273d5de5a3a6dd10de90754482bcaced8e9dd0094c1cf01ba8a298fe51620a6792102907a54bed8ad74b3f35638c60114ca240a308cb986f3f2f306178869a8880b6152ae", "asm": "0 304402203ba110cbab4dd53958adc5aad0c88551f59ba820e23bf07880f3cae9aa096bd602206d1d93bdfb0085d96a0121e2de2a722fe7fb93aa9c41c6c9407b346159eccb38[ALL] 3045022100d76ebc62cb6eb43d46b186c7bcbc431737cfe396f6ebc9c5dc055a5ec135dc350220049e36580cb1e3b9a302a5a76795526a781a9d9e43e6d546088df9714b9b356c[ALL] 52210273d5de5a3a6dd10de90754482bcaced8e9dd0094c1cf01ba8a298fe51620a6792102907a54bed8ad74b3f35638c60114ca240a308cb986f3f2f306178869a8880b6152ae"}, "vout": 0, "txid": "fe361372ae897a39b1ad5815a782e0f86c08307a1dc6fbd015fe0e9aab18defa"}], "txid": "ebb17e6b77cb218b0179aef443299a2d19dcbb9beef7b1f9d393397ac251f19a", "blocktime": 1537873282, "version": 1, "confirmations": 11484, "time": 1537873282, "locktime": 0, "vsize": 627, "size": 627}