{"hash": "3ffcf9a8029ce6b795718deaeb55d70cb617b2c9fbc78dfb5a03f6672c753f30", "blockhash": "00000000000000000017f5eb5941039fbcee6240d03bc1f2f8e35350df66a1d8", "vout": [{"scriptPubKey": {"reqSigs": 1, "hex": "a91436bd7dec65ad24f72d19798d7dea6f58c1db48a487", "addresses": ["36gTR2gZjMJkW7z2HoMPE4Q7GX8R5G8Wfq"], "asm": "OP_HASH160 36bd7dec65ad24f72d19798d7dea6f58c1db48a4 OP_EQUAL", "type": "scripthash"}, "value": 0.00204624, "n": 0}, {"scriptPubKey": {"reqSigs": 1, "hex": "00146476eb514cd623493d6f6cbf1c27aceb401282e7", "addresses": ["bc1qv3mwk52v6c35j0t0djl3cfavadqp9qh8a4uds5"], "asm": "0 6476eb514cd623493d6f6cbf1c27aceb401282e7", "type": "witness_v0_keyhash"}, "value": 6.942e-05, "n": 1}], "hex": "01000000000101148f18305b0813eebe026e7c286d4d6a651c9bae360e9ce0d19839849634e5140100000000ffffffff02501f03000000000017a91436bd7dec65ad24f72d19798d7dea6f58c1db48a4871e1b0000000000001600146476eb514cd623493d6f6cbf1c27aceb401282e702473044022029abf9ab213b2ddd8d8e425d4720e95cc86219ac466cc9f8414d6522d05d87ac0220618a9e77116af9ce74b8ac5ccb0bc97c1f7ce088074af8d8b61483ce89f5aff40121034199dd8741a804a6cc0bfe8dba950331282c1c3886f4ca99755ee9bcef6cf44e00000000", "vin": [{"txinwitness": ["3044022029abf9ab213b2ddd8d8e425d4720e95cc86219ac466cc9f8414d6522d05d87ac0220618a9e77116af9ce74b8ac5ccb0bc97c1f7ce088074af8d8b61483ce89f5aff401", "034199dd8741a804a6cc0bfe8dba950331282c1c3886f4ca99755ee9bcef6cf44e"], "sequence": 4294967295, "scriptSig": {"hex": "", "asm": ""}, "vout": 1, "txid": "14e53496843998d1e09c0e36ae9b1c656a4d6d287c6e02beee13085b30188f14"}], "txid": "ebbcb527b8d4ce1d98851c032154225b94a15240cd060079028c9c32865f245b", "blocktime": 1537874412, "version": 1, "confirmations": 11467, "time": 1537874412, "locktime": 0, "vsize": 142, "size": 223}