{"hash": "279479f19d4d1553e6443044c827ae9c605bd648e12b180811aee02063946ba1", "blockhash": "00000000000000000017f5eb5941039fbcee6240d03bc1f2f8e35350df66a1d8", "vout": [{"scriptPubKey": {"reqSigs": 1, "hex": "76a914006a575fd2eee93d0a62dfbdb5778aff0a45e5af88ac", "addresses": ["113CPixkBrc7jzRe9oLTj3QmPqMsZKmkDk"], "asm": "OP_DUP OP_HASH160 006a575fd2eee93d0a62dfbdb5778aff0a45e5af OP_EQUALVERIFY OP_CHECKSIG", "type": "pubkeyhash"}, "value": 0.07187586, "n": 0}, {"scriptPubKey": {"reqSigs": 1, "hex": "a914df48b61cea5e1118b31ff99f29568d309f0e4f0e87", "addresses": ["3N3diPz6WVULo6YcMRu8RSkt29M8hMZFqB"], "asm": "OP_HASH160 df48b61cea5e1118b31ff99f29568d309f0e4f0e OP_EQUAL", "type": "scripthash"}, "value": 0.00209424, "n": 1}], "hex": "02000000000101d933a2b0261e329a11fa2e74a605e0c7230682e4f170358b24518d98ed0842770000000017160014f570c3cd006f23c95205abf2cd571f16a9caac43ffffffff0282ac6d00000000001976a914006a575fd2eee93d0a62dfbdb5778aff0a45e5af88ac103203000000000017a914df48b61cea5e1118b31ff99f29568d309f0e4f0e8702483045022100de72c5bb1bacd98002ea4929db31e25116f551e2f1c620a214d58672468a62cc022062a64dd5b33958effeea0b2aefbc401adc384d4c0992b7211d52412bceaeb4dc012103514d120e1e58537299200c8f59694b0278e892ae9fd2a0c0165c4dcde48ce6ac00000000", "vin": [{"txinwitness": ["3045022100de72c5bb1bacd98002ea4929db31e25116f551e2f1c620a214d58672468a62cc022062a64dd5b33958effeea0b2aefbc401adc384d4c0992b7211d52412bceaeb4dc01", "03514d120e1e58537299200c8f59694b0278e892ae9fd2a0c0165c4dcde48ce6ac"], "sequence": 4294967295, "scriptSig": {"hex": "160014f570c3cd006f23c95205abf2cd571f16a9caac43", "asm": "0014f570c3cd006f23c95205abf2cd571f16a9caac43"}, "vout": 0, "txid": "774208ed988d51248b3570f1e4820623c7e005a6742efa119a321e26b0a233d9"}], "txid": "ebc572432735e072342ab1a9c04a9481ee388f88891de42579c26f2275a1395f", "blocktime": 1537874412, "version": 2, "confirmations": 11467, "time": 1537874412, "locktime": 0, "vsize": 168, "size": 250}