{"hash": "a153a1b2b952e1b799245c2f388f65589f9396d4b7bbca91b3fbc858be5dc24f", "blockhash": "000000000000000000022b45ed06c6f4ccd3cf7fb5ba4856ebd2e58215665228", "vout": [{"scriptPubKey": {"reqSigs": 1, "hex": "76a91488a4f2265469c05de2c25afbc9c3bbde507c35d788ac", "addresses": ["1DTWVjPRjxPo462cY884VzTYY3aZ3WNGnN"], "asm": "OP_DUP OP_HASH160 88a4f2265469c05de2c25afbc9c3bbde507c35d7 OP_EQUALVERIFY OP_CHECKSIG", "type": "pubkeyhash"}, "value": 0.0001, "n": 0}, {"scriptPubKey": {"reqSigs": 1, "hex": "a91477a1dd849bcfb5e43b3cbcea50983366310518e587", "addresses": ["3CbaEyDhobW7ELwqzcLGEdr19K47d9YFhY"], "asm": "OP_HASH160 77a1dd849bcfb5e43b3cbcea50983366310518e5 OP_EQUAL", "type": "scripthash"}, "value": 0.00180664, "n": 1}], "hex": "02000000000101959ec65ade01d7229603902f64789a979d710bb6c48603a23fc3ef93337717be0000000017160014b0a52fbc3b203d6346354951e3747860f1f46351fdffffff0210270000000000001976a91488a4f2265469c05de2c25afbc9c3bbde507c35d788acb8c102000000000017a91477a1dd849bcfb5e43b3cbcea50983366310518e587024830450221008e6485cac9df28e1f54717d82ad28648f2dee25b5a5dc61ae1e91b17b13835560220471bbf0a206f78b29e482d212ae73afab1762bf04bc99117ac40a0f015e5d5b30121022dae4dd66459ef78a7aa5ac4aba0b105639cb09f93674cbb4537880bd03e71750b490800", "vin": [{"txinwitness": ["30450221008e6485cac9df28e1f54717d82ad28648f2dee25b5a5dc61ae1e91b17b13835560220471bbf0a206f78b29e482d212ae73afab1762bf04bc99117ac40a0f015e5d5b301", "022dae4dd66459ef78a7aa5ac4aba0b105639cb09f93674cbb4537880bd03e7175"], "sequence": 4294967293, "scriptSig": {"hex": "160014b0a52fbc3b203d6346354951e3747860f1f46351", "asm": "0014b0a52fbc3b203d6346354951e3747860f1f46351"}, "vout": 0, "txid": "be17773393efc33fa20386c4b60b719d979a78642f90039622d701de5ac69e95"}], "txid": "ebd0a387590c1e79ed534bc092cf75fff8ef2f36e241d4936368f003bd2eda08", "blocktime": 1537869901, "version": 2, "confirmations": 11524, "time": 1537869901, "locktime": 542987, "vsize": 168, "size": 250}