{"hash": "ebd2103e0cdb5be8070753ab2d732abf6a5fc2641c7c7bdc07966013287bb890", "blockhash": "00000000000000000024a2167bbff67b0be802c0b01cdd79e6331c2be6459f87", "vout": [{"scriptPubKey": {"reqSigs": 1, "hex": "76a9142e68379c6f645e31927d5bd610bbea02b5218b4288ac", "addresses": ["15ENvxw2y65vchgVT7vNBKcr3ieXFpyeB6"], "asm": "OP_DUP OP_HASH160 2e68379c6f645e31927d5bd610bbea02b5218b42 OP_EQUALVERIFY OP_CHECKSIG", "type": "pubkeyhash"}, "value": 0.1612619, "n": 0}, {"scriptPubKey": {"reqSigs": 1, "hex": "76a914b932b07e7eca175237fd8b0861d1ccef5cff69dd88ac", "addresses": ["1HtEjTDTemdNmLDB3kUsg1LWsaiBTmMBJW"], "asm": "OP_DUP OP_HASH160 b932b07e7eca175237fd8b0861d1ccef5cff69dd OP_EQUALVERIFY OP_CHECKSIG", "type": "pubkeyhash"}, "value": 1.03254191, "n": 1}], "hex": "0100000001648a2e22b03a6247aa6548fa04a4a587ca1de26f1866b8b504b69bc49fb9fe25010000006a47304402207259caceb9245d5d75a5d1cc2f4da1830ec2e9c027e61c9a15e5be3f333befab022078a4031ec08535ab5ec9cce211a672ffd780d7840ec41266a81caa60f9eff8c301210256e82ed4295bff28d7161710759d394137a07f347cbcd419d95be55a52ab8263ffffffff02ee10f600000000001976a9142e68379c6f645e31927d5bd610bbea02b5218b4288acaf882706000000001976a914b932b07e7eca175237fd8b0861d1ccef5cff69dd88ac00000000", "vin": [{"sequence": 4294967295, "scriptSig": {"hex": "47304402207259caceb9245d5d75a5d1cc2f4da1830ec2e9c027e61c9a15e5be3f333befab022078a4031ec08535ab5ec9cce211a672ffd780d7840ec41266a81caa60f9eff8c301210256e82ed4295bff28d7161710759d394137a07f347cbcd419d95be55a52ab8263", "asm": "304402207259caceb9245d5d75a5d1cc2f4da1830ec2e9c027e61c9a15e5be3f333befab022078a4031ec08535ab5ec9cce211a672ffd780d7840ec41266a81caa60f9eff8c3[ALL] 0256e82ed4295bff28d7161710759d394137a07f347cbcd419d95be55a52ab8263"}, "vout": 1, "txid": "25feb99fc49bb604b5b866186fe21dca87a5a404fa4865aa47623ab0222e8a64"}], "txid": "ebd2103e0cdb5be8070753ab2d732abf6a5fc2641c7c7bdc07966013287bb890", "blocktime": 1537870564, "version": 1, "confirmations": 11515, "time": 1537870564, "locktime": 0, "vsize": 225, "size": 225}