{"hash": "ebd51bb29d1c3482612100eb1eb4a3e863055825f1af0a7c4b8e2001894f8954", "blockhash": "0000000000000000000dcc0f55137456b1a82d3642486a52398922ac4d620174", "vout": [{"scriptPubKey": {"reqSigs": 1, "hex": "76a914a10955c2facc72ddb9a9a227358f6c9adef09b8d88ac", "addresses": ["1FgUyVZ9F7uUPXeRnXGYtnBvvpecTfmZJo"], "asm": "OP_DUP OP_HASH160 a10955c2facc72ddb9a9a227358f6c9adef09b8d OP_EQUALVERIFY OP_CHECKSIG", "type": "pubkeyhash"}, "value": 0.00046205, "n": 0}, {"scriptPubKey": {"reqSigs": 1, "hex": "76a914b4fb2f9c7f1c7f42eccbd4ccd75ba4e83a52722688ac", "addresses": ["1HVwYEmnRXGWbfw5j8A9YJRMPK6rEKfTWk"], "asm": "OP_DUP OP_HASH160 b4fb2f9c7f1c7f42eccbd4ccd75ba4e83a527226 OP_EQUALVERIFY OP_CHECKSIG", "type": "pubkeyhash"}, "value": 0.00526653, "n": 1}], "hex": "0100000002e7bcc5d1efb3d5e5a58298c1f1359ea7a6452dc6f547775ea6cb4884cf04d464000000006b483045022100d3227fcb2d7808da0090c9db148c5455c06a4c1477cd5506eba17afdbd92b70d022042b568dfccaf299a7e9e70ebcdbf0e317eabcb2878539182f5755ff8ac9ed28b01210228a4f644de87c7d878a00db9274f095897845e45f64d0e20a880d2a4d904dd9bffffffffd241ad202c3775a8faab999085496541e754ba4845e9741341ac0d6f83003af2000000006a47304402203519a33fddb5b1175c8bb5191b223adfd3881011bf610ed2364de9d506eb2107022013bcf2afb1a96c5bc5a84ec4179abd5183a06ba1100218321db598cf22044a5c01210355823c225b29c289b61e7ebb42eee16d775f214491ac580400e3c44832e76800ffffffff027db40000000000001976a914a10955c2facc72ddb9a9a227358f6c9adef09b8d88ac3d090800000000001976a914b4fb2f9c7f1c7f42eccbd4ccd75ba4e83a52722688ac00000000", "vin": [{"sequence": 4294967295, "scriptSig": {"hex": "483045022100d3227fcb2d7808da0090c9db148c5455c06a4c1477cd5506eba17afdbd92b70d022042b568dfccaf299a7e9e70ebcdbf0e317eabcb2878539182f5755ff8ac9ed28b01210228a4f644de87c7d878a00db9274f095897845e45f64d0e20a880d2a4d904dd9b", "asm": "3045022100d3227fcb2d7808da0090c9db148c5455c06a4c1477cd5506eba17afdbd92b70d022042b568dfccaf299a7e9e70ebcdbf0e317eabcb2878539182f5755ff8ac9ed28b[ALL] 0228a4f644de87c7d878a00db9274f095897845e45f64d0e20a880d2a4d904dd9b"}, "vout": 0, "txid": "64d404cf8448cba65e7747f5c62d45a6a79e35f1c19882a5e5d5b3efd1c5bce7"}, {"sequence": 4294967295, "scriptSig": {"hex": "47304402203519a33fddb5b1175c8bb5191b223adfd3881011bf610ed2364de9d506eb2107022013bcf2afb1a96c5bc5a84ec4179abd5183a06ba1100218321db598cf22044a5c01210355823c225b29c289b61e7ebb42eee16d775f214491ac580400e3c44832e76800", "asm": "304402203519a33fddb5b1175c8bb5191b223adfd3881011bf610ed2364de9d506eb2107022013bcf2afb1a96c5bc5a84ec4179abd5183a06ba1100218321db598cf22044a5c[ALL] 0355823c225b29c289b61e7ebb42eee16d775f214491ac580400e3c44832e76800"}, "vout": 0, "txid": "f23a00836f0dac411374e94548ba54e7416549859099abfaa875372c20ad41d2"}], "txid": "ebd51bb29d1c3482612100eb1eb4a3e863055825f1af0a7c4b8e2001894f8954", "blocktime": 1537870268, "version": 1, "confirmations": 11518, "time": 1537870268, "locktime": 0, "vsize": 373, "size": 373}