{"hash": "2f48f3f556bb9dcac0969687823957716b964f8157ca7c34c018e72237950da8", "blockhash": "0000000000000000001cda96e906b7601b7a6fb1a3b62bca570a9e5d8f4b3de1", "vout": [{"scriptPubKey": {"reqSigs": 1, "hex": "76a9141c315e3a501488c0283b4ed8b573c1162ff3e72b88ac", "addresses": ["13a54XUS4q7VExUZAvNRmFEwq6CjFturTW"], "asm": "OP_DUP OP_HASH160 1c315e3a501488c0283b4ed8b573c1162ff3e72b OP_EQUALVERIFY OP_CHECKSIG", "type": "pubkeyhash"}, "value": 0.0026, "n": 0}, {"scriptPubKey": {"reqSigs": 1, "hex": "a9140099bb3b172d200efab7dd3fd85dfaca1f56bcfe87", "addresses": ["31kC5zBGWvt3DCjgBPZZtra3XYC7pTQx8y"], "asm": "OP_HASH160 0099bb3b172d200efab7dd3fd85dfaca1f56bcfe OP_EQUAL", "type": "scripthash"}, "value": 18.99099626, "n": 1}, {"scriptPubKey": {"reqSigs": 1, "hex": "76a914a42550cd0b1c9b449f2913b477d9962b8d2b34af88ac", "addresses": ["1FxvXCLkPR9KDy45Bs1EhWWDeQ16yZJBMf"], "asm": "OP_DUP OP_HASH160 a42550cd0b1c9b449f2913b477d9962b8d2b34af OP_EQUALVERIFY OP_CHECKSIG", "type": "pubkeyhash"}, "value": 0.0065, "n": 2}, {"scriptPubKey": {"reqSigs": 1, "hex": "76a914163afda0bd8023a5128efdbbaf28a340eec9084988ac", "addresses": ["132YXyARs1GETSrhayFrw5ygbY7FeJm4Gf"], "asm": "OP_DUP OP_HASH160 163afda0bd8023a5128efdbbaf28a340eec90849 OP_EQUALVERIFY OP_CHECKSIG", "type": "pubkeyhash"}, "value": 0.03722, "n": 3}, {"scriptPubKey": {"reqSigs": 1, "hex": "76a9144b1d4b37a8eaaa010e4c5aed4d5cf8fd39a4df5288ac", "addresses": ["17rAmkw33tXxyDFMYLg4tQ2UqxhQs8Nej3"], "asm": "OP_DUP OP_HASH160 4b1d4b37a8eaaa010e4c5aed4d5cf8fd39a4df52 OP_EQUALVERIFY OP_CHECKSIG", "type": "pubkeyhash"}, "value": 0.088725, "n": 4}], "hex": "0200000000010166a373d4025809b29912c19c06d5b2a651380879dbbf0020d31b9075f0a091a3020000001716001418d3356e99f4fc3a11bd0da714e11fec07011a63fdffffff05a0f70300000000001976a9141c315e3a501488c0283b4ed8b573c1162ff3e72b88aceaf531710000000017a9140099bb3b172d200efab7dd3fd85dfaca1f56bcfe8710eb0900000000001976a914a42550cd0b1c9b449f2913b477d9962b8d2b34af88ac10cb3800000000001976a914163afda0bd8023a5128efdbbaf28a340eec9084988ac34628700000000001976a9144b1d4b37a8eaaa010e4c5aed4d5cf8fd39a4df5288ac02483045022100a105059369d5bc4790f81c0aa3e4c1b7da60624b1faa48e35547d9931d19b55d02205cf6ca42ccd5ad21a7f150ff625c2e873df574448e7839ef8d165cb55b0157da012102cc27425fb953eaf69d6710786efe968f383a2f6b893512d9b5c026e9aa40449713490800", "vin": [{"txinwitness": ["3045022100a105059369d5bc4790f81c0aa3e4c1b7da60624b1faa48e35547d9931d19b55d02205cf6ca42ccd5ad21a7f150ff625c2e873df574448e7839ef8d165cb55b0157da01", "02cc27425fb953eaf69d6710786efe968f383a2f6b893512d9b5c026e9aa404497"], "sequence": 4294967293, "scriptSig": {"hex": "16001418d3356e99f4fc3a11bd0da714e11fec07011a63", "asm": "001418d3356e99f4fc3a11bd0da714e11fec07011a63"}, "vout": 2, "txid": "a391a0f075901bd32000bfdb79083851a6b2d5069cc11299b2095802d473a366"}], "txid": "ebd67d371fb2ed3802e7a03204dae073a16293cb66552bddc795b1726e1f2096", "blocktime": 1537873282, "version": 2, "confirmations": 11485, "time": 1537873282, "locktime": 542995, "vsize": 270, "size": 352}