{"hash": "bc7e2c8c5c4fb2c685d568259b5ab28e28079fa0337a90d6a7b18d0f1f05af46", "blockhash": "0000000000000000000dcc0f55137456b1a82d3642486a52398922ac4d620174", "vout": [{"scriptPubKey": {"reqSigs": 1, "hex": "a914186475b51f45d767ab0ef1cc56c2826ba54a014e87", "addresses": ["33uzVDWv7x9Qq3jTmSEL1yxNAydkXd16kz"], "asm": "OP_HASH160 186475b51f45d767ab0ef1cc56c2826ba54a014e OP_EQUAL", "type": "scripthash"}, "value": 0.00023377, "n": 0}, {"scriptPubKey": {"reqSigs": 1, "hex": "a91428a9890cabdda59321bcc41f00791c23fdb4139887", "addresses": ["35Q23jrAaJ7kZVAPgE1ns1Zbu8MKeqcCoy"], "asm": "OP_HASH160 28a9890cabdda59321bcc41f00791c23fdb41398 OP_EQUAL", "type": "scripthash"}, "value": 0.00041031, "n": 1}], "hex": "010000000001014311296df0c27fb51c60b381bf4ee2bc413b79ec9d67aa53701a9c44c3b775ab0100000023220020b3cd74ebef93adcb1bbd6dd11d58085ccda5426c3b91be9331609dcda4f40837ffffffff02515b00000000000017a914186475b51f45d767ab0ef1cc56c2826ba54a014e8747a000000000000017a91428a9890cabdda59321bcc41f00791c23fdb41398870400483045022100adca19692a5af14cd87bc524995d428ec784561c9d3998c4c7095dc3f285b10b02202e9d9f6e21f7c3c740ccda3bccf25b4e5db58ea693ebb7937355ee6772e7895f01483045022100d6dd4370867713d3477821f8bd899d928d89b24676260bd867722ee04c31e752022018fb48710b3ac004f7fe638ca14bdefb3c23b16d3622c8e89bee2407bb8e244e0147522102f875c810fb1ccca2be72a3c80f24b5161e79e9d4883283f7570c2f47c77d0a2e21030580d373ab00643a581abb399b43fa66d7b6fc29624eb75b2d5ec8d99faa163f52ae00000000", "vin": [{"txinwitness": ["", "3045022100adca19692a5af14cd87bc524995d428ec784561c9d3998c4c7095dc3f285b10b02202e9d9f6e21f7c3c740ccda3bccf25b4e5db58ea693ebb7937355ee6772e7895f01", "3045022100d6dd4370867713d3477821f8bd899d928d89b24676260bd867722ee04c31e752022018fb48710b3ac004f7fe638ca14bdefb3c23b16d3622c8e89bee2407bb8e244e01", "522102f875c810fb1ccca2be72a3c80f24b5161e79e9d4883283f7570c2f47c77d0a2e21030580d373ab00643a581abb399b43fa66d7b6fc29624eb75b2d5ec8d99faa163f52ae"], "sequence": 4294967295, "scriptSig": {"hex": "220020b3cd74ebef93adcb1bbd6dd11d58085ccda5426c3b91be9331609dcda4f40837", "asm": "0020b3cd74ebef93adcb1bbd6dd11d58085ccda5426c3b91be9331609dcda4f40837"}, "vout": 1, "txid": "ab75b7c3449c1a7053aa679dec793b41bce24ebf81b3601cb57fc2f06d291143"}], "txid": "ebd7b27f3700125302e3883807db5529bee563677734a636e8e360f2faef80cc", "blocktime": 1537870268, "version": 1, "confirmations": 11518, "time": 1537870268, "locktime": 0, "vsize": 206, "size": 372}