{"hash": "6086d531388d9eb7b9b2400b4a8441579b0ac722f7426af648ae1e1415d55aa4", "blockhash": "00000000000000000004ffacab907a6b429b9a5745fa0b75af4234bf69dd7176", "vout": [{"scriptPubKey": {"reqSigs": 1, "hex": "a914c8948f84ab8bc2187580e4fb86ecf2a0a06e11cf87", "addresses": ["3Kyb35jwJ7YCiAF7JRfW5VZdpyywKap5YB"], "asm": "OP_HASH160 c8948f84ab8bc2187580e4fb86ecf2a0a06e11cf OP_EQUAL", "type": "scripthash"}, "value": 4.073e-05, "n": 0}, {"scriptPubKey": {"reqSigs": 1, "hex": "a9141d7370ccde4590204155e4074f69743a8e4fac0287", "addresses": ["34Njp4ZKtmCDfqqps26wHBYQQGUo2pGkLi"], "asm": "OP_HASH160 1d7370ccde4590204155e4074f69743a8e4fac02 OP_EQUAL", "type": "scripthash"}, "value": 0.00082762, "n": 1}], "hex": "01000000000101f5eb8bfeeec0abda75ff73000f9568fcb7653491cc7814dfdd45bd0f9760f0520100000023220020f63dfc12340f6360d0251c22746d6b56093e3243e96ca012a65484a5d9cf0ec0ffffffff02e90f00000000000017a914c8948f84ab8bc2187580e4fb86ecf2a0a06e11cf874a4301000000000017a9141d7370ccde4590204155e4074f69743a8e4fac02870400483045022100e1a698b7eaa05e583c7a83d26710a70a9a9270bb3ed312e056e7c3258a3b6eff02205677d1f7e000863b5369762d0f0e2e81c859e7195870aee4fcf5c1cf2f49343901473044022076eedae32949b4a6ecd8afc34785165633378a9185fcef81e5d0c895dd16cf6c022018c44331e329b2fec1029b29706f6cf59d049597ee992de044596ed3884697b60147522102097067a6a0cc130a9a6f6577b47bf369b840a79de31cd7457187994266b1bb7c2103338f346cab6ba87fe940591a03ac234be06520c5ab386d4b6632e8eef0d0db7652ae00000000", "vin": [{"txinwitness": ["", "3045022100e1a698b7eaa05e583c7a83d26710a70a9a9270bb3ed312e056e7c3258a3b6eff02205677d1f7e000863b5369762d0f0e2e81c859e7195870aee4fcf5c1cf2f49343901", "3044022076eedae32949b4a6ecd8afc34785165633378a9185fcef81e5d0c895dd16cf6c022018c44331e329b2fec1029b29706f6cf59d049597ee992de044596ed3884697b601", "522102097067a6a0cc130a9a6f6577b47bf369b840a79de31cd7457187994266b1bb7c2103338f346cab6ba87fe940591a03ac234be06520c5ab386d4b6632e8eef0d0db7652ae"], "sequence": 4294967295, "scriptSig": {"hex": "220020f63dfc12340f6360d0251c22746d6b56093e3243e96ca012a65484a5d9cf0ec0", "asm": "0020f63dfc12340f6360d0251c22746d6b56093e3243e96ca012a65484a5d9cf0ec0"}, "vout": 1, "txid": "52f060970fbd45dddf1478cc913465b7fc68950f0073ff75daabc0eefe8bebf5"}], "txid": "ebdcc4785096c7a366db959e330b505c3261d112e6dbb7a02dc93de150fdab15", "blocktime": 1537875543, "version": 1, "confirmations": 11464, "time": 1537875543, "locktime": 0, "vsize": 206, "size": 371}