{"hash": "ebdd8d44cc5a0618fa60097b2b3115a7567bf0ed3c6d6f34d3503ede6d1fad2b", "blockhash": "0000000000000000001e0dab787dd257d1dbfcb92a98c2207d5e1078be1f4165", "vout": [{"scriptPubKey": {"reqSigs": 1, "hex": "76a91491743238cea2ac99303605c34bf4b123bde2773688ac", "addresses": ["1EG6BGWpo1j6KBNcfxgDzuP62Ej6KZPcfu"], "asm": "OP_DUP OP_HASH160 91743238cea2ac99303605c34bf4b123bde27736 OP_EQUALVERIFY OP_CHECKSIG", "type": "pubkeyhash"}, "value": 33.57252697, "n": 0}], "hex": "010000000109fc182ff45a1de411a1dce7b0e79ccb17ec0a9fe488b34d78ca9c683cc6bf6b000000006a473044022039c7821c21ff770d5c2550f8b8c304f85ee57eb7cfdfd622fec1a5a164010072022015107e570a086514e34d1d70e85d858f60e9ef7569381f2a03b71c164b4206d1012102e85c0fe81ab7b5c2ddb6fd2824b56ec6d1a82df517cd28672b0eba3bcef28352fdffffff01599c1bc8000000001976a91491743238cea2ac99303605c34bf4b123bde2773688ac12490800", "vin": [{"sequence": 4294967293, "scriptSig": {"hex": "473044022039c7821c21ff770d5c2550f8b8c304f85ee57eb7cfdfd622fec1a5a164010072022015107e570a086514e34d1d70e85d858f60e9ef7569381f2a03b71c164b4206d1012102e85c0fe81ab7b5c2ddb6fd2824b56ec6d1a82df517cd28672b0eba3bcef28352", "asm": "3044022039c7821c21ff770d5c2550f8b8c304f85ee57eb7cfdfd622fec1a5a164010072022015107e570a086514e34d1d70e85d858f60e9ef7569381f2a03b71c164b4206d1[ALL] 02e85c0fe81ab7b5c2ddb6fd2824b56ec6d1a82df517cd28672b0eba3bcef28352"}, "vout": 0, "txid": "6bbfc63c689cca784db388e49f0aec17cb9ce7b0e7dca111e41d5af42f18fc09"}], "txid": "ebdd8d44cc5a0618fa60097b2b3115a7567bf0ed3c6d6f34d3503ede6d1fad2b", "blocktime": 1537872475, "version": 1, "confirmations": 11487, "time": 1537872475, "locktime": 542994, "vsize": 191, "size": 191}