{"hash": "0979d4a6a2e1382a3454c62606f77cf2b266d9efebb5af6a408fb5a023eb18de", "blockhash": "0000000000000000000baef3f32e3676a92c3b2e5da21b426e4f302fc371ce76", "vout": [{"scriptPubKey": {"reqSigs": 1, "hex": "a91469f37738558bf6769a82aa1c6d97b919d5281c4d87", "addresses": ["3BMEXymZBzp4PR2jYYGjzeGAAvgNeJsJr9"], "asm": "OP_HASH160 69f37738558bf6769a82aa1c6d97b919d5281c4d OP_EQUAL", "type": "scripthash"}, "value": 0.0725259, "n": 0}, {"scriptPubKey": {"reqSigs": 1, "hex": "a914f3ddca0059e5868580d7e9ddab5c7eccb60931aa87", "addresses": ["3PvTpLGw6AcM6YCUTQSeQjJ1bVVocTBseW"], "asm": "OP_HASH160 f3ddca0059e5868580d7e9ddab5c7eccb60931aa OP_EQUAL", "type": "scripthash"}, "value": 12.08727964, "n": 1}], "hex": "02000000000101bbb6c872055564caf0744aaa1adc6b8704b3ac305326a69e64612ba3730241e100000000171600147555b46e50950993e6b1fc7a96d6ed20b156a43dfeffffff026eaa6e000000000017a91469f37738558bf6769a82aa1c6d97b919d5281c4d879cb90b480000000017a914f3ddca0059e5868580d7e9ddab5c7eccb60931aa8702473044022004af569ad7e61ed1726f3d456082fdb4269d96ed0907de6445660e001273faa402203cb43738708f97630d86a5ae5f0ff83880b8fd214ebb8c71f0881aff5331116a0121029d1898f7898c26fa92b3b5dd2b53664f1122778790e9723fdd44d4bf33549d6517490800", "vin": [{"txinwitness": ["3044022004af569ad7e61ed1726f3d456082fdb4269d96ed0907de6445660e001273faa402203cb43738708f97630d86a5ae5f0ff83880b8fd214ebb8c71f0881aff5331116a01", "029d1898f7898c26fa92b3b5dd2b53664f1122778790e9723fdd44d4bf33549d65"], "sequence": 4294967294, "scriptSig": {"hex": "1600147555b46e50950993e6b1fc7a96d6ed20b156a43d", "asm": "00147555b46e50950993e6b1fc7a96d6ed20b156a43d"}, "vout": 0, "txid": "e1410273a32b61649ea6265330acb304876bdc1aaa4a74f0ca64550572c8b6bb"}], "txid": "ebe03cf760fd0c538bcccde52281891185111e9161fdcfde810b6834ba89fd08", "blocktime": 1537876114, "version": 2, "confirmations": 11459, "time": 1537876114, "locktime": 542999, "vsize": 166, "size": 247}