{"hash": "01c791a4e4ebeb3d9de03ff98a556119eab3161c38372119a56a2287e7ade449", "blockhash": "0000000000000000001e0dab787dd257d1dbfcb92a98c2207d5e1078be1f4165", "vout": [{"scriptPubKey": {"reqSigs": 1, "hex": "76a9149fa8d6ae25ae150f49b911376f3d9a4b81ca317188ac", "addresses": ["1FZChcWeeKPY8iL6JhZdYiQu11qE8hYZnm"], "asm": "OP_DUP OP_HASH160 9fa8d6ae25ae150f49b911376f3d9a4b81ca3171 OP_EQUALVERIFY OP_CHECKSIG", "type": "pubkeyhash"}, "value": 0.00023523, "n": 0}, {"scriptPubKey": {"reqSigs": 1, "hex": "a91408c364340a91e77e4376b26fdad3b5aedc5661f787", "addresses": ["32VMQ7Th4qGhbDYY68FZrfSF9hTbsPivgt"], "asm": "OP_HASH160 08c364340a91e77e4376b26fdad3b5aedc5661f7 OP_EQUAL", "type": "scripthash"}, "value": 0.03241961, "n": 1}], "hex": "010000000001019ee8ced42aa5ae7fd782a5d8c718eae5cc406986844440579a2a302b6ff32a13010000002322002027561ef61439ff4994ea3793249bbb358319edb59fff63c1eeada48f299e81b5ffffffff02e35b0000000000001976a9149fa8d6ae25ae150f49b911376f3d9a4b81ca317188ace97731000000000017a91408c364340a91e77e4376b26fdad3b5aedc5661f7870400483045022100ada73b93c4cee0f1dd164331be2385c377f49d723e280f5e982d790f735fd4b9022065a47feb049f93b3165f5c9fe569d2e72c7a498c9a8acec6c1100531887a52330147304402200b3bcbb6bfb0339701a217a345c6e2bb622a8470d0465d2bac9f17abb6b58d4402201c989af908b93bfc248507fa98b09235314cabe3576175bebb97fdf2251e68890147522102f484437eae67e7d1f9cf7235bd52510c99f379408a1f6fe737011d4bc259358a2103871fc2ca08e6950b38867e8e6a0e94ee625223d3aa0df5c65f414c6d784467e252ae00000000", "vin": [{"txinwitness": ["", "3045022100ada73b93c4cee0f1dd164331be2385c377f49d723e280f5e982d790f735fd4b9022065a47feb049f93b3165f5c9fe569d2e72c7a498c9a8acec6c1100531887a523301", "304402200b3bcbb6bfb0339701a217a345c6e2bb622a8470d0465d2bac9f17abb6b58d4402201c989af908b93bfc248507fa98b09235314cabe3576175bebb97fdf2251e688901", "522102f484437eae67e7d1f9cf7235bd52510c99f379408a1f6fe737011d4bc259358a2103871fc2ca08e6950b38867e8e6a0e94ee625223d3aa0df5c65f414c6d784467e252ae"], "sequence": 4294967295, "scriptSig": {"hex": "22002027561ef61439ff4994ea3793249bbb358319edb59fff63c1eeada48f299e81b5", "asm": "002027561ef61439ff4994ea3793249bbb358319edb59fff63c1eeada48f299e81b5"}, "vout": 1, "txid": "132af36f2b302a9a57404484866940cce5ea18c7d8a582d77faea52ad4cee89e"}], "txid": "ebe4a9570e8a106f4b770b7fd859a1e2cbe2d10495ef51f685fc208c398dac9d", "blocktime": 1537872475, "version": 1, "confirmations": 11487, "time": 1537872475, "locktime": 0, "vsize": 208, "size": 373}