{"hash": "ebe6fa57b830d33507935cdb80920040a14c857496430549e6809d161af483c3", "blockhash": "00000000000000000017f5eb5941039fbcee6240d03bc1f2f8e35350df66a1d8", "vout": [{"scriptPubKey": {"reqSigs": 1, "hex": "76a914c06309d35b4df7b97e14d139cc5e4ef8344a482888ac", "addresses": ["1JYFP93xbHvo6uehWWCVDUixohJ2z2JzKq"], "asm": "OP_DUP OP_HASH160 c06309d35b4df7b97e14d139cc5e4ef8344a4828 OP_EQUALVERIFY OP_CHECKSIG", "type": "pubkeyhash"}, "value": 0.07485, "n": 0}, {"scriptPubKey": {"reqSigs": 1, "hex": "76a914cebb2851a9c7cfe2582c12ecaf7f3ff4383d1dc088ac", "addresses": ["1Kr6QSydW9bFQG1mXiPNNu6WpJGmUa9i1g"], "asm": "OP_DUP OP_HASH160 cebb2851a9c7cfe2582c12ecaf7f3ff4383d1dc0 OP_EQUALVERIFY OP_CHECKSIG", "type": "pubkeyhash"}, "value": 173.95142956, "n": 1}], "hex": "0200000002f8992a9fe983823834762a4775e6eada1c18dc60460b75b7a7967405d7dab365020000006b483045022100dade940702993142d6f9cf39d8cbfd19981e8f51336d9b006fda56e4c0568849022036ae8076e617e413b591f5bbdf383473c4ea20befc0da4b153d8df5a9c417b3c012103786af4b32017ec640dba2d2a7e1fd5aa4a231a658e4cbc114d51c031576e19bcffffffff6d35bcae4b4264ac6a41c50125d2a9de293bb7271140cb0b2d71751c4e2cb374010000006b483045022100e39b25a33568505489f5430ed440ef6dde43acbf00c863e370a02443bcd6eeb302200787b6a8b34c04e1d4b718ab8f95cdfce73a28eb7a68da723f8a78630a09db72012103786af4b32017ec640dba2d2a7e1fd5aa4a231a658e4cbc114d51c031576e19bcffffffff0248367200000000001976a914c06309d35b4df7b97e14d139cc5e4ef8344a482888ac2cd1d40c040000001976a914cebb2851a9c7cfe2582c12ecaf7f3ff4383d1dc088ac00000000", "vin": [{"sequence": 4294967295, "scriptSig": {"hex": "483045022100dade940702993142d6f9cf39d8cbfd19981e8f51336d9b006fda56e4c0568849022036ae8076e617e413b591f5bbdf383473c4ea20befc0da4b153d8df5a9c417b3c012103786af4b32017ec640dba2d2a7e1fd5aa4a231a658e4cbc114d51c031576e19bc", "asm": "3045022100dade940702993142d6f9cf39d8cbfd19981e8f51336d9b006fda56e4c0568849022036ae8076e617e413b591f5bbdf383473c4ea20befc0da4b153d8df5a9c417b3c[ALL] 03786af4b32017ec640dba2d2a7e1fd5aa4a231a658e4cbc114d51c031576e19bc"}, "vout": 2, "txid": "65b3dad7057496a7b7750b4660dc181cdaeae675472a7634388283e99f2a99f8"}, {"sequence": 4294967295, "scriptSig": {"hex": "483045022100e39b25a33568505489f5430ed440ef6dde43acbf00c863e370a02443bcd6eeb302200787b6a8b34c04e1d4b718ab8f95cdfce73a28eb7a68da723f8a78630a09db72012103786af4b32017ec640dba2d2a7e1fd5aa4a231a658e4cbc114d51c031576e19bc", "asm": "3045022100e39b25a33568505489f5430ed440ef6dde43acbf00c863e370a02443bcd6eeb302200787b6a8b34c04e1d4b718ab8f95cdfce73a28eb7a68da723f8a78630a09db72[ALL] 03786af4b32017ec640dba2d2a7e1fd5aa4a231a658e4cbc114d51c031576e19bc"}, "vout": 1, "txid": "74b32c4e1c75712d0bcb401127b73b29dea9d22501c5416aac64424baebc356d"}], "txid": "ebe6fa57b830d33507935cdb80920040a14c857496430549e6809d161af483c3", "blocktime": 1537874412, "version": 2, "confirmations": 11467, "time": 1537874412, "locktime": 0, "vsize": 374, "size": 374}