{"hash": "ebe70c83f5ed63aa834c55855078999671cf768915903ed2c9875a0213c0963a", "blockhash": "0000000000000000000e13cef7c366c0283d82e591d1acd082e914b08063cdf1", "vout": [{"scriptPubKey": {"reqSigs": 1, "hex": "76a91431328b76efdc832bb0b87811bac0931f80954f4088ac", "addresses": ["15V8fK9LKLEsbXXHXoUCJ8cbpKwLZFfLeR"], "asm": "OP_DUP OP_HASH160 31328b76efdc832bb0b87811bac0931f80954f40 OP_EQUALVERIFY OP_CHECKSIG", "type": "pubkeyhash"}, "value": 0.00312476, "n": 0}, {"scriptPubKey": {"reqSigs": 1, "hex": "76a9142719883fdafe553beb9b722099c9c5ec4e8fa66288ac", "addresses": ["14ZjwVWBtzaixUeyUwtCc5BdHdDSRoVVhD"], "asm": "OP_DUP OP_HASH160 2719883fdafe553beb9b722099c9c5ec4e8fa662 OP_EQUALVERIFY OP_CHECKSIG", "type": "pubkeyhash"}, "value": 0.00742436, "n": 1}], "hex": "01000000017276567c8736d9c4b3025ed4f85cb75f6710b95a3f96795c5007211556d76f07010000006a473044022071cd5adbbd89cee28f3cd1621271569f7661de8d8066013baa6ee18684c0e9e1022046429723033bd4999463d7bc55180af4bc9349e78fea32f9c4b61fc3757a49d90121024f049e7823c0c4e1fb1e717a28921c66061d7c2ad2ac24681d44c36611d89842ffffffff029cc40400000000001976a91431328b76efdc832bb0b87811bac0931f80954f4088ac24540b00000000001976a9142719883fdafe553beb9b722099c9c5ec4e8fa66288ac00000000", "vin": [{"sequence": 4294967295, "scriptSig": {"hex": "473044022071cd5adbbd89cee28f3cd1621271569f7661de8d8066013baa6ee18684c0e9e1022046429723033bd4999463d7bc55180af4bc9349e78fea32f9c4b61fc3757a49d90121024f049e7823c0c4e1fb1e717a28921c66061d7c2ad2ac24681d44c36611d89842", "asm": "3044022071cd5adbbd89cee28f3cd1621271569f7661de8d8066013baa6ee18684c0e9e1022046429723033bd4999463d7bc55180af4bc9349e78fea32f9c4b61fc3757a49d9[ALL] 024f049e7823c0c4e1fb1e717a28921c66061d7c2ad2ac24681d44c36611d89842"}, "vout": 1, "txid": "076fd756152107505c79963f5ab910675fb75cf8d45e02b3c4d936877c567672"}], "txid": "ebe70c83f5ed63aa834c55855078999671cf768915903ed2c9875a0213c0963a", "blocktime": 1537871767, "version": 1, "confirmations": 11495, "time": 1537871767, "locktime": 0, "vsize": 225, "size": 225}