{"hash": "50d4f740364cdde5d6ba96126c85e915a751259223eee05433042b5ad7225419", "blockhash": "0000000000000000001cda96e906b7601b7a6fb1a3b62bca570a9e5d8f4b3de1", "vout": [{"scriptPubKey": {"reqSigs": 1, "hex": "76a914c38a23a67cff63bf69f4943bbbc9f71c0b2be59f88ac", "addresses": ["1JpvFVUU9pKL9M458T5MZfyh7TrN7fCkAc"], "asm": "OP_DUP OP_HASH160 c38a23a67cff63bf69f4943bbbc9f71c0b2be59f OP_EQUALVERIFY OP_CHECKSIG", "type": "pubkeyhash"}, "value": 0.00591491, "n": 0}, {"scriptPubKey": {"reqSigs": 1, "hex": "a914131544536e675003b55a8ccfdff7b191192d9dde87", "addresses": ["33RvEqb1njhsuQjjiy82iXufjJbPCkWJWk"], "asm": "OP_HASH160 131544536e675003b55a8ccfdff7b191192d9dde OP_EQUAL", "type": "scripthash"}, "value": 0.00075125, "n": 1}], "hex": "0100000000010165cf516eac7af22376bd91629f2e9f47c06a9ec1990819c8a3336559396cbc180100000023220020e5ad5c73ebca45837812f989ee57d12ae49e412a012d6600a281624f87fa7d61ffffffff0283060900000000001976a914c38a23a67cff63bf69f4943bbbc9f71c0b2be59f88ac752501000000000017a914131544536e675003b55a8ccfdff7b191192d9dde87040047304402204462746f78652e1309683267dbf922213e033e3c8791166c848f3a2dcb50c26a022078450c216e983ff751d530a054858b81142f023c3fbe64e3ac63ee75095a3d9501473044022063db64a383748d790b478bcb5fb20c732fe4717c9333b6afba7b0a3d3682c91302200b519ce9129692c55671bcbce018c64a55adee72f493ff7627c06a62f8f5b9ba016952210246092f9eeebbc0e234216c690408b6242b05d3e13cec0abc8b7f3f1d481629ad2102eeac8463a4f1a6f0e82dff1c789b7d7acfd83231fe4b0fded425efcee43c95762102eb779169fd648434965ad7302ae934abaca2c008aa791e791d64eb584f1e95c653ae00000000", "vin": [{"txinwitness": ["", "304402204462746f78652e1309683267dbf922213e033e3c8791166c848f3a2dcb50c26a022078450c216e983ff751d530a054858b81142f023c3fbe64e3ac63ee75095a3d9501", "3044022063db64a383748d790b478bcb5fb20c732fe4717c9333b6afba7b0a3d3682c91302200b519ce9129692c55671bcbce018c64a55adee72f493ff7627c06a62f8f5b9ba01", "52210246092f9eeebbc0e234216c690408b6242b05d3e13cec0abc8b7f3f1d481629ad2102eeac8463a4f1a6f0e82dff1c789b7d7acfd83231fe4b0fded425efcee43c95762102eb779169fd648434965ad7302ae934abaca2c008aa791e791d64eb584f1e95c653ae"], "sequence": 4294967295, "scriptSig": {"hex": "220020e5ad5c73ebca45837812f989ee57d12ae49e412a012d6600a281624f87fa7d61", "asm": "0020e5ad5c73ebca45837812f989ee57d12ae49e412a012d6600a281624f87fa7d61"}, "vout": 1, "txid": "18bc6c39596533a3c8190899c19e6ac0479f2e9f6291bd7623f27aac6e51cf65"}], "txid": "ebe9621b82175f33dc1c51f2528b9b4ba3907def42f507ecdd756a98358a8857", "blocktime": 1537873282, "version": 1, "confirmations": 11484, "time": 1537873282, "locktime": 0, "vsize": 216, "size": 406}