{"hash": "ebece0eba89107535cb6003fb3aa877a75ae69dfc7c14fcee6d8887c05a3e38a", "blockhash": "0000000000000000001cda96e906b7601b7a6fb1a3b62bca570a9e5d8f4b3de1", "vout": [{"scriptPubKey": {"reqSigs": 1, "hex": "76a91450b6d0628250f84694bb4179479071046c593fa588ac", "addresses": ["18Mn4VC63xMyY5J21ihnbMS93ZU57a4Fvh"], "asm": "OP_DUP OP_HASH160 50b6d0628250f84694bb4179479071046c593fa5 OP_EQUALVERIFY OP_CHECKSIG", "type": "pubkeyhash"}, "value": 0.01, "n": 0}, {"scriptPubKey": {"reqSigs": 1, "hex": "76a914b67b4b150bcf3f917cad15e92b7be901a362de7988ac", "addresses": ["1HdsgUuRMXQeQ7roxxVeGstkDC3VhfDGfx"], "asm": "OP_DUP OP_HASH160 b67b4b150bcf3f917cad15e92b7be901a362de79 OP_EQUALVERIFY OP_CHECKSIG", "type": "pubkeyhash"}, "value": 0.58992, "n": 1}], "hex": "01000000018953db9f4561dffa0eb61b59c6a1aaf0019b0882a068f1fecea8458fd0b95ba3010000006b483045022100855210bc87778ee5b1a39493ff5c2b3cae69f998bc02beac790650139411a12202207f3bedb4a35dd5365389abf622305331e458fd8dfc5dd9846ee8442069327057012103c15f73285ba1e3c6023f79c07b743ebfd511188c9237b1a8e4b6136ece1acf60ffffffff0240420f00000000001976a91450b6d0628250f84694bb4179479071046c593fa588ac80258403000000001976a914b67b4b150bcf3f917cad15e92b7be901a362de7988ac00000000", "vin": [{"sequence": 4294967295, "scriptSig": {"hex": "483045022100855210bc87778ee5b1a39493ff5c2b3cae69f998bc02beac790650139411a12202207f3bedb4a35dd5365389abf622305331e458fd8dfc5dd9846ee8442069327057012103c15f73285ba1e3c6023f79c07b743ebfd511188c9237b1a8e4b6136ece1acf60", "asm": "3045022100855210bc87778ee5b1a39493ff5c2b3cae69f998bc02beac790650139411a12202207f3bedb4a35dd5365389abf622305331e458fd8dfc5dd9846ee8442069327057[ALL] 03c15f73285ba1e3c6023f79c07b743ebfd511188c9237b1a8e4b6136ece1acf60"}, "vout": 1, "txid": "a35bb9d08f45a8cefef168a082089b01f0aaa1c6591bb60efadf61459fdb5389"}], "txid": "ebece0eba89107535cb6003fb3aa877a75ae69dfc7c14fcee6d8887c05a3e38a", "blocktime": 1537873282, "version": 1, "confirmations": 11481, "time": 1537873282, "locktime": 0, "vsize": 226, "size": 226}