{"hash": "55062d7b5b58a7bd91c711b65d9fb5dcdc3b035c5229b962833fc90efa4e2b17", "blockhash": "0000000000000000001f0ddff1eddb255c1121bcd4da4f1bc9a0da00cae72433", "vout": [{"scriptPubKey": {"reqSigs": 1, "hex": "a9146dc14f0841570971bd2d2bc7ceddeba530ead82287", "addresses": ["3BhM9n7QQTXGxVLBvXKrooBqXmY7dtvMfN"], "asm": "OP_HASH160 6dc14f0841570971bd2d2bc7ceddeba530ead822 OP_EQUAL", "type": "scripthash"}, "value": 0.090537, "n": 0}, {"scriptPubKey": {"reqSigs": 1, "hex": "a91464943856861d1f040e5d70a3a959f56ad6f9443687", "addresses": ["3Arq4EkHXvkLrQ5Bv4qvvDpZq6fR9dHx5B"], "asm": "OP_HASH160 64943856861d1f040e5d70a3a959f56ad6f94436 OP_EQUAL", "type": "scripthash"}, "value": 0.02721375, "n": 1}], "hex": "02000000000102936580312df9f02c5405916ae2d9fb041e35d893891d544b5c04a38941340a800000000017160014e4e9a0ac5e3c135bf187757ceff95579c5366a3bfdffffffa03960e8f8c7f76200702220f856a0f6ed0f137abb7c4670efe3778abeefd0ad0100000017160014c9a70eae4d32f08518c1ffe80dde84a78e1d971afdffffff0204268a000000000017a9146dc14f0841570971bd2d2bc7ceddeba530ead822875f8629000000000017a91464943856861d1f040e5d70a3a959f56ad6f94436870247304402207a15c5a702da921f74e8db4acc5bdd98fa4e5b0c79dae202050b7e80cffdd70e02200bd98f3e09ba8525de03a5129cc3767ebd7925487f4379b4d0385b2ce77da7320121026b87a1a70b0892050aec190ef5d5498d405c91e55d6f5446fb910b1e2eca8d77024830450221008062e19484f5b01cba86516afdacdcb65e9defde93f68636771fbf64de0063cb0220200d4f80c8ffeb9725ce4c92564dcd0a704dc23b972885e61651720aabb8b94301210208511582bcc5650e2736771fa37853a48170c82d3a15e5f7ecdcf1cd62b768ab11490800", "vin": [{"txinwitness": ["304402207a15c5a702da921f74e8db4acc5bdd98fa4e5b0c79dae202050b7e80cffdd70e02200bd98f3e09ba8525de03a5129cc3767ebd7925487f4379b4d0385b2ce77da73201", "026b87a1a70b0892050aec190ef5d5498d405c91e55d6f5446fb910b1e2eca8d77"], "sequence": 4294967293, "scriptSig": {"hex": "160014e4e9a0ac5e3c135bf187757ceff95579c5366a3b", "asm": "0014e4e9a0ac5e3c135bf187757ceff95579c5366a3b"}, "vout": 0, "txid": "800a344189a3045c4b541d8993d8351e04fbd9e26a9105542cf0f92d31806593"}, {"txinwitness": ["30450221008062e19484f5b01cba86516afdacdcb65e9defde93f68636771fbf64de0063cb0220200d4f80c8ffeb9725ce4c92564dcd0a704dc23b972885e61651720aabb8b94301", "0208511582bcc5650e2736771fa37853a48170c82d3a15e5f7ecdcf1cd62b768ab"], "sequence": 4294967293, "scriptSig": {"hex": "160014c9a70eae4d32f08518c1ffe80dde84a78e1d971a", "asm": "0014c9a70eae4d32f08518c1ffe80dde84a78e1d971a"}, "vout": 1, "txid": "add0efbe8a77e3ef70467cbb7a130fedf6a056f82022700062f7c7f8e86039a0"}], "txid": "ebee1933cd17be9569dd7b0e50295bc8bffce9bd10d48f5c9a776ff15dc42f28", "blocktime": 1537872018, "version": 2, "confirmations": 11489, "time": 1537872018, "locktime": 542993, "vsize": 257, "size": 419}