{"hash": "ebf169088ea0ee98333e0c304f2422876fa4df363cacfc27c36c1d15832bdecb", "blockhash": "00000000000000000018f53835495a110e01622372bf6ae95dc86f2b0ab887b0", "vout": [{"scriptPubKey": {"reqSigs": 1, "hex": "76a9149e42cf99bd119d73b481580c4db1ce779e3b789988ac", "addresses": ["1FRooR3xY3KWbqe8qqS7vw5ZRRyzZeJGbA"], "asm": "OP_DUP OP_HASH160 9e42cf99bd119d73b481580c4db1ce779e3b7899 OP_EQUALVERIFY OP_CHECKSIG", "type": "pubkeyhash"}, "value": 0.01501211, "n": 0}, {"scriptPubKey": {"reqSigs": 1, "hex": "76a91410eef67627aba9b8d398493239d9be35a0b9af0088ac", "addresses": ["12YY5VWdh98onmhJ2hrE1FXRMCrpS4jKvB"], "asm": "OP_DUP OP_HASH160 10eef67627aba9b8d398493239d9be35a0b9af00 OP_EQUALVERIFY OP_CHECKSIG", "type": "pubkeyhash"}, "value": 0.00036427, "n": 1}], "hex": "0100000001532a45165f3e5f3df502a6249f3653526b8b9d1c0d5c25a7cae415b275d51faa00000000da00483045022100831fb660718fa7441062fc29bfcc5be65250309a4d1078313eb23644e64ca2fc02203fcccce7bb632729c24ba3ecc4c06619239f9b43be3b3e81da484703174116aa01473044022027a0f104e1403e57b7c3ac837ea63bf84b186a929044c5bbab19175be747208302201c2585549f6d9f1f82eb65fb861385419063ab0831bbf457b687da5486d277e90147522102907a54bed8ad74b3f35638c60114ca240a308cb986f3f2f306178869a8880b61210294464a09ed7f7bc1a1de8ed991c4c5c70650266a432f518133a18e7bc76230a652aeffffffff021be81600000000001976a9149e42cf99bd119d73b481580c4db1ce779e3b789988ac4b8e0000000000001976a91410eef67627aba9b8d398493239d9be35a0b9af0088ac00000000", "vin": [{"sequence": 4294967295, "scriptSig": {"hex": "00483045022100831fb660718fa7441062fc29bfcc5be65250309a4d1078313eb23644e64ca2fc02203fcccce7bb632729c24ba3ecc4c06619239f9b43be3b3e81da484703174116aa01473044022027a0f104e1403e57b7c3ac837ea63bf84b186a929044c5bbab19175be747208302201c2585549f6d9f1f82eb65fb861385419063ab0831bbf457b687da5486d277e90147522102907a54bed8ad74b3f35638c60114ca240a308cb986f3f2f306178869a8880b61210294464a09ed7f7bc1a1de8ed991c4c5c70650266a432f518133a18e7bc76230a652ae", "asm": "0 3045022100831fb660718fa7441062fc29bfcc5be65250309a4d1078313eb23644e64ca2fc02203fcccce7bb632729c24ba3ecc4c06619239f9b43be3b3e81da484703174116aa[ALL] 3044022027a0f104e1403e57b7c3ac837ea63bf84b186a929044c5bbab19175be747208302201c2585549f6d9f1f82eb65fb861385419063ab0831bbf457b687da5486d277e9[ALL] 522102907a54bed8ad74b3f35638c60114ca240a308cb986f3f2f306178869a8880b61210294464a09ed7f7bc1a1de8ed991c4c5c70650266a432f518133a18e7bc76230a652ae"}, "vout": 0, "txid": "aa1fd575b215e4caa7255c0d1c9d8b6b5253369f24a602f53d5f3e5f16452a53"}], "txid": "ebf169088ea0ee98333e0c304f2422876fa4df363cacfc27c36c1d15832bdecb", "blocktime": 1537870928, "version": 1, "confirmations": 11512, "time": 1537870928, "locktime": 0, "vsize": 337, "size": 337}