{"hash": "ec019664b154b7a3680425a8fff6cf77ec1c33d9a4620c6f67898358f972231e", "blockhash": "0000000000000000001f0ddff1eddb255c1121bcd4da4f1bc9a0da00cae72433", "vout": [{"scriptPubKey": {"reqSigs": 1, "hex": "76a9140dd0bf8bf23fd468759d78a7cf3cbc3a92d1f3b088ac", "addresses": ["12G3raMQV1h565t2Y4EpMy4ZSBZCmXF96e"], "asm": "OP_DUP OP_HASH160 0dd0bf8bf23fd468759d78a7cf3cbc3a92d1f3b0 OP_EQUALVERIFY OP_CHECKSIG", "type": "pubkeyhash"}, "value": 0.01495486, "n": 0}, {"scriptPubKey": {"reqSigs": 1, "hex": "00143dcb17473c888f38c2a2a1aeeec56e4b956fe9b1", "addresses": ["bc1q8h93w3eu3z8n3s4z5xhwa3twfw2kl6d3k6tkcp"], "asm": "0 3dcb17473c888f38c2a2a1aeeec56e4b956fe9b1", "type": "witness_v0_keyhash"}, "value": 0.00241837, "n": 1}], "hex": "01000000017cb217c6c365006d74932651ebe727e725a82e0079a821fe3a67032f72bfaf9d310000006b483045022100ccffa2a82d452e5387ccdd1ceb84d94b38ff15d5c8a4eaef84b5ab63ca0c067b022051cb63b918945bccbe8376c400eae46ac273ca30a5bb63ddb6d318f3386c5fe30121021ace2bceeb3d35702bde110fd204c6a6a0ff11af3a563a109f2db453978b383bffffffff02bed11600000000001976a9140dd0bf8bf23fd468759d78a7cf3cbc3a92d1f3b088acadb00300000000001600143dcb17473c888f38c2a2a1aeeec56e4b956fe9b100000000", "vin": [{"sequence": 4294967295, "scriptSig": {"hex": "483045022100ccffa2a82d452e5387ccdd1ceb84d94b38ff15d5c8a4eaef84b5ab63ca0c067b022051cb63b918945bccbe8376c400eae46ac273ca30a5bb63ddb6d318f3386c5fe30121021ace2bceeb3d35702bde110fd204c6a6a0ff11af3a563a109f2db453978b383b", "asm": "3045022100ccffa2a82d452e5387ccdd1ceb84d94b38ff15d5c8a4eaef84b5ab63ca0c067b022051cb63b918945bccbe8376c400eae46ac273ca30a5bb63ddb6d318f3386c5fe3[ALL] 021ace2bceeb3d35702bde110fd204c6a6a0ff11af3a563a109f2db453978b383b"}, "vout": 49, "txid": "9dafbf722f03673afe21a879002ea825e727e7eb512693746d0065c3c617b27c"}], "txid": "ec019664b154b7a3680425a8fff6cf77ec1c33d9a4620c6f67898358f972231e", "blocktime": 1537872018, "version": 1, "confirmations": 11489, "time": 1537872018, "locktime": 0, "vsize": 223, "size": 223}