{"hash": "ec02aa2f88badeb373b96710dd37737a97da2f85196e67c6dc321b83ee9b49e6", "blockhash": "00000000000000000004ffacab907a6b429b9a5745fa0b75af4234bf69dd7176", "vout": [{"scriptPubKey": {"reqSigs": 1, "hex": "76a914d243e6abb9a60fbff430b421d2df4b7d59ec186088ac", "addresses": ["1LAnF8h3qMGx3TSwNUHVneBZUEpwE4gu3D"], "asm": "OP_DUP OP_HASH160 d243e6abb9a60fbff430b421d2df4b7d59ec1860 OP_EQUALVERIFY OP_CHECKSIG", "type": "pubkeyhash"}, "value": 0.00077314, "n": 0}, {"scriptPubKey": {"reqSigs": 1, "hex": "76a914e5772467f21b3db224d98173ca036225bbbd3b0388ac", "addresses": ["1MvJU5MhRVLUohq7M1CFQfyFcwSrkcBASR"], "asm": "OP_DUP OP_HASH160 e5772467f21b3db224d98173ca036225bbbd3b03 OP_EQUALVERIFY OP_CHECKSIG", "type": "pubkeyhash"}, "value": 5.46e-06, "n": 1}, {"scriptPubKey": {"type": "nulldata", "hex": "6a146f6d6e69000000000000001f00000004f79cfd50", "asm": "OP_RETURN 6f6d6e69000000000000001f00000004f79cfd50"}, "value": 0.0, "n": 2}], "hex": "010000000188694e751396618a0f942cc1874715a226d0d82e146b47ab73d69af697533770000000006b483045022100d1bd4c2bc9b95049d28e791575d18bb43b1307249e66929937a38988e943d8d30220022403a2e88e4d4474e6090a0295543c01030717d030f79820ddc2ed11f5205101210271977291b74f1f5f5c42157e8aae804664eaaeccfd097918450d37f28fb94d77ffffffff03022e0100000000001976a914d243e6abb9a60fbff430b421d2df4b7d59ec186088ac22020000000000001976a914e5772467f21b3db224d98173ca036225bbbd3b0388ac0000000000000000166a146f6d6e69000000000000001f00000004f79cfd5000000000", "vin": [{"sequence": 4294967295, "scriptSig": {"hex": "483045022100d1bd4c2bc9b95049d28e791575d18bb43b1307249e66929937a38988e943d8d30220022403a2e88e4d4474e6090a0295543c01030717d030f79820ddc2ed11f5205101210271977291b74f1f5f5c42157e8aae804664eaaeccfd097918450d37f28fb94d77", "asm": "3045022100d1bd4c2bc9b95049d28e791575d18bb43b1307249e66929937a38988e943d8d30220022403a2e88e4d4474e6090a0295543c01030717d030f79820ddc2ed11f52051[ALL] 0271977291b74f1f5f5c42157e8aae804664eaaeccfd097918450d37f28fb94d77"}, "vout": 0, "txid": "70375397f69ad673ab476b142ed8d026a2154787c12c940f8a619613754e6988"}], "txid": "ec02aa2f88badeb373b96710dd37737a97da2f85196e67c6dc321b83ee9b49e6", "blocktime": 1537875543, "version": 1, "confirmations": 11464, "time": 1537875543, "locktime": 0, "vsize": 257, "size": 257}