{"hash": "ec0a92ea5c250b070884dfbb6797b15c7c53da4b2add88acf27dd2f24d22b50e", "blockhash": "0000000000000000000baef3f32e3676a92c3b2e5da21b426e4f302fc371ce76", "vout": [{"scriptPubKey": {"reqSigs": 1, "hex": "a914fe1964e3976676aa0c60ace80128c91c091d3d5187", "addresses": ["3QrZygUuVHWfJBP393JucPgKXBFs28H3dD"], "asm": "OP_HASH160 fe1964e3976676aa0c60ace80128c91c091d3d51 OP_EQUAL", "type": "scripthash"}, "value": 0.0002, "n": 0}, {"scriptPubKey": {"reqSigs": 1, "hex": "76a914b47b33b5e7752d0c1eeec246924f331793df5bb888ac", "addresses": ["1HTJDkjr9coU1DpoGdb7vAYNAjE7x6C56d"], "asm": "OP_DUP OP_HASH160 b47b33b5e7752d0c1eeec246924f331793df5bb8 OP_EQUALVERIFY OP_CHECKSIG", "type": "pubkeyhash"}, "value": 0.00698532, "n": 1}], "hex": "0100000001f30c0a5071e6ad547207017aa3bb35a3bb95f25cc8cba042950066f7f9c14be30b0000006b48304502210092890acaab89ef2a844140abb7889264934156195546f0246492a11961e4b3990220530cd4af02da954f4d9b598edce01ee7036fe83e0218a6e75fb9652c2a85138f0121037487c14c4d7639195fb34fb3607405c9b8e8e9223d5359cded347e56e875ab7bffffffff02204e00000000000017a914fe1964e3976676aa0c60ace80128c91c091d3d5187a4a80a00000000001976a914b47b33b5e7752d0c1eeec246924f331793df5bb888ac00000000", "vin": [{"sequence": 4294967295, "scriptSig": {"hex": "48304502210092890acaab89ef2a844140abb7889264934156195546f0246492a11961e4b3990220530cd4af02da954f4d9b598edce01ee7036fe83e0218a6e75fb9652c2a85138f0121037487c14c4d7639195fb34fb3607405c9b8e8e9223d5359cded347e56e875ab7b", "asm": "304502210092890acaab89ef2a844140abb7889264934156195546f0246492a11961e4b3990220530cd4af02da954f4d9b598edce01ee7036fe83e0218a6e75fb9652c2a85138f[ALL] 037487c14c4d7639195fb34fb3607405c9b8e8e9223d5359cded347e56e875ab7b"}, "vout": 11, "txid": "e34bc1f9f766009542a0cbc85cf295bba335bba37a01077254ade671500a0cf3"}], "txid": "ec0a92ea5c250b070884dfbb6797b15c7c53da4b2add88acf27dd2f24d22b50e", "blocktime": 1537876114, "version": 1, "confirmations": 11460, "time": 1537876114, "locktime": 0, "vsize": 224, "size": 224}