{"hash": "d5b392a1989fad698ac409610b70b22ecde02c2bcf51fab12c0702420418404e", "blockhash": "0000000000000000000baef3f32e3676a92c3b2e5da21b426e4f302fc371ce76", "vout": [{"scriptPubKey": {"reqSigs": 1, "hex": "001494854f610205d34a711725282487300b6c8eb635", "addresses": ["bc1qjjz57cgzqhf55ughy55zfpespdkgad34674t5v"], "asm": "0 94854f610205d34a711725282487300b6c8eb635", "type": "witness_v0_keyhash"}, "value": 11.81274765, "n": 0}, {"scriptPubKey": {"reqSigs": 1, "hex": "76a91467bce8a50414cf0a93a55991730db16949c2de9388ac", "addresses": ["1ATWuNT8hyZbG1MSnkjznUhz5vRv59uBsE"], "asm": "OP_DUP OP_HASH160 67bce8a50414cf0a93a55991730db16949c2de93 OP_EQUALVERIFY OP_CHECKSIG", "type": "pubkeyhash"}, "value": 0.04287289, "n": 1}], "hex": "02000000000101871f68d03a4c28461b8a2fbdb33d024e29734885f5edecb74b02ee4f74bca9fe0100000000ffffffff028dd268460000000016001494854f610205d34a711725282487300b6c8eb635396b4100000000001976a91467bce8a50414cf0a93a55991730db16949c2de9388ac02483045022100eea767b153a7f4df854f3f9aa7c7e2cc39aa94e39e6553b2b0ebc69ccf55cbcc0220245d970ae4c20f69188ebc25f974b9f911a52cffad664f5105b1c3ac62938e8f012102aadce4ede9bb35e1f6fd1a05623df0bf54cff5346aec61aeb4ff3f47daa4ae4800000000", "vin": [{"txinwitness": ["3045022100eea767b153a7f4df854f3f9aa7c7e2cc39aa94e39e6553b2b0ebc69ccf55cbcc0220245d970ae4c20f69188ebc25f974b9f911a52cffad664f5105b1c3ac62938e8f01", "02aadce4ede9bb35e1f6fd1a05623df0bf54cff5346aec61aeb4ff3f47daa4ae48"], "sequence": 4294967295, "scriptSig": {"hex": "", "asm": ""}, "vout": 1, "txid": "fea9bc744fee024bb7ecedf5854873294e023db3bd2f8a1b46284c3ad0681f87"}], "txid": "ec0bb3e23560c2764ca439808489ccf7507f3e4e8b8aecc6429557d58a898c92", "blocktime": 1537876114, "version": 2, "confirmations": 11460, "time": 1537876114, "locktime": 0, "vsize": 144, "size": 226}