{"hash": "8d909670d9668489aaeb0ac5e4b26a8e9709b33dc2a13a9965bb94c83ad6ffb5", "blockhash": "00000000000000000018f53835495a110e01622372bf6ae95dc86f2b0ab887b0", "vout": [{"scriptPubKey": {"reqSigs": 1, "hex": "a9148c301afa6be995d6f04e6f54991bc890ab9359dc87", "addresses": ["3EUG9pYxzXKPJTzouetDoRTDpPG83ShsVv"], "asm": "OP_HASH160 8c301afa6be995d6f04e6f54991bc890ab9359dc OP_EQUAL", "type": "scripthash"}, "value": 0.0056174, "n": 0}, {"scriptPubKey": {"reqSigs": 1, "hex": "a914146446d853f4b7153fa194428484d460945c269c87", "addresses": ["33YqZjJxSaXMhojhpNLA8vm7NZaGctNiBJ"], "asm": "OP_HASH160 146446d853f4b7153fa194428484d460945c269c OP_EQUAL", "type": "scripthash"}, "value": 0.0021356, "n": 1}, {"scriptPubKey": {"reqSigs": 1, "hex": "a91474e61470fedeb2500d8b7aa3cc14fd6704a4f9b487", "addresses": ["3CM7w2MsCPo6W3mSveLxhFFcXptBHHSUaX"], "asm": "OP_HASH160 74e61470fedeb2500d8b7aa3cc14fd6704a4f9b4 OP_EQUAL", "type": "scripthash"}, "value": 0.0014236, "n": 2}, {"scriptPubKey": {"reqSigs": 1, "hex": "a91470cafc44ea928ef9e332f45f20d69b0fe5377b9287", "addresses": ["3ByQmhkftX3iBNoKZ4hSBEJj67JufiURQw"], "asm": "OP_HASH160 70cafc44ea928ef9e332f45f20d69b0fe5377b92 OP_EQUAL", "type": "scripthash"}, "value": 0.00198228, "n": 3}, {"scriptPubKey": {"reqSigs": 1, "hex": "a914c0e44cdc567f588e60be1d3b0b6c8bb2ace7259a87", "addresses": ["3KGw9xGh6dE4msaBCQAuJMoZzc9rbLzXpt"], "asm": "OP_HASH160 c0e44cdc567f588e60be1d3b0b6c8bb2ace7259a OP_EQUAL", "type": "scripthash"}, "value": 0.0018146, "n": 4}, {"scriptPubKey": {"reqSigs": 1, "hex": "a9143ca10f5746ee815262026b8d94b3ccdd40a17f3b87", "addresses": ["37DbQhAoqiLKBXKiHPZPBHsNZUccVwMWEb"], "asm": "OP_HASH160 3ca10f5746ee815262026b8d94b3ccdd40a17f3b OP_EQUAL", "type": "scripthash"}, "value": 0.0025616, "n": 5}, {"scriptPubKey": {"reqSigs": 1, "hex": "a91488f4ffe4d07b31c972fa3db655da5d97eb62a1fe87", "addresses": ["3EBBKW5zSsH7xKvBj9CrJ9CC5GyAESVfcy"], "asm": "OP_HASH160 88f4ffe4d07b31c972fa3db655da5d97eb62a1fe OP_EQUAL", "type": "scripthash"}, "value": 0.02028774, "n": 6}, {"scriptPubKey": {"reqSigs": 1, "hex": "a91434ea9be56ec7f767d4c5666f04bcd5dd050fdea087", "addresses": ["36Wp7SEgeWPJrcJvjh5bkwGAsPbWnVbpGa"], "asm": "OP_HASH160 34ea9be56ec7f767d4c5666f04bcd5dd050fdea0 OP_EQUAL", "type": "scripthash"}, "value": 1.87392244, "n": 7}, {"scriptPubKey": {"reqSigs": 1, "hex": "a91476783d7cfc4e59c83c1d68aaf689b57a1dfaf6e187", "addresses": ["3CVRhcbQzdzj42qTVs6AYm9NPjXZBkbFzZ"], "asm": "OP_HASH160 76783d7cfc4e59c83c1d68aaf689b57a1dfaf6e1 OP_EQUAL", "type": "scripthash"}, "value": 0.00794088, "n": 8}, {"scriptPubKey": {"reqSigs": 1, "hex": "a9149626a371c1cddd9d1d6982aba24a4662d488dc7487", "addresses": ["3FNwZxwCTBstivHYCUEjV4Q63zSTU5DQme"], "asm": "OP_HASH160 9626a371c1cddd9d1d6982aba24a4662d488dc74 OP_EQUAL", "type": "scripthash"}, "value": 0.0025616, "n": 9}, {"scriptPubKey": {"reqSigs": 1, "hex": "a914be459d97de83f4fb3440b322c43fa9900e71e24187", "addresses": ["3K35hy71mudud1RPsJWh1bmQBLvPmDiHkS"], "asm": "OP_HASH160 be459d97de83f4fb3440b322c43fa9900e71e241 OP_EQUAL", "type": "scripthash"}, "value": 0.0025616, "n": 10}, {"scriptPubKey": {"reqSigs": 1, "hex": "76a914628272b2e9689773a63a54c8c3985b22e279694b88ac", "addresses": ["19ysVVKYFM8v13qKLduVuL56fzkEyG1osp"], "asm": "OP_DUP OP_HASH160 628272b2e9689773a63a54c8c3985b22e279694b OP_EQUALVERIFY OP_CHECKSIG", "type": "pubkeyhash"}, "value": 0.00285539, "n": 11}, {"scriptPubKey": {"reqSigs": 1, "hex": "a914419be4be9a4f1809440cf3d74adc9f0f574e4e4d87", "addresses": ["37fvbghg6Lwk8PfnxR7H1h1dsJLCc9BBem"], "asm": "OP_HASH160 419be4be9a4f1809440cf3d74adc9f0f574e4e4d OP_EQUAL", "type": "scripthash"}, "value": 0.00430809, "n": 12}, {"scriptPubKey": {"reqSigs": 1, "hex": "76a914b9cbb4d412a7fa32c2896ba3884fd033ad85223b88ac", "addresses": ["1HwQ3Fmt1BtMZhrQyZJyqiQovKVZ6A46Mb"], "asm": "OP_DUP OP_HASH160 b9cbb4d412a7fa32c2896ba3884fd033ad85223b OP_EQUALVERIFY OP_CHECKSIG", "type": "pubkeyhash"}, "value": 0.0012, "n": 13}], "hex": "02000000000101343faa24f98ffb793e5a1475e2e85607929536c652583b62488b5fc4527a10c80900000017160014799779fe7b020dd4e6dd4f649a48d4a184a46892feffffff0e4c9208000000000017a9148c301afa6be995d6f04e6f54991bc890ab9359dc87384203000000000017a914146446d853f4b7153fa194428484d460945c269c87182c02000000000017a91474e61470fedeb2500d8b7aa3cc14fd6704a4f9b487540603000000000017a91470cafc44ea928ef9e332f45f20d69b0fe5377b9287d4c402000000000017a914c0e44cdc567f588e60be1d3b0b6c8bb2ace7259a87a0e803000000000017a9143ca10f5746ee815262026b8d94b3ccdd40a17f3b87e6f41e000000000017a91488f4ffe4d07b31c972fa3db655da5d97eb62a1fe87f4602b0b0000000017a91434ea9be56ec7f767d4c5666f04bcd5dd050fdea087e81d0c000000000017a91476783d7cfc4e59c83c1d68aaf689b57a1dfaf6e187a0e803000000000017a9149626a371c1cddd9d1d6982aba24a4662d488dc7487a0e803000000000017a914be459d97de83f4fb3440b322c43fa9900e71e24187635b0400000000001976a914628272b2e9689773a63a54c8c3985b22e279694b88acd99206000000000017a914419be4be9a4f1809440cf3d74adc9f0f574e4e4d87c0d40100000000001976a914b9cbb4d412a7fa32c2896ba3884fd033ad85223b88ac0247304402200f9b307b61bfacbba41ede7c382ec91af5e71ae1c9d8e5d9fd5fa0b001a0807c022076bb038106604dbb25580ade33f38f930bdd783c874319fbd107e100be9b863f0121032dfc3f7ccc5fa5ae69987ee452227df9ae8562bc81e69da5a74acfae023007180e490800", "vin": [{"txinwitness": ["304402200f9b307b61bfacbba41ede7c382ec91af5e71ae1c9d8e5d9fd5fa0b001a0807c022076bb038106604dbb25580ade33f38f930bdd783c874319fbd107e100be9b863f01", "032dfc3f7ccc5fa5ae69987ee452227df9ae8562bc81e69da5a74acfae02300718"], "sequence": 4294967294, "scriptSig": {"hex": "160014799779fe7b020dd4e6dd4f649a48d4a184a46892", "asm": "0014799779fe7b020dd4e6dd4f649a48d4a184a46892"}, "vout": 9, "txid": "c8107a52c45f8b48623b5852c63695920756e8e275145a3e79fb8ff924aa3f34"}], "txid": "ec0c674b0cad3fea8b2bb940432c1208b1bbe3c518ff0740772882d9d3dbeba5", "blocktime": 1537870928, "version": 2, "confirmations": 11512, "time": 1537870928, "locktime": 542990, "vsize": 554, "size": 635}