{"hash": "6b97be8af0fece9cf5b5af3de3202552d5b703d8768e2162c1a4b72da79c1be6", "blockhash": "000000000000000000022b45ed06c6f4ccd3cf7fb5ba4856ebd2e58215665228", "vout": [{"scriptPubKey": {"reqSigs": 1, "hex": "a914728d67e0981d4beb7464b9cd329d0ee4c5da2d3687", "addresses": ["3C8iMTVgtvQHuG3WyTvnAqVUzc4eA7256b"], "asm": "OP_HASH160 728d67e0981d4beb7464b9cd329d0ee4c5da2d36 OP_EQUAL", "type": "scripthash"}, "value": 0.0147521, "n": 0}, {"scriptPubKey": {"reqSigs": 1, "hex": "76a91439fe4436230c31fe66439453b5e09240f0091c8988ac", "addresses": ["16He7gGfzeJPRPdUM4hQWdLQkxs1gcpmvJ"], "asm": "OP_DUP OP_HASH160 39fe4436230c31fe66439453b5e09240f0091c89 OP_EQUALVERIFY OP_CHECKSIG", "type": "pubkeyhash"}, "value": 0.1396806, "n": 1}], "hex": "020000000001033be76bf5cee22f69288a764ffc6ee19c2d566697a8d6e3cb7dd3af0060cfa5e20100000017160014bd6b31242a9c3997f0b7f9989cde4bba14c647c1fdffffff466c073787b4e34a40e0015552894cf780ce5dda8880d597dc0dbad002e96db700000000171600146a0646349dfb2ec6ff39118a22c7c4f534399911fdffffff6fa7d885408599e55100a30975fd4f35ff4904bdc5266d3ab5b4bfebedf4f5b900000000171600142a18e5d4e7ffebf43de134676d7a814fcf2f97c6fdffffff028a8216000000000017a914728d67e0981d4beb7464b9cd329d0ee4c5da2d3687bc22d500000000001976a91439fe4436230c31fe66439453b5e09240f0091c8988ac0247304402202a9f1f40a72d21ab36a4f47135ba008422e445f1d87e7bf2bb0b99ac5eca238f0220310f72ce0eba3b5fd0cb4d91586c9f672104b0783dda88edacb9b7e166c9a99e012102b99017f8bafd1e21630ecdd221985796f5b3f00a77e969ce11b4bdade99fba3d02483045022100d00e4ad61b7099ebea55f73797bb7b7f7bd6db304ae33968933334bf2c74c0700220263a9ba21a88bb22954d781858537314e03b4828fcecc3033126184a59ae8d80012103cf9f24416be40b7cfe6013b511467e6caacff0d90614f0c79403070cd597bba5024730440220589859e0347abafcedd511d5e9479a8d9044b4db23327a931029dee6e5d835780220400d6640da1d2da9318e85406a7e27183e0d489db17a5ecee3851fae5fffee380121028c22f88be3d5f6efef718d182f47e302c71de206d089789961d968d46460fd110b490800", "vin": [{"txinwitness": ["304402202a9f1f40a72d21ab36a4f47135ba008422e445f1d87e7bf2bb0b99ac5eca238f0220310f72ce0eba3b5fd0cb4d91586c9f672104b0783dda88edacb9b7e166c9a99e01", "02b99017f8bafd1e21630ecdd221985796f5b3f00a77e969ce11b4bdade99fba3d"], "sequence": 4294967293, "scriptSig": {"hex": "160014bd6b31242a9c3997f0b7f9989cde4bba14c647c1", "asm": "0014bd6b31242a9c3997f0b7f9989cde4bba14c647c1"}, "vout": 1, "txid": "e2a5cf6000afd37dcbe3d6a89766562d9ce16efc4f768a28692fe2cef56be73b"}, {"txinwitness": ["3045022100d00e4ad61b7099ebea55f73797bb7b7f7bd6db304ae33968933334bf2c74c0700220263a9ba21a88bb22954d781858537314e03b4828fcecc3033126184a59ae8d8001", "03cf9f24416be40b7cfe6013b511467e6caacff0d90614f0c79403070cd597bba5"], "sequence": 4294967293, "scriptSig": {"hex": "1600146a0646349dfb2ec6ff39118a22c7c4f534399911", "asm": "00146a0646349dfb2ec6ff39118a22c7c4f534399911"}, "vout": 0, "txid": "b76de902d0ba0ddc97d58088da5dce80f74c89525501e0404ae3b48737076c46"}, {"txinwitness": ["30440220589859e0347abafcedd511d5e9479a8d9044b4db23327a931029dee6e5d835780220400d6640da1d2da9318e85406a7e27183e0d489db17a5ecee3851fae5fffee3801", "028c22f88be3d5f6efef718d182f47e302c71de206d089789961d968d46460fd11"], "sequence": 4294967293, "scriptSig": {"hex": "1600142a18e5d4e7ffebf43de134676d7a814fcf2f97c6", "asm": "00142a18e5d4e7ffebf43de134676d7a814fcf2f97c6"}, "vout": 0, "txid": "b9f5f4edebbfb4b53a6d26c5bd0449ff354ffd7509a30051e599854085d8a76f"}], "txid": "ec0fad97d3bfdb982dacf167bd05ed9ac9af172e4bf96b7cb8413b7435a8fd4d", "blocktime": 1537869901, "version": 2, "confirmations": 11522, "time": 1537869901, "locktime": 542987, "vsize": 349, "size": 592}