{"hash": "0a95f26274961ebfcfacd181e24ea5aaf52e9da1cdb68b63c1c5a6848b7c220a", "blockhash": "0000000000000000000dcc0f55137456b1a82d3642486a52398922ac4d620174", "vout": [{"scriptPubKey": {"reqSigs": 1, "hex": "76a91483b68ae9d4c25019865a18fd8437e46bb92175d188ac", "addresses": ["1D1SCR23aYKDX8tSYnnETBxyWEiLcGba2s"], "asm": "OP_DUP OP_HASH160 83b68ae9d4c25019865a18fd8437e46bb92175d1 OP_EQUALVERIFY OP_CHECKSIG", "type": "pubkeyhash"}, "value": 0.004, "n": 0}, {"scriptPubKey": {"reqSigs": 1, "hex": "a914627aa52932456d89054bd84f86246af3b71b93a887", "addresses": ["3Afj4stdiLG9EktGrMbm252ySonnhYaz8v"], "asm": "OP_HASH160 627aa52932456d89054bd84f86246af3b71b93a8 OP_EQUAL", "type": "scripthash"}, "value": 0.6200708, "n": 1}], "hex": "01000000000101ee2252bebc8d6b508432c2652acfbd84ed3cc56d33923947cc927472f36bab4f01000000232200205fdd641234b13964b223bd85ad2a4a667ca2099df3d42a1d3b45706a8d81abf0ffffffff02801a0600000000001976a91483b68ae9d4c25019865a18fd8437e46bb92175d188ac2827b2030000000017a914627aa52932456d89054bd84f86246af3b71b93a8870400483045022100a599a735bc992586a6a2ffa3b402323c7ea03dfb03db6395ed89315807bb43c902204a4dba5af316589a0c4ac6232c088cd3f95f1fa22ca021ca4d44a58d48604cb801473044022055c9a1588260a4f0273141e4905cd26c550e6f5a8311c03dbd8d82d1271e3e81022042ee2c513437493d8f6529fa5469d92b5351ba24920f4c41bb3682bb9ea224490147522103dcde3832fa56def7b4e783faad1b8af85c3cdd74a5ff4f3c7c216b1075c18da12103c70ae8ded79be1afda73b9ce5ea14a3878908ee160d66a9a717e792bb6db276952ae00000000", "vin": [{"txinwitness": ["", "3045022100a599a735bc992586a6a2ffa3b402323c7ea03dfb03db6395ed89315807bb43c902204a4dba5af316589a0c4ac6232c088cd3f95f1fa22ca021ca4d44a58d48604cb801", "3044022055c9a1588260a4f0273141e4905cd26c550e6f5a8311c03dbd8d82d1271e3e81022042ee2c513437493d8f6529fa5469d92b5351ba24920f4c41bb3682bb9ea2244901", "522103dcde3832fa56def7b4e783faad1b8af85c3cdd74a5ff4f3c7c216b1075c18da12103c70ae8ded79be1afda73b9ce5ea14a3878908ee160d66a9a717e792bb6db276952ae"], "sequence": 4294967295, "scriptSig": {"hex": "2200205fdd641234b13964b223bd85ad2a4a667ca2099df3d42a1d3b45706a8d81abf0", "asm": "00205fdd641234b13964b223bd85ad2a4a667ca2099df3d42a1d3b45706a8d81abf0"}, "vout": 1, "txid": "4fab6bf3727492cc473992336dc53ced84bdcf2a65c23284506b8dbcbe5222ee"}], "txid": "ec127dc1e17efc583a74e72d16523470d699001b5528d99bad43cc2241611fd5", "blocktime": 1537870268, "version": 1, "confirmations": 11518, "time": 1537870268, "locktime": 0, "vsize": 208, "size": 373}