{"hash": "ec146d22cdeecff92a95cfc79950c45d3ff26057b804cbc11f43ac91d2937de2", "blockhash": "0000000000000000001cda96e906b7601b7a6fb1a3b62bca570a9e5d8f4b3de1", "vout": [{"scriptPubKey": {"reqSigs": 1, "hex": "a9141c5caa13f22c2e3a4d0305386a644f27d1f522f487", "addresses": ["34GyrM9DkQzo9WwVxnowhfrDrDW7iAMbW7"], "asm": "OP_HASH160 1c5caa13f22c2e3a4d0305386a644f27d1f522f4 OP_EQUAL", "type": "scripthash"}, "value": 0.00171819, "n": 0}], "hex": "01000000058b64efc90502c14ec8446972c4eb9f128c1d4994d11c93ee05c989c638780b4a460100006a47304402205d494cd4337d294be8107a900f98495cbd5f43fe585db061910314c2b2c06794022024f7e17d6c17f9e76d8c908c04897153ce8cc912fd9dea7fff1059102e15ac03012103f7a1d81fe4152cd4f1768bbf596904c28f2c9b904bc67a1cc7852a34c0c429feffffffffd0c4f5b4fc9134df8ac705c981adc009492ca50e2f58d651516b6dc476193b74000000006b483045022100b70adbc47f3a96eb8feccba8f10e1fa261c333ea9557cc36e9077015f913c4c80220679757beb3076b13b07ecbc2b753293916cffc6ed7a2523b9965ffc6e2257d78012103eabc3b49d3e582af75c451cb45c37fa80879d750234b310a26e23f54d7861d02ffffffff434fa42aa5c7510d3eaa01d0518c16517553f9c8be91e0bedf8d4c3edb172093000000006b483045022100a6933a2316541f8b2cb5c1b5da1440d5e56c163fe0ab2479dccc35b93b5a9c8c0220210a70a9e186ed756a1f1bffc7c3564a3eea2553f48fa2af60c1fc33987617610121034f2edbea6e0e642674fc7e43e0f5d6923aaf20d23ce9c38eeb53b81e947647b7ffffffffa0d618d03f87a05efed6a193f2a3a31b40f0f782de77f66891a646225dab94b2000000006a473044022071788f2c30f3bfde988821dd3a5330603df253f12de13c7eb957306a152223730220071433d4b8dc8a964e5a3cca538beac5a8311ec08140174ff21195e2bff852ac012103b5d8a70a0f09136d4b3f6c1227ccd1ed785cf98e2829c46144ec9471e7ae1c02ffffffff729a3635a1ccaeb51b7425b71d9b114375dda74672ad8f15e04d960b807eb1d6000000006b483045022100d561b9b8873b717bf407b892aab3604bb9fed001004679e5266239983df1bec60220798a3520bd96ab09963d8348ab13b55d96601247ff6cace89b2dbb4ab34d9c020121027a49701aeeeb8011c79a3433bf847227b56d0abb4386f483fd5809af9afdb33cffffffff012b9f02000000000017a9141c5caa13f22c2e3a4d0305386a644f27d1f522f48700000000", "vin": [{"sequence": 4294967295, "scriptSig": {"hex": "47304402205d494cd4337d294be8107a900f98495cbd5f43fe585db061910314c2b2c06794022024f7e17d6c17f9e76d8c908c04897153ce8cc912fd9dea7fff1059102e15ac03012103f7a1d81fe4152cd4f1768bbf596904c28f2c9b904bc67a1cc7852a34c0c429fe", "asm": "304402205d494cd4337d294be8107a900f98495cbd5f43fe585db061910314c2b2c06794022024f7e17d6c17f9e76d8c908c04897153ce8cc912fd9dea7fff1059102e15ac03[ALL] 03f7a1d81fe4152cd4f1768bbf596904c28f2c9b904bc67a1cc7852a34c0c429fe"}, "vout": 326, "txid": "4a0b7838c689c905ee931cd194491d8c129febc4726944c84ec10205c9ef648b"}, {"sequence": 4294967295, "scriptSig": {"hex": "483045022100b70adbc47f3a96eb8feccba8f10e1fa261c333ea9557cc36e9077015f913c4c80220679757beb3076b13b07ecbc2b753293916cffc6ed7a2523b9965ffc6e2257d78012103eabc3b49d3e582af75c451cb45c37fa80879d750234b310a26e23f54d7861d02", "asm": "3045022100b70adbc47f3a96eb8feccba8f10e1fa261c333ea9557cc36e9077015f913c4c80220679757beb3076b13b07ecbc2b753293916cffc6ed7a2523b9965ffc6e2257d78[ALL] 03eabc3b49d3e582af75c451cb45c37fa80879d750234b310a26e23f54d7861d02"}, "vout": 0, "txid": "743b1976c46d6b5151d6582f0ea52c4909c0ad81c905c78adf3491fcb4f5c4d0"}, {"sequence": 4294967295, "scriptSig": {"hex": "483045022100a6933a2316541f8b2cb5c1b5da1440d5e56c163fe0ab2479dccc35b93b5a9c8c0220210a70a9e186ed756a1f1bffc7c3564a3eea2553f48fa2af60c1fc33987617610121034f2edbea6e0e642674fc7e43e0f5d6923aaf20d23ce9c38eeb53b81e947647b7", "asm": "3045022100a6933a2316541f8b2cb5c1b5da1440d5e56c163fe0ab2479dccc35b93b5a9c8c0220210a70a9e186ed756a1f1bffc7c3564a3eea2553f48fa2af60c1fc3398761761[ALL] 034f2edbea6e0e642674fc7e43e0f5d6923aaf20d23ce9c38eeb53b81e947647b7"}, "vout": 0, "txid": "932017db3e4c8ddfbee091bec8f9537551168c51d001aa3e0d51c7a52aa44f43"}, {"sequence": 4294967295, "scriptSig": {"hex": "473044022071788f2c30f3bfde988821dd3a5330603df253f12de13c7eb957306a152223730220071433d4b8dc8a964e5a3cca538beac5a8311ec08140174ff21195e2bff852ac012103b5d8a70a0f09136d4b3f6c1227ccd1ed785cf98e2829c46144ec9471e7ae1c02", "asm": "3044022071788f2c30f3bfde988821dd3a5330603df253f12de13c7eb957306a152223730220071433d4b8dc8a964e5a3cca538beac5a8311ec08140174ff21195e2bff852ac[ALL] 03b5d8a70a0f09136d4b3f6c1227ccd1ed785cf98e2829c46144ec9471e7ae1c02"}, "vout": 0, "txid": "b294ab5d2246a69168f677de82f7f0401ba3a3f293a1d6fe5ea0873fd018d6a0"}, {"sequence": 4294967295, "scriptSig": {"hex": "483045022100d561b9b8873b717bf407b892aab3604bb9fed001004679e5266239983df1bec60220798a3520bd96ab09963d8348ab13b55d96601247ff6cace89b2dbb4ab34d9c020121027a49701aeeeb8011c79a3433bf847227b56d0abb4386f483fd5809af9afdb33c", "asm": "3045022100d561b9b8873b717bf407b892aab3604bb9fed001004679e5266239983df1bec60220798a3520bd96ab09963d8348ab13b55d96601247ff6cace89b2dbb4ab34d9c02[ALL] 027a49701aeeeb8011c79a3433bf847227b56d0abb4386f483fd5809af9afdb33c"}, "vout": 0, "txid": "d6b17e800b964de0158fad7246a7dd7543119b1db725741bb5aecca135369a72"}], "txid": "ec146d22cdeecff92a95cfc79950c45d3ff26057b804cbc11f43ac91d2937de2", "blocktime": 1537873282, "version": 1, "confirmations": 11484, "time": 1537873282, "locktime": 0, "vsize": 780, "size": 780}