{"hash": "ec143592550bf12720fc570f56ae63ab940c4d9ce5c54654150ec3c9cf5330ad", "blockhash": "0000000000000000001cda96e906b7601b7a6fb1a3b62bca570a9e5d8f4b3de1", "vout": [{"scriptPubKey": {"reqSigs": 1, "hex": "001406897585d8be0c7f928d4e6b8f3dfd11d066e3d9", "addresses": ["bc1qq6yhtpwchcx8ly5dfe4c700az8gxdc7enugduu"], "asm": "0 06897585d8be0c7f928d4e6b8f3dfd11d066e3d9", "type": "witness_v0_keyhash"}, "value": 0.01170434, "n": 0}, {"scriptPubKey": {"reqSigs": 1, "hex": "a914c238b0dc0379b21fe9d40d7fb4efe7e062be7ac587", "addresses": ["3KPxvi4CTzmAfdwYfnqyYsozXeHhh6gH1N"], "asm": "OP_HASH160 c238b0dc0379b21fe9d40d7fb4efe7e062be7ac5 OP_EQUAL", "type": "scripthash"}, "value": 0.05, "n": 1}], "hex": "010000000194eb6a15e474486684380785586a0eb55c602e2de0368955682f451688bd1c075a0000006b483045022100ae5c6f6959fa9b06080702a5aff6f7273c4af69446e9c8e673d383a8611649b7022046ffc907cde3124608b1ec4e0f6f41bd3a3d018fe9f5d80f956aaf6a0a21362b0121032c1f155b4e8ed20e1a79b92b0171a2eda48a1e2fc69dbedfd1ef917ff466332fffffffff0202dc11000000000016001406897585d8be0c7f928d4e6b8f3dfd11d066e3d9404b4c000000000017a914c238b0dc0379b21fe9d40d7fb4efe7e062be7ac58700000000", "vin": [{"sequence": 4294967295, "scriptSig": {"hex": "483045022100ae5c6f6959fa9b06080702a5aff6f7273c4af69446e9c8e673d383a8611649b7022046ffc907cde3124608b1ec4e0f6f41bd3a3d018fe9f5d80f956aaf6a0a21362b0121032c1f155b4e8ed20e1a79b92b0171a2eda48a1e2fc69dbedfd1ef917ff466332f", "asm": "3045022100ae5c6f6959fa9b06080702a5aff6f7273c4af69446e9c8e673d383a8611649b7022046ffc907cde3124608b1ec4e0f6f41bd3a3d018fe9f5d80f956aaf6a0a21362b[ALL] 032c1f155b4e8ed20e1a79b92b0171a2eda48a1e2fc69dbedfd1ef917ff466332f"}, "vout": 90, "txid": "071cbd8816452f68558936e02d2e605cb50e6a5885073884664874e4156aeb94"}], "txid": "ec143592550bf12720fc570f56ae63ab940c4d9ce5c54654150ec3c9cf5330ad", "blocktime": 1537873282, "version": 1, "confirmations": 11484, "time": 1537873282, "locktime": 0, "vsize": 221, "size": 221}