{"hash": "712524877584b9d0b0b51e4ab232e699e83539034982aaecd6f6a1739f884165", "blockhash": "0000000000000000000baef3f32e3676a92c3b2e5da21b426e4f302fc371ce76", "vout": [{"scriptPubKey": {"reqSigs": 1, "hex": "a91490e99e8d26d05ead3c05430c292a887bbff695f587", "addresses": ["3EuF6KjJawxTiUsea3Sc8hsLUGmVEf7Xg5"], "asm": "OP_HASH160 90e99e8d26d05ead3c05430c292a887bbff695f5 OP_EQUAL", "type": "scripthash"}, "value": 0.00121311, "n": 0}, {"scriptPubKey": {"type": "nulldata", "hex": "6a146f6d6e69000000000000001f0000000005f5e100", "asm": "OP_RETURN 6f6d6e69000000000000001f0000000005f5e100"}, "value": 0.0, "n": 1}, {"scriptPubKey": {"reqSigs": 1, "hex": "a91490e99e8d26d05ead3c05430c292a887bbff695f587", "addresses": ["3EuF6KjJawxTiUsea3Sc8hsLUGmVEf7Xg5"], "asm": "OP_HASH160 90e99e8d26d05ead3c05430c292a887bbff695f5 OP_EQUAL", "type": "scripthash"}, "value": 5.4e-06, "n": 2}], "hex": "010000000001027039059041b9ce5fc59a8d0f9d5ce3557a732b8eb611c08eadac8fb4245872e80000000017160014f6e1792e7852ebd5ae795c2a25d579acdfadec2dffffffff7039059041b9ce5fc59a8d0f9d5ce3557a732b8eb611c08eadac8fb4245872e80200000017160014f6e1792e7852ebd5ae795c2a25d579acdfadec2dffffffff03dfd901000000000017a91490e99e8d26d05ead3c05430c292a887bbff695f5870000000000000000166a146f6d6e69000000000000001f0000000005f5e1001c0200000000000017a91490e99e8d26d05ead3c05430c292a887bbff695f587024830450221008791a52e34d50b73dfd86a6d0cd3e0820cdcd247441cf7ff25f09de84c7efae602207460b26fdd35020f1f05516fb4b74fe4d4ab88da45251a327ad7a4443f235865012103f1cf988013a33e053d1e9bd54c4798c1a6dc362a5b2798b5344049fca40e2db0024830450221009fa05788f80b3e945c635d603da1a6dbe222248817b4533df1ffc1743a35af58022064d102bb738a95ac5dd5cd588455f599f0834b6a85573cff1afba0782f51b89b012103f1cf988013a33e053d1e9bd54c4798c1a6dc362a5b2798b5344049fca40e2db000000000", "vin": [{"txinwitness": ["30450221008791a52e34d50b73dfd86a6d0cd3e0820cdcd247441cf7ff25f09de84c7efae602207460b26fdd35020f1f05516fb4b74fe4d4ab88da45251a327ad7a4443f23586501", "03f1cf988013a33e053d1e9bd54c4798c1a6dc362a5b2798b5344049fca40e2db0"], "sequence": 4294967295, "scriptSig": {"hex": "160014f6e1792e7852ebd5ae795c2a25d579acdfadec2d", "asm": "0014f6e1792e7852ebd5ae795c2a25d579acdfadec2d"}, "vout": 0, "txid": "e8725824b48facad8ec011b68e2b737a55e35c9d0f8d9ac55fceb94190053970"}, {"txinwitness": ["30450221009fa05788f80b3e945c635d603da1a6dbe222248817b4533df1ffc1743a35af58022064d102bb738a95ac5dd5cd588455f599f0834b6a85573cff1afba0782f51b89b01", "03f1cf988013a33e053d1e9bd54c4798c1a6dc362a5b2798b5344049fca40e2db0"], "sequence": 4294967295, "scriptSig": {"hex": "160014f6e1792e7852ebd5ae795c2a25d579acdfadec2d", "asm": "0014f6e1792e7852ebd5ae795c2a25d579acdfadec2d"}, "vout": 2, "txid": "e8725824b48facad8ec011b68e2b737a55e35c9d0f8d9ac55fceb94190053970"}], "txid": "ec1b7481a891592b1647279e3e469b0abf961b6bdea81b9e42e0347e0fa3b996", "blocktime": 1537876114, "version": 1, "confirmations": 11460, "time": 1537876114, "locktime": 0, "vsize": 288, "size": 451}