{"hash": "ec1f25e8489d9de5cffab9344f46255cccf762d3687591c2a3008dd7b6ac6b79", "blockhash": "0000000000000000000baef3f32e3676a92c3b2e5da21b426e4f302fc371ce76", "vout": [{"scriptPubKey": {"type": "nulldata", "hex": "6a4c500000782b0001f8de358aaac6e591fc828faf27b7256b4774d339f6019d6ddc0f1b8ff117d5b2fd70ce66a4e00d796535c6e327c95baa1e850614486152c16ee61d100759d4ba30d2c37bb011d97e02cf", "asm": "OP_RETURN 0000782b0001f8de358aaac6e591fc828faf27b7256b4774d339f6019d6ddc0f1b8ff117d5b2fd70ce66a4e00d796535c6e327c95baa1e850614486152c16ee61d100759d4ba30d2c37bb011d97e02cf"}, "value": 0.0, "n": 0}, {"scriptPubKey": {"reqSigs": 1, "hex": "76a914aa5ec04ebb462fd8a5a57d15aaa4430ab10df9a188ac", "addresses": ["1GXqP3KkTTKDcQrwBoucjxrChJSHodethD"], "asm": "OP_DUP OP_HASH160 aa5ec04ebb462fd8a5a57d15aaa4430ab10df9a1 OP_EQUALVERIFY OP_CHECKSIG", "type": "pubkeyhash"}, "value": 0.0063154, "n": 1}], "hex": "01000000016f18b9f3aee08041aeb99e0f75135ad78b69f661e762b67f380f40701deb19c3000000006b483045022100f3edccaca3489b44fc0ab4cd2f9504feb7508dbbce5c206a916887d827635d6b022024a57c75c28c4ba7c28ab5f7e5753ba2b32819f477e859d4e42c3cc2096d1516012102164f4042c24fbf981fd8380826ba115d060fd81dc528a8e59583c2afe57c7c18ffffffff020000000000000000536a4c500000782b0001f8de358aaac6e591fc828faf27b7256b4774d339f6019d6ddc0f1b8ff117d5b2fd70ce66a4e00d796535c6e327c95baa1e850614486152c16ee61d100759d4ba30d2c37bb011d97e02cff4a20900000000001976a914aa5ec04ebb462fd8a5a57d15aaa4430ab10df9a188ac00000000", "vin": [{"sequence": 4294967295, "scriptSig": {"hex": "483045022100f3edccaca3489b44fc0ab4cd2f9504feb7508dbbce5c206a916887d827635d6b022024a57c75c28c4ba7c28ab5f7e5753ba2b32819f477e859d4e42c3cc2096d1516012102164f4042c24fbf981fd8380826ba115d060fd81dc528a8e59583c2afe57c7c18", "asm": "3045022100f3edccaca3489b44fc0ab4cd2f9504feb7508dbbce5c206a916887d827635d6b022024a57c75c28c4ba7c28ab5f7e5753ba2b32819f477e859d4e42c3cc2096d1516[ALL] 02164f4042c24fbf981fd8380826ba115d060fd81dc528a8e59583c2afe57c7c18"}, "vout": 0, "txid": "c319eb1d70400f387fb662e761f6698bd75a13750f9eb9ae4180e0aef3b9186f"}], "txid": "ec1f25e8489d9de5cffab9344f46255cccf762d3687591c2a3008dd7b6ac6b79", "blocktime": 1537876114, "version": 1, "confirmations": 11460, "time": 1537876114, "locktime": 0, "vsize": 284, "size": 284}