{"hash": "b315e4d9a0abd39dce136e563c90d8729cacbe3210df2a4f03cb42c3be76d485", "blockhash": "00000000000000000004ffacab907a6b429b9a5745fa0b75af4234bf69dd7176", "vout": [{"scriptPubKey": {"reqSigs": 1, "hex": "76a91461518e74dc475bf6aa66145e9add32468eee2e1888ac", "addresses": ["19saFFXbYnNSwwqjNU7vEUWTyzZVn5EdhV"], "asm": "OP_DUP OP_HASH160 61518e74dc475bf6aa66145e9add32468eee2e18 OP_EQUALVERIFY OP_CHECKSIG", "type": "pubkeyhash"}, "value": 1.91, "n": 0}, {"scriptPubKey": {"reqSigs": 1, "hex": "0020701a8d401c84fb13e6baf169d59684e17abd9fa216c8cc5b9fc63d622ff8c58d", "addresses": ["bc1qwqdg6squsna38e46795at95yu9atm8azzmyvckulcc7kytlcckxswvvzej"], "asm": "0 701a8d401c84fb13e6baf169d59684e17abd9fa216c8cc5b9fc63d622ff8c58d", "type": "witness_v0_scripthash"}, "value": 2.78764405, "n": 1}], "hex": "0100000000010196894ff9a8c54318fe0fefaa6a1a21f6d8e4baae29f2df7c7516b7dd0cc8a13d0300000000ffffffff02c06d620b000000001976a91461518e74dc475bf6aa66145e9add32468eee2e1888ac759b9d1000000000220020701a8d401c84fb13e6baf169d59684e17abd9fa216c8cc5b9fc63d622ff8c58d040047304402203bcdaf18a14f9f95e0c73ca102a1e51ce2430902e2bca9e29a13bc12480bae7a02204209f8b8d71042aa1adddb78c3e3d6a0993c84fda7080eb0a646bcc990aa5da90147304402203a6097c472e310e51f6c482232617514d25a85e1356953989bf828d17258271e02201a2d243103205340cac6fe2aec9467521caf26182fb61b04ce8929ea720d3c50016952210375e00eb72e29da82b89367947f29ef34afb75e8654f6ea368e0acdfd92976b7c2103a1b26313f430c4b15bb1fdce663207659d8cac749a0e53d70eff01874496feff2103c96d495bfdd5ba4145e3e046fee45e84a8a48ad05bd8dbb395c011a32cf9f88053ae00000000", "vin": [{"txinwitness": ["", "304402203bcdaf18a14f9f95e0c73ca102a1e51ce2430902e2bca9e29a13bc12480bae7a02204209f8b8d71042aa1adddb78c3e3d6a0993c84fda7080eb0a646bcc990aa5da901", "304402203a6097c472e310e51f6c482232617514d25a85e1356953989bf828d17258271e02201a2d243103205340cac6fe2aec9467521caf26182fb61b04ce8929ea720d3c5001", "52210375e00eb72e29da82b89367947f29ef34afb75e8654f6ea368e0acdfd92976b7c2103a1b26313f430c4b15bb1fdce663207659d8cac749a0e53d70eff01874496feff2103c96d495bfdd5ba4145e3e046fee45e84a8a48ad05bd8dbb395c011a32cf9f88053ae"], "sequence": 4294967295, "scriptSig": {"hex": "", "asm": ""}, "vout": 3, "txid": "3da1c80cddb716757cdff229aebae4d8f6211a6aaaef0ffe1843c5a8f94f8996"}], "txid": "ec207317394a63c56e23968f2c74c6b388ab197e4a53a30f7b9c629b6b3f4097", "blocktime": 1537875543, "version": 1, "confirmations": 11464, "time": 1537875543, "locktime": 0, "vsize": 192, "size": 382}