{"hash": "b9804660705a335d52deaca6afe946be251873e3f4b63b8b843b70674611a3e6", "blockhash": "0000000000000000000dcc0f55137456b1a82d3642486a52398922ac4d620174", "vout": [{"scriptPubKey": {"reqSigs": 1, "hex": "76a91438179a211ce90ba02746c7110cc79ec5d61680fe88ac", "addresses": ["167b7eHncmQMqwi5MQmwq27bdU9BUdeZij"], "asm": "OP_DUP OP_HASH160 38179a211ce90ba02746c7110cc79ec5d61680fe OP_EQUALVERIFY OP_CHECKSIG", "type": "pubkeyhash"}, "value": 0.0084, "n": 0}, {"scriptPubKey": {"reqSigs": 1, "hex": "a914627aa52932456d89054bd84f86246af3b71b93a887", "addresses": ["3Afj4stdiLG9EktGrMbm252ySonnhYaz8v"], "asm": "OP_HASH160 627aa52932456d89054bd84f86246af3b71b93a8 OP_EQUAL", "type": "scripthash"}, "value": 0.53143119, "n": 1}], "hex": "0100000000010156b5d9fd6838450b2baedf84a37cfc70ea320beadefa28d47bd18b23371c0c0b01000000232200205fdd641234b13964b223bd85ad2a4a667ca2099df3d42a1d3b45706a8d81abf0ffffffff0240d10c00000000001976a91438179a211ce90ba02746c7110cc79ec5d61680fe88ac4fe62a030000000017a914627aa52932456d89054bd84f86246af3b71b93a88704004730440220296f37a88fd229953f7e9fbaf0e325c79b64c78684235a320fbe0c46c0367df20220588b99a918cb808a6c89ee085f0567d15c74a04787de022bab65c722208fda5301473044022048d6fbed47b57f32e8824562d47e6d7bd307aec12b3b782fdd7825b13335c2ec022057675d7972aff52d5300a36c57d8f0c86104da4b98c69f664a9a916f3b3534a00147522103dcde3832fa56def7b4e783faad1b8af85c3cdd74a5ff4f3c7c216b1075c18da12103c70ae8ded79be1afda73b9ce5ea14a3878908ee160d66a9a717e792bb6db276952ae00000000", "vin": [{"txinwitness": ["", "30440220296f37a88fd229953f7e9fbaf0e325c79b64c78684235a320fbe0c46c0367df20220588b99a918cb808a6c89ee085f0567d15c74a04787de022bab65c722208fda5301", "3044022048d6fbed47b57f32e8824562d47e6d7bd307aec12b3b782fdd7825b13335c2ec022057675d7972aff52d5300a36c57d8f0c86104da4b98c69f664a9a916f3b3534a001", "522103dcde3832fa56def7b4e783faad1b8af85c3cdd74a5ff4f3c7c216b1075c18da12103c70ae8ded79be1afda73b9ce5ea14a3878908ee160d66a9a717e792bb6db276952ae"], "sequence": 4294967295, "scriptSig": {"hex": "2200205fdd641234b13964b223bd85ad2a4a667ca2099df3d42a1d3b45706a8d81abf0", "asm": "00205fdd641234b13964b223bd85ad2a4a667ca2099df3d42a1d3b45706a8d81abf0"}, "vout": 1, "txid": "0b0c1c37238bd17bd428fadeea0b32ea70fc7ca384dfae2b0b453868fdd9b556"}], "txid": "ec211f9c762c68b46160a0a3c055ef47ea57f7ebc4be1a383e90d52998cd01dc", "blocktime": 1537870268, "version": 1, "confirmations": 11518, "time": 1537870268, "locktime": 0, "vsize": 207, "size": 372}