{"hash": "ec24c26358d95f20bf4fe3caae74001ff79d501a2b69dff23b2d0102c29b2263", "blockhash": "0000000000000000000e13cef7c366c0283d82e591d1acd082e914b08063cdf1", "vout": [{"scriptPubKey": {"type": "nulldata", "hex": "6a4c500000779c000114a898f23fe1bc665f662dbfe3ef3236678a625097bcbefa6b8351586b4eba21a813ee8def98f42073a9709d8c795baa0d99061567b421566cf6bc9a9526289ac0f6612cd74e33776ee4", "asm": "OP_RETURN 0000779c000114a898f23fe1bc665f662dbfe3ef3236678a625097bcbefa6b8351586b4eba21a813ee8def98f42073a9709d8c795baa0d99061567b421566cf6bc9a9526289ac0f6612cd74e33776ee4"}, "value": 0.0, "n": 0}, {"scriptPubKey": {"reqSigs": 1, "hex": "76a91430762f58764a7c1313c41f0c65f149c57442200288ac", "addresses": ["15RF1qpUdaxv5PYAKnzdi5XKsLHFYaVqMN"], "asm": "OP_DUP OP_HASH160 30762f58764a7c1313c41f0c65f149c574422002 OP_EQUALVERIFY OP_CHECKSIG", "type": "pubkeyhash"}, "value": 0.01410004, "n": 1}], "hex": "0100000001688d5e7bae6a7befba165265f0a5dc8662f1f7a71bc98bc2770abb9a4899d031000000006a47304402201c7a3f9187d2a288cde8c8abc751f62b4e983ec6e341ea03668b7d4063a1049c022076e14ab76a1905148cb9dcfb4221a2c407ba5a835fb55341be0eaa368705cee3012103321d095a8833b2241e9c520994d2e806749c7b2bc8eede273af30bed6511adedffffffff020000000000000000536a4c500000779c000114a898f23fe1bc665f662dbfe3ef3236678a625097bcbefa6b8351586b4eba21a813ee8def98f42073a9709d8c795baa0d99061567b421566cf6bc9a9526289ac0f6612cd74e33776ee4d4831500000000001976a91430762f58764a7c1313c41f0c65f149c57442200288ac00000000", "vin": [{"sequence": 4294967295, "scriptSig": {"hex": "47304402201c7a3f9187d2a288cde8c8abc751f62b4e983ec6e341ea03668b7d4063a1049c022076e14ab76a1905148cb9dcfb4221a2c407ba5a835fb55341be0eaa368705cee3012103321d095a8833b2241e9c520994d2e806749c7b2bc8eede273af30bed6511aded", "asm": "304402201c7a3f9187d2a288cde8c8abc751f62b4e983ec6e341ea03668b7d4063a1049c022076e14ab76a1905148cb9dcfb4221a2c407ba5a835fb55341be0eaa368705cee3[ALL] 03321d095a8833b2241e9c520994d2e806749c7b2bc8eede273af30bed6511aded"}, "vout": 0, "txid": "31d099489abb0a77c28bc91ba7f7f16286dca5f0655216baef7b6aae7b5e8d68"}], "txid": "ec24c26358d95f20bf4fe3caae74001ff79d501a2b69dff23b2d0102c29b2263", "blocktime": 1537871767, "version": 1, "confirmations": 11493, "time": 1537871767, "locktime": 0, "vsize": 283, "size": 283}