{"hash": "ec32aa944f45f5445bcc20a52712c12c1daac8a0858ad222b22f35208dff7090", "blockhash": "00000000000000000018f53835495a110e01622372bf6ae95dc86f2b0ab887b0", "vout": [{"scriptPubKey": {"reqSigs": 1, "hex": "a914a7aedd0d1e77300fb06aa154c9a517b74c08d24587", "addresses": ["3GyeFJmQynJWd8DeACm4cdEnZcckAtrfcN"], "asm": "OP_HASH160 a7aedd0d1e77300fb06aa154c9a517b74c08d245 OP_EQUAL", "type": "scripthash"}, "value": 0.08452846, "n": 0}, {"scriptPubKey": {"reqSigs": 1, "hex": "a914a7aedd0d1e77300fb06aa154c9a517b74c08d24587", "addresses": ["3GyeFJmQynJWd8DeACm4cdEnZcckAtrfcN"], "asm": "OP_HASH160 a7aedd0d1e77300fb06aa154c9a517b74c08d245 OP_EQUAL", "type": "scripthash"}, "value": 2.73e-05, "n": 1}, {"scriptPubKey": {"type": "nulldata", "hex": "6a146f6d6e69000000000000001f0000091830a53b00", "asm": "OP_RETURN 6f6d6e69000000000000001f0000091830a53b00"}, "value": 0.0, "n": 2}], "hex": "010000000293bb67532f1753b3409209c9b4af7933d666839273f09283e5e00ccccaad2bb801000000fdfe0000483045022100d297eacfdd2fdbf9cc2e7018de52e8ce9e03840e4dbc8905c886a62e48093baf022009a66ab83e024ec536499dbe39595bc2bc55589b16531fd09bfef654de2abc5301483045022100e34290ebbf8935a844817f85a8cb15579641759f4e162aa74e915c2f0be61b7d02203174f48e60154180c67d633d9a56ca2f0e3b21cac0a8bc917cb885d55102388d014c6952210384b0260c900b9044d294006f143059cedf31ec3646d8fd0ecb194c11cf530e7d210332392e20aa95c6e03b468be21eff80dee1add75d8e2841eb23d42071b24348802102ad9305bc16eb13fec755192c32e962cc571c4faa960c46f76bce2a1779e5fb9a53aeffffffff11ef2c77bc3aaa9251387177d7dc6eba9ae856175b355f67abf87c2a41d143c700000000fdfd00004730440220600f2c2e5cf425000f440801058dcd640f935ee7b4f92a8259c5166af15573f002207a5d645737f0093d7e816efe802bfb13e46dc6f2a2f76c0f63c4a59d06b3786a01483045022100f6a176319cb3af26d25a68587081bdfcb41d5c2029326dcc35d9ed1eb711cd0b02200427f65766d40ac0b7f0c169442c143d9b87cd29ad7113e78c27014ef79dc287014c695221035c037a36e4ec9aa1aefcef02ff742bec63c098c0a7f1c9a1b822b6294afbb7102102a1ccf15bc58870240578a2922b3f0e922260f37098adbd988e15be36943816912102af3be4803e51fef309a51f0332f399026e99dae117dc2d22a71f4eacc1f3f4f153aeffffffff03eefa80000000000017a914a7aedd0d1e77300fb06aa154c9a517b74c08d24587aa0a00000000000017a914a7aedd0d1e77300fb06aa154c9a517b74c08d245870000000000000000166a146f6d6e69000000000000001f0000091830a53b0000000000", "vin": [{"sequence": 4294967295, "scriptSig": {"hex": "00483045022100d297eacfdd2fdbf9cc2e7018de52e8ce9e03840e4dbc8905c886a62e48093baf022009a66ab83e024ec536499dbe39595bc2bc55589b16531fd09bfef654de2abc5301483045022100e34290ebbf8935a844817f85a8cb15579641759f4e162aa74e915c2f0be61b7d02203174f48e60154180c67d633d9a56ca2f0e3b21cac0a8bc917cb885d55102388d014c6952210384b0260c900b9044d294006f143059cedf31ec3646d8fd0ecb194c11cf530e7d210332392e20aa95c6e03b468be21eff80dee1add75d8e2841eb23d42071b24348802102ad9305bc16eb13fec755192c32e962cc571c4faa960c46f76bce2a1779e5fb9a53ae", "asm": "0 3045022100d297eacfdd2fdbf9cc2e7018de52e8ce9e03840e4dbc8905c886a62e48093baf022009a66ab83e024ec536499dbe39595bc2bc55589b16531fd09bfef654de2abc53[ALL] 3045022100e34290ebbf8935a844817f85a8cb15579641759f4e162aa74e915c2f0be61b7d02203174f48e60154180c67d633d9a56ca2f0e3b21cac0a8bc917cb885d55102388d[ALL] 52210384b0260c900b9044d294006f143059cedf31ec3646d8fd0ecb194c11cf530e7d210332392e20aa95c6e03b468be21eff80dee1add75d8e2841eb23d42071b24348802102ad9305bc16eb13fec755192c32e962cc571c4faa960c46f76bce2a1779e5fb9a53ae"}, "vout": 1, "txid": "b82badcacc0ce0e58392f073928366d63379afb4c9099240b353172f5367bb93"}, {"sequence": 4294967295, "scriptSig": {"hex": "004730440220600f2c2e5cf425000f440801058dcd640f935ee7b4f92a8259c5166af15573f002207a5d645737f0093d7e816efe802bfb13e46dc6f2a2f76c0f63c4a59d06b3786a01483045022100f6a176319cb3af26d25a68587081bdfcb41d5c2029326dcc35d9ed1eb711cd0b02200427f65766d40ac0b7f0c169442c143d9b87cd29ad7113e78c27014ef79dc287014c695221035c037a36e4ec9aa1aefcef02ff742bec63c098c0a7f1c9a1b822b6294afbb7102102a1ccf15bc58870240578a2922b3f0e922260f37098adbd988e15be36943816912102af3be4803e51fef309a51f0332f399026e99dae117dc2d22a71f4eacc1f3f4f153ae", "asm": "0 30440220600f2c2e5cf425000f440801058dcd640f935ee7b4f92a8259c5166af15573f002207a5d645737f0093d7e816efe802bfb13e46dc6f2a2f76c0f63c4a59d06b3786a[ALL] 3045022100f6a176319cb3af26d25a68587081bdfcb41d5c2029326dcc35d9ed1eb711cd0b02200427f65766d40ac0b7f0c169442c143d9b87cd29ad7113e78c27014ef79dc287[ALL] 5221035c037a36e4ec9aa1aefcef02ff742bec63c098c0a7f1c9a1b822b6294afbb7102102a1ccf15bc58870240578a2922b3f0e922260f37098adbd988e15be36943816912102af3be4803e51fef309a51f0332f399026e99dae117dc2d22a71f4eacc1f3f4f153ae"}, "vout": 0, "txid": "c743d1412a7cf8ab675f355b1756e89aba6edcd77771385192aa3abc772cef11"}], "txid": "ec32aa944f45f5445bcc20a52712c12c1daac8a0858ad222b22f35208dff7090", "blocktime": 1537870928, "version": 1, "confirmations": 11514, "time": 1537870928, "locktime": 0, "vsize": 698, "size": 698}