{"hash": "ec394627e07419b125a69a6c156897df8c8b6fd08f5329d0488793f4415eeab1", "blockhash": "0000000000000000001f76057863aec43deb6fa401d9628bb513d65a8098bfab", "vout": [{"scriptPubKey": {"reqSigs": 1, "hex": "76a914d5d80edf79869b4eb6d1e39b145dba3968349b0188ac", "addresses": ["1LVhkqheL5Eg7NA8WD8DwnJMhmkZHeQDfz"], "asm": "OP_DUP OP_HASH160 d5d80edf79869b4eb6d1e39b145dba3968349b01 OP_EQUALVERIFY OP_CHECKSIG", "type": "pubkeyhash"}, "value": 0.0008, "n": 0}, {"scriptPubKey": {"reqSigs": 1, "hex": "76a914ff1a4a3198d9e9fbcb843c9f883492fa03bb081788ac", "addresses": ["1QFroZo691ZBvtmVtUbXPPmdkij8XSJY6e"], "asm": "OP_DUP OP_HASH160 ff1a4a3198d9e9fbcb843c9f883492fa03bb0817 OP_EQUALVERIFY OP_CHECKSIG", "type": "pubkeyhash"}, "value": 0.25278445, "n": 1}], "hex": "01000000019ce35ad6ac626ec5f5bbf0cbcf961b0404f6f9e7a0acd57db0ddc7bda279deb0010000006a47304402200df0d84bd8c58dc8973eb125d754209983f409f6803bd21dce1dea936c52460902207aeff81b6827311267daeaad13aef05ac73d5e5b9255107714a3caf88ffc76b0012102428dbc968e96a4062a1fac75ac0d1b4def4b06ba5037cd312cc812ffcaef0216ffffffff0280380100000000001976a914d5d80edf79869b4eb6d1e39b145dba3968349b0188acedb78101000000001976a914ff1a4a3198d9e9fbcb843c9f883492fa03bb081788ac00000000", "vin": [{"sequence": 4294967295, "scriptSig": {"hex": "47304402200df0d84bd8c58dc8973eb125d754209983f409f6803bd21dce1dea936c52460902207aeff81b6827311267daeaad13aef05ac73d5e5b9255107714a3caf88ffc76b0012102428dbc968e96a4062a1fac75ac0d1b4def4b06ba5037cd312cc812ffcaef0216", "asm": "304402200df0d84bd8c58dc8973eb125d754209983f409f6803bd21dce1dea936c52460902207aeff81b6827311267daeaad13aef05ac73d5e5b9255107714a3caf88ffc76b0[ALL] 02428dbc968e96a4062a1fac75ac0d1b4def4b06ba5037cd312cc812ffcaef0216"}, "vout": 1, "txid": "b0de79a2bdc7ddb07dd5aca0e7f9f604041b96cfcbf0bbf5c56e62acd65ae39c"}], "txid": "ec394627e07419b125a69a6c156897df8c8b6fd08f5329d0488793f4415eeab1", "blocktime": 1537873891, "version": 1, "confirmations": 11478, "time": 1537873891, "locktime": 0, "vsize": 225, "size": 225}