{"hash": "ec3e69557e3c8286c0c780a25e97f7ec1c01307459a9373042f414b0c81f300c", "blockhash": "0000000000000000001cda96e906b7601b7a6fb1a3b62bca570a9e5d8f4b3de1", "vout": [{"scriptPubKey": {"reqSigs": 1, "hex": "a91442b3f35b705813730652144f4bc9b99e0f53364587", "addresses": ["37mi6PiM2onmu4J9mgcoxxsK5HaU1qasQq"], "asm": "OP_HASH160 42b3f35b705813730652144f4bc9b99e0f533645 OP_EQUAL", "type": "scripthash"}, "value": 0.00603, "n": 0}, {"scriptPubKey": {"reqSigs": 1, "hex": "76a914b7888cc82fdecaf88856880550ac43fe948b8cae88ac", "addresses": ["1HjSEm71Kqt31Va9JhJk2SvztwotZkQJFN"], "asm": "OP_DUP OP_HASH160 b7888cc82fdecaf88856880550ac43fe948b8cae OP_EQUALVERIFY OP_CHECKSIG", "type": "pubkeyhash"}, "value": 0.00394974, "n": 1}], "hex": "0200000001dd2860e3dbb3e2c5a48784da25f885f9254d12d5854c5e39beebed3b05c7cb28010000006a47304402206185b514aec8f6ad9e3ef2c7dfef045171a3946b1eaa6d4a2f1176b6780fce9902206e2dbbacedc1c4568ae6db1e3537b69516328067f5320a57e0ed60c1350a3096012103f64d18070174a7d64ec0b63a2cf11fcf39cd553907cc09a47a94df2f3b817aecffffffff02783309000000000017a91442b3f35b705813730652144f4bc9b99e0f53364587de060600000000001976a914b7888cc82fdecaf88856880550ac43fe948b8cae88ac00000000", "vin": [{"sequence": 4294967295, "scriptSig": {"hex": "47304402206185b514aec8f6ad9e3ef2c7dfef045171a3946b1eaa6d4a2f1176b6780fce9902206e2dbbacedc1c4568ae6db1e3537b69516328067f5320a57e0ed60c1350a3096012103f64d18070174a7d64ec0b63a2cf11fcf39cd553907cc09a47a94df2f3b817aec", "asm": "304402206185b514aec8f6ad9e3ef2c7dfef045171a3946b1eaa6d4a2f1176b6780fce9902206e2dbbacedc1c4568ae6db1e3537b69516328067f5320a57e0ed60c1350a3096[ALL] 03f64d18070174a7d64ec0b63a2cf11fcf39cd553907cc09a47a94df2f3b817aec"}, "vout": 1, "txid": "28cbc7053bedebbe395e4c85d5124d25f985f825da8487a4c5e2b3dbe36028dd"}], "txid": "ec3e69557e3c8286c0c780a25e97f7ec1c01307459a9373042f414b0c81f300c", "blocktime": 1537873282, "version": 2, "confirmations": 11480, "time": 1537873282, "locktime": 0, "vsize": 223, "size": 223}