{"hash": "ec45aed2599bcbd85caa2e65d4bdb1d9a7c7d5e804eadf59b0410e4fa4a417ca", "blockhash": "0000000000000000000e13cef7c366c0283d82e591d1acd082e914b08063cdf1", "vout": [{"scriptPubKey": {"reqSigs": 1, "hex": "76a9143e128ec25d98883b688da3521180ca55c0ba49c888ac", "addresses": ["16fD8JWPokFczaqC3hMjrjkBA5whKNAu1E"], "asm": "OP_DUP OP_HASH160 3e128ec25d98883b688da3521180ca55c0ba49c8 OP_EQUALVERIFY OP_CHECKSIG", "type": "pubkeyhash"}, "value": 9.15e-06, "n": 0}, {"scriptPubKey": {"reqSigs": 1, "hex": "76a9147985227a311b0da4a8d0d7a8214e3f1ee15d004888ac", "addresses": ["1C5YFa7sb15w5S521fks4YdyCPRMWkAuEt"], "asm": "OP_DUP OP_HASH160 7985227a311b0da4a8d0d7a8214e3f1ee15d0048 OP_EQUALVERIFY OP_CHECKSIG", "type": "pubkeyhash"}, "value": 0.0103107, "n": 1}], "hex": "0100000002c65c69332c7c39fa6788b02e409c6d82dc18512b026b5f327a8f69721f96d583030000006b483045022100a22ea6989b77504fa6936d34e15acc85e8ba8bdf748ff854ee47ca4ad53d3d89022029fc88d191f5bdf3950d1b4a705bf2d416ec2e4153717f7e3f0e253486ba7d43012103ba6be23407e2a569fe7f901df431d0804cb9a50a87559c56b38ec2098605bac5ffffffffabcdd0a6cdd463145f2149362aa7e780e6d84d8fa9140c0fd5ca20468d2334a8000000006a47304402206aca94a8ea5f1e25fe98cc22073f5f69892959970989a9ee5853836ce0436ca50220170b16aa362a690ea86ffc432015c7a719ce407ad82c0f93fe76824c44ce8771012103f59f734a081b048241ec1b655d125bfda2bb9a7cf39e64fed92c956fc1b98384ffffffff0293030000000000001976a9143e128ec25d98883b688da3521180ca55c0ba49c888ac9ebb0f00000000001976a9147985227a311b0da4a8d0d7a8214e3f1ee15d004888ac00000000", "vin": [{"sequence": 4294967295, "scriptSig": {"hex": "483045022100a22ea6989b77504fa6936d34e15acc85e8ba8bdf748ff854ee47ca4ad53d3d89022029fc88d191f5bdf3950d1b4a705bf2d416ec2e4153717f7e3f0e253486ba7d43012103ba6be23407e2a569fe7f901df431d0804cb9a50a87559c56b38ec2098605bac5", "asm": "3045022100a22ea6989b77504fa6936d34e15acc85e8ba8bdf748ff854ee47ca4ad53d3d89022029fc88d191f5bdf3950d1b4a705bf2d416ec2e4153717f7e3f0e253486ba7d43[ALL] 03ba6be23407e2a569fe7f901df431d0804cb9a50a87559c56b38ec2098605bac5"}, "vout": 3, "txid": "83d5961f72698f7a325f6b022b5118dc826d9c402eb08867fa397c2c33695cc6"}, {"sequence": 4294967295, "scriptSig": {"hex": "47304402206aca94a8ea5f1e25fe98cc22073f5f69892959970989a9ee5853836ce0436ca50220170b16aa362a690ea86ffc432015c7a719ce407ad82c0f93fe76824c44ce8771012103f59f734a081b048241ec1b655d125bfda2bb9a7cf39e64fed92c956fc1b98384", "asm": "304402206aca94a8ea5f1e25fe98cc22073f5f69892959970989a9ee5853836ce0436ca50220170b16aa362a690ea86ffc432015c7a719ce407ad82c0f93fe76824c44ce8771[ALL] 03f59f734a081b048241ec1b655d125bfda2bb9a7cf39e64fed92c956fc1b98384"}, "vout": 0, "txid": "a834238d4620cad50f0c14a98f4dd8e680e7a72a3649215f1463d4cda6d0cdab"}], "txid": "ec45aed2599bcbd85caa2e65d4bdb1d9a7c7d5e804eadf59b0410e4fa4a417ca", "blocktime": 1537871767, "version": 1, "confirmations": 11495, "time": 1537871767, "locktime": 0, "vsize": 373, "size": 373}