{"hash": "ec46df50e9e85babba4e7d4db4272a62edcf2d47895de2df44c3620093559144", "blockhash": "0000000000000000000baef3f32e3676a92c3b2e5da21b426e4f302fc371ce76", "vout": [{"scriptPubKey": {"reqSigs": 1, "hex": "76a914166a5964ba884f9755669249f905cc5b53ef078988ac", "addresses": ["133XGVXH23fAiMp1cGauMmBcpddUSjYrgT"], "asm": "OP_DUP OP_HASH160 166a5964ba884f9755669249f905cc5b53ef0789 OP_EQUALVERIFY OP_CHECKSIG", "type": "pubkeyhash"}, "value": 0.00010949, "n": 0}, {"scriptPubKey": {"reqSigs": 1, "hex": "76a914a90a13c7b84729f0aae19fb2200b06891489aae688ac", "addresses": ["1GQoGboebQtVZ2sJqeR6rdR2eJ3WAu36Ps"], "asm": "OP_DUP OP_HASH160 a90a13c7b84729f0aae19fb2200b06891489aae6 OP_EQUALVERIFY OP_CHECKSIG", "type": "pubkeyhash"}, "value": 0.00172334, "n": 1}], "hex": "0100000002f3625c25770a01a2410fa68fa682115d326dd935da51328ad289f08ecbba9019000000006a47304402204ef9be91846154b2f162e4624e58980bf108d133c5bdbab061b8a3ca456fd0bb022062437fbe62954231dbd6db3dabe9fb553d04072ba28df2178943304d1abaf740012102da7e72cd541fd235eef928b5efa1d4785f40cde70a07c18f5598fb5108ea892dffffffff73898358d5e1f0f0c67d7be8b6c45bb3704774f6671cf6401b775d3c59201e82000000006a47304402206482ffa778534b5178efd8e02b904e9046a8bae47e5daa5747ec820d7c3e205702201f1e408a83189e497de18469810544e1620fda9b640a173da83d539a7d7be7a6012102cfe3d6cb7b9626177477fdf33fcc5ee1b4810bfbf8078e7dba4a8bdb8ab78239ffffffff02c52a0000000000001976a914166a5964ba884f9755669249f905cc5b53ef078988ac2ea10200000000001976a914a90a13c7b84729f0aae19fb2200b06891489aae688ac00000000", "vin": [{"sequence": 4294967295, "scriptSig": {"hex": "47304402204ef9be91846154b2f162e4624e58980bf108d133c5bdbab061b8a3ca456fd0bb022062437fbe62954231dbd6db3dabe9fb553d04072ba28df2178943304d1abaf740012102da7e72cd541fd235eef928b5efa1d4785f40cde70a07c18f5598fb5108ea892d", "asm": "304402204ef9be91846154b2f162e4624e58980bf108d133c5bdbab061b8a3ca456fd0bb022062437fbe62954231dbd6db3dabe9fb553d04072ba28df2178943304d1abaf740[ALL] 02da7e72cd541fd235eef928b5efa1d4785f40cde70a07c18f5598fb5108ea892d"}, "vout": 0, "txid": "1990bacb8ef089d28a3251da35d96d325d1182a68fa60f41a2010a77255c62f3"}, {"sequence": 4294967295, "scriptSig": {"hex": "47304402206482ffa778534b5178efd8e02b904e9046a8bae47e5daa5747ec820d7c3e205702201f1e408a83189e497de18469810544e1620fda9b640a173da83d539a7d7be7a6012102cfe3d6cb7b9626177477fdf33fcc5ee1b4810bfbf8078e7dba4a8bdb8ab78239", "asm": "304402206482ffa778534b5178efd8e02b904e9046a8bae47e5daa5747ec820d7c3e205702201f1e408a83189e497de18469810544e1620fda9b640a173da83d539a7d7be7a6[ALL] 02cfe3d6cb7b9626177477fdf33fcc5ee1b4810bfbf8078e7dba4a8bdb8ab78239"}, "vout": 0, "txid": "821e20593c5d771b40f61c67f6744770b35bc4b6e87b7dc6f0f0e1d558838973"}], "txid": "ec46df50e9e85babba4e7d4db4272a62edcf2d47895de2df44c3620093559144", "blocktime": 1537876114, "version": 1, "confirmations": 11460, "time": 1537876114, "locktime": 0, "vsize": 372, "size": 372}