{"hash": "ec46409fbdcaf877317470392924247644b9a3468207e8a9bbae2b06192fb379", "blockhash": "00000000000000000017f5eb5941039fbcee6240d03bc1f2f8e35350df66a1d8", "vout": [{"scriptPubKey": {"reqSigs": 1, "hex": "a914438eef6bec980bff05af6587139252c0bfc8355f87", "addresses": ["37rERiC6im1HEaJqdUYRkZhSZFDy1A9QtH"], "asm": "OP_HASH160 438eef6bec980bff05af6587139252c0bfc8355f OP_EQUAL", "type": "scripthash"}, "value": 0.01691266, "n": 0}, {"scriptPubKey": {"reqSigs": 1, "hex": "76a914eb4e5455b6f2641dcf97bbd2223b49934f145ee388ac", "addresses": ["1NTBdWGLTmuKJpmn5oDSpegS4BsNKoo3Li"], "asm": "OP_DUP OP_HASH160 eb4e5455b6f2641dcf97bbd2223b49934f145ee3 OP_EQUALVERIFY OP_CHECKSIG", "type": "pubkeyhash"}, "value": 0.00069899, "n": 1}], "hex": "01000000035fef2146d5d31be49d3dcd92d5b7908ebba7b9724b73f420c7567cbe4accb6f101000000db004830450221008f22b9aeec47e949701e1c8d4cc42d002a9cf9457bcd3252c3a4779907e99ce50220189761e7a86be489e5cfb0d15c7435fa56cd7fccb51b144821cd529efff22e99014830450221009f89e0dff2f74ccd53c34b77f64d9030cbc7d3499524bfe2174247f3f679e87d0220180f33d584b63885ce822c60f3747385e77429243d61bbe053f9aac8c3d1075001475221025731e29c7c552da9e444257d5b2505fa19b4d032a9651152cd4df0d5191b0bcd2102907a54bed8ad74b3f35638c60114ca240a308cb986f3f2f306178869a8880b6152aeffffffff7658c4c81335a6e7d317045c75ac5f5ebc83472a9f26c573f62794f5aa4c19c901000000d900473044022025326002a04171296567b2c2811761c0a567198456c34e4e0804ab7aa759c36302202422da5a3d5e0e0550c83ac10817e66d20ca457bd7b2ff50e37bf9ac31440bf201473044022012bbe354da0d6541f81aaa54f78fb471ac88f12123cc10e719554414b39fb43a0220360fa32824adf5df84249109bcebe51a159e5a86877d27cd2188a5f6100d1fed0147522102907a54bed8ad74b3f35638c60114ca240a308cb986f3f2f306178869a8880b612103af9bf5d3d8c88f1090d1d66e48110e6a102c86d12926af5544db0bdc9967b81952aeffffffffbf1173dc1318afb49fdce19d6c4d0f62fdf04096ba8878e46fa26992f1715f6101000000da004830450221009f7155ef81ce97bb2deb1c0e204521a2da7f38e93918586bca54d72c4a74a32702201fe4728e2c35148059a34ffcfae88fbe755d018b7ab06616488daa02c7f3b29b0147304402204181500ac8973d8dbadca339c7fce4d84e6083c33613d28b8adf67935c9d5f1e022047d2ced814e50d1ea2ebfb724bafc2f5b0fbfed5e86d1b66ee5edb77ffea89020147522102907a54bed8ad74b3f35638c60114ca240a308cb986f3f2f306178869a8880b612103860c453e4d344cf184c0808b30df878fcc97bf19261efa7a1217a0b7be91b98252aeffffffff0282ce19000000000017a914438eef6bec980bff05af6587139252c0bfc8355f870b110100000000001976a914eb4e5455b6f2641dcf97bbd2223b49934f145ee388ac00000000", "vin": [{"sequence": 4294967295, "scriptSig": {"hex": "004830450221008f22b9aeec47e949701e1c8d4cc42d002a9cf9457bcd3252c3a4779907e99ce50220189761e7a86be489e5cfb0d15c7435fa56cd7fccb51b144821cd529efff22e99014830450221009f89e0dff2f74ccd53c34b77f64d9030cbc7d3499524bfe2174247f3f679e87d0220180f33d584b63885ce822c60f3747385e77429243d61bbe053f9aac8c3d1075001475221025731e29c7c552da9e444257d5b2505fa19b4d032a9651152cd4df0d5191b0bcd2102907a54bed8ad74b3f35638c60114ca240a308cb986f3f2f306178869a8880b6152ae", "asm": "0 30450221008f22b9aeec47e949701e1c8d4cc42d002a9cf9457bcd3252c3a4779907e99ce50220189761e7a86be489e5cfb0d15c7435fa56cd7fccb51b144821cd529efff22e99[ALL] 30450221009f89e0dff2f74ccd53c34b77f64d9030cbc7d3499524bfe2174247f3f679e87d0220180f33d584b63885ce822c60f3747385e77429243d61bbe053f9aac8c3d10750[ALL] 5221025731e29c7c552da9e444257d5b2505fa19b4d032a9651152cd4df0d5191b0bcd2102907a54bed8ad74b3f35638c60114ca240a308cb986f3f2f306178869a8880b6152ae"}, "vout": 1, "txid": "f1b6cc4abe7c56c720f4734b72b9a7bb8e90b7d592cd3d9de41bd3d54621ef5f"}, {"sequence": 4294967295, "scriptSig": {"hex": "00473044022025326002a04171296567b2c2811761c0a567198456c34e4e0804ab7aa759c36302202422da5a3d5e0e0550c83ac10817e66d20ca457bd7b2ff50e37bf9ac31440bf201473044022012bbe354da0d6541f81aaa54f78fb471ac88f12123cc10e719554414b39fb43a0220360fa32824adf5df84249109bcebe51a159e5a86877d27cd2188a5f6100d1fed0147522102907a54bed8ad74b3f35638c60114ca240a308cb986f3f2f306178869a8880b612103af9bf5d3d8c88f1090d1d66e48110e6a102c86d12926af5544db0bdc9967b81952ae", "asm": "0 3044022025326002a04171296567b2c2811761c0a567198456c34e4e0804ab7aa759c36302202422da5a3d5e0e0550c83ac10817e66d20ca457bd7b2ff50e37bf9ac31440bf2[ALL] 3044022012bbe354da0d6541f81aaa54f78fb471ac88f12123cc10e719554414b39fb43a0220360fa32824adf5df84249109bcebe51a159e5a86877d27cd2188a5f6100d1fed[ALL] 522102907a54bed8ad74b3f35638c60114ca240a308cb986f3f2f306178869a8880b612103af9bf5d3d8c88f1090d1d66e48110e6a102c86d12926af5544db0bdc9967b81952ae"}, "vout": 1, "txid": "c9194caaf59427f673c5269f2a4783bc5e5fac755c0417d3e7a63513c8c45876"}, {"sequence": 4294967295, "scriptSig": {"hex": "004830450221009f7155ef81ce97bb2deb1c0e204521a2da7f38e93918586bca54d72c4a74a32702201fe4728e2c35148059a34ffcfae88fbe755d018b7ab06616488daa02c7f3b29b0147304402204181500ac8973d8dbadca339c7fce4d84e6083c33613d28b8adf67935c9d5f1e022047d2ced814e50d1ea2ebfb724bafc2f5b0fbfed5e86d1b66ee5edb77ffea89020147522102907a54bed8ad74b3f35638c60114ca240a308cb986f3f2f306178869a8880b612103860c453e4d344cf184c0808b30df878fcc97bf19261efa7a1217a0b7be91b98252ae", "asm": "0 30450221009f7155ef81ce97bb2deb1c0e204521a2da7f38e93918586bca54d72c4a74a32702201fe4728e2c35148059a34ffcfae88fbe755d018b7ab06616488daa02c7f3b29b[ALL] 304402204181500ac8973d8dbadca339c7fce4d84e6083c33613d28b8adf67935c9d5f1e022047d2ced814e50d1ea2ebfb724bafc2f5b0fbfed5e86d1b66ee5edb77ffea8902[ALL] 522102907a54bed8ad74b3f35638c60114ca240a308cb986f3f2f306178869a8880b612103860c453e4d344cf184c0808b30df878fcc97bf19261efa7a1217a0b7be91b98252ae"}, "vout": 1, "txid": "615f71f19269a26fe47888ba9640f0fd620f4d6c9de1dc9fb4af1813dc7311bf"}], "txid": "ec46409fbdcaf877317470392924247644b9a3468207e8a9bbae2b06192fb379", "blocktime": 1537874412, "version": 1, "confirmations": 11467, "time": 1537874412, "locktime": 0, "vsize": 853, "size": 853}