{"hash": "ec478882f1bbf1d4cfa6669ca4c2049e3fa69db48ab19abe4ffbd89b03f65a4f", "blockhash": "00000000000000000004ffacab907a6b429b9a5745fa0b75af4234bf69dd7176", "vout": [{"scriptPubKey": {"reqSigs": 1, "hex": "76a9146ffd2c3294fda639e87f80a0c44e72d2b48e009d88ac", "addresses": ["1BD9J39gecadPMkKi5RTKuigu8AkAFAqzA"], "asm": "OP_DUP OP_HASH160 6ffd2c3294fda639e87f80a0c44e72d2b48e009d OP_EQUALVERIFY OP_CHECKSIG", "type": "pubkeyhash"}, "value": 0.01286716, "n": 0}, {"scriptPubKey": {"reqSigs": 1, "hex": "76a91490979e55fc598d76d5016a676aa35c07d3a2d24b88ac", "addresses": ["1EBXwGB4q13qtm6ViYYF7kA4yVfwm8TdHr"], "asm": "OP_DUP OP_HASH160 90979e55fc598d76d5016a676aa35c07d3a2d24b OP_EQUALVERIFY OP_CHECKSIG", "type": "pubkeyhash"}, "value": 0.11567739, "n": 1}], "hex": "0100000001d109e14b82682b2e011b8a94e3af80b2acf50bfbf2ee68459fdafbfb75c0116c010000006b483045022100b901cc18093ad3e1ff25e75433445af7faf8c71dd7219822e7dfbae5290fd80202205bc7867baea8fb8f86b301825689e9527048a4c73fc21bb8a3c7b0eb502f1440012103e4d443f5119124c2927d535538db82183e24aa9ef88d538fa6c29dd642e7cd2fffffffff023ca21300000000001976a9146ffd2c3294fda639e87f80a0c44e72d2b48e009d88ac7b82b000000000001976a91490979e55fc598d76d5016a676aa35c07d3a2d24b88ac00000000", "vin": [{"sequence": 4294967295, "scriptSig": {"hex": "483045022100b901cc18093ad3e1ff25e75433445af7faf8c71dd7219822e7dfbae5290fd80202205bc7867baea8fb8f86b301825689e9527048a4c73fc21bb8a3c7b0eb502f1440012103e4d443f5119124c2927d535538db82183e24aa9ef88d538fa6c29dd642e7cd2f", "asm": "3045022100b901cc18093ad3e1ff25e75433445af7faf8c71dd7219822e7dfbae5290fd80202205bc7867baea8fb8f86b301825689e9527048a4c73fc21bb8a3c7b0eb502f1440[ALL] 03e4d443f5119124c2927d535538db82183e24aa9ef88d538fa6c29dd642e7cd2f"}, "vout": 1, "txid": "6c11c075fbfbda9f4568eef2fb0bf5acb280afe3948a1b012e2b68824be109d1"}], "txid": "ec478882f1bbf1d4cfa6669ca4c2049e3fa69db48ab19abe4ffbd89b03f65a4f", "blocktime": 1537875543, "version": 1, "confirmations": 11464, "time": 1537875543, "locktime": 0, "vsize": 226, "size": 226}