{"hash": "ec485a4eb1765960df01e8e20d698edf40f1bb0321198a920fb98b9ee8ed08e8", "blockhash": "00000000000000000024a2167bbff67b0be802c0b01cdd79e6331c2be6459f87", "vout": [{"scriptPubKey": {"reqSigs": 1, "hex": "76a9146a979601a7cb6507040e46a7b40d153f30e071ef88ac", "addresses": ["1AicDiG2GbdTt9oHEyFgoP9MkpFpu7A9nn"], "asm": "OP_DUP OP_HASH160 6a979601a7cb6507040e46a7b40d153f30e071ef OP_EQUALVERIFY OP_CHECKSIG", "type": "pubkeyhash"}, "value": 0.00312466, "n": 0}, {"scriptPubKey": {"reqSigs": 1, "hex": "76a914f9f67ad8c23357556452e261a2a27cf453843bfe88ac", "addresses": ["1PngXVGXaeN8NDmx76uFDA6bR4BDcZXmL9"], "asm": "OP_DUP OP_HASH160 f9f67ad8c23357556452e261a2a27cf453843bfe OP_EQUALVERIFY OP_CHECKSIG", "type": "pubkeyhash"}, "value": 0.04510966, "n": 1}], "hex": "0100000001b8594bb05bf2ba890fc2502f705815f83f08b60d74e49f26b1ccaddc687681c3010000006a47304402204143a0730e112c0ab1083a94fc765e13188313f820eefed0dc2e871b49870dc402204d45e8b4aa6eec3086451864f75033495cb536832137685b8b1c4908590a4070012103db46f2f5fb02358629f1409e10d1d0a67ae792284ed5a6ae60d595ef75561804ffffffff0292c40400000000001976a9146a979601a7cb6507040e46a7b40d153f30e071ef88acf6d44400000000001976a914f9f67ad8c23357556452e261a2a27cf453843bfe88ac00000000", "vin": [{"sequence": 4294967295, "scriptSig": {"hex": "47304402204143a0730e112c0ab1083a94fc765e13188313f820eefed0dc2e871b49870dc402204d45e8b4aa6eec3086451864f75033495cb536832137685b8b1c4908590a4070012103db46f2f5fb02358629f1409e10d1d0a67ae792284ed5a6ae60d595ef75561804", "asm": "304402204143a0730e112c0ab1083a94fc765e13188313f820eefed0dc2e871b49870dc402204d45e8b4aa6eec3086451864f75033495cb536832137685b8b1c4908590a4070[ALL] 03db46f2f5fb02358629f1409e10d1d0a67ae792284ed5a6ae60d595ef75561804"}, "vout": 1, "txid": "c3817668dcadccb1269fe4740db6083ff81558702f50c20f89baf25bb04b59b8"}], "txid": "ec485a4eb1765960df01e8e20d698edf40f1bb0321198a920fb98b9ee8ed08e8", "blocktime": 1537870564, "version": 1, "confirmations": 11515, "time": 1537870564, "locktime": 0, "vsize": 225, "size": 225}