{"hash": "ec4ca1fd185af2ccbc0d4214e323e2cee6ef150eba221ec26f0ac68f48009554", "blockhash": "00000000000000000004ffacab907a6b429b9a5745fa0b75af4234bf69dd7176", "vout": [{"scriptPubKey": {"reqSigs": 1, "hex": "76a91418741d407e5bd36a8f22232a4a9bbbaa1748b64b88ac", "addresses": ["13EJKN9Fuy6omWzPgKz9B7aUAQdXnQefRJ"], "asm": "OP_DUP OP_HASH160 18741d407e5bd36a8f22232a4a9bbbaa1748b64b OP_EQUALVERIFY OP_CHECKSIG", "type": "pubkeyhash"}, "value": 0.17955557, "n": 0}, {"scriptPubKey": {"reqSigs": 1, "hex": "76a914640c29049c3f64aef4184ae7b9caaf250707e26088ac", "addresses": ["1A8196F6nDGLjt1hz1JRN57rkB83xuTRnq"], "asm": "OP_DUP OP_HASH160 640c29049c3f64aef4184ae7b9caaf250707e260 OP_EQUALVERIFY OP_CHECKSIG", "type": "pubkeyhash"}, "value": 1.91019411, "n": 1}], "hex": "0100000001cf5ba1cbea00a0af117e1d2e8e84412a55fc7e519b297a1d22a0b9e914727fac010000006a47304402202ea7463acee78e3ec860b69a07e482ba071fe248118784f857d9861a53e093eb022076b0a18579512aa32e6e3571d87d12ebc7bfd2d786fa171583ba2a354b4ba7c2012102de386ad41f1f8a3f4a7ef6223e11ab68d710a0d631bb660d06b1fdd4e3ecf96fffffffff02e5fa1101000000001976a91418741d407e5bd36a8f22232a4a9bbbaa1748b64b88ac93b9620b000000001976a914640c29049c3f64aef4184ae7b9caaf250707e26088ac00000000", "vin": [{"sequence": 4294967295, "scriptSig": {"hex": "47304402202ea7463acee78e3ec860b69a07e482ba071fe248118784f857d9861a53e093eb022076b0a18579512aa32e6e3571d87d12ebc7bfd2d786fa171583ba2a354b4ba7c2012102de386ad41f1f8a3f4a7ef6223e11ab68d710a0d631bb660d06b1fdd4e3ecf96f", "asm": "304402202ea7463acee78e3ec860b69a07e482ba071fe248118784f857d9861a53e093eb022076b0a18579512aa32e6e3571d87d12ebc7bfd2d786fa171583ba2a354b4ba7c2[ALL] 02de386ad41f1f8a3f4a7ef6223e11ab68d710a0d631bb660d06b1fdd4e3ecf96f"}, "vout": 1, "txid": "ac7f7214e9b9a0221d7a299b517efc552a41848e2e1d7e11afa000eacba15bcf"}], "txid": "ec4ca1fd185af2ccbc0d4214e323e2cee6ef150eba221ec26f0ac68f48009554", "blocktime": 1537875543, "version": 1, "confirmations": 11464, "time": 1537875543, "locktime": 0, "vsize": 225, "size": 225}