{"hash": "ac4793a1509b8b3ea437d784493c2f9c5077b6a4f47710f30f8581279470c2b2", "blockhash": "0000000000000000000e13cef7c366c0283d82e591d1acd082e914b08063cdf1", "vout": [{"scriptPubKey": {"reqSigs": 1, "hex": "76a9142082d289c3637e2caf92b9a0a425e5db14f83f0f88ac", "addresses": ["13xuLqgP8x1ra1qKpjDdXKdY9NoPuqqyis"], "asm": "OP_DUP OP_HASH160 2082d289c3637e2caf92b9a0a425e5db14f83f0f OP_EQUALVERIFY OP_CHECKSIG", "type": "pubkeyhash"}, "value": 0.0779579, "n": 0}, {"scriptPubKey": {"reqSigs": 1, "hex": "001454389a462dfbe37f06b3a1bb10e1d29a53a99463", "addresses": ["bc1q2suf533dl03h7p4n5xa3pcwjnff6n9rrga93nv"], "asm": "0 54389a462dfbe37f06b3a1bb10e1d29a53a99463", "type": "witness_v0_keyhash"}, "value": 0.33128637, "n": 1}], "hex": "010000000001014435ae7af97d507195e7f209a938497c38533d57ed8d230b99a7a6232f47f6a00000000017160014415e551b3e50e43245deff588e413b4abac814bcffffffff024ef47600000000001976a9142082d289c3637e2caf92b9a0a425e5db14f83f0f88acbd80f9010000000016001454389a462dfbe37f06b3a1bb10e1d29a53a9946302473044022021ad86276ed51bbc5f74bedf8cdb29ca94ad241e95044c556c5b1b406082f2e002205f0025a54030a94d49aa51be8f01a5278ab12f9b5485e18615a07fd3ceef9682012102a991db532a1f84f7f2549eebeeecc89d15903e0a97c8ddcd7d351478644b62c700000000", "vin": [{"txinwitness": ["3044022021ad86276ed51bbc5f74bedf8cdb29ca94ad241e95044c556c5b1b406082f2e002205f0025a54030a94d49aa51be8f01a5278ab12f9b5485e18615a07fd3ceef968201", "02a991db532a1f84f7f2549eebeeecc89d15903e0a97c8ddcd7d351478644b62c7"], "sequence": 4294967295, "scriptSig": {"hex": "160014415e551b3e50e43245deff588e413b4abac814bc", "asm": "0014415e551b3e50e43245deff588e413b4abac814bc"}, "vout": 0, "txid": "a0f6472f23a6a7990b238ded573d53387c4938a909f2e79571507df97aae3544"}], "txid": "ec4cea755517ee8706babd23de77ea2ef0a9b35a9e7641d78654f3a597791c62", "blocktime": 1537871767, "version": 1, "confirmations": 11495, "time": 1537871767, "locktime": 0, "vsize": 167, "size": 248}