{"hash": "ec4ccc4536a3d41a3849701775fd392c2ba4572a5d4ca6ea0cee079e1c774704", "blockhash": "00000000000000000018f53835495a110e01622372bf6ae95dc86f2b0ab887b0", "vout": [{"scriptPubKey": {"reqSigs": 1, "hex": "76a9148cd1e3beafb9d22e76b9d1dc0f10caf75ed2126c88ac", "addresses": ["1Dqb3F7USEP1Ar7SGUzSgp7efnPiYqUR2R"], "asm": "OP_DUP OP_HASH160 8cd1e3beafb9d22e76b9d1dc0f10caf75ed2126c OP_EQUALVERIFY OP_CHECKSIG", "type": "pubkeyhash"}, "value": 3e-05, "n": 0}, {"scriptPubKey": {"reqSigs": 1, "hex": "76a9149050cd3c4d420787b9f6c88935e908774b2b335c88ac", "addresses": ["1EA56pofSFpXLuit2zHKwgToGALzhRU95n"], "asm": "OP_DUP OP_HASH160 9050cd3c4d420787b9f6c88935e908774b2b335c OP_EQUALVERIFY OP_CHECKSIG", "type": "pubkeyhash"}, "value": 0.09830221, "n": 1}], "hex": "0100000001ba71ad3d3d720e033cc8d858556ebee0f291bb1ae18f1352c5c1e5c363e5f496000000006a473044022019324936a7329ece8549dff33759bba758c0415df603d2fca496e3911ccbe3dc02201fc4b52bede843f76b50ea713680b3a3cf347762bb2d76532f9f78d9f1ab5c2b012103a929bac3f2913aa81d2514929025fb27c568d693de034022fe49112dbbba0fd3feffffff02b80b0000000000001976a9148cd1e3beafb9d22e76b9d1dc0f10caf75ed2126c88ac4dff9500000000001976a9149050cd3c4d420787b9f6c88935e908774b2b335c88ac0e490800", "vin": [{"sequence": 4294967294, "scriptSig": {"hex": "473044022019324936a7329ece8549dff33759bba758c0415df603d2fca496e3911ccbe3dc02201fc4b52bede843f76b50ea713680b3a3cf347762bb2d76532f9f78d9f1ab5c2b012103a929bac3f2913aa81d2514929025fb27c568d693de034022fe49112dbbba0fd3", "asm": "3044022019324936a7329ece8549dff33759bba758c0415df603d2fca496e3911ccbe3dc02201fc4b52bede843f76b50ea713680b3a3cf347762bb2d76532f9f78d9f1ab5c2b[ALL] 03a929bac3f2913aa81d2514929025fb27c568d693de034022fe49112dbbba0fd3"}, "vout": 0, "txid": "96f4e563c3e5c1c552138fe11abb91f2e0be6e5558d8c83c030e723d3dad71ba"}], "txid": "ec4ccc4536a3d41a3849701775fd392c2ba4572a5d4ca6ea0cee079e1c774704", "blocktime": 1537870928, "version": 1, "confirmations": 11514, "time": 1537870928, "locktime": 542990, "vsize": 225, "size": 225}