{"hash": "ec51730e945df95e374863bb988a3f31a624262901a7d9c00ab89fd6c1ea8846", "blockhash": "0000000000000000000e13cef7c366c0283d82e591d1acd082e914b08063cdf1", "vout": [{"scriptPubKey": {"reqSigs": 1, "hex": "76a9142a5053c810c233d7fdeccf6862b1455e32d68fa688ac", "addresses": ["14rjcJ2VeozyNern1kGC49EJTgAan4io7L"], "asm": "OP_DUP OP_HASH160 2a5053c810c233d7fdeccf6862b1455e32d68fa6 OP_EQUALVERIFY OP_CHECKSIG", "type": "pubkeyhash"}, "value": 0.00042515, "n": 0}, {"scriptPubKey": {"reqSigs": 1, "hex": "a914de778bd701090de4e61817752faf68c83c1408fe87", "addresses": ["3MyK9MCkQbqmNuKFfWhc88wTteg32oWeTw"], "asm": "OP_HASH160 de778bd701090de4e61817752faf68c83c1408fe OP_EQUAL", "type": "scripthash"}, "value": 0.0007851, "n": 1}], "hex": "010000000117cf6589e423cef1d831f4e35fb6d3e66a5b5b1db1f8d071492161546f99bce000000000fdfe0000483045022100b91f6b3e3e907c87586c17f5a995788b03d737ef15a097b373749d7208d54d3d02201c1073532e6e1174c98639652745e343068a5afbf2e507357e4598b979fff5d801483045022100e790c1967741bcc2c10beee328c29b421e670e4a3bfd26eb0e8a4ebc8e7babe702200cde1442e4fda034e3fee457a295b23164f3bd6acf83188090bbeed9d79df322014c695221039fe3fe255f57666da5943abcbe75f2c33528976911fe9d287db7563ffc73589c210205160f65ec8ac13363b1b2e69dc63e0f3f624af90561a42bfb6fe951694ce1492103a9a763296179f6ca37d56ff3c213f9f5013eb64537d004015d45db116bbf738b53aeffffffff0213a60000000000001976a9142a5053c810c233d7fdeccf6862b1455e32d68fa688acae3201000000000017a914de778bd701090de4e61817752faf68c83c1408fe8700000000", "vin": [{"sequence": 4294967295, "scriptSig": {"hex": "00483045022100b91f6b3e3e907c87586c17f5a995788b03d737ef15a097b373749d7208d54d3d02201c1073532e6e1174c98639652745e343068a5afbf2e507357e4598b979fff5d801483045022100e790c1967741bcc2c10beee328c29b421e670e4a3bfd26eb0e8a4ebc8e7babe702200cde1442e4fda034e3fee457a295b23164f3bd6acf83188090bbeed9d79df322014c695221039fe3fe255f57666da5943abcbe75f2c33528976911fe9d287db7563ffc73589c210205160f65ec8ac13363b1b2e69dc63e0f3f624af90561a42bfb6fe951694ce1492103a9a763296179f6ca37d56ff3c213f9f5013eb64537d004015d45db116bbf738b53ae", "asm": "0 3045022100b91f6b3e3e907c87586c17f5a995788b03d737ef15a097b373749d7208d54d3d02201c1073532e6e1174c98639652745e343068a5afbf2e507357e4598b979fff5d8[ALL] 3045022100e790c1967741bcc2c10beee328c29b421e670e4a3bfd26eb0e8a4ebc8e7babe702200cde1442e4fda034e3fee457a295b23164f3bd6acf83188090bbeed9d79df322[ALL] 5221039fe3fe255f57666da5943abcbe75f2c33528976911fe9d287db7563ffc73589c210205160f65ec8ac13363b1b2e69dc63e0f3f624af90561a42bfb6fe951694ce1492103a9a763296179f6ca37d56ff3c213f9f5013eb64537d004015d45db116bbf738b53ae"}, "vout": 0, "txid": "e0bc996f5461214971d0f8b11d5b5b6ae6d3b65fe3f431d8f1ce23e48965cf17"}], "txid": "ec51730e945df95e374863bb988a3f31a624262901a7d9c00ab89fd6c1ea8846", "blocktime": 1537871767, "version": 1, "confirmations": 11495, "time": 1537871767, "locktime": 0, "vsize": 373, "size": 373}