{"hash": "2d46bc5fb16d45f714e65aeb12a988e721eb0409f17aa72262976035b08c6e33", "blockhash": "000000000000000000022b45ed06c6f4ccd3cf7fb5ba4856ebd2e58215665228", "vout": [{"scriptPubKey": {"reqSigs": 1, "hex": "a914cfaabfe8c271f99a4364b5197ba50c6cddb7adb987", "addresses": ["3Ld4M9RPwEG3VeQbHcC1PsKUndQL7VYLZP"], "asm": "OP_HASH160 cfaabfe8c271f99a4364b5197ba50c6cddb7adb9 OP_EQUAL", "type": "scripthash"}, "value": 0.00630754, "n": 0}, {"scriptPubKey": {"reqSigs": 1, "hex": "a91468d36d613f0f4a2a80e94aff62af48929bbc346587", "addresses": ["3BFHUibimQEy8BX98h7Daarc7d2AJWk5GD"], "asm": "OP_HASH160 68d36d613f0f4a2a80e94aff62af48929bbc3465 OP_EQUAL", "type": "scripthash"}, "value": 0.19796841, "n": 1}], "hex": "010000000001019d50229c360e34c682e04b5af1813ff300a7af6ededbba2abfa644a88ece0e21010000002322002071f6a045e10971fe5102e451526c39305e142d73d8ae295c78bef0f99bbb2ee2ffffffff02e29f09000000000017a914cfaabfe8c271f99a4364b5197ba50c6cddb7adb98769132e010000000017a91468d36d613f0f4a2a80e94aff62af48929bbc346587040047304402203b06e210fed2bcfcdbc9aff9119b7eea14e8ec7469ae32d05efcbded093480de0220450ddc27760119ae9d5436d2a2c842ef0927ebab420b1db70402eea32fb9e79801473044022043c0c1d66007cc9f4a6e0d7f0fdd6cb5fea84342ffdc341abf53a3a87917d2e90220126db0406c0e6f1b256adf1847ecf665a85a16a311161c4d2cfea1e5014fd1e30147522103bc365ccd8f2384b9a11b0ba9a28e29b3f16a144f43bbac8587c5ec67450794bf21033e4af03ed09dbd8a417ba042650d5bd1db7f14f271a8f660974e3abf1fdfa4da52ae00000000", "vin": [{"txinwitness": ["", "304402203b06e210fed2bcfcdbc9aff9119b7eea14e8ec7469ae32d05efcbded093480de0220450ddc27760119ae9d5436d2a2c842ef0927ebab420b1db70402eea32fb9e79801", "3044022043c0c1d66007cc9f4a6e0d7f0fdd6cb5fea84342ffdc341abf53a3a87917d2e90220126db0406c0e6f1b256adf1847ecf665a85a16a311161c4d2cfea1e5014fd1e301", "522103bc365ccd8f2384b9a11b0ba9a28e29b3f16a144f43bbac8587c5ec67450794bf21033e4af03ed09dbd8a417ba042650d5bd1db7f14f271a8f660974e3abf1fdfa4da52ae"], "sequence": 4294967295, "scriptSig": {"hex": "22002071f6a045e10971fe5102e451526c39305e142d73d8ae295c78bef0f99bbb2ee2", "asm": "002071f6a045e10971fe5102e451526c39305e142d73d8ae295c78bef0f99bbb2ee2"}, "vout": 1, "txid": "210ece8ea844a6bf2abadbde6eafa700f33f81f15a4be082c6340e369c22509d"}], "txid": "ec53baf151796e70795370adc7f216705f27e59ae657b121b977a35a44aee90a", "blocktime": 1537869901, "version": 1, "confirmations": 11523, "time": 1537869901, "locktime": 0, "vsize": 205, "size": 370}