{"hash": "ae2cd6714e77e3e9c554dac476238d0f4a843267cb95fdd1e492ad3a934f37a2", "blockhash": "0000000000000000001f76057863aec43deb6fa401d9628bb513d65a8098bfab", "vout": [{"scriptPubKey": {"reqSigs": 1, "hex": "a914d0282594929b6e68df7aae0aaf573b1f50d5a75f87", "addresses": ["3LfeZtk4jRTsYTeQbNjG2wTMaqncg4vcZQ"], "asm": "OP_HASH160 d0282594929b6e68df7aae0aaf573b1f50d5a75f OP_EQUAL", "type": "scripthash"}, "value": 0.04363757, "n": 0}, {"scriptPubKey": {"reqSigs": 1, "hex": "76a9141552d6c0e8393d672cdaf60779d9a48adf4a833788ac", "addresses": ["12wkRmwRLNZ6rFJFmMtp2tYydPvQ8VqZjz"], "asm": "OP_DUP OP_HASH160 1552d6c0e8393d672cdaf60779d9a48adf4a8337 OP_EQUALVERIFY OP_CHECKSIG", "type": "pubkeyhash"}, "value": 0.00177566, "n": 1}, {"scriptPubKey": {"reqSigs": 1, "hex": "a914eb0cfd6045902c993f661a372e6c4d96fe9550fd87", "addresses": ["3P7rHAfxvBxcpZ8cBzSjTJSvFe7iUfPmxv"], "asm": "OP_HASH160 eb0cfd6045902c993f661a372e6c4d96fe9550fd OP_EQUAL", "type": "scripthash"}, "value": 0.0232738, "n": 2}, {"scriptPubKey": {"reqSigs": 1, "hex": "76a9143e89835f2dec02e4a06817538eb47c68249570bb88ac", "addresses": ["16hfdUcengiPFD8MBL51AnkL4ThnBJamyx"], "asm": "OP_DUP OP_HASH160 3e89835f2dec02e4a06817538eb47c68249570bb OP_EQUALVERIFY OP_CHECKSIG", "type": "pubkeyhash"}, "value": 0.002346, "n": 3}, {"scriptPubKey": {"reqSigs": 1, "hex": "a914aa72dd9bc0813005b2677a2d03801b6690b7c8cc87", "addresses": ["3HEGQAH1XqGbkfdvWJ9xiXdRG8KJ34dr8v"], "asm": "OP_HASH160 aa72dd9bc0813005b2677a2d03801b6690b7c8cc OP_EQUAL", "type": "scripthash"}, "value": 0.007788, "n": 4}, {"scriptPubKey": {"reqSigs": 1, "hex": "a9141988a27e3c2df4ddee7fad5a2303d086179b2a3087", "addresses": ["3422VtS7UtCvXYxoXMVp6eZupR252z85oC"], "asm": "OP_HASH160 1988a27e3c2df4ddee7fad5a2303d086179b2a30 OP_EQUAL", "type": "scripthash"}, "value": 1.1981993, "n": 5}], "hex": "010000000001012e35818de3ac54267aac6e3a44cbefc348c319f6e2d609f35312857e9e31eaf501000000232200202035e78a6b34d583ad0a874b80ee41a0507b92cf0b671656108f594c7f75ca90ffffffff06ed9542000000000017a914d0282594929b6e68df7aae0aaf573b1f50d5a75f879eb50200000000001976a9141552d6c0e8393d672cdaf60779d9a48adf4a833788ac548323000000000017a914eb0cfd6045902c993f661a372e6c4d96fe9550fd8768940300000000001976a9143e89835f2dec02e4a06817538eb47c68249570bb88ac30e20b000000000017a914aa72dd9bc0813005b2677a2d03801b6690b7c8cc879a4e24070000000017a9141988a27e3c2df4ddee7fad5a2303d086179b2a30870400483045022100d15b2ca737596b8bdb83ec2f0dfcef2c406e92f47910c2d384055fe2e2c84b190220223cd5e8b53cb7584224e7c3caa219485fb3bd70796abf238d25cef287841f4e01483045022100a77b1e54b0fec54feec4d82ec922b6676b12df895f510bd38d47a60257d65d8a02204ecd5869010d8303581ece4f5a7cdcebee8f9f3be4fa895ea58cba97ce61ffa401695221029103d1dfbbee9ea5249ee0b03ca59e08291ce34a7467513edf8ea767b5aa26382103dce07bea5905a1c3e70f86c1f74f0e98e7cf3b6f5d02226a4c531c9e930c613b210268d8878afaf4b55118519d8520fe0db27f9596a812d4378f4bf4a96a5333694653ae00000000", "vin": [{"txinwitness": ["", "3045022100d15b2ca737596b8bdb83ec2f0dfcef2c406e92f47910c2d384055fe2e2c84b190220223cd5e8b53cb7584224e7c3caa219485fb3bd70796abf238d25cef287841f4e01", "3045022100a77b1e54b0fec54feec4d82ec922b6676b12df895f510bd38d47a60257d65d8a02204ecd5869010d8303581ece4f5a7cdcebee8f9f3be4fa895ea58cba97ce61ffa401", "5221029103d1dfbbee9ea5249ee0b03ca59e08291ce34a7467513edf8ea767b5aa26382103dce07bea5905a1c3e70f86c1f74f0e98e7cf3b6f5d02226a4c531c9e930c613b210268d8878afaf4b55118519d8520fe0db27f9596a812d4378f4bf4a96a5333694653ae"], "sequence": 4294967295, "scriptSig": {"hex": "2200202035e78a6b34d583ad0a874b80ee41a0507b92cf0b671656108f594c7f75ca90", "asm": "00202035e78a6b34d583ad0a874b80ee41a0507b92cf0b671656108f594c7f75ca90"}, "vout": 1, "txid": "f5ea319e7e851253f309d6e2f619c348c3efcb443a6eac7a2654ace38d81352e"}], "txid": "ec552834c334332ce953b32aa3ff8d1e9587ca6764e9ab6d98d301226134aa6b", "blocktime": 1537873891, "version": 1, "confirmations": 11475, "time": 1537873891, "locktime": 0, "vsize": 346, "size": 538}