{"hash": "e4c87b0a9b87f8d550d93e33c1e73c3fa45ad33fd36f40fcbaded8bcd340800c", "blockhash": "0000000000000000000e13cef7c366c0283d82e591d1acd082e914b08063cdf1", "vout": [{"scriptPubKey": {"reqSigs": 1, "hex": "a914b3b29311269cdeda33e1de875dc47d2d5cbbb83787", "addresses": ["3J5AoTGuPRMG5cLNoK2vor5igMS2grxoff"], "asm": "OP_HASH160 b3b29311269cdeda33e1de875dc47d2d5cbbb837 OP_EQUAL", "type": "scripthash"}, "value": 0.19534978, "n": 0}, {"scriptPubKey": {"reqSigs": 1, "hex": "76a914cc95f18efb675c208f6891e5b2dfb0e8e86bcbb488ac", "addresses": ["1KekUPzyK9uZDVjorVn4ZsByPm8b8W5eeN"], "asm": "OP_DUP OP_HASH160 cc95f18efb675c208f6891e5b2dfb0e8e86bcbb4 OP_EQUALVERIFY OP_CHECKSIG", "type": "pubkeyhash"}, "value": 0.00854596, "n": 1}], "hex": "01000000000101c36a39af7fda14477895895ee02555a849d10dc1af45092b17325292e1b7f4d30000000023220020b3b1a27744a55ee33ce11894b9eefe4cb369b3ad324bce04f1d7b6f4ffeac023ffffffff0282142a010000000017a914b3b29311269cdeda33e1de875dc47d2d5cbbb83787440a0d00000000001976a914cc95f18efb675c208f6891e5b2dfb0e8e86bcbb488ac0400483045022100bffcb91fcbcf4030627e647eff4db50d663126cba8e89314387f60fcc3f1e07502207b70c005ff6ed533582d68f63f005530213e5e6caf3d96c0ff152c324211dbf101463043022017dc2850e43af6b80b8e96eb7d4070a80c4f760c50833638e04f8c5bea4c705e021f1311eceec855ac9c4f888f075aad9c31cf63281342653a8eb471ebd92ead100169522103e9b5ea0fa4b3c8b84936c37864d15cbaafcaaee479bbe32b9459c035063d85d52103177335af2dc48b4a0c259f7c81dce6a56a50c2e57e35f1f6b9bfa01f902998d4210218fae3f192d5b49ba926416fc27582fed3cd287014d8cf3202c1a6c7416dc31153ae00000000", "vin": [{"txinwitness": ["", "3045022100bffcb91fcbcf4030627e647eff4db50d663126cba8e89314387f60fcc3f1e07502207b70c005ff6ed533582d68f63f005530213e5e6caf3d96c0ff152c324211dbf101", "3043022017dc2850e43af6b80b8e96eb7d4070a80c4f760c50833638e04f8c5bea4c705e021f1311eceec855ac9c4f888f075aad9c31cf63281342653a8eb471ebd92ead1001", "522103e9b5ea0fa4b3c8b84936c37864d15cbaafcaaee479bbe32b9459c035063d85d52103177335af2dc48b4a0c259f7c81dce6a56a50c2e57e35f1f6b9bfa01f902998d4210218fae3f192d5b49ba926416fc27582fed3cd287014d8cf3202c1a6c7416dc31153ae"], "sequence": 4294967295, "scriptSig": {"hex": "220020b3b1a27744a55ee33ce11894b9eefe4cb369b3ad324bce04f1d7b6f4ffeac023", "asm": "0020b3b1a27744a55ee33ce11894b9eefe4cb369b3ad324bce04f1d7b6f4ffeac023"}, "vout": 0, "txid": "d3f4b7e1925232172b0945afc10dd149a85525e05e8995784714da7faf396ac3"}], "txid": "ec5716f7caf15b87caa68f0cbc82663432ad8696ab0c72d0bbddd6d232ee089d", "blocktime": 1537871767, "version": 1, "confirmations": 11495, "time": 1537871767, "locktime": 0, "vsize": 216, "size": 406}