{"hash": "4d6f83d45965df32225ed3b8b129929e7f94e3eca764518c5641e629c192888c", "blockhash": "00000000000000000024a2167bbff67b0be802c0b01cdd79e6331c2be6459f87", "vout": [{"scriptPubKey": {"reqSigs": 1, "hex": "76a9146a3cb13bb3fa9eac493b7c3a06bee1f02f4e141888ac", "addresses": ["1AgjLJzN2DkBrqR7t4DUPwHHtKg4UzkFE8"], "asm": "OP_DUP OP_HASH160 6a3cb13bb3fa9eac493b7c3a06bee1f02f4e1418 OP_EQUALVERIFY OP_CHECKSIG", "type": "pubkeyhash"}, "value": 0.0311799, "n": 0}, {"scriptPubKey": {"reqSigs": 1, "hex": "a91415dbb7b73c88819d5d62587b497a4c028118f60887", "addresses": ["33gbKpbZa4dPkKU4cnYsyd8oQTNjMdTeyG"], "asm": "OP_HASH160 15dbb7b73c88819d5d62587b497a4c028118f608 OP_EQUAL", "type": "scripthash"}, "value": 0.01382848, "n": 1}], "hex": "02000000000102090c2d7ba5036b0acbf3bd07ac9e508715f055ab624ae98606a2179ca3abf58901000000171600148dc121628bfad500d002bb193b988cdcd2996bcffeffffff361b6f39bc19c6bf6b450f9701c42646a62aaaf9a764e78a27c2254b6d0d53d40200000017160014a0dec66cbeefc544671ddd46568019388977a980feffffff02a6932f00000000001976a9146a3cb13bb3fa9eac493b7c3a06bee1f02f4e141888acc01915000000000017a91415dbb7b73c88819d5d62587b497a4c028118f6088702483045022100ae9f6d082eeec687441ee7b4524dd75d153e48110918133e9c785e9e7b3c2bda02204ab5b4985eff2e87a803f8df9556eaca83c9fdf37140ce883ae474abef41dcfa012102b0f5fddd1400155a5213074b458c1f415be36668a2a7f882b536c97ab888d87502473044022074d3d7db664e72433cc22a4084891b042e1cb7ebdc084d7f8fd1d6ed21945ac202203b8dc38353790239dc96c93124cc51caf7dc3ca39882efbf934bb64d69a45c78012103ebff28648c248877b48249c14e8ac15cb0b45ac922ab42175971dc7bd9939f290d490800", "vin": [{"txinwitness": ["3045022100ae9f6d082eeec687441ee7b4524dd75d153e48110918133e9c785e9e7b3c2bda02204ab5b4985eff2e87a803f8df9556eaca83c9fdf37140ce883ae474abef41dcfa01", "02b0f5fddd1400155a5213074b458c1f415be36668a2a7f882b536c97ab888d875"], "sequence": 4294967294, "scriptSig": {"hex": "1600148dc121628bfad500d002bb193b988cdcd2996bcf", "asm": "00148dc121628bfad500d002bb193b988cdcd2996bcf"}, "vout": 1, "txid": "89f5aba39c17a20686e94a62ab55f01587509eac07bdf3cb0a6b03a57b2d0c09"}, {"txinwitness": ["3044022074d3d7db664e72433cc22a4084891b042e1cb7ebdc084d7f8fd1d6ed21945ac202203b8dc38353790239dc96c93124cc51caf7dc3ca39882efbf934bb64d69a45c7801", "03ebff28648c248877b48249c14e8ac15cb0b45ac922ab42175971dc7bd9939f29"], "sequence": 4294967294, "scriptSig": {"hex": "160014a0dec66cbeefc544671ddd46568019388977a980", "asm": "0014a0dec66cbeefc544671ddd46568019388977a980"}, "vout": 2, "txid": "d4530d6d4b25c2278ae764a7f9aa2aa64626c401970f456bbfc619bc396f1b36"}], "txid": "ec6165ee4830c9231f6462c2fe03fd8587b0cac1dfeb979f6fe766806784204e", "blocktime": 1537870564, "version": 2, "confirmations": 11515, "time": 1537870564, "locktime": 542989, "vsize": 259, "size": 421}