{"hash": "36a37e56cf5c05e911d72c884643b329f6a0b5d46d5eaca0e4d9bcc9db3cd81f", "blockhash": "00000000000000000017f5eb5941039fbcee6240d03bc1f2f8e35350df66a1d8", "vout": [{"scriptPubKey": {"reqSigs": 1, "hex": "76a9145765d151ed725076ca70edb9a867a436b6c7233a88ac", "addresses": ["18y7m72yCMavcJEG7DPQstZkUSUV5vt2hB"], "asm": "OP_DUP OP_HASH160 5765d151ed725076ca70edb9a867a436b6c7233a OP_EQUALVERIFY OP_CHECKSIG", "type": "pubkeyhash"}, "value": 0.0089, "n": 0}, {"scriptPubKey": {"reqSigs": 1, "hex": "a91406b58161417d7d2aec472e9cab9349f3c86c453e87", "addresses": ["32JVQuke4syD6GFRyYNjNshmfaiQjAmJy7"], "asm": "OP_HASH160 06b58161417d7d2aec472e9cab9349f3c86c453e OP_EQUAL", "type": "scripthash"}, "value": 0.00999323, "n": 1}], "hex": "02000000000102b17697a2ed9adb5af758b961dcf0b349481537d959979e41900c21a867ebe08301000000171600143e0472e97248a8e7788f283af14c3e1fd2014c3ffeffffffde987bff31615ab19eaa6f64973b29e20a7e5e449caf53b5e528b11648d7d864010000001716001490ae1d8636d15149f942b2b69a175dc7c04b4616feffffff0290940d00000000001976a9145765d151ed725076ca70edb9a867a436b6c7233a88ac9b3f0f000000000017a91406b58161417d7d2aec472e9cab9349f3c86c453e87024830450221009334429397b4ea304c003de14e4ee3e1d8c32fe62a761ffa17f226721f7c0e84022029f51ecc73baaefe31dc8729bface9d17ff6d434340574e80e5baa2acbf612a90121020e6037051efb662edfccaa19ac6bb05454ff78c42752366d6011df17f3ba418102483045022100aa611f14547bc68d01c814dadfe17e80449297afad9e370ee1ce37b92369290902206584e05826fdb904dab694f5a0b088b8f847f4c30ec30cd360c96e26806e09240121036555e921089eafebfc9cfa02d086dd242feb4d1674291256dee1b8a136a9621a15490800", "vin": [{"txinwitness": ["30450221009334429397b4ea304c003de14e4ee3e1d8c32fe62a761ffa17f226721f7c0e84022029f51ecc73baaefe31dc8729bface9d17ff6d434340574e80e5baa2acbf612a901", "020e6037051efb662edfccaa19ac6bb05454ff78c42752366d6011df17f3ba4181"], "sequence": 4294967294, "scriptSig": {"hex": "1600143e0472e97248a8e7788f283af14c3e1fd2014c3f", "asm": "00143e0472e97248a8e7788f283af14c3e1fd2014c3f"}, "vout": 1, "txid": "83e0eb67a8210c90419e9759d937154849b3f0dc61b958f75adb9aeda29776b1"}, {"txinwitness": ["3045022100aa611f14547bc68d01c814dadfe17e80449297afad9e370ee1ce37b92369290902206584e05826fdb904dab694f5a0b088b8f847f4c30ec30cd360c96e26806e092401", "036555e921089eafebfc9cfa02d086dd242feb4d1674291256dee1b8a136a9621a"], "sequence": 4294967294, "scriptSig": {"hex": "16001490ae1d8636d15149f942b2b69a175dc7c04b4616", "asm": "001490ae1d8636d15149f942b2b69a175dc7c04b4616"}, "vout": 1, "txid": "64d8d74816b128e5b553af9c445e7e0ae2293b97646faa9eb15a6131ff7b98de"}], "txid": "ec620a711bf2f2f0e77ec995aebc096dacaf6c240714d0e9daee963a795b1d3e", "blocktime": 1537874412, "version": 2, "confirmations": 11468, "time": 1537874412, "locktime": 542997, "vsize": 259, "size": 422}