{"hash": "ec69fb84ebc9f4dfdb842f7d93b08ff98420c1b5971fef52115871a6dcf2d5a2", "blockhash": "0000000000000000001f76057863aec43deb6fa401d9628bb513d65a8098bfab", "vout": [{"scriptPubKey": {"reqSigs": 1, "hex": "76a9143e7dcfd1c4ea442c66925cf5ef926ca811b6291288ac", "addresses": ["16hRcT7YsXNhoAUXmLQGfiD69ZvCxJteiq"], "asm": "OP_DUP OP_HASH160 3e7dcfd1c4ea442c66925cf5ef926ca811b62912 OP_EQUALVERIFY OP_CHECKSIG", "type": "pubkeyhash"}, "value": 0.005, "n": 0}, {"scriptPubKey": {"reqSigs": 1, "hex": "76a914b7cfb9bcc4771c1218b563298a11e60bf44a745188ac", "addresses": ["1HkuW8SXgVFHYjtQgDeWcPAqs9KoZ5aNTf"], "asm": "OP_DUP OP_HASH160 b7cfb9bcc4771c1218b563298a11e60bf44a7451 OP_EQUALVERIFY OP_CHECKSIG", "type": "pubkeyhash"}, "value": 0.00556008, "n": 1}], "hex": "01000000012e66e2d213d94082426040b8d1a01dce8bf49aa33d954cfd7f263efe5fa6f505010000006a4730440220407f4927953d1e30dcb95ffc09066eb815e94f898d9be8225182852a0dbd0ef20220758eec3b098a5c1cc7db0cde4f9d7ca33a6bedbefcd90dd36577ec6e8dd159a0012102c3afe86be30fa9289ada082428ff874423737e5379f394558bedc1d00189a39dfdffffff0220a10700000000001976a9143e7dcfd1c4ea442c66925cf5ef926ca811b6291288ace87b0800000000001976a914b7cfb9bcc4771c1218b563298a11e60bf44a745188ac14490800", "vin": [{"sequence": 4294967293, "scriptSig": {"hex": "4730440220407f4927953d1e30dcb95ffc09066eb815e94f898d9be8225182852a0dbd0ef20220758eec3b098a5c1cc7db0cde4f9d7ca33a6bedbefcd90dd36577ec6e8dd159a0012102c3afe86be30fa9289ada082428ff874423737e5379f394558bedc1d00189a39d", "asm": "30440220407f4927953d1e30dcb95ffc09066eb815e94f898d9be8225182852a0dbd0ef20220758eec3b098a5c1cc7db0cde4f9d7ca33a6bedbefcd90dd36577ec6e8dd159a0[ALL] 02c3afe86be30fa9289ada082428ff874423737e5379f394558bedc1d00189a39d"}, "vout": 1, "txid": "05f5a65ffe3e267ffd4c953da39af48bce1da0d1b84060428240d913d2e2662e"}], "txid": "ec69fb84ebc9f4dfdb842f7d93b08ff98420c1b5971fef52115871a6dcf2d5a2", "blocktime": 1537873891, "version": 1, "confirmations": 11477, "time": 1537873891, "locktime": 542996, "vsize": 225, "size": 225}