{"hash": "ec6bd19e1aa8356074ff7b5bf03e0c24633228f93d3d10d9197856558f46675d", "blockhash": "0000000000000000000dcc0f55137456b1a82d3642486a52398922ac4d620174", "vout": [{"scriptPubKey": {"reqSigs": 1, "hex": "76a9145f97a96574843ebfe24dfcc607c3ca7b803874e088ac", "addresses": ["19iSss6yMgu3RQLnxQobCeFkV1GUCbRK3x"], "asm": "OP_DUP OP_HASH160 5f97a96574843ebfe24dfcc607c3ca7b803874e0 OP_EQUALVERIFY OP_CHECKSIG", "type": "pubkeyhash"}, "value": 0.24999321, "n": 0}], "hex": "0100000001eef9accf2b558038f3eb5ad260fad439d41d0573b3a508c7ee2bef2fbaa7e1e5010000006b483045022100cd18093639480aa86ff3db6081da740a56cd9518464167096d3a66be7b4e3b050220494c3cfff5e34dcd3f5e456c53ffe1b56b58fdb0bc16ae6f156b347889c4e5510121036857486758d73317c94473eab31563c269ef6b382d592d708c761da21b97af81ffffffff0199757d01000000001976a9145f97a96574843ebfe24dfcc607c3ca7b803874e088ac00000000", "vin": [{"sequence": 4294967295, "scriptSig": {"hex": "483045022100cd18093639480aa86ff3db6081da740a56cd9518464167096d3a66be7b4e3b050220494c3cfff5e34dcd3f5e456c53ffe1b56b58fdb0bc16ae6f156b347889c4e5510121036857486758d73317c94473eab31563c269ef6b382d592d708c761da21b97af81", "asm": "3045022100cd18093639480aa86ff3db6081da740a56cd9518464167096d3a66be7b4e3b050220494c3cfff5e34dcd3f5e456c53ffe1b56b58fdb0bc16ae6f156b347889c4e551[ALL] 036857486758d73317c94473eab31563c269ef6b382d592d708c761da21b97af81"}, "vout": 1, "txid": "e5e1a7ba2fef2beec708a5b373051dd439d4fa60d25aebf33880552bcfacf9ee"}], "txid": "ec6bd19e1aa8356074ff7b5bf03e0c24633228f93d3d10d9197856558f46675d", "blocktime": 1537870268, "version": 1, "confirmations": 11518, "time": 1537870268, "locktime": 0, "vsize": 192, "size": 192}