{"hash": "5c81a9134c6d5d35737c66ca8d738aefef0c9d999d4c149a040eb01e073a2100", "blockhash": "0000000000000000000e13cef7c366c0283d82e591d1acd082e914b08063cdf1", "vout": [{"scriptPubKey": {"reqSigs": 1, "hex": "76a91445b6a39dd01c97e0a708227bb3127fdaf80db6d688ac", "addresses": ["17McRE4uRDR9hM8a7wjQeiQbAArJiMXDL8"], "asm": "OP_DUP OP_HASH160 45b6a39dd01c97e0a708227bb3127fdaf80db6d6 OP_EQUALVERIFY OP_CHECKSIG", "type": "pubkeyhash"}, "value": 0.004356, "n": 0}, {"scriptPubKey": {"reqSigs": 1, "hex": "a91408c364340a91e77e4376b26fdad3b5aedc5661f787", "addresses": ["32VMQ7Th4qGhbDYY68FZrfSF9hTbsPivgt"], "asm": "OP_HASH160 08c364340a91e77e4376b26fdad3b5aedc5661f7 OP_EQUAL", "type": "scripthash"}, "value": 0.03523546, "n": 1}], "hex": "01000000000101408a52469040647a9b14e2f8ef97290595cd12b88e2b9e5972afe4f28a5f83e1010000002322002027561ef61439ff4994ea3793249bbb358319edb59fff63c1eeada48f299e81b5ffffffff0290a50600000000001976a91445b6a39dd01c97e0a708227bb3127fdaf80db6d688acdac335000000000017a91408c364340a91e77e4376b26fdad3b5aedc5661f787040047304402205143bd594f3e9c2cb66d36766ecf3210dbf6cae5dc9c259c04ac9180b8cf17b002201e44d960a63b39ef0dda8cd42d41409df170780e13d33834887148d72a73297701483045022100806e7336de6e4ed97cf6be7bf5e8a5984098ebbb0806832f8df10afd357cef0302204537924d76dab79601b8297fa1180b80465905ad7ac8df041751a01ddb230d760147522102f484437eae67e7d1f9cf7235bd52510c99f379408a1f6fe737011d4bc259358a2103871fc2ca08e6950b38867e8e6a0e94ee625223d3aa0df5c65f414c6d784467e252ae00000000", "vin": [{"txinwitness": ["", "304402205143bd594f3e9c2cb66d36766ecf3210dbf6cae5dc9c259c04ac9180b8cf17b002201e44d960a63b39ef0dda8cd42d41409df170780e13d33834887148d72a73297701", "3045022100806e7336de6e4ed97cf6be7bf5e8a5984098ebbb0806832f8df10afd357cef0302204537924d76dab79601b8297fa1180b80465905ad7ac8df041751a01ddb230d7601", "522102f484437eae67e7d1f9cf7235bd52510c99f379408a1f6fe737011d4bc259358a2103871fc2ca08e6950b38867e8e6a0e94ee625223d3aa0df5c65f414c6d784467e252ae"], "sequence": 4294967295, "scriptSig": {"hex": "22002027561ef61439ff4994ea3793249bbb358319edb59fff63c1eeada48f299e81b5", "asm": "002027561ef61439ff4994ea3793249bbb358319edb59fff63c1eeada48f299e81b5"}, "vout": 1, "txid": "e1835f8af2e4af72599e2b8eb812cd95052997eff8e2149b7a64409046528a40"}], "txid": "ec6f56f568db6ab44fcb23945bcb17de3209e89971b6e55bc61eee8c2296fb3a", "blocktime": 1537871767, "version": 1, "confirmations": 11495, "time": 1537871767, "locktime": 0, "vsize": 208, "size": 373}