{"hash": "ec72053040f5d099ec55eaad96b69788f87ad1e3b88c27613ce64454fa70932e", "blockhash": "0000000000000000001cda96e906b7601b7a6fb1a3b62bca570a9e5d8f4b3de1", "vout": [{"scriptPubKey": {"reqSigs": 1, "hex": "a9149bd51cc7176a7f8dbfb725a9ef87b099f209593a87", "addresses": ["3Ftyxb2dCUkSEtdJCsMQcHZFEN7e8hadXv"], "asm": "OP_HASH160 9bd51cc7176a7f8dbfb725a9ef87b099f209593a OP_EQUAL", "type": "scripthash"}, "value": 0.15052217, "n": 0}], "hex": "0100000004fdb33ff706cd683f2b7ce0e167f664e0156ce46c6067738bf81661020778e757000000006b483045022100f81d3112149e60ff3c5f0b0a507b3b0044c45084fd297a8fd579aea2bb86132302205be994ec6e4777893ef0d5954bc81d8288a519167246cd3d6f66c434bd9ccd74012102adea0eed2f95c090765b034cde7d68006110f10c71dbf805839f60d61825c557feffffff4b86ffae08e45b0c9f4cb4b2028d75a2a6b2154ac382297317d5d26183bc0c5d010000006a47304402201cf1839cbf4ac63391574cf6bf52e814520655b1a8a865ec6d88f48afa60d2ee0220532c9dcc3b0419b0a90b7589b372aa5c3fbea33d41032903d23634ac049e7dc0012103259f8ad5ba649f71f73bf9adea08309edc251a9a921d7e5084be93242bead3b2feffffff5c1657e62986027c73f7c7ff4f9f3d11e8095bd45530020b2fe0803f08ba7ec6000000006b483045022100d8982c3859fb123475e27ee38dbb63297975f6ae6dc4be68b9457797a9424c2c0220191547a6396226c3fbedd4ba345591789c3e988b8c89db67c8d8a9f7c343a09b0121028031d88630f3d0eb07994088a1c71823eb39c67a64737d37699cef7a9ae7aca3feffffff9e4f820af881a9e33746e9fb27df78033ea07a32a99a91bc63fe20548d678fd9010000006a47304402202e5878f87867dcd6787a6565fdd7611c38354a4e9e59a5eed4da3b8835cae93902205464325588375adc3a303fb7417c17d4a2c24694dac349d9789f5e5a8a3723b8012102036ea971fe8bec50277df3bc4a6f20e0c49611c76c70e5a40d7774fac3bceb71feffffff01b9ade5000000000017a9149bd51cc7176a7f8dbfb725a9ef87b099f209593a8713490800", "vin": [{"sequence": 4294967294, "scriptSig": {"hex": "483045022100f81d3112149e60ff3c5f0b0a507b3b0044c45084fd297a8fd579aea2bb86132302205be994ec6e4777893ef0d5954bc81d8288a519167246cd3d6f66c434bd9ccd74012102adea0eed2f95c090765b034cde7d68006110f10c71dbf805839f60d61825c557", "asm": "3045022100f81d3112149e60ff3c5f0b0a507b3b0044c45084fd297a8fd579aea2bb86132302205be994ec6e4777893ef0d5954bc81d8288a519167246cd3d6f66c434bd9ccd74[ALL] 02adea0eed2f95c090765b034cde7d68006110f10c71dbf805839f60d61825c557"}, "vout": 0, "txid": "57e77807026116f88b7367606ce46c15e064f667e1e07c2b3f68cd06f73fb3fd"}, {"sequence": 4294967294, "scriptSig": {"hex": "47304402201cf1839cbf4ac63391574cf6bf52e814520655b1a8a865ec6d88f48afa60d2ee0220532c9dcc3b0419b0a90b7589b372aa5c3fbea33d41032903d23634ac049e7dc0012103259f8ad5ba649f71f73bf9adea08309edc251a9a921d7e5084be93242bead3b2", "asm": "304402201cf1839cbf4ac63391574cf6bf52e814520655b1a8a865ec6d88f48afa60d2ee0220532c9dcc3b0419b0a90b7589b372aa5c3fbea33d41032903d23634ac049e7dc0[ALL] 03259f8ad5ba649f71f73bf9adea08309edc251a9a921d7e5084be93242bead3b2"}, "vout": 1, "txid": "5d0cbc8361d2d517732982c34a15b2a6a2758d02b2b44c9f0c5be408aeff864b"}, {"sequence": 4294967294, "scriptSig": {"hex": "483045022100d8982c3859fb123475e27ee38dbb63297975f6ae6dc4be68b9457797a9424c2c0220191547a6396226c3fbedd4ba345591789c3e988b8c89db67c8d8a9f7c343a09b0121028031d88630f3d0eb07994088a1c71823eb39c67a64737d37699cef7a9ae7aca3", "asm": "3045022100d8982c3859fb123475e27ee38dbb63297975f6ae6dc4be68b9457797a9424c2c0220191547a6396226c3fbedd4ba345591789c3e988b8c89db67c8d8a9f7c343a09b[ALL] 028031d88630f3d0eb07994088a1c71823eb39c67a64737d37699cef7a9ae7aca3"}, "vout": 0, "txid": "c67eba083f80e02f0b023055d45b09e8113d9f4fffc7f7737c028629e657165c"}, {"sequence": 4294967294, "scriptSig": {"hex": "47304402202e5878f87867dcd6787a6565fdd7611c38354a4e9e59a5eed4da3b8835cae93902205464325588375adc3a303fb7417c17d4a2c24694dac349d9789f5e5a8a3723b8012102036ea971fe8bec50277df3bc4a6f20e0c49611c76c70e5a40d7774fac3bceb71", "asm": "304402202e5878f87867dcd6787a6565fdd7611c38354a4e9e59a5eed4da3b8835cae93902205464325588375adc3a303fb7417c17d4a2c24694dac349d9789f5e5a8a3723b8[ALL] 02036ea971fe8bec50277df3bc4a6f20e0c49611c76c70e5a40d7774fac3bceb71"}, "vout": 1, "txid": "d98f678d5420fe63bc919aa9327aa03e0378df27fbe94637e3a981f80a824f9e"}], "txid": "ec72053040f5d099ec55eaad96b69788f87ad1e3b88c27613ce64454fa70932e", "blocktime": 1537873282, "version": 1, "confirmations": 11484, "time": 1537873282, "locktime": 542995, "vsize": 632, "size": 632}