{"hash": "ec76aad3935da459dc6c5d5a645659f5e6b9c5be1c51391b9ef6452a30050360", "blockhash": "00000000000000000004ffacab907a6b429b9a5745fa0b75af4234bf69dd7176", "vout": [{"scriptPubKey": {"type": "nulldata", "hex": "6a4c50000078000001f88600651fb77b8e6189ffbad19ed074892d00f8e87af8e8e963c7cfd5b9f991beae7f275407d7b31575f78965d75baa19f9061349277ae2cc7b20599f7cb8fbacf7bab7719c405f2d9a", "asm": "OP_RETURN 000078000001f88600651fb77b8e6189ffbad19ed074892d00f8e87af8e8e963c7cfd5b9f991beae7f275407d7b31575f78965d75baa19f9061349277ae2cc7b20599f7cb8fbacf7bab7719c405f2d9a"}, "value": 0.0, "n": 0}, {"scriptPubKey": {"reqSigs": 1, "hex": "76a9140574e491918302a39b8b796a5fb9ccdd6284b21588ac", "addresses": ["1VrQpMgKGivdbeGvg2fYk1aSDb7aTjXYm"], "asm": "OP_DUP OP_HASH160 0574e491918302a39b8b796a5fb9ccdd6284b215 OP_EQUALVERIFY OP_CHECKSIG", "type": "pubkeyhash"}, "value": 0.00052033, "n": 1}], "hex": "0100000001b2580e10b04f889b8f088848366a5b5ba4b2a7cac667a17aa980d797cd4cda09000000006b483045022100d821a3869c95cc48c34a81ebe68d40fa55b69a23377ba6d95945e124b3fb118802204cb7d94b2571349df871b580abf4d4a68b7816755111cacf3ba2e8c26e04eb4e01210361008701557fa52d445467f912b288bf8127c8b1b7f83bbb437c9e20befb5db2ffffffff020000000000000000536a4c50000078000001f88600651fb77b8e6189ffbad19ed074892d00f8e87af8e8e963c7cfd5b9f991beae7f275407d7b31575f78965d75baa19f9061349277ae2cc7b20599f7cb8fbacf7bab7719c405f2d9a41cb0000000000001976a9140574e491918302a39b8b796a5fb9ccdd6284b21588ac00000000", "vin": [{"sequence": 4294967295, "scriptSig": {"hex": "483045022100d821a3869c95cc48c34a81ebe68d40fa55b69a23377ba6d95945e124b3fb118802204cb7d94b2571349df871b580abf4d4a68b7816755111cacf3ba2e8c26e04eb4e01210361008701557fa52d445467f912b288bf8127c8b1b7f83bbb437c9e20befb5db2", "asm": "3045022100d821a3869c95cc48c34a81ebe68d40fa55b69a23377ba6d95945e124b3fb118802204cb7d94b2571349df871b580abf4d4a68b7816755111cacf3ba2e8c26e04eb4e[ALL] 0361008701557fa52d445467f912b288bf8127c8b1b7f83bbb437c9e20befb5db2"}, "vout": 0, "txid": "09da4ccd97d780a97aa167c6caa7b2a45b5b6a364888088f9b884fb0100e58b2"}], "txid": "ec76aad3935da459dc6c5d5a645659f5e6b9c5be1c51391b9ef6452a30050360", "blocktime": 1537875543, "version": 1, "confirmations": 11464, "time": 1537875543, "locktime": 0, "vsize": 284, "size": 284}