{"hash": "76d658a063ab2ba04c28029571d5df957d1d0f9384601e543c611d60002e8db1", "blockhash": "0000000000000000001cda96e906b7601b7a6fb1a3b62bca570a9e5d8f4b3de1", "vout": [{"scriptPubKey": {"reqSigs": 1, "hex": "76a914921fc79cf5ab83a64f6510cdb328421bc2a26c9488ac", "addresses": ["1EKdj6vofQdUSS1Hm9Pn8TiSFYJmSAiGvE"], "asm": "OP_DUP OP_HASH160 921fc79cf5ab83a64f6510cdb328421bc2a26c94 OP_EQUALVERIFY OP_CHECKSIG", "type": "pubkeyhash"}, "value": 0.00125481, "n": 0}], "hex": "01000000000101dff872d0d56def2f7160f69733c983b983b5e46410a4a95d0b84e3d45f31983a01000000171600143425946c36eb51d922ad9e393b11f3cf1a613fa7ffffffff0129ea0100000000001976a914921fc79cf5ab83a64f6510cdb328421bc2a26c9488ac02483045022100d080e98d46d999a2db948f605352e023e3ee127679a7d099775f36440c1474410220481fbd3092a0c4ffadb1c4d6a86b067cb7fe423dc29695c6bbca6771a446e54c012103978c0a4c4b30b1494529f9703a441c846b19381d72065cf568bc23088772161100000000", "vin": [{"txinwitness": ["3045022100d080e98d46d999a2db948f605352e023e3ee127679a7d099775f36440c1474410220481fbd3092a0c4ffadb1c4d6a86b067cb7fe423dc29695c6bbca6771a446e54c01", "03978c0a4c4b30b1494529f9703a441c846b19381d72065cf568bc230887721611"], "sequence": 4294967295, "scriptSig": {"hex": "1600143425946c36eb51d922ad9e393b11f3cf1a613fa7", "asm": "00143425946c36eb51d922ad9e393b11f3cf1a613fa7"}, "vout": 1, "txid": "3a98315fd4e3840b5da9a41064e4b583b983c93397f660712fef6dd5d072f8df"}], "txid": "ec78c8a01a12ce65e66966c85d49f52a1bd11733ae5ea3a4416d3f241cb1ea3b", "blocktime": 1537873282, "version": 1, "confirmations": 11480, "time": 1537873282, "locktime": 0, "vsize": 136, "size": 218}