{"hash": "f2a613654ac173a2709425d7a7df2c356d94bff42cf26dd4e7f1c337e54c2d9f", "blockhash": "000000000000000000022b45ed06c6f4ccd3cf7fb5ba4856ebd2e58215665228", "vout": [{"scriptPubKey": {"reqSigs": 1, "hex": "a9149576e6fc5c1ef47cd129be52d3d4c6ab94cd648187", "addresses": ["3FKK3btQSucpCz47afj9DbV9tGg6E1STC9"], "asm": "OP_HASH160 9576e6fc5c1ef47cd129be52d3d4c6ab94cd6481 OP_EQUAL", "type": "scripthash"}, "value": 0.30754721, "n": 0}, {"scriptPubKey": {"reqSigs": 1, "hex": "0014954df2093410d1414218b188cb7e35bc23834701", "addresses": ["bc1qj4xlyzf5zrg5zssckxyvkl34hs3cx3cpyvakfv"], "asm": "0 954df2093410d1414218b188cb7e35bc23834701", "type": "witness_v0_keyhash"}, "value": 0.00244699, "n": 1}], "hex": "01000000000101541baa51000df67ca116c887aaceff38984d3b799705b5ef09ae9780ec9472cd0100000017160014095a2661e6b73ab396980641e7259ea2506fc8cbffffffff02a147d5010000000017a9149576e6fc5c1ef47cd129be52d3d4c6ab94cd648187dbbb030000000000160014954df2093410d1414218b188cb7e35bc2383470102483045022100b0065920b269f26ad388697c210cfc37a0fbd470777d0de20a4712fdb74bbc0602200eb662863cdfb584f60c680c3771160c6178bbf665895f65258869bf396a54190121022892ad551b5f07594b93be58cbba7d0c5ddb4c9bd4d7d048ff1f0a484cbc515500000000", "vin": [{"txinwitness": ["3045022100b0065920b269f26ad388697c210cfc37a0fbd470777d0de20a4712fdb74bbc0602200eb662863cdfb584f60c680c3771160c6178bbf665895f65258869bf396a541901", "022892ad551b5f07594b93be58cbba7d0c5ddb4c9bd4d7d048ff1f0a484cbc5155"], "sequence": 4294967295, "scriptSig": {"hex": "160014095a2661e6b73ab396980641e7259ea2506fc8cb", "asm": "0014095a2661e6b73ab396980641e7259ea2506fc8cb"}, "vout": 1, "txid": "cd7294ec8097ae09efb50597793b4d9838ffceaa87c816a17cf60d0051aa1b54"}], "txid": "ec7a89b99f0b39effa1c9c1bb1878d255c5511e18be4deb7ac9fe412c3347309", "blocktime": 1537869901, "version": 1, "confirmations": 11523, "time": 1537869901, "locktime": 0, "vsize": 165, "size": 247}