{"hash": "04209079a7dc2bf62d6d314281cb8cb54abe55d8a3941a9a4dce9e41a6c116b2", "blockhash": "00000000000000000018f53835495a110e01622372bf6ae95dc86f2b0ab887b0", "vout": [{"scriptPubKey": {"reqSigs": 1, "hex": "a914daaef732806d857401cecb7d05c31ccc9604ab5587", "addresses": ["3MdJqBndHbEd42AUTtnG7cupzyb4Q2ksVr"], "asm": "OP_HASH160 daaef732806d857401cecb7d05c31ccc9604ab55 OP_EQUAL", "type": "scripthash"}, "value": 0.01512914, "n": 0}, {"scriptPubKey": {"reqSigs": 1, "hex": "a914734a3fb71822b10617e85bfa2548aa96231bb5c487", "addresses": ["3CCcaWP9abKLMkB5LYHU1CXjJbBTVDXRwb"], "asm": "OP_HASH160 734a3fb71822b10617e85bfa2548aa96231bb5c4 OP_EQUAL", "type": "scripthash"}, "value": 1.63207314, "n": 1}], "hex": "0200000000010135c89579c534e0d4d14f22d1bead1b28419c33e5c6edbf35cc50987e9d7ebfb00100000017160014357a441914250222dca709ab0cc19491d8694b78feffffff02d21517000000000017a914daaef732806d857401cecb7d05c31ccc9604ab55879258ba090000000017a914734a3fb71822b10617e85bfa2548aa96231bb5c48702473044022070a4494cfdf72b3996a629aaab2c4d2e229dcd73ffd9175a8959e736d8120c52022068d9187822998752f0c31f399028d5437d4ea6c529bb1c1505ca26c32fb0e6ed012102ad92ef5793bb57e1ee149e7465ff17d39ef866d6485aa19851d8a667ce68e48d0e490800", "vin": [{"txinwitness": ["3044022070a4494cfdf72b3996a629aaab2c4d2e229dcd73ffd9175a8959e736d8120c52022068d9187822998752f0c31f399028d5437d4ea6c529bb1c1505ca26c32fb0e6ed01", "02ad92ef5793bb57e1ee149e7465ff17d39ef866d6485aa19851d8a667ce68e48d"], "sequence": 4294967294, "scriptSig": {"hex": "160014357a441914250222dca709ab0cc19491d8694b78", "asm": "0014357a441914250222dca709ab0cc19491d8694b78"}, "vout": 1, "txid": "b0bf7e9d7e9850cc35bfedc6e5339c41281badbed1224fd1d4e034c57995c835"}], "txid": "ec7b46c2c1eee3e5d164ae1dd32301ebb556a4565685bcce27d2cbc160f73543", "blocktime": 1537870928, "version": 2, "confirmations": 11514, "time": 1537870928, "locktime": 542990, "vsize": 166, "size": 247}