{"hash": "1e2fe858e85df0b08da2ab997a3466c9dd75265579c23c4a602ada2f0b064f26", "blockhash": "000000000000000000022b45ed06c6f4ccd3cf7fb5ba4856ebd2e58215665228", "vout": [{"scriptPubKey": {"reqSigs": 1, "hex": "76a9147103af9cbe3d5a757c2029e70aa6625f4c4d78f288ac", "addresses": ["1BJZmnT2BtjPp7BCkTX6KaqgQG8PJo7RCE"], "asm": "OP_DUP OP_HASH160 7103af9cbe3d5a757c2029e70aa6625f4c4d78f2 OP_EQUALVERIFY OP_CHECKSIG", "type": "pubkeyhash"}, "value": 0.068936, "n": 0}, {"scriptPubKey": {"reqSigs": 1, "hex": "a91448e0c041ca1c811e218c2638b4dd0f612b45a2e487", "addresses": ["38LMpL3D41X3oRYxZnHZVmwhrTGyWxfd6j"], "asm": "OP_HASH160 48e0c041ca1c811e218c2638b4dd0f612b45a2e4 OP_EQUAL", "type": "scripthash"}, "value": 0.00102046, "n": 1}], "hex": "02000000000101550f55d42e476e0433cd9584ac0267d6b23e11a63246119da3026ad3c99844e101000000171600143104ad8be616c63b5e7a73818f5f0b26f0b9fd12ffffffff0220306900000000001976a9147103af9cbe3d5a757c2029e70aa6625f4c4d78f288ac9e8e01000000000017a91448e0c041ca1c811e218c2638b4dd0f612b45a2e4870247304402205a80eb0a9ccb603267f257c41254781f3b09129d7074adf1f14580bdae9a7dee02205aa38873e7d71f6da46b3fe029a30683735b79b0698ee3e625f81d478142d5d7012102b055bea5d9038e64e6a0f7039da588fa3d1b777ca1303b778e4ad697bfe6416900000000", "vin": [{"txinwitness": ["304402205a80eb0a9ccb603267f257c41254781f3b09129d7074adf1f14580bdae9a7dee02205aa38873e7d71f6da46b3fe029a30683735b79b0698ee3e625f81d478142d5d701", "02b055bea5d9038e64e6a0f7039da588fa3d1b777ca1303b778e4ad697bfe64169"], "sequence": 4294967295, "scriptSig": {"hex": "1600143104ad8be616c63b5e7a73818f5f0b26f0b9fd12", "asm": "00143104ad8be616c63b5e7a73818f5f0b26f0b9fd12"}, "vout": 1, "txid": "e14498c9d36a02a39d114632a6113eb2d66702ac8495cd33046e472ed4550f55"}], "txid": "ec8b6c3d23a97a58f945bd9b47ad1b083471fdc9c845e56db20e25df78f132fd", "blocktime": 1537869901, "version": 2, "confirmations": 11522, "time": 1537869901, "locktime": 0, "vsize": 168, "size": 249}