{"hash": "0123b0070d55663fdeea50ede7b88315c5e1c9da4b2f68a726a655513a9b6a37", "blockhash": "000000000000000000022b45ed06c6f4ccd3cf7fb5ba4856ebd2e58215665228", "vout": [{"scriptPubKey": {"reqSigs": 1, "hex": "a91469f373db615ad66de263eaac6fe1493662ed553787", "addresses": ["3BMEX4pxLm32Nbg28J8SKmAGhUtjqqpiTv"], "asm": "OP_HASH160 69f373db615ad66de263eaac6fe1493662ed5537 OP_EQUAL", "type": "scripthash"}, "value": 0.017, "n": 0}, {"scriptPubKey": {"reqSigs": 1, "hex": "a9145b8c9b44b3974d2afc0b68b540d9bdb73f9117b687", "addresses": ["3A35rWfxd5GCKdpqtSHZHneyNJ9v3uBLFY"], "asm": "OP_HASH160 5b8c9b44b3974d2afc0b68b540d9bdb73f9117b6 OP_EQUAL", "type": "scripthash"}, "value": 0.64977, "n": 1}, {"scriptPubKey": {"reqSigs": 1, "hex": "a9147ca215487f20afe28aaf151981d60d714336fa3487", "addresses": ["3D41t4hPkgesfUVENAurGDdtn7Jgf2vBcc"], "asm": "OP_HASH160 7ca215487f20afe28aaf151981d60d714336fa34 OP_EQUAL", "type": "scripthash"}, "value": 0.02641641, "n": 2}, {"scriptPubKey": {"reqSigs": 1, "hex": "76a914f13a9d1ba078831660a85d1feac1108e6adba2b488ac", "addresses": ["1NzW4nPfMBXKnWFCqig8QXqz6hqyg88Ao6"], "asm": "OP_DUP OP_HASH160 f13a9d1ba078831660a85d1feac1108e6adba2b4 OP_EQUALVERIFY OP_CHECKSIG", "type": "pubkeyhash"}, "value": 1.6938, "n": 3}], "hex": "02000000000102269433744df5d6ceea6d951022bacddba9e93b2f65281060618ecd26d842145c010000001716001410dd53488557ee872550b5f9773fb3aeec80c682fdffffff461f867fc2fcfb5519d97c94acaebecfd764714bdd0f776fee1ac75481078b4e00000000171600146f185449f9960bf0fd189f7263ff46cea0ebf23cfdffffff04a0f019000000000017a91469f373db615ad66de263eaac6fe1493662ed5537876878df030000000017a9145b8c9b44b3974d2afc0b68b540d9bdb73f9117b687e94e28000000000017a9147ca215487f20afe28aaf151981d60d714336fa3487a088180a000000001976a914f13a9d1ba078831660a85d1feac1108e6adba2b488ac02483045022100ceea080ab1ad5ab4198c2cdd4bc45d1145f27ce18bb680de19e09aaad5ad62d9022041c13f330822e0ef8cad9184c6bfe885a2ac75a4f216802e78455db4ffdf2a2b012103432d751f2c4629d805b825611ccd5c9eabb3582f32751a8b925e1d170212240502483045022100d6460330163b89f55ca96419a87fc7d8ea27a001e9d3cf4067172787205c6af0022045dc649510820351adec04a2efdb547764cfc13b512cf4abf0b8a0f784575272012102407159f216e517a448ae36d3d7f26da14aa837441718625ad7106107eb90c8470b490800", "vin": [{"txinwitness": ["3045022100ceea080ab1ad5ab4198c2cdd4bc45d1145f27ce18bb680de19e09aaad5ad62d9022041c13f330822e0ef8cad9184c6bfe885a2ac75a4f216802e78455db4ffdf2a2b01", "03432d751f2c4629d805b825611ccd5c9eabb3582f32751a8b925e1d1702122405"], "sequence": 4294967293, "scriptSig": {"hex": "16001410dd53488557ee872550b5f9773fb3aeec80c682", "asm": "001410dd53488557ee872550b5f9773fb3aeec80c682"}, "vout": 1, "txid": "5c1442d826cd8e61601028652f3be9a9dbcdba2210956deaced6f54d74339426"}, {"txinwitness": ["3045022100d6460330163b89f55ca96419a87fc7d8ea27a001e9d3cf4067172787205c6af0022045dc649510820351adec04a2efdb547764cfc13b512cf4abf0b8a0f78457527201", "02407159f216e517a448ae36d3d7f26da14aa837441718625ad7106107eb90c847"], "sequence": 4294967293, "scriptSig": {"hex": "1600146f185449f9960bf0fd189f7263ff46cea0ebf23c", "asm": "00146f185449f9960bf0fd189f7263ff46cea0ebf23c"}, "vout": 0, "txid": "4e8b078154c71aee6f770fdd4b7164d7cfbeaeac947cd91955fbfcc27f861f46"}], "txid": "ec8de8709a508fa3878ef5d43ba13c71e41877f48bc5a443415b185512d94528", "blocktime": 1537869901, "version": 2, "confirmations": 11524, "time": 1537869901, "locktime": 542987, "vsize": 323, "size": 486}