{"hash": "595d93e08dfc972c70439deb46d6433676acb03c4c9aeb08f56b4a7e244b9673", "blockhash": "0000000000000000001f76057863aec43deb6fa401d9628bb513d65a8098bfab", "vout": [{"scriptPubKey": {"reqSigs": 1, "hex": "76a9144773ad19fae39001b88580c129411c1ec6bfa61d88ac", "addresses": ["17WoYwcqgmGGyextpAMqfcw3gztyFiA4UR"], "asm": "OP_DUP OP_HASH160 4773ad19fae39001b88580c129411c1ec6bfa61d OP_EQUALVERIFY OP_CHECKSIG", "type": "pubkeyhash"}, "value": 0.00088, "n": 0}, {"scriptPubKey": {"reqSigs": 1, "hex": "a914ed0fe5353b68a35c44405bc45256c00780a8afe787", "addresses": ["3PJV7SCusNZF5JmFqve9zDbNQnKaYBraiB"], "asm": "OP_HASH160 ed0fe5353b68a35c44405bc45256c00780a8afe7 OP_EQUAL", "type": "scripthash"}, "value": 0.22730466, "n": 1}], "hex": "010000000001013b7168210fbca7eaef7b3002496fdca7639ddbda9ad7a94054b733b70ce79c0f0000000023220020ecca3fb861ce6726f68977e2d074ff697a9e616a0ea42e1d76df8c8075a3ed66ffffffff02c0570100000000001976a9144773ad19fae39001b88580c129411c1ec6bfa61d88ace2d65a010000000017a914ed0fe5353b68a35c44405bc45256c00780a8afe787040047304402200b7928f59b4bcaea0c84ce4bba6194f0e60b9cbadd403e24074d22d5fd50366d02205f157acaa13cdb16daa12b6137e3563fe6fdb11efb3fac1cdcc3fd45394418cd01483045022100dab5cf9b2c0401389566aff75017aac1130adbebdb5dd63673b1fac6ab35fcb4022035cb130dac8c4d3303767d5f25b82f749372f65bec8fc73df7b4dbb41b0fc52801695221021084eb1c586e873b5baf1948a186678823bbe443009f8df46039277dcb4d68342102bf686c9ae4ec42ec937304dea7491158d05869984f17611e993efa37febe0aa62103766ab1528c008322f666725b756ea472225c43e53ea7a33d7e56d046e9ee111d53ae00000000", "vin": [{"txinwitness": ["", "304402200b7928f59b4bcaea0c84ce4bba6194f0e60b9cbadd403e24074d22d5fd50366d02205f157acaa13cdb16daa12b6137e3563fe6fdb11efb3fac1cdcc3fd45394418cd01", "3045022100dab5cf9b2c0401389566aff75017aac1130adbebdb5dd63673b1fac6ab35fcb4022035cb130dac8c4d3303767d5f25b82f749372f65bec8fc73df7b4dbb41b0fc52801", "5221021084eb1c586e873b5baf1948a186678823bbe443009f8df46039277dcb4d68342102bf686c9ae4ec42ec937304dea7491158d05869984f17611e993efa37febe0aa62103766ab1528c008322f666725b756ea472225c43e53ea7a33d7e56d046e9ee111d53ae"], "sequence": 4294967295, "scriptSig": {"hex": "220020ecca3fb861ce6726f68977e2d074ff697a9e616a0ea42e1d76df8c8075a3ed66", "asm": "0020ecca3fb861ce6726f68977e2d074ff697a9e616a0ea42e1d76df8c8075a3ed66"}, "vout": 0, "txid": "0f9ce70cb733b75440a9d79adadb9d63a7dc6f4902307befeaa7bc0f2168713b"}], "txid": "ec8fa42da8a6ba2c0a971ddd92dceea1ab874cb9f6a9b763a568221d338904df", "blocktime": 1537873891, "version": 1, "confirmations": 11478, "time": 1537873891, "locktime": 0, "vsize": 216, "size": 407}