{"hash": "ec9449b0d476cb6f1f0b7f989029e5592288ea3d89e54f3cedce77045e779aec", "blockhash": "00000000000000000017f5eb5941039fbcee6240d03bc1f2f8e35350df66a1d8", "vout": [{"scriptPubKey": {"reqSigs": 1, "hex": "76a91415fdd6e9c80403aaa0164322cd7dffdef1f7dbd888ac", "addresses": ["131HH7B1tab6PALuvPmbpgQ1t2Z9YTGqJ2"], "asm": "OP_DUP OP_HASH160 15fdd6e9c80403aaa0164322cd7dffdef1f7dbd8 OP_EQUALVERIFY OP_CHECKSIG", "type": "pubkeyhash"}, "value": 0.00125664, "n": 0}, {"scriptPubKey": {"type": "nulldata", "hex": "6a4c50000077f9000173c6785583fdcd5810d7b003d19ed074892d00f8e87af8e8e963c7cfd5b91c6ec5b79404a56ae471711b4400952f5baa18ec061413bf410ec9ccbc9a9526289ac0f6612cd74e33776ee4", "asm": "OP_RETURN 000077f9000173c6785583fdcd5810d7b003d19ed074892d00f8e87af8e8e963c7cfd5b91c6ec5b79404a56ae471711b4400952f5baa18ec061413bf410ec9ccbc9a9526289ac0f6612cd74e33776ee4"}, "value": 0.0, "n": 1}], "hex": "01000000017de4bf06875853f0970faf5fcd20bc29c8402ac4078b06aa51e482a3c8b47b97010000006a47304402200d4681df33ce494f51375dba6e0f60e2dafda3c05f4734b12cf6ab7a84ef27d202205c910c56a0a2be3927b530bab0481050c6b85675183e1aa2dd1004b469e92a17012102c9e7971d0d1d0176b0bb375f7d06b4ad54ab26cd6bda1785f9b38c7f5b35ff3bffffffff02e0ea0100000000001976a91415fdd6e9c80403aaa0164322cd7dffdef1f7dbd888ac0000000000000000536a4c50000077f9000173c6785583fdcd5810d7b003d19ed074892d00f8e87af8e8e963c7cfd5b91c6ec5b79404a56ae471711b4400952f5baa18ec061413bf410ec9ccbc9a9526289ac0f6612cd74e33776ee400000000", "vin": [{"sequence": 4294967295, "scriptSig": {"hex": "47304402200d4681df33ce494f51375dba6e0f60e2dafda3c05f4734b12cf6ab7a84ef27d202205c910c56a0a2be3927b530bab0481050c6b85675183e1aa2dd1004b469e92a17012102c9e7971d0d1d0176b0bb375f7d06b4ad54ab26cd6bda1785f9b38c7f5b35ff3b", "asm": "304402200d4681df33ce494f51375dba6e0f60e2dafda3c05f4734b12cf6ab7a84ef27d202205c910c56a0a2be3927b530bab0481050c6b85675183e1aa2dd1004b469e92a17[ALL] 02c9e7971d0d1d0176b0bb375f7d06b4ad54ab26cd6bda1785f9b38c7f5b35ff3b"}, "vout": 1, "txid": "977bb4c8a382e451aa068b07c42a40c829bc20cd5faf0f97f053588706bfe47d"}], "txid": "ec9449b0d476cb6f1f0b7f989029e5592288ea3d89e54f3cedce77045e779aec", "blocktime": 1537874412, "version": 1, "confirmations": 11467, "time": 1537874412, "locktime": 0, "vsize": 283, "size": 283}