{"hash": "a5b20a294630194cbb95b20955073ba71df5e13f4d9490f7588a86faa3799712", "blockhash": "0000000000000000000e13cef7c366c0283d82e591d1acd082e914b08063cdf1", "vout": [{"scriptPubKey": {"reqSigs": 1, "hex": "a914461a86b9a2571223ebf8859b552059c758c8011687", "addresses": ["385h13pZYyeuvPoJCCF1bNL9hgHZv3S9Fh"], "asm": "OP_HASH160 461a86b9a2571223ebf8859b552059c758c80116 OP_EQUAL", "type": "scripthash"}, "value": 0.06870396, "n": 0}, {"scriptPubKey": {"reqSigs": 1, "hex": "00148ecd7c05892656601d78e0de0116572ab9d5e5cb", "addresses": ["bc1q3mxhcpvfyetxq8tcur0qz9jh92uatewtnuqgju"], "asm": "0 8ecd7c05892656601d78e0de0116572ab9d5e5cb", "type": "witness_v0_keyhash"}, "value": 0.03079023, "n": 1}], "hex": "01000000000101c9d3117831c3c2cf6dd7a47bbf6c56f3b046c8430865af76978b394940c7d3ed280000001716001476662ff6d39304acd8f895450ca6ff6969e44d90ffffffff027cd568000000000017a914461a86b9a2571223ebf8859b552059c758c80116876ffb2e00000000001600148ecd7c05892656601d78e0de0116572ab9d5e5cb024730440220727c81c62749d0253f5ba19aa3fbe96d3baf54136ef5a90f56de7247fd43a58902204115788bc2b59b85cef818928b5c5f734e4f649be5ae0e4081090dec9a09dacc0121037de1926ddf413e7ea47627ff12101835405ba050d4381b281df4be08c636907a00000000", "vin": [{"txinwitness": ["30440220727c81c62749d0253f5ba19aa3fbe96d3baf54136ef5a90f56de7247fd43a58902204115788bc2b59b85cef818928b5c5f734e4f649be5ae0e4081090dec9a09dacc01", "037de1926ddf413e7ea47627ff12101835405ba050d4381b281df4be08c636907a"], "sequence": 4294967295, "scriptSig": {"hex": "16001476662ff6d39304acd8f895450ca6ff6969e44d90", "asm": "001476662ff6d39304acd8f895450ca6ff6969e44d90"}, "vout": 40, "txid": "edd3c74049398b9776af650843c846b0f3566cbf7ba4d76dcfc2c3317811d3c9"}], "txid": "ec95d5f89d01272ce5b14a4d4a5589d0d2c884f8cc7397f4cb50ffd1d9ff8ac1", "blocktime": 1537871767, "version": 1, "confirmations": 11495, "time": 1537871767, "locktime": 0, "vsize": 165, "size": 246}