{"hash": "a08d2dca8e7137183539403fbb582b868de76f29dd5b5c4035968c7631a7d0bf", "blockhash": "0000000000000000000e13cef7c366c0283d82e591d1acd082e914b08063cdf1", "vout": [{"scriptPubKey": {"reqSigs": 1, "hex": "76a9148ef5f7066471128878037874dfb563234cbda8d488ac", "addresses": ["1E2ucBenn5GKnm9gkAKwp9Uyqky34PCZoL"], "asm": "OP_DUP OP_HASH160 8ef5f7066471128878037874dfb563234cbda8d4 OP_EQUALVERIFY OP_CHECKSIG", "type": "pubkeyhash"}, "value": 0.03596385, "n": 0}, {"scriptPubKey": {"reqSigs": 1, "hex": "001408fa3ddb4f2031211812699192ad6bae03eb91cf", "addresses": ["bc1qprarmk60yqcjzxqjdxge9ttt4cp7hyw0j5xd8u"], "asm": "0 08fa3ddb4f2031211812699192ad6bae03eb91cf", "type": "witness_v0_keyhash"}, "value": 2.2017272, "n": 1}], "hex": "010000000001017f75e22c6c5237d60c33fbc9cd7cb23362d0ea9dc3eab444727e094cd60cf1d40100000000ffffffff0261e03600000000001976a9148ef5f7066471128878037874dfb563234cbda8d488acb0911f0d0000000016001408fa3ddb4f2031211812699192ad6bae03eb91cf0248304502210097a31cab0858731073ade521879b1ed1e60e3dd2267a7cdd3a29e00cc78e989f022056f6656203dfa68880b028a6f29fb20ca7d892db03977e327a9bd68902c4c0700121021e572caff1244e42cc6bd7505775409a20d75bfa45ce1f334c63ea694c20634b00000000", "vin": [{"txinwitness": ["304502210097a31cab0858731073ade521879b1ed1e60e3dd2267a7cdd3a29e00cc78e989f022056f6656203dfa68880b028a6f29fb20ca7d892db03977e327a9bd68902c4c07001", "021e572caff1244e42cc6bd7505775409a20d75bfa45ce1f334c63ea694c20634b"], "sequence": 4294967295, "scriptSig": {"hex": "", "asm": ""}, "vout": 1, "txid": "d4f10cd64c097e7244b4eac39dead06233b27ccdc9fb330cd637526c2ce2757f"}], "txid": "ec9845f69e08cb3f54082405696d33ffb756973717edb19b8a8e1b50b0648ce2", "blocktime": 1537871767, "version": 1, "confirmations": 11495, "time": 1537871767, "locktime": 0, "vsize": 144, "size": 226}