{"hash": "ec9a5b3dbeff3d9f6e3dff16c33990b0839bd0c8369565fe980c413eee39dc02", "blockhash": "0000000000000000000e13cef7c366c0283d82e591d1acd082e914b08063cdf1", "vout": [{"scriptPubKey": {"reqSigs": 1, "hex": "76a9141bc970fe75af50122cdc697e598c2df7065203bc88ac", "addresses": ["13XvZaBSJP8nGY1CthhJid2KBvupFGeisY"], "asm": "OP_DUP OP_HASH160 1bc970fe75af50122cdc697e598c2df7065203bc OP_EQUALVERIFY OP_CHECKSIG", "type": "pubkeyhash"}, "value": 0.18716523, "n": 0}, {"scriptPubKey": {"reqSigs": 1, "hex": "76a914b237210e2477fdc53a18cccf4f3dd47cfbb0522188ac", "addresses": ["1HFKKatowKKB21imdDVtPKLQ6RtMcm4bsy"], "asm": "OP_DUP OP_HASH160 b237210e2477fdc53a18cccf4f3dd47cfbb05221 OP_EQUALVERIFY OP_CHECKSIG", "type": "pubkeyhash"}, "value": 0.12180136, "n": 1}], "hex": "010000000149bf9305f51da04241864ea9dd22438ab02e572e0da9c646ac0acf473669eb05000000006a4730440220710032e085c76be13ea17e8b1130fd694d9d609b8d49a90103aba66835c8f703022062b6ac271cbedcca1071d0a4728b6e1135a8760a88897526be321b1198bcf8cd01210277e63c535638c09ee7e48bb99ba97317fa47fd44876adf09af45baa57bb2c08effffffff026b971d01000000001976a9141bc970fe75af50122cdc697e598c2df7065203bc88aca8dab900000000001976a914b237210e2477fdc53a18cccf4f3dd47cfbb0522188ac00000000", "vin": [{"sequence": 4294967295, "scriptSig": {"hex": "4730440220710032e085c76be13ea17e8b1130fd694d9d609b8d49a90103aba66835c8f703022062b6ac271cbedcca1071d0a4728b6e1135a8760a88897526be321b1198bcf8cd01210277e63c535638c09ee7e48bb99ba97317fa47fd44876adf09af45baa57bb2c08e", "asm": "30440220710032e085c76be13ea17e8b1130fd694d9d609b8d49a90103aba66835c8f703022062b6ac271cbedcca1071d0a4728b6e1135a8760a88897526be321b1198bcf8cd[ALL] 0277e63c535638c09ee7e48bb99ba97317fa47fd44876adf09af45baa57bb2c08e"}, "vout": 0, "txid": "05eb693647cf0aac46c6a90d2e572eb08a4322dda94e864142a01df50593bf49"}], "txid": "ec9a5b3dbeff3d9f6e3dff16c33990b0839bd0c8369565fe980c413eee39dc02", "blocktime": 1537871767, "version": 1, "confirmations": 11490, "time": 1537871767, "locktime": 0, "vsize": 225, "size": 225}