{"hash": "f0539c792303f5e18b663b08c02dd49cc9638dd39ea7738b59894bb6fd9d678e", "blockhash": "000000000000000000022b45ed06c6f4ccd3cf7fb5ba4856ebd2e58215665228", "vout": [{"scriptPubKey": {"reqSigs": 1, "hex": "76a914809ef0f0b0e6469eeb1749992cafa98ef11ad43488ac", "addresses": ["1Cj5tysek52iD1sKC69tcoA8bp6o3HBTY2"], "asm": "OP_DUP OP_HASH160 809ef0f0b0e6469eeb1749992cafa98ef11ad434 OP_EQUALVERIFY OP_CHECKSIG", "type": "pubkeyhash"}, "value": 0.0058196, "n": 0}, {"scriptPubKey": {"reqSigs": 1, "hex": "a914e7ed1a907fcf4bf6aa91c5a8f338db65c056cdfd87", "addresses": ["3NqL47dd933PVM3NRSAGXDFAjyXJ2xAhrx"], "asm": "OP_HASH160 e7ed1a907fcf4bf6aa91c5a8f338db65c056cdfd OP_EQUAL", "type": "scripthash"}, "value": 0.0099983, "n": 1}], "hex": "0200000000010291de02cfea471057f753f3b5e7ec4e88d370fc0e6ca83d8ebe219f427b2a03a80000000017160014a2f67cb5667e0c7ef2b79586442672883d9ea262feffffffbc16c8f900a0f82142756b76e46f6ca35581abaac6d7c3f376e28a02762d08e60000000017160014f89f9e7399c1ea5b39646b5c38e4cd275df00ef5feffffff0248e10800000000001976a914809ef0f0b0e6469eeb1749992cafa98ef11ad43488ac96410f000000000017a914e7ed1a907fcf4bf6aa91c5a8f338db65c056cdfd8702483045022100bd3c3fbe92a5db2b362ee6dd4d5d1e8a37e4ad40bd9431211d1e6a3ff6d6d0b302207a5bcdf0e56bfa4ae3ce45f14edf77efdbb35a87ca50b9da0ac8697aea3cb1560121033db4bcaba3ec93c2e445a8ad2e7db22d74778e952a8bd9dece3e2395972466ed0247304402200a4b51b37277478362e398019f51ef175bf2fb477c7dcbc4721d6b01ff49c49f0220236d21333941fc15487f108fa7c306ebc00f31d707ec6268e0fddfd96a2dd9f901210219cabb0d3cac2f4fb882eb5efa6b74ce8e6a0bce1949444a65336ea6ec06a2920b490800", "vin": [{"txinwitness": ["3045022100bd3c3fbe92a5db2b362ee6dd4d5d1e8a37e4ad40bd9431211d1e6a3ff6d6d0b302207a5bcdf0e56bfa4ae3ce45f14edf77efdbb35a87ca50b9da0ac8697aea3cb15601", "033db4bcaba3ec93c2e445a8ad2e7db22d74778e952a8bd9dece3e2395972466ed"], "sequence": 4294967294, "scriptSig": {"hex": "160014a2f67cb5667e0c7ef2b79586442672883d9ea262", "asm": "0014a2f67cb5667e0c7ef2b79586442672883d9ea262"}, "vout": 0, "txid": "a8032a7b429f21be8e3da86c0efc70d3884eece7b5f353f7571047eacf02de91"}, {"txinwitness": ["304402200a4b51b37277478362e398019f51ef175bf2fb477c7dcbc4721d6b01ff49c49f0220236d21333941fc15487f108fa7c306ebc00f31d707ec6268e0fddfd96a2dd9f901", "0219cabb0d3cac2f4fb882eb5efa6b74ce8e6a0bce1949444a65336ea6ec06a292"], "sequence": 4294967294, "scriptSig": {"hex": "160014f89f9e7399c1ea5b39646b5c38e4cd275df00ef5", "asm": "0014f89f9e7399c1ea5b39646b5c38e4cd275df00ef5"}, "vout": 0, "txid": "e6082d76028ae276f3c3d7c6aaab8155a36c6fe4766b754221f8a000f9c816bc"}], "txid": "ecc24dfebd0365b5bb4e9f48fe08c9d7b0697b8a396332a214acae241c29864e", "blocktime": 1537869901, "version": 2, "confirmations": 11524, "time": 1537869901, "locktime": 542987, "vsize": 259, "size": 421}