{"hash": "eccb63738e007c1ea03d6f98d56f58eb885377a3cf29864004cb58085df04cb0", "blockhash": "0000000000000000001e0dab787dd257d1dbfcb92a98c2207d5e1078be1f4165", "vout": [{"scriptPubKey": {"reqSigs": 1, "hex": "76a91426aabc15081561f67d9cb0eb99d6bd32c08a4c1b88ac", "addresses": ["14XTD9N5mR3hsrrKH2DHYihQonQTL4cxWe"], "asm": "OP_DUP OP_HASH160 26aabc15081561f67d9cb0eb99d6bd32c08a4c1b OP_EQUALVERIFY OP_CHECKSIG", "type": "pubkeyhash"}, "value": 0.5, "n": 0}, {"scriptPubKey": {"reqSigs": 1, "hex": "76a914833bf1dca2dabadc0782d33d14e8724920764c2488ac", "addresses": ["1CxuLAcA7P1uiz3kSn4csWSYc3wgya8bmJ"], "asm": "OP_DUP OP_HASH160 833bf1dca2dabadc0782d33d14e8724920764c24 OP_EQUALVERIFY OP_CHECKSIG", "type": "pubkeyhash"}, "value": 0.01712825, "n": 1}], "hex": "0100000004056a6d5f1c2c49c73cf9be3f2db1ab92caceeb4dc85f426c9ebca0340ef3c4e52e0000006b483045022100e0c78a7ef529da6d1a7d659ebb6be17b467098d68e6fdf656becdd013122116702201f2d9571d5d18ab04957daeaa8bed73492442b9cccfd7f7056cbde20917d2e85012103ac9282e49d31bb505fdbbf00bb46069a4a83a9e6fd29340bd6feea88c415c8c5ffffffff60c60b1580430c9d66d8bbcaa3b0da92ec614d2edce419c61edf9fc58c1c470f050000006b483045022100eccfc49547aa1544abeafe79bd0e7a6840daed0767414689dc96f36b423ce5640220144c02f0a7337a57b8ad76a9719a1111db22ad6fc85ff1dae5027b4e622e0495012103e54f17bd98e56a8728f0c7a374244f4fba0345e9f444eab74fb23e751ff38f38ffffffffbe13adf46bb0cc340ac1adadb1e00015b2d21592ce5e6006f0bdbba71d6a61a7000000006b483045022100d285b7c959b4551795bd324f863a3cdf595f5164957e9dfe6e8aad5fc49eb96002201d002030e64fa8d5632b4bac50fdfcea5d3d98fdd7619a5166572bb94fe6c3970121039b0c85c5707e7d086ce66c4234d37bdbf5c09dbe5c64c39a3aec97c84537f10cfffffffff6e1680dcaf83f39d96e347222a1c75d9ce35ff8a77850d3cceb0a69fa609d37010000006a473044022074754fec74ccd589917d167d347ba239285ae15710a097795b5b184804e1429702200cc6a8bc1000b86e2206a9b6da983280ca064079b34a5682ea5b108b19b48a340121034f13f40dd4fb832950c99a55e5470b4a43067fef5fb5c5d72b15a5a37cf7a052ffffffff0280f0fa02000000001976a91426aabc15081561f67d9cb0eb99d6bd32c08a4c1b88acb9221a00000000001976a914833bf1dca2dabadc0782d33d14e8724920764c2488ac00000000", "vin": [{"sequence": 4294967295, "scriptSig": {"hex": "483045022100e0c78a7ef529da6d1a7d659ebb6be17b467098d68e6fdf656becdd013122116702201f2d9571d5d18ab04957daeaa8bed73492442b9cccfd7f7056cbde20917d2e85012103ac9282e49d31bb505fdbbf00bb46069a4a83a9e6fd29340bd6feea88c415c8c5", "asm": "3045022100e0c78a7ef529da6d1a7d659ebb6be17b467098d68e6fdf656becdd013122116702201f2d9571d5d18ab04957daeaa8bed73492442b9cccfd7f7056cbde20917d2e85[ALL] 03ac9282e49d31bb505fdbbf00bb46069a4a83a9e6fd29340bd6feea88c415c8c5"}, "vout": 46, "txid": "e5c4f30e34a0bc9e6c425fc84debceca92abb12d3fbef93cc7492c1c5f6d6a05"}, {"sequence": 4294967295, "scriptSig": {"hex": "483045022100eccfc49547aa1544abeafe79bd0e7a6840daed0767414689dc96f36b423ce5640220144c02f0a7337a57b8ad76a9719a1111db22ad6fc85ff1dae5027b4e622e0495012103e54f17bd98e56a8728f0c7a374244f4fba0345e9f444eab74fb23e751ff38f38", "asm": "3045022100eccfc49547aa1544abeafe79bd0e7a6840daed0767414689dc96f36b423ce5640220144c02f0a7337a57b8ad76a9719a1111db22ad6fc85ff1dae5027b4e622e0495[ALL] 03e54f17bd98e56a8728f0c7a374244f4fba0345e9f444eab74fb23e751ff38f38"}, "vout": 5, "txid": "0f471c8cc59fdf1ec619e4dc2e4d61ec92dab0a3cabbd8669d0c4380150bc660"}, {"sequence": 4294967295, "scriptSig": {"hex": "483045022100d285b7c959b4551795bd324f863a3cdf595f5164957e9dfe6e8aad5fc49eb96002201d002030e64fa8d5632b4bac50fdfcea5d3d98fdd7619a5166572bb94fe6c3970121039b0c85c5707e7d086ce66c4234d37bdbf5c09dbe5c64c39a3aec97c84537f10c", "asm": "3045022100d285b7c959b4551795bd324f863a3cdf595f5164957e9dfe6e8aad5fc49eb96002201d002030e64fa8d5632b4bac50fdfcea5d3d98fdd7619a5166572bb94fe6c397[ALL] 039b0c85c5707e7d086ce66c4234d37bdbf5c09dbe5c64c39a3aec97c84537f10c"}, "vout": 0, "txid": "a7616a1da7bbbdf006605ece9215d2b21500e0b1adadc10a34ccb06bf4ad13be"}, {"sequence": 4294967295, "scriptSig": {"hex": "473044022074754fec74ccd589917d167d347ba239285ae15710a097795b5b184804e1429702200cc6a8bc1000b86e2206a9b6da983280ca064079b34a5682ea5b108b19b48a340121034f13f40dd4fb832950c99a55e5470b4a43067fef5fb5c5d72b15a5a37cf7a052", "asm": "3044022074754fec74ccd589917d167d347ba239285ae15710a097795b5b184804e1429702200cc6a8bc1000b86e2206a9b6da983280ca064079b34a5682ea5b108b19b48a34[ALL] 034f13f40dd4fb832950c99a55e5470b4a43067fef5fb5c5d72b15a5a37cf7a052"}, "vout": 1, "txid": "379d60fa690aebccd35078a7f85fe39c5dc7a12272346ed9393ff8ca0d68e1f6"}], "txid": "eccb63738e007c1ea03d6f98d56f58eb885377a3cf29864004cb58085df04cb0", "blocktime": 1537872475, "version": 1, "confirmations": 11486, "time": 1537872475, "locktime": 0, "vsize": 669, "size": 669}