{"hash": "0c5b5171a5182c0c781f445e8ccb7c2612065cdf9e039906675272d500d362a3", "blockhash": "00000000000000000017f5eb5941039fbcee6240d03bc1f2f8e35350df66a1d8", "vout": [{"scriptPubKey": {"reqSigs": 1, "hex": "00142773fc1b4db13c6595c1e2313aa3849e731fe4ec", "addresses": ["bc1qyaelcx6dky7xt9wpugcn4guynee3le8vv4ax2d"], "asm": "0 2773fc1b4db13c6595c1e2313aa3849e731fe4ec", "type": "witness_v0_keyhash"}, "value": 9.63e-06, "n": 0}, {"scriptPubKey": {"reqSigs": 1, "hex": "76a914ea6c87c8fec1e6d7549676f3c3c973cbbe7d5b7a88ac", "addresses": ["1NNX8iP4B9GGCQngoFk1ULU6FvKdCAZrkD"], "asm": "OP_DUP OP_HASH160 ea6c87c8fec1e6d7549676f3c3c973cbbe7d5b7a OP_EQUALVERIFY OP_CHECKSIG", "type": "pubkeyhash"}, "value": 0.00105712, "n": 1}], "hex": "01000000000101e870bbea8bb93979f1564545ccde9aeccdb7d036581128f6581c976f01410a06310700001716001430e57d76486391f0dd6d7901d7556452b4eb348effffffff02c3030000000000001600142773fc1b4db13c6595c1e2313aa3849e731fe4ecf09c0100000000001976a914ea6c87c8fec1e6d7549676f3c3c973cbbe7d5b7a88ac0247304402205bfa0ce7e92432b1478548f626e6b54da61fc67e965f46f2b16491ec1bbb8bc802207e7e304d8324c14f6446134b9217b62edb2af74d9aa36d63784a2b3cead941ee0121039823732246a481704946e1f07c03161b18a7e60b2c3bc691266409a3a72e30f300000000", "vin": [{"txinwitness": ["304402205bfa0ce7e92432b1478548f626e6b54da61fc67e965f46f2b16491ec1bbb8bc802207e7e304d8324c14f6446134b9217b62edb2af74d9aa36d63784a2b3cead941ee01", "039823732246a481704946e1f07c03161b18a7e60b2c3bc691266409a3a72e30f3"], "sequence": 4294967295, "scriptSig": {"hex": "16001430e57d76486391f0dd6d7901d7556452b4eb348e", "asm": "001430e57d76486391f0dd6d7901d7556452b4eb348e"}, "vout": 1841, "txid": "060a41016f971c58f628115836d0b7cdec9adecc454556f17939b98beabb70e8"}], "txid": "eccf210d7688446b16fcbde8b4cdf0de270dd77a3ca34f0da7a09de7a278f8f4", "blocktime": 1537874412, "version": 1, "confirmations": 11468, "time": 1537874412, "locktime": 0, "vsize": 167, "size": 248}