{"hash": "ecd3fd2057f93a93b1b23efc1994ef42b1f78f1cf7cbc7fe7290a9d9d27a1e6d", "blockhash": "0000000000000000001f0ddff1eddb255c1121bcd4da4f1bc9a0da00cae72433", "vout": [{"scriptPubKey": {"reqSigs": 1, "hex": "76a9140145a66c07f7de5589b3283d13ee51d89a356a4388ac", "addresses": ["17j7ZkT76FqfQ8wg9LxWFU8GFwPcuaF2x"], "asm": "OP_DUP OP_HASH160 0145a66c07f7de5589b3283d13ee51d89a356a43 OP_EQUALVERIFY OP_CHECKSIG", "type": "pubkeyhash"}, "value": 0.01562, "n": 0}], "hex": "01000000013358437ba8fd161a31903662e845750550da5a4d5a42615d082019f202c9e5e2000000006a47304402202bb4eb88820fe19caefe882502a5a258fbaa4b5ff0ce8de402f746ee90e3170a02204ddc90e3f60e75e3249efe1494f8d92581371a29b8d82e27c12847266c3e31880121024c58eb70b88813902ac173c615494b38fd811d72b62b5dae083157e674c89625ffffffff0190d51700000000001976a9140145a66c07f7de5589b3283d13ee51d89a356a4388ac00000000", "vin": [{"sequence": 4294967295, "scriptSig": {"hex": "47304402202bb4eb88820fe19caefe882502a5a258fbaa4b5ff0ce8de402f746ee90e3170a02204ddc90e3f60e75e3249efe1494f8d92581371a29b8d82e27c12847266c3e31880121024c58eb70b88813902ac173c615494b38fd811d72b62b5dae083157e674c89625", "asm": "304402202bb4eb88820fe19caefe882502a5a258fbaa4b5ff0ce8de402f746ee90e3170a02204ddc90e3f60e75e3249efe1494f8d92581371a29b8d82e27c12847266c3e3188[ALL] 024c58eb70b88813902ac173c615494b38fd811d72b62b5dae083157e674c89625"}, "vout": 0, "txid": "e2e5c902f21920085d61425a4d5ada50057545e8623690311a16fda87b435833"}], "txid": "ecd3fd2057f93a93b1b23efc1994ef42b1f78f1cf7cbc7fe7290a9d9d27a1e6d", "blocktime": 1537872018, "version": 1, "confirmations": 11489, "time": 1537872018, "locktime": 0, "vsize": 191, "size": 191}