{"hash": "ecd6e0095342b00eab45e65336e09ace0cbf08745cd7872e134ee724cb1dc76f", "blockhash": "00000000000000000004ffacab907a6b429b9a5745fa0b75af4234bf69dd7176", "vout": [{"scriptPubKey": {"reqSigs": 1, "hex": "76a9149cb0500d55213ff02b5d1b1d05b581df11de55e288ac", "addresses": ["1FHVdM8853XS6dJ9BNjv996LKHVAFQUh8A"], "asm": "OP_DUP OP_HASH160 9cb0500d55213ff02b5d1b1d05b581df11de55e2 OP_EQUALVERIFY OP_CHECKSIG", "type": "pubkeyhash"}, "value": 0.48768542, "n": 0}, {"scriptPubKey": {"reqSigs": 1, "hex": "76a9144a7bb6fadb3fbe996b2c838597322f191857d1b088ac", "addresses": ["17nqD3nbct2p6SnQPj51DqC2TaJxK8519e"], "asm": "OP_DUP OP_HASH160 4a7bb6fadb3fbe996b2c838597322f191857d1b0 OP_EQUALVERIFY OP_CHECKSIG", "type": "pubkeyhash"}, "value": 0.00397887, "n": 1}], "hex": "0200000001f66f327293a7fd273324c3639aa98698bf6d8dbcf7ea103013aa9df96a1b4bae010000006a4730440220147106c3943a03fdc2e85fdb662185b6a9ecd624f1441e2e85c19be870c4339302207d020f312a0d7f5b1767ad6a5afa4f78ec0eada4b7ad28a3075fb3c62e50516a012102e019d22d1b7392bda4e0ef05dbd779d0f5d73daad0edd1d9c38bebf06b86d9f3feffffff021e26e802000000001976a9149cb0500d55213ff02b5d1b1d05b581df11de55e288ac3f120600000000001976a9144a7bb6fadb3fbe996b2c838597322f191857d1b088ac16490800", "vin": [{"sequence": 4294967294, "scriptSig": {"hex": "4730440220147106c3943a03fdc2e85fdb662185b6a9ecd624f1441e2e85c19be870c4339302207d020f312a0d7f5b1767ad6a5afa4f78ec0eada4b7ad28a3075fb3c62e50516a012102e019d22d1b7392bda4e0ef05dbd779d0f5d73daad0edd1d9c38bebf06b86d9f3", "asm": "30440220147106c3943a03fdc2e85fdb662185b6a9ecd624f1441e2e85c19be870c4339302207d020f312a0d7f5b1767ad6a5afa4f78ec0eada4b7ad28a3075fb3c62e50516a[ALL] 02e019d22d1b7392bda4e0ef05dbd779d0f5d73daad0edd1d9c38bebf06b86d9f3"}, "vout": 1, "txid": "ae4b1b6af99daa133010eaf7bc8d6dbf9886a99a63c3243327fda79372326ff6"}], "txid": "ecd6e0095342b00eab45e65336e09ace0cbf08745cd7872e134ee724cb1dc76f", "blocktime": 1537875543, "version": 2, "confirmations": 11464, "time": 1537875543, "locktime": 542998, "vsize": 225, "size": 225}