{"hash": "ecd962b891f596e912cab1cd244f1006cffb62693158e404e506deecfbe40a63", "blockhash": "0000000000000000000e13cef7c366c0283d82e591d1acd082e914b08063cdf1", "vout": [{"scriptPubKey": {"reqSigs": 1, "hex": "76a9145a1a3520a101a2642e5bbef18638e54bcfa97db788ac", "addresses": ["19DRDCMcw9gazLKey3ccrkqWL8B2ywyYJe"], "asm": "OP_DUP OP_HASH160 5a1a3520a101a2642e5bbef18638e54bcfa97db7 OP_EQUALVERIFY OP_CHECKSIG", "type": "pubkeyhash"}, "value": 0.0004, "n": 0}, {"scriptPubKey": {"reqSigs": 1, "hex": "a914c567ebce6ed88cfb13d198f0cde34afd2edcc8b387", "addresses": ["3KgoXuAiWNe1YyrYP9UkY3VDjZTVck5jB3"], "asm": "OP_HASH160 c567ebce6ed88cfb13d198f0cde34afd2edcc8b3 OP_EQUAL", "type": "scripthash"}, "value": 0.34298169, "n": 1}, {"scriptPubKey": {"reqSigs": 1, "hex": "76a914a8e5427d1001cb23d444083b71db0ebe02f475bf88ac", "addresses": ["1GQ3AUPP6CQB1mNT8dap5tw9qbHrNsSZre"], "asm": "OP_DUP OP_HASH160 a8e5427d1001cb23d444083b71db0ebe02f475bf OP_EQUALVERIFY OP_CHECKSIG", "type": "pubkeyhash"}, "value": 8.698e-05, "n": 2}], "hex": "0100000002e95d1bb03bb65fae54fccfdd5ce4fe0370f01f449b323fcc0c403425b088c588000000006a4730440220200c96da6b8fe8cb9e001cde8ed5719aa2d502d4ae97339844cd05d7d8d0a64b022073c0a6881ce5f80cacc9697bc6ae3ab523379b9e47b8ba2c1db055c1d4a16fe80121023e0d91e960941fe09bf8597cbc7ff81ac3295aa598f1cd655502b55d0c320dc2ffffffff48c9a47e34d830970bc3c66d763e474225bf16b1424c7dcdca3375f68491cf71020000006a4730440220120e3792a0a8b9edb927cbb8346b4b7eaf88cd01a0ce24d39d2a6be2b87a94020220674fa5185cf0e745b3468832461c8e2e2e0c4ca86e74b5361f7c78bbd0f61f9f012103802934d387f0fbc32bcf4b952407ed348c265e6563ef5d721c0a59f4c59b7961ffffffff03409c0000000000001976a9145a1a3520a101a2642e5bbef18638e54bcfa97db788ac39590b020000000017a914c567ebce6ed88cfb13d198f0cde34afd2edcc8b387fa210000000000001976a914a8e5427d1001cb23d444083b71db0ebe02f475bf88ac00000000", "vin": [{"sequence": 4294967295, "scriptSig": {"hex": "4730440220200c96da6b8fe8cb9e001cde8ed5719aa2d502d4ae97339844cd05d7d8d0a64b022073c0a6881ce5f80cacc9697bc6ae3ab523379b9e47b8ba2c1db055c1d4a16fe80121023e0d91e960941fe09bf8597cbc7ff81ac3295aa598f1cd655502b55d0c320dc2", "asm": "30440220200c96da6b8fe8cb9e001cde8ed5719aa2d502d4ae97339844cd05d7d8d0a64b022073c0a6881ce5f80cacc9697bc6ae3ab523379b9e47b8ba2c1db055c1d4a16fe8[ALL] 023e0d91e960941fe09bf8597cbc7ff81ac3295aa598f1cd655502b55d0c320dc2"}, "vout": 0, "txid": "88c588b02534400ccc3f329b441ff07003fee45cddcffc54ae5fb63bb01b5de9"}, {"sequence": 4294967295, "scriptSig": {"hex": "4730440220120e3792a0a8b9edb927cbb8346b4b7eaf88cd01a0ce24d39d2a6be2b87a94020220674fa5185cf0e745b3468832461c8e2e2e0c4ca86e74b5361f7c78bbd0f61f9f012103802934d387f0fbc32bcf4b952407ed348c265e6563ef5d721c0a59f4c59b7961", "asm": "30440220120e3792a0a8b9edb927cbb8346b4b7eaf88cd01a0ce24d39d2a6be2b87a94020220674fa5185cf0e745b3468832461c8e2e2e0c4ca86e74b5361f7c78bbd0f61f9f[ALL] 03802934d387f0fbc32bcf4b952407ed348c265e6563ef5d721c0a59f4c59b7961"}, "vout": 2, "txid": "71cf9184f67533cacd7d4c42b116bf2542473e766dc6c30b9730d8347ea4c948"}], "txid": "ecd962b891f596e912cab1cd244f1006cffb62693158e404e506deecfbe40a63", "blocktime": 1537871767, "version": 1, "confirmations": 11495, "time": 1537871767, "locktime": 0, "vsize": 404, "size": 404}