{"hash": "ecd9d813fc8c919111ce59d93e19fbadf651cce2b894a222ea273531ed8aff50", "blockhash": "0000000000000000001f0ddff1eddb255c1121bcd4da4f1bc9a0da00cae72433", "vout": [{"scriptPubKey": {"reqSigs": 1, "hex": "76a914f0d2ce9e1aedac157fc35fb4b5c904a78f9c7a0e88ac", "addresses": ["1NxMiB4HRptBiucvfi6QccnyACPzjpjrGb"], "asm": "OP_DUP OP_HASH160 f0d2ce9e1aedac157fc35fb4b5c904a78f9c7a0e OP_EQUALVERIFY OP_CHECKSIG", "type": "pubkeyhash"}, "value": 0.001025, "n": 0}, {"scriptPubKey": {"reqSigs": 1, "hex": "76a914997d9f1755ffd0e6ed50d1dcfef452dc325127a488ac", "addresses": ["1EzasgXFXQX425PXo8hAdkyAixHx7j4bPz"], "asm": "OP_DUP OP_HASH160 997d9f1755ffd0e6ed50d1dcfef452dc325127a4 OP_EQUALVERIFY OP_CHECKSIG", "type": "pubkeyhash"}, "value": 0.0015571, "n": 1}], "hex": "0100000001605bdcbf1288599e0298c235ca106c5be336b01c533e256696060565f68a5634010000006b483045022100c3453dd3241ae560bc79ae0a68b5cddf2f831fab51b210bdbe611e84ebb7419702204a627cff36dd253d7c7fa45f41e71d3623e6eec398aa9fb8f43c4a120e007eda012103bf8f0e4f945e9c5457d013150634d5201babe8cb757512959b2adb11ea866711ffffffff0264900100000000001976a914f0d2ce9e1aedac157fc35fb4b5c904a78f9c7a0e88ac3e600200000000001976a914997d9f1755ffd0e6ed50d1dcfef452dc325127a488ac00000000", "vin": [{"sequence": 4294967295, "scriptSig": {"hex": "483045022100c3453dd3241ae560bc79ae0a68b5cddf2f831fab51b210bdbe611e84ebb7419702204a627cff36dd253d7c7fa45f41e71d3623e6eec398aa9fb8f43c4a120e007eda012103bf8f0e4f945e9c5457d013150634d5201babe8cb757512959b2adb11ea866711", "asm": "3045022100c3453dd3241ae560bc79ae0a68b5cddf2f831fab51b210bdbe611e84ebb7419702204a627cff36dd253d7c7fa45f41e71d3623e6eec398aa9fb8f43c4a120e007eda[ALL] 03bf8f0e4f945e9c5457d013150634d5201babe8cb757512959b2adb11ea866711"}, "vout": 1, "txid": "34568af66505069666253e531cb036e35b6c10ca35c298029e598812bfdc5b60"}], "txid": "ecd9d813fc8c919111ce59d93e19fbadf651cce2b894a222ea273531ed8aff50", "blocktime": 1537872018, "version": 1, "confirmations": 11489, "time": 1537872018, "locktime": 0, "vsize": 226, "size": 226}