{"hash": "ecda5c722b668c09a8d3df6ce20d5ecde6bfeb66bae02b166e81373ecc3d246f", "blockhash": "0000000000000000000dcc0f55137456b1a82d3642486a52398922ac4d620174", "vout": [{"scriptPubKey": {"reqSigs": 1, "hex": "76a9143ebbbae1c488115bdace3fdc78b8b63027b76eba88ac", "addresses": ["16ihnbyk6xptborCGh48TZasm1HwNJHpYb"], "asm": "OP_DUP OP_HASH160 3ebbbae1c488115bdace3fdc78b8b63027b76eba OP_EQUALVERIFY OP_CHECKSIG", "type": "pubkeyhash"}, "value": 5.4, "n": 0}, {"scriptPubKey": {"reqSigs": 1, "hex": "76a9145355959d0304fe5c25a261b1fb9dfa3c93822dcf88ac", "addresses": ["18bdcS4opwFv8DjWshouvgJ1ZpQP2kdYL7"], "asm": "OP_DUP OP_HASH160 5355959d0304fe5c25a261b1fb9dfa3c93822dcf OP_EQUALVERIFY OP_CHECKSIG", "type": "pubkeyhash"}, "value": 4.65114, "n": 1}], "hex": "01000000030e94410205e6d1629f706035e248c599911203aaa6c69b372a2c5c003f631258010000006b4830450221008e19f34c2d8c131ce7a84d4612aeb3946eff9eff4b6dcf262d5be803ede0942702206e36055ebb2072e6a866f8a03bec9d9ecf93791a9b651f6dc5d8e18d6f55a362012103229e28bc4d4af990b16a7ab06f3193b3ebc92cf13f6bc43827dae43e3e31c640ffffffff4eee5ab25bdf14774aada027ad339a7aa5218bb34978aa578512eb76530c5895000000006a47304402205166992e27763db46babcb97878d287e375ee86e6a9ea5a6cb66a49b6f0ee4fc022069b197bc7821d37bbe091cc37628c402b9356a84ef431042a6d22f99bc9b9569012103c42a1476192022eda959cd96c646c3f785b988d0fa69ba06637ee256d77cb4d2fffffffff7e297a2fb6b6c04e161ca4e77a88876dddb59f82ab1aa7c7c54cd9758f992b2000000006b483045022100e497a6c45755c3ec09fb306177fd0e54f38888e16dc48245ab64efa25314a332022062c23b32ef8dbc25bc13be1a6e2c7b4cc8fbc41e3633113a4cb25bf80961b3c70121028da4b30a407babfc30c5d215f72fc8547f78fb445d82f63c8183f904432081c8ffffffff0200bf2f20000000001976a9143ebbbae1c488115bdace3fdc78b8b63027b76eba88ac9013b91b000000001976a9145355959d0304fe5c25a261b1fb9dfa3c93822dcf88ac00000000", "vin": [{"sequence": 4294967295, "scriptSig": {"hex": "4830450221008e19f34c2d8c131ce7a84d4612aeb3946eff9eff4b6dcf262d5be803ede0942702206e36055ebb2072e6a866f8a03bec9d9ecf93791a9b651f6dc5d8e18d6f55a362012103229e28bc4d4af990b16a7ab06f3193b3ebc92cf13f6bc43827dae43e3e31c640", "asm": "30450221008e19f34c2d8c131ce7a84d4612aeb3946eff9eff4b6dcf262d5be803ede0942702206e36055ebb2072e6a866f8a03bec9d9ecf93791a9b651f6dc5d8e18d6f55a362[ALL] 03229e28bc4d4af990b16a7ab06f3193b3ebc92cf13f6bc43827dae43e3e31c640"}, "vout": 1, "txid": "5812633f005c2c2a379bc6a6aa03129199c548e23560709f62d1e6050241940e"}, {"sequence": 4294967295, "scriptSig": {"hex": "47304402205166992e27763db46babcb97878d287e375ee86e6a9ea5a6cb66a49b6f0ee4fc022069b197bc7821d37bbe091cc37628c402b9356a84ef431042a6d22f99bc9b9569012103c42a1476192022eda959cd96c646c3f785b988d0fa69ba06637ee256d77cb4d2", "asm": "304402205166992e27763db46babcb97878d287e375ee86e6a9ea5a6cb66a49b6f0ee4fc022069b197bc7821d37bbe091cc37628c402b9356a84ef431042a6d22f99bc9b9569[ALL] 03c42a1476192022eda959cd96c646c3f785b988d0fa69ba06637ee256d77cb4d2"}, "vout": 0, "txid": "95580c5376eb128557aa7849b38b21a57a9a33ad27a0ad4a7714df5bb25aee4e"}, {"sequence": 4294967295, "scriptSig": {"hex": "483045022100e497a6c45755c3ec09fb306177fd0e54f38888e16dc48245ab64efa25314a332022062c23b32ef8dbc25bc13be1a6e2c7b4cc8fbc41e3633113a4cb25bf80961b3c70121028da4b30a407babfc30c5d215f72fc8547f78fb445d82f63c8183f904432081c8", "asm": "3045022100e497a6c45755c3ec09fb306177fd0e54f38888e16dc48245ab64efa25314a332022062c23b32ef8dbc25bc13be1a6e2c7b4cc8fbc41e3633113a4cb25bf80961b3c7[ALL] 028da4b30a407babfc30c5d215f72fc8547f78fb445d82f63c8183f904432081c8"}, "vout": 0, "txid": "b292f95897cd547c7caab12af859dbdd7688a8774eca61e1046c6bfba297e2f7"}], "txid": "ecda5c722b668c09a8d3df6ce20d5ecde6bfeb66bae02b166e81373ecc3d246f", "blocktime": 1537870268, "version": 1, "confirmations": 11516, "time": 1537870268, "locktime": 0, "vsize": 521, "size": 521}