{"hash": "ecdc787b609e5181c8c677ef2246f22417b87302e973cf897aafd320ae1eb712", "blockhash": "0000000000000000000e13cef7c366c0283d82e591d1acd082e914b08063cdf1", "vout": [{"scriptPubKey": {"reqSigs": 1, "hex": "76a914dc039e18a8fc36343c043c8c3de73aa15808584888ac", "addresses": ["1M4KzZDU9uYkgqqu72ofc53VqKpHqW3ikr"], "asm": "OP_DUP OP_HASH160 dc039e18a8fc36343c043c8c3de73aa158085848 OP_EQUALVERIFY OP_CHECKSIG", "type": "pubkeyhash"}, "value": 0.00469116, "n": 0}, {"scriptPubKey": {"reqSigs": 1, "hex": "76a91464f747d18eb9cba65ba50311ebb72bfa5971198188ac", "addresses": ["1ACroY6zXJiweiBkRVMc9WG7ithaYe7tgA"], "asm": "OP_DUP OP_HASH160 64f747d18eb9cba65ba50311ebb72bfa59711981 OP_EQUALVERIFY OP_CHECKSIG", "type": "pubkeyhash"}, "value": 0.24094116, "n": 1}], "hex": "02000000017f185e966c77f9bd9864c73f179fff27505be68cae60d5afef78aa79f75e3090010000006a4730440220508c86f024682b57711eb753eb8a0f1aa3d766c1f9fb7ef97c8c84e6031dd721022051ee6ad462860a1532c5450136fee68cf4eba4a6592f79f68d062f60774bfed301210278401c5a4e7e844300799a836c20547b5273fbb4b632b32ca2d7a54d1a38ddd3feffffff027c280700000000001976a914dc039e18a8fc36343c043c8c3de73aa15808584888aca4a56f01000000001976a91464f747d18eb9cba65ba50311ebb72bfa5971198188ac10490800", "vin": [{"sequence": 4294967294, "scriptSig": {"hex": "4730440220508c86f024682b57711eb753eb8a0f1aa3d766c1f9fb7ef97c8c84e6031dd721022051ee6ad462860a1532c5450136fee68cf4eba4a6592f79f68d062f60774bfed301210278401c5a4e7e844300799a836c20547b5273fbb4b632b32ca2d7a54d1a38ddd3", "asm": "30440220508c86f024682b57711eb753eb8a0f1aa3d766c1f9fb7ef97c8c84e6031dd721022051ee6ad462860a1532c5450136fee68cf4eba4a6592f79f68d062f60774bfed3[ALL] 0278401c5a4e7e844300799a836c20547b5273fbb4b632b32ca2d7a54d1a38ddd3"}, "vout": 1, "txid": "90305ef779aa78efafd560ae8ce65b5027ff9f173fc76498bdf9776c965e187f"}], "txid": "ecdc787b609e5181c8c677ef2246f22417b87302e973cf897aafd320ae1eb712", "blocktime": 1537871767, "version": 2, "confirmations": 11490, "time": 1537871767, "locktime": 542992, "vsize": 225, "size": 225}