{"hash": "ecdcdc921cee17dcd84d6ac5bd0843c74f9c5741201dedb25448bb23eff2cd5d", "blockhash": "00000000000000000017f5eb5941039fbcee6240d03bc1f2f8e35350df66a1d8", "vout": [{"scriptPubKey": {"reqSigs": 1, "hex": "76a914ac50ad9f53f7a7ab0de55f1f7bd5c146a87029e088ac", "addresses": ["1Gi7scgt19CidGz8ZpHTrtsMUfXLS6Wt8Q"], "asm": "OP_DUP OP_HASH160 ac50ad9f53f7a7ab0de55f1f7bd5c146a87029e0 OP_EQUALVERIFY OP_CHECKSIG", "type": "pubkeyhash"}, "value": 0.08585115, "n": 0}, {"scriptPubKey": {"type": "nulldata", "hex": "6a146f6d6e69000000000000001f000000e6ad4d4380", "asm": "OP_RETURN 6f6d6e69000000000000001f000000e6ad4d4380"}, "value": 0.0, "n": 1}, {"scriptPubKey": {"reqSigs": 1, "hex": "76a914342da52b6072e82f6820df54684dc594144ade7388ac", "addresses": ["15ktpTcQQbe15hWeNxaQBViFfwmJ7yekgV"], "asm": "OP_DUP OP_HASH160 342da52b6072e82f6820df54684dc594144ade73 OP_EQUALVERIFY OP_CHECKSIG", "type": "pubkeyhash"}, "value": 5.46e-06, "n": 2}], "hex": "010000000277004f08c065d0976f6329eac0f5ea49ebe5aa49a1648f25f9300a42350ea0ab000000006a4730440220575b8bcdf2e10f9267541603edb64bba1dcccc56dfaf707b8e301a712efb823d022039aad9f28157822f419efa7271a0e2618fe05681510d720e466c4e9c58fc89c20121035261cbee3658f2d5eda72974ecb86224ec61e3b879b7a7e0f69e87ddfd028580ffffffff77004f08c065d0976f6329eac0f5ea49ebe5aa49a1648f25f9300a42350ea0ab020000006a47304402206dec1d723a5afc82701abce42c7ab6106880f16d787bad0ac237f034cf1295b9022009efabe22aa03ad63eaa3229419e2ca941b3e68edb795f67c089af3860f0f34e0121035261cbee3658f2d5eda72974ecb86224ec61e3b879b7a7e0f69e87ddfd028580ffffffff039bff8200000000001976a914ac50ad9f53f7a7ab0de55f1f7bd5c146a87029e088ac0000000000000000166a146f6d6e69000000000000001f000000e6ad4d438022020000000000001976a914342da52b6072e82f6820df54684dc594144ade7388ac00000000", "vin": [{"sequence": 4294967295, "scriptSig": {"hex": "4730440220575b8bcdf2e10f9267541603edb64bba1dcccc56dfaf707b8e301a712efb823d022039aad9f28157822f419efa7271a0e2618fe05681510d720e466c4e9c58fc89c20121035261cbee3658f2d5eda72974ecb86224ec61e3b879b7a7e0f69e87ddfd028580", "asm": "30440220575b8bcdf2e10f9267541603edb64bba1dcccc56dfaf707b8e301a712efb823d022039aad9f28157822f419efa7271a0e2618fe05681510d720e466c4e9c58fc89c2[ALL] 035261cbee3658f2d5eda72974ecb86224ec61e3b879b7a7e0f69e87ddfd028580"}, "vout": 0, "txid": "aba00e35420a30f9258f64a149aae5eb49eaf5c0ea29636f97d065c0084f0077"}, {"sequence": 4294967295, "scriptSig": {"hex": "47304402206dec1d723a5afc82701abce42c7ab6106880f16d787bad0ac237f034cf1295b9022009efabe22aa03ad63eaa3229419e2ca941b3e68edb795f67c089af3860f0f34e0121035261cbee3658f2d5eda72974ecb86224ec61e3b879b7a7e0f69e87ddfd028580", "asm": "304402206dec1d723a5afc82701abce42c7ab6106880f16d787bad0ac237f034cf1295b9022009efabe22aa03ad63eaa3229419e2ca941b3e68edb795f67c089af3860f0f34e[ALL] 035261cbee3658f2d5eda72974ecb86224ec61e3b879b7a7e0f69e87ddfd028580"}, "vout": 2, "txid": "aba00e35420a30f9258f64a149aae5eb49eaf5c0ea29636f97d065c0084f0077"}], "txid": "ecdcdc921cee17dcd84d6ac5bd0843c74f9c5741201dedb25448bb23eff2cd5d", "blocktime": 1537874412, "version": 1, "confirmations": 11467, "time": 1537874412, "locktime": 0, "vsize": 403, "size": 403}