{"hash": "c6865fade21f32515d0d809d4973df2150e035d5b6a73c58ea6087d05e41a2ab", "blockhash": "0000000000000000000baef3f32e3676a92c3b2e5da21b426e4f302fc371ce76", "vout": [{"scriptPubKey": {"reqSigs": 1, "hex": "76a91471fd974a1e4c1cea38e6d8cb882c7f0f3e577f4e88ac", "addresses": ["1BPj9VE7Rxioya5xp1ifR9gPpA2BWzebo2"], "asm": "OP_DUP OP_HASH160 71fd974a1e4c1cea38e6d8cb882c7f0f3e577f4e OP_EQUALVERIFY OP_CHECKSIG", "type": "pubkeyhash"}, "value": 0.001236, "n": 0}, {"scriptPubKey": {"reqSigs": 1, "hex": "a9149649ad6d2730bb28020a268d9d80df10a9f74ad487", "addresses": ["3FPfYWwfMfKMGY7fuPHvz2b73RhTNGzsm3"], "asm": "OP_HASH160 9649ad6d2730bb28020a268d9d80df10a9f74ad4 OP_EQUAL", "type": "scripthash"}, "value": 13.73564552, "n": 1}], "hex": "01000000000101f4ba65a1177ad5b53f733744b94fda96cd98843b5b0fb32614211c47bca8da8b01000000232200207768efcc1e5eb3d28410fac3f45831004c860cc24cddd940a616b34324823fceffffffff02d0e20100000000001976a91471fd974a1e4c1cea38e6d8cb882c7f0f3e577f4e88ac88eede510000000017a9149649ad6d2730bb28020a268d9d80df10a9f74ad487040047304402206871c76e57b78b1b5a0067d8c430b5f49dfef710ea1e58fd323c0dd6fb47544b022075fa11b404ec90565131ae3a517af4fa4d2554b0b8742bdcc00f5eb948db2eeb0147304402206901a0a3a8332dc0ab5aa132c67661d0edc7b1d2639d0d7231ab7406ee0df0ed02206d5e93ca0f36acf9edfcd0eca78ba460fe7ec10f65a9006c6b5d0013b1e4c27a0147522102529d5d1f6733ab45d9d50e07db42c7f6b967ae321c38b726c2247f149959b8262103d0c936a5988dd8421c63240496b723b0ec42400c38b9350e32c2eb4f47d8796952ae00000000", "vin": [{"txinwitness": ["", "304402206871c76e57b78b1b5a0067d8c430b5f49dfef710ea1e58fd323c0dd6fb47544b022075fa11b404ec90565131ae3a517af4fa4d2554b0b8742bdcc00f5eb948db2eeb01", "304402206901a0a3a8332dc0ab5aa132c67661d0edc7b1d2639d0d7231ab7406ee0df0ed02206d5e93ca0f36acf9edfcd0eca78ba460fe7ec10f65a9006c6b5d0013b1e4c27a01", "522102529d5d1f6733ab45d9d50e07db42c7f6b967ae321c38b726c2247f149959b8262103d0c936a5988dd8421c63240496b723b0ec42400c38b9350e32c2eb4f47d8796952ae"], "sequence": 4294967295, "scriptSig": {"hex": "2200207768efcc1e5eb3d28410fac3f45831004c860cc24cddd940a616b34324823fce", "asm": "00207768efcc1e5eb3d28410fac3f45831004c860cc24cddd940a616b34324823fce"}, "vout": 1, "txid": "8bdaa8bc471c211426b30f5b3b8498cd96da4fb94437733fb5d57a17a165baf4"}], "txid": "ecdfc73aef6cdc8cbd4f4d52be2c7bf297dffe97cf38d400f352420f5cd2984f", "blocktime": 1537876114, "version": 1, "confirmations": 11462, "time": 1537876114, "locktime": 0, "vsize": 207, "size": 372}