{"hash": "ece21fe5167e16e7b66a23cb55af3b547c294bffcba3de1f7659e596a2f56ce3", "blockhash": "00000000000000000024a2167bbff67b0be802c0b01cdd79e6331c2be6459f87", "vout": [{"scriptPubKey": {"reqSigs": 1, "hex": "76a91420e7403bfc68f888a869599df4d7d2e71b39ad4b88ac", "addresses": ["13zyejZgaaC1HrobVij5Md7aBeieqhgK7U"], "asm": "OP_DUP OP_HASH160 20e7403bfc68f888a869599df4d7d2e71b39ad4b OP_EQUALVERIFY OP_CHECKSIG", "type": "pubkeyhash"}, "value": 0.02942202, "n": 0}, {"scriptPubKey": {"reqSigs": 1, "hex": "76a914e45f4da623b0f6ece22303e2f73e8fdbb186871e88ac", "addresses": ["1MpXEXcfQgJTPNZjBkZZtZ8v9PmHuHhiLW"], "asm": "OP_DUP OP_HASH160 e45f4da623b0f6ece22303e2f73e8fdbb186871e OP_EQUALVERIFY OP_CHECKSIG", "type": "pubkeyhash"}, "value": 0.0721284, "n": 1}], "hex": "0100000001deee71875dc9eb82968e41d395604b80fcb17dcc3ddbb6a9f346229ed018c2cf010000006b4830450221009ff8e06bae93a5f6c956909a3034a7543d320480e61db90dcaa466e84249461402201666bbeb88bfa686355ce2911c4f3cb46ea533ed9ef7c6214e4e348ec797d0db012102477ee6b3948b076f53f0a60c978cbac1c06da145926cd2b6182a36aa4f8254ebffffffff02fae42c00000000001976a91420e7403bfc68f888a869599df4d7d2e71b39ad4b88ac280f6e00000000001976a914e45f4da623b0f6ece22303e2f73e8fdbb186871e88ac00000000", "vin": [{"sequence": 4294967295, "scriptSig": {"hex": "4830450221009ff8e06bae93a5f6c956909a3034a7543d320480e61db90dcaa466e84249461402201666bbeb88bfa686355ce2911c4f3cb46ea533ed9ef7c6214e4e348ec797d0db012102477ee6b3948b076f53f0a60c978cbac1c06da145926cd2b6182a36aa4f8254eb", "asm": "30450221009ff8e06bae93a5f6c956909a3034a7543d320480e61db90dcaa466e84249461402201666bbeb88bfa686355ce2911c4f3cb46ea533ed9ef7c6214e4e348ec797d0db[ALL] 02477ee6b3948b076f53f0a60c978cbac1c06da145926cd2b6182a36aa4f8254eb"}, "vout": 1, "txid": "cfc218d09e2246f3a9b6db3dcc7db1fc804b6095d3418e9682ebc95d8771eede"}], "txid": "ece21fe5167e16e7b66a23cb55af3b547c294bffcba3de1f7659e596a2f56ce3", "blocktime": 1537870564, "version": 1, "confirmations": 11515, "time": 1537870564, "locktime": 0, "vsize": 226, "size": 226}