{"hash": "ece83598d4fc4c92cb3ecb01e19cd1ed258e9bda5e1b01835b00d30aaf866fdc", "blockhash": "00000000000000000017f5eb5941039fbcee6240d03bc1f2f8e35350df66a1d8", "vout": [{"scriptPubKey": {"reqSigs": 1, "hex": "a914b3598a702dea2bd7e79713c03b7b6584eca3ea8f87", "addresses": ["3J3L9HPpAaCgahLKp4FJQ2j3L4LSBcvukw"], "asm": "OP_HASH160 b3598a702dea2bd7e79713c03b7b6584eca3ea8f OP_EQUAL", "type": "scripthash"}, "value": 0.00010708, "n": 0}], "hex": "010000000290d386db5682ccefc1b9864e394a3682c031da6a75565f90dae5e76f22a53f00010000008a4730440220368ff13f3c53ce0129a661d1245263c8378900d936fd44f79a88277fc312adcd022052d78f65c49cc851c51ba1bc53dea98001f01fc2eec8ef6743c19304e6c34b5d01410479949faeae58788681ecc6346a53a8676ae3e6e0c4cfc2cd8586cf5658a067b2efc855209e206604afe504c643129677e37b8452e4ecde783e302c57593c7265ffffffff5e7cc5db22b9398324cb07d62004d9e1ec34d5cebf8a37b15ae642f2aab6980f010000008a473044022040e1be3a65cecbce1b1f5ac64a48c6e1c7439974d7c96b170c6c4f3f7fadc4f3022016a576b94d955259ca531a8160c932ad510afe214d56bc6c1e19e4b08e5abbc601410479949faeae58788681ecc6346a53a8676ae3e6e0c4cfc2cd8586cf5658a067b2efc855209e206604afe504c643129677e37b8452e4ecde783e302c57593c7265ffffffff01d42900000000000017a914b3598a702dea2bd7e79713c03b7b6584eca3ea8f8700000000", "vin": [{"sequence": 4294967295, "scriptSig": {"hex": "4730440220368ff13f3c53ce0129a661d1245263c8378900d936fd44f79a88277fc312adcd022052d78f65c49cc851c51ba1bc53dea98001f01fc2eec8ef6743c19304e6c34b5d01410479949faeae58788681ecc6346a53a8676ae3e6e0c4cfc2cd8586cf5658a067b2efc855209e206604afe504c643129677e37b8452e4ecde783e302c57593c7265", "asm": "30440220368ff13f3c53ce0129a661d1245263c8378900d936fd44f79a88277fc312adcd022052d78f65c49cc851c51ba1bc53dea98001f01fc2eec8ef6743c19304e6c34b5d[ALL] 0479949faeae58788681ecc6346a53a8676ae3e6e0c4cfc2cd8586cf5658a067b2efc855209e206604afe504c643129677e37b8452e4ecde783e302c57593c7265"}, "vout": 1, "txid": "003fa5226fe7e5da905f56756ada31c082364a394e86b9c1efcc8256db86d390"}, {"sequence": 4294967295, "scriptSig": {"hex": "473044022040e1be3a65cecbce1b1f5ac64a48c6e1c7439974d7c96b170c6c4f3f7fadc4f3022016a576b94d955259ca531a8160c932ad510afe214d56bc6c1e19e4b08e5abbc601410479949faeae58788681ecc6346a53a8676ae3e6e0c4cfc2cd8586cf5658a067b2efc855209e206604afe504c643129677e37b8452e4ecde783e302c57593c7265", "asm": "3044022040e1be3a65cecbce1b1f5ac64a48c6e1c7439974d7c96b170c6c4f3f7fadc4f3022016a576b94d955259ca531a8160c932ad510afe214d56bc6c1e19e4b08e5abbc6[ALL] 0479949faeae58788681ecc6346a53a8676ae3e6e0c4cfc2cd8586cf5658a067b2efc855209e206604afe504c643129677e37b8452e4ecde783e302c57593c7265"}, "vout": 1, "txid": "0f98b6aaf242e65ab1378abfced534ece1d90420d607cb248339b922dbc57c5e"}], "txid": "ece83598d4fc4c92cb3ecb01e19cd1ed258e9bda5e1b01835b00d30aaf866fdc", "blocktime": 1537874412, "version": 1, "confirmations": 11467, "time": 1537874412, "locktime": 0, "vsize": 400, "size": 400}