{"hash": "eceabc10435b9fa0c1792ebe80f4e92c81beca6de3aeea64ed9d03e87251db08", "blockhash": "00000000000000000017f5eb5941039fbcee6240d03bc1f2f8e35350df66a1d8", "vout": [{"scriptPubKey": {"reqSigs": 1, "hex": "76a91447f02d614d3496bd31aa16767c9f269f3a41561888ac", "addresses": ["17ZNhRt1KKdRERqFs5qD4CsbD2DUH3Jvdx"], "asm": "OP_DUP OP_HASH160 47f02d614d3496bd31aa16767c9f269f3a415618 OP_EQUALVERIFY OP_CHECKSIG", "type": "pubkeyhash"}, "value": 0.00051293, "n": 0}, {"scriptPubKey": {"reqSigs": 1, "hex": "76a914ea648a39825d11e6e94ac0a51f12cfba4f86ec1f88ac", "addresses": ["1NNMZXVrGdkb9x39wMscitRaHLrLokK45B"], "asm": "OP_DUP OP_HASH160 ea648a39825d11e6e94ac0a51f12cfba4f86ec1f OP_EQUALVERIFY OP_CHECKSIG", "type": "pubkeyhash"}, "value": 0.01875747, "n": 1}], "hex": "010000000285f986483c1f0c8f05f7df22d0baba0578a4652d7cdd58e5947e60f53b97576e000000006b483045022100a71c028fc46a678d6e4b636763d581884de69bf6c24688486f640164ff22af0802200afe54ae2958102ab2ba041da26ed21b01e455ed5cdfb95c35a0104fe34642fd012103089a8a98d0b710726737ceabaeb968a164d7ea3f03bc0178f48047eb60802c1dffffffffd22e87cec0ab8687b7fe29bf6a7dd0e63a4ff95986d179b5b6c4e525f3ae3696010000006b483045022100c4a0bad0563ff30f5511f5d9b717e92ed993b26eeacc3fbc6d44e7f80770148a02202f367e69d6538331e02bd72bde5252064c0bb01e66c85b4163c6066e8f275a5f012102d474211137d99a48447c89e98010904455712cfc5b61421dcc6216698a6ec447ffffffff025dc80000000000001976a91447f02d614d3496bd31aa16767c9f269f3a41561888ac239f1c00000000001976a914ea648a39825d11e6e94ac0a51f12cfba4f86ec1f88ac00000000", "vin": [{"sequence": 4294967295, "scriptSig": {"hex": "483045022100a71c028fc46a678d6e4b636763d581884de69bf6c24688486f640164ff22af0802200afe54ae2958102ab2ba041da26ed21b01e455ed5cdfb95c35a0104fe34642fd012103089a8a98d0b710726737ceabaeb968a164d7ea3f03bc0178f48047eb60802c1d", "asm": "3045022100a71c028fc46a678d6e4b636763d581884de69bf6c24688486f640164ff22af0802200afe54ae2958102ab2ba041da26ed21b01e455ed5cdfb95c35a0104fe34642fd[ALL] 03089a8a98d0b710726737ceabaeb968a164d7ea3f03bc0178f48047eb60802c1d"}, "vout": 0, "txid": "6e57973bf5607e94e558dd7c2d65a47805babad022dff7058f0c1f3c4886f985"}, {"sequence": 4294967295, "scriptSig": {"hex": "483045022100c4a0bad0563ff30f5511f5d9b717e92ed993b26eeacc3fbc6d44e7f80770148a02202f367e69d6538331e02bd72bde5252064c0bb01e66c85b4163c6066e8f275a5f012102d474211137d99a48447c89e98010904455712cfc5b61421dcc6216698a6ec447", "asm": "3045022100c4a0bad0563ff30f5511f5d9b717e92ed993b26eeacc3fbc6d44e7f80770148a02202f367e69d6538331e02bd72bde5252064c0bb01e66c85b4163c6066e8f275a5f[ALL] 02d474211137d99a48447c89e98010904455712cfc5b61421dcc6216698a6ec447"}, "vout": 1, "txid": "9636aef325e5c4b6b579d18659f94f3ae6d07d6abf29feb78786abc0ce872ed2"}], "txid": "eceabc10435b9fa0c1792ebe80f4e92c81beca6de3aeea64ed9d03e87251db08", "blocktime": 1537874412, "version": 1, "confirmations": 11468, "time": 1537874412, "locktime": 0, "vsize": 374, "size": 374}