{"hash": "ecebafe99a56f5257d21a370394d7211d967faf576e097e7532335603ecea2b9", "blockhash": "00000000000000000024a2167bbff67b0be802c0b01cdd79e6331c2be6459f87", "vout": [{"scriptPubKey": {"reqSigs": 1, "hex": "76a914a6292604428e5d266e0e4ee3c3ba4745595569cf88ac", "addresses": ["1G9aTtjSTvtgzKcWfArPiyo3Qawb4eEXTu"], "asm": "OP_DUP OP_HASH160 a6292604428e5d266e0e4ee3c3ba4745595569cf OP_EQUALVERIFY OP_CHECKSIG", "type": "pubkeyhash"}, "value": 0.000667, "n": 0}, {"scriptPubKey": {"reqSigs": 1, "hex": "76a914082b0faab766c34bc1f8e84d8d3cac9fe66fa85188ac", "addresses": ["1kBzUnxhfzPzu2ykwLnKRpQYRobYiuSBW"], "asm": "OP_DUP OP_HASH160 082b0faab766c34bc1f8e84d8d3cac9fe66fa851 OP_EQUALVERIFY OP_CHECKSIG", "type": "pubkeyhash"}, "value": 0.007867, "n": 1}], "hex": "0100000001d56e9e2f8a73f00020572057214ded6e69113e3e2a891f44c199c30fd8196c40000000006b483045022100fa3466c1a2de736d95f99c7f9a5bce0d5af7c5b0d84d05cca137eeea87dcc139022004386895a7ec8bd7ab2d60b3433d157c14311476f2b9e76209a2af3a82a448c90121026e2e4667991103ecd4ffcd52a27cfc68bd5d82d0e3c9b34d71a2293d055e69c2ffffffff028c040100000000001976a914a6292604428e5d266e0e4ee3c3ba4745595569cf88ac0c010c00000000001976a914082b0faab766c34bc1f8e84d8d3cac9fe66fa85188ac00000000", "vin": [{"sequence": 4294967295, "scriptSig": {"hex": "483045022100fa3466c1a2de736d95f99c7f9a5bce0d5af7c5b0d84d05cca137eeea87dcc139022004386895a7ec8bd7ab2d60b3433d157c14311476f2b9e76209a2af3a82a448c90121026e2e4667991103ecd4ffcd52a27cfc68bd5d82d0e3c9b34d71a2293d055e69c2", "asm": "3045022100fa3466c1a2de736d95f99c7f9a5bce0d5af7c5b0d84d05cca137eeea87dcc139022004386895a7ec8bd7ab2d60b3433d157c14311476f2b9e76209a2af3a82a448c9[ALL] 026e2e4667991103ecd4ffcd52a27cfc68bd5d82d0e3c9b34d71a2293d055e69c2"}, "vout": 0, "txid": "406c19d80fc399c1441f892a3e3e11696eed4d215720572000f0738a2f9e6ed5"}], "txid": "ecebafe99a56f5257d21a370394d7211d967faf576e097e7532335603ecea2b9", "blocktime": 1537870564, "version": 1, "confirmations": 11515, "time": 1537870564, "locktime": 0, "vsize": 226, "size": 226}