{"hash": "ecf12d8dfd0059b51c8cd3219ce91ac541542ae463fe542e80dcd42e274c654d", "blockhash": "0000000000000000000dcc0f55137456b1a82d3642486a52398922ac4d620174", "vout": [{"scriptPubKey": {"reqSigs": 1, "hex": "76a914cbc858c9a7f023b0cfbddc46de1b33b70587a7ab88ac", "addresses": ["1KaWBHRYKh46qR9pkXeLrRb1EMYvxs62jX"], "asm": "OP_DUP OP_HASH160 cbc858c9a7f023b0cfbddc46de1b33b70587a7ab OP_EQUALVERIFY OP_CHECKSIG", "type": "pubkeyhash"}, "value": 0.00271786, "n": 0}, {"scriptPubKey": {"reqSigs": 1, "hex": "76a914ceb1f3c9cf29f278b71feeae1e9aa4570bd9729d88ac", "addresses": ["1KquNrrMwnvGN853fvWgtXEnMrGU6qZwVz"], "asm": "OP_DUP OP_HASH160 ceb1f3c9cf29f278b71feeae1e9aa4570bd9729d OP_EQUALVERIFY OP_CHECKSIG", "type": "pubkeyhash"}, "value": 0.00303946, "n": 1}], "hex": "01000000014a2c0d13baa324ea73cd88efc568e693224e29119362e4fa84f289e82f206f34010000006b483045022100ecb9efb8ed6a6c3f97d10d1b771ad0012bd5f9d4f083eba979333e6f96045cd902207767ea5d0c433b3bc58540998a6ef725e1e805dd6673242cc9a5936a8eaba68f01210245a17b8dbf87fcf8619ad3dadb1f7a198a28ed306fb7e1ebdc513ad1fa7a800bffffffff02aa250400000000001976a914cbc858c9a7f023b0cfbddc46de1b33b70587a7ab88ac4aa30400000000001976a914ceb1f3c9cf29f278b71feeae1e9aa4570bd9729d88ac00000000", "vin": [{"sequence": 4294967295, "scriptSig": {"hex": "483045022100ecb9efb8ed6a6c3f97d10d1b771ad0012bd5f9d4f083eba979333e6f96045cd902207767ea5d0c433b3bc58540998a6ef725e1e805dd6673242cc9a5936a8eaba68f01210245a17b8dbf87fcf8619ad3dadb1f7a198a28ed306fb7e1ebdc513ad1fa7a800b", "asm": "3045022100ecb9efb8ed6a6c3f97d10d1b771ad0012bd5f9d4f083eba979333e6f96045cd902207767ea5d0c433b3bc58540998a6ef725e1e805dd6673242cc9a5936a8eaba68f[ALL] 0245a17b8dbf87fcf8619ad3dadb1f7a198a28ed306fb7e1ebdc513ad1fa7a800b"}, "vout": 1, "txid": "346f202fe889f284fae4629311294e2293e668c5ef88cd73ea24a3ba130d2c4a"}], "txid": "ecf12d8dfd0059b51c8cd3219ce91ac541542ae463fe542e80dcd42e274c654d", "blocktime": 1537870268, "version": 1, "confirmations": 11518, "time": 1537870268, "locktime": 0, "vsize": 226, "size": 226}