{"hash": "58920b8f99e0757e9cc02b9b40c651acc6d2f21281184536c149de042f9f164b", "blockhash": "0000000000000000001cda96e906b7601b7a6fb1a3b62bca570a9e5d8f4b3de1", "vout": [{"scriptPubKey": {"reqSigs": 1, "hex": "0014de00b211d699963a7f2463f7e23ea8c712b9704f", "addresses": ["bc1qmcqtyywknxtr5leyv0m7y04gcuftjuz0klxmcl"], "asm": "0 de00b211d699963a7f2463f7e23ea8c712b9704f", "type": "witness_v0_keyhash"}, "value": 0.17558475, "n": 0}, {"scriptPubKey": {"reqSigs": 1, "hex": "a914a2b0a874c71abf146fe57adf54f76f77faed670d87", "addresses": ["3GXF231kUbRKP1PjhHMdPyZthAwnLFms7f"], "asm": "OP_HASH160 a2b0a874c71abf146fe57adf54f76f77faed670d OP_EQUAL", "type": "scripthash"}, "value": 0.2763, "n": 1}], "hex": "01000000000101026156a3e60eca6b62296de0478f657def9fd4bc6ad4a3cd20cbd1f96a3a01370100000000ffffffff02cbeb0b0100000000160014de00b211d699963a7f2463f7e23ea8c712b9704fb099a5010000000017a914a2b0a874c71abf146fe57adf54f76f77faed670d87024830450221009a4cda367378eeadc89a937e4a767cd2c01b1f980dc5dc180f51250b55ce4b0c02207c7dd09b1aeadf8e9e780d810adee62ad009e8d048e1d755bd664933bac58cf90121037b1aeb47c5f9b284278b7238b2b7a586f8814b90dc623bb339168cbd5e52bd0e00000000", "vin": [{"txinwitness": ["30450221009a4cda367378eeadc89a937e4a767cd2c01b1f980dc5dc180f51250b55ce4b0c02207c7dd09b1aeadf8e9e780d810adee62ad009e8d048e1d755bd664933bac58cf901", "037b1aeb47c5f9b284278b7238b2b7a586f8814b90dc623bb339168cbd5e52bd0e"], "sequence": 4294967295, "scriptSig": {"hex": "", "asm": ""}, "vout": 1, "txid": "37013a6af9d1cb20cda3d46abcd49fef7d658f47e06d29626bca0ee6a3566102"}], "txid": "ecf2b012a7523dd16a97f7b3fe57aaf144aec5938436ab5d0353e3d57380929a", "blocktime": 1537873282, "version": 1, "confirmations": 11485, "time": 1537873282, "locktime": 0, "vsize": 142, "size": 224}