{"hash": "6ac97b8d37365f3960fac4c51aa70c51e7afd806c6bcb07ca59a072875429326", "blockhash": "00000000000000000024a2167bbff67b0be802c0b01cdd79e6331c2be6459f87", "vout": [{"scriptPubKey": {"reqSigs": 1, "hex": "76a91423e3973ee50bbe91336cd6fafcab4fcb84b6cc3388ac", "addresses": ["14GmJ124DFUZPXh5T8RxPqnpWJkw9QA3HW"], "asm": "OP_DUP OP_HASH160 23e3973ee50bbe91336cd6fafcab4fcb84b6cc33 OP_EQUALVERIFY OP_CHECKSIG", "type": "pubkeyhash"}, "value": 0.1020102, "n": 0}, {"scriptPubKey": {"reqSigs": 1, "hex": "0014405fa237360455116139030d00093f707c9ca718", "addresses": ["bc1qgp06ydekq323zcfeqvxsqzflwp7fefccz4pjpa"], "asm": "0 405fa237360455116139030d00093f707c9ca718", "type": "witness_v0_keyhash"}, "value": 0.05798392, "n": 1}], "hex": "01000000000101e017d64804da72679b91ae1b09488e83c23e6b9600cba78299561b8af9bc727c0000000017160014a0d17f4658da81511317e92b9dddd078f49a49d7ffffffff02bca79b00000000001976a91423e3973ee50bbe91336cd6fafcab4fcb84b6cc3388acf879580000000000160014405fa237360455116139030d00093f707c9ca71802473044022052876892c1084142f14617819ea363ad53466ac3e73eb28d452ebeecb1c26fe302200360e16eabe97ee108b3f10a11113956c77d9d0f2a6da6c33c006517ea6b6f3f012102e1af27e6a8474db8c56d1a9ba109f81a064c37d762fddcd61cec83647c80bc3e00000000", "vin": [{"txinwitness": ["3044022052876892c1084142f14617819ea363ad53466ac3e73eb28d452ebeecb1c26fe302200360e16eabe97ee108b3f10a11113956c77d9d0f2a6da6c33c006517ea6b6f3f01", "02e1af27e6a8474db8c56d1a9ba109f81a064c37d762fddcd61cec83647c80bc3e"], "sequence": 4294967295, "scriptSig": {"hex": "160014a0d17f4658da81511317e92b9dddd078f49a49d7", "asm": "0014a0d17f4658da81511317e92b9dddd078f49a49d7"}, "vout": 0, "txid": "7c72bcf98a1b569982a7cb00966b3ec2838e48091bae919b6772da0448d617e0"}], "txid": "ecf3f4c1aac2a8b30f04c0b699c1b0690f9030a028104e18c3067b9cc74e815e", "blocktime": 1537870564, "version": 1, "confirmations": 11515, "time": 1537870564, "locktime": 0, "vsize": 167, "size": 248}