{"hash": "ecf701ac759c3846392ae3c57f7ebd37268ef6c1bb1746f8d1c640943cbbdb31", "blockhash": "0000000000000000000baef3f32e3676a92c3b2e5da21b426e4f302fc371ce76", "vout": [{"scriptPubKey": {"reqSigs": 1, "hex": "76a9143e8ffe1827e1a23e4e2e2d91a0e729e30596e19488ac", "addresses": ["16hoPfxXYj9y5wDFHSA366mcBzqPdpFdbi"], "asm": "OP_DUP OP_HASH160 3e8ffe1827e1a23e4e2e2d91a0e729e30596e194 OP_EQUALVERIFY OP_CHECKSIG", "type": "pubkeyhash"}, "value": 0.00305984, "n": 0}, {"scriptPubKey": {"reqSigs": 1, "hex": "76a914b6363358942088db54e4f7a444e885431980515e88ac", "addresses": ["1HcSuqRDfrDQeWddSMBvGckKFpqfGrBdRJ"], "asm": "OP_DUP OP_HASH160 b6363358942088db54e4f7a444e885431980515e OP_EQUALVERIFY OP_CHECKSIG", "type": "pubkeyhash"}, "value": 0.02464004, "n": 1}], "hex": "0100000001eb95ab7424e4840ba0b345de802f5987a1ef54f03f3ecfcafa9a9f81f1b206df010000006b483045022100cfdebdbcd9a0f944d4b3cda211b637c887fe9bc2a28c8cd425b5d0b6611bc85d02202cb5c465b482bc9cfccddd70c47f26bf06f3065f175a7d54e8330c34ad077d99012102c8e4652ef2a570d16d8ede3f86c7e9e2104159e9f917f5dabd0e3d53c0432a0effffffff0240ab0400000000001976a9143e8ffe1827e1a23e4e2e2d91a0e729e30596e19488ac04992500000000001976a914b6363358942088db54e4f7a444e885431980515e88ac00000000", "vin": [{"sequence": 4294967295, "scriptSig": {"hex": "483045022100cfdebdbcd9a0f944d4b3cda211b637c887fe9bc2a28c8cd425b5d0b6611bc85d02202cb5c465b482bc9cfccddd70c47f26bf06f3065f175a7d54e8330c34ad077d99012102c8e4652ef2a570d16d8ede3f86c7e9e2104159e9f917f5dabd0e3d53c0432a0e", "asm": "3045022100cfdebdbcd9a0f944d4b3cda211b637c887fe9bc2a28c8cd425b5d0b6611bc85d02202cb5c465b482bc9cfccddd70c47f26bf06f3065f175a7d54e8330c34ad077d99[ALL] 02c8e4652ef2a570d16d8ede3f86c7e9e2104159e9f917f5dabd0e3d53c0432a0e"}, "vout": 1, "txid": "df06b2f1819f9afacacf3e3ff054efa187592f80de45b3a00b84e42474ab95eb"}], "txid": "ecf701ac759c3846392ae3c57f7ebd37268ef6c1bb1746f8d1c640943cbbdb31", "blocktime": 1537876114, "version": 1, "confirmations": 11460, "time": 1537876114, "locktime": 0, "vsize": 226, "size": 226}