{"hash": "ecfe5ccb4674f1acca403b20f580f3ca1bd77680c2be58e8659cb0781420ecf1", "blockhash": "0000000000000000000dcc0f55137456b1a82d3642486a52398922ac4d620174", "vout": [{"scriptPubKey": {"reqSigs": 1, "hex": "a914d67af57e923024eba7f4aee366a79f5905d455b187", "addresses": ["3MF5pw8634Xzos5VE98i2hyn2pEMjsHDh4"], "asm": "OP_HASH160 d67af57e923024eba7f4aee366a79f5905d455b1 OP_EQUAL", "type": "scripthash"}, "value": 0.00070061, "n": 0}, {"scriptPubKey": {"reqSigs": 1, "hex": "76a914b78cccb732fca2316726adade7358447e05e580288ac", "addresses": ["1HjXL3BPpD4bdAPxxjJnpy2XqFPPdY3o4M"], "asm": "OP_DUP OP_HASH160 b78cccb732fca2316726adade7358447e05e5802 OP_EQUALVERIFY OP_CHECKSIG", "type": "pubkeyhash"}, "value": 0.00538882, "n": 1}], "hex": "0100000001a015f35e79215b6d68c4f5f92d4a5b32a4b59822fcd7eab854fd8645f4e4a48e010000006b483045022100911ec4dec4bf8ac4bd3aa2f40a606796ad19631873f2b55d191bb168e8562dd00220405f3490dad73f303e2e43236ae3c0c4f85e4557983b789813a5e81741fbf6b6012103617671e759f7ed8a11b81d2a2b37e3ac5986641e9240f3a4cde277c654a9fa25ffffffff02ad1101000000000017a914d67af57e923024eba7f4aee366a79f5905d455b18702390800000000001976a914b78cccb732fca2316726adade7358447e05e580288ac00000000", "vin": [{"sequence": 4294967295, "scriptSig": {"hex": "483045022100911ec4dec4bf8ac4bd3aa2f40a606796ad19631873f2b55d191bb168e8562dd00220405f3490dad73f303e2e43236ae3c0c4f85e4557983b789813a5e81741fbf6b6012103617671e759f7ed8a11b81d2a2b37e3ac5986641e9240f3a4cde277c654a9fa25", "asm": "3045022100911ec4dec4bf8ac4bd3aa2f40a606796ad19631873f2b55d191bb168e8562dd00220405f3490dad73f303e2e43236ae3c0c4f85e4557983b789813a5e81741fbf6b6[ALL] 03617671e759f7ed8a11b81d2a2b37e3ac5986641e9240f3a4cde277c654a9fa25"}, "vout": 1, "txid": "8ea4e4f44586fd54b8ead7fc2298b5a4325b4a2df9f5c4686d5b21795ef315a0"}], "txid": "ecfe5ccb4674f1acca403b20f580f3ca1bd77680c2be58e8659cb0781420ecf1", "blocktime": 1537870268, "version": 1, "confirmations": 11516, "time": 1537870268, "locktime": 0, "vsize": 224, "size": 224}