{"hash": "ecff2a7a0a36fbf938fa96ad64ba963eb397578d711aa660a6b702591ed859f1", "blockhash": "00000000000000000004ffacab907a6b429b9a5745fa0b75af4234bf69dd7176", "vout": [{"scriptPubKey": {"reqSigs": 1, "hex": "76a914597b48e01b779396bff1df7b1093ebdec320924588ac", "addresses": ["19A8q3S2hVadi1b8Sw5DNxA8dLvTd1qZ1F"], "asm": "OP_DUP OP_HASH160 597b48e01b779396bff1df7b1093ebdec3209245 OP_EQUALVERIFY OP_CHECKSIG", "type": "pubkeyhash"}, "value": 0.00134, "n": 0}, {"scriptPubKey": {"reqSigs": 1, "hex": "76a914e980406100f1b02d9023620d15858ca5a5fb144c88ac", "addresses": ["1NHe5mQK8w5uu6QxqnWsd6M8fPLPiYGWzA"], "asm": "OP_DUP OP_HASH160 e980406100f1b02d9023620d15858ca5a5fb144c OP_EQUALVERIFY OP_CHECKSIG", "type": "pubkeyhash"}, "value": 0.0839399, "n": 1}], "hex": "010000000117e7e6b6c2aa9ebcb494aaf541ca0537c7799f9aca99bbaa9e82062c65df3b45010000006a47304402200dcdf9db142f36a135c595276b5078fdf32a4ea6c6eddae88f2deb4e68ab12270220688f6644052de7973880e37e9e5a099916b0259de3364f721eb27de9686e695e012103ad603f5d3610dce0c476cc5ff31b70d340cb842f4285d362fdb63d990e4c8e16ffffffff02700b0200000000001976a914597b48e01b779396bff1df7b1093ebdec320924588ac06158000000000001976a914e980406100f1b02d9023620d15858ca5a5fb144c88ac00000000", "vin": [{"sequence": 4294967295, "scriptSig": {"hex": "47304402200dcdf9db142f36a135c595276b5078fdf32a4ea6c6eddae88f2deb4e68ab12270220688f6644052de7973880e37e9e5a099916b0259de3364f721eb27de9686e695e012103ad603f5d3610dce0c476cc5ff31b70d340cb842f4285d362fdb63d990e4c8e16", "asm": "304402200dcdf9db142f36a135c595276b5078fdf32a4ea6c6eddae88f2deb4e68ab12270220688f6644052de7973880e37e9e5a099916b0259de3364f721eb27de9686e695e[ALL] 03ad603f5d3610dce0c476cc5ff31b70d340cb842f4285d362fdb63d990e4c8e16"}, "vout": 1, "txid": "453bdf652c06829eaabb99ca9a9f79c73705ca41f5aa94b4bc9eaac2b6e6e717"}], "txid": "ecff2a7a0a36fbf938fa96ad64ba963eb397578d711aa660a6b702591ed859f1", "blocktime": 1537875543, "version": 1, "confirmations": 11464, "time": 1537875543, "locktime": 0, "vsize": 225, "size": 225}