{"hash": "09df1470a4e3c7f788c7432243a929744dd0e3c1016790128d277e1ce57c56d5", "blockhash": "0000000000000000000e13cef7c366c0283d82e591d1acd082e914b08063cdf1", "vout": [{"scriptPubKey": {"reqSigs": 1, "hex": "a91489b98a994061eb3b4e140b36e7add3915371818387", "addresses": ["3EFEmU3TQ6znVDAKHJ2ZiKcpBVXu4kRZvW"], "asm": "OP_HASH160 89b98a994061eb3b4e140b36e7add39153718183 OP_EQUAL", "type": "scripthash"}, "value": 0.00017455, "n": 0}, {"scriptPubKey": {"reqSigs": 1, "hex": "a9141988a27e3c2df4ddee7fad5a2303d086179b2a3087", "addresses": ["3422VtS7UtCvXYxoXMVp6eZupR252z85oC"], "asm": "OP_HASH160 1988a27e3c2df4ddee7fad5a2303d086179b2a30 OP_EQUAL", "type": "scripthash"}, "value": 3.01165664, "n": 1}], "hex": "010000000001013938d026c43538e49f161016faed855096127535180467571ac5d6ea15451703000000002322002065d416c48a8072e0ac51c2d111eb194f009caef0332446c1bf2097316cf07fa9ffffffff022f4400000000000017a91489b98a994061eb3b4e140b36e7add3915371818387606cf3110000000017a9141988a27e3c2df4ddee7fad5a2303d086179b2a30870400483045022100f9cc4ddc115c2b1d8647f9e5e2c4be294988d46f270c15588aa05ebbac4dd40b02202a49647032f5e170032a70ee0e5dfb16ee76ed7990ad648aad785058ef666cb0014830450221008fb916c71baa3af2c237e170bdb7b181035bb6ff947820f4c1b95a694dbc5d10022078a13c61ef85983659fa015464b1a8301e571760a338d77f34070ffd2f10becb0169522102f44abcf9e23c9a460da309ccca56c619c04eed3bde2c2cff5e7d78fbcd980b9c2103c9443cf3047bb6c2c82f1b0c44c36109cdc3d0d601d16d1189a1602bf8d1a0a02103bfe867059274412412e088af5572b92168c2ef495cfe6c9b7a753a009eb37c4853ae00000000", "vin": [{"txinwitness": ["", "3045022100f9cc4ddc115c2b1d8647f9e5e2c4be294988d46f270c15588aa05ebbac4dd40b02202a49647032f5e170032a70ee0e5dfb16ee76ed7990ad648aad785058ef666cb001", "30450221008fb916c71baa3af2c237e170bdb7b181035bb6ff947820f4c1b95a694dbc5d10022078a13c61ef85983659fa015464b1a8301e571760a338d77f34070ffd2f10becb01", "522102f44abcf9e23c9a460da309ccca56c619c04eed3bde2c2cff5e7d78fbcd980b9c2103c9443cf3047bb6c2c82f1b0c44c36109cdc3d0d601d16d1189a1602bf8d1a0a02103bfe867059274412412e088af5572b92168c2ef495cfe6c9b7a753a009eb37c4853ae"], "sequence": 4294967295, "scriptSig": {"hex": "22002065d416c48a8072e0ac51c2d111eb194f009caef0332446c1bf2097316cf07fa9", "asm": "002065d416c48a8072e0ac51c2d111eb194f009caef0332446c1bf2097316cf07fa9"}, "vout": 0, "txid": "03174515ead6c51a57670418357512965085edfa1610169fe43835c426d03839"}], "txid": "ed0150dc1e0afbae58ad6021ee17932cc6ead05dc5b0a9d0608f7c9743ef2991", "blocktime": 1537871767, "version": 1, "confirmations": 11491, "time": 1537871767, "locktime": 0, "vsize": 214, "size": 406}