{"hash": "ed07ca731b763fcb199d0ecdd5f640cc1e521471ce5cdc70fbd3f093a50db418", "blockhash": "0000000000000000001f0ddff1eddb255c1121bcd4da4f1bc9a0da00cae72433", "vout": [{"scriptPubKey": {"reqSigs": 1, "hex": "a9143359447f573b6e9db4db8ec69be2684abae4bd0287", "addresses": ["36NXKkFNwK2zAHkhPonU1oaLwVLJpdCv1Z"], "asm": "OP_HASH160 3359447f573b6e9db4db8ec69be2684abae4bd02 OP_EQUAL", "type": "scripthash"}, "value": 0.00044668, "n": 0}, {"scriptPubKey": {"reqSigs": 1, "hex": "76a914852ea35f071813ecf9751abe65049de61cbf8c5788ac", "addresses": ["1D9CjzS6u5ArSoEGqkqUEz4j55iA3rsFCL"], "asm": "OP_DUP OP_HASH160 852ea35f071813ecf9751abe65049de61cbf8c57 OP_EQUALVERIFY OP_CHECKSIG", "type": "pubkeyhash"}, "value": 0.11471586, "n": 1}], "hex": "02000000017eed2a192f5565059a74e54d448033788add6134f4d93b65270afaad6ae0d075010000006a47304402206a0878f623f654f4279ec64b4fd8376d5c8723bbfcf8a69de961830e0764d9c00220481de2512efe23640961eb4fda5691332f98af906834f98655f866a54b889046012103ad9345c23921567f0abf3339bb67fe7dde30c759d2837f65e6d4230853bddca5ffffffff027cae00000000000017a9143359447f573b6e9db4db8ec69be2684abae4bd0287e20aaf00000000001976a914852ea35f071813ecf9751abe65049de61cbf8c5788ac00000000", "vin": [{"sequence": 4294967295, "scriptSig": {"hex": "47304402206a0878f623f654f4279ec64b4fd8376d5c8723bbfcf8a69de961830e0764d9c00220481de2512efe23640961eb4fda5691332f98af906834f98655f866a54b889046012103ad9345c23921567f0abf3339bb67fe7dde30c759d2837f65e6d4230853bddca5", "asm": "304402206a0878f623f654f4279ec64b4fd8376d5c8723bbfcf8a69de961830e0764d9c00220481de2512efe23640961eb4fda5691332f98af906834f98655f866a54b889046[ALL] 03ad9345c23921567f0abf3339bb67fe7dde30c759d2837f65e6d4230853bddca5"}, "vout": 1, "txid": "75d0e06aadfa0a27653bd9f43461dd8a783380444de5749a0565552f192aed7e"}], "txid": "ed07ca731b763fcb199d0ecdd5f640cc1e521471ce5cdc70fbd3f093a50db418", "blocktime": 1537872018, "version": 2, "confirmations": 11489, "time": 1537872018, "locktime": 0, "vsize": 223, "size": 223}