{"hash": "ed099200909215dde1a739a400ea9af1bde0bdd47038c86158d7d8ea1eef3090", "blockhash": "0000000000000000000e13cef7c366c0283d82e591d1acd082e914b08063cdf1", "vout": [{"scriptPubKey": {"reqSigs": 1, "hex": "76a9140d541efb54704155ec4c25cc5d96f9a5d10691e588ac", "addresses": ["12DUZKqypSaB8ZTuk7L3m6P6FUGEk7Zre6"], "asm": "OP_DUP OP_HASH160 0d541efb54704155ec4c25cc5d96f9a5d10691e5 OP_EQUALVERIFY OP_CHECKSIG", "type": "pubkeyhash"}, "value": 0.00746369, "n": 0}, {"scriptPubKey": {"reqSigs": 1, "hex": "a914753f181388ca26507f15ca783e3eb648e0ab50f087", "addresses": ["3CNxZqdQu2UrExzydKjr8D5govbcFu9wF6"], "asm": "OP_HASH160 753f181388ca26507f15ca783e3eb648e0ab50f0 OP_EQUAL", "type": "scripthash"}, "value": 0.02345333, "n": 1}], "hex": "0100000001b8215c468bdc6f66054f15e6ef6504372f05f1697feb646d618d3e9d4a66ceaa000000006b483045022100e5b1b333aa9bc8ec6b615266a188a9cfe77844789eb30e2f672818fb39e6462d02206c53ad3b3d6c1f1f33a3ec14fa258824fc39a1be616db0a741cec8539428366f0121025f2082d3d53c07e5a603db526338a389e95185bd93e4ebdfe4b2871db72a3626ffffffff0281630b00000000001976a9140d541efb54704155ec4c25cc5d96f9a5d10691e588ac75c923000000000017a914753f181388ca26507f15ca783e3eb648e0ab50f08700000000", "vin": [{"sequence": 4294967295, "scriptSig": {"hex": "483045022100e5b1b333aa9bc8ec6b615266a188a9cfe77844789eb30e2f672818fb39e6462d02206c53ad3b3d6c1f1f33a3ec14fa258824fc39a1be616db0a741cec8539428366f0121025f2082d3d53c07e5a603db526338a389e95185bd93e4ebdfe4b2871db72a3626", "asm": "3045022100e5b1b333aa9bc8ec6b615266a188a9cfe77844789eb30e2f672818fb39e6462d02206c53ad3b3d6c1f1f33a3ec14fa258824fc39a1be616db0a741cec8539428366f[ALL] 025f2082d3d53c07e5a603db526338a389e95185bd93e4ebdfe4b2871db72a3626"}, "vout": 0, "txid": "aace664a9d3e8d616d64eb7f69f1052f370465efe6154f05666fdc8b465c21b8"}], "txid": "ed099200909215dde1a739a400ea9af1bde0bdd47038c86158d7d8ea1eef3090", "blocktime": 1537871767, "version": 1, "confirmations": 11492, "time": 1537871767, "locktime": 0, "vsize": 224, "size": 224}