{"hash": "ed0942a77f48d1c0373a769c93e77d1738f31c0d2f5a4215ed07e5ed9a487139", "blockhash": "0000000000000000000e13cef7c366c0283d82e591d1acd082e914b08063cdf1", "vout": [{"scriptPubKey": {"reqSigs": 1, "hex": "76a914706cf6992a6c92e5a98b39d113c4abad9ef1748b88ac", "addresses": ["1BFTDPPgtqZYnXxeytsoesBtfTDsS27n65"], "asm": "OP_DUP OP_HASH160 706cf6992a6c92e5a98b39d113c4abad9ef1748b OP_EQUALVERIFY OP_CHECKSIG", "type": "pubkeyhash"}, "value": 0.00157, "n": 0}, {"scriptPubKey": {"reqSigs": 1, "hex": "76a914e0272aa56767f2f93c21d5e5a0b3a992085e9c1988ac", "addresses": ["1MSDHK73pe9dMXi6yfymdfYqmGjuk1rWpU"], "asm": "OP_DUP OP_HASH160 e0272aa56767f2f93c21d5e5a0b3a992085e9c19 OP_EQUALVERIFY OP_CHECKSIG", "type": "pubkeyhash"}, "value": 0.04240735, "n": 1}], "hex": "0100000001d8873045d014f93d3687699c8bdae2b1bc81ef98f2e56f6b6a537d4b4a588f42010000006b4830450221009ffcbca0c79d36e4d7778dbbe0e9c2b99a6b3c46dd572601da0ab620bff767d502207f80b98672c8064b9f77ec36651e06c16fc9ece276ae78edacc1e1aea5c35142012103a19ef28b26b6de884437e89fea915726dd9e68ec4bb20fce2f9f71345fb7ee08ffffffff0248650200000000001976a914706cf6992a6c92e5a98b39d113c4abad9ef1748b88ac5fb54000000000001976a914e0272aa56767f2f93c21d5e5a0b3a992085e9c1988ac00000000", "vin": [{"sequence": 4294967295, "scriptSig": {"hex": "4830450221009ffcbca0c79d36e4d7778dbbe0e9c2b99a6b3c46dd572601da0ab620bff767d502207f80b98672c8064b9f77ec36651e06c16fc9ece276ae78edacc1e1aea5c35142012103a19ef28b26b6de884437e89fea915726dd9e68ec4bb20fce2f9f71345fb7ee08", "asm": "30450221009ffcbca0c79d36e4d7778dbbe0e9c2b99a6b3c46dd572601da0ab620bff767d502207f80b98672c8064b9f77ec36651e06c16fc9ece276ae78edacc1e1aea5c35142[ALL] 03a19ef28b26b6de884437e89fea915726dd9e68ec4bb20fce2f9f71345fb7ee08"}, "vout": 1, "txid": "428f584a4b7d536a6b6fe5f298ef81bcb1e2da8b9c6987363df914d0453087d8"}], "txid": "ed0942a77f48d1c0373a769c93e77d1738f31c0d2f5a4215ed07e5ed9a487139", "blocktime": 1537871767, "version": 1, "confirmations": 11491, "time": 1537871767, "locktime": 0, "vsize": 226, "size": 226}