{"hash": "ed09678e72cebf6b05c0453e61183e280ea277970b26a02a244b5fc989b6557e", "blockhash": "0000000000000000001f76057863aec43deb6fa401d9628bb513d65a8098bfab", "vout": [{"scriptPubKey": {"reqSigs": 1, "hex": "a914244460b5fe000f7efacc7425bbb4d38fbb05b54d87", "addresses": ["34znARN775WAUBNJkZWFp4PtTN74y1cTJt"], "asm": "OP_HASH160 244460b5fe000f7efacc7425bbb4d38fbb05b54d OP_EQUAL", "type": "scripthash"}, "value": 0.02216737, "n": 0}, {"scriptPubKey": {"reqSigs": 1, "hex": "76a914c9cef6f212a99fd9ab6e0b1888fb470c9a61d03688ac", "addresses": ["1KQ4kiLAd39RhKPGBUJbzEwW6wufcNkkLd"], "asm": "OP_DUP OP_HASH160 c9cef6f212a99fd9ab6e0b1888fb470c9a61d036 OP_EQUALVERIFY OP_CHECKSIG", "type": "pubkeyhash"}, "value": 0.15614663, "n": 1}], "hex": "0200000004a28754eaae18345bb31644547a6b820266ee06518a34d10b9e17496d4e39bb6c020000006b483045022100e82b4cf9b6895413ea2bbac5b6786db545bc5004cee387f6b87c8db3e1ac0b110220432c2250c6bdc2cbba9051786630c1a91a8408bfd217903cf072a3bd7fc9777b01210247f7e6a360abe20467a8b8d175e3fcc67af4bf00d5ddeb4fc13cf5a16956ef0fffffffff9437d928aa9cefa1711a50eb6f940ea1e0d05416f4c88258c6eb5d7d4407bc5c000000006b483045022100edc45c05f82eb6320eb6da3f9268cf9dc7a8f7f4f518fc85d8479c41d4a5cbce02200ee8dc51444b2c7318602ffb992af0c6750a5bd56edcd33a372c1ed8773b8ddf0121025adb16006c1ed6ed64aa8d68934638aa43d5edc17508725e5a6ddf19e06762faffffffff79ba6b406df0b0a656c345d8daaaf4e996a915327860190a015073c4f8305cce010000006b483045022100ee31ea0eb3be7dcc5d991d30d82a842d22e080098addf8ed94b61f37888092150220647379424af5bcebc44ba1cd41bb4be60ce7f19c15c597dccdd585796956ebc60121029f7342d5fbb0b7f422f48c0af41e46e8e8030421ff8048314141f510cf2739feffffffff8c64e44bb15f7f98dd62bfe29e273cc94b5e9257305138b3c6a7811f72d6abc4020000006b483045022100b2d8265b3a96f35cb9c616fab3e9cd011e6624fda847d6545508984a9da4bd6302205091d62b154d85b34096593c4243ea44faa20e7f6f44ec3c6df77a1903c80c00012102bb678a1b0b31be7b4ec7c50bdbdfce75400031b3fc80b2b7f7d7bc1a16aa2504ffffffff0221d321000000000017a914244460b5fe000f7efacc7425bbb4d38fbb05b54d87c742ee00000000001976a914c9cef6f212a99fd9ab6e0b1888fb470c9a61d03688ac00000000", "vin": [{"sequence": 4294967295, "scriptSig": {"hex": "483045022100e82b4cf9b6895413ea2bbac5b6786db545bc5004cee387f6b87c8db3e1ac0b110220432c2250c6bdc2cbba9051786630c1a91a8408bfd217903cf072a3bd7fc9777b01210247f7e6a360abe20467a8b8d175e3fcc67af4bf00d5ddeb4fc13cf5a16956ef0f", "asm": "3045022100e82b4cf9b6895413ea2bbac5b6786db545bc5004cee387f6b87c8db3e1ac0b110220432c2250c6bdc2cbba9051786630c1a91a8408bfd217903cf072a3bd7fc9777b[ALL] 0247f7e6a360abe20467a8b8d175e3fcc67af4bf00d5ddeb4fc13cf5a16956ef0f"}, "vout": 2, "txid": "6cbb394e6d49179e0bd1348a5106ee6602826b7a544416b35b3418aeea5487a2"}, {"sequence": 4294967295, "scriptSig": {"hex": "483045022100edc45c05f82eb6320eb6da3f9268cf9dc7a8f7f4f518fc85d8479c41d4a5cbce02200ee8dc51444b2c7318602ffb992af0c6750a5bd56edcd33a372c1ed8773b8ddf0121025adb16006c1ed6ed64aa8d68934638aa43d5edc17508725e5a6ddf19e06762fa", "asm": "3045022100edc45c05f82eb6320eb6da3f9268cf9dc7a8f7f4f518fc85d8479c41d4a5cbce02200ee8dc51444b2c7318602ffb992af0c6750a5bd56edcd33a372c1ed8773b8ddf[ALL] 025adb16006c1ed6ed64aa8d68934638aa43d5edc17508725e5a6ddf19e06762fa"}, "vout": 0, "txid": "5cbc07447d5debc65882c8f41654d0e0a10e946feb501a71a1ef9caa28d93794"}, {"sequence": 4294967295, "scriptSig": {"hex": "483045022100ee31ea0eb3be7dcc5d991d30d82a842d22e080098addf8ed94b61f37888092150220647379424af5bcebc44ba1cd41bb4be60ce7f19c15c597dccdd585796956ebc60121029f7342d5fbb0b7f422f48c0af41e46e8e8030421ff8048314141f510cf2739fe", "asm": "3045022100ee31ea0eb3be7dcc5d991d30d82a842d22e080098addf8ed94b61f37888092150220647379424af5bcebc44ba1cd41bb4be60ce7f19c15c597dccdd585796956ebc6[ALL] 029f7342d5fbb0b7f422f48c0af41e46e8e8030421ff8048314141f510cf2739fe"}, "vout": 1, "txid": "ce5c30f8c47350010a1960783215a996e9f4aadad845c356a6b0f06d406bba79"}, {"sequence": 4294967295, "scriptSig": {"hex": "483045022100b2d8265b3a96f35cb9c616fab3e9cd011e6624fda847d6545508984a9da4bd6302205091d62b154d85b34096593c4243ea44faa20e7f6f44ec3c6df77a1903c80c00012102bb678a1b0b31be7b4ec7c50bdbdfce75400031b3fc80b2b7f7d7bc1a16aa2504", "asm": "3045022100b2d8265b3a96f35cb9c616fab3e9cd011e6624fda847d6545508984a9da4bd6302205091d62b154d85b34096593c4243ea44faa20e7f6f44ec3c6df77a1903c80c00[ALL] 02bb678a1b0b31be7b4ec7c50bdbdfce75400031b3fc80b2b7f7d7bc1a16aa2504"}, "vout": 2, "txid": "c4abd6721f81a7c6b338513057925e4bc93c279ee2bf62dd987f5fb14be4648c"}], "txid": "ed09678e72cebf6b05c0453e61183e280ea277970b26a02a244b5fc989b6557e", "blocktime": 1537873891, "version": 2, "confirmations": 11477, "time": 1537873891, "locktime": 0, "vsize": 668, "size": 668}