{"hash": "ed0a41e023e95a93a9987f95ae19c9adf75eaa85f8767f78a1446f23c1312d2e", "blockhash": "00000000000000000017f5eb5941039fbcee6240d03bc1f2f8e35350df66a1d8", "vout": [{"scriptPubKey": {"reqSigs": 1, "hex": "76a9144a0f1e2f2b0d7daeec5265f10bbbbe08ed725e8988ac", "addresses": ["17kb7c9ndg7ioSuzMWEHWECdEVUegNkcGc"], "asm": "OP_DUP OP_HASH160 4a0f1e2f2b0d7daeec5265f10bbbbe08ed725e89 OP_EQUALVERIFY OP_CHECKSIG", "type": "pubkeyhash"}, "value": 0.02233208, "n": 0}], "hex": "0100000001ec9e440d9266d0035eb6b39b9919a22ae3675b11d426af7b2e8ede4a3ad9f3d8020000006b483045022100fadcc766c04361ff3a357feb1a674a16f0a3002ada352236e6bb912edeeeed3002204d55b92b7cbc3db70f014198266303fb6e8fe4076446f55134b8855d05cde035012102db4c0712b7d1e8df60636f30c694fb8518ca953a32fe9d25bab73ca47258e641ffffffff0178132200000000001976a9144a0f1e2f2b0d7daeec5265f10bbbbe08ed725e8988ac00000000", "vin": [{"sequence": 4294967295, "scriptSig": {"hex": "483045022100fadcc766c04361ff3a357feb1a674a16f0a3002ada352236e6bb912edeeeed3002204d55b92b7cbc3db70f014198266303fb6e8fe4076446f55134b8855d05cde035012102db4c0712b7d1e8df60636f30c694fb8518ca953a32fe9d25bab73ca47258e641", "asm": "3045022100fadcc766c04361ff3a357feb1a674a16f0a3002ada352236e6bb912edeeeed3002204d55b92b7cbc3db70f014198266303fb6e8fe4076446f55134b8855d05cde035[ALL] 02db4c0712b7d1e8df60636f30c694fb8518ca953a32fe9d25bab73ca47258e641"}, "vout": 2, "txid": "d8f3d93a4ade8e2e7baf26d4115b67e32aa219999bb3b65e03d066920d449eec"}], "txid": "ed0a41e023e95a93a9987f95ae19c9adf75eaa85f8767f78a1446f23c1312d2e", "blocktime": 1537874412, "version": 1, "confirmations": 11467, "time": 1537874412, "locktime": 0, "vsize": 192, "size": 192}