{"hash": "ed0b9ea28582bfe7a3a4f00a88cf4f6da0ac371e3d5ecc7797c8ff3dbf20bec9", "blockhash": "0000000000000000001f76057863aec43deb6fa401d9628bb513d65a8098bfab", "vout": [{"scriptPubKey": {"reqSigs": 1, "hex": "76a9144a0f1e2f2b0d7daeec5265f10bbbbe08ed725e8988ac", "addresses": ["17kb7c9ndg7ioSuzMWEHWECdEVUegNkcGc"], "asm": "OP_DUP OP_HASH160 4a0f1e2f2b0d7daeec5265f10bbbbe08ed725e89 OP_EQUALVERIFY OP_CHECKSIG", "type": "pubkeyhash"}, "value": 0.00058208, "n": 0}], "hex": "01000000015a985c3faef29dd4826e85025d21d32d97ca8ee592e490c1fe3a4b542d74547d000000006a47304402204008251ed56f06b77a3663bf811e9e67650a4549736d3394aca91260f151c6fa022036104fd323aa65526df9a437e7af5e59a2e1519a5e01838e4fed86573acc36e10121023d4f0cb57f002ad2cdf9b31d174c4ee9570617fce554451285cfe3a35b88791cffffffff0160e30000000000001976a9144a0f1e2f2b0d7daeec5265f10bbbbe08ed725e8988ac00000000", "vin": [{"sequence": 4294967295, "scriptSig": {"hex": "47304402204008251ed56f06b77a3663bf811e9e67650a4549736d3394aca91260f151c6fa022036104fd323aa65526df9a437e7af5e59a2e1519a5e01838e4fed86573acc36e10121023d4f0cb57f002ad2cdf9b31d174c4ee9570617fce554451285cfe3a35b88791c", "asm": "304402204008251ed56f06b77a3663bf811e9e67650a4549736d3394aca91260f151c6fa022036104fd323aa65526df9a437e7af5e59a2e1519a5e01838e4fed86573acc36e1[ALL] 023d4f0cb57f002ad2cdf9b31d174c4ee9570617fce554451285cfe3a35b88791c"}, "vout": 0, "txid": "7d54742d544b3afec190e492e58eca972dd3215d02856e82d49df2ae3f5c985a"}], "txid": "ed0b9ea28582bfe7a3a4f00a88cf4f6da0ac371e3d5ecc7797c8ff3dbf20bec9", "blocktime": 1537873891, "version": 1, "confirmations": 11475, "time": 1537873891, "locktime": 0, "vsize": 191, "size": 191}