{"hash": "342a7734f548f520dd3e861419bbc91d66500d4f04b086ffd6443b73c7859d9e", "blockhash": "0000000000000000000e13cef7c366c0283d82e591d1acd082e914b08063cdf1", "vout": [{"scriptPubKey": {"reqSigs": 1, "hex": "a914309db22ffedc1914a914d60e4c27e96b297afef887", "addresses": ["3685GfWyEbJtqefeLbPo4ghsUfLc34ngUw"], "asm": "OP_HASH160 309db22ffedc1914a914d60e4c27e96b297afef8 OP_EQUAL", "type": "scripthash"}, "value": 1.41484209, "n": 0}, {"scriptPubKey": {"reqSigs": 1, "hex": "76a914d4dffd0add35ac570367a0bf525d26cb623ebc8488ac", "addresses": ["1LQaafB8vTkrMfvrCjrZPGYuEhT7qLSQqm"], "asm": "OP_DUP OP_HASH160 d4dffd0add35ac570367a0bf525d26cb623ebc84 OP_EQUALVERIFY OP_CHECKSIG", "type": "pubkeyhash"}, "value": 0.058, "n": 1}], "hex": "02000000000101c281feb7f8f790b1e2d698752f4c6ca446a7f98ace59b35412a5279b4afde440000000001716001447ec85cea130f78c8fe1fd2b997c2e6bb7e5bfdeffffffff02b1e06e080000000017a914309db22ffedc1914a914d60e4c27e96b297afef88740805800000000001976a914d4dffd0add35ac570367a0bf525d26cb623ebc8488ac02483045022100d1a71c5c434d97ade566347ac619a6c97524868b81b5d290f28d8133949dfc12022035f33543a568657540973fdfc8f1add3fdecbbd719f91cc7d30329cb034807b80121037c672637c7fddb197b737777717bfcdae19182bd79f2753671bc7250ce16aba900000000", "vin": [{"txinwitness": ["3045022100d1a71c5c434d97ade566347ac619a6c97524868b81b5d290f28d8133949dfc12022035f33543a568657540973fdfc8f1add3fdecbbd719f91cc7d30329cb034807b801", "037c672637c7fddb197b737777717bfcdae19182bd79f2753671bc7250ce16aba9"], "sequence": 4294967295, "scriptSig": {"hex": "16001447ec85cea130f78c8fe1fd2b997c2e6bb7e5bfde", "asm": "001447ec85cea130f78c8fe1fd2b997c2e6bb7e5bfde"}, "vout": 0, "txid": "40e4fd4a9b27a51254b359ce8af9a746a46c4c2f7598d6e2b190f7f8b7fe81c2"}], "txid": "ed0de6400ac2b05860e852dcae8f0d8203e59f8e5b2d46e27c83a55055b79d82", "blocktime": 1537871767, "version": 2, "confirmations": 11493, "time": 1537871767, "locktime": 0, "vsize": 168, "size": 250}