{"hash": "1f969203137fa9983bafb8b92aff2397dbbae2e7eda7d2ce3f18dcfb9db00542", "blockhash": "0000000000000000001cda96e906b7601b7a6fb1a3b62bca570a9e5d8f4b3de1", "vout": [{"scriptPubKey": {"reqSigs": 1, "hex": "0014b9507852d9a3dcf112d813119778418995738b01", "addresses": ["bc1qh9g8s5ke50w0zykczvgew7zp3x2h8zcpx8ewph"], "asm": "0 b9507852d9a3dcf112d813119778418995738b01", "type": "witness_v0_keyhash"}, "value": 1.068e-05, "n": 0}, {"scriptPubKey": {"reqSigs": 1, "hex": "a9147fc9fd70bbf0682a4c2b8c6d75a904a8aceda91387", "addresses": ["3DLhiRAvKFJABJNyVTzk9S3M3usLCr7rZL"], "asm": "OP_HASH160 7fc9fd70bbf0682a4c2b8c6d75a904a8aceda913 OP_EQUAL", "type": "scripthash"}, "value": 0.00020505, "n": 1}], "hex": "010000000001012750163223eb145c8cb21a62de0f87d44c5f9c3def1f36a0f30c6178c2bca1fa510100001716001434085f79e41f002f45e947f14c5633e3a9edf894ffffffff022c04000000000000160014b9507852d9a3dcf112d813119778418995738b01195000000000000017a9147fc9fd70bbf0682a4c2b8c6d75a904a8aceda9138702473044022068b7fac1104ccad464fb71d2e728fa518d18f5ef3053fdcc4451bcfdab5c4d2402204f3e38ccbdc95290fa0353b2616bec19c39e5505c51ebf3f37c2cd770632acfb012102a31a32a9f0e4ff4c496a5005fcfee8dd16c793c6653e684601b67883c6c81f1f00000000", "vin": [{"txinwitness": ["3044022068b7fac1104ccad464fb71d2e728fa518d18f5ef3053fdcc4451bcfdab5c4d2402204f3e38ccbdc95290fa0353b2616bec19c39e5505c51ebf3f37c2cd770632acfb01", "02a31a32a9f0e4ff4c496a5005fcfee8dd16c793c6653e684601b67883c6c81f1f"], "sequence": 4294967295, "scriptSig": {"hex": "16001434085f79e41f002f45e947f14c5633e3a9edf894", "asm": "001434085f79e41f002f45e947f14c5633e3a9edf894"}, "vout": 337, "txid": "faa1bcc278610cf3a0361fef3d9c5f4cd4870fde621ab28c5c14eb2332165027"}], "txid": "ed0e26c95690d23d22a87e334869351ba19012c7ca42fa7b8844ac395622a020", "blocktime": 1537873282, "version": 1, "confirmations": 11484, "time": 1537873282, "locktime": 0, "vsize": 165, "size": 246}