{"hash": "ed10719cfba6f19aaaec8e588a915883d393456707fcd7b7c46c5e35ba5a147d", "blockhash": "00000000000000000004ffacab907a6b429b9a5745fa0b75af4234bf69dd7176", "vout": [{"scriptPubKey": {"reqSigs": 1, "hex": "76a914a25dec4d0011064ef106a983c39c7a540699f22088ac", "addresses": ["1FoWyxwPXuj4C6abqwhjDWdz6D4PZgYRjA"], "asm": "OP_DUP OP_HASH160 a25dec4d0011064ef106a983c39c7a540699f220 OP_EQUALVERIFY OP_CHECKSIG", "type": "pubkeyhash"}, "value": 0.01995188, "n": 0}, {"scriptPubKey": {"type": "nulldata", "hex": "6a146f6d6e69000000000000001f0000000307029a68", "asm": "OP_RETURN 6f6d6e69000000000000001f0000000307029a68"}, "value": 0.0, "n": 1}, {"scriptPubKey": {"reqSigs": 1, "hex": "76a914952602e71560e44c18df12d82f504ad3983fe73e88ac", "addresses": ["1EbdDf6bfsmSywyM1faJjegHgyqfohcw8V"], "asm": "OP_DUP OP_HASH160 952602e71560e44c18df12d82f504ad3983fe73e OP_EQUALVERIFY OP_CHECKSIG", "type": "pubkeyhash"}, "value": 5.46e-06, "n": 2}], "hex": "0100000001a44813c76173a4fe9689194c29809e35be05f1741d9b5e1e9e8bd44070ac1fea900000006a47304402204d130cb7f15b5cc27ff76d7150668aacc66a07f9d8111efcc68a340387ffd1f402204d33d9cb11d953375ea0e6f1dc1973798633b88902d2564227e1165ef3fe5556012103da5bac7b36d5aa38f531c6b9601e21bb598a4b6716ebed38b009a55dabde9440feffffff03b4711e00000000001976a914a25dec4d0011064ef106a983c39c7a540699f22088ac0000000000000000166a146f6d6e69000000000000001f0000000307029a6822020000000000001976a914952602e71560e44c18df12d82f504ad3983fe73e88ac16490800", "vin": [{"sequence": 4294967294, "scriptSig": {"hex": "47304402204d130cb7f15b5cc27ff76d7150668aacc66a07f9d8111efcc68a340387ffd1f402204d33d9cb11d953375ea0e6f1dc1973798633b88902d2564227e1165ef3fe5556012103da5bac7b36d5aa38f531c6b9601e21bb598a4b6716ebed38b009a55dabde9440", "asm": "304402204d130cb7f15b5cc27ff76d7150668aacc66a07f9d8111efcc68a340387ffd1f402204d33d9cb11d953375ea0e6f1dc1973798633b88902d2564227e1165ef3fe5556[ALL] 03da5bac7b36d5aa38f531c6b9601e21bb598a4b6716ebed38b009a55dabde9440"}, "vout": 144, "txid": "ea1fac7040d48b9e1e5e9b1d74f105be359e80294c198996fea47361c71348a4"}], "txid": "ed10719cfba6f19aaaec8e588a915883d393456707fcd7b7c46c5e35ba5a147d", "blocktime": 1537875543, "version": 1, "confirmations": 11464, "time": 1537875543, "locktime": 542998, "vsize": 256, "size": 256}