{"hash": "805f37539fcf526920c8cdbb0647a013763de7c077590eeef40c197d04ebaad7", "blockhash": "0000000000000000001e0dab787dd257d1dbfcb92a98c2207d5e1078be1f4165", "vout": [{"scriptPubKey": {"reqSigs": 1, "hex": "a91477ba435339ac6786a999583bcd9c6cb3b79541b687", "addresses": ["3Cc5U9hvCTwWjcRwWeLy7XDT7eGTQkaHCm"], "asm": "OP_HASH160 77ba435339ac6786a999583bcd9c6cb3b79541b6 OP_EQUAL", "type": "scripthash"}, "value": 0.0046046, "n": 0}, {"scriptPubKey": {"reqSigs": 1, "hex": "a91465687fa98a6d7813675b13d7543731844c41e3ef87", "addresses": ["3AwDMcabeiv75rFcTcMiRYvFzXLSW4FhPV"], "asm": "OP_HASH160 65687fa98a6d7813675b13d7543731844c41e3ef OP_EQUAL", "type": "scripthash"}, "value": 0.01011678, "n": 1}], "hex": "020000000001023bbc082b0fc68aa9d173d6a47333423e8e472f5758d11e9375d4916474ba430e010000001716001479234f551f7e68e8a07881ffb0854413e20354c5feffffffe3103850684fc408a656a167bce97cd4b8b5783ab587ddec598c753ea962865700000000171600146886ac8b3be7d985e29496a814b03a5706986bcafeffffff02ac0607000000000017a91477ba435339ac6786a999583bcd9c6cb3b79541b687de6f0f000000000017a91465687fa98a6d7813675b13d7543731844c41e3ef8702473044022078510ff967069e8bc882dc117653e190bd8d41c78e0d23683cc8dd122483189902206bac5f8c19316c7afd1d355f2403606e184bb979ab092b286a116d0142ecd592012103ce4e5c19bbdbc7f44365eec9e46a96c5245546ac6e65bad0126212275b58d66102483045022100c1db7a274086fb0bd9bdaba59befdc1ff2d23cd01b814a7a125594c5650477f40220124c31c352bcf5b8af25df7c4f064ff174c1ef4a5d2d4f66410ee11a14efda5301210309595354f8e1520ccc28b0397041f48aa4fd9d2416aced055a026f599e3eb44112490800", "vin": [{"txinwitness": ["3044022078510ff967069e8bc882dc117653e190bd8d41c78e0d23683cc8dd122483189902206bac5f8c19316c7afd1d355f2403606e184bb979ab092b286a116d0142ecd59201", "03ce4e5c19bbdbc7f44365eec9e46a96c5245546ac6e65bad0126212275b58d661"], "sequence": 4294967294, "scriptSig": {"hex": "16001479234f551f7e68e8a07881ffb0854413e20354c5", "asm": "001479234f551f7e68e8a07881ffb0854413e20354c5"}, "vout": 1, "txid": "0e43ba746491d475931ed158572f478e3e423373a4d673d1a98ac60f2b08bc3b"}, {"txinwitness": ["3045022100c1db7a274086fb0bd9bdaba59befdc1ff2d23cd01b814a7a125594c5650477f40220124c31c352bcf5b8af25df7c4f064ff174c1ef4a5d2d4f66410ee11a14efda5301", "0309595354f8e1520ccc28b0397041f48aa4fd9d2416aced055a026f599e3eb441"], "sequence": 4294967294, "scriptSig": {"hex": "1600146886ac8b3be7d985e29496a814b03a5706986bca", "asm": "00146886ac8b3be7d985e29496a814b03a5706986bca"}, "vout": 0, "txid": "578662a93e758c59ecdd87b53a78b5b8d47ce9bc67a156a608c44f68503810e3"}], "txid": "ed18b547a420a690706e70317be83e2062888ad712a266fbc1b60f13e346fab4", "blocktime": 1537872475, "version": 2, "confirmations": 11487, "time": 1537872475, "locktime": 542994, "vsize": 257, "size": 419}