{"hash": "9d83439dec95f84ca1da8064bece163ad7fbce70719be1f7480cd6ebc94f53d8", "blockhash": "00000000000000000004ffacab907a6b429b9a5745fa0b75af4234bf69dd7176", "vout": [{"scriptPubKey": {"reqSigs": 1, "hex": "002058c8797f181e000075cb9a18a9662013b795012e86acc04d56a2d229e7b8d7c4", "addresses": ["bc1qtry8jlccrcqqqawtngv2je3qzwme2qfws6kvqn2k5tfzneac6lzqpgummp"], "asm": "0 58c8797f181e000075cb9a18a9662013b795012e86acc04d56a2d229e7b8d7c4", "type": "witness_v0_scripthash"}, "value": 0.00118864, "n": 0}], "hex": "010000000001019a0eefc4a1e989742fab54e890084106afbeaee5c4054f00c92948593d8eab5403000000171600145130dc1ffc915bce23ce5fdb99a25e839a6de0efffffffff0150d001000000000022002058c8797f181e000075cb9a18a9662013b795012e86acc04d56a2d229e7b8d7c402473044022100b7e6c4af8699c59d42434321c20e8d8e3ab37254b5d00b383ab46e4986598f24021f21cdb19623dc7dea64c19d43bea3c8f1a3817320a6bcf362ce13133c209285012102de72ee063dc2722a693ca19585e9f4e5f6c848dcce390d3bbddbda3a4b90e5a200000000", "vin": [{"txinwitness": ["3044022100b7e6c4af8699c59d42434321c20e8d8e3ab37254b5d00b383ab46e4986598f24021f21cdb19623dc7dea64c19d43bea3c8f1a3817320a6bcf362ce13133c20928501", "02de72ee063dc2722a693ca19585e9f4e5f6c848dcce390d3bbddbda3a4b90e5a2"], "sequence": 4294967295, "scriptSig": {"hex": "1600145130dc1ffc915bce23ce5fdb99a25e839a6de0ef", "asm": "00145130dc1ffc915bce23ce5fdb99a25e839a6de0ef"}, "vout": 3, "txid": "54ab8e3d594829c9004f05c4e5aebeaf06410890e854ab2f7489e9a1c4ef0e9a"}], "txid": "ed1aff919ae6ca9f19dba4e525d0e6f5ed1269d9423c84e6277c1297a272cb35", "blocktime": 1537875543, "version": 1, "confirmations": 11464, "time": 1537875543, "locktime": 0, "vsize": 145, "size": 226}