{"hash": "ed1f9971a0d7a5dd22ec5f461d856977681a2d4702cb1560d9ab1e4191e35656", "blockhash": "0000000000000000000e13cef7c366c0283d82e591d1acd082e914b08063cdf1", "vout": [{"scriptPubKey": {"reqSigs": 1, "hex": "a914d459aec1dfc3fd16977355b4c6b2db6d47e3064587", "addresses": ["3M3pcUHchkDiBcj4yoLUrgSgW1sDeAwaeA"], "asm": "OP_HASH160 d459aec1dfc3fd16977355b4c6b2db6d47e30645 OP_EQUAL", "type": "scripthash"}, "value": 0.00581, "n": 0}, {"scriptPubKey": {"reqSigs": 1, "hex": "76a914ed157fd73211b0a1b72e47b4b85a007ec18024e788ac", "addresses": ["1NcauGUJh7v8t2RbDM9iuNmDnZPjx8PQEh"], "asm": "OP_DUP OP_HASH160 ed157fd73211b0a1b72e47b4b85a007ec18024e7 OP_EQUALVERIFY OP_CHECKSIG", "type": "pubkeyhash"}, "value": 0.025687, "n": 1}], "hex": "01000000015f691a763862368ce218c2e9113c6337ed65f1850cc6181ebba4fd66ba7d5c45000000006a4730440220224c065368d4954385156614c116b736560868c70a39c7ca930a2b331cf7bad802200eb8a320510330948d758b6efeee8e35c38bcca9895dc9a053157b94c2bac76f012102ce63be566ae3ec4306e5e6387c20d733fca096fc996837e3beae6f69657f2a48feffffff0288dd08000000000017a914d459aec1dfc3fd16977355b4c6b2db6d47e3064587fc312700000000001976a914ed157fd73211b0a1b72e47b4b85a007ec18024e788ac10490800", "vin": [{"sequence": 4294967294, "scriptSig": {"hex": "4730440220224c065368d4954385156614c116b736560868c70a39c7ca930a2b331cf7bad802200eb8a320510330948d758b6efeee8e35c38bcca9895dc9a053157b94c2bac76f012102ce63be566ae3ec4306e5e6387c20d733fca096fc996837e3beae6f69657f2a48", "asm": "30440220224c065368d4954385156614c116b736560868c70a39c7ca930a2b331cf7bad802200eb8a320510330948d758b6efeee8e35c38bcca9895dc9a053157b94c2bac76f[ALL] 02ce63be566ae3ec4306e5e6387c20d733fca096fc996837e3beae6f69657f2a48"}, "vout": 0, "txid": "455c7dba66fda4bb1e18c60c85f165ed37633c11e9c218e28c366238761a695f"}], "txid": "ed1f9971a0d7a5dd22ec5f461d856977681a2d4702cb1560d9ab1e4191e35656", "blocktime": 1537871767, "version": 1, "confirmations": 11495, "time": 1537871767, "locktime": 542992, "vsize": 223, "size": 223}