{"hash": "ed2046c83eeadda9e87821c07feefe8ebddfad009edee0db6ba67e04d72b8ac0", "blockhash": "00000000000000000004ffacab907a6b429b9a5745fa0b75af4234bf69dd7176", "vout": [{"scriptPubKey": {"reqSigs": 1, "hex": "76a914c610178e10c226d0623687208b84bbb7dc7d8b1788ac", "addresses": ["1K4G55MFA3ikryQyFsW4tty5sLinYs8GBo"], "asm": "OP_DUP OP_HASH160 c610178e10c226d0623687208b84bbb7dc7d8b17 OP_EQUALVERIFY OP_CHECKSIG", "type": "pubkeyhash"}, "value": 0.001, "n": 0}, {"scriptPubKey": {"reqSigs": 1, "hex": "76a914e980406100f1b02d9023620d15858ca5a5fb144c88ac", "addresses": ["1NHe5mQK8w5uu6QxqnWsd6M8fPLPiYGWzA"], "asm": "OP_DUP OP_HASH160 e980406100f1b02d9023620d15858ca5a5fb144c OP_EQUALVERIFY OP_CHECKSIG", "type": "pubkeyhash"}, "value": 0.0828399, "n": 1}], "hex": "0100000001f159d81e5902b7a660a61a718d5797b33e96ba64ad96fa38f9fb360a7a2affec010000006b4830450221009df40d39b7eae322b9562314a38031228fce28a27acb761dc453975977e86d0a022014b5cdeb8dc1b09a33bce49869b103b53c47084834c75bc9f0981385168f05ca012103ad603f5d3610dce0c476cc5ff31b70d340cb842f4285d362fdb63d990e4c8e16ffffffff02a0860100000000001976a914c610178e10c226d0623687208b84bbb7dc7d8b1788ac56677e00000000001976a914e980406100f1b02d9023620d15858ca5a5fb144c88ac00000000", "vin": [{"sequence": 4294967295, "scriptSig": {"hex": "4830450221009df40d39b7eae322b9562314a38031228fce28a27acb761dc453975977e86d0a022014b5cdeb8dc1b09a33bce49869b103b53c47084834c75bc9f0981385168f05ca012103ad603f5d3610dce0c476cc5ff31b70d340cb842f4285d362fdb63d990e4c8e16", "asm": "30450221009df40d39b7eae322b9562314a38031228fce28a27acb761dc453975977e86d0a022014b5cdeb8dc1b09a33bce49869b103b53c47084834c75bc9f0981385168f05ca[ALL] 03ad603f5d3610dce0c476cc5ff31b70d340cb842f4285d362fdb63d990e4c8e16"}, "vout": 1, "txid": "ecff2a7a0a36fbf938fa96ad64ba963eb397578d711aa660a6b702591ed859f1"}], "txid": "ed2046c83eeadda9e87821c07feefe8ebddfad009edee0db6ba67e04d72b8ac0", "blocktime": 1537875543, "version": 1, "confirmations": 11464, "time": 1537875543, "locktime": 0, "vsize": 226, "size": 226}