{"hash": "ed239887753c1d005ea70b9f07283bcc084827da05313e155bba222462e15aa3", "blockhash": "00000000000000000024a2167bbff67b0be802c0b01cdd79e6331c2be6459f87", "vout": [{"scriptPubKey": {"reqSigs": 1, "hex": "a914bd8730b428165e9aefa913d7c0d11a3bfaeeaba587", "addresses": ["3Jy9ayxeQZntzzNAJ3Dhhf3FQXPHVFdnYP"], "asm": "OP_HASH160 bd8730b428165e9aefa913d7c0d11a3bfaeeaba5 OP_EQUAL", "type": "scripthash"}, "value": 0.005, "n": 0}, {"scriptPubKey": {"reqSigs": 1, "hex": "76a91468fa1b629198443d2bcc1477c360a150aeeaba5088ac", "addresses": ["1Aa4tgshd5bFmaPK3oi1N1f6Xz7Yx1MZK9"], "asm": "OP_DUP OP_HASH160 68fa1b629198443d2bcc1477c360a150aeeaba50 OP_EQUALVERIFY OP_CHECKSIG", "type": "pubkeyhash"}, "value": 0.16798148, "n": 1}], "hex": "0100000001a84a833a919b8cdd0be450b20a819cc29152ae9e37d148de5c152a5fe122ac71010000006b48304502210088b2d46dd39e99127c5ca3003f6d1fcf8d4bbf5f2a21cd16ea66b3192c647d7f02207af8fc86808448030341f39406411b0e9ea56752a46cbd38f3db6a80fa9d15e1012103a7c41469c6192fdfde6032e8e2f7634e440c16bb057b912574e4a9148b6efc7affffffff0220a107000000000017a914bd8730b428165e9aefa913d7c0d11a3bfaeeaba587c4510001000000001976a91468fa1b629198443d2bcc1477c360a150aeeaba5088ac00000000", "vin": [{"sequence": 4294967295, "scriptSig": {"hex": "48304502210088b2d46dd39e99127c5ca3003f6d1fcf8d4bbf5f2a21cd16ea66b3192c647d7f02207af8fc86808448030341f39406411b0e9ea56752a46cbd38f3db6a80fa9d15e1012103a7c41469c6192fdfde6032e8e2f7634e440c16bb057b912574e4a9148b6efc7a", "asm": "304502210088b2d46dd39e99127c5ca3003f6d1fcf8d4bbf5f2a21cd16ea66b3192c647d7f02207af8fc86808448030341f39406411b0e9ea56752a46cbd38f3db6a80fa9d15e1[ALL] 03a7c41469c6192fdfde6032e8e2f7634e440c16bb057b912574e4a9148b6efc7a"}, "vout": 1, "txid": "71ac22e15f2a155cde48d1379eae5291c29c810ab250e40bdd8c9b913a834aa8"}], "txid": "ed239887753c1d005ea70b9f07283bcc084827da05313e155bba222462e15aa3", "blocktime": 1537870564, "version": 1, "confirmations": 11515, "time": 1537870564, "locktime": 0, "vsize": 224, "size": 224}