{"hash": "dcb93b0682a05d4c1ca3d5a929a501d8ffdd5bf14818f307c991185cd89d124e", "blockhash": "0000000000000000000e13cef7c366c0283d82e591d1acd082e914b08063cdf1", "vout": [{"scriptPubKey": {"reqSigs": 1, "hex": "a914d20603a3a698f1211bc57c800a4c04afa6de2eb887", "addresses": ["3LqX2hjmfc9pW7LoGHa1A5QkxsN7A2uLyh"], "asm": "OP_HASH160 d20603a3a698f1211bc57c800a4c04afa6de2eb8 OP_EQUAL", "type": "scripthash"}, "value": 0.00428809, "n": 0}, {"scriptPubKey": {"reqSigs": 1, "hex": "a914bf2d6098c7752e6628cf63e1c2d1f8a83f3bd64b87", "addresses": ["3K7sM4BL2ofqRePmeUURxrL4cUEMj8kdnt"], "asm": "OP_HASH160 bf2d6098c7752e6628cf63e1c2d1f8a83f3bd64b OP_EQUAL", "type": "scripthash"}, "value": 0.01606191, "n": 1}], "hex": "0200000000010226f5478376e5dbc9b02cf253341f666322678f062d438129d2ae7040fe5a07f80100000017160014a496de83d8e8f7ce5ab81c9844aeeecd3b8842b7feffffffd3248eca3af2fc77ace53f9cb669f9d73bd4866d88f50165d4e2e45ce73f2324000000001716001455e96d1c25c5b3e26559e350bf48071863df44bffeffffff02098b06000000000017a914d20603a3a698f1211bc57c800a4c04afa6de2eb8872f8218000000000017a914bf2d6098c7752e6628cf63e1c2d1f8a83f3bd64b87024730440220025e3951142928833d952fb10bb68330ba240ed9a20c47ee666b9b37c6a9c89902204e6e6a7768f74339649eabfa762dee5b16a3cec16047ff62f6a4bd5e44d59e6201210227502aac7e2efa322be7da7c0adea0d4b23d53d0a24a13f6647aa85592964e0702483045022100eb2938ade4ceb7a3a3d8382bb19e2a5089bfd476bf0049e1e753a6d326f74b140220795ed360bd89816110832a1abf3f349569795bd17e31b8bd2bdb0bc1aeb27e39012103eb971f45ababaa06cfd111220317261901b72cecd83a559eaac4b1960eeb3cb50f490800", "vin": [{"txinwitness": ["30440220025e3951142928833d952fb10bb68330ba240ed9a20c47ee666b9b37c6a9c89902204e6e6a7768f74339649eabfa762dee5b16a3cec16047ff62f6a4bd5e44d59e6201", "0227502aac7e2efa322be7da7c0adea0d4b23d53d0a24a13f6647aa85592964e07"], "sequence": 4294967294, "scriptSig": {"hex": "160014a496de83d8e8f7ce5ab81c9844aeeecd3b8842b7", "asm": "0014a496de83d8e8f7ce5ab81c9844aeeecd3b8842b7"}, "vout": 1, "txid": "f8075afe4070aed22981432d068f672263661f3453f22cb0c9dbe5768347f526"}, {"txinwitness": ["3045022100eb2938ade4ceb7a3a3d8382bb19e2a5089bfd476bf0049e1e753a6d326f74b140220795ed360bd89816110832a1abf3f349569795bd17e31b8bd2bdb0bc1aeb27e3901", "03eb971f45ababaa06cfd111220317261901b72cecd83a559eaac4b1960eeb3cb5"], "sequence": 4294967294, "scriptSig": {"hex": "16001455e96d1c25c5b3e26559e350bf48071863df44bf", "asm": "001455e96d1c25c5b3e26559e350bf48071863df44bf"}, "vout": 0, "txid": "24233fe75ce4e2d46501f5886d86d43bd7f969b69c3fe5ac77fcf23aca8e24d3"}], "txid": "ed262a90a150e528ffecbc9d2fe57ba13b6d5fe972c3ba0f5429219af004ec35", "blocktime": 1537871767, "version": 2, "confirmations": 11495, "time": 1537871767, "locktime": 542991, "vsize": 257, "size": 419}