{"hash": "ed2daaaaef013eba75fb4b3b59060f31ebff73d7f9673a6e1281e762bf4a95c4", "blockhash": "00000000000000000024a2167bbff67b0be802c0b01cdd79e6331c2be6459f87", "vout": [{"scriptPubKey": {"reqSigs": 1, "hex": "76a9149517fc179b42f751a201e9053bc43ff3c16b579688ac", "addresses": ["1EbLR592H1bV5PEvkGBEph56AH1wLfsJmW"], "asm": "OP_DUP OP_HASH160 9517fc179b42f751a201e9053bc43ff3c16b5796 OP_EQUALVERIFY OP_CHECKSIG", "type": "pubkeyhash"}, "value": 0.00496992, "n": 0}, {"scriptPubKey": {"reqSigs": 1, "hex": "76a914543fc79927b8c1c560c8e2144f96701759144cc188ac", "addresses": ["18gUAc1iPFy8bQrK1WBszcBtWQfaGv1xF1"], "asm": "OP_DUP OP_HASH160 543fc79927b8c1c560c8e2144f96701759144cc1 OP_EQUALVERIFY OP_CHECKSIG", "type": "pubkeyhash"}, "value": 0.01, "n": 1}], "hex": "0100000002818d83f20a0a60f2360b64ce465bfa1f194e57464f85c1830d0e19926adbf518190000006a473044022037c2d16cf45910a0a0d25b9f0c5d31176da3b4438a76ad7f6544dbd52b97bf670220628d3549e8b7e2153a88dc4784d2638f69e1a9c5b9198c3517500783fa3c4157012103e2e86b77bd5fc801042a254fecb4f49ef6d31a36fc3a3a7caa68323e767281f6ffffffff8c657c8e30ea7eda4d4a22c09dbbc204ba8e59a110513ece7b79b203561ddad5100000006a473044022032e785768d945120803bb80a48086bede1693c73b9dba84b5dcc254ece1b5f3102204038a33e5c3321a1bc644c68a0d8333ee895c469ddeb1448be15e7cab57b4459012103c531093d7d67ae9ff723e89d7dd9abff989724d9b1d01ded1b844b1f70dfc161ffffffff0260950700000000001976a9149517fc179b42f751a201e9053bc43ff3c16b579688ac40420f00000000001976a914543fc79927b8c1c560c8e2144f96701759144cc188ac00000000", "vin": [{"sequence": 4294967295, "scriptSig": {"hex": "473044022037c2d16cf45910a0a0d25b9f0c5d31176da3b4438a76ad7f6544dbd52b97bf670220628d3549e8b7e2153a88dc4784d2638f69e1a9c5b9198c3517500783fa3c4157012103e2e86b77bd5fc801042a254fecb4f49ef6d31a36fc3a3a7caa68323e767281f6", "asm": "3044022037c2d16cf45910a0a0d25b9f0c5d31176da3b4438a76ad7f6544dbd52b97bf670220628d3549e8b7e2153a88dc4784d2638f69e1a9c5b9198c3517500783fa3c4157[ALL] 03e2e86b77bd5fc801042a254fecb4f49ef6d31a36fc3a3a7caa68323e767281f6"}, "vout": 25, "txid": "18f5db6a92190e0d83c1854f46574e191ffa5b46ce640b36f2600a0af2838d81"}, {"sequence": 4294967295, "scriptSig": {"hex": "473044022032e785768d945120803bb80a48086bede1693c73b9dba84b5dcc254ece1b5f3102204038a33e5c3321a1bc644c68a0d8333ee895c469ddeb1448be15e7cab57b4459012103c531093d7d67ae9ff723e89d7dd9abff989724d9b1d01ded1b844b1f70dfc161", "asm": "3044022032e785768d945120803bb80a48086bede1693c73b9dba84b5dcc254ece1b5f3102204038a33e5c3321a1bc644c68a0d8333ee895c469ddeb1448be15e7cab57b4459[ALL] 03c531093d7d67ae9ff723e89d7dd9abff989724d9b1d01ded1b844b1f70dfc161"}, "vout": 16, "txid": "d5da1d5603b2797bce3e5110a1598eba04c2bb9dc0224a4dda7eea308e7c658c"}], "txid": "ed2daaaaef013eba75fb4b3b59060f31ebff73d7f9673a6e1281e762bf4a95c4", "blocktime": 1537870564, "version": 1, "confirmations": 11515, "time": 1537870564, "locktime": 0, "vsize": 372, "size": 372}