{"hash": "ed2ff0173a2001c56aef49287bb4950e249a445d4494bf94d71f123f72bf2c22", "blockhash": "00000000000000000017f5eb5941039fbcee6240d03bc1f2f8e35350df66a1d8", "vout": [{"scriptPubKey": {"reqSigs": 1, "hex": "76a914f2433a46b74623c543672c75bbc9ea43c4b08a2e88ac", "addresses": ["1P5y4UvNxkHAegm4K8t4AudmDD2ijULXw9"], "asm": "OP_DUP OP_HASH160 f2433a46b74623c543672c75bbc9ea43c4b08a2e OP_EQUALVERIFY OP_CHECKSIG", "type": "pubkeyhash"}, "value": 0.0031262, "n": 0}, {"scriptPubKey": {"reqSigs": 1, "hex": "76a914013c273516b1e86010db179cac50f8254f7350a688ac", "addresses": ["17XjhxkrnKor7H3KuMJBVxodXAoHFwa8L"], "asm": "OP_DUP OP_HASH160 013c273516b1e86010db179cac50f8254f7350a6 OP_EQUALVERIFY OP_CHECKSIG", "type": "pubkeyhash"}, "value": 0.02557375, "n": 1}], "hex": "010000000124505d33cbe982c880ccd1449a8a2f5e15d544713e29754c3d57936e9cb0f4dd010000006a47304402200df372fc39e0a804c399267c892b8d9fd495835597cd9f6055b49a304f8dc03902205886117d164d96a89ea88f2d75eb058381d1e1358358040522b29dbe21bc17cd012103f0cb008cd399523a4fb00b74dfaddc5d728bf29562b939da7fbdef8c2c4de817ffffffff022cc50400000000001976a914f2433a46b74623c543672c75bbc9ea43c4b08a2e88acbf052700000000001976a914013c273516b1e86010db179cac50f8254f7350a688ac00000000", "vin": [{"sequence": 4294967295, "scriptSig": {"hex": "47304402200df372fc39e0a804c399267c892b8d9fd495835597cd9f6055b49a304f8dc03902205886117d164d96a89ea88f2d75eb058381d1e1358358040522b29dbe21bc17cd012103f0cb008cd399523a4fb00b74dfaddc5d728bf29562b939da7fbdef8c2c4de817", "asm": "304402200df372fc39e0a804c399267c892b8d9fd495835597cd9f6055b49a304f8dc03902205886117d164d96a89ea88f2d75eb058381d1e1358358040522b29dbe21bc17cd[ALL] 03f0cb008cd399523a4fb00b74dfaddc5d728bf29562b939da7fbdef8c2c4de817"}, "vout": 1, "txid": "ddf4b09c6e93573d4c75293e7144d5155e2f8a9a44d1cc80c882e9cb335d5024"}], "txid": "ed2ff0173a2001c56aef49287bb4950e249a445d4494bf94d71f123f72bf2c22", "blocktime": 1537874412, "version": 1, "confirmations": 11467, "time": 1537874412, "locktime": 0, "vsize": 225, "size": 225}