{"hash": "ed330d96350fe4759143f492006fa0cc9a4ec2636839646fe384734ca910c899", "blockhash": "000000000000000000022b45ed06c6f4ccd3cf7fb5ba4856ebd2e58215665228", "vout": [{"scriptPubKey": {"reqSigs": 1, "hex": "76a91408211c7faf987750007b5e104f6952bde61d294588ac", "addresses": ["1jz59gfN1eDk6vph6GEE76fZN4rhRMaA2"], "asm": "OP_DUP OP_HASH160 08211c7faf987750007b5e104f6952bde61d2945 OP_EQUALVERIFY OP_CHECKSIG", "type": "pubkeyhash"}, "value": 0.0011206, "n": 0}, {"scriptPubKey": {"type": "nulldata", "hex": "6a4c50000077610001e2f35f86aeaeacb577c031fc3a016b46dc7dc7d0968d120d670c1906f9996f39d7f2eff59bc5d22535e3fd75cc3b5baa07b20612424af0420d81bc9a9526289ac0f6612cd74e33776ee4", "asm": "OP_RETURN 000077610001e2f35f86aeaeacb577c031fc3a016b46dc7dc7d0968d120d670c1906f9996f39d7f2eff59bc5d22535e3fd75cc3b5baa07b20612424af0420d81bc9a9526289ac0f6612cd74e33776ee4"}, "value": 0.0, "n": 1}], "hex": "01000000011f41bd08e4ab9824635151c1697c1696bdf6587a5e3548f9be779c44ca677e0f000000006b4830450221008555be1a7b2bc70ee3eb429b3aa29ac3d8e2665dcf63cc944c3a9924edfb81f9022074b6769f05536423a496ab0630d9cfe0f81dfc232b99621f4f5f6e5cc9eb56e90121028ca3ce36b043734d2622230b676836b4cb2c71ae6f7248af010de564f74e73baffffffff02bcb50100000000001976a91408211c7faf987750007b5e104f6952bde61d294588ac0000000000000000536a4c50000077610001e2f35f86aeaeacb577c031fc3a016b46dc7dc7d0968d120d670c1906f9996f39d7f2eff59bc5d22535e3fd75cc3b5baa07b20612424af0420d81bc9a9526289ac0f6612cd74e33776ee400000000", "vin": [{"sequence": 4294967295, "scriptSig": {"hex": "4830450221008555be1a7b2bc70ee3eb429b3aa29ac3d8e2665dcf63cc944c3a9924edfb81f9022074b6769f05536423a496ab0630d9cfe0f81dfc232b99621f4f5f6e5cc9eb56e90121028ca3ce36b043734d2622230b676836b4cb2c71ae6f7248af010de564f74e73ba", "asm": "30450221008555be1a7b2bc70ee3eb429b3aa29ac3d8e2665dcf63cc944c3a9924edfb81f9022074b6769f05536423a496ab0630d9cfe0f81dfc232b99621f4f5f6e5cc9eb56e9[ALL] 028ca3ce36b043734d2622230b676836b4cb2c71ae6f7248af010de564f74e73ba"}, "vout": 0, "txid": "0f7e67ca449c77bef948355e7a58f6bd96167c69c15151632498abe408bd411f"}], "txid": "ed330d96350fe4759143f492006fa0cc9a4ec2636839646fe384734ca910c899", "blocktime": 1537869901, "version": 1, "confirmations": 11523, "time": 1537869901, "locktime": 0, "vsize": 284, "size": 284}