{"hash": "ed34407ed78ab8ba623095b669fd7ebb321b762651489c6a55ca9ca006ba76c2", "blockhash": "0000000000000000000baef3f32e3676a92c3b2e5da21b426e4f302fc371ce76", "vout": [{"scriptPubKey": {"reqSigs": 1, "hex": "76a914d243e6abb9a60fbff430b421d2df4b7d59ec186088ac", "addresses": ["1LAnF8h3qMGx3TSwNUHVneBZUEpwE4gu3D"], "asm": "OP_DUP OP_HASH160 d243e6abb9a60fbff430b421d2df4b7d59ec1860 OP_EQUALVERIFY OP_CHECKSIG", "type": "pubkeyhash"}, "value": 0.00077314, "n": 0}, {"scriptPubKey": {"reqSigs": 1, "hex": "a91467adc1e40664c3c24703dfe1a9c4deff1966a68387", "addresses": ["3B9DgBDzZX51kCcze5c6ayq74uT6KqV79S"], "asm": "OP_HASH160 67adc1e40664c3c24703dfe1a9c4deff1966a683 OP_EQUAL", "type": "scripthash"}, "value": 5.46e-06, "n": 1}, {"scriptPubKey": {"type": "nulldata", "hex": "6a146f6d6e69000000000000001f0000000a0d053cc0", "asm": "OP_RETURN 6f6d6e69000000000000001f0000000a0d053cc0"}, "value": 0.0, "n": 2}], "hex": "01000000011ab2ebd0fd3e3b1e6aafa8065c3aa5d3cca2ccc0ae1adffb7417ad3942642111000000006b483045022100b158c92f940cc389b2073aadf8ad5fdca6a90a97b2e329ff5d1592ca26bdbb0f0220280909cb8b4be1482cda72c37391449a3dcae715b91b8332fe10ae713c7c494c01210271977291b74f1f5f5c42157e8aae804664eaaeccfd097918450d37f28fb94d77ffffffff03022e0100000000001976a914d243e6abb9a60fbff430b421d2df4b7d59ec186088ac220200000000000017a91467adc1e40664c3c24703dfe1a9c4deff1966a683870000000000000000166a146f6d6e69000000000000001f0000000a0d053cc000000000", "vin": [{"sequence": 4294967295, "scriptSig": {"hex": "483045022100b158c92f940cc389b2073aadf8ad5fdca6a90a97b2e329ff5d1592ca26bdbb0f0220280909cb8b4be1482cda72c37391449a3dcae715b91b8332fe10ae713c7c494c01210271977291b74f1f5f5c42157e8aae804664eaaeccfd097918450d37f28fb94d77", "asm": "3045022100b158c92f940cc389b2073aadf8ad5fdca6a90a97b2e329ff5d1592ca26bdbb0f0220280909cb8b4be1482cda72c37391449a3dcae715b91b8332fe10ae713c7c494c[ALL] 0271977291b74f1f5f5c42157e8aae804664eaaeccfd097918450d37f28fb94d77"}, "vout": 0, "txid": "1121644239ad1774fbdf1aaec0cca2ccd3a53a5c06a8af6a1e3b3efdd0ebb21a"}], "txid": "ed34407ed78ab8ba623095b669fd7ebb321b762651489c6a55ca9ca006ba76c2", "blocktime": 1537876114, "version": 1, "confirmations": 11460, "time": 1537876114, "locktime": 0, "vsize": 255, "size": 255}