{"hash": "c5a65519a3b0195e5c1aa00a7e15bb944a3dd8e2ae46627280063ec19b0094dd", "blockhash": "0000000000000000000e13cef7c366c0283d82e591d1acd082e914b08063cdf1", "vout": [{"scriptPubKey": {"reqSigs": 1, "hex": "a9146ee2d4e9a67899d89ca89fd7056b929df18ffa2387", "addresses": ["3BoKzBp7uhakVrnKR4wwE9AfgfLQKUXhB1"], "asm": "OP_HASH160 6ee2d4e9a67899d89ca89fd7056b929df18ffa23 OP_EQUAL", "type": "scripthash"}, "value": 0.34125322, "n": 0}, {"scriptPubKey": {"reqSigs": 1, "hex": "a914d7efae396cea5560d49e27999c42f987b8fe957187", "addresses": ["3MNnL5sa3Sm5X9e9XK3VNvLjSLjHNzd1qd"], "asm": "OP_HASH160 d7efae396cea5560d49e27999c42f987b8fe9571 OP_EQUAL", "type": "scripthash"}, "value": 0.00999496, "n": 1}], "hex": "0200000000010504a30893a7457ab533350ca0168ad9710407264431066a6c518d833afd091546000000001716001413d218be5a2f6e8af78924627973635e6ca63d42feffffff1c481d9332f069da9bb79be6fce7ad6de100d006e695ca3fe1097047d761d13a0000000017160014944028e3f5a5eaa646c62c6f2ee20b10ccccab30feffffff85270e594f4d627a9779e42fee3387c22c3acb0e85513db657bae5ed4b64ddc2040000001716001401b9e935c1ee397ba2af404ac21cf667c94c6abdfeffffffaa19b08c48bbe87700531fcb8c3560e1538cd87f432ff1fdc80b58f4ebdb2fe20100000017160014715cc93e4288033be98482a3d8b06c77a4b1c461feffffffbbc1a3d9136e0c60fbd77b10762fbf66fd7eb4ab2db5d56feccb3c61fad1974d0100000017160014000e4761373767e7f2ff4a2a6576170b4638c6e3feffffff020ab608020000000017a9146ee2d4e9a67899d89ca89fd7056b929df18ffa238748400f000000000017a914d7efae396cea5560d49e27999c42f987b8fe95718702483045022100b49b8536ac0830be44df8ba872a342d6594eb549b01ba4357998636f0e75edab0220576ee28a045c672a0a6b86f903becb9ca1cb09241729b8537867630145642df6012102a4f19a53691aa454e46c4212f83ce87c66271f4e0be78ca3bbe713aec2b430a502483045022100f0ae576ddb24f505006c1acc8c7bd99eac6ceee7fef451cc7195a8ca328f7a6e022021b3f691d56c58c7b66e69b67b93a3f750ad7de08919d526d5caa49d5ab0a9de01210258645a1be1410bca8fee151428df5fc5969973bb04255b87379a915d5cb4a1be02483045022100f80e4cdbc3c86dab41880f2554a25859db1e89c4a8845bb7ca1f839504b61c2f0220596c1b09915c7e219889bfd1199ff701955c69b88a3eab4457db79b7b914ae63012103651e852eeb2d5801873c9fd336ba431ad85bc6ac53f6baf072535a5df4fa34000248304502210097f78df7dababe325981cc6438e4e4705c156d60c25e48114c159b841ef2b553022035123d4a9a7d58712f8a624572e2baf04521a57c267f9799f70eb20e0fe68779012102b6d9968e2af6d761c41de81d7cc696034c557d2ac07c79c0ebceb7d02513bbef02483045022100b160091a78d93885d1492adf809c5d241f489358a8a4368333303847dc63243f02201e428a43bca8240ae4c94492fb48cdad6cb7f27d8e78e1232c84277f95001a0701210284fe93f203b264d97b89afd6c2e15bbdec27e4cdb69097bfcd3ec1db5409685c00000000", "vin": [{"txinwitness": ["3045022100b49b8536ac0830be44df8ba872a342d6594eb549b01ba4357998636f0e75edab0220576ee28a045c672a0a6b86f903becb9ca1cb09241729b8537867630145642df601", "02a4f19a53691aa454e46c4212f83ce87c66271f4e0be78ca3bbe713aec2b430a5"], "sequence": 4294967294, "scriptSig": {"hex": "16001413d218be5a2f6e8af78924627973635e6ca63d42", "asm": "001413d218be5a2f6e8af78924627973635e6ca63d42"}, "vout": 0, "txid": "461509fd3a838d516c6a06314426070471d98a16a00c3533b57a45a79308a304"}, {"txinwitness": ["3045022100f0ae576ddb24f505006c1acc8c7bd99eac6ceee7fef451cc7195a8ca328f7a6e022021b3f691d56c58c7b66e69b67b93a3f750ad7de08919d526d5caa49d5ab0a9de01", "0258645a1be1410bca8fee151428df5fc5969973bb04255b87379a915d5cb4a1be"], "sequence": 4294967294, "scriptSig": {"hex": "160014944028e3f5a5eaa646c62c6f2ee20b10ccccab30", "asm": "0014944028e3f5a5eaa646c62c6f2ee20b10ccccab30"}, "vout": 0, "txid": "3ad161d7477009e13fca95e606d000e16dade7fce69bb79bda69f032931d481c"}, {"txinwitness": ["3045022100f80e4cdbc3c86dab41880f2554a25859db1e89c4a8845bb7ca1f839504b61c2f0220596c1b09915c7e219889bfd1199ff701955c69b88a3eab4457db79b7b914ae6301", "03651e852eeb2d5801873c9fd336ba431ad85bc6ac53f6baf072535a5df4fa3400"], "sequence": 4294967294, "scriptSig": {"hex": "16001401b9e935c1ee397ba2af404ac21cf667c94c6abd", "asm": "001401b9e935c1ee397ba2af404ac21cf667c94c6abd"}, "vout": 4, "txid": "c2dd644bede5ba57b63d51850ecb3a2cc28733ee2fe479977a624d4f590e2785"}, {"txinwitness": ["304502210097f78df7dababe325981cc6438e4e4705c156d60c25e48114c159b841ef2b553022035123d4a9a7d58712f8a624572e2baf04521a57c267f9799f70eb20e0fe6877901", "02b6d9968e2af6d761c41de81d7cc696034c557d2ac07c79c0ebceb7d02513bbef"], "sequence": 4294967294, "scriptSig": {"hex": "160014715cc93e4288033be98482a3d8b06c77a4b1c461", "asm": "0014715cc93e4288033be98482a3d8b06c77a4b1c461"}, "vout": 1, "txid": "e22fdbebf4580bc8fdf12f437fd88c53e160358ccb1f530077e8bb488cb019aa"}, {"txinwitness": ["3045022100b160091a78d93885d1492adf809c5d241f489358a8a4368333303847dc63243f02201e428a43bca8240ae4c94492fb48cdad6cb7f27d8e78e1232c84277f95001a0701", "0284fe93f203b264d97b89afd6c2e15bbdec27e4cdb69097bfcd3ec1db5409685c"], "sequence": 4294967294, "scriptSig": {"hex": "160014000e4761373767e7f2ff4a2a6576170b4638c6e3", "asm": "0014000e4761373767e7f2ff4a2a6576170b4638c6e3"}, "vout": 1, "txid": "4d97d1fa613ccbec6fd5b52dabb47efd66bf2f76107bd7fb600c6e13d9a3c1bb"}], "txid": "ed3c2a24633d7efe35fe3495a1d2954df74a3b5f17dabeaafc7535f74adf24bf", "blocktime": 1537871767, "version": 2, "confirmations": 11495, "time": 1537871767, "locktime": 0, "vsize": 530, "size": 936}