{"hash": "ed3f5f57a82682c75b535dcdd2ee649bc18237405277a58173cf23e32094d6be", "blockhash": "0000000000000000000e13cef7c366c0283d82e591d1acd082e914b08063cdf1", "vout": [{"scriptPubKey": {"reqSigs": 1, "hex": "76a914f9ca91411e54d9827c4cce1d6733f7c9a1202df988ac", "addresses": ["1PmmvPwLZeSb9dXF6XfCPXyj744yf2rjgd"], "asm": "OP_DUP OP_HASH160 f9ca91411e54d9827c4cce1d6733f7c9a1202df9 OP_EQUALVERIFY OP_CHECKSIG", "type": "pubkeyhash"}, "value": 0.05089443, "n": 0}, {"scriptPubKey": {"reqSigs": 1, "hex": "76a914f3f602a93cee42bd976da62cdf8c82e71ead369b88ac", "addresses": ["1PEwuiZwjMXFF7iu6PXz4YoqPf9APiRxrA"], "asm": "OP_DUP OP_HASH160 f3f602a93cee42bd976da62cdf8c82e71ead369b OP_EQUALVERIFY OP_CHECKSIG", "type": "pubkeyhash"}, "value": 16.30945022, "n": 1}], "hex": "02000000016715fd6e77f23eaf0849d94d144aa93cdb03da317e0da9f9264ac5d49fb0160e010000006b483045022100823522249b6cb0256f3bdbeea691094d80a6d518293bf1a206141f1b4485947902201aa0814e89205fdf37942207ec5e3745ca95d45be5100202878a869172e79c170121028b2786a0f6d2c1a6593386585ac7446ccaea296299e6483136cf706c6b5da791ffffffff02a3a84d00000000001976a914f9ca91411e54d9827c4cce1d6733f7c9a1202df988acfe3e3661000000001976a914f3f602a93cee42bd976da62cdf8c82e71ead369b88ac00000000", "vin": [{"sequence": 4294967295, "scriptSig": {"hex": "483045022100823522249b6cb0256f3bdbeea691094d80a6d518293bf1a206141f1b4485947902201aa0814e89205fdf37942207ec5e3745ca95d45be5100202878a869172e79c170121028b2786a0f6d2c1a6593386585ac7446ccaea296299e6483136cf706c6b5da791", "asm": "3045022100823522249b6cb0256f3bdbeea691094d80a6d518293bf1a206141f1b4485947902201aa0814e89205fdf37942207ec5e3745ca95d45be5100202878a869172e79c17[ALL] 028b2786a0f6d2c1a6593386585ac7446ccaea296299e6483136cf706c6b5da791"}, "vout": 1, "txid": "0e16b09fd4c54a26f9a90d7e31da03db3ca94a144dd94908af3ef2776efd1567"}], "txid": "ed3f5f57a82682c75b535dcdd2ee649bc18237405277a58173cf23e32094d6be", "blocktime": 1537871767, "version": 2, "confirmations": 11495, "time": 1537871767, "locktime": 0, "vsize": 226, "size": 226}