{"hash": "ed48180053f0b568550652ea91572f2771cd0caf34106e5565083401070104ef", "blockhash": "00000000000000000004ffacab907a6b429b9a5745fa0b75af4234bf69dd7176", "vout": [{"scriptPubKey": {"reqSigs": 1, "hex": "76a9144faa42c7e6383f12882c6deea3f13f5eb51c318c88ac", "addresses": ["18GEM62nZPrENPWJcNt7KCGFttJjn3r2nt"], "asm": "OP_DUP OP_HASH160 4faa42c7e6383f12882c6deea3f13f5eb51c318c OP_EQUALVERIFY OP_CHECKSIG", "type": "pubkeyhash"}, "value": 0.00620333, "n": 0}, {"scriptPubKey": {"reqSigs": 1, "hex": "76a91431825c346e6259c23f868fbba3a9a169bdfcc31988ac", "addresses": ["15WnGz3JNmQ3UpYXjJXVtob9fmaCqQ6aFq"], "asm": "OP_DUP OP_HASH160 31825c346e6259c23f868fbba3a9a169bdfcc319 OP_EQUALVERIFY OP_CHECKSIG", "type": "pubkeyhash"}, "value": 0.00227204, "n": 1}], "hex": "0200000001899927405274efe2164d05f4a17c1438661de824c23ecf946c36f022a3263766000000006b483045022100ad163d312431f16ae361569731391d637cf1c2a5accb6373cf04e8b0428f499702204aba66d7bc623d78f00e66ea1d1647aea5e302756dc913e9cab0275b8713994b012102ced70b20c11b0e293d336d5358096ee73620bb7aff5c6e913614a22aa7234902ffffffff022d770900000000001976a9144faa42c7e6383f12882c6deea3f13f5eb51c318c88ac84770300000000001976a91431825c346e6259c23f868fbba3a9a169bdfcc31988ac00000000", "vin": [{"sequence": 4294967295, "scriptSig": {"hex": "483045022100ad163d312431f16ae361569731391d637cf1c2a5accb6373cf04e8b0428f499702204aba66d7bc623d78f00e66ea1d1647aea5e302756dc913e9cab0275b8713994b012102ced70b20c11b0e293d336d5358096ee73620bb7aff5c6e913614a22aa7234902", "asm": "3045022100ad163d312431f16ae361569731391d637cf1c2a5accb6373cf04e8b0428f499702204aba66d7bc623d78f00e66ea1d1647aea5e302756dc913e9cab0275b8713994b[ALL] 02ced70b20c11b0e293d336d5358096ee73620bb7aff5c6e913614a22aa7234902"}, "vout": 0, "txid": "663726a322f0366c94cf3ec224e81d6638147ca1f4054d16e2ef745240279989"}], "txid": "ed48180053f0b568550652ea91572f2771cd0caf34106e5565083401070104ef", "blocktime": 1537875543, "version": 2, "confirmations": 11464, "time": 1537875543, "locktime": 0, "vsize": 226, "size": 226}