{"hash": "ed4a896110d6d63c7b26c975b0b12d2aac3f55ce862cc91e5c3957f1727f8957", "blockhash": "0000000000000000000e13cef7c366c0283d82e591d1acd082e914b08063cdf1", "vout": [{"scriptPubKey": {"reqSigs": 1, "hex": "a914ab29bce3029fc33a4c788d77f16aec6e8614618b87", "addresses": ["3HJ3ULpuNqLJcN7cSqCTHDW1sxVCcVr1qj"], "asm": "OP_HASH160 ab29bce3029fc33a4c788d77f16aec6e8614618b OP_EQUAL", "type": "scripthash"}, "value": 0.26846, "n": 0}, {"scriptPubKey": {"reqSigs": 1, "hex": "76a914d5ba2eb2d52670fbe9522748bf642da754eb0d6f88ac", "addresses": ["1LV5y3NkVkmdWnF6xRCEXrAnUkRgge4KSq"], "asm": "OP_DUP OP_HASH160 d5ba2eb2d52670fbe9522748bf642da754eb0d6f OP_EQUALVERIFY OP_CHECKSIG", "type": "pubkeyhash"}, "value": 6.29600193, "n": 1}], "hex": "01000000016776fb46b93db6c038af200fcef9351ec7034ef6aca2d3c8a0f9c0ac1f093201010000006a473044022014098a5ef492df2c2820391d690712d5a5d44954090d3aa0352a9d7316ba15d202206507568e79f523e9c5817276dfa7775750efbda4479ba23b47721f6077e8d179012102c19ebc0e7fe714e24c55adaeebc7dbab2dc9a208b511bd1b6e83db85506d4d19ffffffff0230a399010000000017a914ab29bce3029fc33a4c788d77f16aec6e8614618b87c1ef8625000000001976a914d5ba2eb2d52670fbe9522748bf642da754eb0d6f88ac00000000", "vin": [{"sequence": 4294967295, "scriptSig": {"hex": "473044022014098a5ef492df2c2820391d690712d5a5d44954090d3aa0352a9d7316ba15d202206507568e79f523e9c5817276dfa7775750efbda4479ba23b47721f6077e8d179012102c19ebc0e7fe714e24c55adaeebc7dbab2dc9a208b511bd1b6e83db85506d4d19", "asm": "3044022014098a5ef492df2c2820391d690712d5a5d44954090d3aa0352a9d7316ba15d202206507568e79f523e9c5817276dfa7775750efbda4479ba23b47721f6077e8d179[ALL] 02c19ebc0e7fe714e24c55adaeebc7dbab2dc9a208b511bd1b6e83db85506d4d19"}, "vout": 1, "txid": "0132091facc0f9a0c8d3a2acf64e03c71e35f9ce0f20af38c0b63db946fb7667"}], "txid": "ed4a896110d6d63c7b26c975b0b12d2aac3f55ce862cc91e5c3957f1727f8957", "blocktime": 1537871767, "version": 1, "confirmations": 11495, "time": 1537871767, "locktime": 0, "vsize": 223, "size": 223}