{"hash": "ed5678ae047cd02f49bc9a40c281c916a1d2d15dba3ea8345b4dd40f25431b9e", "blockhash": "00000000000000000004ffacab907a6b429b9a5745fa0b75af4234bf69dd7176", "vout": [{"scriptPubKey": {"reqSigs": 1, "hex": "76a914b8bc0391fac05b25db78fc2e9f0865903c54b54b88ac", "addresses": ["1HqnZjcrvG4atusBrh2WJpkex8oA7h7PQ4"], "asm": "OP_DUP OP_HASH160 b8bc0391fac05b25db78fc2e9f0865903c54b54b OP_EQUALVERIFY OP_CHECKSIG", "type": "pubkeyhash"}, "value": 4.19198391, "n": 0}, {"scriptPubKey": {"reqSigs": 1, "hex": "76a914f6eae152341c6ad62258fbd4d26468339489b2bf88ac", "addresses": ["1PWabx6ccWDQ1pYBXug6adg8ovuHqwXRsT"], "asm": "OP_DUP OP_HASH160 f6eae152341c6ad62258fbd4d26468339489b2bf OP_EQUALVERIFY OP_CHECKSIG", "type": "pubkeyhash"}, "value": 0.0046324, "n": 1}], "hex": "0100000001cf2e615d7cc263cc9ee960d3bfc5c0a52b77c4975f58bb7a6e757cd1c83111bb010000006a47304402205363f14905acbe1e00c8fe98f26ba610a454ee1fc4604802561881368e8066e702200ce0e078ab1089842b50fab223e4fbc2621bc30592b294d515e840a38cf3e913012102954c60a7a86c618cae513368ce421ed4ff526d3bf8efa1b94708d24b498c2161ffffffff02b775fc18000000001976a914b8bc0391fac05b25db78fc2e9f0865903c54b54b88ac88110700000000001976a914f6eae152341c6ad62258fbd4d26468339489b2bf88ac00000000", "vin": [{"sequence": 4294967295, "scriptSig": {"hex": "47304402205363f14905acbe1e00c8fe98f26ba610a454ee1fc4604802561881368e8066e702200ce0e078ab1089842b50fab223e4fbc2621bc30592b294d515e840a38cf3e913012102954c60a7a86c618cae513368ce421ed4ff526d3bf8efa1b94708d24b498c2161", "asm": "304402205363f14905acbe1e00c8fe98f26ba610a454ee1fc4604802561881368e8066e702200ce0e078ab1089842b50fab223e4fbc2621bc30592b294d515e840a38cf3e913[ALL] 02954c60a7a86c618cae513368ce421ed4ff526d3bf8efa1b94708d24b498c2161"}, "vout": 1, "txid": "bb1131c8d17c756e7abb585f97c4772ba5c0c5bfd360e99ecc63c27c5d612ecf"}], "txid": "ed5678ae047cd02f49bc9a40c281c916a1d2d15dba3ea8345b4dd40f25431b9e", "blocktime": 1537875543, "version": 1, "confirmations": 11464, "time": 1537875543, "locktime": 0, "vsize": 225, "size": 225}