{"hash": "ed5bd03d6789c45888be2ba22f2115aa29fa48308d51d5101655a26054616fb4", "blockhash": "00000000000000000004ffacab907a6b429b9a5745fa0b75af4234bf69dd7176", "vout": [{"scriptPubKey": {"reqSigs": 1, "hex": "76a914f546a1c200ea4483c10fd7507ee0e0a18efe15d488ac", "addresses": ["1PMuAb2EZuv2gYVsUwbai4MMM6QbBrRpqL"], "asm": "OP_DUP OP_HASH160 f546a1c200ea4483c10fd7507ee0e0a18efe15d4 OP_EQUALVERIFY OP_CHECKSIG", "type": "pubkeyhash"}, "value": 0.25330939, "n": 0}, {"scriptPubKey": {"type": "nulldata", "hex": "6a146f6d6e69000000000000001f00000001eb676870", "asm": "OP_RETURN 6f6d6e69000000000000001f00000001eb676870"}, "value": 0.0, "n": 1}, {"scriptPubKey": {"reqSigs": 1, "hex": "76a914f546a1c200ea4483c10fd7507ee0e0a18efe15d488ac", "addresses": ["1PMuAb2EZuv2gYVsUwbai4MMM6QbBrRpqL"], "asm": "OP_DUP OP_HASH160 f546a1c200ea4483c10fd7507ee0e0a18efe15d4 OP_EQUALVERIFY OP_CHECKSIG", "type": "pubkeyhash"}, "value": 5.46e-06, "n": 2}], "hex": "01000000024e82cef7e88a61672054b97bcbc8c0001929a2be4512583d170c0db30b286e05000000006b483045022100bf3bddc154e7475d3c4dcede733006201e898784b50a416ca78c3446274b7e0802207bc36a6482902f48e8e4be269d24efd51403f8a2fc73ad3cdd0ce9a5839ee28201210314d30d1ece8f58604ee7347d591d441af4475cf324610613c0a63bf256928135ffffffff263894d767596a4903e916353bc8418c737c6e85baa9058e118868f31a43c6bf000000006a47304402205ad217041365ce89029748d6c0d1c0277bc3d56fd2392cf4ab6e569b12b6916602203a54b0742f4d08765344d6a6d3c955d43e3a7eb741ddddac2b6c3dd20eb18325012102c605687331248c08436b7b194555687fbfe44e228dc42e79b76e5a3d8be8dba4ffffffff03fb848201000000001976a914f546a1c200ea4483c10fd7507ee0e0a18efe15d488ac0000000000000000166a146f6d6e69000000000000001f00000001eb67687022020000000000001976a914f546a1c200ea4483c10fd7507ee0e0a18efe15d488ac00000000", "vin": [{"sequence": 4294967295, "scriptSig": {"hex": "483045022100bf3bddc154e7475d3c4dcede733006201e898784b50a416ca78c3446274b7e0802207bc36a6482902f48e8e4be269d24efd51403f8a2fc73ad3cdd0ce9a5839ee28201210314d30d1ece8f58604ee7347d591d441af4475cf324610613c0a63bf256928135", "asm": "3045022100bf3bddc154e7475d3c4dcede733006201e898784b50a416ca78c3446274b7e0802207bc36a6482902f48e8e4be269d24efd51403f8a2fc73ad3cdd0ce9a5839ee282[ALL] 0314d30d1ece8f58604ee7347d591d441af4475cf324610613c0a63bf256928135"}, "vout": 0, "txid": "056e280bb30d0c173d581245bea2291900c0c8cb7bb9542067618ae8f7ce824e"}, {"sequence": 4294967295, "scriptSig": {"hex": "47304402205ad217041365ce89029748d6c0d1c0277bc3d56fd2392cf4ab6e569b12b6916602203a54b0742f4d08765344d6a6d3c955d43e3a7eb741ddddac2b6c3dd20eb18325012102c605687331248c08436b7b194555687fbfe44e228dc42e79b76e5a3d8be8dba4", "asm": "304402205ad217041365ce89029748d6c0d1c0277bc3d56fd2392cf4ab6e569b12b6916602203a54b0742f4d08765344d6a6d3c955d43e3a7eb741ddddac2b6c3dd20eb18325[ALL] 02c605687331248c08436b7b194555687fbfe44e228dc42e79b76e5a3d8be8dba4"}, "vout": 0, "txid": "bfc6431af36888118e05a9ba856e7c738c41c83b3516e903496a5967d7943826"}], "txid": "ed5bd03d6789c45888be2ba22f2115aa29fa48308d51d5101655a26054616fb4", "blocktime": 1537875543, "version": 1, "confirmations": 11464, "time": 1537875543, "locktime": 0, "vsize": 404, "size": 404}