{"hash": "ed6a71139f09be6760bf22d793b9a6b9c0556a8815b79553c2001c9177bbe4c9", "blockhash": "0000000000000000000baef3f32e3676a92c3b2e5da21b426e4f302fc371ce76", "vout": [{"scriptPubKey": {"reqSigs": 1, "hex": "76a914d5283cefeb15e69bc3293071e67a99c4215da5be88ac", "addresses": ["1LS58eZcKy2Uij2fBYE65Hn8diAGjpwx3p"], "asm": "OP_DUP OP_HASH160 d5283cefeb15e69bc3293071e67a99c4215da5be OP_EQUALVERIFY OP_CHECKSIG", "type": "pubkeyhash"}, "value": 3.752e-05, "n": 0}, {"scriptPubKey": {"reqSigs": 1, "hex": "76a9143a86bec71f4d2a0cd915bcb2e18cefcb253cbe4488ac", "addresses": ["16LTcPYDMoZXEvYiaQw76xwR4UjQp7VntX"], "asm": "OP_DUP OP_HASH160 3a86bec71f4d2a0cd915bcb2e18cefcb253cbe44 OP_EQUALVERIFY OP_CHECKSIG", "type": "pubkeyhash"}, "value": 0.0019, "n": 1}], "hex": "0100000001934d18c56d2ea26fbed70a6d5a319057753c9573dcc3d05bf40dbd75e6a973c1000000006a47304402202a8c73fc486f3ff5cb0e5b9b16d057a2d4e3df8dffaa78a032816b750a6e144802204d8151e85c332bc48bf697382b094c67ad0a4f6ba6f31b31cf7c722a9b4ce9800121030565b73c587951e34acf1b7d0269d220f935bfa271bd31117ccce1c4c8fb6eb5fdffffff02a80e0000000000001976a914d5283cefeb15e69bc3293071e67a99c4215da5be88ac30e60200000000001976a9143a86bec71f4d2a0cd915bcb2e18cefcb253cbe4488ac16490800", "vin": [{"sequence": 4294967293, "scriptSig": {"hex": "47304402202a8c73fc486f3ff5cb0e5b9b16d057a2d4e3df8dffaa78a032816b750a6e144802204d8151e85c332bc48bf697382b094c67ad0a4f6ba6f31b31cf7c722a9b4ce9800121030565b73c587951e34acf1b7d0269d220f935bfa271bd31117ccce1c4c8fb6eb5", "asm": "304402202a8c73fc486f3ff5cb0e5b9b16d057a2d4e3df8dffaa78a032816b750a6e144802204d8151e85c332bc48bf697382b094c67ad0a4f6ba6f31b31cf7c722a9b4ce980[ALL] 030565b73c587951e34acf1b7d0269d220f935bfa271bd31117ccce1c4c8fb6eb5"}, "vout": 0, "txid": "c173a9e675bd0df45bd0c3dc73953c755790315a6d0ad7be6fa22e6dc5184d93"}], "txid": "ed6a71139f09be6760bf22d793b9a6b9c0556a8815b79553c2001c9177bbe4c9", "blocktime": 1537876114, "version": 1, "confirmations": 11461, "time": 1537876114, "locktime": 542998, "vsize": 225, "size": 225}