{"hash": "ed6de4be2cc6896986eb6e8fe7cf424feb98f6351d4398cf7987a1a6e6f56327", "blockhash": "0000000000000000000e13cef7c366c0283d82e591d1acd082e914b08063cdf1", "vout": [{"scriptPubKey": {"reqSigs": 1, "hex": "76a91497a49b747c095534877de5b2a888edfc6c70bd4f88ac", "addresses": ["1EppE5YcXCK6YPzATfMeREyG6MU3LP76su"], "asm": "OP_DUP OP_HASH160 97a49b747c095534877de5b2a888edfc6c70bd4f OP_EQUALVERIFY OP_CHECKSIG", "type": "pubkeyhash"}, "value": 0.05, "n": 0}, {"scriptPubKey": {"reqSigs": 1, "hex": "76a9147ff6b6615b2312e78aece0534329988b551aec9a88ac", "addresses": ["1CfcNF3Y55YRJh2UpGwwD4kvXVdLQxbVNk"], "asm": "OP_DUP OP_HASH160 7ff6b6615b2312e78aece0534329988b551aec9a OP_EQUALVERIFY OP_CHECKSIG", "type": "pubkeyhash"}, "value": 0.43497052, "n": 1}], "hex": "0100000001c4fced48bacdeb9b2eabdf553c0cb5b5527b081971958c2f9c68a97358d30449010000006a47304402207ce8a99caf8679ea3fb5a274c2893a39c22c2e8ff368e8455f280153f4deb78402206c6b441763ad7d6820ff2804bf31d7307cb32b9c82461abd3527f1bea597f867012103d54b3064faf76f14c9b5372a19ac426d5c59f773fe9763731ab4e148b9139806ffffffff02404b4c00000000001976a91497a49b747c095534877de5b2a888edfc6c70bd4f88ac5cb69702000000001976a9147ff6b6615b2312e78aece0534329988b551aec9a88ac00000000", "vin": [{"sequence": 4294967295, "scriptSig": {"hex": "47304402207ce8a99caf8679ea3fb5a274c2893a39c22c2e8ff368e8455f280153f4deb78402206c6b441763ad7d6820ff2804bf31d7307cb32b9c82461abd3527f1bea597f867012103d54b3064faf76f14c9b5372a19ac426d5c59f773fe9763731ab4e148b9139806", "asm": "304402207ce8a99caf8679ea3fb5a274c2893a39c22c2e8ff368e8455f280153f4deb78402206c6b441763ad7d6820ff2804bf31d7307cb32b9c82461abd3527f1bea597f867[ALL] 03d54b3064faf76f14c9b5372a19ac426d5c59f773fe9763731ab4e148b9139806"}, "vout": 1, "txid": "4904d35873a9689c2f8c957119087b52b5b50c3c55dfab2e9bebcdba48edfcc4"}], "txid": "ed6de4be2cc6896986eb6e8fe7cf424feb98f6351d4398cf7987a1a6e6f56327", "blocktime": 1537871767, "version": 1, "confirmations": 11491, "time": 1537871767, "locktime": 0, "vsize": 225, "size": 225}