{"hash": "ed7482e13341918b958642a75c30a032206b91321582948303d05f59e708d050", "blockhash": "0000000000000000000e13cef7c366c0283d82e591d1acd082e914b08063cdf1", "vout": [{"scriptPubKey": {"reqSigs": 1, "hex": "76a9147d9cb4813fa5ece9feda05907e15ad0c831f14bc88ac", "addresses": ["1CTBC3K1GGF1mXcGNvyGKp3EPBVm2ff8PM"], "asm": "OP_DUP OP_HASH160 7d9cb4813fa5ece9feda05907e15ad0c831f14bc OP_EQUALVERIFY OP_CHECKSIG", "type": "pubkeyhash"}, "value": 0.0122812, "n": 0}, {"scriptPubKey": {"reqSigs": 1, "hex": "76a9149b2c8a665c58e24d46d0be5b0e8067e3d532de5a88ac", "addresses": ["1F9V6UHwVoGdWzSqExmJMuY8jYREmSmupz"], "asm": "OP_DUP OP_HASH160 9b2c8a665c58e24d46d0be5b0e8067e3d532de5a OP_EQUALVERIFY OP_CHECKSIG", "type": "pubkeyhash"}, "value": 0.01573652, "n": 1}, {"scriptPubKey": {"reqSigs": 1, "hex": "76a91448b61e787914fe820941e57d11c0e5cae5e5020588ac", "addresses": ["17dTpfV9BNYnHdJAdkP1foYFSfgfyE65qU"], "asm": "OP_DUP OP_HASH160 48b61e787914fe820941e57d11c0e5cae5e50205 OP_EQUALVERIFY OP_CHECKSIG", "type": "pubkeyhash"}, "value": 0.01904127, "n": 2}], "hex": "0100000001e29ba210662db4565819d48723b0040928632d6ff1867afc87dd8bb150205b72030000006a47304402206e0086e5d9a628c730f7f01e80966e92f465c34fc19473a7522828ca87588b5b022013d63914a90d61d5abf5220e9cb2cc3a350ecc04d6d29d57187074e02dbaace101210260cb094c44c11fa43acd140851783bbefff87bddc767cc1ff3b86a193af9de44feffffff0358bd1200000000001976a9147d9cb4813fa5ece9feda05907e15ad0c831f14bc88ac14031800000000001976a9149b2c8a665c58e24d46d0be5b0e8067e3d532de5a88acff0d1d00000000001976a91448b61e787914fe820941e57d11c0e5cae5e5020588ac0f490800", "vin": [{"sequence": 4294967294, "scriptSig": {"hex": "47304402206e0086e5d9a628c730f7f01e80966e92f465c34fc19473a7522828ca87588b5b022013d63914a90d61d5abf5220e9cb2cc3a350ecc04d6d29d57187074e02dbaace101210260cb094c44c11fa43acd140851783bbefff87bddc767cc1ff3b86a193af9de44", "asm": "304402206e0086e5d9a628c730f7f01e80966e92f465c34fc19473a7522828ca87588b5b022013d63914a90d61d5abf5220e9cb2cc3a350ecc04d6d29d57187074e02dbaace1[ALL] 0260cb094c44c11fa43acd140851783bbefff87bddc767cc1ff3b86a193af9de44"}, "vout": 3, "txid": "725b2050b18bdd87fc7a86f16f2d63280904b02387d4195856b42d6610a29be2"}], "txid": "ed7482e13341918b958642a75c30a032206b91321582948303d05f59e708d050", "blocktime": 1537871767, "version": 1, "confirmations": 11493, "time": 1537871767, "locktime": 542991, "vsize": 259, "size": 259}