{"hash": "30cb71e43a7c1cb2002a6a11ed7553fab83dd5efe97d0289d490e2e9e08f0efa", "blockhash": "0000000000000000001f76057863aec43deb6fa401d9628bb513d65a8098bfab", "vout": [{"scriptPubKey": {"reqSigs": 1, "hex": "a914050e03c66937c58e1b1c133c5ef05f42bdd02c7c87", "addresses": ["329k6GJC2E97T3mGbqbfc3fce4B56A28tV"], "asm": "OP_HASH160 050e03c66937c58e1b1c133c5ef05f42bdd02c7c OP_EQUAL", "type": "scripthash"}, "value": 0.01052997, "n": 0}, {"scriptPubKey": {"reqSigs": 1, "hex": "76a9142e1b944fe7ffbe969fc1df8d662fd7b5d6303c9b88ac", "addresses": ["15Co856cRnFRCKwSSzECoyT3ozVhuFoJZ6"], "asm": "OP_DUP OP_HASH160 2e1b944fe7ffbe969fc1df8d662fd7b5d6303c9b OP_EQUALVERIFY OP_CHECKSIG", "type": "pubkeyhash"}, "value": 0.00277018, "n": 1}], "hex": "020000000001024eb1b5d536d0deee5da7d9e5d6b076efa0ebb6e08df19f5f9884e073dc6138ce0000000017160014e4c38971ef719b15aacc57f0eb3158ffa2ae9df0feffffffdaeeba4f7e473e9046f05b9debecdd883118cbfba611aae920387c651df57088000000001716001492121dd7ab86e45ea1ec17e7ecc0c9aeabb60427feffffff02451110000000000017a914050e03c66937c58e1b1c133c5ef05f42bdd02c7c871a3a0400000000001976a9142e1b944fe7ffbe969fc1df8d662fd7b5d6303c9b88ac0247304402201262ce56c6c306bc195e0d00c6e7a2a470b5a3f2e56feeef23ef9e96b67509cf022004363e7476d22fafcdaf14617bdd7a3fa76748b1fb9001e39a0f402fa11f282a01210363bddabcc5f5ac17b38536686c4d41c36de3bacd1a3d2444c1a5e1f3c55dd0460247304402201a2b86880e45e923aab48ad97e2b2a59e11feec6c349930edb3cb5b513e49624022010b4c4173262c928405d8126b03e2b30af5e782fb1f8ce592eb941de442c1e760121028cbab2893ac2b238d8506217bd7857e521f7d049d22c233dfc484c96d89f335014490800", "vin": [{"txinwitness": ["304402201262ce56c6c306bc195e0d00c6e7a2a470b5a3f2e56feeef23ef9e96b67509cf022004363e7476d22fafcdaf14617bdd7a3fa76748b1fb9001e39a0f402fa11f282a01", "0363bddabcc5f5ac17b38536686c4d41c36de3bacd1a3d2444c1a5e1f3c55dd046"], "sequence": 4294967294, "scriptSig": {"hex": "160014e4c38971ef719b15aacc57f0eb3158ffa2ae9df0", "asm": "0014e4c38971ef719b15aacc57f0eb3158ffa2ae9df0"}, "vout": 0, "txid": "ce3861dc73e084985f9ff18de0b6eba0ef76b0d6e5d9a75deeded036d5b5b14e"}, {"txinwitness": ["304402201a2b86880e45e923aab48ad97e2b2a59e11feec6c349930edb3cb5b513e49624022010b4c4173262c928405d8126b03e2b30af5e782fb1f8ce592eb941de442c1e7601", "028cbab2893ac2b238d8506217bd7857e521f7d049d22c233dfc484c96d89f3350"], "sequence": 4294967294, "scriptSig": {"hex": "16001492121dd7ab86e45ea1ec17e7ecc0c9aeabb60427", "asm": "001492121dd7ab86e45ea1ec17e7ecc0c9aeabb60427"}, "vout": 0, "txid": "8870f51d657c3820e9aa11a6fbcb183188ddeceb9d5bf046903e477e4fbaeeda"}], "txid": "ed7db8747225dc544439f329951c86b9b3c033e56df918295ec329364f6c5ab4", "blocktime": 1537873891, "version": 2, "confirmations": 11478, "time": 1537873891, "locktime": 542996, "vsize": 258, "size": 420}