{"hash": "ed7e77ac4b066afcc49d9822c9f79d7b0e750ffb6eda882a8a25781425e3c92d", "blockhash": "0000000000000000001cda96e906b7601b7a6fb1a3b62bca570a9e5d8f4b3de1", "vout": [{"scriptPubKey": {"reqSigs": 1, "hex": "a914bbe5a4d8b5e5820a3d974bad90ecd7eafc39237d87", "addresses": ["3JpXPMcL268w5C9D1dyb5AJA18McNRS5QC"], "asm": "OP_HASH160 bbe5a4d8b5e5820a3d974bad90ecd7eafc39237d OP_EQUAL", "type": "scripthash"}, "value": 0.00539115, "n": 0}, {"scriptPubKey": {"reqSigs": 1, "hex": "76a9140ac6b8b2724f4c57bbb5c01b23910f7cf8863e2088ac", "addresses": ["1yypL3QFaWQu8mypeqPsDkgaah6wRyATF"], "asm": "OP_DUP OP_HASH160 0ac6b8b2724f4c57bbb5c01b23910f7cf8863e20 OP_EQUALVERIFY OP_CHECKSIG", "type": "pubkeyhash"}, "value": 8.854e-05, "n": 1}], "hex": "010000000297b4ad7971024db0f23057b2a2c6025a1d8cb596a1715ea3c9015a549c37438700000000da0047304402203cab594fca99d7037f3a60609921a916797a387f97168264993401016212e8e40220728be26bbb4d27207793bdee30e9523ac9309d9ac4a637d0e333c8785aa52eed01483045022100c00d50d0c2d31e3acfe2f50169b04795d343f247b284c202a388f810d56917fc02205ffc0d92983ede5563383c05caf395545840cafb01c0d0e73fe8fa73ddbc066c01475221028837d20da19402176a36a19035aa8c759ecdc14799a7723d1a836d36c107c2532102907a54bed8ad74b3f35638c60114ca240a308cb986f3f2f306178869a8880b6152aeffffffffa3386dbbf9ec72399e7e6c533901845d10405954d199419adee6c133af598028010000006a47304402204ef1846696748f49bca2afcaf83ac75391b41c1e3c88af0bbc5cd240dc537b62022060ef1d845e785ff39f7c5829926edf394a127b57bc761c3946e6353f3c500029012103b83a3dab053f1e140db4031aefc12d4d0b8fee360799a337bb3823437a294206ffffffff02eb3908000000000017a914bbe5a4d8b5e5820a3d974bad90ecd7eafc39237d8796220000000000001976a9140ac6b8b2724f4c57bbb5c01b23910f7cf8863e2088ac00000000", "vin": [{"sequence": 4294967295, "scriptSig": {"hex": "0047304402203cab594fca99d7037f3a60609921a916797a387f97168264993401016212e8e40220728be26bbb4d27207793bdee30e9523ac9309d9ac4a637d0e333c8785aa52eed01483045022100c00d50d0c2d31e3acfe2f50169b04795d343f247b284c202a388f810d56917fc02205ffc0d92983ede5563383c05caf395545840cafb01c0d0e73fe8fa73ddbc066c01475221028837d20da19402176a36a19035aa8c759ecdc14799a7723d1a836d36c107c2532102907a54bed8ad74b3f35638c60114ca240a308cb986f3f2f306178869a8880b6152ae", "asm": "0 304402203cab594fca99d7037f3a60609921a916797a387f97168264993401016212e8e40220728be26bbb4d27207793bdee30e9523ac9309d9ac4a637d0e333c8785aa52eed[ALL] 3045022100c00d50d0c2d31e3acfe2f50169b04795d343f247b284c202a388f810d56917fc02205ffc0d92983ede5563383c05caf395545840cafb01c0d0e73fe8fa73ddbc066c[ALL] 5221028837d20da19402176a36a19035aa8c759ecdc14799a7723d1a836d36c107c2532102907a54bed8ad74b3f35638c60114ca240a308cb986f3f2f306178869a8880b6152ae"}, "vout": 0, "txid": "8743379c545a01c9a35e71a196b58c1d5a02c6a2b25730f2b04d027179adb497"}, {"sequence": 4294967295, "scriptSig": {"hex": "47304402204ef1846696748f49bca2afcaf83ac75391b41c1e3c88af0bbc5cd240dc537b62022060ef1d845e785ff39f7c5829926edf394a127b57bc761c3946e6353f3c500029012103b83a3dab053f1e140db4031aefc12d4d0b8fee360799a337bb3823437a294206", "asm": "304402204ef1846696748f49bca2afcaf83ac75391b41c1e3c88af0bbc5cd240dc537b62022060ef1d845e785ff39f7c5829926edf394a127b57bc761c3946e6353f3c500029[ALL] 03b83a3dab053f1e140db4031aefc12d4d0b8fee360799a337bb3823437a294206"}, "vout": 1, "txid": "288059af33c1e6de9a4199d1545940105d840139536c7e9e3972ecf9bb6d38a3"}], "txid": "ed7e77ac4b066afcc49d9822c9f79d7b0e750ffb6eda882a8a25781425e3c92d", "blocktime": 1537873282, "version": 1, "confirmations": 11484, "time": 1537873282, "locktime": 0, "vsize": 482, "size": 482}