{"hash": "ed7ffef06fbc2d955f53cf4b6682e161bfdb045a0efef52e51379ba194f9b5f9", "blockhash": "0000000000000000000dcc0f55137456b1a82d3642486a52398922ac4d620174", "vout": [{"scriptPubKey": {"reqSigs": 1, "hex": "76a914d243e6abb9a60fbff430b421d2df4b7d59ec186088ac", "addresses": ["1LAnF8h3qMGx3TSwNUHVneBZUEpwE4gu3D"], "asm": "OP_DUP OP_HASH160 d243e6abb9a60fbff430b421d2df4b7d59ec1860 OP_EQUALVERIFY OP_CHECKSIG", "type": "pubkeyhash"}, "value": 0.00076972, "n": 0}, {"scriptPubKey": {"reqSigs": 1, "hex": "76a9143851f34d13937b673a7d24a1950bb5b21ce94af388ac", "addresses": ["168o1kqNquEJeR9vosUB5fw4eAwcVAgh8P"], "asm": "OP_DUP OP_HASH160 3851f34d13937b673a7d24a1950bb5b21ce94af3 OP_EQUALVERIFY OP_CHECKSIG", "type": "pubkeyhash"}, "value": 5.46e-06, "n": 1}, {"scriptPubKey": {"type": "nulldata", "hex": "6a146f6d6e69000000000000001f0000014d57f84d00", "asm": "OP_RETURN 6f6d6e69000000000000001f0000014d57f84d00"}, "value": 0.0, "n": 2}], "hex": "01000000022cfd4f0deb794220176423c0d727fd54e1f35a89866352e186116b41abbd648c020000006a47304402200189e372aa48fbfa5aa9a0b54b7afd7ca711c3f834cb3c40ba5544e0abcc6cde02202acbd85c892891b527112a7da96bef30f7df94bd5dbb96f15af542919f30a2cc01210249b2de9b6644112acfad775c166b85809512ef7b8769745ab0eb276d4183e611ffffffff320daf5597b1b43543376573f9ed29c8925b22ed97ca5bece9f889806c270a7f000000006b4830450221008e5bc21508fac5373d278d90cebe2088f89415913c3ebd68bb4f5ff39a7e6519022012a44ecd32230523a2489ad75b336f6f73fa2fcb10cc6e4611f26cae57e988be01210271977291b74f1f5f5c42157e8aae804664eaaeccfd097918450d37f28fb94d77ffffffff03ac2c0100000000001976a914d243e6abb9a60fbff430b421d2df4b7d59ec186088ac22020000000000001976a9143851f34d13937b673a7d24a1950bb5b21ce94af388ac0000000000000000166a146f6d6e69000000000000001f0000014d57f84d0000000000", "vin": [{"sequence": 4294967295, "scriptSig": {"hex": "47304402200189e372aa48fbfa5aa9a0b54b7afd7ca711c3f834cb3c40ba5544e0abcc6cde02202acbd85c892891b527112a7da96bef30f7df94bd5dbb96f15af542919f30a2cc01210249b2de9b6644112acfad775c166b85809512ef7b8769745ab0eb276d4183e611", "asm": "304402200189e372aa48fbfa5aa9a0b54b7afd7ca711c3f834cb3c40ba5544e0abcc6cde02202acbd85c892891b527112a7da96bef30f7df94bd5dbb96f15af542919f30a2cc[ALL] 0249b2de9b6644112acfad775c166b85809512ef7b8769745ab0eb276d4183e611"}, "vout": 2, "txid": "8c64bdab416b1186e1526386895af3e154fd27d7c0236417204279eb0d4ffd2c"}, {"sequence": 4294967295, "scriptSig": {"hex": "4830450221008e5bc21508fac5373d278d90cebe2088f89415913c3ebd68bb4f5ff39a7e6519022012a44ecd32230523a2489ad75b336f6f73fa2fcb10cc6e4611f26cae57e988be01210271977291b74f1f5f5c42157e8aae804664eaaeccfd097918450d37f28fb94d77", "asm": "30450221008e5bc21508fac5373d278d90cebe2088f89415913c3ebd68bb4f5ff39a7e6519022012a44ecd32230523a2489ad75b336f6f73fa2fcb10cc6e4611f26cae57e988be[ALL] 0271977291b74f1f5f5c42157e8aae804664eaaeccfd097918450d37f28fb94d77"}, "vout": 0, "txid": "7f0a276c8089f8e9ec5bca97ed225b92c829edf97365374335b4b19755af0d32"}], "txid": "ed7ffef06fbc2d955f53cf4b6682e161bfdb045a0efef52e51379ba194f9b5f9", "blocktime": 1537870268, "version": 1, "confirmations": 11516, "time": 1537870268, "locktime": 0, "vsize": 404, "size": 404}