{"hash": "ec50b0562b8b9754468717b056121a8a63be93b28ebc223f10adb7400b9e5001", "blockhash": "0000000000000000001e0dab787dd257d1dbfcb92a98c2207d5e1078be1f4165", "vout": [{"scriptPubKey": {"reqSigs": 1, "hex": "76a914a63ff060a3582d168906959b357902d8f93706ef88ac", "addresses": ["1GA3mQJGuMbGvGBrbg195ZbkDZkzjt2vkA"], "asm": "OP_DUP OP_HASH160 a63ff060a3582d168906959b357902d8f93706ef OP_EQUALVERIFY OP_CHECKSIG", "type": "pubkeyhash"}, "value": 1.857993, "n": 0}, {"scriptPubKey": {"reqSigs": 1, "hex": "a9147c641071c79aa66abdf36bbdb49ee8f08ced9deb87", "addresses": ["3D2jav4oVt81r6pcMKTZCQq7oQU69S6qcS"], "asm": "OP_HASH160 7c641071c79aa66abdf36bbdb49ee8f08ced9deb OP_EQUAL", "type": "scripthash"}, "value": 0.07733889, "n": 1}, {"scriptPubKey": {"reqSigs": 1, "hex": "76a914161364cb7e54596fe7deda4faf94e9ce2c98073988ac", "addresses": ["131j6imwrKEXgUgAYMYnEhSqD7wKNzX2CU"], "asm": "OP_DUP OP_HASH160 161364cb7e54596fe7deda4faf94e9ce2c980739 OP_EQUALVERIFY OP_CHECKSIG", "type": "pubkeyhash"}, "value": 0.18036717, "n": 2}, {"scriptPubKey": {"reqSigs": 1, "hex": "a9148872cb79ea71bcf809ec71d727fe82942a0daf3f87", "addresses": ["3E8VLiZ4HckzE2ibABmN3kJXQ8xjDwC83K"], "asm": "OP_HASH160 8872cb79ea71bcf809ec71d727fe82942a0daf3f OP_EQUAL", "type": "scripthash"}, "value": 0.01917133, "n": 3}, {"scriptPubKey": {"reqSigs": 1, "hex": "a914da563990c551e8d9ffeebeeee6c38baabbb73f7987", "addresses": ["3MbUXNVppcKbT3LLqhzDthzjZV9fHwi6WS"], "asm": "OP_HASH160 da563990c551e8d9ffeebeeee6c38baabbb73f79 OP_EQUAL", "type": "scripthash"}, "value": 0.03000041, "n": 4}], "hex": "01000000000104ee43c0f74192e7d26d4fbac95622a1af7f251b35432a3299cd914fc06a5b95aa080000002322002085d5306d724eb3fc783e8c5f86923a8fe20a5a3ad96a310b8734184e1ebe970100000000d800252f00909930c52c701d8b1e95db4552a1f5e19e7f244a76c2ac6869e71b0000000023220020bc86edb594904456f9720ceb3338dc411af25abd64c01cd2b17f172cdc1ea98400000000a76d63a58016bc615791599a96da2bfe49bc3e83577f0c1bf7c0be0c6d98b35f010000002322002062707492ea64e8ea590a267d61e2ac5d87091be1487e919942752f4eb5e4885b0000000026ed6cb15a1c25162242bd00966c2dd6c8b0444e3c2d244975eaf9f8c4a7300d3700000023220020df7b5af1a8ab27ae55bbb1cfb11e8e305ac0b1138fb5513e0f1f0a7e072c0b3d00000000058412130b000000001976a914a63ff060a3582d168906959b357902d8f93706ef88ac810276000000000017a9147c641071c79aa66abdf36bbdb49ee8f08ced9deb87ed371301000000001976a914161364cb7e54596fe7deda4faf94e9ce2c98073988accd401d000000000017a9148872cb79ea71bcf809ec71d727fe82942a0daf3f87e9c62d000000000017a914da563990c551e8d9ffeebeeee6c38baabbb73f79870400473044022029e711a5d583703bbf54cafe4809f74036bb7fe4f6105dfa6bdfb12386f0969a02206ccb7188823d8b447cfef35c383bfc9ef9b70a62738e7c7e7fbec35b924d1cc301473044022038cf78ed0396ee575299db6fff82264628eef757e261465ec59078792509a298022042db8bdc5296771ab620c4edceb727c9ce95a68e2a28e07607d8384918d9c568014752210244862be5773f0366757181eb30f0f93635e19048f7f8eb4e02b76f0053dd8dac2103ad30c0a68b4ad6e1922e875bdfa18308b684789668747601ce6543f2d6c2794f52ae0400483045022100f78fc0e7228664ca2b4e84d53a098c4d0b4ba47c63650ff93537857dcb2f0a9a0220692f791fc5230133d1d60b307ebc3452565c03c00417d57aaf79609c27cc94240147304402204d4f23f7397c5d3be3abd81779bd5bf356aad4601aef50e34561bd6d36e49f2402205d376cc52804ef95a32bc078cd75db2e1a25ae1516e9da7e8f697c105e7b343301475221024e2af30cd697616eeadeb6f9f9f4a9e3016e90b540cee55e1a3f3cd1a613f34f21031af7b045c14bb3ec23104d35fad50c9efce6d73d99af4fc90dcc0282cedc846f52ae0400483045022100a637eb02c3987e017b7917e2e68b8534928086172dbba83559d9b910614d67ea02201647039ef492ce1a2033fffa7b2c2d42527072dbeaf07a08193731f76f339d7c01483045022100c0b525e9ce9a5764c3b9bc6a98e19efa7672c92ba39bc55212c7573e006ef52b02207f0e74ead2b81a696e401c89d4bf66f6cedbef95485a5be515c41768c2cc6a5b014752210264d89e56de45a4e7ce5e9e6b317e322b569433db7bb2121a2cf6b30966d3039b210218af4e29aa3e09a8df279e23cb153b3e1f4fd12dba3b10201992feca2444ec2552ae040047304402206495e23f851b58a03f7a6a21167144140d079a15beb2bb3f6c576ad11aeedf1102207604bdb7933afca20cbfbf822e1109a6af392b758a3dcf5ec9408203d97cc9b10148304502210096486da869db44503b55315d25a889fbb531674ae1d692c168916672f3144ac202207147807fdc9289d552129065b03f4dfde9fc3f43ce22b0b7b15bd6ba6adb61d7014752210282fa41fa62fb5ece6097b04c04565afebe6d510bc546d6de86093b2d1d286b92210280c9e3d500e3406741343ca42aa498f5c554b5ee4afdc586e8c8552d83801c8e52ae00000000", "vin": [{"txinwitness": ["", "3044022029e711a5d583703bbf54cafe4809f74036bb7fe4f6105dfa6bdfb12386f0969a02206ccb7188823d8b447cfef35c383bfc9ef9b70a62738e7c7e7fbec35b924d1cc301", "3044022038cf78ed0396ee575299db6fff82264628eef757e261465ec59078792509a298022042db8bdc5296771ab620c4edceb727c9ce95a68e2a28e07607d8384918d9c56801", "52210244862be5773f0366757181eb30f0f93635e19048f7f8eb4e02b76f0053dd8dac2103ad30c0a68b4ad6e1922e875bdfa18308b684789668747601ce6543f2d6c2794f52ae"], "sequence": 0, "scriptSig": {"hex": "22002085d5306d724eb3fc783e8c5f86923a8fe20a5a3ad96a310b8734184e1ebe9701", "asm": "002085d5306d724eb3fc783e8c5f86923a8fe20a5a3ad96a310b8734184e1ebe9701"}, "vout": 8, "txid": "aa955b6ac04f91cd99322a43351b257fafa12256c9ba4f6dd2e79241f7c043ee"}, {"txinwitness": ["", "3045022100f78fc0e7228664ca2b4e84d53a098c4d0b4ba47c63650ff93537857dcb2f0a9a0220692f791fc5230133d1d60b307ebc3452565c03c00417d57aaf79609c27cc942401", "304402204d4f23f7397c5d3be3abd81779bd5bf356aad4601aef50e34561bd6d36e49f2402205d376cc52804ef95a32bc078cd75db2e1a25ae1516e9da7e8f697c105e7b343301", "5221024e2af30cd697616eeadeb6f9f9f4a9e3016e90b540cee55e1a3f3cd1a613f34f21031af7b045c14bb3ec23104d35fad50c9efce6d73d99af4fc90dcc0282cedc846f52ae"], "sequence": 0, "scriptSig": {"hex": "220020bc86edb594904456f9720ceb3338dc411af25abd64c01cd2b17f172cdc1ea984", "asm": "0020bc86edb594904456f9720ceb3338dc411af25abd64c01cd2b17f172cdc1ea984"}, "vout": 0, "txid": "1be76968acc2764a247f9ee1f5a15245db951e8b1d702cc5309990002f2500d8"}, {"txinwitness": ["", "3045022100a637eb02c3987e017b7917e2e68b8534928086172dbba83559d9b910614d67ea02201647039ef492ce1a2033fffa7b2c2d42527072dbeaf07a08193731f76f339d7c01", "3045022100c0b525e9ce9a5764c3b9bc6a98e19efa7672c92ba39bc55212c7573e006ef52b02207f0e74ead2b81a696e401c89d4bf66f6cedbef95485a5be515c41768c2cc6a5b01", "52210264d89e56de45a4e7ce5e9e6b317e322b569433db7bb2121a2cf6b30966d3039b210218af4e29aa3e09a8df279e23cb153b3e1f4fd12dba3b10201992feca2444ec2552ae"], "sequence": 0, "scriptSig": {"hex": "22002062707492ea64e8ea590a267d61e2ac5d87091be1487e919942752f4eb5e4885b", "asm": "002062707492ea64e8ea590a267d61e2ac5d87091be1487e919942752f4eb5e4885b"}, "vout": 1, "txid": "5fb3986d0cbec0f71b0c7f57833ebc49fe2bda969a59915761bc1680a5636da7"}, {"txinwitness": ["", "304402206495e23f851b58a03f7a6a21167144140d079a15beb2bb3f6c576ad11aeedf1102207604bdb7933afca20cbfbf822e1109a6af392b758a3dcf5ec9408203d97cc9b101", "304502210096486da869db44503b55315d25a889fbb531674ae1d692c168916672f3144ac202207147807fdc9289d552129065b03f4dfde9fc3f43ce22b0b7b15bd6ba6adb61d701", "52210282fa41fa62fb5ece6097b04c04565afebe6d510bc546d6de86093b2d1d286b92210280c9e3d500e3406741343ca42aa498f5c554b5ee4afdc586e8c8552d83801c8e52ae"], "sequence": 0, "scriptSig": {"hex": "220020df7b5af1a8ab27ae55bbb1cfb11e8e305ac0b1138fb5513e0f1f0a7e072c0b3d", "asm": "0020df7b5af1a8ab27ae55bbb1cfb11e8e305ac0b1138fb5513e0f1f0a7e072c0b3d"}, "vout": 55, "txid": "0d30a7c4f8f9ea7549242d3c4e44b0c8d62d6c9600bd422216251c5ab16ced26"}], "txid": "ed7fe4e2bed3288dc035d8eddc1973433e82e98fed208f0e5d6b4fa8e6b878e0", "blocktime": 1537872475, "version": 1, "confirmations": 11486, "time": 1537872475, "locktime": 0, "vsize": 698, "size": 1356}