{"hash": "c4b0c19775bec2101e619201daf7c84787724af1c2ef62e7c657b08c774b44dc", "blockhash": "0000000000000000000dcc0f55137456b1a82d3642486a52398922ac4d620174", "vout": [{"scriptPubKey": {"reqSigs": 1, "hex": "a9149b2c16e1293269c4c6117158ea57fe21cb9e3dd687", "addresses": ["3FqVUfHG2MFnDbubwBWZM8v61qVsCLukHw"], "asm": "OP_HASH160 9b2c16e1293269c4c6117158ea57fe21cb9e3dd6 OP_EQUAL", "type": "scripthash"}, "value": 0.00995095, "n": 0}, {"scriptPubKey": {"reqSigs": 1, "hex": "76a914fe3f09b8a03fd0b1fc0f1e63980aba82120e32e288ac", "addresses": ["1QBL9gSsk93RSbmoER4YDfghu6kspAw6A6"], "asm": "OP_DUP OP_HASH160 fe3f09b8a03fd0b1fc0f1e63980aba82120e32e2 OP_EQUALVERIFY OP_CHECKSIG", "type": "pubkeyhash"}, "value": 0.246212, "n": 1}], "hex": "020000000001051069a9b77f68ebc29f17606d84a9082c3084d52f4ef2285d007f08ab69f006c40300000017160014c90454bc192090197192a1e014c5f86cdd5c0a4ffeffffff3d82b8fc9b9f8670cbf121c1991a9ac1745b144b6bae3fce743aebf61e68810e010000001716001484756630238908c0307412a83ba09089a483ff5cfeffffff97aa0d23856d9a51e9501123c47e43ef52fa2762f4490e0dffad401d80ba65df0000000017160014ef0c236b46b8d255e308c3f85510966f8366ca94feffffff9d2373d36f57c8257f940807ded01ffb539f65eb55eb175b2d6e2f1904c9f1ab000000001716001426faf7756e212dbd97c02c36a139632bcd4693f0feffffffeed19879aae85f71c14a29424c428050c597d4162feb08e39f4cd85c08a4eb9e17000000171600147b2c5d9352106256478093b5e042d1807afa3710feffffff02172f0f000000000017a9149b2c16e1293269c4c6117158ea57fe21cb9e3dd68790b07701000000001976a914fe3f09b8a03fd0b1fc0f1e63980aba82120e32e288ac0247304402205fe2351fe7ffc87775b3984054b7d797bac0793a3475301c7674fc311b09850602201257af7ecff589d9de86e9a0db68e8d59afa9bb290ac4fce05def8396777615e0121032db5d0ca91ce461c2237ce9477557843d371d8684ab653061cb2797fab6a9cc402483045022100854158a6c07db358dc3a3248c3fdc57c251e11223a6ad5882221bdf075bcaf1602203a1f66a055479f2a46ca0bbdbdc5143656ee2ea85b3640bd407fe1bbe04fe738012102d7195623126d3a534e4243c21be00eab6063ed24660afa1b79803bde488e0f5002483045022100ff3d94480cdad7d565ed5e21118e4323fc6cde3703ba377a8c2e2573049aa32c02207094200c64c4eb23d5c836d1231bfd554731e33f2c91b597d34bd940cfc1125701210342f55ee4df354c301c465eacc6a90aa19c0ea0b9d5ceca3a164ceb0eda242de402483045022100f43e1874cc3c1fc822c16a8f0f4022114c593c051caeadedac6e9a38fd6da052022024f14ce77213cc4b100b2cf0cc8f90dc545b1777520afb9b2b54f575ef2ebbc00121038c34c6b6cad7502be02cfde57b075282205cecf2420cc7f129a96219acdba0ae024830450221009300d50b489ef3567aab3a00fdb8299763a13fa5cd10adea01bf3ac52bbfe581022022987db6d41d31a43fb55ab4d050596ec03003b0ab59645d0dab35b02a9aa955012103d06c05f29da4868cf9318e2103b41fc2be92d90bef3af668b336aaf7658e225a0c490800", "vin": [{"txinwitness": ["304402205fe2351fe7ffc87775b3984054b7d797bac0793a3475301c7674fc311b09850602201257af7ecff589d9de86e9a0db68e8d59afa9bb290ac4fce05def8396777615e01", "032db5d0ca91ce461c2237ce9477557843d371d8684ab653061cb2797fab6a9cc4"], "sequence": 4294967294, "scriptSig": {"hex": "160014c90454bc192090197192a1e014c5f86cdd5c0a4f", "asm": "0014c90454bc192090197192a1e014c5f86cdd5c0a4f"}, "vout": 3, "txid": "c406f069ab087f005d28f24e2fd584302c08a9846d60179fc2eb687fb7a96910"}, {"txinwitness": ["3045022100854158a6c07db358dc3a3248c3fdc57c251e11223a6ad5882221bdf075bcaf1602203a1f66a055479f2a46ca0bbdbdc5143656ee2ea85b3640bd407fe1bbe04fe73801", "02d7195623126d3a534e4243c21be00eab6063ed24660afa1b79803bde488e0f50"], "sequence": 4294967294, "scriptSig": {"hex": "16001484756630238908c0307412a83ba09089a483ff5c", "asm": "001484756630238908c0307412a83ba09089a483ff5c"}, "vout": 1, "txid": "0e81681ef6eb3a74ce3fae6b4b145b74c19a1a99c121f1cb70869f9bfcb8823d"}, {"txinwitness": ["3045022100ff3d94480cdad7d565ed5e21118e4323fc6cde3703ba377a8c2e2573049aa32c02207094200c64c4eb23d5c836d1231bfd554731e33f2c91b597d34bd940cfc1125701", "0342f55ee4df354c301c465eacc6a90aa19c0ea0b9d5ceca3a164ceb0eda242de4"], "sequence": 4294967294, "scriptSig": {"hex": "160014ef0c236b46b8d255e308c3f85510966f8366ca94", "asm": "0014ef0c236b46b8d255e308c3f85510966f8366ca94"}, "vout": 0, "txid": "df65ba801d40adff0d0e49f46227fa52ef437ec4231150e9519a6d85230daa97"}, {"txinwitness": ["3045022100f43e1874cc3c1fc822c16a8f0f4022114c593c051caeadedac6e9a38fd6da052022024f14ce77213cc4b100b2cf0cc8f90dc545b1777520afb9b2b54f575ef2ebbc001", "038c34c6b6cad7502be02cfde57b075282205cecf2420cc7f129a96219acdba0ae"], "sequence": 4294967294, "scriptSig": {"hex": "16001426faf7756e212dbd97c02c36a139632bcd4693f0", "asm": "001426faf7756e212dbd97c02c36a139632bcd4693f0"}, "vout": 0, "txid": "abf1c904192f6e2d5b17eb55eb659f53fb1fd0de0708947f25c8576fd373239d"}, {"txinwitness": ["30450221009300d50b489ef3567aab3a00fdb8299763a13fa5cd10adea01bf3ac52bbfe581022022987db6d41d31a43fb55ab4d050596ec03003b0ab59645d0dab35b02a9aa95501", "03d06c05f29da4868cf9318e2103b41fc2be92d90bef3af668b336aaf7658e225a"], "sequence": 4294967294, "scriptSig": {"hex": "1600147b2c5d9352106256478093b5e042d1807afa3710", "asm": "00147b2c5d9352106256478093b5e042d1807afa3710"}, "vout": 23, "txid": "9eeba4085cd84c9fe308eb2f16d497c55080424c42294ac1715fe8aa7998d1ee"}], "txid": "ed86b3a515145566530774e8c78b4bcba528a22855359f0fa5cc778feb6e5ce2", "blocktime": 1537870268, "version": 2, "confirmations": 11516, "time": 1537870268, "locktime": 542988, "vsize": 532, "size": 937}