{"hash": "ed8f0f42c8670295b1f6203a10a91a3e49eb17d911dd038ba1fce6244c5c3be3", "blockhash": "00000000000000000004ffacab907a6b429b9a5745fa0b75af4234bf69dd7176", "vout": [{"scriptPubKey": {"reqSigs": 1, "hex": "76a9144cf9c89c9e57c6804273815cd6817833efee5b0288ac", "addresses": ["1821arLdnjK2gkZUBoRDQuZuTwN1Zx577R"], "asm": "OP_DUP OP_HASH160 4cf9c89c9e57c6804273815cd6817833efee5b02 OP_EQUALVERIFY OP_CHECKSIG", "type": "pubkeyhash"}, "value": 0.1305703, "n": 0}, {"scriptPubKey": {"reqSigs": 1, "hex": "a91469f3757a597fd3f8e4cf33f96777fcb48ed0ae8387", "addresses": ["3BMEXWLwtwdMytccWW7o4w5Ba6Fm7JAxNt"], "asm": "OP_HASH160 69f3757a597fd3f8e4cf33f96777fcb48ed0ae83 OP_EQUAL", "type": "scripthash"}, "value": 0.25, "n": 1}], "hex": "0100000002ef03cc2485e8bc5bfd25bedbea4f009c70b36d4bfb8085d95cf62635eba26f01000000006b483045022100aed2eca5e3c2458f9b419cdeb9c64695b894c1c5694f62f75dbc078f0ed3147202203aeb45ba30e5cbfd031093670142776a7186de1246c068b2a4bed7c2346a03ef012103e8686f47ec53fb622bd335bdcfed73cda08793d5c8f6021b667c1288ee2bc575ffffffffca8253d1bf3bbc8b2ecaefe89abd8b1d9047f4c138afdd8f47eb924baff20ba8000000006b483045022100ffa54e5f81ec17185ce18a8396419107e208b40c40c90e7ac2ec3447ffeb59af022032726f5330969083aa9dc39f1e56d4aef43aef5bcd5a1f332608bb2e9235af3a0121025d7104ebb2221ad6aaf720cc2a168134b662c24bcbef380002eaa311e31e39e7ffffffff02063cc700000000001976a9144cf9c89c9e57c6804273815cd6817833efee5b0288ac40787d010000000017a91469f3757a597fd3f8e4cf33f96777fcb48ed0ae838700000000", "vin": [{"sequence": 4294967295, "scriptSig": {"hex": "483045022100aed2eca5e3c2458f9b419cdeb9c64695b894c1c5694f62f75dbc078f0ed3147202203aeb45ba30e5cbfd031093670142776a7186de1246c068b2a4bed7c2346a03ef012103e8686f47ec53fb622bd335bdcfed73cda08793d5c8f6021b667c1288ee2bc575", "asm": "3045022100aed2eca5e3c2458f9b419cdeb9c64695b894c1c5694f62f75dbc078f0ed3147202203aeb45ba30e5cbfd031093670142776a7186de1246c068b2a4bed7c2346a03ef[ALL] 03e8686f47ec53fb622bd335bdcfed73cda08793d5c8f6021b667c1288ee2bc575"}, "vout": 0, "txid": "016fa2eb3526f65cd98580fb4b6db3709c004feadbbe25fd5bbce88524cc03ef"}, {"sequence": 4294967295, "scriptSig": {"hex": "483045022100ffa54e5f81ec17185ce18a8396419107e208b40c40c90e7ac2ec3447ffeb59af022032726f5330969083aa9dc39f1e56d4aef43aef5bcd5a1f332608bb2e9235af3a0121025d7104ebb2221ad6aaf720cc2a168134b662c24bcbef380002eaa311e31e39e7", "asm": "3045022100ffa54e5f81ec17185ce18a8396419107e208b40c40c90e7ac2ec3447ffeb59af022032726f5330969083aa9dc39f1e56d4aef43aef5bcd5a1f332608bb2e9235af3a[ALL] 025d7104ebb2221ad6aaf720cc2a168134b662c24bcbef380002eaa311e31e39e7"}, "vout": 0, "txid": "a80bf2af4b92eb478fddaf38c1f447901d8bbd9ae8efca2e8bbc3bbfd15382ca"}], "txid": "ed8f0f42c8670295b1f6203a10a91a3e49eb17d911dd038ba1fce6244c5c3be3", "blocktime": 1537875543, "version": 1, "confirmations": 11464, "time": 1537875543, "locktime": 0, "vsize": 372, "size": 372}