{"hash": "d824cc1def72ac9238917bb2bd0223d2e587552b1ea6c89ed58af5fb3e8589f5", "blockhash": "00000000000000000017f5eb5941039fbcee6240d03bc1f2f8e35350df66a1d8", "vout": [{"scriptPubKey": {"reqSigs": 1, "hex": "76a914c04e299c7da441a93aba1e41438718777bd85a0f88ac", "addresses": ["1JXpNfHxhoRNTsWCn54vHPnCu1s2Xn6EDu"], "asm": "OP_DUP OP_HASH160 c04e299c7da441a93aba1e41438718777bd85a0f OP_EQUALVERIFY OP_CHECKSIG", "type": "pubkeyhash"}, "value": 0.03512062, "n": 0}, {"scriptPubKey": {"reqSigs": 1, "hex": "001440d4c59be377eccd005cb34f39be22cd1eb55ff2", "addresses": ["bc1qgr2vtxlrwlkv6qzukd8nn03ze50t2hljnqygg5"], "asm": "0 40d4c59be377eccd005cb34f39be22cd1eb55ff2", "type": "witness_v0_keyhash"}, "value": 0.46551668, "n": 1}], "hex": "010000000001019044cdaaf42353b9fa1fe82d52d4457457df6262801327473334d85e562d27250100000000ffffffff02fe963500000000001976a914c04e299c7da441a93aba1e41438718777bd85a0f88ac7452c6020000000016001440d4c59be377eccd005cb34f39be22cd1eb55ff202473044022009092c579eb04cd61bcbb6af43c969cea5d86672004fa48e578e4f3e6923501102200a248158c6e4a8511831f89961b1e52495bb0ad2d56aaf1053c6254d2a02d7c3012103d2830458bd9302e2288755f69c814d9193c2193ca02b80a115ca05c9b521e02400000000", "vin": [{"txinwitness": ["3044022009092c579eb04cd61bcbb6af43c969cea5d86672004fa48e578e4f3e6923501102200a248158c6e4a8511831f89961b1e52495bb0ad2d56aaf1053c6254d2a02d7c301", "03d2830458bd9302e2288755f69c814d9193c2193ca02b80a115ca05c9b521e024"], "sequence": 4294967295, "scriptSig": {"hex": "", "asm": ""}, "vout": 1, "txid": "25272d565ed83433472713806262df577445d4522de81ffab95323f4aacd4490"}], "txid": "ed9185b78ab614b1ecc4b6396ff50e720a3e864c4af7b6500aabe9946d0e0253", "blocktime": 1537874412, "version": 1, "confirmations": 11467, "time": 1537874412, "locktime": 0, "vsize": 144, "size": 225}