{"hash": "ed91e5e84a0e1564c3b971c0bec6672da40f8a33d97706dd774617298d134848", "blockhash": "0000000000000000001cda96e906b7601b7a6fb1a3b62bca570a9e5d8f4b3de1", "vout": [{"scriptPubKey": {"reqSigs": 1, "hex": "76a914689070a4dcf9d5f24bedf448268ea066c85bf46c88ac", "addresses": ["1AXtJpUjY5Qyb8axYFSZeKHcnvMhCss5GE"], "asm": "OP_DUP OP_HASH160 689070a4dcf9d5f24bedf448268ea066c85bf46c OP_EQUALVERIFY OP_CHECKSIG", "type": "pubkeyhash"}, "value": 0.0063952, "n": 0}, {"scriptPubKey": {"type": "nulldata", "hex": "6a4c50000077c00001a8d5c4afb0b3e76a456476e9e5bf9ae76da98a211aaf6c953dd567cf27e7ef0c3a598d6b9b511c001fb53e65150a5baa12ad061302a340cad96f1d100759d4ba30d2c37bb011d97e02cf", "asm": "OP_RETURN 000077c00001a8d5c4afb0b3e76a456476e9e5bf9ae76da98a211aaf6c953dd567cf27e7ef0c3a598d6b9b511c001fb53e65150a5baa12ad061302a340cad96f1d100759d4ba30d2c37bb011d97e02cf"}, "value": 0.0, "n": 1}], "hex": "0100000001fa223d59cfeeb001d980904a19ebbae749d9a0b154ad6051793030b2d3ad7060000000006b483045022100bcc941ff1e82a12b99187f2a543d90a7b55c442437c7f2b6c57a98771f0ae34d02207ea4e393f88435f4efffc3e2ba63820c7398257f002237f2a99521cb205041720121037d38e39b046b803fc95a8e05a737dbb7ccdf51dbceb5b6fe5351f2c63cead05fffffffff0220c20900000000001976a914689070a4dcf9d5f24bedf448268ea066c85bf46c88ac0000000000000000536a4c50000077c00001a8d5c4afb0b3e76a456476e9e5bf9ae76da98a211aaf6c953dd567cf27e7ef0c3a598d6b9b511c001fb53e65150a5baa12ad061302a340cad96f1d100759d4ba30d2c37bb011d97e02cf00000000", "vin": [{"sequence": 4294967295, "scriptSig": {"hex": "483045022100bcc941ff1e82a12b99187f2a543d90a7b55c442437c7f2b6c57a98771f0ae34d02207ea4e393f88435f4efffc3e2ba63820c7398257f002237f2a99521cb205041720121037d38e39b046b803fc95a8e05a737dbb7ccdf51dbceb5b6fe5351f2c63cead05f", "asm": "3045022100bcc941ff1e82a12b99187f2a543d90a7b55c442437c7f2b6c57a98771f0ae34d02207ea4e393f88435f4efffc3e2ba63820c7398257f002237f2a99521cb20504172[ALL] 037d38e39b046b803fc95a8e05a737dbb7ccdf51dbceb5b6fe5351f2c63cead05f"}, "vout": 0, "txid": "6070add3b23030795160ad54b1a0d949e7baeb194a9080d901b0eecf593d22fa"}], "txid": "ed91e5e84a0e1564c3b971c0bec6672da40f8a33d97706dd774617298d134848", "blocktime": 1537873282, "version": 1, "confirmations": 11484, "time": 1537873282, "locktime": 0, "vsize": 284, "size": 284}