{"hash": "ed99dcc461b86f20cd8cb6667c858a37c3c3b8963ef38a94156d6c4c56d03c2d", "blockhash": "0000000000000000001cda96e906b7601b7a6fb1a3b62bca570a9e5d8f4b3de1", "vout": [{"scriptPubKey": {"reqSigs": 1, "hex": "a914d731f2d1f90f6de327bc9ddd9494d10d659e6c5087", "addresses": ["3MJs3Gg6D4ByqZYZEGNATZxWVqgwVxm3X9"], "asm": "OP_HASH160 d731f2d1f90f6de327bc9ddd9494d10d659e6c50 OP_EQUAL", "type": "scripthash"}, "value": 0.0032066, "n": 0}, {"scriptPubKey": {"reqSigs": 1, "hex": "76a914b7da4659035ad9ff6e5224f93190f13aeb4379fd88ac", "addresses": ["1Hm8971gmPHGjAsGZypv5uxc7kpRYHcyL5"], "asm": "OP_DUP OP_HASH160 b7da4659035ad9ff6e5224f93190f13aeb4379fd OP_EQUALVERIFY OP_CHECKSIG", "type": "pubkeyhash"}, "value": 0.05679636, "n": 1}], "hex": "0100000001c6f25708482b6a0e6b6dc5ad3d9b9cb5fd331277fd0073b78c637bf520d792f2010000006a47304402202802080cb02463cda1e683d5c8e75324db39a1c346d2a2da0cdcaae4bb2694c602207d6bbfd42ea2619fe59769e6f26944919427b28200800db241aa70ff5449418701210353d736454b13033f4a934ea562361cfbdb7682f0c45ec0b8d7f77ebd5a0c7168ffffffff0294e404000000000017a914d731f2d1f90f6de327bc9ddd9494d10d659e6c508714aa5600000000001976a914b7da4659035ad9ff6e5224f93190f13aeb4379fd88ac00000000", "vin": [{"sequence": 4294967295, "scriptSig": {"hex": "47304402202802080cb02463cda1e683d5c8e75324db39a1c346d2a2da0cdcaae4bb2694c602207d6bbfd42ea2619fe59769e6f26944919427b28200800db241aa70ff5449418701210353d736454b13033f4a934ea562361cfbdb7682f0c45ec0b8d7f77ebd5a0c7168", "asm": "304402202802080cb02463cda1e683d5c8e75324db39a1c346d2a2da0cdcaae4bb2694c602207d6bbfd42ea2619fe59769e6f26944919427b28200800db241aa70ff54494187[ALL] 0353d736454b13033f4a934ea562361cfbdb7682f0c45ec0b8d7f77ebd5a0c7168"}, "vout": 1, "txid": "f292d720f57b638cb77300fd771233fdb59c9b3dadc56d6b0e6a2b480857f2c6"}], "txid": "ed99dcc461b86f20cd8cb6667c858a37c3c3b8963ef38a94156d6c4c56d03c2d", "blocktime": 1537873282, "version": 1, "confirmations": 11484, "time": 1537873282, "locktime": 0, "vsize": 223, "size": 223}