{"hash": "dc724030e6fd7649834c1c92779581c781a7ad072e03fc11f65919a26c82151f", "blockhash": "00000000000000000018f53835495a110e01622372bf6ae95dc86f2b0ab887b0", "vout": [{"scriptPubKey": {"reqSigs": 1, "hex": "a91482e7e273ec4e0dff2590e50d5fec2ebc665cd1f787", "addresses": ["3DdBZ734DjaqBf29PvjxWv9mvU6VaQEs8H"], "asm": "OP_HASH160 82e7e273ec4e0dff2590e50d5fec2ebc665cd1f7 OP_EQUAL", "type": "scripthash"}, "value": 1.54766614, "n": 0}, {"scriptPubKey": {"reqSigs": 1, "hex": "76a91484bacb83cbee9e421ea83f192e27191328ec00c488ac", "addresses": ["1D6oy4jTUyXE16rzfzHmBEr5uJoBz84KVh"], "asm": "OP_DUP OP_HASH160 84bacb83cbee9e421ea83f192e27191328ec00c4 OP_EQUALVERIFY OP_CHECKSIG", "type": "pubkeyhash"}, "value": 0.04, "n": 1}, {"scriptPubKey": {"reqSigs": 1, "hex": "76a9149317fe68dacd386d2130d8dc7a8090efb95e84e988ac", "addresses": ["1EQm5KNDLhayACgP7uFkg5PAbMegFbsZjk"], "asm": "OP_DUP OP_HASH160 9317fe68dacd386d2130d8dc7a8090efb95e84e9 OP_EQUALVERIFY OP_CHECKSIG", "type": "pubkeyhash"}, "value": 0.12356989, "n": 2}, {"scriptPubKey": {"reqSigs": 1, "hex": "a914927ed154af2c066f8b277805520194e86ab5919b87", "addresses": ["3F3cVzuRBQDpxTYpkhwL1M15tHq9MidZcL"], "asm": "OP_HASH160 927ed154af2c066f8b277805520194e86ab5919b OP_EQUAL", "type": "scripthash"}, "value": 0.13780262, "n": 3}], "hex": "01000000000105fdb0857b5d546e20cd05e65f626531d143904a1a2a710ea9cea3284a4f1c44ea0000000023220020788d85b0a37c2af9d62b1c3e5580794fc27b90f01f1f153f3e2dd6c889b26dc7ffffffffbc258a88dc674bdda5f3aaf9e823a80240244b2462bd08c0485cecdab06816670000000023220020e4ab2cf03cb247638721f97619fd036710f4d5cc2293047c8348ed4bec1e5aaeffffffff0db0e8fd7cb211fc8cd8750582033c617c610eabdd05ab3e3b1e785c7e7ecd4300000000232200200a331919de548a7c52436d32e4e756eda2cf71bff8a81ea14abff2810a49656cffffffff086c543f5adc06b3115260bec67e0596fe8abcdadf7d901078d3e2314f1f54220000000023220020f6848e8de82b6d3109d5b5d8ed19c209eafbc82d5ca2c43445e9c553285cba4fffffffffc3df502036e452748a23bac1b561bc5fe9a71df987ee7be62449d26bfdc945890000000023220020396e410c1f0faa6cf44962c0624cd22732a29701c600c1d906e0db9f939fa239ffffffff04168d39090000000017a91482e7e273ec4e0dff2590e50d5fec2ebc665cd1f78700093d00000000001976a91484bacb83cbee9e421ea83f192e27191328ec00c488ac7d8dbc00000000001976a9149317fe68dacd386d2130d8dc7a8090efb95e84e988ac2645d2000000000017a914927ed154af2c066f8b277805520194e86ab5919b870347304402204f23905d45d943fafb62aa744244ee4711e4cdf210833dc16fbdea66933f6a9902201e0238adf19c7663cc8a0a19783b82105c014ca480c22f83983ab6863b8b155601210228ed4928fc783413c2f5890e383342cdc61da7199d8eab733d61152707f45f7e1976a914bc370bbba3e121743804aa05536b0d5cead138d388ac034830450221008e271b6d77ede064e85d1f311f3abcd80b936cdc4a043a3f538367272ee92a1102200c1dee2205433f1e7656c93084c4876c4b2ace8622dce802fdcb0f9d0c3dc38e01210262c082a9add58eb5323ed62c550dd7dbd5d6b4ff896db8815c5b06e5455a50811976a914296abe9a12d7e90f83d8cf168251a882ed54878988ac03483045022100d0af303a847bdb31d997d97a56ef8efbc3d85da4cf073f426aa3ff6ddabdebd10220447181eeb985a41859f2c017d26774a9d9fbed5965cb6c21d47d16c6bfb83d80012102f6ac23bb55c76e136f5b31141c313ea99291e43bf5118cd86ba93874f67253051976a9144b09860f056a645dcd8ce404077d7f14d0b3f82e88ac03483045022100ea489e3d58996aca1883f86ab0d2e1a45d85c78610e1a89631031593b06ec4e702203eca1b1311305defb07b613ab1f04b91fc841708d8c54b3704f5dcda312d4c55012102187bd8a4f5ae69cb7bb34da09c11b2b7e97482c05da44d49346977b94f8ac2971976a9145f31dd962962a6b987dc91f90814b2de0f92bdf588ac034830450221008e6c623b474c153e3caff2483615a5b5c4fb616909e1416fb9c7fb518eb80eda022049998c044bf911ea6d0f6459955514243a05e8124b138584d0eb7c14871e3385012102d941dfddbc2339802d015e0777dc30cd416ff591acd587c3e34824c6583b4dac1976a914d1cd43434d93559101682b017ed06e55a1c7119e88ac00000000", "vin": [{"txinwitness": ["304402204f23905d45d943fafb62aa744244ee4711e4cdf210833dc16fbdea66933f6a9902201e0238adf19c7663cc8a0a19783b82105c014ca480c22f83983ab6863b8b155601", "0228ed4928fc783413c2f5890e383342cdc61da7199d8eab733d61152707f45f7e", "76a914bc370bbba3e121743804aa05536b0d5cead138d388ac"], "sequence": 4294967295, "scriptSig": {"hex": "220020788d85b0a37c2af9d62b1c3e5580794fc27b90f01f1f153f3e2dd6c889b26dc7", "asm": "0020788d85b0a37c2af9d62b1c3e5580794fc27b90f01f1f153f3e2dd6c889b26dc7"}, "vout": 0, "txid": "ea441c4f4a28a3cea90e712a1a4a9043d13165625fe605cd206e545d7b85b0fd"}, {"txinwitness": ["30450221008e271b6d77ede064e85d1f311f3abcd80b936cdc4a043a3f538367272ee92a1102200c1dee2205433f1e7656c93084c4876c4b2ace8622dce802fdcb0f9d0c3dc38e01", "0262c082a9add58eb5323ed62c550dd7dbd5d6b4ff896db8815c5b06e5455a5081", "76a914296abe9a12d7e90f83d8cf168251a882ed54878988ac"], "sequence": 4294967295, "scriptSig": {"hex": "220020e4ab2cf03cb247638721f97619fd036710f4d5cc2293047c8348ed4bec1e5aae", "asm": "0020e4ab2cf03cb247638721f97619fd036710f4d5cc2293047c8348ed4bec1e5aae"}, "vout": 0, "txid": "671668b0daec5c48c008bd62244b244002a823e8f9aaf3a5dd4b67dc888a25bc"}, {"txinwitness": ["3045022100d0af303a847bdb31d997d97a56ef8efbc3d85da4cf073f426aa3ff6ddabdebd10220447181eeb985a41859f2c017d26774a9d9fbed5965cb6c21d47d16c6bfb83d8001", "02f6ac23bb55c76e136f5b31141c313ea99291e43bf5118cd86ba93874f6725305", "76a9144b09860f056a645dcd8ce404077d7f14d0b3f82e88ac"], "sequence": 4294967295, "scriptSig": {"hex": "2200200a331919de548a7c52436d32e4e756eda2cf71bff8a81ea14abff2810a49656c", "asm": "00200a331919de548a7c52436d32e4e756eda2cf71bff8a81ea14abff2810a49656c"}, "vout": 0, "txid": "43cd7e7e5c781e3b3eab05ddab0e617c613c03820575d88cfc11b27cfde8b00d"}, {"txinwitness": ["3045022100ea489e3d58996aca1883f86ab0d2e1a45d85c78610e1a89631031593b06ec4e702203eca1b1311305defb07b613ab1f04b91fc841708d8c54b3704f5dcda312d4c5501", "02187bd8a4f5ae69cb7bb34da09c11b2b7e97482c05da44d49346977b94f8ac297", "76a9145f31dd962962a6b987dc91f90814b2de0f92bdf588ac"], "sequence": 4294967295, "scriptSig": {"hex": "220020f6848e8de82b6d3109d5b5d8ed19c209eafbc82d5ca2c43445e9c553285cba4f", "asm": "0020f6848e8de82b6d3109d5b5d8ed19c209eafbc82d5ca2c43445e9c553285cba4f"}, "vout": 0, "txid": "22541f4f31e2d37810907ddfdabc8afe96057ec6be605211b306dc5a3f546c08"}, {"txinwitness": ["30450221008e6c623b474c153e3caff2483615a5b5c4fb616909e1416fb9c7fb518eb80eda022049998c044bf911ea6d0f6459955514243a05e8124b138584d0eb7c14871e338501", "02d941dfddbc2339802d015e0777dc30cd416ff591acd587c3e34824c6583b4dac", "76a914d1cd43434d93559101682b017ed06e55a1c7119e88ac"], "sequence": 4294967295, "scriptSig": {"hex": "220020396e410c1f0faa6cf44962c0624cd22732a29701c600c1d906e0db9f939fa239", "asm": "0020396e410c1f0faa6cf44962c0624cd22732a29701c600c1d906e0db9f939fa239"}, "vout": 0, "txid": "8945c9fd6bd24924e67bee87f91da7e95fbc61b5c1ba238a7452e4362050dfc3"}], "txid": "ed9e05dccb71d27c75a101bbe083e0a1dadaf4613da20e18d37c8c9027c86c44", "blocktime": 1537870928, "version": 1, "confirmations": 11512, "time": 1537870928, "locktime": 0, "vsize": 690, "size": 1193}