{"hash": "116195fb7df3e1bb9453f9a5752d2ecea5fd913d1349d8a0ed581f15f8b0b9a8", "blockhash": "0000000000000000001e0dab787dd257d1dbfcb92a98c2207d5e1078be1f4165", "vout": [{"scriptPubKey": {"reqSigs": 1, "hex": "76a914407021a5819566d0e3548b22d49dd0631b42f40488ac", "addresses": ["16siaJj4J4hwsi8Wdoz6aZ598XaWs9AF8k"], "asm": "OP_DUP OP_HASH160 407021a5819566d0e3548b22d49dd0631b42f404 OP_EQUALVERIFY OP_CHECKSIG", "type": "pubkeyhash"}, "value": 0.00030492, "n": 0}, {"scriptPubKey": {"reqSigs": 1, "hex": "a9140136c10502ae5684e49b302f1af10f145f74b6b787", "addresses": ["31oSC7GvQMTZoouyNLBEHVRDhXEFbVhSmh"], "asm": "OP_HASH160 0136c10502ae5684e49b302f1af10f145f74b6b7 OP_EQUAL", "type": "scripthash"}, "value": 0.10150141, "n": 1}], "hex": "010000000001014ee57a57a09cd6e4390f6967fc52e14ac3f2dd6ea70f9f6101b378e4f32f09fa0100000023220020efd02f10cc1074c68ec89b458572a71ce6bfc8a17595d8fde80232e47279444bffffffff021c770000000000001976a914407021a5819566d0e3548b22d49dd0631b42f40488acfde09a000000000017a9140136c10502ae5684e49b302f1af10f145f74b6b7870400473044022039b02127a6811b635ad9277fa9def1754b3daaa1434c4babcd1d01fc006ba0b7022079af7f8b1d2e289da0fea5447442fb6b5ef83cc85e3bc2336015d09f716117910147304402201cfcb6ba081158f883c7adf36ee054d7436deb24c28c7711c00a837508996c200220689c293931a75d21d433e81a38ad03fe02906857c9a366c280b2611fca3c6ed20147522103f985ea61f461801f3abc09ebed98ce7e20804639a64616f639f492883ea4e8d62103871fc2ca08e6950b38867e8e6a0e94ee625223d3aa0df5c65f414c6d784467e252ae00000000", "vin": [{"txinwitness": ["", "3044022039b02127a6811b635ad9277fa9def1754b3daaa1434c4babcd1d01fc006ba0b7022079af7f8b1d2e289da0fea5447442fb6b5ef83cc85e3bc2336015d09f7161179101", "304402201cfcb6ba081158f883c7adf36ee054d7436deb24c28c7711c00a837508996c200220689c293931a75d21d433e81a38ad03fe02906857c9a366c280b2611fca3c6ed201", "522103f985ea61f461801f3abc09ebed98ce7e20804639a64616f639f492883ea4e8d62103871fc2ca08e6950b38867e8e6a0e94ee625223d3aa0df5c65f414c6d784467e252ae"], "sequence": 4294967295, "scriptSig": {"hex": "220020efd02f10cc1074c68ec89b458572a71ce6bfc8a17595d8fde80232e47279444b", "asm": "0020efd02f10cc1074c68ec89b458572a71ce6bfc8a17595d8fde80232e47279444b"}, "vout": 1, "txid": "fa092ff3e478b301619f0fa76eddf2c34ae152fc67690f39e4d69ca0577ae54e"}], "txid": "eda44b701014faf0716ddc2e7266156e5455d92499a7f3db45f41f09b3313fdb", "blocktime": 1537872475, "version": 1, "confirmations": 11487, "time": 1537872475, "locktime": 0, "vsize": 207, "size": 372}