{"hash": "23f3fdf2a1d7212a175356668bcafb555cf5bd88e04c162c901494b0c9ff6821", "blockhash": "0000000000000000000dcc0f55137456b1a82d3642486a52398922ac4d620174", "vout": [{"scriptPubKey": {"reqSigs": 1, "hex": "76a914dc58e8c61087184a4a6344b6fd5d87eeb8a4859f88ac", "addresses": ["1M66AjBPV4XUK2nC1HQCRJ9qyaUtounKRm"], "asm": "OP_DUP OP_HASH160 dc58e8c61087184a4a6344b6fd5d87eeb8a4859f OP_EQUALVERIFY OP_CHECKSIG", "type": "pubkeyhash"}, "value": 0.00459, "n": 0}, {"scriptPubKey": {"reqSigs": 1, "hex": "a914861466b99604b0fa221965c227abc771b285900e87", "addresses": ["3DuxukgxJbdAmV3zhrzVkwbLDkCFWnc5M1"], "asm": "OP_HASH160 861466b99604b0fa221965c227abc771b285900e OP_EQUAL", "type": "scripthash"}, "value": 0.00363049, "n": 1}], "hex": "01000000000102845dd05665ec1051b5ce27e266ed8d3b7ba891dc2cbffeb54a39abf066e4d1430100000023220020f92c0c040dd9cab81b9688432c385ed847c2a4a24bc7a63589a447a648a6d011ffffffffeccef872c7c5506727fef7e0d5a411384a53990c596e238905fcd3952cef714500000000fc00473044022002a0960bf14e20c8229784845b39e852d3f60d4597b449f0fe12132f529f994d02202e5c0be5b5d4ab5cd22b4318bb4225ca7e1d8b3e2b289e070ba70e198def720e01473044022032805a34a552d3654b033c138a64cbd9cf237ac215ef3f6255804368c8b0a2340220747202bfb74db42202920a00f5ea8fcf20e32b0bc90bef738f7e7130d69438a7014c695221025edaca6f19b19c1668b627620a4a79295c707f1ca4c4928d45dbcf358bb9e2bf21033e5b34698b61b8ae331cafb3686c6e6fcaf690bb4a9939805cc3522a839810bf2103fc79a4a5eedcdbabc8e3c141913464e34f5e5d2ebebe8337eafe579f9e2e106f53aeffffffff02f8000700000000001976a914dc58e8c61087184a4a6344b6fd5d87eeb8a4859f88ac298a05000000000017a914861466b99604b0fa221965c227abc771b285900e8704004730440220251036cd215da3764a19e8e3b499ac2b93af71a122ddbe53d1c20d4a2e1e1e2802206756fc5ceb045c7beedb0922e5f692dcef52955ecf5be19ef49bf139d2b3a30b01483045022100f17dc1653fb10af3ed1a16afa316404802cfc56a0e09e86a39e4e3cbbbdecc6f0220054181620b8c6362046c76c572ce626f58fa5697dc024785e88eb2319924a04801695221028938d9d1ecb632ac29bf222caaf2e63e8dac1b34c935d2762a3305fcd64dcda921036d4dbed41e6652fb4ebfff9673236b5811e777899b5ab552aa344923b5b54add210396c9ca904775742894a757573c7a4b7e27bea9a2139445e2af65f90e73a7f46d53ae0000000000", "vin": [{"txinwitness": ["", "30440220251036cd215da3764a19e8e3b499ac2b93af71a122ddbe53d1c20d4a2e1e1e2802206756fc5ceb045c7beedb0922e5f692dcef52955ecf5be19ef49bf139d2b3a30b01", "3045022100f17dc1653fb10af3ed1a16afa316404802cfc56a0e09e86a39e4e3cbbbdecc6f0220054181620b8c6362046c76c572ce626f58fa5697dc024785e88eb2319924a04801", "5221028938d9d1ecb632ac29bf222caaf2e63e8dac1b34c935d2762a3305fcd64dcda921036d4dbed41e6652fb4ebfff9673236b5811e777899b5ab552aa344923b5b54add210396c9ca904775742894a757573c7a4b7e27bea9a2139445e2af65f90e73a7f46d53ae"], "sequence": 4294967295, "scriptSig": {"hex": "220020f92c0c040dd9cab81b9688432c385ed847c2a4a24bc7a63589a447a648a6d011", "asm": "0020f92c0c040dd9cab81b9688432c385ed847c2a4a24bc7a63589a447a648a6d011"}, "vout": 1, "txid": "43d1e466f0ab394ab5febf2cdc91a87b3b8ded66e227ceb55110ec6556d05d84"}, {"sequence": 4294967295, "scriptSig": {"hex": "00473044022002a0960bf14e20c8229784845b39e852d3f60d4597b449f0fe12132f529f994d02202e5c0be5b5d4ab5cd22b4318bb4225ca7e1d8b3e2b289e070ba70e198def720e01473044022032805a34a552d3654b033c138a64cbd9cf237ac215ef3f6255804368c8b0a2340220747202bfb74db42202920a00f5ea8fcf20e32b0bc90bef738f7e7130d69438a7014c695221025edaca6f19b19c1668b627620a4a79295c707f1ca4c4928d45dbcf358bb9e2bf21033e5b34698b61b8ae331cafb3686c6e6fcaf690bb4a9939805cc3522a839810bf2103fc79a4a5eedcdbabc8e3c141913464e34f5e5d2ebebe8337eafe579f9e2e106f53ae", "asm": "0 3044022002a0960bf14e20c8229784845b39e852d3f60d4597b449f0fe12132f529f994d02202e5c0be5b5d4ab5cd22b4318bb4225ca7e1d8b3e2b289e070ba70e198def720e[ALL] 3044022032805a34a552d3654b033c138a64cbd9cf237ac215ef3f6255804368c8b0a2340220747202bfb74db42202920a00f5ea8fcf20e32b0bc90bef738f7e7130d69438a7[ALL] 5221025edaca6f19b19c1668b627620a4a79295c707f1ca4c4928d45dbcf358bb9e2bf21033e5b34698b61b8ae331cafb3686c6e6fcaf690bb4a9939805cc3522a839810bf2103fc79a4a5eedcdbabc8e3c141913464e34f5e5d2ebebe8337eafe579f9e2e106f53ae"}, "vout": 0, "txid": "4571ef2c95d3fc0589236e590c99534a3811a4d5e0f7fe276750c5c772f8ceec"}], "txid": "eda4a04bfd5a0b449ccec4c780f587a36525af5429c14f76b58c42e6ac00e6ea", "blocktime": 1537870268, "version": 1, "confirmations": 11518, "time": 1537870268, "locktime": 0, "vsize": 509, "size": 701}