{"hash": "edacc47a54cb27131a206b31569e9199ef8bd073150d55f8f61ecf178a2b13ea", "blockhash": "0000000000000000001cda96e906b7601b7a6fb1a3b62bca570a9e5d8f4b3de1", "vout": [{"scriptPubKey": {"reqSigs": 1, "hex": "76a91431db2d7d526e66cc95b12439f1627eead562031a88ac", "addresses": ["15Ycg8hnVGDkPskyzDFRZN6AsxFCUAUcPw"], "asm": "OP_DUP OP_HASH160 31db2d7d526e66cc95b12439f1627eead562031a OP_EQUALVERIFY OP_CHECKSIG", "type": "pubkeyhash"}, "value": 0.00207647, "n": 0}], "hex": "0100000001cd4a7095c526d00274ee1e5cf48d91a4a8ade9b256e06b47a3043f13e8df3f17010000006a473044022058c51f2e420b610d4049b548da3202600ccdab08a3b2026aa44fafa3db698b1b02207c5986a535782e8f455a50c6111e93326ac6b4360d2dd633d7d8ac743936cf2f01210316cf01eceba5c0af1e2611a4bb28b20e8e578a47bd3b7f41226f6456b25e43dbffffffff011f2b0300000000001976a91431db2d7d526e66cc95b12439f1627eead562031a88ac00000000", "vin": [{"sequence": 4294967295, "scriptSig": {"hex": "473044022058c51f2e420b610d4049b548da3202600ccdab08a3b2026aa44fafa3db698b1b02207c5986a535782e8f455a50c6111e93326ac6b4360d2dd633d7d8ac743936cf2f01210316cf01eceba5c0af1e2611a4bb28b20e8e578a47bd3b7f41226f6456b25e43db", "asm": "3044022058c51f2e420b610d4049b548da3202600ccdab08a3b2026aa44fafa3db698b1b02207c5986a535782e8f455a50c6111e93326ac6b4360d2dd633d7d8ac743936cf2f[ALL] 0316cf01eceba5c0af1e2611a4bb28b20e8e578a47bd3b7f41226f6456b25e43db"}, "vout": 1, "txid": "173fdfe8133f04a3476be056b2e9ada8a4918df45c1eee7402d026c595704acd"}], "txid": "edacc47a54cb27131a206b31569e9199ef8bd073150d55f8f61ecf178a2b13ea", "blocktime": 1537873282, "version": 1, "confirmations": 11484, "time": 1537873282, "locktime": 0, "vsize": 191, "size": 191}