{"hash": "14057ed688fbf8cb9d1145c053a92bd18f0d3fe0703fe8e6cd504585dbffcb69", "blockhash": "0000000000000000001cda96e906b7601b7a6fb1a3b62bca570a9e5d8f4b3de1", "vout": [{"scriptPubKey": {"reqSigs": 1, "hex": "76a91413dd1cfdfa3080c034b9c8ab07fbe3cb1cd1628d88ac", "addresses": ["12p2is3Hu5NVXSQJY9fMWoPHPgXXN92Sya"], "asm": "OP_DUP OP_HASH160 13dd1cfdfa3080c034b9c8ab07fbe3cb1cd1628d OP_EQUALVERIFY OP_CHECKSIG", "type": "pubkeyhash"}, "value": 0.00086412, "n": 0}], "hex": "0100000000010196b647743019f80dfcdbb6fcd929b23e4df2627c99eb06ff2a28619cbd291b650100000017160014c3b046f8c02ed29bfef78661b3cc97dcab48decbffffffff018c510100000000001976a91413dd1cfdfa3080c034b9c8ab07fbe3cb1cd1628d88ac0247304402207266cd39d67a1b23b783b96d30ce9986bb896ccd1b17cedf33395e9fa30f53930220733f4e21d7512a7e5ecd05c254ae8db82d7e82f56f52eb108d027a139a5aaf98012102b2b90166cb00837aa4c93ed29bbb89f8f4cbc29602cf6f618dbb8ca04d8c417000000000", "vin": [{"txinwitness": ["304402207266cd39d67a1b23b783b96d30ce9986bb896ccd1b17cedf33395e9fa30f53930220733f4e21d7512a7e5ecd05c254ae8db82d7e82f56f52eb108d027a139a5aaf9801", "02b2b90166cb00837aa4c93ed29bbb89f8f4cbc29602cf6f618dbb8ca04d8c4170"], "sequence": 4294967295, "scriptSig": {"hex": "160014c3b046f8c02ed29bfef78661b3cc97dcab48decb", "asm": "0014c3b046f8c02ed29bfef78661b3cc97dcab48decb"}, "vout": 1, "txid": "651b29bd9c61282aff06eb997c62f24d3eb229d9fcb6dbfc0df819307447b696"}], "txid": "edad1ed0f3a5e297ed30e41d50da3ad870a9007288ca0d0c203c581e03b2a51c", "blocktime": 1537873282, "version": 1, "confirmations": 11480, "time": 1537873282, "locktime": 0, "vsize": 136, "size": 217}