{"hash": "edad2e9e523f43a6b6ccf152f92d123d6361cd5425341dde1e6fff5fe1970135", "blockhash": "00000000000000000024a2167bbff67b0be802c0b01cdd79e6331c2be6459f87", "vout": [{"scriptPubKey": {"reqSigs": 1, "hex": "76a914c02dd3d92238c65d0509fa3d0cb48daa5e5d2dba88ac", "addresses": ["1JX9dz5nksm11guNR1poiyPtq9xQTXraij"], "asm": "OP_DUP OP_HASH160 c02dd3d92238c65d0509fa3d0cb48daa5e5d2dba OP_EQUALVERIFY OP_CHECKSIG", "type": "pubkeyhash"}, "value": 4.768e-05, "n": 0}, {"scriptPubKey": {"reqSigs": 1, "hex": "76a91408bc685ada82672858b87519acd7fab68e185cc988ac", "addresses": ["1oC7Kx4LouuXuaPygSyhFoUr7b6JC81ET"], "asm": "OP_DUP OP_HASH160 08bc685ada82672858b87519acd7fab68e185cc9 OP_EQUALVERIFY OP_CHECKSIG", "type": "pubkeyhash"}, "value": 0.00936491, "n": 1}], "hex": "010000000550df2e98da6e416cd7796855f8fc107086ed1c25a773935ba3b9db4f93d2270a000000006b483045022100f9b9523f1bd8d15fcc070ed8e02f2148579a50330e80ded38758c04e4bab6f6202205494eb74714f87949ed941f0e08836a6da445348e2adbac4002e6b7c8a346a2a012103b435716f6fe65cc6869b7ae84b93a13c2f15eff947581838f4ad1edde1960df7ffffffffcb470ec9f82b5791e4cef1c067047ba7543781107fccbeaeedfba0e1dfc43e0d000000006b483045022100ea4045ccb8e3305b49bee9acf8415c94d55a918c17833e645d91c213ca173e330220785910eafa77eb363028258522c8808ad8351e26b488e5423525abcfec22becd012103b435716f6fe65cc6869b7ae84b93a13c2f15eff947581838f4ad1edde1960df7ffffffff28775a843d166e1e83bd5e90980c98ee03159ffa9a964cdd425f1e5b053bec8e030000006a473044022071c65d3ca1ffffeaa00ed466bda1575138769c92e39d4587496e65e5008c90130220107e3f6ab24b3856162c8ccb2c9606804f90883f66b1a34398d3bc9be6f36ac70121038e2e7fa1173b42521f8311205df24b3ee978c41b4501dee40cacacedb5516790ffffffffbbae8e7ed411724b5749a9a3944b1687ba499911b755d46bf48270cb6bc3cae0000000006b483045022100b7197dac76ada671a3c88c03266c58bc4bbdf0a94a05167f68ae436af69a6ffa02206bd01785f7d14d158b0bc8bebf8f486e3dbc92f0b5974680f91b279e69b51e0e012102bdc4acc8f59440bd803d411701ab7cffd41b269c411d42dc07cf7a6afe053411ffffffff7776a504d790ab7eebb469350163adf06f86309699ed8be3565a9601cd06e5e4090000006b483045022100b3a1cd5860ab4ed3786aa8536841dc9ac13c092602540b4dc436b4d6a56d8e5c02206b89982b8114326000f2ffe75aa8337cb1d06a46d889f66cc105b3b1b7def86b012102bdc4acc8f59440bd803d411701ab7cffd41b269c411d42dc07cf7a6afe053411ffffffff02a0120000000000001976a914c02dd3d92238c65d0509fa3d0cb48daa5e5d2dba88ac2b4a0e00000000001976a91408bc685ada82672858b87519acd7fab68e185cc988ac00000000", "vin": [{"sequence": 4294967295, "scriptSig": {"hex": "483045022100f9b9523f1bd8d15fcc070ed8e02f2148579a50330e80ded38758c04e4bab6f6202205494eb74714f87949ed941f0e08836a6da445348e2adbac4002e6b7c8a346a2a012103b435716f6fe65cc6869b7ae84b93a13c2f15eff947581838f4ad1edde1960df7", "asm": "3045022100f9b9523f1bd8d15fcc070ed8e02f2148579a50330e80ded38758c04e4bab6f6202205494eb74714f87949ed941f0e08836a6da445348e2adbac4002e6b7c8a346a2a[ALL] 03b435716f6fe65cc6869b7ae84b93a13c2f15eff947581838f4ad1edde1960df7"}, "vout": 0, "txid": "0a27d2934fdbb9a35b9373a7251ced867010fcf8556879d76c416eda982edf50"}, {"sequence": 4294967295, "scriptSig": {"hex": "483045022100ea4045ccb8e3305b49bee9acf8415c94d55a918c17833e645d91c213ca173e330220785910eafa77eb363028258522c8808ad8351e26b488e5423525abcfec22becd012103b435716f6fe65cc6869b7ae84b93a13c2f15eff947581838f4ad1edde1960df7", "asm": "3045022100ea4045ccb8e3305b49bee9acf8415c94d55a918c17833e645d91c213ca173e330220785910eafa77eb363028258522c8808ad8351e26b488e5423525abcfec22becd[ALL] 03b435716f6fe65cc6869b7ae84b93a13c2f15eff947581838f4ad1edde1960df7"}, "vout": 0, "txid": "0d3ec4dfe1a0fbedaebecc7f10813754a77b0467c0f1cee491572bf8c90e47cb"}, {"sequence": 4294967295, "scriptSig": {"hex": "473044022071c65d3ca1ffffeaa00ed466bda1575138769c92e39d4587496e65e5008c90130220107e3f6ab24b3856162c8ccb2c9606804f90883f66b1a34398d3bc9be6f36ac70121038e2e7fa1173b42521f8311205df24b3ee978c41b4501dee40cacacedb5516790", "asm": "3044022071c65d3ca1ffffeaa00ed466bda1575138769c92e39d4587496e65e5008c90130220107e3f6ab24b3856162c8ccb2c9606804f90883f66b1a34398d3bc9be6f36ac7[ALL] 038e2e7fa1173b42521f8311205df24b3ee978c41b4501dee40cacacedb5516790"}, "vout": 3, "txid": "8eec3b055b1e5f42dd4c969afa9f1503ee980c98905ebd831e6e163d845a7728"}, {"sequence": 4294967295, "scriptSig": {"hex": "483045022100b7197dac76ada671a3c88c03266c58bc4bbdf0a94a05167f68ae436af69a6ffa02206bd01785f7d14d158b0bc8bebf8f486e3dbc92f0b5974680f91b279e69b51e0e012102bdc4acc8f59440bd803d411701ab7cffd41b269c411d42dc07cf7a6afe053411", "asm": "3045022100b7197dac76ada671a3c88c03266c58bc4bbdf0a94a05167f68ae436af69a6ffa02206bd01785f7d14d158b0bc8bebf8f486e3dbc92f0b5974680f91b279e69b51e0e[ALL] 02bdc4acc8f59440bd803d411701ab7cffd41b269c411d42dc07cf7a6afe053411"}, "vout": 0, "txid": "e0cac36bcb7082f46bd455b7119949ba87164b94a3a949574b7211d47e8eaebb"}, {"sequence": 4294967295, "scriptSig": {"hex": "483045022100b3a1cd5860ab4ed3786aa8536841dc9ac13c092602540b4dc436b4d6a56d8e5c02206b89982b8114326000f2ffe75aa8337cb1d06a46d889f66cc105b3b1b7def86b012102bdc4acc8f59440bd803d411701ab7cffd41b269c411d42dc07cf7a6afe053411", "asm": "3045022100b3a1cd5860ab4ed3786aa8536841dc9ac13c092602540b4dc436b4d6a56d8e5c02206b89982b8114326000f2ffe75aa8337cb1d06a46d889f66cc105b3b1b7def86b[ALL] 02bdc4acc8f59440bd803d411701ab7cffd41b269c411d42dc07cf7a6afe053411"}, "vout": 9, "txid": "e4e506cd01965a56e38bed999630866ff0ad63013569b4eb7eab90d704a57677"}], "txid": "edad2e9e523f43a6b6ccf152f92d123d6361cd5425341dde1e6fff5fe1970135", "blocktime": 1537870564, "version": 1, "confirmations": 11515, "time": 1537870564, "locktime": 0, "vsize": 817, "size": 817}