{"hash": "22ac31d7f4e70182a1131cf16ab9ac45b48fdcb6eb0b3cc019d1e9f5dfea55d7", "blockhash": "0000000000000000000e13cef7c366c0283d82e591d1acd082e914b08063cdf1", "vout": [{"scriptPubKey": {"reqSigs": 1, "hex": "a9143108c44a3d89e55ca69748f791062651e7239fe087", "addresses": ["36AHY4vYJDSVfdESqesCAPCNwjpdF6MN3q"], "asm": "OP_HASH160 3108c44a3d89e55ca69748f791062651e7239fe0 OP_EQUAL", "type": "scripthash"}, "value": 0.01032821, "n": 0}, {"scriptPubKey": {"reqSigs": 1, "hex": "76a9141bf9ee99fa191c751c90dd0a63707d235c1cecc588ac", "addresses": ["13YvemBfdRfLknxQi2DCqFYYSvrixMVr7w"], "asm": "OP_DUP OP_HASH160 1bf9ee99fa191c751c90dd0a63707d235c1cecc5 OP_EQUALVERIFY OP_CHECKSIG", "type": "pubkeyhash"}, "value": 0.0024936, "n": 1}], "hex": "0200000000010230559d7019571a9d0f932aa98328d760d001f37d45f0c13510cce2101cae4dde00000000171600145c547716aad3d2eef54ba169c3beee6d982ac2c5feffffffe62c95c3eeeb64bfbf92622695328b1a35168b4923c739e60ade0cb1f32d2c1101000000171600143b6486afad54b79e84560ec8bbca92bcf7a18c32feffffff0275c20f000000000017a9143108c44a3d89e55ca69748f791062651e7239fe08710ce0300000000001976a9141bf9ee99fa191c751c90dd0a63707d235c1cecc588ac02473044022071155581e8da0443f83f37a8f125e366eb995ebe0873ea267cda2aaad15b199d02200e6e4cd0e803ee164219b4eeb7af2c8c143fe26598d24bfecd06e06cdbe5c86e0121025513a323a9b999418e782b9707fbb69782f5ae9e625e13f6ffcf5738adc8096f02483045022100862560438242399b8a538a1c3dd318379835f685b3de847ae6783ac4c8a694be0220232fa809d67455115f8ec669b462fba825f94fa6d112de0ec1c981f9cec153cf012102d755bcd7bba3f3a12823f7dc8a87341a13f297a31b95b3565ef05ad723be7a7210490800", "vin": [{"txinwitness": ["3044022071155581e8da0443f83f37a8f125e366eb995ebe0873ea267cda2aaad15b199d02200e6e4cd0e803ee164219b4eeb7af2c8c143fe26598d24bfecd06e06cdbe5c86e01", "025513a323a9b999418e782b9707fbb69782f5ae9e625e13f6ffcf5738adc8096f"], "sequence": 4294967294, "scriptSig": {"hex": "1600145c547716aad3d2eef54ba169c3beee6d982ac2c5", "asm": "00145c547716aad3d2eef54ba169c3beee6d982ac2c5"}, "vout": 0, "txid": "de4dae1c10e2cc1035c1f0457df301d060d72883a92a930f9d1a5719709d5530"}, {"txinwitness": ["3045022100862560438242399b8a538a1c3dd318379835f685b3de847ae6783ac4c8a694be0220232fa809d67455115f8ec669b462fba825f94fa6d112de0ec1c981f9cec153cf01", "02d755bcd7bba3f3a12823f7dc8a87341a13f297a31b95b3565ef05ad723be7a72"], "sequence": 4294967294, "scriptSig": {"hex": "1600143b6486afad54b79e84560ec8bbca92bcf7a18c32", "asm": "00143b6486afad54b79e84560ec8bbca92bcf7a18c32"}, "vout": 1, "txid": "112c2df3b10cde0ae639c723498b16351a8b3295266292bfbf64ebeec3952ce6"}], "txid": "edb09819a889864f582604b2ea45227631ea9b489796d5a867cad984b12116fb", "blocktime": 1537871767, "version": 2, "confirmations": 11495, "time": 1537871767, "locktime": 542992, "vsize": 259, "size": 421}