{"hash": "edb6715e0c20112c211175aa9c649646e6b999a14de91b3b17d4b20f7ddc0b73", "blockhash": "0000000000000000000e13cef7c366c0283d82e591d1acd082e914b08063cdf1", "vout": [{"scriptPubKey": {"reqSigs": 1, "hex": "a9143e6f15908582f42917ec31e39bf8722fc9d5db3f87", "addresses": ["37P8thrtDXb6Di5E7f4FL3bpzum3fhUvT7"], "asm": "OP_HASH160 3e6f15908582f42917ec31e39bf8722fc9d5db3f OP_EQUAL", "type": "scripthash"}, "value": 0.0002, "n": 0}, {"scriptPubKey": {"reqSigs": 1, "hex": "a914f23b0009156bcff93e3f2359e36d4142d7bab1bf87", "addresses": ["3Pmp8NJvSS4AyHHtnTYu4s2N9yCLB6zgDJ"], "asm": "OP_HASH160 f23b0009156bcff93e3f2359e36d4142d7bab1bf OP_EQUAL", "type": "scripthash"}, "value": 0.01691796, "n": 1}], "hex": "0100000001d156ea54fe10df32b01f81b084c1903546b3c8a85fafedd2520f03fcbcd9e0c7000000006b483045022100953cbad7e474a343b08e04203a7bb5ca94f22caad64e1132c2f8b47c561730f702204ce45800f05a504139b4b66c6fe82ef19bcf6d7db833d4cd73dca3d4e661b019012103a94c6e7a671d85fb1abba3cf326b99baf8a4d8c7d93f37fdaba4d14a41b1860dffffffff02204e00000000000017a9143e6f15908582f42917ec31e39bf8722fc9d5db3f8794d019000000000017a914f23b0009156bcff93e3f2359e36d4142d7bab1bf8700000000", "vin": [{"sequence": 4294967295, "scriptSig": {"hex": "483045022100953cbad7e474a343b08e04203a7bb5ca94f22caad64e1132c2f8b47c561730f702204ce45800f05a504139b4b66c6fe82ef19bcf6d7db833d4cd73dca3d4e661b019012103a94c6e7a671d85fb1abba3cf326b99baf8a4d8c7d93f37fdaba4d14a41b1860d", "asm": "3045022100953cbad7e474a343b08e04203a7bb5ca94f22caad64e1132c2f8b47c561730f702204ce45800f05a504139b4b66c6fe82ef19bcf6d7db833d4cd73dca3d4e661b019[ALL] 03a94c6e7a671d85fb1abba3cf326b99baf8a4d8c7d93f37fdaba4d14a41b1860d"}, "vout": 0, "txid": "c7e0d9bcfc030f52d2edaf5fa8c8b3463590c184b0811fb032df10fe54ea56d1"}], "txid": "edb6715e0c20112c211175aa9c649646e6b999a14de91b3b17d4b20f7ddc0b73", "blocktime": 1537871767, "version": 1, "confirmations": 11490, "time": 1537871767, "locktime": 0, "vsize": 222, "size": 222}