{"hash": "2621ebbdf0b8c68dc877ef22b42ff54fadf2728b9958e144be6fc52b84dd1f4f", "blockhash": "0000000000000000001f76057863aec43deb6fa401d9628bb513d65a8098bfab", "vout": [{"scriptPubKey": {"reqSigs": 1, "hex": "a91467b5dbec9eafc45d34444ea023bc6b65498a62b687", "addresses": ["3B9PP6Kt2dWEHzv8YzMGDUxwPzTHFDeg6m"], "asm": "OP_HASH160 67b5dbec9eafc45d34444ea023bc6b65498a62b6 OP_EQUAL", "type": "scripthash"}, "value": 0.01067831, "n": 0}, {"scriptPubKey": {"reqSigs": 1, "hex": "76a9148f0ef35d5a4bfb5a28d766193c19eefdcd22cd7088ac", "addresses": ["1E3RYDoGbnBubPaCkgYVVEtYccEffskKFm"], "asm": "OP_DUP OP_HASH160 8f0ef35d5a4bfb5a28d766193c19eefdcd22cd70 OP_EQUALVERIFY OP_CHECKSIG", "type": "pubkeyhash"}, "value": 0.0022716, "n": 1}], "hex": "02000000000102782df87850db0bb4b226a4f068e06ab2bd88c0c992868ddd3231540049e751cc160000001716001445711eb76c66dac5e3a11fc4c818d19a2b7b6bf7fefffffff539256b9625eb19800b65b140de2fd7885e56ca140c7a41bc6cd309fbe1d7340000000017160014ce33ce918a0099ab41acf0a0b7c73b6ec4b57c87feffffff02374b10000000000017a91467b5dbec9eafc45d34444ea023bc6b65498a62b68758770300000000001976a9148f0ef35d5a4bfb5a28d766193c19eefdcd22cd7088ac02483045022100857a88ae93b10a0eb5d4c3030eff5ea52fbdae76e1a07d667cf38fdbfc73f8320220731ed61033faae2ce01920516b03a705bb8150d23c281f08baf640b5cb4cd8a701210236f57c5309726bda635ff487ad803a43dbb3ac9d87cc9c602a0c017cc8a90e290247304402202a2156dd4de00c78d6a4f9fc54e37039f2a69bee4dd3c5c6604dec1555340a170220151184ac3942bb4ec1c9cf42ebd950d148a37888db7f3393f44218c46e2afa7a012102167ea758266a2801a0679dd2fb1b1784d83ebef2d9d0b40e2a83cbc48022127313490800", "vin": [{"txinwitness": ["3045022100857a88ae93b10a0eb5d4c3030eff5ea52fbdae76e1a07d667cf38fdbfc73f8320220731ed61033faae2ce01920516b03a705bb8150d23c281f08baf640b5cb4cd8a701", "0236f57c5309726bda635ff487ad803a43dbb3ac9d87cc9c602a0c017cc8a90e29"], "sequence": 4294967294, "scriptSig": {"hex": "16001445711eb76c66dac5e3a11fc4c818d19a2b7b6bf7", "asm": "001445711eb76c66dac5e3a11fc4c818d19a2b7b6bf7"}, "vout": 22, "txid": "cc51e74900543132dd8d8692c9c088bdb26ae068f0a426b2b40bdb5078f82d78"}, {"txinwitness": ["304402202a2156dd4de00c78d6a4f9fc54e37039f2a69bee4dd3c5c6604dec1555340a170220151184ac3942bb4ec1c9cf42ebd950d148a37888db7f3393f44218c46e2afa7a01", "02167ea758266a2801a0679dd2fb1b1784d83ebef2d9d0b40e2a83cbc480221273"], "sequence": 4294967294, "scriptSig": {"hex": "160014ce33ce918a0099ab41acf0a0b7c73b6ec4b57c87", "asm": "0014ce33ce918a0099ab41acf0a0b7c73b6ec4b57c87"}, "vout": 0, "txid": "34d7e1fb09d36cbc417a0c14ca565e88d72fde40b1650b8019eb25966b2539f5"}], "txid": "edb61408cee5eb68646d34c48d46737023053231ff22aef53cbb2e33565650b6", "blocktime": 1537873891, "version": 2, "confirmations": 11478, "time": 1537873891, "locktime": 542995, "vsize": 259, "size": 421}