{"hash": "edbbdc3969cf63f62170c1b72bad70d06140356634511a019cde66a04cb82c1a", "blockhash": "0000000000000000000baef3f32e3676a92c3b2e5da21b426e4f302fc371ce76", "vout": [{"scriptPubKey": {"reqSigs": 1, "hex": "a914d45c26a340b3d428be6e1eef6e37e796d81928eb87", "addresses": ["3M3sZyFEeYw9YYH42RS3d32y42JM5hU4Dp"], "asm": "OP_HASH160 d45c26a340b3d428be6e1eef6e37e796d81928eb OP_EQUAL", "type": "scripthash"}, "value": 0.0025, "n": 0}, {"scriptPubKey": {"reqSigs": 1, "hex": "76a914c53cee4f34786607a58f38065f058f587137439488ac", "addresses": ["1Jyu7LvSJ8CMEzLKhGKQbNGTD5j7e3kXFk"], "asm": "OP_DUP OP_HASH160 c53cee4f34786607a58f38065f058f5871374394 OP_EQUALVERIFY OP_CHECKSIG", "type": "pubkeyhash"}, "value": 0.00960952, "n": 1}], "hex": "0100000001de00791b10e2d45fc10917231ade2b197ba23946730b39549bdc1e0608ef271f010000006b483045022100a310a9ab1ba15123b0bf119625fbbb68ddc22032d1272b573c4c884844bd59830220581715eb482cf2731ef094a79f6b63cd766d45f254cc12b26ba99649b96d11d2012102bc3e45b29301e4bea5708ffefce7a6d24fff42a9520faf2bff2b64a64c89d6fcffffffff0290d003000000000017a914d45c26a340b3d428be6e1eef6e37e796d81928eb87b8a90e00000000001976a914c53cee4f34786607a58f38065f058f587137439488ac00000000", "vin": [{"sequence": 4294967295, "scriptSig": {"hex": "483045022100a310a9ab1ba15123b0bf119625fbbb68ddc22032d1272b573c4c884844bd59830220581715eb482cf2731ef094a79f6b63cd766d45f254cc12b26ba99649b96d11d2012102bc3e45b29301e4bea5708ffefce7a6d24fff42a9520faf2bff2b64a64c89d6fc", "asm": "3045022100a310a9ab1ba15123b0bf119625fbbb68ddc22032d1272b573c4c884844bd59830220581715eb482cf2731ef094a79f6b63cd766d45f254cc12b26ba99649b96d11d2[ALL] 02bc3e45b29301e4bea5708ffefce7a6d24fff42a9520faf2bff2b64a64c89d6fc"}, "vout": 1, "txid": "1f27ef08061edc9b54390b734639a27b192bde1a231709c15fd4e2101b7900de"}], "txid": "edbbdc3969cf63f62170c1b72bad70d06140356634511a019cde66a04cb82c1a", "blocktime": 1537876114, "version": 1, "confirmations": 11460, "time": 1537876114, "locktime": 0, "vsize": 224, "size": 224}