{"hash": "1f4527724a8352fc2bedaf3a122c8248331cdd134f4f4a82d70210e2d5d6316a", "blockhash": "00000000000000000004ffacab907a6b429b9a5745fa0b75af4234bf69dd7176", "vout": [{"scriptPubKey": {"reqSigs": 1, "hex": "76a914ed19d0cdd12be7ae49a940a1657feac1a888bf8a88ac", "addresses": ["1Ncg5AdHV8KhgkeC4Dyqjm2QxgqtXhbwLw"], "asm": "OP_DUP OP_HASH160 ed19d0cdd12be7ae49a940a1657feac1a888bf8a OP_EQUALVERIFY OP_CHECKSIG", "type": "pubkeyhash"}, "value": 0.26784317, "n": 0}, {"scriptPubKey": {"reqSigs": 1, "hex": "a914f8e933bba6add005133645ae073d1bba0e0b3a6187", "addresses": ["3QP8sHLKRywsaaGqYh4ajA3CnRpf6XNrQ8"], "asm": "OP_HASH160 f8e933bba6add005133645ae073d1bba0e0b3a61 OP_EQUAL", "type": "scripthash"}, "value": 0.69857962, "n": 1}], "hex": "02000000000101fcb3897804dc80a85d7f9558c37b1788bb485a2984675fa2dba589aa9321de25010000001716001491441e465601c0815d2e865d10f419e3c32ac75dfeffffff023db29801000000001976a914ed19d0cdd12be7ae49a940a1657feac1a888bf8a88acaaf229040000000017a914f8e933bba6add005133645ae073d1bba0e0b3a618702483045022100c66ada9493626517b82573f6b54d91d02f20a5e9f07ddac0f4e59d2a775707e402202ee21421852a2731c3890b98596d10c32b1f3b2c117384fe0f49daa6f70a03b2012102c7b27e18f9dea72c38ad4ac5a0d1996262260ee8579b3f1561b497e31dd2d28f16490800", "vin": [{"txinwitness": ["3045022100c66ada9493626517b82573f6b54d91d02f20a5e9f07ddac0f4e59d2a775707e402202ee21421852a2731c3890b98596d10c32b1f3b2c117384fe0f49daa6f70a03b201", "02c7b27e18f9dea72c38ad4ac5a0d1996262260ee8579b3f1561b497e31dd2d28f"], "sequence": 4294967294, "scriptSig": {"hex": "16001491441e465601c0815d2e865d10f419e3c32ac75d", "asm": "001491441e465601c0815d2e865d10f419e3c32ac75d"}, "vout": 1, "txid": "25de2193aa89a5dba25f6784295a48bb88177bc358957f5da880dc047889b3fc"}], "txid": "edbdd0da9b61b824a4683edf4c1d99d9830d37ec1742079aa96e35b8cc5a783e", "blocktime": 1537875543, "version": 2, "confirmations": 11464, "time": 1537875543, "locktime": 542998, "vsize": 168, "size": 250}