{"hash": "a08aa513aad0103b369c30561ac74ff289e7af29efc9881845b409c3f6fe51a8", "blockhash": "0000000000000000000e13cef7c366c0283d82e591d1acd082e914b08063cdf1", "vout": [{"scriptPubKey": {"reqSigs": 1, "hex": "a914a8e827f1095c9054c013a86c8fc611eed01b24e887", "addresses": ["3H67ZFiBKNSm8uNwo9NMFhycKRHuDiM3ha"], "asm": "OP_HASH160 a8e827f1095c9054c013a86c8fc611eed01b24e8 OP_EQUAL", "type": "scripthash"}, "value": 1.66887241, "n": 0}, {"scriptPubKey": {"reqSigs": 1, "hex": "76a914967a4ba7424a2988928a0268ec5099d26a9d9d3088ac", "addresses": ["1Eies1wupiNrWS49igDZTD7chpu87dWxsb"], "asm": "OP_DUP OP_HASH160 967a4ba7424a2988928a0268ec5099d26a9d9d30 OP_EQUALVERIFY OP_CHECKSIG", "type": "pubkeyhash"}, "value": 0.012, "n": 1}], "hex": "02000000000101b0f2ca5188f68405e54792dc0ea16f8ce31b45298850b0debd30cb9af084c950010000001716001496b2fbc1166815469155552999d68e1f83fe2ab5ffffffff02497ff2090000000017a914a8e827f1095c9054c013a86c8fc611eed01b24e887804f1200000000001976a914967a4ba7424a2988928a0268ec5099d26a9d9d3088ac02473044022050bb8d5cec16e3c9538416831134f06851fc05b760c4af90a166523730115355022017fba22e4f3fdbff2f31b3f76771b143520a60ff98b882a692644a0ef48a6a68012102588bae1620ce73f3fa216bc47f57069c720ac6192353ee877b85c9ce454bba5500000000", "vin": [{"txinwitness": ["3044022050bb8d5cec16e3c9538416831134f06851fc05b760c4af90a166523730115355022017fba22e4f3fdbff2f31b3f76771b143520a60ff98b882a692644a0ef48a6a6801", "02588bae1620ce73f3fa216bc47f57069c720ac6192353ee877b85c9ce454bba55"], "sequence": 4294967295, "scriptSig": {"hex": "16001496b2fbc1166815469155552999d68e1f83fe2ab5", "asm": "001496b2fbc1166815469155552999d68e1f83fe2ab5"}, "vout": 1, "txid": "50c984f09acb30bddeb0508829451be38c6fa10edc9247e50584f68851caf2b0"}], "txid": "edbd84bbd290ec4461e48249bf5057ecc0caf506f581d07d3fc5bdc2cc56d464", "blocktime": 1537871767, "version": 2, "confirmations": 11493, "time": 1537871767, "locktime": 0, "vsize": 168, "size": 249}