{"hash": "edc18a421743600ab270e456ca5e7c116f70d4ae137904cccd625ca0931fbc5d", "blockhash": "0000000000000000000e13cef7c366c0283d82e591d1acd082e914b08063cdf1", "vout": [{"scriptPubKey": {"reqSigs": 1, "hex": "a9145f245d962eea43b61f641ddc30f0a802ca2e1ae487", "addresses": ["3AN5gVV9bTYTSanH1igHW1x6ip5bVkqXFR"], "asm": "OP_HASH160 5f245d962eea43b61f641ddc30f0a802ca2e1ae4 OP_EQUAL", "type": "scripthash"}, "value": 0.003747, "n": 0}, {"scriptPubKey": {"reqSigs": 1, "hex": "a91468af5a990b54c93f97eb87c3779c1bcf2030e23c87", "addresses": ["3BEYGJ9nQ77a7chhCMV4XLPmYi1RvZ2U3T"], "asm": "OP_HASH160 68af5a990b54c93f97eb87c3779c1bcf2030e23c OP_EQUAL", "type": "scripthash"}, "value": 5.009e-05, "n": 1}], "hex": "01000000023cee7d4197eedd87d65f660f54e468cd90ff6c08fdd77367cadbc65e10c18ea13e070000fdfd00004730440220081a9e186a9251183d0f256c8e43d1576bd2db9f91e6f253a7f71794419a32aa02202c65f28e3f2b93be778701b6a7975e11c12f9ddb8fc859a9c74b08f30a0be7c201483045022100b34c3b59495a4a73787cb27248c29c3653b0ededac8d14fe82a7643a52ecd9470220321892a353c9c8765aa1f08eafed4dcd274d29a717f96605fd18f97be5335b7f014c69522102928960cb2395a0c86e953e0aa01f83bae86801fd31d827f27ec2ec382218cbce21034609e29e4e697f5d9045a4ec3056a5a780aafe3958c1b77ef793b5f2b902cdb12103495b74902f2ddc2fd574fb7c238462f54bced144f4233cf36d697e8bfe3d499a53aeffffffff2bf03647701c8d3724aa30dc5f9e8c99de3a042636686047c263862010fe10eb30070000fdfd000047304402200c0293ce706516ff5ef19c2134c6663e05678c721e5fee3382f4c72d353d747102203920d57a89048035b96162a6c53382818154d877eb500a6e7a82bcdfc562b52801483045022100cf280c134cdb4d9acb561c284be681f822bc0910f7be2f82c122bf4f437793d502201d1363a30f49385c4e68fb6ebc5d6686b6349099e88709807fe0fc2f302f591d014c69522102928960cb2395a0c86e953e0aa01f83bae86801fd31d827f27ec2ec382218cbce21034609e29e4e697f5d9045a4ec3056a5a780aafe3958c1b77ef793b5f2b902cdb12103495b74902f2ddc2fd574fb7c238462f54bced144f4233cf36d697e8bfe3d499a53aeffffffff02acb705000000000017a9145f245d962eea43b61f641ddc30f0a802ca2e1ae487911300000000000017a91468af5a990b54c93f97eb87c3779c1bcf2030e23c8700000000", "vin": [{"sequence": 4294967295, "scriptSig": {"hex": "004730440220081a9e186a9251183d0f256c8e43d1576bd2db9f91e6f253a7f71794419a32aa02202c65f28e3f2b93be778701b6a7975e11c12f9ddb8fc859a9c74b08f30a0be7c201483045022100b34c3b59495a4a73787cb27248c29c3653b0ededac8d14fe82a7643a52ecd9470220321892a353c9c8765aa1f08eafed4dcd274d29a717f96605fd18f97be5335b7f014c69522102928960cb2395a0c86e953e0aa01f83bae86801fd31d827f27ec2ec382218cbce21034609e29e4e697f5d9045a4ec3056a5a780aafe3958c1b77ef793b5f2b902cdb12103495b74902f2ddc2fd574fb7c238462f54bced144f4233cf36d697e8bfe3d499a53ae", "asm": "0 30440220081a9e186a9251183d0f256c8e43d1576bd2db9f91e6f253a7f71794419a32aa02202c65f28e3f2b93be778701b6a7975e11c12f9ddb8fc859a9c74b08f30a0be7c2[ALL] 3045022100b34c3b59495a4a73787cb27248c29c3653b0ededac8d14fe82a7643a52ecd9470220321892a353c9c8765aa1f08eafed4dcd274d29a717f96605fd18f97be5335b7f[ALL] 522102928960cb2395a0c86e953e0aa01f83bae86801fd31d827f27ec2ec382218cbce21034609e29e4e697f5d9045a4ec3056a5a780aafe3958c1b77ef793b5f2b902cdb12103495b74902f2ddc2fd574fb7c238462f54bced144f4233cf36d697e8bfe3d499a53ae"}, "vout": 1854, "txid": "a18ec1105ec6dbca6773d7fd086cff90cd68e4540f665fd687ddee97417dee3c"}, {"sequence": 4294967295, "scriptSig": {"hex": "0047304402200c0293ce706516ff5ef19c2134c6663e05678c721e5fee3382f4c72d353d747102203920d57a89048035b96162a6c53382818154d877eb500a6e7a82bcdfc562b52801483045022100cf280c134cdb4d9acb561c284be681f822bc0910f7be2f82c122bf4f437793d502201d1363a30f49385c4e68fb6ebc5d6686b6349099e88709807fe0fc2f302f591d014c69522102928960cb2395a0c86e953e0aa01f83bae86801fd31d827f27ec2ec382218cbce21034609e29e4e697f5d9045a4ec3056a5a780aafe3958c1b77ef793b5f2b902cdb12103495b74902f2ddc2fd574fb7c238462f54bced144f4233cf36d697e8bfe3d499a53ae", "asm": "0 304402200c0293ce706516ff5ef19c2134c6663e05678c721e5fee3382f4c72d353d747102203920d57a89048035b96162a6c53382818154d877eb500a6e7a82bcdfc562b528[ALL] 3045022100cf280c134cdb4d9acb561c284be681f822bc0910f7be2f82c122bf4f437793d502201d1363a30f49385c4e68fb6ebc5d6686b6349099e88709807fe0fc2f302f591d[ALL] 522102928960cb2395a0c86e953e0aa01f83bae86801fd31d827f27ec2ec382218cbce21034609e29e4e697f5d9045a4ec3056a5a780aafe3958c1b77ef793b5f2b902cdb12103495b74902f2ddc2fd574fb7c238462f54bced144f4233cf36d697e8bfe3d499a53ae"}, "vout": 1840, "txid": "eb10fe10208663c24760683626043ade998c9e5fdc30aa24378d1c704736f02b"}], "txid": "edc18a421743600ab270e456ca5e7c116f70d4ae137904cccd625ca0931fbc5d", "blocktime": 1537871767, "version": 1, "confirmations": 11494, "time": 1537871767, "locktime": 0, "vsize": 666, "size": 666}