{"hash": "edc89b2c3ebd740a3c67256f58a9b8828ba8a5f4598b597b26e98cbb591da7ec", "blockhash": "000000000000000000022b45ed06c6f4ccd3cf7fb5ba4856ebd2e58215665228", "vout": [{"scriptPubKey": {"reqSigs": 1, "hex": "76a914c6a89ff20ed869cb1a401cbbd692d44d9f807b5688ac", "addresses": ["1K7QoEomp3HPvAviKiBMuBgqZFN4ybvDuv"], "asm": "OP_DUP OP_HASH160 c6a89ff20ed869cb1a401cbbd692d44d9f807b56 OP_EQUALVERIFY OP_CHECKSIG", "type": "pubkeyhash"}, "value": 3.236e-05, "n": 0}, {"scriptPubKey": {"reqSigs": 1, "hex": "a9147c80ce1b854ea02b237fde8e72c96944dd3ce69b87", "addresses": ["3D3L1sD7Wd4NywrjodHM2CvCWyWZZN9oCU"], "asm": "OP_HASH160 7c80ce1b854ea02b237fde8e72c96944dd3ce69b OP_EQUAL", "type": "scripthash"}, "value": 0.02971539, "n": 1}], "hex": "0100000005154ffbc720d72cd7f4463d6af1b1b8dc8b830ab2e29d4988233b76f7460fdd02260000006a47304402200c13b1ecd485990a9cb3bb71e9bd26568595d786cf036dbfb81b6c990e130f6e02207274c0701ae56cb298358890e986d84a1d344f0585273a3f6c920ef51ae70944012103a0b054fa3d5f489158d93beeffc4a0aa35015ed0ac4322bcc15c47c343508da7ffffffffe8c4fbefe63c114057dc30a315fa93a07972018f40c31954df46ce3d4876b137000000006b483045022100d6af4c07605ab40185fbbf1fadce7c743eefc8a795ca9be420ade1226f221c5a022074529826ba1d58ea626b1700778404bffe28e6e0b181964f0c772314638e81a8012102fb1fed86fd20365421d24f53fd13c7dcad1618453b71c4f50641fb7f1b17036fffffffff65d6e6daca84422d65e9e3544a597c469ac8e5db80d6b1e09d5289b318c24841170000006a47304402205f6d3ea92939d06addd139fbd6f4ee6eee78a39d72d86335a83d0d9347871c93022024ce112fbbdb0cf7294a9c0ce4be940ac0ba33ad4bdfa75dd553a444fa5eb098012103a0b054fa3d5f489158d93beeffc4a0aa35015ed0ac4322bcc15c47c343508da7ffffffff41c184edcecefa8e137fa370e5aa681c5a3ab35fdaade2eee78e76f774df3989010000006b483045022100b88a524541855edb75a22824b33f76d173cfa20a4a907e4245452109181d3b7b02204073937bf90859570d4edd33ad71aa8c383d26a12af34fdd572d94b9526927db012102467671d7f87c611731189f7811ef03e6fc991b76d29b21df05a5c70e21afb379ffffffff69605e31676d4d71655073c80670d7d63323f7819bc8340019f1331bf0aa8996000000006b48304502210082332871145a24e491843695fec28275244b4c67daa0caa9de0120f2c340f54202206bca09d7a19cac8ed69f708d523efdae149b74061ce1730586592b3fb91a5dbb01210342c51ff8b83d168698ff238dbaf7354af5c672533a07fa6cc6196db40dd6f158ffffffff02a40c0000000000001976a914c6a89ff20ed869cb1a401cbbd692d44d9f807b5688ac93572d000000000017a9147c80ce1b854ea02b237fde8e72c96944dd3ce69b8700000000", "vin": [{"sequence": 4294967295, "scriptSig": {"hex": "47304402200c13b1ecd485990a9cb3bb71e9bd26568595d786cf036dbfb81b6c990e130f6e02207274c0701ae56cb298358890e986d84a1d344f0585273a3f6c920ef51ae70944012103a0b054fa3d5f489158d93beeffc4a0aa35015ed0ac4322bcc15c47c343508da7", "asm": "304402200c13b1ecd485990a9cb3bb71e9bd26568595d786cf036dbfb81b6c990e130f6e02207274c0701ae56cb298358890e986d84a1d344f0585273a3f6c920ef51ae70944[ALL] 03a0b054fa3d5f489158d93beeffc4a0aa35015ed0ac4322bcc15c47c343508da7"}, "vout": 38, "txid": "02dd0f46f7763b2388499de2b20a838bdcb8b1f16a3d46f4d72cd720c7fb4f15"}, {"sequence": 4294967295, "scriptSig": {"hex": "483045022100d6af4c07605ab40185fbbf1fadce7c743eefc8a795ca9be420ade1226f221c5a022074529826ba1d58ea626b1700778404bffe28e6e0b181964f0c772314638e81a8012102fb1fed86fd20365421d24f53fd13c7dcad1618453b71c4f50641fb7f1b17036f", "asm": "3045022100d6af4c07605ab40185fbbf1fadce7c743eefc8a795ca9be420ade1226f221c5a022074529826ba1d58ea626b1700778404bffe28e6e0b181964f0c772314638e81a8[ALL] 02fb1fed86fd20365421d24f53fd13c7dcad1618453b71c4f50641fb7f1b17036f"}, "vout": 0, "txid": "37b176483dce46df5419c3408f017279a093fa15a330dc5740113ce6effbc4e8"}, {"sequence": 4294967295, "scriptSig": {"hex": "47304402205f6d3ea92939d06addd139fbd6f4ee6eee78a39d72d86335a83d0d9347871c93022024ce112fbbdb0cf7294a9c0ce4be940ac0ba33ad4bdfa75dd553a444fa5eb098012103a0b054fa3d5f489158d93beeffc4a0aa35015ed0ac4322bcc15c47c343508da7", "asm": "304402205f6d3ea92939d06addd139fbd6f4ee6eee78a39d72d86335a83d0d9347871c93022024ce112fbbdb0cf7294a9c0ce4be940ac0ba33ad4bdfa75dd553a444fa5eb098[ALL] 03a0b054fa3d5f489158d93beeffc4a0aa35015ed0ac4322bcc15c47c343508da7"}, "vout": 23, "txid": "4148c218b389529de0b1d680dbe5c89a467c594a54e3e9652d4284cadae6d665"}, {"sequence": 4294967295, "scriptSig": {"hex": "483045022100b88a524541855edb75a22824b33f76d173cfa20a4a907e4245452109181d3b7b02204073937bf90859570d4edd33ad71aa8c383d26a12af34fdd572d94b9526927db012102467671d7f87c611731189f7811ef03e6fc991b76d29b21df05a5c70e21afb379", "asm": "3045022100b88a524541855edb75a22824b33f76d173cfa20a4a907e4245452109181d3b7b02204073937bf90859570d4edd33ad71aa8c383d26a12af34fdd572d94b9526927db[ALL] 02467671d7f87c611731189f7811ef03e6fc991b76d29b21df05a5c70e21afb379"}, "vout": 1, "txid": "8939df74f7768ee7eee2adda5fb33a5a1c68aae570a37f138efaceceed84c141"}, {"sequence": 4294967295, "scriptSig": {"hex": "48304502210082332871145a24e491843695fec28275244b4c67daa0caa9de0120f2c340f54202206bca09d7a19cac8ed69f708d523efdae149b74061ce1730586592b3fb91a5dbb01210342c51ff8b83d168698ff238dbaf7354af5c672533a07fa6cc6196db40dd6f158", "asm": "304502210082332871145a24e491843695fec28275244b4c67daa0caa9de0120f2c340f54202206bca09d7a19cac8ed69f708d523efdae149b74061ce1730586592b3fb91a5dbb[ALL] 0342c51ff8b83d168698ff238dbaf7354af5c672533a07fa6cc6196db40dd6f158"}, "vout": 0, "txid": "9689aaf01b33f1190034c89b81f72333d6d77006c8735065714d6d67315e6069"}], "txid": "edc89b2c3ebd740a3c67256f58a9b8828ba8a5f4598b597b26e98cbb591da7ec", "blocktime": 1537869901, "version": 1, "confirmations": 11522, "time": 1537869901, "locktime": 0, "vsize": 814, "size": 814}