{"hash": "b01c583bdfe5367f99c8b5233b79ce0c0a85336d20d27f0c41ca9ad16c362ff0", "blockhash": "0000000000000000001f76057863aec43deb6fa401d9628bb513d65a8098bfab", "vout": [{"scriptPubKey": {"reqSigs": 1, "hex": "a914a2fc594b76bb58c33db964074750122cf1b58f2b87", "addresses": ["3GYoh85SXp1ByGyeVsZEjoUdz5iXjFxXtk"], "asm": "OP_HASH160 a2fc594b76bb58c33db964074750122cf1b58f2b OP_EQUAL", "type": "scripthash"}, "value": 0.002244, "n": 0}, {"scriptPubKey": {"reqSigs": 1, "hex": "001448b92f4c58cb14b2e4b59ba0241dd41993d5334f", "addresses": ["bc1qfzuj7nzcev2t9e94nwszg8w5rxfa2v60ae2lc6"], "asm": "0 48b92f4c58cb14b2e4b59ba0241dd41993d5334f", "type": "witness_v0_keyhash"}, "value": 1.08962786, "n": 1}], "hex": "020000000001011f7ace6cd77195beca7d9635c364270d56f26f2a1ff74536f8a5a7428045e96a0100000000ffffffff02906c03000000000017a914a2fc594b76bb58c33db964074750122cf1b58f2b87e2a37e060000000016001448b92f4c58cb14b2e4b59ba0241dd41993d5334f02483045022100838b1243ebed10704c55fab71426bba03f31f2cb34200ca437390e05cfba32fb02206208da013f9f24dba9e614875de1de32260e5c0c87a213ab898fe7d3e174495f0121027ae477f6b1e00b1b9db29891f06c58fae14a624b1d5c80cdeeceece17034204900000000", "vin": [{"txinwitness": ["3045022100838b1243ebed10704c55fab71426bba03f31f2cb34200ca437390e05cfba32fb02206208da013f9f24dba9e614875de1de32260e5c0c87a213ab898fe7d3e174495f01", "027ae477f6b1e00b1b9db29891f06c58fae14a624b1d5c80cdeeceece170342049"], "sequence": 4294967295, "scriptSig": {"hex": "", "asm": ""}, "vout": 1, "txid": "6ae9458042a7a5f83645f71f2a6ff2560d2764c335967dcabe9571d76cce7a1f"}], "txid": "edc9f3769b7e57a8ba2a45076ad0933fbcb14e889977bfb132acccd9797f61a2", "blocktime": 1537873891, "version": 2, "confirmations": 11475, "time": 1537873891, "locktime": 0, "vsize": 142, "size": 224}