{"hash": "a79e418386028daff65878a9ae4430d4763ccdd2a659bb076eeb6788d157f908", "blockhash": "00000000000000000024a2167bbff67b0be802c0b01cdd79e6331c2be6459f87", "vout": [{"scriptPubKey": {"reqSigs": 1, "hex": "00146d1561912b3c22aa3baa38ca82ee22ded20031c5", "addresses": ["bc1qd52kryft8s325wa28r9g9m3zmmfqqvw94a4uxd"], "asm": "0 6d1561912b3c22aa3baa38ca82ee22ded20031c5", "type": "witness_v0_keyhash"}, "value": 0.00391279, "n": 0}, {"scriptPubKey": {"reqSigs": 1, "hex": "76a91435e612d000c09ffe9c5b30ef01a77c19b95cd59788ac", "addresses": ["15uzRxHDHn8rxU8EkCzyDtbLHcUcs2hxWU"], "asm": "OP_DUP OP_HASH160 35e612d000c09ffe9c5b30ef01a77c19b95cd597 OP_EQUALVERIFY OP_CHECKSIG", "type": "pubkeyhash"}, "value": 0.0522104, "n": 1}], "hex": "01000000000101b4268c520e4ca0123e97aea021fbc11e8ecb0fbfeba195910374a27fe77935420100000000ffffffff026ff80500000000001600146d1561912b3c22aa3baa38ca82ee22ded20031c5b0aa4f00000000001976a91435e612d000c09ffe9c5b30ef01a77c19b95cd59788ac02483045022100c6296570c8d660458b2a3b7d954cb4e1f49a46729a4834f19ee1fd70010153020220389b01a5c63905a14b327bf93f4372896c89748122efe1cf0f6e851647a6d54e012103f367180fce4ffca1d557e166e8416c20301c5290a7fe55cb306a217175e7736000000000", "vin": [{"txinwitness": ["3045022100c6296570c8d660458b2a3b7d954cb4e1f49a46729a4834f19ee1fd70010153020220389b01a5c63905a14b327bf93f4372896c89748122efe1cf0f6e851647a6d54e01", "03f367180fce4ffca1d557e166e8416c20301c5290a7fe55cb306a217175e77360"], "sequence": 4294967295, "scriptSig": {"hex": "", "asm": ""}, "vout": 1, "txid": "423579e77fa274039195a1ebbf0fcb8e1ec1fb21a0ae973e12a04c0e528c26b4"}], "txid": "edd3736760ac76af4671d16d8804344f87a89d7437fde679e9861313ef5d0f97", "blocktime": 1537870564, "version": 1, "confirmations": 11515, "time": 1537870564, "locktime": 0, "vsize": 144, "size": 226}