{"hash": "edd3c74049398b9776af650843c846b0f3566cbf7ba4d76dcfc2c3317811d3c9", "blockhash": "00000000000000000018f53835495a110e01622372bf6ae95dc86f2b0ab887b0", "vout": [{"scriptPubKey": {"reqSigs": 1, "hex": "a91496c894b9d7d57c01fd58879e718626f54f2ebbbf87", "addresses": ["3FSHZvmMSNiZsEFjKVc7FuWeTFCQS7Btod"], "asm": "OP_HASH160 96c894b9d7d57c01fd58879e718626f54f2ebbbf OP_EQUAL", "type": "scripthash"}, "value": 14.28431598, "n": 0}, {"scriptPubKey": {"reqSigs": 1, "hex": "a914ee33401135182b68ab63ba0906e63876cb208b9c87", "addresses": ["3PQW98VnhC5Kw3cxiopFSLeCbccvCmcbRr"], "asm": "OP_HASH160 ee33401135182b68ab63ba0906e63876cb208b9c OP_EQUAL", "type": "scripthash"}, "value": 0.0455, "n": 1}, {"scriptPubKey": {"reqSigs": 1, "hex": "76a914194f9a4ed413a55c71240d063316c25c9f7c101c88ac", "addresses": ["13JqFhBn1U98asca8KKh6ufQokggiHAq9R"], "asm": "OP_DUP OP_HASH160 194f9a4ed413a55c71240d063316c25c9f7c101c OP_EQUALVERIFY OP_CHECKSIG", "type": "pubkeyhash"}, "value": 0.11994949, "n": 2}, {"scriptPubKey": {"reqSigs": 1, "hex": "a914d5d3e6f4a41b9c7b5040739e3a3bfc8999ffb54e87", "addresses": ["3MBdhdBEpQb3rqWy637PVTF3ZEEFHuS6HE"], "asm": "OP_HASH160 d5d3e6f4a41b9c7b5040739e3a3bfc8999ffb54e OP_EQUAL", "type": "scripthash"}, "value": 1.12017848, "n": 3}, {"scriptPubKey": {"reqSigs": 1, "hex": "a9149efce99ab06112992ee856e0d469ff19213744ed87", "addresses": ["3GBffXGZd1nR3C81VwcW1HTzq71B1i7YCh"], "asm": "OP_HASH160 9efce99ab06112992ee856e0d469ff19213744ed OP_EQUAL", "type": "scripthash"}, "value": 0.17504141, "n": 4}, {"scriptPubKey": {"reqSigs": 1, "hex": "a9141221121d78d3aa19fb33cb2e8ee50549a185b84987", "addresses": ["33LshnyjLRESJwbicp9ZJq7wSJCFbgfw2N"], "asm": "OP_HASH160 1221121d78d3aa19fb33cb2e8ee50549a185b849 OP_EQUAL", "type": "scripthash"}, "value": 1.08950049, "n": 5}, {"scriptPubKey": {"reqSigs": 1, "hex": "76a914353d1bf9d19cb0c3ed809d67fbcc61a94f29280188ac", "addresses": ["15rW27dQYi4fJ7mpZwmhvW3YMTKDhpQ6JP"], "asm": "OP_DUP OP_HASH160 353d1bf9d19cb0c3ed809d67fbcc61a94f292801 OP_EQUALVERIFY OP_CHECKSIG", "type": "pubkeyhash"}, "value": 0.014, "n": 6}, {"scriptPubKey": {"reqSigs": 1, "hex": "76a9142a4d982d9724a3dcaa333b9777deaba294263b7388ac", "addresses": ["14rgLQywd14DzVRy9Cz5YGuNMzimyFd7mA"], "asm": "OP_DUP OP_HASH160 2a4d982d9724a3dcaa333b9777deaba294263b73 OP_EQUALVERIFY OP_CHECKSIG", "type": "pubkeyhash"}, "value": 0.095605, "n": 7}, {"scriptPubKey": {"reqSigs": 1, "hex": "76a914ba5f997f69a684fd918930fae9c4945fc38ec8a388ac", "addresses": ["1HzTD4KENoTpAAAdn77xnbXLgPYfjzAt3y"], "asm": "OP_DUP OP_HASH160 ba5f997f69a684fd918930fae9c4945fc38ec8a3 OP_EQUALVERIFY OP_CHECKSIG", "type": "pubkeyhash"}, "value": 0.00712, "n": 8}, {"scriptPubKey": {"reqSigs": 1, "hex": "76a91489f66faf210d35374e3af3c097478a8705232d6088ac", "addresses": ["1DaUnyRCXcM5Q1M4SYh9nhTRTcDbRGWX8b"], "asm": "OP_DUP OP_HASH160 89f66faf210d35374e3af3c097478a8705232d60 OP_EQUALVERIFY OP_CHECKSIG", "type": "pubkeyhash"}, "value": 1.958, "n": 9}, {"scriptPubKey": {"reqSigs": 1, "hex": "76a914ae64b485c1df083d26b1108e4281747284be419e88ac", "addresses": ["1Gu7DVmrdPi7PdSzSEB6aP48zF5uoMYJ6K"], "asm": "OP_DUP OP_HASH160 ae64b485c1df083d26b1108e4281747284be419e OP_EQUALVERIFY OP_CHECKSIG", "type": "pubkeyhash"}, "value": 0.0995, "n": 10}, {"scriptPubKey": {"reqSigs": 1, "hex": "a91469e5c6ec00380c7b43390b53aa69e8566d54fb4587", "addresses": ["3BLx8sfzhtk1Smxh9Ruy8SR6VNBAY8G9tP"], "asm": "OP_HASH160 69e5c6ec00380c7b43390b53aa69e8566d54fb45 OP_EQUAL", "type": "scripthash"}, "value": 0.00527335, "n": 11}, {"scriptPubKey": {"reqSigs": 1, "hex": "a91488669094c8452e78d857e26b8df0e9815b532bb387", "addresses": ["3E8EgxWVcYiVoEyLXKp6VCZX9W5PpKWb3Y"], "asm": "OP_HASH160 88669094c8452e78d857e26b8df0e9815b532bb3 OP_EQUAL", "type": "scripthash"}, "value": 0.01169253, "n": 12}, {"scriptPubKey": {"reqSigs": 1, "hex": "a914528496a71d0ed8a7e56a5619105ba0ec48d0c20987", "addresses": ["39DLAgbR2T3mW6N8pnEr4n6umbS96JGhkc"], "asm": "OP_HASH160 528496a71d0ed8a7e56a5619105ba0ec48d0c209 OP_EQUAL", "type": "scripthash"}, "value": 1.94891688, "n": 13}, {"scriptPubKey": {"reqSigs": 1, "hex": "a9141765a04eab41a14f2ac05656155f295b61b490db87", "addresses": ["33pjD4uAKqnnqxRMD14kAqXsqKiHr5uDD4"], "asm": "OP_HASH160 1765a04eab41a14f2ac05656155f295b61b490db OP_EQUAL", "type": "scripthash"}, "value": 0.15341761, "n": 14}, {"scriptPubKey": {"reqSigs": 1, "hex": "76a91483d3572fe2f16e0095b94af1c0b8def79aa8baa588ac", "addresses": ["1D22hLAE2t9jguVwJmArSBYhhY4bp3UJyo"], "asm": "OP_DUP OP_HASH160 83d3572fe2f16e0095b94af1c0b8def79aa8baa5 OP_EQUALVERIFY OP_CHECKSIG", "type": "pubkeyhash"}, "value": 1.0, "n": 15}, {"scriptPubKey": {"reqSigs": 1, "hex": "a914f24f81bd67cbaca9e35d5ef2fc60456b23aaec6487", "addresses": ["3PnEhCJq6SqfRc4FNxUCJn1qnpojmYUoQz"], "asm": "OP_HASH160 f24f81bd67cbaca9e35d5ef2fc60456b23aaec64 OP_EQUAL", "type": "scripthash"}, "value": 0.04091704, "n": 16}, {"scriptPubKey": {"reqSigs": 1, "hex": "76a9149ba0920848ae5dc18a4782ea807246132349ebea88ac", "addresses": ["1FBt6N5UUYZtxqYXwWxCCjkRoDTUwSH5kS"], "asm": "OP_DUP OP_HASH160 9ba0920848ae5dc18a4782ea807246132349ebea OP_EQUALVERIFY OP_CHECKSIG", "type": "pubkeyhash"}, "value": 0.0420574, "n": 17}, {"scriptPubKey": {"reqSigs": 1, "hex": "76a9145550c9ad915654435cac5534382e6b77f1b5c9ce88ac", "addresses": ["18n7DYMnanveNCdyXH9THfD33Z31zgx8T2"], "asm": "OP_DUP OP_HASH160 5550c9ad915654435cac5534382e6b77f1b5c9ce OP_EQUALVERIFY OP_CHECKSIG", "type": "pubkeyhash"}, "value": 0.007, "n": 18}, {"scriptPubKey": {"reqSigs": 1, "hex": "76a91445991e4850cd362b22363b099fe59623dc2ec89788ac", "addresses": ["17M145jiwB4iJGpiWJbnqA2zhjLYtiHGFr"], "asm": "OP_DUP OP_HASH160 45991e4850cd362b22363b099fe59623dc2ec897 OP_EQUALVERIFY OP_CHECKSIG", "type": "pubkeyhash"}, "value": 1.9995, "n": 19}, {"scriptPubKey": {"reqSigs": 1, "hex": "a91469f374ba95d8d7db6d184d9752caf28c0b7257d587", "addresses": ["3BMEXJZ21219XtT98BRRo21hNtN3s5majn"], "asm": "OP_HASH160 69f374ba95d8d7db6d184d9752caf28c0b7257d5 OP_EQUAL", "type": "scripthash"}, "value": 0.04981565, "n": 20}, {"scriptPubKey": {"reqSigs": 1, "hex": "a9149d400dd566e280184e8d66fa0b9ed400114e8f9687", "addresses": ["3G2UkDM4yrpHM6GV5L2V8sFcMLGCYBFBW2"], "asm": "OP_HASH160 9d400dd566e280184e8d66fa0b9ed400114e8f96 OP_EQUAL", "type": "scripthash"}, "value": 0.0074723, "n": 21}, {"scriptPubKey": {"reqSigs": 1, "hex": "76a9147ec1d8db68b334b9051709e269a5ac25b8d4fef888ac", "addresses": ["1CZEMuP6K3iB7dTAvkutoCnYaua6areY2k"], "asm": "OP_DUP OP_HASH160 7ec1d8db68b334b9051709e269a5ac25b8d4fef8 OP_EQUALVERIFY OP_CHECKSIG", "type": "pubkeyhash"}, "value": 0.015, "n": 22}, {"scriptPubKey": {"reqSigs": 1, "hex": "a91469f3762126f4b9345d8da86bd0f06f3592657ab987", "addresses": ["3BMEXgbrGqwRKzpYDmrsNTjBzsFM7bCacy"], "asm": "OP_HASH160 69f3762126f4b9345d8da86bd0f06f3592657ab9 OP_EQUAL", "type": "scripthash"}, "value": 0.099, "n": 23}, {"scriptPubKey": {"reqSigs": 1, "hex": "a91469f37667bb67afb2414e64d0ef519a1a160088af87", "addresses": ["3BMEXkwaFvchk6gwyF1C7xG42wh8KXmPUL"], "asm": "OP_HASH160 69f37667bb67afb2414e64d0ef519a1a160088af OP_EQUAL", "type": "scripthash"}, "value": 0.0052066, "n": 24}, {"scriptPubKey": {"reqSigs": 1, "hex": "a91469f376a32a367ceed781f35630dde54e0e83446987", "addresses": ["3BMEXpbYPkusTdduxCx3hnNfmNpQCxTVGw"], "asm": "OP_HASH160 69f376a32a367ceed781f35630dde54e0e834469 OP_EQUAL", "type": "scripthash"}, "value": 0.00449793, "n": 25}, {"scriptPubKey": {"reqSigs": 1, "hex": "76a914f9c2bcb5a8986552491e1c0ce883bd9032cb152188ac", "addresses": ["1PmcYLiaoEcxfYG7j6oNKbdUBBXbsNeRgW"], "asm": "OP_DUP OP_HASH160 f9c2bcb5a8986552491e1c0ce883bd9032cb1521 OP_EQUALVERIFY OP_CHECKSIG", "type": "pubkeyhash"}, "value": 0.96076695, "n": 26}, {"scriptPubKey": {"reqSigs": 1, "hex": "76a91432093fdc71413d57ee069b66cf1f25206e54fba788ac", "addresses": ["15ZZsFo89hG3bHtwu512nQfj17zAzWR4U3"], "asm": "OP_DUP OP_HASH160 32093fdc71413d57ee069b66cf1f25206e54fba7 OP_EQUALVERIFY OP_CHECKSIG", "type": "pubkeyhash"}, "value": 2.87353668, "n": 27}, {"scriptPubKey": {"reqSigs": 1, "hex": "a91469f376f4e86c089a0eaa9c84dc0ab86212cefa8187", "addresses": ["3BMEXud5Z7wf5pxCpTAuE5GMggfohUqzRr"], "asm": "OP_HASH160 69f376f4e86c089a0eaa9c84dc0ab86212cefa81 OP_EQUAL", "type": "scripthash"}, "value": 0.06304638, "n": 28}, {"scriptPubKey": {"reqSigs": 1, "hex": "a91469f3761a9a895a5732cd77919d0ced076041877f87", "addresses": ["3BMEXgCVfUoxh2aDuH6BECYC9EzVErzLX2"], "asm": "OP_HASH160 69f3761a9a895a5732cd77919d0ced076041877f OP_EQUAL", "type": "scripthash"}, "value": 0.132282, "n": 29}, {"scriptPubKey": {"reqSigs": 1, "hex": "a914acc101d35f785685731a43bbf677e77b8557ba7787", "addresses": ["3HSTMugkd7ymWWvm7xw68aj6AFqsea8Can"], "asm": "OP_HASH160 acc101d35f785685731a43bbf677e77b8557ba77 OP_EQUAL", "type": "scripthash"}, "value": 0.0295, "n": 30}, {"scriptPubKey": {"reqSigs": 1, "hex": "76a914696d73e99f882eb4de08038c68e6ac4f9ac4a6c888ac", "addresses": ["1AcT54BkHmCXoHqXe5ZugYSo4YjqXF6AYA"], "asm": "OP_DUP OP_HASH160 696d73e99f882eb4de08038c68e6ac4f9ac4a6c8 OP_EQUALVERIFY OP_CHECKSIG", "type": "pubkeyhash"}, "value": 0.216926, "n": 31}, {"scriptPubKey": {"reqSigs": 1, "hex": "76a91482cf87857185f6e4ab436a302b470e091301f36688ac", "addresses": ["1CvfTLG4ApenHbPQGoGMkjK32n65x3abrF"], "asm": "OP_DUP OP_HASH160 82cf87857185f6e4ab436a302b470e091301f366 OP_EQUALVERIFY OP_CHECKSIG", "type": "pubkeyhash"}, "value": 0.0045, "n": 32}, {"scriptPubKey": {"reqSigs": 1, "hex": "a91469f3742bfedc0abd822bbd4fb578c0bfbd22ccf687", "addresses": ["3BMEX9nUDecHmTqb3JM8ezS1eEoM3aGmzM"], "asm": "OP_HASH160 69f3742bfedc0abd822bbd4fb578c0bfbd22ccf6 OP_EQUAL", "type": "scripthash"}, "value": 0.6729195, "n": 33}, {"scriptPubKey": {"reqSigs": 1, "hex": "a914acbc47c4b08a68db3b6aaf343ed3d7834fd29dc787", "addresses": ["3HSMhVAAGqMwwG2be6fHi4wZJiPgkxGh9a"], "asm": "OP_HASH160 acbc47c4b08a68db3b6aaf343ed3d7834fd29dc7 OP_EQUAL", "type": "scripthash"}, "value": 0.0320714, "n": 34}, {"scriptPubKey": {"reqSigs": 1, "hex": "a9144b564ae42056325a35b748fe0865a29d242c732987", "addresses": ["38ZMyeCACSnSdtT9Qn3wyEPerY7p6UC1b5"], "asm": "OP_HASH160 4b564ae42056325a35b748fe0865a29d242c7329 OP_EQUAL", "type": "scripthash"}, "value": 0.11907507, "n": 35}, {"scriptPubKey": {"reqSigs": 1, "hex": "a914fe591aa5a26c23978ed0b5d934c30a68a770755a87", "addresses": ["3QstJL4J2TYf674iuvPqZ2niWRRfoet3tR"], "asm": "OP_HASH160 fe591aa5a26c23978ed0b5d934c30a68a770755a OP_EQUAL", "type": "scripthash"}, "value": 0.0095, "n": 36}, {"scriptPubKey": {"reqSigs": 1, "hex": "76a914752d0a7c830e2808d7e751c7201b06ca703c050c88ac", "addresses": ["1Bga1wpHWmRdegfzFr54ZHitNPnzfv3E7j"], "asm": "OP_DUP OP_HASH160 752d0a7c830e2808d7e751c7201b06ca703c050c OP_EQUALVERIFY OP_CHECKSIG", "type": "pubkeyhash"}, "value": 0.03777951, "n": 37}, {"scriptPubKey": {"reqSigs": 1, "hex": "a91435076d16a5336a2cf851b69595becf41c725c01287", "addresses": ["36XQdgofKvtTxig9cxgYjHtsoXTqiwCU4v"], "asm": "OP_HASH160 35076d16a5336a2cf851b69595becf41c725c012 OP_EQUAL", "type": "scripthash"}, "value": 1.66047778, "n": 38}, {"scriptPubKey": {"reqSigs": 1, "hex": "a914a2dd2cd35b0ec7ee0d90c5d22f18f009ae8d9d5f87", "addresses": ["3GYAM8pZAdHNdFEBHSsf6R5mkMgWoitXDv"], "asm": "OP_HASH160 a2dd2cd35b0ec7ee0d90c5d22f18f009ae8d9d5f OP_EQUAL", "type": "scripthash"}, "value": 0.0015, "n": 39}, {"scriptPubKey": {"reqSigs": 1, "hex": "a9147edf9b06d1abc6a92efecbea234165345481cb2687", "addresses": ["3DFrw6sEVp9TiTghZsu2a2QduK1iEjkA8M"], "asm": "OP_HASH160 7edf9b06d1abc6a92efecbea234165345481cb26 OP_EQUAL", "type": "scripthash"}, "value": 0.0995, "n": 40}, {"scriptPubKey": {"reqSigs": 1, "hex": "a91431e6df97977ed5f57d00ba344180c442e6c235c487", "addresses": ["36EscJsek5WGbVrxEQPtuCHpsUGjtELPbT"], "asm": "OP_HASH160 31e6df97977ed5f57d00ba344180c442e6c235c4 OP_EQUAL", "type": "scripthash"}, "value": 0.04029366, "n": 41}, {"scriptPubKey": {"reqSigs": 1, "hex": "76a914de589147eae78546a6b44c354b5e4d66857e7b8288ac", "addresses": ["1MGf7N8oUfvK2TNC1H6GdgLTtt3qbNsmDn"], "asm": "OP_DUP OP_HASH160 de589147eae78546a6b44c354b5e4d66857e7b82 OP_EQUALVERIFY OP_CHECKSIG", "type": "pubkeyhash"}, "value": 0.01767832, "n": 42}, {"scriptPubKey": {"reqSigs": 1, "hex": "76a9149036f4c9331e804b8881d985efe5564993ca43e888ac", "addresses": ["1E9Y93ixTwv5TjfJmcPszERng2a1DkNv27"], "asm": "OP_DUP OP_HASH160 9036f4c9331e804b8881d985efe5564993ca43e8 OP_EQUALVERIFY OP_CHECKSIG", "type": "pubkeyhash"}, "value": 0.06538328, "n": 43}, {"scriptPubKey": {"reqSigs": 1, "hex": "a91436c21fed7ed96604234684320efa20ead9dc5adb87", "addresses": ["36gYxva4rNubjBs1tDzAAhMPjWnt9AxSr5"], "asm": "OP_HASH160 36c21fed7ed96604234684320efa20ead9dc5adb OP_EQUAL", "type": "scripthash"}, "value": 0.0095654, "n": 44}, {"scriptPubKey": {"reqSigs": 1, "hex": "76a914aaccd15cac2820be9680bef86b1a45b29f4de7f888ac", "addresses": ["1Ga7Ebxs6GyX5iy8KdMW4oN6dxZT4dVpuB"], "asm": "OP_DUP OP_HASH160 aaccd15cac2820be9680bef86b1a45b29f4de7f8 OP_EQUALVERIFY OP_CHECKSIG", "type": "pubkeyhash"}, "value": 1.75, "n": 45}, {"scriptPubKey": {"reqSigs": 1, "hex": "76a914103aa7b378c494e1d9ca48219d3c786de57faade88ac", "addresses": ["12Up5Vm3HCdjnZryhnsT3SSjURyuBJgXtn"], "asm": "OP_DUP OP_HASH160 103aa7b378c494e1d9ca48219d3c786de57faade OP_EQUALVERIFY OP_CHECKSIG", "type": "pubkeyhash"}, "value": 0.0305, "n": 46}, {"scriptPubKey": {"reqSigs": 1, "hex": "a9144ef45576d7cc7c055044b3a28235b8f53a16dd9287", "addresses": ["38tVL7tqG8TyyDvgXVqDbXfRdZkN3evedj"], "asm": "OP_HASH160 4ef45576d7cc7c055044b3a28235b8f53a16dd92 OP_EQUAL", "type": "scripthash"}, "value": 0.0077, "n": 47}, {"scriptPubKey": {"reqSigs": 1, "hex": "76a91442339f30176cd07357667696705f5655e7df969488ac", "addresses": ["1733SQgQoGxSySiU7T3tbpsX3UzUUfH1dP"], "asm": "OP_DUP OP_HASH160 42339f30176cd07357667696705f5655e7df9694 OP_EQUALVERIFY OP_CHECKSIG", "type": "pubkeyhash"}, "value": 0.02, "n": 48}, {"scriptPubKey": {"reqSigs": 1, "hex": "76a9149836de8cc3db43146b9baca93f20fcf9e328161e88ac", "addresses": ["1EsqSYhNTXkEm9zJ3Qwscn3bsTzWAvtNK3"], "asm": "OP_DUP OP_HASH160 9836de8cc3db43146b9baca93f20fcf9e328161e OP_EQUALVERIFY OP_CHECKSIG", "type": "pubkeyhash"}, "value": 0.01413142, "n": 49}, {"scriptPubKey": {"reqSigs": 1, "hex": "a91437c190e7e57998e2b7541571d2235c8b8eaec97387", "addresses": ["36mpyJGcAghrzHEMHbUM1JicHrVpfeXx5q"], "asm": "OP_HASH160 37c190e7e57998e2b7541571d2235c8b8eaec973 OP_EQUAL", "type": "scripthash"}, "value": 0.0015, "n": 50}, {"scriptPubKey": {"reqSigs": 1, "hex": "76a914fae13d41670bf57e9241e0a7d2deda6528da99da88ac", "addresses": ["1PsXkriEjFzB6HiiybxYnJpNKeEGbUZ1zC"], "asm": "OP_DUP OP_HASH160 fae13d41670bf57e9241e0a7d2deda6528da99da OP_EQUALVERIFY OP_CHECKSIG", "type": "pubkeyhash"}, "value": 0.00716618, "n": 51}, {"scriptPubKey": {"reqSigs": 1, "hex": "a9146ff78354931f951d16226aad72df39a3613800b787", "addresses": ["3Bu3SLomgxuB3kXZaizSYZbLRyxUAgX3P9"], "asm": "OP_HASH160 6ff78354931f951d16226aad72df39a3613800b7 OP_EQUAL", "type": "scripthash"}, "value": 0.031138, "n": 52}, {"scriptPubKey": {"reqSigs": 1, "hex": "a91477e7ab7585267e084199e6bb864e90eeea0fa83687", "addresses": ["3Cd1s4wo3U8eNbwsQ6r9LkNEp9sjVA3DAe"], "asm": "OP_HASH160 77e7ab7585267e084199e6bb864e90eeea0fa836 OP_EQUAL", "type": "scripthash"}, "value": 0.0295, "n": 53}, {"scriptPubKey": {"reqSigs": 1, "hex": "a914b911386153855609758a773b7cf6f2de1478054e87", "addresses": ["3JZZZWqh3Cd6kRdQu4Afi5boj7pxLgmHvh"], "asm": "OP_HASH160 b911386153855609758a773b7cf6f2de1478054e OP_EQUAL", "type": "scripthash"}, "value": 0.22927, "n": 54}, {"scriptPubKey": {"reqSigs": 1, "hex": "a914b1db2bc496e582062f91bc544791eca1f2642e4b87", "addresses": ["3HuS5mEzWs8A3LDkKsqPp6h8wHJEqMWFNB"], "asm": "OP_HASH160 b1db2bc496e582062f91bc544791eca1f2642e4b OP_EQUAL", "type": "scripthash"}, "value": 0.015764, "n": 55}, {"scriptPubKey": {"reqSigs": 1, "hex": "a91469f375bc6823c6a704ed74c47878f927aad8da1887", "addresses": ["3BMEXaQYKxiRmRDJvbMfjNcouPSC7tgoi8"], "asm": "OP_HASH160 69f375bc6823c6a704ed74c47878f927aad8da18 OP_EQUAL", "type": "scripthash"}, "value": 0.10027825, "n": 56}, {"scriptPubKey": {"reqSigs": 1, "hex": "76a9142a12972f2a90cdc62472f2eb98240b06def7ebac88ac", "addresses": ["14qTekcJ54ADGDjdoafQdREnncwEaKxtwL"], "asm": "OP_DUP OP_HASH160 2a12972f2a90cdc62472f2eb98240b06def7ebac OP_EQUALVERIFY OP_CHECKSIG", "type": "pubkeyhash"}, "value": 0.04115453, "n": 57}, {"scriptPubKey": {"reqSigs": 1, "hex": "76a9145501ecd536f6c524a0f97f4ef777a3876ffeb88488ac", "addresses": ["18kUk4pXU4NF7Zvf7MPxRzKR636Zz1FamZ"], "asm": "OP_DUP OP_HASH160 5501ecd536f6c524a0f97f4ef777a3876ffeb884 OP_EQUALVERIFY OP_CHECKSIG", "type": "pubkeyhash"}, "value": 0.0215, "n": 58}, {"scriptPubKey": {"reqSigs": 1, "hex": "a914a255ed20497b8b50d258b19fb5bb143e4f57705987", "addresses": ["3GVNKt8qyJLrSVwxaYHu3ZCRL9vsNFKV2w"], "asm": "OP_HASH160 a255ed20497b8b50d258b19fb5bb143e4f577059 OP_EQUAL", "type": "scripthash"}, "value": 0.01648316, "n": 59}, {"scriptPubKey": {"reqSigs": 1, "hex": "a91478123e2b501c2e7409613842368e07416c5f349787", "addresses": ["3Cdts6gPZyrfoJ7u1E539s4M8UcAVEA3iZ"], "asm": "OP_HASH160 78123e2b501c2e7409613842368e07416c5f3497 OP_EQUAL", "type": "scripthash"}, "value": 1.99302255, "n": 60}, {"scriptPubKey": {"reqSigs": 1, "hex": "a91469f375221e895fdec6fb31efdfd97b431a2ff63687", "addresses": ["3BMEXQvGnR2oocZPH1iJ45Fz5uVPTa4hsi"], "asm": "OP_HASH160 69f375221e895fdec6fb31efdfd97b431a2ff636 OP_EQUAL", "type": "scripthash"}, "value": 0.4, "n": 61}, {"scriptPubKey": {"reqSigs": 1, "hex": "a91469f3751ebef9f28b8f19dacb9ff15162d9f6798287", "addresses": ["3BMEXQiEzedHpVT35B3KM1XdjhzVHuz7XR"], "asm": "OP_HASH160 69f3751ebef9f28b8f19dacb9ff15162d9f67982 OP_EQUAL", "type": "scripthash"}, "value": 0.00382745, "n": 62}, {"scriptPubKey": {"reqSigs": 1, "hex": "76a914c18c2404e4243732a2cecae822a13f0069fc405e88ac", "addresses": ["1JePJArA8AMcMj8x3WH4QQfjv7uAYTWvMT"], "asm": "OP_DUP OP_HASH160 c18c2404e4243732a2cecae822a13f0069fc405e OP_EQUALVERIFY OP_CHECKSIG", "type": "pubkeyhash"}, "value": 0.01093686, "n": 63}, {"scriptPubKey": {"reqSigs": 1, "hex": "76a91480655e9e17cb686bdde0ef9c118892bc2a42b9fe88ac", "addresses": ["1Chtvqaa3vsPNh4BHQBcAZavnuFg8rvvpR"], "asm": "OP_DUP OP_HASH160 80655e9e17cb686bdde0ef9c118892bc2a42b9fe OP_EQUALVERIFY OP_CHECKSIG", "type": "pubkeyhash"}, "value": 0.0105, "n": 64}, {"scriptPubKey": {"reqSigs": 1, "hex": "76a9145932db315716621185e496dbcbce1eb232bea3d288ac", "addresses": ["198e4dFwwQu2zkf82Xyg76cikKYKYbtqKK"], "asm": "OP_DUP OP_HASH160 5932db315716621185e496dbcbce1eb232bea3d2 OP_EQUALVERIFY OP_CHECKSIG", "type": "pubkeyhash"}, "value": 0.11485835, "n": 65}, {"scriptPubKey": {"reqSigs": 1, "hex": "76a9140da4f6936db6d025092c8c089b24428f30dc926088ac", "addresses": ["12F9QLYaa5vxrfk37Go5uLoybgzJwR5bhS"], "asm": "OP_DUP OP_HASH160 0da4f6936db6d025092c8c089b24428f30dc9260 OP_EQUALVERIFY OP_CHECKSIG", "type": "pubkeyhash"}, "value": 0.0016037, "n": 66}, {"scriptPubKey": {"reqSigs": 1, "hex": "a91469f375d4b636241b503ea7f14abe316e24b8e16987", "addresses": ["3BMEXbuDzfB5tKp4FVKG4rCU87jUSFDQc2"], "asm": "OP_HASH160 69f375d4b636241b503ea7f14abe316e24b8e169 OP_EQUAL", "type": "scripthash"}, "value": 0.14, "n": 67}], "hex": "02000000044625708db8c5a8fb91733e255d0b422425abd70f1980bb2cb39d922592321875000000006b483045022100ff259daba8987be2307943bb2c2f20b39a0a1d96137e0725abc0b9d1a1871a9502206c5958d5cf5c54bd752f26b3e67a14a5e595945de18a8ccb40a63ea703e1a74f012102679a681d9b5bf5c672e0413997762664a17009038674b806bf27dd6b368d9b67feffffff70cd689ab873b88d9ba8138afc463b539a6c0db0918424b7ee8d82a4ba6377f6010000006a47304402206e8a8fb5e5d90f486c0aa9648ce149a7db126bd1b6507ded81e0268dde624b1202205eeebda0b95b5d5a6585595bb7580b7373a92865611db3b45fc2f25b0ab96942012102679a681d9b5bf5c672e0413997762664a17009038674b806bf27dd6b368d9b67feffffff7a67dc0b53964568a23113ae7a044405ac1f1c121e810eeef08ac40c9eef9dd1010000006b483045022100c32e98993aa9538ca00141a9222c440d57472a9fa3417745cfe3869ff65af017022019ebe698abdc3fbe5803d169a379a824686be402c784cfc244d6d285f575df84012102679a681d9b5bf5c672e0413997762664a17009038674b806bf27dd6b368d9b67feffffffe5d88ad400f4bdc705da99dbaf7ec28ed0a3e42c6e1c2c7bdc2b961ddb51341d080000006a4730440220556741b507eaf03311557b8081d47113c4a2c7300382c1af04b46637aff630ee0220684ce648aa753111e6465df34e7d6b1b80ac8eee544c1073c9748d27bee113c20121030b37c912aec68f9789cbe3a431ad453c72125fa4588f9f241c42795686f7431efeffffff44ee2224550000000017a91496c894b9d7d57c01fd58879e718626f54f2ebbbf87706d45000000000017a914ee33401135182b68ab63ba0906e63876cb208b9c874507b700000000001976a914194f9a4ed413a55c71240d063316c25c9f7c101c88acb841ad060000000017a914d5d3e6f4a41b9c7b5040739e3a3bfc8999ffb54e878d170b010000000017a9149efce99ab06112992ee856e0d469ff19213744ed8721727e060000000017a9141221121d78d3aa19fb33cb2e8ee50549a185b84987c05c1500000000001976a914353d1bf9d19cb0c3ed809d67fbcc61a94f29280188acb4e19100000000001976a9142a4d982d9724a3dcaa333b9777deaba294263b7388ac40dd0a00000000001976a914ba5f997f69a684fd918930fae9c4945fc38ec8a388acc0abab0b000000001976a91489f66faf210d35374e3af3c097478a8705232d6088ac30d39700000000001976a914ae64b485c1df083d26b1108e4281747284be419e88ace70b08000000000017a91469e5c6ec00380c7b43390b53aa69e8566d54fb458765d711000000000017a91488669094c8452e78d857e26b8df0e9815b532bb387a8cf9d0b0000000017a914528496a71d0ed8a7e56a5619105ba0ec48d0c20987c118ea000000000017a9141765a04eab41a14f2ac05656155f295b61b490db8700e1f505000000001976a91483d3572fe2f16e0095b94af1c0b8def79aa8baa588ac386f3e000000000017a914f24f81bd67cbaca9e35d5ef2fc60456b23aaec6487ac2c4000000000001976a9149ba0920848ae5dc18a4782ea807246132349ebea88ac60ae0a00000000001976a9145550c9ad915654435cac5534382e6b77f1b5c9ce88acb0feea0b000000001976a91445991e4850cd362b22363b099fe59623dc2ec89788ac3d034c000000000017a91469f374ba95d8d7db6d184d9752caf28c0b7257d587de660b000000000017a9149d400dd566e280184e8d66fa0b9ed400114e8f968760e31600000000001976a9147ec1d8db68b334b9051709e269a5ac25b8d4fef888ace00f97000000000017a91469f3762126f4b9345d8da86bd0f06f3592657ab987d4f107000000000017a91469f37667bb67afb2414e64d0ef519a1a160088af8701dd06000000000017a91469f376a32a367ceed781f35630dde54e0e834469879703ba05000000001976a914f9c2bcb5a8986552491e1c0ce883bd9032cb152188ac44ab2011000000001976a91432093fdc71413d57ee069b66cf1f25206e54fba788ac7e3360000000000017a91469f376f4e86c089a0eaa9c84dc0ab86212cefa8187a8d8c9000000000017a91469f3761a9a895a5732cd77919d0ced076041877f8770032d000000000017a914acc101d35f785685731a43bbf677e77b8557ba7787b8004b01000000001976a914696d73e99f882eb4de08038c68e6ac4f9ac4a6c888acd0dd0600000000001976a91482cf87857185f6e4ab436a302b470e091301f36688ac2ecb02040000000017a91469f3742bfedc0abd822bbd4fb578c0bfbd22ccf687e4ef30000000000017a914acbc47c4b08a68db3b6aaf343ed3d7834fd29dc787b3b1b5000000000017a9144b564ae42056325a35b748fe0865a29d242c732987f07e0e000000000017a914fe591aa5a26c23978ed0b5d934c30a68a770755a879fa53900000000001976a914752d0a7c830e2808d7e751c7201b06ca703c050c88ac22b0e5090000000017a91435076d16a5336a2cf851b69595becf41c725c01287f04902000000000017a914a2dd2cd35b0ec7ee0d90c5d22f18f009ae8d9d5f8730d397000000000017a9147edf9b06d1abc6a92efecbea234165345481cb2687b67b3d000000000017a91431e6df97977ed5f57d00ba344180c442e6c235c48798f91a00000000001976a914de589147eae78546a6b44c354b5e4d66857e7b8288ac58c46300000000001976a9149036f4c9331e804b8881d985efe5564993ca43e888ac7c980e000000000017a91436c21fed7ed96604234684320efa20ead9dc5adb87c0496e0a000000001976a914aaccd15cac2820be9680bef86b1a45b29f4de7f888ac108a2e00000000001976a914103aa7b378c494e1d9ca48219d3c786de57faade88acd0bf0b000000000017a9144ef45576d7cc7c055044b3a28235b8f53a16dd928780841e00000000001976a91442339f30176cd07357667696705f5655e7df969488ac16901500000000001976a9149836de8cc3db43146b9baca93f20fcf9e328161e88acf04902000000000017a91437c190e7e57998e2b7541571d2235c8b8eaec973874aef0a00000000001976a914fae13d41670bf57e9241e0a7d2deda6528da99da88ac48832f000000000017a9146ff78354931f951d16226aad72df39a3613800b78770032d000000000017a91477e7ab7585267e084199e6bb864e90eeea0fa8368798d65d010000000017a914b911386153855609758a773b7cf6f2de1478054e87d00d18000000000017a914b1db2bc496e582062f91bc544791eca1f2642e4b87310399000000000017a91469f375bc6823c6a704ed74c47878f927aad8da1887fdcb3e00000000001976a9142a12972f2a90cdc62472f2eb98240b06def7ebac88ac70ce2000000000001976a9145501ecd536f6c524a0f97f4ef777a3876ffeb88488acbc2619000000000017a914a255ed20497b8b50d258b19fb5bb143e4f577059876f1ce10b0000000017a91478123e2b501c2e7409613842368e07416c5f349787005a62020000000017a91469f375221e895fdec6fb31efdfd97b431a2ff6368719d705000000000017a91469f3751ebef9f28b8f19dacb9ff15162d9f679828736b01000000000001976a914c18c2404e4243732a2cecae822a13f0069fc405e88ac90051000000000001976a91480655e9e17cb686bdde0ef9c118892bc2a42b9fe88ac8b42af00000000001976a9145932db315716621185e496dbcbce1eb232bea3d288ac72720200000000001976a9140da4f6936db6d025092c8c089b24428f30dc926088ac809fd5000000000017a91469f375d4b636241b503ea7f14abe316e24b8e169870e490800", "vin": [{"sequence": 4294967294, "scriptSig": {"hex": "483045022100ff259daba8987be2307943bb2c2f20b39a0a1d96137e0725abc0b9d1a1871a9502206c5958d5cf5c54bd752f26b3e67a14a5e595945de18a8ccb40a63ea703e1a74f012102679a681d9b5bf5c672e0413997762664a17009038674b806bf27dd6b368d9b67", "asm": "3045022100ff259daba8987be2307943bb2c2f20b39a0a1d96137e0725abc0b9d1a1871a9502206c5958d5cf5c54bd752f26b3e67a14a5e595945de18a8ccb40a63ea703e1a74f[ALL] 02679a681d9b5bf5c672e0413997762664a17009038674b806bf27dd6b368d9b67"}, "vout": 0, "txid": "7518329225929db32cbb80190fd7ab2524420b5d253e7391fba8c5b88d702546"}, {"sequence": 4294967294, "scriptSig": {"hex": "47304402206e8a8fb5e5d90f486c0aa9648ce149a7db126bd1b6507ded81e0268dde624b1202205eeebda0b95b5d5a6585595bb7580b7373a92865611db3b45fc2f25b0ab96942012102679a681d9b5bf5c672e0413997762664a17009038674b806bf27dd6b368d9b67", "asm": "304402206e8a8fb5e5d90f486c0aa9648ce149a7db126bd1b6507ded81e0268dde624b1202205eeebda0b95b5d5a6585595bb7580b7373a92865611db3b45fc2f25b0ab96942[ALL] 02679a681d9b5bf5c672e0413997762664a17009038674b806bf27dd6b368d9b67"}, "vout": 1, "txid": "f67763baa4828deeb7248491b00d6c9a533b46fc8a13a89b8db873b89a68cd70"}, {"sequence": 4294967294, "scriptSig": {"hex": "483045022100c32e98993aa9538ca00141a9222c440d57472a9fa3417745cfe3869ff65af017022019ebe698abdc3fbe5803d169a379a824686be402c784cfc244d6d285f575df84012102679a681d9b5bf5c672e0413997762664a17009038674b806bf27dd6b368d9b67", "asm": "3045022100c32e98993aa9538ca00141a9222c440d57472a9fa3417745cfe3869ff65af017022019ebe698abdc3fbe5803d169a379a824686be402c784cfc244d6d285f575df84[ALL] 02679a681d9b5bf5c672e0413997762664a17009038674b806bf27dd6b368d9b67"}, "vout": 1, "txid": "d19def9e0cc48af0ee0e811e121c1fac0544047aae1331a2684596530bdc677a"}, {"sequence": 4294967294, "scriptSig": {"hex": "4730440220556741b507eaf03311557b8081d47113c4a2c7300382c1af04b46637aff630ee0220684ce648aa753111e6465df34e7d6b1b80ac8eee544c1073c9748d27bee113c20121030b37c912aec68f9789cbe3a431ad453c72125fa4588f9f241c42795686f7431e", "asm": "30440220556741b507eaf03311557b8081d47113c4a2c7300382c1af04b46637aff630ee0220684ce648aa753111e6465df34e7d6b1b80ac8eee544c1073c9748d27bee113c2[ALL] 030b37c912aec68f9789cbe3a431ad453c72125fa4588f9f241c42795686f7431e"}, "vout": 8, "txid": "1d3451db1d962bdc7b2c1c6e2ce4a3d08ec27eafdb99da05c7bdf400d48ad8e5"}], "txid": "edd3c74049398b9776af650843c846b0f3566cbf7ba4d76dcfc2c3317811d3c9", "blocktime": 1537870928, "version": 2, "confirmations": 11512, "time": 1537870928, "locktime": 542990, "vsize": 2834, "size": 2834}