{"hash": "1922a6ef6d4c24b35fd58a1489117815001f669c332701646637da07c3ade063", "blockhash": "0000000000000000001cda96e906b7601b7a6fb1a3b62bca570a9e5d8f4b3de1", "vout": [{"scriptPubKey": {"reqSigs": 1, "hex": "a9146a29a80a2f2f9dd7590c6c6d87a569afefb9e8d987", "addresses": ["3BNMTDTRJLkfu2AX7e4u9FCyeymXHk428T"], "asm": "OP_HASH160 6a29a80a2f2f9dd7590c6c6d87a569afefb9e8d9 OP_EQUAL", "type": "scripthash"}, "value": 0.004, "n": 0}, {"scriptPubKey": {"reqSigs": 1, "hex": "a9149cb626ded1b37226ed43aea96f03f8017ab5a2b387", "addresses": ["3FydYboVBaGyjYDgqVpxfNbjcbJRRskQsP"], "asm": "OP_HASH160 9cb626ded1b37226ed43aea96f03f8017ab5a2b3 OP_EQUAL", "type": "scripthash"}, "value": 0.22883507, "n": 1}], "hex": "01000000000101e72c39fd2a40d63666ee20fd14a482c4a6f4adb1df53b6e30d488112afb9fdaa01000000232200204424e1c9e98c5f2e17061827f94f28251ee51763904fb5d3b6cfda83630b9909ffffffff02801a06000000000017a9146a29a80a2f2f9dd7590c6c6d87a569afefb9e8d987b32c5d010000000017a9149cb626ded1b37226ed43aea96f03f8017ab5a2b387040047304402203704b9c60d434565a18d8ec28aeed186d755e392f2b73201f15d6c995e00fd2f02201256c53332167729d109c879479bbc1ba057850cdedc9c8ef47291484bdf988e01473044022049881361747f5b137676ba9fea26c54a62a94232a2fcfbd3c9231c3ec51cf0150220333be4786fb96267698a4f982d03be7dde7e78243bca5218b9aa6e687414e0b70147522103493a03b75d216b5167b49d8c6894f3d51bf6c70d8cc3ba51090b3f39b180cdda2103f62b1d27158b53be9caeae920614d9c61c0d4e3ab8a2b8afbc8e020933c6e68352ae00000000", "vin": [{"txinwitness": ["", "304402203704b9c60d434565a18d8ec28aeed186d755e392f2b73201f15d6c995e00fd2f02201256c53332167729d109c879479bbc1ba057850cdedc9c8ef47291484bdf988e01", "3044022049881361747f5b137676ba9fea26c54a62a94232a2fcfbd3c9231c3ec51cf0150220333be4786fb96267698a4f982d03be7dde7e78243bca5218b9aa6e687414e0b701", "522103493a03b75d216b5167b49d8c6894f3d51bf6c70d8cc3ba51090b3f39b180cdda2103f62b1d27158b53be9caeae920614d9c61c0d4e3ab8a2b8afbc8e020933c6e68352ae"], "sequence": 4294967295, "scriptSig": {"hex": "2200204424e1c9e98c5f2e17061827f94f28251ee51763904fb5d3b6cfda83630b9909", "asm": "00204424e1c9e98c5f2e17061827f94f28251ee51763904fb5d3b6cfda83630b9909"}, "vout": 1, "txid": "aafdb9af1281480de3b653dfb1adf4a6c482a414fd20ee6636d6402afd392ce7"}], "txid": "edd45c03fe987092bd2f1a91be70bf0f5a56201adaa814a43365242ee8741cba", "blocktime": 1537873282, "version": 1, "confirmations": 11484, "time": 1537873282, "locktime": 0, "vsize": 205, "size": 370}