{"hash": "edd8370b9b29af1c1314b83c852941bd5bb896456b9b69f2622b307485b897aa", "blockhash": "0000000000000000001f76057863aec43deb6fa401d9628bb513d65a8098bfab", "vout": [{"scriptPubKey": {"reqSigs": 1, "hex": "76a91448b9faed4e82c49792d7cb8e2b9e737d22e7a3a288ac", "addresses": ["17dYSwc9Cx6aPrv8YA6nsvo6qWGoZe5Zh8"], "asm": "OP_DUP OP_HASH160 48b9faed4e82c49792d7cb8e2b9e737d22e7a3a2 OP_EQUALVERIFY OP_CHECKSIG", "type": "pubkeyhash"}, "value": 0.00162601, "n": 0}, {"scriptPubKey": {"reqSigs": 1, "hex": "76a9141953da8316268a4bf15d582192b97e884071930b88ac", "addresses": ["13JvM3X8YVtVrdBqT53X3wxppNjbeABewA"], "asm": "OP_DUP OP_HASH160 1953da8316268a4bf15d582192b97e884071930b OP_EQUALVERIFY OP_CHECKSIG", "type": "pubkeyhash"}, "value": 0.01896029, "n": 1}], "hex": "010000000cf87949223af396bcf1f88c8dcf7da8a0c721530a9c437eba056c7501a677dd02030000006b483045022100fb02cfe78c56f14a437e846503894eb05a6f7bc3e552a5f71b492cbee8d766c3022053bacd33139069f8e74350ee87bc61e184587683bc53322f128f08d4163ed74701210352a5a7395c80c410a0621933d20d01e1773b70901be81e4222cda8a36faabd71ffffffff6cfc19f4421e7aff5304087bda5bb05212a136c5495e229d65225fc93724ab32050000006a47304402201c86418b74308f971c69388bb9aaa29523817a1eda731c85d152a3f3997605e802206d60f8ce2748463f14eea8f8e1446f143d43759475231a781e4c9a3e14562ba001210352a5a7395c80c410a0621933d20d01e1773b70901be81e4222cda8a36faabd71ffffffffdcec5a8ec7cc69c8c00594a77011556c8a31bda965a622e4b87a91781cb3ea32000000006a47304402200b2d8908575be6659f2faaed30d3dcdb2494cf9eef3a51407763e5c46270117402205deb533a6ed4ca6430cec30ab9b1e99297654313fddad8d7a9fdaec02eaae6200121035287cb2a2c8a8a7f9a0bb07740002ee865e86dc0d19d8375d0be7ded010cd7a2ffffffff964e35223419c101cbb1f154aef8f3980342333a12533d9e2732097d1f42a64a030000006b483045022100a7e8b22ddf2cc14bbe8690ba908eddeda2d9f9a9a4edaf4e1a36b29ee83aafc302201a98c5108bc4fcaac29af03fbb7db938b2c19cef5548b3483760fc9d1aa3e3c501210352a5a7395c80c410a0621933d20d01e1773b70901be81e4222cda8a36faabd71ffffffff890b351f37e8d87cb0d419a501a450ea6f1b40b2668bf350330b74643efe7058010000006b483045022100fdbefbfe941ca4695f3245e40b4427371484492ebe38772762db357d52fe98ad022070a41e97e043118d6f419c10fbfd941c21f0b7557d1931d018eb9e12b13d02ba01210352a5a7395c80c410a0621933d20d01e1773b70901be81e4222cda8a36faabd71ffffffff104c0678ed12d36e70323f5bdf22be819f5510b27ee1899c1fd8b74e662d8758020000006b483045022100e174a6cefafe53b110322af8836be51a2c1903615ce0f60c2cc6d79879393c78022027be5a7a86ec5c1bea5fd0e06aaef362025c44598305816b465019379c27a52201210352a5a7395c80c410a0621933d20d01e1773b70901be81e4222cda8a36faabd71ffffffff6ed16bd53f765baff4cca5d7da91a3ffa064d6baa69232a516988f1cc2c78159000000006a47304402204b3e2163dcf5afc636d56b96817e1103020d8d1cf20b1087eb2db92b11081c5b022026eb2fdde304ddcd4e938aa4cba0a656d2602dd289ad6ee3ebaa7911fd8771a601210352a5a7395c80c410a0621933d20d01e1773b70901be81e4222cda8a36faabd71ffffffff47e4d0af08d8bb009b1ce2e555b66f573dcfa99b93ebc5994231bc0e9e11928f010000006b483045022100f055e7acf2b848219e58c08626858891f362bf1c577523217f40522d848aa0620220211f44e8f3df71cf941db05f5a58867d7890d9bc99eae9956d0e856f2453050201210352a5a7395c80c410a0621933d20d01e1773b70901be81e4222cda8a36faabd71ffffffffee7bda754b116c1bd16192c893d1845bb03461246e90c7d49ee3d6e7c67a2a99000000006a47304402207917fbf9ad57c89dfa893b88f520bc7ee48e805c4b27252ae08febb532347d30022046994f1c56c030b28e4543462af23f71f943b0d9065f502b83fe322032cd607601210352a5a7395c80c410a0621933d20d01e1773b70901be81e4222cda8a36faabd71ffffffff9fd262b2275d65a9af667f66eb4f9e4318888889b156d5065d3a6b5c9fb325b5000000006a473044022000b4bd5fc05fd022bff6c7965d06b15ef00ded4a3bfdc1664eeb9696e5d5b68e02202717796469bc24ab61bff65a46890ecaac011d73ed10bb5e14e46eca3a32537101210352a5a7395c80c410a0621933d20d01e1773b70901be81e4222cda8a36faabd71ffffffff3c0a0e082cb1ce0b1e5734880ed98526c101514c3248c6eed0eb9dfa6bb5fcf5000000006b483045022100ac2863bb332f0471696495c3089e632d34f8550fc63c0b65c2dcb12bd92c4374022041b8ef99e20ca944bed5653eb6c7c83969ebdbd7ab75d0a865f3469feb504e4c01210352a5a7395c80c410a0621933d20d01e1773b70901be81e4222cda8a36faabd71ffffffffde7bab74f79b0538e1a7d18e181af79fda36416d348c3e18b0978420e5ad86ff000000006b483045022100edd2cc6a0ff16e35183a801c7190daec7c499b8b8ed4bbb58a4e4e1b3867da3302200478042c30df315be26a216d21e18028c01f43ba8ca8962eacb0d8e5190d1a4d01210352a5a7395c80c410a0621933d20d01e1773b70901be81e4222cda8a36faabd71ffffffff02297b0200000000001976a91448b9faed4e82c49792d7cb8e2b9e737d22e7a3a288ac5dee1c00000000001976a9141953da8316268a4bf15d582192b97e884071930b88ac00000000", "vin": [{"sequence": 4294967295, "scriptSig": {"hex": "483045022100fb02cfe78c56f14a437e846503894eb05a6f7bc3e552a5f71b492cbee8d766c3022053bacd33139069f8e74350ee87bc61e184587683bc53322f128f08d4163ed74701210352a5a7395c80c410a0621933d20d01e1773b70901be81e4222cda8a36faabd71", "asm": "3045022100fb02cfe78c56f14a437e846503894eb05a6f7bc3e552a5f71b492cbee8d766c3022053bacd33139069f8e74350ee87bc61e184587683bc53322f128f08d4163ed747[ALL] 0352a5a7395c80c410a0621933d20d01e1773b70901be81e4222cda8a36faabd71"}, "vout": 3, "txid": "02dd77a601756c05ba7e439c0a5321c7a0a87dcf8d8cf8f1bc96f33a224979f8"}, {"sequence": 4294967295, "scriptSig": {"hex": "47304402201c86418b74308f971c69388bb9aaa29523817a1eda731c85d152a3f3997605e802206d60f8ce2748463f14eea8f8e1446f143d43759475231a781e4c9a3e14562ba001210352a5a7395c80c410a0621933d20d01e1773b70901be81e4222cda8a36faabd71", "asm": "304402201c86418b74308f971c69388bb9aaa29523817a1eda731c85d152a3f3997605e802206d60f8ce2748463f14eea8f8e1446f143d43759475231a781e4c9a3e14562ba0[ALL] 0352a5a7395c80c410a0621933d20d01e1773b70901be81e4222cda8a36faabd71"}, "vout": 5, "txid": "32ab2437c95f22659d225e49c536a11252b05bda7b080453ff7a1e42f419fc6c"}, {"sequence": 4294967295, "scriptSig": {"hex": "47304402200b2d8908575be6659f2faaed30d3dcdb2494cf9eef3a51407763e5c46270117402205deb533a6ed4ca6430cec30ab9b1e99297654313fddad8d7a9fdaec02eaae6200121035287cb2a2c8a8a7f9a0bb07740002ee865e86dc0d19d8375d0be7ded010cd7a2", "asm": "304402200b2d8908575be6659f2faaed30d3dcdb2494cf9eef3a51407763e5c46270117402205deb533a6ed4ca6430cec30ab9b1e99297654313fddad8d7a9fdaec02eaae620[ALL] 035287cb2a2c8a8a7f9a0bb07740002ee865e86dc0d19d8375d0be7ded010cd7a2"}, "vout": 0, "txid": "32eab31c78917ab8e422a665a9bd318a6c551170a79405c0c869ccc78e5aecdc"}, {"sequence": 4294967295, "scriptSig": {"hex": "483045022100a7e8b22ddf2cc14bbe8690ba908eddeda2d9f9a9a4edaf4e1a36b29ee83aafc302201a98c5108bc4fcaac29af03fbb7db938b2c19cef5548b3483760fc9d1aa3e3c501210352a5a7395c80c410a0621933d20d01e1773b70901be81e4222cda8a36faabd71", "asm": "3045022100a7e8b22ddf2cc14bbe8690ba908eddeda2d9f9a9a4edaf4e1a36b29ee83aafc302201a98c5108bc4fcaac29af03fbb7db938b2c19cef5548b3483760fc9d1aa3e3c5[ALL] 0352a5a7395c80c410a0621933d20d01e1773b70901be81e4222cda8a36faabd71"}, "vout": 3, "txid": "4aa6421f7d0932279e3d53123a33420398f3f8ae54f1b1cb01c1193422354e96"}, {"sequence": 4294967295, "scriptSig": {"hex": "483045022100fdbefbfe941ca4695f3245e40b4427371484492ebe38772762db357d52fe98ad022070a41e97e043118d6f419c10fbfd941c21f0b7557d1931d018eb9e12b13d02ba01210352a5a7395c80c410a0621933d20d01e1773b70901be81e4222cda8a36faabd71", "asm": "3045022100fdbefbfe941ca4695f3245e40b4427371484492ebe38772762db357d52fe98ad022070a41e97e043118d6f419c10fbfd941c21f0b7557d1931d018eb9e12b13d02ba[ALL] 0352a5a7395c80c410a0621933d20d01e1773b70901be81e4222cda8a36faabd71"}, "vout": 1, "txid": "5870fe3e64740b3350f38b66b2401b6fea50a401a519d4b07cd8e8371f350b89"}, {"sequence": 4294967295, "scriptSig": {"hex": "483045022100e174a6cefafe53b110322af8836be51a2c1903615ce0f60c2cc6d79879393c78022027be5a7a86ec5c1bea5fd0e06aaef362025c44598305816b465019379c27a52201210352a5a7395c80c410a0621933d20d01e1773b70901be81e4222cda8a36faabd71", "asm": "3045022100e174a6cefafe53b110322af8836be51a2c1903615ce0f60c2cc6d79879393c78022027be5a7a86ec5c1bea5fd0e06aaef362025c44598305816b465019379c27a522[ALL] 0352a5a7395c80c410a0621933d20d01e1773b70901be81e4222cda8a36faabd71"}, "vout": 2, "txid": "58872d664eb7d81f9c89e17eb210559f81be22df5b3f32706ed312ed78064c10"}, {"sequence": 4294967295, "scriptSig": {"hex": "47304402204b3e2163dcf5afc636d56b96817e1103020d8d1cf20b1087eb2db92b11081c5b022026eb2fdde304ddcd4e938aa4cba0a656d2602dd289ad6ee3ebaa7911fd8771a601210352a5a7395c80c410a0621933d20d01e1773b70901be81e4222cda8a36faabd71", "asm": "304402204b3e2163dcf5afc636d56b96817e1103020d8d1cf20b1087eb2db92b11081c5b022026eb2fdde304ddcd4e938aa4cba0a656d2602dd289ad6ee3ebaa7911fd8771a6[ALL] 0352a5a7395c80c410a0621933d20d01e1773b70901be81e4222cda8a36faabd71"}, "vout": 0, "txid": "5981c7c21c8f9816a53292a6bad664a0ffa391dad7a5ccf4af5b763fd56bd16e"}, {"sequence": 4294967295, "scriptSig": {"hex": "483045022100f055e7acf2b848219e58c08626858891f362bf1c577523217f40522d848aa0620220211f44e8f3df71cf941db05f5a58867d7890d9bc99eae9956d0e856f2453050201210352a5a7395c80c410a0621933d20d01e1773b70901be81e4222cda8a36faabd71", "asm": "3045022100f055e7acf2b848219e58c08626858891f362bf1c577523217f40522d848aa0620220211f44e8f3df71cf941db05f5a58867d7890d9bc99eae9956d0e856f24530502[ALL] 0352a5a7395c80c410a0621933d20d01e1773b70901be81e4222cda8a36faabd71"}, "vout": 1, "txid": "8f92119e0ebc314299c5eb939ba9cf3d576fb655e5e21c9b00bbd808afd0e447"}, {"sequence": 4294967295, "scriptSig": {"hex": "47304402207917fbf9ad57c89dfa893b88f520bc7ee48e805c4b27252ae08febb532347d30022046994f1c56c030b28e4543462af23f71f943b0d9065f502b83fe322032cd607601210352a5a7395c80c410a0621933d20d01e1773b70901be81e4222cda8a36faabd71", "asm": "304402207917fbf9ad57c89dfa893b88f520bc7ee48e805c4b27252ae08febb532347d30022046994f1c56c030b28e4543462af23f71f943b0d9065f502b83fe322032cd6076[ALL] 0352a5a7395c80c410a0621933d20d01e1773b70901be81e4222cda8a36faabd71"}, "vout": 0, "txid": "992a7ac6e7d6e39ed4c7906e246134b05b84d193c89261d11b6c114b75da7bee"}, {"sequence": 4294967295, "scriptSig": {"hex": "473044022000b4bd5fc05fd022bff6c7965d06b15ef00ded4a3bfdc1664eeb9696e5d5b68e02202717796469bc24ab61bff65a46890ecaac011d73ed10bb5e14e46eca3a32537101210352a5a7395c80c410a0621933d20d01e1773b70901be81e4222cda8a36faabd71", "asm": "3044022000b4bd5fc05fd022bff6c7965d06b15ef00ded4a3bfdc1664eeb9696e5d5b68e02202717796469bc24ab61bff65a46890ecaac011d73ed10bb5e14e46eca3a325371[ALL] 0352a5a7395c80c410a0621933d20d01e1773b70901be81e4222cda8a36faabd71"}, "vout": 0, "txid": "b525b39f5c6b3a5d06d556b189888818439e4feb667f66afa9655d27b262d29f"}, {"sequence": 4294967295, "scriptSig": {"hex": "483045022100ac2863bb332f0471696495c3089e632d34f8550fc63c0b65c2dcb12bd92c4374022041b8ef99e20ca944bed5653eb6c7c83969ebdbd7ab75d0a865f3469feb504e4c01210352a5a7395c80c410a0621933d20d01e1773b70901be81e4222cda8a36faabd71", "asm": "3045022100ac2863bb332f0471696495c3089e632d34f8550fc63c0b65c2dcb12bd92c4374022041b8ef99e20ca944bed5653eb6c7c83969ebdbd7ab75d0a865f3469feb504e4c[ALL] 0352a5a7395c80c410a0621933d20d01e1773b70901be81e4222cda8a36faabd71"}, "vout": 0, "txid": "f5fcb56bfa9debd0eec648324c5101c12685d90e8834571e0bceb12c080e0a3c"}, {"sequence": 4294967295, "scriptSig": {"hex": "483045022100edd2cc6a0ff16e35183a801c7190daec7c499b8b8ed4bbb58a4e4e1b3867da3302200478042c30df315be26a216d21e18028c01f43ba8ca8962eacb0d8e5190d1a4d01210352a5a7395c80c410a0621933d20d01e1773b70901be81e4222cda8a36faabd71", "asm": "3045022100edd2cc6a0ff16e35183a801c7190daec7c499b8b8ed4bbb58a4e4e1b3867da3302200478042c30df315be26a216d21e18028c01f43ba8ca8962eacb0d8e5190d1a4d[ALL] 0352a5a7395c80c410a0621933d20d01e1773b70901be81e4222cda8a36faabd71"}, "vout": 0, "txid": "ff86ade5208497b0183e8c346d4136da9ff71a188ed1a7e138059bf774ab7bde"}], "txid": "edd8370b9b29af1c1314b83c852941bd5bb896456b9b69f2622b307485b897aa", "blocktime": 1537873891, "version": 1, "confirmations": 11478, "time": 1537873891, "locktime": 0, "vsize": 1849, "size": 1849}