{"hash": "72c838a263041997bd3f340ba7c3e58a16151eb64eaee9e132cb64eee1195537", "blockhash": "00000000000000000017f5eb5941039fbcee6240d03bc1f2f8e35350df66a1d8", "vout": [{"scriptPubKey": {"reqSigs": 1, "hex": "76a914ebd9c347cfa97312b8d0b2a7f94145c5fb252c8188ac", "addresses": ["1NW4fWLMkGs8SFF6GjT78dhpjVuyCJ46oE"], "asm": "OP_DUP OP_HASH160 ebd9c347cfa97312b8d0b2a7f94145c5fb252c81 OP_EQUALVERIFY OP_CHECKSIG", "type": "pubkeyhash"}, "value": 0.00643, "n": 0}, {"scriptPubKey": {"reqSigs": 1, "hex": "a9143d54c3bb3d9d2e78a02a818b0934809b1f652eea87", "addresses": ["37HJgnrUumEL5vfN2CCpKpq64poHoNgxEo"], "asm": "OP_HASH160 3d54c3bb3d9d2e78a02a818b0934809b1f652eea OP_EQUAL", "type": "scripthash"}, "value": 0.03915025, "n": 1}], "hex": "010000000001039cb2e8217d81b7620b9fed88bc956734fe2b949f41968bf70e5b1ab4106ad4f4010000002322002037b6115672eab602f8995c2147ee955433864aedab385bfe7dea4d0830e11dbdffffffff4d62905e1fec8121cb9c368aa1b15f090b7b1e7fb547fec67fcebd51068b93450100000023220020adad52c4b375b5ffbea2c1ab18210fedbfb9e611937a2ca052cbc4599f0b68fdffffffff807d3e9c982e6abfe9f4d0185efa144912d1502e7990ebc9107fef99c3654995010000002322002065391d3b0e507bf1d33ee291c42f9e9f1d55e6a26b2d41175d1e21517c3b7ff3ffffffff02b8cf0900000000001976a914ebd9c347cfa97312b8d0b2a7f94145c5fb252c8188ac11bd3b000000000017a9143d54c3bb3d9d2e78a02a818b0934809b1f652eea87040047304402201b0886b6b8379123911bca0543ccb079a6019c2c0c4729e12de3787ee0a685d20220167f3d586f954332e9bb27bb74320b65bfa9ec7118b527270321623d829632b301473044022013757255dc0e1ef667c76d881b1307beb9342d81bab288c8dbd8b179e13d15610220331d1d0c597bfce1007917a0838e8fa57317c9ef4074e58f5129fadfd398abed0147522102bd2889387a72ea52a18e4a757dfaa05479b236f53e1b349457cee0ff174ffbe4210292d679353fa4a760eaad69284c09d063a1fd1a15ad8c70e83dbf86f7063f8c1852ae0400473044022004398c796789fe26dfa6dc4aaa0b2e72fd02a4c1142274039e52ed098155b80202205128cf5a515b93d46ca689566db25713c751d14a8fb14239f9ceb1681bdf365e014730440220753c47db52d2a83bf2f67fc44e000a09a12e0df4d98f8ed67931a2995a8c9a7902206049bba2275bc609e4d27808231de4e7fe78d13d978c1a24a5a576ff7e081fd00147522102e71a10af23a971209e365fb06a2695c342050cd077da20b63510ddd497c62494210292d679353fa4a760eaad69284c09d063a1fd1a15ad8c70e83dbf86f7063f8c1852ae0400483045022100d1b87acb07e73cc66baab6a8147d301ab7f605595b40ded76c28ccb456488f1002204cb3075c5a2fc1ff82e97cf09002eb6d2f8da0401c376f78e01715de4854f59601473044022071427d4682b7229f2f2ff269c6525d839ca72cdda0699913a7365ef85c4105ef02207d46f24c427cbe52bfa26f2c18d652e12ae869ffb78165101cca2ce623e0c7390147522102ad804bad8b3e37d36d530bf165e348480f93e0e61c0eb6c1e8d5154ba0cf665e210292d679353fa4a760eaad69284c09d063a1fd1a15ad8c70e83dbf86f7063f8c1852ae00000000", "vin": [{"txinwitness": ["", "304402201b0886b6b8379123911bca0543ccb079a6019c2c0c4729e12de3787ee0a685d20220167f3d586f954332e9bb27bb74320b65bfa9ec7118b527270321623d829632b301", "3044022013757255dc0e1ef667c76d881b1307beb9342d81bab288c8dbd8b179e13d15610220331d1d0c597bfce1007917a0838e8fa57317c9ef4074e58f5129fadfd398abed01", "522102bd2889387a72ea52a18e4a757dfaa05479b236f53e1b349457cee0ff174ffbe4210292d679353fa4a760eaad69284c09d063a1fd1a15ad8c70e83dbf86f7063f8c1852ae"], "sequence": 4294967295, "scriptSig": {"hex": "22002037b6115672eab602f8995c2147ee955433864aedab385bfe7dea4d0830e11dbd", "asm": "002037b6115672eab602f8995c2147ee955433864aedab385bfe7dea4d0830e11dbd"}, "vout": 1, "txid": "f4d46a10b41a5b0ef78b96419f942bfe346795bc88ed9f0b62b7817d21e8b29c"}, {"txinwitness": ["", "3044022004398c796789fe26dfa6dc4aaa0b2e72fd02a4c1142274039e52ed098155b80202205128cf5a515b93d46ca689566db25713c751d14a8fb14239f9ceb1681bdf365e01", "30440220753c47db52d2a83bf2f67fc44e000a09a12e0df4d98f8ed67931a2995a8c9a7902206049bba2275bc609e4d27808231de4e7fe78d13d978c1a24a5a576ff7e081fd001", "522102e71a10af23a971209e365fb06a2695c342050cd077da20b63510ddd497c62494210292d679353fa4a760eaad69284c09d063a1fd1a15ad8c70e83dbf86f7063f8c1852ae"], "sequence": 4294967295, "scriptSig": {"hex": "220020adad52c4b375b5ffbea2c1ab18210fedbfb9e611937a2ca052cbc4599f0b68fd", "asm": "0020adad52c4b375b5ffbea2c1ab18210fedbfb9e611937a2ca052cbc4599f0b68fd"}, "vout": 1, "txid": "45938b0651bdce7fc6fe47b57f1e7b0b095fb1a18a369ccb2181ec1f5e90624d"}, {"txinwitness": ["", "3045022100d1b87acb07e73cc66baab6a8147d301ab7f605595b40ded76c28ccb456488f1002204cb3075c5a2fc1ff82e97cf09002eb6d2f8da0401c376f78e01715de4854f59601", "3044022071427d4682b7229f2f2ff269c6525d839ca72cdda0699913a7365ef85c4105ef02207d46f24c427cbe52bfa26f2c18d652e12ae869ffb78165101cca2ce623e0c73901", "522102ad804bad8b3e37d36d530bf165e348480f93e0e61c0eb6c1e8d5154ba0cf665e210292d679353fa4a760eaad69284c09d063a1fd1a15ad8c70e83dbf86f7063f8c1852ae"], "sequence": 4294967295, "scriptSig": {"hex": "22002065391d3b0e507bf1d33ee291c42f9e9f1d55e6a26b2d41175d1e21517c3b7ff3", "asm": "002065391d3b0e507bf1d33ee291c42f9e9f1d55e6a26b2d41175d1e21517c3b7ff3"}, "vout": 1, "txid": "954965c399ef7f10c9eb90792e50d1124914fa5e18d0f4e9bf6a2e989c3e7d80"}], "txid": "eddc83e98c1eec92f6e34e3a3d5a86dc5972d4a4efd2ad97b6259d3d4dbf2af1", "blocktime": 1537874412, "version": 1, "confirmations": 11467, "time": 1537874412, "locktime": 0, "vsize": 469, "size": 961}