{"hash": "e6c3abd7341969a3288c4389eb79b6ea089e7979f8867b1b6918fdb2abce3f9a", "blockhash": "0000000000000000001f76057863aec43deb6fa401d9628bb513d65a8098bfab", "vout": [{"scriptPubKey": {"reqSigs": 1, "hex": "a914193ee5214d318ed8572f561b88aea7a50e72a18587", "addresses": ["33zWAN2wd87A3ZkpERKviypdfawqBi31Ys"], "asm": "OP_HASH160 193ee5214d318ed8572f561b88aea7a50e72a185 OP_EQUAL", "type": "scripthash"}, "value": 0.01203229, "n": 0}, {"scriptPubKey": {"reqSigs": 1, "hex": "a914f63bb6144b8ba314665e905d68a6b863b413506487", "addresses": ["3Q8ygYX2PveH6brLdsm4qEVBn2UwCkhtF3"], "asm": "OP_HASH160 f63bb6144b8ba314665e905d68a6b863b4135064 OP_EQUAL", "type": "scripthash"}, "value": 0.9995, "n": 1}], "hex": "020000000001021b4d962abc88d854c83b6a9532587f60c1a0f16eabc15358a16d1a65d88f626f0100000017160014f567e5840c2567c60c8a76dedb7297239c28ec5cfeffffff9320229491b6f6a56707faca18110cc2f9082582c78c7495b5570059a6c5c5880000000017160014c877277c127f0f0298aafae5ea890f637fbaa91bfeffffff021d5c12000000000017a914193ee5214d318ed8572f561b88aea7a50e72a18587b01df5050000000017a914f63bb6144b8ba314665e905d68a6b863b4135064870247304402204cd0b9a9b4ac0f5f2067c0cbf57e67d13b8d25b3ff74e984bc4ac6ee10585e790220041b29af1c071baa69cddcbc2f051f04c7801277ccab392c520707d6950f52ce012103efdff5279be918ea60ad5a64d407ac28e4c2fa03855557418cfc8e5b7e46de64024830450221008b302c27a26ed3509a6c1c7a4803ffc2ebb02e42cb78a1f4d256313c247ea9d802203065476d9826aa17769a8374c891ac034fd9869ea3733b7d332b567baae92243012102d284f1b662526f71ac907beb4689e181a474c2d1dd5a76be318e54531a0feeaa14490800", "vin": [{"txinwitness": ["304402204cd0b9a9b4ac0f5f2067c0cbf57e67d13b8d25b3ff74e984bc4ac6ee10585e790220041b29af1c071baa69cddcbc2f051f04c7801277ccab392c520707d6950f52ce01", "03efdff5279be918ea60ad5a64d407ac28e4c2fa03855557418cfc8e5b7e46de64"], "sequence": 4294967294, "scriptSig": {"hex": "160014f567e5840c2567c60c8a76dedb7297239c28ec5c", "asm": "0014f567e5840c2567c60c8a76dedb7297239c28ec5c"}, "vout": 1, "txid": "6f628fd8651a6da15853c1ab6ef1a0c1607f5832956a3bc854d888bc2a964d1b"}, {"txinwitness": ["30450221008b302c27a26ed3509a6c1c7a4803ffc2ebb02e42cb78a1f4d256313c247ea9d802203065476d9826aa17769a8374c891ac034fd9869ea3733b7d332b567baae9224301", "02d284f1b662526f71ac907beb4689e181a474c2d1dd5a76be318e54531a0feeaa"], "sequence": 4294967294, "scriptSig": {"hex": "160014c877277c127f0f0298aafae5ea890f637fbaa91b", "asm": "0014c877277c127f0f0298aafae5ea890f637fbaa91b"}, "vout": 0, "txid": "88c5c5a6590057b595748cc7822508f9c20c1118cafa0767a5f6b69194222093"}], "txid": "edde0865449df0f29cdd68b5e6b45b2c8f3db98e4a79b60a882d9dc2c9dbb2cd", "blocktime": 1537873891, "version": 2, "confirmations": 11475, "time": 1537873891, "locktime": 542996, "vsize": 257, "size": 419}