{"hash": "7d2caa6739701e2af3d53683d0ff7b905ee2f24f4b7c30b2e88be204e5754005", "blockhash": "0000000000000000001cda96e906b7601b7a6fb1a3b62bca570a9e5d8f4b3de1", "vout": [{"scriptPubKey": {"reqSigs": 1, "hex": "76a9145a7f36993e791df0d8dd615840ae9c2a6e75ed0688ac", "addresses": ["19FWDCVQQMSxk7hBy3MKEQS4hJTk933jQe"], "asm": "OP_DUP OP_HASH160 5a7f36993e791df0d8dd615840ae9c2a6e75ed06 OP_EQUALVERIFY OP_CHECKSIG", "type": "pubkeyhash"}, "value": 0.1, "n": 0}, {"scriptPubKey": {"reqSigs": 1, "hex": "a9147061818c02618549c38b406a95260170a016d16e87", "addresses": ["3BwEQsG6ZSBM85J4dy2KVLLrfj9TTyakzC"], "asm": "OP_HASH160 7061818c02618549c38b406a95260170a016d16e OP_EQUAL", "type": "scripthash"}, "value": 0.31983954, "n": 1}], "hex": "0200000000010111a54fbf5bcb5b2933179d16ce163bdd74ab3b93e4bb579f30da1f108939bd63010000001716001461e1fcf9f9cf1958ad562aead9c5a4cf4b0ebbb8feffffff0280969800000000001976a9145a7f36993e791df0d8dd615840ae9c2a6e75ed0688ac5209e8010000000017a9147061818c02618549c38b406a95260170a016d16e8702473044022060a0c1f003d9bf846cacdf70678d13cccb2e7b8806264d125b4d77e9144ad77a0220693f15bcd6d7a3b5b09a36c0bfc7d9f2cd801bbd2b939f7e15076ba6b1be4dcb012103c417c338fba18bd86808ebd6f8bf50b7aa4292216a24f46fd4b31bdbf773f621d5480800", "vin": [{"txinwitness": ["3044022060a0c1f003d9bf846cacdf70678d13cccb2e7b8806264d125b4d77e9144ad77a0220693f15bcd6d7a3b5b09a36c0bfc7d9f2cd801bbd2b939f7e15076ba6b1be4dcb01", "03c417c338fba18bd86808ebd6f8bf50b7aa4292216a24f46fd4b31bdbf773f621"], "sequence": 4294967294, "scriptSig": {"hex": "16001461e1fcf9f9cf1958ad562aead9c5a4cf4b0ebbb8", "asm": "001461e1fcf9f9cf1958ad562aead9c5a4cf4b0ebbb8"}, "vout": 1, "txid": "63bd3989101fda309f57bbe4933bab74dd3b16ce169d1733295bcb5bbf4fa511"}], "txid": "eddf34278d1c1b8f0cdac7be62aa8d6c923c57e1040b8ecbb3b7157f8584eff7", "blocktime": 1537873282, "version": 2, "confirmations": 11480, "time": 1537873282, "locktime": 542933, "vsize": 168, "size": 249}