{"hash": "d706c64720d2cfb6e5dd72eea1d9c81a82f17a92fa976559f2bc6d81e59d3500", "blockhash": "000000000000000000022b45ed06c6f4ccd3cf7fb5ba4856ebd2e58215665228", "vout": [{"scriptPubKey": {"reqSigs": 1, "hex": "76a9141d53d58c374e9cf85b49022c447ef132b1aebc7e88ac", "addresses": ["13g52TspzrDFy9nccxACSJfWuizLZxweeY"], "asm": "OP_DUP OP_HASH160 1d53d58c374e9cf85b49022c447ef132b1aebc7e OP_EQUALVERIFY OP_CHECKSIG", "type": "pubkeyhash"}, "value": 0.1086, "n": 0}, {"scriptPubKey": {"reqSigs": 1, "hex": "0020701a8d401c84fb13e6baf169d59684e17abd9fa216c8cc5b9fc63d622ff8c58d", "addresses": ["bc1qwqdg6squsna38e46795at95yu9atm8azzmyvckulcc7kytlcckxswvvzej"], "asm": "0 701a8d401c84fb13e6baf169d59684e17abd9fa216c8cc5b9fc63d622ff8c58d", "type": "witness_v0_scripthash"}, "value": 0.37155595, "n": 1}], "hex": "01000000000101e2675b63872670cde11c6b2247a26ef1eac4e0ec49a80cf93ccb5ebd14d513900500000000ffffffff02e0b5a500000000001976a9141d53d58c374e9cf85b49022c447ef132b1aebc7e88ac0bf3360200000000220020701a8d401c84fb13e6baf169d59684e17abd9fa216c8cc5b9fc63d622ff8c58d0400483045022100c0e996b33c950a96538699d017ae295ffb6641a632065c0c3577885095bc2ec50220643da5bd4593fa32910c201f140cf09dc85337134bba86da3789dda574faa280014730440220566bc4bbff02e7ebc10601fb6f8811771c0fe9920ba0f2db34ef323d1461ee3002202552cd93572cdeafc6daaa142173e1ff9e139f083c804e0adeab0b07a18d6d28016952210375e00eb72e29da82b89367947f29ef34afb75e8654f6ea368e0acdfd92976b7c2103a1b26313f430c4b15bb1fdce663207659d8cac749a0e53d70eff01874496feff2103c96d495bfdd5ba4145e3e046fee45e84a8a48ad05bd8dbb395c011a32cf9f88053ae00000000", "vin": [{"txinwitness": ["", "3045022100c0e996b33c950a96538699d017ae295ffb6641a632065c0c3577885095bc2ec50220643da5bd4593fa32910c201f140cf09dc85337134bba86da3789dda574faa28001", "30440220566bc4bbff02e7ebc10601fb6f8811771c0fe9920ba0f2db34ef323d1461ee3002202552cd93572cdeafc6daaa142173e1ff9e139f083c804e0adeab0b07a18d6d2801", "52210375e00eb72e29da82b89367947f29ef34afb75e8654f6ea368e0acdfd92976b7c2103a1b26313f430c4b15bb1fdce663207659d8cac749a0e53d70eff01874496feff2103c96d495bfdd5ba4145e3e046fee45e84a8a48ad05bd8dbb395c011a32cf9f88053ae"], "sequence": 4294967295, "scriptSig": {"hex": "", "asm": ""}, "vout": 5, "txid": "9013d514bd5ecb3cf90ca849ece0c4eaf16ea247226b1ce1cd702687635b67e2"}], "txid": "eddf98c3c7c73475d0a18171aeacabd5662bb57fa135a7548015f0c5151278f4", "blocktime": 1537869901, "version": 1, "confirmations": 11522, "time": 1537869901, "locktime": 0, "vsize": 192, "size": 383}