{"hash": "abc83385480e1692fcc62108eb11fb355a860834c1cec2e50efeec8b430c52ff", "blockhash": "0000000000000000000e13cef7c366c0283d82e591d1acd082e914b08063cdf1", "vout": [{"scriptPubKey": {"reqSigs": 1, "hex": "a91469f375a98555fe570beb3db09d176905e0eb227387", "addresses": ["3BMEXZFBdCibLZD5cHZKKNxgK2MVWFttT1"], "asm": "OP_HASH160 69f375a98555fe570beb3db09d176905e0eb2273 OP_EQUAL", "type": "scripthash"}, "value": 0.0008624, "n": 0}, {"scriptPubKey": {"reqSigs": 1, "hex": "a914f1b489b3852291572e41715d1f53c746c12a093e87", "addresses": ["3Pj33mV3wUg7Qy5VwDTJygnuPaNzGTnNhS"], "asm": "OP_HASH160 f1b489b3852291572e41715d1f53c746c12a093e OP_EQUAL", "type": "scripthash"}, "value": 0.01051394, "n": 1}], "hex": "020000000001016f225e90002c734a8a4a843076435f83237697d73b72f918f8ebb6e38b68eb3d01000000171600144a53b2506332474cef08645eadead3f6dae76a99feffffff02e05001000000000017a91469f375a98555fe570beb3db09d176905e0eb227387020b10000000000017a914f1b489b3852291572e41715d1f53c746c12a093e870248304502210081272f24ab006c5c9f7d6fc9648a9a8c235e3ca7b0eebbc55cd9647e72c699ee02205c9439d06eac49b270e455dd8e3c879004be056e563185826a45a92f034fc2b0012102da78928505298a9b63b79573e0e2cd976cedcbef73a442ae2500af5e8a827626f5480800", "vin": [{"txinwitness": ["304502210081272f24ab006c5c9f7d6fc9648a9a8c235e3ca7b0eebbc55cd9647e72c699ee02205c9439d06eac49b270e455dd8e3c879004be056e563185826a45a92f034fc2b001", "02da78928505298a9b63b79573e0e2cd976cedcbef73a442ae2500af5e8a827626"], "sequence": 4294967294, "scriptSig": {"hex": "1600144a53b2506332474cef08645eadead3f6dae76a99", "asm": "00144a53b2506332474cef08645eadead3f6dae76a99"}, "vout": 1, "txid": "3deb688be3b6ebf818f9723bd7977623835f437630844a8a4a732c00905e226f"}], "txid": "ede36e3a2a1fa3250d06f01fc24e6e39eecca443df9d11a92ba7296cfb2df4cf", "blocktime": 1537871767, "version": 2, "confirmations": 11495, "time": 1537871767, "locktime": 542965, "vsize": 166, "size": 248}