{"hash": "ede4da1415e1296348cdf408ad84035fe19cbd7c33cc4fe61754a08e866a624d", "blockhash": "0000000000000000001f76057863aec43deb6fa401d9628bb513d65a8098bfab", "vout": [{"scriptPubKey": {"reqSigs": 1, "hex": "76a914f32ef969b92f0f4c7f1adb0c855b8dd2cc94391e88ac", "addresses": ["1PAqUSmU4rit2wRZe9McTCVvS8BQjCQQp7"], "asm": "OP_DUP OP_HASH160 f32ef969b92f0f4c7f1adb0c855b8dd2cc94391e OP_EQUALVERIFY OP_CHECKSIG", "type": "pubkeyhash"}, "value": 0.00167479, "n": 0}, {"scriptPubKey": {"reqSigs": 1, "hex": "76a914d4f37977234d3e789ab3af99837da802df14734b88ac", "addresses": ["1LQyva88m2CtFZ9ZqK6qrHfmqnCyqkoQ58"], "asm": "OP_DUP OP_HASH160 d4f37977234d3e789ab3af99837da802df14734b OP_EQUALVERIFY OP_CHECKSIG", "type": "pubkeyhash"}, "value": 0.12489735, "n": 1}], "hex": "0100000001f7470f1202949640d654ef6f1a1664b2f4bd8cd39881902bbc746829dd4989a8010000006a4730440220017d8d0344745a7a91945e69e2f2a0c2ae74bdccbc6f95b426b6ff7c3bda8565022053cca8009272f70ff0c52faf5c1b93c2ec912115d1817a5bea1cf4547a2ce254012103547645fb69a41a8f56a9f2c0ce8cb5c3f482493b7bc0039826bef99c747d1d54ffffffff02378e0200000000001976a914f32ef969b92f0f4c7f1adb0c855b8dd2cc94391e88ac0794be00000000001976a914d4f37977234d3e789ab3af99837da802df14734b88ac00000000", "vin": [{"sequence": 4294967295, "scriptSig": {"hex": "4730440220017d8d0344745a7a91945e69e2f2a0c2ae74bdccbc6f95b426b6ff7c3bda8565022053cca8009272f70ff0c52faf5c1b93c2ec912115d1817a5bea1cf4547a2ce254012103547645fb69a41a8f56a9f2c0ce8cb5c3f482493b7bc0039826bef99c747d1d54", "asm": "30440220017d8d0344745a7a91945e69e2f2a0c2ae74bdccbc6f95b426b6ff7c3bda8565022053cca8009272f70ff0c52faf5c1b93c2ec912115d1817a5bea1cf4547a2ce254[ALL] 03547645fb69a41a8f56a9f2c0ce8cb5c3f482493b7bc0039826bef99c747d1d54"}, "vout": 1, "txid": "a88949dd296874bc2b908198d38cbdf4b264161a6fef54d640969402120f47f7"}], "txid": "ede4da1415e1296348cdf408ad84035fe19cbd7c33cc4fe61754a08e866a624d", "blocktime": 1537873891, "version": 1, "confirmations": 11478, "time": 1537873891, "locktime": 0, "vsize": 225, "size": 225}