{"hash": "ede4d586bfe73475555186337185708950315df97b5b02ea00ef7e7fb2ac0cee", "blockhash": "0000000000000000001cda96e906b7601b7a6fb1a3b62bca570a9e5d8f4b3de1", "vout": [{"scriptPubKey": {"reqSigs": 1, "hex": "76a914b58715d7de3b60c8dd3494f7a6376ac7644d21e888ac", "addresses": ["1HYq8cdK1iEQzeKp4F3CFKqk6jJGsWEgxn"], "asm": "OP_DUP OP_HASH160 b58715d7de3b60c8dd3494f7a6376ac7644d21e8 OP_EQUALVERIFY OP_CHECKSIG", "type": "pubkeyhash"}, "value": 0.3125, "n": 0}, {"scriptPubKey": {"reqSigs": 1, "hex": "76a914fc94ccbfc0cf32b6e29ab1dde524f1020709486088ac", "addresses": ["1Q2XY8hMRVgLermCnn7fSZ2EXKdkQA1aTD"], "asm": "OP_DUP OP_HASH160 fc94ccbfc0cf32b6e29ab1dde524f10207094860 OP_EQUALVERIFY OP_CHECKSIG", "type": "pubkeyhash"}, "value": 0.60721, "n": 1}], "hex": "0100000001cc19852bc1a0d9b635e455ab8a893da5215ed7740f4b58680142b6b15c6b7fe9010000006a47304402207f01936fc1d92f9e0867332089fc732ca858006611086ff115738a755f18d0d502207d311638d583515caa8005e02ca40116c912c8f8d6e9506c72c0f5de5403368b01210273f823f7b16dcd3094cc4e8c11e46e179ba908417069d938910793916977df9bffffffff0250d6dc01000000001976a914b58715d7de3b60c8dd3494f7a6376ac7644d21e888ac68879e03000000001976a914fc94ccbfc0cf32b6e29ab1dde524f1020709486088ac00000000", "vin": [{"sequence": 4294967295, "scriptSig": {"hex": "47304402207f01936fc1d92f9e0867332089fc732ca858006611086ff115738a755f18d0d502207d311638d583515caa8005e02ca40116c912c8f8d6e9506c72c0f5de5403368b01210273f823f7b16dcd3094cc4e8c11e46e179ba908417069d938910793916977df9b", "asm": "304402207f01936fc1d92f9e0867332089fc732ca858006611086ff115738a755f18d0d502207d311638d583515caa8005e02ca40116c912c8f8d6e9506c72c0f5de5403368b[ALL] 0273f823f7b16dcd3094cc4e8c11e46e179ba908417069d938910793916977df9b"}, "vout": 1, "txid": "e97f6b5cb1b6420168584b0f74d75e21a53d898aab55e435b6d9a0c12b8519cc"}], "txid": "ede4d586bfe73475555186337185708950315df97b5b02ea00ef7e7fb2ac0cee", "blocktime": 1537873282, "version": 1, "confirmations": 11480, "time": 1537873282, "locktime": 0, "vsize": 225, "size": 225}