{"hash": "ede79560334911c10f32025ac56a80927e25370d1f09781b0e718863a132f3a7", "blockhash": "00000000000000000024a2167bbff67b0be802c0b01cdd79e6331c2be6459f87", "vout": [{"scriptPubKey": {"reqSigs": 1, "hex": "76a9143025f345610907ad561c0a233310c4841014d11188ac", "addresses": ["15Pau3HQbzva9ToHioM55THdPt4n6iaskg"], "asm": "OP_DUP OP_HASH160 3025f345610907ad561c0a233310c4841014d111 OP_EQUALVERIFY OP_CHECKSIG", "type": "pubkeyhash"}, "value": 0.009, "n": 0}, {"scriptPubKey": {"reqSigs": 1, "hex": "76a914144c682d1ec3c050f810cd319eca05b6a25e434a88ac", "addresses": ["12rL3gfBceUJHqPiyc4ZKeyWGPmGhbazGt"], "asm": "OP_DUP OP_HASH160 144c682d1ec3c050f810cd319eca05b6a25e434a OP_EQUALVERIFY OP_CHECKSIG", "type": "pubkeyhash"}, "value": 0.13064675, "n": 1}], "hex": "01000000014c597934ded7f9d130982b6213f09968fd9b0307ca69652b1cbe40abe993d308010000006a473044022031a299c017e07d34c70c006c9eba59a4e98ccd3bc8be3fd6fcde514f065ba73602202e21b0d168cbfafae880b0a244bbd0146a964cd4bd6e30c7563d3c27bd09ff3c012103f27754957aff1df1eb2ddaf4e9c217620f2f2d57525b985c0e62bb2a6efafd05ffffffff02a0bb0d00000000001976a9143025f345610907ad561c0a233310c4841014d11188ace359c700000000001976a914144c682d1ec3c050f810cd319eca05b6a25e434a88ac00000000", "vin": [{"sequence": 4294967295, "scriptSig": {"hex": "473044022031a299c017e07d34c70c006c9eba59a4e98ccd3bc8be3fd6fcde514f065ba73602202e21b0d168cbfafae880b0a244bbd0146a964cd4bd6e30c7563d3c27bd09ff3c012103f27754957aff1df1eb2ddaf4e9c217620f2f2d57525b985c0e62bb2a6efafd05", "asm": "3044022031a299c017e07d34c70c006c9eba59a4e98ccd3bc8be3fd6fcde514f065ba73602202e21b0d168cbfafae880b0a244bbd0146a964cd4bd6e30c7563d3c27bd09ff3c[ALL] 03f27754957aff1df1eb2ddaf4e9c217620f2f2d57525b985c0e62bb2a6efafd05"}, "vout": 1, "txid": "08d393e9ab40be1c2b6569ca07039bfd6899f013622b9830d1f9d7de3479594c"}], "txid": "ede79560334911c10f32025ac56a80927e25370d1f09781b0e718863a132f3a7", "blocktime": 1537870564, "version": 1, "confirmations": 11515, "time": 1537870564, "locktime": 0, "vsize": 225, "size": 225}