{"hash": "fec16ec51ddbc5a879e6346f53976baf36cf751dd7d46ae71b6a8eaf5790ce47", "blockhash": "00000000000000000017f5eb5941039fbcee6240d03bc1f2f8e35350df66a1d8", "vout": [{"scriptPubKey": {"reqSigs": 1, "hex": "76a914265229662566a16e702880d079481013a504a9b488ac", "addresses": ["14Vd6zAWbNus4Xb8ptNVCiRhs1uwTNMNKi"], "asm": "OP_DUP OP_HASH160 265229662566a16e702880d079481013a504a9b4 OP_EQUALVERIFY OP_CHECKSIG", "type": "pubkeyhash"}, "value": 0.00606048, "n": 0}, {"scriptPubKey": {"reqSigs": 1, "hex": "a914e1b39ea32480fe491e4060463bddfec39dee1d1f87", "addresses": ["3NGR8u8JUrrMNau2wpMnFKDTgmuakCLbyc"], "asm": "OP_HASH160 e1b39ea32480fe491e4060463bddfec39dee1d1f OP_EQUAL", "type": "scripthash"}, "value": 0.004, "n": 1}, {"scriptPubKey": {"reqSigs": 1, "hex": "76a9147c518885ac39c3ab863451b4e49c443cb7eb664788ac", "addresses": ["1CLLTpWyHYWG9J9MvQXPAxzam3gzbLxSQZ"], "asm": "OP_DUP OP_HASH160 7c518885ac39c3ab863451b4e49c443cb7eb6647 OP_EQUALVERIFY OP_CHECKSIG", "type": "pubkeyhash"}, "value": 0.00249364, "n": 2}, {"scriptPubKey": {"reqSigs": 1, "hex": "a914e3bc404c35262ad62c22c82ca319a00eee21060b87", "addresses": ["3NTAq1VjmfUEm5owaEjKeZZkQUDnTtqVMk"], "asm": "OP_HASH160 e3bc404c35262ad62c22c82ca319a00eee21060b OP_EQUAL", "type": "scripthash"}, "value": 0.02943, "n": 3}, {"scriptPubKey": {"reqSigs": 1, "hex": "76a914d479228c8138095fa378136d89725efa9c379f6b88ac", "addresses": ["1LNTNGoGcEZPmbQfAZot6Qv4FBQ2N4Se2t"], "asm": "OP_DUP OP_HASH160 d479228c8138095fa378136d89725efa9c379f6b OP_EQUALVERIFY OP_CHECKSIG", "type": "pubkeyhash"}, "value": 0.0013, "n": 4}, {"scriptPubKey": {"reqSigs": 1, "hex": "a914e8d2b7895e8328d039ca17d1971a522a1eff1aba87", "addresses": ["3Nv57vCcidwFZFv8gCYQfffCgZwcy277n6"], "asm": "OP_HASH160 e8d2b7895e8328d039ca17d1971a522a1eff1aba OP_EQUAL", "type": "scripthash"}, "value": 0.00402362, "n": 5}, {"scriptPubKey": {"reqSigs": 1, "hex": "76a914e11da0e6329dcab69f26d2360a84c5ceb5e3403c88ac", "addresses": ["1MXJXneRMg25VguHHW4mGuV1Nbnbm5JN3y"], "asm": "OP_DUP OP_HASH160 e11da0e6329dcab69f26d2360a84c5ceb5e3403c OP_EQUALVERIFY OP_CHECKSIG", "type": "pubkeyhash"}, "value": 0.0006, "n": 6}, {"scriptPubKey": {"reqSigs": 1, "hex": "a9144f2974071a07add0c305c23bc50ed384e1d907ed87", "addresses": ["38uaxvHU4GdZpuFzg7SEeYJS3nJZ1ShsoG"], "asm": "OP_HASH160 4f2974071a07add0c305c23bc50ed384e1d907ed OP_EQUAL", "type": "scripthash"}, "value": 0.003, "n": 7}, {"scriptPubKey": {"reqSigs": 1, "hex": "76a914bb94b6471658828687e2fe9e89fed22164c40f0a88ac", "addresses": ["1J6qWZkmhEiLXd7fPLZttb4TaAmudosyTE"], "asm": "OP_DUP OP_HASH160 bb94b6471658828687e2fe9e89fed22164c40f0a OP_EQUALVERIFY OP_CHECKSIG", "type": "pubkeyhash"}, "value": 0.014, "n": 8}, {"scriptPubKey": {"reqSigs": 1, "hex": "a91469f3741e1840f3a731f3b9696e3105ef25de550c87", "addresses": ["3BMEX8vtjQgdmb2ybQg2aUaLwSdJ5eXM8C"], "asm": "OP_HASH160 69f3741e1840f3a731f3b9696e3105ef25de550c OP_EQUAL", "type": "scripthash"}, "value": 0.002, "n": 9}, {"scriptPubKey": {"reqSigs": 1, "hex": "76a91414679ed4e792ce2ec7f8651f3d59814c4079dd4188ac", "addresses": ["12rteWd6wRs1FSRUkJatQpwL6nTo8E2zH5"], "asm": "OP_DUP OP_HASH160 14679ed4e792ce2ec7f8651f3d59814c4079dd41 OP_EQUALVERIFY OP_CHECKSIG", "type": "pubkeyhash"}, "value": 0.00159027, "n": 10}, {"scriptPubKey": {"reqSigs": 1, "hex": "76a9147585a624c1ff3ee375755e35103eeda1ba7a03cb88ac", "addresses": ["1BiQAYHR8kB6WmSsmByfp6wqVso8tCFniV"], "asm": "OP_DUP OP_HASH160 7585a624c1ff3ee375755e35103eeda1ba7a03cb OP_EQUALVERIFY OP_CHECKSIG", "type": "pubkeyhash"}, "value": 0.00250716, "n": 11}, {"scriptPubKey": {"reqSigs": 1, "hex": "76a914dfd36dc60eb30850879af5e245d9ca1fb9ba475288ac", "addresses": ["1MQUy7KcMqK9GzgSSarnQgbptysrzD4weA"], "asm": "OP_DUP OP_HASH160 dfd36dc60eb30850879af5e245d9ca1fb9ba4752 OP_EQUALVERIFY OP_CHECKSIG", "type": "pubkeyhash"}, "value": 0.00799344, "n": 12}, {"scriptPubKey": {"reqSigs": 1, "hex": "a914050e9b73041b548fc5c0102c08177fb3285ad59b87", "addresses": ["329koRvovTyNnd4ADrpR2uJHzXxfvKxta5"], "asm": "OP_HASH160 050e9b73041b548fc5c0102c08177fb3285ad59b OP_EQUAL", "type": "scripthash"}, "value": 48.1056255, "n": 13}], "hex": "020000000001016156f28031c0257a64bb46e7e36a03e05b1a1f47d2d908aac2d42e1d7d5ff2c9070000001716001437de5da24ea7c8a3122ff93038f95492bd3834e5feffffff0e603f0900000000001976a914265229662566a16e702880d079481013a504a9b488ac801a06000000000017a914e1b39ea32480fe491e4060463bddfec39dee1d1f8714ce0300000000001976a9147c518885ac39c3ab863451b4e49c443cb7eb664788ac18e82c000000000017a914e3bc404c35262ad62c22c82ca319a00eee21060b87d0fb0100000000001976a914d479228c8138095fa378136d89725efa9c379f6b88acba2306000000000017a914e8d2b7895e8328d039ca17d1971a522a1eff1aba8760ea0000000000001976a914e11da0e6329dcab69f26d2360a84c5ceb5e3403c88ace09304000000000017a9144f2974071a07add0c305c23bc50ed384e1d907ed87c05c1500000000001976a914bb94b6471658828687e2fe9e89fed22164c40f0a88ac400d03000000000017a91469f3741e1840f3a731f3b9696e3105ef25de550c87336d0200000000001976a91414679ed4e792ce2ec7f8651f3d59814c4079dd4188ac5cd30300000000001976a9147585a624c1ff3ee375755e35103eeda1ba7a03cb88ac70320c00000000001976a914dfd36dc60eb30850879af5e245d9ca1fb9ba475288acf65bbb1e0100000017a914050e9b73041b548fc5c0102c08177fb3285ad59b870247304402202a8ff211eb88949af081a676ef83c0aeb69633b90ca99de27e8beac9a5911333022071fd1ee2cf7559bd39a82caff500a960376b58ef66103974861b17f6903c79800121036f4dd476664e417eab722cf99a991c471d38a6a7562275be1bc2dc9a606b468d15490800", "vin": [{"txinwitness": ["304402202a8ff211eb88949af081a676ef83c0aeb69633b90ca99de27e8beac9a5911333022071fd1ee2cf7559bd39a82caff500a960376b58ef66103974861b17f6903c798001", "036f4dd476664e417eab722cf99a991c471d38a6a7562275be1bc2dc9a606b468d"], "sequence": 4294967294, "scriptSig": {"hex": "16001437de5da24ea7c8a3122ff93038f95492bd3834e5", "asm": "001437de5da24ea7c8a3122ff93038f95492bd3834e5"}, "vout": 7, "txid": "c9f25f7d1d2ed4c2aa08d9d2471f1a5be0036ae3e746bb647a25c03180f25661"}], "txid": "edf1d611d71519bb0a4f506fb90cc158f45fed1cdbfc9d66bb4348afaa09da87", "blocktime": 1537874412, "version": 2, "confirmations": 11467, "time": 1537874412, "locktime": 542997, "vsize": 566, "size": 647}