{"hash": "edf4836ac666b6949c84d61f168bafc5b563e3821b7f4022cdfc962477f1653a", "blockhash": "0000000000000000000e13cef7c366c0283d82e591d1acd082e914b08063cdf1", "vout": [{"scriptPubKey": {"reqSigs": 1, "hex": "a9147798dad4dab061b56ee22d8405f1f091ecd0d43187", "addresses": ["3CbPSujTmqpA7VtHZygrsiXg3XGbwjRd2e"], "asm": "OP_HASH160 7798dad4dab061b56ee22d8405f1f091ecd0d431 OP_EQUAL", "type": "scripthash"}, "value": 0.00198433, "n": 0}, {"scriptPubKey": {"reqSigs": 1, "hex": "a914720c6da9ab6d731f6e2aa0cbdf9f2453e09a45b187", "addresses": ["3C63qx6UyCSji9GDTPFu3JFTSnLKtZo91r"], "asm": "OP_HASH160 720c6da9ab6d731f6e2aa0cbdf9f2453e09a45b1 OP_EQUAL", "type": "scripthash"}, "value": 0.01816795, "n": 1}], "hex": "010000000170f2055b38e9f60944e66cb6495a4ea381227151f56bc33b3250efdc4bd9e8a501000000d900473044022071df6305f74ba2e8967dac859a9798384a9cf0d3e1d939ce54d1d75834801941022066804bc80aef292281c4e695da7ed70375e0a76538724d90996d7b041273053e0147304402205b6e00c4b203467273915e2c287d3f26df038c44fa3e8c7a8f6726276bd7971602202c0781cd94a2fab8f39d4e381375c0bbe08da5aee8472e9cc54b2f66e92d30760147522103f2d250ed5140d655fe49f9b9f857ff223c9290b9bbe8b68a50d522cf45e633702102045f2de7b3abee8ca375163a8879a6719ef3e6d7ffc88aa3008e11b5b89eb7ee52aeffffffff02210703000000000017a9147798dad4dab061b56ee22d8405f1f091ecd0d43187dbb81b000000000017a914720c6da9ab6d731f6e2aa0cbdf9f2453e09a45b18700000000", "vin": [{"sequence": 4294967295, "scriptSig": {"hex": "00473044022071df6305f74ba2e8967dac859a9798384a9cf0d3e1d939ce54d1d75834801941022066804bc80aef292281c4e695da7ed70375e0a76538724d90996d7b041273053e0147304402205b6e00c4b203467273915e2c287d3f26df038c44fa3e8c7a8f6726276bd7971602202c0781cd94a2fab8f39d4e381375c0bbe08da5aee8472e9cc54b2f66e92d30760147522103f2d250ed5140d655fe49f9b9f857ff223c9290b9bbe8b68a50d522cf45e633702102045f2de7b3abee8ca375163a8879a6719ef3e6d7ffc88aa3008e11b5b89eb7ee52ae", "asm": "0 3044022071df6305f74ba2e8967dac859a9798384a9cf0d3e1d939ce54d1d75834801941022066804bc80aef292281c4e695da7ed70375e0a76538724d90996d7b041273053e[ALL] 304402205b6e00c4b203467273915e2c287d3f26df038c44fa3e8c7a8f6726276bd7971602202c0781cd94a2fab8f39d4e381375c0bbe08da5aee8472e9cc54b2f66e92d3076[ALL] 522103f2d250ed5140d655fe49f9b9f857ff223c9290b9bbe8b68a50d522cf45e633702102045f2de7b3abee8ca375163a8879a6719ef3e6d7ffc88aa3008e11b5b89eb7ee52ae"}, "vout": 1, "txid": "a5e8d94bdcef50323bc36bf551712281a34e5a49b66ce64409f6e9385b05f270"}], "txid": "edf4836ac666b6949c84d61f168bafc5b563e3821b7f4022cdfc962477f1653a", "blocktime": 1537871767, "version": 1, "confirmations": 11491, "time": 1537871767, "locktime": 0, "vsize": 332, "size": 332}