{"hash": "bcd216aa1360fdae2c11ab568df3bbfa4f5a289d5ba15411f0808140e54c58aa", "blockhash": "0000000000000000000e13cef7c366c0283d82e591d1acd082e914b08063cdf1", "vout": [{"scriptPubKey": {"reqSigs": 1, "hex": "a914e142245fc921e2fc47727f1af67c74f832511f3387", "addresses": ["3NE5CLaRtcdz37sYacPmPmHAVEvJwyraK6"], "asm": "OP_HASH160 e142245fc921e2fc47727f1af67c74f832511f33 OP_EQUAL", "type": "scripthash"}, "value": 1.0, "n": 0}, {"scriptPubKey": {"reqSigs": 1, "hex": "a9149f9583a44b432443eca035e254c726054dd0f42187", "addresses": ["3GEpUUXCjdnKKM8YJXawbywB3Q1RjoKRK4"], "asm": "OP_HASH160 9f9583a44b432443eca035e254c726054dd0f421 OP_EQUAL", "type": "scripthash"}, "value": 6.49983, "n": 1}], "hex": "01000000000101994264d6505b7e2ad97e48d8ce3841201f246cbbf7ba9a832436cc7753b2293701000000171600143251511890aa0b1f98772378e83b915050050a0cffffffff0200e1f5050000000017a914e142245fc921e2fc47727f1af67c74f832511f338718f4bd260000000017a9149f9583a44b432443eca035e254c726054dd0f42187024730440220317326b63bf2a8876ecaa62025f0c64984444edd0bf428c57a2b16698ad5f3df02201ad660dc4f0757463330341838fb3a83faece59cefc131033db7aeecab59fc5d01210241723d485e4d7385cbcb2d1991eaed32685a2207d6cf8dde4f8713390cf34eeb00000000", "vin": [{"txinwitness": ["30440220317326b63bf2a8876ecaa62025f0c64984444edd0bf428c57a2b16698ad5f3df02201ad660dc4f0757463330341838fb3a83faece59cefc131033db7aeecab59fc5d01", "0241723d485e4d7385cbcb2d1991eaed32685a2207d6cf8dde4f8713390cf34eeb"], "sequence": 4294967295, "scriptSig": {"hex": "1600143251511890aa0b1f98772378e83b915050050a0c", "asm": "00143251511890aa0b1f98772378e83b915050050a0c"}, "vout": 1, "txid": "3729b25377cc3624839abaf7bb6c241f204138ced8487ed92a7e5b50d6644299"}], "txid": "edf86fb32d60cdcdac17f29101118c744b18b149485ab1208c9ead3e7afde55b", "blocktime": 1537871767, "version": 1, "confirmations": 11490, "time": 1537871767, "locktime": 0, "vsize": 166, "size": 247}