{"hash": "74db620154a2a5dcc1264488b207689f1384d0fa73bdff0fe1a61ee9b3426c4c", "blockhash": "0000000000000000001e0dab787dd257d1dbfcb92a98c2207d5e1078be1f4165", "vout": [{"scriptPubKey": {"reqSigs": 1, "hex": "76a91407480838d9283cb5ed3e6400eb93da53d3ed639188ac", "addresses": ["1fW2Dt4GHjoWxiduKB5NNjZj8GyLkxHS9"], "asm": "OP_DUP OP_HASH160 07480838d9283cb5ed3e6400eb93da53d3ed6391 OP_EQUALVERIFY OP_CHECKSIG", "type": "pubkeyhash"}, "value": 0.03995417, "n": 0}, {"scriptPubKey": {"reqSigs": 1, "hex": "76a914a1004c93c9d3ff4a6d561ac205764ae1f0e41ed688ac", "addresses": ["1FgJ9fnEetaaeMmPcE1hYfpoDHiTxvqF2K"], "asm": "OP_DUP OP_HASH160 a1004c93c9d3ff4a6d561ac205764ae1f0e41ed6 OP_EQUALVERIFY OP_CHECKSIG", "type": "pubkeyhash"}, "value": 0.36787138, "n": 1}, {"scriptPubKey": {"reqSigs": 1, "hex": "a91482bdbda2691f6e45f7126bcb4fe4a3c2c770253687", "addresses": ["3DcK4uCXb85aqBssAuPtxtrzHStB8G1bWg"], "asm": "OP_HASH160 82bdbda2691f6e45f7126bcb4fe4a3c2c7702536 OP_EQUAL", "type": "scripthash"}, "value": 5.30991619, "n": 2}], "hex": "02000000000101ef9e11cdb77e6dc36f5367ade6fd909bffa2e4587fc68d424f5f3cd0dcd229c600000000171600140f56dfe33801ff4175e53cf15792f66076e6dc41fdffffff0319f73c00000000001976a91407480838d9283cb5ed3e6400eb93da53d3ed639188acc2533102000000001976a914a1004c93c9d3ff4a6d561ac205764ae1f0e41ed688ac034aa61f0000000017a91482bdbda2691f6e45f7126bcb4fe4a3c2c770253687024730440220088925845a75c8fecf0cce0c3204568db4ca1b8825428255d0aeaeba780da2d6022032d45d31272559ff9a1306420239a91af041581cd23d07799053c59d0c4021a2012102c855fcc22ffc47d8d0695243bd0f52e60b95396dbf8c9ee626ad9bb63d70da0d12490800", "vin": [{"txinwitness": ["30440220088925845a75c8fecf0cce0c3204568db4ca1b8825428255d0aeaeba780da2d6022032d45d31272559ff9a1306420239a91af041581cd23d07799053c59d0c4021a201", "02c855fcc22ffc47d8d0695243bd0f52e60b95396dbf8c9ee626ad9bb63d70da0d"], "sequence": 4294967293, "scriptSig": {"hex": "1600140f56dfe33801ff4175e53cf15792f66076e6dc41", "asm": "00140f56dfe33801ff4175e53cf15792f66076e6dc41"}, "vout": 0, "txid": "c629d2dcd03c5f4f428dc67f58e4a2ff9b90fde6ad67536fc36d7eb7cd119eef"}], "txid": "edfcff698d13d56252be2fe289a60116530e8393ef5c59d0e2cccdad91879f0e", "blocktime": 1537872475, "version": 2, "confirmations": 11487, "time": 1537872475, "locktime": 542994, "vsize": 202, "size": 283}