{"hash": "edfd84d6016135b6a07be0ff277bf99fff236338fb979e0c2e3cc615c0a37cdc", "blockhash": "00000000000000000024a2167bbff67b0be802c0b01cdd79e6331c2be6459f87", "vout": [{"scriptPubKey": {"reqSigs": 1, "hex": "76a91439f88d08c49e38ff188df371001b391c97cb1e2688ac", "addresses": ["16HXGZAuKKVQHpjvRkYm68eZfZgtnpUf6c"], "asm": "OP_DUP OP_HASH160 39f88d08c49e38ff188df371001b391c97cb1e26 OP_EQUALVERIFY OP_CHECKSIG", "type": "pubkeyhash"}, "value": 0.0024102, "n": 0}, {"scriptPubKey": {"reqSigs": 1, "hex": "76a9143a2832f18cda6bf711bdcf9bfd1de0323ff40d6588ac", "addresses": ["16JWMCgwquGV9d6oTuxsf2q3iZDMrFqSwQ"], "asm": "OP_DUP OP_HASH160 3a2832f18cda6bf711bdcf9bfd1de0323ff40d65 OP_EQUALVERIFY OP_CHECKSIG", "type": "pubkeyhash"}, "value": 0.11053407, "n": 1}], "hex": "01000000011c2748b54c6d9d83775ebbd7b9054d52293e845eb989ffb8fe06e010ab8e45c9010000006a47304402202817359d174028f27e9f9cf13e21faf901c52282ba6ef2eb775e4f6b389f4248022014c9ba323913b04b8afe26b5613ad6497c95f7e9db6cd3090f87cdf990c5d938012103a6439ec6d4bcbd6df757c836138cec6de71b2877ea1fafd981c49f55b7aaa625ffffffff027cad0300000000001976a91439f88d08c49e38ff188df371001b391c97cb1e2688ac5fa9a800000000001976a9143a2832f18cda6bf711bdcf9bfd1de0323ff40d6588ac00000000", "vin": [{"sequence": 4294967295, "scriptSig": {"hex": "47304402202817359d174028f27e9f9cf13e21faf901c52282ba6ef2eb775e4f6b389f4248022014c9ba323913b04b8afe26b5613ad6497c95f7e9db6cd3090f87cdf990c5d938012103a6439ec6d4bcbd6df757c836138cec6de71b2877ea1fafd981c49f55b7aaa625", "asm": "304402202817359d174028f27e9f9cf13e21faf901c52282ba6ef2eb775e4f6b389f4248022014c9ba323913b04b8afe26b5613ad6497c95f7e9db6cd3090f87cdf990c5d938[ALL] 03a6439ec6d4bcbd6df757c836138cec6de71b2877ea1fafd981c49f55b7aaa625"}, "vout": 1, "txid": "c9458eab10e006feb8ff89b95e843e29524d05b9d7bb5e77839d6d4cb548271c"}], "txid": "edfd84d6016135b6a07be0ff277bf99fff236338fb979e0c2e3cc615c0a37cdc", "blocktime": 1537870564, "version": 1, "confirmations": 11515, "time": 1537870564, "locktime": 0, "vsize": 225, "size": 225}