{"hash": "2060e03a392dc8b2de4b4572d89da472101c4993d3fe1c98f7e11aeeb01e4d2b", "blockhash": "0000000000000000001e0dab787dd257d1dbfcb92a98c2207d5e1078be1f4165", "vout": [{"scriptPubKey": {"reqSigs": 1, "hex": "001463456d4789f29fdf159de92e2acf314d3dbca6fa", "addresses": ["bc1qvdzk63uf720a79vaayhz4ne3f57mefh62c08h4"], "asm": "0 63456d4789f29fdf159de92e2acf314d3dbca6fa", "type": "witness_v0_keyhash"}, "value": 0.00554419, "n": 0}, {"scriptPubKey": {"reqSigs": 1, "hex": "a914b3c689e825952f6c2e782e1bfe87af68774da0bb87", "addresses": ["3J5aibHmxkhqAeiv93KBPmVJcXkXKBVpJT"], "asm": "OP_HASH160 b3c689e825952f6c2e782e1bfe87af68774da0bb OP_EQUAL", "type": "scripthash"}, "value": 0.08811, "n": 1}], "hex": "01000000000101215558fd9dbae2dde003de3ba99c601b287f17d0069cb7af0856e9563d7ab5b900000000171600147ee0fba0d9361dce296ecaff2f17a5300cad0ee8ffffffff02b37508000000000016001463456d4789f29fdf159de92e2acf314d3dbca6faf87186000000000017a914b3c689e825952f6c2e782e1bfe87af68774da0bb8702473044022029094fd16409ca289cf8654d9834dd79b43a8cfeccff9e91a5d7fc8635e4e20d0220121e699e28e211c73162e967269e24fe0012a0438d82531a8c8bff32457efe75012103b51e642fc111413b00e1bb10b6802c24a866c5a620f6ee67a14f64199d907c3b00000000", "vin": [{"txinwitness": ["3044022029094fd16409ca289cf8654d9834dd79b43a8cfeccff9e91a5d7fc8635e4e20d0220121e699e28e211c73162e967269e24fe0012a0438d82531a8c8bff32457efe7501", "03b51e642fc111413b00e1bb10b6802c24a866c5a620f6ee67a14f64199d907c3b"], "sequence": 4294967295, "scriptSig": {"hex": "1600147ee0fba0d9361dce296ecaff2f17a5300cad0ee8", "asm": "00147ee0fba0d9361dce296ecaff2f17a5300cad0ee8"}, "vout": 0, "txid": "b9b57a3d56e95608afb79c06d0177f281b609ca93bde03e0dde2ba9dfd585521"}], "txid": "edffc9a4fa97d1c0349624bc9114d8bf1d348db79adb8d2ae4d34c19eb4b8c1c", "blocktime": 1537872475, "version": 1, "confirmations": 11486, "time": 1537872475, "locktime": 0, "vsize": 165, "size": 246}