{"hash": "ee00171250984070f186ce8598c2cefc34d26e00828e1ab2d6ca26d1a21afda1", "blockhash": "00000000000000000004ffacab907a6b429b9a5745fa0b75af4234bf69dd7176", "vout": [{"scriptPubKey": {"reqSigs": 1, "hex": "76a914ea95ea3e242aec7e699b562dbfcc5011bd475dc288ac", "addresses": ["1NPNiAczUo1pZRbQXohXvfzUY1nAARVkFP"], "asm": "OP_DUP OP_HASH160 ea95ea3e242aec7e699b562dbfcc5011bd475dc2 OP_EQUALVERIFY OP_CHECKSIG", "type": "pubkeyhash"}, "value": 0.01522308, "n": 0}, {"scriptPubKey": {"reqSigs": 1, "hex": "a9144af0b360a6fb4a5b8e6ee7661ecdabed6cc9f63a87", "addresses": ["38XGGv7enHjUajYTuENtk8HcDJCcyevW6Q"], "asm": "OP_HASH160 4af0b360a6fb4a5b8e6ee7661ecdabed6cc9f63a OP_EQUAL", "type": "scripthash"}, "value": 0.1, "n": 1}], "hex": "0100000004405983a3c3a00fba3958638dcc9072759837da5c1574ebb8ed7625eca535e49a000000006b483045022100b6e3cc02196c2d59464c1cd36b9e50dd915793281e0c0325baa8f7ca7529d37b02201dcdd99fcbfe8727c760f6a07ea139a0bdb487035115af8ee2e5ad7442a41fd001210242d068102bc4328165e1d78033c80702c21378916c5f2d034636da6ac0c5efc1feffffff9dc1a3cb2492baf00944996d1f1dc3556e50bbd743ffa7c58f3950e85a6c2fa8000000006b483045022100f506bcbeeaa8c2e090f81ac32b933a917f025202e4d7e7f86d4ef1799f066b1a02202d2c9854641cede9e0657c8ca326f8c92f96a3d15d1f42fe535195799edcf618012103cc18d038bc39991c8d7514c4d303b1e2749666f1ab3ed7139124da3ad324ab19feffffffea78bbdfb335dfcc36649d19b23acf9be73442dea4c0b34565776a163ea523b4000000006a473044022045b0319f03bb30f955f861337c90df6c76e8f572a3dd2879678b95a8e0e5671f0220656b63e3c57fc0b73749068aefd9381f76caeac74f5a8ad6f09b50e2c8c7c53001210272f18340df1714cc2d7a77e088c8cc38c5ae316abbf1ef0e72767d0a66294551feffffffeda1c183ab073aee399694811d739aa6e33e8970eb8303402907db173a1117cf010000006a4730440220070ff7e5ec2b7d7a2162375fabf9a91c74eb47a74bfb38ac6478f79630a2fd2c022076b5a0a25e29744986f4bcaabf1d63e18848c76764403af3e93abc7d2d7bd8e001210373245b909a53867d51bba9eaae7f6125577823e7881d88cc29d277cdf0a0f63bfeffffff02843a1700000000001976a914ea95ea3e242aec7e699b562dbfcc5011bd475dc288ac809698000000000017a9144af0b360a6fb4a5b8e6ee7661ecdabed6cc9f63a8715490800", "vin": [{"sequence": 4294967294, "scriptSig": {"hex": "483045022100b6e3cc02196c2d59464c1cd36b9e50dd915793281e0c0325baa8f7ca7529d37b02201dcdd99fcbfe8727c760f6a07ea139a0bdb487035115af8ee2e5ad7442a41fd001210242d068102bc4328165e1d78033c80702c21378916c5f2d034636da6ac0c5efc1", "asm": "3045022100b6e3cc02196c2d59464c1cd36b9e50dd915793281e0c0325baa8f7ca7529d37b02201dcdd99fcbfe8727c760f6a07ea139a0bdb487035115af8ee2e5ad7442a41fd0[ALL] 0242d068102bc4328165e1d78033c80702c21378916c5f2d034636da6ac0c5efc1"}, "vout": 0, "txid": "9ae435a5ec2576edb8eb74155cda3798757290cc8d635839ba0fa0c3a3835940"}, {"sequence": 4294967294, "scriptSig": {"hex": "483045022100f506bcbeeaa8c2e090f81ac32b933a917f025202e4d7e7f86d4ef1799f066b1a02202d2c9854641cede9e0657c8ca326f8c92f96a3d15d1f42fe535195799edcf618012103cc18d038bc39991c8d7514c4d303b1e2749666f1ab3ed7139124da3ad324ab19", "asm": "3045022100f506bcbeeaa8c2e090f81ac32b933a917f025202e4d7e7f86d4ef1799f066b1a02202d2c9854641cede9e0657c8ca326f8c92f96a3d15d1f42fe535195799edcf618[ALL] 03cc18d038bc39991c8d7514c4d303b1e2749666f1ab3ed7139124da3ad324ab19"}, "vout": 0, "txid": "a82f6c5ae850398fc5a7ff43d7bb506e55c31d1f6d994409f0ba9224cba3c19d"}, {"sequence": 4294967294, "scriptSig": {"hex": "473044022045b0319f03bb30f955f861337c90df6c76e8f572a3dd2879678b95a8e0e5671f0220656b63e3c57fc0b73749068aefd9381f76caeac74f5a8ad6f09b50e2c8c7c53001210272f18340df1714cc2d7a77e088c8cc38c5ae316abbf1ef0e72767d0a66294551", "asm": "3044022045b0319f03bb30f955f861337c90df6c76e8f572a3dd2879678b95a8e0e5671f0220656b63e3c57fc0b73749068aefd9381f76caeac74f5a8ad6f09b50e2c8c7c530[ALL] 0272f18340df1714cc2d7a77e088c8cc38c5ae316abbf1ef0e72767d0a66294551"}, "vout": 0, "txid": "b423a53e166a776545b3c0a4de4234e79bcf3ab2199d6436ccdf35b3dfbb78ea"}, {"sequence": 4294967294, "scriptSig": {"hex": "4730440220070ff7e5ec2b7d7a2162375fabf9a91c74eb47a74bfb38ac6478f79630a2fd2c022076b5a0a25e29744986f4bcaabf1d63e18848c76764403af3e93abc7d2d7bd8e001210373245b909a53867d51bba9eaae7f6125577823e7881d88cc29d277cdf0a0f63b", "asm": "30440220070ff7e5ec2b7d7a2162375fabf9a91c74eb47a74bfb38ac6478f79630a2fd2c022076b5a0a25e29744986f4bcaabf1d63e18848c76764403af3e93abc7d2d7bd8e0[ALL] 0373245b909a53867d51bba9eaae7f6125577823e7881d88cc29d277cdf0a0f63b"}, "vout": 1, "txid": "cf17113a17db0729400383eb70893ee3a69a731d81949639ee3a07ab83c1a1ed"}], "txid": "ee00171250984070f186ce8598c2cefc34d26e00828e1ab2d6ca26d1a21afda1", "blocktime": 1537875543, "version": 1, "confirmations": 11464, "time": 1537875543, "locktime": 542997, "vsize": 666, "size": 666}