{"hash": "ee07347bbb34cd54fd0dae9b53cbd0fcc62ea050619f446c39ac2e8aacb22405", "blockhash": "000000000000000000022b45ed06c6f4ccd3cf7fb5ba4856ebd2e58215665228", "vout": [{"scriptPubKey": {"reqSigs": 1, "hex": "76a914625e8424fcc9cf56e88d93f6dd28f77e1247156688ac", "addresses": ["19y8SuAQgkc9YPLmh7Bzb2BxVuCw6YhdDg"], "asm": "OP_DUP OP_HASH160 625e8424fcc9cf56e88d93f6dd28f77e12471566 OP_EQUALVERIFY OP_CHECKSIG", "type": "pubkeyhash"}, "value": 3.617e-05, "n": 0}, {"scriptPubKey": {"reqSigs": 1, "hex": "76a9142d92b54799406c1eebdbb70a33f3c3421a2eefc688ac", "addresses": ["159yA6JqtXAFQQF4CpnT2nFVPS2R8QkT63"], "asm": "OP_DUP OP_HASH160 2d92b54799406c1eebdbb70a33f3c3421a2eefc6 OP_EQUALVERIFY OP_CHECKSIG", "type": "pubkeyhash"}, "value": 0.01515705, "n": 1}], "hex": "0100000001078074e926f02bc7cbe08d2292278c9ef91e97e6bb4a243dcffe9ea881664b3c070000006a4730440220181792d45d8de898cb362b229ee754e0cd87c2ebf730592789f932f343cb617102205a0dfa2586d403562951b4ed7d0b89e010020dc82df4ce080cf378ad33fc887b012102d38b79ec435edf0519acdef8cfa2ff126e67ca16691da0bf0b2da22179bd6d84ffffffff02210e0000000000001976a914625e8424fcc9cf56e88d93f6dd28f77e1247156688acb9201700000000001976a9142d92b54799406c1eebdbb70a33f3c3421a2eefc688ac00000000", "vin": [{"sequence": 4294967295, "scriptSig": {"hex": "4730440220181792d45d8de898cb362b229ee754e0cd87c2ebf730592789f932f343cb617102205a0dfa2586d403562951b4ed7d0b89e010020dc82df4ce080cf378ad33fc887b012102d38b79ec435edf0519acdef8cfa2ff126e67ca16691da0bf0b2da22179bd6d84", "asm": "30440220181792d45d8de898cb362b229ee754e0cd87c2ebf730592789f932f343cb617102205a0dfa2586d403562951b4ed7d0b89e010020dc82df4ce080cf378ad33fc887b[ALL] 02d38b79ec435edf0519acdef8cfa2ff126e67ca16691da0bf0b2da22179bd6d84"}, "vout": 7, "txid": "3c4b6681a89efecf3d244abbe6971ef99e8c2792228de0cbc72bf026e9748007"}], "txid": "ee07347bbb34cd54fd0dae9b53cbd0fcc62ea050619f446c39ac2e8aacb22405", "blocktime": 1537869901, "version": 1, "confirmations": 11524, "time": 1537869901, "locktime": 0, "vsize": 225, "size": 225}