{"hash": "ee087efec0854bdc6df4c496e35c52989404102386084aa04f642237ec3078ea", "blockhash": "0000000000000000001e0dab787dd257d1dbfcb92a98c2207d5e1078be1f4165", "vout": [{"scriptPubKey": {"type": "nulldata", "hex": "6a4c50000077b10001805033e5bf9ae76da98a211aaf6c953dd567cf27e7e3ef3236678a6250976ee8a122ba527fc3545ce9ade5b417fb5baa118606115f253138dfcf1d100759d4ba30d2c37bb011d97e02cf", "asm": "OP_RETURN 000077b10001805033e5bf9ae76da98a211aaf6c953dd567cf27e7e3ef3236678a6250976ee8a122ba527fc3545ce9ade5b417fb5baa118606115f253138dfcf1d100759d4ba30d2c37bb011d97e02cf"}, "value": 0.0, "n": 0}, {"scriptPubKey": {"reqSigs": 1, "hex": "76a914fe2f9ba856bbb1579bc882c444490a4ca1e70a0b88ac", "addresses": ["1QB1fbBbMjDkETE4WoL8cyqw8a2EhD9mb6"], "asm": "OP_DUP OP_HASH160 fe2f9ba856bbb1579bc882c444490a4ca1e70a0b OP_EQUALVERIFY OP_CHECKSIG", "type": "pubkeyhash"}, "value": 0.00640587, "n": 1}], "hex": "01000000013b820bcffc673d4d2db703f1b6fe3c9fb3312b3818f1929e0d91eba2b3656590010000006b483045022100b633b44c376ac6c60f22cc9c3b14de35d17a9ef195fe482f1a6784bf85df662d02207f3ea349749d24ff08cacf42c6d3500cb17ce2d70cb7a376151e7acc42d8d1810121024ecfe1a79b8235482fa7af8584d575f1dd32eea6a67155a56a4ef93769e551f8ffffffff020000000000000000536a4c50000077b10001805033e5bf9ae76da98a211aaf6c953dd567cf27e7e3ef3236678a6250976ee8a122ba527fc3545ce9ade5b417fb5baa118606115f253138dfcf1d100759d4ba30d2c37bb011d97e02cf4bc60900000000001976a914fe2f9ba856bbb1579bc882c444490a4ca1e70a0b88ac00000000", "vin": [{"sequence": 4294967295, "scriptSig": {"hex": "483045022100b633b44c376ac6c60f22cc9c3b14de35d17a9ef195fe482f1a6784bf85df662d02207f3ea349749d24ff08cacf42c6d3500cb17ce2d70cb7a376151e7acc42d8d1810121024ecfe1a79b8235482fa7af8584d575f1dd32eea6a67155a56a4ef93769e551f8", "asm": "3045022100b633b44c376ac6c60f22cc9c3b14de35d17a9ef195fe482f1a6784bf85df662d02207f3ea349749d24ff08cacf42c6d3500cb17ce2d70cb7a376151e7acc42d8d181[ALL] 024ecfe1a79b8235482fa7af8584d575f1dd32eea6a67155a56a4ef93769e551f8"}, "vout": 1, "txid": "906565b3a2eb910d9e92f118382b31b39f3cfeb6f103b72d4d3d67fccf0b823b"}], "txid": "ee087efec0854bdc6df4c496e35c52989404102386084aa04f642237ec3078ea", "blocktime": 1537872475, "version": 1, "confirmations": 11486, "time": 1537872475, "locktime": 0, "vsize": 284, "size": 284}