{"hash": "0941e099d628d49618751092dba91ebc479feb7397623d618e91098118b359c1", "blockhash": "0000000000000000001cda96e906b7601b7a6fb1a3b62bca570a9e5d8f4b3de1", "vout": [{"scriptPubKey": {"reqSigs": 1, "hex": "0014cc426e17827ca0f951878fc0ce6ff4ff985df82c", "addresses": ["bc1qe3pxu9uz0js0j5v83lqvuml5l7v9m7pv90r2hw"], "asm": "0 cc426e17827ca0f951878fc0ce6ff4ff985df82c", "type": "witness_v0_keyhash"}, "value": 0.0147091, "n": 0}, {"scriptPubKey": {"reqSigs": 1, "hex": "76a9141e36f6c91a939f1431b796dc241cf2e99f812b8288ac", "addresses": ["13km7ipUCnrmU9gCoSWFFBm2EqqWPSAJx9"], "asm": "OP_DUP OP_HASH160 1e36f6c91a939f1431b796dc241cf2e99f812b82 OP_EQUALVERIFY OP_CHECKSIG", "type": "pubkeyhash"}, "value": 0.00915502, "n": 1}], "hex": "01000000000101a01004b3a1a4525308f572e42c97fc5a6e632f9c4aed0dcf4e2eedaeb4f84edf0000000017160014b8054c5ccacfc0f091a32be0f68b42ceb441d473ffffffff02be71160000000000160014cc426e17827ca0f951878fc0ce6ff4ff985df82c2ef80d00000000001976a9141e36f6c91a939f1431b796dc241cf2e99f812b8288ac02473044022025d82090969abb191f16e8f4e682360c16345b693872ae59a13817732ae830b902207558d53820e49f31865b4459f563835282e6fa0e593ebba45017305ab88e4d0701210271edf4376bf78a71d89d0f0258accf04c205b897d283138b73c25a6c27b8472b00000000", "vin": [{"txinwitness": ["3044022025d82090969abb191f16e8f4e682360c16345b693872ae59a13817732ae830b902207558d53820e49f31865b4459f563835282e6fa0e593ebba45017305ab88e4d0701", "0271edf4376bf78a71d89d0f0258accf04c205b897d283138b73c25a6c27b8472b"], "sequence": 4294967295, "scriptSig": {"hex": "160014b8054c5ccacfc0f091a32be0f68b42ceb441d473", "asm": "0014b8054c5ccacfc0f091a32be0f68b42ceb441d473"}, "vout": 0, "txid": "df4ef8b4aeed2e4ecf0ded4a9c2f636e5afc972ce472f5085352a4a1b30410a0"}], "txid": "ee1a06a3e6d2b81f4f63e9df2783d846c9d935cc7a24a1f7863bacdaaf3defe5", "blocktime": 1537873282, "version": 1, "confirmations": 11484, "time": 1537873282, "locktime": 0, "vsize": 167, "size": 248}