{"hash": "ee1a37e6fb8b82b6e5c6f103459d86cf7898f994d3fab41ad41345ed491488db", "blockhash": "0000000000000000001cda96e906b7601b7a6fb1a3b62bca570a9e5d8f4b3de1", "vout": [{"scriptPubKey": {"reqSigs": 1, "hex": "76a914b629762a1b83849d231f471cb191016a369f889088ac", "addresses": ["1HcBeiRdkBR51u8qYs9oJwA43TsTbdYNfJ"], "asm": "OP_DUP OP_HASH160 b629762a1b83849d231f471cb191016a369f8890 OP_EQUALVERIFY OP_CHECKSIG", "type": "pubkeyhash"}, "value": 0.000137, "n": 0}, {"scriptPubKey": {"reqSigs": 1, "hex": "76a914a195cf658253b7a2d2d8a3d2db02b94940f4ab4488ac", "addresses": ["1FjPFsoVsoUGVjqEgrvkERmQ4HqshxvfaT"], "asm": "OP_DUP OP_HASH160 a195cf658253b7a2d2d8a3d2db02b94940f4ab44 OP_EQUALVERIFY OP_CHECKSIG", "type": "pubkeyhash"}, "value": 0.00234539, "n": 1}], "hex": "0100000002bc48d6278eda7376390738451d43a98c4c563c681b18c0c5a7ddb2406e898419000000006a47304402204249bb521445b93ce1acdddab1d0c57f0f24699d508489aa3cd33a80fa91f22b02207810e417642bbeb51c9728ceb06df41cebc126ec563fbb3fec20c2d9aeebd5870121024826a9d805e1e0d6e1918f03cd52a8ab605c0b93d70af2f86f1127c4cf6351ddffffffff11050cb2339fa4754cc63cb0868758efb7252efaeef78b3fa1c334e2a9528093000000006a4730440220710cf9f52012fcb62c345edef1f08e540a0d8b5fc7d9d6e18e642e198465c7f202204d17bc49b61465935d52d68715618ea5e30f4b4eb2c4b3e4c772dd603491ee700121024cec248408d4b83f056923822279db8485b376db0723523d29f15a0acca13935ffffffff0284350000000000001976a914b629762a1b83849d231f471cb191016a369f889088ac2b940300000000001976a914a195cf658253b7a2d2d8a3d2db02b94940f4ab4488ac00000000", "vin": [{"sequence": 4294967295, "scriptSig": {"hex": "47304402204249bb521445b93ce1acdddab1d0c57f0f24699d508489aa3cd33a80fa91f22b02207810e417642bbeb51c9728ceb06df41cebc126ec563fbb3fec20c2d9aeebd5870121024826a9d805e1e0d6e1918f03cd52a8ab605c0b93d70af2f86f1127c4cf6351dd", "asm": "304402204249bb521445b93ce1acdddab1d0c57f0f24699d508489aa3cd33a80fa91f22b02207810e417642bbeb51c9728ceb06df41cebc126ec563fbb3fec20c2d9aeebd587[ALL] 024826a9d805e1e0d6e1918f03cd52a8ab605c0b93d70af2f86f1127c4cf6351dd"}, "vout": 0, "txid": "1984896e40b2dda7c5c0181b683c564c8ca9431d453807397673da8e27d648bc"}, {"sequence": 4294967295, "scriptSig": {"hex": "4730440220710cf9f52012fcb62c345edef1f08e540a0d8b5fc7d9d6e18e642e198465c7f202204d17bc49b61465935d52d68715618ea5e30f4b4eb2c4b3e4c772dd603491ee700121024cec248408d4b83f056923822279db8485b376db0723523d29f15a0acca13935", "asm": "30440220710cf9f52012fcb62c345edef1f08e540a0d8b5fc7d9d6e18e642e198465c7f202204d17bc49b61465935d52d68715618ea5e30f4b4eb2c4b3e4c772dd603491ee70[ALL] 024cec248408d4b83f056923822279db8485b376db0723523d29f15a0acca13935"}, "vout": 0, "txid": "938052a9e234c3a13f8bf7eefa2e25b7ef588786b03cc64c75a49f33b20c0511"}], "txid": "ee1a37e6fb8b82b6e5c6f103459d86cf7898f994d3fab41ad41345ed491488db", "blocktime": 1537873282, "version": 1, "confirmations": 11485, "time": 1537873282, "locktime": 0, "vsize": 372, "size": 372}