{"hash": "ee24c5dde8f500b839479f29e9ed10506f2fe7a7151fd67a4d155d6a8fb63b04", "blockhash": "00000000000000000024a2167bbff67b0be802c0b01cdd79e6331c2be6459f87", "vout": [{"scriptPubKey": {"reqSigs": 1, "hex": "76a914f78b3c9e73ea1e1fc4b88525e1df34aefa48804c88ac", "addresses": ["1PZthizofeRVfM1iVRZ97ECZZc154K3vNJ"], "asm": "OP_DUP OP_HASH160 f78b3c9e73ea1e1fc4b88525e1df34aefa48804c OP_EQUALVERIFY OP_CHECKSIG", "type": "pubkeyhash"}, "value": 0.00183316, "n": 0}, {"scriptPubKey": {"reqSigs": 1, "hex": "76a914326e983543af2ff8d6964f86deed3e5645ac4ba788ac", "addresses": ["15bfGqWqMXdVq8kuHfjmB65qAji7z8RGra"], "asm": "OP_DUP OP_HASH160 326e983543af2ff8d6964f86deed3e5645ac4ba7 OP_EQUALVERIFY OP_CHECKSIG", "type": "pubkeyhash"}, "value": 0.00268767, "n": 1}], "hex": "010000000168f8e8eb11f71f35ffc0493f89228ef1bb4d153037e6d3cefff540db6bfb78bb000000008a47304402200281f0fdd1e19d003e2f2e8fec1f1397dbf7d3d6395d73efbacf00fac52a4db6022023b273848f04681dbf03d47aba11568201b8491b82a375a0989306ba2d113d6c014104d48d7181a8a509ca4b3883b29ac526f720a3e424b58f86f0883a2cf3dad69d5261cce5184e8798679a8582064e799cfd4f2a593bc54a2d10512efda97d023593fdffffff0214cc0200000000001976a914f78b3c9e73ea1e1fc4b88525e1df34aefa48804c88acdf190400000000001976a914326e983543af2ff8d6964f86deed3e5645ac4ba788ac0d490800", "vin": [{"sequence": 4294967293, "scriptSig": {"hex": "47304402200281f0fdd1e19d003e2f2e8fec1f1397dbf7d3d6395d73efbacf00fac52a4db6022023b273848f04681dbf03d47aba11568201b8491b82a375a0989306ba2d113d6c014104d48d7181a8a509ca4b3883b29ac526f720a3e424b58f86f0883a2cf3dad69d5261cce5184e8798679a8582064e799cfd4f2a593bc54a2d10512efda97d023593", "asm": "304402200281f0fdd1e19d003e2f2e8fec1f1397dbf7d3d6395d73efbacf00fac52a4db6022023b273848f04681dbf03d47aba11568201b8491b82a375a0989306ba2d113d6c[ALL] 04d48d7181a8a509ca4b3883b29ac526f720a3e424b58f86f0883a2cf3dad69d5261cce5184e8798679a8582064e799cfd4f2a593bc54a2d10512efda97d023593"}, "vout": 0, "txid": "bb78fb6bdb40f5ffced3e63730154dbbf18e22893f49c0ff351ff711ebe8f868"}], "txid": "ee24c5dde8f500b839479f29e9ed10506f2fe7a7151fd67a4d155d6a8fb63b04", "blocktime": 1537870564, "version": 1, "confirmations": 11515, "time": 1537870564, "locktime": 542989, "vsize": 257, "size": 257}