{"hash": "ee2695ab20259e1451eaf66019eb16edaf9ea6684957bc6170bc848aa6e84bbd", "blockhash": "0000000000000000001e0dab787dd257d1dbfcb92a98c2207d5e1078be1f4165", "vout": [{"scriptPubKey": {"reqSigs": 1, "hex": "76a914e8cea30989bd15530f819b766684b00dc7ba7cfa88ac", "addresses": ["1NDyJtNTjmwk5xPNhjgAMu4HDHigtobu1s"], "asm": "OP_DUP OP_HASH160 e8cea30989bd15530f819b766684b00dc7ba7cfa OP_EQUALVERIFY OP_CHECKSIG", "type": "pubkeyhash"}, "value": 2.83251072, "n": 0}, {"scriptPubKey": {"reqSigs": 1, "hex": "76a914c23cbae62b4a76cbe896ac834e982ee1585012ca88ac", "addresses": ["1Ji2qpFWodmkcnkvqMtn9ysttgxAjNBBMn"], "asm": "OP_DUP OP_HASH160 c23cbae62b4a76cbe896ac834e982ee1585012ca OP_EQUALVERIFY OP_CHECKSIG", "type": "pubkeyhash"}, "value": 0.00903733, "n": 1}], "hex": "020000000612c6d2a1fab4733589598f6f59d72a1c9f687a9b7db09eb01fba7bf3d93f04ca010000006a4730440220226a13b53fb74aaf43b703b0fcba42a37a3ad8da69304c997c73543fa469ea4302200dac03f22698d2959c12916817ece5bc7ec76cbc64e3d78544d05210f41d932e0121026914679ecc20473de9b460a56003b45e9fe9fae12b08db0b9ae7ec71ae7b8089feffffff22581757cb4385d9d39aa44a0fd172b70d0f872f193283f8840f679bf84ce336000000006b483045022100c887d3ca6985650e2dfcc20720a815e9f26004bf5af1d5681fc848c99c0b857b022028c9ca6bb168677c3f8dce40c669f5cad5aa3a14642f4636ec2b48d64ea8b2470121029b09c3919aafd8aa527e9e63894cbcd49d9ab4361ae7d28035f0ac04120b6e30feffffff9bb571d495a1b3e92f7f552868e73702a391ce81ba6a48af2f97e1e9e0687121010000006b483045022100bf9d3361520371aefd2156150ff01fd8670c62ac8bda19022d8f40a4dfe58020022075b2b07e4e29ad96a366b94a04f72b03d618d01e07ea03270e2ba6b79a9b3bbe0121027f146b0be0bd08904f9e7ce432a8e478b98cf7fa30199f5c846af132892d5f34feffffffa02cdf8b29cea15f95c6ced1a03ed7ac89ee69501d35a7fc8ce6603bc33f6925000000006a47304402207a9eebbcfdec5d3a67dec15fd7d8effedbf71de874126157042ad0b38abb34aa02200f24fb6f5320697cea416ad2b6fc749e46df07081945fbda80912011e60d98b80121026693458c394df7d0c3a9b706c53bf666b54cb754913f9377170725748c4f4f1efeffffffbad26b188665754a9d7ea0c23b4b1e02f12f609ad827c955c3db90ee9cdfb463010000006a47304402201fd471c0a6381d1c0ca6936433417c5ba7b144c32866a91ed508e0d3d7bb74ad022041e312d6499d62b25668770e31a918c5197a16691b99c513f99d88dd483704b501210213d5fc9fd930d4a54a86cbee7edf62bfcff433c0855b6fca525a0730ff4228a3feffffffea2b2474561df65f3b3427677f4922695bf8ec899ffe23a4e06eaed2761c2f4c010000006a4730440220775dd8f8858f8144a0bb14758625f747c7eb787beb766a49d113166d5e352964022023d46a536566c46304ddbfd95db219c1f1f1601b8f05dfa9c3550c741c649372012103fe5eb187cdd7854ce32bc85bd61b471edb3cea040153cac49f478b063922e295feffffff028011e210000000001976a914e8cea30989bd15530f819b766684b00dc7ba7cfa88ac35ca0d00000000001976a914c23cbae62b4a76cbe896ac834e982ee1585012ca88acbc480800", "vin": [{"sequence": 4294967294, "scriptSig": {"hex": "4730440220226a13b53fb74aaf43b703b0fcba42a37a3ad8da69304c997c73543fa469ea4302200dac03f22698d2959c12916817ece5bc7ec76cbc64e3d78544d05210f41d932e0121026914679ecc20473de9b460a56003b45e9fe9fae12b08db0b9ae7ec71ae7b8089", "asm": "30440220226a13b53fb74aaf43b703b0fcba42a37a3ad8da69304c997c73543fa469ea4302200dac03f22698d2959c12916817ece5bc7ec76cbc64e3d78544d05210f41d932e[ALL] 026914679ecc20473de9b460a56003b45e9fe9fae12b08db0b9ae7ec71ae7b8089"}, "vout": 1, "txid": "ca043fd9f37bba1fb09eb07d9b7a689f1c2ad7596f8f59893573b4faa1d2c612"}, {"sequence": 4294967294, "scriptSig": {"hex": "483045022100c887d3ca6985650e2dfcc20720a815e9f26004bf5af1d5681fc848c99c0b857b022028c9ca6bb168677c3f8dce40c669f5cad5aa3a14642f4636ec2b48d64ea8b2470121029b09c3919aafd8aa527e9e63894cbcd49d9ab4361ae7d28035f0ac04120b6e30", "asm": "3045022100c887d3ca6985650e2dfcc20720a815e9f26004bf5af1d5681fc848c99c0b857b022028c9ca6bb168677c3f8dce40c669f5cad5aa3a14642f4636ec2b48d64ea8b247[ALL] 029b09c3919aafd8aa527e9e63894cbcd49d9ab4361ae7d28035f0ac04120b6e30"}, "vout": 0, "txid": "36e34cf89b670f84f88332192f870f0db772d10f4aa49ad3d98543cb57175822"}, {"sequence": 4294967294, "scriptSig": {"hex": "483045022100bf9d3361520371aefd2156150ff01fd8670c62ac8bda19022d8f40a4dfe58020022075b2b07e4e29ad96a366b94a04f72b03d618d01e07ea03270e2ba6b79a9b3bbe0121027f146b0be0bd08904f9e7ce432a8e478b98cf7fa30199f5c846af132892d5f34", "asm": "3045022100bf9d3361520371aefd2156150ff01fd8670c62ac8bda19022d8f40a4dfe58020022075b2b07e4e29ad96a366b94a04f72b03d618d01e07ea03270e2ba6b79a9b3bbe[ALL] 027f146b0be0bd08904f9e7ce432a8e478b98cf7fa30199f5c846af132892d5f34"}, "vout": 1, "txid": "217168e0e9e1972faf486aba81ce91a30237e76828557f2fe9b3a195d471b59b"}, {"sequence": 4294967294, "scriptSig": {"hex": "47304402207a9eebbcfdec5d3a67dec15fd7d8effedbf71de874126157042ad0b38abb34aa02200f24fb6f5320697cea416ad2b6fc749e46df07081945fbda80912011e60d98b80121026693458c394df7d0c3a9b706c53bf666b54cb754913f9377170725748c4f4f1e", "asm": "304402207a9eebbcfdec5d3a67dec15fd7d8effedbf71de874126157042ad0b38abb34aa02200f24fb6f5320697cea416ad2b6fc749e46df07081945fbda80912011e60d98b8[ALL] 026693458c394df7d0c3a9b706c53bf666b54cb754913f9377170725748c4f4f1e"}, "vout": 0, "txid": "25693fc33b60e68cfca7351d5069ee89acd73ea0d1cec6955fa1ce298bdf2ca0"}, {"sequence": 4294967294, "scriptSig": {"hex": "47304402201fd471c0a6381d1c0ca6936433417c5ba7b144c32866a91ed508e0d3d7bb74ad022041e312d6499d62b25668770e31a918c5197a16691b99c513f99d88dd483704b501210213d5fc9fd930d4a54a86cbee7edf62bfcff433c0855b6fca525a0730ff4228a3", "asm": "304402201fd471c0a6381d1c0ca6936433417c5ba7b144c32866a91ed508e0d3d7bb74ad022041e312d6499d62b25668770e31a918c5197a16691b99c513f99d88dd483704b5[ALL] 0213d5fc9fd930d4a54a86cbee7edf62bfcff433c0855b6fca525a0730ff4228a3"}, "vout": 1, "txid": "63b4df9cee90dbc355c927d89a602ff1021e4b3bc2a07e9d4a756586186bd2ba"}, {"sequence": 4294967294, "scriptSig": {"hex": "4730440220775dd8f8858f8144a0bb14758625f747c7eb787beb766a49d113166d5e352964022023d46a536566c46304ddbfd95db219c1f1f1601b8f05dfa9c3550c741c649372012103fe5eb187cdd7854ce32bc85bd61b471edb3cea040153cac49f478b063922e295", "asm": "30440220775dd8f8858f8144a0bb14758625f747c7eb787beb766a49d113166d5e352964022023d46a536566c46304ddbfd95db219c1f1f1601b8f05dfa9c3550c741c649372[ALL] 03fe5eb187cdd7854ce32bc85bd61b471edb3cea040153cac49f478b063922e295"}, "vout": 1, "txid": "4c2f1c76d2ae6ee0a423fe9f89ecf85b6922497f6727343b5ff61d5674242bea"}], "txid": "ee2695ab20259e1451eaf66019eb16edaf9ea6684957bc6170bc848aa6e84bbd", "blocktime": 1537872475, "version": 2, "confirmations": 11486, "time": 1537872475, "locktime": 542908, "vsize": 962, "size": 962}