{"hash": "d497de30bcb0e6977c822a0ba504c09092d63ab9fa35fa4f98e2a5c5ccf0278b", "blockhash": "00000000000000000024a2167bbff67b0be802c0b01cdd79e6331c2be6459f87", "vout": [{"scriptPubKey": {"reqSigs": 1, "hex": "a9140b6e414f10d3cca65bbce813d06a3af4397caf6587", "addresses": ["32jTSK8bUAPqAZUG1H2W2esrVjTYNumjJc"], "asm": "OP_HASH160 0b6e414f10d3cca65bbce813d06a3af4397caf65 OP_EQUAL", "type": "scripthash"}, "value": 0.01066062, "n": 0}, {"scriptPubKey": {"reqSigs": 1, "hex": "a914092b8c8d2df6f32fad4c16b14b1602569350188e87", "addresses": ["32XWB7Khpf2MuUaykhsZf69ST4Q2JmHMZE"], "asm": "OP_HASH160 092b8c8d2df6f32fad4c16b14b1602569350188e OP_EQUAL", "type": "scripthash"}, "value": 0.02192098, "n": 1}], "hex": "020000000001020ab946375d37b1dd71aedcbed035f3f56a5d5be98b780039fbbc58e363c84e3b0300000017160014a9461dd8e6d3c12e0542309031f7311bc83dd6cefeffffff69770db456444e51d4348ed3d5535977b7c98ece9faab94c535d5377ecf985100000000017160014dd3759057731d8f82b1e17686db7e586d89d8f55feffffff024e4410000000000017a9140b6e414f10d3cca65bbce813d06a3af4397caf6587e27221000000000017a914092b8c8d2df6f32fad4c16b14b1602569350188e870247304402206063fcc836f6e7e8346c349f2e51e3d1bc85aa7a5627698292b407023efda6bb022066fbe292dfba1d2eb479bd60755c043217cf2ecfd8ac627c89ea5ffc7f1ffad001210256403fd0fd8785c6117cd77f9dc7350e0f6081e70856ca904c421657c62db76c02473044022056150535be779675b76f481fb1b72a53d5da29a4ac7835a7daa8d70a97aa5f9802202a49a229fe6309de80b4aab1c72f2f28d207d059f40ab52ae95fe9cd880d8f79012103ff198feffc72c5964a942bf90fbceb63c5c6a9f725120343f2c1ee88cf2b47fe0d490800", "vin": [{"txinwitness": ["304402206063fcc836f6e7e8346c349f2e51e3d1bc85aa7a5627698292b407023efda6bb022066fbe292dfba1d2eb479bd60755c043217cf2ecfd8ac627c89ea5ffc7f1ffad001", "0256403fd0fd8785c6117cd77f9dc7350e0f6081e70856ca904c421657c62db76c"], "sequence": 4294967294, "scriptSig": {"hex": "160014a9461dd8e6d3c12e0542309031f7311bc83dd6ce", "asm": "0014a9461dd8e6d3c12e0542309031f7311bc83dd6ce"}, "vout": 3, "txid": "3b4ec863e358bcfb3900788be95b5d6af5f335d0bedcae71ddb1375d3746b90a"}, {"txinwitness": ["3044022056150535be779675b76f481fb1b72a53d5da29a4ac7835a7daa8d70a97aa5f9802202a49a229fe6309de80b4aab1c72f2f28d207d059f40ab52ae95fe9cd880d8f7901", "03ff198feffc72c5964a942bf90fbceb63c5c6a9f725120343f2c1ee88cf2b47fe"], "sequence": 4294967294, "scriptSig": {"hex": "160014dd3759057731d8f82b1e17686db7e586d89d8f55", "asm": "0014dd3759057731d8f82b1e17686db7e586d89d8f55"}, "vout": 0, "txid": "1085f9ec77535d534cb9aa9fce8ec9b7775953d5d38e34d4514e4456b40d7769"}], "txid": "ee2984215d6c5cd779514d950e2b4756dfe006944fecdc763603b117c5bf3187", "blocktime": 1537870564, "version": 2, "confirmations": 11515, "time": 1537870564, "locktime": 542989, "vsize": 256, "size": 418}