{"hash": "ee2c8fa9cc8e3af340cf0b10c17e393a3c965706952954f058556d059fdea5a5", "blockhash": "00000000000000000024a2167bbff67b0be802c0b01cdd79e6331c2be6459f87", "vout": [{"scriptPubKey": {"reqSigs": 1, "hex": "a914ab61944f0c827ba9bfb30882d2bddb3ff2a671f487", "addresses": ["3HKCNH3vNYTHPkLcbLzpWuMs4ASb3PsMB4"], "asm": "OP_HASH160 ab61944f0c827ba9bfb30882d2bddb3ff2a671f4 OP_EQUAL", "type": "scripthash"}, "value": 0.00394435, "n": 0}], "hex": "0100000005640d464af6179d37aa6171689747dc27bd201113057977dc0f96720decb77917000000006b48304502210087edb8d440bc6d6ee407612ef644d86b4e60949c97a9c6ab28bfa7fd0253626f02205f138c03691bbc730f75bb9ebb627940f23200ad1d402a4e7c8765b2f4b591ee012103683041e756e629449e0066464bdfee243da6e2ceddee91f47c6802fb59cc0a88ffffffff9b0685a042d8ab25da145525bc01abfdd9e94d38e193ebd7be6fe52c83ae9342000000006a473044022026067ecd3e8fa3619a31693cc179259f46513dd6651ce6048954acb5b26b8a1a02200772db9dafc30a7a7bd1d24506d7ad48b84f48f0c28314b53c1ec1f1ee2dccc50121039903448133935a38869948e768149a7ac9879c4fdbdad6a9da59578b26db1800ffffffff16c1a3680c7b763aa5f68283615bcce7aab3b2f228f4b6b5a97cdabaae914366010000006b483045022100ca60001ca87df51aeff34de158f2b317ad49b9739e0ceb91d5feacaaf299ad5c022056d4179f745ea4a59baefb0266b8f8ca7a2bd71c04f7f51e026ee7c2504f2659012103d93db3eae0a4cca9536523fb0dcaf51c898ff4166674571e9730b4bc101a44e1ffffffffbe6cf4c8b4de496fafb551cf2b1d7019e40c326f21644d819e3a0d9b897ee475000000006a47304402207b226eaaf3ea482782346c436feb84b2371fbef8e0ab35a584baa83c9ec1d379022002fbe6784bb81ec4fb963e09ac44fb965c7d30c0a6841879b773eedf80a13683012103971ee7da5a4de8e51f944da050b56b66d01fa37ff9cc1767d991761aa5535129ffffffff41a4ffb3aca08627dec63a44722981721117afecad173d7949e0e6b1ead519a0000000006a47304402201595880dce24dd0524942da0e29f83894770c8d756d7d7b1eb9f5b415bd43f8e02200eeb1eea5a44b7648506634887b2c44caca2cabfa5d12f50daff4be9e2b7a52f01210364b2d851b8afdf098c7d8ab2e7d01a922c6dfe35e4b9e9fe013a59a6deb83d6bffffffff01c30406000000000017a914ab61944f0c827ba9bfb30882d2bddb3ff2a671f48700000000", "vin": [{"sequence": 4294967295, "scriptSig": {"hex": "48304502210087edb8d440bc6d6ee407612ef644d86b4e60949c97a9c6ab28bfa7fd0253626f02205f138c03691bbc730f75bb9ebb627940f23200ad1d402a4e7c8765b2f4b591ee012103683041e756e629449e0066464bdfee243da6e2ceddee91f47c6802fb59cc0a88", "asm": "304502210087edb8d440bc6d6ee407612ef644d86b4e60949c97a9c6ab28bfa7fd0253626f02205f138c03691bbc730f75bb9ebb627940f23200ad1d402a4e7c8765b2f4b591ee[ALL] 03683041e756e629449e0066464bdfee243da6e2ceddee91f47c6802fb59cc0a88"}, "vout": 0, "txid": "1779b7ec0d72960fdc777905131120bd27dc4797687161aa379d17f64a460d64"}, {"sequence": 4294967295, "scriptSig": {"hex": "473044022026067ecd3e8fa3619a31693cc179259f46513dd6651ce6048954acb5b26b8a1a02200772db9dafc30a7a7bd1d24506d7ad48b84f48f0c28314b53c1ec1f1ee2dccc50121039903448133935a38869948e768149a7ac9879c4fdbdad6a9da59578b26db1800", "asm": "3044022026067ecd3e8fa3619a31693cc179259f46513dd6651ce6048954acb5b26b8a1a02200772db9dafc30a7a7bd1d24506d7ad48b84f48f0c28314b53c1ec1f1ee2dccc5[ALL] 039903448133935a38869948e768149a7ac9879c4fdbdad6a9da59578b26db1800"}, "vout": 0, "txid": "4293ae832ce56fbed7eb93e1384de9d9fdab01bc255514da25abd842a085069b"}, {"sequence": 4294967295, "scriptSig": {"hex": "483045022100ca60001ca87df51aeff34de158f2b317ad49b9739e0ceb91d5feacaaf299ad5c022056d4179f745ea4a59baefb0266b8f8ca7a2bd71c04f7f51e026ee7c2504f2659012103d93db3eae0a4cca9536523fb0dcaf51c898ff4166674571e9730b4bc101a44e1", "asm": "3045022100ca60001ca87df51aeff34de158f2b317ad49b9739e0ceb91d5feacaaf299ad5c022056d4179f745ea4a59baefb0266b8f8ca7a2bd71c04f7f51e026ee7c2504f2659[ALL] 03d93db3eae0a4cca9536523fb0dcaf51c898ff4166674571e9730b4bc101a44e1"}, "vout": 1, "txid": "664391aebada7ca9b5b6f428f2b2b3aae7cc5b618382f6a53a767b0c68a3c116"}, {"sequence": 4294967295, "scriptSig": {"hex": "47304402207b226eaaf3ea482782346c436feb84b2371fbef8e0ab35a584baa83c9ec1d379022002fbe6784bb81ec4fb963e09ac44fb965c7d30c0a6841879b773eedf80a13683012103971ee7da5a4de8e51f944da050b56b66d01fa37ff9cc1767d991761aa5535129", "asm": "304402207b226eaaf3ea482782346c436feb84b2371fbef8e0ab35a584baa83c9ec1d379022002fbe6784bb81ec4fb963e09ac44fb965c7d30c0a6841879b773eedf80a13683[ALL] 03971ee7da5a4de8e51f944da050b56b66d01fa37ff9cc1767d991761aa5535129"}, "vout": 0, "txid": "75e47e899b0d3a9e814d64216f320ce419701d2bcf51b5af6f49deb4c8f46cbe"}, {"sequence": 4294967295, "scriptSig": {"hex": "47304402201595880dce24dd0524942da0e29f83894770c8d756d7d7b1eb9f5b415bd43f8e02200eeb1eea5a44b7648506634887b2c44caca2cabfa5d12f50daff4be9e2b7a52f01210364b2d851b8afdf098c7d8ab2e7d01a922c6dfe35e4b9e9fe013a59a6deb83d6b", "asm": "304402201595880dce24dd0524942da0e29f83894770c8d756d7d7b1eb9f5b415bd43f8e02200eeb1eea5a44b7648506634887b2c44caca2cabfa5d12f50daff4be9e2b7a52f[ALL] 0364b2d851b8afdf098c7d8ab2e7d01a922c6dfe35e4b9e9fe013a59a6deb83d6b"}, "vout": 0, "txid": "a019d5eab1e6e049793d17adecaf171172812972443ac6de2786a0acb3ffa441"}], "txid": "ee2c8fa9cc8e3af340cf0b10c17e393a3c965706952954f058556d059fdea5a5", "blocktime": 1537870564, "version": 1, "confirmations": 11515, "time": 1537870564, "locktime": 0, "vsize": 779, "size": 779}