{"hash": "9e5dcf738c3af5f620b71bd81086f2aebc470c9b9a345f901432916899a7f17b", "blockhash": "0000000000000000001cda96e906b7601b7a6fb1a3b62bca570a9e5d8f4b3de1", "vout": [{"scriptPubKey": {"reqSigs": 1, "hex": "a9146aafaf5743817b3833702b43fa3ea4045467dad787", "addresses": ["3BR81gR5KG5gT3WMZtyVm7jJhonrwgrufW"], "asm": "OP_HASH160 6aafaf5743817b3833702b43fa3ea4045467dad7 OP_EQUAL", "type": "scripthash"}, "value": 0.02733857, "n": 0}], "hex": "0100000000010148eb22c91d6e4fda7c6faf55f484a3f379f5a9df267b40a37d1525ce4933376501000000171600144fd54530e93d60ca1e912b78d18fc00135d47970ffffffff0121b729000000000017a9146aafaf5743817b3833702b43fa3ea4045467dad78702483045022100ee27b94b5f1e3c71dd298aca652f7e8d3c57b9efea729f4dccf2d068c74b962802204117e150fe4ac6d7e3a24f96fdbf8febfcbe4675d051a2b571fe5d5e36f624c30121023baa7af5a27b8d8a1bddc1cf7fb2132932a94f8491ac90ae67d52f24f12b50c700000000", "vin": [{"txinwitness": ["3045022100ee27b94b5f1e3c71dd298aca652f7e8d3c57b9efea729f4dccf2d068c74b962802204117e150fe4ac6d7e3a24f96fdbf8febfcbe4675d051a2b571fe5d5e36f624c301", "023baa7af5a27b8d8a1bddc1cf7fb2132932a94f8491ac90ae67d52f24f12b50c7"], "sequence": 4294967295, "scriptSig": {"hex": "1600144fd54530e93d60ca1e912b78d18fc00135d47970", "asm": "00144fd54530e93d60ca1e912b78d18fc00135d47970"}, "vout": 1, "txid": "65373349ce25157da3407b26dfa9f579f3a384f455af6f7cda4f6e1dc922eb48"}], "txid": "ee2c0f5806538d82d7930557293100aceae2cffe635cae508e0e68f35cb058d9", "blocktime": 1537873282, "version": 1, "confirmations": 11484, "time": 1537873282, "locktime": 0, "vsize": 134, "size": 216}