{"hash": "ee314adf1b7e3e5162eef9d0eafbed37330768d6bde05dadc24ef752b12e3bad", "blockhash": "0000000000000000000e13cef7c366c0283d82e591d1acd082e914b08063cdf1", "vout": [{"scriptPubKey": {"reqSigs": 1, "hex": "76a914b9b9db0a5741cfc09b7057ed58e546b47c7dfcb188ac", "addresses": ["1Hw2exuipTHSK7FjA3jAzg9DvvxXUdAfdb"], "asm": "OP_DUP OP_HASH160 b9b9db0a5741cfc09b7057ed58e546b47c7dfcb1 OP_EQUALVERIFY OP_CHECKSIG", "type": "pubkeyhash"}, "value": 0.00959476, "n": 0}, {"scriptPubKey": {"reqSigs": 1, "hex": "a914fc44f16cafe22afa6128adf6eeaffe67cc2bcf9187", "addresses": ["3Qgto8g7PPApbq6c3LXT9jsiPqYmTGtBdD"], "asm": "OP_HASH160 fc44f16cafe22afa6128adf6eeaffe67cc2bcf91 OP_EQUAL", "type": "scripthash"}, "value": 0.01751182, "n": 1}], "hex": "01000000019ea8424da3dab61a58585f21f2b7c6b692daacaeff2dc39c0131c1a30fbad553010000006a4730440220386b3af45bf650b6cdef132ccc4e4e790ce4f8b07637917a3442104815b2308d0220551390fb79520a04edfc42549b8b4fd72eb5d776bee3f564f3a9f10bcc79f58c012103626886bbdd018615628fa1e6316c4afd97840b52523f851107565330adc1c381ffffffff02f4a30e00000000001976a914b9b9db0a5741cfc09b7057ed58e546b47c7dfcb188ac8eb81a000000000017a914fc44f16cafe22afa6128adf6eeaffe67cc2bcf918700000000", "vin": [{"sequence": 4294967295, "scriptSig": {"hex": "4730440220386b3af45bf650b6cdef132ccc4e4e790ce4f8b07637917a3442104815b2308d0220551390fb79520a04edfc42549b8b4fd72eb5d776bee3f564f3a9f10bcc79f58c012103626886bbdd018615628fa1e6316c4afd97840b52523f851107565330adc1c381", "asm": "30440220386b3af45bf650b6cdef132ccc4e4e790ce4f8b07637917a3442104815b2308d0220551390fb79520a04edfc42549b8b4fd72eb5d776bee3f564f3a9f10bcc79f58c[ALL] 03626886bbdd018615628fa1e6316c4afd97840b52523f851107565330adc1c381"}, "vout": 1, "txid": "53d5ba0fa3c131019cc32dffaeacda92b6c6b7f2215f58581ab6daa34d42a89e"}], "txid": "ee314adf1b7e3e5162eef9d0eafbed37330768d6bde05dadc24ef752b12e3bad", "blocktime": 1537871767, "version": 1, "confirmations": 11495, "time": 1537871767, "locktime": 0, "vsize": 223, "size": 223}