{"hash": "bba64ac986bc16c339b8471d7c1451467edfe86bc0cb409415445db19c1889b9", "blockhash": "000000000000000000022b45ed06c6f4ccd3cf7fb5ba4856ebd2e58215665228", "vout": [{"scriptPubKey": {"reqSigs": 1, "hex": "76a914b55649c194881389dbf1b54b81a544272554d14d88ac", "addresses": ["1HXpg8D9AMGFVZ9FEU2tkZYvAZ8xBhVudo"], "asm": "OP_DUP OP_HASH160 b55649c194881389dbf1b54b81a544272554d14d OP_EQUALVERIFY OP_CHECKSIG", "type": "pubkeyhash"}, "value": 0.0026686, "n": 0}, {"scriptPubKey": {"reqSigs": 1, "hex": "a914709dfc791b632254a08d3485cfce781e028c4a9687", "addresses": ["3BxUs6z1sSpNRFuuFcoZD2k8LV1FmBtdPw"], "asm": "OP_HASH160 709dfc791b632254a08d3485cfce781e028c4a96 OP_EQUAL", "type": "scripthash"}, "value": 0.01000596, "n": 1}], "hex": "02000000000102412e24d09fa33c84c808718fae7dcffef76b52c3074bd2f96667fb57a2d41b950100000017160014cfcc8bc674a06c785d405926948899dd35a62503feffffffd1f6087120789d5574be03146e165afaa3cbe277d798116ca007d18ef5f9dede13000000171600148734f8f7827b4901a801acb69821b80e04a2f007feffffff026c120400000000001976a914b55649c194881389dbf1b54b81a544272554d14d88ac94440f000000000017a914709dfc791b632254a08d3485cfce781e028c4a968702483045022100e80088dd8d6b70f3c57600d7f0b1a1d0f4d1cae3c249952104658cc79db3ee6b02203065305fb561e95db8b099fc854659a4b955fa9ab6f09ce5de01eba89b1b2d51012102fa6ebc214a6556af493fa9d3df54e8238074f3d673c6d4dcdf20f70646cd8f4b024830450221008afb2e686ae536978e7e9aa9f601c5f83479c43ae69724003604396253643e2f022044cd92038c85380bba4de29233a3bf027aac70717d254cfe7b6ef7ab487c9c25012102160ab6f0bcbd7591ff094235f2696eae441b44159112badd5ff9d3e6e620da520b490800", "vin": [{"txinwitness": ["3045022100e80088dd8d6b70f3c57600d7f0b1a1d0f4d1cae3c249952104658cc79db3ee6b02203065305fb561e95db8b099fc854659a4b955fa9ab6f09ce5de01eba89b1b2d5101", "02fa6ebc214a6556af493fa9d3df54e8238074f3d673c6d4dcdf20f70646cd8f4b"], "sequence": 4294967294, "scriptSig": {"hex": "160014cfcc8bc674a06c785d405926948899dd35a62503", "asm": "0014cfcc8bc674a06c785d405926948899dd35a62503"}, "vout": 1, "txid": "951bd4a257fb6766f9d24b07c3526bf7fecf7dae8f7108c8843ca39fd0242e41"}, {"txinwitness": ["30450221008afb2e686ae536978e7e9aa9f601c5f83479c43ae69724003604396253643e2f022044cd92038c85380bba4de29233a3bf027aac70717d254cfe7b6ef7ab487c9c2501", "02160ab6f0bcbd7591ff094235f2696eae441b44159112badd5ff9d3e6e620da52"], "sequence": 4294967294, "scriptSig": {"hex": "1600148734f8f7827b4901a801acb69821b80e04a2f007", "asm": "00148734f8f7827b4901a801acb69821b80e04a2f007"}, "vout": 19, "txid": "dedef9f58ed107a06c1198d777e2cba3fa5a166e1403be74559d78207108f6d1"}], "txid": "ee37c129e3fd74b2542b0a2b0dc1a4118add838872aed9ad00f84dd71ba93bc0", "blocktime": 1537869901, "version": 2, "confirmations": 11524, "time": 1537869901, "locktime": 542987, "vsize": 259, "size": 422}