{"hash": "ee3946edc8d4190993b131605e389633929bd60227bbad45ac5774e166210c15", "blockhash": "0000000000000000001f76057863aec43deb6fa401d9628bb513d65a8098bfab", "vout": [{"scriptPubKey": {"reqSigs": 1, "hex": "a91437eacc61013e286f1d1315b1e9dd6d623164fcf087", "addresses": ["36ngNApdsTVRVWHJPtmsyHnsgbZqzvxpBX"], "asm": "OP_HASH160 37eacc61013e286f1d1315b1e9dd6d623164fcf0 OP_EQUAL", "type": "scripthash"}, "value": 0.00234075, "n": 0}, {"scriptPubKey": {"reqSigs": 1, "hex": "76a9140a01292c8e68b174db914163118cfbb28e42645188ac", "addresses": ["1uu9aKzjC2hLLLwQP4AYzVsEuruK2dEva"], "asm": "OP_DUP OP_HASH160 0a01292c8e68b174db914163118cfbb28e426451 OP_EQUALVERIFY OP_CHECKSIG", "type": "pubkeyhash"}, "value": 0.0027612, "n": 1}], "hex": "010000000128897d9648fd8dbbb1f06bd595e750c40b6df7e197e2ddd50315af2bf8e38b9b000000006b483045022100da0312d1eee43ce2c2ea98a62c8018e1ddb54c3b805421da77d2c54c1664f6ed022070c6afd99d0441003f7a63e7127b80583afa6142493c407c493e5d14910f75570121034c879ea9c5d8ca3da73c9e896db2e70879d860a40b436f1e620c9eb672dc3485ffffffff025b9203000000000017a91437eacc61013e286f1d1315b1e9dd6d623164fcf08798360400000000001976a9140a01292c8e68b174db914163118cfbb28e42645188ac00000000", "vin": [{"sequence": 4294967295, "scriptSig": {"hex": "483045022100da0312d1eee43ce2c2ea98a62c8018e1ddb54c3b805421da77d2c54c1664f6ed022070c6afd99d0441003f7a63e7127b80583afa6142493c407c493e5d14910f75570121034c879ea9c5d8ca3da73c9e896db2e70879d860a40b436f1e620c9eb672dc3485", "asm": "3045022100da0312d1eee43ce2c2ea98a62c8018e1ddb54c3b805421da77d2c54c1664f6ed022070c6afd99d0441003f7a63e7127b80583afa6142493c407c493e5d14910f7557[ALL] 034c879ea9c5d8ca3da73c9e896db2e70879d860a40b436f1e620c9eb672dc3485"}, "vout": 0, "txid": "9b8be3f82baf1503d5dde297e1f76d0bc450e795d56bf0b1bb8dfd48967d8928"}], "txid": "ee3946edc8d4190993b131605e389633929bd60227bbad45ac5774e166210c15", "blocktime": 1537873891, "version": 1, "confirmations": 11478, "time": 1537873891, "locktime": 0, "vsize": 224, "size": 224}