{"hash": "373182d8dd359be97e8612dfabe0d5d0709ad1f91069887ddd1b8c5a4f79b642", "blockhash": "0000000000000000001f0ddff1eddb255c1121bcd4da4f1bc9a0da00cae72433", "vout": [{"scriptPubKey": {"reqSigs": 1, "hex": "a91432d41bf9c06046eb22b3baa0796bae8ce7f84af187", "addresses": ["36KmokF7sLZSKJn1FeSneZ9h3U99CWuG9W"], "asm": "OP_HASH160 32d41bf9c06046eb22b3baa0796bae8ce7f84af1 OP_EQUAL", "type": "scripthash"}, "value": 0.12976572, "n": 0}, {"scriptPubKey": {"reqSigs": 1, "hex": "a91469f375c628582f161197c23191683bc29bb0683987", "addresses": ["3BMEXb1KMXV9EyoSQ8X3Z2G7DFz516pWTQ"], "asm": "OP_HASH160 69f375c628582f161197c23191683bc29bb06839 OP_EQUAL", "type": "scripthash"}, "value": 0.19, "n": 1}, {"scriptPubKey": {"reqSigs": 1, "hex": "a91403335ff54f2189c0bf70ec39b48c5a54794d9d3a87", "addresses": ["31ywVhsXC382rA3tuPM4NhoeU1yrAXaU1V"], "asm": "OP_HASH160 03335ff54f2189c0bf70ec39b48c5a54794d9d3a OP_EQUAL", "type": "scripthash"}, "value": 0.02, "n": 2}], "hex": "010000000001012ebcfca7117ad3d70a6bedbfc4fe509e5ac969a57fd621540af8ab0ba0f40ed20000000023220020bcb5a8180d78be6d32d553f0d17e64c8a19f0ec29091429aec8fc2412c37c5c8ffffffff03bc01c6000000000017a91432d41bf9c06046eb22b3baa0796bae8ce7f84af187c0ea21010000000017a91469f375c628582f161197c23191683bc29bb068398780841e000000000017a91403335ff54f2189c0bf70ec39b48c5a54794d9d3a87040047304402206938d0be47ecf7bd1b8917970b7029031f8bc68e9f32a1ff0a91f39a7ca79225022017dae81dd8ef64c50d5eb19d564931485293a81a5c4e1d945911f103d6faf3660147304402202bc664451512a8e4967417228e98202af7a1fd58a3627467f9b3c92e24295edc02202665877556e626ccb21fd96a89096dea238dc87fe241f4eadac98c006223424301695221025008adaa3196753345a8eb8fc289201d3bcab25c42705844f9bb7ab452802d01210238765612d34b3fc65118bc6a218518456dcdc46868429644842c64ae6579291a21025e13894f9a56192dab7027550433a3f30aebc9c848b7742890c1c485347b70a853ae00000000", "vin": [{"txinwitness": ["", "304402206938d0be47ecf7bd1b8917970b7029031f8bc68e9f32a1ff0a91f39a7ca79225022017dae81dd8ef64c50d5eb19d564931485293a81a5c4e1d945911f103d6faf36601", "304402202bc664451512a8e4967417228e98202af7a1fd58a3627467f9b3c92e24295edc02202665877556e626ccb21fd96a89096dea238dc87fe241f4eadac98c006223424301", "5221025008adaa3196753345a8eb8fc289201d3bcab25c42705844f9bb7ab452802d01210238765612d34b3fc65118bc6a218518456dcdc46868429644842c64ae6579291a21025e13894f9a56192dab7027550433a3f30aebc9c848b7742890c1c485347b70a853ae"], "sequence": 4294967295, "scriptSig": {"hex": "220020bcb5a8180d78be6d32d553f0d17e64c8a19f0ec29091429aec8fc2412c37c5c8", "asm": "0020bcb5a8180d78be6d32d553f0d17e64c8a19f0ec29091429aec8fc2412c37c5c8"}, "vout": 0, "txid": "d20ef4a00babf80a5421d67fa569c95a9e50fec4bfed6b0ad7d37a11a7fcbc2e"}], "txid": "ee3a6eee1075d7351781bbcebaa57f7c384cd6193695f7ed5c23d4083353a190", "blocktime": 1537872018, "version": 1, "confirmations": 11489, "time": 1537872018, "locktime": 0, "vsize": 246, "size": 436}