{"hash": "ee3d50fe9a1a20ec6dcfb2f4dd696aff30c6815c7b7f8c69cfd45940bf8da133", "blockhash": "0000000000000000001cda96e906b7601b7a6fb1a3b62bca570a9e5d8f4b3de1", "vout": [{"scriptPubKey": {"reqSigs": 1, "hex": "a914d85b8acda4c1c82a3bfbdc8f9cc6faa2b931683b87", "addresses": ["3MR1YSdYDnRjGeQ2aedZGQnovmTBmF5ABL"], "asm": "OP_HASH160 d85b8acda4c1c82a3bfbdc8f9cc6faa2b931683b OP_EQUAL", "type": "scripthash"}, "value": 0.00312475, "n": 0}, {"scriptPubKey": {"reqSigs": 1, "hex": "76a9145af92f3ce9b5ec2849fc4c747a54f1104c2a8ced88ac", "addresses": ["19J2KuifsKU2ov6mdKnkJF4gSRMFGQFDgr"], "asm": "OP_DUP OP_HASH160 5af92f3ce9b5ec2849fc4c747a54f1104c2a8ced OP_EQUALVERIFY OP_CHECKSIG", "type": "pubkeyhash"}, "value": 0.00027007, "n": 1}], "hex": "01000000015a5b0c9ca4172404a5efc85c35a745a963c33a07964370e853b66f6cf5ab33cd010000006a473044022008d0de05f152ab534177f2b5c07859949a5a6ebf53f92d3a4ca5bc1ba90965c302204770bca9fd22023a93f8b2fa4a8de4dcdcf3201bf278e48dcf2be036ec80f59a0121021b8c73684bb17c5f8d643d6891cac4974833f0c49b60155c835589e39a7e65caffffffff029bc404000000000017a914d85b8acda4c1c82a3bfbdc8f9cc6faa2b931683b877f690000000000001976a9145af92f3ce9b5ec2849fc4c747a54f1104c2a8ced88ac00000000", "vin": [{"sequence": 4294967295, "scriptSig": {"hex": "473044022008d0de05f152ab534177f2b5c07859949a5a6ebf53f92d3a4ca5bc1ba90965c302204770bca9fd22023a93f8b2fa4a8de4dcdcf3201bf278e48dcf2be036ec80f59a0121021b8c73684bb17c5f8d643d6891cac4974833f0c49b60155c835589e39a7e65ca", "asm": "3044022008d0de05f152ab534177f2b5c07859949a5a6ebf53f92d3a4ca5bc1ba90965c302204770bca9fd22023a93f8b2fa4a8de4dcdcf3201bf278e48dcf2be036ec80f59a[ALL] 021b8c73684bb17c5f8d643d6891cac4974833f0c49b60155c835589e39a7e65ca"}, "vout": 1, "txid": "cd33abf56c6fb653e8704396073ac363a945a7355cc8efa5042417a49c0c5b5a"}], "txid": "ee3d50fe9a1a20ec6dcfb2f4dd696aff30c6815c7b7f8c69cfd45940bf8da133", "blocktime": 1537873282, "version": 1, "confirmations": 11484, "time": 1537873282, "locktime": 0, "vsize": 223, "size": 223}