{"hash": "ee3f88006a1f828d4bd36616eca10105ad3a5a56f93b930b4a690495a17a77ee", "blockhash": "00000000000000000024a2167bbff67b0be802c0b01cdd79e6331c2be6459f87", "vout": [{"scriptPubKey": {"reqSigs": 1, "hex": "76a914191096343b825caa0848b91f906e15f4a6e721f188ac", "addresses": ["13HXmGDJa8Az4PJuHV37bCFKuNzYKJge9i"], "asm": "OP_DUP OP_HASH160 191096343b825caa0848b91f906e15f4a6e721f1 OP_EQUALVERIFY OP_CHECKSIG", "type": "pubkeyhash"}, "value": 0.0099, "n": 0}, {"scriptPubKey": {"reqSigs": 1, "hex": "76a914959bba6f27a021c3bb04a5088fe565613543610e88ac", "addresses": ["1Ee4EmmSGHXGCAQj2sFRmMk4zJkwXwBoVc"], "asm": "OP_DUP OP_HASH160 959bba6f27a021c3bb04a5088fe565613543610e OP_EQUALVERIFY OP_CHECKSIG", "type": "pubkeyhash"}, "value": 0.10273529, "n": 1}], "hex": "01000000010c84d0ac0c6a3df6156f2c41bf905f7d03184c461c9b62714ce784b6ee486ad4010000006a47304402206b840dbb73b799bb317985c25daffe78c675174fe5bc3206bcf0bf9114fd30a402205f60498fcf3a1f87b785c1984457580028d294fab6f4130db5eb60cbceb99e7901210390af919aa5e8cc7f7d12879096cce6365cb3682aa67b095badcdde2e8945351fffffffff02301b0f00000000001976a914191096343b825caa0848b91f906e15f4a6e721f188acf9c29c00000000001976a914959bba6f27a021c3bb04a5088fe565613543610e88ac00000000", "vin": [{"sequence": 4294967295, "scriptSig": {"hex": "47304402206b840dbb73b799bb317985c25daffe78c675174fe5bc3206bcf0bf9114fd30a402205f60498fcf3a1f87b785c1984457580028d294fab6f4130db5eb60cbceb99e7901210390af919aa5e8cc7f7d12879096cce6365cb3682aa67b095badcdde2e8945351f", "asm": "304402206b840dbb73b799bb317985c25daffe78c675174fe5bc3206bcf0bf9114fd30a402205f60498fcf3a1f87b785c1984457580028d294fab6f4130db5eb60cbceb99e79[ALL] 0390af919aa5e8cc7f7d12879096cce6365cb3682aa67b095badcdde2e8945351f"}, "vout": 1, "txid": "d46a48eeb684e74c71629b1c464c18037d5f90bf412c6f15f63d6a0cacd0840c"}], "txid": "ee3f88006a1f828d4bd36616eca10105ad3a5a56f93b930b4a690495a17a77ee", "blocktime": 1537870564, "version": 1, "confirmations": 11515, "time": 1537870564, "locktime": 0, "vsize": 225, "size": 225}