{"hash": "fe9dd845f99f33affc6d372042ea9cdae1b8773c236945e15c4f3f5ba536ec06", "blockhash": "0000000000000000000e13cef7c366c0283d82e591d1acd082e914b08063cdf1", "vout": [{"scriptPubKey": {"reqSigs": 1, "hex": "a9146daebf7d61ee16fbae98d3fdc910460946b0d18587", "addresses": ["3BgxvA6b2eWfgciEqp2472Ea4i5NJaafMX"], "asm": "OP_HASH160 6daebf7d61ee16fbae98d3fdc910460946b0d185 OP_EQUAL", "type": "scripthash"}, "value": 0.01017348, "n": 0}, {"scriptPubKey": {"reqSigs": 1, "hex": "a9149649ad6d2730bb28020a268d9d80df10a9f74ad487", "addresses": ["3FPfYWwfMfKMGY7fuPHvz2b73RhTNGzsm3"], "asm": "OP_HASH160 9649ad6d2730bb28020a268d9d80df10a9f74ad4 OP_EQUAL", "type": "scripthash"}, "value": 13.88436457, "n": 1}], "hex": "0100000000010152bdc890ec477459bbf02bbe13091974f8a89351fe176b307d29ae7e6346da3a01000000232200207768efcc1e5eb3d28410fac3f45831004c860cc24cddd940a616b34324823fceffffffff0204860f000000000017a9146daebf7d61ee16fbae98d3fdc910460946b0d18587e9dbc1520000000017a9149649ad6d2730bb28020a268d9d80df10a9f74ad48704004730440220740ef254197c9506ff4b2ceb6dae40190345502375a892a428f6c3fc0e3e2b31022027ef884241844ec005fea618e2754ce72dabc0cfd23c554643de3406c1c0c9b301473044022037844d8fb9a8d6e22cf9fc99b0efafc9acb21a30cfca04236b161de57599b42c0220386bc977956d063556042553821f2ad800e6ed201f19c5773e698f9d3702ada00147522102529d5d1f6733ab45d9d50e07db42c7f6b967ae321c38b726c2247f149959b8262103d0c936a5988dd8421c63240496b723b0ec42400c38b9350e32c2eb4f47d8796952ae00000000", "vin": [{"txinwitness": ["", "30440220740ef254197c9506ff4b2ceb6dae40190345502375a892a428f6c3fc0e3e2b31022027ef884241844ec005fea618e2754ce72dabc0cfd23c554643de3406c1c0c9b301", "3044022037844d8fb9a8d6e22cf9fc99b0efafc9acb21a30cfca04236b161de57599b42c0220386bc977956d063556042553821f2ad800e6ed201f19c5773e698f9d3702ada001", "522102529d5d1f6733ab45d9d50e07db42c7f6b967ae321c38b726c2247f149959b8262103d0c936a5988dd8421c63240496b723b0ec42400c38b9350e32c2eb4f47d8796952ae"], "sequence": 4294967295, "scriptSig": {"hex": "2200207768efcc1e5eb3d28410fac3f45831004c860cc24cddd940a616b34324823fce", "asm": "00207768efcc1e5eb3d28410fac3f45831004c860cc24cddd940a616b34324823fce"}, "vout": 1, "txid": "3ada46637eae297d306b17fe5193a8f874190913be2bf0bb597447ec90c8bd52"}], "txid": "ee48ed9a440e212b893e03b372eb48777016bba2991a8a49f2787cdd7fdd74bd", "blocktime": 1537871767, "version": 1, "confirmations": 11495, "time": 1537871767, "locktime": 0, "vsize": 205, "size": 370}