{"hash": "36cde347469aba70b9d90c8f1d5f27c87be9d1ddeffb7f41f5dce7dd1d3b1ec1", "blockhash": "0000000000000000000dcc0f55137456b1a82d3642486a52398922ac4d620174", "vout": [{"scriptPubKey": {"reqSigs": 1, "hex": "a91432748eade424271fd36fb42146cc9fead37a373f87", "addresses": ["36HoLgU8ZoHyJe8nsz6iWzaeeEJUz2DLDB"], "asm": "OP_HASH160 32748eade424271fd36fb42146cc9fead37a373f OP_EQUAL", "type": "scripthash"}, "value": 4.0, "n": 0}, {"scriptPubKey": {"reqSigs": 1, "hex": "a914657a87eed2c730d1626b271448387b2d2ba4a3b787", "addresses": ["3AwaxXAdGTPvCkoLSvcVMbF3b1QTdkJQ33"], "asm": "OP_HASH160 657a87eed2c730d1626b271448387b2d2ba4a3b7 OP_EQUAL", "type": "scripthash"}, "value": 4.59986, "n": 1}], "hex": "010000000001010996637826b7c4c03599f875b305bb276def314616f41da089f594bc4f952b170100000017160014e612313336ec19d4359738881ad55be6daadbf9fffffffff020084d7170000000017a91432748eade424271fd36fb42146cc9fead37a373f8750d46a1b0000000017a914657a87eed2c730d1626b271448387b2d2ba4a3b7870247304402207e15af2240976f86a0ddb8b9110fa446a3378302f9cfb3434ffbc2225a82d3660220492ace222204d229ec6226c84fdf6d4106966182ebdd3bf2abfd9d7c66a5c11c012102d427b82476649cd0c0501587604dde009a8da95def8e3417603b1d8009d0a0fa00000000", "vin": [{"txinwitness": ["304402207e15af2240976f86a0ddb8b9110fa446a3378302f9cfb3434ffbc2225a82d3660220492ace222204d229ec6226c84fdf6d4106966182ebdd3bf2abfd9d7c66a5c11c01", "02d427b82476649cd0c0501587604dde009a8da95def8e3417603b1d8009d0a0fa"], "sequence": 4294967295, "scriptSig": {"hex": "160014e612313336ec19d4359738881ad55be6daadbf9f", "asm": "0014e612313336ec19d4359738881ad55be6daadbf9f"}, "vout": 1, "txid": "172b954fbc94f589a01df4164631ef6d27bb05b375f89935c0c4b72678639609"}], "txid": "ee48f0c8bf5b8780b204ffcab37a907fbb2b6d47c4d6cfd842853377e6bb8ff3", "blocktime": 1537870268, "version": 1, "confirmations": 11516, "time": 1537870268, "locktime": 0, "vsize": 166, "size": 247}