{"hash": "ee48a2532a83ecd8dd0cd95433f3c5782e01c4be1dfcefcd2971e864ec664609", "blockhash": "00000000000000000018f53835495a110e01622372bf6ae95dc86f2b0ab887b0", "vout": [{"scriptPubKey": {"type": "nulldata", "hex": "6a4c50000077880001b8a47c9880c65efa6e67733fbcbefa6b8351586b4e86aeaeacb577c031fc802d33e46e26b0999c6db454cec3cc255baa0bc006141f93731ddc681d100759d4ba30d2c37bb011d97e02cf", "asm": "OP_RETURN 000077880001b8a47c9880c65efa6e67733fbcbefa6b8351586b4e86aeaeacb577c031fc802d33e46e26b0999c6db454cec3cc255baa0bc006141f93731ddc681d100759d4ba30d2c37bb011d97e02cf"}, "value": 0.0, "n": 0}, {"scriptPubKey": {"reqSigs": 1, "hex": "76a9141174a3e8066c75ca7ecb885b877935f00b144aba88ac", "addresses": ["12bJDZy794hjghAm1dW8aodKLw5dzDi25C"], "asm": "OP_DUP OP_HASH160 1174a3e8066c75ca7ecb885b877935f00b144aba OP_EQUALVERIFY OP_CHECKSIG", "type": "pubkeyhash"}, "value": 0.00645746, "n": 1}], "hex": "010000000160e75b535219ebbd91abbd0957a74840d618512dfb66a1c1e2815f0222bc3dab000000006a473044022074929164b0dbb72969deb00adbf8b0c8798aae664aaa365f3bdab8b62c41878b02202e528bb253e9a44c5cd1cdda138d546591daa3a0944906a0dcc516dc9d0bbb72012102cc875f2c25d29dc3f4df95fb23088a1328c486f1aed249241ed2786c6d7b5b1affffffff020000000000000000536a4c50000077880001b8a47c9880c65efa6e67733fbcbefa6b8351586b4e86aeaeacb577c031fc802d33e46e26b0999c6db454cec3cc255baa0bc006141f93731ddc681d100759d4ba30d2c37bb011d97e02cf72da0900000000001976a9141174a3e8066c75ca7ecb885b877935f00b144aba88ac00000000", "vin": [{"sequence": 4294967295, "scriptSig": {"hex": "473044022074929164b0dbb72969deb00adbf8b0c8798aae664aaa365f3bdab8b62c41878b02202e528bb253e9a44c5cd1cdda138d546591daa3a0944906a0dcc516dc9d0bbb72012102cc875f2c25d29dc3f4df95fb23088a1328c486f1aed249241ed2786c6d7b5b1a", "asm": "3044022074929164b0dbb72969deb00adbf8b0c8798aae664aaa365f3bdab8b62c41878b02202e528bb253e9a44c5cd1cdda138d546591daa3a0944906a0dcc516dc9d0bbb72[ALL] 02cc875f2c25d29dc3f4df95fb23088a1328c486f1aed249241ed2786c6d7b5b1a"}, "vout": 0, "txid": "ab3dbc22025f81e2c1a166fb2d5118d64048a75709bdab91bdeb1952535be760"}], "txid": "ee48a2532a83ecd8dd0cd95433f3c5782e01c4be1dfcefcd2971e864ec664609", "blocktime": 1537870928, "version": 1, "confirmations": 11512, "time": 1537870928, "locktime": 0, "vsize": 283, "size": 283}