{"hash": "ee4d2f6d576c7212a4cfabd80de70d05d3c99365faa0ce63bd68e8e0138dcf95", "blockhash": "0000000000000000000e13cef7c366c0283d82e591d1acd082e914b08063cdf1", "vout": [{"scriptPubKey": {"type": "nulldata", "hex": "6a146f6d6e69000000000000001f0000000b54f54380", "asm": "OP_RETURN 6f6d6e69000000000000001f0000000b54f54380"}, "value": 0.0, "n": 0}, {"scriptPubKey": {"reqSigs": 1, "hex": "76a914d5ad12da4ffb0dbc805b6217b15af2134dee9f1788ac", "addresses": ["1LUpGECBSSmcEwrCX3p81mn8Qp8Z73ryY3"], "asm": "OP_DUP OP_HASH160 d5ad12da4ffb0dbc805b6217b15af2134dee9f17 OP_EQUALVERIFY OP_CHECKSIG", "type": "pubkeyhash"}, "value": 0.00485875, "n": 1}, {"scriptPubKey": {"reqSigs": 1, "hex": "76a914a25dec4d0011064ef106a983c39c7a540699f22088ac", "addresses": ["1FoWyxwPXuj4C6abqwhjDWdz6D4PZgYRjA"], "asm": "OP_DUP OP_HASH160 a25dec4d0011064ef106a983c39c7a540699f220 OP_EQUALVERIFY OP_CHECKSIG", "type": "pubkeyhash"}, "value": 5.46e-06, "n": 2}], "hex": "01000000035270584a155c718135e0ddde92e63fff7b6f5d74a4937af5539322e08f55fa2e010000006b483045022100fe22e4b57062e26362ae16263c49c39b2d243d60fc01312baf396e89379195a80220562b1d8f6df6ddd6ce5f9bb9c6618d8d4db16ee8207176b265f67cadaf4834f70121028df64454dea15474ba8506f1beab04386ed3dbafb65f6b936d22f6d8ef05b8a7feffffffa80b9bb5a5b24201434487d0d302ff57b26439e2cc823425796ed4317ce77331010000006a47304402201454cb1ee82d95f4b8de875a999900cfa65465fb50f79a98f3d433ee924f307b0220231c41f0b74f4c2a071fa7d7c48ef35ef14166bb3e29ea67ff6946584d54b2800121028df64454dea15474ba8506f1beab04386ed3dbafb65f6b936d22f6d8ef05b8a7feffffff293dce14c6e106cef579a80159470cf244afa1a80ef6f8f21661195a5b9906fd020000006a473044022078a569dd0efe4dd91af7471c7ef1f5fd434161d529e426d8429f633dca144bbe022002e289fd641254b63b3b88afd7a95568aa5ceb8e723c03e645c38b3fe22228a20121028df64454dea15474ba8506f1beab04386ed3dbafb65f6b936d22f6d8ef05b8a7feffffff030000000000000000166a146f6d6e69000000000000001f0000000b54f54380f3690700000000001976a914d5ad12da4ffb0dbc805b6217b15af2134dee9f1788ac22020000000000001976a914a25dec4d0011064ef106a983c39c7a540699f22088ac10490800", "vin": [{"sequence": 4294967294, "scriptSig": {"hex": "483045022100fe22e4b57062e26362ae16263c49c39b2d243d60fc01312baf396e89379195a80220562b1d8f6df6ddd6ce5f9bb9c6618d8d4db16ee8207176b265f67cadaf4834f70121028df64454dea15474ba8506f1beab04386ed3dbafb65f6b936d22f6d8ef05b8a7", "asm": "3045022100fe22e4b57062e26362ae16263c49c39b2d243d60fc01312baf396e89379195a80220562b1d8f6df6ddd6ce5f9bb9c6618d8d4db16ee8207176b265f67cadaf4834f7[ALL] 028df64454dea15474ba8506f1beab04386ed3dbafb65f6b936d22f6d8ef05b8a7"}, "vout": 1, "txid": "2efa558fe0229353f57a93a4745d6f7bff3fe692dedde03581715c154a587052"}, {"sequence": 4294967294, "scriptSig": {"hex": "47304402201454cb1ee82d95f4b8de875a999900cfa65465fb50f79a98f3d433ee924f307b0220231c41f0b74f4c2a071fa7d7c48ef35ef14166bb3e29ea67ff6946584d54b2800121028df64454dea15474ba8506f1beab04386ed3dbafb65f6b936d22f6d8ef05b8a7", "asm": "304402201454cb1ee82d95f4b8de875a999900cfa65465fb50f79a98f3d433ee924f307b0220231c41f0b74f4c2a071fa7d7c48ef35ef14166bb3e29ea67ff6946584d54b280[ALL] 028df64454dea15474ba8506f1beab04386ed3dbafb65f6b936d22f6d8ef05b8a7"}, "vout": 1, "txid": "3173e77c31d46e79253482cce23964b257ff02d3d08744430142b2a5b59b0ba8"}, {"sequence": 4294967294, "scriptSig": {"hex": "473044022078a569dd0efe4dd91af7471c7ef1f5fd434161d529e426d8429f633dca144bbe022002e289fd641254b63b3b88afd7a95568aa5ceb8e723c03e645c38b3fe22228a20121028df64454dea15474ba8506f1beab04386ed3dbafb65f6b936d22f6d8ef05b8a7", "asm": "3044022078a569dd0efe4dd91af7471c7ef1f5fd434161d529e426d8429f633dca144bbe022002e289fd641254b63b3b88afd7a95568aa5ceb8e723c03e645c38b3fe22228a2[ALL] 028df64454dea15474ba8506f1beab04386ed3dbafb65f6b936d22f6d8ef05b8a7"}, "vout": 2, "txid": "fd06995b5a196116f2f8f60ea8a1af44f20c475901a879f5ce06e1c614ce3d29"}], "txid": "ee4d2f6d576c7212a4cfabd80de70d05d3c99365faa0ce63bd68e8e0138dcf95", "blocktime": 1537871767, "version": 1, "confirmations": 11495, "time": 1537871767, "locktime": 542992, "vsize": 551, "size": 551}