{"hash": "ee4d405ab7af3b35553f8199d1d4aed1d7861b8dda1c73c8a33799951e1fe10c", "blockhash": "00000000000000000004ffacab907a6b429b9a5745fa0b75af4234bf69dd7176", "vout": [{"scriptPubKey": {"reqSigs": 1, "hex": "76a914d5af57753bde12d68b90a7cb251c06fbd47183e488ac", "addresses": ["1LUryoz9zj3J7ziqKJX1JweL177gLpFbgb"], "asm": "OP_DUP OP_HASH160 d5af57753bde12d68b90a7cb251c06fbd47183e4 OP_EQUALVERIFY OP_CHECKSIG", "type": "pubkeyhash"}, "value": 0.026155, "n": 0}, {"scriptPubKey": {"reqSigs": 1, "hex": "76a914e9eeb36c844256047cf0b6c3233f7c1f47ebc61b88ac", "addresses": ["1NKvPvbNtu7rJU8yHxNRJ2fYhCVyofPyjT"], "asm": "OP_DUP OP_HASH160 e9eeb36c844256047cf0b6c3233f7c1f47ebc61b OP_EQUALVERIFY OP_CHECKSIG", "type": "pubkeyhash"}, "value": 2.207949, "n": 1}], "hex": "010000000183b765cd3a7565374b9c87e1799b7875236919c43245c2f52c61d6ff60128abd010000006a47304402204d443b075def129070a8558d3f8624a6773d35b71d0886de96145816a79db85e0220199c1782a8511e2d9dee9cc66b63cbd7781e49b69aa162f6ac04166756313f70012102f706fd0028a5a1699ec2923723ab1bc9ec76965bb64ed3a4a7dbe0478fcce98bfcffffff02cce82700000000001976a914d5af57753bde12d68b90a7cb251c06fbd47183e488ac1410290d000000001976a914e9eeb36c844256047cf0b6c3233f7c1f47ebc61b88ac00000000", "vin": [{"sequence": 4294967292, "scriptSig": {"hex": "47304402204d443b075def129070a8558d3f8624a6773d35b71d0886de96145816a79db85e0220199c1782a8511e2d9dee9cc66b63cbd7781e49b69aa162f6ac04166756313f70012102f706fd0028a5a1699ec2923723ab1bc9ec76965bb64ed3a4a7dbe0478fcce98b", "asm": "304402204d443b075def129070a8558d3f8624a6773d35b71d0886de96145816a79db85e0220199c1782a8511e2d9dee9cc66b63cbd7781e49b69aa162f6ac04166756313f70[ALL] 02f706fd0028a5a1699ec2923723ab1bc9ec76965bb64ed3a4a7dbe0478fcce98b"}, "vout": 1, "txid": "bd8a1260ffd6612cf5c24532c419692375789b79e1879c4b3765753acd65b783"}], "txid": "ee4d405ab7af3b35553f8199d1d4aed1d7861b8dda1c73c8a33799951e1fe10c", "blocktime": 1537875543, "version": 1, "confirmations": 11464, "time": 1537875543, "locktime": 0, "vsize": 225, "size": 225}