{"hash": "a8e692061102ea84001df2a2893b4e9f85c216c3fad2592d6371c7854403cb32", "blockhash": "00000000000000000017f5eb5941039fbcee6240d03bc1f2f8e35350df66a1d8", "vout": [{"scriptPubKey": {"reqSigs": 1, "hex": "a914274841097bd0758c9e7d5fa16923ec40c3c9c77d87", "addresses": ["35GiqKnFTvzsAKhyGcJFuT5ARNALibquSk"], "asm": "OP_HASH160 274841097bd0758c9e7d5fa16923ec40c3c9c77d OP_EQUAL", "type": "scripthash"}, "value": 0.18963794, "n": 0}, {"scriptPubKey": {"reqSigs": 1, "hex": "76a914577a07d21e6b1496892bc2b7284974775522bb7488ac", "addresses": ["18yXyXBxRHqwDM4FPo8zZgh9YXLt3n78JG"], "asm": "OP_DUP OP_HASH160 577a07d21e6b1496892bc2b7284974775522bb74 OP_EQUALVERIFY OP_CHECKSIG", "type": "pubkeyhash"}, "value": 0.13, "n": 1}], "hex": "02000000000101f7ef84857f15b7b3cb8e0b04e1573c926c8daa62bec7da0c8f1b1c8d2734dfed01000000171600148eabaaab3188dd8c3416181a9c5265c7ca6796edfeffffff02525d21010000000017a914274841097bd0758c9e7d5fa16923ec40c3c9c77d87405dc600000000001976a914577a07d21e6b1496892bc2b7284974775522bb7488ac024830450221009531b4f58a8ab647e68e971d66ce0c80ae3b039d733475f4cf296e9cbcc42138022047cac9d33bfe79fa8292382fbc53b7d5265528cfdb963fb78c373e4a5e285724012103443deaf0e93f0f615a147fd7c9d009e24c4acb6a414a19dd265f8b3b4f8db5c215490800", "vin": [{"txinwitness": ["30450221009531b4f58a8ab647e68e971d66ce0c80ae3b039d733475f4cf296e9cbcc42138022047cac9d33bfe79fa8292382fbc53b7d5265528cfdb963fb78c373e4a5e28572401", "03443deaf0e93f0f615a147fd7c9d009e24c4acb6a414a19dd265f8b3b4f8db5c2"], "sequence": 4294967294, "scriptSig": {"hex": "1600148eabaaab3188dd8c3416181a9c5265c7ca6796ed", "asm": "00148eabaaab3188dd8c3416181a9c5265c7ca6796ed"}, "vout": 1, "txid": "eddf34278d1c1b8f0cdac7be62aa8d6c923c57e1040b8ecbb3b7157f8584eff7"}], "txid": "ee508ecf1cdd3e85b65f071cb80b9e8c10a47b5a94534cce2ec4df25f5843ccc", "blocktime": 1537874412, "version": 2, "confirmations": 11466, "time": 1537874412, "locktime": 542997, "vsize": 168, "size": 250}