{"hash": "ee570c8a4d04c0cbec4650423c371df413a3a7014eea930748eded046fa894a5", "blockhash": "00000000000000000017f5eb5941039fbcee6240d03bc1f2f8e35350df66a1d8", "vout": [{"scriptPubKey": {"reqSigs": 1, "hex": "a914869d64b0ac97b729034ca066d78a1177b4be524487", "addresses": ["3Dxo28R8ktH9pNDftcvYvXhqpGSBjsffpQ"], "asm": "OP_HASH160 869d64b0ac97b729034ca066d78a1177b4be5244 OP_EQUAL", "type": "scripthash"}, "value": 0.05859594, "n": 0}, {"scriptPubKey": {"reqSigs": 1, "hex": "76a914e5c1292e272cf7ac22418ca1e45cf53a168fcc3d88ac", "addresses": ["1Mwq8yuDdJe4ih8kp7mL2qcppqPABF6MJC"], "asm": "OP_DUP OP_HASH160 e5c1292e272cf7ac22418ca1e45cf53a168fcc3d OP_EQUALVERIFY OP_CHECKSIG", "type": "pubkeyhash"}, "value": 0.40833903, "n": 1}], "hex": "0100000001ebedc8766a5044b1164b87e282faae3124792d70fd139fb28405ff307d5a5fad010000006b483045022100edc372b92e1b5de6fa396931287bf51d3176a8fffeed62a0210b8632e86cd7c802204a9034b1d78f1d1281bfb7e86a0ae2338f25f18663710ed8a6a3dc6a1dcecb2f012103c89a2ef6fa004fff889135eb04408d75a6540fd117f7a2639972aa0f363be32cffffffff020a6959000000000017a914869d64b0ac97b729034ca066d78a1177b4be5244876f136f02000000001976a914e5c1292e272cf7ac22418ca1e45cf53a168fcc3d88ac00000000", "vin": [{"sequence": 4294967295, "scriptSig": {"hex": "483045022100edc372b92e1b5de6fa396931287bf51d3176a8fffeed62a0210b8632e86cd7c802204a9034b1d78f1d1281bfb7e86a0ae2338f25f18663710ed8a6a3dc6a1dcecb2f012103c89a2ef6fa004fff889135eb04408d75a6540fd117f7a2639972aa0f363be32c", "asm": "3045022100edc372b92e1b5de6fa396931287bf51d3176a8fffeed62a0210b8632e86cd7c802204a9034b1d78f1d1281bfb7e86a0ae2338f25f18663710ed8a6a3dc6a1dcecb2f[ALL] 03c89a2ef6fa004fff889135eb04408d75a6540fd117f7a2639972aa0f363be32c"}, "vout": 1, "txid": "ad5f5a7d30ff0584b29f13fd702d792431aefa82e2874b16b144506a76c8edeb"}], "txid": "ee570c8a4d04c0cbec4650423c371df413a3a7014eea930748eded046fa894a5", "blocktime": 1537874412, "version": 1, "confirmations": 11467, "time": 1537874412, "locktime": 0, "vsize": 224, "size": 224}