{"hash": "ee5fe4ff943cdb81ca97d83d7c9a855c2e4e9bb97a3447c62fe13b571a7e00be", "blockhash": "0000000000000000001f0ddff1eddb255c1121bcd4da4f1bc9a0da00cae72433", "vout": [{"scriptPubKey": {"reqSigs": 1, "hex": "a914666c8f4d4f51d1cc82f0435cfacb8227b69aea8887", "addresses": ["3B2atyYfpGF2TDoRp7C1iHTj72b8A2hMJS"], "asm": "OP_HASH160 666c8f4d4f51d1cc82f0435cfacb8227b69aea88 OP_EQUAL", "type": "scripthash"}, "value": 0.0014, "n": 0}, {"scriptPubKey": {"reqSigs": 1, "hex": "76a914b8b724d1c029b3d6e12d7f23c61bd328f8747b4b88ac", "addresses": ["1HqgjMU6KRzbiAyR13Dv5uRHjN1rccLVas"], "asm": "OP_DUP OP_HASH160 b8b724d1c029b3d6e12d7f23c61bd328f8747b4b OP_EQUALVERIFY OP_CHECKSIG", "type": "pubkeyhash"}, "value": 2.33354947, "n": 1}], "hex": "01000000011074c674fa88609987474c15af4adaf6c2aafad7a53c95923aa6e1ee2897c100010000006a4730440220366ee986bf8977dad431e15bf9d5ab80cf78fc4731c35a78c644a9238cb39a9002205eecbdacdcb643232c808fdf593fd4183b5474c3d57fcbeb6d0fa650b0ca6045012102a13441a49af7c7ae8fcb0486675b2bd7fa10f4f921caadadbfa41a5ce27eda5bffffffff02e02202000000000017a914666c8f4d4f51d1cc82f0435cfacb8227b69aea8887c3b6e80d000000001976a914b8b724d1c029b3d6e12d7f23c61bd328f8747b4b88ac00000000", "vin": [{"sequence": 4294967295, "scriptSig": {"hex": "4730440220366ee986bf8977dad431e15bf9d5ab80cf78fc4731c35a78c644a9238cb39a9002205eecbdacdcb643232c808fdf593fd4183b5474c3d57fcbeb6d0fa650b0ca6045012102a13441a49af7c7ae8fcb0486675b2bd7fa10f4f921caadadbfa41a5ce27eda5b", "asm": "30440220366ee986bf8977dad431e15bf9d5ab80cf78fc4731c35a78c644a9238cb39a9002205eecbdacdcb643232c808fdf593fd4183b5474c3d57fcbeb6d0fa650b0ca6045[ALL] 02a13441a49af7c7ae8fcb0486675b2bd7fa10f4f921caadadbfa41a5ce27eda5b"}, "vout": 1, "txid": "00c19728eee1a63a92953ca5d7faaac2f6da4aaf154c4787996088fa74c67410"}], "txid": "ee5fe4ff943cdb81ca97d83d7c9a855c2e4e9bb97a3447c62fe13b571a7e00be", "blocktime": 1537872018, "version": 1, "confirmations": 11489, "time": 1537872018, "locktime": 0, "vsize": 223, "size": 223}