{"hash": "ee65e9b495d02e2bbad940bb98842d2d26940143eac87905add6d0a36944b034", "blockhash": "000000000000000000022b45ed06c6f4ccd3cf7fb5ba4856ebd2e58215665228", "vout": [{"scriptPubKey": {"reqSigs": 1, "hex": "a914e716fc274f09f498e6e67db4b92c3af5014f6f7887", "addresses": ["3NkuYt2giQRumb5MsG5CbeHAooTbv2cADg"], "asm": "OP_HASH160 e716fc274f09f498e6e67db4b92c3af5014f6f78 OP_EQUAL", "type": "scripthash"}, "value": 0.0073, "n": 0}, {"scriptPubKey": {"reqSigs": 1, "hex": "a914b78e365aea4539c115abcf7c362d9d83aa97bfe087", "addresses": ["3JRZwjYLrwbVkcLKhhUE2eHEv67E6P86c4"], "asm": "OP_HASH160 b78e365aea4539c115abcf7c362d9d83aa97bfe0 OP_EQUAL", "type": "scripthash"}, "value": 8.516e-05, "n": 1}], "hex": "010000000195d088ae5daf21213e35a9774c1678a2b317ad266a4b8682822431313cbfd33d01000000fdfe0000483045022100d29855b7b04c7dcc30de3be8f50a44e3ff4a6deb39ca78f3069e7368f8ef12ba02205820440b9981c5ea7763cafce7e4eda6cad80e49c5ce41e8457282a3849ea96e01483045022100da8df59e9d016ffb5e6b2a8e58be538d1d33a64f0fef523a599dd15d375f73c3022021639ae177973cb5d2134685cf008ac29608f70f6647921e6419c638705cefbf014c6952210202a02bf8dc44f9e171d42a291224c683da83c95249f3aafc4e5ce77ede20a1832102048ed570e654b5b9876597fdc146b3783ae8e0b1a5a01d6319462c858897947b2103427cf314f2279ccf6f43e44e419a01cf87fedf2822c3625905e05f3b5096c9f453aeffffffff0290230b000000000017a914e716fc274f09f498e6e67db4b92c3af5014f6f7887442100000000000017a914b78e365aea4539c115abcf7c362d9d83aa97bfe08700000000", "vin": [{"sequence": 4294967295, "scriptSig": {"hex": "00483045022100d29855b7b04c7dcc30de3be8f50a44e3ff4a6deb39ca78f3069e7368f8ef12ba02205820440b9981c5ea7763cafce7e4eda6cad80e49c5ce41e8457282a3849ea96e01483045022100da8df59e9d016ffb5e6b2a8e58be538d1d33a64f0fef523a599dd15d375f73c3022021639ae177973cb5d2134685cf008ac29608f70f6647921e6419c638705cefbf014c6952210202a02bf8dc44f9e171d42a291224c683da83c95249f3aafc4e5ce77ede20a1832102048ed570e654b5b9876597fdc146b3783ae8e0b1a5a01d6319462c858897947b2103427cf314f2279ccf6f43e44e419a01cf87fedf2822c3625905e05f3b5096c9f453ae", "asm": "0 3045022100d29855b7b04c7dcc30de3be8f50a44e3ff4a6deb39ca78f3069e7368f8ef12ba02205820440b9981c5ea7763cafce7e4eda6cad80e49c5ce41e8457282a3849ea96e[ALL] 3045022100da8df59e9d016ffb5e6b2a8e58be538d1d33a64f0fef523a599dd15d375f73c3022021639ae177973cb5d2134685cf008ac29608f70f6647921e6419c638705cefbf[ALL] 52210202a02bf8dc44f9e171d42a291224c683da83c95249f3aafc4e5ce77ede20a1832102048ed570e654b5b9876597fdc146b3783ae8e0b1a5a01d6319462c858897947b2103427cf314f2279ccf6f43e44e419a01cf87fedf2822c3625905e05f3b5096c9f453ae"}, "vout": 1, "txid": "3dd3bf3c3131248282864b6a26ad17b3a278164c77a9353e2121af5dae88d095"}], "txid": "ee65e9b495d02e2bbad940bb98842d2d26940143eac87905add6d0a36944b034", "blocktime": 1537869901, "version": 1, "confirmations": 11523, "time": 1537869901, "locktime": 0, "vsize": 371, "size": 371}