{"hash": "ee669a8a908b5a8b92029959706ec5e63773f1af7a2a6a4e4380f7357e2bcbfe", "blockhash": "0000000000000000000e13cef7c366c0283d82e591d1acd082e914b08063cdf1", "vout": [{"scriptPubKey": {"reqSigs": 1, "hex": "76a9148eff806764089ba8ce9d7cabe23b1c5067b78ad688ac", "addresses": ["1E372oSk4RsU51xJ9p3JsNbiUZSVMEhh63"], "asm": "OP_DUP OP_HASH160 8eff806764089ba8ce9d7cabe23b1c5067b78ad6 OP_EQUALVERIFY OP_CHECKSIG", "type": "pubkeyhash"}, "value": 0.0025, "n": 0}, {"scriptPubKey": {"reqSigs": 1, "hex": "76a9142062cdc5c458b6faf3407b92cf2812b4225bd0d188ac", "addresses": ["13xEz9X66KBg5hrpA1FPcXWNviZszGNuqX"], "asm": "OP_DUP OP_HASH160 2062cdc5c458b6faf3407b92cf2812b4225bd0d1 OP_EQUALVERIFY OP_CHECKSIG", "type": "pubkeyhash"}, "value": 0.00999427, "n": 1}], "hex": "010000000100da7afddd919f14410b47d2567b0bb59f53dba0fa49d3aa05d44f3e7796691c570000006a47304402205ff931fa613f2c30a591a43f2b3f3bfb2a9d7ef3efac1fab7677bc6dfaf393f202204ec9fa79f9201aad299e1eeded16af57d3a261c34335107171baf8e6c0bfdf04012102da18f14e3e23a73dc872139413990faedd8739f0240a158103ce9e5640f4ca68ffffffff0290d00300000000001976a9148eff806764089ba8ce9d7cabe23b1c5067b78ad688ac03400f00000000001976a9142062cdc5c458b6faf3407b92cf2812b4225bd0d188ac00000000", "vin": [{"sequence": 4294967295, "scriptSig": {"hex": "47304402205ff931fa613f2c30a591a43f2b3f3bfb2a9d7ef3efac1fab7677bc6dfaf393f202204ec9fa79f9201aad299e1eeded16af57d3a261c34335107171baf8e6c0bfdf04012102da18f14e3e23a73dc872139413990faedd8739f0240a158103ce9e5640f4ca68", "asm": "304402205ff931fa613f2c30a591a43f2b3f3bfb2a9d7ef3efac1fab7677bc6dfaf393f202204ec9fa79f9201aad299e1eeded16af57d3a261c34335107171baf8e6c0bfdf04[ALL] 02da18f14e3e23a73dc872139413990faedd8739f0240a158103ce9e5640f4ca68"}, "vout": 87, "txid": "1c6996773e4fd405aad349faa0db539fb50b7b56d2470b41149f91ddfd7ada00"}], "txid": "ee669a8a908b5a8b92029959706ec5e63773f1af7a2a6a4e4380f7357e2bcbfe", "blocktime": 1537871767, "version": 1, "confirmations": 11495, "time": 1537871767, "locktime": 0, "vsize": 225, "size": 225}