{"hash": "cc4055f2d504f4aea1019dee89eb69c1bfe58e86dfe04e362a7f7be0340afd33", "blockhash": "00000000000000000018f53835495a110e01622372bf6ae95dc86f2b0ab887b0", "vout": [{"scriptPubKey": {"reqSigs": 1, "hex": "a914dfba5f124a6874086bb2d011e4f513faa1a529f787", "addresses": ["3N5ysdc6aSC6N72yKxreVt2NrcNKNBgwFc"], "asm": "OP_HASH160 dfba5f124a6874086bb2d011e4f513faa1a529f7 OP_EQUAL", "type": "scripthash"}, "value": 0.15383743, "n": 0}, {"scriptPubKey": {"reqSigs": 1, "hex": "a91431a1b3bd5392b67944abe3792e2319c287cecd7687", "addresses": ["36DSkCieGDo71GgRrqvkTAXqNUKTjUwE5z"], "asm": "OP_HASH160 31a1b3bd5392b67944abe3792e2319c287cecd76 OP_EQUAL", "type": "scripthash"}, "value": 0.00091699, "n": 1}], "hex": "02000000000101a0aaa1a062d0a12edb4443de9470c987d1608484861c298262d15e2608e66cd30100000017160014b7e479dfd0149a760aac1f7c32e316776dd5c981feffffff02bfbcea000000000017a914dfba5f124a6874086bb2d011e4f513faa1a529f787336601000000000017a91431a1b3bd5392b67944abe3792e2319c287cecd76870247304402201511be4afa0eefb66e991fb9e61dd0b9aff95e5a1df0768010cae7612cd251590220030522cf9f9df0b64f3ea92719a9f42b03bc1ee6f9a003efd0ffd4d796438bea01210233a78129891d9d786e80a0a63a14d876eb4c4e81eaa3f4197a06fbe2baa696970e490800", "vin": [{"txinwitness": ["304402201511be4afa0eefb66e991fb9e61dd0b9aff95e5a1df0768010cae7612cd251590220030522cf9f9df0b64f3ea92719a9f42b03bc1ee6f9a003efd0ffd4d796438bea01", "0233a78129891d9d786e80a0a63a14d876eb4c4e81eaa3f4197a06fbe2baa69697"], "sequence": 4294967294, "scriptSig": {"hex": "160014b7e479dfd0149a760aac1f7c32e316776dd5c981", "asm": "0014b7e479dfd0149a760aac1f7c32e316776dd5c981"}, "vout": 1, "txid": "d36ce608265ed16282291c86848460d187c97094de4344db2ea1d062a0a1aaa0"}], "txid": "ee73ff595acef27a12f13987102eee255a08196c37fd38a820396eded9610604", "blocktime": 1537870928, "version": 2, "confirmations": 11512, "time": 1537870928, "locktime": 542990, "vsize": 166, "size": 247}