{"hash": "b10c654523da46355cf64d97be62ad3abe9ed16f81c34145f301d209107ebc87", "blockhash": "00000000000000000024a2167bbff67b0be802c0b01cdd79e6331c2be6459f87", "vout": [{"scriptPubKey": {"reqSigs": 1, "hex": "0014eb15bc61191d0be23ed1ec7a2a537e7470d643bd", "addresses": ["bc1qav2mccger597y0k3a3az55m7w3cdvsaayczded"], "asm": "0 eb15bc61191d0be23ed1ec7a2a537e7470d643bd", "type": "witness_v0_keyhash"}, "value": 0.0013357, "n": 0}, {"scriptPubKey": {"reqSigs": 1, "hex": "a9149a2d710d5e106b303e669b0c0233f6f0e40458b287", "addresses": ["3FkERRYpVwP3buvYj4DTQz7w1RRyPdNLnb"], "asm": "OP_HASH160 9a2d710d5e106b303e669b0c0233f6f0e40458b2 OP_EQUAL", "type": "scripthash"}, "value": 0.05975, "n": 1}], "hex": "0100000000010146377ce6d8dcb41f074daf75aff9669b3a4c521afd788f0189d1ed597d4259bf0000000000ffffffff02c209020000000000160014eb15bc61191d0be23ed1ec7a2a537e7470d643bdd82b5b000000000017a9149a2d710d5e106b303e669b0c0233f6f0e40458b28702483045022100a2a0d3842a22e49924dc47e1f0089e289e730a64fdd0bbfcef41a75c79e7d92b02201b3479715b895d047d410335f9f1c0ad7bb2c606fe5b29f063da39226b4f0e63012102f4cc055ee2614dab285b946985a2374bf7b5fb7e1442d0b220e5e4d49c02628700000000", "vin": [{"txinwitness": ["3045022100a2a0d3842a22e49924dc47e1f0089e289e730a64fdd0bbfcef41a75c79e7d92b02201b3479715b895d047d410335f9f1c0ad7bb2c606fe5b29f063da39226b4f0e6301", "02f4cc055ee2614dab285b946985a2374bf7b5fb7e1442d0b220e5e4d49c026287"], "sequence": 4294967295, "scriptSig": {"hex": "", "asm": ""}, "vout": 0, "txid": "bf59427d59edd189018f78fd1a524c3a9b66f9af75af4d071fb4dcd8e67c3746"}], "txid": "ee74713950d7023e3a1a352b2a5a82565ec6059b002b155edfa1d1e523eac6f3", "blocktime": 1537870564, "version": 1, "confirmations": 11515, "time": 1537870564, "locktime": 0, "vsize": 142, "size": 224}