{"hash": "d9a74b0193f743bd022b562c47fe761947b652d47b0e9094cc4e266a9833fa9a", "blockhash": "0000000000000000001f0ddff1eddb255c1121bcd4da4f1bc9a0da00cae72433", "vout": [{"scriptPubKey": {"reqSigs": 1, "hex": "a9146da8316cd3cf881153abdd1733fa8e885629812987", "addresses": ["3Bgq4iGrbK5pSVS5vZgTtTGEuezBdQh8ie"], "asm": "OP_HASH160 6da8316cd3cf881153abdd1733fa8e8856298129 OP_EQUAL", "type": "scripthash"}, "value": 0.00022413, "n": 0}], "hex": "02000000000101ee987bf4ba6fb572e23240e29473982c5f35f3ecff1243d6dd307d55553c8aa60000000000ffffffff018d5700000000000017a9146da8316cd3cf881153abdd1733fa8e88562981298704004830450221009e9d9e6a2c541a83b94b9198b7e81ee810626bab9c928f2886b52f96cb9d87f502201e9e51d5d19b7138b25342609c2d62f78901ce23b6323ca32a7ab3d57c098a6a0147304402206e9f29b9bfd391264718db39a89005c876a2f56b8749ffffbd7e927bf94d066a02207a5a53b41e72bba55d4a549572115c91adbd10f86755b392ff57a1892612abed0147522102046acee16d6f8437d300136f1968b26360a3992257fafc322c872b6ffc4c8a1c2103aff8da771f59665a328565064fbb7eafc94e1b8e8249a095d99553beb6bdcabe52ae00000000", "vin": [{"txinwitness": ["", "30450221009e9d9e6a2c541a83b94b9198b7e81ee810626bab9c928f2886b52f96cb9d87f502201e9e51d5d19b7138b25342609c2d62f78901ce23b6323ca32a7ab3d57c098a6a01", "304402206e9f29b9bfd391264718db39a89005c876a2f56b8749ffffbd7e927bf94d066a02207a5a53b41e72bba55d4a549572115c91adbd10f86755b392ff57a1892612abed01", "522102046acee16d6f8437d300136f1968b26360a3992257fafc322c872b6ffc4c8a1c2103aff8da771f59665a328565064fbb7eafc94e1b8e8249a095d99553beb6bdcabe52ae"], "sequence": 4294967295, "scriptSig": {"hex": "", "asm": ""}, "vout": 0, "txid": "a68a3c55557d30ddd64312ffecf3355f2c987394e24032e272b56fbaf47b98ee"}], "txid": "ee75be724a9ddbe27e1c38e0639e81326c5545a04989790e02b25bc4e7ce21cf", "blocktime": 1537872018, "version": 2, "confirmations": 11489, "time": 1537872018, "locktime": 0, "vsize": 139, "size": 304}