{"hash": "083086c972dbd122c3a4741e6f9e4ec4b045520efe788174a2775bce7c712311", "blockhash": "0000000000000000001f76057863aec43deb6fa401d9628bb513d65a8098bfab", "vout": [{"scriptPubKey": {"reqSigs": 1, "hex": "76a914eb3257daa592b3f5165eb06509ca4f9f3829e8ae88ac", "addresses": ["1NSc6zAdG2NGbjPLQwAjAuqjHSoq5KECT7"], "asm": "OP_DUP OP_HASH160 eb3257daa592b3f5165eb06509ca4f9f3829e8ae OP_EQUALVERIFY OP_CHECKSIG", "type": "pubkeyhash"}, "value": 1.99, "n": 0}, {"scriptPubKey": {"reqSigs": 1, "hex": "a914122a3ba3c677c8eca279aba2cb21dec21c3da24a87", "addresses": ["33M4gPrB8aZxM5RTStfgytUhA7ZdASdd1R"], "asm": "OP_HASH160 122a3ba3c677c8eca279aba2cb21dec21c3da24a OP_EQUAL", "type": "scripthash"}, "value": 0.0107225, "n": 1}], "hex": "020000000001020b9a5436fb03131661b08f52852d2d37f8e82ff90d8b0e031ed6c59981ac0668000000006a4730440220104debe0ed5a80f49b28aa45bd27d91a561fa1a44e9cf2ae34189487d73f865d022079ba899532d2af72b6bbf067be2a99c1f10c76ab6b7a62670012907614b4c02c0121030ccb5a35c5245927d49f69570cb664d5e5fea11f255ef4ca15eb10a585fbeebffeffffff0b9a5436fb03131661b08f52852d2d37f8e82ff90d8b0e031ed6c59981ac06680100000017160014a95057a1ce76698807bdec833624ef13b7974b2bfeffffff02c07fdc0b000000001976a914eb3257daa592b3f5165eb06509ca4f9f3829e8ae88ac7a5c10000000000017a914122a3ba3c677c8eca279aba2cb21dec21c3da24a8700024830450221009ecbd8b299248233ef09dd0aeb0bcbff00b49b0e3b4539a1c7c63d1b4a320e5f02203d3577a3461ef12bda192757115f70092d383c13f44f24087b417d59c7edd523012102dc871bac9b8fa5a4310468a4884db6a234374b23317ec167f83ec39462c5ff5b14490800", "vin": [{"sequence": 4294967294, "scriptSig": {"hex": "4730440220104debe0ed5a80f49b28aa45bd27d91a561fa1a44e9cf2ae34189487d73f865d022079ba899532d2af72b6bbf067be2a99c1f10c76ab6b7a62670012907614b4c02c0121030ccb5a35c5245927d49f69570cb664d5e5fea11f255ef4ca15eb10a585fbeebf", "asm": "30440220104debe0ed5a80f49b28aa45bd27d91a561fa1a44e9cf2ae34189487d73f865d022079ba899532d2af72b6bbf067be2a99c1f10c76ab6b7a62670012907614b4c02c[ALL] 030ccb5a35c5245927d49f69570cb664d5e5fea11f255ef4ca15eb10a585fbeebf"}, "vout": 0, "txid": "6806ac8199c5d61e030e8b0df92fe8f8372d2d85528fb061161303fb36549a0b"}, {"txinwitness": ["30450221009ecbd8b299248233ef09dd0aeb0bcbff00b49b0e3b4539a1c7c63d1b4a320e5f02203d3577a3461ef12bda192757115f70092d383c13f44f24087b417d59c7edd52301", "02dc871bac9b8fa5a4310468a4884db6a234374b23317ec167f83ec39462c5ff5b"], "sequence": 4294967294, "scriptSig": {"hex": "160014a95057a1ce76698807bdec833624ef13b7974b2b", "asm": "0014a95057a1ce76698807bdec833624ef13b7974b2b"}, "vout": 1, "txid": "6806ac8199c5d61e030e8b0df92fe8f8372d2d85528fb061161303fb36549a0b"}], "txid": "ee78a0fb03e2eda3d8a33455a628fc73e963ade6e5ab48ca1fe66b2847946b1c", "blocktime": 1537873891, "version": 2, "confirmations": 11474, "time": 1537873891, "locktime": 542996, "vsize": 315, "size": 398}