{"hash": "ee7861409000e3d87db784271dfb482d389d6de80bfb7242495409dbef315d58", "blockhash": "0000000000000000000e13cef7c366c0283d82e591d1acd082e914b08063cdf1", "vout": [{"scriptPubKey": {"reqSigs": 1, "hex": "76a914ddf67c281db319052e647b31247ce0708e0f391c88ac", "addresses": ["1MEdcUMh91PyHoPj91bKN3HqbsaKEpwLDm"], "asm": "OP_DUP OP_HASH160 ddf67c281db319052e647b31247ce0708e0f391c OP_EQUALVERIFY OP_CHECKSIG", "type": "pubkeyhash"}, "value": 0.10842629, "n": 0}], "hex": "010000000164643d3c543db5ce868bbeac4422dc20b56cefb2afbeb63a90ec6d2bf0e87bfe030000006a473044022057895b604ffb05a1498b2d41a33e52294ecd4bcfdb39a55e8ca918b72bdeae0202203104f00e1705f696150635159c2c204d9c731b778c6c0d9e258f151f55006e08012103628cae0def7a4e0876916380365216ef695d2a055c8d5e75f104bbca1c106011ffffffff010572a500000000001976a914ddf67c281db319052e647b31247ce0708e0f391c88ac00000000", "vin": [{"sequence": 4294967295, "scriptSig": {"hex": "473044022057895b604ffb05a1498b2d41a33e52294ecd4bcfdb39a55e8ca918b72bdeae0202203104f00e1705f696150635159c2c204d9c731b778c6c0d9e258f151f55006e08012103628cae0def7a4e0876916380365216ef695d2a055c8d5e75f104bbca1c106011", "asm": "3044022057895b604ffb05a1498b2d41a33e52294ecd4bcfdb39a55e8ca918b72bdeae0202203104f00e1705f696150635159c2c204d9c731b778c6c0d9e258f151f55006e08[ALL] 03628cae0def7a4e0876916380365216ef695d2a055c8d5e75f104bbca1c106011"}, "vout": 3, "txid": "fe7be8f02b6dec903ab6beafb2ef6cb520dc2244acbe8b86ceb53d543c3d6464"}], "txid": "ee7861409000e3d87db784271dfb482d389d6de80bfb7242495409dbef315d58", "blocktime": 1537871767, "version": 1, "confirmations": 11491, "time": 1537871767, "locktime": 0, "vsize": 191, "size": 191}