{"hash": "ee7aeef8ca5e1a9ac3bbb87d30f7351822cad814260db71efbf85aa1f479bb0c", "blockhash": "00000000000000000018f53835495a110e01622372bf6ae95dc86f2b0ab887b0", "vout": [{"scriptPubKey": {"reqSigs": 1, "hex": "76a9148ce50d85666686258a63a5814357f79bff2ceec088ac", "addresses": ["1Dqyzj3pDwXTWkyhf8s9Cjk2YtAPwKtcdW"], "asm": "OP_DUP OP_HASH160 8ce50d85666686258a63a5814357f79bff2ceec0 OP_EQUALVERIFY OP_CHECKSIG", "type": "pubkeyhash"}, "value": 0.00010108, "n": 0}, {"scriptPubKey": {"reqSigs": 1, "hex": "a91485bec1b883f9b169d775ec1f4b3995ff7bf39a8087", "addresses": ["3DtCK4pF1Lc2GsWVQ87QF2QhjaqZrNqJAb"], "asm": "OP_HASH160 85bec1b883f9b169d775ec1f4b3995ff7bf39a80 OP_EQUAL", "type": "scripthash"}, "value": 0.001, "n": 1}], "hex": "0100000006b7b149df197055019dd9368da2439256ccb1d582e49c1596a5d50aa6c81efb8d010000006a4730440220275519b7cddf6a780855924103253dfce381ffcab307737b54efda05626eb95b02204d1ae9431e6f33176421e62b6b982e95e4d5a12fd9e223e431d0f93f9196d2eb0121034d92881d853c56d1d010dedb2f8a13ec2175a75d5506845c91d83897b272024fffffffffc9f9707b06a76d13c6dc4116606676f2f95ca9bc9f4997b8051c0addde850711010000006b483045022100b17b612430cdfe6b1451a74bf1b256b0f0763b0e6610c5d27abe6817821cc8d90220283a6db98eccfb9ecc239005139174dcf200265bc3e0d8d903c7d203fd34549e0121022c00a11533961eaf0b1e0d8a7c963da901bff801f2266ac7192dea2ba6925791ffffffff9b2ca5195df3ff016605a67b4c85529aa88324186a9fd8dc72107b613931ad80010000006a47304402200c8ede8bf7c7a355dfcbcc3cc5d883160f59938550dfe81a4f41bd4a2667f84b022053649e101fbacdf7cedf419c33f8c3eaab338e24345373d44a2331db4f70c65b01210316609eb13e1871d46b4b7fdd7c81b9122ff8a5e3f7345428142a982d1af79462ffffffffe1a33d34b05685658672d37d3c737f481fb650815c5dec69e2a331400ed0429c010000006b483045022100807b1c6de66125bbf88132e851f2cae2155fd4f6380774fedcdc7c54dc2a00c1022045451324080c6d3876fd7def6b31566735f7dfefa73650183bf274d4c8bed585012103e9ed628c87021ab5f3ae925bc56a1ba83decba7bb9b422772b127b9bf2801dd1ffffffffb3ae7bf54b1bc6a2705215f04617a9bf6272dbbe69992223a3f6831c71507a02010000006b483045022100e638d29d5be4ac0c09f91bd4d4bb0a61c6edb9d5af0a1fe3b1a2a903b20177bc02205ad79987b5ceac24d0a7cf63591a446b3c398597cc19d85fc71e015197896b18012103032c6b84cc2ffa3b19ff1d94dcfb2bf2ce385ec1556433382cf59b5ea24d2cc6ffffffff8868e55c21da5a08890566e27c94be14a319525ecfc644f58026f72d9740baf8010000006b483045022100a84fd451e3c0b279a7c038e0a861616b48beee945411a7368d3dea0d1ed58fb00220703a1e73bb6f8ea42214798909af70f7a6ddf6834dad40e2f5779ad64e0ca6ae0121036e044e990dc7de18dac8b4226c7694f34883686aad6271d4f61cd084e59549d7ffffffff027c270000000000001976a9148ce50d85666686258a63a5814357f79bff2ceec088aca08601000000000017a91485bec1b883f9b169d775ec1f4b3995ff7bf39a808700000000", "vin": [{"sequence": 4294967295, "scriptSig": {"hex": "4730440220275519b7cddf6a780855924103253dfce381ffcab307737b54efda05626eb95b02204d1ae9431e6f33176421e62b6b982e95e4d5a12fd9e223e431d0f93f9196d2eb0121034d92881d853c56d1d010dedb2f8a13ec2175a75d5506845c91d83897b272024f", "asm": "30440220275519b7cddf6a780855924103253dfce381ffcab307737b54efda05626eb95b02204d1ae9431e6f33176421e62b6b982e95e4d5a12fd9e223e431d0f93f9196d2eb[ALL] 034d92881d853c56d1d010dedb2f8a13ec2175a75d5506845c91d83897b272024f"}, "vout": 1, "txid": "8dfb1ec8a60ad5a596159ce482d5b1cc569243a28d36d99d01557019df49b1b7"}, {"sequence": 4294967295, "scriptSig": {"hex": "483045022100b17b612430cdfe6b1451a74bf1b256b0f0763b0e6610c5d27abe6817821cc8d90220283a6db98eccfb9ecc239005139174dcf200265bc3e0d8d903c7d203fd34549e0121022c00a11533961eaf0b1e0d8a7c963da901bff801f2266ac7192dea2ba6925791", "asm": "3045022100b17b612430cdfe6b1451a74bf1b256b0f0763b0e6610c5d27abe6817821cc8d90220283a6db98eccfb9ecc239005139174dcf200265bc3e0d8d903c7d203fd34549e[ALL] 022c00a11533961eaf0b1e0d8a7c963da901bff801f2266ac7192dea2ba6925791"}, "vout": 1, "txid": "110785dedd0a1c05b897499fbca95cf9f27666601641dcc6136da7067b70f9c9"}, {"sequence": 4294967295, "scriptSig": {"hex": "47304402200c8ede8bf7c7a355dfcbcc3cc5d883160f59938550dfe81a4f41bd4a2667f84b022053649e101fbacdf7cedf419c33f8c3eaab338e24345373d44a2331db4f70c65b01210316609eb13e1871d46b4b7fdd7c81b9122ff8a5e3f7345428142a982d1af79462", "asm": "304402200c8ede8bf7c7a355dfcbcc3cc5d883160f59938550dfe81a4f41bd4a2667f84b022053649e101fbacdf7cedf419c33f8c3eaab338e24345373d44a2331db4f70c65b[ALL] 0316609eb13e1871d46b4b7fdd7c81b9122ff8a5e3f7345428142a982d1af79462"}, "vout": 1, "txid": "80ad3139617b1072dcd89f6a182483a89a52854c7ba6056601fff35d19a52c9b"}, {"sequence": 4294967295, "scriptSig": {"hex": "483045022100807b1c6de66125bbf88132e851f2cae2155fd4f6380774fedcdc7c54dc2a00c1022045451324080c6d3876fd7def6b31566735f7dfefa73650183bf274d4c8bed585012103e9ed628c87021ab5f3ae925bc56a1ba83decba7bb9b422772b127b9bf2801dd1", "asm": "3045022100807b1c6de66125bbf88132e851f2cae2155fd4f6380774fedcdc7c54dc2a00c1022045451324080c6d3876fd7def6b31566735f7dfefa73650183bf274d4c8bed585[ALL] 03e9ed628c87021ab5f3ae925bc56a1ba83decba7bb9b422772b127b9bf2801dd1"}, "vout": 1, "txid": "9c42d00e4031a3e269ec5d5c8150b61f487f733c7dd37286658556b0343da3e1"}, {"sequence": 4294967295, "scriptSig": {"hex": "483045022100e638d29d5be4ac0c09f91bd4d4bb0a61c6edb9d5af0a1fe3b1a2a903b20177bc02205ad79987b5ceac24d0a7cf63591a446b3c398597cc19d85fc71e015197896b18012103032c6b84cc2ffa3b19ff1d94dcfb2bf2ce385ec1556433382cf59b5ea24d2cc6", "asm": "3045022100e638d29d5be4ac0c09f91bd4d4bb0a61c6edb9d5af0a1fe3b1a2a903b20177bc02205ad79987b5ceac24d0a7cf63591a446b3c398597cc19d85fc71e015197896b18[ALL] 03032c6b84cc2ffa3b19ff1d94dcfb2bf2ce385ec1556433382cf59b5ea24d2cc6"}, "vout": 1, "txid": "027a50711c83f6a323229969bedb7262bfa91746f0155270a2c61b4bf57baeb3"}, {"sequence": 4294967295, "scriptSig": {"hex": "483045022100a84fd451e3c0b279a7c038e0a861616b48beee945411a7368d3dea0d1ed58fb00220703a1e73bb6f8ea42214798909af70f7a6ddf6834dad40e2f5779ad64e0ca6ae0121036e044e990dc7de18dac8b4226c7694f34883686aad6271d4f61cd084e59549d7", "asm": "3045022100a84fd451e3c0b279a7c038e0a861616b48beee945411a7368d3dea0d1ed58fb00220703a1e73bb6f8ea42214798909af70f7a6ddf6834dad40e2f5779ad64e0ca6ae[ALL] 036e044e990dc7de18dac8b4226c7694f34883686aad6271d4f61cd084e59549d7"}, "vout": 1, "txid": "f8ba40972df72680f544c6cf5e5219a314be947ce2660589085ada215ce56888"}], "txid": "ee7aeef8ca5e1a9ac3bbb87d30f7351822cad814260db71efbf85aa1f479bb0c", "blocktime": 1537870928, "version": 1, "confirmations": 11512, "time": 1537870928, "locktime": 0, "vsize": 962, "size": 962}