{"hash": "ee7f1524adb23a82b609f0c1b7cf4c89c79f63e8f55c3187229d5e091f2a5db9", "blockhash": "0000000000000000001f76057863aec43deb6fa401d9628bb513d65a8098bfab", "vout": [{"scriptPubKey": {"reqSigs": 1, "hex": "a9140f0d6a474e8b62e3e4c62866692012df8f2bf82087", "addresses": ["334c8XEyPsfmEgdQNn7wA3a6ExT7CohxEg"], "asm": "OP_HASH160 0f0d6a474e8b62e3e4c62866692012df8f2bf820 OP_EQUAL", "type": "scripthash"}, "value": 0.01150681, "n": 0}, {"scriptPubKey": {"reqSigs": 1, "hex": "a914c9465d0384ec912a5b577024360667474c78e6b287", "addresses": ["3L3G32oXcMwUN8k3KpQfsbnZ1vFLjeppgH"], "asm": "OP_HASH160 c9465d0384ec912a5b577024360667474c78e6b2 OP_EQUAL", "type": "scripthash"}, "value": 0.03077037, "n": 1}, {"scriptPubKey": {"reqSigs": 1, "hex": "76a914d0f4dbe0833f05a94d72f3c98ceb75b1aef2bba088ac", "addresses": ["1L3rszi7TpsU9s2juLBWfyxG1HdyxrndgX"], "asm": "OP_DUP OP_HASH160 d0f4dbe0833f05a94d72f3c98ceb75b1aef2bba0 OP_EQUALVERIFY OP_CHECKSIG", "type": "pubkeyhash"}, "value": 0.00046273, "n": 2}], "hex": "010000000112aee8be8de9c21ed6f681734a9bd8037dbfc3c4a37f84bf7bf766bb3f70645200000000db00483045022100f77a8617320bc5006fd26c8e604d858725bb054d4978170d4aef086397abb801022028de270b33b5c5fbfbb5b48ad57e444533f50a3cee06a52f90c7fe246fb3a2a7014830450221008308aa7467b53401f24ec1f446651a9909c535be565b65ab8031e541b4b2ad320220317f74b2b96c1e29fa93e4707a30341e701e298282788e32537919567ccb5c050147522102907a54bed8ad74b3f35638c60114ca240a308cb986f3f2f306178869a8880b612103588e7727860bbdb304e3c659b5386c8f193bba050090a47bd2fb1fe91cb1e3fa52aeffffffff03d98e11000000000017a9140f0d6a474e8b62e3e4c62866692012df8f2bf82087adf32e000000000017a914c9465d0384ec912a5b577024360667474c78e6b287c1b40000000000001976a914d0f4dbe0833f05a94d72f3c98ceb75b1aef2bba088ac00000000", "vin": [{"sequence": 4294967295, "scriptSig": {"hex": "00483045022100f77a8617320bc5006fd26c8e604d858725bb054d4978170d4aef086397abb801022028de270b33b5c5fbfbb5b48ad57e444533f50a3cee06a52f90c7fe246fb3a2a7014830450221008308aa7467b53401f24ec1f446651a9909c535be565b65ab8031e541b4b2ad320220317f74b2b96c1e29fa93e4707a30341e701e298282788e32537919567ccb5c050147522102907a54bed8ad74b3f35638c60114ca240a308cb986f3f2f306178869a8880b612103588e7727860bbdb304e3c659b5386c8f193bba050090a47bd2fb1fe91cb1e3fa52ae", "asm": "0 3045022100f77a8617320bc5006fd26c8e604d858725bb054d4978170d4aef086397abb801022028de270b33b5c5fbfbb5b48ad57e444533f50a3cee06a52f90c7fe246fb3a2a7[ALL] 30450221008308aa7467b53401f24ec1f446651a9909c535be565b65ab8031e541b4b2ad320220317f74b2b96c1e29fa93e4707a30341e701e298282788e32537919567ccb5c05[ALL] 522102907a54bed8ad74b3f35638c60114ca240a308cb986f3f2f306178869a8880b612103588e7727860bbdb304e3c659b5386c8f193bba050090a47bd2fb1fe91cb1e3fa52ae"}, "vout": 0, "txid": "5264703fbb66f77bbf847fa3c4c3bf7d03d89b4a7381f6d61ec2e98dbee8ae12"}], "txid": "ee7f1524adb23a82b609f0c1b7cf4c89c79f63e8f55c3187229d5e091f2a5db9", "blocktime": 1537873891, "version": 1, "confirmations": 11478, "time": 1537873891, "locktime": 0, "vsize": 368, "size": 368}