{"hash": "ec5a6ca62a01f23df0166e2215c9cd2679372e1b5b7220ded1cfb183058b20a1", "blockhash": "00000000000000000018f53835495a110e01622372bf6ae95dc86f2b0ab887b0", "vout": [{"scriptPubKey": {"reqSigs": 1, "hex": "a914bbc81312b51174f3fd6da779d3ec9c6076b52d2f87", "addresses": ["3JouxqTaJ2EAuVJa6ZjAow2aW1kcmV2nqR"], "asm": "OP_HASH160 bbc81312b51174f3fd6da779d3ec9c6076b52d2f OP_EQUAL", "type": "scripthash"}, "value": 0.85879216, "n": 0}, {"scriptPubKey": {"reqSigs": 1, "hex": "76a914ce1017e77d5cda6edd9ef5aa6b84aaf99ec2ba2d88ac", "addresses": ["1KnZUhriaEqDunXD5Rd7cV8PiQzWwqby5g"], "asm": "OP_DUP OP_HASH160 ce1017e77d5cda6edd9ef5aa6b84aaf99ec2ba2d OP_EQUALVERIFY OP_CHECKSIG", "type": "pubkeyhash"}, "value": 0.07586755, "n": 1}, {"scriptPubKey": {"reqSigs": 1, "hex": "76a9141e86a3f4f4ac09830ea6af0a430f6175d9e2d61588ac", "addresses": ["13nQZjo4zAvSgb7asypFGUBU2dbwwARYXy"], "asm": "OP_DUP OP_HASH160 1e86a3f4f4ac09830ea6af0a430f6175d9e2d615 OP_EQUALVERIFY OP_CHECKSIG", "type": "pubkeyhash"}, "value": 0.03112443, "n": 2}, {"scriptPubKey": {"reqSigs": 1, "hex": "76a9140c8e036919347ba818868225918894ce11a1b64888ac", "addresses": ["129PEZWqBswqyWvpBQni5dQWwLEq9pjrCD"], "asm": "OP_DUP OP_HASH160 0c8e036919347ba818868225918894ce11a1b648 OP_EQUALVERIFY OP_CHECKSIG", "type": "pubkeyhash"}, "value": 0.01606576, "n": 3}], "hex": "020000000001019153c326b060dc8e4052e491b7ebf97245776f9f2222230391266485ebb1ba390200000017160014ccab25d25385bdf48bef4f0dd34ca24edecd5311feffffff04b0691e050000000017a914bbc81312b51174f3fd6da779d3ec9c6076b52d2f87c3c37300000000001976a914ce1017e77d5cda6edd9ef5aa6b84aaf99ec2ba2d88acfb7d2f00000000001976a9141e86a3f4f4ac09830ea6af0a430f6175d9e2d61588acb0831800000000001976a9140c8e036919347ba818868225918894ce11a1b64888ac0247304402203b3858f354e7b681211f429d6691165caa07157066cecaa39a44e3f4395dc42202206e7a757631cc1b45f10cdfc206b4d2f11391331e4fe515b92e603f67f752507001210353af2ecf6021b3101ef95e1348a6750e601b940697ff28d556357b1176feacd40e490800", "vin": [{"txinwitness": ["304402203b3858f354e7b681211f429d6691165caa07157066cecaa39a44e3f4395dc42202206e7a757631cc1b45f10cdfc206b4d2f11391331e4fe515b92e603f67f752507001", "0353af2ecf6021b3101ef95e1348a6750e601b940697ff28d556357b1176feacd4"], "sequence": 4294967294, "scriptSig": {"hex": "160014ccab25d25385bdf48bef4f0dd34ca24edecd5311", "asm": "0014ccab25d25385bdf48bef4f0dd34ca24edecd5311"}, "vout": 2, "txid": "39bab1eb85642691032322229f6f774572f9ebb791e452408edc60b026c35391"}], "txid": "ee81bc8337b3143c16e706465726a27d55b572a41c86ddf1deacca81c6cac133", "blocktime": 1537870928, "version": 2, "confirmations": 11512, "time": 1537870928, "locktime": 542990, "vsize": 236, "size": 317}