{"hash": "ee8954e3002d30c6de1a8db9d3089bebaee6eb61199027c3800ae60bce6feb0a", "blockhash": "0000000000000000001f0ddff1eddb255c1121bcd4da4f1bc9a0da00cae72433", "vout": [{"scriptPubKey": {"reqSigs": 1, "hex": "a91467423cfc4c4b2bf0f1fb8a17dbf9ce8bbf61c2fb87", "addresses": ["3B6zsccXskpukrsNQiiA3tWa8D2nre563q"], "asm": "OP_HASH160 67423cfc4c4b2bf0f1fb8a17dbf9ce8bbf61c2fb OP_EQUAL", "type": "scripthash"}, "value": 0.003762, "n": 0}, {"scriptPubKey": {"reqSigs": 1, "hex": "76a914f62b36366750e122980202000ce30da184cdff0588ac", "addresses": ["1PSczbbjxQYh7MaKeT6Tm2o76F9HCFG5SJ"], "asm": "OP_DUP OP_HASH160 f62b36366750e122980202000ce30da184cdff05 OP_EQUALVERIFY OP_CHECKSIG", "type": "pubkeyhash"}, "value": 0.2962002, "n": 1}], "hex": "0100000001b2a2d215053f01e189f5c68231d627b242ea77c956c3aff481eb36aea8e36d01000000006a473044022012962e9bbbdfc7d10e5920fdd731844f175b8bac1904f947e1b97c6462c176100220753133f5841c36f31d93235758acc57578baa8451dba4ca1086c0298ac86478301210209dff36a596c1541204d5f7f329f4f6476dfcade2a0a7f692ea05d25c2460524ffffffff0288bd05000000000017a91467423cfc4c4b2bf0f1fb8a17dbf9ce8bbf61c2fb8734f7c301000000001976a914f62b36366750e122980202000ce30da184cdff0588ac00000000", "vin": [{"sequence": 4294967295, "scriptSig": {"hex": "473044022012962e9bbbdfc7d10e5920fdd731844f175b8bac1904f947e1b97c6462c176100220753133f5841c36f31d93235758acc57578baa8451dba4ca1086c0298ac86478301210209dff36a596c1541204d5f7f329f4f6476dfcade2a0a7f692ea05d25c2460524", "asm": "3044022012962e9bbbdfc7d10e5920fdd731844f175b8bac1904f947e1b97c6462c176100220753133f5841c36f31d93235758acc57578baa8451dba4ca1086c0298ac864783[ALL] 0209dff36a596c1541204d5f7f329f4f6476dfcade2a0a7f692ea05d25c2460524"}, "vout": 0, "txid": "016de3a8ae36eb81f4afc356c977ea42b227d63182c6f589e1013f0515d2a2b2"}], "txid": "ee8954e3002d30c6de1a8db9d3089bebaee6eb61199027c3800ae60bce6feb0a", "blocktime": 1537872018, "version": 1, "confirmations": 11489, "time": 1537872018, "locktime": 0, "vsize": 223, "size": 223}