{"hash": "ee8a5975ee755e8d7ebca1958a81b4195f8744c7616ea1c400dd1596e8cd68f4", "blockhash": "0000000000000000001e0dab787dd257d1dbfcb92a98c2207d5e1078be1f4165", "vout": [{"scriptPubKey": {"reqSigs": 1, "hex": "76a91415b148740e3ce60aec65f618ce7951b34543c01d88ac", "addresses": ["12yhZsPDuvJNMXdY41iXAsGqBDS5v99cem"], "asm": "OP_DUP OP_HASH160 15b148740e3ce60aec65f618ce7951b34543c01d OP_EQUALVERIFY OP_CHECKSIG", "type": "pubkeyhash"}, "value": 0.00459105, "n": 0}, {"scriptPubKey": {"reqSigs": 1, "hex": "76a91419b8891c8beefeb83e4ec2f04efce29afb94ffcb88ac", "addresses": ["13LzxZ6r3W5LUkADzsppEG8cuyA4QrERVA"], "asm": "OP_DUP OP_HASH160 19b8891c8beefeb83e4ec2f04efce29afb94ffcb OP_EQUALVERIFY OP_CHECKSIG", "type": "pubkeyhash"}, "value": 0.03303302, "n": 1}], "hex": "0100000001db343a2d442bfeb01dcb6b15c117e21cab050e33a2f7b3fbe7f82f6404bfdf34010000006b483045022100b4ade03e4cc66f04d77d355513c2b5788c53a8703d479846aa7c26b6ca53c421022006447350ac25adf4c3c92f51d399c9af1364ed38c841d9b75c8a55ca082ddb6c012103d2ae3374876d096dcfaabafcaf01be7442f0fac4ab86570d04424d69be9064abffffffff0261010700000000001976a91415b148740e3ce60aec65f618ce7951b34543c01d88ac86673200000000001976a91419b8891c8beefeb83e4ec2f04efce29afb94ffcb88ac00000000", "vin": [{"sequence": 4294967295, "scriptSig": {"hex": "483045022100b4ade03e4cc66f04d77d355513c2b5788c53a8703d479846aa7c26b6ca53c421022006447350ac25adf4c3c92f51d399c9af1364ed38c841d9b75c8a55ca082ddb6c012103d2ae3374876d096dcfaabafcaf01be7442f0fac4ab86570d04424d69be9064ab", "asm": "3045022100b4ade03e4cc66f04d77d355513c2b5788c53a8703d479846aa7c26b6ca53c421022006447350ac25adf4c3c92f51d399c9af1364ed38c841d9b75c8a55ca082ddb6c[ALL] 03d2ae3374876d096dcfaabafcaf01be7442f0fac4ab86570d04424d69be9064ab"}, "vout": 1, "txid": "34dfbf04642ff8e7fbb3f7a2330e05ab1ce217c1156bcb1db0fe2b442d3a34db"}], "txid": "ee8a5975ee755e8d7ebca1958a81b4195f8744c7616ea1c400dd1596e8cd68f4", "blocktime": 1537872475, "version": 1, "confirmations": 11486, "time": 1537872475, "locktime": 0, "vsize": 226, "size": 226}