{"hash": "ee8e287c027a8a29e171076b9ea326377561fcfc0dfbac00016e0e1d583bf0ec", "blockhash": "0000000000000000001cda96e906b7601b7a6fb1a3b62bca570a9e5d8f4b3de1", "vout": [{"scriptPubKey": {"reqSigs": 1, "hex": "76a9142f52f49db11a98fe68fbc080e0b2ef0a3da79d3a88ac", "addresses": ["15KE8sJsxSDnusnEvgAPcHnG5rDjRRJa8H"], "asm": "OP_DUP OP_HASH160 2f52f49db11a98fe68fbc080e0b2ef0a3da79d3a OP_EQUALVERIFY OP_CHECKSIG", "type": "pubkeyhash"}, "value": 0.03025899, "n": 0}, {"scriptPubKey": {"reqSigs": 1, "hex": "76a9140a66b0c11308e1b30415ad1162389c679891927788ac", "addresses": ["1wzmyas7jmPCxJdnkDGEDveDSiYMS9MFn"], "asm": "OP_DUP OP_HASH160 0a66b0c11308e1b30415ad1162389c6798919277 OP_EQUALVERIFY OP_CHECKSIG", "type": "pubkeyhash"}, "value": 6.45562013, "n": 1}], "hex": "0100000001dde5afe9de875ba9f80eacb38d79974d53d32ce06b629af0fa39c470faef3134050000006a47304402202223b709809aeeccf8e860441cbbdef36ba178273004d5e2ebb3b319384992ac022079aca7d37ee545f8905c2455cd18ead44e067ae5e029030657cd34798f811f45012102d26817135d374de5821e3d712a9f591820fc444110c828e1f19075d75c1a4ef9feffffff02eb2b2e00000000001976a9142f52f49db11a98fe68fbc080e0b2ef0a3da79d3a88ac9d7e7a26000000001976a9140a66b0c11308e1b30415ad1162389c679891927788ac00000000", "vin": [{"sequence": 4294967294, "scriptSig": {"hex": "47304402202223b709809aeeccf8e860441cbbdef36ba178273004d5e2ebb3b319384992ac022079aca7d37ee545f8905c2455cd18ead44e067ae5e029030657cd34798f811f45012102d26817135d374de5821e3d712a9f591820fc444110c828e1f19075d75c1a4ef9", "asm": "304402202223b709809aeeccf8e860441cbbdef36ba178273004d5e2ebb3b319384992ac022079aca7d37ee545f8905c2455cd18ead44e067ae5e029030657cd34798f811f45[ALL] 02d26817135d374de5821e3d712a9f591820fc444110c828e1f19075d75c1a4ef9"}, "vout": 5, "txid": "3431effa70c439faf09a626be02cd3534d97798db3ac0ef8a95b87dee9afe5dd"}], "txid": "ee8e287c027a8a29e171076b9ea326377561fcfc0dfbac00016e0e1d583bf0ec", "blocktime": 1537873282, "version": 1, "confirmations": 11484, "time": 1537873282, "locktime": 0, "vsize": 225, "size": 225}