{"hash": "ee8f68b3048e1762a304bac537748b89e30bad789ec309b9480b34ad56e942f8", "blockhash": "00000000000000000017f5eb5941039fbcee6240d03bc1f2f8e35350df66a1d8", "vout": [{"scriptPubKey": {"reqSigs": 1, "hex": "76a9144026f3eb3205c8b8ec175c93b6c6f28b8e7c8fe988ac", "addresses": ["16rCumQh521ABSMWrNbhEwoqn95qwdGqTR"], "asm": "OP_DUP OP_HASH160 4026f3eb3205c8b8ec175c93b6c6f28b8e7c8fe9 OP_EQUALVERIFY OP_CHECKSIG", "type": "pubkeyhash"}, "value": 0.00782708, "n": 0}], "hex": "0100000003dbedc10b0c3ca5ae72fa762d289ac9beddbfcb9fa905ebb53d9f9d307cdd8034010000006b483045022100fde77ad69dceed4f7e8e546b666ce78e72fece6e22740b1832b37bb49908bca9022074f2e76a0fd764cec2b005d1dcea6af05a9a104ec0bc09fc446309e61be1058e012102cac63b53b1f2e2dd0d7b6659840ba433e8adaa7450b6992a8bb82814174642dbffffffff3a6e8df0daa9811bad6b8f8c383420503aa1ffb2647bb423f4dae398a061cd55000000006a4730440220199e7b8f551269ff0387779dd81fa095cb77d3c2941d5fbeacb7ce20d28099cd022019b34eddabeeece3d5df55cbd35be37862a0fd4f20fb39ac89ed7d80902aabeb012102a1abe26b30215099581a1cd79ef5171aaaa8e297ea3a2e552c03576c1e92c528ffffffff406c46211ccb3e8969067800375decb7ed5f83ab4218e13ed36ba11900e2db95000000006a473044022066bc24c521397a958a4aa4a376763f3278e5ce14466ce50dd8159d33b0de738d02204232858ba33269d9da940193b6bc87cb09a6c5c6c47121696397c3d508e7dc4f0121030d1322edaff39954213371ef58e9285c15edf18e6f4ddf93ed65691739be7047ffffffff0174f10b00000000001976a9144026f3eb3205c8b8ec175c93b6c6f28b8e7c8fe988ac00000000", "vin": [{"sequence": 4294967295, "scriptSig": {"hex": "483045022100fde77ad69dceed4f7e8e546b666ce78e72fece6e22740b1832b37bb49908bca9022074f2e76a0fd764cec2b005d1dcea6af05a9a104ec0bc09fc446309e61be1058e012102cac63b53b1f2e2dd0d7b6659840ba433e8adaa7450b6992a8bb82814174642db", "asm": "3045022100fde77ad69dceed4f7e8e546b666ce78e72fece6e22740b1832b37bb49908bca9022074f2e76a0fd764cec2b005d1dcea6af05a9a104ec0bc09fc446309e61be1058e[ALL] 02cac63b53b1f2e2dd0d7b6659840ba433e8adaa7450b6992a8bb82814174642db"}, "vout": 1, "txid": "3480dd7c309d9f3db5eb05a99fcbbfddbec99a282d76fa72aea53c0c0bc1eddb"}, {"sequence": 4294967295, "scriptSig": {"hex": "4730440220199e7b8f551269ff0387779dd81fa095cb77d3c2941d5fbeacb7ce20d28099cd022019b34eddabeeece3d5df55cbd35be37862a0fd4f20fb39ac89ed7d80902aabeb012102a1abe26b30215099581a1cd79ef5171aaaa8e297ea3a2e552c03576c1e92c528", "asm": "30440220199e7b8f551269ff0387779dd81fa095cb77d3c2941d5fbeacb7ce20d28099cd022019b34eddabeeece3d5df55cbd35be37862a0fd4f20fb39ac89ed7d80902aabeb[ALL] 02a1abe26b30215099581a1cd79ef5171aaaa8e297ea3a2e552c03576c1e92c528"}, "vout": 0, "txid": "55cd61a098e3daf423b47b64b2ffa13a502034388c8f6bad1b81a9daf08d6e3a"}, {"sequence": 4294967295, "scriptSig": {"hex": "473044022066bc24c521397a958a4aa4a376763f3278e5ce14466ce50dd8159d33b0de738d02204232858ba33269d9da940193b6bc87cb09a6c5c6c47121696397c3d508e7dc4f0121030d1322edaff39954213371ef58e9285c15edf18e6f4ddf93ed65691739be7047", "asm": "3044022066bc24c521397a958a4aa4a376763f3278e5ce14466ce50dd8159d33b0de738d02204232858ba33269d9da940193b6bc87cb09a6c5c6c47121696397c3d508e7dc4f[ALL] 030d1322edaff39954213371ef58e9285c15edf18e6f4ddf93ed65691739be7047"}, "vout": 0, "txid": "95dbe20019a16bd33ee11842ab835fedb7ec5d3700780669893ecb1c21466c40"}], "txid": "ee8f68b3048e1762a304bac537748b89e30bad789ec309b9480b34ad56e942f8", "blocktime": 1537874412, "version": 1, "confirmations": 11467, "time": 1537874412, "locktime": 0, "vsize": 486, "size": 486}