{"hash": "ee906c572407ffbf6e47b3edb4e9234009d2d13f8c70af1da4e928d7ad219780", "blockhash": "0000000000000000000e13cef7c366c0283d82e591d1acd082e914b08063cdf1", "vout": [{"scriptPubKey": {"reqSigs": 1, "hex": "76a914d3188621e66fc54f472a83c0f36100e325f9ed2e88ac", "addresses": ["1LFAxRy6bgppLqnSGJ2Dbv8vpaYatzn3vy"], "asm": "OP_DUP OP_HASH160 d3188621e66fc54f472a83c0f36100e325f9ed2e OP_EQUALVERIFY OP_CHECKSIG", "type": "pubkeyhash"}, "value": 0.00315191, "n": 0}, {"scriptPubKey": {"reqSigs": 1, "hex": "a9146bd86f658b440350edb870db3bc71e94902d9a5987", "addresses": ["3BXFWFH9ENEKdGqm2EzLb24LfpxVzcjV3k"], "asm": "OP_HASH160 6bd86f658b440350edb870db3bc71e94902d9a59 OP_EQUAL", "type": "scripthash"}, "value": 0.00782431, "n": 1}], "hex": "010000000196aac264005ff6cb2bf697151556cd82f732d70e1c326a58e4b4f1f6c879c8e8170000006b483045022100c8f97588396a7ffba7dd0eef652d26e406d544a671df4fa0b9849523fe5ddb6d02203c785327d9ee5b2b22d8cfe2d4233852c16cbfb9d64b8356313051aaf7917ff10121029f44204c1dc63ae1d1cb04ca0fff50e5fb2c57c8efd4150c443823859b12815bffffffff0237cf0400000000001976a914d3188621e66fc54f472a83c0f36100e325f9ed2e88ac5ff00b000000000017a9146bd86f658b440350edb870db3bc71e94902d9a598700000000", "vin": [{"sequence": 4294967295, "scriptSig": {"hex": "483045022100c8f97588396a7ffba7dd0eef652d26e406d544a671df4fa0b9849523fe5ddb6d02203c785327d9ee5b2b22d8cfe2d4233852c16cbfb9d64b8356313051aaf7917ff10121029f44204c1dc63ae1d1cb04ca0fff50e5fb2c57c8efd4150c443823859b12815b", "asm": "3045022100c8f97588396a7ffba7dd0eef652d26e406d544a671df4fa0b9849523fe5ddb6d02203c785327d9ee5b2b22d8cfe2d4233852c16cbfb9d64b8356313051aaf7917ff1[ALL] 029f44204c1dc63ae1d1cb04ca0fff50e5fb2c57c8efd4150c443823859b12815b"}, "vout": 23, "txid": "e8c879c8f6f1b4e4586a321c0ed732f782cd56151597f62bcbf65f0064c2aa96"}], "txid": "ee906c572407ffbf6e47b3edb4e9234009d2d13f8c70af1da4e928d7ad219780", "blocktime": 1537871767, "version": 1, "confirmations": 11495, "time": 1537871767, "locktime": 0, "vsize": 224, "size": 224}