{"hash": "a3242c88dd717fa5510b3c21a91f34c2481d929af71ed85dddd8cf4e08b722fb", "blockhash": "0000000000000000000baef3f32e3676a92c3b2e5da21b426e4f302fc371ce76", "vout": [{"scriptPubKey": {"reqSigs": 1, "hex": "76a9140a004f98488d4e8a6a8ff5db51d04c86af62402488ac", "addresses": ["1ut8XEQB2hsBN8GyDvf4Xv27cHGQUSi4s"], "asm": "OP_DUP OP_HASH160 0a004f98488d4e8a6a8ff5db51d04c86af624024 OP_EQUALVERIFY OP_CHECKSIG", "type": "pubkeyhash"}, "value": 0.00211634, "n": 0}, {"scriptPubKey": {"reqSigs": 1, "hex": "a91408c364340a91e77e4376b26fdad3b5aedc5661f787", "addresses": ["32VMQ7Th4qGhbDYY68FZrfSF9hTbsPivgt"], "asm": "OP_HASH160 08c364340a91e77e4376b26fdad3b5aedc5661f7 OP_EQUAL", "type": "scripthash"}, "value": 0.02105712, "n": 1}], "hex": "0100000000010118267372a161d6c33bf1d0b94f5124bee0e4b8bae95bcd2be955b18570c6d189010000002322002027561ef61439ff4994ea3793249bbb358319edb59fff63c1eeada48f299e81b5ffffffff02b23a0300000000001976a9140a004f98488d4e8a6a8ff5db51d04c86af62402488ac702120000000000017a91408c364340a91e77e4376b26fdad3b5aedc5661f7870400483045022100bba808f1d10acf6205429782cfab9a9766a17b8aaae65f546fb81aea9b163c7b022035bcf97d41549ace3b0af03d231a8f46c3460d209bdd46f6edc4a32c17859b9401473044022030d73934265815e3fc40c488ca63d9c4be5efff275e0ad6a6ed0e5bd481f8dbf02204335fa5a790929a66176ea284eccd4ea3cb9314a820ab8c0db4bd1a00279d5b50147522102f484437eae67e7d1f9cf7235bd52510c99f379408a1f6fe737011d4bc259358a2103871fc2ca08e6950b38867e8e6a0e94ee625223d3aa0df5c65f414c6d784467e252ae00000000", "vin": [{"txinwitness": ["", "3045022100bba808f1d10acf6205429782cfab9a9766a17b8aaae65f546fb81aea9b163c7b022035bcf97d41549ace3b0af03d231a8f46c3460d209bdd46f6edc4a32c17859b9401", "3044022030d73934265815e3fc40c488ca63d9c4be5efff275e0ad6a6ed0e5bd481f8dbf02204335fa5a790929a66176ea284eccd4ea3cb9314a820ab8c0db4bd1a00279d5b501", "522102f484437eae67e7d1f9cf7235bd52510c99f379408a1f6fe737011d4bc259358a2103871fc2ca08e6950b38867e8e6a0e94ee625223d3aa0df5c65f414c6d784467e252ae"], "sequence": 4294967295, "scriptSig": {"hex": "22002027561ef61439ff4994ea3793249bbb358319edb59fff63c1eeada48f299e81b5", "asm": "002027561ef61439ff4994ea3793249bbb358319edb59fff63c1eeada48f299e81b5"}, "vout": 1, "txid": "89d1c67085b155e92bcd5be9bab8e4e0be24514fb9d0f13bc3d661a172732618"}], "txid": "ee92d652cdb44f4857096904e9f31e85bb80223cd504f69fd031648a5c22d409", "blocktime": 1537876114, "version": 1, "confirmations": 11460, "time": 1537876114, "locktime": 0, "vsize": 208, "size": 373}