{"hash": "ee94ed8d4c80277aba64c8d4e93ba39db13609d6a6e2305722c62fe9c519ec5d", "blockhash": "0000000000000000001f76057863aec43deb6fa401d9628bb513d65a8098bfab", "vout": [{"scriptPubKey": {"reqSigs": 1, "hex": "76a914537898031fc014737a004baeefd50bbbcb0c5f5e88ac", "addresses": ["18cMYvhfRsC2DTZdoCNgv8CDvQLqfqadjY"], "asm": "OP_DUP OP_HASH160 537898031fc014737a004baeefd50bbbcb0c5f5e OP_EQUALVERIFY OP_CHECKSIG", "type": "pubkeyhash"}, "value": 0.00156278, "n": 0}, {"scriptPubKey": {"reqSigs": 1, "hex": "76a9147aebf55cf70d68d2f5fb21525aa2e8411d83de6188ac", "addresses": ["1CCx75ryLWSapUrUAKfdMB7Bqt4nfN4vmS"], "asm": "OP_DUP OP_HASH160 7aebf55cf70d68d2f5fb21525aa2e8411d83de61 OP_EQUALVERIFY OP_CHECKSIG", "type": "pubkeyhash"}, "value": 0.04360372, "n": 1}], "hex": "01000000017f47e15bf984239da24ca119d9452ea55c51990d12ac500674bdbe76765007d7010000006b483045022100c4401f89803d67027a632670fb4a254dedd082d5c8fdf44692d2a200f0cbaca3022019b4938e495eec977628e094244669e9d48011468f2bebf0bae99c0fee9163f5012102dc18466ea5c135cbc293407542cac9987af760fe1a6054185e5eee21bc791cbcffffffff0276620200000000001976a914537898031fc014737a004baeefd50bbbcb0c5f5e88acb4884200000000001976a9147aebf55cf70d68d2f5fb21525aa2e8411d83de6188ac00000000", "vin": [{"sequence": 4294967295, "scriptSig": {"hex": "483045022100c4401f89803d67027a632670fb4a254dedd082d5c8fdf44692d2a200f0cbaca3022019b4938e495eec977628e094244669e9d48011468f2bebf0bae99c0fee9163f5012102dc18466ea5c135cbc293407542cac9987af760fe1a6054185e5eee21bc791cbc", "asm": "3045022100c4401f89803d67027a632670fb4a254dedd082d5c8fdf44692d2a200f0cbaca3022019b4938e495eec977628e094244669e9d48011468f2bebf0bae99c0fee9163f5[ALL] 02dc18466ea5c135cbc293407542cac9987af760fe1a6054185e5eee21bc791cbc"}, "vout": 1, "txid": "d707507676bebd740650ac120d99515ca52e45d919a14ca29d2384f95be1477f"}], "txid": "ee94ed8d4c80277aba64c8d4e93ba39db13609d6a6e2305722c62fe9c519ec5d", "blocktime": 1537873891, "version": 1, "confirmations": 11478, "time": 1537873891, "locktime": 0, "vsize": 226, "size": 226}