{"hash": "ee959b3d6796e5291acfa6f6cc2f5861d05fdb029743be541506ad71e8cf9593", "blockhash": "0000000000000000000dcc0f55137456b1a82d3642486a52398922ac4d620174", "vout": [{"scriptPubKey": {"reqSigs": 1, "hex": "76a914cf538b238f4e3a582826ede3982fb4eb5009536e88ac", "addresses": ["1KuExR17x8hrSRAjwVMyUvu4VBLZGwhECY"], "asm": "OP_DUP OP_HASH160 cf538b238f4e3a582826ede3982fb4eb5009536e OP_EQUALVERIFY OP_CHECKSIG", "type": "pubkeyhash"}, "value": 0.13200113, "n": 0}, {"scriptPubKey": {"reqSigs": 1, "hex": "76a914eeb2ccec7c728f35245c72999eaad1e4dd5fad4288ac", "addresses": ["1Nm81vzyePPkAjdBWPFBvh9scGxYC7RCe8"], "asm": "OP_DUP OP_HASH160 eeb2ccec7c728f35245c72999eaad1e4dd5fad42 OP_EQUALVERIFY OP_CHECKSIG", "type": "pubkeyhash"}, "value": 0.192061, "n": 1}], "hex": "0100000001935eb69e1cc15b0f736bdfa83909cb9144a6be9784aaf42bb7c0a5bee50a1fc7010000006b483045022100a4251c7a32128525f7459108fe6eeecf4b8b2487fda09e77fc04390ff20081a20220042a8da89876d112924458f7524424e9aabc64c50c14c0d35ff6480df4c3994f0121033dde339be9d5c5da36b710600eafe987b55a3c234da61978178999aea73109aeffffffff02f16ac900000000001976a914cf538b238f4e3a582826ede3982fb4eb5009536e88acd40f2501000000001976a914eeb2ccec7c728f35245c72999eaad1e4dd5fad4288ac00000000", "vin": [{"sequence": 4294967295, "scriptSig": {"hex": "483045022100a4251c7a32128525f7459108fe6eeecf4b8b2487fda09e77fc04390ff20081a20220042a8da89876d112924458f7524424e9aabc64c50c14c0d35ff6480df4c3994f0121033dde339be9d5c5da36b710600eafe987b55a3c234da61978178999aea73109ae", "asm": "3045022100a4251c7a32128525f7459108fe6eeecf4b8b2487fda09e77fc04390ff20081a20220042a8da89876d112924458f7524424e9aabc64c50c14c0d35ff6480df4c3994f[ALL] 033dde339be9d5c5da36b710600eafe987b55a3c234da61978178999aea73109ae"}, "vout": 1, "txid": "c71f0ae5bea5c0b72bf4aa8497bea64491cb0939a8df6b730f5bc11c9eb65e93"}], "txid": "ee959b3d6796e5291acfa6f6cc2f5861d05fdb029743be541506ad71e8cf9593", "blocktime": 1537870268, "version": 1, "confirmations": 11518, "time": 1537870268, "locktime": 0, "vsize": 226, "size": 226}