{"hash": "eea0b9f0bf857479055b759bd50839e14566be6eac929144dc90cc14f14d9f01", "blockhash": "0000000000000000001f0ddff1eddb255c1121bcd4da4f1bc9a0da00cae72433", "vout": [{"scriptPubKey": {"reqSigs": 1, "hex": "76a91440d34d2dc94a44d4049af275c63fb83477c0f0a388ac", "addresses": ["16umNmACDSQysm6WUYbCdH47tTBQqekJ4V"], "asm": "OP_DUP OP_HASH160 40d34d2dc94a44d4049af275c63fb83477c0f0a3 OP_EQUALVERIFY OP_CHECKSIG", "type": "pubkeyhash"}, "value": 0.00078516, "n": 0}, {"scriptPubKey": {"reqSigs": 1, "hex": "a914bff6e3b8c97196c032404435a15e417d97c6023087", "addresses": ["3KC2kNNKYpr4dWBGkENSBVujfLmbKoxRUB"], "asm": "OP_HASH160 bff6e3b8c97196c032404435a15e417d97c60230 OP_EQUAL", "type": "scripthash"}, "value": 0.0025686, "n": 1}], "hex": "01000000029d6f61284c55d0eb6f12a68189c3f92924a25a7f84b38c25ab4569aac5534934000000006b483045022100c3f09ab6bc24bee7bbab4a945c38b6161398813cd9b63508ed9879210226c89502201885f58cb3ae3bf5c3069ddb5bfb12bb387fd244d954c44310cc29a69c4c8b3f012102f256838079d81e96796398b71d65416ee3ecdfe9d52e7f953b1f33193cd66990ffffffff35a3e89ce9f230c3951bf4d2fc049d2f717f7fc212017a1802953af182691e9a000000006b4830450221008f403f138923be478b5e7c6a844f5785bfd124ad9b2bdb9493a92bd3e9dcb42a0220060efe500dfb94b18498baaecee9676445c96c605482c06bc8d00ec97e7a29aa0121024fd9cabf233dc2aaf9456252e81db043a3c9b31cf88a27223e542093a92a8a9fffffffff02b4320100000000001976a91440d34d2dc94a44d4049af275c63fb83477c0f0a388ac5ceb03000000000017a914bff6e3b8c97196c032404435a15e417d97c602308700000000", "vin": [{"sequence": 4294967295, "scriptSig": {"hex": "483045022100c3f09ab6bc24bee7bbab4a945c38b6161398813cd9b63508ed9879210226c89502201885f58cb3ae3bf5c3069ddb5bfb12bb387fd244d954c44310cc29a69c4c8b3f012102f256838079d81e96796398b71d65416ee3ecdfe9d52e7f953b1f33193cd66990", "asm": "3045022100c3f09ab6bc24bee7bbab4a945c38b6161398813cd9b63508ed9879210226c89502201885f58cb3ae3bf5c3069ddb5bfb12bb387fd244d954c44310cc29a69c4c8b3f[ALL] 02f256838079d81e96796398b71d65416ee3ecdfe9d52e7f953b1f33193cd66990"}, "vout": 0, "txid": "344953c5aa6945ab258cb3847f5aa22429f9c38981a6126febd0554c28616f9d"}, {"sequence": 4294967295, "scriptSig": {"hex": "4830450221008f403f138923be478b5e7c6a844f5785bfd124ad9b2bdb9493a92bd3e9dcb42a0220060efe500dfb94b18498baaecee9676445c96c605482c06bc8d00ec97e7a29aa0121024fd9cabf233dc2aaf9456252e81db043a3c9b31cf88a27223e542093a92a8a9f", "asm": "30450221008f403f138923be478b5e7c6a844f5785bfd124ad9b2bdb9493a92bd3e9dcb42a0220060efe500dfb94b18498baaecee9676445c96c605482c06bc8d00ec97e7a29aa[ALL] 024fd9cabf233dc2aaf9456252e81db043a3c9b31cf88a27223e542093a92a8a9f"}, "vout": 0, "txid": "9a1e6982f13a9502187a0112c27f7f712f9d04fcd2f41b95c330f2e99ce8a335"}], "txid": "eea0b9f0bf857479055b759bd50839e14566be6eac929144dc90cc14f14d9f01", "blocktime": 1537872018, "version": 1, "confirmations": 11489, "time": 1537872018, "locktime": 0, "vsize": 372, "size": 372}