{"hash": "eea02a01c00b5552b09a5fafc7f6eea9790e3acb11b7946cebbec8cbc22ac135", "blockhash": "0000000000000000001e0dab787dd257d1dbfcb92a98c2207d5e1078be1f4165", "vout": [{"scriptPubKey": {"reqSigs": 1, "hex": "76a914f9f921f0c648866ac7dd3dce9f5cda5db8cc65f588ac", "addresses": ["1PnjhoTGG7AZjm5wxVjxiSj58G7SbZzhnB"], "asm": "OP_DUP OP_HASH160 f9f921f0c648866ac7dd3dce9f5cda5db8cc65f5 OP_EQUALVERIFY OP_CHECKSIG", "type": "pubkeyhash"}, "value": 3.283e-05, "n": 0}, {"scriptPubKey": {"reqSigs": 1, "hex": "a914fd11d972feb8b735e2d3f54b06007eed103108bf87", "addresses": ["3Qm8GGwaz1C4RmKXoRttEJdmmpJHSw33Qc"], "asm": "OP_HASH160 fd11d972feb8b735e2d3f54b06007eed103108bf OP_EQUAL", "type": "scripthash"}, "value": 0.01359054, "n": 1}], "hex": "010000000190360018118403bca4147f94551bf85acdecb82df11764d154b60e630d04fc6a000000006b4830450221009eb95c87385df7df159878b62ca6607a3d1ef7b615d5917901b61d1e2516d878022003242deaa3f6d0c2b27dc71cb49c7e04f0ce1be2103d8fd711b5c826b605ef25012103423aacde4b0d3eab95410cf01c8c369d9b365045e844b6d3b0ec5702acbc8131ffffffff02d30c0000000000001976a914f9f921f0c648866ac7dd3dce9f5cda5db8cc65f588accebc14000000000017a914fd11d972feb8b735e2d3f54b06007eed103108bf8700000000", "vin": [{"sequence": 4294967295, "scriptSig": {"hex": "4830450221009eb95c87385df7df159878b62ca6607a3d1ef7b615d5917901b61d1e2516d878022003242deaa3f6d0c2b27dc71cb49c7e04f0ce1be2103d8fd711b5c826b605ef25012103423aacde4b0d3eab95410cf01c8c369d9b365045e844b6d3b0ec5702acbc8131", "asm": "30450221009eb95c87385df7df159878b62ca6607a3d1ef7b615d5917901b61d1e2516d878022003242deaa3f6d0c2b27dc71cb49c7e04f0ce1be2103d8fd711b5c826b605ef25[ALL] 03423aacde4b0d3eab95410cf01c8c369d9b365045e844b6d3b0ec5702acbc8131"}, "vout": 0, "txid": "6afc040d630eb654d16417f12db8eccd5af81b55947f14a4bc03841118003690"}], "txid": "eea02a01c00b5552b09a5fafc7f6eea9790e3acb11b7946cebbec8cbc22ac135", "blocktime": 1537872475, "version": 1, "confirmations": 11487, "time": 1537872475, "locktime": 0, "vsize": 224, "size": 224}