{"hash": "eea3be64fa084d7cb03ac8d106bc873088838d968a4b1355719cf41a96d570b4", "blockhash": "0000000000000000001cda96e906b7601b7a6fb1a3b62bca570a9e5d8f4b3de1", "vout": [{"scriptPubKey": {"type": "nulldata", "hex": "6a4c50000077d30001a96b65fddc8f5ae6b662aaae5b23cc0f42c2fc38c5e5bf9ae76da98a211a43296e006fb2eb29196dd5f55e2214fc5baa14f50613007cde21a2e91d100759d4ba30d2c37bb011d97e02cf", "asm": "OP_RETURN 000077d30001a96b65fddc8f5ae6b662aaae5b23cc0f42c2fc38c5e5bf9ae76da98a211a43296e006fb2eb29196dd5f55e2214fc5baa14f50613007cde21a2e91d100759d4ba30d2c37bb011d97e02cf"}, "value": 0.0, "n": 0}, {"scriptPubKey": {"reqSigs": 1, "hex": "76a91435d8f09bd1e6362e8804d0a6bfc09c226559708c88ac", "addresses": ["15uihR1Zp81RsxCw17WBj2Zt2ReimmV2FS"], "asm": "OP_DUP OP_HASH160 35d8f09bd1e6362e8804d0a6bfc09c226559708c OP_EQUALVERIFY OP_CHECKSIG", "type": "pubkeyhash"}, "value": 0.0063752, "n": 1}], "hex": "01000000012b7c8249f37377bcbcc1c6d0e5df39f35e0fd2f1f90096e79c58a4f71364cf9f010000006a47304402203ba7306dfc4f0ed465a5536c9fe74f0c343acfc44dac7a8d63b9e7fa4b0ab806022065981b511b2df0496578f1d44bf40ce7eb0828f812c9b5e6a9e90b6f2e319f98012102f1c3df9a102f0c3c6459883b045469257f8c1c1a30d4f5a061f9ff6b20ec88d7ffffffff020000000000000000536a4c50000077d30001a96b65fddc8f5ae6b662aaae5b23cc0f42c2fc38c5e5bf9ae76da98a211a43296e006fb2eb29196dd5f55e2214fc5baa14f50613007cde21a2e91d100759d4ba30d2c37bb011d97e02cf50ba0900000000001976a91435d8f09bd1e6362e8804d0a6bfc09c226559708c88ac00000000", "vin": [{"sequence": 4294967295, "scriptSig": {"hex": "47304402203ba7306dfc4f0ed465a5536c9fe74f0c343acfc44dac7a8d63b9e7fa4b0ab806022065981b511b2df0496578f1d44bf40ce7eb0828f812c9b5e6a9e90b6f2e319f98012102f1c3df9a102f0c3c6459883b045469257f8c1c1a30d4f5a061f9ff6b20ec88d7", "asm": "304402203ba7306dfc4f0ed465a5536c9fe74f0c343acfc44dac7a8d63b9e7fa4b0ab806022065981b511b2df0496578f1d44bf40ce7eb0828f812c9b5e6a9e90b6f2e319f98[ALL] 02f1c3df9a102f0c3c6459883b045469257f8c1c1a30d4f5a061f9ff6b20ec88d7"}, "vout": 1, "txid": "9fcf6413f7a4589ce79600f9f1d20f5ef339dfe5d0c6c1bcbc7773f349827c2b"}], "txid": "eea3be64fa084d7cb03ac8d106bc873088838d968a4b1355719cf41a96d570b4", "blocktime": 1537873282, "version": 1, "confirmations": 11484, "time": 1537873282, "locktime": 0, "vsize": 283, "size": 283}