{"hash": "eea913fbc5c17f7eaab5a217f06e646518268f87039b975ce733105f9c25c4b2", "blockhash": "0000000000000000000dcc0f55137456b1a82d3642486a52398922ac4d620174", "vout": [{"scriptPubKey": {"reqSigs": 1, "hex": "76a9141bbacf59162632dedb876a6349fd4c43f1fa94bd88ac", "addresses": ["13Xd2xptzDwt7idQHJWAnMabBDczhwry4k"], "asm": "OP_DUP OP_HASH160 1bbacf59162632dedb876a6349fd4c43f1fa94bd OP_EQUALVERIFY OP_CHECKSIG", "type": "pubkeyhash"}, "value": 0.00648587, "n": 0}, {"scriptPubKey": {"type": "nulldata", "hex": "6a4c500000776500018bffff623cfe112441cdc70386aeaeacb577c031fc3a016b46dc7dc7d0968359b37dcedfd75b87abd0b05dc9b8465baa07fa0612c6675664fc4c1d100759d4ba30d2c37bb011d97e02cf", "asm": "OP_RETURN 0000776500018bffff623cfe112441cdc70386aeaeacb577c031fc3a016b46dc7dc7d0968359b37dcedfd75b87abd0b05dc9b8465baa07fa0612c6675664fc4c1d100759d4ba30d2c37bb011d97e02cf"}, "value": 0.0, "n": 1}], "hex": "010000000175af559cd79394fa2824b2314c35e9a01dc1cc769b0d10b96b68b1a551be05fc000000006b483045022100c78f718b5e832410a77a280cf1ae4b06bde7849ace56b944ab25dde7b6bd60b702202fcab075a7c49876fbace88ae25bfa4642686e783972434fe5a6fe78be42fa7a012103c4990df7f041e762fd79d550cbebc216224e2fef09e5b23d9b50ce6696013994ffffffff028be50900000000001976a9141bbacf59162632dedb876a6349fd4c43f1fa94bd88ac0000000000000000536a4c500000776500018bffff623cfe112441cdc70386aeaeacb577c031fc3a016b46dc7dc7d0968359b37dcedfd75b87abd0b05dc9b8465baa07fa0612c6675664fc4c1d100759d4ba30d2c37bb011d97e02cf00000000", "vin": [{"sequence": 4294967295, "scriptSig": {"hex": "483045022100c78f718b5e832410a77a280cf1ae4b06bde7849ace56b944ab25dde7b6bd60b702202fcab075a7c49876fbace88ae25bfa4642686e783972434fe5a6fe78be42fa7a012103c4990df7f041e762fd79d550cbebc216224e2fef09e5b23d9b50ce6696013994", "asm": "3045022100c78f718b5e832410a77a280cf1ae4b06bde7849ace56b944ab25dde7b6bd60b702202fcab075a7c49876fbace88ae25bfa4642686e783972434fe5a6fe78be42fa7a[ALL] 03c4990df7f041e762fd79d550cbebc216224e2fef09e5b23d9b50ce6696013994"}, "vout": 0, "txid": "fc05be51a5b1686bb9100d9b76ccc11da0e9354c31b22428fa9493d79c55af75"}], "txid": "eea913fbc5c17f7eaab5a217f06e646518268f87039b975ce733105f9c25c4b2", "blocktime": 1537870268, "version": 1, "confirmations": 11518, "time": 1537870268, "locktime": 0, "vsize": 284, "size": 284}