{"hash": "eeadedf0381afc93b4808d59e14fabe661c0def41ae23bbfceaf57fa3b753315", "blockhash": "00000000000000000018f53835495a110e01622372bf6ae95dc86f2b0ab887b0", "vout": [{"scriptPubKey": {"reqSigs": 1, "hex": "a914837b136828fa18eab7ecd09a71bfa26974c7785f87", "addresses": ["3DgDt8XbtvSEsiBnJTScj2Mx5yFGcANrDm"], "asm": "OP_HASH160 837b136828fa18eab7ecd09a71bfa26974c7785f OP_EQUAL", "type": "scripthash"}, "value": 0.00781596, "n": 0}, {"scriptPubKey": {"reqSigs": 1, "hex": "76a9149683032b6eaf8acb3221195e23b298eb0424bd5888ac", "addresses": ["1EiqJg7ixGzu28KLeHuySQbDigwfHqrm96"], "asm": "OP_DUP OP_HASH160 9683032b6eaf8acb3221195e23b298eb0424bd58 OP_EQUALVERIFY OP_CHECKSIG", "type": "pubkeyhash"}, "value": 0.00072119, "n": 1}], "hex": "010000000185a13b1f4a2ea58e65f185bcc9cbf60156c2287ba599007cddfba88909bd0b6e020000006b48304502210093df3454387c38965fc1c791e0e30508833f8ec800d5a361bcd3609dcd1864e7022078dd5efc7195d1672bdbf100d9e9e27b85865b84de37e419c6ddcaa383b6a35a0121028ccc2f1c96c13a1fbbacb0a0b677b08f32f1566735ddc8a21d1a58fa9a9ab9f2ffffffff021ced0b000000000017a914837b136828fa18eab7ecd09a71bfa26974c7785f87b7190100000000001976a9149683032b6eaf8acb3221195e23b298eb0424bd5888ac00000000", "vin": [{"sequence": 4294967295, "scriptSig": {"hex": "48304502210093df3454387c38965fc1c791e0e30508833f8ec800d5a361bcd3609dcd1864e7022078dd5efc7195d1672bdbf100d9e9e27b85865b84de37e419c6ddcaa383b6a35a0121028ccc2f1c96c13a1fbbacb0a0b677b08f32f1566735ddc8a21d1a58fa9a9ab9f2", "asm": "304502210093df3454387c38965fc1c791e0e30508833f8ec800d5a361bcd3609dcd1864e7022078dd5efc7195d1672bdbf100d9e9e27b85865b84de37e419c6ddcaa383b6a35a[ALL] 028ccc2f1c96c13a1fbbacb0a0b677b08f32f1566735ddc8a21d1a58fa9a9ab9f2"}, "vout": 2, "txid": "6e0bbd0989a8fbdd7c0099a57b28c25601f6cbc9bc85f1658ea52e4a1f3ba185"}], "txid": "eeadedf0381afc93b4808d59e14fabe661c0def41ae23bbfceaf57fa3b753315", "blocktime": 1537870928, "version": 1, "confirmations": 11512, "time": 1537870928, "locktime": 0, "vsize": 224, "size": 224}