{"hash": "a36020161bc50b3bf044e2dd7cf897e16cbf505d142f7a9b11117b3a591286fb", "blockhash": "0000000000000000000baef3f32e3676a92c3b2e5da21b426e4f302fc371ce76", "vout": [{"scriptPubKey": {"reqSigs": 1, "hex": "76a91459541425f08f2bffb87f8f9ba8bca23d9ffa6dec88ac", "addresses": ["199KrxtngGm6KprjVjSaZt9ssakR8oG3ES"], "asm": "OP_DUP OP_HASH160 59541425f08f2bffb87f8f9ba8bca23d9ffa6dec OP_EQUALVERIFY OP_CHECKSIG", "type": "pubkeyhash"}, "value": 0.00156256, "n": 0}, {"scriptPubKey": {"reqSigs": 1, "hex": "a9141988a27e3c2df4ddee7fad5a2303d086179b2a3087", "addresses": ["3422VtS7UtCvXYxoXMVp6eZupR252z85oC"], "asm": "OP_HASH160 1988a27e3c2df4ddee7fad5a2303d086179b2a30 OP_EQUAL", "type": "scripthash"}, "value": 0.66792808, "n": 1}], "hex": "010000000001014e9579b99320c453a436ed762bcd21e5354b38a15977bbf2190276ee6788aa24020000002322002065d416c48a8072e0ac51c2d111eb194f009caef0332446c1bf2097316cf07fa9ffffffff0260620200000000001976a91459541425f08f2bffb87f8f9ba8bca23d9ffa6dec88ac682dfb030000000017a9141988a27e3c2df4ddee7fad5a2303d086179b2a30870400483045022100e5400671da48014e3308691c3efee36d1c0db42b10aa211e9805e0e7c7d7d32e022049e69060caf723c95ec3bc358f1590c5f7cd407408151d4332f5baa3a1ef5614014730440220575c094fa3d891539c356acfe9a14fdb0472f0f86bec2bb206bd2004cef025e3022050fbeda66c6ab67d551ca7d254134f85425e979a298d2a57d9ac6d1950c8be2f0169522102f44abcf9e23c9a460da309ccca56c619c04eed3bde2c2cff5e7d78fbcd980b9c2103c9443cf3047bb6c2c82f1b0c44c36109cdc3d0d601d16d1189a1602bf8d1a0a02103bfe867059274412412e088af5572b92168c2ef495cfe6c9b7a753a009eb37c4853ae00000000", "vin": [{"txinwitness": ["", "3045022100e5400671da48014e3308691c3efee36d1c0db42b10aa211e9805e0e7c7d7d32e022049e69060caf723c95ec3bc358f1590c5f7cd407408151d4332f5baa3a1ef561401", "30440220575c094fa3d891539c356acfe9a14fdb0472f0f86bec2bb206bd2004cef025e3022050fbeda66c6ab67d551ca7d254134f85425e979a298d2a57d9ac6d1950c8be2f01", "522102f44abcf9e23c9a460da309ccca56c619c04eed3bde2c2cff5e7d78fbcd980b9c2103c9443cf3047bb6c2c82f1b0c44c36109cdc3d0d601d16d1189a1602bf8d1a0a02103bfe867059274412412e088af5572b92168c2ef495cfe6c9b7a753a009eb37c4853ae"], "sequence": 4294967295, "scriptSig": {"hex": "22002065d416c48a8072e0ac51c2d111eb194f009caef0332446c1bf2097316cf07fa9", "asm": "002065d416c48a8072e0ac51c2d111eb194f009caef0332446c1bf2097316cf07fa9"}, "vout": 2, "txid": "24aa8867ee760219f2bb7759a1384b35e521cd2b76ed36a453c42093b979954e"}], "txid": "eeb99b359478c1a0bee9b404891d98ee6ef57dcd264fb6cc53230a621639e040", "blocktime": 1537876114, "version": 1, "confirmations": 11460, "time": 1537876114, "locktime": 0, "vsize": 216, "size": 407}