{"hash": "eec2a2a5d7fd6ddad3855a0adf017788eac4e3dad45a3325bd2cab7a1a7802ae", "blockhash": "0000000000000000001cda96e906b7601b7a6fb1a3b62bca570a9e5d8f4b3de1", "vout": [{"scriptPubKey": {"reqSigs": 1, "hex": "a9149e7362e9710b86c2a6a729c34066be0544ad85c987", "addresses": ["3G8pv3CpejZBSehFJRq7xQYxErFhZ9VEEN"], "asm": "OP_HASH160 9e7362e9710b86c2a6a729c34066be0544ad85c9 OP_EQUAL", "type": "scripthash"}, "value": 0.00108834, "n": 0}, {"scriptPubKey": {"reqSigs": 1, "hex": "76a9140953b586e78a2118d031d43bc486054f7035606388ac", "addresses": ["1rKMwHgVQ3CSXurSLwnErLiBE4WNgznVc"], "asm": "OP_DUP OP_HASH160 0953b586e78a2118d031d43bc486054f70356063 OP_EQUALVERIFY OP_CHECKSIG", "type": "pubkeyhash"}, "value": 0.98672996, "n": 1}], "hex": "01000000013af482b5df2b3143e290fd8912b3e85b6c9942a74d7ced79bcdda084a672b0bf010000006b4830450221008f889548b12a6cfc76ddba3cd5573e282a90ac5aa051e1f44d8ab45a76f31f450220720c766f1b7acc484fe0aae87361e5d1e3051eaed9298f2aeac2721722069927012102639e04e4268273023bbf051535f88feaf413c42ec723a2faa5c5f4a401a8583bffffffff0222a901000000000017a9149e7362e9710b86c2a6a729c34066be0544ad85c98764a1e105000000001976a9140953b586e78a2118d031d43bc486054f7035606388ac00000000", "vin": [{"sequence": 4294967295, "scriptSig": {"hex": "4830450221008f889548b12a6cfc76ddba3cd5573e282a90ac5aa051e1f44d8ab45a76f31f450220720c766f1b7acc484fe0aae87361e5d1e3051eaed9298f2aeac2721722069927012102639e04e4268273023bbf051535f88feaf413c42ec723a2faa5c5f4a401a8583b", "asm": "30450221008f889548b12a6cfc76ddba3cd5573e282a90ac5aa051e1f44d8ab45a76f31f450220720c766f1b7acc484fe0aae87361e5d1e3051eaed9298f2aeac2721722069927[ALL] 02639e04e4268273023bbf051535f88feaf413c42ec723a2faa5c5f4a401a8583b"}, "vout": 1, "txid": "bfb072a684a0ddbc79ed7c4da742996c5be8b31289fd90e243312bdfb582f43a"}], "txid": "eec2a2a5d7fd6ddad3855a0adf017788eac4e3dad45a3325bd2cab7a1a7802ae", "blocktime": 1537873282, "version": 1, "confirmations": 11480, "time": 1537873282, "locktime": 0, "vsize": 224, "size": 224}