{"hash": "eecca891e41b1d248d01f648ed5a300592704181aa4f11a65aaf6de82a2a81cb", "blockhash": "00000000000000000018f53835495a110e01622372bf6ae95dc86f2b0ab887b0", "vout": [{"scriptPubKey": {"reqSigs": 1, "hex": "a91477c37f83159d87a1aeb2ced6d3469456ef0c161a87", "addresses": ["3CcGXpMZiTuLb3pTMzMH24z9XZgcTvcAEj"], "asm": "OP_HASH160 77c37f83159d87a1aeb2ced6d3469456ef0c161a OP_EQUAL", "type": "scripthash"}, "value": 0.04, "n": 0}, {"scriptPubKey": {"reqSigs": 1, "hex": "76a9141a925dded8d922a2a3ff8853b95ef4e96a66315988ac", "addresses": ["13RVuivtvmLB7Qyhdymxk4Jh8zBexm2ixH"], "asm": "OP_DUP OP_HASH160 1a925dded8d922a2a3ff8853b95ef4e96a663159 OP_EQUALVERIFY OP_CHECKSIG", "type": "pubkeyhash"}, "value": 0.93205732, "n": 1}], "hex": "010000000160fdabd62440fa8961b2ecd8e8339817fdc99663b4a2e121f2c6c43692eec77f010000006a47304402203d5e12d50d17a7eab681fed8f08753ce3ec13b03df49fdf54e983f24aa7187e402207601287145fa72d0a5f6cd987211e167d3e3849a503b6d4669039fbe02fdeb0c0121039d6dcf5eac708dc68e4b1631e62dbbac29e461a84e13a4479c95cf08a7e804deffffffff0200093d000000000017a91477c37f83159d87a1aeb2ced6d3469456ef0c161a87e4348e05000000001976a9141a925dded8d922a2a3ff8853b95ef4e96a66315988ac00000000", "vin": [{"sequence": 4294967295, "scriptSig": {"hex": "47304402203d5e12d50d17a7eab681fed8f08753ce3ec13b03df49fdf54e983f24aa7187e402207601287145fa72d0a5f6cd987211e167d3e3849a503b6d4669039fbe02fdeb0c0121039d6dcf5eac708dc68e4b1631e62dbbac29e461a84e13a4479c95cf08a7e804de", "asm": "304402203d5e12d50d17a7eab681fed8f08753ce3ec13b03df49fdf54e983f24aa7187e402207601287145fa72d0a5f6cd987211e167d3e3849a503b6d4669039fbe02fdeb0c[ALL] 039d6dcf5eac708dc68e4b1631e62dbbac29e461a84e13a4479c95cf08a7e804de"}, "vout": 1, "txid": "7fc7ee9236c4c6f221e1a2b46396c9fd179833e8d8ecb26189fa4024d6abfd60"}], "txid": "eecca891e41b1d248d01f648ed5a300592704181aa4f11a65aaf6de82a2a81cb", "blocktime": 1537870928, "version": 1, "confirmations": 11512, "time": 1537870928, "locktime": 0, "vsize": 223, "size": 223}