{"hash": "eecddd9d06e660ea41c1fc1744d2c4ec4041b18cc87ab523934c472a9fdd0f09", "blockhash": "0000000000000000001e0dab787dd257d1dbfcb92a98c2207d5e1078be1f4165", "vout": [{"scriptPubKey": {"reqSigs": 1, "hex": "76a9146099ba06f19e793cdff88ab8f5a2c5768a173a8388ac", "addresses": ["19on2XrJVi3CoNTecicsCDdHYc1pYUmByb"], "asm": "OP_DUP OP_HASH160 6099ba06f19e793cdff88ab8f5a2c5768a173a83 OP_EQUALVERIFY OP_CHECKSIG", "type": "pubkeyhash"}, "value": 0.00270537, "n": 0}, {"scriptPubKey": {"reqSigs": 1, "hex": "76a914d8d6b5821aebc1b6f0e16d42f679964c25891d9788ac", "addresses": ["1LmYAgQQV435gHnRDaxu5TQxkSAUYKgoV6"], "asm": "OP_DUP OP_HASH160 d8d6b5821aebc1b6f0e16d42f679964c25891d97 OP_EQUALVERIFY OP_CHECKSIG", "type": "pubkeyhash"}, "value": 0.00333003, "n": 1}], "hex": "0100000001c9ebed5814e95ba058c2c2b952587b8c5d69e8f0c9225753bde861aebbb21775010000006a47304402207746262b462f4ae20f850e094697b0442358555c73d3a50762851d8bdfc2164b0220102399e7c7c7fe91f1fe63c4fa4592fc82b055d4ad004d969ed1a4615f87a8a70121020e08ba12f4ed63a392b26e3235acbee82ca7cf48f4d5665dccd2de8b3caceebeffffffff02c9200400000000001976a9146099ba06f19e793cdff88ab8f5a2c5768a173a8388accb140500000000001976a914d8d6b5821aebc1b6f0e16d42f679964c25891d9788ac00000000", "vin": [{"sequence": 4294967295, "scriptSig": {"hex": "47304402207746262b462f4ae20f850e094697b0442358555c73d3a50762851d8bdfc2164b0220102399e7c7c7fe91f1fe63c4fa4592fc82b055d4ad004d969ed1a4615f87a8a70121020e08ba12f4ed63a392b26e3235acbee82ca7cf48f4d5665dccd2de8b3caceebe", "asm": "304402207746262b462f4ae20f850e094697b0442358555c73d3a50762851d8bdfc2164b0220102399e7c7c7fe91f1fe63c4fa4592fc82b055d4ad004d969ed1a4615f87a8a7[ALL] 020e08ba12f4ed63a392b26e3235acbee82ca7cf48f4d5665dccd2de8b3caceebe"}, "vout": 1, "txid": "7517b2bbae61e8bd535722c9f0e8695d8c7b5852b9c2c258a05be91458edebc9"}], "txid": "eecddd9d06e660ea41c1fc1744d2c4ec4041b18cc87ab523934c472a9fdd0f09", "blocktime": 1537872475, "version": 1, "confirmations": 11486, "time": 1537872475, "locktime": 0, "vsize": 225, "size": 225}