{"hash": "63517e2e4941987cd8836b805d7269b0cdbbb356ab702592d2fe39f6e0fcf935", "blockhash": "0000000000000000000baef3f32e3676a92c3b2e5da21b426e4f302fc371ce76", "vout": [{"scriptPubKey": {"reqSigs": 1, "hex": "76a914c9a1745670ed0981dc0e3d4e5373b2312cceb64b88ac", "addresses": ["1KP8EcLr9U61ZNgz75obGLKcC8xZz9BXJf"], "asm": "OP_DUP OP_HASH160 c9a1745670ed0981dc0e3d4e5373b2312cceb64b OP_EQUALVERIFY OP_CHECKSIG", "type": "pubkeyhash"}, "value": 0.00064687, "n": 0}, {"scriptPubKey": {"reqSigs": 1, "hex": "a914f5342287aaa57f5c05756dbd5ef14091cc70030f87", "addresses": ["3Q3XvwKWsx3ocmCXheK6pAo5ieooFx75hh"], "asm": "OP_HASH160 f5342287aaa57f5c05756dbd5ef14091cc70030f OP_EQUAL", "type": "scripthash"}, "value": 0.07811774, "n": 1}], "hex": "01000000000101f9b6422f18e6897d8d60b100eb4ad6712c12ce1f6c74b31feb3c266ba1ecc52d01000000232200204fd7968ffe15cb453352a1e9ee2915eff8b6d6252d5a351f9092b82ca10eb12cffffffff02affc0000000000001976a914c9a1745670ed0981dc0e3d4e5373b2312cceb64b88acbe3277000000000017a914f5342287aaa57f5c05756dbd5ef14091cc70030f8704004730440220542dfde505a7b2ce1e36688d4848ec81c6e069f2f01f7851408f63e31e338598022012a1ade11e3eff4ca7d76e015255f68c1ce0865bf79318b1787dc20714e23bc80147304402201dffe9ed825aa42b703e30c0517e85911d516b26a32332104156ae3ef83aeecb02202a1f9e9308c2723fb10cf597dcca2536ab9ca4e3c373f828fee6e580becaef1a0147522103b70e79262cbb7310fe069dea7c473b53276b75c67fb841ff66279f152a3fe0172103871fc2ca08e6950b38867e8e6a0e94ee625223d3aa0df5c65f414c6d784467e252ae00000000", "vin": [{"txinwitness": ["", "30440220542dfde505a7b2ce1e36688d4848ec81c6e069f2f01f7851408f63e31e338598022012a1ade11e3eff4ca7d76e015255f68c1ce0865bf79318b1787dc20714e23bc801", "304402201dffe9ed825aa42b703e30c0517e85911d516b26a32332104156ae3ef83aeecb02202a1f9e9308c2723fb10cf597dcca2536ab9ca4e3c373f828fee6e580becaef1a01", "522103b70e79262cbb7310fe069dea7c473b53276b75c67fb841ff66279f152a3fe0172103871fc2ca08e6950b38867e8e6a0e94ee625223d3aa0df5c65f414c6d784467e252ae"], "sequence": 4294967295, "scriptSig": {"hex": "2200204fd7968ffe15cb453352a1e9ee2915eff8b6d6252d5a351f9092b82ca10eb12c", "asm": "00204fd7968ffe15cb453352a1e9ee2915eff8b6d6252d5a351f9092b82ca10eb12c"}, "vout": 1, "txid": "2dc5eca16b263ceb1fb3746c1fce122c71d64aeb00b1608d7d89e6182f42b6f9"}], "txid": "eecf4770533a1bafcc3ee6a8a9fcfc38c8e5e7708ebdd9771c660bf4f7c89524", "blocktime": 1537876114, "version": 1, "confirmations": 11462, "time": 1537876114, "locktime": 0, "vsize": 207, "size": 372}