{"hash": "1a8a2566ee5e1efb0e14e0c007fca3262b127d44735573aaf5731a8d0c121e2a", "blockhash": "0000000000000000001f76057863aec43deb6fa401d9628bb513d65a8098bfab", "vout": [{"scriptPubKey": {"reqSigs": 1, "hex": "76a9144ff69418b0ee0e876a623d9b094259de7fad9b3e88ac", "addresses": ["18HomjJEGLKi922dAQY5fXnpV9EpumWg7D"], "asm": "OP_DUP OP_HASH160 4ff69418b0ee0e876a623d9b094259de7fad9b3e OP_EQUALVERIFY OP_CHECKSIG", "type": "pubkeyhash"}, "value": 0.16682256, "n": 0}, {"scriptPubKey": {"reqSigs": 1, "hex": "a914ab2acb7016ff983f7ca126f617b0792711544bb387", "addresses": ["3HJ4jmoFovLWRbw7mdHUU4EXWsP9MC9ftV"], "asm": "OP_HASH160 ab2acb7016ff983f7ca126f617b0792711544bb3 OP_EQUAL", "type": "scripthash"}, "value": 0.00892784, "n": 1}], "hex": "020000000001026a094682c15af306e5f5ee513076119ca300e752b5d5542154b6baaff8dbc3dc0100000017160014369c57980d26909be6eea024717a0a6633ff8b27ffffffff48c09876861ac64b30efa9b8cf867ba79ef0b20ef4fc15b6f5b7ae58aa957a6801000000171600145ab804a3d87241034d3533ce7994de24a900ba82ffffffff02108dfe00000000001976a9144ff69418b0ee0e876a623d9b094259de7fad9b3e88ac709f0d000000000017a914ab2acb7016ff983f7ca126f617b0792711544bb387024830450221009569ee215df45a7219845302b2d4de29b616ecd0d3f0d169d2b9e834020210b3022060f10681e80b7b12ad909541f996ce83096c3ca3f7bd5d5496411e6d980bf66d012102e8fe12bb3b8823fcd2f60b31a521d5988cd264476f68de3a7ed689e0b14094010247304402204add6437aeae3b002b67b3eca0165fc3c08e713ad5f8c26c67b7fc84e87d61c802204028294bd57340e35e92957409dbb22a909d9cda4bc9af59a717f4464fe39c71012103641afbaa1b4cfd8737ac0d40641f5e7b5b08b6b7e61e3498022bbba7eab5cf3e00000000", "vin": [{"txinwitness": ["30450221009569ee215df45a7219845302b2d4de29b616ecd0d3f0d169d2b9e834020210b3022060f10681e80b7b12ad909541f996ce83096c3ca3f7bd5d5496411e6d980bf66d01", "02e8fe12bb3b8823fcd2f60b31a521d5988cd264476f68de3a7ed689e0b1409401"], "sequence": 4294967295, "scriptSig": {"hex": "160014369c57980d26909be6eea024717a0a6633ff8b27", "asm": "0014369c57980d26909be6eea024717a0a6633ff8b27"}, "vout": 1, "txid": "dcc3dbf8afbab6542154d5b552e700a39c11763051eef5e506f35ac18246096a"}, {"txinwitness": ["304402204add6437aeae3b002b67b3eca0165fc3c08e713ad5f8c26c67b7fc84e87d61c802204028294bd57340e35e92957409dbb22a909d9cda4bc9af59a717f4464fe39c7101", "03641afbaa1b4cfd8737ac0d40641f5e7b5b08b6b7e61e3498022bbba7eab5cf3e"], "sequence": 4294967295, "scriptSig": {"hex": "1600145ab804a3d87241034d3533ce7994de24a900ba82", "asm": "00145ab804a3d87241034d3533ce7994de24a900ba82"}, "vout": 1, "txid": "687a95aa58aeb7f5b615fcf40eb2f09ea77b86cfb8a9ef304bc61a867698c048"}], "txid": "eed8531e49884f5d35f8e060ea2614d92533719f8ce4c54899fb7bf5a3d0e982", "blocktime": 1537873891, "version": 2, "confirmations": 11475, "time": 1537873891, "locktime": 0, "vsize": 259, "size": 421}