{"hash": "eed90cf477472d551f1d29b2faa7503e8d548a142e80d952df2c4ed976b6bcd4", "blockhash": "00000000000000000018f53835495a110e01622372bf6ae95dc86f2b0ab887b0", "vout": [{"scriptPubKey": {"reqSigs": 1, "hex": "76a91408dddc283c45fdd857b013fd05ab0fb2de12bd7c88ac", "addresses": ["1otBdwbkg6NAG3UHeMxc7BGLEZgyDr1JU"], "asm": "OP_DUP OP_HASH160 08dddc283c45fdd857b013fd05ab0fb2de12bd7c OP_EQUALVERIFY OP_CHECKSIG", "type": "pubkeyhash"}, "value": 0.10848663, "n": 0}, {"scriptPubKey": {"reqSigs": 1, "hex": "76a914a24ec37b44046a55ec535500939ad280f1c6751c88ac", "addresses": ["1FoCpfi3D1KzNP8VZ3jBKaZLcifwpDoAcc"], "asm": "OP_DUP OP_HASH160 a24ec37b44046a55ec535500939ad280f1c6751c OP_EQUALVERIFY OP_CHECKSIG", "type": "pubkeyhash"}, "value": 0.855, "n": 1}], "hex": "010000000187eb711f0dba1592aa55d4161bd54bac397d849c51b328e8e6d041fefe51d8621f0000006a4730440220230355f48a3ce57255d6bcbb35c65fea3ec6de77344cd9bb35707f7a71e618f402203acefe6369d1108da1830f6d0700b66ec9907adbe041825e3ddbf90eff8e371b0121022c69cc09be2a048d2b9eb504b01b8435ca0cdebe7c4e905b1361b9584b68c20fffffffff029789a500000000001976a91408dddc283c45fdd857b013fd05ab0fb2de12bd7c88ac60a01805000000001976a914a24ec37b44046a55ec535500939ad280f1c6751c88ac00000000", "vin": [{"sequence": 4294967295, "scriptSig": {"hex": "4730440220230355f48a3ce57255d6bcbb35c65fea3ec6de77344cd9bb35707f7a71e618f402203acefe6369d1108da1830f6d0700b66ec9907adbe041825e3ddbf90eff8e371b0121022c69cc09be2a048d2b9eb504b01b8435ca0cdebe7c4e905b1361b9584b68c20f", "asm": "30440220230355f48a3ce57255d6bcbb35c65fea3ec6de77344cd9bb35707f7a71e618f402203acefe6369d1108da1830f6d0700b66ec9907adbe041825e3ddbf90eff8e371b[ALL] 022c69cc09be2a048d2b9eb504b01b8435ca0cdebe7c4e905b1361b9584b68c20f"}, "vout": 31, "txid": "62d851fefe41d0e6e828b3519c847d39ac4bd51b16d455aa9215ba0d1f71eb87"}], "txid": "eed90cf477472d551f1d29b2faa7503e8d548a142e80d952df2c4ed976b6bcd4", "blocktime": 1537870928, "version": 1, "confirmations": 11512, "time": 1537870928, "locktime": 0, "vsize": 225, "size": 225}