{"hash": "6bc6c32cffccd79e1770ddf0652560787387d255e055c49131bdb9e86cdfb747", "blockhash": "0000000000000000001cda96e906b7601b7a6fb1a3b62bca570a9e5d8f4b3de1", "vout": [{"scriptPubKey": {"reqSigs": 1, "hex": "76a9149a1b8f9b1fa2d2297863adb1cb11c71df455684888ac", "addresses": ["1F3r5We2zwNiSzG6GQUTTWnnPMCz2HJbJu"], "asm": "OP_DUP OP_HASH160 9a1b8f9b1fa2d2297863adb1cb11c71df4556848 OP_EQUALVERIFY OP_CHECKSIG", "type": "pubkeyhash"}, "value": 2.717e-05, "n": 0}, {"scriptPubKey": {"reqSigs": 1, "hex": "a914e8db75c900cf08f06518e96d167331f2a4abfb3387", "addresses": ["3NvFbQMAkkqEFj4i1sYPPLkSWzxTFUchjA"], "asm": "OP_HASH160 e8db75c900cf08f06518e96d167331f2a4abfb33 OP_EQUAL", "type": "scripthash"}, "value": 3.324e-05, "n": 1}], "hex": "01000000000101ff435f77f7e5333b40ed2088468da548c0554da810db95608885f0f6a641f2180100000023220020941cfaff8837763dc1f69ff82b6d6553fdea17a41cfc29a04403293eedd8ccc7ffffffff029d0a0000000000001976a9149a1b8f9b1fa2d2297863adb1cb11c71df455684888acfc0c00000000000017a914e8db75c900cf08f06518e96d167331f2a4abfb33870400483045022100b72c211cc3429f8250c2bf2e3f0d101d49fa37426a81515c514a21ddc4b5e8e20220433d6998cdd92c454619ada144468e080de0dc30aed7d1e1f491d4a72835d9d30147304402206a0ecb6ccae540d9b3f1da94f98d22eb3413d0aba86a0a5d804103a7ece15ffd02206c372cad4ba5b130615b50728c37f400bcffd4dc2cd90fe0b0e7bdd803013f9c0147522102531db3a5883f29bab4241dd0cd726936667bcda445d89bdd22244e828b6993342103148c80a5bdfddb05ff5bcffc397c8ca748d8b435ec6a175bc9d7bfc7fc6f853752ae00000000", "vin": [{"txinwitness": ["", "3045022100b72c211cc3429f8250c2bf2e3f0d101d49fa37426a81515c514a21ddc4b5e8e20220433d6998cdd92c454619ada144468e080de0dc30aed7d1e1f491d4a72835d9d301", "304402206a0ecb6ccae540d9b3f1da94f98d22eb3413d0aba86a0a5d804103a7ece15ffd02206c372cad4ba5b130615b50728c37f400bcffd4dc2cd90fe0b0e7bdd803013f9c01", "522102531db3a5883f29bab4241dd0cd726936667bcda445d89bdd22244e828b6993342103148c80a5bdfddb05ff5bcffc397c8ca748d8b435ec6a175bc9d7bfc7fc6f853752ae"], "sequence": 4294967295, "scriptSig": {"hex": "220020941cfaff8837763dc1f69ff82b6d6553fdea17a41cfc29a04403293eedd8ccc7", "asm": "0020941cfaff8837763dc1f69ff82b6d6553fdea17a41cfc29a04403293eedd8ccc7"}, "vout": 1, "txid": "18f241a6f6f085886095db10a84d55c048a58d468820ed403b33e5f7775f43ff"}], "txid": "eedac19772e0925f47fbd8b16be6e45c6a5a1f2fb073d08915b55e07dd04084b", "blocktime": 1537873282, "version": 1, "confirmations": 11484, "time": 1537873282, "locktime": 0, "vsize": 208, "size": 373}