{"hash": "340dcc8af23806e135f069ef06db88476e0eecdea9e02c5f68bca6ced9f192cc", "blockhash": "0000000000000000000e13cef7c366c0283d82e591d1acd082e914b08063cdf1", "vout": [{"scriptPubKey": {"reqSigs": 1, "hex": "a914a6535100632eda868cadb2f1c0c88b1938834da487", "addresses": ["3GrTuK8Z9urfUJFtEepjtcqsQraDLGygNz"], "asm": "OP_HASH160 a6535100632eda868cadb2f1c0c88b1938834da4 OP_EQUAL", "type": "scripthash"}, "value": 0.024, "n": 0}, {"scriptPubKey": {"reqSigs": 1, "hex": "a9140b70fefc8c6cf361b8ea81baa3258b09c5521d3187", "addresses": ["32jWikpzV9KQxpp98nTZzgt8q1Fz9YVNgM"], "asm": "OP_HASH160 0b70fefc8c6cf361b8ea81baa3258b09c5521d31 OP_EQUAL", "type": "scripthash"}, "value": 0.00344696, "n": 1}], "hex": "01000000000101658d162d4eea751b54626e5baef26c302123c2d03e6b72eca071044f2a79d82700000000232200206a7d9546edfcf7aa68e580e477932edc3449c35045d3fd94044d975790c6219bffffffff02009f24000000000017a914a6535100632eda868cadb2f1c0c88b1938834da487784205000000000017a9140b70fefc8c6cf361b8ea81baa3258b09c5521d3187040047304402206462262644f7503cd6bdcd6a69ef2603e9b2957b8c26f94a0411e35430dc862b02207362c2c0e641cc45a1d543901e8ab1b4b7c93200bd19b02d09ef0ef16955fc6c014730440220744cd17567dde52824b6e255304ebd4cc513b46604b94e4b8cc4b5069223190a02205d9958e2c09f3e9db8f6ef5589d1bd64374f3d747fad6fba194d20b69754e20d0169522103b082c9cff4710becf3f4a7f1e094398a7b890ce04b140fc148a57ab56992f74221030daf8697c5bccaa52297a52140c24b82fea6a80fcfc205312172c36a231d717b2103c713b5e0087a241d9d5c2033474740c92d3a99f6bcafb9dca9a2d716a6964ff153ae00000000", "vin": [{"txinwitness": ["", "304402206462262644f7503cd6bdcd6a69ef2603e9b2957b8c26f94a0411e35430dc862b02207362c2c0e641cc45a1d543901e8ab1b4b7c93200bd19b02d09ef0ef16955fc6c01", "30440220744cd17567dde52824b6e255304ebd4cc513b46604b94e4b8cc4b5069223190a02205d9958e2c09f3e9db8f6ef5589d1bd64374f3d747fad6fba194d20b69754e20d01", "522103b082c9cff4710becf3f4a7f1e094398a7b890ce04b140fc148a57ab56992f74221030daf8697c5bccaa52297a52140c24b82fea6a80fcfc205312172c36a231d717b2103c713b5e0087a241d9d5c2033474740c92d3a99f6bcafb9dca9a2d716a6964ff153ae"], "sequence": 4294967295, "scriptSig": {"hex": "2200206a7d9546edfcf7aa68e580e477932edc3449c35045d3fd94044d975790c6219b", "asm": "00206a7d9546edfcf7aa68e580e477932edc3449c35045d3fd94044d975790c6219b"}, "vout": 0, "txid": "27d8792a4f0471a0ec726b3ed0c22321306cf2ae5b6e62541b75ea4e2d168d65"}], "txid": "eedc14c0fb2109597077865988f12f36722eb053d2dd821426100c45858c2946", "blocktime": 1537871767, "version": 1, "confirmations": 11495, "time": 1537871767, "locktime": 0, "vsize": 214, "size": 404}