{"hash": "eedf77660818ea1230391bacd4dfdd1ebf6d7d3c8ec7787216e111b22ffc1025", "blockhash": "0000000000000000001e0dab787dd257d1dbfcb92a98c2207d5e1078be1f4165", "vout": [{"scriptPubKey": {"type": "nulldata", "hex": "6a2e53711bd99af4aedac587c75fd9e996a985a8e0681fa6051949a0e350ec3a47c00b3d9bb66c2b38ac475373175c2d", "asm": "OP_RETURN 53711bd99af4aedac587c75fd9e996a985a8e0681fa6051949a0e350ec3a47c00b3d9bb66c2b38ac475373175c2d"}, "value": 0.0, "n": 0}, {"scriptPubKey": {"reqSigs": 1, "hex": "76a9149afca594e77fcbaf6dc16b190ae0426e151db54188ac", "addresses": ["1F8VikUQmEW6n8cHAwNjrNPUkuydM5Bt9m"], "asm": "OP_DUP OP_HASH160 9afca594e77fcbaf6dc16b190ae0426e151db541 OP_EQUALVERIFY OP_CHECKSIG", "type": "pubkeyhash"}, "value": 9.6e-05, "n": 1}], "hex": "0100000001e977037764d4e1f4cbf1e20543344e54cdfcf79708c901ec1d1d6dbaa6c3d486010000006b483045022100b0a8937146313d8abbc7b6f6f84a3e5f2c99a375461226b483e7276bb4261f3e02200c6b89bdf6d02a0adafa56cb6f0622173b7dbab444cfcb0c7074ecf0d7d2d654012102f2881289557966f72764bfdd23bb097321a1a703f7734badf3abe8c862f4959bffffffff020000000000000000306a2e53711bd99af4aedac587c75fd9e996a985a8e0681fa6051949a0e350ec3a47c00b3d9bb66c2b38ac475373175c2d80250000000000001976a9149afca594e77fcbaf6dc16b190ae0426e151db54188ac00000000", "vin": [{"sequence": 4294967295, "scriptSig": {"hex": "483045022100b0a8937146313d8abbc7b6f6f84a3e5f2c99a375461226b483e7276bb4261f3e02200c6b89bdf6d02a0adafa56cb6f0622173b7dbab444cfcb0c7074ecf0d7d2d654012102f2881289557966f72764bfdd23bb097321a1a703f7734badf3abe8c862f4959b", "asm": "3045022100b0a8937146313d8abbc7b6f6f84a3e5f2c99a375461226b483e7276bb4261f3e02200c6b89bdf6d02a0adafa56cb6f0622173b7dbab444cfcb0c7074ecf0d7d2d654[ALL] 02f2881289557966f72764bfdd23bb097321a1a703f7734badf3abe8c862f4959b"}, "vout": 1, "txid": "86d4c3a6ba6d1d1dec01c90897f7fccd544e344305e2f1cbf4e1d464770377e9"}], "txid": "eedf77660818ea1230391bacd4dfdd1ebf6d7d3c8ec7787216e111b22ffc1025", "blocktime": 1537872475, "version": 1, "confirmations": 11487, "time": 1537872475, "locktime": 0, "vsize": 249, "size": 249}