{"hash": "eee1243d88c5cdb535c2b89ddd6e1680bad1e1bad39e63cc034ae9268a7638a9", "blockhash": "0000000000000000001cda96e906b7601b7a6fb1a3b62bca570a9e5d8f4b3de1", "vout": [{"scriptPubKey": {"reqSigs": 1, "hex": "76a9140642cb5d4520326b82e6a6a74ce85129fd010dde88ac", "addresses": ["1a757BvdA22quicgzWbiUDr9aVmef7Ufs"], "asm": "OP_DUP OP_HASH160 0642cb5d4520326b82e6a6a74ce85129fd010dde OP_EQUALVERIFY OP_CHECKSIG", "type": "pubkeyhash"}, "value": 0.000789, "n": 0}], "hex": "0100000001a0f06b488e0fcef96c9320a987b2f60b314f5c38be935d8d100c8802562cf5b7000000006a47304402207f164ca0e50d42fd198cae1976faacae05a42a817ee44a9bb622e31d7ad73a2c02204f0bb2d763e6330332b6ef71fd149137ef20d84e8363f7f1984b6e733448dc17012103d5cc71073e4591cab8dafb3234105ef62d7b367f6e9d4f39191e3d8e4fe1e6e0ffffffff0134340100000000001976a9140642cb5d4520326b82e6a6a74ce85129fd010dde88ac00000000", "vin": [{"sequence": 4294967295, "scriptSig": {"hex": "47304402207f164ca0e50d42fd198cae1976faacae05a42a817ee44a9bb622e31d7ad73a2c02204f0bb2d763e6330332b6ef71fd149137ef20d84e8363f7f1984b6e733448dc17012103d5cc71073e4591cab8dafb3234105ef62d7b367f6e9d4f39191e3d8e4fe1e6e0", "asm": "304402207f164ca0e50d42fd198cae1976faacae05a42a817ee44a9bb622e31d7ad73a2c02204f0bb2d763e6330332b6ef71fd149137ef20d84e8363f7f1984b6e733448dc17[ALL] 03d5cc71073e4591cab8dafb3234105ef62d7b367f6e9d4f39191e3d8e4fe1e6e0"}, "vout": 0, "txid": "b7f52c5602880c108d5d93be385c4f310bf6b287a920936cf9ce0f8e486bf0a0"}], "txid": "eee1243d88c5cdb535c2b89ddd6e1680bad1e1bad39e63cc034ae9268a7638a9", "blocktime": 1537873282, "version": 1, "confirmations": 11481, "time": 1537873282, "locktime": 0, "vsize": 191, "size": 191}