{"hash": "eee22e0fd0da0927654e8a9ca10f1d857e1e22bc2352747a41be2fe8338195f6", "blockhash": "0000000000000000001e0dab787dd257d1dbfcb92a98c2207d5e1078be1f4165", "vout": [{"scriptPubKey": {"reqSigs": 1, "hex": "76a914c84992511800048538300940a9b0ca60ee76239c88ac", "addresses": ["1KG2HD1Jf4GdAbJuTLXtk3MmvzMJPyFUy5"], "asm": "OP_DUP OP_HASH160 c84992511800048538300940a9b0ca60ee76239c OP_EQUALVERIFY OP_CHECKSIG", "type": "pubkeyhash"}, "value": 0.00014962, "n": 0}, {"scriptPubKey": {"reqSigs": 1, "hex": "76a914cb148f4e2ad966fbbf8d2bcc772b64f6a1b5668388ac", "addresses": ["1KWnoTiQV93E6Ur9XqgQu1GW3FA9oK1MQd"], "asm": "OP_DUP OP_HASH160 cb148f4e2ad966fbbf8d2bcc772b64f6a1b56683 OP_EQUALVERIFY OP_CHECKSIG", "type": "pubkeyhash"}, "value": 0.00359259, "n": 1}], "hex": "01000000016c047bd11d44f361febe03869a45a5f7d9127531c12c7e6d668c9a752ca4830a000000006a473044022007b70d8c3bb614cef300e85f4e02f09cedd04f2593d6d6bbcf28cf02c944a24502201bf8ae162743c5c5e6ca4e6c17bdf9e02c72bb47854c105dffd206c9299e9aea01210225328d6f623f1b1f51141d7529e27ec70e0eff089363fbb96daeb44493471816ffffffff02723a0000000000001976a914c84992511800048538300940a9b0ca60ee76239c88ac5b7b0500000000001976a914cb148f4e2ad966fbbf8d2bcc772b64f6a1b5668388ac00000000", "vin": [{"sequence": 4294967295, "scriptSig": {"hex": "473044022007b70d8c3bb614cef300e85f4e02f09cedd04f2593d6d6bbcf28cf02c944a24502201bf8ae162743c5c5e6ca4e6c17bdf9e02c72bb47854c105dffd206c9299e9aea01210225328d6f623f1b1f51141d7529e27ec70e0eff089363fbb96daeb44493471816", "asm": "3044022007b70d8c3bb614cef300e85f4e02f09cedd04f2593d6d6bbcf28cf02c944a24502201bf8ae162743c5c5e6ca4e6c17bdf9e02c72bb47854c105dffd206c9299e9aea[ALL] 0225328d6f623f1b1f51141d7529e27ec70e0eff089363fbb96daeb44493471816"}, "vout": 0, "txid": "0a83a42c759a8c666d7e2cc1317512d9f7a5459a8603befe61f3441dd17b046c"}], "txid": "eee22e0fd0da0927654e8a9ca10f1d857e1e22bc2352747a41be2fe8338195f6", "blocktime": 1537872475, "version": 1, "confirmations": 11487, "time": 1537872475, "locktime": 0, "vsize": 225, "size": 225}