{"hash": "eeed2811bcfe2f7dd7d013c2102ee8bbdf70637137f1654b7d4d68dc368983ae", "blockhash": "0000000000000000001cda96e906b7601b7a6fb1a3b62bca570a9e5d8f4b3de1", "vout": [{"scriptPubKey": {"reqSigs": 1, "hex": "76a914b8ebcf4392e25d1181b0ce0ee7022c8a97cd1ef288ac", "addresses": ["1Hrmpdw6767cCj1csZzeoPhFZXFWBAusen"], "asm": "OP_DUP OP_HASH160 b8ebcf4392e25d1181b0ce0ee7022c8a97cd1ef2 OP_EQUALVERIFY OP_CHECKSIG", "type": "pubkeyhash"}, "value": 0.013774, "n": 0}, {"scriptPubKey": {"reqSigs": 1, "hex": "76a91493447670c5ae2888d3a547c0c2256e5a7f9e3aab88ac", "addresses": ["1ERgM4wd876BVyX4tTsQvtGxtAa3kKPWoz"], "asm": "OP_DUP OP_HASH160 93447670c5ae2888d3a547c0c2256e5a7f9e3aab OP_EQUALVERIFY OP_CHECKSIG", "type": "pubkeyhash"}, "value": 0.014, "n": 1}], "hex": "01000000012d1d07e57385ef58a1577b4ab0b85b9ae49b7ac65cf78b2996d628bdbf6852e4020000006b483045022100d8a8ca31b4f058dee339cc8866e0d7a9ed4c9c138b921cc52980e66906dd6aac0220111292ee7ab14b949045cae8aa0b8039227ba7202ab6e3250970b8c5f575a6f5012102fc49a84f4b4005f9167b7bbc4c5814c0892cdb4ff2b88dbdd2e7215c845f07a2fdffffff0278041500000000001976a914b8ebcf4392e25d1181b0ce0ee7022c8a97cd1ef288acc05c1500000000001976a91493447670c5ae2888d3a547c0c2256e5a7f9e3aab88ac13490800", "vin": [{"sequence": 4294967293, "scriptSig": {"hex": "483045022100d8a8ca31b4f058dee339cc8866e0d7a9ed4c9c138b921cc52980e66906dd6aac0220111292ee7ab14b949045cae8aa0b8039227ba7202ab6e3250970b8c5f575a6f5012102fc49a84f4b4005f9167b7bbc4c5814c0892cdb4ff2b88dbdd2e7215c845f07a2", "asm": "3045022100d8a8ca31b4f058dee339cc8866e0d7a9ed4c9c138b921cc52980e66906dd6aac0220111292ee7ab14b949045cae8aa0b8039227ba7202ab6e3250970b8c5f575a6f5[ALL] 02fc49a84f4b4005f9167b7bbc4c5814c0892cdb4ff2b88dbdd2e7215c845f07a2"}, "vout": 2, "txid": "e45268bfbd28d696298bf75cc67a9be49a5bb8b04a7b57a158ef8573e5071d2d"}], "txid": "eeed2811bcfe2f7dd7d013c2102ee8bbdf70637137f1654b7d4d68dc368983ae", "blocktime": 1537873282, "version": 1, "confirmations": 11480, "time": 1537873282, "locktime": 542995, "vsize": 226, "size": 226}