{"hash": "eeed443ec114def94ff5d00f08bd58d6ef5b409f552b94797e9ba9697b832495", "blockhash": "00000000000000000017f5eb5941039fbcee6240d03bc1f2f8e35350df66a1d8", "vout": [{"scriptPubKey": {"reqSigs": 1, "hex": "76a914d09c099b54ccf2812f376f77e3fc17b203398c8888ac", "addresses": ["1L22UaXq7vq5Dnff29czy4vfxD4znuiPxs"], "asm": "OP_DUP OP_HASH160 d09c099b54ccf2812f376f77e3fc17b203398c88 OP_EQUALVERIFY OP_CHECKSIG", "type": "pubkeyhash"}, "value": 0.003104, "n": 0}, {"scriptPubKey": {"reqSigs": 1, "hex": "76a91408371509002474aaa0aead0ec8b8b2d5a481178e88ac", "addresses": ["1kSPiEAu5VKqoeNJ9m6TkVoGfXVj4g4iN"], "asm": "OP_DUP OP_HASH160 08371509002474aaa0aead0ec8b8b2d5a481178e OP_EQUALVERIFY OP_CHECKSIG", "type": "pubkeyhash"}, "value": 0.00438991, "n": 1}], "hex": "010000000102b8bb266eefe6bd873cd283ed33ced1210c1032c9b8d2df47a635c5e9c75e00010000006b483045022100957b9ec18da71f6262b0e8c62011dc244d7887d3ede9aaceec3f8569666720dc022059dce9c32858ca1c970437499c9c4110d7a46dc5b50ff869053d61bd678fafc5012102906d8911e83f9804c4c8af992de0d0a0224d8a6729b28b2c19cb3209868f011fffffffff0280bc0400000000001976a914d09c099b54ccf2812f376f77e3fc17b203398c8888accfb20600000000001976a91408371509002474aaa0aead0ec8b8b2d5a481178e88ac00000000", "vin": [{"sequence": 4294967295, "scriptSig": {"hex": "483045022100957b9ec18da71f6262b0e8c62011dc244d7887d3ede9aaceec3f8569666720dc022059dce9c32858ca1c970437499c9c4110d7a46dc5b50ff869053d61bd678fafc5012102906d8911e83f9804c4c8af992de0d0a0224d8a6729b28b2c19cb3209868f011f", "asm": "3045022100957b9ec18da71f6262b0e8c62011dc244d7887d3ede9aaceec3f8569666720dc022059dce9c32858ca1c970437499c9c4110d7a46dc5b50ff869053d61bd678fafc5[ALL] 02906d8911e83f9804c4c8af992de0d0a0224d8a6729b28b2c19cb3209868f011f"}, "vout": 1, "txid": "005ec7e9c535a647dfd2b8c932100c21d1ce33ed83d23c87bde6ef6e26bbb802"}], "txid": "eeed443ec114def94ff5d00f08bd58d6ef5b409f552b94797e9ba9697b832495", "blocktime": 1537874412, "version": 1, "confirmations": 11467, "time": 1537874412, "locktime": 0, "vsize": 226, "size": 226}