{"hash": "eef09b56e95c048b64443b06bebcb43eada161ded98b47032a29cfcb1c5818bc", "blockhash": "0000000000000000001cda96e906b7601b7a6fb1a3b62bca570a9e5d8f4b3de1", "vout": [{"scriptPubKey": {"reqSigs": 1, "hex": "76a91407a65ebd8ac22421127fd5263422fec4dab716f688ac", "addresses": ["1hT2wSTd44X4MR2ugawL2n1GTM32aJP6R"], "asm": "OP_DUP OP_HASH160 07a65ebd8ac22421127fd5263422fec4dab716f6 OP_EQUALVERIFY OP_CHECKSIG", "type": "pubkeyhash"}, "value": 0.0006418, "n": 0}, {"scriptPubKey": {"type": "nulldata", "hex": "6a4c50000077d100018db13301a1b9b350ec67fd425b23cc0f42c2fc38c5e5bf9ae76da98a211a3cc616770e89ddbb7fc9a7f4c6f763565baa14480613be1a3ec7129ebc9a9526289ac0f6612cd74e33776ee4", "asm": "OP_RETURN 000077d100018db13301a1b9b350ec67fd425b23cc0f42c2fc38c5e5bf9ae76da98a211a3cc616770e89ddbb7fc9a7f4c6f763565baa14480613be1a3ec7129ebc9a9526289ac0f6612cd74e33776ee4"}, "value": 0.0, "n": 1}], "hex": "0100000001604a87232ca34eafeb27e16fe22c70ce1221f7d08561185128cd18247d0311a6000000006b483045022100a4ec32e047a34d307f4046f458a7085e8c8ed75c66b53a3829e463a1ad58885502202cc7fa931bf0a97ea909428a197173bd3a3cd75b2d7a5603a9a1e370e755f8d00121031e0d99638c881d6d376a933d1acd46324d8d0c484bc73e5ec6efe4ca22688ae6ffffffff02b4fa0000000000001976a91407a65ebd8ac22421127fd5263422fec4dab716f688ac0000000000000000536a4c50000077d100018db13301a1b9b350ec67fd425b23cc0f42c2fc38c5e5bf9ae76da98a211a3cc616770e89ddbb7fc9a7f4c6f763565baa14480613be1a3ec7129ebc9a9526289ac0f6612cd74e33776ee400000000", "vin": [{"sequence": 4294967295, "scriptSig": {"hex": "483045022100a4ec32e047a34d307f4046f458a7085e8c8ed75c66b53a3829e463a1ad58885502202cc7fa931bf0a97ea909428a197173bd3a3cd75b2d7a5603a9a1e370e755f8d00121031e0d99638c881d6d376a933d1acd46324d8d0c484bc73e5ec6efe4ca22688ae6", "asm": "3045022100a4ec32e047a34d307f4046f458a7085e8c8ed75c66b53a3829e463a1ad58885502202cc7fa931bf0a97ea909428a197173bd3a3cd75b2d7a5603a9a1e370e755f8d0[ALL] 031e0d99638c881d6d376a933d1acd46324d8d0c484bc73e5ec6efe4ca22688ae6"}, "vout": 0, "txid": "a611037d2418cd2851186185d0f72112ce702ce26fe127ebaf4ea32c23874a60"}], "txid": "eef09b56e95c048b64443b06bebcb43eada161ded98b47032a29cfcb1c5818bc", "blocktime": 1537873282, "version": 1, "confirmations": 11484, "time": 1537873282, "locktime": 0, "vsize": 284, "size": 284}