{"hash": "0dc6c43221cee3d96efe340ea89f6607ab6b3c893d76f10bde10e0cbcdbff107", "blockhash": "00000000000000000004ffacab907a6b429b9a5745fa0b75af4234bf69dd7176", "vout": [{"scriptPubKey": {"reqSigs": 1, "hex": "a914c722cc6e26632f0ef2efe3910b7abd5734df5aab87", "addresses": ["3Kqx5ZfiMgraW8T8LcfAw7WhEAb89ta1DL"], "asm": "OP_HASH160 c722cc6e26632f0ef2efe3910b7abd5734df5aab OP_EQUAL", "type": "scripthash"}, "value": 57.59162479, "n": 0}, {"scriptPubKey": {"reqSigs": 1, "hex": "76a914ce8b743374ee2f3fb40b32b50787e73f98ccf69f88ac", "addresses": ["1Kq7Fwng8iQ8nqzWuYiTo1BMa5398AhxKD"], "asm": "OP_DUP OP_HASH160 ce8b743374ee2f3fb40b32b50787e73f98ccf69f OP_EQUALVERIFY OP_CHECKSIG", "type": "pubkeyhash"}, "value": 0.03441552, "n": 1}], "hex": "020000000001016e9fb59d1115e346e25d6200baa41a1b667d5239507b723598dd1a4bf4738e5d000000001716001493f133aa940f53fd04854f1031ed3e9172d3f823feffffff026fd845570100000017a914c722cc6e26632f0ef2efe3910b7abd5734df5aab8790833400000000001976a914ce8b743374ee2f3fb40b32b50787e73f98ccf69f88ac0248304502210099c5943237e75966ddac268b9347793c92b3ab2171ca94bd754d70507ccad25102202ce539781268b544c0eb58c7e184d8c5190dc44d170ab53a0f73ec9f3de60f150121030f15670dee545633323be5346cc92ca9dbe8bdbc57f48729b57b075775412f7516490800", "vin": [{"txinwitness": ["304502210099c5943237e75966ddac268b9347793c92b3ab2171ca94bd754d70507ccad25102202ce539781268b544c0eb58c7e184d8c5190dc44d170ab53a0f73ec9f3de60f1501", "030f15670dee545633323be5346cc92ca9dbe8bdbc57f48729b57b075775412f75"], "sequence": 4294967294, "scriptSig": {"hex": "16001493f133aa940f53fd04854f1031ed3e9172d3f823", "asm": "001493f133aa940f53fd04854f1031ed3e9172d3f823"}, "vout": 0, "txid": "5d8e73f44b1add9835727b5039527d661b1aa4ba00625de246e315119db59f6e"}], "txid": "eef270da04d86b05e550a1d5337c622051e41f1dcd274981e94680cb78020058", "blocktime": 1537875543, "version": 2, "confirmations": 11464, "time": 1537875543, "locktime": 542998, "vsize": 168, "size": 250}