{"hash": "eef4d35d9dae1f8728cbcb48626b2bd52dd7e3ff4aeabce6f86403a98b6add42", "blockhash": "000000000000000000022b45ed06c6f4ccd3cf7fb5ba4856ebd2e58215665228", "vout": [{"scriptPubKey": {"reqSigs": 1, "hex": "76a91462af208ccf8979b3601a5e3aa9cbeba64229ce3688ac", "addresses": ["19zo1r8G9pcnR4C4sUt1peMumLGvG9odc2"], "asm": "OP_DUP OP_HASH160 62af208ccf8979b3601a5e3aa9cbeba64229ce36 OP_EQUALVERIFY OP_CHECKSIG", "type": "pubkeyhash"}, "value": 0.0077975, "n": 0}, {"scriptPubKey": {"reqSigs": 1, "hex": "76a914a68e7c6bba52e0a244ebd54d9b6635237ef9873388ac", "addresses": ["1GBfrwsLBiqhuBQK2ap2WZjwrBsBLfHdau"], "asm": "OP_DUP OP_HASH160 a68e7c6bba52e0a244ebd54d9b6635237ef98733 OP_EQUALVERIFY OP_CHECKSIG", "type": "pubkeyhash"}, "value": 0.03400921, "n": 1}], "hex": "01000000012fed3b25ae8eeb54cbc4eedb7d8f9521699335a4e9302a8697d924aa368db71b010000006a473044022055df7089554ff414ad9d652ada7e18dfcddda439326f165fbead4ccc490c18f602203d2692b2b0c7247624dc9e2a9023dd1ac76333ebc8840c0a40df9e3698f786980121022ed05ebbb499749a34ee940ed379a1a26e6adbbd9c99db2aeee93f051cee5a0effffffff02e6e50b00000000001976a91462af208ccf8979b3601a5e3aa9cbeba64229ce3688acd9e43300000000001976a914a68e7c6bba52e0a244ebd54d9b6635237ef9873388ac00000000", "vin": [{"sequence": 4294967295, "scriptSig": {"hex": "473044022055df7089554ff414ad9d652ada7e18dfcddda439326f165fbead4ccc490c18f602203d2692b2b0c7247624dc9e2a9023dd1ac76333ebc8840c0a40df9e3698f786980121022ed05ebbb499749a34ee940ed379a1a26e6adbbd9c99db2aeee93f051cee5a0e", "asm": "3044022055df7089554ff414ad9d652ada7e18dfcddda439326f165fbead4ccc490c18f602203d2692b2b0c7247624dc9e2a9023dd1ac76333ebc8840c0a40df9e3698f78698[ALL] 022ed05ebbb499749a34ee940ed379a1a26e6adbbd9c99db2aeee93f051cee5a0e"}, "vout": 1, "txid": "1bb78d36aa24d997862a30e9a435936921958f7ddbeec4cb54eb8eae253bed2f"}], "txid": "eef4d35d9dae1f8728cbcb48626b2bd52dd7e3ff4aeabce6f86403a98b6add42", "blocktime": 1537869901, "version": 1, "confirmations": 11522, "time": 1537869901, "locktime": 0, "vsize": 225, "size": 225}