{"hash": "4725fd2048d990f4523cdf71740dba344917c97006796962ac804457342b68ba", "blockhash": "0000000000000000001f76057863aec43deb6fa401d9628bb513d65a8098bfab", "vout": [{"scriptPubKey": {"reqSigs": 1, "hex": "a914c6d095a7e950000707f0c889a02ceb59f28c70e087", "addresses": ["3KpFbEkD4mFoBMiXzgmJwJM6h3eGYGdfhm"], "asm": "OP_HASH160 c6d095a7e950000707f0c889a02ceb59f28c70e0 OP_EQUAL", "type": "scripthash"}, "value": 0.001, "n": 0}, {"scriptPubKey": {"reqSigs": 1, "hex": "a9149649ad6d2730bb28020a268d9d80df10a9f74ad487", "addresses": ["3FPfYWwfMfKMGY7fuPHvz2b73RhTNGzsm3"], "asm": "OP_HASH160 9649ad6d2730bb28020a268d9d80df10a9f74ad4 OP_EQUAL", "type": "scripthash"}, "value": 13.823683, "n": 1}], "hex": "0100000000010175b5dd9533832d64e5fe3459cd3509ed6d53ecdac274bf6ce1d403a838fdedd401000000232200207768efcc1e5eb3d28410fac3f45831004c860cc24cddd940a616b34324823fceffffffff02a08601000000000017a914c6d095a7e950000707f0c889a02ceb59f28c70e0872c4465520000000017a9149649ad6d2730bb28020a268d9d80df10a9f74ad4870400483045022100eb512b021e78e12bf713123a5b69aa8f58eeebcacc5ca4b50e1353ce99b675f20220109a8764df3975c187e2c9395af330d8b892f18bd16f545081fe8d6ac3f5f0970147304402205ab9d32173706d0a58b3bf95cf61be5b5f4a2ead2bddd4e8189b2a79b692a24b022005c1a06fcc4c22e07aafc4b81ba2578f6a99cd8b49fad810950fa488d4413ae10147522102529d5d1f6733ab45d9d50e07db42c7f6b967ae321c38b726c2247f149959b8262103d0c936a5988dd8421c63240496b723b0ec42400c38b9350e32c2eb4f47d8796952ae00000000", "vin": [{"txinwitness": ["", "3045022100eb512b021e78e12bf713123a5b69aa8f58eeebcacc5ca4b50e1353ce99b675f20220109a8764df3975c187e2c9395af330d8b892f18bd16f545081fe8d6ac3f5f09701", "304402205ab9d32173706d0a58b3bf95cf61be5b5f4a2ead2bddd4e8189b2a79b692a24b022005c1a06fcc4c22e07aafc4b81ba2578f6a99cd8b49fad810950fa488d4413ae101", "522102529d5d1f6733ab45d9d50e07db42c7f6b967ae321c38b726c2247f149959b8262103d0c936a5988dd8421c63240496b723b0ec42400c38b9350e32c2eb4f47d8796952ae"], "sequence": 4294967295, "scriptSig": {"hex": "2200207768efcc1e5eb3d28410fac3f45831004c860cc24cddd940a616b34324823fce", "asm": "00207768efcc1e5eb3d28410fac3f45831004c860cc24cddd940a616b34324823fce"}, "vout": 1, "txid": "d4edfd38a803d4e16cbf74c2daec536ded0935cd5934fee5642d833395ddb575"}], "txid": "eef8f62f6f507adc5a4a58dd19f556d783961efcafa696d8fbfc8b905edfd69f", "blocktime": 1537873891, "version": 1, "confirmations": 11478, "time": 1537873891, "locktime": 0, "vsize": 206, "size": 371}