{"hash": "eefa5fab64144bf6b7b1c3c43b2d37b6e4f6802f4a5572d5d1fd5a7406011fb8", "blockhash": "0000000000000000001cda96e906b7601b7a6fb1a3b62bca570a9e5d8f4b3de1", "vout": [{"scriptPubKey": {"reqSigs": 1, "hex": "a914688feec762d376a9ca1d4b9d2be47db7611e69fe87", "addresses": ["3BDtd7eqbk4UDpQe1zt6X9xJcc6WeFTvM9"], "asm": "OP_HASH160 688feec762d376a9ca1d4b9d2be47db7611e69fe OP_EQUAL", "type": "scripthash"}, "value": 0.00486614, "n": 0}, {"scriptPubKey": {"reqSigs": 1, "hex": "76a914a3699ea2e75dea7dbe52bc923ed6bd2def966fa688ac", "addresses": ["1Fu3frQpM5hjoeP8Pv3UbMyCx2TZU2cyRc"], "asm": "OP_DUP OP_HASH160 a3699ea2e75dea7dbe52bc923ed6bd2def966fa6 OP_EQUALVERIFY OP_CHECKSIG", "type": "pubkeyhash"}, "value": 0.03079719, "n": 1}], "hex": "010000000165eda1adda43f76f29cf72815473370b280814a04d91f150ac442466d65329e5010000006a47304402207031b033f501d667622d93b875c37294ac73991f6e558ace2f68b5e53a83ec6102205ab008ea2b348fc947f61d965219a4a8230f4167878a82c9a5626e777b32b6e8012102c2316bd9d21be4f35e17b986cfd7c7c01eeb242ec4ff8adac863beb0ee944270ffffffff02d66c07000000000017a914688feec762d376a9ca1d4b9d2be47db7611e69fe8727fe2e00000000001976a914a3699ea2e75dea7dbe52bc923ed6bd2def966fa688ac00000000", "vin": [{"sequence": 4294967295, "scriptSig": {"hex": "47304402207031b033f501d667622d93b875c37294ac73991f6e558ace2f68b5e53a83ec6102205ab008ea2b348fc947f61d965219a4a8230f4167878a82c9a5626e777b32b6e8012102c2316bd9d21be4f35e17b986cfd7c7c01eeb242ec4ff8adac863beb0ee944270", "asm": "304402207031b033f501d667622d93b875c37294ac73991f6e558ace2f68b5e53a83ec6102205ab008ea2b348fc947f61d965219a4a8230f4167878a82c9a5626e777b32b6e8[ALL] 02c2316bd9d21be4f35e17b986cfd7c7c01eeb242ec4ff8adac863beb0ee944270"}, "vout": 1, "txid": "e52953d6662444ac50f1914da01408280b3773548172cf296ff743daada1ed65"}], "txid": "eefa5fab64144bf6b7b1c3c43b2d37b6e4f6802f4a5572d5d1fd5a7406011fb8", "blocktime": 1537873282, "version": 1, "confirmations": 11482, "time": 1537873282, "locktime": 0, "vsize": 223, "size": 223}