{"hash": "d6a7fd0effa0c22e76925c7cf3d12325cfbfc62bd0a90b181f098b6867b83e95", "blockhash": "000000000000000000022b45ed06c6f4ccd3cf7fb5ba4856ebd2e58215665228", "vout": [{"scriptPubKey": {"reqSigs": 1, "hex": "76a914241385d8ab187b4e997301b1ef450fcdc957ae2288ac", "addresses": ["14HkiNqFyqfV5Dqd3yhaHMhfctdtdjQLuV"], "asm": "OP_DUP OP_HASH160 241385d8ab187b4e997301b1ef450fcdc957ae22 OP_EQUALVERIFY OP_CHECKSIG", "type": "pubkeyhash"}, "value": 0.05642, "n": 0}, {"scriptPubKey": {"reqSigs": 1, "hex": "a9142374a6e38517aeb910efb0a12a483b89ba9d99d087", "addresses": ["34vVKNgGtgu8P7X4FoJVNNrfHQ9iG6zqWF"], "asm": "OP_HASH160 2374a6e38517aeb910efb0a12a483b89ba9d99d0 OP_EQUAL", "type": "scripthash"}, "value": 8.32e-06, "n": 1}], "hex": "010000000001058d8787006e98992bdc6dd63fd61b3ce12ab06932b73bbe1d3a9cea0ce4d5eed6000000001716001497e4619c4579510ec86ec061500cf74158dec9f3ffffff000e14ddbc0db9724aaa13c04beae73380494f33dc5c78037bf029d5ad4479972fb300000017160014139c0ba04e94fc6d398acd430a9fc5df64d0df7effffff00aa9d3540f5194953d1e7611a32abffcae2668dc7895dd0caea616ddfd2076971c900000017160014139c0ba04e94fc6d398acd430a9fc5df64d0df7effffff008bfbecc0a4f6450112d2d72bd6f9cdf19a385d8fa1dd8632c11a706b49f9e0a701000000171600148718dc3afe075887e27df72bcf87f182a616b664ffffff005d500b81072d828b3e8679e89099ca64f4286111edd7f47f90bb2e06f9fd459cbb00000017160014139c0ba04e94fc6d398acd430a9fc5df64d0df7effffff000210175600000000001976a914241385d8ab187b4e997301b1ef450fcdc957ae2288ac400300000000000017a9142374a6e38517aeb910efb0a12a483b89ba9d99d087024830450221009c1e5dedfd25f82b9a4e52250546924efdd4facd58e2c880c1954e2fba66495d022002856c1bdd0e2fce037586762388fbb8bb31c3b6b9190817aeb3c759cac998f20121031a2ae4ba96923b6a5c798a26e04b7619e4908d9d2444c9227c31d858376f2db302483045022100de0063acb9f9cd0da2744a5a4326f026fdad7509cfda760dfcde2774005d70c502200f53332cb274f6b4ff7acdc53da708f0167a2ddebadee271f7c12ae6c1e0ff240121033e2a9a72f16efd1573835c804d83e50c9a12d882183138f68beaf975ef4a4f2a0247304402205d2ee4211915e1828cd33a2fe4324e0199f72d11d4f4328fd743b2fc0ce56e1b02204c5a78e039cb78f00e1f6031b7f27622b03b22c375a8a70a27c3eab2cab4ef4f0121033e2a9a72f16efd1573835c804d83e50c9a12d882183138f68beaf975ef4a4f2a024730440220068bb60e5b73fc23a864cbc37333da34c074495ce0db19794bc75c1d312174e202201832956203fd115fd83f1e6098c6ec47d0c4cedbfac8cab6219e94fafbbd6bf0012102db77875c3f633613e8a1f2c6704b3c5efa9cbf22a0ec3a892bc900b448274c0c02483045022100ecf42c52712f2344426516a39df80e9d94de35e0bee5ccfab722f7f97bcc58230220153095248c3a9278985f7ab224c3aac0ea51c149788d0d62b5989ba35d903a990121033e2a9a72f16efd1573835c804d83e50c9a12d882183138f68beaf975ef4a4f2a00000000", "vin": [{"txinwitness": ["30450221009c1e5dedfd25f82b9a4e52250546924efdd4facd58e2c880c1954e2fba66495d022002856c1bdd0e2fce037586762388fbb8bb31c3b6b9190817aeb3c759cac998f201", "031a2ae4ba96923b6a5c798a26e04b7619e4908d9d2444c9227c31d858376f2db3"], "sequence": 16777215, "scriptSig": {"hex": "16001497e4619c4579510ec86ec061500cf74158dec9f3", "asm": "001497e4619c4579510ec86ec061500cf74158dec9f3"}, "vout": 0, "txid": "d6eed5e40cea9c3a1dbe3bb73269b02ae13c1bd63fd66ddc2b99986e0087878d"}, {"txinwitness": ["3045022100de0063acb9f9cd0da2744a5a4326f026fdad7509cfda760dfcde2774005d70c502200f53332cb274f6b4ff7acdc53da708f0167a2ddebadee271f7c12ae6c1e0ff2401", "033e2a9a72f16efd1573835c804d83e50c9a12d882183138f68beaf975ef4a4f2a"], "sequence": 16777215, "scriptSig": {"hex": "160014139c0ba04e94fc6d398acd430a9fc5df64d0df7e", "asm": "0014139c0ba04e94fc6d398acd430a9fc5df64d0df7e"}, "vout": 179, "txid": "2f977944add529f07b03785cdc334f498033e7ea4bc013aa4a72b90dbcdd140e"}, {"txinwitness": ["304402205d2ee4211915e1828cd33a2fe4324e0199f72d11d4f4328fd743b2fc0ce56e1b02204c5a78e039cb78f00e1f6031b7f27622b03b22c375a8a70a27c3eab2cab4ef4f01", "033e2a9a72f16efd1573835c804d83e50c9a12d882183138f68beaf975ef4a4f2a"], "sequence": 16777215, "scriptSig": {"hex": "160014139c0ba04e94fc6d398acd430a9fc5df64d0df7e", "asm": "0014139c0ba04e94fc6d398acd430a9fc5df64d0df7e"}, "vout": 201, "txid": "716907d2df6d61eacad05d89c78d66e2caffab321a61e7d1534919f540359daa"}, {"txinwitness": ["30440220068bb60e5b73fc23a864cbc37333da34c074495ce0db19794bc75c1d312174e202201832956203fd115fd83f1e6098c6ec47d0c4cedbfac8cab6219e94fafbbd6bf001", "02db77875c3f633613e8a1f2c6704b3c5efa9cbf22a0ec3a892bc900b448274c0c"], "sequence": 16777215, "scriptSig": {"hex": "1600148718dc3afe075887e27df72bcf87f182a616b664", "asm": "00148718dc3afe075887e27df72bcf87f182a616b664"}, "vout": 1, "txid": "a7e0f9496b701ac13286dda18f5d389af1cdf9d62bd7d2120145f6a4c0ecfb8b"}, {"txinwitness": ["3045022100ecf42c52712f2344426516a39df80e9d94de35e0bee5ccfab722f7f97bcc58230220153095248c3a9278985f7ab224c3aac0ea51c149788d0d62b5989ba35d903a9901", "033e2a9a72f16efd1573835c804d83e50c9a12d882183138f68beaf975ef4a4f2a"], "sequence": 16777215, "scriptSig": {"hex": "160014139c0ba04e94fc6d398acd430a9fc5df64d0df7e", "asm": "0014139c0ba04e94fc6d398acd430a9fc5df64d0df7e"}, "vout": 187, "txid": "9c45fdf9062ebb907ff4d7ed116128f464ca9990e879863e8b822d07810b505d"}], "txid": "eefdfa7189e50fce82158dbcbaa092ffe39e39c39421835db49ed79808f066f0", "blocktime": 1537869901, "version": 1, "confirmations": 11524, "time": 1537869901, "locktime": 0, "vsize": 531, "size": 936}