{"hash": "b7e3c5e9ba46ee010b3c4a63102b65ab0c9ec9afdbd1321de70dc14186dc2ec5", "blockhash": "00000000000000000024a2167bbff67b0be802c0b01cdd79e6331c2be6459f87", "vout": [{"scriptPubKey": {"reqSigs": 1, "hex": "a9146555add7f439921fb0636df7439013fcf76eb0ad87", "addresses": ["3Avpp1FpbTUQ1evKVPo9TXyjVEBtALAS6Z"], "asm": "OP_HASH160 6555add7f439921fb0636df7439013fcf76eb0ad OP_EQUAL", "type": "scripthash"}, "value": 0.02071424, "n": 0}, {"scriptPubKey": {"reqSigs": 1, "hex": "a9144643de6d35b495c54c2196e45a9c07ed4dc06b6b87", "addresses": ["386YXajrtFHyFpK56H1S3cZbLhNUypdh1F"], "asm": "OP_HASH160 4643de6d35b495c54c2196e45a9c07ed4dc06b6b OP_EQUAL", "type": "scripthash"}, "value": 0.012, "n": 1}], "hex": "02000000000101cb82c6ddc23a6692ebc4baa805ded95d603b5308b3b9e0f76b057175d3c8777f0000000017160014be50631777f6924b932a51675f6f1acbee055b23fdffffff02809b1f000000000017a9146555add7f439921fb0636df7439013fcf76eb0ad87804f12000000000017a9144643de6d35b495c54c2196e45a9c07ed4dc06b6b8702473044022067df15fce451bf56787efff4d990f91e4b48ae9cd0c9b407e033bcf9dcc20ab702201a47422998a39ce0eddd6d7eb52176936374870d1b7d964534f407c7842b81e6012102f9c1574c8078ef9125e997618a81b7a58bf858b3bda655cc3897e57715601a350c490800", "vin": [{"txinwitness": ["3044022067df15fce451bf56787efff4d990f91e4b48ae9cd0c9b407e033bcf9dcc20ab702201a47422998a39ce0eddd6d7eb52176936374870d1b7d964534f407c7842b81e601", "02f9c1574c8078ef9125e997618a81b7a58bf858b3bda655cc3897e57715601a35"], "sequence": 4294967293, "scriptSig": {"hex": "160014be50631777f6924b932a51675f6f1acbee055b23", "asm": "0014be50631777f6924b932a51675f6f1acbee055b23"}, "vout": 0, "txid": "7f77c8d37571056bf7e0b9b308533b605dd9de05a8bac4eb92663ac2ddc682cb"}], "txid": "eefddedf8293d570be765a6fcfd0239196dc3d386f0231acefc0c4bf72d0613f", "blocktime": 1537870564, "version": 2, "confirmations": 11515, "time": 1537870564, "locktime": 542988, "vsize": 166, "size": 247}