{"hash": "eeff7d604a157408f54d1e3e0f2213f30d0dd82e850dc4c61629abef30be3e34", "blockhash": "0000000000000000000e13cef7c366c0283d82e591d1acd082e914b08063cdf1", "vout": [{"scriptPubKey": {"reqSigs": 1, "hex": "76a91414f2aecc3caed8eb7a1500ae714f6a1b98d2ac2188ac", "addresses": ["12umEjYGaDVkWqRisWyHMmJzdiigBbNfHp"], "asm": "OP_DUP OP_HASH160 14f2aecc3caed8eb7a1500ae714f6a1b98d2ac21 OP_EQUALVERIFY OP_CHECKSIG", "type": "pubkeyhash"}, "value": 0.04802293, "n": 0}, {"scriptPubKey": {"reqSigs": 1, "hex": "76a914a3d1e1696664b97d59f97608d39227c90ed1cbe388ac", "addresses": ["1FwCa2HYnMbBt96ZckrsJ9oF479QNPChyQ"], "asm": "OP_DUP OP_HASH160 a3d1e1696664b97d59f97608d39227c90ed1cbe3 OP_EQUALVERIFY OP_CHECKSIG", "type": "pubkeyhash"}, "value": 4.45, "n": 1}], "hex": "010000000442a0051795e2889193c878b388e535136c9446d0cee4a05219723946ab54a53e010000006a47304402200bbe5f68e1b556304987d75290130feef5e7eaf0ce8fcfd1fb7d922713af51ab022017e80efb91c17bd66c1065b8d2b45623996dfbf28ee50981b2ab6419907b7b3901210277dc654789aecdd08c974ef0e1ae7243859a9796f7ba0f146165185f1d667f08ffffffff58d332986ae5f60a5da140929514f05f04a837f671713ca871910b45de05d981010000006a4730440220481744051dfd8dd7d8f81e8511af945cf9eab7794fb41c2da7c7fe84d93676fa02204c0491e91fb6eeea41d58489c0212b63b7e95c1baf74176c182b9d1671603ba8012102250046c3c1ba8fb43fc49acdf0e83b7ec8f0d4f4569d1781adb06492f129ea81fffffffff550ca925bb557dc71bc353e476aaae2d20fd933c8571ea31bc74f8e99547589010000006b483045022100e9e1205b5db26434ed8fb77816e628919bd888a131593a2985ab0e22656ce32a0220256d2c22355a3072cd5e8ae6bee2bfd70cb61955e2cc29244732c40e865b862a01210294975c800a13cd92b48fd4f04152f6b13f80ae01fad7a5889759aed9943684f8ffffffffa981d3fe630101b0972a19f2505a67b7e199d5021eef2d7bdc020201a0f45fae060000006b483045022100f03d1121ea22b222f827d5a2aca1892a890dec138260adea3e2dae0b7fb9243e0220518dae2991814c14a71d6513f1b5fdea53590fcae69564bebee090321c0eb4690121026c4884ff548905ee30ee833433b4e6bcc5069672ebc4a12690ae2b61556c5039ffffffff02f5464900000000001976a91414f2aecc3caed8eb7a1500ae714f6a1b98d2ac2188ac4029861a000000001976a914a3d1e1696664b97d59f97608d39227c90ed1cbe388ac00000000", "vin": [{"sequence": 4294967295, "scriptSig": {"hex": "47304402200bbe5f68e1b556304987d75290130feef5e7eaf0ce8fcfd1fb7d922713af51ab022017e80efb91c17bd66c1065b8d2b45623996dfbf28ee50981b2ab6419907b7b3901210277dc654789aecdd08c974ef0e1ae7243859a9796f7ba0f146165185f1d667f08", "asm": "304402200bbe5f68e1b556304987d75290130feef5e7eaf0ce8fcfd1fb7d922713af51ab022017e80efb91c17bd66c1065b8d2b45623996dfbf28ee50981b2ab6419907b7b39[ALL] 0277dc654789aecdd08c974ef0e1ae7243859a9796f7ba0f146165185f1d667f08"}, "vout": 1, "txid": "3ea554ab4639721952a0e4ced046946c1335e588b378c8939188e2951705a042"}, {"sequence": 4294967295, "scriptSig": {"hex": "4730440220481744051dfd8dd7d8f81e8511af945cf9eab7794fb41c2da7c7fe84d93676fa02204c0491e91fb6eeea41d58489c0212b63b7e95c1baf74176c182b9d1671603ba8012102250046c3c1ba8fb43fc49acdf0e83b7ec8f0d4f4569d1781adb06492f129ea81", "asm": "30440220481744051dfd8dd7d8f81e8511af945cf9eab7794fb41c2da7c7fe84d93676fa02204c0491e91fb6eeea41d58489c0212b63b7e95c1baf74176c182b9d1671603ba8[ALL] 02250046c3c1ba8fb43fc49acdf0e83b7ec8f0d4f4569d1781adb06492f129ea81"}, "vout": 1, "txid": "81d905de450b9171a83c7171f637a8045ff014959240a15d0af6e56a9832d358"}, {"sequence": 4294967295, "scriptSig": {"hex": "483045022100e9e1205b5db26434ed8fb77816e628919bd888a131593a2985ab0e22656ce32a0220256d2c22355a3072cd5e8ae6bee2bfd70cb61955e2cc29244732c40e865b862a01210294975c800a13cd92b48fd4f04152f6b13f80ae01fad7a5889759aed9943684f8", "asm": "3045022100e9e1205b5db26434ed8fb77816e628919bd888a131593a2985ab0e22656ce32a0220256d2c22355a3072cd5e8ae6bee2bfd70cb61955e2cc29244732c40e865b862a[ALL] 0294975c800a13cd92b48fd4f04152f6b13f80ae01fad7a5889759aed9943684f8"}, "vout": 1, "txid": "897554998e4fc71ba31e57c833d90fd2e2aa6a473e35bc71dc57b55b92ca50f5"}, {"sequence": 4294967295, "scriptSig": {"hex": "483045022100f03d1121ea22b222f827d5a2aca1892a890dec138260adea3e2dae0b7fb9243e0220518dae2991814c14a71d6513f1b5fdea53590fcae69564bebee090321c0eb4690121026c4884ff548905ee30ee833433b4e6bcc5069672ebc4a12690ae2b61556c5039", "asm": "3045022100f03d1121ea22b222f827d5a2aca1892a890dec138260adea3e2dae0b7fb9243e0220518dae2991814c14a71d6513f1b5fdea53590fcae69564bebee090321c0eb469[ALL] 026c4884ff548905ee30ee833433b4e6bcc5069672ebc4a12690ae2b61556c5039"}, "vout": 6, "txid": "ae5ff4a0010202dc7b2def1e02d599e1b7675a50f2192a97b0010163fed381a9"}], "txid": "eeff7d604a157408f54d1e3e0f2213f30d0dd82e850dc4c61629abef30be3e34", "blocktime": 1537871767, "version": 1, "confirmations": 11495, "time": 1537871767, "locktime": 0, "vsize": 668, "size": 668}