{"hash": "ef01e26761e4927f24a93fa52827a6b3b2934d4030defdeb8c56467214384e3f", "blockhash": "0000000000000000001f0ddff1eddb255c1121bcd4da4f1bc9a0da00cae72433", "vout": [{"scriptPubKey": {"reqSigs": 1, "hex": "76a914e6b457d95ef5912f10acbd9c928a3d1b84e700fc88ac", "addresses": ["1N2rTaqnKDXYFB1uKgeVdBm3B3foKbLfZc"], "asm": "OP_DUP OP_HASH160 e6b457d95ef5912f10acbd9c928a3d1b84e700fc OP_EQUALVERIFY OP_CHECKSIG", "type": "pubkeyhash"}, "value": 0.00597325, "n": 0}, {"scriptPubKey": {"type": "nulldata", "hex": "6a4c50000077ab0001de4825a21dd09bb4255e0444af6c953dd567cf27e7e3ef3236678a625097ab00a67cb3161ad038029740894688805baa103a0612e31d5a47cc751d100759d4ba30d2c37bb011d97e02cf", "asm": "OP_RETURN 000077ab0001de4825a21dd09bb4255e0444af6c953dd567cf27e7e3ef3236678a625097ab00a67cb3161ad038029740894688805baa103a0612e31d5a47cc751d100759d4ba30d2c37bb011d97e02cf"}, "value": 0.0, "n": 1}], "hex": "010000000187b6d63596516d187daa4ae8d7ff9e55f97b8f637339559c37151bee05fc87dc010000006a4730440220386820d90ba68a2be35e6de117fe7d0f2f021524e2bb6ef854e054dcda74927802203d6fa5117137e9ef32961627fb68cf01ed5af7ff9fa83f716b4f0419c0ba3a9e012102251e2428f1c29db14b8358ca9dc7bd57e542867ef7f23370b9c926d9175d73f0ffffffff024d1d0900000000001976a914e6b457d95ef5912f10acbd9c928a3d1b84e700fc88ac0000000000000000536a4c50000077ab0001de4825a21dd09bb4255e0444af6c953dd567cf27e7e3ef3236678a625097ab00a67cb3161ad038029740894688805baa103a0612e31d5a47cc751d100759d4ba30d2c37bb011d97e02cf00000000", "vin": [{"sequence": 4294967295, "scriptSig": {"hex": "4730440220386820d90ba68a2be35e6de117fe7d0f2f021524e2bb6ef854e054dcda74927802203d6fa5117137e9ef32961627fb68cf01ed5af7ff9fa83f716b4f0419c0ba3a9e012102251e2428f1c29db14b8358ca9dc7bd57e542867ef7f23370b9c926d9175d73f0", "asm": "30440220386820d90ba68a2be35e6de117fe7d0f2f021524e2bb6ef854e054dcda74927802203d6fa5117137e9ef32961627fb68cf01ed5af7ff9fa83f716b4f0419c0ba3a9e[ALL] 02251e2428f1c29db14b8358ca9dc7bd57e542867ef7f23370b9c926d9175d73f0"}, "vout": 1, "txid": "dc87fc05ee1b15379c553973638f7bf9559effd7e84aaa7d186d519635d6b687"}], "txid": "ef01e26761e4927f24a93fa52827a6b3b2934d4030defdeb8c56467214384e3f", "blocktime": 1537872018, "version": 1, "confirmations": 11489, "time": 1537872018, "locktime": 0, "vsize": 283, "size": 283}