{"hash": "ef0214f1aaa1f00d4a391a865801ba514a2a44c95852839603ab1218a191f046", "blockhash": "0000000000000000000baef3f32e3676a92c3b2e5da21b426e4f302fc371ce76", "vout": [{"scriptPubKey": {"reqSigs": 1, "hex": "76a914ab2fac0cac981d9e00eabfae5ee8d43bbfe7dc2388ac", "addresses": ["1Gc9f7kWcXUovMDj5ceb3mTgJKns999nAU"], "asm": "OP_DUP OP_HASH160 ab2fac0cac981d9e00eabfae5ee8d43bbfe7dc23 OP_EQUALVERIFY OP_CHECKSIG", "type": "pubkeyhash"}, "value": 0.0049291, "n": 0}, {"scriptPubKey": {"reqSigs": 1, "hex": "a914316d0501943daea8d95eef601be4ee4661af192087", "addresses": ["36CMdkjtW75Mc5bict5uXrdaoV346APxEH"], "asm": "OP_HASH160 316d0501943daea8d95eef601be4ee4661af1920 OP_EQUAL", "type": "scripthash"}, "value": 0.007352, "n": 1}], "hex": "010000000103f1551bd7c2d80c0614e21f67dbf1ed5fd18b8196ba0bd5729696d2c201c1580a0000006a47304402204a835cbc6d0d4423c316524399c1b3c5ebde7dc968c5b756b41411f3e6712e1f022063f32afdbd03c01692d5640c53fcac27a43f08c792075109f24b76212d8db4c501210273a89d531fc0da3bdd7c824419d59b1092c3b8b8ecb6c392dacf011289234078ffffffff026e850700000000001976a914ab2fac0cac981d9e00eabfae5ee8d43bbfe7dc2388ace0370b000000000017a914316d0501943daea8d95eef601be4ee4661af19208700000000", "vin": [{"sequence": 4294967295, "scriptSig": {"hex": "47304402204a835cbc6d0d4423c316524399c1b3c5ebde7dc968c5b756b41411f3e6712e1f022063f32afdbd03c01692d5640c53fcac27a43f08c792075109f24b76212d8db4c501210273a89d531fc0da3bdd7c824419d59b1092c3b8b8ecb6c392dacf011289234078", "asm": "304402204a835cbc6d0d4423c316524399c1b3c5ebde7dc968c5b756b41411f3e6712e1f022063f32afdbd03c01692d5640c53fcac27a43f08c792075109f24b76212d8db4c5[ALL] 0273a89d531fc0da3bdd7c824419d59b1092c3b8b8ecb6c392dacf011289234078"}, "vout": 10, "txid": "58c101c2d2969672d50bba96818bd15fedf1db671fe214060cd8c2d71b55f103"}], "txid": "ef0214f1aaa1f00d4a391a865801ba514a2a44c95852839603ab1218a191f046", "blocktime": 1537876114, "version": 1, "confirmations": 11460, "time": 1537876114, "locktime": 0, "vsize": 223, "size": 223}