{"hash": "b1c8ad64c1fdaca47d7648c48ea3f2cf18c5037b54efd2a44a7fa7e6b07408bf", "blockhash": "00000000000000000017f5eb5941039fbcee6240d03bc1f2f8e35350df66a1d8", "vout": [{"scriptPubKey": {"reqSigs": 1, "hex": "76a914b1714545e7e250995495594872500fbf1ffcc01788ac", "addresses": ["1HBEJ8ikm5WW3Y7qMe4UVe643XX2nhJyGM"], "asm": "OP_DUP OP_HASH160 b1714545e7e250995495594872500fbf1ffcc017 OP_EQUALVERIFY OP_CHECKSIG", "type": "pubkeyhash"}, "value": 0.0024, "n": 0}, {"scriptPubKey": {"reqSigs": 1, "hex": "a914f54e65d46629906ce8a6210317798d553da1bdb087", "addresses": ["3Q45PiRE5S8po1xCxNn1MywSUq9YJSJmjC"], "asm": "OP_HASH160 f54e65d46629906ce8a6210317798d553da1bdb0 OP_EQUAL", "type": "scripthash"}, "value": 0.01760158, "n": 1}], "hex": "0200000000010146126876884ecccbde60e8c64e4bde06f5142a8ed654fb5f63852f4b487f2e9701000000171600140cfa1be3386eed6cd29656aa8dc070f333ee6e4ffeffffff0280a90300000000001976a914b1714545e7e250995495594872500fbf1ffcc01788ac9edb1a000000000017a914f54e65d46629906ce8a6210317798d553da1bdb08702483045022100d3717d290c27646ddd1e2fc6b6e731fd340da1e14fea46da855d70513ab7ab8b02206231c407a08b671fc4fa504386126ac2ab6500b6874d9df3cabccdf116d8b0ea012102e9168957e8e4ce292bb363193c4db452f105912135f54cb578129872542ae8fe15490800", "vin": [{"txinwitness": ["3045022100d3717d290c27646ddd1e2fc6b6e731fd340da1e14fea46da855d70513ab7ab8b02206231c407a08b671fc4fa504386126ac2ab6500b6874d9df3cabccdf116d8b0ea01", "02e9168957e8e4ce292bb363193c4db452f105912135f54cb578129872542ae8fe"], "sequence": 4294967294, "scriptSig": {"hex": "1600140cfa1be3386eed6cd29656aa8dc070f333ee6e4f", "asm": "00140cfa1be3386eed6cd29656aa8dc070f333ee6e4f"}, "vout": 1, "txid": "972e7f484b2f85635ffb54d68e2a14f506de4b4ec6e860decbcc4e8876681246"}], "txid": "ef0ab0a2d1aaf04443487bca818334a48ceb3ef5bd54e6adb0ab113bb82a9b93", "blocktime": 1537874412, "version": 2, "confirmations": 11468, "time": 1537874412, "locktime": 542997, "vsize": 168, "size": 250}