{"hash": "ef1dd605039a53f838a35440e86a3c905f04d7731199593c8a72df74302f943a", "blockhash": "0000000000000000001cda96e906b7601b7a6fb1a3b62bca570a9e5d8f4b3de1", "vout": [{"scriptPubKey": {"reqSigs": 1, "hex": "76a9142a3ca4ac09b4893fc44cc616a9292feb2de30a7388ac", "addresses": ["14rL2dBLatHvq2jYj2K3XcmMqhRwBYhYBq"], "asm": "OP_DUP OP_HASH160 2a3ca4ac09b4893fc44cc616a9292feb2de30a73 OP_EQUALVERIFY OP_CHECKSIG", "type": "pubkeyhash"}, "value": 0.01701, "n": 0}, {"scriptPubKey": {"reqSigs": 1, "hex": "76a914f64b5921d023cf863be357fe3ad09b78b8f5688288ac", "addresses": ["1PTHVUSQGAB9QA96jyw55E6m9r8ps98eZ3"], "asm": "OP_DUP OP_HASH160 f64b5921d023cf863be357fe3ad09b78b8f56882 OP_EQUALVERIFY OP_CHECKSIG", "type": "pubkeyhash"}, "value": 0.00679223, "n": 1}], "hex": "0100000002a57ea7aeecb597517d92625df586380ebcaae170726f41c11f810c958ec1f03c010000006a473044022044d8ab96c164e5dd7b02cf06318cc5c2f50e6d0395125c1a904ba16ecf3db8d00220451164877f50a2011ca513330fa53936d5cd402aad6b4b98b4dcbab86bb777f401210220fa86ad05edc022e3d30e770fd6f496faa9f77c2352b935858add45ad71de6fffffffff727430b31c6637e7744b8c0343abf787209a1bf89311974bc37d9c03cd6f366f200000006b483045022100c6348343b62a067615a7e7c8a567b090b8d3d42902ee0c4204118eded8c5023d02200e60e8c60d49a9346960fe445020af3e2a404c85dfbc409b69f88dc421d39b8401210220fa86ad05edc022e3d30e770fd6f496faa9f77c2352b935858add45ad71de6fffffffff0288f41900000000001976a9142a3ca4ac09b4893fc44cc616a9292feb2de30a7388ac375d0a00000000001976a914f64b5921d023cf863be357fe3ad09b78b8f5688288ac00000000", "vin": [{"sequence": 4294967295, "scriptSig": {"hex": "473044022044d8ab96c164e5dd7b02cf06318cc5c2f50e6d0395125c1a904ba16ecf3db8d00220451164877f50a2011ca513330fa53936d5cd402aad6b4b98b4dcbab86bb777f401210220fa86ad05edc022e3d30e770fd6f496faa9f77c2352b935858add45ad71de6f", "asm": "3044022044d8ab96c164e5dd7b02cf06318cc5c2f50e6d0395125c1a904ba16ecf3db8d00220451164877f50a2011ca513330fa53936d5cd402aad6b4b98b4dcbab86bb777f4[ALL] 0220fa86ad05edc022e3d30e770fd6f496faa9f77c2352b935858add45ad71de6f"}, "vout": 1, "txid": "3cf0c18e950c811fc1416f7270e1aabc0e3886f55d62927d5197b5ecaea77ea5"}, {"sequence": 4294967295, "scriptSig": {"hex": "483045022100c6348343b62a067615a7e7c8a567b090b8d3d42902ee0c4204118eded8c5023d02200e60e8c60d49a9346960fe445020af3e2a404c85dfbc409b69f88dc421d39b8401210220fa86ad05edc022e3d30e770fd6f496faa9f77c2352b935858add45ad71de6f", "asm": "3045022100c6348343b62a067615a7e7c8a567b090b8d3d42902ee0c4204118eded8c5023d02200e60e8c60d49a9346960fe445020af3e2a404c85dfbc409b69f88dc421d39b84[ALL] 0220fa86ad05edc022e3d30e770fd6f496faa9f77c2352b935858add45ad71de6f"}, "vout": 32, "txid": "6f366fcd039c7dc34b971193f81b9a2087f7ab43038c4b74e737661cb3307472"}], "txid": "ef1dd605039a53f838a35440e86a3c905f04d7731199593c8a72df74302f943a", "blocktime": 1537873282, "version": 1, "confirmations": 11480, "time": 1537873282, "locktime": 0, "vsize": 373, "size": 373}