{"hash": "ef1fa0ab08ede8c62c368802b27e011c1385d753a75b15847e37abfffa070e93", "blockhash": "0000000000000000000baef3f32e3676a92c3b2e5da21b426e4f302fc371ce76", "vout": [{"scriptPubKey": {"reqSigs": 1, "hex": "76a91410e9436e651975cc5f47c5ecee5951578594e04588ac", "addresses": ["12YRFVh6s4W5vqLc8CFeP8rAk4acxGMUy8"], "asm": "OP_DUP OP_HASH160 10e9436e651975cc5f47c5ecee5951578594e045 OP_EQUALVERIFY OP_CHECKSIG", "type": "pubkeyhash"}, "value": 0.000733, "n": 0}, {"scriptPubKey": {"type": "nulldata", "hex": "6a4c500000782a000153859a53cab2d46ba22edb7b27b7256b4774d339f6019d6ddc0f1b8ff117eae40cebdb6a3375ae57fb1ddc5e1e0c5baa1ea20614346d0f2803d9bc9a9526289ac0f6612cd74e33776ee4", "asm": "OP_RETURN 0000782a000153859a53cab2d46ba22edb7b27b7256b4774d339f6019d6ddc0f1b8ff117eae40cebdb6a3375ae57fb1ddc5e1e0c5baa1ea20614346d0f2803d9bc9a9526289ac0f6612cd74e33776ee4"}, "value": 0.0, "n": 1}], "hex": "0100000001b8aad6fd517055e04d47986663038c3dc98185a54f3453ae5471c1cc37711956010000006a473044022032c57318baca3c53a3082ce9490c5d4574041e0393a565532a2fdef3899c38ab02204aa77b6c4e5dc9ed69f7835120f76101dd6b6547c9102564ec3a84e93a27823001210294ff31b60e327da350cd241dbeed6c0ef8622474cc341d66bd4d1fc005ba90c7ffffffff02541e0100000000001976a91410e9436e651975cc5f47c5ecee5951578594e04588ac0000000000000000536a4c500000782a000153859a53cab2d46ba22edb7b27b7256b4774d339f6019d6ddc0f1b8ff117eae40cebdb6a3375ae57fb1ddc5e1e0c5baa1ea20614346d0f2803d9bc9a9526289ac0f6612cd74e33776ee400000000", "vin": [{"sequence": 4294967295, "scriptSig": {"hex": "473044022032c57318baca3c53a3082ce9490c5d4574041e0393a565532a2fdef3899c38ab02204aa77b6c4e5dc9ed69f7835120f76101dd6b6547c9102564ec3a84e93a27823001210294ff31b60e327da350cd241dbeed6c0ef8622474cc341d66bd4d1fc005ba90c7", "asm": "3044022032c57318baca3c53a3082ce9490c5d4574041e0393a565532a2fdef3899c38ab02204aa77b6c4e5dc9ed69f7835120f76101dd6b6547c9102564ec3a84e93a278230[ALL] 0294ff31b60e327da350cd241dbeed6c0ef8622474cc341d66bd4d1fc005ba90c7"}, "vout": 1, "txid": "56197137ccc17154ae53344fa58581c93d8c03636698474de0557051fdd6aab8"}], "txid": "ef1fa0ab08ede8c62c368802b27e011c1385d753a75b15847e37abfffa070e93", "blocktime": 1537876114, "version": 1, "confirmations": 11461, "time": 1537876114, "locktime": 0, "vsize": 283, "size": 283}