{"hash": "ef20bf9b788a3377fbd99e755c14eeb003828230f546fccead1c403b653252d5", "blockhash": "00000000000000000024a2167bbff67b0be802c0b01cdd79e6331c2be6459f87", "vout": [{"scriptPubKey": {"type": "nulldata", "hex": "6a146f6d6e69000000000000001f00000f145502a800", "asm": "OP_RETURN 6f6d6e69000000000000001f00000f145502a800"}, "value": 0.0, "n": 0}, {"scriptPubKey": {"reqSigs": 1, "hex": "76a914492f305f58b7469202526bff3200a9f2a446fb4988ac", "addresses": ["17fxrkUwdiTMBRkMkM5Wq47Eeqru9JBW53"], "asm": "OP_DUP OP_HASH160 492f305f58b7469202526bff3200a9f2a446fb49 OP_EQUALVERIFY OP_CHECKSIG", "type": "pubkeyhash"}, "value": 5.46e-06, "n": 1}, {"scriptPubKey": {"reqSigs": 1, "hex": "76a914a25dec4d0011064ef106a983c39c7a540699f22088ac", "addresses": ["1FoWyxwPXuj4C6abqwhjDWdz6D4PZgYRjA"], "asm": "OP_DUP OP_HASH160 a25dec4d0011064ef106a983c39c7a540699f220 OP_EQUALVERIFY OP_CHECKSIG", "type": "pubkeyhash"}, "value": 0.01990392, "n": 2}], "hex": "01000000014afe710e22ba3959d25b136db1967c8d568b23c2797660c41802466a0df69250020000006a473044022006d6e22ad9d9f3226f7a8c9624e4a7422811520f011ac38f16c4fddd045e271102200792d900a014d3be086cfb43a538902166daa867b815c06f0d498899648136a5012103da5bac7b36d5aa38f531c6b9601e21bb598a4b6716ebed38b009a55dabde9440feffffff030000000000000000166a146f6d6e69000000000000001f00000f145502a80022020000000000001976a914492f305f58b7469202526bff3200a9f2a446fb4988acf85e1e00000000001976a914a25dec4d0011064ef106a983c39c7a540699f22088acb5480800", "vin": [{"sequence": 4294967294, "scriptSig": {"hex": "473044022006d6e22ad9d9f3226f7a8c9624e4a7422811520f011ac38f16c4fddd045e271102200792d900a014d3be086cfb43a538902166daa867b815c06f0d498899648136a5012103da5bac7b36d5aa38f531c6b9601e21bb598a4b6716ebed38b009a55dabde9440", "asm": "3044022006d6e22ad9d9f3226f7a8c9624e4a7422811520f011ac38f16c4fddd045e271102200792d900a014d3be086cfb43a538902166daa867b815c06f0d498899648136a5[ALL] 03da5bac7b36d5aa38f531c6b9601e21bb598a4b6716ebed38b009a55dabde9440"}, "vout": 2, "txid": "5092f60d6a460218c4607679c2238b568d7c96b16d135bd25939ba220e71fe4a"}], "txid": "ef20bf9b788a3377fbd99e755c14eeb003828230f546fccead1c403b653252d5", "blocktime": 1537870564, "version": 1, "confirmations": 11515, "time": 1537870564, "locktime": 542901, "vsize": 256, "size": 256}