{"hash": "ef2709e7f4530c5f40573ab170f619e6dad8e6f8341a3ea237185fabf86aa9e9", "blockhash": "0000000000000000001f0ddff1eddb255c1121bcd4da4f1bc9a0da00cae72433", "vout": [{"scriptPubKey": {"reqSigs": 1, "hex": "a91469f374ae5128c7f5d3513740ee1c2811a8af6f7d87", "addresses": ["3BMEXHoGCzvR5BdHie6DKnn4Hh7AmuoZ5q"], "asm": "OP_HASH160 69f374ae5128c7f5d3513740ee1c2811a8af6f7d OP_EQUAL", "type": "scripthash"}, "value": 0.35992378, "n": 0}, {"scriptPubKey": {"reqSigs": 1, "hex": "76a9145aa7bc186b1da2da1ca338fc459d1b0e6cf5ea4e88ac", "addresses": ["19GLkgQDmPQL5ve8GBhHrUi7gPM1f5mHKv"], "asm": "OP_DUP OP_HASH160 5aa7bc186b1da2da1ca338fc459d1b0e6cf5ea4e OP_EQUALVERIFY OP_CHECKSIG", "type": "pubkeyhash"}, "value": 0.08358066, "n": 1}], "hex": "0100000002361cfa8af0a353a705d95cc16f2452a39afe854d2dff521b3c0acd599213ecfc010000006b483045022100ec57d57e6dc47dffe8cac4521c559d8efd3724bb7afbef44b8d40c09bdf7fa9502207c8d83edc55b3626713879f94a11248bbae6abf70204e80212c7291f666b529c01210311801ecfbbaba50d440db49c7a06127cd9b559142354ed7605e196ab59d23798ffffffff36942ea91e067d515e02e3d4c57c3ae49bcc6d16e95dd596935f1ce1e83a3c0b000000006b483045022100a34253cd9f6b70641d5de5e7c2e621754434c2a54f6123a46aae4559f790cf3a02202313547c6c04ccae173987ca677ba9900fb9897952efc84b348652572dcb213f012103f77a8186eed012f872e85d7d57df23570c3ae1db7580c14795e4e7216c423f15ffffffff023a3325020000000017a91469f374ae5128c7f5d3513740ee1c2811a8af6f7d87b2887f00000000001976a9145aa7bc186b1da2da1ca338fc459d1b0e6cf5ea4e88ac00000000", "vin": [{"sequence": 4294967295, "scriptSig": {"hex": "483045022100ec57d57e6dc47dffe8cac4521c559d8efd3724bb7afbef44b8d40c09bdf7fa9502207c8d83edc55b3626713879f94a11248bbae6abf70204e80212c7291f666b529c01210311801ecfbbaba50d440db49c7a06127cd9b559142354ed7605e196ab59d23798", "asm": "3045022100ec57d57e6dc47dffe8cac4521c559d8efd3724bb7afbef44b8d40c09bdf7fa9502207c8d83edc55b3626713879f94a11248bbae6abf70204e80212c7291f666b529c[ALL] 0311801ecfbbaba50d440db49c7a06127cd9b559142354ed7605e196ab59d23798"}, "vout": 1, "txid": "fcec139259cd0a3c1b52ff2d4d85fe9aa352246fc15cd905a753a3f08afa1c36"}, {"sequence": 4294967295, "scriptSig": {"hex": "483045022100a34253cd9f6b70641d5de5e7c2e621754434c2a54f6123a46aae4559f790cf3a02202313547c6c04ccae173987ca677ba9900fb9897952efc84b348652572dcb213f012103f77a8186eed012f872e85d7d57df23570c3ae1db7580c14795e4e7216c423f15", "asm": "3045022100a34253cd9f6b70641d5de5e7c2e621754434c2a54f6123a46aae4559f790cf3a02202313547c6c04ccae173987ca677ba9900fb9897952efc84b348652572dcb213f[ALL] 03f77a8186eed012f872e85d7d57df23570c3ae1db7580c14795e4e7216c423f15"}, "vout": 0, "txid": "0b3c3ae8e11c5f9396d55de9166dcc9be43a7cc5d4e3025e517d061ea92e9436"}], "txid": "ef2709e7f4530c5f40573ab170f619e6dad8e6f8341a3ea237185fabf86aa9e9", "blocktime": 1537872018, "version": 1, "confirmations": 11489, "time": 1537872018, "locktime": 0, "vsize": 372, "size": 372}