{"hash": "ef293229e2824461ce2f306a72463717d3fa3d7cb347dd98dd1504266470a829", "blockhash": "00000000000000000017f5eb5941039fbcee6240d03bc1f2f8e35350df66a1d8", "vout": [{"scriptPubKey": {"reqSigs": 1, "hex": "76a914d964e7441c23d1485f0f106a6575e1a933fa9c4a88ac", "addresses": ["1LpUWWzjfeSWtpHS3dKEC8t3ofHxQqJPqZ"], "asm": "OP_DUP OP_HASH160 d964e7441c23d1485f0f106a6575e1a933fa9c4a OP_EQUALVERIFY OP_CHECKSIG", "type": "pubkeyhash"}, "value": 0.0036577, "n": 0}, {"scriptPubKey": {"reqSigs": 1, "hex": "76a91467329b63bc0b3d1d334777cf3e66c4d33600ad5488ac", "addresses": ["1AQfDzeRNiS33qHEvM6h3HxNpDn79Amba3"], "asm": "OP_DUP OP_HASH160 67329b63bc0b3d1d334777cf3e66c4d33600ad54 OP_EQUALVERIFY OP_CHECKSIG", "type": "pubkeyhash"}, "value": 0.00390896, "n": 1}], "hex": "0100000001121db4c1e24b5e0234f251578cf2be40ebfe700286d04e5c4bc6167d27d0d0a7010000006b483045022100e59b850d5087c3fc78960cd10a2b478dbc01b09900b36e43f30b6a2627d8a49e022064edb93536ec80471831520155a99f30d34aa9cdb8a05b1fbc7dab2db368c353012102add2a47dbd696d80fb0c28b9839bf55379fa3dd4162659553b00657e694ec0a8ffffffff02ca940500000000001976a914d964e7441c23d1485f0f106a6575e1a933fa9c4a88acf0f60500000000001976a91467329b63bc0b3d1d334777cf3e66c4d33600ad5488ac00000000", "vin": [{"sequence": 4294967295, "scriptSig": {"hex": "483045022100e59b850d5087c3fc78960cd10a2b478dbc01b09900b36e43f30b6a2627d8a49e022064edb93536ec80471831520155a99f30d34aa9cdb8a05b1fbc7dab2db368c353012102add2a47dbd696d80fb0c28b9839bf55379fa3dd4162659553b00657e694ec0a8", "asm": "3045022100e59b850d5087c3fc78960cd10a2b478dbc01b09900b36e43f30b6a2627d8a49e022064edb93536ec80471831520155a99f30d34aa9cdb8a05b1fbc7dab2db368c353[ALL] 02add2a47dbd696d80fb0c28b9839bf55379fa3dd4162659553b00657e694ec0a8"}, "vout": 1, "txid": "a7d0d0277d16c64b5c4ed0860270feeb40bef28c5751f234025e4be2c1b41d12"}], "txid": "ef293229e2824461ce2f306a72463717d3fa3d7cb347dd98dd1504266470a829", "blocktime": 1537874412, "version": 1, "confirmations": 11468, "time": 1537874412, "locktime": 0, "vsize": 226, "size": 226}