{"hash": "2db34284bdd4f54856b69399e8bd21ef57186be20ea2dc8db15f5c7b648dc9c5", "blockhash": "0000000000000000000e13cef7c366c0283d82e591d1acd082e914b08063cdf1", "vout": [{"scriptPubKey": {"reqSigs": 1, "hex": "a91469f3760d45af551785f77dfaf019a68efc06095d87", "addresses": ["3BMEXfNwxBSr5wK5nZDHCHfGnBgSjfbrft"], "asm": "OP_HASH160 69f3760d45af551785f77dfaf019a68efc06095d OP_EQUAL", "type": "scripthash"}, "value": 0.1319, "n": 0}, {"scriptPubKey": {"reqSigs": 1, "hex": "a91486c3fd19c6c9a0b596046179f8c72dcbdf95c96387", "addresses": ["3DybFnF6r6riDz1W1wSmv2rvjo8NCGH4xi"], "asm": "OP_HASH160 86c3fd19c6c9a0b596046179f8c72dcbdf95c963 OP_EQUAL", "type": "scripthash"}, "value": 36.8459377, "n": 1}], "hex": "010000000001019f945073f30e400de161a579df57982eb27d98f97e5a30b7207a3f337ebbde96010000001716001431a2ce0c031351dd9c5dad168af8b76d65147419ffffffff027043c9000000000017a91469f3760d45af551785f77dfaf019a68efc06095d876a709edb0000000017a91486c3fd19c6c9a0b596046179f8c72dcbdf95c9638702483045022100f299d425c13564002fe1ffcb7b9755584aea62d8113b7237804cf7c3b22be7310220250dc16b028d32ab76ae49380b3dfaed84519a685609ea23a6ee374707e9890701210221a47cdb1df834e604d49ce29497c00a12d0daec0ae8a10a6ce689780b05085300000000", "vin": [{"txinwitness": ["3045022100f299d425c13564002fe1ffcb7b9755584aea62d8113b7237804cf7c3b22be7310220250dc16b028d32ab76ae49380b3dfaed84519a685609ea23a6ee374707e9890701", "0221a47cdb1df834e604d49ce29497c00a12d0daec0ae8a10a6ce689780b050853"], "sequence": 4294967295, "scriptSig": {"hex": "16001431a2ce0c031351dd9c5dad168af8b76d65147419", "asm": "001431a2ce0c031351dd9c5dad168af8b76d65147419"}, "vout": 1, "txid": "96debb7e333f7a20b7305a7ef9987db22e9857df79a561e10d400ef37350949f"}], "txid": "ef29902a870559772d142888395d4aa9e55f43ea3cd5ec04acf286162cb65fde", "blocktime": 1537871767, "version": 1, "confirmations": 11493, "time": 1537871767, "locktime": 0, "vsize": 166, "size": 248}