{"hash": "ef2f993e80631323802f6d1f5dd736b8d49a12c2069d7f9128ce101482054d46", "blockhash": "0000000000000000000baef3f32e3676a92c3b2e5da21b426e4f302fc371ce76", "vout": [{"scriptPubKey": {"reqSigs": 1, "hex": "76a914afde5632c1dde2e0132381ad7b0f6154170f232188ac", "addresses": ["1H2uboAQLKEaticnJaShb8Nre7ogcxuzzv"], "asm": "OP_DUP OP_HASH160 afde5632c1dde2e0132381ad7b0f6154170f2321 OP_EQUALVERIFY OP_CHECKSIG", "type": "pubkeyhash"}, "value": 0.0219848, "n": 0}, {"scriptPubKey": {"type": "nulldata", "hex": "6a4c500000781d0001ad42223ae4f35bb39ba81a5c019d6ddc0f1b8ff117702940d64fa54d8eb2e23c00c15bb4cc6028b3d7279f80780a5baa1cff0614a1619937fb38bc9a9526289ac0f6612cd74e33776ee4", "asm": "OP_RETURN 0000781d0001ad42223ae4f35bb39ba81a5c019d6ddc0f1b8ff117702940d64fa54d8eb2e23c00c15bb4cc6028b3d7279f80780a5baa1cff0614a1619937fb38bc9a9526289ac0f6612cd74e33776ee4"}, "value": 0.0, "n": 1}], "hex": "0100000001a20f6372a0d23beaf89904727b285ab63b1b99535ec8c5deba17e540cd393ae4000000006b4830450221008ab81104ceb0499789058766627d5ca58888af5c212acaafd17452eda5db74b502204fd7a64714b8502acdfe8f0c0ab3caa20056d3568cb4f046fcfc69cd383e382d0121025113bbceb3c83f51e9a76e0748bd0f1fca3c5cb3e742426074d36e9a1aad0510ffffffff02d08b2100000000001976a914afde5632c1dde2e0132381ad7b0f6154170f232188ac0000000000000000536a4c500000781d0001ad42223ae4f35bb39ba81a5c019d6ddc0f1b8ff117702940d64fa54d8eb2e23c00c15bb4cc6028b3d7279f80780a5baa1cff0614a1619937fb38bc9a9526289ac0f6612cd74e33776ee400000000", "vin": [{"sequence": 4294967295, "scriptSig": {"hex": "4830450221008ab81104ceb0499789058766627d5ca58888af5c212acaafd17452eda5db74b502204fd7a64714b8502acdfe8f0c0ab3caa20056d3568cb4f046fcfc69cd383e382d0121025113bbceb3c83f51e9a76e0748bd0f1fca3c5cb3e742426074d36e9a1aad0510", "asm": "30450221008ab81104ceb0499789058766627d5ca58888af5c212acaafd17452eda5db74b502204fd7a64714b8502acdfe8f0c0ab3caa20056d3568cb4f046fcfc69cd383e382d[ALL] 025113bbceb3c83f51e9a76e0748bd0f1fca3c5cb3e742426074d36e9a1aad0510"}, "vout": 0, "txid": "e43a39cd40e517badec5c85e53991b3bb65a287b720499f8ea3bd2a072630fa2"}], "txid": "ef2f993e80631323802f6d1f5dd736b8d49a12c2069d7f9128ce101482054d46", "blocktime": 1537876114, "version": 1, "confirmations": 11460, "time": 1537876114, "locktime": 0, "vsize": 284, "size": 284}