{"hash": "ef379f4212279e0bb0a8fd60d28135d9e8ec04a0934bb42735f100d9fc4cef66", "blockhash": "0000000000000000000baef3f32e3676a92c3b2e5da21b426e4f302fc371ce76", "vout": [{"scriptPubKey": {"reqSigs": 1, "hex": "76a9140a6b825daa1b89f8e100ed8eec6d79b592500f4988ac", "addresses": ["1x6YnuBVeeE65dQRZztRWgUPwyBjHCA5g"], "asm": "OP_DUP OP_HASH160 0a6b825daa1b89f8e100ed8eec6d79b592500f49 OP_EQUALVERIFY OP_CHECKSIG", "type": "pubkeyhash"}, "value": 0.44191798, "n": 0}, {"scriptPubKey": {"reqSigs": 1, "hex": "76a914516b9a0060719651e25c95f4a644f39274dea59c88ac", "addresses": ["18RWdpvet5U8v2p2gMKGuTbba7UDXhMxKG"], "asm": "OP_DUP OP_HASH160 516b9a0060719651e25c95f4a644f39274dea59c OP_EQUALVERIFY OP_CHECKSIG", "type": "pubkeyhash"}, "value": 5.46e-06, "n": 1}, {"scriptPubKey": {"type": "nulldata", "hex": "6a146f6d6e69000000000000001f0000002e451acd40", "asm": "OP_RETURN 6f6d6e69000000000000001f0000002e451acd40"}, "value": 0.0, "n": 2}], "hex": "01000000012bec84f4f42c1785a30fd064d6fe858f812515ecfbd9a862629b9ca9cdd68fa7010000006a473044022018ec13046ee46955197b2cce20215efa759c66b2043485540bc422063187b60f022035cea45f51c472fd1b9879384b670b7b1267ead4ec2e5276dab8c9c78e8bc493012103fe02b06a6bfd9b5a83e0417430a3235a39a0b4c7973591ca27ac58f6474d9120ffffffff033650a202000000001976a9140a6b825daa1b89f8e100ed8eec6d79b592500f4988ac22020000000000001976a914516b9a0060719651e25c95f4a644f39274dea59c88ac0000000000000000166a146f6d6e69000000000000001f0000002e451acd4000000000", "vin": [{"sequence": 4294967295, "scriptSig": {"hex": "473044022018ec13046ee46955197b2cce20215efa759c66b2043485540bc422063187b60f022035cea45f51c472fd1b9879384b670b7b1267ead4ec2e5276dab8c9c78e8bc493012103fe02b06a6bfd9b5a83e0417430a3235a39a0b4c7973591ca27ac58f6474d9120", "asm": "3044022018ec13046ee46955197b2cce20215efa759c66b2043485540bc422063187b60f022035cea45f51c472fd1b9879384b670b7b1267ead4ec2e5276dab8c9c78e8bc493[ALL] 03fe02b06a6bfd9b5a83e0417430a3235a39a0b4c7973591ca27ac58f6474d9120"}, "vout": 1, "txid": "a78fd6cda99c9b6262a8d9fbec1525818f85fed664d00fa385172cf4f484ec2b"}], "txid": "ef379f4212279e0bb0a8fd60d28135d9e8ec04a0934bb42735f100d9fc4cef66", "blocktime": 1537876114, "version": 1, "confirmations": 11459, "time": 1537876114, "locktime": 0, "vsize": 256, "size": 256}