{"hash": "ef3d10225ce04190047a3c79f3a3b59152c9703bf50070acfd1dad7c5884e735", "blockhash": "0000000000000000000baef3f32e3676a92c3b2e5da21b426e4f302fc371ce76", "vout": [{"scriptPubKey": {"reqSigs": 1, "hex": "76a91448afb74638a48481bc7f9a4a17b51107e90e31e088ac", "addresses": ["17dL9mXGbMpVtZtMymFJvkyi98ngpiqfMs"], "asm": "OP_DUP OP_HASH160 48afb74638a48481bc7f9a4a17b51107e90e31e0 OP_EQUALVERIFY OP_CHECKSIG", "type": "pubkeyhash"}, "value": 0.3118, "n": 0}, {"scriptPubKey": {"reqSigs": 1, "hex": "76a914fa427c1ef06fae4b8016a65e4b94d18a8ff3b61688ac", "addresses": ["1PpFaQXzhmQqeS4PvEzRDxdp8duyngVkme"], "asm": "OP_DUP OP_HASH160 fa427c1ef06fae4b8016a65e4b94d18a8ff3b616 OP_EQUALVERIFY OP_CHECKSIG", "type": "pubkeyhash"}, "value": 0.74318192, "n": 1}], "hex": "0100000001f75a707aed844729f80d59564e649fe604d4c858e415dc3b52fc0f9b70034ac6000000006a47304402203b393aa5af883c099d4b0a0dcf5a6e01d2d9045e4b522e905d279c65dc450e2702207a89e4cc79f4157156b6dd97f3103a9a96d036871e5e364aa644da0f1d7151df0121023c7cfb82beb66fec1460b3f4f1afb24274556d9e4eb09c9d3ee31226ff915889ffffffff02e0c4db01000000001976a91448afb74638a48481bc7f9a4a17b51107e90e31e088ac70016e04000000001976a914fa427c1ef06fae4b8016a65e4b94d18a8ff3b61688ac00000000", "vin": [{"sequence": 4294967295, "scriptSig": {"hex": "47304402203b393aa5af883c099d4b0a0dcf5a6e01d2d9045e4b522e905d279c65dc450e2702207a89e4cc79f4157156b6dd97f3103a9a96d036871e5e364aa644da0f1d7151df0121023c7cfb82beb66fec1460b3f4f1afb24274556d9e4eb09c9d3ee31226ff915889", "asm": "304402203b393aa5af883c099d4b0a0dcf5a6e01d2d9045e4b522e905d279c65dc450e2702207a89e4cc79f4157156b6dd97f3103a9a96d036871e5e364aa644da0f1d7151df[ALL] 023c7cfb82beb66fec1460b3f4f1afb24274556d9e4eb09c9d3ee31226ff915889"}, "vout": 0, "txid": "c64a03709b0ffc523bdc15e458c8d404e69f644e56590df8294784ed7a705af7"}], "txid": "ef3d10225ce04190047a3c79f3a3b59152c9703bf50070acfd1dad7c5884e735", "blocktime": 1537876114, "version": 1, "confirmations": 11460, "time": 1537876114, "locktime": 0, "vsize": 225, "size": 225}