{"hash": "ef4221d1701ab8b839c49676937271757d73af6a69b630adac28bc0815dc225b", "blockhash": "0000000000000000001cda96e906b7601b7a6fb1a3b62bca570a9e5d8f4b3de1", "vout": [{"scriptPubKey": {"reqSigs": 1, "hex": "76a914d312cb671fe53a155b7fcb93e9f0577fde85760588ac", "addresses": ["1LF46LwvEs6J8BzEgzcYUpumY7e73X3RmR"], "asm": "OP_DUP OP_HASH160 d312cb671fe53a155b7fcb93e9f0577fde857605 OP_EQUALVERIFY OP_CHECKSIG", "type": "pubkeyhash"}, "value": 0.09470996, "n": 0}, {"scriptPubKey": {"type": "nulldata", "hex": "6a146f6d6e69000000000000001f0000010b2068b100", "asm": "OP_RETURN 6f6d6e69000000000000001f0000010b2068b100"}, "value": 0.0, "n": 1}, {"scriptPubKey": {"reqSigs": 1, "hex": "76a914051e06c6b6c7b6142f64a9b80c03d28cec6ba69988ac", "addresses": ["1U4MEczZ9Vxjkb832XVT2n8NqefdiWkWR"], "asm": "OP_DUP OP_HASH160 051e06c6b6c7b6142f64a9b80c03d28cec6ba699 OP_EQUALVERIFY OP_CHECKSIG", "type": "pubkeyhash"}, "value": 5.46e-06, "n": 2}], "hex": "0100000001bf9d2b6ecac476738344b5eaaf328ec7ba4433a56bb6a9c1ebaac4c1a8836a37000000006a47304402203ddbc57b1cde68653b427ea6c434c9b67fbde6940cf2c93389c40f502a5ac84802202cc273f91fc871db87268839851b56d9da8609610228225a682f97882d418f4f012103b8590487fe824045ed2a3ca004531c535c749564f3e4031a37c2de5b23b18e17ffffffff0314849000000000001976a914d312cb671fe53a155b7fcb93e9f0577fde85760588ac0000000000000000166a146f6d6e69000000000000001f0000010b2068b10022020000000000001976a914051e06c6b6c7b6142f64a9b80c03d28cec6ba69988ac00000000", "vin": [{"sequence": 4294967295, "scriptSig": {"hex": "47304402203ddbc57b1cde68653b427ea6c434c9b67fbde6940cf2c93389c40f502a5ac84802202cc273f91fc871db87268839851b56d9da8609610228225a682f97882d418f4f012103b8590487fe824045ed2a3ca004531c535c749564f3e4031a37c2de5b23b18e17", "asm": "304402203ddbc57b1cde68653b427ea6c434c9b67fbde6940cf2c93389c40f502a5ac84802202cc273f91fc871db87268839851b56d9da8609610228225a682f97882d418f4f[ALL] 03b8590487fe824045ed2a3ca004531c535c749564f3e4031a37c2de5b23b18e17"}, "vout": 0, "txid": "376a83a8c1c4aaebc1a9b66ba53344bac78e32afeab544837376c4ca6e2b9dbf"}], "txid": "ef4221d1701ab8b839c49676937271757d73af6a69b630adac28bc0815dc225b", "blocktime": 1537873282, "version": 1, "confirmations": 11480, "time": 1537873282, "locktime": 0, "vsize": 256, "size": 256}