{"hash": "ef4578825fa08904265cc7e6e7136ea466570fb4c554b1746fc7d18634b8a2af", "blockhash": "0000000000000000000e13cef7c366c0283d82e591d1acd082e914b08063cdf1", "vout": [{"scriptPubKey": {"reqSigs": 1, "hex": "a91415a05aa0e910ed7a4ded43e2a28522d7524d803087", "addresses": ["33fNDAWDd4YG25CnKsTaxLw7GH7o9FN3VP"], "asm": "OP_HASH160 15a05aa0e910ed7a4ded43e2a28522d7524d8030 OP_EQUAL", "type": "scripthash"}, "value": 0.001, "n": 0}, {"scriptPubKey": {"reqSigs": 1, "hex": "76a914eeccdc7339e41880989661ddb379956ac50e105888ac", "addresses": ["1NmfEf6BpagXNBkwY4r593Qwn8fV89cT67"], "asm": "OP_DUP OP_HASH160 eeccdc7339e41880989661ddb379956ac50e1058 OP_EQUALVERIFY OP_CHECKSIG", "type": "pubkeyhash"}, "value": 0.4924958, "n": 1}], "hex": "0100000001de545b023db15a1de0a6c47a2b0542a7bdc59748f2b78a99927f87a0aef8b1d9000000006a473044022072092148747035323604c62bdb0d9eaede64461abf981a312add2e47d00f5433022053191a3008e94b6b1039b675f100b793d81e4ac025a55d7cb36a549f3d67e2ec012103ebc2b5a4ae1edb32caca2a2b968d6a5ab73ac19bf6be7523e2141f968db20727ffffffff02a08601000000000017a91415a05aa0e910ed7a4ded43e2a28522d7524d8030872c7def02000000001976a914eeccdc7339e41880989661ddb379956ac50e105888ac00000000", "vin": [{"sequence": 4294967295, "scriptSig": {"hex": "473044022072092148747035323604c62bdb0d9eaede64461abf981a312add2e47d00f5433022053191a3008e94b6b1039b675f100b793d81e4ac025a55d7cb36a549f3d67e2ec012103ebc2b5a4ae1edb32caca2a2b968d6a5ab73ac19bf6be7523e2141f968db20727", "asm": "3044022072092148747035323604c62bdb0d9eaede64461abf981a312add2e47d00f5433022053191a3008e94b6b1039b675f100b793d81e4ac025a55d7cb36a549f3d67e2ec[ALL] 03ebc2b5a4ae1edb32caca2a2b968d6a5ab73ac19bf6be7523e2141f968db20727"}, "vout": 0, "txid": "d9b1f8aea0877f92998ab7f24897c5bda742052b7ac4a6e01d5ab13d025b54de"}], "txid": "ef4578825fa08904265cc7e6e7136ea466570fb4c554b1746fc7d18634b8a2af", "blocktime": 1537871767, "version": 1, "confirmations": 11490, "time": 1537871767, "locktime": 0, "vsize": 223, "size": 223}