{"hash": "ef4f73d39f145e27672098d0fa92e4bde636f12e8a36f442fa2d12dc17deee61", "blockhash": "0000000000000000000dcc0f55137456b1a82d3642486a52398922ac4d620174", "vout": [{"scriptPubKey": {"reqSigs": 1, "hex": "76a914d243e6abb9a60fbff430b421d2df4b7d59ec186088ac", "addresses": ["1LAnF8h3qMGx3TSwNUHVneBZUEpwE4gu3D"], "asm": "OP_DUP OP_HASH160 d243e6abb9a60fbff430b421d2df4b7d59ec1860 OP_EQUALVERIFY OP_CHECKSIG", "type": "pubkeyhash"}, "value": 0.00076972, "n": 0}, {"scriptPubKey": {"reqSigs": 1, "hex": "76a9143851f34d13937b673a7d24a1950bb5b21ce94af388ac", "addresses": ["168o1kqNquEJeR9vosUB5fw4eAwcVAgh8P"], "asm": "OP_DUP OP_HASH160 3851f34d13937b673a7d24a1950bb5b21ce94af3 OP_EQUALVERIFY OP_CHECKSIG", "type": "pubkeyhash"}, "value": 5.46e-06, "n": 1}, {"scriptPubKey": {"type": "nulldata", "hex": "6a146f6d6e69000000000000001f00000036d5b4d697", "asm": "OP_RETURN 6f6d6e69000000000000001f00000036d5b4d697"}, "value": 0.0, "n": 2}], "hex": "01000000024c6ef7eb870576354d0b4678ee808d8eb2d34acf8bc984114d0727f38f091106010000006a473044022020885ec0d31de39f6ac6b479c1ba0d44c5030863d5791019a0bfb475c6a797e3022013e4310f8c8e0b5963366aae3ef5a2668134a97c28d86af09270cd81e76300bc012102fa4b86962bc6d416e28f87a2828e01d1ae4d7edcea4d9b87594d4c3d4edaf736ffffffffe7e2c8054a2425f910b0afac758c43b899fbce11639d76c6367b18b9780c24c4000000006b483045022100d6b2b008fd164f8db09b7c4e21f363664980814a8908d00bb2d7ebba24b218b302203182a88fd48b7e47612bca0538a2abea276ee87638fb33e3e4d717fcba1d4a5a01210271977291b74f1f5f5c42157e8aae804664eaaeccfd097918450d37f28fb94d77ffffffff03ac2c0100000000001976a914d243e6abb9a60fbff430b421d2df4b7d59ec186088ac22020000000000001976a9143851f34d13937b673a7d24a1950bb5b21ce94af388ac0000000000000000166a146f6d6e69000000000000001f00000036d5b4d69700000000", "vin": [{"sequence": 4294967295, "scriptSig": {"hex": "473044022020885ec0d31de39f6ac6b479c1ba0d44c5030863d5791019a0bfb475c6a797e3022013e4310f8c8e0b5963366aae3ef5a2668134a97c28d86af09270cd81e76300bc012102fa4b86962bc6d416e28f87a2828e01d1ae4d7edcea4d9b87594d4c3d4edaf736", "asm": "3044022020885ec0d31de39f6ac6b479c1ba0d44c5030863d5791019a0bfb475c6a797e3022013e4310f8c8e0b5963366aae3ef5a2668134a97c28d86af09270cd81e76300bc[ALL] 02fa4b86962bc6d416e28f87a2828e01d1ae4d7edcea4d9b87594d4c3d4edaf736"}, "vout": 1, "txid": "0611098ff327074d1184c98bcf4ad3b28e8d80ee78460b4d35760587ebf76e4c"}, {"sequence": 4294967295, "scriptSig": {"hex": "483045022100d6b2b008fd164f8db09b7c4e21f363664980814a8908d00bb2d7ebba24b218b302203182a88fd48b7e47612bca0538a2abea276ee87638fb33e3e4d717fcba1d4a5a01210271977291b74f1f5f5c42157e8aae804664eaaeccfd097918450d37f28fb94d77", "asm": "3045022100d6b2b008fd164f8db09b7c4e21f363664980814a8908d00bb2d7ebba24b218b302203182a88fd48b7e47612bca0538a2abea276ee87638fb33e3e4d717fcba1d4a5a[ALL] 0271977291b74f1f5f5c42157e8aae804664eaaeccfd097918450d37f28fb94d77"}, "vout": 0, "txid": "c4240c78b9187b36c6769d6311cefb99b8438c75acafb010f925244a05c8e2e7"}], "txid": "ef4f73d39f145e27672098d0fa92e4bde636f12e8a36f442fa2d12dc17deee61", "blocktime": 1537870268, "version": 1, "confirmations": 11516, "time": 1537870268, "locktime": 0, "vsize": 404, "size": 404}