{"hash": "ef599b77d0a97a0381d05e7923b5ca0cde5ebaa664562db482bc37097e314118", "blockhash": "0000000000000000000baef3f32e3676a92c3b2e5da21b426e4f302fc371ce76", "vout": [{"scriptPubKey": {"reqSigs": 1, "hex": "a91487ee1be80c44a49c1a75cd2cedd09d517e52186c87", "addresses": ["3E5kPYZECRSDgMsGDbfmFLQJWkZPUwwUqs"], "asm": "OP_HASH160 87ee1be80c44a49c1a75cd2cedd09d517e52186c OP_EQUAL", "type": "scripthash"}, "value": 0.0005, "n": 0}, {"scriptPubKey": {"reqSigs": 1, "hex": "76a914e349bc52d6b8100b58d3fce45135a91c5c128a1d88ac", "addresses": ["1MiningDkXkhKaXBTMKXfLemnk1YY5rbkT"], "asm": "OP_DUP OP_HASH160 e349bc52d6b8100b58d3fce45135a91c5c128a1d OP_EQUALVERIFY OP_CHECKSIG", "type": "pubkeyhash"}, "value": 0.02999836, "n": 1}], "hex": "020000000178753848d42d4feb22a8f70b76ed7aa5c97f96b3f4c37b382b1e99e0ec2cf8d7010000008b483045022100cb4a58bb0717a67d019d90f046685fbd72f356118283fea92e1b547a318dd6340220505443569fffad3854a3ce7bac3a7601bf7a8b58091c7dd9d2fce9c66675d99f014104ae414abde7876c34e01694b38b2341d10b9b4c8db18a66262bd8df26bcb57893885c9fe8b79aa25330d5f05bb5aa9ab636a908a72e27956572b44190b22809beffffffff0250c300000000000017a91487ee1be80c44a49c1a75cd2cedd09d517e52186c871cc62d00000000001976a914e349bc52d6b8100b58d3fce45135a91c5c128a1d88ac00000000", "vin": [{"sequence": 4294967295, "scriptSig": {"hex": "483045022100cb4a58bb0717a67d019d90f046685fbd72f356118283fea92e1b547a318dd6340220505443569fffad3854a3ce7bac3a7601bf7a8b58091c7dd9d2fce9c66675d99f014104ae414abde7876c34e01694b38b2341d10b9b4c8db18a66262bd8df26bcb57893885c9fe8b79aa25330d5f05bb5aa9ab636a908a72e27956572b44190b22809be", "asm": "3045022100cb4a58bb0717a67d019d90f046685fbd72f356118283fea92e1b547a318dd6340220505443569fffad3854a3ce7bac3a7601bf7a8b58091c7dd9d2fce9c66675d99f[ALL] 04ae414abde7876c34e01694b38b2341d10b9b4c8db18a66262bd8df26bcb57893885c9fe8b79aa25330d5f05bb5aa9ab636a908a72e27956572b44190b22809be"}, "vout": 1, "txid": "d7f82cece0991e2b387bc3f4b3967fc9a57aed760bf7a822eb4f2dd448387578"}], "txid": "ef599b77d0a97a0381d05e7923b5ca0cde5ebaa664562db482bc37097e314118", "blocktime": 1537876114, "version": 2, "confirmations": 11460, "time": 1537876114, "locktime": 0, "vsize": 256, "size": 256}