{"hash": "ef599f2154ad14fd9f89b56cacfa846a6b3555228fab8c9401915dc0342de3f1", "blockhash": "000000000000000000205f8b0775d31398ef75b89a5e8ec8d2c57b4dc0ac4c20", "vout": [{"scriptPubKey": {"reqSigs": 1, "hex": "76a914af5f84207022e259891962a3ccf89fed6f0c0c7288ac", "addresses": ["1GzHg9WT87sZu8gWSr95ME9mDRw6ozNjeL"], "asm": "OP_DUP OP_HASH160 af5f84207022e259891962a3ccf89fed6f0c0c72 OP_EQUALVERIFY OP_CHECKSIG", "type": "pubkeyhash"}, "value": 0.46796907, "n": 0}, {"scriptPubKey": {"reqSigs": 1, "hex": "76a9147a64dbc5bf981f210d66a74c46e44bcce7a6777188ac", "addresses": ["1CAAGB5cEqQimRw3eCx1VtA7AwD3HwtgkX"], "asm": "OP_DUP OP_HASH160 7a64dbc5bf981f210d66a74c46e44bcce7a67771 OP_EQUALVERIFY OP_CHECKSIG", "type": "pubkeyhash"}, "value": 0.53201947, "n": 1}], "hex": "0100000001c4a6861f56992a4e66f4f716270c9c7f12c494bc940b63080e0217fcee7a8744000000006a47304402202e597b4037c71d91a6d3b49b9bb64480a4c60a2b891e27fa1677d126d05579da022069b26d9cb2e49de633063175e826ce2389cdda42d071f8a865bce14b4b92524e012102b613501e1c3a5cfc0364adff89b512361e5857a7fb2b3076a7fce7402468ab32ffffffff026b10ca02000000001976a914af5f84207022e259891962a3ccf89fed6f0c0c7288ac1bcc2b03000000001976a9147a64dbc5bf981f210d66a74c46e44bcce7a6777188ac00000000", "vin": [{"sequence": 4294967295, "scriptSig": {"hex": "47304402202e597b4037c71d91a6d3b49b9bb64480a4c60a2b891e27fa1677d126d05579da022069b26d9cb2e49de633063175e826ce2389cdda42d071f8a865bce14b4b92524e012102b613501e1c3a5cfc0364adff89b512361e5857a7fb2b3076a7fce7402468ab32", "asm": "304402202e597b4037c71d91a6d3b49b9bb64480a4c60a2b891e27fa1677d126d05579da022069b26d9cb2e49de633063175e826ce2389cdda42d071f8a865bce14b4b92524e[ALL] 02b613501e1c3a5cfc0364adff89b512361e5857a7fb2b3076a7fce7402468ab32"}, "vout": 0, "txid": "44877aeefc17020e08630b94bc94c4127f9c0c2716f7f4664e2a99561f86a6c4"}], "txid": "ef599f2154ad14fd9f89b56cacfa846a6b3555228fab8c9401915dc0342de3f1", "blocktime": 1537871175, "version": 1, "confirmations": 11511, "time": 1537871175, "locktime": 0, "vsize": 225, "size": 225}