{"hash": "ef603d06eabf80b68fd16c3a7b25cd95929f9b4a6bd086f4f067c015039c624f", "blockhash": "0000000000000000001f76057863aec43deb6fa401d9628bb513d65a8098bfab", "vout": [{"scriptPubKey": {"reqSigs": 1, "hex": "76a9143c98b1e8f733ccacb546af06fc230fb9151a7ba588ac", "addresses": ["16XQTwcvVY7sN8fV3GnDuxCYYr26m7ciDp"], "asm": "OP_DUP OP_HASH160 3c98b1e8f733ccacb546af06fc230fb9151a7ba5 OP_EQUALVERIFY OP_CHECKSIG", "type": "pubkeyhash"}, "value": 1e-05, "n": 0}, {"scriptPubKey": {"reqSigs": 1, "hex": "76a914fedce1cb7ecdcfec46b04bda25804a2a5fe2820d88ac", "addresses": ["1QEbEspJ9DPpYbAoZfdTR2x2Vxapoy1xm1"], "asm": "OP_DUP OP_HASH160 fedce1cb7ecdcfec46b04bda25804a2a5fe2820d OP_EQUALVERIFY OP_CHECKSIG", "type": "pubkeyhash"}, "value": 7.79e-06, "n": 1}], "hex": "01000000012750163223eb145c8cb21a62de0f87d44c5f9c3def1f36a0f30c6178c2bca1fa0c0400006b4830450221009e9b0b22542e652b35d32da77acc82aa0ada710a96260e7effae114168fa6ea10220492d91eb00dfe845bfcbef2207b248e629fa4f791977ef1340ced6dd91f9256b01210249d61c879c7135c0858079d70439dc91a3aff41ebe13bff4e38f158dab7b3acfffffffff02e8030000000000001976a9143c98b1e8f733ccacb546af06fc230fb9151a7ba588ac0b030000000000001976a914fedce1cb7ecdcfec46b04bda25804a2a5fe2820d88ac00000000", "vin": [{"sequence": 4294967295, "scriptSig": {"hex": "4830450221009e9b0b22542e652b35d32da77acc82aa0ada710a96260e7effae114168fa6ea10220492d91eb00dfe845bfcbef2207b248e629fa4f791977ef1340ced6dd91f9256b01210249d61c879c7135c0858079d70439dc91a3aff41ebe13bff4e38f158dab7b3acf", "asm": "30450221009e9b0b22542e652b35d32da77acc82aa0ada710a96260e7effae114168fa6ea10220492d91eb00dfe845bfcbef2207b248e629fa4f791977ef1340ced6dd91f9256b[ALL] 0249d61c879c7135c0858079d70439dc91a3aff41ebe13bff4e38f158dab7b3acf"}, "vout": 1036, "txid": "faa1bcc278610cf3a0361fef3d9c5f4cd4870fde621ab28c5c14eb2332165027"}], "txid": "ef603d06eabf80b68fd16c3a7b25cd95929f9b4a6bd086f4f067c015039c624f", "blocktime": 1537873891, "version": 1, "confirmations": 11476, "time": 1537873891, "locktime": 0, "vsize": 226, "size": 226}