{"hash": "571fff5123e99508eb9ad9a27b2afae595c391be85d6fc939d6e58d64346d134", "blockhash": "0000000000000000000e13cef7c366c0283d82e591d1acd082e914b08063cdf1", "vout": [{"scriptPubKey": {"reqSigs": 1, "hex": "76a9145f137542f1470ccf68cb17caa91a4af989ded36588ac", "addresses": ["19fiWCCZvuufMaUwXpmnS15oPc9nH2R78U"], "asm": "OP_DUP OP_HASH160 5f137542f1470ccf68cb17caa91a4af989ded365 OP_EQUALVERIFY OP_CHECKSIG", "type": "pubkeyhash"}, "value": 0.008, "n": 0}, {"scriptPubKey": {"reqSigs": 1, "hex": "a9145cc391931306d8381e034dbc25d4e68a341c015787", "addresses": ["3A9WNYHVtpL3x7T2k6PWSBexbUxLvRnAC7"], "asm": "OP_HASH160 5cc391931306d8381e034dbc25d4e68a341c0157 OP_EQUAL", "type": "scripthash"}, "value": 0.36063231, "n": 1}], "hex": "0100000000010159f6d8b6e0b636d38ee0470d3d100fae362a03ac3309e13ea9cdf441b4628dc201000000232200204a5db67497c8fffd22258b45a0632e2f62f0413f93bc32bc76f59b3cd8b8d533ffffffff0200350c00000000001976a9145f137542f1470ccf68cb17caa91a4af989ded36588acff4726020000000017a9145cc391931306d8381e034dbc25d4e68a341c015787040047304402203fcae51ab8df541ed29550b25e88238380d344a5aa80a3115f0f66f386a86c670220606bb0211507aebf4ade4e7b3a23c0963b9c315be63ebea58d1806f8544f98dc0147304402204882fe5a7fdc2fdbd6a26c1eaa8de737c7375ea2786b0e151e29166d4453cbf1022043be0ca431e580941185f8fbc6ba366a898c31b0ae666b278d191318c9a0df0b014752210344177476959ce581e4e19ad42fbc604b35104bfd6b40a91ed53a2e218a0c37cc21033cd5fcc68f940f6921c548e8539485080ee4267f6a52c9ffdc268036306f5cff52ae00000000", "vin": [{"txinwitness": ["", "304402203fcae51ab8df541ed29550b25e88238380d344a5aa80a3115f0f66f386a86c670220606bb0211507aebf4ade4e7b3a23c0963b9c315be63ebea58d1806f8544f98dc01", "304402204882fe5a7fdc2fdbd6a26c1eaa8de737c7375ea2786b0e151e29166d4453cbf1022043be0ca431e580941185f8fbc6ba366a898c31b0ae666b278d191318c9a0df0b01", "52210344177476959ce581e4e19ad42fbc604b35104bfd6b40a91ed53a2e218a0c37cc21033cd5fcc68f940f6921c548e8539485080ee4267f6a52c9ffdc268036306f5cff52ae"], "sequence": 4294967295, "scriptSig": {"hex": "2200204a5db67497c8fffd22258b45a0632e2f62f0413f93bc32bc76f59b3cd8b8d533", "asm": "00204a5db67497c8fffd22258b45a0632e2f62f0413f93bc32bc76f59b3cd8b8d533"}, "vout": 1, "txid": "c28d62b441f4cda93ee10933ac032a36ae0f103d0d47e08ed336b6e0b6d8f659"}], "txid": "ef6af5cdfacb6ccfbcd352e013c69322f60286aeb25f9453f846af90d9d86aa3", "blocktime": 1537871767, "version": 1, "confirmations": 11495, "time": 1537871767, "locktime": 0, "vsize": 207, "size": 372}