{"hash": "ef7d84a5bcd082be712b91a988d32b6fa18f98888faca158817f899542c320da", "blockhash": "00000000000000000004ffacab907a6b429b9a5745fa0b75af4234bf69dd7176", "vout": [{"scriptPubKey": {"reqSigs": 1, "hex": "76a914a25dec4d0011064ef106a983c39c7a540699f22088ac", "addresses": ["1FoWyxwPXuj4C6abqwhjDWdz6D4PZgYRjA"], "asm": "OP_DUP OP_HASH160 a25dec4d0011064ef106a983c39c7a540699f220 OP_EQUALVERIFY OP_CHECKSIG", "type": "pubkeyhash"}, "value": 0.01951912, "n": 0}, {"scriptPubKey": {"type": "nulldata", "hex": "6a146f6d6e69000000000000001f00000017490f7e80", "asm": "OP_RETURN 6f6d6e69000000000000001f00000017490f7e80"}, "value": 0.0, "n": 1}, {"scriptPubKey": {"reqSigs": 1, "hex": "76a914d6fb1640028ea152d91e47cbfb5a146cfa9a38bd88ac", "addresses": ["1LbiPsq4SJtQmw4DqUBke2K18XvWG5ik3H"], "asm": "OP_DUP OP_HASH160 d6fb1640028ea152d91e47cbfb5a146cfa9a38bd OP_EQUALVERIFY OP_CHECKSIG", "type": "pubkeyhash"}, "value": 5.46e-06, "n": 2}], "hex": "0100000001554f864f23ec492de6d4840ce2862ed5d0b83058fdcc0e7b80dc9b9a0ad204a2010000006b483045022100b71ba24ff495a028379b5dcfe9f60082bef930ed6dbd7f8e36b1c18ac36db5140220051fb1e27c7b19081676265d7fd7f8e8af283670210a0d8ff69ea95f3129eeb7012103da5bac7b36d5aa38f531c6b9601e21bb598a4b6716ebed38b009a55dabde9440feffffff03a8c81d00000000001976a914a25dec4d0011064ef106a983c39c7a540699f22088ac0000000000000000166a146f6d6e69000000000000001f00000017490f7e8022020000000000001976a914d6fb1640028ea152d91e47cbfb5a146cfa9a38bd88ac16490800", "vin": [{"sequence": 4294967294, "scriptSig": {"hex": "483045022100b71ba24ff495a028379b5dcfe9f60082bef930ed6dbd7f8e36b1c18ac36db5140220051fb1e27c7b19081676265d7fd7f8e8af283670210a0d8ff69ea95f3129eeb7012103da5bac7b36d5aa38f531c6b9601e21bb598a4b6716ebed38b009a55dabde9440", "asm": "3045022100b71ba24ff495a028379b5dcfe9f60082bef930ed6dbd7f8e36b1c18ac36db5140220051fb1e27c7b19081676265d7fd7f8e8af283670210a0d8ff69ea95f3129eeb7[ALL] 03da5bac7b36d5aa38f531c6b9601e21bb598a4b6716ebed38b009a55dabde9440"}, "vout": 1, "txid": "a204d20a9a9bdc807b0eccfd5830b8d0d52e86e20c84d4e62d49ec234f864f55"}], "txid": "ef7d84a5bcd082be712b91a988d32b6fa18f98888faca158817f899542c320da", "blocktime": 1537875543, "version": 1, "confirmations": 11464, "time": 1537875543, "locktime": 542998, "vsize": 257, "size": 257}