{"hash": "1463ac05c52b3d23aa613c876254a953cb5c7dcfffec0bab1632bf5c8ce3fd63", "blockhash": "0000000000000000001f76057863aec43deb6fa401d9628bb513d65a8098bfab", "vout": [{"scriptPubKey": {"reqSigs": 1, "hex": "76a914cdb05beb845029952b8d75b38effc5222d32f9bf88ac", "addresses": ["1Kkany8PzsLSxSqLeCmioBmzpjxE6o5zKV"], "asm": "OP_DUP OP_HASH160 cdb05beb845029952b8d75b38effc5222d32f9bf OP_EQUALVERIFY OP_CHECKSIG", "type": "pubkeyhash"}, "value": 0.01482695, "n": 0}, {"scriptPubKey": {"reqSigs": 1, "hex": "a9143adb31d6895b65809b82b2e73eaf12af654ac73c87", "addresses": ["374DhanNgBGwPMozQkTtmYPgyTou2oFxGk"], "asm": "OP_HASH160 3adb31d6895b65809b82b2e73eaf12af654ac73c OP_EQUAL", "type": "scripthash"}, "value": 0.01000553, "n": 1}], "hex": "02000000000102742b23c3856b5b56061e7031b75fd323d9f0ea07d440df76e91c884dfe63374601000000171600144a3831223d8262fd13c7fd0ca6fa436adaa4cc5efdfffffff686b7e24630adc2d501fdf100de06865270b3a0713a0dead35d93f46fd7726707000000171600143e064a7eda0c9c02033696f89edeb65c66dd54fbfdffffff02c79f1600000000001976a914cdb05beb845029952b8d75b38effc5222d32f9bf88ac69440f000000000017a9143adb31d6895b65809b82b2e73eaf12af654ac73c870247304402200efb08689b550115fb9166c081ff67fe052cf498c6fb2164e84a5ee0977b61b902206d1afc36dfa0e6b71306c544042755e187523b03d3bb24486c7dddf8018095ce0121030b6cef33141d69257be60952a2239d0aceb94283a14cbad2804fe2e9fc974dfb0247304402201e2a337d28597dda94c403b1b59f42b2ca731c48860ea2c966aa640f80b374be02207b8c06c205f4a09e6e49772171be889e9a062169fb91f42162dd33b16347379801210330427fa367f71e4c2d28ece4125af66d65334d104f207fc95d30db6f9f5f974400000000", "vin": [{"txinwitness": ["304402200efb08689b550115fb9166c081ff67fe052cf498c6fb2164e84a5ee0977b61b902206d1afc36dfa0e6b71306c544042755e187523b03d3bb24486c7dddf8018095ce01", "030b6cef33141d69257be60952a2239d0aceb94283a14cbad2804fe2e9fc974dfb"], "sequence": 4294967293, "scriptSig": {"hex": "1600144a3831223d8262fd13c7fd0ca6fa436adaa4cc5e", "asm": "00144a3831223d8262fd13c7fd0ca6fa436adaa4cc5e"}, "vout": 1, "txid": "463763fe4d881ce976df40d407eaf0d923d35fb731701e06565b6b85c3232b74"}, {"txinwitness": ["304402201e2a337d28597dda94c403b1b59f42b2ca731c48860ea2c966aa640f80b374be02207b8c06c205f4a09e6e49772171be889e9a062169fb91f42162dd33b16347379801", "0330427fa367f71e4c2d28ece4125af66d65334d104f207fc95d30db6f9f5f9744"], "sequence": 4294967293, "scriptSig": {"hex": "1600143e064a7eda0c9c02033696f89edeb65c66dd54fb", "asm": "00143e064a7eda0c9c02033696f89edeb65c66dd54fb"}, "vout": 7, "txid": "6772d76ff4935dd3ea0d3a71a0b370528606de00f1fd01d5c2ad3046e2b786f6"}], "txid": "ef7f24ba37626349250c8f8493f31b7c368e834e8571bc80cf1d5165e36a5ca2", "blocktime": 1537873891, "version": 2, "confirmations": 11478, "time": 1537873891, "locktime": 0, "vsize": 258, "size": 420}