{"hash": "72813a287a98ca7d4576f8a86b60c92d1be22df0e308e96bb6b94beb6a79f5aa", "blockhash": "000000000000000000022b45ed06c6f4ccd3cf7fb5ba4856ebd2e58215665228", "vout": [{"scriptPubKey": {"reqSigs": 1, "hex": "76a914a9b7f4d2462e09f5fd128551c1fc3e6e6e6e900388ac", "addresses": ["1GUPZvujdyh3trwVfjN3yYvqLRsp7ZjcNY"], "asm": "OP_DUP OP_HASH160 a9b7f4d2462e09f5fd128551c1fc3e6e6e6e9003 OP_EQUALVERIFY OP_CHECKSIG", "type": "pubkeyhash"}, "value": 0.002612, "n": 0}, {"scriptPubKey": {"reqSigs": 1, "hex": "a9148ce1786180aedc08a99425a7b996157ff05c0b9787", "addresses": ["3EXvdM4oid6MaAmcYkomfddK9hGqHsez1A"], "asm": "OP_HASH160 8ce1786180aedc08a99425a7b996157ff05c0b97 OP_EQUAL", "type": "scripthash"}, "value": 0.02177473, "n": 1}], "hex": "01000000000102a0e22bdd0cde13db04364262c058c51e3494098e027e35c567bc85d473ec0c6701000000232200201e8b08ff6f6dcea25be4ec787f2846e636a7049b9ed468a7eb12472595bd3edcffffffff6b69df73b7d03be4a212bc41942f678380e067ca6501f17d25417da4ed0b89e701000000232200201e8b08ff6f6dcea25be4ec787f2846e636a7049b9ed468a7eb12472595bd3edcffffffff0250fc0300000000001976a914a9b7f4d2462e09f5fd128551c1fc3e6e6e6e900388acc13921000000000017a9148ce1786180aedc08a99425a7b996157ff05c0b97870400483045022100bc33d14d72690e5c80e86970a610aa1f9c689980d74368bffc17f8efb07abb5c022016f86fde730dd791babc1d6df74fb21be0018191590d2f46bf0954604585117201483045022100b908ebc74ffcac36e2cfb5898ec1c00d7a2b7a67d7ecda4aa7315e024c077de10220392e78d1037d7aeb7f4be4feb74f456119755da9452177fa99f5b964f01525bf01475221027a268c4dbdee5466d9c4cdfce92221cf8bb23f7fcc7f1e73f7d7f2b350e288532103110e7eeb5380c93eb2fc9f5997e64e68bf4de158d120ecbb26a6336a25382c2d52ae040047304402204c8c400e50a918998c0044a0c89f01f89b87fe0084e9378d74b8fd3e7d67d50102206ef97b0630c9002d7f9b76021daad065973d5e63f2773952e6b227b8d97d4aea01483045022100f0c51f3c8d59f15cb319c589c0168e25eab584dda9cd266d9c064076324e69370220613e2907065bdf63a8ac3b1ebe1f010ceaa97a523b1140208f57232c3361af9a01475221027a268c4dbdee5466d9c4cdfce92221cf8bb23f7fcc7f1e73f7d7f2b350e288532103110e7eeb5380c93eb2fc9f5997e64e68bf4de158d120ecbb26a6336a25382c2d52ae00000000", "vin": [{"txinwitness": ["", "3045022100bc33d14d72690e5c80e86970a610aa1f9c689980d74368bffc17f8efb07abb5c022016f86fde730dd791babc1d6df74fb21be0018191590d2f46bf0954604585117201", "3045022100b908ebc74ffcac36e2cfb5898ec1c00d7a2b7a67d7ecda4aa7315e024c077de10220392e78d1037d7aeb7f4be4feb74f456119755da9452177fa99f5b964f01525bf01", "5221027a268c4dbdee5466d9c4cdfce92221cf8bb23f7fcc7f1e73f7d7f2b350e288532103110e7eeb5380c93eb2fc9f5997e64e68bf4de158d120ecbb26a6336a25382c2d52ae"], "sequence": 4294967295, "scriptSig": {"hex": "2200201e8b08ff6f6dcea25be4ec787f2846e636a7049b9ed468a7eb12472595bd3edc", "asm": "00201e8b08ff6f6dcea25be4ec787f2846e636a7049b9ed468a7eb12472595bd3edc"}, "vout": 1, "txid": "670cec73d485bc67c5357e028e0994341ec558c062423604db13de0cdd2be2a0"}, {"txinwitness": ["", "304402204c8c400e50a918998c0044a0c89f01f89b87fe0084e9378d74b8fd3e7d67d50102206ef97b0630c9002d7f9b76021daad065973d5e63f2773952e6b227b8d97d4aea01", "3045022100f0c51f3c8d59f15cb319c589c0168e25eab584dda9cd266d9c064076324e69370220613e2907065bdf63a8ac3b1ebe1f010ceaa97a523b1140208f57232c3361af9a01", "5221027a268c4dbdee5466d9c4cdfce92221cf8bb23f7fcc7f1e73f7d7f2b350e288532103110e7eeb5380c93eb2fc9f5997e64e68bf4de158d120ecbb26a6336a25382c2d52ae"], "sequence": 4294967295, "scriptSig": {"hex": "2200201e8b08ff6f6dcea25be4ec787f2846e636a7049b9ed468a7eb12472595bd3edc", "asm": "00201e8b08ff6f6dcea25be4ec787f2846e636a7049b9ed468a7eb12472595bd3edc"}, "vout": 1, "txid": "e7890beda47d41257df10165ca67e08083672f9441bc12a2e43bd0b773df696b"}], "txid": "ef81eecf7572452691a050e995d2b9601d8c1ee263e797468b6b314cce77811d", "blocktime": 1537869901, "version": 1, "confirmations": 11524, "time": 1537869901, "locktime": 0, "vsize": 339, "size": 669}