{"hash": "f2100bafdcbb29596bf4de6c5a46cc2785bb16dfece7584b33194af4e1e17f7d", "blockhash": "0000000000000000000baef3f32e3676a92c3b2e5da21b426e4f302fc371ce76", "vout": [{"scriptPubKey": {"reqSigs": 1, "hex": "a9147114ff11bb95044a68ad4ccb045288eb501c2e6387", "addresses": ["3BzwS5Di9vsXubLmjKE1Tx4Q2snpuAMrDy"], "asm": "OP_HASH160 7114ff11bb95044a68ad4ccb045288eb501c2e63 OP_EQUAL", "type": "scripthash"}, "value": 0.00145315, "n": 0}, {"scriptPubKey": {"reqSigs": 1, "hex": "a914e7cd09d7737e3ae1e651c046c9d35b45ab43759087", "addresses": ["3NpfeBF4GMvpGbNTKfYzSUKi8X2YtrXyWv"], "asm": "OP_HASH160 e7cd09d7737e3ae1e651c046c9d35b45ab437590 OP_EQUAL", "type": "scripthash"}, "value": 3.91e-05, "n": 1}], "hex": "0100000000010193b88db4c7e94bcc5d229677210d33b444517ddbac8194ea6a370c07617fcf0e01000000171600143dcf789678c0222a0c05e6706c7bc8e7c9a3457effffffff02a33702000000000017a9147114ff11bb95044a68ad4ccb045288eb501c2e6387460f00000000000017a914e7cd09d7737e3ae1e651c046c9d35b45ab437590870247304402201db1b7890db4de14cdf1e0d142cd65c91bef4e9db5156d36fd492e8136ef18d402206d32b5faba181f71b2535ab8176bdda8360ee9cb96e5441eef491bbf4d181122012103160ec527d2ff7f589ddc2fa04a029bc3c7b3f6f122d057a702428d3d71439d8e00000000", "vin": [{"txinwitness": ["304402201db1b7890db4de14cdf1e0d142cd65c91bef4e9db5156d36fd492e8136ef18d402206d32b5faba181f71b2535ab8176bdda8360ee9cb96e5441eef491bbf4d18112201", "03160ec527d2ff7f589ddc2fa04a029bc3c7b3f6f122d057a702428d3d71439d8e"], "sequence": 4294967295, "scriptSig": {"hex": "1600143dcf789678c0222a0c05e6706c7bc8e7c9a3457e", "asm": "00143dcf789678c0222a0c05e6706c7bc8e7c9a3457e"}, "vout": 1, "txid": "0ecf7f61070c376aea9481acdb7d5144b4330d217796225dcc4be9c7b48db893"}], "txid": "ef83c00d1d30d29bc90e97fa3d55e8369be6bf4356335e83beb0174c5e82ab3f", "blocktime": 1537876114, "version": 1, "confirmations": 11459, "time": 1537876114, "locktime": 0, "vsize": 166, "size": 247}