{"hash": "2cf3dd23b5040dc94f7f0ad3b473e57b2dda12d5875d3bed4d867668fb29b916", "blockhash": "0000000000000000001f76057863aec43deb6fa401d9628bb513d65a8098bfab", "vout": [{"scriptPubKey": {"reqSigs": 1, "hex": "76a914870d3d9d6401225331193af5afaf32de2b5b480888ac", "addresses": ["1DK65soTT7vRybAzxHENHMaf5q9dxsaPVg"], "asm": "OP_DUP OP_HASH160 870d3d9d6401225331193af5afaf32de2b5b4808 OP_EQUALVERIFY OP_CHECKSIG", "type": "pubkeyhash"}, "value": 0.0022746, "n": 0}, {"scriptPubKey": {"reqSigs": 1, "hex": "a914be82dcf6507c9beb8eea45fd970a448f8aefbb0887", "addresses": ["3K4M5XCQdL1hp5pGca63BpkD5QtKft3WsH"], "asm": "OP_HASH160 be82dcf6507c9beb8eea45fd970a448f8aefbb08 OP_EQUAL", "type": "scripthash"}, "value": 0.01021638, "n": 1}], "hex": "020000000001022ce8e57b49bedf41ffa99c274345b497aa86f1e1b3936f27219cffd2a081b1750100000017160014cae9df934ddc0c54944abe242ad9bf77bdbdcfa4feffffff7591543833ddef25717abfa6d11de5dcfc379d21f7c08225f8c09f542c5efe0f00000000171600141689408004c988d703b779a048d87b405576f517feffffff0284780300000000001976a914870d3d9d6401225331193af5afaf32de2b5b480888acc6960f000000000017a914be82dcf6507c9beb8eea45fd970a448f8aefbb08870247304402204cb5599487d4ac6336c828694b4c3cabe62159f14ede8f15e0bf235f01c38e4f022079c76d02f66536579980c208f9a713077c9a153d8e12b38ece8444251388c6670121039023b0ffd58b6376eaba7e76bc429eba6868d427b146f594b70ed99fef20bd1d0247304402206bc68daf99560b882338a323eac2e88b6a5c09aafa812f2b4a802336f279e6a5022019ad312e72280455b6c73019a3ec6048024b50700b44f59cc714e48bb216cc55012102d70c846e5e6403dc8c29413002fa4e00988a1d7ba7a02896f5fe9e60e0d615eb14490800", "vin": [{"txinwitness": ["304402204cb5599487d4ac6336c828694b4c3cabe62159f14ede8f15e0bf235f01c38e4f022079c76d02f66536579980c208f9a713077c9a153d8e12b38ece8444251388c66701", "039023b0ffd58b6376eaba7e76bc429eba6868d427b146f594b70ed99fef20bd1d"], "sequence": 4294967294, "scriptSig": {"hex": "160014cae9df934ddc0c54944abe242ad9bf77bdbdcfa4", "asm": "0014cae9df934ddc0c54944abe242ad9bf77bdbdcfa4"}, "vout": 1, "txid": "75b181a0d2ff9c21276f93b3e1f186aa97b44543279ca9ff41dfbe497be5e82c"}, {"txinwitness": ["304402206bc68daf99560b882338a323eac2e88b6a5c09aafa812f2b4a802336f279e6a5022019ad312e72280455b6c73019a3ec6048024b50700b44f59cc714e48bb216cc5501", "02d70c846e5e6403dc8c29413002fa4e00988a1d7ba7a02896f5fe9e60e0d615eb"], "sequence": 4294967294, "scriptSig": {"hex": "1600141689408004c988d703b779a048d87b405576f517", "asm": "00141689408004c988d703b779a048d87b405576f517"}, "vout": 0, "txid": "0ffe5e2c549fc0f82582c0f7219d37fcdce51dd1a6bf7a7125efdd3338549175"}], "txid": "ef86c571b419f81728b6f9801ae59d03730689e4639004c846eab6529a9ebc71", "blocktime": 1537873891, "version": 2, "confirmations": 11478, "time": 1537873891, "locktime": 542996, "vsize": 258, "size": 420}