{"hash": "ef89e1123face4754a45927e773b0a462102ff197856be7b4cc13cc5cbf58fc8", "blockhash": "0000000000000000001e0dab787dd257d1dbfcb92a98c2207d5e1078be1f4165", "vout": [{"scriptPubKey": {"reqSigs": 1, "hex": "76a914b8bbdbb65986aa8deac73d70770f12d92dbea5af88ac", "addresses": ["1HqnNvBWb7yTMtE9uYq198kVVtGFyBnJsu"], "asm": "OP_DUP OP_HASH160 b8bbdbb65986aa8deac73d70770f12d92dbea5af OP_EQUALVERIFY OP_CHECKSIG", "type": "pubkeyhash"}, "value": 0.040299, "n": 0}, {"scriptPubKey": {"reqSigs": 1, "hex": "76a914731ac1ce41d88adc665c3e4fcca8ec98c549808888ac", "addresses": ["1BVcmB3XvxFCoSAFiyqRK6nq5rqRGdUH4P"], "asm": "OP_DUP OP_HASH160 731ac1ce41d88adc665c3e4fcca8ec98c5498088 OP_EQUALVERIFY OP_CHECKSIG", "type": "pubkeyhash"}, "value": 0.05206868, "n": 1}], "hex": "010000000318b8ecc303b26fd0f46cdd039b2d95ff404a3c9daa583482410b125ce253b30e000000006b4830450221008bce03884c57046257da694862aa920a64ce759c53373e2dd3f33fba09da4725022027e0ce7664907a3afde025a9a0f0298d0133878939faae4486646ec672855f890121021c066666a49f36a84cdc545361f58c61a53c0aefc1a3c3bc0b8a6943df0c3365ffffffffdcf9f30c07b79a648ef1d32ea80308992c17261212d0bac4fe038c6e1c65a761010000006b48304502210096766a2b52bb22ab655cc247c1d1fa9f1d4d2c3eb656a0a69c934e97a1f10cf50220081c6ef144aa3a742aab936d06020603f90761aad88a102fdd0a3b47e57354b001210367519d02ccb778e5ab2f1a3741a166f0f9bb424066898a7cc0fe1f552315a6d3ffffffff51b2735f2f6a420049b2efb03a20d670e9c437973f4904d5297bdf5d1b6f9967010000006a47304402205358c274cd2e169fea645bbb6f15fbc107c9a477d0fb8696d5f4dba0b755920c02201d87b311e555cd1667a52e0cc0447719042eb19af0a7cb4728f5ae571f21b41a0121027db0f64877762100dbe6b9bc4daa95c2b4d7f3ca0762550494492ddb2aaeac99ffffffff02cc7d3d00000000001976a914b8bbdbb65986aa8deac73d70770f12d92dbea5af88ac54734f00000000001976a914731ac1ce41d88adc665c3e4fcca8ec98c549808888ac00000000", "vin": [{"sequence": 4294967295, "scriptSig": {"hex": "4830450221008bce03884c57046257da694862aa920a64ce759c53373e2dd3f33fba09da4725022027e0ce7664907a3afde025a9a0f0298d0133878939faae4486646ec672855f890121021c066666a49f36a84cdc545361f58c61a53c0aefc1a3c3bc0b8a6943df0c3365", "asm": "30450221008bce03884c57046257da694862aa920a64ce759c53373e2dd3f33fba09da4725022027e0ce7664907a3afde025a9a0f0298d0133878939faae4486646ec672855f89[ALL] 021c066666a49f36a84cdc545361f58c61a53c0aefc1a3c3bc0b8a6943df0c3365"}, "vout": 0, "txid": "0eb353e25c120b41823458aa9d3c4a40ff952d9b03dd6cf4d06fb203c3ecb818"}, {"sequence": 4294967295, "scriptSig": {"hex": "48304502210096766a2b52bb22ab655cc247c1d1fa9f1d4d2c3eb656a0a69c934e97a1f10cf50220081c6ef144aa3a742aab936d06020603f90761aad88a102fdd0a3b47e57354b001210367519d02ccb778e5ab2f1a3741a166f0f9bb424066898a7cc0fe1f552315a6d3", "asm": "304502210096766a2b52bb22ab655cc247c1d1fa9f1d4d2c3eb656a0a69c934e97a1f10cf50220081c6ef144aa3a742aab936d06020603f90761aad88a102fdd0a3b47e57354b0[ALL] 0367519d02ccb778e5ab2f1a3741a166f0f9bb424066898a7cc0fe1f552315a6d3"}, "vout": 1, "txid": "61a7651c6e8c03fec4bad0121226172c990803a82ed3f18e649ab7070cf3f9dc"}, {"sequence": 4294967295, "scriptSig": {"hex": "47304402205358c274cd2e169fea645bbb6f15fbc107c9a477d0fb8696d5f4dba0b755920c02201d87b311e555cd1667a52e0cc0447719042eb19af0a7cb4728f5ae571f21b41a0121027db0f64877762100dbe6b9bc4daa95c2b4d7f3ca0762550494492ddb2aaeac99", "asm": "304402205358c274cd2e169fea645bbb6f15fbc107c9a477d0fb8696d5f4dba0b755920c02201d87b311e555cd1667a52e0cc0447719042eb19af0a7cb4728f5ae571f21b41a[ALL] 027db0f64877762100dbe6b9bc4daa95c2b4d7f3ca0762550494492ddb2aaeac99"}, "vout": 1, "txid": "67996f1b5ddf7b29d504493f9737c4e970d6203ab0efb24900426a2f5f73b251"}], "txid": "ef89e1123face4754a45927e773b0a462102ff197856be7b4cc13cc5cbf58fc8", "blocktime": 1537872475, "version": 1, "confirmations": 11487, "time": 1537872475, "locktime": 0, "vsize": 521, "size": 521}