{"hash": "8a29e5712fabbb3f18d47d353f1837fab100a982055b5ffe41ddc8ae336c5e3a", "blockhash": "0000000000000000001f0ddff1eddb255c1121bcd4da4f1bc9a0da00cae72433", "vout": [{"scriptPubKey": {"reqSigs": 1, "hex": "a91422e3cf0f1be221ce0146a6c68564c0c39c1e84ad87", "addresses": ["34sVoVzEzPJkHqhZqGbR4WLaaTvcVYgyTn"], "asm": "OP_HASH160 22e3cf0f1be221ce0146a6c68564c0c39c1e84ad OP_EQUAL", "type": "scripthash"}, "value": 0.00999704, "n": 0}, {"scriptPubKey": {"reqSigs": 1, "hex": "76a9142693c4e2167abd04825703e7a3367d6b12288aeb88ac", "addresses": ["14WyhTxppffkA8xV3PdhAcnBYW2wSPoUDP"], "asm": "OP_DUP OP_HASH160 2693c4e2167abd04825703e7a3367d6b12288aeb OP_EQUALVERIFY OP_CHECKSIG", "type": "pubkeyhash"}, "value": 0.157653, "n": 1}], "hex": "020000000001032b0d886502694b6fd4677330c3c5fdede7229ea818052cc7d46b5ddb2b1ed2c300000000171600147f9ce4934e731744896ad79531358c58d04a51f8feffffff76cfa773d21efac070f6aa2eeff9a7004693f32a199c67085bda1de4b7995f160000000017160014a95bfc03ed3233fcdcc70fc1729126158abbd4b3feffffffa3f0b0cedc659e04958dda27de89b22ce0e326c4b8d0a181506fef24363f29c4010000001716001425824094dd1e606ff2a12f4d8916052dad91dd3dfeffffff0218410f000000000017a91422e3cf0f1be221ce0146a6c68564c0c39c1e84ad87348ff000000000001976a9142693c4e2167abd04825703e7a3367d6b12288aeb88ac0247304402200833275e846f804c9063b7be44d30b2b83a6152e323f5359c6fe7c5f68cebea10220057741ab4b2afec2e160477c8b70a15dfd5914ba3f7ec9df116e487a9a84d72b0121032eed64ff0c865a2897fc32a9fa9c6505e246bde029f4bbf70548a600aa1103a602483045022100f9e2b2accc934d20a238267e52809aa6cb247f421882a24bb47c8a1b21b89fd30220263e59abe841c17cd3feb81df092fd5e535257debcf756b141907502736a4da8012102264beea9e4e568a8e23cf38c1f719491e13e4f78bd5b4830c1b9fbc1e4c668ef02473044022073043388ff14a833de90fa8d3ad076cec3b11cbe2387bb1594ab4325c156b98f02204b547b6cf4367847d758d3920e4017e9ecc3721018e08a178f2772c9506c174f012103a72a83491efb3167ca0d9d0b89d0e3f9b1da62ba512e8675f4fe956e4b4c20c910490800", "vin": [{"txinwitness": ["304402200833275e846f804c9063b7be44d30b2b83a6152e323f5359c6fe7c5f68cebea10220057741ab4b2afec2e160477c8b70a15dfd5914ba3f7ec9df116e487a9a84d72b01", "032eed64ff0c865a2897fc32a9fa9c6505e246bde029f4bbf70548a600aa1103a6"], "sequence": 4294967294, "scriptSig": {"hex": "1600147f9ce4934e731744896ad79531358c58d04a51f8", "asm": "00147f9ce4934e731744896ad79531358c58d04a51f8"}, "vout": 0, "txid": "c3d21e2bdb5d6bd4c72c0518a89e22e7edfdc5c3307367d46f4b690265880d2b"}, {"txinwitness": ["3045022100f9e2b2accc934d20a238267e52809aa6cb247f421882a24bb47c8a1b21b89fd30220263e59abe841c17cd3feb81df092fd5e535257debcf756b141907502736a4da801", "02264beea9e4e568a8e23cf38c1f719491e13e4f78bd5b4830c1b9fbc1e4c668ef"], "sequence": 4294967294, "scriptSig": {"hex": "160014a95bfc03ed3233fcdcc70fc1729126158abbd4b3", "asm": "0014a95bfc03ed3233fcdcc70fc1729126158abbd4b3"}, "vout": 0, "txid": "165f99b7e41dda5b08679c192af3934600a7f9ef2eaaf670c0fa1ed273a7cf76"}, {"txinwitness": ["3044022073043388ff14a833de90fa8d3ad076cec3b11cbe2387bb1594ab4325c156b98f02204b547b6cf4367847d758d3920e4017e9ecc3721018e08a178f2772c9506c174f01", "03a72a83491efb3167ca0d9d0b89d0e3f9b1da62ba512e8675f4fe956e4b4c20c9"], "sequence": 4294967294, "scriptSig": {"hex": "16001425824094dd1e606ff2a12f4d8916052dad91dd3d", "asm": "001425824094dd1e606ff2a12f4d8916052dad91dd3d"}, "vout": 1, "txid": "c4293f3624ef6f5081a1d0b8c426e3e02cb289de27da8d95049e65dcceb0f0a3"}], "txid": "ef93d7e5839b8dece1925ebf539cdd587cc8c1ac03cf8851854e1b2481a67c2f", "blocktime": 1537872018, "version": 2, "confirmations": 11489, "time": 1537872018, "locktime": 542992, "vsize": 349, "size": 592}