{"hash": "ef945a4ab8bfe858a37702fca8304bf26140f92d36dbafb87c520abfa0bc8fe3", "blockhash": "00000000000000000018f53835495a110e01622372bf6ae95dc86f2b0ab887b0", "vout": [{"scriptPubKey": {"reqSigs": 1, "hex": "76a914ec203d86602a7c85273a5de319365f22832750d888ac", "addresses": ["1NXX6NRymicPWqqRKtUvbxgvDrtgjkQRbS"], "asm": "OP_DUP OP_HASH160 ec203d86602a7c85273a5de319365f22832750d8 OP_EQUALVERIFY OP_CHECKSIG", "type": "pubkeyhash"}, "value": 0.00104695, "n": 0}, {"scriptPubKey": {"reqSigs": 1, "hex": "76a914d1600082dfab220b085222677fdab1837831673388ac", "addresses": ["1L65ERqcziNWBP9dRUhHy437TyRjrwzMoC"], "asm": "OP_DUP OP_HASH160 d1600082dfab220b085222677fdab18378316733 OP_EQUALVERIFY OP_CHECKSIG", "type": "pubkeyhash"}, "value": 0.00546393, "n": 1}], "hex": "01000000015e6b5c11aa908986f98c284f2b5f68ab5650b8711360957d8f79a3f835a2f958000000006a473044022039d3ce8be335b036027557da49a01cad133383168cf90908a4e7ac742367f7ef0220669948670318fecf74e27c9bdbcec1cb3dee59b03694e168e6200f0a34c9b4600121031b7d0daea6c63839b745ab4a71e8c06e7039f11b6ebc895d9674722dda391d17ffffffff02f7980100000000001976a914ec203d86602a7c85273a5de319365f22832750d888ac59560800000000001976a914d1600082dfab220b085222677fdab1837831673388ac00000000", "vin": [{"sequence": 4294967295, "scriptSig": {"hex": "473044022039d3ce8be335b036027557da49a01cad133383168cf90908a4e7ac742367f7ef0220669948670318fecf74e27c9bdbcec1cb3dee59b03694e168e6200f0a34c9b4600121031b7d0daea6c63839b745ab4a71e8c06e7039f11b6ebc895d9674722dda391d17", "asm": "3044022039d3ce8be335b036027557da49a01cad133383168cf90908a4e7ac742367f7ef0220669948670318fecf74e27c9bdbcec1cb3dee59b03694e168e6200f0a34c9b460[ALL] 031b7d0daea6c63839b745ab4a71e8c06e7039f11b6ebc895d9674722dda391d17"}, "vout": 0, "txid": "58f9a235f8a3798f7d95601371b85056ab685f2b4f288cf9868990aa115c6b5e"}], "txid": "ef945a4ab8bfe858a37702fca8304bf26140f92d36dbafb87c520abfa0bc8fe3", "blocktime": 1537870928, "version": 1, "confirmations": 11514, "time": 1537870928, "locktime": 0, "vsize": 225, "size": 225}