{"hash": "ef95913da1384772077fcffb09300233423e814efe9d9cb33a826eee2799721a", "blockhash": "0000000000000000001cda96e906b7601b7a6fb1a3b62bca570a9e5d8f4b3de1", "vout": [{"scriptPubKey": {"reqSigs": 1, "hex": "a91431a49902234806546b3cb61398b2ac941a70295687", "addresses": ["36DWDPenyt63Zfbho9VnbMh85LJgf9BxKj"], "asm": "OP_HASH160 31a49902234806546b3cb61398b2ac941a702956 OP_EQUAL", "type": "scripthash"}, "value": 0.31523278, "n": 0}, {"scriptPubKey": {"reqSigs": 1, "hex": "76a91497089db10f0c71e0a4669d321bdaf2bd7effb7ec88ac", "addresses": ["1EmbMch9nr4GKhmQuWEdvDzcx2nnnXtk7q"], "asm": "OP_DUP OP_HASH160 97089db10f0c71e0a4669d321bdaf2bd7effb7ec OP_EQUALVERIFY OP_CHECKSIG", "type": "pubkeyhash"}, "value": 0.79462722, "n": 1}], "hex": "0100000001643efc6ba3a6643906d5f8568327fb2916482e2d85473a0e4db3d0bcbaace2ad000000006b483045022100a445f341488001c4dc3f12da22249a14ed7ce5a5c332f98c0dfc50116ed64876022044b0a2e3dc420a2601f8d29a95b75fb18bf218d0e3e0522444d41f93aae4e33301210241408407df5cfe3906d5754eddb3d2c5d948d9c1b8772432b781697e09216ab1ffffffff02ce01e1010000000017a91431a49902234806546b3cb61398b2ac941a702956874281bc04000000001976a91497089db10f0c71e0a4669d321bdaf2bd7effb7ec88ac00000000", "vin": [{"sequence": 4294967295, "scriptSig": {"hex": "483045022100a445f341488001c4dc3f12da22249a14ed7ce5a5c332f98c0dfc50116ed64876022044b0a2e3dc420a2601f8d29a95b75fb18bf218d0e3e0522444d41f93aae4e33301210241408407df5cfe3906d5754eddb3d2c5d948d9c1b8772432b781697e09216ab1", "asm": "3045022100a445f341488001c4dc3f12da22249a14ed7ce5a5c332f98c0dfc50116ed64876022044b0a2e3dc420a2601f8d29a95b75fb18bf218d0e3e0522444d41f93aae4e333[ALL] 0241408407df5cfe3906d5754eddb3d2c5d948d9c1b8772432b781697e09216ab1"}, "vout": 0, "txid": "ade2acbabcd0b34d0e3a47852d2e481629fb278356f8d5063964a6a36bfc3e64"}], "txid": "ef95913da1384772077fcffb09300233423e814efe9d9cb33a826eee2799721a", "blocktime": 1537873282, "version": 1, "confirmations": 11480, "time": 1537873282, "locktime": 0, "vsize": 224, "size": 224}