{"hash": "0e6663bee2c0fe25e8ea0f1a744dbbb6a2de3829d0e6b09b8c2a1abd01b54f0d", "blockhash": "00000000000000000017f5eb5941039fbcee6240d03bc1f2f8e35350df66a1d8", "vout": [{"scriptPubKey": {"reqSigs": 1, "hex": "a91423e114bfd9df4ebc3c801bb2ecbfdb6a52b3413687", "addresses": ["34xjDASJArMDMJkhFwkeeaYcxRkZTPS9Gs"], "asm": "OP_HASH160 23e114bfd9df4ebc3c801bb2ecbfdb6a52b34136 OP_EQUAL", "type": "scripthash"}, "value": 0.05398564, "n": 0}], "hex": "010000000001014bf44700fdee0695855716af0a2d9a47d6f79f3dd7e70df675c02385f65a01e500000000171600145dc91fe0bbd8ddef4e961fb3240c4e576ef253950000000001246052000000000017a91423e114bfd9df4ebc3c801bb2ecbfdb6a52b34136870247304402200f5bdbdb5d73f90812bc9bf676dbc01d8c6c96c90001a314cde37a4b85c2865b02202fe8472fe30a0220059f5f89b9ae44741f2d9897b7acef6ab372cf769ac88c910121027f482e8ce494f868a899c11fa8bdad6bcba55398baf7a5ce8db16639a471262100000000", "vin": [{"txinwitness": ["304402200f5bdbdb5d73f90812bc9bf676dbc01d8c6c96c90001a314cde37a4b85c2865b02202fe8472fe30a0220059f5f89b9ae44741f2d9897b7acef6ab372cf769ac88c9101", "027f482e8ce494f868a899c11fa8bdad6bcba55398baf7a5ce8db16639a4712621"], "sequence": 0, "scriptSig": {"hex": "1600145dc91fe0bbd8ddef4e961fb3240c4e576ef25395", "asm": "00145dc91fe0bbd8ddef4e961fb3240c4e576ef25395"}, "vout": 0, "txid": "e5015af68523c075f60de7d73d9ff7d6479a2d0aaf1657859506eefd0047f44b"}], "txid": "ef97037aaf6a4dfe18ef0cbcea903eee89d5abd217ddf1a493ce890e3a41ea1d", "blocktime": 1537874412, "version": 1, "confirmations": 11467, "time": 1537874412, "locktime": 0, "vsize": 134, "size": 215}