{"hash": "ef99e45cc022fcd138b7e641d3bb587cef0aa352a8350edc69064dd5a02625e8", "blockhash": "0000000000000000001e0dab787dd257d1dbfcb92a98c2207d5e1078be1f4165", "vout": [{"scriptPubKey": {"reqSigs": 1, "hex": "a914234bebe3b7de9c6e22d1bf9bbd008a8f834f5f6687", "addresses": ["34ueXNYJ8uWhokNYLfdzdN7YSdAhrV6fvJ"], "asm": "OP_HASH160 234bebe3b7de9c6e22d1bf9bbd008a8f834f5f66 OP_EQUAL", "type": "scripthash"}, "value": 0.001, "n": 0}, {"scriptPubKey": {"reqSigs": 1, "hex": "76a914520e4782945fc30143454d3ef584314d77ef8a7788ac", "addresses": ["18UsWso6A7e2GANXnrRgWcSc2jmc11149b"], "asm": "OP_DUP OP_HASH160 520e4782945fc30143454d3ef584314d77ef8a77 OP_EQUALVERIFY OP_CHECKSIG", "type": "pubkeyhash"}, "value": 1.27261001, "n": 1}], "hex": "0100000001a70535ca8b6a5116db5adc594cbe5b63754606f5bb35ef8c514e657ff7b19b24010000006b483045022100ec507c355eabb50b03030085ea88bc672a3c55a306ba88cf5d0d030facb5040202205c33a2896673e17b9d918bd09a241adf2ed3f81fe833af435394f9fae57a051901210379d4a4f7d11c52499cfe8ba644c8ede511e87d23ea8d7f68241d8870eeb5e923ffffffff02a08601000000000017a914234bebe3b7de9c6e22d1bf9bbd008a8f834f5f668749d99507000000001976a914520e4782945fc30143454d3ef584314d77ef8a7788ac00000000", "vin": [{"sequence": 4294967295, "scriptSig": {"hex": "483045022100ec507c355eabb50b03030085ea88bc672a3c55a306ba88cf5d0d030facb5040202205c33a2896673e17b9d918bd09a241adf2ed3f81fe833af435394f9fae57a051901210379d4a4f7d11c52499cfe8ba644c8ede511e87d23ea8d7f68241d8870eeb5e923", "asm": "3045022100ec507c355eabb50b03030085ea88bc672a3c55a306ba88cf5d0d030facb5040202205c33a2896673e17b9d918bd09a241adf2ed3f81fe833af435394f9fae57a0519[ALL] 0379d4a4f7d11c52499cfe8ba644c8ede511e87d23ea8d7f68241d8870eeb5e923"}, "vout": 1, "txid": "249bb1f77f654e518cef35bbf5064675635bbe4c59dc5adb16516a8bca3505a7"}], "txid": "ef99e45cc022fcd138b7e641d3bb587cef0aa352a8350edc69064dd5a02625e8", "blocktime": 1537872475, "version": 1, "confirmations": 11487, "time": 1537872475, "locktime": 0, "vsize": 224, "size": 224}