{"hash": "ef9c01d7deba960a210271fadc94dfca8c984ea1bc7701fc799635e93502234c", "blockhash": "0000000000000000000e13cef7c366c0283d82e591d1acd082e914b08063cdf1", "vout": [{"scriptPubKey": {"reqSigs": 1, "hex": "76a914dfaf3b7f2a8ef2fff0175545726581733146298588ac", "addresses": ["1MPjc961WDbw34TSTXdtxViS42Pvj8asoh"], "asm": "OP_DUP OP_HASH160 dfaf3b7f2a8ef2fff01755457265817331462985 OP_EQUALVERIFY OP_CHECKSIG", "type": "pubkeyhash"}, "value": 0.0057143, "n": 0}, {"scriptPubKey": {"reqSigs": 1, "hex": "76a914d451aea988d9dd3eb68d485d8d14661d14beeb8f88ac", "addresses": ["1LMe741pxDG5b9Ay6tcDAbmmY1sjJ6CW4A"], "asm": "OP_DUP OP_HASH160 d451aea988d9dd3eb68d485d8d14661d14beeb8f OP_EQUALVERIFY OP_CHECKSIG", "type": "pubkeyhash"}, "value": 0.03129629, "n": 1}], "hex": "010000000165d712a76815f022f1dc516a7d9c2b531797902432987260c9f3259cb48f0f840c0000006b483045022100f89f700386e7eb4a51e28610239faa7f99942ccc2f13b7d9e308437e7acd7515022059bec88e32ef0656768fdca7367669a9f6e2995886308236c47a41903a6c552d01210294c1df7b55dec69865b352ef3a2701317a8bed8dd0d4446cb3141fd8bbe2fb63ffffffff0226b80800000000001976a914dfaf3b7f2a8ef2fff0175545726581733146298588ac1dc12f00000000001976a914d451aea988d9dd3eb68d485d8d14661d14beeb8f88ac00000000", "vin": [{"sequence": 4294967295, "scriptSig": {"hex": "483045022100f89f700386e7eb4a51e28610239faa7f99942ccc2f13b7d9e308437e7acd7515022059bec88e32ef0656768fdca7367669a9f6e2995886308236c47a41903a6c552d01210294c1df7b55dec69865b352ef3a2701317a8bed8dd0d4446cb3141fd8bbe2fb63", "asm": "3045022100f89f700386e7eb4a51e28610239faa7f99942ccc2f13b7d9e308437e7acd7515022059bec88e32ef0656768fdca7367669a9f6e2995886308236c47a41903a6c552d[ALL] 0294c1df7b55dec69865b352ef3a2701317a8bed8dd0d4446cb3141fd8bbe2fb63"}, "vout": 12, "txid": "840f8fb49c25f3c96072983224909717532b9c7d6a51dcf122f01568a712d765"}], "txid": "ef9c01d7deba960a210271fadc94dfca8c984ea1bc7701fc799635e93502234c", "blocktime": 1537871767, "version": 1, "confirmations": 11493, "time": 1537871767, "locktime": 0, "vsize": 226, "size": 226}