{"hash": "ef9e1b1059825f14daf77dd25daee598703ff86fc36b8ef7dc31af460cf6a599", "blockhash": "0000000000000000000baef3f32e3676a92c3b2e5da21b426e4f302fc371ce76", "vout": [{"scriptPubKey": {"reqSigs": 1, "hex": "76a9145e8f8d2b421ad7c426c5ca21fa590b1d17a8df1b88ac", "addresses": ["19czVALopypbQnxPx7UCj1chdhRZFtZiFq"], "asm": "OP_DUP OP_HASH160 5e8f8d2b421ad7c426c5ca21fa590b1d17a8df1b OP_EQUALVERIFY OP_CHECKSIG", "type": "pubkeyhash"}, "value": 0.15034696, "n": 0}, {"scriptPubKey": {"reqSigs": 1, "hex": "76a914430b9da0f04d570c9ab8b5a23ab21025b41c0fe988ac", "addresses": ["177WBvqSUte2quFBqMv6HZ9Jf5G4PuQSo4"], "asm": "OP_DUP OP_HASH160 430b9da0f04d570c9ab8b5a23ab21025b41c0fe9 OP_EQUALVERIFY OP_CHECKSIG", "type": "pubkeyhash"}, "value": 0.23544184, "n": 1}], "hex": "01000000014ed2106809866de1ed7f23d46a82ad6b8ece738b420f71582fd578d5e5afb9f5010000006a47304402203a2176318d8cfe95be90ac3942144abfd9aee60dda117605df2176ee8e19c5c002202d1575018000572ab100ffa5f2ec25b74e86ad595c3f60cad360f6b92e47e04a0121023777d43b652cb0b7480483ec29ca814d574389fdba65d8ca645bb7eaec04738fffffffff024869e500000000001976a9145e8f8d2b421ad7c426c5ca21fa590b1d17a8df1b88ac78416701000000001976a914430b9da0f04d570c9ab8b5a23ab21025b41c0fe988ac00000000", "vin": [{"sequence": 4294967295, "scriptSig": {"hex": "47304402203a2176318d8cfe95be90ac3942144abfd9aee60dda117605df2176ee8e19c5c002202d1575018000572ab100ffa5f2ec25b74e86ad595c3f60cad360f6b92e47e04a0121023777d43b652cb0b7480483ec29ca814d574389fdba65d8ca645bb7eaec04738f", "asm": "304402203a2176318d8cfe95be90ac3942144abfd9aee60dda117605df2176ee8e19c5c002202d1575018000572ab100ffa5f2ec25b74e86ad595c3f60cad360f6b92e47e04a[ALL] 023777d43b652cb0b7480483ec29ca814d574389fdba65d8ca645bb7eaec04738f"}, "vout": 1, "txid": "f5b9afe5d578d52f58710f428b73ce8e6bad826ad4237fede16d86096810d24e"}], "txid": "ef9e1b1059825f14daf77dd25daee598703ff86fc36b8ef7dc31af460cf6a599", "blocktime": 1537876114, "version": 1, "confirmations": 11460, "time": 1537876114, "locktime": 0, "vsize": 225, "size": 225}