{"hash": "efa08d93f86b48fdd80f8f44772604b612c097892c2aab0ad204f45a1a0bad86", "blockhash": "0000000000000000001cda96e906b7601b7a6fb1a3b62bca570a9e5d8f4b3de1", "vout": [{"scriptPubKey": {"reqSigs": 1, "hex": "a914b43afeb4c30e3711a89df711bd9b4b506b4ab06887", "addresses": ["3J7zE7ZUTXrEXPWSXXb8sF7oCeqxuD3duN"], "asm": "OP_HASH160 b43afeb4c30e3711a89df711bd9b4b506b4ab068 OP_EQUAL", "type": "scripthash"}, "value": 0.0029, "n": 0}, {"scriptPubKey": {"reqSigs": 1, "hex": "0014eb4e15e47358a00b2344f5304fc78ea329bcb792", "addresses": ["bc1qad8pterntzsqkg6y75cyl3uw5v5medujecxdwu"], "asm": "0 eb4e15e47358a00b2344f5304fc78ea329bcb792", "type": "witness_v0_keyhash"}, "value": 4.522e-05, "n": 1}], "hex": "01000000011f60925f05e2ffd282cbe69318f3bf76ddfb35ebbbc7e0f83b8e7e22dba4d77e000000006b483045022100a22cc02512bc76d8a051d4e4be5fc81f5ac29358b34a189ff6aa94e24bb8fea50220473cf2479646b5a441b993130d2e81be5abdc19d0e96d7e43cc1ce9aaef991760121022cd605d690f846137d5f8a03017869353d5dad038886fc2269ccccdbdcf2b42fffffffff02d06c04000000000017a914b43afeb4c30e3711a89df711bd9b4b506b4ab06887aa11000000000000160014eb4e15e47358a00b2344f5304fc78ea329bcb79200000000", "vin": [{"sequence": 4294967295, "scriptSig": {"hex": "483045022100a22cc02512bc76d8a051d4e4be5fc81f5ac29358b34a189ff6aa94e24bb8fea50220473cf2479646b5a441b993130d2e81be5abdc19d0e96d7e43cc1ce9aaef991760121022cd605d690f846137d5f8a03017869353d5dad038886fc2269ccccdbdcf2b42f", "asm": "3045022100a22cc02512bc76d8a051d4e4be5fc81f5ac29358b34a189ff6aa94e24bb8fea50220473cf2479646b5a441b993130d2e81be5abdc19d0e96d7e43cc1ce9aaef99176[ALL] 022cd605d690f846137d5f8a03017869353d5dad038886fc2269ccccdbdcf2b42f"}, "vout": 0, "txid": "7ed7a4db227e8e3bf8e0c7bbeb35fbdd76bff31893e6cb82d2ffe2055f92601f"}], "txid": "efa08d93f86b48fdd80f8f44772604b612c097892c2aab0ad204f45a1a0bad86", "blocktime": 1537873282, "version": 1, "confirmations": 11484, "time": 1537873282, "locktime": 0, "vsize": 221, "size": 221}