{"hash": "efa4ff2bafacbb9fa0e84a8298a299c5a10fecf9acc0b3f851befd666c492e07", "blockhash": "0000000000000000001cda96e906b7601b7a6fb1a3b62bca570a9e5d8f4b3de1", "vout": [{"scriptPubKey": {"reqSigs": 1, "hex": "76a91465ab71761714879fc72ec8460535ac9480c6330b88ac", "addresses": ["1AGadTZ4ufCrR7kbMrqeYQoaCXaw3cSoBm"], "asm": "OP_DUP OP_HASH160 65ab71761714879fc72ec8460535ac9480c6330b OP_EQUALVERIFY OP_CHECKSIG", "type": "pubkeyhash"}, "value": 4.924e-05, "n": 0}, {"scriptPubKey": {"reqSigs": 1, "hex": "a914523c688a332ed9eb44cc3428e8cb4c70919891b087", "addresses": ["39BqhX8CVHSEdoDYz1831jY8uTgXDWLJnD"], "asm": "OP_HASH160 523c688a332ed9eb44cc3428e8cb4c70919891b0 OP_EQUAL", "type": "scripthash"}, "value": 0.00390335, "n": 1}], "hex": "0100000004748a61829ff5342c04bd6b88106aa7838dfd33fdff3d8ff437b271d05dc7d252000000006a47304402200c791566c4933dba0cedfdae34f5972adc211b9a9e7829bac9d54dce9e78386a02205fedf2e7c854c62f1636cfe71f4905d2f2eae1914da1d04591ed033921ac00ea012103795b49b544df64cea1ff56b2e275ce3b0d0f7d03bb9467a82f5c33dd4dbca1daffffffff3772dba0d5ea5122bd0bc702719c3c4166a96e7229d327c75993b2aec6d9ecac010000006b483045022100c1b1bc80c057201049e4c48f1c5902b837cc73cfb3e2002353f01cb2ac54f6cf02203dc214dbe0dd572ad3cfaf93141d7ecf489f178d5fd8f093e048b4fd9736aafe0121026cdb043d11ade21d41a0068d23e7e05fa2b472cebd97d99e9a3f2a20ccd07662ffffffff800cd8b386c1bcb9c9c5e085d2786404a66106236f0201a2d2183b1ca370c2ad000000006a47304402206fe4e5899a3e6fd4ea946502af288a4e4ba6db09bc5f4c7b1e3bdef0ad5fb968022017a7a58f8f6ccd58326dbcf1ed9442798df96c0399bbd08f203d223ad1710204012102a7817a80044350e0921c59f5c1b741b4c5f6f05db8ed957137ea0e451fd58e47ffffffff0684ebd39747559eaad6a9dbeca5a20e2114f66d53c19ff09dc90ace1c70a7dc000000006b483045022100d27142c38dab76216d8e2df374d835f476873f65bdead03dbd127187522daf46022000a58372e4587ae69633ba835af87635c0d77332b1aad83e244b91ca73ee5cd501210366f241b16b9e19d737d939c0b3f5f1c62181be2c8b34e5b41ed718227d6ee7fbffffffff023c130000000000001976a91465ab71761714879fc72ec8460535ac9480c6330b88acbff405000000000017a914523c688a332ed9eb44cc3428e8cb4c70919891b08700000000", "vin": [{"sequence": 4294967295, "scriptSig": {"hex": "47304402200c791566c4933dba0cedfdae34f5972adc211b9a9e7829bac9d54dce9e78386a02205fedf2e7c854c62f1636cfe71f4905d2f2eae1914da1d04591ed033921ac00ea012103795b49b544df64cea1ff56b2e275ce3b0d0f7d03bb9467a82f5c33dd4dbca1da", "asm": "304402200c791566c4933dba0cedfdae34f5972adc211b9a9e7829bac9d54dce9e78386a02205fedf2e7c854c62f1636cfe71f4905d2f2eae1914da1d04591ed033921ac00ea[ALL] 03795b49b544df64cea1ff56b2e275ce3b0d0f7d03bb9467a82f5c33dd4dbca1da"}, "vout": 0, "txid": "52d2c75dd071b237f48f3dfffd33fd8d83a76a10886bbd042c34f59f82618a74"}, {"sequence": 4294967295, "scriptSig": {"hex": "483045022100c1b1bc80c057201049e4c48f1c5902b837cc73cfb3e2002353f01cb2ac54f6cf02203dc214dbe0dd572ad3cfaf93141d7ecf489f178d5fd8f093e048b4fd9736aafe0121026cdb043d11ade21d41a0068d23e7e05fa2b472cebd97d99e9a3f2a20ccd07662", "asm": "3045022100c1b1bc80c057201049e4c48f1c5902b837cc73cfb3e2002353f01cb2ac54f6cf02203dc214dbe0dd572ad3cfaf93141d7ecf489f178d5fd8f093e048b4fd9736aafe[ALL] 026cdb043d11ade21d41a0068d23e7e05fa2b472cebd97d99e9a3f2a20ccd07662"}, "vout": 1, "txid": "acecd9c6aeb29359c727d329726ea966413c9c7102c70bbd2251ead5a0db7237"}, {"sequence": 4294967295, "scriptSig": {"hex": "47304402206fe4e5899a3e6fd4ea946502af288a4e4ba6db09bc5f4c7b1e3bdef0ad5fb968022017a7a58f8f6ccd58326dbcf1ed9442798df96c0399bbd08f203d223ad1710204012102a7817a80044350e0921c59f5c1b741b4c5f6f05db8ed957137ea0e451fd58e47", "asm": "304402206fe4e5899a3e6fd4ea946502af288a4e4ba6db09bc5f4c7b1e3bdef0ad5fb968022017a7a58f8f6ccd58326dbcf1ed9442798df96c0399bbd08f203d223ad1710204[ALL] 02a7817a80044350e0921c59f5c1b741b4c5f6f05db8ed957137ea0e451fd58e47"}, "vout": 0, "txid": "adc270a31c3b18d2a201026f230661a6046478d285e0c5c9b9bcc186b3d80c80"}, {"sequence": 4294967295, "scriptSig": {"hex": "483045022100d27142c38dab76216d8e2df374d835f476873f65bdead03dbd127187522daf46022000a58372e4587ae69633ba835af87635c0d77332b1aad83e244b91ca73ee5cd501210366f241b16b9e19d737d939c0b3f5f1c62181be2c8b34e5b41ed718227d6ee7fb", "asm": "3045022100d27142c38dab76216d8e2df374d835f476873f65bdead03dbd127187522daf46022000a58372e4587ae69633ba835af87635c0d77332b1aad83e244b91ca73ee5cd5[ALL] 0366f241b16b9e19d737d939c0b3f5f1c62181be2c8b34e5b41ed718227d6ee7fb"}, "vout": 0, "txid": "dca7701cce0ac99df09fc1536df614210ea2a5ecdba9d6aa9e554797d3eb8406"}], "txid": "efa4ff2bafacbb9fa0e84a8298a299c5a10fecf9acc0b3f851befd666c492e07", "blocktime": 1537873282, "version": 1, "confirmations": 11485, "time": 1537873282, "locktime": 0, "vsize": 666, "size": 666}