{"hash": "efa54cf1d92886d143ae2ad39ce05ce6082dcbd53c09b1ec1cf4f4ee057fed8e", "blockhash": "00000000000000000004ffacab907a6b429b9a5745fa0b75af4234bf69dd7176", "vout": [{"scriptPubKey": {"reqSigs": 1, "hex": "a9142de160e815b2b87d5e0e9323a6b51a5d8d0e06fd87", "addresses": ["35scKkYzNkDkYhBKQxsJwpXn7AVSriyDCA"], "asm": "OP_HASH160 2de160e815b2b87d5e0e9323a6b51a5d8d0e06fd OP_EQUAL", "type": "scripthash"}, "value": 0.01607, "n": 0}, {"scriptPubKey": {"reqSigs": 1, "hex": "a914e370231feecbfc25e2e2423a5a79bf79bfdca59887", "addresses": ["3NRbeX3vD5VaVE4TDU9ivCDsEf7NPPte6J"], "asm": "OP_HASH160 e370231feecbfc25e2e2423a5a79bf79bfdca598 OP_EQUAL", "type": "scripthash"}, "value": 2.85026627, "n": 1}], "hex": "0100000001c24b905e9e81266691a39607badbfbbdf2c3a2cb1eff4cb1842d259e81ff747901000000da00483045022100e59dcbdca0e4fd6089f3fe45b14eadfcf30ece77dd5675290ac00b19f979d4f602202d3b152d3e1fda763cb25779ca7877573c013bd1db9e49b1ca4a3ac1567ad9680147304402205b4327cd57c6c1064d6c04b93afe05976edb141eeaab75a5d548a2136ad9d2d7022070831d5c32a98295f04f995227c6a40b621cd0e1595f640ea79a4240023e5fe0014752210327881b6abce6535553a3ce21fad12a7d74fd237ce7c4cd270a267162344e3082210256141f8eb687f5a68c5cc65054652dc25116fa285e44d72b44368827ffe77d9a52aeffffffff02588518000000000017a9142de160e815b2b87d5e0e9323a6b51a5d8d0e06fd874329fd100000000017a914e370231feecbfc25e2e2423a5a79bf79bfdca5988700000000", "vin": [{"sequence": 4294967295, "scriptSig": {"hex": "00483045022100e59dcbdca0e4fd6089f3fe45b14eadfcf30ece77dd5675290ac00b19f979d4f602202d3b152d3e1fda763cb25779ca7877573c013bd1db9e49b1ca4a3ac1567ad9680147304402205b4327cd57c6c1064d6c04b93afe05976edb141eeaab75a5d548a2136ad9d2d7022070831d5c32a98295f04f995227c6a40b621cd0e1595f640ea79a4240023e5fe0014752210327881b6abce6535553a3ce21fad12a7d74fd237ce7c4cd270a267162344e3082210256141f8eb687f5a68c5cc65054652dc25116fa285e44d72b44368827ffe77d9a52ae", "asm": "0 3045022100e59dcbdca0e4fd6089f3fe45b14eadfcf30ece77dd5675290ac00b19f979d4f602202d3b152d3e1fda763cb25779ca7877573c013bd1db9e49b1ca4a3ac1567ad968[ALL] 304402205b4327cd57c6c1064d6c04b93afe05976edb141eeaab75a5d548a2136ad9d2d7022070831d5c32a98295f04f995227c6a40b621cd0e1595f640ea79a4240023e5fe0[ALL] 52210327881b6abce6535553a3ce21fad12a7d74fd237ce7c4cd270a267162344e3082210256141f8eb687f5a68c5cc65054652dc25116fa285e44d72b44368827ffe77d9a52ae"}, "vout": 1, "txid": "7974ff819e252d84b14cff1ecba2c3f2bdfbdbba0796a3916626819e5e904bc2"}], "txid": "efa54cf1d92886d143ae2ad39ce05ce6082dcbd53c09b1ec1cf4f4ee057fed8e", "blocktime": 1537875543, "version": 1, "confirmations": 11464, "time": 1537875543, "locktime": 0, "vsize": 333, "size": 333}