{"hash": "efa82668a9ff67f29262f4ff744debda47bfc24a2d88a02574617e1e10d963c9", "blockhash": "00000000000000000017f5eb5941039fbcee6240d03bc1f2f8e35350df66a1d8", "vout": [{"scriptPubKey": {"reqSigs": 1, "hex": "a9145ac52b8180f1ced44fb28fd73aa1b8f6898baf9b87", "addresses": ["39xxwR77jhRTtYDmdnGCcrdN4aSwdnPqX7"], "asm": "OP_HASH160 5ac52b8180f1ced44fb28fd73aa1b8f6898baf9b OP_EQUAL", "type": "scripthash"}, "value": 0.00435736, "n": 0}, {"scriptPubKey": {"reqSigs": 1, "hex": "76a914d45b875bfffc5478ad8fd806fc916e37658bfeae88ac", "addresses": ["1LMquCRSKXTgh98z1nCxMFNo6jnL6f6Lp4"], "asm": "OP_DUP OP_HASH160 d45b875bfffc5478ad8fd806fc916e37658bfeae OP_EQUALVERIFY OP_CHECKSIG", "type": "pubkeyhash"}, "value": 0.0138297, "n": 1}], "hex": "010000000168434401f41ce2846320406015ecb8828ca39750a11c4ef4f94d86634c36514a010000006b483045022100bea63eafa21fb96e8077c6796d37f3b191744a8f7c6c6509879668cd01a84f62022006c083f8b32f91a3e00834095b95668a013138316ecaf2c616da15b0c5910de4012103bd8c1667e2e17e6293ad8adbea2d76e87ef622ffcd1a063cccf883c7f4a3675dffffffff0218a606000000000017a9145ac52b8180f1ced44fb28fd73aa1b8f6898baf9b873a1a1500000000001976a914d45b875bfffc5478ad8fd806fc916e37658bfeae88ac00000000", "vin": [{"sequence": 4294967295, "scriptSig": {"hex": "483045022100bea63eafa21fb96e8077c6796d37f3b191744a8f7c6c6509879668cd01a84f62022006c083f8b32f91a3e00834095b95668a013138316ecaf2c616da15b0c5910de4012103bd8c1667e2e17e6293ad8adbea2d76e87ef622ffcd1a063cccf883c7f4a3675d", "asm": "3045022100bea63eafa21fb96e8077c6796d37f3b191744a8f7c6c6509879668cd01a84f62022006c083f8b32f91a3e00834095b95668a013138316ecaf2c616da15b0c5910de4[ALL] 03bd8c1667e2e17e6293ad8adbea2d76e87ef622ffcd1a063cccf883c7f4a3675d"}, "vout": 1, "txid": "4a51364c63864df9f44e1ca15097a38c82b8ec156040206384e21cf401444368"}], "txid": "efa82668a9ff67f29262f4ff744debda47bfc24a2d88a02574617e1e10d963c9", "blocktime": 1537874412, "version": 1, "confirmations": 11467, "time": 1537874412, "locktime": 0, "vsize": 224, "size": 224}