{"hash": "efac38d33b3dcc0c6e915dc6aa5148bd3e6a20d87c2b1beeac5b8f42acaa46c2", "blockhash": "0000000000000000000dcc0f55137456b1a82d3642486a52398922ac4d620174", "vout": [{"scriptPubKey": {"reqSigs": 1, "hex": "76a914d243e6abb9a60fbff430b421d2df4b7d59ec186088ac", "addresses": ["1LAnF8h3qMGx3TSwNUHVneBZUEpwE4gu3D"], "asm": "OP_DUP OP_HASH160 d243e6abb9a60fbff430b421d2df4b7d59ec1860 OP_EQUALVERIFY OP_CHECKSIG", "type": "pubkeyhash"}, "value": 0.00076972, "n": 0}, {"scriptPubKey": {"reqSigs": 1, "hex": "76a9143851f34d13937b673a7d24a1950bb5b21ce94af388ac", "addresses": ["168o1kqNquEJeR9vosUB5fw4eAwcVAgh8P"], "asm": "OP_DUP OP_HASH160 3851f34d13937b673a7d24a1950bb5b21ce94af3 OP_EQUALVERIFY OP_CHECKSIG", "type": "pubkeyhash"}, "value": 5.46e-06, "n": 1}, {"scriptPubKey": {"type": "nulldata", "hex": "6a146f6d6e69000000000000001f000000655f442b80", "asm": "OP_RETURN 6f6d6e69000000000000001f000000655f442b80"}, "value": 0.0, "n": 2}], "hex": "010000000200a697c9b33fba2cbe472d38a7768a15832f13bdbdf1c0f707136b0c4eda032e000000006b483045022100e24b59dce91c66c38b8c3696f6dd1cadf976af4f8177855c91322a0d756ca76e022061af23b122e7df6a6b9eef47e30bc24e93691195f014f040bead8d9ac45173830121021069d2da66687bd43955c2af34d8a8ab08fa7c36ebc5f9c1733923f6cb921bedffffffffebf5a20abc8168e1b377d0cde53bcf8ef19741c41ca57916878a5a8b29eab781000000006a473044022056350b8d78776057512f92399a3b6c6e5bc4a21190a49a99df40e801d95b69a50220709186481b1e34b049dff41e17e656329c729d25237e122094635f7917dd8b8a01210271977291b74f1f5f5c42157e8aae804664eaaeccfd097918450d37f28fb94d77ffffffff03ac2c0100000000001976a914d243e6abb9a60fbff430b421d2df4b7d59ec186088ac22020000000000001976a9143851f34d13937b673a7d24a1950bb5b21ce94af388ac0000000000000000166a146f6d6e69000000000000001f000000655f442b8000000000", "vin": [{"sequence": 4294967295, "scriptSig": {"hex": "483045022100e24b59dce91c66c38b8c3696f6dd1cadf976af4f8177855c91322a0d756ca76e022061af23b122e7df6a6b9eef47e30bc24e93691195f014f040bead8d9ac45173830121021069d2da66687bd43955c2af34d8a8ab08fa7c36ebc5f9c1733923f6cb921bed", "asm": "3045022100e24b59dce91c66c38b8c3696f6dd1cadf976af4f8177855c91322a0d756ca76e022061af23b122e7df6a6b9eef47e30bc24e93691195f014f040bead8d9ac4517383[ALL] 021069d2da66687bd43955c2af34d8a8ab08fa7c36ebc5f9c1733923f6cb921bed"}, "vout": 0, "txid": "2e03da4e0c6b1307f7c0f1bdbd132f83158a76a7382d47be2cba3fb3c997a600"}, {"sequence": 4294967295, "scriptSig": {"hex": "473044022056350b8d78776057512f92399a3b6c6e5bc4a21190a49a99df40e801d95b69a50220709186481b1e34b049dff41e17e656329c729d25237e122094635f7917dd8b8a01210271977291b74f1f5f5c42157e8aae804664eaaeccfd097918450d37f28fb94d77", "asm": "3044022056350b8d78776057512f92399a3b6c6e5bc4a21190a49a99df40e801d95b69a50220709186481b1e34b049dff41e17e656329c729d25237e122094635f7917dd8b8a[ALL] 0271977291b74f1f5f5c42157e8aae804664eaaeccfd097918450d37f28fb94d77"}, "vout": 0, "txid": "81b7ea298b5a8a871679a51cc44197f18ecf3be5cdd077b3e16881bc0aa2f5eb"}], "txid": "efac38d33b3dcc0c6e915dc6aa5148bd3e6a20d87c2b1beeac5b8f42acaa46c2", "blocktime": 1537870268, "version": 1, "confirmations": 11516, "time": 1537870268, "locktime": 0, "vsize": 404, "size": 404}