{"hash": "efb24b4ce911fcf81c1d456895d32b9024eab211bc60a2e7d80c4730b9adddd2", "blockhash": "00000000000000000017f5eb5941039fbcee6240d03bc1f2f8e35350df66a1d8", "vout": [{"scriptPubKey": {"reqSigs": 1, "hex": "a914dd865e257764c65f9901c3767abdedcc1889e2b087", "addresses": ["3MtLDySJpaoZ3qwJYZmWghaJxAy6mouDUm"], "asm": "OP_HASH160 dd865e257764c65f9901c3767abdedcc1889e2b0 OP_EQUAL", "type": "scripthash"}, "value": 0.00704097, "n": 0}, {"scriptPubKey": {"reqSigs": 1, "hex": "76a914d1ab49d5870c469baf72d8681395efb404522b9e88ac", "addresses": ["1L7dRRNg63r9kx9HN9jkmePJBgEy3NHvzC"], "asm": "OP_DUP OP_HASH160 d1ab49d5870c469baf72d8681395efb404522b9e OP_EQUALVERIFY OP_CHECKSIG", "type": "pubkeyhash"}, "value": 0.03386728, "n": 1}], "hex": "0100000001baed713d13ec3ec666cbd8e489bf59707bc4a63d8aaa0ea22bf10c26bda898a8010000006b4830450221009244647af383b1ce09ba898c018fbb3fe00d1d2c357767c26bd5c70e0dcd8485022070bf0fa1894aa09f16c8c5d7c5d8ecedf3659b7b34649a7725151564b4e7db410121039e52109800062a3310737b0ca8d179defe3120e21e47eebd278c5af665f2953affffffff0261be0a000000000017a914dd865e257764c65f9901c3767abdedcc1889e2b08768ad3300000000001976a914d1ab49d5870c469baf72d8681395efb404522b9e88ac00000000", "vin": [{"sequence": 4294967295, "scriptSig": {"hex": "4830450221009244647af383b1ce09ba898c018fbb3fe00d1d2c357767c26bd5c70e0dcd8485022070bf0fa1894aa09f16c8c5d7c5d8ecedf3659b7b34649a7725151564b4e7db410121039e52109800062a3310737b0ca8d179defe3120e21e47eebd278c5af665f2953a", "asm": "30450221009244647af383b1ce09ba898c018fbb3fe00d1d2c357767c26bd5c70e0dcd8485022070bf0fa1894aa09f16c8c5d7c5d8ecedf3659b7b34649a7725151564b4e7db41[ALL] 039e52109800062a3310737b0ca8d179defe3120e21e47eebd278c5af665f2953a"}, "vout": 1, "txid": "a898a8bd260cf12ba20eaa8a3da6c47b7059bf89e4d8cb66c63eec133d71edba"}], "txid": "efb24b4ce911fcf81c1d456895d32b9024eab211bc60a2e7d80c4730b9adddd2", "blocktime": 1537874412, "version": 1, "confirmations": 11468, "time": 1537874412, "locktime": 0, "vsize": 224, "size": 224}