{"hash": "0b89631ffb75fa2fcbed1a35e115503f0824a8ab2e24a191befee01ea6e2abf1", "blockhash": "00000000000000000017f5eb5941039fbcee6240d03bc1f2f8e35350df66a1d8", "vout": [{"scriptPubKey": {"reqSigs": 1, "hex": "76a914c3fef590507c7c6408fd37ba76f6d27b09cd088288ac", "addresses": ["1JsLCHXppHZdGJuutnEcoKi31L44FLfZpe"], "asm": "OP_DUP OP_HASH160 c3fef590507c7c6408fd37ba76f6d27b09cd0882 OP_EQUALVERIFY OP_CHECKSIG", "type": "pubkeyhash"}, "value": 0.09487826, "n": 0}, {"scriptPubKey": {"reqSigs": 1, "hex": "a91486c17014d7ba8e07fc026d875b3d62ce2195a1d487", "addresses": ["3DyYCYX7cJyQ6oktqvDLXLHzggt8jhEx2E"], "asm": "OP_HASH160 86c17014d7ba8e07fc026d875b3d62ce2195a1d4 OP_EQUAL", "type": "scripthash"}, "value": 0.00831168, "n": 1}, {"scriptPubKey": {"reqSigs": 1, "hex": "a9142cdf0fff9337a1edf2e8d920ed216492bece58e487", "addresses": ["35nGsdxf9SZ2hWuJPXVR6GAQeV1beG7kZL"], "asm": "OP_HASH160 2cdf0fff9337a1edf2e8d920ed216492bece58e4 OP_EQUAL", "type": "scripthash"}, "value": 0.02356724, "n": 2}, {"scriptPubKey": {"reqSigs": 1, "hex": "a914ad62598794a35c2a5199edc72181eba784929ea587", "addresses": ["3HVneBvRX3rgjvWgwNh1837fvpnLHyT4j9"], "asm": "OP_HASH160 ad62598794a35c2a5199edc72181eba784929ea5 OP_EQUAL", "type": "scripthash"}, "value": 0.086, "n": 3}, {"scriptPubKey": {"reqSigs": 1, "hex": "a914c7c0728ecf68507ba615966bdb54fb0fbc02e70087", "addresses": ["3KuCwCnzGm5LL3L7YQj9YhZZ783dv3vnU1"], "asm": "OP_HASH160 c7c0728ecf68507ba615966bdb54fb0fbc02e700 OP_EQUAL", "type": "scripthash"}, "value": 0.0035, "n": 4}, {"scriptPubKey": {"reqSigs": 1, "hex": "a914ea645e5e20987adfaa9d5fa4a915d008965f102387", "addresses": ["3P4NHAbib3uvj6QNYmPWqEJMZnx4HzszTp"], "asm": "OP_HASH160 ea645e5e20987adfaa9d5fa4a915d008965f1023 OP_EQUAL", "type": "scripthash"}, "value": 0.01060488, "n": 5}], "hex": "0200000000010d5134e6b126a160e35a88fcc9e704ee382d5a944c099c138ec97acc18c1791cc00e0000001716001472d838ec0b9037c9970dfeb4176521136280ecd8ffffffffd57a800bccefd10f39e8ebf95b250dfe6a7849297402ec2844c5391ae0b706c70200000017160014ac99dbf27e7ccf9e599743821391ea48439c04c9ffffffff109b6746806fad2c546dbbb8af12d03922d18c7169947d309bbc3fb362e4e45309000000171600144f8ff386fe6a29c115c66ce3228f1cf52683c26bffffffffd4576de89c70c7ec0d309d3b3b94828a408b8f7c6d4f3ac205c9b1beda880b381700000017160014dd115974e74f4116905bd9a379062befbb2d536bffffffff320ae08edfcdd6da2d6870770fa3442da0ab25e0b6289205baa43e3dfbf5285e1f000000171600149dc85130b90054e7403590d0bc50c123fe89e667ffffffffd57a800bccefd10f39e8ebf95b250dfe6a7849297402ec2844c5391ae0b706c71100000017160014c17beb25bd0eceaaaf4411a10fbca2de0609c086ffffffff4723bc791350aa5af1fec31029eb6803ab65909b2a2c7ebee1f90acb19101b0700000000171600142e660369d4e35cb2b32b3020d572aabeeba2d1b1ffffffff5e68d0c7d118935d980806e433f15b3d3191fe156c4547d6c1db8e03743402ff0700000017160014136cdb65e0c5a51153cdbf6ff8b353da25144104ffffffffd4576de89c70c7ec0d309d3b3b94828a408b8f7c6d4f3ac205c9b1beda880b380a00000017160014ab007ec6e6469b25a422d90c85e97f7b628eab47ffffffff0c61b6f383c7eebccb6807ab139315c4c4941ceaa6bcb4ae8d8524f86cab87131100000017160014f154c4b74589bcd0b75c2a040b6f6d3513299042ffffffff109b6746806fad2c546dbbb8af12d03922d18c7169947d309bbc3fb362e4e4531300000017160014fef9e7c1424d89eca61339631218b4bd1c7700b2ffffffffb4bc2420a4645b6ce90a94e31df8212eadb73a69c8766a9da7ff9629e554cad0040000001716001485a5991f4ebce2559833847917981e978c8fb9fdffffffff8de177cdff0c769f09d59d272688e8ff542fe4f51f7b9f6efca8bd217043fa4901000000171600140d9644e311533d5e4dd30d88463f5bd71b50c5d6ffffffff06d2c59000000000001976a914c3fef590507c7c6408fd37ba76f6d27b09cd088288acc0ae0c000000000017a91486c17014d7ba8e07fc026d875b3d62ce2195a1d487f4f523000000000017a9142cdf0fff9337a1edf2e8d920ed216492bece58e487c03983000000000017a914ad62598794a35c2a5199edc72181eba784929ea587305705000000000017a914c7c0728ecf68507ba615966bdb54fb0fbc02e70087882e10000000000017a914ea645e5e20987adfaa9d5fa4a915d008965f10238702483045022100e69ac01072be914878d3b7ad709d170b9f22c4e900833bc1c9b9f56ff5f86f40022000ab146bec22e6345c479bd8e60549a8c7d1ebdedcbe0a63a3efd49f0bcb79ab012103f0f8980b6109d56472626007263b42b715174aa4c50165868e4e53ee87c4d4c102483045022100a06a61cedb3d1fe020ddca0c7ccfc089117f9af9933da90429bcf3ae433c117f02203b1355ec71bdf2c70e97bcfec357445bbcf1a5cac4fd6091c515f748affe2b420121025aa712ebe1eab4a12079f601d2491fe727897f7aad5ff74a4638ea56b268a6b10247304402203d76802fc020a583b458b55962ce88ce7cab1e5ae9604e1d3f038c77917ef5e802205db45953f58dc1735a0517d087fb1ea8576d582a5c16d499a4baac46084c14bd01210252be8a5732a358e2f9d67d94144f218ce07203bc84bb746b739fbec74563974002483045022100f74627a32abceb5b3a8789a98bd13d70fc8488803e2ebbb6adcc32ccfea31e34022062df6df708d5e92e05f8849f3d60a5a73455f113216041dc5efdbca2c9668e8901210225ffc50a104ebe6279d8c70ef920bf9771e6ba0d826992c8d3cedf81bb51b1ee0248304502210080e9fca1772d6900f5e448e4853e1edb053d0eb8b2079a0f784120763ee6e3000220039c5652c7078f867bb2648f63c102eebb3b381a4af5e7d9f5caf3303167b3cc012103041231e3f73e3fa2a9ce18e168930573b1e48c4875d045d8e6c7877286bcfde90247304402206f01451bc90f0485d131f3d7accd0dc3ce3d23a231d27bf4de04a2744c6d06bd022071216f677b57fbc793b11336a51898545f49f2be3cad33c976e2d0bc2e30a109012102ec061d9a9a61ffc5e1386d6d98526c7a9b09207a80a913132be1f1df794b78a602473044022073bc4d43d2a470b03b94cea28291c0bca0ff343b31e5f86bd29008999fd6f2a602207c5283839a9e6f419e2864255f0e0bb82f3c53bcd97e0415142e5cfa634a7def012103e6f59cf0a6ea9194efd30454e2c5290645b4178f6c00cd04b0464fa89306456702483045022100aa1aac3fc99c4b959e64fff45788640c499157e75323e41ac59083b0bb6134dc0220462dfd8a682f11ff81cafbb33ef7442b405bf9ca08214a6a24dc352c614d59b4012103cf1347d3f8192929ab652d9f0d48cef3f8d40b4de3e3bfab1b0d5be4dee013d20247304402203133a45715ec55b6c4be7014c2ccab11b403b4598a7367a7d0337b4229b82623022032beae4e79810f4f21910e762cdeae4cc632073a0349504aa3d3c4c56e443ae4012102bd2497668aeee54b3654d341f4e172ee6f21330ffea27085f9acbb67f63ffbaf02473044022004ba7e75123811ceca5716ddf024ecfc670f7306870a493054c4f7c31af0d2f30220165bcaec1d03bb8dbd196307d57dd68098ef2cab59a97c639ecb61f6b8b31a0d01210325a1ba9a9f2a73877e9798933d38893b9ce78f3033b1a3f4f92034545b51638d02483045022100fcead0f1a23721a7eee59a1ae7d812708510582e923dab7a4e5b1f6ae55f7ccd022079f0497ea6a7a92219dd695c4309f30aa13cd5e15a026fa33b7b1fb39cf4f95a01210204ab37978ebab130f4afd267227b0e99f8486b5d04270e1011c9a676b3552254024730440220207bf3a1332679560f3686e6a405d45adf69a8d45810640e4288491a92059e2602207af8ed5eaeb7959bceec6bb15e47857c10fc5bb4a3effaab9e4704013c61bd88012102bb7256a70e23595f0a6eb27a8963f42bb8627c111c6d284aa9e01275d9604ab102473044022017e863f47427839b86fbbd0d48d4ad29138d91b59af276b66c1c5a4ddd9e35a702204f53c5d27feb654a6016fc6db91d3104b106ebf7cff2dfa10802f609faec91e20121036cd516c479c1d8e160e49cd01dfed23db92ae615361be52868bd1bf68e63cc0100000000", "vin": [{"txinwitness": ["3045022100e69ac01072be914878d3b7ad709d170b9f22c4e900833bc1c9b9f56ff5f86f40022000ab146bec22e6345c479bd8e60549a8c7d1ebdedcbe0a63a3efd49f0bcb79ab01", "03f0f8980b6109d56472626007263b42b715174aa4c50165868e4e53ee87c4d4c1"], "sequence": 4294967295, "scriptSig": {"hex": "16001472d838ec0b9037c9970dfeb4176521136280ecd8", "asm": "001472d838ec0b9037c9970dfeb4176521136280ecd8"}, "vout": 14, "txid": "c01c79c118cc7ac98e139c094c945a2d38ee04e7c9fc885ae360a126b1e63451"}, {"txinwitness": ["3045022100a06a61cedb3d1fe020ddca0c7ccfc089117f9af9933da90429bcf3ae433c117f02203b1355ec71bdf2c70e97bcfec357445bbcf1a5cac4fd6091c515f748affe2b4201", "025aa712ebe1eab4a12079f601d2491fe727897f7aad5ff74a4638ea56b268a6b1"], "sequence": 4294967295, "scriptSig": {"hex": "160014ac99dbf27e7ccf9e599743821391ea48439c04c9", "asm": "0014ac99dbf27e7ccf9e599743821391ea48439c04c9"}, "vout": 2, "txid": "c706b7e01a39c54428ec02742949786afe0d255bf9ebe8390fd1efcc0b807ad5"}, {"txinwitness": ["304402203d76802fc020a583b458b55962ce88ce7cab1e5ae9604e1d3f038c77917ef5e802205db45953f58dc1735a0517d087fb1ea8576d582a5c16d499a4baac46084c14bd01", "0252be8a5732a358e2f9d67d94144f218ce07203bc84bb746b739fbec745639740"], "sequence": 4294967295, "scriptSig": {"hex": "1600144f8ff386fe6a29c115c66ce3228f1cf52683c26b", "asm": "00144f8ff386fe6a29c115c66ce3228f1cf52683c26b"}, "vout": 9, "txid": "53e4e462b33fbc9b307d9469718cd12239d012afb8bb6d542cad6f8046679b10"}, {"txinwitness": ["3045022100f74627a32abceb5b3a8789a98bd13d70fc8488803e2ebbb6adcc32ccfea31e34022062df6df708d5e92e05f8849f3d60a5a73455f113216041dc5efdbca2c9668e8901", "0225ffc50a104ebe6279d8c70ef920bf9771e6ba0d826992c8d3cedf81bb51b1ee"], "sequence": 4294967295, "scriptSig": {"hex": "160014dd115974e74f4116905bd9a379062befbb2d536b", "asm": "0014dd115974e74f4116905bd9a379062befbb2d536b"}, "vout": 23, "txid": "380b88dabeb1c905c23a4f6d7c8f8b408a82943b3b9d300decc7709ce86d57d4"}, {"txinwitness": ["304502210080e9fca1772d6900f5e448e4853e1edb053d0eb8b2079a0f784120763ee6e3000220039c5652c7078f867bb2648f63c102eebb3b381a4af5e7d9f5caf3303167b3cc01", "03041231e3f73e3fa2a9ce18e168930573b1e48c4875d045d8e6c7877286bcfde9"], "sequence": 4294967295, "scriptSig": {"hex": "1600149dc85130b90054e7403590d0bc50c123fe89e667", "asm": "00149dc85130b90054e7403590d0bc50c123fe89e667"}, "vout": 31, "txid": "5e28f5fb3d3ea4ba059228b6e025aba02d44a30f7770682ddad6cddf8ee00a32"}, {"txinwitness": ["304402206f01451bc90f0485d131f3d7accd0dc3ce3d23a231d27bf4de04a2744c6d06bd022071216f677b57fbc793b11336a51898545f49f2be3cad33c976e2d0bc2e30a10901", "02ec061d9a9a61ffc5e1386d6d98526c7a9b09207a80a913132be1f1df794b78a6"], "sequence": 4294967295, "scriptSig": {"hex": "160014c17beb25bd0eceaaaf4411a10fbca2de0609c086", "asm": "0014c17beb25bd0eceaaaf4411a10fbca2de0609c086"}, "vout": 17, "txid": "c706b7e01a39c54428ec02742949786afe0d255bf9ebe8390fd1efcc0b807ad5"}, {"txinwitness": ["3044022073bc4d43d2a470b03b94cea28291c0bca0ff343b31e5f86bd29008999fd6f2a602207c5283839a9e6f419e2864255f0e0bb82f3c53bcd97e0415142e5cfa634a7def01", "03e6f59cf0a6ea9194efd30454e2c5290645b4178f6c00cd04b0464fa893064567"], "sequence": 4294967295, "scriptSig": {"hex": "1600142e660369d4e35cb2b32b3020d572aabeeba2d1b1", "asm": "00142e660369d4e35cb2b32b3020d572aabeeba2d1b1"}, "vout": 0, "txid": "071b1019cb0af9e1be7e2c2a9b9065ab0368eb2910c3fef15aaa501379bc2347"}, {"txinwitness": ["3045022100aa1aac3fc99c4b959e64fff45788640c499157e75323e41ac59083b0bb6134dc0220462dfd8a682f11ff81cafbb33ef7442b405bf9ca08214a6a24dc352c614d59b401", "03cf1347d3f8192929ab652d9f0d48cef3f8d40b4de3e3bfab1b0d5be4dee013d2"], "sequence": 4294967295, "scriptSig": {"hex": "160014136cdb65e0c5a51153cdbf6ff8b353da25144104", "asm": "0014136cdb65e0c5a51153cdbf6ff8b353da25144104"}, "vout": 7, "txid": "ff023474038edbc1d647456c15fe91313d5bf133e40608985d9318d1c7d0685e"}, {"txinwitness": ["304402203133a45715ec55b6c4be7014c2ccab11b403b4598a7367a7d0337b4229b82623022032beae4e79810f4f21910e762cdeae4cc632073a0349504aa3d3c4c56e443ae401", "02bd2497668aeee54b3654d341f4e172ee6f21330ffea27085f9acbb67f63ffbaf"], "sequence": 4294967295, "scriptSig": {"hex": "160014ab007ec6e6469b25a422d90c85e97f7b628eab47", "asm": "0014ab007ec6e6469b25a422d90c85e97f7b628eab47"}, "vout": 10, "txid": "380b88dabeb1c905c23a4f6d7c8f8b408a82943b3b9d300decc7709ce86d57d4"}, {"txinwitness": ["3044022004ba7e75123811ceca5716ddf024ecfc670f7306870a493054c4f7c31af0d2f30220165bcaec1d03bb8dbd196307d57dd68098ef2cab59a97c639ecb61f6b8b31a0d01", "0325a1ba9a9f2a73877e9798933d38893b9ce78f3033b1a3f4f92034545b51638d"], "sequence": 4294967295, "scriptSig": {"hex": "160014f154c4b74589bcd0b75c2a040b6f6d3513299042", "asm": "0014f154c4b74589bcd0b75c2a040b6f6d3513299042"}, "vout": 17, "txid": "1387ab6cf824858daeb4bca6ea1c94c4c4159313ab0768cbbceec783f3b6610c"}, {"txinwitness": ["3045022100fcead0f1a23721a7eee59a1ae7d812708510582e923dab7a4e5b1f6ae55f7ccd022079f0497ea6a7a92219dd695c4309f30aa13cd5e15a026fa33b7b1fb39cf4f95a01", "0204ab37978ebab130f4afd267227b0e99f8486b5d04270e1011c9a676b3552254"], "sequence": 4294967295, "scriptSig": {"hex": "160014fef9e7c1424d89eca61339631218b4bd1c7700b2", "asm": "0014fef9e7c1424d89eca61339631218b4bd1c7700b2"}, "vout": 19, "txid": "53e4e462b33fbc9b307d9469718cd12239d012afb8bb6d542cad6f8046679b10"}, {"txinwitness": ["30440220207bf3a1332679560f3686e6a405d45adf69a8d45810640e4288491a92059e2602207af8ed5eaeb7959bceec6bb15e47857c10fc5bb4a3effaab9e4704013c61bd8801", "02bb7256a70e23595f0a6eb27a8963f42bb8627c111c6d284aa9e01275d9604ab1"], "sequence": 4294967295, "scriptSig": {"hex": "16001485a5991f4ebce2559833847917981e978c8fb9fd", "asm": "001485a5991f4ebce2559833847917981e978c8fb9fd"}, "vout": 4, "txid": "d0ca54e52996ffa79d6a76c8693ab7ad2e21f81de3940ae96c5b64a42024bcb4"}, {"txinwitness": ["3044022017e863f47427839b86fbbd0d48d4ad29138d91b59af276b66c1c5a4ddd9e35a702204f53c5d27feb654a6016fc6db91d3104b106ebf7cff2dfa10802f609faec91e201", "036cd516c479c1d8e160e49cd01dfed23db92ae615361be52868bd1bf68e63cc01"], "sequence": 4294967295, "scriptSig": {"hex": "1600140d9644e311533d5e4dd30d88463f5bd71b50c5d6", "asm": "00140d9644e311533d5e4dd30d88463f5bd71b50c5d6"}, "vout": 1, "txid": "49fa437021bda8fc6e9f7b1ff5e42f54ffe88826279dd5099f760cffcd77e18d"}], "txid": "efb3241fbedef6a9fd79bbf470f4ae775069b1c6e86ce82460082bcba7efa893", "blocktime": 1537874412, "version": 2, "confirmations": 11466, "time": 1537874412, "locktime": 0, "vsize": 1386, "size": 2435}