{"hash": "efbba1e6a0e479f1f9b547bc938cbdfbcfb7599214d68853817e745050dff5a3", "blockhash": "00000000000000000024a2167bbff67b0be802c0b01cdd79e6331c2be6459f87", "vout": [{"scriptPubKey": {"reqSigs": 1, "hex": "a9142a52fcadad614ca36cfd1e628aa616b56b2e0f1f87", "addresses": ["35Yoie5xVVH2MDcsd4SpWPVbCKECPq2yzH"], "asm": "OP_HASH160 2a52fcadad614ca36cfd1e628aa616b56b2e0f1f OP_EQUAL", "type": "scripthash"}, "value": 0.009, "n": 0}, {"scriptPubKey": {"reqSigs": 1, "hex": "76a914c343637a30bf8957ac5ab46ab129bb8065bbfb6a88ac", "addresses": ["1JoTVea8bNDWx7CZNjnutF23gWUucwkvmC"], "asm": "OP_DUP OP_HASH160 c343637a30bf8957ac5ab46ab129bb8065bbfb6a OP_EQUALVERIFY OP_CHECKSIG", "type": "pubkeyhash"}, "value": 0.1212844, "n": 1}], "hex": "01000000018149241ef0ad5e7b68fca481d8b25fe16af4d3202db780ce908575fefbc72d33010000006b483045022100ac62fee62179ea0bb815e199c3fce2f3d321e6b2498cce3acb3ea0f4e5fa3c80022059e507d95e5e43b77e2e4ce0aa0ceec123627fc6f5651f50b53c1d69cf52176801210265b0362459f77149ecd4d6aa9d05af88c5af8c1e0854f7ea9e1f720984e00ab3ffffffff02a0bb0d000000000017a9142a52fcadad614ca36cfd1e628aa616b56b2e0f1f87b810b900000000001976a914c343637a30bf8957ac5ab46ab129bb8065bbfb6a88ac00000000", "vin": [{"sequence": 4294967295, "scriptSig": {"hex": "483045022100ac62fee62179ea0bb815e199c3fce2f3d321e6b2498cce3acb3ea0f4e5fa3c80022059e507d95e5e43b77e2e4ce0aa0ceec123627fc6f5651f50b53c1d69cf52176801210265b0362459f77149ecd4d6aa9d05af88c5af8c1e0854f7ea9e1f720984e00ab3", "asm": "3045022100ac62fee62179ea0bb815e199c3fce2f3d321e6b2498cce3acb3ea0f4e5fa3c80022059e507d95e5e43b77e2e4ce0aa0ceec123627fc6f5651f50b53c1d69cf521768[ALL] 0265b0362459f77149ecd4d6aa9d05af88c5af8c1e0854f7ea9e1f720984e00ab3"}, "vout": 1, "txid": "332dc7fbfe758590ce80b72d20d3f46ae15fb2d881a4fc687b5eadf01e244981"}], "txid": "efbba1e6a0e479f1f9b547bc938cbdfbcfb7599214d68853817e745050dff5a3", "blocktime": 1537870564, "version": 1, "confirmations": 11515, "time": 1537870564, "locktime": 0, "vsize": 224, "size": 224}