{"hash": "efbcb5647345cbd06b419724610bad514bcfd284e34e2a281867b4e445856acb", "blockhash": "00000000000000000024a2167bbff67b0be802c0b01cdd79e6331c2be6459f87", "vout": [{"scriptPubKey": {"reqSigs": 1, "hex": "76a914f814a798ec2fbd40af0ca7d5e0ff164f02ae49ec88ac", "addresses": ["1PcjKgnwzycDkm1Qa9uBSMxUFd8VD4WXbz"], "asm": "OP_DUP OP_HASH160 f814a798ec2fbd40af0ca7d5e0ff164f02ae49ec OP_EQUALVERIFY OP_CHECKSIG", "type": "pubkeyhash"}, "value": 0.0161596, "n": 0}, {"scriptPubKey": {"reqSigs": 1, "hex": "76a914633d976760ccc751a788cb86b078738f41193c7688ac", "addresses": ["1A3jgSR2tZHw4Sc4SfLimo2tQr5jRLth5c"], "asm": "OP_DUP OP_HASH160 633d976760ccc751a788cb86b078738f41193c76 OP_EQUALVERIFY OP_CHECKSIG", "type": "pubkeyhash"}, "value": 0.02942202, "n": 1}], "hex": "0100000001a950faff7369e2a03e27430a63bb9eca20abf1602d72051fa86672ce8ce2401a010000006a4730440220294313679ab7dddc5d51f9176155a829320868d446318644d619c8bb1dd99eb0022010a52bd6cb93920bb9bf91e0f0ba8860b30b48ec7c99f6dd13234ca9cf57f30c01210310f15d6c393181e590bdcd91c814b6cf59c66c1a728013e34bdf868d9f7b36f6ffffffff0258a81800000000001976a914f814a798ec2fbd40af0ca7d5e0ff164f02ae49ec88acfae42c00000000001976a914633d976760ccc751a788cb86b078738f41193c7688ac00000000", "vin": [{"sequence": 4294967295, "scriptSig": {"hex": "4730440220294313679ab7dddc5d51f9176155a829320868d446318644d619c8bb1dd99eb0022010a52bd6cb93920bb9bf91e0f0ba8860b30b48ec7c99f6dd13234ca9cf57f30c01210310f15d6c393181e590bdcd91c814b6cf59c66c1a728013e34bdf868d9f7b36f6", "asm": "30440220294313679ab7dddc5d51f9176155a829320868d446318644d619c8bb1dd99eb0022010a52bd6cb93920bb9bf91e0f0ba8860b30b48ec7c99f6dd13234ca9cf57f30c[ALL] 0310f15d6c393181e590bdcd91c814b6cf59c66c1a728013e34bdf868d9f7b36f6"}, "vout": 1, "txid": "1a40e28cce7266a81f05722d60f1ab20ca9ebb630a43273ea0e26973fffa50a9"}], "txid": "efbcb5647345cbd06b419724610bad514bcfd284e34e2a281867b4e445856acb", "blocktime": 1537870564, "version": 1, "confirmations": 11515, "time": 1537870564, "locktime": 0, "vsize": 225, "size": 225}