{"hash": "bea65b982346b5327d1865f6b7e2eeb2113181f4b21a46e9b24677c9d4130da5", "blockhash": "0000000000000000001cda96e906b7601b7a6fb1a3b62bca570a9e5d8f4b3de1", "vout": [{"scriptPubKey": {"reqSigs": 1, "hex": "a9140ddca0f0d7df3834969a485ea438b24bb111b9ea87", "addresses": ["32xK1aygY2pREw2TB6awG8ttgNzHEUBubx"], "asm": "OP_HASH160 0ddca0f0d7df3834969a485ea438b24bb111b9ea OP_EQUAL", "type": "scripthash"}, "value": 0.01009447, "n": 0}, {"scriptPubKey": {"reqSigs": 1, "hex": "76a914eaefcdb2dfca119b4a6fe59b20660854e2c45f8f88ac", "addresses": ["1NREPjF8tSaGLZ7L1GYJeXc4tRkySu5Z6M"], "asm": "OP_DUP OP_HASH160 eaefcdb2dfca119b4a6fe59b20660854e2c45f8f OP_EQUALVERIFY OP_CHECKSIG", "type": "pubkeyhash"}, "value": 0.0020386, "n": 1}], "hex": "020000000001027a0063c277804d6ac2b5df026170534112644c3cf7f2c37b25f6925d7bbce900090000001716001400629c2917f9457d958382a66419305d4936c7e2feffffff86e15b63acc3fdeefac78b91c36fe13c977f02775b0576cd7b05bcc2d61f182f00000000171600142c83acfed291aba0ac42e7a86e81f9aee977623bfeffffff0227670f000000000017a9140ddca0f0d7df3834969a485ea438b24bb111b9ea87541c0300000000001976a914eaefcdb2dfca119b4a6fe59b20660854e2c45f8f88ac02473044022072039391839477bdccdc65b5a4bc7d5d444f64bae2cc58d1447f0363740f2b770220173dc386f649850fcf15a27cc9a3a825c0e27d43b9314e7d8d8399090886352a0121034ab9368a68b7ece86421dc4e1a5c1abebb258e2709f657f0c0283968f08389f702483045022100f921c1a02ed517571a5b8c10f6f6a27b35f6b1b90047aac4fbbaf0c26fa25ae902203f4f697e775971f8d2ee25843d315ccef0ac50437039a95a5fa73f6150ee56da0121033106a2da09cb1b189dd6d15fd41a808bbce0605a07e9d3efa36788e478ca1b9dc2480800", "vin": [{"txinwitness": ["3044022072039391839477bdccdc65b5a4bc7d5d444f64bae2cc58d1447f0363740f2b770220173dc386f649850fcf15a27cc9a3a825c0e27d43b9314e7d8d8399090886352a01", "034ab9368a68b7ece86421dc4e1a5c1abebb258e2709f657f0c0283968f08389f7"], "sequence": 4294967294, "scriptSig": {"hex": "16001400629c2917f9457d958382a66419305d4936c7e2", "asm": "001400629c2917f9457d958382a66419305d4936c7e2"}, "vout": 9, "txid": "00e9bc7b5d92f6257bc3f2f73c4c64124153706102dfb5c26a4d8077c263007a"}, {"txinwitness": ["3045022100f921c1a02ed517571a5b8c10f6f6a27b35f6b1b90047aac4fbbaf0c26fa25ae902203f4f697e775971f8d2ee25843d315ccef0ac50437039a95a5fa73f6150ee56da01", "033106a2da09cb1b189dd6d15fd41a808bbce0605a07e9d3efa36788e478ca1b9d"], "sequence": 4294967294, "scriptSig": {"hex": "1600142c83acfed291aba0ac42e7a86e81f9aee977623b", "asm": "00142c83acfed291aba0ac42e7a86e81f9aee977623b"}, "vout": 0, "txid": "2f181fd6c2bc057bcd76055b77027f973ce16fc3918bc7faeefdc3ac635be186"}], "txid": "efbf3f2691cd108c1a2bbe759799f2c28a749b969ecd83095c7c8fd3974ca915", "blocktime": 1537873282, "version": 2, "confirmations": 11484, "time": 1537873282, "locktime": 542914, "vsize": 259, "size": 421}