{"hash": "7ed718b70c1504d083ad8bc5d085edf64ab283deee6c8017f4815c164b923616", "blockhash": "00000000000000000017f5eb5941039fbcee6240d03bc1f2f8e35350df66a1d8", "vout": [{"scriptPubKey": {"reqSigs": 1, "hex": "76a9143d47a2ad57e3e16d4590c53e249484e4213de6cb88ac", "addresses": ["16b232By7E74XuyPypQD5YiFrARauH39e3"], "asm": "OP_DUP OP_HASH160 3d47a2ad57e3e16d4590c53e249484e4213de6cb OP_EQUALVERIFY OP_CHECKSIG", "type": "pubkeyhash"}, "value": 0.00022216, "n": 0}, {"scriptPubKey": {"reqSigs": 1, "hex": "a914bfe3b9b006bd60d821de4768216fbcf3cb0629a487", "addresses": ["3KBdnpNRSUC6xH7oL58GWg3f1QzPQs9FWq"], "asm": "OP_HASH160 bfe3b9b006bd60d821de4768216fbcf3cb0629a4 OP_EQUAL", "type": "scripthash"}, "value": 0.00905566, "n": 1}], "hex": "01000000000101a600724e53d9784df05b1a7f2074989be1847a73ed51b3faec49153fc7fafdaa01000000232200204ac72bc93353695ed44de9eabe5eab31fde46c3e5524f6f6c253b37df4627817ffffffff02c8560000000000001976a9143d47a2ad57e3e16d4590c53e249484e4213de6cb88ac5ed10d000000000017a914bfe3b9b006bd60d821de4768216fbcf3cb0629a4870400473044022047e94d9420894db3f71d73764b2f6375fa108a5efdf546d0bb2ceb362907749b02200e78fa7cc538dfd0fdd9d6821c90695df1cc30a77291105c7d925c9c2bbadf680147304402201f69bbe890bdbcabaf441b0f6b5a80f636a4f64833d406fd1e435cab106b9779022076a86b80a0be0bc9edb41c0c0bc60b7696f5f4f6fb0febfcff01a3a35bfdbf4f014752210383dd989bbcdccf0b79b07f5bbd82921af5ac4762329b0aa9346994805e5cd8fc2103871fc2ca08e6950b38867e8e6a0e94ee625223d3aa0df5c65f414c6d784467e252ae00000000", "vin": [{"txinwitness": ["", "3044022047e94d9420894db3f71d73764b2f6375fa108a5efdf546d0bb2ceb362907749b02200e78fa7cc538dfd0fdd9d6821c90695df1cc30a77291105c7d925c9c2bbadf6801", "304402201f69bbe890bdbcabaf441b0f6b5a80f636a4f64833d406fd1e435cab106b9779022076a86b80a0be0bc9edb41c0c0bc60b7696f5f4f6fb0febfcff01a3a35bfdbf4f01", "52210383dd989bbcdccf0b79b07f5bbd82921af5ac4762329b0aa9346994805e5cd8fc2103871fc2ca08e6950b38867e8e6a0e94ee625223d3aa0df5c65f414c6d784467e252ae"], "sequence": 4294967295, "scriptSig": {"hex": "2200204ac72bc93353695ed44de9eabe5eab31fde46c3e5524f6f6c253b37df4627817", "asm": "00204ac72bc93353695ed44de9eabe5eab31fde46c3e5524f6f6c253b37df4627817"}, "vout": 1, "txid": "aafdfac73f1549ecfab351ed737a84e19b9874207f1a5bf04d78d9534e7200a6"}], "txid": "efc7d314d4ca423ed3befe6c282d3b585b1c7638d7215ec9059805d541ec2604", "blocktime": 1537874412, "version": 1, "confirmations": 11467, "time": 1537874412, "locktime": 0, "vsize": 207, "size": 372}