{"hash": "efcb71cb757a6b91744135b11158e0bc448e5803449e0f6c8306eee78ac24b26", "blockhash": "0000000000000000001f0ddff1eddb255c1121bcd4da4f1bc9a0da00cae72433", "vout": [{"scriptPubKey": {"reqSigs": 1, "hex": "a914f6776e06a4f8ecccd825e950686cdb22e4b01d1287", "addresses": ["3QADDruUr6khCoMGtRmdw33U5pV9PHykwB"], "asm": "OP_HASH160 f6776e06a4f8ecccd825e950686cdb22e4b01d12 OP_EQUAL", "type": "scripthash"}, "value": 0.00031246, "n": 0}, {"scriptPubKey": {"reqSigs": 1, "hex": "76a9149a0b49d2499af18ce8165899dcdcb84b9118562a88ac", "addresses": ["1F3WasXqBRhaZA3XoJ7nEGDwBZzoEjTWTT"], "asm": "OP_DUP OP_HASH160 9a0b49d2499af18ce8165899dcdcb84b9118562a OP_EQUALVERIFY OP_CHECKSIG", "type": "pubkeyhash"}, "value": 0.01126243, "n": 1}], "hex": "010000000113929d86ab538c78534167aa4feb05ab8d9db62c4621eb14b5085cf75a08ba90010000006a473044022074426e7bfbd9aaccb26eabf0095ed3cccc2cb8d7a31f0c243214fb0e464c153d02207b4d3aa8f3a96a8a2b313c2235f20f684c9f4dee482155650b9389f181d07067012102eb4a9b23356e445b7110952d9339a223da6d3501b8a5b89eef7e52965f2282f4ffffffff020e7a00000000000017a914f6776e06a4f8ecccd825e950686cdb22e4b01d1287632f1100000000001976a9149a0b49d2499af18ce8165899dcdcb84b9118562a88ac00000000", "vin": [{"sequence": 4294967295, "scriptSig": {"hex": "473044022074426e7bfbd9aaccb26eabf0095ed3cccc2cb8d7a31f0c243214fb0e464c153d02207b4d3aa8f3a96a8a2b313c2235f20f684c9f4dee482155650b9389f181d07067012102eb4a9b23356e445b7110952d9339a223da6d3501b8a5b89eef7e52965f2282f4", "asm": "3044022074426e7bfbd9aaccb26eabf0095ed3cccc2cb8d7a31f0c243214fb0e464c153d02207b4d3aa8f3a96a8a2b313c2235f20f684c9f4dee482155650b9389f181d07067[ALL] 02eb4a9b23356e445b7110952d9339a223da6d3501b8a5b89eef7e52965f2282f4"}, "vout": 1, "txid": "90ba085af75c08b514eb21462cb69d8dab05eb4faa674153788c53ab869d9213"}], "txid": "efcb71cb757a6b91744135b11158e0bc448e5803449e0f6c8306eee78ac24b26", "blocktime": 1537872018, "version": 1, "confirmations": 11489, "time": 1537872018, "locktime": 0, "vsize": 223, "size": 223}