{"hash": "b36ed67b5362227ac68771a813502c01cd19fc5bffeb2854f3e856a88bd84fbe", "blockhash": "0000000000000000001f0ddff1eddb255c1121bcd4da4f1bc9a0da00cae72433", "vout": [{"scriptPubKey": {"reqSigs": 1, "hex": "a9143b0d9e6b4819cb873037ffec09446eb707017e9787", "addresses": ["375G77aditf8LAwYbCgJYz7rqkGdwGKtDW"], "asm": "OP_HASH160 3b0d9e6b4819cb873037ffec09446eb707017e97 OP_EQUAL", "type": "scripthash"}, "value": 0.0001, "n": 0}, {"scriptPubKey": {"reqSigs": 1, "hex": "0014a84494300784648a3dcdadbd09b7187fceacc0db", "addresses": ["bc1q4pzfgvq8s3jg50wd4k7sndcc0l82esxma48vj7"], "asm": "0 a84494300784648a3dcdadbd09b7187fceacc0db", "type": "witness_v0_keyhash"}, "value": 1.443e-05, "n": 1}], "hex": "0100000000010165c418361c1c2dbd41df6c1846c492d6fbdfcb32d6e6d3edc4c288e73a72dc2c0000000000ffffffff02102700000000000017a9143b0d9e6b4819cb873037ffec09446eb707017e9787a305000000000000160014a84494300784648a3dcdadbd09b7187fceacc0db024730440220526d3e1c8459966e259ce06102f8fe449cc21244a17c9e86bec5dc85fe372a750220422f695f9ed7c88b6805fb6e10a0f3dd17d9c4a11d6be7b4acb4f9a3d26c8b3e012103dba04f51548e8094f95137e24d304a44432638aad227de8ddfd05e1ec40fee9900000000", "vin": [{"txinwitness": ["30440220526d3e1c8459966e259ce06102f8fe449cc21244a17c9e86bec5dc85fe372a750220422f695f9ed7c88b6805fb6e10a0f3dd17d9c4a11d6be7b4acb4f9a3d26c8b3e01", "03dba04f51548e8094f95137e24d304a44432638aad227de8ddfd05e1ec40fee99"], "sequence": 4294967295, "scriptSig": {"hex": "", "asm": ""}, "vout": 0, "txid": "2cdc723ae788c2c4edd3e6d632cbdffbd692c446186cdf41bd2d1c1c3618c465"}], "txid": "efce0e234f335a28fb4959bdc809a70bef7026d424af5140d573e35dd59f03f6", "blocktime": 1537872018, "version": 1, "confirmations": 11489, "time": 1537872018, "locktime": 0, "vsize": 142, "size": 223}