{"hash": "b7db7ad05698f57ce3a108a3c7ba950b8b57846c595e4232a9600e8f87464bd5", "blockhash": "00000000000000000017f5eb5941039fbcee6240d03bc1f2f8e35350df66a1d8", "vout": [{"scriptPubKey": {"reqSigs": 1, "hex": "001437b678377b6e3273bd1d99fb9461ab6879b079d8", "addresses": ["bc1qx7m8sdmmdce880gan8aegcdtdpumq7wc3s0rrz"], "asm": "0 37b678377b6e3273bd1d99fb9461ab6879b079d8", "type": "witness_v0_keyhash"}, "value": 0.00104428, "n": 0}, {"scriptPubKey": {"reqSigs": 1, "hex": "76a91424677b473c993976aa7ce3c4e2dc56cfd81eec9388ac", "addresses": ["14KVHvxzUJiMpNzwcLhjXRBVGSS2Cmrvp6"], "asm": "OP_DUP OP_HASH160 24677b473c993976aa7ce3c4e2dc56cfd81eec93 OP_EQUALVERIFY OP_CHECKSIG", "type": "pubkeyhash"}, "value": 0.01844557, "n": 1}], "hex": "01000000000101c7d597b2962b8617cd4411d40ef3baaad4e79a81e86d475f421c9c25cf38ae4a0000000000ffffffff02ec9701000000000016001437b678377b6e3273bd1d99fb9461ab6879b079d84d251c00000000001976a91424677b473c993976aa7ce3c4e2dc56cfd81eec9388ac02483045022100bc9a453e2ea6c3e1e8563eab5b040a1637b0110d497013f2a9502c0072020787022060b3dba0517073d18a8b0939a8e12f6b917b6b7cc262784f98fdd6a3636476bb0121025264d50e7aa7fb015bdf08a54bf1b2ce5683005bca7e37ee55deca36ef24f15700000000", "vin": [{"txinwitness": ["3045022100bc9a453e2ea6c3e1e8563eab5b040a1637b0110d497013f2a9502c0072020787022060b3dba0517073d18a8b0939a8e12f6b917b6b7cc262784f98fdd6a3636476bb01", "025264d50e7aa7fb015bdf08a54bf1b2ce5683005bca7e37ee55deca36ef24f157"], "sequence": 4294967295, "scriptSig": {"hex": "", "asm": ""}, "vout": 0, "txid": "4aae38cf259c1c425f476de8819ae7d4aabaf30ed41144cd17862b96b297d5c7"}], "txid": "efce2df963f289d510d0d4fc2e50913bf8f7a6a215dcefba6e73d55e2bca222b", "blocktime": 1537874412, "version": 1, "confirmations": 11467, "time": 1537874412, "locktime": 0, "vsize": 144, "size": 226}