{"hash": "efd092382351923db0c631764533ee91cb9000df5019f9a943473961798e9f94", "blockhash": "00000000000000000024a2167bbff67b0be802c0b01cdd79e6331c2be6459f87", "vout": [{"scriptPubKey": {"reqSigs": 1, "hex": "a9147fec84beaa1e078f28681e3c0998667539cb610487", "addresses": ["3DMR5W5FjKYL9PVZWeC8Zgt6AyYTuWQHRi"], "asm": "OP_HASH160 7fec84beaa1e078f28681e3c0998667539cb6104 OP_EQUAL", "type": "scripthash"}, "value": 0.00951044, "n": 0}, {"scriptPubKey": {"reqSigs": 1, "hex": "76a9147b06cd3c837c8871a10c1a3fcdd7a9d22984787088ac", "addresses": ["1CDWGBnFAMhw8tXLWEeyLyqXd3XN4xURUV"], "asm": "OP_DUP OP_HASH160 7b06cd3c837c8871a10c1a3fcdd7a9d229847870 OP_EQUALVERIFY OP_CHECKSIG", "type": "pubkeyhash"}, "value": 0.01054447, "n": 1}], "hex": "01000000014e4e79b54e5466df9f950bcdffba344b7a4a3810a8bb8f7db53ddabb67ee678e000000006a47304402201803f11e6530d433dcb12928ea4c4912838b33dad481450f8ef07e9634a7d75702200fde73048255382cb271ecbe873330158a3450fbc4abf6b0bc46c41e04a428f50121035d6f7c85f190e5d7af62b43b5c6fb75edd19d888596b3e1d13c14850a30cdf26fdffffff0204830e000000000017a9147fec84beaa1e078f28681e3c0998667539cb610487ef161000000000001976a9147b06cd3c837c8871a10c1a3fcdd7a9d22984787088ac0d490800", "vin": [{"sequence": 4294967293, "scriptSig": {"hex": "47304402201803f11e6530d433dcb12928ea4c4912838b33dad481450f8ef07e9634a7d75702200fde73048255382cb271ecbe873330158a3450fbc4abf6b0bc46c41e04a428f50121035d6f7c85f190e5d7af62b43b5c6fb75edd19d888596b3e1d13c14850a30cdf26", "asm": "304402201803f11e6530d433dcb12928ea4c4912838b33dad481450f8ef07e9634a7d75702200fde73048255382cb271ecbe873330158a3450fbc4abf6b0bc46c41e04a428f5[ALL] 035d6f7c85f190e5d7af62b43b5c6fb75edd19d888596b3e1d13c14850a30cdf26"}, "vout": 0, "txid": "8e67ee67bbda3db57d8fbba810384a7a4b34baffcd0b959fdf66544eb5794e4e"}], "txid": "efd092382351923db0c631764533ee91cb9000df5019f9a943473961798e9f94", "blocktime": 1537870564, "version": 1, "confirmations": 11515, "time": 1537870564, "locktime": 542989, "vsize": 223, "size": 223}