{"hash": "eb90f1018df8a99b8e4b2912dbe570868cb73e6c371cff5b78ec299235a2d2a7", "blockhash": "0000000000000000001cda96e906b7601b7a6fb1a3b62bca570a9e5d8f4b3de1", "vout": [{"scriptPubKey": {"reqSigs": 1, "hex": "002058c8797f181e000075cb9a18a9662013b795012e86acc04d56a2d229e7b8d7c4", "addresses": ["bc1qtry8jlccrcqqqawtngv2je3qzwme2qfws6kvqn2k5tfzneac6lzqpgummp"], "asm": "0 58c8797f181e000075cb9a18a9662013b795012e86acc04d56a2d229e7b8d7c4", "type": "witness_v0_scripthash"}, "value": 0.17941308, "n": 0}], "hex": "01000000000101a0514fa81ee60e22e234315c0d384e04746d4b0a5482d32fe2877f9fb22c227a04000000171600145a7bcaa7c06daff5640551131002788c77c9bad1ffffffff013cc311010000000022002058c8797f181e000075cb9a18a9662013b795012e86acc04d56a2d229e7b8d7c4024730440220055b92157bbe92c3b759d8e10041c4e2409e5949667c826ca6e37a43aff9e1640220206edb2df3f0dd0fe5dd70169601cd5e10a83d9cde4f38390a781a0efab903fb01210311ddaa88b5c42b6d1edf849f3ced803431faee654f6e1b80d6ca8333540a9b3400000000", "vin": [{"txinwitness": ["30440220055b92157bbe92c3b759d8e10041c4e2409e5949667c826ca6e37a43aff9e1640220206edb2df3f0dd0fe5dd70169601cd5e10a83d9cde4f38390a781a0efab903fb01", "0311ddaa88b5c42b6d1edf849f3ced803431faee654f6e1b80d6ca8333540a9b34"], "sequence": 4294967295, "scriptSig": {"hex": "1600145a7bcaa7c06daff5640551131002788c77c9bad1", "asm": "00145a7bcaa7c06daff5640551131002788c77c9bad1"}, "vout": 4, "txid": "7a222cb29f7f87e22fd382540a4b6d74044e380d5c3134e2220ee61ea84f51a0"}], "txid": "efdce37cb24469dadfefe0ea5c7be3922e02804e918ce36f137ddd79f657d012", "blocktime": 1537873282, "version": 1, "confirmations": 11485, "time": 1537873282, "locktime": 0, "vsize": 145, "size": 226}