{"hash": "39826ae2cc5d26e56a98e352c697aa349749059ef76054c05026facf7a9eda9b", "blockhash": "00000000000000000017f5eb5941039fbcee6240d03bc1f2f8e35350df66a1d8", "vout": [{"scriptPubKey": {"reqSigs": 1, "hex": "a914b9d1d555184810379454ffb48424798bd4cc90fc87", "addresses": ["3JdYJWQEhTngAT1tJW8SqWddgU3f6szUTM"], "asm": "OP_HASH160 b9d1d555184810379454ffb48424798bd4cc90fc OP_EQUAL", "type": "scripthash"}, "value": 0.0107597, "n": 0}, {"scriptPubKey": {"reqSigs": 1, "hex": "76a9141bf9ee99fa191c751c90dd0a63707d235c1cecc588ac", "addresses": ["13YvemBfdRfLknxQi2DCqFYYSvrixMVr7w"], "asm": "OP_DUP OP_HASH160 1bf9ee99fa191c751c90dd0a63707d235c1cecc5 OP_EQUALVERIFY OP_CHECKSIG", "type": "pubkeyhash"}, "value": 0.0022706, "n": 1}], "hex": "0200000000010268530c4ccaa5613b1ca1bfa68c9a4fc982d218f78326dcffe4ead7aa169a80dc0000000017160014e0e3aedee80a5de6bcc9539042630a43dc3ff40afeffffffe4ff714a2fdf7ec91c512d6a99e98602b676076daada050d400af28c31da33a81900000017160014a95e0ab62ffa8f6e413bb8b94df0d38681d7d630feffffff02026b10000000000017a914b9d1d555184810379454ffb48424798bd4cc90fc87f4760300000000001976a9141bf9ee99fa191c751c90dd0a63707d235c1cecc588ac02473044022060066d9b81c606dfc753e8834b98d6a8accc4d387bd02ff7c96dcb0d80b7718c02204688ec10080214ef3270f34414041359ad49ff0c9f592303e218936f667fb4be012103e2b362e06463b020e869f56a4c4707c58ad0386b2b01c1317e4ad78324f966e902483045022100b1ba74d166f147033de78506897230f0853daf4d25db12ae89b78a3ded8a1cd702202359b72124d256ccd838df8085bab38ad080b86d70913520efd84ab58a33241c012102cba51a706e50fd66dbcd995e25a0ec594383d1953793b2f9a064df8ac27829e615490800", "vin": [{"txinwitness": ["3044022060066d9b81c606dfc753e8834b98d6a8accc4d387bd02ff7c96dcb0d80b7718c02204688ec10080214ef3270f34414041359ad49ff0c9f592303e218936f667fb4be01", "03e2b362e06463b020e869f56a4c4707c58ad0386b2b01c1317e4ad78324f966e9"], "sequence": 4294967294, "scriptSig": {"hex": "160014e0e3aedee80a5de6bcc9539042630a43dc3ff40a", "asm": "0014e0e3aedee80a5de6bcc9539042630a43dc3ff40a"}, "vout": 0, "txid": "dc809a16aad7eae4ffdc2683f718d282c94f9a8ca6bfa11c3b61a5ca4c0c5368"}, {"txinwitness": ["3045022100b1ba74d166f147033de78506897230f0853daf4d25db12ae89b78a3ded8a1cd702202359b72124d256ccd838df8085bab38ad080b86d70913520efd84ab58a33241c01", "02cba51a706e50fd66dbcd995e25a0ec594383d1953793b2f9a064df8ac27829e6"], "sequence": 4294967294, "scriptSig": {"hex": "160014a95e0ab62ffa8f6e413bb8b94df0d38681d7d630", "asm": "0014a95e0ab62ffa8f6e413bb8b94df0d38681d7d630"}, "vout": 25, "txid": "a833da318cf20a400d05daaa6d0776b60286e9996a2d511cc97edf2f4a71ffe4"}], "txid": "efddefe55ddc0291609e98be4367b1e500a493634300ce3265136dd34004a2f2", "blocktime": 1537874412, "version": 2, "confirmations": 11468, "time": 1537874412, "locktime": 542997, "vsize": 259, "size": 421}