{"hash": "92b67aacad1405025c3275d17c53a8c8d736a05ff3bf47744921a06354e63f45", "blockhash": "0000000000000000000baef3f32e3676a92c3b2e5da21b426e4f302fc371ce76", "vout": [{"scriptPubKey": {"reqSigs": 1, "hex": "76a91402db180ef2e24a4297ea85354fac3f2e2154f37488ac", "addresses": ["1G6pJQevDY6c1ZaG3NrK8QoJF4MtVXcYn"], "asm": "OP_DUP OP_HASH160 02db180ef2e24a4297ea85354fac3f2e2154f374 OP_EQUALVERIFY OP_CHECKSIG", "type": "pubkeyhash"}, "value": 0.00018296, "n": 0}, {"scriptPubKey": {"reqSigs": 1, "hex": "a914bfe3b9b006bd60d821de4768216fbcf3cb0629a487", "addresses": ["3KBdnpNRSUC6xH7oL58GWg3f1QzPQs9FWq"], "asm": "OP_HASH160 bfe3b9b006bd60d821de4768216fbcf3cb0629a4 OP_EQUAL", "type": "scripthash"}, "value": 0.00520087, "n": 1}], "hex": "01000000000101e751837611af9bebb18c75fe2db14c504614fb47eb1a773cfa067eae51f15ed501000000232200204ac72bc93353695ed44de9eabe5eab31fde46c3e5524f6f6c253b37df4627817ffffffff0278470000000000001976a91402db180ef2e24a4297ea85354fac3f2e2154f37488ac97ef07000000000017a914bfe3b9b006bd60d821de4768216fbcf3cb0629a487040047304402206dbe79c6b8dd8011f8a595f3c7ea01764b310744618286f68f9a4a1b7affcea702200e0508c71565f30257220b5b47eabce01b517d21abb3aba5b6b60f3843feb3a70147304402204756b72bfeffb05bc618ef9f0b30c7f61b8300c9e9d05a805165d1d80430da8402204ca5b492a2ee8eee65f9d0996369e756c6beacc13f7df3396011ee3cc9ca33f8014752210383dd989bbcdccf0b79b07f5bbd82921af5ac4762329b0aa9346994805e5cd8fc2103871fc2ca08e6950b38867e8e6a0e94ee625223d3aa0df5c65f414c6d784467e252ae00000000", "vin": [{"txinwitness": ["", "304402206dbe79c6b8dd8011f8a595f3c7ea01764b310744618286f68f9a4a1b7affcea702200e0508c71565f30257220b5b47eabce01b517d21abb3aba5b6b60f3843feb3a701", "304402204756b72bfeffb05bc618ef9f0b30c7f61b8300c9e9d05a805165d1d80430da8402204ca5b492a2ee8eee65f9d0996369e756c6beacc13f7df3396011ee3cc9ca33f801", "52210383dd989bbcdccf0b79b07f5bbd82921af5ac4762329b0aa9346994805e5cd8fc2103871fc2ca08e6950b38867e8e6a0e94ee625223d3aa0df5c65f414c6d784467e252ae"], "sequence": 4294967295, "scriptSig": {"hex": "2200204ac72bc93353695ed44de9eabe5eab31fde46c3e5524f6f6c253b37df4627817", "asm": "00204ac72bc93353695ed44de9eabe5eab31fde46c3e5524f6f6c253b37df4627817"}, "vout": 1, "txid": "d55ef151ae7e06fa3c771aeb47fb1446504cb12dfe758cb1eb9baf11768351e7"}], "txid": "efe06adc0ebcf8ddcce783d0a53286b7921a26d295e783b4da02690b50a296e0", "blocktime": 1537876114, "version": 1, "confirmations": 11460, "time": 1537876114, "locktime": 0, "vsize": 207, "size": 372}