{"hash": "eff640b1d75f0008cb59a4cf2d1a299c07a32eed8d720e7480ed9854abd3959d", "blockhash": "00000000000000000004ffacab907a6b429b9a5745fa0b75af4234bf69dd7176", "vout": [{"scriptPubKey": {"reqSigs": 1, "hex": "76a91439e2da9605d1a5177ff7d9a9291c1d2db3cd883c88ac", "addresses": ["16H5H1wkYMRFgLUy1oLmg9dgciJWXVcR78"], "asm": "OP_DUP OP_HASH160 39e2da9605d1a5177ff7d9a9291c1d2db3cd883c OP_EQUALVERIFY OP_CHECKSIG", "type": "pubkeyhash"}, "value": 8.009e-05, "n": 0}, {"scriptPubKey": {"reqSigs": 1, "hex": "a914a8c2fd126fefe70add67d9b8be6ff4e04a3a8b6a87", "addresses": ["3H5M2pAuR1Eq7wEoa9ayCiwhAS4ELxra3C"], "asm": "OP_HASH160 a8c2fd126fefe70add67d9b8be6ff4e04a3a8b6a OP_EQUAL", "type": "scripthash"}, "value": 0.00547527, "n": 1}], "hex": "0100000002c0f4243139b48500a0ff71ad49507d5bf20b6797f0a242fa6bbd86d27c71419c000000006b483045022100ea6c8598af3b514f5ac92a3fbf6c31ed7192e3a504a739dd1f40f4c1341d7bca022016586cb767cb754c5eb5be0127aaa9123305d39f9d93a0cb630bc7f2ed3396370121035032f4030408f60771185329de3736dc8a9c8018407282d21f9f2729a15df0beffffffff1f3cbacd9f10a970823ccd921aaeef0c8599dc3aac862778daa52129065057c8010000006b483045022100c083ef96b55e7d73c9ba176ebc20ee1265f14ed8aaa76e55409e33ca5922d1c002206797b059fda5b958f70edb99a82781bbc26ef7814223bb6afe28f26c5d579997012103a018d22a140768f645696a1cbc38dfc03b94ad3f9039e4cf76f20411df322e89ffffffff02491f0000000000001976a91439e2da9605d1a5177ff7d9a9291c1d2db3cd883c88acc75a08000000000017a914a8c2fd126fefe70add67d9b8be6ff4e04a3a8b6a8700000000", "vin": [{"sequence": 4294967295, "scriptSig": {"hex": "483045022100ea6c8598af3b514f5ac92a3fbf6c31ed7192e3a504a739dd1f40f4c1341d7bca022016586cb767cb754c5eb5be0127aaa9123305d39f9d93a0cb630bc7f2ed3396370121035032f4030408f60771185329de3736dc8a9c8018407282d21f9f2729a15df0be", "asm": "3045022100ea6c8598af3b514f5ac92a3fbf6c31ed7192e3a504a739dd1f40f4c1341d7bca022016586cb767cb754c5eb5be0127aaa9123305d39f9d93a0cb630bc7f2ed339637[ALL] 035032f4030408f60771185329de3736dc8a9c8018407282d21f9f2729a15df0be"}, "vout": 0, "txid": "9c41717cd286bd6bfa42a2f097670bf25b7d5049ad71ffa00085b4393124f4c0"}, {"sequence": 4294967295, "scriptSig": {"hex": "483045022100c083ef96b55e7d73c9ba176ebc20ee1265f14ed8aaa76e55409e33ca5922d1c002206797b059fda5b958f70edb99a82781bbc26ef7814223bb6afe28f26c5d579997012103a018d22a140768f645696a1cbc38dfc03b94ad3f9039e4cf76f20411df322e89", "asm": "3045022100c083ef96b55e7d73c9ba176ebc20ee1265f14ed8aaa76e55409e33ca5922d1c002206797b059fda5b958f70edb99a82781bbc26ef7814223bb6afe28f26c5d579997[ALL] 03a018d22a140768f645696a1cbc38dfc03b94ad3f9039e4cf76f20411df322e89"}, "vout": 1, "txid": "c85750062921a5da782786ac3adc99850cefae1a92cd3c8270a9109fcdba3c1f"}], "txid": "eff640b1d75f0008cb59a4cf2d1a299c07a32eed8d720e7480ed9854abd3959d", "blocktime": 1537875543, "version": 1, "confirmations": 11464, "time": 1537875543, "locktime": 0, "vsize": 372, "size": 372}