{"hash": "eff757d4de7269a526403b49a15c02862870f7eb9fe0f77bc9bb357b7f4ab6d1", "blockhash": "000000000000000000022b45ed06c6f4ccd3cf7fb5ba4856ebd2e58215665228", "vout": [{"scriptPubKey": {"reqSigs": 1, "hex": "76a9145cec0cc279228016d3f4400d626564feb9301f5588ac", "addresses": ["19UKwgP661951iNzYeXeatgsd9h5EcEteh"], "asm": "OP_DUP OP_HASH160 5cec0cc279228016d3f4400d626564feb9301f55 OP_EQUALVERIFY OP_CHECKSIG", "type": "pubkeyhash"}, "value": 0.00072505, "n": 0}, {"scriptPubKey": {"reqSigs": 1, "hex": "76a9142bda53a70d92fcd575584e8955d9f2102b29b0a988ac", "addresses": ["14zsbrnue2VLhQ43gJ9TsknuyVBgnfnGe9"], "asm": "OP_DUP OP_HASH160 2bda53a70d92fcd575584e8955d9f2102b29b0a9 OP_EQUALVERIFY OP_CHECKSIG", "type": "pubkeyhash"}, "value": 0.133599, "n": 1}], "hex": "0100000001d5583e733eac8f1dbdb382bf78cd14fda40e50ad7807fb8e0c622eeb413265134f0000006a47304402204a7d6330f49fc167e7797455e8501ae422a0e421d252d8ccdcdb00feef255f56022036104b00f987b0d9837ebd6b3e23c8e6d055bcfcb569a664c6a26c98ca42bd8d01210352f30f88357aa5a3111449f8bd98aa694147a2cba2f32222bd1aba73d9c2ce5affffffff02391b0100000000001976a9145cec0cc279228016d3f4400d626564feb9301f5588ac1cdbcb00000000001976a9142bda53a70d92fcd575584e8955d9f2102b29b0a988ac00000000", "vin": [{"sequence": 4294967295, "scriptSig": {"hex": "47304402204a7d6330f49fc167e7797455e8501ae422a0e421d252d8ccdcdb00feef255f56022036104b00f987b0d9837ebd6b3e23c8e6d055bcfcb569a664c6a26c98ca42bd8d01210352f30f88357aa5a3111449f8bd98aa694147a2cba2f32222bd1aba73d9c2ce5a", "asm": "304402204a7d6330f49fc167e7797455e8501ae422a0e421d252d8ccdcdb00feef255f56022036104b00f987b0d9837ebd6b3e23c8e6d055bcfcb569a664c6a26c98ca42bd8d[ALL] 0352f30f88357aa5a3111449f8bd98aa694147a2cba2f32222bd1aba73d9c2ce5a"}, "vout": 79, "txid": "13653241eb2e620c8efb0778ad500ea4fd14cd78bf82b3bd1d8fac3e733e58d5"}], "txid": "eff757d4de7269a526403b49a15c02862870f7eb9fe0f77bc9bb357b7f4ab6d1", "blocktime": 1537869901, "version": 1, "confirmations": 11524, "time": 1537869901, "locktime": 0, "vsize": 225, "size": 225}