{"hash": "eff9fb44b362ab06ede999f861c5ef48ec2fcbb0f9c1a4e72c0d08e3af02cc8f", "blockhash": "0000000000000000000e13cef7c366c0283d82e591d1acd082e914b08063cdf1", "vout": [{"scriptPubKey": {"reqSigs": 1, "hex": "76a91435ba2811975232e0efae9d8d073c87d4a5da613588ac", "addresses": ["15u5pYpiW4eKnr7GzkcSJPMXCcVijJykSf"], "asm": "OP_DUP OP_HASH160 35ba2811975232e0efae9d8d073c87d4a5da6135 OP_EQUALVERIFY OP_CHECKSIG", "type": "pubkeyhash"}, "value": 0.00644341, "n": 0}, {"scriptPubKey": {"type": "nulldata", "hex": "6a4c500000778d0001215d7394c3445270de839f71e3ef3236678a625097bcbefa6b8351586b4e288ae09584fcdf2aaa2957d9a724d12c5baa0c670613b6d84d2354351d100759d4ba30d2c37bb011d97e02cf", "asm": "OP_RETURN 0000778d0001215d7394c3445270de839f71e3ef3236678a625097bcbefa6b8351586b4e288ae09584fcdf2aaa2957d9a724d12c5baa0c670613b6d84d2354351d100759d4ba30d2c37bb011d97e02cf"}, "value": 0.0, "n": 1}], "hex": "0100000001a1b526d9145644fad971cbb29fdbe776a790ef022d541034177f14d819a091ce010000006a47304402206fd1b128582cf1a108b0f212f572a218c0892c045d3332fd204295de0ffb91fd0220229008db47fe8e2ef611d0ca3c3fa5664973196207c51183a79a424bf7a350f10121025feb0b6c360c96ee190efb6b66f8c13650d5467a2d91120aa6550a03b44f8890ffffffff02f5d40900000000001976a91435ba2811975232e0efae9d8d073c87d4a5da613588ac0000000000000000536a4c500000778d0001215d7394c3445270de839f71e3ef3236678a625097bcbefa6b8351586b4e288ae09584fcdf2aaa2957d9a724d12c5baa0c670613b6d84d2354351d100759d4ba30d2c37bb011d97e02cf00000000", "vin": [{"sequence": 4294967295, "scriptSig": {"hex": "47304402206fd1b128582cf1a108b0f212f572a218c0892c045d3332fd204295de0ffb91fd0220229008db47fe8e2ef611d0ca3c3fa5664973196207c51183a79a424bf7a350f10121025feb0b6c360c96ee190efb6b66f8c13650d5467a2d91120aa6550a03b44f8890", "asm": "304402206fd1b128582cf1a108b0f212f572a218c0892c045d3332fd204295de0ffb91fd0220229008db47fe8e2ef611d0ca3c3fa5664973196207c51183a79a424bf7a350f1[ALL] 025feb0b6c360c96ee190efb6b66f8c13650d5467a2d91120aa6550a03b44f8890"}, "vout": 1, "txid": "ce91a019d8147f173410542d02ef90a776e7db9fb2cb71d9fa445614d926b5a1"}], "txid": "eff9fb44b362ab06ede999f861c5ef48ec2fcbb0f9c1a4e72c0d08e3af02cc8f", "blocktime": 1537871767, "version": 1, "confirmations": 11495, "time": 1537871767, "locktime": 0, "vsize": 283, "size": 283}