{"hash": "dd8dab1e20e7b878a2aab77fd52051e06fff665dfcb9ffb7d6140a4e85cb9d87", "blockhash": "0000000000000000000e13cef7c366c0283d82e591d1acd082e914b08063cdf1", "vout": [{"scriptPubKey": {"reqSigs": 1, "hex": "001465c40eb661832abf409b6f3389f885a052190467", "addresses": ["bc1qvhzqadnpsv4t7symduecn7y95pfpjpr8nryaxh"], "asm": "0 65c40eb661832abf409b6f3389f885a052190467", "type": "witness_v0_keyhash"}, "value": 1.20864586, "n": 0}, {"scriptPubKey": {"reqSigs": 1, "hex": "a91469f3756646ee50296381080d2da845d403c8234a87", "addresses": ["3BMEXV7MjuBC8ddRyGdwVL77SW6spUrxYf"], "asm": "OP_HASH160 69f3756646ee50296381080d2da845d403c8234a OP_EQUAL", "type": "scripthash"}, "value": 0.0274, "n": 1}], "hex": "0100000000010177f48f9bc7818f3b284eefd1cc91ca933edaff7e07e0ac834955e47eab72b88c0000000000ffffffff024a3f34070000000016001465c40eb661832abf409b6f3389f885a05219046720cf29000000000017a91469f3756646ee50296381080d2da845d403c8234a8702483045022100d844da050ad9626a8cfdf91cdb7770a073125f59a959adc9f50b6656140ea6b002206ed039bb4603d54438827c954d2ca615989d822dab2e83005b2b6fbe8b7981960121023455d73f84627b018e04bb732de3d77a6179541983f31a123296b0b92e3ff5ee00000000", "vin": [{"txinwitness": ["3045022100d844da050ad9626a8cfdf91cdb7770a073125f59a959adc9f50b6656140ea6b002206ed039bb4603d54438827c954d2ca615989d822dab2e83005b2b6fbe8b79819601", "023455d73f84627b018e04bb732de3d77a6179541983f31a123296b0b92e3ff5ee"], "sequence": 4294967295, "scriptSig": {"hex": "", "asm": ""}, "vout": 0, "txid": "8cb872ab7ee4554983ace0077effda3e93ca91ccd1ef4e283b8f81c79b8ff477"}], "txid": "f004f4a665c8bfed3a999420b80ab8b62a1421561cbeccb8b993f05d2f0a1805", "blocktime": 1537871767, "version": 1, "confirmations": 11495, "time": 1537871767, "locktime": 0, "vsize": 142, "size": 224}