{"hash": "f0058e84b82cb92ddd560b12089f470df6019db0d1df881737fecb280c6e9c78", "blockhash": "00000000000000000017f5eb5941039fbcee6240d03bc1f2f8e35350df66a1d8", "vout": [{"scriptPubKey": {"reqSigs": 1, "hex": "a914a0da2bd7297278bc692a5d5311578f1a4425d3fa87", "addresses": ["3GMXQ3L1ru95Y4RhdgkGnRsgAjG4cwti5r"], "asm": "OP_HASH160 a0da2bd7297278bc692a5d5311578f1a4425d3fa OP_EQUAL", "type": "scripthash"}, "value": 0.00262272, "n": 0}, {"scriptPubKey": {"reqSigs": 1, "hex": "a9143cccbe93f4d45a30fd109d99e36cb49035d08d9d87", "addresses": ["37EVjwt3LDUMU6M6KFSbaxNtPdfGzivyts"], "asm": "OP_HASH160 3cccbe93f4d45a30fd109d99e36cb49035d08d9d OP_EQUAL", "type": "scripthash"}, "value": 0.2195, "n": 1}, {"scriptPubKey": {"reqSigs": 1, "hex": "76a914656ce0c4cf9f1c1a342913f2a585176ee3adc81888ac", "addresses": ["1AFHgMNGgyPPyv8nVD79FukhbHnGfykc8V"], "asm": "OP_DUP OP_HASH160 656ce0c4cf9f1c1a342913f2a585176ee3adc818 OP_EQUALVERIFY OP_CHECKSIG", "type": "pubkeyhash"}, "value": 0.34821239, "n": 2}, {"scriptPubKey": {"reqSigs": 1, "hex": "76a914cf6e99b548b40f99f31df47920d33db0dd57ab8288ac", "addresses": ["1KuoNMwJAqpNU31psZPP6CNwA1kfV9rtBM"], "asm": "OP_DUP OP_HASH160 cf6e99b548b40f99f31df47920d33db0dd57ab82 OP_EQUALVERIFY OP_CHECKSIG", "type": "pubkeyhash"}, "value": 0.3095, "n": 3}, {"scriptPubKey": {"reqSigs": 1, "hex": "76a914c46a25f430f4ace9ef161dab7ec9be32d7b9d67288ac", "addresses": ["1JuYbuioZ81qEhLikEX76disbSHVets2cy"], "asm": "OP_DUP OP_HASH160 c46a25f430f4ace9ef161dab7ec9be32d7b9d672 OP_EQUALVERIFY OP_CHECKSIG", "type": "pubkeyhash"}, "value": 0.00104545, "n": 4}, {"scriptPubKey": {"reqSigs": 1, "hex": "76a9141759144c645ced8a609c5e87a2170211127c785f88ac", "addresses": ["138TFkV4Srrca134JKD5hT479cxvrJqFhQ"], "asm": "OP_DUP OP_HASH160 1759144c645ced8a609c5e87a2170211127c785f OP_EQUALVERIFY OP_CHECKSIG", "type": "pubkeyhash"}, "value": 1.10185761, "n": 5}, {"scriptPubKey": {"reqSigs": 1, "hex": "a914a5bc490c5f749a11b646513ccf85c81cf9c2b45187", "addresses": ["3GoLyVRd8MdhvHU81Ggz3gCYjevvXnKmr5"], "asm": "OP_HASH160 a5bc490c5f749a11b646513ccf85c81cf9c2b451 OP_EQUAL", "type": "scripthash"}, "value": 0.06065449, "n": 6}, {"scriptPubKey": {"reqSigs": 1, "hex": "76a914e71debe251bb26c7e757d9ae265da6e5d00f31b988ac", "addresses": ["1N52wHoVR79PMDishab2XmRHsbekCdGquK"], "asm": "OP_DUP OP_HASH160 e71debe251bb26c7e757d9ae265da6e5d00f31b9 OP_EQUALVERIFY OP_CHECKSIG", "type": "pubkeyhash"}, "value": 0.34713064, "n": 7}], "hex": "01000000015c2c9c7f963aac22a20ddc7904f5c85319fd11eb86aa409c0c7722cb4a02eab5000000006a4730440220300b41dcc9f0123557626eb06fb99b1897a6af91c16a261acdf939ad1e6ca3c30220652fa28cedc24f904bdb9758b78306277a506a7077f971cc4b5123e40ff00eb4012103df0714593972b470fdd15acd84870ad01d0e0d9caf9b18aafe4254e8a65bbd78ffffffff08800004000000000017a914a0da2bd7297278bc692a5d5311578f1a4425d3fa8730ee4e010000000017a9143cccbe93f4d45a30fd109d99e36cb49035d08d9d8777541302000000001976a914656ce0c4cf9f1c1a342913f2a585176ee3adc81888ac7042d801000000001976a914cf6e99b548b40f99f31df47920d33db0dd57ab8288ac61980100000000001976a914c46a25f430f4ace9ef161dab7ec9be32d7b9d67288ac214d9106000000001976a9141759144c645ced8a609c5e87a2170211127c785f88ac298d5c000000000017a914a5bc490c5f749a11b646513ccf85c81cf9c2b45187e8ad1102000000001976a914e71debe251bb26c7e757d9ae265da6e5d00f31b988ac00000000", "vin": [{"sequence": 4294967295, "scriptSig": {"hex": "4730440220300b41dcc9f0123557626eb06fb99b1897a6af91c16a261acdf939ad1e6ca3c30220652fa28cedc24f904bdb9758b78306277a506a7077f971cc4b5123e40ff00eb4012103df0714593972b470fdd15acd84870ad01d0e0d9caf9b18aafe4254e8a65bbd78", "asm": "30440220300b41dcc9f0123557626eb06fb99b1897a6af91c16a261acdf939ad1e6ca3c30220652fa28cedc24f904bdb9758b78306277a506a7077f971cc4b5123e40ff00eb4[ALL] 03df0714593972b470fdd15acd84870ad01d0e0d9caf9b18aafe4254e8a65bbd78"}, "vout": 0, "txid": "b5ea024acb22770c9c40aa86eb11fd1953c8f50479dc0da222ac3a967f9c2c5c"}], "txid": "f0058e84b82cb92ddd560b12089f470df6019db0d1df881737fecb280c6e9c78", "blocktime": 1537874412, "version": 1, "confirmations": 11466, "time": 1537874412, "locktime": 0, "vsize": 423, "size": 423}