{"hash": "f0060ed349f47127ff55f3186dd776069a80ffddc0fe3eb931d6df8f43a342be", "blockhash": "00000000000000000017f5eb5941039fbcee6240d03bc1f2f8e35350df66a1d8", "vout": [{"scriptPubKey": {"type": "nulldata", "hex": "6a4c50000077f500014c00efd8d918ccfe50a5c201d19ed074892d00f8e87af8e8e963c7cfd5b9d6f53fea45ff67ed273c7e53f32448fd5baa18aa06135135a39524071d100759d4ba30d2c37bb011d97e02cf", "asm": "OP_RETURN 000077f500014c00efd8d918ccfe50a5c201d19ed074892d00f8e87af8e8e963c7cfd5b9d6f53fea45ff67ed273c7e53f32448fd5baa18aa06135135a39524071d100759d4ba30d2c37bb011d97e02cf"}, "value": 0.0, "n": 0}, {"scriptPubKey": {"reqSigs": 1, "hex": "76a9142a4d4cb3be12225117dab3898b24f2cf17359cc488ac", "addresses": ["14rfyvrNbw7Mta8SnshaWRpFN3Cj88HqSp"], "asm": "OP_DUP OP_HASH160 2a4d4cb3be12225117dab3898b24f2cf17359cc4 OP_EQUALVERIFY OP_CHECKSIG", "type": "pubkeyhash"}, "value": 0.00633794, "n": 1}], "hex": "010000000145cc739bd262f1b93f98e3086abcef3a46f71b6621f92b91ba0b03bc8434db06010000006a47304402206fa8c06015c949d7b5ef2b28d54dd2e33fc65d3db3fd5020d74b5eb8fb2c41ef022008b02bea16dc305b76330d33ef1038990747137bcce33bcd9f18d1faa96f9aea012102a23ad913444307ac5ee084c25870a89ca4108aa167a980a5b276dce94b37f575ffffffff020000000000000000536a4c50000077f500014c00efd8d918ccfe50a5c201d19ed074892d00f8e87af8e8e963c7cfd5b9d6f53fea45ff67ed273c7e53f32448fd5baa18aa06135135a39524071d100759d4ba30d2c37bb011d97e02cfc2ab0900000000001976a9142a4d4cb3be12225117dab3898b24f2cf17359cc488ac00000000", "vin": [{"sequence": 4294967295, "scriptSig": {"hex": "47304402206fa8c06015c949d7b5ef2b28d54dd2e33fc65d3db3fd5020d74b5eb8fb2c41ef022008b02bea16dc305b76330d33ef1038990747137bcce33bcd9f18d1faa96f9aea012102a23ad913444307ac5ee084c25870a89ca4108aa167a980a5b276dce94b37f575", "asm": "304402206fa8c06015c949d7b5ef2b28d54dd2e33fc65d3db3fd5020d74b5eb8fb2c41ef022008b02bea16dc305b76330d33ef1038990747137bcce33bcd9f18d1faa96f9aea[ALL] 02a23ad913444307ac5ee084c25870a89ca4108aa167a980a5b276dce94b37f575"}, "vout": 1, "txid": "06db3484bc030bba912bf921661bf7463aefbc6a08e3983fb9f162d29b73cc45"}], "txid": "f0060ed349f47127ff55f3186dd776069a80ffddc0fe3eb931d6df8f43a342be", "blocktime": 1537874412, "version": 1, "confirmations": 11467, "time": 1537874412, "locktime": 0, "vsize": 283, "size": 283}