{"hash": "f008c6d73aac06a730befe95d5026de8768c07c8d70f6ab89af30364682adda6", "blockhash": "0000000000000000001cda96e906b7601b7a6fb1a3b62bca570a9e5d8f4b3de1", "vout": [{"scriptPubKey": {"reqSigs": 1, "hex": "76a914b97d3b174bcfc3fea8246962e34338c4003e9a0688ac", "addresses": ["1Hun2gNcAnHyzLuyykcYcrpSD3NiZbskWV"], "asm": "OP_DUP OP_HASH160 b97d3b174bcfc3fea8246962e34338c4003e9a06 OP_EQUALVERIFY OP_CHECKSIG", "type": "pubkeyhash"}, "value": 0.00331821, "n": 0}, {"scriptPubKey": {"reqSigs": 1, "hex": "76a914dabcc859f52e679166865ae70ff61fa029301a3988ac", "addresses": ["1LwaTfc6rbqBRKLecSNro3msKsLrJDFSMh"], "asm": "OP_DUP OP_HASH160 dabcc859f52e679166865ae70ff61fa029301a39 OP_EQUALVERIFY OP_CHECKSIG", "type": "pubkeyhash"}, "value": 1e-05, "n": 1}], "hex": "0100000001d48e4849b824e64318f451d3594d1dcce96f6db7d49a96d8c25c2d2fe3216b0d000000006b483045022100eeea5ace5b614332997681e15223baec638aa6e10f118009a099cf1e267ba48502203da6bef8f86c8912755bf1600c4f831d49a82e0e68513b9f5313ae79b74c5f4b012102ae9e8327810da3b8094db78e949992d84f7bcafb3f955d5e01ccfa391eac5ed2ffffffff022d100500000000001976a914b97d3b174bcfc3fea8246962e34338c4003e9a0688ace8030000000000001976a914dabcc859f52e679166865ae70ff61fa029301a3988ac00000000", "vin": [{"sequence": 4294967295, "scriptSig": {"hex": "483045022100eeea5ace5b614332997681e15223baec638aa6e10f118009a099cf1e267ba48502203da6bef8f86c8912755bf1600c4f831d49a82e0e68513b9f5313ae79b74c5f4b012102ae9e8327810da3b8094db78e949992d84f7bcafb3f955d5e01ccfa391eac5ed2", "asm": "3045022100eeea5ace5b614332997681e15223baec638aa6e10f118009a099cf1e267ba48502203da6bef8f86c8912755bf1600c4f831d49a82e0e68513b9f5313ae79b74c5f4b[ALL] 02ae9e8327810da3b8094db78e949992d84f7bcafb3f955d5e01ccfa391eac5ed2"}, "vout": 0, "txid": "0d6b21e32f2d5cc2d8969ad4b76d6fe9cc1d4d59d351f41843e624b849488ed4"}], "txid": "f008c6d73aac06a730befe95d5026de8768c07c8d70f6ab89af30364682adda6", "blocktime": 1537873282, "version": 1, "confirmations": 11485, "time": 1537873282, "locktime": 0, "vsize": 226, "size": 226}