{"hash": "36b48649b4ec9121dd835e59efc9055c516a51d1dc99c7f25948620ecbc896e7", "blockhash": "0000000000000000000dcc0f55137456b1a82d3642486a52398922ac4d620174", "vout": [{"scriptPubKey": {"reqSigs": 1, "hex": "001411ca5203f53c42ec742297df410c356789ca767f", "addresses": ["bc1qz899yql483pwcapzjl05zrp4v7yu5anlvxrh5u"], "asm": "0 11ca5203f53c42ec742297df410c356789ca767f", "type": "witness_v0_keyhash"}, "value": 0.00857514, "n": 0}, {"scriptPubKey": {"reqSigs": 1, "hex": "76a9143417ae4301850e4af7ecb1ce038be3c1ea3ef09c88ac", "addresses": ["15kSWLhvsJzMBFrYcB3JPHFLMzwAcMZrFb"], "asm": "OP_DUP OP_HASH160 3417ae4301850e4af7ecb1ce038be3c1ea3ef09c OP_EQUALVERIFY OP_CHECKSIG", "type": "pubkeyhash"}, "value": 0.47064707, "n": 1}], "hex": "0100000000010195fc23f7f9a893626026c1927777456499500d78110472998b2f3a2a08e3af7d0000000000ffffffff02aa150d000000000016001411ca5203f53c42ec742297df410c356789ca767f8326ce02000000001976a9143417ae4301850e4af7ecb1ce038be3c1ea3ef09c88ac02473044022046a1c7d2c643738a2b5f52c80aa8b4a1613df36931a8943db213c85731c1334702200993bac5d8d70cd144e04b67e41d8daeeb80a2e49a3c90cfb73a49d6ce83e67e012102941321bebe97494310f1b0e6652bdb722e85b844ceffd989763e923f1d628c3d00000000", "vin": [{"txinwitness": ["3044022046a1c7d2c643738a2b5f52c80aa8b4a1613df36931a8943db213c85731c1334702200993bac5d8d70cd144e04b67e41d8daeeb80a2e49a3c90cfb73a49d6ce83e67e01", "02941321bebe97494310f1b0e6652bdb722e85b844ceffd989763e923f1d628c3d"], "sequence": 4294967295, "scriptSig": {"hex": "", "asm": ""}, "vout": 0, "txid": "7dafe3082a3a2f8b99720411780d50996445777792c126606293a8f9f723fc95"}], "txid": "f00918ed316b0762b159018faa186d7b5d2867a92f0f7f4c1c1e69f85355841d", "blocktime": 1537870268, "version": 1, "confirmations": 11518, "time": 1537870268, "locktime": 0, "vsize": 144, "size": 225}