{"hash": "f01432141817822b47d03a620c0ab1a03c4cd8742d4c3b78a38cac44bc089fb1", "blockhash": "0000000000000000001cda96e906b7601b7a6fb1a3b62bca570a9e5d8f4b3de1", "vout": [{"scriptPubKey": {"reqSigs": 1, "hex": "a9147f7efac2a40944be64733f54d598acdbd1e0142c87", "addresses": ["3DK9rbgdvjYkqC5XEpLa9PjZk7ughDhG7F"], "asm": "OP_HASH160 7f7efac2a40944be64733f54d598acdbd1e0142c OP_EQUAL", "type": "scripthash"}, "value": 0.00254, "n": 0}, {"scriptPubKey": {"reqSigs": 1, "hex": "76a914c49994d29932a45e86675f4e207ad88b8fe0185588ac", "addresses": ["1JvXRcoNz81T4X3jWkX19sVW6rDnBWt8XF"], "asm": "OP_DUP OP_HASH160 c49994d29932a45e86675f4e207ad88b8fe01855 OP_EQUALVERIFY OP_CHECKSIG", "type": "pubkeyhash"}, "value": 0.02626308, "n": 1}], "hex": "01000000015c4e2cbc77230a2713f27a1de5203c11bc4c2a35a440353c1c4fb23f5b4fa4eb010000006b4830450221009f54073eddba279922e6c5be0fce75179e37ac2b4150c55ac38c1886d8ac4620022027dbdaa693aac183e7ac46f981025239fb5dc78788fe82bdec614c526c3304b1012102d619647d4252f9ecefa1b9fc3aaeee49d4627074bc85b99e43e02880c81865bdffffffff0230e003000000000017a9147f7efac2a40944be64733f54d598acdbd1e0142c8704132800000000001976a914c49994d29932a45e86675f4e207ad88b8fe0185588ac00000000", "vin": [{"sequence": 4294967295, "scriptSig": {"hex": "4830450221009f54073eddba279922e6c5be0fce75179e37ac2b4150c55ac38c1886d8ac4620022027dbdaa693aac183e7ac46f981025239fb5dc78788fe82bdec614c526c3304b1012102d619647d4252f9ecefa1b9fc3aaeee49d4627074bc85b99e43e02880c81865bd", "asm": "30450221009f54073eddba279922e6c5be0fce75179e37ac2b4150c55ac38c1886d8ac4620022027dbdaa693aac183e7ac46f981025239fb5dc78788fe82bdec614c526c3304b1[ALL] 02d619647d4252f9ecefa1b9fc3aaeee49d4627074bc85b99e43e02880c81865bd"}, "vout": 1, "txid": "eba44f5b3fb24f1c3c3540a4352a4cbc113c20e51d7af213270a2377bc2c4e5c"}], "txid": "f01432141817822b47d03a620c0ab1a03c4cd8742d4c3b78a38cac44bc089fb1", "blocktime": 1537873282, "version": 1, "confirmations": 11485, "time": 1537873282, "locktime": 0, "vsize": 224, "size": 224}