{"hash": "f01ae3db897d39dcb0e1d82bee027cff239d11440ceaa9aad8945a39a4853b99", "blockhash": "0000000000000000000baef3f32e3676a92c3b2e5da21b426e4f302fc371ce76", "vout": [{"scriptPubKey": {"reqSigs": 1, "hex": "76a914b2bda74d0bddd0367fa455699809c0e6f66fad1b88ac", "addresses": ["1HJ6UWCHpEhwxDixVYWjCnMxVRuNdHwT5x"], "asm": "OP_DUP OP_HASH160 b2bda74d0bddd0367fa455699809c0e6f66fad1b OP_EQUALVERIFY OP_CHECKSIG", "type": "pubkeyhash"}, "value": 0.17793057, "n": 0}, {"scriptPubKey": {"reqSigs": 1, "hex": "76a914b2eaa2b930e5daa83b6ca3e69b7835ca7f84b0f288ac", "addresses": ["1HK2Mv7eh9F6YeTVuaeftWE1tGTjjfMX77"], "asm": "OP_DUP OP_HASH160 b2eaa2b930e5daa83b6ca3e69b7835ca7f84b0f2 OP_EQUALVERIFY OP_CHECKSIG", "type": "pubkeyhash"}, "value": 0.32, "n": 1}], "hex": "01000000016a524f7689f6956ace5bf8cd40b582c7db90b81277d75dffd7f5a00ce96a3113000000006a47304402207e162f3765d1b2862525972e50cd6c6ba1143e65246172758cc8ee01ad6c4b990220180d9f17928f6be79533400d5ae5ab4d484591a969c669e0e3e5881fa01bef27012102b7523fc1ddc65dad593b627eb0847a8466abffc717ac403cf82cc63dba6dc3acffffffff0221800f01000000001976a914b2bda74d0bddd0367fa455699809c0e6f66fad1b88ac0048e801000000001976a914b2eaa2b930e5daa83b6ca3e69b7835ca7f84b0f288ac00000000", "vin": [{"sequence": 4294967295, "scriptSig": {"hex": "47304402207e162f3765d1b2862525972e50cd6c6ba1143e65246172758cc8ee01ad6c4b990220180d9f17928f6be79533400d5ae5ab4d484591a969c669e0e3e5881fa01bef27012102b7523fc1ddc65dad593b627eb0847a8466abffc717ac403cf82cc63dba6dc3ac", "asm": "304402207e162f3765d1b2862525972e50cd6c6ba1143e65246172758cc8ee01ad6c4b990220180d9f17928f6be79533400d5ae5ab4d484591a969c669e0e3e5881fa01bef27[ALL] 02b7523fc1ddc65dad593b627eb0847a8466abffc717ac403cf82cc63dba6dc3ac"}, "vout": 0, "txid": "13316ae90ca0f5d7ff5dd77712b890dbc782b540cdf85bce6a95f689764f526a"}], "txid": "f01ae3db897d39dcb0e1d82bee027cff239d11440ceaa9aad8945a39a4853b99", "blocktime": 1537876114, "version": 1, "confirmations": 11459, "time": 1537876114, "locktime": 0, "vsize": 225, "size": 225}