{"hash": "50b1f92f395e1ffc32e518de7f1eff88bafb6c7830a7870347a5f0cfc008eed3", "blockhash": "00000000000000000024a2167bbff67b0be802c0b01cdd79e6331c2be6459f87", "vout": [{"scriptPubKey": {"reqSigs": 1, "hex": "a914f963e21bcdb910744e2c4a4befc8b6ab08e0720487", "addresses": ["3QRfqKRdjxrifMuCndy7ZXXMyyGYJJqZ3E"], "asm": "OP_HASH160 f963e21bcdb910744e2c4a4befc8b6ab08e07204 OP_EQUAL", "type": "scripthash"}, "value": 0.0100423, "n": 0}, {"scriptPubKey": {"reqSigs": 1, "hex": "a9149ee3d6209f812f0f39f17dff50c44a9c81c4aee587", "addresses": ["3GB9dCuGRZcK8Au9fCnXNzNhRUey8ntf2n"], "asm": "OP_HASH160 9ee3d6209f812f0f39f17dff50c44a9c81c4aee5 OP_EQUAL", "type": "scripthash"}, "value": 0.001494, "n": 1}], "hex": "02000000000101058c52504f1116abe8c573008e852a7fcb10139bf2d1ff4094605283b7c2c7d601000000171600149ba14fbc912b5463d52bd7cad3a06fc05d3b40f8fdffffff02c6520f000000000017a914f963e21bcdb910744e2c4a4befc8b6ab08e0720487984702000000000017a9149ee3d6209f812f0f39f17dff50c44a9c81c4aee5870247304402203f95d96a9e5e536638321cbb3be6f98a8140c0ae19e8dd6c1c719150d55e11bb022040962ec04a3d77cbcccf90c92a541daa5b894773554250671660d0a9e1cefe98012102f0f4f4508df57e71dc91c60770aa081c20b16af0680a2580b075dbf06b6dedda00000000", "vin": [{"txinwitness": ["304402203f95d96a9e5e536638321cbb3be6f98a8140c0ae19e8dd6c1c719150d55e11bb022040962ec04a3d77cbcccf90c92a541daa5b894773554250671660d0a9e1cefe9801", "02f0f4f4508df57e71dc91c60770aa081c20b16af0680a2580b075dbf06b6dedda"], "sequence": 4294967293, "scriptSig": {"hex": "1600149ba14fbc912b5463d52bd7cad3a06fc05d3b40f8", "asm": "00149ba14fbc912b5463d52bd7cad3a06fc05d3b40f8"}, "vout": 1, "txid": "d6c7c2b78352609440ffd1f29b1310cb7f2a858e0073c5e8ab16114f50528c05"}], "txid": "f021717eb02883045e2aae5ab9edd7853fe2bd9fe9e09ba1b84d281349517583", "blocktime": 1537870564, "version": 2, "confirmations": 11515, "time": 1537870564, "locktime": 0, "vsize": 166, "size": 247}