{"hash": "f0224bcb23da61a091458aed365fecdc3c9da3e17840a48734bcb43a2cf14611", "blockhash": "0000000000000000001e0dab787dd257d1dbfcb92a98c2207d5e1078be1f4165", "vout": [{"scriptPubKey": {"type": "nulldata", "hex": "6a2ee1e490d441005b5ffd4de180f1f64f88f7ba0f9ad6379f72ebaa839d6d30e76f0b969fcf775729e96337f80c02ad", "asm": "OP_RETURN e1e490d441005b5ffd4de180f1f64f88f7ba0f9ad6379f72ebaa839d6d30e76f0b969fcf775729e96337f80c02ad"}, "value": 0.0, "n": 0}, {"scriptPubKey": {"reqSigs": 1, "hex": "76a9141748a441423da5e15e6b7ba4e9513bbb35e28a7c88ac", "addresses": ["1387Ze9HfexTm8zxZzt1xacSu6GtRkvNkS"], "asm": "OP_DUP OP_HASH160 1748a441423da5e15e6b7ba4e9513bbb35e28a7c OP_EQUALVERIFY OP_CHECKSIG", "type": "pubkeyhash"}, "value": 0.00813164, "n": 1}], "hex": "0100000001a06748c7f2f2346be7f9e26200c3d604c0bed22eed3bbd74daef0bce29fb6ba5010000006b483045022100b1c8a3848b0ea446d039cfd00a2f75cb95d79111025fcb6326a87cda6cc45e64022045b18b4249738bdf23fe9362151f8191e8f72419c2b033090f0755ef28ae8164012103d5cfd14d18dda8561f00522c123a72b830be632f450ec569f88be5de194f2d90ffffffff020000000000000000306a2ee1e490d441005b5ffd4de180f1f64f88f7ba0f9ad6379f72ebaa839d6d30e76f0b969fcf775729e96337f80c02ad6c680c00000000001976a9141748a441423da5e15e6b7ba4e9513bbb35e28a7c88ac00000000", "vin": [{"sequence": 4294967295, "scriptSig": {"hex": "483045022100b1c8a3848b0ea446d039cfd00a2f75cb95d79111025fcb6326a87cda6cc45e64022045b18b4249738bdf23fe9362151f8191e8f72419c2b033090f0755ef28ae8164012103d5cfd14d18dda8561f00522c123a72b830be632f450ec569f88be5de194f2d90", "asm": "3045022100b1c8a3848b0ea446d039cfd00a2f75cb95d79111025fcb6326a87cda6cc45e64022045b18b4249738bdf23fe9362151f8191e8f72419c2b033090f0755ef28ae8164[ALL] 03d5cfd14d18dda8561f00522c123a72b830be632f450ec569f88be5de194f2d90"}, "vout": 1, "txid": "a56bfb29ce0befda74bd3bed2ed2bec004d6c30062e2f9e76b34f2f2c74867a0"}], "txid": "f0224bcb23da61a091458aed365fecdc3c9da3e17840a48734bcb43a2cf14611", "blocktime": 1537872475, "version": 1, "confirmations": 11486, "time": 1537872475, "locktime": 0, "vsize": 249, "size": 249}