{"hash": "f0246045d8ca98d87e1d0a89e58d9587d4761c47c669728cfd4cf4ed3122fdb8", "blockhash": "00000000000000000017f5eb5941039fbcee6240d03bc1f2f8e35350df66a1d8", "vout": [{"scriptPubKey": {"reqSigs": 1, "hex": "76a914fb8b6c7b9aa392630a2974ae054a8c2d3fea243088ac", "addresses": ["1Pw3dUy4kXb9qfFhTF8jpv6h6qk4DrJb2i"], "asm": "OP_DUP OP_HASH160 fb8b6c7b9aa392630a2974ae054a8c2d3fea2430 OP_EQUALVERIFY OP_CHECKSIG", "type": "pubkeyhash"}, "value": 0.00777044, "n": 0}, {"scriptPubKey": {"reqSigs": 1, "hex": "76a914fc6151c4ecac68e5ef25ad353d75c4ec08d9f45588ac", "addresses": ["1Q1TsDKpZsrEZWHxCB1Pb371CiKUYqW3Pc"], "asm": "OP_DUP OP_HASH160 fc6151c4ecac68e5ef25ad353d75c4ec08d9f455 OP_EQUALVERIFY OP_CHECKSIG", "type": "pubkeyhash"}, "value": 0.07817594, "n": 1}], "hex": "0100000001d8576a7e98958c02c4db7b10cc7d964c1db0f1f9b368ae6bf4542bcadb6742f8000000006a47304402206801950f8f792a2c202b80a9e128d513fddcb29a1b6fa746b6e82e733006415c02207bcb12bca91c87c330d941269c02841734d4ee0b7b60dd8a6881d5c2200e6d5c012102a893f76d947d0546356cecf28359c8d83c32b992919933a9e1eda371fd4109ceffffffff0254db0b00000000001976a914fb8b6c7b9aa392630a2974ae054a8c2d3fea243088ac7a497700000000001976a914fc6151c4ecac68e5ef25ad353d75c4ec08d9f45588ac00000000", "vin": [{"sequence": 4294967295, "scriptSig": {"hex": "47304402206801950f8f792a2c202b80a9e128d513fddcb29a1b6fa746b6e82e733006415c02207bcb12bca91c87c330d941269c02841734d4ee0b7b60dd8a6881d5c2200e6d5c012102a893f76d947d0546356cecf28359c8d83c32b992919933a9e1eda371fd4109ce", "asm": "304402206801950f8f792a2c202b80a9e128d513fddcb29a1b6fa746b6e82e733006415c02207bcb12bca91c87c330d941269c02841734d4ee0b7b60dd8a6881d5c2200e6d5c[ALL] 02a893f76d947d0546356cecf28359c8d83c32b992919933a9e1eda371fd4109ce"}, "vout": 0, "txid": "f84267dbca2b54f46bae68b3f9f1b01d4c967dcc107bdbc4028c95987e6a57d8"}], "txid": "f0246045d8ca98d87e1d0a89e58d9587d4761c47c669728cfd4cf4ed3122fdb8", "blocktime": 1537874412, "version": 1, "confirmations": 11468, "time": 1537874412, "locktime": 0, "vsize": 225, "size": 225}