{"hash": "f02608c2c64c7a06ff1b5a01b79b561c01b72d5fdbb082f091eb47a1a6a05d3e", "blockhash": "0000000000000000001cda96e906b7601b7a6fb1a3b62bca570a9e5d8f4b3de1", "vout": [{"scriptPubKey": {"reqSigs": 1, "hex": "76a914ecc3243437044976c625e94dad24705c3422582d88ac", "addresses": ["1NatEwGZcaeJFwSLdGPMtcwyuhyE75t2eQ"], "asm": "OP_DUP OP_HASH160 ecc3243437044976c625e94dad24705c3422582d OP_EQUALVERIFY OP_CHECKSIG", "type": "pubkeyhash"}, "value": 0.01877427, "n": 0}, {"scriptPubKey": {"reqSigs": 1, "hex": "76a914d50458f5682207fecdd1fe23a526d81ec4138f7588ac", "addresses": ["1LRL8vtVfMZ7o1cjZijzcZZvy2cE6xkPT3"], "asm": "OP_DUP OP_HASH160 d50458f5682207fecdd1fe23a526d81ec4138f75 OP_EQUALVERIFY OP_CHECKSIG", "type": "pubkeyhash"}, "value": 0.09367549, "n": 1}], "hex": "0100000006436599c13dd08d13f3f1c348c2f337f8a0d1b61e56e33e1da53f73e31fbdbb11010000006a47304402205e600b7214404202b8bafac0bba94a8a702741d89a0415aa6c6d023df4e7478b02201060feaae0d7421da29b2dfe412a4aac86fd21614c3adddb4a95d9abe5e4555b012103f7bb13ebb1d6f09eedefdd3783aa0ac0bb747182841a7924784885beafd50286ffffffffd3cfff33465f0cb4935a80d6328adb4a03408274245cb9f97bb15cf431b0142f010000006b48304502210087d9bb15dcd49c2da4c8539129dfec8d2eb08f8d3d0e922fd5a7f1395a3880b7022022919773a7297b6265c4c61a5adad2ba110fe22b12cb79c88843b725e25aad8a01210242c68033f293bb909f848ae6cd319631d9a875a928ca1abb8fff8f5f5f6b3d46ffffffff1e3187f9d74f87d896940116d1e0d91278293484ecd7ef19a506e1ef32c6587a010000006b483045022100cc8bf16bd78e5a757208cbe6c50231e642f08776630d7e26dcc9842f46963067022018034f40e6b91b44223bf64e21bd46ab30c54da0e413b07147cb95dc9b488a2101210326b95bbef75d83460469c22f5d646c342164995a24fd2a19d71880327f38e894ffffffffce3fc56ae4d8e0516fa0814258bc4323a0c86446f32bcf9b1bca8b9ef31c247e010000006a473044022067ec16d24ebb27313ffc7da45a89c09bf736dd64856c3b400bd1b516daa20ef0022053f7dd4bf194213474f5d0e94110f482b2d3a8c0293e4632dece1a24d6d02683012103f4ce44d2a9c715b96b6fb6c447ad3cf98715547eb0c199737954c3a65c91a56bffffffff6f149bead7a2c3cad5530f5e66be4f7e5f817362c66d950722b9e5af6e697e9e000000006b483045022100cd50826627e2d55be979615636868ab83d65ff5a82e19d5c03ce0fe113a9c6c402205000003da60ed3fc5f5d64e24c2f9a7f662a092de89d35616609ddeaa1780ae50121026a676dec9a2842b86bde41dbad63a80a712df2da60170847039615dcad4582e6ffffffff92a87e2afa23f94583cca40076df4c08d3ed974e674d9e9607359d66c61d03db000000006b483045022100968b01bd50843a9546e8740b7e7e280df62b71370c3418730d7cf35f86ab07db02207492d533d849cc6cd564f8ffbec35baf82bbe51ca3e7ff7807aed19b05e40d3e0121031f5635839bf6b3fc99780462e83b2af64b1790fe6bbcd6122ed3b1715454b956ffffffff02b3a51c00000000001976a914ecc3243437044976c625e94dad24705c3422582d88acfdef8e00000000001976a914d50458f5682207fecdd1fe23a526d81ec4138f7588ac00000000", "vin": [{"sequence": 4294967295, "scriptSig": {"hex": "47304402205e600b7214404202b8bafac0bba94a8a702741d89a0415aa6c6d023df4e7478b02201060feaae0d7421da29b2dfe412a4aac86fd21614c3adddb4a95d9abe5e4555b012103f7bb13ebb1d6f09eedefdd3783aa0ac0bb747182841a7924784885beafd50286", "asm": "304402205e600b7214404202b8bafac0bba94a8a702741d89a0415aa6c6d023df4e7478b02201060feaae0d7421da29b2dfe412a4aac86fd21614c3adddb4a95d9abe5e4555b[ALL] 03f7bb13ebb1d6f09eedefdd3783aa0ac0bb747182841a7924784885beafd50286"}, "vout": 1, "txid": "11bbbd1fe3733fa51d3ee3561eb6d1a0f837f3c248c3f1f3138dd03dc1996543"}, {"sequence": 4294967295, "scriptSig": {"hex": "48304502210087d9bb15dcd49c2da4c8539129dfec8d2eb08f8d3d0e922fd5a7f1395a3880b7022022919773a7297b6265c4c61a5adad2ba110fe22b12cb79c88843b725e25aad8a01210242c68033f293bb909f848ae6cd319631d9a875a928ca1abb8fff8f5f5f6b3d46", "asm": "304502210087d9bb15dcd49c2da4c8539129dfec8d2eb08f8d3d0e922fd5a7f1395a3880b7022022919773a7297b6265c4c61a5adad2ba110fe22b12cb79c88843b725e25aad8a[ALL] 0242c68033f293bb909f848ae6cd319631d9a875a928ca1abb8fff8f5f5f6b3d46"}, "vout": 1, "txid": "2f14b031f45cb17bf9b95c24748240034adb8a32d6805a93b40c5f4633ffcfd3"}, {"sequence": 4294967295, "scriptSig": {"hex": "483045022100cc8bf16bd78e5a757208cbe6c50231e642f08776630d7e26dcc9842f46963067022018034f40e6b91b44223bf64e21bd46ab30c54da0e413b07147cb95dc9b488a2101210326b95bbef75d83460469c22f5d646c342164995a24fd2a19d71880327f38e894", "asm": "3045022100cc8bf16bd78e5a757208cbe6c50231e642f08776630d7e26dcc9842f46963067022018034f40e6b91b44223bf64e21bd46ab30c54da0e413b07147cb95dc9b488a21[ALL] 0326b95bbef75d83460469c22f5d646c342164995a24fd2a19d71880327f38e894"}, "vout": 1, "txid": "7a58c632efe106a519efd7ec8434297812d9e0d116019496d8874fd7f987311e"}, {"sequence": 4294967295, "scriptSig": {"hex": "473044022067ec16d24ebb27313ffc7da45a89c09bf736dd64856c3b400bd1b516daa20ef0022053f7dd4bf194213474f5d0e94110f482b2d3a8c0293e4632dece1a24d6d02683012103f4ce44d2a9c715b96b6fb6c447ad3cf98715547eb0c199737954c3a65c91a56b", "asm": "3044022067ec16d24ebb27313ffc7da45a89c09bf736dd64856c3b400bd1b516daa20ef0022053f7dd4bf194213474f5d0e94110f482b2d3a8c0293e4632dece1a24d6d02683[ALL] 03f4ce44d2a9c715b96b6fb6c447ad3cf98715547eb0c199737954c3a65c91a56b"}, "vout": 1, "txid": "7e241cf39e8bca1b9bcf2bf34664c8a02343bc584281a06f51e0d8e46ac53fce"}, {"sequence": 4294967295, "scriptSig": {"hex": "483045022100cd50826627e2d55be979615636868ab83d65ff5a82e19d5c03ce0fe113a9c6c402205000003da60ed3fc5f5d64e24c2f9a7f662a092de89d35616609ddeaa1780ae50121026a676dec9a2842b86bde41dbad63a80a712df2da60170847039615dcad4582e6", "asm": "3045022100cd50826627e2d55be979615636868ab83d65ff5a82e19d5c03ce0fe113a9c6c402205000003da60ed3fc5f5d64e24c2f9a7f662a092de89d35616609ddeaa1780ae5[ALL] 026a676dec9a2842b86bde41dbad63a80a712df2da60170847039615dcad4582e6"}, "vout": 0, "txid": "9e7e696eafe5b92207956dc66273815f7e4fbe665e0f53d5cac3a2d7ea9b146f"}, {"sequence": 4294967295, "scriptSig": {"hex": "483045022100968b01bd50843a9546e8740b7e7e280df62b71370c3418730d7cf35f86ab07db02207492d533d849cc6cd564f8ffbec35baf82bbe51ca3e7ff7807aed19b05e40d3e0121031f5635839bf6b3fc99780462e83b2af64b1790fe6bbcd6122ed3b1715454b956", "asm": "3045022100968b01bd50843a9546e8740b7e7e280df62b71370c3418730d7cf35f86ab07db02207492d533d849cc6cd564f8ffbec35baf82bbe51ca3e7ff7807aed19b05e40d3e[ALL] 031f5635839bf6b3fc99780462e83b2af64b1790fe6bbcd6122ed3b1715454b956"}, "vout": 0, "txid": "db031dc6669d3507969e4d674e97edd3084cdf7600a4cc8345f923fa2a7ea892"}], "txid": "f02608c2c64c7a06ff1b5a01b79b561c01b72d5fdbb082f091eb47a1a6a05d3e", "blocktime": 1537873282, "version": 1, "confirmations": 11482, "time": 1537873282, "locktime": 0, "vsize": 964, "size": 964}