{"hash": "f02d36c10a3b7656ff19503b1ff78d75d598906b976efc788ec6e96028588168", "blockhash": "0000000000000000001cda96e906b7601b7a6fb1a3b62bca570a9e5d8f4b3de1", "vout": [{"scriptPubKey": {"reqSigs": 1, "hex": "a91493fca948aa8087978904cc8bd83e2d5f1ec291b287", "addresses": ["3FBVvxMq7GQue5SRfnMinrmioLt2KXJHMv"], "asm": "OP_HASH160 93fca948aa8087978904cc8bd83e2d5f1ec291b2 OP_EQUAL", "type": "scripthash"}, "value": 0.01, "n": 0}, {"scriptPubKey": {"reqSigs": 1, "hex": "76a9143ff85e32aa010c4b2ba11291f7107e2a76ed509a88ac", "addresses": ["16qF6zdyjYc4Z6jTCBGgcymw8Ru5srzCVC"], "asm": "OP_DUP OP_HASH160 3ff85e32aa010c4b2ba11291f7107e2a76ed509a OP_EQUALVERIFY OP_CHECKSIG", "type": "pubkeyhash"}, "value": 0.13210776, "n": 1}], "hex": "01000000010cc3c16d74b2a9165db344d6b9c68ac597510f907ff393342c62d7e8fadbbaa1010000006a47304402203a8a6e0b7b849d5bf7b1fb0e84b15c74e7ec5821f2282098351b781c5dbb4e30022075cdd4f59b958b85eb0c8590e8a05a7630425668db669093c8776818ef6a50de0121022f5dd6358db1a18b6c1d780086f11e1ebbf712422df6c346cf5125686072b12bffffffff0240420f000000000017a91493fca948aa8087978904cc8bd83e2d5f1ec291b2879894c900000000001976a9143ff85e32aa010c4b2ba11291f7107e2a76ed509a88ac00000000", "vin": [{"sequence": 4294967295, "scriptSig": {"hex": "47304402203a8a6e0b7b849d5bf7b1fb0e84b15c74e7ec5821f2282098351b781c5dbb4e30022075cdd4f59b958b85eb0c8590e8a05a7630425668db669093c8776818ef6a50de0121022f5dd6358db1a18b6c1d780086f11e1ebbf712422df6c346cf5125686072b12b", "asm": "304402203a8a6e0b7b849d5bf7b1fb0e84b15c74e7ec5821f2282098351b781c5dbb4e30022075cdd4f59b958b85eb0c8590e8a05a7630425668db669093c8776818ef6a50de[ALL] 022f5dd6358db1a18b6c1d780086f11e1ebbf712422df6c346cf5125686072b12b"}, "vout": 1, "txid": "a1badbfae8d7622c3493f37f900f5197c58ac6b9d644b35d16a9b2746dc1c30c"}], "txid": "f02d36c10a3b7656ff19503b1ff78d75d598906b976efc788ec6e96028588168", "blocktime": 1537873282, "version": 1, "confirmations": 11482, "time": 1537873282, "locktime": 0, "vsize": 223, "size": 223}