{"hash": "f02d9024d40cd859b544d9a0983e6207fae9277cb819373b0d199b135b3fe4da", "blockhash": "0000000000000000001cda96e906b7601b7a6fb1a3b62bca570a9e5d8f4b3de1", "vout": [{"scriptPubKey": {"reqSigs": 1, "hex": "76a91471dd48c4d9a2463992072fce5fc466adb4a829c788ac", "addresses": ["1BP4Sn2ZraKviSoEE8btTkG9zAJMG7HocX"], "asm": "OP_DUP OP_HASH160 71dd48c4d9a2463992072fce5fc466adb4a829c7 OP_EQUALVERIFY OP_CHECKSIG", "type": "pubkeyhash"}, "value": 0.014715, "n": 0}, {"scriptPubKey": {"type": "nulldata", "hex": "6a4c50000077d200012ce9c442b200aff379bfb7e25b23cc0f42c2fc38c5e5bf9ae76da98a211a673ac5ea5c8ec9686083e0aacbeee2815baa14c20613fff26d9e1817bc9a9526289ac0f6612cd74e33776ee4", "asm": "OP_RETURN 000077d200012ce9c442b200aff379bfb7e25b23cc0f42c2fc38c5e5bf9ae76da98a211a673ac5ea5c8ec9686083e0aacbeee2815baa14c20613fff26d9e1817bc9a9526289ac0f6612cd74e33776ee4"}, "value": 0.0, "n": 1}], "hex": "010000000154e8380a7d113f85bd6234cb6c6fd90e9ee8dc44937d1fe32ba7367a46534fdb010000006a473044022030bda2f117e81534933bb8c3e79cb4af54db11814e24d420ea76da51cd9ad00502205e7fcd54265d9c9e37f4c15ad8624169debed96214e930ad768b9b85634d7582012102b5ddab1e6cff4e12a1dd0a00db4a0660d6f69af60747ca0f707d7bc7ccb69ca8ffffffff020c741600000000001976a91471dd48c4d9a2463992072fce5fc466adb4a829c788ac0000000000000000536a4c50000077d200012ce9c442b200aff379bfb7e25b23cc0f42c2fc38c5e5bf9ae76da98a211a673ac5ea5c8ec9686083e0aacbeee2815baa14c20613fff26d9e1817bc9a9526289ac0f6612cd74e33776ee400000000", "vin": [{"sequence": 4294967295, "scriptSig": {"hex": "473044022030bda2f117e81534933bb8c3e79cb4af54db11814e24d420ea76da51cd9ad00502205e7fcd54265d9c9e37f4c15ad8624169debed96214e930ad768b9b85634d7582012102b5ddab1e6cff4e12a1dd0a00db4a0660d6f69af60747ca0f707d7bc7ccb69ca8", "asm": "3044022030bda2f117e81534933bb8c3e79cb4af54db11814e24d420ea76da51cd9ad00502205e7fcd54265d9c9e37f4c15ad8624169debed96214e930ad768b9b85634d7582[ALL] 02b5ddab1e6cff4e12a1dd0a00db4a0660d6f69af60747ca0f707d7bc7ccb69ca8"}, "vout": 1, "txid": "db4f53467a36a72be31f7d9344dce89e0ed96f6ccb3462bd853f117d0a38e854"}], "txid": "f02d9024d40cd859b544d9a0983e6207fae9277cb819373b0d199b135b3fe4da", "blocktime": 1537873282, "version": 1, "confirmations": 11484, "time": 1537873282, "locktime": 0, "vsize": 283, "size": 283}