{"hash": "f03bc9039e251b002e9aca2d41304bda8029009b2947860589bbe7a9347b6bd4", "blockhash": "0000000000000000001cda96e906b7601b7a6fb1a3b62bca570a9e5d8f4b3de1", "vout": [{"scriptPubKey": {"reqSigs": 1, "hex": "76a914d00b8f7c939a701ec54469fbe694c2ab27e4432188ac", "addresses": ["1Ky3Q919rSY7HFE5z94PCSr1YL7LT64xCF"], "asm": "OP_DUP OP_HASH160 d00b8f7c939a701ec54469fbe694c2ab27e44321 OP_EQUALVERIFY OP_CHECKSIG", "type": "pubkeyhash"}, "value": 0.1827252, "n": 0}, {"scriptPubKey": {"reqSigs": 1, "hex": "76a9144761afbfd1694344b2552ce0e44c230fbd54aaba88ac", "addresses": ["17WRzzudzqTJzHfBvGJxoYbvUnX2cdEczt"], "asm": "OP_DUP OP_HASH160 4761afbfd1694344b2552ce0e44c230fbd54aaba OP_EQUALVERIFY OP_CHECKSIG", "type": "pubkeyhash"}, "value": 0.00263, "n": 1}], "hex": "010000000114c4787a79bf13d7153fc6a8ea5490b3e2562bb478cfd3756d838248cc412904000000006b483045022100b62f0c6022a8e7825867fc9c232b1c2cbecc5ba3f393c1bbbb9c0127da09deff0220425b200db2db395d4bf9f1fbd79265ab9de9991c696dc7aeb2c081790c4e84d901210240663b9c12558ed2c2fcf715f682e1695cb9d4f3fceff43400c6c068fcc6ed97feffffff0208d11601000000001976a914d00b8f7c939a701ec54469fbe694c2ab27e4432188ac58030400000000001976a9144761afbfd1694344b2552ce0e44c230fbd54aaba88ac13490800", "vin": [{"sequence": 4294967294, "scriptSig": {"hex": "483045022100b62f0c6022a8e7825867fc9c232b1c2cbecc5ba3f393c1bbbb9c0127da09deff0220425b200db2db395d4bf9f1fbd79265ab9de9991c696dc7aeb2c081790c4e84d901210240663b9c12558ed2c2fcf715f682e1695cb9d4f3fceff43400c6c068fcc6ed97", "asm": "3045022100b62f0c6022a8e7825867fc9c232b1c2cbecc5ba3f393c1bbbb9c0127da09deff0220425b200db2db395d4bf9f1fbd79265ab9de9991c696dc7aeb2c081790c4e84d9[ALL] 0240663b9c12558ed2c2fcf715f682e1695cb9d4f3fceff43400c6c068fcc6ed97"}, "vout": 0, "txid": "042941cc4882836d75d3cf78b42b56e2b39054eaa8c63f15d713bf797a78c414"}], "txid": "f03bc9039e251b002e9aca2d41304bda8029009b2947860589bbe7a9347b6bd4", "blocktime": 1537873282, "version": 1, "confirmations": 11480, "time": 1537873282, "locktime": 542995, "vsize": 226, "size": 226}