{"hash": "f04167529f8b5f6db4e00ac17053412ccf83f9b173a13f49b5ef51929cf98a63", "blockhash": "00000000000000000017f5eb5941039fbcee6240d03bc1f2f8e35350df66a1d8", "vout": [{"scriptPubKey": {"reqSigs": 1, "hex": "a91473a4547fa4ae99bb3be4b86d8fe241cf7730fd0a87", "addresses": ["3CEUVTWXg32Djwf6hr4Gq67EbYdshqhJFc"], "asm": "OP_HASH160 73a4547fa4ae99bb3be4b86d8fe241cf7730fd0a OP_EQUAL", "type": "scripthash"}, "value": 0.00498341, "n": 0}], "hex": "0100000001635a29296c386a9d4af7eb306ea8b35f625f55649e1a5e5c1207c0abb5ae5641000000006a4730440220711ee1217e6155fa34d1896b37ca60d49f12cba367ec5360f42e52d5093382140220464683d90f7bd2a6ee3252e374747d8afcabf1394093af56499e03e3044cf4fa012103b3c250b6b22c2f6d675090c281070637738870ab59780fae7f4c61ee3ea3d9b2ffffffff01a59a07000000000017a91473a4547fa4ae99bb3be4b86d8fe241cf7730fd0a8700000000", "vin": [{"sequence": 4294967295, "scriptSig": {"hex": "4730440220711ee1217e6155fa34d1896b37ca60d49f12cba367ec5360f42e52d5093382140220464683d90f7bd2a6ee3252e374747d8afcabf1394093af56499e03e3044cf4fa012103b3c250b6b22c2f6d675090c281070637738870ab59780fae7f4c61ee3ea3d9b2", "asm": "30440220711ee1217e6155fa34d1896b37ca60d49f12cba367ec5360f42e52d5093382140220464683d90f7bd2a6ee3252e374747d8afcabf1394093af56499e03e3044cf4fa[ALL] 03b3c250b6b22c2f6d675090c281070637738870ab59780fae7f4c61ee3ea3d9b2"}, "vout": 0, "txid": "4156aeb5abc007125c5e1a9e64555f625fb3a86e30ebf74a9d6a386c29295a63"}], "txid": "f04167529f8b5f6db4e00ac17053412ccf83f9b173a13f49b5ef51929cf98a63", "blocktime": 1537874412, "version": 1, "confirmations": 11467, "time": 1537874412, "locktime": 0, "vsize": 189, "size": 189}