{"hash": "f0530c167d894a0e8a6ef4d3d2983bfbbc6e4444b234754eeca340a28ea7f936", "blockhash": "0000000000000000001cda96e906b7601b7a6fb1a3b62bca570a9e5d8f4b3de1", "vout": [{"scriptPubKey": {"reqSigs": 1, "hex": "76a914440c4f9f76b1d9c9639629ab9786012b4864d9d188ac", "addresses": ["17CohRvEik3EBBcjwch57fZkqQcvPGcWgx"], "asm": "OP_DUP OP_HASH160 440c4f9f76b1d9c9639629ab9786012b4864d9d1 OP_EQUALVERIFY OP_CHECKSIG", "type": "pubkeyhash"}, "value": 0.00390346, "n": 0}, {"scriptPubKey": {"reqSigs": 1, "hex": "76a9142a39b9de3687715df7ad6267086d1f7e19d8f31d88ac", "addresses": ["14rGXw7PrJEdsfxZfiNRyM3QmNRbYREZrQ"], "asm": "OP_DUP OP_HASH160 2a39b9de3687715df7ad6267086d1f7e19d8f31d OP_EQUALVERIFY OP_CHECKSIG", "type": "pubkeyhash"}, "value": 0.00859917, "n": 1}], "hex": "0100000001907357cff299511e67fe9990e800c5176d1d28e9472d1e4dfdbb1d9c6544bdea010000006a4730440220340c488c99df791ecfdc2d25bec0ed2478063f58e1e0849727d78d2077ed8d050220027ee0d90fa7fb7eba876be73220a917668d965a74ed57f10b510f2fe3548def012102cb16b513de56b6b431192b934ffc03932b50b1b7acae71f5419529e2ea6c762cffffffff02caf40500000000001976a914440c4f9f76b1d9c9639629ab9786012b4864d9d188ac0d1f0d00000000001976a9142a39b9de3687715df7ad6267086d1f7e19d8f31d88ac00000000", "vin": [{"sequence": 4294967295, "scriptSig": {"hex": "4730440220340c488c99df791ecfdc2d25bec0ed2478063f58e1e0849727d78d2077ed8d050220027ee0d90fa7fb7eba876be73220a917668d965a74ed57f10b510f2fe3548def012102cb16b513de56b6b431192b934ffc03932b50b1b7acae71f5419529e2ea6c762c", "asm": "30440220340c488c99df791ecfdc2d25bec0ed2478063f58e1e0849727d78d2077ed8d050220027ee0d90fa7fb7eba876be73220a917668d965a74ed57f10b510f2fe3548def[ALL] 02cb16b513de56b6b431192b934ffc03932b50b1b7acae71f5419529e2ea6c762c"}, "vout": 1, "txid": "eabd44659c1dbbfd4d1e2d47e9281d6d17c500e89099fe671e5199f2cf577390"}], "txid": "f0530c167d894a0e8a6ef4d3d2983bfbbc6e4444b234754eeca340a28ea7f936", "blocktime": 1537873282, "version": 1, "confirmations": 11484, "time": 1537873282, "locktime": 0, "vsize": 225, "size": 225}