{"hash": "f053abe854c281a9d10a6e7fe2b4a16e7dfb603eada7cedf3951541286cb7e5e", "blockhash": "0000000000000000000baef3f32e3676a92c3b2e5da21b426e4f302fc371ce76", "vout": [{"scriptPubKey": {"reqSigs": 1, "hex": "a914d07d3717bc4b7849a5127d490ab0705c9ded80ee87", "addresses": ["3LhQUYpp23mXgD9B3BTBG5hhLwZSTQjCDp"], "asm": "OP_HASH160 d07d3717bc4b7849a5127d490ab0705c9ded80ee OP_EQUAL", "type": "scripthash"}, "value": 0.00205197, "n": 0}, {"scriptPubKey": {"reqSigs": 1, "hex": "76a91448b8423bf7c9cd06d62a83c88454664071404d5988ac", "addresses": ["17dWPLHwhja1dAXetArv237jGZBe9C4pfH"], "asm": "OP_DUP OP_HASH160 48b8423bf7c9cd06d62a83c88454664071404d59 OP_EQUALVERIFY OP_CHECKSIG", "type": "pubkeyhash"}, "value": 0.0451368, "n": 1}], "hex": "01000000017bb6560ae667b26be2e1515bbeda9817530e846f245beee4189da2391c51c847010000006a473044022038fcdfcb21a7016d6d55164e1c838fd4a8e2afc64ae41f212b726ff9a14418220220738662b12ca5997ca745433b278ce9771b0a19d36399ba83931583ae47497ea70121039983a7603d8bc7ac5a7c7d61c8603c8bdec656ac4fc58dbd68171e9f7ba7a335ffffffff028d2103000000000017a914d07d3717bc4b7849a5127d490ab0705c9ded80ee8790df4400000000001976a91448b8423bf7c9cd06d62a83c88454664071404d5988ac00000000", "vin": [{"sequence": 4294967295, "scriptSig": {"hex": "473044022038fcdfcb21a7016d6d55164e1c838fd4a8e2afc64ae41f212b726ff9a14418220220738662b12ca5997ca745433b278ce9771b0a19d36399ba83931583ae47497ea70121039983a7603d8bc7ac5a7c7d61c8603c8bdec656ac4fc58dbd68171e9f7ba7a335", "asm": "3044022038fcdfcb21a7016d6d55164e1c838fd4a8e2afc64ae41f212b726ff9a14418220220738662b12ca5997ca745433b278ce9771b0a19d36399ba83931583ae47497ea7[ALL] 039983a7603d8bc7ac5a7c7d61c8603c8bdec656ac4fc58dbd68171e9f7ba7a335"}, "vout": 1, "txid": "47c8511c39a29d18e4ee5b246f840e531798dabe5b51e1e26bb267e60a56b67b"}], "txid": "f053abe854c281a9d10a6e7fe2b4a16e7dfb603eada7cedf3951541286cb7e5e", "blocktime": 1537876114, "version": 1, "confirmations": 11460, "time": 1537876114, "locktime": 0, "vsize": 223, "size": 223}