{"hash": "f062db4eb70ac2b5d811a7f1924ef1587877f1c4fbf67c4ff9bc9c7aadb9454d", "blockhash": "0000000000000000000baef3f32e3676a92c3b2e5da21b426e4f302fc371ce76", "vout": [{"scriptPubKey": {"reqSigs": 1, "hex": "76a914be5c99e098671d3eae6cdf95eaf2016182a102a688ac", "addresses": ["1JMYKV4ejkrXNdwECyEgxkvoDG7e3XKBkc"], "asm": "OP_DUP OP_HASH160 be5c99e098671d3eae6cdf95eaf2016182a102a6 OP_EQUALVERIFY OP_CHECKSIG", "type": "pubkeyhash"}, "value": 0.04627252, "n": 0}, {"scriptPubKey": {"reqSigs": 1, "hex": "76a9146814aa992c4781c2c0b4e8d1a6e6ecee916b6a2b88ac", "addresses": ["1AVL2ssCQ7YDQQXaxuaKpRNRhvu6nA6hp8"], "asm": "OP_DUP OP_HASH160 6814aa992c4781c2c0b4e8d1a6e6ecee916b6a2b OP_EQUALVERIFY OP_CHECKSIG", "type": "pubkeyhash"}, "value": 0.15371898, "n": 1}], "hex": "02000000013385dfbf67b6ee8702e8e0a986788393d68984b3166c3fc21848fd7688893945000000006b483045022100b97973b6322b591b77b6769e14e60fe0166ec82ffb266b49888a74372ff6696502205ff729481d3cbf859c0a7c0bda0c02eecf210e48c40166ac3a893628b678f22e0121022265b85bfe6c75b53098d856058b3f47407a116b2ffc963fb1b4c567cd3fe0b1ffffffff02349b4600000000001976a914be5c99e098671d3eae6cdf95eaf2016182a102a688ac7a8eea00000000001976a9146814aa992c4781c2c0b4e8d1a6e6ecee916b6a2b88ac00000000", "vin": [{"sequence": 4294967295, "scriptSig": {"hex": "483045022100b97973b6322b591b77b6769e14e60fe0166ec82ffb266b49888a74372ff6696502205ff729481d3cbf859c0a7c0bda0c02eecf210e48c40166ac3a893628b678f22e0121022265b85bfe6c75b53098d856058b3f47407a116b2ffc963fb1b4c567cd3fe0b1", "asm": "3045022100b97973b6322b591b77b6769e14e60fe0166ec82ffb266b49888a74372ff6696502205ff729481d3cbf859c0a7c0bda0c02eecf210e48c40166ac3a893628b678f22e[ALL] 022265b85bfe6c75b53098d856058b3f47407a116b2ffc963fb1b4c567cd3fe0b1"}, "vout": 0, "txid": "4539898876fd4818c23f6c16b38489d693837886a9e0e80287eeb667bfdf8533"}], "txid": "f062db4eb70ac2b5d811a7f1924ef1587877f1c4fbf67c4ff9bc9c7aadb9454d", "blocktime": 1537876114, "version": 2, "confirmations": 11462, "time": 1537876114, "locktime": 0, "vsize": 226, "size": 226}