{"hash": "ad39b9246c7d4ee1090eca05f7bc7b1d43d88d174baa40ad1bed8f952feca4d9", "blockhash": "00000000000000000017f5eb5941039fbcee6240d03bc1f2f8e35350df66a1d8", "vout": [{"scriptPubKey": {"reqSigs": 1, "hex": "a914463a5caef6ff4b3786a2aa62d594c45c65abceb587", "addresses": ["386M939ZChxFjtDPFrZEbuXXa8zy4vmeRT"], "asm": "OP_HASH160 463a5caef6ff4b3786a2aa62d594c45c65abceb5 OP_EQUAL", "type": "scripthash"}, "value": 0.1633355, "n": 0}, {"scriptPubKey": {"reqSigs": 1, "hex": "a914af4f1cf83b56fd6751190685195d85c73e23ba4687", "addresses": ["3HfxwzYfqSX4RaWC6cKYW93gWWzj95GUkC"], "asm": "OP_HASH160 af4f1cf83b56fd6751190685195d85c73e23ba46 OP_EQUAL", "type": "scripthash"}, "value": 0.20129834, "n": 1}], "hex": "020000000001016e6e1df22fa26dc58c7c1a1b57bd8a6018ab37e4c012722ff9e491c276223f010200000017160014c4168524d3442b089efeef8c84872c1d66c2bb4afdffffff02ee3af9000000000017a914463a5caef6ff4b3786a2aa62d594c45c65abceb5872a2833010000000017a914af4f1cf83b56fd6751190685195d85c73e23ba46870247304402205082f4d62e293fd79abcf820a16cf55e3e4f50b0292c69c8e1640bc835c702c202204cfa9849ab4d9e1fd8ac08070fb7d0a58cbc2b1fe80f9527d6e69ace7cf797dd0121025f942ea436a9bf23508b1bd2361c82cb40ba5af480392b995439aa3b06ab109e15490800", "vin": [{"txinwitness": ["304402205082f4d62e293fd79abcf820a16cf55e3e4f50b0292c69c8e1640bc835c702c202204cfa9849ab4d9e1fd8ac08070fb7d0a58cbc2b1fe80f9527d6e69ace7cf797dd01", "025f942ea436a9bf23508b1bd2361c82cb40ba5af480392b995439aa3b06ab109e"], "sequence": 4294967293, "scriptSig": {"hex": "160014c4168524d3442b089efeef8c84872c1d66c2bb4a", "asm": "0014c4168524d3442b089efeef8c84872c1d66c2bb4a"}, "vout": 2, "txid": "013f2276c291e4f92f7212c0e437ab18608abd571b1a7c8cc56da22ff21d6e6e"}], "txid": "f06b30e92547b50045ddb5a82c47f548d9b83eaae6d574fdbe118df2728f998c", "blocktime": 1537874412, "version": 2, "confirmations": 11468, "time": 1537874412, "locktime": 542997, "vsize": 166, "size": 247}