{"hash": "31aac180ed40c292fe10db5577abc670b6412b800a9376fb259b7daf4c8196c5", "blockhash": "0000000000000000001f0ddff1eddb255c1121bcd4da4f1bc9a0da00cae72433", "vout": [{"scriptPubKey": {"reqSigs": 1, "hex": "a9144ba3416cfb0d406e42f62af1210227547be0aa2a87", "addresses": ["38axB8JwizA8BPV5PbqMp1Nybxbz9J7qci"], "asm": "OP_HASH160 4ba3416cfb0d406e42f62af1210227547be0aa2a OP_EQUAL", "type": "scripthash"}, "value": 0.00187092, "n": 0}, {"scriptPubKey": {"reqSigs": 1, "hex": "a914c3aac73b19a6df3a3a68ef69a8e9f79c8dff9a9c87", "addresses": ["3KXcGqASXznMituPhPnV7BkSc6CHZRLykC"], "asm": "OP_HASH160 c3aac73b19a6df3a3a68ef69a8e9f79c8dff9a9c OP_EQUAL", "type": "scripthash"}, "value": 0.01981344, "n": 1}], "hex": "01000000000101b4fe7d69ceaa3da00ea80524254855c0f5bec08ffb2596b640998ee38c780d7201000000232200200b5c15b2a266c1fd9e615145cf3cd379109fe761c2844ebebbc12b381bddc9faffffffff02d4da02000000000017a9144ba3416cfb0d406e42f62af1210227547be0aa2a87a03b1e000000000017a914c3aac73b19a6df3a3a68ef69a8e9f79c8dff9a9c8704004830450221009c2173ef74e208270ccc992bf6dc3124a2dd4b3cf38c219242372ff69afe1e52022004f513ffe616eefd6efee5ed0670a6ea14085c03b31ebd3077c1d94f1a71ff3a0147304402203564cb141508218126acd7a5d486b45052f23fb8c5d78871bfee28fdba6e0350022010d48fa29fba0b33177b3f0c07074bac04e806db1deed93ac23c5ac9bc243c890147522102b590b6826675da568b914aa494372424b69f5fe06067fd7fa568cc41070c8e6b21024c55499905a522129124e75484b7ddea868aee9a7f01d75add901db6cf9b589f52ae00000000", "vin": [{"txinwitness": ["", "30450221009c2173ef74e208270ccc992bf6dc3124a2dd4b3cf38c219242372ff69afe1e52022004f513ffe616eefd6efee5ed0670a6ea14085c03b31ebd3077c1d94f1a71ff3a01", "304402203564cb141508218126acd7a5d486b45052f23fb8c5d78871bfee28fdba6e0350022010d48fa29fba0b33177b3f0c07074bac04e806db1deed93ac23c5ac9bc243c8901", "522102b590b6826675da568b914aa494372424b69f5fe06067fd7fa568cc41070c8e6b21024c55499905a522129124e75484b7ddea868aee9a7f01d75add901db6cf9b589f52ae"], "sequence": 4294967295, "scriptSig": {"hex": "2200200b5c15b2a266c1fd9e615145cf3cd379109fe761c2844ebebbc12b381bddc9fa", "asm": "00200b5c15b2a266c1fd9e615145cf3cd379109fe761c2844ebebbc12b381bddc9fa"}, "vout": 1, "txid": "720d788ce38e9940b69625fb8fc0bef5c05548252405a80ea03daace697dfeb4"}], "txid": "f06fd96059b41a6712b2203a4c2998d2bbc7aeaf20292c0f026a7bb59795bbb9", "blocktime": 1537872018, "version": 1, "confirmations": 11489, "time": 1537872018, "locktime": 0, "vsize": 206, "size": 371}