{"hash": "f0753d621a42886899659b7d07c6982dcc54d9aff43ddf576e78914c3ed37a83", "blockhash": "00000000000000000024a2167bbff67b0be802c0b01cdd79e6331c2be6459f87", "vout": [{"scriptPubKey": {"reqSigs": 1, "hex": "a9144be8a9c5038c8ee552d98b062db5d9c391ac50d787", "addresses": ["38cPKei6vRG694KQLBAbtbwYgAFnpYt5qk"], "asm": "OP_HASH160 4be8a9c5038c8ee552d98b062db5d9c391ac50d7 OP_EQUAL", "type": "scripthash"}, "value": 0.0029616, "n": 0}, {"scriptPubKey": {"reqSigs": 1, "hex": "76a91488b35f4384f945fd84a15a4196292ab6d251463788ac", "addresses": ["1DTon5nt9GvY4uGaboiyAyM47Y5fcnnuD9"], "asm": "OP_DUP OP_HASH160 88b35f4384f945fd84a15a4196292ab6d2514637 OP_EQUALVERIFY OP_CHECKSIG", "type": "pubkeyhash"}, "value": 0.11478134, "n": 1}], "hex": "0100000001c5c3568de6ed1176383332e993ad7ccdd52f35e02e9eb7603f77b6d1562134d8010000006a473044022078ae0bdc0b9fdb0623b02c07cfbad925afab2ec5ec12e35a2225b8fca85a97a70220283c2710e4afb617068cb7b445fabf3051d379cd3416e889c0c87292c166f8f201210200703fc279600befcb257667f0ab939ee1dab97fe3c069750448f54853fe7a62ffffffff02e08404000000000017a9144be8a9c5038c8ee552d98b062db5d9c391ac50d7877624af00000000001976a91488b35f4384f945fd84a15a4196292ab6d251463788ac00000000", "vin": [{"sequence": 4294967295, "scriptSig": {"hex": "473044022078ae0bdc0b9fdb0623b02c07cfbad925afab2ec5ec12e35a2225b8fca85a97a70220283c2710e4afb617068cb7b445fabf3051d379cd3416e889c0c87292c166f8f201210200703fc279600befcb257667f0ab939ee1dab97fe3c069750448f54853fe7a62", "asm": "3044022078ae0bdc0b9fdb0623b02c07cfbad925afab2ec5ec12e35a2225b8fca85a97a70220283c2710e4afb617068cb7b445fabf3051d379cd3416e889c0c87292c166f8f2[ALL] 0200703fc279600befcb257667f0ab939ee1dab97fe3c069750448f54853fe7a62"}, "vout": 1, "txid": "d8342156d1b6773f60b79e2ee0352fd5cd7cad93e93233387611ede68d56c3c5"}], "txid": "f0753d621a42886899659b7d07c6982dcc54d9aff43ddf576e78914c3ed37a83", "blocktime": 1537870564, "version": 1, "confirmations": 11515, "time": 1537870564, "locktime": 0, "vsize": 223, "size": 223}