{"hash": "f07613e84516ab11fa02e2f4c2f270bad6766021812d5785d4ec0e0d12580e19", "blockhash": "0000000000000000001f76057863aec43deb6fa401d9628bb513d65a8098bfab", "vout": [{"scriptPubKey": {"reqSigs": 1, "hex": "76a914e603812ed167338bb44de3e9383335455fccf0a588ac", "addresses": ["1MyCcdKu49CBbDv1BWfyRpUrqpH31NsLVt"], "asm": "OP_DUP OP_HASH160 e603812ed167338bb44de3e9383335455fccf0a5 OP_EQUALVERIFY OP_CHECKSIG", "type": "pubkeyhash"}, "value": 1.0, "n": 0}, {"scriptPubKey": {"reqSigs": 1, "hex": "a91406cdfc7cb431f26dc255467dd5e17f5484abb13787", "addresses": ["32JzjsYS4WiWoUerXs19jmPWTQBuv8PoW6"], "asm": "OP_HASH160 06cdfc7cb431f26dc255467dd5e17f5484abb137 OP_EQUAL", "type": "scripthash"}, "value": 2.75, "n": 1}, {"scriptPubKey": {"reqSigs": 1, "hex": "76a91474f45694d61d5e6ddb5ff6ffd3de59730e985bc788ac", "addresses": ["1BfQ6AnTTpCxRDznBjjd2YnRuTU6KCi454"], "asm": "OP_DUP OP_HASH160 74f45694d61d5e6ddb5ff6ffd3de59730e985bc7 OP_EQUALVERIFY OP_CHECKSIG", "type": "pubkeyhash"}, "value": 1.88070796, "n": 2}, {"scriptPubKey": {"reqSigs": 1, "hex": "76a914d45595c9a0e1dc19824e36d11bb08e0401b7bd4288ac", "addresses": ["1LMinE5ttiFJ2DGyHtzGpVCfP1FsV1pGPX"], "asm": "OP_DUP OP_HASH160 d45595c9a0e1dc19824e36d11bb08e0401b7bd42 OP_EQUALVERIFY OP_CHECKSIG", "type": "pubkeyhash"}, "value": 0.3358, "n": 3}, {"scriptPubKey": {"reqSigs": 1, "hex": "a91483f8c351ce60da06ad6fddbae531075fa9ec009287", "addresses": ["3DipT2YmcXgJTJJM7xWGLQCSiDALCAv6F8"], "asm": "OP_HASH160 83f8c351ce60da06ad6fddbae531075fa9ec0092 OP_EQUAL", "type": "scripthash"}, "value": 0.03331424, "n": 4}], "hex": "0100000001610e302fd3bf1d291d74a80340c3ea7ad03c6f99abe8cacd0eb55bace4291720030000006b483045022100adc46b280e9353c5b6fc3e811a367bd57626af54a90b490ece18986860409d0d022064f80f970a507f79762accbf93bfdadd100c2777a4f7059c1305d98a4b09fd0e012102376fdf4e7ef0e6482c4639b3daa73b82b81f0eb3faa3b6868d23a1286dbeaf47ffffffff0500e1f505000000001976a914e603812ed167338bb44de3e9383335455fccf0a588acc02a64100000000017a91406cdfc7cb431f26dc255467dd5e17f5484abb137878cbb350b000000001976a91474f45694d61d5e6ddb5ff6ffd3de59730e985bc788ace0630002000000001976a914d45595c9a0e1dc19824e36d11bb08e0401b7bd4288ac60d532000000000017a91483f8c351ce60da06ad6fddbae531075fa9ec00928700000000", "vin": [{"sequence": 4294967295, "scriptSig": {"hex": "483045022100adc46b280e9353c5b6fc3e811a367bd57626af54a90b490ece18986860409d0d022064f80f970a507f79762accbf93bfdadd100c2777a4f7059c1305d98a4b09fd0e012102376fdf4e7ef0e6482c4639b3daa73b82b81f0eb3faa3b6868d23a1286dbeaf47", "asm": "3045022100adc46b280e9353c5b6fc3e811a367bd57626af54a90b490ece18986860409d0d022064f80f970a507f79762accbf93bfdadd100c2777a4f7059c1305d98a4b09fd0e[ALL] 02376fdf4e7ef0e6482c4639b3daa73b82b81f0eb3faa3b6868d23a1286dbeaf47"}, "vout": 3, "txid": "201729e4ac5bb50ecdcae8ab996f3cd07aeac34003a8741d291dbfd32f300e61"}], "txid": "f07613e84516ab11fa02e2f4c2f270bad6766021812d5785d4ec0e0d12580e19", "blocktime": 1537873891, "version": 1, "confirmations": 11474, "time": 1537873891, "locktime": 0, "vsize": 324, "size": 324}