{"hash": "f077f45afd07ee3ebcbe87e1a3f83b3ef06f19a99e2ef2a75f69680d08e2d32e", "blockhash": "0000000000000000001f0ddff1eddb255c1121bcd4da4f1bc9a0da00cae72433", "vout": [{"scriptPubKey": {"reqSigs": 1, "hex": "76a914563bb22f5e482c21c40cbfbe02c0f5750fc1be8d88ac", "addresses": ["18rxdFYEGY1dgdBNqQZCxHrcp5Qyyca9Kr"], "asm": "OP_DUP OP_HASH160 563bb22f5e482c21c40cbfbe02c0f5750fc1be8d OP_EQUALVERIFY OP_CHECKSIG", "type": "pubkeyhash"}, "value": 0.41347773, "n": 0}, {"scriptPubKey": {"reqSigs": 1, "hex": "76a914d82d40ec25fe71c55e4ac75ec026c814b8b0709888ac", "addresses": ["1Li3AiEK3WgJrCNycMgaL7EujyobEWR1cL"], "asm": "OP_DUP OP_HASH160 d82d40ec25fe71c55e4ac75ec026c814b8b07098 OP_EQUALVERIFY OP_CHECKSIG", "type": "pubkeyhash"}, "value": 0.77728872, "n": 1}], "hex": "010000000265d7bbc5d9ce197bfbbdc99b9f574c1a54e8347690dc870d2fdf1221157aa119010000006a473044022030015d49154dd95210dda3bae7b462e50112738f5e0151d27e655fc87634baae022059fedc78b39d2daf32780f2665c30caf09c185d5ff1a7db638fb0c9bb464bbf1012102bbda79f10a23775caa1e5a2009a696e0aebc4ef5a3b22a35c4307b1775c78ff3ffffffff144ba8884a49ee5ece87666ddba715219a87898a1c3541a9732cd6c259bf087b010000006b4830450221008e13d329db200a9660adf11da2f266d84ce8a638d37c1607111c49e016dd637402205bdf8bd980aa25cc2d4c296b460ad039a5197b2570bf59aac18b0a22d90c167901210288beade366e923412f3ef752612e2be3aa6f4a1eabf7c6e256639cc26a896d73ffffffff02bdea7602000000001976a914563bb22f5e482c21c40cbfbe02c0f5750fc1be8d88ac680ca204000000001976a914d82d40ec25fe71c55e4ac75ec026c814b8b0709888ac00000000", "vin": [{"sequence": 4294967295, "scriptSig": {"hex": "473044022030015d49154dd95210dda3bae7b462e50112738f5e0151d27e655fc87634baae022059fedc78b39d2daf32780f2665c30caf09c185d5ff1a7db638fb0c9bb464bbf1012102bbda79f10a23775caa1e5a2009a696e0aebc4ef5a3b22a35c4307b1775c78ff3", "asm": "3044022030015d49154dd95210dda3bae7b462e50112738f5e0151d27e655fc87634baae022059fedc78b39d2daf32780f2665c30caf09c185d5ff1a7db638fb0c9bb464bbf1[ALL] 02bbda79f10a23775caa1e5a2009a696e0aebc4ef5a3b22a35c4307b1775c78ff3"}, "vout": 1, "txid": "19a17a152112df2f0d87dc907634e8541a4c579f9bc9bdfb7b19ced9c5bbd765"}, {"sequence": 4294967295, "scriptSig": {"hex": "4830450221008e13d329db200a9660adf11da2f266d84ce8a638d37c1607111c49e016dd637402205bdf8bd980aa25cc2d4c296b460ad039a5197b2570bf59aac18b0a22d90c167901210288beade366e923412f3ef752612e2be3aa6f4a1eabf7c6e256639cc26a896d73", "asm": "30450221008e13d329db200a9660adf11da2f266d84ce8a638d37c1607111c49e016dd637402205bdf8bd980aa25cc2d4c296b460ad039a5197b2570bf59aac18b0a22d90c1679[ALL] 0288beade366e923412f3ef752612e2be3aa6f4a1eabf7c6e256639cc26a896d73"}, "vout": 1, "txid": "7b08bf59c2d62c73a941351c8a89879a2115a7db6d6687ce5eee494a88a84b14"}], "txid": "f077f45afd07ee3ebcbe87e1a3f83b3ef06f19a99e2ef2a75f69680d08e2d32e", "blocktime": 1537872018, "version": 1, "confirmations": 11489, "time": 1537872018, "locktime": 0, "vsize": 373, "size": 373}