{"hash": "f0792ec5d16ba03239e0714b40ce440a0c32139129d696dda1563987a3172730", "blockhash": "0000000000000000000dcc0f55137456b1a82d3642486a52398922ac4d620174", "vout": [{"scriptPubKey": {"reqSigs": 1, "hex": "a9142635c0d586cb7621c4ddb2f16650a2f72f9acf7a87", "addresses": ["35B3zg7VzSRkPe2AfmsbsNUJmXexaYiJcW"], "asm": "OP_HASH160 2635c0d586cb7621c4ddb2f16650a2f72f9acf7a OP_EQUAL", "type": "scripthash"}, "value": 0.69999427, "n": 0}], "hex": "01000000016b4d6b51f83f2da3cc10ee4c633adb2467f4a6c4cc86e3b4961ba69edff0dc07010000006a4730440220495f5909f27f93b763b6b488dac0829b457e4ea9f6219568919009fe1d66e4a9022010a6c0e5645f9875a8fe900e9ff67fdc17d97355b2aa0c18e75597d0dd3b25440121027881d77532ec0f06602201831a7e91949ff9661858bd0c61853760df1f442677ffffffff01431b2c040000000017a9142635c0d586cb7621c4ddb2f16650a2f72f9acf7a8700000000", "vin": [{"sequence": 4294967295, "scriptSig": {"hex": "4730440220495f5909f27f93b763b6b488dac0829b457e4ea9f6219568919009fe1d66e4a9022010a6c0e5645f9875a8fe900e9ff67fdc17d97355b2aa0c18e75597d0dd3b25440121027881d77532ec0f06602201831a7e91949ff9661858bd0c61853760df1f442677", "asm": "30440220495f5909f27f93b763b6b488dac0829b457e4ea9f6219568919009fe1d66e4a9022010a6c0e5645f9875a8fe900e9ff67fdc17d97355b2aa0c18e75597d0dd3b2544[ALL] 027881d77532ec0f06602201831a7e91949ff9661858bd0c61853760df1f442677"}, "vout": 1, "txid": "07dcf0df9ea61b96b4e386ccc4a6f46724db3a634cee10cca32d3ff8516b4d6b"}], "txid": "f0792ec5d16ba03239e0714b40ce440a0c32139129d696dda1563987a3172730", "blocktime": 1537870268, "version": 1, "confirmations": 11518, "time": 1537870268, "locktime": 0, "vsize": 189, "size": 189}