{"hash": "ef37d815ea0cc1cc53dfdf6e5a04df58a68ec305873f53220ceef8ca677172b9", "blockhash": "0000000000000000000e13cef7c366c0283d82e591d1acd082e914b08063cdf1", "vout": [{"scriptPubKey": {"reqSigs": 1, "hex": "76a914fc6379d8bcdfba970601561415de31fa3a51b72a88ac", "addresses": ["1Q1WT43BjADKuC5Jc5hYumfEypBy2uNhse"], "asm": "OP_DUP OP_HASH160 fc6379d8bcdfba970601561415de31fa3a51b72a OP_EQUALVERIFY OP_CHECKSIG", "type": "pubkeyhash"}, "value": 0.10598914, "n": 0}, {"scriptPubKey": {"reqSigs": 1, "hex": "a91429516e219d46a41b4e23a1a088cbc62e8498044a87", "addresses": ["35TVBH6WEp77ZsFCU2oUDcCze8JEPFc4qP"], "asm": "OP_HASH160 29516e219d46a41b4e23a1a088cbc62e8498044a OP_EQUAL", "type": "scripthash"}, "value": 0.04400496, "n": 1}], "hex": "0200000000010183e86d0e26dcb5fa37a57a2ab6ce54871f8e159a6e841196afe2ee2cd1bd96b601000000171600141dabc1c26f073c6f2b57337661c995b9054a3df9fdffffff0202baa100000000001976a914fc6379d8bcdfba970601561415de31fa3a51b72a88ac702543000000000017a91429516e219d46a41b4e23a1a088cbc62e8498044a870248304502210095937253d2ef6d638e7ead30074c380af321c0d463151906e40620f375229db20220082347990b0f843b3c62f3d4ea34d14a3eb6f67830d1dde4173e0c496270f602012102e8f5fe3db8df9e2148d4d420a3f73c19d1cbbc611e84fbcfd4aedc9160f36f5410490800", "vin": [{"txinwitness": ["304502210095937253d2ef6d638e7ead30074c380af321c0d463151906e40620f375229db20220082347990b0f843b3c62f3d4ea34d14a3eb6f67830d1dde4173e0c496270f60201", "02e8f5fe3db8df9e2148d4d420a3f73c19d1cbbc611e84fbcfd4aedc9160f36f54"], "sequence": 4294967293, "scriptSig": {"hex": "1600141dabc1c26f073c6f2b57337661c995b9054a3df9", "asm": "00141dabc1c26f073c6f2b57337661c995b9054a3df9"}, "vout": 1, "txid": "b696bdd12ceee2af9611846e9a158e1f8754ceb62a7aa537fab5dc260e6de883"}], "txid": "f07a2c211a1050649bc35cf93e3c0f7036c953309d5a1258be7f621e81fe5a0c", "blocktime": 1537871767, "version": 2, "confirmations": 11495, "time": 1537871767, "locktime": 542992, "vsize": 168, "size": 250}