{"hash": "f07c75b71980da036b1e1290d9eb1eca4f90ce832f55fdea9d6292c03c247477", "blockhash": "0000000000000000000e13cef7c366c0283d82e591d1acd082e914b08063cdf1", "vout": [{"scriptPubKey": {"reqSigs": 1, "hex": "76a91481e3c6727b574e3e952e6d410c28428a7f7d131a88ac", "addresses": ["1Cqo2qv9B1c2zHnf89ycgvv3gCoTPhtsgS"], "asm": "OP_DUP OP_HASH160 81e3c6727b574e3e952e6d410c28428a7f7d131a OP_EQUALVERIFY OP_CHECKSIG", "type": "pubkeyhash"}, "value": 0.0194964, "n": 0}, {"scriptPubKey": {"reqSigs": 1, "hex": "a9142e3152ee681e6bf7864df92294a000c2ad51c70b87", "addresses": ["35uG6TQaNkgQMG5VLPKXVcQHQ8dd7zkpAw"], "asm": "OP_HASH160 2e3152ee681e6bf7864df92294a000c2ad51c70b OP_EQUAL", "type": "scripthash"}, "value": 0.07817776, "n": 1}], "hex": "0100000001ec219642f35f47fdd6d541285a502bd83a580e2d7070fa4855d61ba2114110af000000006b48304502210096628c28ac85a9174fe643763f08462867243b368002528532b8ce77f4a489a6022036083434138f222aca49a5a855d213de2b230e2ab5258b4ff14b1e606b765720012102ab40669d4b48c083bcf72414616a80b2fc6d4dead98f0d1658c0b8d7af18bda4ffffffff02c8bf1d00000000001976a91481e3c6727b574e3e952e6d410c28428a7f7d131a88ac304a77000000000017a9142e3152ee681e6bf7864df92294a000c2ad51c70b8700000000", "vin": [{"sequence": 4294967295, "scriptSig": {"hex": "48304502210096628c28ac85a9174fe643763f08462867243b368002528532b8ce77f4a489a6022036083434138f222aca49a5a855d213de2b230e2ab5258b4ff14b1e606b765720012102ab40669d4b48c083bcf72414616a80b2fc6d4dead98f0d1658c0b8d7af18bda4", "asm": "304502210096628c28ac85a9174fe643763f08462867243b368002528532b8ce77f4a489a6022036083434138f222aca49a5a855d213de2b230e2ab5258b4ff14b1e606b765720[ALL] 02ab40669d4b48c083bcf72414616a80b2fc6d4dead98f0d1658c0b8d7af18bda4"}, "vout": 0, "txid": "af104111a21bd65548fa70702d0e583ad82b505a2841d5d6fd475ff3429621ec"}], "txid": "f07c75b71980da036b1e1290d9eb1eca4f90ce832f55fdea9d6292c03c247477", "blocktime": 1537871767, "version": 1, "confirmations": 11493, "time": 1537871767, "locktime": 0, "vsize": 224, "size": 224}