{"hash": "d32d6814157f8b3d5525ab7f3d4e6938d183b8d330e9e2dfe5286f795b8d9513", "blockhash": "0000000000000000001f76057863aec43deb6fa401d9628bb513d65a8098bfab", "vout": [{"scriptPubKey": {"reqSigs": 1, "hex": "a914c8cdd434e7fb487c9790080c7c6ce0dfe5f15f5287", "addresses": ["3Kzme9vuEwMZGMct35Ypffq96reKtGMGjU"], "asm": "OP_HASH160 c8cdd434e7fb487c9790080c7c6ce0dfe5f15f52 OP_EQUAL", "type": "scripthash"}, "value": 0.0007, "n": 0}, {"scriptPubKey": {"reqSigs": 1, "hex": "0014f784c02bfd4682e7c87b22ba053a15d13a6e10d6", "addresses": ["bc1q77zvq2lag6pw0jrmy2aq2ws46yaxuyxk092k6k"], "asm": "0 f784c02bfd4682e7c87b22ba053a15d13a6e10d6", "type": "witness_v0_keyhash"}, "value": 0.00106734, "n": 1}], "hex": "01000000000101bcd9651a8a5126b2305c9c4539b103b9d33b8c489dea7e28ecd4565d12a2e8fa0100000000ffffffff02701101000000000017a914c8cdd434e7fb487c9790080c7c6ce0dfe5f15f5287eea0010000000000160014f784c02bfd4682e7c87b22ba053a15d13a6e10d60247304402201f77b87cfb07795e6ac5369b1bb472846a27987651cb87909a6ca3cceaa4333102207c56a8448a3504d5b582ca957ae1b482b29da315ec92e196b8f7528814a54aa901210210014a5b759e2c40550e6162e31271cfdff3fefa52dfeffb7e33ff682973fc6e00000000", "vin": [{"txinwitness": ["304402201f77b87cfb07795e6ac5369b1bb472846a27987651cb87909a6ca3cceaa4333102207c56a8448a3504d5b582ca957ae1b482b29da315ec92e196b8f7528814a54aa901", "0210014a5b759e2c40550e6162e31271cfdff3fefa52dfeffb7e33ff682973fc6e"], "sequence": 4294967295, "scriptSig": {"hex": "", "asm": ""}, "vout": 1, "txid": "fae8a2125d56d4ec287eea9d488c3bd3b903b139459c5c30b226518a1a65d9bc"}], "txid": "f0815983ac54b6a354ddd1706d74feec9d628719cb1d0c39fc92c534fada3323", "blocktime": 1537873891, "version": 1, "confirmations": 11479, "time": 1537873891, "locktime": 0, "vsize": 142, "size": 223}