{"hash": "f08110989469bb7ac60463b15341f725f6d96128129b8690514150564a69feed", "blockhash": "000000000000000000022b45ed06c6f4ccd3cf7fb5ba4856ebd2e58215665228", "vout": [{"scriptPubKey": {"reqSigs": 1, "hex": "76a914ab7821b0cc8d48eedb22388c7ec9f6aef6ad146588ac", "addresses": ["1GdeThCrJ5TgDETMZRJWZZDkkngKS3kEE9"], "asm": "OP_DUP OP_HASH160 ab7821b0cc8d48eedb22388c7ec9f6aef6ad1465 OP_EQUALVERIFY OP_CHECKSIG", "type": "pubkeyhash"}, "value": 0.3369394, "n": 0}, {"scriptPubKey": {"reqSigs": 1, "hex": "76a914831460d190a54ebd5b72fa0c3af9efc75f97702988ac", "addresses": ["1Cx5w2qvUcpt4hTSCLx6mMLjAtC5jLbxt4"], "asm": "OP_DUP OP_HASH160 831460d190a54ebd5b72fa0c3af9efc75f977029 OP_EQUALVERIFY OP_CHECKSIG", "type": "pubkeyhash"}, "value": 0.54637046, "n": 1}], "hex": "01000000028eaba25c72bf557d313887107773936a6f869f6b9accb2a421025cf4a5adb80e030000006a4730440220146e42632ad651f9d3a2f6e15c6fb73000b92057b2bbda8a16955f1999e250bc0220708c5dda447fb946abf7774ee7c9b821328bf4489dfffb802dcf83ef1ac249d50121021ecd0ef880abd9b1cce499a50be02a6c11ae520fde7c1bcb13ff843273f0f0a3ffffffff1b738767b2400d226f85ce24eee1b59d092ca04b01ce13ebf673566a4b4d4ae4220000006a47304402207af5406ff72d3e0efc6d6b11e2e813658d67a710faf91f991873e6df482ebc3b02201bc1d565f2cfe50d1fd84189fd7b142addbb0ab29bd57e4a3c0311f15011bd35012103575d486d90b6d0065661e6d6eb0d737d46ac92fb254877807ac755f73a09c1aaffffffff02f4200202000000001976a914ab7821b0cc8d48eedb22388c7ec9f6aef6ad146588acf6b14103000000001976a914831460d190a54ebd5b72fa0c3af9efc75f97702988ac00000000", "vin": [{"sequence": 4294967295, "scriptSig": {"hex": "4730440220146e42632ad651f9d3a2f6e15c6fb73000b92057b2bbda8a16955f1999e250bc0220708c5dda447fb946abf7774ee7c9b821328bf4489dfffb802dcf83ef1ac249d50121021ecd0ef880abd9b1cce499a50be02a6c11ae520fde7c1bcb13ff843273f0f0a3", "asm": "30440220146e42632ad651f9d3a2f6e15c6fb73000b92057b2bbda8a16955f1999e250bc0220708c5dda447fb946abf7774ee7c9b821328bf4489dfffb802dcf83ef1ac249d5[ALL] 021ecd0ef880abd9b1cce499a50be02a6c11ae520fde7c1bcb13ff843273f0f0a3"}, "vout": 3, "txid": "0eb8ada5f45c0221a4b2cc9a6b9f866f6a937377108738317d55bf725ca2ab8e"}, {"sequence": 4294967295, "scriptSig": {"hex": "47304402207af5406ff72d3e0efc6d6b11e2e813658d67a710faf91f991873e6df482ebc3b02201bc1d565f2cfe50d1fd84189fd7b142addbb0ab29bd57e4a3c0311f15011bd35012103575d486d90b6d0065661e6d6eb0d737d46ac92fb254877807ac755f73a09c1aa", "asm": "304402207af5406ff72d3e0efc6d6b11e2e813658d67a710faf91f991873e6df482ebc3b02201bc1d565f2cfe50d1fd84189fd7b142addbb0ab29bd57e4a3c0311f15011bd35[ALL] 03575d486d90b6d0065661e6d6eb0d737d46ac92fb254877807ac755f73a09c1aa"}, "vout": 34, "txid": "e44a4d4b6a5673f6eb13ce014ba02c099db5e1ee24ce856f220d40b26787731b"}], "txid": "f08110989469bb7ac60463b15341f725f6d96128129b8690514150564a69feed", "blocktime": 1537869901, "version": 1, "confirmations": 11524, "time": 1537869901, "locktime": 0, "vsize": 372, "size": 372}