{"hash": "f088eb421afbed470db31a7ce8441838b6cfc8e059e52273fe927cb09e1726f4", "blockhash": "0000000000000000000baef3f32e3676a92c3b2e5da21b426e4f302fc371ce76", "vout": [{"scriptPubKey": {"reqSigs": 1, "hex": "a91473526abcaa73f1ff18ac04349af2d42865816ed987", "addresses": ["3CCnN2uhuRk8S65csPYtwAZf56F2Zzgkd4"], "asm": "OP_HASH160 73526abcaa73f1ff18ac04349af2d42865816ed9 OP_EQUAL", "type": "scripthash"}, "value": 0.08354159, "n": 0}], "hex": "02000000023063dbaba2c09c7fc4b0a7fab1bf6910895077f367770c20fbc63d5a333bdea9020000006a4730440220579a6b53734af83a0e4c5c56f0261e25604ada61b307a43822adce496283018d0220390e15935c03e2c615400a3c1be583f0e7be74c307665da957cb2de3c279e6fe0121030f793d80590fcde752a3fb501dd3a44c2f7c67382b58085de44adc2fff6c1ff3ffffffffc1135fa5d0d15f16c44d69aa1d6b7c8928325036c4e11db5352c26ccf740c5f6090000006b4830450221009156bf25a8a644a2216cc4bc867bf1fe102822fc4ff7f3d743f6586460ae5047022053eda7d853589b615005d03e0866d225a50891d2f9d9e701237539beee3d18b6012102eed089abda40755d01be48e18337fea112677442dd6f6305967efc8488fba7f1ffffffff016f797f000000000017a91473526abcaa73f1ff18ac04349af2d42865816ed98700000000", "vin": [{"sequence": 4294967295, "scriptSig": {"hex": "4730440220579a6b53734af83a0e4c5c56f0261e25604ada61b307a43822adce496283018d0220390e15935c03e2c615400a3c1be583f0e7be74c307665da957cb2de3c279e6fe0121030f793d80590fcde752a3fb501dd3a44c2f7c67382b58085de44adc2fff6c1ff3", "asm": "30440220579a6b53734af83a0e4c5c56f0261e25604ada61b307a43822adce496283018d0220390e15935c03e2c615400a3c1be583f0e7be74c307665da957cb2de3c279e6fe[ALL] 030f793d80590fcde752a3fb501dd3a44c2f7c67382b58085de44adc2fff6c1ff3"}, "vout": 2, "txid": "a9de3b335a3dc6fb200c7767f37750891069bfb1faa7b0c47f9cc0a2abdb6330"}, {"sequence": 4294967295, "scriptSig": {"hex": "4830450221009156bf25a8a644a2216cc4bc867bf1fe102822fc4ff7f3d743f6586460ae5047022053eda7d853589b615005d03e0866d225a50891d2f9d9e701237539beee3d18b6012102eed089abda40755d01be48e18337fea112677442dd6f6305967efc8488fba7f1", "asm": "30450221009156bf25a8a644a2216cc4bc867bf1fe102822fc4ff7f3d743f6586460ae5047022053eda7d853589b615005d03e0866d225a50891d2f9d9e701237539beee3d18b6[ALL] 02eed089abda40755d01be48e18337fea112677442dd6f6305967efc8488fba7f1"}, "vout": 9, "txid": "f6c540f7cc262c35b51de1c436503228897c6b1daa694dc4165fd1d0a55f13c1"}], "txid": "f088eb421afbed470db31a7ce8441838b6cfc8e059e52273fe927cb09e1726f4", "blocktime": 1537876114, "version": 2, "confirmations": 11459, "time": 1537876114, "locktime": 0, "vsize": 337, "size": 337}