{"hash": "405345909052b60e06c75cd996b4b4b108a845caae950d3cb49d16425e580a10", "blockhash": "0000000000000000001f76057863aec43deb6fa401d9628bb513d65a8098bfab", "vout": [{"scriptPubKey": {"reqSigs": 1, "hex": "a914583618f879ab0a39f10679b03d88132be68ab53f87", "addresses": ["39jSCBrNAk7b16BKhsonkioQ86qgMd1Dep"], "asm": "OP_HASH160 583618f879ab0a39f10679b03d88132be68ab53f OP_EQUAL", "type": "scripthash"}, "value": 0.2248, "n": 0}, {"scriptPubKey": {"reqSigs": 1, "hex": "a914b0f3a1ded5028c88e783df6cf35f0274d581f96987", "addresses": ["3HpeiB831sybVzkdzfa8TNGUavhpbQFJhw"], "asm": "OP_HASH160 b0f3a1ded5028c88e783df6cf35f0274d581f969 OP_EQUAL", "type": "scripthash"}, "value": 0.2248, "n": 1}, {"scriptPubKey": {"reqSigs": 1, "hex": "a9148f8d3acf6ba5cd74607ce8b0aaebfbbc2956fc3f87", "addresses": ["3En3jniSxziyyTujeAXWffc1RY4Wzj9JXP"], "asm": "OP_HASH160 8f8d3acf6ba5cd74607ce8b0aaebfbbc2956fc3f OP_EQUAL", "type": "scripthash"}, "value": 0.2248, "n": 2}, {"scriptPubKey": {"reqSigs": 1, "hex": "a91462dc066a07138437faf27dc1bfc8c69a97bace5787", "addresses": ["3AhjixAkTmQShMX23nF8RqMHkD79aoA5Aq"], "asm": "OP_HASH160 62dc066a07138437faf27dc1bfc8c69a97bace57 OP_EQUAL", "type": "scripthash"}, "value": 0.0094848, "n": 3}, {"scriptPubKey": {"reqSigs": 1, "hex": "a91464d8b42ca77f015ca04d5f3c8be917b6e2bcc32c87", "addresses": ["3AtF6a5rpZ1Ep8rM7LR9Yj6BcSKmjSjdNo"], "asm": "OP_HASH160 64d8b42ca77f015ca04d5f3c8be917b6e2bcc32c OP_EQUAL", "type": "scripthash"}, "value": 0.222399, "n": 4}, {"scriptPubKey": {"reqSigs": 1, "hex": "a9148105dcf3510f4bab4358d53444d1032af29e634e87", "addresses": ["3DTE7fV99oA2rHSWoV2Wdnz2NSENCHrycQ"], "asm": "OP_HASH160 8105dcf3510f4bab4358d53444d1032af29e634e OP_EQUAL", "type": "scripthash"}, "value": 0.2248, "n": 5}, {"scriptPubKey": {"reqSigs": 1, "hex": "a91485ce0dc2fc22520acd48c7c4884da340a235db3687", "addresses": ["3DtWdvVsRGapzeFPUvBHB1tW8mxperJkTw"], "asm": "OP_HASH160 85ce0dc2fc22520acd48c7c4884da340a235db36 OP_EQUAL", "type": "scripthash"}, "value": 0.2248, "n": 6}, {"scriptPubKey": {"reqSigs": 1, "hex": "a914c560abe74ebd44979d8eff4c453fa021bef7b6a287", "addresses": ["3KgerBr1BbM2CG1kJTBUnW6pnFiNsdwh2i"], "asm": "OP_HASH160 c560abe74ebd44979d8eff4c453fa021bef7b6a2 OP_EQUAL", "type": "scripthash"}, "value": 7.40285363, "n": 7}, {"scriptPubKey": {"reqSigs": 1, "hex": "a914fc689d5b8c739047eac08ee2982d53c621406c7787", "addresses": ["3QhdXe6Bg6kV4vLAY7nUHVs7aqGbpcRUWD"], "asm": "OP_HASH160 fc689d5b8c739047eac08ee2982d53c621406c77 OP_EQUAL", "type": "scripthash"}, "value": 0.65643929, "n": 8}, {"scriptPubKey": {"reqSigs": 1, "hex": "a91454f24a5d302b5af37e7899575bf9f5d1e4c0bef187", "addresses": ["39SAwJ6K2vqAKuidM273NYkzWTPVaeGndc"], "asm": "OP_HASH160 54f24a5d302b5af37e7899575bf9f5d1e4c0bef1 OP_EQUAL", "type": "scripthash"}, "value": 0.2248, "n": 9}, {"scriptPubKey": {"reqSigs": 1, "hex": "a9143933d1543a8da3b60b84fee6f86b68f94474a44187", "addresses": ["36uUWqMD5yx6F6NyAUweTq7WjDyJtEtv3d"], "asm": "OP_HASH160 3933d1543a8da3b60b84fee6f86b68f94474a441 OP_EQUAL", "type": "scripthash"}, "value": 0.04399655, "n": 10}, {"scriptPubKey": {"reqSigs": 1, "hex": "a914f919d13fe951249a499ec3496c22223608fe72bc87", "addresses": ["3QQ978eTKBHttxq9JydZGJWcY3ofuDFxBZ"], "asm": "OP_HASH160 f919d13fe951249a499ec3496c22223608fe72bc OP_EQUAL", "type": "scripthash"}, "value": 0.584351, "n": 11}, {"scriptPubKey": {"reqSigs": 1, "hex": "a9140ec83e8108b53a78ceac035a40c98ad587b10d2887", "addresses": ["333BGSKGX7nLcb9oWF4XNscrUu5JZN7TvA"], "asm": "OP_HASH160 0ec83e8108b53a78ceac035a40c98ad587b10d28 OP_EQUAL", "type": "scripthash"}, "value": 0.18495254, "n": 12}, {"scriptPubKey": {"reqSigs": 1, "hex": "76a91437e0abc6d771f32573633da52a6fb85880c571b488ac", "addresses": ["166TJy1LpA2MD4qVmV13UCRf1pgkJoQHtD"], "asm": "OP_DUP OP_HASH160 37e0abc6d771f32573633da52a6fb85880c571b4 OP_EQUALVERIFY OP_CHECKSIG", "type": "pubkeyhash"}, "value": 0.2248, "n": 13}], "hex": "0100000000010863b24f6a27e00fe14402fcf3a5d897a3aca6f341a074c3ea4136a5ce45445a8305000000171600145310dd8576cdca0421dc5d87a9b04cea7b390894ffffffff9c84a439e8a8f7538497d81bb56173cb91e138a4f6b81c360050bdc5d9adea230300000017160014d46bb033903de332c68ab9640039b1787e171d47ffffffff5b9b8b5dc6ccf2144c4971332f4a45dcb2ee469f36d61d4d8a2b39ce2ac2bed506000000171600140234e090b928a1c579482873ab57be28cc0e4d53ffffffff61b5fcee6016354807d50e597e11bef97995f0c3ff5e9c523e5be83f189c53be0000000017160014491a1b6fc4a8ea4e2b0fafb541e76d9bded659a5ffffffff2b5d643be6fd1712bc96cb71b98af96da6e140f7646984531d1ab54012c374bd0400000017160014e53fb2ee6cfc443e4beafd2572deb7ccb92c2939ffffffff3d0c6d46662a130a157c0afae5a11a24d22252c384c16ed2d68594e5022c6ee50100000017160014ea924140673307ea10d3272074fd65fde03f44aeffffffffbfbe21d75dfe56df9852b7c72d2b162b2ddc233c80ef6b488141e07c77b49a0206000000171600140a264cc54b08ea78c5fb091e7a1c142d5ac6ff76ffffffff4c495afef06b4cf89185ecbb362b65c811b492b36f1333a4f9686a681333cb270200000017160014f797468af1f81b1098351e799fd185e5686ef0d3ffffffff0e800457010000000017a914583618f879ab0a39f10679b03d88132be68ab53f87800457010000000017a914b0f3a1ded5028c88e783df6cf35f0274d581f96987800457010000000017a9148f8d3acf6ba5cd74607ce8b0aaebfbbc2956fc3f8700790e000000000017a91462dc066a07138437faf27dc1bfc8c69a97bace57879c5a53010000000017a91464d8b42ca77f015ca04d5f3c8be917b6e2bcc32c87800457010000000017a9148105dcf3510f4bab4358d53444d1032af29e634e87800457010000000017a91485ce0dc2fc22520acd48c7c4884da340a235db3687b3db1f2c0000000017a914c560abe74ebd44979d8eff4c453fa021bef7b6a28799a5e9030000000017a914fc689d5b8c739047eac08ee2982d53c621406c7787800457010000000017a91454f24a5d302b5af37e7899575bf9f5d1e4c0bef187272243000000000017a9143933d1543a8da3b60b84fee6f86b68f94474a441871ca67b030000000017a914f919d13fe951249a499ec3496c22223608fe72bc8716371a010000000017a9140ec83e8108b53a78ceac035a40c98ad587b10d288780045701000000001976a91437e0abc6d771f32573633da52a6fb85880c571b488ac0247304402200f0c65231196f8e401976e05e015f79a05bc7447255950b7f31bf396dfa27c2a02201d6aca763c22356d608fd2f58cb62b719924b5ad9ae08c548d630dcc51413ba6012102eef766caf16793581188fb3812ad1c48e626914b140e5c563dfb78927a9f7d8502483045022100e21223458408d25e02f95590ebdbcb391cfa50b0b7f8b12250178de7ef13b96302203560b9efded05ab5dfb05e0e7e622aec06c74aecacc419ed7a43468004fb1fa6012103596d0e0cfc61b5fc50fe4ec2310d5879f89d08051c80e5b1d381fb6d5f659fc802483045022100b66b78bd7f320818d1874fb61786fb807c9a5ad6d15b891b6b9127410cbf431d022077317d7b7569cad23474539f2fe9764cbcc7e6c634049ab727a0e93194f1b8d2012103a27d9a78fde0b9d5c96a7448e076c422c38ef8511c9fb3ef0ba2c758fcffbf3f02483045022100856ee2f43c841ba3fc9c6683912c6b77c534b5aacdd237cc159d9a61191b82c902205f0d3148d2c19593f9a1d612026c6431b878a503e5c975f512663d94d3b1ce8a012103fb9779e873f8ef8c571a78fe4f8944c15a359ef6da4ae30906dc3b46d27e283f0247304402207a6cb8646a215803122c5f27495aae36dfd39b7f33991ce2bc7d7bf0b4936d6602202cdd0f1ba961b51dc117067e34250f708a57e2cf5c84dc2774f781aab1c626880121035aea8b32154638f86d8fc969dfd11ce66488ba85f46853bf05954aeea57d71d7024730440220176f9f20ac0ac21dc910315413f2d2e1e0e5d375248ce8ab15807c5b7927b10902201ac2d1f9d1f696c79c9d3b388af422db230ae7f2e3ba94ba8c758d18eac222b9012102b2e5bb5a598ebe750ba20cd21bddac6ab01ed27d0c1ef6de5fdbe2463a999154024830450221008ef5bf66bb3a2b8c5920e7be40ef961d78e59b781bfb66975e3cab82037209d502206f3c4e0e8eb6db92a2b4585f74605f9f8c1d72471ba51147ea24cf1fa6a3bcf101210344d409fb569555a7debf654723fef545742c7a98687905bab92a454a8a871b0c024730440220104b867f82054621ac99e3b5977ad21dff7264f645e749598e74a73e9a11f51502207f0127c0c292a844241b991fa1f24be8f1fa845225eb189c6bc908883a5af8320121025316fcf1a7c0936b2eb9750a7dd17dbc5344f772f2e2624060a877a6b06c73f700000000", "vin": [{"txinwitness": ["304402200f0c65231196f8e401976e05e015f79a05bc7447255950b7f31bf396dfa27c2a02201d6aca763c22356d608fd2f58cb62b719924b5ad9ae08c548d630dcc51413ba601", "02eef766caf16793581188fb3812ad1c48e626914b140e5c563dfb78927a9f7d85"], "sequence": 4294967295, "scriptSig": {"hex": "1600145310dd8576cdca0421dc5d87a9b04cea7b390894", "asm": "00145310dd8576cdca0421dc5d87a9b04cea7b390894"}, "vout": 5, "txid": "835a4445cea53641eac374a041f3a6aca397d8a5f3fc0244e10fe0276a4fb263"}, {"txinwitness": ["3045022100e21223458408d25e02f95590ebdbcb391cfa50b0b7f8b12250178de7ef13b96302203560b9efded05ab5dfb05e0e7e622aec06c74aecacc419ed7a43468004fb1fa601", "03596d0e0cfc61b5fc50fe4ec2310d5879f89d08051c80e5b1d381fb6d5f659fc8"], "sequence": 4294967295, "scriptSig": {"hex": "160014d46bb033903de332c68ab9640039b1787e171d47", "asm": "0014d46bb033903de332c68ab9640039b1787e171d47"}, "vout": 3, "txid": "23eaadd9c5bd5000361cb8f6a438e191cb7361b51bd8978453f7a8e839a4849c"}, {"txinwitness": ["3045022100b66b78bd7f320818d1874fb61786fb807c9a5ad6d15b891b6b9127410cbf431d022077317d7b7569cad23474539f2fe9764cbcc7e6c634049ab727a0e93194f1b8d201", "03a27d9a78fde0b9d5c96a7448e076c422c38ef8511c9fb3ef0ba2c758fcffbf3f"], "sequence": 4294967295, "scriptSig": {"hex": "1600140234e090b928a1c579482873ab57be28cc0e4d53", "asm": "00140234e090b928a1c579482873ab57be28cc0e4d53"}, "vout": 6, "txid": "d5bec22ace392b8a4d1dd6369f46eeb2dc454a2f3371494c14f2ccc65d8b9b5b"}, {"txinwitness": ["3045022100856ee2f43c841ba3fc9c6683912c6b77c534b5aacdd237cc159d9a61191b82c902205f0d3148d2c19593f9a1d612026c6431b878a503e5c975f512663d94d3b1ce8a01", "03fb9779e873f8ef8c571a78fe4f8944c15a359ef6da4ae30906dc3b46d27e283f"], "sequence": 4294967295, "scriptSig": {"hex": "160014491a1b6fc4a8ea4e2b0fafb541e76d9bded659a5", "asm": "0014491a1b6fc4a8ea4e2b0fafb541e76d9bded659a5"}, "vout": 0, "txid": "be539c183fe85b3e529c5effc3f09579f9be117e590ed50748351660eefcb561"}, {"txinwitness": ["304402207a6cb8646a215803122c5f27495aae36dfd39b7f33991ce2bc7d7bf0b4936d6602202cdd0f1ba961b51dc117067e34250f708a57e2cf5c84dc2774f781aab1c6268801", "035aea8b32154638f86d8fc969dfd11ce66488ba85f46853bf05954aeea57d71d7"], "sequence": 4294967295, "scriptSig": {"hex": "160014e53fb2ee6cfc443e4beafd2572deb7ccb92c2939", "asm": "0014e53fb2ee6cfc443e4beafd2572deb7ccb92c2939"}, "vout": 4, "txid": "bd74c31240b51a1d53846964f740e1a66df98ab971cb96bc1217fde63b645d2b"}, {"txinwitness": ["30440220176f9f20ac0ac21dc910315413f2d2e1e0e5d375248ce8ab15807c5b7927b10902201ac2d1f9d1f696c79c9d3b388af422db230ae7f2e3ba94ba8c758d18eac222b901", "02b2e5bb5a598ebe750ba20cd21bddac6ab01ed27d0c1ef6de5fdbe2463a999154"], "sequence": 4294967295, "scriptSig": {"hex": "160014ea924140673307ea10d3272074fd65fde03f44ae", "asm": "0014ea924140673307ea10d3272074fd65fde03f44ae"}, "vout": 1, "txid": "e56e2c02e59485d6d26ec184c35222d2241aa1e5fa0a7c150a132a66466d0c3d"}, {"txinwitness": ["30450221008ef5bf66bb3a2b8c5920e7be40ef961d78e59b781bfb66975e3cab82037209d502206f3c4e0e8eb6db92a2b4585f74605f9f8c1d72471ba51147ea24cf1fa6a3bcf101", "0344d409fb569555a7debf654723fef545742c7a98687905bab92a454a8a871b0c"], "sequence": 4294967295, "scriptSig": {"hex": "1600140a264cc54b08ea78c5fb091e7a1c142d5ac6ff76", "asm": "00140a264cc54b08ea78c5fb091e7a1c142d5ac6ff76"}, "vout": 6, "txid": "029ab4777ce04181486bef803c23dc2d2b162b2dc7b75298df56fe5dd721bebf"}, {"txinwitness": ["30440220104b867f82054621ac99e3b5977ad21dff7264f645e749598e74a73e9a11f51502207f0127c0c292a844241b991fa1f24be8f1fa845225eb189c6bc908883a5af83201", "025316fcf1a7c0936b2eb9750a7dd17dbc5344f772f2e2624060a877a6b06c73f7"], "sequence": 4294967295, "scriptSig": {"hex": "160014f797468af1f81b1098351e799fd185e5686ef0d3", "asm": "0014f797468af1f81b1098351e799fd185e5686ef0d3"}, "vout": 2, "txid": "27cb3313686a68f9a433136fb392b411c8652b36bbec8591f84c6bf0fe5a494c"}], "txid": "f08804230ae66fbefa545108a66f68b6ee1bfd85b9610eb598f196c8e186b394", "blocktime": 1537873891, "version": 1, "confirmations": 11478, "time": 1537873891, "locktime": 0, "vsize": 1188, "size": 1834}