{"hash": "f088c7a27ef0c894a8c4237e8f0187c4abed3dd22ce7a738920fbda66c0a825a", "blockhash": "00000000000000000017f5eb5941039fbcee6240d03bc1f2f8e35350df66a1d8", "vout": [{"scriptPubKey": {"reqSigs": 1, "hex": "76a914b9df3f79b505a62d5a1a5c30a60e43df9a09b3de88ac", "addresses": ["1HwoT2dpuiW2U4bJkfdzwJqfUYDtcSZrhv"], "asm": "OP_DUP OP_HASH160 b9df3f79b505a62d5a1a5c30a60e43df9a09b3de OP_EQUALVERIFY OP_CHECKSIG", "type": "pubkeyhash"}, "value": 0.09277849, "n": 0}, {"scriptPubKey": {"reqSigs": 1, "hex": "76a91413c9f2fb7086a03aee6e8ce4e341d36499f8d91088ac", "addresses": ["12odmKRb2RjSytzVcH1hSBgq5ZetVu7NSL"], "asm": "OP_DUP OP_HASH160 13c9f2fb7086a03aee6e8ce4e341d36499f8d910 OP_EQUALVERIFY OP_CHECKSIG", "type": "pubkeyhash"}, "value": 0.01108096, "n": 1}, {"scriptPubKey": {"reqSigs": 1, "hex": "76a914228aa70b0dc4485f7ca1ddfb96945bfc7e8f669e88ac", "addresses": ["149e5GXW8HEdZYXwyWJpaYf7UNK4EXJSH1"], "asm": "OP_DUP OP_HASH160 228aa70b0dc4485f7ca1ddfb96945bfc7e8f669e OP_EQUALVERIFY OP_CHECKSIG", "type": "pubkeyhash"}, "value": 0.21380451, "n": 2}, {"scriptPubKey": {"reqSigs": 1, "hex": "a914616d1f6d502ee4ab6e255d2f38e1ad7c7a31093f87", "addresses": ["3AaAC8i4JF5y3MwsdT9HqNKSQQEmHwTiWZ"], "asm": "OP_HASH160 616d1f6d502ee4ab6e255d2f38e1ad7c7a31093f OP_EQUAL", "type": "scripthash"}, "value": 0.23988632, "n": 3}, {"scriptPubKey": {"reqSigs": 1, "hex": "a9149c739f7102857749ac74082ebe0577a8b7667a3e87", "addresses": ["3FxFr5oHpZpqeBmR4zPWL29DTEasxBUsq7"], "asm": "OP_HASH160 9c739f7102857749ac74082ebe0577a8b7667a3e OP_EQUAL", "type": "scripthash"}, "value": 0.00770159, "n": 4}], "hex": "020000000912975b5fd93aea38082ac6d1fa869c4103f6ab633b9dd965f4887691ef0edb43000000006a47304402202903f85dc1e905ef7a05fae8c901075b965bf16cf8813e17a61b782446026c0b0220678d456969edb75b1d6ac119aecbfe99a41384aee26d7d085ceee3086c4e99920121030ab82ca7dde3b701e53f904ba193cc64333f7ba51e359c5918ba476573672e5cffffffff0ae63c3949f2a6349c4f55f4b07c63b7921a5bb7a476f319b4552d72b7035efb000000006a4730440220091b9d04c7374ebadb84fe5527c96bf2ad1c7ada86e80db8e038015ee5492ac702201a25a936e779008b12422801fbf7fa33ef4729eeb2b612d190f6c13e3a6b93e9012102d8b91ba8512eeb0a0326e20676f2601cb20674be411aff8344301d9f8bae9861ffffffffec7b69188a25eaf98eea58268f65a8dfa1914a8651a8d586fc29e410654aab96010000006b483045022100e418dd05efede38f6e9f3d536359ab8223405771ccbbb54ff8ef74a1eb5625ea022022d70d4886387ce1854ab966eec7e78191daec14f94cf1bd7b2020b044ff7a71012103ae245c07c387a703768fcd0c06ba7c10b4b611dd21061479d90c14114efcf32dffffffff2a13533b5a1c0a24bfbd9266f8cd17fdcb0f8549ae34caaf0598dcbb814ad8a1000000006a4730440220772652761bff76487f56425fa027d187b6107d7929eee34ba31a80585454d7d102206aef76a407faa0d15b071b18581cdda258c90bc2fe74620f94fba8a7dbc5a2150121029275502a1f439543f0b544e1585a99ce40179c1e9ab709878e3eebe1aa4fc5f3ffffffff65cc0fe4496a330d428017711a1e23951d5880bb83dace50d051e61ae6c7e1f1000000006a47304402206b805f214781c7533f8f59403078de5363369499ba2759d6d66a46a529a247aa02206d313f23403d150fdfed4de00c6fc9a63482858e74b9b032e5c6a98c6956449d012103b6736e9dddf5d36345061faa545db26788e996371c402be4c73755bd3794b430ffffffff10e13054571314f3e3c35c7bff27ae6ab018f72d3b5f505a04d0c94c91aacedf010000006a473044022078599f744ee41d88312366a9d54d54406f244024a2c8c3da88a3789b36902180022030d1defc5be56c76f5d3b6c01e763eebd3081eb53daf9fa2d96eae7a907c88700121035a3155f1bd02888661bfc594ec9f9c489859c9cf2831efdb029628300a3c1d63ffffffff68639a79addefbdc5f39387b5e3dd9aeceba80ea3ad36b64e67b7be3e8cbc085010000006a473044022051897431a2354eccdd2ee74ecc6a96c187b3b58395f2f6e279a6aa80d77075fb02205530feefc25def35a65bfb22572518dd7274af58d60c5cbecb5bb623d933a9ce0121038cf0172c107f82417aef8aaa5b1fe1d286b308e814ee04f793edb716a94b4022ffffffff29c1209df5a3c0f22de2a08e283505e08b69f3a1bd313e3067cff0226b931cff010000006a47304402205414161e41fa4417def5ae188a30a06a38ac61cafabab5269058c50694ad3f4602201ec813279e723b297e731d7d836c5e86a2b1eae92343fea68c4ee9e4b1688cf0012102616e3951d004dba637dcc502225d764bfe2ed5f63fbd51f4369bfd13bcfcdddaffffffffb176f38b41f6e9c55868228955654a0b3366e80c24690d3eb5ff66301c09ce8b000000006b4830450221009ffd9ecd29669f9ab9d5060b4ffd224f2bc5f3d09db97031f7b68f904acaceca022041c4b679ea115258aefebc3f313b427968e411c43443256290eee9d55684fb4a012102521222c2881dc95906ba5390a3761a8d8feaa6f9664ddc9ab3c2e73115d097aeffffffff0599918d00000000001976a914b9df3f79b505a62d5a1a5c30a60e43df9a09b3de88ac80e81000000000001976a91413c9f2fb7086a03aee6e8ce4e341d36499f8d91088ac633d4601000000001976a914228aa70b0dc4485f7ca1ddfb96945bfc7e8f669e88ac98096e010000000017a914616d1f6d502ee4ab6e255d2f38e1ad7c7a31093f876fc00b000000000017a9149c739f7102857749ac74082ebe0577a8b7667a3e8700000000", "vin": [{"sequence": 4294967295, "scriptSig": {"hex": "47304402202903f85dc1e905ef7a05fae8c901075b965bf16cf8813e17a61b782446026c0b0220678d456969edb75b1d6ac119aecbfe99a41384aee26d7d085ceee3086c4e99920121030ab82ca7dde3b701e53f904ba193cc64333f7ba51e359c5918ba476573672e5c", "asm": "304402202903f85dc1e905ef7a05fae8c901075b965bf16cf8813e17a61b782446026c0b0220678d456969edb75b1d6ac119aecbfe99a41384aee26d7d085ceee3086c4e9992[ALL] 030ab82ca7dde3b701e53f904ba193cc64333f7ba51e359c5918ba476573672e5c"}, "vout": 0, "txid": "43db0eef917688f465d99d3b63abf603419c86fad1c62a0838ea3ad95f5b9712"}, {"sequence": 4294967295, "scriptSig": {"hex": "4730440220091b9d04c7374ebadb84fe5527c96bf2ad1c7ada86e80db8e038015ee5492ac702201a25a936e779008b12422801fbf7fa33ef4729eeb2b612d190f6c13e3a6b93e9012102d8b91ba8512eeb0a0326e20676f2601cb20674be411aff8344301d9f8bae9861", "asm": "30440220091b9d04c7374ebadb84fe5527c96bf2ad1c7ada86e80db8e038015ee5492ac702201a25a936e779008b12422801fbf7fa33ef4729eeb2b612d190f6c13e3a6b93e9[ALL] 02d8b91ba8512eeb0a0326e20676f2601cb20674be411aff8344301d9f8bae9861"}, "vout": 0, "txid": "fb5e03b7722d55b419f376a4b75b1a92b7637cb0f4554f9c34a6f249393ce60a"}, {"sequence": 4294967295, "scriptSig": {"hex": "483045022100e418dd05efede38f6e9f3d536359ab8223405771ccbbb54ff8ef74a1eb5625ea022022d70d4886387ce1854ab966eec7e78191daec14f94cf1bd7b2020b044ff7a71012103ae245c07c387a703768fcd0c06ba7c10b4b611dd21061479d90c14114efcf32d", "asm": "3045022100e418dd05efede38f6e9f3d536359ab8223405771ccbbb54ff8ef74a1eb5625ea022022d70d4886387ce1854ab966eec7e78191daec14f94cf1bd7b2020b044ff7a71[ALL] 03ae245c07c387a703768fcd0c06ba7c10b4b611dd21061479d90c14114efcf32d"}, "vout": 1, "txid": "96ab4a6510e429fc86d5a851864a91a1dfa8658f2658ea8ef9ea258a18697bec"}, {"sequence": 4294967295, "scriptSig": {"hex": "4730440220772652761bff76487f56425fa027d187b6107d7929eee34ba31a80585454d7d102206aef76a407faa0d15b071b18581cdda258c90bc2fe74620f94fba8a7dbc5a2150121029275502a1f439543f0b544e1585a99ce40179c1e9ab709878e3eebe1aa4fc5f3", "asm": "30440220772652761bff76487f56425fa027d187b6107d7929eee34ba31a80585454d7d102206aef76a407faa0d15b071b18581cdda258c90bc2fe74620f94fba8a7dbc5a215[ALL] 029275502a1f439543f0b544e1585a99ce40179c1e9ab709878e3eebe1aa4fc5f3"}, "vout": 0, "txid": "a1d84a81bbdc9805afca34ae49850fcbfd17cdf86692bdbf240a1c5a3b53132a"}, {"sequence": 4294967295, "scriptSig": {"hex": "47304402206b805f214781c7533f8f59403078de5363369499ba2759d6d66a46a529a247aa02206d313f23403d150fdfed4de00c6fc9a63482858e74b9b032e5c6a98c6956449d012103b6736e9dddf5d36345061faa545db26788e996371c402be4c73755bd3794b430", "asm": "304402206b805f214781c7533f8f59403078de5363369499ba2759d6d66a46a529a247aa02206d313f23403d150fdfed4de00c6fc9a63482858e74b9b032e5c6a98c6956449d[ALL] 03b6736e9dddf5d36345061faa545db26788e996371c402be4c73755bd3794b430"}, "vout": 0, "txid": "f1e1c7e61ae651d050ceda83bb80581d95231e1a711780420d336a49e40fcc65"}, {"sequence": 4294967295, "scriptSig": {"hex": "473044022078599f744ee41d88312366a9d54d54406f244024a2c8c3da88a3789b36902180022030d1defc5be56c76f5d3b6c01e763eebd3081eb53daf9fa2d96eae7a907c88700121035a3155f1bd02888661bfc594ec9f9c489859c9cf2831efdb029628300a3c1d63", "asm": "3044022078599f744ee41d88312366a9d54d54406f244024a2c8c3da88a3789b36902180022030d1defc5be56c76f5d3b6c01e763eebd3081eb53daf9fa2d96eae7a907c8870[ALL] 035a3155f1bd02888661bfc594ec9f9c489859c9cf2831efdb029628300a3c1d63"}, "vout": 1, "txid": "dfceaa914cc9d0045a505f3b2df718b06aae27ff7b5cc3e3f31413575430e110"}, {"sequence": 4294967295, "scriptSig": {"hex": "473044022051897431a2354eccdd2ee74ecc6a96c187b3b58395f2f6e279a6aa80d77075fb02205530feefc25def35a65bfb22572518dd7274af58d60c5cbecb5bb623d933a9ce0121038cf0172c107f82417aef8aaa5b1fe1d286b308e814ee04f793edb716a94b4022", "asm": "3044022051897431a2354eccdd2ee74ecc6a96c187b3b58395f2f6e279a6aa80d77075fb02205530feefc25def35a65bfb22572518dd7274af58d60c5cbecb5bb623d933a9ce[ALL] 038cf0172c107f82417aef8aaa5b1fe1d286b308e814ee04f793edb716a94b4022"}, "vout": 1, "txid": "85c0cbe8e37b7be6646bd33aea80baceaed93d5e7b38395fdcfbdead799a6368"}, {"sequence": 4294967295, "scriptSig": {"hex": "47304402205414161e41fa4417def5ae188a30a06a38ac61cafabab5269058c50694ad3f4602201ec813279e723b297e731d7d836c5e86a2b1eae92343fea68c4ee9e4b1688cf0012102616e3951d004dba637dcc502225d764bfe2ed5f63fbd51f4369bfd13bcfcddda", "asm": "304402205414161e41fa4417def5ae188a30a06a38ac61cafabab5269058c50694ad3f4602201ec813279e723b297e731d7d836c5e86a2b1eae92343fea68c4ee9e4b1688cf0[ALL] 02616e3951d004dba637dcc502225d764bfe2ed5f63fbd51f4369bfd13bcfcddda"}, "vout": 1, "txid": "ff1c936b22f0cf67303e31bda1f3698be00535288ea0e22df2c0a3f59d20c129"}, {"sequence": 4294967295, "scriptSig": {"hex": "4830450221009ffd9ecd29669f9ab9d5060b4ffd224f2bc5f3d09db97031f7b68f904acaceca022041c4b679ea115258aefebc3f313b427968e411c43443256290eee9d55684fb4a012102521222c2881dc95906ba5390a3761a8d8feaa6f9664ddc9ab3c2e73115d097ae", "asm": "30450221009ffd9ecd29669f9ab9d5060b4ffd224f2bc5f3d09db97031f7b68f904acaceca022041c4b679ea115258aefebc3f313b427968e411c43443256290eee9d55684fb4a[ALL] 02521222c2881dc95906ba5390a3761a8d8feaa6f9664ddc9ab3c2e73115d097ae"}, "vout": 0, "txid": "8bce091c3066ffb53e0d69240ce866330b4a655589226858c5e9f6418bf376b1"}], "txid": "f088c7a27ef0c894a8c4237e8f0187c4abed3dd22ce7a738920fbda66c0a825a", "blocktime": 1537874412, "version": 2, "confirmations": 11467, "time": 1537874412, "locktime": 0, "vsize": 1501, "size": 1501}