{"hash": "f0893e27725a9952c53cbcf3449bc87482e98b28e8d652bc893caa553a1fb261", "blockhash": "0000000000000000000baef3f32e3676a92c3b2e5da21b426e4f302fc371ce76", "vout": [{"scriptPubKey": {"reqSigs": 1, "hex": "76a91432c139ea296e89158e6865cb9703130769e62a8a88ac", "addresses": ["15dNGBkLn67HHMSNQW2XsagiPzsLBRXvt9"], "asm": "OP_DUP OP_HASH160 32c139ea296e89158e6865cb9703130769e62a8a OP_EQUALVERIFY OP_CHECKSIG", "type": "pubkeyhash"}, "value": 0.00099924, "n": 0}, {"scriptPubKey": {"type": "nulldata", "hex": "6a4c50000078030001a99ec61c5201a28268bddf0c702940d64fa54d8eb2d19ed074892d00f8e815cbf327745e21a685d95b10283cbb475baa1a510613761282ee025fbc9a9526289ac0f6612cd74e33776ee4", "asm": "OP_RETURN 000078030001a99ec61c5201a28268bddf0c702940d64fa54d8eb2d19ed074892d00f8e815cbf327745e21a685d95b10283cbb475baa1a510613761282ee025fbc9a9526289ac0f6612cd74e33776ee4"}, "value": 0.0, "n": 1}], "hex": "0100000001198845688345c8a9c6110390c1c4e4c9de28be2c86f5ad135c123dde0631a5e5010000006b483045022100dc9a41895b5d2f397d3415958c69b7115a4c2b9c5c69ffe75b99e81550f8fa7e022004e7d87df9abb0291609ddb32f15331be32511b62eebd198dd7dbb3f74fd91c4012102463a634e9444ec3c79932820da3a621f95940d2126711a6612c2608ae81a2fb5ffffffff0254860100000000001976a91432c139ea296e89158e6865cb9703130769e62a8a88ac0000000000000000536a4c50000078030001a99ec61c5201a28268bddf0c702940d64fa54d8eb2d19ed074892d00f8e815cbf327745e21a685d95b10283cbb475baa1a510613761282ee025fbc9a9526289ac0f6612cd74e33776ee400000000", "vin": [{"sequence": 4294967295, "scriptSig": {"hex": "483045022100dc9a41895b5d2f397d3415958c69b7115a4c2b9c5c69ffe75b99e81550f8fa7e022004e7d87df9abb0291609ddb32f15331be32511b62eebd198dd7dbb3f74fd91c4012102463a634e9444ec3c79932820da3a621f95940d2126711a6612c2608ae81a2fb5", "asm": "3045022100dc9a41895b5d2f397d3415958c69b7115a4c2b9c5c69ffe75b99e81550f8fa7e022004e7d87df9abb0291609ddb32f15331be32511b62eebd198dd7dbb3f74fd91c4[ALL] 02463a634e9444ec3c79932820da3a621f95940d2126711a6612c2608ae81a2fb5"}, "vout": 1, "txid": "e5a53106de3d125c13adf5862cbe28dec9e4c4c1900311c6a9c8458368458819"}], "txid": "f0893e27725a9952c53cbcf3449bc87482e98b28e8d652bc893caa553a1fb261", "blocktime": 1537876114, "version": 1, "confirmations": 11460, "time": 1537876114, "locktime": 0, "vsize": 284, "size": 284}