{"hash": "7a86e8409393dca34df1fc119533c6ab81972c59a9358738d3616138170f4d9c", "blockhash": "0000000000000000000dcc0f55137456b1a82d3642486a52398922ac4d620174", "vout": [{"scriptPubKey": {"reqSigs": 1, "hex": "002058c8797f181e000075cb9a18a9662013b795012e86acc04d56a2d229e7b8d7c4", "addresses": ["bc1qtry8jlccrcqqqawtngv2je3qzwme2qfws6kvqn2k5tfzneac6lzqpgummp"], "asm": "0 58c8797f181e000075cb9a18a9662013b795012e86acc04d56a2d229e7b8d7c4", "type": "witness_v0_scripthash"}, "value": 0.00522476, "n": 0}], "hex": "0100000000010110bb57b6b1dccd62dd812c174cb231adc8b41e92406afb758fd1fe70b012ed9101000000171600147687a2591c1247b8a3af11c3f3e6220eda074cbeffffffff01ecf807000000000022002058c8797f181e000075cb9a18a9662013b795012e86acc04d56a2d229e7b8d7c402483045022100918183de0f6c6e29652e87c50225f87e481749203b0c8b2bcf7d9d2a497d333d0220515160e8431a0244788d7f34d7476b61903ed91426e9241b76eb27144bb96dcb012102f675c1e6747cc9fb8a72ab0c9c254083330af2df24a9b683b44d49e66d513ff900000000", "vin": [{"txinwitness": ["3045022100918183de0f6c6e29652e87c50225f87e481749203b0c8b2bcf7d9d2a497d333d0220515160e8431a0244788d7f34d7476b61903ed91426e9241b76eb27144bb96dcb01", "02f675c1e6747cc9fb8a72ab0c9c254083330af2df24a9b683b44d49e66d513ff9"], "sequence": 4294967295, "scriptSig": {"hex": "1600147687a2591c1247b8a3af11c3f3e6220eda074cbe", "asm": "00147687a2591c1247b8a3af11c3f3e6220eda074cbe"}, "vout": 1, "txid": "91ed12b070fed18f75fb6a40921eb4c8ad31b24c172c81dd62cddcb1b657bb10"}], "txid": "f090e01895c25f00bd0cdd73a4b893e697fdc97e9a18c8fb8be5b7d930acf135", "blocktime": 1537870268, "version": 1, "confirmations": 11518, "time": 1537870268, "locktime": 0, "vsize": 145, "size": 227}