{"hash": "fa37660bb14f6ab6baf4df3851c8261c634e03734aff23f1bd0eccdccf08d09d", "blockhash": "0000000000000000000e13cef7c366c0283d82e591d1acd082e914b08063cdf1", "vout": [{"scriptPubKey": {"reqSigs": 1, "hex": "a9149455e329f5280429cc0dcb62cf35a842b237a2b687", "addresses": ["3FDLpVYd8JYRMXfLbqK7q8z1qNfRLZVR9m"], "asm": "OP_HASH160 9455e329f5280429cc0dcb62cf35a842b237a2b6 OP_EQUAL", "type": "scripthash"}, "value": 0.00013722, "n": 0}, {"scriptPubKey": {"reqSigs": 1, "hex": "a914414cec0fc72a9410f6836edaf08de1aa3b2a321c87", "addresses": ["37eHzewnAFRR2SVZu8rZM3nBsmuE2XBU7D"], "asm": "OP_HASH160 414cec0fc72a9410f6836edaf08de1aa3b2a321c OP_EQUAL", "type": "scripthash"}, "value": 0.26447124, "n": 1}], "hex": "01000000000101bca9975a1916f4997573cb8439dd30f0184eb44dec7f781ef2dc1c1628a847560100000023220020ce74cde37cfb8dd71d0179287e12fc721ee236ce3c89c2745bcd365b39807eb3ffffffff029a3500000000000017a9149455e329f5280429cc0dcb62cf35a842b237a2b687148d93010000000017a914414cec0fc72a9410f6836edaf08de1aa3b2a321c87040047304402201e5811323d83dd6cb7a47eb97082c1c7caaa11dba99b000226d41af56bceac670220269f6e0c77df6530b75b2f8b746ca803849053ec9386a6d51cd0f08062cc81c0014830450221009ab8f5c5b9817c580130553ee89ae53e81267ed71d2b9226a96789f74d8636e102203c69e81b973b4dcc20ce56097989b3543790ef9a881f3843badf0bb0e31f5d180147522103ada901d90d5a76319a60f228e0b1bbc84b1d9a87238550bae5d5d190067b66712103871fc2ca08e6950b38867e8e6a0e94ee625223d3aa0df5c65f414c6d784467e252ae00000000", "vin": [{"txinwitness": ["", "304402201e5811323d83dd6cb7a47eb97082c1c7caaa11dba99b000226d41af56bceac670220269f6e0c77df6530b75b2f8b746ca803849053ec9386a6d51cd0f08062cc81c001", "30450221009ab8f5c5b9817c580130553ee89ae53e81267ed71d2b9226a96789f74d8636e102203c69e81b973b4dcc20ce56097989b3543790ef9a881f3843badf0bb0e31f5d1801", "522103ada901d90d5a76319a60f228e0b1bbc84b1d9a87238550bae5d5d190067b66712103871fc2ca08e6950b38867e8e6a0e94ee625223d3aa0df5c65f414c6d784467e252ae"], "sequence": 4294967295, "scriptSig": {"hex": "220020ce74cde37cfb8dd71d0179287e12fc721ee236ce3c89c2745bcd365b39807eb3", "asm": "0020ce74cde37cfb8dd71d0179287e12fc721ee236ce3c89c2745bcd365b39807eb3"}, "vout": 1, "txid": "5647a828161cdcf21e787fec4db44e18f030dd3984cb737599f416195a97a9bc"}], "txid": "f09928be2d594e9dc04ce80256626ec9979da6b52e2b383efc78605b505557ac", "blocktime": 1537871767, "version": 1, "confirmations": 11495, "time": 1537871767, "locktime": 0, "vsize": 206, "size": 371}