{"hash": "f09923a7d5dd3081b1e902cf7a929e235b31c79c692a37358799a48f2f7bcb2d", "blockhash": "00000000000000000017f5eb5941039fbcee6240d03bc1f2f8e35350df66a1d8", "vout": [{"scriptPubKey": {"reqSigs": 1, "hex": "76a9141bab8fa6184b6157d09df958c39f0808c260a59e88ac", "addresses": ["13XJmTRaYhWD7hJauyMBWSUZeiRGAYEnPt"], "asm": "OP_DUP OP_HASH160 1bab8fa6184b6157d09df958c39f0808c260a59e OP_EQUALVERIFY OP_CHECKSIG", "type": "pubkeyhash"}, "value": 0.00039322, "n": 0}, {"scriptPubKey": {"reqSigs": 1, "hex": "76a914caae0299f1ceac6d5381cea2eda1601318c8631b88ac", "addresses": ["1KUfxBtWaiQJmHhJmjx6zhXYLokiDMEcou"], "asm": "OP_DUP OP_HASH160 caae0299f1ceac6d5381cea2eda1601318c8631b OP_EQUALVERIFY OP_CHECKSIG", "type": "pubkeyhash"}, "value": 0.002, "n": 1}], "hex": "01000000012dfc86d88a4151d592429d1a0a8c160d0842a2b6fb376a596e224e23b26e9e12000000006b483045022100f2d186cee4a2d3114cde22e23fbaf03a90b123f2fd6fddbba2a51b7224c9d5aa0220577fbffd5ab31edd8515759dfdcb2955d99101079ebdcbee1f9a2c36e4e190a00121035ea86d28977afd80c976ff4220588cf5d0303af42c690fc8c0081d88a74a3cfdffffffff029a990000000000001976a9141bab8fa6184b6157d09df958c39f0808c260a59e88ac400d0300000000001976a914caae0299f1ceac6d5381cea2eda1601318c8631b88ac00000000", "vin": [{"sequence": 4294967295, "scriptSig": {"hex": "483045022100f2d186cee4a2d3114cde22e23fbaf03a90b123f2fd6fddbba2a51b7224c9d5aa0220577fbffd5ab31edd8515759dfdcb2955d99101079ebdcbee1f9a2c36e4e190a00121035ea86d28977afd80c976ff4220588cf5d0303af42c690fc8c0081d88a74a3cfd", "asm": "3045022100f2d186cee4a2d3114cde22e23fbaf03a90b123f2fd6fddbba2a51b7224c9d5aa0220577fbffd5ab31edd8515759dfdcb2955d99101079ebdcbee1f9a2c36e4e190a0[ALL] 035ea86d28977afd80c976ff4220588cf5d0303af42c690fc8c0081d88a74a3cfd"}, "vout": 0, "txid": "129e6eb2234e226e596a37fbb6a242080d168c0a1a9d4292d551418ad886fc2d"}], "txid": "f09923a7d5dd3081b1e902cf7a929e235b31c79c692a37358799a48f2f7bcb2d", "blocktime": 1537874412, "version": 1, "confirmations": 11468, "time": 1537874412, "locktime": 0, "vsize": 226, "size": 226}