{"hash": "fc9d699067ad23e92319aab764a60f27af3fa23c37d5d30f7cf57dcb599baa60", "blockhash": "0000000000000000000e13cef7c366c0283d82e591d1acd082e914b08063cdf1", "vout": [{"scriptPubKey": {"reqSigs": 1, "hex": "76a9145d2b5992aaa41ab3c7f8a88c67559d6a0c438d0f88ac", "addresses": ["19Vdmqw9YPhfGcZEGdB5kyMphxB3LJ1CYe"], "asm": "OP_DUP OP_HASH160 5d2b5992aaa41ab3c7f8a88c67559d6a0c438d0f OP_EQUALVERIFY OP_CHECKSIG", "type": "pubkeyhash"}, "value": 0.00148451, "n": 0}, {"scriptPubKey": {"reqSigs": 1, "hex": "a9143bf1d5456a02bd257e86d2fdba60895885c1e68487", "addresses": ["379yVigU3jUoEMaMQbGseEefjxYkRV3YTi"], "asm": "OP_HASH160 3bf1d5456a02bd257e86d2fdba60895885c1e684 OP_EQUAL", "type": "scripthash"}, "value": 0.06325696, "n": 1}], "hex": "01000000000101ee518b95149318829c7e206e2809a07051696bd102e0273f3ed71e3100d1cb76010000002322002028fd434738bf9badaa0519897c7aa382a0258abc2949f1ff72e9a8aaa6f758f9ffffffff02e3430200000000001976a9145d2b5992aaa41ab3c7f8a88c67559d6a0c438d0f88acc08560000000000017a9143bf1d5456a02bd257e86d2fdba60895885c1e684870400483045022100d6451ef38fe4c12e0012951acf1358c42bd9c9c5171806d4758d598df717772c02206038fc9564f7dbdba97c9f6cd2c8721f06a9404a4bd6abe66f5006546c07ad4b01483045022100822d6a99cebc82e8ccb4c6cab066bd30ff64c5746bbfbe60c307d05d1aa4077d02201dc8cde63f263b35c49757f38d876fb6323e99fd078c5f3c70b37deabf0182600147522102897f4c688000d442700c3b4a3c54ad40748ea29de09211845b4b0b59bf4ff37d2103529e03d311ceea8716d4fb053336bdedea772622274ae66d6e7248e87518f89952ae00000000", "vin": [{"txinwitness": ["", "3045022100d6451ef38fe4c12e0012951acf1358c42bd9c9c5171806d4758d598df717772c02206038fc9564f7dbdba97c9f6cd2c8721f06a9404a4bd6abe66f5006546c07ad4b01", "3045022100822d6a99cebc82e8ccb4c6cab066bd30ff64c5746bbfbe60c307d05d1aa4077d02201dc8cde63f263b35c49757f38d876fb6323e99fd078c5f3c70b37deabf01826001", "522102897f4c688000d442700c3b4a3c54ad40748ea29de09211845b4b0b59bf4ff37d2103529e03d311ceea8716d4fb053336bdedea772622274ae66d6e7248e87518f89952ae"], "sequence": 4294967295, "scriptSig": {"hex": "22002028fd434738bf9badaa0519897c7aa382a0258abc2949f1ff72e9a8aaa6f758f9", "asm": "002028fd434738bf9badaa0519897c7aa382a0258abc2949f1ff72e9a8aaa6f758f9"}, "vout": 1, "txid": "76cbd100311ed73e3f27e002d16b695170a009286e207e9c82189314958b51ee"}], "txid": "f0a12a02ad006499e14e4384902622621e39ff21b13546559b67fb60598f1d5b", "blocktime": 1537871767, "version": 1, "confirmations": 11495, "time": 1537871767, "locktime": 0, "vsize": 208, "size": 374}