{"hash": "f4f43d784f8bc0a7194c5d556edec24041c9fa711a9a5986baf4ca0412bb8349", "blockhash": "0000000000000000001f76057863aec43deb6fa401d9628bb513d65a8098bfab", "vout": [{"scriptPubKey": {"reqSigs": 1, "hex": "76a9149a1b8f9b1fa2d2297863adb1cb11c71df455684888ac", "addresses": ["1F3r5We2zwNiSzG6GQUTTWnnPMCz2HJbJu"], "asm": "OP_DUP OP_HASH160 9a1b8f9b1fa2d2297863adb1cb11c71df4556848 OP_EQUALVERIFY OP_CHECKSIG", "type": "pubkeyhash"}, "value": 2.69e-05, "n": 0}, {"scriptPubKey": {"reqSigs": 1, "hex": "a914c9f699e314ba7f0d0f38863b8dd9f88a8ccf5e6b87", "addresses": ["3L6uAFLNGUyAyZt5svPDRUaMwX9sb9vSmm"], "asm": "OP_HASH160 c9f699e314ba7f0d0f38863b8dd9f88a8ccf5e6b OP_EQUAL", "type": "scripthash"}, "value": 0.00035968, "n": 1}], "hex": "01000000000101ff96409df06739209b43eb258e841b1919a87d5dd9365fa56049a06aa2016cbd010000002322002060ed3ea6d5bc1c973749df2e70745e72681e9108ad66c36f379acf8b774b6464ffffffff02820a0000000000001976a9149a1b8f9b1fa2d2297863adb1cb11c71df455684888ac808c00000000000017a914c9f699e314ba7f0d0f38863b8dd9f88a8ccf5e6b870400483045022100a477e3a42e35b7cb6c8fb46301144bb707f4622916dbe3ea9934030e0891a0df02205fefcfa170d97270de8823542c60d4709c7c5049f69a716d1278be212c8aeb6201483045022100a59b8756bbc00d72f438bde3b829d6e773061fc1308cd4a318c8bf85326fe05d022042fd6c72b49866d9ceadd7acae07c4e0f2d6adad2b8ae57fb59d5870aba12a970147522102815cfda15cb11edd3720f8e00ce10cd71bce3ef096ffb70b7d8798c53cace0462103148c80a5bdfddb05ff5bcffc397c8ca748d8b435ec6a175bc9d7bfc7fc6f853752ae00000000", "vin": [{"txinwitness": ["", "3045022100a477e3a42e35b7cb6c8fb46301144bb707f4622916dbe3ea9934030e0891a0df02205fefcfa170d97270de8823542c60d4709c7c5049f69a716d1278be212c8aeb6201", "3045022100a59b8756bbc00d72f438bde3b829d6e773061fc1308cd4a318c8bf85326fe05d022042fd6c72b49866d9ceadd7acae07c4e0f2d6adad2b8ae57fb59d5870aba12a9701", "522102815cfda15cb11edd3720f8e00ce10cd71bce3ef096ffb70b7d8798c53cace0462103148c80a5bdfddb05ff5bcffc397c8ca748d8b435ec6a175bc9d7bfc7fc6f853752ae"], "sequence": 4294967295, "scriptSig": {"hex": "22002060ed3ea6d5bc1c973749df2e70745e72681e9108ad66c36f379acf8b774b6464", "asm": "002060ed3ea6d5bc1c973749df2e70745e72681e9108ad66c36f379acf8b774b6464"}, "vout": 1, "txid": "bd6c01a26aa04960a55f36d95d7da819191b848e25eb439b203967f09d4096ff"}], "txid": "f0a6a9f8221802fee5669d02d13c9407fbcb9a2105f1f64b87778c22235a220b", "blocktime": 1537873891, "version": 1, "confirmations": 11478, "time": 1537873891, "locktime": 0, "vsize": 208, "size": 374}