{"hash": "f0a6768482603903442ffca713c5beb2a1d675963f58c4e5bba10d1cdbd98046", "blockhash": "000000000000000000022b45ed06c6f4ccd3cf7fb5ba4856ebd2e58215665228", "vout": [{"scriptPubKey": {"reqSigs": 1, "hex": "76a9141d417c7f5ff432e10ee85580fc9fcaaa21cf72c588ac", "addresses": ["13fh3dfwbhcS7pWySRegSGAuNik8ogjmAU"], "asm": "OP_DUP OP_HASH160 1d417c7f5ff432e10ee85580fc9fcaaa21cf72c5 OP_EQUALVERIFY OP_CHECKSIG", "type": "pubkeyhash"}, "value": 0.00448285, "n": 0}, {"scriptPubKey": {"reqSigs": 1, "hex": "a914a120583b74f7547ed3faea98814d649e1f40c58387", "addresses": ["3GNyTmt8FYY3Zwu2Mkp5eBq6LnHH34SZis"], "asm": "OP_HASH160 a120583b74f7547ed3faea98814d649e1f40c583 OP_EQUAL", "type": "scripthash"}, "value": 5.46e-06, "n": 1}, {"scriptPubKey": {"type": "nulldata", "hex": "6a146f6d6e69000000000000001f0000000f401aaf00", "asm": "OP_RETURN 6f6d6e69000000000000001f0000000f401aaf00"}, "value": 0.0, "n": 2}], "hex": "010000000164f6707650a7a8e6b0588350b0b3b9581451bea554fe898546ee4300e77ca417000000008a473044022005d9a06113e4c01f409b5fc9662bd97382a54418024eed7ce294d48ebe23615402201046cd03b9a3d4a20235c58aa00bab4530624863bbcfc036c9cf0cbc689f4a130141046c3ac85ee00c9263ea362567c537d06b17e3dbbf0fa28dd7844621ec4dbf52725a9d3f0d652d9342af55785da2a5a2d59c42940093958642c4fbaadb13593614ffffffff031dd70600000000001976a9141d417c7f5ff432e10ee85580fc9fcaaa21cf72c588ac220200000000000017a914a120583b74f7547ed3faea98814d649e1f40c583870000000000000000166a146f6d6e69000000000000001f0000000f401aaf0000000000", "vin": [{"sequence": 4294967295, "scriptSig": {"hex": "473044022005d9a06113e4c01f409b5fc9662bd97382a54418024eed7ce294d48ebe23615402201046cd03b9a3d4a20235c58aa00bab4530624863bbcfc036c9cf0cbc689f4a130141046c3ac85ee00c9263ea362567c537d06b17e3dbbf0fa28dd7844621ec4dbf52725a9d3f0d652d9342af55785da2a5a2d59c42940093958642c4fbaadb13593614", "asm": "3044022005d9a06113e4c01f409b5fc9662bd97382a54418024eed7ce294d48ebe23615402201046cd03b9a3d4a20235c58aa00bab4530624863bbcfc036c9cf0cbc689f4a13[ALL] 046c3ac85ee00c9263ea362567c537d06b17e3dbbf0fa28dd7844621ec4dbf52725a9d3f0d652d9342af55785da2a5a2d59c42940093958642c4fbaadb13593614"}, "vout": 0, "txid": "17a47ce70043ee468589fe54a5be511458b9b3b0508358b0e6a8a7507670f664"}], "txid": "f0a6768482603903442ffca713c5beb2a1d675963f58c4e5bba10d1cdbd98046", "blocktime": 1537869901, "version": 1, "confirmations": 11522, "time": 1537869901, "locktime": 0, "vsize": 286, "size": 286}