{"hash": "f0b82d98da4051a64c81ea2b92e73b568e57c8b07c65c8b0a2fea39f99f58011", "blockhash": "0000000000000000001cda96e906b7601b7a6fb1a3b62bca570a9e5d8f4b3de1", "vout": [{"scriptPubKey": {"reqSigs": 1, "hex": "76a9146ed55dceb7a9ca02ffa86bb62f498eeba5c33e9888ac", "addresses": ["1B72w4YpnDtBf3HeoeqsRyiB4SpAUDVq6r"], "asm": "OP_DUP OP_HASH160 6ed55dceb7a9ca02ffa86bb62f498eeba5c33e98 OP_EQUALVERIFY OP_CHECKSIG", "type": "pubkeyhash"}, "value": 0.001566, "n": 0}, {"scriptPubKey": {"reqSigs": 1, "hex": "76a914cfee47640ddebc715709fee275832959abeb36e988ac", "addresses": ["1KxSKcg4iRbbe3QXywbUP7CkZ81yhh9EeM"], "asm": "OP_DUP OP_HASH160 cfee47640ddebc715709fee275832959abeb36e9 OP_EQUALVERIFY OP_CHECKSIG", "type": "pubkeyhash"}, "value": 0.00427378, "n": 1}], "hex": "01000000017e78aa76b0cade5ef8d70cb18528d84d1b17569046d74cb3b9bcd411bb9229ac010000006a473044022007c19a2ef6f72d4aac0b65008af4b388ebf909fc7371275027662ed04c34081302206b011ace95e005e547737323003fe8453a0a9e52e83c89f450e507579885659a012102e63e13585103618d9f911fec9e021fa80e67227cde092198438bd34a99bde3b9ffffffff02b8630200000000001976a9146ed55dceb7a9ca02ffa86bb62f498eeba5c33e9888ac72850600000000001976a914cfee47640ddebc715709fee275832959abeb36e988ac00000000", "vin": [{"sequence": 4294967295, "scriptSig": {"hex": "473044022007c19a2ef6f72d4aac0b65008af4b388ebf909fc7371275027662ed04c34081302206b011ace95e005e547737323003fe8453a0a9e52e83c89f450e507579885659a012102e63e13585103618d9f911fec9e021fa80e67227cde092198438bd34a99bde3b9", "asm": "3044022007c19a2ef6f72d4aac0b65008af4b388ebf909fc7371275027662ed04c34081302206b011ace95e005e547737323003fe8453a0a9e52e83c89f450e507579885659a[ALL] 02e63e13585103618d9f911fec9e021fa80e67227cde092198438bd34a99bde3b9"}, "vout": 1, "txid": "ac2992bb11d4bcb9b34cd7469056171b4dd82885b10cd7f85edecab076aa787e"}], "txid": "f0b82d98da4051a64c81ea2b92e73b568e57c8b07c65c8b0a2fea39f99f58011", "blocktime": 1537873282, "version": 1, "confirmations": 11482, "time": 1537873282, "locktime": 0, "vsize": 225, "size": 225}