{"hash": "f0bb05e8fb082b23a721d2ec7ab8345c89806ef44d7041f1798f6087e46e2865", "blockhash": "0000000000000000000baef3f32e3676a92c3b2e5da21b426e4f302fc371ce76", "vout": [{"scriptPubKey": {"reqSigs": 1, "hex": "76a914881523b2c1ac9f2267673ece7280eb8094387cfb88ac", "addresses": ["1DQYDtEpo1cKQrXP3KgXvdAV4YwrkfXSJG"], "asm": "OP_DUP OP_HASH160 881523b2c1ac9f2267673ece7280eb8094387cfb OP_EQUALVERIFY OP_CHECKSIG", "type": "pubkeyhash"}, "value": 0.0062838, "n": 0}, {"scriptPubKey": {"type": "nulldata", "hex": "6a4c500000783200016bdc16db5ed6bde5cde210b227b7256b4774d339f6019d6ddc0f1b8ff117119dabc52cdcdc58877e3ad9ccbc02935baa1fa20614115bf03120041d100759d4ba30d2c37bb011d97e02cf", "asm": "OP_RETURN 0000783200016bdc16db5ed6bde5cde210b227b7256b4774d339f6019d6ddc0f1b8ff117119dabc52cdcdc58877e3ad9ccbc02935baa1fa20614115bf03120041d100759d4ba30d2c37bb011d97e02cf"}, "value": 0.0, "n": 1}], "hex": "0100000001c94d2e8d9850033b87a6284bfaf743862f007984a240d94db64ad48e9bfaaa00000000006b4830450221009e611f983aeac65fd3640f2f1a74aaca9d927c2468edc6191d11e4c7a4d48366022041dffd6d86bb995988371c444b4b1ce1d4ae049b5d28623e19577fe13be653d3012103a5620a7cc54b4918823652a01389e5371699ce8fe93505dda09f4b1720f59529ffffffff029c960900000000001976a914881523b2c1ac9f2267673ece7280eb8094387cfb88ac0000000000000000536a4c500000783200016bdc16db5ed6bde5cde210b227b7256b4774d339f6019d6ddc0f1b8ff117119dabc52cdcdc58877e3ad9ccbc02935baa1fa20614115bf03120041d100759d4ba30d2c37bb011d97e02cf00000000", "vin": [{"sequence": 4294967295, "scriptSig": {"hex": "4830450221009e611f983aeac65fd3640f2f1a74aaca9d927c2468edc6191d11e4c7a4d48366022041dffd6d86bb995988371c444b4b1ce1d4ae049b5d28623e19577fe13be653d3012103a5620a7cc54b4918823652a01389e5371699ce8fe93505dda09f4b1720f59529", "asm": "30450221009e611f983aeac65fd3640f2f1a74aaca9d927c2468edc6191d11e4c7a4d48366022041dffd6d86bb995988371c444b4b1ce1d4ae049b5d28623e19577fe13be653d3[ALL] 03a5620a7cc54b4918823652a01389e5371699ce8fe93505dda09f4b1720f59529"}, "vout": 0, "txid": "00aafa9b8ed44ab64dd940a28479002f8643f7fa4b28a6873b0350988d2e4dc9"}], "txid": "f0bb05e8fb082b23a721d2ec7ab8345c89806ef44d7041f1798f6087e46e2865", "blocktime": 1537876114, "version": 1, "confirmations": 11463, "time": 1537876114, "locktime": 0, "vsize": 284, "size": 284}