{"hash": "f0ceb11bfb60e9288621321c37e56d4678053fed0e84a6ede02c1e1443f93ac6", "blockhash": "0000000000000000000baef3f32e3676a92c3b2e5da21b426e4f302fc371ce76", "vout": [{"scriptPubKey": {"reqSigs": 1, "hex": "a91422710c88e41d5cf42de3196c3b4f64b67de90aa487", "addresses": ["34q8Kr1B5Bb1KLXYB72yozimKECU9hq6dU"], "asm": "OP_HASH160 22710c88e41d5cf42de3196c3b4f64b67de90aa4 OP_EQUAL", "type": "scripthash"}, "value": 0.00013, "n": 0}, {"scriptPubKey": {"reqSigs": 1, "hex": "76a91462ec946d9c9183922d9a9affb5355c4db8b826aa88ac", "addresses": ["1A24deoxPjpbirtfMiQNBNVKkYmyEqkbQS"], "asm": "OP_DUP OP_HASH160 62ec946d9c9183922d9a9affb5355c4db8b826aa OP_EQUALVERIFY OP_CHECKSIG", "type": "pubkeyhash"}, "value": 12.73791767, "n": 1}], "hex": "0200000001f8108427f627497d220a2f0fc49d22a53bac9821e9116dd81477b71da1f1b793010000006a47304402203fb925a5578a2da7b222e2a066a76c74236b494829913bef27eb6f43d4f701fe02205842d87b0a2f580e52f100a2305f08886cf8e84637debc0d8b946a28d920af85012103fc9dea7fa83306481746e93ecdf3fcbfdbac7f3e1c987cd9a88c1460dcb498fbffffffff02c83200000000000017a91422710c88e41d5cf42de3196c3b4f64b67de90aa4871785ec4b000000001976a91462ec946d9c9183922d9a9affb5355c4db8b826aa88ac00000000", "vin": [{"sequence": 4294967295, "scriptSig": {"hex": "47304402203fb925a5578a2da7b222e2a066a76c74236b494829913bef27eb6f43d4f701fe02205842d87b0a2f580e52f100a2305f08886cf8e84637debc0d8b946a28d920af85012103fc9dea7fa83306481746e93ecdf3fcbfdbac7f3e1c987cd9a88c1460dcb498fb", "asm": "304402203fb925a5578a2da7b222e2a066a76c74236b494829913bef27eb6f43d4f701fe02205842d87b0a2f580e52f100a2305f08886cf8e84637debc0d8b946a28d920af85[ALL] 03fc9dea7fa83306481746e93ecdf3fcbfdbac7f3e1c987cd9a88c1460dcb498fb"}, "vout": 1, "txid": "93b7f1a11db77714d86d11e92198ac3ba5229dc40f2f0a227d4927f6278410f8"}], "txid": "f0ceb11bfb60e9288621321c37e56d4678053fed0e84a6ede02c1e1443f93ac6", "blocktime": 1537876114, "version": 2, "confirmations": 11460, "time": 1537876114, "locktime": 0, "vsize": 223, "size": 223}