{"hash": "f0d5df44953253124b09cfe48284913a14fa603cc666c35974e009d715fdc8d4", "blockhash": "0000000000000000001cda96e906b7601b7a6fb1a3b62bca570a9e5d8f4b3de1", "vout": [{"scriptPubKey": {"reqSigs": 1, "hex": "76a914fbaaa57ec3b6af029f7aec4f9797c3f8c06c01eb88ac", "addresses": ["1Pwh2sgCgk9865JXAU32bFe4BKvo957bpT"], "asm": "OP_DUP OP_HASH160 fbaaa57ec3b6af029f7aec4f9797c3f8c06c01eb OP_EQUALVERIFY OP_CHECKSIG", "type": "pubkeyhash"}, "value": 0.00639761, "n": 0}, {"scriptPubKey": {"type": "nulldata", "hex": "6a4c50000077bf0001ce0740a7300269d72388dca3e5bf9ae76da98a211aaf6c953dd567cf27e712cbd8bf2efe34dde5d497539897bcc65baa12880612ceabd07c420c1d100759d4ba30d2c37bb011d97e02cf", "asm": "OP_RETURN 000077bf0001ce0740a7300269d72388dca3e5bf9ae76da98a211aaf6c953dd567cf27e712cbd8bf2efe34dde5d497539897bcc65baa12880612ceabd07c420c1d100759d4ba30d2c37bb011d97e02cf"}, "value": 0.0, "n": 1}], "hex": "01000000016506024639b17a72e60055ca42a902fabc56c2bc3c2f5d5f7272813b6a647688010000006b483045022100f6c3f234e0d539a51a11ed6fbccae237b9f10caf1a88ccd929f75849ce8b98430220552c9c82e1af871469c803fea58dbf6faae08006f94493b83aec60f96289cab401210237d670773d171131f8cc3032bf0a2c946f86f45d643879599d22f389907e3453ffffffff0211c30900000000001976a914fbaaa57ec3b6af029f7aec4f9797c3f8c06c01eb88ac0000000000000000536a4c50000077bf0001ce0740a7300269d72388dca3e5bf9ae76da98a211aaf6c953dd567cf27e712cbd8bf2efe34dde5d497539897bcc65baa12880612ceabd07c420c1d100759d4ba30d2c37bb011d97e02cf00000000", "vin": [{"sequence": 4294967295, "scriptSig": {"hex": "483045022100f6c3f234e0d539a51a11ed6fbccae237b9f10caf1a88ccd929f75849ce8b98430220552c9c82e1af871469c803fea58dbf6faae08006f94493b83aec60f96289cab401210237d670773d171131f8cc3032bf0a2c946f86f45d643879599d22f389907e3453", "asm": "3045022100f6c3f234e0d539a51a11ed6fbccae237b9f10caf1a88ccd929f75849ce8b98430220552c9c82e1af871469c803fea58dbf6faae08006f94493b83aec60f96289cab4[ALL] 0237d670773d171131f8cc3032bf0a2c946f86f45d643879599d22f389907e3453"}, "vout": 1, "txid": "8876646a3b8172725f5d2f3cbcc256bcfa02a942ca5500e6727ab13946020665"}], "txid": "f0d5df44953253124b09cfe48284913a14fa603cc666c35974e009d715fdc8d4", "blocktime": 1537873282, "version": 1, "confirmations": 11484, "time": 1537873282, "locktime": 0, "vsize": 284, "size": 284}