{"hash": "7c530064e88a18a08916a4eeab334ddb829bff580c7da014fff330690c35ca19", "blockhash": "0000000000000000001e0dab787dd257d1dbfcb92a98c2207d5e1078be1f4165", "vout": [{"scriptPubKey": {"reqSigs": 1, "hex": "76a914129d5fc58abda022fe2cf71ba9ecfd764af2415188ac", "addresses": ["12hRgzs9ncU6aTuBoH7r8Ua5Mhdd8GZtQH"], "asm": "OP_DUP OP_HASH160 129d5fc58abda022fe2cf71ba9ecfd764af24151 OP_EQUALVERIFY OP_CHECKSIG", "type": "pubkeyhash"}, "value": 0.03033549, "n": 0}, {"scriptPubKey": {"reqSigs": 1, "hex": "0014003a0a1ca653f2351615a3615a4048aa46baaea4", "addresses": ["bc1qqqaq589x20er29s45ds45szg4frt4t4y74hpfc"], "asm": "0 003a0a1ca653f2351615a3615a4048aa46baaea4", "type": "witness_v0_keyhash"}, "value": 0.00217679, "n": 1}], "hex": "0100000000010158c9d973adb0837cc20c40410c4d0b2c87f64fd745c18538a97cdc2062b6d8e60000000000ffffffff02cd492e00000000001976a914129d5fc58abda022fe2cf71ba9ecfd764af2415188ac4f52030000000000160014003a0a1ca653f2351615a3615a4048aa46baaea4024730440220759359898c0cc95fb7120b2c0113958755149246eeca552ad8a10bf3249d8a9902206ac8c87310c4cc03b0ed252324d5b1fb0dca8cb9fe4a4cc98dc08123b574aca40121035a065b6f4f70edfc10dde0feec844aab8a602cb4c034c3fc2a0cdb4aba2842a600000000", "vin": [{"txinwitness": ["30440220759359898c0cc95fb7120b2c0113958755149246eeca552ad8a10bf3249d8a9902206ac8c87310c4cc03b0ed252324d5b1fb0dca8cb9fe4a4cc98dc08123b574aca401", "035a065b6f4f70edfc10dde0feec844aab8a602cb4c034c3fc2a0cdb4aba2842a6"], "sequence": 4294967295, "scriptSig": {"hex": "", "asm": ""}, "vout": 0, "txid": "e6d8b66220dc7ca93885c145d74ff6872c0b4d0c41400cc27c83b0ad73d9c958"}], "txid": "f0d79b4cb6fbf6ae2ec507a2b64f250c5f951a182f3caf9755d770723a8467a1", "blocktime": 1537872475, "version": 1, "confirmations": 11487, "time": 1537872475, "locktime": 0, "vsize": 144, "size": 225}