{"hash": "f0d8b4862c26d2f1db1d11d80a2f8ed84ad9c070f2e1f476fb5f66b107f400d7", "blockhash": "00000000000000000004ffacab907a6b429b9a5745fa0b75af4234bf69dd7176", "vout": [{"scriptPubKey": {"reqSigs": 1, "hex": "76a914ea9dd04a1b687bc53cc1d5332c7eaac204c7117e88ac", "addresses": ["1NPYAyMWvNNVAjUdb2txvyAMQFkxW53PGS"], "asm": "OP_DUP OP_HASH160 ea9dd04a1b687bc53cc1d5332c7eaac204c7117e OP_EQUALVERIFY OP_CHECKSIG", "type": "pubkeyhash"}, "value": 0.16590754, "n": 0}, {"scriptPubKey": {"reqSigs": 1, "hex": "76a9143ed81691a3db81b29a17ff387d73f28f6c91037688ac", "addresses": ["16jHkxoK4HZvju3ubgjQJoa52qtjajBAwX"], "asm": "OP_DUP OP_HASH160 3ed81691a3db81b29a17ff387d73f28f6c910376 OP_EQUALVERIFY OP_CHECKSIG", "type": "pubkeyhash"}, "value": 0.015633, "n": 1}], "hex": "0100000001024342ae6bf42b181623947711c1a6d8287c5a44c3975555f79cec61ad1506f8000000006b483045022100ef25b38997b239c68c051cf473ecfb5ea75818b160b89538a6d324effd1ae563022067b21cd39124e73ffc9d5fd3b69ba7a107ac07e759b3f255b729a2ab7c5bcdec012103bce10724ccb254d2bb6e6e4ebff2375b58f3c6f05f228b5c8ccf43089440719affffffff02a227fd00000000001976a914ea9dd04a1b687bc53cc1d5332c7eaac204c7117e88aca4da1700000000001976a9143ed81691a3db81b29a17ff387d73f28f6c91037688ac00000000", "vin": [{"sequence": 4294967295, "scriptSig": {"hex": "483045022100ef25b38997b239c68c051cf473ecfb5ea75818b160b89538a6d324effd1ae563022067b21cd39124e73ffc9d5fd3b69ba7a107ac07e759b3f255b729a2ab7c5bcdec012103bce10724ccb254d2bb6e6e4ebff2375b58f3c6f05f228b5c8ccf43089440719a", "asm": "3045022100ef25b38997b239c68c051cf473ecfb5ea75818b160b89538a6d324effd1ae563022067b21cd39124e73ffc9d5fd3b69ba7a107ac07e759b3f255b729a2ab7c5bcdec[ALL] 03bce10724ccb254d2bb6e6e4ebff2375b58f3c6f05f228b5c8ccf43089440719a"}, "vout": 0, "txid": "f80615ad61ec9cf7555597c3445a7c28d8a6c11177942316182bf46bae424302"}], "txid": "f0d8b4862c26d2f1db1d11d80a2f8ed84ad9c070f2e1f476fb5f66b107f400d7", "blocktime": 1537875543, "version": 1, "confirmations": 11464, "time": 1537875543, "locktime": 0, "vsize": 226, "size": 226}