{"hash": "6543d06b28b4f1e21d62216983ecc8e032945c7498ec13aa11d8c781e9d9a5a0", "blockhash": "0000000000000000001f76057863aec43deb6fa401d9628bb513d65a8098bfab", "vout": [{"scriptPubKey": {"reqSigs": 1, "hex": "76a9145a7081c27cd19fd83bc731e3079b9df0de03065b88ac", "addresses": ["19FCbP1ESHWfL9QBmfn3REhkNAAnLKyTcL"], "asm": "OP_DUP OP_HASH160 5a7081c27cd19fd83bc731e3079b9df0de03065b OP_EQUALVERIFY OP_CHECKSIG", "type": "pubkeyhash"}, "value": 0.31213276, "n": 0}, {"scriptPubKey": {"reqSigs": 1, "hex": "a914afbe3a436638f105d6d8bfe4e862f7b3010b90c487", "addresses": ["3HiG4MmHcJH5db8pMudC2M2A8vmFmMwWET"], "asm": "OP_HASH160 afbe3a436638f105d6d8bfe4e862f7b3010b90c4 OP_EQUAL", "type": "scripthash"}, "value": 0.24758023, "n": 1}], "hex": "010000000001050f35b94c2f22cd5baf0f5f4f4a6607185012acbbdf6ea8baf91c8f31a92410c60100000023220020e0511b63a18d9168378bdc39f95cefcae7814ce7b39e0cc9c28c4773554a6ad3ffffffff28e6500a62f6e18dd1c480a89f9ff05c2d01b3d249a24e5fad47c3e4616015600100000023220020878e53686faf996c0aed160a75e5c1e7483bc03181d9899525b54463742330e7ffffffff6e78490d44928f48f0741ac1fe6c0d488e2731380098a5775c1402bc4cca25480100000023220020064d526e5673d643c50b7adb7fd65325a1182a900202062997be1009d7e7b60afffffffff2d93a4e55b68ab92a19c21d550c9a57e0f1f93fe4ec7ea94022d3624dfa302701000000232200203754724d4c9f23cc02200ad8cbbf9fd9dc83af9e96c1398d8108a9e74526c473ffffffff4b190ad2cf440b9d70524777161024bc2508b08750488f4b91800b51931d39eb00000000232200201522b357138fc007f0e4770ad6c26653a5161d8ab519b163c6c5b0e28d4f798dffffffff02dc46dc01000000001976a9145a7081c27cd19fd83bc731e3079b9df0de03065b88ac07c779010000000017a914afbe3a436638f105d6d8bfe4e862f7b3010b90c4870400473044022051eeeb10f1a4e2b7859537e2db612ef2611bf5906a0444e5aad4de12a9259955022002daaced34e51a9f10f379f79f9b031fe3ae127f395695cc19ca7940807f4dc0014730440220570296be79ae7de40437e1f2ce7ac1488fab7ebb6582e6276db4ef85e7466837022003e4631c927195e38069820dbf65b54a8d888c8b3b2e4bd7cb4921302878005b0147522102814c0d590cf19caf7a5713a00fb8e4a8088f7cba44af179fae7a9a492bbf70ec2102d8cbd56fe56ed46b7d86e915d643e8519cf5f3c693f8be00c1dd5ac66394422e52ae0400483045022100e529f34a59e0f09b579269c0a7691d05275351f014ad2c483dc84a56c30cfc7f0220431b324ab9592a64a3ddae7559b0975bffc187d9dea52076d7197214e8c8383f014730440220525e086d4551924e53aedf4cf3789a6704c790ba05a8ca70421461eeae69e38f022018302ebf036b82fed9f84535331bc6c6a00ab2dd7dac2bdd097cea57586f4ca3014752210236539cc96a7f4b06c3e014ee6db512f50d49763aca6f81dab13120a9b8ceefa42102d8cbd56fe56ed46b7d86e915d643e8519cf5f3c693f8be00c1dd5ac66394422e52ae0400483045022100d3babe22cee29e723e9dc3c60b5dc9b98919cfcb3ea9de187a5eafa11847987602203d78a6fea3a8623b70173a37a64c2f32828344d6178d4c86934bc7c21154bec1014730440220586daf1c16e26399a5a77dce549e744e8adf8e03b055b00eaaf268204a080ee40220114a843847f9d962d9d35f8c9aeb9ae9818637cdb276fe7609967f924c84fb100147522102d9f3fb83ebc9523a69ded728b5fb613506630ee469737a94a3d076ab13eb462c2102d8cbd56fe56ed46b7d86e915d643e8519cf5f3c693f8be00c1dd5ac66394422e52ae040047304402200d8ca4a94903aadd574397bfc981af1eabcb3496fbcbe5314dd3f9e47356b75102203f98926c672b57da12e0f0561ea26be851bea13a08e2af0a32d4629b9559b46a01483045022100ba7013ef85f30eea035a6b5c90426d996a94c89bff98bbc4783b4d6cb1561fd302205b324cb10d44346818cf529b5dcc4929f3f0ec6b553aa079bd0c2c006a8bb17101475221023d3e9a5a79dc99a449a8a3f256bfe06d7a5e66015231568185803b4832a2e7622102d8cbd56fe56ed46b7d86e915d643e8519cf5f3c693f8be00c1dd5ac66394422e52ae0400473044022030c4d9477fd9ea06f02f6c062e4cf229fcf063396292cf62bf8b1e872d66d64a022027ae065df336838d2df540b9c8f2428522e2b2781c69a738a719dd20c359ceda014730440220477c190d641ec4ac28e0f7638ed6fc56e04f94ae945aa4f7966a55d40f79194b02204a0b1bd496a7737b6518527c3432bb92e7954ad6622586f83d2c61b739db18290147522102538714e2c364b3209823136f6b9524df60514f73e24fcba4e2fdc85d9cb753a22102d8cbd56fe56ed46b7d86e915d643e8519cf5f3c693f8be00c1dd5ac66394422e52ae00000000", "vin": [{"txinwitness": ["", "3044022051eeeb10f1a4e2b7859537e2db612ef2611bf5906a0444e5aad4de12a9259955022002daaced34e51a9f10f379f79f9b031fe3ae127f395695cc19ca7940807f4dc001", "30440220570296be79ae7de40437e1f2ce7ac1488fab7ebb6582e6276db4ef85e7466837022003e4631c927195e38069820dbf65b54a8d888c8b3b2e4bd7cb4921302878005b01", "522102814c0d590cf19caf7a5713a00fb8e4a8088f7cba44af179fae7a9a492bbf70ec2102d8cbd56fe56ed46b7d86e915d643e8519cf5f3c693f8be00c1dd5ac66394422e52ae"], "sequence": 4294967295, "scriptSig": {"hex": "220020e0511b63a18d9168378bdc39f95cefcae7814ce7b39e0cc9c28c4773554a6ad3", "asm": "0020e0511b63a18d9168378bdc39f95cefcae7814ce7b39e0cc9c28c4773554a6ad3"}, "vout": 1, "txid": "c61024a9318f1cf9baa86edfbbac12501807664a4f5f0faf5bcd222f4cb9350f"}, {"txinwitness": ["", "3045022100e529f34a59e0f09b579269c0a7691d05275351f014ad2c483dc84a56c30cfc7f0220431b324ab9592a64a3ddae7559b0975bffc187d9dea52076d7197214e8c8383f01", "30440220525e086d4551924e53aedf4cf3789a6704c790ba05a8ca70421461eeae69e38f022018302ebf036b82fed9f84535331bc6c6a00ab2dd7dac2bdd097cea57586f4ca301", "52210236539cc96a7f4b06c3e014ee6db512f50d49763aca6f81dab13120a9b8ceefa42102d8cbd56fe56ed46b7d86e915d643e8519cf5f3c693f8be00c1dd5ac66394422e52ae"], "sequence": 4294967295, "scriptSig": {"hex": "220020878e53686faf996c0aed160a75e5c1e7483bc03181d9899525b54463742330e7", "asm": "0020878e53686faf996c0aed160a75e5c1e7483bc03181d9899525b54463742330e7"}, "vout": 1, "txid": "60156061e4c347ad5f4ea249d2b3012d5cf09f9fa880c4d18de1f6620a50e628"}, {"txinwitness": ["", "3045022100d3babe22cee29e723e9dc3c60b5dc9b98919cfcb3ea9de187a5eafa11847987602203d78a6fea3a8623b70173a37a64c2f32828344d6178d4c86934bc7c21154bec101", "30440220586daf1c16e26399a5a77dce549e744e8adf8e03b055b00eaaf268204a080ee40220114a843847f9d962d9d35f8c9aeb9ae9818637cdb276fe7609967f924c84fb1001", "522102d9f3fb83ebc9523a69ded728b5fb613506630ee469737a94a3d076ab13eb462c2102d8cbd56fe56ed46b7d86e915d643e8519cf5f3c693f8be00c1dd5ac66394422e52ae"], "sequence": 4294967295, "scriptSig": {"hex": "220020064d526e5673d643c50b7adb7fd65325a1182a900202062997be1009d7e7b60a", "asm": "0020064d526e5673d643c50b7adb7fd65325a1182a900202062997be1009d7e7b60a"}, "vout": 1, "txid": "4825ca4cbc02145c77a598003831278e480d6cfec11a74f0488f92440d49786e"}, {"txinwitness": ["", "304402200d8ca4a94903aadd574397bfc981af1eabcb3496fbcbe5314dd3f9e47356b75102203f98926c672b57da12e0f0561ea26be851bea13a08e2af0a32d4629b9559b46a01", "3045022100ba7013ef85f30eea035a6b5c90426d996a94c89bff98bbc4783b4d6cb1561fd302205b324cb10d44346818cf529b5dcc4929f3f0ec6b553aa079bd0c2c006a8bb17101", "5221023d3e9a5a79dc99a449a8a3f256bfe06d7a5e66015231568185803b4832a2e7622102d8cbd56fe56ed46b7d86e915d643e8519cf5f3c693f8be00c1dd5ac66394422e52ae"], "sequence": 4294967295, "scriptSig": {"hex": "2200203754724d4c9f23cc02200ad8cbbf9fd9dc83af9e96c1398d8108a9e74526c473", "asm": "00203754724d4c9f23cc02200ad8cbbf9fd9dc83af9e96c1398d8108a9e74526c473"}, "vout": 1, "txid": "2730fa4d62d32240a97eece43ff9f1e0579a0c551dc2192ab98ab6554e3ad9f2"}, {"txinwitness": ["", "3044022030c4d9477fd9ea06f02f6c062e4cf229fcf063396292cf62bf8b1e872d66d64a022027ae065df336838d2df540b9c8f2428522e2b2781c69a738a719dd20c359ceda01", "30440220477c190d641ec4ac28e0f7638ed6fc56e04f94ae945aa4f7966a55d40f79194b02204a0b1bd496a7737b6518527c3432bb92e7954ad6622586f83d2c61b739db182901", "522102538714e2c364b3209823136f6b9524df60514f73e24fcba4e2fdc85d9cb753a22102d8cbd56fe56ed46b7d86e915d643e8519cf5f3c693f8be00c1dd5ac66394422e52ae"], "sequence": 4294967295, "scriptSig": {"hex": "2200201522b357138fc007f0e4770ad6c26653a5161d8ab519b163c6c5b0e28d4f798d", "asm": "00201522b357138fc007f0e4770ad6c26653a5161d8ab519b163c6c5b0e28d4f798d"}, "vout": 0, "txid": "eb391d93510b80914b8f485087b00825bc241016774752709d0b44cfd20a194b"}], "txid": "f0dd7642c5bbd8fd2eb0850505c4a2343e9d47590d9cc75821d82136d7f889f5", "blocktime": 1537873891, "version": 1, "confirmations": 11478, "time": 1537873891, "locktime": 0, "vsize": 730, "size": 1551}