{"hash": "f0dfb4b31ce62797b3d103651986adbc598724f6d49c07ff3b9f9b7bc0b94299", "blockhash": "000000000000000000022b45ed06c6f4ccd3cf7fb5ba4856ebd2e58215665228", "vout": [{"scriptPubKey": {"type": "nulldata", "hex": "6a146f6d6e69000000000000001f0000001dac123993", "asm": "OP_RETURN 6f6d6e69000000000000001f0000001dac123993"}, "value": 0.0, "n": 0}, {"scriptPubKey": {"reqSigs": 1, "hex": "76a914133fc25d43054526a99fe03ae4f684294ec8dc9a88ac", "addresses": ["12knDiRLAohRnAmRfzLwt5RiJJu8KbeUp7"], "asm": "OP_DUP OP_HASH160 133fc25d43054526a99fe03ae4f684294ec8dc9a OP_EQUALVERIFY OP_CHECKSIG", "type": "pubkeyhash"}, "value": 5.46e-06, "n": 1}, {"scriptPubKey": {"reqSigs": 1, "hex": "76a914a25dec4d0011064ef106a983c39c7a540699f22088ac", "addresses": ["1FoWyxwPXuj4C6abqwhjDWdz6D4PZgYRjA"], "asm": "OP_DUP OP_HASH160 a25dec4d0011064ef106a983c39c7a540699f220 OP_EQUALVERIFY OP_CHECKSIG", "type": "pubkeyhash"}, "value": 0.01995188, "n": 2}], "hex": "0100000001a44813c76173a4fe9689194c29809e35be05f1741d9b5e1e9e8bd44070ac1fea590000006a47304402206c9282b038224536cfca8a1a2fd60d841fa63c0e5f4d978f22764d14c78b716a02205c187392fea55aec1955a2f6907fbc84532b14e72abddd6b152d700b5dc39aa7012103da5bac7b36d5aa38f531c6b9601e21bb598a4b6716ebed38b009a55dabde9440feffffff030000000000000000166a146f6d6e69000000000000001f0000001dac12399322020000000000001976a914133fc25d43054526a99fe03ae4f684294ec8dc9a88acb4711e00000000001976a914a25dec4d0011064ef106a983c39c7a540699f22088ac0a490800", "vin": [{"sequence": 4294967294, "scriptSig": {"hex": "47304402206c9282b038224536cfca8a1a2fd60d841fa63c0e5f4d978f22764d14c78b716a02205c187392fea55aec1955a2f6907fbc84532b14e72abddd6b152d700b5dc39aa7012103da5bac7b36d5aa38f531c6b9601e21bb598a4b6716ebed38b009a55dabde9440", "asm": "304402206c9282b038224536cfca8a1a2fd60d841fa63c0e5f4d978f22764d14c78b716a02205c187392fea55aec1955a2f6907fbc84532b14e72abddd6b152d700b5dc39aa7[ALL] 03da5bac7b36d5aa38f531c6b9601e21bb598a4b6716ebed38b009a55dabde9440"}, "vout": 89, "txid": "ea1fac7040d48b9e1e5e9b1d74f105be359e80294c198996fea47361c71348a4"}], "txid": "f0dfb4b31ce62797b3d103651986adbc598724f6d49c07ff3b9f9b7bc0b94299", "blocktime": 1537869901, "version": 1, "confirmations": 11522, "time": 1537869901, "locktime": 542986, "vsize": 256, "size": 256}