{"hash": "cc1fcf591672b1349dfeee39ce535f514ae3e9cedf128c9e65ba8942f393456e", "blockhash": "0000000000000000001f76057863aec43deb6fa401d9628bb513d65a8098bfab", "vout": [{"scriptPubKey": {"reqSigs": 1, "hex": "76a9148943c7f746460541aba9111d33949c8d66d911c988ac", "addresses": ["1DWnmo8VUKssSGGVq4bwkMqHjHL9LL8FLY"], "asm": "OP_DUP OP_HASH160 8943c7f746460541aba9111d33949c8d66d911c9 OP_EQUALVERIFY OP_CHECKSIG", "type": "pubkeyhash"}, "value": 0.0094021, "n": 0}, {"scriptPubKey": {"reqSigs": 1, "hex": "a914df2862f44ecfdab2614cb1dbbb310cbb684d207287", "addresses": ["3N2xzRmtkjpdLbrtC2HZDX1rFQ4WR8gGj4"], "asm": "OP_HASH160 df2862f44ecfdab2614cb1dbbb310cbb684d2072 OP_EQUAL", "type": "scripthash"}, "value": 0.00998052, "n": 1}], "hex": "02000000000101cf9ec67ff1f3a48f7a48855b57102e0ce4770ccdfd0f715403f69ead1cd613cc000000001716001440acf715a757fa966c2906754646c183664574bdfeffffff02b2580e00000000001976a9148943c7f746460541aba9111d33949c8d66d911c988aca43a0f000000000017a914df2862f44ecfdab2614cb1dbbb310cbb684d20728702483045022100ab4340f517ac170d17d0cd5c1a0a110bb506f1f61a4f29b69d19085d7f3dc8e902204b3ed916777080aaa52835b93536f6d5514c813fc65299092e73ce63e1e2793b012102e6972d9c951c46a9465a92212571022ddbc84829f135b13619f7f48b198a48a914490800", "vin": [{"txinwitness": ["3045022100ab4340f517ac170d17d0cd5c1a0a110bb506f1f61a4f29b69d19085d7f3dc8e902204b3ed916777080aaa52835b93536f6d5514c813fc65299092e73ce63e1e2793b01", "02e6972d9c951c46a9465a92212571022ddbc84829f135b13619f7f48b198a48a9"], "sequence": 4294967294, "scriptSig": {"hex": "16001440acf715a757fa966c2906754646c183664574bd", "asm": "001440acf715a757fa966c2906754646c183664574bd"}, "vout": 0, "txid": "cc13d61cad9ef60354710ffdcd0c77e40c2e10575b85487a8fa4f3f17fc69ecf"}], "txid": "f0e16f6f535c7929582a0ded731da0f230773aefffd796826e2848ed5029e4e0", "blocktime": 1537873891, "version": 2, "confirmations": 11475, "time": 1537873891, "locktime": 542996, "vsize": 168, "size": 250}