{"hash": "f0e1a54f77c0cb0ec7b758848d3672c9dfd607ada06b96af65fa6f46954ad9b3", "blockhash": "00000000000000000018f53835495a110e01622372bf6ae95dc86f2b0ab887b0", "vout": [{"scriptPubKey": {"type": "nulldata", "hex": "6a4c50000077810001ff1c0bec365306f189a5c1f2bcbefa6b8351586b4e86aeaeacb577c031fca0890c5975127e9f5c77f48d6206b15c5baa0ad906143fe9098cd3021d100759d4ba30d2c37bb011d97e02cf", "asm": "OP_RETURN 000077810001ff1c0bec365306f189a5c1f2bcbefa6b8351586b4e86aeaeacb577c031fca0890c5975127e9f5c77f48d6206b15c5baa0ad906143fe9098cd3021d100759d4ba30d2c37bb011d97e02cf"}, "value": 0.0, "n": 0}, {"scriptPubKey": {"reqSigs": 1, "hex": "76a914ebc66f514afc168e939c1708e21b91c49258681788ac", "addresses": ["1NVfWaJQKWACmVhdUQ7WW79UZPHrycqSpW"], "asm": "OP_DUP OP_HASH160 ebc66f514afc168e939c1708e21b91c492586817 OP_EQUALVERIFY OP_CHECKSIG", "type": "pubkeyhash"}, "value": 0.0064981, "n": 1}], "hex": "0100000001bb69c05980974d336cf34f5ebfa8840d3a4f6ff5f02a199540d4c7cd7528974c010000006b483045022100f5f632d2a265772366bdc9cdae9b33cea41dcb91a60251ab0fd05a05f867debd02202f0e1fd8a9d25575a9f0c3c71f64ae5d2d948aa81abdda68c5bf8306ec40a23f01210268faabed6549a9863ff47018e8f8d6795942b1c474878b5110b25a4ca141df35ffffffff020000000000000000536a4c50000077810001ff1c0bec365306f189a5c1f2bcbefa6b8351586b4e86aeaeacb577c031fca0890c5975127e9f5c77f48d6206b15c5baa0ad906143fe9098cd3021d100759d4ba30d2c37bb011d97e02cf52ea0900000000001976a914ebc66f514afc168e939c1708e21b91c49258681788ac00000000", "vin": [{"sequence": 4294967295, "scriptSig": {"hex": "483045022100f5f632d2a265772366bdc9cdae9b33cea41dcb91a60251ab0fd05a05f867debd02202f0e1fd8a9d25575a9f0c3c71f64ae5d2d948aa81abdda68c5bf8306ec40a23f01210268faabed6549a9863ff47018e8f8d6795942b1c474878b5110b25a4ca141df35", "asm": "3045022100f5f632d2a265772366bdc9cdae9b33cea41dcb91a60251ab0fd05a05f867debd02202f0e1fd8a9d25575a9f0c3c71f64ae5d2d948aa81abdda68c5bf8306ec40a23f[ALL] 0268faabed6549a9863ff47018e8f8d6795942b1c474878b5110b25a4ca141df35"}, "vout": 1, "txid": "4c972875cdc7d44095192af0f56f4f3a0d84a8bf5e4ff36c334d978059c069bb"}], "txid": "f0e1a54f77c0cb0ec7b758848d3672c9dfd607ada06b96af65fa6f46954ad9b3", "blocktime": 1537870928, "version": 1, "confirmations": 11513, "time": 1537870928, "locktime": 0, "vsize": 284, "size": 284}