{"hash": "f0eb06cd894fc7987bab9c34a15f133ab1cf7c542f719fd1c2ce4f3930afc95b", "blockhash": "0000000000000000000e13cef7c366c0283d82e591d1acd082e914b08063cdf1", "vout": [{"scriptPubKey": {"reqSigs": 1, "hex": "a91469f37739a522c422dcd8afca9cf1844bfabf7dbd87", "addresses": ["3BMEXyrEMmpk341pNetUQD2pRj4ifZ4bUc"], "asm": "OP_HASH160 69f37739a522c422dcd8afca9cf1844bfabf7dbd OP_EQUAL", "type": "scripthash"}, "value": 0.041, "n": 0}, {"scriptPubKey": {"reqSigs": 1, "hex": "76a91485a8370f8f3ddb25d24e148782e6665e7a35eacc88ac", "addresses": ["1DBiPJXZ9jSEe1ciG1nqgkFtnEEGAXkr8s"], "asm": "OP_DUP OP_HASH160 85a8370f8f3ddb25d24e148782e6665e7a35eacc OP_EQUALVERIFY OP_CHECKSIG", "type": "pubkeyhash"}, "value": 0.0003875, "n": 1}], "hex": "0100000001afdbb21ac72fe0f45241800422512bd82395112e23b8b8e267a84f541462e1bf010000006b483045022100ec02e122ec7152770fa605b04b9cb2fc431a272114c5eb67d341b1c17aa605720220290e485cb559afa50b01f4470d0f872ea38aa8810425fe76e1c877768a5e18010121036f910898db3c1547c1d0f20caab72e09d1b34ca740cd9114dbf4be28566e5581fdffffff02a08f3e000000000017a91469f37739a522c422dcd8afca9cf1844bfabf7dbd875e970000000000001976a91485a8370f8f3ddb25d24e148782e6665e7a35eacc88ac00000000", "vin": [{"sequence": 4294967293, "scriptSig": {"hex": "483045022100ec02e122ec7152770fa605b04b9cb2fc431a272114c5eb67d341b1c17aa605720220290e485cb559afa50b01f4470d0f872ea38aa8810425fe76e1c877768a5e18010121036f910898db3c1547c1d0f20caab72e09d1b34ca740cd9114dbf4be28566e5581", "asm": "3045022100ec02e122ec7152770fa605b04b9cb2fc431a272114c5eb67d341b1c17aa605720220290e485cb559afa50b01f4470d0f872ea38aa8810425fe76e1c877768a5e1801[ALL] 036f910898db3c1547c1d0f20caab72e09d1b34ca740cd9114dbf4be28566e5581"}, "vout": 1, "txid": "bfe16214544fa867e2b8b8232e119523d82b512204804152f4e02fc71ab2dbaf"}], "txid": "f0eb06cd894fc7987bab9c34a15f133ab1cf7c542f719fd1c2ce4f3930afc95b", "blocktime": 1537871767, "version": 1, "confirmations": 11490, "time": 1537871767, "locktime": 0, "vsize": 224, "size": 224}