{"hash": "f0f2e251852f106c9392e5fefaaafc0e8d2c23cd8225ef64f684c54d261544b6", "blockhash": "0000000000000000000baef3f32e3676a92c3b2e5da21b426e4f302fc371ce76", "vout": [{"scriptPubKey": {"reqSigs": 1, "hex": "76a9142869ca050dd8507cb02d1433380895b5b746c64a88ac", "addresses": ["14ggm2pxdZc3ScCYZm7rqTfmMzFNL1wDTa"], "asm": "OP_DUP OP_HASH160 2869ca050dd8507cb02d1433380895b5b746c64a OP_EQUALVERIFY OP_CHECKSIG", "type": "pubkeyhash"}, "value": 0.0147378, "n": 0}, {"scriptPubKey": {"type": "nulldata", "hex": "6a4c500000780100014e0ce0702940d64fa54d8eb2d19ed074892d00f8e87af8e8e963c7cfd5b9f3e263dabad4372658501355ed46101e5baa1a040613867adde0ad2bbc9a9526289ac0f6612cd74e33776ee4", "asm": "OP_RETURN 0000780100014e0ce0702940d64fa54d8eb2d19ed074892d00f8e87af8e8e963c7cfd5b9f3e263dabad4372658501355ed46101e5baa1a040613867adde0ad2bbc9a9526289ac0f6612cd74e33776ee4"}, "value": 0.0, "n": 1}], "hex": "0100000001a64b4a92c89fa506c15841ab729f56f5e0b42d3d5cad3dfa67aa1986c552f111000000006a47304402203e8e1931d0fb262637cf5ac0088e145e1cd7ea6912234fc987b4bd9caef74a6b022058efdaa2ade6c7382784964dc792081c2cb3547ea13187e6471583f5f3c15cc60121029301bb13d525f09c1af1f8def85b430c9ce00fe0a3595731fedb0f806d0ccd5effffffff02f47c1600000000001976a9142869ca050dd8507cb02d1433380895b5b746c64a88ac0000000000000000536a4c500000780100014e0ce0702940d64fa54d8eb2d19ed074892d00f8e87af8e8e963c7cfd5b9f3e263dabad4372658501355ed46101e5baa1a040613867adde0ad2bbc9a9526289ac0f6612cd74e33776ee400000000", "vin": [{"sequence": 4294967295, "scriptSig": {"hex": "47304402203e8e1931d0fb262637cf5ac0088e145e1cd7ea6912234fc987b4bd9caef74a6b022058efdaa2ade6c7382784964dc792081c2cb3547ea13187e6471583f5f3c15cc60121029301bb13d525f09c1af1f8def85b430c9ce00fe0a3595731fedb0f806d0ccd5e", "asm": "304402203e8e1931d0fb262637cf5ac0088e145e1cd7ea6912234fc987b4bd9caef74a6b022058efdaa2ade6c7382784964dc792081c2cb3547ea13187e6471583f5f3c15cc6[ALL] 029301bb13d525f09c1af1f8def85b430c9ce00fe0a3595731fedb0f806d0ccd5e"}, "vout": 0, "txid": "11f152c58619aa67fa3dad5c3d2db4e0f5569f72ab4158c106a59fc8924a4ba6"}], "txid": "f0f2e251852f106c9392e5fefaaafc0e8d2c23cd8225ef64f684c54d261544b6", "blocktime": 1537876114, "version": 1, "confirmations": 11460, "time": 1537876114, "locktime": 0, "vsize": 283, "size": 283}