{"hash": "006770ac5d5636faf3016d55ef4b16ab510d1ff7b1375ed33b4c73753ba1fa56", "blockhash": "00000000000000000017f5eb5941039fbcee6240d03bc1f2f8e35350df66a1d8", "vout": [{"scriptPubKey": {"reqSigs": 1, "hex": "a914015f9b1e408d561d7d7738bbb2e242219127953a87", "addresses": ["31pH8YyTWGewK4PN8LD3puvWA942vY54Wp"], "asm": "OP_HASH160 015f9b1e408d561d7d7738bbb2e242219127953a OP_EQUAL", "type": "scripthash"}, "value": 6e-05, "n": 0}, {"scriptPubKey": {"reqSigs": 1, "hex": "a9141d7370ccde4590204155e4074f69743a8e4fac0287", "addresses": ["34Njp4ZKtmCDfqqps26wHBYQQGUo2pGkLi"], "asm": "OP_HASH160 1d7370ccde4590204155e4074f69743a8e4fac02 OP_EQUAL", "type": "scripthash"}, "value": 0.00036818, "n": 1}], "hex": "01000000000101f73485678ad80e1a4259002cae4b8ab01390c332cafff545ef397449478bea690100000023220020f63dfc12340f6360d0251c22746d6b56093e3243e96ca012a65484a5d9cf0ec0ffffffff02701700000000000017a914015f9b1e408d561d7d7738bbb2e242219127953a87d28f00000000000017a9141d7370ccde4590204155e4074f69743a8e4fac0287040047304402206aa913dc0c8ef043a7bb785948a7b7987431442754f1f069d32a52f6fdd41333022066476098d907f788cb28aa9520c7fa7c6b8de9adc2b6cf2073a195aa546c848101483045022100c1aecfbb4978073b8f198a34f004529aec64823860f6b2102c9ffd6a290c42d50220257892de7fb21b07e41f641b5594abe29abfc7a1c3fa10296d1b3ff63642055e0147522102097067a6a0cc130a9a6f6577b47bf369b840a79de31cd7457187994266b1bb7c2103338f346cab6ba87fe940591a03ac234be06520c5ab386d4b6632e8eef0d0db7652ae00000000", "vin": [{"txinwitness": ["", "304402206aa913dc0c8ef043a7bb785948a7b7987431442754f1f069d32a52f6fdd41333022066476098d907f788cb28aa9520c7fa7c6b8de9adc2b6cf2073a195aa546c848101", "3045022100c1aecfbb4978073b8f198a34f004529aec64823860f6b2102c9ffd6a290c42d50220257892de7fb21b07e41f641b5594abe29abfc7a1c3fa10296d1b3ff63642055e01", "522102097067a6a0cc130a9a6f6577b47bf369b840a79de31cd7457187994266b1bb7c2103338f346cab6ba87fe940591a03ac234be06520c5ab386d4b6632e8eef0d0db7652ae"], "sequence": 4294967295, "scriptSig": {"hex": "220020f63dfc12340f6360d0251c22746d6b56093e3243e96ca012a65484a5d9cf0ec0", "asm": "0020f63dfc12340f6360d0251c22746d6b56093e3243e96ca012a65484a5d9cf0ec0"}, "vout": 1, "txid": "69ea8b47497439ef45f5ffca32c39013b08a4bae2c0059421a0ed88a678534f7"}], "txid": "f0f216355f85410bad05be491ce1d7fc712b94a752788cdb6dd23f2603b58ace", "blocktime": 1537874412, "version": 1, "confirmations": 11468, "time": 1537874412, "locktime": 0, "vsize": 206, "size": 371}