{"hash": "85af9900af0858393a70b90fc2b8a7bb6fc23176f4f2e6a94dbd2f4a88c6cf44", "blockhash": "0000000000000000001e0dab787dd257d1dbfcb92a98c2207d5e1078be1f4165", "vout": [{"scriptPubKey": {"reqSigs": 1, "hex": "a9148134c81b34b9ffe86a2c2daa29642dd9898bf64a87", "addresses": ["3DUCKdAH2frQz4uATT8xfmfDpGdwxJTemo"], "asm": "OP_HASH160 8134c81b34b9ffe86a2c2daa29642dd9898bf64a OP_EQUAL", "type": "scripthash"}, "value": 0.08688981, "n": 0}, {"scriptPubKey": {"reqSigs": 1, "hex": "a9142fb775ba365a6fa6f303890a1832e6e6e702f9b587", "addresses": ["363KTaKEo9h9kD2Grv8iBQ9JEfnuVmpnWJ"], "asm": "OP_HASH160 2fb775ba365a6fa6f303890a1832e6e6e702f9b5 OP_EQUAL", "type": "scripthash"}, "value": 0.01210436, "n": 1}], "hex": "020000000001017e3f81e6965eb26d06819d57de48ceba697c40732cac0c2dd20cb803e90c76ba0000000017160014a85963e998bba1e81a87ad0f08418f1dd71ae034fdffffff02559584000000000017a9148134c81b34b9ffe86a2c2daa29642dd9898bf64a87447812000000000017a9142fb775ba365a6fa6f303890a1832e6e6e702f9b5870247304402205e028ce8925324adf8b59c679290527be879df9c6051db634e8b03877bdd23380220088b96b06c8eeb5ef37343ec98d6cedb7605badec3a7111ada5a4df0962e05ba0121034a80a4009e2486ec5642e1444238ab46088a738791f99335c27472122f14369700000000", "vin": [{"txinwitness": ["304402205e028ce8925324adf8b59c679290527be879df9c6051db634e8b03877bdd23380220088b96b06c8eeb5ef37343ec98d6cedb7605badec3a7111ada5a4df0962e05ba01", "034a80a4009e2486ec5642e1444238ab46088a738791f99335c27472122f143697"], "sequence": 4294967293, "scriptSig": {"hex": "160014a85963e998bba1e81a87ad0f08418f1dd71ae034", "asm": "0014a85963e998bba1e81a87ad0f08418f1dd71ae034"}, "vout": 0, "txid": "ba760ce903b80cd22d0cac2c73407c69bace48de579d81066db25e96e6813f7e"}], "txid": "f0f50302b2e0649668b0cd12cebc5cac81b1e6d4b928157a97fd819d042f7c92", "blocktime": 1537872475, "version": 2, "confirmations": 11487, "time": 1537872475, "locktime": 0, "vsize": 166, "size": 247}