{"hash": "f0f7676a9b65cd3e2eaf9cc7c5426f27dcea4c88665638554797c0e5f4ef8fab", "blockhash": "0000000000000000001cda96e906b7601b7a6fb1a3b62bca570a9e5d8f4b3de1", "vout": [{"scriptPubKey": {"reqSigs": 1, "hex": "76a914dd23288ebd8e35276319b7edae2cf8eaa8e5330188ac", "addresses": ["1MAGTFCwg9LPrCtUv2YisKkhnfUAz1pwfU"], "asm": "OP_DUP OP_HASH160 dd23288ebd8e35276319b7edae2cf8eaa8e53301 OP_EQUALVERIFY OP_CHECKSIG", "type": "pubkeyhash"}, "value": 0.10326115, "n": 0}, {"scriptPubKey": {"reqSigs": 1, "hex": "a914ef88b43d2df3acba9fe83d6c48a89a566202329a87", "addresses": ["3PXZBknXFJcCRPNgANkb25PUhdhj9sMseg"], "asm": "OP_HASH160 ef88b43d2df3acba9fe83d6c48a89a566202329a OP_EQUAL", "type": "scripthash"}, "value": 0.02872938, "n": 1}, {"scriptPubKey": {"reqSigs": 1, "hex": "76a914f480dfa226bf0beb174278dd7a31ee312c6e97e688ac", "addresses": ["1PHpG6kPcAoDZrxRdbKWp58PYGbLsNwNtg"], "asm": "OP_DUP OP_HASH160 f480dfa226bf0beb174278dd7a31ee312c6e97e6 OP_EQUALVERIFY OP_CHECKSIG", "type": "pubkeyhash"}, "value": 9.136e-05, "n": 2}], "hex": "01000000025e48a682ebfa88d70fcbcbcce4b4374f4e460e56a20d04dd23585ca4c95a3bcd000000006b483045022100918fbd4c969472dfca790cd355920b92ee5a67f735fa9de16ebbdfe3e55a2c8902203288dbf1872ae4c38ce58151108925b83ee5a4e0ce4a3f06f1eb3e6cf8f889150121033f8e723e2d70be8ace50edeb500bd6fe55d65dd28e2345b79eb8ed7eab47b800ffffffffbb968b8bb83b114114cbf021e51b9668d1b2ce18aab5b086e71e13f7a1dc7233020000006b483045022100b01276402dc93a711eec75ff9bc6d5cc1b8b509d427a97f84bc1c54a13490d1e02203f9614909946bd4deb9d9777f4901e206880869f0220734171967563c70532810121035bf6add4d33e1275b53c043d483f153a6c9b4bce30bff0915e08baeb10d96ab1ffffffff0363909d00000000001976a914dd23288ebd8e35276319b7edae2cf8eaa8e5330188ac6ad62b000000000017a914ef88b43d2df3acba9fe83d6c48a89a566202329a87b0230000000000001976a914f480dfa226bf0beb174278dd7a31ee312c6e97e688ac00000000", "vin": [{"sequence": 4294967295, "scriptSig": {"hex": "483045022100918fbd4c969472dfca790cd355920b92ee5a67f735fa9de16ebbdfe3e55a2c8902203288dbf1872ae4c38ce58151108925b83ee5a4e0ce4a3f06f1eb3e6cf8f889150121033f8e723e2d70be8ace50edeb500bd6fe55d65dd28e2345b79eb8ed7eab47b800", "asm": "3045022100918fbd4c969472dfca790cd355920b92ee5a67f735fa9de16ebbdfe3e55a2c8902203288dbf1872ae4c38ce58151108925b83ee5a4e0ce4a3f06f1eb3e6cf8f88915[ALL] 033f8e723e2d70be8ace50edeb500bd6fe55d65dd28e2345b79eb8ed7eab47b800"}, "vout": 0, "txid": "cd3b5ac9a45c5823dd040da2560e464e4f37b4e4cccbcb0fd788faeb82a6485e"}, {"sequence": 4294967295, "scriptSig": {"hex": "483045022100b01276402dc93a711eec75ff9bc6d5cc1b8b509d427a97f84bc1c54a13490d1e02203f9614909946bd4deb9d9777f4901e206880869f0220734171967563c70532810121035bf6add4d33e1275b53c043d483f153a6c9b4bce30bff0915e08baeb10d96ab1", "asm": "3045022100b01276402dc93a711eec75ff9bc6d5cc1b8b509d427a97f84bc1c54a13490d1e02203f9614909946bd4deb9d9777f4901e206880869f0220734171967563c7053281[ALL] 035bf6add4d33e1275b53c043d483f153a6c9b4bce30bff0915e08baeb10d96ab1"}, "vout": 2, "txid": "3372dca1f7131ee786b0b5aa18ceb2d168961be521f0cb1441113bb88b8b96bb"}], "txid": "f0f7676a9b65cd3e2eaf9cc7c5426f27dcea4c88665638554797c0e5f4ef8fab", "blocktime": 1537873282, "version": 1, "confirmations": 11484, "time": 1537873282, "locktime": 0, "vsize": 406, "size": 406}