{"hash": "f0ff6971c15573a98a2bcd49d4e7d9e505f4ce2d5fcac7c2cb5f71f31b7c3f67", "blockhash": "0000000000000000001cda96e906b7601b7a6fb1a3b62bca570a9e5d8f4b3de1", "vout": [{"scriptPubKey": {"type": "nulldata", "hex": "6a4c50000077d500017b7451d3863b8d420c7093555b23cc0f42c2fc38c5e5bf9ae76da98a211a5bd994bab65537662fb9fa51cd26c93f5baa151f0612d711973bc782bc9a9526289ac0f6612cd74e33776ee4", "asm": "OP_RETURN 000077d500017b7451d3863b8d420c7093555b23cc0f42c2fc38c5e5bf9ae76da98a211a5bd994bab65537662fb9fa51cd26c93f5baa151f0612d711973bc782bc9a9526289ac0f6612cd74e33776ee4"}, "value": 0.0, "n": 0}, {"scriptPubKey": {"reqSigs": 1, "hex": "76a914efd4717f1b8b87a545a6dc5cf66b589f51063b3d88ac", "addresses": ["1Ns6zfra829umq7AwKV422GzmkBiQ5wsfG"], "asm": "OP_DUP OP_HASH160 efd4717f1b8b87a545a6dc5cf66b589f51063b3d OP_EQUALVERIFY OP_CHECKSIG", "type": "pubkeyhash"}, "value": 0.00109044, "n": 1}], "hex": "0100000001606fd54c4c478a9de10e7c72c3eec6ab8382453f1c8f98bfd0a464482c0dac04000000006a47304402207de57f94526435ab82da92ea12f0a3b09aaa535b558c718089872242f871659402203ba36a55110c2a0828af4d96bfccb3b8f9fe7d3ac027a4b265c6907d08cba7b2012102398317f121e858d4d21f13b4c7adbbad91cd79e5f4ec4a4b541930e29289bb9effffffff020000000000000000536a4c50000077d500017b7451d3863b8d420c7093555b23cc0f42c2fc38c5e5bf9ae76da98a211a5bd994bab65537662fb9fa51cd26c93f5baa151f0612d711973bc782bc9a9526289ac0f6612cd74e33776ee4f4a90100000000001976a914efd4717f1b8b87a545a6dc5cf66b589f51063b3d88ac00000000", "vin": [{"sequence": 4294967295, "scriptSig": {"hex": "47304402207de57f94526435ab82da92ea12f0a3b09aaa535b558c718089872242f871659402203ba36a55110c2a0828af4d96bfccb3b8f9fe7d3ac027a4b265c6907d08cba7b2012102398317f121e858d4d21f13b4c7adbbad91cd79e5f4ec4a4b541930e29289bb9e", "asm": "304402207de57f94526435ab82da92ea12f0a3b09aaa535b558c718089872242f871659402203ba36a55110c2a0828af4d96bfccb3b8f9fe7d3ac027a4b265c6907d08cba7b2[ALL] 02398317f121e858d4d21f13b4c7adbbad91cd79e5f4ec4a4b541930e29289bb9e"}, "vout": 0, "txid": "04ac0d2c4864a4d0bf988f1c3f458283abc6eec3727c0ee19d8a474c4cd56f60"}], "txid": "f0ff6971c15573a98a2bcd49d4e7d9e505f4ce2d5fcac7c2cb5f71f31b7c3f67", "blocktime": 1537873282, "version": 1, "confirmations": 11484, "time": 1537873282, "locktime": 0, "vsize": 283, "size": 283}