{"hash": "0314d14b97315b3f7fe07ae1122628b930962c6f69b94f9ba7d139f366699b8e", "blockhash": "0000000000000000001f76057863aec43deb6fa401d9628bb513d65a8098bfab", "vout": [{"scriptPubKey": {"reqSigs": 1, "hex": "76a914b723ae4c009e88657a3efa829eecd27c22b9771488ac", "addresses": ["1HhMQFiRYemg1YSh86KUfYhPtc44NXwJsA"], "asm": "OP_DUP OP_HASH160 b723ae4c009e88657a3efa829eecd27c22b97714 OP_EQUALVERIFY OP_CHECKSIG", "type": "pubkeyhash"}, "value": 0.0031, "n": 0}, {"scriptPubKey": {"reqSigs": 1, "hex": "76a9147a66100b4a6c367a12a7ba53d40031800da2f4c188ac", "addresses": ["1CABhqqqLSZSwAPvqFE7oijbAyyQwehR2p"], "asm": "OP_DUP OP_HASH160 7a66100b4a6c367a12a7ba53d40031800da2f4c1 OP_EQUALVERIFY OP_CHECKSIG", "type": "pubkeyhash"}, "value": 0.00245967, "n": 1}, {"scriptPubKey": {"reqSigs": 1, "hex": "a91448f17db0a11b31af7f583c4e08cebc6395a285e287", "addresses": ["38LhsSddpdVVbumgN6CnXpJdCcg9aC3a5w"], "asm": "OP_HASH160 48f17db0a11b31af7f583c4e08cebc6395a285e2 OP_EQUAL", "type": "scripthash"}, "value": 0.4285954, "n": 2}], "hex": "020000000001017e2c1c5bc8edcfaefd7648b81393481037ece21ddaf378e433412038440f262a020000001716001461d72e7a48e56cb0bb47d4b6ebc3f122f365e0f8feffffff03f0ba0400000000001976a914b723ae4c009e88657a3efa829eecd27c22b9771488accfc00300000000001976a9147a66100b4a6c367a12a7ba53d40031800da2f4c188ac14fc8d020000000017a91448f17db0a11b31af7f583c4e08cebc6395a285e2870247304402201bc76d652db389f7eb81b7bcc9fb0b7fbbf92aafbf08effcd2100af25992fcc50220487465230c7be8d2cfeaf73c285b5328d67d13960b4fb297bcf5e7a59edd705901210379610121d35ce0415e3123ec450af43fe50ae7ca742e469b336df660a18efcf2f6480800", "vin": [{"txinwitness": ["304402201bc76d652db389f7eb81b7bcc9fb0b7fbbf92aafbf08effcd2100af25992fcc50220487465230c7be8d2cfeaf73c285b5328d67d13960b4fb297bcf5e7a59edd705901", "0379610121d35ce0415e3123ec450af43fe50ae7ca742e469b336df660a18efcf2"], "sequence": 4294967294, "scriptSig": {"hex": "16001461d72e7a48e56cb0bb47d4b6ebc3f122f365e0f8", "asm": "001461d72e7a48e56cb0bb47d4b6ebc3f122f365e0f8"}, "vout": 2, "txid": "2a260f4438204133e478f3da1de2ec3710489313b84876fdaecfedc85b1c2c7e"}], "txid": "f102bebef93727d3244b92208e3a16d87a367a47a9148f1fef58278eada2aac2", "blocktime": 1537873891, "version": 2, "confirmations": 11475, "time": 1537873891, "locktime": 542966, "vsize": 202, "size": 283}