{"hash": "3e6cec4e0f80013221bfda31219193bdb53d6c15b3c7d920d725b96a391d4984", "blockhash": "0000000000000000001f0ddff1eddb255c1121bcd4da4f1bc9a0da00cae72433", "vout": [{"scriptPubKey": {"reqSigs": 1, "hex": "a914f226c4c547432c795d334b93099ecee65827f28987", "addresses": ["3PmPtfAAnyhuDKStVuyJ1nq4VH9NVw3sM7"], "asm": "OP_HASH160 f226c4c547432c795d334b93099ecee65827f289 OP_EQUAL", "type": "scripthash"}, "value": 0.02027044, "n": 0}, {"scriptPubKey": {"reqSigs": 1, "hex": "0014ac585f473b219b7a56842a9bbd6415fb9997e92a", "addresses": ["bc1q43v973emyxdh545y92dm6eq4lwve06f28nnvq5"], "asm": "0 ac585f473b219b7a56842a9bbd6415fb9997e92a", "type": "witness_v0_keyhash"}, "value": 0.52190456, "n": 1}], "hex": "02000000000101c60904c9b0b65a31342b749fd9ba65cb2a59dff9535f6e2f0c7af335e505791301000000171600140db77639e5c97fadab88706dcfc16471863445a0ffffffff0224ee1e000000000017a914f226c4c547432c795d334b93099ecee65827f28987f85c1c0300000000160014ac585f473b219b7a56842a9bbd6415fb9997e92a024830450221009926644b8dfaed354e1069d9cf8a39a1d67945e4d76e6a42ce48a33664a460450220173d222f0610839471d5fb51f72fce3d81c8c91463ade3624c182d57f82a87ca012102a33971938c22e4c4b8c22e96d73c915efcc33c5a032b96d833b1ae8eef3cde5e00000000", "vin": [{"txinwitness": ["30450221009926644b8dfaed354e1069d9cf8a39a1d67945e4d76e6a42ce48a33664a460450220173d222f0610839471d5fb51f72fce3d81c8c91463ade3624c182d57f82a87ca01", "02a33971938c22e4c4b8c22e96d73c915efcc33c5a032b96d833b1ae8eef3cde5e"], "sequence": 4294967295, "scriptSig": {"hex": "1600140db77639e5c97fadab88706dcfc16471863445a0", "asm": "00140db77639e5c97fadab88706dcfc16471863445a0"}, "vout": 1, "txid": "137905e535f37a0c2f6e5f53f9df592acb65bad99f742b34315ab6b0c90409c6"}], "txid": "f10749173b570e6102455bb2d3c59227d46274c71c2d6e3b02c39fb598000a2b", "blocktime": 1537872018, "version": 2, "confirmations": 11489, "time": 1537872018, "locktime": 0, "vsize": 165, "size": 247}