{"hash": "f1108cc0a86b5faebc525e82507d6bcb4d48cb2073ed8cd57d3043954e9f98cd", "blockhash": "00000000000000000004ffacab907a6b429b9a5745fa0b75af4234bf69dd7176", "vout": [{"scriptPubKey": {"reqSigs": 1, "hex": "76a91415440670511a7218b81c2a913475b170e51f7eee88ac", "addresses": ["12wSgVw1QUjsmC5tEKdm5woUu57rAZg9fB"], "asm": "OP_DUP OP_HASH160 15440670511a7218b81c2a913475b170e51f7eee OP_EQUALVERIFY OP_CHECKSIG", "type": "pubkeyhash"}, "value": 0.03519614, "n": 0}, {"scriptPubKey": {"reqSigs": 1, "hex": "a914af514d505091c415e578d959c54f8251df50181087", "addresses": ["3Hg1a5PjSvEEBbNztW2Y851Z8gN7Y7NVXa"], "asm": "OP_HASH160 af514d505091c415e578d959c54f8251df501810 OP_EQUAL", "type": "scripthash"}, "value": 0.036, "n": 1}], "hex": "0100000001201e07c0adeb1860cad2c498ffb460890254a843e308c375c6909637254e9e8b020000006a473044022066309f5e2aefaaa4b77755cd03c812566474cb184f3486cca78c9a18d4a8318f0220637e731c57c686d4100d588fb6766421fba5253e0dcc0ea915ba7a67011e744b012102252228e732a579541ee75c8388c3c312d8212ac41b52d54641e8f4e26f4b1343ffffffff027eb43500000000001976a91415440670511a7218b81c2a913475b170e51f7eee88ac80ee36000000000017a914af514d505091c415e578d959c54f8251df5018108700000000", "vin": [{"sequence": 4294967295, "scriptSig": {"hex": "473044022066309f5e2aefaaa4b77755cd03c812566474cb184f3486cca78c9a18d4a8318f0220637e731c57c686d4100d588fb6766421fba5253e0dcc0ea915ba7a67011e744b012102252228e732a579541ee75c8388c3c312d8212ac41b52d54641e8f4e26f4b1343", "asm": "3044022066309f5e2aefaaa4b77755cd03c812566474cb184f3486cca78c9a18d4a8318f0220637e731c57c686d4100d588fb6766421fba5253e0dcc0ea915ba7a67011e744b[ALL] 02252228e732a579541ee75c8388c3c312d8212ac41b52d54641e8f4e26f4b1343"}, "vout": 2, "txid": "8b9e4e25379690c675c308e343a854028960b4ff98c4d2ca6018ebadc0071e20"}], "txid": "f1108cc0a86b5faebc525e82507d6bcb4d48cb2073ed8cd57d3043954e9f98cd", "blocktime": 1537875543, "version": 1, "confirmations": 11464, "time": 1537875543, "locktime": 0, "vsize": 223, "size": 223}