{"hash": "f11f25559ce1ed6507ad2e5a73a5f26abe46c6498427c410310447889a7bd4ea", "blockhash": "00000000000000000024a2167bbff67b0be802c0b01cdd79e6331c2be6459f87", "vout": [{"scriptPubKey": {"reqSigs": 1, "hex": "76a9142c10cd7d1eaef73457730a2bab0a27b5588c5c8688ac", "addresses": ["151zrutkkw8ZV4KPx88pj8Y2Bfs8Ha27Qt"], "asm": "OP_DUP OP_HASH160 2c10cd7d1eaef73457730a2bab0a27b5588c5c86 OP_EQUALVERIFY OP_CHECKSIG", "type": "pubkeyhash"}, "value": 0.00182384, "n": 0}, {"scriptPubKey": {"reqSigs": 1, "hex": "a91477a292188f81bacaddb6dfe0bcef43fc8e6d2f6187", "addresses": ["3Cbb5yrApPvBzQ2eWRymAnm8xeCbp57bYb"], "asm": "OP_HASH160 77a292188f81bacaddb6dfe0bcef43fc8e6d2f61 OP_EQUAL", "type": "scripthash"}, "value": 0.069679, "n": 1}], "hex": "01000000017c92c95157e660f88b40fcdc2ffd16521c01d8cf3ae03633756588f3f0cbb53f000000008a4730440220142a5e76178f0f8ae67d079809d727c870a0be0e52da22f7465b989a75b5194f02203abbec0f2474801ea41bb847e618209ca80910f726162ded960fd87a87afd6ab0141046c8321683a9e9828539208d58bf861addd6f3b700d42e3074de380b81291f611e9b9096af82abf35625156e0bc7b5dd1738f22e0905ccfd6502a57b1a0ddffe0ffffffff0270c80200000000001976a9142c10cd7d1eaef73457730a2bab0a27b5588c5c8688ac5c526a000000000017a91477a292188f81bacaddb6dfe0bcef43fc8e6d2f618700000000", "vin": [{"sequence": 4294967295, "scriptSig": {"hex": "4730440220142a5e76178f0f8ae67d079809d727c870a0be0e52da22f7465b989a75b5194f02203abbec0f2474801ea41bb847e618209ca80910f726162ded960fd87a87afd6ab0141046c8321683a9e9828539208d58bf861addd6f3b700d42e3074de380b81291f611e9b9096af82abf35625156e0bc7b5dd1738f22e0905ccfd6502a57b1a0ddffe0", "asm": "30440220142a5e76178f0f8ae67d079809d727c870a0be0e52da22f7465b989a75b5194f02203abbec0f2474801ea41bb847e618209ca80910f726162ded960fd87a87afd6ab[ALL] 046c8321683a9e9828539208d58bf861addd6f3b700d42e3074de380b81291f611e9b9096af82abf35625156e0bc7b5dd1738f22e0905ccfd6502a57b1a0ddffe0"}, "vout": 0, "txid": "3fb5cbf0f38865753336e03acfd8011c5216fd2fdcfc408bf860e65751c9927c"}], "txid": "f11f25559ce1ed6507ad2e5a73a5f26abe46c6498427c410310447889a7bd4ea", "blocktime": 1537870564, "version": 1, "confirmations": 11515, "time": 1537870564, "locktime": 0, "vsize": 255, "size": 255}