{"hash": "f12535f1430d6281e6ba1380321b018a3fc07f25e94e356bf4f13c92b7dd5dea", "blockhash": "0000000000000000000baef3f32e3676a92c3b2e5da21b426e4f302fc371ce76", "vout": [{"scriptPubKey": {"reqSigs": 1, "hex": "76a91469e330245695186ab81cd5ccc7e44e7fcbd8baba88ac", "addresses": ["1Aet7Sopt43V5DC2uvpWUCmjjeLXDHUb5P"], "asm": "OP_DUP OP_HASH160 69e330245695186ab81cd5ccc7e44e7fcbd8baba OP_EQUALVERIFY OP_CHECKSIG", "type": "pubkeyhash"}, "value": 0.00090804, "n": 0}, {"scriptPubKey": {"type": "nulldata", "hex": "6a4c5000007824000162b613240aa35eef2c67b99f019d6ddc0f1b8ff117702940d64fa54d8eb2217dc4a4bc545d7f596347ecf581bbe05baa1e010613f1c9edb6d2e7bc9a9526289ac0f6612cd74e33776ee4", "asm": "OP_RETURN 00007824000162b613240aa35eef2c67b99f019d6ddc0f1b8ff117702940d64fa54d8eb2217dc4a4bc545d7f596347ecf581bbe05baa1e010613f1c9edb6d2e7bc9a9526289ac0f6612cd74e33776ee4"}, "value": 0.0, "n": 1}], "hex": "0100000001903f2c4eed4b92f8352125fe8090cc38c6f577fbd6d6e39d959bacde39eca829010000006b483045022100978f22f92104a92d4385a6b38a032cb7b258a58707257cd860154f3646a1f0ac0220107bc3e4db03da8824562be036cd98e2fad1ba45902eb12e457559dee56627fe0121038b1a3949189775999617b2b34665e3a88903ad615143558f6573cb0e3dd08359ffffffff02b4620100000000001976a91469e330245695186ab81cd5ccc7e44e7fcbd8baba88ac0000000000000000536a4c5000007824000162b613240aa35eef2c67b99f019d6ddc0f1b8ff117702940d64fa54d8eb2217dc4a4bc545d7f596347ecf581bbe05baa1e010613f1c9edb6d2e7bc9a9526289ac0f6612cd74e33776ee400000000", "vin": [{"sequence": 4294967295, "scriptSig": {"hex": "483045022100978f22f92104a92d4385a6b38a032cb7b258a58707257cd860154f3646a1f0ac0220107bc3e4db03da8824562be036cd98e2fad1ba45902eb12e457559dee56627fe0121038b1a3949189775999617b2b34665e3a88903ad615143558f6573cb0e3dd08359", "asm": "3045022100978f22f92104a92d4385a6b38a032cb7b258a58707257cd860154f3646a1f0ac0220107bc3e4db03da8824562be036cd98e2fad1ba45902eb12e457559dee56627fe[ALL] 038b1a3949189775999617b2b34665e3a88903ad615143558f6573cb0e3dd08359"}, "vout": 1, "txid": "29a8ec39deac9b959de3d6d6fb77f5c638cc9080fe252135f8924bed4e2c3f90"}], "txid": "f12535f1430d6281e6ba1380321b018a3fc07f25e94e356bf4f13c92b7dd5dea", "blocktime": 1537876114, "version": 1, "confirmations": 11460, "time": 1537876114, "locktime": 0, "vsize": 284, "size": 284}