{"hash": "f141a968973e72fd5e5832202fc26b45aaa30f99062d7ab61d6da7e17b539af1", "blockhash": "0000000000000000001cda96e906b7601b7a6fb1a3b62bca570a9e5d8f4b3de1", "vout": [{"scriptPubKey": {"reqSigs": 1, "hex": "76a914e3b9a842c1b2d4beb2f3feba059c791a96a6e56488ac", "addresses": ["1Mm6oEquarBjLPY8xGTeoMwqXGuVCredRq"], "asm": "OP_DUP OP_HASH160 e3b9a842c1b2d4beb2f3feba059c791a96a6e564 OP_EQUALVERIFY OP_CHECKSIG", "type": "pubkeyhash"}, "value": 0.05349089, "n": 0}], "hex": "0100000004083bf4168739ed134a0d3b9a36a100748888abc78a2c4cb1fefe57beb9274d98010000006b483045022100d7c049e145ef27e9df6b3c7bbc54e95bbe5777da4699b09ef0475a6d56a418aa022045065a2eb6c67a1f851ffccc8a968e30f81e06d112aaf829fcc1571ce6e68a8101210381956f05969153f96c037edcc59b020080dfbd3b61b92bb4f5814a39156af569ffffffffd072a440017c2528e08118c158a6e722914aaacd3b32fa8b6fd33a3e2025c7c0010000006b483045022100d27871dfbea38614a87f402fe319d7a7fa6ed7b58ae1a331a149d9b4a589f84b022048808d17bad14dbdbbfbd0c2ee56ce00d5006d88490f0db9da137c0dbb3d684c012102c5b7fbdf8a490d9fed92df4936582acfb337932493fd0fe7aac7a1c6cb9a0ceeffffffff8c91725b6d32854d4ec0f77217e071beefa8cc9db9e1803a5d1dd98e6fbb91c00100000069463043021f40075eb27a1ab326f5dafe41b79147ccd9d32d85b5e6b0bf49c490973f8eac0220437d35bba799fd9765fa1aa4f062dc97aff3f99198d8f65073be9bf8ff202b2a0121038c32457b227592c64023e62fb3c127729db59959520ee2e951a190dd82cac17dffffffff385486cd4f8f9dbf4567209122a7baeeb7ac852a3504013bcb8fc4ffec06d371000000006b483045022100e8c2036f96bb4fd77ba782b986645bbe88d95d9a1a01873d1e5c6b48edcefe4d022061ad252714957f0a429d52ede04a9ffc9969ef83acd6f029c64b1abf91fbcb7a012102ec8175efc73963e2cd007459f6f5d92d312a3162f6a089db4560e4d1937b66c1ffffffff01e19e5100000000001976a914e3b9a842c1b2d4beb2f3feba059c791a96a6e56488ac00000000", "vin": [{"sequence": 4294967295, "scriptSig": {"hex": "483045022100d7c049e145ef27e9df6b3c7bbc54e95bbe5777da4699b09ef0475a6d56a418aa022045065a2eb6c67a1f851ffccc8a968e30f81e06d112aaf829fcc1571ce6e68a8101210381956f05969153f96c037edcc59b020080dfbd3b61b92bb4f5814a39156af569", "asm": "3045022100d7c049e145ef27e9df6b3c7bbc54e95bbe5777da4699b09ef0475a6d56a418aa022045065a2eb6c67a1f851ffccc8a968e30f81e06d112aaf829fcc1571ce6e68a81[ALL] 0381956f05969153f96c037edcc59b020080dfbd3b61b92bb4f5814a39156af569"}, "vout": 1, "txid": "984d27b9be57fefeb14c2c8ac7ab88887400a1369a3b0d4a13ed398716f43b08"}, {"sequence": 4294967295, "scriptSig": {"hex": "483045022100d27871dfbea38614a87f402fe319d7a7fa6ed7b58ae1a331a149d9b4a589f84b022048808d17bad14dbdbbfbd0c2ee56ce00d5006d88490f0db9da137c0dbb3d684c012102c5b7fbdf8a490d9fed92df4936582acfb337932493fd0fe7aac7a1c6cb9a0cee", "asm": "3045022100d27871dfbea38614a87f402fe319d7a7fa6ed7b58ae1a331a149d9b4a589f84b022048808d17bad14dbdbbfbd0c2ee56ce00d5006d88490f0db9da137c0dbb3d684c[ALL] 02c5b7fbdf8a490d9fed92df4936582acfb337932493fd0fe7aac7a1c6cb9a0cee"}, "vout": 1, "txid": "c0c725203e3ad36f8bfa323bcdaa4a9122e7a658c11881e028257c0140a472d0"}, {"sequence": 4294967295, "scriptSig": {"hex": "463043021f40075eb27a1ab326f5dafe41b79147ccd9d32d85b5e6b0bf49c490973f8eac0220437d35bba799fd9765fa1aa4f062dc97aff3f99198d8f65073be9bf8ff202b2a0121038c32457b227592c64023e62fb3c127729db59959520ee2e951a190dd82cac17d", "asm": "3043021f40075eb27a1ab326f5dafe41b79147ccd9d32d85b5e6b0bf49c490973f8eac0220437d35bba799fd9765fa1aa4f062dc97aff3f99198d8f65073be9bf8ff202b2a[ALL] 038c32457b227592c64023e62fb3c127729db59959520ee2e951a190dd82cac17d"}, "vout": 1, "txid": "c091bb6f8ed91d5d3a80e1b99dcca8efbe71e01772f7c04e4d85326d5b72918c"}, {"sequence": 4294967295, "scriptSig": {"hex": "483045022100e8c2036f96bb4fd77ba782b986645bbe88d95d9a1a01873d1e5c6b48edcefe4d022061ad252714957f0a429d52ede04a9ffc9969ef83acd6f029c64b1abf91fbcb7a012102ec8175efc73963e2cd007459f6f5d92d312a3162f6a089db4560e4d1937b66c1", "asm": "3045022100e8c2036f96bb4fd77ba782b986645bbe88d95d9a1a01873d1e5c6b48edcefe4d022061ad252714957f0a429d52ede04a9ffc9969ef83acd6f029c64b1abf91fbcb7a[ALL] 02ec8175efc73963e2cd007459f6f5d92d312a3162f6a089db4560e4d1937b66c1"}, "vout": 0, "txid": "71d306ecffc48fcb3b0104352a85acb7eebaa72291206745bf9d8f4fcd865438"}], "txid": "f141a968973e72fd5e5832202fc26b45aaa30f99062d7ab61d6da7e17b539af1", "blocktime": 1537873282, "version": 1, "confirmations": 11480, "time": 1537873282, "locktime": 0, "vsize": 634, "size": 634}