{"hash": "f142bd479ebd11081bd0a2874bd63cb9174e75fd5cd6d31f6da8bfdd85b0e84a", "blockhash": "0000000000000000000e13cef7c366c0283d82e591d1acd082e914b08063cdf1", "vout": [{"scriptPubKey": {"type": "nulldata", "hex": "6a146f6d6e69000000000000001f0000035322bd4c00", "asm": "OP_RETURN 6f6d6e69000000000000001f0000035322bd4c00"}, "value": 0.0, "n": 0}, {"scriptPubKey": {"reqSigs": 1, "hex": "76a914e0e335de6a71dea7eff1ba3d0458e808aafccda888ac", "addresses": ["1MW6YpyPmcobpaGjcpKi116BHXxixuPLPb"], "asm": "OP_DUP OP_HASH160 e0e335de6a71dea7eff1ba3d0458e808aafccda8 OP_EQUALVERIFY OP_CHECKSIG", "type": "pubkeyhash"}, "value": 0.01999198, "n": 1}, {"scriptPubKey": {"reqSigs": 1, "hex": "76a914628a073fe8ce7a239e56a9158ebd5d291a8bc0d988ac", "addresses": ["19z2aBA5FYQm9bK1Q5UW5u7bJWHbZZ4Z5E"], "asm": "OP_DUP OP_HASH160 628a073fe8ce7a239e56a9158ebd5d291a8bc0d9 OP_EQUALVERIFY OP_CHECKSIG", "type": "pubkeyhash"}, "value": 5.46e-06, "n": 2}], "hex": "01000000017edf53b5128c9e1ea40fd3bf8866222e545e7de18728b9cb07cd9f9749c2b4f6010000006a4730440220638830648104ca829820679c9f06aee0a57b952742babb2626b6fb40806ae0ad022005129e4a091d0e07e5b2632e296f7302932702d9bfc69378030492220e01a68a0121033e570e5c6ac7edd44787d7d97ef1d3f133051188a87cd2507b1c9be8f1326c58feffffff030000000000000000166a146f6d6e69000000000000001f0000035322bd4c005e811e00000000001976a914e0e335de6a71dea7eff1ba3d0458e808aafccda888ac22020000000000001976a914628a073fe8ce7a239e56a9158ebd5d291a8bc0d988ac10490800", "vin": [{"sequence": 4294967294, "scriptSig": {"hex": "4730440220638830648104ca829820679c9f06aee0a57b952742babb2626b6fb40806ae0ad022005129e4a091d0e07e5b2632e296f7302932702d9bfc69378030492220e01a68a0121033e570e5c6ac7edd44787d7d97ef1d3f133051188a87cd2507b1c9be8f1326c58", "asm": "30440220638830648104ca829820679c9f06aee0a57b952742babb2626b6fb40806ae0ad022005129e4a091d0e07e5b2632e296f7302932702d9bfc69378030492220e01a68a[ALL] 033e570e5c6ac7edd44787d7d97ef1d3f133051188a87cd2507b1c9be8f1326c58"}, "vout": 1, "txid": "f6b4c249979fcd07cbb92887e17d5e542e226688bfd30fa41e9e8c12b553df7e"}], "txid": "f142bd479ebd11081bd0a2874bd63cb9174e75fd5cd6d31f6da8bfdd85b0e84a", "blocktime": 1537871767, "version": 1, "confirmations": 11495, "time": 1537871767, "locktime": 542992, "vsize": 256, "size": 256}