{"hash": "d41ffd8fcf1f930297fec502bee079be2ab90368f7300c245a4429fa91248ebd", "blockhash": "0000000000000000000e13cef7c366c0283d82e591d1acd082e914b08063cdf1", "vout": [{"scriptPubKey": {"reqSigs": 1, "hex": "a9146a1cc76539e763dc3ccafdd6bbd46148e558b80787", "addresses": ["3BN62UDKNx4fgL23gzYPJbNV6F9gmRSKbK"], "asm": "OP_HASH160 6a1cc76539e763dc3ccafdd6bbd46148e558b807 OP_EQUAL", "type": "scripthash"}, "value": 0.03473675, "n": 0}, {"scriptPubKey": {"reqSigs": 1, "hex": "001400f407aa37a9eecb81b3cddd2e6b7e4a7eab00f8", "addresses": ["bc1qqr6q023h48hvhqdnehwju6m7ffl2kq8cfaruwt"], "asm": "0 00f407aa37a9eecb81b3cddd2e6b7e4a7eab00f8", "type": "witness_v0_keyhash"}, "value": 0.16125889, "n": 1}], "hex": "01000000000101877749439e6d01cf25541beeadb6c1e51f5678c4683cfa59232a61af3beb7b9b0100000000ffffffff020b0135000000000017a9146a1cc76539e763dc3ccafdd6bbd46148e558b80787c10ff6000000000016001400f407aa37a9eecb81b3cddd2e6b7e4a7eab00f802483045022100afc71266fa14d184549d99af3df60cc56cb8740eab74a112e8f6ddf52d88a1d50220305c33e0fac787f81b426eef87eeeeadb4cd3599a16e3a023a78d6d56f024899012103ae452af6518ce4dd0edc005b07d515087ec3a502a9d84737d8829b887e5c507c00000000", "vin": [{"txinwitness": ["3045022100afc71266fa14d184549d99af3df60cc56cb8740eab74a112e8f6ddf52d88a1d50220305c33e0fac787f81b426eef87eeeeadb4cd3599a16e3a023a78d6d56f02489901", "03ae452af6518ce4dd0edc005b07d515087ec3a502a9d84737d8829b887e5c507c"], "sequence": 4294967295, "scriptSig": {"hex": "", "asm": ""}, "vout": 1, "txid": "9b7beb3baf612a2359fa3c68c478561fe5c1b6adee1b5425cf016d9e43497787"}], "txid": "f146eb92e1802a2bf8fe47035fe1ed697a041b22c5a71cbe194474bb3a10ca1a", "blocktime": 1537871767, "version": 1, "confirmations": 11495, "time": 1537871767, "locktime": 0, "vsize": 142, "size": 224}