{"hash": "f14649328163e9053203ff4dfcc3e6f00a61003717939b4b51e39356fe0af117", "blockhash": "0000000000000000001f76057863aec43deb6fa401d9628bb513d65a8098bfab", "vout": [{"scriptPubKey": {"reqSigs": 1, "hex": "76a9145c5b0de75819aaf05e82b19187980beda3fbf34b88ac", "addresses": ["19RLFDM4G8U5xybT4hwrEMPJVhuE1fwuMn"], "asm": "OP_DUP OP_HASH160 5c5b0de75819aaf05e82b19187980beda3fbf34b OP_EQUALVERIFY OP_CHECKSIG", "type": "pubkeyhash"}, "value": 0.085001, "n": 0}, {"scriptPubKey": {"reqSigs": 1, "hex": "76a914d4a5fe1fc08ba8ac2675c78c035774c0fe4d9c7688ac", "addresses": ["1LPP73PEkZRe2bknG5bmoXmaSWMaNqpj5G"], "asm": "OP_DUP OP_HASH160 d4a5fe1fc08ba8ac2675c78c035774c0fe4d9c76 OP_EQUALVERIFY OP_CHECKSIG", "type": "pubkeyhash"}, "value": 1.24979276, "n": 1}], "hex": "0100000001ae5d256a6708b906064bec85d668a5c397a89971465ccf5cbd2737f769b170e6010000006b483045022100eee04c71ecd7115b29c0cd7abfce4e567eac330cf361c0ce39fd40b3afcddb2002207647d1cea0e4e3baede12cc1c54a3f99016b2d3739585b674b9286bda420f1b8012103a07799b43f2d6eb01fdf1d3088d827d4874c16f4f68b5f036fa86fb3f8b79a55ffffffff0284b38100000000001976a9145c5b0de75819aaf05e82b19187980beda3fbf34b88ac4c087307000000001976a914d4a5fe1fc08ba8ac2675c78c035774c0fe4d9c7688ac00000000", "vin": [{"sequence": 4294967295, "scriptSig": {"hex": "483045022100eee04c71ecd7115b29c0cd7abfce4e567eac330cf361c0ce39fd40b3afcddb2002207647d1cea0e4e3baede12cc1c54a3f99016b2d3739585b674b9286bda420f1b8012103a07799b43f2d6eb01fdf1d3088d827d4874c16f4f68b5f036fa86fb3f8b79a55", "asm": "3045022100eee04c71ecd7115b29c0cd7abfce4e567eac330cf361c0ce39fd40b3afcddb2002207647d1cea0e4e3baede12cc1c54a3f99016b2d3739585b674b9286bda420f1b8[ALL] 03a07799b43f2d6eb01fdf1d3088d827d4874c16f4f68b5f036fa86fb3f8b79a55"}, "vout": 1, "txid": "e670b169f73727bd5ccf5c467199a897c3a568d685ec4b0606b908676a255dae"}], "txid": "f14649328163e9053203ff4dfcc3e6f00a61003717939b4b51e39356fe0af117", "blocktime": 1537873891, "version": 1, "confirmations": 11474, "time": 1537873891, "locktime": 0, "vsize": 226, "size": 226}