{"hash": "f149c3a792f4d1a2821464a477837014663a27ede1a738afd20358d2cce8d4e2", "blockhash": "00000000000000000017f5eb5941039fbcee6240d03bc1f2f8e35350df66a1d8", "vout": [{"scriptPubKey": {"reqSigs": 1, "hex": "76a9148efc3a5fbd7f9ec0d1cb5ff8cc003e80b145dc0188ac", "addresses": ["1E337MK96XHTdor8haf2AojBtTNQvwt4TH"], "asm": "OP_DUP OP_HASH160 8efc3a5fbd7f9ec0d1cb5ff8cc003e80b145dc01 OP_EQUALVERIFY OP_CHECKSIG", "type": "pubkeyhash"}, "value": 5.18757076, "n": 0}, {"scriptPubKey": {"reqSigs": 1, "hex": "76a91478d9095b4c878dc2ce41a10b17e2fc45a61c8d7388ac", "addresses": ["1C1z5z3Phir8xLQTZUtNWUS2EMjtgnJysF"], "asm": "OP_DUP OP_HASH160 78d9095b4c878dc2ce41a10b17e2fc45a61c8d73 OP_EQUALVERIFY OP_CHECKSIG", "type": "pubkeyhash"}, "value": 0.48, "n": 1}], "hex": "0200000001aba6fd1236293d4c34b5883581c84d8aafe53dfa849ffea19e4ed697f819350d000000006b483045022100c0455d840f5a4d157dc5dbb2ca04fade5f36cdd4187e328b9203769d90d35a4402206635c90655cb92c14f71af57f819ebef12e812283fc6a3ef8f8fc90d4def66f90121037c1147fb20be0d4564280f47caba05c4563d867b60ef01d789853bdaaa862afbfeffffff02d49aeb1e000000001976a9148efc3a5fbd7f9ec0d1cb5ff8cc003e80b145dc0188ac006cdc02000000001976a91478d9095b4c878dc2ce41a10b17e2fc45a61c8d7388ac15490800", "vin": [{"sequence": 4294967294, "scriptSig": {"hex": "483045022100c0455d840f5a4d157dc5dbb2ca04fade5f36cdd4187e328b9203769d90d35a4402206635c90655cb92c14f71af57f819ebef12e812283fc6a3ef8f8fc90d4def66f90121037c1147fb20be0d4564280f47caba05c4563d867b60ef01d789853bdaaa862afb", "asm": "3045022100c0455d840f5a4d157dc5dbb2ca04fade5f36cdd4187e328b9203769d90d35a4402206635c90655cb92c14f71af57f819ebef12e812283fc6a3ef8f8fc90d4def66f9[ALL] 037c1147fb20be0d4564280f47caba05c4563d867b60ef01d789853bdaaa862afb"}, "vout": 0, "txid": "0d3519f897d64e9ea1fe9f84fa3de5af8a4dc8813588b5344c3d293612fda6ab"}], "txid": "f149c3a792f4d1a2821464a477837014663a27ede1a738afd20358d2cce8d4e2", "blocktime": 1537874412, "version": 2, "confirmations": 11466, "time": 1537874412, "locktime": 542997, "vsize": 226, "size": 226}