{"hash": "f14c5579bde7149142d7541f480bfd20cfa0232bb967c09c7f9bae4a9111cd69", "blockhash": "0000000000000000001f76057863aec43deb6fa401d9628bb513d65a8098bfab", "vout": [{"scriptPubKey": {"reqSigs": 1, "hex": "76a914023bf5cf1568c730b4d1c0990bdec76fe088bcfc88ac", "addresses": ["1CpBVTy5M5FhqNPh6EcGQK5oRq3SNXuCm"], "asm": "OP_DUP OP_HASH160 023bf5cf1568c730b4d1c0990bdec76fe088bcfc OP_EQUALVERIFY OP_CHECKSIG", "type": "pubkeyhash"}, "value": 0.001353, "n": 0}, {"scriptPubKey": {"reqSigs": 1, "hex": "a914b2f059bf3550fbc07518b0cf3e74f7e46a68d58d87", "addresses": ["3J1A8YHWk1ZXmhGXXfqrZho4MMdSqWqMWA"], "asm": "OP_HASH160 b2f059bf3550fbc07518b0cf3e74f7e46a68d58d OP_EQUAL", "type": "scripthash"}, "value": 0.08260128, "n": 1}], "hex": "01000000017ea9d70763568b7b388dadfb0f726f6fc1247a8c826c5e7fbde85d460366cc6400000000da00483045022100b169fb7497ee5cb34757a6dc9242856bee2c0b16b630b212ac062c48f4eec5d9022013eaffb5d7311c2bf92309e7f7f9335ba90197b5208856a5d4cf6a9e365208e30147304402203ff922a7caeb4937bbc4e2ba3a854eec69eae1e823de171640cb93f1b16b96bd02206dad5a65f8bc09d86311f2b37ad86433c33ccbfcc282832b132d304c8202f1e20147522103a902f467ac15cdefa81aa7637d6ef867068d81ee8571aa9de1b01e13ad62f0ef210346b81165f2f8917c10e0b2a3a8bc402cc9c6786322d17b9fbf252d9b2065feb752aeffffffff0284100200000000001976a914023bf5cf1568c730b4d1c0990bdec76fe088bcfc88ac200a7e000000000017a914b2f059bf3550fbc07518b0cf3e74f7e46a68d58d8700000000", "vin": [{"sequence": 4294967295, "scriptSig": {"hex": "00483045022100b169fb7497ee5cb34757a6dc9242856bee2c0b16b630b212ac062c48f4eec5d9022013eaffb5d7311c2bf92309e7f7f9335ba90197b5208856a5d4cf6a9e365208e30147304402203ff922a7caeb4937bbc4e2ba3a854eec69eae1e823de171640cb93f1b16b96bd02206dad5a65f8bc09d86311f2b37ad86433c33ccbfcc282832b132d304c8202f1e20147522103a902f467ac15cdefa81aa7637d6ef867068d81ee8571aa9de1b01e13ad62f0ef210346b81165f2f8917c10e0b2a3a8bc402cc9c6786322d17b9fbf252d9b2065feb752ae", "asm": "0 3045022100b169fb7497ee5cb34757a6dc9242856bee2c0b16b630b212ac062c48f4eec5d9022013eaffb5d7311c2bf92309e7f7f9335ba90197b5208856a5d4cf6a9e365208e3[ALL] 304402203ff922a7caeb4937bbc4e2ba3a854eec69eae1e823de171640cb93f1b16b96bd02206dad5a65f8bc09d86311f2b37ad86433c33ccbfcc282832b132d304c8202f1e2[ALL] 522103a902f467ac15cdefa81aa7637d6ef867068d81ee8571aa9de1b01e13ad62f0ef210346b81165f2f8917c10e0b2a3a8bc402cc9c6786322d17b9fbf252d9b2065feb752ae"}, "vout": 0, "txid": "64cc6603465de8bd7f5e6c828c7a24c16f6f720ffbad8d387b8b566307d7a97e"}], "txid": "f14c5579bde7149142d7541f480bfd20cfa0232bb967c09c7f9bae4a9111cd69", "blocktime": 1537873891, "version": 1, "confirmations": 11478, "time": 1537873891, "locktime": 0, "vsize": 335, "size": 335}