{"hash": "f14d6c19cd5f56ddbdc2ccfd9a344ad216404c0539cca40ad83a03d607a066fa", "blockhash": "00000000000000000017f5eb5941039fbcee6240d03bc1f2f8e35350df66a1d8", "vout": [{"scriptPubKey": {"reqSigs": 1, "hex": "76a91401de76f03cc56569465ad927a3efdb4c6ef9823c88ac", "addresses": ["1AtBJbndTC8uxnV2wUrfc9bZHx3CDznJX"], "asm": "OP_DUP OP_HASH160 01de76f03cc56569465ad927a3efdb4c6ef9823c OP_EQUALVERIFY OP_CHECKSIG", "type": "pubkeyhash"}, "value": 0.00220002, "n": 0}, {"scriptPubKey": {"reqSigs": 1, "hex": "76a914bf18529d50d49e6b0c879da7dfae1ec51f799adc88ac", "addresses": ["1JRRCcTXPwd4JSUDooDywHihgaa7gxmh6s"], "asm": "OP_DUP OP_HASH160 bf18529d50d49e6b0c879da7dfae1ec51f799adc OP_EQUALVERIFY OP_CHECKSIG", "type": "pubkeyhash"}, "value": 0.01562451, "n": 1}], "hex": "01000000038a71f9353600b70119f76441f76d523cdbbc46f181082b92b6c27987a327752b010000006b48304502210099ec4aed5b9b316b200c0871065979cf6ae8b5cf2219e9f3d20acd920484c1c802207a83a61311bb7293c8901ec2e0e7d0a52b10a438675a02ef98d4869b7ba9245b012103d37757d32970e1b2dfef5eb00df193a6983261583c25847ab976377494a202bbfeffffff521e814963f7a9da6f758c8635598589e1f9535104d8c91e05b538785c745e81010000006a47304402207c600008702d04d93d6c538bf4a6a61a991a28e34e2563e10acba016e40038f10220416d421445e9b50d595c84efb5e46b2fc484a92c841ac8ce09831e4713cb9c49012103d37757d32970e1b2dfef5eb00df193a6983261583c25847ab976377494a202bbfeffffff744fa92daf64c711e9afc0624d96970923d8bada6c06ad3582a00cea8f86c5f2010000006b483045022100bda167f4683d04755662f6f2b7ce6826c599ac29093b90f8b47dd24e298f1eb802200e005c7ac934d3348b650a80ce96ec5a96af982ba184560c1411275eb27acba6012103d37757d32970e1b2dfef5eb00df193a6983261583c25847ab976377494a202bbfeffffff02625b0300000000001976a91401de76f03cc56569465ad927a3efdb4c6ef9823c88ac53d71700000000001976a914bf18529d50d49e6b0c879da7dfae1ec51f799adc88ac15490800", "vin": [{"sequence": 4294967294, "scriptSig": {"hex": "48304502210099ec4aed5b9b316b200c0871065979cf6ae8b5cf2219e9f3d20acd920484c1c802207a83a61311bb7293c8901ec2e0e7d0a52b10a438675a02ef98d4869b7ba9245b012103d37757d32970e1b2dfef5eb00df193a6983261583c25847ab976377494a202bb", "asm": "304502210099ec4aed5b9b316b200c0871065979cf6ae8b5cf2219e9f3d20acd920484c1c802207a83a61311bb7293c8901ec2e0e7d0a52b10a438675a02ef98d4869b7ba9245b[ALL] 03d37757d32970e1b2dfef5eb00df193a6983261583c25847ab976377494a202bb"}, "vout": 1, "txid": "2b7527a38779c2b6922b0881f146bcdb3c526df74164f71901b7003635f9718a"}, {"sequence": 4294967294, "scriptSig": {"hex": "47304402207c600008702d04d93d6c538bf4a6a61a991a28e34e2563e10acba016e40038f10220416d421445e9b50d595c84efb5e46b2fc484a92c841ac8ce09831e4713cb9c49012103d37757d32970e1b2dfef5eb00df193a6983261583c25847ab976377494a202bb", "asm": "304402207c600008702d04d93d6c538bf4a6a61a991a28e34e2563e10acba016e40038f10220416d421445e9b50d595c84efb5e46b2fc484a92c841ac8ce09831e4713cb9c49[ALL] 03d37757d32970e1b2dfef5eb00df193a6983261583c25847ab976377494a202bb"}, "vout": 1, "txid": "815e745c7838b5051ec9d8045153f9e189855935868c756fdaa9f76349811e52"}, {"sequence": 4294967294, "scriptSig": {"hex": "483045022100bda167f4683d04755662f6f2b7ce6826c599ac29093b90f8b47dd24e298f1eb802200e005c7ac934d3348b650a80ce96ec5a96af982ba184560c1411275eb27acba6012103d37757d32970e1b2dfef5eb00df193a6983261583c25847ab976377494a202bb", "asm": "3045022100bda167f4683d04755662f6f2b7ce6826c599ac29093b90f8b47dd24e298f1eb802200e005c7ac934d3348b650a80ce96ec5a96af982ba184560c1411275eb27acba6[ALL] 03d37757d32970e1b2dfef5eb00df193a6983261583c25847ab976377494a202bb"}, "vout": 1, "txid": "f2c5868fea0ca08235ad066cdabad8230997964d62c0afe911c764af2da94f74"}], "txid": "f14d6c19cd5f56ddbdc2ccfd9a344ad216404c0539cca40ad83a03d607a066fa", "blocktime": 1537874412, "version": 1, "confirmations": 11467, "time": 1537874412, "locktime": 542997, "vsize": 521, "size": 521}