{"hash": "61c3089356c20985c525f1987eec7817e9f8a7709f03b0d6f3d828dffbad3450", "blockhash": "0000000000000000000e13cef7c366c0283d82e591d1acd082e914b08063cdf1", "vout": [{"scriptPubKey": {"reqSigs": 1, "hex": "a914f96e642c09184c8007e1df9c1fbbf0d7fa803f6b87", "addresses": ["3QRtRRyAUSaePq6FeLQYzNf2cmNLUgSePo"], "asm": "OP_HASH160 f96e642c09184c8007e1df9c1fbbf0d7fa803f6b OP_EQUAL", "type": "scripthash"}, "value": 0.01000448, "n": 0}, {"scriptPubKey": {"reqSigs": 1, "hex": "a914551e034c0e363805bf660d350cffccd33ffe226587", "addresses": ["39T5KBSHyuBgowSmc6jZmo6mB8ctxbfiGp"], "asm": "OP_HASH160 551e034c0e363805bf660d350cffccd33ffe2265 OP_EQUAL", "type": "scripthash"}, "value": 0.0027406, "n": 1}], "hex": "020000000001029ff01ffe05eccd588a18473d618ab9bda391b7dac60c593b4eb26c55b9fd7a4100000000171600149e95dcb993e17ca079f8588f8abb7e3709f87794feffffffadaf18455bebd2af8012b6426f13db2c3b2a804f8244c9a8efd508f4188a522e0600000017160014fca28090ae629d1195c670bc9d04c382b1f090fdfeffffff0200440f000000000017a914f96e642c09184c8007e1df9c1fbbf0d7fa803f6b878c2e04000000000017a914551e034c0e363805bf660d350cffccd33ffe226587024730440220655969606a4fdd0bcb1e48e3e78513bf2f792b05a7114a7b7c2c2af19481d12c022037a91340acbd18e7585338eaf90bc5deac7d3ae6eeda0bd6d403a6be7d04552801210281c4e3055d3c832ac5ec622b62963fa30cdd5d09119adeeffdd89ba4bc38cb290248304502210098f44bf3636f9a5e57db133f6429f4768ae28440423cb5650f653d8b21f7433802204ac5fc870974996ab5080dfaacf58d85d9dc7fc66f3f42a9ca787ab0d0963c190121038f41234c26fb1fd5fcf7121beb02ebc39493dde7df09f1c07ac1728bfffc814610490800", "vin": [{"txinwitness": ["30440220655969606a4fdd0bcb1e48e3e78513bf2f792b05a7114a7b7c2c2af19481d12c022037a91340acbd18e7585338eaf90bc5deac7d3ae6eeda0bd6d403a6be7d04552801", "0281c4e3055d3c832ac5ec622b62963fa30cdd5d09119adeeffdd89ba4bc38cb29"], "sequence": 4294967294, "scriptSig": {"hex": "1600149e95dcb993e17ca079f8588f8abb7e3709f87794", "asm": "00149e95dcb993e17ca079f8588f8abb7e3709f87794"}, "vout": 0, "txid": "417afdb9556cb24e3b590cc6dab791a3bdb98a613d47188a58cdec05fe1ff09f"}, {"txinwitness": ["304502210098f44bf3636f9a5e57db133f6429f4768ae28440423cb5650f653d8b21f7433802204ac5fc870974996ab5080dfaacf58d85d9dc7fc66f3f42a9ca787ab0d0963c1901", "038f41234c26fb1fd5fcf7121beb02ebc39493dde7df09f1c07ac1728bfffc8146"], "sequence": 4294967294, "scriptSig": {"hex": "160014fca28090ae629d1195c670bc9d04c382b1f090fd", "asm": "0014fca28090ae629d1195c670bc9d04c382b1f090fd"}, "vout": 6, "txid": "2e528a18f408d5efa8c944824f802a3b2cdb136f42b61280afd2eb5b4518afad"}], "txid": "f156eefdc9d1fb85275d1fdd51f93e88437e0e9910e8ae25f5e5d7c876c32644", "blocktime": 1537871767, "version": 2, "confirmations": 11495, "time": 1537871767, "locktime": 542992, "vsize": 257, "size": 419}