{"hash": "f15ab5097ad1fdf1370bd7f2345c1ecd0fb60d079d28c157dc0bab124cd0a605", "blockhash": "0000000000000000000dcc0f55137456b1a82d3642486a52398922ac4d620174", "vout": [{"scriptPubKey": {"reqSigs": 1, "hex": "76a91468c25a4d056d134e439e864fb2de05d96f5cf77f88ac", "addresses": ["1AYv6pHjwsSRHpseaWe8P9HoK4uJYGcC7L"], "asm": "OP_DUP OP_HASH160 68c25a4d056d134e439e864fb2de05d96f5cf77f OP_EQUALVERIFY OP_CHECKSIG", "type": "pubkeyhash"}, "value": 0.014829, "n": 0}, {"scriptPubKey": {"type": "nulldata", "hex": "6a4c500000776c0001ab806348ac0458a304e2218a86aeaeacb577c031fc3a016b46dc7dc7d096c53662e1a68b38bd2bb20a9e62968ad45baa0878061399fb5ed936abbc9a9526289ac0f6612cd74e33776ee4", "asm": "OP_RETURN 0000776c0001ab806348ac0458a304e2218a86aeaeacb577c031fc3a016b46dc7dc7d096c53662e1a68b38bd2bb20a9e62968ad45baa0878061399fb5ed936abbc9a9526289ac0f6612cd74e33776ee4"}, "value": 0.0, "n": 1}], "hex": "0100000001a4a2f318a4cc33117695f9683e5ae32a8b69165fdcdf503752a6abcbc024b428000000006a473044022072d1fc49e99a0594294b8a417eb308068f53152319f495b1f080f7ad6539250d02202edc4b7f3b24e1553cfefb31af50531f2e7ac2563e0bf217360eb00ca02ebeb601210393a2111c77b0edab11145c79a805b5965ab13d11d04ebd904d439c21807a99f4ffffffff0294a01600000000001976a91468c25a4d056d134e439e864fb2de05d96f5cf77f88ac0000000000000000536a4c500000776c0001ab806348ac0458a304e2218a86aeaeacb577c031fc3a016b46dc7dc7d096c53662e1a68b38bd2bb20a9e62968ad45baa0878061399fb5ed936abbc9a9526289ac0f6612cd74e33776ee400000000", "vin": [{"sequence": 4294967295, "scriptSig": {"hex": "473044022072d1fc49e99a0594294b8a417eb308068f53152319f495b1f080f7ad6539250d02202edc4b7f3b24e1553cfefb31af50531f2e7ac2563e0bf217360eb00ca02ebeb601210393a2111c77b0edab11145c79a805b5965ab13d11d04ebd904d439c21807a99f4", "asm": "3044022072d1fc49e99a0594294b8a417eb308068f53152319f495b1f080f7ad6539250d02202edc4b7f3b24e1553cfefb31af50531f2e7ac2563e0bf217360eb00ca02ebeb6[ALL] 0393a2111c77b0edab11145c79a805b5965ab13d11d04ebd904d439c21807a99f4"}, "vout": 0, "txid": "28b424c0cbaba6523750dfdc5f16698b2ae35a3e68f995761133cca418f3a2a4"}], "txid": "f15ab5097ad1fdf1370bd7f2345c1ecd0fb60d079d28c157dc0bab124cd0a605", "blocktime": 1537870268, "version": 1, "confirmations": 11518, "time": 1537870268, "locktime": 0, "vsize": 283, "size": 283}