{"hash": "f15ada769f438c3e3daf4ce3a3c34e653a2ee311b425c5a165af6e4966e988e8", "blockhash": "00000000000000000018f53835495a110e01622372bf6ae95dc86f2b0ab887b0", "vout": [{"scriptPubKey": {"type": "nulldata", "hex": "6a146f6d6e69000000000000001f000000032ead2100", "asm": "OP_RETURN 6f6d6e69000000000000001f000000032ead2100"}, "value": 0.0, "n": 0}, {"scriptPubKey": {"reqSigs": 1, "hex": "76a914a25dec4d0011064ef106a983c39c7a540699f22088ac", "addresses": ["1FoWyxwPXuj4C6abqwhjDWdz6D4PZgYRjA"], "asm": "OP_DUP OP_HASH160 a25dec4d0011064ef106a983c39c7a540699f220 OP_EQUALVERIFY OP_CHECKSIG", "type": "pubkeyhash"}, "value": 5.46e-06, "n": 1}, {"scriptPubKey": {"reqSigs": 1, "hex": "76a9143cfae885218a5fa802c7c18890eaecb8682ac14d88ac", "addresses": ["16ZS7vXTQFLwp4DRMzM85QTsatqtvw68sk"], "asm": "OP_DUP OP_HASH160 3cfae885218a5fa802c7c18890eaecb8682ac14d OP_EQUALVERIFY OP_CHECKSIG", "type": "pubkeyhash"}, "value": 0.0049442, "n": 2}], "hex": "01000000014614110cf76e46ad78189fea674387395ea7cd4af45445982085fe72f237c3b2020000006b483045022100ac87bd711048d5aa932725b9a9a25ff63a81de91cc41ed8cfbde2838e6f5f81e02203e77cdf90ca47f418bdaad7ca3e8170ec92a9bd1245cd771f79e6f2db16830ab012102a2671478b60d909e47ce8c4b1b0939fdaee430ef1a456c9e9cdb38bb7d38cb2cfeffffff030000000000000000166a146f6d6e69000000000000001f000000032ead210022020000000000001976a914a25dec4d0011064ef106a983c39c7a540699f22088ac548b0700000000001976a9143cfae885218a5fa802c7c18890eaecb8682ac14d88ac0e490800", "vin": [{"sequence": 4294967294, "scriptSig": {"hex": "483045022100ac87bd711048d5aa932725b9a9a25ff63a81de91cc41ed8cfbde2838e6f5f81e02203e77cdf90ca47f418bdaad7ca3e8170ec92a9bd1245cd771f79e6f2db16830ab012102a2671478b60d909e47ce8c4b1b0939fdaee430ef1a456c9e9cdb38bb7d38cb2c", "asm": "3045022100ac87bd711048d5aa932725b9a9a25ff63a81de91cc41ed8cfbde2838e6f5f81e02203e77cdf90ca47f418bdaad7ca3e8170ec92a9bd1245cd771f79e6f2db16830ab[ALL] 02a2671478b60d909e47ce8c4b1b0939fdaee430ef1a456c9e9cdb38bb7d38cb2c"}, "vout": 2, "txid": "b2c337f272fe8520984554f44acda75e39874367ea9f1878ad466ef70c111446"}], "txid": "f15ada769f438c3e3daf4ce3a3c34e653a2ee311b425c5a165af6e4966e988e8", "blocktime": 1537870928, "version": 1, "confirmations": 11514, "time": 1537870928, "locktime": 542990, "vsize": 257, "size": 257}