{"hash": "f161aaa87fa8b105ddf007d71ff81c69c65af3c4e455844539270782a549e46c", "blockhash": "0000000000000000000e13cef7c366c0283d82e591d1acd082e914b08063cdf1", "vout": [{"scriptPubKey": {"reqSigs": 1, "hex": "76a914908aded8632229ddf0b97a88bbfe57a73e4f48ce88ac", "addresses": ["1EBGfWqDifvxq8JbL83Hs5zEdrNWBPWimf"], "asm": "OP_DUP OP_HASH160 908aded8632229ddf0b97a88bbfe57a73e4f48ce OP_EQUALVERIFY OP_CHECKSIG", "type": "pubkeyhash"}, "value": 0.00133384, "n": 0}, {"scriptPubKey": {"reqSigs": 1, "hex": "a9143a741b4667ce5752097b6ae9c42fcb112d6fd4e787", "addresses": ["3726CtoXUBQUtqSQ1qw2gfMtk1cPHPcJZc"], "asm": "OP_HASH160 3a741b4667ce5752097b6ae9c42fcb112d6fd4e7 OP_EQUAL", "type": "scripthash"}, "value": 0.0023, "n": 1}], "hex": "0100000001fcdbe310e883bb52b8a06a8089ef91eec8e54bec25496230278cb143803d8eb7010000006b4830450221008f19d5d0fbfb67fa2f6785b6c97904d4ad2fc131f4a55a36d8cf4c67f2c63be6022060dad0fdf1d93fe3695ef4a7752614f201c7182f1b979db16db2171333ab04b80121031bd45d25e321f9b94f48bc5c637230b0804b060cfe3bec72399a5dfca2237458fdffffff0208090200000000001976a914908aded8632229ddf0b97a88bbfe57a73e4f48ce88ac708203000000000017a9143a741b4667ce5752097b6ae9c42fcb112d6fd4e78710490800", "vin": [{"sequence": 4294967293, "scriptSig": {"hex": "4830450221008f19d5d0fbfb67fa2f6785b6c97904d4ad2fc131f4a55a36d8cf4c67f2c63be6022060dad0fdf1d93fe3695ef4a7752614f201c7182f1b979db16db2171333ab04b80121031bd45d25e321f9b94f48bc5c637230b0804b060cfe3bec72399a5dfca2237458", "asm": "30450221008f19d5d0fbfb67fa2f6785b6c97904d4ad2fc131f4a55a36d8cf4c67f2c63be6022060dad0fdf1d93fe3695ef4a7752614f201c7182f1b979db16db2171333ab04b8[ALL] 031bd45d25e321f9b94f48bc5c637230b0804b060cfe3bec72399a5dfca2237458"}, "vout": 1, "txid": "b78e3d8043b18c2730624925ec4be5c8ee91ef89806aa0b852bb83e810e3dbfc"}], "txid": "f161aaa87fa8b105ddf007d71ff81c69c65af3c4e455844539270782a549e46c", "blocktime": 1537871767, "version": 1, "confirmations": 11490, "time": 1537871767, "locktime": 542992, "vsize": 224, "size": 224}