{"hash": "f167a1b6d811b4762a2fc39d88d57ec3391e3fe2bb075ebe696c00e56608a6dc", "blockhash": "0000000000000000000e13cef7c366c0283d82e591d1acd082e914b08063cdf1", "vout": [{"scriptPubKey": {"reqSigs": 1, "hex": "76a914e8cea30989bd15530f819b766684b00dc7ba7cfa88ac", "addresses": ["1NDyJtNTjmwk5xPNhjgAMu4HDHigtobu1s"], "asm": "OP_DUP OP_HASH160 e8cea30989bd15530f819b766684b00dc7ba7cfa OP_EQUALVERIFY OP_CHECKSIG", "type": "pubkeyhash"}, "value": 13.91361087, "n": 0}, {"scriptPubKey": {"reqSigs": 1, "hex": "76a914e28e555994db4773cccf3e138a01f306bfeced9c88ac", "addresses": ["1MevDrPdF6m7eK5X9oJB3dxb9ebR8tv7WA"], "asm": "OP_DUP OP_HASH160 e28e555994db4773cccf3e138a01f306bfeced9c OP_EQUALVERIFY OP_CHECKSIG", "type": "pubkeyhash"}, "value": 0.00874351, "n": 1}], "hex": "020000000820e3b15bec8658d8eeb9de84ff45db44850c6e3af7a3af8f4da0f37913db2a1d010000006b483045022100b8386e46da0356be1c667052874835eac1946b1d117dfadd51e46387deb8c1570220392f72e91c501826bc745cde845f15c5f5f9724391b85183f59d69be307ca19f0121022d0a3db72ee78cb0fb3e59143ed8478db95cb0c0231a3cef802b5fbdc297c50ffeffffff2750163223eb145c8cb21a62de0f87d44c5f9c3def1f36a0f30c6178c2bca1fa0b0200006a47304402206f0241f34ecb1aa53043726214ea5040c1657c923a7589ec867e145e7c5e6278022034040175e8cf347243cd3cbd45e5b3f2b3be9df70b0dba70ae75ffea51bfb5d5012103a45408210c643c512b7f3f2182ef9921f35de4c91f30be3e8e42d92e58582be1feffffff4e2084678066e76f9f97ebdfc1cab08785fd03fec262641f23c93048ee6561ec000000006a4730440220752ab064fe72ed5510d3110c6c8e1353cf5684f73ff700fd3b817198f8d401cc02200534c2822b6e9cedd422d2fee5f10716919a036396538a6d61460d92ff321b4f0121023c345af65a97107f52bbb073a9fe52447357d3e1b39f94c5c393f7cc6cd50d8ffeffffff73a32f8fa8185f8b4da82c2ae04dbe539257a0cc2c920b701766f3152b2d33b3000000006b483045022100a3aee39a7d67e48cbced367206a15c4f91fa1fde76cf7702b15c690becc4ca740220702a18482febc4f5f7bfa31c812065fea6f51da7a2bbca39386cbcb7440747920121027362b4ce45fbb08c54f7d066793e02996b6ac8430f6d2f6f836f6e77613f9963feffffff7f803f7e022f5381cb54a48f56fb174bb943e9639b68b1fe02838007b741ee9e280000006a473044022028759f26808366e7d9e15017c3ab7bf20fe9e8c8288728568ee4b6780adbb0d002202863344c777bfbc128a3cd5cadd95c9472b9a323efcae8315e1833f552fe06ba0121023b83155b8831256590ac9eae6c2ec74728b19600a422323bfeb3c97e34d33544feffffffc0ffe871618f097d6ab6a25e524768eda604752123a3d4d5c350203265c05169eb0000006a47304402203c9cae635b30ebea0d506099f01404fb7f4208802d3efebf01cc8ec374eed5cc02207a5d3e9cd1f96ec7dbe1b0c68c20d7fbb9858e9b6315f05b6924281390cc3c1d01210322906b40e908fea4b78337131c16b1dc922ed8ff55a3f83ef2a8c6bf7333ac47feffffffd07413986ed5add30457487b6ef6e76e2d6075e9df5cb1a4ee30dc5274822b7b000000006b483045022100b215f3df6180416394b5e9f58f4bcd5b6232682b66d57085326d99c4d41142bc022071fe6851ce36dd684f6a2a7520ace0e47c9ec1029a43e0ba8fb3c28e44a17813012103883dbf341b372a8dbae53135b03527af03462b43762d372dde22f3837047e7affeffffffd2b35b88eb900bab40c2997b0cc4a5d2dba22ef44e19e141304e37968192f0cf000000006b48304502210094c3c4b19093f7eb4548727e27682fd091cd77e558e0d64bdb3ed12f78a7fac3022016cf10326bd18b568bc552c9f24cd6298d3694cf19df8cc11c5a3ad2b0f3d9ee01210212e7d1dacae0881cf3a004a21513509ad6b4216e178cd17334ba3006184442f6feffffff023f7cee52000000001976a914e8cea30989bd15530f819b766684b00dc7ba7cfa88ac6f570d00000000001976a914e28e555994db4773cccf3e138a01f306bfeced9c88acc2480800", "vin": [{"sequence": 4294967294, "scriptSig": {"hex": "483045022100b8386e46da0356be1c667052874835eac1946b1d117dfadd51e46387deb8c1570220392f72e91c501826bc745cde845f15c5f5f9724391b85183f59d69be307ca19f0121022d0a3db72ee78cb0fb3e59143ed8478db95cb0c0231a3cef802b5fbdc297c50f", "asm": "3045022100b8386e46da0356be1c667052874835eac1946b1d117dfadd51e46387deb8c1570220392f72e91c501826bc745cde845f15c5f5f9724391b85183f59d69be307ca19f[ALL] 022d0a3db72ee78cb0fb3e59143ed8478db95cb0c0231a3cef802b5fbdc297c50f"}, "vout": 1, "txid": "1d2adb1379f3a04d8fafa3f73a6e0c8544db45ff84deb9eed85886ec5bb1e320"}, {"sequence": 4294967294, "scriptSig": {"hex": "47304402206f0241f34ecb1aa53043726214ea5040c1657c923a7589ec867e145e7c5e6278022034040175e8cf347243cd3cbd45e5b3f2b3be9df70b0dba70ae75ffea51bfb5d5012103a45408210c643c512b7f3f2182ef9921f35de4c91f30be3e8e42d92e58582be1", "asm": "304402206f0241f34ecb1aa53043726214ea5040c1657c923a7589ec867e145e7c5e6278022034040175e8cf347243cd3cbd45e5b3f2b3be9df70b0dba70ae75ffea51bfb5d5[ALL] 03a45408210c643c512b7f3f2182ef9921f35de4c91f30be3e8e42d92e58582be1"}, "vout": 523, "txid": "faa1bcc278610cf3a0361fef3d9c5f4cd4870fde621ab28c5c14eb2332165027"}, {"sequence": 4294967294, "scriptSig": {"hex": "4730440220752ab064fe72ed5510d3110c6c8e1353cf5684f73ff700fd3b817198f8d401cc02200534c2822b6e9cedd422d2fee5f10716919a036396538a6d61460d92ff321b4f0121023c345af65a97107f52bbb073a9fe52447357d3e1b39f94c5c393f7cc6cd50d8f", "asm": "30440220752ab064fe72ed5510d3110c6c8e1353cf5684f73ff700fd3b817198f8d401cc02200534c2822b6e9cedd422d2fee5f10716919a036396538a6d61460d92ff321b4f[ALL] 023c345af65a97107f52bbb073a9fe52447357d3e1b39f94c5c393f7cc6cd50d8f"}, "vout": 0, "txid": "ec6165ee4830c9231f6462c2fe03fd8587b0cac1dfeb979f6fe766806784204e"}, {"sequence": 4294967294, "scriptSig": {"hex": "483045022100a3aee39a7d67e48cbced367206a15c4f91fa1fde76cf7702b15c690becc4ca740220702a18482febc4f5f7bfa31c812065fea6f51da7a2bbca39386cbcb7440747920121027362b4ce45fbb08c54f7d066793e02996b6ac8430f6d2f6f836f6e77613f9963", "asm": "3045022100a3aee39a7d67e48cbced367206a15c4f91fa1fde76cf7702b15c690becc4ca740220702a18482febc4f5f7bfa31c812065fea6f51da7a2bbca39386cbcb744074792[ALL] 027362b4ce45fbb08c54f7d066793e02996b6ac8430f6d2f6f836f6e77613f9963"}, "vout": 0, "txid": "b3332d2b15f36617700b922ccca0579253be4de02a2ca84d8b5f18a88f2fa373"}, {"sequence": 4294967294, "scriptSig": {"hex": "473044022028759f26808366e7d9e15017c3ab7bf20fe9e8c8288728568ee4b6780adbb0d002202863344c777bfbc128a3cd5cadd95c9472b9a323efcae8315e1833f552fe06ba0121023b83155b8831256590ac9eae6c2ec74728b19600a422323bfeb3c97e34d33544", "asm": "3044022028759f26808366e7d9e15017c3ab7bf20fe9e8c8288728568ee4b6780adbb0d002202863344c777bfbc128a3cd5cadd95c9472b9a323efcae8315e1833f552fe06ba[ALL] 023b83155b8831256590ac9eae6c2ec74728b19600a422323bfeb3c97e34d33544"}, "vout": 40, "txid": "9eee41b707808302feb1689b63e943b94b17fb568fa454cb81532f027e3f807f"}, {"sequence": 4294967294, "scriptSig": {"hex": "47304402203c9cae635b30ebea0d506099f01404fb7f4208802d3efebf01cc8ec374eed5cc02207a5d3e9cd1f96ec7dbe1b0c68c20d7fbb9858e9b6315f05b6924281390cc3c1d01210322906b40e908fea4b78337131c16b1dc922ed8ff55a3f83ef2a8c6bf7333ac47", "asm": "304402203c9cae635b30ebea0d506099f01404fb7f4208802d3efebf01cc8ec374eed5cc02207a5d3e9cd1f96ec7dbe1b0c68c20d7fbb9858e9b6315f05b6924281390cc3c1d[ALL] 0322906b40e908fea4b78337131c16b1dc922ed8ff55a3f83ef2a8c6bf7333ac47"}, "vout": 235, "txid": "6951c065322050c3d5d4a323217504a6ed6847525ea2b66a7d098f6171e8ffc0"}, {"sequence": 4294967294, "scriptSig": {"hex": "483045022100b215f3df6180416394b5e9f58f4bcd5b6232682b66d57085326d99c4d41142bc022071fe6851ce36dd684f6a2a7520ace0e47c9ec1029a43e0ba8fb3c28e44a17813012103883dbf341b372a8dbae53135b03527af03462b43762d372dde22f3837047e7af", "asm": "3045022100b215f3df6180416394b5e9f58f4bcd5b6232682b66d57085326d99c4d41142bc022071fe6851ce36dd684f6a2a7520ace0e47c9ec1029a43e0ba8fb3c28e44a17813[ALL] 03883dbf341b372a8dbae53135b03527af03462b43762d372dde22f3837047e7af"}, "vout": 0, "txid": "7b2b827452dc30eea4b15cdfe975602d6ee7f66e7b485704d3add56e981374d0"}, {"sequence": 4294967294, "scriptSig": {"hex": "48304502210094c3c4b19093f7eb4548727e27682fd091cd77e558e0d64bdb3ed12f78a7fac3022016cf10326bd18b568bc552c9f24cd6298d3694cf19df8cc11c5a3ad2b0f3d9ee01210212e7d1dacae0881cf3a004a21513509ad6b4216e178cd17334ba3006184442f6", "asm": "304502210094c3c4b19093f7eb4548727e27682fd091cd77e558e0d64bdb3ed12f78a7fac3022016cf10326bd18b568bc552c9f24cd6298d3694cf19df8cc11c5a3ad2b0f3d9ee[ALL] 0212e7d1dacae0881cf3a004a21513509ad6b4216e178cd17334ba3006184442f6"}, "vout": 0, "txid": "cff0928196374e3041e1194ef42ea2dbd2a5c40c7b99c240ab0b90eb885bb3d2"}], "txid": "f167a1b6d811b4762a2fc39d88d57ec3391e3fe2bb075ebe696c00e56608a6dc", "blocktime": 1537871767, "version": 2, "confirmations": 11490, "time": 1537871767, "locktime": 542914, "vsize": 1258, "size": 1258}