{"hash": "658dcc56ce3bb02226f5c421829aba57277098c76d476b85f199f5511e2ce8ff", "blockhash": "00000000000000000017f5eb5941039fbcee6240d03bc1f2f8e35350df66a1d8", "vout": [{"scriptPubKey": {"reqSigs": 1, "hex": "0014f04bca511cc0b95b04930370fc6eb854fc90ff2a", "addresses": ["bc1q7p9u55guczu4kpynqdc0cm4c2n7fple2mwkzen"], "asm": "0 f04bca511cc0b95b04930370fc6eb854fc90ff2a", "type": "witness_v0_keyhash"}, "value": 0.02158346, "n": 0}, {"scriptPubKey": {"reqSigs": 1, "hex": "76a914a38f9d7c406d9176e534d8ba35ec6692b3aaf32c88ac", "addresses": ["1FuqBpu1Qy4RrExz7HkkqwrSh4X4DFFYVm"], "asm": "OP_DUP OP_HASH160 a38f9d7c406d9176e534d8ba35ec6692b3aaf32c OP_EQUALVERIFY OP_CHECKSIG", "type": "pubkeyhash"}, "value": 0.018, "n": 1}], "hex": "010000000001016dce17f7b67df37ee033a9a06a3e55d3e7119043a0c5e853c373c468086a90e10000000000ffffffff020aef200000000000160014f04bca511cc0b95b04930370fc6eb854fc90ff2a40771b00000000001976a914a38f9d7c406d9176e534d8ba35ec6692b3aaf32c88ac024830450221009c73b78058596d88ce56cee4a93d932e5178e379262732e431733ae451758e6102205574ce5278c9a98a99372d491875a69b708a8b612ec6ab5659936f11abef801101210343ce5d4ef30fc0ebd2ce9c71e95be02ce7a888f420f9517eac821e0bbba1c59400000000", "vin": [{"txinwitness": ["30450221009c73b78058596d88ce56cee4a93d932e5178e379262732e431733ae451758e6102205574ce5278c9a98a99372d491875a69b708a8b612ec6ab5659936f11abef801101", "0343ce5d4ef30fc0ebd2ce9c71e95be02ce7a888f420f9517eac821e0bbba1c594"], "sequence": 4294967295, "scriptSig": {"hex": "", "asm": ""}, "vout": 0, "txid": "e1906a0868c473c353e8c5a0439011e7d3553e6aa0a933e07ef37db6f717ce6d"}], "txid": "f169210f9436da54024ff5d35ac75d7fae592fba70025d27a1edee8f2baedc03", "blocktime": 1537874412, "version": 1, "confirmations": 11467, "time": 1537874412, "locktime": 0, "vsize": 144, "size": 226}