{"hash": "f16a65467bc7187cdf9f0eec27a0206a9ed0fe300d8a84a52c4314345aa618a2", "blockhash": "0000000000000000001f76057863aec43deb6fa401d9628bb513d65a8098bfab", "vout": [{"scriptPubKey": {"reqSigs": 1, "hex": "76a9143a5932576eb51665b96ae593e35a00f348a382dc88ac", "addresses": ["16KX3cqMAdSXrsTaf81fJEDbahwDf9EHUV"], "asm": "OP_DUP OP_HASH160 3a5932576eb51665b96ae593e35a00f348a382dc OP_EQUALVERIFY OP_CHECKSIG", "type": "pubkeyhash"}, "value": 0.0101071, "n": 0}, {"scriptPubKey": {"reqSigs": 1, "hex": "76a914ca6403bf1afa4d85bd6da313affa8a5cafb7fd5588ac", "addresses": ["1KT9JtXZnXcMmZ9UGZCVZVdDw6qMsqLLkY"], "asm": "OP_DUP OP_HASH160 ca6403bf1afa4d85bd6da313affa8a5cafb7fd55 OP_EQUALVERIFY OP_CHECKSIG", "type": "pubkeyhash"}, "value": 0.0002, "n": 1}], "hex": "01000000022d3f14962f98ce4f1e7a11f90c8183afa130374edf4f9b361f3a5866268308d5000000006b483045022100ebd2e6bee550b3537107ea83d80403d62d66c88caa000fe44740d5d203a1fdc1022023a90f7fd8e8d54ebf387a6ebb60623d1f9ad9130c207583f7ea6c088473dd5e01210324f35cf245806dacda6ab2b296e2bfa4a1a486dfa30b607f2db7a117be9a03bcfeffffff2d3f14962f98ce4f1e7a11f90c8183afa130374edf4f9b361f3a5866268308d5010000006a473044022014bf5c3ebe2fa8ff4f41a1e7e9f0d996812928d660d732acb89f7120d7101ea2022033067668b69eda93086171f8f02b3016fba133564417e3cd5888c9a9ea3dc831012102d60100fdf090398865a94507d2afc3982c53ca3b8896e791f98311b833043045feffffff02166c0f00000000001976a9143a5932576eb51665b96ae593e35a00f348a382dc88ac204e0000000000001976a914ca6403bf1afa4d85bd6da313affa8a5cafb7fd5588ac14490800", "vin": [{"sequence": 4294967294, "scriptSig": {"hex": "483045022100ebd2e6bee550b3537107ea83d80403d62d66c88caa000fe44740d5d203a1fdc1022023a90f7fd8e8d54ebf387a6ebb60623d1f9ad9130c207583f7ea6c088473dd5e01210324f35cf245806dacda6ab2b296e2bfa4a1a486dfa30b607f2db7a117be9a03bc", "asm": "3045022100ebd2e6bee550b3537107ea83d80403d62d66c88caa000fe44740d5d203a1fdc1022023a90f7fd8e8d54ebf387a6ebb60623d1f9ad9130c207583f7ea6c088473dd5e[ALL] 0324f35cf245806dacda6ab2b296e2bfa4a1a486dfa30b607f2db7a117be9a03bc"}, "vout": 0, "txid": "d508832666583a1f369b4fdf4e3730a1af83810cf9117a1e4fce982f96143f2d"}, {"sequence": 4294967294, "scriptSig": {"hex": "473044022014bf5c3ebe2fa8ff4f41a1e7e9f0d996812928d660d732acb89f7120d7101ea2022033067668b69eda93086171f8f02b3016fba133564417e3cd5888c9a9ea3dc831012102d60100fdf090398865a94507d2afc3982c53ca3b8896e791f98311b833043045", "asm": "3044022014bf5c3ebe2fa8ff4f41a1e7e9f0d996812928d660d732acb89f7120d7101ea2022033067668b69eda93086171f8f02b3016fba133564417e3cd5888c9a9ea3dc831[ALL] 02d60100fdf090398865a94507d2afc3982c53ca3b8896e791f98311b833043045"}, "vout": 1, "txid": "d508832666583a1f369b4fdf4e3730a1af83810cf9117a1e4fce982f96143f2d"}], "txid": "f16a65467bc7187cdf9f0eec27a0206a9ed0fe300d8a84a52c4314345aa618a2", "blocktime": 1537873891, "version": 1, "confirmations": 11475, "time": 1537873891, "locktime": 542996, "vsize": 373, "size": 373}