{"hash": "f17060c5d5fe1f88697af349e9bbab1047e402f96f2de346cf670cda57f31f6c", "blockhash": "0000000000000000000e13cef7c366c0283d82e591d1acd082e914b08063cdf1", "vout": [{"scriptPubKey": {"reqSigs": 1, "hex": "a9146f57e6416b0f551c116deb7445092df24c3913e887", "addresses": ["3BqkECNGBPQFp68AWoLb74VSqmtrpcfK8B"], "asm": "OP_HASH160 6f57e6416b0f551c116deb7445092df24c3913e8 OP_EQUAL", "type": "scripthash"}, "value": 0.00281524, "n": 0}], "hex": "0100000001281c60b9812b5c4fc82872ecfaa318704430170567112b19b4470836f4cb61b0010000008a47304402200a387428897933f82f9c946915ec709a9dff0a9d25aa982d00386c38b85e6b47022016e70c22e0e635298d6dd5d1e07e5d6f8b1ee74ab5d58aa20e32bf0a3240d52f0141047890334b287af043129ab7e01ba29afc1e1fb56035ad588be1bf914a3c711c1af358429e41f088f686ac483561156dfccd012798cd44f350247fd58e8d59dd73ffffffff01b44b04000000000017a9146f57e6416b0f551c116deb7445092df24c3913e88700000000", "vin": [{"sequence": 4294967295, "scriptSig": {"hex": "47304402200a387428897933f82f9c946915ec709a9dff0a9d25aa982d00386c38b85e6b47022016e70c22e0e635298d6dd5d1e07e5d6f8b1ee74ab5d58aa20e32bf0a3240d52f0141047890334b287af043129ab7e01ba29afc1e1fb56035ad588be1bf914a3c711c1af358429e41f088f686ac483561156dfccd012798cd44f350247fd58e8d59dd73", "asm": "304402200a387428897933f82f9c946915ec709a9dff0a9d25aa982d00386c38b85e6b47022016e70c22e0e635298d6dd5d1e07e5d6f8b1ee74ab5d58aa20e32bf0a3240d52f[ALL] 047890334b287af043129ab7e01ba29afc1e1fb56035ad588be1bf914a3c711c1af358429e41f088f686ac483561156dfccd012798cd44f350247fd58e8d59dd73"}, "vout": 1, "txid": "b061cbf4360847b4192b1167051730447018a3faec7228c84f5c2b81b9601c28"}], "txid": "f17060c5d5fe1f88697af349e9bbab1047e402f96f2de346cf670cda57f31f6c", "blocktime": 1537871767, "version": 1, "confirmations": 11495, "time": 1537871767, "locktime": 0, "vsize": 221, "size": 221}