{"hash": "f1773efd50d7829b45f2a167c07ffdd6f8d0b05f621bce8f616698c143d15b5c", "blockhash": "0000000000000000001cda96e906b7601b7a6fb1a3b62bca570a9e5d8f4b3de1", "vout": [{"scriptPubKey": {"reqSigs": 1, "hex": "76a914a84f78506d6635f73049fb3841ea44c53728549288ac", "addresses": ["1GLwiu6yr6B5m85FnLjAheD72EU8ES163A"], "asm": "OP_DUP OP_HASH160 a84f78506d6635f73049fb3841ea44c537285492 OP_EQUALVERIFY OP_CHECKSIG", "type": "pubkeyhash"}, "value": 1.99999322, "n": 0}, {"scriptPubKey": {"reqSigs": 1, "hex": "76a914fa377d81bc07059bd2b6d87fcc5f375d193e779488ac", "addresses": ["1Pp2QVLP9Gx2mkSs8D89xZ18b5S7QtmjH2"], "asm": "OP_DUP OP_HASH160 fa377d81bc07059bd2b6d87fcc5f375d193e7794 OP_EQUALVERIFY OP_CHECKSIG", "type": "pubkeyhash"}, "value": 2.0, "n": 1}], "hex": "0100000001adc61a8c7b453524b79349fdf9872069660dbf67c7845e5124169704d6e2530d010000006a47304402205dff55031031e23dca6c0f9122a7a5c16ae337333ff9f3f31e58da1d112aa9dd02207030ba69fa043d7659f2935a130be9761c27fce4232fb1382b0dcd8a6602ae850121029e0f3188c8cca04f4dd927f51320bfabbe3a9231760cf89aebf2739147739ad9ffffffff025abfeb0b000000001976a914a84f78506d6635f73049fb3841ea44c53728549288ac00c2eb0b000000001976a914fa377d81bc07059bd2b6d87fcc5f375d193e779488ac00000000", "vin": [{"sequence": 4294967295, "scriptSig": {"hex": "47304402205dff55031031e23dca6c0f9122a7a5c16ae337333ff9f3f31e58da1d112aa9dd02207030ba69fa043d7659f2935a130be9761c27fce4232fb1382b0dcd8a6602ae850121029e0f3188c8cca04f4dd927f51320bfabbe3a9231760cf89aebf2739147739ad9", "asm": "304402205dff55031031e23dca6c0f9122a7a5c16ae337333ff9f3f31e58da1d112aa9dd02207030ba69fa043d7659f2935a130be9761c27fce4232fb1382b0dcd8a6602ae85[ALL] 029e0f3188c8cca04f4dd927f51320bfabbe3a9231760cf89aebf2739147739ad9"}, "vout": 1, "txid": "0d53e2d604971624515e84c767bf0d66692087f9fd4993b72435457b8c1ac6ad"}], "txid": "f1773efd50d7829b45f2a167c07ffdd6f8d0b05f621bce8f616698c143d15b5c", "blocktime": 1537873282, "version": 1, "confirmations": 11484, "time": 1537873282, "locktime": 0, "vsize": 225, "size": 225}