{"hash": "f17f03b2c6b1ca4bcbd1ff80e95c0b5d0a93f82ad3930d44c69c54e12bff02bd", "blockhash": "0000000000000000001cda96e906b7601b7a6fb1a3b62bca570a9e5d8f4b3de1", "vout": [{"scriptPubKey": {"reqSigs": 1, "hex": "76a9141d748bcd83b6f50af6d81afc771cf7ba9b2b2b3f88ac", "addresses": ["13gkDL3j9ytHcEtkhegARvYs1g9F5R4LLe"], "asm": "OP_DUP OP_HASH160 1d748bcd83b6f50af6d81afc771cf7ba9b2b2b3f OP_EQUALVERIFY OP_CHECKSIG", "type": "pubkeyhash"}, "value": 0.46173651, "n": 0}, {"scriptPubKey": {"reqSigs": 1, "hex": "76a9142a676169b34df83feb87c509f84b44888d5fb07488ac", "addresses": ["14sDE4Z7tYunyEoaVkLMey2N6wpL4wyFsc"], "asm": "OP_DUP OP_HASH160 2a676169b34df83feb87c509f84b44888d5fb074 OP_EQUALVERIFY OP_CHECKSIG", "type": "pubkeyhash"}, "value": 9.146e-05, "n": 1}], "hex": "0100000002e4b1e0654c85b2147b233fa98158b8604ae857e02cefa424ce602c7aad835a5c010000006a473044022070e318b7aa35ab601169998b57a56828a8dc7d85abefc9a6f10b5f3c39113144022044041a1ef17550d7b65d922309335f8b767c3717ee21de716a9c9e2d30a4d736012103b71efda3f350d5ace6da8548bd390e390558326069064577820f5102c74d469affffffff119c6366215e4d431fc7ba9883cd3b717c600876756f5bb4591caf7bd7f20f27020000006a473044022070bda14e210f576a30438037b5c139172166633d3f0e7d0872ee9e8d3d2eb2b4022059c9ab5336a41cee08081877b6ea6eb17870d189847c10e275082adfc968238a01210355f29e9d0b2b1e918085e5cde1aed2761fa80b6cae6c589c28a92febef3657e6ffffffff02d38dc002000000001976a9141d748bcd83b6f50af6d81afc771cf7ba9b2b2b3f88acba230000000000001976a9142a676169b34df83feb87c509f84b44888d5fb07488ac00000000", "vin": [{"sequence": 4294967295, "scriptSig": {"hex": "473044022070e318b7aa35ab601169998b57a56828a8dc7d85abefc9a6f10b5f3c39113144022044041a1ef17550d7b65d922309335f8b767c3717ee21de716a9c9e2d30a4d736012103b71efda3f350d5ace6da8548bd390e390558326069064577820f5102c74d469a", "asm": "3044022070e318b7aa35ab601169998b57a56828a8dc7d85abefc9a6f10b5f3c39113144022044041a1ef17550d7b65d922309335f8b767c3717ee21de716a9c9e2d30a4d736[ALL] 03b71efda3f350d5ace6da8548bd390e390558326069064577820f5102c74d469a"}, "vout": 1, "txid": "5c5a83ad7a2c60ce24a4ef2ce057e84a60b85881a93f237b14b2854c65e0b1e4"}, {"sequence": 4294967295, "scriptSig": {"hex": "473044022070bda14e210f576a30438037b5c139172166633d3f0e7d0872ee9e8d3d2eb2b4022059c9ab5336a41cee08081877b6ea6eb17870d189847c10e275082adfc968238a01210355f29e9d0b2b1e918085e5cde1aed2761fa80b6cae6c589c28a92febef3657e6", "asm": "3044022070bda14e210f576a30438037b5c139172166633d3f0e7d0872ee9e8d3d2eb2b4022059c9ab5336a41cee08081877b6ea6eb17870d189847c10e275082adfc968238a[ALL] 0355f29e9d0b2b1e918085e5cde1aed2761fa80b6cae6c589c28a92febef3657e6"}, "vout": 2, "txid": "270ff2d77baf1c59b45b6f757608607c713bcd8398bac71f434d5e2166639c11"}], "txid": "f17f03b2c6b1ca4bcbd1ff80e95c0b5d0a93f82ad3930d44c69c54e12bff02bd", "blocktime": 1537873282, "version": 1, "confirmations": 11484, "time": 1537873282, "locktime": 0, "vsize": 372, "size": 372}