{"hash": "f1883f45790d8d55098cda8c97c49d4382c6802dc015ff0bcb9d71c363314b70", "blockhash": "000000000000000000205f8b0775d31398ef75b89a5e8ec8d2c57b4dc0ac4c20", "vout": [{"scriptPubKey": {"reqSigs": 1, "hex": "76a914ad4634b16781f8f6fc1f862d841d49ebf452f3a588ac", "addresses": ["1GoC1B4GWdbnwzpCFNxqDb2zSL9UzQnwrW"], "asm": "OP_DUP OP_HASH160 ad4634b16781f8f6fc1f862d841d49ebf452f3a5 OP_EQUALVERIFY OP_CHECKSIG", "type": "pubkeyhash"}, "value": 23.89159374, "n": 0}, {"scriptPubKey": {"reqSigs": 1, "hex": "76a9148d5aef3108e3d846faa282b8638cadd0dd2cc69888ac", "addresses": ["1DtRDH4cG4pqbQPqMKaB1uaAb317ybSFzj"], "asm": "OP_DUP OP_HASH160 8d5aef3108e3d846faa282b8638cadd0dd2cc698 OP_EQUALVERIFY OP_CHECKSIG", "type": "pubkeyhash"}, "value": 0.11917494, "n": 1}], "hex": "02000000014a3819e0b37cc70890f4a8d96769f290ad42b682c9436cd37d86b1e9fd3cf4e4000000006b483045022100b6d0f0c5b18dddd1ec9200639dfb23814f6f598309a4bab3cfb8459a5bf85ab8022038d852b7491b6848afeabeb86822c185b054c748bd0a08b6feea01665630fa33012102cfd0c98eb906bfdb6ea92c0269875097a0c0a4d4bff582735c2daeb3eb501227ffffffff02cead678e000000001976a914ad4634b16781f8f6fc1f862d841d49ebf452f3a588acb6d8b500000000001976a9148d5aef3108e3d846faa282b8638cadd0dd2cc69888ac00000000", "vin": [{"sequence": 4294967295, "scriptSig": {"hex": "483045022100b6d0f0c5b18dddd1ec9200639dfb23814f6f598309a4bab3cfb8459a5bf85ab8022038d852b7491b6848afeabeb86822c185b054c748bd0a08b6feea01665630fa33012102cfd0c98eb906bfdb6ea92c0269875097a0c0a4d4bff582735c2daeb3eb501227", "asm": "3045022100b6d0f0c5b18dddd1ec9200639dfb23814f6f598309a4bab3cfb8459a5bf85ab8022038d852b7491b6848afeabeb86822c185b054c748bd0a08b6feea01665630fa33[ALL] 02cfd0c98eb906bfdb6ea92c0269875097a0c0a4d4bff582735c2daeb3eb501227"}, "vout": 0, "txid": "e4f43cfde9b1867dd36c43c982b642ad90f26967d9a8f49008c77cb3e019384a"}], "txid": "f1883f45790d8d55098cda8c97c49d4382c6802dc015ff0bcb9d71c363314b70", "blocktime": 1537871175, "version": 2, "confirmations": 11510, "time": 1537871175, "locktime": 0, "vsize": 226, "size": 226}