{"hash": "f58db1743f63f502a844eade91d8a6a476f21daf3dc8b4dc98a8a46242f92261", "blockhash": "00000000000000000017f5eb5941039fbcee6240d03bc1f2f8e35350df66a1d8", "vout": [{"scriptPubKey": {"reqSigs": 1, "hex": "0014de96936b12b9249a4bc6517a2e4be92c40f77341", "addresses": ["bc1qm6tfx6cjhyjf5j7x29azujlf93q0wu6pa4yx9p"], "asm": "0 de96936b12b9249a4bc6517a2e4be92c40f77341", "type": "witness_v0_keyhash"}, "value": 2.174e-05, "n": 0}, {"scriptPubKey": {"reqSigs": 1, "hex": "76a914c02b102babb6036a3f07ced07fe5e7062f524cc788ac", "addresses": ["1JX6KuwJao6GKFBF6Uwaxv6xPVhTB7PZNf"], "asm": "OP_DUP OP_HASH160 c02b102babb6036a3f07ced07fe5e7062f524cc7 OP_EQUALVERIFY OP_CHECKSIG", "type": "pubkeyhash"}, "value": 0.00124, "n": 1}], "hex": "0100000000010150148f2750a5250316ce71e7afa1d4bdae7dee1caee7e5b4334740869b9731710100000000ffffffff027e08000000000000160014de96936b12b9249a4bc6517a2e4be92c40f7734160e40100000000001976a914c02b102babb6036a3f07ced07fe5e7062f524cc788ac02483045022100c19a0942e4e221792ac2f35fa3d171c7c7c925230a7ca40f9f8ccc41a8cd6716022018a9e2319ad3e865efa114f15eb4a272f000bc34ccac5d42e76db87cb966cff90121034ddf2f6c53a50940623eb8ce370de57eaf7ae4180bdc4ac316aefd7127fd5d9500000000", "vin": [{"txinwitness": ["3045022100c19a0942e4e221792ac2f35fa3d171c7c7c925230a7ca40f9f8ccc41a8cd6716022018a9e2319ad3e865efa114f15eb4a272f000bc34ccac5d42e76db87cb966cff901", "034ddf2f6c53a50940623eb8ce370de57eaf7ae4180bdc4ac316aefd7127fd5d95"], "sequence": 4294967295, "scriptSig": {"hex": "", "asm": ""}, "vout": 1, "txid": "7131979b86404733b4e5e7ae1cee7daebdd4a1afe771ce160325a550278f1450"}], "txid": "f1893296049fd501e252c045ce7f423b07b34d9a31164ab0a9516ae06e33dc91", "blocktime": 1537874412, "version": 1, "confirmations": 11467, "time": 1537874412, "locktime": 0, "vsize": 144, "size": 226}