{"hash": "f18c104bad87f71c61f59ebc1a95083aec4d3eb82e41d08beecb078bb44047de", "blockhash": "00000000000000000024a2167bbff67b0be802c0b01cdd79e6331c2be6459f87", "vout": [{"scriptPubKey": {"reqSigs": 1, "hex": "76a9145d6be6aaa97e5fcfc6511d8f4dbda12d7e515cb688ac", "addresses": ["19Wy6wHp6N5GZyZXQVsQZUkRP28XLr8BxG"], "asm": "OP_DUP OP_HASH160 5d6be6aaa97e5fcfc6511d8f4dbda12d7e515cb6 OP_EQUALVERIFY OP_CHECKSIG", "type": "pubkeyhash"}, "value": 0.0064882, "n": 0}, {"scriptPubKey": {"type": "nulldata", "hex": "6a4c500000778000011c022e0c415768e7d361314ebcbefa6b8351586b4e86aeaeacb577c031fc76cb8f02c9cfe207060681f0f855d8e45baa0aa706144a1441cdbcb01d100759d4ba30d2c37bb011d97e02cf", "asm": "OP_RETURN 0000778000011c022e0c415768e7d361314ebcbefa6b8351586b4e86aeaeacb577c031fc76cb8f02c9cfe207060681f0f855d8e45baa0aa706144a1441cdbcb01d100759d4ba30d2c37bb011d97e02cf"}, "value": 0.0, "n": 1}], "hex": "0100000001764bc239d00fe397abb7a69c0c9cc5a44b04784a8c4106067df3373ae946c1bf010000006a47304402207b113fcac880f74622fd2efb39c875c8036b19d242a455e7a276b18c0de0cc8702204310fd14d2022a5ea1763d3c637e8dca7b8e3a19cea9615fd8998cc3af9f2ff8012103d1ae699ca674eccd24d57e5f46b17df0af5b1a25e690d5d168dc1efbdc3f57daffffffff0274e60900000000001976a9145d6be6aaa97e5fcfc6511d8f4dbda12d7e515cb688ac0000000000000000536a4c500000778000011c022e0c415768e7d361314ebcbefa6b8351586b4e86aeaeacb577c031fc76cb8f02c9cfe207060681f0f855d8e45baa0aa706144a1441cdbcb01d100759d4ba30d2c37bb011d97e02cf00000000", "vin": [{"sequence": 4294967295, "scriptSig": {"hex": "47304402207b113fcac880f74622fd2efb39c875c8036b19d242a455e7a276b18c0de0cc8702204310fd14d2022a5ea1763d3c637e8dca7b8e3a19cea9615fd8998cc3af9f2ff8012103d1ae699ca674eccd24d57e5f46b17df0af5b1a25e690d5d168dc1efbdc3f57da", "asm": "304402207b113fcac880f74622fd2efb39c875c8036b19d242a455e7a276b18c0de0cc8702204310fd14d2022a5ea1763d3c637e8dca7b8e3a19cea9615fd8998cc3af9f2ff8[ALL] 03d1ae699ca674eccd24d57e5f46b17df0af5b1a25e690d5d168dc1efbdc3f57da"}, "vout": 1, "txid": "bfc146e93a37f37d0606418c4a78044ba4c59c0c9ca6b7ab97e30fd039c24b76"}], "txid": "f18c104bad87f71c61f59ebc1a95083aec4d3eb82e41d08beecb078bb44047de", "blocktime": 1537870564, "version": 1, "confirmations": 11515, "time": 1537870564, "locktime": 0, "vsize": 283, "size": 283}