{"hash": "1692ffc9182499a028954638b1cabab71e09e9ee279254d89d810c794540089c", "blockhash": "0000000000000000000e13cef7c366c0283d82e591d1acd082e914b08063cdf1", "vout": [{"scriptPubKey": {"reqSigs": 1, "hex": "a9146fea10a8dc0f48334ed3e9755fa3eac25288bd8a87", "addresses": ["3BtmKxqgXTn9YbHML8nWHyf1ASPdZTc8kh"], "asm": "OP_HASH160 6fea10a8dc0f48334ed3e9755fa3eac25288bd8a OP_EQUAL", "type": "scripthash"}, "value": 0.00968599, "n": 0}, {"scriptPubKey": {"reqSigs": 1, "hex": "00140c9f708fc79d61e335f407f239c9e2750bbe9626", "addresses": ["bc1qpj0hpr78n4s7xd05qlernj0zw59ma93xtpw9nw"], "asm": "0 0c9f708fc79d61e335f407f239c9e2750bbe9626", "type": "witness_v0_keyhash"}, "value": 0.50921164, "n": 1}], "hex": "01000000000101ef7dbd52c35778b80c3860db838b37d26fd8964056af22d737df08db9f47c87601000000171600147ec9c0c3286c1ea06f7a0878983d703c2d8d28acffffffff0297c70e000000000017a9146fea10a8dc0f48334ed3e9755fa3eac25288bd8a87ccfe0803000000001600140c9f708fc79d61e335f407f239c9e2750bbe962602473044022054d8105997bfc1c0a91ceeb202165ab0e2b9b2c52d58ed16892a72c29847d514022073d80ddd989f9e6414b5cad25fb0e4c60207114f9b7345f10cf8c0a3f3dcc2f0012102a9a69a63b0f3a118219fbd90b4f0b4bfaa9da959c03603dfe6edb02ef9f8cd0900000000", "vin": [{"txinwitness": ["3044022054d8105997bfc1c0a91ceeb202165ab0e2b9b2c52d58ed16892a72c29847d514022073d80ddd989f9e6414b5cad25fb0e4c60207114f9b7345f10cf8c0a3f3dcc2f001", "02a9a69a63b0f3a118219fbd90b4f0b4bfaa9da959c03603dfe6edb02ef9f8cd09"], "sequence": 4294967295, "scriptSig": {"hex": "1600147ec9c0c3286c1ea06f7a0878983d703c2d8d28ac", "asm": "00147ec9c0c3286c1ea06f7a0878983d703c2d8d28ac"}, "vout": 1, "txid": "76c8479fdb08df37d722af564096d86fd2378b83db60380cb87857c352bd7def"}], "txid": "f18d451e0452e1b24248c68ffa54ae0a53dbded6468e53319e47ea840b8af4ae", "blocktime": 1537871767, "version": 1, "confirmations": 11495, "time": 1537871767, "locktime": 0, "vsize": 165, "size": 246}