{"hash": "f19a03780a834c5d5e1a71572912814aac679815039a4aa3e957b69468735c44", "blockhash": "00000000000000000017f5eb5941039fbcee6240d03bc1f2f8e35350df66a1d8", "vout": [{"scriptPubKey": {"reqSigs": 1, "hex": "a9148532016d5516841a8c0350afff10e7e97a89677887", "addresses": ["3DqHhWGWwbM2vLpUnKDp4CFmprjkjedsJD"], "asm": "OP_HASH160 8532016d5516841a8c0350afff10e7e97a896778 OP_EQUAL", "type": "scripthash"}, "value": 0.00503574, "n": 0}, {"scriptPubKey": {"reqSigs": 1, "hex": "76a91436e4f5d1e1b265a4709ff647914df61fff9bad0c88ac", "addresses": ["161Fmo6e7Musm8BLhibWk5aMprw1MZxk5u"], "asm": "OP_DUP OP_HASH160 36e4f5d1e1b265a4709ff647914df61fff9bad0c OP_EQUALVERIFY OP_CHECKSIG", "type": "pubkeyhash"}, "value": 0.10548231, "n": 1}], "hex": "01000000010626500988605fd997ede2ad861fe521acb60209e3d0f9a1af897859208d99a7010000006b483045022100dcc3bcb60c869da3248020a7c320ac456b9b0db32bc1f7a6f597f5fe35210b970220628ffdb81b4c6cbbeb1131cbd566667ea327d835b243d2273aae89a0a79acad6012102a1025733bff8dcf98a19306066766642e8e8b7b29ddd0d7bbb0cfb54429c85ccffffffff0216af07000000000017a9148532016d5516841a8c0350afff10e7e97a8967788707f4a000000000001976a91436e4f5d1e1b265a4709ff647914df61fff9bad0c88ac00000000", "vin": [{"sequence": 4294967295, "scriptSig": {"hex": "483045022100dcc3bcb60c869da3248020a7c320ac456b9b0db32bc1f7a6f597f5fe35210b970220628ffdb81b4c6cbbeb1131cbd566667ea327d835b243d2273aae89a0a79acad6012102a1025733bff8dcf98a19306066766642e8e8b7b29ddd0d7bbb0cfb54429c85cc", "asm": "3045022100dcc3bcb60c869da3248020a7c320ac456b9b0db32bc1f7a6f597f5fe35210b970220628ffdb81b4c6cbbeb1131cbd566667ea327d835b243d2273aae89a0a79acad6[ALL] 02a1025733bff8dcf98a19306066766642e8e8b7b29ddd0d7bbb0cfb54429c85cc"}, "vout": 1, "txid": "a7998d20597889afa1f9d0e30902b6ac21e51f86ade2ed97d95f608809502606"}], "txid": "f19a03780a834c5d5e1a71572912814aac679815039a4aa3e957b69468735c44", "blocktime": 1537874412, "version": 1, "confirmations": 11467, "time": 1537874412, "locktime": 0, "vsize": 224, "size": 224}