{"hash": "f19a0b3117c6c59ace6239e23d659f18a8baef32c4bf64e8aa3b28cdb3c7952a", "blockhash": "00000000000000000017f5eb5941039fbcee6240d03bc1f2f8e35350df66a1d8", "vout": [{"scriptPubKey": {"reqSigs": 1, "hex": "76a914a98c653fbac145e9b2a2d0486513ace8f2b7ecca88ac", "addresses": ["1GTVPGf7gDt2z1sMKVkFfVSjGUXL6X3Zcu"], "asm": "OP_DUP OP_HASH160 a98c653fbac145e9b2a2d0486513ace8f2b7ecca OP_EQUALVERIFY OP_CHECKSIG", "type": "pubkeyhash"}, "value": 12.10943325, "n": 0}, {"scriptPubKey": {"reqSigs": 1, "hex": "a9141a25f37305c1ed9710de9862a46c32429b40c6c587", "addresses": ["345GxQoegFGq52nzZiWU4PL8LNCEkcscPG"], "asm": "OP_HASH160 1a25f37305c1ed9710de9862a46c32429b40c6c5 OP_EQUAL", "type": "scripthash"}, "value": 60.0, "n": 1}], "hex": "0100000004501b344b6473625dbe53f6643f2a671b33992f4dcca6acabb4b1a85f850ef858000000006a47304402205f8373229f040dd1512bd5db5b3d71dfdae1854fc6a1b6147298e2cd9f86def202205d8c3d843ab115fb0d74e2feadb56e3e30ac5406c95c3d764a1e5b0b7282f94b01210252def854940e0943070037c076732087795c978ee41a27d24889aa98ea0b8d1fffffffffca070101f044be81aa2bf6045e3469cb5e1ae8008fdaf8d551fdd0712fbfb079010000006b483045022100e03e737cd00400141a4b105107b2c4d24361232ba1dd9371e9ba7d07ef45fde9022040fde422f9ade0c7e2a190cb055196c08b540d2d01c3d51f542c62a4aecdb5bc01210360b0b64c8146bd0331612c8def18dd671c47c895c965e193e5ab5d8078fa8e68ffffffffa90487bfc2b770fd7e33f324436dc813530ecb855ef238155118c3eac33d4f7d010000006a473044022018579e13119fe7d58974fb6f1f75f51a8d491c0cf5335386f8ad3aae2ca5cd3d022034065a0f106e92e2774b8da7a22070a6f85005aff96664a88c04f63edae0ec03012103f3ff8ffe08e16b797fc5b2e5faed7e9da784caf04cc62bf70ff1c727ffb226d2ffffffffcee0cb2d4f4c7660785b43c14e872b4e7405dc4bb92d86d2609f64c1901bd58d000000006b483045022100823f251765b762aa90d2a82650881ddeb58be7644104d81679149d24ea80867102206182298abac6064c0b706e34d9fccaa7ad52c760364eaf7222ade3274e80e7f501210258b1338d93eafd2fa02a53c0a495964df8b110c63aa04aa26122ad45220ece03ffffffff025d872d48000000001976a914a98c653fbac145e9b2a2d0486513ace8f2b7ecca88ac00bca0650100000017a9141a25f37305c1ed9710de9862a46c32429b40c6c58700000000", "vin": [{"sequence": 4294967295, "scriptSig": {"hex": "47304402205f8373229f040dd1512bd5db5b3d71dfdae1854fc6a1b6147298e2cd9f86def202205d8c3d843ab115fb0d74e2feadb56e3e30ac5406c95c3d764a1e5b0b7282f94b01210252def854940e0943070037c076732087795c978ee41a27d24889aa98ea0b8d1f", "asm": "304402205f8373229f040dd1512bd5db5b3d71dfdae1854fc6a1b6147298e2cd9f86def202205d8c3d843ab115fb0d74e2feadb56e3e30ac5406c95c3d764a1e5b0b7282f94b[ALL] 0252def854940e0943070037c076732087795c978ee41a27d24889aa98ea0b8d1f"}, "vout": 0, "txid": "58f80e855fa8b1b4abaca6cc4d2f99331b672a3f64f653be5d6273644b341b50"}, {"sequence": 4294967295, "scriptSig": {"hex": "483045022100e03e737cd00400141a4b105107b2c4d24361232ba1dd9371e9ba7d07ef45fde9022040fde422f9ade0c7e2a190cb055196c08b540d2d01c3d51f542c62a4aecdb5bc01210360b0b64c8146bd0331612c8def18dd671c47c895c965e193e5ab5d8078fa8e68", "asm": "3045022100e03e737cd00400141a4b105107b2c4d24361232ba1dd9371e9ba7d07ef45fde9022040fde422f9ade0c7e2a190cb055196c08b540d2d01c3d51f542c62a4aecdb5bc[ALL] 0360b0b64c8146bd0331612c8def18dd671c47c895c965e193e5ab5d8078fa8e68"}, "vout": 1, "txid": "79b0bf2f71d0fd51d5f8da8f00e81a5ecb69345e04f62baa81be44f0010107ca"}, {"sequence": 4294967295, "scriptSig": {"hex": "473044022018579e13119fe7d58974fb6f1f75f51a8d491c0cf5335386f8ad3aae2ca5cd3d022034065a0f106e92e2774b8da7a22070a6f85005aff96664a88c04f63edae0ec03012103f3ff8ffe08e16b797fc5b2e5faed7e9da784caf04cc62bf70ff1c727ffb226d2", "asm": "3044022018579e13119fe7d58974fb6f1f75f51a8d491c0cf5335386f8ad3aae2ca5cd3d022034065a0f106e92e2774b8da7a22070a6f85005aff96664a88c04f63edae0ec03[ALL] 03f3ff8ffe08e16b797fc5b2e5faed7e9da784caf04cc62bf70ff1c727ffb226d2"}, "vout": 1, "txid": "7d4f3dc3eac318511538f25e85cb0e5313c86d4324f3337efd70b7c2bf8704a9"}, {"sequence": 4294967295, "scriptSig": {"hex": "483045022100823f251765b762aa90d2a82650881ddeb58be7644104d81679149d24ea80867102206182298abac6064c0b706e34d9fccaa7ad52c760364eaf7222ade3274e80e7f501210258b1338d93eafd2fa02a53c0a495964df8b110c63aa04aa26122ad45220ece03", "asm": "3045022100823f251765b762aa90d2a82650881ddeb58be7644104d81679149d24ea80867102206182298abac6064c0b706e34d9fccaa7ad52c760364eaf7222ade3274e80e7f5[ALL] 0258b1338d93eafd2fa02a53c0a495964df8b110c63aa04aa26122ad45220ece03"}, "vout": 0, "txid": "8dd51b90c1649f60d2862db94bdc05744e2b874ec1435b7860764c4f2dcbe0ce"}], "txid": "f19a0b3117c6c59ace6239e23d659f18a8baef32c4bf64e8aa3b28cdb3c7952a", "blocktime": 1537874412, "version": 1, "confirmations": 11467, "time": 1537874412, "locktime": 0, "vsize": 666, "size": 666}