{"hash": "f1b4caa7cf24596ddf5f076949cb3cef6570bc2d50767c367c771c9230fedc25", "blockhash": "00000000000000000004ffacab907a6b429b9a5745fa0b75af4234bf69dd7176", "vout": [{"scriptPubKey": {"reqSigs": 1, "hex": "a914266761ad30cbafca515890f8ebd76683bb7579c187", "addresses": ["35C5Sugzdep35zwoCBEG39NWFC82K7WYgj"], "asm": "OP_HASH160 266761ad30cbafca515890f8ebd76683bb7579c1 OP_EQUAL", "type": "scripthash"}, "value": 0.0032106, "n": 0}, {"scriptPubKey": {"reqSigs": 1, "hex": "76a91463abaab9ecb3760edf6a763515ad55adb19bf60788ac", "addresses": ["1A61YcktC3GgrsyqgV2JSUWsCEmfKcudg2"], "asm": "OP_DUP OP_HASH160 63abaab9ecb3760edf6a763515ad55adb19bf607 OP_EQUALVERIFY OP_CHECKSIG", "type": "pubkeyhash"}, "value": 0.04098717, "n": 1}], "hex": "010000000134a3e40bfa984ac2ea850d40c3e44831dfa8cca4898a655b00d985108ceacb23010000006b48304502210083dfb537c41e8beceb9c7f207a58f2823820205ffd93688e8c8e59877996aea70220778c04cf07a25c23a8e028f0ea26f120c574ffffe3b9c2d61d6412830ba8762f0121039e2f3896d79a6d984b4a1a22e4b8de5034bc1926b5551ca11b2bdd35da5b766effffffff0224e604000000000017a914266761ad30cbafca515890f8ebd76683bb7579c1879d8a3e00000000001976a91463abaab9ecb3760edf6a763515ad55adb19bf60788ac00000000", "vin": [{"sequence": 4294967295, "scriptSig": {"hex": "48304502210083dfb537c41e8beceb9c7f207a58f2823820205ffd93688e8c8e59877996aea70220778c04cf07a25c23a8e028f0ea26f120c574ffffe3b9c2d61d6412830ba8762f0121039e2f3896d79a6d984b4a1a22e4b8de5034bc1926b5551ca11b2bdd35da5b766e", "asm": "304502210083dfb537c41e8beceb9c7f207a58f2823820205ffd93688e8c8e59877996aea70220778c04cf07a25c23a8e028f0ea26f120c574ffffe3b9c2d61d6412830ba8762f[ALL] 039e2f3896d79a6d984b4a1a22e4b8de5034bc1926b5551ca11b2bdd35da5b766e"}, "vout": 1, "txid": "23cbea8c1085d9005b658a89a4cca8df3148e4c3400d85eac24a98fa0be4a334"}], "txid": "f1b4caa7cf24596ddf5f076949cb3cef6570bc2d50767c367c771c9230fedc25", "blocktime": 1537875543, "version": 1, "confirmations": 11464, "time": 1537875543, "locktime": 0, "vsize": 224, "size": 224}