{"hash": "f1b8ca010f296355fcfacdb79d1dbeab90c05f29e79c44d20571cae39a2b78b3", "blockhash": "00000000000000000004ffacab907a6b429b9a5745fa0b75af4234bf69dd7176", "vout": [{"scriptPubKey": {"reqSigs": 1, "hex": "a914102aab09afabf25fc11d88eac02476c1d897a2b187", "addresses": ["33AVrFCxogB3Vnc99GnzgZqhXdSnNN9LJh"], "asm": "OP_HASH160 102aab09afabf25fc11d88eac02476c1d897a2b1 OP_EQUAL", "type": "scripthash"}, "value": 1.2532505, "n": 0}], "hex": "0100000001eea6d132a9b033a8cc3e94df4c89166dd14411de28c8b467d615818d94313bc6000000006b48304502210090c97b12112a60b05427e74c86a320454580d2ae8eb52b025773d63c463a4322022062f92cef62895e4ff24620fdc888fa1a11b8ed545c56ca741ea20f4f1870c5dd01210220854da5f50ff06d384db271393462f88134c4e7bd7f92f269e90a93c8ea7fecffffffff01fa4e78070000000017a914102aab09afabf25fc11d88eac02476c1d897a2b18700000000", "vin": [{"sequence": 4294967295, "scriptSig": {"hex": "48304502210090c97b12112a60b05427e74c86a320454580d2ae8eb52b025773d63c463a4322022062f92cef62895e4ff24620fdc888fa1a11b8ed545c56ca741ea20f4f1870c5dd01210220854da5f50ff06d384db271393462f88134c4e7bd7f92f269e90a93c8ea7fec", "asm": "304502210090c97b12112a60b05427e74c86a320454580d2ae8eb52b025773d63c463a4322022062f92cef62895e4ff24620fdc888fa1a11b8ed545c56ca741ea20f4f1870c5dd[ALL] 0220854da5f50ff06d384db271393462f88134c4e7bd7f92f269e90a93c8ea7fec"}, "vout": 0, "txid": "c63b31948d8115d667b4c828de1144d16d16894cdf943ecca833b0a932d1a6ee"}], "txid": "f1b8ca010f296355fcfacdb79d1dbeab90c05f29e79c44d20571cae39a2b78b3", "blocktime": 1537875543, "version": 1, "confirmations": 11464, "time": 1537875543, "locktime": 0, "vsize": 190, "size": 190}