{"hash": "13a172bad132d29a53b20c5bd275e5fbdf003fe2ddccc90bcd2460f149479289", "blockhash": "0000000000000000001f0ddff1eddb255c1121bcd4da4f1bc9a0da00cae72433", "vout": [{"scriptPubKey": {"reqSigs": 1, "hex": "a914d0c8b75eacf1cc3de6681180bf55ff39e2108e7087", "addresses": ["3LixvTSYyjxWnraUHD4gAvy7yPdmTs8wHP"], "asm": "OP_HASH160 d0c8b75eacf1cc3de6681180bf55ff39e2108e70 OP_EQUAL", "type": "scripthash"}, "value": 8.45941026, "n": 0}, {"scriptPubKey": {"reqSigs": 1, "hex": "a914675c36559f619a523c49fcf7ed1e34a1bfaf57db87", "addresses": ["3B7XzKbBYC91DQAQ3NM484DQ6qXL2t77qP"], "asm": "OP_HASH160 675c36559f619a523c49fcf7ed1e34a1bfaf57db OP_EQUAL", "type": "scripthash"}, "value": 0.01584663, "n": 1}], "hex": "02000000000101c0377b6ef24322a8a3a188e07f86ad482e2847fa224873919b93a093b779109f0000000017160014c7c0e064694e7bd46a3c8b11772a2b762f8bca00feffffff0222096c320000000017a914d0c8b75eacf1cc3de6681180bf55ff39e2108e7087172e18000000000017a914675c36559f619a523c49fcf7ed1e34a1bfaf57db8702483045022100cb844fcc8a330752120b67c14ef1944d7bd13c87d523ca52167909a56a8143b00220294229e923f27d83d916572c1e08abcc4ada2cb1286ecc7da511b6eb1e53bd630121036f00cde70edc840e8fb93a92d36bb3f5794775fae80da9945e954615a5c954ce10490800", "vin": [{"txinwitness": ["3045022100cb844fcc8a330752120b67c14ef1944d7bd13c87d523ca52167909a56a8143b00220294229e923f27d83d916572c1e08abcc4ada2cb1286ecc7da511b6eb1e53bd6301", "036f00cde70edc840e8fb93a92d36bb3f5794775fae80da9945e954615a5c954ce"], "sequence": 4294967294, "scriptSig": {"hex": "160014c7c0e064694e7bd46a3c8b11772a2b762f8bca00", "asm": "0014c7c0e064694e7bd46a3c8b11772a2b762f8bca00"}, "vout": 0, "txid": "9f1079b793a0939b91734822fa47282e48ad867fe088a1a3a82243f26e7b37c0"}], "txid": "f1be2b990ef988af480e90d1a5bdc763d92d29f4c9ca464e0400cfc1ff5ec246", "blocktime": 1537872018, "version": 2, "confirmations": 11489, "time": 1537872018, "locktime": 542992, "vsize": 166, "size": 248}