{"hash": "f1d02fd9e0071197300238853a02204772d2e5df286eaefc3df02abf65e22394", "blockhash": "0000000000000000000baef3f32e3676a92c3b2e5da21b426e4f302fc371ce76", "vout": [{"scriptPubKey": {"reqSigs": 1, "hex": "a914a9756c3d25d633954f7f01535c8f78875b61b54287", "addresses": ["3H92neEjFaXHaWMsUGNii5t9oCmYr25MKo"], "asm": "OP_HASH160 a9756c3d25d633954f7f01535c8f78875b61b542 OP_EQUAL", "type": "scripthash"}, "value": 0.0002, "n": 0}, {"scriptPubKey": {"reqSigs": 1, "hex": "76a9145681782fcfd2d14846a032843cb045c4e1d3731888ac", "addresses": ["18tQDCHW5781jaauoeCiA9S4bpn7cTrJk1"], "asm": "OP_DUP OP_HASH160 5681782fcfd2d14846a032843cb045c4e1d37318 OP_EQUALVERIFY OP_CHECKSIG", "type": "pubkeyhash"}, "value": 0.00112529, "n": 1}], "hex": "0100000001edb246541bbd793d22db76b2f5327bf655043042f36c7ed044821074721d5f24010000006b4830450221009cfbf88e60a7da27f6c59dd73440b84db4133c2d692f56ce84b477d2d741d64902205a206dd8741a36f0b7fa02c063f84d36ce95449ed0824f0c5eccaa3fdc63fdcb0121021b11d5b35b9033bfb17945b4f670fbc149a79f67d85f81d67993dd811e4536a1ffffffff02204e00000000000017a914a9756c3d25d633954f7f01535c8f78875b61b5428791b70100000000001976a9145681782fcfd2d14846a032843cb045c4e1d3731888ac00000000", "vin": [{"sequence": 4294967295, "scriptSig": {"hex": "4830450221009cfbf88e60a7da27f6c59dd73440b84db4133c2d692f56ce84b477d2d741d64902205a206dd8741a36f0b7fa02c063f84d36ce95449ed0824f0c5eccaa3fdc63fdcb0121021b11d5b35b9033bfb17945b4f670fbc149a79f67d85f81d67993dd811e4536a1", "asm": "30450221009cfbf88e60a7da27f6c59dd73440b84db4133c2d692f56ce84b477d2d741d64902205a206dd8741a36f0b7fa02c063f84d36ce95449ed0824f0c5eccaa3fdc63fdcb[ALL] 021b11d5b35b9033bfb17945b4f670fbc149a79f67d85f81d67993dd811e4536a1"}, "vout": 1, "txid": "245f1d7274108244d07e6cf342300455f67b32f5b276db223d79bd1b5446b2ed"}], "txid": "f1d02fd9e0071197300238853a02204772d2e5df286eaefc3df02abf65e22394", "blocktime": 1537876114, "version": 1, "confirmations": 11462, "time": 1537876114, "locktime": 0, "vsize": 224, "size": 224}