{"hash": "51a6130f6673b98086b712b8696fa5b249a598b046a612eed60180358728b44d", "blockhash": "00000000000000000004ffacab907a6b429b9a5745fa0b75af4234bf69dd7176", "vout": [{"scriptPubKey": {"reqSigs": 1, "hex": "a914cb02d63a79d4b7def494b7eea1434aaf76ba0bd487", "addresses": ["3LCSVbGnkRLeArjA14iRNB8nTUvWL7Lt3A"], "asm": "OP_HASH160 cb02d63a79d4b7def494b7eea1434aaf76ba0bd4 OP_EQUAL", "type": "scripthash"}, "value": 5.05e-05, "n": 0}, {"scriptPubKey": {"reqSigs": 1, "hex": "a91492c749f0285eac07f62742ea31a8d157e970f89687", "addresses": ["3F57KP3ytPvZ54FKyVRA8tFqXjbBDbyjzx"], "asm": "OP_HASH160 92c749f0285eac07f62742ea31a8d157e970f896 OP_EQUAL", "type": "scripthash"}, "value": 0.0087365, "n": 1}], "hex": "0200000000010159bc76da7c0d22dc9c8295540584fd185a53b5711308d4bb69f7b7d6a3346a200100000017160014684514c4b9ba65f98ec034ea0e3fdab8c9a639100000000002ba1300000000000017a914cb02d63a79d4b7def494b7eea1434aaf76ba0bd487b2540d000000000017a91492c749f0285eac07f62742ea31a8d157e970f896870247304402206a2fac10b2a69f428c72c489f6c98319d74f949f078ab1867d3a2432b86b125002201d0cbef9c79fe501c7fd80b6ffc7036add6a1f2995b586ed4bdcc2cde553bb1a0121027823f07af7f5a9fd74bb592a3052bdec9523e7813d7a45b91da101a3e16fb03e00000000", "vin": [{"txinwitness": ["304402206a2fac10b2a69f428c72c489f6c98319d74f949f078ab1867d3a2432b86b125002201d0cbef9c79fe501c7fd80b6ffc7036add6a1f2995b586ed4bdcc2cde553bb1a01", "027823f07af7f5a9fd74bb592a3052bdec9523e7813d7a45b91da101a3e16fb03e"], "sequence": 0, "scriptSig": {"hex": "160014684514c4b9ba65f98ec034ea0e3fdab8c9a63910", "asm": "0014684514c4b9ba65f98ec034ea0e3fdab8c9a63910"}, "vout": 1, "txid": "206a34a3d6b7f769bbd4081371b5535a18fd84055495829cdc220d7cda76bc59"}], "txid": "f1d3316fc340a212f9c4cd5af974c79c6ef8e30d6f23b85b72d4b3fb86204537", "blocktime": 1537875543, "version": 2, "confirmations": 11464, "time": 1537875543, "locktime": 0, "vsize": 166, "size": 247}