{"hash": "f1d382128a5bbdb9fd188d6f863bb2364578f9cd335df124e7d1dbcff443d51d", "blockhash": "0000000000000000001e0dab787dd257d1dbfcb92a98c2207d5e1078be1f4165", "vout": [{"scriptPubKey": {"reqSigs": 1, "hex": "76a9149b6ef0e0c5a2115605a3af657b2a2a97809b66ad88ac", "addresses": ["1FAre3bChezKMRF4qnEHVVz8mWy5YmhGUE"], "asm": "OP_DUP OP_HASH160 9b6ef0e0c5a2115605a3af657b2a2a97809b66ad OP_EQUALVERIFY OP_CHECKSIG", "type": "pubkeyhash"}, "value": 0.01216834, "n": 0}, {"scriptPubKey": {"reqSigs": 1, "hex": "76a914130d9b80f38158f9a97cde36ec7c6afc6439ccae88ac", "addresses": ["12jk979hNnq8rhfch6ALiko2iwRy7m86Uv"], "asm": "OP_DUP OP_HASH160 130d9b80f38158f9a97cde36ec7c6afc6439ccae OP_EQUALVERIFY OP_CHECKSIG", "type": "pubkeyhash"}, "value": 0.046836, "n": 1}], "hex": "0100000002f935a782fef9755cda82245711b82c98de03bb132664aca68633dbaa74997914010000006b483045022100e4d3d534a246da5815eec505c993be1c0a62b2b432cfdd2a052e3ed4586f8a3f022009da4eba533f50aadbe09d73aedc29d3f67c2910c1d35b188c8fd92b9469fede01210218a2830e342683859c8166f605a4c987c5b2f7c6f67ceeec0d6319cadf34b2f3ffffffffb4cb13561c16e93ce89fbe858dd65e47d80f3b962bc38816ab4ed3f74b6a3882010000006a473044022022e0bb5101d386ceba419a0d67b1caaceca28e3764c720bd6e82a497246721210220322b12c01842b202c4ae6d4f64a2adfc78c20ccb97839c1f79e9a6dbe643644c0121039fdc7b661c0899199f536a7215fbf6339e90bbf8b1168001bf3f1a7ae86a82e6ffffffff0242911200000000001976a9149b6ef0e0c5a2115605a3af657b2a2a97809b66ad88ac50774700000000001976a914130d9b80f38158f9a97cde36ec7c6afc6439ccae88ac00000000", "vin": [{"sequence": 4294967295, "scriptSig": {"hex": "483045022100e4d3d534a246da5815eec505c993be1c0a62b2b432cfdd2a052e3ed4586f8a3f022009da4eba533f50aadbe09d73aedc29d3f67c2910c1d35b188c8fd92b9469fede01210218a2830e342683859c8166f605a4c987c5b2f7c6f67ceeec0d6319cadf34b2f3", "asm": "3045022100e4d3d534a246da5815eec505c993be1c0a62b2b432cfdd2a052e3ed4586f8a3f022009da4eba533f50aadbe09d73aedc29d3f67c2910c1d35b188c8fd92b9469fede[ALL] 0218a2830e342683859c8166f605a4c987c5b2f7c6f67ceeec0d6319cadf34b2f3"}, "vout": 1, "txid": "14799974aadb3386a6ac642613bb03de982cb811572482da5c75f9fe82a735f9"}, {"sequence": 4294967295, "scriptSig": {"hex": "473044022022e0bb5101d386ceba419a0d67b1caaceca28e3764c720bd6e82a497246721210220322b12c01842b202c4ae6d4f64a2adfc78c20ccb97839c1f79e9a6dbe643644c0121039fdc7b661c0899199f536a7215fbf6339e90bbf8b1168001bf3f1a7ae86a82e6", "asm": "3044022022e0bb5101d386ceba419a0d67b1caaceca28e3764c720bd6e82a497246721210220322b12c01842b202c4ae6d4f64a2adfc78c20ccb97839c1f79e9a6dbe643644c[ALL] 039fdc7b661c0899199f536a7215fbf6339e90bbf8b1168001bf3f1a7ae86a82e6"}, "vout": 1, "txid": "82386a4bf7d34eab1688c32b963b0fd8475ed68d85be9fe83ce9161c5613cbb4"}], "txid": "f1d382128a5bbdb9fd188d6f863bb2364578f9cd335df124e7d1dbcff443d51d", "blocktime": 1537872475, "version": 1, "confirmations": 11487, "time": 1537872475, "locktime": 0, "vsize": 373, "size": 373}