{"hash": "f1d762b477c768451f19ac0f8f5a330cb6c619fc88445e08a958f8679b5017c7", "blockhash": "0000000000000000001f0ddff1eddb255c1121bcd4da4f1bc9a0da00cae72433", "vout": [{"scriptPubKey": {"type": "nulldata", "hex": "6a4c50000077ab0001de4825a21dd09bb4255e0444af6c953dd567cf27e7e3ef3236678a625097ab00a67cb3161ad038029740894688805baa103a0612e31d5a47cc75bc9a9526289ac0f6612cd74e33776ee4", "asm": "OP_RETURN 000077ab0001de4825a21dd09bb4255e0444af6c953dd567cf27e7e3ef3236678a625097ab00a67cb3161ad038029740894688805baa103a0612e31d5a47cc75bc9a9526289ac0f6612cd74e33776ee4"}, "value": 0.0, "n": 0}, {"scriptPubKey": {"reqSigs": 1, "hex": "76a914ad83facffae056e3a34527d8bb3ffca740045daf88ac", "addresses": ["1GpU1JNTzFwZyyxxRBTmv2yAgp66Ls8EWQ"], "asm": "OP_DUP OP_HASH160 ad83facffae056e3a34527d8bb3ffca740045daf OP_EQUALVERIFY OP_CHECKSIG", "type": "pubkeyhash"}, "value": 0.0007216, "n": 1}], "hex": "0100000001705044ae4e861ad29068d9a84c88eb56e6e56c8c94dffb7ab1f2b04f94b11a8f000000006a47304402207d1b37ee13015337e97ac57f926229f25e27e0ee15b51623cb6852f535a3716b02203114049f96286039a1eb8311f0660f5f8d566b655aa19dbd70b2ca1c6c921322012102b3039c7b349e4697d5016a8ea0eb448dde37058bc979d197bf6cdf7cdaade1cfffffffff020000000000000000536a4c50000077ab0001de4825a21dd09bb4255e0444af6c953dd567cf27e7e3ef3236678a625097ab00a67cb3161ad038029740894688805baa103a0612e31d5a47cc75bc9a9526289ac0f6612cd74e33776ee4e0190100000000001976a914ad83facffae056e3a34527d8bb3ffca740045daf88ac00000000", "vin": [{"sequence": 4294967295, "scriptSig": {"hex": "47304402207d1b37ee13015337e97ac57f926229f25e27e0ee15b51623cb6852f535a3716b02203114049f96286039a1eb8311f0660f5f8d566b655aa19dbd70b2ca1c6c921322012102b3039c7b349e4697d5016a8ea0eb448dde37058bc979d197bf6cdf7cdaade1cf", "asm": "304402207d1b37ee13015337e97ac57f926229f25e27e0ee15b51623cb6852f535a3716b02203114049f96286039a1eb8311f0660f5f8d566b655aa19dbd70b2ca1c6c921322[ALL] 02b3039c7b349e4697d5016a8ea0eb448dde37058bc979d197bf6cdf7cdaade1cf"}, "vout": 0, "txid": "8f1ab1944fb0f2b17afbdf948c6ce5e656eb884ca8d96890d21a864eae445070"}], "txid": "f1d762b477c768451f19ac0f8f5a330cb6c619fc88445e08a958f8679b5017c7", "blocktime": 1537872018, "version": 1, "confirmations": 11489, "time": 1537872018, "locktime": 0, "vsize": 283, "size": 283}