{"hash": "f1e1c7e61ae651d050ceda83bb80581d95231e1a711780420d336a49e40fcc65", "blockhash": "0000000000000000001e0dab787dd257d1dbfcb92a98c2207d5e1078be1f4165", "vout": [{"scriptPubKey": {"reqSigs": 1, "hex": "76a9143b4e8887589a6de65567cc4be23b4c4bc482b6af88ac", "addresses": ["16Qawugr4oTvSbbQD5w2Ct7Z7uzo61j9QU"], "asm": "OP_DUP OP_HASH160 3b4e8887589a6de65567cc4be23b4c4bc482b6af OP_EQUALVERIFY OP_CHECKSIG", "type": "pubkeyhash"}, "value": 0.002322, "n": 0}, {"scriptPubKey": {"reqSigs": 1, "hex": "76a914211b455c5ae2a7ff2c976766edd472fba8e5d48f88ac", "addresses": ["1423y9cn7CJ4RMtWnLqWPwEgJTELRUrVZv"], "asm": "OP_DUP OP_HASH160 211b455c5ae2a7ff2c976766edd472fba8e5d48f OP_EQUALVERIFY OP_CHECKSIG", "type": "pubkeyhash"}, "value": 0.01943558, "n": 1}], "hex": "0100000001220320b2545e20cc0d8a8bf1f664cb8605a30ed45f303f92a5f9f3406c0cf97c010000006b483045022100de97a9430696c9216fac32efd7fca4382a7e82e30b98e4c762f7281e057fd6fa02202dca23439c4ebd90870e76af072e88a672111a4462e38b68918dbecc9e1395da012103953736e6f1fcb30eea5d381fb239195bb2c6fce27bff95ae87adc89be7775d8cffffffff02088b0300000000001976a9143b4e8887589a6de65567cc4be23b4c4bc482b6af88ac06a81d00000000001976a914211b455c5ae2a7ff2c976766edd472fba8e5d48f88ac00000000", "vin": [{"sequence": 4294967295, "scriptSig": {"hex": "483045022100de97a9430696c9216fac32efd7fca4382a7e82e30b98e4c762f7281e057fd6fa02202dca23439c4ebd90870e76af072e88a672111a4462e38b68918dbecc9e1395da012103953736e6f1fcb30eea5d381fb239195bb2c6fce27bff95ae87adc89be7775d8c", "asm": "3045022100de97a9430696c9216fac32efd7fca4382a7e82e30b98e4c762f7281e057fd6fa02202dca23439c4ebd90870e76af072e88a672111a4462e38b68918dbecc9e1395da[ALL] 03953736e6f1fcb30eea5d381fb239195bb2c6fce27bff95ae87adc89be7775d8c"}, "vout": 1, "txid": "7cf90c6c40f3f9a5923f305fd40ea30586cb64f6f18b8a0dcc205e54b2200322"}], "txid": "f1e1c7e61ae651d050ceda83bb80581d95231e1a711780420d336a49e40fcc65", "blocktime": 1537872475, "version": 1, "confirmations": 11486, "time": 1537872475, "locktime": 0, "vsize": 226, "size": 226}