{"hash": "f1e65f71f96ccf1e9dd51c422af84783873a2b1951b4fb1edbd40e811194f26a", "blockhash": "0000000000000000001f76057863aec43deb6fa401d9628bb513d65a8098bfab", "vout": [{"scriptPubKey": {"reqSigs": 1, "hex": "76a914a9347da3b5f91b7623120e57391b9e080465ddbf88ac", "addresses": ["1GRg5YUPNj4xA1YjU3wbNxfXMdrfn5xMzh"], "asm": "OP_DUP OP_HASH160 a9347da3b5f91b7623120e57391b9e080465ddbf OP_EQUALVERIFY OP_CHECKSIG", "type": "pubkeyhash"}, "value": 0.01015513, "n": 0}, {"scriptPubKey": {"reqSigs": 1, "hex": "a914dc46859b82764e039e11955e3e89f43fcde8d97a87", "addresses": ["3Mmj4hDhgRea5DguYtq1oN4UQWLQLvSzGk"], "asm": "OP_HASH160 dc46859b82764e039e11955e3e89f43fcde8d97a OP_EQUAL", "type": "scripthash"}, "value": 0.00040805, "n": 1}], "hex": "02000000020828a033258f843357651b45d66cd9b987d883c2666a5022535bca7b146a5952000000006a473044022066ca33bef25f623129e31695f61d67b4a6d767e92f068bbde381b85d586001bc0220581ad54b26c7b8aab359eeb53519ff73fb200f65fc12ebafd970aeda4225a91e012102fe74762cd1aff9f6fc4de111f186c2df308cf7ec3a030ebbe9937f7d6e24191cfeffffff7442ad6a26523061a55ada22de4e5e5c67a21a905651d4329dd7d1c6941d6ec0010000006a4730440220157956404f879d6b62c9c79b4b96954e67bb68cb0f4bada0c8a3096f186333f1022033dcf2bc6ddc48a45ad6b9bbcdab004b94a41ee22590caed7d5bde2687e50c17012103dd3f65634d47382a89da1962bfec139d058ebe747f259a83187e7846c11bd57afeffffff02d97e0f00000000001976a914a9347da3b5f91b7623120e57391b9e080465ddbf88ac659f00000000000017a914dc46859b82764e039e11955e3e89f43fcde8d97a8700000000", "vin": [{"sequence": 4294967294, "scriptSig": {"hex": "473044022066ca33bef25f623129e31695f61d67b4a6d767e92f068bbde381b85d586001bc0220581ad54b26c7b8aab359eeb53519ff73fb200f65fc12ebafd970aeda4225a91e012102fe74762cd1aff9f6fc4de111f186c2df308cf7ec3a030ebbe9937f7d6e24191c", "asm": "3044022066ca33bef25f623129e31695f61d67b4a6d767e92f068bbde381b85d586001bc0220581ad54b26c7b8aab359eeb53519ff73fb200f65fc12ebafd970aeda4225a91e[ALL] 02fe74762cd1aff9f6fc4de111f186c2df308cf7ec3a030ebbe9937f7d6e24191c"}, "vout": 0, "txid": "52596a147bca5b5322506a66c283d887b9d96cd6451b655733848f2533a02808"}, {"sequence": 4294967294, "scriptSig": {"hex": "4730440220157956404f879d6b62c9c79b4b96954e67bb68cb0f4bada0c8a3096f186333f1022033dcf2bc6ddc48a45ad6b9bbcdab004b94a41ee22590caed7d5bde2687e50c17012103dd3f65634d47382a89da1962bfec139d058ebe747f259a83187e7846c11bd57a", "asm": "30440220157956404f879d6b62c9c79b4b96954e67bb68cb0f4bada0c8a3096f186333f1022033dcf2bc6ddc48a45ad6b9bbcdab004b94a41ee22590caed7d5bde2687e50c17[ALL] 03dd3f65634d47382a89da1962bfec139d058ebe747f259a83187e7846c11bd57a"}, "vout": 1, "txid": "c06e1d94c6d1d79d32d45156901aa2675c5e4ede22da5aa5613052266aad4274"}], "txid": "f1e65f71f96ccf1e9dd51c422af84783873a2b1951b4fb1edbd40e811194f26a", "blocktime": 1537873891, "version": 2, "confirmations": 11475, "time": 1537873891, "locktime": 0, "vsize": 370, "size": 370}