{"hash": "f1e8b5f271fe46a5d0e30154cb70f780961691f7d343fd93f3a2b9632cff32be", "blockhash": "00000000000000000018f53835495a110e01622372bf6ae95dc86f2b0ab887b0", "vout": [{"scriptPubKey": {"reqSigs": 1, "hex": "a91483c4462a4ea38725c77a1cec87f77f09ab7ad96287", "addresses": ["3Dhja333rBQvMUEpMEPSTSqD9GVmVKEwTU"], "asm": "OP_HASH160 83c4462a4ea38725c77a1cec87f77f09ab7ad962 OP_EQUAL", "type": "scripthash"}, "value": 0.00010895, "n": 0}, {"scriptPubKey": {"reqSigs": 1, "hex": "76a914cde582c51e9677fb80aee0b192e064e2ccfea27c88ac", "addresses": ["1KmgU1xpu2wofRGA1nP32b5MB2kPta15nV"], "asm": "OP_DUP OP_HASH160 cde582c51e9677fb80aee0b192e064e2ccfea27c OP_EQUALVERIFY OP_CHECKSIG", "type": "pubkeyhash"}, "value": 0.00605964, "n": 1}, {"scriptPubKey": {"reqSigs": 1, "hex": "76a914aadc9a0828d925fa64ff20d90855c8b305ae790288ac", "addresses": ["1GaS9HY4moYyDJMe1qBe9es6J57f2rJPdw"], "asm": "OP_DUP OP_HASH160 aadc9a0828d925fa64ff20d90855c8b305ae7902 OP_EQUALVERIFY OP_CHECKSIG", "type": "pubkeyhash"}, "value": 8.864e-05, "n": 2}], "hex": "010000000194fc1db9556e303f2403fe82edf7538c6ef4698f32de1f4e2a0ed19836e039c900000000da00483045022100be6792e22381bc7398c319f7543168281cb48ef262a0a15f4e03dbeac7675bd602206c79a39b91e8fa4e28a5974eed6ef7917c5ea497097f8d43eacf4825d0c2acf50147304402206c2a7244dddeade959637c6c76760ab050deb151af8f0131ff91779fd1aa5392022055b98225c17d1da94bed6c4fc84a241b882417049b5470d4285871eb5d3fe2650147522102907a54bed8ad74b3f35638c60114ca240a308cb986f3f2f306178869a8880b612102a55e23cbca829e53ced97260b8e56b2e6cb489440ecdbe557dffcd045aad525952aeffffffff038f2a00000000000017a91483c4462a4ea38725c77a1cec87f77f09ab7ad962870c3f0900000000001976a914cde582c51e9677fb80aee0b192e064e2ccfea27c88aca0220000000000001976a914aadc9a0828d925fa64ff20d90855c8b305ae790288ac00000000", "vin": [{"sequence": 4294967295, "scriptSig": {"hex": "00483045022100be6792e22381bc7398c319f7543168281cb48ef262a0a15f4e03dbeac7675bd602206c79a39b91e8fa4e28a5974eed6ef7917c5ea497097f8d43eacf4825d0c2acf50147304402206c2a7244dddeade959637c6c76760ab050deb151af8f0131ff91779fd1aa5392022055b98225c17d1da94bed6c4fc84a241b882417049b5470d4285871eb5d3fe2650147522102907a54bed8ad74b3f35638c60114ca240a308cb986f3f2f306178869a8880b612102a55e23cbca829e53ced97260b8e56b2e6cb489440ecdbe557dffcd045aad525952ae", "asm": "0 3045022100be6792e22381bc7398c319f7543168281cb48ef262a0a15f4e03dbeac7675bd602206c79a39b91e8fa4e28a5974eed6ef7917c5ea497097f8d43eacf4825d0c2acf5[ALL] 304402206c2a7244dddeade959637c6c76760ab050deb151af8f0131ff91779fd1aa5392022055b98225c17d1da94bed6c4fc84a241b882417049b5470d4285871eb5d3fe265[ALL] 522102907a54bed8ad74b3f35638c60114ca240a308cb986f3f2f306178869a8880b612102a55e23cbca829e53ced97260b8e56b2e6cb489440ecdbe557dffcd045aad525952ae"}, "vout": 0, "txid": "c939e03698d10e2a4e1fde328f69f46e8c53f7ed82fe03243f306e55b91dfc94"}], "txid": "f1e8b5f271fe46a5d0e30154cb70f780961691f7d343fd93f3a2b9632cff32be", "blocktime": 1537870928, "version": 1, "confirmations": 11512, "time": 1537870928, "locktime": 0, "vsize": 369, "size": 369}