{"hash": "dd166dcc9635164deacbaa3c6a4b1e37874d3aefb0835bb477435a175cde6382", "blockhash": "0000000000000000000baef3f32e3676a92c3b2e5da21b426e4f302fc371ce76", "vout": [{"scriptPubKey": {"reqSigs": 1, "hex": "a91490e99e8d26d05ead3c05430c292a887bbff695f587", "addresses": ["3EuF6KjJawxTiUsea3Sc8hsLUGmVEf7Xg5"], "asm": "OP_HASH160 90e99e8d26d05ead3c05430c292a887bbff695f5 OP_EQUAL", "type": "scripthash"}, "value": 0.00110142, "n": 0}, {"scriptPubKey": {"type": "nulldata", "hex": "6a146f6d6e69000000000000001f0000000005f5e100", "asm": "OP_RETURN 6f6d6e69000000000000001f0000000005f5e100"}, "value": 0.0, "n": 1}, {"scriptPubKey": {"reqSigs": 1, "hex": "a91490e99e8d26d05ead3c05430c292a887bbff695f587", "addresses": ["3EuF6KjJawxTiUsea3Sc8hsLUGmVEf7Xg5"], "asm": "OP_HASH160 90e99e8d26d05ead3c05430c292a887bbff695f5 OP_EQUAL", "type": "scripthash"}, "value": 5.4e-06, "n": 2}], "hex": "0100000000010268cd8e5183bf8e76ff52ef7ff332342361d9291447611df24f3743443a3f32590000000017160014f6e1792e7852ebd5ae795c2a25d579acdfadec2dffffffff68cd8e5183bf8e76ff52ef7ff332342361d9291447611df24f3743443a3f32590200000017160014f6e1792e7852ebd5ae795c2a25d579acdfadec2dffffffff033eae01000000000017a91490e99e8d26d05ead3c05430c292a887bbff695f5870000000000000000166a146f6d6e69000000000000001f0000000005f5e1001c0200000000000017a91490e99e8d26d05ead3c05430c292a887bbff695f58702483045022100b1ae7df58d907f5c7be719e27517891c5e544271c4f9b2a80b0c337ad649962d02202c1f1ae7b5a0cffe4c21d30c378e6d57c7f6dedc1cebdee4f183e772d673d589012103f1cf988013a33e053d1e9bd54c4798c1a6dc362a5b2798b5344049fca40e2db0024830450221008f89a85578ec67d24c7c8901c2e7f164df12f6485dcdd70c1268ea61ed9768120220511f0a3bbbe987df97b25c525b6e838f44665a99bbcd9755316d5bb8cb749f0b012103f1cf988013a33e053d1e9bd54c4798c1a6dc362a5b2798b5344049fca40e2db000000000", "vin": [{"txinwitness": ["3045022100b1ae7df58d907f5c7be719e27517891c5e544271c4f9b2a80b0c337ad649962d02202c1f1ae7b5a0cffe4c21d30c378e6d57c7f6dedc1cebdee4f183e772d673d58901", "03f1cf988013a33e053d1e9bd54c4798c1a6dc362a5b2798b5344049fca40e2db0"], "sequence": 4294967295, "scriptSig": {"hex": "160014f6e1792e7852ebd5ae795c2a25d579acdfadec2d", "asm": "0014f6e1792e7852ebd5ae795c2a25d579acdfadec2d"}, "vout": 0, "txid": "59323f3a4443374ff21d61471429d961233432f37fef52ff768ebf83518ecd68"}, {"txinwitness": ["30450221008f89a85578ec67d24c7c8901c2e7f164df12f6485dcdd70c1268ea61ed9768120220511f0a3bbbe987df97b25c525b6e838f44665a99bbcd9755316d5bb8cb749f0b01", "03f1cf988013a33e053d1e9bd54c4798c1a6dc362a5b2798b5344049fca40e2db0"], "sequence": 4294967295, "scriptSig": {"hex": "160014f6e1792e7852ebd5ae795c2a25d579acdfadec2d", "asm": "0014f6e1792e7852ebd5ae795c2a25d579acdfadec2d"}, "vout": 2, "txid": "59323f3a4443374ff21d61471429d961233432f37fef52ff768ebf83518ecd68"}], "txid": "f1e98e3370359e2ac405b05b0622be741b5fe08798d47df8dea65d2abe2edef7", "blocktime": 1537876114, "version": 1, "confirmations": 11460, "time": 1537876114, "locktime": 0, "vsize": 288, "size": 451}