{"hash": "f1ea649e0558d5cd3044bffe951a40cbf2cf4bf2e08292ed9c47e8cbab60abf8", "blockhash": "00000000000000000004ffacab907a6b429b9a5745fa0b75af4234bf69dd7176", "vout": [{"scriptPubKey": {"reqSigs": 1, "hex": "76a91475da8fad7235aafb96824c77a6707922a123296788ac", "addresses": ["1Bk9tM2odDaJncBUG4gChNg1S7giwwmWuU"], "asm": "OP_DUP OP_HASH160 75da8fad7235aafb96824c77a6707922a1232967 OP_EQUALVERIFY OP_CHECKSIG", "type": "pubkeyhash"}, "value": 0.00109075, "n": 0}], "hex": "01000000015dd45906d2b2342796cccd9103bed6686763f613f4841fc3c6581097c0ea5987010000006a47304402206795dded0713900b6511af826e4f88304ec54a788095c20037266f0d4050595502206f316e4678342c6f806ded1b67c23eb6edba989e0f16b8baa6a0625f01948aca0121020b43cb81c2d1acfc93ee286e93ae4f4ad0b7aec39e8a424012f68cf81e4d99a6ffffffff0113aa0100000000001976a91475da8fad7235aafb96824c77a6707922a123296788ac00000000", "vin": [{"sequence": 4294967295, "scriptSig": {"hex": "47304402206795dded0713900b6511af826e4f88304ec54a788095c20037266f0d4050595502206f316e4678342c6f806ded1b67c23eb6edba989e0f16b8baa6a0625f01948aca0121020b43cb81c2d1acfc93ee286e93ae4f4ad0b7aec39e8a424012f68cf81e4d99a6", "asm": "304402206795dded0713900b6511af826e4f88304ec54a788095c20037266f0d4050595502206f316e4678342c6f806ded1b67c23eb6edba989e0f16b8baa6a0625f01948aca[ALL] 020b43cb81c2d1acfc93ee286e93ae4f4ad0b7aec39e8a424012f68cf81e4d99a6"}, "vout": 1, "txid": "8759eac0971058c6c31f84f413f6636768d6be0391cdcc962734b2d20659d45d"}], "txid": "f1ea649e0558d5cd3044bffe951a40cbf2cf4bf2e08292ed9c47e8cbab60abf8", "blocktime": 1537875543, "version": 1, "confirmations": 11464, "time": 1537875543, "locktime": 0, "vsize": 191, "size": 191}