{"hash": "f1eaa68ed4bdb691bd6496e42bd642417830d8baf4d4389500d8a179dca90657", "blockhash": "0000000000000000001f0ddff1eddb255c1121bcd4da4f1bc9a0da00cae72433", "vout": [{"scriptPubKey": {"reqSigs": 1, "hex": "76a9146ab2815026f52dc72f5fe7cab04ac69b7dfe427e88ac", "addresses": ["1AjAU66VusX2kanPfvUdePdR7wem6gVhYF"], "asm": "OP_DUP OP_HASH160 6ab2815026f52dc72f5fe7cab04ac69b7dfe427e OP_EQUALVERIFY OP_CHECKSIG", "type": "pubkeyhash"}, "value": 0.00140645, "n": 0}], "hex": "0100000002d7782d021f38568eb034712a06ae280b7c0c50b501b3aa8cd1e2944d6fc9b345000000006b483045022100b23ecba664cf9d71e62f9d50e613eb8e679cb21491539f23a94d51791c8bf14702202bf6ff5904ac455e0dd13c95656ca449bf5c493c02b3ecbae48d2595a38ab5a8012103f78d5039739728da19bb46b76e32ab544489d85b409fa9e9751aa92603bbfff7ffffffff633eb65e377063ec83b1215e30c1b4307e5eb3f7fab8d8ef2055a393814750d7010000006b483045022100ee213faeafd32ceb5c2884d43d7bb595def48a105beb6b96e06b14966474161002200a246833ec5d14d69143b509961c61ecb0ae5427cead7735cfaadcbc588c482e0121039f27ef2eb5df0000471d0efd17df220a417267171a7eb506259a15c071bc9eddffffffff0165250200000000001976a9146ab2815026f52dc72f5fe7cab04ac69b7dfe427e88ac00000000", "vin": [{"sequence": 4294967295, "scriptSig": {"hex": "483045022100b23ecba664cf9d71e62f9d50e613eb8e679cb21491539f23a94d51791c8bf14702202bf6ff5904ac455e0dd13c95656ca449bf5c493c02b3ecbae48d2595a38ab5a8012103f78d5039739728da19bb46b76e32ab544489d85b409fa9e9751aa92603bbfff7", "asm": "3045022100b23ecba664cf9d71e62f9d50e613eb8e679cb21491539f23a94d51791c8bf14702202bf6ff5904ac455e0dd13c95656ca449bf5c493c02b3ecbae48d2595a38ab5a8[ALL] 03f78d5039739728da19bb46b76e32ab544489d85b409fa9e9751aa92603bbfff7"}, "vout": 0, "txid": "45b3c96f4d94e2d18caab301b5500c7c0b28ae062a7134b08e56381f022d78d7"}, {"sequence": 4294967295, "scriptSig": {"hex": "483045022100ee213faeafd32ceb5c2884d43d7bb595def48a105beb6b96e06b14966474161002200a246833ec5d14d69143b509961c61ecb0ae5427cead7735cfaadcbc588c482e0121039f27ef2eb5df0000471d0efd17df220a417267171a7eb506259a15c071bc9edd", "asm": "3045022100ee213faeafd32ceb5c2884d43d7bb595def48a105beb6b96e06b14966474161002200a246833ec5d14d69143b509961c61ecb0ae5427cead7735cfaadcbc588c482e[ALL] 039f27ef2eb5df0000471d0efd17df220a417267171a7eb506259a15c071bc9edd"}, "vout": 1, "txid": "d750478193a35520efd8b8faf7b35e7e30b4c1305e21b183ec6370375eb63e63"}], "txid": "f1eaa68ed4bdb691bd6496e42bd642417830d8baf4d4389500d8a179dca90657", "blocktime": 1537872018, "version": 1, "confirmations": 11489, "time": 1537872018, "locktime": 0, "vsize": 340, "size": 340}