{"hash": "f1ebc737082e79a454079f667ef08dd563b3f7ef8935493f5357b9a3f1f30fce", "blockhash": "0000000000000000000baef3f32e3676a92c3b2e5da21b426e4f302fc371ce76", "vout": [{"scriptPubKey": {"reqSigs": 1, "hex": "76a91468d406438fc030d3e99a5361b24b6c83f239b8fe88ac", "addresses": ["1AZHGfnV1wrTTB9vb8m9o8VEEqn6xghA5B"], "asm": "OP_DUP OP_HASH160 68d406438fc030d3e99a5361b24b6c83f239b8fe OP_EQUALVERIFY OP_CHECKSIG", "type": "pubkeyhash"}, "value": 0.00633999, "n": 0}, {"scriptPubKey": {"type": "nulldata", "hex": "6a4c5000007804000170c1f99337c475708b4b19e8702940d64fa54d8eb2d19ed074892d00f8e830f2fc8be9a7253da60fb49cdc31f4c05baa1a7106138d82617988021d100759d4ba30d2c37bb011d97e02cf", "asm": "OP_RETURN 00007804000170c1f99337c475708b4b19e8702940d64fa54d8eb2d19ed074892d00f8e830f2fc8be9a7253da60fb49cdc31f4c05baa1a7106138d82617988021d100759d4ba30d2c37bb011d97e02cf"}, "value": 0.0, "n": 1}], "hex": "010000000197096a8fc6888775568076eb98d3f99eb732e46c4f70a89a9ffeb0d1c7081ba1000000006a473044022051ddc07ada6002061094509510af94f750722e7ed0bbe394dfbaa56ae4692cbe02207ef4e7620c03229dfdbfb23a9e5d09a30c8b7e8179fc22aa991757ee25fc954a012102fd93ccd059af84d50ae159d1f6a5f3eeffcbc529d0bc9ade0c64a31ebf060bc8ffffffff028fac0900000000001976a91468d406438fc030d3e99a5361b24b6c83f239b8fe88ac0000000000000000536a4c5000007804000170c1f99337c475708b4b19e8702940d64fa54d8eb2d19ed074892d00f8e830f2fc8be9a7253da60fb49cdc31f4c05baa1a7106138d82617988021d100759d4ba30d2c37bb011d97e02cf00000000", "vin": [{"sequence": 4294967295, "scriptSig": {"hex": "473044022051ddc07ada6002061094509510af94f750722e7ed0bbe394dfbaa56ae4692cbe02207ef4e7620c03229dfdbfb23a9e5d09a30c8b7e8179fc22aa991757ee25fc954a012102fd93ccd059af84d50ae159d1f6a5f3eeffcbc529d0bc9ade0c64a31ebf060bc8", "asm": "3044022051ddc07ada6002061094509510af94f750722e7ed0bbe394dfbaa56ae4692cbe02207ef4e7620c03229dfdbfb23a9e5d09a30c8b7e8179fc22aa991757ee25fc954a[ALL] 02fd93ccd059af84d50ae159d1f6a5f3eeffcbc529d0bc9ade0c64a31ebf060bc8"}, "vout": 0, "txid": "a11b08c7d1b0fe9f9aa8704f6ce432b79ef9d398eb768056758788c68f6a0997"}], "txid": "f1ebc737082e79a454079f667ef08dd563b3f7ef8935493f5357b9a3f1f30fce", "blocktime": 1537876114, "version": 1, "confirmations": 11462, "time": 1537876114, "locktime": 0, "vsize": 283, "size": 283}