{"hash": "79d04bd6ff0f9d18665ccdbe0d46858429f93adffbcd674e7e6d3da748eb9520", "blockhash": "0000000000000000001f76057863aec43deb6fa401d9628bb513d65a8098bfab", "vout": [{"scriptPubKey": {"reqSigs": 1, "hex": "a9148d4caa71830810b9a61c56deb420da024d559c9087", "addresses": ["3Ea93RaitCmynS4WkxnErqNBigXQYV8W91"], "asm": "OP_HASH160 8d4caa71830810b9a61c56deb420da024d559c90 OP_EQUAL", "type": "scripthash"}, "value": 4.01580872, "n": 0}, {"scriptPubKey": {"reqSigs": 1, "hex": "0014b97113083d9a98724282b170e6e3b5cca994fa16", "addresses": ["bc1qh9c3xzpan2v8ys5zk9cwdca4ej5ef7skz4hhnp"], "asm": "0 b97113083d9a98724282b170e6e3b5cca994fa16", "type": "witness_v0_keyhash"}, "value": 0.0404448, "n": 1}], "hex": "01000000000101376d6366ad881d362c4ec721c4313edee7a615639fcc92b8b4a73e1861603a610000000000ffffffff0248a3ef170000000017a9148d4caa71830810b9a61c56deb420da024d559c9087c0b63d0000000000160014b97113083d9a98724282b170e6e3b5cca994fa16024830450221008dc01eeedc4a446fe01355d45b937424f05442f9a5ada75a5935bce21c5f7e5002205fd93636e5ed9ec889d00b113b5fa541e13e0683ef7ffa43da87ac2fb209dddf012102a556475ded8c30730973025dd66382289f783f23ab4290097afc388abe25c1ec00000000", "vin": [{"txinwitness": ["30450221008dc01eeedc4a446fe01355d45b937424f05442f9a5ada75a5935bce21c5f7e5002205fd93636e5ed9ec889d00b113b5fa541e13e0683ef7ffa43da87ac2fb209dddf01", "02a556475ded8c30730973025dd66382289f783f23ab4290097afc388abe25c1ec"], "sequence": 4294967295, "scriptSig": {"hex": "", "asm": ""}, "vout": 0, "txid": "613a6061183ea7b4b892cc9f6315a6e7de3e31c421c74e2c361d88ad66636d37"}], "txid": "f1ece37b36ff41bb32584392eed46614c6c0b14033afccd21ca95393470e66bf", "blocktime": 1537873891, "version": 1, "confirmations": 11478, "time": 1537873891, "locktime": 0, "vsize": 142, "size": 224}