{"hash": "f1ed89be6b98a75268f7cb9d5c3eab8006c09670cb646d124232831d42cd9cb4", "blockhash": "0000000000000000001cda96e906b7601b7a6fb1a3b62bca570a9e5d8f4b3de1", "vout": [{"scriptPubKey": {"type": "nulldata", "hex": "6a4c50000077c2000127bf8044c92b98c2e7e936e2e5bf9ae76da98a211aaf6c953dd567cf27e798c5eb9fa6bbd974d69c74e697ce49a45baa12ca061327b08babefea4bbf23acfcfaac8058b692fe6808c31d", "asm": "OP_RETURN 000077c2000127bf8044c92b98c2e7e936e2e5bf9ae76da98a211aaf6c953dd567cf27e798c5eb9fa6bbd974d69c74e697ce49a45baa12ca061327b08babefea4bbf23acfcfaac8058b692fe6808c31d"}, "value": 0.0, "n": 0}, {"scriptPubKey": {"reqSigs": 1, "hex": "76a914d0d138d0ec1f70ffb48631739904bebf1f1625e088ac", "addresses": ["1L38BtxYtZm5HBfrMhdCwe8ZjCt97zuTjt"], "asm": "OP_DUP OP_HASH160 d0d138d0ec1f70ffb48631739904bebf1f1625e0 OP_EQUALVERIFY OP_CHECKSIG", "type": "pubkeyhash"}, "value": 0.00015575, "n": 1}], "hex": "0100000001a1804375b42185cdd4cd0a25e93af3467ef7958298c0874e10aa6fb4481d4f2e000000006a47304402201f947a8a24733b1879fefd766123a5478d98f6625648ed95fcc628079b3199d50220092d4a24a90c7258760823028a6fbc669e01a19cc455f753b17b4b797aeb7ffd0121026b16fa944d0deebcbc83a9ea41fb7d56a2931e1ce869cd8535802b426e58b2d1ffffffff020000000000000000536a4c50000077c2000127bf8044c92b98c2e7e936e2e5bf9ae76da98a211aaf6c953dd567cf27e798c5eb9fa6bbd974d69c74e697ce49a45baa12ca061327b08babefea4bbf23acfcfaac8058b692fe6808c31dd73c0000000000001976a914d0d138d0ec1f70ffb48631739904bebf1f1625e088ac00000000", "vin": [{"sequence": 4294967295, "scriptSig": {"hex": "47304402201f947a8a24733b1879fefd766123a5478d98f6625648ed95fcc628079b3199d50220092d4a24a90c7258760823028a6fbc669e01a19cc455f753b17b4b797aeb7ffd0121026b16fa944d0deebcbc83a9ea41fb7d56a2931e1ce869cd8535802b426e58b2d1", "asm": "304402201f947a8a24733b1879fefd766123a5478d98f6625648ed95fcc628079b3199d50220092d4a24a90c7258760823028a6fbc669e01a19cc455f753b17b4b797aeb7ffd[ALL] 026b16fa944d0deebcbc83a9ea41fb7d56a2931e1ce869cd8535802b426e58b2d1"}, "vout": 0, "txid": "2e4f1d48b46faa104e87c0988295f77e46f33ae9250acdd4cd8521b4754380a1"}], "txid": "f1ed89be6b98a75268f7cb9d5c3eab8006c09670cb646d124232831d42cd9cb4", "blocktime": 1537873282, "version": 1, "confirmations": 11484, "time": 1537873282, "locktime": 0, "vsize": 283, "size": 283}