{"hash": "7b3406007d2f103dbec38a9e6840a78c02c018d6102bb5afc5cacc38d1d8daf0", "blockhash": "0000000000000000000dcc0f55137456b1a82d3642486a52398922ac4d620174", "vout": [{"scriptPubKey": {"reqSigs": 1, "hex": "001498717d750fe87c530be82f2d16e648a209e79587", "addresses": ["bc1qnpch6ag0ap79xzlg9uk3dejg5gy709v8u6gg3w"], "asm": "0 98717d750fe87c530be82f2d16e648a209e79587", "type": "witness_v0_keyhash"}, "value": 1.259e-05, "n": 0}, {"scriptPubKey": {"reqSigs": 1, "hex": "76a914d342faab97bcd22d8d5710425c5d02ef4fa8ad9288ac", "addresses": ["1LG3pGjcKSet7gYLP1T4iN9ZV4oBAkCTU7"], "asm": "OP_DUP OP_HASH160 d342faab97bcd22d8d5710425c5d02ef4fa8ad92 OP_EQUALVERIFY OP_CHECKSIG", "type": "pubkeyhash"}, "value": 0.00063034, "n": 1}], "hex": "01000000000101aa2b9907742f4b8f9c95c392ecd0f7313fc4f672010a0bbd7506b85c5accc0e20100000000ffffffff02eb0400000000000016001498717d750fe87c530be82f2d16e648a209e795873af60000000000001976a914d342faab97bcd22d8d5710425c5d02ef4fa8ad9288ac024830450221009bff32d8d1bd76649762fe02128b4291defb5ac17ea9be8ee81be7710de2380302205bd0a2085f1c373de4ec3dbf546ae119e6791bf269c9a725103171898dbcc83e012103191f9ed812ffadac5cdf2d9ed9bfc92ddf7b66e2ef7243ffd96709ce00360e8400000000", "vin": [{"txinwitness": ["30450221009bff32d8d1bd76649762fe02128b4291defb5ac17ea9be8ee81be7710de2380302205bd0a2085f1c373de4ec3dbf546ae119e6791bf269c9a725103171898dbcc83e01", "03191f9ed812ffadac5cdf2d9ed9bfc92ddf7b66e2ef7243ffd96709ce00360e84"], "sequence": 4294967295, "scriptSig": {"hex": "", "asm": ""}, "vout": 1, "txid": "e2c0cc5a5cb80675bd0b0a0172f6c43f31f7d0ec92c3959c8f4b2f7407992baa"}], "txid": "f1ee6b6d05fff11573c857e15e5d6a9dbe6849078beddf66849ed5eb2d80fe54", "blocktime": 1537870268, "version": 1, "confirmations": 11518, "time": 1537870268, "locktime": 0, "vsize": 144, "size": 226}