{"hash": "f1efdf179f678866ca9473b1475633dd1454854e5081688c19357cd81e73f306", "blockhash": "0000000000000000001f0ddff1eddb255c1121bcd4da4f1bc9a0da00cae72433", "vout": [{"scriptPubKey": {"reqSigs": 1, "hex": "76a914d243e6abb9a60fbff430b421d2df4b7d59ec186088ac", "addresses": ["1LAnF8h3qMGx3TSwNUHVneBZUEpwE4gu3D"], "asm": "OP_DUP OP_HASH160 d243e6abb9a60fbff430b421d2df4b7d59ec1860 OP_EQUALVERIFY OP_CHECKSIG", "type": "pubkeyhash"}, "value": 0.00077314, "n": 0}, {"scriptPubKey": {"reqSigs": 1, "hex": "a914415e6b755f439d5f1eb99548b38e4c7de6eeb3bc87", "addresses": ["37eexQtQ3ZHbMwrCNC2YK3YK8gE6fkDBSg"], "asm": "OP_HASH160 415e6b755f439d5f1eb99548b38e4c7de6eeb3bc OP_EQUAL", "type": "scripthash"}, "value": 5.46e-06, "n": 1}, {"scriptPubKey": {"type": "nulldata", "hex": "6a146f6d6e69000000000000001f00000005b4505500", "asm": "OP_RETURN 6f6d6e69000000000000001f00000005b4505500"}, "value": 0.0, "n": 2}], "hex": "01000000019afcb6abdb0ecf302c9620292bc7478dd5e54f815f042c2005157983d22b56aa000000006b483045022100a27654b1788deecde0fd6c78edbf825b3e661427d50d3fe4d460f188b0c9a32a02202a87fb3c2d3efc94e37b44a5fd2f0a30a1ff84b66845d97c85165fb4f8538ce001210271977291b74f1f5f5c42157e8aae804664eaaeccfd097918450d37f28fb94d77ffffffff03022e0100000000001976a914d243e6abb9a60fbff430b421d2df4b7d59ec186088ac220200000000000017a914415e6b755f439d5f1eb99548b38e4c7de6eeb3bc870000000000000000166a146f6d6e69000000000000001f00000005b450550000000000", "vin": [{"sequence": 4294967295, "scriptSig": {"hex": "483045022100a27654b1788deecde0fd6c78edbf825b3e661427d50d3fe4d460f188b0c9a32a02202a87fb3c2d3efc94e37b44a5fd2f0a30a1ff84b66845d97c85165fb4f8538ce001210271977291b74f1f5f5c42157e8aae804664eaaeccfd097918450d37f28fb94d77", "asm": "3045022100a27654b1788deecde0fd6c78edbf825b3e661427d50d3fe4d460f188b0c9a32a02202a87fb3c2d3efc94e37b44a5fd2f0a30a1ff84b66845d97c85165fb4f8538ce0[ALL] 0271977291b74f1f5f5c42157e8aae804664eaaeccfd097918450d37f28fb94d77"}, "vout": 0, "txid": "aa562bd283791505202c045f814fe5d58d47c72b2920962c30cf0edbabb6fc9a"}], "txid": "f1efdf179f678866ca9473b1475633dd1454854e5081688c19357cd81e73f306", "blocktime": 1537872018, "version": 1, "confirmations": 11489, "time": 1537872018, "locktime": 0, "vsize": 255, "size": 255}