{"hash": "f1f5361cba9848ccaceb5a47a46bd03fff34358de1c46e23afd56f702141d40d", "blockhash": "00000000000000000018f53835495a110e01622372bf6ae95dc86f2b0ab887b0", "vout": [{"scriptPubKey": {"reqSigs": 1, "hex": "a91450bc287c01db91b04aca728500bf045c0e0d337187", "addresses": ["393uPM5u9Kbh8o1X8odKcsoKzLj2xQ3YCi"], "asm": "OP_HASH160 50bc287c01db91b04aca728500bf045c0e0d3371 OP_EQUAL", "type": "scripthash"}, "value": 0.00111475, "n": 0}, {"scriptPubKey": {"reqSigs": 1, "hex": "76a91437c8155ea7f9ebd02afc8393b68f86628f0e4d4088ac", "addresses": ["165wrbU9QiRqhLPpThCfhjfYpWTgPKGSer"], "asm": "OP_DUP OP_HASH160 37c8155ea7f9ebd02afc8393b68f86628f0e4d40 OP_EQUALVERIFY OP_CHECKSIG", "type": "pubkeyhash"}, "value": 0.12528828, "n": 1}], "hex": "0100000001cd929e7184a4a42130dd6088b43eb8999714991261498823eaf785c82c49e82b010000006a4730440220328ba2e30a831fc9f454af3202394da5db3b5c52427aa874ac715b4f6fb7f5a402206a8b417c1af1b9ccb463add3c78da2acf634b3f32fa939d86e3da03f91dd86fc0121024ca1373a89afd09bf9c6a70612e4cf62de7aaa91b25630c983b9ddbbf6cc2138ffffffff0273b301000000000017a91450bc287c01db91b04aca728500bf045c0e0d337187bc2cbf00000000001976a91437c8155ea7f9ebd02afc8393b68f86628f0e4d4088ac00000000", "vin": [{"sequence": 4294967295, "scriptSig": {"hex": "4730440220328ba2e30a831fc9f454af3202394da5db3b5c52427aa874ac715b4f6fb7f5a402206a8b417c1af1b9ccb463add3c78da2acf634b3f32fa939d86e3da03f91dd86fc0121024ca1373a89afd09bf9c6a70612e4cf62de7aaa91b25630c983b9ddbbf6cc2138", "asm": "30440220328ba2e30a831fc9f454af3202394da5db3b5c52427aa874ac715b4f6fb7f5a402206a8b417c1af1b9ccb463add3c78da2acf634b3f32fa939d86e3da03f91dd86fc[ALL] 024ca1373a89afd09bf9c6a70612e4cf62de7aaa91b25630c983b9ddbbf6cc2138"}, "vout": 1, "txid": "2be8492cc885f7ea238849611299149799b83eb48860dd3021a4a484719e92cd"}], "txid": "f1f5361cba9848ccaceb5a47a46bd03fff34358de1c46e23afd56f702141d40d", "blocktime": 1537870928, "version": 1, "confirmations": 11514, "time": 1537870928, "locktime": 0, "vsize": 223, "size": 223}