{"hash": "f1f6ee4fa934c201204eea77371478e39e930179e21d39eacfeb5628d35cb3c1", "blockhash": "000000000000000000022b45ed06c6f4ccd3cf7fb5ba4856ebd2e58215665228", "vout": [{"scriptPubKey": {"reqSigs": 1, "hex": "76a914afef68b8497d2bd8f97a9865d6336c1058df330688ac", "addresses": ["1H3G41D1z4q68diQ99KYDMPy3qmV8t8YZq"], "asm": "OP_DUP OP_HASH160 afef68b8497d2bd8f97a9865d6336c1058df3306 OP_EQUALVERIFY OP_CHECKSIG", "type": "pubkeyhash"}, "value": 0.0016741, "n": 0}, {"scriptPubKey": {"reqSigs": 1, "hex": "76a914a51b372154b3d1841806f15e639efd8a365e3f9d88ac", "addresses": ["1G416cFountKCvWeo6e7UUx8tjhBzP5Th9"], "asm": "OP_DUP OP_HASH160 a51b372154b3d1841806f15e639efd8a365e3f9d OP_EQUALVERIFY OP_CHECKSIG", "type": "pubkeyhash"}, "value": 16.50659446, "n": 1}], "hex": "02000000014463d188de593d7fc1c571be46cf0463720c25972d848c6722f620445326a130010000006a4730440220670c0cbc396df3b5d208b7c320ba3683a88b0c2fecfbc10cc76778360c13162002204950501a29c23d6a91ec0d3e5138cb7fe23b18bd3b880cb1ecb681f981b3223e012103991ecfe72d98f5f3297b9be7eab710c7558fd10c00931ab7ebfb2af182dade59ffffffff02f28d0200000000001976a914afef68b8497d2bd8f97a9865d6336c1058df330688ac76106362000000001976a914a51b372154b3d1841806f15e639efd8a365e3f9d88ac00000000", "vin": [{"sequence": 4294967295, "scriptSig": {"hex": "4730440220670c0cbc396df3b5d208b7c320ba3683a88b0c2fecfbc10cc76778360c13162002204950501a29c23d6a91ec0d3e5138cb7fe23b18bd3b880cb1ecb681f981b3223e012103991ecfe72d98f5f3297b9be7eab710c7558fd10c00931ab7ebfb2af182dade59", "asm": "30440220670c0cbc396df3b5d208b7c320ba3683a88b0c2fecfbc10cc76778360c13162002204950501a29c23d6a91ec0d3e5138cb7fe23b18bd3b880cb1ecb681f981b3223e[ALL] 03991ecfe72d98f5f3297b9be7eab710c7558fd10c00931ab7ebfb2af182dade59"}, "vout": 1, "txid": "30a126534420f622678c842d97250c726304cf46be71c5c17f3d59de88d16344"}], "txid": "f1f6ee4fa934c201204eea77371478e39e930179e21d39eacfeb5628d35cb3c1", "blocktime": 1537869901, "version": 2, "confirmations": 11524, "time": 1537869901, "locktime": 0, "vsize": 225, "size": 225}