{"hash": "e2c1dc01ecd5f8cd31f8cf174a6fedee4a5fe9c2b184daeba23145441dea2ac9", "blockhash": "00000000000000000017f5eb5941039fbcee6240d03bc1f2f8e35350df66a1d8", "vout": [{"scriptPubKey": {"reqSigs": 1, "hex": "a914bd06727f7b9b315a0ed8481c795b15a500c1628387", "addresses": ["3JvVMmD4kgxNC26qmJBtbAJpbzUwbX7XEp"], "asm": "OP_HASH160 bd06727f7b9b315a0ed8481c795b15a500c16283 OP_EQUAL", "type": "scripthash"}, "value": 0.105174, "n": 0}, {"scriptPubKey": {"reqSigs": 1, "hex": "a914748616985c6063c9799779b43ff61ae02c126a2487", "addresses": ["3CK8wQqpdgcR5o9iAM2TThUxKdkmEXsafe"], "asm": "OP_HASH160 748616985c6063c9799779b43ff61ae02c126a24 OP_EQUAL", "type": "scripthash"}, "value": 0.234993, "n": 1}], "hex": "010000000001032429300a60c38bcb9ccb4cb3017ae607147e8412bb9b7cbfb9bceb4ab77fab4b01000000232200208eccf4acaae58a528521d437f7909d6bd906a547dcbc8310ef2d87d7bc2eec51ffffffffe439cef217eb7b6b61ee2d033dcd79e54757311cab01ea1c0f2619bc8742c10f000000002322002010461130211d9d9c3ef5796c98d0773b1794c67f1eb3f561b7381a5901b9d515ffffffffc283ea798cb03ee1a58038279e8a658ec10a9dd3def886b2befcf87dc57baaf20000000023220020ab7859f65396fe168e43637a6ace9491c6be646b82524ba47d1e2a08627fd1daffffffff02987ba0000000000017a914bd06727f7b9b315a0ed8481c795b15a500c1628387249266010000000017a914748616985c6063c9799779b43ff61ae02c126a24870400483045022100a0a1d82de93806a7d6b4fddc80cd102744ea7f14599badc293cb0b226b51261a02204d18b5e8bf80c00474829a0fd52f4bb1e385602a09b5686a11f75359fb5f561401483045022100bf3eb2ecd537a19884ed64551d4a6ae5f039272a50e2b9019bac791570a0239a02202b158790ff8540117c6ad2539cb709cc125d187fbeff77e7c7aa03dd9cc1686c01695221026a88182c18399760e1a9b1b921b18ee35778856febcbdf2a79133b5b226fb9492102e973a9e0871aef9d64c76e011ab062af2f3e738857d327e0764861eea7cfb4802102c417485c0860faf2d03c7927137c97c90f185dc016f60e3ff53901884048a92d53ae0400473044022034fca8d9dd6669ba1a2f8936f01443830c2e7a8bf780a4d277e87a9294c79dea022026c7a4d2a5b3e4790fdaabe0144b5a21ad22ba5a18ec5e1f2ccae4a23a19196401483045022100dbda12f947084915b74ad442b1cd28494b6dbe245415ac3c50fa09005176798b02206beba9695b444ed20cee7f525b957102395cdce41252c72996bda690d411fe6c016952210350f28325ff8c7e1fa68e1e2d55c54715f9f130447969328cab50fae2527e0e282103917a7a8c9e2141f70422a0d36f2cea17d859d98ae256f77abce4b03be194e05c2102a3ceee4144fde8e3d857b0f19c4ff84f583ec483cc335da6dd07bc26b1b5e35253ae0400483045022100da5d5cdf9dec2d5c651878d5ff743ab17faa6d92ced64a4f39b30a08c8779fb8022020010fde15a677a4bfaf2e28a7883a35f34b1d6c3c887bb94adb40354b8de3740147304402203dc230aa96d0ad2935c955d760c7cebd390a34de214a0bcee5ebbb408bb5f53f02206ac4e9f3c8c77d17ac2a2a2f590f163bc63fdca27bb6dbb7693729d5c2f9da4f0169522103acba0bac96b4658e5c53aee0c95367a6b28540dcfbaf029e4f817ddf818dabd62103d440692a6e0afc6e611350f5d162ae9118a9ef0f64e121587d638f9b56d91337210357724ca8fd0641e373e953a43a92d6fffded6309d52ef33d9c5575a47cecee6853ae00000000", "vin": [{"txinwitness": ["", "3045022100a0a1d82de93806a7d6b4fddc80cd102744ea7f14599badc293cb0b226b51261a02204d18b5e8bf80c00474829a0fd52f4bb1e385602a09b5686a11f75359fb5f561401", "3045022100bf3eb2ecd537a19884ed64551d4a6ae5f039272a50e2b9019bac791570a0239a02202b158790ff8540117c6ad2539cb709cc125d187fbeff77e7c7aa03dd9cc1686c01", "5221026a88182c18399760e1a9b1b921b18ee35778856febcbdf2a79133b5b226fb9492102e973a9e0871aef9d64c76e011ab062af2f3e738857d327e0764861eea7cfb4802102c417485c0860faf2d03c7927137c97c90f185dc016f60e3ff53901884048a92d53ae"], "sequence": 4294967295, "scriptSig": {"hex": "2200208eccf4acaae58a528521d437f7909d6bd906a547dcbc8310ef2d87d7bc2eec51", "asm": "00208eccf4acaae58a528521d437f7909d6bd906a547dcbc8310ef2d87d7bc2eec51"}, "vout": 1, "txid": "4bab7fb74aebbcb9bf7c9bbb12847e1407e67a01b34ccb9ccb8bc3600a302924"}, {"txinwitness": ["", "3044022034fca8d9dd6669ba1a2f8936f01443830c2e7a8bf780a4d277e87a9294c79dea022026c7a4d2a5b3e4790fdaabe0144b5a21ad22ba5a18ec5e1f2ccae4a23a19196401", "3045022100dbda12f947084915b74ad442b1cd28494b6dbe245415ac3c50fa09005176798b02206beba9695b444ed20cee7f525b957102395cdce41252c72996bda690d411fe6c01", "52210350f28325ff8c7e1fa68e1e2d55c54715f9f130447969328cab50fae2527e0e282103917a7a8c9e2141f70422a0d36f2cea17d859d98ae256f77abce4b03be194e05c2102a3ceee4144fde8e3d857b0f19c4ff84f583ec483cc335da6dd07bc26b1b5e35253ae"], "sequence": 4294967295, "scriptSig": {"hex": "22002010461130211d9d9c3ef5796c98d0773b1794c67f1eb3f561b7381a5901b9d515", "asm": "002010461130211d9d9c3ef5796c98d0773b1794c67f1eb3f561b7381a5901b9d515"}, "vout": 0, "txid": "0fc14287bc19260f1cea01ab1c315747e579cd3d032dee616b7beb17f2ce39e4"}, {"txinwitness": ["", "3045022100da5d5cdf9dec2d5c651878d5ff743ab17faa6d92ced64a4f39b30a08c8779fb8022020010fde15a677a4bfaf2e28a7883a35f34b1d6c3c887bb94adb40354b8de37401", "304402203dc230aa96d0ad2935c955d760c7cebd390a34de214a0bcee5ebbb408bb5f53f02206ac4e9f3c8c77d17ac2a2a2f590f163bc63fdca27bb6dbb7693729d5c2f9da4f01", "522103acba0bac96b4658e5c53aee0c95367a6b28540dcfbaf029e4f817ddf818dabd62103d440692a6e0afc6e611350f5d162ae9118a9ef0f64e121587d638f9b56d91337210357724ca8fd0641e373e953a43a92d6fffded6309d52ef33d9c5575a47cecee6853ae"], "sequence": 4294967295, "scriptSig": {"hex": "220020ab7859f65396fe168e43637a6ace9491c6be646b82524ba47d1e2a08627fd1da", "asm": "0020ab7859f65396fe168e43637a6ace9491c6be646b82524ba47d1e2a08627fd1da"}, "vout": 0, "txid": "f2aa7bc57df8fcbeb286f8ded39d0ac18e658a9e273880a5e13eb08c79ea83c2"}], "txid": "f1f649ac813008722a6f0b6d4b66942995db6ace196a82d4b292c51fe8b6bc76", "blocktime": 1537874412, "version": 1, "confirmations": 11467, "time": 1537874412, "locktime": 0, "vsize": 493, "size": 1064}