{"hash": "f2010d72d46cd2ce50383b7724f95a7ad4aeb30a31bf0b5c25fc3b1634571cd6", "blockhash": "00000000000000000018f53835495a110e01622372bf6ae95dc86f2b0ab887b0", "vout": [{"scriptPubKey": {"reqSigs": 1, "hex": "76a914dc16b56e013006d975b78aaa1816c2893022c87688ac", "addresses": ["1M4is2pztnwayP2kdTAHHrz42UibmEknZn"], "asm": "OP_DUP OP_HASH160 dc16b56e013006d975b78aaa1816c2893022c876 OP_EQUALVERIFY OP_CHECKSIG", "type": "pubkeyhash"}, "value": 0.00292207, "n": 0}, {"scriptPubKey": {"reqSigs": 1, "hex": "76a9148681b4c724a92f9b89e14521910551098e4cf38e88ac", "addresses": ["1DGCvrA4ohMXgepRtinbW7wKJ2nm55dt2f"], "asm": "OP_DUP OP_HASH160 8681b4c724a92f9b89e14521910551098e4cf38e OP_EQUALVERIFY OP_CHECKSIG", "type": "pubkeyhash"}, "value": 0.1686312, "n": 1}], "hex": "0100000001cd6aa9e418a5ceaa16d1d7ca7a5d9a9ea71d889c3cc5c9d51fc978bf19f34cd8030000006b483045022100d4a6e2a84a954d20ab8266fa9626b040a8e357c504a3cf3dfc1fed3010f2ce1f0220213baf845c7e7bba896996366144739a6838a93e695b455c9e7b4fe435ebb8b5012102b03470fcdb1e08e5e869bc295f751e2027b4ad2ffd96422dce4460725432e258ffffffff026f750400000000001976a914dc16b56e013006d975b78aaa1816c2893022c87688ac904f0101000000001976a9148681b4c724a92f9b89e14521910551098e4cf38e88ac00000000", "vin": [{"sequence": 4294967295, "scriptSig": {"hex": "483045022100d4a6e2a84a954d20ab8266fa9626b040a8e357c504a3cf3dfc1fed3010f2ce1f0220213baf845c7e7bba896996366144739a6838a93e695b455c9e7b4fe435ebb8b5012102b03470fcdb1e08e5e869bc295f751e2027b4ad2ffd96422dce4460725432e258", "asm": "3045022100d4a6e2a84a954d20ab8266fa9626b040a8e357c504a3cf3dfc1fed3010f2ce1f0220213baf845c7e7bba896996366144739a6838a93e695b455c9e7b4fe435ebb8b5[ALL] 02b03470fcdb1e08e5e869bc295f751e2027b4ad2ffd96422dce4460725432e258"}, "vout": 3, "txid": "d84cf319bf78c91fd5c9c53c9c881da79e9a5d7acad7d116aacea518e4a96acd"}], "txid": "f2010d72d46cd2ce50383b7724f95a7ad4aeb30a31bf0b5c25fc3b1634571cd6", "blocktime": 1537870928, "version": 1, "confirmations": 11514, "time": 1537870928, "locktime": 0, "vsize": 226, "size": 226}