{"hash": "f20b78ee67816aaefc9df93096a49bd05a4fe3a67728066a770cc5b4b60f1fc7", "blockhash": "0000000000000000001e0dab787dd257d1dbfcb92a98c2207d5e1078be1f4165", "vout": [{"scriptPubKey": {"reqSigs": 1, "hex": "76a914182ab2cc20f700ead60c80d7d5f3523146abeadc88ac", "addresses": ["13CnNLsjKbPW54KFyBRodjnvVg2rjd3qKv"], "asm": "OP_DUP OP_HASH160 182ab2cc20f700ead60c80d7d5f3523146abeadc OP_EQUALVERIFY OP_CHECKSIG", "type": "pubkeyhash"}, "value": 0.00025562, "n": 0}], "hex": "010000000179f9fa42cc0b3557bb5ce7ab09f29c5501f9863fd9818a4a0e50d5a7cd8e2902000000006a47304402207c86a5ea5d730a7292f1f42d5b47dcbb0fe9d97992b1975aabd453f818bba34d022032d174c4209a4de9e75c108bdf5bc095514e4adadcb3883dc6cdb9e5d2421ce9012103effcb0c5f8b271557a6732f4e20599807e2798ea3c56bf11fba5e91051f5495cffffffff01da630000000000001976a914182ab2cc20f700ead60c80d7d5f3523146abeadc88ac00000000", "vin": [{"sequence": 4294967295, "scriptSig": {"hex": "47304402207c86a5ea5d730a7292f1f42d5b47dcbb0fe9d97992b1975aabd453f818bba34d022032d174c4209a4de9e75c108bdf5bc095514e4adadcb3883dc6cdb9e5d2421ce9012103effcb0c5f8b271557a6732f4e20599807e2798ea3c56bf11fba5e91051f5495c", "asm": "304402207c86a5ea5d730a7292f1f42d5b47dcbb0fe9d97992b1975aabd453f818bba34d022032d174c4209a4de9e75c108bdf5bc095514e4adadcb3883dc6cdb9e5d2421ce9[ALL] 03effcb0c5f8b271557a6732f4e20599807e2798ea3c56bf11fba5e91051f5495c"}, "vout": 0, "txid": "02298ecda7d5500e4a8a81d93f86f901559cf209abe75cbb57350bcc42faf979"}], "txid": "f20b78ee67816aaefc9df93096a49bd05a4fe3a67728066a770cc5b4b60f1fc7", "blocktime": 1537872475, "version": 1, "confirmations": 11486, "time": 1537872475, "locktime": 0, "vsize": 191, "size": 191}