{"hash": "f2163b73b714f4da3ca070403edc72ae9f4f61d69ccbdc6fa666a57f4af885cd", "blockhash": "0000000000000000001e0dab787dd257d1dbfcb92a98c2207d5e1078be1f4165", "vout": [{"scriptPubKey": {"reqSigs": 1, "hex": "76a9149a342b1bfbc28ff3f45035d07cbfcc97f335c10e88ac", "addresses": ["1F4MZGQNDnAMmq1tERQZsGi5EiRxSEWVf5"], "asm": "OP_DUP OP_HASH160 9a342b1bfbc28ff3f45035d07cbfcc97f335c10e OP_EQUALVERIFY OP_CHECKSIG", "type": "pubkeyhash"}, "value": 0.03861053, "n": 0}], "hex": "0100000001ae67b47325c2f0aa125071dbe49e8193e8241250343adc6d9b2c49d881000958000000006a47304402204d6e23f241abbda075a77e38a33476449f2f1adb1fc0e973ed9e58fa3ba3aaec0220287a04eae3a2d8a070f47601f7cfa82f893dd32e303d7f4e8d0d40e2b0fe028d012102e39d5747715f8a4efcfc8ec1cc714f889c51ecc6c57db413d4d55208ce2eed75ffffffff013dea3a00000000001976a9149a342b1bfbc28ff3f45035d07cbfcc97f335c10e88ac00000000", "vin": [{"sequence": 4294967295, "scriptSig": {"hex": "47304402204d6e23f241abbda075a77e38a33476449f2f1adb1fc0e973ed9e58fa3ba3aaec0220287a04eae3a2d8a070f47601f7cfa82f893dd32e303d7f4e8d0d40e2b0fe028d012102e39d5747715f8a4efcfc8ec1cc714f889c51ecc6c57db413d4d55208ce2eed75", "asm": "304402204d6e23f241abbda075a77e38a33476449f2f1adb1fc0e973ed9e58fa3ba3aaec0220287a04eae3a2d8a070f47601f7cfa82f893dd32e303d7f4e8d0d40e2b0fe028d[ALL] 02e39d5747715f8a4efcfc8ec1cc714f889c51ecc6c57db413d4d55208ce2eed75"}, "vout": 0, "txid": "58090081d8492c9b6ddc3a34501224e893819ee4db715012aaf0c22573b467ae"}], "txid": "f2163b73b714f4da3ca070403edc72ae9f4f61d69ccbdc6fa666a57f4af885cd", "blocktime": 1537872475, "version": 1, "confirmations": 11486, "time": 1537872475, "locktime": 0, "vsize": 191, "size": 191}