{"hash": "429c7c1397160366cd6bbe7179756638f6cd0e63787178afe25f30d1ff94797d", "blockhash": "0000000000000000000baef3f32e3676a92c3b2e5da21b426e4f302fc371ce76", "vout": [{"scriptPubKey": {"reqSigs": 1, "hex": "76a91411465316697bac8315a42a18020fde9aa169223088ac", "addresses": ["12aLjVqn382Bjy4c5g7jpshJHuVMupoASQ"], "asm": "OP_DUP OP_HASH160 11465316697bac8315a42a18020fde9aa1692230 OP_EQUALVERIFY OP_CHECKSIG", "type": "pubkeyhash"}, "value": 0.18288266, "n": 0}, {"scriptPubKey": {"reqSigs": 1, "hex": "a9143479a85728f470871bd76f77be6aa128cb70d1cb87", "addresses": ["36UUoSEDfrr1mkNixyQhNYDZsFjpja6Kzo"], "asm": "OP_HASH160 3479a85728f470871bd76f77be6aa128cb70d1cb OP_EQUAL", "type": "scripthash"}, "value": 4.20104808, "n": 1}], "hex": "010000000001037b4af8ad5780ee48d6cfa3c7a387213127d1710b9f0006fe754b771df6ae1f8e0000000017160014121fad01d783d8e288ac9d3082206eca5971fb3fffffff0078108032ea4ddab947c8e5e68d42d842e02a4e85a3ec57e9449c499974d08c6b0000000017160014121fad01d783d8e288ac9d3082206eca5971fb3fffffff004d800ca6edfb5ece6c86884e2a0357b668e4267a4568b67e5ba1ec07c05153150100000017160014962415856e089da2f67777213b32e984d16008f9ffffff00028a0e1701000000001976a91411465316697bac8315a42a18020fde9aa169223088ac684a0a190000000017a9143479a85728f470871bd76f77be6aa128cb70d1cb8702483045022100c25867fbeda3c99211b88c0a9d5867c06f2e371bc3802c122716c88b9b7338c0022074b9ed4b8ca4c99f45b206d12b1e9e91ab2cd7ba286311cb1949bec08cc0fb240121026c198e7c4299fee2698f6f68a7385370fc1af69727d2b3aab7880b08b2db9e580247304402201d5ee8b6ee71689a516a4ef45fcce2afc401a6018c4618ac94b6ea4994ccdbaf022043e84b6208876add6daa67531be5e24ee0645d94df687c5e365278d3226161aa0121026c198e7c4299fee2698f6f68a7385370fc1af69727d2b3aab7880b08b2db9e5802483045022100977c98268455e48d95e9b12016d60e78d353afb0be66221794a4c1719808838802204c52b6a7cc6f29358f87b8101c63da38056c42c797b02f7aacde8ca7ae2de782012102293be13646d636b1978cd0028926fa572ae23f95550d8b4479f3041e33a5191700000000", "vin": [{"txinwitness": ["3045022100c25867fbeda3c99211b88c0a9d5867c06f2e371bc3802c122716c88b9b7338c0022074b9ed4b8ca4c99f45b206d12b1e9e91ab2cd7ba286311cb1949bec08cc0fb2401", "026c198e7c4299fee2698f6f68a7385370fc1af69727d2b3aab7880b08b2db9e58"], "sequence": 16777215, "scriptSig": {"hex": "160014121fad01d783d8e288ac9d3082206eca5971fb3f", "asm": "0014121fad01d783d8e288ac9d3082206eca5971fb3f"}, "vout": 0, "txid": "8e1faef61d774b75fe06009f0b71d127312187a3c7a3cfd648ee8057adf84a7b"}, {"txinwitness": ["304402201d5ee8b6ee71689a516a4ef45fcce2afc401a6018c4618ac94b6ea4994ccdbaf022043e84b6208876add6daa67531be5e24ee0645d94df687c5e365278d3226161aa01", "026c198e7c4299fee2698f6f68a7385370fc1af69727d2b3aab7880b08b2db9e58"], "sequence": 16777215, "scriptSig": {"hex": "160014121fad01d783d8e288ac9d3082206eca5971fb3f", "asm": "0014121fad01d783d8e288ac9d3082206eca5971fb3f"}, "vout": 0, "txid": "6b8cd07499499c44e957eca3854e2ae042d8428de6e5c847b9da4dea32801078"}, {"txinwitness": ["3045022100977c98268455e48d95e9b12016d60e78d353afb0be66221794a4c1719808838802204c52b6a7cc6f29358f87b8101c63da38056c42c797b02f7aacde8ca7ae2de78201", "02293be13646d636b1978cd0028926fa572ae23f95550d8b4479f3041e33a51917"], "sequence": 16777215, "scriptSig": {"hex": "160014962415856e089da2f67777213b32e984d16008f9", "asm": "0014962415856e089da2f67777213b32e984d16008f9"}, "vout": 1, "txid": "155351c007eca15b7eb668457a26e468b657032a4e88866cce5efbeda60c804d"}], "txid": "f2180c2f9795553ae2dd09818e41a674e6eb85a325fab5f89b1f5ca761d4b881", "blocktime": 1537876114, "version": 1, "confirmations": 11460, "time": 1537876114, "locktime": 0, "vsize": 350, "size": 593}