{"hash": "f2184d4b24ce83e49658667c749c44406490af2e4ac1153d403043a306681c87", "blockhash": "0000000000000000001f0ddff1eddb255c1121bcd4da4f1bc9a0da00cae72433", "vout": [{"scriptPubKey": {"reqSigs": 1, "hex": "a914c1d9d875fca51261fb2ef02c70ffb8cab4ba885487", "addresses": ["3KN1Jjwi2Mi5jn9tTjMod3W3eXJJw7ruBP"], "asm": "OP_HASH160 c1d9d875fca51261fb2ef02c70ffb8cab4ba8854 OP_EQUAL", "type": "scripthash"}, "value": 0.00046, "n": 0}, {"scriptPubKey": {"reqSigs": 1, "hex": "76a914dc5d49970b83e36a5ddb1d296f200ecf635a75e988ac", "addresses": ["1M6BQvtYedzVeCJvbeLUsZEx4f7wGGMZa7"], "asm": "OP_DUP OP_HASH160 dc5d49970b83e36a5ddb1d296f200ecf635a75e9 OP_EQUALVERIFY OP_CHECKSIG", "type": "pubkeyhash"}, "value": 0.00397048, "n": 1}], "hex": "0100000001e240d5a9a5960be9aed8808f476e2c0d6ae7fc773177b03fd104116d3173f3de010000006a47304402200361b93c3180ae2227490b05e07f904eea1c25ba4f0e72e2e186075611890c6a022041cbaa5c6d2b1191fbdf7bd4947dbf4bb17a3934328966afb426f13ad903d627012103e2f6fc43752db1739ddb796cbccbdd76a431d6d7be5f2e4f7401fe9cf44e416afdffffff02b0b300000000000017a914c1d9d875fca51261fb2ef02c70ffb8cab4ba885487f80e0600000000001976a914dc5d49970b83e36a5ddb1d296f200ecf635a75e988ac0e490800", "vin": [{"sequence": 4294967293, "scriptSig": {"hex": "47304402200361b93c3180ae2227490b05e07f904eea1c25ba4f0e72e2e186075611890c6a022041cbaa5c6d2b1191fbdf7bd4947dbf4bb17a3934328966afb426f13ad903d627012103e2f6fc43752db1739ddb796cbccbdd76a431d6d7be5f2e4f7401fe9cf44e416a", "asm": "304402200361b93c3180ae2227490b05e07f904eea1c25ba4f0e72e2e186075611890c6a022041cbaa5c6d2b1191fbdf7bd4947dbf4bb17a3934328966afb426f13ad903d627[ALL] 03e2f6fc43752db1739ddb796cbccbdd76a431d6d7be5f2e4f7401fe9cf44e416a"}, "vout": 1, "txid": "def373316d1104d13fb0773177fce76a0d2c6e478f80d8aee90b96a5a9d540e2"}], "txid": "f2184d4b24ce83e49658667c749c44406490af2e4ac1153d403043a306681c87", "blocktime": 1537872018, "version": 1, "confirmations": 11489, "time": 1537872018, "locktime": 542990, "vsize": 223, "size": 223}