{"hash": "ddb2a18128fb7a15368d832ba5c241e3a2e61d14bd686c953fb9a55545a995e7", "blockhash": "00000000000000000024a2167bbff67b0be802c0b01cdd79e6331c2be6459f87", "vout": [{"scriptPubKey": {"reqSigs": 1, "hex": "a91473216ef995288402fe18501c7184257c09af66dc87", "addresses": ["3CBmgc11SMrX3ccFYbk7hYES8xKMNVjuFV"], "asm": "OP_HASH160 73216ef995288402fe18501c7184257c09af66dc OP_EQUAL", "type": "scripthash"}, "value": 0.00081161, "n": 0}, {"scriptPubKey": {"reqSigs": 1, "hex": "0014e0addc08354dfa46b93c253a995fe6ad15133fa7", "addresses": ["bc1quzkaczp4fhaydwfuy5afjhlx4523x0a82eczl9"], "asm": "0 e0addc08354dfa46b93c253a995fe6ad15133fa7", "type": "witness_v0_keyhash"}, "value": 1.654e-05, "n": 1}], "hex": "010000000001014806a7dcca0c280d0c4325fe5c2e25003566d601e8b703dff3e7df1f0b7cd10a0000000000ffffffff02093d01000000000017a91473216ef995288402fe18501c7184257c09af66dc877606000000000000160014e0addc08354dfa46b93c253a995fe6ad15133fa70247304402203a82f16fce4d5cb347d6aa9c211a6f159cc9ff0b9ffa2bb1e9b3cc9f3d5ad36f02200ccd6139aaa01560945960ca51d467321ba84f0e972b13c884a3585d05eea83201210350977e880446a9067539f8269f6a60892ce0b62c801f3edb0d77daff97a9790400000000", "vin": [{"txinwitness": ["304402203a82f16fce4d5cb347d6aa9c211a6f159cc9ff0b9ffa2bb1e9b3cc9f3d5ad36f02200ccd6139aaa01560945960ca51d467321ba84f0e972b13c884a3585d05eea83201", "0350977e880446a9067539f8269f6a60892ce0b62c801f3edb0d77daff97a97904"], "sequence": 4294967295, "scriptSig": {"hex": "", "asm": ""}, "vout": 0, "txid": "0ad17c0b1fdfe7f3df03b7e801d6663500252e5cfe25430c0d280ccadca70648"}], "txid": "f21cd9f9be618384a5b8bedc1981816c831b7c7a3dd8a1b2bbf3faeb12d14adf", "blocktime": 1537870564, "version": 1, "confirmations": 11515, "time": 1537870564, "locktime": 0, "vsize": 142, "size": 223}