{"hash": "f222961c84a113a6bbdeb79ab7fc70c6285d40adf8048a5f4585db161f3c8a76", "blockhash": "0000000000000000001cda96e906b7601b7a6fb1a3b62bca570a9e5d8f4b3de1", "vout": [{"scriptPubKey": {"reqSigs": 1, "hex": "76a914e13f0af27728cf79e6fba50f6d71a4647e43965f88ac", "addresses": ["1MXzZT5yjqajYBey7ktozmsGf4kpoP62qs"], "asm": "OP_DUP OP_HASH160 e13f0af27728cf79e6fba50f6d71a4647e43965f OP_EQUALVERIFY OP_CHECKSIG", "type": "pubkeyhash"}, "value": 0.004697, "n": 0}, {"scriptPubKey": {"reqSigs": 1, "hex": "76a914b4c89d84b002c25589ca6696987163f99d4f1cb888ac", "addresses": ["1HUtxXU6fTARagPpUYLt1uEGLs14Kff3EL"], "asm": "OP_DUP OP_HASH160 b4c89d84b002c25589ca6696987163f99d4f1cb8 OP_EQUALVERIFY OP_CHECKSIG", "type": "pubkeyhash"}, "value": 0.00230021, "n": 1}], "hex": "010000000165785f2ba3a429fd09ac9a39c64efc363a6738c89a309362e7171536be047c35000000006a47304402204d31ff4c3cd0e72542d29254b57aec56c9dcf6f04b91fb2ac8e91cbeaa3455bf02206367b59b5992c8234e7176039375daac2735902f9d616ce0c229b6709fb2bfe701210355286594dff9c47bd1972e43b5e4516a029a87ec739912a9dbcb94e314b9e91effffffff02c42a0700000000001976a914e13f0af27728cf79e6fba50f6d71a4647e43965f88ac85820300000000001976a914b4c89d84b002c25589ca6696987163f99d4f1cb888ac00000000", "vin": [{"sequence": 4294967295, "scriptSig": {"hex": "47304402204d31ff4c3cd0e72542d29254b57aec56c9dcf6f04b91fb2ac8e91cbeaa3455bf02206367b59b5992c8234e7176039375daac2735902f9d616ce0c229b6709fb2bfe701210355286594dff9c47bd1972e43b5e4516a029a87ec739912a9dbcb94e314b9e91e", "asm": "304402204d31ff4c3cd0e72542d29254b57aec56c9dcf6f04b91fb2ac8e91cbeaa3455bf02206367b59b5992c8234e7176039375daac2735902f9d616ce0c229b6709fb2bfe7[ALL] 0355286594dff9c47bd1972e43b5e4516a029a87ec739912a9dbcb94e314b9e91e"}, "vout": 0, "txid": "357c04be361517e76293309ac838673a36fc4ec6399aac09fd29a4a32b5f7865"}], "txid": "f222961c84a113a6bbdeb79ab7fc70c6285d40adf8048a5f4585db161f3c8a76", "blocktime": 1537873282, "version": 1, "confirmations": 11485, "time": 1537873282, "locktime": 0, "vsize": 225, "size": 225}