{"hash": "f2259050658823d1e6aa68c0bbd6f9061999bc22da58401b97b4e8e9145a3029", "blockhash": "00000000000000000024a2167bbff67b0be802c0b01cdd79e6331c2be6459f87", "vout": [{"scriptPubKey": {"reqSigs": 1, "hex": "76a91437f285b70bd15d9bbb90d3cb532d2c1a8aae97a288ac", "addresses": ["166phJEiLbzx26RZYnAiRZE8JCaddkbpDx"], "asm": "OP_DUP OP_HASH160 37f285b70bd15d9bbb90d3cb532d2c1a8aae97a2 OP_EQUALVERIFY OP_CHECKSIG", "type": "pubkeyhash"}, "value": 0.00035662, "n": 0}, {"scriptPubKey": {"reqSigs": 1, "hex": "a9145447b52b6296a8b10240965f15a79dd1ae4dba0087", "addresses": ["39NeazgikUgxLhTjQEuyBSkizztSPEKv1x"], "asm": "OP_HASH160 5447b52b6296a8b10240965f15a79dd1ae4dba00 OP_EQUAL", "type": "scripthash"}, "value": 0.01227, "n": 1}], "hex": "0100000001f92929510ffb8fcead7dfd2800136cdbde60fb222326ae11646587b6c5ed26ce000000006b4830450221009ca4d1641856f4f88f85ee7c0443e965b4d430899b4c97334bac2d31d62d626c022036dc2dba91df83369f8c1f46ea327bb9f123a2f6ce77fb18891e12daeb79a68a012102d1ad3ac576fbfae3914a1d79bc228a2104885550a8ff6f36e2e69ca88e46be56fdffffff024e8b0000000000001976a91437f285b70bd15d9bbb90d3cb532d2c1a8aae97a288acf8b812000000000017a9145447b52b6296a8b10240965f15a79dd1ae4dba00870d490800", "vin": [{"sequence": 4294967293, "scriptSig": {"hex": "4830450221009ca4d1641856f4f88f85ee7c0443e965b4d430899b4c97334bac2d31d62d626c022036dc2dba91df83369f8c1f46ea327bb9f123a2f6ce77fb18891e12daeb79a68a012102d1ad3ac576fbfae3914a1d79bc228a2104885550a8ff6f36e2e69ca88e46be56", "asm": "30450221009ca4d1641856f4f88f85ee7c0443e965b4d430899b4c97334bac2d31d62d626c022036dc2dba91df83369f8c1f46ea327bb9f123a2f6ce77fb18891e12daeb79a68a[ALL] 02d1ad3ac576fbfae3914a1d79bc228a2104885550a8ff6f36e2e69ca88e46be56"}, "vout": 0, "txid": "ce26edc5b687656411ae262322fb60dedb6c130028fd7dadce8ffb0f512929f9"}], "txid": "f2259050658823d1e6aa68c0bbd6f9061999bc22da58401b97b4e8e9145a3029", "blocktime": 1537870564, "version": 1, "confirmations": 11515, "time": 1537870564, "locktime": 542989, "vsize": 224, "size": 224}