{"hash": "4f95cbd2937d1700db627a237b60353787c5bf5053074f7e7d4396873d1c8be3", "blockhash": "00000000000000000017f5eb5941039fbcee6240d03bc1f2f8e35350df66a1d8", "vout": [{"scriptPubKey": {"reqSigs": 1, "hex": "76a9145488e4a097d3cabb9b414ee2d348c094763d9bde88ac", "addresses": ["18hykcThgaAPd298VxVsFVXY6X3NvLXEJW"], "asm": "OP_DUP OP_HASH160 5488e4a097d3cabb9b414ee2d348c094763d9bde OP_EQUALVERIFY OP_CHECKSIG", "type": "pubkeyhash"}, "value": 0.01036, "n": 0}, {"scriptPubKey": {"reqSigs": 1, "hex": "a914d716acf077a9a7237f60060d1a1cf7613d411c1f87", "addresses": ["3MJJNK2ugGZzTiqxJFpmiFwD6Stbgw2vvJ"], "asm": "OP_HASH160 d716acf077a9a7237f60060d1a1cf7613d411c1f OP_EQUAL", "type": "scripthash"}, "value": 0.02847274, "n": 1}], "hex": "01000000000101e53a4bff1f7dbe2ee5c7887dad95dbe0767a2cac73ac2c03e7e6c2e0cb5f89240100000023220020df6f13bcc6e094d1e287bcbc6b72293cff93cae0020f4693b4006e59a6989d4effffffff02e0ce0f00000000001976a9145488e4a097d3cabb9b414ee2d348c094763d9bde88ac2a722b000000000017a914d716acf077a9a7237f60060d1a1cf7613d411c1f87040047304402205ac44c6d6bd03f104fab25c442a6672058ce99b6a58db6d2e48a1dd5c54399000220412275538fef7d6d14f1784747908f8217f0259c982ea5ad097f3504476da49e01483045022100fb74336121404f9cd6fad4a5ff060e63d7b91f2a66c369c76de38de880ecf24a022074acd3f6fd4e9f930a7a94aca21915bf3f86191f28c61e4a6898dc021c4338ec01475221029f96270e8b3a3254b33b5d416e81f0401870d8be90f620acd96f72ee07e5464621031beaed18ea1fd3795739e441efa54c47ed150f2db75e8814a34039488a2d6fac52ae00000000", "vin": [{"txinwitness": ["", "304402205ac44c6d6bd03f104fab25c442a6672058ce99b6a58db6d2e48a1dd5c54399000220412275538fef7d6d14f1784747908f8217f0259c982ea5ad097f3504476da49e01", "3045022100fb74336121404f9cd6fad4a5ff060e63d7b91f2a66c369c76de38de880ecf24a022074acd3f6fd4e9f930a7a94aca21915bf3f86191f28c61e4a6898dc021c4338ec01", "5221029f96270e8b3a3254b33b5d416e81f0401870d8be90f620acd96f72ee07e5464621031beaed18ea1fd3795739e441efa54c47ed150f2db75e8814a34039488a2d6fac52ae"], "sequence": 4294967295, "scriptSig": {"hex": "220020df6f13bcc6e094d1e287bcbc6b72293cff93cae0020f4693b4006e59a6989d4e", "asm": "0020df6f13bcc6e094d1e287bcbc6b72293cff93cae0020f4693b4006e59a6989d4e"}, "vout": 1, "txid": "24895fcbe0c2e6e7032cac73ac2c7a76e0db95ad7d88c7e52ebe7d1fff4b3ae5"}], "txid": "f227258ef4319f55f89ecbefb4fe7b6bbc0fb3edb9aa531ebdc0b08f41ae28c1", "blocktime": 1537874412, "version": 1, "confirmations": 11468, "time": 1537874412, "locktime": 0, "vsize": 208, "size": 373}