{"hash": "f22963a7b057064c7d9597fc2fdfc5d6275bf40e6c136e55f89773acb03e41f4", "blockhash": "0000000000000000000baef3f32e3676a92c3b2e5da21b426e4f302fc371ce76", "vout": [{"scriptPubKey": {"reqSigs": 1, "hex": "76a914a47700868942803450d2b9fb2ba6de790c39e98288ac", "addresses": ["1FzcNsLCb3NvK3hZfYZpBZGmP525DUa2Pd"], "asm": "OP_DUP OP_HASH160 a47700868942803450d2b9fb2ba6de790c39e982 OP_EQUALVERIFY OP_CHECKSIG", "type": "pubkeyhash"}, "value": 0.08, "n": 0}, {"scriptPubKey": {"reqSigs": 1, "hex": "76a914d14b795df98154f90d452c9bd2fa2988e86aad8788ac", "addresses": ["1L5ee8D59X1sUYjSU699xh3fdTdR4EqYrt"], "asm": "OP_DUP OP_HASH160 d14b795df98154f90d452c9bd2fa2988e86aad87 OP_EQUALVERIFY OP_CHECKSIG", "type": "pubkeyhash"}, "value": 0.0022, "n": 1}, {"scriptPubKey": {"reqSigs": 1, "hex": "76a914af9cbf5694c00bc362aab3b0860fec9c47a13a7688ac", "addresses": ["1H1Z2a9zz7sNUq3NuXQRqdMiDiWFhJvhz3"], "asm": "OP_DUP OP_HASH160 af9cbf5694c00bc362aab3b0860fec9c47a13a76 OP_EQUALVERIFY OP_CHECKSIG", "type": "pubkeyhash"}, "value": 0.0239943, "n": 2}, {"scriptPubKey": {"reqSigs": 1, "hex": "76a91467fd7541deec20cc853068071e05e57b17133f6e88ac", "addresses": ["1AUrELEcg8kD3d6Kv45aQcjeqsEKizSseP"], "asm": "OP_DUP OP_HASH160 67fd7541deec20cc853068071e05e57b17133f6e OP_EQUALVERIFY OP_CHECKSIG", "type": "pubkeyhash"}, "value": 5.82069203, "n": 3}], "hex": "0100000014ba7c8e54eb40ef67635bc2315090517842248a14d24ebc6cbad664d4bb0c46b5030000006a473044022040f2ce6bcf102b1a5802a102dd76058d1d1b7886a59f8a5e51a26b2b6f99b31702207b2153033ad70eb92804f23c42347ef0b03622bbfc0155bb15ab6a4f2b601fdf012102cc910111df5d842c25f108c7b9eddff0302017af05d0c9f3dfe0e1ad5150c661ffffffff4beaa99bd8e6707db332d1c585455f2f156c4d26724812b89373fde44269f5c7010000006b483045022100ce733321f0406dae89e0b220c468adc21c3106638613fceaaa5c6c069a0f0bc8022059c7b5ecd9b4654ba8e4d04163cabe0100c77d50a5907982a70f911a69e653f801210271b8197c381344e9d79d1b25e21bf7eab9f36f953dea63439a6cef526b2fe323ffffffff4f783e77eb57e4044d0cc779f2adc23be36714ab33675e519176c336fdd1454e0e0000006b483045022100efeb38a1071567cbacb9a0ba20b7243118146ad883e1f157bafc6da781c7f87302201f895cfc68015f9bdd88c0c912354751766e514fa4e8e4a489cd21b13eeba6f70121025982cba7b3669461b87965b6f06b19cba28e0d6ed89e071ec8d2aed410ae817effffffff4f783e77eb57e4044d0cc779f2adc23be36714ab33675e519176c336fdd1454e540000006b483045022100940515dccd75ae4fc3d27898b439138df1ee62c102cfb18c94305b71180670880220283ec4be65d1ce3f690630b2de0f69a37a63ec1c932239cd62845d48b517ce5d012102f70de211ce2d68892394c7fb3341692995210f2ca91f7976e8c7310c78a11a56ffffffff4f783e77eb57e4044d0cc779f2adc23be36714ab33675e519176c336fdd1454e2c0000006a47304402201d6d4d82053a99fba147bec9eecc6b09880621266a3daebaddac456e8e760cae022034f3d9b60f5f4cca5ebb4121e87053ea477104cd5677b348ce30433e6a3b37e50121039d2b5b921f01cdf2d0680f5dde8783c770ad765f0278f9bddfc5227d46d56647ffffffff4f783e77eb57e4044d0cc779f2adc23be36714ab33675e519176c336fdd1454e250000006a473044022015bd435df872db56ef87e2faa3e645a858a688014c4b878af178e8a5f70b67f402207580f463ab5300508f0881146a5176bd3e942dc19cce6b425b90e3f1e7caaf6f0121029dff0b356efb1e110bc0e2fcbcf2dfb0c2b9b4ec05bb7bceba5e4287ef6dde05ffffffff4f783e77eb57e4044d0cc779f2adc23be36714ab33675e519176c336fdd1454e0d0000006b4830450221009d86d2990395ec3dfc1afe534efd4876304d175ea32446551a70fa90f9f0673a02206c87d9c05cba67d90d5eb59a6f1f3e19f41ebe822d08b7efcd4ea196a14ade6d0121025d09c07841380906a67753998aae467b96b7f3d8b585c3ff189ae35d051c4235ffffffff4f783e77eb57e4044d0cc779f2adc23be36714ab33675e519176c336fdd1454e210000006a47304402207df098a09749e2e2f18525c1e267e67195d16fdc36e167acfe295576302a8e9602201217083f673b0cadb679b0801fd9bd209b9a023f104ef8fc0a89b1c75ef08c1d01210229f1723d883ea1254c3fc33c1d1e1d2a07473e9d9be491beec2d9574996c3833ffffffff4f783e77eb57e4044d0cc779f2adc23be36714ab33675e519176c336fdd1454e030000006a4730440220046b5e15a7111b7ad422c4792488897504b53b373a992386ce4a1a8bfb6ca509022065f8aeb21490733813f4141e357ced32482f57a479b15593805d0d0e0a2838420121027d194d8577a3d9daccb4b77029ce60193cc7ceeebbdc4a82a37d12150bafad39ffffffff4f783e77eb57e4044d0cc779f2adc23be36714ab33675e519176c336fdd1454e320000006a47304402201e0d0af1b0c071b739011e3aab62cca439b158aa6d1beb7adbd1c4775ce2f08c0220138c360cec4bd86e2824716269b67ade266f4a01c2f5427b3e9c100804b9977d0121032828365f020665b16dc6e9a28d0e27b792061dc7af516ea80af59e7134e18827ffffffff4f783e77eb57e4044d0cc779f2adc23be36714ab33675e519176c336fdd1454e370000006a473044022005075019891632ba3b22993237f7be7b2456c7bea961e6444d2076a3e4ee553e02204f14701bbb6cc2d64c9a8e5c225fcc730a7c6691c3eab909d7de9d5bc3a80a72012103443efd87f402de62eec5b82096e5e2429b9ea5afdd2b6d8d91b555bf79895928ffffffff4f783e77eb57e4044d0cc779f2adc23be36714ab33675e519176c336fdd1454e440000006b4830450221008869536734f7aa61a8a9599dcd685d181e179108a4bb477b5e44a85673d9d6a502205f7959bef8c01e1870f964663d624a84eee615858667c3414fb5c10646b1d769012102c6f9c21c413e78ffaeff9d560d58a5323edd9d47208099c8c44d5d36bfebf82affffffff555cc3e005adbe808f343ddaaadfcd5ed75b89ff4d89389d99fcee7ac36ea5d75a0000006b483045022100895ea5bbb73a81875297302c9a911d7ec4d447031446ed707c124b54e8f655fd0220317d8e93f272e6d10bc2aec380fdefce39eb252af8e62446a6a55a026c1a5b0a012102d0d2ea761f36dae2fdca49f3c786ae988a6754db517f0ed28c632e0bb083c5f2ffffffff555cc3e005adbe808f343ddaaadfcd5ed75b89ff4d89389d99fcee7ac36ea5d7060000006a473044022074066c2ce4d0b617b853b85ecf5fa374b0a4bff27b0c6d8ca2d818f75307a1bd02207b7948e7c4bae6c2d360330072ff36983f0ead4a0a1d06453a4656d8dcaf5fd6012103e8fc49d5e274d0e69b26a25c83fa8fca5a22b8fdb649e0523b094ad3f6586556ffffffff555cc3e005adbe808f343ddaaadfcd5ed75b89ff4d89389d99fcee7ac36ea5d7330000006a473044022073d683c83a9d5b2eaab7aa08d428cdc41357cc307b224d780e4ef7f882bb8e2d02203e88a09a592324037a2f2cf0780b9846fad1e06e2ed88b799094dc52a544887e0121037d2c59f1b27e38b2d479041bdbfa1f4beff1069f34439b585ff6f303bf55582bffffffff555cc3e005adbe808f343ddaaadfcd5ed75b89ff4d89389d99fcee7ac36ea5d73a0000006b483045022100fadb87b385362659f06255d48a964def5486c4cd85e66eba56c0c981d6cfb9650220049e18783c9b561176e4338f246a36d7aaf6e32c9cde44f736e45fcf22094fc1012103e1282c0a8cb7c2b8e3c5bac67e55b604040ae12e12d405e80fd211402e47f740ffffffff555cc3e005adbe808f343ddaaadfcd5ed75b89ff4d89389d99fcee7ac36ea5d73b0000006a47304402206634fe815e771c6c26484127f89e000c4fb2273a1fc96dd767543254ec428e56022071abbb0d46cab26edf379d4a9b86bf4709bae5f09d1f7a199a09ed68ec3c7938012102256f3f3bf3d8a82d377c21188f5f835207ac301a43e03c3238386e7ef2ddcefaffffffff555cc3e005adbe808f343ddaaadfcd5ed75b89ff4d89389d99fcee7ac36ea5d7020000006a47304402201861340ecedae88cf2cc869257f438200dc883d7b2857b16ae60b423969fbaf70220540a89d0dd294f4f4062c2ceae3c77b2474c11e5905019d56dd6eb00bf9741df012103d3ad9fe9f31f8db22a25e927ccf082d4d9ebf1db5fa979d7af44d5800473abf2ffffffff555cc3e005adbe808f343ddaaadfcd5ed75b89ff4d89389d99fcee7ac36ea5d70d0000006a4730440220613bbbb3582608aeea72e27ec0b9972daad005409910a8ffe85151a6bf2a7e6c02202c0e2778fda2a3004201c0676a3ebc2c1303a9717ab43f8f15096a34d120fec7012102d6968b65b73f8ff3afde179fb7344a41b12f476995aaa68a56751380fb95ce01ffffffff555cc3e005adbe808f343ddaaadfcd5ed75b89ff4d89389d99fcee7ac36ea5d72f0000006a473044022020f771aaa9d19c15bbb191dd8d1de7065f4ca3260197c36fded68fb76ae798ff0220716dc216a537a0369504c73ac3528bc9ae442bf1f6cce244d6804104bb54a9d7012103eebbcd5e6514f362646393dbe3c61b09a60f9a91260b055de37494574823857cffffffff0400127a00000000001976a914a47700868942803450d2b9fb2ba6de790c39e98288ac605b0300000000001976a914d14b795df98154f90d452c9bd2fa2988e86aad8788acc69c2400000000001976a914af9cbf5694c00bc362aab3b0860fec9c47a13a7688acd3abb122000000001976a91467fd7541deec20cc853068071e05e57b17133f6e88ac00000000", "vin": [{"sequence": 4294967295, "scriptSig": {"hex": "473044022040f2ce6bcf102b1a5802a102dd76058d1d1b7886a59f8a5e51a26b2b6f99b31702207b2153033ad70eb92804f23c42347ef0b03622bbfc0155bb15ab6a4f2b601fdf012102cc910111df5d842c25f108c7b9eddff0302017af05d0c9f3dfe0e1ad5150c661", "asm": "3044022040f2ce6bcf102b1a5802a102dd76058d1d1b7886a59f8a5e51a26b2b6f99b31702207b2153033ad70eb92804f23c42347ef0b03622bbfc0155bb15ab6a4f2b601fdf[ALL] 02cc910111df5d842c25f108c7b9eddff0302017af05d0c9f3dfe0e1ad5150c661"}, "vout": 3, "txid": "b5460cbbd464d6ba6cbc4ed2148a24427851905031c25b6367ef40eb548e7cba"}, {"sequence": 4294967295, "scriptSig": {"hex": "483045022100ce733321f0406dae89e0b220c468adc21c3106638613fceaaa5c6c069a0f0bc8022059c7b5ecd9b4654ba8e4d04163cabe0100c77d50a5907982a70f911a69e653f801210271b8197c381344e9d79d1b25e21bf7eab9f36f953dea63439a6cef526b2fe323", "asm": "3045022100ce733321f0406dae89e0b220c468adc21c3106638613fceaaa5c6c069a0f0bc8022059c7b5ecd9b4654ba8e4d04163cabe0100c77d50a5907982a70f911a69e653f8[ALL] 0271b8197c381344e9d79d1b25e21bf7eab9f36f953dea63439a6cef526b2fe323"}, "vout": 1, "txid": "c7f56942e4fd7393b8124872264d6c152f5f4585c5d132b37d70e6d89ba9ea4b"}, {"sequence": 4294967295, "scriptSig": {"hex": "483045022100efeb38a1071567cbacb9a0ba20b7243118146ad883e1f157bafc6da781c7f87302201f895cfc68015f9bdd88c0c912354751766e514fa4e8e4a489cd21b13eeba6f70121025982cba7b3669461b87965b6f06b19cba28e0d6ed89e071ec8d2aed410ae817e", "asm": "3045022100efeb38a1071567cbacb9a0ba20b7243118146ad883e1f157bafc6da781c7f87302201f895cfc68015f9bdd88c0c912354751766e514fa4e8e4a489cd21b13eeba6f7[ALL] 025982cba7b3669461b87965b6f06b19cba28e0d6ed89e071ec8d2aed410ae817e"}, "vout": 14, "txid": "4e45d1fd36c37691515e6733ab1467e33bc2adf279c70c4d04e457eb773e784f"}, {"sequence": 4294967295, "scriptSig": {"hex": "483045022100940515dccd75ae4fc3d27898b439138df1ee62c102cfb18c94305b71180670880220283ec4be65d1ce3f690630b2de0f69a37a63ec1c932239cd62845d48b517ce5d012102f70de211ce2d68892394c7fb3341692995210f2ca91f7976e8c7310c78a11a56", "asm": "3045022100940515dccd75ae4fc3d27898b439138df1ee62c102cfb18c94305b71180670880220283ec4be65d1ce3f690630b2de0f69a37a63ec1c932239cd62845d48b517ce5d[ALL] 02f70de211ce2d68892394c7fb3341692995210f2ca91f7976e8c7310c78a11a56"}, "vout": 84, "txid": "4e45d1fd36c37691515e6733ab1467e33bc2adf279c70c4d04e457eb773e784f"}, {"sequence": 4294967295, "scriptSig": {"hex": "47304402201d6d4d82053a99fba147bec9eecc6b09880621266a3daebaddac456e8e760cae022034f3d9b60f5f4cca5ebb4121e87053ea477104cd5677b348ce30433e6a3b37e50121039d2b5b921f01cdf2d0680f5dde8783c770ad765f0278f9bddfc5227d46d56647", "asm": "304402201d6d4d82053a99fba147bec9eecc6b09880621266a3daebaddac456e8e760cae022034f3d9b60f5f4cca5ebb4121e87053ea477104cd5677b348ce30433e6a3b37e5[ALL] 039d2b5b921f01cdf2d0680f5dde8783c770ad765f0278f9bddfc5227d46d56647"}, "vout": 44, "txid": "4e45d1fd36c37691515e6733ab1467e33bc2adf279c70c4d04e457eb773e784f"}, {"sequence": 4294967295, "scriptSig": {"hex": "473044022015bd435df872db56ef87e2faa3e645a858a688014c4b878af178e8a5f70b67f402207580f463ab5300508f0881146a5176bd3e942dc19cce6b425b90e3f1e7caaf6f0121029dff0b356efb1e110bc0e2fcbcf2dfb0c2b9b4ec05bb7bceba5e4287ef6dde05", "asm": "3044022015bd435df872db56ef87e2faa3e645a858a688014c4b878af178e8a5f70b67f402207580f463ab5300508f0881146a5176bd3e942dc19cce6b425b90e3f1e7caaf6f[ALL] 029dff0b356efb1e110bc0e2fcbcf2dfb0c2b9b4ec05bb7bceba5e4287ef6dde05"}, "vout": 37, "txid": "4e45d1fd36c37691515e6733ab1467e33bc2adf279c70c4d04e457eb773e784f"}, {"sequence": 4294967295, "scriptSig": {"hex": "4830450221009d86d2990395ec3dfc1afe534efd4876304d175ea32446551a70fa90f9f0673a02206c87d9c05cba67d90d5eb59a6f1f3e19f41ebe822d08b7efcd4ea196a14ade6d0121025d09c07841380906a67753998aae467b96b7f3d8b585c3ff189ae35d051c4235", "asm": "30450221009d86d2990395ec3dfc1afe534efd4876304d175ea32446551a70fa90f9f0673a02206c87d9c05cba67d90d5eb59a6f1f3e19f41ebe822d08b7efcd4ea196a14ade6d[ALL] 025d09c07841380906a67753998aae467b96b7f3d8b585c3ff189ae35d051c4235"}, "vout": 13, "txid": "4e45d1fd36c37691515e6733ab1467e33bc2adf279c70c4d04e457eb773e784f"}, {"sequence": 4294967295, "scriptSig": {"hex": "47304402207df098a09749e2e2f18525c1e267e67195d16fdc36e167acfe295576302a8e9602201217083f673b0cadb679b0801fd9bd209b9a023f104ef8fc0a89b1c75ef08c1d01210229f1723d883ea1254c3fc33c1d1e1d2a07473e9d9be491beec2d9574996c3833", "asm": "304402207df098a09749e2e2f18525c1e267e67195d16fdc36e167acfe295576302a8e9602201217083f673b0cadb679b0801fd9bd209b9a023f104ef8fc0a89b1c75ef08c1d[ALL] 0229f1723d883ea1254c3fc33c1d1e1d2a07473e9d9be491beec2d9574996c3833"}, "vout": 33, "txid": "4e45d1fd36c37691515e6733ab1467e33bc2adf279c70c4d04e457eb773e784f"}, {"sequence": 4294967295, "scriptSig": {"hex": "4730440220046b5e15a7111b7ad422c4792488897504b53b373a992386ce4a1a8bfb6ca509022065f8aeb21490733813f4141e357ced32482f57a479b15593805d0d0e0a2838420121027d194d8577a3d9daccb4b77029ce60193cc7ceeebbdc4a82a37d12150bafad39", "asm": "30440220046b5e15a7111b7ad422c4792488897504b53b373a992386ce4a1a8bfb6ca509022065f8aeb21490733813f4141e357ced32482f57a479b15593805d0d0e0a283842[ALL] 027d194d8577a3d9daccb4b77029ce60193cc7ceeebbdc4a82a37d12150bafad39"}, "vout": 3, "txid": "4e45d1fd36c37691515e6733ab1467e33bc2adf279c70c4d04e457eb773e784f"}, {"sequence": 4294967295, "scriptSig": {"hex": "47304402201e0d0af1b0c071b739011e3aab62cca439b158aa6d1beb7adbd1c4775ce2f08c0220138c360cec4bd86e2824716269b67ade266f4a01c2f5427b3e9c100804b9977d0121032828365f020665b16dc6e9a28d0e27b792061dc7af516ea80af59e7134e18827", "asm": "304402201e0d0af1b0c071b739011e3aab62cca439b158aa6d1beb7adbd1c4775ce2f08c0220138c360cec4bd86e2824716269b67ade266f4a01c2f5427b3e9c100804b9977d[ALL] 032828365f020665b16dc6e9a28d0e27b792061dc7af516ea80af59e7134e18827"}, "vout": 50, "txid": "4e45d1fd36c37691515e6733ab1467e33bc2adf279c70c4d04e457eb773e784f"}, {"sequence": 4294967295, "scriptSig": {"hex": "473044022005075019891632ba3b22993237f7be7b2456c7bea961e6444d2076a3e4ee553e02204f14701bbb6cc2d64c9a8e5c225fcc730a7c6691c3eab909d7de9d5bc3a80a72012103443efd87f402de62eec5b82096e5e2429b9ea5afdd2b6d8d91b555bf79895928", "asm": "3044022005075019891632ba3b22993237f7be7b2456c7bea961e6444d2076a3e4ee553e02204f14701bbb6cc2d64c9a8e5c225fcc730a7c6691c3eab909d7de9d5bc3a80a72[ALL] 03443efd87f402de62eec5b82096e5e2429b9ea5afdd2b6d8d91b555bf79895928"}, "vout": 55, "txid": "4e45d1fd36c37691515e6733ab1467e33bc2adf279c70c4d04e457eb773e784f"}, {"sequence": 4294967295, "scriptSig": {"hex": "4830450221008869536734f7aa61a8a9599dcd685d181e179108a4bb477b5e44a85673d9d6a502205f7959bef8c01e1870f964663d624a84eee615858667c3414fb5c10646b1d769012102c6f9c21c413e78ffaeff9d560d58a5323edd9d47208099c8c44d5d36bfebf82a", "asm": "30450221008869536734f7aa61a8a9599dcd685d181e179108a4bb477b5e44a85673d9d6a502205f7959bef8c01e1870f964663d624a84eee615858667c3414fb5c10646b1d769[ALL] 02c6f9c21c413e78ffaeff9d560d58a5323edd9d47208099c8c44d5d36bfebf82a"}, "vout": 68, "txid": "4e45d1fd36c37691515e6733ab1467e33bc2adf279c70c4d04e457eb773e784f"}, {"sequence": 4294967295, "scriptSig": {"hex": "483045022100895ea5bbb73a81875297302c9a911d7ec4d447031446ed707c124b54e8f655fd0220317d8e93f272e6d10bc2aec380fdefce39eb252af8e62446a6a55a026c1a5b0a012102d0d2ea761f36dae2fdca49f3c786ae988a6754db517f0ed28c632e0bb083c5f2", "asm": "3045022100895ea5bbb73a81875297302c9a911d7ec4d447031446ed707c124b54e8f655fd0220317d8e93f272e6d10bc2aec380fdefce39eb252af8e62446a6a55a026c1a5b0a[ALL] 02d0d2ea761f36dae2fdca49f3c786ae988a6754db517f0ed28c632e0bb083c5f2"}, "vout": 90, "txid": "d7a56ec37aeefc999d38894dff895bd75ecddfaada3d348f80bead05e0c35c55"}, {"sequence": 4294967295, "scriptSig": {"hex": "473044022074066c2ce4d0b617b853b85ecf5fa374b0a4bff27b0c6d8ca2d818f75307a1bd02207b7948e7c4bae6c2d360330072ff36983f0ead4a0a1d06453a4656d8dcaf5fd6012103e8fc49d5e274d0e69b26a25c83fa8fca5a22b8fdb649e0523b094ad3f6586556", "asm": "3044022074066c2ce4d0b617b853b85ecf5fa374b0a4bff27b0c6d8ca2d818f75307a1bd02207b7948e7c4bae6c2d360330072ff36983f0ead4a0a1d06453a4656d8dcaf5fd6[ALL] 03e8fc49d5e274d0e69b26a25c83fa8fca5a22b8fdb649e0523b094ad3f6586556"}, "vout": 6, "txid": "d7a56ec37aeefc999d38894dff895bd75ecddfaada3d348f80bead05e0c35c55"}, {"sequence": 4294967295, "scriptSig": {"hex": "473044022073d683c83a9d5b2eaab7aa08d428cdc41357cc307b224d780e4ef7f882bb8e2d02203e88a09a592324037a2f2cf0780b9846fad1e06e2ed88b799094dc52a544887e0121037d2c59f1b27e38b2d479041bdbfa1f4beff1069f34439b585ff6f303bf55582b", "asm": "3044022073d683c83a9d5b2eaab7aa08d428cdc41357cc307b224d780e4ef7f882bb8e2d02203e88a09a592324037a2f2cf0780b9846fad1e06e2ed88b799094dc52a544887e[ALL] 037d2c59f1b27e38b2d479041bdbfa1f4beff1069f34439b585ff6f303bf55582b"}, "vout": 51, "txid": "d7a56ec37aeefc999d38894dff895bd75ecddfaada3d348f80bead05e0c35c55"}, {"sequence": 4294967295, "scriptSig": {"hex": "483045022100fadb87b385362659f06255d48a964def5486c4cd85e66eba56c0c981d6cfb9650220049e18783c9b561176e4338f246a36d7aaf6e32c9cde44f736e45fcf22094fc1012103e1282c0a8cb7c2b8e3c5bac67e55b604040ae12e12d405e80fd211402e47f740", "asm": "3045022100fadb87b385362659f06255d48a964def5486c4cd85e66eba56c0c981d6cfb9650220049e18783c9b561176e4338f246a36d7aaf6e32c9cde44f736e45fcf22094fc1[ALL] 03e1282c0a8cb7c2b8e3c5bac67e55b604040ae12e12d405e80fd211402e47f740"}, "vout": 58, "txid": "d7a56ec37aeefc999d38894dff895bd75ecddfaada3d348f80bead05e0c35c55"}, {"sequence": 4294967295, "scriptSig": {"hex": "47304402206634fe815e771c6c26484127f89e000c4fb2273a1fc96dd767543254ec428e56022071abbb0d46cab26edf379d4a9b86bf4709bae5f09d1f7a199a09ed68ec3c7938012102256f3f3bf3d8a82d377c21188f5f835207ac301a43e03c3238386e7ef2ddcefa", "asm": "304402206634fe815e771c6c26484127f89e000c4fb2273a1fc96dd767543254ec428e56022071abbb0d46cab26edf379d4a9b86bf4709bae5f09d1f7a199a09ed68ec3c7938[ALL] 02256f3f3bf3d8a82d377c21188f5f835207ac301a43e03c3238386e7ef2ddcefa"}, "vout": 59, "txid": "d7a56ec37aeefc999d38894dff895bd75ecddfaada3d348f80bead05e0c35c55"}, {"sequence": 4294967295, "scriptSig": {"hex": "47304402201861340ecedae88cf2cc869257f438200dc883d7b2857b16ae60b423969fbaf70220540a89d0dd294f4f4062c2ceae3c77b2474c11e5905019d56dd6eb00bf9741df012103d3ad9fe9f31f8db22a25e927ccf082d4d9ebf1db5fa979d7af44d5800473abf2", "asm": "304402201861340ecedae88cf2cc869257f438200dc883d7b2857b16ae60b423969fbaf70220540a89d0dd294f4f4062c2ceae3c77b2474c11e5905019d56dd6eb00bf9741df[ALL] 03d3ad9fe9f31f8db22a25e927ccf082d4d9ebf1db5fa979d7af44d5800473abf2"}, "vout": 2, "txid": "d7a56ec37aeefc999d38894dff895bd75ecddfaada3d348f80bead05e0c35c55"}, {"sequence": 4294967295, "scriptSig": {"hex": "4730440220613bbbb3582608aeea72e27ec0b9972daad005409910a8ffe85151a6bf2a7e6c02202c0e2778fda2a3004201c0676a3ebc2c1303a9717ab43f8f15096a34d120fec7012102d6968b65b73f8ff3afde179fb7344a41b12f476995aaa68a56751380fb95ce01", "asm": "30440220613bbbb3582608aeea72e27ec0b9972daad005409910a8ffe85151a6bf2a7e6c02202c0e2778fda2a3004201c0676a3ebc2c1303a9717ab43f8f15096a34d120fec7[ALL] 02d6968b65b73f8ff3afde179fb7344a41b12f476995aaa68a56751380fb95ce01"}, "vout": 13, "txid": "d7a56ec37aeefc999d38894dff895bd75ecddfaada3d348f80bead05e0c35c55"}, {"sequence": 4294967295, "scriptSig": {"hex": "473044022020f771aaa9d19c15bbb191dd8d1de7065f4ca3260197c36fded68fb76ae798ff0220716dc216a537a0369504c73ac3528bc9ae442bf1f6cce244d6804104bb54a9d7012103eebbcd5e6514f362646393dbe3c61b09a60f9a91260b055de37494574823857c", "asm": "3044022020f771aaa9d19c15bbb191dd8d1de7065f4ca3260197c36fded68fb76ae798ff0220716dc216a537a0369504c73ac3528bc9ae442bf1f6cce244d6804104bb54a9d7[ALL] 03eebbcd5e6514f362646393dbe3c61b09a60f9a91260b055de37494574823857c"}, "vout": 47, "txid": "d7a56ec37aeefc999d38894dff895bd75ecddfaada3d348f80bead05e0c35c55"}], "txid": "f22963a7b057064c7d9597fc2fdfc5d6275bf40e6c136e55f89773acb03e41f4", "blocktime": 1537876114, "version": 1, "confirmations": 11459, "time": 1537876114, "locktime": 0, "vsize": 3093, "size": 3093}