{"hash": "f2388fd4ec465f7940fb5edcf590278a29f3f487c93552879c0c92e4e581de00", "blockhash": "0000000000000000000e13cef7c366c0283d82e591d1acd082e914b08063cdf1", "vout": [{"scriptPubKey": {"reqSigs": 1, "hex": "a9149801d0ee754e87538d1337acfb34a48378bec57e87", "addresses": ["3FYkotYXWbodYpVAJTpccp5vAMVBRLSz29"], "asm": "OP_HASH160 9801d0ee754e87538d1337acfb34a48378bec57e OP_EQUAL", "type": "scripthash"}, "value": 0.0148618, "n": 0}], "hex": "0100000002dde5afe9de875ba9f80eacb38d79974d53d32ce06b629af0fa39c470faef3134020000008a47304402204092e829badd4393d2f7c1c2a707ccb4506898b3aaf85ac0b8ef258486745351022052fc0c7fdfca2df9ad04a470f38bbe171f0aa1943d8ceaa5fcf0d50b13a2a6e8014104e921fc2cbaf28d660654e118d5148e1d09d53a93aa06541697c46d0c6b75a4f4c9334526c2f00f0754dea3a0766d03b65f644df02823b9a32e779d691b2419c6ffffffff4799de761b4bc8d312eb43ea8439dbcdd13a50294bf5e3a18973f4592b723951010000008a473044022055aac4dbd822310961f812c2beac9aeaa6eab85ab8d111ec091299994e42a44a022039a3dcec3646159efed742d95878c04269f03db02da1dea6ffcf559f0587e31b014104e921fc2cbaf28d660654e118d5148e1d09d53a93aa06541697c46d0c6b75a4f4c9334526c2f00f0754dea3a0766d03b65f644df02823b9a32e779d691b2419c6ffffffff0164ad16000000000017a9149801d0ee754e87538d1337acfb34a48378bec57e8700000000", "vin": [{"sequence": 4294967295, "scriptSig": {"hex": "47304402204092e829badd4393d2f7c1c2a707ccb4506898b3aaf85ac0b8ef258486745351022052fc0c7fdfca2df9ad04a470f38bbe171f0aa1943d8ceaa5fcf0d50b13a2a6e8014104e921fc2cbaf28d660654e118d5148e1d09d53a93aa06541697c46d0c6b75a4f4c9334526c2f00f0754dea3a0766d03b65f644df02823b9a32e779d691b2419c6", "asm": "304402204092e829badd4393d2f7c1c2a707ccb4506898b3aaf85ac0b8ef258486745351022052fc0c7fdfca2df9ad04a470f38bbe171f0aa1943d8ceaa5fcf0d50b13a2a6e8[ALL] 04e921fc2cbaf28d660654e118d5148e1d09d53a93aa06541697c46d0c6b75a4f4c9334526c2f00f0754dea3a0766d03b65f644df02823b9a32e779d691b2419c6"}, "vout": 2, "txid": "3431effa70c439faf09a626be02cd3534d97798db3ac0ef8a95b87dee9afe5dd"}, {"sequence": 4294967295, "scriptSig": {"hex": "473044022055aac4dbd822310961f812c2beac9aeaa6eab85ab8d111ec091299994e42a44a022039a3dcec3646159efed742d95878c04269f03db02da1dea6ffcf559f0587e31b014104e921fc2cbaf28d660654e118d5148e1d09d53a93aa06541697c46d0c6b75a4f4c9334526c2f00f0754dea3a0766d03b65f644df02823b9a32e779d691b2419c6", "asm": "3044022055aac4dbd822310961f812c2beac9aeaa6eab85ab8d111ec091299994e42a44a022039a3dcec3646159efed742d95878c04269f03db02da1dea6ffcf559f0587e31b[ALL] 04e921fc2cbaf28d660654e118d5148e1d09d53a93aa06541697c46d0c6b75a4f4c9334526c2f00f0754dea3a0766d03b65f644df02823b9a32e779d691b2419c6"}, "vout": 1, "txid": "5139722b59f47389a1e3f54b29503ad1cddb3984ea43eb12d3c84b1b76de9947"}], "txid": "f2388fd4ec465f7940fb5edcf590278a29f3f487c93552879c0c92e4e581de00", "blocktime": 1537871767, "version": 1, "confirmations": 11491, "time": 1537871767, "locktime": 0, "vsize": 400, "size": 400}