{"hash": "f239747104fbeaa5d0ebcbb9e0a461f8c6176c86abebacda65cafc52c22ccf6f", "blockhash": "00000000000000000017f5eb5941039fbcee6240d03bc1f2f8e35350df66a1d8", "vout": [{"scriptPubKey": {"type": "nulldata", "hex": "6a146f6d6e69000000000000001f000000174876e800", "asm": "OP_RETURN 6f6d6e69000000000000001f000000174876e800"}, "value": 0.0, "n": 0}, {"scriptPubKey": {"reqSigs": 1, "hex": "76a914a25dec4d0011064ef106a983c39c7a540699f22088ac", "addresses": ["1FoWyxwPXuj4C6abqwhjDWdz6D4PZgYRjA"], "asm": "OP_DUP OP_HASH160 a25dec4d0011064ef106a983c39c7a540699f220 OP_EQUALVERIFY OP_CHECKSIG", "type": "pubkeyhash"}, "value": 5.46e-06, "n": 1}, {"scriptPubKey": {"reqSigs": 1, "hex": "76a9142622e8a2bd97dbfbacffb39b6cbb75f55f83117988ac", "addresses": ["14UeVnsTinW1Vp4cmNufCqc5o3qFe71etp"], "asm": "OP_DUP OP_HASH160 2622e8a2bd97dbfbacffb39b6cbb75f55f831179 OP_EQUALVERIFY OP_CHECKSIG", "type": "pubkeyhash"}, "value": 0.00499066, "n": 2}], "hex": "01000000013a4c1d798db6bc890731bb89fb16f82f1d6cbe6a01b7d47d30c65bc3d1988db3070000006a4730440220781906f7798323b388785d4b97aec6096fdfaeb6097add7ebb692fdf3461b85202206fcc771d5961e6f176a8f614e8bad92cda4456463d02a896bdf73b47fd9be4da012103b0f28f5e67e217715d8a0eb0852827bab2ad345a694f70c2acd48b37310dd651feffffff030000000000000000166a146f6d6e69000000000000001f000000174876e80022020000000000001976a914a25dec4d0011064ef106a983c39c7a540699f22088ac7a9d0700000000001976a9142622e8a2bd97dbfbacffb39b6cbb75f55f83117988ac15490800", "vin": [{"sequence": 4294967294, "scriptSig": {"hex": "4730440220781906f7798323b388785d4b97aec6096fdfaeb6097add7ebb692fdf3461b85202206fcc771d5961e6f176a8f614e8bad92cda4456463d02a896bdf73b47fd9be4da012103b0f28f5e67e217715d8a0eb0852827bab2ad345a694f70c2acd48b37310dd651", "asm": "30440220781906f7798323b388785d4b97aec6096fdfaeb6097add7ebb692fdf3461b85202206fcc771d5961e6f176a8f614e8bad92cda4456463d02a896bdf73b47fd9be4da[ALL] 03b0f28f5e67e217715d8a0eb0852827bab2ad345a694f70c2acd48b37310dd651"}, "vout": 7, "txid": "b38d98d1c35bc6307dd4b7016abe6c1d2ff816fb89bb310789bcb68d791d4c3a"}], "txid": "f239747104fbeaa5d0ebcbb9e0a461f8c6176c86abebacda65cafc52c22ccf6f", "blocktime": 1537874412, "version": 1, "confirmations": 11468, "time": 1537874412, "locktime": 542997, "vsize": 256, "size": 256}