{"hash": "cdce3bd4430e3f2d1d3b3482ba76ad5c4bde321ef8139dcbde06a1f478a96a0a", "blockhash": "00000000000000000017f5eb5941039fbcee6240d03bc1f2f8e35350df66a1d8", "vout": [{"scriptPubKey": {"reqSigs": 1, "hex": "76a91495606f96db0286b706a5f8c7b6c6a6b6a722b31b88ac", "addresses": ["1EcqD4qnptTkHQp7EWmA2jWifBXovryFim"], "asm": "OP_DUP OP_HASH160 95606f96db0286b706a5f8c7b6c6a6b6a722b31b OP_EQUALVERIFY OP_CHECKSIG", "type": "pubkeyhash"}, "value": 0.0899195, "n": 0}, {"scriptPubKey": {"reqSigs": 1, "hex": "0014a666a741e46490fd96f0221df95f121495257449", "addresses": ["bc1q5en2ws0yvjg0m9hsygwljhcjzj2j2azfeu9xd3"], "asm": "0 a666a741e46490fd96f0221df95f121495257449", "type": "witness_v0_keyhash"}, "value": 0.35366702, "n": 1}], "hex": "0100000000010157c4b9bd73434ff6dc75c5e8d62c98bf42f7828ed923f5efb6faf43460edda170000000000ffffffff02ce348900000000001976a91495606f96db0286b706a5f8c7b6c6a6b6a722b31b88ac2ea71b0200000000160014a666a741e46490fd96f0221df95f12149525744902473044022061bdf615fffbf3783c24254d3949e5579460bf6a133c3cd057aee8c54338f9ba0220730fe3c73a449620540a5570954e23ead52b120807b229c92ca1f0f256ac8bef0121027749e3168896bc3bb59cd3dedd3e1924b7e8e43ec0b54f5790cc961b46feddea00000000", "vin": [{"txinwitness": ["3044022061bdf615fffbf3783c24254d3949e5579460bf6a133c3cd057aee8c54338f9ba0220730fe3c73a449620540a5570954e23ead52b120807b229c92ca1f0f256ac8bef01", "027749e3168896bc3bb59cd3dedd3e1924b7e8e43ec0b54f5790cc961b46feddea"], "sequence": 4294967295, "scriptSig": {"hex": "", "asm": ""}, "vout": 0, "txid": "17daed6034f4fab6eff523d98e82f742bf982cd6e8c575dcf64f4373bdb9c457"}], "txid": "f23a5baa95b0cc190e9c769e16d58c9c429852aae047c7197c0768aee817389f", "blocktime": 1537874412, "version": 1, "confirmations": 11467, "time": 1537874412, "locktime": 0, "vsize": 144, "size": 225}