{"hash": "f23ae4829706ce517c21fa57d2fd06aee1581f5d27346a0f5b50950ba03c6d18", "blockhash": "0000000000000000001f76057863aec43deb6fa401d9628bb513d65a8098bfab", "vout": [{"scriptPubKey": {"reqSigs": 1, "hex": "76a9141b2dce8cbc1a0d081b3a70b0f185c9cc1dbdb96988ac", "addresses": ["13Ui7trnZZExvNJYq3aroLGynY5fQcpnTA"], "asm": "OP_DUP OP_HASH160 1b2dce8cbc1a0d081b3a70b0f185c9cc1dbdb969 OP_EQUALVERIFY OP_CHECKSIG", "type": "pubkeyhash"}, "value": 0.01071143, "n": 0}, {"scriptPubKey": {"reqSigs": 1, "hex": "76a9147b7a81f3004e0f97b294705a08b0ce3c2024a03188ac", "addresses": ["1CFtsaFuqYCYN7tQvDCYJB3Mi7jcdJwaMc"], "asm": "OP_DUP OP_HASH160 7b7a81f3004e0f97b294705a08b0ce3c2024a031 OP_EQUALVERIFY OP_CHECKSIG", "type": "pubkeyhash"}, "value": 0.00922493, "n": 1}], "hex": "0200000002ea55ac125c739eea6aa7dec63f0e6d3b9129b4208aff7e206d7e7ac51f21fd95000000006b483045022100eec90a0a64941631fe7cffc985f2896e65a91bb22332da132426d19023cb7201022025e7b0059b79e827ff2cf7ed74d37fe230b518825a1b13efbfb0b104830ec857012103209ebb99b631d956451b7d3705daa14e191ffe454e6c2c5ab4b3dbfbb5b5ef9cfeffffff93cf66d3b90651c8ccf13770ddcbf292e39d26a3bea3520c309fc09195346b8a010000006a473044022054c10660dd48d1b856c7ecb39b588a321a928e4ae6aa16c73cd631ee3d8454ee0220539eb7db7e5b7fc3a813a303c93bcc7c87d58c1e832b8836c903527fe67f226f0121034922e8cb56609453604b98e372d687d46fac753c2fd55c8d8583ee240d122ae9feffffff0227581000000000001976a9141b2dce8cbc1a0d081b3a70b0f185c9cc1dbdb96988ac7d130e00000000001976a9147b7a81f3004e0f97b294705a08b0ce3c2024a03188acb3480800", "vin": [{"sequence": 4294967294, "scriptSig": {"hex": "483045022100eec90a0a64941631fe7cffc985f2896e65a91bb22332da132426d19023cb7201022025e7b0059b79e827ff2cf7ed74d37fe230b518825a1b13efbfb0b104830ec857012103209ebb99b631d956451b7d3705daa14e191ffe454e6c2c5ab4b3dbfbb5b5ef9c", "asm": "3045022100eec90a0a64941631fe7cffc985f2896e65a91bb22332da132426d19023cb7201022025e7b0059b79e827ff2cf7ed74d37fe230b518825a1b13efbfb0b104830ec857[ALL] 03209ebb99b631d956451b7d3705daa14e191ffe454e6c2c5ab4b3dbfbb5b5ef9c"}, "vout": 0, "txid": "95fd211fc57a7e6d207eff8a20b429913b6d0e3fc6dea76aea9e735c12ac55ea"}, {"sequence": 4294967294, "scriptSig": {"hex": "473044022054c10660dd48d1b856c7ecb39b588a321a928e4ae6aa16c73cd631ee3d8454ee0220539eb7db7e5b7fc3a813a303c93bcc7c87d58c1e832b8836c903527fe67f226f0121034922e8cb56609453604b98e372d687d46fac753c2fd55c8d8583ee240d122ae9", "asm": "3044022054c10660dd48d1b856c7ecb39b588a321a928e4ae6aa16c73cd631ee3d8454ee0220539eb7db7e5b7fc3a813a303c93bcc7c87d58c1e832b8836c903527fe67f226f[ALL] 034922e8cb56609453604b98e372d687d46fac753c2fd55c8d8583ee240d122ae9"}, "vout": 1, "txid": "8a6b349591c09f300c52a3bea3269de392f2cbdd7037f1ccc85106b9d366cf93"}], "txid": "f23ae4829706ce517c21fa57d2fd06aee1581f5d27346a0f5b50950ba03c6d18", "blocktime": 1537873891, "version": 2, "confirmations": 11478, "time": 1537873891, "locktime": 542899, "vsize": 373, "size": 373}