{"hash": "f23cf66983ee38af079fe865bf35d67912336d39534dbc7d414ca8b831db5728", "blockhash": "0000000000000000001f76057863aec43deb6fa401d9628bb513d65a8098bfab", "vout": [{"scriptPubKey": {"reqSigs": 1, "hex": "76a914882cc4f54c2ea08d18892bb11ab27fc43e466e7188ac", "addresses": ["1DR2XiiEjs91cTtp1LxyqEKm5ihNABmRZ7"], "asm": "OP_DUP OP_HASH160 882cc4f54c2ea08d18892bb11ab27fc43e466e71 OP_EQUALVERIFY OP_CHECKSIG", "type": "pubkeyhash"}, "value": 0.11140818, "n": 0}, {"scriptPubKey": {"type": "nulldata", "hex": "6a146f6d6e69000000000000001f0000000038074300", "asm": "OP_RETURN 6f6d6e69000000000000001f0000000038074300"}, "value": 0.0, "n": 1}, {"scriptPubKey": {"reqSigs": 1, "hex": "76a9143c4f86bb2d18c19f0afde122b645b9867df787d688ac", "addresses": ["16Vtp6RnFtc89PHhoiWBVeEf7VyNHn3gQA"], "asm": "OP_DUP OP_HASH160 3c4f86bb2d18c19f0afde122b645b9867df787d6 OP_EQUALVERIFY OP_CHECKSIG", "type": "pubkeyhash"}, "value": 5.46e-06, "n": 2}], "hex": "010000000179062b3675c9d4460c9ad82b2d6c0a68645ef2a23dc3acb22f0e240511a60178010000006a4730440220590dcae4d8317d40f5bb634d9dbe2be69f075ebd070d88da294f16ab1f45315402207bdc970b3820ed03d94ba4d57b68e50cd6fa383ee593200c562421bb574817d1012102d7800c61a710c2c233322b2fbdcbbd492c162678a6cf6e859c3b7322e14189eefeffffff03d2fea900000000001976a914882cc4f54c2ea08d18892bb11ab27fc43e466e7188ac0000000000000000166a146f6d6e69000000000000001f000000003807430022020000000000001976a9143c4f86bb2d18c19f0afde122b645b9867df787d688ac14490800", "vin": [{"sequence": 4294967294, "scriptSig": {"hex": "4730440220590dcae4d8317d40f5bb634d9dbe2be69f075ebd070d88da294f16ab1f45315402207bdc970b3820ed03d94ba4d57b68e50cd6fa383ee593200c562421bb574817d1012102d7800c61a710c2c233322b2fbdcbbd492c162678a6cf6e859c3b7322e14189ee", "asm": "30440220590dcae4d8317d40f5bb634d9dbe2be69f075ebd070d88da294f16ab1f45315402207bdc970b3820ed03d94ba4d57b68e50cd6fa383ee593200c562421bb574817d1[ALL] 02d7800c61a710c2c233322b2fbdcbbd492c162678a6cf6e859c3b7322e14189ee"}, "vout": 1, "txid": "7801a61105240e2fb2acc33da2f25e64680a6c2d2bd89a0c46d4c975362b0679"}], "txid": "f23cf66983ee38af079fe865bf35d67912336d39534dbc7d414ca8b831db5728", "blocktime": 1537873891, "version": 1, "confirmations": 11474, "time": 1537873891, "locktime": 542996, "vsize": 256, "size": 256}