{"hash": "f23d01b375ccdffe5db1fc5868114c3575ed0994318606123b67956ea4d91aea", "blockhash": "000000000000000000022b45ed06c6f4ccd3cf7fb5ba4856ebd2e58215665228", "vout": [{"scriptPubKey": {"reqSigs": 1, "hex": "76a9144b4fd8e91fe777f778bd69c0ad9649657aa1964988ac", "addresses": ["17sDLGybxYkqyudfSHMSxxmaMwGzgNFas2"], "asm": "OP_DUP OP_HASH160 4b4fd8e91fe777f778bd69c0ad9649657aa19649 OP_EQUALVERIFY OP_CHECKSIG", "type": "pubkeyhash"}, "value": 1.652e-05, "n": 0}, {"scriptPubKey": {"reqSigs": 1, "hex": "a9149ed40620fa13eae7ba66d09966730e37f236d62c87", "addresses": ["3GApgXxiybow8CPvvq1cwN3ECZCLQ85unK"], "asm": "OP_HASH160 9ed40620fa13eae7ba66d09966730e37f236d62c OP_EQUAL", "type": "scripthash"}, "value": 0.00311693, "n": 1}], "hex": "0100000002efc1570df9a581aaf283d6a6ab8a4cced8cca2344dfd63d81268405f6d45192f000000006a47304402200fdd1fc9a95a97158aeb02b927ab64001a0823103b0579b0c1567249f5b6d8d2022037bafd00b76b6e856192f16f3bfcc4d6154e9f918a0b508506d8d496f4a26bfe0121039b904ecc5f000a394bc22873d531b5243a924a310734728b32f9d3981c56b5bbffffffff3799d257c3d08e40a15882298f665b22706457f2e88b571e9ced6390fca125c3000000006a473044022017b7ae1823890355dc138911822d2095abb334a3187f52138abade331fabd52502202f3139bea9c6dd551ccb4f5d8a7aa8fc9f1ebc2377010087b6f86b28fb841ee3012102f83a04224faf58329471ad7c39a473f14e0da206571f3587fa7d427a94fbaf98ffffffff0274060000000000001976a9144b4fd8e91fe777f778bd69c0ad9649657aa1964988ac8dc104000000000017a9149ed40620fa13eae7ba66d09966730e37f236d62c8700000000", "vin": [{"sequence": 4294967295, "scriptSig": {"hex": "47304402200fdd1fc9a95a97158aeb02b927ab64001a0823103b0579b0c1567249f5b6d8d2022037bafd00b76b6e856192f16f3bfcc4d6154e9f918a0b508506d8d496f4a26bfe0121039b904ecc5f000a394bc22873d531b5243a924a310734728b32f9d3981c56b5bb", "asm": "304402200fdd1fc9a95a97158aeb02b927ab64001a0823103b0579b0c1567249f5b6d8d2022037bafd00b76b6e856192f16f3bfcc4d6154e9f918a0b508506d8d496f4a26bfe[ALL] 039b904ecc5f000a394bc22873d531b5243a924a310734728b32f9d3981c56b5bb"}, "vout": 0, "txid": "2f19456d5f406812d863fd4d34a2ccd8ce4c8aaba6d683f2aa81a5f90d57c1ef"}, {"sequence": 4294967295, "scriptSig": {"hex": "473044022017b7ae1823890355dc138911822d2095abb334a3187f52138abade331fabd52502202f3139bea9c6dd551ccb4f5d8a7aa8fc9f1ebc2377010087b6f86b28fb841ee3012102f83a04224faf58329471ad7c39a473f14e0da206571f3587fa7d427a94fbaf98", "asm": "3044022017b7ae1823890355dc138911822d2095abb334a3187f52138abade331fabd52502202f3139bea9c6dd551ccb4f5d8a7aa8fc9f1ebc2377010087b6f86b28fb841ee3[ALL] 02f83a04224faf58329471ad7c39a473f14e0da206571f3587fa7d427a94fbaf98"}, "vout": 0, "txid": "c325a1fc9063ed9c1e578be8f2576470225b668f298258a1408ed0c357d29937"}], "txid": "f23d01b375ccdffe5db1fc5868114c3575ed0994318606123b67956ea4d91aea", "blocktime": 1537869901, "version": 1, "confirmations": 11523, "time": 1537869901, "locktime": 0, "vsize": 370, "size": 370}