{"hash": "f23e2745fd9086fc4170a89af379dd0bb4527784e66750db4a9a8b1bb0553e13", "blockhash": "0000000000000000000dcc0f55137456b1a82d3642486a52398922ac4d620174", "vout": [{"scriptPubKey": {"reqSigs": 1, "hex": "76a914592088de70d2427261b4e28a48cb55f5e34123b288ac", "addresses": ["198G7cwPGdSvkAh55DUUFi27wb3o6Q76ES"], "asm": "OP_DUP OP_HASH160 592088de70d2427261b4e28a48cb55f5e34123b2 OP_EQUALVERIFY OP_CHECKSIG", "type": "pubkeyhash"}, "value": 0.09567718, "n": 0}, {"scriptPubKey": {"reqSigs": 1, "hex": "a91469f374c585c346ecaedb4483ce922f6c0fff22d787", "addresses": ["3BMEXKE2SMh37eTU9B3K7Q4ipAjy4JzquL"], "asm": "OP_HASH160 69f374c585c346ecaedb4483ce922f6c0fff22d7 OP_EQUAL", "type": "scripthash"}, "value": 6.0, "n": 1}], "hex": "010000000cedaf3c8c5686cabe415cf3f98bd43b9b2c6d2c77a2fb0eb93546d1ea9bfa611f0a0000006a473044022053b02bd8dfcbe29d7e5beb452161729309b42cc9fbdcf605e55c5d2f0bf395050220790d5b07d6e7082d3963cbab649626fc3b0334d48ede8ccdcb0bf90a891cf19c012103653987c56eefa518f0e242433878463ce340d1c6c51dc1f0c9fda15043eba3b0fdffffff9e643d803a18e5dbcdff352b608460ddd36a945c04f6ea239f5ea8abb29a5248000000006b483045022100e3ba8a5dd03841d3ba7133efb5a1ec215eb85426f3f863c7936e24f3b7cc50d002204ab1e0a1a4bb908919849dbd2c28f6680eea96ab0077efbcb1e84122442bdb300121037ff2922737dfd34c8cd5ef60cd18e5dced34412af86b3c692665a78b1f4682fcfdffffff6f8f4734ffa99692a4670f2b46b38daae4b9349a4af1e6af5ea4d0996852197d000000006a473044022060fddf061456ecb4e20cbfa5c7384b1349aa655b0d8a3b19607b1e0e70f36960022030ef31b0964de94a3d3cd2b243e83774af10eacdbddd3a752451f4705f495a6b012103a282ebc4e2afeb3a1c69f74ed0f0928773fccc158add03a5138d5a045c119f7cfdfffffffa43922ba4d91ba6c53c9919253067fe76cd2c678bc7146b262bc9e5250df995020000006b483045022100b5aa30e18981ed1fc3a564c03b739ba5a8ab7b688f146e5c1bf2b8326b0fb13d02203e4f0de5a4f8842dfd73002e9dc44e0a8c68365a8401062f83ffba79483f73cb0121025aafb23713fc16a7acd8d104c076e5b1dcf5a69b5371d0c925198553f656c470fdffffff19272cf56c9ea8a33850274e64aeb5447e4f64c6632cf9daab7b0c9358d61aa2000000006b483045022100dc215d9214eeee714b566fd0e4dd8392701c992d59efd4be3bd2916124d617a002202c923aeac9a292448fd0ac35931902146daaf25c632063fc748974de0904cec20121031e062733b917976171a00e7771f5681427936cc40bdd8ef8ea685d1447a8c05ffdffffffc4447afa38670c855bb553b4bef1f1043a603af17ce21ee27dd214c3c84840a6010000006a47304402200f569c61b05592454adfed3d613cffa19aa4c0d39e3a485364008031b042475602201170ccb5f2989436841d15ba3c675b4b1f981bd0c8152be7941aacb9934a915b012103a6f8905c0dbd6feb529a64caf0041bf70a7b86feecad732259721969ebbed096fdffffffec1aaec5883c166c5ae1927038f6e806fe3f73d04558ca39e00a256f646e4ead0c0000006a473044022010273dced03f4d2b19673c28fa76ae8bbb9703ff76f38292c0d781574084bf0c02206d8b769698fb0ddc84d0637e5ed2039610c4d046e80cbe0ce4a65ec20ec4142a012103236b5063dc3fe71222d0669c50a2247259f020e7c128a89d15a6bf1ad9aa3196fdffffff158fe87b954faa12511bc3054e825c89d672bc383df8a2b6e544a910db22c9ae120000006a47304402203aab6ac244c941c5d5677d9fa2e76e8fbf58742266af20085ea0ea2aff1d962c022045d7efb815e218b92b1cd0212973c286fc6cacdca2d1f3a857f9a0af01278e5a012102455a5ef221cf8be4a8445933426892695b06919ceb6219f6d524801810d56524fdffffff913982cd48a951599ba490489d97d032f926d5ba26b36ebb52ce07847b233bb40a0000006b483045022100bfc6e256e1f98ccfa252ba6c365f8d8bca8eff703f6e91d163bd004b62068fad02207a8d10d265fbbfda59ba2a8fedc231adf46920a890f2036dea93a7fb502ca4400121030a4991b0d63925dff54abf77bfa926c565ff7dabc278141860d052447d81d461fdffffff2a2b2b7e0ca580dc94c4c7ac254b673eb8148d8116a89fa4bcbf9ee98a2716d2000000006a473044022027e8d4037ce819ae67099fbb123e177201ed9f64fd34ba154f7f0675cb72060802202a42ef70bc839e2eefcacef06e84d7cab013e40a78d51434e2e4239c0d62af7c0121038b23ab0274a0099b06579a4b6690f517ae3d405322dcf9d8f8cfb1f5f0c819a6fdffffff82dda3f7728679d543d45be1cab5da7b378f54164a9f8815a92df3d0abde34d40000000069463043022015d3d37e3f61789612448bc24a553a8285c2520c079c30f1e4bdfa7a0062658c021f0a628aff004521a385e8a865572c80f30d53891ffc0be0e3694e92d36c79d501210323238e7e793fa6b05db29a7b8d927f6bf6cf889929f6ffee77b2a27fc057759ffdffffff1af794a54eaf539dad49fac99e1c6aa77cc2c35b1eeece5a376cd3d9170a68e0350000006a473044022025458f022d43bfb2b18e0ad20c0076b92406ded9017d5c13a22ab5be399e0a0a022002753c332cb5efdfd9f9eb4b3e0462c70b5882395afd585aa416dc024a2ad97e01210307b18be8b16af69122e7951f324d857696558a2b4f71cd2c0d06b764d3de2e7cfdffffff02e6fd9100000000001976a914592088de70d2427261b4e28a48cb55f5e34123b288ac0046c3230000000017a91469f374c585c346ecaedb4483ce922f6c0fff22d7870c490800", "vin": [{"sequence": 4294967293, "scriptSig": {"hex": "473044022053b02bd8dfcbe29d7e5beb452161729309b42cc9fbdcf605e55c5d2f0bf395050220790d5b07d6e7082d3963cbab649626fc3b0334d48ede8ccdcb0bf90a891cf19c012103653987c56eefa518f0e242433878463ce340d1c6c51dc1f0c9fda15043eba3b0", "asm": "3044022053b02bd8dfcbe29d7e5beb452161729309b42cc9fbdcf605e55c5d2f0bf395050220790d5b07d6e7082d3963cbab649626fc3b0334d48ede8ccdcb0bf90a891cf19c[ALL] 03653987c56eefa518f0e242433878463ce340d1c6c51dc1f0c9fda15043eba3b0"}, "vout": 10, "txid": "1f61fa9bead14635b90efba2772c6d2c9b3bd48bf9f35c41beca86568c3cafed"}, {"sequence": 4294967293, "scriptSig": {"hex": "483045022100e3ba8a5dd03841d3ba7133efb5a1ec215eb85426f3f863c7936e24f3b7cc50d002204ab1e0a1a4bb908919849dbd2c28f6680eea96ab0077efbcb1e84122442bdb300121037ff2922737dfd34c8cd5ef60cd18e5dced34412af86b3c692665a78b1f4682fc", "asm": "3045022100e3ba8a5dd03841d3ba7133efb5a1ec215eb85426f3f863c7936e24f3b7cc50d002204ab1e0a1a4bb908919849dbd2c28f6680eea96ab0077efbcb1e84122442bdb30[ALL] 037ff2922737dfd34c8cd5ef60cd18e5dced34412af86b3c692665a78b1f4682fc"}, "vout": 0, "txid": "48529ab2aba85e9f23eaf6045c946ad3dd6084602b35ffcddbe5183a803d649e"}, {"sequence": 4294967293, "scriptSig": {"hex": "473044022060fddf061456ecb4e20cbfa5c7384b1349aa655b0d8a3b19607b1e0e70f36960022030ef31b0964de94a3d3cd2b243e83774af10eacdbddd3a752451f4705f495a6b012103a282ebc4e2afeb3a1c69f74ed0f0928773fccc158add03a5138d5a045c119f7c", "asm": "3044022060fddf061456ecb4e20cbfa5c7384b1349aa655b0d8a3b19607b1e0e70f36960022030ef31b0964de94a3d3cd2b243e83774af10eacdbddd3a752451f4705f495a6b[ALL] 03a282ebc4e2afeb3a1c69f74ed0f0928773fccc158add03a5138d5a045c119f7c"}, "vout": 0, "txid": "7d19526899d0a45eafe6f14a9a34b9e4aa8db3462b0f67a49296a9ff34478f6f"}, {"sequence": 4294967293, "scriptSig": {"hex": "483045022100b5aa30e18981ed1fc3a564c03b739ba5a8ab7b688f146e5c1bf2b8326b0fb13d02203e4f0de5a4f8842dfd73002e9dc44e0a8c68365a8401062f83ffba79483f73cb0121025aafb23713fc16a7acd8d104c076e5b1dcf5a69b5371d0c925198553f656c470", "asm": "3045022100b5aa30e18981ed1fc3a564c03b739ba5a8ab7b688f146e5c1bf2b8326b0fb13d02203e4f0de5a4f8842dfd73002e9dc44e0a8c68365a8401062f83ffba79483f73cb[ALL] 025aafb23713fc16a7acd8d104c076e5b1dcf5a69b5371d0c925198553f656c470"}, "vout": 2, "txid": "95f90d25e5c92b266b14c78b672ccd76fe67302519993cc5a61bd9a42b9243fa"}, {"sequence": 4294967293, "scriptSig": {"hex": "483045022100dc215d9214eeee714b566fd0e4dd8392701c992d59efd4be3bd2916124d617a002202c923aeac9a292448fd0ac35931902146daaf25c632063fc748974de0904cec20121031e062733b917976171a00e7771f5681427936cc40bdd8ef8ea685d1447a8c05f", "asm": "3045022100dc215d9214eeee714b566fd0e4dd8392701c992d59efd4be3bd2916124d617a002202c923aeac9a292448fd0ac35931902146daaf25c632063fc748974de0904cec2[ALL] 031e062733b917976171a00e7771f5681427936cc40bdd8ef8ea685d1447a8c05f"}, "vout": 0, "txid": "a21ad658930c7babdaf92c63c6644f7e44b5ae644e275038a3a89e6cf52c2719"}, {"sequence": 4294967293, "scriptSig": {"hex": "47304402200f569c61b05592454adfed3d613cffa19aa4c0d39e3a485364008031b042475602201170ccb5f2989436841d15ba3c675b4b1f981bd0c8152be7941aacb9934a915b012103a6f8905c0dbd6feb529a64caf0041bf70a7b86feecad732259721969ebbed096", "asm": "304402200f569c61b05592454adfed3d613cffa19aa4c0d39e3a485364008031b042475602201170ccb5f2989436841d15ba3c675b4b1f981bd0c8152be7941aacb9934a915b[ALL] 03a6f8905c0dbd6feb529a64caf0041bf70a7b86feecad732259721969ebbed096"}, "vout": 1, "txid": "a64048c8c314d27de21ee27cf13a603a04f1f1beb453b55b850c6738fa7a44c4"}, {"sequence": 4294967293, "scriptSig": {"hex": "473044022010273dced03f4d2b19673c28fa76ae8bbb9703ff76f38292c0d781574084bf0c02206d8b769698fb0ddc84d0637e5ed2039610c4d046e80cbe0ce4a65ec20ec4142a012103236b5063dc3fe71222d0669c50a2247259f020e7c128a89d15a6bf1ad9aa3196", "asm": "3044022010273dced03f4d2b19673c28fa76ae8bbb9703ff76f38292c0d781574084bf0c02206d8b769698fb0ddc84d0637e5ed2039610c4d046e80cbe0ce4a65ec20ec4142a[ALL] 03236b5063dc3fe71222d0669c50a2247259f020e7c128a89d15a6bf1ad9aa3196"}, "vout": 12, "txid": "ad4e6e646f250ae039ca5845d0733ffe06e8f6387092e15a6c163c88c5ae1aec"}, {"sequence": 4294967293, "scriptSig": {"hex": "47304402203aab6ac244c941c5d5677d9fa2e76e8fbf58742266af20085ea0ea2aff1d962c022045d7efb815e218b92b1cd0212973c286fc6cacdca2d1f3a857f9a0af01278e5a012102455a5ef221cf8be4a8445933426892695b06919ceb6219f6d524801810d56524", "asm": "304402203aab6ac244c941c5d5677d9fa2e76e8fbf58742266af20085ea0ea2aff1d962c022045d7efb815e218b92b1cd0212973c286fc6cacdca2d1f3a857f9a0af01278e5a[ALL] 02455a5ef221cf8be4a8445933426892695b06919ceb6219f6d524801810d56524"}, "vout": 18, "txid": "aec922db10a944e5b6a2f83d38bc72d6895c824e05c31b5112aa4f957be88f15"}, {"sequence": 4294967293, "scriptSig": {"hex": "483045022100bfc6e256e1f98ccfa252ba6c365f8d8bca8eff703f6e91d163bd004b62068fad02207a8d10d265fbbfda59ba2a8fedc231adf46920a890f2036dea93a7fb502ca4400121030a4991b0d63925dff54abf77bfa926c565ff7dabc278141860d052447d81d461", "asm": "3045022100bfc6e256e1f98ccfa252ba6c365f8d8bca8eff703f6e91d163bd004b62068fad02207a8d10d265fbbfda59ba2a8fedc231adf46920a890f2036dea93a7fb502ca440[ALL] 030a4991b0d63925dff54abf77bfa926c565ff7dabc278141860d052447d81d461"}, "vout": 10, "txid": "b43b237b8407ce52bb6eb326bad526f932d0979d4890a49b5951a948cd823991"}, {"sequence": 4294967293, "scriptSig": {"hex": "473044022027e8d4037ce819ae67099fbb123e177201ed9f64fd34ba154f7f0675cb72060802202a42ef70bc839e2eefcacef06e84d7cab013e40a78d51434e2e4239c0d62af7c0121038b23ab0274a0099b06579a4b6690f517ae3d405322dcf9d8f8cfb1f5f0c819a6", "asm": "3044022027e8d4037ce819ae67099fbb123e177201ed9f64fd34ba154f7f0675cb72060802202a42ef70bc839e2eefcacef06e84d7cab013e40a78d51434e2e4239c0d62af7c[ALL] 038b23ab0274a0099b06579a4b6690f517ae3d405322dcf9d8f8cfb1f5f0c819a6"}, "vout": 0, "txid": "d216278ae99ebfbca49fa816818d14b83e674b25acc7c494dc80a50c7e2b2b2a"}, {"sequence": 4294967293, "scriptSig": {"hex": "463043022015d3d37e3f61789612448bc24a553a8285c2520c079c30f1e4bdfa7a0062658c021f0a628aff004521a385e8a865572c80f30d53891ffc0be0e3694e92d36c79d501210323238e7e793fa6b05db29a7b8d927f6bf6cf889929f6ffee77b2a27fc057759f", "asm": "3043022015d3d37e3f61789612448bc24a553a8285c2520c079c30f1e4bdfa7a0062658c021f0a628aff004521a385e8a865572c80f30d53891ffc0be0e3694e92d36c79d5[ALL] 0323238e7e793fa6b05db29a7b8d927f6bf6cf889929f6ffee77b2a27fc057759f"}, "vout": 0, "txid": "d434deabd0f32da915889f4a16548f377bdab5cae15bd443d5798672f7a3dd82"}, {"sequence": 4294967293, "scriptSig": {"hex": "473044022025458f022d43bfb2b18e0ad20c0076b92406ded9017d5c13a22ab5be399e0a0a022002753c332cb5efdfd9f9eb4b3e0462c70b5882395afd585aa416dc024a2ad97e01210307b18be8b16af69122e7951f324d857696558a2b4f71cd2c0d06b764d3de2e7c", "asm": "3044022025458f022d43bfb2b18e0ad20c0076b92406ded9017d5c13a22ab5be399e0a0a022002753c332cb5efdfd9f9eb4b3e0462c70b5882395afd585aa416dc024a2ad97e[ALL] 0307b18be8b16af69122e7951f324d857696558a2b4f71cd2c0d06b764d3de2e7c"}, "vout": 53, "txid": "e0680a17d9d36c375aceee1e5bc3c27ca76a1c9ec9fa49ad9d53af4ea594f71a"}], "txid": "f23e2745fd9086fc4170a89af379dd0bb4527784e66750db4a9a8b1bb0553e13", "blocktime": 1537870268, "version": 1, "confirmations": 11519, "time": 1537870268, "locktime": 542988, "vsize": 1843, "size": 1843}