{"hash": "fe94a58e4d812d85873057ed4ff13ef42a50a5bdbfb99d51da6610bdcdb845a6", "blockhash": "0000000000000000001f76057863aec43deb6fa401d9628bb513d65a8098bfab", "vout": [{"scriptPubKey": {"reqSigs": 1, "hex": "a91439a5aebfe1f1fd3258c0876d277341e3659d0d6e87", "addresses": ["36wpvJpSKsA4nehWk9RKvvjjrqzG2PWE6y"], "asm": "OP_HASH160 39a5aebfe1f1fd3258c0876d277341e3659d0d6e OP_EQUAL", "type": "scripthash"}, "value": 0.01000106, "n": 0}, {"scriptPubKey": {"reqSigs": 1, "hex": "76a9140717b49054805ee9392f4b673220bc1b080dce0788ac", "addresses": ["1eW8REaTxUP3RX7BgE3A6PsPwrqcgNDQ3"], "asm": "OP_DUP OP_HASH160 0717b49054805ee9392f4b673220bc1b080dce07 OP_EQUALVERIFY OP_CHECKSIG", "type": "pubkeyhash"}, "value": 0.01958804, "n": 1}], "hex": "020000000001042066f298ddf3aff4e08a1c58d6b50e942b45d19eff6c7452b6c1d094ad613c2b0d000000171600144991741137a20c02c2b6669a1ec2fab140a579a6feffffff2e8c909e1f78a724bf2adc40579159fa6e9642d30204c21af07e26ebdc4ec95a010000001716001476f47a09d49be97ce654d4bde537028866e843e7feffffff689ce9dafd6d8ca96edecddee4089e5e74174953f5827898b6992ee50e56b11b0100000017160014f5350046a26b76431654d527343950e520db8aebfeffffffd40c97a70cc65944a89c5b61f80dc07eaf875d5a0eade03f578ee7ad40058a7d0000000017160014bd8f17c836930d00fdfd5323effd3aaa36fabcadfeffffff02aa420f000000000017a91439a5aebfe1f1fd3258c0876d277341e3659d0d6e8794e31d00000000001976a9140717b49054805ee9392f4b673220bc1b080dce0788ac0247304402201fbb482c3deed43139ce54eb81a2a7be7f64adb78c0da62781be5e1722351e270220472d7883464a1a3afd4d18df125db24758fb25c44fd1e470457bcd191e3a39b4012103d3b1d6c4bdc36552cd0b29410fb2d65d8aae314334996d10dc827bb9e3d9ab4202473044022005bd446f95218397e978e524360f96e416ac9e7adac4039d8dbf3885a6d3face0220376aacc362c5cdd6fe9193ff37ff6316f8d58a2fb01aefdf58afe6d1e61001c001210328a0d64dc0e389a76c386eb204f28756fc690855e6c7ab93327d5546c74cbf880247304402202d0138a35c317dcba13a6f5bc4bf71e7a810c9e7755cae1eeec96183234b469002205695b461ca9710499c4119b879aa6027f2985452ad37a75428ce80aedfdc70cd01210300c2dedd6dbd68ef3b004bbe491a32e0de1c381c66656a0ea2921d57bbae04f60247304402201c09f681fa0c390bd730d498ab9b06e37050f85199b7cb89f0edae7c2a8fe54402200b3ff4b109ba597738c59d8b965215d0cc98ecce5b580a586221a5a4ce3a21610121035495bf59aff76afe5096b249e317a67b99cb16206320e61dac71dd7c0436b37d14490800", "vin": [{"txinwitness": ["304402201fbb482c3deed43139ce54eb81a2a7be7f64adb78c0da62781be5e1722351e270220472d7883464a1a3afd4d18df125db24758fb25c44fd1e470457bcd191e3a39b401", "03d3b1d6c4bdc36552cd0b29410fb2d65d8aae314334996d10dc827bb9e3d9ab42"], "sequence": 4294967294, "scriptSig": {"hex": "1600144991741137a20c02c2b6669a1ec2fab140a579a6", "asm": "00144991741137a20c02c2b6669a1ec2fab140a579a6"}, "vout": 13, "txid": "2b3c61ad94d0c1b652746cff9ed1452b940eb5d6581c8ae0f4aff3dd98f26620"}, {"txinwitness": ["3044022005bd446f95218397e978e524360f96e416ac9e7adac4039d8dbf3885a6d3face0220376aacc362c5cdd6fe9193ff37ff6316f8d58a2fb01aefdf58afe6d1e61001c001", "0328a0d64dc0e389a76c386eb204f28756fc690855e6c7ab93327d5546c74cbf88"], "sequence": 4294967294, "scriptSig": {"hex": "16001476f47a09d49be97ce654d4bde537028866e843e7", "asm": "001476f47a09d49be97ce654d4bde537028866e843e7"}, "vout": 1, "txid": "5ac94edceb267ef01ac20402d342966efa59915740dc2abf24a7781f9e908c2e"}, {"txinwitness": ["304402202d0138a35c317dcba13a6f5bc4bf71e7a810c9e7755cae1eeec96183234b469002205695b461ca9710499c4119b879aa6027f2985452ad37a75428ce80aedfdc70cd01", "0300c2dedd6dbd68ef3b004bbe491a32e0de1c381c66656a0ea2921d57bbae04f6"], "sequence": 4294967294, "scriptSig": {"hex": "160014f5350046a26b76431654d527343950e520db8aeb", "asm": "0014f5350046a26b76431654d527343950e520db8aeb"}, "vout": 1, "txid": "1bb1560ee52e99b6987882f5534917745e9e08e4decdde6ea98c6dfddae99c68"}, {"txinwitness": ["304402201c09f681fa0c390bd730d498ab9b06e37050f85199b7cb89f0edae7c2a8fe54402200b3ff4b109ba597738c59d8b965215d0cc98ecce5b580a586221a5a4ce3a216101", "035495bf59aff76afe5096b249e317a67b99cb16206320e61dac71dd7c0436b37d"], "sequence": 4294967294, "scriptSig": {"hex": "160014bd8f17c836930d00fdfd5323effd3aaa36fabcad", "asm": "0014bd8f17c836930d00fdfd5323effd3aaa36fabcad"}, "vout": 0, "txid": "7d8a0540ade78e573fe0ad0e5a5d87af7ec00df8615b9ca84459c60ca7970cd4"}], "txid": "f24014b0506b5520b6389d4f4bcabfdf5c58f9439953c99fb2af4fdd80afb1b3", "blocktime": 1537873891, "version": 2, "confirmations": 11478, "time": 1537873891, "locktime": 542996, "vsize": 440, "size": 762}