{"hash": "44dfa2cfd5c13f6cbe01bc1d91029b06125bbb241172f78477eac7c35cead03a", "blockhash": "0000000000000000000baef3f32e3676a92c3b2e5da21b426e4f302fc371ce76", "vout": [{"scriptPubKey": {"reqSigs": 1, "hex": "76a914e823d349b39bd0cde7bbc06cbc5e821a20eca95588ac", "addresses": ["1NASghCmBPPsfVZax5sVTms4dRhapV1KS2"], "asm": "OP_DUP OP_HASH160 e823d349b39bd0cde7bbc06cbc5e821a20eca955 OP_EQUALVERIFY OP_CHECKSIG", "type": "pubkeyhash"}, "value": 0.04888334, "n": 0}, {"scriptPubKey": {"reqSigs": 1, "hex": "a914cfaabfe8c271f99a4364b5197ba50c6cddb7adb987", "addresses": ["3Ld4M9RPwEG3VeQbHcC1PsKUndQL7VYLZP"], "asm": "OP_HASH160 cfaabfe8c271f99a4364b5197ba50c6cddb7adb9 OP_EQUAL", "type": "scripthash"}, "value": 0.11077771, "n": 1}], "hex": "010000000001012b77005c191d35146b381581ca3fd9be37836c7b6c72440765cf77dd5d33a7eb01000000232200202f7b4024602241b47d3306a6733d9889e4b6761d9f1cb82a18aa8b9ac4506e51ffffffff020e974a00000000001976a914e823d349b39bd0cde7bbc06cbc5e821a20eca95588ac8b08a9000000000017a914cfaabfe8c271f99a4364b5197ba50c6cddb7adb9870400473044022057aaf6d50450ea84ebf750e2d1e93bd145c00840bd9fb824b101783c793cba1402203564bf68734b0ffcd614362b3c0160c9986f4829a692b5b05e5b549f2c4d84a3014730440220091e19de894cb0b093a95a19eee60705a22f4072347cf5c7981409ef72a250e90220294f1dd1815dd2309f011efa6f4b5cbf637fed970737542076bc178d161d2a670147522102973cd851fecff3a20f08377b072729f303801eee1b7678668338adcaec770ec221033e4af03ed09dbd8a417ba042650d5bd1db7f14f271a8f660974e3abf1fdfa4da52ae00000000", "vin": [{"txinwitness": ["", "3044022057aaf6d50450ea84ebf750e2d1e93bd145c00840bd9fb824b101783c793cba1402203564bf68734b0ffcd614362b3c0160c9986f4829a692b5b05e5b549f2c4d84a301", "30440220091e19de894cb0b093a95a19eee60705a22f4072347cf5c7981409ef72a250e90220294f1dd1815dd2309f011efa6f4b5cbf637fed970737542076bc178d161d2a6701", "522102973cd851fecff3a20f08377b072729f303801eee1b7678668338adcaec770ec221033e4af03ed09dbd8a417ba042650d5bd1db7f14f271a8f660974e3abf1fdfa4da52ae"], "sequence": 4294967295, "scriptSig": {"hex": "2200202f7b4024602241b47d3306a6733d9889e4b6761d9f1cb82a18aa8b9ac4506e51", "asm": "00202f7b4024602241b47d3306a6733d9889e4b6761d9f1cb82a18aa8b9ac4506e51"}, "vout": 1, "txid": "eba7335ddd77cf650744726c7b6c8337bed93fca8115386b14351d195c00772b"}], "txid": "f242f983f119d2344afa3b650492aa4fa936b39b6cc74c289c2450f873e0562e", "blocktime": 1537876114, "version": 1, "confirmations": 11460, "time": 1537876114, "locktime": 0, "vsize": 207, "size": 372}