{"hash": "0f8f965b11993fc86eadbb01168b338eca6135c44b78d83379ca2bb37ff2dd9b", "blockhash": "000000000000000000022b45ed06c6f4ccd3cf7fb5ba4856ebd2e58215665228", "vout": [{"scriptPubKey": {"reqSigs": 1, "hex": "a91469f37586e71dda82649fbeb0df5a1d3e6b06ba2287", "addresses": ["3BMEXX7ictaNtPvoj2h787zuRL9uFyr7Xa"], "asm": "OP_HASH160 69f37586e71dda82649fbeb0df5a1d3e6b06ba22 OP_EQUAL", "type": "scripthash"}, "value": 0.0049, "n": 0}, {"scriptPubKey": {"reqSigs": 1, "hex": "a914daa4e4a4195d2d297a3c88c5b32fb4552604598a87", "addresses": ["3Md6mLa6C1655KvCY5hWgmhcMfscjDMpxN"], "asm": "OP_HASH160 daa4e4a4195d2d297a3c88c5b32fb4552604598a OP_EQUAL", "type": "scripthash"}, "value": 0.02184851, "n": 1}], "hex": "0200000000010270611b9c0d2fa5101ee92e588bc9686afa153e7a0043f9592eb7715babda3f300000000017160014bb674aa7e14be72d547c2a5baff4860b0eeba814fefffffff200b5b263205c1ac4388478c2fc27cc59fcd6e9a240c92e441c09a184254dbe00000000171600146f86734e03e9d7c7147eed0ff2ad87c6ac7ba36cfeffffff02107a07000000000017a91469f37586e71dda82649fbeb0df5a1d3e6b06ba2287935621000000000017a914daa4e4a4195d2d297a3c88c5b32fb4552604598a8702473044022035d204dcbcc48b7bba89e9d54d2e4514aa28eb08a477eebc175ae8d879a7678202200090ac2d309357c61bc45d30142435d3056193e3bcdb5c5edd98b0db5d779feb012103c95fdda6f62d9b4bb38bd8f35ed4a870a1b5affd862efc8e6c6983e021c77ece02483045022100d90b5363654401e18903808b1e83f5bffc64d570d0126c891ade0df21746e87c02206846715ab44ced065c15f9530d59b53eea27f3d96f1972b86b25bda8349d89dc012102229c92a16c43c18923de8ca8b96bfc381cc40f7a79f4f9825fac7d2dca379c1aba480800", "vin": [{"txinwitness": ["3044022035d204dcbcc48b7bba89e9d54d2e4514aa28eb08a477eebc175ae8d879a7678202200090ac2d309357c61bc45d30142435d3056193e3bcdb5c5edd98b0db5d779feb01", "03c95fdda6f62d9b4bb38bd8f35ed4a870a1b5affd862efc8e6c6983e021c77ece"], "sequence": 4294967294, "scriptSig": {"hex": "160014bb674aa7e14be72d547c2a5baff4860b0eeba814", "asm": "0014bb674aa7e14be72d547c2a5baff4860b0eeba814"}, "vout": 0, "txid": "303fdaab5b71b72e59f943007a3e15fa6a68c98b582ee91e10a52f0d9c1b6170"}, {"txinwitness": ["3045022100d90b5363654401e18903808b1e83f5bffc64d570d0126c891ade0df21746e87c02206846715ab44ced065c15f9530d59b53eea27f3d96f1972b86b25bda8349d89dc01", "02229c92a16c43c18923de8ca8b96bfc381cc40f7a79f4f9825fac7d2dca379c1a"], "sequence": 4294967294, "scriptSig": {"hex": "1600146f86734e03e9d7c7147eed0ff2ad87c6ac7ba36c", "asm": "00146f86734e03e9d7c7147eed0ff2ad87c6ac7ba36c"}, "vout": 0, "txid": "be4d2584a1091c442ec940a2e9d6fc59cc27fcc2788438c41a5c2063b2b500f2"}], "txid": "f244a566866b32e8010c6ac6fc6ef21f783172d5111ce0c5e538c44c0a6800e9", "blocktime": 1537869901, "version": 2, "confirmations": 11523, "time": 1537869901, "locktime": 542906, "vsize": 257, "size": 419}