{"hash": "f24b9084677119994635b5f84899048427bfcbea3189a5830e7a3b6d739753d9", "blockhash": "0000000000000000000dcc0f55137456b1a82d3642486a52398922ac4d620174", "vout": [{"scriptPubKey": {"reqSigs": 1, "hex": "a9143f4eecba122ad73039d481c8d37f99cb4f887cd887", "addresses": ["37Tm3Qz8Zw2VJrheUUhArDAoq58S6YrS3g"], "asm": "OP_HASH160 3f4eecba122ad73039d481c8d37f99cb4f887cd8 OP_EQUAL", "type": "scripthash"}, "value": 1.0, "n": 0}, {"scriptPubKey": {"reqSigs": 1, "hex": "a9141626086d77f63c8e91bab21592ef1ec038861e7b87", "addresses": ["33i8MLY8amX714uE9WuvfVdiMEb5NAGi1g"], "asm": "OP_HASH160 1626086d77f63c8e91bab21592ef1ec038861e7b OP_EQUAL", "type": "scripthash"}, "value": 12.26325876, "n": 1}], "hex": "01000000013b4c8f57c2adbb5e1fb1e933b5e214cd39ba3f5271aaa488d27aeee7c256cd1301000000fdfe0000483045022100ff156b2a891c9f1f5c10e2750fb1b3277735b153c57b41d1ff8a0cbda453aca002202dd359fbcd4ea10a099194d0a464283bf3d33adc2a32fe61fd91edde9aedab7301483045022100c5803a4e1fd7105d42e2744931266894b6561708966996f42bb540e6248f7ffb0220131123a27b09055c1313573e526f4c18083bb214048f05b24177eb9d5af9b8f2014c69522103ef5aa54596c6717719162becaf48b49a3947480f9491da8ba4d6c5a15d5fe9d521028b5b142f3bc05d4042a5e1e45ad28bee340bf3fef3db724ebc46d794efbec35c21021dd56d5844af6cb0e306d2f8aacf299a8218a7350a5e9653a886083b0805728a53aeffffffff0200e1f5050000000017a9143f4eecba122ad73039d481c8d37f99cb4f887cd887743f18490000000017a9141626086d77f63c8e91bab21592ef1ec038861e7b8700000000", "vin": [{"sequence": 4294967295, "scriptSig": {"hex": "00483045022100ff156b2a891c9f1f5c10e2750fb1b3277735b153c57b41d1ff8a0cbda453aca002202dd359fbcd4ea10a099194d0a464283bf3d33adc2a32fe61fd91edde9aedab7301483045022100c5803a4e1fd7105d42e2744931266894b6561708966996f42bb540e6248f7ffb0220131123a27b09055c1313573e526f4c18083bb214048f05b24177eb9d5af9b8f2014c69522103ef5aa54596c6717719162becaf48b49a3947480f9491da8ba4d6c5a15d5fe9d521028b5b142f3bc05d4042a5e1e45ad28bee340bf3fef3db724ebc46d794efbec35c21021dd56d5844af6cb0e306d2f8aacf299a8218a7350a5e9653a886083b0805728a53ae", "asm": "0 3045022100ff156b2a891c9f1f5c10e2750fb1b3277735b153c57b41d1ff8a0cbda453aca002202dd359fbcd4ea10a099194d0a464283bf3d33adc2a32fe61fd91edde9aedab73[ALL] 3045022100c5803a4e1fd7105d42e2744931266894b6561708966996f42bb540e6248f7ffb0220131123a27b09055c1313573e526f4c18083bb214048f05b24177eb9d5af9b8f2[ALL] 522103ef5aa54596c6717719162becaf48b49a3947480f9491da8ba4d6c5a15d5fe9d521028b5b142f3bc05d4042a5e1e45ad28bee340bf3fef3db724ebc46d794efbec35c21021dd56d5844af6cb0e306d2f8aacf299a8218a7350a5e9653a886083b0805728a53ae"}, "vout": 1, "txid": "13cd56c2e7ee7ad288a4aa71523fba39cd14e2b533e9b11f5ebbadc2578f4c3b"}], "txid": "f24b9084677119994635b5f84899048427bfcbea3189a5830e7a3b6d739753d9", "blocktime": 1537870268, "version": 1, "confirmations": 11516, "time": 1537870268, "locktime": 0, "vsize": 371, "size": 371}