{"hash": "f25528c19bbef7b20d0b6e240fc562b524c68bfad4c188c3b98517823f0c16c4", "blockhash": "0000000000000000001cda96e906b7601b7a6fb1a3b62bca570a9e5d8f4b3de1", "vout": [{"scriptPubKey": {"reqSigs": 1, "hex": "76a91424509f4bbac9d5df995914d39a88df513b90c1bc88ac", "addresses": ["14K1ue1AjXRSMzwDdRk8aSxTpGqqvsppZg"], "asm": "OP_DUP OP_HASH160 24509f4bbac9d5df995914d39a88df513b90c1bc OP_EQUALVERIFY OP_CHECKSIG", "type": "pubkeyhash"}, "value": 0.01246941, "n": 0}, {"scriptPubKey": {"reqSigs": 1, "hex": "76a914619928996a72665209242fac2a9e57ba29916b0388ac", "addresses": ["19u42Fg8EsyXRDwbQm2nN1ZKF9rkVZwi8n"], "asm": "OP_DUP OP_HASH160 619928996a72665209242fac2a9e57ba29916b03 OP_EQUALVERIFY OP_CHECKSIG", "type": "pubkeyhash"}, "value": 0.02026567, "n": 1}], "hex": "010000000a3eb1c5766413205731c73b2a73f6f95fdf1f8d505360cfe85b69fb92cacbbc1c000000006b483045022100afdb2d70e9bfe6ecbbc84738cf4917e2c910b785b575473196290f89749b40b102203aafcd110a7b732cac7d656143f2facc9f0c944d2b1256c97fa6ab3d0667d17d01210318bf1266c9e1dfd00f2fd86a182a06c1f5a0a2e488a9b11750c7fbc2c7a08291ffffffff9f4ec59a16b06d076d4bd555025e6441368c3fe3b0348a541f1576054c993227000000006b483045022100c9e5b322e9ac24092fd01622c6a84c4951fd695d44c7f153ee4d15fbbada551802203d046ac84d35eb7ecc39afab71bd01306c322a14993733153e3e0e074ad7e837012103f7e2a758ca5a4fa8d3e697a37d0e12d3ae9287085e432c2ea195778d0246c8f7ffffffff5009ddcd5e6f9e9089cf5199306c3deae052f11d56bdeee7990019a2f0c0a943010000006b483045022100dbb73e5b2c1aa780a64002cffcbea29aae1f1e193f951b70c75a369b92d9614e022007016943652e77046d915a6455e33851014ed9a171b08308c76fada7abab763f012103464da037cb01c96dbe82e351d255056fb90e7393f1b4e7a7677c79784abc0786ffffffffd26228af8f766fd8a1696e7b54921e896e6974444efb3d522257f27c7ec5c847010000006a47304402204c765f57908c82386aba66dd4cf5ad97732c35b4b7405d1e11ce589fc29e59610220318aae44081787b74c3742e12bad5e7121eec82fda57c6f46d24b84d0a5c709c01210318bf1266c9e1dfd00f2fd86a182a06c1f5a0a2e488a9b11750c7fbc2c7a08291ffffffff96a93b8833f9098d6d4275f8454ded77f2b8b5ecc2d1668ecada06518605a957000000006b483045022100d6030c53b5756e94f5fdce36c447b7a0b7703493b258d5486cb3b8c23c8740bb02206f97bb0576bb15c80a350fbe3fe4716620ad7aa4d25a678d0f6c2682cf09fe46012103b355ee23fa538e1c520bf2807e29ccb9bc2aa549c638011479f7065711ede648ffffffffe6b9ebf2b72323d26d22bee0257835bb0b6fc5f5683975c7cb5e2af3c1227b6b000000006b483045022100b52f13d36afcdecf573a44a1efbe61c3177ec029e1b72aaf7fb30fa07413807d022042e54783118bdf6737bab0d993e88cb0bb7c9a9e30472c4e5c3572a55f904df101210318bf1266c9e1dfd00f2fd86a182a06c1f5a0a2e488a9b11750c7fbc2c7a08291ffffffff7e8cba8b8a9c435283d3113075d98f2eeaad00803dbaabcfb0158910d1048b95000000006b483045022100b9114a531a7c9e4b290501263c6591134ecd9d6eeae530fe4a5a3c3210fc06540220439d562481a1cbca1d269796e89808837ca5aeb6bc16b4c6e7acc21fb19ee43a01210318bf1266c9e1dfd00f2fd86a182a06c1f5a0a2e488a9b11750c7fbc2c7a08291ffffffffc2e9839a3229b342c4722aed9a55e0cf543f11b39bc9ae2459f03bfedd2e86d1000000006a473044022004faddb27b970679515ef0a242571badeb33d705fbd8ec4f20d549d9370227560220254b48fbabb6bb84a7954dc85516edbab24049ca0d491332e09a2a2dc64c86f201210318bf1266c9e1dfd00f2fd86a182a06c1f5a0a2e488a9b11750c7fbc2c7a08291fffffffff20e0780f6841b5eea2555d21b26fd93cd66207f5e63fcc3cd13095b3042cae9000000006a4730440220471de63ed94ce1ed13d34ef9f8b618f65a30f953be42d97750e7b26b21e3d6f202200dbe2ec86dea1c88093fc638e7a94cf2b8b62254890d23c6e977dda9b9b0fae4012103b355ee23fa538e1c520bf2807e29ccb9bc2aa549c638011479f7065711ede648ffffffff909476210785da0c9cef9f5da487e8b23ad15210b99419ff54c1f6b067ad2df8000000006a473044022004e495dbe455c2b0285b8456ca737d8b5851f0210cafe1269b0a7fdbdc96e690022001e24a510f8dfd9e546c67316b6f1004747e0a993edcfc6a0ae84646a43aa8a901210318bf1266c9e1dfd00f2fd86a182a06c1f5a0a2e488a9b11750c7fbc2c7a08291ffffffff02dd061300000000001976a91424509f4bbac9d5df995914d39a88df513b90c1bc88ac47ec1e00000000001976a914619928996a72665209242fac2a9e57ba29916b0388ac00000000", "vin": [{"sequence": 4294967295, "scriptSig": {"hex": "483045022100afdb2d70e9bfe6ecbbc84738cf4917e2c910b785b575473196290f89749b40b102203aafcd110a7b732cac7d656143f2facc9f0c944d2b1256c97fa6ab3d0667d17d01210318bf1266c9e1dfd00f2fd86a182a06c1f5a0a2e488a9b11750c7fbc2c7a08291", "asm": "3045022100afdb2d70e9bfe6ecbbc84738cf4917e2c910b785b575473196290f89749b40b102203aafcd110a7b732cac7d656143f2facc9f0c944d2b1256c97fa6ab3d0667d17d[ALL] 0318bf1266c9e1dfd00f2fd86a182a06c1f5a0a2e488a9b11750c7fbc2c7a08291"}, "vout": 0, "txid": "1cbccbca92fb695be8cf6053508d1fdf5ff9f6732a3bc7315720136476c5b13e"}, {"sequence": 4294967295, "scriptSig": {"hex": "483045022100c9e5b322e9ac24092fd01622c6a84c4951fd695d44c7f153ee4d15fbbada551802203d046ac84d35eb7ecc39afab71bd01306c322a14993733153e3e0e074ad7e837012103f7e2a758ca5a4fa8d3e697a37d0e12d3ae9287085e432c2ea195778d0246c8f7", "asm": "3045022100c9e5b322e9ac24092fd01622c6a84c4951fd695d44c7f153ee4d15fbbada551802203d046ac84d35eb7ecc39afab71bd01306c322a14993733153e3e0e074ad7e837[ALL] 03f7e2a758ca5a4fa8d3e697a37d0e12d3ae9287085e432c2ea195778d0246c8f7"}, "vout": 0, "txid": "2732994c0576151f548a34b0e33f8c3641645e0255d54b6d076db0169ac54e9f"}, {"sequence": 4294967295, "scriptSig": {"hex": "483045022100dbb73e5b2c1aa780a64002cffcbea29aae1f1e193f951b70c75a369b92d9614e022007016943652e77046d915a6455e33851014ed9a171b08308c76fada7abab763f012103464da037cb01c96dbe82e351d255056fb90e7393f1b4e7a7677c79784abc0786", "asm": "3045022100dbb73e5b2c1aa780a64002cffcbea29aae1f1e193f951b70c75a369b92d9614e022007016943652e77046d915a6455e33851014ed9a171b08308c76fada7abab763f[ALL] 03464da037cb01c96dbe82e351d255056fb90e7393f1b4e7a7677c79784abc0786"}, "vout": 1, "txid": "43a9c0f0a2190099e7eebd561df152e0ea3d6c309951cf89909e6f5ecddd0950"}, {"sequence": 4294967295, "scriptSig": {"hex": "47304402204c765f57908c82386aba66dd4cf5ad97732c35b4b7405d1e11ce589fc29e59610220318aae44081787b74c3742e12bad5e7121eec82fda57c6f46d24b84d0a5c709c01210318bf1266c9e1dfd00f2fd86a182a06c1f5a0a2e488a9b11750c7fbc2c7a08291", "asm": "304402204c765f57908c82386aba66dd4cf5ad97732c35b4b7405d1e11ce589fc29e59610220318aae44081787b74c3742e12bad5e7121eec82fda57c6f46d24b84d0a5c709c[ALL] 0318bf1266c9e1dfd00f2fd86a182a06c1f5a0a2e488a9b11750c7fbc2c7a08291"}, "vout": 1, "txid": "47c8c57e7cf25722523dfb4e4474696e891e92547b6e69a1d86f768faf2862d2"}, {"sequence": 4294967295, "scriptSig": {"hex": "483045022100d6030c53b5756e94f5fdce36c447b7a0b7703493b258d5486cb3b8c23c8740bb02206f97bb0576bb15c80a350fbe3fe4716620ad7aa4d25a678d0f6c2682cf09fe46012103b355ee23fa538e1c520bf2807e29ccb9bc2aa549c638011479f7065711ede648", "asm": "3045022100d6030c53b5756e94f5fdce36c447b7a0b7703493b258d5486cb3b8c23c8740bb02206f97bb0576bb15c80a350fbe3fe4716620ad7aa4d25a678d0f6c2682cf09fe46[ALL] 03b355ee23fa538e1c520bf2807e29ccb9bc2aa549c638011479f7065711ede648"}, "vout": 0, "txid": "57a905865106daca8e66d1c2ecb5b8f277ed4d45f875426d8d09f933883ba996"}, {"sequence": 4294967295, "scriptSig": {"hex": "483045022100b52f13d36afcdecf573a44a1efbe61c3177ec029e1b72aaf7fb30fa07413807d022042e54783118bdf6737bab0d993e88cb0bb7c9a9e30472c4e5c3572a55f904df101210318bf1266c9e1dfd00f2fd86a182a06c1f5a0a2e488a9b11750c7fbc2c7a08291", "asm": "3045022100b52f13d36afcdecf573a44a1efbe61c3177ec029e1b72aaf7fb30fa07413807d022042e54783118bdf6737bab0d993e88cb0bb7c9a9e30472c4e5c3572a55f904df1[ALL] 0318bf1266c9e1dfd00f2fd86a182a06c1f5a0a2e488a9b11750c7fbc2c7a08291"}, "vout": 0, "txid": "6b7b22c1f32a5ecbc7753968f5c56f0bbb357825e0be226dd22323b7f2ebb9e6"}, {"sequence": 4294967295, "scriptSig": {"hex": "483045022100b9114a531a7c9e4b290501263c6591134ecd9d6eeae530fe4a5a3c3210fc06540220439d562481a1cbca1d269796e89808837ca5aeb6bc16b4c6e7acc21fb19ee43a01210318bf1266c9e1dfd00f2fd86a182a06c1f5a0a2e488a9b11750c7fbc2c7a08291", "asm": "3045022100b9114a531a7c9e4b290501263c6591134ecd9d6eeae530fe4a5a3c3210fc06540220439d562481a1cbca1d269796e89808837ca5aeb6bc16b4c6e7acc21fb19ee43a[ALL] 0318bf1266c9e1dfd00f2fd86a182a06c1f5a0a2e488a9b11750c7fbc2c7a08291"}, "vout": 0, "txid": "958b04d1108915b0cfabba3d8000adea2e8fd9753011d38352439c8a8bba8c7e"}, {"sequence": 4294967295, "scriptSig": {"hex": "473044022004faddb27b970679515ef0a242571badeb33d705fbd8ec4f20d549d9370227560220254b48fbabb6bb84a7954dc85516edbab24049ca0d491332e09a2a2dc64c86f201210318bf1266c9e1dfd00f2fd86a182a06c1f5a0a2e488a9b11750c7fbc2c7a08291", "asm": "3044022004faddb27b970679515ef0a242571badeb33d705fbd8ec4f20d549d9370227560220254b48fbabb6bb84a7954dc85516edbab24049ca0d491332e09a2a2dc64c86f2[ALL] 0318bf1266c9e1dfd00f2fd86a182a06c1f5a0a2e488a9b11750c7fbc2c7a08291"}, "vout": 0, "txid": "d1862eddfe3bf05924aec99bb3113f54cfe0559aed2a72c442b329329a83e9c2"}, {"sequence": 4294967295, "scriptSig": {"hex": "4730440220471de63ed94ce1ed13d34ef9f8b618f65a30f953be42d97750e7b26b21e3d6f202200dbe2ec86dea1c88093fc638e7a94cf2b8b62254890d23c6e977dda9b9b0fae4012103b355ee23fa538e1c520bf2807e29ccb9bc2aa549c638011479f7065711ede648", "asm": "30440220471de63ed94ce1ed13d34ef9f8b618f65a30f953be42d97750e7b26b21e3d6f202200dbe2ec86dea1c88093fc638e7a94cf2b8b62254890d23c6e977dda9b9b0fae4[ALL] 03b355ee23fa538e1c520bf2807e29ccb9bc2aa549c638011479f7065711ede648"}, "vout": 0, "txid": "e9ca42305b0913cdc3fc635e7f2066cd93fd261bd25525ea5e1b84f680070ef2"}, {"sequence": 4294967295, "scriptSig": {"hex": "473044022004e495dbe455c2b0285b8456ca737d8b5851f0210cafe1269b0a7fdbdc96e690022001e24a510f8dfd9e546c67316b6f1004747e0a993edcfc6a0ae84646a43aa8a901210318bf1266c9e1dfd00f2fd86a182a06c1f5a0a2e488a9b11750c7fbc2c7a08291", "asm": "3044022004e495dbe455c2b0285b8456ca737d8b5851f0210cafe1269b0a7fdbdc96e690022001e24a510f8dfd9e546c67316b6f1004747e0a993edcfc6a0ae84646a43aa8a9[ALL] 0318bf1266c9e1dfd00f2fd86a182a06c1f5a0a2e488a9b11750c7fbc2c7a08291"}, "vout": 0, "txid": "f82dad67b0f6c154ff1994b91052d13ab2e887a45d9fef9c0cda850721769490"}], "txid": "f25528c19bbef7b20d0b6e240fc562b524c68bfad4c188c3b98517823f0c16c4", "blocktime": 1537873282, "version": 1, "confirmations": 11481, "time": 1537873282, "locktime": 0, "vsize": 1554, "size": 1554}