{"hash": "d0a735faa9d35c2e89ab367add1ed05140ecb2ad288a4be6df8394d60e0204be", "blockhash": "0000000000000000000e13cef7c366c0283d82e591d1acd082e914b08063cdf1", "vout": [{"scriptPubKey": {"reqSigs": 1, "hex": "a91430897cc6c9d69f6a2c2f1c651d51f22219f1a4f687", "addresses": ["367f4YWz1VCFaqBqwbTrzwi2b1h2U3w1AF"], "asm": "OP_HASH160 30897cc6c9d69f6a2c2f1c651d51f22219f1a4f6 OP_EQUAL", "type": "scripthash"}, "value": 5.84102844, "n": 0}, {"scriptPubKey": {"reqSigs": 1, "hex": "a914aecbecfbed40a2307133bcc704644800645f0a8987", "addresses": ["3HdFnvsTYjtgfXw5v3JDbyEf7FfiR4DJnM"], "asm": "OP_HASH160 aecbecfbed40a2307133bcc704644800645f0a89 OP_EQUAL", "type": "scripthash"}, "value": 0.52699342, "n": 1}], "hex": "01000000000101a4184ad983202f78192f72aadf69301ceeed579089a8388afb8193a9cadd3df40000000023220020bcf9f822194145acea0f3235f4107b5bf1a91b6b9f8489f63bf79ec29b360913ffffffff02bcb3d0220000000017a91430897cc6c9d69f6a2c2f1c651d51f22219f1a4f687ce2024030000000017a914aecbecfbed40a2307133bcc704644800645f0a898704004830450221009c9e22f73965d985308b38e02a5963016801ee2038b88531bd3382878b403b020220676af5f53e8a2c5757aae97980ecb1546e1068933a5fd9c661ec72fdd21e74e201483045022100887e54e5b3fb1d11c629e92d356b23f9b36c3d4ded64a0ef29adf157f52e2434022035418faf13397de3e30fa7c7e7f19fc8aa8c6a22cdf68ae3f9479fcbfa96040901695221026c8f72b9e63db63907115e65d4da86eaae595b22fdc85ec75301bb4adbf203582103806535be3e3920e5eedee92de5714188fd6a784f2bf7b04f87de0b9c3ae1ecdb21024b23bfdce2afcae7e28c42f7f79aa100f22931712c52d7414a526ba494d44a2553ae00000000", "vin": [{"txinwitness": ["", "30450221009c9e22f73965d985308b38e02a5963016801ee2038b88531bd3382878b403b020220676af5f53e8a2c5757aae97980ecb1546e1068933a5fd9c661ec72fdd21e74e201", "3045022100887e54e5b3fb1d11c629e92d356b23f9b36c3d4ded64a0ef29adf157f52e2434022035418faf13397de3e30fa7c7e7f19fc8aa8c6a22cdf68ae3f9479fcbfa96040901", "5221026c8f72b9e63db63907115e65d4da86eaae595b22fdc85ec75301bb4adbf203582103806535be3e3920e5eedee92de5714188fd6a784f2bf7b04f87de0b9c3ae1ecdb21024b23bfdce2afcae7e28c42f7f79aa100f22931712c52d7414a526ba494d44a2553ae"], "sequence": 4294967295, "scriptSig": {"hex": "220020bcf9f822194145acea0f3235f4107b5bf1a91b6b9f8489f63bf79ec29b360913", "asm": "0020bcf9f822194145acea0f3235f4107b5bf1a91b6b9f8489f63bf79ec29b360913"}, "vout": 0, "txid": "f43dddcaa99381fb8a38a8899057edee1c3069dfaa722f19782f2083d94a18a4"}], "txid": "f258e23f5a15982b6c828f4b8f58526e3ea1a286fcabc644998f72e2b236a2d9", "blocktime": 1537871767, "version": 1, "confirmations": 11493, "time": 1537871767, "locktime": 0, "vsize": 214, "size": 406}