{"hash": "f2595b634d3751bdbcd5c9084358a1fa90f3a7ca75e038f737a208ec8afc261a", "blockhash": "00000000000000000024a2167bbff67b0be802c0b01cdd79e6331c2be6459f87", "vout": [{"scriptPubKey": {"type": "nulldata", "hex": "6a4c500000777b0001964f2c680e7d576e9683a0f5bcbefa6b8351586b4e86aeaeacb577c031fcdc9390c47f37d723e84212e59a02b5255baa09ec0614bb3b86f21dff4bbf23acfcfaac8058b692fe6808c31d", "asm": "OP_RETURN 0000777b0001964f2c680e7d576e9683a0f5bcbefa6b8351586b4e86aeaeacb577c031fcdc9390c47f37d723e84212e59a02b5255baa09ec0614bb3b86f21dff4bbf23acfcfaac8058b692fe6808c31d"}, "value": 0.0, "n": 0}, {"scriptPubKey": {"reqSigs": 1, "hex": "76a9144647a9f1ef40300e8b78d7cde7c9ce4d45a5a5c588ac", "addresses": ["17Qc9ijeHywNaD5nLqWm8nK2KVQXDgTKup"], "asm": "OP_DUP OP_HASH160 4647a9f1ef40300e8b78d7cde7c9ce4d45a5a5c5 OP_EQUALVERIFY OP_CHECKSIG", "type": "pubkeyhash"}, "value": 0.00027575, "n": 1}], "hex": "010000000148c058dae58fc67c5591970fbb67bb413b924ac89acde6dd7dd75f0609c79831000000006a4730440220315a585884be70ccea31eb2e1816cd16dc8cac59b1acb22799efb3978e72572e0220652f722ca2130aca877ee156773ff4fb5b566b37e8abf1d9ddfd8c82624fac83012102f558a4d0f24e0fc5fe92992662b3aaf14c5223fd0ab53fde1e5528672f02f8ceffffffff020000000000000000536a4c500000777b0001964f2c680e7d576e9683a0f5bcbefa6b8351586b4e86aeaeacb577c031fcdc9390c47f37d723e84212e59a02b5255baa09ec0614bb3b86f21dff4bbf23acfcfaac8058b692fe6808c31db76b0000000000001976a9144647a9f1ef40300e8b78d7cde7c9ce4d45a5a5c588ac00000000", "vin": [{"sequence": 4294967295, "scriptSig": {"hex": "4730440220315a585884be70ccea31eb2e1816cd16dc8cac59b1acb22799efb3978e72572e0220652f722ca2130aca877ee156773ff4fb5b566b37e8abf1d9ddfd8c82624fac83012102f558a4d0f24e0fc5fe92992662b3aaf14c5223fd0ab53fde1e5528672f02f8ce", "asm": "30440220315a585884be70ccea31eb2e1816cd16dc8cac59b1acb22799efb3978e72572e0220652f722ca2130aca877ee156773ff4fb5b566b37e8abf1d9ddfd8c82624fac83[ALL] 02f558a4d0f24e0fc5fe92992662b3aaf14c5223fd0ab53fde1e5528672f02f8ce"}, "vout": 0, "txid": "3198c709065fd77ddde6cd9ac84a923b41bb67bb0f9791557cc68fe5da58c048"}], "txid": "f2595b634d3751bdbcd5c9084358a1fa90f3a7ca75e038f737a208ec8afc261a", "blocktime": 1537870564, "version": 1, "confirmations": 11515, "time": 1537870564, "locktime": 0, "vsize": 283, "size": 283}