{"hash": "bf0c16efa021cb03ab860bf539ce7bbe32c1c7e3a44eb2a83e1aeb966347d1b4", "blockhash": "0000000000000000001f76057863aec43deb6fa401d9628bb513d65a8098bfab", "vout": [{"scriptPubKey": {"reqSigs": 1, "hex": "76a914f04ada18ce8319e26f83bbd347c4e0c05c7dd83888ac", "addresses": ["1NuYqquzZTHVp6GfGMAAEKCoJRFHwd2ktp"], "asm": "OP_DUP OP_HASH160 f04ada18ce8319e26f83bbd347c4e0c05c7dd838 OP_EQUALVERIFY OP_CHECKSIG", "type": "pubkeyhash"}, "value": 0.3592763, "n": 0}, {"scriptPubKey": {"reqSigs": 1, "hex": "0014dd627c9853d3ffc7b0932cc5e3270752d3e9f3d9", "addresses": ["bc1qm438exzn60lu0vyn9nz7xfc82tf7nu7e00gyd2"], "asm": "0 dd627c9853d3ffc7b0932cc5e3270752d3e9f3d9", "type": "witness_v0_keyhash"}, "value": 0.00740432, "n": 1}], "hex": "01000000000101d8a53ec3750f9dcdf8d338e40866bc3a0b94773058d23e0a3600b27f80b4c1570000000000ffffffff024e362402000000001976a914f04ada18ce8319e26f83bbd347c4e0c05c7dd83888ac504c0b0000000000160014dd627c9853d3ffc7b0932cc5e3270752d3e9f3d90247304402206c68855d3068b38141c15e8aac1f1bf0236ccf1f1e1e4e296e08b423184211eb022006f0b3d187e2268f105528ea02d55da1c4b270f71716ca8882bc5045f05244ad0121031f9586252f8a771d13b08b174062384727e152361ff8825599dcf3637741e99600000000", "vin": [{"txinwitness": ["304402206c68855d3068b38141c15e8aac1f1bf0236ccf1f1e1e4e296e08b423184211eb022006f0b3d187e2268f105528ea02d55da1c4b270f71716ca8882bc5045f05244ad01", "031f9586252f8a771d13b08b174062384727e152361ff8825599dcf3637741e996"], "sequence": 4294967295, "scriptSig": {"hex": "", "asm": ""}, "vout": 0, "txid": "57c1b4807fb200360a3ed2583077940b3abc6608e438d3f8cd9d0f75c33ea5d8"}], "txid": "f2626b640db2decb10d698023d0cdf02237c71856225b40af9a59619a1b402df", "blocktime": 1537873891, "version": 1, "confirmations": 11478, "time": 1537873891, "locktime": 0, "vsize": 144, "size": 225}