{"hash": "f2651235b5213674d5c5ce8b417bbb7f5a00527552532acba277e5ea7a55a3cd", "blockhash": "0000000000000000001cda96e906b7601b7a6fb1a3b62bca570a9e5d8f4b3de1", "vout": [{"scriptPubKey": {"reqSigs": 1, "hex": "76a9144e0f6a8cf3aeafbfa1cfddc5a97bd66389bab72488ac", "addresses": ["187kB6oZZhTzFL4nwBGLnXCFnfKcxBXepF"], "asm": "OP_DUP OP_HASH160 4e0f6a8cf3aeafbfa1cfddc5a97bd66389bab724 OP_EQUALVERIFY OP_CHECKSIG", "type": "pubkeyhash"}, "value": 0.025406, "n": 0}], "hex": "01000000023459970991c6ea8518d7642d757df0921ac2ebea75eacafd6e26620a299ce70b010000006a4730440220479e25a1e5c4387c247b3724d91161b9b6e7eeb2095569f28f7cfe07aecc307002203a84006e1687eda6c4d9f6f0f19c379ae517f5d596ed9d311f0f927ae79b038e0121036478aaf2eaedac8da03949c5f94431b32158d1fb11768fe5363eb44b1f5fd57bffffffffa0c4acccc38486d5bb13289032805dc99a03fe2f5c2d6d9ffbf1dd1220b9ca54000000006b483045022100a7fe364d9c781a4564d48ed1ba3c7fcd6ebfc203ede02560d2f1139591db432c02204074c2189ac721fc8f67b3941bec77b8bf13b7add7643c4e2fcc3a7e306b26a4012103f0b0b3b9323b80f52e94723126776f70fb8797411b1003b0a7ff525eccb4bebcffffffff0138c42600000000001976a9144e0f6a8cf3aeafbfa1cfddc5a97bd66389bab72488ac00000000", "vin": [{"sequence": 4294967295, "scriptSig": {"hex": "4730440220479e25a1e5c4387c247b3724d91161b9b6e7eeb2095569f28f7cfe07aecc307002203a84006e1687eda6c4d9f6f0f19c379ae517f5d596ed9d311f0f927ae79b038e0121036478aaf2eaedac8da03949c5f94431b32158d1fb11768fe5363eb44b1f5fd57b", "asm": "30440220479e25a1e5c4387c247b3724d91161b9b6e7eeb2095569f28f7cfe07aecc307002203a84006e1687eda6c4d9f6f0f19c379ae517f5d596ed9d311f0f927ae79b038e[ALL] 036478aaf2eaedac8da03949c5f94431b32158d1fb11768fe5363eb44b1f5fd57b"}, "vout": 1, "txid": "0be79c290a62266efdcaea75eaebc21a92f07d752d64d71885eac69109975934"}, {"sequence": 4294967295, "scriptSig": {"hex": "483045022100a7fe364d9c781a4564d48ed1ba3c7fcd6ebfc203ede02560d2f1139591db432c02204074c2189ac721fc8f67b3941bec77b8bf13b7add7643c4e2fcc3a7e306b26a4012103f0b0b3b9323b80f52e94723126776f70fb8797411b1003b0a7ff525eccb4bebc", "asm": "3045022100a7fe364d9c781a4564d48ed1ba3c7fcd6ebfc203ede02560d2f1139591db432c02204074c2189ac721fc8f67b3941bec77b8bf13b7add7643c4e2fcc3a7e306b26a4[ALL] 03f0b0b3b9323b80f52e94723126776f70fb8797411b1003b0a7ff525eccb4bebc"}, "vout": 0, "txid": "54cab92012ddf1fb9f6d2d5c2ffe039ac95d8032902813bbd58684c3ccacc4a0"}], "txid": "f2651235b5213674d5c5ce8b417bbb7f5a00527552532acba277e5ea7a55a3cd", "blocktime": 1537873282, "version": 1, "confirmations": 11481, "time": 1537873282, "locktime": 0, "vsize": 339, "size": 339}