{"hash": "f2668058a43b06367417f4bc8ad8d099898057c7319d4cf8d98d9f16fa327dfe", "blockhash": "00000000000000000024a2167bbff67b0be802c0b01cdd79e6331c2be6459f87", "vout": [{"scriptPubKey": {"reqSigs": 1, "hex": "a91433aca6046eef0ef80d5c54eefb761e6d44675c3987", "addresses": ["36QFD9yW8Qge6VoUqpTZ6eRwAeEKju2Nro"], "asm": "OP_HASH160 33aca6046eef0ef80d5c54eefb761e6d44675c39 OP_EQUAL", "type": "scripthash"}, "value": 0.132971, "n": 0}, {"scriptPubKey": {"reqSigs": 1, "hex": "76a9141e4772ed1186a99b021b570f6a1ddf4476b270e788ac", "addresses": ["13m6s7b85DyCBfbYjEyH7qXCJqb9Bo8mHT"], "asm": "OP_DUP OP_HASH160 1e4772ed1186a99b021b570f6a1ddf4476b270e7 OP_EQUALVERIFY OP_CHECKSIG", "type": "pubkeyhash"}, "value": 0.01808, "n": 1}], "hex": "02000000018c657c8e30ea7eda4d4a22c09dbbc204ba8e59a110513ece7b79b203561ddad5020000006a4730440220081eb82b68bedca4b70d242d48febf6d3fb723ef4c19ea6354cd0db0c308a358022063bc069bbcf08b110d91ce57f9be68e292df94b4ef55567f914e5fa5d289d7ff0121035bfc0b137e014d75b14e8b3eb24ead32543073a721266e156a6af74d82b2e177fdffffff02cce5ca000000000017a91433aca6046eef0ef80d5c54eefb761e6d44675c398780961b00000000001976a9141e4772ed1186a99b021b570f6a1ddf4476b270e788ac0d490800", "vin": [{"sequence": 4294967293, "scriptSig": {"hex": "4730440220081eb82b68bedca4b70d242d48febf6d3fb723ef4c19ea6354cd0db0c308a358022063bc069bbcf08b110d91ce57f9be68e292df94b4ef55567f914e5fa5d289d7ff0121035bfc0b137e014d75b14e8b3eb24ead32543073a721266e156a6af74d82b2e177", "asm": "30440220081eb82b68bedca4b70d242d48febf6d3fb723ef4c19ea6354cd0db0c308a358022063bc069bbcf08b110d91ce57f9be68e292df94b4ef55567f914e5fa5d289d7ff[ALL] 035bfc0b137e014d75b14e8b3eb24ead32543073a721266e156a6af74d82b2e177"}, "vout": 2, "txid": "d5da1d5603b2797bce3e5110a1598eba04c2bb9dc0224a4dda7eea308e7c658c"}], "txid": "f2668058a43b06367417f4bc8ad8d099898057c7319d4cf8d98d9f16fa327dfe", "blocktime": 1537870564, "version": 2, "confirmations": 11515, "time": 1537870564, "locktime": 542989, "vsize": 223, "size": 223}