{"hash": "815c6fb5068fc8d5b48cc18a10e0133a93ef83fa4c1b66d922b172a8776cce13", "blockhash": "00000000000000000004ffacab907a6b429b9a5745fa0b75af4234bf69dd7176", "vout": [{"scriptPubKey": {"reqSigs": 1, "hex": "a9145d3f1654c32c9cb7fa1715d900ddf10e5b67953a87", "addresses": ["3AC4Lm8Nj1sDBpTC7H8fmy8qVDw8VNhCVv"], "asm": "OP_HASH160 5d3f1654c32c9cb7fa1715d900ddf10e5b67953a OP_EQUAL", "type": "scripthash"}, "value": 0.00331973, "n": 0}, {"scriptPubKey": {"reqSigs": 1, "hex": "76a914d2ee468cef7c30f67cadfa66e58e627f670ee0c688ac", "addresses": ["1LEJLxpo2hnZ92sLBugxzj4QUNZpSUPUHp"], "asm": "OP_DUP OP_HASH160 d2ee468cef7c30f67cadfa66e58e627f670ee0c6 OP_EQUALVERIFY OP_CHECKSIG", "type": "pubkeyhash"}, "value": 0.01703696, "n": 1}], "hex": "020000000001011d9a1d24fffb2a05332a386a8d4ea9d3b641ea40ad630fd08fca3234a24e77780000000017160014f3ea5eb6615641b355300e0f972419c434038267feffffff02c51005000000000017a9145d3f1654c32c9cb7fa1715d900ddf10e5b67953a8710ff1900000000001976a914d2ee468cef7c30f67cadfa66e58e627f670ee0c688ac02473044022028cea87dc6bbe1f154a694a6fdd792977437b8246e415db64ec11e0523c30b5602204141990cf818d37d6a7735e83f1f233a6e68cae8ec7bc6bb5ffead47862befc10121021da674881f88b8fe947d425cd116734293b23f45d085c19a6af20f61f57d06fb16490800", "vin": [{"txinwitness": ["3044022028cea87dc6bbe1f154a694a6fdd792977437b8246e415db64ec11e0523c30b5602204141990cf818d37d6a7735e83f1f233a6e68cae8ec7bc6bb5ffead47862befc101", "021da674881f88b8fe947d425cd116734293b23f45d085c19a6af20f61f57d06fb"], "sequence": 4294967294, "scriptSig": {"hex": "160014f3ea5eb6615641b355300e0f972419c434038267", "asm": "0014f3ea5eb6615641b355300e0f972419c434038267"}, "vout": 0, "txid": "78774ea23432ca8fd00f63ad40ea41b6d3a94e8d6a382a33052afbff241d9a1d"}], "txid": "f26eb58d94b4c628c6ed5fdbfae898c05e9f51d0fdf1ff280de9f959c49003a6", "blocktime": 1537875543, "version": 2, "confirmations": 11464, "time": 1537875543, "locktime": 542998, "vsize": 168, "size": 249}