{"hash": "70fedfe53091798ea3bd5b55200662ba43742ec8927bda92eefdb4df31a4bd2b", "blockhash": "0000000000000000001cda96e906b7601b7a6fb1a3b62bca570a9e5d8f4b3de1", "vout": [{"scriptPubKey": {"reqSigs": 1, "hex": "76a914784a455fbf9c188fc0d53329e7553c325c83108688ac", "addresses": ["1By34TbwEonh9nG2cphwvyVpbaexNRb4jj"], "asm": "OP_DUP OP_HASH160 784a455fbf9c188fc0d53329e7553c325c831086 OP_EQUALVERIFY OP_CHECKSIG", "type": "pubkeyhash"}, "value": 0.11027074, "n": 0}, {"scriptPubKey": {"reqSigs": 1, "hex": "a9145df1e1e050f915f1e5d785a1145509589eda7c0d87", "addresses": ["3AFkXfQ3TACt1UWKZercypKMdAz9sZEqww"], "asm": "OP_HASH160 5df1e1e050f915f1e5d785a1145509589eda7c0d OP_EQUAL", "type": "scripthash"}, "value": 0.04267646, "n": 1}], "hex": "02000000000101d0bb60a4d4d7663853928a90b726d696620f8cd2f879e9e242ed0c78252f31ec01000000171600142123458f4148b00f4a9ff591c741b0a307b68c7afeffffff028242a800000000001976a914784a455fbf9c188fc0d53329e7553c325c83108688ac7e1e41000000000017a9145df1e1e050f915f1e5d785a1145509589eda7c0d8702473044022059f7c48d94d03d2af7c155bd9e3343106508b6edc6260a0d9e13c1f4ba059dfe02207bb8a811cb54935dc551072c90750a0ca9c72dcd85511c948344f7f1b45a71240121038d315a2c28a288a3ef648a404e0cbe95587e1d7d936bcd8a7a59ff0814fb6a2abe480800", "vin": [{"txinwitness": ["3044022059f7c48d94d03d2af7c155bd9e3343106508b6edc6260a0d9e13c1f4ba059dfe02207bb8a811cb54935dc551072c90750a0ca9c72dcd85511c948344f7f1b45a712401", "038d315a2c28a288a3ef648a404e0cbe95587e1d7d936bcd8a7a59ff0814fb6a2a"], "sequence": 4294967294, "scriptSig": {"hex": "1600142123458f4148b00f4a9ff591c741b0a307b68c7a", "asm": "00142123458f4148b00f4a9ff591c741b0a307b68c7a"}, "vout": 1, "txid": "ec312f25780ced42e2e979f8d28c0f6296d626b7908a92533866d7d4a460bbd0"}], "txid": "f2729f9eb3b86a391bb1cc4007364849a64e806f28aaaeddd996261523df9519", "blocktime": 1537873282, "version": 2, "confirmations": 11480, "time": 1537873282, "locktime": 542910, "vsize": 168, "size": 249}