{"hash": "f27e4296b2a26098278671fbec0ae24a3e0bc2f76d9d26238b67ca4051858a7d", "blockhash": "00000000000000000017f5eb5941039fbcee6240d03bc1f2f8e35350df66a1d8", "vout": [{"scriptPubKey": {"reqSigs": 1, "hex": "76a91499a8ba2c51373f9fcdafc90d2dab6e762e73191688ac", "addresses": ["1F1UWizxasZRMA5B2aghuCWbxwX1xkQkU1"], "asm": "OP_DUP OP_HASH160 99a8ba2c51373f9fcdafc90d2dab6e762e731916 OP_EQUALVERIFY OP_CHECKSIG", "type": "pubkeyhash"}, "value": 0.00113987, "n": 0}], "hex": "01000000014caec0b35c23c3357a6db56a029059d41cb15e7f12da91f14e959a34ae5a9321000000006a4730440220363645598748066c49b1c0cd0fa3f429e616c9361d1c3a74a894d19639ff1f130220384dfe57853120ddc285709b4c0d76f9345fb6e13d587dccfbe3c9f7297ae17c0121032cf5e80b81e41563329a407ebad2e6d2ef041284b74c05531fe54bb01e7ba3d3ffffffff0143bd0100000000001976a91499a8ba2c51373f9fcdafc90d2dab6e762e73191688ac00000000", "vin": [{"sequence": 4294967295, "scriptSig": {"hex": "4730440220363645598748066c49b1c0cd0fa3f429e616c9361d1c3a74a894d19639ff1f130220384dfe57853120ddc285709b4c0d76f9345fb6e13d587dccfbe3c9f7297ae17c0121032cf5e80b81e41563329a407ebad2e6d2ef041284b74c05531fe54bb01e7ba3d3", "asm": "30440220363645598748066c49b1c0cd0fa3f429e616c9361d1c3a74a894d19639ff1f130220384dfe57853120ddc285709b4c0d76f9345fb6e13d587dccfbe3c9f7297ae17c[ALL] 032cf5e80b81e41563329a407ebad2e6d2ef041284b74c05531fe54bb01e7ba3d3"}, "vout": 0, "txid": "21935aae349a954ef191da127f5eb11cd45990026ab56d7a35c3235cb3c0ae4c"}], "txid": "f27e4296b2a26098278671fbec0ae24a3e0bc2f76d9d26238b67ca4051858a7d", "blocktime": 1537874412, "version": 1, "confirmations": 11468, "time": 1537874412, "locktime": 0, "vsize": 191, "size": 191}