{"hash": "f280e3e8d849ca7b498b847ba966908b734a924924efbf01e2d5cd6528724dbd", "blockhash": "0000000000000000000e13cef7c366c0283d82e591d1acd082e914b08063cdf1", "vout": [{"scriptPubKey": {"type": "nulldata", "hex": "6a4c50000077a20001724455df2a838b0683ae37e8af6c953dd567cf27e7e3ef3236678a625097a3030b8025379696c9fb6f4f6c68466e5baa0e8d0614adbfbdeec81dbc9a9526289ac0f6612cd74e33776ee4", "asm": "OP_RETURN 000077a20001724455df2a838b0683ae37e8af6c953dd567cf27e7e3ef3236678a625097a3030b8025379696c9fb6f4f6c68466e5baa0e8d0614adbfbdeec81dbc9a9526289ac0f6612cd74e33776ee4"}, "value": 0.0, "n": 0}, {"scriptPubKey": {"reqSigs": 1, "hex": "76a9141295617fdff21220dd547121fe4502d13dd0968088ac", "addresses": ["12hG7cnCJfjNS7GvtZkqABDj618dJoBVVU"], "asm": "OP_DUP OP_HASH160 1295617fdff21220dd547121fe4502d13dd09680 OP_EQUALVERIFY OP_CHECKSIG", "type": "pubkeyhash"}, "value": 0.0009952, "n": 1}], "hex": "010000000168bff4c367e01883df03e7395f98862c6bc18fa1745f6199f88534a5e21dc3b6010000006b483045022100fa83586e63741b2967100173e2a9375a9e498fbe87f4dd5897e118a86efa0af602200928dd8e658e867fcc5fc557c6ef0bab3cc8ae8844d97f9c864d4c8afc6f13ec0121024e89663dad33d7a06ad0f53677d06a9a9c280f1271da02563c17285a5134fd36ffffffff020000000000000000536a4c50000077a20001724455df2a838b0683ae37e8af6c953dd567cf27e7e3ef3236678a625097a3030b8025379696c9fb6f4f6c68466e5baa0e8d0614adbfbdeec81dbc9a9526289ac0f6612cd74e33776ee4c0840100000000001976a9141295617fdff21220dd547121fe4502d13dd0968088ac00000000", "vin": [{"sequence": 4294967295, "scriptSig": {"hex": "483045022100fa83586e63741b2967100173e2a9375a9e498fbe87f4dd5897e118a86efa0af602200928dd8e658e867fcc5fc557c6ef0bab3cc8ae8844d97f9c864d4c8afc6f13ec0121024e89663dad33d7a06ad0f53677d06a9a9c280f1271da02563c17285a5134fd36", "asm": "3045022100fa83586e63741b2967100173e2a9375a9e498fbe87f4dd5897e118a86efa0af602200928dd8e658e867fcc5fc557c6ef0bab3cc8ae8844d97f9c864d4c8afc6f13ec[ALL] 024e89663dad33d7a06ad0f53677d06a9a9c280f1271da02563c17285a5134fd36"}, "vout": 1, "txid": "b6c31de2a53485f899615f74a18fc16b2c86985f39e703df8318e067c3f4bf68"}], "txid": "f280e3e8d849ca7b498b847ba966908b734a924924efbf01e2d5cd6528724dbd", "blocktime": 1537871767, "version": 1, "confirmations": 11493, "time": 1537871767, "locktime": 0, "vsize": 284, "size": 284}