{"hash": "00518fd1b2eb1c001c79c112019f66bdedb3840b216444ef51bf78dfa2c6f98a", "blockhash": "0000000000000000000baef3f32e3676a92c3b2e5da21b426e4f302fc371ce76", "vout": [{"scriptPubKey": {"reqSigs": 1, "hex": "a9149827794f8e726ef90d2667c93059f0cf2a8d407c87", "addresses": ["3FZXvPqZBJunBdjqxiFky5jWJ9beaDFzNZ"], "asm": "OP_HASH160 9827794f8e726ef90d2667c93059f0cf2a8d407c OP_EQUAL", "type": "scripthash"}, "value": 0.26584016, "n": 0}, {"scriptPubKey": {"reqSigs": 1, "hex": "a914cfaabfe8c271f99a4364b5197ba50c6cddb7adb987", "addresses": ["3Ld4M9RPwEG3VeQbHcC1PsKUndQL7VYLZP"], "asm": "OP_HASH160 cfaabfe8c271f99a4364b5197ba50c6cddb7adb9 OP_EQUAL", "type": "scripthash"}, "value": 0.04361185, "n": 1}], "hex": "0100000000010319f0b28b771ba5d02018ad0015049369a2062ab598433d543b83cda127cb9bab01000000232200202f7b4024602241b47d3306a6733d9889e4b6761d9f1cb82a18aa8b9ac4506e51ffffffff970f31aa0a0d9ba60f16493dd626c9b4452725298d523f2dbf8c6ea44fd0fc7201000000232200202f7b4024602241b47d3306a6733d9889e4b6761d9f1cb82a18aa8b9ac4506e51fffffffffb88f9a1376db93877f65139269a97643f88f7d2be88b591f05904e1b6f31d5501000000232200202f7b4024602241b47d3306a6733d9889e4b6761d9f1cb82a18aa8b9ac4506e51ffffffff02d0a395010000000017a9149827794f8e726ef90d2667c93059f0cf2a8d407c87e18b42000000000017a914cfaabfe8c271f99a4364b5197ba50c6cddb7adb98704004730440220534aab3509eb85cf8beaece6b799cef1f09c73e0f391f5ee464f699750d7df3c02203b88d1505fe3161b48fd85fa969cdfdbe40e9f8f284212a784da2a6d1a1bc7eb0147304402201d1596950bc1d567a428017e991fcad4fd97671afc4d44cdc5ae1c5f0027eba602205a33739fa966dc81ce3fc9811d32ba4cd48d1a2cc67d10787ff77b1920c8684c0147522102973cd851fecff3a20f08377b072729f303801eee1b7678668338adcaec770ec221033e4af03ed09dbd8a417ba042650d5bd1db7f14f271a8f660974e3abf1fdfa4da52ae0400483045022100cb0cddf49c804384a1b52b9f9138dcb201c647eff06156e89619ff035865524e022009065009f6ac3a10fa9d35a5c90a781577145f711ecf5b1988904a5a076aa97f014830450221008e9b6bc6cf99f66219ed027b35e6a1167de656e01326d831a0cce11805ff1837022062da852c32a5fc06d84cad03e11a55d2111b69bbc67b4ff095f3dc20eb19a1430147522102973cd851fecff3a20f08377b072729f303801eee1b7678668338adcaec770ec221033e4af03ed09dbd8a417ba042650d5bd1db7f14f271a8f660974e3abf1fdfa4da52ae04004830450221009075fc955005a146ae646676ec5a886d1a6085d8eeade9dda383c5a73f178dfa02200cda4a6f0efe9d2c518adfc2dab38883734cdd91a6df0e74f7ff7079170fd8d501483045022100d6695f4c7d9294db9becfb20ca7a3312f1f98c267e6572d6d6ab8df88c2b7ff4022062ba07b08592fd91e16321b9b9233894cf8a7d10baf00bdf5258fa9b6a4dba410147522102973cd851fecff3a20f08377b072729f303801eee1b7678668338adcaec770ec221033e4af03ed09dbd8a417ba042650d5bd1db7f14f271a8f660974e3abf1fdfa4da52ae00000000", "vin": [{"txinwitness": ["", "30440220534aab3509eb85cf8beaece6b799cef1f09c73e0f391f5ee464f699750d7df3c02203b88d1505fe3161b48fd85fa969cdfdbe40e9f8f284212a784da2a6d1a1bc7eb01", "304402201d1596950bc1d567a428017e991fcad4fd97671afc4d44cdc5ae1c5f0027eba602205a33739fa966dc81ce3fc9811d32ba4cd48d1a2cc67d10787ff77b1920c8684c01", "522102973cd851fecff3a20f08377b072729f303801eee1b7678668338adcaec770ec221033e4af03ed09dbd8a417ba042650d5bd1db7f14f271a8f660974e3abf1fdfa4da52ae"], "sequence": 4294967295, "scriptSig": {"hex": "2200202f7b4024602241b47d3306a6733d9889e4b6761d9f1cb82a18aa8b9ac4506e51", "asm": "00202f7b4024602241b47d3306a6733d9889e4b6761d9f1cb82a18aa8b9ac4506e51"}, "vout": 1, "txid": "ab9bcb27a1cd833b543d4398b52a06a26993041500ad1820d0a51b778bb2f019"}, {"txinwitness": ["", "3045022100cb0cddf49c804384a1b52b9f9138dcb201c647eff06156e89619ff035865524e022009065009f6ac3a10fa9d35a5c90a781577145f711ecf5b1988904a5a076aa97f01", "30450221008e9b6bc6cf99f66219ed027b35e6a1167de656e01326d831a0cce11805ff1837022062da852c32a5fc06d84cad03e11a55d2111b69bbc67b4ff095f3dc20eb19a14301", "522102973cd851fecff3a20f08377b072729f303801eee1b7678668338adcaec770ec221033e4af03ed09dbd8a417ba042650d5bd1db7f14f271a8f660974e3abf1fdfa4da52ae"], "sequence": 4294967295, "scriptSig": {"hex": "2200202f7b4024602241b47d3306a6733d9889e4b6761d9f1cb82a18aa8b9ac4506e51", "asm": "00202f7b4024602241b47d3306a6733d9889e4b6761d9f1cb82a18aa8b9ac4506e51"}, "vout": 1, "txid": "72fcd04fa46e8cbf2d3f528d29252745b4c926d63d49160fa69b0d0aaa310f97"}, {"txinwitness": ["", "30450221009075fc955005a146ae646676ec5a886d1a6085d8eeade9dda383c5a73f178dfa02200cda4a6f0efe9d2c518adfc2dab38883734cdd91a6df0e74f7ff7079170fd8d501", "3045022100d6695f4c7d9294db9becfb20ca7a3312f1f98c267e6572d6d6ab8df88c2b7ff4022062ba07b08592fd91e16321b9b9233894cf8a7d10baf00bdf5258fa9b6a4dba4101", "522102973cd851fecff3a20f08377b072729f303801eee1b7678668338adcaec770ec221033e4af03ed09dbd8a417ba042650d5bd1db7f14f271a8f660974e3abf1fdfa4da52ae"], "sequence": 4294967295, "scriptSig": {"hex": "2200202f7b4024602241b47d3306a6733d9889e4b6761d9f1cb82a18aa8b9ac4506e51", "asm": "00202f7b4024602241b47d3306a6733d9889e4b6761d9f1cb82a18aa8b9ac4506e51"}, "vout": 1, "txid": "551df3b6e10459f091b588bed2f7883f64979a263951f67738b96d37a1f988fb"}], "txid": "f285bde4ed39b9acc8cc1757b7f87a6b2c098abd620dc7757b861408ba31a579", "blocktime": 1537876114, "version": 1, "confirmations": 11462, "time": 1537876114, "locktime": 0, "vsize": 467, "size": 962}