{"hash": "eac85db7e079e9ab34b748df28e365fac6869c6e183de5c474afc3cfdf8a7f1f", "blockhash": "00000000000000000017f5eb5941039fbcee6240d03bc1f2f8e35350df66a1d8", "vout": [{"scriptPubKey": {"reqSigs": 1, "hex": "a91492c749f0285eac07f62742ea31a8d157e970f89687", "addresses": ["3F57KP3ytPvZ54FKyVRA8tFqXjbBDbyjzx"], "asm": "OP_HASH160 92c749f0285eac07f62742ea31a8d157e970f896 OP_EQUAL", "type": "scripthash"}, "value": 0.013, "n": 0}], "hex": "02000000000101440407de4c32dad1410ce05643dc43b2976089685ab8227d768b54d13c273be40000000017160014ab636c3a0a7f8c70ce9c14dded1883e5c1aaa9c9000000000120d613000000000017a91492c749f0285eac07f62742ea31a8d157e970f89687024830450221008cf4239df67d1a59cde17643e8a010b5f0d091d24426fc794ed3734f2c00986802201ec4f720e9ea7cf1a5ed8191b7bdd24d33fcc5e84241b58f96511d2595115a62012103b6f2f2875001af3f98ed62b1056aeb6c8dcbc155e76d207aec87c1a1ea57821f00000000", "vin": [{"txinwitness": ["30450221008cf4239df67d1a59cde17643e8a010b5f0d091d24426fc794ed3734f2c00986802201ec4f720e9ea7cf1a5ed8191b7bdd24d33fcc5e84241b58f96511d2595115a6201", "03b6f2f2875001af3f98ed62b1056aeb6c8dcbc155e76d207aec87c1a1ea57821f"], "sequence": 0, "scriptSig": {"hex": "160014ab636c3a0a7f8c70ce9c14dded1883e5c1aaa9c9", "asm": "0014ab636c3a0a7f8c70ce9c14dded1883e5c1aaa9c9"}, "vout": 0, "txid": "e43b273cd1548b767d22b85a68896097b243dc4356e00c41d1da324cde070444"}], "txid": "f2897ea56468b1eff6960e506d1a381ae38d66bc9c07d5badb927c3f4ed5b98d", "blocktime": 1537874412, "version": 2, "confirmations": 11466, "time": 1537874412, "locktime": 0, "vsize": 134, "size": 216}