{"hash": "f28c6a7e3ec78014be61f5da6f113e879491583f6246d4507d06c37074173836", "blockhash": "0000000000000000001cda96e906b7601b7a6fb1a3b62bca570a9e5d8f4b3de1", "vout": [{"scriptPubKey": {"reqSigs": 1, "hex": "76a914d243e6abb9a60fbff430b421d2df4b7d59ec186088ac", "addresses": ["1LAnF8h3qMGx3TSwNUHVneBZUEpwE4gu3D"], "asm": "OP_DUP OP_HASH160 d243e6abb9a60fbff430b421d2df4b7d59ec1860 OP_EQUALVERIFY OP_CHECKSIG", "type": "pubkeyhash"}, "value": 0.00083976, "n": 0}, {"scriptPubKey": {"reqSigs": 1, "hex": "76a9143851f34d13937b673a7d24a1950bb5b21ce94af388ac", "addresses": ["168o1kqNquEJeR9vosUB5fw4eAwcVAgh8P"], "asm": "OP_DUP OP_HASH160 3851f34d13937b673a7d24a1950bb5b21ce94af3 OP_EQUALVERIFY OP_CHECKSIG", "type": "pubkeyhash"}, "value": 5.46e-06, "n": 1}, {"scriptPubKey": {"type": "nulldata", "hex": "6a146f6d6e69000000000000001f0000007c0d5ad000", "asm": "OP_RETURN 6f6d6e69000000000000001f0000007c0d5ad000"}, "value": 0.0, "n": 2}], "hex": "0100000002ad88c84c7574dc5b0fdfb5f4877b2a4da3592b67ee46fd15ef0cb6a06114808c010000006b483045022100e5a9003cea85ffff111ee7f02371f22e571a14e680ddd7f16f4915a23d5ee8b902201302d5488794cda4a91f76e903b2cb33bb7bdbde4a8900486100760856e8baaf0121036df9277da3c36bb949d4de62e2903298a225cdc6f4011734694bbe376392dbccffffffff12fdd0cf0cc2a9a1d91b9f52a717e238a3cb62bfe21fe9d39eaf1541fd9135e9000000006b483045022100bd66922924f93ca7be853569117fb9373140ee8b55b103a66428c7b003fc0d5802204876649f23d52e8e8753681a6cf9b6e1b7975be807614430e0f304f59a0f5e8701210271977291b74f1f5f5c42157e8aae804664eaaeccfd097918450d37f28fb94d77ffffffff0308480100000000001976a914d243e6abb9a60fbff430b421d2df4b7d59ec186088ac22020000000000001976a9143851f34d13937b673a7d24a1950bb5b21ce94af388ac0000000000000000166a146f6d6e69000000000000001f0000007c0d5ad00000000000", "vin": [{"sequence": 4294967295, "scriptSig": {"hex": "483045022100e5a9003cea85ffff111ee7f02371f22e571a14e680ddd7f16f4915a23d5ee8b902201302d5488794cda4a91f76e903b2cb33bb7bdbde4a8900486100760856e8baaf0121036df9277da3c36bb949d4de62e2903298a225cdc6f4011734694bbe376392dbcc", "asm": "3045022100e5a9003cea85ffff111ee7f02371f22e571a14e680ddd7f16f4915a23d5ee8b902201302d5488794cda4a91f76e903b2cb33bb7bdbde4a8900486100760856e8baaf[ALL] 036df9277da3c36bb949d4de62e2903298a225cdc6f4011734694bbe376392dbcc"}, "vout": 1, "txid": "8c801461a0b60cef15fd46ee672b59a34d2a7b87f4b5df0f5bdc74754cc888ad"}, {"sequence": 4294967295, "scriptSig": {"hex": "483045022100bd66922924f93ca7be853569117fb9373140ee8b55b103a66428c7b003fc0d5802204876649f23d52e8e8753681a6cf9b6e1b7975be807614430e0f304f59a0f5e8701210271977291b74f1f5f5c42157e8aae804664eaaeccfd097918450d37f28fb94d77", "asm": "3045022100bd66922924f93ca7be853569117fb9373140ee8b55b103a66428c7b003fc0d5802204876649f23d52e8e8753681a6cf9b6e1b7975be807614430e0f304f59a0f5e87[ALL] 0271977291b74f1f5f5c42157e8aae804664eaaeccfd097918450d37f28fb94d77"}, "vout": 0, "txid": "e93591fd4115af9ed3e91fe2bf62cba338e217a7529f1bd9a1a9c20ccfd0fd12"}], "txid": "f28c6a7e3ec78014be61f5da6f113e879491583f6246d4507d06c37074173836", "blocktime": 1537873282, "version": 1, "confirmations": 11483, "time": 1537873282, "locktime": 0, "vsize": 405, "size": 405}