{"hash": "f292d720f57b638cb77300fd771233fdb59c9b3dadc56d6b0e6a2b480857f2c6", "blockhash": "0000000000000000001e0dab787dd257d1dbfcb92a98c2207d5e1078be1f4165", "vout": [{"scriptPubKey": {"reqSigs": 1, "hex": "a914ba0b8f88e91eb957aec72e11a688e990a68013cc87", "addresses": ["3JejTUUbdBy5x7jCDZ1vqhkqYqgZxCd2RC"], "asm": "OP_HASH160 ba0b8f88e91eb957aec72e11a688e990a68013cc OP_EQUAL", "type": "scripthash"}, "value": 0.0032086, "n": 0}, {"scriptPubKey": {"reqSigs": 1, "hex": "76a914ce311a122fd5b7b33afb74b1db0d1f42c479111a88ac", "addresses": ["1KoF2B22sQnQc8wECDkTTf838berzNexG3"], "asm": "OP_DUP OP_HASH160 ce311a122fd5b7b33afb74b1db0d1f42c479111a OP_EQUALVERIFY OP_CHECKSIG", "type": "pubkeyhash"}, "value": 0.06001619, "n": 1}], "hex": "01000000012c2ab557e17313ec91fc2ada360b6a0fba7a4024f8cf1dcb907d950712d13cdf010000006b48304502210090aff38f7e7386ef58096c4d59c7cd6e1a959184aeece8d43a0e6ec2d8ef35f6022032ffa1b1bb5d77d27b2f397187243c07e2f4885b982841721b81fd45880a6d91012102695dd095723bfdba8d35aa43cce7209316654bba3d92cee56fb707f5bbd56688ffffffff025ce504000000000017a914ba0b8f88e91eb957aec72e11a688e990a68013cc87d3935b00000000001976a914ce311a122fd5b7b33afb74b1db0d1f42c479111a88ac00000000", "vin": [{"sequence": 4294967295, "scriptSig": {"hex": "48304502210090aff38f7e7386ef58096c4d59c7cd6e1a959184aeece8d43a0e6ec2d8ef35f6022032ffa1b1bb5d77d27b2f397187243c07e2f4885b982841721b81fd45880a6d91012102695dd095723bfdba8d35aa43cce7209316654bba3d92cee56fb707f5bbd56688", "asm": "304502210090aff38f7e7386ef58096c4d59c7cd6e1a959184aeece8d43a0e6ec2d8ef35f6022032ffa1b1bb5d77d27b2f397187243c07e2f4885b982841721b81fd45880a6d91[ALL] 02695dd095723bfdba8d35aa43cce7209316654bba3d92cee56fb707f5bbd56688"}, "vout": 1, "txid": "df3cd11207957d90cb1dcff824407aba0f6a0b36da2afc91ec1373e157b52a2c"}], "txid": "f292d720f57b638cb77300fd771233fdb59c9b3dadc56d6b0e6a2b480857f2c6", "blocktime": 1537872475, "version": 1, "confirmations": 11486, "time": 1537872475, "locktime": 0, "vsize": 224, "size": 224}