{"hash": "f2930a2843ad64c33ebdd3b6273d9f92e5c72a458a5ca01ec13a47577713c8b7", "blockhash": "0000000000000000001cda96e906b7601b7a6fb1a3b62bca570a9e5d8f4b3de1", "vout": [{"scriptPubKey": {"reqSigs": 1, "hex": "a91477f437dfee50de293c482df417d322334be86f9f87", "addresses": ["3CdGtxGrFmpD9xpvR8ehXccPTj76f5X9cG"], "asm": "OP_HASH160 77f437dfee50de293c482df417d322334be86f9f OP_EQUAL", "type": "scripthash"}, "value": 0.05045, "n": 0}, {"scriptPubKey": {"reqSigs": 1, "hex": "76a9148f75947668959365ecd13b07eccb5e382f9e9c8188ac", "addresses": ["1E5YV2fKU2eSha8nSgoUshZHvWsDuX5gCJ"], "asm": "OP_DUP OP_HASH160 8f75947668959365ecd13b07eccb5e382f9e9c81 OP_EQUALVERIFY OP_CHECKSIG", "type": "pubkeyhash"}, "value": 0.00083848, "n": 1}], "hex": "0100000001f7b5f016728d761cc47ccf894ee28fa8c9452c8b5f5488ebdff0a753a78d4fd1170000006a473044022045eea5c92bef691bd9d49feb49636adcbe32f3aa9c6e9df723758224279a46ba022016c7159ca1ac1d100476ca428f72baa887981bc46aa4eef82f3e214e7900559501210300fb9d6836553c7560d70a9a80b7a4637227059de0466e0e81730b004757c4faffffffff0208fb4c000000000017a91477f437dfee50de293c482df417d322334be86f9f8788470100000000001976a9148f75947668959365ecd13b07eccb5e382f9e9c8188ac00000000", "vin": [{"sequence": 4294967295, "scriptSig": {"hex": "473044022045eea5c92bef691bd9d49feb49636adcbe32f3aa9c6e9df723758224279a46ba022016c7159ca1ac1d100476ca428f72baa887981bc46aa4eef82f3e214e7900559501210300fb9d6836553c7560d70a9a80b7a4637227059de0466e0e81730b004757c4fa", "asm": "3044022045eea5c92bef691bd9d49feb49636adcbe32f3aa9c6e9df723758224279a46ba022016c7159ca1ac1d100476ca428f72baa887981bc46aa4eef82f3e214e79005595[ALL] 0300fb9d6836553c7560d70a9a80b7a4637227059de0466e0e81730b004757c4fa"}, "vout": 23, "txid": "d14f8da753a7f0dfeb88545f8b2c45c9a88fe24e89cf7cc41c768d7216f0b5f7"}], "txid": "f2930a2843ad64c33ebdd3b6273d9f92e5c72a458a5ca01ec13a47577713c8b7", "blocktime": 1537873282, "version": 1, "confirmations": 11481, "time": 1537873282, "locktime": 0, "vsize": 223, "size": 223}