{"hash": "f296ece61c1a3ba7c2dccfb2784a0d6e598bfee96c6af0e793d0b6d0aea90d1c", "blockhash": "0000000000000000000dcc0f55137456b1a82d3642486a52398922ac4d620174", "vout": [{"scriptPubKey": {"reqSigs": 1, "hex": "76a9147cda8c3a830b48f6bc9359c4588444226afb4b6e88ac", "addresses": ["1CPAbkd2tVFghZ6Kw7yTov7tYupeRy1e4V"], "asm": "OP_DUP OP_HASH160 7cda8c3a830b48f6bc9359c4588444226afb4b6e OP_EQUALVERIFY OP_CHECKSIG", "type": "pubkeyhash"}, "value": 0.03825322, "n": 0}], "hex": "01000000018f931930e72b971c9a219eec8d6ddd69a3fa54fcd8763624c7616117bf69ebf6080000006a47304402200ddc4492f3c69df615b78c088d91c755ecc4b07c38c33ebbb09e95b3d5e2e39e02204da53203d55c229ad3abe41a0eb9d61fc8e48eb3312b0aba6d01012211f205af012103ed5b8035295aec814cdd90f2957e9b3c578187dd3d572d2a8313ec6dc50d7cadffffffff01aa5e3a00000000001976a9147cda8c3a830b48f6bc9359c4588444226afb4b6e88ac00000000", "vin": [{"sequence": 4294967295, "scriptSig": {"hex": "47304402200ddc4492f3c69df615b78c088d91c755ecc4b07c38c33ebbb09e95b3d5e2e39e02204da53203d55c229ad3abe41a0eb9d61fc8e48eb3312b0aba6d01012211f205af012103ed5b8035295aec814cdd90f2957e9b3c578187dd3d572d2a8313ec6dc50d7cad", "asm": "304402200ddc4492f3c69df615b78c088d91c755ecc4b07c38c33ebbb09e95b3d5e2e39e02204da53203d55c229ad3abe41a0eb9d61fc8e48eb3312b0aba6d01012211f205af[ALL] 03ed5b8035295aec814cdd90f2957e9b3c578187dd3d572d2a8313ec6dc50d7cad"}, "vout": 8, "txid": "f6eb69bf176161c7243676d8fc54faa369dd6d8dec9e219a1c972be73019938f"}], "txid": "f296ece61c1a3ba7c2dccfb2784a0d6e598bfee96c6af0e793d0b6d0aea90d1c", "blocktime": 1537870268, "version": 1, "confirmations": 11516, "time": 1537870268, "locktime": 0, "vsize": 191, "size": 191}