{"hash": "17dbf1719aafb3a4fd7bddb41dd182922b9d4cfc3d5a4ee1fdebbf8de5b1175e", "blockhash": "0000000000000000001f76057863aec43deb6fa401d9628bb513d65a8098bfab", "vout": [{"scriptPubKey": {"reqSigs": 1, "hex": "a914c8948f84ab8bc2187580e4fb86ecf2a0a06e11cf87", "addresses": ["3Kyb35jwJ7YCiAF7JRfW5VZdpyywKap5YB"], "asm": "OP_HASH160 c8948f84ab8bc2187580e4fb86ecf2a0a06e11cf OP_EQUAL", "type": "scripthash"}, "value": 3.868e-05, "n": 0}, {"scriptPubKey": {"reqSigs": 1, "hex": "a9141d7370ccde4590204155e4074f69743a8e4fac0287", "addresses": ["34Njp4ZKtmCDfqqps26wHBYQQGUo2pGkLi"], "asm": "OP_HASH160 1d7370ccde4590204155e4074f69743a8e4fac02 OP_EQUAL", "type": "scripthash"}, "value": 0.00045088, "n": 1}], "hex": "01000000000101a503245f7b2ff5d3965e1faab97f688de1072a7952e36d71dd6513dda9b5ec0b0000000023220020f63dfc12340f6360d0251c22746d6b56093e3243e96ca012a65484a5d9cf0ec0ffffffff021c0f00000000000017a914c8948f84ab8bc2187580e4fb86ecf2a0a06e11cf8720b000000000000017a9141d7370ccde4590204155e4074f69743a8e4fac0287040047304402207a72e9be7e8e14aae50c523d752198b36c4c86a02fec3b397999d0b006de96f602202afc34847202b2fa7fbd53bba41b5190da6778553417bceaf19a229bb0771681014830450221009aa6052c57c2ff5df2f4e11448f8d4fe443f7291dca92a24ac5efe9879f550d902202049aff18fcf3c58c59a3243226eac945e8ccd6bba96a175f36e7836b5991f7a0147522102097067a6a0cc130a9a6f6577b47bf369b840a79de31cd7457187994266b1bb7c2103338f346cab6ba87fe940591a03ac234be06520c5ab386d4b6632e8eef0d0db7652ae00000000", "vin": [{"txinwitness": ["", "304402207a72e9be7e8e14aae50c523d752198b36c4c86a02fec3b397999d0b006de96f602202afc34847202b2fa7fbd53bba41b5190da6778553417bceaf19a229bb077168101", "30450221009aa6052c57c2ff5df2f4e11448f8d4fe443f7291dca92a24ac5efe9879f550d902202049aff18fcf3c58c59a3243226eac945e8ccd6bba96a175f36e7836b5991f7a01", "522102097067a6a0cc130a9a6f6577b47bf369b840a79de31cd7457187994266b1bb7c2103338f346cab6ba87fe940591a03ac234be06520c5ab386d4b6632e8eef0d0db7652ae"], "sequence": 4294967295, "scriptSig": {"hex": "220020f63dfc12340f6360d0251c22746d6b56093e3243e96ca012a65484a5d9cf0ec0", "asm": "0020f63dfc12340f6360d0251c22746d6b56093e3243e96ca012a65484a5d9cf0ec0"}, "vout": 0, "txid": "0becb5a9dd1365dd716de352792a07e18d687fb9aa1f5e96d3f52f7b5f2403a5"}], "txid": "f2979be10637e2566986a4b7a708d2c91b19e18bd3323bb02109a99813311258", "blocktime": 1537873891, "version": 1, "confirmations": 11478, "time": 1537873891, "locktime": 0, "vsize": 206, "size": 371}