{"hash": "f29efbcc0596686d204ca40949041bc695dbbbec5bb58064095dc3cf2a256063", "blockhash": "0000000000000000001cda96e906b7601b7a6fb1a3b62bca570a9e5d8f4b3de1", "vout": [{"scriptPubKey": {"reqSigs": 1, "hex": "76a914250852a281dd9fd7f4d743be99ffa5b1d20b311b88ac", "addresses": ["14NoyNn4LYfeQNhJL914JDfxDakpGbiyey"], "asm": "OP_DUP OP_HASH160 250852a281dd9fd7f4d743be99ffa5b1d20b311b OP_EQUALVERIFY OP_CHECKSIG", "type": "pubkeyhash"}, "value": 0.01681, "n": 0}], "hex": "01000000013a942f3074df728a3c59991173d7045f903c6ae84054a338f8539a0305d61def000000006a473044022035b69a20e8c6ffafd254ca8f793d05af6890677e0ddcbc943996e6fd1ad927310220124c4ba16490128f06176f0cc7ba389b0c668516d36f063ec819141451560087012103fdafc98378e4d48200940394ef75a182075624a2862d0ec8e7146b74c4271ebaffffffff0168a61900000000001976a914250852a281dd9fd7f4d743be99ffa5b1d20b311b88ac00000000", "vin": [{"sequence": 4294967295, "scriptSig": {"hex": "473044022035b69a20e8c6ffafd254ca8f793d05af6890677e0ddcbc943996e6fd1ad927310220124c4ba16490128f06176f0cc7ba389b0c668516d36f063ec819141451560087012103fdafc98378e4d48200940394ef75a182075624a2862d0ec8e7146b74c4271eba", "asm": "3044022035b69a20e8c6ffafd254ca8f793d05af6890677e0ddcbc943996e6fd1ad927310220124c4ba16490128f06176f0cc7ba389b0c668516d36f063ec819141451560087[ALL] 03fdafc98378e4d48200940394ef75a182075624a2862d0ec8e7146b74c4271eba"}, "vout": 0, "txid": "ef1dd605039a53f838a35440e86a3c905f04d7731199593c8a72df74302f943a"}], "txid": "f29efbcc0596686d204ca40949041bc695dbbbec5bb58064095dc3cf2a256063", "blocktime": 1537873282, "version": 1, "confirmations": 11480, "time": 1537873282, "locktime": 0, "vsize": 191, "size": 191}