{"hash": "ce704f1b71808da6571855a1d0f05cdb00ca5f44f251af6b492d6af1dc8f8c38", "blockhash": "0000000000000000001cda96e906b7601b7a6fb1a3b62bca570a9e5d8f4b3de1", "vout": [{"scriptPubKey": {"reqSigs": 1, "hex": "76a914bae64a6c4f463765d08d5bf3e5351a420de4295188ac", "addresses": ["1J3EZZUNv9XNFuvFz6B6UwRyzyVZDohoah"], "asm": "OP_DUP OP_HASH160 bae64a6c4f463765d08d5bf3e5351a420de42951 OP_EQUALVERIFY OP_CHECKSIG", "type": "pubkeyhash"}, "value": 0.0022876, "n": 0}, {"scriptPubKey": {"reqSigs": 1, "hex": "a914701185f7e7dd718b90887fdea539e5588cb87c3187", "addresses": ["3Buaba1c41p3wra73EwUaVGLYaKP8BD5yY"], "asm": "OP_HASH160 701185f7e7dd718b90887fdea539e5588cb87c31 OP_EQUAL", "type": "scripthash"}, "value": 0.00999314, "n": 1}], "hex": "0200000000010266b59140a9c683683094a5b27a43cbec611ae88e91fe3a8bd186a56f604e47780000000017160014a7530fd6191d55c0cd2df07f14a1082e4f208bdcfeffffffaa89e2038d7485d20bd938040038a07fe8c274bd1a4508cfb7c5f62688d34fb701000000171600144429914d5378dc1efeff9796451446cefb99ca5bfeffffff02987d0300000000001976a914bae64a6c4f463765d08d5bf3e5351a420de4295188ac923f0f000000000017a914701185f7e7dd718b90887fdea539e5588cb87c318702483045022100d1e45b36e52b43125d3a7891743c21d180a3d3aa041b8a5c7ce4429495d89c9702206bf872743c33258088b92b9c375c4e1f3c7bb6a2325fb1a0edb107f5c15ae7840121026f49e79d7ae5d53c8c02c6910218ad5244c883f45baa194b28fcbcb6260633c302483045022100a0fde66bcff8bd923ee98fb7b86dfb09cc9a4bac88afcfc2131a0183f87a83c002207342b0e10286a7f447fdaef97290867451e299d40b99fc88bd56a74c8d423c4f012103a3de8875b8724c5ab05e24c4fe3170032de47b06ee349216dd71258e2f9ca9a713490800", "vin": [{"txinwitness": ["3045022100d1e45b36e52b43125d3a7891743c21d180a3d3aa041b8a5c7ce4429495d89c9702206bf872743c33258088b92b9c375c4e1f3c7bb6a2325fb1a0edb107f5c15ae78401", "026f49e79d7ae5d53c8c02c6910218ad5244c883f45baa194b28fcbcb6260633c3"], "sequence": 4294967294, "scriptSig": {"hex": "160014a7530fd6191d55c0cd2df07f14a1082e4f208bdc", "asm": "0014a7530fd6191d55c0cd2df07f14a1082e4f208bdc"}, "vout": 0, "txid": "78474e606fa586d18b3afe918ee81a61eccb437ab2a594306883c6a94091b566"}, {"txinwitness": ["3045022100a0fde66bcff8bd923ee98fb7b86dfb09cc9a4bac88afcfc2131a0183f87a83c002207342b0e10286a7f447fdaef97290867451e299d40b99fc88bd56a74c8d423c4f01", "03a3de8875b8724c5ab05e24c4fe3170032de47b06ee349216dd71258e2f9ca9a7"], "sequence": 4294967294, "scriptSig": {"hex": "1600144429914d5378dc1efeff9796451446cefb99ca5b", "asm": "00144429914d5378dc1efeff9796451446cefb99ca5b"}, "vout": 1, "txid": "b74fd38826f6c5b7cf08451abd74c2e87fa038000438d90bd285748d03e289aa"}], "txid": "f2a063a12b0cff832108a8fccf5ae23ebfd059dafc91ba5878b500816798c252", "blocktime": 1537873282, "version": 2, "confirmations": 11484, "time": 1537873282, "locktime": 542995, "vsize": 259, "size": 422}