{"hash": "f2a67bd8763cb2bf44c5752bf60054039f980d0d223c631fe4538427ecc488c4", "blockhash": "00000000000000000017f5eb5941039fbcee6240d03bc1f2f8e35350df66a1d8", "vout": [{"scriptPubKey": {"reqSigs": 1, "hex": "76a914ad5cdbf712f0142f603b2a562f921027ce3d4a1788ac", "addresses": ["1Gof9AGBUcZasDz8qaP2y1EXon5qbDT8GY"], "asm": "OP_DUP OP_HASH160 ad5cdbf712f0142f603b2a562f921027ce3d4a17 OP_EQUALVERIFY OP_CHECKSIG", "type": "pubkeyhash"}, "value": 0.00404408, "n": 0}, {"scriptPubKey": {"reqSigs": 1, "hex": "76a9147faef389296810536384bf5a092262a01a5ad63e88ac", "addresses": ["1Ce8QCBFvMGsxGteTrJ4TyLoekhz9sktMe"], "asm": "OP_DUP OP_HASH160 7faef389296810536384bf5a092262a01a5ad63e OP_EQUALVERIFY OP_CHECKSIG", "type": "pubkeyhash"}, "value": 0.00013556, "n": 1}], "hex": "0100000002cb0b859bc08594044505eb8e3a03c55eb84273edb0189d8340aab58bf2b31e8100000000d900473044022017554b274b72c2b511942bb386f304c4d225204c0f9f70056c167c4023d0de1e02203dbd4a5e7fb8242eb54995668e27b94e1c5cd8b097a89d457d016c270026be8d014730440220798605607620683e6d23eff903931055b20c551bd5f50cd6149463d51a81061302207cb1a9c4f25d7ef66df8bea277650ddde46e32d18466a365722c94607831a09601475221023011b967745d6771508eafce112762df389d542e35d841183ac3a0f7b2c2ec162102907a54bed8ad74b3f35638c60114ca240a308cb986f3f2f306178869a8880b6152aeffffffffa3904781b55c57f1aa7cb7f472c39012a6ff91281ec15dc8e105a7be0e512388020000006a473044022079beb39e7a4dca28abd3d92982e0c2cacf2c639ab25a3f4d813601215ecad29502202cd62e788295c11150e99efb1f994cb68de963d5fcc7900812556143b8aecf53012102b7a6850ab3e74843b1381f6fd7de7137ab164398306b58aee5e74f11c8d53522ffffffff02b82b0600000000001976a914ad5cdbf712f0142f603b2a562f921027ce3d4a1788acf4340000000000001976a9147faef389296810536384bf5a092262a01a5ad63e88ac00000000", "vin": [{"sequence": 4294967295, "scriptSig": {"hex": "00473044022017554b274b72c2b511942bb386f304c4d225204c0f9f70056c167c4023d0de1e02203dbd4a5e7fb8242eb54995668e27b94e1c5cd8b097a89d457d016c270026be8d014730440220798605607620683e6d23eff903931055b20c551bd5f50cd6149463d51a81061302207cb1a9c4f25d7ef66df8bea277650ddde46e32d18466a365722c94607831a09601475221023011b967745d6771508eafce112762df389d542e35d841183ac3a0f7b2c2ec162102907a54bed8ad74b3f35638c60114ca240a308cb986f3f2f306178869a8880b6152ae", "asm": "0 3044022017554b274b72c2b511942bb386f304c4d225204c0f9f70056c167c4023d0de1e02203dbd4a5e7fb8242eb54995668e27b94e1c5cd8b097a89d457d016c270026be8d[ALL] 30440220798605607620683e6d23eff903931055b20c551bd5f50cd6149463d51a81061302207cb1a9c4f25d7ef66df8bea277650ddde46e32d18466a365722c94607831a096[ALL] 5221023011b967745d6771508eafce112762df389d542e35d841183ac3a0f7b2c2ec162102907a54bed8ad74b3f35638c60114ca240a308cb986f3f2f306178869a8880b6152ae"}, "vout": 0, "txid": "811eb3f28bb5aa40839d18b0ed7342b85ec5033a8eeb0545049485c09b850bcb"}, {"sequence": 4294967295, "scriptSig": {"hex": "473044022079beb39e7a4dca28abd3d92982e0c2cacf2c639ab25a3f4d813601215ecad29502202cd62e788295c11150e99efb1f994cb68de963d5fcc7900812556143b8aecf53012102b7a6850ab3e74843b1381f6fd7de7137ab164398306b58aee5e74f11c8d53522", "asm": "3044022079beb39e7a4dca28abd3d92982e0c2cacf2c639ab25a3f4d813601215ecad29502202cd62e788295c11150e99efb1f994cb68de963d5fcc7900812556143b8aecf53[ALL] 02b7a6850ab3e74843b1381f6fd7de7137ab164398306b58aee5e74f11c8d53522"}, "vout": 2, "txid": "8823510ebea705e1c85dc11e2891ffa61290c372f4b77caaf1575cb5814790a3"}], "txid": "f2a67bd8763cb2bf44c5752bf60054039f980d0d223c631fe4538427ecc488c4", "blocktime": 1537874412, "version": 1, "confirmations": 11467, "time": 1537874412, "locktime": 0, "vsize": 483, "size": 483}