{"hash": "f2a7e0dddeb447ebcb5a6daf79489b6eb841265c7b56c7b8856ae303e2adb05e", "blockhash": "0000000000000000000baef3f32e3676a92c3b2e5da21b426e4f302fc371ce76", "vout": [{"scriptPubKey": {"reqSigs": 1, "hex": "a9147204bb86241032efc0331d0298541c2c586aca5887", "addresses": ["3C5tdEVJfeCA6cCzYD5wpWfLPb7XzqqxzF"], "asm": "OP_HASH160 7204bb86241032efc0331d0298541c2c586aca58 OP_EQUAL", "type": "scripthash"}, "value": 0.00093745, "n": 0}, {"scriptPubKey": {"reqSigs": 1, "hex": "76a914a4570bfefffb18302bbe8ad9f9e1ed4566c63ce888ac", "addresses": ["1Fyx6akxsMtfkyddKPTFjvDjfotsA6L5UY"], "asm": "OP_DUP OP_HASH160 a4570bfefffb18302bbe8ad9f9e1ed4566c63ce8 OP_EQUALVERIFY OP_CHECKSIG", "type": "pubkeyhash"}, "value": 0.00607885, "n": 1}], "hex": "01000000013a54f922c734eed9ac20e876b6e79adf622f8dbd2ec70d6e35c8f6d955c5f706080000006a473044022016c3e77acbcf06146ec6be6d22dc49c1e469dd05cd13e7e915bd15bffb6cf8df0220254b1783b162c3fb2fe7d52988dcbaee8153cb0fe6437bf0744a693dab0d0334012103571597622940a9c08d07648ce37136a500253771c215c40d81251d53c95dc1d7ffffffff02316e01000000000017a9147204bb86241032efc0331d0298541c2c586aca58878d460900000000001976a914a4570bfefffb18302bbe8ad9f9e1ed4566c63ce888ac00000000", "vin": [{"sequence": 4294967295, "scriptSig": {"hex": "473044022016c3e77acbcf06146ec6be6d22dc49c1e469dd05cd13e7e915bd15bffb6cf8df0220254b1783b162c3fb2fe7d52988dcbaee8153cb0fe6437bf0744a693dab0d0334012103571597622940a9c08d07648ce37136a500253771c215c40d81251d53c95dc1d7", "asm": "3044022016c3e77acbcf06146ec6be6d22dc49c1e469dd05cd13e7e915bd15bffb6cf8df0220254b1783b162c3fb2fe7d52988dcbaee8153cb0fe6437bf0744a693dab0d0334[ALL] 03571597622940a9c08d07648ce37136a500253771c215c40d81251d53c95dc1d7"}, "vout": 8, "txid": "06f7c555d9f6c8356e0dc72ebd8d2f62df9ae7b676e820acd9ee34c722f9543a"}], "txid": "f2a7e0dddeb447ebcb5a6daf79489b6eb841265c7b56c7b8856ae303e2adb05e", "blocktime": 1537876114, "version": 1, "confirmations": 11460, "time": 1537876114, "locktime": 0, "vsize": 223, "size": 223}