{"hash": "f2a8a5b659bfd442f56b00e7d1d08b697a12067e31fca83cb70d1e0dd941a7b4", "blockhash": "0000000000000000001cda96e906b7601b7a6fb1a3b62bca570a9e5d8f4b3de1", "vout": [{"scriptPubKey": {"reqSigs": 1, "hex": "a914d6033e6ec6d0a23d1e777563c9ac004cc8a45ac487", "addresses": ["3MCcQz2amz8bqio8UbsBMKQKEb1UqXgvuV"], "asm": "OP_HASH160 d6033e6ec6d0a23d1e777563c9ac004cc8a45ac4 OP_EQUAL", "type": "scripthash"}, "value": 0.06809324, "n": 0}, {"scriptPubKey": {"reqSigs": 1, "hex": "76a914e47268333c11b0eae3a42fe38f11ce2984e8311588ac", "addresses": ["1Mpv7st7Eb4uX1FwthQtu5KqYJC2g4ykzk"], "asm": "OP_DUP OP_HASH160 e47268333c11b0eae3a42fe38f11ce2984e83115 OP_EQUALVERIFY OP_CHECKSIG", "type": "pubkeyhash"}, "value": 0.06939067, "n": 1}, {"scriptPubKey": {"reqSigs": 1, "hex": "76a914f61d092200f90de8ea46b6544f2a52bb8e13b9be88ac", "addresses": ["1PSL1dDLfpJavnXm5iHTGK4vNuMBGZp2wN"], "asm": "OP_DUP OP_HASH160 f61d092200f90de8ea46b6544f2a52bb8e13b9be OP_EQUALVERIFY OP_CHECKSIG", "type": "pubkeyhash"}, "value": 0.0003982, "n": 2}], "hex": "010000000116c49d35866c8e22c452a985df318170abe038457e6bcdca74231e0421eae0d300000000da00483045022100db38057b9ef782d56ac392402d215f5659641203606f06bb6e439b5449d942b002201c29649abe2c39098a4dcec8cc71972eb6323f6e55b516ce771b1559ad6c5e56014730440220649cb7e96889abb3246e35d55a2dc1ed0403852ee88933aa1aa69b8fb9ffd804022049b820765401b337d5503a95e9b04e187162b71cecfc3e9269bca2bcb3ea78b70147522102907a54bed8ad74b3f35638c60114ca240a308cb986f3f2f306178869a8880b612102ed11067cec3864f271973d6bc34577671ac27e2871af8b898272db4fb996293652aeffffffff03ece667000000000017a914d6033e6ec6d0a23d1e777563c9ac004cc8a45ac487bbe16900000000001976a914e47268333c11b0eae3a42fe38f11ce2984e8311588ac8c9b0000000000001976a914f61d092200f90de8ea46b6544f2a52bb8e13b9be88ac00000000", "vin": [{"sequence": 4294967295, "scriptSig": {"hex": "00483045022100db38057b9ef782d56ac392402d215f5659641203606f06bb6e439b5449d942b002201c29649abe2c39098a4dcec8cc71972eb6323f6e55b516ce771b1559ad6c5e56014730440220649cb7e96889abb3246e35d55a2dc1ed0403852ee88933aa1aa69b8fb9ffd804022049b820765401b337d5503a95e9b04e187162b71cecfc3e9269bca2bcb3ea78b70147522102907a54bed8ad74b3f35638c60114ca240a308cb986f3f2f306178869a8880b612102ed11067cec3864f271973d6bc34577671ac27e2871af8b898272db4fb996293652ae", "asm": "0 3045022100db38057b9ef782d56ac392402d215f5659641203606f06bb6e439b5449d942b002201c29649abe2c39098a4dcec8cc71972eb6323f6e55b516ce771b1559ad6c5e56[ALL] 30440220649cb7e96889abb3246e35d55a2dc1ed0403852ee88933aa1aa69b8fb9ffd804022049b820765401b337d5503a95e9b04e187162b71cecfc3e9269bca2bcb3ea78b7[ALL] 522102907a54bed8ad74b3f35638c60114ca240a308cb986f3f2f306178869a8880b612102ed11067cec3864f271973d6bc34577671ac27e2871af8b898272db4fb996293652ae"}, "vout": 0, "txid": "d3e0ea21041e2374cacd6b7e4538e0ab708131df85a952c4228e6c86359dc416"}], "txid": "f2a8a5b659bfd442f56b00e7d1d08b697a12067e31fca83cb70d1e0dd941a7b4", "blocktime": 1537873282, "version": 1, "confirmations": 11484, "time": 1537873282, "locktime": 0, "vsize": 369, "size": 369}