{"hash": "f2af2c508ea626762164d0a2235677fb06f8e5f145cfee765a073c933866c1af", "blockhash": "00000000000000000024a2167bbff67b0be802c0b01cdd79e6331c2be6459f87", "vout": [{"scriptPubKey": {"reqSigs": 1, "hex": "76a914a25dec4d0011064ef106a983c39c7a540699f22088ac", "addresses": ["1FoWyxwPXuj4C6abqwhjDWdz6D4PZgYRjA"], "asm": "OP_DUP OP_HASH160 a25dec4d0011064ef106a983c39c7a540699f220 OP_EQUALVERIFY OP_CHECKSIG", "type": "pubkeyhash"}, "value": 0.0198558, "n": 0}, {"scriptPubKey": {"type": "nulldata", "hex": "6a146f6d6e69000000000000001f00000001165a8b80", "asm": "OP_RETURN 6f6d6e69000000000000001f00000001165a8b80"}, "value": 0.0, "n": 1}, {"scriptPubKey": {"reqSigs": 1, "hex": "76a914b19548a9c23af14a9d77337366a95368c108a57288ac", "addresses": ["1HBySNsPyV9oqVutL45YEtY7d5eiV8Pf8z"], "asm": "OP_DUP OP_HASH160 b19548a9c23af14a9d77337366a95368c108a572 OP_EQUALVERIFY OP_CHECKSIG", "type": "pubkeyhash"}, "value": 5.46e-06, "n": 2}], "hex": "010000000109bf42ed73d7393a03826f240d73c8c92f433d09282dde1556e9f6e0fbb6c227000000006b4830450221009272a66ff86d5301b404889a530b40e6e26e5d0994b3007f93eef1b67aa3ad4a02203e63788c123827a4612506f2c28ab79ec8b84317417fea35c35df43c77286400012103da5bac7b36d5aa38f531c6b9601e21bb598a4b6716ebed38b009a55dabde9440feffffff032c4c1e00000000001976a914a25dec4d0011064ef106a983c39c7a540699f22088ac0000000000000000166a146f6d6e69000000000000001f00000001165a8b8022020000000000001976a914b19548a9c23af14a9d77337366a95368c108a57288ac0d490800", "vin": [{"sequence": 4294967294, "scriptSig": {"hex": "4830450221009272a66ff86d5301b404889a530b40e6e26e5d0994b3007f93eef1b67aa3ad4a02203e63788c123827a4612506f2c28ab79ec8b84317417fea35c35df43c77286400012103da5bac7b36d5aa38f531c6b9601e21bb598a4b6716ebed38b009a55dabde9440", "asm": "30450221009272a66ff86d5301b404889a530b40e6e26e5d0994b3007f93eef1b67aa3ad4a02203e63788c123827a4612506f2c28ab79ec8b84317417fea35c35df43c77286400[ALL] 03da5bac7b36d5aa38f531c6b9601e21bb598a4b6716ebed38b009a55dabde9440"}, "vout": 0, "txid": "27c2b6fbe0f6e95615de2d28093d432fc9c8730d246f82033a39d773ed42bf09"}], "txid": "f2af2c508ea626762164d0a2235677fb06f8e5f145cfee765a073c933866c1af", "blocktime": 1537870564, "version": 1, "confirmations": 11515, "time": 1537870564, "locktime": 542989, "vsize": 257, "size": 257}