{"hash": "fc1a0d1cd77a1dde864a9cb631018607420f0cb273346ade8e6127359fdd0914", "blockhash": "0000000000000000001e0dab787dd257d1dbfcb92a98c2207d5e1078be1f4165", "vout": [{"scriptPubKey": {"reqSigs": 1, "hex": "a914baa98fbc67dc1744d04766918e3d5fe0ba91b1ef87", "addresses": ["3JhzjZXSgkPSYPPUs98wX8EWUQ5GBYDrFY"], "asm": "OP_HASH160 baa98fbc67dc1744d04766918e3d5fe0ba91b1ef OP_EQUAL", "type": "scripthash"}, "value": 0.00999542, "n": 0}, {"scriptPubKey": {"reqSigs": 1, "hex": "76a914809ef0f0b0e6469eeb1749992cafa98ef11ad43488ac", "addresses": ["1Cj5tysek52iD1sKC69tcoA8bp6o3HBTY2"], "asm": "OP_DUP OP_HASH160 809ef0f0b0e6469eeb1749992cafa98ef11ad434 OP_EQUALVERIFY OP_CHECKSIG", "type": "pubkeyhash"}, "value": 0.0111946, "n": 1}], "hex": "0200000000010243ff736553478f3e0311558d32beea6764f1e48999290d7645dc7728bb482b6f00000000171600147a7f3bf567cb5e1669af14e05078180b25022bc6feffffffba465ba27691c8e1d230ebeb1f21700acb9f34e73f614f5d5607b31c3e2131a6010000001716001409e164c663444b38d990c1d4663ffd3407b764b9feffffff0276400f000000000017a914baa98fbc67dc1744d04766918e3d5fe0ba91b1ef87e4141100000000001976a914809ef0f0b0e6469eeb1749992cafa98ef11ad43488ac0247304402202bd2301ffb27284bead56e520243d5210639d65975534b0f78850fefdcab8d1102200b2e6d3cf729570bafec1c9bac9d25e939cd23cbde89c7538b12c21588a7ffb6012103a9d9b9453442f41c2f1ba81f69b278b467d338452e77e84cc3e8be26007f224602483045022100e198aedc87ad5c1a044c0909a76996b2d90d7068dc4659aa2f30e645366e810e02205edf43a9f855f27df6ff88a1826703099e0044abf8ff4c19ff4b0147f38a32f4012103b04d8f4bcbbe8e68fac3ee3452ea19d44b337ef66a422add13adaa05bdd5bcce12490800", "vin": [{"txinwitness": ["304402202bd2301ffb27284bead56e520243d5210639d65975534b0f78850fefdcab8d1102200b2e6d3cf729570bafec1c9bac9d25e939cd23cbde89c7538b12c21588a7ffb601", "03a9d9b9453442f41c2f1ba81f69b278b467d338452e77e84cc3e8be26007f2246"], "sequence": 4294967294, "scriptSig": {"hex": "1600147a7f3bf567cb5e1669af14e05078180b25022bc6", "asm": "00147a7f3bf567cb5e1669af14e05078180b25022bc6"}, "vout": 0, "txid": "6f2b48bb2877dc45760d299989e4f16467eabe328d5511033e8f47536573ff43"}, {"txinwitness": ["3045022100e198aedc87ad5c1a044c0909a76996b2d90d7068dc4659aa2f30e645366e810e02205edf43a9f855f27df6ff88a1826703099e0044abf8ff4c19ff4b0147f38a32f401", "03b04d8f4bcbbe8e68fac3ee3452ea19d44b337ef66a422add13adaa05bdd5bcce"], "sequence": 4294967294, "scriptSig": {"hex": "16001409e164c663444b38d990c1d4663ffd3407b764b9", "asm": "001409e164c663444b38d990c1d4663ffd3407b764b9"}, "vout": 1, "txid": "a631213e1cb307565d4f613fe7349fcb0a70211febeb30d2e1c89176a25b46ba"}], "txid": "f2b49709286c263cf4fea4fa55c3b05f6890dea1d95a284ac06d85e2d6b83755", "blocktime": 1537872475, "version": 2, "confirmations": 11487, "time": 1537872475, "locktime": 542994, "vsize": 259, "size": 421}