{"hash": "f2b4a04d1a1b69d7bc8cd8aeb9104006e126ff9e981a49455a8452f302cebe3e", "blockhash": "00000000000000000024a2167bbff67b0be802c0b01cdd79e6331c2be6459f87", "vout": [{"scriptPubKey": {"reqSigs": 1, "hex": "76a9140865fc9cbf44e9c798054610964901e676447b8388ac", "addresses": ["1mQahZsh6ERH91tA52xpFiif1YG9BFYA5"], "asm": "OP_DUP OP_HASH160 0865fc9cbf44e9c798054610964901e676447b83 OP_EQUALVERIFY OP_CHECKSIG", "type": "pubkeyhash"}, "value": 0.03796172, "n": 0}, {"scriptPubKey": {"reqSigs": 1, "hex": "76a9143c64a8ffb4ebc7548080710c443e504041310a9a88ac", "addresses": ["16WL8VzGje2KBAt5i3BrNNBNEvKvDXF9UG"], "asm": "OP_DUP OP_HASH160 3c64a8ffb4ebc7548080710c443e504041310a9a OP_EQUALVERIFY OP_CHECKSIG", "type": "pubkeyhash"}, "value": 0.00997606, "n": 1}, {"scriptPubKey": {"reqSigs": 1, "hex": "76a9141815f8628ff5b47127e87ded4a16cdbfea4c89df88ac", "addresses": ["13CMY8BvLLpiffRcB8veK1odcnxH2RRj3h"], "asm": "OP_DUP OP_HASH160 1815f8628ff5b47127e87ded4a16cdbfea4c89df OP_EQUALVERIFY OP_CHECKSIG", "type": "pubkeyhash"}, "value": 0.02395311, "n": 2}], "hex": "0200000003f1e28fdb8c19babaf7bf0638f068921a622f234963e89c83f4367b7c933e06ee000000006a47304402207688f27987aae0af77efd9e386a4af74607137c2134491ba10e14905c1ac5aaa022031eca6958514434bd22c9466610f5bf9f7a92d058b450eed00ef7c664900bc3e012102879bcee67e9c67ab71360429bcadbc88ba3f30d7d6f33cf3334d3f64204e5431fefffffff13071ee7b6d7e3afc7aebe6056d307d611e2a46fec5182463f97dd256960e32000000006a473044022054f3a2efd302cf907d33b9f7d34b221e957409dab4f38edf38442c5666291fe302204af4f4570e485a2344b37c82679cb1da8ec4d9b32b2463ac099d0097519fb2a1012102acc89663609c43a81650f40dd4bf784234d159c1cef47c5ee500352662f98262feffffff474afc1c73bdf678f8702efbc377ee303d0fab213cbd7e0e39b015ce1fa1ea9c000000006a473044022027e1cf8cf2dc96eb13cca82f28430984d090cb5fa7df88c99d76d47f3f273cd7022011d455ba8b7210f9ddbbd13f78548fd057752a3eb5ac5971ace8c1b4fd51f95801210399e773ebb47548d6d8025207af70cc2042c5079f4dc83e27c4fa06de0decfac7feffffff03ccec3900000000001976a9140865fc9cbf44e9c798054610964901e676447b8388ace6380f00000000001976a9143c64a8ffb4ebc7548080710c443e504041310a9a88acaf8c2400000000001976a9141815f8628ff5b47127e87ded4a16cdbfea4c89df88ac00000000", "vin": [{"sequence": 4294967294, "scriptSig": {"hex": "47304402207688f27987aae0af77efd9e386a4af74607137c2134491ba10e14905c1ac5aaa022031eca6958514434bd22c9466610f5bf9f7a92d058b450eed00ef7c664900bc3e012102879bcee67e9c67ab71360429bcadbc88ba3f30d7d6f33cf3334d3f64204e5431", "asm": "304402207688f27987aae0af77efd9e386a4af74607137c2134491ba10e14905c1ac5aaa022031eca6958514434bd22c9466610f5bf9f7a92d058b450eed00ef7c664900bc3e[ALL] 02879bcee67e9c67ab71360429bcadbc88ba3f30d7d6f33cf3334d3f64204e5431"}, "vout": 0, "txid": "ee063e937c7b36f4839ce86349232f621a9268f03806bff7baba198cdb8fe2f1"}, {"sequence": 4294967294, "scriptSig": {"hex": "473044022054f3a2efd302cf907d33b9f7d34b221e957409dab4f38edf38442c5666291fe302204af4f4570e485a2344b37c82679cb1da8ec4d9b32b2463ac099d0097519fb2a1012102acc89663609c43a81650f40dd4bf784234d159c1cef47c5ee500352662f98262", "asm": "3044022054f3a2efd302cf907d33b9f7d34b221e957409dab4f38edf38442c5666291fe302204af4f4570e485a2344b37c82679cb1da8ec4d9b32b2463ac099d0097519fb2a1[ALL] 02acc89663609c43a81650f40dd4bf784234d159c1cef47c5ee500352662f98262"}, "vout": 0, "txid": "320e9656d27df9632418c5fe462a1e617d306d05e6eb7afc3a7e6d7bee7130f1"}, {"sequence": 4294967294, "scriptSig": {"hex": "473044022027e1cf8cf2dc96eb13cca82f28430984d090cb5fa7df88c99d76d47f3f273cd7022011d455ba8b7210f9ddbbd13f78548fd057752a3eb5ac5971ace8c1b4fd51f95801210399e773ebb47548d6d8025207af70cc2042c5079f4dc83e27c4fa06de0decfac7", "asm": "3044022027e1cf8cf2dc96eb13cca82f28430984d090cb5fa7df88c99d76d47f3f273cd7022011d455ba8b7210f9ddbbd13f78548fd057752a3eb5ac5971ace8c1b4fd51f958[ALL] 0399e773ebb47548d6d8025207af70cc2042c5079f4dc83e27c4fa06de0decfac7"}, "vout": 0, "txid": "9ceaa11fce15b0390e7ebd3c21ab0f3d30ee77c3fb2e70f878f6bd731cfc4a47"}], "txid": "f2b4a04d1a1b69d7bc8cd8aeb9104006e126ff9e981a49455a8452f302cebe3e", "blocktime": 1537870564, "version": 2, "confirmations": 11515, "time": 1537870564, "locktime": 0, "vsize": 553, "size": 553}