{"hash": "f2b7628645ef018ee7217ff63a0cd1d7f26348803a40bb0c77c72d69f22bcc0b", "blockhash": "0000000000000000001e0dab787dd257d1dbfcb92a98c2207d5e1078be1f4165", "vout": [{"scriptPubKey": {"type": "nulldata", "hex": "6a2eb53e22fb598b0f184e39877cf1c0da87357a75a97fe3d339b7c8e49440102cb982ad9f632c914d7bdd9f5f7f8412", "asm": "OP_RETURN b53e22fb598b0f184e39877cf1c0da87357a75a97fe3d339b7c8e49440102cb982ad9f632c914d7bdd9f5f7f8412"}, "value": 0.0, "n": 0}, {"scriptPubKey": {"reqSigs": 1, "hex": "76a914d6576f47d42bfe9eea4a43871fa23f1132fd139188ac", "addresses": ["1LYLM7zDqK9VGuhPkaPd1Z7g5WLWp2N3U9"], "asm": "OP_DUP OP_HASH160 d6576f47d42bfe9eea4a43871fa23f1132fd1391 OP_EQUALVERIFY OP_CHECKSIG", "type": "pubkeyhash"}, "value": 0.0014701, "n": 1}], "hex": "0100000001dd98aa13676cf2c5816f83027d5143d3a213d13d61717506f0143f1f476c54b6010000006a473044022063955b412119352ef64df72c8e0808d197321f87f520c7caec9f1c4ab932681a02203ed9745520273ac2438597f7b5bf372c3f6e8f58743dd5c3bd9c3e78f14464fb012102c12cf5edfac7d1cb6a22456c359fccadb9bace1363a321e4cd42d6850dac3542fdffffff020000000000000000306a2eb53e22fb598b0f184e39877cf1c0da87357a75a97fe3d339b7c8e49440102cb982ad9f632c914d7bdd9f5f7f8412423e0200000000001976a914d6576f47d42bfe9eea4a43871fa23f1132fd139188ac00000000", "vin": [{"sequence": 4294967293, "scriptSig": {"hex": "473044022063955b412119352ef64df72c8e0808d197321f87f520c7caec9f1c4ab932681a02203ed9745520273ac2438597f7b5bf372c3f6e8f58743dd5c3bd9c3e78f14464fb012102c12cf5edfac7d1cb6a22456c359fccadb9bace1363a321e4cd42d6850dac3542", "asm": "3044022063955b412119352ef64df72c8e0808d197321f87f520c7caec9f1c4ab932681a02203ed9745520273ac2438597f7b5bf372c3f6e8f58743dd5c3bd9c3e78f14464fb[ALL] 02c12cf5edfac7d1cb6a22456c359fccadb9bace1363a321e4cd42d6850dac3542"}, "vout": 1, "txid": "b6546c471f3f14f0067571613dd113a2d343517d02836f81c5f26c6713aa98dd"}], "txid": "f2b7628645ef018ee7217ff63a0cd1d7f26348803a40bb0c77c72d69f22bcc0b", "blocktime": 1537872475, "version": 1, "confirmations": 11486, "time": 1537872475, "locktime": 0, "vsize": 248, "size": 248}