{"hash": "f2bb0a311209a270de88c3366ea2dc05fca4d06a1e4829f14af6a00858c41cec", "blockhash": "0000000000000000000baef3f32e3676a92c3b2e5da21b426e4f302fc371ce76", "vout": [{"scriptPubKey": {"type": "nulldata", "hex": "6a4c50000078310001d75e35aaba5f9ef370ee0d8227b7256b4774d339f6019d6ddc0f1b8ff117e83132d6b50bbefcaa751ee9699ba1f85baa1f870613f3f75e0aa540bc9a9526289ac0f6612cd74e33776ee4", "asm": "OP_RETURN 000078310001d75e35aaba5f9ef370ee0d8227b7256b4774d339f6019d6ddc0f1b8ff117e83132d6b50bbefcaa751ee9699ba1f85baa1f870613f3f75e0aa540bc9a9526289ac0f6612cd74e33776ee4"}, "value": 0.0, "n": 0}, {"scriptPubKey": {"reqSigs": 1, "hex": "76a9140ac0e08ff134b7db31405a665bc3fe3264efbfb788ac", "addresses": ["1yrpG8W1wdZCUBn5UzCGb2VjcwEfG12VS"], "asm": "OP_DUP OP_HASH160 0ac0e08ff134b7db31405a665bc3fe3264efbfb7 OP_EQUALVERIFY OP_CHECKSIG", "type": "pubkeyhash"}, "value": 0.0007102, "n": 1}], "hex": "0100000001979a5a645c38bc39a9597e9f8d6b6485d586fe598a600f49b0f9f3c629eaf7af010000006b483045022100df3f2798cb01cc8b29b1598063b7940e794ff60aac31635aa00757ff7dac3e37022040fb9a52e180b8dbf47e2efd4d7848b383bd61696474a7c2ebb98ee0ac4e8de90121039126f14023cfec501a80c75022af51944006ba465259130f6f002089a3cbc734ffffffff020000000000000000536a4c50000078310001d75e35aaba5f9ef370ee0d8227b7256b4774d339f6019d6ddc0f1b8ff117e83132d6b50bbefcaa751ee9699ba1f85baa1f870613f3f75e0aa540bc9a9526289ac0f6612cd74e33776ee46c150100000000001976a9140ac0e08ff134b7db31405a665bc3fe3264efbfb788ac00000000", "vin": [{"sequence": 4294967295, "scriptSig": {"hex": "483045022100df3f2798cb01cc8b29b1598063b7940e794ff60aac31635aa00757ff7dac3e37022040fb9a52e180b8dbf47e2efd4d7848b383bd61696474a7c2ebb98ee0ac4e8de90121039126f14023cfec501a80c75022af51944006ba465259130f6f002089a3cbc734", "asm": "3045022100df3f2798cb01cc8b29b1598063b7940e794ff60aac31635aa00757ff7dac3e37022040fb9a52e180b8dbf47e2efd4d7848b383bd61696474a7c2ebb98ee0ac4e8de9[ALL] 039126f14023cfec501a80c75022af51944006ba465259130f6f002089a3cbc734"}, "vout": 1, "txid": "aff7ea29c6f3f9b0490f608a59fe86d585646b8d9f7e59a939bc385c645a9a97"}], "txid": "f2bb0a311209a270de88c3366ea2dc05fca4d06a1e4829f14af6a00858c41cec", "blocktime": 1537876114, "version": 1, "confirmations": 11461, "time": 1537876114, "locktime": 0, "vsize": 284, "size": 284}