{"hash": "3a39415ddeeed13fb965188624e115856b1e69d09976bf6b4c3bab8ece6e1f6c", "blockhash": "0000000000000000001e0dab787dd257d1dbfcb92a98c2207d5e1078be1f4165", "vout": [{"scriptPubKey": {"reqSigs": 1, "hex": "76a9141376219024ae1fe1a124599bf0e872ce14bcd21e88ac", "addresses": ["12muMYCUzvQo2vxJC6zdfhp5aQW7oHHgXh"], "asm": "OP_DUP OP_HASH160 1376219024ae1fe1a124599bf0e872ce14bcd21e OP_EQUALVERIFY OP_CHECKSIG", "type": "pubkeyhash"}, "value": 0.00970262, "n": 0}, {"scriptPubKey": {"reqSigs": 1, "hex": "a9142c675757dce7ad33300503b48fcbd9b15f87302387", "addresses": ["35joTFnK1FFnrcfYo3ppEb4FVa7kas3duq"], "asm": "OP_HASH160 2c675757dce7ad33300503b48fcbd9b15f873023 OP_EQUAL", "type": "scripthash"}, "value": 0.00998412, "n": 1}], "hex": "0200000000010520c7648d8af4adbe22b80fc00ea8f4ef862989df4681cc359a9b315776ce5a800b00000017160014e965d6e05d7f729c0c80fd97efdde669faea9600fdffffff4565da3b44926a8364ec9cf91e587453813c6824765a9547c3650c6319230cb60000000017160014080d2e18b69b004d4e7af544c4aaccd399a65585fdffffff56725341667d7460026cea69558ac333c4f45b60c78c1914e47b7c497c8c04dc0100000017160014713092110c39caedd64b56ee15f2f15175591540fdffffffad9f8a03f4bf6ee240977149aaaac61344118448ceaaed326a8091e6487d882601000000171600143b325063b9de4557d795341fd8369613e7d235a1fdfffffff041cb740b3f306545228b9b224f0701fffa2c626739f2888af89bad9a23e7400000000017160014f503374742a41569a19b8874093642bd15047e5bfdffffff0216ce0e00000000001976a9141376219024ae1fe1a124599bf0e872ce14bcd21e88ac0c3c0f000000000017a9142c675757dce7ad33300503b48fcbd9b15f8730238702473044022030192fe395b6adc387315745cc36838518b36d214a8de33635a18f0bcb8dabda02201da26dbf92884d0f0c0cdcd5cfbfef7be03c234b3d2d36194fbaf3978b9ec908012102e7dc1add97a11f59a66aa57d7bf110db07c0f0867aad8210cd92add4ef7d16a802473044022029dc0fd16e044013f5e835810a94cdbfae76571f2c8b4545958adbbcba41df6c02205e608522a4a629cbe9539f57e92f3e8b826d14b2bb677773b4c7eafb27f8699e012103fd3eeb258aa9f70a36fdd1e654565b3ab8e602e097eaacb45e7877e0cb14fccc024730440220124b8f42067da492191199b049c3d3d35ab859b59135e255363c607c17433faf022039ddeef0d2805dd8305ea5072cffedd3d41fa118cb6953d1d1e401afab2c05a20121029d710db4965749c7cf6638b55d8ba09a4f4d8cb5c20c4f38ea993a058404acfc02483045022100c35967b14c79591ccaedc3069d5e3e35adce3dea5066243f119338dbe5308e9f02207a53b7c645b5b0d2053d51b089465d6c2b2a2f31722769ea2d0bcfe63c636834012103ebef4ba416e1baa31c9527863617a7b158f02fcd155877d16a5d1cfad56b00f002483045022100c235915fecb32da7399245ffadf69e7f32a8537e8f13279c4a7d9f96fba5648702205bc60b3b47728b148b3d220ceb0b318f1ba3c4a3c0938ebc79e4134bb3fcb135012102a60c1fa1884c00f5054cd863d40b87c08ea391c3cd2050f5474eb3e904db731b12490800", "vin": [{"txinwitness": ["3044022030192fe395b6adc387315745cc36838518b36d214a8de33635a18f0bcb8dabda02201da26dbf92884d0f0c0cdcd5cfbfef7be03c234b3d2d36194fbaf3978b9ec90801", "02e7dc1add97a11f59a66aa57d7bf110db07c0f0867aad8210cd92add4ef7d16a8"], "sequence": 4294967293, "scriptSig": {"hex": "160014e965d6e05d7f729c0c80fd97efdde669faea9600", "asm": "0014e965d6e05d7f729c0c80fd97efdde669faea9600"}, "vout": 11, "txid": "805ace7657319b9a35cc8146df892986eff4a80ec00fb822beadf48a8d64c720"}, {"txinwitness": ["3044022029dc0fd16e044013f5e835810a94cdbfae76571f2c8b4545958adbbcba41df6c02205e608522a4a629cbe9539f57e92f3e8b826d14b2bb677773b4c7eafb27f8699e01", "03fd3eeb258aa9f70a36fdd1e654565b3ab8e602e097eaacb45e7877e0cb14fccc"], "sequence": 4294967293, "scriptSig": {"hex": "160014080d2e18b69b004d4e7af544c4aaccd399a65585", "asm": "0014080d2e18b69b004d4e7af544c4aaccd399a65585"}, "vout": 0, "txid": "b60c2319630c65c347955a7624683c815374581ef99cec64836a92443bda6545"}, {"txinwitness": ["30440220124b8f42067da492191199b049c3d3d35ab859b59135e255363c607c17433faf022039ddeef0d2805dd8305ea5072cffedd3d41fa118cb6953d1d1e401afab2c05a201", "029d710db4965749c7cf6638b55d8ba09a4f4d8cb5c20c4f38ea993a058404acfc"], "sequence": 4294967293, "scriptSig": {"hex": "160014713092110c39caedd64b56ee15f2f15175591540", "asm": "0014713092110c39caedd64b56ee15f2f15175591540"}, "vout": 1, "txid": "dc048c7c497c7be414198cc7605bf4c433c38a5569ea6c0260747d6641537256"}, {"txinwitness": ["3045022100c35967b14c79591ccaedc3069d5e3e35adce3dea5066243f119338dbe5308e9f02207a53b7c645b5b0d2053d51b089465d6c2b2a2f31722769ea2d0bcfe63c63683401", "03ebef4ba416e1baa31c9527863617a7b158f02fcd155877d16a5d1cfad56b00f0"], "sequence": 4294967293, "scriptSig": {"hex": "1600143b325063b9de4557d795341fd8369613e7d235a1", "asm": "00143b325063b9de4557d795341fd8369613e7d235a1"}, "vout": 1, "txid": "26887d48e691806a32edaace4884114413c6aaaa49719740e26ebff4038a9fad"}, {"txinwitness": ["3045022100c235915fecb32da7399245ffadf69e7f32a8537e8f13279c4a7d9f96fba5648702205bc60b3b47728b148b3d220ceb0b318f1ba3c4a3c0938ebc79e4134bb3fcb13501", "02a60c1fa1884c00f5054cd863d40b87c08ea391c3cd2050f5474eb3e904db731b"], "sequence": 4294967293, "scriptSig": {"hex": "160014f503374742a41569a19b8874093642bd15047e5b", "asm": "0014f503374742a41569a19b8874093642bd15047e5b"}, "vout": 0, "txid": "40e7239aad9bf88a88f23967622cfaff01074f229b8b224565303f0b74cb41f0"}], "txid": "f2bc08c336f7e193437b23a40e3859c21d1a4c867dd36ea6ef1780038defcf86", "blocktime": 1537872475, "version": 2, "confirmations": 11487, "time": 1537872475, "locktime": 542994, "vsize": 531, "size": 935}