{"hash": "53aad9ed6ca7affe5fd99eca39ebca4249141738fa297b921b4128487b481b34", "blockhash": "0000000000000000000baef3f32e3676a92c3b2e5da21b426e4f302fc371ce76", "vout": [{"scriptPubKey": {"reqSigs": 1, "hex": "a9141988a27e3c2df4ddee7fad5a2303d086179b2a3087", "addresses": ["3422VtS7UtCvXYxoXMVp6eZupR252z85oC"], "asm": "OP_HASH160 1988a27e3c2df4ddee7fad5a2303d086179b2a30 OP_EQUAL", "type": "scripthash"}, "value": 0.77853369, "n": 0}, {"scriptPubKey": {"reqSigs": 1, "hex": "76a914b6ff96b94051fa8138bad7d965f6fbea3093b02388ac", "addresses": ["1HgcAXqzBQTZTZHRjwPSjDtBihbSsPTRnf"], "asm": "OP_DUP OP_HASH160 b6ff96b94051fa8138bad7d965f6fbea3093b023 OP_EQUALVERIFY OP_CHECKSIG", "type": "pubkeyhash"}, "value": 0.01582567, "n": 1}, {"scriptPubKey": {"reqSigs": 1, "hex": "76a91424e8b3aaf86bb8f8b0d166c5f37ee4643a82d35388ac", "addresses": ["14NA6K7fGinfXy6APR3XTxP4ZJh834KBwK"], "asm": "OP_DUP OP_HASH160 24e8b3aaf86bb8f8b0d166c5f37ee4643a82d353 OP_EQUALVERIFY OP_CHECKSIG", "type": "pubkeyhash"}, "value": 0.00997, "n": 2}, {"scriptPubKey": {"reqSigs": 1, "hex": "a914c20691628c95044a607fac5fa493f3068e241f7d87", "addresses": ["3KNvt74HZvRZ5ADWRxLwWoEobJgMHna2J6"], "asm": "OP_HASH160 c20691628c95044a607fac5fa493f3068e241f7d OP_EQUAL", "type": "scripthash"}, "value": 0.01412901, "n": 3}, {"scriptPubKey": {"reqSigs": 1, "hex": "a914807d26e97124bcf6abdb3f553557be6de74edefe87", "addresses": ["3DQQLp1snQ6unTcRxqhxvLrK3E3Dvvrqe4"], "asm": "OP_HASH160 807d26e97124bcf6abdb3f553557be6de74edefe OP_EQUAL", "type": "scripthash"}, "value": 0.00047, "n": 4}, {"scriptPubKey": {"reqSigs": 1, "hex": "76a914630776ae908955e1e9819cb01aa9b3fb065fd9ba88ac", "addresses": ["1A2cqa8tWYhdQiGWrM54sGJkjpob9FDaSp"], "asm": "OP_DUP OP_HASH160 630776ae908955e1e9819cb01aa9b3fb065fd9ba OP_EQUALVERIFY OP_CHECKSIG", "type": "pubkeyhash"}, "value": 0.0003, "n": 5}], "hex": "01000000000101517d408469614e25ae7262d43a7449a2fcf2df34bb8f4c17cd33ce6e59d73d01020000002322002065d416c48a8072e0ac51c2d111eb194f009caef0332446c1bf2097316cf07fa9ffffffff06b9f2a3040000000017a9141988a27e3c2df4ddee7fad5a2303d086179b2a3087e7251800000000001976a914b6ff96b94051fa8138bad7d965f6fbea3093b02388ac88360f00000000001976a91424e8b3aaf86bb8f8b0d166c5f37ee4643a82d35388ac258f15000000000017a914c20691628c95044a607fac5fa493f3068e241f7d8798b700000000000017a914807d26e97124bcf6abdb3f553557be6de74edefe8730750000000000001976a914630776ae908955e1e9819cb01aa9b3fb065fd9ba88ac040048304502210083f50276cca7bb4841c6cf3998b6e931d32c35ef92d03e9098d8eb97f30a50d1022029c70805ec058b450ed2bbe3aa8d839b8e7f6301645663c2d689979929c3819e014730440220600bf982f16df811f049127d99d95886634733fd3c7b706009eeef64292c92af02201539304efdfcd17816859f5e85aaf07ed764a6bc84d5207e3e6caa5ddc45c8340169522102f44abcf9e23c9a460da309ccca56c619c04eed3bde2c2cff5e7d78fbcd980b9c2103c9443cf3047bb6c2c82f1b0c44c36109cdc3d0d601d16d1189a1602bf8d1a0a02103bfe867059274412412e088af5572b92168c2ef495cfe6c9b7a753a009eb37c4853ae00000000", "vin": [{"txinwitness": ["", "304502210083f50276cca7bb4841c6cf3998b6e931d32c35ef92d03e9098d8eb97f30a50d1022029c70805ec058b450ed2bbe3aa8d839b8e7f6301645663c2d689979929c3819e01", "30440220600bf982f16df811f049127d99d95886634733fd3c7b706009eeef64292c92af02201539304efdfcd17816859f5e85aaf07ed764a6bc84d5207e3e6caa5ddc45c83401", "522102f44abcf9e23c9a460da309ccca56c619c04eed3bde2c2cff5e7d78fbcd980b9c2103c9443cf3047bb6c2c82f1b0c44c36109cdc3d0d601d16d1189a1602bf8d1a0a02103bfe867059274412412e088af5572b92168c2ef495cfe6c9b7a753a009eb37c4853ae"], "sequence": 4294967295, "scriptSig": {"hex": "22002065d416c48a8072e0ac51c2d111eb194f009caef0332446c1bf2097316cf07fa9", "asm": "002065d416c48a8072e0ac51c2d111eb194f009caef0332446c1bf2097316cf07fa9"}, "vout": 2, "txid": "013dd7596ece33cd174c8fbb34dff2fca249743ad46272ae254e616984407d51"}], "txid": "f2bdbc4b750df3cd4c2b6bb731c21f2324edc633c2c019c56086b2af2805b739", "blocktime": 1537876114, "version": 1, "confirmations": 11460, "time": 1537876114, "locktime": 0, "vsize": 348, "size": 539}