{"hash": "f2c09672ae544ea010de912a64f13053651a70a34701d9ddef2f6ccbb0b1e8c9", "blockhash": "000000000000000000022b45ed06c6f4ccd3cf7fb5ba4856ebd2e58215665228", "vout": [{"scriptPubKey": {"reqSigs": 1, "hex": "a914cb1638fc24296edca58e34714ca31f9cb63ad8b587", "addresses": ["3LCqiYBeKSyS7LGnkGtMRzHE42ncrmi5em"], "asm": "OP_HASH160 cb1638fc24296edca58e34714ca31f9cb63ad8b5 OP_EQUAL", "type": "scripthash"}, "value": 0.02068176, "n": 0}, {"scriptPubKey": {"reqSigs": 1, "hex": "76a91493583a2de8b151898ea18331f3a2025a1a97cb2088ac", "addresses": ["1ES62LXukMftd31mBpqu9vX9kuSihYDhFM"], "asm": "OP_DUP OP_HASH160 93583a2de8b151898ea18331f3a2025a1a97cb20 OP_EQUALVERIFY OP_CHECKSIG", "type": "pubkeyhash"}, "value": 0.18926739, "n": 1}], "hex": "0100000001e18d0ca47490247f589007ef3c19fe3511d8b0ddf83267bd42b4c1aa7b21b2bc010000006a4730440220117c37d2eb73cbb0cf05eb506e6af0484fd203cc36af5ed14ee70c812c62001c0220461180e547c5a89f7f28b5b8f6dfceaaa2430dfffa5e0caa4f0104a00c414571012102d2b7723faa9582236d34f2eca1efc6ab910bed73b219eeba0598e46bc0f5ec2cffffffff02d08e1f000000000017a914cb1638fc24296edca58e34714ca31f9cb63ad8b58793cc2001000000001976a91493583a2de8b151898ea18331f3a2025a1a97cb2088ac00000000", "vin": [{"sequence": 4294967295, "scriptSig": {"hex": "4730440220117c37d2eb73cbb0cf05eb506e6af0484fd203cc36af5ed14ee70c812c62001c0220461180e547c5a89f7f28b5b8f6dfceaaa2430dfffa5e0caa4f0104a00c414571012102d2b7723faa9582236d34f2eca1efc6ab910bed73b219eeba0598e46bc0f5ec2c", "asm": "30440220117c37d2eb73cbb0cf05eb506e6af0484fd203cc36af5ed14ee70c812c62001c0220461180e547c5a89f7f28b5b8f6dfceaaa2430dfffa5e0caa4f0104a00c414571[ALL] 02d2b7723faa9582236d34f2eca1efc6ab910bed73b219eeba0598e46bc0f5ec2c"}, "vout": 1, "txid": "bcb2217baac1b442bd6732f8ddb0d81135fe193cef0790587f249074a40c8de1"}], "txid": "f2c09672ae544ea010de912a64f13053651a70a34701d9ddef2f6ccbb0b1e8c9", "blocktime": 1537869901, "version": 1, "confirmations": 11522, "time": 1537869901, "locktime": 0, "vsize": 223, "size": 223}