{"hash": "f2c8bee948862d73a894a19f6b195b48613c5d5b354a76b8cfd6543ac7f72f9c", "blockhash": "0000000000000000001cda96e906b7601b7a6fb1a3b62bca570a9e5d8f4b3de1", "vout": [{"scriptPubKey": {"reqSigs": 1, "hex": "76a9149caec4b6372828213cdf500a10c29a19476f32f988ac", "addresses": ["1FHTn3ju7aXrQDxWZnWPrAQ1q9JG9LQfrx"], "asm": "OP_DUP OP_HASH160 9caec4b6372828213cdf500a10c29a19476f32f9 OP_EQUALVERIFY OP_CHECKSIG", "type": "pubkeyhash"}, "value": 0.00046138, "n": 0}, {"scriptPubKey": {"reqSigs": 1, "hex": "76a91411cec7b1398be0374988b94e481bf6d84120bbb388ac", "addresses": ["12dACbGD17rbGE2MrcQJJYfWe19Ep7WHxz"], "asm": "OP_DUP OP_HASH160 11cec7b1398be0374988b94e481bf6d84120bbb3 OP_EQUALVERIFY OP_CHECKSIG", "type": "pubkeyhash"}, "value": 0.02216904, "n": 1}], "hex": "010000000195ab6f6bf1014e23776d5721fd0ffe79b42c80686d095e1dcfe65d532eaed9e8010000006a47304402200a0f155cfed93b6793876b2b46571a19e4ff6ebc7f03fb8a70bbc8503664bf1002206c422d8716abb0daeb961c1c06fb41e6db9c5376bf5a92175e4534560348a1a40121038d4354a450641fe76b2ed4042f1f2abbbeb1b169f02e1d91241688c24dd7c9dcffffffff023ab40000000000001976a9149caec4b6372828213cdf500a10c29a19476f32f988acc8d32100000000001976a91411cec7b1398be0374988b94e481bf6d84120bbb388ac00000000", "vin": [{"sequence": 4294967295, "scriptSig": {"hex": "47304402200a0f155cfed93b6793876b2b46571a19e4ff6ebc7f03fb8a70bbc8503664bf1002206c422d8716abb0daeb961c1c06fb41e6db9c5376bf5a92175e4534560348a1a40121038d4354a450641fe76b2ed4042f1f2abbbeb1b169f02e1d91241688c24dd7c9dc", "asm": "304402200a0f155cfed93b6793876b2b46571a19e4ff6ebc7f03fb8a70bbc8503664bf1002206c422d8716abb0daeb961c1c06fb41e6db9c5376bf5a92175e4534560348a1a4[ALL] 038d4354a450641fe76b2ed4042f1f2abbbeb1b169f02e1d91241688c24dd7c9dc"}, "vout": 1, "txid": "e8d9ae2e535de6cf1d5e096d68802cb479fe0ffd21576d77234e01f16b6fab95"}], "txid": "f2c8bee948862d73a894a19f6b195b48613c5d5b354a76b8cfd6543ac7f72f9c", "blocktime": 1537873282, "version": 1, "confirmations": 11484, "time": 1537873282, "locktime": 0, "vsize": 225, "size": 225}