{"hash": "e85c461abbf14f389befdb50b028ae7153520b84a0ab145b2195d1096ff0e0e2", "blockhash": "0000000000000000001cda96e906b7601b7a6fb1a3b62bca570a9e5d8f4b3de1", "vout": [{"scriptPubKey": {"reqSigs": 1, "hex": "76a9140b1e4daaa0499d2d6dc1597fe4b16e9d9d846f3588ac", "addresses": ["121njdKcY61kPb6W6NCt6uimkHju7mbsLg"], "asm": "OP_DUP OP_HASH160 0b1e4daaa0499d2d6dc1597fe4b16e9d9d846f35 OP_EQUALVERIFY OP_CHECKSIG", "type": "pubkeyhash"}, "value": 0.00325399, "n": 0}, {"scriptPubKey": {"reqSigs": 1, "hex": "a914055f3fec36e599a35706eb288740afc5c5663d9287", "addresses": ["32BRQZtqvvYd1BaZJQU8fkBG1npyxojTA5"], "asm": "OP_HASH160 055f3fec36e599a35706eb288740afc5c5663d92 OP_EQUAL", "type": "scripthash"}, "value": 0.01266676, "n": 1}, {"scriptPubKey": {"reqSigs": 1, "hex": "a914a0e23f6c46a92173f18efc28dc28a2caffce4fb587", "addresses": ["3GMh5Cssz3x1wkbJ7GSgQqfvanJc5ENXNy"], "asm": "OP_HASH160 a0e23f6c46a92173f18efc28dc28a2caffce4fb5 OP_EQUAL", "type": "scripthash"}, "value": 0.0026236, "n": 2}, {"scriptPubKey": {"reqSigs": 1, "hex": "76a914929ebdae18c7e9664864e81cef712064a211129588ac", "addresses": ["1ENFpXDVxA2xu5RDsx9JyGgHvo7Ltu8qfW"], "asm": "OP_DUP OP_HASH160 929ebdae18c7e9664864e81cef712064a2111295 OP_EQUALVERIFY OP_CHECKSIG", "type": "pubkeyhash"}, "value": 0.009227, "n": 3}, {"scriptPubKey": {"reqSigs": 1, "hex": "a9140e0be3027a3240226480b0ea96723edf7f13f7f687", "addresses": ["32yHd8pm8RstbMzXTPf4ZMqGdYpbsF5RVW"], "asm": "OP_HASH160 0e0be3027a3240226480b0ea96723edf7f13f7f6 OP_EQUAL", "type": "scripthash"}, "value": 0.00303108, "n": 4}, {"scriptPubKey": {"reqSigs": 1, "hex": "a9140ab620543ee12573abfc38637ea8ad667de6da7c87", "addresses": ["32ferpQk57nGSJjD23X1RA4R16xvXTFey7"], "asm": "OP_HASH160 0ab620543ee12573abfc38637ea8ad667de6da7c OP_EQUAL", "type": "scripthash"}, "value": 0.00450083, "n": 5}, {"scriptPubKey": {"reqSigs": 1, "hex": "76a914a124339a574273c029ccdd495f43f76432636fa688ac", "addresses": ["1Fh3ADRNiFqV1aTqQhqrKgEhXNuGhG4TYt"], "asm": "OP_DUP OP_HASH160 a124339a574273c029ccdd495f43f76432636fa6 OP_EQUALVERIFY OP_CHECKSIG", "type": "pubkeyhash"}, "value": 0.00282477, "n": 6}, {"scriptPubKey": {"reqSigs": 1, "hex": "a914c01945ef7f5d8a7312f3f252f80fdc9aa2b310a587", "addresses": ["3KCjwPPrdaPCMatbKCETr5gNWZe1qwor3M"], "asm": "OP_HASH160 c01945ef7f5d8a7312f3f252f80fdc9aa2b310a5 OP_EQUAL", "type": "scripthash"}, "value": 0.02322669, "n": 7}, {"scriptPubKey": {"reqSigs": 1, "hex": "76a914ae603e36fc4cd996fbafab47cefdf6447184da8488ac", "addresses": ["1Gu1sTkW8aNcA47hEqNaeqYvoP8Si6i4d4"], "asm": "OP_DUP OP_HASH160 ae603e36fc4cd996fbafab47cefdf6447184da84 OP_EQUALVERIFY OP_CHECKSIG", "type": "pubkeyhash"}, "value": 0.02235839, "n": 8}, {"scriptPubKey": {"reqSigs": 1, "hex": "76a9146b27976073ddd4c9f3b56608afdbaff3e97ceab288ac", "addresses": ["1AmajNxtJyU7JjAuyiFFkqDaaxuYqkNSkF"], "asm": "OP_DUP OP_HASH160 6b27976073ddd4c9f3b56608afdbaff3e97ceab2 OP_EQUALVERIFY OP_CHECKSIG", "type": "pubkeyhash"}, "value": 1.5, "n": 9}, {"scriptPubKey": {"reqSigs": 1, "hex": "a9142ab3b5e7c2614fa631a728f948f4512c0d9badfd87", "addresses": ["35aob7KXcWGAD8u8a2vrqDNSuDFQiCj9cW"], "asm": "OP_HASH160 2ab3b5e7c2614fa631a728f948f4512c0d9badfd OP_EQUAL", "type": "scripthash"}, "value": 0.00685767, "n": 10}, {"scriptPubKey": {"reqSigs": 1, "hex": "76a9148a074d0ccc5b3e659d0b5d5540d948717a2f681188ac", "addresses": ["1DapzkhEqsitRunpZWstqH5J71fZtrmky5"], "asm": "OP_DUP OP_HASH160 8a074d0ccc5b3e659d0b5d5540d948717a2f6811 OP_EQUALVERIFY OP_CHECKSIG", "type": "pubkeyhash"}, "value": 0.00468567, "n": 11}, {"scriptPubKey": {"reqSigs": 1, "hex": "a914dacf31fa942944777607f21fffef8f260342e49787", "addresses": ["3MdySYFutfkqb1gdE1hd3N4frGuRVYZkxj"], "asm": "OP_HASH160 dacf31fa942944777607f21fffef8f260342e497 OP_EQUAL", "type": "scripthash"}, "value": 0.0040406, "n": 12}, {"scriptPubKey": {"reqSigs": 1, "hex": "76a9140878ba91da5343cb21a07fad9da61a977731482b88ac", "addresses": ["1mo2vEoDqoYkSTxWs3UwNFhP62SJNPg5m"], "asm": "OP_DUP OP_HASH160 0878ba91da5343cb21a07fad9da61a977731482b OP_EQUALVERIFY OP_CHECKSIG", "type": "pubkeyhash"}, "value": 0.00313158, "n": 13}, {"scriptPubKey": {"reqSigs": 1, "hex": "a914ae6f3d8eafd299162d718265acbfd075878bb4d987", "addresses": ["3HbLm3YyAJHVhb5DyyqpHMgZ1ZUQa627Ue"], "asm": "OP_HASH160 ae6f3d8eafd299162d718265acbfd075878bb4d9 OP_EQUAL", "type": "scripthash"}, "value": 1.18164392, "n": 14}, {"scriptPubKey": {"reqSigs": 1, "hex": "a914cc8dd5fe3dc0b0416bfb3de277a2b0887b0ec7da87", "addresses": ["3LLbgcGw2oq8SzC8VScmgzUc8U3DaEHN1H"], "asm": "OP_HASH160 cc8dd5fe3dc0b0416bfb3de277a2b0887b0ec7da OP_EQUAL", "type": "scripthash"}, "value": 0.00244602, "n": 15}, {"scriptPubKey": {"reqSigs": 1, "hex": "a91479183f87de00b32e1a0d1aac4ce24fb709df91da87", "addresses": ["3CjJjYhjdDvx6DNKyigP7ZTC7vdCHvq5wK"], "asm": "OP_HASH160 79183f87de00b32e1a0d1aac4ce24fb709df91da OP_EQUAL", "type": "scripthash"}, "value": 0.00248313, "n": 16}, {"scriptPubKey": {"reqSigs": 1, "hex": "a91468e9ffa82b6b090d2a885a3e8b2f3750c47ab41f87", "addresses": ["3BFkX1JYciKsviKcrDnBgY6cJAe7JhY2bK"], "asm": "OP_HASH160 68e9ffa82b6b090d2a885a3e8b2f3750c47ab41f OP_EQUAL", "type": "scripthash"}, "value": 21.41396347, "n": 17}, {"scriptPubKey": {"reqSigs": 1, "hex": "a914b4f72b7c5a4ecdc0a633048b69cb5cc467dcc5f487", "addresses": ["3JBsejgCvHKEBorkfdGStDjPxspY9EEG8Q"], "asm": "OP_HASH160 b4f72b7c5a4ecdc0a633048b69cb5cc467dcc5f4 OP_EQUAL", "type": "scripthash"}, "value": 0.00237291, "n": 18}, {"scriptPubKey": {"reqSigs": 1, "hex": "a91490f96af37d84dfdd926758e0df1e07a80b5edf3b87", "addresses": ["3Eua221zaT8i2nJozD56WCLcRJbRTAN2NV"], "asm": "OP_HASH160 90f96af37d84dfdd926758e0df1e07a80b5edf3b OP_EQUAL", "type": "scripthash"}, "value": 0.0047195, "n": 19}, {"scriptPubKey": {"reqSigs": 1, "hex": "a914520ce9bcf5ffb6603638d196c6e97fe8ba81281887", "addresses": ["39AroVERiRYSebwNoxGQYTx21sxtekrRH3"], "asm": "OP_HASH160 520ce9bcf5ffb6603638d196c6e97fe8ba812818 OP_EQUAL", "type": "scripthash"}, "value": 0.0082545, "n": 20}, {"scriptPubKey": {"reqSigs": 1, "hex": "a914a66a9b9254835dee7fe04919b69523e118211bb487", "addresses": ["3GrwocwqYzTYkHt4oFzNQXife6cuVJULPF"], "asm": "OP_HASH160 a66a9b9254835dee7fe04919b69523e118211bb4 OP_EQUAL", "type": "scripthash"}, "value": 0.0068802, "n": 21}], "hex": "020000000001014457e967b61ed4e331423505142d1d124b7e049a5aa6eba692384f9154a2f5920c00000017160014cce0ba169b67d553e28ec20af95a0d85f48f7ddffeffffff1617f70400000000001976a9140b1e4daaa0499d2d6dc1597fe4b16e9d9d846f3588acf45313000000000017a914055f3fec36e599a35706eb288740afc5c5663d9287d80004000000000017a914a0e23f6c46a92173f18efc28dc28a2caffce4fb5874c140e00000000001976a914929ebdae18c7e9664864e81cef712064a211129588ac04a004000000000017a9140e0be3027a3240226480b0ea96723edf7f13f7f68723de06000000000017a9140ab620543ee12573abfc38637ea8ad667de6da7c876d4f0400000000001976a914a124339a574273c029ccdd495f43f76432636fa688aced7023000000000017a914c01945ef7f5d8a7312f3f252f80fdc9aa2b310a587bf1d2200000000001976a914ae603e36fc4cd996fbafab47cefdf6447184da8488ac80d1f008000000001976a9146b27976073ddd4c9f3b56608afdbaff3e97ceab288acc7760a000000000017a9142ab3b5e7c2614fa631a728f948f4512c0d9badfd8757260700000000001976a9148a074d0ccc5b3e659d0b5d5540d948717a2f681188ac5c2a06000000000017a914dacf31fa942944777607f21fffef8f260342e4978746c70400000000001976a9140878ba91da5343cb21a07fad9da61a977731482b88aca80b0b070000000017a914ae6f3d8eafd299162d718265acbfd075878bb4d9877abb03000000000017a914cc8dd5fe3dc0b0416bfb3de277a2b0887b0ec7da87f9c903000000000017a91479183f87de00b32e1a0d1aac4ce24fb709df91da877b1da37f0000000017a91468e9ffa82b6b090d2a885a3e8b2f3750c47ab41f87eb9e03000000000017a914b4f72b7c5a4ecdc0a633048b69cb5cc467dcc5f4878e3307000000000017a91490f96af37d84dfdd926758e0df1e07a80b5edf3b876a980c000000000017a914520ce9bcf5ffb6603638d196c6e97fe8ba81281887947f0a000000000017a914a66a9b9254835dee7fe04919b69523e118211bb48702473044022072e5ba6a7dc179a6237d83dcd3e06adafb9d786d37ddc9a15e7166fa32ac91f002203c2f438584f2946643653f63d332f14497dc3d1597bafc6ce70d4a500037c0150121039b95e6d6d2b09da98771ada6173eab4ee2890a0ac2af993bc0e8b9584f580e8313490800", "vin": [{"txinwitness": ["3044022072e5ba6a7dc179a6237d83dcd3e06adafb9d786d37ddc9a15e7166fa32ac91f002203c2f438584f2946643653f63d332f14497dc3d1597bafc6ce70d4a500037c01501", "039b95e6d6d2b09da98771ada6173eab4ee2890a0ac2af993bc0e8b9584f580e83"], "sequence": 4294967294, "scriptSig": {"hex": "160014cce0ba169b67d553e28ec20af95a0d85f48f7ddf", "asm": "0014cce0ba169b67d553e28ec20af95a0d85f48f7ddf"}, "vout": 12, "txid": "92f5a254914f3892a6eba65a9a047e4b121d2d1405354231e3d41eb667e95744"}], "txid": "f2cbaf12463e7f44ab0fe38633f55bdc476457fd85036a6149d82972cf380c14", "blocktime": 1537873282, "version": 2, "confirmations": 11481, "time": 1537873282, "locktime": 542995, "vsize": 820, "size": 901}