{"hash": "9d766fd539bb44ecdaa1d9a9fd77151b00aed8b2bc9c52f2542081fb869eb7a9", "blockhash": "0000000000000000000baef3f32e3676a92c3b2e5da21b426e4f302fc371ce76", "vout": [{"scriptPubKey": {"reqSigs": 1, "hex": "76a91459be83745bc51875856b3b3b29120d31c47031ae88ac", "addresses": ["19BXNBb6Ya6oVenmi6CT2XW3EiQHjzbBay"], "asm": "OP_DUP OP_HASH160 59be83745bc51875856b3b3b29120d31c47031ae OP_EQUALVERIFY OP_CHECKSIG", "type": "pubkeyhash"}, "value": 0.01013975, "n": 0}, {"scriptPubKey": {"reqSigs": 1, "hex": "a914ea1586db77b5317fdce5a5a3784e2916fc3b090087", "addresses": ["3P2jq93DWGegSWj7sEPCQFGeFSHJxKJBWA"], "asm": "OP_HASH160 ea1586db77b5317fdce5a5a3784e2916fc3b0900 OP_EQUAL", "type": "scripthash"}, "value": 0.1, "n": 1}], "hex": "020000000001040d9b46bf3df3bf6c8dc6f46ab7dcdd324c691d8ba6d76b42b84a419e1325aeaa000000006b483045022100c25abccfd3e91e43e68058d0acae0c2fa2be5ab98116b92c148886866f81ffff022042424da1cbde4772f5125221a6dcbafa7ae40c1db3b48306fe16c3117e704f9a012103c734d20d0137111d5f4f6be82f0f99c50205af678c03b52f43cedc0d69a0af2dfeffffff17080deb0e81bb6edc81874eab28e7f6e6ad3865fabb55790f291a783c4f05bd000000006a47304402207cf956880661c0ca94a75573e8444ead22833d92fb6739deffc9e06dbbcc6a1702206787ced8513985054c9e8e573c9481fea70b6d940cef365cf74a5cacf6f84f6b01210346978f7ee30aae8863472a177ca9152fa760092d1fbc21bdf3cec85090a95e67feffffff9160a66596d2fac37c7c109c4adfc54e19e1fa54a30ab82f314120d5efbddffd000000006a47304402202f0bff11cfbe9329f4a3094eaf34c7c7994927248a97bbd4aa368acf2f96038d02205aeeb11b03899e6c0d386b8416c5b6f1fab3a2b6661368dcad04f0ee329e2cb20121024d4622e48df05455e9869177268c387fc84fd34fedfa0d613065b4976304e2eafeffffff9e0be41223b52258524fbbd1166328d314d0b9ef85df966af10bced25eb1288a00000000171600145643cce6b7f82451a507c28f06269b8ba300034bfeffffff02d7780f00000000001976a91459be83745bc51875856b3b3b29120d31c47031ae88ac809698000000000017a914ea1586db77b5317fdce5a5a3784e2916fc3b09008700000002483045022100bbf45fdd5d4e5f123211328a058710ca0abe202c054c31ea86cafe5196028c5302203bbdeb137df7e11e50a655ad982d678555dc179e17f9cc0135d2f45e87b0cf03012102e06164e449e6fdf389faa29d642b65158b53878e9e6e54f48916ad6de22fd5d417490800", "vin": [{"sequence": 4294967294, "scriptSig": {"hex": "483045022100c25abccfd3e91e43e68058d0acae0c2fa2be5ab98116b92c148886866f81ffff022042424da1cbde4772f5125221a6dcbafa7ae40c1db3b48306fe16c3117e704f9a012103c734d20d0137111d5f4f6be82f0f99c50205af678c03b52f43cedc0d69a0af2d", "asm": "3045022100c25abccfd3e91e43e68058d0acae0c2fa2be5ab98116b92c148886866f81ffff022042424da1cbde4772f5125221a6dcbafa7ae40c1db3b48306fe16c3117e704f9a[ALL] 03c734d20d0137111d5f4f6be82f0f99c50205af678c03b52f43cedc0d69a0af2d"}, "vout": 0, "txid": "aaae25139e414ab8426bd7a68b1d694c32dddcb76af4c68d6cbff33dbf469b0d"}, {"sequence": 4294967294, "scriptSig": {"hex": "47304402207cf956880661c0ca94a75573e8444ead22833d92fb6739deffc9e06dbbcc6a1702206787ced8513985054c9e8e573c9481fea70b6d940cef365cf74a5cacf6f84f6b01210346978f7ee30aae8863472a177ca9152fa760092d1fbc21bdf3cec85090a95e67", "asm": "304402207cf956880661c0ca94a75573e8444ead22833d92fb6739deffc9e06dbbcc6a1702206787ced8513985054c9e8e573c9481fea70b6d940cef365cf74a5cacf6f84f6b[ALL] 0346978f7ee30aae8863472a177ca9152fa760092d1fbc21bdf3cec85090a95e67"}, "vout": 0, "txid": "bd054f3c781a290f7955bbfa6538ade6f6e728ab4e8781dc6ebb810eeb0d0817"}, {"sequence": 4294967294, "scriptSig": {"hex": "47304402202f0bff11cfbe9329f4a3094eaf34c7c7994927248a97bbd4aa368acf2f96038d02205aeeb11b03899e6c0d386b8416c5b6f1fab3a2b6661368dcad04f0ee329e2cb20121024d4622e48df05455e9869177268c387fc84fd34fedfa0d613065b4976304e2ea", "asm": "304402202f0bff11cfbe9329f4a3094eaf34c7c7994927248a97bbd4aa368acf2f96038d02205aeeb11b03899e6c0d386b8416c5b6f1fab3a2b6661368dcad04f0ee329e2cb2[ALL] 024d4622e48df05455e9869177268c387fc84fd34fedfa0d613065b4976304e2ea"}, "vout": 0, "txid": "fddfbdefd52041312fb80aa354fae1194ec5df4a9c107c7cc3fad29665a66091"}, {"txinwitness": ["3045022100bbf45fdd5d4e5f123211328a058710ca0abe202c054c31ea86cafe5196028c5302203bbdeb137df7e11e50a655ad982d678555dc179e17f9cc0135d2f45e87b0cf0301", "02e06164e449e6fdf389faa29d642b65158b53878e9e6e54f48916ad6de22fd5d4"], "sequence": 4294967294, "scriptSig": {"hex": "1600145643cce6b7f82451a507c28f06269b8ba300034b", "asm": "00145643cce6b7f82451a507c28f06269b8ba300034b"}, "vout": 0, "txid": "8a28b15ed2ce0bf16a96df85efb9d014d3286316d1bb4f525822b52312e40b9e"}], "txid": "f2cd84085a5faeac8e64ba5979c37a24906586349a18ed3dd2d492eef7b7080e", "blocktime": 1537876114, "version": 2, "confirmations": 11459, "time": 1537876114, "locktime": 542999, "vsize": 611, "size": 695}