{"hash": "0896718508ceee6bb899f2100a8b37d1740c54e8c3ddacb06b31b3923d67b133", "blockhash": "0000000000000000000baef3f32e3676a92c3b2e5da21b426e4f302fc371ce76", "vout": [{"scriptPubKey": {"reqSigs": 1, "hex": "a914748a3925bdec429363a93c40fea39f0a1fa009c387", "addresses": ["3CKDtiQEaynWF9vxRMt2MUJGrhumGAYcTG"], "asm": "OP_HASH160 748a3925bdec429363a93c40fea39f0a1fa009c3 OP_EQUAL", "type": "scripthash"}, "value": 0.0025146, "n": 0}, {"scriptPubKey": {"reqSigs": 1, "hex": "a9147fac77363d83aedfdf122b4eea348364fc182c2287", "addresses": ["3DL6M2m2A7Fx17N4u2N3Q7uFK6vVcNXydy"], "asm": "OP_HASH160 7fac77363d83aedfdf122b4eea348364fc182c22 OP_EQUAL", "type": "scripthash"}, "value": 0.0100266, "n": 1}], "hex": "02000000000102019f4df114cc90dc449192ac6ebe6645e13908d59b755b05797485bff0b9a0ee0100000017160014d28269556cd479ffc7468016ef01288ee22aa2d1feffffffe1d2ad96012d9b3b17b65ec7e58caea49c9076ca2d9039f46f246f9d1103bbcd0000000017160014d3988c39864f508ffeeb85192d72c356061ef7a3feffffff0244d603000000000017a914748a3925bdec429363a93c40fea39f0a1fa009c387a44c0f000000000017a9147fac77363d83aedfdf122b4eea348364fc182c2287024730440220265ac6af8a074e7117b9371122fff88c5acefe63c899801db50ed7b0468380960220739a6d5dd7d6312287cb198c4bb655f6df0d1db2776ae61cac0dc64250f34f29012103eb1f072dfeab323db3b50ad252e4a231692f87d550b57554ca7bc0e2e2a3f3b40247304402202097f62658401dac303145f119f240b0008388bfed24b84951531e7c10c020fc02201cabaf9e3f5662e4ac8ae41bd5e8728a063df638f21e971d7de22d9c19f568eb0121029f3a30ac5c925c060e6cec48fc034cf6d3c38710ae44055174301ee289a55e0904490800", "vin": [{"txinwitness": ["30440220265ac6af8a074e7117b9371122fff88c5acefe63c899801db50ed7b0468380960220739a6d5dd7d6312287cb198c4bb655f6df0d1db2776ae61cac0dc64250f34f2901", "03eb1f072dfeab323db3b50ad252e4a231692f87d550b57554ca7bc0e2e2a3f3b4"], "sequence": 4294967294, "scriptSig": {"hex": "160014d28269556cd479ffc7468016ef01288ee22aa2d1", "asm": "0014d28269556cd479ffc7468016ef01288ee22aa2d1"}, "vout": 1, "txid": "eea0b9f0bf857479055b759bd50839e14566be6eac929144dc90cc14f14d9f01"}, {"txinwitness": ["304402202097f62658401dac303145f119f240b0008388bfed24b84951531e7c10c020fc02201cabaf9e3f5662e4ac8ae41bd5e8728a063df638f21e971d7de22d9c19f568eb01", "029f3a30ac5c925c060e6cec48fc034cf6d3c38710ae44055174301ee289a55e09"], "sequence": 4294967294, "scriptSig": {"hex": "160014d3988c39864f508ffeeb85192d72c356061ef7a3", "asm": "0014d3988c39864f508ffeeb85192d72c356061ef7a3"}, "vout": 0, "txid": "cdbb03119d6f246ff439902dca76909ca4ae8ce5c75eb6173b9b2d0196add2e1"}], "txid": "f2d01e4ed85b51e32eda4aacc87095847372250ecc2ed9ce95d042b5c8549750", "blocktime": 1537876114, "version": 2, "confirmations": 11461, "time": 1537876114, "locktime": 542980, "vsize": 256, "size": 418}