{"hash": "f2d254ad2a451195b8e374c20f31a2cd752f9396b55939244cb005d573ad1952", "blockhash": "000000000000000000022b45ed06c6f4ccd3cf7fb5ba4856ebd2e58215665228", "vout": [{"scriptPubKey": {"type": "nulldata", "hex": "6a4c500000775c00010f99ba3cf20259cb5014fffa3a016b46dc7dc7d0968d120d670c1906f999e00b6b3cf12aaa55f96e175ab0a415755baa06fe06128d3ff5472e164bbf23acfcfaac8058b692fe6808c31d", "asm": "OP_RETURN 0000775c00010f99ba3cf20259cb5014fffa3a016b46dc7dc7d0968d120d670c1906f999e00b6b3cf12aaa55f96e175ab0a415755baa06fe06128d3ff5472e164bbf23acfcfaac8058b692fe6808c31d"}, "value": 0.0, "n": 0}, {"scriptPubKey": {"reqSigs": 1, "hex": "76a914a9b58c1616ded55f38dba54566a5eb273ae9383888ac", "addresses": ["1GULgYNAhFF4c9fhUiMqXe5S4ZoFqpAw3C"], "asm": "OP_DUP OP_HASH160 a9b58c1616ded55f38dba54566a5eb273ae93838 OP_EQUALVERIFY OP_CHECKSIG", "type": "pubkeyhash"}, "value": 0.00040169, "n": 1}], "hex": "0100000001b3cbf8d38a2906b4225b2274453890bea6160e1543ba270a664d03a2ffc22d07010000006b483045022100d45a948a16fa41ed5b4a22720071407a1fe68f999ca4b29fb645c6d39914c2dd022018e2741e89756e79fb3ff27535e7ab61adedc0e18d16c4284caedf1be3c9c32201210231f6c631db88b3266d4cf09a6f987f31e9a1e13f9332dde7434e4d547e3054e7ffffffff020000000000000000536a4c500000775c00010f99ba3cf20259cb5014fffa3a016b46dc7dc7d0968d120d670c1906f999e00b6b3cf12aaa55f96e175ab0a415755baa06fe06128d3ff5472e164bbf23acfcfaac8058b692fe6808c31de99c0000000000001976a914a9b58c1616ded55f38dba54566a5eb273ae9383888ac00000000", "vin": [{"sequence": 4294967295, "scriptSig": {"hex": "483045022100d45a948a16fa41ed5b4a22720071407a1fe68f999ca4b29fb645c6d39914c2dd022018e2741e89756e79fb3ff27535e7ab61adedc0e18d16c4284caedf1be3c9c32201210231f6c631db88b3266d4cf09a6f987f31e9a1e13f9332dde7434e4d547e3054e7", "asm": "3045022100d45a948a16fa41ed5b4a22720071407a1fe68f999ca4b29fb645c6d39914c2dd022018e2741e89756e79fb3ff27535e7ab61adedc0e18d16c4284caedf1be3c9c322[ALL] 0231f6c631db88b3266d4cf09a6f987f31e9a1e13f9332dde7434e4d547e3054e7"}, "vout": 1, "txid": "072dc2ffa2034d660a27ba43150e16a6be90384574225b22b406298ad3f8cbb3"}], "txid": "f2d254ad2a451195b8e374c20f31a2cd752f9396b55939244cb005d573ad1952", "blocktime": 1537869901, "version": 1, "confirmations": 11523, "time": 1537869901, "locktime": 0, "vsize": 284, "size": 284}