{"hash": "f2d3f90838101c7210ed982047f0a6f02a4b0967ce4ccc4c86bd5f2955f5e24f", "blockhash": "0000000000000000001cda96e906b7601b7a6fb1a3b62bca570a9e5d8f4b3de1", "vout": [{"scriptPubKey": {"reqSigs": 1, "hex": "76a914b4a276bd207619b9a512c92030e96f9552d9bc4488ac", "addresses": ["1HU7FiQHDiJTgEisPpg2FKAWVw4hY5qZB5"], "asm": "OP_DUP OP_HASH160 b4a276bd207619b9a512c92030e96f9552d9bc44 OP_EQUALVERIFY OP_CHECKSIG", "type": "pubkeyhash"}, "value": 1.25693678, "n": 0}, {"scriptPubKey": {"reqSigs": 1, "hex": "a9145665227482c7aab4325b6469f0f7335a95c03d8787", "addresses": ["39ZqBzhmr2FaN8eSBVxswbUV3bm143UZmT"], "asm": "OP_HASH160 5665227482c7aab4325b6469f0f7335a95c03d87 OP_EQUAL", "type": "scripthash"}, "value": 0.00235574, "n": 1}], "hex": "020000000105aed750a7092c7f660f6e9bd1ce011a83bc3f1b6a466d5ead8fc292685c5db6030000006a473044022025394e4a9fa68d4acf47267ec413c9f2f891038b7e507640f2f9ccf07c853ebf02203d464304d62199a70cb8bdc09e655429321a90ef2aad4dfa62ef27462684a8610121033a02b1359eb4f0707aac1b3959a6f3a603d9a08b5523a8efd170b953da905499ffffffff02eeee7d07000000001976a914b4a276bd207619b9a512c92030e96f9552d9bc4488ac369803000000000017a9145665227482c7aab4325b6469f0f7335a95c03d878700000000", "vin": [{"sequence": 4294967295, "scriptSig": {"hex": "473044022025394e4a9fa68d4acf47267ec413c9f2f891038b7e507640f2f9ccf07c853ebf02203d464304d62199a70cb8bdc09e655429321a90ef2aad4dfa62ef27462684a8610121033a02b1359eb4f0707aac1b3959a6f3a603d9a08b5523a8efd170b953da905499", "asm": "3044022025394e4a9fa68d4acf47267ec413c9f2f891038b7e507640f2f9ccf07c853ebf02203d464304d62199a70cb8bdc09e655429321a90ef2aad4dfa62ef27462684a861[ALL] 033a02b1359eb4f0707aac1b3959a6f3a603d9a08b5523a8efd170b953da905499"}, "vout": 3, "txid": "b65d5c6892c28fad5e6d466a1b3fbc831a01ced19b6e0f667f2c09a750d7ae05"}], "txid": "f2d3f90838101c7210ed982047f0a6f02a4b0967ce4ccc4c86bd5f2955f5e24f", "blocktime": 1537873282, "version": 2, "confirmations": 11481, "time": 1537873282, "locktime": 0, "vsize": 223, "size": 223}