{"hash": "7543669e8acfa9013ae9d189d0424e4bb59c2d745846fda6d4705a5c9f6f1ae9", "blockhash": "0000000000000000000e13cef7c366c0283d82e591d1acd082e914b08063cdf1", "vout": [{"scriptPubKey": {"reqSigs": 1, "hex": "a914f5cabf4b1fdcf9f37d16dbdc1502ab514e92bc2a87", "addresses": ["3Q6eMffRK69YoLvo83VwYvva5ghwJxk4UC"], "asm": "OP_HASH160 f5cabf4b1fdcf9f37d16dbdc1502ab514e92bc2a OP_EQUAL", "type": "scripthash"}, "value": 0.26496892, "n": 0}, {"scriptPubKey": {"reqSigs": 1, "hex": "a91464a28d619d4da2dfb032c56a4811f03a19c095c387", "addresses": ["3As8E4EYvkgNy7iHWoxq4CtyxysNgDMF1s"], "asm": "OP_HASH160 64a28d619d4da2dfb032c56a4811f03a19c095c3 OP_EQUAL", "type": "scripthash"}, "value": 0.04748948, "n": 1}], "hex": "02000000000101e662d7f2264780b7916e9b6306e13e6490ab2201dea71da94c2cd4b8db339e700100000017160014f74d44e9cc6d737ac7ca90bfc721213ce57d7c85feffffff027c4f94010000000017a914f5cabf4b1fdcf9f37d16dbdc1502ab514e92bc2a87947648000000000017a91464a28d619d4da2dfb032c56a4811f03a19c095c3870247304402207f250a18b2bf83412b29b1de8127469b4f70f6b75c18d472b145e7efc2c6539b0220094e2c811832d0054a36dcab1a0db6c0ef3b8d3badd9c793f5fe5f6ca4dd89d3012102dc406187e5e7eda9cf3a6d4ebe9c7ad0845d01491b3538c7e10d4912a586b97410490800", "vin": [{"txinwitness": ["304402207f250a18b2bf83412b29b1de8127469b4f70f6b75c18d472b145e7efc2c6539b0220094e2c811832d0054a36dcab1a0db6c0ef3b8d3badd9c793f5fe5f6ca4dd89d301", "02dc406187e5e7eda9cf3a6d4ebe9c7ad0845d01491b3538c7e10d4912a586b974"], "sequence": 4294967294, "scriptSig": {"hex": "160014f74d44e9cc6d737ac7ca90bfc721213ce57d7c85", "asm": "0014f74d44e9cc6d737ac7ca90bfc721213ce57d7c85"}, "vout": 1, "txid": "709e33dbb8d42c4ca91da7de0122ab90643ee106639b6e91b7804726f2d762e6"}], "txid": "f2d363a96125b082872f1668337206e89a18291fdcd5a12d5a17929a1f97d88d", "blocktime": 1537871767, "version": 2, "confirmations": 11490, "time": 1537871767, "locktime": 542992, "vsize": 166, "size": 247}