{"hash": "f2d44a6a0a676ba2e884cf1d6ce11a4f4dabef920b3e8a86b4ba3a9daebe654b", "blockhash": "0000000000000000001f76057863aec43deb6fa401d9628bb513d65a8098bfab", "vout": [{"scriptPubKey": {"reqSigs": 1, "hex": "a914b3ffed7b9345c7c3429a4e66575d4839bacb890787", "addresses": ["3J6mU3hpigvnMji4geLsqa4hLoji7DhhRe"], "asm": "OP_HASH160 b3ffed7b9345c7c3429a4e66575d4839bacb8907 OP_EQUAL", "type": "scripthash"}, "value": 0.02970098, "n": 0}, {"scriptPubKey": {"reqSigs": 1, "hex": "76a914f66445bee9413851cb402b8b06d39d76af956b0488ac", "addresses": ["1PToMF2btnVeQgxtbYsAcGeejCuvwA2pvU"], "asm": "OP_DUP OP_HASH160 f66445bee9413851cb402b8b06d39d76af956b04 OP_EQUALVERIFY OP_CHECKSIG", "type": "pubkeyhash"}, "value": 0.73929082, "n": 1}], "hex": "01000000013773d45ae7cb917b77618db12b38983caafc8deec02c41dea7123c9abf56d593010000006b48304502210091dcfb2332856aa7ec612fba17681bd17f7764b29d6398b0178958809e8ade1e02206cc7a22d311fa5825ba57d1e983a73e59c7e8f4a8afb666968d71078d08b5e5f012102a35ff70a7b53f86911b1f5c988616834d25e1ab7955c6d01b376434e003881b7ffffffff02f2512d000000000017a914b3ffed7b9345c7c3429a4e66575d4839bacb8907877a116804000000001976a914f66445bee9413851cb402b8b06d39d76af956b0488ac00000000", "vin": [{"sequence": 4294967295, "scriptSig": {"hex": "48304502210091dcfb2332856aa7ec612fba17681bd17f7764b29d6398b0178958809e8ade1e02206cc7a22d311fa5825ba57d1e983a73e59c7e8f4a8afb666968d71078d08b5e5f012102a35ff70a7b53f86911b1f5c988616834d25e1ab7955c6d01b376434e003881b7", "asm": "304502210091dcfb2332856aa7ec612fba17681bd17f7764b29d6398b0178958809e8ade1e02206cc7a22d311fa5825ba57d1e983a73e59c7e8f4a8afb666968d71078d08b5e5f[ALL] 02a35ff70a7b53f86911b1f5c988616834d25e1ab7955c6d01b376434e003881b7"}, "vout": 1, "txid": "93d556bf9a3c12a7de412cc0ee8dfcaa3c98382bb18d61777b91cbe75ad47337"}], "txid": "f2d44a6a0a676ba2e884cf1d6ce11a4f4dabef920b3e8a86b4ba3a9daebe654b", "blocktime": 1537873891, "version": 1, "confirmations": 11477, "time": 1537873891, "locktime": 0, "vsize": 224, "size": 224}