{"hash": "b92557007ddb4d2a8f46b7b6e6286e6184990974fc6d327170d4f2019d6ff0d0", "blockhash": "0000000000000000001cda96e906b7601b7a6fb1a3b62bca570a9e5d8f4b3de1", "vout": [{"scriptPubKey": {"reqSigs": 1, "hex": "a914a57b8df7f6a60900d8ffc0571d5654b48618417287", "addresses": ["3Gn1RvAXLcxE8CDx721M99B9XPf7hyr8nE"], "asm": "OP_HASH160 a57b8df7f6a60900d8ffc0571d5654b486184172 OP_EQUAL", "type": "scripthash"}, "value": 0.05656855, "n": 0}, {"scriptPubKey": {"reqSigs": 1, "hex": "0014684c6edecf0d89f6c5b21bf98aec50fdd7e292b5", "addresses": ["bc1qdpxxahk0pkyld3djr0uc4mzslht79y4468ne5h"], "asm": "0 684c6edecf0d89f6c5b21bf98aec50fdd7e292b5", "type": "witness_v0_keyhash"}, "value": 0.01104325, "n": 1}], "hex": "0100000000010194eb6a15e474486684380785586a0eb55c602e2de0368955682f451688bd1c072600000017160014376822da20cd88cf2f3168dd800a76c6f9271a0affffffff02175156000000000017a914a57b8df7f6a60900d8ffc0571d5654b48618417287c5d9100000000000160014684c6edecf0d89f6c5b21bf98aec50fdd7e292b50247304402202aa0a138152b850e3f53e477f04443fc3c26dd466c4be90ac477b32dcd89a311022005d8a3035994d0e31c6038fee183fe96a5f3d566469e1501346f0a7b7b3c5810012102754fcc6d3e9e4249ebc27468064b8de97acfd2fac53d94a26b2a0d47bed44d8000000000", "vin": [{"txinwitness": ["304402202aa0a138152b850e3f53e477f04443fc3c26dd466c4be90ac477b32dcd89a311022005d8a3035994d0e31c6038fee183fe96a5f3d566469e1501346f0a7b7b3c581001", "02754fcc6d3e9e4249ebc27468064b8de97acfd2fac53d94a26b2a0d47bed44d80"], "sequence": 4294967295, "scriptSig": {"hex": "160014376822da20cd88cf2f3168dd800a76c6f9271a0a", "asm": "0014376822da20cd88cf2f3168dd800a76c6f9271a0a"}, "vout": 38, "txid": "071cbd8816452f68558936e02d2e605cb50e6a5885073884664874e4156aeb94"}], "txid": "f2dd29a5cdf5434ec1ec085a1e2bc0791a5ab9d1b2985f763c76b50f003cba6a", "blocktime": 1537873282, "version": 1, "confirmations": 11484, "time": 1537873282, "locktime": 0, "vsize": 165, "size": 246}