{"hash": "71d013f070d33f5cd3bbfc786df443797ed6d84787277ae686bb7e88e586e7e7", "blockhash": "0000000000000000001f0ddff1eddb255c1121bcd4da4f1bc9a0da00cae72433", "vout": [{"scriptPubKey": {"reqSigs": 1, "hex": "a914dd1a9944e6fd23c20653a24211bcbfb6c6bb7efa87", "addresses": ["3Mr783ngyTQdEcCKd7U1vDKJgz7DY1zsPJ"], "asm": "OP_HASH160 dd1a9944e6fd23c20653a24211bcbfb6c6bb7efa OP_EQUAL", "type": "scripthash"}, "value": 1.9606885, "n": 0}], "hex": "0100000000010895a79031e51425b286a625e9e1eb344bf341b1911b1ddc6abd6eddafe978d7020000000017160014d68a974aa58798ef2679eaabf8df6be03e92e228fdffffff77db2a02173e8526ba8959c620cf436298047ed65ed885e4dcda363e969a000d01000000171600147c1400836c45476ab51fed95e78427f97cf0ee64fdffffff7e25432ade7df3916fed2b9c6fc9f2c55fcde321ca4b75416d985756a9fa9b5c0100000017160014412d64d25130284111b0251221cfcc3d86388575fdffffff5ba5f3c67f4297421d89cc1c47f73f4bec4276bf14b6c2d7c336261e4e7113650000000017160014ad2f9f2cf850752fa9ebd24fd432fed85012cc80fdffffff72fd77fda2c56947f48a8d5cd07d0ea37c5de70aca47beaa2936b8a91e6646680000000017160014e10fc49b26bbf732ae91867f877702b4a216209efdffffff6e5fa1266111a95031dd842a8bd345c662b02e6893614c81c1c4c3a7892a946a010000001716001428d4afa646891b9facf8a9bec05bd6f8917b320efdffffffc95f7680c4b0ee074345b99bd49ab6cc9f6b6f08fd583aa9986f2d89cf2486af0100000017160014b545d15471cab2722af20126de60c21be067ad8afdfffffff36a28b4df5f18772aafbfbf9b6b0072eea99d03463adcdfd7656f1a5f2269bd0000000017160014f3717a92c96406e9760f6705f48689289b30dea6fdffffff01f2c5af0b0000000017a914dd1a9944e6fd23c20653a24211bcbfb6c6bb7efa8702473044022025dea250d85faeebe42caf5abfb8eff7b056ea9d50d4997982a170bc9e7bb2b00220353fd6f1e675c4ec0bcf3d5e2c1a9d75ec86cc5e6505d8a10068e2b59b36562a0121020f262e654c6e507bebdaeb2815af854e3c56ec0387d36591851ae5425acaf68b0248304502210094e84f45a2728bc3766277becd36eb93efaf8bb70c5238fb1e173d0b15533b0602203b40a6fa9aeccf5448d7e326e3202d28b30879c07ef59b8c9622ea87a934aede012102816e2371f07abd8c78422a2d29eb9d717dfb967b7ac3abc3026244a6044548630247304402201138dd738d7f302537051831ee00e6be1c4aff3a664d43d808195a3445267b0f02203a05e82596850818a15e47c07620683e5ebad3e56a7d0a79b8746e5c7c0c534b01210231d9c59dde1f26c4df98ff1a0ebbe571b4e2ccdfa1c046be8ce0a7c07bedddba02483045022100d4768af983adcef0b3e20ea4768c21368b34b183562f43fffce75c9f4983517e0220734dd5664da5a45dba7f70537a532ac4bc77b98dbc75fb4756f61e3443016194012102feadda56a32461001c90175baa21c1f6fb7be13f73e58026239b19299ed83db60247304402203724e6b37b2211a30c163945e41f6ff9f28db32ed521507fde63e3dce523de2f0220046c5ad3dd1a1e32f0807624d854408f123603be52b6702ff90b711fee23e3c8012103ee17d7dfa96313f29bc9b11f4d1807c0e1cf377995a53646e144d83457f1b27302483045022100d26a0e2fcd0afb2d2572820b359ffc51aabfcb202b99126a018c498fecd1ef7302203588d69a2e524b4405ad5a89fa747a08c8565421a4b2753aabf4db8b7eeb9f4701210310eacbb6a70a6d255af462d1fee7e8cd4669acd39bae1db51b77a622a8940aea0247304402200531cff0d2c6481d5a1b4443d615233c1cf949a489c416830f7efebfa4f872fd0220504a03e25a85dfa8e728f68c74e6d4c1908fb5be1f9c7f3547d2806055b70452012103c476436da84f9718eb060d534c80fe0fb40470d2309fec634942c6ddaf4389c9024830450221008a32a3073a32f1a6c761b3df81583343d9cce8463e21ad20e82b95584ce9a17402206b54f022a5553ff1c9bc5adc36060726beab63eb27f2bc3ab89decaa56265d5001210238b72e26308b4e10a479d6448c09ecd63424fd17aa8e111f4e68f68cb20c368c11490800", "vin": [{"txinwitness": ["3044022025dea250d85faeebe42caf5abfb8eff7b056ea9d50d4997982a170bc9e7bb2b00220353fd6f1e675c4ec0bcf3d5e2c1a9d75ec86cc5e6505d8a10068e2b59b36562a01", "020f262e654c6e507bebdaeb2815af854e3c56ec0387d36591851ae5425acaf68b"], "sequence": 4294967293, "scriptSig": {"hex": "160014d68a974aa58798ef2679eaabf8df6be03e92e228", "asm": "0014d68a974aa58798ef2679eaabf8df6be03e92e228"}, "vout": 0, "txid": "02d778e9afdd6ebd6adc1d1b91b141f34b34ebe1e925a686b22514e53190a795"}, {"txinwitness": ["304502210094e84f45a2728bc3766277becd36eb93efaf8bb70c5238fb1e173d0b15533b0602203b40a6fa9aeccf5448d7e326e3202d28b30879c07ef59b8c9622ea87a934aede01", "02816e2371f07abd8c78422a2d29eb9d717dfb967b7ac3abc3026244a604454863"], "sequence": 4294967293, "scriptSig": {"hex": "1600147c1400836c45476ab51fed95e78427f97cf0ee64", "asm": "00147c1400836c45476ab51fed95e78427f97cf0ee64"}, "vout": 1, "txid": "0d009a963e36dadce485d85ed67e04986243cf20c65989ba26853e17022adb77"}, {"txinwitness": ["304402201138dd738d7f302537051831ee00e6be1c4aff3a664d43d808195a3445267b0f02203a05e82596850818a15e47c07620683e5ebad3e56a7d0a79b8746e5c7c0c534b01", "0231d9c59dde1f26c4df98ff1a0ebbe571b4e2ccdfa1c046be8ce0a7c07bedddba"], "sequence": 4294967293, "scriptSig": {"hex": "160014412d64d25130284111b0251221cfcc3d86388575", "asm": "0014412d64d25130284111b0251221cfcc3d86388575"}, "vout": 1, "txid": "5c9bfaa95657986d41754bca21e3cd5fc5f2c96f9c2bed6f91f37dde2a43257e"}, {"txinwitness": ["3045022100d4768af983adcef0b3e20ea4768c21368b34b183562f43fffce75c9f4983517e0220734dd5664da5a45dba7f70537a532ac4bc77b98dbc75fb4756f61e344301619401", "02feadda56a32461001c90175baa21c1f6fb7be13f73e58026239b19299ed83db6"], "sequence": 4294967293, "scriptSig": {"hex": "160014ad2f9f2cf850752fa9ebd24fd432fed85012cc80", "asm": "0014ad2f9f2cf850752fa9ebd24fd432fed85012cc80"}, "vout": 0, "txid": "6513714e1e2636c3d7c2b614bf7642ec4b3ff7471ccc891d4297427fc6f3a55b"}, {"txinwitness": ["304402203724e6b37b2211a30c163945e41f6ff9f28db32ed521507fde63e3dce523de2f0220046c5ad3dd1a1e32f0807624d854408f123603be52b6702ff90b711fee23e3c801", "03ee17d7dfa96313f29bc9b11f4d1807c0e1cf377995a53646e144d83457f1b273"], "sequence": 4294967293, "scriptSig": {"hex": "160014e10fc49b26bbf732ae91867f877702b4a216209e", "asm": "0014e10fc49b26bbf732ae91867f877702b4a216209e"}, "vout": 0, "txid": "6846661ea9b83629aabe47ca0ae75d7ca30e7dd05c8d8af44769c5a2fd77fd72"}, {"txinwitness": ["3045022100d26a0e2fcd0afb2d2572820b359ffc51aabfcb202b99126a018c498fecd1ef7302203588d69a2e524b4405ad5a89fa747a08c8565421a4b2753aabf4db8b7eeb9f4701", "0310eacbb6a70a6d255af462d1fee7e8cd4669acd39bae1db51b77a622a8940aea"], "sequence": 4294967293, "scriptSig": {"hex": "16001428d4afa646891b9facf8a9bec05bd6f8917b320e", "asm": "001428d4afa646891b9facf8a9bec05bd6f8917b320e"}, "vout": 1, "txid": "6a942a89a7c3c4c1814c6193682eb062c645d38b2a84dd3150a9116126a15f6e"}, {"txinwitness": ["304402200531cff0d2c6481d5a1b4443d615233c1cf949a489c416830f7efebfa4f872fd0220504a03e25a85dfa8e728f68c74e6d4c1908fb5be1f9c7f3547d2806055b7045201", "03c476436da84f9718eb060d534c80fe0fb40470d2309fec634942c6ddaf4389c9"], "sequence": 4294967293, "scriptSig": {"hex": "160014b545d15471cab2722af20126de60c21be067ad8a", "asm": "0014b545d15471cab2722af20126de60c21be067ad8a"}, "vout": 1, "txid": "af8624cf892d6f98a93a58fd086f6b9fccb69ad49bb9454307eeb0c480765fc9"}, {"txinwitness": ["30450221008a32a3073a32f1a6c761b3df81583343d9cce8463e21ad20e82b95584ce9a17402206b54f022a5553ff1c9bc5adc36060726beab63eb27f2bc3ab89decaa56265d5001", "0238b72e26308b4e10a479d6448c09ecd63424fd17aa8e111f4e68f68cb20c368c"], "sequence": 4294967293, "scriptSig": {"hex": "160014f3717a92c96406e9760f6705f48689289b30dea6", "asm": "0014f3717a92c96406e9760f6705f48689289b30dea6"}, "vout": 0, "txid": "bd69225f1a6f65d7dfdc3a46039da9ee72006b9bbfbfaf2a77185fdfb4286af3"}], "txid": "f2de9cb435c528b883992e3268ed2653b4d23e0cf32b69170ebad399c1cb9e3d", "blocktime": 1537872018, "version": 1, "confirmations": 11489, "time": 1537872018, "locktime": 542993, "vsize": 770, "size": 1416}