{"hash": "f2e182de408a925a0b876fd8da3d88faf601088a894bf85361250f68f1fd6cda", "blockhash": "00000000000000000018f53835495a110e01622372bf6ae95dc86f2b0ab887b0", "vout": [{"scriptPubKey": {"reqSigs": 1, "hex": "76a914dc93a1cc7ddb4c90ea68adc38fd372e7b1a39f5388ac", "addresses": ["1M7JWrdfHoaHJ1GYbtr4X2aPXRWuj3RToa"], "asm": "OP_DUP OP_HASH160 dc93a1cc7ddb4c90ea68adc38fd372e7b1a39f53 OP_EQUALVERIFY OP_CHECKSIG", "type": "pubkeyhash"}, "value": 0.05752186, "n": 0}, {"scriptPubKey": {"reqSigs": 1, "hex": "a91458f3fd467f7680096c6968b667bbf279ab70655087", "addresses": ["39oMg6uExdFyRqr2ttUfF879VNufMEpa8q"], "asm": "OP_HASH160 58f3fd467f7680096c6968b667bbf279ab706550 OP_EQUAL", "type": "scripthash"}, "value": 0.11, "n": 1}], "hex": "0100000002fd9aa6352d893161a3364cae40f00ae0b5d5050bc5a67a0bb441beca6d730f32000000006a47304402200122fef3520cd6690807560aeb8769306d132216b9653b57ce5d4014517c2b0a022051c9c7b71588f99b27151aaa0a9a9699f8c3e737aae0961adaecd4d9ddb3c57b0121038a56cffe7d18f6f7084de5c72931abd5e8bfd5a1c1d8ffbd3e5d47a15659f0a2ffffffff3b50a24e5f6caa2ebe9fde74e1f0ae9b11e0350dae667216952786b2e94c8143000000006a4730440220269a49099b3d055e9b7b0c486963c64eb87ef04fad3b6244eef6ee065af6a62902207cff55584f5332dbaaf59f64006955c5c8f7be770dd6fe8fd73b7f46933b0fcc012103496e40a3bba5caa639023a3aeb45aa794356ef17d9bc38d0cd038b2a9dccc899ffffffff027ac55700000000001976a914dc93a1cc7ddb4c90ea68adc38fd372e7b1a39f5388acc0d8a7000000000017a91458f3fd467f7680096c6968b667bbf279ab7065508700000000", "vin": [{"sequence": 4294967295, "scriptSig": {"hex": "47304402200122fef3520cd6690807560aeb8769306d132216b9653b57ce5d4014517c2b0a022051c9c7b71588f99b27151aaa0a9a9699f8c3e737aae0961adaecd4d9ddb3c57b0121038a56cffe7d18f6f7084de5c72931abd5e8bfd5a1c1d8ffbd3e5d47a15659f0a2", "asm": "304402200122fef3520cd6690807560aeb8769306d132216b9653b57ce5d4014517c2b0a022051c9c7b71588f99b27151aaa0a9a9699f8c3e737aae0961adaecd4d9ddb3c57b[ALL] 038a56cffe7d18f6f7084de5c72931abd5e8bfd5a1c1d8ffbd3e5d47a15659f0a2"}, "vout": 0, "txid": "320f736dcabe41b40b7aa6c50b05d5b5e00af040ae4c36a36131892d35a69afd"}, {"sequence": 4294967295, "scriptSig": {"hex": "4730440220269a49099b3d055e9b7b0c486963c64eb87ef04fad3b6244eef6ee065af6a62902207cff55584f5332dbaaf59f64006955c5c8f7be770dd6fe8fd73b7f46933b0fcc012103496e40a3bba5caa639023a3aeb45aa794356ef17d9bc38d0cd038b2a9dccc899", "asm": "30440220269a49099b3d055e9b7b0c486963c64eb87ef04fad3b6244eef6ee065af6a62902207cff55584f5332dbaaf59f64006955c5c8f7be770dd6fe8fd73b7f46933b0fcc[ALL] 03496e40a3bba5caa639023a3aeb45aa794356ef17d9bc38d0cd038b2a9dccc899"}, "vout": 0, "txid": "43814ce9b2862795167266ae0d35e0119baef0e174de9fbe2eaa6c5f4ea2503b"}], "txid": "f2e182de408a925a0b876fd8da3d88faf601088a894bf85361250f68f1fd6cda", "blocktime": 1537870928, "version": 1, "confirmations": 11512, "time": 1537870928, "locktime": 0, "vsize": 370, "size": 370}