{"hash": "f2f1ddc85c9d6d7f7a4d7387dd12e58d3032f333bc9cc990aff4573017f167d4", "blockhash": "0000000000000000001e0dab787dd257d1dbfcb92a98c2207d5e1078be1f4165", "vout": [{"scriptPubKey": {"reqSigs": 1, "hex": "76a914e735bf7f81e03bfe0303ef0ab792d5616633a8fa88ac", "addresses": ["1N5XUnwXcnxKA3UQ9sinrz1gwVYnir9Kew"], "asm": "OP_DUP OP_HASH160 e735bf7f81e03bfe0303ef0ab792d5616633a8fa OP_EQUALVERIFY OP_CHECKSIG", "type": "pubkeyhash"}, "value": 0.07179211, "n": 0}], "hex": "01000000014bfa03fc042fd139d3937df9e05fbde6d281215898341bcd2d4187a5d8913dcf010000006b483045022100fa701499969ab55467857588bba13621538b68d35c01b04c95e8077f5b3b9fc202207ecdc9a36df8675957eb8e3ecdfdbce47ac1fe4d36c54b5f7c07c7e3c409e72d012103a017c70bf9fda80deacfaada33f9bfd1631142acdf008999a4d976c5d3ff4b20ffffffff01cb8b6d00000000001976a914e735bf7f81e03bfe0303ef0ab792d5616633a8fa88ac00000000", "vin": [{"sequence": 4294967295, "scriptSig": {"hex": "483045022100fa701499969ab55467857588bba13621538b68d35c01b04c95e8077f5b3b9fc202207ecdc9a36df8675957eb8e3ecdfdbce47ac1fe4d36c54b5f7c07c7e3c409e72d012103a017c70bf9fda80deacfaada33f9bfd1631142acdf008999a4d976c5d3ff4b20", "asm": "3045022100fa701499969ab55467857588bba13621538b68d35c01b04c95e8077f5b3b9fc202207ecdc9a36df8675957eb8e3ecdfdbce47ac1fe4d36c54b5f7c07c7e3c409e72d[ALL] 03a017c70bf9fda80deacfaada33f9bfd1631142acdf008999a4d976c5d3ff4b20"}, "vout": 1, "txid": "cf3d91d8a587412dcd1b3498582181d2e6bd5fe0f97d93d339d12f04fc03fa4b"}], "txid": "f2f1ddc85c9d6d7f7a4d7387dd12e58d3032f333bc9cc990aff4573017f167d4", "blocktime": 1537872475, "version": 1, "confirmations": 11486, "time": 1537872475, "locktime": 0, "vsize": 192, "size": 192}