{"hash": "d3cc7e9bdf3e264ab4f00f9622182265c57eafa9f4caecf8c0d0f877779aec3e", "blockhash": "0000000000000000000e13cef7c366c0283d82e591d1acd082e914b08063cdf1", "vout": [{"scriptPubKey": {"reqSigs": 1, "hex": "a91491822e009e56a199b563ab9d8acabd0c3171fbd787", "addresses": ["3ExPrQLD3UeJY4gxtQx8G5mwCCsRkzA8a6"], "asm": "OP_HASH160 91822e009e56a199b563ab9d8acabd0c3171fbd7 OP_EQUAL", "type": "scripthash"}, "value": 0.020224, "n": 0}, {"scriptPubKey": {"reqSigs": 1, "hex": "a9144d293bcdc8b44f39bc0c92eb41ca5b5ef1480d4687", "addresses": ["38j1MGxv8M2EzE5QVWzavCTicpwByECqCv"], "asm": "OP_HASH160 4d293bcdc8b44f39bc0c92eb41ca5b5ef1480d46 OP_EQUAL", "type": "scripthash"}, "value": 9.00767916, "n": 1}], "hex": "02000000000101cc36d17d453d7ab50483989bf78f469eaf50508ab83aa8ad58a19a3853f2356501000000171600143ff816c3a02e013cd7ea4b2c204674768da8a76dffffffff0200dc1e000000000017a91491822e009e56a199b563ab9d8acabd0c3171fbd787aca0b0350000000017a9144d293bcdc8b44f39bc0c92eb41ca5b5ef1480d468702483045022100eae73b928c28d0556456cc8482c297eda4f081dd68bc3bf1d193a07626e8171a022012a14268ca1713994d6f13f4153e851acb05818b46315e199e5b66bb9dcf2bd401210306f6e5c3dfeb94059c2c436c189768eff8f584c499fad5bb8e2f7ab65449bdeb00000000", "vin": [{"txinwitness": ["3045022100eae73b928c28d0556456cc8482c297eda4f081dd68bc3bf1d193a07626e8171a022012a14268ca1713994d6f13f4153e851acb05818b46315e199e5b66bb9dcf2bd401", "0306f6e5c3dfeb94059c2c436c189768eff8f584c499fad5bb8e2f7ab65449bdeb"], "sequence": 4294967295, "scriptSig": {"hex": "1600143ff816c3a02e013cd7ea4b2c204674768da8a76d", "asm": "00143ff816c3a02e013cd7ea4b2c204674768da8a76d"}, "vout": 1, "txid": "6535f253389aa158ada83ab88a5050af9e468ff79b988304b57a3d457dd136cc"}], "txid": "f2f5d45eac9550d04e26797891bf792f18a8c77092861e72add3d4bfb2469f12", "blocktime": 1537871767, "version": 2, "confirmations": 11490, "time": 1537871767, "locktime": 0, "vsize": 166, "size": 248}