{"hash": "d429586ac214a2036158e6468ad1c6d7b9a76dba501ef4efeec44b883337c641", "blockhash": "0000000000000000001f76057863aec43deb6fa401d9628bb513d65a8098bfab", "vout": [{"scriptPubKey": {"reqSigs": 1, "hex": "a914e80d530e4442492d133f7b34445980f81c728e3887", "addresses": ["3Nqzer3q8PRUP6HmtKZYFwXom8CHLFPgvc"], "asm": "OP_HASH160 e80d530e4442492d133f7b34445980f81c728e38 OP_EQUAL", "type": "scripthash"}, "value": 0.0366, "n": 0}, {"scriptPubKey": {"reqSigs": 1, "hex": "00142f832d2497fed5dc78043fe9f0abcad61ecd4fc5", "addresses": ["bc1q97pj6fyhlm2ac7qy8l5lp2726c0v6n79w87jme"], "asm": "0 2f832d2497fed5dc78043fe9f0abcad61ecd4fc5", "type": "witness_v0_keyhash"}, "value": 0.60434719, "n": 1}], "hex": "01000000000101bb62b99697ff8adc596f05bd8868166496bd930f6ff2290d03bdf67765059f9f0100000017160014a9190efaafe827a766063529ac48397d69ad66f1ffffffff02e0d837000000000017a914e80d530e4442492d133f7b34445980f81c728e38871f299a03000000001600142f832d2497fed5dc78043fe9f0abcad61ecd4fc50247304402201cf9ae08e90daf5af1e49ce40b2eadb7c3734fe1e68ed920eac664f85db1db890220286ccc919a8d6698436b47a98e181fc7f718c35b1ec0a6fd483e5740f952506a012102c0ac66149f728ce8142ca4af8e3f2749e51ecb886feb778830fea8817b12d4b600000000", "vin": [{"txinwitness": ["304402201cf9ae08e90daf5af1e49ce40b2eadb7c3734fe1e68ed920eac664f85db1db890220286ccc919a8d6698436b47a98e181fc7f718c35b1ec0a6fd483e5740f952506a01", "02c0ac66149f728ce8142ca4af8e3f2749e51ecb886feb778830fea8817b12d4b6"], "sequence": 4294967295, "scriptSig": {"hex": "160014a9190efaafe827a766063529ac48397d69ad66f1", "asm": "0014a9190efaafe827a766063529ac48397d69ad66f1"}, "vout": 1, "txid": "9f9f056577f6bd030d29f26f0f93bd9664166888bd056f59dc8aff9796b962bb"}], "txid": "f2fc0b26fae1f985571c6090c437fd9f5385f0e1a3149e42fac56491d43b91d1", "blocktime": 1537873891, "version": 1, "confirmations": 11478, "time": 1537873891, "locktime": 0, "vsize": 165, "size": 246}