{"hash": "e619dd6ebc7f0b4e4f5ac2724e310f246b412a0aaef7994ad4730d5eae23603d", "blockhash": "0000000000000000001cda96e906b7601b7a6fb1a3b62bca570a9e5d8f4b3de1", "vout": [{"scriptPubKey": {"reqSigs": 1, "hex": "a914b44337f216fcdcf0a5895a72e8c4169a68ef293e87", "addresses": ["3J8A5VuG2KUQmCweiwHBDfv67VqWTciCM2"], "asm": "OP_HASH160 b44337f216fcdcf0a5895a72e8c4169a68ef293e OP_EQUAL", "type": "scripthash"}, "value": 0.07142331, "n": 0}], "hex": "01000000000101e747ae0676857a518a9c62344bf2c9dfd01e7bd9fa2045a143517f012df97f5b0100000017160014b3418aed56915a79501a96f0359a2567a2b6b9d9ffffffff01bbfb6c000000000017a914b44337f216fcdcf0a5895a72e8c4169a68ef293e870247304402202fe72be4d7e709623d91da51bc08ddfed9a54859e64375bd61c2faf15d27974302203c2c6b8047bd15d1aba438bfa34c459ef1be7b13d306d2b92544bc9cd1e6bcff0121025931722e5e9a59b30f58e7aead9c62211bd427e8a22f385019ec32d48829f72900000000", "vin": [{"txinwitness": ["304402202fe72be4d7e709623d91da51bc08ddfed9a54859e64375bd61c2faf15d27974302203c2c6b8047bd15d1aba438bfa34c459ef1be7b13d306d2b92544bc9cd1e6bcff01", "025931722e5e9a59b30f58e7aead9c62211bd427e8a22f385019ec32d48829f729"], "sequence": 4294967295, "scriptSig": {"hex": "160014b3418aed56915a79501a96f0359a2567a2b6b9d9", "asm": "0014b3418aed56915a79501a96f0359a2567a2b6b9d9"}, "vout": 1, "txid": "5b7ff92d017f5143a14520fad97b1ed0dfc9f24b34629c8a517a857606ae47e7"}], "txid": "f2fd0a5680a93aa0725183e31b7f0f2b0915604fefa389571c513dff89482455", "blocktime": 1537873282, "version": 1, "confirmations": 11484, "time": 1537873282, "locktime": 0, "vsize": 134, "size": 215}