{"hash": "f2fd2ceeb356aaf36fb93100c8a865b9916985a4681ab5b2fedbd56876e6ae43", "blockhash": "000000000000000000022b45ed06c6f4ccd3cf7fb5ba4856ebd2e58215665228", "vout": [{"scriptPubKey": {"reqSigs": 1, "hex": "a914b8aacfe8744212e585da529d32635cad9e3e7caf87", "addresses": ["3JXSt5NRtFRjFfkCp8iTgMupfitUvfEA5f"], "asm": "OP_HASH160 b8aacfe8744212e585da529d32635cad9e3e7caf OP_EQUAL", "type": "scripthash"}, "value": 0.00331, "n": 0}], "hex": "0100000001a0f1916180a4af7cdb2d7cedbc002038e11258ba86b4fcf2ff9bb3e21bfbbbca000000006a473044022067dca684fceb44d4558e7fd929345af45dba3ca1c4503da710d68ab19c01227402206bdfd7eab58d21bde641767b95beeb99d420e8e42e5cbecf2a33e4dd275e0ff20121021c8fb120fafeb0404c39a91336175c5a6aae3552f0627482f265eeb4d223a735ffffffff01f80c05000000000017a914b8aacfe8744212e585da529d32635cad9e3e7caf8700000000", "vin": [{"sequence": 4294967295, "scriptSig": {"hex": "473044022067dca684fceb44d4558e7fd929345af45dba3ca1c4503da710d68ab19c01227402206bdfd7eab58d21bde641767b95beeb99d420e8e42e5cbecf2a33e4dd275e0ff20121021c8fb120fafeb0404c39a91336175c5a6aae3552f0627482f265eeb4d223a735", "asm": "3044022067dca684fceb44d4558e7fd929345af45dba3ca1c4503da710d68ab19c01227402206bdfd7eab58d21bde641767b95beeb99d420e8e42e5cbecf2a33e4dd275e0ff2[ALL] 021c8fb120fafeb0404c39a91336175c5a6aae3552f0627482f265eeb4d223a735"}, "vout": 0, "txid": "cabbfb1be2b39bfff2fcb486ba5812e1382000bced7c2ddb7cafa4806191f1a0"}], "txid": "f2fd2ceeb356aaf36fb93100c8a865b9916985a4681ab5b2fedbd56876e6ae43", "blocktime": 1537869901, "version": 1, "confirmations": 11523, "time": 1537869901, "locktime": 0, "vsize": 189, "size": 189}