{"hash": "f2fe8c56d766d9e113fff5c112b22706e3534f2eebdd62ccf7294b45665d801f", "blockhash": "0000000000000000000dcc0f55137456b1a82d3642486a52398922ac4d620174", "vout": [{"scriptPubKey": {"reqSigs": 1, "hex": "76a914d87de98998d57edb1715d222effeadc14443be4388ac", "addresses": ["1LjhnyPjrkym26ZCigWsWHfPrB13ZZiTmQ"], "asm": "OP_DUP OP_HASH160 d87de98998d57edb1715d222effeadc14443be43 OP_EQUALVERIFY OP_CHECKSIG", "type": "pubkeyhash"}, "value": 5.46e-06, "n": 0}, {"scriptPubKey": {"reqSigs": 1, "hex": "a9143f4eecba122ad73039d481c8d37f99cb4f887cd887", "addresses": ["37Tm3Qz8Zw2VJrheUUhArDAoq58S6YrS3g"], "asm": "OP_HASH160 3f4eecba122ad73039d481c8d37f99cb4f887cd8 OP_EQUAL", "type": "scripthash"}, "value": 0.99994908, "n": 1}, {"scriptPubKey": {"type": "nulldata", "hex": "6a146f6d6e69000000000000001f00000ce48e9360a0", "asm": "OP_RETURN 6f6d6e69000000000000001f00000ce48e9360a0"}, "value": 0.0, "n": 2}], "hex": "0100000001a97374befe97b22f3d8fc88de6573c65194780393b96e310d4344124d412dab201000000fdfe0000483045022100d805247673b435316151f527e5d449964d940c9aaec1ca2a0765320ed82cca4e022013479b8eb2004afec0152fa5e2190e5f305fb243adb67bace3321efeaaf5847001483045022100f8d00e3ddc426b7b7358ab091ea5ff359351a81cb3ec5c206daf8e8acf0288e6022026506cb5a453191043a76f3deb82c1b2846f75fb7046899527198dd231ded0cc014c6952210246ccf4de0c54cc7f3354cdd993c2c50cf965fd82238b89659fbd73a1b4bf05a121024fc59f72272a897fe43803374969f396058152fe4765a8d15216f94624257b1b21022593bc69ecbf3bbcc3c58082267cb49dadaf4ca8dbf1b2297338a9d628c4297653aeffffffff0322020000000000001976a914d87de98998d57edb1715d222effeadc14443be4388ac1ccdf5050000000017a9143f4eecba122ad73039d481c8d37f99cb4f887cd8870000000000000000166a146f6d6e69000000000000001f00000ce48e9360a000000000", "vin": [{"sequence": 4294967295, "scriptSig": {"hex": "00483045022100d805247673b435316151f527e5d449964d940c9aaec1ca2a0765320ed82cca4e022013479b8eb2004afec0152fa5e2190e5f305fb243adb67bace3321efeaaf5847001483045022100f8d00e3ddc426b7b7358ab091ea5ff359351a81cb3ec5c206daf8e8acf0288e6022026506cb5a453191043a76f3deb82c1b2846f75fb7046899527198dd231ded0cc014c6952210246ccf4de0c54cc7f3354cdd993c2c50cf965fd82238b89659fbd73a1b4bf05a121024fc59f72272a897fe43803374969f396058152fe4765a8d15216f94624257b1b21022593bc69ecbf3bbcc3c58082267cb49dadaf4ca8dbf1b2297338a9d628c4297653ae", "asm": "0 3045022100d805247673b435316151f527e5d449964d940c9aaec1ca2a0765320ed82cca4e022013479b8eb2004afec0152fa5e2190e5f305fb243adb67bace3321efeaaf58470[ALL] 3045022100f8d00e3ddc426b7b7358ab091ea5ff359351a81cb3ec5c206daf8e8acf0288e6022026506cb5a453191043a76f3deb82c1b2846f75fb7046899527198dd231ded0cc[ALL] 52210246ccf4de0c54cc7f3354cdd993c2c50cf965fd82238b89659fbd73a1b4bf05a121024fc59f72272a897fe43803374969f396058152fe4765a8d15216f94624257b1b21022593bc69ecbf3bbcc3c58082267cb49dadaf4ca8dbf1b2297338a9d628c4297653ae"}, "vout": 1, "txid": "b2da12d4244134d410e3963b39804719653c57e68dc88f3d2fb297febe7473a9"}], "txid": "f2fe8c56d766d9e113fff5c112b22706e3534f2eebdd62ccf7294b45665d801f", "blocktime": 1537870268, "version": 1, "confirmations": 11517, "time": 1537870268, "locktime": 0, "vsize": 404, "size": 404}