{"hash": "1ec7b50536f80e434371d1a411fb771084cc8d639969611b33b6ed03301a8bdf", "blockhash": "0000000000000000000baef3f32e3676a92c3b2e5da21b426e4f302fc371ce76", "vout": [{"scriptPubKey": {"reqSigs": 1, "hex": "a9145cc391931306d8381e034dbc25d4e68a341c015787", "addresses": ["3A9WNYHVtpL3x7T2k6PWSBexbUxLvRnAC7"], "asm": "OP_HASH160 5cc391931306d8381e034dbc25d4e68a341c0157 OP_EQUAL", "type": "scripthash"}, "value": 0.00039244, "n": 0}], "hex": "0100000000010142ca443bcc8334a6e9b40423e749840bf5c8c2118471a157571e83dc8dc5dffe010000002322002081be72203b51fbbdda9c397e52a02179ce6ef42c6a4c3f9be172683264da44e8ffffffff014c9900000000000017a9145cc391931306d8381e034dbc25d4e68a341c01578704004830450221009271e3beffe0d4406600e76ed7c4597949c064c68cde2d7b6ed9f9fe1ccf2bce0220182d48aaa9719355ccf7537ad4d184008d5c61d4fa19b2e69d0e78db6185208e0147304402200d92d6d27a5965c24a299f1fc258f5e2a95d52bf18291f0020993f4babf6946e022056a59ce8e2bc38878ac5b373581f4706bbdfef7cccd87a138e93aa2e4ec6b8450147522102a7d2398581db551b4306b02b22595610a45809b8de5b28cc3a0946d7866e668521033cd5fcc68f940f6921c548e8539485080ee4267f6a52c9ffdc268036306f5cff52ae00000000", "vin": [{"txinwitness": ["", "30450221009271e3beffe0d4406600e76ed7c4597949c064c68cde2d7b6ed9f9fe1ccf2bce0220182d48aaa9719355ccf7537ad4d184008d5c61d4fa19b2e69d0e78db6185208e01", "304402200d92d6d27a5965c24a299f1fc258f5e2a95d52bf18291f0020993f4babf6946e022056a59ce8e2bc38878ac5b373581f4706bbdfef7cccd87a138e93aa2e4ec6b84501", "522102a7d2398581db551b4306b02b22595610a45809b8de5b28cc3a0946d7866e668521033cd5fcc68f940f6921c548e8539485080ee4267f6a52c9ffdc268036306f5cff52ae"], "sequence": 4294967295, "scriptSig": {"hex": "22002081be72203b51fbbdda9c397e52a02179ce6ef42c6a4c3f9be172683264da44e8", "asm": "002081be72203b51fbbdda9c397e52a02179ce6ef42c6a4c3f9be172683264da44e8"}, "vout": 1, "txid": "fedfc58ddc831e5757a1718411c2c8f50b8449e72304b4e9a63483cc3b44ca42"}], "txid": "f2ffc407026506d9d05a40da7c7f32ec189c4a4b29b90868c3e2389d80b31e45", "blocktime": 1537876114, "version": 1, "confirmations": 11460, "time": 1537876114, "locktime": 0, "vsize": 174, "size": 339}