{"hash": "9d51fafbf44519b2038f9a18cc8594a850addb2b857e2735c9be619600abe29e", "blockhash": "0000000000000000001cda96e906b7601b7a6fb1a3b62bca570a9e5d8f4b3de1", "vout": [{"scriptPubKey": {"reqSigs": 1, "hex": "a9145322ddad1d0d821671edd65c5088368c5ee3745887", "addresses": ["39GbmzWtkPaXf3T59M6MbTiaryNGeR6pTS"], "asm": "OP_HASH160 5322ddad1d0d821671edd65c5088368c5ee37458 OP_EQUAL", "type": "scripthash"}, "value": 0.01080994, "n": 0}, {"scriptPubKey": {"reqSigs": 1, "hex": "76a9146c475a01e6c9299b0348c84607448576611e20a188ac", "addresses": ["1AsXTKAXSmV2pbz6Enk2MzakWB3eoxT7Sj"], "asm": "OP_DUP OP_HASH160 6c475a01e6c9299b0348c84607448576611e20a1 OP_EQUALVERIFY OP_CHECKSIG", "type": "pubkeyhash"}, "value": 0.03794244, "n": 1}], "hex": "02000000000101cf841838acb9f4d9528b728f124084c6613aff3ff35011cec1969883055a597a3a0000001716001400479cd5ce795f07f5e1c8258657d14e5d128f96feffffff02a27e10000000000017a9145322ddad1d0d821671edd65c5088368c5ee374588744e53900000000001976a9146c475a01e6c9299b0348c84607448576611e20a188ac02483045022100d5398145d2195883890a16c3fee1eb668b1ff3b5b638b233e287d6d67d76959a02205d292a0bfc05b5e241f4535987991b61da8e593cd0b8fbdb5b2735b1bfee1d2601210340ddeb06bf05f3a4c84b75b07dd3bb1f2aa5484f872f60d83175155e2035d6b513490800", "vin": [{"txinwitness": ["3045022100d5398145d2195883890a16c3fee1eb668b1ff3b5b638b233e287d6d67d76959a02205d292a0bfc05b5e241f4535987991b61da8e593cd0b8fbdb5b2735b1bfee1d2601", "0340ddeb06bf05f3a4c84b75b07dd3bb1f2aa5484f872f60d83175155e2035d6b5"], "sequence": 4294967294, "scriptSig": {"hex": "16001400479cd5ce795f07f5e1c8258657d14e5d128f96", "asm": "001400479cd5ce795f07f5e1c8258657d14e5d128f96"}, "vout": 58, "txid": "7a595a05839896c1ce1150f33fff3a61c68440128f728b52d9f4b9ac381884cf"}], "txid": "f30100f40251b06bfec8522f5bcd693991863d2141bcbf81bb55e04a0fdf7485", "blocktime": 1537873282, "version": 2, "confirmations": 11485, "time": 1537873282, "locktime": 542995, "vsize": 168, "size": 250}