{"hash": "f304d44217b04eaf70d63348e91e4c70fffe515aee49ccdddf076aa27d550121", "blockhash": "000000000000000000022b45ed06c6f4ccd3cf7fb5ba4856ebd2e58215665228", "vout": [{"scriptPubKey": {"reqSigs": 1, "hex": "76a914dcdf3f412d5fde6a5e20943637250c6e57fec90988ac", "addresses": ["1M8s6gaKs8x3WNShnVLkNDjMxXrhY3GYQN"], "asm": "OP_DUP OP_HASH160 dcdf3f412d5fde6a5e20943637250c6e57fec909 OP_EQUALVERIFY OP_CHECKSIG", "type": "pubkeyhash"}, "value": 0.00824042, "n": 0}, {"scriptPubKey": {"reqSigs": 1, "hex": "76a9143b41b342889c66389f642930eaf5ca34455bb89188ac", "addresses": ["16QKaFWwbcBj4VAR48xobkyZBY9vFbqkVv"], "asm": "OP_DUP OP_HASH160 3b41b342889c66389f642930eaf5ca34455bb891 OP_EQUALVERIFY OP_CHECKSIG", "type": "pubkeyhash"}, "value": 0.015598, "n": 1}], "hex": "01000000019af28684718a47482b4079ddf38a947ce0e87d17e84b042ebf6c6344845e369d010000006b4830450221009461679e840ba86db265a85299506752115611e9884591683f58dada0d78237302203ffc13081c7f379e97e6b29ef51aae9f9d33d09996b33b1ff69dd96a89163835012103e5aa16b3d267c0b503db6e14e8ae324a96ef54c233616f528ef40bc11af55d34ffffffff02ea920c00000000001976a914dcdf3f412d5fde6a5e20943637250c6e57fec90988acf8cc1700000000001976a9143b41b342889c66389f642930eaf5ca34455bb89188ac00000000", "vin": [{"sequence": 4294967295, "scriptSig": {"hex": "4830450221009461679e840ba86db265a85299506752115611e9884591683f58dada0d78237302203ffc13081c7f379e97e6b29ef51aae9f9d33d09996b33b1ff69dd96a89163835012103e5aa16b3d267c0b503db6e14e8ae324a96ef54c233616f528ef40bc11af55d34", "asm": "30450221009461679e840ba86db265a85299506752115611e9884591683f58dada0d78237302203ffc13081c7f379e97e6b29ef51aae9f9d33d09996b33b1ff69dd96a89163835[ALL] 03e5aa16b3d267c0b503db6e14e8ae324a96ef54c233616f528ef40bc11af55d34"}, "vout": 1, "txid": "9d365e8444636cbf2e044be8177de8e07c948af3dd79402b48478a718486f29a"}], "txid": "f304d44217b04eaf70d63348e91e4c70fffe515aee49ccdddf076aa27d550121", "blocktime": 1537869901, "version": 1, "confirmations": 11524, "time": 1537869901, "locktime": 0, "vsize": 226, "size": 226}