{"hash": "f306679390ffb6601ce1cef54bf98b71bc91942e149598f44e11c7e75ed9cc2a", "blockhash": "0000000000000000001f0ddff1eddb255c1121bcd4da4f1bc9a0da00cae72433", "vout": [{"scriptPubKey": {"reqSigs": 1, "hex": "76a914790df34a01d9482d9b70d82e1abb83e77e095a0e88ac", "addresses": ["1C35UVvUF3MrPZM2txPX4kJ349ANSNRyL6"], "asm": "OP_DUP OP_HASH160 790df34a01d9482d9b70d82e1abb83e77e095a0e OP_EQUALVERIFY OP_CHECKSIG", "type": "pubkeyhash"}, "value": 0.01498192, "n": 0}, {"scriptPubKey": {"reqSigs": 1, "hex": "76a9144be1cd5367a93320f06112375ccefb0769d30b3e88ac", "addresses": ["17vEBPZi9BYTfiyy2jgin48RFdLjejdRZ6"], "asm": "OP_DUP OP_HASH160 4be1cd5367a93320f06112375ccefb0769d30b3e OP_EQUALVERIFY OP_CHECKSIG", "type": "pubkeyhash"}, "value": 1.5, "n": 1}], "hex": "0100000001d5316cff8570d546b34e31ad3a464743d800be7fba35c3b36377029c5cb98e70010000006b483045022100f3ec8bea1279e02f9276135f20f53695fa4b7d5fa5895d3ba447de1ac2170bf10220184f944b980dc7b789e86c19f492ce36c11f7a407276391cc11071f2cda42b79012103ba2a591ef99a7024970fac98b62120602b2a06bee5607167e863803bbbc840d8ffffffff0250dc1600000000001976a914790df34a01d9482d9b70d82e1abb83e77e095a0e88ac80d1f008000000001976a9144be1cd5367a93320f06112375ccefb0769d30b3e88ac00000000", "vin": [{"sequence": 4294967295, "scriptSig": {"hex": "483045022100f3ec8bea1279e02f9276135f20f53695fa4b7d5fa5895d3ba447de1ac2170bf10220184f944b980dc7b789e86c19f492ce36c11f7a407276391cc11071f2cda42b79012103ba2a591ef99a7024970fac98b62120602b2a06bee5607167e863803bbbc840d8", "asm": "3045022100f3ec8bea1279e02f9276135f20f53695fa4b7d5fa5895d3ba447de1ac2170bf10220184f944b980dc7b789e86c19f492ce36c11f7a407276391cc11071f2cda42b79[ALL] 03ba2a591ef99a7024970fac98b62120602b2a06bee5607167e863803bbbc840d8"}, "vout": 1, "txid": "708eb95c9c027763b3c335ba7fbe00d84347463aad314eb346d57085ff6c31d5"}], "txid": "f306679390ffb6601ce1cef54bf98b71bc91942e149598f44e11c7e75ed9cc2a", "blocktime": 1537872018, "version": 1, "confirmations": 11489, "time": 1537872018, "locktime": 0, "vsize": 226, "size": 226}