{"hash": "3a0017eb936dfb1ad7368bc1a98a6eeac72ad6bbab7a90756923ffc7562ac860", "blockhash": "0000000000000000001f76057863aec43deb6fa401d9628bb513d65a8098bfab", "vout": [{"scriptPubKey": {"reqSigs": 1, "hex": "a914a6dcc328ddea2a41a6bd80f6d8c81cff678db13e87", "addresses": ["3GuJZDwyjhoy3FmnSS7XUV2A6SgHKLLKuj"], "asm": "OP_HASH160 a6dcc328ddea2a41a6bd80f6d8c81cff678db13e OP_EQUAL", "type": "scripthash"}, "value": 0.01032641, "n": 0}, {"scriptPubKey": {"reqSigs": 1, "hex": "76a914f04d4a5ec5979458480c5503da6ddc6dc733600388ac", "addresses": ["1NubmH89EFCoNGpVUy29SokRngAZDzSoUu"], "asm": "OP_DUP OP_HASH160 f04d4a5ec5979458480c5503da6ddc6dc7336003 OP_EQUALVERIFY OP_CHECKSIG", "type": "pubkeyhash"}, "value": 0.0020396, "n": 1}], "hex": "020000000001021a5a27cd7d9dadbab624c255c5daa595004be75b811183defdff2cb4abf08d8c1700000017160014480d71df67f6163b75f747844989d9fb3fb0070cfeffffff925abf83faa482057eebd0258aee5a91512946d763ac6afe6ea376ad927f7aa7000000001716001406639c51cfa53c890d34a570aa52e879e2332a2bfeffffff02c1c10f000000000017a914a6dcc328ddea2a41a6bd80f6d8c81cff678db13e87b81c0300000000001976a914f04d4a5ec5979458480c5503da6ddc6dc733600388ac02483045022100c85d5e1a84bd5aa487021627747d486792d4f599949909ea332387bbe7a794ec02202777a798adecfdc738fcfb56b20a1e63c3293b8e04f899ffe1fe3911f397c7110121023ed4e8a198d67868bff9585143179333e300c84042e7b2425b1d50355c37f15b02483045022100c21d448faef3893006d5db35b691befef4aea30144430a8915270910afd25cd802207ac36c4a7bda216cbbb147864d51d07f5b001397fc13b023ab6536af82a35a7701210389661e608e47a1581ff3e1e396e99a6aebdb6bbccf82056adfaf04874b0026a914490800", "vin": [{"txinwitness": ["3045022100c85d5e1a84bd5aa487021627747d486792d4f599949909ea332387bbe7a794ec02202777a798adecfdc738fcfb56b20a1e63c3293b8e04f899ffe1fe3911f397c71101", "023ed4e8a198d67868bff9585143179333e300c84042e7b2425b1d50355c37f15b"], "sequence": 4294967294, "scriptSig": {"hex": "160014480d71df67f6163b75f747844989d9fb3fb0070c", "asm": "0014480d71df67f6163b75f747844989d9fb3fb0070c"}, "vout": 23, "txid": "8c8df0abb42cfffdde8311815be74b0095a5dac555c224b6baad9d7dcd275a1a"}, {"txinwitness": ["3045022100c21d448faef3893006d5db35b691befef4aea30144430a8915270910afd25cd802207ac36c4a7bda216cbbb147864d51d07f5b001397fc13b023ab6536af82a35a7701", "0389661e608e47a1581ff3e1e396e99a6aebdb6bbccf82056adfaf04874b0026a9"], "sequence": 4294967294, "scriptSig": {"hex": "16001406639c51cfa53c890d34a570aa52e879e2332a2b", "asm": "001406639c51cfa53c890d34a570aa52e879e2332a2b"}, "vout": 0, "txid": "a77a7f92ad76a36efe6aac63d7462951915aee8a25d0eb7e0582a4fa83bf5a92"}], "txid": "f30d82e3aade8886721c6cc24051c41c498495450c8fce9bc3a606dc89896bb4", "blocktime": 1537873891, "version": 2, "confirmations": 11478, "time": 1537873891, "locktime": 542996, "vsize": 259, "size": 422}