{"hash": "f314e2e641a983307881d88ed745020124f2a57a49175c805370faca753452a8", "blockhash": "0000000000000000000baef3f32e3676a92c3b2e5da21b426e4f302fc371ce76", "vout": [{"scriptPubKey": {"type": "nulldata", "hex": "6a4c5000007824000162b613240aa35eef2c67b99f019d6ddc0f1b8ff117702940d64fa54d8eb2217dc4a4bc545d7f596347ecf581bbe05baa1e010613f1c9edb6d2e7bc9a9526289ac0f6612cd74e33776ee4", "asm": "OP_RETURN 00007824000162b613240aa35eef2c67b99f019d6ddc0f1b8ff117702940d64fa54d8eb2217dc4a4bc545d7f596347ecf581bbe05baa1e010613f1c9edb6d2e7bc9a9526289ac0f6612cd74e33776ee4"}, "value": 0.0, "n": 0}, {"scriptPubKey": {"reqSigs": 1, "hex": "76a914dd70bddb55e179a7f6c61d8a72497e328a5cf64088ac", "addresses": ["1MBsPpa3hL2gswbaTvF16duvvJHV1AkBEF"], "asm": "OP_DUP OP_HASH160 dd70bddb55e179a7f6c61d8a72497e328a5cf640 OP_EQUALVERIFY OP_CHECKSIG", "type": "pubkeyhash"}, "value": 0.00114264, "n": 1}], "hex": "01000000016a9ab2857c135ddb297d04bc6ff7de384aed415a9aff87b0f708f1654b21750e010000006b483045022100931e8b2620e928796fec5c8ab2c0f6b3a99e06b546a2379b461117cd7cc0f1c802206abf156d1d569a81592110a6c5ce3c42a81d9988ac8914b54074601f1c67a88d0121038ada61352c4dda7d9b6e816507b88cbc59cdf28885d430e813b2c2a2e59bd073ffffffff020000000000000000536a4c5000007824000162b613240aa35eef2c67b99f019d6ddc0f1b8ff117702940d64fa54d8eb2217dc4a4bc545d7f596347ecf581bbe05baa1e010613f1c9edb6d2e7bc9a9526289ac0f6612cd74e33776ee458be0100000000001976a914dd70bddb55e179a7f6c61d8a72497e328a5cf64088ac00000000", "vin": [{"sequence": 4294967295, "scriptSig": {"hex": "483045022100931e8b2620e928796fec5c8ab2c0f6b3a99e06b546a2379b461117cd7cc0f1c802206abf156d1d569a81592110a6c5ce3c42a81d9988ac8914b54074601f1c67a88d0121038ada61352c4dda7d9b6e816507b88cbc59cdf28885d430e813b2c2a2e59bd073", "asm": "3045022100931e8b2620e928796fec5c8ab2c0f6b3a99e06b546a2379b461117cd7cc0f1c802206abf156d1d569a81592110a6c5ce3c42a81d9988ac8914b54074601f1c67a88d[ALL] 038ada61352c4dda7d9b6e816507b88cbc59cdf28885d430e813b2c2a2e59bd073"}, "vout": 1, "txid": "0e75214b65f108f7b087ff9a5a41ed4a38def76fbc047d29db5d137c85b29a6a"}], "txid": "f314e2e641a983307881d88ed745020124f2a57a49175c805370faca753452a8", "blocktime": 1537876114, "version": 1, "confirmations": 11461, "time": 1537876114, "locktime": 0, "vsize": 284, "size": 284}