{"hash": "f3156a0672355c96875b6c7f00d52ba6afea5c79b9137ef523e9e35a72008e8d", "blockhash": "0000000000000000001e0dab787dd257d1dbfcb92a98c2207d5e1078be1f4165", "vout": [{"scriptPubKey": {"reqSigs": 1, "hex": "76a9143d349fddc1adc4865621c607bfa1efed95d92e8988ac", "addresses": ["16adG7e25DZr75jCgm95qPL2VCo2Em4Mg9"], "asm": "OP_DUP OP_HASH160 3d349fddc1adc4865621c607bfa1efed95d92e89 OP_EQUALVERIFY OP_CHECKSIG", "type": "pubkeyhash"}, "value": 0.000607, "n": 0}, {"scriptPubKey": {"reqSigs": 1, "hex": "a914e935dcea71ffc7d3d33637cad21ba61dc2c016b387", "addresses": ["3Nx7thmmjGB45wcKp5pu6sdZAammev6Aiq"], "asm": "OP_HASH160 e935dcea71ffc7d3d33637cad21ba61dc2c016b3 OP_EQUAL", "type": "scripthash"}, "value": 0.00549, "n": 1}], "hex": "0100000003c87a286d391a3778ac71a9eb63b7f3cbb29e47a4f18226a3dc440c0c1a64b578000000006a47304402203b81db5fbb62200b0c41a0f02f0c81afca9ffdeb0f8f2294827df0d9f64bb6e9022064ac81229fdba74b91e551bf87be12711b3313ecef24181d06f5f51b34ab751201210353ae2e215595927a55d5da286ef649fc4a2f74994a67204e7d716e521f4732a6feffffffd6693e8a6e9edf13c72c1a253c8f2d5a6f14cf02b9701199c56eb0ead9db20e2030000006b483045022100e351cdb4cd2695574aebcc0ca93fd0978f198e4e5a21713485871c8d659b977102206270546cde6df92bd1e205539699df50f95504368ed45cc40ce1814ca5dcb2ee0121024cdffa0c39fe63212f39f796a2d1192999b23aa7f223ad46d681904e270c23bcfeffffffa759f467a97ce6bc1da3af077fe7fec39929c6cadd3e088c7564625235be8cfe000000006a47304402203ca824b0d7a91cd7d1a4d79a75ebc05a8c63631b84e114f9e4b60efec137e3ac02207da6aa33465a74b4179a1cacc44e6a3bdfb881683654cd5f7c2ebbc2644a79e7012103189fd95b6e10d3367e9baee2159275ac46d019dc2bb7d246b35fec950868d876feffffff021ced0000000000001976a9143d349fddc1adc4865621c607bfa1efed95d92e8988ac886008000000000017a914e935dcea71ffc7d3d33637cad21ba61dc2c016b38700000000", "vin": [{"sequence": 4294967294, "scriptSig": {"hex": "47304402203b81db5fbb62200b0c41a0f02f0c81afca9ffdeb0f8f2294827df0d9f64bb6e9022064ac81229fdba74b91e551bf87be12711b3313ecef24181d06f5f51b34ab751201210353ae2e215595927a55d5da286ef649fc4a2f74994a67204e7d716e521f4732a6", "asm": "304402203b81db5fbb62200b0c41a0f02f0c81afca9ffdeb0f8f2294827df0d9f64bb6e9022064ac81229fdba74b91e551bf87be12711b3313ecef24181d06f5f51b34ab7512[ALL] 0353ae2e215595927a55d5da286ef649fc4a2f74994a67204e7d716e521f4732a6"}, "vout": 0, "txid": "78b5641a0c0c44dca32682f1a4479eb2cbf3b763eba971ac78371a396d287ac8"}, {"sequence": 4294967294, "scriptSig": {"hex": "483045022100e351cdb4cd2695574aebcc0ca93fd0978f198e4e5a21713485871c8d659b977102206270546cde6df92bd1e205539699df50f95504368ed45cc40ce1814ca5dcb2ee0121024cdffa0c39fe63212f39f796a2d1192999b23aa7f223ad46d681904e270c23bc", "asm": "3045022100e351cdb4cd2695574aebcc0ca93fd0978f198e4e5a21713485871c8d659b977102206270546cde6df92bd1e205539699df50f95504368ed45cc40ce1814ca5dcb2ee[ALL] 024cdffa0c39fe63212f39f796a2d1192999b23aa7f223ad46d681904e270c23bc"}, "vout": 3, "txid": "e220dbd9eab06ec5991170b902cf146f5a2d8f3c251a2cc713df9e6e8a3e69d6"}, {"sequence": 4294967294, "scriptSig": {"hex": "47304402203ca824b0d7a91cd7d1a4d79a75ebc05a8c63631b84e114f9e4b60efec137e3ac02207da6aa33465a74b4179a1cacc44e6a3bdfb881683654cd5f7c2ebbc2644a79e7012103189fd95b6e10d3367e9baee2159275ac46d019dc2bb7d246b35fec950868d876", "asm": "304402203ca824b0d7a91cd7d1a4d79a75ebc05a8c63631b84e114f9e4b60efec137e3ac02207da6aa33465a74b4179a1cacc44e6a3bdfb881683654cd5f7c2ebbc2644a79e7[ALL] 03189fd95b6e10d3367e9baee2159275ac46d019dc2bb7d246b35fec950868d876"}, "vout": 0, "txid": "fe8cbe35526264758c083eddcac62999c3fee77f07afa31dbce67ca967f459a7"}], "txid": "f3156a0672355c96875b6c7f00d52ba6afea5c79b9137ef523e9e35a72008e8d", "blocktime": 1537872475, "version": 1, "confirmations": 11487, "time": 1537872475, "locktime": 0, "vsize": 518, "size": 518}