{"hash": "f317d491960cf0659233874d83ebfae480da16c7ea4cc10a259418c45660ec51", "blockhash": "00000000000000000018f53835495a110e01622372bf6ae95dc86f2b0ab887b0", "vout": [{"scriptPubKey": {"reqSigs": 1, "hex": "76a91446ae444c0410ce7c51daf9f39272df61d03bf66888ac", "addresses": ["17Sj4hQRNAjTDXh1wgANTAbvZRR7cd2NJN"], "asm": "OP_DUP OP_HASH160 46ae444c0410ce7c51daf9f39272df61d03bf668 OP_EQUALVERIFY OP_CHECKSIG", "type": "pubkeyhash"}, "value": 0.0034492, "n": 0}, {"scriptPubKey": {"type": "nulldata", "hex": "6a146f6d6e69000000000000001f0000000ab5d04c00", "asm": "OP_RETURN 6f6d6e69000000000000001f0000000ab5d04c00"}, "value": 0.0, "n": 1}, {"scriptPubKey": {"reqSigs": 1, "hex": "76a914e004004a401e9e445e38eeae243c3f54bee3a51088ac", "addresses": ["1MRV9yUDLdUaBb4wz95RUEVomKu7YokNUy"], "asm": "OP_DUP OP_HASH160 e004004a401e9e445e38eeae243c3f54bee3a510 OP_EQUALVERIFY OP_CHECKSIG", "type": "pubkeyhash"}, "value": 5.46e-06, "n": 2}], "hex": "010000000283711c906e3f95e1b9bd33d7c08e334396076e53c568f9c2ded0db12fa2e1cc1000000006a47304402207ae4ca3b7001d2a3eb5ef8b4ff8f4f96edac78ddc22beadccf4ade63ffd843f102201c2dac34f1337afc2ff2eaf7a3620ed42f969eeb88c9fd563dd3b60411405632012103f524f0bc9b07653f5416b6e15a70da847dd3730bbdf2b561cc57814bd2163f43ffffffffa47fe05eb2bee25c259ee10b103e6532a84fedb2280b5508c4865f254b050318000000006a4730440220135091df49eea1526cbb7595188ade696a5a6b71583716555855c85893363068022028db8c6473e4864537a071f11231c3cb8d96e81791963ae757e6e043031cda1f0121023b6d8cd84467cfe6fe831bbdf44cb20cb3180001523862a359bd0bb5ada5b7ecffffffff0358430500000000001976a91446ae444c0410ce7c51daf9f39272df61d03bf66888ac0000000000000000166a146f6d6e69000000000000001f0000000ab5d04c0022020000000000001976a914e004004a401e9e445e38eeae243c3f54bee3a51088ac00000000", "vin": [{"sequence": 4294967295, "scriptSig": {"hex": "47304402207ae4ca3b7001d2a3eb5ef8b4ff8f4f96edac78ddc22beadccf4ade63ffd843f102201c2dac34f1337afc2ff2eaf7a3620ed42f969eeb88c9fd563dd3b60411405632012103f524f0bc9b07653f5416b6e15a70da847dd3730bbdf2b561cc57814bd2163f43", "asm": "304402207ae4ca3b7001d2a3eb5ef8b4ff8f4f96edac78ddc22beadccf4ade63ffd843f102201c2dac34f1337afc2ff2eaf7a3620ed42f969eeb88c9fd563dd3b60411405632[ALL] 03f524f0bc9b07653f5416b6e15a70da847dd3730bbdf2b561cc57814bd2163f43"}, "vout": 0, "txid": "c11c2efa12dbd0dec2f968c5536e079643338ec0d733bdb9e1953f6e901c7183"}, {"sequence": 4294967295, "scriptSig": {"hex": "4730440220135091df49eea1526cbb7595188ade696a5a6b71583716555855c85893363068022028db8c6473e4864537a071f11231c3cb8d96e81791963ae757e6e043031cda1f0121023b6d8cd84467cfe6fe831bbdf44cb20cb3180001523862a359bd0bb5ada5b7ec", "asm": "30440220135091df49eea1526cbb7595188ade696a5a6b71583716555855c85893363068022028db8c6473e4864537a071f11231c3cb8d96e81791963ae757e6e043031cda1f[ALL] 023b6d8cd84467cfe6fe831bbdf44cb20cb3180001523862a359bd0bb5ada5b7ec"}, "vout": 0, "txid": "1803054b255f86c408550b28b2ed4fa832653e100be19e255ce2beb25ee07fa4"}], "txid": "f317d491960cf0659233874d83ebfae480da16c7ea4cc10a259418c45660ec51", "blocktime": 1537870928, "version": 1, "confirmations": 11512, "time": 1537870928, "locktime": 0, "vsize": 403, "size": 403}