{"hash": "9608ec2a049f71862b3f7ff4e3895a1a65470b9e4b4c081e9743cd5096323f96", "blockhash": "0000000000000000000e13cef7c366c0283d82e591d1acd082e914b08063cdf1", "vout": [{"scriptPubKey": {"reqSigs": 1, "hex": "a9143d88f9998302662ab712c18d75aca52745f62da587", "addresses": ["37JPESC9FvbzUEx1shjs73Pg6Rn2s4EJfd"], "asm": "OP_HASH160 3d88f9998302662ab712c18d75aca52745f62da5 OP_EQUAL", "type": "scripthash"}, "value": 0.04879988, "n": 0}, {"scriptPubKey": {"reqSigs": 1, "hex": "76a914fd3346ea4d07b15fd5213f3f3dbb1ca5ccb55f7f88ac", "addresses": ["1Q5oPKhY6wfBFeN15Eucy2NUMJ7X7kN8bx"], "asm": "OP_DUP OP_HASH160 fd3346ea4d07b15fd5213f3f3dbb1ca5ccb55f7f OP_EQUALVERIFY OP_CHECKSIG", "type": "pubkeyhash"}, "value": 0.2, "n": 1}, {"scriptPubKey": {"reqSigs": 1, "hex": "a914986f2a9b9547c7120a23c6423e8612cf315f176e87", "addresses": ["3Fb1ogUULwA24H2JH8NaogNTtahcsAXWL1"], "asm": "OP_HASH160 986f2a9b9547c7120a23c6423e8612cf315f176e OP_EQUAL", "type": "scripthash"}, "value": 0.00361064, "n": 2}, {"scriptPubKey": {"reqSigs": 1, "hex": "76a9140ab93229aea2b4d17e400d42580ac079cfb8c57588ac", "addresses": ["1yhcZPS2E9J5xP3EpCHuEs4q8oZsdE5Lo"], "asm": "OP_DUP OP_HASH160 0ab93229aea2b4d17e400d42580ac079cfb8c575 OP_EQUALVERIFY OP_CHECKSIG", "type": "pubkeyhash"}, "value": 0.03908247, "n": 3}, {"scriptPubKey": {"reqSigs": 1, "hex": "a9146f375766f131e02b7791c6f32087e659cf06eac687", "addresses": ["3Bq5E2T7s45fFptHYhQKetSTVw5YomtLh2"], "asm": "OP_HASH160 6f375766f131e02b7791c6f32087e659cf06eac6 OP_EQUAL", "type": "scripthash"}, "value": 0.01494084, "n": 4}, {"scriptPubKey": {"reqSigs": 1, "hex": "76a9143ed5d8bd7bcd7a5613b832c276c4b181ebbef07088ac", "addresses": ["16jF5DgPp4mcbi495GJc7qYUxo1dbUd9ww"], "asm": "OP_DUP OP_HASH160 3ed5d8bd7bcd7a5613b832c276c4b181ebbef070 OP_EQUALVERIFY OP_CHECKSIG", "type": "pubkeyhash"}, "value": 0.019519, "n": 5}, {"scriptPubKey": {"reqSigs": 1, "hex": "a91498250cedc413dab45f0aaebb56806d5d295119e587", "addresses": ["3FZV21tGoYeGGnF8LyuUmZG92g4KPCYFKT"], "asm": "OP_HASH160 98250cedc413dab45f0aaebb56806d5d295119e5 OP_EQUAL", "type": "scripthash"}, "value": 0.55122154, "n": 6}, {"scriptPubKey": {"reqSigs": 1, "hex": "a914a37cbe955001051de9b14a79c5fba1bac52904ab87", "addresses": ["3GbTWD7Av5WR61Upg85QWMRggsb1T3mYpy"], "asm": "OP_HASH160 a37cbe955001051de9b14a79c5fba1bac52904ab OP_EQUAL", "type": "scripthash"}, "value": 0.00499, "n": 7}, {"scriptPubKey": {"reqSigs": 1, "hex": "a9149977522f1ef6a315dee3aea9a9da0731499bfa0987", "addresses": ["3FgUFTtZi6Ytj9YKJjE3MuUM78Eom5ei5t"], "asm": "OP_HASH160 9977522f1ef6a315dee3aea9a9da0731499bfa09 OP_EQUAL", "type": "scripthash"}, "value": 0.01055233, "n": 8}, {"scriptPubKey": {"reqSigs": 1, "hex": "76a9142b0cdd0efd70baa49c9c41afe51f7fa7ce9c1f8d88ac", "addresses": ["14vdU2DpAUSbxQioRz1pH1rXNr2k6UeFG6"], "asm": "OP_DUP OP_HASH160 2b0cdd0efd70baa49c9c41afe51f7fa7ce9c1f8d OP_EQUALVERIFY OP_CHECKSIG", "type": "pubkeyhash"}, "value": 0.0297808, "n": 9}, {"scriptPubKey": {"reqSigs": 1, "hex": "76a914e8f4342e8e625e4b4803b7a2eab2900592612ec588ac", "addresses": ["1NEkK5ubs231234ko9PqCinzWcRjZpsMpz"], "asm": "OP_DUP OP_HASH160 e8f4342e8e625e4b4803b7a2eab2900592612ec5 OP_EQUALVERIFY OP_CHECKSIG", "type": "pubkeyhash"}, "value": 0.36023207, "n": 10}, {"scriptPubKey": {"reqSigs": 1, "hex": "76a91494179a77044ed6ba437f9ebc25cbff0a1dc3995d88ac", "addresses": ["1EW3HPBNqg3JAnyvZCfA7MBU7qTxtt6XHa"], "asm": "OP_DUP OP_HASH160 94179a77044ed6ba437f9ebc25cbff0a1dc3995d OP_EQUALVERIFY OP_CHECKSIG", "type": "pubkeyhash"}, "value": 0.005, "n": 11}, {"scriptPubKey": {"reqSigs": 1, "hex": "76a91497e9300529083615d26548afa9f007d8198edb9c88ac", "addresses": ["1ErEP8A9CphW66KLk4cUc1HoifJjKpm82d"], "asm": "OP_DUP OP_HASH160 97e9300529083615d26548afa9f007d8198edb9c OP_EQUALVERIFY OP_CHECKSIG", "type": "pubkeyhash"}, "value": 0.0067, "n": 12}, {"scriptPubKey": {"reqSigs": 1, "hex": "a914766b6fb2a0a4fbdd12d55052d9db792cc0154ad287", "addresses": ["3CVAMz9RxtRBtnFsvE6GSBXxkaELA95v6E"], "asm": "OP_HASH160 766b6fb2a0a4fbdd12d55052d9db792cc0154ad2 OP_EQUAL", "type": "scripthash"}, "value": 0.9, "n": 13}, {"scriptPubKey": {"reqSigs": 1, "hex": "76a914d9c74bc4ffe65439fd2e0414efce949e4eca474d88ac", "addresses": ["1LrWNxMDSgFsLZ1F6aT2Txh5UpwWH74JmF"], "asm": "OP_DUP OP_HASH160 d9c74bc4ffe65439fd2e0414efce949e4eca474d OP_EQUALVERIFY OP_CHECKSIG", "type": "pubkeyhash"}, "value": 0.03189129, "n": 14}, {"scriptPubKey": {"reqSigs": 1, "hex": "a914a9fa47d50b0b6dc8fad560dc0673a7c70cb7612a87", "addresses": ["3HBmwmFE8eWY9bRjgoLCJBgnEFGNJ7RyNK"], "asm": "OP_HASH160 a9fa47d50b0b6dc8fad560dc0673a7c70cb7612a OP_EQUAL", "type": "scripthash"}, "value": 0.00624191, "n": 15}, {"scriptPubKey": {"reqSigs": 1, "hex": "76a914f391f88ecd0e6c818a6bf893f69f1f484450213788ac", "addresses": ["1PCt4rTdEmxRJtF2GTxLjnfPEFmjVxFHoA"], "asm": "OP_DUP OP_HASH160 f391f88ecd0e6c818a6bf893f69f1f4844502137 OP_EQUALVERIFY OP_CHECKSIG", "type": "pubkeyhash"}, "value": 0.01033083, "n": 16}, {"scriptPubKey": {"reqSigs": 1, "hex": "a9145b9ef3d3765ddbc8eec01c0034936fadc310d41387", "addresses": ["3A3TqD8BLWz92o7s67KVEPQUxoXb8WdaDN"], "asm": "OP_HASH160 5b9ef3d3765ddbc8eec01c0034936fadc310d413 OP_EQUAL", "type": "scripthash"}, "value": 0.01057833, "n": 17}, {"scriptPubKey": {"reqSigs": 1, "hex": "a9140ffc00c238ac2c039d84f65b039c503855ad69fa87", "addresses": ["339XwtowhAuLmBTnG4TDzhFcEBb8yaGTE3"], "asm": "OP_HASH160 0ffc00c238ac2c039d84f65b039c503855ad69fa OP_EQUAL", "type": "scripthash"}, "value": 0.038, "n": 18}, {"scriptPubKey": {"reqSigs": 1, "hex": "a9145a9351a779bea2f23a76f0da44139f4f16f2d78487", "addresses": ["39wwDi6g2bepQeEPHLEXwmJ7deF8CnTh9k"], "asm": "OP_HASH160 5a9351a779bea2f23a76f0da44139f4f16f2d784 OP_EQUAL", "type": "scripthash"}, "value": 0.09688701, "n": 19}, {"scriptPubKey": {"reqSigs": 1, "hex": "76a9142b08903332fabfd4b4bfe963aabd092bcfe1d4a588ac", "addresses": ["14vYKEgdfmd7DL4VWt5eknxAw3yQYvdFdz"], "asm": "OP_DUP OP_HASH160 2b08903332fabfd4b4bfe963aabd092bcfe1d4a5 OP_EQUALVERIFY OP_CHECKSIG", "type": "pubkeyhash"}, "value": 0.00472907, "n": 20}, {"scriptPubKey": {"reqSigs": 1, "hex": "a914d41a8fdfae5faec4361df0b5018ede813e787b3187", "addresses": ["3M2WzmkaxSjYotFygaYaTohzAH62zSQ8oA"], "asm": "OP_HASH160 d41a8fdfae5faec4361df0b5018ede813e787b31 OP_EQUAL", "type": "scripthash"}, "value": 0.00175999, "n": 21}], "hex": "0100000000010615a24c4bf37681bb2bcaaa8a03052953c1515b714fc7a1689b3dc4ae16ef36e11500000023220020f3bbe8dfdf8c4b871a7d444c89a6ce2e64cd88a948351f3c732b642a68d4b800ffffffffa171672b1190375180e752774b7569acab463b849946ccea27b457007916863c00000000232200207b2196844d303c8ca82d1eae761b6c05db2eca1328aaef36a28a74aafdaaf358ffffffff751ee37317c27d1fe7741130b1ec50807138684ae744f9409b4cc416bc979d1d0100000023220020aec9f65bf3ceb331db868221b5d60418a0d6f88cef74c481672069f3227a6ad0ffffffffd67a688828043ebb70fbe1f84245ad3ae8cb023359f6d71be72a38faf35de6a50000000023220020ab12ea1c6156b12578ddc190d522c8b8d8f3baeb50db6ad6d7e1dda2d7231be2ffffffff51e641b433ab40e9a29641d1686dbddef050ad95115d1d02fbf560bfb7fdbe370000000023220020ab12ea1c6156b12578ddc190d522c8b8d8f3baeb50db6ad6d7e1dda2d7231be2ffffffffd572ec8de0a0f8d5e55a4fe9079960dd54f73187075459db51d6a102c0a1a9ec05000000fdfe00004830450221008ef8f953e64eac7e46d4eaa4af0d6555ee5a7e5952ac0f93af560bbdb9c0cda6022059d053c45cb475f5511eae16e15f80743fcdeaa471ddbcbde87b4bd184de3e3e01483045022100e8fe299ab90d2ab9e9fa62afbcf1f60c1ec30707832a57ca5483de6ec1caacac02206d0cf4e55d65f787fb9d3840d4ffb2d7e829ec801808168ba5ad6862bdef8a80014c695221037c2b92218a5fb7bb32caea1a62fc9169d9c3de792e3f4862f90871ae28dc57a52103aaac654091d3087207b4ecdffb1da25ec0e0b235111effc193aa73e2e7f525642102ecf97af66d79e2402df42165801bc934943a0d47640a60e20337793a8753915f53aeffffffff1674764a000000000017a9143d88f9998302662ab712c18d75aca52745f62da587002d3101000000001976a914fd3346ea4d07b15fd5213f3f3dbb1ca5ccb55f7f88ac688205000000000017a914986f2a9b9547c7120a23c6423e8612cf315f176e8797a23b00000000001976a9140ab93229aea2b4d17e400d42580ac079cfb8c57588ac44cc16000000000017a9146f375766f131e02b7791c6f32087e659cf06eac6879cc81d00000000001976a9143ed5d8bd7bcd7a5613b832c276c4b181ebbef07088acea1849030000000017a91498250cedc413dab45f0aaebb56806d5d295119e587389d07000000000017a914a37cbe955001051de9b14a79c5fba1bac52904ab87011a10000000000017a9149977522f1ef6a315dee3aea9a9da0731499bfa098720712d00000000001976a9142b0cdd0efd70baa49c9c41afe51f7fa7ce9c1f8d88aca7ab2502000000001976a914e8f4342e8e625e4b4803b7a2eab2900592612ec588ac20a10700000000001976a91494179a77044ed6ba437f9ebc25cbff0a1dc3995d88ac30390a00000000001976a91497e9300529083615d26548afa9f007d8198edb9c88ac804a5d050000000017a914766b6fb2a0a4fbdd12d55052d9db792cc0154ad28789a93000000000001976a914d9c74bc4ffe65439fd2e0414efce949e4eca474d88ac3f8609000000000017a914a9fa47d50b0b6dc8fad560dc0673a7c70cb7612a877bc30f00000000001976a914f391f88ecd0e6c818a6bf893f69f1f484450213788ac292410000000000017a9145b9ef3d3765ddbc8eec01c0034936fadc310d41387c0fb39000000000017a9140ffc00c238ac2c039d84f65b039c503855ad69fa877dd693000000000017a9145a9351a779bea2f23a76f0da44139f4f16f2d784874b370700000000001976a9142b08903332fabfd4b4bfe963aabd092bcfe1d4a588ac7faf02000000000017a914d41a8fdfae5faec4361df0b5018ede813e787b3187040047304402200415ffd487fd3c33c3f9803ba03bf69a270b3625300d82e74802d28bebbae0840220444f2cd2ba22729e5cac96a3d94f0da236f7a237d6c0c80349eaa0bdf0a64a04014730440220521a45620fc1fb532006c417ed3dee3d2c42516fb400fb4551554a044c38a3b5022078fe4b377b01af96c01bb0dda65650abdba7a1a76731199921bd48e5bfdfd35b016952210238b863e95a145fd31e565006e0c9ff1291dc9ea7358d10b919c0b2c3f937500121029fcf01f52ea1a7f7cb1462113277eb14f8cbfa6fe49a2886d0800d5ac79b7a5a2102356f5ead751e122e8ebfa9d68a47de734c0f67467b4b802923021ee7bbb62fad53ae0400483045022100fafdbd5e60504742c3a02db00dd970812b70b9244de0156386776c39deff70f1022013ca03b2741eb368bb1987f8f43b67bb406030b2af85f9c536f8bc6f07f7267801473044022072b2095243769e42aaaf3c8e216929c7ec812afdf88671e2363e38d5052cf470022065d48dba93729ff8dd2bb3df9f89e3c4a81cf9b207c45b7bedabda0e9d6bb78301695221022ee24654c4be2aaf9dbcc06bc0a6d42e0521c0e33be76139af97c7fc9a63b0d62102171e6d8cc828de2ed55913a29fc58d690ec69a5166c2f4e1ca9051a7ac47e5cd210219167a35021b55dee8b48f1368fc402e4b713d38e8ed99cb041c4f0333debce453ae040047304402202f06309c10363361eaa9815aa20f3c5d78c28ae393608376b84c85eba481e4b9022035b6467f0384fd26057d12d16d614cc0d88b07059e291795a05afaf115e0ab9101473044022037bcc7f18ae082622cf88807f6a9e831a36baf7c7b16fcc98b4cfeb3b24224db02207f9276ec6f3cffcafd9971077a0908d9eae6ffb4293c6d078b27471a4c722de10169522102ebe2dd38978274232ed90a9bc308480819a6ff452969ac956af1a86b2863c2022103568eed0a70b4986677af47ae79d62b996f77e8347e55749a4e95d40a246e299021025b98b808a89dfb3fa8cf9a09d208d50a0a2c7f0db702248c3e3fefd2f80f86d953ae0400483045022100ca3ae7c2bbb72ef64babaa80a58e6affd454fbbc28518537bd2a9d044b1dba56022038196e7b8a2a0d37fd0cb0786975e4fd1d79809328fde504e3e5dca9542982f501483045022100c4bb995f0e91280beeab2f5206a3a7d2f3e66c02875c78ef77730fc53a83f34e02200e42f43bda646cfa125517c54217b3ff743d711b05ae1dbd1ed85559276ecac4016952210245bf70354a084e5bc07245d12c48867d76bf11e0492fe123779b48c2f40521522102dbfa970aad099e63063b99abf89e9e9dd506ff65cf0bcccffe247bda3bf202b721030e08e11029c7134143859a8c826c1b57b90233ad28fa516ae6e2d080442bce9753ae04004730440220360e7e16f080ad9f4a54cb69df0a3e70f64ae36c64145b17751b5b9c7a5a801d02204459fc9f99edda26b61f3c8739787351eeb4401226d4e4e99ec247e854d564a3014830450221009a30608088bd7c7b5b19f3327ed5ef803e3433f056abf4d1a22f6cd1eb3f9f7a022030e2d383790cf92bc79e313eaf7efb131e77a5766e8d7a9ef776da66f1a447ed016952210245bf70354a084e5bc07245d12c48867d76bf11e0492fe123779b48c2f40521522102dbfa970aad099e63063b99abf89e9e9dd506ff65cf0bcccffe247bda3bf202b721030e08e11029c7134143859a8c826c1b57b90233ad28fa516ae6e2d080442bce9753ae0000000000", "vin": [{"txinwitness": ["", "304402200415ffd487fd3c33c3f9803ba03bf69a270b3625300d82e74802d28bebbae0840220444f2cd2ba22729e5cac96a3d94f0da236f7a237d6c0c80349eaa0bdf0a64a0401", "30440220521a45620fc1fb532006c417ed3dee3d2c42516fb400fb4551554a044c38a3b5022078fe4b377b01af96c01bb0dda65650abdba7a1a76731199921bd48e5bfdfd35b01", "52210238b863e95a145fd31e565006e0c9ff1291dc9ea7358d10b919c0b2c3f937500121029fcf01f52ea1a7f7cb1462113277eb14f8cbfa6fe49a2886d0800d5ac79b7a5a2102356f5ead751e122e8ebfa9d68a47de734c0f67467b4b802923021ee7bbb62fad53ae"], "sequence": 4294967295, "scriptSig": {"hex": "220020f3bbe8dfdf8c4b871a7d444c89a6ce2e64cd88a948351f3c732b642a68d4b800", "asm": "0020f3bbe8dfdf8c4b871a7d444c89a6ce2e64cd88a948351f3c732b642a68d4b800"}, "vout": 21, "txid": "e136ef16aec43d9b68a1c74f715b51c1532905038aaaca2bbb8176f34b4ca215"}, {"txinwitness": ["", "3045022100fafdbd5e60504742c3a02db00dd970812b70b9244de0156386776c39deff70f1022013ca03b2741eb368bb1987f8f43b67bb406030b2af85f9c536f8bc6f07f7267801", "3044022072b2095243769e42aaaf3c8e216929c7ec812afdf88671e2363e38d5052cf470022065d48dba93729ff8dd2bb3df9f89e3c4a81cf9b207c45b7bedabda0e9d6bb78301", "5221022ee24654c4be2aaf9dbcc06bc0a6d42e0521c0e33be76139af97c7fc9a63b0d62102171e6d8cc828de2ed55913a29fc58d690ec69a5166c2f4e1ca9051a7ac47e5cd210219167a35021b55dee8b48f1368fc402e4b713d38e8ed99cb041c4f0333debce453ae"], "sequence": 4294967295, "scriptSig": {"hex": "2200207b2196844d303c8ca82d1eae761b6c05db2eca1328aaef36a28a74aafdaaf358", "asm": "00207b2196844d303c8ca82d1eae761b6c05db2eca1328aaef36a28a74aafdaaf358"}, "vout": 0, "txid": "3c8616790057b427eacc4699843b46abac69754b7752e780513790112b6771a1"}, {"txinwitness": ["", "304402202f06309c10363361eaa9815aa20f3c5d78c28ae393608376b84c85eba481e4b9022035b6467f0384fd26057d12d16d614cc0d88b07059e291795a05afaf115e0ab9101", "3044022037bcc7f18ae082622cf88807f6a9e831a36baf7c7b16fcc98b4cfeb3b24224db02207f9276ec6f3cffcafd9971077a0908d9eae6ffb4293c6d078b27471a4c722de101", "522102ebe2dd38978274232ed90a9bc308480819a6ff452969ac956af1a86b2863c2022103568eed0a70b4986677af47ae79d62b996f77e8347e55749a4e95d40a246e299021025b98b808a89dfb3fa8cf9a09d208d50a0a2c7f0db702248c3e3fefd2f80f86d953ae"], "sequence": 4294967295, "scriptSig": {"hex": "220020aec9f65bf3ceb331db868221b5d60418a0d6f88cef74c481672069f3227a6ad0", "asm": "0020aec9f65bf3ceb331db868221b5d60418a0d6f88cef74c481672069f3227a6ad0"}, "vout": 1, "txid": "1d9d97bc16c44c9b40f944e74a6838718050ecb1301174e71f7dc21773e31e75"}, {"txinwitness": ["", "3045022100ca3ae7c2bbb72ef64babaa80a58e6affd454fbbc28518537bd2a9d044b1dba56022038196e7b8a2a0d37fd0cb0786975e4fd1d79809328fde504e3e5dca9542982f501", "3045022100c4bb995f0e91280beeab2f5206a3a7d2f3e66c02875c78ef77730fc53a83f34e02200e42f43bda646cfa125517c54217b3ff743d711b05ae1dbd1ed85559276ecac401", "52210245bf70354a084e5bc07245d12c48867d76bf11e0492fe123779b48c2f40521522102dbfa970aad099e63063b99abf89e9e9dd506ff65cf0bcccffe247bda3bf202b721030e08e11029c7134143859a8c826c1b57b90233ad28fa516ae6e2d080442bce9753ae"], "sequence": 4294967295, "scriptSig": {"hex": "220020ab12ea1c6156b12578ddc190d522c8b8d8f3baeb50db6ad6d7e1dda2d7231be2", "asm": "0020ab12ea1c6156b12578ddc190d522c8b8d8f3baeb50db6ad6d7e1dda2d7231be2"}, "vout": 0, "txid": "a5e65df3fa382ae71bd7f6593302cbe83aad4542f8e1fb70bb3e042888687ad6"}, {"txinwitness": ["", "30440220360e7e16f080ad9f4a54cb69df0a3e70f64ae36c64145b17751b5b9c7a5a801d02204459fc9f99edda26b61f3c8739787351eeb4401226d4e4e99ec247e854d564a301", "30450221009a30608088bd7c7b5b19f3327ed5ef803e3433f056abf4d1a22f6cd1eb3f9f7a022030e2d383790cf92bc79e313eaf7efb131e77a5766e8d7a9ef776da66f1a447ed01", "52210245bf70354a084e5bc07245d12c48867d76bf11e0492fe123779b48c2f40521522102dbfa970aad099e63063b99abf89e9e9dd506ff65cf0bcccffe247bda3bf202b721030e08e11029c7134143859a8c826c1b57b90233ad28fa516ae6e2d080442bce9753ae"], "sequence": 4294967295, "scriptSig": {"hex": "220020ab12ea1c6156b12578ddc190d522c8b8d8f3baeb50db6ad6d7e1dda2d7231be2", "asm": "0020ab12ea1c6156b12578ddc190d522c8b8d8f3baeb50db6ad6d7e1dda2d7231be2"}, "vout": 0, "txid": "37befdb7bf60f5fb021d5d1195ad50f0debd6d68d14196a2e940ab33b441e651"}, {"sequence": 4294967295, "scriptSig": {"hex": "004830450221008ef8f953e64eac7e46d4eaa4af0d6555ee5a7e5952ac0f93af560bbdb9c0cda6022059d053c45cb475f5511eae16e15f80743fcdeaa471ddbcbde87b4bd184de3e3e01483045022100e8fe299ab90d2ab9e9fa62afbcf1f60c1ec30707832a57ca5483de6ec1caacac02206d0cf4e55d65f787fb9d3840d4ffb2d7e829ec801808168ba5ad6862bdef8a80014c695221037c2b92218a5fb7bb32caea1a62fc9169d9c3de792e3f4862f90871ae28dc57a52103aaac654091d3087207b4ecdffb1da25ec0e0b235111effc193aa73e2e7f525642102ecf97af66d79e2402df42165801bc934943a0d47640a60e20337793a8753915f53ae", "asm": "0 30450221008ef8f953e64eac7e46d4eaa4af0d6555ee5a7e5952ac0f93af560bbdb9c0cda6022059d053c45cb475f5511eae16e15f80743fcdeaa471ddbcbde87b4bd184de3e3e[ALL] 3045022100e8fe299ab90d2ab9e9fa62afbcf1f60c1ec30707832a57ca5483de6ec1caacac02206d0cf4e55d65f787fb9d3840d4ffb2d7e829ec801808168ba5ad6862bdef8a80[ALL] 5221037c2b92218a5fb7bb32caea1a62fc9169d9c3de792e3f4862f90871ae28dc57a52103aaac654091d3087207b4ecdffb1da25ec0e0b235111effc193aa73e2e7f525642102ecf97af66d79e2402df42165801bc934943a0d47640a60e20337793a8753915f53ae"}, "vout": 5, "txid": "eca9a1c002a1d651db5954078731f754dd609907e94f5ae5d5f8a0e08dec72d5"}], "txid": "f31cd1fa5d1675ad3a861ced6b9dd16d23c7e6fa65337c5c742fd4f5d1cab5d1", "blocktime": 1537871767, "version": 1, "confirmations": 11493, "time": 1537871767, "locktime": 0, "vsize": 1728, "size": 2678}