{"hash": "8ebcd61345769defcdf24ca8c83a556ef151644ed3433de60ee1083917909725", "blockhash": "000000000000000000022b45ed06c6f4ccd3cf7fb5ba4856ebd2e58215665228", "vout": [{"scriptPubKey": {"reqSigs": 1, "hex": "76a914c8a1f40206be2914a6a8c95e59680b6eee211cdf88ac", "addresses": ["1KHrA4ysby6y9vQTazvWAkpjbEaMo1XGgM"], "asm": "OP_DUP OP_HASH160 c8a1f40206be2914a6a8c95e59680b6eee211cdf OP_EQUALVERIFY OP_CHECKSIG", "type": "pubkeyhash"}, "value": 0.0005, "n": 0}, {"scriptPubKey": {"reqSigs": 1, "hex": "a9141945a3b179abc7ecf26396d00c8f009a4e1cbb0187", "addresses": ["33zeEyK75NwQk6fGmJkc9rc8BXRo45EsGe"], "asm": "OP_HASH160 1945a3b179abc7ecf26396d00c8f009a4e1cbb01 OP_EQUAL", "type": "scripthash"}, "value": 0.0157, "n": 1}], "hex": "02000000000101537a61d2063c8520e08735529166d0e1774cf743f49d21bd7c839759f901bbb40100000017160014e33b3fc9f193a53a8d09a04176a4eb8a24845bf0ffffffff0250c30000000000001976a914c8a1f40206be2914a6a8c95e59680b6eee211cdf88acd0f417000000000017a9141945a3b179abc7ecf26396d00c8f009a4e1cbb018702473044022027c511887b0c1c77153dca99e8ec970b6025bef4ae1cfb2277da281ead73479c022040f3835b26cbea4df834f7823abd497481fda690571022c4c60bf8be63e1ddd1012103715facb996ce872982b5c7c6c57ddccb8fa630d18a507c887dfcdd3350fb2c3600000000", "vin": [{"txinwitness": ["3044022027c511887b0c1c77153dca99e8ec970b6025bef4ae1cfb2277da281ead73479c022040f3835b26cbea4df834f7823abd497481fda690571022c4c60bf8be63e1ddd101", "03715facb996ce872982b5c7c6c57ddccb8fa630d18a507c887dfcdd3350fb2c36"], "sequence": 4294967295, "scriptSig": {"hex": "160014e33b3fc9f193a53a8d09a04176a4eb8a24845bf0", "asm": "0014e33b3fc9f193a53a8d09a04176a4eb8a24845bf0"}, "vout": 1, "txid": "b4bb01f95997837cbd219df443f74c77e1d06691523587e020853c06d2617a53"}], "txid": "f31e34fe31cd553a9d8dbe65f0c730d187622c7fcd45808cc7e1190810a4d469", "blocktime": 1537869901, "version": 2, "confirmations": 11522, "time": 1537869901, "locktime": 0, "vsize": 168, "size": 249}