{"hash": "f31f54520d63a840ad681f77868f10559cf54070bb6033256089e9d43d666831", "blockhash": "0000000000000000000e13cef7c366c0283d82e591d1acd082e914b08063cdf1", "vout": [{"scriptPubKey": {"reqSigs": 1, "hex": "a9140cce42f765af98ede5df5123d9acfe80a784708187", "addresses": ["32rj89mnjQcxGZCeCJzXQRafgWbW4KfFyK"], "asm": "OP_HASH160 0cce42f765af98ede5df5123d9acfe80a7847081 OP_EQUAL", "type": "scripthash"}, "value": 0.07108675, "n": 0}, {"scriptPubKey": {"reqSigs": 1, "hex": "76a91401630a2b4004558679261e0f828624f8ce6a0bdc88ac", "addresses": ["18LKbMnPtT9YAm47uYJBxYbiRMw2VREfA"], "asm": "OP_DUP OP_HASH160 01630a2b4004558679261e0f828624f8ce6a0bdc OP_EQUALVERIFY OP_CHECKSIG", "type": "pubkeyhash"}, "value": 0.00344085, "n": 1}], "hex": "0100000001d967dafc74d1fb64061380862c084c5ac63fac730f68d4ccf41bca25deb2ed67000000006a4730440220380e8d0f6f280da314dd1d26df7ba950d08aa0fe8225992bacea2902858ab7500220304137140cfc19dd4e4c9fb42d64947fa29f68ae18531231b21e5066fcde22990121029eb788f7bd76f1b7cf88fea3c46a2a3e3bf979b314ee505ce0032861d5427969ffffffff0243786c000000000017a9140cce42f765af98ede5df5123d9acfe80a78470818715400500000000001976a91401630a2b4004558679261e0f828624f8ce6a0bdc88ac00000000", "vin": [{"sequence": 4294967295, "scriptSig": {"hex": "4730440220380e8d0f6f280da314dd1d26df7ba950d08aa0fe8225992bacea2902858ab7500220304137140cfc19dd4e4c9fb42d64947fa29f68ae18531231b21e5066fcde22990121029eb788f7bd76f1b7cf88fea3c46a2a3e3bf979b314ee505ce0032861d5427969", "asm": "30440220380e8d0f6f280da314dd1d26df7ba950d08aa0fe8225992bacea2902858ab7500220304137140cfc19dd4e4c9fb42d64947fa29f68ae18531231b21e5066fcde2299[ALL] 029eb788f7bd76f1b7cf88fea3c46a2a3e3bf979b314ee505ce0032861d5427969"}, "vout": 0, "txid": "67edb2de25ca1bf4ccd4680f73ac3fc65a4c082c8680130664fbd174fcda67d9"}], "txid": "f31f54520d63a840ad681f77868f10559cf54070bb6033256089e9d43d666831", "blocktime": 1537871767, "version": 1, "confirmations": 11491, "time": 1537871767, "locktime": 0, "vsize": 223, "size": 223}