{"hash": "0e3b58c999642e94aca450cc9346d1deff3e837205e6262c033dfd2f3ab8342b", "blockhash": "0000000000000000000baef3f32e3676a92c3b2e5da21b426e4f302fc371ce76", "vout": [{"scriptPubKey": {"reqSigs": 1, "hex": "76a91485856271407c2220c494a4d830f82475cc60561f88ac", "addresses": ["1DAzfEZW9rtA3KDNQwvaqaiQSSTPsydXKF"], "asm": "OP_DUP OP_HASH160 85856271407c2220c494a4d830f82475cc60561f OP_EQUALVERIFY OP_CHECKSIG", "type": "pubkeyhash"}, "value": 0.00786393, "n": 0}], "hex": "01000000000104a5cfdd3d1dcbdbc0b63924fb1a071fcb9c62041c05a7c599164c578a03e5e9ca00000000232200201e3b98d88e6efbd0aed53df1bd86baccb8e1d062264801e82b759dce7bf60b91ffffffffb442bcb5db4829c9dd3c07706b5bbdaa57aa76634350ed751bfa1285aee745c80100000023220020d8123b9af659be0b3b450979126416a3c69dda42574acbe7f1bacbc3425a8d12ffffffffb039c3c6611364eff83fbab875e0fe1f77a74ec409b295b26c383996632924df01000000232200207c766ed1dcd8c8735788695cbeb79a8f06453698a04565b08386a4a4b414a776ffffffff7c40c821b7513379b83aa6352732db29e744c9447bce369263e251f09e8c54420100000023220020f9691d420eddf5db805a7a98053669ee76ce93ac691d2bd2c6f045295c6da90cffffffff01d9ff0b00000000001976a91485856271407c2220c494a4d830f82475cc60561f88ac04004730440220654f70072f4f6b49d36d16a485438db52f2feb50d0372f4a037cfdc0ee02cd050220130d39365cfd66d72f251cc0f4fb9843b31a9c02d9c1f5239b4d0192cd65acb60147304402204f8c73fc2a44cc1c6d3560505fb3662288c29e23cdaa476d2df5f3e773bcf9be0220057973cfc37ddef408f179a7515cd898ca128ce80ba5de3990788c0583e83af001475221036c809f7959f5590cd309b1003ee06b6f6f692be94ad9cba6c119e71499eb8862210320c457dbda1a1a751b16e6d0398b6e3891b4a7d99ff542144dc83675a9af369a52ae040048304502210084c654d093b85916d77a7a1a32d70c55e8f81bfed741bb0ef693b7e87e0a1e2d022035ed4387224e782c8f6b33168689c4eb0c9c85f88b44082edc00e557ebf5d3b701483045022100daf549c6c16af16393993a769dcdb9005989c16a9a53dd37750893f6e8095ddd022023a52175b12245898b527d5f32c882b372ed73575d5f08426d868436e6febf0701475221027cbdf8e3a6024a3f62e0a14b552efe5399b591cf0bd42e108a1f41c16b672e67210320c457dbda1a1a751b16e6d0398b6e3891b4a7d99ff542144dc83675a9af369a52ae0400483045022100cf21378595d07405423a9e911ef24f7e19944ff97294f27cc31f599a8431b1ea022000c481de2c0124e34852d169150dbf049954beb3b3960b5c69c6b28a0b77f7e3014830450221009bce13e270dd9570ee84ecae2a75c65b38aca6e44e7037e547ec24d985a1886102205a8150605a9d8e679a3c6fccec924f1e7355e697dad226c4238e8ab34da39c2e0147522102106f4c4d7aabc28f49ff25548500c5a11b76ef18df751f66db404bf7072dccea210320c457dbda1a1a751b16e6d0398b6e3891b4a7d99ff542144dc83675a9af369a52ae040047304402202dc6d311e409eaef0c71fc5410bf9e3e028a702dd4a13bbd863aab71e42537f002202a6c5180ea16ed51316460a00e117cb527e08e806bc10a0f470e4eeb18418cd10147304402202bc09283de89fc86225590b1394df6e36208fb7590d4b8370be364e93abee2040220747fef9d0b681b01b1c988b46977ac94de6dc4f643a4b749b3512aee54141a7b014752210346c1f768c09e1d86b30374f9ec7ccd879c5a296ebfea571c17f839aee774ed97210320c457dbda1a1a751b16e6d0398b6e3891b4a7d99ff542144dc83675a9af369a52ae00000000", "vin": [{"txinwitness": ["", "30440220654f70072f4f6b49d36d16a485438db52f2feb50d0372f4a037cfdc0ee02cd050220130d39365cfd66d72f251cc0f4fb9843b31a9c02d9c1f5239b4d0192cd65acb601", "304402204f8c73fc2a44cc1c6d3560505fb3662288c29e23cdaa476d2df5f3e773bcf9be0220057973cfc37ddef408f179a7515cd898ca128ce80ba5de3990788c0583e83af001", "5221036c809f7959f5590cd309b1003ee06b6f6f692be94ad9cba6c119e71499eb8862210320c457dbda1a1a751b16e6d0398b6e3891b4a7d99ff542144dc83675a9af369a52ae"], "sequence": 4294967295, "scriptSig": {"hex": "2200201e3b98d88e6efbd0aed53df1bd86baccb8e1d062264801e82b759dce7bf60b91", "asm": "00201e3b98d88e6efbd0aed53df1bd86baccb8e1d062264801e82b759dce7bf60b91"}, "vout": 0, "txid": "cae9e5038a574c1699c5a7051c04629ccb1f071afb2439b6c0dbcb1d3dddcfa5"}, {"txinwitness": ["", "304502210084c654d093b85916d77a7a1a32d70c55e8f81bfed741bb0ef693b7e87e0a1e2d022035ed4387224e782c8f6b33168689c4eb0c9c85f88b44082edc00e557ebf5d3b701", "3045022100daf549c6c16af16393993a769dcdb9005989c16a9a53dd37750893f6e8095ddd022023a52175b12245898b527d5f32c882b372ed73575d5f08426d868436e6febf0701", "5221027cbdf8e3a6024a3f62e0a14b552efe5399b591cf0bd42e108a1f41c16b672e67210320c457dbda1a1a751b16e6d0398b6e3891b4a7d99ff542144dc83675a9af369a52ae"], "sequence": 4294967295, "scriptSig": {"hex": "220020d8123b9af659be0b3b450979126416a3c69dda42574acbe7f1bacbc3425a8d12", "asm": "0020d8123b9af659be0b3b450979126416a3c69dda42574acbe7f1bacbc3425a8d12"}, "vout": 1, "txid": "c845e7ae8512fa1b75ed50436376aa57aabd5b6b70073cddc92948dbb5bc42b4"}, {"txinwitness": ["", "3045022100cf21378595d07405423a9e911ef24f7e19944ff97294f27cc31f599a8431b1ea022000c481de2c0124e34852d169150dbf049954beb3b3960b5c69c6b28a0b77f7e301", "30450221009bce13e270dd9570ee84ecae2a75c65b38aca6e44e7037e547ec24d985a1886102205a8150605a9d8e679a3c6fccec924f1e7355e697dad226c4238e8ab34da39c2e01", "522102106f4c4d7aabc28f49ff25548500c5a11b76ef18df751f66db404bf7072dccea210320c457dbda1a1a751b16e6d0398b6e3891b4a7d99ff542144dc83675a9af369a52ae"], "sequence": 4294967295, "scriptSig": {"hex": "2200207c766ed1dcd8c8735788695cbeb79a8f06453698a04565b08386a4a4b414a776", "asm": "00207c766ed1dcd8c8735788695cbeb79a8f06453698a04565b08386a4a4b414a776"}, "vout": 1, "txid": "df2429639639386cb295b209c44ea7771ffee075b8ba3ff8ef641361c6c339b0"}, {"txinwitness": ["", "304402202dc6d311e409eaef0c71fc5410bf9e3e028a702dd4a13bbd863aab71e42537f002202a6c5180ea16ed51316460a00e117cb527e08e806bc10a0f470e4eeb18418cd101", "304402202bc09283de89fc86225590b1394df6e36208fb7590d4b8370be364e93abee2040220747fef9d0b681b01b1c988b46977ac94de6dc4f643a4b749b3512aee54141a7b01", "52210346c1f768c09e1d86b30374f9ec7ccd879c5a296ebfea571c17f839aee774ed97210320c457dbda1a1a751b16e6d0398b6e3891b4a7d99ff542144dc83675a9af369a52ae"], "sequence": 4294967295, "scriptSig": {"hex": "220020f9691d420eddf5db805a7a98053669ee76ce93ac691d2bd2c6f045295c6da90c", "asm": "0020f9691d420eddf5db805a7a98053669ee76ce93ac691d2bd2c6f045295c6da90c"}, "vout": 1, "txid": "42548c9ef051e2639236ce7b44c944e729db322735a63ab8793351b721c8407c"}], "txid": "f3203d45d8aab1c4c7c24c408b71bb5f84bd2570d99bbd4b925440608c3723cb", "blocktime": 1537876114, "version": 1, "confirmations": 11460, "time": 1537876114, "locktime": 0, "vsize": 568, "size": 1226}