{"hash": "f3253cfa5e719b22ef856bb1e14ce34be26efac71637fca1d1d6c155481fe15a", "blockhash": "0000000000000000000e13cef7c366c0283d82e591d1acd082e914b08063cdf1", "vout": [{"scriptPubKey": {"reqSigs": 1, "hex": "a914ca10b92c072c48f7d62749c55990ef2db4f63b2c87", "addresses": ["3L7STFVcp8EEMi5Li4uiMe8bVT8FW7s8FL"], "asm": "OP_HASH160 ca10b92c072c48f7d62749c55990ef2db4f63b2c OP_EQUAL", "type": "scripthash"}, "value": 0.19723893, "n": 0}], "hex": "0100000001e1e5de5e4654a5b67250bb6a4eb38a5f1060ecaa501a0456d3c88d693fbef857000000006a47304402205dcdd1d14e2495a6d8d3c50f6023c0e9c4ba76a052c693cab1d36e20068d2c50022078702159bffa80d46cc64a978bcc5a3607bd81f2598b0a1e940b26d4ad21ee0d012103c18db9bf3e097f7bc74d0e0cb655fb02e7af49fa98eb91fae086b91b35ca8dd2fdffffff0175f62c010000000017a914ca10b92c072c48f7d62749c55990ef2db4f63b2c8710490800", "vin": [{"sequence": 4294967293, "scriptSig": {"hex": "47304402205dcdd1d14e2495a6d8d3c50f6023c0e9c4ba76a052c693cab1d36e20068d2c50022078702159bffa80d46cc64a978bcc5a3607bd81f2598b0a1e940b26d4ad21ee0d012103c18db9bf3e097f7bc74d0e0cb655fb02e7af49fa98eb91fae086b91b35ca8dd2", "asm": "304402205dcdd1d14e2495a6d8d3c50f6023c0e9c4ba76a052c693cab1d36e20068d2c50022078702159bffa80d46cc64a978bcc5a3607bd81f2598b0a1e940b26d4ad21ee0d[ALL] 03c18db9bf3e097f7bc74d0e0cb655fb02e7af49fa98eb91fae086b91b35ca8dd2"}, "vout": 0, "txid": "57f8be3f698dc8d356041a50aaec60105f8ab34e6abb5072b6a554465edee5e1"}], "txid": "f3253cfa5e719b22ef856bb1e14ce34be26efac71637fca1d1d6c155481fe15a", "blocktime": 1537871767, "version": 1, "confirmations": 11493, "time": 1537871767, "locktime": 542992, "vsize": 189, "size": 189}