{"hash": "9152df85bd2864656d974cfc6506e60981efbcf6956552ebec61f4350f34c435", "blockhash": "00000000000000000018f53835495a110e01622372bf6ae95dc86f2b0ab887b0", "vout": [{"scriptPubKey": {"reqSigs": 1, "hex": "a91491822e009e56a199b563ab9d8acabd0c3171fbd787", "addresses": ["3ExPrQLD3UeJY4gxtQx8G5mwCCsRkzA8a6"], "asm": "OP_HASH160 91822e009e56a199b563ab9d8acabd0c3171fbd7 OP_EQUAL", "type": "scripthash"}, "value": 0.015627, "n": 0}, {"scriptPubKey": {"reqSigs": 1, "hex": "a914dee0a1cc9f055700143e0f4ecee53180ab3530dc87", "addresses": ["3N1V2qWA5hpScEmS72pMooYRmXUiLmwPQQ"], "asm": "OP_HASH160 dee0a1cc9f055700143e0f4ecee53180ab3530dc OP_EQUAL", "type": "scripthash"}, "value": 0.35932039, "n": 1}], "hex": "02000000000101fcdda0a5100b5cd628ad013947f8d0a951632e337a9fd52bf14e4a2442bca1950100000017160014cb5dbe423de4d42b6425c6921084c6197a5d2937ffffffff024cd817000000000017a91491822e009e56a199b563ab9d8acabd0c3171fbd787874724020000000017a914dee0a1cc9f055700143e0f4ecee53180ab3530dc870247304402202a50061fd75a64752223e8297a306c6ebb8f9a1540a7427c4a6ea082f477d55102204baf7019b37e1d2a23aa337eed7b343060b9c80921c745a5066c9dd7fabb5a41012102acecad485eda786cbe0422823b7594aea6854abb5ec85e267f1c4b87f3f758f700000000", "vin": [{"txinwitness": ["304402202a50061fd75a64752223e8297a306c6ebb8f9a1540a7427c4a6ea082f477d55102204baf7019b37e1d2a23aa337eed7b343060b9c80921c745a5066c9dd7fabb5a4101", "02acecad485eda786cbe0422823b7594aea6854abb5ec85e267f1c4b87f3f758f7"], "sequence": 4294967295, "scriptSig": {"hex": "160014cb5dbe423de4d42b6425c6921084c6197a5d2937", "asm": "0014cb5dbe423de4d42b6425c6921084c6197a5d2937"}, "vout": 1, "txid": "95a1bc42244a4ef12bd59f7a332e6351a9d0f8473901ad28d65c0b10a5a0ddfc"}], "txid": "f325d92da6d327e6d3a9f48596a00a47b71831a09a451d1ebab8c258bfa0b310", "blocktime": 1537870928, "version": 2, "confirmations": 11512, "time": 1537870928, "locktime": 0, "vsize": 166, "size": 247}