{"hash": "8f3fd372754804e8e476fe46286ca0838b3f95c156a10f5273c0b1bc2eea5e74", "blockhash": "00000000000000000004ffacab907a6b429b9a5745fa0b75af4234bf69dd7176", "vout": [{"scriptPubKey": {"reqSigs": 1, "hex": "76a914386d6a74a4d6e4671f279dd8ac3b10857dfd727788ac", "addresses": ["169Mv68juuzUzYnqi6Az7r1n2MA3Cjg9MB"], "asm": "OP_DUP OP_HASH160 386d6a74a4d6e4671f279dd8ac3b10857dfd7277 OP_EQUALVERIFY OP_CHECKSIG", "type": "pubkeyhash"}, "value": 0.001811, "n": 0}, {"scriptPubKey": {"reqSigs": 1, "hex": "a914519370b52fb5592bbcd10cb1357175d2e1f028fc87", "addresses": ["398MHQoYLp764Wj72GuHCkEbMSCgYms9Q6"], "asm": "OP_HASH160 519370b52fb5592bbcd10cb1357175d2e1f028fc OP_EQUAL", "type": "scripthash"}, "value": 0.0065577, "n": 1}], "hex": "02000000000101eaa9373d728add4e979f697da779f1497c32fc77a93a02f649119b99f9f927e80100000017160014ea1fea556ba8ddcee6010e4eecc7dc940c501201fdffffff026cc30200000000001976a914386d6a74a4d6e4671f279dd8ac3b10857dfd727788ac9a010a000000000017a914519370b52fb5592bbcd10cb1357175d2e1f028fc870247304402203cb627445314372be0859a3dcceeef899b44ce7fcd02caf01a4d0814128e2a2f02203819e646979202fce9a20ac0b6d701c78059dac641e25d85a172ee30ece1b8a3012102a9bd6616fd9a8d1e6bfc9b7a2c116af95a80d99661db9c1191089a2c3cf9270bd4480800", "vin": [{"txinwitness": ["304402203cb627445314372be0859a3dcceeef899b44ce7fcd02caf01a4d0814128e2a2f02203819e646979202fce9a20ac0b6d701c78059dac641e25d85a172ee30ece1b8a301", "02a9bd6616fd9a8d1e6bfc9b7a2c116af95a80d99661db9c1191089a2c3cf9270b"], "sequence": 4294967293, "scriptSig": {"hex": "160014ea1fea556ba8ddcee6010e4eecc7dc940c501201", "asm": "0014ea1fea556ba8ddcee6010e4eecc7dc940c501201"}, "vout": 1, "txid": "e827f9f9999b1149f6023aa977fc327c49f179a77d699f974edd8a723d37a9ea"}], "txid": "f32ddd56204ed009fa01c5c271b29635e54dcdb3a2ef8d565a7b9f21939b37fe", "blocktime": 1537875543, "version": 2, "confirmations": 11464, "time": 1537875543, "locktime": 542932, "vsize": 168, "size": 249}