{"hash": "64d3369cc48149c47fa46eb0c1034fcabda14fdeddad34bd0af476dd48f4a1d8", "blockhash": "00000000000000000024a2167bbff67b0be802c0b01cdd79e6331c2be6459f87", "vout": [{"scriptPubKey": {"reqSigs": 1, "hex": "a91495d12b86f271bd28d9d2ec1c304e0f6741f3897887", "addresses": ["3FMBBWp5QsPxR6NTSgpcuX7iBaCHF9DLqc"], "asm": "OP_HASH160 95d12b86f271bd28d9d2ec1c304e0f6741f38978 OP_EQUAL", "type": "scripthash"}, "value": 0.00999506, "n": 0}, {"scriptPubKey": {"reqSigs": 1, "hex": "76a9143453fd131328b958677613577482bc30fdfe9b5a88ac", "addresses": ["15mgkc19PhrnNAFUmtNSMVraDfveXQd9Zb"], "asm": "OP_DUP OP_HASH160 3453fd131328b958677613577482bc30fdfe9b5a OP_EQUALVERIFY OP_CHECKSIG", "type": "pubkeyhash"}, "value": 0.00214432, "n": 1}, {"scriptPubKey": {"reqSigs": 1, "hex": "76a914972a0e98501292d3a98f34648e42b1dca99f960388ac", "addresses": ["1EnHR93tQoNFnqZkHgKdVa1QXBXm93GSP5"], "asm": "OP_DUP OP_HASH160 972a0e98501292d3a98f34648e42b1dca99f9603 OP_EQUALVERIFY OP_CHECKSIG", "type": "pubkeyhash"}, "value": 0.0118729, "n": 2}], "hex": "0200000000010510e3c58b3c8584a9629e71513462d65b13bf2615d3e28221c30686be532a388100000000171600144e490f3c64552ef1904e0129e34a3cde0f7f0724feffffff3b13f84828b56f6d4321b9071bdb4fe780c71df7ee563e9c5deca7d8df8688a90000000017160014a84960bd3383fdaaf25935820af0920b80268f0cfeffffff5b70b24ba031e7cb862fcef366b9d943dafcb57762d0c16610c450c06526119804000000171600143cd10d485127c182a9e790eea23ecb150e4b5218feffffffc913a13a9d3b31ae38215917dcb3551768e937a7d02f1456b69ab5814d0b6003000000001716001416e675566f8c7546d7403a21ab745c31fa554398feffffffe4d7b828c01264dfc6d60806d6283a68303d9d00383d7357a266943c6bf9594700000000171600140505577095d6d3a8799567b5c8783181b32c16b5feffffff0352400f000000000017a91495d12b86f271bd28d9d2ec1c304e0f6741f3897887a0450300000000001976a9143453fd131328b958677613577482bc30fdfe9b5a88acda1d1200000000001976a914972a0e98501292d3a98f34648e42b1dca99f960388ac0247304402207d71f0dcd243a04853a9232498e30de023d33ca6c34769baeec0c6c03c62d61f02200d9c44ec106d34d440d29575979a54056e361e7c4e3235470f5458da5aa4807701210270e3ea4eb1cf8f86c66fc010d9de6c3dc2c651e5c7cb3288d8018c2ff07ead7702483045022100faa7bf3ef6daba02a414a406e6e09df42584fe13e85e78158c6f82bf9e8b9dcf022018841e8e8af200933323ffccad0fed4d20c68c98a899804d1f14c9ccef21f3320121029c2de1d1e8d6c94ceae4cba7db49faf1078a5b3513f0116a47c52fe75cc15e830247304402203c744c9f30a4e5313e4bf0cbbd3a0012117f4ee9ac7fe9764636ce5b69c54443022018ab0dd9da4cde419e6fb34d19805e4424ca5e131fa6406451344d7f310bf729012103c6047da317dd62b42d2e3ee8494dc2aac8cc550fdf3914db2e1d1d14bea15c350248304502210091a28d48d0ec29bd38e7727985496bdd0b1b3035703fd97234ce65cd0b9941ce02203106335b03f052bf547d31f615e838c4981a2beab472200f538301940abb3081012102dc21f65232420cb606092f436155828216479c0e73bea0e26396105f29e888b50247304402202e81266d28d3e913ff50d1b5357defbeee6ccf76538a839815c78d4959fdf1c5022071dcb97ca33814e80ed99ed50fa6fe3fe38920a2d647d13370b76f83c7b1f345012102179e01ec1d0a620d3767eb7c495e30795fe1c97c0c2a1d0ad095cf21017ab8f10c490800", "vin": [{"txinwitness": ["304402207d71f0dcd243a04853a9232498e30de023d33ca6c34769baeec0c6c03c62d61f02200d9c44ec106d34d440d29575979a54056e361e7c4e3235470f5458da5aa4807701", "0270e3ea4eb1cf8f86c66fc010d9de6c3dc2c651e5c7cb3288d8018c2ff07ead77"], "sequence": 4294967294, "scriptSig": {"hex": "1600144e490f3c64552ef1904e0129e34a3cde0f7f0724", "asm": "00144e490f3c64552ef1904e0129e34a3cde0f7f0724"}, "vout": 0, "txid": "81382a53be8606c32182e2d31526bf135bd6623451719e62a984853c8bc5e310"}, {"txinwitness": ["3045022100faa7bf3ef6daba02a414a406e6e09df42584fe13e85e78158c6f82bf9e8b9dcf022018841e8e8af200933323ffccad0fed4d20c68c98a899804d1f14c9ccef21f33201", "029c2de1d1e8d6c94ceae4cba7db49faf1078a5b3513f0116a47c52fe75cc15e83"], "sequence": 4294967294, "scriptSig": {"hex": "160014a84960bd3383fdaaf25935820af0920b80268f0c", "asm": "0014a84960bd3383fdaaf25935820af0920b80268f0c"}, "vout": 0, "txid": "a98886dfd8a7ec5d9c3e56eef71dc780e74fdb1b07b921436d6fb52848f8133b"}, {"txinwitness": ["304402203c744c9f30a4e5313e4bf0cbbd3a0012117f4ee9ac7fe9764636ce5b69c54443022018ab0dd9da4cde419e6fb34d19805e4424ca5e131fa6406451344d7f310bf72901", "03c6047da317dd62b42d2e3ee8494dc2aac8cc550fdf3914db2e1d1d14bea15c35"], "sequence": 4294967294, "scriptSig": {"hex": "1600143cd10d485127c182a9e790eea23ecb150e4b5218", "asm": "00143cd10d485127c182a9e790eea23ecb150e4b5218"}, "vout": 4, "txid": "98112665c050c41066c1d06277b5fcda43d9b966f3ce2f86cbe731a04bb2705b"}, {"txinwitness": ["304502210091a28d48d0ec29bd38e7727985496bdd0b1b3035703fd97234ce65cd0b9941ce02203106335b03f052bf547d31f615e838c4981a2beab472200f538301940abb308101", "02dc21f65232420cb606092f436155828216479c0e73bea0e26396105f29e888b5"], "sequence": 4294967294, "scriptSig": {"hex": "16001416e675566f8c7546d7403a21ab745c31fa554398", "asm": "001416e675566f8c7546d7403a21ab745c31fa554398"}, "vout": 0, "txid": "03600b4d81b59ab656142fd0a737e9681755b3dc17592138ae313b9d3aa113c9"}, {"txinwitness": ["304402202e81266d28d3e913ff50d1b5357defbeee6ccf76538a839815c78d4959fdf1c5022071dcb97ca33814e80ed99ed50fa6fe3fe38920a2d647d13370b76f83c7b1f34501", "02179e01ec1d0a620d3767eb7c495e30795fe1c97c0c2a1d0ad095cf21017ab8f1"], "sequence": 4294967294, "scriptSig": {"hex": "1600140505577095d6d3a8799567b5c8783181b32c16b5", "asm": "00140505577095d6d3a8799567b5c8783181b32c16b5"}, "vout": 0, "txid": "4759f96b3c9466a257733d38009d3d30683a28d60608d6c6df6412c028b8d7e4"}], "txid": "f32f0ba78c895f8b39f918d25dc0be5bbddbe0c64bb6ebab38934fbe8881d9aa", "blocktime": 1537870564, "version": 2, "confirmations": 11515, "time": 1537870564, "locktime": 542988, "vsize": 565, "size": 969}