{"hash": "f33ad74c87998a086736cfdcf9ee8c8ef4d3359529ecfcbed612e5ddbb1d7d1c", "blockhash": "00000000000000000017f5eb5941039fbcee6240d03bc1f2f8e35350df66a1d8", "vout": [{"scriptPubKey": {"reqSigs": 1, "hex": "76a91413dd0211934a5289311feb9f49dde5839aa6138788ac", "addresses": ["12p2bZDUCX3ozYe7PbRd9KAtKJUhfcj4mE"], "asm": "OP_DUP OP_HASH160 13dd0211934a5289311feb9f49dde5839aa61387 OP_EQUALVERIFY OP_CHECKSIG", "type": "pubkeyhash"}, "value": 0.00014702, "n": 0}, {"scriptPubKey": {"reqSigs": 1, "hex": "76a9142b34732befaf8482eaf0929317f3a88fbae4a39688ac", "addresses": ["14wStXnw8WBtsnGp8tuRzfG2eexWdXhjj4"], "asm": "OP_DUP OP_HASH160 2b34732befaf8482eaf0929317f3a88fbae4a396 OP_EQUALVERIFY OP_CHECKSIG", "type": "pubkeyhash"}, "value": 0.00875289, "n": 1}], "hex": "01000000010d8f4d79b58b1e29422ea844cbe087e936ec763a3e753939a042c2fc3d746b42080000006b483045022100d503684f5ebb7447924f8ef0889cbcc926be91969696c85d8a84d862d84c177102204e3d8b583de0d8f8ced597aeb0d3547a448ff960f2fe0a5dcbb9e5d8875554810121026cbc7f42429324cbd20adb173d38f26d818ec743c38f2d638eedeb832dc2f41affffffff026e390000000000001976a91413dd0211934a5289311feb9f49dde5839aa6138788ac195b0d00000000001976a9142b34732befaf8482eaf0929317f3a88fbae4a39688ac00000000", "vin": [{"sequence": 4294967295, "scriptSig": {"hex": "483045022100d503684f5ebb7447924f8ef0889cbcc926be91969696c85d8a84d862d84c177102204e3d8b583de0d8f8ced597aeb0d3547a448ff960f2fe0a5dcbb9e5d8875554810121026cbc7f42429324cbd20adb173d38f26d818ec743c38f2d638eedeb832dc2f41a", "asm": "3045022100d503684f5ebb7447924f8ef0889cbcc926be91969696c85d8a84d862d84c177102204e3d8b583de0d8f8ced597aeb0d3547a448ff960f2fe0a5dcbb9e5d887555481[ALL] 026cbc7f42429324cbd20adb173d38f26d818ec743c38f2d638eedeb832dc2f41a"}, "vout": 8, "txid": "426b743dfcc242a03939753e3a76ec36e987e0cb44a82e42291e8bb5794d8f0d"}], "txid": "f33ad74c87998a086736cfdcf9ee8c8ef4d3359529ecfcbed612e5ddbb1d7d1c", "blocktime": 1537874412, "version": 1, "confirmations": 11468, "time": 1537874412, "locktime": 0, "vsize": 226, "size": 226}