{"hash": "f33d4318be554ca0934876592866b510a0717f15963da0e4891c6be8aa8811d3", "blockhash": "00000000000000000018f53835495a110e01622372bf6ae95dc86f2b0ab887b0", "vout": [{"scriptPubKey": {"reqSigs": 1, "hex": "76a914562b95854d3ae8509ba3c85cb92f97c83a7f167d88ac", "addresses": ["18rdKmjrg1EawxgiVT3ikLExj6GWS2MNCk"], "asm": "OP_DUP OP_HASH160 562b95854d3ae8509ba3c85cb92f97c83a7f167d OP_EQUALVERIFY OP_CHECKSIG", "type": "pubkeyhash"}, "value": 0.00048771, "n": 0}, {"scriptPubKey": {"reqSigs": 1, "hex": "a914dae22c27ac8466da348bad3b2dd86d64f729516187", "addresses": ["3MeNB6t7we24eM5QTKxWdJeSBhF3fBdYb1"], "asm": "OP_HASH160 dae22c27ac8466da348bad3b2dd86d64f7295161 OP_EQUAL", "type": "scripthash"}, "value": 0.00487556, "n": 1}], "hex": "010000000100ee99a18936f862147c244b64af6a847734513c3c5188ea6f1b0f30e7955bc2010000008b483045022100deeca45c28059f386916e9c2a0d6298aa71163c287cc7293da48f9e2f0fafd5202205bf097558c92410ecf85eb92dd047aa9227bc55b8031ace236945be4d4f23964014104e9f65ce7c0ab0b9b469b82610b93779b19c68f92110c8f4abccd319b7699ec87d4b67db499768647088d99fb2c98e5767e24753000e73087fca7865049ccdeabffffffff0283be0000000000001976a914562b95854d3ae8509ba3c85cb92f97c83a7f167d88ac847007000000000017a914dae22c27ac8466da348bad3b2dd86d64f72951618700000000", "vin": [{"sequence": 4294967295, "scriptSig": {"hex": "483045022100deeca45c28059f386916e9c2a0d6298aa71163c287cc7293da48f9e2f0fafd5202205bf097558c92410ecf85eb92dd047aa9227bc55b8031ace236945be4d4f23964014104e9f65ce7c0ab0b9b469b82610b93779b19c68f92110c8f4abccd319b7699ec87d4b67db499768647088d99fb2c98e5767e24753000e73087fca7865049ccdeab", "asm": "3045022100deeca45c28059f386916e9c2a0d6298aa71163c287cc7293da48f9e2f0fafd5202205bf097558c92410ecf85eb92dd047aa9227bc55b8031ace236945be4d4f23964[ALL] 04e9f65ce7c0ab0b9b469b82610b93779b19c68f92110c8f4abccd319b7699ec87d4b67db499768647088d99fb2c98e5767e24753000e73087fca7865049ccdeab"}, "vout": 1, "txid": "c25b95e7300f1b6fea88513c3c513477846aaf644b247c1462f83689a199ee00"}], "txid": "f33d4318be554ca0934876592866b510a0717f15963da0e4891c6be8aa8811d3", "blocktime": 1537870928, "version": 1, "confirmations": 11512, "time": 1537870928, "locktime": 0, "vsize": 256, "size": 256}