{"hash": "f33eb53efb20378d6bb4970a5480ee7d6b5e78bd602c321748de037d891fcfa5", "blockhash": "00000000000000000004ffacab907a6b429b9a5745fa0b75af4234bf69dd7176", "vout": [{"scriptPubKey": {"reqSigs": 1, "hex": "a914627719882bb671432e0717e96c5e4f02c5cbbefe87", "addresses": ["3AfepY9BNHWncDQtB7Ah3qbxd9g5uggn42"], "asm": "OP_HASH160 627719882bb671432e0717e96c5e4f02c5cbbefe OP_EQUAL", "type": "scripthash"}, "value": 0.02641, "n": 0}, {"scriptPubKey": {"reqSigs": 1, "hex": "a914e370231feecbfc25e2e2423a5a79bf79bfdca59887", "addresses": ["3NRbeX3vD5VaVE4TDU9ivCDsEf7NPPte6J"], "asm": "OP_HASH160 e370231feecbfc25e2e2423a5a79bf79bfdca598 OP_EQUAL", "type": "scripthash"}, "value": 2.99737973, "n": 1}], "hex": "0100000001d2e6bd63f98bad9fec42a756ad6ae94e0f3939419ca1ee67604114672b5e4c9101000000d9004730440220556d529fc4a9c5d2bd0caa29f3ba6546d0137ebbed001556dc7c3de357e8663e0220152c1ac63a958d13dcc1d262ee4d6a9e5e41958cf5cc217a50aec65b5eb6cde00147304402206fb3b9072e6ff593615347f389de4d58593ffdc6d0b0405df6d79394307ba6dc022008f746350343879c3f4a4dd74f9bb5b80b9cff2d40309d12200fdb2f60a22201014752210327881b6abce6535553a3ce21fad12a7d74fd237ce7c4cd270a267162344e3082210256141f8eb687f5a68c5cc65054652dc25116fa285e44d72b44368827ffe77d9a52aeffffffff02684c28000000000017a914627719882bb671432e0717e96c5e4f02c5cbbefe8775a3dd110000000017a914e370231feecbfc25e2e2423a5a79bf79bfdca5988700000000", "vin": [{"sequence": 4294967295, "scriptSig": {"hex": "004730440220556d529fc4a9c5d2bd0caa29f3ba6546d0137ebbed001556dc7c3de357e8663e0220152c1ac63a958d13dcc1d262ee4d6a9e5e41958cf5cc217a50aec65b5eb6cde00147304402206fb3b9072e6ff593615347f389de4d58593ffdc6d0b0405df6d79394307ba6dc022008f746350343879c3f4a4dd74f9bb5b80b9cff2d40309d12200fdb2f60a22201014752210327881b6abce6535553a3ce21fad12a7d74fd237ce7c4cd270a267162344e3082210256141f8eb687f5a68c5cc65054652dc25116fa285e44d72b44368827ffe77d9a52ae", "asm": "0 30440220556d529fc4a9c5d2bd0caa29f3ba6546d0137ebbed001556dc7c3de357e8663e0220152c1ac63a958d13dcc1d262ee4d6a9e5e41958cf5cc217a50aec65b5eb6cde0[ALL] 304402206fb3b9072e6ff593615347f389de4d58593ffdc6d0b0405df6d79394307ba6dc022008f746350343879c3f4a4dd74f9bb5b80b9cff2d40309d12200fdb2f60a22201[ALL] 52210327881b6abce6535553a3ce21fad12a7d74fd237ce7c4cd270a267162344e3082210256141f8eb687f5a68c5cc65054652dc25116fa285e44d72b44368827ffe77d9a52ae"}, "vout": 1, "txid": "914c5e2b6714416067eea19c4139390f4ee96aad56a742ec9fad8bf963bde6d2"}], "txid": "f33eb53efb20378d6bb4970a5480ee7d6b5e78bd602c321748de037d891fcfa5", "blocktime": 1537875543, "version": 1, "confirmations": 11464, "time": 1537875543, "locktime": 0, "vsize": 332, "size": 332}