{"hash": "f3418e9b329a0f49c2e9570cb01165d54ffe9cf2458efb09a99f062667de5686", "blockhash": "0000000000000000000baef3f32e3676a92c3b2e5da21b426e4f302fc371ce76", "vout": [{"scriptPubKey": {"reqSigs": 1, "hex": "76a914e9b9a7e9835bb5971b091c110c108bf1cb6106f688ac", "addresses": ["1NJprJ7XPLuTWkp5V7MJfCGUyMBcpYGSRf"], "asm": "OP_DUP OP_HASH160 e9b9a7e9835bb5971b091c110c108bf1cb6106f6 OP_EQUALVERIFY OP_CHECKSIG", "type": "pubkeyhash"}, "value": 0.00031416, "n": 0}, {"scriptPubKey": {"reqSigs": 1, "hex": "76a9143a86bec71f4d2a0cd915bcb2e18cefcb253cbe4488ac", "addresses": ["16LTcPYDMoZXEvYiaQw76xwR4UjQp7VntX"], "asm": "OP_DUP OP_HASH160 3a86bec71f4d2a0cd915bcb2e18cefcb253cbe44 OP_EQUALVERIFY OP_CHECKSIG", "type": "pubkeyhash"}, "value": 0.009, "n": 1}], "hex": "01000000032b7d1de51535666900f2d642ff57a3310c06cd48c3279ee29705d4203f34f605040000006a47304402200db8df5e1a9afbce22dce164a1c51e7bddc97f978dde82dc70bcf6bff3365908022035f72fb2bb852bd46fb116ab3032cbfdaf3e207d61226191f53295f9238fb8c30121021d43d3995e635b6ac6f82e1819510c53b68ce076cf431c52caedbe9009b5211afdffffffe6a2d5860c6d4bc764c82d03dc3618cb58372ab9ffbfdf8e0e23eda60985c217000000006b483045022100faef647f5281a2837dffa9aec71082e7b40e26ca252a37e04b59b40e17e7a87d02200de8f81ea1b5a764b36872d7ee329717cfae0d8e7584df5f7745067e945142f9012102bff07c54fba950f87f7618eaf9c99e9598f12b9038b784c88ccad5bb0e4bce9dfdffffffd172102e57c1a1b61e68f7a0ee2bd01b2f520f820dd0d37dfe1c2c704cac8e20140000006b4830450221009ce9660ef1873967c28bcd76fd07887593f54e80bf797273b051414577cc0626022052e99dd34568123438ebf099c7fc1bd7bf1b521c3488017519490e247c5fd4cb012103cd5645e579303d68649e300ad0cd4c1ba79e3be1064c500311050249c50f6381fdffffff02b87a0000000000001976a914e9b9a7e9835bb5971b091c110c108bf1cb6106f688aca0bb0d00000000001976a9143a86bec71f4d2a0cd915bcb2e18cefcb253cbe4488ac16490800", "vin": [{"sequence": 4294967293, "scriptSig": {"hex": "47304402200db8df5e1a9afbce22dce164a1c51e7bddc97f978dde82dc70bcf6bff3365908022035f72fb2bb852bd46fb116ab3032cbfdaf3e207d61226191f53295f9238fb8c30121021d43d3995e635b6ac6f82e1819510c53b68ce076cf431c52caedbe9009b5211a", "asm": "304402200db8df5e1a9afbce22dce164a1c51e7bddc97f978dde82dc70bcf6bff3365908022035f72fb2bb852bd46fb116ab3032cbfdaf3e207d61226191f53295f9238fb8c3[ALL] 021d43d3995e635b6ac6f82e1819510c53b68ce076cf431c52caedbe9009b5211a"}, "vout": 4, "txid": "05f6343f20d40597e29e27c348cd060c31a357ff42d6f20069663515e51d7d2b"}, {"sequence": 4294967293, "scriptSig": {"hex": "483045022100faef647f5281a2837dffa9aec71082e7b40e26ca252a37e04b59b40e17e7a87d02200de8f81ea1b5a764b36872d7ee329717cfae0d8e7584df5f7745067e945142f9012102bff07c54fba950f87f7618eaf9c99e9598f12b9038b784c88ccad5bb0e4bce9d", "asm": "3045022100faef647f5281a2837dffa9aec71082e7b40e26ca252a37e04b59b40e17e7a87d02200de8f81ea1b5a764b36872d7ee329717cfae0d8e7584df5f7745067e945142f9[ALL] 02bff07c54fba950f87f7618eaf9c99e9598f12b9038b784c88ccad5bb0e4bce9d"}, "vout": 0, "txid": "17c28509a6ed230e8edfbfffb92a3758cb1836dc032dc864c74b6d0c86d5a2e6"}, {"sequence": 4294967293, "scriptSig": {"hex": "4830450221009ce9660ef1873967c28bcd76fd07887593f54e80bf797273b051414577cc0626022052e99dd34568123438ebf099c7fc1bd7bf1b521c3488017519490e247c5fd4cb012103cd5645e579303d68649e300ad0cd4c1ba79e3be1064c500311050249c50f6381", "asm": "30450221009ce9660ef1873967c28bcd76fd07887593f54e80bf797273b051414577cc0626022052e99dd34568123438ebf099c7fc1bd7bf1b521c3488017519490e247c5fd4cb[ALL] 03cd5645e579303d68649e300ad0cd4c1ba79e3be1064c500311050249c50f6381"}, "vout": 20, "txid": "208eac4c702c1cfe7dd3d00d820f522f1bd02beea0f7681eb6a1c1572e1072d1"}], "txid": "f3418e9b329a0f49c2e9570cb01165d54ffe9cf2458efb09a99f062667de5686", "blocktime": 1537876114, "version": 1, "confirmations": 11462, "time": 1537876114, "locktime": 542998, "vsize": 521, "size": 521}