{"hash": "f342cf1323354a7e6fc48cbf9c075fd46cfce6c569086322cf904d4a26c4349c", "blockhash": "00000000000000000017f5eb5941039fbcee6240d03bc1f2f8e35350df66a1d8", "vout": [{"scriptPubKey": {"reqSigs": 1, "hex": "76a914718e786b11bb737ae359936b024688bbcd333ac188ac", "addresses": ["1BMS2hB3gn1b7D2Qxq1BpnNhQF4QkNAnMA"], "asm": "OP_DUP OP_HASH160 718e786b11bb737ae359936b024688bbcd333ac1 OP_EQUALVERIFY OP_CHECKSIG", "type": "pubkeyhash"}, "value": 0.0212, "n": 0}, {"scriptPubKey": {"reqSigs": 1, "hex": "76a914184fdcff5958ef6a4be9b41eed4eacda7c7bc55888ac", "addresses": ["13DYtbsnALWb1iUWQkAapKpFum1SpLQanu"], "asm": "OP_DUP OP_HASH160 184fdcff5958ef6a4be9b41eed4eacda7c7bc558 OP_EQUALVERIFY OP_CHECKSIG", "type": "pubkeyhash"}, "value": 4.59978, "n": 1}], "hex": "01000000012384ab9c594d791c92fbf1aced60e089f938fc4f1eb98196d250fec6ee13af99010000006b48304502210090bba4f66bf038a1e918323562d2543d563f79ac983d5bd5a9ea8a85a95809e402202ced58230c4bfa5a40049246f39a5cf65a49356b7e6f1a41b7bd054f4d80d88201210247543eeae7fa9ae08a6c16428ce32c8eae6c8b2cad474526eb7a150424ae7087ffffffff0240592000000000001976a914718e786b11bb737ae359936b024688bbcd333ac188ac10b56a1b000000001976a914184fdcff5958ef6a4be9b41eed4eacda7c7bc55888ac00000000", "vin": [{"sequence": 4294967295, "scriptSig": {"hex": "48304502210090bba4f66bf038a1e918323562d2543d563f79ac983d5bd5a9ea8a85a95809e402202ced58230c4bfa5a40049246f39a5cf65a49356b7e6f1a41b7bd054f4d80d88201210247543eeae7fa9ae08a6c16428ce32c8eae6c8b2cad474526eb7a150424ae7087", "asm": "304502210090bba4f66bf038a1e918323562d2543d563f79ac983d5bd5a9ea8a85a95809e402202ced58230c4bfa5a40049246f39a5cf65a49356b7e6f1a41b7bd054f4d80d882[ALL] 0247543eeae7fa9ae08a6c16428ce32c8eae6c8b2cad474526eb7a150424ae7087"}, "vout": 1, "txid": "99af13eec6fe50d29681b91e4ffc38f989e060edacf1fb921c794d599cab8423"}], "txid": "f342cf1323354a7e6fc48cbf9c075fd46cfce6c569086322cf904d4a26c4349c", "blocktime": 1537874412, "version": 1, "confirmations": 11467, "time": 1537874412, "locktime": 0, "vsize": 226, "size": 226}