{"hash": "f342a283084d15898d612addd5aa51e31d9ba52b004f9078c2748127b55a8791", "blockhash": "0000000000000000001f0ddff1eddb255c1121bcd4da4f1bc9a0da00cae72433", "vout": [{"scriptPubKey": {"reqSigs": 1, "hex": "a91424d874273a334811a9baa1b0e7ba75c80345912887", "addresses": ["353qYvCUgdxWhkLePpQR7ATgkuFaM3S1jB"], "asm": "OP_HASH160 24d874273a334811a9baa1b0e7ba75c803459128 OP_EQUAL", "type": "scripthash"}, "value": 0.36733629, "n": 0}, {"scriptPubKey": {"reqSigs": 1, "hex": "76a9143393c23e0dac196fc5d7014f2b16ac0e2c0f894788ac", "addresses": ["15hiUF2sPa7HWs7BiSdE4XSbnkFwvjPthB"], "asm": "OP_DUP OP_HASH160 3393c23e0dac196fc5d7014f2b16ac0e2c0f8947 OP_EQUALVERIFY OP_CHECKSIG", "type": "pubkeyhash"}, "value": 0.67310418, "n": 1}], "hex": "010000000269bf3248a4cd89bdbcf2ad1d91a479f965da4462e459480663e96a546300b752000000006a473044022027dfabf15fb9384e21e435249402361a321a30af5f574abc365ad8f158b0d6b602201a307f1c29944466c3cc2a0f7a7b0bb262b9bd85a378bc24e08f61706f9b9f120121025479d75d26dd575b6defcba17453f961c8062fe4fd9254f72e51ccf725651d09fdffffff128808048e97880b5f8deb1c19d417856837fc36682d7ce15e8ea63982c14c7c010000006b483045022100a7de604dc852e4861a29397a8538bf1bf3f9660b344932ae647aefb77c2eb5c3022047090d8c91fc8baa35c21c42050278b28b6be5fdeace5cd7628f0aba063ebbd50121025479d75d26dd575b6defcba17453f961c8062fe4fd9254f72e51ccf725651d09fdffffff02bd8230020000000017a91424d874273a334811a9baa1b0e7ba75c8034591288752130304000000001976a9143393c23e0dac196fc5d7014f2b16ac0e2c0f894788ac11490800", "vin": [{"sequence": 4294967293, "scriptSig": {"hex": "473044022027dfabf15fb9384e21e435249402361a321a30af5f574abc365ad8f158b0d6b602201a307f1c29944466c3cc2a0f7a7b0bb262b9bd85a378bc24e08f61706f9b9f120121025479d75d26dd575b6defcba17453f961c8062fe4fd9254f72e51ccf725651d09", "asm": "3044022027dfabf15fb9384e21e435249402361a321a30af5f574abc365ad8f158b0d6b602201a307f1c29944466c3cc2a0f7a7b0bb262b9bd85a378bc24e08f61706f9b9f12[ALL] 025479d75d26dd575b6defcba17453f961c8062fe4fd9254f72e51ccf725651d09"}, "vout": 0, "txid": "52b70063546ae963064859e46244da65f979a4911dadf2bcbd89cda44832bf69"}, {"sequence": 4294967293, "scriptSig": {"hex": "483045022100a7de604dc852e4861a29397a8538bf1bf3f9660b344932ae647aefb77c2eb5c3022047090d8c91fc8baa35c21c42050278b28b6be5fdeace5cd7628f0aba063ebbd50121025479d75d26dd575b6defcba17453f961c8062fe4fd9254f72e51ccf725651d09", "asm": "3045022100a7de604dc852e4861a29397a8538bf1bf3f9660b344932ae647aefb77c2eb5c3022047090d8c91fc8baa35c21c42050278b28b6be5fdeace5cd7628f0aba063ebbd5[ALL] 025479d75d26dd575b6defcba17453f961c8062fe4fd9254f72e51ccf725651d09"}, "vout": 1, "txid": "7c4cc18239a68e5ee17c2d6836fc37688517d4191ceb8d5f0b88978e04088812"}], "txid": "f342a283084d15898d612addd5aa51e31d9ba52b004f9078c2748127b55a8791", "blocktime": 1537872018, "version": 1, "confirmations": 11489, "time": 1537872018, "locktime": 542993, "vsize": 371, "size": 371}