{"hash": "f343669d10e71b39b3b944abfb2e9e2d229c7fd0f8ee1324dbcc80bc80e6ee34", "blockhash": "0000000000000000001f76057863aec43deb6fa401d9628bb513d65a8098bfab", "vout": [{"scriptPubKey": {"type": "nulldata", "hex": "6a4c50000077dc0001057ffcdc7709b0f59811b7277af8e8e963c7cfd5b95b23cc0f42c2fc38c5e7f9b63708a5d9a01eb5a7faf062f1305baa15eb061314d0b4f7c0431d100759d4ba30d2c37bb011d97e02cf", "asm": "OP_RETURN 000077dc0001057ffcdc7709b0f59811b7277af8e8e963c7cfd5b95b23cc0f42c2fc38c5e7f9b63708a5d9a01eb5a7faf062f1305baa15eb061314d0b4f7c0431d100759d4ba30d2c37bb011d97e02cf"}, "value": 0.0, "n": 0}, {"scriptPubKey": {"reqSigs": 1, "hex": "76a914bf3ff0c9d93e76c89622d9df4e26dbc4d4b9dae288ac", "addresses": ["1JSEfJvSvbTqGF8QdQ3Q8F2B6eYhry8Ntu"], "asm": "OP_DUP OP_HASH160 bf3ff0c9d93e76c89622d9df4e26dbc4d4b9dae2 OP_EQUALVERIFY OP_CHECKSIG", "type": "pubkeyhash"}, "value": 0.0063652, "n": 1}], "hex": "0100000001742200fd07a32de10da65dd0897747873fcd09c6881f67f4186d6adb6f3b3774010000006a47304402201949471819b3b8c3ec6f3b78629bf7b40ee3160ae81f3ce4648db05404220a2c02204945252f3587d0d0e59eb8d2cefe369154868136733c0cfb3a87f4bc756d207c012102a5ccc9913fc14c24cfcdd3241a313d1397828c9d4e0561f43bb8b4c937de2188ffffffff020000000000000000536a4c50000077dc0001057ffcdc7709b0f59811b7277af8e8e963c7cfd5b95b23cc0f42c2fc38c5e7f9b63708a5d9a01eb5a7faf062f1305baa15eb061314d0b4f7c0431d100759d4ba30d2c37bb011d97e02cf68b60900000000001976a914bf3ff0c9d93e76c89622d9df4e26dbc4d4b9dae288ac00000000", "vin": [{"sequence": 4294967295, "scriptSig": {"hex": "47304402201949471819b3b8c3ec6f3b78629bf7b40ee3160ae81f3ce4648db05404220a2c02204945252f3587d0d0e59eb8d2cefe369154868136733c0cfb3a87f4bc756d207c012102a5ccc9913fc14c24cfcdd3241a313d1397828c9d4e0561f43bb8b4c937de2188", "asm": "304402201949471819b3b8c3ec6f3b78629bf7b40ee3160ae81f3ce4648db05404220a2c02204945252f3587d0d0e59eb8d2cefe369154868136733c0cfb3a87f4bc756d207c[ALL] 02a5ccc9913fc14c24cfcdd3241a313d1397828c9d4e0561f43bb8b4c937de2188"}, "vout": 1, "txid": "74373b6fdb6a6d18f4671f88c609cd3f87477789d05da60de12da307fd002274"}], "txid": "f343669d10e71b39b3b944abfb2e9e2d229c7fd0f8ee1324dbcc80bc80e6ee34", "blocktime": 1537873891, "version": 1, "confirmations": 11478, "time": 1537873891, "locktime": 0, "vsize": 283, "size": 283}