{"hash": "f3450d19ed703f6cdac5f775b6b1d44bde7067575f7dc9e34cb595abbfef953f", "blockhash": "0000000000000000001f0ddff1eddb255c1121bcd4da4f1bc9a0da00cae72433", "vout": [{"scriptPubKey": {"reqSigs": 1, "hex": "a914caee9c2203af80455de5f82852af2c878840517d87", "addresses": ["3LC2GCXeeFPS6qETXVEzBWmPDvgXvqaiNs"], "asm": "OP_HASH160 caee9c2203af80455de5f82852af2c878840517d OP_EQUAL", "type": "scripthash"}, "value": 0.01521, "n": 0}, {"scriptPubKey": {"reqSigs": 1, "hex": "76a9149b7673838bcc2250d3aaf7d0a5a0a3b3a50c80cc88ac", "addresses": ["1FB1dsQvXEVAfczt4ZShWSkpJjYjgTFvHc"], "asm": "OP_DUP OP_HASH160 9b7673838bcc2250d3aaf7d0a5a0a3b3a50c80cc OP_EQUALVERIFY OP_CHECKSIG", "type": "pubkeyhash"}, "value": 0.04744736, "n": 1}], "hex": "02000000013332ec8de108db73370e53b91c7904cefb71b4ef67e2f5737c846f8b2f420974000000006a473044022012984d80110e296026b65f8e906fbb644689b4a88b448eb8e68f8349fae1852702204dccc1427f5d1d5c7b9ec473440d87e622d777b5f322917257444ae31d5e5d750121036d0e40771a399b83660d99982d9f8e1e69096d94cf31111b7a2984c8d18b8770fdffffff02683517000000000017a914caee9c2203af80455de5f82852af2c878840517d8720664800000000001976a9149b7673838bcc2250d3aaf7d0a5a0a3b3a50c80cc88acdb480800", "vin": [{"sequence": 4294967293, "scriptSig": {"hex": "473044022012984d80110e296026b65f8e906fbb644689b4a88b448eb8e68f8349fae1852702204dccc1427f5d1d5c7b9ec473440d87e622d777b5f322917257444ae31d5e5d750121036d0e40771a399b83660d99982d9f8e1e69096d94cf31111b7a2984c8d18b8770", "asm": "3044022012984d80110e296026b65f8e906fbb644689b4a88b448eb8e68f8349fae1852702204dccc1427f5d1d5c7b9ec473440d87e622d777b5f322917257444ae31d5e5d75[ALL] 036d0e40771a399b83660d99982d9f8e1e69096d94cf31111b7a2984c8d18b8770"}, "vout": 0, "txid": "7409422f8b6f847c73f5e267efb471fbce04791cb9530e3773db08e18dec3233"}], "txid": "f3450d19ed703f6cdac5f775b6b1d44bde7067575f7dc9e34cb595abbfef953f", "blocktime": 1537872018, "version": 2, "confirmations": 11489, "time": 1537872018, "locktime": 542939, "vsize": 223, "size": 223}