{"hash": "f346cb56d3bf1ec9deacc3307a449f39d86fbdbe994d72ec5f8db04df9126ea6", "blockhash": "00000000000000000004ffacab907a6b429b9a5745fa0b75af4234bf69dd7176", "vout": [{"scriptPubKey": {"reqSigs": 1, "hex": "76a914e32b8f0ef82585f19a3e451a10b9bf8fb904277488ac", "addresses": ["1MiAa4oSES3cV7aApQUfEudBigTkL3VoeD"], "asm": "OP_DUP OP_HASH160 e32b8f0ef82585f19a3e451a10b9bf8fb9042774 OP_EQUALVERIFY OP_CHECKSIG", "type": "pubkeyhash"}, "value": 0.19837768, "n": 0}, {"scriptPubKey": {"type": "nulldata", "hex": "6a146f6d6e69000000000000001f00000001a698d080", "asm": "OP_RETURN 6f6d6e69000000000000001f00000001a698d080"}, "value": 0.0, "n": 1}, {"scriptPubKey": {"reqSigs": 1, "hex": "76a914c94c9223b18dead59a90adeeb36b6ecc256bf4f388ac", "addresses": ["1KMNYo59yMmrAimBXD7QqFe5KKbEz35Le9"], "asm": "OP_DUP OP_HASH160 c94c9223b18dead59a90adeeb36b6ecc256bf4f3 OP_EQUALVERIFY OP_CHECKSIG", "type": "pubkeyhash"}, "value": 5.46e-06, "n": 2}], "hex": "01000000013671a380af8c1caff817b450e84a7167c37db5ff36bc05298c57d69288544fdf000000006a473044022079395298fc7a46277300beb0401e81527654687879c400e74bd7c661213be1fd022032f0315e2ee65794aa2a1d0ef443834e68b3d743a8627b25c7cbd17eca755829012103c488aca1b6cc9a3960627b0b9ad45dea5f208af19826ac5d57905287c3bc6b92feffffff0348b32e01000000001976a914e32b8f0ef82585f19a3e451a10b9bf8fb904277488ac0000000000000000166a146f6d6e69000000000000001f00000001a698d08022020000000000001976a914c94c9223b18dead59a90adeeb36b6ecc256bf4f388ac16490800", "vin": [{"sequence": 4294967294, "scriptSig": {"hex": "473044022079395298fc7a46277300beb0401e81527654687879c400e74bd7c661213be1fd022032f0315e2ee65794aa2a1d0ef443834e68b3d743a8627b25c7cbd17eca755829012103c488aca1b6cc9a3960627b0b9ad45dea5f208af19826ac5d57905287c3bc6b92", "asm": "3044022079395298fc7a46277300beb0401e81527654687879c400e74bd7c661213be1fd022032f0315e2ee65794aa2a1d0ef443834e68b3d743a8627b25c7cbd17eca755829[ALL] 03c488aca1b6cc9a3960627b0b9ad45dea5f208af19826ac5d57905287c3bc6b92"}, "vout": 0, "txid": "df4f548892d6578c2905bc36ffb57dc367714ae850b417f8af1c8caf80a37136"}], "txid": "f346cb56d3bf1ec9deacc3307a449f39d86fbdbe994d72ec5f8db04df9126ea6", "blocktime": 1537875543, "version": 1, "confirmations": 11464, "time": 1537875543, "locktime": 542998, "vsize": 256, "size": 256}