{"hash": "f348ffaf95a4017a4addb3390bed116fe0b0eed2a5de3b030747cea2131994e2", "blockhash": "00000000000000000004ffacab907a6b429b9a5745fa0b75af4234bf69dd7176", "vout": [{"scriptPubKey": {"reqSigs": 1, "hex": "76a9142ff8a7c10498e6ba2a58aca5c370d360a0b94dec88ac", "addresses": ["15NedtXYoaEM7jhB3vyDu1zKs3WkhZ6PTj"], "asm": "OP_DUP OP_HASH160 2ff8a7c10498e6ba2a58aca5c370d360a0b94dec OP_EQUALVERIFY OP_CHECKSIG", "type": "pubkeyhash"}, "value": 1.0, "n": 0}, {"scriptPubKey": {"reqSigs": 1, "hex": "76a9149228f53f21ff017aa1cc707004dde3e3384f471288ac", "addresses": ["1EKpipUkjK8UB1ZWRT5Me6xz18Y6PNWYpG"], "asm": "OP_DUP OP_HASH160 9228f53f21ff017aa1cc707004dde3e3384f4712 OP_EQUALVERIFY OP_CHECKSIG", "type": "pubkeyhash"}, "value": 0.14693002, "n": 1}], "hex": "010000000346d65fdef04521dfe0e8dc790b4343f87e823e9b18fe80d1e6e666e602bfafb4000000006a473044022017f8ecb0d1fed84a78a5ec7d4a9142d401daad1b68832f872f6e07b293a96c36022003613e7a957eef8454155ad333511d05a3f20c19ee5ed5ebf9882bd09776ceef012103c3c77f6c2c551220600111c588b22d87042770586208612621582ed9600e388effffffffbd2c05018e14270d787f355a763b6e0cca559fd913f09789e1829c8f4244cacc000000006a47304402202f70e147d7632c45f5cd3dc826a46c0ff5a64bc7d2156e2a60fb3e088891c2dc0220375d554afe14921266a0fc7625cded80fb1d091542bbab591629c36eef02f5af012103c3c77f6c2c551220600111c588b22d87042770586208612621582ed9600e388effffffff6907000f3e0c67bcfb8844a7406a7c34cdbd970b1fcc27807a3369f5a3135e94010000006a47304402203e20bdace949df3b60241f9db9da24c77c7d4196ed89e3afc015abebce1a7a860220054afe7713fb887815e36cdd08d84ab26d7eb69bc3b9377906a98e9a97496413012103c4122fc8c55cb16fcd5e511754e521aa7a9e9a8a01094d0cde191a92c16b9f0bffffffff0200e1f505000000001976a9142ff8a7c10498e6ba2a58aca5c370d360a0b94dec88ac8a32e000000000001976a9149228f53f21ff017aa1cc707004dde3e3384f471288ac00000000", "vin": [{"sequence": 4294967295, "scriptSig": {"hex": "473044022017f8ecb0d1fed84a78a5ec7d4a9142d401daad1b68832f872f6e07b293a96c36022003613e7a957eef8454155ad333511d05a3f20c19ee5ed5ebf9882bd09776ceef012103c3c77f6c2c551220600111c588b22d87042770586208612621582ed9600e388e", "asm": "3044022017f8ecb0d1fed84a78a5ec7d4a9142d401daad1b68832f872f6e07b293a96c36022003613e7a957eef8454155ad333511d05a3f20c19ee5ed5ebf9882bd09776ceef[ALL] 03c3c77f6c2c551220600111c588b22d87042770586208612621582ed9600e388e"}, "vout": 0, "txid": "b4afbf02e666e6e6d180fe189b3e827ef843430b79dce8e0df2145f0de5fd646"}, {"sequence": 4294967295, "scriptSig": {"hex": "47304402202f70e147d7632c45f5cd3dc826a46c0ff5a64bc7d2156e2a60fb3e088891c2dc0220375d554afe14921266a0fc7625cded80fb1d091542bbab591629c36eef02f5af012103c3c77f6c2c551220600111c588b22d87042770586208612621582ed9600e388e", "asm": "304402202f70e147d7632c45f5cd3dc826a46c0ff5a64bc7d2156e2a60fb3e088891c2dc0220375d554afe14921266a0fc7625cded80fb1d091542bbab591629c36eef02f5af[ALL] 03c3c77f6c2c551220600111c588b22d87042770586208612621582ed9600e388e"}, "vout": 0, "txid": "ccca44428f9c82e18997f013d99f55ca0c6e3b765a357f780d27148e01052cbd"}, {"sequence": 4294967295, "scriptSig": {"hex": "47304402203e20bdace949df3b60241f9db9da24c77c7d4196ed89e3afc015abebce1a7a860220054afe7713fb887815e36cdd08d84ab26d7eb69bc3b9377906a98e9a97496413012103c4122fc8c55cb16fcd5e511754e521aa7a9e9a8a01094d0cde191a92c16b9f0b", "asm": "304402203e20bdace949df3b60241f9db9da24c77c7d4196ed89e3afc015abebce1a7a860220054afe7713fb887815e36cdd08d84ab26d7eb69bc3b9377906a98e9a97496413[ALL] 03c4122fc8c55cb16fcd5e511754e521aa7a9e9a8a01094d0cde191a92c16b9f0b"}, "vout": 1, "txid": "945e13a3f569337a8027cc1f0b97bdcd347c6a40a74488fbbc670c3e0f000769"}], "txid": "f348ffaf95a4017a4addb3390bed116fe0b0eed2a5de3b030747cea2131994e2", "blocktime": 1537875543, "version": 1, "confirmations": 11464, "time": 1537875543, "locktime": 0, "vsize": 519, "size": 519}