{"hash": "f348116e17b0f9141c9b6aadc36641e26579fc5c5291d2e71a15c37ccc976050", "blockhash": "000000000000000000022b45ed06c6f4ccd3cf7fb5ba4856ebd2e58215665228", "vout": [{"scriptPubKey": {"type": "nulldata", "hex": "6a146f6d6e69000000000000001f000000012a05f200", "asm": "OP_RETURN 6f6d6e69000000000000001f000000012a05f200"}, "value": 0.0, "n": 0}, {"scriptPubKey": {"reqSigs": 1, "hex": "76a914a25dec4d0011064ef106a983c39c7a540699f22088ac", "addresses": ["1FoWyxwPXuj4C6abqwhjDWdz6D4PZgYRjA"], "asm": "OP_DUP OP_HASH160 a25dec4d0011064ef106a983c39c7a540699f220 OP_EQUALVERIFY OP_CHECKSIG", "type": "pubkeyhash"}, "value": 0.01990376, "n": 1}, {"scriptPubKey": {"reqSigs": 1, "hex": "76a91450f38db32cf9d5bfc6bed4833b20d766a2b41e0388ac", "addresses": ["18P2pjzsuKDVQ1woUZwpTDdXf4gxgBZznp"], "asm": "OP_DUP OP_HASH160 50f38db32cf9d5bfc6bed4833b20d766a2b41e03 OP_EQUALVERIFY OP_CHECKSIG", "type": "pubkeyhash"}, "value": 5.46e-06, "n": 2}], "hex": "01000000019942b9c07b9b9f3bff079cd4f6248759bcad86196503d1b39727e61cb3b4dff0020000006b483045022100d01a5a8373a83f7fe3b595b684256944bc2b2c68a3c5a647fe7d02bbe6324a6f022053ac090b6053dfabf8915dc7a2d98e18ede90809268661e04841d6e4f6fb90ce012103da5bac7b36d5aa38f531c6b9601e21bb598a4b6716ebed38b009a55dabde9440feffffff030000000000000000166a146f6d6e69000000000000001f000000012a05f200e85e1e00000000001976a914a25dec4d0011064ef106a983c39c7a540699f22088ac22020000000000001976a91450f38db32cf9d5bfc6bed4833b20d766a2b41e0388ac0b490800", "vin": [{"sequence": 4294967294, "scriptSig": {"hex": "483045022100d01a5a8373a83f7fe3b595b684256944bc2b2c68a3c5a647fe7d02bbe6324a6f022053ac090b6053dfabf8915dc7a2d98e18ede90809268661e04841d6e4f6fb90ce012103da5bac7b36d5aa38f531c6b9601e21bb598a4b6716ebed38b009a55dabde9440", "asm": "3045022100d01a5a8373a83f7fe3b595b684256944bc2b2c68a3c5a647fe7d02bbe6324a6f022053ac090b6053dfabf8915dc7a2d98e18ede90809268661e04841d6e4f6fb90ce[ALL] 03da5bac7b36d5aa38f531c6b9601e21bb598a4b6716ebed38b009a55dabde9440"}, "vout": 2, "txid": "f0dfb4b31ce62797b3d103651986adbc598724f6d49c07ff3b9f9b7bc0b94299"}], "txid": "f348116e17b0f9141c9b6aadc36641e26579fc5c5291d2e71a15c37ccc976050", "blocktime": 1537869901, "version": 1, "confirmations": 11522, "time": 1537869901, "locktime": 542987, "vsize": 257, "size": 257}