{"hash": "f34a7973ff7ca43bc9c5a64be71e3e2e3fd081ce05d04093030e50aeeed537e9", "blockhash": "00000000000000000004ffacab907a6b429b9a5745fa0b75af4234bf69dd7176", "vout": [{"scriptPubKey": {"reqSigs": 1, "hex": "76a91408eadd463151a9fdf12c9839b0d945527817fdbe88ac", "addresses": ["1p9mCN6gQn35zJrex7btWBag1RTDk6Fh8"], "asm": "OP_DUP OP_HASH160 08eadd463151a9fdf12c9839b0d945527817fdbe OP_EQUALVERIFY OP_CHECKSIG", "type": "pubkeyhash"}, "value": 0.02612751, "n": 0}, {"scriptPubKey": {"reqSigs": 1, "hex": "76a91498c4efffa5d1af01b12188365da0899a106da0a088ac", "addresses": ["1EvmdcgfCvtZBN7HdQwUshcKrSiQuNPR8B"], "asm": "OP_DUP OP_HASH160 98c4efffa5d1af01b12188365da0899a106da0a0 OP_EQUALVERIFY OP_CHECKSIG", "type": "pubkeyhash"}, "value": 0.16656564, "n": 1}], "hex": "0100000001c3a61045207936f97297090fb2ac66de6dc8b57e0d129e85c2527c00df6be8d7030000006a47304402205e7e4ad6e4cd971be65ab9b6123b9bcb81eb2c3cedcf5fae23cc211babd20d2602205882a62f1d27e26f011e915059082f371f5f2d6f3224f26f65839a810c85e3b101210307472f37075b04406caedfdced9dbdbc10c99912dd88048bef15a7cce3d90121ffffffff020fde2700000000001976a91408eadd463151a9fdf12c9839b0d945527817fdbe88acb428fe00000000001976a91498c4efffa5d1af01b12188365da0899a106da0a088ac00000000", "vin": [{"sequence": 4294967295, "scriptSig": {"hex": "47304402205e7e4ad6e4cd971be65ab9b6123b9bcb81eb2c3cedcf5fae23cc211babd20d2602205882a62f1d27e26f011e915059082f371f5f2d6f3224f26f65839a810c85e3b101210307472f37075b04406caedfdced9dbdbc10c99912dd88048bef15a7cce3d90121", "asm": "304402205e7e4ad6e4cd971be65ab9b6123b9bcb81eb2c3cedcf5fae23cc211babd20d2602205882a62f1d27e26f011e915059082f371f5f2d6f3224f26f65839a810c85e3b1[ALL] 0307472f37075b04406caedfdced9dbdbc10c99912dd88048bef15a7cce3d90121"}, "vout": 3, "txid": "d7e86bdf007c52c2859e120d7eb5c86dde66acb20f099772f93679204510a6c3"}], "txid": "f34a7973ff7ca43bc9c5a64be71e3e2e3fd081ce05d04093030e50aeeed537e9", "blocktime": 1537875543, "version": 1, "confirmations": 11464, "time": 1537875543, "locktime": 0, "vsize": 225, "size": 225}