{"hash": "bbb99f188575743edff1b20f48954bf49d4565c25b11ab24a5a3e6ef397aac0c", "blockhash": "0000000000000000001f76057863aec43deb6fa401d9628bb513d65a8098bfab", "vout": [{"scriptPubKey": {"reqSigs": 1, "hex": "a9147522283a3b02b77e742f71424c5adafc7ae028ca87", "addresses": ["3CNMuGU8vnEx1qopCgJnfHm1Bd8NbHKNW5"], "asm": "OP_HASH160 7522283a3b02b77e742f71424c5adafc7ae028ca OP_EQUAL", "type": "scripthash"}, "value": 0.1996, "n": 0}, {"scriptPubKey": {"reqSigs": 1, "hex": "76a914ebf7e329acd9f3bb4fa789ef6ad0259019652f4188ac", "addresses": ["1NWgkbYG2LTqCxxsDpL4fpL2ziJcRcMja8"], "asm": "OP_DUP OP_HASH160 ebf7e329acd9f3bb4fa789ef6ad0259019652f41 OP_EQUALVERIFY OP_CHECKSIG", "type": "pubkeyhash"}, "value": 0.0596, "n": 1}, {"scriptPubKey": {"reqSigs": 1, "hex": "76a914cebb2851a9c7cfe2582c12ecaf7f3ff4383d1dc088ac", "addresses": ["1Kr6QSydW9bFQG1mXiPNNu6WpJGmUa9i1g"], "asm": "OP_DUP OP_HASH160 cebb2851a9c7cfe2582c12ecaf7f3ff4383d1dc0 OP_EQUALVERIFY OP_CHECKSIG", "type": "pubkeyhash"}, "value": 0.78330796, "n": 2}], "hex": "02000000000107ad0c9793e3566cd4ec1a85dc5a61ab8e9bd501e6105837e1b070822b6701e08c0000000017160014a0461ad6715c419306f7c1f2436d871833342d35ffffffff5b06457fa6865b87ee8f2a02821d48a598f26a1c966130f2092d5d99df8a6d18020000006b483045022100f711206292e7407682e8990df1c35f4198c16f8234dbf074cfc67df1ad4264da022031605ec01b61cd6847be132b244b6f111c86a99eada83e4f290be9838d96d5c9012103786af4b32017ec640dba2d2a7e1fd5aa4a231a658e4cbc114d51c031576e19bcffffffffb4bc2420a4645b6ce90a94e31df8212eadb73a69c8766a9da7ff9629e554cad0100000006a47304402201d7ce509c3f0f8dedaecdb2c7cd1d971e6c59f0f3084b121149c81d701d119160220241b4a7bbd2a9eb8d99185b44738f219178e8930b33f7f9d0b444093ea239d97012103fdef73089dfac471c297308c2fc13da6fde3cf113e4ba75fd86054e533c7e60effffffff9d10a3c8b4ed56b05e76ad1aad4658da5d46eb55a23bee0a6a373e3a52516ed2000000006b48304502210087a84acfd2479a8a2cebb88a7307bdd081cf75f83de442809263b8d82ee5f7e602204b6cb8ba76b9cbd10a9d842dfef0b61554312b4ffc511d590cc38e6e26a0217b01210260c52717c6e0353aa0ef124db9dffd2d6182083443385a5f6b3893fb9722fea1ffffffff31679dbe76d668bfa5610c13d29ad9ccfe325b4781bfc5e8ccd99a4eb75ff99c0000000017160014c3395bb2d4962e5d9fbfdbb0bf0dd970c505ecdeffffffffefdc1e10c966b73b32a57a0bc2ab33f8978488f8c4cc73ce72e6fc56ef846bbe7d0200006b483045022100dd02ae6e50a00ccbca0e88b8a3c33aa1b80b31d44ca28086adc62b512b3a554b02203ed350fa2e61bbdc82e91702ee1ca7df972cf144b83609b2f09ffd9d27168c06012102b5b34522ef95300084b750afb8e97fec17434ea473e5570e49ea158b5c30c262ffffffffefdc1e10c966b73b32a57a0bc2ab33f8978488f8c4cc73ce72e6fc56ef846bbe8d0000006a473044022042174da4d27c8ae6ca483ba03c78964d134bead37dfa5cdfa19e569e76a32080022076c15856c87cb2240196b8868b6ac0ae2020c284e2c0b010202c8c18264625090121020d367bf08de0f8550b2a7a48d68a96fe2323d0b31a67b6af2b0f7fd6f9599de9ffffffff03c09030010000000017a9147522283a3b02b77e742f71424c5adafc7ae028ca8740f15a00000000001976a914ebf7e329acd9f3bb4fa789ef6ad0259019652f4188acac3bab04000000001976a914cebb2851a9c7cfe2582c12ecaf7f3ff4383d1dc088ac02483045022100c840cd5992b16a5c2efba6763d10226009c1627c1e9357ddfbe71b6881f371f802201bd6831500206f26011fc51ce0bea648786fb5d2a8987405793235b605e93aa0012103c8d155a5c5c3b55c7ef93d46381519bc413dfd7c103d8a2759ccf87523925e3500000002483045022100a040a2539e1192f2d78279bdf367c812da83a5da4afa99676255c9e676aeb3640220303d530091806f29694946b6b68920b9dff403ff769d266902f897907b6ccabc01210241474f9d93f324d8bc990d61e25287633b06b63eccda9d0a4e495bfb32861ad6000000000000", "vin": [{"txinwitness": ["3045022100c840cd5992b16a5c2efba6763d10226009c1627c1e9357ddfbe71b6881f371f802201bd6831500206f26011fc51ce0bea648786fb5d2a8987405793235b605e93aa001", "03c8d155a5c5c3b55c7ef93d46381519bc413dfd7c103d8a2759ccf87523925e35"], "sequence": 4294967295, "scriptSig": {"hex": "160014a0461ad6715c419306f7c1f2436d871833342d35", "asm": "0014a0461ad6715c419306f7c1f2436d871833342d35"}, "vout": 0, "txid": "8ce001672b8270b0e1375810e601d59b8eab615adc851aecd46c56e393970cad"}, {"sequence": 4294967295, "scriptSig": {"hex": "483045022100f711206292e7407682e8990df1c35f4198c16f8234dbf074cfc67df1ad4264da022031605ec01b61cd6847be132b244b6f111c86a99eada83e4f290be9838d96d5c9012103786af4b32017ec640dba2d2a7e1fd5aa4a231a658e4cbc114d51c031576e19bc", "asm": "3045022100f711206292e7407682e8990df1c35f4198c16f8234dbf074cfc67df1ad4264da022031605ec01b61cd6847be132b244b6f111c86a99eada83e4f290be9838d96d5c9[ALL] 03786af4b32017ec640dba2d2a7e1fd5aa4a231a658e4cbc114d51c031576e19bc"}, "vout": 2, "txid": "186d8adf995d2d09f23061961c6af298a5481d82022a8fee875b86a67f45065b"}, {"sequence": 4294967295, "scriptSig": {"hex": "47304402201d7ce509c3f0f8dedaecdb2c7cd1d971e6c59f0f3084b121149c81d701d119160220241b4a7bbd2a9eb8d99185b44738f219178e8930b33f7f9d0b444093ea239d97012103fdef73089dfac471c297308c2fc13da6fde3cf113e4ba75fd86054e533c7e60e", "asm": "304402201d7ce509c3f0f8dedaecdb2c7cd1d971e6c59f0f3084b121149c81d701d119160220241b4a7bbd2a9eb8d99185b44738f219178e8930b33f7f9d0b444093ea239d97[ALL] 03fdef73089dfac471c297308c2fc13da6fde3cf113e4ba75fd86054e533c7e60e"}, "vout": 16, "txid": "d0ca54e52996ffa79d6a76c8693ab7ad2e21f81de3940ae96c5b64a42024bcb4"}, {"sequence": 4294967295, "scriptSig": {"hex": "48304502210087a84acfd2479a8a2cebb88a7307bdd081cf75f83de442809263b8d82ee5f7e602204b6cb8ba76b9cbd10a9d842dfef0b61554312b4ffc511d590cc38e6e26a0217b01210260c52717c6e0353aa0ef124db9dffd2d6182083443385a5f6b3893fb9722fea1", "asm": "304502210087a84acfd2479a8a2cebb88a7307bdd081cf75f83de442809263b8d82ee5f7e602204b6cb8ba76b9cbd10a9d842dfef0b61554312b4ffc511d590cc38e6e26a0217b[ALL] 0260c52717c6e0353aa0ef124db9dffd2d6182083443385a5f6b3893fb9722fea1"}, "vout": 0, "txid": "d26e51523a3e376a0aee3ba255eb465dda5846ad1aad765eb056edb4c8a3109d"}, {"txinwitness": ["3045022100a040a2539e1192f2d78279bdf367c812da83a5da4afa99676255c9e676aeb3640220303d530091806f29694946b6b68920b9dff403ff769d266902f897907b6ccabc01", "0241474f9d93f324d8bc990d61e25287633b06b63eccda9d0a4e495bfb32861ad6"], "sequence": 4294967295, "scriptSig": {"hex": "160014c3395bb2d4962e5d9fbfdbb0bf0dd970c505ecde", "asm": "0014c3395bb2d4962e5d9fbfdbb0bf0dd970c505ecde"}, "vout": 0, "txid": "9cf95fb74e9ad9cce8c5bf81475b32feccd99ad2130c61a5bf68d676be9d6731"}, {"sequence": 4294967295, "scriptSig": {"hex": "483045022100dd02ae6e50a00ccbca0e88b8a3c33aa1b80b31d44ca28086adc62b512b3a554b02203ed350fa2e61bbdc82e91702ee1ca7df972cf144b83609b2f09ffd9d27168c06012102b5b34522ef95300084b750afb8e97fec17434ea473e5570e49ea158b5c30c262", "asm": "3045022100dd02ae6e50a00ccbca0e88b8a3c33aa1b80b31d44ca28086adc62b512b3a554b02203ed350fa2e61bbdc82e91702ee1ca7df972cf144b83609b2f09ffd9d27168c06[ALL] 02b5b34522ef95300084b750afb8e97fec17434ea473e5570e49ea158b5c30c262"}, "vout": 637, "txid": "be6b84ef56fce672ce73ccc4f8888497f833abc20b7aa5323bb766c9101edcef"}, {"sequence": 4294967295, "scriptSig": {"hex": "473044022042174da4d27c8ae6ca483ba03c78964d134bead37dfa5cdfa19e569e76a32080022076c15856c87cb2240196b8868b6ac0ae2020c284e2c0b010202c8c18264625090121020d367bf08de0f8550b2a7a48d68a96fe2323d0b31a67b6af2b0f7fd6f9599de9", "asm": "3044022042174da4d27c8ae6ca483ba03c78964d134bead37dfa5cdfa19e569e76a32080022076c15856c87cb2240196b8868b6ac0ae2020c284e2c0b010202c8c1826462509[ALL] 020d367bf08de0f8550b2a7a48d68a96fe2323d0b31a67b6af2b0f7fd6f9599de9"}, "vout": 141, "txid": "be6b84ef56fce672ce73ccc4f8888497f833abc20b7aa5323bb766c9101edcef"}], "txid": "f34da93236f1a45d82ae06e78aae2a7e8a9aa6132174951067e6154fcea83123", "blocktime": 1537873891, "version": 2, "confirmations": 11475, "time": 1537873891, "locktime": 0, "vsize": 1032, "size": 1199}