{"hash": "62c0991c9bec3ddbc0872d3b1674a25b5f02b32235ff75870de0aba3ae9929e6", "blockhash": "0000000000000000000baef3f32e3676a92c3b2e5da21b426e4f302fc371ce76", "vout": [{"scriptPubKey": {"reqSigs": 1, "hex": "76a914d05c5b3f1923e707da860fcb777a708fd10762c488ac", "addresses": ["1KziBwQjZvjp72PWTHD7C4sKQpibDY1o83"], "asm": "OP_DUP OP_HASH160 d05c5b3f1923e707da860fcb777a708fd10762c4 OP_EQUALVERIFY OP_CHECKSIG", "type": "pubkeyhash"}, "value": 0.0019422, "n": 0}, {"scriptPubKey": {"reqSigs": 1, "hex": "a914cfaabfe8c271f99a4364b5197ba50c6cddb7adb987", "addresses": ["3Ld4M9RPwEG3VeQbHcC1PsKUndQL7VYLZP"], "asm": "OP_HASH160 cfaabfe8c271f99a4364b5197ba50c6cddb7adb9 OP_EQUAL", "type": "scripthash"}, "value": 0.284446, "n": 1}], "hex": "0100000000010108b16969e764717c8a3c6fec9873ee6de083a631ef4ce79266f877a511992a6201000000232200202f7b4024602241b47d3306a6733d9889e4b6761d9f1cb82a18aa8b9ac4506e51ffffffff02acf60200000000001976a914d05c5b3f1923e707da860fcb777a708fd10762c488acb807b2010000000017a914cfaabfe8c271f99a4364b5197ba50c6cddb7adb98704004830450221008c92371ee3fb163484f753329b1ae3388d3933aa31fd486a0fc9b47a81488f820220427a4ce6481b2313e136f884744e8910dd1a1ed3a0a24449887853aeb8fc372a0147304402205db00b8fc7060b59cfe8eba9d8f4134f7d92ba3881880caecd7d28db1a2288f202203cf2d1ac2b542b0e2f4284fd32d6f2a13b9f7fac1c7fb4f9e8df1c0f60898d810147522102973cd851fecff3a20f08377b072729f303801eee1b7678668338adcaec770ec221033e4af03ed09dbd8a417ba042650d5bd1db7f14f271a8f660974e3abf1fdfa4da52ae00000000", "vin": [{"txinwitness": ["", "30450221008c92371ee3fb163484f753329b1ae3388d3933aa31fd486a0fc9b47a81488f820220427a4ce6481b2313e136f884744e8910dd1a1ed3a0a24449887853aeb8fc372a01", "304402205db00b8fc7060b59cfe8eba9d8f4134f7d92ba3881880caecd7d28db1a2288f202203cf2d1ac2b542b0e2f4284fd32d6f2a13b9f7fac1c7fb4f9e8df1c0f60898d8101", "522102973cd851fecff3a20f08377b072729f303801eee1b7678668338adcaec770ec221033e4af03ed09dbd8a417ba042650d5bd1db7f14f271a8f660974e3abf1fdfa4da52ae"], "sequence": 4294967295, "scriptSig": {"hex": "2200202f7b4024602241b47d3306a6733d9889e4b6761d9f1cb82a18aa8b9ac4506e51", "asm": "00202f7b4024602241b47d3306a6733d9889e4b6761d9f1cb82a18aa8b9ac4506e51"}, "vout": 1, "txid": "622a9911a577f86692e74cef31a683e06dee7398ec6f3c8a7c7164e76969b108"}], "txid": "f35077794f2aa3d88457dabd019c48282605eccad07d1bb405c5aa9c3476eecd", "blocktime": 1537876114, "version": 1, "confirmations": 11462, "time": 1537876114, "locktime": 0, "vsize": 208, "size": 373}