{"hash": "f359d00ac689ff183429c884509fe18cd3c9acc9f527fec21d0b7d226993e211", "blockhash": "000000000000000000022b45ed06c6f4ccd3cf7fb5ba4856ebd2e58215665228", "vout": [{"scriptPubKey": {"reqSigs": 1, "hex": "76a9141d2c8dcc2629ffd33f02f869c57711886418e63488ac", "addresses": ["13fFyDt3JWRetv2qy1M8baEnBv3Rkr9bH3"], "asm": "OP_DUP OP_HASH160 1d2c8dcc2629ffd33f02f869c57711886418e634 OP_EQUALVERIFY OP_CHECKSIG", "type": "pubkeyhash"}, "value": 0.00032575, "n": 0}, {"scriptPubKey": {"type": "nulldata", "hex": "6a4c500000775f0001f76f0f71b697c2d4765c059d3a016b46dc7dc7d0968d120d670c1906f999d5071489fc5a0da764ec84b34e3d7cba5baa077e06125119424c35b74bbf23acfcfaac8058b692fe6808c31d", "asm": "OP_RETURN 0000775f0001f76f0f71b697c2d4765c059d3a016b46dc7dc7d0968d120d670c1906f999d5071489fc5a0da764ec84b34e3d7cba5baa077e06125119424c35b74bbf23acfcfaac8058b692fe6808c31d"}, "value": 0.0, "n": 1}], "hex": "0100000001dc4ddb40b08950d1213b5c60319d0147f9da5dc8c0ecc5975c4ea0bccb02102a010000006a47304402206f12f9c015bbc70bf304551ece48601aa8ae68d1a2c5735bea8b662441359cf502207684dfc5c16ef027ad3f0d621f9ddde1a105db206666d7b45bb32463d0f99bf2012102d446f5c2fcf9f86b90f3c729c43893b7bb43fb73c2ab6f1e36dcd4d2649382a3ffffffff023f7f0000000000001976a9141d2c8dcc2629ffd33f02f869c57711886418e63488ac0000000000000000536a4c500000775f0001f76f0f71b697c2d4765c059d3a016b46dc7dc7d0968d120d670c1906f999d5071489fc5a0da764ec84b34e3d7cba5baa077e06125119424c35b74bbf23acfcfaac8058b692fe6808c31d00000000", "vin": [{"sequence": 4294967295, "scriptSig": {"hex": "47304402206f12f9c015bbc70bf304551ece48601aa8ae68d1a2c5735bea8b662441359cf502207684dfc5c16ef027ad3f0d621f9ddde1a105db206666d7b45bb32463d0f99bf2012102d446f5c2fcf9f86b90f3c729c43893b7bb43fb73c2ab6f1e36dcd4d2649382a3", "asm": "304402206f12f9c015bbc70bf304551ece48601aa8ae68d1a2c5735bea8b662441359cf502207684dfc5c16ef027ad3f0d621f9ddde1a105db206666d7b45bb32463d0f99bf2[ALL] 02d446f5c2fcf9f86b90f3c729c43893b7bb43fb73c2ab6f1e36dcd4d2649382a3"}, "vout": 1, "txid": "2a1002cbbca04e5c97c5ecc0c85ddaf947019d31605c3b21d15089b040db4ddc"}], "txid": "f359d00ac689ff183429c884509fe18cd3c9acc9f527fec21d0b7d226993e211", "blocktime": 1537869901, "version": 1, "confirmations": 11523, "time": 1537869901, "locktime": 0, "vsize": 283, "size": 283}