{"hash": "f35c7f608f6ecbed7b77f26c04755587fbb4d7735bda5ef5540f7f76564bdc6d", "blockhash": "0000000000000000001e0dab787dd257d1dbfcb92a98c2207d5e1078be1f4165", "vout": [{"scriptPubKey": {"reqSigs": 1, "hex": "76a914e449315781157e0704ae57314dd02b46e8370df388ac", "addresses": ["1Mp4kFyUZGmGhwBxexRCjzRbRy9Lupw6b5"], "asm": "OP_DUP OP_HASH160 e449315781157e0704ae57314dd02b46e8370df3 OP_EQUALVERIFY OP_CHECKSIG", "type": "pubkeyhash"}, "value": 0.0006249, "n": 0}, {"scriptPubKey": {"reqSigs": 1, "hex": "76a914e12d68fed50711ed3e206ca16f6810a9ff195e1988ac", "addresses": ["1MXdSKBsT7hhDjbqB2NedFTUPLgnEhMnYz"], "asm": "OP_DUP OP_HASH160 e12d68fed50711ed3e206ca16f6810a9ff195e19 OP_EQUALVERIFY OP_CHECKSIG", "type": "pubkeyhash"}, "value": 0.02831257, "n": 1}], "hex": "010000000140f15de51066f5a274a07d29a72507ae563192bd2846b1cb9dc20cd57403b8f5010000006a473044022077a235d3966c75032454dd153dc46ae59b5681ff95d9f8b608c554248c91aef60220423e8b081c9f52b1514446288a368c5902f15bdc25d0c5bf287da74b1168dba90121023905e0ecd4c4fa77ff6438548042d27474a753273338f7a764066439d2dc6cd3ffffffff021af40000000000001976a914e449315781157e0704ae57314dd02b46e8370df388ac99332b00000000001976a914e12d68fed50711ed3e206ca16f6810a9ff195e1988ac00000000", "vin": [{"sequence": 4294967295, "scriptSig": {"hex": "473044022077a235d3966c75032454dd153dc46ae59b5681ff95d9f8b608c554248c91aef60220423e8b081c9f52b1514446288a368c5902f15bdc25d0c5bf287da74b1168dba90121023905e0ecd4c4fa77ff6438548042d27474a753273338f7a764066439d2dc6cd3", "asm": "3044022077a235d3966c75032454dd153dc46ae59b5681ff95d9f8b608c554248c91aef60220423e8b081c9f52b1514446288a368c5902f15bdc25d0c5bf287da74b1168dba9[ALL] 023905e0ecd4c4fa77ff6438548042d27474a753273338f7a764066439d2dc6cd3"}, "vout": 1, "txid": "f5b80374d50cc29dcbb14628bd923156ae0725a7297da074a2f56610e55df140"}], "txid": "f35c7f608f6ecbed7b77f26c04755587fbb4d7735bda5ef5540f7f76564bdc6d", "blocktime": 1537872475, "version": 1, "confirmations": 11487, "time": 1537872475, "locktime": 0, "vsize": 225, "size": 225}