{"hash": "f35e0afbc3cb9f68f4c9851903b2f35e5e51c6ef9c0be89b57904efa7ae6daf1", "blockhash": "0000000000000000000baef3f32e3676a92c3b2e5da21b426e4f302fc371ce76", "vout": [{"scriptPubKey": {"type": "nulldata", "hex": "6a4c50000078160001a866cb9994d8243e6e7ae9c5019d6ddc0f1b8ff117702940d64fa54d8eb2005c72d44dae95c4c3b8196aa08f2acd5baa1bdb0615687d9ad1047a1d100759d4ba30d2c37bb011d97e02cf", "asm": "OP_RETURN 000078160001a866cb9994d8243e6e7ae9c5019d6ddc0f1b8ff117702940d64fa54d8eb2005c72d44dae95c4c3b8196aa08f2acd5baa1bdb0615687d9ad1047a1d100759d4ba30d2c37bb011d97e02cf"}, "value": 0.0, "n": 0}, {"scriptPubKey": {"reqSigs": 1, "hex": "76a914582353b4bee0768d94b00c9e9cf20ec8c76045d888ac", "addresses": ["1932nSfQK2cHBhQ5XucZTNfXikFfLbR5SZ"], "asm": "OP_DUP OP_HASH160 582353b4bee0768d94b00c9e9cf20ec8c76045d8 OP_EQUALVERIFY OP_CHECKSIG", "type": "pubkeyhash"}, "value": 0.00630746, "n": 1}], "hex": "0100000001cab639e3f1e772fd7c1048a5fcfc24547e6d72f5e031e545066ec00e1f1ea3de000000006b483045022100e9b03cd0995b7a98227700cf10c3cdb5d8329aa799ec54cc1653b4534d9ab48202207f204f599a4b18cc9e5581de5fd7c09ea615a44e4ba1e0c11e9aebbb8431567d0121030eab4663317c089af7d5aa55cd52d2cb88703c25893797e48837c99a8b12e575ffffffff020000000000000000536a4c50000078160001a866cb9994d8243e6e7ae9c5019d6ddc0f1b8ff117702940d64fa54d8eb2005c72d44dae95c4c3b8196aa08f2acd5baa1bdb0615687d9ad1047a1d100759d4ba30d2c37bb011d97e02cfda9f0900000000001976a914582353b4bee0768d94b00c9e9cf20ec8c76045d888ac00000000", "vin": [{"sequence": 4294967295, "scriptSig": {"hex": "483045022100e9b03cd0995b7a98227700cf10c3cdb5d8329aa799ec54cc1653b4534d9ab48202207f204f599a4b18cc9e5581de5fd7c09ea615a44e4ba1e0c11e9aebbb8431567d0121030eab4663317c089af7d5aa55cd52d2cb88703c25893797e48837c99a8b12e575", "asm": "3045022100e9b03cd0995b7a98227700cf10c3cdb5d8329aa799ec54cc1653b4534d9ab48202207f204f599a4b18cc9e5581de5fd7c09ea615a44e4ba1e0c11e9aebbb8431567d[ALL] 030eab4663317c089af7d5aa55cd52d2cb88703c25893797e48837c99a8b12e575"}, "vout": 0, "txid": "dea31e1f0ec06e0645e531e0f5726d7e5424fcfca548107cfd72e7f1e339b6ca"}], "txid": "f35e0afbc3cb9f68f4c9851903b2f35e5e51c6ef9c0be89b57904efa7ae6daf1", "blocktime": 1537876114, "version": 1, "confirmations": 11463, "time": 1537876114, "locktime": 0, "vsize": 284, "size": 284}