{"hash": "3e334ae8380c057315c014e1ed1c6e99bf539974fa983d60410ec86ba411b03a", "blockhash": "0000000000000000000baef3f32e3676a92c3b2e5da21b426e4f302fc371ce76", "vout": [{"scriptPubKey": {"reqSigs": 1, "hex": "a914608db89be4f898dc8d6a90ab0da165ff1398e5be87", "addresses": ["3AVYZv67SG5aLHafrjABKgVoPeDFzRiPvR"], "asm": "OP_HASH160 608db89be4f898dc8d6a90ab0da165ff1398e5be OP_EQUAL", "type": "scripthash"}, "value": 0.00017613, "n": 0}, {"scriptPubKey": {"reqSigs": 1, "hex": "a914f5342287aaa57f5c05756dbd5ef14091cc70030f87", "addresses": ["3Q3XvwKWsx3ocmCXheK6pAo5ieooFx75hh"], "asm": "OP_HASH160 f5342287aaa57f5c05756dbd5ef14091cc70030f OP_EQUAL", "type": "scripthash"}, "value": 0.07461936, "n": 1}], "hex": "0100000000010177ece80cae99fe52563163f31df36cb1b03a0a4323e699b4e487d97f970d619401000000232200204fd7968ffe15cb453352a1e9ee2915eff8b6d6252d5a351f9092b82ca10eb12cffffffff02cd4400000000000017a914608db89be4f898dc8d6a90ab0da165ff1398e5be8730dc71000000000017a914f5342287aaa57f5c05756dbd5ef14091cc70030f87040047304402204d8ca407f7eb684d839f6f64c3502cc49de99f44d882cf35834e3391700729ed02200111137acea67f30c635d45ca1ace40375e7d829f71ba91f32bd51d43a1717f4014730440220220e916d3e929b2696ecbc99de039b2dc6bf997b0bb1e73433f2acc2fefd6dee02203d20295115e9f3d1a225f08da6aedc0f375e93cd497b5e8084566357a4e708840147522103b70e79262cbb7310fe069dea7c473b53276b75c67fb841ff66279f152a3fe0172103871fc2ca08e6950b38867e8e6a0e94ee625223d3aa0df5c65f414c6d784467e252ae00000000", "vin": [{"txinwitness": ["", "304402204d8ca407f7eb684d839f6f64c3502cc49de99f44d882cf35834e3391700729ed02200111137acea67f30c635d45ca1ace40375e7d829f71ba91f32bd51d43a1717f401", "30440220220e916d3e929b2696ecbc99de039b2dc6bf997b0bb1e73433f2acc2fefd6dee02203d20295115e9f3d1a225f08da6aedc0f375e93cd497b5e8084566357a4e7088401", "522103b70e79262cbb7310fe069dea7c473b53276b75c67fb841ff66279f152a3fe0172103871fc2ca08e6950b38867e8e6a0e94ee625223d3aa0df5c65f414c6d784467e252ae"], "sequence": 4294967295, "scriptSig": {"hex": "2200204fd7968ffe15cb453352a1e9ee2915eff8b6d6252d5a351f9092b82ca10eb12c", "asm": "00204fd7968ffe15cb453352a1e9ee2915eff8b6d6252d5a351f9092b82ca10eb12c"}, "vout": 1, "txid": "94610d977fd987e4b499e623430a3ab0b16cf31df363315652fe99ae0ce8ec77"}], "txid": "f365eb45223fb7236fb7c4477c4589514eaf1acfd08ab8e90228b2e34ecf6d26", "blocktime": 1537876114, "version": 1, "confirmations": 11462, "time": 1537876114, "locktime": 0, "vsize": 205, "size": 370}