{"hash": "f36ab8d0c3bac5bc503e67709bf15e9b4b44d84a83839f787a1f20cd8ccfd59f", "blockhash": "0000000000000000001e0dab787dd257d1dbfcb92a98c2207d5e1078be1f4165", "vout": [{"scriptPubKey": {"type": "nulldata", "hex": "6a4c50000077b00001f2289f724a7e0bbbfb737760af6c953dd567cf27e7e3ef3236678a6250979402b35ca0835fc3b2e4fcfe24b3cddc5baa11790611b99a0107d7ec20599f7cb8fbacf7bab7719c405f2d9a", "asm": "OP_RETURN 000077b00001f2289f724a7e0bbbfb737760af6c953dd567cf27e7e3ef3236678a6250979402b35ca0835fc3b2e4fcfe24b3cddc5baa11790611b99a0107d7ec20599f7cb8fbacf7bab7719c405f2d9a"}, "value": 0.0, "n": 0}, {"scriptPubKey": {"reqSigs": 1, "hex": "76a914deb2314265e485ceb42a09a2aedd8bea65949c1e88ac", "addresses": ["1MJWUcY9YSkZVgCHY1zteFHm95vKPk4cPW"], "asm": "OP_DUP OP_HASH160 deb2314265e485ceb42a09a2aedd8bea65949c1e OP_EQUALVERIFY OP_CHECKSIG", "type": "pubkeyhash"}, "value": 0.00060013, "n": 1}], "hex": "010000000179394751b11c2b3432a36db21882bfaa5aedf8098bca21cb97ddecf6c8bc3cdf010000006a47304402204e85eaa62cb060061d92b3ef3c388d91dbfe498fd6e1a21b70414ab72cbd5a120220771d6efb2b6962278bc55918948df6952b33b64e506d4dc79c30edac2055b0af012102a5b606a58ee21fd3fdc2a2770a9c6169eec6fdc8961ef610e89e426d48ad3891ffffffff020000000000000000536a4c50000077b00001f2289f724a7e0bbbfb737760af6c953dd567cf27e7e3ef3236678a6250979402b35ca0835fc3b2e4fcfe24b3cddc5baa11790611b99a0107d7ec20599f7cb8fbacf7bab7719c405f2d9a6dea0000000000001976a914deb2314265e485ceb42a09a2aedd8bea65949c1e88ac00000000", "vin": [{"sequence": 4294967295, "scriptSig": {"hex": "47304402204e85eaa62cb060061d92b3ef3c388d91dbfe498fd6e1a21b70414ab72cbd5a120220771d6efb2b6962278bc55918948df6952b33b64e506d4dc79c30edac2055b0af012102a5b606a58ee21fd3fdc2a2770a9c6169eec6fdc8961ef610e89e426d48ad3891", "asm": "304402204e85eaa62cb060061d92b3ef3c388d91dbfe498fd6e1a21b70414ab72cbd5a120220771d6efb2b6962278bc55918948df6952b33b64e506d4dc79c30edac2055b0af[ALL] 02a5b606a58ee21fd3fdc2a2770a9c6169eec6fdc8961ef610e89e426d48ad3891"}, "vout": 1, "txid": "df3cbcc8f6ecdd97cb21ca8b09f8ed5aaabf8218b26da332342b1cb151473979"}], "txid": "f36ab8d0c3bac5bc503e67709bf15e9b4b44d84a83839f787a1f20cd8ccfd59f", "blocktime": 1537872475, "version": 1, "confirmations": 11486, "time": 1537872475, "locktime": 0, "vsize": 283, "size": 283}