{"hash": "c629e14042f05fee004f702d6ac4145f086cadeb4546a80d365c55e27ae415fa", "blockhash": "0000000000000000001e0dab787dd257d1dbfcb92a98c2207d5e1078be1f4165", "vout": [{"scriptPubKey": {"reqSigs": 1, "hex": "76a914c977a081f66228746eb1d08f18d6a7c42f5103e688ac", "addresses": ["1KNG8PQu3BMk3xgeu2y2jYVk4kVBqogdis"], "asm": "OP_DUP OP_HASH160 c977a081f66228746eb1d08f18d6a7c42f5103e6 OP_EQUALVERIFY OP_CHECKSIG", "type": "pubkeyhash"}, "value": 0.05393595, "n": 0}, {"scriptPubKey": {"reqSigs": 1, "hex": "0014e4e2a22030a46a2951b943b1ceef91c9896072f5", "addresses": ["bc1qun32ygps534zj5degwcuamu3exykquh469cqz7"], "asm": "0 e4e2a22030a46a2951b943b1ceef91c9896072f5", "type": "witness_v0_keyhash"}, "value": 0.00449929, "n": 1}], "hex": "01000000000101c1fb7517fe9c2365e27f22105c84b56cc529f0979d8b1d5df75a9f43776615120000000000ffffffff02bb4c5200000000001976a914c977a081f66228746eb1d08f18d6a7c42f5103e688ac89dd060000000000160014e4e2a22030a46a2951b943b1ceef91c9896072f502483045022100d3ea899c032c15e4246c22a3f643a44372bca2a8d29928b9976fefb83f7fb030022043c91d8d0e89f1af28ab3e6abaa23c2c21c16fd85128a7af5df5249b7d0143320121032d19f68b6cb35b41a92b57f98398227041aee9b3a47cb6a73d9337fa16c1d89400000000", "vin": [{"txinwitness": ["3045022100d3ea899c032c15e4246c22a3f643a44372bca2a8d29928b9976fefb83f7fb030022043c91d8d0e89f1af28ab3e6abaa23c2c21c16fd85128a7af5df5249b7d01433201", "032d19f68b6cb35b41a92b57f98398227041aee9b3a47cb6a73d9337fa16c1d894"], "sequence": 4294967295, "scriptSig": {"hex": "", "asm": ""}, "vout": 0, "txid": "12156677439f5af75d1d8b9d97f029c56cb5845c10227fe265239cfe1775fbc1"}], "txid": "f36a031570ac595b70cbe91a3e23a12da26e61e59fddd58ca7ff04cfda70b3c1", "blocktime": 1537872475, "version": 1, "confirmations": 11487, "time": 1537872475, "locktime": 0, "vsize": 144, "size": 226}