{"hash": "f36cb5e5389232053dcc1d265edec65dc94636aeac0d69ae4d030775d681cdfc", "blockhash": "00000000000000000017f5eb5941039fbcee6240d03bc1f2f8e35350df66a1d8", "vout": [{"scriptPubKey": {"reqSigs": 1, "hex": "76a914ea1167db228e66cc48b9b7227e0cd940a0f9c88e88ac", "addresses": ["1NLdyFtVaA4uD6SHGo2ZbP32jAYHHNs95M"], "asm": "OP_DUP OP_HASH160 ea1167db228e66cc48b9b7227e0cd940a0f9c88e OP_EQUALVERIFY OP_CHECKSIG", "type": "pubkeyhash"}, "value": 0.00499986, "n": 0}], "hex": "010000000273cdcfe4c005d5103d78bab98ccfe122bbcca45bf7328ee7a3b2c590f9e61461030000006b483045022100a17e28f693c7578d3f82bfdf22258c221f0778894bbc414b0b4c0d36fd2188aa0220173a57fd380aa1ab7f84ff9482fe827939dfa1a38f1ac0f4a4e523a1e4e015ba012102579cbb540dded08370c59a75d709ecd070bd850df9499afb2c9af53d7262e26dffffffffdcc5ac0e38500a36f692f086781738ca29c06daf0c55d88091815372f2653dc6020000006a47304402201718002effa46795ebc865485e33ef623039dc7e395e6c7ad090132e26368917022041a67c45aaf791b7aa7aead2d7909413a80740c73ad280dc1cbc7a7d6feae991012102579cbb540dded08370c59a75d709ecd070bd850df9499afb2c9af53d7262e26dffffffff0112a10700000000001976a914ea1167db228e66cc48b9b7227e0cd940a0f9c88e88ac00000000", "vin": [{"sequence": 4294967295, "scriptSig": {"hex": "483045022100a17e28f693c7578d3f82bfdf22258c221f0778894bbc414b0b4c0d36fd2188aa0220173a57fd380aa1ab7f84ff9482fe827939dfa1a38f1ac0f4a4e523a1e4e015ba012102579cbb540dded08370c59a75d709ecd070bd850df9499afb2c9af53d7262e26d", "asm": "3045022100a17e28f693c7578d3f82bfdf22258c221f0778894bbc414b0b4c0d36fd2188aa0220173a57fd380aa1ab7f84ff9482fe827939dfa1a38f1ac0f4a4e523a1e4e015ba[ALL] 02579cbb540dded08370c59a75d709ecd070bd850df9499afb2c9af53d7262e26d"}, "vout": 3, "txid": "6114e6f990c5b2a3e78e32f75ba4ccbb22e1cf8cb9ba783d10d505c0e4cfcd73"}, {"sequence": 4294967295, "scriptSig": {"hex": "47304402201718002effa46795ebc865485e33ef623039dc7e395e6c7ad090132e26368917022041a67c45aaf791b7aa7aead2d7909413a80740c73ad280dc1cbc7a7d6feae991012102579cbb540dded08370c59a75d709ecd070bd850df9499afb2c9af53d7262e26d", "asm": "304402201718002effa46795ebc865485e33ef623039dc7e395e6c7ad090132e26368917022041a67c45aaf791b7aa7aead2d7909413a80740c73ad280dc1cbc7a7d6feae991[ALL] 02579cbb540dded08370c59a75d709ecd070bd850df9499afb2c9af53d7262e26d"}, "vout": 2, "txid": "c63d65f27253819180d8550caf6dc029ca38177886f092f6360a50380eacc5dc"}], "txid": "f36cb5e5389232053dcc1d265edec65dc94636aeac0d69ae4d030775d681cdfc", "blocktime": 1537874412, "version": 1, "confirmations": 11468, "time": 1537874412, "locktime": 0, "vsize": 339, "size": 339}