{"hash": "f373341ca48f79956839ca70ea1c11f443bd3fab77689cba5fdbd2f2d4ba429d", "blockhash": "00000000000000000024a2167bbff67b0be802c0b01cdd79e6331c2be6459f87", "vout": [{"scriptPubKey": {"reqSigs": 1, "hex": "76a91466d1945dd77b6632f5240dcad1d139d58a142a6088ac", "addresses": ["1ANezQkuWSnXFUPfXEdnS8pDe6XQk4ij52"], "asm": "OP_DUP OP_HASH160 66d1945dd77b6632f5240dcad1d139d58a142a60 OP_EQUALVERIFY OP_CHECKSIG", "type": "pubkeyhash"}, "value": 0.05463664, "n": 0}, {"scriptPubKey": {"reqSigs": 1, "hex": "a914ad951a1a8ce359c3201822f6d1a40198ebc3958c87", "addresses": ["3HWqSWvb4nLLRNTjXJPvgjoYWrJ5KVepjA"], "asm": "OP_HASH160 ad951a1a8ce359c3201822f6d1a40198ebc3958c OP_EQUAL", "type": "scripthash"}, "value": 0.01874034, "n": 1}], "hex": "0100000001d8d2b44d471fba01e958cdabc2138c0780c5fed9940f2022068bfc380ba4a824010000006b483045022100bffd5af6581b4b91ecd8fa8e32b0152c2bee47b3c881d5b5086387664f040eba022073309d67dfe18cc7183ae9343b2ea8ab9d7942e4eebc651252ca514afd7cc0a6012102ee029159b303a0bcafc88c69ce5a841c039c2abb4cf6457b5337a8bc357aeb91ffffffff02705e5300000000001976a91466d1945dd77b6632f5240dcad1d139d58a142a6088ac72981c000000000017a914ad951a1a8ce359c3201822f6d1a40198ebc3958c8700000000", "vin": [{"sequence": 4294967295, "scriptSig": {"hex": "483045022100bffd5af6581b4b91ecd8fa8e32b0152c2bee47b3c881d5b5086387664f040eba022073309d67dfe18cc7183ae9343b2ea8ab9d7942e4eebc651252ca514afd7cc0a6012102ee029159b303a0bcafc88c69ce5a841c039c2abb4cf6457b5337a8bc357aeb91", "asm": "3045022100bffd5af6581b4b91ecd8fa8e32b0152c2bee47b3c881d5b5086387664f040eba022073309d67dfe18cc7183ae9343b2ea8ab9d7942e4eebc651252ca514afd7cc0a6[ALL] 02ee029159b303a0bcafc88c69ce5a841c039c2abb4cf6457b5337a8bc357aeb91"}, "vout": 1, "txid": "24a8a40b38fc8b0622200f94d9fec580078c13c2abcd58e901ba1f474db4d2d8"}], "txid": "f373341ca48f79956839ca70ea1c11f443bd3fab77689cba5fdbd2f2d4ba429d", "blocktime": 1537870564, "version": 1, "confirmations": 11515, "time": 1537870564, "locktime": 0, "vsize": 224, "size": 224}