{"hash": "f377134935f159117066fc891ff5575166d48801d536a86bdd971fcbaacf2d55", "blockhash": "0000000000000000001f0ddff1eddb255c1121bcd4da4f1bc9a0da00cae72433", "vout": [{"scriptPubKey": {"reqSigs": 1, "hex": "76a914ea9c831b52c211f357fb7c93f7c6a07475d7664888ac", "addresses": ["1NPWcYSnykbysrSwLrzjZewZHubocrJ9XZ"], "asm": "OP_DUP OP_HASH160 ea9c831b52c211f357fb7c93f7c6a07475d76648 OP_EQUALVERIFY OP_CHECKSIG", "type": "pubkeyhash"}, "value": 0.002155, "n": 0}, {"scriptPubKey": {"reqSigs": 1, "hex": "76a91466ced5e8bfe7056c83cafd17a18577b247e11a8c88ac", "addresses": ["1ANbhknbnqeDVx2zDpGu8GsSUsZ9BVpu8A"], "asm": "OP_DUP OP_HASH160 66ced5e8bfe7056c83cafd17a18577b247e11a8c OP_EQUALVERIFY OP_CHECKSIG", "type": "pubkeyhash"}, "value": 0.0913923, "n": 1}], "hex": "010000000126a0e5a5c78a431c4f1c7e7a34752c842f7a11a59f61cec9f2020b4bb0a9965a010000006b483045022100c1192857cd3003d5b7c890fc11adf278d72c571ad95f2ccba62f38cfbc7ce8510220035f0d6660834fa1700bfa3b65d7fb9f0f1323d226faa5d01f9cd5dad5cb90bc012103e39fc5eae8594d478dd2c0531e77ae7a9834c1629312f2d538cae0f05c66f616ffffffff02cc490300000000001976a914ea9c831b52c211f357fb7c93f7c6a07475d7664888ac1e748b00000000001976a91466ced5e8bfe7056c83cafd17a18577b247e11a8c88ac00000000", "vin": [{"sequence": 4294967295, "scriptSig": {"hex": "483045022100c1192857cd3003d5b7c890fc11adf278d72c571ad95f2ccba62f38cfbc7ce8510220035f0d6660834fa1700bfa3b65d7fb9f0f1323d226faa5d01f9cd5dad5cb90bc012103e39fc5eae8594d478dd2c0531e77ae7a9834c1629312f2d538cae0f05c66f616", "asm": "3045022100c1192857cd3003d5b7c890fc11adf278d72c571ad95f2ccba62f38cfbc7ce8510220035f0d6660834fa1700bfa3b65d7fb9f0f1323d226faa5d01f9cd5dad5cb90bc[ALL] 03e39fc5eae8594d478dd2c0531e77ae7a9834c1629312f2d538cae0f05c66f616"}, "vout": 1, "txid": "5a96a9b04b0b02f2c9ce619fa5117a2f842c75347a7e1c4f1c438ac7a5e5a026"}], "txid": "f377134935f159117066fc891ff5575166d48801d536a86bdd971fcbaacf2d55", "blocktime": 1537872018, "version": 1, "confirmations": 11489, "time": 1537872018, "locktime": 0, "vsize": 226, "size": 226}