{"hash": "f378e00baf5bdc11eb06533af9c7316358339eb5c014b6cefda52ba4836072b3", "blockhash": "00000000000000000024a2167bbff67b0be802c0b01cdd79e6331c2be6459f87", "vout": [{"scriptPubKey": {"reqSigs": 1, "hex": "76a914adef623ba38db76099710cd47f3fa093305ced1088ac", "addresses": ["1GrgfrqfTbbZ7tknj9kqWQbmLtzCxK17gc"], "asm": "OP_DUP OP_HASH160 adef623ba38db76099710cd47f3fa093305ced10 OP_EQUALVERIFY OP_CHECKSIG", "type": "pubkeyhash"}, "value": 0.00986103, "n": 0}, {"scriptPubKey": {"reqSigs": 1, "hex": "76a91404856b44ed0943b8edf1e6677b5a6a861897a1da88ac", "addresses": ["1QuXtEh7t1jmsniubureRRpiQm3VhZwnW"], "asm": "OP_DUP OP_HASH160 04856b44ed0943b8edf1e6677b5a6a861897a1da OP_EQUALVERIFY OP_CHECKSIG", "type": "pubkeyhash"}, "value": 0.03589887, "n": 1}], "hex": "010000000281ef96e1a40515a1d885cb28320095f69c3cc879214e1a1b3e1b328e2e104342010000006a47304402207108d42ce4f6b926e762d68b16f5dae2f007199513e61dac751897d26eb9a54002205cdfb1f5a90af5949dc341d73ec524acdf482d4442ff9601380ded96b6d6d36801210390594a25cd48b3ddfdfaf0ca9660bd87f0dfcc5ac02546f1b360110c1dcef3aaffffffff970f450ee5df0fc716f402b8485ae87aec59dbe6ca0ce8e704f666c31a9a35e6010000006a47304402204112544b2ba042f357cc9eecc474ef90b95e3146d6d58b5fe3a8f5a185899a7102207a93b1e2e46d36c43ff0b695af9819c59b7b7150195e29d0838860a84c844ac2012102fefd565cbc9417e4c5592a13c6d351740b78964e706f06eb4d36d36cdb06c6c5ffffffff02f70b0f00000000001976a914adef623ba38db76099710cd47f3fa093305ced1088acffc63600000000001976a91404856b44ed0943b8edf1e6677b5a6a861897a1da88ac00000000", "vin": [{"sequence": 4294967295, "scriptSig": {"hex": "47304402207108d42ce4f6b926e762d68b16f5dae2f007199513e61dac751897d26eb9a54002205cdfb1f5a90af5949dc341d73ec524acdf482d4442ff9601380ded96b6d6d36801210390594a25cd48b3ddfdfaf0ca9660bd87f0dfcc5ac02546f1b360110c1dcef3aa", "asm": "304402207108d42ce4f6b926e762d68b16f5dae2f007199513e61dac751897d26eb9a54002205cdfb1f5a90af5949dc341d73ec524acdf482d4442ff9601380ded96b6d6d368[ALL] 0390594a25cd48b3ddfdfaf0ca9660bd87f0dfcc5ac02546f1b360110c1dcef3aa"}, "vout": 1, "txid": "4243102e8e321b3e1b1a4e2179c83c9cf695003228cb85d8a11505a4e196ef81"}, {"sequence": 4294967295, "scriptSig": {"hex": "47304402204112544b2ba042f357cc9eecc474ef90b95e3146d6d58b5fe3a8f5a185899a7102207a93b1e2e46d36c43ff0b695af9819c59b7b7150195e29d0838860a84c844ac2012102fefd565cbc9417e4c5592a13c6d351740b78964e706f06eb4d36d36cdb06c6c5", "asm": "304402204112544b2ba042f357cc9eecc474ef90b95e3146d6d58b5fe3a8f5a185899a7102207a93b1e2e46d36c43ff0b695af9819c59b7b7150195e29d0838860a84c844ac2[ALL] 02fefd565cbc9417e4c5592a13c6d351740b78964e706f06eb4d36d36cdb06c6c5"}, "vout": 1, "txid": "e6359a1ac366f604e7e80ccae6db59ec7ae85a48b802f416c70fdfe50e450f97"}], "txid": "f378e00baf5bdc11eb06533af9c7316358339eb5c014b6cefda52ba4836072b3", "blocktime": 1537870564, "version": 1, "confirmations": 11515, "time": 1537870564, "locktime": 0, "vsize": 372, "size": 372}