{"hash": "f387d9094ae6d5e748b32e87a547a843a77062817fe4e58e59f83d4a01062c1c", "blockhash": "00000000000000000024a2167bbff67b0be802c0b01cdd79e6331c2be6459f87", "vout": [{"scriptPubKey": {"reqSigs": 1, "hex": "76a9147e24fe7d1e4a875bf31d3666e6adaac6df88529e88ac", "addresses": ["1CVzTZoSn6qKbpEs2pqCK1iEaY2Tgu3yiE"], "asm": "OP_DUP OP_HASH160 7e24fe7d1e4a875bf31d3666e6adaac6df88529e OP_EQUALVERIFY OP_CHECKSIG", "type": "pubkeyhash"}, "value": 0.00619996, "n": 0}, {"scriptPubKey": {"reqSigs": 1, "hex": "76a91432860e471ce9ff3e9988778a36f552352d5442a888ac", "addresses": ["15c9Nx6SUCTqna1RyWruQfRDuXGrURxboL"], "asm": "OP_DUP OP_HASH160 32860e471ce9ff3e9988778a36f552352d5442a8 OP_EQUALVERIFY OP_CHECKSIG", "type": "pubkeyhash"}, "value": 0.33714795, "n": 1}], "hex": "0200000001840661c4c131c59a5d81684c1e0d1a3cc7b45a41ddca51bcfe5db6c91c10f5f5000000008a4730440220465df4522f54a63b516164695cf7b2c91dc0c6277f4b724c42eb3ac6e77850b7022054ef6385a5d13472cd95f6e25839b92b3d598131f0b74763a475d35a74eb0e1301410476ae6c327340a72c28a34537ab4a627a0cf00e2dc9427b6e54c3858e630935cb3ea5acfde9519c42c689a614c890e33157b5104c8c296b0bb08443ce185c5ba7feffffff02dc750900000000001976a9147e24fe7d1e4a875bf31d3666e6adaac6df88529e88ac6b720202000000001976a91432860e471ce9ff3e9988778a36f552352d5442a888ac0d490800", "vin": [{"sequence": 4294967294, "scriptSig": {"hex": "4730440220465df4522f54a63b516164695cf7b2c91dc0c6277f4b724c42eb3ac6e77850b7022054ef6385a5d13472cd95f6e25839b92b3d598131f0b74763a475d35a74eb0e1301410476ae6c327340a72c28a34537ab4a627a0cf00e2dc9427b6e54c3858e630935cb3ea5acfde9519c42c689a614c890e33157b5104c8c296b0bb08443ce185c5ba7", "asm": "30440220465df4522f54a63b516164695cf7b2c91dc0c6277f4b724c42eb3ac6e77850b7022054ef6385a5d13472cd95f6e25839b92b3d598131f0b74763a475d35a74eb0e13[ALL] 0476ae6c327340a72c28a34537ab4a627a0cf00e2dc9427b6e54c3858e630935cb3ea5acfde9519c42c689a614c890e33157b5104c8c296b0bb08443ce185c5ba7"}, "vout": 0, "txid": "f5f5101cc9b65dfebc51cadd415ab4c73c1a0d1e4c68815d9ac531c1c4610684"}], "txid": "f387d9094ae6d5e748b32e87a547a843a77062817fe4e58e59f83d4a01062c1c", "blocktime": 1537870564, "version": 2, "confirmations": 11515, "time": 1537870564, "locktime": 542989, "vsize": 257, "size": 257}