{"hash": "f3889a7a9da5dc8914f94d37fd6afaf44dd228090be4645b104928652bc23d84", "blockhash": "0000000000000000000e13cef7c366c0283d82e591d1acd082e914b08063cdf1", "vout": [{"scriptPubKey": {"reqSigs": 1, "hex": "76a914565f84cf00d921e8d2f06927b3c70c1ea5c7560988ac", "addresses": ["18shYG1nBNC6TfYRbwcYwtfNaKiEuzu6Ye"], "asm": "OP_DUP OP_HASH160 565f84cf00d921e8d2f06927b3c70c1ea5c75609 OP_EQUALVERIFY OP_CHECKSIG", "type": "pubkeyhash"}, "value": 0.01056739, "n": 0}, {"scriptPubKey": {"reqSigs": 1, "hex": "76a914a995ec89fb7e9663544e7aa70b08e403cb69540288ac", "addresses": ["1GTgoKZtnawpXyiDXmiDSeLWX8pWzkzqd5"], "asm": "OP_DUP OP_HASH160 a995ec89fb7e9663544e7aa70b08e403cb695402 OP_EQUALVERIFY OP_CHECKSIG", "type": "pubkeyhash"}, "value": 0.03125405, "n": 1}], "hex": "010000000178482b2f77a30b6e6342bfbc13b0931fb83f6fe95c9f8b84f7d91d01ab9d05bf010000006b483045022100c61928eecb57606ad6252aa4134b1bd9bbdfa432cb7a21a648015b0a2b1415790220729c77c9730e2fa5cef8b0206e66dee4983934476bff5fefad9e6d46fd38c0d8012102f02a54cd935965845a5b390ddd40f12457d45ef37f1b9c0f459a50ffb4b30d77ffffffff02e31f1000000000001976a914565f84cf00d921e8d2f06927b3c70c1ea5c7560988ac9db02f00000000001976a914a995ec89fb7e9663544e7aa70b08e403cb69540288ac00000000", "vin": [{"sequence": 4294967295, "scriptSig": {"hex": "483045022100c61928eecb57606ad6252aa4134b1bd9bbdfa432cb7a21a648015b0a2b1415790220729c77c9730e2fa5cef8b0206e66dee4983934476bff5fefad9e6d46fd38c0d8012102f02a54cd935965845a5b390ddd40f12457d45ef37f1b9c0f459a50ffb4b30d77", "asm": "3045022100c61928eecb57606ad6252aa4134b1bd9bbdfa432cb7a21a648015b0a2b1415790220729c77c9730e2fa5cef8b0206e66dee4983934476bff5fefad9e6d46fd38c0d8[ALL] 02f02a54cd935965845a5b390ddd40f12457d45ef37f1b9c0f459a50ffb4b30d77"}, "vout": 1, "txid": "bf059dab011dd9f7848b9f5ce96f3fb81f93b013bcbf42636e0ba3772f2b4878"}], "txid": "f3889a7a9da5dc8914f94d37fd6afaf44dd228090be4645b104928652bc23d84", "blocktime": 1537871767, "version": 1, "confirmations": 11492, "time": 1537871767, "locktime": 0, "vsize": 226, "size": 226}