{"hash": "f392c9fbf51b15bda03a736e0b6646ceb2dda904c9997fe072a74202b622f52f", "blockhash": "0000000000000000001f76057863aec43deb6fa401d9628bb513d65a8098bfab", "vout": [{"scriptPubKey": {"reqSigs": 1, "hex": "a914f185aaaf1e007d39b1c2618dac92ef1e8581eca787", "addresses": ["3Pi4u6toEzvixhs4Xzr3pzMCTpdE1Ueqsm"], "asm": "OP_HASH160 f185aaaf1e007d39b1c2618dac92ef1e8581eca7 OP_EQUAL", "type": "scripthash"}, "value": 0.02, "n": 0}, {"scriptPubKey": {"reqSigs": 1, "hex": "76a914f182651d2f4f4219a45107877211646ec07538b588ac", "addresses": ["1P1z4EWbcr6W1VYMsizTqfvS6QhuNZLDKu"], "asm": "OP_DUP OP_HASH160 f182651d2f4f4219a45107877211646ec07538b5 OP_EQUALVERIFY OP_CHECKSIG", "type": "pubkeyhash"}, "value": 0.00063879, "n": 1}], "hex": "01000000010d3988778ebde01363f3fa7c70a733a355ccbdc3a18283761612b2fd05d24f235a0000006b48304502210084917a4beba059e78ee9e852f228f690cc325faaa1c9122e8a025b9eda8220b502202c7d481490d067bd9ad427648f70cd75fa816eaf166e7d23f4664c662eddc163012102fcc9ddb973b632a3b822ebdef3ba308e7c2b92f7b8259a80578313304e1b9cfcffffffff0280841e000000000017a914f185aaaf1e007d39b1c2618dac92ef1e8581eca78787f90000000000001976a914f182651d2f4f4219a45107877211646ec07538b588ac00000000", "vin": [{"sequence": 4294967295, "scriptSig": {"hex": "48304502210084917a4beba059e78ee9e852f228f690cc325faaa1c9122e8a025b9eda8220b502202c7d481490d067bd9ad427648f70cd75fa816eaf166e7d23f4664c662eddc163012102fcc9ddb973b632a3b822ebdef3ba308e7c2b92f7b8259a80578313304e1b9cfc", "asm": "304502210084917a4beba059e78ee9e852f228f690cc325faaa1c9122e8a025b9eda8220b502202c7d481490d067bd9ad427648f70cd75fa816eaf166e7d23f4664c662eddc163[ALL] 02fcc9ddb973b632a3b822ebdef3ba308e7c2b92f7b8259a80578313304e1b9cfc"}, "vout": 90, "txid": "234fd205fdb21216768382a1c3bdcc55a333a7707cfaf36313e0bd8e7788390d"}], "txid": "f392c9fbf51b15bda03a736e0b6646ceb2dda904c9997fe072a74202b622f52f", "blocktime": 1537873891, "version": 1, "confirmations": 11476, "time": 1537873891, "locktime": 0, "vsize": 224, "size": 224}