{"hash": "beb2a10246b2dd1066eefbd4fb8985c845744a5d78fab0d6da8443de563acacd", "blockhash": "0000000000000000000e13cef7c366c0283d82e591d1acd082e914b08063cdf1", "vout": [{"scriptPubKey": {"reqSigs": 1, "hex": "76a91467154bdcb98f925b2e7cb938f80899e1f3febfbe88ac", "addresses": ["1AQ47TL6HZz2Etxrx758sZ3BktsNscqJRv"], "asm": "OP_DUP OP_HASH160 67154bdcb98f925b2e7cb938f80899e1f3febfbe OP_EQUALVERIFY OP_CHECKSIG", "type": "pubkeyhash"}, "value": 0.00017073, "n": 0}, {"scriptPubKey": {"reqSigs": 1, "hex": "a9140be7846be16b05bea00dbec2fcd7e045a793cb1787", "addresses": ["32mxhko5mJHfkbkDPpz7SfdJwEJi21P1WK"], "asm": "OP_HASH160 0be7846be16b05bea00dbec2fcd7e045a793cb17 OP_EQUAL", "type": "scripthash"}, "value": 0.19816152, "n": 1}], "hex": "0100000000010157321fa92b853f1bcc562926de5dd798ec98de9e72cd399de299ad2257f5460601000000232200202c66ece6da72bcbfeadf83a91236f4891c13e14d8ecebdcaa81666fc1aa73a31ffffffff02b1420000000000001976a91467154bdcb98f925b2e7cb938f80899e1f3febfbe88acd85e2e010000000017a9140be7846be16b05bea00dbec2fcd7e045a793cb17870400473044022018f9b45f01a50efd51cb599fc464d592787c81adbbb7ccde90ad35edef4f86ff02201cc6e40707fa2b2455c9ae89cb32c21a759944d14d32a41e23de796f2f8d44ff014730440220526a13d6cf335d55fb8652345b94759eb24166b2412e1f3e69d93d56f209607f02201a07c468f4e3fe453cd153e58a001a0af8903b9c6c07d37b85ee7544078ce6e801475221029e6fbb942d34a473faaa5557c1bfe08d72102f0b9754ad140fd369d7a3ba3cdc2103871fc2ca08e6950b38867e8e6a0e94ee625223d3aa0df5c65f414c6d784467e252ae00000000", "vin": [{"txinwitness": ["", "3044022018f9b45f01a50efd51cb599fc464d592787c81adbbb7ccde90ad35edef4f86ff02201cc6e40707fa2b2455c9ae89cb32c21a759944d14d32a41e23de796f2f8d44ff01", "30440220526a13d6cf335d55fb8652345b94759eb24166b2412e1f3e69d93d56f209607f02201a07c468f4e3fe453cd153e58a001a0af8903b9c6c07d37b85ee7544078ce6e801", "5221029e6fbb942d34a473faaa5557c1bfe08d72102f0b9754ad140fd369d7a3ba3cdc2103871fc2ca08e6950b38867e8e6a0e94ee625223d3aa0df5c65f414c6d784467e252ae"], "sequence": 4294967295, "scriptSig": {"hex": "2200202c66ece6da72bcbfeadf83a91236f4891c13e14d8ecebdcaa81666fc1aa73a31", "asm": "00202c66ece6da72bcbfeadf83a91236f4891c13e14d8ecebdcaa81666fc1aa73a31"}, "vout": 1, "txid": "0646f55722ad99e29d39cd729ede98ec98d75dde262956cc1b3f852ba91f3257"}], "txid": "f3941cb9df53aa6bfaab2bf00d2d038a1a7053015cf48971bd160f621a87a204", "blocktime": 1537871767, "version": 1, "confirmations": 11495, "time": 1537871767, "locktime": 0, "vsize": 207, "size": 372}