{"hash": "f39e1b6400234a3d225216223393e1d9ba84c5c490931f1a153580b84c932dbc", "blockhash": "00000000000000000017f5eb5941039fbcee6240d03bc1f2f8e35350df66a1d8", "vout": [{"scriptPubKey": {"reqSigs": 1, "hex": "76a914c2378662fc1e6a6181b0b03fefac4569f5fcacfe88ac", "addresses": ["1JhvcA4AuSofchS3LGQsSTQ4ALALWPMr7i"], "asm": "OP_DUP OP_HASH160 c2378662fc1e6a6181b0b03fefac4569f5fcacfe OP_EQUALVERIFY OP_CHECKSIG", "type": "pubkeyhash"}, "value": 0.006436, "n": 0}, {"scriptPubKey": {"reqSigs": 1, "hex": "76a9141b7166986c9be818e767fd320c9811bdd7cb240288ac", "addresses": ["13W76QMJn42u43iAGSNNbLYrTiMEdKmufG"], "asm": "OP_DUP OP_HASH160 1b7166986c9be818e767fd320c9811bdd7cb2402 OP_EQUALVERIFY OP_CHECKSIG", "type": "pubkeyhash"}, "value": 0.01603105, "n": 1}], "hex": "0100000001e07682643e611cd2ffd6a2d28c5c15a083982e2c87eb444050bf9c1de6c97faa000000006a4730440220138ab3612b8ab0f99add1d40c5572ded698b77110ef58d9647bff3f375a94c97022040f03cd40960453bc45ad7d4f39de5d3f85c97e7585b62d0b9f89b15900253f9012103a151a2d9d14c27bd9dc8069424b5fdf1d1e33a3b3db77e32f11c1b64a2d08f80ffffffff0210d20900000000001976a914c2378662fc1e6a6181b0b03fefac4569f5fcacfe88ac21761800000000001976a9141b7166986c9be818e767fd320c9811bdd7cb240288ac00000000", "vin": [{"sequence": 4294967295, "scriptSig": {"hex": "4730440220138ab3612b8ab0f99add1d40c5572ded698b77110ef58d9647bff3f375a94c97022040f03cd40960453bc45ad7d4f39de5d3f85c97e7585b62d0b9f89b15900253f9012103a151a2d9d14c27bd9dc8069424b5fdf1d1e33a3b3db77e32f11c1b64a2d08f80", "asm": "30440220138ab3612b8ab0f99add1d40c5572ded698b77110ef58d9647bff3f375a94c97022040f03cd40960453bc45ad7d4f39de5d3f85c97e7585b62d0b9f89b15900253f9[ALL] 03a151a2d9d14c27bd9dc8069424b5fdf1d1e33a3b3db77e32f11c1b64a2d08f80"}, "vout": 0, "txid": "aa7fc9e61d9cbf504044eb872c2e9883a0155c8cd2a2d6ffd21c613e648276e0"}], "txid": "f39e1b6400234a3d225216223393e1d9ba84c5c490931f1a153580b84c932dbc", "blocktime": 1537874412, "version": 1, "confirmations": 11467, "time": 1537874412, "locktime": 0, "vsize": 225, "size": 225}