{"hash": "f3a90d38fc1cbdda9e78d60a4c4bc18b245faab74b410cce9760ef0800f32728", "blockhash": "000000000000000000022b45ed06c6f4ccd3cf7fb5ba4856ebd2e58215665228", "vout": [{"scriptPubKey": {"reqSigs": 1, "hex": "76a914b6d1255ff85c4bbfaf074e0a37cc13979950da9788ac", "addresses": ["1HfeXddwgeksXSji3TtzEDRMqHRbQfQDgS"], "asm": "OP_DUP OP_HASH160 b6d1255ff85c4bbfaf074e0a37cc13979950da97 OP_EQUALVERIFY OP_CHECKSIG", "type": "pubkeyhash"}, "value": 0.7361387, "n": 0}, {"scriptPubKey": {"reqSigs": 1, "hex": "76a91409e8f3ef2157f0938727bc6c3769a5beaf24429a88ac", "addresses": ["1uQ9aNtFr8F5Nwmf3EnTuAXBV9yx7obRp"], "asm": "OP_DUP OP_HASH160 09e8f3ef2157f0938727bc6c3769a5beaf24429a OP_EQUALVERIFY OP_CHECKSIG", "type": "pubkeyhash"}, "value": 1.06335, "n": 1}], "hex": "01000000012664d25d8859c9ebe24fccba0c0beb44aa8ff74798063d0e7905ebb3789c7368040000006a4730440220742b86953e2b2469bdc9cbbddbddf44558da6b08dcaed6737a84b9845df8d46b02200d9bbea64a3aa3eb9ab52fed9c5b8990af571532789a617783c075628cb45ece012103ad0f12e83ad57b94b6cf37799a54bc1a2ae2a9c20040bd06094fe7617e0538c0ffffffff022e426304000000001976a914b6d1255ff85c4bbfaf074e0a37cc13979950da9788ac188b5606000000001976a91409e8f3ef2157f0938727bc6c3769a5beaf24429a88ac00000000", "vin": [{"sequence": 4294967295, "scriptSig": {"hex": "4730440220742b86953e2b2469bdc9cbbddbddf44558da6b08dcaed6737a84b9845df8d46b02200d9bbea64a3aa3eb9ab52fed9c5b8990af571532789a617783c075628cb45ece012103ad0f12e83ad57b94b6cf37799a54bc1a2ae2a9c20040bd06094fe7617e0538c0", "asm": "30440220742b86953e2b2469bdc9cbbddbddf44558da6b08dcaed6737a84b9845df8d46b02200d9bbea64a3aa3eb9ab52fed9c5b8990af571532789a617783c075628cb45ece[ALL] 03ad0f12e83ad57b94b6cf37799a54bc1a2ae2a9c20040bd06094fe7617e0538c0"}, "vout": 4, "txid": "68739c78b3eb05790e3d069847f78faa44eb0b0cbacc4fe2ebc959885dd26426"}], "txid": "f3a90d38fc1cbdda9e78d60a4c4bc18b245faab74b410cce9760ef0800f32728", "blocktime": 1537869901, "version": 1, "confirmations": 11522, "time": 1537869901, "locktime": 0, "vsize": 225, "size": 225}