{"hash": "8445ecdb17e3e1b80cae650704c5aca16a2fcbef5b8f7843e22f74978f714c30", "blockhash": "0000000000000000000baef3f32e3676a92c3b2e5da21b426e4f302fc371ce76", "vout": [{"scriptPubKey": {"reqSigs": 1, "hex": "76a914af0bd739c0c8862325068e9551e8914304c828cb88ac", "addresses": ["1GxZSH9GMkyebeAC7EXVKWBhE7jUhvSUgU"], "asm": "OP_DUP OP_HASH160 af0bd739c0c8862325068e9551e8914304c828cb OP_EQUALVERIFY OP_CHECKSIG", "type": "pubkeyhash"}, "value": 0.00033264, "n": 0}, {"scriptPubKey": {"reqSigs": 1, "hex": "a914412a5a9d44d5834123b7756088f409b7b3a36da687", "addresses": ["37daapNiiDgPEaARWMQCfhGXJo4yF1nTaW"], "asm": "OP_HASH160 412a5a9d44d5834123b7756088f409b7b3a36da6 OP_EQUAL", "type": "scripthash"}, "value": 0.00232472, "n": 1}], "hex": "0100000000010126e522fd5e5e80040b63db237662dcf374964c35310c5679911a582bda4e5790010000002322002083f5850b1b9ae687f7cf8d5c77fefcbd87cde420155cd43c20d50f5f293b7ed6ffffffff02f0810000000000001976a914af0bd739c0c8862325068e9551e8914304c828cb88ac188c03000000000017a914412a5a9d44d5834123b7756088f409b7b3a36da6870400483045022100bacd60d1e3096c089c15b7df2d5aefe3f1334740cf8179fdbd9743d2440e0d98022010450745b6673631b8a87bfb4273063247c1268c0aa6960f6c4c487739f998cf01483045022100a0cc5d1dd4b8fc08242512bde80806248e5283b7b55f5af2ba3ef01daeb1a61f02203e8deb44391f406d1a12021268c133ec7ebd458f45ce379e38a52ac8a9de950a01475221020511070566b8412d1941b8dc0ded10caa6a6915b609dfa65bb8111255071d3a22103871fc2ca08e6950b38867e8e6a0e94ee625223d3aa0df5c65f414c6d784467e252ae00000000", "vin": [{"txinwitness": ["", "3045022100bacd60d1e3096c089c15b7df2d5aefe3f1334740cf8179fdbd9743d2440e0d98022010450745b6673631b8a87bfb4273063247c1268c0aa6960f6c4c487739f998cf01", "3045022100a0cc5d1dd4b8fc08242512bde80806248e5283b7b55f5af2ba3ef01daeb1a61f02203e8deb44391f406d1a12021268c133ec7ebd458f45ce379e38a52ac8a9de950a01", "5221020511070566b8412d1941b8dc0ded10caa6a6915b609dfa65bb8111255071d3a22103871fc2ca08e6950b38867e8e6a0e94ee625223d3aa0df5c65f414c6d784467e252ae"], "sequence": 4294967295, "scriptSig": {"hex": "22002083f5850b1b9ae687f7cf8d5c77fefcbd87cde420155cd43c20d50f5f293b7ed6", "asm": "002083f5850b1b9ae687f7cf8d5c77fefcbd87cde420155cd43c20d50f5f293b7ed6"}, "vout": 1, "txid": "90574eda2b581a9179560c31354c9674f3dc627623db630b04805e5efd22e526"}], "txid": "f3b5ce362a237334104b62e1ab878758e46c1ae10716c828056e9298e63dde37", "blocktime": 1537876114, "version": 1, "confirmations": 11460, "time": 1537876114, "locktime": 0, "vsize": 208, "size": 374}