{"hash": "be2c0a86b7b66e808fdaa21dd410c2eb2588bf025604fd05b094a61234906dc1", "blockhash": "00000000000000000018f53835495a110e01622372bf6ae95dc86f2b0ab887b0", "vout": [{"scriptPubKey": {"reqSigs": 1, "hex": "76a914a57f994802f2953556fb4b3a873d5dc7ed5b5ec388ac", "addresses": ["1G65MNQ926TkskYg9t6MwHqmH6dbyUbzxi"], "asm": "OP_DUP OP_HASH160 a57f994802f2953556fb4b3a873d5dc7ed5b5ec3 OP_EQUALVERIFY OP_CHECKSIG", "type": "pubkeyhash"}, "value": 0.00177507, "n": 0}, {"scriptPubKey": {"reqSigs": 1, "hex": "a914a5cb6d8c4286a5de7fe0921dde3267adc77ff9ed87", "addresses": ["3Gof7cexUxQWMSB5e4adGtarBJDNNv4Vjy"], "asm": "OP_HASH160 a5cb6d8c4286a5de7fe0921dde3267adc77ff9ed OP_EQUAL", "type": "scripthash"}, "value": 0.00886661, "n": 1}], "hex": "01000000000101cc85393017894b4f07eee7b79a19cd16b9efe0477da77cbcf8c7b6b38733521a0100000023220020b3338f9571dda5ad799834148ea1ed19d1123924bdbb356e0c8c610b69cfd906ffffffff0263b50200000000001976a914a57f994802f2953556fb4b3a873d5dc7ed5b5ec388ac85870d000000000017a914a5cb6d8c4286a5de7fe0921dde3267adc77ff9ed8704004830450221008e1bf0f60fa5831e326bcbb25bcbaebe034c970cf8dc831eec98c05598f99bb80220169943a3c4817d9fb7250ebd98283d1a39ee3c2ffd64f928e6ca91c95f331d4e01483045022100e1ede1643cffaab3a804cbd7817801cbdca888e9a413623a7d90416184c2bb1702207de9b1cd494449a2b9068fb22b9d66a852e959e7382406ad56cfc4adc022ed0101475221030c187397a5b8dfedda9f5fedc3a23f7c20923351690c4b0247f9bce94499c4202103871fc2ca08e6950b38867e8e6a0e94ee625223d3aa0df5c65f414c6d784467e252ae00000000", "vin": [{"txinwitness": ["", "30450221008e1bf0f60fa5831e326bcbb25bcbaebe034c970cf8dc831eec98c05598f99bb80220169943a3c4817d9fb7250ebd98283d1a39ee3c2ffd64f928e6ca91c95f331d4e01", "3045022100e1ede1643cffaab3a804cbd7817801cbdca888e9a413623a7d90416184c2bb1702207de9b1cd494449a2b9068fb22b9d66a852e959e7382406ad56cfc4adc022ed0101", "5221030c187397a5b8dfedda9f5fedc3a23f7c20923351690c4b0247f9bce94499c4202103871fc2ca08e6950b38867e8e6a0e94ee625223d3aa0df5c65f414c6d784467e252ae"], "sequence": 4294967295, "scriptSig": {"hex": "220020b3338f9571dda5ad799834148ea1ed19d1123924bdbb356e0c8c610b69cfd906", "asm": "0020b3338f9571dda5ad799834148ea1ed19d1123924bdbb356e0c8c610b69cfd906"}, "vout": 1, "txid": "1a523387b3b6c7f8bc7ca77d47e0efb916cd199ab7e7ee074f4b8917303985cc"}], "txid": "f3ba16312018782246316a2f916da188ca69fb26ba44b3317c9e09a19bff89b7", "blocktime": 1537870928, "version": 1, "confirmations": 11514, "time": 1537870928, "locktime": 0, "vsize": 208, "size": 374}