{"hash": "f3c43ae6d041fa05e5e62d76172829dfe7cceb2261281e26c45e4fb073e93ec8", "blockhash": "0000000000000000001f76057863aec43deb6fa401d9628bb513d65a8098bfab", "vout": [{"scriptPubKey": {"reqSigs": 1, "hex": "76a9142a83e585d0556f43652389c5ed4796cf3d8dd5dc88ac", "addresses": ["14soPPho7BBKiSkmxqEyMciE2cdofuXdgY"], "asm": "OP_DUP OP_HASH160 2a83e585d0556f43652389c5ed4796cf3d8dd5dc OP_EQUALVERIFY OP_CHECKSIG", "type": "pubkeyhash"}, "value": 2.2e-05, "n": 0}, {"scriptPubKey": {"reqSigs": 1, "hex": "76a9149cec54917177514751a1c2628e6339289231269988ac", "addresses": ["1FJjXSrTkxHbLrVDUfgkoCryBai5viQB4G"], "asm": "OP_DUP OP_HASH160 9cec54917177514751a1c2628e63392892312699 OP_EQUALVERIFY OP_CHECKSIG", "type": "pubkeyhash"}, "value": 0.00082, "n": 1}], "hex": "0100000001775d2fc1f904b72fa32f3682e371177210d4ab06217c4c9a2b45b724dd9a1490000000006b483045022100ac9a236d0f98a2ef5198e9ab50bb4015e07617619fb34b49b5ce138b2f8309aa022045bcb34dca9f4402e17fc0673c665e6abde74b13231fd970d73265e7eb8f445d01210356ec88e8ac79865101183bfbda98117b0ffc9edebe45a78cb7fe0b2ac94db2defeffffff0298080000000000001976a9142a83e585d0556f43652389c5ed4796cf3d8dd5dc88ac50400100000000001976a9149cec54917177514751a1c2628e6339289231269988ac00000000", "vin": [{"sequence": 4294967294, "scriptSig": {"hex": "483045022100ac9a236d0f98a2ef5198e9ab50bb4015e07617619fb34b49b5ce138b2f8309aa022045bcb34dca9f4402e17fc0673c665e6abde74b13231fd970d73265e7eb8f445d01210356ec88e8ac79865101183bfbda98117b0ffc9edebe45a78cb7fe0b2ac94db2de", "asm": "3045022100ac9a236d0f98a2ef5198e9ab50bb4015e07617619fb34b49b5ce138b2f8309aa022045bcb34dca9f4402e17fc0673c665e6abde74b13231fd970d73265e7eb8f445d[ALL] 0356ec88e8ac79865101183bfbda98117b0ffc9edebe45a78cb7fe0b2ac94db2de"}, "vout": 0, "txid": "90149add24b7452b9a4c7c2106abd410721771e382362fa32fb704f9c12f5d77"}], "txid": "f3c43ae6d041fa05e5e62d76172829dfe7cceb2261281e26c45e4fb073e93ec8", "blocktime": 1537873891, "version": 1, "confirmations": 11477, "time": 1537873891, "locktime": 0, "vsize": 226, "size": 226}