{"hash": "f3c59b0a84b1e450c610d86fa4f314f54c9336b7b262586b5e05407b4d6e9e3a", "blockhash": "00000000000000000004ffacab907a6b429b9a5745fa0b75af4234bf69dd7176", "vout": [{"scriptPubKey": {"type": "nulldata", "hex": "6a146f6d6e69000000000000001f000001d2207fb400", "asm": "OP_RETURN 6f6d6e69000000000000001f000001d2207fb400"}, "value": 0.0, "n": 0}, {"scriptPubKey": {"reqSigs": 1, "hex": "76a914a25dec4d0011064ef106a983c39c7a540699f22088ac", "addresses": ["1FoWyxwPXuj4C6abqwhjDWdz6D4PZgYRjA"], "asm": "OP_DUP OP_HASH160 a25dec4d0011064ef106a983c39c7a540699f220 OP_EQUALVERIFY OP_CHECKSIG", "type": "pubkeyhash"}, "value": 0.01990431, "n": 1}, {"scriptPubKey": {"reqSigs": 1, "hex": "76a914f30b1dbe1103a5d758aa15370bd00a6ab8a190b888ac", "addresses": ["1PA6WysoSEuvisAXVwExAgjGoZ7gPokX6m"], "asm": "OP_DUP OP_HASH160 f30b1dbe1103a5d758aa15370bd00a6ab8a190b8 OP_EQUALVERIFY OP_CHECKSIG", "type": "pubkeyhash"}, "value": 5.46e-06, "n": 2}], "hex": "01000000017179f5fb7cbca133898e0be79b0610fed28b4d6ef2bf456c037dd5bb6feef545010000006b48304502210099bc80109d4aeeaf4e41ed5c8314bcc5a6d2040fd1786687c4a8ad626def57c1022011bf35df58fc2b41bd453f8a9e0ecf5ae9003d653751dbcd352abc92ba38d403012103da5bac7b36d5aa38f531c6b9601e21bb598a4b6716ebed38b009a55dabde9440feffffff030000000000000000166a146f6d6e69000000000000001f000001d2207fb4001f5f1e00000000001976a914a25dec4d0011064ef106a983c39c7a540699f22088ac22020000000000001976a914f30b1dbe1103a5d758aa15370bd00a6ab8a190b888ac16490800", "vin": [{"sequence": 4294967294, "scriptSig": {"hex": "48304502210099bc80109d4aeeaf4e41ed5c8314bcc5a6d2040fd1786687c4a8ad626def57c1022011bf35df58fc2b41bd453f8a9e0ecf5ae9003d653751dbcd352abc92ba38d403012103da5bac7b36d5aa38f531c6b9601e21bb598a4b6716ebed38b009a55dabde9440", "asm": "304502210099bc80109d4aeeaf4e41ed5c8314bcc5a6d2040fd1786687c4a8ad626def57c1022011bf35df58fc2b41bd453f8a9e0ecf5ae9003d653751dbcd352abc92ba38d403[ALL] 03da5bac7b36d5aa38f531c6b9601e21bb598a4b6716ebed38b009a55dabde9440"}, "vout": 1, "txid": "45f5ee6fbbd57d036c45bff26e4d8bd2fe10069be70b8e8933a1bc7cfbf57971"}], "txid": "f3c59b0a84b1e450c610d86fa4f314f54c9336b7b262586b5e05407b4d6e9e3a", "blocktime": 1537875543, "version": 1, "confirmations": 11464, "time": 1537875543, "locktime": 542998, "vsize": 257, "size": 257}