{"hash": "f3c7f9243a053f63bdb010c28a69bf67997e754ee1039c5381597f404b08de95", "blockhash": "0000000000000000000e13cef7c366c0283d82e591d1acd082e914b08063cdf1", "vout": [{"scriptPubKey": {"reqSigs": 1, "hex": "76a914e522f3ce3405e6bd0281bfdf14706338e8c5b73c88ac", "addresses": ["1MtZcToQuAP7KwvRKRhsvRd9ZycVyw8ten"], "asm": "OP_DUP OP_HASH160 e522f3ce3405e6bd0281bfdf14706338e8c5b73c OP_EQUALVERIFY OP_CHECKSIG", "type": "pubkeyhash"}, "value": 0.0220785, "n": 0}, {"scriptPubKey": {"reqSigs": 1, "hex": "a9142a9a0c9d5df7134aeb2f7945b6d8f28aa43f746d87", "addresses": ["35aGr8cGPAKKeErH8aNTtvkvEFqa2nj2vD"], "asm": "OP_HASH160 2a9a0c9d5df7134aeb2f7945b6d8f28aa43f746d OP_EQUAL", "type": "scripthash"}, "value": 0.25027376, "n": 1}], "hex": "0100000001252bb8615cd12b29805d2cfeeb9f22379721e2aa11e0c3af42198bc899ca81e6010000006b483045022100993b9f61fe46cf24e34fc9ae22335357f6e9ebc0bfd94aa03e62d8ec13a474cb0220059753cdb7fbdf51e161cf346951d1cdaeb67e9c694771ddd55110c1e451b0540121033979b181f1eabed56a52c16eba5a354fc9082d3e9fb27c7b9b32c07fb9f0cb9fffffffff026ab02100000000001976a914e522f3ce3405e6bd0281bfdf14706338e8c5b73c88ac30e37d010000000017a9142a9a0c9d5df7134aeb2f7945b6d8f28aa43f746d8700000000", "vin": [{"sequence": 4294967295, "scriptSig": {"hex": "483045022100993b9f61fe46cf24e34fc9ae22335357f6e9ebc0bfd94aa03e62d8ec13a474cb0220059753cdb7fbdf51e161cf346951d1cdaeb67e9c694771ddd55110c1e451b0540121033979b181f1eabed56a52c16eba5a354fc9082d3e9fb27c7b9b32c07fb9f0cb9f", "asm": "3045022100993b9f61fe46cf24e34fc9ae22335357f6e9ebc0bfd94aa03e62d8ec13a474cb0220059753cdb7fbdf51e161cf346951d1cdaeb67e9c694771ddd55110c1e451b054[ALL] 033979b181f1eabed56a52c16eba5a354fc9082d3e9fb27c7b9b32c07fb9f0cb9f"}, "vout": 1, "txid": "e681ca99c88b1942afc3e011aae2219737229febfe2c5d80292bd15c61b82b25"}], "txid": "f3c7f9243a053f63bdb010c28a69bf67997e754ee1039c5381597f404b08de95", "blocktime": 1537871767, "version": 1, "confirmations": 11495, "time": 1537871767, "locktime": 0, "vsize": 224, "size": 224}