{"hash": "f3c96e00af0e7b280d0d3333f2f8212aeaa114d7d7edd6f2e2fc74bf93272c55", "blockhash": "0000000000000000000baef3f32e3676a92c3b2e5da21b426e4f302fc371ce76", "vout": [{"scriptPubKey": {"reqSigs": 1, "hex": "a9149b612ae79a39c00137f1d62593cb4f7b1708571087", "addresses": ["3Frb4bn6qdGbBP4gjGQtDFoBqne9fxuxj1"], "asm": "OP_HASH160 9b612ae79a39c00137f1d62593cb4f7b17085710 OP_EQUAL", "type": "scripthash"}, "value": 0.004266, "n": 0}, {"scriptPubKey": {"reqSigs": 1, "hex": "76a91490509838f7fc93d75190e6db47dbefa8257b0f8d88ac", "addresses": ["1EA4rSHN6XLYyQsyVMgVSNVGeHeckTHg2S"], "asm": "OP_DUP OP_HASH160 90509838f7fc93d75190e6db47dbefa8257b0f8d OP_EQUALVERIFY OP_CHECKSIG", "type": "pubkeyhash"}, "value": 0.02215482, "n": 1}], "hex": "010000000159c99b25e0b7c8899a407d258f04732607ea8113e2c14544afe77cec7fa218a3010000006b4830450221008cadbcbe45a190b4a5e63a4d829ee2b2e48c939d253a5c672692de7728b593700220364111b7aae548bce36d647545a992efe60312922060b0cd43c81b479f869fc1012103a11fd9ccec5f4289230813df1a86bf69db99d07ee3cf669a7c6662b6c06f3c0dffffffff02688206000000000017a9149b612ae79a39c00137f1d62593cb4f7b17085710873ace2100000000001976a91490509838f7fc93d75190e6db47dbefa8257b0f8d88ac00000000", "vin": [{"sequence": 4294967295, "scriptSig": {"hex": "4830450221008cadbcbe45a190b4a5e63a4d829ee2b2e48c939d253a5c672692de7728b593700220364111b7aae548bce36d647545a992efe60312922060b0cd43c81b479f869fc1012103a11fd9ccec5f4289230813df1a86bf69db99d07ee3cf669a7c6662b6c06f3c0d", "asm": "30450221008cadbcbe45a190b4a5e63a4d829ee2b2e48c939d253a5c672692de7728b593700220364111b7aae548bce36d647545a992efe60312922060b0cd43c81b479f869fc1[ALL] 03a11fd9ccec5f4289230813df1a86bf69db99d07ee3cf669a7c6662b6c06f3c0d"}, "vout": 1, "txid": "a318a27fec7ce7af4445c1e21381ea072673048f257d409a89c8b7e0259bc959"}], "txid": "f3c96e00af0e7b280d0d3333f2f8212aeaa114d7d7edd6f2e2fc74bf93272c55", "blocktime": 1537876114, "version": 1, "confirmations": 11460, "time": 1537876114, "locktime": 0, "vsize": 224, "size": 224}