{"hash": "f3d2d3ea24ba5acd3d36ba04bd38da5627fb9985451c893ddf50b1b43aed5f7e", "blockhash": "00000000000000000024a2167bbff67b0be802c0b01cdd79e6331c2be6459f87", "vout": [{"scriptPubKey": {"reqSigs": 1, "hex": "a914aaa830ad7cba104a51c15c2bd662b32f58dfb92387", "addresses": ["3HFNHDCorLhQxKeJpU9YAFt82eWcwFayzy"], "asm": "OP_HASH160 aaa830ad7cba104a51c15c2bd662b32f58dfb923 OP_EQUAL", "type": "scripthash"}, "value": 0.0023736, "n": 0}, {"scriptPubKey": {"reqSigs": 1, "hex": "76a91421fcbc6083b296f76fa466f32b13e480da09314e88ac", "addresses": ["146i4j3kcaSZzma2aFTyLEmSdZsjLmFGVR"], "asm": "OP_DUP OP_HASH160 21fcbc6083b296f76fa466f32b13e480da09314e OP_EQUALVERIFY OP_CHECKSIG", "type": "pubkeyhash"}, "value": 0.01074967, "n": 1}], "hex": "0100000001eb37e737495d94b5139ebfd483f4cb18e00aa43f9ee15d05e9262bdb6dcd7a39000000006b483045022100cb0eeb972d25ad163f29ef3f205bff913a55e61c535777903aedfd7bfe44a05502200752823f5901589ffa6825c53f098b5860298a0e0f097a877b252ce73dafc6af012103a7d9080f401e1c0915b1465bdd978f9331108d5e1891bcfe36a01f58ff9caebbffffffff02309f03000000000017a914aaa830ad7cba104a51c15c2bd662b32f58dfb9238717671000000000001976a91421fcbc6083b296f76fa466f32b13e480da09314e88ac00000000", "vin": [{"sequence": 4294967295, "scriptSig": {"hex": "483045022100cb0eeb972d25ad163f29ef3f205bff913a55e61c535777903aedfd7bfe44a05502200752823f5901589ffa6825c53f098b5860298a0e0f097a877b252ce73dafc6af012103a7d9080f401e1c0915b1465bdd978f9331108d5e1891bcfe36a01f58ff9caebb", "asm": "3045022100cb0eeb972d25ad163f29ef3f205bff913a55e61c535777903aedfd7bfe44a05502200752823f5901589ffa6825c53f098b5860298a0e0f097a877b252ce73dafc6af[ALL] 03a7d9080f401e1c0915b1465bdd978f9331108d5e1891bcfe36a01f58ff9caebb"}, "vout": 0, "txid": "397acd6ddb2b26e9055de19e3fa40ae018cbf483d4bf9e13b5945d4937e737eb"}], "txid": "f3d2d3ea24ba5acd3d36ba04bd38da5627fb9985451c893ddf50b1b43aed5f7e", "blocktime": 1537870564, "version": 1, "confirmations": 11515, "time": 1537870564, "locktime": 0, "vsize": 224, "size": 224}