{"hash": "d2007f0678513cc454250896df962a1bca359bbe2ec4a4b5d5966c78991d31f7", "blockhash": "000000000000000000022b45ed06c6f4ccd3cf7fb5ba4856ebd2e58215665228", "vout": [{"scriptPubKey": {"reqSigs": 1, "hex": "76a91470b0ee0aacde095196ece8853a0f48d55f71859688ac", "addresses": ["1BGrdnct6uEkGFStL6EQzQUeYUuS7BGS72"], "asm": "OP_DUP OP_HASH160 70b0ee0aacde095196ece8853a0f48d55f718596 OP_EQUALVERIFY OP_CHECKSIG", "type": "pubkeyhash"}, "value": 0.17724076, "n": 0}, {"scriptPubKey": {"reqSigs": 1, "hex": "a9144d3841a80f14d201dd1a545c0bd6ef7d217e782787", "addresses": ["38jKM5ko2Us5KwMepNpGJjCBb56SbkihYg"], "asm": "OP_HASH160 4d3841a80f14d201dd1a545c0bd6ef7d217e7827 OP_EQUAL", "type": "scripthash"}, "value": 5.43011007, "n": 1}], "hex": "0200000000010188505bf42ff9366d4bcb552aeb7f99a654a4b8e82d9b20654792dd91a1d4633d01000000171600144e8a0707775549e773f0efd3dfbf49423d52d7b0ffffffff02ac720e01000000001976a91470b0ee0aacde095196ece8853a0f48d55f71859688acbfb05d200000000017a9144d3841a80f14d201dd1a545c0bd6ef7d217e78278702483045022100b50fe41b5c90b67872e33743df2547986140a0262d8e76154f42529cf6aae5ae0220491aabe9bdb2a6125b2d2fbd7b4822c9fd40b33b4133bfd783ff90258b29148001210351af5a611d6b3b0cc95f4be50d6c8958d87bec913af9576c743379b82a0797ea00000000", "vin": [{"txinwitness": ["3045022100b50fe41b5c90b67872e33743df2547986140a0262d8e76154f42529cf6aae5ae0220491aabe9bdb2a6125b2d2fbd7b4822c9fd40b33b4133bfd783ff90258b29148001", "0351af5a611d6b3b0cc95f4be50d6c8958d87bec913af9576c743379b82a0797ea"], "sequence": 4294967295, "scriptSig": {"hex": "1600144e8a0707775549e773f0efd3dfbf49423d52d7b0", "asm": "00144e8a0707775549e773f0efd3dfbf49423d52d7b0"}, "vout": 1, "txid": "3d63d4a191dd924765209b2de8b8a454a6997feb2a55cb4b6d36f92ff45b5088"}], "txid": "f3d35bdc463006c5f8a9c693d59176b1f2e66b9c3c053377e946833714616168", "blocktime": 1537869901, "version": 2, "confirmations": 11522, "time": 1537869901, "locktime": 0, "vsize": 168, "size": 250}