{"hash": "f3d7afdae43ccc8c0311dc83b2ebed080895ce336035aab33e803174d3cd5554", "blockhash": "00000000000000000024a2167bbff67b0be802c0b01cdd79e6331c2be6459f87", "vout": [{"scriptPubKey": {"type": "nulldata", "hex": "6a4c500000777c0001b5e35f1de28bd9246c8a4ea5bcbefa6b8351586b4e86aeaeacb577c031fc188e23a49bea01f4b5f926be4d26c66a5baa0a0d0614ac97a78d2db7bc9a9526289ac0f6612cd74e33776ee4", "asm": "OP_RETURN 0000777c0001b5e35f1de28bd9246c8a4ea5bcbefa6b8351586b4e86aeaeacb577c031fc188e23a49bea01f4b5f926be4d26c66a5baa0a0d0614ac97a78d2db7bc9a9526289ac0f6612cd74e33776ee4"}, "value": 0.0, "n": 0}, {"scriptPubKey": {"reqSigs": 1, "hex": "76a914e0fba14a5d2713d781ed0a030cc6ff9a23270c4788ac", "addresses": ["1MWboXqs66UtLCBxsTLQs222VK43GfVABP"], "asm": "OP_DUP OP_HASH160 e0fba14a5d2713d781ed0a030cc6ff9a23270c47 OP_EQUALVERIFY OP_CHECKSIG", "type": "pubkeyhash"}, "value": 0.0148176, "n": 1}], "hex": "0100000001a07f440989df547d9e9f9641c12f822cab13367f4e49a37139f3fb30b29d6f61000000006b483045022100d0da3a98c2720a7871ee11eeacdbfad0c57c4687b4de52acb1bd8bdde8beb51e02204b7915ba8e4157ba246f1809bc08d4ebd0f48ae0c4bea44f97633308baf2f93001210223127762313cde263ddd8b2f702cdb5c98a4d2d353863223d79a6eb1f54fd7f9ffffffff020000000000000000536a4c500000777c0001b5e35f1de28bd9246c8a4ea5bcbefa6b8351586b4e86aeaeacb577c031fc188e23a49bea01f4b5f926be4d26c66a5baa0a0d0614ac97a78d2db7bc9a9526289ac0f6612cd74e33776ee4209c1600000000001976a914e0fba14a5d2713d781ed0a030cc6ff9a23270c4788ac00000000", "vin": [{"sequence": 4294967295, "scriptSig": {"hex": "483045022100d0da3a98c2720a7871ee11eeacdbfad0c57c4687b4de52acb1bd8bdde8beb51e02204b7915ba8e4157ba246f1809bc08d4ebd0f48ae0c4bea44f97633308baf2f93001210223127762313cde263ddd8b2f702cdb5c98a4d2d353863223d79a6eb1f54fd7f9", "asm": "3045022100d0da3a98c2720a7871ee11eeacdbfad0c57c4687b4de52acb1bd8bdde8beb51e02204b7915ba8e4157ba246f1809bc08d4ebd0f48ae0c4bea44f97633308baf2f930[ALL] 0223127762313cde263ddd8b2f702cdb5c98a4d2d353863223d79a6eb1f54fd7f9"}, "vout": 0, "txid": "616f9db230fbf33971a3494e7f3613ab2c822fc141969f9e7d54df8909447fa0"}], "txid": "f3d7afdae43ccc8c0311dc83b2ebed080895ce336035aab33e803174d3cd5554", "blocktime": 1537870564, "version": 1, "confirmations": 11515, "time": 1537870564, "locktime": 0, "vsize": 284, "size": 284}