{"hash": "f3d706ad8021c3377b84cead2f9299adc365a3d0820f850c192cbb80ddde41d4", "blockhash": "00000000000000000017f5eb5941039fbcee6240d03bc1f2f8e35350df66a1d8", "vout": [{"scriptPubKey": {"reqSigs": 1, "hex": "76a91437815f7794ca42275135e96b5fd794fad4a17f6e88ac", "addresses": ["164V9YExaajAVv6x2Y3zP86qMQU3Vg1mtF"], "asm": "OP_DUP OP_HASH160 37815f7794ca42275135e96b5fd794fad4a17f6e OP_EQUALVERIFY OP_CHECKSIG", "type": "pubkeyhash"}, "value": 0.01075427, "n": 0}], "hex": "010000000152a7addb06a5de8e98c3baeb9209e0d855f0441cabbf3c7811a51d827f97954d010000006b483045022100b0b1d25b8916efebceb8928448959ed6dd8b6651dbcab7f94fa0691aa0226dff02201458151fa277faf6c7d796a4db0396b77c0fe6bf5b58917dfcf80c0d649e1e7e012103076faa1598ed8cdd1958b4fa4650352eb92665e54596e49effd2b1497d140d5dffffffff01e3681000000000001976a91437815f7794ca42275135e96b5fd794fad4a17f6e88ac00000000", "vin": [{"sequence": 4294967295, "scriptSig": {"hex": "483045022100b0b1d25b8916efebceb8928448959ed6dd8b6651dbcab7f94fa0691aa0226dff02201458151fa277faf6c7d796a4db0396b77c0fe6bf5b58917dfcf80c0d649e1e7e012103076faa1598ed8cdd1958b4fa4650352eb92665e54596e49effd2b1497d140d5d", "asm": "3045022100b0b1d25b8916efebceb8928448959ed6dd8b6651dbcab7f94fa0691aa0226dff02201458151fa277faf6c7d796a4db0396b77c0fe6bf5b58917dfcf80c0d649e1e7e[ALL] 03076faa1598ed8cdd1958b4fa4650352eb92665e54596e49effd2b1497d140d5d"}, "vout": 1, "txid": "4d95977f821da511783cbfab1c44f055d8e00992ebbac3988edea506dbada752"}], "txid": "f3d706ad8021c3377b84cead2f9299adc365a3d0820f850c192cbb80ddde41d4", "blocktime": 1537874412, "version": 1, "confirmations": 11468, "time": 1537874412, "locktime": 0, "vsize": 192, "size": 192}