{"hash": "f7821ab3d4b66e28d0aceb6d75fbbdded24d1a80fd7d4710835994d219410f6d", "blockhash": "0000000000000000001f0ddff1eddb255c1121bcd4da4f1bc9a0da00cae72433", "vout": [{"scriptPubKey": {"reqSigs": 1, "hex": "a914cd98313ecc55b5e5d058454351382a548a047ade87", "addresses": ["3LS6mNz6Lp5UD9Sve3JZd4bdAxaUV6ZCyg"], "asm": "OP_HASH160 cd98313ecc55b5e5d058454351382a548a047ade OP_EQUAL", "type": "scripthash"}, "value": 0.02, "n": 0}, {"scriptPubKey": {"reqSigs": 1, "hex": "76a914c18bd428507344c63140aa38d960da25d83d176088ac", "addresses": ["1JeNvVgN63t81kxpbFvNa9o6sBpazjyg4r"], "asm": "OP_DUP OP_HASH160 c18bd428507344c63140aa38d960da25d83d1760 OP_EQUALVERIFY OP_CHECKSIG", "type": "pubkeyhash"}, "value": 0.113689, "n": 1}, {"scriptPubKey": {"reqSigs": 1, "hex": "76a9140c51308bbc17235fffd9d8149f7cf27bcf94306d88ac", "addresses": ["1288NTUgdz4kJkdPSbmCNzBAK7GsjsjDhX"], "asm": "OP_DUP OP_HASH160 0c51308bbc17235fffd9d8149f7cf27bcf94306d OP_EQUALVERIFY OP_CHECKSIG", "type": "pubkeyhash"}, "value": 4.9997, "n": 2}, {"scriptPubKey": {"reqSigs": 1, "hex": "76a914ea13412ca97741629772a803d82c2da1338394cf88ac", "addresses": ["1NLgBinrf2eLsc4SPeGMCGWQcpSXU3nSmn"], "asm": "OP_DUP OP_HASH160 ea13412ca97741629772a803d82c2da1338394cf OP_EQUALVERIFY OP_CHECKSIG", "type": "pubkeyhash"}, "value": 0.35, "n": 3}, {"scriptPubKey": {"reqSigs": 1, "hex": "a914d783a532a1ab697b51cd072ed600ea77c4bb4a9b87", "addresses": ["3MLYufRo2XmhJR7ZknbWj2AQrdzQc8pVjp"], "asm": "OP_HASH160 d783a532a1ab697b51cd072ed600ea77c4bb4a9b OP_EQUAL", "type": "scripthash"}, "value": 25.7461202, "n": 4}], "hex": "0100000000010fc15a2bb9142b5c489d2d0b3599ee9088acb720e9cc18ecce52553a7b3313c37a0200000017160014b558b3fca5d9247039b785a345f9e3a107746ee2ffffffffa2d178cb625e17e1140758ec09b7a126b5f81aafbb49f8dc0bb93818b68848fb0500000017160014b48b899f1e0543da7cbe677dad3c42c890497fb1ffffffff1019d053a43bdfe605b1bdac104da3baf04fb25926446ac034e81e15434a282547000000171600148e428bf31c5691acabf0edc547fee911d82ddc7affffffffcdafd8c2118e0e69e8480ed24eb3788f0578b80762237b4f7e7d3f0b51b838360100000017160014491879954774309a3a7d0c063086764963802d49ffffffff6c5dbff5b442e96021fa5e2b26d1a6e85abedf8d5c2a84fb2d68c02c6acd59e41500000017160014bad4e09aff8f6934e83bd8a1fcd67f0c6f3086f6ffffffff4937b550ff7e62fb8cab42be9b6f5a830232be08e48a96960c686fb9f730b94e0b00000017160014e6b9c5d6261ecf28094bd53f3fef636e2350f5f6ffffffff4937b550ff7e62fb8cab42be9b6f5a830232be08e48a96960c686fb9f730b94e0e00000017160014c0b575177badbe3ad8d8d58cdf2c3dbb46b9f0aafffffffff65124dcd582a74fe2ba60d3a53e721f155794c1eb638288377bb0499dcda6e7000000001716001447534693251d76efe582307d1dafe38dcd01021bffffffff83ea625750b2ab318ae6a7cf725089c64e455d1e9ba9a29ebb5e356d8c357a2d01000000171600142a6f9b65090f2938748359f21cca8a959a34ea86ffffffff8a59da5e9f301c949bbf3aea1e2993826dc450e787dc95cd4175de19e6ec6d91010000001716001416d8eb978a31b6a390fc24b470b089d7c23f03e8ffffffff4f783e77eb57e4044d0cc779f2adc23be36714ab33675e519176c336fdd1454e1a000000171600146ffe1023c262bc63a7950ba684888443539a6fcdfffffffff4db5643e3f96a5b8a18793aebda1e13355deb7c0168c4bdc5d0ed295b95cd6847000000171600148e428bf31c5691acabf0edc547fee911d82ddc7affffffffd6272254d73a99c83fd7928cb89097619070f47fc43b794d5de0ca1d51ffea4d0000000017160014ee56e492c828741162566a0c393d9077b1d914c7ffffffff8855470e5a8d7ca1757eee127de0352415fa5d1fa39c0a9af2971d6e8e6c724a00000000171600143b3d266999ad9d8c0b3c1f04c1d62442f0bf6a1bfffffffffb0426698e898ae663be9f237f87567e3e42fc3c66e984e11010ac092fafe852020000001716001431a2ce0c031351dd9c5dad168af8b76d65147419ffffffff0580841e000000000017a914cd98313ecc55b5e5d058454351382a548a047ade87c479ad00000000001976a914c18bd428507344c63140aa38d960da25d83d176088acd0efcc1d000000001976a9140c51308bbc17235fffd9d8149f7cf27bcf94306d88acc00e1602000000001976a914ea13412ca97741629772a803d82c2da1338394cf88ac347675990000000017a914d783a532a1ab697b51cd072ed600ea77c4bb4a9b870247304402206fe443038d7393e6aa9dd6f9186d0ecc19d58115b852b2b056f8f0e9e680949102202f3af9bb52ec161899a2c34d84a7bcf6c16d04ea2e9563ecc3eff4909ede43810121020c8bc5d9479f68874c510c10916fe11fb8e9e5a6974dc8cc2ed1e1bee00b4f9b0247304402207c81d1416626b8011ae90c5f88a7cbf7c8878171609268d55ed222dde341c18a022019810ccc02eaf19c710c4b48dc2fbd19f89b27c1b105127f627611da2f7a4d4e012102a980b746f1b612922c507cc64235572820c3733a504e02d182eada5b1f9964090248304502210081f912fe20cdfd47fe298d81555d765c9bba0e0c7127aeb133e3c3630272e45d02201a235a3453e6865da4af2b9293d50b6529cac2e7a37c533235cf6d32c3552fc8012103e206664fe0d663107eaf130f379b11ca89fa80fc55b4fde7f687a2f370b9cb2c0248304502210083681f537c0d40cc3f95088b846b3609b5e8258dfe546a4539d5bf62465f830b02202a1a99ce587be6864a0f9ad88b952a258c96042efdf8a6c5c1fc09eb72e006db012103bfe681f7a907961afd12adbaa061f286659b96c56272c8ab8a0fb6e3a8934d10024730440220419bf8c1fa39c5886ae35f81482861fc6ebaddeb5f8b148331eca3846c6c76de022063c6e1cd02f0f5ade51f7be1743ae4d0f9c21f8aa6bd0100a815792817523c53012102b7433100e5208f89f270065c4e17ced337e8ffec6cb1acb16645754a543765bb0247304402200a9e124e25e00eb1b11aa2859b3748873ac5a584c98561a2054e42b704f7bd1602207b4b83b3b4b6666773a159152fb100c62309c6670e35bfa035626ba6783680ec012103523c1c5a34d2732b2e90de3221cf12b30cf36628090f6e95c34a53b8847e57fb02473044022062a67e5d94861b5d6a43b995ae11cc8913f4958a3067e1b69f846ccdf1d63bdc0220184f729866fea19cf8a235b476114f6a63b4d7077ef99931dde3d59f38b5acf801210285ad0cd8a09155adffe4d6f615ec6aeef8ef54dda828dff59d7e9668b4bbfa4c024730440220245c665f7ff1c48d861d1de5386609bb412ac2ca558d26db458be563c68d850a022059832f90071295c694343c12ff177c6cc203b72f2ef8d660a3f703f5cbc16097012103f6ca64e105255afb897c7cf3ca5e68422fc5a68c03848369dea4d0bbf8616b9e0247304402203486041c69c03ec710e36b8aa1ec1a539f31bdc99ee3eed88d3e1e2e2c78f3050220456a1f1fe5b0b560cf0d90ff0ab3c8eea53fa051726e1f7c7b2588fbe151f5e8012102674d60032b21c5dc67dfaf0cfdde09ccd73a619b4d293958443773c597129d8c024730440220321651345000dc94db8a8f04939953c065b4b603bc4f768487e7d2e7bfc9ec2702200368ba9b6d1a9a5b3a43240091ec42e50055c34b889d035a535f77ea9c933cfc0121020840c3595798614a229d786ce13463db91a4f3b1cf17b7dd921acd8ab9b6900602483045022100d224ee36853800ee0d1f918ec69724aa272c9b236e43d3d67ee80147b3cee7c102204c8282ddd40d8de0a47ee89e8e501b4651b655f90e4033c932e4d9710a48d772012103c8d8c63eb924ed7323f8ef9f96aa7c1d92e8e1bdb09da5ee90b4e27ca06c1011024830450221009ff42a2e8554d7267c43d7733f87e780f6b4d6aa44fb7bc140311ea169d8d485022021f18ab7c553533b7c0c8ee9d7fe8f1a899fdb286eb5f36f7babcb148dab2fbf012103e206664fe0d663107eaf130f379b11ca89fa80fc55b4fde7f687a2f370b9cb2c02473044022059185a0da70ec677e854a7c9ac2b91527d0fa5a010c2e0a8ff76ec2812ea81ab02201f0dddf8b8e6980df312fd9e7da33a9d57ce7d663cf235d1ad19a292845b11c8012103ee9122c63652f12290303145814046d488e8699cf92b4d16f5acfab36fb1919902483045022100f22506f9bf650be2a97f5fa7d39acaa76b6154f68cca07256c7c2eb081331e7502201e6708ec9b89ce2fb5ecf076b5825c46601729a4efe026e1f522706c1389e23601210357f12ae1200de23d8f9f659e2751554cca62e88af1bd136ae18af526bed06b1a02483045022100f7e3966768af13cea4efff442ab2313c6442ab9fbd2dd894e41499c4cdabb6c802205b6dfd2144fbf7942f64c0d5eb020005a63a8d7dd568cabac7b2eaefdad70e4601210221a47cdb1df834e604d49ce29497c00a12d0daec0ae8a10a6ce689780b05085300000000", "vin": [{"txinwitness": ["304402206fe443038d7393e6aa9dd6f9186d0ecc19d58115b852b2b056f8f0e9e680949102202f3af9bb52ec161899a2c34d84a7bcf6c16d04ea2e9563ecc3eff4909ede438101", "020c8bc5d9479f68874c510c10916fe11fb8e9e5a6974dc8cc2ed1e1bee00b4f9b"], "sequence": 4294967295, "scriptSig": {"hex": "160014b558b3fca5d9247039b785a345f9e3a107746ee2", "asm": "0014b558b3fca5d9247039b785a345f9e3a107746ee2"}, "vout": 2, "txid": "7ac313337b3a5552ceec18cce920b7ac8890ee99350b2d9d485c2b14b92b5ac1"}, {"txinwitness": ["304402207c81d1416626b8011ae90c5f88a7cbf7c8878171609268d55ed222dde341c18a022019810ccc02eaf19c710c4b48dc2fbd19f89b27c1b105127f627611da2f7a4d4e01", "02a980b746f1b612922c507cc64235572820c3733a504e02d182eada5b1f996409"], "sequence": 4294967295, "scriptSig": {"hex": "160014b48b899f1e0543da7cbe677dad3c42c890497fb1", "asm": "0014b48b899f1e0543da7cbe677dad3c42c890497fb1"}, "vout": 5, "txid": "fb4888b61838b90bdcf849bbaf1af8b526a1b709ec580714e1175e62cb78d1a2"}, {"txinwitness": ["304502210081f912fe20cdfd47fe298d81555d765c9bba0e0c7127aeb133e3c3630272e45d02201a235a3453e6865da4af2b9293d50b6529cac2e7a37c533235cf6d32c3552fc801", "03e206664fe0d663107eaf130f379b11ca89fa80fc55b4fde7f687a2f370b9cb2c"], "sequence": 4294967295, "scriptSig": {"hex": "1600148e428bf31c5691acabf0edc547fee911d82ddc7a", "asm": "00148e428bf31c5691acabf0edc547fee911d82ddc7a"}, "vout": 71, "txid": "25284a43151ee834c06a442659b24ff0baa34d10acbdb105e6df3ba453d01910"}, {"txinwitness": ["304502210083681f537c0d40cc3f95088b846b3609b5e8258dfe546a4539d5bf62465f830b02202a1a99ce587be6864a0f9ad88b952a258c96042efdf8a6c5c1fc09eb72e006db01", "03bfe681f7a907961afd12adbaa061f286659b96c56272c8ab8a0fb6e3a8934d10"], "sequence": 4294967295, "scriptSig": {"hex": "160014491879954774309a3a7d0c063086764963802d49", "asm": "0014491879954774309a3a7d0c063086764963802d49"}, "vout": 1, "txid": "3638b8510b3f7d7e4f7b236207b878058f78b34ed20e48e8690e8e11c2d8afcd"}, {"txinwitness": ["30440220419bf8c1fa39c5886ae35f81482861fc6ebaddeb5f8b148331eca3846c6c76de022063c6e1cd02f0f5ade51f7be1743ae4d0f9c21f8aa6bd0100a815792817523c5301", "02b7433100e5208f89f270065c4e17ced337e8ffec6cb1acb16645754a543765bb"], "sequence": 4294967295, "scriptSig": {"hex": "160014bad4e09aff8f6934e83bd8a1fcd67f0c6f3086f6", "asm": "0014bad4e09aff8f6934e83bd8a1fcd67f0c6f3086f6"}, "vout": 21, "txid": "e459cd6a2cc0682dfb842a5c8ddfbe5ae8a6d1262b5efa2160e942b4f5bf5d6c"}, {"txinwitness": ["304402200a9e124e25e00eb1b11aa2859b3748873ac5a584c98561a2054e42b704f7bd1602207b4b83b3b4b6666773a159152fb100c62309c6670e35bfa035626ba6783680ec01", "03523c1c5a34d2732b2e90de3221cf12b30cf36628090f6e95c34a53b8847e57fb"], "sequence": 4294967295, "scriptSig": {"hex": "160014e6b9c5d6261ecf28094bd53f3fef636e2350f5f6", "asm": "0014e6b9c5d6261ecf28094bd53f3fef636e2350f5f6"}, "vout": 11, "txid": "4eb930f7b96f680c96968ae408be3202835a6f9bbe42ab8cfb627eff50b53749"}, {"txinwitness": ["3044022062a67e5d94861b5d6a43b995ae11cc8913f4958a3067e1b69f846ccdf1d63bdc0220184f729866fea19cf8a235b476114f6a63b4d7077ef99931dde3d59f38b5acf801", "0285ad0cd8a09155adffe4d6f615ec6aeef8ef54dda828dff59d7e9668b4bbfa4c"], "sequence": 4294967295, "scriptSig": {"hex": "160014c0b575177badbe3ad8d8d58cdf2c3dbb46b9f0aa", "asm": "0014c0b575177badbe3ad8d8d58cdf2c3dbb46b9f0aa"}, "vout": 14, "txid": "4eb930f7b96f680c96968ae408be3202835a6f9bbe42ab8cfb627eff50b53749"}, {"txinwitness": ["30440220245c665f7ff1c48d861d1de5386609bb412ac2ca558d26db458be563c68d850a022059832f90071295c694343c12ff177c6cc203b72f2ef8d660a3f703f5cbc1609701", "03f6ca64e105255afb897c7cf3ca5e68422fc5a68c03848369dea4d0bbf8616b9e"], "sequence": 4294967295, "scriptSig": {"hex": "16001447534693251d76efe582307d1dafe38dcd01021b", "asm": "001447534693251d76efe582307d1dafe38dcd01021b"}, "vout": 0, "txid": "e7a6cd9d49b07b37888263ebc19457151f723ea5d360bae24fa782d5dc2451f6"}, {"txinwitness": ["304402203486041c69c03ec710e36b8aa1ec1a539f31bdc99ee3eed88d3e1e2e2c78f3050220456a1f1fe5b0b560cf0d90ff0ab3c8eea53fa051726e1f7c7b2588fbe151f5e801", "02674d60032b21c5dc67dfaf0cfdde09ccd73a619b4d293958443773c597129d8c"], "sequence": 4294967295, "scriptSig": {"hex": "1600142a6f9b65090f2938748359f21cca8a959a34ea86", "asm": "00142a6f9b65090f2938748359f21cca8a959a34ea86"}, "vout": 1, "txid": "2d7a358c6d355ebb9ea2a99b1e5d454ec6895072cfa7e68a31abb2505762ea83"}, {"txinwitness": ["30440220321651345000dc94db8a8f04939953c065b4b603bc4f768487e7d2e7bfc9ec2702200368ba9b6d1a9a5b3a43240091ec42e50055c34b889d035a535f77ea9c933cfc01", "020840c3595798614a229d786ce13463db91a4f3b1cf17b7dd921acd8ab9b69006"], "sequence": 4294967295, "scriptSig": {"hex": "16001416d8eb978a31b6a390fc24b470b089d7c23f03e8", "asm": "001416d8eb978a31b6a390fc24b470b089d7c23f03e8"}, "vout": 1, "txid": "916dece619de7541cd95dc87e750c46d8293291eea3abf9b941c309f5eda598a"}, {"txinwitness": ["3045022100d224ee36853800ee0d1f918ec69724aa272c9b236e43d3d67ee80147b3cee7c102204c8282ddd40d8de0a47ee89e8e501b4651b655f90e4033c932e4d9710a48d77201", "03c8d8c63eb924ed7323f8ef9f96aa7c1d92e8e1bdb09da5ee90b4e27ca06c1011"], "sequence": 4294967295, "scriptSig": {"hex": "1600146ffe1023c262bc63a7950ba684888443539a6fcd", "asm": "00146ffe1023c262bc63a7950ba684888443539a6fcd"}, "vout": 26, "txid": "4e45d1fd36c37691515e6733ab1467e33bc2adf279c70c4d04e457eb773e784f"}, {"txinwitness": ["30450221009ff42a2e8554d7267c43d7733f87e780f6b4d6aa44fb7bc140311ea169d8d485022021f18ab7c553533b7c0c8ee9d7fe8f1a899fdb286eb5f36f7babcb148dab2fbf01", "03e206664fe0d663107eaf130f379b11ca89fa80fc55b4fde7f687a2f370b9cb2c"], "sequence": 4294967295, "scriptSig": {"hex": "1600148e428bf31c5691acabf0edc547fee911d82ddc7a", "asm": "00148e428bf31c5691acabf0edc547fee911d82ddc7a"}, "vout": 71, "txid": "68cd955b29edd0c5bdc468017ceb5d35131edaeb3a79188a5b6af9e34356dbf4"}, {"txinwitness": ["3044022059185a0da70ec677e854a7c9ac2b91527d0fa5a010c2e0a8ff76ec2812ea81ab02201f0dddf8b8e6980df312fd9e7da33a9d57ce7d663cf235d1ad19a292845b11c801", "03ee9122c63652f12290303145814046d488e8699cf92b4d16f5acfab36fb19199"], "sequence": 4294967295, "scriptSig": {"hex": "160014ee56e492c828741162566a0c393d9077b1d914c7", "asm": "0014ee56e492c828741162566a0c393d9077b1d914c7"}, "vout": 0, "txid": "4deaff511dcae05d4d793bc47ff47090619790b88c92d73fc8993ad7542227d6"}, {"txinwitness": ["3045022100f22506f9bf650be2a97f5fa7d39acaa76b6154f68cca07256c7c2eb081331e7502201e6708ec9b89ce2fb5ecf076b5825c46601729a4efe026e1f522706c1389e23601", "0357f12ae1200de23d8f9f659e2751554cca62e88af1bd136ae18af526bed06b1a"], "sequence": 4294967295, "scriptSig": {"hex": "1600143b3d266999ad9d8c0b3c1f04c1d62442f0bf6a1b", "asm": "00143b3d266999ad9d8c0b3c1f04c1d62442f0bf6a1b"}, "vout": 0, "txid": "4a726c8e6e1d97f29a0a9ca31f5dfa152435e07d12ee7e75a17c8d5a0e475588"}, {"txinwitness": ["3045022100f7e3966768af13cea4efff442ab2313c6442ab9fbd2dd894e41499c4cdabb6c802205b6dfd2144fbf7942f64c0d5eb020005a63a8d7dd568cabac7b2eaefdad70e4601", "0221a47cdb1df834e604d49ce29497c00a12d0daec0ae8a10a6ce689780b050853"], "sequence": 4294967295, "scriptSig": {"hex": "16001431a2ce0c031351dd9c5dad168af8b76d65147419", "asm": "001431a2ce0c031351dd9c5dad168af8b76d65147419"}, "vout": 2, "txid": "52e8af2f09ac1010e184e9663cfc423e7e56877f239fbe63e68a898e692604fb"}], "txid": "f3dc7f969f6a88f0a3c6a4446c68b9e41b7fb67698bc7f35bcf31b41b90be2ed", "blocktime": 1537872018, "version": 1, "confirmations": 11489, "time": 1537872018, "locktime": 0, "vsize": 1540, "size": 2749}