{"hash": "f3df56ed6d9595858c3d1e59e3c946db8bb7a82f685b60774507f96957e2bbc2", "blockhash": "00000000000000000024a2167bbff67b0be802c0b01cdd79e6331c2be6459f87", "vout": [{"scriptPubKey": {"reqSigs": 1, "hex": "a9143a312e7dd489a6afa603e25b2c2c768c9fd1759c87", "addresses": ["36zi2sHvUC26VsvT8CsBgP8VYkRpJ2rfkU"], "asm": "OP_HASH160 3a312e7dd489a6afa603e25b2c2c768c9fd1759c OP_EQUAL", "type": "scripthash"}, "value": 0.08524, "n": 0}, {"scriptPubKey": {"reqSigs": 1, "hex": "76a914334ddb017e1ebeebe0dc1fcfbc57436a3665d32188ac", "addresses": ["15gGjH7JugBtocVuR7yKxjGePNhoaKa92j"], "asm": "OP_DUP OP_HASH160 334ddb017e1ebeebe0dc1fcfbc57436a3665d321 OP_EQUALVERIFY OP_CHECKSIG", "type": "pubkeyhash"}, "value": 1.7e-05, "n": 1}], "hex": "010000000156038c330fbf0c722766156e0dcaa6bd053142a6e3710b5406735e38d3a171d8000000006b483045022100d3522eecfb3e0b14d3d60e030bc2ffca11db2b9873d5107ae9f9aa7c1a389888022042166739ba61eb227ce870c4cefa2f9c4c389bc40b7cbaefb96fa71e0e65819e01210280af71349802aec2fab15d4434b305b9dcf35f7b6d35805e8443612c4a7e04b5ffffffff02e01082000000000017a9143a312e7dd489a6afa603e25b2c2c768c9fd1759c87a4060000000000001976a914334ddb017e1ebeebe0dc1fcfbc57436a3665d32188ac00000000", "vin": [{"sequence": 4294967295, "scriptSig": {"hex": "483045022100d3522eecfb3e0b14d3d60e030bc2ffca11db2b9873d5107ae9f9aa7c1a389888022042166739ba61eb227ce870c4cefa2f9c4c389bc40b7cbaefb96fa71e0e65819e01210280af71349802aec2fab15d4434b305b9dcf35f7b6d35805e8443612c4a7e04b5", "asm": "3045022100d3522eecfb3e0b14d3d60e030bc2ffca11db2b9873d5107ae9f9aa7c1a389888022042166739ba61eb227ce870c4cefa2f9c4c389bc40b7cbaefb96fa71e0e65819e[ALL] 0280af71349802aec2fab15d4434b305b9dcf35f7b6d35805e8443612c4a7e04b5"}, "vout": 0, "txid": "d871a1d3385e7306540b71e3a6423105bda6ca0d6e156627720cbf0f338c0356"}], "txid": "f3df56ed6d9595858c3d1e59e3c946db8bb7a82f685b60774507f96957e2bbc2", "blocktime": 1537870564, "version": 1, "confirmations": 11515, "time": 1537870564, "locktime": 0, "vsize": 224, "size": 224}