{"hash": "f3e7d68ecb703b2c8519c5188f8f4bba602c32d60a1feb0cbed130817d0ffd8e", "blockhash": "0000000000000000000e13cef7c366c0283d82e591d1acd082e914b08063cdf1", "vout": [{"scriptPubKey": {"reqSigs": 1, "hex": "0014adea34fb240a58f09b31cadd826da103695fc29e", "addresses": ["bc1q4h4rf7eypfv0pxe3etwcymdpqd54ls570j9fqz"], "asm": "0 adea34fb240a58f09b31cadd826da103695fc29e", "type": "witness_v0_keyhash"}, "value": 2.06e-05, "n": 0}, {"scriptPubKey": {"reqSigs": 1, "hex": "a914edc0b0f52cb0aa5d5988de0a9faa9ad425167d4987", "addresses": ["3PN8uRsnjGdcJfHBLe5LyAq7VgSsRHh4Dq"], "asm": "OP_HASH160 edc0b0f52cb0aa5d5988de0a9faa9ad425167d49 OP_EQUAL", "type": "scripthash"}, "value": 0.0030478, "n": 1}], "hex": "0100000001b662435d2adf766b16c17b2d0f92626be5d0a223a608ecb5ac7096db0460c156520000006a47304402201c14a9afab535b7bf213c4d4a41150d430078465785dc3f53ff719495dd0fd390220666b887e569632fce1403240c7358d1f04d0aa5a9f78c75cd224a91109ad35e9012102a1ec52707eed515528b30d88071ba7264be68945432cc45aecbbf888edf96729ffffffff020c08000000000000160014adea34fb240a58f09b31cadd826da103695fc29e8ca604000000000017a914edc0b0f52cb0aa5d5988de0a9faa9ad425167d498700000000", "vin": [{"sequence": 4294967295, "scriptSig": {"hex": "47304402201c14a9afab535b7bf213c4d4a41150d430078465785dc3f53ff719495dd0fd390220666b887e569632fce1403240c7358d1f04d0aa5a9f78c75cd224a91109ad35e9012102a1ec52707eed515528b30d88071ba7264be68945432cc45aecbbf888edf96729", "asm": "304402201c14a9afab535b7bf213c4d4a41150d430078465785dc3f53ff719495dd0fd390220666b887e569632fce1403240c7358d1f04d0aa5a9f78c75cd224a91109ad35e9[ALL] 02a1ec52707eed515528b30d88071ba7264be68945432cc45aecbbf888edf96729"}, "vout": 82, "txid": "56c16004db9670acb5ec08a623a2d0e56b62920f2d7bc1166b76df2a5d4362b6"}], "txid": "f3e7d68ecb703b2c8519c5188f8f4bba602c32d60a1feb0cbed130817d0ffd8e", "blocktime": 1537871767, "version": 1, "confirmations": 11495, "time": 1537871767, "locktime": 0, "vsize": 220, "size": 220}