{"hash": "9719c6565f3bae56b804d2cc7c755301f0a65c6e15ee1927b48b04fc99b88217", "blockhash": "0000000000000000000e13cef7c366c0283d82e591d1acd082e914b08063cdf1", "vout": [{"scriptPubKey": {"reqSigs": 1, "hex": "76a91497adebcca25d6288a592d601056c7cfb43f4ef4988ac", "addresses": ["1Eq1PDWVLnh4NXHf1M3b7xwEaUuLFCKRPg"], "asm": "OP_DUP OP_HASH160 97adebcca25d6288a592d601056c7cfb43f4ef49 OP_EQUALVERIFY OP_CHECKSIG", "type": "pubkeyhash"}, "value": 0.00041418, "n": 0}, {"scriptPubKey": {"reqSigs": 1, "hex": "a9141988a27e3c2df4ddee7fad5a2303d086179b2a3087", "addresses": ["3422VtS7UtCvXYxoXMVp6eZupR252z85oC"], "asm": "OP_HASH160 1988a27e3c2df4ddee7fad5a2303d086179b2a30 OP_EQUAL", "type": "scripthash"}, "value": 2.64341811, "n": 1}], "hex": "0100000000010198f023c7f4e775f47364da223cf3cbb95575be9b4fee3b9a2f7cbcd03c308aa5010000002322002065d416c48a8072e0ac51c2d111eb194f009caef0332446c1bf2097316cf07fa9ffffffff02caa10000000000001976a91497adebcca25d6288a592d601056c7cfb43f4ef4988ac3389c10f0000000017a9141988a27e3c2df4ddee7fad5a2303d086179b2a3087040048304502210098d5468cba8f0ee398c1db2f053e3701260fe734ea45f2528e398a24baf9eb3902206e80683655314997537b7606ca0d23fa112f191cd95a67afb7ff09527f8a7bc501483045022100b7a69fa8e7d57e78c23967dfe11dadd04e49683c7853b30642700d6a7b2ff94f022026664beb826e862ae515919589c18e8df96f4ff80b1936bc5644eb2709785bbf0169522102f44abcf9e23c9a460da309ccca56c619c04eed3bde2c2cff5e7d78fbcd980b9c2103c9443cf3047bb6c2c82f1b0c44c36109cdc3d0d601d16d1189a1602bf8d1a0a02103bfe867059274412412e088af5572b92168c2ef495cfe6c9b7a753a009eb37c4853ae00000000", "vin": [{"txinwitness": ["", "304502210098d5468cba8f0ee398c1db2f053e3701260fe734ea45f2528e398a24baf9eb3902206e80683655314997537b7606ca0d23fa112f191cd95a67afb7ff09527f8a7bc501", "3045022100b7a69fa8e7d57e78c23967dfe11dadd04e49683c7853b30642700d6a7b2ff94f022026664beb826e862ae515919589c18e8df96f4ff80b1936bc5644eb2709785bbf01", "522102f44abcf9e23c9a460da309ccca56c619c04eed3bde2c2cff5e7d78fbcd980b9c2103c9443cf3047bb6c2c82f1b0c44c36109cdc3d0d601d16d1189a1602bf8d1a0a02103bfe867059274412412e088af5572b92168c2ef495cfe6c9b7a753a009eb37c4853ae"], "sequence": 4294967295, "scriptSig": {"hex": "22002065d416c48a8072e0ac51c2d111eb194f009caef0332446c1bf2097316cf07fa9", "asm": "002065d416c48a8072e0ac51c2d111eb194f009caef0332446c1bf2097316cf07fa9"}, "vout": 1, "txid": "a58a303cd0bc7c2f9a3bee4f9bbe7555b9cbf33c22da6473f475e7f4c723f098"}], "txid": "f3e7c274a87d8cba7c948b0d82cf3465d8cd889a5aaf5189f9393b01a1f13b63", "blocktime": 1537871767, "version": 1, "confirmations": 11491, "time": 1537871767, "locktime": 0, "vsize": 216, "size": 408}