{"hash": "f3e9e4ec070b9e6d21405c7ae9f3c3b5f0f81af354649776105b0cab52034176", "blockhash": "00000000000000000017f5eb5941039fbcee6240d03bc1f2f8e35350df66a1d8", "vout": [{"scriptPubKey": {"reqSigs": 1, "hex": "76a9142fd3385943d6bcd89463598b967a78895c44752c88ac", "addresses": ["15Msnr7JbKcY7C2U8wPZNW5e2A4hBScdG6"], "asm": "OP_DUP OP_HASH160 2fd3385943d6bcd89463598b967a78895c44752c OP_EQUALVERIFY OP_CHECKSIG", "type": "pubkeyhash"}, "value": 5.46e-06, "n": 0}, {"scriptPubKey": {"reqSigs": 1, "hex": "a9143f4eecba122ad73039d481c8d37f99cb4f887cd887", "addresses": ["37Tm3Qz8Zw2VJrheUUhArDAoq58S6YrS3g"], "asm": "OP_HASH160 3f4eecba122ad73039d481c8d37f99cb4f887cd8 OP_EQUAL", "type": "scripthash"}, "value": 0.99966902, "n": 1}, {"scriptPubKey": {"type": "nulldata", "hex": "6a146f6d6e69000000000000001f000005d2f44da400", "asm": "OP_RETURN 6f6d6e69000000000000001f000005d2f44da400"}, "value": 0.0, "n": 2}], "hex": "0100000001c9503c6be9e9c9fc3abd68e5dfe67d2b16ae5c4dbc7940d9b24ecc26c12d2b2d01000000fdfe0000483045022100fe92896ef4450a2eccefd10fae41870a3d18a854be66bc807b2f729e57496c1f02204df4841320d76347a239fa19ca16e67e812a0c46ffd4adf99d299056f7d8bec0014830450221009d28d86eaf011beda240a01a372c727208036adf9b252ddd495981ae9f48d395022018985140cfb452c4a658311feeb1d9cc60b4a986853fd40cbc4a45c84d14bd3e014c6952210246ccf4de0c54cc7f3354cdd993c2c50cf965fd82238b89659fbd73a1b4bf05a121024fc59f72272a897fe43803374969f396058152fe4765a8d15216f94624257b1b21022593bc69ecbf3bbcc3c58082267cb49dadaf4ca8dbf1b2297338a9d628c4297653aeffffffff0322020000000000001976a9142fd3385943d6bcd89463598b967a78895c44752c88acb65ff5050000000017a9143f4eecba122ad73039d481c8d37f99cb4f887cd8870000000000000000166a146f6d6e69000000000000001f000005d2f44da40000000000", "vin": [{"sequence": 4294967295, "scriptSig": {"hex": "00483045022100fe92896ef4450a2eccefd10fae41870a3d18a854be66bc807b2f729e57496c1f02204df4841320d76347a239fa19ca16e67e812a0c46ffd4adf99d299056f7d8bec0014830450221009d28d86eaf011beda240a01a372c727208036adf9b252ddd495981ae9f48d395022018985140cfb452c4a658311feeb1d9cc60b4a986853fd40cbc4a45c84d14bd3e014c6952210246ccf4de0c54cc7f3354cdd993c2c50cf965fd82238b89659fbd73a1b4bf05a121024fc59f72272a897fe43803374969f396058152fe4765a8d15216f94624257b1b21022593bc69ecbf3bbcc3c58082267cb49dadaf4ca8dbf1b2297338a9d628c4297653ae", "asm": "0 3045022100fe92896ef4450a2eccefd10fae41870a3d18a854be66bc807b2f729e57496c1f02204df4841320d76347a239fa19ca16e67e812a0c46ffd4adf99d299056f7d8bec0[ALL] 30450221009d28d86eaf011beda240a01a372c727208036adf9b252ddd495981ae9f48d395022018985140cfb452c4a658311feeb1d9cc60b4a986853fd40cbc4a45c84d14bd3e[ALL] 52210246ccf4de0c54cc7f3354cdd993c2c50cf965fd82238b89659fbd73a1b4bf05a121024fc59f72272a897fe43803374969f396058152fe4765a8d15216f94624257b1b21022593bc69ecbf3bbcc3c58082267cb49dadaf4ca8dbf1b2297338a9d628c4297653ae"}, "vout": 1, "txid": "2d2b2dc126cc4eb2d94079bc4d5cae162b7de6dfe568bd3afcc9e9e96b3c50c9"}], "txid": "f3e9e4ec070b9e6d21405c7ae9f3c3b5f0f81af354649776105b0cab52034176", "blocktime": 1537874412, "version": 1, "confirmations": 11467, "time": 1537874412, "locktime": 0, "vsize": 404, "size": 404}