{"hash": "f3e96c1ec1a72bef287680e7dd080b374b4630ff99d919b875c9493f26856ffa", "blockhash": "0000000000000000001e0dab787dd257d1dbfcb92a98c2207d5e1078be1f4165", "vout": [{"scriptPubKey": {"reqSigs": 1, "hex": "a914aae1db6b102caf2c207a58b2d94bfb6c58a2e33387", "addresses": ["3HGZMyt4ohv751nRwQogGvbrEhQ8n62Q77"], "asm": "OP_HASH160 aae1db6b102caf2c207a58b2d94bfb6c58a2e333 OP_EQUAL", "type": "scripthash"}, "value": 0.0006538, "n": 0}, {"scriptPubKey": {"reqSigs": 1, "hex": "76a9142905c419f20f43091f8e4dfd328625c58d82ce1e88ac", "addresses": ["14jucVirzFU4YNPiuFdsGbQEvsSkpb8kKh"], "asm": "OP_DUP OP_HASH160 2905c419f20f43091f8e4dfd328625c58d82ce1e OP_EQUALVERIFY OP_CHECKSIG", "type": "pubkeyhash"}, "value": 0.03601797, "n": 1}], "hex": "02000000015d5808b210abd93a96f95db49324cc381dce64e4617133a7d791ac9e55ced782010000006b48304502210090107080c0e6525c38b27f53cbdc2e7c9c1f75425154d1ce010d659bd7eec9c5022025dd503ad3dae58e33a07addc8174ba36b4e13194566b4e895f0380716656081012102553619577d3b092e0dbd1d1f75ca7faa85e1f576ca2891c8ff3bc04d72904356ffffffff0264ff00000000000017a914aae1db6b102caf2c207a58b2d94bfb6c58a2e3338785f53600000000001976a9142905c419f20f43091f8e4dfd328625c58d82ce1e88ac00000000", "vin": [{"sequence": 4294967295, "scriptSig": {"hex": "48304502210090107080c0e6525c38b27f53cbdc2e7c9c1f75425154d1ce010d659bd7eec9c5022025dd503ad3dae58e33a07addc8174ba36b4e13194566b4e895f0380716656081012102553619577d3b092e0dbd1d1f75ca7faa85e1f576ca2891c8ff3bc04d72904356", "asm": "304502210090107080c0e6525c38b27f53cbdc2e7c9c1f75425154d1ce010d659bd7eec9c5022025dd503ad3dae58e33a07addc8174ba36b4e13194566b4e895f0380716656081[ALL] 02553619577d3b092e0dbd1d1f75ca7faa85e1f576ca2891c8ff3bc04d72904356"}, "vout": 1, "txid": "82d7ce559eac91d7a7337161e464ce1d38cc2493b45df9963ad9ab10b208585d"}], "txid": "f3e96c1ec1a72bef287680e7dd080b374b4630ff99d919b875c9493f26856ffa", "blocktime": 1537872475, "version": 2, "confirmations": 11486, "time": 1537872475, "locktime": 0, "vsize": 224, "size": 224}