{"hash": "5d6f667e25668cc890febd368836eef2b91d87ade6b6306e77660468dfc812e4", "blockhash": "000000000000000000022b45ed06c6f4ccd3cf7fb5ba4856ebd2e58215665228", "vout": [{"scriptPubKey": {"reqSigs": 1, "hex": "76a9149104bd0bb59ac27f7ed9fa88b8c05d020d1a389788ac", "addresses": ["1EDnf3s7FFuuXH48jFHjWzeADz4B2gmzGK"], "asm": "OP_DUP OP_HASH160 9104bd0bb59ac27f7ed9fa88b8c05d020d1a3897 OP_EQUALVERIFY OP_CHECKSIG", "type": "pubkeyhash"}, "value": 0.23175035, "n": 0}, {"scriptPubKey": {"reqSigs": 1, "hex": "a9149006a7b7a20c3cbcf31a8d2c395143ed0c7c109487", "addresses": ["3EpZCaJSx12byWP4ubiP7Jq1DwnFoPJDNC"], "asm": "OP_HASH160 9006a7b7a20c3cbcf31a8d2c395143ed0c7c1094 OP_EQUAL", "type": "scripthash"}, "value": 21.85973985, "n": 1}], "hex": "0200000000010150f9d422c52e9a3e04719200bfad9338d45464da758ea7f0f75024c9720362bd0000000017160014eb5b37b04e1cae27c8a2522dc299e8c9a1b55979feffffff027b9f6101000000001976a9149104bd0bb59ac27f7ed9fa88b8c05d020d1a389788ace1504b820000000017a9149006a7b7a20c3cbcf31a8d2c395143ed0c7c1094870247304402205cd6a3cac86778d806958f1d461a316fea55dd409ef0d3f11bcea80d21306fbf022058bdfc0f7e645e60250c0daea78536ec9429dfa7c1803300d724b238e8b718f30121024eff30124fbb2ea3bbd4c336fb69d562055baefa3d25202a8db4564d31449b960b490800", "vin": [{"txinwitness": ["304402205cd6a3cac86778d806958f1d461a316fea55dd409ef0d3f11bcea80d21306fbf022058bdfc0f7e645e60250c0daea78536ec9429dfa7c1803300d724b238e8b718f301", "024eff30124fbb2ea3bbd4c336fb69d562055baefa3d25202a8db4564d31449b96"], "sequence": 4294967294, "scriptSig": {"hex": "160014eb5b37b04e1cae27c8a2522dc299e8c9a1b55979", "asm": "0014eb5b37b04e1cae27c8a2522dc299e8c9a1b55979"}, "vout": 0, "txid": "bd620372c92450f7f0a78e75da6454d43893adbf009271043e9a2ec522d4f950"}], "txid": "f3f1d278d3b9884ba6a2a822e8b832a68cd92ff58669015788342bdb0421cb96", "blocktime": 1537869901, "version": 2, "confirmations": 11522, "time": 1537869901, "locktime": 542987, "vsize": 168, "size": 249}