{"hash": "f3f1b404e8f37f009804550889ce3f4dc196dbfffc3513f410097957ed615f4b", "blockhash": "0000000000000000001e0dab787dd257d1dbfcb92a98c2207d5e1078be1f4165", "vout": [{"scriptPubKey": {"reqSigs": 1, "hex": "76a91480a66cc005e1bba318dbdf249e1a4f000b8b873188ac", "addresses": ["1CjErxF6tSr4LZYbaAjBX6mnhCmZHYnwL9"], "asm": "OP_DUP OP_HASH160 80a66cc005e1bba318dbdf249e1a4f000b8b8731 OP_EQUALVERIFY OP_CHECKSIG", "type": "pubkeyhash"}, "value": 0.0216364, "n": 0}, {"scriptPubKey": {"reqSigs": 1, "hex": "76a914ac08fb93359194d4ebcc905846b9da002c42a45d88ac", "addresses": ["1Ggdz8Es8ueEWba5Z9cXE3K9VtTu4SRx9r"], "asm": "OP_DUP OP_HASH160 ac08fb93359194d4ebcc905846b9da002c42a45d OP_EQUALVERIFY OP_CHECKSIG", "type": "pubkeyhash"}, "value": 0.00959756, "n": 1}], "hex": "020000000253093ad941aabb891b0e7cdd69db49f9a78d67da3ba92759478058884c25719d000000006a473044022056d0438a8f2afd3c2d60d2b88422b3b10812be300aa65c0ceabfbfffc8e75025022025162f819c2abcfe60092a714fb26deea85694bac761da674fc52d9523f15cc00121022a23b019f1c668e5bc31f554b5378fb010150cdf9447c2fe413646156bfe8ff9feffffffe55e6a4f95e120ee6e05e5f69add53b8b770f9edd7b62853eb1229be5e87c312000000006a47304402206a084855ddac820860255b300eb27a96862256ce44eaaca58c6db90cd95ef8b802205418e5e8828dc57310a371b4aa474e866f7c2bc3c103ed5f3e6f051f04b1a7a6012103ae6b4e2a7be0d8a09b89082008e4870240fc7a55a6891be3846a0da1729119f7feffffff02b8032100000000001976a91480a66cc005e1bba318dbdf249e1a4f000b8b873188ac0ca50e00000000001976a914ac08fb93359194d4ebcc905846b9da002c42a45d88ac12490800", "vin": [{"sequence": 4294967294, "scriptSig": {"hex": "473044022056d0438a8f2afd3c2d60d2b88422b3b10812be300aa65c0ceabfbfffc8e75025022025162f819c2abcfe60092a714fb26deea85694bac761da674fc52d9523f15cc00121022a23b019f1c668e5bc31f554b5378fb010150cdf9447c2fe413646156bfe8ff9", "asm": "3044022056d0438a8f2afd3c2d60d2b88422b3b10812be300aa65c0ceabfbfffc8e75025022025162f819c2abcfe60092a714fb26deea85694bac761da674fc52d9523f15cc0[ALL] 022a23b019f1c668e5bc31f554b5378fb010150cdf9447c2fe413646156bfe8ff9"}, "vout": 0, "txid": "9d71254c885880475927a93bda678da7f949db69dd7c0e1b89bbaa41d93a0953"}, {"sequence": 4294967294, "scriptSig": {"hex": "47304402206a084855ddac820860255b300eb27a96862256ce44eaaca58c6db90cd95ef8b802205418e5e8828dc57310a371b4aa474e866f7c2bc3c103ed5f3e6f051f04b1a7a6012103ae6b4e2a7be0d8a09b89082008e4870240fc7a55a6891be3846a0da1729119f7", "asm": "304402206a084855ddac820860255b300eb27a96862256ce44eaaca58c6db90cd95ef8b802205418e5e8828dc57310a371b4aa474e866f7c2bc3c103ed5f3e6f051f04b1a7a6[ALL] 03ae6b4e2a7be0d8a09b89082008e4870240fc7a55a6891be3846a0da1729119f7"}, "vout": 0, "txid": "12c3875ebe2912eb5328b6d7edf970b7b853dd9af6e5056eee20e1954f6a5ee5"}], "txid": "f3f1b404e8f37f009804550889ce3f4dc196dbfffc3513f410097957ed615f4b", "blocktime": 1537872475, "version": 2, "confirmations": 11486, "time": 1537872475, "locktime": 542994, "vsize": 372, "size": 372}