{"hash": "f37fcd00562c96c100bed5ca5696efc6d1e13b9947869e424a9aa8c1a15f5cac", "blockhash": "0000000000000000001f0ddff1eddb255c1121bcd4da4f1bc9a0da00cae72433", "vout": [{"scriptPubKey": {"reqSigs": 1, "hex": "76a91408057032b11fe9cd74aa2f754bec1bd6d528c5f688ac", "addresses": ["1jQvPmQTHSJQjkSFZHqA3aV6ky2uMmpp1"], "asm": "OP_DUP OP_HASH160 08057032b11fe9cd74aa2f754bec1bd6d528c5f6 OP_EQUALVERIFY OP_CHECKSIG", "type": "pubkeyhash"}, "value": 0.03284, "n": 0}, {"scriptPubKey": {"reqSigs": 1, "hex": "001433f6c87db72e229da2cdb6a7347a130a2d8c53ac", "addresses": ["bc1qx0mvsldh9c3fmgkdk6nng7snpgkcc5avgq57dm"], "asm": "0 33f6c87db72e229da2cdb6a7347a130a2d8c53ac", "type": "witness_v0_keyhash"}, "value": 0.00200428, "n": 1}], "hex": "01000000000101b9a9b9036f956aa7a5d8fc2faaa888f19da3ff57b1528f0b0cf605059950eb6959000000171600148039824b5ae7086c3cc9717d06cecab865fdd6a6ffffffff02201c3200000000001976a91408057032b11fe9cd74aa2f754bec1bd6d528c5f688acec0e03000000000016001433f6c87db72e229da2cdb6a7347a130a2d8c53ac02483045022100cf8758f6b4fbcb949eb626f5a2915e9a1e1d50f32e14af8757ff984ef0140d1802200836e350235434a4cea1b072671e733545fc8fba6f67e008721a6265e6adcc5f01210261dbe0e23041930341462f4dfbd5496581e08846776b429fc6b3a632fd5e986500000000", "vin": [{"txinwitness": ["3045022100cf8758f6b4fbcb949eb626f5a2915e9a1e1d50f32e14af8757ff984ef0140d1802200836e350235434a4cea1b072671e733545fc8fba6f67e008721a6265e6adcc5f01", "0261dbe0e23041930341462f4dfbd5496581e08846776b429fc6b3a632fd5e9865"], "sequence": 4294967295, "scriptSig": {"hex": "1600148039824b5ae7086c3cc9717d06cecab865fdd6a6", "asm": "00148039824b5ae7086c3cc9717d06cecab865fdd6a6"}, "vout": 89, "txid": "69eb50990505f60c0b8f52b157ffa39df188a8aa2ffcd8a5a76a956f03b9a9b9"}], "txid": "f3f26478084747469d4575ae2c256110c7884a1d400268ed6fe733df3217706b", "blocktime": 1537872018, "version": 1, "confirmations": 11489, "time": 1537872018, "locktime": 0, "vsize": 167, "size": 249}