{"hash": "f3f83b6f40647faf5aa84ba548101da44a915296e5faed230ab809ec4de445b4", "blockhash": "0000000000000000001cda96e906b7601b7a6fb1a3b62bca570a9e5d8f4b3de1", "vout": [{"scriptPubKey": {"reqSigs": 1, "hex": "a9140f9e107eea23fc64a222d520aba5ec469c66259487", "addresses": ["337bQvwTgXgmsEWbhgTJnvB54RVe2WhSxa"], "asm": "OP_HASH160 0f9e107eea23fc64a222d520aba5ec469c662594 OP_EQUAL", "type": "scripthash"}, "value": 1e-05, "n": 0}, {"scriptPubKey": {"reqSigs": 1, "hex": "76a9144bd27e544b94e0efcacafd1b19b1853be77f1ca188ac", "addresses": ["17uuqjMWw3EkirKfCk4KFjcYpokh8T9aq9"], "asm": "OP_DUP OP_HASH160 4bd27e544b94e0efcacafd1b19b1853be77f1ca1 OP_EQUALVERIFY OP_CHECKSIG", "type": "pubkeyhash"}, "value": 2.102e-05, "n": 1}], "hex": "01000000018e9acb26c810a9e496706705555e32d46b47798654ab3027ac10ef8b48d49529000000006b483045022100a39c5693263a599594ca210b167e74352ecd8122800ba6b16b59fd3e43e1fd1602204259a683840f5e32af3de6dc47bfa4f41ca4ed98143651b11e931bad56e70ab80121036d9bbd4421e6f625b8026979a6c6b1fa9e2f95d9fa118a08d70be10c4680d17bffffffff02e80300000000000017a9140f9e107eea23fc64a222d520aba5ec469c6625948736080000000000001976a9144bd27e544b94e0efcacafd1b19b1853be77f1ca188ac00000000", "vin": [{"sequence": 4294967295, "scriptSig": {"hex": "483045022100a39c5693263a599594ca210b167e74352ecd8122800ba6b16b59fd3e43e1fd1602204259a683840f5e32af3de6dc47bfa4f41ca4ed98143651b11e931bad56e70ab80121036d9bbd4421e6f625b8026979a6c6b1fa9e2f95d9fa118a08d70be10c4680d17b", "asm": "3045022100a39c5693263a599594ca210b167e74352ecd8122800ba6b16b59fd3e43e1fd1602204259a683840f5e32af3de6dc47bfa4f41ca4ed98143651b11e931bad56e70ab8[ALL] 036d9bbd4421e6f625b8026979a6c6b1fa9e2f95d9fa118a08d70be10c4680d17b"}, "vout": 0, "txid": "2995d4488bef10ac2730ab548679476bd4325e5505677096e4a910c826cb9a8e"}], "txid": "f3f83b6f40647faf5aa84ba548101da44a915296e5faed230ab809ec4de445b4", "blocktime": 1537873282, "version": 1, "confirmations": 11485, "time": 1537873282, "locktime": 0, "vsize": 224, "size": 224}