{"hash": "f3fd90256e677762619ac5d1786fd7dd0a6f7faa5913d9857ca6a9f7034cd9cf", "blockhash": "00000000000000000024a2167bbff67b0be802c0b01cdd79e6331c2be6459f87", "vout": [{"scriptPubKey": {"reqSigs": 1, "hex": "a914943405835ed9ebbc2ef71c3ccf7634b940b05f0587", "addresses": ["3FCeFTJcyacspd6UvdLZZKquijc7zbRMZm"], "asm": "OP_HASH160 943405835ed9ebbc2ef71c3ccf7634b940b05f05 OP_EQUAL", "type": "scripthash"}, "value": 0.01559938, "n": 0}, {"scriptPubKey": {"reqSigs": 1, "hex": "76a91496604d36b179ad823b9bba25b055fcc2810b587988ac", "addresses": ["1Ei7ivqEqQWm8QasKRUJ7TFdwVTNQhSavN"], "asm": "OP_DUP OP_HASH160 96604d36b179ad823b9bba25b055fcc2810b5879 OP_EQUALVERIFY OP_CHECKSIG", "type": "pubkeyhash"}, "value": 0.18125027, "n": 1}], "hex": "0100000001946904be3127b6a369fc7e293e7ff781abefecca97bf9d64177f4b2561f72487030000006a473044022004d24eef91fdc12c57e334620888f9357a2f71da6223bd669ec7fcb4f3207b5102207ad4c0b95a834aeb5940b392d4226fdcb82cbc3073d9ea69191ca613b6b5b8f4012103e9ed77955d637ab36cbb9564e1e5018510f539886f14274be623806971aa2ff4ffffffff0282cd17000000000017a914943405835ed9ebbc2ef71c3ccf7634b940b05f0587e3901401000000001976a91496604d36b179ad823b9bba25b055fcc2810b587988ac00000000", "vin": [{"sequence": 4294967295, "scriptSig": {"hex": "473044022004d24eef91fdc12c57e334620888f9357a2f71da6223bd669ec7fcb4f3207b5102207ad4c0b95a834aeb5940b392d4226fdcb82cbc3073d9ea69191ca613b6b5b8f4012103e9ed77955d637ab36cbb9564e1e5018510f539886f14274be623806971aa2ff4", "asm": "3044022004d24eef91fdc12c57e334620888f9357a2f71da6223bd669ec7fcb4f3207b5102207ad4c0b95a834aeb5940b392d4226fdcb82cbc3073d9ea69191ca613b6b5b8f4[ALL] 03e9ed77955d637ab36cbb9564e1e5018510f539886f14274be623806971aa2ff4"}, "vout": 3, "txid": "8724f761254b7f17649dbf97caecefab81f77f3e297efc69a3b62731be046994"}], "txid": "f3fd90256e677762619ac5d1786fd7dd0a6f7faa5913d9857ca6a9f7034cd9cf", "blocktime": 1537870564, "version": 1, "confirmations": 11515, "time": 1537870564, "locktime": 0, "vsize": 223, "size": 223}