{"hash": "f4003e3327ef25178a26f95cd5809e060180d2836d27a9ca46d2dbab99f46deb", "blockhash": "00000000000000000004ffacab907a6b429b9a5745fa0b75af4234bf69dd7176", "vout": [{"scriptPubKey": {"reqSigs": 1, "hex": "76a914429b500c69846b30f4ababf1751fa370362cb67388ac", "addresses": ["175Beyb6H56mX2367orxawGc6hNpwMrbHn"], "asm": "OP_DUP OP_HASH160 429b500c69846b30f4ababf1751fa370362cb673 OP_EQUALVERIFY OP_CHECKSIG", "type": "pubkeyhash"}, "value": 0.25775332, "n": 0}, {"scriptPubKey": {"reqSigs": 1, "hex": "76a914eb2143654de578423b84e0ac0699dd107a6061fb88ac", "addresses": ["1NSFeFdgyy8aCDtsrRawVo8GfP9YTnevod"], "asm": "OP_DUP OP_HASH160 eb2143654de578423b84e0ac0699dd107a6061fb OP_EQUALVERIFY OP_CHECKSIG", "type": "pubkeyhash"}, "value": 1.562028, "n": 1}], "hex": "01000000035f8cfe6d01cb450952f1f9f75dc10199b28379576c6a4a86942e96f871f55222000000006b4830450221008903e2ee48983379a66a750cc19704bbd4c6880698bda6210acbdc3fd21808f0022034e2673d393e85cb8cea970de2c22d813c36af92fe94cad14494c522dca7d7f10121032f819b4817f6017d8171135041b26ff801337a2717bc89d49d71a6d3fad2cae4ffffffff54550f5b4b18ac2e99f4888608348989fb4e332cd58a447a9bbc959c0754444d000000006b483045022100f246632c775d81e05a4c221f9040f20854fa1617005b7d51bffc3df3d8ebf91e02206eb2db09733980b2912c8ff9b3d9a8632ed707395f9a4ce4310ad9fe749aa1f0012102c6fe8bbce7bd1d69c00d4c43d25923cec2448cfb080f8348ce795348dd3a9cfafffffffff42aae7fcea361b4c264defa3151283e16b43070963cef810991de2106e5d6d3000000006b483045022100fa0f1c0827a6800a59ec0428298555970f0f4e94d85978fdc1e608b3fbc54bfc0220262c81d85696416c91028b66da163f548923fb396074d5807ddc3e17f7d312e0012102faef4ea7b83a889caf03cb6aee2e024bc6df21aff4246b8de5a0a7fc395dd7fbffffffff02e44c8901000000001976a914429b500c69846b30f4ababf1751fa370362cb67388ac30774f09000000001976a914eb2143654de578423b84e0ac0699dd107a6061fb88ac00000000", "vin": [{"sequence": 4294967295, "scriptSig": {"hex": "4830450221008903e2ee48983379a66a750cc19704bbd4c6880698bda6210acbdc3fd21808f0022034e2673d393e85cb8cea970de2c22d813c36af92fe94cad14494c522dca7d7f10121032f819b4817f6017d8171135041b26ff801337a2717bc89d49d71a6d3fad2cae4", "asm": "30450221008903e2ee48983379a66a750cc19704bbd4c6880698bda6210acbdc3fd21808f0022034e2673d393e85cb8cea970de2c22d813c36af92fe94cad14494c522dca7d7f1[ALL] 032f819b4817f6017d8171135041b26ff801337a2717bc89d49d71a6d3fad2cae4"}, "vout": 0, "txid": "2252f571f8962e94864a6a6c577983b29901c15df7f9f1520945cb016dfe8c5f"}, {"sequence": 4294967295, "scriptSig": {"hex": "483045022100f246632c775d81e05a4c221f9040f20854fa1617005b7d51bffc3df3d8ebf91e02206eb2db09733980b2912c8ff9b3d9a8632ed707395f9a4ce4310ad9fe749aa1f0012102c6fe8bbce7bd1d69c00d4c43d25923cec2448cfb080f8348ce795348dd3a9cfa", "asm": "3045022100f246632c775d81e05a4c221f9040f20854fa1617005b7d51bffc3df3d8ebf91e02206eb2db09733980b2912c8ff9b3d9a8632ed707395f9a4ce4310ad9fe749aa1f0[ALL] 02c6fe8bbce7bd1d69c00d4c43d25923cec2448cfb080f8348ce795348dd3a9cfa"}, "vout": 0, "txid": "4d4454079c95bc9b7a448ad52c334efb898934088688f4992eac184b5b0f5554"}, {"sequence": 4294967295, "scriptSig": {"hex": "483045022100fa0f1c0827a6800a59ec0428298555970f0f4e94d85978fdc1e608b3fbc54bfc0220262c81d85696416c91028b66da163f548923fb396074d5807ddc3e17f7d312e0012102faef4ea7b83a889caf03cb6aee2e024bc6df21aff4246b8de5a0a7fc395dd7fb", "asm": "3045022100fa0f1c0827a6800a59ec0428298555970f0f4e94d85978fdc1e608b3fbc54bfc0220262c81d85696416c91028b66da163f548923fb396074d5807ddc3e17f7d312e0[ALL] 02faef4ea7b83a889caf03cb6aee2e024bc6df21aff4246b8de5a0a7fc395dd7fb"}, "vout": 0, "txid": "d3d6e50621de910981ef3c967030b4163e285131fade64c2b461a3ce7fae2af4"}], "txid": "f4003e3327ef25178a26f95cd5809e060180d2836d27a9ca46d2dbab99f46deb", "blocktime": 1537875543, "version": 1, "confirmations": 11464, "time": 1537875543, "locktime": 0, "vsize": 522, "size": 522}