{"hash": "126ce6452aeeb89645eedf8b2287d878c167292c02a288e378eab926bfcad940", "blockhash": "0000000000000000000baef3f32e3676a92c3b2e5da21b426e4f302fc371ce76", "vout": [{"scriptPubKey": {"reqSigs": 1, "hex": "76a9146907b205a6f6a64629611f11bdca2c89558f9d1888ac", "addresses": ["1AaMAq1xsodckYKFaJYrGSBBQNcSuTDZYe"], "asm": "OP_DUP OP_HASH160 6907b205a6f6a64629611f11bdca2c89558f9d18 OP_EQUALVERIFY OP_CHECKSIG", "type": "pubkeyhash"}, "value": 0.00395908, "n": 0}, {"scriptPubKey": {"reqSigs": 1, "hex": "a914cfaabfe8c271f99a4364b5197ba50c6cddb7adb987", "addresses": ["3Ld4M9RPwEG3VeQbHcC1PsKUndQL7VYLZP"], "asm": "OP_HASH160 cfaabfe8c271f99a4364b5197ba50c6cddb7adb9 OP_EQUAL", "type": "scripthash"}, "value": 0.16553841, "n": 1}], "hex": "0100000000010155bd84f8a9d09891809f7c8dad113fd4d27b23b5a5dd0b778d1d03fab66fbc3201000000232200202f7b4024602241b47d3306a6733d9889e4b6761d9f1cb82a18aa8b9ac4506e51ffffffff02840a0600000000001976a9146907b205a6f6a64629611f11bdca2c89558f9d1888ac7197fc000000000017a914cfaabfe8c271f99a4364b5197ba50c6cddb7adb9870400483045022100e3c1185f0abf4f0cae7721fc10af87bf0fd9a49848aef0ba564b113d51e183770220158fb74095d83520d06cff2831fdf9f3071c93723fde70c5a47d0894895358d201473044022023c6837161c754c23b0b0c5e468b22aa9c718e5bf9cb32d60cf715655ce14e090220642cc75a6a80c2edfb487295a230d82330e7ec0035b512637185cb89efaa80c20147522102973cd851fecff3a20f08377b072729f303801eee1b7678668338adcaec770ec221033e4af03ed09dbd8a417ba042650d5bd1db7f14f271a8f660974e3abf1fdfa4da52ae00000000", "vin": [{"txinwitness": ["", "3045022100e3c1185f0abf4f0cae7721fc10af87bf0fd9a49848aef0ba564b113d51e183770220158fb74095d83520d06cff2831fdf9f3071c93723fde70c5a47d0894895358d201", "3044022023c6837161c754c23b0b0c5e468b22aa9c718e5bf9cb32d60cf715655ce14e090220642cc75a6a80c2edfb487295a230d82330e7ec0035b512637185cb89efaa80c201", "522102973cd851fecff3a20f08377b072729f303801eee1b7678668338adcaec770ec221033e4af03ed09dbd8a417ba042650d5bd1db7f14f271a8f660974e3abf1fdfa4da52ae"], "sequence": 4294967295, "scriptSig": {"hex": "2200202f7b4024602241b47d3306a6733d9889e4b6761d9f1cb82a18aa8b9ac4506e51", "asm": "00202f7b4024602241b47d3306a6733d9889e4b6761d9f1cb82a18aa8b9ac4506e51"}, "vout": 1, "txid": "32bc6fb6fa031d8d770bdda5b5237bd2d43f11ad8d7c9f809198d0a9f884bd55"}], "txid": "f406e645d5110516b1ce59750bd52a4f49e70da759779b606c82e97717756383", "blocktime": 1537876114, "version": 1, "confirmations": 11462, "time": 1537876114, "locktime": 0, "vsize": 208, "size": 373}