{"hash": "f40b031d7fd48cc847f7eba8548d4148eb8d7c037851a2232b12c0b6adacafa8", "blockhash": "0000000000000000001cda96e906b7601b7a6fb1a3b62bca570a9e5d8f4b3de1", "vout": [{"scriptPubKey": {"reqSigs": 1, "hex": "a914d53f518a5ef292ce28c4488d06e068a75f5764bf87", "addresses": ["3M8ZhrLFCeEcScKWte54d8z2o8mESCJJBG"], "asm": "OP_HASH160 d53f518a5ef292ce28c4488d06e068a75f5764bf OP_EQUAL", "type": "scripthash"}, "value": 0.023744, "n": 0}, {"scriptPubKey": {"reqSigs": 1, "hex": "76a9146d15368c873687db5738b3f67961ab183765b07588ac", "addresses": ["1Awn4paR4RQqCwH2X7bgLTW3rbvdV9DGDK"], "asm": "OP_DUP OP_HASH160 6d15368c873687db5738b3f67961ab183765b075 OP_EQUALVERIFY OP_CHECKSIG", "type": "pubkeyhash"}, "value": 0.06489947, "n": 1}], "hex": "0100000001f1014a140bba8c7dedff8136d904248b2ff698e9d39d6ee2c803af1bb399ef97010000006a4730440220178eec2e586a1907dc41d8ebf41b36221d0131e3fe04d68a2dca45b8543cf0bf022034796b0f2dfc62e4d5156add080133f9e039e05f94f70c0f18e9bd1d41c63021012103d9eec0293ff984b40db18ef9b9b8214c5af5483f579c3a7c049eb081d6476f5bfdffffff02003b24000000000017a914d53f518a5ef292ce28c4488d06e068a75f5764bf875b076300000000001976a9146d15368c873687db5738b3f67961ab183765b07588ac13490800", "vin": [{"sequence": 4294967293, "scriptSig": {"hex": "4730440220178eec2e586a1907dc41d8ebf41b36221d0131e3fe04d68a2dca45b8543cf0bf022034796b0f2dfc62e4d5156add080133f9e039e05f94f70c0f18e9bd1d41c63021012103d9eec0293ff984b40db18ef9b9b8214c5af5483f579c3a7c049eb081d6476f5b", "asm": "30440220178eec2e586a1907dc41d8ebf41b36221d0131e3fe04d68a2dca45b8543cf0bf022034796b0f2dfc62e4d5156add080133f9e039e05f94f70c0f18e9bd1d41c63021[ALL] 03d9eec0293ff984b40db18ef9b9b8214c5af5483f579c3a7c049eb081d6476f5b"}, "vout": 1, "txid": "97ef99b31baf03c8e26e9dd3e998f62f8b2404d93681ffed7d8cba0b144a01f1"}], "txid": "f40b031d7fd48cc847f7eba8548d4148eb8d7c037851a2232b12c0b6adacafa8", "blocktime": 1537873282, "version": 1, "confirmations": 11484, "time": 1537873282, "locktime": 542995, "vsize": 223, "size": 223}