{"hash": "f40c9267da6b67e12b25923a77a5576808f2f5fb69f76571fbc9294fac4aa08a", "blockhash": "0000000000000000001f0ddff1eddb255c1121bcd4da4f1bc9a0da00cae72433", "vout": [{"scriptPubKey": {"reqSigs": 1, "hex": "76a914ba5a3f81ca5675b0a0507e50c5fd21a56afb26df88ac", "addresses": ["1HzLoE9E5tym55P7GahmfVVGT8B5bNa8kc"], "asm": "OP_DUP OP_HASH160 ba5a3f81ca5675b0a0507e50c5fd21a56afb26df OP_EQUALVERIFY OP_CHECKSIG", "type": "pubkeyhash"}, "value": 0.46859551, "n": 0}, {"scriptPubKey": {"reqSigs": 1, "hex": "76a9145a1ed25ec7913fd1c4081b05990b84f83cb980d688ac", "addresses": ["19DWjoHjTs1ewjWRw7fK7h4Wdyk3thZuoL"], "asm": "OP_DUP OP_HASH160 5a1ed25ec7913fd1c4081b05990b84f83cb980d6 OP_EQUALVERIFY OP_CHECKSIG", "type": "pubkeyhash"}, "value": 4.06237037, "n": 1}], "hex": "010000000113bf5ae6275f0174ced75a48d4c4a401a3fdb793c2c1066ac1c0a26f8764ff07010000006b48304502210080a2e39b1027c566bc493c7f1baa467c29cb65f6b5deaf9be9bac14f3865d82302204b35078a245cd03d5e5543723707a1a82445f1a5e1cda4e8e2ea31458ad43bc20121031cb138b5a71d9d31fa83a42b8f4006d9723aa82bef9356667c7c210f5a11b7a8ffffffff021f05cb02000000001976a914ba5a3f81ca5675b0a0507e50c5fd21a56afb26df88ac6daf3618000000001976a9145a1ed25ec7913fd1c4081b05990b84f83cb980d688ac00000000", "vin": [{"sequence": 4294967295, "scriptSig": {"hex": "48304502210080a2e39b1027c566bc493c7f1baa467c29cb65f6b5deaf9be9bac14f3865d82302204b35078a245cd03d5e5543723707a1a82445f1a5e1cda4e8e2ea31458ad43bc20121031cb138b5a71d9d31fa83a42b8f4006d9723aa82bef9356667c7c210f5a11b7a8", "asm": "304502210080a2e39b1027c566bc493c7f1baa467c29cb65f6b5deaf9be9bac14f3865d82302204b35078a245cd03d5e5543723707a1a82445f1a5e1cda4e8e2ea31458ad43bc2[ALL] 031cb138b5a71d9d31fa83a42b8f4006d9723aa82bef9356667c7c210f5a11b7a8"}, "vout": 1, "txid": "07ff64876fa2c0c16a06c1c293b7fda301a4c4d4485ad7ce74015f27e65abf13"}], "txid": "f40c9267da6b67e12b25923a77a5576808f2f5fb69f76571fbc9294fac4aa08a", "blocktime": 1537872018, "version": 1, "confirmations": 11489, "time": 1537872018, "locktime": 0, "vsize": 226, "size": 226}