{"hash": "f40d99ac2a49f04f0ee93d3b83ef1fd811b7c24863ca3c5a7fde6a37d8d54992", "blockhash": "0000000000000000001e0dab787dd257d1dbfcb92a98c2207d5e1078be1f4165", "vout": [{"scriptPubKey": {"reqSigs": 1, "hex": "76a91482b44305dc0199473d9651bf9c07760acc61dd7388ac", "addresses": ["1Cv6nkP8yH2gSo5UCyDHsNhNhrBRKZWpdc"], "asm": "OP_DUP OP_HASH160 82b44305dc0199473d9651bf9c07760acc61dd73 OP_EQUALVERIFY OP_CHECKSIG", "type": "pubkeyhash"}, "value": 0.10084451, "n": 0}, {"scriptPubKey": {"reqSigs": 1, "hex": "76a9145bc26fb1638b6215ef9287c8ac5c35a68e61ae3688ac", "addresses": ["19NBR8Q8mxGYW3QttLPphXdypnjffJonBW"], "asm": "OP_DUP OP_HASH160 5bc26fb1638b6215ef9287c8ac5c35a68e61ae36 OP_EQUALVERIFY OP_CHECKSIG", "type": "pubkeyhash"}, "value": 0.02449893, "n": 1}], "hex": "0100000001694c40afb88a588e355977d29aa4ea92118980e1093b7b46d6e2e95acdced1d6030000008b483045022100c02bb726701aa9234746e4dda1e2bdde91fe2ae5dd8f4c0ec47db624c51dac8f02206601a3265ed587c29ce81ea23b2a3fd390ca79633fb225f389355f54c40ab289014104f71e7b3febfa3c41a5d612bc84cbd76ad9334208673bf1b6b1e24e5ad21c6827b44f059b88c306ec7d4a71e0668b8c8531f411e545fbd66d58725a7f68449b5fffffffff0263e09900000000001976a91482b44305dc0199473d9651bf9c07760acc61dd7388ace5612500000000001976a9145bc26fb1638b6215ef9287c8ac5c35a68e61ae3688ac00000000", "vin": [{"sequence": 4294967295, "scriptSig": {"hex": "483045022100c02bb726701aa9234746e4dda1e2bdde91fe2ae5dd8f4c0ec47db624c51dac8f02206601a3265ed587c29ce81ea23b2a3fd390ca79633fb225f389355f54c40ab289014104f71e7b3febfa3c41a5d612bc84cbd76ad9334208673bf1b6b1e24e5ad21c6827b44f059b88c306ec7d4a71e0668b8c8531f411e545fbd66d58725a7f68449b5f", "asm": "3045022100c02bb726701aa9234746e4dda1e2bdde91fe2ae5dd8f4c0ec47db624c51dac8f02206601a3265ed587c29ce81ea23b2a3fd390ca79633fb225f389355f54c40ab289[ALL] 04f71e7b3febfa3c41a5d612bc84cbd76ad9334208673bf1b6b1e24e5ad21c6827b44f059b88c306ec7d4a71e0668b8c8531f411e545fbd66d58725a7f68449b5f"}, "vout": 3, "txid": "d6d1cecd5ae9e2d6467b3b09e180891192eaa49ad27759358e588ab8af404c69"}], "txid": "f40d99ac2a49f04f0ee93d3b83ef1fd811b7c24863ca3c5a7fde6a37d8d54992", "blocktime": 1537872475, "version": 1, "confirmations": 11486, "time": 1537872475, "locktime": 0, "vsize": 258, "size": 258}