{"hash": "f412546fb60d231ad7890d6b46ecbc338fe880f316e0918a8a6cd376354a95fd", "blockhash": "00000000000000000024a2167bbff67b0be802c0b01cdd79e6331c2be6459f87", "vout": [{"scriptPubKey": {"reqSigs": 1, "hex": "76a914389d4f883a4c11bdb79451b8d3740ab2b8b38ce988ac", "addresses": ["16AMHt27begYytRxxE4v2Dnu73zeiYcHo2"], "asm": "OP_DUP OP_HASH160 389d4f883a4c11bdb79451b8d3740ab2b8b38ce9 OP_EQUALVERIFY OP_CHECKSIG", "type": "pubkeyhash"}, "value": 0.02794108, "n": 0}], "hex": "0100000002826b931c73af811fc312f0fc28e0b87f3fc89dcc3c8ef31c31848e89a324a104000000006b483045022100d0b12c1fe20d555c9046935fb63a7f9eb2199a9a437ad6da3b7372ad62c2e4fc022046972c700a0cbb1addf36a41ab7735e63437d93eecd5f46910fbf274ad11c147012102de076cc5a89ddbac08cc04747086a03f8884af0ba492e8291adefa5f17219888feffffffa29127ed88ac78a9ba34d190368c8c0f5c63d3388c18ab418bec25738da98eec000000006b483045022100b1bac7508cdaca6d709ad5c45fe9018d5ed32bac9f56966f53a4c246bd88700c0220724ecee1b40d7a9763a2bea6680e760c70fa27b8c1d5f40b6c83202c16f1ed19012102bcf21f484e0046f257f99f6a4972afac6fe4f5baa207509eee640413039624d5feffffff017ca22a00000000001976a914389d4f883a4c11bdb79451b8d3740ab2b8b38ce988ac0d490800", "vin": [{"sequence": 4294967294, "scriptSig": {"hex": "483045022100d0b12c1fe20d555c9046935fb63a7f9eb2199a9a437ad6da3b7372ad62c2e4fc022046972c700a0cbb1addf36a41ab7735e63437d93eecd5f46910fbf274ad11c147012102de076cc5a89ddbac08cc04747086a03f8884af0ba492e8291adefa5f17219888", "asm": "3045022100d0b12c1fe20d555c9046935fb63a7f9eb2199a9a437ad6da3b7372ad62c2e4fc022046972c700a0cbb1addf36a41ab7735e63437d93eecd5f46910fbf274ad11c147[ALL] 02de076cc5a89ddbac08cc04747086a03f8884af0ba492e8291adefa5f17219888"}, "vout": 0, "txid": "04a124a3898e84311cf38e3ccc9dc83f7fb8e028fcf012c31f81af731c936b82"}, {"sequence": 4294967294, "scriptSig": {"hex": "483045022100b1bac7508cdaca6d709ad5c45fe9018d5ed32bac9f56966f53a4c246bd88700c0220724ecee1b40d7a9763a2bea6680e760c70fa27b8c1d5f40b6c83202c16f1ed19012102bcf21f484e0046f257f99f6a4972afac6fe4f5baa207509eee640413039624d5", "asm": "3045022100b1bac7508cdaca6d709ad5c45fe9018d5ed32bac9f56966f53a4c246bd88700c0220724ecee1b40d7a9763a2bea6680e760c70fa27b8c1d5f40b6c83202c16f1ed19[ALL] 02bcf21f484e0046f257f99f6a4972afac6fe4f5baa207509eee640413039624d5"}, "vout": 0, "txid": "ec8ea98d7325ec8b41ab188c38d3635c0f8c8c3690d134baa978ac88ed2791a2"}], "txid": "f412546fb60d231ad7890d6b46ecbc338fe880f316e0918a8a6cd376354a95fd", "blocktime": 1537870564, "version": 1, "confirmations": 11515, "time": 1537870564, "locktime": 542989, "vsize": 340, "size": 340}