{"hash": "f41239ea64f784242a03b36bf9771a3e0c38bafcfae69ecb0da4fef07f31f843", "blockhash": "0000000000000000000dcc0f55137456b1a82d3642486a52398922ac4d620174", "vout": [{"scriptPubKey": {"type": "nulldata", "hex": "6a4c500000777500018bdb47bcbefa6b8351586b4e86aeaeacb577c031fc3a016b46dc7dc7d096a6113f1ce4f05d25b7db32a4dfe90b7d5baa0941061473625010671ec288b2720c27cdda35b5f050e1b42260", "asm": "OP_RETURN 0000777500018bdb47bcbefa6b8351586b4e86aeaeacb577c031fc3a016b46dc7dc7d096a6113f1ce4f05d25b7db32a4dfe90b7d5baa0941061473625010671ec288b2720c27cdda35b5f050e1b42260"}, "value": 0.0, "n": 0}, {"scriptPubKey": {"reqSigs": 1, "hex": "76a914ce2cdcd36b49bc33a0884c44b5c5872df477b87388ac", "addresses": ["1Ko9wdGGxy9xUMbrb5X8axexMfN1XMM5MA"], "asm": "OP_DUP OP_HASH160 ce2cdcd36b49bc33a0884c44b5c5872df477b873 OP_EQUALVERIFY OP_CHECKSIG", "type": "pubkeyhash"}, "value": 0.001917, "n": 1}], "hex": "010000000118df86105acc8f4b2f6ba2ae640c9ac9b00be1c25146d895ac0c4b8e2e6e8f58000000006a47304402202d8b7bc8d350389d1cbb5536e99f541322b878fd9485fc316c783819afb7e7830220038e9c7862973220ebcede253b6891eefcceba89b2c6aa0086858696a4d0fc110121032f677e1cc690e05834f6aa0da1c1a5ccf6c583f7fd877953ce941883b1c25717ffffffff020000000000000000536a4c500000777500018bdb47bcbefa6b8351586b4e86aeaeacb577c031fc3a016b46dc7dc7d096a6113f1ce4f05d25b7db32a4dfe90b7d5baa0941061473625010671ec288b2720c27cdda35b5f050e1b42260d4ec0200000000001976a914ce2cdcd36b49bc33a0884c44b5c5872df477b87388ac00000000", "vin": [{"sequence": 4294967295, "scriptSig": {"hex": "47304402202d8b7bc8d350389d1cbb5536e99f541322b878fd9485fc316c783819afb7e7830220038e9c7862973220ebcede253b6891eefcceba89b2c6aa0086858696a4d0fc110121032f677e1cc690e05834f6aa0da1c1a5ccf6c583f7fd877953ce941883b1c25717", "asm": "304402202d8b7bc8d350389d1cbb5536e99f541322b878fd9485fc316c783819afb7e7830220038e9c7862973220ebcede253b6891eefcceba89b2c6aa0086858696a4d0fc11[ALL] 032f677e1cc690e05834f6aa0da1c1a5ccf6c583f7fd877953ce941883b1c25717"}, "vout": 0, "txid": "588f6e2e8e4b0cac95d84651c2e10bb0c99a0c64aea26b2f4b8fcc5a1086df18"}], "txid": "f41239ea64f784242a03b36bf9771a3e0c38bafcfae69ecb0da4fef07f31f843", "blocktime": 1537870268, "version": 1, "confirmations": 11516, "time": 1537870268, "locktime": 0, "vsize": 283, "size": 283}