{"hash": "f4128fefc90b7cec869da30c27c5b8093831c35f11fbd3b65f22d35e49855034", "blockhash": "0000000000000000001f76057863aec43deb6fa401d9628bb513d65a8098bfab", "vout": [{"scriptPubKey": {"reqSigs": 1, "hex": "a9141c2de0d1d56442a73d3da619cdb343e8de040f4a87", "addresses": ["34G1ob5TwZXJTZTq6ZPBzqMZ51LXAvJ8R3"], "asm": "OP_HASH160 1c2de0d1d56442a73d3da619cdb343e8de040f4a OP_EQUAL", "type": "scripthash"}, "value": 0.72848288, "n": 0}, {"scriptPubKey": {"reqSigs": 1, "hex": "a9146dd26e287346d85ec9631145efe6a4a48d18ac6b87", "addresses": ["3BhhfQZxHJnukySenSYLLpsRKWQR5wVrWH"], "asm": "OP_HASH160 6dd26e287346d85ec9631145efe6a4a48d18ac6b OP_EQUAL", "type": "scripthash"}, "value": 0.00046792, "n": 1}], "hex": "01000000026542ede26688fd8a209b8b587e2ed4b587d40c93ea60089b8a476a150742f3da03000000fdfe0000483045022100cb551ca6c8617a8cb9be0a8b969500e6aaa050a574d4ba966480049c78a14b0e022005e9ae61d22e68406838681e984473e71bd323d57e73e63a45f3d1f18ff5864301483045022100d0bc9bf6422e48c43308f2ffcb98a513ad5fc1c8444388ad9da213e2bd740286022046c2a7218cf5fac2aeb59be335a96696a460ab45d538119e16cb83abd79dea96014c695221031513ad52d5b89fe310b2ecf013424cce679328855e1529e99236bf4f51fc8c0721022e83880f5e727445ffb96dc11220bd98ad02e256ee185d79f74d978d3b3507ce2102597d1f87af2573a090114644579875b4aa6980eab4b735ec47ba9faf5b2f223553aeffffffff6542ede26688fd8a209b8b587e2ed4b587d40c93ea60089b8a476a150742f3da06000000fdfe0000483045022100d55231185497a56775bef073559527a3ab446a8096e2fe26d692c13aa3464fde02207e7d2025b9d5f132566f4101449ede453428e59d5e0998b5e5081e3c2e03e8e3014830450221009d3ec82f47d55d728a0c7e7178c9545a6fac6efa70bc43c9a0f4c05da6d868900220131e74fa71f289cf5d7e366ecfa6379120173d0cf03067865e957671f07b9c77014c6952210266f5aa5b4531ac22bb3b2b923fb86e36663f506ed0fd95f3748a01f560d2798a21038d5d948a34b368e985fd4651e194d55ee6e943f9e2f9d533a8e0439924d9c0842102873c36301a1701e781bca4958593c1a5b1099ddd414680ccd0e267b26506f59853aeffffffff02a09357040000000017a9141c2de0d1d56442a73d3da619cdb343e8de040f4a87c8b600000000000017a9146dd26e287346d85ec9631145efe6a4a48d18ac6b8700000000", "vin": [{"sequence": 4294967295, "scriptSig": {"hex": "00483045022100cb551ca6c8617a8cb9be0a8b969500e6aaa050a574d4ba966480049c78a14b0e022005e9ae61d22e68406838681e984473e71bd323d57e73e63a45f3d1f18ff5864301483045022100d0bc9bf6422e48c43308f2ffcb98a513ad5fc1c8444388ad9da213e2bd740286022046c2a7218cf5fac2aeb59be335a96696a460ab45d538119e16cb83abd79dea96014c695221031513ad52d5b89fe310b2ecf013424cce679328855e1529e99236bf4f51fc8c0721022e83880f5e727445ffb96dc11220bd98ad02e256ee185d79f74d978d3b3507ce2102597d1f87af2573a090114644579875b4aa6980eab4b735ec47ba9faf5b2f223553ae", "asm": "0 3045022100cb551ca6c8617a8cb9be0a8b969500e6aaa050a574d4ba966480049c78a14b0e022005e9ae61d22e68406838681e984473e71bd323d57e73e63a45f3d1f18ff58643[ALL] 3045022100d0bc9bf6422e48c43308f2ffcb98a513ad5fc1c8444388ad9da213e2bd740286022046c2a7218cf5fac2aeb59be335a96696a460ab45d538119e16cb83abd79dea96[ALL] 5221031513ad52d5b89fe310b2ecf013424cce679328855e1529e99236bf4f51fc8c0721022e83880f5e727445ffb96dc11220bd98ad02e256ee185d79f74d978d3b3507ce2102597d1f87af2573a090114644579875b4aa6980eab4b735ec47ba9faf5b2f223553ae"}, "vout": 3, "txid": "daf34207156a478a9b0860ea930cd487b5d42e7e588b9b208afd8866e2ed4265"}, {"sequence": 4294967295, "scriptSig": {"hex": "00483045022100d55231185497a56775bef073559527a3ab446a8096e2fe26d692c13aa3464fde02207e7d2025b9d5f132566f4101449ede453428e59d5e0998b5e5081e3c2e03e8e3014830450221009d3ec82f47d55d728a0c7e7178c9545a6fac6efa70bc43c9a0f4c05da6d868900220131e74fa71f289cf5d7e366ecfa6379120173d0cf03067865e957671f07b9c77014c6952210266f5aa5b4531ac22bb3b2b923fb86e36663f506ed0fd95f3748a01f560d2798a21038d5d948a34b368e985fd4651e194d55ee6e943f9e2f9d533a8e0439924d9c0842102873c36301a1701e781bca4958593c1a5b1099ddd414680ccd0e267b26506f59853ae", "asm": "0 3045022100d55231185497a56775bef073559527a3ab446a8096e2fe26d692c13aa3464fde02207e7d2025b9d5f132566f4101449ede453428e59d5e0998b5e5081e3c2e03e8e3[ALL] 30450221009d3ec82f47d55d728a0c7e7178c9545a6fac6efa70bc43c9a0f4c05da6d868900220131e74fa71f289cf5d7e366ecfa6379120173d0cf03067865e957671f07b9c77[ALL] 52210266f5aa5b4531ac22bb3b2b923fb86e36663f506ed0fd95f3748a01f560d2798a21038d5d948a34b368e985fd4651e194d55ee6e943f9e2f9d533a8e0439924d9c0842102873c36301a1701e781bca4958593c1a5b1099ddd414680ccd0e267b26506f59853ae"}, "vout": 6, "txid": "daf34207156a478a9b0860ea930cd487b5d42e7e588b9b208afd8866e2ed4265"}], "txid": "f4128fefc90b7cec869da30c27c5b8093831c35f11fbd3b65f22d35e49855034", "blocktime": 1537873891, "version": 1, "confirmations": 11475, "time": 1537873891, "locktime": 0, "vsize": 668, "size": 668}