{"hash": "bdeee5b9542422f31826068455d9e9ffa1a270fb9dde4b65bd6509f4492c7c1a", "blockhash": "00000000000000000024a2167bbff67b0be802c0b01cdd79e6331c2be6459f87", "vout": [{"scriptPubKey": {"reqSigs": 1, "hex": "a91413795f8967e709f54b3cccb77df13d7241293b5887", "addresses": ["33TzALzzuFGQK2pFFXCRAGB3ytF7WTZjGx"], "asm": "OP_HASH160 13795f8967e709f54b3cccb77df13d7241293b58 OP_EQUAL", "type": "scripthash"}, "value": 0.01000065, "n": 0}, {"scriptPubKey": {"reqSigs": 1, "hex": "76a9148d3ea1a917d300e0b527fa1e7ad4fc2222d9f33288ac", "addresses": ["1DsqJm5puCeVDWDfNDptpGHkVQrtG5a3aQ"], "asm": "OP_DUP OP_HASH160 8d3ea1a917d300e0b527fa1e7ad4fc2222d9f332 OP_EQUALVERIFY OP_CHECKSIG", "type": "pubkeyhash"}, "value": 0.0027196, "n": 1}], "hex": "0200000000010285e42465a359ba24661b348e62234d6177c9adc5efd7d6b02ec187d49c1b68c00600000017160014ceb8a2dda1c1ae6703a3589133c60560dff2d0b2feffffff8b7f5cf0dd16851f44f3679c5dbdfbef2776513233674726d90656798f2778030000000017160014ff339873991133cb097c265577597040f6beda71feffffff0281420f000000000017a91413795f8967e709f54b3cccb77df13d7241293b588758260400000000001976a9148d3ea1a917d300e0b527fa1e7ad4fc2222d9f33288ac02483045022100a7193704ba34be4cb74e9b8f1157e2f14dd9577b629b9825d771b44f41c255a702201629a55dd014089c428edb964f3256804c1d861b9142367ed09e761830ea2fed0121022cad8b3be29d07edae58b4c550743c53c0d7eb6aca1f9320400d114780ae68aa0247304402207c94f02b120fdf13e3d21a5c6a6797ff8a8739bae6c7455bcab382c44c9ac7ec022033d787e25acea371ba6c47d1fe42b52be16109246c470fdaefa09c74994202500121025d6c8b2552d04e5aa9e292e62fef5c8b799c9633552353caf9d1805d92154a470d490800", "vin": [{"txinwitness": ["3045022100a7193704ba34be4cb74e9b8f1157e2f14dd9577b629b9825d771b44f41c255a702201629a55dd014089c428edb964f3256804c1d861b9142367ed09e761830ea2fed01", "022cad8b3be29d07edae58b4c550743c53c0d7eb6aca1f9320400d114780ae68aa"], "sequence": 4294967294, "scriptSig": {"hex": "160014ceb8a2dda1c1ae6703a3589133c60560dff2d0b2", "asm": "0014ceb8a2dda1c1ae6703a3589133c60560dff2d0b2"}, "vout": 6, "txid": "c0681b9cd487c12eb0d6d7efc5adc977614d23628e341b6624ba59a36524e485"}, {"txinwitness": ["304402207c94f02b120fdf13e3d21a5c6a6797ff8a8739bae6c7455bcab382c44c9ac7ec022033d787e25acea371ba6c47d1fe42b52be16109246c470fdaefa09c749942025001", "025d6c8b2552d04e5aa9e292e62fef5c8b799c9633552353caf9d1805d92154a47"], "sequence": 4294967294, "scriptSig": {"hex": "160014ff339873991133cb097c265577597040f6beda71", "asm": "0014ff339873991133cb097c265577597040f6beda71"}, "vout": 0, "txid": "0378278f795606d92647673332517627effbbd5d9c67f3441f8516ddf05c7f8b"}], "txid": "f415328702a4108dec0ad38be9ba773cd72460da00732cf2ccdbb161d4ef94eb", "blocktime": 1537870564, "version": 2, "confirmations": 11515, "time": 1537870564, "locktime": 542989, "vsize": 259, "size": 421}