{"hash": "f4188ded693b19499f8178e51568cdefb0344f6bbc132d6933337edb0a372b23", "blockhash": "0000000000000000000dcc0f55137456b1a82d3642486a52398922ac4d620174", "vout": [{"scriptPubKey": {"reqSigs": 1, "hex": "76a914102d4252667ff8e1327fcd340b5a9f1b3ad62e6e88ac", "addresses": ["12UY2j2WpVPwUWJT9K6RxMWWugaBe3DNUK"], "asm": "OP_DUP OP_HASH160 102d4252667ff8e1327fcd340b5a9f1b3ad62e6e OP_EQUALVERIFY OP_CHECKSIG", "type": "pubkeyhash"}, "value": 0.0198, "n": 0}, {"scriptPubKey": {"reqSigs": 1, "hex": "76a9145757f855847731a67b5eeda688fbe7577dd82b4c88ac", "addresses": ["18xqAxSN7KGZg6PuaFaYnxCpdJyve4oaEj"], "asm": "OP_DUP OP_HASH160 5757f855847731a67b5eeda688fbe7577dd82b4c OP_EQUALVERIFY OP_CHECKSIG", "type": "pubkeyhash"}, "value": 0.21618686, "n": 1}], "hex": "010000000137d4e08c1b63d3b77f185b99470c50dca6bc80d04711144fc6c890880c694fbb010000006b483045022100e2badbb989d356fd70c6cbde8b5289d40dd61befe2d2f3f4f3f8a1c950e6b385022033e609ea7765d66d7eb035e7ebaac9dce9a2a919d26b5b58e357e836063e7d6c012103bbeedd7745b2cab4dfca4fc0d7a5685f8c676a4d2c5f0d4796442b5bb34b3f9cffffffff0260361e00000000001976a914102d4252667ff8e1327fcd340b5a9f1b3ad62e6e88acfedf4901000000001976a9145757f855847731a67b5eeda688fbe7577dd82b4c88ac00000000", "vin": [{"sequence": 4294967295, "scriptSig": {"hex": "483045022100e2badbb989d356fd70c6cbde8b5289d40dd61befe2d2f3f4f3f8a1c950e6b385022033e609ea7765d66d7eb035e7ebaac9dce9a2a919d26b5b58e357e836063e7d6c012103bbeedd7745b2cab4dfca4fc0d7a5685f8c676a4d2c5f0d4796442b5bb34b3f9c", "asm": "3045022100e2badbb989d356fd70c6cbde8b5289d40dd61befe2d2f3f4f3f8a1c950e6b385022033e609ea7765d66d7eb035e7ebaac9dce9a2a919d26b5b58e357e836063e7d6c[ALL] 03bbeedd7745b2cab4dfca4fc0d7a5685f8c676a4d2c5f0d4796442b5bb34b3f9c"}, "vout": 1, "txid": "bb4f690c8890c8c64f141147d080bca6dc500c47995b187fb7d3631b8ce0d437"}], "txid": "f4188ded693b19499f8178e51568cdefb0344f6bbc132d6933337edb0a372b23", "blocktime": 1537870268, "version": 1, "confirmations": 11518, "time": 1537870268, "locktime": 0, "vsize": 226, "size": 226}