{"hash": "f41c7b8b233282d2b29cb0cfeb2524c04ff2fbcdeb5f999c6d3a2053f6aa5501", "blockhash": "0000000000000000000dcc0f55137456b1a82d3642486a52398922ac4d620174", "vout": [{"scriptPubKey": {"reqSigs": 1, "hex": "76a9147f21a05a988c8a5ab9ad8b16e0611fe83eefec0b88ac", "addresses": ["1CbD6mLgW99G5KGwkJzkphVGv9oGPTskE8"], "asm": "OP_DUP OP_HASH160 7f21a05a988c8a5ab9ad8b16e0611fe83eefec0b OP_EQUALVERIFY OP_CHECKSIG", "type": "pubkeyhash"}, "value": 0.00508211, "n": 0}], "hex": "0100000002ce11549b470b4cb4a50dfead96c9eb38187a3025ab812c40e3a69ff6e7808410010000006a47304402204cddf11ccfaa5dc33d1a4ae31a0ad3048ec3da885fdcb2fb09a82155df217f6f022027ca9297e95fecb4e360e7510e4795ec09908b26dc6d2ee4c23451c1e621a10d012103b2f5038041f65cd3a18b94965fc719a8bcc5d849b3bc0a4a602d318debaa29adffffffff749dad86eca17c1db7078fe08204e82e6bf38f09b6c5ba7d9932c55112fc72e3010000006b483045022100cd34b3f388ec147f413f448324824e22485a8cef753dee460aa3588521ba0b250220753002ff557f958b651789d519cd20882242f769592440b8734c46988e52a698012103996c7022d86c28207846066e94041d6725a075dd47ffcfee5e47ed145cab2256ffffffff0133c10700000000001976a9147f21a05a988c8a5ab9ad8b16e0611fe83eefec0b88ac00000000", "vin": [{"sequence": 4294967295, "scriptSig": {"hex": "47304402204cddf11ccfaa5dc33d1a4ae31a0ad3048ec3da885fdcb2fb09a82155df217f6f022027ca9297e95fecb4e360e7510e4795ec09908b26dc6d2ee4c23451c1e621a10d012103b2f5038041f65cd3a18b94965fc719a8bcc5d849b3bc0a4a602d318debaa29ad", "asm": "304402204cddf11ccfaa5dc33d1a4ae31a0ad3048ec3da885fdcb2fb09a82155df217f6f022027ca9297e95fecb4e360e7510e4795ec09908b26dc6d2ee4c23451c1e621a10d[ALL] 03b2f5038041f65cd3a18b94965fc719a8bcc5d849b3bc0a4a602d318debaa29ad"}, "vout": 1, "txid": "108480e7f69fa6e3402c81ab25307a1838ebc996adfe0da5b44c0b479b5411ce"}, {"sequence": 4294967295, "scriptSig": {"hex": "483045022100cd34b3f388ec147f413f448324824e22485a8cef753dee460aa3588521ba0b250220753002ff557f958b651789d519cd20882242f769592440b8734c46988e52a698012103996c7022d86c28207846066e94041d6725a075dd47ffcfee5e47ed145cab2256", "asm": "3045022100cd34b3f388ec147f413f448324824e22485a8cef753dee460aa3588521ba0b250220753002ff557f958b651789d519cd20882242f769592440b8734c46988e52a698[ALL] 03996c7022d86c28207846066e94041d6725a075dd47ffcfee5e47ed145cab2256"}, "vout": 1, "txid": "e372fc1251c532997dbac5b6098ff36b2ee80482e08f07b71d7ca1ec86ad9d74"}], "txid": "f41c7b8b233282d2b29cb0cfeb2524c04ff2fbcdeb5f999c6d3a2053f6aa5501", "blocktime": 1537870268, "version": 1, "confirmations": 11516, "time": 1537870268, "locktime": 0, "vsize": 339, "size": 339}