{"hash": "4e0db33442b205ad01f771a898de7ae0d26fecc8084ad857846912ceda5cf4b4", "blockhash": "0000000000000000000e13cef7c366c0283d82e591d1acd082e914b08063cdf1", "vout": [{"scriptPubKey": {"reqSigs": 1, "hex": "a91469f3752980e69cf06e031084c804308350a0c96a87", "addresses": ["3BMEXRNcGZ4MLc6D2aqfZmQUH1uhj4h8G4"], "asm": "OP_HASH160 69f3752980e69cf06e031084c804308350a0c96a OP_EQUAL", "type": "scripthash"}, "value": 0.06854134, "n": 0}, {"scriptPubKey": {"reqSigs": 1, "hex": "a9140a202269ab6949053ec24ad4bf3ea5a9345546ed87", "addresses": ["32cZBCcZLqY4R2H7nyasQoGCgUswfeAbjT"], "asm": "OP_HASH160 0a202269ab6949053ec24ad4bf3ea5a9345546ed OP_EQUAL", "type": "scripthash"}, "value": 0.02588531, "n": 1}], "hex": "0200000000010229de0520ae009c889243c8e02c93b94b1b9c259da1382d0a85f58b66d68eb6d601000000171600143988860dca990b7a87a1c54458bedfc68cd36dcfffffffffb8df6e22f27b2cc80d4d45b52ee6743eb1146f58a8b278ade9e68cbe5137baa901000000171600141b590d25d61646276137e625c0936a6802b0ab40ffffffff02f69568000000000017a91469f3752980e69cf06e031084c804308350a0c96a87737f27000000000017a9140a202269ab6949053ec24ad4bf3ea5a9345546ed8702473044022076c6de1fb9be2ccf8e82e8d865627f8942221e7d695b22dc4fa2a65dd05370a9022074d42bf0319014ff3ab595975c4c83552a70f8c6b1d6af39e1dbdf2a18be88ec012102501a7bc4f46dc04d5381e97561c0e700edbc6a03c73c702186b161de09e7d19302483045022100855bc51a2aef7967e474fcc7c7669783f7a87e42ade68284b0d7f02e3ae5087402200f828bebbedf2d4e6958e17f65a216de05d4b1ce181d1533ca716a74887bac13012102a9ec7b702961a6af97e08b20739383763d04731ab3e3ec1d5f450137f806077600000000", "vin": [{"txinwitness": ["3044022076c6de1fb9be2ccf8e82e8d865627f8942221e7d695b22dc4fa2a65dd05370a9022074d42bf0319014ff3ab595975c4c83552a70f8c6b1d6af39e1dbdf2a18be88ec01", "02501a7bc4f46dc04d5381e97561c0e700edbc6a03c73c702186b161de09e7d193"], "sequence": 4294967295, "scriptSig": {"hex": "1600143988860dca990b7a87a1c54458bedfc68cd36dcf", "asm": "00143988860dca990b7a87a1c54458bedfc68cd36dcf"}, "vout": 1, "txid": "d6b68ed6668bf5850a2d38a19d259c1b4bb9932ce0c84392889c00ae2005de29"}, {"txinwitness": ["3045022100855bc51a2aef7967e474fcc7c7669783f7a87e42ade68284b0d7f02e3ae5087402200f828bebbedf2d4e6958e17f65a216de05d4b1ce181d1533ca716a74887bac1301", "02a9ec7b702961a6af97e08b20739383763d04731ab3e3ec1d5f450137f8060776"], "sequence": 4294967295, "scriptSig": {"hex": "1600141b590d25d61646276137e625c0936a6802b0ab40", "asm": "00141b590d25d61646276137e625c0936a6802b0ab40"}, "vout": 1, "txid": "a9ba3751be8ce6e9ad78b2a8586f14b13e74e62eb5454d0dc82c7bf2226edfb8"}], "txid": "f41ed90a4cbd7ef0defc296862c784fe0679122c2e84fa8463d30912cbdf1a4a", "blocktime": 1537871767, "version": 2, "confirmations": 11491, "time": 1537871767, "locktime": 0, "vsize": 257, "size": 419}