{"hash": "f41ffab524d6cfec11305ed12ede469589f5e5b839feddd887a486f5793c7710", "blockhash": "0000000000000000001e0dab787dd257d1dbfcb92a98c2207d5e1078be1f4165", "vout": [{"scriptPubKey": {"reqSigs": 1, "hex": "76a914a0359cca2cc701af345a6cc15e843a2b3875c5b388ac", "addresses": ["1Fc7LkcMWyg2Ksxt7AtgMEf2u5j2t4Y3SN"], "asm": "OP_DUP OP_HASH160 a0359cca2cc701af345a6cc15e843a2b3875c5b3 OP_EQUALVERIFY OP_CHECKSIG", "type": "pubkeyhash"}, "value": 0.02152603, "n": 0}, {"scriptPubKey": {"reqSigs": 1, "hex": "a914510f549db913fbe44e3344a388abcdb592afa35787", "addresses": ["395d2GPBcDn8YCJvbVW91TdL7CuaLwD4fu"], "asm": "OP_HASH160 510f549db913fbe44e3344a388abcdb592afa357 OP_EQUAL", "type": "scripthash"}, "value": 0.1636446, "n": 1}], "hex": "0200000002244ba25e30436467724e7ee9e1fdede5d3e6f164202b93bfff013b38d9d3eb92000000006b483045022100f46a562790bec507770d52b76fc3edb021d17d959a81b656afbaf4cef338491102202962e3f91b643cf0cd8000ae34fef82fca7d30eb39184ef7cd75e17f1f9238a00121028eed63cf4efb8ca6b8fbaf19ddbb50c87fbfe5f5a880a788d7eabe8833131da6feffffff98252b4cca5ce5a9af4abbc1880dc339af4b7a6ed3b08cd31f6b006661f498f6010000006b4830450221009a3067294a24c72bbe0a2f8efe714ff777f767366f2dcddbb73441f2859e144002204ff744c9528b2a55b3579412c695cce17112b00c378889a6e4a417316ded40660121033979f4a8ca010c972758b82ed338c2f9ecafe6be5dc240010cbfe417c96d7910feffffff029bd82000000000001976a914a0359cca2cc701af345a6cc15e843a2b3875c5b388acacb3f9000000000017a914510f549db913fbe44e3344a388abcdb592afa3578712490800", "vin": [{"sequence": 4294967294, "scriptSig": {"hex": "483045022100f46a562790bec507770d52b76fc3edb021d17d959a81b656afbaf4cef338491102202962e3f91b643cf0cd8000ae34fef82fca7d30eb39184ef7cd75e17f1f9238a00121028eed63cf4efb8ca6b8fbaf19ddbb50c87fbfe5f5a880a788d7eabe8833131da6", "asm": "3045022100f46a562790bec507770d52b76fc3edb021d17d959a81b656afbaf4cef338491102202962e3f91b643cf0cd8000ae34fef82fca7d30eb39184ef7cd75e17f1f9238a0[ALL] 028eed63cf4efb8ca6b8fbaf19ddbb50c87fbfe5f5a880a788d7eabe8833131da6"}, "vout": 0, "txid": "92ebd3d9383b01ffbf932b2064f1e6d3e5edfde1e97e4e72676443305ea24b24"}, {"sequence": 4294967294, "scriptSig": {"hex": "4830450221009a3067294a24c72bbe0a2f8efe714ff777f767366f2dcddbb73441f2859e144002204ff744c9528b2a55b3579412c695cce17112b00c378889a6e4a417316ded40660121033979f4a8ca010c972758b82ed338c2f9ecafe6be5dc240010cbfe417c96d7910", "asm": "30450221009a3067294a24c72bbe0a2f8efe714ff777f767366f2dcddbb73441f2859e144002204ff744c9528b2a55b3579412c695cce17112b00c378889a6e4a417316ded4066[ALL] 033979f4a8ca010c972758b82ed338c2f9ecafe6be5dc240010cbfe417c96d7910"}, "vout": 1, "txid": "f698f46166006b1fd38cb0d36e7a4baf39c30d88c1bb4aafa9e55cca4c2b2598"}], "txid": "f41ffab524d6cfec11305ed12ede469589f5e5b839feddd887a486f5793c7710", "blocktime": 1537872475, "version": 2, "confirmations": 11486, "time": 1537872475, "locktime": 542994, "vsize": 372, "size": 372}