{"hash": "fb6e33391de606fbab866267bfbef5a00cca5570e8f71fa81e7b0a4974d02281", "blockhash": "00000000000000000017f5eb5941039fbcee6240d03bc1f2f8e35350df66a1d8", "vout": [{"scriptPubKey": {"reqSigs": 1, "hex": "76a9142e1b944fe7ffbe969fc1df8d662fd7b5d6303c9b88ac", "addresses": ["15Co856cRnFRCKwSSzECoyT3ozVhuFoJZ6"], "asm": "OP_DUP OP_HASH160 2e1b944fe7ffbe969fc1df8d662fd7b5d6303c9b OP_EQUALVERIFY OP_CHECKSIG", "type": "pubkeyhash"}, "value": 0.0028596, "n": 0}, {"scriptPubKey": {"reqSigs": 1, "hex": "a9147a3b56c05636f4147258f6106755b456a10c7fa987", "addresses": ["3CqKStEgYz4MhhWY3Dd9g7TTEvojxXvGe4"], "asm": "OP_HASH160 7a3b56c05636f4147258f6106755b456a10c7fa9 OP_EQUAL", "type": "scripthash"}, "value": 0.01000073, "n": 1}], "hex": "0200000000010296b35f166d022ae6a017d34c605c09d6e6cfd82f48e6d3231731fa4b178c44800000000017160014c4f887c30fcffb4d3e4b91babf6e5b08895564edfeffffffe4ff714a2fdf7ec91c512d6a99e98602b676076daada050d400af28c31da33a80c00000017160014d66ee941d6eb3b902e1727e3a2aff8a50207c03bfeffffff02085d0400000000001976a9142e1b944fe7ffbe969fc1df8d662fd7b5d6303c9b88ac89420f000000000017a9147a3b56c05636f4147258f6106755b456a10c7fa987024730440220326ad3d73e4446f95efcb9382db8f893fdff861df3e5205c74cb3ea7c4bd5c9202203cbbdeb08ee9223d3ad2e2e0061d3a2621c84d293a6a808fb3de648ec7c9097d012102415391117c22080fe743c510975a37e01c942c7d4e251f97e7f42fa807c63afb0247304402206bdea324fcff1eb75cc150fbafe41ae6029ab172cfcb0d800ca08cb4e09cbd02022048f6ced58eaa9575a87e5f6d9e847087456e55f1a332735e1c9065f68c67a01a012102a01fff0ec68b72c0c68c0f838a013307299c266637b1dd4b6f624a640e64009b15490800", "vin": [{"txinwitness": ["30440220326ad3d73e4446f95efcb9382db8f893fdff861df3e5205c74cb3ea7c4bd5c9202203cbbdeb08ee9223d3ad2e2e0061d3a2621c84d293a6a808fb3de648ec7c9097d01", "02415391117c22080fe743c510975a37e01c942c7d4e251f97e7f42fa807c63afb"], "sequence": 4294967294, "scriptSig": {"hex": "160014c4f887c30fcffb4d3e4b91babf6e5b08895564ed", "asm": "0014c4f887c30fcffb4d3e4b91babf6e5b08895564ed"}, "vout": 0, "txid": "80448c174bfa311723d3e6482fd8cfe6d6095c604cd317a0e62a026d165fb396"}, {"txinwitness": ["304402206bdea324fcff1eb75cc150fbafe41ae6029ab172cfcb0d800ca08cb4e09cbd02022048f6ced58eaa9575a87e5f6d9e847087456e55f1a332735e1c9065f68c67a01a01", "02a01fff0ec68b72c0c68c0f838a013307299c266637b1dd4b6f624a640e64009b"], "sequence": 4294967294, "scriptSig": {"hex": "160014d66ee941d6eb3b902e1727e3a2aff8a50207c03b", "asm": "0014d66ee941d6eb3b902e1727e3a2aff8a50207c03b"}, "vout": 12, "txid": "a833da318cf20a400d05daaa6d0776b60286e9996a2d511cc97edf2f4a71ffe4"}], "txid": "f422daf83c943e333cbfbf750ebdeb99bfe116f1003eef8c39d9c5ab711b0d43", "blocktime": 1537874412, "version": 2, "confirmations": 11468, "time": 1537874412, "locktime": 542997, "vsize": 258, "size": 420}