{"hash": "f42923bc306464c1d40486e3e254ef8293894977c37e63aeab35420dde76509c", "blockhash": "00000000000000000018f53835495a110e01622372bf6ae95dc86f2b0ab887b0", "vout": [{"scriptPubKey": {"reqSigs": 1, "hex": "a914fcceee4cf80018f98391837c8f9f19819775dfc687", "addresses": ["3Qjk6hAk2V2aygjKthN6tgAxTMz69crur4"], "asm": "OP_HASH160 fcceee4cf80018f98391837c8f9f19819775dfc6 OP_EQUAL", "type": "scripthash"}, "value": 0.00968115, "n": 0}, {"scriptPubKey": {"reqSigs": 1, "hex": "76a914b7888cc82fdecaf88856880550ac43fe948b8cae88ac", "addresses": ["1HjSEm71Kqt31Va9JhJk2SvztwotZkQJFN"], "asm": "OP_DUP OP_HASH160 b7888cc82fdecaf88856880550ac43fe948b8cae OP_EQUALVERIFY OP_CHECKSIG", "type": "pubkeyhash"}, "value": 0.00870305, "n": 1}], "hex": "0200000001dc01461e4f447ab1e58293be4d4cf7eb8fecf763cd28c7622a0ef4a7ffa38b26010000006a47304402207d05c61752ec6775f7a5345dda2fa191121eea266c6ece6a861ae8cc7cb8a30c02201c57c69c2477c9db1a04992f2e2cff78e81f646ca98baf43601f474eacdd5be4012103f64d18070174a7d64ec0b63a2cf11fcf39cd553907cc09a47a94df2f3b817aecffffffff02b3c50e000000000017a914fcceee4cf80018f98391837c8f9f19819775dfc687a1470d00000000001976a914b7888cc82fdecaf88856880550ac43fe948b8cae88ac00000000", "vin": [{"sequence": 4294967295, "scriptSig": {"hex": "47304402207d05c61752ec6775f7a5345dda2fa191121eea266c6ece6a861ae8cc7cb8a30c02201c57c69c2477c9db1a04992f2e2cff78e81f646ca98baf43601f474eacdd5be4012103f64d18070174a7d64ec0b63a2cf11fcf39cd553907cc09a47a94df2f3b817aec", "asm": "304402207d05c61752ec6775f7a5345dda2fa191121eea266c6ece6a861ae8cc7cb8a30c02201c57c69c2477c9db1a04992f2e2cff78e81f646ca98baf43601f474eacdd5be4[ALL] 03f64d18070174a7d64ec0b63a2cf11fcf39cd553907cc09a47a94df2f3b817aec"}, "vout": 1, "txid": "268ba3ffa7f40e2a62c728cd63f7ec8febf74c4dbe9382e5b17a444f1e4601dc"}], "txid": "f42923bc306464c1d40486e3e254ef8293894977c37e63aeab35420dde76509c", "blocktime": 1537870928, "version": 2, "confirmations": 11512, "time": 1537870928, "locktime": 0, "vsize": 223, "size": 223}