{"hash": "f42dd08ccb2f130f75ac12c13b5f93468b6c0d095181771694f1ad0b09e770f5", "blockhash": "0000000000000000001cda96e906b7601b7a6fb1a3b62bca570a9e5d8f4b3de1", "vout": [{"scriptPubKey": {"reqSigs": 1, "hex": "76a914866db019e8bc04aed1f5250ecd51f41d551e864f88ac", "addresses": ["1DFnwxKmNSKSUUZgCWz5DPfu2tToR74WBc"], "asm": "OP_DUP OP_HASH160 866db019e8bc04aed1f5250ecd51f41d551e864f OP_EQUALVERIFY OP_CHECKSIG", "type": "pubkeyhash"}, "value": 0.090946, "n": 0}, {"scriptPubKey": {"reqSigs": 1, "hex": "a914e4245db2d9f42b06463ea6913a04048fe40e91df87", "addresses": ["3NVKZ32dFbXZtTTZJFEbqQPVqWeaNE77eS"], "asm": "OP_HASH160 e4245db2d9f42b06463ea6913a04048fe40e91df OP_EQUAL", "type": "scripthash"}, "value": 0.15, "n": 1}], "hex": "01000000036a1911f967ff5f85b03c0f660ee2f469e66d0b8e7e03d5fee3a40927bc7cb00a030000006a47304402205ff12e5d28a9a8ca4930334b62983656f943526c41486468a51b4f3cceda74d402205dac3f3254b68950edbdbb760eadb91c719b9b00fb8d4537d8197bbf1c03832c012102bad2201cfe53f23b0da7fcd3cf971dd07161dba4c147dcd1bb147b99a5b7695affffffff5713c8126c14893984c720a8bb537299488d11558a7dc5897d1536a37f126d10140000006a473044022031081436486d19528039fb0906b26c634cd6eed9a46a86e7aab960d29321927702203b64a202975fcf10b759799c451401020455ad03013a3b1f9d4113b4e6c62d760121025da1d97415f5a15419c4802193f653059d8064a3eccb2cd32e76fb05ca9e94c4ffffffffb2567e820543a1c9861a3ae9b9333ea479f038a69173a55ffd4ca8e685e3756a000000006b483045022100f45226ba9983e210f4998c8daff11dd1c1992867e22965ab3343662292a925f30220470a495e249628db4a43ec0f2ab150d87d96f4267c34e8030b666d9b07c6af8201210276254f7f6afa015430b759ca6e45dae46e6dde17ea66213d2c596b23ea755480ffffffff02c8c58a00000000001976a914866db019e8bc04aed1f5250ecd51f41d551e864f88acc0e1e4000000000017a914e4245db2d9f42b06463ea6913a04048fe40e91df8700000000", "vin": [{"sequence": 4294967295, "scriptSig": {"hex": "47304402205ff12e5d28a9a8ca4930334b62983656f943526c41486468a51b4f3cceda74d402205dac3f3254b68950edbdbb760eadb91c719b9b00fb8d4537d8197bbf1c03832c012102bad2201cfe53f23b0da7fcd3cf971dd07161dba4c147dcd1bb147b99a5b7695a", "asm": "304402205ff12e5d28a9a8ca4930334b62983656f943526c41486468a51b4f3cceda74d402205dac3f3254b68950edbdbb760eadb91c719b9b00fb8d4537d8197bbf1c03832c[ALL] 02bad2201cfe53f23b0da7fcd3cf971dd07161dba4c147dcd1bb147b99a5b7695a"}, "vout": 3, "txid": "0ab07cbc2709a4e3fed5037e8e0b6de669f4e20e660f3cb0855fff67f911196a"}, {"sequence": 4294967295, "scriptSig": {"hex": "473044022031081436486d19528039fb0906b26c634cd6eed9a46a86e7aab960d29321927702203b64a202975fcf10b759799c451401020455ad03013a3b1f9d4113b4e6c62d760121025da1d97415f5a15419c4802193f653059d8064a3eccb2cd32e76fb05ca9e94c4", "asm": "3044022031081436486d19528039fb0906b26c634cd6eed9a46a86e7aab960d29321927702203b64a202975fcf10b759799c451401020455ad03013a3b1f9d4113b4e6c62d76[ALL] 025da1d97415f5a15419c4802193f653059d8064a3eccb2cd32e76fb05ca9e94c4"}, "vout": 20, "txid": "106d127fa336157d89c57d8a55118d48997253bba820c7843989146c12c81357"}, {"sequence": 4294967295, "scriptSig": {"hex": "483045022100f45226ba9983e210f4998c8daff11dd1c1992867e22965ab3343662292a925f30220470a495e249628db4a43ec0f2ab150d87d96f4267c34e8030b666d9b07c6af8201210276254f7f6afa015430b759ca6e45dae46e6dde17ea66213d2c596b23ea755480", "asm": "3045022100f45226ba9983e210f4998c8daff11dd1c1992867e22965ab3343662292a925f30220470a495e249628db4a43ec0f2ab150d87d96f4267c34e8030b666d9b07c6af82[ALL] 0276254f7f6afa015430b759ca6e45dae46e6dde17ea66213d2c596b23ea755480"}, "vout": 0, "txid": "6a75e385e6a84cfd5fa57391a638f079a43e33b9e93a1a86c9a14305827e56b2"}], "txid": "f42dd08ccb2f130f75ac12c13b5f93468b6c0d095181771694f1ad0b09e770f5", "blocktime": 1537873282, "version": 1, "confirmations": 11480, "time": 1537873282, "locktime": 0, "vsize": 518, "size": 518}