{"hash": "f436a6818bd891e0777ce92f9fabca97cde18285006cc0dafed164851c737a35", "blockhash": "00000000000000000017f5eb5941039fbcee6240d03bc1f2f8e35350df66a1d8", "vout": [{"scriptPubKey": {"reqSigs": 1, "hex": "a9146067393aed9b42955f39b2a9e33e3760b9abdf6487", "addresses": ["3AUkT4Jpy3B2DdVYxh3EUXe2g7tWygH7ha"], "asm": "OP_HASH160 6067393aed9b42955f39b2a9e33e3760b9abdf64 OP_EQUAL", "type": "scripthash"}, "value": 0.003126, "n": 0}, {"scriptPubKey": {"reqSigs": 1, "hex": "76a914d1fc41474abbaeeb19f2fc838f80d281aeed95a588ac", "addresses": ["1L9JR5TQX5PBtERFPYNPfgKcFhuRiv8YgJ"], "asm": "OP_DUP OP_HASH160 d1fc41474abbaeeb19f2fc838f80d281aeed95a5 OP_EQUALVERIFY OP_CHECKSIG", "type": "pubkeyhash"}, "value": 0.07670592, "n": 1}], "hex": "0100000001e9c3c2b5d431be74732e54f698fe6288ea0e412dddcf3e8f167839cb44e9973b010000006b483045022100bafe3288d3d1cc2941022179756c01f7f5832070abd2aef16be8c50b425bb18302200afcdbff1adba0b2eb30dded1029a12c8a3f03c550e7f7128e47fbedc70dd6210121030ca65db9d25dbd4bb96ad97b6b5912bbae03215e6291b515baf21793dcf88d3bffffffff0218c504000000000017a9146067393aed9b42955f39b2a9e33e3760b9abdf6487400b7500000000001976a914d1fc41474abbaeeb19f2fc838f80d281aeed95a588ac00000000", "vin": [{"sequence": 4294967295, "scriptSig": {"hex": "483045022100bafe3288d3d1cc2941022179756c01f7f5832070abd2aef16be8c50b425bb18302200afcdbff1adba0b2eb30dded1029a12c8a3f03c550e7f7128e47fbedc70dd6210121030ca65db9d25dbd4bb96ad97b6b5912bbae03215e6291b515baf21793dcf88d3b", "asm": "3045022100bafe3288d3d1cc2941022179756c01f7f5832070abd2aef16be8c50b425bb18302200afcdbff1adba0b2eb30dded1029a12c8a3f03c550e7f7128e47fbedc70dd621[ALL] 030ca65db9d25dbd4bb96ad97b6b5912bbae03215e6291b515baf21793dcf88d3b"}, "vout": 1, "txid": "3b97e944cb3978168f3ecfdd2d410eea8862fe98f6542e7374be31d4b5c2c3e9"}], "txid": "f436a6818bd891e0777ce92f9fabca97cde18285006cc0dafed164851c737a35", "blocktime": 1537874412, "version": 1, "confirmations": 11467, "time": 1537874412, "locktime": 0, "vsize": 224, "size": 224}