{"hash": "f43cc5f28425295258e3d87a128ff983e91c42094244e69ed5b2efabc53d22a8", "blockhash": "000000000000000000022b45ed06c6f4ccd3cf7fb5ba4856ebd2e58215665228", "vout": [{"scriptPubKey": {"reqSigs": 1, "hex": "76a914a957c22e2169d2419f5f974acaab152c437d156388ac", "addresses": ["1GSQKzJVPwqVFfj5gh5G34Jqhj2xs7zHVG"], "asm": "OP_DUP OP_HASH160 a957c22e2169d2419f5f974acaab152c437d1563 OP_EQUALVERIFY OP_CHECKSIG", "type": "pubkeyhash"}, "value": 4.542e-05, "n": 0}, {"scriptPubKey": {"reqSigs": 1, "hex": "76a914c1cb161ac591936c9709b5fabd26f6304c4e8fa488ac", "addresses": ["1JfghiBLLsUnsFmpicS58cbdBtrEnfuWsn"], "asm": "OP_DUP OP_HASH160 c1cb161ac591936c9709b5fabd26f6304c4e8fa4 OP_EQUALVERIFY OP_CHECKSIG", "type": "pubkeyhash"}, "value": 0.07740083, "n": 1}], "hex": "01000000022ac2011f0477578ef08bfacfff235c1975a61c2ca980ff8fd638880aca221eae010000006a4730440220270944192be581381ae1267bfcd2781ecf166edba0263e87b0e8c35c7d1f023002202163fe328b1ff539de22fae889925bfb9db5a8e01d661ad7a3c73321f0d7ef58012102f0198148b02b0e4618f830923520108387af82f501165f81419b95e78d772f87ffffffffcecc3c889df43d4e24ba6c3193411c784ef7423d498ac383009c4054086e44f1000000006b483045022100e2cfe37752805bfcf205f7c904a4c3a66a92f7716c2a7a96b024da58d683373b022003ca7a93f4e7a31b0ef744a1c126537b709ed3d26070c4d4a0d9b79d6cf14da30121038b0202fe37ca0fc4eccb59396185b22121ab536ad10eeb07e777ebcbfc0e46aaffffffff02be110000000000001976a914a957c22e2169d2419f5f974acaab152c437d156388acb31a7600000000001976a914c1cb161ac591936c9709b5fabd26f6304c4e8fa488ac00000000", "vin": [{"sequence": 4294967295, "scriptSig": {"hex": "4730440220270944192be581381ae1267bfcd2781ecf166edba0263e87b0e8c35c7d1f023002202163fe328b1ff539de22fae889925bfb9db5a8e01d661ad7a3c73321f0d7ef58012102f0198148b02b0e4618f830923520108387af82f501165f81419b95e78d772f87", "asm": "30440220270944192be581381ae1267bfcd2781ecf166edba0263e87b0e8c35c7d1f023002202163fe328b1ff539de22fae889925bfb9db5a8e01d661ad7a3c73321f0d7ef58[ALL] 02f0198148b02b0e4618f830923520108387af82f501165f81419b95e78d772f87"}, "vout": 1, "txid": "ae1e22ca0a8838d68fff80a92c1ca675195c23ffcffa8bf08e5777041f01c22a"}, {"sequence": 4294967295, "scriptSig": {"hex": "483045022100e2cfe37752805bfcf205f7c904a4c3a66a92f7716c2a7a96b024da58d683373b022003ca7a93f4e7a31b0ef744a1c126537b709ed3d26070c4d4a0d9b79d6cf14da30121038b0202fe37ca0fc4eccb59396185b22121ab536ad10eeb07e777ebcbfc0e46aa", "asm": "3045022100e2cfe37752805bfcf205f7c904a4c3a66a92f7716c2a7a96b024da58d683373b022003ca7a93f4e7a31b0ef744a1c126537b709ed3d26070c4d4a0d9b79d6cf14da3[ALL] 038b0202fe37ca0fc4eccb59396185b22121ab536ad10eeb07e777ebcbfc0e46aa"}, "vout": 0, "txid": "f1446e0854409c0083c38a493d42f74e781c4193316cba244e3df49d883cccce"}], "txid": "f43cc5f28425295258e3d87a128ff983e91c42094244e69ed5b2efabc53d22a8", "blocktime": 1537869901, "version": 1, "confirmations": 11524, "time": 1537869901, "locktime": 0, "vsize": 373, "size": 373}