{"hash": "f43fe28d7aadadafa0131d913524598d9cb71f53447605cecce19136d9db80ce", "blockhash": "000000000000000000022b45ed06c6f4ccd3cf7fb5ba4856ebd2e58215665228", "vout": [{"scriptPubKey": {"reqSigs": 1, "hex": "76a914ea7de75230a0c0f981c314859a58f574197e4ee688ac", "addresses": ["1NNswpmnuHnERaZ696KogW6vYVd52upiL4"], "asm": "OP_DUP OP_HASH160 ea7de75230a0c0f981c314859a58f574197e4ee6 OP_EQUALVERIFY OP_CHECKSIG", "type": "pubkeyhash"}, "value": 0.00070065, "n": 0}, {"scriptPubKey": {"reqSigs": 1, "hex": "76a9148861d9f87de1bb111a48fa4bba2d6e025916807488ac", "addresses": ["1DS87vkXMX1F1Ur4yakJJeb76sBSkVbrGQ"], "asm": "OP_DUP OP_HASH160 8861d9f87de1bb111a48fa4bba2d6e0259168074 OP_EQUALVERIFY OP_CHECKSIG", "type": "pubkeyhash"}, "value": 0.0085712, "n": 1}], "hex": "0100000004050453359acc29a82ab554383d289a52eae3716984b24d4e86df718aae2ca726010000006b483045022100ee9e0b8ed187f7d000239626d2e0c6a88510607db0081599f7d359e35400f54a0220549e56619a9c0dbafb89c53c17ed22c52e5e00f69c840df02404d1dc6602b338012102e7ca59fef0f960b2504c15d0c3b6ee1e88d6144dd2bee6092a842f1284ec2611ffffffff95b0f2f8a534b61b0062f47dd3d336969026bb3c73661fa2e209cc969bcb55ba010000006a473044022028d28934f39db06f4190da697b074855f00b8fc0cb74301a819dc073c7592acf0220686bb0d9b1cf211f4586373c90c5dbc58655b793857a085b99dff9e562a6a4900121032a747cc2dc9988b3db9824ff1814e977d12b337b0be980881cc09180c4992d61ffffffff06f232156999ec825fb6c34ae39acc88971762a99e032ff34a0b479bc1cbdcba010000006a47304402202723a285af1edb18f83291ad66ca6137756acc3cddb1e5f8e5f000d27111342902204f4e01eb678445ef9db6e371c3f301bb71bdd060a186bb24395a6755b9ba1cd7012103ea10e0d0b39fd7a58374c9c8560f5efdbec369ebdb292a42638b8127431461d3fffffffffdc587890493009f5e77417fe485b7d1238dfaad59879cc08009eee7c527a1d8000000006a473044022016af05b8157c6b1482cacc7472e1273b84f0a116f48e90bd18204baf2d955e4c022001fd44618f386c0717de6df1b9d473e5f7242afd8a8ce39cde5641a1ca47a972012103145092c92ffbc24eded4b26d62b9f5ad6e354c4f199e29fda6983da7f178bcacffffffff02b1110100000000001976a914ea7de75230a0c0f981c314859a58f574197e4ee688ac20140d00000000001976a9148861d9f87de1bb111a48fa4bba2d6e025916807488ac00000000", "vin": [{"sequence": 4294967295, "scriptSig": {"hex": "483045022100ee9e0b8ed187f7d000239626d2e0c6a88510607db0081599f7d359e35400f54a0220549e56619a9c0dbafb89c53c17ed22c52e5e00f69c840df02404d1dc6602b338012102e7ca59fef0f960b2504c15d0c3b6ee1e88d6144dd2bee6092a842f1284ec2611", "asm": "3045022100ee9e0b8ed187f7d000239626d2e0c6a88510607db0081599f7d359e35400f54a0220549e56619a9c0dbafb89c53c17ed22c52e5e00f69c840df02404d1dc6602b338[ALL] 02e7ca59fef0f960b2504c15d0c3b6ee1e88d6144dd2bee6092a842f1284ec2611"}, "vout": 1, "txid": "26a72cae8a71df864e4db2846971e3ea529a283d3854b52aa829cc9a35530405"}, {"sequence": 4294967295, "scriptSig": {"hex": "473044022028d28934f39db06f4190da697b074855f00b8fc0cb74301a819dc073c7592acf0220686bb0d9b1cf211f4586373c90c5dbc58655b793857a085b99dff9e562a6a4900121032a747cc2dc9988b3db9824ff1814e977d12b337b0be980881cc09180c4992d61", "asm": "3044022028d28934f39db06f4190da697b074855f00b8fc0cb74301a819dc073c7592acf0220686bb0d9b1cf211f4586373c90c5dbc58655b793857a085b99dff9e562a6a490[ALL] 032a747cc2dc9988b3db9824ff1814e977d12b337b0be980881cc09180c4992d61"}, "vout": 1, "txid": "ba55cb9b96cc09e2a21f66733cbb26909636d3d37df462001bb634a5f8f2b095"}, {"sequence": 4294967295, "scriptSig": {"hex": "47304402202723a285af1edb18f83291ad66ca6137756acc3cddb1e5f8e5f000d27111342902204f4e01eb678445ef9db6e371c3f301bb71bdd060a186bb24395a6755b9ba1cd7012103ea10e0d0b39fd7a58374c9c8560f5efdbec369ebdb292a42638b8127431461d3", "asm": "304402202723a285af1edb18f83291ad66ca6137756acc3cddb1e5f8e5f000d27111342902204f4e01eb678445ef9db6e371c3f301bb71bdd060a186bb24395a6755b9ba1cd7[ALL] 03ea10e0d0b39fd7a58374c9c8560f5efdbec369ebdb292a42638b8127431461d3"}, "vout": 1, "txid": "badccbc19b470b4af32f039ea962179788cc9ae34ac3b65f82ec99691532f206"}, {"sequence": 4294967295, "scriptSig": {"hex": "473044022016af05b8157c6b1482cacc7472e1273b84f0a116f48e90bd18204baf2d955e4c022001fd44618f386c0717de6df1b9d473e5f7242afd8a8ce39cde5641a1ca47a972012103145092c92ffbc24eded4b26d62b9f5ad6e354c4f199e29fda6983da7f178bcac", "asm": "3044022016af05b8157c6b1482cacc7472e1273b84f0a116f48e90bd18204baf2d955e4c022001fd44618f386c0717de6df1b9d473e5f7242afd8a8ce39cde5641a1ca47a972[ALL] 03145092c92ffbc24eded4b26d62b9f5ad6e354c4f199e29fda6983da7f178bcac"}, "vout": 0, "txid": "d8a127c5e7ee0980c09c8759adfa8d23d1b785e47f41775e9f0093048987c5fd"}], "txid": "f43fe28d7aadadafa0131d913524598d9cb71f53447605cecce19136d9db80ce", "blocktime": 1537869901, "version": 1, "confirmations": 11523, "time": 1537869901, "locktime": 0, "vsize": 667, "size": 667}