{"hash": "f440e14a59786a371210790df912a13cee3a191a0fb146e08167bed29722ecd7", "blockhash": "0000000000000000000baef3f32e3676a92c3b2e5da21b426e4f302fc371ce76", "vout": [{"scriptPubKey": {"reqSigs": 1, "hex": "76a9144d23ad4951e914c718e37d064c5dd6a262cd4ef088ac", "addresses": ["182smeSAvwcTW3WTzEPh7MzH2H5ecNjWnH"], "asm": "OP_DUP OP_HASH160 4d23ad4951e914c718e37d064c5dd6a262cd4ef0 OP_EQUALVERIFY OP_CHECKSIG", "type": "pubkeyhash"}, "value": 0.00023274, "n": 0}, {"scriptPubKey": {"reqSigs": 1, "hex": "a91432deaae6c55caffe9cfb51c439d4c88d5ee4982587", "addresses": ["36KzTMGQigBRk1zXmCvHWS9xpDBGx73KUm"], "asm": "OP_HASH160 32deaae6c55caffe9cfb51c439d4c88d5ee49825 OP_EQUAL", "type": "scripthash"}, "value": 0.00408, "n": 1}], "hex": "0100000005998dddfad3c9108188f16c62d15b410bdf74e9eb2db1bf2c125da324599c043a0b0000006b483045022100b51336bb79ec3c15b5c101c8f312f5acb63d867d6551d0d6f5a2c5edfa29fe4902202c8303b51a07aa4eb1b00388998e191f685e185f64aa701c97067340cc2f4fad012103294c770f7010be1b4bfdbd97a667aa3295deac9029c91f859b51485f914a9160ffffffffa881d801238fdc50bb0a27ced1f9ce327c5e81f098872158babbbf7f4ea9f8400b0000006a473044022016fbae8bfc0d6307d9f92dce25f55eed722b20e307f974f1f5dd4570d17f25c002204032dfa563530b093c796f18fd39a6e441ddfc4f7299b5251ccecd1cd4ab0a3b012103294c770f7010be1b4bfdbd97a667aa3295deac9029c91f859b51485f914a9160ffffffff7f9f6936f70ce54d1c184d41fef3c7163f2da11cfb827e8048e0d9a54b304743000000006b483045022100aedeca0deded6f3addd8b6348ec81c9d223798a43afb6ce9ee33396b499d7df202201ce75d19f3870a7c1050ca3d6be60fc2da2f78cd75258561f8c791bbbd58b14d01210246b9eb47a8256ac78da73551c0a6abc061efb2fa30efbcbb91c5b327ffdaa744ffffffff9e9e10c1cd4ffbb21883b57f35abb3217faffed59f41620d073d466ad3399fa20d0000006a47304402201a086a829edcc86f9c00b256407b6691234c8caf9ceab9e695c37db970edab830220664f3519958513b3a15247d501782b64edf427691c5af20f5c9c0aae210ccad9012103294c770f7010be1b4bfdbd97a667aa3295deac9029c91f859b51485f914a9160ffffffff903eec365c6d2fbdfb66b684977661421a84e4d165212382e326c2ccc62e49b3010000006b48304502210083b8ff867e4bc7f88f02c8c565c420f8f50660f993135b7f6a6448d346bc229502205f8604c7436a48b85fe72dc171970090b6e6f7add8073d0e2f08563e3ce898d2012103294c770f7010be1b4bfdbd97a667aa3295deac9029c91f859b51485f914a9160ffffffff02ea5a0000000000001976a9144d23ad4951e914c718e37d064c5dd6a262cd4ef088acc03906000000000017a91432deaae6c55caffe9cfb51c439d4c88d5ee498258700000000", "vin": [{"sequence": 4294967295, "scriptSig": {"hex": "483045022100b51336bb79ec3c15b5c101c8f312f5acb63d867d6551d0d6f5a2c5edfa29fe4902202c8303b51a07aa4eb1b00388998e191f685e185f64aa701c97067340cc2f4fad012103294c770f7010be1b4bfdbd97a667aa3295deac9029c91f859b51485f914a9160", "asm": "3045022100b51336bb79ec3c15b5c101c8f312f5acb63d867d6551d0d6f5a2c5edfa29fe4902202c8303b51a07aa4eb1b00388998e191f685e185f64aa701c97067340cc2f4fad[ALL] 03294c770f7010be1b4bfdbd97a667aa3295deac9029c91f859b51485f914a9160"}, "vout": 11, "txid": "3a049c5924a35d122cbfb12debe974df0b415bd1626cf1888110c9d3fadd8d99"}, {"sequence": 4294967295, "scriptSig": {"hex": "473044022016fbae8bfc0d6307d9f92dce25f55eed722b20e307f974f1f5dd4570d17f25c002204032dfa563530b093c796f18fd39a6e441ddfc4f7299b5251ccecd1cd4ab0a3b012103294c770f7010be1b4bfdbd97a667aa3295deac9029c91f859b51485f914a9160", "asm": "3044022016fbae8bfc0d6307d9f92dce25f55eed722b20e307f974f1f5dd4570d17f25c002204032dfa563530b093c796f18fd39a6e441ddfc4f7299b5251ccecd1cd4ab0a3b[ALL] 03294c770f7010be1b4bfdbd97a667aa3295deac9029c91f859b51485f914a9160"}, "vout": 11, "txid": "40f8a94e7fbfbbba58218798f0815e7c32cef9d1ce270abb50dc8f2301d881a8"}, {"sequence": 4294967295, "scriptSig": {"hex": "483045022100aedeca0deded6f3addd8b6348ec81c9d223798a43afb6ce9ee33396b499d7df202201ce75d19f3870a7c1050ca3d6be60fc2da2f78cd75258561f8c791bbbd58b14d01210246b9eb47a8256ac78da73551c0a6abc061efb2fa30efbcbb91c5b327ffdaa744", "asm": "3045022100aedeca0deded6f3addd8b6348ec81c9d223798a43afb6ce9ee33396b499d7df202201ce75d19f3870a7c1050ca3d6be60fc2da2f78cd75258561f8c791bbbd58b14d[ALL] 0246b9eb47a8256ac78da73551c0a6abc061efb2fa30efbcbb91c5b327ffdaa744"}, "vout": 0, "txid": "4347304ba5d9e048807e82fb1ca12d3f16c7f3fe414d181c4de50cf736699f7f"}, {"sequence": 4294967295, "scriptSig": {"hex": "47304402201a086a829edcc86f9c00b256407b6691234c8caf9ceab9e695c37db970edab830220664f3519958513b3a15247d501782b64edf427691c5af20f5c9c0aae210ccad9012103294c770f7010be1b4bfdbd97a667aa3295deac9029c91f859b51485f914a9160", "asm": "304402201a086a829edcc86f9c00b256407b6691234c8caf9ceab9e695c37db970edab830220664f3519958513b3a15247d501782b64edf427691c5af20f5c9c0aae210ccad9[ALL] 03294c770f7010be1b4bfdbd97a667aa3295deac9029c91f859b51485f914a9160"}, "vout": 13, "txid": "a29f39d36a463d070d62419fd5feaf7f21b3ab357fb58318b2fb4fcdc1109e9e"}, {"sequence": 4294967295, "scriptSig": {"hex": "48304502210083b8ff867e4bc7f88f02c8c565c420f8f50660f993135b7f6a6448d346bc229502205f8604c7436a48b85fe72dc171970090b6e6f7add8073d0e2f08563e3ce898d2012103294c770f7010be1b4bfdbd97a667aa3295deac9029c91f859b51485f914a9160", "asm": "304502210083b8ff867e4bc7f88f02c8c565c420f8f50660f993135b7f6a6448d346bc229502205f8604c7436a48b85fe72dc171970090b6e6f7add8073d0e2f08563e3ce898d2[ALL] 03294c770f7010be1b4bfdbd97a667aa3295deac9029c91f859b51485f914a9160"}, "vout": 1, "txid": "b3492ec6ccc226e382232165d1e4841a4261769784b666fbbd2f6d5c36ec3e90"}], "txid": "f440e14a59786a371210790df912a13cee3a191a0fb146e08167bed29722ecd7", "blocktime": 1537876114, "version": 1, "confirmations": 11460, "time": 1537876114, "locktime": 0, "vsize": 814, "size": 814}