{"hash": "971be25c41603d15981c3aec5c8b7eb5354dfcfb12b2f2b4be14ff7cd976b2e2", "blockhash": "000000000000000000022b45ed06c6f4ccd3cf7fb5ba4856ebd2e58215665228", "vout": [{"scriptPubKey": {"reqSigs": 1, "hex": "a914c575ce306522f4a95a88ee73ff6d47d4eeece7c287", "addresses": ["3Kh6AbgkJ9hUibMWYpPgame9vbqHZk2w2S"], "asm": "OP_HASH160 c575ce306522f4a95a88ee73ff6d47d4eeece7c2 OP_EQUAL", "type": "scripthash"}, "value": 0.01000065, "n": 0}, {"scriptPubKey": {"reqSigs": 1, "hex": "76a9142e1b944fe7ffbe969fc1df8d662fd7b5d6303c9b88ac", "addresses": ["15Co856cRnFRCKwSSzECoyT3ozVhuFoJZ6"], "asm": "OP_DUP OP_HASH160 2e1b944fe7ffbe969fc1df8d662fd7b5d6303c9b OP_EQUALVERIFY OP_CHECKSIG", "type": "pubkeyhash"}, "value": 0.0030816, "n": 1}], "hex": "0200000000010290754a4c6eaaac88cc3a6ff3aea4cd6c77ad19118e27f2efb691b1ac2a8589420000000017160014762b5adc8862d0b8b56845a977aaffaae1d4ec38fefffffff8e2a1bc4985550ffb24a8bfcb9236444444d322b4e83c584d5e4ecb8ce11af30800000017160014ae4003a2324a64692e8a39437760c113370befb9feffffff0281420f000000000017a914c575ce306522f4a95a88ee73ff6d47d4eeece7c287c0b30400000000001976a9142e1b944fe7ffbe969fc1df8d662fd7b5d6303c9b88ac02473044022079b367617caaec738e83d468e56db68810b4551c4c9ce0f9d8bd0b0c06a89c680220256b653e29059abc4854ce0811d9bbc90c92c2f9e31728992d4729b0043519c9012103ab551ea2ab8157eae3d4744246ce6a9931d0ac905b521f706b13df137aae034502483045022100f5898ad42bc9b1ae2eb9d7196e0ad426d4e48c58cdbca270916c01ccafff75f102207844423fd523a8a86d4c07efeaaa0a78b0eb3adbfc3f8f9c1bc30fd97aab43e30121025c956ce9878c7e324f6aeb69bbb1b732db4bc106998205d13b4216e85b7cb6b60b490800", "vin": [{"txinwitness": ["3044022079b367617caaec738e83d468e56db68810b4551c4c9ce0f9d8bd0b0c06a89c680220256b653e29059abc4854ce0811d9bbc90c92c2f9e31728992d4729b0043519c901", "03ab551ea2ab8157eae3d4744246ce6a9931d0ac905b521f706b13df137aae0345"], "sequence": 4294967294, "scriptSig": {"hex": "160014762b5adc8862d0b8b56845a977aaffaae1d4ec38", "asm": "0014762b5adc8862d0b8b56845a977aaffaae1d4ec38"}, "vout": 0, "txid": "4289852aacb191b6eff2278e1119ad776ccda4aef36f3acc88acaa6e4c4a7590"}, {"txinwitness": ["3045022100f5898ad42bc9b1ae2eb9d7196e0ad426d4e48c58cdbca270916c01ccafff75f102207844423fd523a8a86d4c07efeaaa0a78b0eb3adbfc3f8f9c1bc30fd97aab43e301", "025c956ce9878c7e324f6aeb69bbb1b732db4bc106998205d13b4216e85b7cb6b6"], "sequence": 4294967294, "scriptSig": {"hex": "160014ae4003a2324a64692e8a39437760c113370befb9", "asm": "0014ae4003a2324a64692e8a39437760c113370befb9"}, "vout": 8, "txid": "f31ae18ccb4e5e4d583ce8b422d34444443692cbbfa824fb0f558549bca1e2f8"}], "txid": "f44084f725838a576f6228ce8d3e6aed826939a3a2a6d118522cfcc0628be674", "blocktime": 1537869901, "version": 2, "confirmations": 11524, "time": 1537869901, "locktime": 542987, "vsize": 259, "size": 421}