{"hash": "f451963b0d3c3cda48a167e1b09f85e9a8ed3f53a1299698438821a4859ba696", "blockhash": "0000000000000000000e13cef7c366c0283d82e591d1acd082e914b08063cdf1", "vout": [{"scriptPubKey": {"reqSigs": 1, "hex": "a914781d7acae2869cdbb6f6476fc29ec5d21fa58d0e87", "addresses": ["3Ce8Kr26aANMuuZ5LtQxYcaaDVM6TuH49a"], "asm": "OP_HASH160 781d7acae2869cdbb6f6476fc29ec5d21fa58d0e OP_EQUAL", "type": "scripthash"}, "value": 0.00047353, "n": 0}], "hex": "01000000022a581f5dc91e63071c9849881f9364fc3d69a59d85e3c58e04e999d6b3b08fb8000000006b483045022100909e1072ac00bce3cb7395050e8cafcfddac6da0db85f77861badd9b903483dd022055cf30b52d4a5a706e01e86c04e9daf000b9324e4a16a985f052275b971983d60121032bc1b676fa2279308358dfdf8570d1538114b625f1c2035286964aa75234bd2cfffffffffc5a533090f7b19043d28d856e5123a3d117c6b2bcb06cfe17df8a2bfb08ebe6000000006a47304402205fa380bd97fa3a46f83f6aa12a25ffa1ee78f27f0000285dcf11074dc712a2ca022068972cad54694ca1ac74c5511427775c2b44c976b13def04c33b0a508b6a5661012102d611759335c83f5a0c6424abec7ab9aaf3cf99ceac8c1edb113009fe6355c9a5ffffffff01f9b800000000000017a914781d7acae2869cdbb6f6476fc29ec5d21fa58d0e8700000000", "vin": [{"sequence": 4294967295, "scriptSig": {"hex": "483045022100909e1072ac00bce3cb7395050e8cafcfddac6da0db85f77861badd9b903483dd022055cf30b52d4a5a706e01e86c04e9daf000b9324e4a16a985f052275b971983d60121032bc1b676fa2279308358dfdf8570d1538114b625f1c2035286964aa75234bd2c", "asm": "3045022100909e1072ac00bce3cb7395050e8cafcfddac6da0db85f77861badd9b903483dd022055cf30b52d4a5a706e01e86c04e9daf000b9324e4a16a985f052275b971983d6[ALL] 032bc1b676fa2279308358dfdf8570d1538114b625f1c2035286964aa75234bd2c"}, "vout": 0, "txid": "b88fb0b3d699e9048ec5e3859da5693dfc64931f8849981c07631ec95d1f582a"}, {"sequence": 4294967295, "scriptSig": {"hex": "47304402205fa380bd97fa3a46f83f6aa12a25ffa1ee78f27f0000285dcf11074dc712a2ca022068972cad54694ca1ac74c5511427775c2b44c976b13def04c33b0a508b6a5661012102d611759335c83f5a0c6424abec7ab9aaf3cf99ceac8c1edb113009fe6355c9a5", "asm": "304402205fa380bd97fa3a46f83f6aa12a25ffa1ee78f27f0000285dcf11074dc712a2ca022068972cad54694ca1ac74c5511427775c2b44c976b13def04c33b0a508b6a5661[ALL] 02d611759335c83f5a0c6424abec7ab9aaf3cf99ceac8c1edb113009fe6355c9a5"}, "vout": 0, "txid": "e6eb08fb2b8adf17fe6cb0bcb2c617d1a323516e858dd24390b1f79030535afc"}], "txid": "f451963b0d3c3cda48a167e1b09f85e9a8ed3f53a1299698438821a4859ba696", "blocktime": 1537871767, "version": 1, "confirmations": 11491, "time": 1537871767, "locktime": 0, "vsize": 337, "size": 337}