{"hash": "f452b5220e591fdd397784962b3cb692dd193c1c2cbdcae59a70d486f2e5fbc3", "blockhash": "0000000000000000001cda96e906b7601b7a6fb1a3b62bca570a9e5d8f4b3de1", "vout": [{"scriptPubKey": {"reqSigs": 1, "hex": "a91486dff58913f8d25406c5d83edc1f75f1393d875e87", "addresses": ["3DzAmCejuhsSELRQ7iywWxktZh9Y3xoLuH"], "asm": "OP_HASH160 86dff58913f8d25406c5d83edc1f75f1393d875e OP_EQUAL", "type": "scripthash"}, "value": 0.019828, "n": 0}, {"scriptPubKey": {"reqSigs": 1, "hex": "a914842d26c776533642927d41758ea39aedb6ad55a687", "addresses": ["3DjuD3aYbi5jcijFku7P29FvbFiGyybU46"], "asm": "OP_HASH160 842d26c776533642927d41758ea39aedb6ad55a6 OP_EQUAL", "type": "scripthash"}, "value": 0.022791, "n": 1}, {"scriptPubKey": {"reqSigs": 1, "hex": "76a9144d462c7413e673bed3faa503ff36df54321a91ae88ac", "addresses": ["183b6XErGSmV3J9t4BjK6GDoFamzDBw1mr"], "asm": "OP_DUP OP_HASH160 4d462c7413e673bed3faa503ff36df54321a91ae OP_EQUALVERIFY OP_CHECKSIG", "type": "pubkeyhash"}, "value": 0.033958, "n": 2}, {"scriptPubKey": {"reqSigs": 1, "hex": "76a914d317453806c4460c9a0d26fa858376768bcb926888ac", "addresses": ["1LF9TLCTmNjwgFa5HruKkV43f1v62wAo3J"], "asm": "OP_DUP OP_HASH160 d317453806c4460c9a0d26fa858376768bcb9268 OP_EQUALVERIFY OP_CHECKSIG", "type": "pubkeyhash"}, "value": 10.590894, "n": 3}], "hex": "0100000001d286a0066a74cfec2785df30f048830ddcf9872b5602efa6814e083580a77016010000006a4730440220210fb0b24977b59812c2960475ff5c20c9c259abc1d61de6b3b1e216be13b3ed02207604a3318e272c8d2096ba54cff78ab4f3067360933fad905a58983ddee7d18701210205de51193c0065ffcade42d44109f90ec9d3c3418e4512f44efd2fccf10fc1a7ffffffff0450411e000000000017a91486dff58913f8d25406c5d83edc1f75f1393d875e87bcc622000000000017a914842d26c776533642927d41758ea39aedb6ad55a687d8d03300000000001976a9144d462c7413e673bed3faa503ff36df54321a91ae88acf86b203f000000001976a914d317453806c4460c9a0d26fa858376768bcb926888ac00000000", "vin": [{"sequence": 4294967295, "scriptSig": {"hex": "4730440220210fb0b24977b59812c2960475ff5c20c9c259abc1d61de6b3b1e216be13b3ed02207604a3318e272c8d2096ba54cff78ab4f3067360933fad905a58983ddee7d18701210205de51193c0065ffcade42d44109f90ec9d3c3418e4512f44efd2fccf10fc1a7", "asm": "30440220210fb0b24977b59812c2960475ff5c20c9c259abc1d61de6b3b1e216be13b3ed02207604a3318e272c8d2096ba54cff78ab4f3067360933fad905a58983ddee7d187[ALL] 0205de51193c0065ffcade42d44109f90ec9d3c3418e4512f44efd2fccf10fc1a7"}, "vout": 1, "txid": "1670a78035084e81a6ef02562b87f9dc0d8348f030df8527eccf746a06a086d2"}], "txid": "f452b5220e591fdd397784962b3cb692dd193c1c2cbdcae59a70d486f2e5fbc3", "blocktime": 1537873282, "version": 1, "confirmations": 11484, "time": 1537873282, "locktime": 0, "vsize": 289, "size": 289}