{"hash": "f454077417cf9c4ad79263f8ffc239ab54ee4a8245f02a3f27c7a732469d5142", "blockhash": "000000000000000000022b45ed06c6f4ccd3cf7fb5ba4856ebd2e58215665228", "vout": [{"scriptPubKey": {"reqSigs": 1, "hex": "a9141257f5b6adcbff6c50426259340569ca1548829387", "addresses": ["33N1TYyLr9fgXCxed7JKAH5KRtgv6NVsZA"], "asm": "OP_HASH160 1257f5b6adcbff6c50426259340569ca15488293 OP_EQUAL", "type": "scripthash"}, "value": 0.00139291, "n": 0}, {"scriptPubKey": {"reqSigs": 1, "hex": "76a9141f3fe46922fbde1d38a256df12bc79df97a4116288ac", "addresses": ["13rEVFtQ6NKrnF3tdVwLVfFsN4Wz89yNX2"], "asm": "OP_DUP OP_HASH160 1f3fe46922fbde1d38a256df12bc79df97a41162 OP_EQUALVERIFY OP_CHECKSIG", "type": "pubkeyhash"}, "value": 0.11880723, "n": 1}], "hex": "01000000014478748c5d28740f04dc2c5229f0ba01105cecfbfd38fae43175b27a1bdb2838010000006a47304402204355474c8b77f2247f6bb961bd5024bbb07d32806f045c1785b8eaaa50ef88f402205659debc6bb209d98115b20d784f71896917cf6a0a02ef6b5e8b8095de4148d50121024dadfc4b65e8dece3c44c9c7f6338218f1dadea6fd6ed9525bc6edf228fe8697ffffffff021b2002000000000017a9141257f5b6adcbff6c50426259340569ca15488293871349b500000000001976a9141f3fe46922fbde1d38a256df12bc79df97a4116288ac00000000", "vin": [{"sequence": 4294967295, "scriptSig": {"hex": "47304402204355474c8b77f2247f6bb961bd5024bbb07d32806f045c1785b8eaaa50ef88f402205659debc6bb209d98115b20d784f71896917cf6a0a02ef6b5e8b8095de4148d50121024dadfc4b65e8dece3c44c9c7f6338218f1dadea6fd6ed9525bc6edf228fe8697", "asm": "304402204355474c8b77f2247f6bb961bd5024bbb07d32806f045c1785b8eaaa50ef88f402205659debc6bb209d98115b20d784f71896917cf6a0a02ef6b5e8b8095de4148d5[ALL] 024dadfc4b65e8dece3c44c9c7f6338218f1dadea6fd6ed9525bc6edf228fe8697"}, "vout": 1, "txid": "3828db1b7ab27531e4fa38fdfbec5c1001baf029522cdc040f74285d8c747844"}], "txid": "f454077417cf9c4ad79263f8ffc239ab54ee4a8245f02a3f27c7a732469d5142", "blocktime": 1537869901, "version": 1, "confirmations": 11522, "time": 1537869901, "locktime": 0, "vsize": 223, "size": 223}