{"hash": "f45993384cc68c9f163cfb14df5508fb34affff2a9e925cfde4cc1fda179a6cb", "blockhash": "00000000000000000018f53835495a110e01622372bf6ae95dc86f2b0ab887b0", "vout": [{"scriptPubKey": {"reqSigs": 1, "hex": "a914fb68fc52d4a6205ade7e7e74c171ae6145baa0c287", "addresses": ["3QcMJDuJckbSDbNeWQWYMQkmN58yRAYRt2"], "asm": "OP_HASH160 fb68fc52d4a6205ade7e7e74c171ae6145baa0c2 OP_EQUAL", "type": "scripthash"}, "value": 0.016956, "n": 0}], "hex": "0100000001f7aebae7f2a808d18a8bb55ce6220df5f5a650f2776c923d39f21cd1e6c18fab010000006a473044022053ba4c074cf72dbe0deb6357cf6111b86d93b164f45f5ad6bb8df4af9e5e2ee502205509c6826215f5fb0ad4f00e98fb27b6885f104a14fe5b834dc232aa66ebc6bb0121035a8e01580e07611a7167c1c5734187804856c472d95b0fc4c4208a99ea97d2ddffffffff0170df19000000000017a914fb68fc52d4a6205ade7e7e74c171ae6145baa0c28700000000", "vin": [{"sequence": 4294967295, "scriptSig": {"hex": "473044022053ba4c074cf72dbe0deb6357cf6111b86d93b164f45f5ad6bb8df4af9e5e2ee502205509c6826215f5fb0ad4f00e98fb27b6885f104a14fe5b834dc232aa66ebc6bb0121035a8e01580e07611a7167c1c5734187804856c472d95b0fc4c4208a99ea97d2dd", "asm": "3044022053ba4c074cf72dbe0deb6357cf6111b86d93b164f45f5ad6bb8df4af9e5e2ee502205509c6826215f5fb0ad4f00e98fb27b6885f104a14fe5b834dc232aa66ebc6bb[ALL] 035a8e01580e07611a7167c1c5734187804856c472d95b0fc4c4208a99ea97d2dd"}, "vout": 1, "txid": "ab8fc1e6d11cf2393d926c77f250a6f5f50d22e65cb58b8ad108a8f2e7baaef7"}], "txid": "f45993384cc68c9f163cfb14df5508fb34affff2a9e925cfde4cc1fda179a6cb", "blocktime": 1537870928, "version": 1, "confirmations": 11512, "time": 1537870928, "locktime": 0, "vsize": 189, "size": 189}