{"hash": "f46b9cc096fdc637e26b5924a792d4fcb48ce46052a2a92d72e5d9945c4d6f60", "blockhash": "000000000000000000022b45ed06c6f4ccd3cf7fb5ba4856ebd2e58215665228", "vout": [{"scriptPubKey": {"reqSigs": 1, "hex": "a914a8cc8bfc158b76d23f85261336c2857785d7a26187", "addresses": ["3H5YUw5MCYMyfjdzv1BmDcjtrqUBSok3e4"], "asm": "OP_HASH160 a8cc8bfc158b76d23f85261336c2857785d7a261 OP_EQUAL", "type": "scripthash"}, "value": 0.89421203, "n": 0}], "hex": "020000000135f2c7f1f01f96ab54bd9d6b6236f27445ccf8a2b453ff2841b9120df4b79720000000006a47304402203031ccc725ae9e7990e7be87e8d04373008c582ddf7bc0c3ad5b6d81772a4fa602200ce9450f80cab6703d90240f758193766c8b20666adba42abc8ad3fd35b1d8f1012103548dc53e5a41447638d64a160187d42921b3ec9c2580685ebae26de6b9406190ffffffff01937554050000000017a914a8cc8bfc158b76d23f85261336c2857785d7a2618700000000", "vin": [{"sequence": 4294967295, "scriptSig": {"hex": "47304402203031ccc725ae9e7990e7be87e8d04373008c582ddf7bc0c3ad5b6d81772a4fa602200ce9450f80cab6703d90240f758193766c8b20666adba42abc8ad3fd35b1d8f1012103548dc53e5a41447638d64a160187d42921b3ec9c2580685ebae26de6b9406190", "asm": "304402203031ccc725ae9e7990e7be87e8d04373008c582ddf7bc0c3ad5b6d81772a4fa602200ce9450f80cab6703d90240f758193766c8b20666adba42abc8ad3fd35b1d8f1[ALL] 03548dc53e5a41447638d64a160187d42921b3ec9c2580685ebae26de6b9406190"}, "vout": 0, "txid": "2097b7f40d12b94128ff53b4a2f8cc4574f236626b9dbd54ab961ff0f1c7f235"}], "txid": "f46b9cc096fdc637e26b5924a792d4fcb48ce46052a2a92d72e5d9945c4d6f60", "blocktime": 1537869901, "version": 2, "confirmations": 11522, "time": 1537869901, "locktime": 0, "vsize": 189, "size": 189}