{"hash": "f473f5cd2db7ac6a70c300fe576eecd4894ab5e4798c7f25ad5064db20e7cf6d", "blockhash": "0000000000000000000e13cef7c366c0283d82e591d1acd082e914b08063cdf1", "vout": [{"scriptPubKey": {"reqSigs": 1, "hex": "76a91441e3eb944aaf327ba4d31f640265b9d2e1ed1d5188ac", "addresses": ["171PxeNPVJdSaESEzmmyjGoucpQweJAdKn"], "asm": "OP_DUP OP_HASH160 41e3eb944aaf327ba4d31f640265b9d2e1ed1d51 OP_EQUALVERIFY OP_CHECKSIG", "type": "pubkeyhash"}, "value": 0.17164605, "n": 0}, {"scriptPubKey": {"reqSigs": 1, "hex": "76a914ada3883fe1e9b42f4313b96809289664022abe3e88ac", "addresses": ["1Gq7oc5fned7h8FZaxUkcyX1bAMn7fVoi3"], "asm": "OP_DUP OP_HASH160 ada3883fe1e9b42f4313b96809289664022abe3e OP_EQUALVERIFY OP_CHECKSIG", "type": "pubkeyhash"}, "value": 0.07832053, "n": 1}], "hex": "0100000001f55ed9205d8a66ee5e45f3e5c419434c725522d7abde24547a842295449dfb21030000006a47304402202e8b42f178a3d842c8e70414e18b9b6269e99b10b87cfcf0f0c4c61440c31ddc022001817233f1ca5845d1eac991dacc32486c6452451b24fe63e2a870cacbd0f4be0121035b3bb69deec16816c06b695937dff6dd5197c95b651ab45a5645572035d2f207ffffffff023de90501000000001976a91441e3eb944aaf327ba4d31f640265b9d2e1ed1d5188acf5817700000000001976a914ada3883fe1e9b42f4313b96809289664022abe3e88ac00000000", "vin": [{"sequence": 4294967295, "scriptSig": {"hex": "47304402202e8b42f178a3d842c8e70414e18b9b6269e99b10b87cfcf0f0c4c61440c31ddc022001817233f1ca5845d1eac991dacc32486c6452451b24fe63e2a870cacbd0f4be0121035b3bb69deec16816c06b695937dff6dd5197c95b651ab45a5645572035d2f207", "asm": "304402202e8b42f178a3d842c8e70414e18b9b6269e99b10b87cfcf0f0c4c61440c31ddc022001817233f1ca5845d1eac991dacc32486c6452451b24fe63e2a870cacbd0f4be[ALL] 035b3bb69deec16816c06b695937dff6dd5197c95b651ab45a5645572035d2f207"}, "vout": 3, "txid": "21fb9d449522847a5424deabd72255724c4319c4e5f3455eee668a5d20d95ef5"}], "txid": "f473f5cd2db7ac6a70c300fe576eecd4894ab5e4798c7f25ad5064db20e7cf6d", "blocktime": 1537871767, "version": 1, "confirmations": 11490, "time": 1537871767, "locktime": 0, "vsize": 225, "size": 225}