{"hash": "f4791e31f8aaa337bff06329c6a28840b828edf4d6476a4d497a30e65ac88fc6", "blockhash": "0000000000000000001f76057863aec43deb6fa401d9628bb513d65a8098bfab", "vout": [{"scriptPubKey": {"reqSigs": 1, "hex": "76a91457a58cabe882110b86020f6ab5b9183a0bf79c2f88ac", "addresses": ["18zS7GfNv2Jq7DdqbXacMhXCKKXUxHoXer"], "asm": "OP_DUP OP_HASH160 57a58cabe882110b86020f6ab5b9183a0bf79c2f OP_EQUALVERIFY OP_CHECKSIG", "type": "pubkeyhash"}, "value": 0.0056532, "n": 0}, {"scriptPubKey": {"reqSigs": 1, "hex": "76a9147b19080f3173c8d3c6b329e430d197d8351f241788ac", "addresses": ["1CDt6p9u3ExNkHZpPaq4nUx1NCYwdshDrh"], "asm": "OP_DUP OP_HASH160 7b19080f3173c8d3c6b329e430d197d8351f2417 OP_EQUALVERIFY OP_CHECKSIG", "type": "pubkeyhash"}, "value": 0.00689103, "n": 1}], "hex": "01000000018f9fd40ee1abd39854b3921598b7b2efab1d55504d309a26c9d0053069543915010000006a4730440220332f8bdb28a6f6058c9c0cdf29acfa7b4f31f412957baa55adf2ade6b2dd071102207dfd231e79716535909ac1a072022c17d2646803316c91f8b170f206e97570a301210392a87a6a02ee37341a49e5772cf43492166d9fa64f6185731fe45a8853b547f7feffffff0248a00800000000001976a91457a58cabe882110b86020f6ab5b9183a0bf79c2f88accf830a00000000001976a9147b19080f3173c8d3c6b329e430d197d8351f241788ac14490800", "vin": [{"sequence": 4294967294, "scriptSig": {"hex": "4730440220332f8bdb28a6f6058c9c0cdf29acfa7b4f31f412957baa55adf2ade6b2dd071102207dfd231e79716535909ac1a072022c17d2646803316c91f8b170f206e97570a301210392a87a6a02ee37341a49e5772cf43492166d9fa64f6185731fe45a8853b547f7", "asm": "30440220332f8bdb28a6f6058c9c0cdf29acfa7b4f31f412957baa55adf2ade6b2dd071102207dfd231e79716535909ac1a072022c17d2646803316c91f8b170f206e97570a3[ALL] 0392a87a6a02ee37341a49e5772cf43492166d9fa64f6185731fe45a8853b547f7"}, "vout": 1, "txid": "153954693005d0c9269a304d50551dabefb2b7981592b35498d3abe10ed49f8f"}], "txid": "f4791e31f8aaa337bff06329c6a28840b828edf4d6476a4d497a30e65ac88fc6", "blocktime": 1537873891, "version": 1, "confirmations": 11478, "time": 1537873891, "locktime": 542996, "vsize": 225, "size": 225}