{"hash": "f47c06afe87d08161043b83e219010a6f6941fb753cb2ddc7e24b892698bb887", "blockhash": "00000000000000000024a2167bbff67b0be802c0b01cdd79e6331c2be6459f87", "vout": [{"scriptPubKey": {"reqSigs": 1, "hex": "76a914ef3e70759ee6f0f7f56d23176d437a160aeaec4488ac", "addresses": ["1Np1JCw4ckZrnCqNHjhJCWgUAkqxY6TF4Y"], "asm": "OP_DUP OP_HASH160 ef3e70759ee6f0f7f56d23176d437a160aeaec44 OP_EQUALVERIFY OP_CHECKSIG", "type": "pubkeyhash"}, "value": 2.49550466, "n": 0}], "hex": "010000001028f6e4ebc05f22dd9ca393e86eaeaa46f0e71056eef500cd81599bc8b0544504000000006b483045022100f9c79d84c39e67984eb52a3979850bbcd0b91f831f8b47bce5ad14f770f5ffd7022029ca0a3766066627f45858cef24dc00e959392e6eebce45f6abdd4e3c7568473012103fb77895acafdbd63d4ba872a9a212a813d79fe9eab73c55af674e3bd59ca8b2effffffff37006f7a67b2d83ce359a4f8b4f725a8f34d9de19604df6ba38ff6908694290a040000006a47304402204816f74869a368a9057323ff7cebe6c1852ac69d0fb64cfa9bf9931e8f9115f3022008125c0a44d6dbb2ca9c088f7f1494f5aea5c79edc4893700991365a0389df1f012103f0dbaff2c4c49e699326dbff806997fcdd25576fcaeed7c54df6092d9ab0e38affffffff16965740d86680edfbf9fdf93d3d78e78aba9514e90664cc7f7389b4d17a274f000000006b483045022100b24cf430df79a916882ce1f7dc34cef101348a82c565292d62cff5c81b8a73f40220352776132acf3656c26d657eab0756892b59706e704e39b866fad202bfe2a700012103f2cf6e4d0d03eec27f78cd8fba4bf46ea6f60e9bbfd6663e00c0ec85ad601ce8ffffffff6f17185e5579b0f519cbfffe832f22688f19189490db206b7aaf85b05766cf6c0b0000006a47304402200e0388aacba610fdbfe2848f5a74d4fe51db3e0c3875c377fc2330b480be6eb0022065951e612424b1681ce89e972d1f84723cee5ff97abc0b7cc5f1e03ecfd1f803012102c72e1ea6809fbad3d2778647354ea6d1bf2227553a03d797abf567fa0aac71baffffffff49730cfa595ef5c04d3606c8f2c12414540ab8891602a542034b476500f80081070000006a47304402201b9c53ad2e6931e1dbcf6061af8d6f0a1b97a9f1716d08f3dfb419f71591dc3a02207b33300ab525701c83d2f9ca55185cd20e35e78aaa6a9f6ee591b4e4243525310121034aad826f4ad765b9ba7a60a9c23b8c984ece72c2ce284c7daaa526445cb7a3d3ffffffff17e05f0e256dad98be8ed7974e9e05ff0e2025c73a42b0c031a7b8d04a55eb880d0000006a473044022075d607914dae9139440ce217c4f45e7f5792b0b5dd20768241e2c6398edbf35602207d8434961f3f6a5caeed9c18fa8d27e3e4359b7777bff98ec4494e14374cb1010121034aad826f4ad765b9ba7a60a9c23b8c984ece72c2ce284c7daaa526445cb7a3d3ffffffffa9cef98e1a8a3b4163cebb924561682528cda8e6e6049bfa74d22f0b7e788c8d0f0000006a47304402201a5207ffb679073b136d769f2018fee3ca07f2584857b0a0bb1ccf1fb7c77fcb02205d8919ae9113b87d9a81a18310b4040302579336f2a628826a38e98d7ce862bc012103098b5bbfb2066964b4763d367008f5fed2172461e9e8e310cae859fdd1aee285ffffffffb24b5a0bed2136562c4d0e2eb191cc41fe201838d3d5c3df599912870177f38d0c0000006b483045022100c4cae204ed68812d798790803bf65029574af21dd1f28a200be2278388cf56e002201dcb022db1dfd02548354f59cdecde094118884b30df60f8b5e65fdd0e1895bd012103098b5bbfb2066964b4763d367008f5fed2172461e9e8e310cae859fdd1aee285ffffffffaad09b6def18203a130d92773b481ca779746198db25c8ab456c28b4bdd78a8e030000006a47304402207902560ad4e9eb78bf8cb6f61bf970aba6816212b5b6b41a8ff79876197976a202205d22e9ab72d08ac5451946bc2a0486c0ea8e21f4176576f97c4f6cda6ce7be00012103f0dbaff2c4c49e699326dbff806997fcdd25576fcaeed7c54df6092d9ab0e38affffffff72001fa34b07ac4e5101d715af87ced932f35c3d1e247e5852172d5a34b729ad000000006b483045022100e9828a14e1ee7b50f5486cb317f8057c3b7128372eae9a848fe8f9d18f186bc602204b156f3295e129360e593a9641b384c3b2ad3ef8b99c3195d60672d987e645ce012102c72e1ea6809fbad3d2778647354ea6d1bf2227553a03d797abf567fa0aac71baffffffff56f78f334f9515f935e587c25a0f332bd3ae3cbd11c585a685f0d68cbbfef8ad140000006b483045022100bc20c1d438f17cb5e5b4e2d8326e1ce8a9a8f04dae3fd21a76cf486f2c33c083022000ae21a73236cd15e17cd60b30c08d4b987af174d73109ac57cdc20b7920f140012103098b5bbfb2066964b4763d367008f5fed2172461e9e8e310cae859fdd1aee285ffffffff96945a8e5db32f1e9efd459dd61fd1c509288853e5d1469630dd23a422bddaae080000006b48304502210090e81bcff9354cf3876627168113ac79362bfd0f99ccdd91814dd7c702e5a9cc022037ab6f7e42f660d7088e9285ab83c6cf5f90a4dbe4bc2993fa76c7f60c27a6d9012103098b5bbfb2066964b4763d367008f5fed2172461e9e8e310cae859fdd1aee285ffffffffb4ea0b763a37ba9939b0740b640350f079426816b62170a53c3f1c711f4bc4b2030000006b483045022100df29e5b33cb7c28a11e91b86a9ccd9ad24e21a5db39c0b573eb8b750815bc7e5022016f1f5c443b31680e06ecd92418184948d021b1a1a2ba77b2c328e3074186a700121034aad826f4ad765b9ba7a60a9c23b8c984ece72c2ce284c7daaa526445cb7a3d3fffffffff8b9b25fc6c5dce5c1b3d7a6f030b8a7cad58dee0810f47f334a8094c2134ed2000000006b483045022100cf08dc4db40d0c83d272073f3928e7d6040baff9c702da177c99d903896a3b8202202c6e3e098b7110e1dc58ac0072685d88c2796abe323b47c21b4f7450a9a0d537012102c72e1ea6809fbad3d2778647354ea6d1bf2227553a03d797abf567fa0aac71baffffffff152d5af43490d7bf2a50f7038d5d93544ab86a34d848dba76c1c425c1cbb0fe5000000006b483045022100ff4c90bfbfa0d59c3d60d1d192df8f22ae1eeb832798de959dafadd5d773135d0220526712204cf8bfcee0a9eee18cb6a669954c3b923e4759c8c5785e717b5b7c1a0121025cf9024e209919ceb366aecc650ae514fb169ab6e7c721c7b73c8b079a25a9b3ffffffff63eccf5b2470b461e1ac402af8ed941374f5d27c43a68e563e3cf1a4c04637e8050000006a47304402204a2818eebdd48b97369c39abc8dc9564bc4b62882844fc980346705735052e2c0220296efa61b808ab5a68576efcc333b97d3c37ea0479e9522c5dded272aa31f5ce012103098b5bbfb2066964b4763d367008f5fed2172461e9e8e310cae859fdd1aee285ffffffff0182d6df0e000000001976a914ef3e70759ee6f0f7f56d23176d437a160aeaec4488ac00000000", "vin": [{"sequence": 4294967295, "scriptSig": {"hex": "483045022100f9c79d84c39e67984eb52a3979850bbcd0b91f831f8b47bce5ad14f770f5ffd7022029ca0a3766066627f45858cef24dc00e959392e6eebce45f6abdd4e3c7568473012103fb77895acafdbd63d4ba872a9a212a813d79fe9eab73c55af674e3bd59ca8b2e", "asm": "3045022100f9c79d84c39e67984eb52a3979850bbcd0b91f831f8b47bce5ad14f770f5ffd7022029ca0a3766066627f45858cef24dc00e959392e6eebce45f6abdd4e3c7568473[ALL] 03fb77895acafdbd63d4ba872a9a212a813d79fe9eab73c55af674e3bd59ca8b2e"}, "vout": 0, "txid": "044554b0c89b5981cd00f5ee5610e7f046aaae6ee893a39cdd225fc0ebe4f628"}, {"sequence": 4294967295, "scriptSig": {"hex": "47304402204816f74869a368a9057323ff7cebe6c1852ac69d0fb64cfa9bf9931e8f9115f3022008125c0a44d6dbb2ca9c088f7f1494f5aea5c79edc4893700991365a0389df1f012103f0dbaff2c4c49e699326dbff806997fcdd25576fcaeed7c54df6092d9ab0e38a", "asm": "304402204816f74869a368a9057323ff7cebe6c1852ac69d0fb64cfa9bf9931e8f9115f3022008125c0a44d6dbb2ca9c088f7f1494f5aea5c79edc4893700991365a0389df1f[ALL] 03f0dbaff2c4c49e699326dbff806997fcdd25576fcaeed7c54df6092d9ab0e38a"}, "vout": 4, "txid": "0a29948690f68fa36bdf0496e19d4df3a825f7b4f8a459e33cd8b2677a6f0037"}, {"sequence": 4294967295, "scriptSig": {"hex": "483045022100b24cf430df79a916882ce1f7dc34cef101348a82c565292d62cff5c81b8a73f40220352776132acf3656c26d657eab0756892b59706e704e39b866fad202bfe2a700012103f2cf6e4d0d03eec27f78cd8fba4bf46ea6f60e9bbfd6663e00c0ec85ad601ce8", "asm": "3045022100b24cf430df79a916882ce1f7dc34cef101348a82c565292d62cff5c81b8a73f40220352776132acf3656c26d657eab0756892b59706e704e39b866fad202bfe2a700[ALL] 03f2cf6e4d0d03eec27f78cd8fba4bf46ea6f60e9bbfd6663e00c0ec85ad601ce8"}, "vout": 0, "txid": "4f277ad1b489737fcc6406e91495ba8ae7783d3df9fdf9fbed8066d840579616"}, {"sequence": 4294967295, "scriptSig": {"hex": "47304402200e0388aacba610fdbfe2848f5a74d4fe51db3e0c3875c377fc2330b480be6eb0022065951e612424b1681ce89e972d1f84723cee5ff97abc0b7cc5f1e03ecfd1f803012102c72e1ea6809fbad3d2778647354ea6d1bf2227553a03d797abf567fa0aac71ba", "asm": "304402200e0388aacba610fdbfe2848f5a74d4fe51db3e0c3875c377fc2330b480be6eb0022065951e612424b1681ce89e972d1f84723cee5ff97abc0b7cc5f1e03ecfd1f803[ALL] 02c72e1ea6809fbad3d2778647354ea6d1bf2227553a03d797abf567fa0aac71ba"}, "vout": 11, "txid": "6ccf6657b085af7a6b20db909418198f68222f83feffcb19f5b079555e18176f"}, {"sequence": 4294967295, "scriptSig": {"hex": "47304402201b9c53ad2e6931e1dbcf6061af8d6f0a1b97a9f1716d08f3dfb419f71591dc3a02207b33300ab525701c83d2f9ca55185cd20e35e78aaa6a9f6ee591b4e4243525310121034aad826f4ad765b9ba7a60a9c23b8c984ece72c2ce284c7daaa526445cb7a3d3", "asm": "304402201b9c53ad2e6931e1dbcf6061af8d6f0a1b97a9f1716d08f3dfb419f71591dc3a02207b33300ab525701c83d2f9ca55185cd20e35e78aaa6a9f6ee591b4e424352531[ALL] 034aad826f4ad765b9ba7a60a9c23b8c984ece72c2ce284c7daaa526445cb7a3d3"}, "vout": 7, "txid": "8100f80065474b0342a5021689b80a541424c1f2c806364dc0f55e59fa0c7349"}, {"sequence": 4294967295, "scriptSig": {"hex": "473044022075d607914dae9139440ce217c4f45e7f5792b0b5dd20768241e2c6398edbf35602207d8434961f3f6a5caeed9c18fa8d27e3e4359b7777bff98ec4494e14374cb1010121034aad826f4ad765b9ba7a60a9c23b8c984ece72c2ce284c7daaa526445cb7a3d3", "asm": "3044022075d607914dae9139440ce217c4f45e7f5792b0b5dd20768241e2c6398edbf35602207d8434961f3f6a5caeed9c18fa8d27e3e4359b7777bff98ec4494e14374cb101[ALL] 034aad826f4ad765b9ba7a60a9c23b8c984ece72c2ce284c7daaa526445cb7a3d3"}, "vout": 13, "txid": "88eb554ad0b8a731c0b0423ac725200eff059e4e97d78ebe98ad6d250e5fe017"}, {"sequence": 4294967295, "scriptSig": {"hex": "47304402201a5207ffb679073b136d769f2018fee3ca07f2584857b0a0bb1ccf1fb7c77fcb02205d8919ae9113b87d9a81a18310b4040302579336f2a628826a38e98d7ce862bc012103098b5bbfb2066964b4763d367008f5fed2172461e9e8e310cae859fdd1aee285", "asm": "304402201a5207ffb679073b136d769f2018fee3ca07f2584857b0a0bb1ccf1fb7c77fcb02205d8919ae9113b87d9a81a18310b4040302579336f2a628826a38e98d7ce862bc[ALL] 03098b5bbfb2066964b4763d367008f5fed2172461e9e8e310cae859fdd1aee285"}, "vout": 15, "txid": "8d8c787e0b2fd274fa9b04e6e6a8cd282568614592bbce63413b8a1a8ef9cea9"}, {"sequence": 4294967295, "scriptSig": {"hex": "483045022100c4cae204ed68812d798790803bf65029574af21dd1f28a200be2278388cf56e002201dcb022db1dfd02548354f59cdecde094118884b30df60f8b5e65fdd0e1895bd012103098b5bbfb2066964b4763d367008f5fed2172461e9e8e310cae859fdd1aee285", "asm": "3045022100c4cae204ed68812d798790803bf65029574af21dd1f28a200be2278388cf56e002201dcb022db1dfd02548354f59cdecde094118884b30df60f8b5e65fdd0e1895bd[ALL] 03098b5bbfb2066964b4763d367008f5fed2172461e9e8e310cae859fdd1aee285"}, "vout": 12, "txid": "8df3770187129959dfc3d5d3381820fe41cc91b12e0e4d2c563621ed0b5a4bb2"}, {"sequence": 4294967295, "scriptSig": {"hex": "47304402207902560ad4e9eb78bf8cb6f61bf970aba6816212b5b6b41a8ff79876197976a202205d22e9ab72d08ac5451946bc2a0486c0ea8e21f4176576f97c4f6cda6ce7be00012103f0dbaff2c4c49e699326dbff806997fcdd25576fcaeed7c54df6092d9ab0e38a", "asm": "304402207902560ad4e9eb78bf8cb6f61bf970aba6816212b5b6b41a8ff79876197976a202205d22e9ab72d08ac5451946bc2a0486c0ea8e21f4176576f97c4f6cda6ce7be00[ALL] 03f0dbaff2c4c49e699326dbff806997fcdd25576fcaeed7c54df6092d9ab0e38a"}, "vout": 3, "txid": "8e8ad7bdb4286c45abc825db98617479a71c483b77920d133a2018ef6d9bd0aa"}, {"sequence": 4294967295, "scriptSig": {"hex": "483045022100e9828a14e1ee7b50f5486cb317f8057c3b7128372eae9a848fe8f9d18f186bc602204b156f3295e129360e593a9641b384c3b2ad3ef8b99c3195d60672d987e645ce012102c72e1ea6809fbad3d2778647354ea6d1bf2227553a03d797abf567fa0aac71ba", "asm": "3045022100e9828a14e1ee7b50f5486cb317f8057c3b7128372eae9a848fe8f9d18f186bc602204b156f3295e129360e593a9641b384c3b2ad3ef8b99c3195d60672d987e645ce[ALL] 02c72e1ea6809fbad3d2778647354ea6d1bf2227553a03d797abf567fa0aac71ba"}, "vout": 0, "txid": "ad29b7345a2d1752587e241e3d5cf332d9ce87af15d701514eac074ba31f0072"}, {"sequence": 4294967295, "scriptSig": {"hex": "483045022100bc20c1d438f17cb5e5b4e2d8326e1ce8a9a8f04dae3fd21a76cf486f2c33c083022000ae21a73236cd15e17cd60b30c08d4b987af174d73109ac57cdc20b7920f140012103098b5bbfb2066964b4763d367008f5fed2172461e9e8e310cae859fdd1aee285", "asm": "3045022100bc20c1d438f17cb5e5b4e2d8326e1ce8a9a8f04dae3fd21a76cf486f2c33c083022000ae21a73236cd15e17cd60b30c08d4b987af174d73109ac57cdc20b7920f140[ALL] 03098b5bbfb2066964b4763d367008f5fed2172461e9e8e310cae859fdd1aee285"}, "vout": 20, "txid": "adf8febb8cd6f085a685c511bd3caed32b330f5ac287e535f915954f338ff756"}, {"sequence": 4294967295, "scriptSig": {"hex": "48304502210090e81bcff9354cf3876627168113ac79362bfd0f99ccdd91814dd7c702e5a9cc022037ab6f7e42f660d7088e9285ab83c6cf5f90a4dbe4bc2993fa76c7f60c27a6d9012103098b5bbfb2066964b4763d367008f5fed2172461e9e8e310cae859fdd1aee285", "asm": "304502210090e81bcff9354cf3876627168113ac79362bfd0f99ccdd91814dd7c702e5a9cc022037ab6f7e42f660d7088e9285ab83c6cf5f90a4dbe4bc2993fa76c7f60c27a6d9[ALL] 03098b5bbfb2066964b4763d367008f5fed2172461e9e8e310cae859fdd1aee285"}, "vout": 8, "txid": "aedabd22a423dd309646d1e553882809c5d11fd69d45fd9e1e2fb35d8e5a9496"}, {"sequence": 4294967295, "scriptSig": {"hex": "483045022100df29e5b33cb7c28a11e91b86a9ccd9ad24e21a5db39c0b573eb8b750815bc7e5022016f1f5c443b31680e06ecd92418184948d021b1a1a2ba77b2c328e3074186a700121034aad826f4ad765b9ba7a60a9c23b8c984ece72c2ce284c7daaa526445cb7a3d3", "asm": "3045022100df29e5b33cb7c28a11e91b86a9ccd9ad24e21a5db39c0b573eb8b750815bc7e5022016f1f5c443b31680e06ecd92418184948d021b1a1a2ba77b2c328e3074186a70[ALL] 034aad826f4ad765b9ba7a60a9c23b8c984ece72c2ce284c7daaa526445cb7a3d3"}, "vout": 3, "txid": "b2c44b1f711c3f3ca57021b616684279f05003640b74b03999ba373a760beab4"}, {"sequence": 4294967295, "scriptSig": {"hex": "483045022100cf08dc4db40d0c83d272073f3928e7d6040baff9c702da177c99d903896a3b8202202c6e3e098b7110e1dc58ac0072685d88c2796abe323b47c21b4f7450a9a0d537012102c72e1ea6809fbad3d2778647354ea6d1bf2227553a03d797abf567fa0aac71ba", "asm": "3045022100cf08dc4db40d0c83d272073f3928e7d6040baff9c702da177c99d903896a3b8202202c6e3e098b7110e1dc58ac0072685d88c2796abe323b47c21b4f7450a9a0d537[ALL] 02c72e1ea6809fbad3d2778647354ea6d1bf2227553a03d797abf567fa0aac71ba"}, "vout": 0, "txid": "d24e13c294804a337ff41008ee8dd5caa7b830f0a6d7b3c1e5dcc5c65fb2b9f8"}, {"sequence": 4294967295, "scriptSig": {"hex": "483045022100ff4c90bfbfa0d59c3d60d1d192df8f22ae1eeb832798de959dafadd5d773135d0220526712204cf8bfcee0a9eee18cb6a669954c3b923e4759c8c5785e717b5b7c1a0121025cf9024e209919ceb366aecc650ae514fb169ab6e7c721c7b73c8b079a25a9b3", "asm": "3045022100ff4c90bfbfa0d59c3d60d1d192df8f22ae1eeb832798de959dafadd5d773135d0220526712204cf8bfcee0a9eee18cb6a669954c3b923e4759c8c5785e717b5b7c1a[ALL] 025cf9024e209919ceb366aecc650ae514fb169ab6e7c721c7b73c8b079a25a9b3"}, "vout": 0, "txid": "e50fbb1c5c421c6ca7db48d8346ab84a54935d8d03f7502abfd79034f45a2d15"}, {"sequence": 4294967295, "scriptSig": {"hex": "47304402204a2818eebdd48b97369c39abc8dc9564bc4b62882844fc980346705735052e2c0220296efa61b808ab5a68576efcc333b97d3c37ea0479e9522c5dded272aa31f5ce012103098b5bbfb2066964b4763d367008f5fed2172461e9e8e310cae859fdd1aee285", "asm": "304402204a2818eebdd48b97369c39abc8dc9564bc4b62882844fc980346705735052e2c0220296efa61b808ab5a68576efcc333b97d3c37ea0479e9522c5dded272aa31f5ce[ALL] 03098b5bbfb2066964b4763d367008f5fed2172461e9e8e310cae859fdd1aee285"}, "vout": 5, "txid": "e83746c0a4f13c3e568ea6437cd2f5741394edf82a40ace161b470245bcfec63"}], "txid": "f47c06afe87d08161043b83e219010a6f6941fb753cb2ddc7e24b892698bb887", "blocktime": 1537870564, "version": 1, "confirmations": 11515, "time": 1537870564, "locktime": 0, "vsize": 2405, "size": 2405}