{"hash": "f47d5cf30ff1eb02ebc7445ed0793b3d76cc581dd5bbae27597440a63ec29972", "blockhash": "0000000000000000000e13cef7c366c0283d82e591d1acd082e914b08063cdf1", "vout": [{"scriptPubKey": {"type": "nulldata", "hex": "6a146f6d6e69000000000000001f000000938f890b4e", "asm": "OP_RETURN 6f6d6e69000000000000001f000000938f890b4e"}, "value": 0.0, "n": 0}, {"scriptPubKey": {"reqSigs": 1, "hex": "76a914a25dec4d0011064ef106a983c39c7a540699f22088ac", "addresses": ["1FoWyxwPXuj4C6abqwhjDWdz6D4PZgYRjA"], "asm": "OP_DUP OP_HASH160 a25dec4d0011064ef106a983c39c7a540699f220 OP_EQUALVERIFY OP_CHECKSIG", "type": "pubkeyhash"}, "value": 0.0198558, "n": 1}, {"scriptPubKey": {"reqSigs": 1, "hex": "76a914b62d1f1da8e363578225d7654951bc808c5719c088ac", "addresses": ["1HcG31mC9KUAWVoS4HtszsA3qoMjqubFUn"], "asm": "OP_DUP OP_HASH160 b62d1f1da8e363578225d7654951bc808c5719c0 OP_EQUALVERIFY OP_CHECKSIG", "type": "pubkeyhash"}, "value": 5.46e-06, "n": 2}], "hex": "0100000001214e44ae4f5dd43647993437ddfbb8a13e96f568270c4ad381c570b91d53ea43010000006a473044022042d78ab5828f4f54668b46b768aca1ad53c79cab50f5e557c0cdfed7d6ccb7f902202db593d2457eafd4cbed14ac6403a8ffc7ff3d9318ad04ef446418c9cb94417e012103da5bac7b36d5aa38f531c6b9601e21bb598a4b6716ebed38b009a55dabde9440feffffff030000000000000000166a146f6d6e69000000000000001f000000938f890b4e2c4c1e00000000001976a914a25dec4d0011064ef106a983c39c7a540699f22088ac22020000000000001976a914b62d1f1da8e363578225d7654951bc808c5719c088ac0f490800", "vin": [{"sequence": 4294967294, "scriptSig": {"hex": "473044022042d78ab5828f4f54668b46b768aca1ad53c79cab50f5e557c0cdfed7d6ccb7f902202db593d2457eafd4cbed14ac6403a8ffc7ff3d9318ad04ef446418c9cb94417e012103da5bac7b36d5aa38f531c6b9601e21bb598a4b6716ebed38b009a55dabde9440", "asm": "3044022042d78ab5828f4f54668b46b768aca1ad53c79cab50f5e557c0cdfed7d6ccb7f902202db593d2457eafd4cbed14ac6403a8ffc7ff3d9318ad04ef446418c9cb94417e[ALL] 03da5bac7b36d5aa38f531c6b9601e21bb598a4b6716ebed38b009a55dabde9440"}, "vout": 1, "txid": "43ea531db970c581d34a0c2768f5963ea1b8fbdd3734994736d45d4fae444e21"}], "txid": "f47d5cf30ff1eb02ebc7445ed0793b3d76cc581dd5bbae27597440a63ec29972", "blocktime": 1537871767, "version": 1, "confirmations": 11490, "time": 1537871767, "locktime": 542991, "vsize": 256, "size": 256}