{"hash": "041e950d2d1af0ced9c45ed49b062d5867d7e6af28ad7737d1d765833257c6ee", "blockhash": "0000000000000000001f76057863aec43deb6fa401d9628bb513d65a8098bfab", "vout": [{"scriptPubKey": {"reqSigs": 1, "hex": "a914047a27182e2d02eee6f9c742ce8bba4629fb457387", "addresses": ["326gxdWk27XqzzWAem9pQxqMRo2uF6MBvq"], "asm": "OP_HASH160 047a27182e2d02eee6f9c742ce8bba4629fb4573 OP_EQUAL", "type": "scripthash"}, "value": 0.01430979, "n": 0}, {"scriptPubKey": {"reqSigs": 1, "hex": "0014e55e6e64716db49d855b2fd43041deb873b0ed3b", "addresses": ["bc1qu40xuer3dk6fmp2m9l2rqsw7hpempmfmdgqhss"], "asm": "0 e55e6e64716db49d855b2fd43041deb873b0ed3b", "type": "witness_v0_keyhash"}, "value": 0.00039431, "n": 1}], "hex": "01000000000101e5ef3dafdaac3b86f7a1247acc35d9c946d88327dfe9634f1fb8d2e6a3061aee0000000000ffffffff02c3d515000000000017a914047a27182e2d02eee6f9c742ce8bba4629fb457387079a000000000000160014e55e6e64716db49d855b2fd43041deb873b0ed3b02483045022100fb203e3b57d913793cb06be01a05e9c465c732fd217602c86f481e41d177e9df02207fafa9365be513ac85c1e752d2cc109ee72431d5966845f9e54cd33e804abac9012103e1529bba3636e24093ac368f74a41f2b64b25a78636890c90234fe5dae3978b900000000", "vin": [{"txinwitness": ["3045022100fb203e3b57d913793cb06be01a05e9c465c732fd217602c86f481e41d177e9df02207fafa9365be513ac85c1e752d2cc109ee72431d5966845f9e54cd33e804abac901", "03e1529bba3636e24093ac368f74a41f2b64b25a78636890c90234fe5dae3978b9"], "sequence": 4294967295, "scriptSig": {"hex": "", "asm": ""}, "vout": 0, "txid": "ee1a06a3e6d2b81f4f63e9df2783d846c9d935cc7a24a1f7863bacdaaf3defe5"}], "txid": "f47e27e0689c72e02ca6856e255ddb16aeca7161b1716c169e956589c6aa40d3", "blocktime": 1537873891, "version": 1, "confirmations": 11478, "time": 1537873891, "locktime": 0, "vsize": 142, "size": 224}