{"hash": "5e23a3b394fbb5456a47ea0e34b03979bb344a68802e6b9dfb6f91e5186cd513", "blockhash": "0000000000000000000baef3f32e3676a92c3b2e5da21b426e4f302fc371ce76", "vout": [{"scriptPubKey": {"reqSigs": 1, "hex": "a914abc68822ba793e250aea3d548a6f0c76bbfa2bc987", "addresses": ["3HMHJaQ7b4gHiHZ1fk2jZypq9xdWZmK9QL"], "asm": "OP_HASH160 abc68822ba793e250aea3d548a6f0c76bbfa2bc9 OP_EQUAL", "type": "scripthash"}, "value": 0.0093, "n": 0}, {"scriptPubKey": {"reqSigs": 1, "hex": "76a914519d01622470d38f47ec8b3231c0fd59e7ec591d88ac", "addresses": ["18SXpTy9Hift81NK6QjCBP4AjLaoNStzvd"], "asm": "OP_DUP OP_HASH160 519d01622470d38f47ec8b3231c0fd59e7ec591d OP_EQUALVERIFY OP_CHECKSIG", "type": "pubkeyhash"}, "value": 0.13583655, "n": 1}, {"scriptPubKey": {"reqSigs": 1, "hex": "76a9146c5eb7595c995d826b4d11b0e6b1790931a3e5db88ac", "addresses": ["1At1SiUjeJjMiaceVsxGXcwWoT1T8MXb8w"], "asm": "OP_DUP OP_HASH160 6c5eb7595c995d826b4d11b0e6b1790931a3e5db OP_EQUALVERIFY OP_CHECKSIG", "type": "pubkeyhash"}, "value": 0.00147279, "n": 2}, {"scriptPubKey": {"reqSigs": 1, "hex": "a914c572516349dedc61dd5d9f6b92070ba3ff4e9ef387", "addresses": ["3Kh1zHMUersUmfgRZoKto8pAe7Y8YiSvXG"], "asm": "OP_HASH160 c572516349dedc61dd5d9f6b92070ba3ff4e9ef3 OP_EQUAL", "type": "scripthash"}, "value": 0.001017, "n": 3}, {"scriptPubKey": {"reqSigs": 1, "hex": "76a914c93aac0acef345c2dba90668dfed174795bfcc1988ac", "addresses": ["1KM17ASNpfyx2fNraQgk6EW4eQnRC83pDT"], "asm": "OP_DUP OP_HASH160 c93aac0acef345c2dba90668dfed174795bfcc19 OP_EQUALVERIFY OP_CHECKSIG", "type": "pubkeyhash"}, "value": 0.0090922, "n": 4}, {"scriptPubKey": {"reqSigs": 1, "hex": "76a914099da16906bd4c15f726cda816c1dc9d9f99284688ac", "addresses": ["1sqv616RK693pc65weHAzsfdU5FrGXL8g"], "asm": "OP_DUP OP_HASH160 099da16906bd4c15f726cda816c1dc9d9f992846 OP_EQUALVERIFY OP_CHECKSIG", "type": "pubkeyhash"}, "value": 0.02, "n": 5}, {"scriptPubKey": {"reqSigs": 1, "hex": "76a914349522d47a56dd5fbbf4a84f76ff2d1a63f958c188ac", "addresses": ["15o2o8Y3xfiU1fngssodHrmDxqSs7cMoWh"], "asm": "OP_DUP OP_HASH160 349522d47a56dd5fbbf4a84f76ff2d1a63f958c1 OP_EQUALVERIFY OP_CHECKSIG", "type": "pubkeyhash"}, "value": 0.0184602, "n": 6}, {"scriptPubKey": {"reqSigs": 1, "hex": "a91469f374b5863df9359ebcf1726635afbaafa0cba587", "addresses": ["3BMEXJEy6yEpqKZzoma9EbJTY7m2k1k4XS"], "asm": "OP_HASH160 69f374b5863df9359ebcf1726635afbaafa0cba5 OP_EQUAL", "type": "scripthash"}, "value": 0.00181873, "n": 7}, {"scriptPubKey": {"reqSigs": 1, "hex": "76a914581b88e58900ef2611830b50807f1742b2ad630f88ac", "addresses": ["192sT2hHH9sZk8iN99yd2Sj9boC8mLJ8oN"], "asm": "OP_DUP OP_HASH160 581b88e58900ef2611830b50807f1742b2ad630f OP_EQUALVERIFY OP_CHECKSIG", "type": "pubkeyhash"}, "value": 0.00321875, "n": 8}, {"scriptPubKey": {"reqSigs": 1, "hex": "76a9149f3bc22257cadff5e1841c565f35a20b1e38345488ac", "addresses": ["1FWx2apP24o7QFz1opw8NXH1uNAJvhwUWt"], "asm": "OP_DUP OP_HASH160 9f3bc22257cadff5e1841c565f35a20b1e383454 OP_EQUALVERIFY OP_CHECKSIG", "type": "pubkeyhash"}, "value": 0.01816315, "n": 9}, {"scriptPubKey": {"reqSigs": 1, "hex": "76a914ecc1e88c22d47cc56955ef60320df0b44a7e652188ac", "addresses": ["1NarmGFifpsSTyVJtQUqLP9NwRszGLi2Fe"], "asm": "OP_DUP OP_HASH160 ecc1e88c22d47cc56955ef60320df0b44a7e6521 OP_EQUALVERIFY OP_CHECKSIG", "type": "pubkeyhash"}, "value": 0.0288118, "n": 10}, {"scriptPubKey": {"reqSigs": 1, "hex": "76a9148eb95a06ca73860550319ec3c3be57feae3afb3a88ac", "addresses": ["1E1ezhZyHk6gMrwTb1frfv4BbPPND4yTTQ"], "asm": "OP_DUP OP_HASH160 8eb95a06ca73860550319ec3c3be57feae3afb3a OP_EQUALVERIFY OP_CHECKSIG", "type": "pubkeyhash"}, "value": 0.0003, "n": 11}, {"scriptPubKey": {"reqSigs": 1, "hex": "a914f6b3f1cd03226283cb7279f304a4aedfeb0605f887", "addresses": ["3QBTiVvWVajWLrgatkvcjKAkpwYn223hmD"], "asm": "OP_HASH160 f6b3f1cd03226283cb7279f304a4aedfeb0605f8 OP_EQUAL", "type": "scripthash"}, "value": 0.09100509, "n": 12}, {"scriptPubKey": {"reqSigs": 1, "hex": "76a91461adc5c15e9b11becd56254af0838c2780d6edec88ac", "addresses": ["19uUiXp9x9yW3uDK8oPFUYqqUtkKdiXra1"], "asm": "OP_DUP OP_HASH160 61adc5c15e9b11becd56254af0838c2780d6edec OP_EQUALVERIFY OP_CHECKSIG", "type": "pubkeyhash"}, "value": 0.03, "n": 13}, {"scriptPubKey": {"reqSigs": 1, "hex": "a9142221727e98e1e865b97146c31f2bb1ceb6cc306887", "addresses": ["34oUy2BmNs7WZ1kaF5fBcEriL72iErX8Yi"], "asm": "OP_HASH160 2221727e98e1e865b97146c31f2bb1ceb6cc3068 OP_EQUAL", "type": "scripthash"}, "value": 0.0475, "n": 14}, {"scriptPubKey": {"reqSigs": 1, "hex": "76a9146f708dcef075eab040ed25e252dbdeb8018e882d88ac", "addresses": ["1BAEqgKdTd7f5CEoA8xzArhHpBqvjr1NQ5"], "asm": "OP_DUP OP_HASH160 6f708dcef075eab040ed25e252dbdeb8018e882d OP_EQUALVERIFY OP_CHECKSIG", "type": "pubkeyhash"}, "value": 0.00482813, "n": 15}, {"scriptPubKey": {"reqSigs": 1, "hex": "76a914ced2209307862eff0d72bccb2cc246d31c8b65a888ac", "addresses": ["1KrZvR1MNwW66SyvcqJzkpJkto4zgG5Q2Q"], "asm": "OP_DUP OP_HASH160 ced2209307862eff0d72bccb2cc246d31c8b65a8 OP_EQUALVERIFY OP_CHECKSIG", "type": "pubkeyhash"}, "value": 0.0369266, "n": 16}, {"scriptPubKey": {"reqSigs": 1, "hex": "a9146ee505efd790e86cc930f7e817dbec247990a9d887", "addresses": ["3BoNcTN9Fyt66wjATyNpiPQT16cf61EfbS"], "asm": "OP_HASH160 6ee505efd790e86cc930f7e817dbec247990a9d8 OP_EQUAL", "type": "scripthash"}, "value": 0.062371, "n": 17}, {"scriptPubKey": {"reqSigs": 1, "hex": "76a91466c350220cac0d48b9387417600be413b1dbc83688ac", "addresses": ["1ANMu9tQ4wsFG2EL8LkK6ddoz371cV4JNs"], "asm": "OP_DUP OP_HASH160 66c350220cac0d48b9387417600be413b1dbc836 OP_EQUALVERIFY OP_CHECKSIG", "type": "pubkeyhash"}, "value": 0.00321731, "n": 18}, {"scriptPubKey": {"reqSigs": 1, "hex": "76a914160290cd48dfa31a14c6f910c0ef21f4d5b3548488ac", "addresses": ["131NwV3c8psyCnTGkLMPe5F5rBDc8gqgEy"], "asm": "OP_DUP OP_HASH160 160290cd48dfa31a14c6f910c0ef21f4d5b35484 OP_EQUALVERIFY OP_CHECKSIG", "type": "pubkeyhash"}, "value": 0.05459493, "n": 19}, {"scriptPubKey": {"reqSigs": 1, "hex": "a914e551d8284652bd0ec1986ce511f9f93d70d52ae587", "addresses": ["3NbYi7rn5Nnp3D8gMBFXh8BD8gYTknQCZd"], "asm": "OP_HASH160 e551d8284652bd0ec1986ce511f9f93d70d52ae5 OP_EQUAL", "type": "scripthash"}, "value": 0.06464899, "n": 20}, {"scriptPubKey": {"reqSigs": 1, "hex": "76a914b7763fde84f15dfc5a38c9e4ac9b9708ee0d886688ac", "addresses": ["1Hj4KDxtNjjHNHCuvC99ykpM6dMNR3PQ6E"], "asm": "OP_DUP OP_HASH160 b7763fde84f15dfc5a38c9e4ac9b9708ee0d8866 OP_EQUALVERIFY OP_CHECKSIG", "type": "pubkeyhash"}, "value": 0.04258685, "n": 21}, {"scriptPubKey": {"reqSigs": 1, "hex": "a9146c424a0d3de404ae1e536f73618a21918c1aedc287", "addresses": ["3BZSK7vtys3d7XgWgJ4tdu61pTi1yC4U6P"], "asm": "OP_HASH160 6c424a0d3de404ae1e536f73618a21918c1aedc2 OP_EQUAL", "type": "scripthash"}, "value": 0.64, "n": 22}, {"scriptPubKey": {"reqSigs": 1, "hex": "76a914db5cad1ca4a48e4410f740133018dca075ab176588ac", "addresses": ["1Lzt1GWXX8J61gkgJ2qGmwSQZGVuyqDWx3"], "asm": "OP_DUP OP_HASH160 db5cad1ca4a48e4410f740133018dca075ab1765 OP_EQUALVERIFY OP_CHECKSIG", "type": "pubkeyhash"}, "value": 0.0002, "n": 23}, {"scriptPubKey": {"reqSigs": 1, "hex": "a9140c583780f1692708a0e8eb1d93864984a2c7b1a487", "addresses": ["32pHiFsYcings5fLFNeGEsXoZWpDAnkq12"], "asm": "OP_HASH160 0c583780f1692708a0e8eb1d93864984a2c7b1a4 OP_EQUAL", "type": "scripthash"}, "value": 0.0236402, "n": 24}, {"scriptPubKey": {"reqSigs": 1, "hex": "76a914d780f2e21aa4d33d9dd3e30f9f84a9f47cfb87a488ac", "addresses": ["1LeUkm7myRpnVnwfkh5zWPqBsYHu46p8hk"], "asm": "OP_DUP OP_HASH160 d780f2e21aa4d33d9dd3e30f9f84a9f47cfb87a4 OP_EQUALVERIFY OP_CHECKSIG", "type": "pubkeyhash"}, "value": 0.3, "n": 25}, {"scriptPubKey": {"reqSigs": 1, "hex": "76a9143075def9316189f42b250a2ae8b58c5cdc14f49e88ac", "addresses": ["15REe2cZudnKJcwAbuLQZ7GDs6ZV87M1Zf"], "asm": "OP_DUP OP_HASH160 3075def9316189f42b250a2ae8b58c5cdc14f49e OP_EQUALVERIFY OP_CHECKSIG", "type": "pubkeyhash"}, "value": 0.00363812, "n": 26}, {"scriptPubKey": {"reqSigs": 1, "hex": "76a9142d276be8fa327443e1317bbf2e74da85c3e5d18788ac", "addresses": ["157kdgtwgS2MwP8dwWKy75gPW4VFsgH6Dk"], "asm": "OP_DUP OP_HASH160 2d276be8fa327443e1317bbf2e74da85c3e5d187 OP_EQUALVERIFY OP_CHECKSIG", "type": "pubkeyhash"}, "value": 0.004294, "n": 27}, {"scriptPubKey": {"reqSigs": 1, "hex": "a914dbfc340d87dd3f4c55120ad3ae1f9db2f6295c2f87", "addresses": ["3MkC2x1fp8D9dGjKZ2AR22wvRGWd1i6Xm7"], "asm": "OP_HASH160 dbfc340d87dd3f4c55120ad3ae1f9db2f6295c2f OP_EQUAL", "type": "scripthash"}, "value": 0.1076, "n": 28}, {"scriptPubKey": {"reqSigs": 1, "hex": "76a9149e9de50f19223c355877310a0833e7c97ff042bc88ac", "addresses": ["1FTgv2iVF28b6BnZLSLyBGqeUTpZFbT3Zc"], "asm": "OP_DUP OP_HASH160 9e9de50f19223c355877310a0833e7c97ff042bc OP_EQUALVERIFY OP_CHECKSIG", "type": "pubkeyhash"}, "value": 2.44929276, "n": 29}, {"scriptPubKey": {"reqSigs": 1, "hex": "76a9143784115b79c6696b922a60d5fca621cc1f85b2bf88ac", "addresses": ["164YNnP6Xa1vANqTHzeVYzaSRM1GE85ZXk"], "asm": "OP_DUP OP_HASH160 3784115b79c6696b922a60d5fca621cc1f85b2bf OP_EQUALVERIFY OP_CHECKSIG", "type": "pubkeyhash"}, "value": 0.007828, "n": 30}], "hex": "010000000001123930ab107d4bfcb5e5bfa82d72de68efd2958f42b324520d9677604c41f722a0000000002322002002fdac89f28b8efff49638aa91fca25e7616b21eda3cb9cd7199107cc47f6151ffffffff91dcadc6103e20b132a7a98a558d500e9285d33c9bfec69d3310eec4c2497f5c0000000023220020776f0234e021a1f0a790e5cbec54e7672e27e337ee50be0157f37c1e971912c3ffffffffe2e67ebfabc57548975d791ff8381da2d188bb3b36cec7d8d149965925c19d30000000002322002002fdac89f28b8efff49638aa91fca25e7616b21eda3cb9cd7199107cc47f6151ffffffffc2f197149d23338f30149671e81a097826a50d313309102d0526b67b0645a4a702000000fdfd00004730440220612e7226aa4963da1adfa310d26b9362f8828be60a7320f88c6a97c4520a0dc70220139d88cf1fce69b2bfa9a4a2525561e80ebb8c09a5540d9f562c34d7b92512af01483045022100cbe3b6af271e2950d8bc65d47b43058194e7c9deae1de4dd4f50862e85dcfae602202cb5c3ad8d4e7ca551ffffb836fcabba3952f4271ae61a3997b2190717d422a2014c69522102ce561803a4b365682733ea32afbf28465ac4b420f9a4ab16db2c027a7a9df0082103690f3bd4d1effea8873720f3431268133234db5fb821b374708c9a4213e6554a2103c5b30457908d9309654c82d171f6beceb1f940d1b017de85f086eed3fa9ab81453aeffffffff67e58a59cb9e9edc517d8f42074c23a4509b1a073bba0c7090382039133f209f000000002322002002fdac89f28b8efff49638aa91fca25e7616b21eda3cb9cd7199107cc47f6151ffffffff36214a1d15a1e0c229c6f0892c0a43ec6eb2f5b0ba9e625c2aac04c4b802375f01000000232200201f8f562fee1fe2b9ed9c251d30c27fb57d38e3023db3c003730abfd670fd0957ffffffff376e88413c6cfab85dd0139890e3d974503066a9ae7b09768743afe9887a6e9704000000fdfe0000483045022100c8da430716b2dd7f63c79317e628500e730da5b82f25a12a18f8e1b2c40129ea02201e4c65c6c9d1e99b82a7a75cc762f0f1b717e05eae2aaabe5bbc38243de72f3a01483045022100b773d1794564f4f896a3ae6156c0f2f020c02895667355cb6c990a3826562359022057c1a3d1aaee43c6f0204fbed3f49408eb7d0a4deb2c1a86fe5398d29aff009d014c69522102d3db7c044a1795272686206071723c3d333fd822d087e6c79f94fec9ae2c208e2103b571f723b84821f38e055a1aa4228ffbf163905c32133986a31113259a4306fa21031bd2115aafdc4c46325df0585ea4840016cd685a7c5e483af6be1cd348676c0e53aeffffffff4f012e0d0a77d0fcb04477563101ca154cdcfacbd0be525d677ab721f09afbea0100000023220020776f0234e021a1f0a790e5cbec54e7672e27e337ee50be0157f37c1e971912c3ffffffffc3dd57bf545d31572d3cbd6ac73fb2d8b2da5de85a6dc12294cf57caab8264bc0000000023220020c3149f44e8148e21f8753fd426779b5830fc988e2ebd5c76db597a55f5867911ffffffff0cf4bd026984ee4c6c4bc1bbe1b00a2fce4cd926e5966f82ab2d7be29cdfa25d12000000232200200f166acef06c7209f5fa9f0d0ac62a6c7b176f25e0966fa69903b6d272f76bb2ffffffff36906ead57fb53235580983d581f800e392ce1f8080791b3b56fa3ce77dd7fa501000000fdfd0000483045022100df9896b0d0e9a65be6dbe19deda4a5526d7bca5904d63cafd19364bbb1a7c8b102200e438c2b2d9d857c044dac9c055040bb4c8a32a5ef4708fd967996fec8cf51d001473044022066d16e58700e780128a8cf9547b7dcbc5a275457737343a01638f98c97303b5b02206ce9d95fd8b97c28358deed4d2945355fe0324f2066277d8e85c491702761e27014c695221022ca4463347530aa5b6aa16d81e2e0664f116c8bda91c16c39acf171348efbf2a21037774c468e20c738b5601eebac4a39ee2f06c4b6314962857b10d5ab0635a089f2102a20d787197cd352ec7c9d1a64e84b6a0b5bcbc22e967b9bd0aba9e9446190a0c53aeffffffff0a0d1e3dbcbcfe6b083390242470438662542f6f75798c4f191563a1151ae3f000000000232200202c0a75996c8b2f9e8309ce885fec595e7485ecb21d4e66cd56c88fe15d53211cffffffff1e4911222cb8f60d7a391e01ac27e4b45d6bd340bdd1a0f8c29dd808cf920ee0030000002322002024d1808443e843dbd9c0a49695a62d6870ee27ce7e676d9216978c846d3b3189ffffffff0cd39ef78358468f52dbe40b9294c2bf9dbaaa874dd414761d00df9546d385ab040000002322002033a711cce9281901485ee85895f0464b649a2fc7bf22a35d59548187c7a123c5ffffffffc636adbb440c4f68b7a2297a4a03d17bc5fd424498aadeea8422066f9c59c25200000000fdfd0000483045022100c8c96e212f71d429b032c1c64952fd58d8d963871ca8c3b5208d3bef6d53b5df02202f260772bf5f2ba6db039ec9bc9eae22ee2041b1d99be2703812a531d70c8a0d01473044022051c21f9835ae7d2d0ecbcb9a3dfa5b289f47ca814325a58aaf416f1ea80b78820220599909cd05e90369f13646d1b3aec40118a58a9525d6e5ff7012ae14559cf860014c69522102921cd146343e8b67386b9c8c203bd37247560ea19fac3b98afcff2174fd23f06210251d46541ceb9434cbfec5ef58b017f12725a0ab4ad52003915be7b9c0acad2ce2103fb38ab7ea1f07f66670aa4e7bb4d946e96d779bf37c5dfc737bb6cafc86af5b553aeffffffff4e2383da44fa3426ed0fb11703424b3c4d88851522957810011b096a3f4da8ac0000000023220020c821c39295b20334906137d007ff25a478612104db22f0edf4bbf4e658493a6dffffffffe1b0cc58e4a15a2c060d2fd2e47491fb6954283233cd4bd27d5637f0df3da5a500000000fdfe000048304502210087e6514f30385505f4ff813679675275250460a20485aaad59d35ab566f1c8730220122ce1bd969dd0a762a5e7077c4b987b797ac7cb1db4bb1a3615d658bcb5d1bf014830450221009976277ef313c774fe9cba74a85bb6fb9a60f3a71d7d71bf5ba6534a549dd2e2022048fa42cd8f85b95d02b5322ab06305ef8144a1df49fbc61eed492e965c2b4af1014c69522103abc11f93ce8780a05ac5e78c2bf0b9c35bec71b21660ff1069940b093d37a3d42102eed4946d593115b3588bb2d637ed2a4d149ecbf4a17bc6e8e1af0c9d546f49cf2103f2f6af0e3fc06cef27112394a41246f63eaab2195d9bb5ea2acc32c7fc264a7953aeffffffff5ce6a3f7067976f57631b366077af0d493a72abf4459289718a41240ad94c38400000000232200200ef12c67d218cf970e9ab2d39d3847ee76dfaf9c4656a0f0bc353ef3150a26fbffffffff1fd0300e000000000017a914abc68822ba793e250aea3d548a6f0c76bbfa2bc9872745cf00000000001976a914519d01622470d38f47ec8b3231c0fd59e7ec591d88ac4f3f0200000000001976a9146c5eb7595c995d826b4d11b0e6b1790931a3e5db88ac448d01000000000017a914c572516349dedc61dd5d9f6b92070ba3ff4e9ef387a4df0d00000000001976a914c93aac0acef345c2dba90668dfed174795bfcc1988ac80841e00000000001976a914099da16906bd4c15f726cda816c1dc9d9f99284688ac042b1c00000000001976a914349522d47a56dd5fbbf4a84f76ff2d1a63f958c188ac71c602000000000017a91469f374b5863df9359ebcf1726635afbaafa0cba58753e90400000000001976a914581b88e58900ef2611830b50807f1742b2ad630f88acfbb61b00000000001976a9149f3bc22257cadff5e1841c565f35a20b1e38345488ac9cf62b00000000001976a914ecc1e88c22d47cc56955ef60320df0b44a7e652188ac30750000000000001976a9148eb95a06ca73860550319ec3c3be57feae3afb3a88acdddc8a000000000017a914f6b3f1cd03226283cb7279f304a4aedfeb0605f887c0c62d00000000001976a91461adc5c15e9b11becd56254af0838c2780d6edec88acb07a48000000000017a9142221727e98e1e865b97146c31f2bb1ceb6cc306887fd5d0700000000001976a9146f708dcef075eab040ed25e252dbdeb8018e882d88ac74583800000000001976a914ced2209307862eff0d72bccb2cc246d31c8b65a888acac2b5f000000000017a9146ee505efd790e86cc930f7e817dbec247990a9d887c3e80400000000001976a91466c350220cac0d48b9387417600be413b1dbc83688ac254e5300000000001976a914160290cd48dfa31a14c6f910c0ef21f4d5b3548488ac83a562000000000017a914e551d8284652bd0ec1986ce511f9f93d70d52ae5877dfb4000000000001976a914b7763fde84f15dfc5a38c9e4ac9b9708ee0d886688ac0090d0030000000017a9146c424a0d3de404ae1e536f73618a21918c1aedc287204e0000000000001976a914db5cad1ca4a48e4410f740133018dca075ab176588ac741224000000000017a9140c583780f1692708a0e8eb1d93864984a2c7b1a48780c3c901000000001976a914d780f2e21aa4d33d9dd3e30f9f84a9f47cfb87a488ac248d0500000000001976a9143075def9316189f42b250a2ae8b58c5cdc14f49e88ac588d0600000000001976a9142d276be8fa327443e1317bbf2e74da85c3e5d18788ac402fa4000000000017a914dbfc340d87dd3f4c55120ad3ae1f9db2f6295c2f87fc52990e000000001976a9149e9de50f19223c355877310a0833e7c97ff042bc88acd0f10b00000000001976a9143784115b79c6696b922a60d5fca621cc1f85b2bf88ac040047304402202b3160cb09ecf3c0e5bd6efa68ad01b802d6423616a747bdecae356f063094ab022041b7070f05a9417e7590e91ac71570eb0ebea1aab72dd1da71b0867d2ec44a3501483045022100eca8b734027ad3f9a87eb374d1303e512847ab8fedb9b0ed9e4885d79fb6c04502206fa6f8487bb89306bd1b6f56d4784c60f62a92097b5432fd1183219559369bbd01695221029c51b599ade578f56cacaa7f6eb133cc018bf5b390ac42d20975c343f1b9017621023d49e049e172d235b56c9024ef36faf405579b36d59de9c1cd6a9133d692089321022c78f69a3fc57f7b0cae9d235726b32cde27c126ab31325fd75338dde351e0c253ae0400483045022100af59aa6da0ba1070b819a016e6d33b965d3c8a9792488b5594d1d04a28911e450220589949db18b74b315f0fc0120ce17c3b910ee0104c8deda7325f429ea940412001483045022100a77967840c703b512c3dd631be7ac321eda4e5801b2b6502aaacbb7936397aba02203cf343598e01761025805d4b1bafe29a84701290c24a0bf3e6880fb9cc358bf801695221021f5ff4149967a285f39e534cad2ff16dd71b31841dc273ed99b0534cc15cd7842103750b4e39d9266bfe4b3b45ab020bb079ba12300398f16e8868748ebac72850052103e86a24acc4895789e882f4fe9de9edec9274d56f613fde9b6171ec4b71384eaa53ae04004830450221008fc3d70b2d8176da7f73889b27efc20775460df06059e815a1ee56711943572602207956916fd3cbb8d5f3e27a9556d76b9022ebb02e3f7797f73a7fc1a390dbf5740147304402207a3e307e1d00afe69f2f5faf5341fa826de67b73d2814896bbe5785ae319940002205cd739c0edbc5e86fc8e575105e5a9493e57e416407c4b70980e6fd9d0a5e1a501695221029c51b599ade578f56cacaa7f6eb133cc018bf5b390ac42d20975c343f1b9017621023d49e049e172d235b56c9024ef36faf405579b36d59de9c1cd6a9133d692089321022c78f69a3fc57f7b0cae9d235726b32cde27c126ab31325fd75338dde351e0c253ae00040048304502210085f40755dffbf0cfc24ea034137213d9f1152458a57a97445592693389a7f7e8022055e4135cca81edc0eef872588067a66ddfa28e77301dcb743b53b0a5443b8cdf0147304402207ef45a554a9a75b7785accc16d37e1df2c2e9a007fd59e7bfda04b694f25155202201ca31a473aae452cc332eb564a558f025020a69038213e2e9b4a14b0aa74070501695221029c51b599ade578f56cacaa7f6eb133cc018bf5b390ac42d20975c343f1b9017621023d49e049e172d235b56c9024ef36faf405579b36d59de9c1cd6a9133d692089321022c78f69a3fc57f7b0cae9d235726b32cde27c126ab31325fd75338dde351e0c253ae0400473044022042da026a4b0fe6e29814df81db482ac4c262464c3c7b5a728a28f0aba6c77cf402204645f92fb89fae55aa8aa8b68122846ebcdcffac5c83c5914b324cb22e92ef7b01483045022100d05d8fcaeb7dc17ce2a80a131b6d5c00416c12ee7ae70b8b6989b0c84b668a4a02200919e6e30b4e0cd3fbb314d25595d87ce56c907e6f1b5a6731c7b9dfbf1312780169522102bd6ac567e9c6d47dc79a42960b59309e447fc7613f02a5c58100b0abb81b2e9f210377a5ee493feaf55e66da146ff40e7fec814b7ed8c9861983a95731282333eeb12102fe5d77efdbf4fd224ac179500322101b13de4acea5a757e7fa81f0bc67637e8753ae00040047304402204e4f85b006d974c5c8a6c1850a6fb3b38690b7a863709d74140b172fb6b022ab0220110b7b91b288ffb8013d9c500b0092c6c388fd4ba9e0309b1e395f73832b93f801483045022100f162380bc48021412f89db07b02de64bcbd60c4497677d24ad024dee0388c6c70220233e84e6989f12940e96731890bf370617c28649509b7bcf19a5cdc7434b649a01695221021f5ff4149967a285f39e534cad2ff16dd71b31841dc273ed99b0534cc15cd7842103750b4e39d9266bfe4b3b45ab020bb079ba12300398f16e8868748ebac72850052103e86a24acc4895789e882f4fe9de9edec9274d56f613fde9b6171ec4b71384eaa53ae040048304502210093fb73dcd3f46282951fc12e7df2127a75a672931edb5d00245b332aa6e1218802201e7f3da75846ac710e0da0ebf43550adb86569dd4d2d41693fd941ffd9658cc201483045022100eab0044f5105cb1c89702410f075852127525863436136e2685669ef9c68bcab022062fe073d50c3b2db37fa1bc3588630eaa2333d2fbcf037883b48dd62faaa529e01695221021a004dd9726f73ff7449a7c04ccfd9bcb05a94cec4f07825d7e3015ecce6c0272102abb6baa4e9efd375a9d7769679e9e7de8bff31bc0697b458ba358bd67b99871b21029409e8a36c315594e910fb86e180cdab3bf665126e4acd0c5c5f1db45dc3711553ae04004830450221008f3520adc47895b41005d33d9902e709dfef7af5b86dc56dd936a07a6d51d94502200c440034b03744dd93d03a22600fbd14985ce7b2eafc89d0f7754682ca344fba0147304402200dc35b664f307c274447508a537447fba36613ecec67a94f06ea46ab81bb02d102205ee70a3c19483be8ff85fd60278b6db6112a4fc530b23c6c4b67aeeda9b255ae01695221022ef2642ce5141f933e7ce574bf57e55637bad0be522714dd5784bfbb5ca902932102f959f572ac4149b7c7b6cd4e5982fa1c371bcabbdac2bbfd5911020b99e1ee962102df4c1d5469b1b8671bc9b5fa8353848e16cd66bba7abb405dcc8240c3129935453ae000400473044022023eb42c13b3a51905dc731b4a7005b7b605e6dd92b07744ac08c4f1dc46cd4d7022010ecade5c20a6a293bf8340d472e82fbe6ac485c12736ad14a8df1ddcb6435fd0147304402203ac6f370230fb2aae369a8058e338ef72719be381fa24d250b4be6d0d7eb3f8802206e5f254f497b4879a9b3d855f7086dd04b6c2472d6485fc5ffd15c2b81e41ea401695221039983e5ca4948281c215d27c933e8c0f0f41240beb924298abbef21171ac96a902102074f7267c7dde9236fe613cc166116734652ca42f994a7e12dc9c58be7b4a2b921037d35c656f68db979b18f982954eb3470706d39ea8a6e8d20d584cef2818098a253ae040047304402201950c4fa54676198f0b971e85916371f5512a1282d0bd4869a730597528cdd8202204fa345d1b07a99479322546f3d95d9a35c8e0b2683b34d1340edfc69047a59a801483045022100cbbd1bf467c8bb195b5fd669af7fd45a44bc73bc45815326378df08fe6be7e9f02207a4d49446fed687ccf177561fd6987f604b35ef8f7f9fb1bc4803eca658fbe9e016952210233706eb7b22779a7182406a3226454d17c70ee635c45aa7f68298fccca9a2e322103bcaf822fef88b1759259b684b1d02fd9b2671f3a5dc5d1344ceb2e1b9284b9d321035e0bd0403966f00d1fe9e5d1b0af9b43d8a2c3a725ee8f53ae82526c019843e453ae04004830450221009c5c491ca80a62468c84c56210f46c6045a4ca4680216a28e394e643ee527c7402205865510dfe00568e650e758a18173c23db09a84f8dadd1f2e47b60c54c165f550148304502210083e56c43614ca3fd086812818d2c96c5043a931697ef8e553bf204aef6ddf35f022055f73c69df722155893fe418f354bf98b26536700d5a324ef5c49bfaac7000d6016952210356029ea3f38d991bd634e55668d92189ceb135895151b42b8e237af399d7143f21036d40b9087657b24cc6bb3f2e8ff7b69217bb5dac7bf3df99eab101f6e99ca7072103acda76563c14420a7dd7e66ee7f7396b8c55d2f39d04d3733cbe25a2f65e558e53ae000400483045022100feb2e06b8b0972a6509c7eadf1a462a6befd29145b7182529f376e03d34ed0da022057d32977bfaa87d7b9a325c91247a802511eb50fec502e87f332f2acf51ff7e201483045022100b4fd503dd1a2a63a784087383cb0d3e99694811bc45f651591c4eb2e847a12e40220472ec139dbcdfd0f85dd689c19cdbe2fa2445798a5f81cd30150578935a0a80501695221023f83a525011adaf5af53db213b61e4c85e615a190f416bd7e733575b3ac7fbe62103ea426ff03fb503f008da7d9c4d5cd68c7065419b4619c422d18d5b9ee63c30582103e915dfaf34cd214ef74f612ea5096e6c5ed2db92fe5343ff68f7d593b68e08ea53ae00040047304402200e5ab6e1fdadede96797a3863b23268ef71b339a3e1af973079d6e6fefc16917022047fd9ccdb86d10989c9be260afec923057a1df867d25b507c8075be6e373183b01473044022013734128056ef4e4a8db0a9ae55e1357cbd1be99c26a18d05de4e948fe6cda88022026928a3968f7a3240046fb80d59a0f38f2d2033e7dec04aa0ed55868b70d633f01695221028d49d618f6184ac6dc61f11b7042d52b482ce31f006ac5337b74f266cac59097210291a4aad6684290682d9589a48887024b6b36b119571d077f555adc707ee0583d21022a04e86db252b54fb8ac4093aefb1a571288aa90656161d35c94e33938a6f45253ae00000000", "vin": [{"txinwitness": ["", "304402202b3160cb09ecf3c0e5bd6efa68ad01b802d6423616a747bdecae356f063094ab022041b7070f05a9417e7590e91ac71570eb0ebea1aab72dd1da71b0867d2ec44a3501", "3045022100eca8b734027ad3f9a87eb374d1303e512847ab8fedb9b0ed9e4885d79fb6c04502206fa6f8487bb89306bd1b6f56d4784c60f62a92097b5432fd1183219559369bbd01", "5221029c51b599ade578f56cacaa7f6eb133cc018bf5b390ac42d20975c343f1b9017621023d49e049e172d235b56c9024ef36faf405579b36d59de9c1cd6a9133d692089321022c78f69a3fc57f7b0cae9d235726b32cde27c126ab31325fd75338dde351e0c253ae"], "sequence": 4294967295, "scriptSig": {"hex": "22002002fdac89f28b8efff49638aa91fca25e7616b21eda3cb9cd7199107cc47f6151", "asm": "002002fdac89f28b8efff49638aa91fca25e7616b21eda3cb9cd7199107cc47f6151"}, "vout": 0, "txid": "a022f7414c6077960d5224b3428f95d2ef68de722da8bfe5b5fc4b7d10ab3039"}, {"txinwitness": ["", "3045022100af59aa6da0ba1070b819a016e6d33b965d3c8a9792488b5594d1d04a28911e450220589949db18b74b315f0fc0120ce17c3b910ee0104c8deda7325f429ea940412001", "3045022100a77967840c703b512c3dd631be7ac321eda4e5801b2b6502aaacbb7936397aba02203cf343598e01761025805d4b1bafe29a84701290c24a0bf3e6880fb9cc358bf801", "5221021f5ff4149967a285f39e534cad2ff16dd71b31841dc273ed99b0534cc15cd7842103750b4e39d9266bfe4b3b45ab020bb079ba12300398f16e8868748ebac72850052103e86a24acc4895789e882f4fe9de9edec9274d56f613fde9b6171ec4b71384eaa53ae"], "sequence": 4294967295, "scriptSig": {"hex": "220020776f0234e021a1f0a790e5cbec54e7672e27e337ee50be0157f37c1e971912c3", "asm": "0020776f0234e021a1f0a790e5cbec54e7672e27e337ee50be0157f37c1e971912c3"}, "vout": 0, "txid": "5c7f49c2c4ee10339dc6fe9b3cd385920e508d558aa9a732b1203e10c6addc91"}, {"txinwitness": ["", "30450221008fc3d70b2d8176da7f73889b27efc20775460df06059e815a1ee56711943572602207956916fd3cbb8d5f3e27a9556d76b9022ebb02e3f7797f73a7fc1a390dbf57401", "304402207a3e307e1d00afe69f2f5faf5341fa826de67b73d2814896bbe5785ae319940002205cd739c0edbc5e86fc8e575105e5a9493e57e416407c4b70980e6fd9d0a5e1a501", "5221029c51b599ade578f56cacaa7f6eb133cc018bf5b390ac42d20975c343f1b9017621023d49e049e172d235b56c9024ef36faf405579b36d59de9c1cd6a9133d692089321022c78f69a3fc57f7b0cae9d235726b32cde27c126ab31325fd75338dde351e0c253ae"], "sequence": 4294967295, "scriptSig": {"hex": "22002002fdac89f28b8efff49638aa91fca25e7616b21eda3cb9cd7199107cc47f6151", "asm": "002002fdac89f28b8efff49638aa91fca25e7616b21eda3cb9cd7199107cc47f6151"}, "vout": 0, "txid": "309dc125599649d1d8c7ce363bbb88d1a21d38f81f795d974875c5abbf7ee6e2"}, {"sequence": 4294967295, "scriptSig": {"hex": "004730440220612e7226aa4963da1adfa310d26b9362f8828be60a7320f88c6a97c4520a0dc70220139d88cf1fce69b2bfa9a4a2525561e80ebb8c09a5540d9f562c34d7b92512af01483045022100cbe3b6af271e2950d8bc65d47b43058194e7c9deae1de4dd4f50862e85dcfae602202cb5c3ad8d4e7ca551ffffb836fcabba3952f4271ae61a3997b2190717d422a2014c69522102ce561803a4b365682733ea32afbf28465ac4b420f9a4ab16db2c027a7a9df0082103690f3bd4d1effea8873720f3431268133234db5fb821b374708c9a4213e6554a2103c5b30457908d9309654c82d171f6beceb1f940d1b017de85f086eed3fa9ab81453ae", "asm": "0 30440220612e7226aa4963da1adfa310d26b9362f8828be60a7320f88c6a97c4520a0dc70220139d88cf1fce69b2bfa9a4a2525561e80ebb8c09a5540d9f562c34d7b92512af[ALL] 3045022100cbe3b6af271e2950d8bc65d47b43058194e7c9deae1de4dd4f50862e85dcfae602202cb5c3ad8d4e7ca551ffffb836fcabba3952f4271ae61a3997b2190717d422a2[ALL] 522102ce561803a4b365682733ea32afbf28465ac4b420f9a4ab16db2c027a7a9df0082103690f3bd4d1effea8873720f3431268133234db5fb821b374708c9a4213e6554a2103c5b30457908d9309654c82d171f6beceb1f940d1b017de85f086eed3fa9ab81453ae"}, "vout": 2, "txid": "a7a445067bb626052d100933310da52678091ae8719614308f33239d1497f1c2"}, {"txinwitness": ["", "304502210085f40755dffbf0cfc24ea034137213d9f1152458a57a97445592693389a7f7e8022055e4135cca81edc0eef872588067a66ddfa28e77301dcb743b53b0a5443b8cdf01", "304402207ef45a554a9a75b7785accc16d37e1df2c2e9a007fd59e7bfda04b694f25155202201ca31a473aae452cc332eb564a558f025020a69038213e2e9b4a14b0aa74070501", "5221029c51b599ade578f56cacaa7f6eb133cc018bf5b390ac42d20975c343f1b9017621023d49e049e172d235b56c9024ef36faf405579b36d59de9c1cd6a9133d692089321022c78f69a3fc57f7b0cae9d235726b32cde27c126ab31325fd75338dde351e0c253ae"], "sequence": 4294967295, "scriptSig": {"hex": "22002002fdac89f28b8efff49638aa91fca25e7616b21eda3cb9cd7199107cc47f6151", "asm": "002002fdac89f28b8efff49638aa91fca25e7616b21eda3cb9cd7199107cc47f6151"}, "vout": 0, "txid": "9f203f1339203890700cba3b071a9b50a4234c07428f7d51dc9e9ecb598ae567"}, {"txinwitness": ["", "3044022042da026a4b0fe6e29814df81db482ac4c262464c3c7b5a728a28f0aba6c77cf402204645f92fb89fae55aa8aa8b68122846ebcdcffac5c83c5914b324cb22e92ef7b01", "3045022100d05d8fcaeb7dc17ce2a80a131b6d5c00416c12ee7ae70b8b6989b0c84b668a4a02200919e6e30b4e0cd3fbb314d25595d87ce56c907e6f1b5a6731c7b9dfbf13127801", "522102bd6ac567e9c6d47dc79a42960b59309e447fc7613f02a5c58100b0abb81b2e9f210377a5ee493feaf55e66da146ff40e7fec814b7ed8c9861983a95731282333eeb12102fe5d77efdbf4fd224ac179500322101b13de4acea5a757e7fa81f0bc67637e8753ae"], "sequence": 4294967295, "scriptSig": {"hex": "2200201f8f562fee1fe2b9ed9c251d30c27fb57d38e3023db3c003730abfd670fd0957", "asm": "00201f8f562fee1fe2b9ed9c251d30c27fb57d38e3023db3c003730abfd670fd0957"}, "vout": 1, "txid": "5f3702b8c404ac2a5c629ebab0f5b26eec430a2c89f0c629c2e0a1151d4a2136"}, {"sequence": 4294967295, "scriptSig": {"hex": "00483045022100c8da430716b2dd7f63c79317e628500e730da5b82f25a12a18f8e1b2c40129ea02201e4c65c6c9d1e99b82a7a75cc762f0f1b717e05eae2aaabe5bbc38243de72f3a01483045022100b773d1794564f4f896a3ae6156c0f2f020c02895667355cb6c990a3826562359022057c1a3d1aaee43c6f0204fbed3f49408eb7d0a4deb2c1a86fe5398d29aff009d014c69522102d3db7c044a1795272686206071723c3d333fd822d087e6c79f94fec9ae2c208e2103b571f723b84821f38e055a1aa4228ffbf163905c32133986a31113259a4306fa21031bd2115aafdc4c46325df0585ea4840016cd685a7c5e483af6be1cd348676c0e53ae", "asm": "0 3045022100c8da430716b2dd7f63c79317e628500e730da5b82f25a12a18f8e1b2c40129ea02201e4c65c6c9d1e99b82a7a75cc762f0f1b717e05eae2aaabe5bbc38243de72f3a[ALL] 3045022100b773d1794564f4f896a3ae6156c0f2f020c02895667355cb6c990a3826562359022057c1a3d1aaee43c6f0204fbed3f49408eb7d0a4deb2c1a86fe5398d29aff009d[ALL] 522102d3db7c044a1795272686206071723c3d333fd822d087e6c79f94fec9ae2c208e2103b571f723b84821f38e055a1aa4228ffbf163905c32133986a31113259a4306fa21031bd2115aafdc4c46325df0585ea4840016cd685a7c5e483af6be1cd348676c0e53ae"}, "vout": 4, "txid": "976e7a88e9af438776097baea966305074d9e3909813d05db8fa6c3c41886e37"}, {"txinwitness": ["", "304402204e4f85b006d974c5c8a6c1850a6fb3b38690b7a863709d74140b172fb6b022ab0220110b7b91b288ffb8013d9c500b0092c6c388fd4ba9e0309b1e395f73832b93f801", "3045022100f162380bc48021412f89db07b02de64bcbd60c4497677d24ad024dee0388c6c70220233e84e6989f12940e96731890bf370617c28649509b7bcf19a5cdc7434b649a01", "5221021f5ff4149967a285f39e534cad2ff16dd71b31841dc273ed99b0534cc15cd7842103750b4e39d9266bfe4b3b45ab020bb079ba12300398f16e8868748ebac72850052103e86a24acc4895789e882f4fe9de9edec9274d56f613fde9b6171ec4b71384eaa53ae"], "sequence": 4294967295, "scriptSig": {"hex": "220020776f0234e021a1f0a790e5cbec54e7672e27e337ee50be0157f37c1e971912c3", "asm": "0020776f0234e021a1f0a790e5cbec54e7672e27e337ee50be0157f37c1e971912c3"}, "vout": 1, "txid": "eafb9af021b77a675d52bed0cbfadc4c15ca0131567744b0fcd0770a0d2e014f"}, {"txinwitness": ["", "304502210093fb73dcd3f46282951fc12e7df2127a75a672931edb5d00245b332aa6e1218802201e7f3da75846ac710e0da0ebf43550adb86569dd4d2d41693fd941ffd9658cc201", "3045022100eab0044f5105cb1c89702410f075852127525863436136e2685669ef9c68bcab022062fe073d50c3b2db37fa1bc3588630eaa2333d2fbcf037883b48dd62faaa529e01", "5221021a004dd9726f73ff7449a7c04ccfd9bcb05a94cec4f07825d7e3015ecce6c0272102abb6baa4e9efd375a9d7769679e9e7de8bff31bc0697b458ba358bd67b99871b21029409e8a36c315594e910fb86e180cdab3bf665126e4acd0c5c5f1db45dc3711553ae"], "sequence": 4294967295, "scriptSig": {"hex": "220020c3149f44e8148e21f8753fd426779b5830fc988e2ebd5c76db597a55f5867911", "asm": "0020c3149f44e8148e21f8753fd426779b5830fc988e2ebd5c76db597a55f5867911"}, "vout": 0, "txid": "bc6482abca57cf9422c16d5ae85ddab2d8b23fc76abd3c2d57315d54bf57ddc3"}, {"txinwitness": ["", "30450221008f3520adc47895b41005d33d9902e709dfef7af5b86dc56dd936a07a6d51d94502200c440034b03744dd93d03a22600fbd14985ce7b2eafc89d0f7754682ca344fba01", "304402200dc35b664f307c274447508a537447fba36613ecec67a94f06ea46ab81bb02d102205ee70a3c19483be8ff85fd60278b6db6112a4fc530b23c6c4b67aeeda9b255ae01", "5221022ef2642ce5141f933e7ce574bf57e55637bad0be522714dd5784bfbb5ca902932102f959f572ac4149b7c7b6cd4e5982fa1c371bcabbdac2bbfd5911020b99e1ee962102df4c1d5469b1b8671bc9b5fa8353848e16cd66bba7abb405dcc8240c3129935453ae"], "sequence": 4294967295, "scriptSig": {"hex": "2200200f166acef06c7209f5fa9f0d0ac62a6c7b176f25e0966fa69903b6d272f76bb2", "asm": "00200f166acef06c7209f5fa9f0d0ac62a6c7b176f25e0966fa69903b6d272f76bb2"}, "vout": 18, "txid": "5da2df9ce27b2dab826f96e526d94cce2f0ab0e1bbc14b6c4cee846902bdf40c"}, {"sequence": 4294967295, "scriptSig": {"hex": "00483045022100df9896b0d0e9a65be6dbe19deda4a5526d7bca5904d63cafd19364bbb1a7c8b102200e438c2b2d9d857c044dac9c055040bb4c8a32a5ef4708fd967996fec8cf51d001473044022066d16e58700e780128a8cf9547b7dcbc5a275457737343a01638f98c97303b5b02206ce9d95fd8b97c28358deed4d2945355fe0324f2066277d8e85c491702761e27014c695221022ca4463347530aa5b6aa16d81e2e0664f116c8bda91c16c39acf171348efbf2a21037774c468e20c738b5601eebac4a39ee2f06c4b6314962857b10d5ab0635a089f2102a20d787197cd352ec7c9d1a64e84b6a0b5bcbc22e967b9bd0aba9e9446190a0c53ae", "asm": "0 3045022100df9896b0d0e9a65be6dbe19deda4a5526d7bca5904d63cafd19364bbb1a7c8b102200e438c2b2d9d857c044dac9c055040bb4c8a32a5ef4708fd967996fec8cf51d0[ALL] 3044022066d16e58700e780128a8cf9547b7dcbc5a275457737343a01638f98c97303b5b02206ce9d95fd8b97c28358deed4d2945355fe0324f2066277d8e85c491702761e27[ALL] 5221022ca4463347530aa5b6aa16d81e2e0664f116c8bda91c16c39acf171348efbf2a21037774c468e20c738b5601eebac4a39ee2f06c4b6314962857b10d5ab0635a089f2102a20d787197cd352ec7c9d1a64e84b6a0b5bcbc22e967b9bd0aba9e9446190a0c53ae"}, "vout": 1, "txid": "a57fdd77cea36fb5b3910708f8e12c390e801f583d9880552353fb57ad6e9036"}, {"txinwitness": ["", "3044022023eb42c13b3a51905dc731b4a7005b7b605e6dd92b07744ac08c4f1dc46cd4d7022010ecade5c20a6a293bf8340d472e82fbe6ac485c12736ad14a8df1ddcb6435fd01", "304402203ac6f370230fb2aae369a8058e338ef72719be381fa24d250b4be6d0d7eb3f8802206e5f254f497b4879a9b3d855f7086dd04b6c2472d6485fc5ffd15c2b81e41ea401", "5221039983e5ca4948281c215d27c933e8c0f0f41240beb924298abbef21171ac96a902102074f7267c7dde9236fe613cc166116734652ca42f994a7e12dc9c58be7b4a2b921037d35c656f68db979b18f982954eb3470706d39ea8a6e8d20d584cef2818098a253ae"], "sequence": 4294967295, "scriptSig": {"hex": "2200202c0a75996c8b2f9e8309ce885fec595e7485ecb21d4e66cd56c88fe15d53211c", "asm": "00202c0a75996c8b2f9e8309ce885fec595e7485ecb21d4e66cd56c88fe15d53211c"}, "vout": 0, "txid": "f0e31a15a16315194f8c79756f2f546286437024249033086bfebcbc3d1e0d0a"}, {"txinwitness": ["", "304402201950c4fa54676198f0b971e85916371f5512a1282d0bd4869a730597528cdd8202204fa345d1b07a99479322546f3d95d9a35c8e0b2683b34d1340edfc69047a59a801", "3045022100cbbd1bf467c8bb195b5fd669af7fd45a44bc73bc45815326378df08fe6be7e9f02207a4d49446fed687ccf177561fd6987f604b35ef8f7f9fb1bc4803eca658fbe9e01", "52210233706eb7b22779a7182406a3226454d17c70ee635c45aa7f68298fccca9a2e322103bcaf822fef88b1759259b684b1d02fd9b2671f3a5dc5d1344ceb2e1b9284b9d321035e0bd0403966f00d1fe9e5d1b0af9b43d8a2c3a725ee8f53ae82526c019843e453ae"], "sequence": 4294967295, "scriptSig": {"hex": "22002024d1808443e843dbd9c0a49695a62d6870ee27ce7e676d9216978c846d3b3189", "asm": "002024d1808443e843dbd9c0a49695a62d6870ee27ce7e676d9216978c846d3b3189"}, "vout": 3, "txid": "e00e92cf08d89dc2f8a0d1bd40d36b5db4e427ac011e397a0df6b82c2211491e"}, {"txinwitness": ["", "30450221009c5c491ca80a62468c84c56210f46c6045a4ca4680216a28e394e643ee527c7402205865510dfe00568e650e758a18173c23db09a84f8dadd1f2e47b60c54c165f5501", "304502210083e56c43614ca3fd086812818d2c96c5043a931697ef8e553bf204aef6ddf35f022055f73c69df722155893fe418f354bf98b26536700d5a324ef5c49bfaac7000d601", "52210356029ea3f38d991bd634e55668d92189ceb135895151b42b8e237af399d7143f21036d40b9087657b24cc6bb3f2e8ff7b69217bb5dac7bf3df99eab101f6e99ca7072103acda76563c14420a7dd7e66ee7f7396b8c55d2f39d04d3733cbe25a2f65e558e53ae"], "sequence": 4294967295, "scriptSig": {"hex": "22002033a711cce9281901485ee85895f0464b649a2fc7bf22a35d59548187c7a123c5", "asm": "002033a711cce9281901485ee85895f0464b649a2fc7bf22a35d59548187c7a123c5"}, "vout": 4, "txid": "ab85d34695df001d7614d44d87aaba9dbfc294920be4db528f465883f79ed30c"}, {"sequence": 4294967295, "scriptSig": {"hex": "00483045022100c8c96e212f71d429b032c1c64952fd58d8d963871ca8c3b5208d3bef6d53b5df02202f260772bf5f2ba6db039ec9bc9eae22ee2041b1d99be2703812a531d70c8a0d01473044022051c21f9835ae7d2d0ecbcb9a3dfa5b289f47ca814325a58aaf416f1ea80b78820220599909cd05e90369f13646d1b3aec40118a58a9525d6e5ff7012ae14559cf860014c69522102921cd146343e8b67386b9c8c203bd37247560ea19fac3b98afcff2174fd23f06210251d46541ceb9434cbfec5ef58b017f12725a0ab4ad52003915be7b9c0acad2ce2103fb38ab7ea1f07f66670aa4e7bb4d946e96d779bf37c5dfc737bb6cafc86af5b553ae", "asm": "0 3045022100c8c96e212f71d429b032c1c64952fd58d8d963871ca8c3b5208d3bef6d53b5df02202f260772bf5f2ba6db039ec9bc9eae22ee2041b1d99be2703812a531d70c8a0d[ALL] 3044022051c21f9835ae7d2d0ecbcb9a3dfa5b289f47ca814325a58aaf416f1ea80b78820220599909cd05e90369f13646d1b3aec40118a58a9525d6e5ff7012ae14559cf860[ALL] 522102921cd146343e8b67386b9c8c203bd37247560ea19fac3b98afcff2174fd23f06210251d46541ceb9434cbfec5ef58b017f12725a0ab4ad52003915be7b9c0acad2ce2103fb38ab7ea1f07f66670aa4e7bb4d946e96d779bf37c5dfc737bb6cafc86af5b553ae"}, "vout": 0, "txid": "52c2599c6f062284eadeaa984442fdc57bd1034a7a29a2b7684f0c44bbad36c6"}, {"txinwitness": ["", "3045022100feb2e06b8b0972a6509c7eadf1a462a6befd29145b7182529f376e03d34ed0da022057d32977bfaa87d7b9a325c91247a802511eb50fec502e87f332f2acf51ff7e201", "3045022100b4fd503dd1a2a63a784087383cb0d3e99694811bc45f651591c4eb2e847a12e40220472ec139dbcdfd0f85dd689c19cdbe2fa2445798a5f81cd30150578935a0a80501", "5221023f83a525011adaf5af53db213b61e4c85e615a190f416bd7e733575b3ac7fbe62103ea426ff03fb503f008da7d9c4d5cd68c7065419b4619c422d18d5b9ee63c30582103e915dfaf34cd214ef74f612ea5096e6c5ed2db92fe5343ff68f7d593b68e08ea53ae"], "sequence": 4294967295, "scriptSig": {"hex": "220020c821c39295b20334906137d007ff25a478612104db22f0edf4bbf4e658493a6d", "asm": "0020c821c39295b20334906137d007ff25a478612104db22f0edf4bbf4e658493a6d"}, "vout": 0, "txid": "aca84d3f6a091b01107895221585884d3c4b420317b10fed2634fa44da83234e"}, {"sequence": 4294967295, "scriptSig": {"hex": "0048304502210087e6514f30385505f4ff813679675275250460a20485aaad59d35ab566f1c8730220122ce1bd969dd0a762a5e7077c4b987b797ac7cb1db4bb1a3615d658bcb5d1bf014830450221009976277ef313c774fe9cba74a85bb6fb9a60f3a71d7d71bf5ba6534a549dd2e2022048fa42cd8f85b95d02b5322ab06305ef8144a1df49fbc61eed492e965c2b4af1014c69522103abc11f93ce8780a05ac5e78c2bf0b9c35bec71b21660ff1069940b093d37a3d42102eed4946d593115b3588bb2d637ed2a4d149ecbf4a17bc6e8e1af0c9d546f49cf2103f2f6af0e3fc06cef27112394a41246f63eaab2195d9bb5ea2acc32c7fc264a7953ae", "asm": "0 304502210087e6514f30385505f4ff813679675275250460a20485aaad59d35ab566f1c8730220122ce1bd969dd0a762a5e7077c4b987b797ac7cb1db4bb1a3615d658bcb5d1bf[ALL] 30450221009976277ef313c774fe9cba74a85bb6fb9a60f3a71d7d71bf5ba6534a549dd2e2022048fa42cd8f85b95d02b5322ab06305ef8144a1df49fbc61eed492e965c2b4af1[ALL] 522103abc11f93ce8780a05ac5e78c2bf0b9c35bec71b21660ff1069940b093d37a3d42102eed4946d593115b3588bb2d637ed2a4d149ecbf4a17bc6e8e1af0c9d546f49cf2103f2f6af0e3fc06cef27112394a41246f63eaab2195d9bb5ea2acc32c7fc264a7953ae"}, "vout": 0, "txid": "a5a53ddff037567dd24bcd3332285469fb9174e4d22f0d062c5aa1e458ccb0e1"}, {"txinwitness": ["", "304402200e5ab6e1fdadede96797a3863b23268ef71b339a3e1af973079d6e6fefc16917022047fd9ccdb86d10989c9be260afec923057a1df867d25b507c8075be6e373183b01", "3044022013734128056ef4e4a8db0a9ae55e1357cbd1be99c26a18d05de4e948fe6cda88022026928a3968f7a3240046fb80d59a0f38f2d2033e7dec04aa0ed55868b70d633f01", "5221028d49d618f6184ac6dc61f11b7042d52b482ce31f006ac5337b74f266cac59097210291a4aad6684290682d9589a48887024b6b36b119571d077f555adc707ee0583d21022a04e86db252b54fb8ac4093aefb1a571288aa90656161d35c94e33938a6f45253ae"], "sequence": 4294967295, "scriptSig": {"hex": "2200200ef12c67d218cf970e9ab2d39d3847ee76dfaf9c4656a0f0bc353ef3150a26fb", "asm": "00200ef12c67d218cf970e9ab2d39d3847ee76dfaf9c4656a0f0bc353ef3150a26fb"}, "vout": 0, "txid": "84c394ad4012a41897285944bf2aa793d4f07a0766b33176f5767906f7a3e65c"}], "txid": "f481c7da8d584d8956c4c079a32c76bd5ef27096b402c2af3f839faa4186c2a2", "blocktime": 1537876114, "version": 1, "confirmations": 11462, "time": 1537876114, "locktime": 0, "vsize": 4339, "size": 6812}