{"hash": "618102a1173b5eaba06eacf187c90166066b32db342bc8601785a868b9c72d07", "blockhash": "0000000000000000001e0dab787dd257d1dbfcb92a98c2207d5e1078be1f4165", "vout": [{"scriptPubKey": {"reqSigs": 1, "hex": "a9140bae12a646ca5c7da2a24851766a85ce20627b6b87", "addresses": ["32kmtSuiC3HwxiAgmWuvXLGFBRtrrUPVfP"], "asm": "OP_HASH160 0bae12a646ca5c7da2a24851766a85ce20627b6b OP_EQUAL", "type": "scripthash"}, "value": 0.01904169, "n": 0}, {"scriptPubKey": {"reqSigs": 1, "hex": "a91469773f3de7676846aa5ed3748b85cc2d994533d487", "addresses": ["3BJfj7eYKhTsqUneFmbLgk637Fu5cZyKUc"], "asm": "OP_HASH160 69773f3de7676846aa5ed3748b85cc2d994533d4 OP_EQUAL", "type": "scripthash"}, "value": 0.0047, "n": 1}, {"scriptPubKey": {"reqSigs": 1, "hex": "a9147491a3fded50bfccb64262cc74d83abfce4bdff987", "addresses": ["3CKNn5hopLUWr2njrj8PLTFQ1X58ToAmYB"], "asm": "OP_HASH160 7491a3fded50bfccb64262cc74d83abfce4bdff9 OP_EQUAL", "type": "scripthash"}, "value": 0.0029726, "n": 2}, {"scriptPubKey": {"reqSigs": 1, "hex": "a9141577d8fea674af923ba3c90941da9da9f86a68b587", "addresses": ["33eXgjQNfvJwcsuvcprdU43Czcm8NmuJ4d"], "asm": "OP_HASH160 1577d8fea674af923ba3c90941da9da9f86a68b5 OP_EQUAL", "type": "scripthash"}, "value": 0.00500863, "n": 3}, {"scriptPubKey": {"reqSigs": 1, "hex": "a91450503db7c61ca1fb213c3474f860d60a794617b387", "addresses": ["391g78zK2Duv4LTjXcMM6jsbsRPTZg7kSV"], "asm": "OP_HASH160 50503db7c61ca1fb213c3474f860d60a794617b3 OP_EQUAL", "type": "scripthash"}, "value": 0.0952961, "n": 4}, {"scriptPubKey": {"reqSigs": 1, "hex": "a914e569050147ef8c53343e17bc09c67c64618d8da987", "addresses": ["3Nc2UMniBVCM34eNnsXWoRKG22DbdXg64V"], "asm": "OP_HASH160 e569050147ef8c53343e17bc09c67c64618d8da9 OP_EQUAL", "type": "scripthash"}, "value": 0.00328057, "n": 5}, {"scriptPubKey": {"reqSigs": 1, "hex": "a914e94ffb84546ed6d928a7c5c2633ef4c767f239ab87", "addresses": ["3NxfBXAfFwmBiHX8x9HW4wv7UP8n7v9HSE"], "asm": "OP_HASH160 e94ffb84546ed6d928a7c5c2633ef4c767f239ab OP_EQUAL", "type": "scripthash"}, "value": 17.31118048, "n": 6}, {"scriptPubKey": {"reqSigs": 1, "hex": "a9149fff84235207953575107aeed435349936a2179f87", "addresses": ["3GH1Tcrv1YduhVstFXe4JH6VgCpaC1FNjo"], "asm": "OP_HASH160 9fff84235207953575107aeed435349936a2179f OP_EQUAL", "type": "scripthash"}, "value": 0.00687841, "n": 7}, {"scriptPubKey": {"reqSigs": 1, "hex": "a91471a9c7b6e857288ddc5585651f4f82ad332e371687", "addresses": ["3C41fkX9RkvAgNjwbTKjdXB2ZVNorecnmQ"], "asm": "OP_HASH160 71a9c7b6e857288ddc5585651f4f82ad332e3716 OP_EQUAL", "type": "scripthash"}, "value": 0.01618075, "n": 8}, {"scriptPubKey": {"reqSigs": 1, "hex": "a9141793c66342719c15319ccd769d732c7e944c5ff587", "addresses": ["33qgVYFDpV7SFajV21yPup7wnLxd962m3Z"], "asm": "OP_HASH160 1793c66342719c15319ccd769d732c7e944c5ff5 OP_EQUAL", "type": "scripthash"}, "value": 0.0025626, "n": 9}, {"scriptPubKey": {"reqSigs": 1, "hex": "a9145be6c5cd690587b804ebcc462ca4caf89315315b87", "addresses": ["3A4wsNCEr91uA2uNH3TVJP1QozUNVoS5v4"], "asm": "OP_HASH160 5be6c5cd690587b804ebcc462ca4caf89315315b OP_EQUAL", "type": "scripthash"}, "value": 0.00484269, "n": 10}, {"scriptPubKey": {"reqSigs": 1, "hex": "a9145cfcc72e792cbaa70ae7c4a7634da2a868f8665887", "addresses": ["3AAguX4kNAX2N6j7Kp3j2vCt5XukhYza1N"], "asm": "OP_HASH160 5cfcc72e792cbaa70ae7c4a7634da2a868f86658 OP_EQUAL", "type": "scripthash"}, "value": 0.0043979, "n": 11}, {"scriptPubKey": {"reqSigs": 1, "hex": "a9144036b1710f16142c2cd66f260a5168fbf99bac3487", "addresses": ["37YYgxzrbRvPLoYK7XAbwf4Kd4TYzcyM1t"], "asm": "OP_HASH160 4036b1710f16142c2cd66f260a5168fbf99bac34 OP_EQUAL", "type": "scripthash"}, "value": 0.0031946, "n": 12}, {"scriptPubKey": {"reqSigs": 1, "hex": "a914179123690b95e05c8f5a4a979fea77f3bc0e2ebd87", "addresses": ["33qdLLrt1wEtuH8tPLdt6PGQUua1cC1FVR"], "asm": "OP_HASH160 179123690b95e05c8f5a4a979fea77f3bc0e2ebd OP_EQUAL", "type": "scripthash"}, "value": 0.00511851, "n": 13}, {"scriptPubKey": {"reqSigs": 1, "hex": "a9145c66b337d621f628e8012de1ec31496a3aa84b1e87", "addresses": ["3A7b7vCxnAvdb6T9fJQtAjwj3Mt8m1fX7D"], "asm": "OP_HASH160 5c66b337d621f628e8012de1ec31496a3aa84b1e OP_EQUAL", "type": "scripthash"}, "value": 0.04073393, "n": 14}, {"scriptPubKey": {"reqSigs": 1, "hex": "76a91459890b5b17a387b8cc429df02893529142312be088ac", "addresses": ["19ARK5kTFazJzk7bAvuys9f8aQAuxKvvsJ"], "asm": "OP_DUP OP_HASH160 59890b5b17a387b8cc429df02893529142312be0 OP_EQUALVERIFY OP_CHECKSIG", "type": "pubkeyhash"}, "value": 0.16104651, "n": 15}, {"scriptPubKey": {"reqSigs": 1, "hex": "76a914da5436b63ae8e61681ebb362caa427388b884c7e88ac", "addresses": ["1LuRC6GGYChWS2MgWe1rGxVZRuKRcLgrcW"], "asm": "OP_DUP OP_HASH160 da5436b63ae8e61681ebb362caa427388b884c7e OP_EQUALVERIFY OP_CHECKSIG", "type": "pubkeyhash"}, "value": 0.00126832, "n": 16}, {"scriptPubKey": {"reqSigs": 1, "hex": "a9146844f9347713d84ed42302634a5bfa7aa36359c087", "addresses": ["3BCLprUp8DchX71jjHptGCUqBDLj7d9FqE"], "asm": "OP_HASH160 6844f9347713d84ed42302634a5bfa7aa36359c0 OP_EQUAL", "type": "scripthash"}, "value": 0.012, "n": 17}, {"scriptPubKey": {"reqSigs": 1, "hex": "a914835a0476201a6f72807f648d3224b4aa60bd589487", "addresses": ["3DfYHCD2b1PSGh69VEm3wSCjCBu8AYuRYJ"], "asm": "OP_HASH160 835a0476201a6f72807f648d3224b4aa60bd5894 OP_EQUAL", "type": "scripthash"}, "value": 0.0031, "n": 18}, {"scriptPubKey": {"reqSigs": 1, "hex": "a9148d69c998d3037229fb25dff932968621735dd33487", "addresses": ["3EajvqQU86iho8Y5Lydz3QtLuJZXrjRtN8"], "asm": "OP_HASH160 8d69c998d3037229fb25dff932968621735dd334 OP_EQUAL", "type": "scripthash"}, "value": 0.00166939, "n": 19}, {"scriptPubKey": {"reqSigs": 1, "hex": "a914a923bdf018e0a8917270e86c8b348878dd0e93be87", "addresses": ["3H7LwMf4gFgxUKCsCWdKY9nEe8ZTzjMFTU"], "asm": "OP_HASH160 a923bdf018e0a8917270e86c8b348878dd0e93be OP_EQUAL", "type": "scripthash"}, "value": 0.00271776, "n": 20}, {"scriptPubKey": {"reqSigs": 1, "hex": "a914a69e8aea825800828c69cacac85bfa881ce33c6187", "addresses": ["3Gt2287PpMYeKwoinz7fo5SsBAxvXdqhXt"], "asm": "OP_HASH160 a69e8aea825800828c69cacac85bfa881ce33c61 OP_EQUAL", "type": "scripthash"}, "value": 0.0003897, "n": 21}, {"scriptPubKey": {"reqSigs": 1, "hex": "a9145cddb113f1be8e429b1cd49b47fc546ed520a35887", "addresses": ["3AA3fbtCXQfpuhq2vS63naWUQnyrjnwK25"], "asm": "OP_HASH160 5cddb113f1be8e429b1cd49b47fc546ed520a358 OP_EQUAL", "type": "scripthash"}, "value": 0.01176346, "n": 22}, {"scriptPubKey": {"reqSigs": 1, "hex": "a9143a2e748393f4e4fbdb6e5f89f2e002331e296d6487", "addresses": ["36zemRqqHSq74sUBi5cBkbWMhMEkf5qaim"], "asm": "OP_HASH160 3a2e748393f4e4fbdb6e5f89f2e002331e296d64 OP_EQUAL", "type": "scripthash"}, "value": 0.0043979, "n": 23}, {"scriptPubKey": {"reqSigs": 1, "hex": "a91472038cb46f57673ed466c6ba762f359bfc913fbe87", "addresses": ["3C5sD3ZLvW3SF6TKe2u87AShW838HWyZTw"], "asm": "OP_HASH160 72038cb46f57673ed466c6ba762f359bfc913fbe OP_EQUAL", "type": "scripthash"}, "value": 0.00433506, "n": 24}, {"scriptPubKey": {"reqSigs": 1, "hex": "a91461c4bb9ed56197303e692637e78656b2af5349b987", "addresses": ["3Aby9Phxkm7LLsX51mR5tqS3AkVU3jfxLU"], "asm": "OP_HASH160 61c4bb9ed56197303e692637e78656b2af5349b9 OP_EQUAL", "type": "scripthash"}, "value": 0.00347319, "n": 25}, {"scriptPubKey": {"reqSigs": 1, "hex": "76a9148e5cdd25ae1738a7b1300c5eb6f9f4b653f72fd688ac", "addresses": ["1DykCXxavDjxTuVqzL7YfRbXyxRWG2GwFc"], "asm": "OP_DUP OP_HASH160 8e5cdd25ae1738a7b1300c5eb6f9f4b653f72fd6 OP_EQUALVERIFY OP_CHECKSIG", "type": "pubkeyhash"}, "value": 0.03924745, "n": 26}, {"scriptPubKey": {"reqSigs": 1, "hex": "a914b37abf58aefa0aefe9afc6a1720657beecfff46487", "addresses": ["3J41vXKQiCSDyGqtUn1VPQb4kRydxsyyeZ"], "asm": "OP_HASH160 b37abf58aefa0aefe9afc6a1720657beecfff464 OP_EQUAL", "type": "scripthash"}, "value": 0.00617707, "n": 27}, {"scriptPubKey": {"reqSigs": 1, "hex": "a914637f9bcd30ed227fdff86d20fbe68a9c15c4363987", "addresses": ["3Am7gwEfMsLqReRcNAjERxDwXHFHiM39UP"], "asm": "OP_HASH160 637f9bcd30ed227fdff86d20fbe68a9c15c43639 OP_EQUAL", "type": "scripthash"}, "value": 0.0038046, "n": 28}, {"scriptPubKey": {"reqSigs": 1, "hex": "a914962bee8a63ebadf37f8aae66cde16b37b2e66ea287", "addresses": ["3FP3uke8zfdECm9pehi1VYWcddGzjkinpg"], "asm": "OP_HASH160 962bee8a63ebadf37f8aae66cde16b37b2e66ea2 OP_EQUAL", "type": "scripthash"}, "value": 0.0119433, "n": 29}, {"scriptPubKey": {"reqSigs": 1, "hex": "a914bf242b8d887ddb60d140affde4e85a797c54258087", "addresses": ["3K7gKKyT3SP4FYa3DBvnhGnncxhYncGqXM"], "asm": "OP_HASH160 bf242b8d887ddb60d140affde4e85a797c542580 OP_EQUAL", "type": "scripthash"}, "value": 0.00490006, "n": 30}, {"scriptPubKey": {"reqSigs": 1, "hex": "a914bbeea9decb7d957a240b89e07053f78b7d40778b87", "addresses": ["3JpiC3tX9aATRtAWPp5SNEJZcGHEHW2XzZ"], "asm": "OP_HASH160 bbeea9decb7d957a240b89e07053f78b7d40778b OP_EQUAL", "type": "scripthash"}, "value": 0.01701534, "n": 31}, {"scriptPubKey": {"reqSigs": 1, "hex": "a9140963925a67bf72ce7b4ecc7712d46acd76f9968687", "addresses": ["32YfHdeZm2ntumgJyD7qNCEs5Ztmqt7gBb"], "asm": "OP_HASH160 0963925a67bf72ce7b4ecc7712d46acd76f99686 OP_EQUAL", "type": "scripthash"}, "value": 0.00559647, "n": 32}, {"scriptPubKey": {"reqSigs": 1, "hex": "a914eda21ecb59ff574cfdb56b4649a97393cfde900187", "addresses": ["3PMWHKgD6nPJdQqGur8JwxMWgkkxZtLwnM"], "asm": "OP_HASH160 eda21ecb59ff574cfdb56b4649a97393cfde9001 OP_EQUAL", "type": "scripthash"}, "value": 0.00440105, "n": 33}, {"scriptPubKey": {"reqSigs": 1, "hex": "a914ad2381817398ade8a873732863846dce5d183df987", "addresses": ["3HUVMir7n7TLFWVczC8pwuCsLWwWPQZqZz"], "asm": "OP_HASH160 ad2381817398ade8a873732863846dce5d183df9 OP_EQUAL", "type": "scripthash"}, "value": 0.00270868, "n": 34}, {"scriptPubKey": {"reqSigs": 1, "hex": "76a914c54fbe4ca095e7a428679f8ce1796d5c64f6df2888ac", "addresses": ["1JzHeTTVzKcSks2tkzSQnoVyQKnwUZZHV6"], "asm": "OP_DUP OP_HASH160 c54fbe4ca095e7a428679f8ce1796d5c64f6df28 OP_EQUALVERIFY OP_CHECKSIG", "type": "pubkeyhash"}, "value": 0.00793429, "n": 35}, {"scriptPubKey": {"reqSigs": 1, "hex": "a914259ea074fd8c00debdc96a01abad80afcd330a1487", "addresses": ["357vxDvtPCTv8gMP1Wwnkuzpe88ntNbpsY"], "asm": "OP_HASH160 259ea074fd8c00debdc96a01abad80afcd330a14 OP_EQUAL", "type": "scripthash"}, "value": 0.00062583, "n": 36}, {"scriptPubKey": {"reqSigs": 1, "hex": "a914e4b14e242a29d0ff68bf41ee0498127ce7f97b6787", "addresses": ["3NYEPfXcyPwhvL81J2vfvRaqto7z38EfJb"], "asm": "OP_HASH160 e4b14e242a29d0ff68bf41ee0498127ce7f97b67 OP_EQUAL", "type": "scripthash"}, "value": 0.00052161, "n": 37}, {"scriptPubKey": {"reqSigs": 1, "hex": "a914e0175f25a5fbb1725d873af02d15f3eaa685002f87", "addresses": ["3N7uHQVBFfEMLWRG72fmMQ68aQno24Dabq"], "asm": "OP_HASH160 e0175f25a5fbb1725d873af02d15f3eaa685002f OP_EQUAL", "type": "scripthash"}, "value": 0.00338257, "n": 38}, {"scriptPubKey": {"reqSigs": 1, "hex": "76a9149ee476ea66e8ef020951d2b280fc5ea017d3ece588ac", "addresses": ["1FV9TJWjWytDTaR5tuqVmaaoePeDSsKyKR"], "asm": "OP_DUP OP_HASH160 9ee476ea66e8ef020951d2b280fc5ea017d3ece5 OP_EQUALVERIFY OP_CHECKSIG", "type": "pubkeyhash"}, "value": 0.00662658, "n": 39}, {"scriptPubKey": {"reqSigs": 1, "hex": "a9141439e3142b5cb426f9d6ffcd3fad68972eb5d1e087", "addresses": ["33XxnSZNr51eGyYjYfYedF19K7k5Ukxoei"], "asm": "OP_HASH160 1439e3142b5cb426f9d6ffcd3fad68972eb5d1e0 OP_EQUAL", "type": "scripthash"}, "value": 0.00234522, "n": 40}, {"scriptPubKey": {"reqSigs": 1, "hex": "a914b6fe191e664a7e9860c641ca7e3ca386d5c9786087", "addresses": ["3JNbJWAzyytmy4BNAxmZEXdtRXLj3phxew"], "asm": "OP_HASH160 b6fe191e664a7e9860c641ca7e3ca386d5c97860 OP_EQUAL", "type": "scripthash"}, "value": 0.00468962, "n": 41}], "hex": "020000000001015a35b3e7b1e3338f50d875c9e37b2193a1be3739f77d39606a8732ce34760a791a00000017160014aac9c325b3e727b2b5eebbed9abc3fc0a6fec9c6feffffff2a290e1d000000000017a9140bae12a646ca5c7da2a24851766a85ce20627b6b87f02b07000000000017a91469773f3de7676846aa5ed3748b85cc2d994533d4872c8904000000000017a9147491a3fded50bfccb64262cc74d83abfce4bdff9877fa407000000000017a9141577d8fea674af923ba3c90941da9da9f86a68b5870a6991000000000017a91450503db7c61ca1fb213c3474f860d60a794617b387790105000000000017a914e569050147ef8c53343e17bc09c67c64618d8da987e0c32e670000000017a914e94ffb84546ed6d928a7c5c2633ef4c767f239ab87e17e0a000000000017a9149fff84235207953575107aeed435349936a2179f879bb018000000000017a91471a9c7b6e857288ddc5585651f4f82ad332e37168704e903000000000017a9141793c66342719c15319ccd769d732c7e944c5ff587ad6307000000000017a9145be6c5cd690587b804ebcc462ca4caf89315315b87eeb506000000000017a9145cfcc72e792cbaa70ae7c4a7634da2a868f8665887e4df04000000000017a9144036b1710f16142c2cd66f260a5168fbf99bac34876bcf07000000000017a914179123690b95e05c8f5a4a979fea77f3bc0e2ebd87b1273e000000000017a9145c66b337d621f628e8012de1ec31496a3aa84b1e87cbbcf500000000001976a91459890b5b17a387b8cc429df02893529142312be088ac70ef0100000000001976a914da5436b63ae8e61681ebb362caa427388b884c7e88ac804f12000000000017a9146844f9347713d84ed42302634a5bfa7aa36359c087f0ba04000000000017a914835a0476201a6f72807f648d3224b4aa60bd5894871b8c02000000000017a9148d69c998d3037229fb25dff932968621735dd33487a02504000000000017a914a923bdf018e0a8917270e86c8b348878dd0e93be873a9800000000000017a914a69e8aea825800828c69cacac85bfa881ce33c61871af311000000000017a9145cddb113f1be8e429b1cd49b47fc546ed520a35887eeb506000000000017a9143a2e748393f4e4fbdb6e5f89f2e002331e296d6487629d06000000000017a91472038cb46f57673ed466c6ba762f359bfc913fbe87b74c05000000000017a91461c4bb9ed56197303e692637e78656b2af5349b98709e33b00000000001976a9148e5cdd25ae1738a7b1300c5eb6f9f4b653f72fd688aceb6c09000000000017a914b37abf58aefa0aefe9afc6a1720657beecfff464872cce05000000000017a914637f9bcd30ed227fdff86d20fbe68a9c15c43639875a3912000000000017a914962bee8a63ebadf37f8aae66cde16b37b2e66ea287167a07000000000017a914bf242b8d887ddb60d140affde4e85a797c542580879ef619000000000017a914bbeea9decb7d957a240b89e07053f78b7d40778b871f8a08000000000017a9140963925a67bf72ce7b4ecc7712d46acd76f996868729b706000000000017a914eda21ecb59ff574cfdb56b4649a97393cfde900187142204000000000017a914ad2381817398ade8a873732863846dce5d183df987551b0c00000000001976a914c54fbe4ca095e7a428679f8ce1796d5c64f6df2888ac77f400000000000017a914259ea074fd8c00debdc96a01abad80afcd330a1487c1cb00000000000017a914e4b14e242a29d0ff68bf41ee0498127ce7f97b6787512905000000000017a914e0175f25a5fbb1725d873af02d15f3eaa685002f87821c0a00000000001976a9149ee476ea66e8ef020951d2b280fc5ea017d3ece588ac1a9403000000000017a9141439e3142b5cb426f9d6ffcd3fad68972eb5d1e087e22707000000000017a914b6fe191e664a7e9860c641ca7e3ca386d5c97860870247304402205d28efd5c1d86a355e8fd9043dd5c5a8e465b1835aba11a93773d1d0f8330f91022048ad5b353f5ca0b3eae200f35c4eeeace14ef363cd70979b4e49a3cc8b554a7b012102bcfe9cc2e6ddeb1a5260a1804fb7ce623f643da5f95c7870f016159caae5563d12490800", "vin": [{"txinwitness": ["304402205d28efd5c1d86a355e8fd9043dd5c5a8e465b1835aba11a93773d1d0f8330f91022048ad5b353f5ca0b3eae200f35c4eeeace14ef363cd70979b4e49a3cc8b554a7b01", "02bcfe9cc2e6ddeb1a5260a1804fb7ce623f643da5f95c7870f016159caae5563d"], "sequence": 4294967294, "scriptSig": {"hex": "160014aac9c325b3e727b2b5eebbed9abc3fc0a6fec9c6", "asm": "0014aac9c325b3e727b2b5eebbed9abc3fc0a6fec9c6"}, "vout": 26, "txid": "790a7634ce32876a60397df73937bea193217be3c975d8508f33e3b1e7b3355a"}], "txid": "f4838b68dcd0ec2fff8b73c1eac64e7767eb269f7edf7a47756b9225c6d04090", "blocktime": 1537872475, "version": 2, "confirmations": 11486, "time": 1537872475, "locktime": 542994, "vsize": 1456, "size": 1537}