{"hash": "207d7a04b08cef42c21b3ef64ea09486973525de6f3c81251bd7e74cfdf5b60e", "blockhash": "00000000000000000018f53835495a110e01622372bf6ae95dc86f2b0ab887b0", "vout": [{"scriptPubKey": {"reqSigs": 1, "hex": "76a914c1306b21bdf133ca63c2878bec67b42af15abb1888ac", "addresses": ["1JcVRCWiqL4tFuXJpfdVt2c8kpMeCDPnoo"], "asm": "OP_DUP OP_HASH160 c1306b21bdf133ca63c2878bec67b42af15abb18 OP_EQUALVERIFY OP_CHECKSIG", "type": "pubkeyhash"}, "value": 1.59, "n": 0}, {"scriptPubKey": {"reqSigs": 1, "hex": "a91469f376bacd883bac19372ccffaab96e855b00ed687", "addresses": ["3BMEXr3r5wdh1grv77far5C5GbccjzGdk8"], "asm": "OP_HASH160 69f376bacd883bac19372ccffaab96e855b00ed6 OP_EQUAL", "type": "scripthash"}, "value": 0.015, "n": 1}, {"scriptPubKey": {"reqSigs": 1, "hex": "a91469f376734c972d59bd1e18fd7959ddf3e472b57e87", "addresses": ["3BMEXmeq1MtmRFTjjTE8QqfvHx4AnW8bKv"], "asm": "OP_HASH160 69f376734c972d59bd1e18fd7959ddf3e472b57e OP_EQUAL", "type": "scripthash"}, "value": 0.0203, "n": 2}, {"scriptPubKey": {"reqSigs": 1, "hex": "a91489b809930519ce09e02263de3168b1c5239a3a7787", "addresses": ["3EFCxy3yfvQLC4Q1WAFJ4kSyph4gwJ2uts"], "asm": "OP_HASH160 89b809930519ce09e02263de3168b1c5239a3a77 OP_EQUAL", "type": "scripthash"}, "value": 0.0047, "n": 3}, {"scriptPubKey": {"reqSigs": 1, "hex": "0020701a8d401c84fb13e6baf169d59684e17abd9fa216c8cc5b9fc63d622ff8c58d", "addresses": ["bc1qwqdg6squsna38e46795at95yu9atm8azzmyvckulcc7kytlcckxswvvzej"], "asm": "0 701a8d401c84fb13e6baf169d59684e17abd9fa216c8cc5b9fc63d622ff8c58d", "type": "witness_v0_scripthash"}, "value": 7.1609, "n": 4}], "hex": "01000000000101f11082d6f470282b4e3692dbd68eefa93af82948bc16997ac2be7ba235fc38aa0100000000ffffffff05c0257a09000000001976a914c1306b21bdf133ca63c2878bec67b42af15abb1888ac60e316000000000017a91469f376bacd883bac19372ccffaab96e855b00ed687b0f91e000000000017a91469f376734c972d59bd1e18fd7959ddf3e472b57e87f02b07000000000017a91489b809930519ce09e02263de3168b1c5239a3a778790aaae2a00000000220020701a8d401c84fb13e6baf169d59684e17abd9fa216c8cc5b9fc63d622ff8c58d040047304402200c87b5dab8fdede6365b356a49845dbcc7b56dd718714f7505f559e58fa1cf2f02200f269f2f0d2e70efc5435fc735ea255a0de7f325914d893f228105330beaf87001473044022030d017ce63ce7854b259e5e7f77e552655a5a6586e0572e42618e76dc8b39b1b022071b8868da893a7f048f4f7da405874fd354a44465d0f1cb66602142e80f9236a016952210375e00eb72e29da82b89367947f29ef34afb75e8654f6ea368e0acdfd92976b7c2103a1b26313f430c4b15bb1fdce663207659d8cac749a0e53d70eff01874496feff2103c96d495bfdd5ba4145e3e046fee45e84a8a48ad05bd8dbb395c011a32cf9f88053ae00000000", "vin": [{"txinwitness": ["", "304402200c87b5dab8fdede6365b356a49845dbcc7b56dd718714f7505f559e58fa1cf2f02200f269f2f0d2e70efc5435fc735ea255a0de7f325914d893f228105330beaf87001", "3044022030d017ce63ce7854b259e5e7f77e552655a5a6586e0572e42618e76dc8b39b1b022071b8868da893a7f048f4f7da405874fd354a44465d0f1cb66602142e80f9236a01", "52210375e00eb72e29da82b89367947f29ef34afb75e8654f6ea368e0acdfd92976b7c2103a1b26313f430c4b15bb1fdce663207659d8cac749a0e53d70eff01874496feff2103c96d495bfdd5ba4145e3e046fee45e84a8a48ad05bd8dbb395c011a32cf9f88053ae"], "sequence": 4294967295, "scriptSig": {"hex": "", "asm": ""}, "vout": 1, "txid": "aa38fc35a27bbec27a9916bc4829f83aa9ef8ed6db92364e2b2870f4d68210f1"}], "txid": "f48e85a05bbd8612a55d6f8f10324f8279e308aa89de305643b8a4f2dc447af8", "blocktime": 1537870928, "version": 1, "confirmations": 11512, "time": 1537870928, "locktime": 0, "vsize": 288, "size": 478}