{"hash": "f4929a672aa1170d734440bdf54e4286d686e932a20d60f351f47c815dec73dc", "blockhash": "0000000000000000001f0ddff1eddb255c1121bcd4da4f1bc9a0da00cae72433", "vout": [{"scriptPubKey": {"reqSigs": 1, "hex": "76a914800c2bc15b940c256e8aef3956fad6b07ba4418988ac", "addresses": ["1Cg45CsDNViY92VTxS7qMPk1AJ6d4XCzQx"], "asm": "OP_DUP OP_HASH160 800c2bc15b940c256e8aef3956fad6b07ba44189 OP_EQUALVERIFY OP_CHECKSIG", "type": "pubkeyhash"}, "value": 0.002352, "n": 0}, {"scriptPubKey": {"reqSigs": 1, "hex": "76a914cc2d4fa2cf70107a00cc0cd5612117c91f2f3d1e88ac", "addresses": ["1Kcb8QLLfbdSVYETL9seiYVo8DE6BEh2XL"], "asm": "OP_DUP OP_HASH160 cc2d4fa2cf70107a00cc0cd5612117c91f2f3d1e OP_EQUALVERIFY OP_CHECKSIG", "type": "pubkeyhash"}, "value": 0.00154396, "n": 1}], "hex": "01000000017f3e0c08414f48aea318f1837d00ac5177f16d870429c90d5a9e64768140934d010000006a473044022003174f9d11c7fb098339d4cf2c57135990bc67b79c0e4a312a570a558264d9140220695b84091520888d2e48f20466d07afa7839cdbdbba2782a1acffdbe006659410121022d683f274a058d250917f86641a055841668cf1e18eb80f75b2f6465d4393923ffffffff02c0960300000000001976a914800c2bc15b940c256e8aef3956fad6b07ba4418988ac1c5b0200000000001976a914cc2d4fa2cf70107a00cc0cd5612117c91f2f3d1e88ac00000000", "vin": [{"sequence": 4294967295, "scriptSig": {"hex": "473044022003174f9d11c7fb098339d4cf2c57135990bc67b79c0e4a312a570a558264d9140220695b84091520888d2e48f20466d07afa7839cdbdbba2782a1acffdbe006659410121022d683f274a058d250917f86641a055841668cf1e18eb80f75b2f6465d4393923", "asm": "3044022003174f9d11c7fb098339d4cf2c57135990bc67b79c0e4a312a570a558264d9140220695b84091520888d2e48f20466d07afa7839cdbdbba2782a1acffdbe00665941[ALL] 022d683f274a058d250917f86641a055841668cf1e18eb80f75b2f6465d4393923"}, "vout": 1, "txid": "4d93408176649e5a0dc92904876df17751ac007d83f118a3ae484f41080c3e7f"}], "txid": "f4929a672aa1170d734440bdf54e4286d686e932a20d60f351f47c815dec73dc", "blocktime": 1537872018, "version": 1, "confirmations": 11489, "time": 1537872018, "locktime": 0, "vsize": 225, "size": 225}