{"hash": "f494745db7cc5a2507a98b49a08d4b5655dec84644464a80abda121c84263b97", "blockhash": "0000000000000000001cda96e906b7601b7a6fb1a3b62bca570a9e5d8f4b3de1", "vout": [{"scriptPubKey": {"reqSigs": 1, "hex": "76a91496ba2072049f8263c562156de503c5b3d86111ec88ac", "addresses": ["1EjyL64DE93e4Rg7LgQwqcTBpvkmcLQG5o"], "asm": "OP_DUP OP_HASH160 96ba2072049f8263c562156de503c5b3d86111ec OP_EQUALVERIFY OP_CHECKSIG", "type": "pubkeyhash"}, "value": 0.00078069, "n": 0}, {"scriptPubKey": {"reqSigs": 1, "hex": "76a914f8526a00b58c88f504e094fe2cc95480935d302288ac", "addresses": ["1Pe1Joe9XoHXLuyzepdaLiBw7PxxgkhVrM"], "asm": "OP_DUP OP_HASH160 f8526a00b58c88f504e094fe2cc95480935d3022 OP_EQUALVERIFY OP_CHECKSIG", "type": "pubkeyhash"}, "value": 0.00212542, "n": 1}], "hex": "0100000001856f4ecc2f7de88ce55e892e704f82f70b3eda21fed01b9f0a42b90b075783ad010000006b483045022100b70331dd5a7ba74104e8c98d200543165f2a3f48853504258f41148f7b05985902204de06e60a8ee4b9fad04ec7382c085877880250121a6ddff845ca8b6c9742308012103a74972a538c7b09031d936ce2a91fd43f3b2aea36ef97e0530479f29e7cb1c58ffffffff02f5300100000000001976a91496ba2072049f8263c562156de503c5b3d86111ec88ac3e3e0300000000001976a914f8526a00b58c88f504e094fe2cc95480935d302288ac00000000", "vin": [{"sequence": 4294967295, "scriptSig": {"hex": "483045022100b70331dd5a7ba74104e8c98d200543165f2a3f48853504258f41148f7b05985902204de06e60a8ee4b9fad04ec7382c085877880250121a6ddff845ca8b6c9742308012103a74972a538c7b09031d936ce2a91fd43f3b2aea36ef97e0530479f29e7cb1c58", "asm": "3045022100b70331dd5a7ba74104e8c98d200543165f2a3f48853504258f41148f7b05985902204de06e60a8ee4b9fad04ec7382c085877880250121a6ddff845ca8b6c9742308[ALL] 03a74972a538c7b09031d936ce2a91fd43f3b2aea36ef97e0530479f29e7cb1c58"}, "vout": 1, "txid": "ad8357070bb9420a9f1bd0fe21da3e0bf7824f702e895ee58ce87d2fcc4e6f85"}], "txid": "f494745db7cc5a2507a98b49a08d4b5655dec84644464a80abda121c84263b97", "blocktime": 1537873282, "version": 1, "confirmations": 11485, "time": 1537873282, "locktime": 0, "vsize": 226, "size": 226}