{"hash": "f499aae37e13e23da363ad8eec30c58de3b28a1f1c4bd80b93b06ec872811303", "blockhash": "0000000000000000000baef3f32e3676a92c3b2e5da21b426e4f302fc371ce76", "vout": [{"scriptPubKey": {"type": "nulldata", "hex": "6a4c50000078000001f88600651fb77b8e6189ffbad19ed074892d00f8e87af8e8e963c7cfd5b9f991beae7f275407d7b31575f78965d75baa19f9061349277ae2cc7b1d100759d4ba30d2c37bb011d97e02cf", "asm": "OP_RETURN 000078000001f88600651fb77b8e6189ffbad19ed074892d00f8e87af8e8e963c7cfd5b9f991beae7f275407d7b31575f78965d75baa19f9061349277ae2cc7b1d100759d4ba30d2c37bb011d97e02cf"}, "value": 0.0, "n": 0}, {"scriptPubKey": {"reqSigs": 1, "hex": "76a91497f961b945ea3b800ae0324ae37589164dca29b888ac", "addresses": ["1ErZnK9uNb41eDsgCt6YaCbvgGyeT4LE4f"], "asm": "OP_DUP OP_HASH160 97f961b945ea3b800ae0324ae37589164dca29b8 OP_EQUALVERIFY OP_CHECKSIG", "type": "pubkeyhash"}, "value": 0.005845, "n": 1}], "hex": "010000000166e021e36be85fe580ebcade16ae6dad45be8160a7c8b0e5f0d84afa8caa7e4d010000006a473044022058b5fd938607fe166813bb8bb736f3b30462bb809d4433113b05b549e7d1e25802203e410d417756d83bb67cf612e7344627fe2065ace0d0aa6bc8d0f39b31c627b60121033a0c2bacd1a6fdee2896b6338f848109ebd984bd90933e85e5849a777d446cadffffffff020000000000000000536a4c50000078000001f88600651fb77b8e6189ffbad19ed074892d00f8e87af8e8e963c7cfd5b9f991beae7f275407d7b31575f78965d75baa19f9061349277ae2cc7b1d100759d4ba30d2c37bb011d97e02cf34eb0800000000001976a91497f961b945ea3b800ae0324ae37589164dca29b888ac00000000", "vin": [{"sequence": 4294967295, "scriptSig": {"hex": "473044022058b5fd938607fe166813bb8bb736f3b30462bb809d4433113b05b549e7d1e25802203e410d417756d83bb67cf612e7344627fe2065ace0d0aa6bc8d0f39b31c627b60121033a0c2bacd1a6fdee2896b6338f848109ebd984bd90933e85e5849a777d446cad", "asm": "3044022058b5fd938607fe166813bb8bb736f3b30462bb809d4433113b05b549e7d1e25802203e410d417756d83bb67cf612e7344627fe2065ace0d0aa6bc8d0f39b31c627b6[ALL] 033a0c2bacd1a6fdee2896b6338f848109ebd984bd90933e85e5849a777d446cad"}, "vout": 1, "txid": "4d7eaa8cfa4ad8f0e5b0c8a76081be45ad6dae16decaeb80e55fe86be321e066"}], "txid": "f499aae37e13e23da363ad8eec30c58de3b28a1f1c4bd80b93b06ec872811303", "blocktime": 1537876114, "version": 1, "confirmations": 11460, "time": 1537876114, "locktime": 0, "vsize": 283, "size": 283}