{"hash": "f4a0548e3c63c85ab4a8270a9889cc85e41f6737a120fd171c05090c9363b59d", "blockhash": "00000000000000000024a2167bbff67b0be802c0b01cdd79e6331c2be6459f87", "vout": [{"scriptPubKey": {"reqSigs": 1, "hex": "a91455431127db1395ac045d59abc46b4d6d70c8022c87", "addresses": ["39TqhkHp5o8qgVHQZgx493pcdTE6i9Jcjh"], "asm": "OP_HASH160 55431127db1395ac045d59abc46b4d6d70c8022c OP_EQUAL", "type": "scripthash"}, "value": 0.004153, "n": 0}, {"scriptPubKey": {"reqSigs": 1, "hex": "76a914131192bd419eaf5711b0df66a549f5ffe8a8165388ac", "addresses": ["12jptepok7mxoSqy2as8LoqX4eZz7goGDi"], "asm": "OP_DUP OP_HASH160 131192bd419eaf5711b0df66a549f5ffe8a81653 OP_EQUALVERIFY OP_CHECKSIG", "type": "pubkeyhash"}, "value": 0.0110432, "n": 1}], "hex": "0100000001676b59671506f7e1a67cd716c35a6ad176c82fc4dcd63ca90dde959723a6f16f010000006b483045022100ef0187ec75abf11fc395e7506f56bcf8a6cc8078aec75bc41563b9a92c1d2e6402202cc0b3ad1c42169830bbe039f9baa1342d4a72dc3ad795c943ff8ab4bb996cc30121021cbb764b8ccda9846e77ecf2af2d706861c7736dc12d1c9c635c2cfc7971d582ffffffff02445606000000000017a91455431127db1395ac045d59abc46b4d6d70c8022c87c0d91000000000001976a914131192bd419eaf5711b0df66a549f5ffe8a8165388ac00000000", "vin": [{"sequence": 4294967295, "scriptSig": {"hex": "483045022100ef0187ec75abf11fc395e7506f56bcf8a6cc8078aec75bc41563b9a92c1d2e6402202cc0b3ad1c42169830bbe039f9baa1342d4a72dc3ad795c943ff8ab4bb996cc30121021cbb764b8ccda9846e77ecf2af2d706861c7736dc12d1c9c635c2cfc7971d582", "asm": "3045022100ef0187ec75abf11fc395e7506f56bcf8a6cc8078aec75bc41563b9a92c1d2e6402202cc0b3ad1c42169830bbe039f9baa1342d4a72dc3ad795c943ff8ab4bb996cc3[ALL] 021cbb764b8ccda9846e77ecf2af2d706861c7736dc12d1c9c635c2cfc7971d582"}, "vout": 1, "txid": "6ff1a6239795de0da93cd6dcc42fc876d16a5ac316d77ca6e1f7061567596b67"}], "txid": "f4a0548e3c63c85ab4a8270a9889cc85e41f6737a120fd171c05090c9363b59d", "blocktime": 1537870564, "version": 1, "confirmations": 11515, "time": 1537870564, "locktime": 0, "vsize": 224, "size": 224}