{"hash": "56cafc69c4f1ed99dbc5b58a78609139926698f92567228bfe839d1aa9348588", "blockhash": "0000000000000000000baef3f32e3676a92c3b2e5da21b426e4f302fc371ce76", "vout": [{"scriptPubKey": {"reqSigs": 1, "hex": "76a914e6f953b8961f8d3664f2bcec044905c758d79f3c88ac", "addresses": ["1N4H6fhAdcPS4kcL1Fs8j9ff6puok3tj3W"], "asm": "OP_DUP OP_HASH160 e6f953b8961f8d3664f2bcec044905c758d79f3c OP_EQUALVERIFY OP_CHECKSIG", "type": "pubkeyhash"}, "value": 0.00102237, "n": 0}, {"scriptPubKey": {"reqSigs": 1, "hex": "a914414cec0fc72a9410f6836edaf08de1aa3b2a321c87", "addresses": ["37eHzewnAFRR2SVZu8rZM3nBsmuE2XBU7D"], "asm": "OP_HASH160 414cec0fc72a9410f6836edaf08de1aa3b2a321c OP_EQUAL", "type": "scripthash"}, "value": 0.23389271, "n": 1}], "hex": "01000000000101c73b6eb6b13b888cca0c43501016c4725760cc70c5ce7e04e43e91c4c7735b830100000023220020ce74cde37cfb8dd71d0179287e12fc721ee236ce3c89c2745bcd365b39807eb3ffffffff025d8f0100000000001976a914e6f953b8961f8d3664f2bcec044905c758d79f3c88ac57e464010000000017a914414cec0fc72a9410f6836edaf08de1aa3b2a321c87040047304402204238fd84d06ddbfb2d965e0d49ef7babefee2b020d4038ff21a3f4ff14a4bee902201d2a6ea487ce634495b46d380f7e77bdd4fea066050f65d76d0dddcbea3138f3014730440220086d3128683c4b45151f96f4a4662e626f706bdd1f97daca65d4bfed98aa09290220592a5373ed0cf24d467a9ee15f19204bfec2bf8d5bb78cacd0f6d57fea2097450147522103ada901d90d5a76319a60f228e0b1bbc84b1d9a87238550bae5d5d190067b66712103871fc2ca08e6950b38867e8e6a0e94ee625223d3aa0df5c65f414c6d784467e252ae00000000", "vin": [{"txinwitness": ["", "304402204238fd84d06ddbfb2d965e0d49ef7babefee2b020d4038ff21a3f4ff14a4bee902201d2a6ea487ce634495b46d380f7e77bdd4fea066050f65d76d0dddcbea3138f301", "30440220086d3128683c4b45151f96f4a4662e626f706bdd1f97daca65d4bfed98aa09290220592a5373ed0cf24d467a9ee15f19204bfec2bf8d5bb78cacd0f6d57fea20974501", "522103ada901d90d5a76319a60f228e0b1bbc84b1d9a87238550bae5d5d190067b66712103871fc2ca08e6950b38867e8e6a0e94ee625223d3aa0df5c65f414c6d784467e252ae"], "sequence": 4294967295, "scriptSig": {"hex": "220020ce74cde37cfb8dd71d0179287e12fc721ee236ce3c89c2745bcd365b39807eb3", "asm": "0020ce74cde37cfb8dd71d0179287e12fc721ee236ce3c89c2745bcd365b39807eb3"}, "vout": 1, "txid": "835b73c7c4913ee4047ecec570cc605772c4161050430cca8c883bb1b66e3bc7"}], "txid": "f4a5c7d071ebbc7b0f37dd1d7c276ab163b053f5179f8241259c24cf7715dff1", "blocktime": 1537876114, "version": 1, "confirmations": 11460, "time": 1537876114, "locktime": 0, "vsize": 207, "size": 372}