{"hash": "f4a9afd1d62cdeaf0074d099248e5599e7b605a55875c4a5ef22cbe7776c9842", "blockhash": "0000000000000000001e0dab787dd257d1dbfcb92a98c2207d5e1078be1f4165", "vout": [{"scriptPubKey": {"reqSigs": 1, "hex": "76a91493cc286ddefb385047867579a9c89ecc17dab82e88ac", "addresses": ["1EUUuLkQ7N8pNctXnHKtLLYjrX6TULuq9f"], "asm": "OP_DUP OP_HASH160 93cc286ddefb385047867579a9c89ecc17dab82e OP_EQUALVERIFY OP_CHECKSIG", "type": "pubkeyhash"}, "value": 0.04998644, "n": 0}, {"scriptPubKey": {"reqSigs": 1, "hex": "76a914092fb89e7ea9ee67ffb2664167b2fc6396f4393188ac", "addresses": ["1qaFTBTiXzocUdvTDtaHVTDuTr7TV9LUa"], "asm": "OP_DUP OP_HASH160 092fb89e7ea9ee67ffb2664167b2fc6396f43931 OP_EQUALVERIFY OP_CHECKSIG", "type": "pubkeyhash"}, "value": 1.03, "n": 1}], "hex": "0100000001e6d79c98a907719684479ac18633c889ff4185696ca3e087bfb1ec01de098917000000006b483045022100c344fe764f50e26d3e2cbed82710b0848b0f2ec4015c72147aeff72c5398b488022041e6924f5488c1b0dbe10a7d92d22e00f69691399d61dea6324c1ced418f3fdf012103bbe203fd925100b34de2259e436993895cfc3ad0f8bd306d280f7e48716a9a58ffffffff02f4454c00000000001976a91493cc286ddefb385047867579a9c89ecc17dab82e88acc0a72306000000001976a914092fb89e7ea9ee67ffb2664167b2fc6396f4393188ac00000000", "vin": [{"sequence": 4294967295, "scriptSig": {"hex": "483045022100c344fe764f50e26d3e2cbed82710b0848b0f2ec4015c72147aeff72c5398b488022041e6924f5488c1b0dbe10a7d92d22e00f69691399d61dea6324c1ced418f3fdf012103bbe203fd925100b34de2259e436993895cfc3ad0f8bd306d280f7e48716a9a58", "asm": "3045022100c344fe764f50e26d3e2cbed82710b0848b0f2ec4015c72147aeff72c5398b488022041e6924f5488c1b0dbe10a7d92d22e00f69691399d61dea6324c1ced418f3fdf[ALL] 03bbe203fd925100b34de2259e436993895cfc3ad0f8bd306d280f7e48716a9a58"}, "vout": 0, "txid": "178909de01ecb1bf87e0a36c698541ff89c83386c19a4784967107a9989cd7e6"}], "txid": "f4a9afd1d62cdeaf0074d099248e5599e7b605a55875c4a5ef22cbe7776c9842", "blocktime": 1537872475, "version": 1, "confirmations": 11486, "time": 1537872475, "locktime": 0, "vsize": 226, "size": 226}