{"hash": "f4b15496c660ea10999a514d2d4a6f77e18224efc07f7df8943a48713b6dde24", "blockhash": "0000000000000000001e0dab787dd257d1dbfcb92a98c2207d5e1078be1f4165", "vout": [{"scriptPubKey": {"reqSigs": 1, "hex": "76a914f25d6d14f7109f8b968b9a774e7eb524fddfdb6988ac", "addresses": ["1P6WSnNZQzbVUxPVbHxdW3QTQHxhLgyiXH"], "asm": "OP_DUP OP_HASH160 f25d6d14f7109f8b968b9a774e7eb524fddfdb69 OP_EQUALVERIFY OP_CHECKSIG", "type": "pubkeyhash"}, "value": 5.93e-05, "n": 0}, {"scriptPubKey": {"reqSigs": 1, "hex": "a914756d1dec2b625f9fd7c38e78f8182f82498b21f387", "addresses": ["3CPuhZYnj2W7QKMRUT1zjtkU6GyHZbjZCS"], "asm": "OP_HASH160 756d1dec2b625f9fd7c38e78f8182f82498b21f3 OP_EQUAL", "type": "scripthash"}, "value": 0.000804, "n": 1}], "hex": "0100000002ac1ab5089f9359f70ea8394c42184f64744192e86233be85fc51bde32cfc1e410f0000006b4830450221008da8a771545a80679c4468f3356a93a668a0caf906340986d7c865e8b3a1e3a302203b4c17f3457e60c93b716fb0642808d05cf6ea9d432abb48b86e4bfc1917bf550121020bad5b0c49bca65564e9ee7ccab3b1c83a1c67bb22ed0b4a71aa935cab07c473ffffffff5f88a3b42c306918e1dc0bfde55a0805f2d4ec40d9b0b504abdd7e2c37477498000000006b483045022100faff1896b6dced0f6dcf286f8fc99eeb5e068c1aaef4fdc0140ce26b4c7199ba02202544bb6448869df829ff34beda2300eca547e774c0e969123fd734ef326b07300121039c65c2c8bd39936288a733d7fde0bee5de3338e0d53a246ed0f579309b2e0a4bffffffff022a170000000000001976a914f25d6d14f7109f8b968b9a774e7eb524fddfdb6988ac103a01000000000017a914756d1dec2b625f9fd7c38e78f8182f82498b21f38700000000", "vin": [{"sequence": 4294967295, "scriptSig": {"hex": "4830450221008da8a771545a80679c4468f3356a93a668a0caf906340986d7c865e8b3a1e3a302203b4c17f3457e60c93b716fb0642808d05cf6ea9d432abb48b86e4bfc1917bf550121020bad5b0c49bca65564e9ee7ccab3b1c83a1c67bb22ed0b4a71aa935cab07c473", "asm": "30450221008da8a771545a80679c4468f3356a93a668a0caf906340986d7c865e8b3a1e3a302203b4c17f3457e60c93b716fb0642808d05cf6ea9d432abb48b86e4bfc1917bf55[ALL] 020bad5b0c49bca65564e9ee7ccab3b1c83a1c67bb22ed0b4a71aa935cab07c473"}, "vout": 15, "txid": "411efc2ce3bd51fc85be3362e8924174644f18424c39a80ef759939f08b51aac"}, {"sequence": 4294967295, "scriptSig": {"hex": "483045022100faff1896b6dced0f6dcf286f8fc99eeb5e068c1aaef4fdc0140ce26b4c7199ba02202544bb6448869df829ff34beda2300eca547e774c0e969123fd734ef326b07300121039c65c2c8bd39936288a733d7fde0bee5de3338e0d53a246ed0f579309b2e0a4b", "asm": "3045022100faff1896b6dced0f6dcf286f8fc99eeb5e068c1aaef4fdc0140ce26b4c7199ba02202544bb6448869df829ff34beda2300eca547e774c0e969123fd734ef326b0730[ALL] 039c65c2c8bd39936288a733d7fde0bee5de3338e0d53a246ed0f579309b2e0a4b"}, "vout": 0, "txid": "987447372c7eddab04b5b0d940ecd4f205085ae5fd0bdce11869302cb4a3885f"}], "txid": "f4b15496c660ea10999a514d2d4a6f77e18224efc07f7df8943a48713b6dde24", "blocktime": 1537872475, "version": 1, "confirmations": 11487, "time": 1537872475, "locktime": 0, "vsize": 372, "size": 372}