{"hash": "f4b2ec37202a3a95b0a0998668bc697a0aa27a3330c20e13535e5ff0b74ec4bf", "blockhash": "00000000000000000017f5eb5941039fbcee6240d03bc1f2f8e35350df66a1d8", "vout": [{"scriptPubKey": {"reqSigs": 1, "hex": "76a9143f2e61ef5dbfd992acb2a875d24b318e06d67c1388ac", "addresses": ["16m58oWuHkTfbq67qRXAioWtCWbVS2GT6g"], "asm": "OP_DUP OP_HASH160 3f2e61ef5dbfd992acb2a875d24b318e06d67c13 OP_EQUALVERIFY OP_CHECKSIG", "type": "pubkeyhash"}, "value": 0.01641737, "n": 0}], "hex": "0100000007b8b2c23216165e29c5e6348483ce6f6e885ca5fa8df5b3d5fe5dc818f3dece5a000000006a4730440220263530c7deb3947f38914aeb0676cd1d4e593793562a7d723ada0acc0c17ab860220512c9dc81f6c92df59e5546bbac662c96b42326c10bb0cd8df430fa929ed9707012102a3a01e2675a1bcc2803d5783c4686f6dd7b3a281e4d6f67c7c6e320e633d5e22ffffffff8e6c198ff1c3cdd555a3c5b2dba2ffdb35867d53b300465c3b304fb015c6b494000000006b483045022100b8e49c8fd5688ae14ad8871229c421c759f1f9e292dfc58612f20d9a94c5a0bb02205db602245ce8ac69e6f01b0c4d7b66a94e445658afd5e78433715f096325b93101210300c487a31e9de361c8602523dc0766ca6df22c937fa28fe26a3e3bda4f17f199ffffffff041426c3ccafd209e4959919827cc2327404776abc0d853ed5316133427b19be000000006a47304402200380a4beff98b59311abe67425887e4fb0d60e07a2bda63aab4f1cc0c6e268aa0220188a8950dc67a93367184e2a76f93c67ab29160bb7637d949882cd55351910f40121035ff7b9cf0599ebe0a3c4299ab8f9e9483f63ae88e7e8e8946a7507dbff6ed587ffffffff39a5d9de402faff7ee2f6bbf3cb3c3244e349719a3e8e067e15c4ca88e4491e5010000006a4730440220744d7c7a545e8c70a58142b84046c2d60399fb017f7711393fdf50db78b356d702203c85c6b94abd68edc309d8fa2ea9eed8a5329a9706b94de8b58b92431c4a29d60121024c2dc2b1d16bf5ae4721a791dc08021c14931b556ef9620a49e9942693d67fdcffffffff653a58b47fdc58186832ea4f99c2ab32ff2bb5ad5a9e40d336406a412c8f33f0000000006a473044022023313888534d81ecb748497afaee43602df2143a09e9f6a2ee29f548d609f74a02200a29615d0ff1e3a129983dc28d65f70731ec721715630509c0273e3ac2e71f69012102a2f41af1d27123c86dc243531b58fa8fd173e41a05b6ec5ad8a8d7d85c05a13dffffffff2bad04cff726191422578779854b51a2ee061ab40b51b1888f44957de1277cf3000000006b48304502210098fa5273111010dfe052ad0cd6a24db11dc25f48836b3ec54805f429817a4fcc02202b244e70ab9c7247ce5f4177bdf5e54713584807c34a1de28e42eb545a93b251012103e4702eb007b1a0ef6bcf39cbf763802afcb6defd7ac43c2fec0cd16aaf877d01ffffffff134749e72084d8e4cd601ad9521abe867ddf0df165f113f238b5be5120f2c2fa010000006a473044022025ecf4cd0baebce933ba1d1ec78e3b2d82d4b82e389073ab04c725e3c94a0b580220103a3cc180509cfb11ff3432f5cccee97aa5329ab77c16318b75accea03a3819012103efc3d94d11e5e753fce77e920e82b61167cc82c92ef2795d5194940e5e20d630ffffffff01090d1900000000001976a9143f2e61ef5dbfd992acb2a875d24b318e06d67c1388ac00000000", "vin": [{"sequence": 4294967295, "scriptSig": {"hex": "4730440220263530c7deb3947f38914aeb0676cd1d4e593793562a7d723ada0acc0c17ab860220512c9dc81f6c92df59e5546bbac662c96b42326c10bb0cd8df430fa929ed9707012102a3a01e2675a1bcc2803d5783c4686f6dd7b3a281e4d6f67c7c6e320e633d5e22", "asm": "30440220263530c7deb3947f38914aeb0676cd1d4e593793562a7d723ada0acc0c17ab860220512c9dc81f6c92df59e5546bbac662c96b42326c10bb0cd8df430fa929ed9707[ALL] 02a3a01e2675a1bcc2803d5783c4686f6dd7b3a281e4d6f67c7c6e320e633d5e22"}, "vout": 0, "txid": "5acedef318c85dfed5b3f58dfaa55c886e6fce838434e6c5295e161632c2b2b8"}, {"sequence": 4294967295, "scriptSig": {"hex": "483045022100b8e49c8fd5688ae14ad8871229c421c759f1f9e292dfc58612f20d9a94c5a0bb02205db602245ce8ac69e6f01b0c4d7b66a94e445658afd5e78433715f096325b93101210300c487a31e9de361c8602523dc0766ca6df22c937fa28fe26a3e3bda4f17f199", "asm": "3045022100b8e49c8fd5688ae14ad8871229c421c759f1f9e292dfc58612f20d9a94c5a0bb02205db602245ce8ac69e6f01b0c4d7b66a94e445658afd5e78433715f096325b931[ALL] 0300c487a31e9de361c8602523dc0766ca6df22c937fa28fe26a3e3bda4f17f199"}, "vout": 0, "txid": "94b4c615b04f303b5c4600b3537d8635dbffa2dbb2c5a355d5cdc3f18f196c8e"}, {"sequence": 4294967295, "scriptSig": {"hex": "47304402200380a4beff98b59311abe67425887e4fb0d60e07a2bda63aab4f1cc0c6e268aa0220188a8950dc67a93367184e2a76f93c67ab29160bb7637d949882cd55351910f40121035ff7b9cf0599ebe0a3c4299ab8f9e9483f63ae88e7e8e8946a7507dbff6ed587", "asm": "304402200380a4beff98b59311abe67425887e4fb0d60e07a2bda63aab4f1cc0c6e268aa0220188a8950dc67a93367184e2a76f93c67ab29160bb7637d949882cd55351910f4[ALL] 035ff7b9cf0599ebe0a3c4299ab8f9e9483f63ae88e7e8e8946a7507dbff6ed587"}, "vout": 0, "txid": "be197b42336131d53e850dbc6a77047432c27c82199995e409d2afccc3261404"}, {"sequence": 4294967295, "scriptSig": {"hex": "4730440220744d7c7a545e8c70a58142b84046c2d60399fb017f7711393fdf50db78b356d702203c85c6b94abd68edc309d8fa2ea9eed8a5329a9706b94de8b58b92431c4a29d60121024c2dc2b1d16bf5ae4721a791dc08021c14931b556ef9620a49e9942693d67fdc", "asm": "30440220744d7c7a545e8c70a58142b84046c2d60399fb017f7711393fdf50db78b356d702203c85c6b94abd68edc309d8fa2ea9eed8a5329a9706b94de8b58b92431c4a29d6[ALL] 024c2dc2b1d16bf5ae4721a791dc08021c14931b556ef9620a49e9942693d67fdc"}, "vout": 1, "txid": "e591448ea84c5ce167e0e8a31997344e24c3b33cbf6b2feef7af2f40ded9a539"}, {"sequence": 4294967295, "scriptSig": {"hex": "473044022023313888534d81ecb748497afaee43602df2143a09e9f6a2ee29f548d609f74a02200a29615d0ff1e3a129983dc28d65f70731ec721715630509c0273e3ac2e71f69012102a2f41af1d27123c86dc243531b58fa8fd173e41a05b6ec5ad8a8d7d85c05a13d", "asm": "3044022023313888534d81ecb748497afaee43602df2143a09e9f6a2ee29f548d609f74a02200a29615d0ff1e3a129983dc28d65f70731ec721715630509c0273e3ac2e71f69[ALL] 02a2f41af1d27123c86dc243531b58fa8fd173e41a05b6ec5ad8a8d7d85c05a13d"}, "vout": 0, "txid": "f0338f2c416a4036d3409e5aadb52bff32abc2994fea32681858dc7fb4583a65"}, {"sequence": 4294967295, "scriptSig": {"hex": "48304502210098fa5273111010dfe052ad0cd6a24db11dc25f48836b3ec54805f429817a4fcc02202b244e70ab9c7247ce5f4177bdf5e54713584807c34a1de28e42eb545a93b251012103e4702eb007b1a0ef6bcf39cbf763802afcb6defd7ac43c2fec0cd16aaf877d01", "asm": "304502210098fa5273111010dfe052ad0cd6a24db11dc25f48836b3ec54805f429817a4fcc02202b244e70ab9c7247ce5f4177bdf5e54713584807c34a1de28e42eb545a93b251[ALL] 03e4702eb007b1a0ef6bcf39cbf763802afcb6defd7ac43c2fec0cd16aaf877d01"}, "vout": 0, "txid": "f37c27e17d95448f88b1510bb41a06eea2514b8579875722141926f7cf04ad2b"}, {"sequence": 4294967295, "scriptSig": {"hex": "473044022025ecf4cd0baebce933ba1d1ec78e3b2d82d4b82e389073ab04c725e3c94a0b580220103a3cc180509cfb11ff3432f5cccee97aa5329ab77c16318b75accea03a3819012103efc3d94d11e5e753fce77e920e82b61167cc82c92ef2795d5194940e5e20d630", "asm": "3044022025ecf4cd0baebce933ba1d1ec78e3b2d82d4b82e389073ab04c725e3c94a0b580220103a3cc180509cfb11ff3432f5cccee97aa5329ab77c16318b75accea03a3819[ALL] 03efc3d94d11e5e753fce77e920e82b61167cc82c92ef2795d5194940e5e20d630"}, "vout": 1, "txid": "fac2f22051beb538f213f165f10ddf7d86be1a52d91a60cde4d88420e7494713"}], "txid": "f4b2ec37202a3a95b0a0998668bc697a0aa27a3330c20e13535e5ff0b74ec4bf", "blocktime": 1537874412, "version": 1, "confirmations": 11467, "time": 1537874412, "locktime": 0, "vsize": 1075, "size": 1075}