{"hash": "839ba7426bf09e5f3aff1f631eb9c35258c198822675afdb0d581c87fb015541", "blockhash": "0000000000000000001f0ddff1eddb255c1121bcd4da4f1bc9a0da00cae72433", "vout": [{"scriptPubKey": {"reqSigs": 1, "hex": "a91449d7e96499e76d96ef877a2fcb98823c8bccba2187", "addresses": ["38RTuMXR3rjgmqC2TwiJHrCLzc9nbGoNw7"], "asm": "OP_HASH160 49d7e96499e76d96ef877a2fcb98823c8bccba21 OP_EQUAL", "type": "scripthash"}, "value": 0.00139574, "n": 0}], "hex": "01000000000101be007e1a573be12fc647347ab99b4e2e5c859a7c3dd897ca81db3c94ffe45fee0000000017160014909efe183db660d90409d01eeb728d4237a8bbafffffffff01362102000000000017a91449d7e96499e76d96ef877a2fcb98823c8bccba218702483045022100d9848feab0b1ff6d2de1e7e67c852daace8b6289149eadc8a7c12e19184714b702204dc37455b0f6e9d9ff6b9e806fcf1a09cf37b24f35c76233196daacdccc8d2dc012102b3b92c9792b844b217d6813d63ff3cfaf313c19b3bdd3e5ce29ab6fbabdc451700000000", "vin": [{"txinwitness": ["3045022100d9848feab0b1ff6d2de1e7e67c852daace8b6289149eadc8a7c12e19184714b702204dc37455b0f6e9d9ff6b9e806fcf1a09cf37b24f35c76233196daacdccc8d2dc01", "02b3b92c9792b844b217d6813d63ff3cfaf313c19b3bdd3e5ce29ab6fbabdc4517"], "sequence": 4294967295, "scriptSig": {"hex": "160014909efe183db660d90409d01eeb728d4237a8bbaf", "asm": "0014909efe183db660d90409d01eeb728d4237a8bbaf"}, "vout": 0, "txid": "ee5fe4ff943cdb81ca97d83d7c9a855c2e4e9bb97a3447c62fe13b571a7e00be"}], "txid": "f4b7da31773f554b034b290ec947d679cd7e800516218b58894255e20fa7df7b", "blocktime": 1537872018, "version": 1, "confirmations": 11489, "time": 1537872018, "locktime": 0, "vsize": 134, "size": 216}