{"hash": "f4bba5209e65a1008088bf470385d99c4d4fc6d8cae921ef2e37b9d1b53081db", "blockhash": "00000000000000000004ffacab907a6b429b9a5745fa0b75af4234bf69dd7176", "vout": [{"scriptPubKey": {"reqSigs": 1, "hex": "76a914b345ddd1c5631b72c8bc2f0b3a3ca68c99ae309188ac", "addresses": ["1HLuekGHvzSV4H6ZVj7JuT9DWeidK5EZ83"], "asm": "OP_DUP OP_HASH160 b345ddd1c5631b72c8bc2f0b3a3ca68c99ae3091 OP_EQUALVERIFY OP_CHECKSIG", "type": "pubkeyhash"}, "value": 3.8297611, "n": 0}, {"scriptPubKey": {"reqSigs": 1, "hex": "76a91479ea599b5a49757a0574e06825f6d9b66922e22c88ac", "addresses": ["1C7dW8wBtgNrXd7kHCPKTwbUtmZwj7t2ci"], "asm": "OP_DUP OP_HASH160 79ea599b5a49757a0574e06825f6d9b66922e22c OP_EQUALVERIFY OP_CHECKSIG", "type": "pubkeyhash"}, "value": 44.66025522, "n": 1}], "hex": "020000000135ae79fb82ff0649308d7ec06c8da21d832e729bbc08d7bb9ee8159b31ff2178000000006b483045022100e30384621f565d3be8c7cfe3cca40f56acf835aa7495194c232ebfd550930aa002204265f085d9629997aa62831d161b853124702c80426063b56eeb9911e8e83dfa012102e759388df92805c1c1aedf0b0278e967c140a47c20b8b352d15f1cc6a8ddf625ffffffff026ec0d316000000001976a914b345ddd1c5631b72c8bc2f0b3a3ca68c99ae309188ac3224320a010000001976a91479ea599b5a49757a0574e06825f6d9b66922e22c88ac00000000", "vin": [{"sequence": 4294967295, "scriptSig": {"hex": "483045022100e30384621f565d3be8c7cfe3cca40f56acf835aa7495194c232ebfd550930aa002204265f085d9629997aa62831d161b853124702c80426063b56eeb9911e8e83dfa012102e759388df92805c1c1aedf0b0278e967c140a47c20b8b352d15f1cc6a8ddf625", "asm": "3045022100e30384621f565d3be8c7cfe3cca40f56acf835aa7495194c232ebfd550930aa002204265f085d9629997aa62831d161b853124702c80426063b56eeb9911e8e83dfa[ALL] 02e759388df92805c1c1aedf0b0278e967c140a47c20b8b352d15f1cc6a8ddf625"}, "vout": 0, "txid": "7821ff319b15e89ebbd708bc9b722e831da28d6cc07e8d304906ff82fb79ae35"}], "txid": "f4bba5209e65a1008088bf470385d99c4d4fc6d8cae921ef2e37b9d1b53081db", "blocktime": 1537875543, "version": 2, "confirmations": 11464, "time": 1537875543, "locktime": 0, "vsize": 226, "size": 226}