{"hash": "531c555b07a438f2a8e32560a7b91d6da629012431082c4b665dc2c75c3e42ba", "blockhash": "000000000000000000022b45ed06c6f4ccd3cf7fb5ba4856ebd2e58215665228", "vout": [{"scriptPubKey": {"reqSigs": 1, "hex": "76a9144d786eac13badabe4d504d8e7e3da8b44823dd7788ac", "addresses": ["184dJZBDGut5uxv8udLwvHAEk7gs6txmwJ"], "asm": "OP_DUP OP_HASH160 4d786eac13badabe4d504d8e7e3da8b44823dd77 OP_EQUALVERIFY OP_CHECKSIG", "type": "pubkeyhash"}, "value": 8.0, "n": 0}, {"scriptPubKey": {"reqSigs": 1, "hex": "a9149d5061016b83cb20ffb68c522fe328af856cbf0b87", "addresses": ["3G2pJVCMSGHeJZ8UTWnbUTKQkj2AHd25Vh"], "asm": "OP_HASH160 9d5061016b83cb20ffb68c522fe328af856cbf0b OP_EQUAL", "type": "scripthash"}, "value": 25.87147068, "n": 1}], "hex": "010000000001046faccd48babc042f60af59d18f967fb74b8d85be8226feb8ded7e1c23147efa201000000171600142ad30affce315915039c241fb55c7768bfa94210ffffffff9c5bf4588feaa303c8e277d074f2e91c54d9d5c322f873bf9c5d8578d597475d01000000171600147d9c0ba5db808618941da631bf3cd4915a1e2825ffffffffc5af09cbef0d769690ded257fea9c1f186fc40603632237c1613f2f1e244eb5301000000171600148e6ea6b7595fa1c7ceeb6c87f5ae5b7153a3da17ffffffffec52d928eb89794d4ae49c06f7572d5f7734f65fb0f496adf4d41102c27efa8f010000001716001468fde8bc70ec71edac084f448653a3d6c85c05c3ffffffff020008af2f000000001976a9144d786eac13badabe4d504d8e7e3da8b44823dd7788ac3cbb349a0000000017a9149d5061016b83cb20ffb68c522fe328af856cbf0b870247304402207ff82e59532ac004a390d0194b38d2c63488c391ddacdf0224a82ec8938ea8fa02200cec3c427349091477b266be832af36e409a3522651d9ff69e9b53afe050d8b3012102d4ce1b635bf09bedc29db6de1bfd21cb6f85161988dde477fa10b947001521ea024830450221009938d0bd83a6a34f470a4e39b27f151c945e787b1c144e9c4c5ca32f7ac3ddec0220627b2c638d9b9c77448baf0ef30b9e5eefca5f3595a5ce23de3f0186febb03880121037927baa2837039cd87987871db6f73509726a6ffc912c95eb14f9428337816f802483045022100937378cdb2637520d1e5c7c097b86f562d3037c49ddfc66aaba43d8949b97708022024973f13f7d1047fe6551be199e06b4242a6bf089152b2051bc4ef241a1ffe68012103844cfa81fba68736392c31648b05cac03207110210388ac8088679f049e251a1024830450221008db5bb9f6bb3915092db1b6d90daee37bfd2eae4ffde1b201f30be59e9a0cb8702205711b637aeeba45020bb82abd7c91e020208b82eacfeef7c5f35fd02b166f4a101210227e693624466959f76b6631b6600f98df3c19c1e74c07828cacc147f036dce4600000000", "vin": [{"txinwitness": ["304402207ff82e59532ac004a390d0194b38d2c63488c391ddacdf0224a82ec8938ea8fa02200cec3c427349091477b266be832af36e409a3522651d9ff69e9b53afe050d8b301", "02d4ce1b635bf09bedc29db6de1bfd21cb6f85161988dde477fa10b947001521ea"], "sequence": 4294967295, "scriptSig": {"hex": "1600142ad30affce315915039c241fb55c7768bfa94210", "asm": "00142ad30affce315915039c241fb55c7768bfa94210"}, "vout": 1, "txid": "a2ef4731c2e1d7deb8fe2682be858d4bb77f968fd159af602f04bcba48cdac6f"}, {"txinwitness": ["30450221009938d0bd83a6a34f470a4e39b27f151c945e787b1c144e9c4c5ca32f7ac3ddec0220627b2c638d9b9c77448baf0ef30b9e5eefca5f3595a5ce23de3f0186febb038801", "037927baa2837039cd87987871db6f73509726a6ffc912c95eb14f9428337816f8"], "sequence": 4294967295, "scriptSig": {"hex": "1600147d9c0ba5db808618941da631bf3cd4915a1e2825", "asm": "00147d9c0ba5db808618941da631bf3cd4915a1e2825"}, "vout": 1, "txid": "5d4797d578855d9cbf73f822c3d5d9541ce9f274d077e2c803a3ea8f58f45b9c"}, {"txinwitness": ["3045022100937378cdb2637520d1e5c7c097b86f562d3037c49ddfc66aaba43d8949b97708022024973f13f7d1047fe6551be199e06b4242a6bf089152b2051bc4ef241a1ffe6801", "03844cfa81fba68736392c31648b05cac03207110210388ac8088679f049e251a1"], "sequence": 4294967295, "scriptSig": {"hex": "1600148e6ea6b7595fa1c7ceeb6c87f5ae5b7153a3da17", "asm": "00148e6ea6b7595fa1c7ceeb6c87f5ae5b7153a3da17"}, "vout": 1, "txid": "53eb44e2f1f213167c2332366040fc86f1c1a9fe57d2de9096760defcb09afc5"}, {"txinwitness": ["30450221008db5bb9f6bb3915092db1b6d90daee37bfd2eae4ffde1b201f30be59e9a0cb8702205711b637aeeba45020bb82abd7c91e020208b82eacfeef7c5f35fd02b166f4a101", "0227e693624466959f76b6631b6600f98df3c19c1e74c07828cacc147f036dce46"], "sequence": 4294967295, "scriptSig": {"hex": "16001468fde8bc70ec71edac084f448653a3d6c85c05c3", "asm": "001468fde8bc70ec71edac084f448653a3d6c85c05c3"}, "vout": 1, "txid": "8ffa7ec20211d4f4ad96f4b05ff634775f2d57f7069ce44a4d7989eb28d952ec"}], "txid": "f4bf59d7f1493e02ede2c6e2f0cc36be87b5b56165a3625771c57b4422fb7a62", "blocktime": 1537869901, "version": 1, "confirmations": 11522, "time": 1537869901, "locktime": 0, "vsize": 441, "size": 765}