{"hash": "f4c113eedf4186251613a63695cf28d46d209e184ff79fde4273413dfcb9eb3b", "blockhash": "00000000000000000017f5eb5941039fbcee6240d03bc1f2f8e35350df66a1d8", "vout": [{"scriptPubKey": {"type": "nulldata", "hex": "6a4c50000077f9000173c6785583fdcd5810d7b003d19ed074892d00f8e87af8e8e963c7cfd5b91c6ec5b79404a56ae471711b4400952f5baa18ec061413bf410ec9ccbc9a9526289ac0f6612cd74e33776ee4", "asm": "OP_RETURN 000077f9000173c6785583fdcd5810d7b003d19ed074892d00f8e87af8e8e963c7cfd5b91c6ec5b79404a56ae471711b4400952f5baa18ec061413bf410ec9ccbc9a9526289ac0f6612cd74e33776ee4"}, "value": 0.0, "n": 0}, {"scriptPubKey": {"reqSigs": 1, "hex": "76a914c536e5781472c925817991ef637b406ac64a172f88ac", "addresses": ["1Jymt4J5955UoCW4npzX9hTgzY1YrLtbs4"], "asm": "OP_DUP OP_HASH160 c536e5781472c925817991ef637b406ac64a172f OP_EQUALVERIFY OP_CHECKSIG", "type": "pubkeyhash"}, "value": 0.0012412, "n": 1}], "hex": "0100000001c9f3f1f45b0fb9debf09667973257c7e446feb10cc4c2567a227caf15e9f0665010000006b483045022100ef27866465ab16a774d055b13b408f248c540b71afcbc4d7533e4ccb5c21680402206b7cd7078a1358925ba9a21ad807102ad67852720888d31491f4afe85429b46b0121027845219a1a1ca0d0efb697dc39a5ecca14627e4d1f8d8cb553efebe97d9b9db6ffffffff020000000000000000536a4c50000077f9000173c6785583fdcd5810d7b003d19ed074892d00f8e87af8e8e963c7cfd5b91c6ec5b79404a56ae471711b4400952f5baa18ec061413bf410ec9ccbc9a9526289ac0f6612cd74e33776ee4d8e40100000000001976a914c536e5781472c925817991ef637b406ac64a172f88ac00000000", "vin": [{"sequence": 4294967295, "scriptSig": {"hex": "483045022100ef27866465ab16a774d055b13b408f248c540b71afcbc4d7533e4ccb5c21680402206b7cd7078a1358925ba9a21ad807102ad67852720888d31491f4afe85429b46b0121027845219a1a1ca0d0efb697dc39a5ecca14627e4d1f8d8cb553efebe97d9b9db6", "asm": "3045022100ef27866465ab16a774d055b13b408f248c540b71afcbc4d7533e4ccb5c21680402206b7cd7078a1358925ba9a21ad807102ad67852720888d31491f4afe85429b46b[ALL] 027845219a1a1ca0d0efb697dc39a5ecca14627e4d1f8d8cb553efebe97d9b9db6"}, "vout": 1, "txid": "65069f5ef1ca27a267254ccc10eb6f447e7c2573796609bfdeb90f5bf4f1f3c9"}], "txid": "f4c113eedf4186251613a63695cf28d46d209e184ff79fde4273413dfcb9eb3b", "blocktime": 1537874412, "version": 1, "confirmations": 11467, "time": 1537874412, "locktime": 0, "vsize": 284, "size": 284}