{"hash": "f4c7b889f232df6c768eba23fa6e1601413c7e8e9d161ea9eb298279180b6e74", "blockhash": "0000000000000000000e13cef7c366c0283d82e591d1acd082e914b08063cdf1", "vout": [{"scriptPubKey": {"reqSigs": 1, "hex": "76a914b75517c4a59b1ca0adeec78e13f698f9dbdef8e088ac", "addresses": ["1HiNbTeZiAW5MJRTYEQbHSKQgzWWPzyGPA"], "asm": "OP_DUP OP_HASH160 b75517c4a59b1ca0adeec78e13f698f9dbdef8e0 OP_EQUALVERIFY OP_CHECKSIG", "type": "pubkeyhash"}, "value": 0.00018633, "n": 0}], "hex": "0100000001862cb2acba26d0fe78584a57248ce0aad48d8c8a5c01bca81f442a7497843794000000006a47304402205fd37f50596e7fd8f0d4e89975dd71ba90d54f38e3b3d575a4aa12ab322bc9c002204eafe9963411945b1bb617e166ff720e747741481116c6260e1e24746b73c51a01210233cf6feeda0219a764c20b4a68b49b23f14b78cf0d445e0ac022edf0461141e4ffffffff01c9480000000000001976a914b75517c4a59b1ca0adeec78e13f698f9dbdef8e088ac00000000", "vin": [{"sequence": 4294967295, "scriptSig": {"hex": "47304402205fd37f50596e7fd8f0d4e89975dd71ba90d54f38e3b3d575a4aa12ab322bc9c002204eafe9963411945b1bb617e166ff720e747741481116c6260e1e24746b73c51a01210233cf6feeda0219a764c20b4a68b49b23f14b78cf0d445e0ac022edf0461141e4", "asm": "304402205fd37f50596e7fd8f0d4e89975dd71ba90d54f38e3b3d575a4aa12ab322bc9c002204eafe9963411945b1bb617e166ff720e747741481116c6260e1e24746b73c51a[ALL] 0233cf6feeda0219a764c20b4a68b49b23f14b78cf0d445e0ac022edf0461141e4"}, "vout": 0, "txid": "94378497742a441fa8bc015c8a8c8dd4aae08c24574a5878fed026baacb22c86"}], "txid": "f4c7b889f232df6c768eba23fa6e1601413c7e8e9d161ea9eb298279180b6e74", "blocktime": 1537871767, "version": 1, "confirmations": 11493, "time": 1537871767, "locktime": 0, "vsize": 191, "size": 191}