{"hash": "f4c8f39db069b97378a04a071340909d3f3c4dca12785ce39a5714ba063d6758", "blockhash": "00000000000000000004ffacab907a6b429b9a5745fa0b75af4234bf69dd7176", "vout": [{"scriptPubKey": {"reqSigs": 1, "hex": "76a914f884f5da41a85ea7678e1bf3ae492508bb0b620788ac", "addresses": ["1Pf3rpfcimufcMX2nK46GSsx2KVkVKDtap"], "asm": "OP_DUP OP_HASH160 f884f5da41a85ea7678e1bf3ae492508bb0b6207 OP_EQUALVERIFY OP_CHECKSIG", "type": "pubkeyhash"}, "value": 0.01222278, "n": 0}, {"scriptPubKey": {"reqSigs": 1, "hex": "a91470e8737d4df08c93f39d2f9b9d0d0a58533aaa8887", "addresses": ["3Bz251ufJGdbfHnrfqHT7BL4SQ5wYSYisw"], "asm": "OP_HASH160 70e8737d4df08c93f39d2f9b9d0d0a58533aaa88 OP_EQUAL", "type": "scripthash"}, "value": 0.0040778, "n": 1}], "hex": "0200000002a26ce0d3b904a590672b42b4603d8ba0a5f82d99add0775097faf90c60f3080c010000006b4830450221008ed210edf146e15b6861450b28327acf0cde7728dd356c441e8490d5db610c3702207f392559305c59d9eb035b0cf3e471887462a423c2b22cf666bf693525678eb10121021af83434bcc65e942e8a17ecd74199e7174d9f5ea5439ee70359533f90ec2042feffffff3664d600ebbbac4070bc60a83be8a4066d12c81b1ff3db02beacf4f1e6244524000000006b483045022100c68eb09a16f667cd8542c2f1ceb0a6903d4a2013f51a11471d550bee5352dd8602204248cbe2c00e0a70675f0590a407c9ed6a0d7f50a391b81b0e35cc61f9f3e73e012102406d1b137b1b6d1ed2295b001fe54cd103b812b3d623e1ac87b5d37b34060d4bfeffffff0286a61200000000001976a914f884f5da41a85ea7678e1bf3ae492508bb0b620788ace43806000000000017a91470e8737d4df08c93f39d2f9b9d0d0a58533aaa888715490800", "vin": [{"sequence": 4294967294, "scriptSig": {"hex": "4830450221008ed210edf146e15b6861450b28327acf0cde7728dd356c441e8490d5db610c3702207f392559305c59d9eb035b0cf3e471887462a423c2b22cf666bf693525678eb10121021af83434bcc65e942e8a17ecd74199e7174d9f5ea5439ee70359533f90ec2042", "asm": "30450221008ed210edf146e15b6861450b28327acf0cde7728dd356c441e8490d5db610c3702207f392559305c59d9eb035b0cf3e471887462a423c2b22cf666bf693525678eb1[ALL] 021af83434bcc65e942e8a17ecd74199e7174d9f5ea5439ee70359533f90ec2042"}, "vout": 1, "txid": "0c08f3600cf9fa975077d0ad992df8a5a08b3d60b4422b6790a504b9d3e06ca2"}, {"sequence": 4294967294, "scriptSig": {"hex": "483045022100c68eb09a16f667cd8542c2f1ceb0a6903d4a2013f51a11471d550bee5352dd8602204248cbe2c00e0a70675f0590a407c9ed6a0d7f50a391b81b0e35cc61f9f3e73e012102406d1b137b1b6d1ed2295b001fe54cd103b812b3d623e1ac87b5d37b34060d4b", "asm": "3045022100c68eb09a16f667cd8542c2f1ceb0a6903d4a2013f51a11471d550bee5352dd8602204248cbe2c00e0a70675f0590a407c9ed6a0d7f50a391b81b0e35cc61f9f3e73e[ALL] 02406d1b137b1b6d1ed2295b001fe54cd103b812b3d623e1ac87b5d37b34060d4b"}, "vout": 0, "txid": "244524e6f1f4acbe02dbf31f1bc8126d06a4e83ba860bc7040acbbeb00d66436"}], "txid": "f4c8f39db069b97378a04a071340909d3f3c4dca12785ce39a5714ba063d6758", "blocktime": 1537875543, "version": 2, "confirmations": 11464, "time": 1537875543, "locktime": 542997, "vsize": 372, "size": 372}