{"hash": "f4cbd2aa1648ff028eca1a9085261044a9a65c99c3bc426e44c82884298ac65c", "blockhash": "00000000000000000004ffacab907a6b429b9a5745fa0b75af4234bf69dd7176", "vout": [{"scriptPubKey": {"type": "nulldata", "hex": "6a146f6d6e69000000000000001f000000975756de8d", "asm": "OP_RETURN 6f6d6e69000000000000001f000000975756de8d"}, "value": 0.0, "n": 0}, {"scriptPubKey": {"reqSigs": 1, "hex": "76a914a25dec4d0011064ef106a983c39c7a540699f22088ac", "addresses": ["1FoWyxwPXuj4C6abqwhjDWdz6D4PZgYRjA"], "asm": "OP_DUP OP_HASH160 a25dec4d0011064ef106a983c39c7a540699f220 OP_EQUALVERIFY OP_CHECKSIG", "type": "pubkeyhash"}, "value": 0.01966348, "n": 1}, {"scriptPubKey": {"reqSigs": 1, "hex": "76a9143ca54542aecc42f2f7d46bd7cd88c4ceaff426e188ac", "addresses": ["16XfXi7dK5riE9u8yZjNMejQrdqF5FwfWn"], "asm": "OP_DUP OP_HASH160 3ca54542aecc42f2f7d46bd7cd88c4ceaff426e1 OP_EQUALVERIFY OP_CHECKSIG", "type": "pubkeyhash"}, "value": 5.46e-06, "n": 2}], "hex": "0100000001141e8b7fd6a9f483dd2b33f4041b6ec0b4e1c6bdc10eb568ce82afb35f7825e1020000006b483045022100805c99e7e2864e55aae01be97c2f654d782fee66676e0a1077c2d4ad141e6a13022057abdef69b4d921c62503b2915a8e8d6a00b3f65cde38a37578efe5433f1ff7c012103da5bac7b36d5aa38f531c6b9601e21bb598a4b6716ebed38b009a55dabde9440feffffff030000000000000000166a146f6d6e69000000000000001f000000975756de8d0c011e00000000001976a914a25dec4d0011064ef106a983c39c7a540699f22088ac22020000000000001976a9143ca54542aecc42f2f7d46bd7cd88c4ceaff426e188ac16490800", "vin": [{"sequence": 4294967294, "scriptSig": {"hex": "483045022100805c99e7e2864e55aae01be97c2f654d782fee66676e0a1077c2d4ad141e6a13022057abdef69b4d921c62503b2915a8e8d6a00b3f65cde38a37578efe5433f1ff7c012103da5bac7b36d5aa38f531c6b9601e21bb598a4b6716ebed38b009a55dabde9440", "asm": "3045022100805c99e7e2864e55aae01be97c2f654d782fee66676e0a1077c2d4ad141e6a13022057abdef69b4d921c62503b2915a8e8d6a00b3f65cde38a37578efe5433f1ff7c[ALL] 03da5bac7b36d5aa38f531c6b9601e21bb598a4b6716ebed38b009a55dabde9440"}, "vout": 2, "txid": "e125785fb3af82ce68b50ec1bdc6e1b4c06e1b04f4332bdd83f4a9d67f8b1e14"}], "txid": "f4cbd2aa1648ff028eca1a9085261044a9a65c99c3bc426e44c82884298ac65c", "blocktime": 1537875543, "version": 1, "confirmations": 11464, "time": 1537875543, "locktime": 542998, "vsize": 257, "size": 257}