{"hash": "f4ce6f29892389af9485a3291fa4ba738f28ab236ca14986486cd22f381e19d3", "blockhash": "0000000000000000000e13cef7c366c0283d82e591d1acd082e914b08063cdf1", "vout": [{"scriptPubKey": {"reqSigs": 1, "hex": "a914924ede2b9ca7ab1bae36b4d793e0184dd3fb747187", "addresses": ["3F2d4PK2opzn1hzHDxyxizaJUac96Cddyc"], "asm": "OP_HASH160 924ede2b9ca7ab1bae36b4d793e0184dd3fb7471 OP_EQUAL", "type": "scripthash"}, "value": 0.15400299, "n": 0}, {"scriptPubKey": {"reqSigs": 1, "hex": "76a914a8e5427d1001cb23d444083b71db0ebe02f475bf88ac", "addresses": ["1GQ3AUPP6CQB1mNT8dap5tw9qbHrNsSZre"], "asm": "OP_DUP OP_HASH160 a8e5427d1001cb23d444083b71db0ebe02f475bf OP_EQUALVERIFY OP_CHECKSIG", "type": "pubkeyhash"}, "value": 0.00173794, "n": 1}], "hex": "0100000001e947b8c2ea3efc86106eaa7f153c2c1ac696ed886b226e529c0975cad5dbabad25000000da00483045022100e8e1e7eb9c9665f96f084f61e0d09ed406523ed75397143fbe0a16a89e42542402203047a8e314864221dcba8d93319f4b8369c6f195e3f922f71dcf84cab52235730147304402202815c2f6cf641d5e3b298372ef57512f80f4ca2bce6149ca00c441e589572a95022028c3d2a4a779bed0860183aef993dd61ca0a0dc63feaf2e80e377f806e7e1d020147522102907a54bed8ad74b3f35638c60114ca240a308cb986f3f2f306178869a8880b612103688894934443a1ed05b6f94d1f8073ed1eb4b860c129727724d9eaafb2ca981552aeffffffff026bfdea000000000017a914924ede2b9ca7ab1bae36b4d793e0184dd3fb747187e2a60200000000001976a914a8e5427d1001cb23d444083b71db0ebe02f475bf88ac00000000", "vin": [{"sequence": 4294967295, "scriptSig": {"hex": "00483045022100e8e1e7eb9c9665f96f084f61e0d09ed406523ed75397143fbe0a16a89e42542402203047a8e314864221dcba8d93319f4b8369c6f195e3f922f71dcf84cab52235730147304402202815c2f6cf641d5e3b298372ef57512f80f4ca2bce6149ca00c441e589572a95022028c3d2a4a779bed0860183aef993dd61ca0a0dc63feaf2e80e377f806e7e1d020147522102907a54bed8ad74b3f35638c60114ca240a308cb986f3f2f306178869a8880b612103688894934443a1ed05b6f94d1f8073ed1eb4b860c129727724d9eaafb2ca981552ae", "asm": "0 3045022100e8e1e7eb9c9665f96f084f61e0d09ed406523ed75397143fbe0a16a89e42542402203047a8e314864221dcba8d93319f4b8369c6f195e3f922f71dcf84cab5223573[ALL] 304402202815c2f6cf641d5e3b298372ef57512f80f4ca2bce6149ca00c441e589572a95022028c3d2a4a779bed0860183aef993dd61ca0a0dc63feaf2e80e377f806e7e1d02[ALL] 522102907a54bed8ad74b3f35638c60114ca240a308cb986f3f2f306178869a8880b612103688894934443a1ed05b6f94d1f8073ed1eb4b860c129727724d9eaafb2ca981552ae"}, "vout": 37, "txid": "adabdbd5ca75099c526e226b88ed96c61a2c3c157faa6e1086fc3eeac2b847e9"}], "txid": "f4ce6f29892389af9485a3291fa4ba738f28ab236ca14986486cd22f381e19d3", "blocktime": 1537871767, "version": 1, "confirmations": 11495, "time": 1537871767, "locktime": 0, "vsize": 335, "size": 335}