{"hash": "f4d305dcb57f57eaf0a5f798dcb693ce7f29fbc083de7edc5860ed8793b38733", "blockhash": "0000000000000000000baef3f32e3676a92c3b2e5da21b426e4f302fc371ce76", "vout": [{"scriptPubKey": {"reqSigs": 1, "hex": "a9141a26c607e0b7e0d2586a3391df2bb3665444674987", "addresses": ["345HwZk8uDM9wVxZd2j5BdYtau6qaGQhGD"], "asm": "OP_HASH160 1a26c607e0b7e0d2586a3391df2bb36654446749 OP_EQUAL", "type": "scripthash"}, "value": 0.0022759, "n": 0}, {"scriptPubKey": {"reqSigs": 1, "hex": "a914062b5509e2eca513bf4761665571b9bc56aa676187", "addresses": ["32FdtU52duxkwGGSRJ5NuLqYUi2qJfqot1"], "asm": "OP_HASH160 062b5509e2eca513bf4761665571b9bc56aa6761 OP_EQUAL", "type": "scripthash"}, "value": 0.11059882, "n": 1}], "hex": "0100000001a98a29c9e5880b1232c301cae87dcb04b001f490138f6248f230c9ca5eb6678901000000da004830450221009bf4ac755c48a974a644f5bc25be901cfeee395e9fa05bd3a4eb9a7698a9b31802205d8188f9705dbbd90a8ecb04c1f7d8a0f89a4d626897e134f5cbe8438e32b09201473044022068ada3550320db4c06c6e3359cdbf2af95f2c448478b10959753a84fb8e3fa440220345c5ed3256508735f3dc487f442e74c6c070e2cfd9d6e194c403010094068850147522103abc8a801f5fbb4fd5f6510ba530d534b0efb584b4298cea1e6e2d45cd1000aef2102a29577404fa42d6d12e0d867249d4ee805afecc9e10879ed668da9958dc7b65052aeffffffff02067903000000000017a9141a26c607e0b7e0d2586a3391df2bb3665444674987aac2a8000000000017a914062b5509e2eca513bf4761665571b9bc56aa67618700000000", "vin": [{"sequence": 4294967295, "scriptSig": {"hex": "004830450221009bf4ac755c48a974a644f5bc25be901cfeee395e9fa05bd3a4eb9a7698a9b31802205d8188f9705dbbd90a8ecb04c1f7d8a0f89a4d626897e134f5cbe8438e32b09201473044022068ada3550320db4c06c6e3359cdbf2af95f2c448478b10959753a84fb8e3fa440220345c5ed3256508735f3dc487f442e74c6c070e2cfd9d6e194c403010094068850147522103abc8a801f5fbb4fd5f6510ba530d534b0efb584b4298cea1e6e2d45cd1000aef2102a29577404fa42d6d12e0d867249d4ee805afecc9e10879ed668da9958dc7b65052ae", "asm": "0 30450221009bf4ac755c48a974a644f5bc25be901cfeee395e9fa05bd3a4eb9a7698a9b31802205d8188f9705dbbd90a8ecb04c1f7d8a0f89a4d626897e134f5cbe8438e32b092[ALL] 3044022068ada3550320db4c06c6e3359cdbf2af95f2c448478b10959753a84fb8e3fa440220345c5ed3256508735f3dc487f442e74c6c070e2cfd9d6e194c40301009406885[ALL] 522103abc8a801f5fbb4fd5f6510ba530d534b0efb584b4298cea1e6e2d45cd1000aef2102a29577404fa42d6d12e0d867249d4ee805afecc9e10879ed668da9958dc7b65052ae"}, "vout": 1, "txid": "8967b65ecac930f248628f1390f401b004cb7de8ca01c332120b88e5c9298aa9"}], "txid": "f4d305dcb57f57eaf0a5f798dcb693ce7f29fbc083de7edc5860ed8793b38733", "blocktime": 1537876114, "version": 1, "confirmations": 11460, "time": 1537876114, "locktime": 0, "vsize": 333, "size": 333}