{"hash": "f4d7f4faca20ae4e670d9e16448d8a0e637a32b7ac9e602e3879bf12d87ead41", "blockhash": "0000000000000000001cda96e906b7601b7a6fb1a3b62bca570a9e5d8f4b3de1", "vout": [{"scriptPubKey": {"reqSigs": 1, "hex": "a9145046c4bd72ee816a37b3528ab88f3b1eb6fe227f87", "addresses": ["391UkyNyF6Z7g8dV8u7GK7Y6BXi6NCKGz1"], "asm": "OP_HASH160 5046c4bd72ee816a37b3528ab88f3b1eb6fe227f OP_EQUAL", "type": "scripthash"}, "value": 0.01112638, "n": 0}, {"scriptPubKey": {"reqSigs": 1, "hex": "a91459717d985ba506642bffdfe30d5effb2a275cd5d87", "addresses": ["39qx25iozNLjttfnvJtE4i1h5tTdEBfmUN"], "asm": "OP_HASH160 59717d985ba506642bffdfe30d5effb2a275cd5d OP_EQUAL", "type": "scripthash"}, "value": 0.00274802, "n": 1}], "hex": "02000000024dc309f1102fe58f30238117a604c954c93f1fddd2ca248d14d1214bfdf3c0ee000000008a47304402202444a8ced99203a27d80b93f8a4ccb472ceec6550e644faa9447194069a488b1022073415dbb23ac018a558f5b42ccda760efe452d6912e054dbfbb85abb18d103fb01410410b96607bf8b99208fe4348eaca163ef028f14aa8cc5ac9228782365d3ee0c4229100d4a225ea4d1f25e19780e479f97700d3cf533500f4248eec4baf5bc4fb4feffffff7ef3a19c45aa345adf8f68390596c66866a5df974de35e56277d6bb1e9716ecc010000008a47304402202c1ec908bef63624854da171752e729980114372b0eb776ce6ae9c57ecd6e2d402203d8933ec1ba2e1d23ca5927504d7d96ce3b4cc0d766c7b1694edf23d28f6dfd6014104be8c9e6ce337f6928b54b2acf19b1992eb9f8de27c505fc5d60d3b4d3572ee693300f73fdd0fd14b2d729da996aca43d37140a274d3a921215f9a73ed2278d5efeffffff023efa10000000000017a9145046c4bd72ee816a37b3528ab88f3b1eb6fe227f87723104000000000017a91459717d985ba506642bffdfe30d5effb2a275cd5d8713490800", "vin": [{"sequence": 4294967294, "scriptSig": {"hex": "47304402202444a8ced99203a27d80b93f8a4ccb472ceec6550e644faa9447194069a488b1022073415dbb23ac018a558f5b42ccda760efe452d6912e054dbfbb85abb18d103fb01410410b96607bf8b99208fe4348eaca163ef028f14aa8cc5ac9228782365d3ee0c4229100d4a225ea4d1f25e19780e479f97700d3cf533500f4248eec4baf5bc4fb4", "asm": "304402202444a8ced99203a27d80b93f8a4ccb472ceec6550e644faa9447194069a488b1022073415dbb23ac018a558f5b42ccda760efe452d6912e054dbfbb85abb18d103fb[ALL] 0410b96607bf8b99208fe4348eaca163ef028f14aa8cc5ac9228782365d3ee0c4229100d4a225ea4d1f25e19780e479f97700d3cf533500f4248eec4baf5bc4fb4"}, "vout": 0, "txid": "eec0f3fd4b21d1148d24cad2dd1f3fc954c904a6178123308fe52f10f109c34d"}, {"sequence": 4294967294, "scriptSig": {"hex": "47304402202c1ec908bef63624854da171752e729980114372b0eb776ce6ae9c57ecd6e2d402203d8933ec1ba2e1d23ca5927504d7d96ce3b4cc0d766c7b1694edf23d28f6dfd6014104be8c9e6ce337f6928b54b2acf19b1992eb9f8de27c505fc5d60d3b4d3572ee693300f73fdd0fd14b2d729da996aca43d37140a274d3a921215f9a73ed2278d5e", "asm": "304402202c1ec908bef63624854da171752e729980114372b0eb776ce6ae9c57ecd6e2d402203d8933ec1ba2e1d23ca5927504d7d96ce3b4cc0d766c7b1694edf23d28f6dfd6[ALL] 04be8c9e6ce337f6928b54b2acf19b1992eb9f8de27c505fc5d60d3b4d3572ee693300f73fdd0fd14b2d729da996aca43d37140a274d3a921215f9a73ed2278d5e"}, "vout": 1, "txid": "cc6e71e9b16b7d27565ee34d97dfa56668c6960539688fdf5a34aa459ca1f37e"}], "txid": "f4d7f4faca20ae4e670d9e16448d8a0e637a32b7ac9e602e3879bf12d87ead41", "blocktime": 1537873282, "version": 2, "confirmations": 11485, "time": 1537873282, "locktime": 542995, "vsize": 432, "size": 432}