{"hash": "103a8325daae0d6ab8ee0d62a030e4d1c586b340461be21100d63e56b43b73ec", "blockhash": "0000000000000000000e13cef7c366c0283d82e591d1acd082e914b08063cdf1", "vout": [{"scriptPubKey": {"reqSigs": 1, "hex": "a91490e0fc5f581d779fbd64816962c2973bc758d01087", "addresses": ["3Eu4kTT5Mevv9NDcHaJWUgZqMxQaCL5r17"], "asm": "OP_HASH160 90e0fc5f581d779fbd64816962c2973bc758d010 OP_EQUAL", "type": "scripthash"}, "value": 0.01476, "n": 0}, {"scriptPubKey": {"reqSigs": 1, "hex": "00141dadc421251309c9bd370c44cd94d7c262c94e3b", "addresses": ["bc1qrkkuggf9zvyun0fhp3zvm9xhcf3vjn3mlaxslr"], "asm": "0 1dadc421251309c9bd370c44cd94d7c262c94e3b", "type": "witness_v0_keyhash"}, "value": 1.41137421, "n": 1}], "hex": "01000000000101ef5fbc21e64a0efa34a38498943cdd348ee00946c623551b709829866e48ef810100000000ffffffff02a08516000000000017a91490e0fc5f581d779fbd64816962c2973bc758d010870d966908000000001600141dadc421251309c9bd370c44cd94d7c262c94e3b0247304402205a7c72edcc9c2b16dc02cb5b1142b15d19b9034fc0ea2cdc3efc2f4d5cbc99be02206f5e6efd2819fd1ba5fc499acd052812daff343a590848faf2f8e636afcb443201210273634f4c178a34675bf1581b292a7ccea5bd20ca375161502d70934287eede8a00000000", "vin": [{"txinwitness": ["304402205a7c72edcc9c2b16dc02cb5b1142b15d19b9034fc0ea2cdc3efc2f4d5cbc99be02206f5e6efd2819fd1ba5fc499acd052812daff343a590848faf2f8e636afcb443201", "0273634f4c178a34675bf1581b292a7ccea5bd20ca375161502d70934287eede8a"], "sequence": 4294967295, "scriptSig": {"hex": "", "asm": ""}, "vout": 1, "txid": "81ef486e862998701b5523c64609e08e34dd3c949884a334fa0e4ae621bc5fef"}], "txid": "f4e5d948f439d1179296b69eddfdbb61f16263864cc6f33f0b6a7b06ea7d982a", "blocktime": 1537871767, "version": 1, "confirmations": 11495, "time": 1537871767, "locktime": 0, "vsize": 142, "size": 223}