{"hash": "f63f5affa799e327297cff71f44d2fedf787cd57e41a72e9646a124b85a07c74", "blockhash": "0000000000000000001e0dab787dd257d1dbfcb92a98c2207d5e1078be1f4165", "vout": [{"scriptPubKey": {"reqSigs": 1, "hex": "76a91499564a35ae707ce4b5601bdd735d4d946cc0599788ac", "addresses": ["1EymkspKuWzLXsZFLqPhMyE7XS6EcmtT2a"], "asm": "OP_DUP OP_HASH160 99564a35ae707ce4b5601bdd735d4d946cc05997 OP_EQUALVERIFY OP_CHECKSIG", "type": "pubkeyhash"}, "value": 0.01, "n": 0}, {"scriptPubKey": {"reqSigs": 1, "hex": "a91490e11fd17f458a60fb1713c63a1672a0e851080f87", "addresses": ["3Eu4v5S8pnLuejEJBsjYLahwUMYoqkLard"], "asm": "OP_HASH160 90e11fd17f458a60fb1713c63a1672a0e851080f OP_EQUAL", "type": "scripthash"}, "value": 0.00129828, "n": 1}], "hex": "010000000001025695a51a6b9ae02d730348096347dcb1471c0d6dc4f6606445e224a3e6d095da0100000017160014546e036e41d276769de487eb2f0e61b075ddd2d9ffffffffc65f6d7be4b823e928e9e53e6e5f3c35028a14ab40ebf1dd11c2eff4ed821a51e30200001716001498859848702ec293d69d23f44af8f19ddd64ad36ffffffff0240420f00000000001976a91499564a35ae707ce4b5601bdd735d4d946cc0599788ac24fb01000000000017a91490e11fd17f458a60fb1713c63a1672a0e851080f8702483045022100bcd5940af3200df58d6ff8e21ec64abecf4cb3bb36d422f4ed261c7714458183022027559e37f47d413069be360bbd0483d146d8044bf47d53c566f5a8827dd1d3e201210374274025816221b727912bb418203f97d133fc0a16e2436894df4a46a782603e02483045022100e3b69102b39d675f5a64b79b94c85b85710880afb24f16618d62b0777f0f68ca02202375e4ac19bec894c943c3fc0002e9712a936136473d3da7b4bd6a28da355ce801210226b5586c959174fcf2ce4302bc418e0a7069459e8f71f1e68847bbb49d7dd13d00000000", "vin": [{"txinwitness": ["3045022100bcd5940af3200df58d6ff8e21ec64abecf4cb3bb36d422f4ed261c7714458183022027559e37f47d413069be360bbd0483d146d8044bf47d53c566f5a8827dd1d3e201", "0374274025816221b727912bb418203f97d133fc0a16e2436894df4a46a782603e"], "sequence": 4294967295, "scriptSig": {"hex": "160014546e036e41d276769de487eb2f0e61b075ddd2d9", "asm": "0014546e036e41d276769de487eb2f0e61b075ddd2d9"}, "vout": 1, "txid": "da95d0e6a324e2456460f6c46d0d1c47b1dc4763094803732de09a6b1aa59556"}, {"txinwitness": ["3045022100e3b69102b39d675f5a64b79b94c85b85710880afb24f16618d62b0777f0f68ca02202375e4ac19bec894c943c3fc0002e9712a936136473d3da7b4bd6a28da355ce801", "0226b5586c959174fcf2ce4302bc418e0a7069459e8f71f1e68847bbb49d7dd13d"], "sequence": 4294967295, "scriptSig": {"hex": "16001498859848702ec293d69d23f44af8f19ddd64ad36", "asm": "001498859848702ec293d69d23f44af8f19ddd64ad36"}, "vout": 739, "txid": "511a82edf4efc211ddf1eb40ab148a02353c5f6e3ee5e928e923b8e47b6d5fc6"}], "txid": "f4e6c3e6c429a841c67b0f5a490d220c889e994cc7a2e94da19ed6f7311f880c", "blocktime": 1537872475, "version": 1, "confirmations": 11486, "time": 1537872475, "locktime": 0, "vsize": 259, "size": 422}