{"hash": "f4e7c5895719a3985f7d82231e13831be15ff8f2c6114f2dccc6c0309a5f74c6", "blockhash": "00000000000000000018f53835495a110e01622372bf6ae95dc86f2b0ab887b0", "vout": [{"scriptPubKey": {"reqSigs": 1, "hex": "76a9145ae22e278409cd592e9d782a4e412acfd836657a88ac", "addresses": ["19HYmYiXREPmApHznBCSed1B2jCLLmxop4"], "asm": "OP_DUP OP_HASH160 5ae22e278409cd592e9d782a4e412acfd836657a OP_EQUALVERIFY OP_CHECKSIG", "type": "pubkeyhash"}, "value": 1.4388768, "n": 0}, {"scriptPubKey": {"reqSigs": 1, "hex": "76a9142eaac4d84160a5e24a18646d71ba71ba4d99303d88ac", "addresses": ["15Fkf4K6z6XQXr1xoNBDDTaR9GBMX6JdyF"], "asm": "OP_DUP OP_HASH160 2eaac4d84160a5e24a18646d71ba71ba4d99303d OP_EQUALVERIFY OP_CHECKSIG", "type": "pubkeyhash"}, "value": 5.46e-06, "n": 1}, {"scriptPubKey": {"type": "nulldata", "hex": "6a146f6d6e69000000000000001f000000071fe6f200", "asm": "OP_RETURN 6f6d6e69000000000000001f000000071fe6f200"}, "value": 0.0, "n": 2}], "hex": "0100000002b46920cad241fd08d80cccba119fe286ab9eb8db12445b55575534272c19cb3a010000006a4730440220293f7b63183346634a8d4168eb3eb08c3570623d850ae25b7c356d5a253c8a7b02205af8643b743a7b7fc4f1ce1b35cd0e8b9ca510de597f07fa893202995ee5f9f4012103dbb6e6cf1099dec250c4e9aa3da7a326daff75a12b855779470f4efa304d5c16ffffffff6d67bdecf0baf522e58abf18c7b81f77709498c95606ed367fea820cf841b659000000006a4730440220102ba12d3113c5eab4af66bcb7756f0dd2122382bb6cc9ca66564c314a802856022054ade5be8f67c3cb9be49e2d0b050b2232e4ffda546ed20f7c77426afc521ca3012103bfa79eca72bd969d3ffb56e64774fa8723f13278fd87ffedd36999975e73925bffffffff03408d9308000000001976a9145ae22e278409cd592e9d782a4e412acfd836657a88ac22020000000000001976a9142eaac4d84160a5e24a18646d71ba71ba4d99303d88ac0000000000000000166a146f6d6e69000000000000001f000000071fe6f20000000000", "vin": [{"sequence": 4294967295, "scriptSig": {"hex": "4730440220293f7b63183346634a8d4168eb3eb08c3570623d850ae25b7c356d5a253c8a7b02205af8643b743a7b7fc4f1ce1b35cd0e8b9ca510de597f07fa893202995ee5f9f4012103dbb6e6cf1099dec250c4e9aa3da7a326daff75a12b855779470f4efa304d5c16", "asm": "30440220293f7b63183346634a8d4168eb3eb08c3570623d850ae25b7c356d5a253c8a7b02205af8643b743a7b7fc4f1ce1b35cd0e8b9ca510de597f07fa893202995ee5f9f4[ALL] 03dbb6e6cf1099dec250c4e9aa3da7a326daff75a12b855779470f4efa304d5c16"}, "vout": 1, "txid": "3acb192c27345557555b4412dbb89eab86e29f11bacc0cd808fd41d2ca2069b4"}, {"sequence": 4294967295, "scriptSig": {"hex": "4730440220102ba12d3113c5eab4af66bcb7756f0dd2122382bb6cc9ca66564c314a802856022054ade5be8f67c3cb9be49e2d0b050b2232e4ffda546ed20f7c77426afc521ca3012103bfa79eca72bd969d3ffb56e64774fa8723f13278fd87ffedd36999975e73925b", "asm": "30440220102ba12d3113c5eab4af66bcb7756f0dd2122382bb6cc9ca66564c314a802856022054ade5be8f67c3cb9be49e2d0b050b2232e4ffda546ed20f7c77426afc521ca3[ALL] 03bfa79eca72bd969d3ffb56e64774fa8723f13278fd87ffedd36999975e73925b"}, "vout": 0, "txid": "59b641f80c82ea7f36ed0656c9989470771fb8c718bf8ae522f5baf0ecbd676d"}], "txid": "f4e7c5895719a3985f7d82231e13831be15ff8f2c6114f2dccc6c0309a5f74c6", "blocktime": 1537870928, "version": 1, "confirmations": 11514, "time": 1537870928, "locktime": 0, "vsize": 403, "size": 403}