{"hash": "ade513fb56f9e855b8e7005ff8b5c3a2f8d24d4097db3f4ba824b00e6698ace6", "blockhash": "000000000000000000022b45ed06c6f4ccd3cf7fb5ba4856ebd2e58215665228", "vout": [{"scriptPubKey": {"reqSigs": 1, "hex": "76a9146af4487619239d3ab92b01156e52acd98bfb5cea88ac", "addresses": ["1AkXGRFHF2yymEwoiPFaiBhKSwWQqEFnXt"], "asm": "OP_DUP OP_HASH160 6af4487619239d3ab92b01156e52acd98bfb5cea OP_EQUALVERIFY OP_CHECKSIG", "type": "pubkeyhash"}, "value": 0.0024686, "n": 0}, {"scriptPubKey": {"reqSigs": 1, "hex": "a914bdb370bc7109052b6428a10058025ddb103507d387", "addresses": ["3Jz4bY1shhUwFJsuWdTyGJPYfA7cMcBAVN"], "asm": "OP_HASH160 bdb370bc7109052b6428a10058025ddb103507d3 OP_EQUAL", "type": "scripthash"}, "value": 0.00999256, "n": 1}], "hex": "02000000000102e129a61e0b9fa368e6c42219d416df4ca6d72cc4f5bf346964da429a00a9eccb00000000171600147a32b73be89de8c7e9a92bb82e9abecfb984040dfefffffffb5a8080fda3733ab12f4662ee8649438139974e6de724fe3573e492d11a87980000000017160014fb8f272efeaf400da89acc0d65e69cadcac5f032feffffff024cc40300000000001976a9146af4487619239d3ab92b01156e52acd98bfb5cea88ac583f0f000000000017a914bdb370bc7109052b6428a10058025ddb103507d3870247304402203fab68203e55fe07c5fe9c6bbe7a689ec65fc8edf7747f36f7e4f02c19afbb1702200217359801c41435d15d8a90950f70918747ff9008ed79d020a3464c2337c52a0121025abe40494f17864fb2be286618aa2ae10b4547e4b0e0edf9dd66c44912699fb202483045022100f2821eb25c01620d8489a18fc07ae7853e5ad6da6db7e42fc27bf52c2bbb311402203acfa0d08241c0ab0053e6b691e9942c6f9f601c671bfe8f1a368d1d7a34d2df01210234f44c88d6849d5e98973039b4da470e41f712bc2be9d29372687dfd94702f440b490800", "vin": [{"txinwitness": ["304402203fab68203e55fe07c5fe9c6bbe7a689ec65fc8edf7747f36f7e4f02c19afbb1702200217359801c41435d15d8a90950f70918747ff9008ed79d020a3464c2337c52a01", "025abe40494f17864fb2be286618aa2ae10b4547e4b0e0edf9dd66c44912699fb2"], "sequence": 4294967294, "scriptSig": {"hex": "1600147a32b73be89de8c7e9a92bb82e9abecfb984040d", "asm": "00147a32b73be89de8c7e9a92bb82e9abecfb984040d"}, "vout": 0, "txid": "cbeca9009a42da646934bff5c42cd7a64cdf16d41922c4e668a39f0b1ea629e1"}, {"txinwitness": ["3045022100f2821eb25c01620d8489a18fc07ae7853e5ad6da6db7e42fc27bf52c2bbb311402203acfa0d08241c0ab0053e6b691e9942c6f9f601c671bfe8f1a368d1d7a34d2df01", "0234f44c88d6849d5e98973039b4da470e41f712bc2be9d29372687dfd94702f44"], "sequence": 4294967294, "scriptSig": {"hex": "160014fb8f272efeaf400da89acc0d65e69cadcac5f032", "asm": "0014fb8f272efeaf400da89acc0d65e69cadcac5f032"}, "vout": 0, "txid": "98871ad192e47335fe24e76d4e973981434986ee62462fb13a73a3fd80805afb"}], "txid": "f4e9de41fa6d7bde7cfcace0f5455c40205d31fcf3c64da7c8f46f0ced37a636", "blocktime": 1537869901, "version": 2, "confirmations": 11522, "time": 1537869901, "locktime": 542987, "vsize": 259, "size": 421}