{"hash": "f4ebf87e49b397141ea419e25246c936fa7e2999d917fbef1568168d714f84a6", "blockhash": "00000000000000000017f5eb5941039fbcee6240d03bc1f2f8e35350df66a1d8", "vout": [{"scriptPubKey": {"reqSigs": 1, "hex": "a914c4c483dc6980d07faf766c8c700f9a5e629bca8f87", "addresses": ["3KdRnFSXXPAcugx3BW1qtjwyfJEovHeVXY"], "asm": "OP_HASH160 c4c483dc6980d07faf766c8c700f9a5e629bca8f OP_EQUAL", "type": "scripthash"}, "value": 0.02626821, "n": 0}], "hex": "010000000110112c0202dff6f9fdcc7bae2a03cc432cbeeef26682b85fde24f483be2cedc92d000000fdfe0000483045022100e622f643a554f8c123533ff6317a971a5b59853447c672739bdefed6da6f31c1022078bc545b32fe79f6de7c5c49b72c5a6e186baaa7e620e94efd47201fa94d63fd01483045022100eb1a4264ecb6e98deaedaf143da82d3d01b8613c49a2d3c6a655115d3416a43102202adc6ea65fbb56b8a8a42f6e8ca030b2badd5fb2c3eed4d2599bdeb0a13f2c12014c69522103e78ec2a7fd09f0f304d924cc9b7051664823f50d975855fc556aa794ac2fec73210219ab452e3f21f7e4ab9ba5db537d1ffba23a566c96bd128e7ca964d0d26ad7132102c951b510321e33f7c098ff60f4d0280971ffcb5b0a75b9f75e58493ab6cdb15253aeffffffff01051528000000000017a914c4c483dc6980d07faf766c8c700f9a5e629bca8f8700000000", "vin": [{"sequence": 4294967295, "scriptSig": {"hex": "00483045022100e622f643a554f8c123533ff6317a971a5b59853447c672739bdefed6da6f31c1022078bc545b32fe79f6de7c5c49b72c5a6e186baaa7e620e94efd47201fa94d63fd01483045022100eb1a4264ecb6e98deaedaf143da82d3d01b8613c49a2d3c6a655115d3416a43102202adc6ea65fbb56b8a8a42f6e8ca030b2badd5fb2c3eed4d2599bdeb0a13f2c12014c69522103e78ec2a7fd09f0f304d924cc9b7051664823f50d975855fc556aa794ac2fec73210219ab452e3f21f7e4ab9ba5db537d1ffba23a566c96bd128e7ca964d0d26ad7132102c951b510321e33f7c098ff60f4d0280971ffcb5b0a75b9f75e58493ab6cdb15253ae", "asm": "0 3045022100e622f643a554f8c123533ff6317a971a5b59853447c672739bdefed6da6f31c1022078bc545b32fe79f6de7c5c49b72c5a6e186baaa7e620e94efd47201fa94d63fd[ALL] 3045022100eb1a4264ecb6e98deaedaf143da82d3d01b8613c49a2d3c6a655115d3416a43102202adc6ea65fbb56b8a8a42f6e8ca030b2badd5fb2c3eed4d2599bdeb0a13f2c12[ALL] 522103e78ec2a7fd09f0f304d924cc9b7051664823f50d975855fc556aa794ac2fec73210219ab452e3f21f7e4ab9ba5db537d1ffba23a566c96bd128e7ca964d0d26ad7132102c951b510321e33f7c098ff60f4d0280971ffcb5b0a75b9f75e58493ab6cdb15253ae"}, "vout": 45, "txid": "c9ed2cbe83f424de5fb88266f2eebe2c43cc032aae7bccfdf9f6df02022c1110"}], "txid": "f4ebf87e49b397141ea419e25246c936fa7e2999d917fbef1568168d714f84a6", "blocktime": 1537874412, "version": 1, "confirmations": 11466, "time": 1537874412, "locktime": 0, "vsize": 339, "size": 339}