{"hash": "25c18c3c04b75da7607c938def1dd61525f3ecb8c215eb2e3245eb8bd865b234", "blockhash": "000000000000000000022b45ed06c6f4ccd3cf7fb5ba4856ebd2e58215665228", "vout": [{"scriptPubKey": {"reqSigs": 1, "hex": "00147738aec86d1d31031a7d9379e86523d8fbc37c22", "addresses": ["bc1qwuu2ajrdr5csxxnajdu7sefrmrauxlpzx79wcn"], "asm": "0 7738aec86d1d31031a7d9379e86523d8fbc37c22", "type": "witness_v0_keyhash"}, "value": 1.226e-05, "n": 0}, {"scriptPubKey": {"reqSigs": 1, "hex": "a914983dc3999a2286cba8d87e6315bb3d31b4a4d8b187", "addresses": ["3FZzd9KbhnnYBSyg5aRHiHKLzG4RXwfgDw"], "asm": "OP_HASH160 983dc3999a2286cba8d87e6315bb3d31b4a4d8b1 OP_EQUAL", "type": "scripthash"}, "value": 0.04682898, "n": 1}], "hex": "0100000000010152435039f6b9090ffcf30b7d9e11a6bcffedd79b051a32520db856af09e6b38f0000000017160014805b12f1832ce92d5b46285ea3cf19896df8ae42ffffffff02ca040000000000001600147738aec86d1d31031a7d9379e86523d8fbc37c22927447000000000017a914983dc3999a2286cba8d87e6315bb3d31b4a4d8b18702483045022100afafb621a63dc8ccca565e2c80aacadcd4947bebd87629dd09bc9b5dfdda0f01022072c05730c38d8a9f0e895e0e3e2948afb100755273646263f151241bef6491440121024c8554ebf4fc11017595098ac2f176a2a1ac02ae37aa7aa8de694e85aaad072a00000000", "vin": [{"txinwitness": ["3045022100afafb621a63dc8ccca565e2c80aacadcd4947bebd87629dd09bc9b5dfdda0f01022072c05730c38d8a9f0e895e0e3e2948afb100755273646263f151241bef64914401", "024c8554ebf4fc11017595098ac2f176a2a1ac02ae37aa7aa8de694e85aaad072a"], "sequence": 4294967295, "scriptSig": {"hex": "160014805b12f1832ce92d5b46285ea3cf19896df8ae42", "asm": "0014805b12f1832ce92d5b46285ea3cf19896df8ae42"}, "vout": 0, "txid": "8fb3e609af56b80d52321a059bd7edffbca6119e7d0bf3fc0f09b9f639504352"}], "txid": "f4f1278a27f01094c7fd2151cd82c10e855248566a8a9079157ccd9c795ee2a7", "blocktime": 1537869901, "version": 1, "confirmations": 11523, "time": 1537869901, "locktime": 0, "vsize": 165, "size": 247}