{"hash": "f4f40956a1fd296da7136961d4887f53a2a38f66a4aa01a75ec3e40bea6ab0e3", "blockhash": "0000000000000000001f0ddff1eddb255c1121bcd4da4f1bc9a0da00cae72433", "vout": [{"scriptPubKey": {"reqSigs": 1, "hex": "001411e6434ce6f3a7350f6b3598956477b58d50232f", "addresses": ["bc1qz8nyxn8x7wnn2rmtxkvf2erhkkx4qge0xz6n54"], "asm": "0 11e6434ce6f3a7350f6b3598956477b58d50232f", "type": "witness_v0_keyhash"}, "value": 0.0007002, "n": 0}, {"scriptPubKey": {"reqSigs": 1, "hex": "76a914edbabfdf63131cde3bb9b04f5ce6da98f791225088ac", "addresses": ["1Nfzs3i8tKD3tfKX8gnk1gvPreuCSHqhQy"], "asm": "OP_DUP OP_HASH160 edbabfdf63131cde3bb9b04f5ce6da98f7912250 OP_EQUALVERIFY OP_CHECKSIG", "type": "pubkeyhash"}, "value": 0.075786, "n": 1}], "hex": "0100000001d05b673667a3f7fbc64ee016fdbdc9ada76de11941a652d667e2179d00a49bfd180000006a473044022031ccd18022b90da3bc695cdd8aa4195de9f078171f6e060d5e5c7766ee87d4cc022065fe5998fc5e1c45e9db8f3131d1159504c9a0d6dc93773ebcb7d3f3814d99d1012103f798f26f7a7dde3d5b49046371a39c5752e5d5d6878cdcd4bb1362d1f0f0fae5ffffffff02841101000000000016001411e6434ce6f3a7350f6b3598956477b58d50232fe8a37300000000001976a914edbabfdf63131cde3bb9b04f5ce6da98f791225088ac00000000", "vin": [{"sequence": 4294967295, "scriptSig": {"hex": "473044022031ccd18022b90da3bc695cdd8aa4195de9f078171f6e060d5e5c7766ee87d4cc022065fe5998fc5e1c45e9db8f3131d1159504c9a0d6dc93773ebcb7d3f3814d99d1012103f798f26f7a7dde3d5b49046371a39c5752e5d5d6878cdcd4bb1362d1f0f0fae5", "asm": "3044022031ccd18022b90da3bc695cdd8aa4195de9f078171f6e060d5e5c7766ee87d4cc022065fe5998fc5e1c45e9db8f3131d1159504c9a0d6dc93773ebcb7d3f3814d99d1[ALL] 03f798f26f7a7dde3d5b49046371a39c5752e5d5d6878cdcd4bb1362d1f0f0fae5"}, "vout": 24, "txid": "fd9ba4009d17e267d652a64119e16da7adc9bdfd16e04ec6fbf7a36736675bd0"}], "txid": "f4f40956a1fd296da7136961d4887f53a2a38f66a4aa01a75ec3e40bea6ab0e3", "blocktime": 1537872018, "version": 1, "confirmations": 11489, "time": 1537872018, "locktime": 0, "vsize": 222, "size": 222}