{"hash": "7ca882fa129d786e4a1ad4c305be5e30c9668ee5260a8bde92f4927021451ce1", "blockhash": "00000000000000000004ffacab907a6b429b9a5745fa0b75af4234bf69dd7176", "vout": [{"scriptPubKey": {"reqSigs": 1, "hex": "a9147485d4b6dcceeb0e9bb3f8242d3eb3520c657b8887", "addresses": ["3CK8dXkrCBueAsky6x91mnp8dp55p14FsS"], "asm": "OP_HASH160 7485d4b6dcceeb0e9bb3f8242d3eb3520c657b88 OP_EQUAL", "type": "scripthash"}, "value": 0.51255815, "n": 0}, {"scriptPubKey": {"reqSigs": 1, "hex": "a914596ff3be068fb68e3c291c08ad056a65bf655a1d87", "addresses": ["39qvBBkfFFvqUCxhr6QVG6b13mfZ619JpP"], "asm": "OP_HASH160 596ff3be068fb68e3c291c08ad056a65bf655a1d OP_EQUAL", "type": "scripthash"}, "value": 0.014712, "n": 1}, {"scriptPubKey": {"reqSigs": 1, "hex": "a914b5c8323d553ad6610f465afa488fc9441f34ae8e87", "addresses": ["3JGC49KX7Tp1TsqJ7a4YXhAwog272XNg1L"], "asm": "OP_HASH160 b5c8323d553ad6610f465afa488fc9441f34ae8e OP_EQUAL", "type": "scripthash"}, "value": 0.72283157, "n": 2}], "hex": "02000000000101d013d66914ce739cf46cca2162431696e73fd5e80d346f1a60ebd1dde0798370020000001716001434d1ca8032675937d623e2ee8fcd55b3f3ab0ac6feffffff03071a0e030000000017a9147485d4b6dcceeb0e9bb3f8242d3eb3520c657b8887e07216000000000017a914596ff3be068fb68e3c291c08ad056a65bf655a1d8715f44e040000000017a914b5c8323d553ad6610f465afa488fc9441f34ae8e8702473044022071de3fc0a11776509c5f03d2f3dde8dfbf07a0812d607a61951d014a089ede4902204c77bef8c2b9d011be9f9d6a7c8d5e03959de8a0134c1bfc70e45c2c1e2e0f6d012103310b71363949a5b607ba27b0330496a3257e8a72941258b78dcd520cc11c0f2316490800", "vin": [{"txinwitness": ["3044022071de3fc0a11776509c5f03d2f3dde8dfbf07a0812d607a61951d014a089ede4902204c77bef8c2b9d011be9f9d6a7c8d5e03959de8a0134c1bfc70e45c2c1e2e0f6d01", "03310b71363949a5b607ba27b0330496a3257e8a72941258b78dcd520cc11c0f23"], "sequence": 4294967294, "scriptSig": {"hex": "16001434d1ca8032675937d623e2ee8fcd55b3f3ab0ac6", "asm": "001434d1ca8032675937d623e2ee8fcd55b3f3ab0ac6"}, "vout": 2, "txid": "708379e0ddd1eb601a6f340de8d53fe79616436221ca6cf49c73ce1469d613d0"}], "txid": "f4fed03b11c1d350e432e8e76a371edffe3c8eabbe85dc5630bbcafe96f31633", "blocktime": 1537875543, "version": 2, "confirmations": 11464, "time": 1537875543, "locktime": 542998, "vsize": 198, "size": 279}