{"hash": "f50053a389839fa1cf435ada9b2953b391e85d7c810409ac0b2c7aba333cad03", "blockhash": "0000000000000000001cda96e906b7601b7a6fb1a3b62bca570a9e5d8f4b3de1", "vout": [{"scriptPubKey": {"reqSigs": 1, "hex": "76a91437834b3f727947455e215406f6c0e6c1d1c0a3c888ac", "addresses": ["164XT1mrnCU74uM72qPtubEq4j2r5q5ZGg"], "asm": "OP_DUP OP_HASH160 37834b3f727947455e215406f6c0e6c1d1c0a3c8 OP_EQUALVERIFY OP_CHECKSIG", "type": "pubkeyhash"}, "value": 0.01051549, "n": 0}, {"scriptPubKey": {"reqSigs": 1, "hex": "a91429fbddb03492298daffb66c62dfe17e856195f3187", "addresses": ["35X1MN21icqQT9uEUZXLko7TEvfWkWi1wV"], "asm": "OP_HASH160 29fbddb03492298daffb66c62dfe17e856195f31 OP_EQUAL", "type": "scripthash"}, "value": 0.01545607, "n": 1}], "hex": "0100000002024f83240cb3ecb4452f6d1fcbbfb97fab77ae906f2e8e70fe9dddd0c2940563440000006b4830450221008593428e741f1522faf6326d2ee433ac4ce29106cc60c4d450ce23c4a9c302370220432bf559d7d451572e2506c0c612bd199d07a08f2ff3bf3196ac89716493fab8012103498f72d83df33c8f0732fdf5617ed6b0224b33da4f3d9f22c21dac3a7f36f346ffffffff4f5b8950272e846e62dfe74615f8e8b3b36b64e6fa94a786d5a3d4b06f07249d010000006a4730440220021379c4c43bd2eed6e9c2a60d3f297acb6ebbafac1096a32921e834283e287402200b055770135e47e2d0650b533c3a4bb737f2af09c482eb3a13c5c9ec394948760121034765fdde25d579830eafee28958281f7246a8758ac0b265bf3c3c667a0eb2c5effffffff029d0b1000000000001976a91437834b3f727947455e215406f6c0e6c1d1c0a3c888ac879517000000000017a91429fbddb03492298daffb66c62dfe17e856195f318700000000", "vin": [{"sequence": 4294967295, "scriptSig": {"hex": "4830450221008593428e741f1522faf6326d2ee433ac4ce29106cc60c4d450ce23c4a9c302370220432bf559d7d451572e2506c0c612bd199d07a08f2ff3bf3196ac89716493fab8012103498f72d83df33c8f0732fdf5617ed6b0224b33da4f3d9f22c21dac3a7f36f346", "asm": "30450221008593428e741f1522faf6326d2ee433ac4ce29106cc60c4d450ce23c4a9c302370220432bf559d7d451572e2506c0c612bd199d07a08f2ff3bf3196ac89716493fab8[ALL] 03498f72d83df33c8f0732fdf5617ed6b0224b33da4f3d9f22c21dac3a7f36f346"}, "vout": 68, "txid": "630594c2d0dd9dfe708e2e6f90ae77ab7fb9bfcb1f6d2f45b4ecb30c24834f02"}, {"sequence": 4294967295, "scriptSig": {"hex": "4730440220021379c4c43bd2eed6e9c2a60d3f297acb6ebbafac1096a32921e834283e287402200b055770135e47e2d0650b533c3a4bb737f2af09c482eb3a13c5c9ec394948760121034765fdde25d579830eafee28958281f7246a8758ac0b265bf3c3c667a0eb2c5e", "asm": "30440220021379c4c43bd2eed6e9c2a60d3f297acb6ebbafac1096a32921e834283e287402200b055770135e47e2d0650b533c3a4bb737f2af09c482eb3a13c5c9ec39494876[ALL] 034765fdde25d579830eafee28958281f7246a8758ac0b265bf3c3c667a0eb2c5e"}, "vout": 1, "txid": "9d24076fb0d4a3d586a794fae6646bb3b3e8f81546e7df626e842e2750895b4f"}], "txid": "f50053a389839fa1cf435ada9b2953b391e85d7c810409ac0b2c7aba333cad03", "blocktime": 1537873282, "version": 1, "confirmations": 11482, "time": 1537873282, "locktime": 0, "vsize": 371, "size": 371}