{"hash": "f5018959bf3a7f181748e042ef0b4a5e5c56420da957eec3516ca13f83f55875", "blockhash": "000000000000000000022b45ed06c6f4ccd3cf7fb5ba4856ebd2e58215665228", "vout": [{"scriptPubKey": {"type": "nulldata", "hex": "6a4c500000775c00010f99ba3cf20259cb5014fffa3a016b46dc7dc7d0968d120d670c1906f999e00b6b3cf12aaa55f96e175ab0a415755baa06fe06128d3ff5472e16bc9a9526289ac0f6612cd74e33776ee4", "asm": "OP_RETURN 0000775c00010f99ba3cf20259cb5014fffa3a016b46dc7dc7d0968d120d670c1906f999e00b6b3cf12aaa55f96e175ab0a415755baa06fe06128d3ff5472e16bc9a9526289ac0f6612cd74e33776ee4"}, "value": 0.0, "n": 0}, {"scriptPubKey": {"reqSigs": 1, "hex": "76a9141a02c7e77b558f3762d2cc5e89f422a3a525a1e288ac", "addresses": ["13NXuCxmq2nyfTGUTTLQBWG3Mcf5JUcz5P"], "asm": "OP_DUP OP_HASH160 1a02c7e77b558f3762d2cc5e89f422a3a525a1e2 OP_EQUALVERIFY OP_CHECKSIG", "type": "pubkeyhash"}, "value": 0.01425964, "n": 1}], "hex": "01000000019bc3f43077cf12ae2ee00145d573cd6fdcd32c506a9377242e3bdc44a9488ff8000000006b483045022100d176db813b8ffd5bc3d42b9d22007d9997e551146df583160bef51306108c8fe02203677f37e2d112da716b9cb277f71201126df305c89768acaf3123429e71b3a450121024192a71629c1b7fb227caa56f9ddced501a8fc3b0f53577ef66225180a613fe8ffffffff020000000000000000536a4c500000775c00010f99ba3cf20259cb5014fffa3a016b46dc7dc7d0968d120d670c1906f999e00b6b3cf12aaa55f96e175ab0a415755baa06fe06128d3ff5472e16bc9a9526289ac0f6612cd74e33776ee42cc21500000000001976a9141a02c7e77b558f3762d2cc5e89f422a3a525a1e288ac00000000", "vin": [{"sequence": 4294967295, "scriptSig": {"hex": "483045022100d176db813b8ffd5bc3d42b9d22007d9997e551146df583160bef51306108c8fe02203677f37e2d112da716b9cb277f71201126df305c89768acaf3123429e71b3a450121024192a71629c1b7fb227caa56f9ddced501a8fc3b0f53577ef66225180a613fe8", "asm": "3045022100d176db813b8ffd5bc3d42b9d22007d9997e551146df583160bef51306108c8fe02203677f37e2d112da716b9cb277f71201126df305c89768acaf3123429e71b3a45[ALL] 024192a71629c1b7fb227caa56f9ddced501a8fc3b0f53577ef66225180a613fe8"}, "vout": 0, "txid": "f88f48a944dc3b2e2477936a502cd3dc6fcd73d54501e02eae12cf7730f4c39b"}], "txid": "f5018959bf3a7f181748e042ef0b4a5e5c56420da957eec3516ca13f83f55875", "blocktime": 1537869901, "version": 1, "confirmations": 11523, "time": 1537869901, "locktime": 0, "vsize": 284, "size": 284}