{"hash": "f5019e173092aa51c80272358521a663217bc1e0c035b6d69529394d3acf483d", "blockhash": "0000000000000000001f0ddff1eddb255c1121bcd4da4f1bc9a0da00cae72433", "vout": [{"scriptPubKey": {"reqSigs": 1, "hex": "76a91414b1d80544432b89b1f0f9168a303856b1f4b21388ac", "addresses": ["12tRZeGcP9nr4Xw6V9SSNDq5Sowfw9aXh8"], "asm": "OP_DUP OP_HASH160 14b1d80544432b89b1f0f9168a303856b1f4b213 OP_EQUALVERIFY OP_CHECKSIG", "type": "pubkeyhash"}, "value": 0.0047566, "n": 0}], "hex": "01000000023e18dcd7e7bb0f6fa90de5dca7af3c53cf1d3cda3161a83edc45d5104ac7ca7b000000006a47304402202a657b829d03583a23848073dfee769174feecf1f2305ce9a693f5db01af4b600220224a1480f04793c7823fd9e42bd0e70c64650ff2f73ad107e68db3408576e1dc0121032a89a3ae6f19e7c8f79534d011e9f54642d9a5a45c03041dfe2181e45679a317fdffffff8aa004ef3db5701ba6c6de47a9292bca0d60400fdd35e115a0f1a3fe571e09aa000000006b483045022100f68cd507a77b130cd60d82488ea796bd1028519a0eac6192f3f3a95261a7d1dc02203537ca0a00aae528dc6b6567a87bb2f52fffa0481394437052086ea0e175295d0121032a89a3ae6f19e7c8f79534d011e9f54642d9a5a45c03041dfe2181e45679a317fdffffff010c420700000000001976a91414b1d80544432b89b1f0f9168a303856b1f4b21388ac0f490800", "vin": [{"sequence": 4294967293, "scriptSig": {"hex": "47304402202a657b829d03583a23848073dfee769174feecf1f2305ce9a693f5db01af4b600220224a1480f04793c7823fd9e42bd0e70c64650ff2f73ad107e68db3408576e1dc0121032a89a3ae6f19e7c8f79534d011e9f54642d9a5a45c03041dfe2181e45679a317", "asm": "304402202a657b829d03583a23848073dfee769174feecf1f2305ce9a693f5db01af4b600220224a1480f04793c7823fd9e42bd0e70c64650ff2f73ad107e68db3408576e1dc[ALL] 032a89a3ae6f19e7c8f79534d011e9f54642d9a5a45c03041dfe2181e45679a317"}, "vout": 0, "txid": "7bcac74a10d545dc3ea86131da3c1dcf533cafa7dce50da96f0fbbe7d7dc183e"}, {"sequence": 4294967293, "scriptSig": {"hex": "483045022100f68cd507a77b130cd60d82488ea796bd1028519a0eac6192f3f3a95261a7d1dc02203537ca0a00aae528dc6b6567a87bb2f52fffa0481394437052086ea0e175295d0121032a89a3ae6f19e7c8f79534d011e9f54642d9a5a45c03041dfe2181e45679a317", "asm": "3045022100f68cd507a77b130cd60d82488ea796bd1028519a0eac6192f3f3a95261a7d1dc02203537ca0a00aae528dc6b6567a87bb2f52fffa0481394437052086ea0e175295d[ALL] 032a89a3ae6f19e7c8f79534d011e9f54642d9a5a45c03041dfe2181e45679a317"}, "vout": 0, "txid": "aa091e57fea3f1a015e135dd0f40600dca2b29a947dec6a61b70b53def04a08a"}], "txid": "f5019e173092aa51c80272358521a663217bc1e0c035b6d69529394d3acf483d", "blocktime": 1537872018, "version": 1, "confirmations": 11489, "time": 1537872018, "locktime": 542991, "vsize": 339, "size": 339}