{"hash": "40c887111fd0be121fe3678a6091cc870abd1a854114b8b5de3be7487a92b19e", "blockhash": "0000000000000000001f0ddff1eddb255c1121bcd4da4f1bc9a0da00cae72433", "vout": [{"scriptPubKey": {"reqSigs": 1, "hex": "a914f2c0b212501d05f15784226ce6ad18f4df7d541987", "addresses": ["3PpaHh3KrNU2Xg5wayNKeYAaNhi7Sc2XCr"], "asm": "OP_HASH160 f2c0b212501d05f15784226ce6ad18f4df7d5419 OP_EQUAL", "type": "scripthash"}, "value": 0.01009528, "n": 0}, {"scriptPubKey": {"reqSigs": 1, "hex": "a91469f373a7a1867704e880075f5bdc982a3e6e6c9487", "addresses": ["3BMEX1ePbfvpQWFh8UGLgvH5UEX4reCCEe"], "asm": "OP_HASH160 69f373a7a1867704e880075f5bdc982a3e6e6c94 OP_EQUAL", "type": "scripthash"}, "value": 0.10099853, "n": 1}], "hex": "020000000001021bb4b55644cfc1f1be389302a9afb83a3146c8b1b82c69ba77c98cb28330197803000000171600141dff10317c625a2c305c9ffc85d410bba7e8a1d7fdffffff6206469e2900810f327db4d56625c83fe11e599579424474938f48dd1218f6fc000000001716001440ae52ede9e8d9c06d6ce2835f15026a53f2ebdcfdffffff0278670f000000000017a914f2c0b212501d05f15784226ce6ad18f4df7d5419878d1c9a000000000017a91469f373a7a1867704e880075f5bdc982a3e6e6c9487024730440220442149ae3915959f0feb1bed1e63c56145a000d638d3cfc087c0a85c268bffa702201f9bf4b77d77033cd74502ed24e0638915561f7e437404ceac0554fa39204f9f012102f514bdb642fedd9a4049f0e6faf0e0dfc21f984f100883aa220c4c960a1513c002483045022100a6d436f7b6c0cac002f756fd6aad47c8977af47b2ca47456a08cf4621f3cbe25022077a2e156225b2a557469bd610e8cf4c325c87b07262d169eb7911f497c6683de01210354de2398c3788affc089fec95599b01d2443a375043909038eeacec3c8a051f811490800", "vin": [{"txinwitness": ["30440220442149ae3915959f0feb1bed1e63c56145a000d638d3cfc087c0a85c268bffa702201f9bf4b77d77033cd74502ed24e0638915561f7e437404ceac0554fa39204f9f01", "02f514bdb642fedd9a4049f0e6faf0e0dfc21f984f100883aa220c4c960a1513c0"], "sequence": 4294967293, "scriptSig": {"hex": "1600141dff10317c625a2c305c9ffc85d410bba7e8a1d7", "asm": "00141dff10317c625a2c305c9ffc85d410bba7e8a1d7"}, "vout": 3, "txid": "78193083b28cc977ba692cb8b1c846313ab8afa9029338bef1c1cf4456b5b41b"}, {"txinwitness": ["3045022100a6d436f7b6c0cac002f756fd6aad47c8977af47b2ca47456a08cf4621f3cbe25022077a2e156225b2a557469bd610e8cf4c325c87b07262d169eb7911f497c6683de01", "0354de2398c3788affc089fec95599b01d2443a375043909038eeacec3c8a051f8"], "sequence": 4294967293, "scriptSig": {"hex": "16001440ae52ede9e8d9c06d6ce2835f15026a53f2ebdc", "asm": "001440ae52ede9e8d9c06d6ce2835f15026a53f2ebdc"}, "vout": 0, "txid": "fcf61812dd488f937444427995591ee13fc82566d5b47d320f8100299e460662"}], "txid": "f50362b68aa296d66a454d4c35e153b637620490dc3054c6ace47d7d8bd7506e", "blocktime": 1537872018, "version": 2, "confirmations": 11489, "time": 1537872018, "locktime": 542993, "vsize": 257, "size": 419}