{"hash": "315dc3812ed70076bef28d7ca99c8c617f6921bc1e814e29bef410031f9f50e9", "blockhash": "0000000000000000000baef3f32e3676a92c3b2e5da21b426e4f302fc371ce76", "vout": [{"scriptPubKey": {"reqSigs": 1, "hex": "76a91486e2e70e4ff236fc8b9aae98fa590f0d79c0eee288ac", "addresses": ["1DJDNAxXyvpuekBmtgirufLgChBszVk7hA"], "asm": "OP_DUP OP_HASH160 86e2e70e4ff236fc8b9aae98fa590f0d79c0eee2 OP_EQUALVERIFY OP_CHECKSIG", "type": "pubkeyhash"}, "value": 0.11, "n": 0}, {"scriptPubKey": {"reqSigs": 1, "hex": "a9147f65026d0ba1813537db1477560bdd251ba6521587", "addresses": ["3DJckAgKEC8ja9QtBTrrXZkgDrsrwJFvoW"], "asm": "OP_HASH160 7f65026d0ba1813537db1477560bdd251ba65215 OP_EQUAL", "type": "scripthash"}, "value": 0.00233126, "n": 1}], "hex": "01000000000102741077c7f20dd1769089817db1ead024c748ee373dbc35509e982eff85ae409d02020000fc00473044022027291fdced732ac8962e1dd5e20d74b70c027ae4f238e3820856c5e826d0a1a402203ef000127acb971100e6a7e4a7529e8a481dfccd067805fe413f181d0bbb1e500147304402201161c187df6516f4d61c889ea56552914bdeff270e550e97f29a1e9929f25e1d02205d33bfb3ac49e6536970e0d01825b4b14aa4a8804d11a28365678434de4849bd014c695221021d27a3f04c55dd60a133872671c02e5dfe3ebd66a5124fa8f045ab5218520ca12102b6d75bf409a0c33924fef2456ae0dc07d85c3af6262c94dccce75437ba0b33f12102c438d8a3f468567b02bbfe58700483149e4a085fa9bea06220ba1175cf2b219b53aeffffffffff82eabe05d1732897e471f319af7ce585af1a377190b613416fe710f966e34d010000002322002061d745252bf67b4afdcbb9ddaeea07d41850e4c430f3e0e38f2246b27f07f2c0ffffffff02c0d8a700000000001976a91486e2e70e4ff236fc8b9aae98fa590f0d79c0eee288aca68e03000000000017a9147f65026d0ba1813537db1477560bdd251ba652158700040047304402204457b300a5aebcf3f911618db819bc4435a9bc41de7a09c701e1ae85406f134c0220150ed609a4c01e7d548448a421dc4d801b8e9f88d052369afd6ed7da06d36f27014730440220191806a996f1779a509c2d8c7c5e4bd2601a8965d4923f1178fe37c47b5272ea022067eeac1a6a3c2b48b799ab6c4a8f55af8dd32eaca64c30054d83b337d5836ce801695221030b312b2d0c50fa002dc5fe90f040f7459ecfd273d656658f361658f4b5c5810821033dcac3a44d61667fa024b93b6beaafd464efe361a624336108712504333ef2432103f359f97a39c9b03ef01cb37aba4f4111d7ff1320e7eececdf3a33266e897b63853ae00000000", "vin": [{"sequence": 4294967295, "scriptSig": {"hex": "00473044022027291fdced732ac8962e1dd5e20d74b70c027ae4f238e3820856c5e826d0a1a402203ef000127acb971100e6a7e4a7529e8a481dfccd067805fe413f181d0bbb1e500147304402201161c187df6516f4d61c889ea56552914bdeff270e550e97f29a1e9929f25e1d02205d33bfb3ac49e6536970e0d01825b4b14aa4a8804d11a28365678434de4849bd014c695221021d27a3f04c55dd60a133872671c02e5dfe3ebd66a5124fa8f045ab5218520ca12102b6d75bf409a0c33924fef2456ae0dc07d85c3af6262c94dccce75437ba0b33f12102c438d8a3f468567b02bbfe58700483149e4a085fa9bea06220ba1175cf2b219b53ae", "asm": "0 3044022027291fdced732ac8962e1dd5e20d74b70c027ae4f238e3820856c5e826d0a1a402203ef000127acb971100e6a7e4a7529e8a481dfccd067805fe413f181d0bbb1e50[ALL] 304402201161c187df6516f4d61c889ea56552914bdeff270e550e97f29a1e9929f25e1d02205d33bfb3ac49e6536970e0d01825b4b14aa4a8804d11a28365678434de4849bd[ALL] 5221021d27a3f04c55dd60a133872671c02e5dfe3ebd66a5124fa8f045ab5218520ca12102b6d75bf409a0c33924fef2456ae0dc07d85c3af6262c94dccce75437ba0b33f12102c438d8a3f468567b02bbfe58700483149e4a085fa9bea06220ba1175cf2b219b53ae"}, "vout": 514, "txid": "9d40ae85ff2e989e5035bc3d37ee48c724d0eab17d81899076d10df2c7771074"}, {"txinwitness": ["", "304402204457b300a5aebcf3f911618db819bc4435a9bc41de7a09c701e1ae85406f134c0220150ed609a4c01e7d548448a421dc4d801b8e9f88d052369afd6ed7da06d36f2701", "30440220191806a996f1779a509c2d8c7c5e4bd2601a8965d4923f1178fe37c47b5272ea022067eeac1a6a3c2b48b799ab6c4a8f55af8dd32eaca64c30054d83b337d5836ce801", "5221030b312b2d0c50fa002dc5fe90f040f7459ecfd273d656658f361658f4b5c5810821033dcac3a44d61667fa024b93b6beaafd464efe361a624336108712504333ef2432103f359f97a39c9b03ef01cb37aba4f4111d7ff1320e7eececdf3a33266e897b63853ae"], "sequence": 4294967295, "scriptSig": {"hex": "22002061d745252bf67b4afdcbb9ddaeea07d41850e4c430f3e0e38f2246b27f07f2c0", "asm": "002061d745252bf67b4afdcbb9ddaeea07d41850e4c430f3e0e38f2246b27f07f2c0"}, "vout": 1, "txid": "4de366f910e76f4113b69071371aaf85e57caf19f371e4972873d105beea82ff"}], "txid": "f5060d6d90f2a3ac301578ba6943c7750604581e0d87a94957bb5dcca986b6d2", "blocktime": 1537876114, "version": 1, "confirmations": 11460, "time": 1537876114, "locktime": 0, "vsize": 509, "size": 700}