{"hash": "f50a25a3aaa107aad88da6de7502764517a92d0973d5c624adb5ce569fcd4854", "blockhash": "0000000000000000001f76057863aec43deb6fa401d9628bb513d65a8098bfab", "vout": [{"scriptPubKey": {"reqSigs": 1, "hex": "76a914e76787abd635806c8e99c474788696602de99a1888ac", "addresses": ["1N6Z7hf2AyGYLog7RMoHC2fAwgUq2ovfNx"], "asm": "OP_DUP OP_HASH160 e76787abd635806c8e99c474788696602de99a18 OP_EQUALVERIFY OP_CHECKSIG", "type": "pubkeyhash"}, "value": 0.15230769, "n": 0}, {"scriptPubKey": {"reqSigs": 1, "hex": "76a914bae025140c454518b8cba0c25d45a6dc87f4b9ce88ac", "addresses": ["1J37CY8hcdUXQ1KfBhMCsUVafa8XjDsdCn"], "asm": "OP_DUP OP_HASH160 bae025140c454518b8cba0c25d45a6dc87f4b9ce OP_EQUALVERIFY OP_CHECKSIG", "type": "pubkeyhash"}, "value": 0.00659151, "n": 1}], "hex": "010000000135b7556dd1827454dc051b619acc06b22672ea3f8c5820ce39dc6ec13b3f61340b0000006a473044022076efa011a0e557d8efea8a981ed26503bfa01d6e11c58edace7a9c900d37f369022043984301d0ee0f7da41848bf8109da5f9e99fb611329cd8f15e7df8fcc6a5e40012103751501b8fd1087fe031d247e561e30b0ddf105cdae187e750d2cb8601e03c23cffffffff023167e800000000001976a914e76787abd635806c8e99c474788696602de99a1888accf0e0a00000000001976a914bae025140c454518b8cba0c25d45a6dc87f4b9ce88ac00000000", "vin": [{"sequence": 4294967295, "scriptSig": {"hex": "473044022076efa011a0e557d8efea8a981ed26503bfa01d6e11c58edace7a9c900d37f369022043984301d0ee0f7da41848bf8109da5f9e99fb611329cd8f15e7df8fcc6a5e40012103751501b8fd1087fe031d247e561e30b0ddf105cdae187e750d2cb8601e03c23c", "asm": "3044022076efa011a0e557d8efea8a981ed26503bfa01d6e11c58edace7a9c900d37f369022043984301d0ee0f7da41848bf8109da5f9e99fb611329cd8f15e7df8fcc6a5e40[ALL] 03751501b8fd1087fe031d247e561e30b0ddf105cdae187e750d2cb8601e03c23c"}, "vout": 11, "txid": "34613f3bc16edc39ce20588c3fea7226b206cc9a611b05dc547482d16d55b735"}], "txid": "f50a25a3aaa107aad88da6de7502764517a92d0973d5c624adb5ce569fcd4854", "blocktime": 1537873891, "version": 1, "confirmations": 11475, "time": 1537873891, "locktime": 0, "vsize": 225, "size": 225}