{"hash": "f51087b9a93a64a60bd1813954123881f55d9deb5254e9ede69d9ddf9e0c4cfd", "blockhash": "0000000000000000000baef3f32e3676a92c3b2e5da21b426e4f302fc371ce76", "vout": [{"scriptPubKey": {"reqSigs": 1, "hex": "a9143516f8c50df5598c9013b25b8f2d1beab9c2b86a87", "addresses": ["36XjFpJfFaLMeBhD7xAENu721vcnXBBokL"], "asm": "OP_HASH160 3516f8c50df5598c9013b25b8f2d1beab9c2b86a OP_EQUAL", "type": "scripthash"}, "value": 0.00890009, "n": 0}, {"scriptPubKey": {"reqSigs": 1, "hex": "76a9147b0aeed6b70360d5d5567061bc7abfd46f7cf7f388ac", "addresses": ["1CDbDEPMXvrcwhgQTFjg4WgBsjUB5BrGPA"], "asm": "OP_DUP OP_HASH160 7b0aeed6b70360d5d5567061bc7abfd46f7cf7f3 OP_EQUALVERIFY OP_CHECKSIG", "type": "pubkeyhash"}, "value": 0.01273646, "n": 1}], "hex": "01000000020b584b53acfe035aa3ebca4bdb8c8d1cbc75af297cf1b80493f13b624e4d026c010000006a4730440220261e1bd6bef03d9564d9bacc212239b9d75c0816eb37091c1ffff60f7d63905a022052eb2e4db4c9055a1de74e724ab617f74c70bf2d366437d0f189eb9e878adaf00121036b0afa65d23e545fc31bea4ad7be02a0e883eb047797c84167c5e49ae1e0fa35ffffffff9b0c3f6a14aded28e07ad877771ddb81f8c35352727b5e521c60119f461197ac000000006a473044022048fffa8e6351e177f25e2070aeab0b12f77300f32070e433d359e000022aed7802207e979ce2155bfac9f8c9b2148b600a1f4cc29f8d9389551597d644eaf25d941f01210374632cde4f5187ba439a6f4f54d3872479907f083477abbb9fd3bb33b4c586aeffffffff0299940d000000000017a9143516f8c50df5598c9013b25b8f2d1beab9c2b86a872e6f1300000000001976a9147b0aeed6b70360d5d5567061bc7abfd46f7cf7f388ac00000000", "vin": [{"sequence": 4294967295, "scriptSig": {"hex": "4730440220261e1bd6bef03d9564d9bacc212239b9d75c0816eb37091c1ffff60f7d63905a022052eb2e4db4c9055a1de74e724ab617f74c70bf2d366437d0f189eb9e878adaf00121036b0afa65d23e545fc31bea4ad7be02a0e883eb047797c84167c5e49ae1e0fa35", "asm": "30440220261e1bd6bef03d9564d9bacc212239b9d75c0816eb37091c1ffff60f7d63905a022052eb2e4db4c9055a1de74e724ab617f74c70bf2d366437d0f189eb9e878adaf0[ALL] 036b0afa65d23e545fc31bea4ad7be02a0e883eb047797c84167c5e49ae1e0fa35"}, "vout": 1, "txid": "6c024d4e623bf19304b8f17c29af75bc1c8d8cdb4bcaeba35a03feac534b580b"}, {"sequence": 4294967295, "scriptSig": {"hex": "473044022048fffa8e6351e177f25e2070aeab0b12f77300f32070e433d359e000022aed7802207e979ce2155bfac9f8c9b2148b600a1f4cc29f8d9389551597d644eaf25d941f01210374632cde4f5187ba439a6f4f54d3872479907f083477abbb9fd3bb33b4c586ae", "asm": "3044022048fffa8e6351e177f25e2070aeab0b12f77300f32070e433d359e000022aed7802207e979ce2155bfac9f8c9b2148b600a1f4cc29f8d9389551597d644eaf25d941f[ALL] 0374632cde4f5187ba439a6f4f54d3872479907f083477abbb9fd3bb33b4c586ae"}, "vout": 0, "txid": "ac9711469f11601c525e7b725253c3f881db1d7777d87ae028edad146a3f0c9b"}], "txid": "f51087b9a93a64a60bd1813954123881f55d9deb5254e9ede69d9ddf9e0c4cfd", "blocktime": 1537876114, "version": 1, "confirmations": 11460, "time": 1537876114, "locktime": 0, "vsize": 370, "size": 370}