{"hash": "0340d5079bbfecfe8330ddc5a020f32bc49ea7f8f8826a4b6536f6a5b8fb108a", "blockhash": "0000000000000000001f0ddff1eddb255c1121bcd4da4f1bc9a0da00cae72433", "vout": [{"scriptPubKey": {"reqSigs": 1, "hex": "76a9148259e719556ec6add534b832af83850c702c743f88ac", "addresses": ["1CtEYVNZAM4jyrYufuBTYgNDQ5BcygMDuk"], "asm": "OP_DUP OP_HASH160 8259e719556ec6add534b832af83850c702c743f OP_EQUALVERIFY OP_CHECKSIG", "type": "pubkeyhash"}, "value": 0.0003827, "n": 0}, {"scriptPubKey": {"reqSigs": 1, "hex": "a9142a0864c49a093841849d5d24486043539eef8bd387", "addresses": ["35XGMoMATsDX1m4WoqiB2F2UtRPhzcvrPu"], "asm": "OP_HASH160 2a0864c49a093841849d5d24486043539eef8bd3 OP_EQUAL", "type": "scripthash"}, "value": 0.0104144, "n": 1}], "hex": "020000000001025a56cc04b6ca94bb5e74d469f3cbf5ec5d407dddf1b647a28d9d725bb8fcb81a0a00000017160014298296177c07d23d5e8f02b6a4c9ce917b3c8142feffffffd241cbb4dcd3e55ec9f78c120d192b7da2caae4e622a8a9dc26f3379ed9682d70000000017160014b8025305132ff44d22e508468349ea46a57e1a95feffffff027e950000000000001976a9148259e719556ec6add534b832af83850c702c743f88ac20e40f000000000017a9142a0864c49a093841849d5d24486043539eef8bd3870247304402200200ec928a7cd7acd063f4cc60463c5b6921d4470328ae0d9d49d8cde2d1a99602207c781ab90d42ca16e17c55def82893a41f8214976666b272f2d14a372f4c800c012102ff4ee1371fa382487d2aeba1ae0b7dedbdbf8553bf5663983192868770e39b1702483045022100de1b306ca53061f098046a5aef53a2db4d3bacf8574e10bb5ca3c538cccc0d7302202529cf809aed867b56ec249b11725377d83745f98ddd3817189a608f5d177f9e0121036adaef933233a3b061470a6bcd8412498cfef098ec3eea17081cf90e282c889a11490800", "vin": [{"txinwitness": ["304402200200ec928a7cd7acd063f4cc60463c5b6921d4470328ae0d9d49d8cde2d1a99602207c781ab90d42ca16e17c55def82893a41f8214976666b272f2d14a372f4c800c01", "02ff4ee1371fa382487d2aeba1ae0b7dedbdbf8553bf5663983192868770e39b17"], "sequence": 4294967294, "scriptSig": {"hex": "160014298296177c07d23d5e8f02b6a4c9ce917b3c8142", "asm": "0014298296177c07d23d5e8f02b6a4c9ce917b3c8142"}, "vout": 10, "txid": "1ab8fcb85b729d8da247b6f1dd7d405decf5cbf369d4745ebb94cab604cc565a"}, {"txinwitness": ["3045022100de1b306ca53061f098046a5aef53a2db4d3bacf8574e10bb5ca3c538cccc0d7302202529cf809aed867b56ec249b11725377d83745f98ddd3817189a608f5d177f9e01", "036adaef933233a3b061470a6bcd8412498cfef098ec3eea17081cf90e282c889a"], "sequence": 4294967294, "scriptSig": {"hex": "160014b8025305132ff44d22e508468349ea46a57e1a95", "asm": "0014b8025305132ff44d22e508468349ea46a57e1a95"}, "vout": 0, "txid": "d78296ed79336fc29d8a2a624eaecaa27d2b190d128cf7c95ee5d3dcb4cb41d2"}], "txid": "f5119aa8943d19353e0af5f42fff73bd9705031d2861b96adc3e0f119eb7ad2c", "blocktime": 1537872018, "version": 2, "confirmations": 11489, "time": 1537872018, "locktime": 542993, "vsize": 259, "size": 421}