{"hash": "f512d3f9212bd3901fc1b00fbe6586f9294d19cfa9f110a1e4286990cedaf1ca", "blockhash": "0000000000000000001f76057863aec43deb6fa401d9628bb513d65a8098bfab", "vout": [{"scriptPubKey": {"reqSigs": 1, "hex": "a9143f4eecba122ad73039d481c8d37f99cb4f887cd887", "addresses": ["37Tm3Qz8Zw2VJrheUUhArDAoq58S6YrS3g"], "asm": "OP_HASH160 3f4eecba122ad73039d481c8d37f99cb4f887cd8 OP_EQUAL", "type": "scripthash"}, "value": 38.8, "n": 0}, {"scriptPubKey": {"reqSigs": 1, "hex": "a914daeb15a54bf3090afebd9d6b3286cdc3c972238087", "addresses": ["3MeYrKjuFjCfYT9TCoahJhW7sEsQWm4NCk"], "asm": "OP_HASH160 daeb15a54bf3090afebd9d6b3286cdc3c9722380 OP_EQUAL", "type": "scripthash"}, "value": 1.04008801, "n": 1}], "hex": "0100000002e686bb35b3dea2987ad51956b6d21faa568c8e5b313979d16967f192f8a35f3801000000fdfd0000483045022100fc58023bdc51720576ffaeef7293afeb9612bff9cf833e5d48deb67a211b4a9b02206bcc65060fcfdac00fd3744a41a40732c14799cbe5c0c11c5c98660215a1424701473044022040b89baa36a64aebdb31cf0ea8ee0df3658b1fc2130141ad4a062ae29af674c502201d661db9ebe52b1191090eedd12055f23b1e69b965c363152f86f276b6511004014c6952210392c8547d2d398a29600a1ac54134efcc792d936fac6c77b18b1ed48203996df1210365031939137937919c6a7228ea31d75b5f357b38128f86938035418ed701fd902103e866eef306f392c4281260ce4d2b374c5af6417c85046b389fc11641c0f430d553aeffffffff834eafaebb716b2f8d8fc78c79d12d7d3c816dc56176fe98eedf4daa59c8ee8101000000fdfd0000473044022020b0a6f49795eb8541fe2c4527ec72df1faee976a9fc95820331bcef64aeb52d02203e1651ac8e34bf7a0f090f34b9de5ecb7f6ddf3812404076d76805414ba7482801483045022100c90bc3ff78406498f06f6aff32c3188453ef59c7e4ab109a8f690d8460960ef7022076cfaf946b854b2dfbb66676d05cbeb7e90ec6af1ecbcb190081c0aa46a72d59014c6952210364910d1a4904bc8d5104b3b0a15366f1ab13708d09c26d8833de1fdb06f063d9210364865d7922ac5c6e16a4ffcf66c5ad64a93870395846144f9c638a7e273d50862102e53f3cf5499365ac31132c016de2242db372e6248ca87db242c28c539414e2ab53aeffffffff02001a44e70000000017a9143f4eecba122ad73039d481c8d37f99cb4f887cd887610c33060000000017a914daeb15a54bf3090afebd9d6b3286cdc3c97223808700000000", "vin": [{"sequence": 4294967295, "scriptSig": {"hex": "00483045022100fc58023bdc51720576ffaeef7293afeb9612bff9cf833e5d48deb67a211b4a9b02206bcc65060fcfdac00fd3744a41a40732c14799cbe5c0c11c5c98660215a1424701473044022040b89baa36a64aebdb31cf0ea8ee0df3658b1fc2130141ad4a062ae29af674c502201d661db9ebe52b1191090eedd12055f23b1e69b965c363152f86f276b6511004014c6952210392c8547d2d398a29600a1ac54134efcc792d936fac6c77b18b1ed48203996df1210365031939137937919c6a7228ea31d75b5f357b38128f86938035418ed701fd902103e866eef306f392c4281260ce4d2b374c5af6417c85046b389fc11641c0f430d553ae", "asm": "0 3045022100fc58023bdc51720576ffaeef7293afeb9612bff9cf833e5d48deb67a211b4a9b02206bcc65060fcfdac00fd3744a41a40732c14799cbe5c0c11c5c98660215a14247[ALL] 3044022040b89baa36a64aebdb31cf0ea8ee0df3658b1fc2130141ad4a062ae29af674c502201d661db9ebe52b1191090eedd12055f23b1e69b965c363152f86f276b6511004[ALL] 52210392c8547d2d398a29600a1ac54134efcc792d936fac6c77b18b1ed48203996df1210365031939137937919c6a7228ea31d75b5f357b38128f86938035418ed701fd902103e866eef306f392c4281260ce4d2b374c5af6417c85046b389fc11641c0f430d553ae"}, "vout": 1, "txid": "385fa3f892f16769d17939315b8e8c56aa1fd2b65619d57a98a2deb335bb86e6"}, {"sequence": 4294967295, "scriptSig": {"hex": "00473044022020b0a6f49795eb8541fe2c4527ec72df1faee976a9fc95820331bcef64aeb52d02203e1651ac8e34bf7a0f090f34b9de5ecb7f6ddf3812404076d76805414ba7482801483045022100c90bc3ff78406498f06f6aff32c3188453ef59c7e4ab109a8f690d8460960ef7022076cfaf946b854b2dfbb66676d05cbeb7e90ec6af1ecbcb190081c0aa46a72d59014c6952210364910d1a4904bc8d5104b3b0a15366f1ab13708d09c26d8833de1fdb06f063d9210364865d7922ac5c6e16a4ffcf66c5ad64a93870395846144f9c638a7e273d50862102e53f3cf5499365ac31132c016de2242db372e6248ca87db242c28c539414e2ab53ae", "asm": "0 3044022020b0a6f49795eb8541fe2c4527ec72df1faee976a9fc95820331bcef64aeb52d02203e1651ac8e34bf7a0f090f34b9de5ecb7f6ddf3812404076d76805414ba74828[ALL] 3045022100c90bc3ff78406498f06f6aff32c3188453ef59c7e4ab109a8f690d8460960ef7022076cfaf946b854b2dfbb66676d05cbeb7e90ec6af1ecbcb190081c0aa46a72d59[ALL] 52210364910d1a4904bc8d5104b3b0a15366f1ab13708d09c26d8833de1fdb06f063d9210364865d7922ac5c6e16a4ffcf66c5ad64a93870395846144f9c638a7e273d50862102e53f3cf5499365ac31132c016de2242db372e6248ca87db242c28c539414e2ab53ae"}, "vout": 1, "txid": "81eec859aa4ddfee98fe7661c56d813c7d2dd1798cc78f8d2f6b71bbaeaf4e83"}], "txid": "f512d3f9212bd3901fc1b00fbe6586f9294d19cfa9f110a1e4286990cedaf1ca", "blocktime": 1537873891, "version": 1, "confirmations": 11475, "time": 1537873891, "locktime": 0, "vsize": 666, "size": 666}