{"hash": "f51ef976a01418249169fa113061f2dab3fee3b8dbab9de1db8cf14c4857a83e", "blockhash": "0000000000000000001e0dab787dd257d1dbfcb92a98c2207d5e1078be1f4165", "vout": [{"scriptPubKey": {"reqSigs": 1, "hex": "76a914e7f5516621521c036a7928e54a4863fb34f1121088ac", "addresses": ["1N9UyJd5ZYX3samGUodhPrwArDrp5Uof6W"], "asm": "OP_DUP OP_HASH160 e7f5516621521c036a7928e54a4863fb34f11210 OP_EQUALVERIFY OP_CHECKSIG", "type": "pubkeyhash"}, "value": 0.0781, "n": 0}, {"scriptPubKey": {"reqSigs": 1, "hex": "76a91489465913904d37ac6d00173263671dd175fc41f788ac", "addresses": ["1DWqr9Ft7tBT5R9dTXY3MWspyryvcyGtGf"], "asm": "OP_DUP OP_HASH160 89465913904d37ac6d00173263671dd175fc41f7 OP_EQUALVERIFY OP_CHECKSIG", "type": "pubkeyhash"}, "value": 0.59944674, "n": 1}], "hex": "0100000001c17b9a75ce6b0a2969db891dbe666a3d1cfb529c9c7b262dad46c1c327b809b1010000006a47304402206a04b95b7bb1c0edb9fab48c3282e40fa885338b7b5a40a52dd1fa58d5f8be7e0220382109abe5af74820e64fb2f4779a66085b484093fae47172d00d573adce35ce012103f375c64f80662a5f949d4105ed4ae98063cc771dc0351f04864f7618accd19caffffffff02d02b7700000000001976a914e7f5516621521c036a7928e54a4863fb34f1121088ace2ae9203000000001976a91489465913904d37ac6d00173263671dd175fc41f788ac00000000", "vin": [{"sequence": 4294967295, "scriptSig": {"hex": "47304402206a04b95b7bb1c0edb9fab48c3282e40fa885338b7b5a40a52dd1fa58d5f8be7e0220382109abe5af74820e64fb2f4779a66085b484093fae47172d00d573adce35ce012103f375c64f80662a5f949d4105ed4ae98063cc771dc0351f04864f7618accd19ca", "asm": "304402206a04b95b7bb1c0edb9fab48c3282e40fa885338b7b5a40a52dd1fa58d5f8be7e0220382109abe5af74820e64fb2f4779a66085b484093fae47172d00d573adce35ce[ALL] 03f375c64f80662a5f949d4105ed4ae98063cc771dc0351f04864f7618accd19ca"}, "vout": 1, "txid": "b109b827c3c146ad2d267b9c9c52fb1c3d6a66be1d89db69290a6bce759a7bc1"}], "txid": "f51ef976a01418249169fa113061f2dab3fee3b8dbab9de1db8cf14c4857a83e", "blocktime": 1537872475, "version": 1, "confirmations": 11487, "time": 1537872475, "locktime": 0, "vsize": 225, "size": 225}