{"hash": "f522524ce64dbdf9b7111b075e15de8485579b808f4687bd0b498a522e40cd47", "blockhash": "00000000000000000004ffacab907a6b429b9a5745fa0b75af4234bf69dd7176", "vout": [{"scriptPubKey": {"reqSigs": 1, "hex": "76a914a8973d8859122d494a47143bd47ce2099aa3436d88ac", "addresses": ["1GNRhbLiohoWwE1YJsn1kx2MugZ3ReVFmK"], "asm": "OP_DUP OP_HASH160 a8973d8859122d494a47143bd47ce2099aa3436d OP_EQUALVERIFY OP_CHECKSIG", "type": "pubkeyhash"}, "value": 0.01241266, "n": 0}, {"scriptPubKey": {"reqSigs": 1, "hex": "76a91434144c800e4b2e22987ef0d3152059ca17e4e60a88ac", "addresses": ["15kNTN2brpkg5J8wb922UE1e8ycsK13Fiw"], "asm": "OP_DUP OP_HASH160 34144c800e4b2e22987ef0d3152059ca17e4e60a OP_EQUALVERIFY OP_CHECKSIG", "type": "pubkeyhash"}, "value": 0.22532344, "n": 1}, {"scriptPubKey": {"reqSigs": 1, "hex": "76a914bd62b39ed41e3b46ec90183ac3df41e37f13158588ac", "addresses": ["1JGNxAeNfzzaoJrzuheL6bdoxa7MPsUCWf"], "asm": "OP_DUP OP_HASH160 bd62b39ed41e3b46ec90183ac3df41e37f131585 OP_EQUALVERIFY OP_CHECKSIG", "type": "pubkeyhash"}, "value": 0.12953683, "n": 2}], "hex": "02000000019e99858fe9cb135473e9c677a9e1602e0ef7fa5d4033b29df4ea97fa03c4bb66020000006a4730440220251dd4239b399b507db0fc3cf0cf6bf7b5f010da432faaaf1edea74201c4b42102201a6fd6a8c9ced84ffd26c943a5ee2c7baae272bfb2aafcb92087140aa4b0b72e0121020958145063fe01bdd29cf613c94b48b7b73161efc61e3ebe273bb93e7fa8e8f2feffffff03b2f01200000000001976a914a8973d8859122d494a47143bd47ce2099aa3436d88acf8d05701000000001976a91434144c800e4b2e22987ef0d3152059ca17e4e60a88ac53a8c500000000001976a914bd62b39ed41e3b46ec90183ac3df41e37f13158588ac16490800", "vin": [{"sequence": 4294967294, "scriptSig": {"hex": "4730440220251dd4239b399b507db0fc3cf0cf6bf7b5f010da432faaaf1edea74201c4b42102201a6fd6a8c9ced84ffd26c943a5ee2c7baae272bfb2aafcb92087140aa4b0b72e0121020958145063fe01bdd29cf613c94b48b7b73161efc61e3ebe273bb93e7fa8e8f2", "asm": "30440220251dd4239b399b507db0fc3cf0cf6bf7b5f010da432faaaf1edea74201c4b42102201a6fd6a8c9ced84ffd26c943a5ee2c7baae272bfb2aafcb92087140aa4b0b72e[ALL] 020958145063fe01bdd29cf613c94b48b7b73161efc61e3ebe273bb93e7fa8e8f2"}, "vout": 2, "txid": "66bbc403fa97eaf49db233405dfaf70e2e60e1a977c6e9735413cbe98f85999e"}], "txid": "f522524ce64dbdf9b7111b075e15de8485579b808f4687bd0b498a522e40cd47", "blocktime": 1537875543, "version": 2, "confirmations": 11464, "time": 1537875543, "locktime": 542998, "vsize": 259, "size": 259}