{"hash": "f5248934282f69491a70895241463ca3c1121e034497491acdd88619ce70f76d", "blockhash": "0000000000000000000dcc0f55137456b1a82d3642486a52398922ac4d620174", "vout": [{"scriptPubKey": {"type": "nulldata", "hex": "6a4c50000077780001218fe0c131c9cb554ebcc0f7bcbefa6b8351586b4e86aeaeacb577c031fc46b318260ec39ad45be181608e5683a85baa099c06143e7c6f71c4491d100759d4ba30d2c37bb011d97e02cf", "asm": "OP_RETURN 000077780001218fe0c131c9cb554ebcc0f7bcbefa6b8351586b4e86aeaeacb577c031fc46b318260ec39ad45be181608e5683a85baa099c06143e7c6f71c4491d100759d4ba30d2c37bb011d97e02cf"}, "value": 0.0, "n": 0}, {"scriptPubKey": {"reqSigs": 1, "hex": "76a914fd20d4187c69af30b5b27ebdf0664a0ac210db5388ac", "addresses": ["1Q5RHVqUatMNDwk4CBAubM4GyxWHqbrFjo"], "asm": "OP_DUP OP_HASH160 fd20d4187c69af30b5b27ebdf0664a0ac210db53 OP_EQUALVERIFY OP_CHECKSIG", "type": "pubkeyhash"}, "value": 0.00647784, "n": 1}], "hex": "01000000015dbac98dd1d12c93209f873ea76434b641bc40e2b7f86ecc1ed625d9ae09666b000000006b483045022100d60dce85ab3fc92b8ed29638d7362a7fe7dd46509c3cedb919c54b74b8c60aab022022023f9abfad4dd6bc70dce5ccdbf087e6bfbdee8312b8be390251a31c8de66a0121026d1a73f2bdff7fee2ce34c779fe890d5bf05dc6cf0ae08f235d16ee5bba1b8caffffffff020000000000000000536a4c50000077780001218fe0c131c9cb554ebcc0f7bcbefa6b8351586b4e86aeaeacb577c031fc46b318260ec39ad45be181608e5683a85baa099c06143e7c6f71c4491d100759d4ba30d2c37bb011d97e02cf68e20900000000001976a914fd20d4187c69af30b5b27ebdf0664a0ac210db5388ac00000000", "vin": [{"sequence": 4294967295, "scriptSig": {"hex": "483045022100d60dce85ab3fc92b8ed29638d7362a7fe7dd46509c3cedb919c54b74b8c60aab022022023f9abfad4dd6bc70dce5ccdbf087e6bfbdee8312b8be390251a31c8de66a0121026d1a73f2bdff7fee2ce34c779fe890d5bf05dc6cf0ae08f235d16ee5bba1b8ca", "asm": "3045022100d60dce85ab3fc92b8ed29638d7362a7fe7dd46509c3cedb919c54b74b8c60aab022022023f9abfad4dd6bc70dce5ccdbf087e6bfbdee8312b8be390251a31c8de66a[ALL] 026d1a73f2bdff7fee2ce34c779fe890d5bf05dc6cf0ae08f235d16ee5bba1b8ca"}, "vout": 0, "txid": "6b6609aed925d61ecc6ef8b7e240bc41b63464a73e879f20932cd1d18dc9ba5d"}], "txid": "f5248934282f69491a70895241463ca3c1121e034497491acdd88619ce70f76d", "blocktime": 1537870268, "version": 1, "confirmations": 11518, "time": 1537870268, "locktime": 0, "vsize": 284, "size": 284}