{"hash": "f5297b7aff9ad77b435b135ffaacfcf72feb75f8ceb4e3096f99e791ff7629db", "blockhash": "0000000000000000000e13cef7c366c0283d82e591d1acd082e914b08063cdf1", "vout": [{"scriptPubKey": {"reqSigs": 1, "hex": "76a91491498c387b4989da55ff582bf9191687b4ff823488ac", "addresses": ["1EFD616uFWzbT57BHay2QdTZxkBAtwv8rp"], "asm": "OP_DUP OP_HASH160 91498c387b4989da55ff582bf9191687b4ff8234 OP_EQUALVERIFY OP_CHECKSIG", "type": "pubkeyhash"}, "value": 0.00014897, "n": 0}, {"scriptPubKey": {"reqSigs": 1, "hex": "a914e9b517a61071c0d7cf2756c5ebcc6c801ea554ee87", "addresses": ["3NzkJkzJW7EV9E8xN5tX7KNqTZRZy3aZga"], "asm": "OP_HASH160 e9b517a61071c0d7cf2756c5ebcc6c801ea554ee OP_EQUAL", "type": "scripthash"}, "value": 0.00390625, "n": 1}], "hex": "01000000016bbe9bbe8e7eb3117763a19e8f2c8f9a0819dfd208f99023ffe07eee0b46c2f5000000006a47304402201783381db98799b16c84c011f7ec82bd215fb1abdf406c37b2a347234a789566022069ef6488269897886b4da1831ff0c5fd3a35c361f34d16e61b31b8921bd4430c0121037202432a4781d989ad5916352b69276421dd86829d34c98788ede340c75c49fcffffffff02313a0000000000001976a91491498c387b4989da55ff582bf9191687b4ff823488ace1f505000000000017a914e9b517a61071c0d7cf2756c5ebcc6c801ea554ee8700000000", "vin": [{"sequence": 4294967295, "scriptSig": {"hex": "47304402201783381db98799b16c84c011f7ec82bd215fb1abdf406c37b2a347234a789566022069ef6488269897886b4da1831ff0c5fd3a35c361f34d16e61b31b8921bd4430c0121037202432a4781d989ad5916352b69276421dd86829d34c98788ede340c75c49fc", "asm": "304402201783381db98799b16c84c011f7ec82bd215fb1abdf406c37b2a347234a789566022069ef6488269897886b4da1831ff0c5fd3a35c361f34d16e61b31b8921bd4430c[ALL] 037202432a4781d989ad5916352b69276421dd86829d34c98788ede340c75c49fc"}, "vout": 0, "txid": "f5c2460bee7ee0ff2390f908d2df19089a8f2c8f9ea1637711b37e8ebe9bbe6b"}], "txid": "f5297b7aff9ad77b435b135ffaacfcf72feb75f8ceb4e3096f99e791ff7629db", "blocktime": 1537871767, "version": 1, "confirmations": 11495, "time": 1537871767, "locktime": 0, "vsize": 223, "size": 223}