{"hash": "f52c761346b0d6a6add7afa57162bdeccf6e12a378998f298494e7c035c2b538", "blockhash": "0000000000000000001f0ddff1eddb255c1121bcd4da4f1bc9a0da00cae72433", "vout": [{"scriptPubKey": {"reqSigs": 1, "hex": "76a9149e9e6bdff6c83c6d3572f0d0e1639b28793ce94a88ac", "addresses": ["1FThYcxyhgiLk6ZyKbH2oPb6xrBhtpoFij"], "asm": "OP_DUP OP_HASH160 9e9e6bdff6c83c6d3572f0d0e1639b28793ce94a OP_EQUALVERIFY OP_CHECKSIG", "type": "pubkeyhash"}, "value": 0.00229, "n": 0}, {"scriptPubKey": {"reqSigs": 1, "hex": "76a914154f8a12d8444971321c25d4a5efb8636be0895788ac", "addresses": ["12wgUX89ZHcqCka1T1g6ymDp3b5SoqH6ec"], "asm": "OP_DUP OP_HASH160 154f8a12d8444971321c25d4a5efb8636be08957 OP_EQUALVERIFY OP_CHECKSIG", "type": "pubkeyhash"}, "value": 0.1346613, "n": 1}], "hex": "01000000019961b749f873642e3103b46999206d56b9653ba20905b7751e7df23ab8a39d06010000006a4730440220013dc4c1c59842890348d536810f64f55f4954404513001e549902bc003a968002204470ac5f2ffb87a0209a8bb91320951f25ed887feb13be6844cee9c58aacd549012102d1e1a31a7cd2ff805d0cb67da2eaa4b880575851dd89c294f3cdfd88d6a52015fdffffff02887e0300000000001976a9149e9e6bdff6c83c6d3572f0d0e1639b28793ce94a88ac127acd00000000001976a914154f8a12d8444971321c25d4a5efb8636be0895788ac11490800", "vin": [{"sequence": 4294967293, "scriptSig": {"hex": "4730440220013dc4c1c59842890348d536810f64f55f4954404513001e549902bc003a968002204470ac5f2ffb87a0209a8bb91320951f25ed887feb13be6844cee9c58aacd549012102d1e1a31a7cd2ff805d0cb67da2eaa4b880575851dd89c294f3cdfd88d6a52015", "asm": "30440220013dc4c1c59842890348d536810f64f55f4954404513001e549902bc003a968002204470ac5f2ffb87a0209a8bb91320951f25ed887feb13be6844cee9c58aacd549[ALL] 02d1e1a31a7cd2ff805d0cb67da2eaa4b880575851dd89c294f3cdfd88d6a52015"}, "vout": 1, "txid": "069da3b83af27d1e75b70509a23b65b9566d209969b403312e6473f849b76199"}], "txid": "f52c761346b0d6a6add7afa57162bdeccf6e12a378998f298494e7c035c2b538", "blocktime": 1537872018, "version": 1, "confirmations": 11489, "time": 1537872018, "locktime": 542993, "vsize": 225, "size": 225}