{"hash": "4076316e018b69a65dc647a9599ff4b7a88b937623792f130ec6947636ca7570", "blockhash": "0000000000000000001f76057863aec43deb6fa401d9628bb513d65a8098bfab", "vout": [{"scriptPubKey": {"reqSigs": 1, "hex": "0014448aec2630d47d2cfd15716b62a8c1154c109786", "addresses": ["bc1qgj9wcf3s637jelg4w94k92xpz4xpp9ux95d6fw"], "asm": "0 448aec2630d47d2cfd15716b62a8c1154c109786", "type": "witness_v0_keyhash"}, "value": 0.0005255, "n": 0}, {"scriptPubKey": {"reqSigs": 1, "hex": "a914412a5a9d44d5834123b7756088f409b7b3a36da687", "addresses": ["37daapNiiDgPEaARWMQCfhGXJo4yF1nTaW"], "asm": "OP_HASH160 412a5a9d44d5834123b7756088f409b7b3a36da6 OP_EQUAL", "type": "scripthash"}, "value": 0.00583008, "n": 1}], "hex": "010000000001013acf72b7eb6ddcaa6943c40598e83a4cea7ee6730030d06fac9b64ff9300d30b010000002322002083f5850b1b9ae687f7cf8d5c77fefcbd87cde420155cd43c20d50f5f293b7ed6ffffffff0246cd000000000000160014448aec2630d47d2cfd15716b62a8c1154c10978660e508000000000017a914412a5a9d44d5834123b7756088f409b7b3a36da6870400473044022041fbf6911a8337df12a01e53406b814ee5eb1e0d77bd970b0eacf96ebfa779260220538c3c1c4d79d1ff9047fb406dc9b511aba3e485455a30ec178ec9fc39674fc10147304402202610dbace3701f86ed26358ccc2d7354e0af4162fbe6e9fbf1f762472b7998af0220653a2b5c4a70c103f54b2a1f4510a45eb81f5cf57682a838666693066aeb2cd501475221020511070566b8412d1941b8dc0ded10caa6a6915b609dfa65bb8111255071d3a22103871fc2ca08e6950b38867e8e6a0e94ee625223d3aa0df5c65f414c6d784467e252ae00000000", "vin": [{"txinwitness": ["", "3044022041fbf6911a8337df12a01e53406b814ee5eb1e0d77bd970b0eacf96ebfa779260220538c3c1c4d79d1ff9047fb406dc9b511aba3e485455a30ec178ec9fc39674fc101", "304402202610dbace3701f86ed26358ccc2d7354e0af4162fbe6e9fbf1f762472b7998af0220653a2b5c4a70c103f54b2a1f4510a45eb81f5cf57682a838666693066aeb2cd501", "5221020511070566b8412d1941b8dc0ded10caa6a6915b609dfa65bb8111255071d3a22103871fc2ca08e6950b38867e8e6a0e94ee625223d3aa0df5c65f414c6d784467e252ae"], "sequence": 4294967295, "scriptSig": {"hex": "22002083f5850b1b9ae687f7cf8d5c77fefcbd87cde420155cd43c20d50f5f293b7ed6", "asm": "002083f5850b1b9ae687f7cf8d5c77fefcbd87cde420155cd43c20d50f5f293b7ed6"}, "vout": 1, "txid": "0bd30093ff649bac6fd0300073e67eea4c3ae89805c44369aadc6debb772cf3a"}], "txid": "f52de34b22c62eee76ea28b0419df15985e9d24cad0e2a4f7842766dbe4b193f", "blocktime": 1537873891, "version": 1, "confirmations": 11478, "time": 1537873891, "locktime": 0, "vsize": 204, "size": 369}