{"hash": "cc09bd85fa18753ac95288401834215656a8aa43bd6eaa4059b5528b484f19ef", "blockhash": "00000000000000000004ffacab907a6b429b9a5745fa0b75af4234bf69dd7176", "vout": [{"scriptPubKey": {"reqSigs": 1, "hex": "76a91476703a5adc0d31f93ae5a033e02c37eee1d3776588ac", "addresses": ["1BoFBNVeCe9uCVBiNEU4NvkV4nab87qtnB"], "asm": "OP_DUP OP_HASH160 76703a5adc0d31f93ae5a033e02c37eee1d37765 OP_EQUALVERIFY OP_CHECKSIG", "type": "pubkeyhash"}, "value": 0.00124349, "n": 0}, {"scriptPubKey": {"reqSigs": 1, "hex": "76a914be0fc59aa9a6e73842e4da1c646d8131d4dfd75788ac", "addresses": ["1JKxHJHSzqCF8Ctnp4pWKYVTRdz3Fjsync"], "asm": "OP_DUP OP_HASH160 be0fc59aa9a6e73842e4da1c646d8131d4dfd757 OP_EQUALVERIFY OP_CHECKSIG", "type": "pubkeyhash"}, "value": 0.01004613, "n": 1}], "hex": "02000000000103aae47e472bd9644614847318b0a2ca8788de098100438b89c21b9df9d8ab0f8b0000000017160014620e16981f0a8da1c4fa0cade05eb8e38136975cfdffffffdc4070edbb893f0afc0abb35499966c3cfd01ae6b59b8a9bffa2b46242cb00850100000017160014bd821c35cebdd2d5d070e77937c6b79f182065f5fdffffff0e0b45d80c75756c8355d77687609bbd3d6da6aa06994706afd99c60c57b1284010000006b48304502210098e4fbe7c0306f2ae7269d1c29ec0ce0a3e079be7bf8d4a7f5420ae84fbe860602201d3185fb2754814ae23c8f7c49f8d33bc5b51499f97acfced7f1260623310839012103cc6c9dead6357d53d89e5eb2dd9c7cfd1967726662096f5907a51385a99e1520fdffffff02bde50100000000001976a91476703a5adc0d31f93ae5a033e02c37eee1d3776588ac45540f00000000001976a914be0fc59aa9a6e73842e4da1c646d8131d4dfd75788ac02483045022100ee0dd005c111c8d62f617c23f75deaa6f2ea040f3a851331c76b4edb61b587050220314117572354536d815fc3d31355919abf830c26651b5b0071f2a7b212423b08012102a5ac4ec72e0f5a50d797be2b36b357af93720f7d004f0c55fd8f4c0037ab091802483045022100ff7cac62064466ce45ce359b1eb8edea260312b51614dd3444f7470b4d70ddb402203e522e91cadb8783d5afbf3219f7ef9f4070cdc11a1224272cb56d1052f52e18012102f95b1b1b9844a2033a535bbf45776d89f69330cc16854e0eff750a6ddd6deb0800f2480800", "vin": [{"txinwitness": ["3045022100ee0dd005c111c8d62f617c23f75deaa6f2ea040f3a851331c76b4edb61b587050220314117572354536d815fc3d31355919abf830c26651b5b0071f2a7b212423b0801", "02a5ac4ec72e0f5a50d797be2b36b357af93720f7d004f0c55fd8f4c0037ab0918"], "sequence": 4294967293, "scriptSig": {"hex": "160014620e16981f0a8da1c4fa0cade05eb8e38136975c", "asm": "0014620e16981f0a8da1c4fa0cade05eb8e38136975c"}, "vout": 0, "txid": "8b0fabd8f99d1bc2898b43008109de8887caa2b0187384144664d92b477ee4aa"}, {"txinwitness": ["3045022100ff7cac62064466ce45ce359b1eb8edea260312b51614dd3444f7470b4d70ddb402203e522e91cadb8783d5afbf3219f7ef9f4070cdc11a1224272cb56d1052f52e1801", "02f95b1b1b9844a2033a535bbf45776d89f69330cc16854e0eff750a6ddd6deb08"], "sequence": 4294967293, "scriptSig": {"hex": "160014bd821c35cebdd2d5d070e77937c6b79f182065f5", "asm": "0014bd821c35cebdd2d5d070e77937c6b79f182065f5"}, "vout": 1, "txid": "8500cb4262b4a2ff9b8a9bb5e61ad0cfc366994935bb0afc0a3f89bbed7040dc"}, {"sequence": 4294967293, "scriptSig": {"hex": "48304502210098e4fbe7c0306f2ae7269d1c29ec0ce0a3e079be7bf8d4a7f5420ae84fbe860602201d3185fb2754814ae23c8f7c49f8d33bc5b51499f97acfced7f1260623310839012103cc6c9dead6357d53d89e5eb2dd9c7cfd1967726662096f5907a51385a99e1520", "asm": "304502210098e4fbe7c0306f2ae7269d1c29ec0ce0a3e079be7bf8d4a7f5420ae84fbe860602201d3185fb2754814ae23c8f7c49f8d33bc5b51499f97acfced7f1260623310839[ALL] 03cc6c9dead6357d53d89e5eb2dd9c7cfd1967726662096f5907a51385a99e1520"}, "vout": 1, "txid": "84127bc5609cd9af06479906aaa66d3dbd9b608776d755836c75750cd8450b0e"}], "txid": "f52f6c90d32c40451b127087cc8f6fb79e1adf413c9f117e0d28e264a32f8cd5", "blocktime": 1537875543, "version": 2, "confirmations": 11464, "time": 1537875543, "locktime": 542962, "vsize": 409, "size": 573}