{"hash": "f531dc11a30caf7eff738716d0f7e7729d0d70ef1ee60a95069cbb43fb2bda7a", "blockhash": "00000000000000000024a2167bbff67b0be802c0b01cdd79e6331c2be6459f87", "vout": [{"scriptPubKey": {"reqSigs": 1, "hex": "76a914111fe46722726eae380fb8f3bac0c6eadd1ff6a488ac", "addresses": ["12ZYhAreZEXcj7K1csV63CRVQsnutxdi4z"], "asm": "OP_DUP OP_HASH160 111fe46722726eae380fb8f3bac0c6eadd1ff6a4 OP_EQUALVERIFY OP_CHECKSIG", "type": "pubkeyhash"}, "value": 0.00911935, "n": 0}], "hex": "01000000015af34c72191063e1ebc70017aa0b61b5c5c082fcd118d64cd0ebd5438740989f000000006a47304402200d2799fb710dad9939f997b0b0d4d553c6fcb69290516d56656dd9530df00cf10220300d0e48ba0d5156fe6d1e4055ecce7c1b5b5e78e1627a10f120abe1718d97080121027c86fc0da94d37a6b16dcff254792473f40f8e2008e3fe694f176eea4986786bffffffff013fea0d00000000001976a914111fe46722726eae380fb8f3bac0c6eadd1ff6a488ac00000000", "vin": [{"sequence": 4294967295, "scriptSig": {"hex": "47304402200d2799fb710dad9939f997b0b0d4d553c6fcb69290516d56656dd9530df00cf10220300d0e48ba0d5156fe6d1e4055ecce7c1b5b5e78e1627a10f120abe1718d97080121027c86fc0da94d37a6b16dcff254792473f40f8e2008e3fe694f176eea4986786b", "asm": "304402200d2799fb710dad9939f997b0b0d4d553c6fcb69290516d56656dd9530df00cf10220300d0e48ba0d5156fe6d1e4055ecce7c1b5b5e78e1627a10f120abe1718d9708[ALL] 027c86fc0da94d37a6b16dcff254792473f40f8e2008e3fe694f176eea4986786b"}, "vout": 0, "txid": "9f98408743d5ebd04cd618d1fc82c0c5b5610baa1700c7ebe1631019724cf35a"}], "txid": "f531dc11a30caf7eff738716d0f7e7729d0d70ef1ee60a95069cbb43fb2bda7a", "blocktime": 1537870564, "version": 1, "confirmations": 11515, "time": 1537870564, "locktime": 0, "vsize": 191, "size": 191}