{"hash": "f532ec54b41867fa0ff269de5fdd09932e97790641eb2ba7aaee72fef1e76630", "blockhash": "0000000000000000001f76057863aec43deb6fa401d9628bb513d65a8098bfab", "vout": [{"scriptPubKey": {"reqSigs": 1, "hex": "76a9148e6dc5100b7eec18de8865f1d3566b1c24d53cf988ac", "addresses": ["1Dz6TBJgevdeJR2yGZ58NtmrweUkY87eWW"], "asm": "OP_DUP OP_HASH160 8e6dc5100b7eec18de8865f1d3566b1c24d53cf9 OP_EQUALVERIFY OP_CHECKSIG", "type": "pubkeyhash"}, "value": 0.00226616, "n": 0}, {"scriptPubKey": {"reqSigs": 1, "hex": "76a9141575a553ed79f718f6ec768b961f3ece42fd11e688ac", "addresses": ["12xU8Cm4EirbRpB5ATTLFaJrMb6RepWtmU"], "asm": "OP_DUP OP_HASH160 1575a553ed79f718f6ec768b961f3ece42fd11e6 OP_EQUALVERIFY OP_CHECKSIG", "type": "pubkeyhash"}, "value": 0.00103436, "n": 1}], "hex": "010000000168639a79addefbdc5f39387b5e3dd9aeceba80ea3ad36b64e67b7be3e8cbc085000000006b483045022100be5d29ef95b2d54bd2453ed461e82d8b4103ed872b670eaea60108e832ed4d540220162b88a419aadf35280bebee4da7ab76a2c71d1bdd042e7fb89c5dffe3703b2601210342c261eae200a88c02138f1d8d2eb7292ce5bee9b1142666edd1e86a27df3bbbffffffff0238750300000000001976a9148e6dc5100b7eec18de8865f1d3566b1c24d53cf988ac0c940100000000001976a9141575a553ed79f718f6ec768b961f3ece42fd11e688ac00000000", "vin": [{"sequence": 4294967295, "scriptSig": {"hex": "483045022100be5d29ef95b2d54bd2453ed461e82d8b4103ed872b670eaea60108e832ed4d540220162b88a419aadf35280bebee4da7ab76a2c71d1bdd042e7fb89c5dffe3703b2601210342c261eae200a88c02138f1d8d2eb7292ce5bee9b1142666edd1e86a27df3bbb", "asm": "3045022100be5d29ef95b2d54bd2453ed461e82d8b4103ed872b670eaea60108e832ed4d540220162b88a419aadf35280bebee4da7ab76a2c71d1bdd042e7fb89c5dffe3703b26[ALL] 0342c261eae200a88c02138f1d8d2eb7292ce5bee9b1142666edd1e86a27df3bbb"}, "vout": 0, "txid": "85c0cbe8e37b7be6646bd33aea80baceaed93d5e7b38395fdcfbdead799a6368"}], "txid": "f532ec54b41867fa0ff269de5fdd09932e97790641eb2ba7aaee72fef1e76630", "blocktime": 1537873891, "version": 1, "confirmations": 11475, "time": 1537873891, "locktime": 0, "vsize": 226, "size": 226}