{"hash": "f5359b3e10436d7bc4632562aa3917f7f16f6c7d874f3a9d0c3af37e9e1f213f", "blockhash": "00000000000000000024a2167bbff67b0be802c0b01cdd79e6331c2be6459f87", "vout": [{"scriptPubKey": {"reqSigs": 1, "hex": "76a9146599a0810abc98144ebf5ef39740055e20c5823a88ac", "addresses": ["1AGDHZhfLpRDQ87JzWBKrYaZZZQxQN3Acz"], "asm": "OP_DUP OP_HASH160 6599a0810abc98144ebf5ef39740055e20c5823a OP_EQUALVERIFY OP_CHECKSIG", "type": "pubkeyhash"}, "value": 0.00012826, "n": 0}, {"scriptPubKey": {"reqSigs": 1, "hex": "a914df8a4a5a27f82087f3b0e1c6ba8e8c64fa6a8c5d87", "addresses": ["3N4zGujbjMnmQQvMDgNFSLMz4LxfGjHuwm"], "asm": "OP_HASH160 df8a4a5a27f82087f3b0e1c6ba8e8c64fa6a8c5d OP_EQUAL", "type": "scripthash"}, "value": 0.0086, "n": 1}], "hex": "0100000002aecb0c23ac63255c31c6d55d5b0f2028a2f3a8257187521f710ad38a8c76c92f010000006a4730440220352f114adedc7e2e3c171abd9ec43f5f375e80b09b43e4fe92a4ff7826950a5202206b767f44412d2e4e541fcccf07724a25e9691112bee63abefd82d6d2270bdb6f012102d75ebddee4912e0f644ec79adf9f397ee7ca53918ad6af47f85401f7f7c5de7fffffffff5f59408bc91cdc65f1956120fe8b0e50d5dd7578730cd594834ac64e75e135d5010000006a473044022068f729168c871dfaa1e8956441851a4c8c4009bac57c78fea681264e1c08a72d02204dc0a7883b71f132f39cff91b160d2806694227950ff3dc04c28243f3f4be766012102672bbc154369150b5972515a524ed791d1ebe68348f0f7f20f33a5539fe97b41ffffffff021a320000000000001976a9146599a0810abc98144ebf5ef39740055e20c5823a88ac601f0d000000000017a914df8a4a5a27f82087f3b0e1c6ba8e8c64fa6a8c5d8700000000", "vin": [{"sequence": 4294967295, "scriptSig": {"hex": "4730440220352f114adedc7e2e3c171abd9ec43f5f375e80b09b43e4fe92a4ff7826950a5202206b767f44412d2e4e541fcccf07724a25e9691112bee63abefd82d6d2270bdb6f012102d75ebddee4912e0f644ec79adf9f397ee7ca53918ad6af47f85401f7f7c5de7f", "asm": "30440220352f114adedc7e2e3c171abd9ec43f5f375e80b09b43e4fe92a4ff7826950a5202206b767f44412d2e4e541fcccf07724a25e9691112bee63abefd82d6d2270bdb6f[ALL] 02d75ebddee4912e0f644ec79adf9f397ee7ca53918ad6af47f85401f7f7c5de7f"}, "vout": 1, "txid": "2fc9768c8ad30a711f52877125a8f3a228200f5b5dd5c6315c2563ac230ccbae"}, {"sequence": 4294967295, "scriptSig": {"hex": "473044022068f729168c871dfaa1e8956441851a4c8c4009bac57c78fea681264e1c08a72d02204dc0a7883b71f132f39cff91b160d2806694227950ff3dc04c28243f3f4be766012102672bbc154369150b5972515a524ed791d1ebe68348f0f7f20f33a5539fe97b41", "asm": "3044022068f729168c871dfaa1e8956441851a4c8c4009bac57c78fea681264e1c08a72d02204dc0a7883b71f132f39cff91b160d2806694227950ff3dc04c28243f3f4be766[ALL] 02672bbc154369150b5972515a524ed791d1ebe68348f0f7f20f33a5539fe97b41"}, "vout": 1, "txid": "d535e1754ec64a8394d50c737875ddd5500e8bfe206195f165dc1cc98b40595f"}], "txid": "f5359b3e10436d7bc4632562aa3917f7f16f6c7d874f3a9d0c3af37e9e1f213f", "blocktime": 1537870564, "version": 1, "confirmations": 11515, "time": 1537870564, "locktime": 0, "vsize": 370, "size": 370}