{"hash": "f539fc1a9444c31b0b18fe7079ffaee0f9377cc7afcb5b64c035e203be88debe", "blockhash": "00000000000000000004ffacab907a6b429b9a5745fa0b75af4234bf69dd7176", "vout": [{"scriptPubKey": {"reqSigs": 1, "hex": "a9146249ff3caa3e4842e245b59c2aac9bd534d42dfe87", "addresses": ["3AeinkEQDNa8Q73aCcnL8VxsVQRsFA8EqM"], "asm": "OP_HASH160 6249ff3caa3e4842e245b59c2aac9bd534d42dfe OP_EQUAL", "type": "scripthash"}, "value": 0.0005, "n": 0}, {"scriptPubKey": {"reqSigs": 1, "hex": "76a91424b710534c304b45f6d8abf955d681a5e6f9d93188ac", "addresses": ["14M8dQBZxy28fnVXUpkXFj6Xch8mVGmjBA"], "asm": "OP_DUP OP_HASH160 24b710534c304b45f6d8abf955d681a5e6f9d931 OP_EQUALVERIFY OP_CHECKSIG", "type": "pubkeyhash"}, "value": 0.02039421, "n": 1}], "hex": "010000000199ad7110b3e24329a79ce2f6b2caab6003009b6b11fadf5b7e599e375b5599cc010000006a473044022019e6435305cc614728437f44133d3c7700bec4d23b4fd4c13ff5295d76136f550220352245c0c42a05ba18b7e842bd41287a67be2788453dcdc27e9b8a765cff4adf0121033f66d529fa6b25f884893958f8ed6156abf2f56d7950376f24ff5e24c3f1eb8affffffff0250c300000000000017a9146249ff3caa3e4842e245b59c2aac9bd534d42dfe877d1e1f00000000001976a91424b710534c304b45f6d8abf955d681a5e6f9d93188ac00000000", "vin": [{"sequence": 4294967295, "scriptSig": {"hex": "473044022019e6435305cc614728437f44133d3c7700bec4d23b4fd4c13ff5295d76136f550220352245c0c42a05ba18b7e842bd41287a67be2788453dcdc27e9b8a765cff4adf0121033f66d529fa6b25f884893958f8ed6156abf2f56d7950376f24ff5e24c3f1eb8a", "asm": "3044022019e6435305cc614728437f44133d3c7700bec4d23b4fd4c13ff5295d76136f550220352245c0c42a05ba18b7e842bd41287a67be2788453dcdc27e9b8a765cff4adf[ALL] 033f66d529fa6b25f884893958f8ed6156abf2f56d7950376f24ff5e24c3f1eb8a"}, "vout": 1, "txid": "cc99555b379e597e5bdffa116b9b000360abcab2f6e29ca72943e2b31071ad99"}], "txid": "f539fc1a9444c31b0b18fe7079ffaee0f9377cc7afcb5b64c035e203be88debe", "blocktime": 1537875543, "version": 1, "confirmations": 11464, "time": 1537875543, "locktime": 0, "vsize": 223, "size": 223}