{"hash": "8a9770f96ea1c5999e78321fc06012a9a941a0f40e3101df369deaa86445b5de", "blockhash": "0000000000000000001f0ddff1eddb255c1121bcd4da4f1bc9a0da00cae72433", "vout": [{"scriptPubKey": {"reqSigs": 1, "hex": "00144b658f80ab91a430697989a4c2c46a0a136f0408", "addresses": ["bc1qfdjclq9tjxjrq6te3xjv93r2pgfk7pqga8nzg4"], "asm": "0 4b658f80ab91a430697989a4c2c46a0a136f0408", "type": "witness_v0_keyhash"}, "value": 2.418e-05, "n": 0}, {"scriptPubKey": {"reqSigs": 1, "hex": "a914c327b6269aca6d78e77e1aaf69d7e1b62545b6f387", "addresses": ["3KUuG9zn8uzPjpyJ2KXyADjqxNGG3Luij1"], "asm": "OP_HASH160 c327b6269aca6d78e77e1aaf69d7e1b62545b6f3 OP_EQUAL", "type": "scripthash"}, "value": 0.01, "n": 1}], "hex": "0100000000010129545d34d84c89ab40851843d48d29dea5c510868987fec44e2fbddffcf71c33060000001716001418d3d23792ab2d88177ccbcc9ee7e448d0cfd21affffffff0272090000000000001600144b658f80ab91a430697989a4c2c46a0a136f040840420f000000000017a914c327b6269aca6d78e77e1aaf69d7e1b62545b6f38702483045022100cc4a21db8349a08904638b90743bc4348efb1742cae25f0acb2b0d035ffc0b9002200418a23ec49389fe4997f47ab510ea6bdfa1a838c0d31a7bc52bc44d3a2dc0fb012102203a79e6a07dd628f73ef3c044451468b937347dd6316a6452ec5191feeb9a0600000000", "vin": [{"txinwitness": ["3045022100cc4a21db8349a08904638b90743bc4348efb1742cae25f0acb2b0d035ffc0b9002200418a23ec49389fe4997f47ab510ea6bdfa1a838c0d31a7bc52bc44d3a2dc0fb01", "02203a79e6a07dd628f73ef3c044451468b937347dd6316a6452ec5191feeb9a06"], "sequence": 4294967295, "scriptSig": {"hex": "16001418d3d23792ab2d88177ccbcc9ee7e448d0cfd21a", "asm": "001418d3d23792ab2d88177ccbcc9ee7e448d0cfd21a"}, "vout": 6, "txid": "331cf7fcdfbd2f4ec4fe87898610c5a5de298dd443188540ab894cd8345d5429"}], "txid": "f53ac142178d32e470ea15c5eb265cdbb5b9812784b3699a1619d068b3721fba", "blocktime": 1537872018, "version": 1, "confirmations": 11489, "time": 1537872018, "locktime": 0, "vsize": 165, "size": 247}