{"hash": "f5412358a3e01b3f9935a7b18a3a6c6e0d00d8f05a0584303a146a02bc444ec0", "blockhash": "0000000000000000000baef3f32e3676a92c3b2e5da21b426e4f302fc371ce76", "vout": [{"scriptPubKey": {"reqSigs": 1, "hex": "76a914f17d7555bc49d2b7d69261e292fe7df1c13ad98488ac", "addresses": ["1P1t9EJdA3piR4yi6jybBn3Etnr4Mda1cW"], "asm": "OP_DUP OP_HASH160 f17d7555bc49d2b7d69261e292fe7df1c13ad984 OP_EQUALVERIFY OP_CHECKSIG", "type": "pubkeyhash"}, "value": 0.0049, "n": 0}, {"scriptPubKey": {"reqSigs": 1, "hex": "76a91462094a936882f140bfe38882d961c72d2db9f92888ac", "addresses": ["19wNMNXBUoiTVS3LBLGks1c5LuFbeqTtbc"], "asm": "OP_DUP OP_HASH160 62094a936882f140bfe38882d961c72d2db9f928 OP_EQUALVERIFY OP_CHECKSIG", "type": "pubkeyhash"}, "value": 0.02097281, "n": 1}], "hex": "0100000001f3d81a42583b944c34258bad662334d38c4248b04acbc7e0a37976e0f64a943f010000006b483045022100fc42ffa01671ad9f2830189edc87b2fafaf0f732d100355e62e95c12814df898022028413fb5b6037840123fad0a9424a76f208e1624fd2b3cb7ad227a58b18b70b90121031abeba41144ac8b037db23546adc28a2ebb3485be57b391a1e4c0f55690b5880fdffffff02107a0700000000001976a914f17d7555bc49d2b7d69261e292fe7df1c13ad98488ac81002000000000001976a91462094a936882f140bfe38882d961c72d2db9f92888ac16490800", "vin": [{"sequence": 4294967293, "scriptSig": {"hex": "483045022100fc42ffa01671ad9f2830189edc87b2fafaf0f732d100355e62e95c12814df898022028413fb5b6037840123fad0a9424a76f208e1624fd2b3cb7ad227a58b18b70b90121031abeba41144ac8b037db23546adc28a2ebb3485be57b391a1e4c0f55690b5880", "asm": "3045022100fc42ffa01671ad9f2830189edc87b2fafaf0f732d100355e62e95c12814df898022028413fb5b6037840123fad0a9424a76f208e1624fd2b3cb7ad227a58b18b70b9[ALL] 031abeba41144ac8b037db23546adc28a2ebb3485be57b391a1e4c0f55690b5880"}, "vout": 1, "txid": "3f944af6e07679a3e0c7cb4ab048428cd3342366ad8b25344c943b58421ad8f3"}], "txid": "f5412358a3e01b3f9935a7b18a3a6c6e0d00d8f05a0584303a146a02bc444ec0", "blocktime": 1537876114, "version": 1, "confirmations": 11460, "time": 1537876114, "locktime": 542998, "vsize": 226, "size": 226}