{"hash": "f5423d7ccc9b160c6e790f803bd7617443e4aa152f6e1c10bf2a14793a268445", "blockhash": "0000000000000000001cda96e906b7601b7a6fb1a3b62bca570a9e5d8f4b3de1", "vout": [{"scriptPubKey": {"reqSigs": 1, "hex": "76a914688867866a030f7c85b068c909e1f3885d8c8d7888ac", "addresses": ["1AXigVeMd93jCko7xPWcaBbd5vPKH4t4LR"], "asm": "OP_DUP OP_HASH160 688867866a030f7c85b068c909e1f3885d8c8d78 OP_EQUALVERIFY OP_CHECKSIG", "type": "pubkeyhash"}, "value": 0.00637341, "n": 0}, {"scriptPubKey": {"type": "nulldata", "hex": "6a4c50000077d000019c73d99efb9d24c1c7b933b95b23cc0f42c2fc38c5e5bf9ae76da98a211ab8cb1b1ba6933e896348f4bc16d7326a5baa144106137d3d3a4ebb521d100759d4ba30d2c37bb011d97e02cf", "asm": "OP_RETURN 000077d000019c73d99efb9d24c1c7b933b95b23cc0f42c2fc38c5e5bf9ae76da98a211ab8cb1b1ba6933e896348f4bc16d7326a5baa144106137d3d3a4ebb521d100759d4ba30d2c37bb011d97e02cf"}, "value": 0.0, "n": 1}], "hex": "01000000019b9b8da424bdd1ef4e854d524e263a74414efc55839ffc026be287e5102a1553010000006a47304402202b780b755f3e1dfdb67372ef73598918997d6270830e67dbcdf636a83cba2ce002201c6108ea6a21aeac4b874331a2ee8b97eea8440ef0db2d0f405c10121cc59600012103751093ded3138fe184387be2f2ed73b6df33fb0e74941a4662815ad5d5556e58ffffffff029db90900000000001976a914688867866a030f7c85b068c909e1f3885d8c8d7888ac0000000000000000536a4c50000077d000019c73d99efb9d24c1c7b933b95b23cc0f42c2fc38c5e5bf9ae76da98a211ab8cb1b1ba6933e896348f4bc16d7326a5baa144106137d3d3a4ebb521d100759d4ba30d2c37bb011d97e02cf00000000", "vin": [{"sequence": 4294967295, "scriptSig": {"hex": "47304402202b780b755f3e1dfdb67372ef73598918997d6270830e67dbcdf636a83cba2ce002201c6108ea6a21aeac4b874331a2ee8b97eea8440ef0db2d0f405c10121cc59600012103751093ded3138fe184387be2f2ed73b6df33fb0e74941a4662815ad5d5556e58", "asm": "304402202b780b755f3e1dfdb67372ef73598918997d6270830e67dbcdf636a83cba2ce002201c6108ea6a21aeac4b874331a2ee8b97eea8440ef0db2d0f405c10121cc59600[ALL] 03751093ded3138fe184387be2f2ed73b6df33fb0e74941a4662815ad5d5556e58"}, "vout": 1, "txid": "53152a10e587e26b02fc9f8355fc4e41743a264e524d854eefd1bd24a48d9b9b"}], "txid": "f5423d7ccc9b160c6e790f803bd7617443e4aa152f6e1c10bf2a14793a268445", "blocktime": 1537873282, "version": 1, "confirmations": 11484, "time": 1537873282, "locktime": 0, "vsize": 283, "size": 283}