{"hash": "f542e2275cdfe3715270c196a5e228cfb0d0119656c18c2b566fd16d9aaa8f58", "blockhash": "0000000000000000001f0ddff1eddb255c1121bcd4da4f1bc9a0da00cae72433", "vout": [{"scriptPubKey": {"reqSigs": 1, "hex": "76a914e5e311b400e3deedf7ddc344a125d75c5f5a176f88ac", "addresses": ["1MxXkyHkwH9EPdpVVcdVHcgZ4umPfatzCM"], "asm": "OP_DUP OP_HASH160 e5e311b400e3deedf7ddc344a125d75c5f5a176f OP_EQUALVERIFY OP_CHECKSIG", "type": "pubkeyhash"}, "value": 0.0002, "n": 0}, {"scriptPubKey": {"reqSigs": 1, "hex": "76a914f1e4a0c23042cc8fe1b44295b2c87368fe1b1aba88ac", "addresses": ["1P41jafnXX9t3h7NEA2ZJwt9nvWF6VBojE"], "asm": "OP_DUP OP_HASH160 f1e4a0c23042cc8fe1b44295b2c87368fe1b1aba OP_EQUALVERIFY OP_CHECKSIG", "type": "pubkeyhash"}, "value": 0.66168752, "n": 1}, {"scriptPubKey": {"type": "nulldata", "hex": "6a254d4700060489c5df6d3074535262a75f23114fb9b427d3194469a3e772d2d6dd7ecf8002d2", "asm": "OP_RETURN 4d4700060489c5df6d3074535262a75f23114fb9b427d3194469a3e772d2d6dd7ecf8002d2"}, "value": 0.0, "n": 2}], "hex": "0100000001e463e1182e8448934fb246cc4ca4d6ce4a8360a3507761d3ac4c698e9f204508010000006b483045022100c8f5674011d04daf10587aacb3fa837f8e303a7e4824aec9545bb72f063cfb9802203c1b03785d8a373d1ae02c58ec3f71290a3a0266bf9ac3f098a92264c39cdd020121033ff37f08b4aef829d4fd8d9c6e20176af681280342230d036803a3848f41baedffffffff03204e0000000000001976a914e5e311b400e3deedf7ddc344a125d75c5f5a176f88acb0a7f103000000001976a914f1e4a0c23042cc8fe1b44295b2c87368fe1b1aba88ac0000000000000000276a254d4700060489c5df6d3074535262a75f23114fb9b427d3194469a3e772d2d6dd7ecf8002d200000000", "vin": [{"sequence": 4294967295, "scriptSig": {"hex": "483045022100c8f5674011d04daf10587aacb3fa837f8e303a7e4824aec9545bb72f063cfb9802203c1b03785d8a373d1ae02c58ec3f71290a3a0266bf9ac3f098a92264c39cdd020121033ff37f08b4aef829d4fd8d9c6e20176af681280342230d036803a3848f41baed", "asm": "3045022100c8f5674011d04daf10587aacb3fa837f8e303a7e4824aec9545bb72f063cfb9802203c1b03785d8a373d1ae02c58ec3f71290a3a0266bf9ac3f098a92264c39cdd02[ALL] 033ff37f08b4aef829d4fd8d9c6e20176af681280342230d036803a3848f41baed"}, "vout": 1, "txid": "0845209f8e694cacd3617750a360834aced6a44ccc46b24f9348842e18e163e4"}], "txid": "f542e2275cdfe3715270c196a5e228cfb0d0119656c18c2b566fd16d9aaa8f58", "blocktime": 1537872018, "version": 1, "confirmations": 11489, "time": 1537872018, "locktime": 0, "vsize": 274, "size": 274}