{"hash": "f548f5197e9f30402c9cf92801658df640e7f6278f960bca9fc32cf9ba6a6f87", "blockhash": "0000000000000000001e0dab787dd257d1dbfcb92a98c2207d5e1078be1f4165", "vout": [{"scriptPubKey": {"reqSigs": 1, "hex": "76a914fee04323edb5c3d15adb9880a79143be2a8a6dca88ac", "addresses": ["1QEfHjwjKsFpC3pxHrGakYZx1huYp8JM2k"], "asm": "OP_DUP OP_HASH160 fee04323edb5c3d15adb9880a79143be2a8a6dca OP_EQUALVERIFY OP_CHECKSIG", "type": "pubkeyhash"}, "value": 37.49843006, "n": 0}, {"scriptPubKey": {"reqSigs": 1, "hex": "a914873ce66ec6500a41eb446382064788cd795c949f87", "addresses": ["3E266rba5QmP79YHjcURU6jC9uNffk8NqK"], "asm": "OP_HASH160 873ce66ec6500a41eb446382064788cd795c949f OP_EQUAL", "type": "scripthash"}, "value": 0.00617406, "n": 1}], "hex": "010000000148d1b29dfd7351df0ebd53623107ddb545c6bda6787548bc8b9b81657108ef77000000006b483045022100a67dfbd8d84c2d2cebd24f12551523530121746cde80ba441d5d5804b04ecf4b0220447366efdd52156f02094ab201ad956df10de7b93183b0d8dc931873379202470121034380cdc04c6d2285c31e7e12c694bda0ad75fdcd817668133662f067c17d8febffffffff023e1082df000000001976a914fee04323edb5c3d15adb9880a79143be2a8a6dca88acbe6b09000000000017a914873ce66ec6500a41eb446382064788cd795c949f8700000000", "vin": [{"sequence": 4294967295, "scriptSig": {"hex": "483045022100a67dfbd8d84c2d2cebd24f12551523530121746cde80ba441d5d5804b04ecf4b0220447366efdd52156f02094ab201ad956df10de7b93183b0d8dc931873379202470121034380cdc04c6d2285c31e7e12c694bda0ad75fdcd817668133662f067c17d8feb", "asm": "3045022100a67dfbd8d84c2d2cebd24f12551523530121746cde80ba441d5d5804b04ecf4b0220447366efdd52156f02094ab201ad956df10de7b93183b0d8dc93187337920247[ALL] 034380cdc04c6d2285c31e7e12c694bda0ad75fdcd817668133662f067c17d8feb"}, "vout": 0, "txid": "77ef087165819b8bbc487578a6bdc645b5dd07316253bd0edf5173fd9db2d148"}], "txid": "f548f5197e9f30402c9cf92801658df640e7f6278f960bca9fc32cf9ba6a6f87", "blocktime": 1537872475, "version": 1, "confirmations": 11486, "time": 1537872475, "locktime": 0, "vsize": 224, "size": 224}