{"hash": "f54cb2b4c9f36e3d1b12ec8e9d310597fdc7aa2a94ac6d8baecdbb1558134659", "blockhash": "000000000000000000022b45ed06c6f4ccd3cf7fb5ba4856ebd2e58215665228", "vout": [{"scriptPubKey": {"reqSigs": 1, "hex": "76a914447131082b07850ef03ac52e89a8b16cede893da88ac", "addresses": ["17EtYjLRX1QNppLUuRTn1oemp1PY8f9Baj"], "asm": "OP_DUP OP_HASH160 447131082b07850ef03ac52e89a8b16cede893da OP_EQUALVERIFY OP_CHECKSIG", "type": "pubkeyhash"}, "value": 0.00015595, "n": 0}, {"scriptPubKey": {"reqSigs": 1, "hex": "76a914e02c3dc4276fa51b47c32d6cf98e7e96e65729ee88ac", "addresses": ["1MSKMueKBZe2hNCwdWnGEXTetzpY2JqzCz"], "asm": "OP_DUP OP_HASH160 e02c3dc4276fa51b47c32d6cf98e7e96e65729ee OP_EQUALVERIFY OP_CHECKSIG", "type": "pubkeyhash"}, "value": 0.03375755, "n": 1}], "hex": "01000000018b0f7aa5b774ac9a67efbe2d2d665b1224356a48a4f2b6609cda07e67a5b6da4010000006b483045022100bacaebeebae41a9703d71f758820b2d31e30c620cc18074cd2f09a24e378206402202a29aa38b786f88a900a1af3ba83dadca33755d840733ee83cad5f33f4949f690121022a74a9ac58bb6ff802ae22521379d876720aba6c0b61f401923477dbd2b6eb6affffffff02eb3c0000000000001976a914447131082b07850ef03ac52e89a8b16cede893da88ac8b823300000000001976a914e02c3dc4276fa51b47c32d6cf98e7e96e65729ee88ac00000000", "vin": [{"sequence": 4294967295, "scriptSig": {"hex": "483045022100bacaebeebae41a9703d71f758820b2d31e30c620cc18074cd2f09a24e378206402202a29aa38b786f88a900a1af3ba83dadca33755d840733ee83cad5f33f4949f690121022a74a9ac58bb6ff802ae22521379d876720aba6c0b61f401923477dbd2b6eb6a", "asm": "3045022100bacaebeebae41a9703d71f758820b2d31e30c620cc18074cd2f09a24e378206402202a29aa38b786f88a900a1af3ba83dadca33755d840733ee83cad5f33f4949f69[ALL] 022a74a9ac58bb6ff802ae22521379d876720aba6c0b61f401923477dbd2b6eb6a"}, "vout": 1, "txid": "a46d5b7ae607da9c60b6f2a4486a3524125b662d2dbeef679aac74b7a57a0f8b"}], "txid": "f54cb2b4c9f36e3d1b12ec8e9d310597fdc7aa2a94ac6d8baecdbb1558134659", "blocktime": 1537869901, "version": 1, "confirmations": 11524, "time": 1537869901, "locktime": 0, "vsize": 226, "size": 226}