{"hash": "f55133d3bae5cd3dbc12c0a32ffc643e7ed98353614a3c1db8078f29df8893d8", "blockhash": "0000000000000000001f76057863aec43deb6fa401d9628bb513d65a8098bfab", "vout": [{"scriptPubKey": {"reqSigs": 1, "hex": "76a9146834cdf46d14c7ff7382373d7e7ab231f8c7fe7688ac", "addresses": ["1AVzXsakR8NqzLrSmshtwExboi8L8rfLnM"], "asm": "OP_DUP OP_HASH160 6834cdf46d14c7ff7382373d7e7ab231f8c7fe76 OP_EQUALVERIFY OP_CHECKSIG", "type": "pubkeyhash"}, "value": 0.00852996, "n": 0}], "hex": "0100000001a26e1e6bd9bc09545b3bb58973bbfff9622094841bb8b43679393168afb7a263000000006a47304402204e16bf282dd5753a66071b179cb4ac45a8ff648e1df8cc4d7246bec89603a70402207a55af2e348e77ba1ce4cd86d0ff934900ecd3b77e4ee7c538a6b8c8fae386d40121034f3cb9f148c49123bda7c5ef0abb14b33bc293d5233ceb0ecdfd1cedb3e5073cffffffff0104040d00000000001976a9146834cdf46d14c7ff7382373d7e7ab231f8c7fe7688ac00000000", "vin": [{"sequence": 4294967295, "scriptSig": {"hex": "47304402204e16bf282dd5753a66071b179cb4ac45a8ff648e1df8cc4d7246bec89603a70402207a55af2e348e77ba1ce4cd86d0ff934900ecd3b77e4ee7c538a6b8c8fae386d40121034f3cb9f148c49123bda7c5ef0abb14b33bc293d5233ceb0ecdfd1cedb3e5073c", "asm": "304402204e16bf282dd5753a66071b179cb4ac45a8ff648e1df8cc4d7246bec89603a70402207a55af2e348e77ba1ce4cd86d0ff934900ecd3b77e4ee7c538a6b8c8fae386d4[ALL] 034f3cb9f148c49123bda7c5ef0abb14b33bc293d5233ceb0ecdfd1cedb3e5073c"}, "vout": 0, "txid": "63a2b7af6831397936b4b81b84942062f9ffbb7389b53b5b5409bcd96b1e6ea2"}], "txid": "f55133d3bae5cd3dbc12c0a32ffc643e7ed98353614a3c1db8078f29df8893d8", "blocktime": 1537873891, "version": 1, "confirmations": 11478, "time": 1537873891, "locktime": 0, "vsize": 191, "size": 191}