{"hash": "f5547c79b798db96590826f65cafbcf5d660e43354b046a625ebc1fcd05e65b7", "blockhash": "0000000000000000000e13cef7c366c0283d82e591d1acd082e914b08063cdf1", "vout": [{"scriptPubKey": {"type": "nulldata", "hex": "6a146f6d6e69000000000000001f00000062f2efe5b9", "asm": "OP_RETURN 6f6d6e69000000000000001f00000062f2efe5b9"}, "value": 0.0, "n": 0}, {"scriptPubKey": {"reqSigs": 1, "hex": "76a9145703921e0f41a59ee186c1cd942b52505eff633488ac", "addresses": ["18w64nsB797kyPty5sUY6fHrCZuVuzziE1"], "asm": "OP_DUP OP_HASH160 5703921e0f41a59ee186c1cd942b52505eff6334 OP_EQUALVERIFY OP_CHECKSIG", "type": "pubkeyhash"}, "value": 5.46e-06, "n": 1}, {"scriptPubKey": {"reqSigs": 1, "hex": "76a91408180267ccb93246ed9c662fc07e8dace6db219988ac", "addresses": ["1joAjjRLzJNP8ZRJTJocu7AzrMuZKebx3"], "asm": "OP_DUP OP_HASH160 08180267ccb93246ed9c662fc07e8dace6db2199 OP_EQUALVERIFY OP_CHECKSIG", "type": "pubkeyhash"}, "value": 0.19270753, "n": 2}], "hex": "0100000001eedce05588a3e96786221fbccb685ea99d67b72f6a3183284235024bc92fe90e020000006b483045022100f2b666e63e59fa87f55f147ae3cc73fc52e95860501256f3bb65cdcc25b10f8f02205d4d43e19a7f9d309657beb88158c459551994422d53c9a74840bc7b7dec14b301210244d092dc6fe408e4ebaa834b94b188078f7b0477eb8c2086172cc94148026283feffffff030000000000000000166a146f6d6e69000000000000001f00000062f2efe5b922020000000000001976a9145703921e0f41a59ee186c1cd942b52505eff633488ac610c2601000000001976a91408180267ccb93246ed9c662fc07e8dace6db219988ac10490800", "vin": [{"sequence": 4294967294, "scriptSig": {"hex": "483045022100f2b666e63e59fa87f55f147ae3cc73fc52e95860501256f3bb65cdcc25b10f8f02205d4d43e19a7f9d309657beb88158c459551994422d53c9a74840bc7b7dec14b301210244d092dc6fe408e4ebaa834b94b188078f7b0477eb8c2086172cc94148026283", "asm": "3045022100f2b666e63e59fa87f55f147ae3cc73fc52e95860501256f3bb65cdcc25b10f8f02205d4d43e19a7f9d309657beb88158c459551994422d53c9a74840bc7b7dec14b3[ALL] 0244d092dc6fe408e4ebaa834b94b188078f7b0477eb8c2086172cc94148026283"}, "vout": 2, "txid": "0ee92fc94b0235422883316a2fb7679da95e68cbbc1f228667e9a38855e0dcee"}], "txid": "f5547c79b798db96590826f65cafbcf5d660e43354b046a625ebc1fcd05e65b7", "blocktime": 1537871767, "version": 1, "confirmations": 11493, "time": 1537871767, "locktime": 542992, "vsize": 257, "size": 257}