{"hash": "f5572d53f2cd838d34c6b5167be21f491826d753d961a75247d72d70c41af10d", "blockhash": "0000000000000000001f76057863aec43deb6fa401d9628bb513d65a8098bfab", "vout": [{"scriptPubKey": {"reqSigs": 1, "hex": "76a91493318f51f82605d3e44c65a651d5cb699d0cadfd88ac", "addresses": ["1ERHhgHttQLKR33CaUzo896xp1c6co9Gp2"], "asm": "OP_DUP OP_HASH160 93318f51f82605d3e44c65a651d5cb699d0cadfd OP_EQUALVERIFY OP_CHECKSIG", "type": "pubkeyhash"}, "value": 0.0006076, "n": 0}, {"scriptPubKey": {"type": "nulldata", "hex": "6a4c50000077dd0001df7f9b25c367783ad17e05127af8e8e963c7cfd5b95b23cc0f42c2fc38c574de08ad8eb88e5b1ec203ef39f6eff25baa161e06130a5f4f340673bc9a9526289ac0f6612cd74e33776ee4", "asm": "OP_RETURN 000077dd0001df7f9b25c367783ad17e05127af8e8e963c7cfd5b95b23cc0f42c2fc38c574de08ad8eb88e5b1ec203ef39f6eff25baa161e06130a5f4f340673bc9a9526289ac0f6612cd74e33776ee4"}, "value": 0.0, "n": 1}], "hex": "01000000015caa63e89f9b9cde4cb18f473070dca6dbc8e22c21f8e7ae5fafd1128470a8ab000000006a47304402201b7df41481e3e58d5f590e86c7aedcf5ed924a260afd5136e59c062e2ca228fb022026242adf49dfd5e35a056e14a8afefdbdafafe30ca551ee26593cf5ca66d113b012103d4227a67222b2a38f4d505f2dc4ae0edec01a9efe145cbd76565f6041d2f105affffffff0258ed0000000000001976a91493318f51f82605d3e44c65a651d5cb699d0cadfd88ac0000000000000000536a4c50000077dd0001df7f9b25c367783ad17e05127af8e8e963c7cfd5b95b23cc0f42c2fc38c574de08ad8eb88e5b1ec203ef39f6eff25baa161e06130a5f4f340673bc9a9526289ac0f6612cd74e33776ee400000000", "vin": [{"sequence": 4294967295, "scriptSig": {"hex": "47304402201b7df41481e3e58d5f590e86c7aedcf5ed924a260afd5136e59c062e2ca228fb022026242adf49dfd5e35a056e14a8afefdbdafafe30ca551ee26593cf5ca66d113b012103d4227a67222b2a38f4d505f2dc4ae0edec01a9efe145cbd76565f6041d2f105a", "asm": "304402201b7df41481e3e58d5f590e86c7aedcf5ed924a260afd5136e59c062e2ca228fb022026242adf49dfd5e35a056e14a8afefdbdafafe30ca551ee26593cf5ca66d113b[ALL] 03d4227a67222b2a38f4d505f2dc4ae0edec01a9efe145cbd76565f6041d2f105a"}, "vout": 0, "txid": "aba8708412d1af5faee7f8212ce2c8dba6dc7030478fb14cde9c9b9fe863aa5c"}], "txid": "f5572d53f2cd838d34c6b5167be21f491826d753d961a75247d72d70c41af10d", "blocktime": 1537873891, "version": 1, "confirmations": 11478, "time": 1537873891, "locktime": 0, "vsize": 283, "size": 283}