{"hash": "f55a089cba28261eb715af4cc2fd3741e19afd58a02e9bc672136c4bce7171a6", "blockhash": "000000000000000000022b45ed06c6f4ccd3cf7fb5ba4856ebd2e58215665228", "vout": [{"scriptPubKey": {"reqSigs": 1, "hex": "76a91401f950c02452649fc0953867d1d44fffeba69a6988ac", "addresses": ["1BSLw3KSvHpqgTwic5XSmyCGCVrWvSsBS"], "asm": "OP_DUP OP_HASH160 01f950c02452649fc0953867d1d44fffeba69a69 OP_EQUALVERIFY OP_CHECKSIG", "type": "pubkeyhash"}, "value": 0.00820209, "n": 0}, {"scriptPubKey": {"reqSigs": 1, "hex": "76a914aa099676987233ed220bb15a3ab0b743743fd92f88ac", "addresses": ["1GW5MnDJkFGFSPgSrekE2KZiLJjpGWTTxv"], "asm": "OP_DUP OP_HASH160 aa099676987233ed220bb15a3ab0b743743fd92f OP_EQUALVERIFY OP_CHECKSIG", "type": "pubkeyhash"}, "value": 0.374383, "n": 1}], "hex": "01000000017e94de307bfc9fa85f7f9657d53d647ed85f9444071fd312ddafda5398fb30f6010000006a473044022011b2d9ffec1b75a2d3d6d977a6cac623271a752347f3d827840b0c701e123bdc0220517c48af8733618762145829d0ea89064eaaae58b3dc2d21cb99363cb3ac3f7d012102043f1a665685ed69bc229f56d5b0169dfb88cb9fa94634151a9c125706434464ffffffff02f1830c00000000001976a91401f950c02452649fc0953867d1d44fffeba69a6988ac5c433b02000000001976a914aa099676987233ed220bb15a3ab0b743743fd92f88ac00000000", "vin": [{"sequence": 4294967295, "scriptSig": {"hex": "473044022011b2d9ffec1b75a2d3d6d977a6cac623271a752347f3d827840b0c701e123bdc0220517c48af8733618762145829d0ea89064eaaae58b3dc2d21cb99363cb3ac3f7d012102043f1a665685ed69bc229f56d5b0169dfb88cb9fa94634151a9c125706434464", "asm": "3044022011b2d9ffec1b75a2d3d6d977a6cac623271a752347f3d827840b0c701e123bdc0220517c48af8733618762145829d0ea89064eaaae58b3dc2d21cb99363cb3ac3f7d[ALL] 02043f1a665685ed69bc229f56d5b0169dfb88cb9fa94634151a9c125706434464"}, "vout": 1, "txid": "f630fb9853daafdd12d31f0744945fd87e643dd557967f5fa89ffc7b30de947e"}], "txid": "f55a089cba28261eb715af4cc2fd3741e19afd58a02e9bc672136c4bce7171a6", "blocktime": 1537869901, "version": 1, "confirmations": 11524, "time": 1537869901, "locktime": 0, "vsize": 225, "size": 225}