{"hash": "f55b192c4a9111bbb94d7b34134fe7d27779b92f24e57b8625080adeb8531ea3", "blockhash": "0000000000000000001cda96e906b7601b7a6fb1a3b62bca570a9e5d8f4b3de1", "vout": [{"scriptPubKey": {"type": "nulldata", "hex": "6a4c50000077d600013d397e1442baadab1ee11fa75b23cc0f42c2fc38c5e5bf9ae76da98a211ac24e26e5571bd9ae408f4f8470e7d7ab5baa15540612fa0ec1b9dc0f1d100759d4ba30d2c37bb011d97e02cf", "asm": "OP_RETURN 000077d600013d397e1442baadab1ee11fa75b23cc0f42c2fc38c5e5bf9ae76da98a211ac24e26e5571bd9ae408f4f8470e7d7ab5baa15540612fa0ec1b9dc0f1d100759d4ba30d2c37bb011d97e02cf"}, "value": 0.0, "n": 0}, {"scriptPubKey": {"reqSigs": 1, "hex": "76a91485b1dd4adf319eb2f767286d3ea6f8ac493e46de88ac", "addresses": ["1DBuwkWsaBPg6xESUehHU8K8MgyxrYRnhf"], "asm": "OP_DUP OP_HASH160 85b1dd4adf319eb2f767286d3ea6f8ac493e46de OP_EQUALVERIFY OP_CHECKSIG", "type": "pubkeyhash"}, "value": 0.00643145, "n": 1}], "hex": "0100000001834a5800ba5f4dd7565e379ccbc46dab0657facb789e48d09124d9584cfc384a010000006b483045022100b7707d04984a445d275eb9a11af906550465f7ef6625b005ec1aa5f0082356df0220747536841824272111690ed377dc4ae6eaa6628429aba7284d673e85eb1cbfbd012102afa171c2f397d12ebcd6a7669591e81ee8f63aec2536136abec86109fd78bb92ffffffff020000000000000000536a4c50000077d600013d397e1442baadab1ee11fa75b23cc0f42c2fc38c5e5bf9ae76da98a211ac24e26e5571bd9ae408f4f8470e7d7ab5baa15540612fa0ec1b9dc0f1d100759d4ba30d2c37bb011d97e02cf49d00900000000001976a91485b1dd4adf319eb2f767286d3ea6f8ac493e46de88ac00000000", "vin": [{"sequence": 4294967295, "scriptSig": {"hex": "483045022100b7707d04984a445d275eb9a11af906550465f7ef6625b005ec1aa5f0082356df0220747536841824272111690ed377dc4ae6eaa6628429aba7284d673e85eb1cbfbd012102afa171c2f397d12ebcd6a7669591e81ee8f63aec2536136abec86109fd78bb92", "asm": "3045022100b7707d04984a445d275eb9a11af906550465f7ef6625b005ec1aa5f0082356df0220747536841824272111690ed377dc4ae6eaa6628429aba7284d673e85eb1cbfbd[ALL] 02afa171c2f397d12ebcd6a7669591e81ee8f63aec2536136abec86109fd78bb92"}, "vout": 1, "txid": "4a38fc4c58d92491d0489e78cbfa5706ab6dc4cb9c375e56d74d5fba00584a83"}], "txid": "f55b192c4a9111bbb94d7b34134fe7d27779b92f24e57b8625080adeb8531ea3", "blocktime": 1537873282, "version": 1, "confirmations": 11484, "time": 1537873282, "locktime": 0, "vsize": 284, "size": 284}