{"hash": "953fb8fc0e38271d9dae4defe27f1429ac29737ba4b2496b70c5166f0a39bb45", "blockhash": "0000000000000000000dcc0f55137456b1a82d3642486a52398922ac4d620174", "vout": [{"scriptPubKey": {"reqSigs": 1, "hex": "0014732aabf3e54ee664d44888ef974e52b2a6d61a5b", "addresses": ["bc1qwv42hul9fmnxf4zg3rhewnjjk2ndvxjmvs8y99"], "asm": "0 732aabf3e54ee664d44888ef974e52b2a6d61a5b", "type": "witness_v0_keyhash"}, "value": 0.00112748, "n": 0}, {"scriptPubKey": {"reqSigs": 1, "hex": "76a914f462b7af838b76b363ec5bcd2157f2b98e01870788ac", "addresses": ["1PHC8paTFVCJatRUG8wW9qPrzSJfMgbPAm"], "asm": "OP_DUP OP_HASH160 f462b7af838b76b363ec5bcd2157f2b98e018707 OP_EQUALVERIFY OP_CHECKSIG", "type": "pubkeyhash"}, "value": 0.0114731, "n": 1}], "hex": "01000000000101bd199101147d78fdbc8e86726b3ccfdb696bc23d4322985035a0560976833ec10000000000ffffffff026cb8010000000000160014732aabf3e54ee664d44888ef974e52b2a6d61a5bae811100000000001976a914f462b7af838b76b363ec5bcd2157f2b98e01870788ac0247304402204c5598dab858d8e7c6b2984c4794c0a582b22cc6795789070ec04c533d5b9c1c022003376f412a909e4f5fff42733e962be86491ccf7db5526b5475879db2cbc84050121039136df73136986c05d7c62d0d5a49d93cd87089b98134838a3e4fc1a6bd4007900000000", "vin": [{"txinwitness": ["304402204c5598dab858d8e7c6b2984c4794c0a582b22cc6795789070ec04c533d5b9c1c022003376f412a909e4f5fff42733e962be86491ccf7db5526b5475879db2cbc840501", "039136df73136986c05d7c62d0d5a49d93cd87089b98134838a3e4fc1a6bd40079"], "sequence": 4294967295, "scriptSig": {"hex": "", "asm": ""}, "vout": 0, "txid": "c13e83760956a035509822433dc26b69dbcf3c6b72868ebcfd787d14019119bd"}], "txid": "f5644c61bc2828ce83915ae24875aba47c9830f0258636453b2d4892890c609f", "blocktime": 1537870268, "version": 1, "confirmations": 11518, "time": 1537870268, "locktime": 0, "vsize": 144, "size": 225}