{"hash": "f5679273219cbb46f078ebea5035daa8ef7b407697eed15597433efbed96b51b", "blockhash": "0000000000000000000e13cef7c366c0283d82e591d1acd082e914b08063cdf1", "vout": [{"scriptPubKey": {"reqSigs": 1, "hex": "a914622dde322159634dd80adc874d83bfbd9fe6556287", "addresses": ["3Ae96Jc4C5uu1a1DQfr2CRZJh7fF6LSkEa"], "asm": "OP_HASH160 622dde322159634dd80adc874d83bfbd9fe65562 OP_EQUAL", "type": "scripthash"}, "value": 0.02468069, "n": 0}, {"scriptPubKey": {"reqSigs": 1, "hex": "76a9148f93bb1fb3bb396690e8fac8e2514bb0eda0ab4788ac", "addresses": ["1E6AbxaeXHcgijPZU6JVWi8i3rRtZmxVWA"], "asm": "OP_DUP OP_HASH160 8f93bb1fb3bb396690e8fac8e2514bb0eda0ab47 OP_EQUALVERIFY OP_CHECKSIG", "type": "pubkeyhash"}, "value": 0.16457536, "n": 1}], "hex": "0100000001c9e8b1b0cb6c2fefddd90147a3701a655330f1642a91de10a04e54ae7296c0f2010000006b483045022100c4f15faee66b727db975988ebfd02234c171c61e3e27e7f2bd6ed6996399a52f022010972161feb0924d2278d4903eefd07f07212bb44f4cc9562be672e1121981ec0121038521b216ed7a355fca271c2b08b1c507a4df2c883d05e4fcc954811c23ddb47fffffffff02e5a825000000000017a914622dde322159634dd80adc874d83bfbd9fe6556287401ffb00000000001976a9148f93bb1fb3bb396690e8fac8e2514bb0eda0ab4788ac00000000", "vin": [{"sequence": 4294967295, "scriptSig": {"hex": "483045022100c4f15faee66b727db975988ebfd02234c171c61e3e27e7f2bd6ed6996399a52f022010972161feb0924d2278d4903eefd07f07212bb44f4cc9562be672e1121981ec0121038521b216ed7a355fca271c2b08b1c507a4df2c883d05e4fcc954811c23ddb47f", "asm": "3045022100c4f15faee66b727db975988ebfd02234c171c61e3e27e7f2bd6ed6996399a52f022010972161feb0924d2278d4903eefd07f07212bb44f4cc9562be672e1121981ec[ALL] 038521b216ed7a355fca271c2b08b1c507a4df2c883d05e4fcc954811c23ddb47f"}, "vout": 1, "txid": "f2c09672ae544ea010de912a64f13053651a70a34701d9ddef2f6ccbb0b1e8c9"}], "txid": "f5679273219cbb46f078ebea5035daa8ef7b407697eed15597433efbed96b51b", "blocktime": 1537871767, "version": 1, "confirmations": 11493, "time": 1537871767, "locktime": 0, "vsize": 224, "size": 224}