{"hash": "f568650f04ba1d2c0548170d1189e839ec14f4ff5312b8723a15968c41c68d5f", "blockhash": "00000000000000000004ffacab907a6b429b9a5745fa0b75af4234bf69dd7176", "vout": [{"scriptPubKey": {"reqSigs": 1, "hex": "76a91488c185a246ec4f53e08616e2dbc6ed956643ad3988ac", "addresses": ["1DU6jEZJ6nfcezFTnZoBuXEVXTkemndYZi"], "asm": "OP_DUP OP_HASH160 88c185a246ec4f53e08616e2dbc6ed956643ad39 OP_EQUALVERIFY OP_CHECKSIG", "type": "pubkeyhash"}, "value": 1.25481983, "n": 0}, {"scriptPubKey": {"reqSigs": 1, "hex": "76a914c95e51bb706375e780140af0f3aadca091cfbe3f88ac", "addresses": ["1KMjoyaLtm7txLyoMpxHqhjGQKPNPV29bU"], "asm": "OP_DUP OP_HASH160 c95e51bb706375e780140af0f3aadca091cfbe3f OP_EQUALVERIFY OP_CHECKSIG", "type": "pubkeyhash"}, "value": 2.367, "n": 1}], "hex": "0100000005790db7577e6c7ba578a29eadc97a87ceb25420f4af5c4cd382ba40e6427a0e3d000000006b483045022100e5d229be928e05c738e4de10b14be01290abf6081b0303724e4b0a7ffd9d7c0802202ecb6ab18c7b6e291d89a4d92bfb3267f1a2954f7b049eca16627aff972560e6012103f5d5e6f44259afa70d2099ae1cbbdf1f56eb3cc1f8ab729cfd44c00eb652ae87fffffffff718b4412e6de50ec26333b7483ef689c11a03a0d35c9013729458b101bbd967000000006a473044022029cfa92c099ba48a3ba3608822101036edfea1ec7f2a7ad329028d055e19e843022019c13fa4c376d7d2f220b21e715d029d2520212970face62dac2681b30d199010121037950ffe38cbea163e52df9e27423cfb49e6ce431ec4e77c3e427392d55d19301ffffffffe0cdc1650f18ffed86c94f9ab60965f48687af8069eb193cb9ed6b267d6e65ae010000006b483045022100891367f1cc858b86bb4a00050485753d53bba9fc9829d0268f42777bf48a96d102203831f55e1de5afeb3aaebf4f1d4c610feb5692f99e5f2993fbd1b3dce7256d41012102449fd186aaed5287b3b0e9dd9d0763349cbb29057d8c7ebc9edf7bafd3d6b9fbffffffff03f9caf2429a43c8f3e051aec20ca9ea7273a15bb0255cd327bbb73104d013d1000000006a4730440220656cc72c85cd948860a31887cdd94dddd6e0984cc505aa2127bbd14e3343d89c022002080c47c2119320b0d1055d709402a9603f561faece93dcb9bf509fef8e70360121030f0cc4803a0d45ee6f1a7e23e39049ed9e2c59b1b37e0d4d4817982c54c09afeffffffff9e9025f759f7a84fa1df5a830480b39d026545934fcbd10e1b758bff1e1796eb000000006a47304402200a517c9f1a036e5342b5f5558e9e625e890a54fef61d533b97a8618e2bfb5c7502206dc84ff8fe82e20d48e73a450716186a016532a12b7abda1d75ddc9564c6060d012102ead76a99111030cb2e75c782e6dd91b76ff4a1c4dbd6231de4c585e5af0197fcffffffff02ffb37a07000000001976a91488c185a246ec4f53e08616e2dbc6ed956643ad3988ac60c11b0e000000001976a914c95e51bb706375e780140af0f3aadca091cfbe3f88ac00000000", "vin": [{"sequence": 4294967295, "scriptSig": {"hex": "483045022100e5d229be928e05c738e4de10b14be01290abf6081b0303724e4b0a7ffd9d7c0802202ecb6ab18c7b6e291d89a4d92bfb3267f1a2954f7b049eca16627aff972560e6012103f5d5e6f44259afa70d2099ae1cbbdf1f56eb3cc1f8ab729cfd44c00eb652ae87", "asm": "3045022100e5d229be928e05c738e4de10b14be01290abf6081b0303724e4b0a7ffd9d7c0802202ecb6ab18c7b6e291d89a4d92bfb3267f1a2954f7b049eca16627aff972560e6[ALL] 03f5d5e6f44259afa70d2099ae1cbbdf1f56eb3cc1f8ab729cfd44c00eb652ae87"}, "vout": 0, "txid": "3d0e7a42e640ba82d34c5caff42054b2ce877ac9ad9ea278a57b6c7e57b70d79"}, {"sequence": 4294967295, "scriptSig": {"hex": "473044022029cfa92c099ba48a3ba3608822101036edfea1ec7f2a7ad329028d055e19e843022019c13fa4c376d7d2f220b21e715d029d2520212970face62dac2681b30d199010121037950ffe38cbea163e52df9e27423cfb49e6ce431ec4e77c3e427392d55d19301", "asm": "3044022029cfa92c099ba48a3ba3608822101036edfea1ec7f2a7ad329028d055e19e843022019c13fa4c376d7d2f220b21e715d029d2520212970face62dac2681b30d19901[ALL] 037950ffe38cbea163e52df9e27423cfb49e6ce431ec4e77c3e427392d55d19301"}, "vout": 0, "txid": "67d9bb01b158947213905cd3a0031ac189f63e48b73363c20ee56d2e41b418f7"}, {"sequence": 4294967295, "scriptSig": {"hex": "483045022100891367f1cc858b86bb4a00050485753d53bba9fc9829d0268f42777bf48a96d102203831f55e1de5afeb3aaebf4f1d4c610feb5692f99e5f2993fbd1b3dce7256d41012102449fd186aaed5287b3b0e9dd9d0763349cbb29057d8c7ebc9edf7bafd3d6b9fb", "asm": "3045022100891367f1cc858b86bb4a00050485753d53bba9fc9829d0268f42777bf48a96d102203831f55e1de5afeb3aaebf4f1d4c610feb5692f99e5f2993fbd1b3dce7256d41[ALL] 02449fd186aaed5287b3b0e9dd9d0763349cbb29057d8c7ebc9edf7bafd3d6b9fb"}, "vout": 1, "txid": "ae656e7d266bedb93c19eb6980af8786f46509b69a4fc986edff180f65c1cde0"}, {"sequence": 4294967295, "scriptSig": {"hex": "4730440220656cc72c85cd948860a31887cdd94dddd6e0984cc505aa2127bbd14e3343d89c022002080c47c2119320b0d1055d709402a9603f561faece93dcb9bf509fef8e70360121030f0cc4803a0d45ee6f1a7e23e39049ed9e2c59b1b37e0d4d4817982c54c09afe", "asm": "30440220656cc72c85cd948860a31887cdd94dddd6e0984cc505aa2127bbd14e3343d89c022002080c47c2119320b0d1055d709402a9603f561faece93dcb9bf509fef8e7036[ALL] 030f0cc4803a0d45ee6f1a7e23e39049ed9e2c59b1b37e0d4d4817982c54c09afe"}, "vout": 0, "txid": "d113d00431b7bb27d35c25b05ba17372eaa90cc2ae51e0f3c8439a42f2caf903"}, {"sequence": 4294967295, "scriptSig": {"hex": "47304402200a517c9f1a036e5342b5f5558e9e625e890a54fef61d533b97a8618e2bfb5c7502206dc84ff8fe82e20d48e73a450716186a016532a12b7abda1d75ddc9564c6060d012102ead76a99111030cb2e75c782e6dd91b76ff4a1c4dbd6231de4c585e5af0197fc", "asm": "304402200a517c9f1a036e5342b5f5558e9e625e890a54fef61d533b97a8618e2bfb5c7502206dc84ff8fe82e20d48e73a450716186a016532a12b7abda1d75ddc9564c6060d[ALL] 02ead76a99111030cb2e75c782e6dd91b76ff4a1c4dbd6231de4c585e5af0197fc"}, "vout": 0, "txid": "eb96171eff8b751b0ed1cb4f934565029db38004835adfa14fa8f759f725909e"}], "txid": "f568650f04ba1d2c0548170d1189e839ec14f4ff5312b8723a15968c41c68d5f", "blocktime": 1537875543, "version": 1, "confirmations": 11464, "time": 1537875543, "locktime": 0, "vsize": 815, "size": 815}