{"hash": "9e7ac8494c3167b811859e92a904084ecfd14003998f803dab3d41c2985e6be1", "blockhash": "000000000000000000022b45ed06c6f4ccd3cf7fb5ba4856ebd2e58215665228", "vout": [{"scriptPubKey": {"reqSigs": 1, "hex": "a914ee49f9040e0a3db98687dc839b79b2c82cbde19487", "addresses": ["3PQyMuxo4RqtxWxzxu7muEQZrKDgKe6TAf"], "asm": "OP_HASH160 ee49f9040e0a3db98687dc839b79b2c82cbde194 OP_EQUAL", "type": "scripthash"}, "value": 0.0057656, "n": 0}, {"scriptPubKey": {"reqSigs": 1, "hex": "a914a7347d9c2117cc209dcbcace18fb7b968ba7ceb187", "addresses": ["3Gw7ehF9nedet4cMP71Ki4jxrMBy1wkhrb"], "asm": "OP_HASH160 a7347d9c2117cc209dcbcace18fb7b968ba7ceb1 OP_EQUAL", "type": "scripthash"}, "value": 0.0031816, "n": 1}, {"scriptPubKey": {"reqSigs": 1, "hex": "76a91443f78969c8de522af82cf22b2977cfeab8cc5f3688ac", "addresses": ["17CNp1XAWCnq8Cwdp42nATHt65bQ22vgHS"], "asm": "OP_DUP OP_HASH160 43f78969c8de522af82cf22b2977cfeab8cc5f36 OP_EQUALVERIFY OP_CHECKSIG", "type": "pubkeyhash"}, "value": 0.00237808, "n": 2}, {"scriptPubKey": {"reqSigs": 1, "hex": "76a91473f74e3f85211368bee96e39a52329eb3b4a0e7588ac", "addresses": ["1BaAyAD6dC6HSDjC1tHw9REUj4ytB8BYjU"], "asm": "OP_DUP OP_HASH160 73f74e3f85211368bee96e39a52329eb3b4a0e75 OP_EQUALVERIFY OP_CHECKSIG", "type": "pubkeyhash"}, "value": 0.00223281, "n": 3}, {"scriptPubKey": {"reqSigs": 1, "hex": "a9146c2648986837651e2fc1a9ba8884a422c940434387", "addresses": ["3BYrmFWHSW3wnAJR3EGbFZXCvLNJB7Y57X"], "asm": "OP_HASH160 6c2648986837651e2fc1a9ba8884a422c9404343 OP_EQUAL", "type": "scripthash"}, "value": 0.003, "n": 4}, {"scriptPubKey": {"reqSigs": 1, "hex": "a914291245c785b8b8c0f356f2994df413234de1e2eb87", "addresses": ["35SBX1WcZFX7cDMPbWvpUHxvNUDypFU847"], "asm": "OP_HASH160 291245c785b8b8c0f356f2994df413234de1e2eb OP_EQUAL", "type": "scripthash"}, "value": 0.0018156, "n": 5}, {"scriptPubKey": {"reqSigs": 1, "hex": "a9143976ccdca4defd4eebc8d2784331cf1ae26df6de87", "addresses": ["36vrks3PHCekG36dosj1nM2VjZvsc7g5N8"], "asm": "OP_HASH160 3976ccdca4defd4eebc8d2784331cf1ae26df6de OP_EQUAL", "type": "scripthash"}, "value": 0.00250823, "n": 6}, {"scriptPubKey": {"reqSigs": 1, "hex": "a9144fea7bdd099d6b3a39d0a1b779a39f422025567d87", "addresses": ["38yaCvPTsFj9wxqr5gh8oMr4kWw2Sm6myH"], "asm": "OP_HASH160 4fea7bdd099d6b3a39d0a1b779a39f422025567d OP_EQUAL", "type": "scripthash"}, "value": 0.0023436, "n": 7}, {"scriptPubKey": {"reqSigs": 1, "hex": "a9140e9ea803f0b6efacbf3d3b456765f5d29a37ad4887", "addresses": ["332KSs1bskwqyLgrPqp5pB3MAuxmQ1Sg2p"], "asm": "OP_HASH160 0e9ea803f0b6efacbf3d3b456765f5d29a37ad48 OP_EQUAL", "type": "scripthash"}, "value": 0.00015753, "n": 8}, {"scriptPubKey": {"reqSigs": 1, "hex": "a9142ec79c7d3a602b4fbce06ac660ad6a1704de877587", "addresses": ["35xN8bwYLG85PVeWNcrmNwJRyVoorP6dxU"], "asm": "OP_HASH160 2ec79c7d3a602b4fbce06ac660ad6a1704de8775 OP_EQUAL", "type": "scripthash"}, "value": 0.0022786, "n": 9}, {"scriptPubKey": {"reqSigs": 1, "hex": "a914262a7abc4a1e1b44784bc1d96ff5044e1d3371b287", "addresses": ["35ApVMcdjrSqyv1N5nZFmYaUVfK9Dkz8nG"], "asm": "OP_HASH160 262a7abc4a1e1b44784bc1d96ff5044e1d3371b2 OP_EQUAL", "type": "scripthash"}, "value": 1.98831115, "n": 10}, {"scriptPubKey": {"reqSigs": 1, "hex": "a914169399b6bc09639d064ac36fba64320218c8b3b787", "addresses": ["33kPcDsRKuQQDP6Ek3D9N3DnLFSPUSGNAz"], "asm": "OP_HASH160 169399b6bc09639d064ac36fba64320218c8b3b7 OP_EQUAL", "type": "scripthash"}, "value": 0.0025326, "n": 11}, {"scriptPubKey": {"reqSigs": 1, "hex": "a9146eef915ac3b50bdc891ef173572e4bdb865282d787", "addresses": ["3BobF7AMuu5zaiShaqQvrz1vEVUqHAh9HT"], "asm": "OP_HASH160 6eef915ac3b50bdc891ef173572e4bdb865282d7 OP_EQUAL", "type": "scripthash"}, "value": 0.0029826, "n": 12}, {"scriptPubKey": {"reqSigs": 1, "hex": "a9149e417b30b0a06f0840c81e4d8c5774a14756945e87", "addresses": ["3G7o8Zrgp6p4qDysEbVZAFPgnJc7EN5rSb"], "asm": "OP_HASH160 9e417b30b0a06f0840c81e4d8c5774a14756945e OP_EQUAL", "type": "scripthash"}, "value": 0.00181775, "n": 13}, {"scriptPubKey": {"reqSigs": 1, "hex": "76a91422d19b749f3ace9b6698aed33de3e306a524585088ac", "addresses": ["14B75HmkFGG3KMpPEkV1WhyYP8hR2DUocv"], "asm": "OP_DUP OP_HASH160 22d19b749f3ace9b6698aed33de3e306a5245850 OP_EQUALVERIFY OP_CHECKSIG", "type": "pubkeyhash"}, "value": 0.00221522, "n": 14}, {"scriptPubKey": {"reqSigs": 1, "hex": "a914592111394f542ac344be47b2d9c680dedf6aee2987", "addresses": ["39pHgAuXsF3YkHZCVsFTK8d2V5gDZuwd9B"], "asm": "OP_HASH160 592111394f542ac344be47b2d9c680dedf6aee29 OP_EQUAL", "type": "scripthash"}, "value": 0.00264786, "n": 15}, {"scriptPubKey": {"reqSigs": 1, "hex": "a91478c743b20de42d6ea02f4e7c870d03bb4ba7081887", "addresses": ["3ChdihW5DR8zy7dpkDeMYCvEVH864V8cF2"], "asm": "OP_HASH160 78c743b20de42d6ea02f4e7c870d03bb4ba70818 OP_EQUAL", "type": "scripthash"}, "value": 0.0028406, "n": 16}, {"scriptPubKey": {"reqSigs": 1, "hex": "76a914bbbd45db4553c3264d96585c2209d20a5018cd5b88ac", "addresses": ["1J7g6nNnQKETFfVbqLcM4NN2QEByto9svr"], "asm": "OP_DUP OP_HASH160 bbbd45db4553c3264d96585c2209d20a5018cd5b OP_EQUALVERIFY OP_CHECKSIG", "type": "pubkeyhash"}, "value": 0.00238657, "n": 17}, {"scriptPubKey": {"reqSigs": 1, "hex": "a914685cc8b1e91a7ccd5ec59d76925b1aa673c400f787", "addresses": ["3BCqMEhXwSxbjLJ4P1zFbwhi7fkpMT7xYF"], "asm": "OP_HASH160 685cc8b1e91a7ccd5ec59d76925b1aa673c400f7 OP_EQUAL", "type": "scripthash"}, "value": 0.0051382, "n": 18}, {"scriptPubKey": {"reqSigs": 1, "hex": "76a9149e0a3804706f2c97edeb7cb8bbfdaaab54d1b2df88ac", "addresses": ["1FQe1KrfsnBRLfDcjo5tvYWV5815PGMrp5"], "asm": "OP_DUP OP_HASH160 9e0a3804706f2c97edeb7cb8bbfdaaab54d1b2df OP_EQUALVERIFY OP_CHECKSIG", "type": "pubkeyhash"}, "value": 0.00182, "n": 19}, {"scriptPubKey": {"reqSigs": 1, "hex": "76a91434183d95740bb7a2075506af8de7a4e6c2dac98d88ac", "addresses": ["15kTBErncYBtoxtB33h89hA2euhRMe1MqR"], "asm": "OP_DUP OP_HASH160 34183d95740bb7a2075506af8de7a4e6c2dac98d OP_EQUALVERIFY OP_CHECKSIG", "type": "pubkeyhash"}, "value": 0.00337421, "n": 20}], "hex": "02000000000101ea78916916e332db4845511f43328b222184a1a09c93d2a7ff795c57e46c903915000000171600142fbf1f6bc26667b2aa0d4c0250905e33bd9b4ac2feffffff1530cc08000000000017a914ee49f9040e0a3db98687dc839b79b2c82cbde19487d0da04000000000017a914a7347d9c2117cc209dcbcace18fb7b968ba7ceb187f0a00300000000001976a91443f78969c8de522af82cf22b2977cfeab8cc5f3688ac31680300000000001976a91473f74e3f85211368bee96e39a52329eb3b4a0e7588ace09304000000000017a9146c2648986837651e2fc1a9ba8884a422c94043438738c502000000000017a914291245c785b8b8c0f356f2994df413234de1e2eb87c7d303000000000017a9143976ccdca4defd4eebc8d2784331cf1ae26df6de87789303000000000017a9144fea7bdd099d6b3a39d0a1b779a39f422025567d87893d00000000000017a9140e9ea803f0b6efacbf3d3b456765f5d29a37ad4887147a03000000000017a9142ec79c7d3a602b4fbce06ac660ad6a1704de8775870becd90b0000000017a914262a7abc4a1e1b44784bc1d96ff5044e1d3371b2874cdd03000000000017a914169399b6bc09639d064ac36fba64320218c8b3b787148d04000000000017a9146eef915ac3b50bdc891ef173572e4bdb865282d7870fc602000000000017a9149e417b30b0a06f0840c81e4d8c5774a14756945e8752610300000000001976a91422d19b749f3ace9b6698aed33de3e306a524585088ac520a04000000000017a914592111394f542ac344be47b2d9c680dedf6aee29879c5504000000000017a91478c743b20de42d6ea02f4e7c870d03bb4ba708188741a40300000000001976a914bbbd45db4553c3264d96585c2209d20a5018cd5b88ac1cd707000000000017a914685cc8b1e91a7ccd5ec59d76925b1aa673c400f787f0c60200000000001976a9149e0a3804706f2c97edeb7cb8bbfdaaab54d1b2df88ac0d260500000000001976a91434183d95740bb7a2075506af8de7a4e6c2dac98d88ac02483045022100a45266a3c82b95a4889162c43cf128bb70d63976b8ba839b3651271fe475debe02207b99dde45609c2767feeb0f7cf0facc139e5f2707496f2f6e03f851568f3c649012102232bd40820651e89d78a7f24247cb98841835bbc13138d809197710a2c0bd4570b490800", "vin": [{"txinwitness": ["3045022100a45266a3c82b95a4889162c43cf128bb70d63976b8ba839b3651271fe475debe02207b99dde45609c2767feeb0f7cf0facc139e5f2707496f2f6e03f851568f3c64901", "02232bd40820651e89d78a7f24247cb98841835bbc13138d809197710a2c0bd457"], "sequence": 4294967294, "scriptSig": {"hex": "1600142fbf1f6bc26667b2aa0d4c0250905e33bd9b4ac2", "asm": "00142fbf1f6bc26667b2aa0d4c0250905e33bd9b4ac2"}, "vout": 21, "txid": "39906ce4575c79ffa7d2939ca0a18421228b32431f514548db32e316699178ea"}], "txid": "f56b4125f9555247a838e0206444a31b71baa65cdb672d309d8b606be12bf39e", "blocktime": 1537869901, "version": 2, "confirmations": 11522, "time": 1537869901, "locktime": 542987, "vsize": 786, "size": 868}