{"hash": "f56d7068dffd183e89283ac563db9a12e0981eb658531eae54011750e5c1f44c", "blockhash": "0000000000000000001f76057863aec43deb6fa401d9628bb513d65a8098bfab", "vout": [{"scriptPubKey": {"reqSigs": 1, "hex": "76a91414269b2d2f7935e8934a9becc00f4564a98cb9bd88ac", "addresses": ["12qYmEthoKUjG6WZETd6ZcBcXWfQG8w8BC"], "asm": "OP_DUP OP_HASH160 14269b2d2f7935e8934a9becc00f4564a98cb9bd OP_EQUALVERIFY OP_CHECKSIG", "type": "pubkeyhash"}, "value": 0.00106113, "n": 0}, {"scriptPubKey": {"reqSigs": 1, "hex": "76a914ca17ccd3221cb124662dca7dea159eb8f47fe7cf88ac", "addresses": ["1KRa1QkPZYoHw8UkNkrjX5qQfdyy2V6BPj"], "asm": "OP_DUP OP_HASH160 ca17ccd3221cb124662dca7dea159eb8f47fe7cf OP_EQUALVERIFY OP_CHECKSIG", "type": "pubkeyhash"}, "value": 0.00468199, "n": 1}], "hex": "010000000131ba99fb39ce9720c66a6c9ce8cdc980b8dd0b1cd0de024d7d20c8c2b36e1f30000000006b483045022100b5d283e849f7f92a27ee720108b61f35a83db2bf1ee8e576af66b6730096bbeb02200b03904727acafc0fcb335f286e23bff397026aef16e9dd425ae905146e140aa0121034a47802294dafde406f36d62c4534796bfdbe42aa4e8520aa52036e0aabe0124ffffffff02819e0100000000001976a91414269b2d2f7935e8934a9becc00f4564a98cb9bd88ace7240700000000001976a914ca17ccd3221cb124662dca7dea159eb8f47fe7cf88ac00000000", "vin": [{"sequence": 4294967295, "scriptSig": {"hex": "483045022100b5d283e849f7f92a27ee720108b61f35a83db2bf1ee8e576af66b6730096bbeb02200b03904727acafc0fcb335f286e23bff397026aef16e9dd425ae905146e140aa0121034a47802294dafde406f36d62c4534796bfdbe42aa4e8520aa52036e0aabe0124", "asm": "3045022100b5d283e849f7f92a27ee720108b61f35a83db2bf1ee8e576af66b6730096bbeb02200b03904727acafc0fcb335f286e23bff397026aef16e9dd425ae905146e140aa[ALL] 034a47802294dafde406f36d62c4534796bfdbe42aa4e8520aa52036e0aabe0124"}, "vout": 0, "txid": "301f6eb3c2c8207d4d02ded01c0bddb880c9cde89c6c6ac62097ce39fb99ba31"}], "txid": "f56d7068dffd183e89283ac563db9a12e0981eb658531eae54011750e5c1f44c", "blocktime": 1537873891, "version": 1, "confirmations": 11478, "time": 1537873891, "locktime": 0, "vsize": 226, "size": 226}