{"hash": "f57094fd68516215200b388a409380a6d36428f6bc1460571278ea856143d3c2", "blockhash": "0000000000000000001e0dab787dd257d1dbfcb92a98c2207d5e1078be1f4165", "vout": [{"scriptPubKey": {"reqSigs": 1, "hex": "76a91447d6acce2ae0975d6f42137cbdd4211a4a54f90c88ac", "addresses": ["17Yr9W7QDGWLV2WRjzzkdDQ2YqjyuRVvFJ"], "asm": "OP_DUP OP_HASH160 47d6acce2ae0975d6f42137cbdd4211a4a54f90c OP_EQUALVERIFY OP_CHECKSIG", "type": "pubkeyhash"}, "value": 0.031246, "n": 0}, {"scriptPubKey": {"reqSigs": 1, "hex": "76a914770a49a44ef67851fbddf5e1fbc6c1a070b88e6488ac", "addresses": ["1BrRjdNv3hw8n8YHQiVCfzCYfwjJvsDSKc"], "asm": "OP_DUP OP_HASH160 770a49a44ef67851fbddf5e1fbc6c1a070b88e64 OP_EQUALVERIFY OP_CHECKSIG", "type": "pubkeyhash"}, "value": 0.16377367, "n": 1}], "hex": "0100000001b2895e6b6457b50de3316afe667875c662d7296ce9f53b3d8ae03ccb74320d90000000006b483045022100da4fb1daf7b87891e2e0c5ad198446212a336578ac38a2032b1655b21c59fe5d02206bb28c1ba741babc0dbd6645fcf8212074f124b8ee361190b9d297bd4d2e282d01210260b5c1ed3b36c59142026431f84fd92299e2e0f3e4cb9d88aca54d18f12ba553ffffffff0278ad2f00000000001976a91447d6acce2ae0975d6f42137cbdd4211a4a54f90c88ac17e6f900000000001976a914770a49a44ef67851fbddf5e1fbc6c1a070b88e6488ac00000000", "vin": [{"sequence": 4294967295, "scriptSig": {"hex": "483045022100da4fb1daf7b87891e2e0c5ad198446212a336578ac38a2032b1655b21c59fe5d02206bb28c1ba741babc0dbd6645fcf8212074f124b8ee361190b9d297bd4d2e282d01210260b5c1ed3b36c59142026431f84fd92299e2e0f3e4cb9d88aca54d18f12ba553", "asm": "3045022100da4fb1daf7b87891e2e0c5ad198446212a336578ac38a2032b1655b21c59fe5d02206bb28c1ba741babc0dbd6645fcf8212074f124b8ee361190b9d297bd4d2e282d[ALL] 0260b5c1ed3b36c59142026431f84fd92299e2e0f3e4cb9d88aca54d18f12ba553"}, "vout": 0, "txid": "900d3274cb3ce08a3d3bf5e96c29d762c6757866fe6a31e30db557646b5e89b2"}], "txid": "f57094fd68516215200b388a409380a6d36428f6bc1460571278ea856143d3c2", "blocktime": 1537872475, "version": 1, "confirmations": 11486, "time": 1537872475, "locktime": 0, "vsize": 226, "size": 226}