{"hash": "f572e71be220de4a4e786b5567e39d27a86377ccbd3c0c5b7648eba3a7a10942", "blockhash": "0000000000000000001f76057863aec43deb6fa401d9628bb513d65a8098bfab", "vout": [{"scriptPubKey": {"reqSigs": 1, "hex": "76a9149bcf0b778beab5f9f8e87e75e8d8060a75e5dbe188ac", "addresses": ["1FCqmTa8NuFUBsMHDUEYbAFZs94x47qb1Y"], "asm": "OP_DUP OP_HASH160 9bcf0b778beab5f9f8e87e75e8d8060a75e5dbe1 OP_EQUALVERIFY OP_CHECKSIG", "type": "pubkeyhash"}, "value": 0.00156091, "n": 0}, {"scriptPubKey": {"reqSigs": 1, "hex": "76a914191a0cd4b97f6820c4876a6e4606a871cf56ab3088ac", "addresses": ["13Hj6npCfgZZm6q2boUKEiNmCsokhqUxLz"], "asm": "OP_DUP OP_HASH160 191a0cd4b97f6820c4876a6e4606a871cf56ab30 OP_EQUALVERIFY OP_CHECKSIG", "type": "pubkeyhash"}, "value": 0.01661159, "n": 1}], "hex": "0100000001c85071db37c32093c01fb285dc8480bb4ee3cecbd2dbc0289d74e1817c7957bd010000006b483045022100aad1c2e14bcd8457e9da38a92f51d9ed94d3e0b0fd2c7be3dcc2e925d24ff9ba022044595feea604720ebc6d573367473325ec8e85ef69b60aa5db884bda42deff0f012103e665a60475b65c1e8a0c4849a7c49fa13262be5b954cb8c9937abf2b294cdc96ffffffff02bb610200000000001976a9149bcf0b778beab5f9f8e87e75e8d8060a75e5dbe188ace7581900000000001976a914191a0cd4b97f6820c4876a6e4606a871cf56ab3088ac00000000", "vin": [{"sequence": 4294967295, "scriptSig": {"hex": "483045022100aad1c2e14bcd8457e9da38a92f51d9ed94d3e0b0fd2c7be3dcc2e925d24ff9ba022044595feea604720ebc6d573367473325ec8e85ef69b60aa5db884bda42deff0f012103e665a60475b65c1e8a0c4849a7c49fa13262be5b954cb8c9937abf2b294cdc96", "asm": "3045022100aad1c2e14bcd8457e9da38a92f51d9ed94d3e0b0fd2c7be3dcc2e925d24ff9ba022044595feea604720ebc6d573367473325ec8e85ef69b60aa5db884bda42deff0f[ALL] 03e665a60475b65c1e8a0c4849a7c49fa13262be5b954cb8c9937abf2b294cdc96"}, "vout": 1, "txid": "bd57797c81e1749d28c0dbd2cbcee34ebb8084dc85b21fc09320c337db7150c8"}], "txid": "f572e71be220de4a4e786b5567e39d27a86377ccbd3c0c5b7648eba3a7a10942", "blocktime": 1537873891, "version": 1, "confirmations": 11478, "time": 1537873891, "locktime": 0, "vsize": 226, "size": 226}