{"hash": "f57758afae2c51e2a6ca6ece9995e2498a7fd57bfaaca1fe492eb2fa35469b0c", "blockhash": "0000000000000000001cda96e906b7601b7a6fb1a3b62bca570a9e5d8f4b3de1", "vout": [{"scriptPubKey": {"reqSigs": 1, "hex": "76a914a78de478a9c96a54291539d12ccc359e24bf11b288ac", "addresses": ["1GGwpu2jc747qT5XdD4moR426WQnrnVkr1"], "asm": "OP_DUP OP_HASH160 a78de478a9c96a54291539d12ccc359e24bf11b2 OP_EQUALVERIFY OP_CHECKSIG", "type": "pubkeyhash"}, "value": 2.882e-05, "n": 0}, {"scriptPubKey": {"reqSigs": 1, "hex": "a914ecd992c6c18cde03e940c0fa8ddc09bdb59776fa87", "addresses": ["3PHN35QZYEDBMr5YAkymnXMN4gLf4YdAyi"], "asm": "OP_HASH160 ecd992c6c18cde03e940c0fa8ddc09bdb59776fa OP_EQUAL", "type": "scripthash"}, "value": 0.00546287, "n": 1}], "hex": "01000000084feb285a06c028a7e4304b61616df5826145a8b1b4ce4b533da085b121e6500d000000006b4830450221009aaf8d3a40b235f6dce66e123ad4fc9acc9802bb686f9dd1f3f1dacb54334941022049620d36fb29f53f9fc199bb605b24d5a847e9553ecfb867c1c956125e0cf5e6012102ec2ca26bf77a30f5f62798d6bc7a726a2f0ba69499574dea4219ab9bf5e04126ffffffff56101614aa9fe533c45074c8f9522dd72b3fac94aac0ee368226b8d3cdcfe244000000006b483045022100b5b37275e2f9f015df7b1d625c8fae67e14f07972396278c37c11b775e513f5f0220381814548caa30e6c1809b8c471d85eb32c97fd2f19a49c5deeb5e788a13355d01210223b5e5ee58cc491886b127f8737a258c188d2afad068132a3016e044db98119affffffff5d293ba14cea29cc1f9bc97f042363505221d36dbfa5b3d075c0d3811ba859a7000000006a473044022100bf68a7e8cc1a08d9e0c5c48ed81c891973d5b34ccf1746099622dc8b0128a86d021f06a98a257e055aae8aa17d4adcfab47a8281757d3b6bcca9b23741d38cb93301210359704c47fbad03c408d227c4aade88de8840b92b48e60fdd81c2ee30ee4faac1ffffffffea849d24a404fb0bcf42c384d64b63dd4e2d755988151a9cee461789633910ac000000006a47304402201c8f644be91b267bcb6d643a6fa6aa37c950a2166886e252071710e597098c5b02206acc3ad3303dced375d8c64d0717b4f389fb779dd3c7a31380758971ef4e15b6012102382f31d9493fa36e4a73daa47218d97a5aaf1116fd8a718b3dc775d20d9c8207ffffffffbb0e7290385781353b5537cf81c96a6ddd57e2bc870a746a6659724a75cb99c5000000006a473044022068df733f9800df321e231d79059d507523b6fb7b99b002ea05e73eb081a1341202202fc91eef12e78008b00c278a67f3e5fe392a131458df9dc03880aa2fd84a762f012102ec2ca26bf77a30f5f62798d6bc7a726a2f0ba69499574dea4219ab9bf5e04126ffffffff7908d42c3f1de43d80d14c5569663dc3978829955626403388cb745f837135e4000000006b483045022100e69eb8e50d71abccaadc19febee65a28efe615986cf6c1da927971b405b43a0f0220493dad079d0515dae774fe6123d29165589389aefb46352bd5e710603a465248012102ec2ca26bf77a30f5f62798d6bc7a726a2f0ba69499574dea4219ab9bf5e04126ffffffff83b259254af79c8dcf1632546695f62a2d4ec947abd9bb223fb22e5cb8ff36eb000000006b483045022100d99cba20805bee3714cce548de075cc050b8b86598f01743e8fae292c88a337102200bf838c5f3040f5295b77759dd60889f671e7a6cf146684280331db52569773a012103f7c9af975905e1a3fe7b95b9872e41baa17838e091cf404e6b8d3c0229e63f82ffffffffd8d51d4bdbdfd2df1e55104e39c6f9ec9a203ac45c3ad5e94b84097d6dd357f6000000006b4830450221009a25b82b6df37ee4197c26665628a1962e9ab55907b44e67f6e1b2b7048cb237022032292ee127a1de3305ae088af3da3b8c21debcad144a7ccc6c536866953fbf94012102ec2ca26bf77a30f5f62798d6bc7a726a2f0ba69499574dea4219ab9bf5e04126ffffffff02420b0000000000001976a914a78de478a9c96a54291539d12ccc359e24bf11b288acef5508000000000017a914ecd992c6c18cde03e940c0fa8ddc09bdb59776fa8700000000", "vin": [{"sequence": 4294967295, "scriptSig": {"hex": "4830450221009aaf8d3a40b235f6dce66e123ad4fc9acc9802bb686f9dd1f3f1dacb54334941022049620d36fb29f53f9fc199bb605b24d5a847e9553ecfb867c1c956125e0cf5e6012102ec2ca26bf77a30f5f62798d6bc7a726a2f0ba69499574dea4219ab9bf5e04126", "asm": "30450221009aaf8d3a40b235f6dce66e123ad4fc9acc9802bb686f9dd1f3f1dacb54334941022049620d36fb29f53f9fc199bb605b24d5a847e9553ecfb867c1c956125e0cf5e6[ALL] 02ec2ca26bf77a30f5f62798d6bc7a726a2f0ba69499574dea4219ab9bf5e04126"}, "vout": 0, "txid": "0d50e621b185a03d534bceb4b1a8456182f56d61614b30e4a728c0065a28eb4f"}, {"sequence": 4294967295, "scriptSig": {"hex": "483045022100b5b37275e2f9f015df7b1d625c8fae67e14f07972396278c37c11b775e513f5f0220381814548caa30e6c1809b8c471d85eb32c97fd2f19a49c5deeb5e788a13355d01210223b5e5ee58cc491886b127f8737a258c188d2afad068132a3016e044db98119a", "asm": "3045022100b5b37275e2f9f015df7b1d625c8fae67e14f07972396278c37c11b775e513f5f0220381814548caa30e6c1809b8c471d85eb32c97fd2f19a49c5deeb5e788a13355d[ALL] 0223b5e5ee58cc491886b127f8737a258c188d2afad068132a3016e044db98119a"}, "vout": 0, "txid": "44e2cfcdd3b8268236eec0aa94ac3f2bd72d52f9c87450c433e59faa14161056"}, {"sequence": 4294967295, "scriptSig": {"hex": "473044022100bf68a7e8cc1a08d9e0c5c48ed81c891973d5b34ccf1746099622dc8b0128a86d021f06a98a257e055aae8aa17d4adcfab47a8281757d3b6bcca9b23741d38cb93301210359704c47fbad03c408d227c4aade88de8840b92b48e60fdd81c2ee30ee4faac1", "asm": "3044022100bf68a7e8cc1a08d9e0c5c48ed81c891973d5b34ccf1746099622dc8b0128a86d021f06a98a257e055aae8aa17d4adcfab47a8281757d3b6bcca9b23741d38cb933[ALL] 0359704c47fbad03c408d227c4aade88de8840b92b48e60fdd81c2ee30ee4faac1"}, "vout": 0, "txid": "a759a81b81d3c075d0b3a5bf6dd32152506323047fc99b1fcc29ea4ca13b295d"}, {"sequence": 4294967295, "scriptSig": {"hex": "47304402201c8f644be91b267bcb6d643a6fa6aa37c950a2166886e252071710e597098c5b02206acc3ad3303dced375d8c64d0717b4f389fb779dd3c7a31380758971ef4e15b6012102382f31d9493fa36e4a73daa47218d97a5aaf1116fd8a718b3dc775d20d9c8207", "asm": "304402201c8f644be91b267bcb6d643a6fa6aa37c950a2166886e252071710e597098c5b02206acc3ad3303dced375d8c64d0717b4f389fb779dd3c7a31380758971ef4e15b6[ALL] 02382f31d9493fa36e4a73daa47218d97a5aaf1116fd8a718b3dc775d20d9c8207"}, "vout": 0, "txid": "ac103963891746ee9c1a158859752d4edd634bd684c342cf0bfb04a4249d84ea"}, {"sequence": 4294967295, "scriptSig": {"hex": "473044022068df733f9800df321e231d79059d507523b6fb7b99b002ea05e73eb081a1341202202fc91eef12e78008b00c278a67f3e5fe392a131458df9dc03880aa2fd84a762f012102ec2ca26bf77a30f5f62798d6bc7a726a2f0ba69499574dea4219ab9bf5e04126", "asm": "3044022068df733f9800df321e231d79059d507523b6fb7b99b002ea05e73eb081a1341202202fc91eef12e78008b00c278a67f3e5fe392a131458df9dc03880aa2fd84a762f[ALL] 02ec2ca26bf77a30f5f62798d6bc7a726a2f0ba69499574dea4219ab9bf5e04126"}, "vout": 0, "txid": "c599cb754a7259666a740a87bce257dd6d6ac981cf37553b3581573890720ebb"}, {"sequence": 4294967295, "scriptSig": {"hex": "483045022100e69eb8e50d71abccaadc19febee65a28efe615986cf6c1da927971b405b43a0f0220493dad079d0515dae774fe6123d29165589389aefb46352bd5e710603a465248012102ec2ca26bf77a30f5f62798d6bc7a726a2f0ba69499574dea4219ab9bf5e04126", "asm": "3045022100e69eb8e50d71abccaadc19febee65a28efe615986cf6c1da927971b405b43a0f0220493dad079d0515dae774fe6123d29165589389aefb46352bd5e710603a465248[ALL] 02ec2ca26bf77a30f5f62798d6bc7a726a2f0ba69499574dea4219ab9bf5e04126"}, "vout": 0, "txid": "e43571835f74cb883340265695298897c33d6669554cd1803de41d3f2cd40879"}, {"sequence": 4294967295, "scriptSig": {"hex": "483045022100d99cba20805bee3714cce548de075cc050b8b86598f01743e8fae292c88a337102200bf838c5f3040f5295b77759dd60889f671e7a6cf146684280331db52569773a012103f7c9af975905e1a3fe7b95b9872e41baa17838e091cf404e6b8d3c0229e63f82", "asm": "3045022100d99cba20805bee3714cce548de075cc050b8b86598f01743e8fae292c88a337102200bf838c5f3040f5295b77759dd60889f671e7a6cf146684280331db52569773a[ALL] 03f7c9af975905e1a3fe7b95b9872e41baa17838e091cf404e6b8d3c0229e63f82"}, "vout": 0, "txid": "eb36ffb85c2eb23f22bbd9ab47c94e2d2af69566543216cf8d9cf74a2559b283"}, {"sequence": 4294967295, "scriptSig": {"hex": "4830450221009a25b82b6df37ee4197c26665628a1962e9ab55907b44e67f6e1b2b7048cb237022032292ee127a1de3305ae088af3da3b8c21debcad144a7ccc6c536866953fbf94012102ec2ca26bf77a30f5f62798d6bc7a726a2f0ba69499574dea4219ab9bf5e04126", "asm": "30450221009a25b82b6df37ee4197c26665628a1962e9ab55907b44e67f6e1b2b7048cb237022032292ee127a1de3305ae088af3da3b8c21debcad144a7ccc6c536866953fbf94[ALL] 02ec2ca26bf77a30f5f62798d6bc7a726a2f0ba69499574dea4219ab9bf5e04126"}, "vout": 0, "txid": "f657d36d7d09844be9d53a5cc43a209aecf9c6394e10551edfd2dfdb4b1dd5d8"}], "txid": "f57758afae2c51e2a6ca6ece9995e2498a7fd57bfaaca1fe492eb2fa35469b0c", "blocktime": 1537873282, "version": 1, "confirmations": 11484, "time": 1537873282, "locktime": 0, "vsize": 1257, "size": 1257}