{"hash": "f5783bdd24ed5111478ad50e11eea8f067255bb6adb9c5058d87c5f9ab8da967", "blockhash": "0000000000000000000baef3f32e3676a92c3b2e5da21b426e4f302fc371ce76", "vout": [{"scriptPubKey": {"type": "nulldata", "hex": "6a146f6d6e69000000000000001f000000022a52bd00", "asm": "OP_RETURN 6f6d6e69000000000000001f000000022a52bd00"}, "value": 0.0, "n": 0}, {"scriptPubKey": {"reqSigs": 1, "hex": "a9147acf4a62894c26e68d2df41391efe34d2b171d6387", "addresses": ["3CtNgkLqMijFyhcb2wno9KU8RoxWtsDrXo"], "asm": "OP_HASH160 7acf4a62894c26e68d2df41391efe34d2b171d63 OP_EQUAL", "type": "scripthash"}, "value": 5.4e-06, "n": 1}, {"scriptPubKey": {"reqSigs": 1, "hex": "76a91421bf0ff4e41361c0fb8ed61a2bcc8ed53306fbad88ac", "addresses": ["145SBaHTMxExRV6EEMPPnyVDYYwJqqHfgk"], "asm": "OP_DUP OP_HASH160 21bf0ff4e41361c0fb8ed61a2bcc8ed53306fbad OP_EQUALVERIFY OP_CHECKSIG", "type": "pubkeyhash"}, "value": 0.01131479, "n": 2}], "hex": "0100000001c1ba553ec66764db317acf152f03cf74a976384d03132b28eb020a12ed8c860f010000006a4730440220648128cba9a8169fb22f16dfc86536c74994a2886c043aee12aec8f7425578340220038ca020713adab70c307fd243120021090410bcbfac52ba671b0c739ab36633012103e3cf8dcc8eef3eab6dca3c8c8c204d9f75217dbec181ef71b68177ae15cdbf21feffffff030000000000000000166a146f6d6e69000000000000001f000000022a52bd001c0200000000000017a9147acf4a62894c26e68d2df41391efe34d2b171d6387d7431100000000001976a91421bf0ff4e41361c0fb8ed61a2bcc8ed53306fbad88ac17490800", "vin": [{"sequence": 4294967294, "scriptSig": {"hex": "4730440220648128cba9a8169fb22f16dfc86536c74994a2886c043aee12aec8f7425578340220038ca020713adab70c307fd243120021090410bcbfac52ba671b0c739ab36633012103e3cf8dcc8eef3eab6dca3c8c8c204d9f75217dbec181ef71b68177ae15cdbf21", "asm": "30440220648128cba9a8169fb22f16dfc86536c74994a2886c043aee12aec8f7425578340220038ca020713adab70c307fd243120021090410bcbfac52ba671b0c739ab36633[ALL] 03e3cf8dcc8eef3eab6dca3c8c8c204d9f75217dbec181ef71b68177ae15cdbf21"}, "vout": 1, "txid": "0f868ced120a02eb282b13034d3876a974cf032f15cf7a31db6467c63e55bac1"}], "txid": "f5783bdd24ed5111478ad50e11eea8f067255bb6adb9c5058d87c5f9ab8da967", "blocktime": 1537876114, "version": 1, "confirmations": 11459, "time": 1537876114, "locktime": 542999, "vsize": 254, "size": 254}