{"hash": "f57dce4bf99095a5ea2e2efd1460cbc604d5b8deba06c1247fd8227a48f27da2", "blockhash": "000000000000000000022b45ed06c6f4ccd3cf7fb5ba4856ebd2e58215665228", "vout": [{"scriptPubKey": {"reqSigs": 1, "hex": "76a9142be274e931361d10ea371b23acdf5085f65c264988ac", "addresses": ["1513LjdDPzs1fSXFpDPBz2bcASno9EzsTg"], "asm": "OP_DUP OP_HASH160 2be274e931361d10ea371b23acdf5085f65c2649 OP_EQUALVERIFY OP_CHECKSIG", "type": "pubkeyhash"}, "value": 0.08959893, "n": 0}], "hex": "0100000003eb55d852276a743586bec827c38c0b31b7e07b16fc16d48b83adf04e2099b91d010000006a47304402206f4badab20d628e3fa68c84a611342c954f7d6be58ba4e8c986c7cbcdac8b505022073811d4e82ccd95c48de332f7e62997f0c6465bb8f8c590966895cbcad422036012103071f854edce2cfa139ea6de85a0a3aa516263f840ce7be6cf7bde62a1053645dffffffff245a48c54636b6a6c9d0c36ba551789449b51692e67795c05352ea42ba86f671000000006b48304502210082fdae20dd700796d66f8af3d217d45509c12e2fe978c6c1ee5d89486136562202204455cd4ea2bef4d0887be52fa432ace976965e521aa4732dee9c94afc149db2301210282c7989dc612258dc985f30d9144efe508274ac9707476c38b91f95ef8e98835ffffffffc6feef260d9054dc6f23fb3ce28aa0e749ffad42857f806801aaf079be5151a6010000006b483045022100b62c3768a354ce02208db95fa63f08e8c9943454265e21beead17798bf1fcbe80220646e5d5be44027f2e9b94fe9e5a64bbe25a260306b67e90293551dfea51e18eb012102042f60524280f5bdece8ca3639574adae11d5f61b9835a0d43e2cd6423b29e4affffffff0195b78800000000001976a9142be274e931361d10ea371b23acdf5085f65c264988ac00000000", "vin": [{"sequence": 4294967295, "scriptSig": {"hex": "47304402206f4badab20d628e3fa68c84a611342c954f7d6be58ba4e8c986c7cbcdac8b505022073811d4e82ccd95c48de332f7e62997f0c6465bb8f8c590966895cbcad422036012103071f854edce2cfa139ea6de85a0a3aa516263f840ce7be6cf7bde62a1053645d", "asm": "304402206f4badab20d628e3fa68c84a611342c954f7d6be58ba4e8c986c7cbcdac8b505022073811d4e82ccd95c48de332f7e62997f0c6465bb8f8c590966895cbcad422036[ALL] 03071f854edce2cfa139ea6de85a0a3aa516263f840ce7be6cf7bde62a1053645d"}, "vout": 1, "txid": "1db999204ef0ad838bd416fc167be0b7310b8cc327c8be8635746a2752d855eb"}, {"sequence": 4294967295, "scriptSig": {"hex": "48304502210082fdae20dd700796d66f8af3d217d45509c12e2fe978c6c1ee5d89486136562202204455cd4ea2bef4d0887be52fa432ace976965e521aa4732dee9c94afc149db2301210282c7989dc612258dc985f30d9144efe508274ac9707476c38b91f95ef8e98835", "asm": "304502210082fdae20dd700796d66f8af3d217d45509c12e2fe978c6c1ee5d89486136562202204455cd4ea2bef4d0887be52fa432ace976965e521aa4732dee9c94afc149db23[ALL] 0282c7989dc612258dc985f30d9144efe508274ac9707476c38b91f95ef8e98835"}, "vout": 0, "txid": "71f686ba42ea5253c09577e69216b549947851a56bc3d0c9a6b63646c5485a24"}, {"sequence": 4294967295, "scriptSig": {"hex": "483045022100b62c3768a354ce02208db95fa63f08e8c9943454265e21beead17798bf1fcbe80220646e5d5be44027f2e9b94fe9e5a64bbe25a260306b67e90293551dfea51e18eb012102042f60524280f5bdece8ca3639574adae11d5f61b9835a0d43e2cd6423b29e4a", "asm": "3045022100b62c3768a354ce02208db95fa63f08e8c9943454265e21beead17798bf1fcbe80220646e5d5be44027f2e9b94fe9e5a64bbe25a260306b67e90293551dfea51e18eb[ALL] 02042f60524280f5bdece8ca3639574adae11d5f61b9835a0d43e2cd6423b29e4a"}, "vout": 1, "txid": "a65151be79f0aa0168807f8542adff49e7a08ae23cfb236fdc54900d26effec6"}], "txid": "f57dce4bf99095a5ea2e2efd1460cbc604d5b8deba06c1247fd8227a48f27da2", "blocktime": 1537869901, "version": 1, "confirmations": 11523, "time": 1537869901, "locktime": 0, "vsize": 487, "size": 487}