{"hash": "358c77d2a1d1c318e096a43466666bce07835f416710dd68334d1b79e75d6192", "blockhash": "00000000000000000004ffacab907a6b429b9a5745fa0b75af4234bf69dd7176", "vout": [{"scriptPubKey": {"reqSigs": 1, "hex": "a9147e883fb8bc8476b3242877b15c30df34391e9a3b87", "addresses": ["3DE4HTLC79JVTwt43gCyCiXgDLqhyEnKHK"], "asm": "OP_HASH160 7e883fb8bc8476b3242877b15c30df34391e9a3b OP_EQUAL", "type": "scripthash"}, "value": 0.0161313, "n": 0}, {"scriptPubKey": {"reqSigs": 1, "hex": "a914ceac72137b6502acd9b13eef8212476c9f5974eb87", "addresses": ["3LXohnt1MH4NdYMFK4et5WMaSzjQyHNtbF"], "asm": "OP_HASH160 ceac72137b6502acd9b13eef8212476c9f5974eb OP_EQUAL", "type": "scripthash"}, "value": 0.00998335, "n": 1}], "hex": "02000000000101a3eed787dcb1146a06284b0acee19e896d90c8a1602341414b40a87bef6d4861000000001716001491d44fa863c47ddd84b6c611dfb1a80cc28f15a8feffffff024a9d18000000000017a9147e883fb8bc8476b3242877b15c30df34391e9a3b87bf3b0f000000000017a914ceac72137b6502acd9b13eef8212476c9f5974eb8702483045022100f4665ad84e4ce2248c77e93a5a13d745c796f218c6791f8162aa8fa8fa6bc77802203a736a21c438bcb1c7c9a17fb19a405bf1c3f88fee1a7c1c12e64364981a2f820121021a08abc61fb48ecf33d0168d03d017cf1ae92e1320aef181e7d0c537dab25e6816490800", "vin": [{"txinwitness": ["3045022100f4665ad84e4ce2248c77e93a5a13d745c796f218c6791f8162aa8fa8fa6bc77802203a736a21c438bcb1c7c9a17fb19a405bf1c3f88fee1a7c1c12e64364981a2f8201", "021a08abc61fb48ecf33d0168d03d017cf1ae92e1320aef181e7d0c537dab25e68"], "sequence": 4294967294, "scriptSig": {"hex": "16001491d44fa863c47ddd84b6c611dfb1a80cc28f15a8", "asm": "001491d44fa863c47ddd84b6c611dfb1a80cc28f15a8"}, "vout": 0, "txid": "61486def7ba8404b41412360a1c8906d899ee1ce0a4b28066a14b1dc87d7eea3"}], "txid": "f584dc0be7d9cbbcdcae7ce47a0853be4feea3f1dbb0af4e0b62bdfc75139b65", "blocktime": 1537875543, "version": 2, "confirmations": 11464, "time": 1537875543, "locktime": 542998, "vsize": 166, "size": 248}