{"hash": "f585618b5b8978b1f26c6676e83d3f9bb121658759253315b9afa3507188d8e4", "blockhash": "0000000000000000000dcc0f55137456b1a82d3642486a52398922ac4d620174", "vout": [{"scriptPubKey": {"reqSigs": 1, "hex": "76a9149f7ff16c27cc0d73b734c45dcb9a369ef4e86bf588ac", "addresses": ["1FYMi99V6SvA7E6LRmmS9sAj7kawV7J6mq"], "asm": "OP_DUP OP_HASH160 9f7ff16c27cc0d73b734c45dcb9a369ef4e86bf5 OP_EQUALVERIFY OP_CHECKSIG", "type": "pubkeyhash"}, "value": 0.032, "n": 0}, {"scriptPubKey": {"reqSigs": 1, "hex": "76a9145dd901f8c69a61be7e945b05bb05bb94127fa7cd88ac", "addresses": ["19ZDooPFNeFXUVtfFAJFTB3yiJfycFHWEn"], "asm": "OP_DUP OP_HASH160 5dd901f8c69a61be7e945b05bb05bb94127fa7cd OP_EQUALVERIFY OP_CHECKSIG", "type": "pubkeyhash"}, "value": 0.75311916, "n": 1}], "hex": "0100000001622a06a0cf35720cd1dc0381ed222f459660f691129265c47b409f35787e1bc6010000006a47304402200cb8c19e030fe51019725347f4219794b8b7331114c9dfce9632e8e19a23017402207c4f7e9e3abd4fd29eac65f58b3fd056eab388fa2d6d43c26741c9f896fac5c4012102e3161afdb22f354405ace2109301679ab700b8c90c6f2be42fcf598c41c83eeeffffffff0200d43000000000001976a9149f7ff16c27cc0d73b734c45dcb9a369ef4e86bf588ac2c2b7d04000000001976a9145dd901f8c69a61be7e945b05bb05bb94127fa7cd88ac00000000", "vin": [{"sequence": 4294967295, "scriptSig": {"hex": "47304402200cb8c19e030fe51019725347f4219794b8b7331114c9dfce9632e8e19a23017402207c4f7e9e3abd4fd29eac65f58b3fd056eab388fa2d6d43c26741c9f896fac5c4012102e3161afdb22f354405ace2109301679ab700b8c90c6f2be42fcf598c41c83eee", "asm": "304402200cb8c19e030fe51019725347f4219794b8b7331114c9dfce9632e8e19a23017402207c4f7e9e3abd4fd29eac65f58b3fd056eab388fa2d6d43c26741c9f896fac5c4[ALL] 02e3161afdb22f354405ace2109301679ab700b8c90c6f2be42fcf598c41c83eee"}, "vout": 1, "txid": "c61b7e78359f407bc465921291f66096452f22ed8103dcd10c7235cfa0062a62"}], "txid": "f585618b5b8978b1f26c6676e83d3f9bb121658759253315b9afa3507188d8e4", "blocktime": 1537870268, "version": 1, "confirmations": 11518, "time": 1537870268, "locktime": 0, "vsize": 225, "size": 225}