{"hash": "f58a3462b9499b971c3931af194a9a9511f9166e209e8e8605bbfb188337f213", "blockhash": "0000000000000000001f0ddff1eddb255c1121bcd4da4f1bc9a0da00cae72433", "vout": [{"scriptPubKey": {"reqSigs": 1, "hex": "a91436b5f906a79eaecee3d9c2e2ad06062112acf0f787", "addresses": ["36gJQbFwuxiGbwR1w5W7p6shgYoEHJFQUM"], "asm": "OP_HASH160 36b5f906a79eaecee3d9c2e2ad06062112acf0f7 OP_EQUAL", "type": "scripthash"}, "value": 0.00368872, "n": 0}, {"scriptPubKey": {"reqSigs": 1, "hex": "76a914646d838d0f95aef8087bd6fed98941126218be2388ac", "addresses": ["1AA1mLjThu9kHJZHZP4JtjcKqj3gPnuuUP"], "asm": "OP_DUP OP_HASH160 646d838d0f95aef8087bd6fed98941126218be23 OP_EQUALVERIFY OP_CHECKSIG", "type": "pubkeyhash"}, "value": 0.00828849, "n": 1}], "hex": "010000000146b75b183edb8939fd18013aa2c0f0fb5add4799d09f05b829a72b9f97a312e900000000fdfe0000483045022100ebec060efb04ff45dbff92453b3c7fe1a11a0cc001618eb41ff59148f6ad97c8022044d0f10db4d1903ae4d2cae8530ae4714f4a3ff4321e5381f6e6b81c20317528014830450221009c70b1f733f80e3d47da708186b61dd1f7b827865ca30f90bb7d8f67a68597d602207c9f21b2adf11e3a1c2149c12990d7a9abae6d19712176099c6b738e54be87aa014c695221020c853a43dee9d32d500f69feccbaeb67ff4cbcd17134404a3958945563fc46082102cc54daf18800ff8e9a31e51ee3db1d5b908102a56162c366f81ddc89090e01b42103ad8dfc2414e8ef29e7f9c1a0f17ff3b837dea06864a12a4f690195f33721ae2953aeffffffff02e8a005000000000017a91436b5f906a79eaecee3d9c2e2ad06062112acf0f787b1a50c00000000001976a914646d838d0f95aef8087bd6fed98941126218be2388ac00000000", "vin": [{"sequence": 4294967295, "scriptSig": {"hex": "00483045022100ebec060efb04ff45dbff92453b3c7fe1a11a0cc001618eb41ff59148f6ad97c8022044d0f10db4d1903ae4d2cae8530ae4714f4a3ff4321e5381f6e6b81c20317528014830450221009c70b1f733f80e3d47da708186b61dd1f7b827865ca30f90bb7d8f67a68597d602207c9f21b2adf11e3a1c2149c12990d7a9abae6d19712176099c6b738e54be87aa014c695221020c853a43dee9d32d500f69feccbaeb67ff4cbcd17134404a3958945563fc46082102cc54daf18800ff8e9a31e51ee3db1d5b908102a56162c366f81ddc89090e01b42103ad8dfc2414e8ef29e7f9c1a0f17ff3b837dea06864a12a4f690195f33721ae2953ae", "asm": "0 3045022100ebec060efb04ff45dbff92453b3c7fe1a11a0cc001618eb41ff59148f6ad97c8022044d0f10db4d1903ae4d2cae8530ae4714f4a3ff4321e5381f6e6b81c20317528[ALL] 30450221009c70b1f733f80e3d47da708186b61dd1f7b827865ca30f90bb7d8f67a68597d602207c9f21b2adf11e3a1c2149c12990d7a9abae6d19712176099c6b738e54be87aa[ALL] 5221020c853a43dee9d32d500f69feccbaeb67ff4cbcd17134404a3958945563fc46082102cc54daf18800ff8e9a31e51ee3db1d5b908102a56162c366f81ddc89090e01b42103ad8dfc2414e8ef29e7f9c1a0f17ff3b837dea06864a12a4f690195f33721ae2953ae"}, "vout": 0, "txid": "e912a3979f2ba729b8059fd09947dd5afbf0c0a23a0118fd3989db3e185bb746"}], "txid": "f58a3462b9499b971c3931af194a9a9511f9166e209e8e8605bbfb188337f213", "blocktime": 1537872018, "version": 1, "confirmations": 11489, "time": 1537872018, "locktime": 0, "vsize": 373, "size": 373}