{"hash": "f58ba3e814c34a41a6a4399126132c15d17adf4e204ae10353efcfed69317c62", "blockhash": "00000000000000000024a2167bbff67b0be802c0b01cdd79e6331c2be6459f87", "vout": [{"scriptPubKey": {"reqSigs": 1, "hex": "76a91412aed4a2fed565f0f473b3688e60246576710f2a88ac", "addresses": ["12hnbu1xVuYF4VhaXYFyw6Pq2eudj3CG4g"], "asm": "OP_DUP OP_HASH160 12aed4a2fed565f0f473b3688e60246576710f2a OP_EQUALVERIFY OP_CHECKSIG", "type": "pubkeyhash"}, "value": 0.77345237, "n": 0}, {"scriptPubKey": {"type": "nulldata", "hex": "6a146f6d6e69000000000000001f00000100fa347592", "asm": "OP_RETURN 6f6d6e69000000000000001f00000100fa347592"}, "value": 0.0, "n": 1}, {"scriptPubKey": {"reqSigs": 1, "hex": "76a914dd50fc98f52a7c300e10d4b3aeb4ef4bb726fedd88ac", "addresses": ["1MBDMT5phq137nCyVyJZzo9qUTWJL2K12q"], "asm": "OP_DUP OP_HASH160 dd50fc98f52a7c300e10d4b3aeb4ef4bb726fedd OP_EQUALVERIFY OP_CHECKSIG", "type": "pubkeyhash"}, "value": 5.46e-06, "n": 2}], "hex": "01000000014c6ef7eb870576354d0b4678ee808d8eb2d34acf8bc984114d0727f38f091106020000006a473044022027763251574598a3c7e6995d5500e24a096f73285c372a3a1a63becaf43a9f4002205ae0892d2fd9aa576704b981aa9a155347b4dc5f51e2462b336b0d1377f938780121034eac30c603f2c1df608b63739b5386726f6cd1cda40a969a15fb2f61da507d31feffffff03d5319c04000000001976a91412aed4a2fed565f0f473b3688e60246576710f2a88ac0000000000000000166a146f6d6e69000000000000001f00000100fa34759222020000000000001976a914dd50fc98f52a7c300e10d4b3aeb4ef4bb726fedd88ac0d490800", "vin": [{"sequence": 4294967294, "scriptSig": {"hex": "473044022027763251574598a3c7e6995d5500e24a096f73285c372a3a1a63becaf43a9f4002205ae0892d2fd9aa576704b981aa9a155347b4dc5f51e2462b336b0d1377f938780121034eac30c603f2c1df608b63739b5386726f6cd1cda40a969a15fb2f61da507d31", "asm": "3044022027763251574598a3c7e6995d5500e24a096f73285c372a3a1a63becaf43a9f4002205ae0892d2fd9aa576704b981aa9a155347b4dc5f51e2462b336b0d1377f93878[ALL] 034eac30c603f2c1df608b63739b5386726f6cd1cda40a969a15fb2f61da507d31"}, "vout": 2, "txid": "0611098ff327074d1184c98bcf4ad3b28e8d80ee78460b4d35760587ebf76e4c"}], "txid": "f58ba3e814c34a41a6a4399126132c15d17adf4e204ae10353efcfed69317c62", "blocktime": 1537870564, "version": 1, "confirmations": 11515, "time": 1537870564, "locktime": 542989, "vsize": 256, "size": 256}