{"hash": "f58b357a8b81fb9018d7f0b9f99c3ec8ccd84be5b51e937578e126fa5bd7aa10", "blockhash": "0000000000000000001cda96e906b7601b7a6fb1a3b62bca570a9e5d8f4b3de1", "vout": [{"scriptPubKey": {"reqSigs": 1, "hex": "76a9147289056b6cb5ff8949dd46bdb13e55bb5906114988ac", "addresses": ["1BScBGTUsKp6j7tuPLuZEURzniXXjSvViK"], "asm": "OP_DUP OP_HASH160 7289056b6cb5ff8949dd46bdb13e55bb59061149 OP_EQUALVERIFY OP_CHECKSIG", "type": "pubkeyhash"}, "value": 0.00232, "n": 0}, {"scriptPubKey": {"reqSigs": 1, "hex": "76a914f1b5c0244fe44fa55e5cf286260b77967634a58888ac", "addresses": ["1P33aUu97H9wHPzgyPPU9ev8mA5uDqW26Y"], "asm": "OP_DUP OP_HASH160 f1b5c0244fe44fa55e5cf286260b77967634a588 OP_EQUALVERIFY OP_CHECKSIG", "type": "pubkeyhash"}, "value": 0.01710221, "n": 1}], "hex": "010000000165cc0fe4496a330d428017711a1e23951d5880bb83dace50d051e61ae6c7e1f1010000006b483045022100bfc13ced67bff2898a8c1592869849f546805ca52fe4dfbae837a800d945658c022029bc384929205724ef1cb27a0de023fc10df07e7fd23146041091be0b1c1a2310121036089c0b6901428e3f830f029b3325d1c15949c6c125a5c7bc218e036dd9b7778ffffffff02408a0300000000001976a9147289056b6cb5ff8949dd46bdb13e55bb5906114988ac8d181a00000000001976a914f1b5c0244fe44fa55e5cf286260b77967634a58888ac00000000", "vin": [{"sequence": 4294967295, "scriptSig": {"hex": "483045022100bfc13ced67bff2898a8c1592869849f546805ca52fe4dfbae837a800d945658c022029bc384929205724ef1cb27a0de023fc10df07e7fd23146041091be0b1c1a2310121036089c0b6901428e3f830f029b3325d1c15949c6c125a5c7bc218e036dd9b7778", "asm": "3045022100bfc13ced67bff2898a8c1592869849f546805ca52fe4dfbae837a800d945658c022029bc384929205724ef1cb27a0de023fc10df07e7fd23146041091be0b1c1a231[ALL] 036089c0b6901428e3f830f029b3325d1c15949c6c125a5c7bc218e036dd9b7778"}, "vout": 1, "txid": "f1e1c7e61ae651d050ceda83bb80581d95231e1a711780420d336a49e40fcc65"}], "txid": "f58b357a8b81fb9018d7f0b9f99c3ec8ccd84be5b51e937578e126fa5bd7aa10", "blocktime": 1537873282, "version": 1, "confirmations": 11484, "time": 1537873282, "locktime": 0, "vsize": 226, "size": 226}