{"hash": "9005de887076f6730006cf7f0c4470489c6820a622702029d904939d261191cd", "blockhash": "0000000000000000000baef3f32e3676a92c3b2e5da21b426e4f302fc371ce76", "vout": [{"scriptPubKey": {"reqSigs": 1, "hex": "a9142c829b3a6e875e3928e667085cc049c44cbb712d87", "addresses": ["35kN7g1ER4N8zzdBSb9XketmHStJPtTG6j"], "asm": "OP_HASH160 2c829b3a6e875e3928e667085cc049c44cbb712d OP_EQUAL", "type": "scripthash"}, "value": 0.00305576, "n": 0}, {"scriptPubKey": {"reqSigs": 1, "hex": "a914414cec0fc72a9410f6836edaf08de1aa3b2a321c87", "addresses": ["37eHzewnAFRR2SVZu8rZM3nBsmuE2XBU7D"], "asm": "OP_HASH160 414cec0fc72a9410f6836edaf08de1aa3b2a321c OP_EQUAL", "type": "scripthash"}, "value": 0.23082047, "n": 1}], "hex": "01000000000101f1df1577cf249c2541829f17f553b063b16a277c1ddd370f7bbceb71d0c7a5f40100000023220020ce74cde37cfb8dd71d0179287e12fc721ee236ce3c89c2745bcd365b39807eb3ffffffff02a8a904000000000017a9142c829b3a6e875e3928e667085cc049c44cbb712d873f3460010000000017a914414cec0fc72a9410f6836edaf08de1aa3b2a321c8704004830450221008f7b277c69f78ccb2c6ad0805d779c7c0888bd8cdd60f8908431d7d7c7f72c55022047429e228cdfa979b1f9a52e0eaf1a2dbc605b8f6d9ae17b2cb5a7d051d77e4a014730440220160463364a1ba4c118c9eeb16c875f6b5d54a8285d204b10ddb6d1765f52f6ac0220529d6348f2f88bc7acc64bd3ba0083dcdb82cfed27f808a3f85bf6f435ba52aa0147522103ada901d90d5a76319a60f228e0b1bbc84b1d9a87238550bae5d5d190067b66712103871fc2ca08e6950b38867e8e6a0e94ee625223d3aa0df5c65f414c6d784467e252ae00000000", "vin": [{"txinwitness": ["", "30450221008f7b277c69f78ccb2c6ad0805d779c7c0888bd8cdd60f8908431d7d7c7f72c55022047429e228cdfa979b1f9a52e0eaf1a2dbc605b8f6d9ae17b2cb5a7d051d77e4a01", "30440220160463364a1ba4c118c9eeb16c875f6b5d54a8285d204b10ddb6d1765f52f6ac0220529d6348f2f88bc7acc64bd3ba0083dcdb82cfed27f808a3f85bf6f435ba52aa01", "522103ada901d90d5a76319a60f228e0b1bbc84b1d9a87238550bae5d5d190067b66712103871fc2ca08e6950b38867e8e6a0e94ee625223d3aa0df5c65f414c6d784467e252ae"], "sequence": 4294967295, "scriptSig": {"hex": "220020ce74cde37cfb8dd71d0179287e12fc721ee236ce3c89c2745bcd365b39807eb3", "asm": "0020ce74cde37cfb8dd71d0179287e12fc721ee236ce3c89c2745bcd365b39807eb3"}, "vout": 1, "txid": "f4a5c7d071ebbc7b0f37dd1d7c276ab163b053f5179f8241259c24cf7715dff1"}], "txid": "f58dc21b0c0b050067de2f747dff412ff4a0d2716ae3a5965042f40c75ac12cc", "blocktime": 1537876114, "version": 1, "confirmations": 11460, "time": 1537876114, "locktime": 0, "vsize": 206, "size": 371}