{"hash": "f58fcfbeaf7120428d0dc332e5e9a12cca1efe6dd8da1e631951abdcbd317b7d", "blockhash": "0000000000000000000baef3f32e3676a92c3b2e5da21b426e4f302fc371ce76", "vout": [{"scriptPubKey": {"reqSigs": 1, "hex": "76a914483835e7c25bd0111cd839f8e89bd9f2366d194888ac", "addresses": ["17arzPedkLXH4fNaC9FKRnNWrmJkP2Unc2"], "asm": "OP_DUP OP_HASH160 483835e7c25bd0111cd839f8e89bd9f2366d1948 OP_EQUALVERIFY OP_CHECKSIG", "type": "pubkeyhash"}, "value": 3.02142, "n": 0}, {"scriptPubKey": {"reqSigs": 1, "hex": "a914817ca21e58350076dd89eb890e1b763b85a5d1cc87", "addresses": ["3DVgPxjL4virdTGWwAJdFV7vYU1LTK3MPj"], "asm": "OP_HASH160 817ca21e58350076dd89eb890e1b763b85a5d1cc OP_EQUAL", "type": "scripthash"}, "value": 0.226623, "n": 1}, {"scriptPubKey": {"reqSigs": 1, "hex": "76a91466e1877107b93295873d7c607a0104c60064d38f88ac", "addresses": ["1ANz6bs5UmhUkjShzYGyCBuTSwfDvVjvYg"], "asm": "OP_DUP OP_HASH160 66e1877107b93295873d7c607a0104c60064d38f OP_EQUALVERIFY OP_CHECKSIG", "type": "pubkeyhash"}, "value": 8.49521828, "n": 2}, {"scriptPubKey": {"reqSigs": 1, "hex": "a914b6643498f29c49cac20789885c6c57b3689ab68e87", "addresses": ["3JKQwrVsUifzmfsx5joGbqNwZmA7MWVm5S"], "asm": "OP_HASH160 b6643498f29c49cac20789885c6c57b3689ab68e OP_EQUAL", "type": "scripthash"}, "value": 7.862, "n": 3}, {"scriptPubKey": {"reqSigs": 1, "hex": "76a914047d8100cb0372f0865fc69c742c3054759b455388ac", "addresses": ["1Qk3w5juSUAR3uWruhxgSsqPeYF1SKLKm"], "asm": "OP_DUP OP_HASH160 047d8100cb0372f0865fc69c742c3054759b4553 OP_EQUALVERIFY OP_CHECKSIG", "type": "pubkeyhash"}, "value": 0.452968, "n": 4}, {"scriptPubKey": {"reqSigs": 1, "hex": "76a91444bd1f2325ba33ebec2d399041893ba0cbccc93388ac", "addresses": ["17GTWSrJmjXG4pBsJUT9UQRB1Gtfphaj29"], "asm": "OP_DUP OP_HASH160 44bd1f2325ba33ebec2d399041893ba0cbccc933 OP_EQUALVERIFY OP_CHECKSIG", "type": "pubkeyhash"}, "value": 0.05025223, "n": 5}, {"scriptPubKey": {"reqSigs": 1, "hex": "76a91409a2c9fd27b6a233a87ed9ae22b436fbb57241b288ac", "addresses": ["1sx6WLYtd85JnAEKGwJV5oJBpMrgK8UjD"], "asm": "OP_DUP OP_HASH160 09a2c9fd27b6a233a87ed9ae22b436fbb57241b2 OP_EQUALVERIFY OP_CHECKSIG", "type": "pubkeyhash"}, "value": 26.80590398, "n": 6}], "hex": "010000001234b3a9dff71b26b9b051956b3945685710e9bf9cabfd9ba53b4ea3eceef427bf000000006b48304502210099853b3506a49f152991d1775c27b5d67a376a31ca14a6badef65a1006a4e08302207670c45212a0cc795de327b1775b26b7fc5c54ef7622e5726fc610288b1565eb01210248a5033e734cfc56c09c11b308900a2f6bd9b5b3eafdf2164a9ae17ab0a92aceffffffffcf665cd60563eaa4bb5e93e30a3d76331dfe0feaf2b0e0ba7be6e84832e43131030000006b483045022100b8c2005cc8dcf5d751665570ad9b40b3b06bf811622934b940cc1e325c02b08b022072886663445e95af5f5687460ce413907ca39ff7bbc61daf0ec7f90e919b86c1012103354b278235edf596378d9b6991e167ab8c00b037e7fd997c58642f0712a24053ffffffffcf665cd60563eaa4bb5e93e30a3d76331dfe0feaf2b0e0ba7be6e84832e43131040000006a4730440220114539b4f1c85a670f25524a1f5c3f6f5764530e9aec00622c27e594d59f4c52022034a8e79709c132d3dc3ba9eb5d3ae9153c95716147fb16a239a80c3524dcec5f012103cfb828bb2335331b5f5d86848d710c59bcd8cabd1ab1d6c9c2158d4062295f61ffffffffaf05874d1c7ab391c67c2e620d3651075ff552bfbb747b830d710cd8b1ce1237000000006b483045022100eec7dcc7756653ef2a25fd775090f4f0b0f0af82e16c2b21342eb5e1c19d1d1e02203bcda21c39521c315c62c29dad08fd4c173931ab4009344faa11812c859e0978012102260aaa4b5f8bb197aee67a3a79b2820ed73ffc041f774e1c5e97cf0619238464ffffffff3da2368e0f20c060a772d52e71173edf2d4f1ccaeee9afc0efef05e1cd721f64000000006b483045022100960c5fc9c24e580ac7b6938bbcc25f506e294e82da13194be987550b511ab65c02206cdccea7c889ef9ec0a2ee503923d2f8f4c8496ff314dec894ebaa7ef2d5e22b012103fb52abc056638467b9d1255c24c2e8d7977cc1b27f8865d3536cbf299130b2faffffffff2b1d885a6d2173c6ea931ace26925c9675450f72bd9d6e54e3d17f6ccd6c5221010000006b483045022100eb6928c1800fad494042d95ce7a29b70743da5d878cf31a7c60bf1e1efb5eb48022037255d7776bd8048a91a819051b128087a42b20c20e3188d0d81d3dc58bf4317012103b16c18b029b633d6e5ea595683a697cd5581fda6a97d0c107d1f5bc0ac3f2dc5ffffffff33f5d3371ac8f478a703f82094d471190d401a974b89a4c6c014ab3cf05a7347000000006b483045022100a1166b2b9ed21737af047041e89c2c49d96f177cb8e54566a014196d9cef515302204cc9522e9c9a94d614b6120b36e126146aa02cf55defc232921ef7d2457207c80121022d5a811d2951bec6563e2ba841118f02ece6c75bd6c3860cfc731f9c687b1268ffffffff481570ca1e71553f7ca92c8f56c39edb63f407d21b8b885abdea1cb16f99473a010000006b483045022100f61214421511d4744637087c673ae68670ae1c4ddff1eac70d9b9ade7ea8914c022063966b49d14c7a7365d08bd7b44d2b77f87c4f2d31f61906def07e65f891460e012102f1af73a7ce49d82b04a585d7c15d6ba0f4bb744b6b1228b81f009ef29880d763ffffffff50b261c1a6e341db5ddf3e15b8cfcdcf73017b8d8ac28b9e1cd15ef589f46ea2000000006b48304502210098e918e977bf3179d172f8e590cee0e0a169766adfd6349977b632745a070982022055bf35aaad14633bca536c95b3cb6a37b047a628b73cc435238894bab6a8f626012102a709503aa45374a164e84f9c732e4110060bb2412f56f09dd5949fcc52b686afffffffff211858cbcd5fd86546ded204f71acbf4fee0ffa8d722e13cb5bdd297e80e1e3a020000006b483045022100b00b128350120ee0bb44b6dd85d4dfa31985ffa7f693f35d1b361dd5f4e53e1d02201d440b18b3a560063f776d8c15fd83db2c207d9a2eb3aaa074c705fd8a3f892a01210281b795614bba10950aefa855d371f914dc1e5cdb6794b0b4fd46c27017d48730ffffffff9769df820523786a341fddece920bb63f979ef36494fdf40a36960e8c861995d1c0000006b483045022100bcca2da879197d7cfe586fbbb983e32a9b2222e86dc06c2f2931f64af7ec9ed402204ba7c0fea57c0fed2d544321641af9cafbef078fc325e669bdc5a27e7426181a012102260aaa4b5f8bb197aee67a3a79b2820ed73ffc041f774e1c5e97cf0619238464ffffffff781a5bce104f7a2e4ae3ec969d296eab32a69152b079073f5ac0cc84c6a94e3b1d0000006a473044022003fd5be63a487d79c4dc7ca7390d46e067e68321a1e28e08f9fef1135102fa4902200376b3c9c401028ff8520b531a826b4d5fc12ba3c0a8e45fca9aad56fe12a919012103f2f4475f63b7d75a7dc024fda195e2d842e518c9ed523a63d185631ffbadbcd7ffffffffe8eb496a33058bbf03429ed9710887e8340212d59774d00ecc840bf9910f43d8000000006a47304402201218ce1441451a6f713e34af440ee13c862cc3cb35aa994b2826eece82abf578022061c3e82ec0cce3b60e777e8fa7892a3c66bf1b7978f35b107b1aa0f1f14c95a5012102671fa1634abff6dfbed7b2c6587ee45aabaf1eaf2595d1221b78a101c9e3892ffffffffff6e29c7e86e9d15e9595064db46ac0cf55f7f3fd622d1d128c06cce6479801a1010000006b483045022100d46324a31efa097c6ea98f0f25913abfdf49652e630f4e1d5d70a3a5341bd82902204202ad65e768a689d5205e6a3a55e87d8e7f3eea54e4710ada4d1065afc15789012103c19a8335f9a710128e9cc9bf3fbbacea43189559f44460157451ef89273933bffffffffffaa573c9c8a1edede61d45266a735122fc15ec95c616c3b62f870cc60335c85b000000006b483045022100ff3181b32042841907b4d10c7ac4d6002c3b57d347163a706142ed53680809f902205253f55feb438557e33465815f3ea4ac8e790c65313f629e4aadd8cb73522528012103f7105c3d8b0201ad27018e78306b8b0cfd7119429023a48690f2eddc9347edeaffffffffaa60c6a7273b6ead92445755f872fa48e9c72cdcada3973fb591d3c89e2163d2000000006a473044022048b02bd2e514a38ba8fc0dabf5065bb76620be58384ec03d6bd256dc3985645102205e06c8944bde519e727c213e047ff08519d0667473de607f8c050f09381e5e9c012102fb64d2ccab3cbe61813bc1797460eba875ce2f8707e7f9e18aa50111aa5fa871fffffffff10d0e87644e9316e3bbf5783ee902d3ca638c915f23faf4f7997d37f8eefc47010000006a473044022011f1a4500fce8f7c645ef635fec449d0113fa062f1b3365ce1bf5a885a829f1802206a32fac896cb9f9fbdada474ba38e1d0d4dd5ca58a24a1191e0b2653f923e9f6012102b31101c58954cdd55ddddcd8deb16d5bbb364de2d7c1de990bd085c7d0910c10ffffffff6dbfef358110fbfd36b3b5191888086917fd07f0448dee3ac8832b889289e144000000006b48304502210093a91fbf96a4703c50c5613a00b229aa7f7a0c253ae5bff8eb5e57c5d99bd89b02206f56721909272f210536f92c6560c4b96fd013aee3c1aa6a42f9c6a9bd04b95c012103872973cf680276859c3f1d42af30183f944acc3c2767605af8b2963b08daf5f8ffffffff0730520212000000001976a914483835e7c25bd0111cd839f8e89bd9f2366d194888ac9ccc59010000000017a914817ca21e58350076dd89eb890e1b763b85a5d1cc87a4aca232000000001976a91466e1877107b93295873d7c607a0104c60064d38f88acc075dc2e0000000017a914b6643498f29c49cac20789885c6c57b3689ab68e87a02cb302000000001976a914047d8100cb0372f0865fc69c742c3054759b455388acc7ad4c00000000001976a91444bd1f2325ba33ebec2d399041893ba0cbccc93388ac3e90c69f000000001976a91409a2c9fd27b6a233a87ed9ae22b436fbb57241b288ac00000000", "vin": [{"sequence": 4294967295, "scriptSig": {"hex": "48304502210099853b3506a49f152991d1775c27b5d67a376a31ca14a6badef65a1006a4e08302207670c45212a0cc795de327b1775b26b7fc5c54ef7622e5726fc610288b1565eb01210248a5033e734cfc56c09c11b308900a2f6bd9b5b3eafdf2164a9ae17ab0a92ace", "asm": "304502210099853b3506a49f152991d1775c27b5d67a376a31ca14a6badef65a1006a4e08302207670c45212a0cc795de327b1775b26b7fc5c54ef7622e5726fc610288b1565eb[ALL] 0248a5033e734cfc56c09c11b308900a2f6bd9b5b3eafdf2164a9ae17ab0a92ace"}, "vout": 0, "txid": "bf27f4eeeca34e3ba59bfdab9cbfe910576845396b9551b0b9261bf7dfa9b334"}, {"sequence": 4294967295, "scriptSig": {"hex": "483045022100b8c2005cc8dcf5d751665570ad9b40b3b06bf811622934b940cc1e325c02b08b022072886663445e95af5f5687460ce413907ca39ff7bbc61daf0ec7f90e919b86c1012103354b278235edf596378d9b6991e167ab8c00b037e7fd997c58642f0712a24053", "asm": "3045022100b8c2005cc8dcf5d751665570ad9b40b3b06bf811622934b940cc1e325c02b08b022072886663445e95af5f5687460ce413907ca39ff7bbc61daf0ec7f90e919b86c1[ALL] 03354b278235edf596378d9b6991e167ab8c00b037e7fd997c58642f0712a24053"}, "vout": 3, "txid": "3131e43248e8e67bbae0b0f2ea0ffe1d33763d0ae3935ebba4ea6305d65c66cf"}, {"sequence": 4294967295, "scriptSig": {"hex": "4730440220114539b4f1c85a670f25524a1f5c3f6f5764530e9aec00622c27e594d59f4c52022034a8e79709c132d3dc3ba9eb5d3ae9153c95716147fb16a239a80c3524dcec5f012103cfb828bb2335331b5f5d86848d710c59bcd8cabd1ab1d6c9c2158d4062295f61", "asm": "30440220114539b4f1c85a670f25524a1f5c3f6f5764530e9aec00622c27e594d59f4c52022034a8e79709c132d3dc3ba9eb5d3ae9153c95716147fb16a239a80c3524dcec5f[ALL] 03cfb828bb2335331b5f5d86848d710c59bcd8cabd1ab1d6c9c2158d4062295f61"}, "vout": 4, "txid": "3131e43248e8e67bbae0b0f2ea0ffe1d33763d0ae3935ebba4ea6305d65c66cf"}, {"sequence": 4294967295, "scriptSig": {"hex": "483045022100eec7dcc7756653ef2a25fd775090f4f0b0f0af82e16c2b21342eb5e1c19d1d1e02203bcda21c39521c315c62c29dad08fd4c173931ab4009344faa11812c859e0978012102260aaa4b5f8bb197aee67a3a79b2820ed73ffc041f774e1c5e97cf0619238464", "asm": "3045022100eec7dcc7756653ef2a25fd775090f4f0b0f0af82e16c2b21342eb5e1c19d1d1e02203bcda21c39521c315c62c29dad08fd4c173931ab4009344faa11812c859e0978[ALL] 02260aaa4b5f8bb197aee67a3a79b2820ed73ffc041f774e1c5e97cf0619238464"}, "vout": 0, "txid": "3712ceb1d80c710d837b74bbbf52f55f0751360d622e7cc691b37a1c4d8705af"}, {"sequence": 4294967295, "scriptSig": {"hex": "483045022100960c5fc9c24e580ac7b6938bbcc25f506e294e82da13194be987550b511ab65c02206cdccea7c889ef9ec0a2ee503923d2f8f4c8496ff314dec894ebaa7ef2d5e22b012103fb52abc056638467b9d1255c24c2e8d7977cc1b27f8865d3536cbf299130b2fa", "asm": "3045022100960c5fc9c24e580ac7b6938bbcc25f506e294e82da13194be987550b511ab65c02206cdccea7c889ef9ec0a2ee503923d2f8f4c8496ff314dec894ebaa7ef2d5e22b[ALL] 03fb52abc056638467b9d1255c24c2e8d7977cc1b27f8865d3536cbf299130b2fa"}, "vout": 0, "txid": "641f72cde105efefc0afe9eeca1c4f2ddf3e17712ed572a760c0200f8e36a23d"}, {"sequence": 4294967295, "scriptSig": {"hex": "483045022100eb6928c1800fad494042d95ce7a29b70743da5d878cf31a7c60bf1e1efb5eb48022037255d7776bd8048a91a819051b128087a42b20c20e3188d0d81d3dc58bf4317012103b16c18b029b633d6e5ea595683a697cd5581fda6a97d0c107d1f5bc0ac3f2dc5", "asm": "3045022100eb6928c1800fad494042d95ce7a29b70743da5d878cf31a7c60bf1e1efb5eb48022037255d7776bd8048a91a819051b128087a42b20c20e3188d0d81d3dc58bf4317[ALL] 03b16c18b029b633d6e5ea595683a697cd5581fda6a97d0c107d1f5bc0ac3f2dc5"}, "vout": 1, "txid": "21526ccd6c7fd1e3546e9dbd720f4575965c9226ce1a93eac673216d5a881d2b"}, {"sequence": 4294967295, "scriptSig": {"hex": "483045022100a1166b2b9ed21737af047041e89c2c49d96f177cb8e54566a014196d9cef515302204cc9522e9c9a94d614b6120b36e126146aa02cf55defc232921ef7d2457207c80121022d5a811d2951bec6563e2ba841118f02ece6c75bd6c3860cfc731f9c687b1268", "asm": "3045022100a1166b2b9ed21737af047041e89c2c49d96f177cb8e54566a014196d9cef515302204cc9522e9c9a94d614b6120b36e126146aa02cf55defc232921ef7d2457207c8[ALL] 022d5a811d2951bec6563e2ba841118f02ece6c75bd6c3860cfc731f9c687b1268"}, "vout": 0, "txid": "47735af03cab14c0c6a4894b971a400d1971d49420f803a778f4c81a37d3f533"}, {"sequence": 4294967295, "scriptSig": {"hex": "483045022100f61214421511d4744637087c673ae68670ae1c4ddff1eac70d9b9ade7ea8914c022063966b49d14c7a7365d08bd7b44d2b77f87c4f2d31f61906def07e65f891460e012102f1af73a7ce49d82b04a585d7c15d6ba0f4bb744b6b1228b81f009ef29880d763", "asm": "3045022100f61214421511d4744637087c673ae68670ae1c4ddff1eac70d9b9ade7ea8914c022063966b49d14c7a7365d08bd7b44d2b77f87c4f2d31f61906def07e65f891460e[ALL] 02f1af73a7ce49d82b04a585d7c15d6ba0f4bb744b6b1228b81f009ef29880d763"}, "vout": 1, "txid": "3a47996fb11ceabd5a888b1bd207f463db9ec3568f2ca97c3f55711eca701548"}, {"sequence": 4294967295, "scriptSig": {"hex": "48304502210098e918e977bf3179d172f8e590cee0e0a169766adfd6349977b632745a070982022055bf35aaad14633bca536c95b3cb6a37b047a628b73cc435238894bab6a8f626012102a709503aa45374a164e84f9c732e4110060bb2412f56f09dd5949fcc52b686af", "asm": "304502210098e918e977bf3179d172f8e590cee0e0a169766adfd6349977b632745a070982022055bf35aaad14633bca536c95b3cb6a37b047a628b73cc435238894bab6a8f626[ALL] 02a709503aa45374a164e84f9c732e4110060bb2412f56f09dd5949fcc52b686af"}, "vout": 0, "txid": "a26ef489f55ed11c9e8bc28a8d7b0173cfcdcfb8153edf5ddb41e3a6c161b250"}, {"sequence": 4294967295, "scriptSig": {"hex": "483045022100b00b128350120ee0bb44b6dd85d4dfa31985ffa7f693f35d1b361dd5f4e53e1d02201d440b18b3a560063f776d8c15fd83db2c207d9a2eb3aaa074c705fd8a3f892a01210281b795614bba10950aefa855d371f914dc1e5cdb6794b0b4fd46c27017d48730", "asm": "3045022100b00b128350120ee0bb44b6dd85d4dfa31985ffa7f693f35d1b361dd5f4e53e1d02201d440b18b3a560063f776d8c15fd83db2c207d9a2eb3aaa074c705fd8a3f892a[ALL] 0281b795614bba10950aefa855d371f914dc1e5cdb6794b0b4fd46c27017d48730"}, "vout": 2, "txid": "3a1e0ee897d2bdb53ce122d7a8ffe0fef4cb1af704d2de4665d85fcdcb581821"}, {"sequence": 4294967295, "scriptSig": {"hex": "483045022100bcca2da879197d7cfe586fbbb983e32a9b2222e86dc06c2f2931f64af7ec9ed402204ba7c0fea57c0fed2d544321641af9cafbef078fc325e669bdc5a27e7426181a012102260aaa4b5f8bb197aee67a3a79b2820ed73ffc041f774e1c5e97cf0619238464", "asm": "3045022100bcca2da879197d7cfe586fbbb983e32a9b2222e86dc06c2f2931f64af7ec9ed402204ba7c0fea57c0fed2d544321641af9cafbef078fc325e669bdc5a27e7426181a[ALL] 02260aaa4b5f8bb197aee67a3a79b2820ed73ffc041f774e1c5e97cf0619238464"}, "vout": 28, "txid": "5d9961c8e86069a340df4f4936ef79f963bb20e9ecdd1f346a78230582df6997"}, {"sequence": 4294967295, "scriptSig": {"hex": "473044022003fd5be63a487d79c4dc7ca7390d46e067e68321a1e28e08f9fef1135102fa4902200376b3c9c401028ff8520b531a826b4d5fc12ba3c0a8e45fca9aad56fe12a919012103f2f4475f63b7d75a7dc024fda195e2d842e518c9ed523a63d185631ffbadbcd7", "asm": "3044022003fd5be63a487d79c4dc7ca7390d46e067e68321a1e28e08f9fef1135102fa4902200376b3c9c401028ff8520b531a826b4d5fc12ba3c0a8e45fca9aad56fe12a919[ALL] 03f2f4475f63b7d75a7dc024fda195e2d842e518c9ed523a63d185631ffbadbcd7"}, "vout": 29, "txid": "3b4ea9c684ccc05a3f0779b05291a632ab6e299d96ece34a2e7a4f10ce5b1a78"}, {"sequence": 4294967295, "scriptSig": {"hex": "47304402201218ce1441451a6f713e34af440ee13c862cc3cb35aa994b2826eece82abf578022061c3e82ec0cce3b60e777e8fa7892a3c66bf1b7978f35b107b1aa0f1f14c95a5012102671fa1634abff6dfbed7b2c6587ee45aabaf1eaf2595d1221b78a101c9e3892f", "asm": "304402201218ce1441451a6f713e34af440ee13c862cc3cb35aa994b2826eece82abf578022061c3e82ec0cce3b60e777e8fa7892a3c66bf1b7978f35b107b1aa0f1f14c95a5[ALL] 02671fa1634abff6dfbed7b2c6587ee45aabaf1eaf2595d1221b78a101c9e3892f"}, "vout": 0, "txid": "d8430f91f90b84cc0ed07497d5120234e8870871d99e4203bf8b05336a49ebe8"}, {"sequence": 4294967295, "scriptSig": {"hex": "483045022100d46324a31efa097c6ea98f0f25913abfdf49652e630f4e1d5d70a3a5341bd82902204202ad65e768a689d5205e6a3a55e87d8e7f3eea54e4710ada4d1065afc15789012103c19a8335f9a710128e9cc9bf3fbbacea43189559f44460157451ef89273933bf", "asm": "3045022100d46324a31efa097c6ea98f0f25913abfdf49652e630f4e1d5d70a3a5341bd82902204202ad65e768a689d5205e6a3a55e87d8e7f3eea54e4710ada4d1065afc15789[ALL] 03c19a8335f9a710128e9cc9bf3fbbacea43189559f44460157451ef89273933bf"}, "vout": 1, "txid": "a1019847e6cc068c121d2d62fdf3f755cfc06ab44d0695955ed1e9867e9ce2f6"}, {"sequence": 4294967295, "scriptSig": {"hex": "483045022100ff3181b32042841907b4d10c7ac4d6002c3b57d347163a706142ed53680809f902205253f55feb438557e33465815f3ea4ac8e790c65313f629e4aadd8cb73522528012103f7105c3d8b0201ad27018e78306b8b0cfd7119429023a48690f2eddc9347edea", "asm": "3045022100ff3181b32042841907b4d10c7ac4d6002c3b57d347163a706142ed53680809f902205253f55feb438557e33465815f3ea4ac8e790c65313f629e4aadd8cb73522528[ALL] 03f7105c3d8b0201ad27018e78306b8b0cfd7119429023a48690f2eddc9347edea"}, "vout": 0, "txid": "5bc83503c60c872fb6c316c695ec15fc2251736a26451de6ededa1c8c973a5fa"}, {"sequence": 4294967295, "scriptSig": {"hex": "473044022048b02bd2e514a38ba8fc0dabf5065bb76620be58384ec03d6bd256dc3985645102205e06c8944bde519e727c213e047ff08519d0667473de607f8c050f09381e5e9c012102fb64d2ccab3cbe61813bc1797460eba875ce2f8707e7f9e18aa50111aa5fa871", "asm": "3044022048b02bd2e514a38ba8fc0dabf5065bb76620be58384ec03d6bd256dc3985645102205e06c8944bde519e727c213e047ff08519d0667473de607f8c050f09381e5e9c[ALL] 02fb64d2ccab3cbe61813bc1797460eba875ce2f8707e7f9e18aa50111aa5fa871"}, "vout": 0, "txid": "d263219ec8d391b53f97a3addc2cc7e948fa72f855574492ad6e3b27a7c660aa"}, {"sequence": 4294967295, "scriptSig": {"hex": "473044022011f1a4500fce8f7c645ef635fec449d0113fa062f1b3365ce1bf5a885a829f1802206a32fac896cb9f9fbdada474ba38e1d0d4dd5ca58a24a1191e0b2653f923e9f6012102b31101c58954cdd55ddddcd8deb16d5bbb364de2d7c1de990bd085c7d0910c10", "asm": "3044022011f1a4500fce8f7c645ef635fec449d0113fa062f1b3365ce1bf5a885a829f1802206a32fac896cb9f9fbdada474ba38e1d0d4dd5ca58a24a1191e0b2653f923e9f6[ALL] 02b31101c58954cdd55ddddcd8deb16d5bbb364de2d7c1de990bd085c7d0910c10"}, "vout": 1, "txid": "47fceef8377d99f7f4fa235f918c63cad302e93e78f5bbe316934e64870e0df1"}, {"sequence": 4294967295, "scriptSig": {"hex": "48304502210093a91fbf96a4703c50c5613a00b229aa7f7a0c253ae5bff8eb5e57c5d99bd89b02206f56721909272f210536f92c6560c4b96fd013aee3c1aa6a42f9c6a9bd04b95c012103872973cf680276859c3f1d42af30183f944acc3c2767605af8b2963b08daf5f8", "asm": "304502210093a91fbf96a4703c50c5613a00b229aa7f7a0c253ae5bff8eb5e57c5d99bd89b02206f56721909272f210536f92c6560c4b96fd013aee3c1aa6a42f9c6a9bd04b95c[ALL] 03872973cf680276859c3f1d42af30183f944acc3c2767605af8b2963b08daf5f8"}, "vout": 0, "txid": "44e18992882b83c83aee8d44f007fd176908881819b5b336fdfb108135efbf6d"}], "txid": "f58fcfbeaf7120428d0dc332e5e9a12cca1efe6dd8da1e631951abdcbd317b7d", "blocktime": 1537876114, "version": 1, "confirmations": 11459, "time": 1537876114, "locktime": 0, "vsize": 2903, "size": 2903}