{"hash": "f5904fb27c49319bab64074dd28c259d38a5667ec00079857206fc984a366b06", "blockhash": "000000000000000000022b45ed06c6f4ccd3cf7fb5ba4856ebd2e58215665228", "vout": [{"scriptPubKey": {"reqSigs": 1, "hex": "76a91488d924f51033b74a895863a5fb57fd545529df7d88ac", "addresses": ["1DUb2YYbQA1jjaNYzVXLZ7ZioEhLXtbUru"], "asm": "OP_DUP OP_HASH160 88d924f51033b74a895863a5fb57fd545529df7d OP_EQUALVERIFY OP_CHECKSIG", "type": "pubkeyhash"}, "value": 1.39421096, "n": 0}, {"scriptPubKey": {"type": "nulldata", "hex": "6a146f6d6e69000000000000001f000000e8b6d7ab00", "asm": "OP_RETURN 6f6d6e69000000000000001f000000e8b6d7ab00"}, "value": 0.0, "n": 1}, {"scriptPubKey": {"reqSigs": 1, "hex": "76a91441e8b3a7e250a58eeeb6adec61665c43fbe8eb0488ac", "addresses": ["171Vgsarvc3X6EKDyeGzCxuuRUtjEszkaZ"], "asm": "OP_DUP OP_HASH160 41e8b3a7e250a58eeeb6adec61665c43fbe8eb04 OP_EQUALVERIFY OP_CHECKSIG", "type": "pubkeyhash"}, "value": 5.46e-06, "n": 2}], "hex": "010000000131cbe5a7b9a50643016b1798e1ba0d3e177f015ceafd7faf5087c09f0dda85e1010000006b483045022100f2dccfedc0bdd52638d57d5ec3d170c036f9d33fa108c3a7c9fd2df529e1797802205cf5673a7e6b1e12211a811af42bb220410d01a94da0635a4dcff0b1203ba5380121030888863fcb4cdf5b7d33b40e613af35df8f39d576e7972238b0d396cd3fcc3f2feffffff03a8654f08000000001976a91488d924f51033b74a895863a5fb57fd545529df7d88ac0000000000000000166a146f6d6e69000000000000001f000000e8b6d7ab0022020000000000001976a91441e8b3a7e250a58eeeb6adec61665c43fbe8eb0488ac0b490800", "vin": [{"sequence": 4294967294, "scriptSig": {"hex": "483045022100f2dccfedc0bdd52638d57d5ec3d170c036f9d33fa108c3a7c9fd2df529e1797802205cf5673a7e6b1e12211a811af42bb220410d01a94da0635a4dcff0b1203ba5380121030888863fcb4cdf5b7d33b40e613af35df8f39d576e7972238b0d396cd3fcc3f2", "asm": "3045022100f2dccfedc0bdd52638d57d5ec3d170c036f9d33fa108c3a7c9fd2df529e1797802205cf5673a7e6b1e12211a811af42bb220410d01a94da0635a4dcff0b1203ba538[ALL] 030888863fcb4cdf5b7d33b40e613af35df8f39d576e7972238b0d396cd3fcc3f2"}, "vout": 1, "txid": "e185da0d9fc08750af7ffdea5c017f173e0dbae198176b014306a5b9a7e5cb31"}], "txid": "f5904fb27c49319bab64074dd28c259d38a5667ec00079857206fc984a366b06", "blocktime": 1537869901, "version": 1, "confirmations": 11522, "time": 1537869901, "locktime": 542987, "vsize": 257, "size": 257}