{"hash": "6503c5b82778848a13c2d675424dfffe164b7c8f87653f1011686d1ae4462dae", "blockhash": "0000000000000000001cda96e906b7601b7a6fb1a3b62bca570a9e5d8f4b3de1", "vout": [{"scriptPubKey": {"reqSigs": 1, "hex": "76a914b7be3e452735ba040850819d430ff8818ce1965488ac", "addresses": ["1HkYZSMkNV4ywdVnqj7msXkFFFCEFc9CtV"], "asm": "OP_DUP OP_HASH160 b7be3e452735ba040850819d430ff8818ce19654 OP_EQUALVERIFY OP_CHECKSIG", "type": "pubkeyhash"}, "value": 0.0034676, "n": 0}, {"scriptPubKey": {"reqSigs": 1, "hex": "a914a3b83d7e4375b470f086a5edbbc3e718e0b80b9b87", "addresses": ["3Gcgn3dbD4ufyWEoeA4chFHyMwGTtkgLqq"], "asm": "OP_HASH160 a3b83d7e4375b470f086a5edbbc3e718e0b80b9b OP_EQUAL", "type": "scripthash"}, "value": 0.01002652, "n": 1}], "hex": "0200000000010249211a54908ecdbd3fc036bd12e4568722826c1af2afa3eb7127718ed96e108000000000171600143a8c7e8430f64f35ce82b4048bd2a2613fbcd1bdfeffffffc1f0d83f02f14b2898f0ee7302609dff259b929c9b0a52d94bb757dcb92376070f00000017160014d275bc3f59affbb83c818f7fab5940246cd8c307feffffff02884a0500000000001976a914b7be3e452735ba040850819d430ff8818ce1965488ac9c4c0f000000000017a914a3b83d7e4375b470f086a5edbbc3e718e0b80b9b8702483045022100aed870e02e174eac1d70d95d8f4f9f29465fcacce96d5ad73c2cd37369d7c096022004e6e5f3c9269c49456aad17cff8bc9e264623b370fd4c1a4dbf1e1bd820a81c012102c0f129f878bcf1e31e6540852e4f9ca8102eb8754015d18192d143f0ed21250202483045022100cb93e6a58b8f0668ce9009942f96863eb353b83594a9ed562e166c0fad90000c022064e2e3235b85956d5ececd979fdf18d1a84065678ea6243242dd1c1da88e73d1012102e3ef1b20099cb7f44c70b7e0f731263b2d600924788aa8859c12d5a8350775f713490800", "vin": [{"txinwitness": ["3045022100aed870e02e174eac1d70d95d8f4f9f29465fcacce96d5ad73c2cd37369d7c096022004e6e5f3c9269c49456aad17cff8bc9e264623b370fd4c1a4dbf1e1bd820a81c01", "02c0f129f878bcf1e31e6540852e4f9ca8102eb8754015d18192d143f0ed212502"], "sequence": 4294967294, "scriptSig": {"hex": "1600143a8c7e8430f64f35ce82b4048bd2a2613fbcd1bd", "asm": "00143a8c7e8430f64f35ce82b4048bd2a2613fbcd1bd"}, "vout": 0, "txid": "80106ed98e712771eba3aff21a6c82228756e412bd36c03fbdcd8e90541a2149"}, {"txinwitness": ["3045022100cb93e6a58b8f0668ce9009942f96863eb353b83594a9ed562e166c0fad90000c022064e2e3235b85956d5ececd979fdf18d1a84065678ea6243242dd1c1da88e73d101", "02e3ef1b20099cb7f44c70b7e0f731263b2d600924788aa8859c12d5a8350775f7"], "sequence": 4294967294, "scriptSig": {"hex": "160014d275bc3f59affbb83c818f7fab5940246cd8c307", "asm": "0014d275bc3f59affbb83c818f7fab5940246cd8c307"}, "vout": 15, "txid": "077623b9dc57b74bd9520a9b9c929b25ff9d600273eef098284bf1023fd8f0c1"}], "txid": "f5937b27987ec06b00fd3579d191e1e0a784625bcd9ee5801d747890ccfffc55", "blocktime": 1537873282, "version": 2, "confirmations": 11484, "time": 1537873282, "locktime": 542995, "vsize": 259, "size": 422}