{"hash": "f42b020a5ac439791203ecd42445a6bf5c13fc23b44b77a412978a1f2cfeaf33", "blockhash": "0000000000000000001cda96e906b7601b7a6fb1a3b62bca570a9e5d8f4b3de1", "vout": [{"scriptPubKey": {"reqSigs": 1, "hex": "76a914ad6b172915b791b0f0e11cdd80c5c46c1f93853d88ac", "addresses": ["1GoxBxrZfUqusYWBNjme3cJQ9nph9e7YBg"], "asm": "OP_DUP OP_HASH160 ad6b172915b791b0f0e11cdd80c5c46c1f93853d OP_EQUALVERIFY OP_CHECKSIG", "type": "pubkeyhash"}, "value": 0.00745, "n": 0}, {"scriptPubKey": {"reqSigs": 1, "hex": "a914ea645e5e20987adfaa9d5fa4a915d008965f102387", "addresses": ["3P4NHAbib3uvj6QNYmPWqEJMZnx4HzszTp"], "asm": "OP_HASH160 ea645e5e20987adfaa9d5fa4a915d008965f1023 OP_EQUAL", "type": "scripthash"}, "value": 0.01000202, "n": 1}], "hex": "020000000001028517de68e600674935620ce0b7bcfe39fb5f4c019cf2ffea4b8b24b693f91a7a0a000000171600145cba4a523229d4911b6879067846f5c65e1640d6ffffffff727430b31c6637e7744b8c0343abf787209a1bf89311974bc37d9c03cd6f366f22000000171600149fa66d38eacda997aa41e2a599c752bd4aeba38affffffff02285e0b00000000001976a914ad6b172915b791b0f0e11cdd80c5c46c1f93853d88ac0a430f000000000017a914ea645e5e20987adfaa9d5fa4a915d008965f10238702483045022100d3007214e7bf37fec7b201d91c1fd00539c38f7e1268b1b9fc02b443f4f52f820220112829e2f60fc1c1efa98b6cc65b33e17caf0a1a349091e88eeefa9d50e90a0f01210391b72e75913fc8b77223786f7918e362dce232963f620b3ad8c171af094f1503024730440220418519d8e89c7b3dab8c870d713af07128735fee1e3cc24851e2d42973eb7d8c02203a9fa05972671fd18ffd9692befdc2a5be1421dfe0b8763e18583d90edf7a25c0121029aa944ff631bef8dbf3fc1c4996a8373b06d8d70471baf61ed30f9c0e694767300000000", "vin": [{"txinwitness": ["3045022100d3007214e7bf37fec7b201d91c1fd00539c38f7e1268b1b9fc02b443f4f52f820220112829e2f60fc1c1efa98b6cc65b33e17caf0a1a349091e88eeefa9d50e90a0f01", "0391b72e75913fc8b77223786f7918e362dce232963f620b3ad8c171af094f1503"], "sequence": 4294967295, "scriptSig": {"hex": "1600145cba4a523229d4911b6879067846f5c65e1640d6", "asm": "00145cba4a523229d4911b6879067846f5c65e1640d6"}, "vout": 10, "txid": "7a1af993b6248b4beafff29c014c5ffb39febcb7e00c6235496700e668de1785"}, {"txinwitness": ["30440220418519d8e89c7b3dab8c870d713af07128735fee1e3cc24851e2d42973eb7d8c02203a9fa05972671fd18ffd9692befdc2a5be1421dfe0b8763e18583d90edf7a25c01", "029aa944ff631bef8dbf3fc1c4996a8373b06d8d70471baf61ed30f9c0e6947673"], "sequence": 4294967295, "scriptSig": {"hex": "1600149fa66d38eacda997aa41e2a599c752bd4aeba38a", "asm": "00149fa66d38eacda997aa41e2a599c752bd4aeba38a"}, "vout": 34, "txid": "6f366fcd039c7dc34b971193f81b9a2087f7ab43038c4b74e737661cb3307472"}], "txid": "f5954201453b77cac098f353bdf0aa88bf3b9e97e4dee6b18306d3ec0d44fe01", "blocktime": 1537873282, "version": 2, "confirmations": 11481, "time": 1537873282, "locktime": 0, "vsize": 259, "size": 421}