{"hash": "f595dde2fdb3e909324dd8794234c462f72b15cdf99904d6d79109737cc204e3", "blockhash": "0000000000000000001e0dab787dd257d1dbfcb92a98c2207d5e1078be1f4165", "vout": [{"scriptPubKey": {"reqSigs": 1, "hex": "a914be80366f8633ac316552cdd5b1b118a1a2d7822587", "addresses": ["3K4HuMwd11msCfEMAwS2zfnscNrppn7mqN"], "asm": "OP_HASH160 be80366f8633ac316552cdd5b1b118a1a2d78225 OP_EQUAL", "type": "scripthash"}, "value": 0.01967919, "n": 0}, {"scriptPubKey": {"reqSigs": 1, "hex": "76a914dd7d71fe782d61997ead94aae2b054e195e94d3c88ac", "addresses": ["1MC8cVBxYDcZpwfi9w9e8Ugvt6L2ATQFk1"], "asm": "OP_DUP OP_HASH160 dd7d71fe782d61997ead94aae2b054e195e94d3c OP_EQUALVERIFY OP_CHECKSIG", "type": "pubkeyhash"}, "value": 0.03512028, "n": 1}], "hex": "0100000001eddf5e36638b9deae8c45da8c4ee9c363b61c1fc9f9763f41bdcf6db79835a93010000006a47304402202a73d887c4c7f6fbeaccca802b80543a7d105dbc4671a1c149eba11905279ee802206a9a29315e7f20a51c4b94c0f6b00fd094f42db2473e8390b974acac06a7448401210346c13677031ba6dff14cb685c0aff4bb5cd9512203653159ae4d0e51ea32734fffffffff022f071e000000000017a914be80366f8633ac316552cdd5b1b118a1a2d7822587dc963500000000001976a914dd7d71fe782d61997ead94aae2b054e195e94d3c88ac00000000", "vin": [{"sequence": 4294967295, "scriptSig": {"hex": "47304402202a73d887c4c7f6fbeaccca802b80543a7d105dbc4671a1c149eba11905279ee802206a9a29315e7f20a51c4b94c0f6b00fd094f42db2473e8390b974acac06a7448401210346c13677031ba6dff14cb685c0aff4bb5cd9512203653159ae4d0e51ea32734f", "asm": "304402202a73d887c4c7f6fbeaccca802b80543a7d105dbc4671a1c149eba11905279ee802206a9a29315e7f20a51c4b94c0f6b00fd094f42db2473e8390b974acac06a74484[ALL] 0346c13677031ba6dff14cb685c0aff4bb5cd9512203653159ae4d0e51ea32734f"}, "vout": 1, "txid": "935a8379dbf6dc1bf463979ffcc1613b369ceec4a85dc4e8ea9d8b63365edfed"}], "txid": "f595dde2fdb3e909324dd8794234c462f72b15cdf99904d6d79109737cc204e3", "blocktime": 1537872475, "version": 1, "confirmations": 11487, "time": 1537872475, "locktime": 0, "vsize": 223, "size": 223}