{"hash": "f59694c5e392a30e711a21cad5b4f8ca7984fcf232f00ac205798a677780862a", "blockhash": "0000000000000000001e0dab787dd257d1dbfcb92a98c2207d5e1078be1f4165", "vout": [{"scriptPubKey": {"reqSigs": 1, "hex": "76a914ead41e6cf08483588a239838cdd84ae8442a686788ac", "addresses": ["1NQfEAXydTmjwx8JeF3WWJ7sPD5Q1LoQnJ"], "asm": "OP_DUP OP_HASH160 ead41e6cf08483588a239838cdd84ae8442a6867 OP_EQUALVERIFY OP_CHECKSIG", "type": "pubkeyhash"}, "value": 0.01892538, "n": 0}, {"scriptPubKey": {"reqSigs": 1, "hex": "a9145cb1f43b50a64c1aa23fdbb27450ca821459825f87", "addresses": ["3A99GewRWm9EFquq4FZXTsY1139KU9wjd7"], "asm": "OP_HASH160 5cb1f43b50a64c1aa23fdbb27450ca821459825f OP_EQUAL", "type": "scripthash"}, "value": 0.1, "n": 1}], "hex": "0100000001b15c1a8bfbdf05b33fe4d7177d4f3442bf7a23fd38c53c7d79376bb1d6f72de6010000006b483045022100a59bef4c51a2c07bc89cb3baa1ade6799514d68383fa8d87817c32364fcdef2202203ab636b09d7489b47db6fe34e39ffbdaea16efb31baf7c6a2d6f5bd5a4d9c049012103ad147d5ceaa7726754ee3c0bd650d42f89564234c1a655a747103865cf0d8a1cffffffff02bae01c00000000001976a914ead41e6cf08483588a239838cdd84ae8442a686788ac809698000000000017a9145cb1f43b50a64c1aa23fdbb27450ca821459825f8700000000", "vin": [{"sequence": 4294967295, "scriptSig": {"hex": "483045022100a59bef4c51a2c07bc89cb3baa1ade6799514d68383fa8d87817c32364fcdef2202203ab636b09d7489b47db6fe34e39ffbdaea16efb31baf7c6a2d6f5bd5a4d9c049012103ad147d5ceaa7726754ee3c0bd650d42f89564234c1a655a747103865cf0d8a1c", "asm": "3045022100a59bef4c51a2c07bc89cb3baa1ade6799514d68383fa8d87817c32364fcdef2202203ab636b09d7489b47db6fe34e39ffbdaea16efb31baf7c6a2d6f5bd5a4d9c049[ALL] 03ad147d5ceaa7726754ee3c0bd650d42f89564234c1a655a747103865cf0d8a1c"}, "vout": 1, "txid": "e62df7d6b16b37797d3cc538fd237abf42344f7d17d7e43fb305dffb8b1a5cb1"}], "txid": "f59694c5e392a30e711a21cad5b4f8ca7984fcf232f00ac205798a677780862a", "blocktime": 1537872475, "version": 1, "confirmations": 11487, "time": 1537872475, "locktime": 0, "vsize": 224, "size": 224}