{"hash": "361ae9d7082ea12241683cbc3cb93431ee00ce3272e38b16873895689f5d6593", "blockhash": "0000000000000000000dcc0f55137456b1a82d3642486a52398922ac4d620174", "vout": [{"scriptPubKey": {"reqSigs": 1, "hex": "76a9141858f277d8501b58f9af3895d37a4cce0b04237a88ac", "addresses": ["13Djmm4Sv1mkym8QJ3s3qbDnTP24aEZCfs"], "asm": "OP_DUP OP_HASH160 1858f277d8501b58f9af3895d37a4cce0b04237a OP_EQUALVERIFY OP_CHECKSIG", "type": "pubkeyhash"}, "value": 12.57163858, "n": 0}, {"scriptPubKey": {"type": "nulldata", "hex": "6a24aa21a9ed853a3a5d1e409dee34cd5e950b79be236d516ce1d9fa8781ff1ad0c5fb9a190d", "asm": "OP_RETURN aa21a9ed853a3a5d1e409dee34cd5e950b79be236d516ce1d9fa8781ff1ad0c5fb9a190d"}, "value": 0.0, "n": 1}], "hex": "010000000001010000000000000000000000000000000000000000000000000000000000000000ffffffff26030d490804bc09aa5b2f5365637265745375706572737461722f031c83620615190000000000ffffffff0252ccee4a000000001976a9141858f277d8501b58f9af3895d37a4cce0b04237a88ac0000000000000000266a24aa21a9ed853a3a5d1e409dee34cd5e950b79be236d516ce1d9fa8781ff1ad0c5fb9a190d0120000000000000000000000000000000000000000000000000000000000000000000000000", "vin": [{"coinbase": "030d490804bc09aa5b2f5365637265745375706572737461722f031c83620615190000000000", "sequence": 4294967295}], "txid": "f5a10ddbce2fa564358fc42c14813ce2d84586a92f435873f71e70b6e3b66a13", "blocktime": 1537870268, "version": 1, "confirmations": 11516, "time": 1537870268, "locktime": 0, "vsize": 179, "size": 206}