{"hash": "86b3b297d1d086894c3acb29d07305222502ce8cdfc6596e980ef6402f27a36a", "blockhash": "0000000000000000001f0ddff1eddb255c1121bcd4da4f1bc9a0da00cae72433", "vout": [{"scriptPubKey": {"reqSigs": 1, "hex": "76a914010693493a29b607546c116640df39260d8ca16a88ac", "addresses": ["16RZ49Jcwzvm9p7kFasdDifGZqLVe3beQ"], "asm": "OP_DUP OP_HASH160 010693493a29b607546c116640df39260d8ca16a OP_EQUALVERIFY OP_CHECKSIG", "type": "pubkeyhash"}, "value": 0.111, "n": 0}, {"scriptPubKey": {"reqSigs": 1, "hex": "a9140aebfd802acdb5b33f3ca2f9928d02638283f2b387", "addresses": ["32gmPMKcPeazHLPpSbEq1VZehyA6PNCoBG"], "asm": "OP_HASH160 0aebfd802acdb5b33f3ca2f9928d02638283f2b3 OP_EQUAL", "type": "scripthash"}, "value": 8.8361465, "n": 1}], "hex": "0200000000010153a9c9d963e4f38ff4cbc9d11110bd0de9d32a672fcdb654bb979427dfabc4d80000000017160014a6cb41becf368d8d318d85ed3868d2611ae4fd6efeffffff02605fa900000000001976a914010693493a29b607546c116640df39260d8ca16a88acbae3aa340000000017a9140aebfd802acdb5b33f3ca2f9928d02638283f2b387024830450221009a18350fe67bbcf1b65c7feef352b088a044072e2c7dd4743fe39d380efd8d8b022062fd1f644f24ef2307ade809957037d806b87628e12c12e03151d9cf1a266e1e01210221ce5e736f91e2dec9dfd4b2247be1d917e4742195a5c3c8841e1aa86b8e4e0c10490800", "vin": [{"txinwitness": ["30450221009a18350fe67bbcf1b65c7feef352b088a044072e2c7dd4743fe39d380efd8d8b022062fd1f644f24ef2307ade809957037d806b87628e12c12e03151d9cf1a266e1e01", "0221ce5e736f91e2dec9dfd4b2247be1d917e4742195a5c3c8841e1aa86b8e4e0c"], "sequence": 4294967294, "scriptSig": {"hex": "160014a6cb41becf368d8d318d85ed3868d2611ae4fd6e", "asm": "0014a6cb41becf368d8d318d85ed3868d2611ae4fd6e"}, "vout": 0, "txid": "d8c4abdf279497bb54b6cd2f672ad3e90dbd1011d1c9cbf48ff3e463d9c9a953"}], "txid": "f5a698c7adfb0a584c0d700c02070858dcd8779d7dcc3f5233f13ff49e66e822", "blocktime": 1537872018, "version": 2, "confirmations": 11489, "time": 1537872018, "locktime": 542992, "vsize": 168, "size": 250}