{"hash": "f5ab2b65ff40c830ca238655067c4726263465c9d5dbe58875d77a9988f35878", "blockhash": "00000000000000000004ffacab907a6b429b9a5745fa0b75af4234bf69dd7176", "vout": [{"scriptPubKey": {"reqSigs": 1, "hex": "76a9145a6c634340dff2d6d79e6e2672d196038691999188ac", "addresses": ["19F7fBHP3zCbNsEzu3oEWWmJJMUBgawSj5"], "asm": "OP_DUP OP_HASH160 5a6c634340dff2d6d79e6e2672d1960386919991 OP_EQUALVERIFY OP_CHECKSIG", "type": "pubkeyhash"}, "value": 0.01868407, "n": 0}, {"scriptPubKey": {"reqSigs": 1, "hex": "a91450557bcd26ae9763d4cdf5e8c0558c0a744d7ed487", "addresses": ["391nPPrHwvsLNvVsU99fjQdMpk13tvZVgk"], "asm": "OP_HASH160 50557bcd26ae9763d4cdf5e8c0558c0a744d7ed4 OP_EQUAL", "type": "scripthash"}, "value": 0.00760425, "n": 1}], "hex": "0100000001ec3508ca25bbe94de8264ef9b86eeaafa4047ff16659e516c15cf7212d0744ff000000006a47304402200f86afe656f67fc5eeb12e1213d63b0e1acddc6394daea38a17f2fd1b99d9563022071e3e5a3f712c85daee82113c17b7804a72850365989e642fd596de1059307e1012103e726bcdb3a2e4efad9ede6736309cf1fd9f3bcaa4793f26d8d801421d0a8ae04ffffffff0277821c00000000001976a9145a6c634340dff2d6d79e6e2672d196038691999188ac699a0b000000000017a91450557bcd26ae9763d4cdf5e8c0558c0a744d7ed48700000000", "vin": [{"sequence": 4294967295, "scriptSig": {"hex": "47304402200f86afe656f67fc5eeb12e1213d63b0e1acddc6394daea38a17f2fd1b99d9563022071e3e5a3f712c85daee82113c17b7804a72850365989e642fd596de1059307e1012103e726bcdb3a2e4efad9ede6736309cf1fd9f3bcaa4793f26d8d801421d0a8ae04", "asm": "304402200f86afe656f67fc5eeb12e1213d63b0e1acddc6394daea38a17f2fd1b99d9563022071e3e5a3f712c85daee82113c17b7804a72850365989e642fd596de1059307e1[ALL] 03e726bcdb3a2e4efad9ede6736309cf1fd9f3bcaa4793f26d8d801421d0a8ae04"}, "vout": 0, "txid": "ff44072d21f75cc116e55966f17f04a4afea6eb8f94e26e84de9bb25ca0835ec"}], "txid": "f5ab2b65ff40c830ca238655067c4726263465c9d5dbe58875d77a9988f35878", "blocktime": 1537875543, "version": 1, "confirmations": 11464, "time": 1537875543, "locktime": 0, "vsize": 223, "size": 223}