{"hash": "f5b820a81d059c7f593db54917980545976e29ad94bb3d927a3ed740d6b0013d", "blockhash": "00000000000000000004ffacab907a6b429b9a5745fa0b75af4234bf69dd7176", "vout": [{"scriptPubKey": {"reqSigs": 1, "hex": "76a91437756acf29fb682b58934aaca317387772a8caa988ac", "addresses": ["164EpqroenHFYfj6mv1MfLzNtWvsaPtSfS"], "asm": "OP_DUP OP_HASH160 37756acf29fb682b58934aaca317387772a8caa9 OP_EQUALVERIFY OP_CHECKSIG", "type": "pubkeyhash"}, "value": 0.00653379, "n": 0}], "hex": "0100000002a7a88c739fb9c0697c6c5505a425f90c17ecd8ab76af1d1f8a684a84b52b9b53000000006b483045022100ef7887dba654d4529474fbbd621252a673915ea5b735f27880a6f96f9240ddb402207403607db4dde6e25af500b30ed5faab56ffc18a24777985b2e2197cf463d4ce012102f85992e0a33d6b8c060660435f5630e9ad7e1c25ef56836565a39d09bd97e91fffffffff8a09c8a92310a47e08f2b3368aed88550192d3f72a4942a4e9133af267c92d6d000000006a47304402203d625ccf57e659064384ca7f5d59f5b29fe05e6c3caa91b36d89a6759e20128002200ec398bb72e54fd875f053322203aadfffbceb070e5fcc219134171d6c662c26012102b24b1a7a7a3f3b74dfff09433f1bc700c2c69ba10a098366aca1b6e46ad872ceffffffff0143f80900000000001976a91437756acf29fb682b58934aaca317387772a8caa988ac00000000", "vin": [{"sequence": 4294967295, "scriptSig": {"hex": "483045022100ef7887dba654d4529474fbbd621252a673915ea5b735f27880a6f96f9240ddb402207403607db4dde6e25af500b30ed5faab56ffc18a24777985b2e2197cf463d4ce012102f85992e0a33d6b8c060660435f5630e9ad7e1c25ef56836565a39d09bd97e91f", "asm": "3045022100ef7887dba654d4529474fbbd621252a673915ea5b735f27880a6f96f9240ddb402207403607db4dde6e25af500b30ed5faab56ffc18a24777985b2e2197cf463d4ce[ALL] 02f85992e0a33d6b8c060660435f5630e9ad7e1c25ef56836565a39d09bd97e91f"}, "vout": 0, "txid": "539b2bb5844a688a1f1daf76abd8ec170cf925a405556c7c69c0b99f738ca8a7"}, {"sequence": 4294967295, "scriptSig": {"hex": "47304402203d625ccf57e659064384ca7f5d59f5b29fe05e6c3caa91b36d89a6759e20128002200ec398bb72e54fd875f053322203aadfffbceb070e5fcc219134171d6c662c26012102b24b1a7a7a3f3b74dfff09433f1bc700c2c69ba10a098366aca1b6e46ad872ce", "asm": "304402203d625ccf57e659064384ca7f5d59f5b29fe05e6c3caa91b36d89a6759e20128002200ec398bb72e54fd875f053322203aadfffbceb070e5fcc219134171d6c662c26[ALL] 02b24b1a7a7a3f3b74dfff09433f1bc700c2c69ba10a098366aca1b6e46ad872ce"}, "vout": 0, "txid": "6d2dc967f23a13e9a442492af7d392015588ed8a36b3f2087ea41023a9c8098a"}], "txid": "f5b820a81d059c7f593db54917980545976e29ad94bb3d927a3ed740d6b0013d", "blocktime": 1537875543, "version": 1, "confirmations": 11464, "time": 1537875543, "locktime": 0, "vsize": 339, "size": 339}