{"hash": "f5a06a553dbf4e020ae3cf92149437f635f8da20a9514bf5a3a23e8141031683", "blockhash": "0000000000000000001cda96e906b7601b7a6fb1a3b62bca570a9e5d8f4b3de1", "vout": [{"scriptPubKey": {"reqSigs": 1, "hex": "a91419cf711ae9e694d5617e9c96fb5ffa59bbee373187", "addresses": ["343VKeddUe8v3oyUvtURAAEyaEpyduGjWS"], "asm": "OP_HASH160 19cf711ae9e694d5617e9c96fb5ffa59bbee3731 OP_EQUAL", "type": "scripthash"}, "value": 0.01300327, "n": 0}, {"scriptPubKey": {"reqSigs": 1, "hex": "a91487da9a105b02a58683650a7abade0eaaadcdc60287", "addresses": ["3E5M2AHzHESRHBZLFwPKBrDA3J9PXFQHuS"], "asm": "OP_HASH160 87da9a105b02a58683650a7abade0eaaadcdc602 OP_EQUAL", "type": "scripthash"}, "value": 0.08812638, "n": 1}], "hex": "01000000000101a89219020148f6f549b35560ee84a2ed21bb7c4139177735246ad3ef5d72f43402000000232200202c93bb76167030cb947019e784aec9447c52dd914b1617fac9429182b92be2c0ffffffff0267d713000000000017a91419cf711ae9e694d5617e9c96fb5ffa59bbee3731875e7886000000000017a91487da9a105b02a58683650a7abade0eaaadcdc602870300483045022100c904f6976b8bca48fc19667d89fd9e9144bba563f824c3bcfb9173163362744d02207ea6223c902615677929239a0befd7e9042548a6cddd393fa39b3b30ce86da48018b512102b7317bc1e792ffa2c1821c8794391f8df63fcddc04dcb6f605fc42a550a9715921030fad42c3e2a8500076f699a73da4cc5b02277928e2456f94df614591eedf1da721031a1d074da78973a5127770484d35f30a8e721d94bf466ee7f1c82705f0cddc9221039b2f09b184dcf784ad3277cf4f0049b72149a3c38b33347ab0caab4937db85d754ae00000000", "vin": [{"txinwitness": ["", "3045022100c904f6976b8bca48fc19667d89fd9e9144bba563f824c3bcfb9173163362744d02207ea6223c902615677929239a0befd7e9042548a6cddd393fa39b3b30ce86da4801", "512102b7317bc1e792ffa2c1821c8794391f8df63fcddc04dcb6f605fc42a550a9715921030fad42c3e2a8500076f699a73da4cc5b02277928e2456f94df614591eedf1da721031a1d074da78973a5127770484d35f30a8e721d94bf466ee7f1c82705f0cddc9221039b2f09b184dcf784ad3277cf4f0049b72149a3c38b33347ab0caab4937db85d754ae"], "sequence": 4294967295, "scriptSig": {"hex": "2200202c93bb76167030cb947019e784aec9447c52dd914b1617fac9429182b92be2c0", "asm": "00202c93bb76167030cb947019e784aec9447c52dd914b1617fac9429182b92be2c0"}, "vout": 2, "txid": "34f4725defd36a2435771739417cbb21eda284ee6055b349f5f64801021992a8"}], "txid": "f5bd15fe9dbdf9d54c41ea90f636339fb162059d743bdb8e17899bef326958c7", "blocktime": 1537873282, "version": 1, "confirmations": 11484, "time": 1537873282, "locktime": 0, "vsize": 205, "size": 367}