{"hash": "f5c1c2f62c741045f66e98489b205bf179649e394cbc21fc6395fcad214cb88f", "blockhash": "000000000000000000022b45ed06c6f4ccd3cf7fb5ba4856ebd2e58215665228", "vout": [{"scriptPubKey": {"reqSigs": 1, "hex": "a914808f1e8edf0661363a28e5ee51ef2c6b9514ee1387", "addresses": ["3DQmsCuMoAF8GKjm2JzYyJJamUcB3GwBSC"], "asm": "OP_HASH160 808f1e8edf0661363a28e5ee51ef2c6b9514ee13 OP_EQUAL", "type": "scripthash"}, "value": 0.00024332, "n": 0}, {"scriptPubKey": {"reqSigs": 1, "hex": "76a9142f1481f2c4b32835fd94884a4c5a28793bbf70ae88ac", "addresses": ["15HwKumYoDaxKmKtv3ULJFFWntZ9CHrjJs"], "asm": "OP_DUP OP_HASH160 2f1481f2c4b32835fd94884a4c5a28793bbf70ae OP_EQUALVERIFY OP_CHECKSIG", "type": "pubkeyhash"}, "value": 0.0002808, "n": 1}], "hex": "010000000157f64cee33e298c5512962ba4140207f17e8aee1837f8006c96aeacbedd87211000000006a47304402204e73d3d488d91793485e4240ba77fe15643b546c817ff5bf526090d537a8ee3702200a78a135f96d16eac56fa51ecbe7c4b62d48f1c15237a3c5654caaba234e17f401210281a39c6ee5292f92c3ba198100ea968df7f868d022f16380a811d6a3987999c3ffffffff020c5f00000000000017a914808f1e8edf0661363a28e5ee51ef2c6b9514ee1387b06d0000000000001976a9142f1481f2c4b32835fd94884a4c5a28793bbf70ae88ac00000000", "vin": [{"sequence": 4294967295, "scriptSig": {"hex": "47304402204e73d3d488d91793485e4240ba77fe15643b546c817ff5bf526090d537a8ee3702200a78a135f96d16eac56fa51ecbe7c4b62d48f1c15237a3c5654caaba234e17f401210281a39c6ee5292f92c3ba198100ea968df7f868d022f16380a811d6a3987999c3", "asm": "304402204e73d3d488d91793485e4240ba77fe15643b546c817ff5bf526090d537a8ee3702200a78a135f96d16eac56fa51ecbe7c4b62d48f1c15237a3c5654caaba234e17f4[ALL] 0281a39c6ee5292f92c3ba198100ea968df7f868d022f16380a811d6a3987999c3"}, "vout": 0, "txid": "1172d8edcbea6ac906807f83e1aee8177f204041ba622951c598e233ee4cf657"}], "txid": "f5c1c2f62c741045f66e98489b205bf179649e394cbc21fc6395fcad214cb88f", "blocktime": 1537869901, "version": 1, "confirmations": 11522, "time": 1537869901, "locktime": 0, "vsize": 223, "size": 223}