{"hash": "f5c2460bee7ee0ff2390f908d2df19089a8f2c8f9ea1637711b37e8ebe9bbe6b", "blockhash": "0000000000000000000e13cef7c366c0283d82e591d1acd082e914b08063cdf1", "vout": [{"scriptPubKey": {"reqSigs": 1, "hex": "76a914023bcd24ad3014f38203619dd634df1e2e25a03288ac", "addresses": ["1CozTK9HTihpg31XfKKuua9hntKQsaqdG"], "asm": "OP_DUP OP_HASH160 023bcd24ad3014f38203619dd634df1e2e25a032 OP_EQUALVERIFY OP_CHECKSIG", "type": "pubkeyhash"}, "value": 0.004062, "n": 0}, {"scriptPubKey": {"reqSigs": 1, "hex": "76a91414a5049101cc40054997f9019472916d3afa9dc988ac", "addresses": ["12tACUfYCT9i7TjZhM4FFbuo11bMVXLC6w"], "asm": "OP_DUP OP_HASH160 14a5049101cc40054997f9019472916d3afa9dc9 OP_EQUALVERIFY OP_CHECKSIG", "type": "pubkeyhash"}, "value": 0.01100485, "n": 1}], "hex": "01000000019d942f7671f3651858754b2a868b3a1f832e658ce4d5484e632d263dae466c0f000000006b483045022100c15aee1255666045b1faf99b14ccabdaf318ec7a9be6dadf1999c346707d473602201086d5591e7b20347316b319b53f303547169ee6d9521be81c9539507315e3b901210365821ab659a1ba7405d21ddd8a6ca9305004bbf4833f0a2e89e311795da33885ffffffff02b8320600000000001976a914023bcd24ad3014f38203619dd634df1e2e25a03288acc5ca1000000000001976a91414a5049101cc40054997f9019472916d3afa9dc988ac00000000", "vin": [{"sequence": 4294967295, "scriptSig": {"hex": "483045022100c15aee1255666045b1faf99b14ccabdaf318ec7a9be6dadf1999c346707d473602201086d5591e7b20347316b319b53f303547169ee6d9521be81c9539507315e3b901210365821ab659a1ba7405d21ddd8a6ca9305004bbf4833f0a2e89e311795da33885", "asm": "3045022100c15aee1255666045b1faf99b14ccabdaf318ec7a9be6dadf1999c346707d473602201086d5591e7b20347316b319b53f303547169ee6d9521be81c9539507315e3b9[ALL] 0365821ab659a1ba7405d21ddd8a6ca9305004bbf4833f0a2e89e311795da33885"}, "vout": 0, "txid": "0f6c46ae3d262d634e48d5e48c652e831f3a8b862a4b75581865f371762f949d"}], "txid": "f5c2460bee7ee0ff2390f908d2df19089a8f2c8f9ea1637711b37e8ebe9bbe6b", "blocktime": 1537871767, "version": 1, "confirmations": 11495, "time": 1537871767, "locktime": 0, "vsize": 226, "size": 226}