{"hash": "f5c7af0d1149ead15b9a11b522ecd405a49581f93ee8c3c9140853434cf7c538", "blockhash": "0000000000000000001cda96e906b7601b7a6fb1a3b62bca570a9e5d8f4b3de1", "vout": [{"scriptPubKey": {"reqSigs": 1, "hex": "76a914100a6b6ae349b52300e2e09b2840a7f4cb07c37f88ac", "addresses": ["12TpJ35Kk1AxnfJHTKfh25dpQ6f9tXtiZk"], "asm": "OP_DUP OP_HASH160 100a6b6ae349b52300e2e09b2840a7f4cb07c37f OP_EQUALVERIFY OP_CHECKSIG", "type": "pubkeyhash"}, "value": 0.000737, "n": 0}, {"scriptPubKey": {"reqSigs": 1, "hex": "76a914d5a57560026b41e0b245618a81f8ec50d96af25a88ac", "addresses": ["1LUf97q5fo2A5dajPre9MxYdKG1fDP7hzx"], "asm": "OP_DUP OP_HASH160 d5a57560026b41e0b245618a81f8ec50d96af25a OP_EQUALVERIFY OP_CHECKSIG", "type": "pubkeyhash"}, "value": 0.01, "n": 1}], "hex": "01000000016be976ddab71eef6291a6294c1b46277e92d009ce0a8661ef97475503035ffda000000006a4730440220673213025e89fd41db90106b80fe156c4d80e7c790202594e359155ba5ca99590220081b1a1cf2c75eabf8ac238227e417cf79d00e5518ea64003581b14bb643e14301210386092ff07e4a689268207996f06d19a55bedc0d478eb566e8f4657502d1d6dbbfeffffff02e41f0100000000001976a914100a6b6ae349b52300e2e09b2840a7f4cb07c37f88ac40420f00000000001976a914d5a57560026b41e0b245618a81f8ec50d96af25a88ac00000000", "vin": [{"sequence": 4294967294, "scriptSig": {"hex": "4730440220673213025e89fd41db90106b80fe156c4d80e7c790202594e359155ba5ca99590220081b1a1cf2c75eabf8ac238227e417cf79d00e5518ea64003581b14bb643e14301210386092ff07e4a689268207996f06d19a55bedc0d478eb566e8f4657502d1d6dbb", "asm": "30440220673213025e89fd41db90106b80fe156c4d80e7c790202594e359155ba5ca99590220081b1a1cf2c75eabf8ac238227e417cf79d00e5518ea64003581b14bb643e143[ALL] 0386092ff07e4a689268207996f06d19a55bedc0d478eb566e8f4657502d1d6dbb"}, "vout": 0, "txid": "daff3530507574f91e66a8e09c002de97762b4c194621a29f6ee71abdd76e96b"}], "txid": "f5c7af0d1149ead15b9a11b522ecd405a49581f93ee8c3c9140853434cf7c538", "blocktime": 1537873282, "version": 1, "confirmations": 11480, "time": 1537873282, "locktime": 0, "vsize": 225, "size": 225}