{"hash": "f5cca869beaaa0d1be3ece86e69c536674ad9541c022050c7bdd79d8b2b78e95", "blockhash": "0000000000000000001e0dab787dd257d1dbfcb92a98c2207d5e1078be1f4165", "vout": [{"scriptPubKey": {"reqSigs": 1, "hex": "a9148d9db9e02841171d9994cc5ecc445583e700cf5187", "addresses": ["3Ebp9bGyCTzi7R3BjfrYxwH1p3X6fXogPQ"], "asm": "OP_HASH160 8d9db9e02841171d9994cc5ecc445583e700cf51 OP_EQUAL", "type": "scripthash"}, "value": 0.01494808, "n": 0}], "hex": "01000000011e2372f9588389676f0c62a4d9331cec77cff6ffa8250468a3b754b1649601ec000000006b483045022100d8657806bdc8576efbefc1a52d4f4b415976e34322985ab68486d4f858f70bd602200ae4adca60c8d8113ab62269f10656d2fd8de2343065339934bd71b6fcce45b5012102a636c7631271c9b5e67022517f688e28a31ad529df968aaef236fb317fdfd8c5ffffffff0118cf16000000000017a9148d9db9e02841171d9994cc5ecc445583e700cf518700000000", "vin": [{"sequence": 4294967295, "scriptSig": {"hex": "483045022100d8657806bdc8576efbefc1a52d4f4b415976e34322985ab68486d4f858f70bd602200ae4adca60c8d8113ab62269f10656d2fd8de2343065339934bd71b6fcce45b5012102a636c7631271c9b5e67022517f688e28a31ad529df968aaef236fb317fdfd8c5", "asm": "3045022100d8657806bdc8576efbefc1a52d4f4b415976e34322985ab68486d4f858f70bd602200ae4adca60c8d8113ab62269f10656d2fd8de2343065339934bd71b6fcce45b5[ALL] 02a636c7631271c9b5e67022517f688e28a31ad529df968aaef236fb317fdfd8c5"}, "vout": 0, "txid": "ec019664b154b7a3680425a8fff6cf77ec1c33d9a4620c6f67898358f972231e"}], "txid": "f5cca869beaaa0d1be3ece86e69c536674ad9541c022050c7bdd79d8b2b78e95", "blocktime": 1537872475, "version": 1, "confirmations": 11486, "time": 1537872475, "locktime": 0, "vsize": 190, "size": 190}