{"hash": "f5d170f70a5e647031f076d0f9fdce93b5e7721134f31447063c27d698a9d26b", "blockhash": "00000000000000000017f5eb5941039fbcee6240d03bc1f2f8e35350df66a1d8", "vout": [{"scriptPubKey": {"type": "nulldata", "hex": "6a146f6d6e69000000000000001f0000002b00fa5700", "asm": "OP_RETURN 6f6d6e69000000000000001f0000002b00fa5700"}, "value": 0.0, "n": 0}, {"scriptPubKey": {"reqSigs": 1, "hex": "76a914a25dec4d0011064ef106a983c39c7a540699f22088ac", "addresses": ["1FoWyxwPXuj4C6abqwhjDWdz6D4PZgYRjA"], "asm": "OP_DUP OP_HASH160 a25dec4d0011064ef106a983c39c7a540699f220 OP_EQUALVERIFY OP_CHECKSIG", "type": "pubkeyhash"}, "value": 0.01990447, "n": 1}, {"scriptPubKey": {"reqSigs": 1, "hex": "76a914e69287716c0db6117cd3ba30a4f52c3a9a9e462188ac", "addresses": ["1N29x96XSxaiBvR7hUFaxxz9qhKZaxFN59"], "asm": "OP_DUP OP_HASH160 e69287716c0db6117cd3ba30a4f52c3a9a9e4621 OP_EQUALVERIFY OP_CHECKSIG", "type": "pubkeyhash"}, "value": 5.46e-06, "n": 2}], "hex": "010000000113b7984ba594f0136959bd6b1d34c514a20f2e4816da21b0dcb4b4a6ce9d1852020000006a47304402207a2a9743fd763956f6436b942327bf77257f2789c25bfc4e94e6b7edc1ce5cc4022076ffae97388a6b3a46a33d56333a4528e8fe3d4b6cc8e3d071c73ee97dc86f09012103da5bac7b36d5aa38f531c6b9601e21bb598a4b6716ebed38b009a55dabde9440feffffff030000000000000000166a146f6d6e69000000000000001f0000002b00fa57002f5f1e00000000001976a914a25dec4d0011064ef106a983c39c7a540699f22088ac22020000000000001976a914e69287716c0db6117cd3ba30a4f52c3a9a9e462188ac15490800", "vin": [{"sequence": 4294967294, "scriptSig": {"hex": "47304402207a2a9743fd763956f6436b942327bf77257f2789c25bfc4e94e6b7edc1ce5cc4022076ffae97388a6b3a46a33d56333a4528e8fe3d4b6cc8e3d071c73ee97dc86f09012103da5bac7b36d5aa38f531c6b9601e21bb598a4b6716ebed38b009a55dabde9440", "asm": "304402207a2a9743fd763956f6436b942327bf77257f2789c25bfc4e94e6b7edc1ce5cc4022076ffae97388a6b3a46a33d56333a4528e8fe3d4b6cc8e3d071c73ee97dc86f09[ALL] 03da5bac7b36d5aa38f531c6b9601e21bb598a4b6716ebed38b009a55dabde9440"}, "vout": 2, "txid": "52189dcea6b4b4dcb021da16482e0fa214c5341d6bbd596913f094a54b98b713"}], "txid": "f5d170f70a5e647031f076d0f9fdce93b5e7721134f31447063c27d698a9d26b", "blocktime": 1537874412, "version": 1, "confirmations": 11467, "time": 1537874412, "locktime": 542997, "vsize": 256, "size": 256}