{"hash": "55dc76b0f236857cc46fe5c3e2848e212eea88684445fe39aea27f2fdc028997", "blockhash": "0000000000000000000baef3f32e3676a92c3b2e5da21b426e4f302fc371ce76", "vout": [{"scriptPubKey": {"reqSigs": 1, "hex": "76a9145345084f6a737ddcb3939ac5dbee4bebc0940ac188ac", "addresses": ["18bHnP8DwgFufgLZxigbu37futfKeRSNod"], "asm": "OP_DUP OP_HASH160 5345084f6a737ddcb3939ac5dbee4bebc0940ac1 OP_EQUALVERIFY OP_CHECKSIG", "type": "pubkeyhash"}, "value": 0.02254656, "n": 0}, {"scriptPubKey": {"reqSigs": 1, "hex": "a914a213c068d328cc0a4a6d27b318da0dd1acf1682687", "addresses": ["3GU13z7PWNJxU3GTGnWFVHSbvNJcwZ5f1L"], "asm": "OP_HASH160 a213c068d328cc0a4a6d27b318da0dd1acf16826 OP_EQUAL", "type": "scripthash"}, "value": 0.02676817, "n": 1}], "hex": "020000000001020fc426e6b85e4e7fae8f65cdfb8867601b1a2a2b3b78ec8d5ce9c67fa374ecb6000000006a473044022034ccf39e335f244d6933f3f1a4e504ff37f2570829b69bef52d7eefe5133282e022028d7b46b989307990a5a59d6e7a353527d828dcdb60af2e4c2bd59737bec69110121029b314e8f79579473f32bd6a4ef30cbb76c5bfdc4ab2e8836774e9f585f635278feffffff12396bcf1f54ab4f47f8e649df982b5eaa14f64b4e29c6173584b92b1d27969601000000171600145c273662b228a13749e2e35465c216f06944f241feffffff0240672200000000001976a9145345084f6a737ddcb3939ac5dbee4bebc0940ac188ac51d828000000000017a914a213c068d328cc0a4a6d27b318da0dd1acf16826870002483045022100a20191ec984a7f59a8faebbcf78466cae149e43fbae07d56b7efe8e2e89a07c302205314d9846ac2a1eb3b69d3625532b6288e7562f1e8d866fef42ec286c78a03b8012103a6e816d66e159f57b5bf855ca428c420e226f3b5b938150d0c048a01c7ecdef517490800", "vin": [{"sequence": 4294967294, "scriptSig": {"hex": "473044022034ccf39e335f244d6933f3f1a4e504ff37f2570829b69bef52d7eefe5133282e022028d7b46b989307990a5a59d6e7a353527d828dcdb60af2e4c2bd59737bec69110121029b314e8f79579473f32bd6a4ef30cbb76c5bfdc4ab2e8836774e9f585f635278", "asm": "3044022034ccf39e335f244d6933f3f1a4e504ff37f2570829b69bef52d7eefe5133282e022028d7b46b989307990a5a59d6e7a353527d828dcdb60af2e4c2bd59737bec6911[ALL] 029b314e8f79579473f32bd6a4ef30cbb76c5bfdc4ab2e8836774e9f585f635278"}, "vout": 0, "txid": "b6ec74a37fc6e95c8dec783b2b2a1a1b606788fbcd658fae7f4e5eb8e626c40f"}, {"txinwitness": ["3045022100a20191ec984a7f59a8faebbcf78466cae149e43fbae07d56b7efe8e2e89a07c302205314d9846ac2a1eb3b69d3625532b6288e7562f1e8d866fef42ec286c78a03b801", "03a6e816d66e159f57b5bf855ca428c420e226f3b5b938150d0c048a01c7ecdef5"], "sequence": 4294967294, "scriptSig": {"hex": "1600145c273662b228a13749e2e35465c216f06944f241", "asm": "00145c273662b228a13749e2e35465c216f06944f241"}, "vout": 1, "txid": "9696271d2bb9843517c6294e4bf614aa5e2b98df49e6f8474fab541fcf6b3912"}], "txid": "f5d7012a4b5c4827284eab27c10506e8f683de47e413ddcaa8be235ef461ba8a", "blocktime": 1537876114, "version": 2, "confirmations": 11459, "time": 1537876114, "locktime": 542999, "vsize": 315, "size": 398}