{"hash": "f3641d9290a9191ca73e688e378f4dda033ba604c651e0658b522136efeab28f", "blockhash": "0000000000000000000dcc0f55137456b1a82d3642486a52398922ac4d620174", "vout": [{"scriptPubKey": {"reqSigs": 1, "hex": "76a9141c582195da0c1bfbb271744a815fd7d0efb539ab88ac", "addresses": ["13asVqNAtJPiMC1BoSc41qb3TujdQZLfMv"], "asm": "OP_DUP OP_HASH160 1c582195da0c1bfbb271744a815fd7d0efb539ab OP_EQUALVERIFY OP_CHECKSIG", "type": "pubkeyhash"}, "value": 9.9e-05, "n": 0}, {"scriptPubKey": {"reqSigs": 1, "hex": "a914414cec0fc72a9410f6836edaf08de1aa3b2a321c87", "addresses": ["37eHzewnAFRR2SVZu8rZM3nBsmuE2XBU7D"], "asm": "OP_HASH160 414cec0fc72a9410f6836edaf08de1aa3b2a321c OP_EQUAL", "type": "scripthash"}, "value": 0.31206859, "n": 1}], "hex": "010000000001018c0663ce519c9396546116c264af72b125f9e4208e87cf41bc31b3ff7e63c8140100000023220020ce74cde37cfb8dd71d0179287e12fc721ee236ce3c89c2745bcd365b39807eb3ffffffff02ac260000000000001976a9141c582195da0c1bfbb271744a815fd7d0efb539ab88accb2ddc010000000017a914414cec0fc72a9410f6836edaf08de1aa3b2a321c8704004730440220115c065964e6fadc329e11eb5901516be1673581e3def11b8cb22d7d7214293e022018355736d65b05d1f5f81b241aecc6be3b64eda862b3c8a8d3091855142aab9e01483045022100beef6f369484fc7a54fc12318bb9031c1d98be4aebb168ae187b1a14c8df54d3022010d1ac03bee26c4a9297923c980c8a6cb08bcc5b14a65f9eb397c2b15a45eace0147522103ada901d90d5a76319a60f228e0b1bbc84b1d9a87238550bae5d5d190067b66712103871fc2ca08e6950b38867e8e6a0e94ee625223d3aa0df5c65f414c6d784467e252ae00000000", "vin": [{"txinwitness": ["", "30440220115c065964e6fadc329e11eb5901516be1673581e3def11b8cb22d7d7214293e022018355736d65b05d1f5f81b241aecc6be3b64eda862b3c8a8d3091855142aab9e01", "3045022100beef6f369484fc7a54fc12318bb9031c1d98be4aebb168ae187b1a14c8df54d3022010d1ac03bee26c4a9297923c980c8a6cb08bcc5b14a65f9eb397c2b15a45eace01", "522103ada901d90d5a76319a60f228e0b1bbc84b1d9a87238550bae5d5d190067b66712103871fc2ca08e6950b38867e8e6a0e94ee625223d3aa0df5c65f414c6d784467e252ae"], "sequence": 4294967295, "scriptSig": {"hex": "220020ce74cde37cfb8dd71d0179287e12fc721ee236ce3c89c2745bcd365b39807eb3", "asm": "0020ce74cde37cfb8dd71d0179287e12fc721ee236ce3c89c2745bcd365b39807eb3"}, "vout": 1, "txid": "14c8637effb331bc41cf878e20e4f925b172af64c216615496939c51ce63068c"}], "txid": "f5dbce83e26c6f433beff3f7e119adf354a28f4aeda0b7fa60ad1191bd4b3f9d", "blocktime": 1537870268, "version": 1, "confirmations": 11518, "time": 1537870268, "locktime": 0, "vsize": 208, "size": 373}