{"hash": "8c021cd0039ca899ff5d3d9b1739bc73ae2b874c73f4a253a931046425aa8c13", "blockhash": "0000000000000000001f76057863aec43deb6fa401d9628bb513d65a8098bfab", "vout": [{"scriptPubKey": {"reqSigs": 1, "hex": "a914f8733cb32844fb9c9aaff12d140e0749586a324e87", "addresses": ["3QLhYw2nMZmD6sueednVhUCMwZor3Prioy"], "asm": "OP_HASH160 f8733cb32844fb9c9aaff12d140e0749586a324e OP_EQUAL", "type": "scripthash"}, "value": 0.02366121, "n": 0}, {"scriptPubKey": {"reqSigs": 1, "hex": "a91447292b94728d44925b3dbd91f575440c8f69525387", "addresses": ["38BHDip6R2SD2RnTPGWyHrEtXnua5gcDhF"], "asm": "OP_HASH160 47292b94728d44925b3dbd91f575440c8f695253 OP_EQUAL", "type": "scripthash"}, "value": 0.1690308, "n": 1}], "hex": "010000000001018088ecd52ba75a9a22b259b09a92bf41610340c353cc4f1b452a8e9d57f80bd501000000232200202479584def7c84d4af19954b9f633d85a5ec77988f5bc1bf58e36f3db7509e15ffffffff02a91a24000000000017a914f8733cb32844fb9c9aaff12d140e0749586a324e87a8eb01010000000017a91447292b94728d44925b3dbd91f575440c8f695253870400473044022026bdae952359832ab63f186f0faf87899b89f230d26987bfbda60ee5ebca3dc10220300abae7fdfc71d45fbae64f3d9e2b67fda363aacaf61b836a6ec0f45b95fafb01483045022100eb8b7fbc5e589468bff7074e4e3da90e1e15898910f513bdfcab7b271ce5fe5602206be5a199d4f04595d120b85ace216d7c9308089e2ea617c8cb4e27b5ea5a17ad0169522102135f719c3ccdc31132ba3ade888933058bbc90e853945a41c542d5a949a46b3221036d5593bcd553a898c4bb56af8dee8c38ef39d0d86a0f53ce65a2e244ba41258e210342fd14bc83ad2a7ebdc034b4db56595d6c9a925e2a60f23974f65fbbd5e4f45c53ae00000000", "vin": [{"txinwitness": ["", "3044022026bdae952359832ab63f186f0faf87899b89f230d26987bfbda60ee5ebca3dc10220300abae7fdfc71d45fbae64f3d9e2b67fda363aacaf61b836a6ec0f45b95fafb01", "3045022100eb8b7fbc5e589468bff7074e4e3da90e1e15898910f513bdfcab7b271ce5fe5602206be5a199d4f04595d120b85ace216d7c9308089e2ea617c8cb4e27b5ea5a17ad01", "522102135f719c3ccdc31132ba3ade888933058bbc90e853945a41c542d5a949a46b3221036d5593bcd553a898c4bb56af8dee8c38ef39d0d86a0f53ce65a2e244ba41258e210342fd14bc83ad2a7ebdc034b4db56595d6c9a925e2a60f23974f65fbbd5e4f45c53ae"], "sequence": 4294967295, "scriptSig": {"hex": "2200202479584def7c84d4af19954b9f633d85a5ec77988f5bc1bf58e36f3db7509e15", "asm": "00202479584def7c84d4af19954b9f633d85a5ec77988f5bc1bf58e36f3db7509e15"}, "vout": 1, "txid": "d50bf8579d8e2a451b4fcc53c340036141bf929ab059b2229a5aa72bd5ec8880"}], "txid": "f5dd01ecd21f20a02917cf41d2379a0ca27c345bfc9a75849ab721160d782ef0", "blocktime": 1537873891, "version": 1, "confirmations": 11478, "time": 1537873891, "locktime": 0, "vsize": 214, "size": 405}