{"hash": "f5def4e719c36a10fdc0dc559441a0f1d8ffdfff11d0d2328c37b4cfe15c6e87", "blockhash": "0000000000000000000dcc0f55137456b1a82d3642486a52398922ac4d620174", "vout": [{"scriptPubKey": {"reqSigs": 1, "hex": "76a914869dc5b74a8a3e5eb0340283646ecb91d0cd436e88ac", "addresses": ["1DGnYvHsos7sgNAaMrhnonrExZmyKcYohF"], "asm": "OP_DUP OP_HASH160 869dc5b74a8a3e5eb0340283646ecb91d0cd436e OP_EQUALVERIFY OP_CHECKSIG", "type": "pubkeyhash"}, "value": 0.0093, "n": 0}, {"scriptPubKey": {"reqSigs": 1, "hex": "76a9144c3447486840346f631bc7b9659ea18045124d6d88ac", "addresses": ["17wvyx4nMcdh4tHdBvyxRSFFJdmPsdD5aB"], "asm": "OP_DUP OP_HASH160 4c3447486840346f631bc7b9659ea18045124d6d OP_EQUALVERIFY OP_CHECKSIG", "type": "pubkeyhash"}, "value": 0.29069427, "n": 1}], "hex": "01000000014f8d37bc85cd9c25cb97f1142a440dedc510fd4f371cfef09d76863b1c3b431d000000006a4730440220054d496d66ba8581beefc1b14d2897549e0bcc3439bc8dc0c11e6f574af9176b0220572dd3a139901422daa62dd52f9dfb38e004db307aa4f291812c6506c79545030121026934289581930c7f65f572653b77b8cd2d3e5b5a3b0cdb8ac48109ea453918d1ffffffff02d0300e00000000001976a914869dc5b74a8a3e5eb0340283646ecb91d0cd436e88ac7390bb01000000001976a9144c3447486840346f631bc7b9659ea18045124d6d88ac00000000", "vin": [{"sequence": 4294967295, "scriptSig": {"hex": "4730440220054d496d66ba8581beefc1b14d2897549e0bcc3439bc8dc0c11e6f574af9176b0220572dd3a139901422daa62dd52f9dfb38e004db307aa4f291812c6506c79545030121026934289581930c7f65f572653b77b8cd2d3e5b5a3b0cdb8ac48109ea453918d1", "asm": "30440220054d496d66ba8581beefc1b14d2897549e0bcc3439bc8dc0c11e6f574af9176b0220572dd3a139901422daa62dd52f9dfb38e004db307aa4f291812c6506c7954503[ALL] 026934289581930c7f65f572653b77b8cd2d3e5b5a3b0cdb8ac48109ea453918d1"}, "vout": 0, "txid": "1d433b1c3b86769df0fe1c374ffd10c5ed0d442a14f197cb259ccd85bc378d4f"}], "txid": "f5def4e719c36a10fdc0dc559441a0f1d8ffdfff11d0d2328c37b4cfe15c6e87", "blocktime": 1537870268, "version": 1, "confirmations": 11518, "time": 1537870268, "locktime": 0, "vsize": 225, "size": 225}