{"hash": "0c0f621763ee841be530865dd98872ae008728969ced5537677e827c243ab321", "blockhash": "0000000000000000001f76057863aec43deb6fa401d9628bb513d65a8098bfab", "vout": [{"scriptPubKey": {"reqSigs": 1, "hex": "a914c8948f84ab8bc2187580e4fb86ecf2a0a06e11cf87", "addresses": ["3Kyb35jwJ7YCiAF7JRfW5VZdpyywKap5YB"], "asm": "OP_HASH160 c8948f84ab8bc2187580e4fb86ecf2a0a06e11cf OP_EQUAL", "type": "scripthash"}, "value": 3.869e-05, "n": 0}, {"scriptPubKey": {"reqSigs": 1, "hex": "a9141d7370ccde4590204155e4074f69743a8e4fac0287", "addresses": ["34Njp4ZKtmCDfqqps26wHBYQQGUo2pGkLi"], "asm": "OP_HASH160 1d7370ccde4590204155e4074f69743a8e4fac02 OP_EQUAL", "type": "scripthash"}, "value": 0.00014485, "n": 1}], "hex": "01000000000101af609dc1cc76a4aea95fe6336f83fc2eb6a46dfb64b1827e831b9fe36aeb765a0100000023220020f63dfc12340f6360d0251c22746d6b56093e3243e96ca012a65484a5d9cf0ec0ffffffff021d0f00000000000017a914c8948f84ab8bc2187580e4fb86ecf2a0a06e11cf87953800000000000017a9141d7370ccde4590204155e4074f69743a8e4fac02870400483045022100ecb5514c78f8eba031f6482587482da5bcd613a528704d7c100c780ded59b72f02205ec4ff4e6392d6ee2cde2406ca1b01bed40a3c8a2bd75b6371ae3b7365671f1901483045022100ad15f54940b9b2a630a9efec8941c8a41e54e69c65e78da52c55af6564585c16022063f5ff5b76740696a18d61e450d02540d52826ea6f1b2e511c23a3360f7ac45f0147522102097067a6a0cc130a9a6f6577b47bf369b840a79de31cd7457187994266b1bb7c2103338f346cab6ba87fe940591a03ac234be06520c5ab386d4b6632e8eef0d0db7652ae00000000", "vin": [{"txinwitness": ["", "3045022100ecb5514c78f8eba031f6482587482da5bcd613a528704d7c100c780ded59b72f02205ec4ff4e6392d6ee2cde2406ca1b01bed40a3c8a2bd75b6371ae3b7365671f1901", "3045022100ad15f54940b9b2a630a9efec8941c8a41e54e69c65e78da52c55af6564585c16022063f5ff5b76740696a18d61e450d02540d52826ea6f1b2e511c23a3360f7ac45f01", "522102097067a6a0cc130a9a6f6577b47bf369b840a79de31cd7457187994266b1bb7c2103338f346cab6ba87fe940591a03ac234be06520c5ab386d4b6632e8eef0d0db7652ae"], "sequence": 4294967295, "scriptSig": {"hex": "220020f63dfc12340f6360d0251c22746d6b56093e3243e96ca012a65484a5d9cf0ec0", "asm": "0020f63dfc12340f6360d0251c22746d6b56093e3243e96ca012a65484a5d9cf0ec0"}, "vout": 1, "txid": "5a76eb6ae39f1b837e82b164fb6da4b62efc836f33e65fa9aea476ccc19d60af"}], "txid": "f5de06d38243ae34e7210e0e8d4c50cde264917daefae1960db723c7dfad3ddc", "blocktime": 1537873891, "version": 1, "confirmations": 11478, "time": 1537873891, "locktime": 0, "vsize": 206, "size": 372}