{"hash": "f5e286c0956590fe6bf6167c9c2d278351a3f97f12bf4d109fc8d35cbe14d855", "blockhash": "0000000000000000001cda96e906b7601b7a6fb1a3b62bca570a9e5d8f4b3de1", "vout": [{"scriptPubKey": {"reqSigs": 1, "hex": "76a91457cd76345516ec56bb6ceea22abb80a0b6f67f3288ac", "addresses": ["191FvRR2hYJrK7zb8YXCGF31aVfhXu6kLM"], "asm": "OP_DUP OP_HASH160 57cd76345516ec56bb6ceea22abb80a0b6f67f32 OP_EQUALVERIFY OP_CHECKSIG", "type": "pubkeyhash"}, "value": 0.0197589, "n": 0}, {"scriptPubKey": {"reqSigs": 1, "hex": "76a914b7000f21da0c51f57e60d21e549ff4cbb32b839988ac", "addresses": ["1HgcjDJEwe6KBTnEoXURL6UNscdpw9Vehm"], "asm": "OP_DUP OP_HASH160 b7000f21da0c51f57e60d21e549ff4cbb32b8399 OP_EQUALVERIFY OP_CHECKSIG", "type": "pubkeyhash"}, "value": 0.00396261, "n": 1}], "hex": "010000000194e88bf0ff00ecd5309d56b710aae47320cd5d5e61dc5424ab6b7b96ea490506000000006b4830450221008731b42e7d6b6b45fe3707195403fa1a3d460f084581b02911bfb2a51825756b022071880be6ccd5fa2e421617b5010c9a8fb50967ee3c19c7b7a9548b1a24f590e7012103cd800f81d903544411cdc62af2f2fdef6ff55e37ae97454b628dfe16f214353effffffff0252261e00000000001976a91457cd76345516ec56bb6ceea22abb80a0b6f67f3288ace50b0600000000001976a914b7000f21da0c51f57e60d21e549ff4cbb32b839988ac00000000", "vin": [{"sequence": 4294967295, "scriptSig": {"hex": "4830450221008731b42e7d6b6b45fe3707195403fa1a3d460f084581b02911bfb2a51825756b022071880be6ccd5fa2e421617b5010c9a8fb50967ee3c19c7b7a9548b1a24f590e7012103cd800f81d903544411cdc62af2f2fdef6ff55e37ae97454b628dfe16f214353e", "asm": "30450221008731b42e7d6b6b45fe3707195403fa1a3d460f084581b02911bfb2a51825756b022071880be6ccd5fa2e421617b5010c9a8fb50967ee3c19c7b7a9548b1a24f590e7[ALL] 03cd800f81d903544411cdc62af2f2fdef6ff55e37ae97454b628dfe16f214353e"}, "vout": 0, "txid": "060549ea967b6bab2454dc615e5dcd2073e4aa10b7569d30d5ec00fff08be894"}], "txid": "f5e286c0956590fe6bf6167c9c2d278351a3f97f12bf4d109fc8d35cbe14d855", "blocktime": 1537873282, "version": 1, "confirmations": 11480, "time": 1537873282, "locktime": 0, "vsize": 226, "size": 226}