{"hash": "f5e56d62bc4a7da4fdb1a3713fb529805efd6e608d3d363fc468b6430a4f1073", "blockhash": "0000000000000000000e13cef7c366c0283d82e591d1acd082e914b08063cdf1", "vout": [{"scriptPubKey": {"reqSigs": 1, "hex": "76a914b8cd81394e812455a26c0b28165094066d8d2df088ac", "addresses": ["1Hr9X27s6DPppdKnBWGUzrgsKgkSc7bAem"], "asm": "OP_DUP OP_HASH160 b8cd81394e812455a26c0b28165094066d8d2df0 OP_EQUALVERIFY OP_CHECKSIG", "type": "pubkeyhash"}, "value": 0.0770097, "n": 0}, {"scriptPubKey": {"reqSigs": 1, "hex": "76a9141b9a19288fc46d04ec02b72fc3718bc7da717b6588ac", "addresses": ["13Wwr7gpZeSxq1ToVFNaLuWN99pR7HPWeT"], "asm": "OP_DUP OP_HASH160 1b9a19288fc46d04ec02b72fc3718bc7da717b65 OP_EQUALVERIFY OP_CHECKSIG", "type": "pubkeyhash"}, "value": 0.00087448, "n": 1}], "hex": "0100000001bb75bb9369c31dc0f4c58c3425293d8f56cbdc59d800c4f13263238751315d3a19000000db0048304502210095af24bf1f3c1a34f806e07e7c5d3ec6c89829f08475c99139ee2235c8d30d6b0220741727119584ffcfe4229e2fe45d9f4fd8845c6d54635cc43be146b572813f9901483045022100ccf0c59c5ead7427dc84f017beb8d4bc215c6bbf36da1e09ad9808ae67df5c8e022030809454c8ecd6e7c211d5222f088f1946e4f5f29c1e85b5146f9609eea9445d0147522102907a54bed8ad74b3f35638c60114ca240a308cb986f3f2f306178869a8880b612102f09e4bc5bd58bcefaa9d624f6f0f7075defb508649a48e5c1b3f30c809849c4b52aeffffffff02ea817500000000001976a914b8cd81394e812455a26c0b28165094066d8d2df088ac98550100000000001976a9141b9a19288fc46d04ec02b72fc3718bc7da717b6588ac00000000", "vin": [{"sequence": 4294967295, "scriptSig": {"hex": "0048304502210095af24bf1f3c1a34f806e07e7c5d3ec6c89829f08475c99139ee2235c8d30d6b0220741727119584ffcfe4229e2fe45d9f4fd8845c6d54635cc43be146b572813f9901483045022100ccf0c59c5ead7427dc84f017beb8d4bc215c6bbf36da1e09ad9808ae67df5c8e022030809454c8ecd6e7c211d5222f088f1946e4f5f29c1e85b5146f9609eea9445d0147522102907a54bed8ad74b3f35638c60114ca240a308cb986f3f2f306178869a8880b612102f09e4bc5bd58bcefaa9d624f6f0f7075defb508649a48e5c1b3f30c809849c4b52ae", "asm": "0 304502210095af24bf1f3c1a34f806e07e7c5d3ec6c89829f08475c99139ee2235c8d30d6b0220741727119584ffcfe4229e2fe45d9f4fd8845c6d54635cc43be146b572813f99[ALL] 3045022100ccf0c59c5ead7427dc84f017beb8d4bc215c6bbf36da1e09ad9808ae67df5c8e022030809454c8ecd6e7c211d5222f088f1946e4f5f29c1e85b5146f9609eea9445d[ALL] 522102907a54bed8ad74b3f35638c60114ca240a308cb986f3f2f306178869a8880b612102f09e4bc5bd58bcefaa9d624f6f0f7075defb508649a48e5c1b3f30c809849c4b52ae"}, "vout": 25, "txid": "3a5d315187236332f1c400d859dccb568f3d2925348cc5f4c01dc36993bb75bb"}], "txid": "f5e56d62bc4a7da4fdb1a3713fb529805efd6e608d3d363fc468b6430a4f1073", "blocktime": 1537871767, "version": 1, "confirmations": 11495, "time": 1537871767, "locktime": 0, "vsize": 338, "size": 338}