{"hash": "3af527934e9fbe12cf5635190d89f57f01ee0de78606e60bd337fd4e4803e7d8", "blockhash": "00000000000000000018f53835495a110e01622372bf6ae95dc86f2b0ab887b0", "vout": [{"scriptPubKey": {"reqSigs": 1, "hex": "76a914275a7c256cc5a16cef86b51fe7e9ec11552891b988ac", "addresses": ["14b5kVAkXdQXj24zYR5eMRyQcVFJxQ9P5o"], "asm": "OP_DUP OP_HASH160 275a7c256cc5a16cef86b51fe7e9ec11552891b9 OP_EQUALVERIFY OP_CHECKSIG", "type": "pubkeyhash"}, "value": 0.01771127, "n": 0}, {"scriptPubKey": {"reqSigs": 1, "hex": "a91468c52632cec7da1210f911643054953598d234b087", "addresses": ["3BEzNfKkzbv2L82AVr3vLUMVraWg4KzT6s"], "asm": "OP_HASH160 68c52632cec7da1210f911643054953598d234b0 OP_EQUAL", "type": "scripthash"}, "value": 0.04459779, "n": 1}, {"scriptPubKey": {"reqSigs": 1, "hex": "a9144792359d228772f86ca119942b8227b6bfc38e6687", "addresses": ["38DT3yPCPM8QJpWNfakAPDd8BqVXjuboUQ"], "asm": "OP_HASH160 4792359d228772f86ca119942b8227b6bfc38e66 OP_EQUAL", "type": "scripthash"}, "value": 13.75316472, "n": 2}], "hex": "02000000000101fc8008c766c55185e6dc65a47e2527b5fd988a1f370dbdb658d9cee23d4fb0070100000017160014149c9131809245c9bfcf310be470aadeeecdd209ffffffff0377061b00000000001976a914275a7c256cc5a16cef86b51fe7e9ec11552891b988ac030d44000000000017a91468c52632cec7da1210f911643054953598d234b087f8a9f9510000000017a9144792359d228772f86ca119942b8227b6bfc38e66870247304402205a8d9ab637996048f42942537be7d5b812974857dd5f69568647cb4f5098f5af022047775cd77aa464d5917d384ec9141a50a2bcd6b95962dc1507eb6511d77774e30121023eadfcf59441e802e1a438de69715d7d798e5a6f2ea4e35c04fd5272fd24cf9000000000", "vin": [{"txinwitness": ["304402205a8d9ab637996048f42942537be7d5b812974857dd5f69568647cb4f5098f5af022047775cd77aa464d5917d384ec9141a50a2bcd6b95962dc1507eb6511d77774e301", "023eadfcf59441e802e1a438de69715d7d798e5a6f2ea4e35c04fd5272fd24cf90"], "sequence": 4294967295, "scriptSig": {"hex": "160014149c9131809245c9bfcf310be470aadeeecdd209", "asm": "0014149c9131809245c9bfcf310be470aadeeecdd209"}, "vout": 1, "txid": "07b04f3de2ced958b6bd0d371f8a98fdb527257ea465dce68551c566c70880fc"}], "txid": "f5e80d8c37a5a3332ede86dcd50981011764b40573042e9e6a5e96d1ebbbeeab", "blocktime": 1537870928, "version": 2, "confirmations": 11512, "time": 1537870928, "locktime": 0, "vsize": 200, "size": 281}