{"hash": "f5ea06dffbf98308c50cf005b88bc2b5e9c7cc6def9693dacd88c04a96ab0f59", "blockhash": "00000000000000000017f5eb5941039fbcee6240d03bc1f2f8e35350df66a1d8", "vout": [{"scriptPubKey": {"type": "nulldata", "hex": "6a4c50000077f00001cc976e396876d674d1a4089cd19ed074892d00f8e87af8e8e963c7cfd5b98853840b3e68e9720b96e4622d4ab07b5baa181b06137458153121bd1d100759d4ba30d2c37bb011d97e02cf", "asm": "OP_RETURN 000077f00001cc976e396876d674d1a4089cd19ed074892d00f8e87af8e8e963c7cfd5b98853840b3e68e9720b96e4622d4ab07b5baa181b06137458153121bd1d100759d4ba30d2c37bb011d97e02cf"}, "value": 0.0, "n": 0}, {"scriptPubKey": {"reqSigs": 1, "hex": "76a914329b362a9dcb9250248966d12500fba2b727946488ac", "addresses": ["15cait93REuZfGzcjZudM465BgNpDmbRuL"], "asm": "OP_DUP OP_HASH160 329b362a9dcb9250248966d12500fba2b7279464 OP_EQUALVERIFY OP_CHECKSIG", "type": "pubkeyhash"}, "value": 0.00634746, "n": 1}], "hex": "0100000001ebce3bd7ed2c5a83e94180b904c618152382348a26da9ef520289587adce084d010000006a473044022064de6994dd2af49da3baf5260964e43b26e86c63e19e1ea590b26c3d5c3b57cc0220682faf1aed6eb39c5bf1725a3e35f5ffc2db833dc28f7f2e8aea53f9513c4380012102b805e1c3a907f308b587dd7cc95943926ddd2e9ae785b49cfcf170b4add25428ffffffff020000000000000000536a4c50000077f00001cc976e396876d674d1a4089cd19ed074892d00f8e87af8e8e963c7cfd5b98853840b3e68e9720b96e4622d4ab07b5baa181b06137458153121bd1d100759d4ba30d2c37bb011d97e02cf7aaf0900000000001976a914329b362a9dcb9250248966d12500fba2b727946488ac00000000", "vin": [{"sequence": 4294967295, "scriptSig": {"hex": "473044022064de6994dd2af49da3baf5260964e43b26e86c63e19e1ea590b26c3d5c3b57cc0220682faf1aed6eb39c5bf1725a3e35f5ffc2db833dc28f7f2e8aea53f9513c4380012102b805e1c3a907f308b587dd7cc95943926ddd2e9ae785b49cfcf170b4add25428", "asm": "3044022064de6994dd2af49da3baf5260964e43b26e86c63e19e1ea590b26c3d5c3b57cc0220682faf1aed6eb39c5bf1725a3e35f5ffc2db833dc28f7f2e8aea53f9513c4380[ALL] 02b805e1c3a907f308b587dd7cc95943926ddd2e9ae785b49cfcf170b4add25428"}, "vout": 1, "txid": "4d08cead87952820f59eda268a3482231518c604b98041e9835a2cedd73bceeb"}], "txid": "f5ea06dffbf98308c50cf005b88bc2b5e9c7cc6def9693dacd88c04a96ab0f59", "blocktime": 1537874412, "version": 1, "confirmations": 11467, "time": 1537874412, "locktime": 0, "vsize": 283, "size": 283}