{"hash": "f5eb1c3bfc6ad5ddf2c5344b661cda37e357808ed6c373c59b0ad32645c0da4e", "blockhash": "00000000000000000018f53835495a110e01622372bf6ae95dc86f2b0ab887b0", "vout": [{"scriptPubKey": {"reqSigs": 1, "hex": "76a9145a4eb89263ed15bb607fc9deccd2a8ae5d2ecdf888ac", "addresses": ["19EW7ttMiJv7PBow3iqeUG4KdybSug416m"], "asm": "OP_DUP OP_HASH160 5a4eb89263ed15bb607fc9deccd2a8ae5d2ecdf8 OP_EQUALVERIFY OP_CHECKSIG", "type": "pubkeyhash"}, "value": 0.00156208, "n": 0}, {"scriptPubKey": {"reqSigs": 1, "hex": "76a91407f049172e240113809d97d39d58db0e56d45c1c88ac", "addresses": ["1iyag25Koc6cX9c28PM3a1FAjGFEZLABY"], "asm": "OP_DUP OP_HASH160 07f049172e240113809d97d39d58db0e56d45c1c OP_EQUALVERIFY OP_CHECKSIG", "type": "pubkeyhash"}, "value": 0.01762163, "n": 1}], "hex": "01000000019bec762146d3f716d0bae3e9ffb368ef9558275860528616ea47ddb9d1565b9c000000006b483045022100a3fbf7cb1c99f5f61425e6290d97e12d3eea7377561339080288bb12708681af022045a9ddc6743e0efb6543a0d2c2c88234b8590405831abdacdc69ff922e62f16601210292198d9833fad7fdb1b3ddda4d2e8823f401dc174b73f7041f9aa7a6225474e7ffffffff0230620200000000001976a9145a4eb89263ed15bb607fc9deccd2a8ae5d2ecdf888ac73e31a00000000001976a91407f049172e240113809d97d39d58db0e56d45c1c88ac00000000", "vin": [{"sequence": 4294967295, "scriptSig": {"hex": "483045022100a3fbf7cb1c99f5f61425e6290d97e12d3eea7377561339080288bb12708681af022045a9ddc6743e0efb6543a0d2c2c88234b8590405831abdacdc69ff922e62f16601210292198d9833fad7fdb1b3ddda4d2e8823f401dc174b73f7041f9aa7a6225474e7", "asm": "3045022100a3fbf7cb1c99f5f61425e6290d97e12d3eea7377561339080288bb12708681af022045a9ddc6743e0efb6543a0d2c2c88234b8590405831abdacdc69ff922e62f166[ALL] 0292198d9833fad7fdb1b3ddda4d2e8823f401dc174b73f7041f9aa7a6225474e7"}, "vout": 0, "txid": "9c5b56d1b9dd47ea1686526058275895ef68b3ffe9e3bad016f7d3462176ec9b"}], "txid": "f5eb1c3bfc6ad5ddf2c5344b661cda37e357808ed6c373c59b0ad32645c0da4e", "blocktime": 1537870928, "version": 1, "confirmations": 11514, "time": 1537870928, "locktime": 0, "vsize": 226, "size": 226}