{"hash": "f5efe25128bdeb8b54600fd7b11c8198db35af380c24007b746e05fe0cba5705", "blockhash": "0000000000000000001e0dab787dd257d1dbfcb92a98c2207d5e1078be1f4165", "vout": [{"scriptPubKey": {"reqSigs": 1, "hex": "76a9140a6b825daa1b89f8e100ed8eec6d79b592500f4988ac", "addresses": ["1x6YnuBVeeE65dQRZztRWgUPwyBjHCA5g"], "asm": "OP_DUP OP_HASH160 0a6b825daa1b89f8e100ed8eec6d79b592500f49 OP_EQUALVERIFY OP_CHECKSIG", "type": "pubkeyhash"}, "value": 0.44641252, "n": 0}, {"scriptPubKey": {"reqSigs": 1, "hex": "a914fe893d9178b51e96703b25ae4fd1f9dc6c1f167687", "addresses": ["3QtsxuVZZFED16j8dmW18SD8RKDKuMzour"], "asm": "OP_HASH160 fe893d9178b51e96703b25ae4fd1f9dc6c1f1676 OP_EQUAL", "type": "scripthash"}, "value": 5.46e-06, "n": 1}, {"scriptPubKey": {"type": "nulldata", "hex": "6a146f6d6e69000000000000001f000000116cfeec50", "asm": "OP_RETURN 6f6d6e69000000000000001f000000116cfeec50"}, "value": 0.0, "n": 2}], "hex": "01000000011b69685305e27112ea7fbac3481e6eb458eb977d3be3c071e71c11b0b0ca2336000000006a47304402201ad15035d863bf1ca5f56e24470daf30bd9158a001e9f2f5e937677b91adcab902206f786669cdadf97f1371c3ca036a010455330f088e99fae304342ff9901e5049012103fe02b06a6bfd9b5a83e0417430a3235a39a0b4c7973591ca27ac58f6474d9120ffffffff03e42ba902000000001976a9140a6b825daa1b89f8e100ed8eec6d79b592500f4988ac220200000000000017a914fe893d9178b51e96703b25ae4fd1f9dc6c1f1676870000000000000000166a146f6d6e69000000000000001f000000116cfeec5000000000", "vin": [{"sequence": 4294967295, "scriptSig": {"hex": "47304402201ad15035d863bf1ca5f56e24470daf30bd9158a001e9f2f5e937677b91adcab902206f786669cdadf97f1371c3ca036a010455330f088e99fae304342ff9901e5049012103fe02b06a6bfd9b5a83e0417430a3235a39a0b4c7973591ca27ac58f6474d9120", "asm": "304402201ad15035d863bf1ca5f56e24470daf30bd9158a001e9f2f5e937677b91adcab902206f786669cdadf97f1371c3ca036a010455330f088e99fae304342ff9901e5049[ALL] 03fe02b06a6bfd9b5a83e0417430a3235a39a0b4c7973591ca27ac58f6474d9120"}, "vout": 0, "txid": "3623cab0b0111ce771c0e33b7d97eb58b46e1e48c3ba7fea1271e2055368691b"}], "txid": "f5efe25128bdeb8b54600fd7b11c8198db35af380c24007b746e05fe0cba5705", "blocktime": 1537872475, "version": 1, "confirmations": 11486, "time": 1537872475, "locktime": 0, "vsize": 254, "size": 254}