{"hash": "f5ef5b583939c0633204b01a338bd6debded1fb76f43217ab0c6e85ab1add9f0", "blockhash": "0000000000000000000e13cef7c366c0283d82e591d1acd082e914b08063cdf1", "vout": [{"scriptPubKey": {"reqSigs": 1, "hex": "76a9142b930ec62609332bb5097302ac3f48f530c3357b88ac", "addresses": ["14yQDzrvLr1sTmhRcHTUBHyEJEqDmD8Rxj"], "asm": "OP_DUP OP_HASH160 2b930ec62609332bb5097302ac3f48f530c3357b OP_EQUALVERIFY OP_CHECKSIG", "type": "pubkeyhash"}, "value": 0.01947956, "n": 0}, {"scriptPubKey": {"type": "nulldata", "hex": "6a146f6d6e69000000000000001f0000000005f5e100", "asm": "OP_RETURN 6f6d6e69000000000000001f0000000005f5e100"}, "value": 0.0, "n": 1}, {"scriptPubKey": {"reqSigs": 1, "hex": "76a914802c2301f3bc892a092d70e6c890cdf7b20ac33e88ac", "addresses": ["1CgiNEJWrh7oAKfa7qBnP8j3DciZMjGDTM"], "asm": "OP_DUP OP_HASH160 802c2301f3bc892a092d70e6c890cdf7b20ac33e OP_EQUALVERIFY OP_CHECKSIG", "type": "pubkeyhash"}, "value": 5.46e-06, "n": 2}], "hex": "0100000002d71ad0ab5bf5ab42bac46d03c3bdf4c831d515ba71bb2f6f9cb50c07ca5999f8020000006b483045022100a3d98014796b08c770522f72de4c8d2f546d81c6c4d11fe9bc9f5ea38201b5c602207651bf000ffad9aab7184c200578de6a8356ec9c6fc9d62e96d978e065f48d94012103b59ebe2948a010eb134f34071c98d0daa35d61f6e0661860bcdece4c3d39ae99ffffffffc13bb65ed7885582c2a88369204931e27621cfa7bb1e66a5cea65b90c42e86d2000000006a47304402204fe4b5fa7a4a47fb00342ad931a7cc8aa7d84e116a8ec4b496062862e91cd9d702201e3b0f9ef3e2247d770663b21df8f55f0ae7ad4fbe8894bb60a7a6d914ffb8aa01210200241c40da2cf7b1e58f4b8f71eb29513a5525810f09466a9e7e7e183a4f8d6dffffffff0334b91d00000000001976a9142b930ec62609332bb5097302ac3f48f530c3357b88ac0000000000000000166a146f6d6e69000000000000001f0000000005f5e10022020000000000001976a914802c2301f3bc892a092d70e6c890cdf7b20ac33e88ac00000000", "vin": [{"sequence": 4294967295, "scriptSig": {"hex": "483045022100a3d98014796b08c770522f72de4c8d2f546d81c6c4d11fe9bc9f5ea38201b5c602207651bf000ffad9aab7184c200578de6a8356ec9c6fc9d62e96d978e065f48d94012103b59ebe2948a010eb134f34071c98d0daa35d61f6e0661860bcdece4c3d39ae99", "asm": "3045022100a3d98014796b08c770522f72de4c8d2f546d81c6c4d11fe9bc9f5ea38201b5c602207651bf000ffad9aab7184c200578de6a8356ec9c6fc9d62e96d978e065f48d94[ALL] 03b59ebe2948a010eb134f34071c98d0daa35d61f6e0661860bcdece4c3d39ae99"}, "vout": 2, "txid": "f89959ca070cb59c6f2fbb71ba15d531c8f4bdc3036dc4ba42abf55babd01ad7"}, {"sequence": 4294967295, "scriptSig": {"hex": "47304402204fe4b5fa7a4a47fb00342ad931a7cc8aa7d84e116a8ec4b496062862e91cd9d702201e3b0f9ef3e2247d770663b21df8f55f0ae7ad4fbe8894bb60a7a6d914ffb8aa01210200241c40da2cf7b1e58f4b8f71eb29513a5525810f09466a9e7e7e183a4f8d6d", "asm": "304402204fe4b5fa7a4a47fb00342ad931a7cc8aa7d84e116a8ec4b496062862e91cd9d702201e3b0f9ef3e2247d770663b21df8f55f0ae7ad4fbe8894bb60a7a6d914ffb8aa[ALL] 0200241c40da2cf7b1e58f4b8f71eb29513a5525810f09466a9e7e7e183a4f8d6d"}, "vout": 0, "txid": "d2862ec4905ba6cea5661ebba7cf2176e23149206983a8c2825588d75eb63bc1"}], "txid": "f5ef5b583939c0633204b01a338bd6debded1fb76f43217ab0c6e85ab1add9f0", "blocktime": 1537871767, "version": 1, "confirmations": 11491, "time": 1537871767, "locktime": 0, "vsize": 404, "size": 404}