{"hash": "f5f531eebfd46a632c2810704bc777622f63d20bf841f46c5533afad04aa5973", "blockhash": "0000000000000000001f76057863aec43deb6fa401d9628bb513d65a8098bfab", "vout": [{"scriptPubKey": {"reqSigs": 1, "hex": "a914f70ffe2a0c644ac0f00b70c9d008e846d89ffba087", "addresses": ["3QDMz8KsEBtbYgoUErX3ky9FrDTZQd3w7E"], "asm": "OP_HASH160 f70ffe2a0c644ac0f00b70c9d008e846d89ffba0 OP_EQUAL", "type": "scripthash"}, "value": 0.00370601, "n": 0}, {"scriptPubKey": {"reqSigs": 1, "hex": "76a914de9afc7332e0827b55510815cfef322b3d2b8a5c88ac", "addresses": ["1MJ2gDGyjhVb5fQypMu2yfrT7BjytM2WVt"], "asm": "OP_DUP OP_HASH160 de9afc7332e0827b55510815cfef322b3d2b8a5c OP_EQUALVERIFY OP_CHECKSIG", "type": "pubkeyhash"}, "value": 0.19769792, "n": 1}], "hex": "0100000001e46425f7c187734e92dd9470a565de645aa77047c9ac0be28edec6ec55ed94e5010000006b483045022100c86a5edd2dab42241754b436fa2fe0c5351477a34243e0c1cda1f1125e12477f0220225cf0855697d6dd37b451f926cb5c44e41aec04ddf758fe1a649ccf9d99a27d012103aedc9082a0d6fdceb570203c6493c5779aa50a401cce5d90cf7c9b5de08ad80fffffffff02a9a705000000000017a914f70ffe2a0c644ac0f00b70c9d008e846d89ffba087c0a92d01000000001976a914de9afc7332e0827b55510815cfef322b3d2b8a5c88ac00000000", "vin": [{"sequence": 4294967295, "scriptSig": {"hex": "483045022100c86a5edd2dab42241754b436fa2fe0c5351477a34243e0c1cda1f1125e12477f0220225cf0855697d6dd37b451f926cb5c44e41aec04ddf758fe1a649ccf9d99a27d012103aedc9082a0d6fdceb570203c6493c5779aa50a401cce5d90cf7c9b5de08ad80f", "asm": "3045022100c86a5edd2dab42241754b436fa2fe0c5351477a34243e0c1cda1f1125e12477f0220225cf0855697d6dd37b451f926cb5c44e41aec04ddf758fe1a649ccf9d99a27d[ALL] 03aedc9082a0d6fdceb570203c6493c5779aa50a401cce5d90cf7c9b5de08ad80f"}, "vout": 1, "txid": "e594ed55ecc6de8ee20bacc94770a75a64de65a57094dd924e7387c1f72564e4"}], "txid": "f5f531eebfd46a632c2810704bc777622f63d20bf841f46c5533afad04aa5973", "blocktime": 1537873891, "version": 1, "confirmations": 11474, "time": 1537873891, "locktime": 0, "vsize": 224, "size": 224}