{"hash": "f5f77195437768aee422310ef63376b07043ef2b7675d0ee4a6c8bdc87f476bd", "blockhash": "0000000000000000000e13cef7c366c0283d82e591d1acd082e914b08063cdf1", "vout": [{"scriptPubKey": {"reqSigs": 1, "hex": "a914b9d7b4ebb0c8675ecf29443f2c7ad3507f7abf1587", "addresses": ["3JdfLbeN8g3RVHuSRe1JH4tguJppkRb66Q"], "asm": "OP_HASH160 b9d7b4ebb0c8675ecf29443f2c7ad3507f7abf15 OP_EQUAL", "type": "scripthash"}, "value": 0.00241833, "n": 0}, {"scriptPubKey": {"reqSigs": 1, "hex": "76a9147d5b55f725b73c259a8870a8a2094f5640d1a2bf88ac", "addresses": ["1CRpt6tpEpWFRQ5caMBZvcSSCtyP3XWrwH"], "asm": "OP_DUP OP_HASH160 7d5b55f725b73c259a8870a8a2094f5640d1a2bf OP_EQUALVERIFY OP_CHECKSIG", "type": "pubkeyhash"}, "value": 0.08363629, "n": 1}], "hex": "01000000014ffc11068f31507293d013f7c6707cf32a8a9c5a53aafaee9f9c1534d7311b4b010000006a473044022070878cbec7ae4a39f55348d2c6a243742f999d9dc74c3bdf7028e4c48d3e82df02200abdb3e4246178a363c4be345872475ff7ff07b9bc0e25b489cef1512d1b0a19012102eb185bf0a1105245c404f32e0580acd61ec15d0df6071087bf89078f47fef8f0ffffffff02a9b003000000000017a914b9d7b4ebb0c8675ecf29443f2c7ad3507f7abf15876d9e7f00000000001976a9147d5b55f725b73c259a8870a8a2094f5640d1a2bf88ac00000000", "vin": [{"sequence": 4294967295, "scriptSig": {"hex": "473044022070878cbec7ae4a39f55348d2c6a243742f999d9dc74c3bdf7028e4c48d3e82df02200abdb3e4246178a363c4be345872475ff7ff07b9bc0e25b489cef1512d1b0a19012102eb185bf0a1105245c404f32e0580acd61ec15d0df6071087bf89078f47fef8f0", "asm": "3044022070878cbec7ae4a39f55348d2c6a243742f999d9dc74c3bdf7028e4c48d3e82df02200abdb3e4246178a363c4be345872475ff7ff07b9bc0e25b489cef1512d1b0a19[ALL] 02eb185bf0a1105245c404f32e0580acd61ec15d0df6071087bf89078f47fef8f0"}, "vout": 1, "txid": "4b1b31d734159c9feefaaa535a9c8a2af37c70c6f713d0937250318f0611fc4f"}], "txid": "f5f77195437768aee422310ef63376b07043ef2b7675d0ee4a6c8bdc87f476bd", "blocktime": 1537871767, "version": 1, "confirmations": 11492, "time": 1537871767, "locktime": 0, "vsize": 223, "size": 223}