{"hash": "f5fc3dae3f3317f54a2134d9ca401db6abadd5a316de14e5752dba9a2bc89e30", "blockhash": "0000000000000000001cda96e906b7601b7a6fb1a3b62bca570a9e5d8f4b3de1", "vout": [{"scriptPubKey": {"reqSigs": 1, "hex": "76a91430a33af5cd1ab23debe427e9ed43be60821cf83a88ac", "addresses": ["15SAyediUH82TEXESGKRdKTPTVzAWtgXNa"], "asm": "OP_DUP OP_HASH160 30a33af5cd1ab23debe427e9ed43be60821cf83a OP_EQUALVERIFY OP_CHECKSIG", "type": "pubkeyhash"}, "value": 0.04416221, "n": 0}, {"scriptPubKey": {"reqSigs": 1, "hex": "76a914828f03912253ab2b88d7c6a54e28020d4b2525ce88ac", "addresses": ["1CuLAimuUPu6TNLioS7t3Beb2R1bhxRpS1"], "asm": "OP_DUP OP_HASH160 828f03912253ab2b88d7c6a54e28020d4b2525ce OP_EQUALVERIFY OP_CHECKSIG", "type": "pubkeyhash"}, "value": 0.04683884, "n": 1}], "hex": "010000000114005b102d0f28c98659d00c9d4a7a1d44e4ed8ff5d0262d3292673ff109e917010000006b483045022100866f6b9f502babc1104f1cb381ff029055be57e2ccfed449e727dd6e3cd30b3f02203c0cf97a1373885544e4edcb5d31b2c774ec33bf9989ca3b93e62c7d3722f62201210374de12451bde677e36991714a8589a0d386c32c117672322ec34271bf838ceffffffffff02dd624300000000001976a91430a33af5cd1ab23debe427e9ed43be60821cf83a88ac6c784700000000001976a914828f03912253ab2b88d7c6a54e28020d4b2525ce88ac00000000", "vin": [{"sequence": 4294967295, "scriptSig": {"hex": "483045022100866f6b9f502babc1104f1cb381ff029055be57e2ccfed449e727dd6e3cd30b3f02203c0cf97a1373885544e4edcb5d31b2c774ec33bf9989ca3b93e62c7d3722f62201210374de12451bde677e36991714a8589a0d386c32c117672322ec34271bf838ceff", "asm": "3045022100866f6b9f502babc1104f1cb381ff029055be57e2ccfed449e727dd6e3cd30b3f02203c0cf97a1373885544e4edcb5d31b2c774ec33bf9989ca3b93e62c7d3722f622[ALL] 0374de12451bde677e36991714a8589a0d386c32c117672322ec34271bf838ceff"}, "vout": 1, "txid": "17e909f13f6792322d26d0f58fede4441d7a4a9d0cd05986c9280f2d105b0014"}], "txid": "f5fc3dae3f3317f54a2134d9ca401db6abadd5a316de14e5752dba9a2bc89e30", "blocktime": 1537873282, "version": 1, "confirmations": 11484, "time": 1537873282, "locktime": 0, "vsize": 226, "size": 226}