{"hash": "ea7bc1ec7c14edf56e0aa28a89211e0945b107a45fd2f5fb40cabbc654487ee8", "blockhash": "0000000000000000001e0dab787dd257d1dbfcb92a98c2207d5e1078be1f4165", "vout": [{"scriptPubKey": {"reqSigs": 1, "hex": "76a91414bdb894a27ac821378660d0c97aac51f32381a988ac", "addresses": ["12tfntGtobRKouMAbiJGyWnBXp4ax1eBwf"], "asm": "OP_DUP OP_HASH160 14bdb894a27ac821378660d0c97aac51f32381a9 OP_EQUALVERIFY OP_CHECKSIG", "type": "pubkeyhash"}, "value": 0.01, "n": 0}, {"scriptPubKey": {"reqSigs": 1, "hex": "a914989fe15c801d55a884b2a82b79a28ce66098e79487", "addresses": ["3Fc2AP4cCypveEXcb3paMvWTe5YCNcN6Ki"], "asm": "OP_HASH160 989fe15c801d55a884b2a82b79a28ce66098e794 OP_EQUAL", "type": "scripthash"}, "value": 0.06999812, "n": 1}], "hex": "0200000000010170346893ccfebe627f72091662fd96278f5ef6707039f7db72a607c5da23149b0100000017160014d437b484ebe9a474b3fee11086d2ff01c4e10c90feffffff0240420f00000000001976a91414bdb894a27ac821378660d0c97aac51f32381a988ac04cf6a000000000017a914989fe15c801d55a884b2a82b79a28ce66098e7948702473044022051c43390248e0658fe65d0eb63ba6e2d50e32b213a758fc16ba97ac5d019715c0220539268a46769477f9bf09d471ee8be21b8458ec5dac4fc531cb8e9529a07831901210371b1a5351110e45390fb137b92c560988c461a16ef2a82b3f2b6c7cfddf4a5ae12490800", "vin": [{"txinwitness": ["3044022051c43390248e0658fe65d0eb63ba6e2d50e32b213a758fc16ba97ac5d019715c0220539268a46769477f9bf09d471ee8be21b8458ec5dac4fc531cb8e9529a07831901", "0371b1a5351110e45390fb137b92c560988c461a16ef2a82b3f2b6c7cfddf4a5ae"], "sequence": 4294967294, "scriptSig": {"hex": "160014d437b484ebe9a474b3fee11086d2ff01c4e10c90", "asm": "0014d437b484ebe9a474b3fee11086d2ff01c4e10c90"}, "vout": 1, "txid": "9b1423dac507a672dbf7397070f65e8f2796fd621609727f62befecc93683470"}], "txid": "f6009b83159d5c9125624044703bda2873db92d2616aa599c66e2537fb2f4b97", "blocktime": 1537872475, "version": 2, "confirmations": 11487, "time": 1537872475, "locktime": 542994, "vsize": 168, "size": 249}