{"hash": "f60b0efd5bb73fa6a1de9effd372883d021b23effbaea324b98456e8ab9f7b78", "blockhash": "0000000000000000000e13cef7c366c0283d82e591d1acd082e914b08063cdf1", "vout": [{"scriptPubKey": {"reqSigs": 1, "hex": "76a914487bc6b080ccca9e4a1def39cd6cdd221a2de78988ac", "addresses": ["17cFvvqCx8mpmWsYACKgX8PxXXGSgZ3rM3"], "asm": "OP_DUP OP_HASH160 487bc6b080ccca9e4a1def39cd6cdd221a2de789 OP_EQUALVERIFY OP_CHECKSIG", "type": "pubkeyhash"}, "value": 4.403e-05, "n": 0}, {"scriptPubKey": {"reqSigs": 1, "hex": "a9141c6d765c32c476e67c93cc39ba68334c591fdae187", "addresses": ["34HKyVVRa3LpJBsQXc2TPnSogouJ3gDEKf"], "asm": "OP_HASH160 1c6d765c32c476e67c93cc39ba68334c591fdae1 OP_EQUAL", "type": "scripthash"}, "value": 0.01254807, "n": 1}], "hex": "01000000017c6336257acb0244bebba2532e37deb9c295d4ce43bc6e89b2dbb643eee3f728000000006a473044022064ec26680fd12a2ba82302463b597d88aca0b057f469ddaf55ef17c70891d36202205d660f9b8ee7bf3a19999bc27ccc6891fbdeecae938cdeb31c60629ecdb632430121035abc24638185fa09884d2d389981edb0518f84f96e7d8c1b6d9dcc6cac2bffc1ffffffff0233110000000000001976a914487bc6b080ccca9e4a1def39cd6cdd221a2de78988ac972513000000000017a9141c6d765c32c476e67c93cc39ba68334c591fdae18700000000", "vin": [{"sequence": 4294967295, "scriptSig": {"hex": "473044022064ec26680fd12a2ba82302463b597d88aca0b057f469ddaf55ef17c70891d36202205d660f9b8ee7bf3a19999bc27ccc6891fbdeecae938cdeb31c60629ecdb632430121035abc24638185fa09884d2d389981edb0518f84f96e7d8c1b6d9dcc6cac2bffc1", "asm": "3044022064ec26680fd12a2ba82302463b597d88aca0b057f469ddaf55ef17c70891d36202205d660f9b8ee7bf3a19999bc27ccc6891fbdeecae938cdeb31c60629ecdb63243[ALL] 035abc24638185fa09884d2d389981edb0518f84f96e7d8c1b6d9dcc6cac2bffc1"}, "vout": 0, "txid": "28f7e3ee43b6dbb2896ebc43ced495c2b9de372e53a2bbbe4402cb7a2536637c"}], "txid": "f60b0efd5bb73fa6a1de9effd372883d021b23effbaea324b98456e8ab9f7b78", "blocktime": 1537871767, "version": 1, "confirmations": 11490, "time": 1537871767, "locktime": 0, "vsize": 223, "size": 223}