{"hash": "f60eee252e2d2467fd2b4836365b6d88b271d1e8e2faf1322277fe457631075b", "blockhash": "0000000000000000001f76057863aec43deb6fa401d9628bb513d65a8098bfab", "vout": [{"scriptPubKey": {"reqSigs": 1, "hex": "76a914d47876303a2e5e95fc5b2c2abba74ae5c12cc5c988ac", "addresses": ["1LNSZVXadg28mtrz1Vnv5nGCf1LfXGzdsv"], "asm": "OP_DUP OP_HASH160 d47876303a2e5e95fc5b2c2abba74ae5c12cc5c9 OP_EQUALVERIFY OP_CHECKSIG", "type": "pubkeyhash"}, "value": 2.417e-05, "n": 0}, {"scriptPubKey": {"reqSigs": 1, "hex": "76a9140ecfefb813796f2951a3d4968d716ad5480d7fd088ac", "addresses": ["12MKZMtaCa6vpZdnVFtNRaxtUy933CdrmZ"], "asm": "OP_DUP OP_HASH160 0ecfefb813796f2951a3d4968d716ad5480d7fd0 OP_EQUALVERIFY OP_CHECKSIG", "type": "pubkeyhash"}, "value": 0.00595573, "n": 1}], "hex": "0100000003d5bafedc53299f32023785a1643045efe6ed0d4f699621b204e3cb2d6be23851000000006b483045022100b7da040c06ccba3ea97ebd45321cf51d0cd7f77f0abdb6f04051539fde52bcdf02205d955d12f19b2c9b228d32bdbe9394e40e4f6e4b48a37459d5fb11343f2b2f8a012102da1556f3c5183cc06d7b609d2beddf75c8ae90b3dd23f6eb214937494d790c23ffffffff28c8392afa3091b5a1eb392d6bd4fdf665cf8b21dcd51bb60ea7536bb4e6497c000000006b483045022100dfc2254188df77346aab314cd054a1c63cf0a622a4cda1db7b5433bfb8bf30cc0220310e4a4a371fdac2b3348405457f6bf153e2322b489ffb2194bee835d4c08e2e0121021f082ece6022f396dc52e55414ddd753c4a5902516dded06260a1b7737320b63ffffffff8587946b2e9ff89ed92910210619bfb48962fe6c81270522450e441ea074efb0000000006a47304402200729f935e69e287bf621dd0a8867876ef4583d8f62d9b6c094ba3c16d56f900102201eefa020b99ad1f1cd91da845719450a374d362d3df395baedfa810a2928e0580121028ad18d79c08af8702ba5b7a4b435ff07d711c20aa8333fb8ebe5f40290075909ffffffff0271090000000000001976a914d47876303a2e5e95fc5b2c2abba74ae5c12cc5c988ac75160900000000001976a9140ecfefb813796f2951a3d4968d716ad5480d7fd088ac00000000", "vin": [{"sequence": 4294967295, "scriptSig": {"hex": "483045022100b7da040c06ccba3ea97ebd45321cf51d0cd7f77f0abdb6f04051539fde52bcdf02205d955d12f19b2c9b228d32bdbe9394e40e4f6e4b48a37459d5fb11343f2b2f8a012102da1556f3c5183cc06d7b609d2beddf75c8ae90b3dd23f6eb214937494d790c23", "asm": "3045022100b7da040c06ccba3ea97ebd45321cf51d0cd7f77f0abdb6f04051539fde52bcdf02205d955d12f19b2c9b228d32bdbe9394e40e4f6e4b48a37459d5fb11343f2b2f8a[ALL] 02da1556f3c5183cc06d7b609d2beddf75c8ae90b3dd23f6eb214937494d790c23"}, "vout": 0, "txid": "5138e26b2dcbe304b22196694f0dede6ef453064a1853702329f2953dcfebad5"}, {"sequence": 4294967295, "scriptSig": {"hex": "483045022100dfc2254188df77346aab314cd054a1c63cf0a622a4cda1db7b5433bfb8bf30cc0220310e4a4a371fdac2b3348405457f6bf153e2322b489ffb2194bee835d4c08e2e0121021f082ece6022f396dc52e55414ddd753c4a5902516dded06260a1b7737320b63", "asm": "3045022100dfc2254188df77346aab314cd054a1c63cf0a622a4cda1db7b5433bfb8bf30cc0220310e4a4a371fdac2b3348405457f6bf153e2322b489ffb2194bee835d4c08e2e[ALL] 021f082ece6022f396dc52e55414ddd753c4a5902516dded06260a1b7737320b63"}, "vout": 0, "txid": "7c49e6b46b53a70eb61bd5dc218bcf65f6fdd46b2d39eba1b59130fa2a39c828"}, {"sequence": 4294967295, "scriptSig": {"hex": "47304402200729f935e69e287bf621dd0a8867876ef4583d8f62d9b6c094ba3c16d56f900102201eefa020b99ad1f1cd91da845719450a374d362d3df395baedfa810a2928e0580121028ad18d79c08af8702ba5b7a4b435ff07d711c20aa8333fb8ebe5f40290075909", "asm": "304402200729f935e69e287bf621dd0a8867876ef4583d8f62d9b6c094ba3c16d56f900102201eefa020b99ad1f1cd91da845719450a374d362d3df395baedfa810a2928e058[ALL] 028ad18d79c08af8702ba5b7a4b435ff07d711c20aa8333fb8ebe5f40290075909"}, "vout": 0, "txid": "b0ef74a01e440e45220527816cfe6289b4bf1906211029d99ef89f2e6b948785"}], "txid": "f60eee252e2d2467fd2b4836365b6d88b271d1e8e2faf1322277fe457631075b", "blocktime": 1537873891, "version": 1, "confirmations": 11478, "time": 1537873891, "locktime": 0, "vsize": 521, "size": 521}