{"hash": "f60ebc37d9ce4bc0bf74f9ed3f41a84388d7eff4627598114bae0024b7d7b47b", "blockhash": "0000000000000000001f0ddff1eddb255c1121bcd4da4f1bc9a0da00cae72433", "vout": [{"scriptPubKey": {"reqSigs": 1, "hex": "a9141643afb6402162f8a03d5e1527735f1f25f5c1d887", "addresses": ["33ijshJsJmxD1YxDPkYzucdhW1RGYwikep"], "asm": "OP_HASH160 1643afb6402162f8a03d5e1527735f1f25f5c1d8 OP_EQUAL", "type": "scripthash"}, "value": 0.003124, "n": 0}, {"scriptPubKey": {"reqSigs": 1, "hex": "76a914a35d97caa459355b72d1c6581b1d28e7f27aaa4d88ac", "addresses": ["1FtoGDjYbw9JgfvazAbWW2MyqiYJQ3QNkL"], "asm": "OP_DUP OP_HASH160 a35d97caa459355b72d1c6581b1d28e7f27aaa4d OP_EQUALVERIFY OP_CHECKSIG", "type": "pubkeyhash"}, "value": 0.00826922, "n": 1}], "hex": "0100000001ee39a18b6f42e3e1955b94df5f3644435224ae8da189a598f142e7eddfddba5d000000006b48304502210087937c902f7ecdcd4a63092983cae55334eda93efaaf77e64e0839faec117e050220318e608e5ed46aba4bd85692ac0930b74035304a87ffdce188428b25de812d11012102312016bc97e14beeab7175146c32e1be1a2fb5f2d6dcafb36a2ff47a4a873ed1ffffffff0250c404000000000017a9141643afb6402162f8a03d5e1527735f1f25f5c1d8872a9e0c00000000001976a914a35d97caa459355b72d1c6581b1d28e7f27aaa4d88ac00000000", "vin": [{"sequence": 4294967295, "scriptSig": {"hex": "48304502210087937c902f7ecdcd4a63092983cae55334eda93efaaf77e64e0839faec117e050220318e608e5ed46aba4bd85692ac0930b74035304a87ffdce188428b25de812d11012102312016bc97e14beeab7175146c32e1be1a2fb5f2d6dcafb36a2ff47a4a873ed1", "asm": "304502210087937c902f7ecdcd4a63092983cae55334eda93efaaf77e64e0839faec117e050220318e608e5ed46aba4bd85692ac0930b74035304a87ffdce188428b25de812d11[ALL] 02312016bc97e14beeab7175146c32e1be1a2fb5f2d6dcafb36a2ff47a4a873ed1"}, "vout": 0, "txid": "5dbadddfede742f198a589a18dae24524344365fdf945b95e1e3426f8ba139ee"}], "txid": "f60ebc37d9ce4bc0bf74f9ed3f41a84388d7eff4627598114bae0024b7d7b47b", "blocktime": 1537872018, "version": 1, "confirmations": 11489, "time": 1537872018, "locktime": 0, "vsize": 224, "size": 224}