{"hash": "f61bf1324b71de73a2e82d300036c7b3024f905d759cd71ce86d805f55760e18", "blockhash": "0000000000000000000e13cef7c366c0283d82e591d1acd082e914b08063cdf1", "vout": [{"scriptPubKey": {"reqSigs": 1, "hex": "a91458ba1e84c26964334014bbccfd70c82743ea646287", "addresses": ["39nAMDPkdvGX5taru2N7aLtAMj33KatFNu"], "asm": "OP_HASH160 58ba1e84c26964334014bbccfd70c82743ea6462 OP_EQUAL", "type": "scripthash"}, "value": 0.0003, "n": 0}, {"scriptPubKey": {"reqSigs": 1, "hex": "76a9145c30268c6f34e9bb914f09006d5ca94a2c1f4d5088ac", "addresses": ["19QSrD9LJ8fjH4YWHXJ3tpUx3qQtfnG4Kn"], "asm": "OP_DUP OP_HASH160 5c30268c6f34e9bb914f09006d5ca94a2c1f4d50 OP_EQUALVERIFY OP_CHECKSIG", "type": "pubkeyhash"}, "value": 0.1629628, "n": 1}], "hex": "010000000292093a3543723202b47ff3191f4065b10e8ce4d3853943c6656e343ad99adf54000000006b483045022100c308c15abc7a6c9778776d8395209466571ab5b9f3318c2d64bded9c5c2e27da02202efbf7b6300d3a1fb6ea3ee38b1d0db1b63015891f656cd3ea845591ff6bb3d70121026b1deefdda1cdbbf957838544da97d532bfeeeb4b1f2b2752e0f1fd7d7421be2fdffffff7af940f65d3d29cad2538e2f6be2218222c89ad1b2b9cb6685519264e1ff3ab9000000006a47304402200b4014edc7dde43beb015ec6a6353c950bb74950f33eaeb34e8a4dc63a98314602206cf12e8526636e23109bd44e9f1f3c5b0d25e22d4831cc889dec15fe53e919890121026b1deefdda1cdbbf957838544da97d532bfeeeb4b1f2b2752e0f1fd7d7421be2fdffffff02307500000000000017a91458ba1e84c26964334014bbccfd70c82743ea64628758a9f800000000001976a9145c30268c6f34e9bb914f09006d5ca94a2c1f4d5088ac10490800", "vin": [{"sequence": 4294967293, "scriptSig": {"hex": "483045022100c308c15abc7a6c9778776d8395209466571ab5b9f3318c2d64bded9c5c2e27da02202efbf7b6300d3a1fb6ea3ee38b1d0db1b63015891f656cd3ea845591ff6bb3d70121026b1deefdda1cdbbf957838544da97d532bfeeeb4b1f2b2752e0f1fd7d7421be2", "asm": "3045022100c308c15abc7a6c9778776d8395209466571ab5b9f3318c2d64bded9c5c2e27da02202efbf7b6300d3a1fb6ea3ee38b1d0db1b63015891f656cd3ea845591ff6bb3d7[ALL] 026b1deefdda1cdbbf957838544da97d532bfeeeb4b1f2b2752e0f1fd7d7421be2"}, "vout": 0, "txid": "54df9ad93a346e65c6433985d3e48c0eb165401f19f37fb402327243353a0992"}, {"sequence": 4294967293, "scriptSig": {"hex": "47304402200b4014edc7dde43beb015ec6a6353c950bb74950f33eaeb34e8a4dc63a98314602206cf12e8526636e23109bd44e9f1f3c5b0d25e22d4831cc889dec15fe53e919890121026b1deefdda1cdbbf957838544da97d532bfeeeb4b1f2b2752e0f1fd7d7421be2", "asm": "304402200b4014edc7dde43beb015ec6a6353c950bb74950f33eaeb34e8a4dc63a98314602206cf12e8526636e23109bd44e9f1f3c5b0d25e22d4831cc889dec15fe53e91989[ALL] 026b1deefdda1cdbbf957838544da97d532bfeeeb4b1f2b2752e0f1fd7d7421be2"}, "vout": 0, "txid": "b93affe16492518566cbb9b2d19ac8228221e26b2f8e53d2ca293d5df640f97a"}], "txid": "f61bf1324b71de73a2e82d300036c7b3024f905d759cd71ce86d805f55760e18", "blocktime": 1537871767, "version": 1, "confirmations": 11491, "time": 1537871767, "locktime": 542992, "vsize": 371, "size": 371}