{"hash": "f620b85c8a6c1e08c750b87a8c7e82b4d420c7ee8d297b632d828138bed11249", "blockhash": "0000000000000000001f0ddff1eddb255c1121bcd4da4f1bc9a0da00cae72433", "vout": [{"scriptPubKey": {"reqSigs": 1, "hex": "a9149b6c5ddff5890440ea4f4ec643c9d73c771ec86287", "addresses": ["3FrpUjACCDzhgoHpJ1iimDtGqmhTjkUAAV"], "asm": "OP_HASH160 9b6c5ddff5890440ea4f4ec643c9d73c771ec862 OP_EQUAL", "type": "scripthash"}, "value": 0.0004, "n": 0}, {"scriptPubKey": {"reqSigs": 1, "hex": "76a9141048038a4884e7cc244b63c2a37ba26a0f103d4788ac", "addresses": ["12V65gKDk2wCJK9V1X3ysU8Knw5UxgnXRb"], "asm": "OP_DUP OP_HASH160 1048038a4884e7cc244b63c2a37ba26a0f103d47 OP_EQUALVERIFY OP_CHECKSIG", "type": "pubkeyhash"}, "value": 0.00938, "n": 1}], "hex": "0100000001e1aa23b9ab0d9eee3ddd281dd50fbf36f748ff3cc80c5985668b5ef9ed81478d260000009200483045022100b44886338719298b537ee067bc52c3453a0b7dec89a0d3d783d87aa4731064fd022056c6dfa11c158090825422a350228113de81a254857f2f0e6395f669bed74ecf0147512102b479654800c6ef5129da3acfd460c102d32e6d2554fd460198eda6ce5abab6f92102a3d861fb2640e9558962512dbf6852aec32912cf1629568b0a0bb8bfba8055a552aeffffffff02409c00000000000017a9149b6c5ddff5890440ea4f4ec643c9d73c771ec8628710500e00000000001976a9141048038a4884e7cc244b63c2a37ba26a0f103d4788ac00000000", "vin": [{"sequence": 4294967295, "scriptSig": {"hex": "00483045022100b44886338719298b537ee067bc52c3453a0b7dec89a0d3d783d87aa4731064fd022056c6dfa11c158090825422a350228113de81a254857f2f0e6395f669bed74ecf0147512102b479654800c6ef5129da3acfd460c102d32e6d2554fd460198eda6ce5abab6f92102a3d861fb2640e9558962512dbf6852aec32912cf1629568b0a0bb8bfba8055a552ae", "asm": "0 3045022100b44886338719298b537ee067bc52c3453a0b7dec89a0d3d783d87aa4731064fd022056c6dfa11c158090825422a350228113de81a254857f2f0e6395f669bed74ecf[ALL] 512102b479654800c6ef5129da3acfd460c102d32e6d2554fd460198eda6ce5abab6f92102a3d861fb2640e9558962512dbf6852aec32912cf1629568b0a0bb8bfba8055a552ae"}, "vout": 38, "txid": "8d4781edf95e8b6685590cc83cff48f736bf0fd51d28dd3dee9e0dabb923aae1"}], "txid": "f620b85c8a6c1e08c750b87a8c7e82b4d420c7ee8d297b632d828138bed11249", "blocktime": 1537872018, "version": 1, "confirmations": 11489, "time": 1537872018, "locktime": 0, "vsize": 263, "size": 263}