{"hash": "f62370bae5c480d5ab7e369e0674548572e833a71f3ebc5994b41ee7bcbd2a3c", "blockhash": "0000000000000000001f76057863aec43deb6fa401d9628bb513d65a8098bfab", "vout": [{"scriptPubKey": {"reqSigs": 1, "hex": "76a91430b34d01e890960cbd75f7ff9ef1629ba1f0b5df88ac", "addresses": ["15SWEFJTXjR9iStbxVvaQH8fWy2pDAXnaX"], "asm": "OP_DUP OP_HASH160 30b34d01e890960cbd75f7ff9ef1629ba1f0b5df OP_EQUALVERIFY OP_CHECKSIG", "type": "pubkeyhash"}, "value": 0.00236959, "n": 0}], "hex": "010000000150c5afb5de0fb6e3c041021bc7e76b13c54048a18b2847fa77b7a8e8c3d1a53b000000006b483045022100cc6918aa12f2cbee0be4e7410d98cf61daae538a6cc8990778ba4694925af2a502203c6c385eb144b3a981a72f45d634a03e3f06ae5f25fba3c36f7522476c320a5e0121030bf6cd749b19ea802ba0fcfa77a3b7b2d20dfd42da3550be178c7a135a823fc0ffffffff019f9d0300000000001976a91430b34d01e890960cbd75f7ff9ef1629ba1f0b5df88ac00000000", "vin": [{"sequence": 4294967295, "scriptSig": {"hex": "483045022100cc6918aa12f2cbee0be4e7410d98cf61daae538a6cc8990778ba4694925af2a502203c6c385eb144b3a981a72f45d634a03e3f06ae5f25fba3c36f7522476c320a5e0121030bf6cd749b19ea802ba0fcfa77a3b7b2d20dfd42da3550be178c7a135a823fc0", "asm": "3045022100cc6918aa12f2cbee0be4e7410d98cf61daae538a6cc8990778ba4694925af2a502203c6c385eb144b3a981a72f45d634a03e3f06ae5f25fba3c36f7522476c320a5e[ALL] 030bf6cd749b19ea802ba0fcfa77a3b7b2d20dfd42da3550be178c7a135a823fc0"}, "vout": 0, "txid": "3ba5d1c3e8a8b777fa47288ba14840c5136be7c71b0241c0e3b60fdeb5afc550"}], "txid": "f62370bae5c480d5ab7e369e0674548572e833a71f3ebc5994b41ee7bcbd2a3c", "blocktime": 1537873891, "version": 1, "confirmations": 11478, "time": 1537873891, "locktime": 0, "vsize": 192, "size": 192}