{"hash": "f62ee941a6c18c1ba7dd4fd39f4f908f265c9a740993a0618c7716c124bb2eda", "blockhash": "00000000000000000024a2167bbff67b0be802c0b01cdd79e6331c2be6459f87", "vout": [{"scriptPubKey": {"reqSigs": 1, "hex": "76a9142787afc4288fbbe78aa4a2745fc4883d7d8d19b488ac", "addresses": ["14c1u9k2bxBoG6Xj5a8Qj3ozGaBUziVJgQ"], "asm": "OP_DUP OP_HASH160 2787afc4288fbbe78aa4a2745fc4883d7d8d19b4 OP_EQUALVERIFY OP_CHECKSIG", "type": "pubkeyhash"}, "value": 0.02348093, "n": 0}, {"scriptPubKey": {"reqSigs": 1, "hex": "76a914fdcd4c61d4370ee1636db12f6a5ffda62e522ddf88ac", "addresses": ["1Q8ytuztLMB3Dbi2D4W2eYvVTBhkhrHiiJ"], "asm": "OP_DUP OP_HASH160 fdcd4c61d4370ee1636db12f6a5ffda62e522ddf OP_EQUALVERIFY OP_CHECKSIG", "type": "pubkeyhash"}, "value": 0.102821, "n": 1}], "hex": "0100000001e8d4006231e4c39ba3b6041ab12f297723ca66a217b3a0651f265437a22b0f3e010000006a4730440220669ca075fdbe963cc443f1a88d4458012d43202dbf0902437ffcef80b54338d002203abaae3bb31a5c6b6f39e6dadea045f48bcf16d743923fdd321828d3af2b7d5c0121027edf92c670fb5c963a017508021261e0670f5dd01b0f83ee67ea6c67082872bdffffffff023dd42300000000001976a9142787afc4288fbbe78aa4a2745fc4883d7d8d19b488ac74e49c00000000001976a914fdcd4c61d4370ee1636db12f6a5ffda62e522ddf88ac00000000", "vin": [{"sequence": 4294967295, "scriptSig": {"hex": "4730440220669ca075fdbe963cc443f1a88d4458012d43202dbf0902437ffcef80b54338d002203abaae3bb31a5c6b6f39e6dadea045f48bcf16d743923fdd321828d3af2b7d5c0121027edf92c670fb5c963a017508021261e0670f5dd01b0f83ee67ea6c67082872bd", "asm": "30440220669ca075fdbe963cc443f1a88d4458012d43202dbf0902437ffcef80b54338d002203abaae3bb31a5c6b6f39e6dadea045f48bcf16d743923fdd321828d3af2b7d5c[ALL] 027edf92c670fb5c963a017508021261e0670f5dd01b0f83ee67ea6c67082872bd"}, "vout": 1, "txid": "3e0f2ba23754261f65a0b317a266ca2377292fb11a04b6a39bc3e4316200d4e8"}], "txid": "f62ee941a6c18c1ba7dd4fd39f4f908f265c9a740993a0618c7716c124bb2eda", "blocktime": 1537870564, "version": 1, "confirmations": 11515, "time": 1537870564, "locktime": 0, "vsize": 225, "size": 225}