{"hash": "f632725f551fef1ee413fa1d57364d51ec0c7a93564e36c93958c06efd53c241", "blockhash": "0000000000000000000e13cef7c366c0283d82e591d1acd082e914b08063cdf1", "vout": [{"scriptPubKey": {"reqSigs": 1, "hex": "a91496dbf83efe35393e387b3131474ca4813ee7591387", "addresses": ["3FSgo5hQUEswmPnHMJ7DCS66fDyrvNPw22"], "asm": "OP_HASH160 96dbf83efe35393e387b3131474ca4813ee75913 OP_EQUAL", "type": "scripthash"}, "value": 0.002066, "n": 0}, {"scriptPubKey": {"reqSigs": 1, "hex": "76a91401f471145fc060aa4c535a31ec3f8ad9be15228a88ac", "addresses": ["1BLWJQVpNXQEPaTWtJp798mAnMaxa7jL4"], "asm": "OP_DUP OP_HASH160 01f471145fc060aa4c535a31ec3f8ad9be15228a OP_EQUALVERIFY OP_CHECKSIG", "type": "pubkeyhash"}, "value": 0.006189, "n": 1}], "hex": "0100000001f235497c730215cf0b281831c5fa8d190647a108e4e62443e8a4314f71f9884b010000006b483045022100962933f4176fd8438465bc32d93a9085901f2ac63f3e0cb266d19efa9b8be0800220328e4fc7f08e439569c9161d9e366f191da9446ee553a89b6edf23c94d62b114012102eff1717b1d21c6758411f76817d07f99aa9b4a02e5aea1b9fb39fe64ab74f1a7fdffffff02082703000000000017a91496dbf83efe35393e387b3131474ca4813ee759138794710900000000001976a91401f471145fc060aa4c535a31ec3f8ad9be15228a88ac10490800", "vin": [{"sequence": 4294967293, "scriptSig": {"hex": "483045022100962933f4176fd8438465bc32d93a9085901f2ac63f3e0cb266d19efa9b8be0800220328e4fc7f08e439569c9161d9e366f191da9446ee553a89b6edf23c94d62b114012102eff1717b1d21c6758411f76817d07f99aa9b4a02e5aea1b9fb39fe64ab74f1a7", "asm": "3045022100962933f4176fd8438465bc32d93a9085901f2ac63f3e0cb266d19efa9b8be0800220328e4fc7f08e439569c9161d9e366f191da9446ee553a89b6edf23c94d62b114[ALL] 02eff1717b1d21c6758411f76817d07f99aa9b4a02e5aea1b9fb39fe64ab74f1a7"}, "vout": 1, "txid": "4b88f9714f31a4e84324e6e408a14706198dfac53118280bcf1502737c4935f2"}], "txid": "f632725f551fef1ee413fa1d57364d51ec0c7a93564e36c93958c06efd53c241", "blocktime": 1537871767, "version": 1, "confirmations": 11490, "time": 1537871767, "locktime": 542992, "vsize": 224, "size": 224}