{"hash": "249edad670dad40bb90508ed569d84b80e1ddaf27d7e205ef913106f9f2c0372", "blockhash": "00000000000000000024a2167bbff67b0be802c0b01cdd79e6331c2be6459f87", "vout": [{"scriptPubKey": {"reqSigs": 1, "hex": "a9146eb393f8da26b562cfe94bdcfd88d0f7b683d7c887", "addresses": ["3BnMNwjBEAC4JAwhjQUDgHzBemxgRxpCow"], "asm": "OP_HASH160 6eb393f8da26b562cfe94bdcfd88d0f7b683d7c8 OP_EQUAL", "type": "scripthash"}, "value": 0.08230856, "n": 0}, {"scriptPubKey": {"reqSigs": 1, "hex": "76a914f96fb5e0a5f5037631bb2386b113db3e6107236d88ac", "addresses": ["1Pju5YaraaMizqVFNKKVurtw1w5WWQ9EMs"], "asm": "OP_DUP OP_HASH160 f96fb5e0a5f5037631bb2386b113db3e6107236d OP_EQUALVERIFY OP_CHECKSIG", "type": "pubkeyhash"}, "value": 0.01970699, "n": 1}], "hex": "01000000000101a8581e23580427539d3f3422a9c2243968ac459f36341a65d32bc00f5c554f650000000023220020e5e00581257bc61452c5e0cc799c3b232ab14c92b4617eba2a3528ee6ecc5642ffffffff02c8977d000000000017a9146eb393f8da26b562cfe94bdcfd88d0f7b683d7c8870b121e00000000001976a914f96fb5e0a5f5037631bb2386b113db3e6107236d88ac040047304402201f32abdb0b7894c2300278265e700981e09d3121dbe5ca556d93880bec0bccbf0220452046433ab9d4c7b3de2da67ab1b3b7dbca6a116fab1873e50de5cf3c44a19801483045022100ade2cf9ab4b8829f7069eae90ac31304e5cddbaa8eadd8f83cbf51ef59370240022001f7fb7e64ff9d247daa74b19616fe49888ec973257da1470a0a821954e193d30169522102394f9165962a37ee9f418eddde9fb84ef0363cbb27a19929125c26c032a3ace6210382b4e02dedc748d6df19aa6f248d572320d08aba6aa1921e54e52976e30b16982102b72ad1a376ed7dc468c8ff0ce180c94be84973bb360624d560483967272eeca853ae00000000", "vin": [{"txinwitness": ["", "304402201f32abdb0b7894c2300278265e700981e09d3121dbe5ca556d93880bec0bccbf0220452046433ab9d4c7b3de2da67ab1b3b7dbca6a116fab1873e50de5cf3c44a19801", "3045022100ade2cf9ab4b8829f7069eae90ac31304e5cddbaa8eadd8f83cbf51ef59370240022001f7fb7e64ff9d247daa74b19616fe49888ec973257da1470a0a821954e193d301", "522102394f9165962a37ee9f418eddde9fb84ef0363cbb27a19929125c26c032a3ace6210382b4e02dedc748d6df19aa6f248d572320d08aba6aa1921e54e52976e30b16982102b72ad1a376ed7dc468c8ff0ce180c94be84973bb360624d560483967272eeca853ae"], "sequence": 4294967295, "scriptSig": {"hex": "220020e5e00581257bc61452c5e0cc799c3b232ab14c92b4617eba2a3528ee6ecc5642", "asm": "0020e5e00581257bc61452c5e0cc799c3b232ab14c92b4617eba2a3528ee6ecc5642"}, "vout": 0, "txid": "654f555c0fc02bd3651a34369f45ac683924c2a922343f9d53270458231e58a8"}], "txid": "f634753699125958c86938f70875bd7e7d715a35d750e0d04070fac968c6a09d", "blocktime": 1537870564, "version": 1, "confirmations": 11515, "time": 1537870564, "locktime": 0, "vsize": 216, "size": 407}