{"hash": "f6342fe0752a6bd6a37f7c281b4d6bffc3f0cf50789dc84b64e7ee056d6b5269", "blockhash": "0000000000000000001f76057863aec43deb6fa401d9628bb513d65a8098bfab", "vout": [{"scriptPubKey": {"reqSigs": 1, "hex": "76a91448f1e6d836a9ed914b13fb5e94f13b3b045425aa88ac", "addresses": ["17ehSSUAkZASYhPU9wi9CQBHBWL3tFrSUQ"], "asm": "OP_DUP OP_HASH160 48f1e6d836a9ed914b13fb5e94f13b3b045425aa OP_EQUALVERIFY OP_CHECKSIG", "type": "pubkeyhash"}, "value": 0.0154698, "n": 0}, {"scriptPubKey": {"reqSigs": 1, "hex": "76a9148bed13aa465f29b1942f89cffe7682dbbe1a5fca88ac", "addresses": ["1Dkrw3viK8nLskHhywP74pWgFo62VnBwHp"], "asm": "OP_DUP OP_HASH160 8bed13aa465f29b1942f89cffe7682dbbe1a5fca OP_EQUALVERIFY OP_CHECKSIG", "type": "pubkeyhash"}, "value": 1.48684584, "n": 1}], "hex": "010000000196a6750a6d6aaf0f1bfd3460898388c2f12477e6add36e5c4bd4c3f839ea58bb010000006b483045022100e125901f0b73bce63ddbf414ad00a9f43c03973889509eed10dc894e1d5c6159022011873cbbd934be8d0d1bcb16fb071bef7832e198c08e49ba872287a979a238090121023abe2d949b2d934b3db54afa354653c000b43fc25493ae5ae1bdf7cd0260a00dffffffff02e49a1700000000001976a91448f1e6d836a9ed914b13fb5e94f13b3b045425aa88ac28bfdc08000000001976a9148bed13aa465f29b1942f89cffe7682dbbe1a5fca88ac00000000", "vin": [{"sequence": 4294967295, "scriptSig": {"hex": "483045022100e125901f0b73bce63ddbf414ad00a9f43c03973889509eed10dc894e1d5c6159022011873cbbd934be8d0d1bcb16fb071bef7832e198c08e49ba872287a979a238090121023abe2d949b2d934b3db54afa354653c000b43fc25493ae5ae1bdf7cd0260a00d", "asm": "3045022100e125901f0b73bce63ddbf414ad00a9f43c03973889509eed10dc894e1d5c6159022011873cbbd934be8d0d1bcb16fb071bef7832e198c08e49ba872287a979a23809[ALL] 023abe2d949b2d934b3db54afa354653c000b43fc25493ae5ae1bdf7cd0260a00d"}, "vout": 1, "txid": "bb58ea39f8c3d44b5c6ed3ade67724f1c28883896034fd1b0faf6a6d0a75a696"}], "txid": "f6342fe0752a6bd6a37f7c281b4d6bffc3f0cf50789dc84b64e7ee056d6b5269", "blocktime": 1537873891, "version": 1, "confirmations": 11478, "time": 1537873891, "locktime": 0, "vsize": 226, "size": 226}