{"hash": "f6367c2fa9fd247fc06f63244a87a1f37d81079c4bb903c3c9bd962d852e525c", "blockhash": "0000000000000000000e13cef7c366c0283d82e591d1acd082e914b08063cdf1", "vout": [{"scriptPubKey": {"reqSigs": 1, "hex": "a914be21abab298fb7c2d3e104ed471449af44af636987", "addresses": ["3K2LeTtm647qQZufkYY7UcJpPiAKrM2NYf"], "asm": "OP_HASH160 be21abab298fb7c2d3e104ed471449af44af6369 OP_EQUAL", "type": "scripthash"}, "value": 0.012286, "n": 0}, {"scriptPubKey": {"reqSigs": 1, "hex": "76a914329cb7dbb89667d1626c84f09d37ebe8468f95b888ac", "addresses": ["15ccXZdwYQhj2BYjam6Si8cBzHaibu6Wii"], "asm": "OP_DUP OP_HASH160 329cb7dbb89667d1626c84f09d37ebe8468f95b8 OP_EQUALVERIFY OP_CHECKSIG", "type": "pubkeyhash"}, "value": 0.033258, "n": 1}], "hex": "01000000017e1f1440ccaa4b210453085907619f643fb2a8330f9779f45e9ed3021c62b3cf010000006a47304402204bcd9107e26f872ac3fcb225d177a65a11f15d3bd97bf86559f64039b16d3c5b02202d6684012913765c3e80e5ba30e6b43bbada47b1156c0235d16016306dc69e810121032c4c34d4ae03b248a39397337690eaaa0426a9fbcc534620708988cacad4f7dbffffffff0238bf12000000000017a914be21abab298fb7c2d3e104ed471449af44af63698768bf3200000000001976a914329cb7dbb89667d1626c84f09d37ebe8468f95b888ac00000000", "vin": [{"sequence": 4294967295, "scriptSig": {"hex": "47304402204bcd9107e26f872ac3fcb225d177a65a11f15d3bd97bf86559f64039b16d3c5b02202d6684012913765c3e80e5ba30e6b43bbada47b1156c0235d16016306dc69e810121032c4c34d4ae03b248a39397337690eaaa0426a9fbcc534620708988cacad4f7db", "asm": "304402204bcd9107e26f872ac3fcb225d177a65a11f15d3bd97bf86559f64039b16d3c5b02202d6684012913765c3e80e5ba30e6b43bbada47b1156c0235d16016306dc69e81[ALL] 032c4c34d4ae03b248a39397337690eaaa0426a9fbcc534620708988cacad4f7db"}, "vout": 1, "txid": "cfb3621c02d39e5ef479970f33a8b23f649f610759085304214baacc40141f7e"}], "txid": "f6367c2fa9fd247fc06f63244a87a1f37d81079c4bb903c3c9bd962d852e525c", "blocktime": 1537871767, "version": 1, "confirmations": 11495, "time": 1537871767, "locktime": 0, "vsize": 223, "size": 223}