{"hash": "9163c766993d77f3993d7ada0109cac6e6a85e0e681a296f943c9ab944619208", "blockhash": "0000000000000000001cda96e906b7601b7a6fb1a3b62bca570a9e5d8f4b3de1", "vout": [{"scriptPubKey": {"reqSigs": 1, "hex": "0014564ed0357ddb3c7ed6d0a39667228f1bc4a7828c", "addresses": ["bc1q2e8dqdtamv78a4ks5wtxwg50r0z20q5vpecsca"], "asm": "0 564ed0357ddb3c7ed6d0a39667228f1bc4a7828c", "type": "witness_v0_keyhash"}, "value": 0.00027602, "n": 0}, {"scriptPubKey": {"reqSigs": 1, "hex": "a9140136c10502ae5684e49b302f1af10f145f74b6b787", "addresses": ["31oSC7GvQMTZoouyNLBEHVRDhXEFbVhSmh"], "asm": "OP_HASH160 0136c10502ae5684e49b302f1af10f145f74b6b7 OP_EQUAL", "type": "scripthash"}, "value": 0.06523952, "n": 1}], "hex": "01000000000101b074a0650b20d2c392c3745a8b894aa7a45bcfeed842d0305582255eb008dd230100000023220020efd02f10cc1074c68ec89b458572a71ce6bfc8a17595d8fde80232e47279444bffffffff02d26b000000000000160014564ed0357ddb3c7ed6d0a39667228f1bc4a7828c308c63000000000017a9140136c10502ae5684e49b302f1af10f145f74b6b7870400483045022100a422a303c075f616a4b82df1f3dd4f0e69a2237f0ec59da323f7220500624728022010ec90dba80d0a62e84717b03302ed335aa683d5d1e78a463bcbca41917a654301483045022100c508f7b7abd5928cd4998418a3a7a3fe1a22d9463bb8c555802a2f872f1b502502204f913dd7887d6abdd5f288f01546127e265fdfef2b576417208488a2b966da0b0147522103f985ea61f461801f3abc09ebed98ce7e20804639a64616f639f492883ea4e8d62103871fc2ca08e6950b38867e8e6a0e94ee625223d3aa0df5c65f414c6d784467e252ae00000000", "vin": [{"txinwitness": ["", "3045022100a422a303c075f616a4b82df1f3dd4f0e69a2237f0ec59da323f7220500624728022010ec90dba80d0a62e84717b03302ed335aa683d5d1e78a463bcbca41917a654301", "3045022100c508f7b7abd5928cd4998418a3a7a3fe1a22d9463bb8c555802a2f872f1b502502204f913dd7887d6abdd5f288f01546127e265fdfef2b576417208488a2b966da0b01", "522103f985ea61f461801f3abc09ebed98ce7e20804639a64616f639f492883ea4e8d62103871fc2ca08e6950b38867e8e6a0e94ee625223d3aa0df5c65f414c6d784467e252ae"], "sequence": 4294967295, "scriptSig": {"hex": "220020efd02f10cc1074c68ec89b458572a71ce6bfc8a17595d8fde80232e47279444b", "asm": "0020efd02f10cc1074c68ec89b458572a71ce6bfc8a17595d8fde80232e47279444b"}, "vout": 1, "txid": "23dd08b05e25825530d042d8eecf5ba4a74a898b5a74c392c3d2200b65a074b0"}], "txid": "f63c469c304c7e9e27d29c8af91bfefa75ac27b19b2db9b8bd931fa7572cab6e", "blocktime": 1537873282, "version": 1, "confirmations": 11485, "time": 1537873282, "locktime": 0, "vsize": 205, "size": 371}