{"hash": "83cee533752fcb7eb5b0cccff05edb64b20ae44b3d3fbb6aa2afec9aa203f48c", "blockhash": "00000000000000000018f53835495a110e01622372bf6ae95dc86f2b0ab887b0", "vout": [{"scriptPubKey": {"reqSigs": 1, "hex": "76a914d7b91e85cdc87d61add11e011a0881528c0162dc88ac", "addresses": ["1Lfe3Z5YeYcvqXS6ba3C3YQ9xniVoCxQfy"], "asm": "OP_DUP OP_HASH160 d7b91e85cdc87d61add11e011a0881528c0162dc OP_EQUALVERIFY OP_CHECKSIG", "type": "pubkeyhash"}, "value": 0.01444461, "n": 0}, {"scriptPubKey": {"reqSigs": 1, "hex": "a914a30661b7008ce2778b29a634afee5b41728d4b1f87", "addresses": ["3GZ1iDjNFR6gHvpJm3EdVpSHhc8NB3Eym7"], "asm": "OP_HASH160 a30661b7008ce2778b29a634afee5b41728d4b1f OP_EQUAL", "type": "scripthash"}, "value": 0.03073449, "n": 1}], "hex": "020000000001013256128462d826f7735937f944cbe60c614a5b1c9314a869217bc373ca236d4201000000171600147f2f52af9464f8e73c2b504843fc3fefe0ddc1faffffffff026d0a1600000000001976a914d7b91e85cdc87d61add11e011a0881528c0162dc88aca9e52e000000000017a914a30661b7008ce2778b29a634afee5b41728d4b1f870247304402206481c5e831b8e4cb1cbed346a1bde87d6d99c2a71abbd490d0eb3461c026a927022007089105dc89d9fe56bdbff29ef5439f51a56f1c2253463d66135338030257c40121027cecd2e237cdd56690c3948eebb9dcc75213475138aef27d282d6badd84f86ca00000000", "vin": [{"txinwitness": ["304402206481c5e831b8e4cb1cbed346a1bde87d6d99c2a71abbd490d0eb3461c026a927022007089105dc89d9fe56bdbff29ef5439f51a56f1c2253463d66135338030257c401", "027cecd2e237cdd56690c3948eebb9dcc75213475138aef27d282d6badd84f86ca"], "sequence": 4294967295, "scriptSig": {"hex": "1600147f2f52af9464f8e73c2b504843fc3fefe0ddc1fa", "asm": "00147f2f52af9464f8e73c2b504843fc3fefe0ddc1fa"}, "vout": 1, "txid": "426d23ca73c37b2169a814931c5b4a610ce6cb44f9375973f726d86284125632"}], "txid": "f63d6a70490ead2379091698ed64ee3e909f9db7bd3d7512d3d478294f38688f", "blocktime": 1537870928, "version": 2, "confirmations": 11512, "time": 1537870928, "locktime": 0, "vsize": 168, "size": 249}