{"hash": "093bdf1fa289fbd8d56c02c80b8006b8d88243dfa98c46750a2dfdba5baaf225", "blockhash": "0000000000000000000baef3f32e3676a92c3b2e5da21b426e4f302fc371ce76", "vout": [{"scriptPubKey": {"reqSigs": 1, "hex": "a9145583c2dc3252be16b98b42106743dc08fb3518cd87", "addresses": ["39VBCmy3TAVFSfHQrZaUgYPy1C182ZwUvc"], "asm": "OP_HASH160 5583c2dc3252be16b98b42106743dc08fb3518cd OP_EQUAL", "type": "scripthash"}, "value": 0.01017094, "n": 0}, {"scriptPubKey": {"reqSigs": 1, "hex": "76a914060eb97599559af4fbc1247e4e909db967e316b588ac", "addresses": ["1Z2hDyhRbQVcbfzvjuq4FySJ86CskyikK"], "asm": "OP_DUP OP_HASH160 060eb97599559af4fbc1247e4e909db967e316b5 OP_EQUALVERIFY OP_CHECKSIG", "type": "pubkeyhash"}, "value": 0.0025236, "n": 1}], "hex": "020000000001025fc1c4059197dcac47fa1e53e7506dfe316d7156fa6a1a2f96e8c9c9c5066ee80000000017160014e323262d10a37c8b1262b8da58ca7bfd380fb73dfeffffffb14ba10802f176f5a8b487d1157bba8bcc0931617b7096c582215a1a2b53771a05000000171600144555e1f6f2d026022ac2330c5d0426785ab9630ffeffffff0206850f000000000017a9145583c2dc3252be16b98b42106743dc08fb3518cd87c8d90300000000001976a914060eb97599559af4fbc1247e4e909db967e316b588ac024730440220359a726196fc137f305264f83685d7df9c42d571c68c90e309c9dad9a7f2c15f02202ac0c93742419bf9dde45e9ffd7eb3c3efc517c55c0291e2a6db37bf6cf0eb240121022dcc4405cba153a818585468b170a8c6cf2e7063e443b695dafc644dd8d86237024730440220300f5a463f2ec4c16d3e99c99e5651d91caf884a75f28266fdbdfb0df4503d50022024e0c78ab1d7e3879826ace553750ecbe7dc273be86524cca8699363bf852bbf012102e97ef911233e9475a3fb345a7a964db92555fd9197882ac1eee6f24a99ceee3817490800", "vin": [{"txinwitness": ["30440220359a726196fc137f305264f83685d7df9c42d571c68c90e309c9dad9a7f2c15f02202ac0c93742419bf9dde45e9ffd7eb3c3efc517c55c0291e2a6db37bf6cf0eb2401", "022dcc4405cba153a818585468b170a8c6cf2e7063e443b695dafc644dd8d86237"], "sequence": 4294967294, "scriptSig": {"hex": "160014e323262d10a37c8b1262b8da58ca7bfd380fb73d", "asm": "0014e323262d10a37c8b1262b8da58ca7bfd380fb73d"}, "vout": 0, "txid": "e86e06c5c9c9e8962f1a6afa56716d31fe6d50e7531efa47acdc979105c4c15f"}, {"txinwitness": ["30440220300f5a463f2ec4c16d3e99c99e5651d91caf884a75f28266fdbdfb0df4503d50022024e0c78ab1d7e3879826ace553750ecbe7dc273be86524cca8699363bf852bbf01", "02e97ef911233e9475a3fb345a7a964db92555fd9197882ac1eee6f24a99ceee38"], "sequence": 4294967294, "scriptSig": {"hex": "1600144555e1f6f2d026022ac2330c5d0426785ab9630f", "asm": "00144555e1f6f2d026022ac2330c5d0426785ab9630f"}, "vout": 5, "txid": "1a77532b1a5a2182c596707b613109cc8bba7b15d187b4a8f576f10208a14bb1"}], "txid": "f64ca13e5ebfaca79b3062d8521e58898e74f6d3775f56358347422cdcb37792", "blocktime": 1537876114, "version": 2, "confirmations": 11461, "time": 1537876114, "locktime": 542999, "vsize": 258, "size": 420}