{"hash": "fa7f904faca775924412376b184bf625a0607b0152709281a3fb1ee595801427", "blockhash": "00000000000000000017f5eb5941039fbcee6240d03bc1f2f8e35350df66a1d8", "vout": [{"scriptPubKey": {"reqSigs": 1, "hex": "a91440b9ff26de73ff602279f9c3093cdba182a033be87", "addresses": ["37bFz6bSo2n5oHFifJN1RrBHhmYYCfdTNz"], "asm": "OP_HASH160 40b9ff26de73ff602279f9c3093cdba182a033be OP_EQUAL", "type": "scripthash"}, "value": 1.61714882, "n": 0}, {"scriptPubKey": {"reqSigs": 1, "hex": "76a914b225455d7f42fd9db9ebd5e276b27b9982c4cfa888ac", "addresses": ["1HEwvn652ycBECxxjsAzgMkbHBofsHQrS3"], "asm": "OP_DUP OP_HASH160 b225455d7f42fd9db9ebd5e276b27b9982c4cfa8 OP_EQUALVERIFY OP_CHECKSIG", "type": "pubkeyhash"}, "value": 0.06401376, "n": 1}], "hex": "020000000001010fc08c0bbc2527a4c11bb4b0e7c31d29626fb75d4382008bb49de84b961ec406000000001716001402a0f5ce55a1de09006d7d9075d8430b546dc0b1feffffff02c292a3090000000017a91440b9ff26de73ff602279f9c3093cdba182a033be8760ad6100000000001976a914b225455d7f42fd9db9ebd5e276b27b9982c4cfa888ac024730440220713387811c913f27121b7cbdfa7573f6ee345c446a2d4d8cb519602bde7ccc75022033008f7936e8742ecf2af429efe0e8439ddfd1e3ce76a6da90c12196abb52fe701210293bae9f034395cde41d124705289b19707c3cacaa7369d85143beeacfbb5c82015490800", "vin": [{"txinwitness": ["30440220713387811c913f27121b7cbdfa7573f6ee345c446a2d4d8cb519602bde7ccc75022033008f7936e8742ecf2af429efe0e8439ddfd1e3ce76a6da90c12196abb52fe701", "0293bae9f034395cde41d124705289b19707c3cacaa7369d85143beeacfbb5c820"], "sequence": 4294967294, "scriptSig": {"hex": "16001402a0f5ce55a1de09006d7d9075d8430b546dc0b1", "asm": "001402a0f5ce55a1de09006d7d9075d8430b546dc0b1"}, "vout": 0, "txid": "06c41e964be89db48b0082435db76f62291dc3e7b0b41bc1a42725bc0b8cc00f"}], "txid": "f65a563a49630042ee3a2d5fad851c013b0788e8c2c0ac7e833c419b8a26d0ee", "blocktime": 1537874412, "version": 2, "confirmations": 11468, "time": 1537874412, "locktime": 542997, "vsize": 168, "size": 249}