{"hash": "f65ee0efb3c12998d7bd9c315604720b86e9f27de803f5d29af07b43f21f8a23", "blockhash": "00000000000000000018f53835495a110e01622372bf6ae95dc86f2b0ab887b0", "vout": [{"scriptPubKey": {"reqSigs": 1, "hex": "76a9141fda8ecfb06d7170141590e6f2edd5054eba147888ac", "addresses": ["13uRmcYbfYZZmiLhKwEdiGYK8J5TqZBXwN"], "asm": "OP_DUP OP_HASH160 1fda8ecfb06d7170141590e6f2edd5054eba1478 OP_EQUALVERIFY OP_CHECKSIG", "type": "pubkeyhash"}, "value": 0.00644587, "n": 0}, {"scriptPubKey": {"type": "nulldata", "hex": "6a4c500000778b0001ff92ec952c90c61a89457c40e3ef3236678a625097bcbefa6b8351586b4ef91c4b25dab5f9ade75bb888c7948e425baa0bed06142d45a2d56b271d100759d4ba30d2c37bb011d97e02cf", "asm": "OP_RETURN 0000778b0001ff92ec952c90c61a89457c40e3ef3236678a625097bcbefa6b8351586b4ef91c4b25dab5f9ade75bb888c7948e425baa0bed06142d45a2d56b271d100759d4ba30d2c37bb011d97e02cf"}, "value": 0.0, "n": 1}], "hex": "0100000001d8d0c406a2fce0802efc22cd77176b6365feefef571b70875bece4fb633224fd000000006b483045022100eb489ef59b49271e3f87a06913a282bec1b484c01f93d8f6713b9141ee189d7b0220242a9b60c1c652308b77bcc12edcb8d66f933c8dbfad109f46b4131754fa5ffa012102f86dfcfdb64dedfb6ae156552399c747b827fd239609ddb479949daef72e6e43ffffffff02ebd50900000000001976a9141fda8ecfb06d7170141590e6f2edd5054eba147888ac0000000000000000536a4c500000778b0001ff92ec952c90c61a89457c40e3ef3236678a625097bcbefa6b8351586b4ef91c4b25dab5f9ade75bb888c7948e425baa0bed06142d45a2d56b271d100759d4ba30d2c37bb011d97e02cf00000000", "vin": [{"sequence": 4294967295, "scriptSig": {"hex": "483045022100eb489ef59b49271e3f87a06913a282bec1b484c01f93d8f6713b9141ee189d7b0220242a9b60c1c652308b77bcc12edcb8d66f933c8dbfad109f46b4131754fa5ffa012102f86dfcfdb64dedfb6ae156552399c747b827fd239609ddb479949daef72e6e43", "asm": "3045022100eb489ef59b49271e3f87a06913a282bec1b484c01f93d8f6713b9141ee189d7b0220242a9b60c1c652308b77bcc12edcb8d66f933c8dbfad109f46b4131754fa5ffa[ALL] 02f86dfcfdb64dedfb6ae156552399c747b827fd239609ddb479949daef72e6e43"}, "vout": 0, "txid": "fd243263fbe4ec5b87701b57efeffe65636b1777cd22fc2e80e0fca206c4d0d8"}], "txid": "f65ee0efb3c12998d7bd9c315604720b86e9f27de803f5d29af07b43f21f8a23", "blocktime": 1537870928, "version": 1, "confirmations": 11513, "time": 1537870928, "locktime": 0, "vsize": 284, "size": 284}