{"hash": "f66316628457de8596a57555c14b16466f6e4d0b5f6886e099a105f8be2ac35f", "blockhash": "00000000000000000017f5eb5941039fbcee6240d03bc1f2f8e35350df66a1d8", "vout": [{"scriptPubKey": {"reqSigs": 1, "hex": "76a914fbedaf70e7a3efff23df89c3aea9db98df01a5db88ac", "addresses": ["1Py5LpFpXjzEEzqtf6DDQaHvGj3ybPmyE9"], "asm": "OP_DUP OP_HASH160 fbedaf70e7a3efff23df89c3aea9db98df01a5db OP_EQUALVERIFY OP_CHECKSIG", "type": "pubkeyhash"}, "value": 0.0045821, "n": 0}, {"scriptPubKey": {"reqSigs": 1, "hex": "76a914e950a05b2f1f79664dd7d05a26fbc4f9686a49d288ac", "addresses": ["1NGf2iYsG9JpxWeT9Yqk1nRVYG1ziEBEEF"], "asm": "OP_DUP OP_HASH160 e950a05b2f1f79664dd7d05a26fbc4f9686a49d2 OP_EQUALVERIFY OP_CHECKSIG", "type": "pubkeyhash"}, "value": 0.00522738, "n": 1}], "hex": "0100000001bdc924c51bd22ab63b884e0b475763fbdc3887bdc09e7884726198b412067a47010000006a4730440220321053b22c17412d7c1109e1a0943968ccf908db442f92cc8bac17481ccf15a402200ec6e2fe9d11da1b31bad8c654089cf846d5129e20084243dc4b03e3fbed535a01210303daa9cb367ad2aedc37df10c4d43b49263a5879035325bc43b80131db8e195dffffffff02e2fd0600000000001976a914fbedaf70e7a3efff23df89c3aea9db98df01a5db88acf2f90700000000001976a914e950a05b2f1f79664dd7d05a26fbc4f9686a49d288ac00000000", "vin": [{"sequence": 4294967295, "scriptSig": {"hex": "4730440220321053b22c17412d7c1109e1a0943968ccf908db442f92cc8bac17481ccf15a402200ec6e2fe9d11da1b31bad8c654089cf846d5129e20084243dc4b03e3fbed535a01210303daa9cb367ad2aedc37df10c4d43b49263a5879035325bc43b80131db8e195d", "asm": "30440220321053b22c17412d7c1109e1a0943968ccf908db442f92cc8bac17481ccf15a402200ec6e2fe9d11da1b31bad8c654089cf846d5129e20084243dc4b03e3fbed535a[ALL] 0303daa9cb367ad2aedc37df10c4d43b49263a5879035325bc43b80131db8e195d"}, "vout": 1, "txid": "477a0612b498617284789ec0bd8738dcfb6357470b4e883bb62ad21bc524c9bd"}], "txid": "f66316628457de8596a57555c14b16466f6e4d0b5f6886e099a105f8be2ac35f", "blocktime": 1537874412, "version": 1, "confirmations": 11467, "time": 1537874412, "locktime": 0, "vsize": 225, "size": 225}