{"hash": "f666e3b5fc79180a764a5557a604f74a249e1365450f43ede7d437901a5f8938", "blockhash": "0000000000000000000dcc0f55137456b1a82d3642486a52398922ac4d620174", "vout": [{"scriptPubKey": {"reqSigs": 1, "hex": "76a914d243e6abb9a60fbff430b421d2df4b7d59ec186088ac", "addresses": ["1LAnF8h3qMGx3TSwNUHVneBZUEpwE4gu3D"], "asm": "OP_DUP OP_HASH160 d243e6abb9a60fbff430b421d2df4b7d59ec1860 OP_EQUALVERIFY OP_CHECKSIG", "type": "pubkeyhash"}, "value": 0.00076972, "n": 0}, {"scriptPubKey": {"reqSigs": 1, "hex": "76a9143851f34d13937b673a7d24a1950bb5b21ce94af388ac", "addresses": ["168o1kqNquEJeR9vosUB5fw4eAwcVAgh8P"], "asm": "OP_DUP OP_HASH160 3851f34d13937b673a7d24a1950bb5b21ce94af3 OP_EQUALVERIFY OP_CHECKSIG", "type": "pubkeyhash"}, "value": 5.46e-06, "n": 1}, {"scriptPubKey": {"type": "nulldata", "hex": "6a146f6d6e69000000000000001f000000665e5fc980", "asm": "OP_RETURN 6f6d6e69000000000000001f000000665e5fc980"}, "value": 0.0, "n": 2}], "hex": "01000000026fbeed4e812aba6ebd19dc6737fb709dda92bc37a9dd51a39e05c66154fcc183020000006a473044022001ae0a904a8740fcb6343d76652be71f47004cdfbc403a7ad799208e82ac965d02204a6dd5a1411f51dbaee04468afff92cff099e0d8d84cb63433814073a7757df8012103c2003a1355bd53eae7482b7adbd30cdebe91611f6a4de7283c005fdaa58e2b8effffffff65aeae162cf46f84e13506e74e767dd3f91efd4e9363bf62eb50d1d57ad4ccb9000000006a473044022021bf35f420c1bedee046e27fe4d668ff8b7799cc76412cad3b6f239547016be202206fe5be61c98a2131888db0b5bc1ff8eea6f58abe9f1e4d0094d446d529b7fc5c01210271977291b74f1f5f5c42157e8aae804664eaaeccfd097918450d37f28fb94d77ffffffff03ac2c0100000000001976a914d243e6abb9a60fbff430b421d2df4b7d59ec186088ac22020000000000001976a9143851f34d13937b673a7d24a1950bb5b21ce94af388ac0000000000000000166a146f6d6e69000000000000001f000000665e5fc98000000000", "vin": [{"sequence": 4294967295, "scriptSig": {"hex": "473044022001ae0a904a8740fcb6343d76652be71f47004cdfbc403a7ad799208e82ac965d02204a6dd5a1411f51dbaee04468afff92cff099e0d8d84cb63433814073a7757df8012103c2003a1355bd53eae7482b7adbd30cdebe91611f6a4de7283c005fdaa58e2b8e", "asm": "3044022001ae0a904a8740fcb6343d76652be71f47004cdfbc403a7ad799208e82ac965d02204a6dd5a1411f51dbaee04468afff92cff099e0d8d84cb63433814073a7757df8[ALL] 03c2003a1355bd53eae7482b7adbd30cdebe91611f6a4de7283c005fdaa58e2b8e"}, "vout": 2, "txid": "83c1fc5461c6059ea351dda937bc92da9d70fb3767dc19bd6eba2a814eedbe6f"}, {"sequence": 4294967295, "scriptSig": {"hex": "473044022021bf35f420c1bedee046e27fe4d668ff8b7799cc76412cad3b6f239547016be202206fe5be61c98a2131888db0b5bc1ff8eea6f58abe9f1e4d0094d446d529b7fc5c01210271977291b74f1f5f5c42157e8aae804664eaaeccfd097918450d37f28fb94d77", "asm": "3044022021bf35f420c1bedee046e27fe4d668ff8b7799cc76412cad3b6f239547016be202206fe5be61c98a2131888db0b5bc1ff8eea6f58abe9f1e4d0094d446d529b7fc5c[ALL] 0271977291b74f1f5f5c42157e8aae804664eaaeccfd097918450d37f28fb94d77"}, "vout": 0, "txid": "b9ccd47ad5d150eb62bf63934efd1ef9d37d764ee70635e1846ff42c16aeae65"}], "txid": "f666e3b5fc79180a764a5557a604f74a249e1365450f43ede7d437901a5f8938", "blocktime": 1537870268, "version": 1, "confirmations": 11516, "time": 1537870268, "locktime": 0, "vsize": 403, "size": 403}