{"hash": "f66c9e703250f4460c59cb29ac14c956c6993d0ac1dd38f9127f3a2d96feadaa", "blockhash": "00000000000000000018f53835495a110e01622372bf6ae95dc86f2b0ab887b0", "vout": [{"scriptPubKey": {"reqSigs": 1, "hex": "76a914a1d03d5e8e96569d5ec22c1b564e5900f0d3ce9688ac", "addresses": ["1FkbFdo4FZvqZiByBFHKEyMSjHbbfqubt6"], "asm": "OP_DUP OP_HASH160 a1d03d5e8e96569d5ec22c1b564e5900f0d3ce96 OP_EQUALVERIFY OP_CHECKSIG", "type": "pubkeyhash"}, "value": 0.00263, "n": 0}, {"scriptPubKey": {"reqSigs": 1, "hex": "76a914506d35dea5c52729e4a98b65059ecdc977a69c8188ac", "addresses": ["18LFtRN1i6gefoVJy4sb3Uax3rcba42upj"], "asm": "OP_DUP OP_HASH160 506d35dea5c52729e4a98b65059ecdc977a69c81 OP_EQUALVERIFY OP_CHECKSIG", "type": "pubkeyhash"}, "value": 0.1743728, "n": 1}], "hex": "0100000001f38c1f1fb7fe77fd43cc72dc39ee2b233766dc3710f26a77aa304ec18b3317c6000000006a4730440220244105bd5eadfaa7dc867ac56cba05516f232a0657127af5d9aa9fe01d54bccf02207397d8fab0a6f23f3be6feaee8a12b1a5d8403e4d15343da38eac2be76104f5301210362f453dd4c4ac81c96b452535d2151b18be32630e7c772c6f826d85e9b2b587afeffffff0258030400000000001976a914a1d03d5e8e96569d5ec22c1b564e5900f0d3ce9688ac60120a01000000001976a914506d35dea5c52729e4a98b65059ecdc977a69c8188ac0e490800", "vin": [{"sequence": 4294967294, "scriptSig": {"hex": "4730440220244105bd5eadfaa7dc867ac56cba05516f232a0657127af5d9aa9fe01d54bccf02207397d8fab0a6f23f3be6feaee8a12b1a5d8403e4d15343da38eac2be76104f5301210362f453dd4c4ac81c96b452535d2151b18be32630e7c772c6f826d85e9b2b587a", "asm": "30440220244105bd5eadfaa7dc867ac56cba05516f232a0657127af5d9aa9fe01d54bccf02207397d8fab0a6f23f3be6feaee8a12b1a5d8403e4d15343da38eac2be76104f53[ALL] 0362f453dd4c4ac81c96b452535d2151b18be32630e7c772c6f826d85e9b2b587a"}, "vout": 0, "txid": "c617338bc14e30aa776af21037dc6637232bee39dc72cc43fd77feb71f1f8cf3"}], "txid": "f66c9e703250f4460c59cb29ac14c956c6993d0ac1dd38f9127f3a2d96feadaa", "blocktime": 1537870928, "version": 1, "confirmations": 11512, "time": 1537870928, "locktime": 542990, "vsize": 225, "size": 225}