{"hash": "f670ea4c51cf3275a793543b862809ce77808b184598adee0b086cd811bce3d2", "blockhash": "00000000000000000004ffacab907a6b429b9a5745fa0b75af4234bf69dd7176", "vout": [{"scriptPubKey": {"reqSigs": 1, "hex": "76a914547e3026a61ec89c87bd49d6217252edce2643eb88ac", "addresses": ["18hkvpKpLadLrvMhasaM4P3eKi5pdaLxUd"], "asm": "OP_DUP OP_HASH160 547e3026a61ec89c87bd49d6217252edce2643eb OP_EQUALVERIFY OP_CHECKSIG", "type": "pubkeyhash"}, "value": 1.86, "n": 0}, {"scriptPubKey": {"reqSigs": 1, "hex": "76a9145ca2e6fb9aa1f3a14996c976f5eeacc731521ac188ac", "addresses": ["19SpKJE9RfqwdrnxhjgAwqkx7idBTY8EqZ"], "asm": "OP_DUP OP_HASH160 5ca2e6fb9aa1f3a14996c976f5eeacc731521ac1 OP_EQUALVERIFY OP_CHECKSIG", "type": "pubkeyhash"}, "value": 0.19352, "n": 1}], "hex": "01000000022cc3c176bd06b0e5e25221850b5b2d89f688bd3686844deaddd94c83d37cb4ca010000006a473044022045522070ce26a7cc01f8741b0c130f19912a175977d29ff38331688e4c08fa2a02206528e9a00d28191d28269ee4781f957f282f69b5fb4e45eed78f0597bb5c293401210318e77aaa9929945ba2c2343bd11a80d5478b08148ac776f74145f2f789feef8dffffffffe60c1e5615a3d6c20a1015f0e83189096b01db6ea2d1650f63c00ff09bb7a57b000000006b483045022100e10d3b474344fa6bf6511442fbc6ec6a32e6c073f725ae5d3c804bdb05f37cac022066411e8bbfbabc41b710708972913433424a1498a87e44c7588733f00077c9a0012102e1784ef964d603bb368ffb341371dcc3323dbb21593f22118e25971234267542ffffffff028022160b000000001976a914547e3026a61ec89c87bd49d6217252edce2643eb88acc0492701000000001976a9145ca2e6fb9aa1f3a14996c976f5eeacc731521ac188ac00000000", "vin": [{"sequence": 4294967295, "scriptSig": {"hex": "473044022045522070ce26a7cc01f8741b0c130f19912a175977d29ff38331688e4c08fa2a02206528e9a00d28191d28269ee4781f957f282f69b5fb4e45eed78f0597bb5c293401210318e77aaa9929945ba2c2343bd11a80d5478b08148ac776f74145f2f789feef8d", "asm": "3044022045522070ce26a7cc01f8741b0c130f19912a175977d29ff38331688e4c08fa2a02206528e9a00d28191d28269ee4781f957f282f69b5fb4e45eed78f0597bb5c2934[ALL] 0318e77aaa9929945ba2c2343bd11a80d5478b08148ac776f74145f2f789feef8d"}, "vout": 1, "txid": "cab47cd3834cd9ddea4d848636bd88f6892d5b0b852152e2e5b006bd76c1c32c"}, {"sequence": 4294967295, "scriptSig": {"hex": "483045022100e10d3b474344fa6bf6511442fbc6ec6a32e6c073f725ae5d3c804bdb05f37cac022066411e8bbfbabc41b710708972913433424a1498a87e44c7588733f00077c9a0012102e1784ef964d603bb368ffb341371dcc3323dbb21593f22118e25971234267542", "asm": "3045022100e10d3b474344fa6bf6511442fbc6ec6a32e6c073f725ae5d3c804bdb05f37cac022066411e8bbfbabc41b710708972913433424a1498a87e44c7588733f00077c9a0[ALL] 02e1784ef964d603bb368ffb341371dcc3323dbb21593f22118e25971234267542"}, "vout": 0, "txid": "7ba5b79bf00fc0630f65d1a26edb016b098931e8f015100ac2d6a315561e0ce6"}], "txid": "f670ea4c51cf3275a793543b862809ce77808b184598adee0b086cd811bce3d2", "blocktime": 1537875543, "version": 1, "confirmations": 11464, "time": 1537875543, "locktime": 0, "vsize": 373, "size": 373}