{"hash": "f6728c53185a8b10f075e5e79b48bdf8454da3b65838c1e07a292ea19d71d063", "blockhash": "0000000000000000001f76057863aec43deb6fa401d9628bb513d65a8098bfab", "vout": [{"scriptPubKey": {"reqSigs": 1, "hex": "76a914d770a5388d928eccc64bb03d55e086cc9ee3b9cc88ac", "addresses": ["1Le9DyzwLVsee2MKCij1s1Vz8bJhMb33Ef"], "asm": "OP_DUP OP_HASH160 d770a5388d928eccc64bb03d55e086cc9ee3b9cc OP_EQUALVERIFY OP_CHECKSIG", "type": "pubkeyhash"}, "value": 0.00859316, "n": 0}, {"scriptPubKey": {"reqSigs": 1, "hex": "76a91468cb39cfb65ed69c0559655cd4b6793089b7342d88ac", "addresses": ["1AZ6jL3LFWfVZpBpVM6LcA4AXYMsPqSnNM"], "asm": "OP_DUP OP_HASH160 68cb39cfb65ed69c0559655cd4b6793089b7342d OP_EQUALVERIFY OP_CHECKSIG", "type": "pubkeyhash"}, "value": 0.23289804, "n": 1}], "hex": "01000000016703671c7cd3e2d9cfa3325a136475be9dd99505fe586a032583acdd0936b138010000006b483045022100c0080bd5899dc9116b97bf1289f93d6be0280d8fbd98e0b2bed7b4ce3a3110d3022050a8d1693107df3050d56959fc0ee9da8d8f8b839b9b5e350bd01418a2d30522012103fc8b2d690947312d6f10b3ea160910314083126724de6433bddbf1e9350766c6ffffffff02b41c0d00000000001976a914d770a5388d928eccc64bb03d55e086cc9ee3b9cc88accc5f6301000000001976a91468cb39cfb65ed69c0559655cd4b6793089b7342d88ac00000000", "vin": [{"sequence": 4294967295, "scriptSig": {"hex": "483045022100c0080bd5899dc9116b97bf1289f93d6be0280d8fbd98e0b2bed7b4ce3a3110d3022050a8d1693107df3050d56959fc0ee9da8d8f8b839b9b5e350bd01418a2d30522012103fc8b2d690947312d6f10b3ea160910314083126724de6433bddbf1e9350766c6", "asm": "3045022100c0080bd5899dc9116b97bf1289f93d6be0280d8fbd98e0b2bed7b4ce3a3110d3022050a8d1693107df3050d56959fc0ee9da8d8f8b839b9b5e350bd01418a2d30522[ALL] 03fc8b2d690947312d6f10b3ea160910314083126724de6433bddbf1e9350766c6"}, "vout": 1, "txid": "38b13609ddac8325036a58fe0595d99dbe7564135a32a3cfd9e2d37c1c670367"}], "txid": "f6728c53185a8b10f075e5e79b48bdf8454da3b65838c1e07a292ea19d71d063", "blocktime": 1537873891, "version": 1, "confirmations": 11478, "time": 1537873891, "locktime": 0, "vsize": 226, "size": 226}