{"hash": "f675292dfbd6188d2b35849a3c010dbe8428f3ef1a37612401b06948926488a0", "blockhash": "0000000000000000001e0dab787dd257d1dbfcb92a98c2207d5e1078be1f4165", "vout": [{"scriptPubKey": {"reqSigs": 1, "hex": "76a91478a9c7be4c4e129ea66f162757c6359f6c21b41688ac", "addresses": ["1C11UZNHaEGNwr8XUVfw5RExu7ajmjA4VP"], "asm": "OP_DUP OP_HASH160 78a9c7be4c4e129ea66f162757c6359f6c21b416 OP_EQUALVERIFY OP_CHECKSIG", "type": "pubkeyhash"}, "value": 0.51350369, "n": 0}], "hex": "0100000009cfdc82973f2d8e341e65dc132f3014b0672f7d31f6a6310391b0830cf4123e17010000006a473044022002d19f6d41671347116be5254f42fdb391b0ac64e53384d6d5687d0e939f72970220162629874cca9ccb40829375e75ef25e89e819e1babb638fa79ced98c6ef5dec01210306f579d258a113085f85a970b07152fc3857a22d741de7ff54b6b63368734497feffffff31eba82db8699ae13acce71f8c1c063b5a8f541f2704aa4b278b11820ea85949000000006a4730440220730b29e0891a8584c941b4223e0ca165a9dcf1959f23eba6f952cc588e922f04022054511e9347e4382f7893d2aed31b61c9f57e732531f8dac9647198ead6fa8534012103606fef5e061d80023196bc1c473ad739464224ce7d4887c79259e28c6a9b3840feffffff06c4d4b969e864bbf4a40fa4c5e66aa665e3b8a3dffbbde732ee4122fe88d154000000006b483045022100c4579812f316a9c946807440c5b3c666da8d9f2b3d495357d627ff0ed1c0c5080220583e03799ab0e6f6fcbff3dba776eca778f3b8ff3d4396420f54478fefc85d560121038a3988c660d2ffd6effbef66cd0fdfc733ecbe31305c6123f9ec9f59302079d9feffffffde6365a5a5828849a5a77370d429238ec8756e966a86db5422294c62dea39565070000006b483045022100fd22bffaea782ba8b2e7efbf64090e6483b8afa42ba597cddaf7f3d960cad7470220245266888400ee2cefde1b3393588876bc3dfb26b7a0ea16e6eda1611c7b66800121034d0d5d0e8c6dbad641b2d46a0d18a7ddd2af78b2d3851d0d8aba3c093583da91feffffff8e73f89ca3cfa57a3d32c238931ab43672b2e261e39b92e88a799b38d9d5d066020000006b483045022100df2714354e3f6d26781c76f70ab4e6453355e8dbc028b8fc6dc4b4953de438a3022056a2d65fce8baed35f088fef369532d7c32e9d58203c88ab41b9835d4781003e01210255f07ffdfe61dbb55faf5a070e49e87b8bdd0a8f6bba75d07984129beeebfa6bfeffffff9aa1b881018a29fe8ebb9455663800cfec629c2f12b21ae2406c1f90b0eb2e71010000006a47304402202df90b739ed02f550f4d6b73e23f3fc2353f1f7e44da57ed15ada91cc524464b022033ddc2d7fe343d8d6773f542171c1fa2ec910e3e2756db09c23a3337b18bc2ba012102ce86a87b0c2cf182eed3bff0010a6252ff8b1a09185ac8e83f6f2345d87750a7feffffff22416c748d719535791b625c989b73c8bd27b5a54ec4013248899a19e49281cb010000006a473044022006173f09749a933f4a25d7af04a1bfa95315193a3abce0367c34be0a29bc25e5022012bfc454ab953f1952c020f39cf03caa84560bf8dfbee5e0358633cd7564482f01210239d3a1ede2e0d1c0beb43f65bb34524bdae777b0c3b8b9593c2c908d8e7bcb64feffffff8773020eb8e28cbe9c36cf6fdff2bc394915e23dea9c555eb17e849bacdb55db010000006b483045022100d30ce1d2eff63a3d711c754c376abed997abc03833077009a818604eff851aa9022007677c7b5c936c175ed36d8229944f9eb5a5968cf88fa1982e640bc9be6a6f7001210277e46c5e9c9e692925980c6f25ef4bdb28133b5548547547076626f1ab1e74acfeffffff9dc48e81a3256b22549ed0d3a58867d148dfdea254dbacfb25c1f8e5185497f7090000006a4730440220515f8bf33ae8402e6443dab53fb9b3914a98cd716e8fdb7be45f5cc6e5f66acc02204bac8fb126b7e14b0c8dd5cbc559a0c25f839b6bfc9517172bbb60768daf5f8901210255928a9bbad84b770711e7de3d8804cb52578a4b036e691b1a24b8ac0af32a0afeffffff01618b0f03000000001976a91478a9c7be4c4e129ea66f162757c6359f6c21b41688ac12490800", "vin": [{"sequence": 4294967294, "scriptSig": {"hex": "473044022002d19f6d41671347116be5254f42fdb391b0ac64e53384d6d5687d0e939f72970220162629874cca9ccb40829375e75ef25e89e819e1babb638fa79ced98c6ef5dec01210306f579d258a113085f85a970b07152fc3857a22d741de7ff54b6b63368734497", "asm": "3044022002d19f6d41671347116be5254f42fdb391b0ac64e53384d6d5687d0e939f72970220162629874cca9ccb40829375e75ef25e89e819e1babb638fa79ced98c6ef5dec[ALL] 0306f579d258a113085f85a970b07152fc3857a22d741de7ff54b6b63368734497"}, "vout": 1, "txid": "173e12f40c83b0910331a6f6317d2f67b014302f13dc651e348e2d3f9782dccf"}, {"sequence": 4294967294, "scriptSig": {"hex": "4730440220730b29e0891a8584c941b4223e0ca165a9dcf1959f23eba6f952cc588e922f04022054511e9347e4382f7893d2aed31b61c9f57e732531f8dac9647198ead6fa8534012103606fef5e061d80023196bc1c473ad739464224ce7d4887c79259e28c6a9b3840", "asm": "30440220730b29e0891a8584c941b4223e0ca165a9dcf1959f23eba6f952cc588e922f04022054511e9347e4382f7893d2aed31b61c9f57e732531f8dac9647198ead6fa8534[ALL] 03606fef5e061d80023196bc1c473ad739464224ce7d4887c79259e28c6a9b3840"}, "vout": 0, "txid": "4959a80e82118b274baa04271f548f5a3b061c8c1fe7cc3ae19a69b82da8eb31"}, {"sequence": 4294967294, "scriptSig": {"hex": "483045022100c4579812f316a9c946807440c5b3c666da8d9f2b3d495357d627ff0ed1c0c5080220583e03799ab0e6f6fcbff3dba776eca778f3b8ff3d4396420f54478fefc85d560121038a3988c660d2ffd6effbef66cd0fdfc733ecbe31305c6123f9ec9f59302079d9", "asm": "3045022100c4579812f316a9c946807440c5b3c666da8d9f2b3d495357d627ff0ed1c0c5080220583e03799ab0e6f6fcbff3dba776eca778f3b8ff3d4396420f54478fefc85d56[ALL] 038a3988c660d2ffd6effbef66cd0fdfc733ecbe31305c6123f9ec9f59302079d9"}, "vout": 0, "txid": "54d188fe2241ee32e7bdfbdfa3b8e365a66ae6c5a40fa4f4bb64e869b9d4c406"}, {"sequence": 4294967294, "scriptSig": {"hex": "483045022100fd22bffaea782ba8b2e7efbf64090e6483b8afa42ba597cddaf7f3d960cad7470220245266888400ee2cefde1b3393588876bc3dfb26b7a0ea16e6eda1611c7b66800121034d0d5d0e8c6dbad641b2d46a0d18a7ddd2af78b2d3851d0d8aba3c093583da91", "asm": "3045022100fd22bffaea782ba8b2e7efbf64090e6483b8afa42ba597cddaf7f3d960cad7470220245266888400ee2cefde1b3393588876bc3dfb26b7a0ea16e6eda1611c7b6680[ALL] 034d0d5d0e8c6dbad641b2d46a0d18a7ddd2af78b2d3851d0d8aba3c093583da91"}, "vout": 7, "txid": "6595a3de624c292254db866a966e75c88e2329d47073a7a5498882a5a56563de"}, {"sequence": 4294967294, "scriptSig": {"hex": "483045022100df2714354e3f6d26781c76f70ab4e6453355e8dbc028b8fc6dc4b4953de438a3022056a2d65fce8baed35f088fef369532d7c32e9d58203c88ab41b9835d4781003e01210255f07ffdfe61dbb55faf5a070e49e87b8bdd0a8f6bba75d07984129beeebfa6b", "asm": "3045022100df2714354e3f6d26781c76f70ab4e6453355e8dbc028b8fc6dc4b4953de438a3022056a2d65fce8baed35f088fef369532d7c32e9d58203c88ab41b9835d4781003e[ALL] 0255f07ffdfe61dbb55faf5a070e49e87b8bdd0a8f6bba75d07984129beeebfa6b"}, "vout": 2, "txid": "66d0d5d9389b798ae8929be361e2b27236b41a9338c2323d7aa5cfa39cf8738e"}, {"sequence": 4294967294, "scriptSig": {"hex": "47304402202df90b739ed02f550f4d6b73e23f3fc2353f1f7e44da57ed15ada91cc524464b022033ddc2d7fe343d8d6773f542171c1fa2ec910e3e2756db09c23a3337b18bc2ba012102ce86a87b0c2cf182eed3bff0010a6252ff8b1a09185ac8e83f6f2345d87750a7", "asm": "304402202df90b739ed02f550f4d6b73e23f3fc2353f1f7e44da57ed15ada91cc524464b022033ddc2d7fe343d8d6773f542171c1fa2ec910e3e2756db09c23a3337b18bc2ba[ALL] 02ce86a87b0c2cf182eed3bff0010a6252ff8b1a09185ac8e83f6f2345d87750a7"}, "vout": 1, "txid": "712eebb0901f6c40e21ab2122f9c62eccf0038665594bb8efe298a0181b8a19a"}, {"sequence": 4294967294, "scriptSig": {"hex": "473044022006173f09749a933f4a25d7af04a1bfa95315193a3abce0367c34be0a29bc25e5022012bfc454ab953f1952c020f39cf03caa84560bf8dfbee5e0358633cd7564482f01210239d3a1ede2e0d1c0beb43f65bb34524bdae777b0c3b8b9593c2c908d8e7bcb64", "asm": "3044022006173f09749a933f4a25d7af04a1bfa95315193a3abce0367c34be0a29bc25e5022012bfc454ab953f1952c020f39cf03caa84560bf8dfbee5e0358633cd7564482f[ALL] 0239d3a1ede2e0d1c0beb43f65bb34524bdae777b0c3b8b9593c2c908d8e7bcb64"}, "vout": 1, "txid": "cb8192e4199a89483201c44ea5b527bdc8739b985c621b793595718d746c4122"}, {"sequence": 4294967294, "scriptSig": {"hex": "483045022100d30ce1d2eff63a3d711c754c376abed997abc03833077009a818604eff851aa9022007677c7b5c936c175ed36d8229944f9eb5a5968cf88fa1982e640bc9be6a6f7001210277e46c5e9c9e692925980c6f25ef4bdb28133b5548547547076626f1ab1e74ac", "asm": "3045022100d30ce1d2eff63a3d711c754c376abed997abc03833077009a818604eff851aa9022007677c7b5c936c175ed36d8229944f9eb5a5968cf88fa1982e640bc9be6a6f70[ALL] 0277e46c5e9c9e692925980c6f25ef4bdb28133b5548547547076626f1ab1e74ac"}, "vout": 1, "txid": "db55dbac9b847eb15e559cea3de2154939bcf2df6fcf369cbe8ce2b80e027387"}, {"sequence": 4294967294, "scriptSig": {"hex": "4730440220515f8bf33ae8402e6443dab53fb9b3914a98cd716e8fdb7be45f5cc6e5f66acc02204bac8fb126b7e14b0c8dd5cbc559a0c25f839b6bfc9517172bbb60768daf5f8901210255928a9bbad84b770711e7de3d8804cb52578a4b036e691b1a24b8ac0af32a0a", "asm": "30440220515f8bf33ae8402e6443dab53fb9b3914a98cd716e8fdb7be45f5cc6e5f66acc02204bac8fb126b7e14b0c8dd5cbc559a0c25f839b6bfc9517172bbb60768daf5f89[ALL] 0255928a9bbad84b770711e7de3d8804cb52578a4b036e691b1a24b8ac0af32a0a"}, "vout": 9, "txid": "f7975418e5f8c125fbacdb54a2dedf48d16788a5d3d09e54226b25a3818ec49d"}], "txid": "f675292dfbd6188d2b35849a3c010dbe8428f3ef1a37612401b06948926488a0", "blocktime": 1537872475, "version": 1, "confirmations": 11486, "time": 1537872475, "locktime": 542994, "vsize": 1371, "size": 1371}