{"hash": "f67d558372eb62b7232d62697e3ec018e4937c73cab02d881cfd583897320733", "blockhash": "00000000000000000024a2167bbff67b0be802c0b01cdd79e6331c2be6459f87", "vout": [{"scriptPubKey": {"reqSigs": 1, "hex": "a914dea6a60fbc8cc83e7c3178f0c25a5450f3cc18ec87", "addresses": ["3MzHa5nD1vdj16RK7C43BZ34qNYMfqN9jg"], "asm": "OP_HASH160 dea6a60fbc8cc83e7c3178f0c25a5450f3cc18ec OP_EQUAL", "type": "scripthash"}, "value": 0.03729322, "n": 0}], "hex": "0100000001a849bd0b9c330fb257d49f26121160aca3f661b3cdf62f29c418297d7313b3cc000000006a473044022071a458c2e7efdca4e69f333ba4b2c5c23ecf7dec583e1dc2e79137a8cb90795602200939c3406eadeca40ae3273ea4cb60f76982e34ce32232bc49715eccadbc50ee0121022889da6630e137a96d145df9f4337c3b3a576c34613bc0c7fd81104af61e8124ffffffff01aae738000000000017a914dea6a60fbc8cc83e7c3178f0c25a5450f3cc18ec8700000000", "vin": [{"sequence": 4294967295, "scriptSig": {"hex": "473044022071a458c2e7efdca4e69f333ba4b2c5c23ecf7dec583e1dc2e79137a8cb90795602200939c3406eadeca40ae3273ea4cb60f76982e34ce32232bc49715eccadbc50ee0121022889da6630e137a96d145df9f4337c3b3a576c34613bc0c7fd81104af61e8124", "asm": "3044022071a458c2e7efdca4e69f333ba4b2c5c23ecf7dec583e1dc2e79137a8cb90795602200939c3406eadeca40ae3273ea4cb60f76982e34ce32232bc49715eccadbc50ee[ALL] 022889da6630e137a96d145df9f4337c3b3a576c34613bc0c7fd81104af61e8124"}, "vout": 0, "txid": "ccb313737d2918c4292ff6cdb361f6a3ac601112269fd457b20f339c0bbd49a8"}], "txid": "f67d558372eb62b7232d62697e3ec018e4937c73cab02d881cfd583897320733", "blocktime": 1537870564, "version": 1, "confirmations": 11515, "time": 1537870564, "locktime": 0, "vsize": 189, "size": 189}