{"hash": "9abdc862a87636f514ffa5bd5f0d4aa0fa4c963e5e3909ef77d319dc237dc435", "blockhash": "0000000000000000001f76057863aec43deb6fa401d9628bb513d65a8098bfab", "vout": [{"scriptPubKey": {"reqSigs": 1, "hex": "001417e27e5f9fd81b03cf74805506f0962dc181769a", "addresses": ["bc1qzl38uhulmqds8nm5sp2sduyk9hqcza565dj2fw"], "asm": "0 17e27e5f9fd81b03cf74805506f0962dc181769a", "type": "witness_v0_keyhash"}, "value": 7.212e-05, "n": 0}, {"scriptPubKey": {"reqSigs": 1, "hex": "76a9142707a0825a08ac7ad220e2461ff8b44e9b935e0c88ac", "addresses": ["14ZNVR1GbkGpR3Qkh1VKV5famb5t4DWH3g"], "asm": "OP_DUP OP_HASH160 2707a0825a08ac7ad220e2461ff8b44e9b935e0c OP_EQUALVERIFY OP_CHECKSIG", "type": "pubkeyhash"}, "value": 0.00363892, "n": 1}], "hex": "0100000000010124a7b2aef1d1ef9d2c15ff4326b336dedeb5c4fd6f5bf5956461b1f73233a30a0000000000ffffffff022c1c00000000000016001417e27e5f9fd81b03cf74805506f0962dc181769a748d0500000000001976a9142707a0825a08ac7ad220e2461ff8b44e9b935e0c88ac02473044022066c0af16569f748614aa6b4792bc4cd89a241ecfde2ca5b4a6936b5f2587a6a00220341ac6997c57e5433eb772b2b9032afba1b1c39eda4c7e49f35bfae7475f884801210336cadd395db74bc8f3f5cf18d61ad61eee02c5ca25f34212b40fb034bb2fc89100000000", "vin": [{"txinwitness": ["3044022066c0af16569f748614aa6b4792bc4cd89a241ecfde2ca5b4a6936b5f2587a6a00220341ac6997c57e5433eb772b2b9032afba1b1c39eda4c7e49f35bfae7475f884801", "0336cadd395db74bc8f3f5cf18d61ad61eee02c5ca25f34212b40fb034bb2fc891"], "sequence": 4294967295, "scriptSig": {"hex": "", "asm": ""}, "vout": 0, "txid": "0aa33332f7b1616495f55b6ffdc4b5dede36b32643ff152c9defd1f1aeb2a724"}], "txid": "f68f9454827946c2ecd6c0721d41e19d8b9c1808ba1adb54aa397f1326103761", "blocktime": 1537873891, "version": 1, "confirmations": 11478, "time": 1537873891, "locktime": 0, "vsize": 144, "size": 225}