{"hash": "49b9b34685063be8e042b233fdec3dd8fa92f0e22d5b2e7f6e7a31fa0fc3ac96", "blockhash": "0000000000000000000dcc0f55137456b1a82d3642486a52398922ac4d620174", "vout": [{"scriptPubKey": {"reqSigs": 1, "hex": "a914621cf2554f7bb93da68822392ee0148f8bdeb63787", "addresses": ["3Adnpb8ABKkkn3dk1VwDLLagWR5WjfWway"], "asm": "OP_HASH160 621cf2554f7bb93da68822392ee0148f8bdeb637 OP_EQUAL", "type": "scripthash"}, "value": 0.0099687, "n": 0}, {"scriptPubKey": {"reqSigs": 1, "hex": "76a914d0b59c3a81ed98e859fa22c6a6e02a8e0582ccd888ac", "addresses": ["1L2Z7QPs3apDSshgRo7xfbeviQLTrRci1z"], "asm": "OP_DUP OP_HASH160 d0b59c3a81ed98e859fa22c6a6e02a8e0582ccd8 OP_EQUALVERIFY OP_CHECKSIG", "type": "pubkeyhash"}, "value": 0.062468, "n": 1}], "hex": "0200000000010292cdb0d1611291eb9821adc590b5f6b8b541e7e899cb0901c8b875acbebe710f0000000017160014c24be511f45be190dce515fd296e62ebdf38a019feffffffc483095e985d3175bd0d5a11d2e40aba4fe56e2a392b86382b2f65ea2d2f90630000000017160014833876fd65923be1f4cd56227f5b0fb7b06b0ba6feffffff0206360f000000000017a914621cf2554f7bb93da68822392ee0148f8bdeb6378790515f00000000001976a914d0b59c3a81ed98e859fa22c6a6e02a8e0582ccd888ac02483045022100eb5accd7b271f0e26532f528f21f05630b4d6eea531c22ecb58633d88601613a02202654e97131bd69c7a8e38daa47e759aa0da6e63b74ef2aa67f38d1e3e9a9de49012103e52cdca64f86268a6af3fc47f28a8bd4b8a7d38e0ddcdea483b619cf309447ca024730440220206d45ad74ceb966af2ac9d21c8a47f560a1112f10a7a191d7822b1e8a054be702206b60cd23840699476d9bacbc83083ebb76c9bea66438f5fd7d3a02d5a1b22a32012102f8615c3277504c5a9b91a7ac7ecdf254e04f4c0c5b0dab3d0d0290f77a183f9b0c490800", "vin": [{"txinwitness": ["3045022100eb5accd7b271f0e26532f528f21f05630b4d6eea531c22ecb58633d88601613a02202654e97131bd69c7a8e38daa47e759aa0da6e63b74ef2aa67f38d1e3e9a9de4901", "03e52cdca64f86268a6af3fc47f28a8bd4b8a7d38e0ddcdea483b619cf309447ca"], "sequence": 4294967294, "scriptSig": {"hex": "160014c24be511f45be190dce515fd296e62ebdf38a019", "asm": "0014c24be511f45be190dce515fd296e62ebdf38a019"}, "vout": 0, "txid": "0f71bebeac75b8c80109cb99e8e741b5b8f6b590c5ad2198eb911261d1b0cd92"}, {"txinwitness": ["30440220206d45ad74ceb966af2ac9d21c8a47f560a1112f10a7a191d7822b1e8a054be702206b60cd23840699476d9bacbc83083ebb76c9bea66438f5fd7d3a02d5a1b22a3201", "02f8615c3277504c5a9b91a7ac7ecdf254e04f4c0c5b0dab3d0d0290f77a183f9b"], "sequence": 4294967294, "scriptSig": {"hex": "160014833876fd65923be1f4cd56227f5b0fb7b06b0ba6", "asm": "0014833876fd65923be1f4cd56227f5b0fb7b06b0ba6"}, "vout": 0, "txid": "63902f2dea652f2b38862b392a6ee54fba0ae4d2115a0dbd75315d985e0983c4"}], "txid": "f69f5cd7a31e1ae45936b52f72cc3248ccfe8d12367e3c18d8ae41bce74a9828", "blocktime": 1537870268, "version": 2, "confirmations": 11516, "time": 1537870268, "locktime": 542988, "vsize": 259, "size": 421}