{"hash": "f6aae877025aabbe8dde246e538b4497e205dfebaff59b13b46b2804957f27f4", "blockhash": "0000000000000000001f0ddff1eddb255c1121bcd4da4f1bc9a0da00cae72433", "vout": [{"scriptPubKey": {"reqSigs": 1, "hex": "76a9143f9df4e6aa81c705ae5fe63d8746a85c6547cdff88ac", "addresses": ["16oNo77YfPPjc7yoxCu4UexkdyEsDWDJM1"], "asm": "OP_DUP OP_HASH160 3f9df4e6aa81c705ae5fe63d8746a85c6547cdff OP_EQUALVERIFY OP_CHECKSIG", "type": "pubkeyhash"}, "value": 0.00640309, "n": 0}, {"scriptPubKey": {"type": "nulldata", "hex": "6a4c50000077ab0001de4825a21dd09bb4255e0444af6c953dd567cf27e7e3ef3236678a625097ab00a67cb3161ad038029740894688805baa103a0612e31d5a47cc751d100759d4ba30d2c37bb011d97e02cf", "asm": "OP_RETURN 000077ab0001de4825a21dd09bb4255e0444af6c953dd567cf27e7e3ef3236678a625097ab00a67cb3161ad038029740894688805baa103a0612e31d5a47cc751d100759d4ba30d2c37bb011d97e02cf"}, "value": 0.0, "n": 1}], "hex": "0100000001129baf092c009f7f40d2260d0e3f8ebd815f574cb1f362b20b91dfb082a6efce010000006a47304402202656aa783dcdaf62bb760562382c854693318f2a685a7a636a3953d8115fc4f5022006ff31f97ef40692776765feb81f4af86c5e094c91cf97aaaad086bf920c60ca012102f968114e0d9690342c5cf0296f5dd3a44c1b2530d566e6bc075e7873a285e5a3ffffffff0235c50900000000001976a9143f9df4e6aa81c705ae5fe63d8746a85c6547cdff88ac0000000000000000536a4c50000077ab0001de4825a21dd09bb4255e0444af6c953dd567cf27e7e3ef3236678a625097ab00a67cb3161ad038029740894688805baa103a0612e31d5a47cc751d100759d4ba30d2c37bb011d97e02cf00000000", "vin": [{"sequence": 4294967295, "scriptSig": {"hex": "47304402202656aa783dcdaf62bb760562382c854693318f2a685a7a636a3953d8115fc4f5022006ff31f97ef40692776765feb81f4af86c5e094c91cf97aaaad086bf920c60ca012102f968114e0d9690342c5cf0296f5dd3a44c1b2530d566e6bc075e7873a285e5a3", "asm": "304402202656aa783dcdaf62bb760562382c854693318f2a685a7a636a3953d8115fc4f5022006ff31f97ef40692776765feb81f4af86c5e094c91cf97aaaad086bf920c60ca[ALL] 02f968114e0d9690342c5cf0296f5dd3a44c1b2530d566e6bc075e7873a285e5a3"}, "vout": 1, "txid": "ceefa682b0df910bb262f3b14c575f81bd8e3f0e0d26d2407f9f002c09af9b12"}], "txid": "f6aae877025aabbe8dde246e538b4497e205dfebaff59b13b46b2804957f27f4", "blocktime": 1537872018, "version": 1, "confirmations": 11489, "time": 1537872018, "locktime": 0, "vsize": 283, "size": 283}