{"hash": "b7d7f17863aab78438ffa19fabbfaec2576f817f1df0a7f0c3400a7ec0f42783", "blockhash": "0000000000000000000e13cef7c366c0283d82e591d1acd082e914b08063cdf1", "vout": [{"scriptPubKey": {"reqSigs": 1, "hex": "a91464001c859178cf5b891f7ea4905e59fd3230569a87", "addresses": ["3AomdU6K6ECEKCqgVS1Ebni9p2yopriac5"], "asm": "OP_HASH160 64001c859178cf5b891f7ea4905e59fd3230569a OP_EQUAL", "type": "scripthash"}, "value": 3.31238139, "n": 0}, {"scriptPubKey": {"reqSigs": 1, "hex": "76a914f2c43e0cd279044b9a6ef5d4bda619a1aba96b0088ac", "addresses": ["1P8dcaoV1VrKKXvLts8JpbabuYU63kuqHa"], "asm": "OP_DUP OP_HASH160 f2c43e0cd279044b9a6ef5d4bda619a1aba96b00 OP_EQUALVERIFY OP_CHECKSIG", "type": "pubkeyhash"}, "value": 0.00167583, "n": 1}], "hex": "02000000000101f32996b7493f7cbabf636cd94137a3aa14583e05f51163a831816aecd21d2b2700000000171600148ed857989f131fbfa96a511456a62aa05a9373bdfeffffff02fb4abe130000000017a91464001c859178cf5b891f7ea4905e59fd3230569a879f8e0200000000001976a914f2c43e0cd279044b9a6ef5d4bda619a1aba96b0088ac0247304402201b1cbbb1c5c7140be72bd092742395427a10abb80bf2570ef55d811d46e2771f0220061b04a93dbccebffb52ccef1580f0bcac6b90cb9d4697ca25e56605d11cce9001210211d55091a92e9a0ef9aff44bae57e358bfbc8f08265eda04485d1ffce65efcc410490800", "vin": [{"txinwitness": ["304402201b1cbbb1c5c7140be72bd092742395427a10abb80bf2570ef55d811d46e2771f0220061b04a93dbccebffb52ccef1580f0bcac6b90cb9d4697ca25e56605d11cce9001", "0211d55091a92e9a0ef9aff44bae57e358bfbc8f08265eda04485d1ffce65efcc4"], "sequence": 4294967294, "scriptSig": {"hex": "1600148ed857989f131fbfa96a511456a62aa05a9373bd", "asm": "00148ed857989f131fbfa96a511456a62aa05a9373bd"}, "vout": 0, "txid": "272b1dd2ec6a8131a86311f5053e5814aaa33741d96c63bfba7c3f49b79629f3"}], "txid": "f6ab976983ca176b8c60365d9def0765d6ad6eaf27ae472ad4cb5ac5ded40083", "blocktime": 1537871767, "version": 2, "confirmations": 11492, "time": 1537871767, "locktime": 542992, "vsize": 168, "size": 249}