{"hash": "f6b071215c46c5b464f616578d8f7c1b8ac274ec1574d99239642839f0b261dc", "blockhash": "0000000000000000001f0ddff1eddb255c1121bcd4da4f1bc9a0da00cae72433", "vout": [{"scriptPubKey": {"reqSigs": 1, "hex": "76a91411ad0fdd69d4b07f5568598cfd30ca07a11315b188ac", "addresses": ["12cTopRvZoqWoC73Q7Pkiqr55GPyaGWpk9"], "asm": "OP_DUP OP_HASH160 11ad0fdd69d4b07f5568598cfd30ca07a11315b1 OP_EQUALVERIFY OP_CHECKSIG", "type": "pubkeyhash"}, "value": 0.001598, "n": 0}, {"scriptPubKey": {"reqSigs": 1, "hex": "76a9144d836395403247e12f466a44115f96acd3ae162a88ac", "addresses": ["184rRqdW9abH9Hvbz3hqAwpdSpg9PZfCee"], "asm": "OP_DUP OP_HASH160 4d836395403247e12f466a44115f96acd3ae162a OP_EQUALVERIFY OP_CHECKSIG", "type": "pubkeyhash"}, "value": 0.02645073, "n": 1}], "hex": "0100000001c0274387501a2f9b6809205dddce4497c49941bc2f86fc1e8cf30152ab945110010000006b483045022100ebf6b1bddbfd368d7e0c0378096977c0d0878092b94444407392308e66169e8702203aaac6f476369445b58f5440558bce661e9bfab9e173d44511fee3582f9d24800121034de2549c8bd63183adfd78d81b10ed0aa45d193a92084b9fcaf31adc7a4d51acffffffff0238700200000000001976a91411ad0fdd69d4b07f5568598cfd30ca07a11315b188ac515c2800000000001976a9144d836395403247e12f466a44115f96acd3ae162a88ac00000000", "vin": [{"sequence": 4294967295, "scriptSig": {"hex": "483045022100ebf6b1bddbfd368d7e0c0378096977c0d0878092b94444407392308e66169e8702203aaac6f476369445b58f5440558bce661e9bfab9e173d44511fee3582f9d24800121034de2549c8bd63183adfd78d81b10ed0aa45d193a92084b9fcaf31adc7a4d51ac", "asm": "3045022100ebf6b1bddbfd368d7e0c0378096977c0d0878092b94444407392308e66169e8702203aaac6f476369445b58f5440558bce661e9bfab9e173d44511fee3582f9d2480[ALL] 034de2549c8bd63183adfd78d81b10ed0aa45d193a92084b9fcaf31adc7a4d51ac"}, "vout": 1, "txid": "105194ab5201f38c1efc862fbc4199c49744cedd5d2009689b2f1a50874327c0"}], "txid": "f6b071215c46c5b464f616578d8f7c1b8ac274ec1574d99239642839f0b261dc", "blocktime": 1537872018, "version": 1, "confirmations": 11489, "time": 1537872018, "locktime": 0, "vsize": 226, "size": 226}