{"hash": "f6b4c249979fcd07cbb92887e17d5e542e226688bfd30fa41e9e8c12b553df7e", "blockhash": "0000000000000000000e13cef7c366c0283d82e591d1acd082e914b08063cdf1", "vout": [{"scriptPubKey": {"reqSigs": 1, "hex": "76a914e90007e86524b34ac3495bb610e1b5648e5ee65988ac", "addresses": ["1NEzUqt1dFn8xKv6LjWi2npkPYPTMZnL82"], "asm": "OP_DUP OP_HASH160 e90007e86524b34ac3495bb610e1b5648e5ee659 OP_EQUALVERIFY OP_CHECKSIG", "type": "pubkeyhash"}, "value": 0.01997377, "n": 0}, {"scriptPubKey": {"reqSigs": 1, "hex": "76a914e0e335de6a71dea7eff1ba3d0458e808aafccda888ac", "addresses": ["1MW6YpyPmcobpaGjcpKi116BHXxixuPLPb"], "asm": "OP_DUP OP_HASH160 e0e335de6a71dea7eff1ba3d0458e808aafccda8 OP_EQUALVERIFY OP_CHECKSIG", "type": "pubkeyhash"}, "value": 0.02, "n": 1}], "hex": "01000000017483df50e6173b2bc6ca67848db08202f18c884c772e284b809d90554aeb0600020000006a4730440220330560053f671cf7193010a7242bd21f9c47b9b546b839fb401b050b9909e617022032463cd54cd5c0c942ac45abef8f0f85cc834f94096669a4580e20d0798be02c012103e4addb7809d20e3cf85c913ea93969a52c57a5fdfcb1fedcb25002cf9b21d816feffffff02417a1e00000000001976a914e90007e86524b34ac3495bb610e1b5648e5ee65988ac80841e00000000001976a914e0e335de6a71dea7eff1ba3d0458e808aafccda888ac10490800", "vin": [{"sequence": 4294967294, "scriptSig": {"hex": "4730440220330560053f671cf7193010a7242bd21f9c47b9b546b839fb401b050b9909e617022032463cd54cd5c0c942ac45abef8f0f85cc834f94096669a4580e20d0798be02c012103e4addb7809d20e3cf85c913ea93969a52c57a5fdfcb1fedcb25002cf9b21d816", "asm": "30440220330560053f671cf7193010a7242bd21f9c47b9b546b839fb401b050b9909e617022032463cd54cd5c0c942ac45abef8f0f85cc834f94096669a4580e20d0798be02c[ALL] 03e4addb7809d20e3cf85c913ea93969a52c57a5fdfcb1fedcb25002cf9b21d816"}, "vout": 2, "txid": "0006eb4a55909d804b282e774c888cf10282b08d8467cac62b3b17e650df8374"}], "txid": "f6b4c249979fcd07cbb92887e17d5e542e226688bfd30fa41e9e8c12b553df7e", "blocktime": 1537871767, "version": 1, "confirmations": 11495, "time": 1537871767, "locktime": 542992, "vsize": 225, "size": 225}