{"hash": "f6bfdf8b11a35129b885de4bfb61243a2b099658758579b35c5501b36e96b7ee", "blockhash": "0000000000000000001f76057863aec43deb6fa401d9628bb513d65a8098bfab", "vout": [{"scriptPubKey": {"reqSigs": 1, "hex": "a9146af575e4b1072c2704d4cc8a546dea811af4b32a87", "addresses": ["3BSZbmqAnt69QkXmNxuYo3zjhAnh6y5JWT"], "asm": "OP_HASH160 6af575e4b1072c2704d4cc8a546dea811af4b32a OP_EQUAL", "type": "scripthash"}, "value": 0.00049, "n": 0}, {"scriptPubKey": {"reqSigs": 1, "hex": "76a914eef57728b46f2fb9e7d2dc9dec1c0831da5b146588ac", "addresses": ["1NnVstvEss3rWS3gTgjU2EnJYm95AsLHwc"], "asm": "OP_DUP OP_HASH160 eef57728b46f2fb9e7d2dc9dec1c0831da5b1465 OP_EQUALVERIFY OP_CHECKSIG", "type": "pubkeyhash"}, "value": 0.00266556, "n": 1}], "hex": "0100000001557ca4500de5be36dde73c41a26593c44001cd7b5f55f123fae59b919804754f010000006b4830450221008ab9a08b3a16d0434b89ac5c40ef38b9d0609eaad13cbe6e62cf34cedf66d53a02205eb74bb8107c9a1cc35fc171ddb615c0261c3f82389865455af3a227c3e4d4940121022dc97667f9136cedd128ed48bd243385dc574ef58f4c4fdd93f5c2cf2e509c93ffffffff0268bf00000000000017a9146af575e4b1072c2704d4cc8a546dea811af4b32a873c110400000000001976a914eef57728b46f2fb9e7d2dc9dec1c0831da5b146588ac00000000", "vin": [{"sequence": 4294967295, "scriptSig": {"hex": "4830450221008ab9a08b3a16d0434b89ac5c40ef38b9d0609eaad13cbe6e62cf34cedf66d53a02205eb74bb8107c9a1cc35fc171ddb615c0261c3f82389865455af3a227c3e4d4940121022dc97667f9136cedd128ed48bd243385dc574ef58f4c4fdd93f5c2cf2e509c93", "asm": "30450221008ab9a08b3a16d0434b89ac5c40ef38b9d0609eaad13cbe6e62cf34cedf66d53a02205eb74bb8107c9a1cc35fc171ddb615c0261c3f82389865455af3a227c3e4d494[ALL] 022dc97667f9136cedd128ed48bd243385dc574ef58f4c4fdd93f5c2cf2e509c93"}, "vout": 1, "txid": "4f750498919be5fa23f1555f7bcd0140c49365a2413ce7dd36bee50d50a47c55"}], "txid": "f6bfdf8b11a35129b885de4bfb61243a2b099658758579b35c5501b36e96b7ee", "blocktime": 1537873891, "version": 1, "confirmations": 11478, "time": 1537873891, "locktime": 0, "vsize": 224, "size": 224}