{"hash": "f6c5e2091efa105c89babc8af83f4fc23dc474c4c09081bae74a7c8dfc5ee361", "blockhash": "0000000000000000001cda96e906b7601b7a6fb1a3b62bca570a9e5d8f4b3de1", "vout": [{"scriptPubKey": {"reqSigs": 1, "hex": "76a914d3c11c6a90cebfb4eb3dcd77f8d210ae459d61c888ac", "addresses": ["1LJev4hcrUxgbhNCG9y4EGBsjvA37PdE6h"], "asm": "OP_DUP OP_HASH160 d3c11c6a90cebfb4eb3dcd77f8d210ae459d61c8 OP_EQUALVERIFY OP_CHECKSIG", "type": "pubkeyhash"}, "value": 0.00759, "n": 0}], "hex": "0100000002eb120159b649eb12431c857867369780fd74634298ed8681b16580827206c930010000006a47304402206e3c4a6f302190ce12f1c24fbff7358feabc341bd03d687fb308f72b9f5d2510022066cb5b2d1ed862e88d291e4b3c09b3c223ad2bd61676dc42a5f307184b0d062001210364d6bf8b9fbc826cf9dd5c76d4078ef214c2319c982c4861bd908080a045d7d2ffffffff3afa6fe8edbd31d421636f7a842d6b7f65928f83a1ef5bc9536b59c120ccd05f000000006b483045022100f16a8f687838ae5361c61baa48be3582e1bcebd92513a15fbd7b2567a48320e7022029dbc5b0d34678929a456b66f3c06fcd4a24e24f019481c6f090f525eb70dc60012102640476c998fd054ba3d951e8cdab74b649a8f52c9a10cc56b251d68bcca40487ffffffff01d8940b00000000001976a914d3c11c6a90cebfb4eb3dcd77f8d210ae459d61c888ac00000000", "vin": [{"sequence": 4294967295, "scriptSig": {"hex": "47304402206e3c4a6f302190ce12f1c24fbff7358feabc341bd03d687fb308f72b9f5d2510022066cb5b2d1ed862e88d291e4b3c09b3c223ad2bd61676dc42a5f307184b0d062001210364d6bf8b9fbc826cf9dd5c76d4078ef214c2319c982c4861bd908080a045d7d2", "asm": "304402206e3c4a6f302190ce12f1c24fbff7358feabc341bd03d687fb308f72b9f5d2510022066cb5b2d1ed862e88d291e4b3c09b3c223ad2bd61676dc42a5f307184b0d0620[ALL] 0364d6bf8b9fbc826cf9dd5c76d4078ef214c2319c982c4861bd908080a045d7d2"}, "vout": 1, "txid": "30c90672828065b18186ed98426374fd8097366778851c4312eb49b6590112eb"}, {"sequence": 4294967295, "scriptSig": {"hex": "483045022100f16a8f687838ae5361c61baa48be3582e1bcebd92513a15fbd7b2567a48320e7022029dbc5b0d34678929a456b66f3c06fcd4a24e24f019481c6f090f525eb70dc60012102640476c998fd054ba3d951e8cdab74b649a8f52c9a10cc56b251d68bcca40487", "asm": "3045022100f16a8f687838ae5361c61baa48be3582e1bcebd92513a15fbd7b2567a48320e7022029dbc5b0d34678929a456b66f3c06fcd4a24e24f019481c6f090f525eb70dc60[ALL] 02640476c998fd054ba3d951e8cdab74b649a8f52c9a10cc56b251d68bcca40487"}, "vout": 0, "txid": "5fd0cc20c1596b53c95befa1838f92657f6b2d847a6f6321d431bdede86ffa3a"}], "txid": "f6c5e2091efa105c89babc8af83f4fc23dc474c4c09081bae74a7c8dfc5ee361", "blocktime": 1537873282, "version": 1, "confirmations": 11484, "time": 1537873282, "locktime": 0, "vsize": 339, "size": 339}