{"hash": "8ead2b66fd59bb3856a61980b0a4bf4d43e98bc2a8c676dca6885fa83880dc0a", "blockhash": "00000000000000000017f5eb5941039fbcee6240d03bc1f2f8e35350df66a1d8", "vout": [{"scriptPubKey": {"reqSigs": 1, "hex": "76a9142a4e2aa647b1341592644daacb09f3c36bdd235288ac", "addresses": ["14rh2AiGhvFntCKMXg4ECB2bPTbgBcJjTT"], "asm": "OP_DUP OP_HASH160 2a4e2aa647b1341592644daacb09f3c36bdd2352 OP_EQUALVERIFY OP_CHECKSIG", "type": "pubkeyhash"}, "value": 0.5, "n": 0}, {"scriptPubKey": {"reqSigs": 1, "hex": "a914f3b53a78dc3188b8cf61a925eaba3aeb0c2c782387", "addresses": ["3PudE8SBvLLQiEQxtX5KbdBuv3Ai6sqA4i"], "asm": "OP_HASH160 f3b53a78dc3188b8cf61a925eaba3aeb0c2c7823 OP_EQUAL", "type": "scripthash"}, "value": 0.55905448, "n": 1}], "hex": "0100000000010250e45410113a9e5f9b0eee79cc237ea6dd996997e1dd8fa9d8854d42bceb47fa0000000023220020adb76e75fe7b69a066f77b9aeaa355855d60950a9fb39ebdedc0996648208049fffffffff493e925c0d33f0ea9849f55a5354ef3f1d4f36b2d7422bbb7a5db3d86de2f670100000023220020adb76e75fe7b69a066f77b9aeaa355855d60950a9fb39ebdedc0996648208049ffffffff0280f0fa02000000001976a9142a4e2aa647b1341592644daacb09f3c36bdd235288aca80c55030000000017a914f3b53a78dc3188b8cf61a925eaba3aeb0c2c782387040048304502210083b2e461536e4cc75d48377f401aabd6fcd16ccf5d2749c3bce4b5ccbb1e862c02204691bcf9eef03a5482f77312ccc68a61aaffb4ec775c076265a5a93538332d3901483045022100a28f7d4ef1c64ea2b627b164be769150e549d08f5080d72aea8064c63c77edd8022060ff6fb7d93c20ad8c07e57f4c7c5ddbdd8c60d8551f4e25cc8781ddc378e07b0147522103a01073e9aeee62987399fe8d7aff7732cb0d8dfd4be4e6aed9ad6dc5c8e1a5a1210327b06310bbeb2482a81a12f6c8277beee68442b0ccc59f460bfb5a63357615b352ae0400483045022100fb0ef37de3a1a1900ec4497ec04926a986832f60efe971f0ab26b799315d9a0d022021022539de752e852cb69ac0baa870effda4e64215f1a72a965aa050d615bde001473044022028b395f1952ff31c77fac525efb0ca9b556b1e4276d6ae449e8bee754b4b7e6d0220147b5e51097bdfcfd8acf5ac0eeae35c01b0449ab231546e07dd369a967055f10147522103a01073e9aeee62987399fe8d7aff7732cb0d8dfd4be4e6aed9ad6dc5c8e1a5a1210327b06310bbeb2482a81a12f6c8277beee68442b0ccc59f460bfb5a63357615b352ae00000000", "vin": [{"txinwitness": ["", "304502210083b2e461536e4cc75d48377f401aabd6fcd16ccf5d2749c3bce4b5ccbb1e862c02204691bcf9eef03a5482f77312ccc68a61aaffb4ec775c076265a5a93538332d3901", "3045022100a28f7d4ef1c64ea2b627b164be769150e549d08f5080d72aea8064c63c77edd8022060ff6fb7d93c20ad8c07e57f4c7c5ddbdd8c60d8551f4e25cc8781ddc378e07b01", "522103a01073e9aeee62987399fe8d7aff7732cb0d8dfd4be4e6aed9ad6dc5c8e1a5a1210327b06310bbeb2482a81a12f6c8277beee68442b0ccc59f460bfb5a63357615b352ae"], "sequence": 4294967295, "scriptSig": {"hex": "220020adb76e75fe7b69a066f77b9aeaa355855d60950a9fb39ebdedc0996648208049", "asm": "0020adb76e75fe7b69a066f77b9aeaa355855d60950a9fb39ebdedc0996648208049"}, "vout": 0, "txid": "fa47ebbc424d85d8a98fdde1976999dda67e23cc79ee0e9b5f9e3a111054e450"}, {"txinwitness": ["", "3045022100fb0ef37de3a1a1900ec4497ec04926a986832f60efe971f0ab26b799315d9a0d022021022539de752e852cb69ac0baa870effda4e64215f1a72a965aa050d615bde001", "3044022028b395f1952ff31c77fac525efb0ca9b556b1e4276d6ae449e8bee754b4b7e6d0220147b5e51097bdfcfd8acf5ac0eeae35c01b0449ab231546e07dd369a967055f101", "522103a01073e9aeee62987399fe8d7aff7732cb0d8dfd4be4e6aed9ad6dc5c8e1a5a1210327b06310bbeb2482a81a12f6c8277beee68442b0ccc59f460bfb5a63357615b352ae"], "sequence": 4294967295, "scriptSig": {"hex": "220020adb76e75fe7b69a066f77b9aeaa355855d60950a9fb39ebdedc0996648208049", "asm": "0020adb76e75fe7b69a066f77b9aeaa355855d60950a9fb39ebdedc0996648208049"}, "vout": 1, "txid": "672fde863ddba5b7bb22742d6bf3d4f1f34e35a5559f84a90e3fd3c025e993f4"}], "txid": "f6ca376be63722f8cf8bf4b0785ddce9c9111ade55148e21faa34844a76c18f0", "blocktime": 1537874412, "version": 1, "confirmations": 11468, "time": 1537874412, "locktime": 0, "vsize": 339, "size": 669}