{"hash": "f6cb6fa4b92373f3adb21d14c9b265cecd8301ad94661783f3958ff0ac497de6", "blockhash": "0000000000000000001f76057863aec43deb6fa401d9628bb513d65a8098bfab", "vout": [{"scriptPubKey": {"reqSigs": 1, "hex": "76a914a8300a937424e5b9df443337542f2cc3ca7f10a388ac", "addresses": ["1GLJ5CPkifHw77TKQCb12o1wLL4jNbDonb"], "asm": "OP_DUP OP_HASH160 a8300a937424e5b9df443337542f2cc3ca7f10a3 OP_EQUALVERIFY OP_CHECKSIG", "type": "pubkeyhash"}, "value": 0.00129084, "n": 0}, {"scriptPubKey": {"type": "nulldata", "hex": "6a4c50000077e30001887ee3febd18774bd779a4b07af8e8e963c7cfd5b95b23cc0f42c2fc38c5522519f5df268510f8e8fa9aa59c00095baa17080612819676dd69bcbc9a9526289ac0f6612cd74e33776ee4", "asm": "OP_RETURN 000077e30001887ee3febd18774bd779a4b07af8e8e963c7cfd5b95b23cc0f42c2fc38c5522519f5df268510f8e8fa9aa59c00095baa17080612819676dd69bcbc9a9526289ac0f6612cd74e33776ee4"}, "value": 0.0, "n": 1}], "hex": "01000000010f561b6150abd63a2cd5d108e12d3f580fc7abee4e6380054c79fa0d6f5e2f5b010000006a47304402203c6d48a9fad708ce9f6a33c106c40e94fe93dec00dcd38280603deaeaf5aa2d6022066d95f8306fb932d7b878fbe1bedf72d6a44dd45f0ab3a21353cc7f0894ab3ba012102a332c708806b0abf002a76f18a6dc74e735f27e807fdd596b404864d8f1bbb58ffffffff023cf80100000000001976a914a8300a937424e5b9df443337542f2cc3ca7f10a388ac0000000000000000536a4c50000077e30001887ee3febd18774bd779a4b07af8e8e963c7cfd5b95b23cc0f42c2fc38c5522519f5df268510f8e8fa9aa59c00095baa17080612819676dd69bcbc9a9526289ac0f6612cd74e33776ee400000000", "vin": [{"sequence": 4294967295, "scriptSig": {"hex": "47304402203c6d48a9fad708ce9f6a33c106c40e94fe93dec00dcd38280603deaeaf5aa2d6022066d95f8306fb932d7b878fbe1bedf72d6a44dd45f0ab3a21353cc7f0894ab3ba012102a332c708806b0abf002a76f18a6dc74e735f27e807fdd596b404864d8f1bbb58", "asm": "304402203c6d48a9fad708ce9f6a33c106c40e94fe93dec00dcd38280603deaeaf5aa2d6022066d95f8306fb932d7b878fbe1bedf72d6a44dd45f0ab3a21353cc7f0894ab3ba[ALL] 02a332c708806b0abf002a76f18a6dc74e735f27e807fdd596b404864d8f1bbb58"}, "vout": 1, "txid": "5b2f5e6f0dfa794c0580634eeeabc70f583f2de108d1d52c3ad6ab50611b560f"}], "txid": "f6cb6fa4b92373f3adb21d14c9b265cecd8301ad94661783f3958ff0ac497de6", "blocktime": 1537873891, "version": 1, "confirmations": 11478, "time": 1537873891, "locktime": 0, "vsize": 283, "size": 283}