{"hash": "9fc58802b2616ccf3d752c8e045ffb176dc3b9df063b08b38a9979e8abe15a37", "blockhash": "0000000000000000001f76057863aec43deb6fa401d9628bb513d65a8098bfab", "vout": [{"scriptPubKey": {"reqSigs": 1, "hex": "a91456516f25b42641f224c11a2679f230902b99ef2487", "addresses": ["39ZRbBmQTJHXyGR52FYAQEQDBieEeTBNZc"], "asm": "OP_HASH160 56516f25b42641f224c11a2679f230902b99ef24 OP_EQUAL", "type": "scripthash"}, "value": 0.95031212, "n": 0}, {"scriptPubKey": {"reqSigs": 1, "hex": "76a914e425a5b79dcc1a35add2cc0800458e6c08f4067a88ac", "addresses": ["1MoLAX9v1zzpG5nv23F3QX3yujfNZ3mmnq"], "asm": "OP_DUP OP_HASH160 e425a5b79dcc1a35add2cc0800458e6c08f4067a OP_EQUALVERIFY OP_CHECKSIG", "type": "pubkeyhash"}, "value": 0.00474887, "n": 1}, {"scriptPubKey": {"reqSigs": 1, "hex": "76a914f0c8eb6bf00b1acfd89da25d18887e9d993704c488ac", "addresses": ["1Nx9sBNxTN5jD8kV98b28NgChYX5VVXHYJ"], "asm": "OP_DUP OP_HASH160 f0c8eb6bf00b1acfd89da25d18887e9d993704c4 OP_EQUALVERIFY OP_CHECKSIG", "type": "pubkeyhash"}, "value": 0.02035228, "n": 2}], "hex": "020000000001018430cf6dfe9fc50e0af913c0285b89f2dbd5e2c16c1cbfec274b8214caf0d018000000001716001453cac985cc423e0bfc23ae285bd223930694e8e9fdffffff03ac0faa050000000017a91456516f25b42641f224c11a2679f230902b99ef2487073f0700000000001976a914e425a5b79dcc1a35add2cc0800458e6c08f4067a88ac1c0e1f00000000001976a914f0c8eb6bf00b1acfd89da25d18887e9d993704c488ac02483045022100fb00bc67d0140dfc8c7985b85db5c5ac4f15e915adc5d573d130509e9ede815c022040699775f596546d09a8f33f09c82f813600c7c51099b6dc70ec2092b3e79e45012103ba92e594b2c5dbc39f12aed5b53ccdf075eb76e3181fc56a9ed53ca6b4ce7a5d14490800", "vin": [{"txinwitness": ["3045022100fb00bc67d0140dfc8c7985b85db5c5ac4f15e915adc5d573d130509e9ede815c022040699775f596546d09a8f33f09c82f813600c7c51099b6dc70ec2092b3e79e4501", "03ba92e594b2c5dbc39f12aed5b53ccdf075eb76e3181fc56a9ed53ca6b4ce7a5d"], "sequence": 4294967293, "scriptSig": {"hex": "16001453cac985cc423e0bfc23ae285bd223930694e8e9", "asm": "001453cac985cc423e0bfc23ae285bd223930694e8e9"}, "vout": 0, "txid": "18d0f0ca14824b27ecbf1c6cc1e2d5dbf2895b28c013f90a0ec59ffe6dcf3084"}], "txid": "f6cc05234b2b678e040f2a56b13ce6cc569074d57baf9898d9c2289d6573078b", "blocktime": 1537873891, "version": 2, "confirmations": 11478, "time": 1537873891, "locktime": 542996, "vsize": 202, "size": 284}