{"hash": "f6d2350485009b9946db0b43540505ec6f200a1d66fb046d4a990a4f8b87caaa", "blockhash": "0000000000000000000e13cef7c366c0283d82e591d1acd082e914b08063cdf1", "vout": [{"scriptPubKey": {"reqSigs": 1, "hex": "76a914cb83a9f254f205aae8d0d08962965a9eaf3192a088ac", "addresses": ["1KZ5u7BMKHZiKJuzQB7aMFMw5GQR8TcDCF"], "asm": "OP_DUP OP_HASH160 cb83a9f254f205aae8d0d08962965a9eaf3192a0 OP_EQUALVERIFY OP_CHECKSIG", "type": "pubkeyhash"}, "value": 0.00642587, "n": 0}, {"scriptPubKey": {"type": "nulldata", "hex": "6a4c500000779e0001211f1a0f5a4c29c70f58c182af6c953dd567cf27e7e3ef3236678a6250979e6c8ce39db01ef86f3b5aac1d9108cd5baa0d55061502558582aa311d100759d4ba30d2c37bb011d97e02cf", "asm": "OP_RETURN 0000779e0001211f1a0f5a4c29c70f58c182af6c953dd567cf27e7e3ef3236678a6250979e6c8ce39db01ef86f3b5aac1d9108cd5baa0d55061502558582aa311d100759d4ba30d2c37bb011d97e02cf"}, "value": 0.0, "n": 1}], "hex": "01000000018f8156952494ea3662f405e2e2b712f07c977d038b8bb3e5dcb793c00221841b000000006b483045022100fc362be259402004dcb34c823e4c714b833b814502a5f4d06b25f1a1fee1c259022068f859b64fef3a43d6192169780d5384adf8407e0eedf32f6dec37b191b6663e012103f210b9a9d438c0f84278f7540410fbf45fd705823197480ca2ee590facf2fadaffffffff021bce0900000000001976a914cb83a9f254f205aae8d0d08962965a9eaf3192a088ac0000000000000000536a4c500000779e0001211f1a0f5a4c29c70f58c182af6c953dd567cf27e7e3ef3236678a6250979e6c8ce39db01ef86f3b5aac1d9108cd5baa0d55061502558582aa311d100759d4ba30d2c37bb011d97e02cf00000000", "vin": [{"sequence": 4294967295, "scriptSig": {"hex": "483045022100fc362be259402004dcb34c823e4c714b833b814502a5f4d06b25f1a1fee1c259022068f859b64fef3a43d6192169780d5384adf8407e0eedf32f6dec37b191b6663e012103f210b9a9d438c0f84278f7540410fbf45fd705823197480ca2ee590facf2fada", "asm": "3045022100fc362be259402004dcb34c823e4c714b833b814502a5f4d06b25f1a1fee1c259022068f859b64fef3a43d6192169780d5384adf8407e0eedf32f6dec37b191b6663e[ALL] 03f210b9a9d438c0f84278f7540410fbf45fd705823197480ca2ee590facf2fada"}, "vout": 0, "txid": "1b842102c093b7dce5b38b8b037d977cf012b7e2e205f46236ea94249556818f"}], "txid": "f6d2350485009b9946db0b43540505ec6f200a1d66fb046d4a990a4f8b87caaa", "blocktime": 1537871767, "version": 1, "confirmations": 11495, "time": 1537871767, "locktime": 0, "vsize": 284, "size": 284}