{"hash": "6cb102efa7a0ebe1b04b57c2ff17faf3e609f13a512aa56167ff3a2d8adf06bf", "blockhash": "0000000000000000000baef3f32e3676a92c3b2e5da21b426e4f302fc371ce76", "vout": [{"scriptPubKey": {"reqSigs": 1, "hex": "a914c8948f84ab8bc2187580e4fb86ecf2a0a06e11cf87", "addresses": ["3Kyb35jwJ7YCiAF7JRfW5VZdpyywKap5YB"], "asm": "OP_HASH160 c8948f84ab8bc2187580e4fb86ecf2a0a06e11cf OP_EQUAL", "type": "scripthash"}, "value": 8.259e-05, "n": 0}, {"scriptPubKey": {"reqSigs": 1, "hex": "a9141d7370ccde4590204155e4074f69743a8e4fac0287", "addresses": ["34Njp4ZKtmCDfqqps26wHBYQQGUo2pGkLi"], "asm": "OP_HASH160 1d7370ccde4590204155e4074f69743a8e4fac02 OP_EQUAL", "type": "scripthash"}, "value": 0.00020253, "n": 1}], "hex": "01000000000101a13dd3d33186923e89e277b9d8d505f24fde686fa7082b75e1147c394135003a0100000023220020f63dfc12340f6360d0251c22746d6b56093e3243e96ca012a65484a5d9cf0ec0ffffffff02432000000000000017a914c8948f84ab8bc2187580e4fb86ecf2a0a06e11cf871d4f00000000000017a9141d7370ccde4590204155e4074f69743a8e4fac028704004730440220513fbab8e3f3a4dfef32814fd7e50f626692d0fac60a31e6a2f4517deeece87d022017c7ef340773e514c36fa2bf4d08eb0d8370b6577dc49f627c1ba0f06e01c8c40147304402204dfc0d4bbb32b71009811f961e6f410da5e7606ac277a1ff505e23c08f2c85740220294d7a23006bdc841aed366f7f9273a1a774342971147d44bb723af50d60cf3e0147522102097067a6a0cc130a9a6f6577b47bf369b840a79de31cd7457187994266b1bb7c2103338f346cab6ba87fe940591a03ac234be06520c5ab386d4b6632e8eef0d0db7652ae00000000", "vin": [{"txinwitness": ["", "30440220513fbab8e3f3a4dfef32814fd7e50f626692d0fac60a31e6a2f4517deeece87d022017c7ef340773e514c36fa2bf4d08eb0d8370b6577dc49f627c1ba0f06e01c8c401", "304402204dfc0d4bbb32b71009811f961e6f410da5e7606ac277a1ff505e23c08f2c85740220294d7a23006bdc841aed366f7f9273a1a774342971147d44bb723af50d60cf3e01", "522102097067a6a0cc130a9a6f6577b47bf369b840a79de31cd7457187994266b1bb7c2103338f346cab6ba87fe940591a03ac234be06520c5ab386d4b6632e8eef0d0db7652ae"], "sequence": 4294967295, "scriptSig": {"hex": "220020f63dfc12340f6360d0251c22746d6b56093e3243e96ca012a65484a5d9cf0ec0", "asm": "0020f63dfc12340f6360d0251c22746d6b56093e3243e96ca012a65484a5d9cf0ec0"}, "vout": 1, "txid": "3a003541397c14e1752b08a76f68de4ff205d5d8b977e2893e928631d3d33da1"}], "txid": "f6d3544036aa23e198b3e823374d9be5703fad7d752f74cf76094c17a27e00ef", "blocktime": 1537876114, "version": 1, "confirmations": 11460, "time": 1537876114, "locktime": 0, "vsize": 205, "size": 370}