{"hash": "f6dcb881e644b126ad4ca2c32736d7b8eb42da498e3475eb8925cd6a6daf4a72", "blockhash": "0000000000000000000dcc0f55137456b1a82d3642486a52398922ac4d620174", "vout": [{"scriptPubKey": {"reqSigs": 1, "hex": "76a914b61c8f7a9516b8f40a3531c83c852de3e8a61a8f88ac", "addresses": ["1HbvCL5ghZhXZBhkmi1gg9jw3Tdaohjb9B"], "asm": "OP_DUP OP_HASH160 b61c8f7a9516b8f40a3531c83c852de3e8a61a8f OP_EQUALVERIFY OP_CHECKSIG", "type": "pubkeyhash"}, "value": 0.00649375, "n": 0}, {"scriptPubKey": {"type": "nulldata", "hex": "6a4c50000077610001e2f35f86aeaeacb577c031fc3a016b46dc7dc7d0968d120d670c1906f9996f39d7f2eff59bc5d22535e3fd75cc3b5baa07b20612424af0420d811d100759d4ba30d2c37bb011d97e02cf", "asm": "OP_RETURN 000077610001e2f35f86aeaeacb577c031fc3a016b46dc7dc7d0968d120d670c1906f9996f39d7f2eff59bc5d22535e3fd75cc3b5baa07b20612424af0420d811d100759d4ba30d2c37bb011d97e02cf"}, "value": 0.0, "n": 1}], "hex": "01000000011cd5e4e52e97ea0d1f45da56f91ab4642dc52d361610008dd61d201c097696e7000000006b483045022100d21913d03336f9162d95956d5756664222bd365d1453b77f3422ddafcdcc062202200b07628b2d7c138155ec33af6b4d08e3388cbe285094ad89ee0aabfc7e2146d2012103523796e71e2d3ef6745e37f06dadc1accb6c9d52a1b9a792330771aac916ec34ffffffff029fe80900000000001976a914b61c8f7a9516b8f40a3531c83c852de3e8a61a8f88ac0000000000000000536a4c50000077610001e2f35f86aeaeacb577c031fc3a016b46dc7dc7d0968d120d670c1906f9996f39d7f2eff59bc5d22535e3fd75cc3b5baa07b20612424af0420d811d100759d4ba30d2c37bb011d97e02cf00000000", "vin": [{"sequence": 4294967295, "scriptSig": {"hex": "483045022100d21913d03336f9162d95956d5756664222bd365d1453b77f3422ddafcdcc062202200b07628b2d7c138155ec33af6b4d08e3388cbe285094ad89ee0aabfc7e2146d2012103523796e71e2d3ef6745e37f06dadc1accb6c9d52a1b9a792330771aac916ec34", "asm": "3045022100d21913d03336f9162d95956d5756664222bd365d1453b77f3422ddafcdcc062202200b07628b2d7c138155ec33af6b4d08e3388cbe285094ad89ee0aabfc7e2146d2[ALL] 03523796e71e2d3ef6745e37f06dadc1accb6c9d52a1b9a792330771aac916ec34"}, "vout": 0, "txid": "e79676091c201dd68d001016362dc52d64b41af956da451f0dea972ee5e4d51c"}], "txid": "f6dcb881e644b126ad4ca2c32736d7b8eb42da498e3475eb8925cd6a6daf4a72", "blocktime": 1537870268, "version": 1, "confirmations": 11518, "time": 1537870268, "locktime": 0, "vsize": 284, "size": 284}