{"hash": "44b04011ec170396652eedd7ba74acbb5a68317f4e37c931526635b0178948a8", "blockhash": "0000000000000000001cda96e906b7601b7a6fb1a3b62bca570a9e5d8f4b3de1", "vout": [{"scriptPubKey": {"reqSigs": 1, "hex": "76a914ad8baa6bb46713a56f9256411157c5b4562a7deb88ac", "addresses": ["1GpdDL9F6phWUfiQUHMDXKb41FJtU1USQD"], "asm": "OP_DUP OP_HASH160 ad8baa6bb46713a56f9256411157c5b4562a7deb OP_EQUALVERIFY OP_CHECKSIG", "type": "pubkeyhash"}, "value": 0.01545614, "n": 0}, {"scriptPubKey": {"reqSigs": 1, "hex": "0014bf2b90ba8046da27edea2864acb262b8a083d88d", "addresses": ["bc1qhu4epw5qgmdz0m029pj2evnzhzsg8kydf2pmt7"], "asm": "0 bf2b90ba8046da27edea2864acb262b8a083d88d", "type": "witness_v0_keyhash"}, "value": 0.01311726, "n": 1}], "hex": "01000000000103c477e9c4eb5ef060d3c2a55d1cc958e0df3a7b307d7a923edbb8c83c05c04f1f03000000171600141290e99d2f0c3a32aef8c13a4fb9544502ee5254ffffffff0b6e470491f8bec001be89d2914496a474ad7f7cb854f9ec3bb270afbfa6411a00000000171600141290e99d2f0c3a32aef8c13a4fb9544502ee5254ffffffff45faa45cb1e5fd85ecf476c7b7f17f9aef3aab9d86ba8ad6f350a5e6b9f2b75c0100000000ffffffff028e951700000000001976a914ad8baa6bb46713a56f9256411157c5b4562a7deb88acee03140000000000160014bf2b90ba8046da27edea2864acb262b8a083d88d024830450221008c8f6e72ce8e083d59c1cf0226c8a7600b636d047981e3ef476c461c9d69c9e3022053e242fd5acb1c7717c65a1004c0ff8913f28218b97f2579574af6aa97ca23fe012102f9c1c7a2aa4b08acea64ef8c0e2d96b119f32716e9c219d613cf7772154f5ff002473044022025ad0223cb1e7757d2b69a48a9c051567b10b781cd45f28e1c856847b0f29c5e02204b5ca3da404a7604cbf086aeeb476487d48275b924971b89f7005af351fc2d23012102f9c1c7a2aa4b08acea64ef8c0e2d96b119f32716e9c219d613cf7772154f5ff002483045022100f403f4ac44916d878e15ca970315de1aaeb57b1dc70fa521a6292add70c3a6b602203e7a0230497866dfe812b4adb0954dcd66f834ca8db7a6c21c060a015ad94a2801210271bbb675027287fad1a810670c020bcfe15fc34b3ff936c64fbe867ef19d8f2900000000", "vin": [{"txinwitness": ["30450221008c8f6e72ce8e083d59c1cf0226c8a7600b636d047981e3ef476c461c9d69c9e3022053e242fd5acb1c7717c65a1004c0ff8913f28218b97f2579574af6aa97ca23fe01", "02f9c1c7a2aa4b08acea64ef8c0e2d96b119f32716e9c219d613cf7772154f5ff0"], "sequence": 4294967295, "scriptSig": {"hex": "1600141290e99d2f0c3a32aef8c13a4fb9544502ee5254", "asm": "00141290e99d2f0c3a32aef8c13a4fb9544502ee5254"}, "vout": 3, "txid": "1f4fc0053cc8b8db3e927a7d307b3adfe058c91c5da5c2d360f05eebc4e977c4"}, {"txinwitness": ["3044022025ad0223cb1e7757d2b69a48a9c051567b10b781cd45f28e1c856847b0f29c5e02204b5ca3da404a7604cbf086aeeb476487d48275b924971b89f7005af351fc2d2301", "02f9c1c7a2aa4b08acea64ef8c0e2d96b119f32716e9c219d613cf7772154f5ff0"], "sequence": 4294967295, "scriptSig": {"hex": "1600141290e99d2f0c3a32aef8c13a4fb9544502ee5254", "asm": "00141290e99d2f0c3a32aef8c13a4fb9544502ee5254"}, "vout": 0, "txid": "1a41a6bfaf70b23becf954b87c7fad74a4964491d289be01c0bef89104476e0b"}, {"txinwitness": ["3045022100f403f4ac44916d878e15ca970315de1aaeb57b1dc70fa521a6292add70c3a6b602203e7a0230497866dfe812b4adb0954dcd66f834ca8db7a6c21c060a015ad94a2801", "0271bbb675027287fad1a810670c020bcfe15fc34b3ff936c64fbe867ef19d8f29"], "sequence": 4294967295, "scriptSig": {"hex": "", "asm": ""}, "vout": 1, "txid": "5cb7f2b9e6a550f3d68aba869dab3aef9a7ff1b7c776f4ec85fde5b15ca4fa45"}], "txid": "f6e3efaf71ef6dabe883cf8dbcd6e7bcb38408ec5e802275d92af828de44f642", "blocktime": 1537873282, "version": 1, "confirmations": 11485, "time": 1537873282, "locktime": 0, "vsize": 326, "size": 569}