{"hash": "f6e4b54df3d361c09a1f3fa036035a9b62a483104f9498b0f2a406bcee5f13e8", "blockhash": "0000000000000000001f0ddff1eddb255c1121bcd4da4f1bc9a0da00cae72433", "vout": [{"scriptPubKey": {"reqSigs": 1, "hex": "76a914b00c5c2951fd059c6347bab00741809f8996ab6a88ac", "addresses": ["1H3rjYvWxmrDKwD6ubwukm74ZoxYNq5KoR"], "asm": "OP_DUP OP_HASH160 b00c5c2951fd059c6347bab00741809f8996ab6a OP_EQUALVERIFY OP_CHECKSIG", "type": "pubkeyhash"}, "value": 0.01179107, "n": 0}], "hex": "010000000670c2561d38b8d9758166af658839688051cdab3fd7dc5258bc1423cce4317c41000000006a47304402203f91f7bc9f308cea740a4ff60ce5b78a246a1e3e0c2a91453aa2d0de320d251e02201b4afc9748e991dbb70396f5b16d550d968eb1a96998fa5e7ddb8a9d04ce8466012102da60506202a00a16d1abecdd74478d74380ae05e799cdaae2206c2d5ff2fb580ffffffff808e402067f7b4216f56e5cd7020d23680bb77f59b204dac36a87b85fe73ee81000000006b483045022100a44826777b04c5661496665a1faa2009e4c328a674c2ca394c5c73cc3d03560802207ce8bbceec4cd44121efad131d28e1b56a3091c75312257aa282d15083fe615c012102ab65b65fa707ec23f2535da387ccc43f4152478b1b8e34ac907a089f8b2dcc55ffffffff324a9172b881a1fa8085f9e66389dd52ac1983134ef1066c21d1b8da973e7b92000000006b483045022100d34449b3217658ae2e8a8871928c203952fb13951996ea794e4c05da314204ff022026eb43ef2fa57e7cc9b773efc4cdc3f675e3c47ac107b916d759da3712e4ac79012103e0a2b8e2f2f983ae6c7d9d1764e705efaac5a397d9ef6fbc369db842c42fcaacffffffff0acfeb45913ebbacf94809257377a941de3b7237ef5ec3651df3ea14020b62ea000000006b483045022100b3263f8ac0fe962d95ef3be365a906d843f638b8763066fb10f59d2a853b346c02205aba9ca09ebff407ea80ac66b18a2bb3921f2673fc4070e0cfeafddafdada2e7012102ab65b65fa707ec23f2535da387ccc43f4152478b1b8e34ac907a089f8b2dcc55ffffffff24e6c56dfe2ed2dc8fee3d76e6b9fe447765d2a2d173aeefa121eb2c34284dec000000006b4830450221008e3ea611a61c98ea7922403ec12422ab6b7d1ad440007b22c9bcc3734f527de50220217bd45bae35ab6b515e7cfc32c71c442e9d6fe09c7e25e21c8c9c4e4f21c493012102ab65b65fa707ec23f2535da387ccc43f4152478b1b8e34ac907a089f8b2dcc55ffffffff8740ffd1f39566969dd4ee396e24c1c3657da6183fd29af170d20ab7dff06af9000000006b48304502210098452c4250780dfdcaa1212374d65831ef9304f08f0c9a0f27cce2692e159ece0220512e89ed761c590fe8e503bb043f997b0077867268f01abfc714f40be36b8d4a012103b0ca343fbf5d8b70a6555aae97245fb2da621a81ad9592a9a0fd6c64607f4e03ffffffff01e3fd1100000000001976a914b00c5c2951fd059c6347bab00741809f8996ab6a88ac00000000", "vin": [{"sequence": 4294967295, "scriptSig": {"hex": "47304402203f91f7bc9f308cea740a4ff60ce5b78a246a1e3e0c2a91453aa2d0de320d251e02201b4afc9748e991dbb70396f5b16d550d968eb1a96998fa5e7ddb8a9d04ce8466012102da60506202a00a16d1abecdd74478d74380ae05e799cdaae2206c2d5ff2fb580", "asm": "304402203f91f7bc9f308cea740a4ff60ce5b78a246a1e3e0c2a91453aa2d0de320d251e02201b4afc9748e991dbb70396f5b16d550d968eb1a96998fa5e7ddb8a9d04ce8466[ALL] 02da60506202a00a16d1abecdd74478d74380ae05e799cdaae2206c2d5ff2fb580"}, "vout": 0, "txid": "417c31e4cc2314bc5852dcd73fabcd518068398865af668175d9b8381d56c270"}, {"sequence": 4294967295, "scriptSig": {"hex": "483045022100a44826777b04c5661496665a1faa2009e4c328a674c2ca394c5c73cc3d03560802207ce8bbceec4cd44121efad131d28e1b56a3091c75312257aa282d15083fe615c012102ab65b65fa707ec23f2535da387ccc43f4152478b1b8e34ac907a089f8b2dcc55", "asm": "3045022100a44826777b04c5661496665a1faa2009e4c328a674c2ca394c5c73cc3d03560802207ce8bbceec4cd44121efad131d28e1b56a3091c75312257aa282d15083fe615c[ALL] 02ab65b65fa707ec23f2535da387ccc43f4152478b1b8e34ac907a089f8b2dcc55"}, "vout": 0, "txid": "81ee73fe857ba836ac4d209bf577bb8036d22070cde5566f21b4f76720408e80"}, {"sequence": 4294967295, "scriptSig": {"hex": "483045022100d34449b3217658ae2e8a8871928c203952fb13951996ea794e4c05da314204ff022026eb43ef2fa57e7cc9b773efc4cdc3f675e3c47ac107b916d759da3712e4ac79012103e0a2b8e2f2f983ae6c7d9d1764e705efaac5a397d9ef6fbc369db842c42fcaac", "asm": "3045022100d34449b3217658ae2e8a8871928c203952fb13951996ea794e4c05da314204ff022026eb43ef2fa57e7cc9b773efc4cdc3f675e3c47ac107b916d759da3712e4ac79[ALL] 03e0a2b8e2f2f983ae6c7d9d1764e705efaac5a397d9ef6fbc369db842c42fcaac"}, "vout": 0, "txid": "927b3e97dab8d1216c06f14e138319ac52dd8963e6f98580faa181b872914a32"}, {"sequence": 4294967295, "scriptSig": {"hex": "483045022100b3263f8ac0fe962d95ef3be365a906d843f638b8763066fb10f59d2a853b346c02205aba9ca09ebff407ea80ac66b18a2bb3921f2673fc4070e0cfeafddafdada2e7012102ab65b65fa707ec23f2535da387ccc43f4152478b1b8e34ac907a089f8b2dcc55", "asm": "3045022100b3263f8ac0fe962d95ef3be365a906d843f638b8763066fb10f59d2a853b346c02205aba9ca09ebff407ea80ac66b18a2bb3921f2673fc4070e0cfeafddafdada2e7[ALL] 02ab65b65fa707ec23f2535da387ccc43f4152478b1b8e34ac907a089f8b2dcc55"}, "vout": 0, "txid": "ea620b0214eaf31d65c35eef37723bde41a97773250948f9acbb3e9145ebcf0a"}, {"sequence": 4294967295, "scriptSig": {"hex": "4830450221008e3ea611a61c98ea7922403ec12422ab6b7d1ad440007b22c9bcc3734f527de50220217bd45bae35ab6b515e7cfc32c71c442e9d6fe09c7e25e21c8c9c4e4f21c493012102ab65b65fa707ec23f2535da387ccc43f4152478b1b8e34ac907a089f8b2dcc55", "asm": "30450221008e3ea611a61c98ea7922403ec12422ab6b7d1ad440007b22c9bcc3734f527de50220217bd45bae35ab6b515e7cfc32c71c442e9d6fe09c7e25e21c8c9c4e4f21c493[ALL] 02ab65b65fa707ec23f2535da387ccc43f4152478b1b8e34ac907a089f8b2dcc55"}, "vout": 0, "txid": "ec4d28342ceb21a1efae73d1a2d2657744feb9e6763dee8fdcd22efe6dc5e624"}, {"sequence": 4294967295, "scriptSig": {"hex": "48304502210098452c4250780dfdcaa1212374d65831ef9304f08f0c9a0f27cce2692e159ece0220512e89ed761c590fe8e503bb043f997b0077867268f01abfc714f40be36b8d4a012103b0ca343fbf5d8b70a6555aae97245fb2da621a81ad9592a9a0fd6c64607f4e03", "asm": "304502210098452c4250780dfdcaa1212374d65831ef9304f08f0c9a0f27cce2692e159ece0220512e89ed761c590fe8e503bb043f997b0077867268f01abfc714f40be36b8d4a[ALL] 03b0ca343fbf5d8b70a6555aae97245fb2da621a81ad9592a9a0fd6c64607f4e03"}, "vout": 0, "txid": "f96af0dfb70ad270f19ad23f18a67d65c3c1246e39eed49d966695f3d1ff4087"}], "txid": "f6e4b54df3d361c09a1f3fa036035a9b62a483104f9498b0f2a406bcee5f13e8", "blocktime": 1537872018, "version": 1, "confirmations": 11489, "time": 1537872018, "locktime": 0, "vsize": 931, "size": 931}