{"hash": "e43766acbdc9a3628051b1fa3966ee1e65f855f762fff036a06932c699ec6665", "blockhash": "00000000000000000017f5eb5941039fbcee6240d03bc1f2f8e35350df66a1d8", "vout": [{"scriptPubKey": {"reqSigs": 1, "hex": "76a914af6ab563b4d3fec06b2a96a6cb8148d91986d45d88ac", "addresses": ["1GzX5p1fS5LarRh4S3k33a48XsuaBRs9Fe"], "asm": "OP_DUP OP_HASH160 af6ab563b4d3fec06b2a96a6cb8148d91986d45d OP_EQUALVERIFY OP_CHECKSIG", "type": "pubkeyhash"}, "value": 0.01877895, "n": 0}, {"scriptPubKey": {"reqSigs": 1, "hex": "a9140de60ed9d29ef7c8f20579fc970c7657ae4d3f0a87", "addresses": ["32xWJkMsHfmQ42yFJYDiXFS17C9RenqRoJ"], "asm": "OP_HASH160 0de60ed9d29ef7c8f20579fc970c7657ae4d3f0a OP_EQUAL", "type": "scripthash"}, "value": 0.06189569, "n": 1}], "hex": "01000000000101f845951b99d976c791ec90cdc165895835c4a8b6152b9acf0fb60fa5988273a10100000023220020d98f34b1e89c21024bec93b198e50e167e3383dc0bb71ba6f36707f6ab0f35f9ffffffff0287a71c00000000001976a914af6ab563b4d3fec06b2a96a6cb8148d91986d45d88ac01725e000000000017a9140de60ed9d29ef7c8f20579fc970c7657ae4d3f0a87040047304402202ee16175dbfd99e1f76b9aa85d03eb88a61249f3e97d484f24eaffcb8255d494022053d2650b4c9ecd720c64ae082baf2351c86db2a67b54dd75a7faf4604a258eb001473044022068e4d43af220bf2b53f8d058740c6fb00f3511e54d86a2667ef2be8044d63bc50220486f72557438e9c1bcf5f615c83568b5a9f360460740e9de2e172dfc7fc7d8630147522102dc23be3a45982c708852a35de0d2826583bc72c45d52fa4356a49d4d6283330421038f2c7ecee34c843be9d886e50ce79e5dc40a1694c0417d60b35340f292ff73fc52ae00000000", "vin": [{"txinwitness": ["", "304402202ee16175dbfd99e1f76b9aa85d03eb88a61249f3e97d484f24eaffcb8255d494022053d2650b4c9ecd720c64ae082baf2351c86db2a67b54dd75a7faf4604a258eb001", "3044022068e4d43af220bf2b53f8d058740c6fb00f3511e54d86a2667ef2be8044d63bc50220486f72557438e9c1bcf5f615c83568b5a9f360460740e9de2e172dfc7fc7d86301", "522102dc23be3a45982c708852a35de0d2826583bc72c45d52fa4356a49d4d6283330421038f2c7ecee34c843be9d886e50ce79e5dc40a1694c0417d60b35340f292ff73fc52ae"], "sequence": 4294967295, "scriptSig": {"hex": "220020d98f34b1e89c21024bec93b198e50e167e3383dc0bb71ba6f36707f6ab0f35f9", "asm": "0020d98f34b1e89c21024bec93b198e50e167e3383dc0bb71ba6f36707f6ab0f35f9"}, "vout": 1, "txid": "a1738298a50fb60fcf9a2b15b6a8c435588965c1cd90ec91c776d9991b9545f8"}], "txid": "f6e52ce8a20b73e4138301142dbfda66ec9a0986166563bea3d5b9e6ce590340", "blocktime": 1537874412, "version": 1, "confirmations": 11467, "time": 1537874412, "locktime": 0, "vsize": 207, "size": 372}