{"hash": "f6fe89b907f627c2d5f2a93889167edaf5e70fc8b11c276bdfa0029b061814b0", "blockhash": "0000000000000000000e13cef7c366c0283d82e591d1acd082e914b08063cdf1", "vout": [{"scriptPubKey": {"reqSigs": 1, "hex": "76a9146ddff480e1d6527999f8b2540e0b92a95404dc1188ac", "addresses": ["1B1xwam72Fged7W9UNGDW7M9gJGcYb7jCH"], "asm": "OP_DUP OP_HASH160 6ddff480e1d6527999f8b2540e0b92a95404dc11 OP_EQUALVERIFY OP_CHECKSIG", "type": "pubkeyhash"}, "value": 0.35, "n": 0}, {"scriptPubKey": {"reqSigs": 1, "hex": "76a9149d0985f38fa8580671d99d7914a1d0bdb8e762d288ac", "addresses": ["1FKLVoeRAeDayTTHA7Ug99atnMXNVhKdap"], "asm": "OP_DUP OP_HASH160 9d0985f38fa8580671d99d7914a1d0bdb8e762d2 OP_EQUALVERIFY OP_CHECKSIG", "type": "pubkeyhash"}, "value": 0.03163451, "n": 1}], "hex": "0100000001914e0e160bc979cc6b35b28dd571ea36dfdef7a5ebb2bb148512dc3865d128aa010000006b483045022100860368a214da8f616f6126d5bc0f5d601750ec49d194c19276bd2aa52f88bca402203fd1ee9874bf6d8232088488ee868668454cdcb0b3a1e7e13a8a07b5cf709dc6012102d942f82533c52b2ea95ac63420eb8e3514763119c2e0a027439b82c80843ae45ffffffff02c00e1602000000001976a9146ddff480e1d6527999f8b2540e0b92a95404dc1188ac3b453000000000001976a9149d0985f38fa8580671d99d7914a1d0bdb8e762d288ac00000000", "vin": [{"sequence": 4294967295, "scriptSig": {"hex": "483045022100860368a214da8f616f6126d5bc0f5d601750ec49d194c19276bd2aa52f88bca402203fd1ee9874bf6d8232088488ee868668454cdcb0b3a1e7e13a8a07b5cf709dc6012102d942f82533c52b2ea95ac63420eb8e3514763119c2e0a027439b82c80843ae45", "asm": "3045022100860368a214da8f616f6126d5bc0f5d601750ec49d194c19276bd2aa52f88bca402203fd1ee9874bf6d8232088488ee868668454cdcb0b3a1e7e13a8a07b5cf709dc6[ALL] 02d942f82533c52b2ea95ac63420eb8e3514763119c2e0a027439b82c80843ae45"}, "vout": 1, "txid": "aa28d16538dc128514bbb2eba5f7dedf36ea71d58db2356bcc79c90b160e4e91"}], "txid": "f6fe89b907f627c2d5f2a93889167edaf5e70fc8b11c276bdfa0029b061814b0", "blocktime": 1537871767, "version": 1, "confirmations": 11491, "time": 1537871767, "locktime": 0, "vsize": 226, "size": 226}