{"hash": "f7029f35a96922ab3e1c08665f5ef6630d3bdca05529accb9f21e68a06dd89e9", "blockhash": "0000000000000000000e13cef7c366c0283d82e591d1acd082e914b08063cdf1", "vout": [{"scriptPubKey": {"reqSigs": 1, "hex": "76a914bdc6a89e00c7194f69404bbf9b1e6467a56e6fe088ac", "addresses": ["1JJShJVuG8qTYCdeBwNFQ1scQvFKbsXEDm"], "asm": "OP_DUP OP_HASH160 bdc6a89e00c7194f69404bbf9b1e6467a56e6fe0 OP_EQUALVERIFY OP_CHECKSIG", "type": "pubkeyhash"}, "value": 0.0007812, "n": 0}, {"scriptPubKey": {"reqSigs": 1, "hex": "76a9148c2906f581690dff20990f2fb600a64e4fd196c188ac", "addresses": ["1Dn6kUYjfjpiX39TbwEEQheiCu2oZAZk3p"], "asm": "OP_DUP OP_HASH160 8c2906f581690dff20990f2fb600a64e4fd196c1 OP_EQUALVERIFY OP_CHECKSIG", "type": "pubkeyhash"}, "value": 0.04751202, "n": 1}], "hex": "01000000011b18ac79b12b88278fec6beaccb7da9df3fee69205a995d58a0876e4d46ca48d010000006a47304402205be8dabdd8d528290a6aa9a45e84abfc3a02906caa01a99ab705483b0dae5d8e0220738a024002f7d401c4d24b83e676fb38ff3b38508ab2dd8496a6122c93190d46012103b277013f9ca96e27dd90cd2c8422237bed168fbc9e1cb2dee0039a8c3c940645ffffffff0228310100000000001976a914bdc6a89e00c7194f69404bbf9b1e6467a56e6fe088ac627f4800000000001976a9148c2906f581690dff20990f2fb600a64e4fd196c188ac00000000", "vin": [{"sequence": 4294967295, "scriptSig": {"hex": "47304402205be8dabdd8d528290a6aa9a45e84abfc3a02906caa01a99ab705483b0dae5d8e0220738a024002f7d401c4d24b83e676fb38ff3b38508ab2dd8496a6122c93190d46012103b277013f9ca96e27dd90cd2c8422237bed168fbc9e1cb2dee0039a8c3c940645", "asm": "304402205be8dabdd8d528290a6aa9a45e84abfc3a02906caa01a99ab705483b0dae5d8e0220738a024002f7d401c4d24b83e676fb38ff3b38508ab2dd8496a6122c93190d46[ALL] 03b277013f9ca96e27dd90cd2c8422237bed168fbc9e1cb2dee0039a8c3c940645"}, "vout": 1, "txid": "8da46cd4e476088ad595a90592e6fef39ddab7ccea6bec8f27882bb179ac181b"}], "txid": "f7029f35a96922ab3e1c08665f5ef6630d3bdca05529accb9f21e68a06dd89e9", "blocktime": 1537871767, "version": 1, "confirmations": 11495, "time": 1537871767, "locktime": 0, "vsize": 225, "size": 225}