{"hash": "f7036b1f63ce8a5f9250c7cb31ee813120c5713f29e9e09f57814ef3bef27efb", "blockhash": "0000000000000000001cda96e906b7601b7a6fb1a3b62bca570a9e5d8f4b3de1", "vout": [{"scriptPubKey": {"reqSigs": 1, "hex": "76a914a25dec4d0011064ef106a983c39c7a540699f22088ac", "addresses": ["1FoWyxwPXuj4C6abqwhjDWdz6D4PZgYRjA"], "asm": "OP_DUP OP_HASH160 a25dec4d0011064ef106a983c39c7a540699f220 OP_EQUALVERIFY OP_CHECKSIG", "type": "pubkeyhash"}, "value": 0.01995188, "n": 0}, {"scriptPubKey": {"type": "nulldata", "hex": "6a146f6d6e69000000000000001f00000001c00105a5", "asm": "OP_RETURN 6f6d6e69000000000000001f00000001c00105a5"}, "value": 0.0, "n": 1}, {"scriptPubKey": {"reqSigs": 1, "hex": "76a914996ea551fb28fd328e5ea0b7b49250802a3c0edc88ac", "addresses": ["1EzGw9vJdtzKpzuVVswvH8JJL6Uei5KKPr"], "asm": "OP_DUP OP_HASH160 996ea551fb28fd328e5ea0b7b49250802a3c0edc OP_EQUALVERIFY OP_CHECKSIG", "type": "pubkeyhash"}, "value": 5.46e-06, "n": 2}], "hex": "0100000001a44813c76173a4fe9689194c29809e35be05f1741d9b5e1e9e8bd44070ac1fea790000006b483045022100c002b7251445073df05723477947ddc4d8e23dd9d3c6864ac02d0e152129e080022060e7eaa5d7c8d0d928d05c3d386c52ede7d2e2ae21bdf0a01f005568ec860433012103da5bac7b36d5aa38f531c6b9601e21bb598a4b6716ebed38b009a55dabde9440feffffff03b4711e00000000001976a914a25dec4d0011064ef106a983c39c7a540699f22088ac0000000000000000166a146f6d6e69000000000000001f00000001c00105a522020000000000001976a914996ea551fb28fd328e5ea0b7b49250802a3c0edc88ac13490800", "vin": [{"sequence": 4294967294, "scriptSig": {"hex": "483045022100c002b7251445073df05723477947ddc4d8e23dd9d3c6864ac02d0e152129e080022060e7eaa5d7c8d0d928d05c3d386c52ede7d2e2ae21bdf0a01f005568ec860433012103da5bac7b36d5aa38f531c6b9601e21bb598a4b6716ebed38b009a55dabde9440", "asm": "3045022100c002b7251445073df05723477947ddc4d8e23dd9d3c6864ac02d0e152129e080022060e7eaa5d7c8d0d928d05c3d386c52ede7d2e2ae21bdf0a01f005568ec860433[ALL] 03da5bac7b36d5aa38f531c6b9601e21bb598a4b6716ebed38b009a55dabde9440"}, "vout": 121, "txid": "ea1fac7040d48b9e1e5e9b1d74f105be359e80294c198996fea47361c71348a4"}], "txid": "f7036b1f63ce8a5f9250c7cb31ee813120c5713f29e9e09f57814ef3bef27efb", "blocktime": 1537873282, "version": 1, "confirmations": 11481, "time": 1537873282, "locktime": 542995, "vsize": 257, "size": 257}