{"hash": "23e77c01ddde9c08aab731387fe7c94293e2735ff1a2a6419a8fe4fc09caae3c", "blockhash": "00000000000000000017f5eb5941039fbcee6240d03bc1f2f8e35350df66a1d8", "vout": [{"scriptPubKey": {"reqSigs": 1, "hex": "a91468bc73169019b9c4245d2ab442206e4dab7c6d7287", "addresses": ["3BEoxCWiTWCRTfU3W9LAav82Mr8hufSdMh"], "asm": "OP_HASH160 68bc73169019b9c4245d2ab442206e4dab7c6d72 OP_EQUAL", "type": "scripthash"}, "value": 0.00124997, "n": 0}, {"scriptPubKey": {"reqSigs": 1, "hex": "a91401fe1668283f6c86f9ecb5256fa69c9006a151a087", "addresses": ["31sYz3eWEM4UnxD7TmyG6iA7C2fAuoFfv7"], "asm": "OP_HASH160 01fe1668283f6c86f9ecb5256fa69c9006a151a0 OP_EQUAL", "type": "scripthash"}, "value": 4.106e-05, "n": 1}], "hex": "02000000000101ba0bcd4dcacf38744c0b64c6bdb0ae47e08a1103fcbc9f6252135423009cc16b01000000171600148a6b1df7e549b088bd470d1e006dd465a65fa74fffffffff0245e801000000000017a91468bc73169019b9c4245d2ab442206e4dab7c6d72870a1000000000000017a91401fe1668283f6c86f9ecb5256fa69c9006a151a08702483045022100aa5c6605b5893b1c1667d14382eea6d32d324f8f7746540e16561c311c211a0b02202fc68924fa34bd7301fc49d52d9fc85c914688ca7e2614796ded5b75e908d715012103840b7c43658200c28587c5d3c5dc175d36c31d09e8cf85cb857065d9ae9616ef00000000", "vin": [{"txinwitness": ["3045022100aa5c6605b5893b1c1667d14382eea6d32d324f8f7746540e16561c311c211a0b02202fc68924fa34bd7301fc49d52d9fc85c914688ca7e2614796ded5b75e908d71501", "03840b7c43658200c28587c5d3c5dc175d36c31d09e8cf85cb857065d9ae9616ef"], "sequence": 4294967295, "scriptSig": {"hex": "1600148a6b1df7e549b088bd470d1e006dd465a65fa74f", "asm": "00148a6b1df7e549b088bd470d1e006dd465a65fa74f"}, "vout": 1, "txid": "6bc19c0023541352629fbcfc03118ae047aeb0bdc6640b4c7438cfca4dcd0bba"}], "txid": "f70684984e3ab20cd3efc90cd95eddd4dd5970cfacacdd865d064fa1a19383b2", "blocktime": 1537874412, "version": 2, "confirmations": 11467, "time": 1537874412, "locktime": 0, "vsize": 166, "size": 248}