{"hash": "f7075887f7ef481b1b498a19448b8fe9eca0907ee67c5dec145fcb4cfc866905", "blockhash": "0000000000000000001f76057863aec43deb6fa401d9628bb513d65a8098bfab", "vout": [{"scriptPubKey": {"reqSigs": 1, "hex": "76a9145d41329d331ff28b9579d4a5585feefe913726e788ac", "addresses": ["19W5wrgfUirze99SASDpz5RqcHqqDErefc"], "asm": "OP_DUP OP_HASH160 5d41329d331ff28b9579d4a5585feefe913726e7 OP_EQUALVERIFY OP_CHECKSIG", "type": "pubkeyhash"}, "value": 0.3078322, "n": 0}, {"scriptPubKey": {"reqSigs": 1, "hex": "a9142471358508bbab1001f49fa95fdebe7bf7b551cd87", "addresses": ["351hsMS9PrJw6ykDuHhy4X9KvioLqVS6xA"], "asm": "OP_HASH160 2471358508bbab1001f49fa95fdebe7bf7b551cd OP_EQUAL", "type": "scripthash"}, "value": 0.53395, "n": 1}], "hex": "01000000018b645f21907884322887d9d99a8e53f3894a508345d51b07cd250d959674c7ff010000006a4730440220447f571ea4342431eeff1b5bdd7a702c4fffc1c1516537e005bffc5e16df0e3b0220601e8e5c5109359d8b37ab4c70499f111737fb2a721a75faf671b16b9deed403012102f489e40ee7ecd913d036d7089d66f0ea42a8ac598f68f3a92ea98f91e5ec9927ffffffff02f4b6d501000000001976a9145d41329d331ff28b9579d4a5585feefe913726e788ac38be2e030000000017a9142471358508bbab1001f49fa95fdebe7bf7b551cd8700000000", "vin": [{"sequence": 4294967295, "scriptSig": {"hex": "4730440220447f571ea4342431eeff1b5bdd7a702c4fffc1c1516537e005bffc5e16df0e3b0220601e8e5c5109359d8b37ab4c70499f111737fb2a721a75faf671b16b9deed403012102f489e40ee7ecd913d036d7089d66f0ea42a8ac598f68f3a92ea98f91e5ec9927", "asm": "30440220447f571ea4342431eeff1b5bdd7a702c4fffc1c1516537e005bffc5e16df0e3b0220601e8e5c5109359d8b37ab4c70499f111737fb2a721a75faf671b16b9deed403[ALL] 02f489e40ee7ecd913d036d7089d66f0ea42a8ac598f68f3a92ea98f91e5ec9927"}, "vout": 1, "txid": "ffc77496950d25cd071bd54583504a89f3538e9ad9d9872832847890215f648b"}], "txid": "f7075887f7ef481b1b498a19448b8fe9eca0907ee67c5dec145fcb4cfc866905", "blocktime": 1537873891, "version": 1, "confirmations": 11477, "time": 1537873891, "locktime": 0, "vsize": 223, "size": 223}