{"hash": "c434f062e6a12097eb899af4d3aa2d3a88bd2234353cbe34aa72aa175342659b", "blockhash": "00000000000000000004ffacab907a6b429b9a5745fa0b75af4234bf69dd7176", "vout": [{"scriptPubKey": {"reqSigs": 1, "hex": "0014be06b3d909bb8c5d6e1aab7c856c1aaae2d8b6fb", "addresses": ["bc1qhcrt8kgfhwx96ms64d7g2mq64t3d3dhmw7523a"], "asm": "0 be06b3d909bb8c5d6e1aab7c856c1aaae2d8b6fb", "type": "witness_v0_keyhash"}, "value": 5.16918639, "n": 0}, {"scriptPubKey": {"reqSigs": 1, "hex": "a91403503b00f48c3fbfd793a3cf7636d71fa284a91287", "addresses": ["31zY4dYnRD7F2PT6j9ibdHhnkWvfCUht5V"], "asm": "OP_HASH160 03503b00f48c3fbfd793a3cf7636d71fa284a912 OP_EQUAL", "type": "scripthash"}, "value": 0.01906056, "n": 1}], "hex": "02000000000101f632922ed5d6263160cfdaa901fb27c113b8c55d463daef9689472886fb682220100000000ffffffff026f8dcf1e00000000160014be06b3d909bb8c5d6e1aab7c856c1aaae2d8b6fb88151d000000000017a91403503b00f48c3fbfd793a3cf7636d71fa284a9128702483045022100f31f1cbb2cae1de2f947ac11958c890e574aa898f8f34694cc59d4c4f84f5ef002203623059deae85cab6cd72de832bcd21a1d3c2d806ff68b186fe234cd65b1e3d6012102912a8dd36b75578cda631728ebbd2fa6a8228d520a0d4dfdeb947d670e97c49100000000", "vin": [{"txinwitness": ["3045022100f31f1cbb2cae1de2f947ac11958c890e574aa898f8f34694cc59d4c4f84f5ef002203623059deae85cab6cd72de832bcd21a1d3c2d806ff68b186fe234cd65b1e3d601", "02912a8dd36b75578cda631728ebbd2fa6a8228d520a0d4dfdeb947d670e97c491"], "sequence": 4294967295, "scriptSig": {"hex": "", "asm": ""}, "vout": 1, "txid": "2282b66f88729468f9ae3d465dc5b813c127fb01a9dacf603126d6d52e9232f6"}], "txid": "f7083f51e3418a643efcc1ce067994434def1499f32cc0d4d320cfd61283df9f", "blocktime": 1537875543, "version": 2, "confirmations": 11464, "time": 1537875543, "locktime": 0, "vsize": 142, "size": 224}