{"hash": "8ffb38f8392314f43fc63a8d8f93bbf80b7cfd70643b0e3a8fd3bf021a7d3554", "blockhash": "0000000000000000001cda96e906b7601b7a6fb1a3b62bca570a9e5d8f4b3de1", "vout": [{"scriptPubKey": {"reqSigs": 1, "hex": "a914096a0335104ac16377d63001e85ca34f531ef43287", "addresses": ["32Yo19eJSkNsuW9he6LEbfUrKgzagRZy2X"], "asm": "OP_HASH160 096a0335104ac16377d63001e85ca34f531ef432 OP_EQUAL", "type": "scripthash"}, "value": 0.00042832, "n": 0}, {"scriptPubKey": {"reqSigs": 1, "hex": "0014c21b5bd0a807f52745ed4e68a5490240d3d598d4", "addresses": ["bc1qcgd4h59gql6jw30dfe522jgzgrfatxx5xx8dfk"], "asm": "0 c21b5bd0a807f52745ed4e68a5490240d3d598d4", "type": "witness_v0_keyhash"}, "value": 1.049e-05, "n": 1}], "hex": "01000000000101df2d497040c82d334bfb182b4419b9040f56c1b38a346d22aff3a7fdfa5d329d0000000000ffffffff0250a700000000000017a914096a0335104ac16377d63001e85ca34f531ef432871904000000000000160014c21b5bd0a807f52745ed4e68a5490240d3d598d4024730440220387ea4b6fabc35df1307b180f2dc90501f2dd2ed254d73b7caec0c5151301dd70220429339a2654c1cd5e3a89aced3070cd6b67a7feeea18b8f82a82753a58d32408012103778c3297adf9dd95db12667d62da5c7a205cb641700db98e36456aee51afdecc00000000", "vin": [{"txinwitness": ["30440220387ea4b6fabc35df1307b180f2dc90501f2dd2ed254d73b7caec0c5151301dd70220429339a2654c1cd5e3a89aced3070cd6b67a7feeea18b8f82a82753a58d3240801", "03778c3297adf9dd95db12667d62da5c7a205cb641700db98e36456aee51afdecc"], "sequence": 4294967295, "scriptSig": {"hex": "", "asm": ""}, "vout": 0, "txid": "9d325dfafda7f3af226d348ab3c1560f04b919442b18fb4b332dc84070492ddf"}], "txid": "f70e9b7a91d399ac7e80378cb7b59a342fdea87f24af9776dca4e94d7b915853", "blocktime": 1537873282, "version": 1, "confirmations": 11484, "time": 1537873282, "locktime": 0, "vsize": 142, "size": 223}