{"hash": "0b192ddc24728516b1757501da5eff5f9ed978d909ed01ea8e7713b437e62ac0", "blockhash": "0000000000000000001cda96e906b7601b7a6fb1a3b62bca570a9e5d8f4b3de1", "vout": [{"scriptPubKey": {"reqSigs": 1, "hex": "a9146f8b45d6dac9567c6f38488b2629c9d9c6a7528e87", "addresses": ["3BromgUTaXVPSxrXQ8oi3X6ocxP1XUjTFT"], "asm": "OP_HASH160 6f8b45d6dac9567c6f38488b2629c9d9c6a7528e OP_EQUAL", "type": "scripthash"}, "value": 0.01253452, "n": 0}, {"scriptPubKey": {"reqSigs": 1, "hex": "a914e59e7c8337ff4e53231b5cda43f9591a873f2f8187", "addresses": ["3Nd8XJKe3dEi9Qb3aADb14EZGNShbeApQy"], "asm": "OP_HASH160 e59e7c8337ff4e53231b5cda43f9591a873f2f81 OP_EQUAL", "type": "scripthash"}, "value": 0.04739304, "n": 1}], "hex": "010000000001019b43ecfc26ab7e86413567922236443cdeb6cbc792c1aa1ffbded9a88f844f7c01000000171600142fcd4fe88f453a9058de2934196035b0bcfd5e84ffffffff024c2013000000000017a9146f8b45d6dac9567c6f38488b2629c9d9c6a7528e87e85048000000000017a914e59e7c8337ff4e53231b5cda43f9591a873f2f818702473044022028a13685ffcc938b65a8d6e642643deb06fbd9f5bdd9b5e46a8c735a4e075900022078e7e130dcc9f23d87bcd1c3a401360725d3420df716c26b5de182ec3f7a6da70121034013837fd13cadcab47c8ec12421a4c66554a8940b85c36719acb68efc41b79f00000000", "vin": [{"txinwitness": ["3044022028a13685ffcc938b65a8d6e642643deb06fbd9f5bdd9b5e46a8c735a4e075900022078e7e130dcc9f23d87bcd1c3a401360725d3420df716c26b5de182ec3f7a6da701", "034013837fd13cadcab47c8ec12421a4c66554a8940b85c36719acb68efc41b79f"], "sequence": 4294967295, "scriptSig": {"hex": "1600142fcd4fe88f453a9058de2934196035b0bcfd5e84", "asm": "00142fcd4fe88f453a9058de2934196035b0bcfd5e84"}, "vout": 1, "txid": "7c4f848fa8d9defb1faac192c7cbb6de3c44362292673541867eab26fcec439b"}], "txid": "f71268d9ba2d70b27a2bf4fb9acb6ec093860dd21d8fc08af02b883526cb3947", "blocktime": 1537873282, "version": 1, "confirmations": 11484, "time": 1537873282, "locktime": 0, "vsize": 166, "size": 247}