{"hash": "f71906689c44ae68d214ad7f6afabb3a7bb175fba650c0cdb0bbd294fea7ddce", "blockhash": "0000000000000000001e0dab787dd257d1dbfcb92a98c2207d5e1078be1f4165", "vout": [{"scriptPubKey": {"reqSigs": 1, "hex": "76a914813ec1139fb0ae79f70ad792f14c7e4c5860140c88ac", "addresses": ["1CnPLz7nULJuQZJ1KeY7LRBqPh6y3498nQ"], "asm": "OP_DUP OP_HASH160 813ec1139fb0ae79f70ad792f14c7e4c5860140c OP_EQUALVERIFY OP_CHECKSIG", "type": "pubkeyhash"}, "value": 6.595e-05, "n": 0}, {"scriptPubKey": {"reqSigs": 1, "hex": "76a9141f7b3c27e5f48c3a1557027c20491473b95802eb88ac", "addresses": ["13sTaTtJx3BfnUR7efTSgm9QqPQmPUFMza"], "asm": "OP_DUP OP_HASH160 1f7b3c27e5f48c3a1557027c20491473b95802eb OP_EQUALVERIFY OP_CHECKSIG", "type": "pubkeyhash"}, "value": 0.00156231, "n": 1}], "hex": "0100000001507e1e4565d8958841022d12956a623bfdf7eee80e64b10c1eac9f428625c2e5000000006b483045022100a9d54349d496341a0dacf9584552d85b7b3fc3974f802e749cbdfed82e7625ce02207805f6554cbf1bf0a94bf082e9e3c450e959ce200b91b66a7c9548ca48a243ed0121028a1a0efba1d0401b9aa701d5ceca93949bdbb25d6d328b977a407c7dc2e1d9c5ffffffff02c3190000000000001976a914813ec1139fb0ae79f70ad792f14c7e4c5860140c88ac47620200000000001976a9141f7b3c27e5f48c3a1557027c20491473b95802eb88ac00000000", "vin": [{"sequence": 4294967295, "scriptSig": {"hex": "483045022100a9d54349d496341a0dacf9584552d85b7b3fc3974f802e749cbdfed82e7625ce02207805f6554cbf1bf0a94bf082e9e3c450e959ce200b91b66a7c9548ca48a243ed0121028a1a0efba1d0401b9aa701d5ceca93949bdbb25d6d328b977a407c7dc2e1d9c5", "asm": "3045022100a9d54349d496341a0dacf9584552d85b7b3fc3974f802e749cbdfed82e7625ce02207805f6554cbf1bf0a94bf082e9e3c450e959ce200b91b66a7c9548ca48a243ed[ALL] 028a1a0efba1d0401b9aa701d5ceca93949bdbb25d6d328b977a407c7dc2e1d9c5"}, "vout": 0, "txid": "e5c22586429fac1e0cb1640ee8eef7fd3b626a95122d02418895d865451e7e50"}], "txid": "f71906689c44ae68d214ad7f6afabb3a7bb175fba650c0cdb0bbd294fea7ddce", "blocktime": 1537872475, "version": 1, "confirmations": 11487, "time": 1537872475, "locktime": 0, "vsize": 226, "size": 226}