{"hash": "f71bc18012e9869297f301a833ce6a9b13970c36b752468dede03500fc9855d4", "blockhash": "0000000000000000000e13cef7c366c0283d82e591d1acd082e914b08063cdf1", "vout": [{"scriptPubKey": {"reqSigs": 1, "hex": "76a914f4087f95688b50c12b6b8ca02b367e13846cff0788ac", "addresses": ["1PFL4HUGXCHGknr3HsBJ1mUEXGJX5b21Jf"], "asm": "OP_DUP OP_HASH160 f4087f95688b50c12b6b8ca02b367e13846cff07 OP_EQUALVERIFY OP_CHECKSIG", "type": "pubkeyhash"}, "value": 0.05180131, "n": 0}, {"scriptPubKey": {"reqSigs": 1, "hex": "76a9147c8b1a1d56fe7b4a05335ee3c3be890dcc941a0588ac", "addresses": ["1CMXRmKMt1sqsAnKPYrwLVdVXKmWQXPTnH"], "asm": "OP_DUP OP_HASH160 7c8b1a1d56fe7b4a05335ee3c3be890dcc941a05 OP_EQUALVERIFY OP_CHECKSIG", "type": "pubkeyhash"}, "value": 0.12627854, "n": 1}], "hex": "0200000002ccbb53f501a5c2644d9bebf6e6fad289e5a90de5b00c15e1e88544718368c971010000006a4730440220167cd1dc5a153cd7e40367911c496d32f3b8fc14816b394a3944f1f8cb862c0b02202bcdf208531ac9a05f19cc48bc04befd1db1fcb4925ffee9c9c8325fa36cdae4012102f2832123b3844b9fdf8bdfce25c13c0f6969e7a7762f236853e281781385fae6feffffffe5af23af8e271f3465a5f94f3e9e88bbc4bc343ec86463e3b9159dc9e1451700000000006a4730440220718889bd9ef151066a04b4535ec1af66c037bd669fea8a018608bd348aa5d61702206c29874ac0fc7206a192cf7e96f5f9bfe20c66522a66660f3847db0dd462de070121037d55a7377de3064e9cf4a9600c689e23d236eba8a2cbaac351d905d39464d29afeffffff02e30a4f00000000001976a914f4087f95688b50c12b6b8ca02b367e13846cff0788ac8eafc000000000001976a9147c8b1a1d56fe7b4a05335ee3c3be890dcc941a0588ac10490800", "vin": [{"sequence": 4294967294, "scriptSig": {"hex": "4730440220167cd1dc5a153cd7e40367911c496d32f3b8fc14816b394a3944f1f8cb862c0b02202bcdf208531ac9a05f19cc48bc04befd1db1fcb4925ffee9c9c8325fa36cdae4012102f2832123b3844b9fdf8bdfce25c13c0f6969e7a7762f236853e281781385fae6", "asm": "30440220167cd1dc5a153cd7e40367911c496d32f3b8fc14816b394a3944f1f8cb862c0b02202bcdf208531ac9a05f19cc48bc04befd1db1fcb4925ffee9c9c8325fa36cdae4[ALL] 02f2832123b3844b9fdf8bdfce25c13c0f6969e7a7762f236853e281781385fae6"}, "vout": 1, "txid": "71c96883714485e8e1150cb0e50da9e589d2fae6f6eb9b4d64c2a501f553bbcc"}, {"sequence": 4294967294, "scriptSig": {"hex": "4730440220718889bd9ef151066a04b4535ec1af66c037bd669fea8a018608bd348aa5d61702206c29874ac0fc7206a192cf7e96f5f9bfe20c66522a66660f3847db0dd462de070121037d55a7377de3064e9cf4a9600c689e23d236eba8a2cbaac351d905d39464d29a", "asm": "30440220718889bd9ef151066a04b4535ec1af66c037bd669fea8a018608bd348aa5d61702206c29874ac0fc7206a192cf7e96f5f9bfe20c66522a66660f3847db0dd462de07[ALL] 037d55a7377de3064e9cf4a9600c689e23d236eba8a2cbaac351d905d39464d29a"}, "vout": 0, "txid": "001745e1c99d15b9e36364c83e34bcc4bb889e3e4ff9a565341f278eaf23afe5"}], "txid": "f71bc18012e9869297f301a833ce6a9b13970c36b752468dede03500fc9855d4", "blocktime": 1537871767, "version": 2, "confirmations": 11490, "time": 1537871767, "locktime": 542992, "vsize": 372, "size": 372}