{"hash": "f71d5b75051ff75de50515b204ff29cf9b9d3444d5a93f79a400a324b4fb9670", "blockhash": "0000000000000000001f76057863aec43deb6fa401d9628bb513d65a8098bfab", "vout": [{"scriptPubKey": {"reqSigs": 1, "hex": "76a914ccde54d7ea97539a32cdd797f1f4bb0fc38a94f888ac", "addresses": ["1KgFBzVbk3kRpg1GDt2ab23zz5q5mvNL1q"], "asm": "OP_DUP OP_HASH160 ccde54d7ea97539a32cdd797f1f4bb0fc38a94f8 OP_EQUALVERIFY OP_CHECKSIG", "type": "pubkeyhash"}, "value": 0.0015183, "n": 0}, {"scriptPubKey": {"reqSigs": 1, "hex": "76a914f70d43e200343e3aa0832a8f4a5321d18b99f2ff88ac", "addresses": ["1PXHo4bswFiMT7jeJBdETaS1JmdCNesHvP"], "asm": "OP_DUP OP_HASH160 f70d43e200343e3aa0832a8f4a5321d18b99f2ff OP_EQUALVERIFY OP_CHECKSIG", "type": "pubkeyhash"}, "value": 0.00158051, "n": 1}], "hex": "0100000001a8b4077298970dfdc2c46ee88d5668d32d77ec4ebc1d3f155bef15c907efb366000000006b4830450221008ce2dbd220763358f8edfbfbf974d5aa5abe634ad7b967c9a427bbc1ede2244b022052c3d2c5e261abf889cd6ed170a0756dc671e4656cde7c2a9df0529b6a7d66d401210213a50c0dec15403fa19a0b9d23ea856e76ecb18495ef3b1bc7ee62280ac74d13ffffffff0216510200000000001976a914ccde54d7ea97539a32cdd797f1f4bb0fc38a94f888ac63690200000000001976a914f70d43e200343e3aa0832a8f4a5321d18b99f2ff88ac00000000", "vin": [{"sequence": 4294967295, "scriptSig": {"hex": "4830450221008ce2dbd220763358f8edfbfbf974d5aa5abe634ad7b967c9a427bbc1ede2244b022052c3d2c5e261abf889cd6ed170a0756dc671e4656cde7c2a9df0529b6a7d66d401210213a50c0dec15403fa19a0b9d23ea856e76ecb18495ef3b1bc7ee62280ac74d13", "asm": "30450221008ce2dbd220763358f8edfbfbf974d5aa5abe634ad7b967c9a427bbc1ede2244b022052c3d2c5e261abf889cd6ed170a0756dc671e4656cde7c2a9df0529b6a7d66d4[ALL] 0213a50c0dec15403fa19a0b9d23ea856e76ecb18495ef3b1bc7ee62280ac74d13"}, "vout": 0, "txid": "66b3ef07c915ef5b153f1dbc4eec772dd368568de86ec4c2fd0d97987207b4a8"}], "txid": "f71d5b75051ff75de50515b204ff29cf9b9d3444d5a93f79a400a324b4fb9670", "blocktime": 1537873891, "version": 1, "confirmations": 11478, "time": 1537873891, "locktime": 0, "vsize": 226, "size": 226}