{"hash": "f42f2672e60d9b432981eb0d7670e25d9aaf3f9bead6993d2009cd826de49f9b", "blockhash": "00000000000000000018f53835495a110e01622372bf6ae95dc86f2b0ab887b0", "vout": [{"scriptPubKey": {"reqSigs": 1, "hex": "0014068c972f0f98562e16e0dd9050381e09006b17b6", "addresses": ["bc1qq6xfwtc0nptzu9hqmkg9qwq7pyqxk9ak5x9p68"], "asm": "0 068c972f0f98562e16e0dd9050381e09006b17b6", "type": "witness_v0_keyhash"}, "value": 0.00752346, "n": 0}, {"scriptPubKey": {"reqSigs": 1, "hex": "002098fd71760e020955a6558e57003d33cd4c18d686cb46f3aee4377188403774a4", "addresses": ["bc1qnr7hzaswqgy4tfj43etsq0fne4xp345xedr08thyxaccssphwjjq0e8kyd"], "asm": "0 98fd71760e020955a6558e57003d33cd4c18d686cb46f3aee4377188403774a4", "type": "witness_v0_scripthash"}, "value": 0.01, "n": 1}], "hex": "01000000000101e51f960aee67a9823d1522be91c2a5a6ddcdd4c4d48e8c1172a6752d94f56f5c0000000000ffffffff02da7a0b0000000000160014068c972f0f98562e16e0dd9050381e09006b17b640420f000000000022002098fd71760e020955a6558e57003d33cd4c18d686cb46f3aee4377188403774a40247304402203772802061ff05557354a81cf2b53ab16f2742b3151b52789cfbc8bf7c0251b302205bae1048d740a67d39fcc942c077d9299ffcc07a6d89a39c70aa616240b9fadb0121039c5c7d815c4a8af160991ec196e5104601d371b9faa82dacec91c809d8aec47f00000000", "vin": [{"txinwitness": ["304402203772802061ff05557354a81cf2b53ab16f2742b3151b52789cfbc8bf7c0251b302205bae1048d740a67d39fcc942c077d9299ffcc07a6d89a39c70aa616240b9fadb01", "039c5c7d815c4a8af160991ec196e5104601d371b9faa82dacec91c809d8aec47f"], "sequence": 4294967295, "scriptSig": {"hex": "", "asm": ""}, "vout": 0, "txid": "5c6ff5942d75a672118c8ed4c4d4cddda6a5c291be22153d82a967ee0a961fe5"}], "txid": "f7216e1cb50e243883873ab5db4ec5f96e06a210830e8a9103334aee5a9e6ed1", "blocktime": 1537870928, "version": 1, "confirmations": 11514, "time": 1537870928, "locktime": 0, "vsize": 153, "size": 234}