{"hash": "ac8142c3adb74c5d5703e368956efa81dd763cbeb88d406e230662fcabf3cc4e", "blockhash": "000000000000000000022b45ed06c6f4ccd3cf7fb5ba4856ebd2e58215665228", "vout": [{"scriptPubKey": {"reqSigs": 1, "hex": "a9149192ed90ed65ce60b35f0b9579383832d16ffb0987", "addresses": ["3Exjv6U4DfvT45Y2JovA73DYT9XbssWodM"], "asm": "OP_HASH160 9192ed90ed65ce60b35f0b9579383832d16ffb09 OP_EQUAL", "type": "scripthash"}, "value": 0.008133, "n": 0}, {"scriptPubKey": {"reqSigs": 1, "hex": "a91467476c17b339f1b23d8ac4eccbcdcad6f3abc0c487", "addresses": ["3B775oibvGm6gQdSLCnWp1zm9oxDkqKQx8"], "asm": "OP_HASH160 67476c17b339f1b23d8ac4eccbcdcad6f3abc0c4 OP_EQUAL", "type": "scripthash"}, "value": 0.02809413, "n": 1}], "hex": "02000000000101f785d68a880e9fd17945d9ce15380cc694a221d362112db168186e3e1788620c0000000017160014e706c78f003e38b527af5c200eea76dd153f3927feffffff02f4680c000000000017a9149192ed90ed65ce60b35f0b9579383832d16ffb098745de2a000000000017a91467476c17b339f1b23d8ac4eccbcdcad6f3abc0c48702473044022021f6f63dfbbb9b79fb947a1b676c66b3100c88e63f636c6a6cf4cc62ab90dd9f0220046d4fe904dd91d3aedcae17424931f1455e7ec1b5589b2d64b542e6d0adef8401210347ceb53aed81d14af85d16fa25729eba4f0a577c7ffb17869563cd0f3f13aebd0b490800", "vin": [{"txinwitness": ["3044022021f6f63dfbbb9b79fb947a1b676c66b3100c88e63f636c6a6cf4cc62ab90dd9f0220046d4fe904dd91d3aedcae17424931f1455e7ec1b5589b2d64b542e6d0adef8401", "0347ceb53aed81d14af85d16fa25729eba4f0a577c7ffb17869563cd0f3f13aebd"], "sequence": 4294967294, "scriptSig": {"hex": "160014e706c78f003e38b527af5c200eea76dd153f3927", "asm": "0014e706c78f003e38b527af5c200eea76dd153f3927"}, "vout": 0, "txid": "0c6288173e6e1868b12d1162d321a294c60c3815ced94579d19f0e888ad685f7"}], "txid": "f7237b1ffc77390968968490aeedebe66c856a029d6ff56a8d1c413f74e43893", "blocktime": 1537869901, "version": 2, "confirmations": 11524, "time": 1537869901, "locktime": 542987, "vsize": 166, "size": 247}