{"hash": "5d489388e52534b9c21ed70ca6c01cf16d22631a207f48f455b5785ac807d723", "blockhash": "0000000000000000000e13cef7c366c0283d82e591d1acd082e914b08063cdf1", "vout": [{"scriptPubKey": {"reqSigs": 1, "hex": "76a914fe2191cfce5fbe4482b93558e347faa05f5772ea88ac", "addresses": ["1QAirBSe6xDnYjvaF6Lq11kWACuACjRwVE"], "asm": "OP_DUP OP_HASH160 fe2191cfce5fbe4482b93558e347faa05f5772ea OP_EQUALVERIFY OP_CHECKSIG", "type": "pubkeyhash"}, "value": 0.0078, "n": 0}, {"scriptPubKey": {"reqSigs": 1, "hex": "00149f0db71cda4726ccef1e75a7f9ce6a51ed947b91", "addresses": ["bc1qnuxmw8x6gunvemc7wknlnnn228keg7u33g60fg"], "asm": "0 9f0db71cda4726ccef1e75a7f9ce6a51ed947b91", "type": "witness_v0_keyhash"}, "value": 1.25720815, "n": 1}], "hex": "01000000000101240e610e035559a3f6c7b3e75f4af7ff94b4b45a62d79fcf470648f10bd0287d0100000000ffffffff02e0e60b00000000001976a914fe2191cfce5fbe4482b93558e347faa05f5772ea88acef587e07000000001600149f0db71cda4726ccef1e75a7f9ce6a51ed947b9102483045022100eaa4f278eb2916dc5164c238b0b813a5b7cb48192742ae022d710bdcc2470ab802205c74905ad22f66e9ef89e8bc177375562269825967a3f0502492bc12adfcd332012103541dee385634b6206cf0fc8790b01665c66bae9fb377f2b51223b9d67d9ba76800000000", "vin": [{"txinwitness": ["3045022100eaa4f278eb2916dc5164c238b0b813a5b7cb48192742ae022d710bdcc2470ab802205c74905ad22f66e9ef89e8bc177375562269825967a3f0502492bc12adfcd33201", "03541dee385634b6206cf0fc8790b01665c66bae9fb377f2b51223b9d67d9ba768"], "sequence": 4294967295, "scriptSig": {"hex": "", "asm": ""}, "vout": 1, "txid": "7d28d00bf1480647cf9fd7625ab4b494fff74a5fe7b3c7f6a35955030e610e24"}], "txid": "f7234db85bc8f7a3b4e3d1a62c60f8a38c26f826ad2d39f2d2de78ee2eecf1c0", "blocktime": 1537871767, "version": 1, "confirmations": 11495, "time": 1537871767, "locktime": 0, "vsize": 144, "size": 226}