{"hash": "f72712cbd67c2f2d49cb43e2de5aeeb0435840aa46e7cb73d332d4096224b624", "blockhash": "0000000000000000001f76057863aec43deb6fa401d9628bb513d65a8098bfab", "vout": [{"scriptPubKey": {"reqSigs": 1, "hex": "76a914effa32a84f6e2347c379956488532e1d25e2558388ac", "addresses": ["1NstDuFuzPkx8RqSvbpM1xvBjA532CGgvR"], "asm": "OP_DUP OP_HASH160 effa32a84f6e2347c379956488532e1d25e25583 OP_EQUALVERIFY OP_CHECKSIG", "type": "pubkeyhash"}, "value": 2.497e-05, "n": 0}, {"scriptPubKey": {"reqSigs": 1, "hex": "76a9149ac96d840914354d6e307e5ef6f8ad4b0f4c596888ac", "addresses": ["1F7SMzT4Djpu7GjghHmFjKyKaYS5p9aJpm"], "asm": "OP_DUP OP_HASH160 9ac96d840914354d6e307e5ef6f8ad4b0f4c5968 OP_EQUALVERIFY OP_CHECKSIG", "type": "pubkeyhash"}, "value": 0.0558, "n": 1}], "hex": "0100000002d62fcc25709b48ae1dba4a972aea3ad4f2eb95ebe2010fc3262b60760f45b112000000006b483045022100b0be463be9819a10a637fd00fc81a63bd2eff27ea154b5f16bc9fb55f7bdfa74022046f9f94ba2b8abd12e767600b339210f8ef5f8ed35077e98d3f3e625fdd92ba70121031219cde07c7d176d08ee512be02809c31833e869affcc456436deb5bdec7b7a1ffffffff96704b6b94cadaf68d08ad000c54fb6510ad37eb176cdd7cdc4f0c5cadff5a89000000006b4830450221009fc1d06f542e819ad410c19705898c21df6cfee359f32eaf3145e6248ecd1b4702201bdeb7dc821b9327844ae02122ae380586a6c7dccc8a7b0059dfac7c97111d850121029029afc81e683143c6935f5f692152092a6772366e7b5b1e466dfee6f1198698ffffffff02c1090000000000001976a914effa32a84f6e2347c379956488532e1d25e2558388ace0245500000000001976a9149ac96d840914354d6e307e5ef6f8ad4b0f4c596888ac00000000", "vin": [{"sequence": 4294967295, "scriptSig": {"hex": "483045022100b0be463be9819a10a637fd00fc81a63bd2eff27ea154b5f16bc9fb55f7bdfa74022046f9f94ba2b8abd12e767600b339210f8ef5f8ed35077e98d3f3e625fdd92ba70121031219cde07c7d176d08ee512be02809c31833e869affcc456436deb5bdec7b7a1", "asm": "3045022100b0be463be9819a10a637fd00fc81a63bd2eff27ea154b5f16bc9fb55f7bdfa74022046f9f94ba2b8abd12e767600b339210f8ef5f8ed35077e98d3f3e625fdd92ba7[ALL] 031219cde07c7d176d08ee512be02809c31833e869affcc456436deb5bdec7b7a1"}, "vout": 0, "txid": "12b1450f76602b26c30f01e2eb95ebf2d43aea2a974aba1dae489b7025cc2fd6"}, {"sequence": 4294967295, "scriptSig": {"hex": "4830450221009fc1d06f542e819ad410c19705898c21df6cfee359f32eaf3145e6248ecd1b4702201bdeb7dc821b9327844ae02122ae380586a6c7dccc8a7b0059dfac7c97111d850121029029afc81e683143c6935f5f692152092a6772366e7b5b1e466dfee6f1198698", "asm": "30450221009fc1d06f542e819ad410c19705898c21df6cfee359f32eaf3145e6248ecd1b4702201bdeb7dc821b9327844ae02122ae380586a6c7dccc8a7b0059dfac7c97111d85[ALL] 029029afc81e683143c6935f5f692152092a6772366e7b5b1e466dfee6f1198698"}, "vout": 0, "txid": "895affad5c0c4fdc7cdd6c17eb37ad1065fb540c00ad088df6daca946b4b7096"}], "txid": "f72712cbd67c2f2d49cb43e2de5aeeb0435840aa46e7cb73d332d4096224b624", "blocktime": 1537873891, "version": 1, "confirmations": 11478, "time": 1537873891, "locktime": 0, "vsize": 374, "size": 374}