{"hash": "f731fbe2e6c44f66be5e22e94e93ea27064937635ac0f883c7a5b923978c9540", "blockhash": "0000000000000000001e0dab787dd257d1dbfcb92a98c2207d5e1078be1f4165", "vout": [{"scriptPubKey": {"reqSigs": 1, "hex": "a9146e9216cb88ea88a2057c0772f95479ca6841bbc287", "addresses": ["3BmfG6AEwZ7NdGN7oeuZp6jRZvgw7L7FXW"], "asm": "OP_HASH160 6e9216cb88ea88a2057c0772f95479ca6841bbc2 OP_EQUAL", "type": "scripthash"}, "value": 0.04056, "n": 0}, {"scriptPubKey": {"reqSigs": 1, "hex": "0014ce6cdfea912390e5a845ec691d25d5995c5cfaf6", "addresses": ["bc1qeekdl653ywgwt2z9a3536fw4n9w9e7hkatdsz5"], "asm": "0 ce6cdfea912390e5a845ec691d25d5995c5cfaf6", "type": "witness_v0_keyhash"}, "value": 0.01399248, "n": 1}], "hex": "01000000019650dc2926dbea774e245fac9d7e69ef36a17dbc3a55c91c9a544a6473b1ddd2070000006a47304402201c27ebbed9296801a0aadcaaf1aec7e7617f2ae6cf54e5cf04b6295035e182220220561e0eefe2637b5d91faa403f1c7d39444ed46c0754fd0e7d0be38f6ecc7277e012103498f494b2933f02771bad02efe9881ea0af895585810a215cf206d21fc9b6333ffffffff02c0e33d000000000017a9146e9216cb88ea88a2057c0772f95479ca6841bbc287d059150000000000160014ce6cdfea912390e5a845ec691d25d5995c5cfaf600000000", "vin": [{"sequence": 4294967295, "scriptSig": {"hex": "47304402201c27ebbed9296801a0aadcaaf1aec7e7617f2ae6cf54e5cf04b6295035e182220220561e0eefe2637b5d91faa403f1c7d39444ed46c0754fd0e7d0be38f6ecc7277e012103498f494b2933f02771bad02efe9881ea0af895585810a215cf206d21fc9b6333", "asm": "304402201c27ebbed9296801a0aadcaaf1aec7e7617f2ae6cf54e5cf04b6295035e182220220561e0eefe2637b5d91faa403f1c7d39444ed46c0754fd0e7d0be38f6ecc7277e[ALL] 03498f494b2933f02771bad02efe9881ea0af895585810a215cf206d21fc9b6333"}, "vout": 7, "txid": "d2ddb173644a549a1cc9553abc7da136ef697e9dac5f244e77eadb2629dc5096"}], "txid": "f731fbe2e6c44f66be5e22e94e93ea27064937635ac0f883c7a5b923978c9540", "blocktime": 1537872475, "version": 1, "confirmations": 11486, "time": 1537872475, "locktime": 0, "vsize": 220, "size": 220}