{"hash": "6a4a0c7bcb879ff2fee98ab2e5a718877a66845c4b33ca256174a4cdfe667ecc", "blockhash": "00000000000000000024a2167bbff67b0be802c0b01cdd79e6331c2be6459f87", "vout": [{"scriptPubKey": {"reqSigs": 1, "hex": "a914c0a9f31aabf6aa3328c18e1036c3eb12568e8a1287", "addresses": ["3KFjFgXBkQt4F6RcDEwt6SDRFd91gHJ6mf"], "asm": "OP_HASH160 c0a9f31aabf6aa3328c18e1036c3eb12568e8a12 OP_EQUAL", "type": "scripthash"}, "value": 0.00710456, "n": 0}, {"scriptPubKey": {"reqSigs": 1, "hex": "a914142fc19b56831575dcee8e2f51ca561db771783887", "addresses": ["33XkeYYNjh3n8ZHhjDorq4VkZiVqdD6rWc"], "asm": "OP_HASH160 142fc19b56831575dcee8e2f51ca561db7717838 OP_EQUAL", "type": "scripthash"}, "value": 0.26480186, "n": 1}, {"scriptPubKey": {"reqSigs": 1, "hex": "a9141e7ba571c7862eeca48e28851efdb038b7d66aec87", "addresses": ["34UCKPgj98acg2YCZveoy6dEDeWc678ZLq"], "asm": "OP_HASH160 1e7ba571c7862eeca48e28851efdb038b7d66aec OP_EQUAL", "type": "scripthash"}, "value": 0.05878543, "n": 2}, {"scriptPubKey": {"reqSigs": 1, "hex": "76a914dd2929c7f878931f5d0359f7785ed11de526ad6088ac", "addresses": ["1MAPeTvzFU8u3w9MgybHY8BPPLgdixyrAg"], "asm": "OP_DUP OP_HASH160 dd2929c7f878931f5d0359f7785ed11de526ad60 OP_EQUALVERIFY OP_CHECKSIG", "type": "pubkeyhash"}, "value": 0.00467878, "n": 3}, {"scriptPubKey": {"reqSigs": 1, "hex": "a914cf47aca849fa220c69305d75cb80d4e98b71d25087", "addresses": ["3Lb1fHD1S2Ci2112mh53UJeUaDTKa7JJjM"], "asm": "OP_HASH160 cf47aca849fa220c69305d75cb80d4e98b71d250 OP_EQUAL", "type": "scripthash"}, "value": 0.00349695, "n": 4}, {"scriptPubKey": {"reqSigs": 1, "hex": "a914a22f0883a54c643d2d6ed87d02a6831961e439f387", "addresses": ["3GUZjYm3Fb4sJ4pqVYzq5XpzsS3raRs6ny"], "asm": "OP_HASH160 a22f0883a54c643d2d6ed87d02a6831961e439f3 OP_EQUAL", "type": "scripthash"}, "value": 0.0022489, "n": 5}, {"scriptPubKey": {"reqSigs": 1, "hex": "a914a33eaab7dfd664610581d5466929d9db9d52a52987", "addresses": ["3GaB8ywD9W7rrBk1Ux5kvVHCQc5U2bkLpY"], "asm": "OP_HASH160 a33eaab7dfd664610581d5466929d9db9d52a529 OP_EQUAL", "type": "scripthash"}, "value": 0.00282611, "n": 6}, {"scriptPubKey": {"reqSigs": 1, "hex": "a91413b204abc7596705ec959e3bfc9f7dbfb25dfc3587", "addresses": ["33VA27WmmEM5q5dJVEXqi7yT8LzKLrx6om"], "asm": "OP_HASH160 13b204abc7596705ec959e3bfc9f7dbfb25dfc35 OP_EQUAL", "type": "scripthash"}, "value": 0.00168032, "n": 7}, {"scriptPubKey": {"reqSigs": 1, "hex": "76a914049146738d7ec872e4d49ab48accc7e79b7dd54188ac", "addresses": ["1R9jfapA3dncoZfQTkSoNqZFjFsTikrVb"], "asm": "OP_DUP OP_HASH160 049146738d7ec872e4d49ab48accc7e79b7dd541 OP_EQUALVERIFY OP_CHECKSIG", "type": "pubkeyhash"}, "value": 0.06806633, "n": 8}, {"scriptPubKey": {"reqSigs": 1, "hex": "a914fa2172b4150520b942ec5db5af2d5c8d7423807787", "addresses": ["3QVavWj7B6APAzmd1AJ8dAZeY41NRftUcP"], "asm": "OP_HASH160 fa2172b4150520b942ec5db5af2d5c8d74238077 OP_EQUAL", "type": "scripthash"}, "value": 0.0020926, "n": 9}, {"scriptPubKey": {"reqSigs": 1, "hex": "76a9143bca73a8424522b28d1fc8db9a72038c0dd458e188ac", "addresses": ["16T9Pv44Q49BddRUSTh1nEw3TgS7wGAFgK"], "asm": "OP_DUP OP_HASH160 3bca73a8424522b28d1fc8db9a72038c0dd458e1 OP_EQUALVERIFY OP_CHECKSIG", "type": "pubkeyhash"}, "value": 0.00626175, "n": 10}, {"scriptPubKey": {"reqSigs": 1, "hex": "a9147628e05e72acab1e620cd8832b7e53ffaff9d2bc87", "addresses": ["3CTndKnRwy4UnEzRRLFbUnT5Zsr7ScjN6H"], "asm": "OP_HASH160 7628e05e72acab1e620cd8832b7e53ffaff9d2bc OP_EQUAL", "type": "scripthash"}, "value": 0.14252912, "n": 11}, {"scriptPubKey": {"reqSigs": 1, "hex": "a91425323413f5642fd6ea0a1081b61f4563c96f187787", "addresses": ["355h4qVe3oNnynSgUqzsrM3kdcso5WR9Eu"], "asm": "OP_HASH160 25323413f5642fd6ea0a1081b61f4563c96f1877 OP_EQUAL", "type": "scripthash"}, "value": 0.00282611, "n": 12}, {"scriptPubKey": {"reqSigs": 1, "hex": "a914d351d75617a13dc071f20f46bb655e9ff4d9117087", "addresses": ["3LxNYSfSkLek5X4TWoLNb4zm1fe852heaz"], "asm": "OP_HASH160 d351d75617a13dc071f20f46bb655e9ff4d91170 OP_EQUAL", "type": "scripthash"}, "value": 0.00553337, "n": 13}, {"scriptPubKey": {"reqSigs": 1, "hex": "76a914dcf411c87ab6dfaaab79e5e497d83d24e26b00e688ac", "addresses": ["1M9J3StpyWf2nrRvn8foA8N8hTaGMF49X4"], "asm": "OP_DUP OP_HASH160 dcf411c87ab6dfaaab79e5e497d83d24e26b00e6 OP_EQUALVERIFY OP_CHECKSIG", "type": "pubkeyhash"}, "value": 0.00293377, "n": 14}, {"scriptPubKey": {"reqSigs": 1, "hex": "76a914995f1c869f3571df06443b6003fefcf2b3b78e9f88ac", "addresses": ["1EyxKos8piZh6L2SMm3RN4UycM9C88mXJJ"], "asm": "OP_DUP OP_HASH160 995f1c869f3571df06443b6003fefcf2b3b78e9f OP_EQUALVERIFY OP_CHECKSIG", "type": "pubkeyhash"}, "value": 0.038121, "n": 15}, {"scriptPubKey": {"reqSigs": 1, "hex": "a914cc404fe15c30d5f7ca81f53956b785550be31f7987", "addresses": ["3LJzp9yQAfuUKJ6oHak36sPWj2U6JeSfUY"], "asm": "OP_HASH160 cc404fe15c30d5f7ca81f53956b785550be31f79 OP_EQUAL", "type": "scripthash"}, "value": 0.03701, "n": 16}, {"scriptPubKey": {"reqSigs": 1, "hex": "76a9142d3e74767091e8664912c611d77976e36938c21788ac", "addresses": ["158EE5UVMCJQQm3PnDe4wKJvcmNceVJP1N"], "asm": "OP_DUP OP_HASH160 2d3e74767091e8664912c611d77976e36938c217 OP_EQUALVERIFY OP_CHECKSIG", "type": "pubkeyhash"}, "value": 0.00239833, "n": 17}, {"scriptPubKey": {"reqSigs": 1, "hex": "a9147a63632ffede2a42269179102ac4966e500e2b7987", "addresses": ["3Cr9RWRwVuKZKo3s6ZpPYjrq4DXEcRoRs7"], "asm": "OP_HASH160 7a63632ffede2a42269179102ac4966e500e2b79 OP_EQUAL", "type": "scripthash"}, "value": 0.00438711, "n": 18}, {"scriptPubKey": {"reqSigs": 1, "hex": "a91469348d2be6585333185683a70e9c4ac4fa5776ab87", "addresses": ["3BHHq2Pd8t6Wq3av8M4Uuxs6Kywy3zimmA"], "asm": "OP_HASH160 69348d2be6585333185683a70e9c4ac4fa5776ab OP_EQUAL", "type": "scripthash"}, "value": 0.00687089, "n": 19}, {"scriptPubKey": {"reqSigs": 1, "hex": "a9146dfb67be5e0277b47d55e00537d4041aed9f50f387", "addresses": ["3BiYkPvyHfGNV6bXodHTUWZJD8vUonc7ga"], "asm": "OP_HASH160 6dfb67be5e0277b47d55e00537d4041aed9f50f3 OP_EQUAL", "type": "scripthash"}, "value": 0.0026176, "n": 20}, {"scriptPubKey": {"reqSigs": 1, "hex": "a914d9e22e4649c2118878c5269367f001e545f6c75887", "addresses": ["3MZ5WV83Q8nC1PARVLXD2n2xyeRWWrmQSm"], "asm": "OP_HASH160 d9e22e4649c2118878c5269367f001e545f6c758 OP_EQUAL", "type": "scripthash"}, "value": 0.00190137, "n": 21}, {"scriptPubKey": {"reqSigs": 1, "hex": "a914f3f2ff50877b808fcd1b5524c9aaa309d0954a1987", "addresses": ["3PvuDueUHqykxaf81gKhPfX6UJq1dVoqAb"], "asm": "OP_HASH160 f3f2ff50877b808fcd1b5524c9aaa309d0954a19 OP_EQUAL", "type": "scripthash"}, "value": 0.00438563, "n": 22}, {"scriptPubKey": {"reqSigs": 1, "hex": "a914d6a235533dff468b714e44985ea95ee099bd844287", "addresses": ["3MFtr2T9W7jpwbK2GjBHqeHzyoKSVCsxyH"], "asm": "OP_HASH160 d6a235533dff468b714e44985ea95ee099bd8442 OP_EQUAL", "type": "scripthash"}, "value": 0.0018146, "n": 23}, {"scriptPubKey": {"reqSigs": 1, "hex": "a9146ad0c948dd309534dff6fa30a5ee552a7cf5787887", "addresses": ["3BRofbsPmcK2RrnpJ19giR3zf6uDt1E28C"], "asm": "OP_HASH160 6ad0c948dd309534dff6fa30a5ee552a7cf57878 OP_EQUAL", "type": "scripthash"}, "value": 0.00315169, "n": 24}, {"scriptPubKey": {"reqSigs": 1, "hex": "a914b13effa268e3bd8c4a85f7540fb7f8f742e33cd787", "addresses": ["3HrCziSN9nKSBNSnxvtdnVRPamYjYCFEVD"], "asm": "OP_HASH160 b13effa268e3bd8c4a85f7540fb7f8f742e33cd7 OP_EQUAL", "type": "scripthash"}, "value": 0.1114067, "n": 25}, {"scriptPubKey": {"reqSigs": 1, "hex": "76a91444bcf96b953111b2a45f6a44c11efe86a5513cc888ac", "addresses": ["17GTLD7dtcVMRX6X475iB1MiyhJyYRDzeu"], "asm": "OP_DUP OP_HASH160 44bcf96b953111b2a45f6a44c11efe86a5513cc8 OP_EQUALVERIFY OP_CHECKSIG", "type": "pubkeyhash"}, "value": 0.00023864, "n": 26}, {"scriptPubKey": {"reqSigs": 1, "hex": "76a914dc700fcffaaa1d799a3b3b3f11bad71c44be0f9388ac", "addresses": ["1M6ZuPfbNiLM2wg95k9BPuMZJfBRs81GJn"], "asm": "OP_DUP OP_HASH160 dc700fcffaaa1d799a3b3b3f11bad71c44be0f93 OP_EQUALVERIFY OP_CHECKSIG", "type": "pubkeyhash"}, "value": 0.02236379, "n": 27}, {"scriptPubKey": {"reqSigs": 1, "hex": "a914972a3d656228e7386fcdbc1285438db00fdcbbca87", "addresses": ["3FUJZPGwSFhZ4zm7oVoGJt845xkwvZ6ZnM"], "asm": "OP_HASH160 972a3d656228e7386fcdbc1285438db00fdcbbca OP_EQUAL", "type": "scripthash"}, "value": 0.00883181, "n": 28}, {"scriptPubKey": {"reqSigs": 1, "hex": "a9149cfa5b8368439cb882ba8a219a220bbbb179b33387", "addresses": ["3G13FcRUcEC4tZmGnCVmi2anMsukzhBFUv"], "asm": "OP_HASH160 9cfa5b8368439cb882ba8a219a220bbbb179b333 OP_EQUAL", "type": "scripthash"}, "value": 0.00312449, "n": 29}, {"scriptPubKey": {"reqSigs": 1, "hex": "a9147a80c4d71bff573e05a71a0d7cc195991682d53d87", "addresses": ["3Crkcy5FN9t19uTDSqDTkymeerHPznb4AX"], "asm": "OP_HASH160 7a80c4d71bff573e05a71a0d7cc195991682d53d OP_EQUAL", "type": "scripthash"}, "value": 0.0031647, "n": 30}, {"scriptPubKey": {"reqSigs": 1, "hex": "76a91444743ce01d1bf7c7c48a2d9056d674e05f82859f88ac", "addresses": ["17ExCPWLmkPR24xzPXK3qbKEhtygrJT8Pk"], "asm": "OP_DUP OP_HASH160 44743ce01d1bf7c7c48a2d9056d674e05f82859f OP_EQUALVERIFY OP_CHECKSIG", "type": "pubkeyhash"}, "value": 0.00358, "n": 31}, {"scriptPubKey": {"reqSigs": 1, "hex": "76a9148215f2836b54fe576133c479aa5804932e3cd9e588ac", "addresses": ["1Crq8s8bxMdaahLnjbYMQGPPFEkF3tYRcR"], "asm": "OP_DUP OP_HASH160 8215f2836b54fe576133c479aa5804932e3cd9e5 OP_EQUALVERIFY OP_CHECKSIG", "type": "pubkeyhash"}, "value": 0.002962, "n": 32}, {"scriptPubKey": {"reqSigs": 1, "hex": "a91465cf290f833ebe78bc9bb90edecb716ce3ecb59a87", "addresses": ["3AyLLg7BZV8gPeCLNa2xGNUXWj6qsmE5iQ"], "asm": "OP_HASH160 65cf290f833ebe78bc9bb90edecb716ce3ecb59a OP_EQUAL", "type": "scripthash"}, "value": 0.00904293, "n": 33}, {"scriptPubKey": {"reqSigs": 1, "hex": "a91442e9434a2cf28a4abaf502a09d4455a1dc8b7fd487", "addresses": ["37noxbGF1Vi8pKdDTETMEveKQpZ3HsCa1U"], "asm": "OP_HASH160 42e9434a2cf28a4abaf502a09d4455a1dc8b7fd4 OP_EQUAL", "type": "scripthash"}, "value": 0.00360139, "n": 34}], "hex": "020000000001014293a4a4c9750600ff480ca4bdd5a20eac1fae0fcc8fc0bf29f05ba3110ad97c09000000171600141208dc6c17ccb4088e23fbab48b3696bb73c8ab2feffffff2338d70a000000000017a914c0a9f31aabf6aa3328c18e1036c3eb12568e8a12873a0e94010000000017a914142fc19b56831575dcee8e2f51ca561db7717838870fb359000000000017a9141e7ba571c7862eeca48e28851efdb038b7d66aec87a6230700000000001976a914dd2929c7f878931f5d0359f7785ed11de526ad6088acff5505000000000017a914cf47aca849fa220c69305d75cb80d4e98b71d250877a6e03000000000017a914a22f0883a54c643d2d6ed87d02a6831961e439f387f34f04000000000017a914a33eaab7dfd664610581d5466929d9db9d52a52987609002000000000017a91413b204abc7596705ec959e3bfc9f7dbfb25dfc358769dc6700000000001976a914049146738d7ec872e4d49ab48accc7e79b7dd54188ac6c3103000000000017a914fa2172b4150520b942ec5db5af2d5c8d7423807787ff8d0900000000001976a9143bca73a8424522b28d1fc8db9a72038c0dd458e188ac707bd9000000000017a9147628e05e72acab1e620cd8832b7e53ffaff9d2bc87f34f04000000000017a91425323413f5642fd6ea0a1081b61f4563c96f187787797108000000000017a914d351d75617a13dc071f20f46bb655e9ff4d9117087017a0400000000001976a914dcf411c87ab6dfaaab79e5e497d83d24e26b00e688ac042b3a00000000001976a914995f1c869f3571df06443b6003fefcf2b3b78e9f88ac087938000000000017a914cc404fe15c30d5f7ca81f53956b785550be31f7987d9a80300000000001976a9142d3e74767091e8664912c611d77976e36938c21788acb7b106000000000017a9147a63632ffede2a42269179102ac4966e500e2b7987f17b0a000000000017a91469348d2be6585333185683a70e9c4ac4fa5776ab8780fe03000000000017a9146dfb67be5e0277b47d55e00537d4041aed9f50f387b9e602000000000017a914d9e22e4649c2118878c5269367f001e545f6c7588723b106000000000017a914f3f2ff50877b808fcd1b5524c9aaa309d0954a1987d4c402000000000017a914d6a235533dff468b714e44985ea95ee099bd84428721cf04000000000017a9146ad0c948dd309534dff6fa30a5ee552a7cf57878873efea9000000000017a914b13effa268e3bd8c4a85f7540fb7f8f742e33cd787385d0000000000001976a91444bcf96b953111b2a45f6a44c11efe86a5513cc888acdb1f2200000000001976a914dc700fcffaaa1d799a3b3b3f11bad71c44be0f9388aced790d000000000017a914972a3d656228e7386fcdbc1285438db00fdcbbca8781c404000000000017a9149cfa5b8368439cb882ba8a219a220bbbb179b3338736d404000000000017a9147a80c4d71bff573e05a71a0d7cc195991682d53d8770760500000000001976a91444743ce01d1bf7c7c48a2d9056d674e05f82859f88ac08850400000000001976a9148215f2836b54fe576133c479aa5804932e3cd9e588ac65cc0d000000000017a91465cf290f833ebe78bc9bb90edecb716ce3ecb59a87cb7e05000000000017a91442e9434a2cf28a4abaf502a09d4455a1dc8b7fd48702473044022011e7ee15b86fb8609006d5c3dd37624ef0b16724b172501a20549c52e5110d720220377f0238d4f8c8dce405b269b492bbc2e1194114584d2b5f6d7b5f721a15b072012102d3747f50f6fd91c1569a658a3548fd375e4876c584cd58fe04b2dbd4f7337c9e0d490800", "vin": [{"txinwitness": ["3044022011e7ee15b86fb8609006d5c3dd37624ef0b16724b172501a20549c52e5110d720220377f0238d4f8c8dce405b269b492bbc2e1194114584d2b5f6d7b5f721a15b07201", "02d3747f50f6fd91c1569a658a3548fd375e4876c584cd58fe04b2dbd4f7337c9e"], "sequence": 4294967294, "scriptSig": {"hex": "1600141208dc6c17ccb4088e23fbab48b3696bb73c8ab2", "asm": "00141208dc6c17ccb4088e23fbab48b3696bb73c8ab2"}, "vout": 9, "txid": "7cd90a11a35bf029bfc08fcc0fae1fac0ea2d5bda40c48ff000675c9a4a49342"}], "txid": "f73db797d1efd6f73928a30ced0214fc81c47fa8bd51a4dd029cb99ce4136747", "blocktime": 1537870564, "version": 2, "confirmations": 11515, "time": 1537870564, "locktime": 542989, "vsize": 1242, "size": 1323}