{"hash": "f73effba29047d8499f5d2a62faf875a8529510174ea25dd99930d54e4fe863f", "blockhash": "0000000000000000001e0dab787dd257d1dbfcb92a98c2207d5e1078be1f4165", "vout": [{"scriptPubKey": {"reqSigs": 1, "hex": "76a9145ad83d87b8a80c2deb2f81629a17c50ad1368ff488ac", "addresses": ["19HLruesCXccRxtJtRhzHF5BHQkk4EWmEX"], "asm": "OP_DUP OP_HASH160 5ad83d87b8a80c2deb2f81629a17c50ad1368ff4 OP_EQUALVERIFY OP_CHECKSIG", "type": "pubkeyhash"}, "value": 0.00027143, "n": 0}, {"scriptPubKey": {"reqSigs": 1, "hex": "76a914e0ce66c61683dd4d9578f3d1a56e757dd040a15188ac", "addresses": ["1MVfczhmANWZ6L4bzdqaT9AhFixnFVDmsC"], "asm": "OP_DUP OP_HASH160 e0ce66c61683dd4d9578f3d1a56e757dd040a151 OP_EQUALVERIFY OP_CHECKSIG", "type": "pubkeyhash"}, "value": 0.01874557, "n": 1}], "hex": "0100000002b836ed3ee7012e69a650d385fc46381e26f97bde1aa365cc53253885f36d7562020000006b483045022100c2fbf07904b7178eb43d65e90a92bd42c7ce7af12c85a0512426426394e406fc02205981ea8f3aa11c0e3473bf961bbdc08097feebd13e77d179a5e731892736013e01210260e4ffa971054965854d823aaabfb0ec9f7b0856eb1226a10ca481d283c1b006ffffffff682ab803f94d30b961ced3a2e669e2dc091599b3c0c52e2dc2b42818b43f4bb3000000006a4730440220081943b54255f2f8016ca85739c10d08fc46dbdbe332b1fcf4dd811dd532e56d02202c2b223e031ade432cd50d00bb1f9cca1ce2c65d388b88ba3dc4b71f20fa92a0012103ded418af3aa52a79e3f7183a5d089335855a009c0e849dff92f2d97954eccb9affffffff02076a0000000000001976a9145ad83d87b8a80c2deb2f81629a17c50ad1368ff488ac7d9a1c00000000001976a914e0ce66c61683dd4d9578f3d1a56e757dd040a15188ac00000000", "vin": [{"sequence": 4294967295, "scriptSig": {"hex": "483045022100c2fbf07904b7178eb43d65e90a92bd42c7ce7af12c85a0512426426394e406fc02205981ea8f3aa11c0e3473bf961bbdc08097feebd13e77d179a5e731892736013e01210260e4ffa971054965854d823aaabfb0ec9f7b0856eb1226a10ca481d283c1b006", "asm": "3045022100c2fbf07904b7178eb43d65e90a92bd42c7ce7af12c85a0512426426394e406fc02205981ea8f3aa11c0e3473bf961bbdc08097feebd13e77d179a5e731892736013e[ALL] 0260e4ffa971054965854d823aaabfb0ec9f7b0856eb1226a10ca481d283c1b006"}, "vout": 2, "txid": "62756df385382553cc65a31ade7bf9261e3846fc85d350a6692e01e73eed36b8"}, {"sequence": 4294967295, "scriptSig": {"hex": "4730440220081943b54255f2f8016ca85739c10d08fc46dbdbe332b1fcf4dd811dd532e56d02202c2b223e031ade432cd50d00bb1f9cca1ce2c65d388b88ba3dc4b71f20fa92a0012103ded418af3aa52a79e3f7183a5d089335855a009c0e849dff92f2d97954eccb9a", "asm": "30440220081943b54255f2f8016ca85739c10d08fc46dbdbe332b1fcf4dd811dd532e56d02202c2b223e031ade432cd50d00bb1f9cca1ce2c65d388b88ba3dc4b71f20fa92a0[ALL] 03ded418af3aa52a79e3f7183a5d089335855a009c0e849dff92f2d97954eccb9a"}, "vout": 0, "txid": "b34b3fb41828b4c22d2ec5c0b3991509dce269e6a2d3ce61b9304df903b82a68"}], "txid": "f73effba29047d8499f5d2a62faf875a8529510174ea25dd99930d54e4fe863f", "blocktime": 1537872475, "version": 1, "confirmations": 11487, "time": 1537872475, "locktime": 0, "vsize": 373, "size": 373}