{"hash": "f7405a84f3358c53282a3f3e8f98700c86ce93e96846e3571606efe585294b9b", "blockhash": "0000000000000000001cda96e906b7601b7a6fb1a3b62bca570a9e5d8f4b3de1", "vout": [{"scriptPubKey": {"reqSigs": 1, "hex": "76a914c19e0f035dd9375ad1743e370e8b6a9cbdd2f5d288ac", "addresses": ["1Jekm8ZswQmDhLFMp9cuYb1Kcq26riFp6m"], "asm": "OP_DUP OP_HASH160 c19e0f035dd9375ad1743e370e8b6a9cbdd2f5d2 OP_EQUALVERIFY OP_CHECKSIG", "type": "pubkeyhash"}, "value": 0.09776533, "n": 0}], "hex": "02000000012f2d2c6a502112af60efeaa3547dad3b124962ce8b3480c1aeb5e8e7c9ff4eee5e0000008b48304502210082eb3c422df3fb52c8cc80fda4de72a14601be419c162f360323d5b5772d6d4d02207d6c52b7534488edc8d1d662112cb53f86f3bb74270f9c99e40f3d6df86396be0141046f7e57ff1762682b637d477bb5a2551bf918d80128a232ade67dbf5ad751d3c479d5ec6bc1800e56542f2cc0820d2758092a580b65c7d4eecd75234d1ff7d202ffffffff01952d9500000000001976a914c19e0f035dd9375ad1743e370e8b6a9cbdd2f5d288ac00000000", "vin": [{"sequence": 4294967295, "scriptSig": {"hex": "48304502210082eb3c422df3fb52c8cc80fda4de72a14601be419c162f360323d5b5772d6d4d02207d6c52b7534488edc8d1d662112cb53f86f3bb74270f9c99e40f3d6df86396be0141046f7e57ff1762682b637d477bb5a2551bf918d80128a232ade67dbf5ad751d3c479d5ec6bc1800e56542f2cc0820d2758092a580b65c7d4eecd75234d1ff7d202", "asm": "304502210082eb3c422df3fb52c8cc80fda4de72a14601be419c162f360323d5b5772d6d4d02207d6c52b7534488edc8d1d662112cb53f86f3bb74270f9c99e40f3d6df86396be[ALL] 046f7e57ff1762682b637d477bb5a2551bf918d80128a232ade67dbf5ad751d3c479d5ec6bc1800e56542f2cc0820d2758092a580b65c7d4eecd75234d1ff7d202"}, "vout": 94, "txid": "ee4effc9e7e8b5aec180348bce6249123bad7d54a3eaef60af1221506a2c2d2f"}], "txid": "f7405a84f3358c53282a3f3e8f98700c86ce93e96846e3571606efe585294b9b", "blocktime": 1537873282, "version": 2, "confirmations": 11483, "time": 1537873282, "locktime": 0, "vsize": 224, "size": 224}