{"hash": "f7437505b0a6efc599fa9d0283ea08abcd80448d3856e8f421cd122e34f353d0", "blockhash": "0000000000000000000baef3f32e3676a92c3b2e5da21b426e4f302fc371ce76", "vout": [{"scriptPubKey": {"reqSigs": 1, "hex": "76a914f4f4e39be34ebf11d0df0818b78bb008f4ded6f788ac", "addresses": ["1PLDEzy1GpHxLQyG2SFxuFAn7gvUDJsJcx"], "asm": "OP_DUP OP_HASH160 f4f4e39be34ebf11d0df0818b78bb008f4ded6f7 OP_EQUALVERIFY OP_CHECKSIG", "type": "pubkeyhash"}, "value": 0.05969691, "n": 0}], "hex": "010000000171c383a0488d1fa9f66e25acbbb4ce168117f3543cb37595329ca8797cac8a59000000006a473044022017e673e0b71ddc0c1554aeef620d3afd293a39dff6cf1d36aad2d9a694d425c702201d5df7e8bc6ba693ccf74e8f732a69193ceb50defbff16e9a2d8acf22c92fede0121024a21d4b4140d6c2a2ab84d1ea8e0a9058e46620c65d8391c5def9b476befe6b2ffffffff011b175b00000000001976a914f4f4e39be34ebf11d0df0818b78bb008f4ded6f788ac00000000", "vin": [{"sequence": 4294967295, "scriptSig": {"hex": "473044022017e673e0b71ddc0c1554aeef620d3afd293a39dff6cf1d36aad2d9a694d425c702201d5df7e8bc6ba693ccf74e8f732a69193ceb50defbff16e9a2d8acf22c92fede0121024a21d4b4140d6c2a2ab84d1ea8e0a9058e46620c65d8391c5def9b476befe6b2", "asm": "3044022017e673e0b71ddc0c1554aeef620d3afd293a39dff6cf1d36aad2d9a694d425c702201d5df7e8bc6ba693ccf74e8f732a69193ceb50defbff16e9a2d8acf22c92fede[ALL] 024a21d4b4140d6c2a2ab84d1ea8e0a9058e46620c65d8391c5def9b476befe6b2"}, "vout": 0, "txid": "598aac7c79a89c329575b33c54f3178116ceb4bbac256ef6a91f8d48a083c371"}], "txid": "f7437505b0a6efc599fa9d0283ea08abcd80448d3856e8f421cd122e34f353d0", "blocktime": 1537876114, "version": 1, "confirmations": 11459, "time": 1537876114, "locktime": 0, "vsize": 191, "size": 191}