{"hash": "f747bf10b0f125ffef0b5dba9cd1588635b5f1401b40cb56a9c6497e7348fe5e", "blockhash": "0000000000000000000e13cef7c366c0283d82e591d1acd082e914b08063cdf1", "vout": [{"scriptPubKey": {"reqSigs": 1, "hex": "a914a7aedd0d1e77300fb06aa154c9a517b74c08d24587", "addresses": ["3GyeFJmQynJWd8DeACm4cdEnZcckAtrfcN"], "asm": "OP_HASH160 a7aedd0d1e77300fb06aa154c9a517b74c08d245 OP_EQUAL", "type": "scripthash"}, "value": 0.06025844, "n": 0}, {"scriptPubKey": {"reqSigs": 1, "hex": "76a914c0144a122117007b25e039413fef69b05f92115388ac", "addresses": ["1JWd3ZSwyoC6V9m7jMT6NgyHQB7wQr7swq"], "asm": "OP_DUP OP_HASH160 c0144a122117007b25e039413fef69b05f921153 OP_EQUALVERIFY OP_CHECKSIG", "type": "pubkeyhash"}, "value": 2.73e-05, "n": 1}, {"scriptPubKey": {"type": "nulldata", "hex": "6a146f6d6e69000000000000001f00000016ce7ed8a0", "asm": "OP_RETURN 6f6d6e69000000000000001f00000016ce7ed8a0"}, "value": 0.0, "n": 2}], "hex": "0100000001bb801d622e7eaedec089fbd6c038fed7ad13a670b00ebc5252692eeed183e34000000000fdfd0000473044022068314e677678cd6583fa9fdbe6e3f482652906b388be2a4ea537a9a9f02a7c9b02200975ccac2a7c0b9f84d049af74e1f7df49a449171f6a99c6b1ffe762b85e58f301483045022100db5df478bde4a54b26d13e6e6c0dd2c61fbc2b0e118c7f89a7f8ab2d649b9a9c022036aab8471ad7816ee803b4c5ed949649bdb5ed7b1e53d104c2018595bb3b8c2c014c695221035c037a36e4ec9aa1aefcef02ff742bec63c098c0a7f1c9a1b822b6294afbb7102102a1ccf15bc58870240578a2922b3f0e922260f37098adbd988e15be36943816912102af3be4803e51fef309a51f0332f399026e99dae117dc2d22a71f4eacc1f3f4f153aeffffffff0374f25b000000000017a914a7aedd0d1e77300fb06aa154c9a517b74c08d24587aa0a0000000000001976a914c0144a122117007b25e039413fef69b05f92115388ac0000000000000000166a146f6d6e69000000000000001f00000016ce7ed8a000000000", "vin": [{"sequence": 4294967295, "scriptSig": {"hex": "00473044022068314e677678cd6583fa9fdbe6e3f482652906b388be2a4ea537a9a9f02a7c9b02200975ccac2a7c0b9f84d049af74e1f7df49a449171f6a99c6b1ffe762b85e58f301483045022100db5df478bde4a54b26d13e6e6c0dd2c61fbc2b0e118c7f89a7f8ab2d649b9a9c022036aab8471ad7816ee803b4c5ed949649bdb5ed7b1e53d104c2018595bb3b8c2c014c695221035c037a36e4ec9aa1aefcef02ff742bec63c098c0a7f1c9a1b822b6294afbb7102102a1ccf15bc58870240578a2922b3f0e922260f37098adbd988e15be36943816912102af3be4803e51fef309a51f0332f399026e99dae117dc2d22a71f4eacc1f3f4f153ae", "asm": "0 3044022068314e677678cd6583fa9fdbe6e3f482652906b388be2a4ea537a9a9f02a7c9b02200975ccac2a7c0b9f84d049af74e1f7df49a449171f6a99c6b1ffe762b85e58f3[ALL] 3045022100db5df478bde4a54b26d13e6e6c0dd2c61fbc2b0e118c7f89a7f8ab2d649b9a9c022036aab8471ad7816ee803b4c5ed949649bdb5ed7b1e53d104c2018595bb3b8c2c[ALL] 5221035c037a36e4ec9aa1aefcef02ff742bec63c098c0a7f1c9a1b822b6294afbb7102102a1ccf15bc58870240578a2922b3f0e922260f37098adbd988e15be36943816912102af3be4803e51fef309a51f0332f399026e99dae117dc2d22a71f4eacc1f3f4f153ae"}, "vout": 0, "txid": "40e383d1ee2e695252bc0eb070a613add7fe38c0d6fb89c0deae7e2e621d80bb"}], "txid": "f747bf10b0f125ffef0b5dba9cd1588635b5f1401b40cb56a9c6497e7348fe5e", "blocktime": 1537871767, "version": 1, "confirmations": 11493, "time": 1537871767, "locktime": 0, "vsize": 403, "size": 403}