{"hash": "f74d873962087cd44bcded9264d0aec9d8771932e855b6826bb91ff17026a035", "blockhash": "0000000000000000001f76057863aec43deb6fa401d9628bb513d65a8098bfab", "vout": [{"scriptPubKey": {"reqSigs": 1, "hex": "76a91432281a758e696b2c0ccfe37b0b9e6e327938e78f88ac", "addresses": ["15aCq2FYMb3aXWVL5mwk93VumEauzWu6p5"], "asm": "OP_DUP OP_HASH160 32281a758e696b2c0ccfe37b0b9e6e327938e78f OP_EQUALVERIFY OP_CHECKSIG", "type": "pubkeyhash"}, "value": 0.00733545, "n": 0}, {"scriptPubKey": {"reqSigs": 1, "hex": "76a914102daed272ecc8790a307bbd4bc3228164e0d0d688ac", "addresses": ["12UYYB25T7mb9fZY7DRFSwkPLxYfBbjGx1"], "asm": "OP_DUP OP_HASH160 102daed272ecc8790a307bbd4bc3228164e0d0d6 OP_EQUALVERIFY OP_CHECKSIG", "type": "pubkeyhash"}, "value": 0.00752857, "n": 1}], "hex": "0100000001bb96fcd73636a53536db7a2e5931b185e349510f4b5b4e2c82cf69c897a63cd3000000008b48304502210081c415395d985eb984febd53e6cb5935a4775a0cd3dcf6da91b4d879eacfb58802205deae52b45e0eafc9103e5ae59c2a7270f135f56c25fec209fc51583c3318d720141046c5806d0f7aec434d96fa92112301db5f0497c6753d403d3cfa4aa1d5e0ebe5498daad97970a9ece08355d0b6ac83c043c00bf916d0f7aadfd85d2edf3ac2d74fdffffff0269310b00000000001976a91432281a758e696b2c0ccfe37b0b9e6e327938e78f88acd97c0b00000000001976a914102daed272ecc8790a307bbd4bc3228164e0d0d688ac13490800", "vin": [{"sequence": 4294967293, "scriptSig": {"hex": "48304502210081c415395d985eb984febd53e6cb5935a4775a0cd3dcf6da91b4d879eacfb58802205deae52b45e0eafc9103e5ae59c2a7270f135f56c25fec209fc51583c3318d720141046c5806d0f7aec434d96fa92112301db5f0497c6753d403d3cfa4aa1d5e0ebe5498daad97970a9ece08355d0b6ac83c043c00bf916d0f7aadfd85d2edf3ac2d74", "asm": "304502210081c415395d985eb984febd53e6cb5935a4775a0cd3dcf6da91b4d879eacfb58802205deae52b45e0eafc9103e5ae59c2a7270f135f56c25fec209fc51583c3318d72[ALL] 046c5806d0f7aec434d96fa92112301db5f0497c6753d403d3cfa4aa1d5e0ebe5498daad97970a9ece08355d0b6ac83c043c00bf916d0f7aadfd85d2edf3ac2d74"}, "vout": 0, "txid": "d33ca697c869cf822c4e5b4b0f5149e385b131592e7adb3635a53636d7fc96bb"}], "txid": "f74d873962087cd44bcded9264d0aec9d8771932e855b6826bb91ff17026a035", "blocktime": 1537873891, "version": 1, "confirmations": 11477, "time": 1537873891, "locktime": 542995, "vsize": 258, "size": 258}