{"hash": "fd55f39e451fcd83d6c28074b10add791c6b04555a950b2b2afc86d0afc48020", "blockhash": "000000000000000000022b45ed06c6f4ccd3cf7fb5ba4856ebd2e58215665228", "vout": [{"scriptPubKey": {"reqSigs": 1, "hex": "a9146873a4d509f8725351019f4ba859015477b8289787", "addresses": ["3BDJja6feW1DNvCrMskkHowbwKvQXaDPdS"], "asm": "OP_HASH160 6873a4d509f8725351019f4ba859015477b82897 OP_EQUAL", "type": "scripthash"}, "value": 0.00998331, "n": 0}, {"scriptPubKey": {"reqSigs": 1, "hex": "76a914c9c9e228afa05e75487bbf75196c7abf581c2bc888ac", "addresses": ["1KPxffZJDA4vYAptYB3qWNhMXHXigh5kYh"], "asm": "OP_DUP OP_HASH160 c9c9e228afa05e75487bbf75196c7abf581c2bc8 OP_EQUALVERIFY OP_CHECKSIG", "type": "pubkeyhash"}, "value": 0.0066, "n": 1}], "hex": "0200000000010236965d8378f440cfebbe941412d9da2f699487017777a062464fd02ee0910b5c04000000171600149babeffcb29773dadf308dc80458f8b450f1106efeffffff67e1e81ec17d97ea83bb8164765543170b79ebbc5b3ab47ab5b10073616d6fb100000000171600149d0b4714630f9f91e096b59e41773572c71ae5a8feffffff02bb3b0f000000000017a9146873a4d509f8725351019f4ba859015477b828978720120a00000000001976a914c9c9e228afa05e75487bbf75196c7abf581c2bc888ac0247304402200180fba519a298aa3a246248d9973cb7e7a7eecc7c7901fb003e0360e15c7982022055751022d96e25d012fdbd1e6dc5aa017fd8f1a2055218f7d3b26eaebd6603710121025d851c0539ba778213e65e98db0822be61d0c86360ba0dbf2d853e3aea19af3002483045022100c3ceaf5b3c7d9f0219361f60adb48c04fe2be562b754ad82a501591687a3042c022000f6fa6e32b4aa049f12e56a96b4d678f03fc614363a3d3b165de9374c5292780121036e522c26280519c25f637efadcea64b12e7566533365ddd4cf01899ddaf5d9960b490800", "vin": [{"txinwitness": ["304402200180fba519a298aa3a246248d9973cb7e7a7eecc7c7901fb003e0360e15c7982022055751022d96e25d012fdbd1e6dc5aa017fd8f1a2055218f7d3b26eaebd66037101", "025d851c0539ba778213e65e98db0822be61d0c86360ba0dbf2d853e3aea19af30"], "sequence": 4294967294, "scriptSig": {"hex": "1600149babeffcb29773dadf308dc80458f8b450f1106e", "asm": "00149babeffcb29773dadf308dc80458f8b450f1106e"}, "vout": 4, "txid": "5c0b91e02ed04f4662a07777018794692fdad9121494beebcf40f478835d9636"}, {"txinwitness": ["3045022100c3ceaf5b3c7d9f0219361f60adb48c04fe2be562b754ad82a501591687a3042c022000f6fa6e32b4aa049f12e56a96b4d678f03fc614363a3d3b165de9374c52927801", "036e522c26280519c25f637efadcea64b12e7566533365ddd4cf01899ddaf5d996"], "sequence": 4294967294, "scriptSig": {"hex": "1600149d0b4714630f9f91e096b59e41773572c71ae5a8", "asm": "00149d0b4714630f9f91e096b59e41773572c71ae5a8"}, "vout": 0, "txid": "b16f6d617300b1b57ab43a5bbceb790b174355766481bb83ea977dc11ee8e167"}], "txid": "f7563d59b414a3752ed9c917a4298c30df9361a8fe0b84cd153f748179f4a28c", "blocktime": 1537869901, "version": 2, "confirmations": 11522, "time": 1537869901, "locktime": 542987, "vsize": 259, "size": 421}