{"hash": "f759caa37923e620c75155f96e7d81385a922af7d4e215a22a103aae206f61a9", "blockhash": "0000000000000000001e0dab787dd257d1dbfcb92a98c2207d5e1078be1f4165", "vout": [{"scriptPubKey": {"reqSigs": 1, "hex": "76a91456c8b49f2763322a878460bc5219e3f539df6d3688ac", "addresses": ["18usYmJFmNeAKWxrSXYFTdkSuL31CwJXbK"], "asm": "OP_DUP OP_HASH160 56c8b49f2763322a878460bc5219e3f539df6d36 OP_EQUALVERIFY OP_CHECKSIG", "type": "pubkeyhash"}, "value": 7.966e-05, "n": 0}, {"scriptPubKey": {"reqSigs": 1, "hex": "a914c79a7a2a8030d7f0a0bceeb2d4731ef6fdd5847187", "addresses": ["3KtRSyxNmRYFBFgSMEbtR1oCt8FYMxjPLp"], "asm": "OP_HASH160 c79a7a2a8030d7f0a0bceeb2d4731ef6fdd58471 OP_EQUAL", "type": "scripthash"}, "value": 0.0001, "n": 1}], "hex": "0100000001f575823659269da912a07dd67c69651333d6cb4f99b8dba0d97e2151fdd411e9000000006b483045022100bb4c0333574d54593d6c376903feec0fcdb82f1153c065fa1d2d568fe18a5b79022019082a13d9b85512ea8798f5f0a768683cca334873a7d59c4922a9975c6d14850121023c842665abb30da1c5de4db0e3f655209f93423038c78f765eb444f7e0a6bb76ffffffff021e1f0000000000001976a91456c8b49f2763322a878460bc5219e3f539df6d3688ac102700000000000017a914c79a7a2a8030d7f0a0bceeb2d4731ef6fdd584718700000000", "vin": [{"sequence": 4294967295, "scriptSig": {"hex": "483045022100bb4c0333574d54593d6c376903feec0fcdb82f1153c065fa1d2d568fe18a5b79022019082a13d9b85512ea8798f5f0a768683cca334873a7d59c4922a9975c6d14850121023c842665abb30da1c5de4db0e3f655209f93423038c78f765eb444f7e0a6bb76", "asm": "3045022100bb4c0333574d54593d6c376903feec0fcdb82f1153c065fa1d2d568fe18a5b79022019082a13d9b85512ea8798f5f0a768683cca334873a7d59c4922a9975c6d1485[ALL] 023c842665abb30da1c5de4db0e3f655209f93423038c78f765eb444f7e0a6bb76"}, "vout": 0, "txid": "e911d4fd51217ed9a0dbb8994fcbd6331365697cd67da012a99d2659368275f5"}], "txid": "f759caa37923e620c75155f96e7d81385a922af7d4e215a22a103aae206f61a9", "blocktime": 1537872475, "version": 1, "confirmations": 11487, "time": 1537872475, "locktime": 0, "vsize": 224, "size": 224}