{"hash": "f75e5858f6760213fcd8d39beacca7e20a8a69159c02af0cbc8ae5af94e47b81", "blockhash": "0000000000000000001cda96e906b7601b7a6fb1a3b62bca570a9e5d8f4b3de1", "vout": [{"scriptPubKey": {"reqSigs": 1, "hex": "a914105be33051eca5af9f26432d119e127bfb4d71a487", "addresses": ["33BWp4kJkWqGpoykYCwXUWWGh5uoRTpkwo"], "asm": "OP_HASH160 105be33051eca5af9f26432d119e127bfb4d71a4 OP_EQUAL", "type": "scripthash"}, "value": 0.00884593, "n": 0}], "hex": "01000000020d8709c068abeacbfdc126ef4cdac950c715f3b8b908739fcf130918439bfb1d000000006b483045022100ddaf7b4c3c9b31a18d11a46e2a900acc426491828560b6a33cb26909f1bb815902207d6bbfea15192084509510c0de3c13366f41f03f7406ac8708e01a114224f11501210399ff24bb8bde6e1aee8ca48325205dc37e30781f766d8479890fde5f44f3dd11ffffffff1149c0be2afe31a357396d4ce12d76bec59af8e9450511dbdea2e137c0ec834e000000006a473044022004aa45a8f3a3d0029f94e87ebdc0f6646d484d546bf40546248cdcff82a352440220068303e4ce8f0f5db1d428c2e2b19dccf6a6b103c4eff9f9cf3bed15fbeb4326012103e6a13a425699c1209d766120f3d3456e5b2a1c99acacfda1d2d716250a0ce06dffffffff01717f0d000000000017a914105be33051eca5af9f26432d119e127bfb4d71a48700000000", "vin": [{"sequence": 4294967295, "scriptSig": {"hex": "483045022100ddaf7b4c3c9b31a18d11a46e2a900acc426491828560b6a33cb26909f1bb815902207d6bbfea15192084509510c0de3c13366f41f03f7406ac8708e01a114224f11501210399ff24bb8bde6e1aee8ca48325205dc37e30781f766d8479890fde5f44f3dd11", "asm": "3045022100ddaf7b4c3c9b31a18d11a46e2a900acc426491828560b6a33cb26909f1bb815902207d6bbfea15192084509510c0de3c13366f41f03f7406ac8708e01a114224f115[ALL] 0399ff24bb8bde6e1aee8ca48325205dc37e30781f766d8479890fde5f44f3dd11"}, "vout": 0, "txid": "1dfb9b43180913cf9f7308b9b8f315c750c9da4cef26c1fdcbeaab68c009870d"}, {"sequence": 4294967295, "scriptSig": {"hex": "473044022004aa45a8f3a3d0029f94e87ebdc0f6646d484d546bf40546248cdcff82a352440220068303e4ce8f0f5db1d428c2e2b19dccf6a6b103c4eff9f9cf3bed15fbeb4326012103e6a13a425699c1209d766120f3d3456e5b2a1c99acacfda1d2d716250a0ce06d", "asm": "3044022004aa45a8f3a3d0029f94e87ebdc0f6646d484d546bf40546248cdcff82a352440220068303e4ce8f0f5db1d428c2e2b19dccf6a6b103c4eff9f9cf3bed15fbeb4326[ALL] 03e6a13a425699c1209d766120f3d3456e5b2a1c99acacfda1d2d716250a0ce06d"}, "vout": 0, "txid": "4e83ecc037e1a2dedb110545e9f89ac5be762de14c6d3957a331fe2abec04911"}], "txid": "f75e5858f6760213fcd8d39beacca7e20a8a69159c02af0cbc8ae5af94e47b81", "blocktime": 1537873282, "version": 1, "confirmations": 11481, "time": 1537873282, "locktime": 0, "vsize": 337, "size": 337}