{"hash": "f75e120291495c377b40c32bede8c9b251c9fbec2cb9c9ede780a97681219f41", "blockhash": "0000000000000000000dcc0f55137456b1a82d3642486a52398922ac4d620174", "vout": [{"scriptPubKey": {"reqSigs": 1, "hex": "76a914339c67a53cdc38f696b514b60832ce0e55d8011988ac", "addresses": ["15htpz4p6vHjtSG4pdqvB6ggANx82RQwVK"], "asm": "OP_DUP OP_HASH160 339c67a53cdc38f696b514b60832ce0e55d80119 OP_EQUALVERIFY OP_CHECKSIG", "type": "pubkeyhash"}, "value": 0.00010721, "n": 0}, {"scriptPubKey": {"reqSigs": 1, "hex": "76a914c5b99986c697eceb5aa39cb3c58e9d0f4cafb01e88ac", "addresses": ["1K2UTV7aBVmSBnwtj3u86hxhaUruTgQvV3"], "asm": "OP_DUP OP_HASH160 c5b99986c697eceb5aa39cb3c58e9d0f4cafb01e OP_EQUALVERIFY OP_CHECKSIG", "type": "pubkeyhash"}, "value": 0.00469, "n": 1}], "hex": "01000000013780dd087285c966b309b18dff2fb422a52b60b4b35a28c0b551b5ac53666f79000000006a47304402204f303b16061ef0af8bd6f2f2953a4ab1cd3974ad4dbd4bb946c7d527115bca6702206a6769653b1b768835a37bf5d2db5e9e516e35889841c712cdae7c66238ca48a01210321c9a6d777c77799f9bcbcbb507020f635067c1603835c65433871f8efa265fcffffffff02e1290000000000001976a914339c67a53cdc38f696b514b60832ce0e55d8011988ac08280700000000001976a914c5b99986c697eceb5aa39cb3c58e9d0f4cafb01e88ac00000000", "vin": [{"sequence": 4294967295, "scriptSig": {"hex": "47304402204f303b16061ef0af8bd6f2f2953a4ab1cd3974ad4dbd4bb946c7d527115bca6702206a6769653b1b768835a37bf5d2db5e9e516e35889841c712cdae7c66238ca48a01210321c9a6d777c77799f9bcbcbb507020f635067c1603835c65433871f8efa265fc", "asm": "304402204f303b16061ef0af8bd6f2f2953a4ab1cd3974ad4dbd4bb946c7d527115bca6702206a6769653b1b768835a37bf5d2db5e9e516e35889841c712cdae7c66238ca48a[ALL] 0321c9a6d777c77799f9bcbcbb507020f635067c1603835c65433871f8efa265fc"}, "vout": 0, "txid": "796f6653acb551b5c0285ab3b4602ba522b42fff8db109b366c9857208dd8037"}], "txid": "f75e120291495c377b40c32bede8c9b251c9fbec2cb9c9ede780a97681219f41", "blocktime": 1537870268, "version": 1, "confirmations": 11518, "time": 1537870268, "locktime": 0, "vsize": 225, "size": 225}