{"hash": "f75ff339109a255dc88799aa3bef094d77a43407027cf4269e68bfe344c944ca", "blockhash": "0000000000000000001cda96e906b7601b7a6fb1a3b62bca570a9e5d8f4b3de1", "vout": [{"scriptPubKey": {"type": "nulldata", "hex": "6a146f6d6e69000000000000001f00000040918ec9a8", "asm": "OP_RETURN 6f6d6e69000000000000001f00000040918ec9a8"}, "value": 0.0, "n": 0}, {"scriptPubKey": {"reqSigs": 1, "hex": "a914a42db732b240ff8de4e84c930387a946dadb4daf87", "addresses": ["3Gf7WP2zYvgmTRdG3Gyw5orRDP4rxABPoj"], "asm": "OP_HASH160 a42db732b240ff8de4e84c930387a946dadb4daf OP_EQUAL", "type": "scripthash"}, "value": 5.4e-06, "n": 1}, {"scriptPubKey": {"reqSigs": 1, "hex": "76a914628a073fe8ce7a239e56a9158ebd5d291a8bc0d988ac", "addresses": ["19z2aBA5FYQm9bK1Q5UW5u7bJWHbZZ4Z5E"], "asm": "OP_DUP OP_HASH160 628a073fe8ce7a239e56a9158ebd5d291a8bc0d9 OP_EQUALVERIFY OP_CHECKSIG", "type": "pubkeyhash"}, "value": 0.0399719, "n": 2}], "hex": "0100000001cd741eb804469fa4feb82379e16c48d442bb50e4c9fc52b6bb6b97d981650d83020000006a47304402205483ad7f88a55e1aa523f0ba28d67395fa5dab174c3a56d4e4ed41bb7a58fd720220758e32ab779cc954f9d317fb7d43a1049b7e7ebbc3f3303000a7cacfad383490012103e4addb7809d20e3cf85c913ea93969a52c57a5fdfcb1fedcb25002cf9b21d816feffffff030000000000000000166a146f6d6e69000000000000001f00000040918ec9a81c0200000000000017a914a42db732b240ff8de4e84c930387a946dadb4daf8706fe3c00000000001976a914628a073fe8ce7a239e56a9158ebd5d291a8bc0d988ac13490800", "vin": [{"sequence": 4294967294, "scriptSig": {"hex": "47304402205483ad7f88a55e1aa523f0ba28d67395fa5dab174c3a56d4e4ed41bb7a58fd720220758e32ab779cc954f9d317fb7d43a1049b7e7ebbc3f3303000a7cacfad383490012103e4addb7809d20e3cf85c913ea93969a52c57a5fdfcb1fedcb25002cf9b21d816", "asm": "304402205483ad7f88a55e1aa523f0ba28d67395fa5dab174c3a56d4e4ed41bb7a58fd720220758e32ab779cc954f9d317fb7d43a1049b7e7ebbc3f3303000a7cacfad383490[ALL] 03e4addb7809d20e3cf85c913ea93969a52c57a5fdfcb1fedcb25002cf9b21d816"}, "vout": 2, "txid": "830d6581d9976bbbb652fcc9e450bb42d4486ce17923b8fea49f4604b81e74cd"}], "txid": "f75ff339109a255dc88799aa3bef094d77a43407027cf4269e68bfe344c944ca", "blocktime": 1537873282, "version": 1, "confirmations": 11485, "time": 1537873282, "locktime": 542995, "vsize": 254, "size": 254}