{"hash": "1fb3eb4a1c3fdd8a3b18a47445802391643889402a55ce2a563b5923c7740c87", "blockhash": "0000000000000000001cda96e906b7601b7a6fb1a3b62bca570a9e5d8f4b3de1", "vout": [{"scriptPubKey": {"reqSigs": 1, "hex": "76a914dbff5f079bad26dd623eaec10559f7b8839ea9ef88ac", "addresses": ["1M4EuWnhpH4USWk5mvokJCLgB7PnttxT77"], "asm": "OP_DUP OP_HASH160 dbff5f079bad26dd623eaec10559f7b8839ea9ef OP_EQUALVERIFY OP_CHECKSIG", "type": "pubkeyhash"}, "value": 0.05, "n": 0}, {"scriptPubKey": {"reqSigs": 1, "hex": "a914b2e28146955a8e7d6cd477768be7879735155e7487", "addresses": ["3HzsYXnvRwre3dz7aGGCXKqwcpC9HbiQ7U"], "asm": "OP_HASH160 b2e28146955a8e7d6cd477768be7879735155e74 OP_EQUAL", "type": "scripthash"}, "value": 0.17196186, "n": 1}], "hex": "01000000000101f19bcbf12123bfea5d520a8e29b930299b84137e1acda5c26711fc26c3e03ba00100000023220020d266cefbb01171629a05d7b6bcdbea09f971e838575b748a8be4b6a5c2a9c78dffffffff02404b4c00000000001976a914dbff5f079bad26dd623eaec10559f7b8839ea9ef88ac9a6406010000000017a914b2e28146955a8e7d6cd477768be7879735155e7487040047304402204180753f55fa2d88d89e2bf18717665f3b6f70b45bdbdb370ca651bebb9de0ca022073fad3af2afcf7d788d03435c191ad9b8c404cd364c2716c6f4cc587590698e90147304402205a660885e8854ffce20e23cb60f0cd2872ae15692eec477a6a249cddc0ba8bf302201eda6c3ddff32040c15deeefdc0d96dc2a2c5ecf3069a787419d0873e9afa3ca0169522103ff3233337b46d132c8ab3a5cf98f9e048d68e3e6e726a3236b8cd4e4a9c5f29a2102ea0157dac287e66f71d277396e981944cf714887ab54f91837539bcba52875612102afe397ba92473d254ad2ec90c5e04460e847e0041b7490a9ad4674e462d4f44253ae00000000", "vin": [{"txinwitness": ["", "304402204180753f55fa2d88d89e2bf18717665f3b6f70b45bdbdb370ca651bebb9de0ca022073fad3af2afcf7d788d03435c191ad9b8c404cd364c2716c6f4cc587590698e901", "304402205a660885e8854ffce20e23cb60f0cd2872ae15692eec477a6a249cddc0ba8bf302201eda6c3ddff32040c15deeefdc0d96dc2a2c5ecf3069a787419d0873e9afa3ca01", "522103ff3233337b46d132c8ab3a5cf98f9e048d68e3e6e726a3236b8cd4e4a9c5f29a2102ea0157dac287e66f71d277396e981944cf714887ab54f91837539bcba52875612102afe397ba92473d254ad2ec90c5e04460e847e0041b7490a9ad4674e462d4f44253ae"], "sequence": 4294967295, "scriptSig": {"hex": "220020d266cefbb01171629a05d7b6bcdbea09f971e838575b748a8be4b6a5c2a9c78d", "asm": "0020d266cefbb01171629a05d7b6bcdbea09f971e838575b748a8be4b6a5c2a9c78d"}, "vout": 1, "txid": "a03be0c326fc1167c2a5cd1a7e13849b2930b9298e0a525deabf2321f1cb9bf1"}], "txid": "f766886eae863af5e395dca9306c31de5002afd9cfbb4ec7476b5afa4c4846a9", "blocktime": 1537873282, "version": 1, "confirmations": 11484, "time": 1537873282, "locktime": 0, "vsize": 216, "size": 406}