{"hash": "f76767be8b926b9e0a085cd2b86a2fa0d3bc78ed92028ef61148415b04634268", "blockhash": "0000000000000000001cda96e906b7601b7a6fb1a3b62bca570a9e5d8f4b3de1", "vout": [{"scriptPubKey": {"reqSigs": 1, "hex": "76a9146ec899c0bbdb7921092346e047a8cf4e4874ad6d88ac", "addresses": ["1B6me5MvLP7Mu1yYXB8mbEVtsRsQkeYr6X"], "asm": "OP_DUP OP_HASH160 6ec899c0bbdb7921092346e047a8cf4e4874ad6d OP_EQUALVERIFY OP_CHECKSIG", "type": "pubkeyhash"}, "value": 0.00205051, "n": 0}, {"scriptPubKey": {"type": "nulldata", "hex": "6a146f6d6e69000000000000001f000060680c58a000", "asm": "OP_RETURN 6f6d6e69000000000000001f000060680c58a000"}, "value": 0.0, "n": 1}, {"scriptPubKey": {"reqSigs": 1, "hex": "76a914a25dec4d0011064ef106a983c39c7a540699f22088ac", "addresses": ["1FoWyxwPXuj4C6abqwhjDWdz6D4PZgYRjA"], "asm": "OP_DUP OP_HASH160 a25dec4d0011064ef106a983c39c7a540699f220 OP_EQUALVERIFY OP_CHECKSIG", "type": "pubkeyhash"}, "value": 5.46e-06, "n": 2}], "hex": "010000000147bd5df4e474cda351739e9aa46598e6324456e46738900bc586b021dcedf909010000006a47304402202b776218a2f8e418e12c5518c14fd899341410af4bd9043aa0aaee8ec9c1e3a4022023ba49e8a808dc6e5e8858f6a6ed26a05633d1d286cb3b6205e3827e1a08dd0d01210384490bbaad5393ddf7e613ecca8d813315b414261596ee151afdec343514c043feffffff03fb200300000000001976a9146ec899c0bbdb7921092346e047a8cf4e4874ad6d88ac0000000000000000166a146f6d6e69000000000000001f000060680c58a00022020000000000001976a914a25dec4d0011064ef106a983c39c7a540699f22088ac0e490800", "vin": [{"sequence": 4294967294, "scriptSig": {"hex": "47304402202b776218a2f8e418e12c5518c14fd899341410af4bd9043aa0aaee8ec9c1e3a4022023ba49e8a808dc6e5e8858f6a6ed26a05633d1d286cb3b6205e3827e1a08dd0d01210384490bbaad5393ddf7e613ecca8d813315b414261596ee151afdec343514c043", "asm": "304402202b776218a2f8e418e12c5518c14fd899341410af4bd9043aa0aaee8ec9c1e3a4022023ba49e8a808dc6e5e8858f6a6ed26a05633d1d286cb3b6205e3827e1a08dd0d[ALL] 0384490bbaad5393ddf7e613ecca8d813315b414261596ee151afdec343514c043"}, "vout": 1, "txid": "09f9eddc21b086c50b903867e4564432e69865a49a9e7351a3cd74e4f45dbd47"}], "txid": "f76767be8b926b9e0a085cd2b86a2fa0d3bc78ed92028ef61148415b04634268", "blocktime": 1537873282, "version": 1, "confirmations": 11485, "time": 1537873282, "locktime": 542990, "vsize": 256, "size": 256}