{"hash": "f76ac6750edddd19bfd5672ea882b4b0ce037db1e01a7fe76d568c6348c1160f", "blockhash": "0000000000000000001e0dab787dd257d1dbfcb92a98c2207d5e1078be1f4165", "vout": [{"scriptPubKey": {"reqSigs": 1, "hex": "76a914c400ed279e0e406c2637b605a08a8d4aca34868588ac", "addresses": ["1JsNYxyqwKxvYAhFaEsMX52xgADLRsrWdh"], "asm": "OP_DUP OP_HASH160 c400ed279e0e406c2637b605a08a8d4aca348685 OP_EQUALVERIFY OP_CHECKSIG", "type": "pubkeyhash"}, "value": 0.09820545, "n": 0}, {"scriptPubKey": {"reqSigs": 1, "hex": "76a9148cd1e3beafb9d22e76b9d1dc0f10caf75ed2126c88ac", "addresses": ["1Dqb3F7USEP1Ar7SGUzSgp7efnPiYqUR2R"], "asm": "OP_DUP OP_HASH160 8cd1e3beafb9d22e76b9d1dc0f10caf75ed2126c OP_EQUALVERIFY OP_CHECKSIG", "type": "pubkeyhash"}, "value": 3e-05, "n": 1}], "hex": "0100000001406d0c5dc8d149cd9978763023dfe2425475f17216aedf0855d4ae49a15229b3000000006b483045022100f48a7dc9b718100293b76db469f7e3a680e6806028b0997d90d7de8f8c7dc40102204f12cc2852aa59cbc635cbfd104a538e8a10ab21feaefdf4422b959d5683fea30121022a50853be577b88c919bfa2a48c9494f72ab5af940a40291dc4ec1f91d779e40feffffff0281d99500000000001976a914c400ed279e0e406c2637b605a08a8d4aca34868588acb80b0000000000001976a9148cd1e3beafb9d22e76b9d1dc0f10caf75ed2126c88ac12490800", "vin": [{"sequence": 4294967294, "scriptSig": {"hex": "483045022100f48a7dc9b718100293b76db469f7e3a680e6806028b0997d90d7de8f8c7dc40102204f12cc2852aa59cbc635cbfd104a538e8a10ab21feaefdf4422b959d5683fea30121022a50853be577b88c919bfa2a48c9494f72ab5af940a40291dc4ec1f91d779e40", "asm": "3045022100f48a7dc9b718100293b76db469f7e3a680e6806028b0997d90d7de8f8c7dc40102204f12cc2852aa59cbc635cbfd104a538e8a10ab21feaefdf4422b959d5683fea3[ALL] 022a50853be577b88c919bfa2a48c9494f72ab5af940a40291dc4ec1f91d779e40"}, "vout": 0, "txid": "b32952a149aed45508dfae1672f1755442e2df2330767899cd49d1c85d0c6d40"}], "txid": "f76ac6750edddd19bfd5672ea882b4b0ce037db1e01a7fe76d568c6348c1160f", "blocktime": 1537872475, "version": 1, "confirmations": 11488, "time": 1537872475, "locktime": 542994, "vsize": 226, "size": 226}