{"hash": "31ab9c5e8f1961fd488619f1a9bc60570a9aaa3117b33e72944fcf3f9f9cf0b3", "blockhash": "0000000000000000000dcc0f55137456b1a82d3642486a52398922ac4d620174", "vout": [{"scriptPubKey": {"reqSigs": 1, "hex": "a914d9a98eba0ac4fde30bd688d8260123c547dbdf2787", "addresses": ["3MXugEYq8NH47R8iEFeuU86N8r4MQF4CEN"], "asm": "OP_HASH160 d9a98eba0ac4fde30bd688d8260123c547dbdf27 OP_EQUAL", "type": "scripthash"}, "value": 0.01061023, "n": 0}, {"scriptPubKey": {"reqSigs": 1, "hex": "76a914ee30721367f90687e61acf6e3254ec09502dad4c88ac", "addresses": ["1NiRriW4vxinDoZT4EhFs57j2jMrEmmQQx"], "asm": "OP_DUP OP_HASH160 ee30721367f90687e61acf6e3254ec09502dad4c OP_EQUALVERIFY OP_CHECKSIG", "type": "pubkeyhash"}, "value": 0.00179775, "n": 1}], "hex": "020000000001019546e41dcea1d17caea5ef2a94d5caa59d22e7a2fbbf5d9874bf53ca2349009d0000000017160014f1db6d57fcccc3b0d81fb0bd5bfa43afe1ebc762feffffff029f3010000000000017a914d9a98eba0ac4fde30bd688d8260123c547dbdf27873fbe0200000000001976a914ee30721367f90687e61acf6e3254ec09502dad4c88ac02483045022100f140f7f2e0207f5421e1cb944fcececcb0b6260b62b6c24494c5444c377b293c0220745f7b6994f511bd237ccd47cf040927f08468d8678fef3378d1ceed3ec23e8a0121039406a206c68eef3f64cd61fef7299d180a45f7f290e8e9b412894a20f7f2f6680c490800", "vin": [{"txinwitness": ["3045022100f140f7f2e0207f5421e1cb944fcececcb0b6260b62b6c24494c5444c377b293c0220745f7b6994f511bd237ccd47cf040927f08468d8678fef3378d1ceed3ec23e8a01", "039406a206c68eef3f64cd61fef7299d180a45f7f290e8e9b412894a20f7f2f668"], "sequence": 4294967294, "scriptSig": {"hex": "160014f1db6d57fcccc3b0d81fb0bd5bfa43afe1ebc762", "asm": "0014f1db6d57fcccc3b0d81fb0bd5bfa43afe1ebc762"}, "vout": 0, "txid": "9d004923ca53bf74985dbffba2e7229da5cad5942aefa5ae7cd1a1ce1de44695"}], "txid": "f76a96afe31e59584698313788a464f158302d2d2210a3d712966725f859c007", "blocktime": 1537870268, "version": 2, "confirmations": 11518, "time": 1537870268, "locktime": 542988, "vsize": 168, "size": 250}