{"hash": "b873aff2654f2e7570ad85bf067be3a3ffd0dee592eb6bf91c9c5628644e2c01", "blockhash": "0000000000000000000e13cef7c366c0283d82e591d1acd082e914b08063cdf1", "vout": [{"scriptPubKey": {"reqSigs": 1, "hex": "a914fb796dc86022b942bdb605e28072084c585bf63887", "addresses": ["3QcgziXcz5YBqDCL9M6myw4Cv9TeX16WcU"], "asm": "OP_HASH160 fb796dc86022b942bdb605e28072084c585bf638 OP_EQUAL", "type": "scripthash"}, "value": 0.00453121, "n": 0}], "hex": "01000000000101ece8ccab63ba7b8b814bea9f97345f43cd07cb45642989c5f120719d37f915a90100000017160014ac89596b2914de4f6ed2ff298fec2763c2d96655ffffffff0101ea06000000000017a914fb796dc86022b942bdb605e28072084c585bf638870247304402202d66ddc2b575d9f08c88418ddbca3697dfc2d502cf18f963e877c504161b9965022072c0d5bc38cd49bcda9a751a0c657006a7a5b2585650a83c269bde7dfe0108a7012102ac408ae4d7b181581b9dbf0be61a60f8fe083d9f0932b80b2d2aa800a62e00bf00000000", "vin": [{"txinwitness": ["304402202d66ddc2b575d9f08c88418ddbca3697dfc2d502cf18f963e877c504161b9965022072c0d5bc38cd49bcda9a751a0c657006a7a5b2585650a83c269bde7dfe0108a701", "02ac408ae4d7b181581b9dbf0be61a60f8fe083d9f0932b80b2d2aa800a62e00bf"], "sequence": 4294967295, "scriptSig": {"hex": "160014ac89596b2914de4f6ed2ff298fec2763c2d96655", "asm": "0014ac89596b2914de4f6ed2ff298fec2763c2d96655"}, "vout": 1, "txid": "a915f9379d7120f1c589296445cb07cd435f34979fea4b818b7bba63abcce8ec"}], "txid": "f77061e0d81323ff7c6cefa1e0cf2ffdf428c771b78e080114e7cffba1a8e3a4", "blocktime": 1537871767, "version": 1, "confirmations": 11495, "time": 1537871767, "locktime": 0, "vsize": 134, "size": 215}