{"hash": "f771db22405b85bb6d4a066f015b1ec6735e96d43a8d9d8094f82924798d5266", "blockhash": "0000000000000000000e13cef7c366c0283d82e591d1acd082e914b08063cdf1", "vout": [{"scriptPubKey": {"reqSigs": 1, "hex": "76a914a1995d95d30bbd1166a3108d798a06f4f26e713f88ac", "addresses": ["1FjTWur3sY9JQgS6DyxoZF6RFWPGK6nUuC"], "asm": "OP_DUP OP_HASH160 a1995d95d30bbd1166a3108d798a06f4f26e713f OP_EQUALVERIFY OP_CHECKSIG", "type": "pubkeyhash"}, "value": 0.00139941, "n": 0}, {"scriptPubKey": {"reqSigs": 1, "hex": "76a9146c0f2347b234ceb66966b7b83cc126af4ba9e7fb88ac", "addresses": ["1ArN7WfCKXCk2WkrHJZ5yheQSvsEWuk5nP"], "asm": "OP_DUP OP_HASH160 6c0f2347b234ceb66966b7b83cc126af4ba9e7fb OP_EQUALVERIFY OP_CHECKSIG", "type": "pubkeyhash"}, "value": 0.00182003, "n": 1}], "hex": "0100000001be9aa8c224fbd0abbce3816cb970bb8a54c11a09d2977e489d820cd3c156bd04000000006a47304402202f6c88407461d120f03a3d586f9937a99781723cfeb74ef7a450cb8e0ad5debe0220559b4d0434beaea6a33c6156314bf56876f5668056b726023c2100c6e69f41b80121033816492102aaef75e7b065f9740b72b9a1c705067394c8bde2c7bed68b7059b4ffffffff02a5220200000000001976a914a1995d95d30bbd1166a3108d798a06f4f26e713f88acf3c60200000000001976a9146c0f2347b234ceb66966b7b83cc126af4ba9e7fb88ac00000000", "vin": [{"sequence": 4294967295, "scriptSig": {"hex": "47304402202f6c88407461d120f03a3d586f9937a99781723cfeb74ef7a450cb8e0ad5debe0220559b4d0434beaea6a33c6156314bf56876f5668056b726023c2100c6e69f41b80121033816492102aaef75e7b065f9740b72b9a1c705067394c8bde2c7bed68b7059b4", "asm": "304402202f6c88407461d120f03a3d586f9937a99781723cfeb74ef7a450cb8e0ad5debe0220559b4d0434beaea6a33c6156314bf56876f5668056b726023c2100c6e69f41b8[ALL] 033816492102aaef75e7b065f9740b72b9a1c705067394c8bde2c7bed68b7059b4"}, "vout": 0, "txid": "04bd56c1d30c829d487e97d2091ac1548abb70b96c81e3bcabd0fb24c2a89abe"}], "txid": "f771db22405b85bb6d4a066f015b1ec6735e96d43a8d9d8094f82924798d5266", "blocktime": 1537871767, "version": 1, "confirmations": 11493, "time": 1537871767, "locktime": 0, "vsize": 225, "size": 225}