{"hash": "f7735ed90746cdd62dc9c3893ab361b480cb9b94440e3b5034559e183be72bf6", "blockhash": "00000000000000000017f5eb5941039fbcee6240d03bc1f2f8e35350df66a1d8", "vout": [{"scriptPubKey": {"reqSigs": 1, "hex": "a91410d4125c56562f9537c5b77726e089e6ca1b9ad287", "addresses": ["33DzncbfU7RcCLjoL6tuGDzWf1Zk9oK9o8"], "asm": "OP_HASH160 10d4125c56562f9537c5b77726e089e6ca1b9ad2 OP_EQUAL", "type": "scripthash"}, "value": 0.001, "n": 0}, {"scriptPubKey": {"reqSigs": 1, "hex": "76a9148b15e5c97ca2a5e6f42b51d48a327af4a37d012488ac", "addresses": ["1DgRA8w1e5eHAiFcQcoZAT35TotMpLrUem"], "asm": "OP_DUP OP_HASH160 8b15e5c97ca2a5e6f42b51d48a327af4a37d0124 OP_EQUALVERIFY OP_CHECKSIG", "type": "pubkeyhash"}, "value": 0.00543343, "n": 1}], "hex": "01000000014d18708972d0b77e44561459d8a3baca7722e479b5892358846444ae1d045428010000006a4730440220415c870eea96db1779eb9c8c23e52384b7959c9e52bc3ae44d3d6006302c0ea602201587b738810ba6193c350ce237d111971f2f4c97ce9bfce45ff0255ded4a334701210306026c3b601f2e7d8db67cf834f6e22ddf003e2afca5604bcbbbd4b904b4fdb4ffffffff02a08601000000000017a91410d4125c56562f9537c5b77726e089e6ca1b9ad2876f4a0800000000001976a9148b15e5c97ca2a5e6f42b51d48a327af4a37d012488ac00000000", "vin": [{"sequence": 4294967295, "scriptSig": {"hex": "4730440220415c870eea96db1779eb9c8c23e52384b7959c9e52bc3ae44d3d6006302c0ea602201587b738810ba6193c350ce237d111971f2f4c97ce9bfce45ff0255ded4a334701210306026c3b601f2e7d8db67cf834f6e22ddf003e2afca5604bcbbbd4b904b4fdb4", "asm": "30440220415c870eea96db1779eb9c8c23e52384b7959c9e52bc3ae44d3d6006302c0ea602201587b738810ba6193c350ce237d111971f2f4c97ce9bfce45ff0255ded4a3347[ALL] 0306026c3b601f2e7d8db67cf834f6e22ddf003e2afca5604bcbbbd4b904b4fdb4"}, "vout": 1, "txid": "2854041dae446484582389b579e42277cabaa3d8591456447eb7d0728970184d"}], "txid": "f7735ed90746cdd62dc9c3893ab361b480cb9b94440e3b5034559e183be72bf6", "blocktime": 1537874412, "version": 1, "confirmations": 11466, "time": 1537874412, "locktime": 0, "vsize": 223, "size": 223}