{"hash": "a995520fc71c647c801c9c61d1c78dbb0239f860c6a8e0ce7afccd48325c6b30", "blockhash": "0000000000000000001cda96e906b7601b7a6fb1a3b62bca570a9e5d8f4b3de1", "vout": [{"scriptPubKey": {"reqSigs": 1, "hex": "a91483c3d97c2905816a479fd02be28c68b90f69eae687", "addresses": ["3Dhj4YD5QpgzQfn5s8uhWoc25Pv9Hvwhto"], "asm": "OP_HASH160 83c3d97c2905816a479fd02be28c68b90f69eae6 OP_EQUAL", "type": "scripthash"}, "value": 0.02149814, "n": 0}, {"scriptPubKey": {"reqSigs": 1, "hex": "a9148c9703cf47471f7d2733c6de56dc6bdfc98661a987", "addresses": ["3EWPS6dhcEckbk9TQjFWsYq7v1dHE3FCVV"], "asm": "OP_HASH160 8c9703cf47471f7d2733c6de56dc6bdfc98661a9 OP_EQUAL", "type": "scripthash"}, "value": 0.1, "n": 1}], "hex": "020000000001014af13f7a0fa30ffcda299791863d31aae862a3ce46b7f71b787c304a7b08a4280700000017160014bf34aa522ab2afb4973161b48d69474a120d33e8feffffff02b6cd20000000000017a91483c3d97c2905816a479fd02be28c68b90f69eae687809698000000000017a9148c9703cf47471f7d2733c6de56dc6bdfc98661a987024830450221008d10b446c2da92c825c0bf5d77012bfd84157bb329a88f5b262d7aa88290bdc602204ce2587392ad12218c88ad84d1b531f5fcaf950a5ac1236214237096cf28cfbc012103717887a8dd9d21cbc545c0689e36baf494898de718a89fc2457749d34a0cbc4b13490800", "vin": [{"txinwitness": ["30450221008d10b446c2da92c825c0bf5d77012bfd84157bb329a88f5b262d7aa88290bdc602204ce2587392ad12218c88ad84d1b531f5fcaf950a5ac1236214237096cf28cfbc01", "03717887a8dd9d21cbc545c0689e36baf494898de718a89fc2457749d34a0cbc4b"], "sequence": 4294967294, "scriptSig": {"hex": "160014bf34aa522ab2afb4973161b48d69474a120d33e8", "asm": "0014bf34aa522ab2afb4973161b48d69474a120d33e8"}, "vout": 7, "txid": "28a4087b4a307c781bf7b746cea362e8aa313d86919729dafc0fa30f7a3ff14a"}], "txid": "f77856e7b5d459ad46d8647f6be298cccf78470ca6709bf79816d346b1dd1f47", "blocktime": 1537873282, "version": 2, "confirmations": 11485, "time": 1537873282, "locktime": 542995, "vsize": 166, "size": 248}