{"hash": "f7785813bbd2fcc304e4da2d2fd2d606c2f97c93aa24eaac07beb3c47c5dd40b", "blockhash": "0000000000000000000dcc0f55137456b1a82d3642486a52398922ac4d620174", "vout": [{"scriptPubKey": {"reqSigs": 1, "hex": "76a914093387e2c147c8cd7e28e7482f61c080b2d0fa8788ac", "addresses": ["1qep9fssPq7rqH1EATybxrg29oALforvE"], "asm": "OP_DUP OP_HASH160 093387e2c147c8cd7e28e7482f61c080b2d0fa87 OP_EQUALVERIFY OP_CHECKSIG", "type": "pubkeyhash"}, "value": 0.01371464, "n": 0}, {"scriptPubKey": {"reqSigs": 1, "hex": "76a914bc863fc668b84f37ba921692ff9234e3000e74d888ac", "addresses": ["1JBprrgZrA9psCsENLKw5BYzCfVNvyg2wZ"], "asm": "OP_DUP OP_HASH160 bc863fc668b84f37ba921692ff9234e3000e74d8 OP_EQUALVERIFY OP_CHECKSIG", "type": "pubkeyhash"}, "value": 0.07792, "n": 1}], "hex": "010000000115dee68751d6ab0feef11ed611b7eab180d0299444008c192377fe332b19f867070000006b483045022100c7750ebdcf6bbb5193ada9fc6464772b12fc4b76c44af746d2eb385d4676eefd02201a2cb5b0f4f10062edf8fbbd8ef8149e7766b88e494318761744801bbe85fc7001210363eace14182ef6b03a3ff90a1eae5570e77842def96c78d471eb3f2c17a1b918ffffffff0248ed1400000000001976a914093387e2c147c8cd7e28e7482f61c080b2d0fa8788ac80e57600000000001976a914bc863fc668b84f37ba921692ff9234e3000e74d888ac00000000", "vin": [{"sequence": 4294967295, "scriptSig": {"hex": "483045022100c7750ebdcf6bbb5193ada9fc6464772b12fc4b76c44af746d2eb385d4676eefd02201a2cb5b0f4f10062edf8fbbd8ef8149e7766b88e494318761744801bbe85fc7001210363eace14182ef6b03a3ff90a1eae5570e77842def96c78d471eb3f2c17a1b918", "asm": "3045022100c7750ebdcf6bbb5193ada9fc6464772b12fc4b76c44af746d2eb385d4676eefd02201a2cb5b0f4f10062edf8fbbd8ef8149e7766b88e494318761744801bbe85fc70[ALL] 0363eace14182ef6b03a3ff90a1eae5570e77842def96c78d471eb3f2c17a1b918"}, "vout": 7, "txid": "67f8192b33fe7723198c00449429d080b1eab711d61ef1ee0fabd65187e6de15"}], "txid": "f7785813bbd2fcc304e4da2d2fd2d606c2f97c93aa24eaac07beb3c47c5dd40b", "blocktime": 1537870268, "version": 1, "confirmations": 11518, "time": 1537870268, "locktime": 0, "vsize": 226, "size": 226}