{"hash": "03b465e7a3cad1c91e8ce83d0291d4c1a14fe79bb4870a23e82785d859522f0a", "blockhash": "0000000000000000001e0dab787dd257d1dbfcb92a98c2207d5e1078be1f4165", "vout": [{"scriptPubKey": {"reqSigs": 1, "hex": "a9146b286fc400ba4eafaaad6b87bf936768a622e6a287", "addresses": ["3BTcfep8DrkS7iEUvE7WvTPpARytWB4QPb"], "asm": "OP_HASH160 6b286fc400ba4eafaaad6b87bf936768a622e6a2 OP_EQUAL", "type": "scripthash"}, "value": 0.15, "n": 0}, {"scriptPubKey": {"reqSigs": 1, "hex": "a9144b1bb67985bc55a55211bdc1076f6fc46f38f07187", "addresses": ["38Y9oT2bCgAvpGxhJLQ7wTLRYxcHpvb5oS"], "asm": "OP_HASH160 4b1bb67985bc55a55211bdc1076f6fc46f38f071 OP_EQUAL", "type": "scripthash"}, "value": 0.11152334, "n": 1}], "hex": "01000000000103c66a2c2fb8372212c1b7a2176353493adadac090843691f66ab67d8d93a4232701000000171600147f51fa65e0f827dedefc565eca5b485327c2fc44ffffff0079b030d80962a68e0f0d6947492ec81080d1edf39a79c2d8f1793da85adcc717010000001716001477a6f7b7d899ca36c290e39dee514e390a18f4fbffffff00158bbd12d73a47bc32a2469e9271cf332c4a955b92b5cab111fe6999986108c700000000171600147f51fa65e0f827dedefc565eca5b485327c2fc44ffffff0002c0e1e4000000000017a9146b286fc400ba4eafaaad6b87bf936768a622e6a287ce2baa000000000017a9144b1bb67985bc55a55211bdc1076f6fc46f38f0718702473044022021b073c44ca0ede775f3ee6cc63260c10f7933153e03a7f9e5f185a907b8e74702207873e4d4c7e0dd542b25e9409973b5e58f801737bae99025aa5aa62dc6f6c75201210204912fffa8fdd14133e099ba5958f08b2c42457206a669fe1bf9e9d84537f4cb0247304402201cb3d30b21779085393e2c35c7b0258333c205aeaac4be2db51c1a470ead3980022012b0b6bf9f52ce0958726491fac4a92ac84bc943db1dfb17c69160cd0ccc5465012102db8bfb78df5364d807ca61dfb42e37fc379fda1d72e09c416b8169c5d22be21902483045022100e4d47046f53a71bf039c8b46bf003fc43b7a76288d221ae3f1985e6690243675022036233994fde1677a8fa35a16fe53a442398dfc5c52fba67480282369dea80f9801210204912fffa8fdd14133e099ba5958f08b2c42457206a669fe1bf9e9d84537f4cb00000000", "vin": [{"txinwitness": ["3044022021b073c44ca0ede775f3ee6cc63260c10f7933153e03a7f9e5f185a907b8e74702207873e4d4c7e0dd542b25e9409973b5e58f801737bae99025aa5aa62dc6f6c75201", "0204912fffa8fdd14133e099ba5958f08b2c42457206a669fe1bf9e9d84537f4cb"], "sequence": 16777215, "scriptSig": {"hex": "1600147f51fa65e0f827dedefc565eca5b485327c2fc44", "asm": "00147f51fa65e0f827dedefc565eca5b485327c2fc44"}, "vout": 1, "txid": "2723a4938d7db66af691368490c0dada3a49536317a2b7c1122237b82f2c6ac6"}, {"txinwitness": ["304402201cb3d30b21779085393e2c35c7b0258333c205aeaac4be2db51c1a470ead3980022012b0b6bf9f52ce0958726491fac4a92ac84bc943db1dfb17c69160cd0ccc546501", "02db8bfb78df5364d807ca61dfb42e37fc379fda1d72e09c416b8169c5d22be219"], "sequence": 16777215, "scriptSig": {"hex": "16001477a6f7b7d899ca36c290e39dee514e390a18f4fb", "asm": "001477a6f7b7d899ca36c290e39dee514e390a18f4fb"}, "vout": 1, "txid": "17c7dc5aa83d79f1d8c2799af3edd18010c82e4947690d0f8ea66209d830b079"}, {"txinwitness": ["3045022100e4d47046f53a71bf039c8b46bf003fc43b7a76288d221ae3f1985e6690243675022036233994fde1677a8fa35a16fe53a442398dfc5c52fba67480282369dea80f9801", "0204912fffa8fdd14133e099ba5958f08b2c42457206a669fe1bf9e9d84537f4cb"], "sequence": 16777215, "scriptSig": {"hex": "1600147f51fa65e0f827dedefc565eca5b485327c2fc44", "asm": "00147f51fa65e0f827dedefc565eca5b485327c2fc44"}, "vout": 0, "txid": "c70861989969fe11b1cab5925b954a2c33cf71929e46a232bc473ad712bd8b15"}], "txid": "f77c2741a3c999da6d5ba48bf267a85ce618f6d6dab8209dbb455c10fb62e79b", "blocktime": 1537872475, "version": 1, "confirmations": 11486, "time": 1537872475, "locktime": 0, "vsize": 347, "size": 590}