{"hash": "f77c46eb5fcefd7d63f9c485441075d27aa42d81413d374d692b5e7fcd04a908", "blockhash": "0000000000000000000dcc0f55137456b1a82d3642486a52398922ac4d620174", "vout": [{"scriptPubKey": {"reqSigs": 1, "hex": "a9142c1a395f3776a0d44b81302b7194db1736aee71587", "addresses": ["35iD54rnEYg543KV9N8x2DEdD9gRu4kMQ6"], "asm": "OP_HASH160 2c1a395f3776a0d44b81302b7194db1736aee715 OP_EQUAL", "type": "scripthash"}, "value": 0.0074556, "n": 0}, {"scriptPubKey": {"reqSigs": 1, "hex": "a91423bf77b633c4978a4d81f49a77d4580ce3f1440e87", "addresses": ["34x2wfKikb3oC18AtuVS9nx68iaZ2UpKqY"], "asm": "OP_HASH160 23bf77b633c4978a4d81f49a77d4580ce3f1440e OP_EQUAL", "type": "scripthash"}, "value": 0.01120364, "n": 1}], "hex": "01000000010ad648a708323904dd0a23058323f93903bbc983f450ab28fb0f1693d95cbcaa01000000fc00473044022000c3b4b16bc36b938a6d46dcd9085a78e7ea8f5f0705553a7cfa4b089e03ae800220373c8d8887d478cd7dccae7b07e94192159da4e14ddc287af37f5585953f5d6d01473044022039322022a27eb516e40477bcfc5e241161d4898c5f716d647b6d5473c4aea7f002201c7de6c5709fba628863ecf02e4b6ec348deceda9ade45e42b41bca59a21a649014c6952210274b17cfe93b5167672c8849323a1b2327bb56e43286f0a01fb7d9eecab5808752103032b39aad8fa58a23f0f3990cc0c38f77a743e5d4297f78cf337db30cd500e43210387b48124f2069b48e96eae77b68b9819915ae4eb70feae9f61f7a5e58df5dcf253aefdffffff0258600b000000000017a9142c1a395f3776a0d44b81302b7194db1736aee715876c1811000000000017a91423bf77b633c4978a4d81f49a77d4580ce3f1440e870c490800", "vin": [{"sequence": 4294967293, "scriptSig": {"hex": "00473044022000c3b4b16bc36b938a6d46dcd9085a78e7ea8f5f0705553a7cfa4b089e03ae800220373c8d8887d478cd7dccae7b07e94192159da4e14ddc287af37f5585953f5d6d01473044022039322022a27eb516e40477bcfc5e241161d4898c5f716d647b6d5473c4aea7f002201c7de6c5709fba628863ecf02e4b6ec348deceda9ade45e42b41bca59a21a649014c6952210274b17cfe93b5167672c8849323a1b2327bb56e43286f0a01fb7d9eecab5808752103032b39aad8fa58a23f0f3990cc0c38f77a743e5d4297f78cf337db30cd500e43210387b48124f2069b48e96eae77b68b9819915ae4eb70feae9f61f7a5e58df5dcf253ae", "asm": "0 3044022000c3b4b16bc36b938a6d46dcd9085a78e7ea8f5f0705553a7cfa4b089e03ae800220373c8d8887d478cd7dccae7b07e94192159da4e14ddc287af37f5585953f5d6d[ALL] 3044022039322022a27eb516e40477bcfc5e241161d4898c5f716d647b6d5473c4aea7f002201c7de6c5709fba628863ecf02e4b6ec348deceda9ade45e42b41bca59a21a649[ALL] 52210274b17cfe93b5167672c8849323a1b2327bb56e43286f0a01fb7d9eecab5808752103032b39aad8fa58a23f0f3990cc0c38f77a743e5d4297f78cf337db30cd500e43210387b48124f2069b48e96eae77b68b9819915ae4eb70feae9f61f7a5e58df5dcf253ae"}, "vout": 1, "txid": "aabc5cd993160ffb28ab50f483c9bb0339f9238305230add04393208a748d60a"}], "txid": "f77c46eb5fcefd7d63f9c485441075d27aa42d81413d374d692b5e7fcd04a908", "blocktime": 1537870268, "version": 1, "confirmations": 11518, "time": 1537870268, "locktime": 542988, "vsize": 367, "size": 367}