{"hash": "f78070004a858e0446329cdf748843da19cbeb4dfcb046b63ebfdd3390ba730b", "blockhash": "0000000000000000000baef3f32e3676a92c3b2e5da21b426e4f302fc371ce76", "vout": [{"scriptPubKey": {"type": "nulldata", "hex": "6a146f6d6e69000000000000001f00000016f930b780", "asm": "OP_RETURN 6f6d6e69000000000000001f00000016f930b780"}, "value": 0.0, "n": 0}, {"scriptPubKey": {"reqSigs": 1, "hex": "76a914d9b373f740f91cda19892a3e29aaca216edc133788ac", "addresses": ["1Lr6cEuADi3BYTxhVsRu8W5EsBXnFckG8E"], "asm": "OP_DUP OP_HASH160 d9b373f740f91cda19892a3e29aaca216edc1337 OP_EQUALVERIFY OP_CHECKSIG", "type": "pubkeyhash"}, "value": 5.46e-06, "n": 1}, {"scriptPubKey": {"reqSigs": 1, "hex": "76a914a25dec4d0011064ef106a983c39c7a540699f22088ac", "addresses": ["1FoWyxwPXuj4C6abqwhjDWdz6D4PZgYRjA"], "asm": "OP_DUP OP_HASH160 a25dec4d0011064ef106a983c39c7a540699f220 OP_EQUALVERIFY OP_CHECKSIG", "type": "pubkeyhash"}, "value": 0.01990376, "n": 2}], "hex": "01000000010a7e7589c8fb3a0f40425c9c8c74646892c83f1c86be79b1b895b47f10e853d9000000006a47304402200d5621a862953cdac636ddcde768cbd842eae8c1b7582b034fe3ec59f82c2b4d022026d86b493db55ab784b137902ac90b2e43142c3dedf26164222b81183d90186c012103da5bac7b36d5aa38f531c6b9601e21bb598a4b6716ebed38b009a55dabde9440feffffff030000000000000000166a146f6d6e69000000000000001f00000016f930b78022020000000000001976a914d9b373f740f91cda19892a3e29aaca216edc133788ace85e1e00000000001976a914a25dec4d0011064ef106a983c39c7a540699f22088ac17490800", "vin": [{"sequence": 4294967294, "scriptSig": {"hex": "47304402200d5621a862953cdac636ddcde768cbd842eae8c1b7582b034fe3ec59f82c2b4d022026d86b493db55ab784b137902ac90b2e43142c3dedf26164222b81183d90186c012103da5bac7b36d5aa38f531c6b9601e21bb598a4b6716ebed38b009a55dabde9440", "asm": "304402200d5621a862953cdac636ddcde768cbd842eae8c1b7582b034fe3ec59f82c2b4d022026d86b493db55ab784b137902ac90b2e43142c3dedf26164222b81183d90186c[ALL] 03da5bac7b36d5aa38f531c6b9601e21bb598a4b6716ebed38b009a55dabde9440"}, "vout": 0, "txid": "d953e8107fb495b8b179be861c3fc8926864748c9c5c42400f3afbc889757e0a"}], "txid": "f78070004a858e0446329cdf748843da19cbeb4dfcb046b63ebfdd3390ba730b", "blocktime": 1537876114, "version": 1, "confirmations": 11459, "time": 1537876114, "locktime": 542999, "vsize": 256, "size": 256}