{"hash": "f78059c5b96ef8334881dd2286814bf070a3e0a678122a2887baa61497f87813", "blockhash": "00000000000000000017f5eb5941039fbcee6240d03bc1f2f8e35350df66a1d8", "vout": [{"scriptPubKey": {"reqSigs": 1, "hex": "76a914f1077b75c37f8d249a7eeba696537d2d56ad35aa88ac", "addresses": ["1NySp7GXiihaCoUcgpRq5kzaLb9T7J7iMo"], "asm": "OP_DUP OP_HASH160 f1077b75c37f8d249a7eeba696537d2d56ad35aa OP_EQUALVERIFY OP_CHECKSIG", "type": "pubkeyhash"}, "value": 0.0079713, "n": 0}, {"scriptPubKey": {"reqSigs": 1, "hex": "76a914b988d7d1a558a00c3882f85d34cae402e7b398e488ac", "addresses": ["1Hv1wWaNecpZSjB5PoQGssaQX29SZ7phjN"], "asm": "OP_DUP OP_HASH160 b988d7d1a558a00c3882f85d34cae402e7b398e4 OP_EQUALVERIFY OP_CHECKSIG", "type": "pubkeyhash"}, "value": 0.1757315, "n": 1}], "hex": "01000000011f645cf41695938e275d6bf4374611902ae4d95f2fd300a5367b4f644092a0fa010000006a4730440220303fa7ab5090356e93373bd1143c5b2c2fd8dcdb1eab6bdd1299fc493f29df8202207940f291d54c94510eee3daa41e65f0a818fe6b452f6869d97713db4a208cd500121038a2b087e4d0fbe0cbaf7570f3490740f8e10f8fbdd45e4cdd236d3f744c64580ffffffff02ca290c00000000001976a914f1077b75c37f8d249a7eeba696537d2d56ad35aa88ac1e250c01000000001976a914b988d7d1a558a00c3882f85d34cae402e7b398e488ac00000000", "vin": [{"sequence": 4294967295, "scriptSig": {"hex": "4730440220303fa7ab5090356e93373bd1143c5b2c2fd8dcdb1eab6bdd1299fc493f29df8202207940f291d54c94510eee3daa41e65f0a818fe6b452f6869d97713db4a208cd500121038a2b087e4d0fbe0cbaf7570f3490740f8e10f8fbdd45e4cdd236d3f744c64580", "asm": "30440220303fa7ab5090356e93373bd1143c5b2c2fd8dcdb1eab6bdd1299fc493f29df8202207940f291d54c94510eee3daa41e65f0a818fe6b452f6869d97713db4a208cd50[ALL] 038a2b087e4d0fbe0cbaf7570f3490740f8e10f8fbdd45e4cdd236d3f744c64580"}, "vout": 1, "txid": "faa09240644f7b36a500d32f5fd9e42a90114637f46b5d278e939516f45c641f"}], "txid": "f78059c5b96ef8334881dd2286814bf070a3e0a678122a2887baa61497f87813", "blocktime": 1537874412, "version": 1, "confirmations": 11467, "time": 1537874412, "locktime": 0, "vsize": 225, "size": 225}