{"hash": "cc788a51ebade063aa759568b31b9fd54da282361c7ee62a743cf2b0c2023ecf", "blockhash": "0000000000000000001f76057863aec43deb6fa401d9628bb513d65a8098bfab", "vout": [{"scriptPubKey": {"reqSigs": 1, "hex": "a9146c92337ed82ec35debb19328dd23f80a88213b2187", "addresses": ["3Bb63Vhrv9jpz5NYHdMEvUMDTiZHeVEHiB"], "asm": "OP_HASH160 6c92337ed82ec35debb19328dd23f80a88213b21 OP_EQUAL", "type": "scripthash"}, "value": 0.01030068, "n": 0}, {"scriptPubKey": {"type": "nulldata", "hex": "6a205fa0503a68c69c411170f7747db835a5089f2c1b18d629c3f0d1b76b05cb6ce1", "asm": "OP_RETURN 5fa0503a68c69c411170f7747db835a5089f2c1b18d629c3f0d1b76b05cb6ce1"}, "value": 0.0, "n": 1}], "hex": "0100000000010177798823a76192cd0c39213cd5d95a932ccda6308d3c9692f59272e51c75f4c00000000017160014ea78b2222b6835d4debd8f6abaf641522b44d8c4fdffffff02b4b70f000000000017a9146c92337ed82ec35debb19328dd23f80a88213b21870000000000000000226a205fa0503a68c69c411170f7747db835a5089f2c1b18d629c3f0d1b76b05cb6ce10247304402202b02d7a064a3c70246a22ce81caf9a6ac03dbe56d0ad75efcb94733aeaec3ddb0220756a66d65512815a0acf74a73ebdb8773e31baa40b447b8a148a58a7dcb0abd8012103e7e9c92c27630d50ace94a523c764398d532f51b88ae4f31109a9bd8806600df14490800", "vin": [{"txinwitness": ["304402202b02d7a064a3c70246a22ce81caf9a6ac03dbe56d0ad75efcb94733aeaec3ddb0220756a66d65512815a0acf74a73ebdb8773e31baa40b447b8a148a58a7dcb0abd801", "03e7e9c92c27630d50ace94a523c764398d532f51b88ae4f31109a9bd8806600df"], "sequence": 4294967293, "scriptSig": {"hex": "160014ea78b2222b6835d4debd8f6abaf641522b44d8c4", "asm": "0014ea78b2222b6835d4debd8f6abaf641522b44d8c4"}, "vout": 0, "txid": "c0f4751ce57292f592963c8d30a6cd2c935ad9d53c21390ccd9261a723887977"}], "txid": "f795c5e52ab32d39d1334456df0ca1062a8b79ce07f67645ab8a24d9021728fa", "blocktime": 1537873891, "version": 1, "confirmations": 11479, "time": 1537873891, "locktime": 542996, "vsize": 177, "size": 258}