{"hash": "f796918b68478e922dff9389c276c2d7a0956062a4ce36b1460ce6bf61627a04", "blockhash": "00000000000000000018f53835495a110e01622372bf6ae95dc86f2b0ab887b0", "vout": [{"scriptPubKey": {"reqSigs": 1, "hex": "76a914c33b80ca8a15e4c57fffd1470c9a2e079c5a2a2a88ac", "addresses": ["1JoJ3kjvo4a2BeP9mbLDHninB2BMcdB13m"], "asm": "OP_DUP OP_HASH160 c33b80ca8a15e4c57fffd1470c9a2e079c5a2a2a OP_EQUALVERIFY OP_CHECKSIG", "type": "pubkeyhash"}, "value": 0.010597, "n": 0}, {"scriptPubKey": {"reqSigs": 1, "hex": "76a914dfbb5ff576a23186b59206dfc931ea81575aa32c88ac", "addresses": ["1MPz9ozgrtZsP6GAvx9ZQt2VPEnD2c4j95"], "asm": "OP_DUP OP_HASH160 dfbb5ff576a23186b59206dfc931ea81575aa32c OP_EQUALVERIFY OP_CHECKSIG", "type": "pubkeyhash"}, "value": 0.0003095, "n": 1}], "hex": "0100000001adcf9d25d5305ba020d526c9e88e87aa2775cf4f346c297553925628a6cbd3d4010000006b483045022100a8b73e7c4b3026e068942f69f48f037bbb8f2fe291aa58f65f0b2fbcdeafcb41022033d3f199bc804a996910edf4d3d6501af763aee24c8deca36272b51233abb2e1012102601f771d01884c2ce735127f8cc91a1d9756ea725d73e0e5795e6eb62c48907dffffffff02742b1000000000001976a914c33b80ca8a15e4c57fffd1470c9a2e079c5a2a2a88ace6780000000000001976a914dfbb5ff576a23186b59206dfc931ea81575aa32c88ac00000000", "vin": [{"sequence": 4294967295, "scriptSig": {"hex": "483045022100a8b73e7c4b3026e068942f69f48f037bbb8f2fe291aa58f65f0b2fbcdeafcb41022033d3f199bc804a996910edf4d3d6501af763aee24c8deca36272b51233abb2e1012102601f771d01884c2ce735127f8cc91a1d9756ea725d73e0e5795e6eb62c48907d", "asm": "3045022100a8b73e7c4b3026e068942f69f48f037bbb8f2fe291aa58f65f0b2fbcdeafcb41022033d3f199bc804a996910edf4d3d6501af763aee24c8deca36272b51233abb2e1[ALL] 02601f771d01884c2ce735127f8cc91a1d9756ea725d73e0e5795e6eb62c48907d"}, "vout": 1, "txid": "d4d3cba62856925375296c344fcf7527aa878ee8c926d520a05b30d5259dcfad"}], "txid": "f796918b68478e922dff9389c276c2d7a0956062a4ce36b1460ce6bf61627a04", "blocktime": 1537870928, "version": 1, "confirmations": 11514, "time": 1537870928, "locktime": 0, "vsize": 226, "size": 226}