{"hash": "f7983f027a3c1039d8613f72d00a55ec2b0e8ea95493a1da5e2335047802a802", "blockhash": "00000000000000000017f5eb5941039fbcee6240d03bc1f2f8e35350df66a1d8", "vout": [{"scriptPubKey": {"reqSigs": 1, "hex": "76a9144fe498dcc6714db4721b5a8b2f261a4feb8790b488ac", "addresses": ["18HSEMvxHvHz1afh8TYkCqxKQyYd5nJJf5"], "asm": "OP_DUP OP_HASH160 4fe498dcc6714db4721b5a8b2f261a4feb8790b4 OP_EQUALVERIFY OP_CHECKSIG", "type": "pubkeyhash"}, "value": 0.00561432, "n": 0}], "hex": "01000000046828cff05a80a475efe3a191e6c4166dd3bd0f4807e1c2c3683d1423b5a6f1a9390600006b4830450221008b6d04fb77fdbb60063a308267150d6c7d6c0d4602c891fbc0c9a8696676baab02207aa660badea54d70aaca75155e4857d06daca90f531f8f4253b8fe52c749d10901210322046066b4b4ed673d66e6915953463d64402d601432ccabdfab95b265652e11ffffffff77214b8a17dfcb621cc37dade3ac30f885668181bcab4cfd1baa228eba78c2d4ba0400006b483045022100b9b595316976244887c3925b00a3117fdf96604981284dc13476821314d772b302203656a293aa94acf7abd7b39b681ac678b87115ae21b6d70692c4858b18e7050f01210322046066b4b4ed673d66e6915953463d64402d601432ccabdfab95b265652e11ffffffff6217e4e770c6ae3190123d1a3a51f11fb98f15aefa0867c47f0f0d8a3ddc1be5000000006b483045022100f634363c8aacb2f66a170e47729e7d130d44546cefcac9424792c4e76dd3c3f3022023641bdbdaee0d0a4c443824de234099d6c91e93c2fb986e74c3afb4e7d2a1a2012102912dde89453cfdfc91c43e5bd9be9fe9d413a7ae3edcd496abac45ab7564db18ffffffff6217e4e770c6ae3190123d1a3a51f11fb98f15aefa0867c47f0f0d8a3ddc1be5010000006a47304402204a963ed523cf2fcdc1441659cbaed44601ddefe7113fdf2de012a70c677cfe3f02207e0bc7a6926ff7c38810cbdac1f9107ce5b4bf19137e02fe729cc7bd171f2729012102b2061ad2a7aa388a5c26b04e26c60a9fb93a90d8549ffd2eaf898e8ca4383927ffffffff0118910800000000001976a9144fe498dcc6714db4721b5a8b2f261a4feb8790b488ac00000000", "vin": [{"sequence": 4294967295, "scriptSig": {"hex": "4830450221008b6d04fb77fdbb60063a308267150d6c7d6c0d4602c891fbc0c9a8696676baab02207aa660badea54d70aaca75155e4857d06daca90f531f8f4253b8fe52c749d10901210322046066b4b4ed673d66e6915953463d64402d601432ccabdfab95b265652e11", "asm": "30450221008b6d04fb77fdbb60063a308267150d6c7d6c0d4602c891fbc0c9a8696676baab02207aa660badea54d70aaca75155e4857d06daca90f531f8f4253b8fe52c749d109[ALL] 0322046066b4b4ed673d66e6915953463d64402d601432ccabdfab95b265652e11"}, "vout": 1593, "txid": "a9f1a6b523143d68c3c2e107480fbdd36d16c4e691a1e3ef75a4805af0cf2868"}, {"sequence": 4294967295, "scriptSig": {"hex": "483045022100b9b595316976244887c3925b00a3117fdf96604981284dc13476821314d772b302203656a293aa94acf7abd7b39b681ac678b87115ae21b6d70692c4858b18e7050f01210322046066b4b4ed673d66e6915953463d64402d601432ccabdfab95b265652e11", "asm": "3045022100b9b595316976244887c3925b00a3117fdf96604981284dc13476821314d772b302203656a293aa94acf7abd7b39b681ac678b87115ae21b6d70692c4858b18e7050f[ALL] 0322046066b4b4ed673d66e6915953463d64402d601432ccabdfab95b265652e11"}, "vout": 1210, "txid": "d4c278ba8e22aa1bfd4cabbc81816685f830ace3ad7dc31c62cbdf178a4b2177"}, {"sequence": 4294967295, "scriptSig": {"hex": "483045022100f634363c8aacb2f66a170e47729e7d130d44546cefcac9424792c4e76dd3c3f3022023641bdbdaee0d0a4c443824de234099d6c91e93c2fb986e74c3afb4e7d2a1a2012102912dde89453cfdfc91c43e5bd9be9fe9d413a7ae3edcd496abac45ab7564db18", "asm": "3045022100f634363c8aacb2f66a170e47729e7d130d44546cefcac9424792c4e76dd3c3f3022023641bdbdaee0d0a4c443824de234099d6c91e93c2fb986e74c3afb4e7d2a1a2[ALL] 02912dde89453cfdfc91c43e5bd9be9fe9d413a7ae3edcd496abac45ab7564db18"}, "vout": 0, "txid": "e51bdc3d8a0d0f7fc46708faae158fb91ff1513a1a3d129031aec670e7e41762"}, {"sequence": 4294967295, "scriptSig": {"hex": "47304402204a963ed523cf2fcdc1441659cbaed44601ddefe7113fdf2de012a70c677cfe3f02207e0bc7a6926ff7c38810cbdac1f9107ce5b4bf19137e02fe729cc7bd171f2729012102b2061ad2a7aa388a5c26b04e26c60a9fb93a90d8549ffd2eaf898e8ca4383927", "asm": "304402204a963ed523cf2fcdc1441659cbaed44601ddefe7113fdf2de012a70c677cfe3f02207e0bc7a6926ff7c38810cbdac1f9107ce5b4bf19137e02fe729cc7bd171f2729[ALL] 02b2061ad2a7aa388a5c26b04e26c60a9fb93a90d8549ffd2eaf898e8ca4383927"}, "vout": 1, "txid": "e51bdc3d8a0d0f7fc46708faae158fb91ff1513a1a3d129031aec670e7e41762"}], "txid": "f7983f027a3c1039d8613f72d00a55ec2b0e8ea95493a1da5e2335047802a802", "blocktime": 1537874412, "version": 1, "confirmations": 11468, "time": 1537874412, "locktime": 0, "vsize": 635, "size": 635}