{"hash": "f7991702c05035d6df55c64961188fbb0f4ab4e4c1155c9ed50dd691899d8f6a", "blockhash": "0000000000000000000e13cef7c366c0283d82e591d1acd082e914b08063cdf1", "vout": [{"scriptPubKey": {"reqSigs": 1, "hex": "76a914ecbb2116342128a1c7a2ee0cea05478be214933588ac", "addresses": ["1NaieEuuXnEKoVdK2VCxgkvSdYPE98jGZK"], "asm": "OP_DUP OP_HASH160 ecbb2116342128a1c7a2ee0cea05478be2149335 OP_EQUALVERIFY OP_CHECKSIG", "type": "pubkeyhash"}, "value": 0.02685037, "n": 0}], "hex": "01000000054ca4e255b15f988650487951a30446f4003af640686d7376f32c1b7cfd32b205840000006b483045022100eeb57bac07c703552de7aaa86c7121d8102bc5c662a634d50b3a2437479424840220797f4c35ff971581964e2befab7ca25b091c7873599aef26721d2c38e79fa9b9012102f5a320fbb606faf2a758e9724efaa7131430d9f23fd6213be5daab28d93f5de4ffffffff19279acd8e8acaf11ca4095cd44ec0ab460d1adedef56e23384daf922bcc1376000000006a47304402202433b47d310c6c1142d7563bed9bc568ba6652dcf8a37282c508a3f321cc87e302207892f46079e2689c32427875948e2bb0c43f8bb0ab10fd4220a50f77628f59a601210200a3459c5e7ef937c2624e0359aa52c4ca35ef229d5b9d8eac2d614a398cdf31ffffffff107c678387ecc5b1e55d58d897d68af247485a41e321e07054f36c7eda939487000000006b4830450221009b835f661e9e4f54630156e2b06fde41b6b7690e29af1b42b4772bc8187ffa35022075c085354bdde0d3a5257b13325fc7e33cfe76b6beb9752aca886d67f097e961012102938c74019790936e378c7a5b450d7a9e9127ce0ffbe1fd0c3c982507b99e9203ffffffff3a40dfe013a55628094a93fbebdaa9fd9c5f5b9b5ec2204a2e85338f1dede1aa210000006b483045022100ca9f864e0c9a5f7489aacccc3dfd42f718b236d569742c5e917af9a712d49bea02205b3907199d3781aa9b76924c55983e38a568f2088be6b77455fd8f19db4d647d012102f5a320fbb606faf2a758e9724efaa7131430d9f23fd6213be5daab28d93f5de4ffffffff5a924fa209b8a80e1eb89d5d8793e2d332d4e49a8019727f09d962367d5f9acb000000006b483045022100d122fa59601dd9724223031847f76cefe807b6555b45c4fe8bd689fc0ff6aeaf02200793ef751e8ba2d6121a6954c91f07dd2b2aaaab35cd9308bd9dc0b6b157266c0121022b2a5530487dca6aa7f2cd6ad4b81df08beafed7534a40064f60bef55f4eca9fffffffff016df82800000000001976a914ecbb2116342128a1c7a2ee0cea05478be214933588ac00000000", "vin": [{"sequence": 4294967295, "scriptSig": {"hex": "483045022100eeb57bac07c703552de7aaa86c7121d8102bc5c662a634d50b3a2437479424840220797f4c35ff971581964e2befab7ca25b091c7873599aef26721d2c38e79fa9b9012102f5a320fbb606faf2a758e9724efaa7131430d9f23fd6213be5daab28d93f5de4", "asm": "3045022100eeb57bac07c703552de7aaa86c7121d8102bc5c662a634d50b3a2437479424840220797f4c35ff971581964e2befab7ca25b091c7873599aef26721d2c38e79fa9b9[ALL] 02f5a320fbb606faf2a758e9724efaa7131430d9f23fd6213be5daab28d93f5de4"}, "vout": 132, "txid": "05b232fd7c1b2cf376736d6840f63a00f44604a35179485086985fb155e2a44c"}, {"sequence": 4294967295, "scriptSig": {"hex": "47304402202433b47d310c6c1142d7563bed9bc568ba6652dcf8a37282c508a3f321cc87e302207892f46079e2689c32427875948e2bb0c43f8bb0ab10fd4220a50f77628f59a601210200a3459c5e7ef937c2624e0359aa52c4ca35ef229d5b9d8eac2d614a398cdf31", "asm": "304402202433b47d310c6c1142d7563bed9bc568ba6652dcf8a37282c508a3f321cc87e302207892f46079e2689c32427875948e2bb0c43f8bb0ab10fd4220a50f77628f59a6[ALL] 0200a3459c5e7ef937c2624e0359aa52c4ca35ef229d5b9d8eac2d614a398cdf31"}, "vout": 0, "txid": "7613cc2b92af4d38236ef5dede1a0d46abc04ed45c09a41cf1ca8a8ecd9a2719"}, {"sequence": 4294967295, "scriptSig": {"hex": "4830450221009b835f661e9e4f54630156e2b06fde41b6b7690e29af1b42b4772bc8187ffa35022075c085354bdde0d3a5257b13325fc7e33cfe76b6beb9752aca886d67f097e961012102938c74019790936e378c7a5b450d7a9e9127ce0ffbe1fd0c3c982507b99e9203", "asm": "30450221009b835f661e9e4f54630156e2b06fde41b6b7690e29af1b42b4772bc8187ffa35022075c085354bdde0d3a5257b13325fc7e33cfe76b6beb9752aca886d67f097e961[ALL] 02938c74019790936e378c7a5b450d7a9e9127ce0ffbe1fd0c3c982507b99e9203"}, "vout": 0, "txid": "879493da7e6cf35470e021e3415a4847f28ad697d8585de5b1c5ec8783677c10"}, {"sequence": 4294967295, "scriptSig": {"hex": "483045022100ca9f864e0c9a5f7489aacccc3dfd42f718b236d569742c5e917af9a712d49bea02205b3907199d3781aa9b76924c55983e38a568f2088be6b77455fd8f19db4d647d012102f5a320fbb606faf2a758e9724efaa7131430d9f23fd6213be5daab28d93f5de4", "asm": "3045022100ca9f864e0c9a5f7489aacccc3dfd42f718b236d569742c5e917af9a712d49bea02205b3907199d3781aa9b76924c55983e38a568f2088be6b77455fd8f19db4d647d[ALL] 02f5a320fbb606faf2a758e9724efaa7131430d9f23fd6213be5daab28d93f5de4"}, "vout": 33, "txid": "aae1ed1d8f33852e4a20c25e9b5b5f9cfda9daebfb934a092856a513e0df403a"}, {"sequence": 4294967295, "scriptSig": {"hex": "483045022100d122fa59601dd9724223031847f76cefe807b6555b45c4fe8bd689fc0ff6aeaf02200793ef751e8ba2d6121a6954c91f07dd2b2aaaab35cd9308bd9dc0b6b157266c0121022b2a5530487dca6aa7f2cd6ad4b81df08beafed7534a40064f60bef55f4eca9f", "asm": "3045022100d122fa59601dd9724223031847f76cefe807b6555b45c4fe8bd689fc0ff6aeaf02200793ef751e8ba2d6121a6954c91f07dd2b2aaaab35cd9308bd9dc0b6b157266c[ALL] 022b2a5530487dca6aa7f2cd6ad4b81df08beafed7534a40064f60bef55f4eca9f"}, "vout": 0, "txid": "cb9a5f7d3662d9097f7219809ae4d432d3e293875d9db81e0ea8b809a24f925a"}], "txid": "f7991702c05035d6df55c64961188fbb0f4ab4e4c1155c9ed50dd691899d8f6a", "blocktime": 1537871767, "version": 1, "confirmations": 11495, "time": 1537871767, "locktime": 0, "vsize": 783, "size": 783}