{"hash": "f7a0cd4c40feda4d5f7794e0734c9b44db21c9a0c8d30ff4bdb7df187572e59a", "blockhash": "00000000000000000017f5eb5941039fbcee6240d03bc1f2f8e35350df66a1d8", "vout": [{"scriptPubKey": {"reqSigs": 1, "hex": "76a91457181ca77b362a999db21c7ecb01742c92211a8688ac", "addresses": ["18wWg1uKTUKXdwaejeayCJmEvyiDL2iQhV"], "asm": "OP_DUP OP_HASH160 57181ca77b362a999db21c7ecb01742c92211a86 OP_EQUALVERIFY OP_CHECKSIG", "type": "pubkeyhash"}, "value": 0.02262932, "n": 0}, {"scriptPubKey": {"reqSigs": 1, "hex": "76a914b775c53e50e693aa57eeea1969d40f8b3adbc1d088ac", "addresses": ["1Hj3jwcGfUYaCBQyxzXKnMZcVNdDPXXriL"], "asm": "OP_DUP OP_HASH160 b775c53e50e693aa57eeea1969d40f8b3adbc1d0 OP_EQUALVERIFY OP_CHECKSIG", "type": "pubkeyhash"}, "value": 0.05056816, "n": 1}], "hex": "0100000001c20571a3e40ca194350cdfe147b336ece13115b2c0c9f8e0d8ee444329c585ad360000006a47304402206b8d7c46574b43b9859d67113b274d7a1f39c84e62396e260c78642f64ec716b02206c5f791122686aa4f377ab0468c9060a5ed0a6092ac1bd40b03f6dca2ee01f43012103ad484f4405c04822156202d61872aff3c994e03797be00e8e8736b0429f4eed2ffffffff0294872200000000001976a91457181ca77b362a999db21c7ecb01742c92211a8688ac30294d00000000001976a914b775c53e50e693aa57eeea1969d40f8b3adbc1d088ac00000000", "vin": [{"sequence": 4294967295, "scriptSig": {"hex": "47304402206b8d7c46574b43b9859d67113b274d7a1f39c84e62396e260c78642f64ec716b02206c5f791122686aa4f377ab0468c9060a5ed0a6092ac1bd40b03f6dca2ee01f43012103ad484f4405c04822156202d61872aff3c994e03797be00e8e8736b0429f4eed2", "asm": "304402206b8d7c46574b43b9859d67113b274d7a1f39c84e62396e260c78642f64ec716b02206c5f791122686aa4f377ab0468c9060a5ed0a6092ac1bd40b03f6dca2ee01f43[ALL] 03ad484f4405c04822156202d61872aff3c994e03797be00e8e8736b0429f4eed2"}, "vout": 54, "txid": "ad85c5294344eed8e0f8c9c0b21531e1ec36b347e1df0c3594a10ce4a37105c2"}], "txid": "f7a0cd4c40feda4d5f7794e0734c9b44db21c9a0c8d30ff4bdb7df187572e59a", "blocktime": 1537874412, "version": 1, "confirmations": 11468, "time": 1537874412, "locktime": 0, "vsize": 225, "size": 225}