{"hash": "f7a0b0a69f18aec31703fe8bc198597ef8cf174ca5edf7411b0e8fbfbcda8f12", "blockhash": "000000000000000000022b45ed06c6f4ccd3cf7fb5ba4856ebd2e58215665228", "vout": [{"scriptPubKey": {"reqSigs": 1, "hex": "76a914661a1d4b4fe9fc85d929b48615339c4963a884f388ac", "addresses": ["1AJsD2h2DWT6zGo4sGdcbrUonF8PqLuPxv"], "asm": "OP_DUP OP_HASH160 661a1d4b4fe9fc85d929b48615339c4963a884f3 OP_EQUALVERIFY OP_CHECKSIG", "type": "pubkeyhash"}, "value": 0.01148916, "n": 0}, {"scriptPubKey": {"reqSigs": 1, "hex": "76a914853c55bd67108252a178d3cbab870bda30d8814588ac", "addresses": ["1D9V9f84WTsbFtPgsYDt84d1UhMwt87VFW"], "asm": "OP_DUP OP_HASH160 853c55bd67108252a178d3cbab870bda30d88145 OP_EQUALVERIFY OP_CHECKSIG", "type": "pubkeyhash"}, "value": 0.52576863, "n": 1}], "hex": "0100000001aa4a4d0e4071a0ba9dbdb1a5ada01afaebec731fc8af8a4402c6f069f641d598010000006b483045022100cdb857f0dbcd28aab4813f3139ce488c20f53343a3072c8b8e16efee7c6e67a60220532a7a2fc1e68208b77960ff6124cb5a617fa49a07834c59dba261616421a92c0121036339751a3c2e8f7d220414c152a8430c6171e2f5c1fb7fd1667ff4048409e609ffffffff02f4871100000000001976a914661a1d4b4fe9fc85d929b48615339c4963a884f388ac5f422203000000001976a914853c55bd67108252a178d3cbab870bda30d8814588ac00000000", "vin": [{"sequence": 4294967295, "scriptSig": {"hex": "483045022100cdb857f0dbcd28aab4813f3139ce488c20f53343a3072c8b8e16efee7c6e67a60220532a7a2fc1e68208b77960ff6124cb5a617fa49a07834c59dba261616421a92c0121036339751a3c2e8f7d220414c152a8430c6171e2f5c1fb7fd1667ff4048409e609", "asm": "3045022100cdb857f0dbcd28aab4813f3139ce488c20f53343a3072c8b8e16efee7c6e67a60220532a7a2fc1e68208b77960ff6124cb5a617fa49a07834c59dba261616421a92c[ALL] 036339751a3c2e8f7d220414c152a8430c6171e2f5c1fb7fd1667ff4048409e609"}, "vout": 1, "txid": "98d541f669f0c602448aafc81f73ecebfa1aa0ada5b1bd9dbaa071400e4d4aaa"}], "txid": "f7a0b0a69f18aec31703fe8bc198597ef8cf174ca5edf7411b0e8fbfbcda8f12", "blocktime": 1537869901, "version": 1, "confirmations": 11522, "time": 1537869901, "locktime": 0, "vsize": 226, "size": 226}