{"hash": "f7a1f341a5f9188f6bc8b4405afeaefe73b8e6a7726711345991f7b8b49337a3", "blockhash": "0000000000000000000e13cef7c366c0283d82e591d1acd082e914b08063cdf1", "vout": [{"scriptPubKey": {"reqSigs": 1, "hex": "76a914554ad10f6e6150cb1503be6f271c219895c3271188ac", "addresses": ["18mz4f76eoVQfNo2ZuMUw5kZJi97mFhJgf"], "asm": "OP_DUP OP_HASH160 554ad10f6e6150cb1503be6f271c219895c32711 OP_EQUALVERIFY OP_CHECKSIG", "type": "pubkeyhash"}, "value": 0.00286, "n": 0}], "hex": "010000000267986af97a2ff931b48665a19e63c219931a1ab3b2a26462bb3728b1c732870f000000006b4830450221008b221bbcb8e07134b132c725e0ac7bbb6ef88c3fb6d4acb652ba19df153b30ac022022e6b2347d7c48424a64d7f71366d9e9c13e2b0b89e7982a2ba2a54bfd5fcac50121023e61ece6d318f119bedcc4a9189a46cf3cab5f918aae6e75ca6be85d4fef0a17ffffffffe996bc25469e94cd550a35f9d1ddb3c5aadba1b83ff9cb5064ebc2e3a2464dd3000000006b483045022100b7a29eea2b111f98724db32c6512e7a8ccbccf8fd13a911c7ef2c6c9cce7f3450220723d73de505704c8eea75a8b3fca8cc133c66a37ee2ecdcfeb93184d76cdf6a4012103051fc320a4691e1467a681a91fe7a6df1c5efacea10740115be5632d55c2bb36ffffffff01305d0400000000001976a914554ad10f6e6150cb1503be6f271c219895c3271188ac00000000", "vin": [{"sequence": 4294967295, "scriptSig": {"hex": "4830450221008b221bbcb8e07134b132c725e0ac7bbb6ef88c3fb6d4acb652ba19df153b30ac022022e6b2347d7c48424a64d7f71366d9e9c13e2b0b89e7982a2ba2a54bfd5fcac50121023e61ece6d318f119bedcc4a9189a46cf3cab5f918aae6e75ca6be85d4fef0a17", "asm": "30450221008b221bbcb8e07134b132c725e0ac7bbb6ef88c3fb6d4acb652ba19df153b30ac022022e6b2347d7c48424a64d7f71366d9e9c13e2b0b89e7982a2ba2a54bfd5fcac5[ALL] 023e61ece6d318f119bedcc4a9189a46cf3cab5f918aae6e75ca6be85d4fef0a17"}, "vout": 0, "txid": "0f8732c7b12837bb6264a2b2b31a1a9319c2639ea16586b431f92f7af96a9867"}, {"sequence": 4294967295, "scriptSig": {"hex": "483045022100b7a29eea2b111f98724db32c6512e7a8ccbccf8fd13a911c7ef2c6c9cce7f3450220723d73de505704c8eea75a8b3fca8cc133c66a37ee2ecdcfeb93184d76cdf6a4012103051fc320a4691e1467a681a91fe7a6df1c5efacea10740115be5632d55c2bb36", "asm": "3045022100b7a29eea2b111f98724db32c6512e7a8ccbccf8fd13a911c7ef2c6c9cce7f3450220723d73de505704c8eea75a8b3fca8cc133c66a37ee2ecdcfeb93184d76cdf6a4[ALL] 03051fc320a4691e1467a681a91fe7a6df1c5efacea10740115be5632d55c2bb36"}, "vout": 0, "txid": "d34d46a2e3c2eb6450cbf93fb8a1dbaac5b3ddd1f9350a55cd949e4625bc96e9"}], "txid": "f7a1f341a5f9188f6bc8b4405afeaefe73b8e6a7726711345991f7b8b49337a3", "blocktime": 1537871767, "version": 1, "confirmations": 11495, "time": 1537871767, "locktime": 0, "vsize": 340, "size": 340}