{"hash": "f7a2ce54de6abb3e7ab89f31b2e941ba2ea6358bd085ab522a5996b62d3f6c04", "blockhash": "0000000000000000001f0ddff1eddb255c1121bcd4da4f1bc9a0da00cae72433", "vout": [{"scriptPubKey": {"reqSigs": 1, "hex": "76a91435d6c8d1e23e5854630fa41de5c29166e3f18cca88ac", "addresses": ["15ug7eqghTK3qMTDWezN6xRRTo3GNhmAiB"], "asm": "OP_DUP OP_HASH160 35d6c8d1e23e5854630fa41de5c29166e3f18cca OP_EQUALVERIFY OP_CHECKSIG", "type": "pubkeyhash"}, "value": 0.05607685, "n": 0}, {"scriptPubKey": {"reqSigs": 1, "hex": "76a9140c2593b664db2ad5fce5d54188a725aad6b2999188ac", "addresses": ["127E8CUVJwQHSBg8qG82ATa1mQY4eu5sWb"], "asm": "OP_DUP OP_HASH160 0c2593b664db2ad5fce5d54188a725aad6b29991 OP_EQUALVERIFY OP_CHECKSIG", "type": "pubkeyhash"}, "value": 0.127415, "n": 1}], "hex": "010000000221b0d465afd410813e047a5744d60ce59f92e33b8ca23573ec0632cf05993a06150000006a473044022038f20df62f0974ac8c3682b594ab4838b230491ef21bff29cbef3577ae1c4e8402204e9ee7c94c88f32090e80cbacee94ffa0b344118e53855ab694263e5ea599d560121031390e80fe29295d4e2147b9e488a2ca1ee9475e72b1fbb1c112aeebdc327a318ffffffffd60d411b7bdf9c5dae29d27a178ed7e1a09836f63146dc0cab066a54ef1bd168010000006a47304402207c0151f5928a3e0a561b8c5aca95828f07386e14319dbd9ff4c14969470f60fd0220487d0414513415aed6937f4cbe1c043994f7c9019bf75d4b6ef1e2ebf02274490121031390e80fe29295d4e2147b9e488a2ca1ee9475e72b1fbb1c112aeebdc327a318ffffffff0205915500000000001976a91435d6c8d1e23e5854630fa41de5c29166e3f18cca88ac7c6bc200000000001976a9140c2593b664db2ad5fce5d54188a725aad6b2999188ac00000000", "vin": [{"sequence": 4294967295, "scriptSig": {"hex": "473044022038f20df62f0974ac8c3682b594ab4838b230491ef21bff29cbef3577ae1c4e8402204e9ee7c94c88f32090e80cbacee94ffa0b344118e53855ab694263e5ea599d560121031390e80fe29295d4e2147b9e488a2ca1ee9475e72b1fbb1c112aeebdc327a318", "asm": "3044022038f20df62f0974ac8c3682b594ab4838b230491ef21bff29cbef3577ae1c4e8402204e9ee7c94c88f32090e80cbacee94ffa0b344118e53855ab694263e5ea599d56[ALL] 031390e80fe29295d4e2147b9e488a2ca1ee9475e72b1fbb1c112aeebdc327a318"}, "vout": 21, "txid": "063a9905cf3206ec7335a28c3be3929fe50cd644577a043e8110d4af65d4b021"}, {"sequence": 4294967295, "scriptSig": {"hex": "47304402207c0151f5928a3e0a561b8c5aca95828f07386e14319dbd9ff4c14969470f60fd0220487d0414513415aed6937f4cbe1c043994f7c9019bf75d4b6ef1e2ebf02274490121031390e80fe29295d4e2147b9e488a2ca1ee9475e72b1fbb1c112aeebdc327a318", "asm": "304402207c0151f5928a3e0a561b8c5aca95828f07386e14319dbd9ff4c14969470f60fd0220487d0414513415aed6937f4cbe1c043994f7c9019bf75d4b6ef1e2ebf0227449[ALL] 031390e80fe29295d4e2147b9e488a2ca1ee9475e72b1fbb1c112aeebdc327a318"}, "vout": 1, "txid": "68d11bef546a06ab0cdc4631f63698a0e1d78e177ad229ae5d9cdf7b1b410dd6"}], "txid": "f7a2ce54de6abb3e7ab89f31b2e941ba2ea6358bd085ab522a5996b62d3f6c04", "blocktime": 1537872018, "version": 1, "confirmations": 11489, "time": 1537872018, "locktime": 0, "vsize": 372, "size": 372}