{"hash": "14cb9bf688cc3ce8ae81e2c61dd363bacc3349b0084ef29fbbf9a97a615e7676", "blockhash": "000000000000000000022b45ed06c6f4ccd3cf7fb5ba4856ebd2e58215665228", "vout": [{"scriptPubKey": {"reqSigs": 1, "hex": "a9140d66ccef952150ca48b926cab5de196534ca1c8d87", "addresses": ["32usrk5sjnBkPopheaX6Qn9Em8L9hmM1Ey"], "asm": "OP_HASH160 0d66ccef952150ca48b926cab5de196534ca1c8d OP_EQUAL", "type": "scripthash"}, "value": 0.011489, "n": 0}, {"scriptPubKey": {"reqSigs": 1, "hex": "a9147007052becaa97d6378ea7da406af237c7ceefd587", "addresses": ["3BuN1oQX33ZJKiwtNA8WqfLG42KMEGjFK8"], "asm": "OP_HASH160 7007052becaa97d6378ea7da406af237c7ceefd5 OP_EQUAL", "type": "scripthash"}, "value": 0.06378672, "n": 1}], "hex": "02000000000101fd762bf4549141d49f785c684498a0b4fbed66adb9abec595f70482315a9693a010000001716001465f04809933a78cf257c1079676548f680de2595ffffffff02e48711000000000017a9140d66ccef952150ca48b926cab5de196534ca1c8d87b05461000000000017a9147007052becaa97d6378ea7da406af237c7ceefd587024830450221009074a8ce1efc1145b5b519b061ccc6e95e80fe346e85b05f903c4201de1994da02201c07c3588d48cc6f3544d45a36748e0ec82acb916c8fdd7bb549268c3150887f01210224018ea9f1fc213adc8176fdcdf0c866f0e0369b10101bfe86f2d8b5502a805f00000000", "vin": [{"txinwitness": ["30450221009074a8ce1efc1145b5b519b061ccc6e95e80fe346e85b05f903c4201de1994da02201c07c3588d48cc6f3544d45a36748e0ec82acb916c8fdd7bb549268c3150887f01", "0224018ea9f1fc213adc8176fdcdf0c866f0e0369b10101bfe86f2d8b5502a805f"], "sequence": 4294967295, "scriptSig": {"hex": "16001465f04809933a78cf257c1079676548f680de2595", "asm": "001465f04809933a78cf257c1079676548f680de2595"}, "vout": 1, "txid": "3a69a9152348705f59ecabb9ad66edfbb4a09844685c789fd4419154f42b76fd"}], "txid": "f7a6b5e44c579a7cbbf9479a5f6670e412f3781c2a4ca3bfc7a088b71cafe616", "blocktime": 1537869901, "version": 2, "confirmations": 11522, "time": 1537869901, "locktime": 0, "vsize": 166, "size": 248}