{"hash": "6a2b5e8883cf9033800b94a3f1d475be365364faa92f6d282b23e7da901fc18d", "blockhash": "0000000000000000001cda96e906b7601b7a6fb1a3b62bca570a9e5d8f4b3de1", "vout": [{"scriptPubKey": {"reqSigs": 1, "hex": "a9149ffca4039b7e42ed99980486758e0a4f3e32db4c87", "addresses": ["3GGx1pvD5wEdhvKfLAgzXMtKQLq9GVjLcn"], "asm": "OP_HASH160 9ffca4039b7e42ed99980486758e0a4f3e32db4c OP_EQUAL", "type": "scripthash"}, "value": 0.06278949, "n": 0}, {"scriptPubKey": {"reqSigs": 1, "hex": "76a914eb23c460836e15d7c961ef0ef5f04fe5d7fe53ea88ac", "addresses": ["1NSJeDrg4BMgZFBpGUh5KyHC5gTr9DHHET"], "asm": "OP_DUP OP_HASH160 eb23c460836e15d7c961ef0ef5f04fe5d7fe53ea OP_EQUALVERIFY OP_CHECKSIG", "type": "pubkeyhash"}, "value": 0.07825056, "n": 1}], "hex": "01000000000101ec428194c32764751765311a1fc0af0af3b5f769b40e52af28c28bb7a6a4892d0100000017160014ce4cf9920a5a2dfc1e8146c3d29c58591803de99ffffffff0225cf5f000000000017a9149ffca4039b7e42ed99980486758e0a4f3e32db4c87a0667700000000001976a914eb23c460836e15d7c961ef0ef5f04fe5d7fe53ea88ac02483045022100998aecf8ca296768f7bb393fb51168d2708efaf0a4c392c7c2b4882fca40d3f702205e53877105e2eed667c6b7ae9578a514622c3b7cf437e69f21773e55df90b457012103565988a549c2cf2528d64bf01754aaec67ed274982773350a7135cacfa5a4a2300000000", "vin": [{"txinwitness": ["3045022100998aecf8ca296768f7bb393fb51168d2708efaf0a4c392c7c2b4882fca40d3f702205e53877105e2eed667c6b7ae9578a514622c3b7cf437e69f21773e55df90b45701", "03565988a549c2cf2528d64bf01754aaec67ed274982773350a7135cacfa5a4a23"], "sequence": 4294967295, "scriptSig": {"hex": "160014ce4cf9920a5a2dfc1e8146c3d29c58591803de99", "asm": "0014ce4cf9920a5a2dfc1e8146c3d29c58591803de99"}, "vout": 1, "txid": "2d89a4a6b78bc228af520eb469f7b5f30aafc01f1a316517756427c3948142ec"}], "txid": "f7a7019886d93b21864268ef4f634eb83ecaced2dee0d67d6dce81b95a6cc4bc", "blocktime": 1537873282, "version": 1, "confirmations": 11485, "time": 1537873282, "locktime": 0, "vsize": 168, "size": 250}