{"hash": "e812abdf1e38a53b13ae2a2a0a98042491ff569e955ccdd2e0d1ee6704b02c85", "blockhash": "00000000000000000024a2167bbff67b0be802c0b01cdd79e6331c2be6459f87", "vout": [{"scriptPubKey": {"reqSigs": 1, "hex": "76a914251897daf1b93e51819e5b89cbba1f6786dda04188ac", "addresses": ["14P9Ts1G6xoVRQTFK8oNaN4rqs78xfFLsj"], "asm": "OP_DUP OP_HASH160 251897daf1b93e51819e5b89cbba1f6786dda041 OP_EQUALVERIFY OP_CHECKSIG", "type": "pubkeyhash"}, "value": 0.001, "n": 0}, {"scriptPubKey": {"reqSigs": 1, "hex": "a914627aa52932456d89054bd84f86246af3b71b93a887", "addresses": ["3Afj4stdiLG9EktGrMbm252ySonnhYaz8v"], "asm": "OP_HASH160 627aa52932456d89054bd84f86246af3b71b93a8 OP_EQUAL", "type": "scripthash"}, "value": 0.46387211, "n": 1}], "hex": "010000000001016e2d8c5e759c3eb9f9dc4d7b5ef801a73a9f9b9c777d8f3b47a08f818a45d3c701000000232200205fdd641234b13964b223bd85ad2a4a667ca2099df3d42a1d3b45706a8d81abf0ffffffff02a0860100000000001976a914251897daf1b93e51819e5b89cbba1f6786dda04188ac0bd0c3020000000017a914627aa52932456d89054bd84f86246af3b71b93a8870400473044022001f9f72c5bd08687f32c0f71ca2669e06164864803560d5b2553c7da94430eb20220265b1d7a8c703c71ac90c1d422acfedabfd040897785bd4c396cd041741f29c00147304402205dc3866fcf4cb968632d818184985587c6e8e53c31edff295bd400c919b4c9a0022039ac236d80099362105ef9652c0a7b775524d537816023b30a78c3bb854aa27c0147522103dcde3832fa56def7b4e783faad1b8af85c3cdd74a5ff4f3c7c216b1075c18da12103c70ae8ded79be1afda73b9ce5ea14a3878908ee160d66a9a717e792bb6db276952ae00000000", "vin": [{"txinwitness": ["", "3044022001f9f72c5bd08687f32c0f71ca2669e06164864803560d5b2553c7da94430eb20220265b1d7a8c703c71ac90c1d422acfedabfd040897785bd4c396cd041741f29c001", "304402205dc3866fcf4cb968632d818184985587c6e8e53c31edff295bd400c919b4c9a0022039ac236d80099362105ef9652c0a7b775524d537816023b30a78c3bb854aa27c01", "522103dcde3832fa56def7b4e783faad1b8af85c3cdd74a5ff4f3c7c216b1075c18da12103c70ae8ded79be1afda73b9ce5ea14a3878908ee160d66a9a717e792bb6db276952ae"], "sequence": 4294967295, "scriptSig": {"hex": "2200205fdd641234b13964b223bd85ad2a4a667ca2099df3d42a1d3b45706a8d81abf0", "asm": "00205fdd641234b13964b223bd85ad2a4a667ca2099df3d42a1d3b45706a8d81abf0"}, "vout": 1, "txid": "c7d3458a818fa0473b8f7d779c9b9f3aa701f85e7b4ddcf9b93e9c755e8c2d6e"}], "txid": "f7ab20c9b8afa1e3ce0d8f120b1b431f08ec993fd7dc91fa4551247ff3d543ff", "blocktime": 1537870564, "version": 1, "confirmations": 11515, "time": 1537870564, "locktime": 0, "vsize": 207, "size": 372}