{"hash": "b2f69eff53ad40a478a0da72530a1f77cc8c3b75efa1709caae60ce4546ba60e", "blockhash": "0000000000000000000baef3f32e3676a92c3b2e5da21b426e4f302fc371ce76", "vout": [{"scriptPubKey": {"reqSigs": 1, "hex": "a914f725bb4e1a881ab8bed6586fd7acdb85528a5bb287", "addresses": ["3QDp2ZsfMWwSvWoSyQBCpPehRSiwiGccZS"], "asm": "OP_HASH160 f725bb4e1a881ab8bed6586fd7acdb85528a5bb2 OP_EQUAL", "type": "scripthash"}, "value": 0.007508, "n": 0}, {"scriptPubKey": {"reqSigs": 1, "hex": "a9144532fac98343753f4d603183ba04fdaf17f341a887", "addresses": ["37zucuab5wzRssorphSMhhn46w427UhUhs"], "asm": "OP_HASH160 4532fac98343753f4d603183ba04fdaf17f341a8 OP_EQUAL", "type": "scripthash"}, "value": 0.0354702, "n": 1}], "hex": "01000000000101d2434e9e268d0a4e3c7584490777c6b71eefe8aad0fa9e4241b837579a49c8730000000023220020741ff2bc0885fa9104c505fd84881ca23753942f562b2f7f56eac93f7202bc9dffffffff02d0740b000000000017a914f725bb4e1a881ab8bed6586fd7acdb85528a5bb2878c1f36000000000017a9144532fac98343753f4d603183ba04fdaf17f341a8870400483045022100bf702c009e0305105e15aca3f51102e80cc0ba42a1000556e9d3aeba7c3e0357022071d14de3e679e16cc1ad911dd9e5b98bb4bf4de558e01f4b697cfe63c8f9743a01483045022100b48c366cd9ff513c93209b07e21d88313ad428bb65c427de7e4c4614b36ee47a02204bcf3f0014afda942b6dd339f12073bc765a629bc55eae224585224bd16f8cd30169522102c0f310693cf475a1c87a33dc225907992a847e2207f6b4f7706eaa3848dccc3721036efb4a0114c51a660503c8a24e847f1925c4bcffd12f0135d9fc55f290ceaccc2102f9ba11f1ed035cf0e23e32b8674b28900404772468cca40228266f37cdaacbd353ae18490800", "vin": [{"txinwitness": ["", "3045022100bf702c009e0305105e15aca3f51102e80cc0ba42a1000556e9d3aeba7c3e0357022071d14de3e679e16cc1ad911dd9e5b98bb4bf4de558e01f4b697cfe63c8f9743a01", "3045022100b48c366cd9ff513c93209b07e21d88313ad428bb65c427de7e4c4614b36ee47a02204bcf3f0014afda942b6dd339f12073bc765a629bc55eae224585224bd16f8cd301", "522102c0f310693cf475a1c87a33dc225907992a847e2207f6b4f7706eaa3848dccc3721036efb4a0114c51a660503c8a24e847f1925c4bcffd12f0135d9fc55f290ceaccc2102f9ba11f1ed035cf0e23e32b8674b28900404772468cca40228266f37cdaacbd353ae"], "sequence": 4294967295, "scriptSig": {"hex": "220020741ff2bc0885fa9104c505fd84881ca23753942f562b2f7f56eac93f7202bc9d", "asm": "0020741ff2bc0885fa9104c505fd84881ca23753942f562b2f7f56eac93f7202bc9d"}, "vout": 0, "txid": "73c8499a5737b841429efad0aae8ef1eb7c677074984753c4e0a8d269e4e43d2"}], "txid": "f7ae46eb90fb8562926ffd42d78dda0834cb3d9e14bf5307c818ab95f6a0bd41", "blocktime": 1537876114, "version": 1, "confirmations": 11460, "time": 1537876114, "locktime": 543000, "vsize": 214, "size": 406}