{"hash": "85779d324783a71035ba3ab795730a27c7fbc95d39fef24db55a2d798b1dd739", "blockhash": "0000000000000000000dcc0f55137456b1a82d3642486a52398922ac4d620174", "vout": [{"scriptPubKey": {"reqSigs": 1, "hex": "a914626354084d79eee5d5bb2e2052f4473ecc839dfe87", "addresses": ["3AfF8nqMYJNCPuDXsTcT7dTzKrecxNDwYf"], "asm": "OP_HASH160 626354084d79eee5d5bb2e2052f4473ecc839dfe OP_EQUAL", "type": "scripthash"}, "value": 0.014486, "n": 0}, {"scriptPubKey": {"reqSigs": 1, "hex": "a914fec37293f73cc540a971ea4d2fdd15cdc3e9e57d87", "addresses": ["3Qv5hCnHwXzsNm6fDb2kpgUQ74twMk8QLm"], "asm": "OP_HASH160 fec37293f73cc540a971ea4d2fdd15cdc3e9e57d OP_EQUAL", "type": "scripthash"}, "value": 0.32206272, "n": 1}], "hex": "0200000000010170c1b1e968630f79bbb76c3568eefa0a35924dc8538b70f2562a760e8465810f01000000171600149749079a9c040fee0d0a0e3b209195d18cc5dd12ffffffff02981a16000000000017a914626354084d79eee5d5bb2e2052f4473ecc839dfe87c06deb010000000017a914fec37293f73cc540a971ea4d2fdd15cdc3e9e57d8702483045022100e4fd002c2e459da5acc12cb5c93de8f53809d00e245acfe30d1424085447e5e60220284c82ecce0d859bb2ff682e4ee60456c49757801bf042bb45dcf6df55500e0401210328f960405f1448804c2899b754664a69c1664511ce3bd84f5c30a4e653ae850400000000", "vin": [{"txinwitness": ["3045022100e4fd002c2e459da5acc12cb5c93de8f53809d00e245acfe30d1424085447e5e60220284c82ecce0d859bb2ff682e4ee60456c49757801bf042bb45dcf6df55500e0401", "0328f960405f1448804c2899b754664a69c1664511ce3bd84f5c30a4e653ae8504"], "sequence": 4294967295, "scriptSig": {"hex": "1600149749079a9c040fee0d0a0e3b209195d18cc5dd12", "asm": "00149749079a9c040fee0d0a0e3b209195d18cc5dd12"}, "vout": 1, "txid": "0f8165840e762a56f2708b53c84d92350afaee68356cb7bb790f6368e9b1c170"}], "txid": "f7b19beb83338d262c4e1f2cde2116efd102d1bc3ba1f34a16f2753409214349", "blocktime": 1537870268, "version": 2, "confirmations": 11516, "time": 1537870268, "locktime": 0, "vsize": 166, "size": 248}