{"hash": "f7b620134e8f71502068968f06354f34d899057bb3fa2bcbcdbedc2026ecafbe", "blockhash": "00000000000000000017f5eb5941039fbcee6240d03bc1f2f8e35350df66a1d8", "vout": [{"scriptPubKey": {"type": "nulldata", "hex": "6a146f6d6e69000000000000001f00000004e9a87300", "asm": "OP_RETURN 6f6d6e69000000000000001f00000004e9a87300"}, "value": 0.0, "n": 0}, {"scriptPubKey": {"reqSigs": 1, "hex": "76a914a25dec4d0011064ef106a983c39c7a540699f22088ac", "addresses": ["1FoWyxwPXuj4C6abqwhjDWdz6D4PZgYRjA"], "asm": "OP_DUP OP_HASH160 a25dec4d0011064ef106a983c39c7a540699f220 OP_EQUALVERIFY OP_CHECKSIG", "type": "pubkeyhash"}, "value": 5.46e-06, "n": 1}, {"scriptPubKey": {"reqSigs": 1, "hex": "76a9142f758a82d15b679efc366306d19ea8136270de2088ac", "addresses": ["15KwZutpxPdU6tPFMEqyZTeUQ2vJyVe4gT"], "asm": "OP_DUP OP_HASH160 2f758a82d15b679efc366306d19ea8136270de20 OP_EQUALVERIFY OP_CHECKSIG", "type": "pubkeyhash"}, "value": 0.00476317, "n": 2}], "hex": "010000000765de8341f1d3dab235b677681c611c2dc37ed57d8e04d302211180e0de2fb3b2020000006a47304402207964c336627dec27490bab2a24f458f43c2be783c42e00e817517da7c62d52b102206d50c5b02fb0b4d7e4c73c2a43f4633033197ec6e1949245688d74d9443919d80121028b8bc9265a9860f93998f735e6821a73f90c1baafac40bea0038b51d88ecbf8ffeffffff8e14a5606b5f971389c16239c5b697e7a80b37f4f0dcf00475830851bf2e1553010000006a473044022018f57f122ea5c70ec384a4a2d44cddf9bb8b0da401edda0ae94e8f6d2a1d4c12022035c6eb505c44655ee76d4fafde49682cdd0c56ad896e0d01d8942cef101145d90121028b8bc9265a9860f93998f735e6821a73f90c1baafac40bea0038b51d88ecbf8ffeffffffa3095bd18852ce07ec3501e7443d8754e7c174ff552fbc4445240b1dc065c96f000000006b4830450221009502712f76eba9ff003fd73700de5ec420b4074d23af586bbd558e4cc2c70acc0220444d9180037c9481bdccf0454eaa2d9d829e57276e5a8606b4641bdc943b92c60121028b8bc9265a9860f93998f735e6821a73f90c1baafac40bea0038b51d88ecbf8ffeffffffaf351897771cc00d4a21c671d25647453b41e4c7d4406b9cda17540a598d8ff6020000006b483045022100fd3115e3918127037676740c9808732d492594fbf7bbf58ca61621eec8cfe66102202d010d11d6337a37529df4a7ac2e7b32733d05d41cf7772c5f79067d9ef871380121028b8bc9265a9860f93998f735e6821a73f90c1baafac40bea0038b51d88ecbf8ffeffffffbb90b3445cdc3f5c405de06ca114743ab5efaa94fd3c6b82b5120182b5e03542010000006a47304402201b62fa9a8df39d8f408ef1ddbe54468d54c75793f10e459d52d3f8c267f4df3f02200eec37721d8f9b4851d14065dba09c4db133232f007aa395d4b7e7ae8c1d226e0121028b8bc9265a9860f93998f735e6821a73f90c1baafac40bea0038b51d88ecbf8ffeffffffc635c0c40c5ffd5993c60bd61dec2c1e5329c0fde9e004219cf9bbab65b4578e010000006b4830450221009d51773c3c26c222d25426d8bcc0b662e7e1e382680a29c8fa69b7098a287961022006bd8a1795134ca31754c83fc303d522b8a072b74d92a279f0f3fb254aaf2d560121028b8bc9265a9860f93998f735e6821a73f90c1baafac40bea0038b51d88ecbf8ffeffffffc7bd7291aceef37b64de9b3c57f9d281bb69d6889359c34eb30b270f1ac439a1010000006a47304402204d183eef2ed7b85437d356d99e182451889fbba7ca7976da22c487e1190008eb02202669aeb44a60a414ea03876426551e5f0f747532be99b222b84d38c2c66800780121028b8bc9265a9860f93998f735e6821a73f90c1baafac40bea0038b51d88ecbf8ffeffffff030000000000000000166a146f6d6e69000000000000001f00000004e9a8730022020000000000001976a914a25dec4d0011064ef106a983c39c7a540699f22088ac9d440700000000001976a9142f758a82d15b679efc366306d19ea8136270de2088ac15490800", "vin": [{"sequence": 4294967294, "scriptSig": {"hex": "47304402207964c336627dec27490bab2a24f458f43c2be783c42e00e817517da7c62d52b102206d50c5b02fb0b4d7e4c73c2a43f4633033197ec6e1949245688d74d9443919d80121028b8bc9265a9860f93998f735e6821a73f90c1baafac40bea0038b51d88ecbf8f", "asm": "304402207964c336627dec27490bab2a24f458f43c2be783c42e00e817517da7c62d52b102206d50c5b02fb0b4d7e4c73c2a43f4633033197ec6e1949245688d74d9443919d8[ALL] 028b8bc9265a9860f93998f735e6821a73f90c1baafac40bea0038b51d88ecbf8f"}, "vout": 2, "txid": "b2b32fdee080112102d3048e7dd57ec32d1c611c6877b635b2dad3f14183de65"}, {"sequence": 4294967294, "scriptSig": {"hex": "473044022018f57f122ea5c70ec384a4a2d44cddf9bb8b0da401edda0ae94e8f6d2a1d4c12022035c6eb505c44655ee76d4fafde49682cdd0c56ad896e0d01d8942cef101145d90121028b8bc9265a9860f93998f735e6821a73f90c1baafac40bea0038b51d88ecbf8f", "asm": "3044022018f57f122ea5c70ec384a4a2d44cddf9bb8b0da401edda0ae94e8f6d2a1d4c12022035c6eb505c44655ee76d4fafde49682cdd0c56ad896e0d01d8942cef101145d9[ALL] 028b8bc9265a9860f93998f735e6821a73f90c1baafac40bea0038b51d88ecbf8f"}, "vout": 1, "txid": "53152ebf5108837504f0dcf0f4370ba8e797b6c53962c18913975f6b60a5148e"}, {"sequence": 4294967294, "scriptSig": {"hex": "4830450221009502712f76eba9ff003fd73700de5ec420b4074d23af586bbd558e4cc2c70acc0220444d9180037c9481bdccf0454eaa2d9d829e57276e5a8606b4641bdc943b92c60121028b8bc9265a9860f93998f735e6821a73f90c1baafac40bea0038b51d88ecbf8f", "asm": "30450221009502712f76eba9ff003fd73700de5ec420b4074d23af586bbd558e4cc2c70acc0220444d9180037c9481bdccf0454eaa2d9d829e57276e5a8606b4641bdc943b92c6[ALL] 028b8bc9265a9860f93998f735e6821a73f90c1baafac40bea0038b51d88ecbf8f"}, "vout": 0, "txid": "6fc965c01d0b244544bc2f55ff74c1e754873d44e70135ec07ce5288d15b09a3"}, {"sequence": 4294967294, "scriptSig": {"hex": "483045022100fd3115e3918127037676740c9808732d492594fbf7bbf58ca61621eec8cfe66102202d010d11d6337a37529df4a7ac2e7b32733d05d41cf7772c5f79067d9ef871380121028b8bc9265a9860f93998f735e6821a73f90c1baafac40bea0038b51d88ecbf8f", "asm": "3045022100fd3115e3918127037676740c9808732d492594fbf7bbf58ca61621eec8cfe66102202d010d11d6337a37529df4a7ac2e7b32733d05d41cf7772c5f79067d9ef87138[ALL] 028b8bc9265a9860f93998f735e6821a73f90c1baafac40bea0038b51d88ecbf8f"}, "vout": 2, "txid": "f68f8d590a5417da9c6b40d4c7e4413b454756d271c6214a0dc01c77971835af"}, {"sequence": 4294967294, "scriptSig": {"hex": "47304402201b62fa9a8df39d8f408ef1ddbe54468d54c75793f10e459d52d3f8c267f4df3f02200eec37721d8f9b4851d14065dba09c4db133232f007aa395d4b7e7ae8c1d226e0121028b8bc9265a9860f93998f735e6821a73f90c1baafac40bea0038b51d88ecbf8f", "asm": "304402201b62fa9a8df39d8f408ef1ddbe54468d54c75793f10e459d52d3f8c267f4df3f02200eec37721d8f9b4851d14065dba09c4db133232f007aa395d4b7e7ae8c1d226e[ALL] 028b8bc9265a9860f93998f735e6821a73f90c1baafac40bea0038b51d88ecbf8f"}, "vout": 1, "txid": "4235e0b5820112b5826b3cfd94aaefb53a7414a16ce05d405c3fdc5c44b390bb"}, {"sequence": 4294967294, "scriptSig": {"hex": "4830450221009d51773c3c26c222d25426d8bcc0b662e7e1e382680a29c8fa69b7098a287961022006bd8a1795134ca31754c83fc303d522b8a072b74d92a279f0f3fb254aaf2d560121028b8bc9265a9860f93998f735e6821a73f90c1baafac40bea0038b51d88ecbf8f", "asm": "30450221009d51773c3c26c222d25426d8bcc0b662e7e1e382680a29c8fa69b7098a287961022006bd8a1795134ca31754c83fc303d522b8a072b74d92a279f0f3fb254aaf2d56[ALL] 028b8bc9265a9860f93998f735e6821a73f90c1baafac40bea0038b51d88ecbf8f"}, "vout": 1, "txid": "8e57b465abbbf99c2104e0e9fdc029531e2cec1dd60bc69359fd5f0cc4c035c6"}, {"sequence": 4294967294, "scriptSig": {"hex": "47304402204d183eef2ed7b85437d356d99e182451889fbba7ca7976da22c487e1190008eb02202669aeb44a60a414ea03876426551e5f0f747532be99b222b84d38c2c66800780121028b8bc9265a9860f93998f735e6821a73f90c1baafac40bea0038b51d88ecbf8f", "asm": "304402204d183eef2ed7b85437d356d99e182451889fbba7ca7976da22c487e1190008eb02202669aeb44a60a414ea03876426551e5f0f747532be99b222b84d38c2c6680078[ALL] 028b8bc9265a9860f93998f735e6821a73f90c1baafac40bea0038b51d88ecbf8f"}, "vout": 1, "txid": "a139c41a0f270bb34ec3599388d669bb81d2f9573c9bde647bf3eeac9172bdc7"}], "txid": "f7b620134e8f71502068968f06354f34d899057bb3fa2bcbcdbedc2026ecafbe", "blocktime": 1537874412, "version": 1, "confirmations": 11468, "time": 1537874412, "locktime": 542997, "vsize": 1141, "size": 1141}