{"hash": "f8b8f4838b51e6a00ebc444a68da757191aa2c960ac52f4d7fc1e83a16be8b2d", "blockhash": "0000000000000000001f76057863aec43deb6fa401d9628bb513d65a8098bfab", "vout": [{"scriptPubKey": {"reqSigs": 1, "hex": "a91479a93512ea2281185a64407968f5fcf698bfce3587", "addresses": ["3CnJPV8v3wTpC1LaNkA4Ysqmv5N1B1t8qh"], "asm": "OP_HASH160 79a93512ea2281185a64407968f5fcf698bfce35 OP_EQUAL", "type": "scripthash"}, "value": 0.02556947, "n": 0}, {"scriptPubKey": {"reqSigs": 1, "hex": "a91445459116472e8cccc2f871b0dab2bdb92d0fee3f87", "addresses": ["381HtMy5tXtegA4rKw8bNidd5QxErPKwjY"], "asm": "OP_HASH160 45459116472e8cccc2f871b0dab2bdb92d0fee3f OP_EQUAL", "type": "scripthash"}, "value": 0.01020992, "n": 1}], "hex": "020000000001026b85af7e0fcc0328435a0f485bb6530ba753e24e8b6012b9301b626ebc4c976a000000001716001400e10124324b2ec6e0eb8fa4148399ff2b551310feffffffbb32c225ce9e2ce263506ded1d511cea78d6aec950e4a9ebe8094af22e65380e00000000171600146318c4776967ffeaedf2d4a0e01c0b404484ddaffeffffff02130427000000000017a91479a93512ea2281185a64407968f5fcf698bfce358740940f000000000017a91445459116472e8cccc2f871b0dab2bdb92d0fee3f87024730440220387c31631ff5e39d3541ae697866d1b30af4649cc976d7aa74ea5d1f3249bd1202205a25a98bd5c44fffd90e8ed6da1e51d9a1a42053319104f4510f33b0a0805952012102bf625e7dfb3a41aae76bc0f4825a6bb9a87d957338a3ec4299ae3266fb704f0d02483045022100f771ff7d35cc30fc9c948fc93393d9d3e8d51e4ce98fbff591cb5adda9d47e9102203302e93aa8adebcd1864ca1b1d20ff73d831de7fd1a9f033688f37c028c47ab901210205b11f7c2960852a8bc60ab23e36bde0e1392b081b39eccabdbff4dbbcb69bc614490800", "vin": [{"txinwitness": ["30440220387c31631ff5e39d3541ae697866d1b30af4649cc976d7aa74ea5d1f3249bd1202205a25a98bd5c44fffd90e8ed6da1e51d9a1a42053319104f4510f33b0a080595201", "02bf625e7dfb3a41aae76bc0f4825a6bb9a87d957338a3ec4299ae3266fb704f0d"], "sequence": 4294967294, "scriptSig": {"hex": "16001400e10124324b2ec6e0eb8fa4148399ff2b551310", "asm": "001400e10124324b2ec6e0eb8fa4148399ff2b551310"}, "vout": 0, "txid": "6a974cbc6e621b30b912608b4ee253a70b53b65b480f5a432803cc0f7eaf856b"}, {"txinwitness": ["3045022100f771ff7d35cc30fc9c948fc93393d9d3e8d51e4ce98fbff591cb5adda9d47e9102203302e93aa8adebcd1864ca1b1d20ff73d831de7fd1a9f033688f37c028c47ab901", "0205b11f7c2960852a8bc60ab23e36bde0e1392b081b39eccabdbff4dbbcb69bc6"], "sequence": 4294967294, "scriptSig": {"hex": "1600146318c4776967ffeaedf2d4a0e01c0b404484ddaf", "asm": "00146318c4776967ffeaedf2d4a0e01c0b404484ddaf"}, "vout": 0, "txid": "0e38652ef24a09e8eba9e450c9aed678ea1c511ded6d5063e22c9ece25c232bb"}], "txid": "f7b8e6dd446a386a0e8df4058a23d5635ac70f1fb5629dd96de0f5f20fc45d66", "blocktime": 1537873891, "version": 2, "confirmations": 11479, "time": 1537873891, "locktime": 542996, "vsize": 257, "size": 419}