{"hash": "f7cfd0f8186d17bf604553a58d82b7e4803e737d1d077aefc59dd7e05a64ce38", "blockhash": "0000000000000000000dcc0f55137456b1a82d3642486a52398922ac4d620174", "vout": [{"scriptPubKey": {"reqSigs": 1, "hex": "76a9145db545a5074142b2f7574538b3bfd1a933e8276c88ac", "addresses": ["19YUzqtwN918YE78KV9AKVRdbbBxL69mtx"], "asm": "OP_DUP OP_HASH160 5db545a5074142b2f7574538b3bfd1a933e8276c OP_EQUALVERIFY OP_CHECKSIG", "type": "pubkeyhash"}, "value": 0.0205495, "n": 0}], "hex": "02000000012a8a9a8061c2fb20b9037c0e4d5dd7fb7ba38964cc513ff53936f09a2a99e7c60b0000006a47304402205a8e657c9900eb66324da7b2e6102643371aa791dff4c6211b6de6e01568f9410220242453da51c8f5bc22e7d9c4960c367edc24011a69b3d14457dd5202aa29a30301210285ac982d3c31c8cf1a7cc76b75cdd8d742b0996b4cfe07f296d3726e12e9aed3ffffffff01265b1f00000000001976a9145db545a5074142b2f7574538b3bfd1a933e8276c88ac00000000", "vin": [{"sequence": 4294967295, "scriptSig": {"hex": "47304402205a8e657c9900eb66324da7b2e6102643371aa791dff4c6211b6de6e01568f9410220242453da51c8f5bc22e7d9c4960c367edc24011a69b3d14457dd5202aa29a30301210285ac982d3c31c8cf1a7cc76b75cdd8d742b0996b4cfe07f296d3726e12e9aed3", "asm": "304402205a8e657c9900eb66324da7b2e6102643371aa791dff4c6211b6de6e01568f9410220242453da51c8f5bc22e7d9c4960c367edc24011a69b3d14457dd5202aa29a303[ALL] 0285ac982d3c31c8cf1a7cc76b75cdd8d742b0996b4cfe07f296d3726e12e9aed3"}, "vout": 11, "txid": "c6e7992a9af03639f53f51cc6489a37bfbd75d4d0e7c03b920fbc261809a8a2a"}], "txid": "f7cfd0f8186d17bf604553a58d82b7e4803e737d1d077aefc59dd7e05a64ce38", "blocktime": 1537870268, "version": 2, "confirmations": 11518, "time": 1537870268, "locktime": 0, "vsize": 191, "size": 191}