{"hash": "7d05b3a2fe8be5a66347ba3b660029b2b4052418bc7735ec6f58b44655eb4edc", "blockhash": "0000000000000000001f76057863aec43deb6fa401d9628bb513d65a8098bfab", "vout": [{"scriptPubKey": {"reqSigs": 1, "hex": "a91472ed97987a91edf1f07a35be3dcfc2313fc1394187", "addresses": ["3CAhac6G5GEmJsk4vwsVfiaKEWrBdRgeoX"], "asm": "OP_HASH160 72ed97987a91edf1f07a35be3dcfc2313fc13941 OP_EQUAL", "type": "scripthash"}, "value": 0.00997984, "n": 0}, {"scriptPubKey": {"reqSigs": 1, "hex": "a914f66e347e54cb2a5363859e4403aa248c68eb36dd87", "addresses": ["3QA2Av3Sa7mn9Xbv15n1F1jqM2WKP8KoUD"], "asm": "OP_HASH160 f66e347e54cb2a5363859e4403aa248c68eb36dd OP_EQUAL", "type": "scripthash"}, "value": 0.0094334, "n": 1}], "hex": "02000000000101c70f4c6f11861fdcbb5209f3c7952038121f4acc6d2e9f912e10d64495b1d8810000000017160014d07a6fe45af4833c47c9ecc4c8dcfc4bf95796a6feffffff02603a0f000000000017a91472ed97987a91edf1f07a35be3dcfc2313fc1394187ec640e000000000017a914f66e347e54cb2a5363859e4403aa248c68eb36dd8702473044022059ecce10185cc011f826505e6e3ff687d11a3d5f78757ea9b7883854006ebe8902202832e9e092e94d9d2709546837496242f3c6c02f3d874a157c7be040c0c4ca1c012102f88fb19bd47d8241186597525797a0a9c0762c3b31a43530d2f3c14b41bb7a6f14490800", "vin": [{"txinwitness": ["3044022059ecce10185cc011f826505e6e3ff687d11a3d5f78757ea9b7883854006ebe8902202832e9e092e94d9d2709546837496242f3c6c02f3d874a157c7be040c0c4ca1c01", "02f88fb19bd47d8241186597525797a0a9c0762c3b31a43530d2f3c14b41bb7a6f"], "sequence": 4294967294, "scriptSig": {"hex": "160014d07a6fe45af4833c47c9ecc4c8dcfc4bf95796a6", "asm": "0014d07a6fe45af4833c47c9ecc4c8dcfc4bf95796a6"}, "vout": 0, "txid": "81d8b19544d6102e919f2e6dcc4a1f12382095c7f30952bbdc1f86116f4c0fc7"}], "txid": "f7d16b6248ab51b9778f8a256a65679cd648f269fce0d10f0a7dc3feaf0d4ac7", "blocktime": 1537873891, "version": 2, "confirmations": 11475, "time": 1537873891, "locktime": 542996, "vsize": 166, "size": 247}