{"hash": "a96b1201f34ed20765d541addcfb0aea108e53ac9222cfb7427bf525074cccd6", "blockhash": "000000000000000000022b45ed06c6f4ccd3cf7fb5ba4856ebd2e58215665228", "vout": [{"scriptPubKey": {"reqSigs": 1, "hex": "76a914bc93acc61d4505b3f7fbdac34fc68f684f66ddf488ac", "addresses": ["1JC6whN3kX1gh3K7NQJj1aBXdGQfhMnYsa"], "asm": "OP_DUP OP_HASH160 bc93acc61d4505b3f7fbdac34fc68f684f66ddf4 OP_EQUALVERIFY OP_CHECKSIG", "type": "pubkeyhash"}, "value": 0.007, "n": 0}, {"scriptPubKey": {"reqSigs": 1, "hex": "a914627aa52932456d89054bd84f86246af3b71b93a887", "addresses": ["3Afj4stdiLG9EktGrMbm252ySonnhYaz8v"], "asm": "OP_HASH160 627aa52932456d89054bd84f86246af3b71b93a8 OP_EQUAL", "type": "scripthash"}, "value": 0.7954889, "n": 1}], "hex": "01000000000101a08ddab51a426686c96b5e088f8c0269258e36fa69e73e3810b1530521bdbd7c01000000232200205fdd641234b13964b223bd85ad2a4a667ca2099df3d42a1d3b45706a8d81abf0ffffffff0260ae0a00000000001976a914bc93acc61d4505b3f7fbdac34fc68f684f66ddf488acdad1bd040000000017a914627aa52932456d89054bd84f86246af3b71b93a8870400483045022100f03d44555ed4964488b06481da8cdf4874a5e349b08b30b05e8de1c902108feb02205fb20ccfd8056a433379bebacba54362bbc831e32e27b33198849c7f0a39a75c01473044022064aaf7e9b841195f8a89d042b898ccefd009733660c52fe6bc0030d0816c7014022008f6fd5dc8ad9d391190cd585437f176441c23f76ace922b63b29cdc74a577c50147522103dcde3832fa56def7b4e783faad1b8af85c3cdd74a5ff4f3c7c216b1075c18da12103c70ae8ded79be1afda73b9ce5ea14a3878908ee160d66a9a717e792bb6db276952ae00000000", "vin": [{"txinwitness": ["", "3045022100f03d44555ed4964488b06481da8cdf4874a5e349b08b30b05e8de1c902108feb02205fb20ccfd8056a433379bebacba54362bbc831e32e27b33198849c7f0a39a75c01", "3044022064aaf7e9b841195f8a89d042b898ccefd009733660c52fe6bc0030d0816c7014022008f6fd5dc8ad9d391190cd585437f176441c23f76ace922b63b29cdc74a577c501", "522103dcde3832fa56def7b4e783faad1b8af85c3cdd74a5ff4f3c7c216b1075c18da12103c70ae8ded79be1afda73b9ce5ea14a3878908ee160d66a9a717e792bb6db276952ae"], "sequence": 4294967295, "scriptSig": {"hex": "2200205fdd641234b13964b223bd85ad2a4a667ca2099df3d42a1d3b45706a8d81abf0", "asm": "00205fdd641234b13964b223bd85ad2a4a667ca2099df3d42a1d3b45706a8d81abf0"}, "vout": 1, "txid": "7cbdbd210553b110383ee769fa368e2569028c8f085e6bc98666421ab5da8da0"}], "txid": "f7d20d671b1374c6fb6f34cf4d2b158d130673c3212ba8f09241a5a27e41a3fc", "blocktime": 1537869901, "version": 1, "confirmations": 11523, "time": 1537869901, "locktime": 0, "vsize": 208, "size": 373}