{"hash": "f7498f51adf6d2f1e390e9729482b97d57441af92976f50649c5274838f20e04", "blockhash": "0000000000000000001cda96e906b7601b7a6fb1a3b62bca570a9e5d8f4b3de1", "vout": [{"scriptPubKey": {"reqSigs": 1, "hex": "a914c0ce3d2d72afcb8f6df5ced9849bb4a23872a3c187", "addresses": ["3KGUj7MZJw9ePvJrb8KeU3Ap6GZnMGfbaS"], "asm": "OP_HASH160 c0ce3d2d72afcb8f6df5ced9849bb4a23872a3c1 OP_EQUAL", "type": "scripthash"}, "value": 0.00385704, "n": 0}, {"scriptPubKey": {"reqSigs": 1, "hex": "a91442e1efd327c9b5c5d7675c92035bb03f0141745187", "addresses": ["37nfBZzpcoZJ7kkfAsvBs4Hvvx6PRUP1oU"], "asm": "OP_HASH160 42e1efd327c9b5c5d7675c92035bb03f01417451 OP_EQUAL", "type": "scripthash"}, "value": 6.34260477, "n": 1}], "hex": "020000000001010fef6f9a076778b27b4736afc9f28ce43b5e3821028c0897434cc16259201ea90100000017160014a984bd1f1a12d9a4ac44116a772b4e074306471ffdffffff02a8e205000000000017a914c0ce3d2d72afcb8f6df5ced9849bb4a23872a3c187fd0bce250000000017a91442e1efd327c9b5c5d7675c92035bb03f014174518702483045022100a627d101e77b1c9ddca6fc5009018f6dbf7f7aa90a16304a9972fa8d7521e2c8022079ef1ee1bc9aa167bd182d9c301c1c5d970b70d4a6c5e5f5beb8f103b38e690701210265269bdb8e332b30276617fb747258395a774fb77fbd0e50330a638f518daac413490800", "vin": [{"txinwitness": ["3045022100a627d101e77b1c9ddca6fc5009018f6dbf7f7aa90a16304a9972fa8d7521e2c8022079ef1ee1bc9aa167bd182d9c301c1c5d970b70d4a6c5e5f5beb8f103b38e690701", "0265269bdb8e332b30276617fb747258395a774fb77fbd0e50330a638f518daac4"], "sequence": 4294967293, "scriptSig": {"hex": "160014a984bd1f1a12d9a4ac44116a772b4e074306471f", "asm": "0014a984bd1f1a12d9a4ac44116a772b4e074306471f"}, "vout": 1, "txid": "a91e205962c14c4397088c0221385e3be48cf2c9af36477bb27867079a6fef0f"}], "txid": "f7d4dfb3c02a358fb0eed571316f654691f6e7e1421a6ffae83187f6b0e135d2", "blocktime": 1537873282, "version": 2, "confirmations": 11484, "time": 1537873282, "locktime": 542995, "vsize": 166, "size": 248}