{"hash": "3acaa63d3511d3746b030996261f02d99734e082cab14428dc6e8422834735e3", "blockhash": "000000000000000000022b45ed06c6f4ccd3cf7fb5ba4856ebd2e58215665228", "vout": [{"scriptPubKey": {"reqSigs": 1, "hex": "76a914decddfe0e6334715cb16828dc350bf098b783c7888ac", "addresses": ["1MK5dzx9vHZNzbg4GfHQLmjUVCNhhaxQo4"], "asm": "OP_DUP OP_HASH160 decddfe0e6334715cb16828dc350bf098b783c78 OP_EQUALVERIFY OP_CHECKSIG", "type": "pubkeyhash"}, "value": 0.00599524, "n": 0}, {"scriptPubKey": {"reqSigs": 1, "hex": "0014520e084903f59c6f190a420c64fe58160b62a4ff", "addresses": ["bc1q2g8qsjgr7kwx7xg2ggxxfljczc9k9f8lmmx34r"], "asm": "0 520e084903f59c6f190a420c64fe58160b62a4ff", "type": "witness_v0_keyhash"}, "value": 0.00025275, "n": 1}], "hex": "0100000000010106ee13a1142689e9da9d1225f63e5cff23bc5a72ab0d13c7b5e05b7896cdc5240100000000ffffffff02e4250900000000001976a914decddfe0e6334715cb16828dc350bf098b783c7888acbb62000000000000160014520e084903f59c6f190a420c64fe58160b62a4ff024730440220373f51ab11297bfc911e00a7a3e82ea431c84badd91b6433eaf274c10cd599b1022053ee45970e0b20dcdac2683d229f211490efdf622ea6f8116e9c02e0a3fd1439012103a8706deebb8db4822533d8c4faf75c00fbf12da1b09fb059ab7ed2c7b736588300000000", "vin": [{"txinwitness": ["30440220373f51ab11297bfc911e00a7a3e82ea431c84badd91b6433eaf274c10cd599b1022053ee45970e0b20dcdac2683d229f211490efdf622ea6f8116e9c02e0a3fd143901", "03a8706deebb8db4822533d8c4faf75c00fbf12da1b09fb059ab7ed2c7b7365883"], "sequence": 4294967295, "scriptSig": {"hex": "", "asm": ""}, "vout": 1, "txid": "24c5cd96785be0b5c7130dab725abc23ff5c3ef625129ddae9892614a113ee06"}], "txid": "f7dc05e41443fc177a7f24a2ff15c6022874f5de42c3b175334af0f3867a5cec", "blocktime": 1537869901, "version": 1, "confirmations": 11523, "time": 1537869901, "locktime": 0, "vsize": 144, "size": 225}