{"hash": "05f6cf589322018dd9f9420b851e52d1bbbcc0433116423f7c79826494308960", "blockhash": "00000000000000000024a2167bbff67b0be802c0b01cdd79e6331c2be6459f87", "vout": [{"scriptPubKey": {"reqSigs": 1, "hex": "76a914309bc444e16d4b5a06b94127d2b271e72f3a8d8c88ac", "addresses": ["15S234qrsJGixGptX3FDsqGfN4qWk2EAZ3"], "asm": "OP_DUP OP_HASH160 309bc444e16d4b5a06b94127d2b271e72f3a8d8c OP_EQUALVERIFY OP_CHECKSIG", "type": "pubkeyhash"}, "value": 0.077469, "n": 0}, {"scriptPubKey": {"reqSigs": 1, "hex": "a914265a28bb2dc5386b16db854218301a72d91ec43e87", "addresses": ["35BocCRjePm3c1C83FacqKwSNqY7n9Kuio"], "asm": "OP_HASH160 265a28bb2dc5386b16db854218301a72d91ec43e OP_EQUAL", "type": "scripthash"}, "value": 1.00308321, "n": 1}], "hex": "01000000000101babb68c5c6787c26f343a5f9475e4bbe05b82e3e04af7b2cfe985a42a97e5496000000002322002032872eddaed4d291aa4e155f38e07428a44be70d54b97c4d7d0387f162693fd7ffffffff0254357600000000001976a914309bc444e16d4b5a06b94127d2b271e72f3a8d8c88ac6195fa050000000017a914265a28bb2dc5386b16db854218301a72d91ec43e8704004730440220217ef69b7fd297a4851914e2d18bc73454e0bf50de8b19e9e13cbf1ad8d159f8022036e693b5862a8ac12d29950c6fc1503f5b66a28345468f85b4832b146fbdc5710147304402206c9141d4394c39757838eeab9732f445bab6e4c83cddf371ffbb59dc5d9e0978022048dfd54463e92edb92a2182e2e0e4f2d43e0f0537b641b30a164f0caab905ffe0147522103ad67e8bf9a0ff0fb83128390f47a2b7330bc9e51bffee2cb6846bb50b61a2af22102323233173db696435aec5b35a509b03c6f719b7a38acef262648cf9518535adb52ae00000000", "vin": [{"txinwitness": ["", "30440220217ef69b7fd297a4851914e2d18bc73454e0bf50de8b19e9e13cbf1ad8d159f8022036e693b5862a8ac12d29950c6fc1503f5b66a28345468f85b4832b146fbdc57101", "304402206c9141d4394c39757838eeab9732f445bab6e4c83cddf371ffbb59dc5d9e0978022048dfd54463e92edb92a2182e2e0e4f2d43e0f0537b641b30a164f0caab905ffe01", "522103ad67e8bf9a0ff0fb83128390f47a2b7330bc9e51bffee2cb6846bb50b61a2af22102323233173db696435aec5b35a509b03c6f719b7a38acef262648cf9518535adb52ae"], "sequence": 4294967295, "scriptSig": {"hex": "22002032872eddaed4d291aa4e155f38e07428a44be70d54b97c4d7d0387f162693fd7", "asm": "002032872eddaed4d291aa4e155f38e07428a44be70d54b97c4d7d0387f162693fd7"}, "vout": 0, "txid": "96547ea9425a98fe2c7baf043e2eb805be4b5e47f9a543f3267c78c6c568bbba"}], "txid": "f7dd79eb43aa6a5328656b5992e48a10c7692147f5879d3814a9ae9ae49f78ec", "blocktime": 1537870564, "version": 1, "confirmations": 11515, "time": 1537870564, "locktime": 0, "vsize": 207, "size": 372}