{"hash": "f64568c8deca3f941282f69015af05100f3171e7b008bd7d28a2032666e58ab3", "blockhash": "0000000000000000001e0dab787dd257d1dbfcb92a98c2207d5e1078be1f4165", "vout": [{"scriptPubKey": {"reqSigs": 1, "hex": "a914571f2de27b9f599612ca2c6799c32ece92587d5187", "addresses": ["39dg4c1NAGJkwfEHWAJc6Fw9EhcqjBqJcC"], "asm": "OP_HASH160 571f2de27b9f599612ca2c6799c32ece92587d51 OP_EQUAL", "type": "scripthash"}, "value": 0.11295451, "n": 0}, {"scriptPubKey": {"reqSigs": 1, "hex": "a91481d21e47182c14e951402d4f2b789bebec4909cf87", "addresses": ["3DXSoZdU22GpHmRPWkAHoCiJAiiNJD74Py"], "asm": "OP_HASH160 81d21e47182c14e951402d4f2b789bebec4909cf OP_EQUAL", "type": "scripthash"}, "value": 0.00988844, "n": 1}], "hex": "020000000001042594aa747e22f27903ca38a240271278cfe3dc20b4288f6e86468b43234500270000000017160014951143b354e78bdc4e4a04f7893bb7af0a312ce7feffffff2ab49a4da5e54e844637c0a259f987dbaf6dd2dd073612035e0518eb9999d288010000001716001466a03dabe278cd978809e84c031d41abc70baa2afeffffff3b30b2f6390360eebc55741f7a179317d5af47033b8a41ad6c76bc09bca6a3880000000017160014ac21c4ce15bc2e04fcbfd86f6489bb6dae265cbbfeffffffa74ee35b8fda77e562535148ab610925bc60f53feedd3a488cb0aee195f701850000000017160014325d48820b97de8c40ac58a201c405981d339f8bfeffffff02db5aac000000000017a914571f2de27b9f599612ca2c6799c32ece92587d5187ac160f000000000017a91481d21e47182c14e951402d4f2b789bebec4909cf8702483045022100e6d6a424626b93d9a4a167210fff2fd43e80584b8441fe5d8998f708b5c302cd02207b34f5b5e4ba64f240287f248eb51e4a2e694c700b91cd03e01efbf3d2b91581012102a13f598e28676deeb66f15ab696f44398f57904b13dd531879936651c3055d360247304402207a08b6700dff897d6394221598b05120e096b72955ccd8fbcd4bb5020b48280602207c3e339110c24112a265af0c12d13f32285d7dc788fdf14fada986fe57084bee012102ffcc4160bd3ee1ac5973af9d6cef29d4a6429c635c70ad2921e850bcb62f571402483045022100bcd54b8959b40415f22ec1e28980625b11c22655c6955f55d847870c9b85137f02202014309c38026eed819adf6dadf7f8a5939913dafefdc7ea59001baaf8f69d3601210313cde926f53f6f2ab10024935c617e52c3051cbd0ed0f8a4631f76ac475629010247304402207ec38d72426afb19986b85898f48feb1551611301cb5cc712e022b41996d0cca02200dc28562f937127d5c250c488242d8dfda20536a02ba364c37687ac32d942bf701210233f1190742f6f7a0340a6131ffea26760e4b6cb8e64732bd22693ecf9d0522c912490800", "vin": [{"txinwitness": ["3045022100e6d6a424626b93d9a4a167210fff2fd43e80584b8441fe5d8998f708b5c302cd02207b34f5b5e4ba64f240287f248eb51e4a2e694c700b91cd03e01efbf3d2b9158101", "02a13f598e28676deeb66f15ab696f44398f57904b13dd531879936651c3055d36"], "sequence": 4294967294, "scriptSig": {"hex": "160014951143b354e78bdc4e4a04f7893bb7af0a312ce7", "asm": "0014951143b354e78bdc4e4a04f7893bb7af0a312ce7"}, "vout": 0, "txid": "27004523438b46866e8f28b420dce3cf78122740a238ca0379f2227e74aa9425"}, {"txinwitness": ["304402207a08b6700dff897d6394221598b05120e096b72955ccd8fbcd4bb5020b48280602207c3e339110c24112a265af0c12d13f32285d7dc788fdf14fada986fe57084bee01", "02ffcc4160bd3ee1ac5973af9d6cef29d4a6429c635c70ad2921e850bcb62f5714"], "sequence": 4294967294, "scriptSig": {"hex": "16001466a03dabe278cd978809e84c031d41abc70baa2a", "asm": "001466a03dabe278cd978809e84c031d41abc70baa2a"}, "vout": 1, "txid": "88d29999eb18055e03123607ddd26dafdb87f959a2c03746844ee5a54d9ab42a"}, {"txinwitness": ["3045022100bcd54b8959b40415f22ec1e28980625b11c22655c6955f55d847870c9b85137f02202014309c38026eed819adf6dadf7f8a5939913dafefdc7ea59001baaf8f69d3601", "0313cde926f53f6f2ab10024935c617e52c3051cbd0ed0f8a4631f76ac47562901"], "sequence": 4294967294, "scriptSig": {"hex": "160014ac21c4ce15bc2e04fcbfd86f6489bb6dae265cbb", "asm": "0014ac21c4ce15bc2e04fcbfd86f6489bb6dae265cbb"}, "vout": 0, "txid": "88a3a6bc09bc766cad418a3b0347afd51793177a1f7455bcee600339f6b2303b"}, {"txinwitness": ["304402207ec38d72426afb19986b85898f48feb1551611301cb5cc712e022b41996d0cca02200dc28562f937127d5c250c488242d8dfda20536a02ba364c37687ac32d942bf701", "0233f1190742f6f7a0340a6131ffea26760e4b6cb8e64732bd22693ecf9d0522c9"], "sequence": 4294967294, "scriptSig": {"hex": "160014325d48820b97de8c40ac58a201c405981d339f8b", "asm": "0014325d48820b97de8c40ac58a201c405981d339f8b"}, "vout": 0, "txid": "8501f795e1aeb08c483addee3ff560bc250961ab48515362e577da8f5be34ea7"}], "txid": "f7e8d13f5e995bc2d7c8a524ca36973ad1bb246d1da10c9cdb1594e36c535c4e", "blocktime": 1537872475, "version": 2, "confirmations": 11486, "time": 1537872475, "locktime": 542994, "vsize": 438, "size": 762}