{"hash": "f7f2702696999cbab45cb6832e9dc30c58787dcf1b6e06bb9dc42c1f4a2743ca", "blockhash": "0000000000000000001f0ddff1eddb255c1121bcd4da4f1bc9a0da00cae72433", "vout": [{"scriptPubKey": {"reqSigs": 1, "hex": "76a914fed4d2798d0d5b4cbdc323ad41612b7f7a771a8c88ac", "addresses": ["1QERasN6mvFwZXWgg7TdMvXRj7HmZ9SyPb"], "asm": "OP_DUP OP_HASH160 fed4d2798d0d5b4cbdc323ad41612b7f7a771a8c OP_EQUALVERIFY OP_CHECKSIG", "type": "pubkeyhash"}, "value": 4.578e-05, "n": 0}, {"scriptPubKey": {"reqSigs": 1, "hex": "76a914bd85c22a76aa9e4a40d8771aa0c96ba2631c31bd88ac", "addresses": ["1JH6wxVNfubYBGeV7HtHDsFWVnFjkFnugX"], "asm": "OP_DUP OP_HASH160 bd85c22a76aa9e4a40d8771aa0c96ba2631c31bd OP_EQUALVERIFY OP_CHECKSIG", "type": "pubkeyhash"}, "value": 2.0008, "n": 1}], "hex": "01000000028d8ef9361ccbc7d979d6003e7dcd7eb57d4683d27c59206987789c8040bff804000000006a473044022053eb45fbbf007acfaafb95e406f4d065b8c9c6520096723e434d056b4d698d39022038c73b827b88c033116072235d3b6c26268ec7d0233ce343690e74a1413bcd1b012102b36eae20a1b5735c6873b192701b87ff88337d28ebf4e147f6d1ac7cdf0d3e50ffffffff2a8b0f5a9331507bd20b3edaa21e516a1c1b53d1a28927c4d1638264d3f4149b000000006a473044022062c214e8c7187a2d928d8ee63c165b744936563a145fccc2640f1f5307afb1a302200dbbcddeb208ebe6b4b04274643ade5e902de029a72cb8090e97d6a1448ab076012103e745ed3ea3c24e94a5d8f0e11844a8cb7fc684d5e707d680d12729a0c333a8caffffffff02e2110000000000001976a914fed4d2798d0d5b4cbdc323ad41612b7f7a771a8c88ac80faec0b000000001976a914bd85c22a76aa9e4a40d8771aa0c96ba2631c31bd88ac00000000", "vin": [{"sequence": 4294967295, "scriptSig": {"hex": "473044022053eb45fbbf007acfaafb95e406f4d065b8c9c6520096723e434d056b4d698d39022038c73b827b88c033116072235d3b6c26268ec7d0233ce343690e74a1413bcd1b012102b36eae20a1b5735c6873b192701b87ff88337d28ebf4e147f6d1ac7cdf0d3e50", "asm": "3044022053eb45fbbf007acfaafb95e406f4d065b8c9c6520096723e434d056b4d698d39022038c73b827b88c033116072235d3b6c26268ec7d0233ce343690e74a1413bcd1b[ALL] 02b36eae20a1b5735c6873b192701b87ff88337d28ebf4e147f6d1ac7cdf0d3e50"}, "vout": 0, "txid": "04f8bf40809c78876920597cd283467db57ecd7d3e00d679d9c7cb1c36f98e8d"}, {"sequence": 4294967295, "scriptSig": {"hex": "473044022062c214e8c7187a2d928d8ee63c165b744936563a145fccc2640f1f5307afb1a302200dbbcddeb208ebe6b4b04274643ade5e902de029a72cb8090e97d6a1448ab076012103e745ed3ea3c24e94a5d8f0e11844a8cb7fc684d5e707d680d12729a0c333a8ca", "asm": "3044022062c214e8c7187a2d928d8ee63c165b744936563a145fccc2640f1f5307afb1a302200dbbcddeb208ebe6b4b04274643ade5e902de029a72cb8090e97d6a1448ab076[ALL] 03e745ed3ea3c24e94a5d8f0e11844a8cb7fc684d5e707d680d12729a0c333a8ca"}, "vout": 0, "txid": "9b14f4d3648263d1c42789a2d1531b1c6a511ea2da3e0bd27b5031935a0f8b2a"}], "txid": "f7f2702696999cbab45cb6832e9dc30c58787dcf1b6e06bb9dc42c1f4a2743ca", "blocktime": 1537872018, "version": 1, "confirmations": 11489, "time": 1537872018, "locktime": 0, "vsize": 372, "size": 372}