{"hash": "f7f2ce3984733d7506984725472fbfd4ae8b208cdf68ebadb1ccc28b7a03944a", "blockhash": "00000000000000000018f53835495a110e01622372bf6ae95dc86f2b0ab887b0", "vout": [{"scriptPubKey": {"reqSigs": 1, "hex": "76a9144b7fad7cac378fdbb35444d5f2c1f30123cd638988ac", "addresses": ["17tCdb7umVhPp8SdiiRR6QnPJBCLZUSHZ1"], "asm": "OP_DUP OP_HASH160 4b7fad7cac378fdbb35444d5f2c1f30123cd6389 OP_EQUALVERIFY OP_CHECKSIG", "type": "pubkeyhash"}, "value": 0.00074179, "n": 0}, {"scriptPubKey": {"reqSigs": 1, "hex": "76a914d343e86a6596c1e80c7d1c0acd0f1a62e25dff2788ac", "addresses": ["1LG4voHRg1Ff4n2q64ZjfnjGTUuvg6T8iN"], "asm": "OP_DUP OP_HASH160 d343e86a6596c1e80c7d1c0acd0f1a62e25dff27 OP_EQUALVERIFY OP_CHECKSIG", "type": "pubkeyhash"}, "value": 0.02183413, "n": 1}], "hex": "010000000100f8a713bb17b16e1ceafad646d12094b2321cde9af8a58a80cd33109b7bbdde0b0000006b483045022100f017536d264a380cb155efd9e7dd0173f5afbb453466c818832f32d11947d11f02201e849c489539d250d9b204197f14c7c6f3b03e27a2fae69fc227e30c98dca9d8012103bb6d121be5ef938500ab52fdecf855c6611853a30119c7eabba719cce45ffe26ffffffff02c3210100000000001976a9144b7fad7cac378fdbb35444d5f2c1f30123cd638988acf5502100000000001976a914d343e86a6596c1e80c7d1c0acd0f1a62e25dff2788ac00000000", "vin": [{"sequence": 4294967295, "scriptSig": {"hex": "483045022100f017536d264a380cb155efd9e7dd0173f5afbb453466c818832f32d11947d11f02201e849c489539d250d9b204197f14c7c6f3b03e27a2fae69fc227e30c98dca9d8012103bb6d121be5ef938500ab52fdecf855c6611853a30119c7eabba719cce45ffe26", "asm": "3045022100f017536d264a380cb155efd9e7dd0173f5afbb453466c818832f32d11947d11f02201e849c489539d250d9b204197f14c7c6f3b03e27a2fae69fc227e30c98dca9d8[ALL] 03bb6d121be5ef938500ab52fdecf855c6611853a30119c7eabba719cce45ffe26"}, "vout": 11, "txid": "debd7b9b1033cd808aa5f89ade1c32b29420d146d6faea1c6eb117bb13a7f800"}], "txid": "f7f2ce3984733d7506984725472fbfd4ae8b208cdf68ebadb1ccc28b7a03944a", "blocktime": 1537870928, "version": 1, "confirmations": 11514, "time": 1537870928, "locktime": 0, "vsize": 226, "size": 226}