{"hash": "b940e41d82c59fac68c0ee78b308fceab313d85fc2f97a9d0c554c403dd0ad5e", "blockhash": "0000000000000000001e0dab787dd257d1dbfcb92a98c2207d5e1078be1f4165", "vout": [{"scriptPubKey": {"reqSigs": 1, "hex": "76a9149a1b8f9b1fa2d2297863adb1cb11c71df455684888ac", "addresses": ["1F3r5We2zwNiSzG6GQUTTWnnPMCz2HJbJu"], "asm": "OP_DUP OP_HASH160 9a1b8f9b1fa2d2297863adb1cb11c71df4556848 OP_EQUALVERIFY OP_CHECKSIG", "type": "pubkeyhash"}, "value": 2.719e-05, "n": 0}, {"scriptPubKey": {"reqSigs": 1, "hex": "a9148ddb66c3371910a0ef8f38021cc4094e61e69f3a87", "addresses": ["3Ed62sPENkraPwpovPty9YMFGJ8FtTyv63"], "asm": "OP_HASH160 8ddb66c3371910a0ef8f38021cc4094e61e69f3a OP_EQUAL", "type": "scripthash"}, "value": 0.00040987, "n": 1}], "hex": "010000000001011a61c0be4efc262cbfa5f41d0de2c2a9cf549246aabf496b014c8a1715eee5b30100000023220020fdd23d707f55451c4e006c77b5e8df35a185a8e99f9bda70bf0ded7913bb1eb3ffffffff029f0a0000000000001976a9149a1b8f9b1fa2d2297863adb1cb11c71df455684888ac1ba000000000000017a9148ddb66c3371910a0ef8f38021cc4094e61e69f3a870400483045022100a4e2578a0edeea5234797591ffaf96babeb1844143ecc83239976448c20ed34b0220375ffcafce528e4d74b06b5a791b2dbbc1241b458e06e9e63f2a88732116fe290147304402201dd6e149d672cf484a2faf360732b56b44e86b4f6cf49870408ba7eac9c3c09c0220452650f8f4c22fbb7ba26fea3cacc6a733f3bdb99a5488b91ad24f203cf5fd1f014752210286c104577b978160849865bc23f9a6df9b53d41c8ffb486754b97b2a474a181c2103148c80a5bdfddb05ff5bcffc397c8ca748d8b435ec6a175bc9d7bfc7fc6f853752ae00000000", "vin": [{"txinwitness": ["", "3045022100a4e2578a0edeea5234797591ffaf96babeb1844143ecc83239976448c20ed34b0220375ffcafce528e4d74b06b5a791b2dbbc1241b458e06e9e63f2a88732116fe2901", "304402201dd6e149d672cf484a2faf360732b56b44e86b4f6cf49870408ba7eac9c3c09c0220452650f8f4c22fbb7ba26fea3cacc6a733f3bdb99a5488b91ad24f203cf5fd1f01", "52210286c104577b978160849865bc23f9a6df9b53d41c8ffb486754b97b2a474a181c2103148c80a5bdfddb05ff5bcffc397c8ca748d8b435ec6a175bc9d7bfc7fc6f853752ae"], "sequence": 4294967295, "scriptSig": {"hex": "220020fdd23d707f55451c4e006c77b5e8df35a185a8e99f9bda70bf0ded7913bb1eb3", "asm": "0020fdd23d707f55451c4e006c77b5e8df35a185a8e99f9bda70bf0ded7913bb1eb3"}, "vout": 1, "txid": "b3e5ee15178a4c016b49bfaa469254cfa9c2e20d1df4a5bf2c26fc4ebec0611a"}], "txid": "f7f829697ce8a9c1aad1e1d75d4b8fcca9d1c0bc778d0cd6a52e4e45cf6a651d", "blocktime": 1537872475, "version": 1, "confirmations": 11487, "time": 1537872475, "locktime": 0, "vsize": 208, "size": 373}