{"hash": "f7fb04cdf8064eccf14533c48b5100291302496eb3d9ef7a2584810b52e13cb3", "blockhash": "00000000000000000004ffacab907a6b429b9a5745fa0b75af4234bf69dd7176", "vout": [{"scriptPubKey": {"reqSigs": 1, "hex": "76a914980388a7dfc802a41567e80b55a0c17b011377b588ac", "addresses": ["1Ermwh84jxCTjifaYFv1s3aernwWxc7m9Y"], "asm": "OP_DUP OP_HASH160 980388a7dfc802a41567e80b55a0c17b011377b5 OP_EQUALVERIFY OP_CHECKSIG", "type": "pubkeyhash"}, "value": 0.00597609, "n": 0}, {"scriptPubKey": {"reqSigs": 1, "hex": "76a9142b4fff911f437f301aca5fc1d59cd491e108157388ac", "addresses": ["14x1tdTcsead5Rrkc8PDr3kbTwsVa2XRZY"], "asm": "OP_DUP OP_HASH160 2b4fff911f437f301aca5fc1d59cd491e1081573 OP_EQUALVERIFY OP_CHECKSIG", "type": "pubkeyhash"}, "value": 37.49240397, "n": 1}], "hex": "0100000001876f6abaf92cc39fca0b968f27f6e740f68d650128f99c2c40309f7e19f548f5000000006b483045022100db4edad70f4be9be0c43d50e002d6907335c475d33d48c020bf8119b6a512d2e02203051ca6f4d178a0fd4dd1082ed5d2713fca86c992da806bf727a1cab96407000012102e4e474ae53da68d1e8d3ed9e75dd730af3682acff6882dc16981120d5ace87f2ffffffff02691e0900000000001976a914980388a7dfc802a41567e80b55a0c17b011377b588ac4dde78df000000001976a9142b4fff911f437f301aca5fc1d59cd491e108157388ac00000000", "vin": [{"sequence": 4294967295, "scriptSig": {"hex": "483045022100db4edad70f4be9be0c43d50e002d6907335c475d33d48c020bf8119b6a512d2e02203051ca6f4d178a0fd4dd1082ed5d2713fca86c992da806bf727a1cab96407000012102e4e474ae53da68d1e8d3ed9e75dd730af3682acff6882dc16981120d5ace87f2", "asm": "3045022100db4edad70f4be9be0c43d50e002d6907335c475d33d48c020bf8119b6a512d2e02203051ca6f4d178a0fd4dd1082ed5d2713fca86c992da806bf727a1cab96407000[ALL] 02e4e474ae53da68d1e8d3ed9e75dd730af3682acff6882dc16981120d5ace87f2"}, "vout": 0, "txid": "f548f5197e9f30402c9cf92801658df640e7f6278f960bca9fc32cf9ba6a6f87"}], "txid": "f7fb04cdf8064eccf14533c48b5100291302496eb3d9ef7a2584810b52e13cb3", "blocktime": 1537875543, "version": 1, "confirmations": 11464, "time": 1537875543, "locktime": 0, "vsize": 226, "size": 226}