{"hash": "34540fb89a0ff6a193d8a52a5d8b09117e187cc9c8e1afbe570da7f120fd3752", "blockhash": "00000000000000000018f53835495a110e01622372bf6ae95dc86f2b0ab887b0", "vout": [{"scriptPubKey": {"reqSigs": 1, "hex": "a914f33e3484e92419490ba4498b25c9701fd135373e87", "addresses": ["3PsAeFMi1UQnMQ34iyvmqGVaSd6TCDQAzQ"], "asm": "OP_HASH160 f33e3484e92419490ba4498b25c9701fd135373e OP_EQUAL", "type": "scripthash"}, "value": 0.01001467, "n": 0}, {"scriptPubKey": {"reqSigs": 1, "hex": "a9143ee013e4cd7ee147b334a53a9b1a21f35bd98f2b87", "addresses": ["37RUFdTpBpVemN5J9v5fm2d8vSzz56XyFF"], "asm": "OP_HASH160 3ee013e4cd7ee147b334a53a9b1a21f35bd98f2b OP_EQUAL", "type": "scripthash"}, "value": 0.15423364, "n": 1}], "hex": "02000000000108179e6e62441a6e8ebe5a05f6077185c2f0e879568522b72eac2c7d023d6a446f7c00000017160014605a4a3103515f84c6b990edaca21bc60a1d950cfeffffff4aed4cf3fab635910e522283144ddc3c12ee7b9a3360de4b28ec59801e2703640700000017160014d30cf04da6d71fd700fac52f7ced137a98a4b413feffffff58203a03f3df43f0fc61122f36d263474dbfe99d5ade0f6298cc4b5aaf55d513000000001716001412e500e3914ff45bec6f04f0e919f3f1bec893b0feffffff709fefb6b8806beb552ebd74308ea5728dcd168151e086b8f2e1c63934b7b8ab00000000171600141007828ae79523df3b2141e6a70a069c4156aec4feffffff7c98d783e9e4046c796a91a5bf781a798acbab1be54d0bbefba8091b4a03125d00000000171600148a88ad1fc1ffbd094f9eae0473f64a7e3c247fb4feffffff8dcd928bcaa5564a0b743738774f20142c7df0c81b0ac22750be410bc87db5a000000000171600143dbb26985430a41da3f41a965fde6ce67204d14efeffffff8f4aefaac50b32fd0ce1a47d5764bc5aab37941752a50d7516e252f48049595e0100000017160014b23c043e8dbb639c00a68ba06381794b26a8bb3cfeffffffd4acb8fc92888374002a1e8997b354ec2563e5865052341ec34c5c675618d7fb0000000017160014f0a009188e70f47bd3af7724dd6e477bb2ae8196feffffff02fb470f000000000017a914f33e3484e92419490ba4498b25c9701fd135373e878457eb000000000017a9143ee013e4cd7ee147b334a53a9b1a21f35bd98f2b8702483045022100f830d976d4d634fc1c061ed0d679166672aeedfe3714e3270d650842ec3f65b90220314b0bdccade64379a66592956218af0a23ec7d76f697658a1ca5ff18060f39101210270c8b964661211f8185eb52a311e7b8a889d3be643efd90b863e1792277c408802483045022100fb0cb458a2e635628f8a9bcbe4738f3c049a86ecf02d58002ac331ab5ca196a702206b3da068657d5dabaa8b320b3aaac6b5948dce8f37bf6cdd39e83b439aa68ee30121025ea5820d90d7499c029e8a5f75f864206c238465aef827c94b0ffb3e02ad181c02483045022100e3cb00b727f141978050da865b6edb02e0daa0871c165f3d001bf1bef3fce87d022019e839e0386c4b1a2be2e81b7fdb176d8dc0cf89b861b4ea6a74b44d5aa1279d012102e52a2d86526962e9ce9d1780dc17c5eb13599ab48b3de11eed163e10b0290b3e0248304502210081c4f46d0d2c25bf674d05969b7578adff2f17af607478eda8765eb25369bbc3022071957a36586d929b7d1793c8994677b56f5902908490701be3be9b91525711a10121023e9659e8058f1d78b2d6897e8e40fb443cc2f032f2353bab7bf7848779766cf802483045022100be48e1234ae63c0e5f597b06f4ca884e1c38c1fe7f46d4e093f1d348816291760220096b6fc76a5b36e062687816c4e9cf8bf1b8e8662af9567e87d2e5e38d5e4176012103e85072d3c1b9a3b94f1b837918f0a9da233dd0ec0dadbd5f879803b712ad92d102483045022100d59727564399e6ccb7a6ac85c5561fc6ea49b2afb63ec855ec6fdee1806c7d1c02205a6afc3f9f2d593676010826f8e6259e7206eed80eae3411890a3f2b07bdf414012102bcbe378ade29814abfcd9d23a556c0db81c6cc8a7064789791cc95b456bd0e850247304402201b42a53b2313626deb3dd7e3641404376ee4ca5b612e8a8cb097eaf928ee1e000220524e4ea79c348b9feaf596588f7294be7c2c1e625c40bfeaba06cbd38c53cef901210314ef643bbdd552ad99150ec6f01fa0863a96cad3ca5c2f9ed5f5ec9d82816b5902483045022100ccfee53f0af0e7a1d0ac48f7b3a817d2865de0dbb68ed25c40bb44d226d338790220348c283eb152cfc1eccfd89457683a9a3117554d9bfed2d4ad12835bc982a835012103e3bd5fbcdb06b0ab7f4eae0af42614be072db7724e972e7a277cd3ad563410640e490800", "vin": [{"txinwitness": ["3045022100f830d976d4d634fc1c061ed0d679166672aeedfe3714e3270d650842ec3f65b90220314b0bdccade64379a66592956218af0a23ec7d76f697658a1ca5ff18060f39101", "0270c8b964661211f8185eb52a311e7b8a889d3be643efd90b863e1792277c4088"], "sequence": 4294967294, "scriptSig": {"hex": "160014605a4a3103515f84c6b990edaca21bc60a1d950c", "asm": "0014605a4a3103515f84c6b990edaca21bc60a1d950c"}, "vout": 124, "txid": "6f446a3d027d2cac2eb722855679e8f0c2857107f6055abe8e6e1a44626e9e17"}, {"txinwitness": ["3045022100fb0cb458a2e635628f8a9bcbe4738f3c049a86ecf02d58002ac331ab5ca196a702206b3da068657d5dabaa8b320b3aaac6b5948dce8f37bf6cdd39e83b439aa68ee301", "025ea5820d90d7499c029e8a5f75f864206c238465aef827c94b0ffb3e02ad181c"], "sequence": 4294967294, "scriptSig": {"hex": "160014d30cf04da6d71fd700fac52f7ced137a98a4b413", "asm": "0014d30cf04da6d71fd700fac52f7ced137a98a4b413"}, "vout": 7, "txid": "6403271e8059ec284bde60339a7bee123cdc4d148322520e9135b6faf34ced4a"}, {"txinwitness": ["3045022100e3cb00b727f141978050da865b6edb02e0daa0871c165f3d001bf1bef3fce87d022019e839e0386c4b1a2be2e81b7fdb176d8dc0cf89b861b4ea6a74b44d5aa1279d01", "02e52a2d86526962e9ce9d1780dc17c5eb13599ab48b3de11eed163e10b0290b3e"], "sequence": 4294967294, "scriptSig": {"hex": "16001412e500e3914ff45bec6f04f0e919f3f1bec893b0", "asm": "001412e500e3914ff45bec6f04f0e919f3f1bec893b0"}, "vout": 0, "txid": "13d555af5a4bcc98620fde5a9de9bf4d4763d2362f1261fcf043dff3033a2058"}, {"txinwitness": ["304502210081c4f46d0d2c25bf674d05969b7578adff2f17af607478eda8765eb25369bbc3022071957a36586d929b7d1793c8994677b56f5902908490701be3be9b91525711a101", "023e9659e8058f1d78b2d6897e8e40fb443cc2f032f2353bab7bf7848779766cf8"], "sequence": 4294967294, "scriptSig": {"hex": "1600141007828ae79523df3b2141e6a70a069c4156aec4", "asm": "00141007828ae79523df3b2141e6a70a069c4156aec4"}, "vout": 0, "txid": "abb8b73439c6e1f2b886e0518116cd8d72a58e3074bd2e55eb6b80b8b6ef9f70"}, {"txinwitness": ["3045022100be48e1234ae63c0e5f597b06f4ca884e1c38c1fe7f46d4e093f1d348816291760220096b6fc76a5b36e062687816c4e9cf8bf1b8e8662af9567e87d2e5e38d5e417601", "03e85072d3c1b9a3b94f1b837918f0a9da233dd0ec0dadbd5f879803b712ad92d1"], "sequence": 4294967294, "scriptSig": {"hex": "1600148a88ad1fc1ffbd094f9eae0473f64a7e3c247fb4", "asm": "00148a88ad1fc1ffbd094f9eae0473f64a7e3c247fb4"}, "vout": 0, "txid": "5d12034a1b09a8fbbe0b4de51babcb8a791a78bfa5916a796c04e4e983d7987c"}, {"txinwitness": ["3045022100d59727564399e6ccb7a6ac85c5561fc6ea49b2afb63ec855ec6fdee1806c7d1c02205a6afc3f9f2d593676010826f8e6259e7206eed80eae3411890a3f2b07bdf41401", "02bcbe378ade29814abfcd9d23a556c0db81c6cc8a7064789791cc95b456bd0e85"], "sequence": 4294967294, "scriptSig": {"hex": "1600143dbb26985430a41da3f41a965fde6ce67204d14e", "asm": "00143dbb26985430a41da3f41a965fde6ce67204d14e"}, "vout": 0, "txid": "a0b57dc80b41be5027c20a1bc8f07d2c14204f773837740b4a56a5ca8b92cd8d"}, {"txinwitness": ["304402201b42a53b2313626deb3dd7e3641404376ee4ca5b612e8a8cb097eaf928ee1e000220524e4ea79c348b9feaf596588f7294be7c2c1e625c40bfeaba06cbd38c53cef901", "0314ef643bbdd552ad99150ec6f01fa0863a96cad3ca5c2f9ed5f5ec9d82816b59"], "sequence": 4294967294, "scriptSig": {"hex": "160014b23c043e8dbb639c00a68ba06381794b26a8bb3c", "asm": "0014b23c043e8dbb639c00a68ba06381794b26a8bb3c"}, "vout": 1, "txid": "5e594980f452e216750da552179437ab5abc64577da4e10cfd320bc5aaef4a8f"}, {"txinwitness": ["3045022100ccfee53f0af0e7a1d0ac48f7b3a817d2865de0dbb68ed25c40bb44d226d338790220348c283eb152cfc1eccfd89457683a9a3117554d9bfed2d4ad12835bc982a83501", "03e3bd5fbcdb06b0ab7f4eae0af42614be072db7724e972e7a277cd3ad56341064"], "sequence": 4294967294, "scriptSig": {"hex": "160014f0a009188e70f47bd3af7724dd6e477bb2ae8196", "asm": "0014f0a009188e70f47bd3af7724dd6e477bb2ae8196"}, "vout": 0, "txid": "fbd71856675c4cc31e34525086e56325ec54b397891e2a0074838892fcb8acd4"}], "txid": "f7ff8f812a5690f19e2e733d56c3747f1179c7451e0e20582162597a866c9df1", "blocktime": 1537870928, "version": 2, "confirmations": 11512, "time": 1537870928, "locktime": 542990, "vsize": 803, "size": 1451}