{"hash": "f8059a9d61f415983d910027cdf94414a876e5d704ef6f71ceff7682faebf782", "blockhash": "000000000000000000022b45ed06c6f4ccd3cf7fb5ba4856ebd2e58215665228", "vout": [{"scriptPubKey": {"reqSigs": 1, "hex": "76a9143a3524630f3ff50518a5099ff06e3dfb6fac318488ac", "addresses": ["16JmrWP1TH42j3RSnwAeTYKuH8ynLwUPjc"], "asm": "OP_DUP OP_HASH160 3a3524630f3ff50518a5099ff06e3dfb6fac3184 OP_EQUALVERIFY OP_CHECKSIG", "type": "pubkeyhash"}, "value": 0.0004767, "n": 0}, {"scriptPubKey": {"reqSigs": 1, "hex": "76a914197d414fe1fcdd7bc0af0ffcebc9b8786b756fd888ac", "addresses": ["13Kmwg7n7jAPuSMqTXTFYxZmLTRD59598c"], "asm": "OP_DUP OP_HASH160 197d414fe1fcdd7bc0af0ffcebc9b8786b756fd8 OP_EQUALVERIFY OP_CHECKSIG", "type": "pubkeyhash"}, "value": 0.00161736, "n": 1}], "hex": "01000000018e09173d463d85c2bd0eb689e358ca08c994bcccd2b6a651fe40d4839219d391010000006a47304402201e8810e39e2ea34bdb6716a949a8099e89dcc3983f7407cf6f626c8ed8285a8b02204bdadd96838492963540e0c8ed64e19c05034852848fa7e52076dd9f4638484e01210343a7f9871dc87e909201c4755acc3f51f29d2cb0dc2f61ef6c7a756ed94b98abffffffff0236ba0000000000001976a9143a3524630f3ff50518a5099ff06e3dfb6fac318488acc8770200000000001976a914197d414fe1fcdd7bc0af0ffcebc9b8786b756fd888ac00000000", "vin": [{"sequence": 4294967295, "scriptSig": {"hex": "47304402201e8810e39e2ea34bdb6716a949a8099e89dcc3983f7407cf6f626c8ed8285a8b02204bdadd96838492963540e0c8ed64e19c05034852848fa7e52076dd9f4638484e01210343a7f9871dc87e909201c4755acc3f51f29d2cb0dc2f61ef6c7a756ed94b98ab", "asm": "304402201e8810e39e2ea34bdb6716a949a8099e89dcc3983f7407cf6f626c8ed8285a8b02204bdadd96838492963540e0c8ed64e19c05034852848fa7e52076dd9f4638484e[ALL] 0343a7f9871dc87e909201c4755acc3f51f29d2cb0dc2f61ef6c7a756ed94b98ab"}, "vout": 1, "txid": "91d3199283d440fe51a6b6d2ccbc94c908ca58e389b60ebdc2853d463d17098e"}], "txid": "f8059a9d61f415983d910027cdf94414a876e5d704ef6f71ceff7682faebf782", "blocktime": 1537869901, "version": 1, "confirmations": 11524, "time": 1537869901, "locktime": 0, "vsize": 225, "size": 225}