{"hash": "7f718dfa2848a154590bf46e0fecb7a380ee2c132abf464b2d9a8d46a307b732", "blockhash": "0000000000000000000baef3f32e3676a92c3b2e5da21b426e4f302fc371ce76", "vout": [{"scriptPubKey": {"reqSigs": 1, "hex": "a91497161c0848eb52b2e6128ffd84668847a3f7d6b487", "addresses": ["3FTtShrfqnCuEvj8JMmWHY1HSafStR9ysi"], "asm": "OP_HASH160 97161c0848eb52b2e6128ffd84668847a3f7d6b4 OP_EQUAL", "type": "scripthash"}, "value": 0.01, "n": 0}, {"scriptPubKey": {"reqSigs": 1, "hex": "a9149a12f3625cc7c0a62119eaba054438c9eb89e56387", "addresses": ["3FjggodLiyDggDvnDs5idEurHWdMzEpEio"], "asm": "OP_HASH160 9a12f3625cc7c0a62119eaba054438c9eb89e563 OP_EQUAL", "type": "scripthash"}, "value": 0.0189917, "n": 1}], "hex": "020000000001015dbfef26fa30782cb176e2d77c2eeccdaa08d86a82cd22f385b935904ec22c3e0000000017160014648e0d13beab1723018e5e88dfea8c887b36fcf8fdffffff0240420f000000000017a91497161c0848eb52b2e6128ffd84668847a3f7d6b487a2fa1c000000000017a9149a12f3625cc7c0a62119eaba054438c9eb89e563870248304502210098174599b713e653d75f7df81cc755bef22e4d0cb2688975859f90c0c190c9b50220698754cb4aff02bf3c3e3673a50d68f39481d18c363ff7757f8bfd49f56a44a3012103ce12f96f31115d600ff5e22def5c3f0a1965f0ed7464cdd55d75aea6be329deb17490800", "vin": [{"txinwitness": ["304502210098174599b713e653d75f7df81cc755bef22e4d0cb2688975859f90c0c190c9b50220698754cb4aff02bf3c3e3673a50d68f39481d18c363ff7757f8bfd49f56a44a301", "03ce12f96f31115d600ff5e22def5c3f0a1965f0ed7464cdd55d75aea6be329deb"], "sequence": 4294967293, "scriptSig": {"hex": "160014648e0d13beab1723018e5e88dfea8c887b36fcf8", "asm": "0014648e0d13beab1723018e5e88dfea8c887b36fcf8"}, "vout": 0, "txid": "3e2cc24e9035b985f322cd826ad808aacdec2e7cd7e276b12c7830fa26efbf5d"}], "txid": "f8092c8f5d758da79241d173b388461604f9c123faf2216b0ef61d7b921f7156", "blocktime": 1537876114, "version": 2, "confirmations": 11460, "time": 1537876114, "locktime": 542999, "vsize": 166, "size": 248}