{"hash": "f80950bf61a6f4d5f1661bc8901a1c63b27fb6c9173f27f7b67433ff3c97a605", "blockhash": "0000000000000000001f76057863aec43deb6fa401d9628bb513d65a8098bfab", "vout": [{"scriptPubKey": {"reqSigs": 1, "hex": "76a914726b10f3c7c186c2d0c15e92d6d877076629de6c88ac", "addresses": ["1BRzHxgZMYrX73aU7FogKRUPyqQjatYJ11"], "asm": "OP_DUP OP_HASH160 726b10f3c7c186c2d0c15e92d6d877076629de6c OP_EQUALVERIFY OP_CHECKSIG", "type": "pubkeyhash"}, "value": 0.0046881, "n": 0}, {"scriptPubKey": {"reqSigs": 1, "hex": "76a914d74c7755ec9c709597af839b2a96a599f2a48ab288ac", "addresses": ["1LdPtCu2hjz4RCw8LAadtpgV4VLU9KHyja"], "asm": "OP_DUP OP_HASH160 d74c7755ec9c709597af839b2a96a599f2a48ab2 OP_EQUALVERIFY OP_CHECKSIG", "type": "pubkeyhash"}, "value": 0.06518369, "n": 1}], "hex": "010000000143d5ac91098d2e18187edd294a0151d5af81b936d0470124c0dc03ae40e52366010000006a4730440220104f990ddcae7216717dc86a1053e273919a442257adc29bbe2bf1c3a929a62002205918d8ea6a76793fa93b540b275aae9725264d24767fdb9a54ed09404c12d04001210264948d7ba9a9e323b27b4b4ba2862e7f8409e1833b36147f23823a704b5f38b6ffffffff024a270700000000001976a914726b10f3c7c186c2d0c15e92d6d877076629de6c88ac61766300000000001976a914d74c7755ec9c709597af839b2a96a599f2a48ab288ac00000000", "vin": [{"sequence": 4294967295, "scriptSig": {"hex": "4730440220104f990ddcae7216717dc86a1053e273919a442257adc29bbe2bf1c3a929a62002205918d8ea6a76793fa93b540b275aae9725264d24767fdb9a54ed09404c12d04001210264948d7ba9a9e323b27b4b4ba2862e7f8409e1833b36147f23823a704b5f38b6", "asm": "30440220104f990ddcae7216717dc86a1053e273919a442257adc29bbe2bf1c3a929a62002205918d8ea6a76793fa93b540b275aae9725264d24767fdb9a54ed09404c12d040[ALL] 0264948d7ba9a9e323b27b4b4ba2862e7f8409e1833b36147f23823a704b5f38b6"}, "vout": 1, "txid": "6623e540ae03dcc0240147d036b981afd551014a29dd7e18182e8d0991acd543"}], "txid": "f80950bf61a6f4d5f1661bc8901a1c63b27fb6c9173f27f7b67433ff3c97a605", "blocktime": 1537873891, "version": 1, "confirmations": 11478, "time": 1537873891, "locktime": 0, "vsize": 225, "size": 225}