{"hash": "de9eadff9efc799a237ba1b6f6b0842ee2966c7301a87bd00d11ee2eb74f345c", "blockhash": "0000000000000000000e13cef7c366c0283d82e591d1acd082e914b08063cdf1", "vout": [{"scriptPubKey": {"reqSigs": 1, "hex": "a9143b1d48c96b67a5af22eaf4afda806634e09b1c3f87", "addresses": ["375asa9AoWHCimT5UF6m8z6K5qMkHrAeuo"], "asm": "OP_HASH160 3b1d48c96b67a5af22eaf4afda806634e09b1c3f OP_EQUAL", "type": "scripthash"}, "value": 0.023002, "n": 0}, {"scriptPubKey": {"reqSigs": 1, "hex": "a914dee0a1cc9f055700143e0f4ecee53180ab3530dc87", "addresses": ["3N1V2qWA5hpScEmS72pMooYRmXUiLmwPQQ"], "asm": "OP_HASH160 dee0a1cc9f055700143e0f4ecee53180ab3530dc OP_EQUAL", "type": "scripthash"}, "value": 1.02676144, "n": 1}], "hex": "020000000001019eba8a4aa797d149d39b7a6f75160a06c4a44981dd7cbbba009273621d8028950000000017160014cb5dbe423de4d42b6425c6921084c6197a5d2937ffffffff02281923000000000017a9143b1d48c96b67a5af22eaf4afda806634e09b1c3f87b0b61e060000000017a914dee0a1cc9f055700143e0f4ecee53180ab3530dc87024830450221009d58e05df725c721803efdf41462c94113a807f6a5f5de4063ec78adb8b5f28002202906d4b2716a5ca551f319a33f1d03546ae8be5ca9dcc43b51b4afb789f6d147012102acecad485eda786cbe0422823b7594aea6854abb5ec85e267f1c4b87f3f758f700000000", "vin": [{"txinwitness": ["30450221009d58e05df725c721803efdf41462c94113a807f6a5f5de4063ec78adb8b5f28002202906d4b2716a5ca551f319a33f1d03546ae8be5ca9dcc43b51b4afb789f6d14701", "02acecad485eda786cbe0422823b7594aea6854abb5ec85e267f1c4b87f3f758f7"], "sequence": 4294967295, "scriptSig": {"hex": "160014cb5dbe423de4d42b6425c6921084c6197a5d2937", "asm": "0014cb5dbe423de4d42b6425c6921084c6197a5d2937"}, "vout": 0, "txid": "9528801d62739200babb7cdd8149a4c4060a16756f7a9bd349d197a74a8aba9e"}], "txid": "f81a92a8767dc33e3bac588e4d736c1cd9d0a0528fa4bcbcdd6702a3cb06fead", "blocktime": 1537871767, "version": 2, "confirmations": 11490, "time": 1537871767, "locktime": 0, "vsize": 166, "size": 248}