{"hash": "f81d7ffbe2107b97ad07d985920dab28baa0a790125af83f92e20f01a216b81d", "blockhash": "0000000000000000000e13cef7c366c0283d82e591d1acd082e914b08063cdf1", "vout": [{"scriptPubKey": {"reqSigs": 1, "hex": "76a914c7770c8bc9728bc4393c923a2ee969737837a5a188ac", "addresses": ["1KBg5qyMsD9KeixoHQCAJyGiMEZHBqTcCa"], "asm": "OP_DUP OP_HASH160 c7770c8bc9728bc4393c923a2ee969737837a5a1 OP_EQUALVERIFY OP_CHECKSIG", "type": "pubkeyhash"}, "value": 0.014921, "n": 0}], "hex": "0100000001574b635158052068024e719ca8743fc93d62ef9ab7caf61a0802430577edb0e9010000006b483045022100bcf6dbed00712bd106d5e4cf669270a1004cc8704639b322d99ba6468fd351f9022022876acbbbbf1fb6b7d78561a8bdb5df0247afb5500e1198b3ce6b217caff51f0121020e9e7e08c2a7ca28b4785d4f869562ba3838da98d6336910eb7c625c10ef181effffffff0184c41600000000001976a914c7770c8bc9728bc4393c923a2ee969737837a5a188ac00000000", "vin": [{"sequence": 4294967295, "scriptSig": {"hex": "483045022100bcf6dbed00712bd106d5e4cf669270a1004cc8704639b322d99ba6468fd351f9022022876acbbbbf1fb6b7d78561a8bdb5df0247afb5500e1198b3ce6b217caff51f0121020e9e7e08c2a7ca28b4785d4f869562ba3838da98d6336910eb7c625c10ef181e", "asm": "3045022100bcf6dbed00712bd106d5e4cf669270a1004cc8704639b322d99ba6468fd351f9022022876acbbbbf1fb6b7d78561a8bdb5df0247afb5500e1198b3ce6b217caff51f[ALL] 020e9e7e08c2a7ca28b4785d4f869562ba3838da98d6336910eb7c625c10ef181e"}, "vout": 1, "txid": "e9b0ed77054302081af6cab79aef623dc93f74a89c714e026820055851634b57"}], "txid": "f81d7ffbe2107b97ad07d985920dab28baa0a790125af83f92e20f01a216b81d", "blocktime": 1537871767, "version": 1, "confirmations": 11490, "time": 1537871767, "locktime": 0, "vsize": 192, "size": 192}