{"hash": "f8281cb00b0bf6570cdbeeb145557a2faedec8b3fbf2f5eddcbeb85f4dea9222", "blockhash": "00000000000000000004ffacab907a6b429b9a5745fa0b75af4234bf69dd7176", "vout": [{"scriptPubKey": {"reqSigs": 1, "hex": "76a9142018f37e01819b64ef3b4316d6a017ed5e56fe5c88ac", "addresses": ["13viWmuf7zJBqy6umwenbgzo4YhuKAzDJd"], "asm": "OP_DUP OP_HASH160 2018f37e01819b64ef3b4316d6a017ed5e56fe5c OP_EQUALVERIFY OP_CHECKSIG", "type": "pubkeyhash"}, "value": 0.00022668, "n": 0}, {"scriptPubKey": {"reqSigs": 1, "hex": "a9141526fb6c30a26daf2689646eb95cea76c15216c387", "addresses": ["33crp6bj1vkTfamUec6wcPgv8p3cfW193m"], "asm": "OP_HASH160 1526fb6c30a26daf2689646eb95cea76c15216c3 OP_EQUAL", "type": "scripthash"}, "value": 0.00285717, "n": 1}], "hex": "0100000001bd6df66f870dc8073594834c603d5a7705a2eb4cc972d48b71bd15d16f4d5827010000006b4830450221008d0440ec022689e15be5835960fcf5985a7d517dbda79587713dd016adeef1150220192c6d0f1d652889149b9f46002a43625103c7509209c4b7e7e1318209b57464012103693975c27ec180f1f37df90d1a512a3ec4ba54577f5fea06737024ae67caa15afdffffff028c580000000000001976a9142018f37e01819b64ef3b4316d6a017ed5e56fe5c88ac155c04000000000017a9141526fb6c30a26daf2689646eb95cea76c15216c38716490800", "vin": [{"sequence": 4294967293, "scriptSig": {"hex": "4830450221008d0440ec022689e15be5835960fcf5985a7d517dbda79587713dd016adeef1150220192c6d0f1d652889149b9f46002a43625103c7509209c4b7e7e1318209b57464012103693975c27ec180f1f37df90d1a512a3ec4ba54577f5fea06737024ae67caa15a", "asm": "30450221008d0440ec022689e15be5835960fcf5985a7d517dbda79587713dd016adeef1150220192c6d0f1d652889149b9f46002a43625103c7509209c4b7e7e1318209b57464[ALL] 03693975c27ec180f1f37df90d1a512a3ec4ba54577f5fea06737024ae67caa15a"}, "vout": 1, "txid": "27584d6fd115bd718bd472c94ceba205775a3d604c83943507c80d876ff66dbd"}], "txid": "f8281cb00b0bf6570cdbeeb145557a2faedec8b3fbf2f5eddcbeb85f4dea9222", "blocktime": 1537875543, "version": 1, "confirmations": 11464, "time": 1537875543, "locktime": 542998, "vsize": 224, "size": 224}