{"hash": "f82bfbcfeb908a9cabde2630171e3c2d6b261a240356a8c92f7d4eed793201a1", "blockhash": "0000000000000000001f76057863aec43deb6fa401d9628bb513d65a8098bfab", "vout": [{"scriptPubKey": {"reqSigs": 1, "hex": "76a914b9de57addb5277177134024292ad0d9cc67269e388ac", "addresses": ["1HwnN7je6koHBvuYgQPd7vgWKAaJtqXvDy"], "asm": "OP_DUP OP_HASH160 b9de57addb5277177134024292ad0d9cc67269e3 OP_EQUALVERIFY OP_CHECKSIG", "type": "pubkeyhash"}, "value": 0.01599526, "n": 0}], "hex": "01000000013d4e401ef1b0bf2165481f562d2ba907500f5d1135c60ec4edfb9646cdef2d77150000006a47304402206563730079a94df0e173bcf508c3ef4c7095dee98c72fcd78914dfbd2d6e6bc102205513298b83faf0ff1ec79743051086edf210efd13454f3a4b2ad87a121537564012103b4d64899cd85d7689663199e46cb1e71305f5014a5665946112ed259c28fb0deffffffff0126681800000000001976a914b9de57addb5277177134024292ad0d9cc67269e388ac00000000", "vin": [{"sequence": 4294967295, "scriptSig": {"hex": "47304402206563730079a94df0e173bcf508c3ef4c7095dee98c72fcd78914dfbd2d6e6bc102205513298b83faf0ff1ec79743051086edf210efd13454f3a4b2ad87a121537564012103b4d64899cd85d7689663199e46cb1e71305f5014a5665946112ed259c28fb0de", "asm": "304402206563730079a94df0e173bcf508c3ef4c7095dee98c72fcd78914dfbd2d6e6bc102205513298b83faf0ff1ec79743051086edf210efd13454f3a4b2ad87a121537564[ALL] 03b4d64899cd85d7689663199e46cb1e71305f5014a5665946112ed259c28fb0de"}, "vout": 21, "txid": "772defcd4696fbedc40ec635115d0f5007a92b2d561f486521bfb0f11e404e3d"}], "txid": "f82bfbcfeb908a9cabde2630171e3c2d6b261a240356a8c92f7d4eed793201a1", "blocktime": 1537873891, "version": 1, "confirmations": 11478, "time": 1537873891, "locktime": 0, "vsize": 191, "size": 191}