{"hash": "f82cc783b237442a1717c2652364549febc5da11fab3dad620443a6ea425983a", "blockhash": "0000000000000000000e13cef7c366c0283d82e591d1acd082e914b08063cdf1", "vout": [{"scriptPubKey": {"reqSigs": 1, "hex": "76a914c1120a9dc494ed025014f430924e864fa30f516588ac", "addresses": ["1Jbs2Zrx1PMzMVzwPoUxDYa8n61X4TjPL3"], "asm": "OP_DUP OP_HASH160 c1120a9dc494ed025014f430924e864fa30f5165 OP_EQUALVERIFY OP_CHECKSIG", "type": "pubkeyhash"}, "value": 0.00018539, "n": 0}, {"scriptPubKey": {"reqSigs": 1, "hex": "76a9146b4bda168b4d7af7d6e92b513d21324e7bddc7e488ac", "addresses": ["1AnLAouWXDKsYdtSg4R8LSWbFAcnXyW7T6"], "asm": "OP_DUP OP_HASH160 6b4bda168b4d7af7d6e92b513d21324e7bddc7e4 OP_EQUALVERIFY OP_CHECKSIG", "type": "pubkeyhash"}, "value": 0.17969761, "n": 1}], "hex": "0100000002b2c01a6f5ca3daf42c811113515ae35bffa7b39ce28a601e20082e5d80e80875080000006a47304402206a91f24fc45a758f6450eb89f599659e7d58ad1c510c749aa828d4e17472167e02205c12275288200c5c569a304c2bd36e82a704f5557895a92ed5e0a218dd6d61890121030b3f11ee9f0e0ba42018965b2a4459424ea10aa9a8157afa484e3e309f54ddcaffffffff0040f963c45e095a0887f1411ad027ea428d3913b5dbe6ae5734f582f830f4a9000000006b483045022100f59136efab2b50c011fbf2d12097e0cb7201bc4af8992a7a8efe602930866367022068d0c9ac418864c78792b7628c845139efbbca06b55d819d2e3e285f57b2296c012102fdf9507282b2ea1e9f4bde02f1c0cfd93bbb5ba28ed1a43340ebf20082eb5793ffffffff026b480000000000001976a914c1120a9dc494ed025014f430924e864fa30f516588ac61321201000000001976a9146b4bda168b4d7af7d6e92b513d21324e7bddc7e488ac00000000", "vin": [{"sequence": 4294967295, "scriptSig": {"hex": "47304402206a91f24fc45a758f6450eb89f599659e7d58ad1c510c749aa828d4e17472167e02205c12275288200c5c569a304c2bd36e82a704f5557895a92ed5e0a218dd6d61890121030b3f11ee9f0e0ba42018965b2a4459424ea10aa9a8157afa484e3e309f54ddca", "asm": "304402206a91f24fc45a758f6450eb89f599659e7d58ad1c510c749aa828d4e17472167e02205c12275288200c5c569a304c2bd36e82a704f5557895a92ed5e0a218dd6d6189[ALL] 030b3f11ee9f0e0ba42018965b2a4459424ea10aa9a8157afa484e3e309f54ddca"}, "vout": 8, "txid": "7508e8805d2e08201e608ae29cb3a7ff5be35a511311812cf4daa35c6f1ac0b2"}, {"sequence": 4294967295, "scriptSig": {"hex": "483045022100f59136efab2b50c011fbf2d12097e0cb7201bc4af8992a7a8efe602930866367022068d0c9ac418864c78792b7628c845139efbbca06b55d819d2e3e285f57b2296c012102fdf9507282b2ea1e9f4bde02f1c0cfd93bbb5ba28ed1a43340ebf20082eb5793", "asm": "3045022100f59136efab2b50c011fbf2d12097e0cb7201bc4af8992a7a8efe602930866367022068d0c9ac418864c78792b7628c845139efbbca06b55d819d2e3e285f57b2296c[ALL] 02fdf9507282b2ea1e9f4bde02f1c0cfd93bbb5ba28ed1a43340ebf20082eb5793"}, "vout": 0, "txid": "a9f430f882f53457aee6dbb513398d42ea27d01a41f187085a095ec463f94000"}], "txid": "f82cc783b237442a1717c2652364549febc5da11fab3dad620443a6ea425983a", "blocktime": 1537871767, "version": 1, "confirmations": 11495, "time": 1537871767, "locktime": 0, "vsize": 373, "size": 373}