{"hash": "f82c975f34efb5006027a162cdb06082bd60d8dced6f44bfde0d9415c62036f0", "blockhash": "0000000000000000001e0dab787dd257d1dbfcb92a98c2207d5e1078be1f4165", "vout": [{"scriptPubKey": {"reqSigs": 1, "hex": "a914f79d202180a66f1617fd75cce97b9b51911e769887", "addresses": ["3QGH4CRagWoPXDxinG5czm75Hm3D6aRu99"], "asm": "OP_HASH160 f79d202180a66f1617fd75cce97b9b51911e7698 OP_EQUAL", "type": "scripthash"}, "value": 0.10921625, "n": 0}], "hex": "0100000004f979347262d2d79b74bc18a406d6d70cda60e321c8a35094b28bcee8636e9d011c0000006b483045022100eab2f30048ed58fd4982f7ff29a3cdab151a87d290b4c0f1d49c6c02073dd79e022029a66e252c30b5716b0239d0c8132fe83ffc2b50185fee69a03939478043c39c012102815d8f431bb3cf3954ff511112963e7f71610c1765045b1bc606825458a2ba13fdffffff25160a3e3c1f5ba937afbb6b5444f183bd39d0c1cb46c9c131d044eddaacc603000000006a473044022074c5379ef7d04b78a8b998bf82ffd1ca8dedbd64137f0987448bf9219c95e092022062a794de3c9e5d0ddbda303d084dd0f43e1c7a9c4de9c388a91bd384d2747362012102b42f3746ee83b2529ac3e30e1d318d93cc8841f6b6c7c3e7892883670c121b3afdffffff721fc111b54e20dc943737efefa815835ec962e4194de57f01ca714dc034ab47100000006b483045022100a98967884f9a1ba6261337b34ee1db74614c04a763818100a59648601a4265fd022067f829640577b3ee0ae9658261de88028f74955df8e9b662b93280872613890d01210272d07a9b05c862ed30441e5224ab5576f7a804fb9c973f66a9742cc9c4f1f24ffdffffff5ae527932dcce5ff5cf7c3700048dfa8a6ab1f82e6ff050b87a94c2c7fa90692010000006a4730440220527e4f3bfd3dff5e677796ae9c719147f5ebb93ab7070bdff146b3be1a8bb4ef0220632e7fd3be1a7e42c8c70a62d067ede6608e7c1aba4222e36147d158f0f8b11f0121027460e520d0874b52cc8c2565495b953503b2307fafaf3842c60f026fc1ec0f9afdffffff0199a6a6000000000017a914f79d202180a66f1617fd75cce97b9b51911e76988712490800", "vin": [{"sequence": 4294967293, "scriptSig": {"hex": "483045022100eab2f30048ed58fd4982f7ff29a3cdab151a87d290b4c0f1d49c6c02073dd79e022029a66e252c30b5716b0239d0c8132fe83ffc2b50185fee69a03939478043c39c012102815d8f431bb3cf3954ff511112963e7f71610c1765045b1bc606825458a2ba13", "asm": "3045022100eab2f30048ed58fd4982f7ff29a3cdab151a87d290b4c0f1d49c6c02073dd79e022029a66e252c30b5716b0239d0c8132fe83ffc2b50185fee69a03939478043c39c[ALL] 02815d8f431bb3cf3954ff511112963e7f71610c1765045b1bc606825458a2ba13"}, "vout": 28, "txid": "019d6e63e8ce8bb29450a3c821e360da0cd7d606a418bc749bd7d262723479f9"}, {"sequence": 4294967293, "scriptSig": {"hex": "473044022074c5379ef7d04b78a8b998bf82ffd1ca8dedbd64137f0987448bf9219c95e092022062a794de3c9e5d0ddbda303d084dd0f43e1c7a9c4de9c388a91bd384d2747362012102b42f3746ee83b2529ac3e30e1d318d93cc8841f6b6c7c3e7892883670c121b3a", "asm": "3044022074c5379ef7d04b78a8b998bf82ffd1ca8dedbd64137f0987448bf9219c95e092022062a794de3c9e5d0ddbda303d084dd0f43e1c7a9c4de9c388a91bd384d2747362[ALL] 02b42f3746ee83b2529ac3e30e1d318d93cc8841f6b6c7c3e7892883670c121b3a"}, "vout": 0, "txid": "03c6acdaed44d031c1c946cbc1d039bd83f144546bbbaf37a95b1f3c3e0a1625"}, {"sequence": 4294967293, "scriptSig": {"hex": "483045022100a98967884f9a1ba6261337b34ee1db74614c04a763818100a59648601a4265fd022067f829640577b3ee0ae9658261de88028f74955df8e9b662b93280872613890d01210272d07a9b05c862ed30441e5224ab5576f7a804fb9c973f66a9742cc9c4f1f24f", "asm": "3045022100a98967884f9a1ba6261337b34ee1db74614c04a763818100a59648601a4265fd022067f829640577b3ee0ae9658261de88028f74955df8e9b662b93280872613890d[ALL] 0272d07a9b05c862ed30441e5224ab5576f7a804fb9c973f66a9742cc9c4f1f24f"}, "vout": 16, "txid": "47ab34c04d71ca017fe54d19e462c95e8315a8efef373794dc204eb511c11f72"}, {"sequence": 4294967293, "scriptSig": {"hex": "4730440220527e4f3bfd3dff5e677796ae9c719147f5ebb93ab7070bdff146b3be1a8bb4ef0220632e7fd3be1a7e42c8c70a62d067ede6608e7c1aba4222e36147d158f0f8b11f0121027460e520d0874b52cc8c2565495b953503b2307fafaf3842c60f026fc1ec0f9a", "asm": "30440220527e4f3bfd3dff5e677796ae9c719147f5ebb93ab7070bdff146b3be1a8bb4ef0220632e7fd3be1a7e42c8c70a62d067ede6608e7c1aba4222e36147d158f0f8b11f[ALL] 027460e520d0874b52cc8c2565495b953503b2307fafaf3842c60f026fc1ec0f9a"}, "vout": 1, "txid": "9206a97f2c4ca9870b05ffe6821faba6a8df480070c3f75cffe5cc2d9327e55a"}], "txid": "f82c975f34efb5006027a162cdb06082bd60d8dced6f44bfde0d9415c62036f0", "blocktime": 1537872475, "version": 1, "confirmations": 11488, "time": 1537872475, "locktime": 542994, "vsize": 632, "size": 632}