{"hash": "678e323f1a78d018d11028c6a4d93f71b07f0f0d06ce60f5fa3c00beb0dc0815", "blockhash": "0000000000000000000e13cef7c366c0283d82e591d1acd082e914b08063cdf1", "vout": [{"scriptPubKey": {"reqSigs": 1, "hex": "a91444eaab912d2ffaa0a448f32ec6d9e26dde7bc39b87", "addresses": ["37yQzkwgzQZS4Rcak3GMtWg84WHCyBwDqM"], "asm": "OP_HASH160 44eaab912d2ffaa0a448f32ec6d9e26dde7bc39b OP_EQUAL", "type": "scripthash"}, "value": 0.01000013, "n": 0}, {"scriptPubKey": {"reqSigs": 1, "hex": "76a9143b8ffd6929c4bbca289477a186bb1e57812ffd0a88ac", "addresses": ["16RwMupTk3BcdCUq8Xd4AnjpXqGXyBwRew"], "asm": "OP_DUP OP_HASH160 3b8ffd6929c4bbca289477a186bb1e57812ffd0a OP_EQUALVERIFY OP_CHECKSIG", "type": "pubkeyhash"}, "value": 0.05354403, "n": 1}], "hex": "0200000000010f0d3e970747ed88bc2fed159137d1fc41241e5c07ac0ee68709a7fa0db5c8133000000000171600144d6727019d36e644bf26cd8923704eb9d533d450feffffff11b60c3d7a8a509988136d64bdd1b251395073db28aec18b690b03be9f825e590100000017160014bb0368227e0a45bbfd818bfcdd4c068680ef69b7feffffff1f8e4510b405ead4c6cbb330ad0615d063bc3bc5ae86edd560d89733dfc267420000000017160014519155c770493eb2d08000d66afb4283b7392e67feffffff3b4ec9d8c6d7bc67dbcfa01a3b2ae34784d453ed1f6736edf5bb37cedb6f3e670a00000017160014a6e4f2b41fa8ffa9961aed78a0a90ca44cac9db3feffffff3e04ebcd5927b1383df1484732d1ac8cd750bc5fa729e94410488e792220a24400000000171600144f205d161ebccaf20ece1d047382cbf7e2a3f82dfeffffff4017319644dc1f167f6023f86db3a48bc686f23b953d13d4c929f11bd1d1021d0000000017160014029b404e9dfc0ec24bf3f334e2ee860a050f458ffeffffff540e177157aae9fe3b62298fa93e0f7f06e2c1fb3e2b81b0fd5d62fdd15b0ccb01000000171600143bfbb97486b0d7dfbf3693303834596031571de8feffffff56c2e54551b11197b45030a931a96c12d6a579e35cf893b288dc6c93dcd3810400000000171600146326a5def4cf51bf733a7eb41f31b646826f77eafeffffff616f1f4df213dc6217f23aa4ee866be2fa2de991f372765ff663fa2fd57590090000000017160014620504cd6c02000d356a0675e432bd14497f2833feffffff94b51783d086ea446050dab8e8683dcc6019613534ced15434ba962491de5894040000001716001473b85d085315681282a13e67332bb148eb970bfdfeffffff9d141418d69bd65989f0696294794f03c73ef7926f98a940fff59cda4180475600000000171600145290fa84953261a1d3a79b2216beb58622c41822feffffff9ea7a2b6e990249ecd6a17fc6892c2570ddc286de05fd26c3a1a2fdab7dee9c9000000001716001410d472ed362719000e6c1a058f5cb86c834f76bbfeffffffa5c63c5a83273c758e1d15992acb55bb6c4f2e2cbe81565914cf07de871fcb2608000000171600145d36593cfc3ba705f008fd5b8786709797b99ef5feffffffaad98188be4f9338abebb64bc6e0dbbd5bbec05dd218f9398b5f898ca70b2ff300000000171600149ca38366604b13df2ad95aa9a95dbac4f9d23dc2fefffffff53caba228d2825ba335ffe0e1ca9468216cc356e2614a9443640149bcc55ec2000000001716001410d472ed362719000e6c1a058f5cb86c834f76bbfeffffff024d420f000000000017a91444eaab912d2ffaa0a448f32ec6d9e26dde7bc39b87a3b35100000000001976a9143b8ffd6929c4bbca289477a186bb1e57812ffd0a88ac02483045022100fa36f33500cc147de8aa82aa12a1a2c84f985f9e042ba6eb112d6db61a04810d022023076c4ebd2fab14d92e61e6bb4ef79481c001d2f63ebcffa88c324cb7646530012102039a5e4ec3a1c10512936c73cba3f4f13214d4188fd1f0122682cde5d2083acb024830450221009ecd750600dabca231be0e25917a370f9fd1ecbd793f3eefa1a90f89c0abb8cb0220226b8165928ba923e925ca56ccb4fc43b651690f28cd5ba5ceac96f8c5bc6ab3012103e48dadfb8cfc41e9e5d1fa2c58c9f9c6585b5c3db0523b77c24b039c69fda72402473044022048ad42af80caa2037bd0bdaf648f889f8b196cb46bcabb3ea83347aa2e9f02480220081fe5636f169cf52ab9060604b3978044b3cffff0dd6e84c99e72204c89808f01210389fdb3880ca44123ed666c964d265b6b9e7393c2c4f12320804684fc9e68f2860247304402202a00d4f01112c96947c1333f1624f6a45d47c7d7de8d86a2ad33af5c99e9332d022068d955d1c3ae72146d9077c76472a0f90e361b36794d31b154e761c686640961012103600185d2ecb5566cbac381f4af44440daec6fc62fbfee9701fc86fab058a5a8602483045022100c43a400763d93b9d03312595d106ecf9b19eb96f75faf8986a879b3678e1d266022036a466509343594319ad0b5acaa2ecf866fc3b27941318aa0d1302be8d3c5897012103ae6645ef9d1367dacf5d64af05d876c989d96847a5ec0b83b5234a3f7fac52520247304402201f550418eb6cb605ffc7a6acc2ed102189cacc6d7fc5ecfa9aa55f9cf11217e20220673b7dac9ef7a3134e268e1ca08c2623f5d4bc0de16213d62cf6ba188e55b1990121025b4c2f16a1bd981392816c0f6a39bcb412c6cbd20f80b181411be2eced5f0e010247304402207505e59b832a5b819feb520e5f622dd5715037af3d5e116448b9041f46f33d38022007dc4c4fd70106a48871eea2f0c17d9068401884877c842855993a5761405aa101210275645c66c28378f4f686c1e4190fb2fbffa4b3b7efebf754fbe09be0c0a666480247304402205b8b8bdc7112c459b1657e7414144a93684475cfc62701f8268ab4ba52634184022072d6bcecb1d67e98c6feb825cfed3bd31b2f71df20afb667e6cdd95d7781d31401210239660b47e172d3d4fd8d4096472257e056a1820e0ebe62e99e6a247c16f0982b024730440220231addb97ee9caef6cfed3278efbf4918cbaedfa7e7b60da8172a79c0326fd4b02204ca97142dbf6a1ab83092c36cf1de90ea5e5e3e94d792af738b56315ae413407012102893bf5be4f9fccccd97d9e8ef2c2a153a455805f7ea1ebd9ec643cbfb34493730248304502210094d69b6c381ed9890a7c5c34754369d2bb516238d059fbb623d08d0879e4a13d022060edcac5662cf8d467e74c574ef2f9e8bde6931abe8b401d77b2510fd174b5a101210343f27eb648da5f13cdd9a3826a9d4523d3e65bcf6fc34c08102d65bdfb4981af02473044022013941ffdc95628d041f094cb747bf95ddcc9e4cd38e690ca8625eb9970a719de022046c5161914740b38fd04b44e3c50ada4a59a287b0f69f195451425a223272fdf012102d9dc4bafac1f0a27220edff44a79614728b17e3754a07331f7dd0fa15c3cda2a024830450221009690bb4ae529a1bb9272685f0b0f0c285d79a91f6a2f03720a9555eb9486086d02203353f016c2048b00101e34ad8832c927006b4c6d1889ff736160f3f1a1a26b0d0121023d8d44ebe636543c6ecaf41910eb854ed736546d218ddbd20e946459a587c56e02483045022100d9fd55a47318eccde2dccf692c62b9b03f0dfaef06d2c60d4ca7294e2cfce6760220328835e76532f8ef30293b853f4a3540f30b3e87249967578ccf47ccee1c443e0121030d397d9c16492575c638612bc659904324d1219a5adf960d08391aefb7f26e27024730440220220d0447ef104f8567db26eca826d2659428a0e0c28552e419f579013bd3694e0220357456816828d19acc0375e0231c3bb9902ab57d80c9be0b42eaa60231059c140121033a509e12eecaa591c7c7cc69dd2c4478485b1c2e643d1860be485f7952167c960247304402200a94e2b84224b371f02a75bf642dc0ae2f762be4344c836a617e822913a5553702204f430445432debe709e3b4ae8d15a5ac2a5afeac0e7e86225e45ecc23c09e0700121023d8d44ebe636543c6ecaf41910eb854ed736546d218ddbd20e946459a587c56e0f490800", "vin": [{"txinwitness": ["3045022100fa36f33500cc147de8aa82aa12a1a2c84f985f9e042ba6eb112d6db61a04810d022023076c4ebd2fab14d92e61e6bb4ef79481c001d2f63ebcffa88c324cb764653001", "02039a5e4ec3a1c10512936c73cba3f4f13214d4188fd1f0122682cde5d2083acb"], "sequence": 4294967294, "scriptSig": {"hex": "1600144d6727019d36e644bf26cd8923704eb9d533d450", "asm": "00144d6727019d36e644bf26cd8923704eb9d533d450"}, "vout": 0, "txid": "3013c8b50dfaa70987e60eac075c1e2441fcd1379115ed2fbc88ed4707973e0d"}, {"txinwitness": ["30450221009ecd750600dabca231be0e25917a370f9fd1ecbd793f3eefa1a90f89c0abb8cb0220226b8165928ba923e925ca56ccb4fc43b651690f28cd5ba5ceac96f8c5bc6ab301", "03e48dadfb8cfc41e9e5d1fa2c58c9f9c6585b5c3db0523b77c24b039c69fda724"], "sequence": 4294967294, "scriptSig": {"hex": "160014bb0368227e0a45bbfd818bfcdd4c068680ef69b7", "asm": "0014bb0368227e0a45bbfd818bfcdd4c068680ef69b7"}, "vout": 1, "txid": "595e829fbe030b698bc1ae28db73503951b2d1bd646d138899508a7a3d0cb611"}, {"txinwitness": ["3044022048ad42af80caa2037bd0bdaf648f889f8b196cb46bcabb3ea83347aa2e9f02480220081fe5636f169cf52ab9060604b3978044b3cffff0dd6e84c99e72204c89808f01", "0389fdb3880ca44123ed666c964d265b6b9e7393c2c4f12320804684fc9e68f286"], "sequence": 4294967294, "scriptSig": {"hex": "160014519155c770493eb2d08000d66afb4283b7392e67", "asm": "0014519155c770493eb2d08000d66afb4283b7392e67"}, "vout": 0, "txid": "4267c2df3397d860d5ed86aec53bbc63d01506ad30b3cbc6d4ea05b410458e1f"}, {"txinwitness": ["304402202a00d4f01112c96947c1333f1624f6a45d47c7d7de8d86a2ad33af5c99e9332d022068d955d1c3ae72146d9077c76472a0f90e361b36794d31b154e761c68664096101", "03600185d2ecb5566cbac381f4af44440daec6fc62fbfee9701fc86fab058a5a86"], "sequence": 4294967294, "scriptSig": {"hex": "160014a6e4f2b41fa8ffa9961aed78a0a90ca44cac9db3", "asm": "0014a6e4f2b41fa8ffa9961aed78a0a90ca44cac9db3"}, "vout": 10, "txid": "673e6fdbce37bbf5ed36671fed53d48447e32a3b1aa0cfdb67bcd7c6d8c94e3b"}, {"txinwitness": ["3045022100c43a400763d93b9d03312595d106ecf9b19eb96f75faf8986a879b3678e1d266022036a466509343594319ad0b5acaa2ecf866fc3b27941318aa0d1302be8d3c589701", "03ae6645ef9d1367dacf5d64af05d876c989d96847a5ec0b83b5234a3f7fac5252"], "sequence": 4294967294, "scriptSig": {"hex": "1600144f205d161ebccaf20ece1d047382cbf7e2a3f82d", "asm": "00144f205d161ebccaf20ece1d047382cbf7e2a3f82d"}, "vout": 0, "txid": "44a22022798e481044e929a75fbc50d78cacd1324748f13d38b12759cdeb043e"}, {"txinwitness": ["304402201f550418eb6cb605ffc7a6acc2ed102189cacc6d7fc5ecfa9aa55f9cf11217e20220673b7dac9ef7a3134e268e1ca08c2623f5d4bc0de16213d62cf6ba188e55b19901", "025b4c2f16a1bd981392816c0f6a39bcb412c6cbd20f80b181411be2eced5f0e01"], "sequence": 4294967294, "scriptSig": {"hex": "160014029b404e9dfc0ec24bf3f334e2ee860a050f458f", "asm": "0014029b404e9dfc0ec24bf3f334e2ee860a050f458f"}, "vout": 0, "txid": "1d02d1d11bf129c9d4133d953bf286c68ba4b36df823607f161fdc4496311740"}, {"txinwitness": ["304402207505e59b832a5b819feb520e5f622dd5715037af3d5e116448b9041f46f33d38022007dc4c4fd70106a48871eea2f0c17d9068401884877c842855993a5761405aa101", "0275645c66c28378f4f686c1e4190fb2fbffa4b3b7efebf754fbe09be0c0a66648"], "sequence": 4294967294, "scriptSig": {"hex": "1600143bfbb97486b0d7dfbf3693303834596031571de8", "asm": "00143bfbb97486b0d7dfbf3693303834596031571de8"}, "vout": 1, "txid": "cb0c5bd1fd625dfdb0812b3efbc1e2067f0f3ea98f29623bfee9aa5771170e54"}, {"txinwitness": ["304402205b8b8bdc7112c459b1657e7414144a93684475cfc62701f8268ab4ba52634184022072d6bcecb1d67e98c6feb825cfed3bd31b2f71df20afb667e6cdd95d7781d31401", "0239660b47e172d3d4fd8d4096472257e056a1820e0ebe62e99e6a247c16f0982b"], "sequence": 4294967294, "scriptSig": {"hex": "1600146326a5def4cf51bf733a7eb41f31b646826f77ea", "asm": "00146326a5def4cf51bf733a7eb41f31b646826f77ea"}, "vout": 0, "txid": "0481d3dc936cdc88b293f85ce379a5d6126ca931a93050b49711b15145e5c256"}, {"txinwitness": ["30440220231addb97ee9caef6cfed3278efbf4918cbaedfa7e7b60da8172a79c0326fd4b02204ca97142dbf6a1ab83092c36cf1de90ea5e5e3e94d792af738b56315ae41340701", "02893bf5be4f9fccccd97d9e8ef2c2a153a455805f7ea1ebd9ec643cbfb3449373"], "sequence": 4294967294, "scriptSig": {"hex": "160014620504cd6c02000d356a0675e432bd14497f2833", "asm": "0014620504cd6c02000d356a0675e432bd14497f2833"}, "vout": 0, "txid": "099075d52ffa63f65f7672f391e92dfae26b86eea43af21762dc13f24d1f6f61"}, {"txinwitness": ["304502210094d69b6c381ed9890a7c5c34754369d2bb516238d059fbb623d08d0879e4a13d022060edcac5662cf8d467e74c574ef2f9e8bde6931abe8b401d77b2510fd174b5a101", "0343f27eb648da5f13cdd9a3826a9d4523d3e65bcf6fc34c08102d65bdfb4981af"], "sequence": 4294967294, "scriptSig": {"hex": "16001473b85d085315681282a13e67332bb148eb970bfd", "asm": "001473b85d085315681282a13e67332bb148eb970bfd"}, "vout": 4, "txid": "9458de912496ba3454d1ce3435611960cc3d68e8b8da506044ea86d08317b594"}, {"txinwitness": ["3044022013941ffdc95628d041f094cb747bf95ddcc9e4cd38e690ca8625eb9970a719de022046c5161914740b38fd04b44e3c50ada4a59a287b0f69f195451425a223272fdf01", "02d9dc4bafac1f0a27220edff44a79614728b17e3754a07331f7dd0fa15c3cda2a"], "sequence": 4294967294, "scriptSig": {"hex": "1600145290fa84953261a1d3a79b2216beb58622c41822", "asm": "00145290fa84953261a1d3a79b2216beb58622c41822"}, "vout": 0, "txid": "56478041da9cf5ff40a9986f92f73ec7034f79946269f08959d69bd61814149d"}, {"txinwitness": ["30450221009690bb4ae529a1bb9272685f0b0f0c285d79a91f6a2f03720a9555eb9486086d02203353f016c2048b00101e34ad8832c927006b4c6d1889ff736160f3f1a1a26b0d01", "023d8d44ebe636543c6ecaf41910eb854ed736546d218ddbd20e946459a587c56e"], "sequence": 4294967294, "scriptSig": {"hex": "16001410d472ed362719000e6c1a058f5cb86c834f76bb", "asm": "001410d472ed362719000e6c1a058f5cb86c834f76bb"}, "vout": 0, "txid": "c9e9deb7da2f1a3a6cd25fe06d28dc0d57c29268fc176acd9e2490e9b6a2a79e"}, {"txinwitness": ["3045022100d9fd55a47318eccde2dccf692c62b9b03f0dfaef06d2c60d4ca7294e2cfce6760220328835e76532f8ef30293b853f4a3540f30b3e87249967578ccf47ccee1c443e01", "030d397d9c16492575c638612bc659904324d1219a5adf960d08391aefb7f26e27"], "sequence": 4294967294, "scriptSig": {"hex": "1600145d36593cfc3ba705f008fd5b8786709797b99ef5", "asm": "00145d36593cfc3ba705f008fd5b8786709797b99ef5"}, "vout": 8, "txid": "26cb1f87de07cf14595681be2c2e4f6cbb55cb2a99151d8e753c27835a3cc6a5"}, {"txinwitness": ["30440220220d0447ef104f8567db26eca826d2659428a0e0c28552e419f579013bd3694e0220357456816828d19acc0375e0231c3bb9902ab57d80c9be0b42eaa60231059c1401", "033a509e12eecaa591c7c7cc69dd2c4478485b1c2e643d1860be485f7952167c96"], "sequence": 4294967294, "scriptSig": {"hex": "1600149ca38366604b13df2ad95aa9a95dbac4f9d23dc2", "asm": "00149ca38366604b13df2ad95aa9a95dbac4f9d23dc2"}, "vout": 0, "txid": "f32f0ba78c895f8b39f918d25dc0be5bbddbe0c64bb6ebab38934fbe8881d9aa"}, {"txinwitness": ["304402200a94e2b84224b371f02a75bf642dc0ae2f762be4344c836a617e822913a5553702204f430445432debe709e3b4ae8d15a5ac2a5afeac0e7e86225e45ecc23c09e07001", "023d8d44ebe636543c6ecaf41910eb854ed736546d218ddbd20e946459a587c56e"], "sequence": 4294967294, "scriptSig": {"hex": "16001410d472ed362719000e6c1a058f5cb86c834f76bb", "asm": "001410d472ed362719000e6c1a058f5cb86c834f76bb"}, "vout": 0, "txid": "c25ec5bc49016443944a61e256c36c216894cae1e0ff35a35b82d228a2ab3cf5"}], "txid": "f82c0ac15bbffe125ea4cc47745ecd9dfe2df60c66a7178ce838071877398790", "blocktime": 1537871767, "version": 2, "confirmations": 11495, "time": 1537871767, "locktime": 542991, "vsize": 1440, "size": 2649}