{"hash": "5bf5c08a3a1c734f1cccc4f73bbecb1574021db32079e3158adc7f36208617fb", "blockhash": "0000000000000000000dcc0f55137456b1a82d3642486a52398922ac4d620174", "vout": [{"scriptPubKey": {"reqSigs": 1, "hex": "a914633c2a61971bc45fabedd5eebe4522fbe8428ff887", "addresses": ["3Ajitun7PaasYhDvsWKMcE34kvuFJg8LGe"], "asm": "OP_HASH160 633c2a61971bc45fabedd5eebe4522fbe8428ff8 OP_EQUAL", "type": "scripthash"}, "value": 0.01736315, "n": 0}, {"scriptPubKey": {"reqSigs": 1, "hex": "001466881cda928d31e08ee846a8544672aee2c97b28", "addresses": ["bc1qv6ypek5j35c7prhgg659g3nj4m3vj7egp5004g"], "asm": "0 66881cda928d31e08ee846a8544672aee2c97b28", "type": "witness_v0_keyhash"}, "value": 4.063e-05, "n": 1}], "hex": "01000000000101ea73b06d0b74cc709dfc73442e2a007a901a2bed6d7152241ed191612dcd2c000100000000ffffffff027b7e1a000000000017a914633c2a61971bc45fabedd5eebe4522fbe8428ff887df0f00000000000016001466881cda928d31e08ee846a8544672aee2c97b28024730440220243fd4ba8751c21bae4d468e73e8de629afe27fceec511e3466d9baca6b0362a022028bcac16cabd953d4602df08314fdb2c3568738123d1f479d850fa7035ca4638012102c24dbd953e3ffc0e36965a8d5f1e1cce96d725b138e89603850713fdfa687c5a00000000", "vin": [{"txinwitness": ["30440220243fd4ba8751c21bae4d468e73e8de629afe27fceec511e3466d9baca6b0362a022028bcac16cabd953d4602df08314fdb2c3568738123d1f479d850fa7035ca463801", "02c24dbd953e3ffc0e36965a8d5f1e1cce96d725b138e89603850713fdfa687c5a"], "sequence": 4294967295, "scriptSig": {"hex": "", "asm": ""}, "vout": 1, "txid": "002ccd2d6191d11e2452716ded2b1a907a002a2e4473fc9d70cc740b6db073ea"}], "txid": "f832d33a04c94dc381bd74888096526e689f728d64813fbf167fa41c9179d4e7", "blocktime": 1537870268, "version": 1, "confirmations": 11518, "time": 1537870268, "locktime": 0, "vsize": 142, "size": 223}