{"hash": "f834e2f59c52e110d9a2ddd9cd44b3b34796d8a77380fcfdd19319157e7855bf", "blockhash": "0000000000000000000e13cef7c366c0283d82e591d1acd082e914b08063cdf1", "vout": [{"scriptPubKey": {"reqSigs": 1, "hex": "a914c317a75d129425dc7291bbfa02553e87619e82aa87", "addresses": ["3KUa2SeZJ5PPLug7FiHifYYsZYYyeGJKZt"], "asm": "OP_HASH160 c317a75d129425dc7291bbfa02553e87619e82aa OP_EQUAL", "type": "scripthash"}, "value": 0.00604, "n": 0}, {"scriptPubKey": {"reqSigs": 1, "hex": "76a91430c1dc36a0040658fb2ae755a1b4b1816904113b88ac", "addresses": ["15SofrNjAsdx7sxYh83DPA7hP5V1EVorrH"], "asm": "OP_DUP OP_HASH160 30c1dc36a0040658fb2ae755a1b4b1816904113b OP_EQUALVERIFY OP_CHECKSIG", "type": "pubkeyhash"}, "value": 0.01731939, "n": 1}], "hex": "010000000127a08d8549e49d124ae1b4db3cd8e9babc6a3c47fa413c5e1c12842b87e05646010000006a47304402206c2de299bfa9a1e1b7135af9aad11575682e84e5d8611b8fab55be42e8b1fbbc022040b426538a7a35fc5f6e9965e212fda7384dc803946a1ad4ec8466c645e3f322012103d345e9f30049dd58fc750ca8caf5034c99abf3f0e383f416efd5218b2ed436c4ffffffff02603709000000000017a914c317a75d129425dc7291bbfa02553e87619e82aa87636d1a00000000001976a91430c1dc36a0040658fb2ae755a1b4b1816904113b88ac00000000", "vin": [{"sequence": 4294967295, "scriptSig": {"hex": "47304402206c2de299bfa9a1e1b7135af9aad11575682e84e5d8611b8fab55be42e8b1fbbc022040b426538a7a35fc5f6e9965e212fda7384dc803946a1ad4ec8466c645e3f322012103d345e9f30049dd58fc750ca8caf5034c99abf3f0e383f416efd5218b2ed436c4", "asm": "304402206c2de299bfa9a1e1b7135af9aad11575682e84e5d8611b8fab55be42e8b1fbbc022040b426538a7a35fc5f6e9965e212fda7384dc803946a1ad4ec8466c645e3f322[ALL] 03d345e9f30049dd58fc750ca8caf5034c99abf3f0e383f416efd5218b2ed436c4"}, "vout": 1, "txid": "4656e0872b84121c5e3c41fa473c6abcbae9d83cdbb4e14a129de449858da027"}], "txid": "f834e2f59c52e110d9a2ddd9cd44b3b34796d8a77380fcfdd19319157e7855bf", "blocktime": 1537871767, "version": 1, "confirmations": 11493, "time": 1537871767, "locktime": 0, "vsize": 223, "size": 223}