{"hash": "f83673ec65d364a868d8c0eb278d0743c21785dc2ac3d3bf8c3d2f8b8b7b95af", "blockhash": "0000000000000000001cda96e906b7601b7a6fb1a3b62bca570a9e5d8f4b3de1", "vout": [{"scriptPubKey": {"reqSigs": 1, "hex": "a91450a0bdff59e8d1ef9c233001b41faa358920def687", "addresses": ["393LYTCQvrEUHZfyyWe4eezMBPhfWmUyVh"], "asm": "OP_HASH160 50a0bdff59e8d1ef9c233001b41faa358920def6 OP_EQUAL", "type": "scripthash"}, "value": 0.00284597, "n": 0}, {"scriptPubKey": {"reqSigs": 1, "hex": "76a914c4256c2530f0cf2f93e639d4baa49866de8244d088ac", "addresses": ["1Jt8Gkq1U1eEpPe3SqtfwF85YmDyZQx5kG"], "asm": "OP_DUP OP_HASH160 c4256c2530f0cf2f93e639d4baa49866de8244d0 OP_EQUALVERIFY OP_CHECKSIG", "type": "pubkeyhash"}, "value": 0.00868669, "n": 1}], "hex": "01000000012600db1fe89b0f443c4c234cd55c66f2fc191dc4e84be77f4cd0689b83454427000000006b483045022100895042c70a11e2665c383fae4106b508e54a6ffc09e63f1810f31d138aaa4b52022043d49db4eb1850af7e8e89b211dc747bfa8e68fdf01a82a23a30a98d9516cd3d0121030a26ff6bb98886aea50914f9ed62d334e0cdaf824623f66f94cb40b88619c163ffffffff02b55704000000000017a91450a0bdff59e8d1ef9c233001b41faa358920def6873d410d00000000001976a914c4256c2530f0cf2f93e639d4baa49866de8244d088ac00000000", "vin": [{"sequence": 4294967295, "scriptSig": {"hex": "483045022100895042c70a11e2665c383fae4106b508e54a6ffc09e63f1810f31d138aaa4b52022043d49db4eb1850af7e8e89b211dc747bfa8e68fdf01a82a23a30a98d9516cd3d0121030a26ff6bb98886aea50914f9ed62d334e0cdaf824623f66f94cb40b88619c163", "asm": "3045022100895042c70a11e2665c383fae4106b508e54a6ffc09e63f1810f31d138aaa4b52022043d49db4eb1850af7e8e89b211dc747bfa8e68fdf01a82a23a30a98d9516cd3d[ALL] 030a26ff6bb98886aea50914f9ed62d334e0cdaf824623f66f94cb40b88619c163"}, "vout": 0, "txid": "274445839b68d04c7fe74be8c41d19fcf2665cd54c234c3c440f9be81fdb0026"}], "txid": "f83673ec65d364a868d8c0eb278d0743c21785dc2ac3d3bf8c3d2f8b8b7b95af", "blocktime": 1537873282, "version": 1, "confirmations": 11484, "time": 1537873282, "locktime": 0, "vsize": 224, "size": 224}