{"hash": "f839484a7376927b0d725ddad28c8ddd7d28c3f48a068314aea57f349b568bf0", "blockhash": "0000000000000000001e0dab787dd257d1dbfcb92a98c2207d5e1078be1f4165", "vout": [{"scriptPubKey": {"reqSigs": 1, "hex": "a914b59986e1e4c951c9bf031e418b619e36f1b2735687", "addresses": ["3JFE9VxEboHaB6xropG2hNqtok3i4v8ior"], "asm": "OP_HASH160 b59986e1e4c951c9bf031e418b619e36f1b27356 OP_EQUAL", "type": "scripthash"}, "value": 0.02546553, "n": 0}, {"scriptPubKey": {"reqSigs": 1, "hex": "76a9148422a0dc7f8694d52251c06c460de2102367a5d788ac", "addresses": ["1D3fgLsPH7j3LxztH3GDU9TCYcSwwxhcLp"], "asm": "OP_DUP OP_HASH160 8422a0dc7f8694d52251c06c460de2102367a5d7 OP_EQUALVERIFY OP_CHECKSIG", "type": "pubkeyhash"}, "value": 0.06999718, "n": 1}], "hex": "01000000015f70cd419767b01c4039d9fe2fe4dcfd0f1850c4f665258f1f29aea2747368e5010000006b483045022100af93ec2877d1f62afeb87368d6fcddb6f80babb923a03c5d8c571a7c8ac166b002202f7c8c9615e13843b1b6eb0d5adc21a673991553d25c44dad6f7ed057291ad23012102f5cf5529d1628e2c25f80842087d30b388a7ad11974f9d42593bb1ca96695169ffffffff0279db26000000000017a914b59986e1e4c951c9bf031e418b619e36f1b2735687a6ce6a00000000001976a9148422a0dc7f8694d52251c06c460de2102367a5d788ac00000000", "vin": [{"sequence": 4294967295, "scriptSig": {"hex": "483045022100af93ec2877d1f62afeb87368d6fcddb6f80babb923a03c5d8c571a7c8ac166b002202f7c8c9615e13843b1b6eb0d5adc21a673991553d25c44dad6f7ed057291ad23012102f5cf5529d1628e2c25f80842087d30b388a7ad11974f9d42593bb1ca96695169", "asm": "3045022100af93ec2877d1f62afeb87368d6fcddb6f80babb923a03c5d8c571a7c8ac166b002202f7c8c9615e13843b1b6eb0d5adc21a673991553d25c44dad6f7ed057291ad23[ALL] 02f5cf5529d1628e2c25f80842087d30b388a7ad11974f9d42593bb1ca96695169"}, "vout": 1, "txid": "e5687374a2ae291f8f2565f6c450180ffddce42ffed939401cb0679741cd705f"}], "txid": "f839484a7376927b0d725ddad28c8ddd7d28c3f48a068314aea57f349b568bf0", "blocktime": 1537872475, "version": 1, "confirmations": 11486, "time": 1537872475, "locktime": 0, "vsize": 224, "size": 224}