{"hash": "438733d5d5d3ae6432a2172c2314ce710e32f1a6acc103a98c1fb648d5718f35", "blockhash": "0000000000000000000e13cef7c366c0283d82e591d1acd082e914b08063cdf1", "vout": [{"scriptPubKey": {"reqSigs": 1, "hex": "76a9148840ee32fef2993fa58c74c6ca5af8154c6d634388ac", "addresses": ["1DRSgY8jJURhpqEdhwdq6XG2NWqC1ZLCEt"], "asm": "OP_DUP OP_HASH160 8840ee32fef2993fa58c74c6ca5af8154c6d6343 OP_EQUALVERIFY OP_CHECKSIG", "type": "pubkeyhash"}, "value": 0.2, "n": 0}, {"scriptPubKey": {"reqSigs": 1, "hex": "00148c230a915745da0ae772a3c87752bcd51c9d436b", "addresses": ["bc1q3s3s4y2hghdq4emj50y8w54u65wf6smt2dl57e"], "asm": "0 8c230a915745da0ae772a3c87752bcd51c9d436b", "type": "witness_v0_keyhash"}, "value": 0.06995928, "n": 1}], "hex": "0100000000010391a198c03105da43cafbd272cdd905f3c3235670bd1133bdc524385bcf5b4db445000000171600148ec02cd87eccc4a21e7d165a973a082e880d45dbffffffff0a98aaa12d0c462570e1d0690d4d90410c9b28dcf4ca280480632c20ada889650100000017160014b1ccfdf326b9dc9f601b89fdc4eb29bd01fb0e5bffffffffeb6f8d5ff2d67a33209ba63035fc0162ea82e7d8b73e4d93ae0b17947e1858600000000000ffffffff02002d3101000000001976a9148840ee32fef2993fa58c74c6ca5af8154c6d634388acd8bf6a00000000001600148c230a915745da0ae772a3c87752bcd51c9d436b02473044022073aa7277146dda8be382ab9a9daa2fbe40e53007ae12383e1fa4c6966a27d341022011aa14109bacc35645af4c2bbfb885c5fa8a94f63d9aad45c1649add9fa92bdb012103ebe5bad393db17110fdd62623d940aff5a8bacc295e2c6390eecf7a126ccf05502483045022100a30e5c6bac8d811390604c03f386aceb21da0f2def58dfbdaac2e44a0881263802200e464c8a1bfca77ead48c7434a690a7bcea4f9a9fda5331a1038635fa6fd744001210293c2626d158b9ebcaa350c20b36c594effa915af67aa8ed0435dd29213a86d050247304402205119f42ad8bd40cc081c5e90fd91665daba448e0d660f7868ee0d4a904accd020220511434b22213aea013b2ef148d2e9dad429ba1d985ae626fe5d9fc84063fad30012103f7ad7865993455fb6b790edf1ccf41b0ace92e3f568c3837fd56206b33ca4bd700000000", "vin": [{"txinwitness": ["3044022073aa7277146dda8be382ab9a9daa2fbe40e53007ae12383e1fa4c6966a27d341022011aa14109bacc35645af4c2bbfb885c5fa8a94f63d9aad45c1649add9fa92bdb01", "03ebe5bad393db17110fdd62623d940aff5a8bacc295e2c6390eecf7a126ccf055"], "sequence": 4294967295, "scriptSig": {"hex": "1600148ec02cd87eccc4a21e7d165a973a082e880d45db", "asm": "00148ec02cd87eccc4a21e7d165a973a082e880d45db"}, "vout": 69, "txid": "b44d5bcf5b3824c5bd3311bd705623c3f305d9cd72d2fbca43da0531c098a191"}, {"txinwitness": ["3045022100a30e5c6bac8d811390604c03f386aceb21da0f2def58dfbdaac2e44a0881263802200e464c8a1bfca77ead48c7434a690a7bcea4f9a9fda5331a1038635fa6fd744001", "0293c2626d158b9ebcaa350c20b36c594effa915af67aa8ed0435dd29213a86d05"], "sequence": 4294967295, "scriptSig": {"hex": "160014b1ccfdf326b9dc9f601b89fdc4eb29bd01fb0e5b", "asm": "0014b1ccfdf326b9dc9f601b89fdc4eb29bd01fb0e5b"}, "vout": 1, "txid": "6589a8ad202c63800428caf4dc289b0c41904d0d69d0e17025460c2da1aa980a"}, {"txinwitness": ["304402205119f42ad8bd40cc081c5e90fd91665daba448e0d660f7868ee0d4a904accd020220511434b22213aea013b2ef148d2e9dad429ba1d985ae626fe5d9fc84063fad3001", "03f7ad7865993455fb6b790edf1ccf41b0ace92e3f568c3837fd56206b33ca4bd7"], "sequence": 4294967295, "scriptSig": {"hex": "", "asm": ""}, "vout": 0, "txid": "6058187e94170bae934d3eb7d8e782ea6201fc3530a69b20337ad6f25f8d6feb"}], "txid": "f8418a0bc8f910ae2dd2bd151d598edc814b9235e0293a849a617991a0602734", "blocktime": 1537871767, "version": 1, "confirmations": 11491, "time": 1537871767, "locktime": 0, "vsize": 325, "size": 568}