{"hash": "f84267dbca2b54f46bae68b3f9f1b01d4c967dcc107bdbc4028c95987e6a57d8", "blockhash": "0000000000000000001cda96e906b7601b7a6fb1a3b62bca570a9e5d8f4b3de1", "vout": [{"scriptPubKey": {"reqSigs": 1, "hex": "76a914fb5594d8252b79e0d1ad70878707a18f81acab9888ac", "addresses": ["1Puw8TA2WBnudSnymLGHWagGHqZEAgsvEZ"], "asm": "OP_DUP OP_HASH160 fb5594d8252b79e0d1ad70878707a18f81acab98 OP_EQUALVERIFY OP_CHECKSIG", "type": "pubkeyhash"}, "value": 0.08595316, "n": 0}, {"scriptPubKey": {"reqSigs": 1, "hex": "76a914319244845a287418a33e3a6587d52027448d8b3188ac", "addresses": ["15X7LFinLz7dSr7gASktAKs4xSxpzef2Lk"], "asm": "OP_DUP OP_HASH160 319244845a287418a33e3a6587d52027448d8b31 OP_EQUALVERIFY OP_CHECKSIG", "type": "pubkeyhash"}, "value": 0.54785421, "n": 1}], "hex": "0100000001fec70247b44e0aefd09c2c84b4d5a3212ba32d6ae1e253de826bff9795333114010000006b483045022100e2c3a4f292974a4b0989157ed745a9fe999010ce0d45d793c5b9e69d9fef76fe02204e767f9f37b3556a2b6ea45be079a8d5f4e24a221d1904fda434b2ede825435d012103710f137a625458b1007ece1ecdaf33fee420d1689009da606e971724ab8ff6d0ffffffff0274278300000000001976a914fb5594d8252b79e0d1ad70878707a18f81acab9888ac8df54303000000001976a914319244845a287418a33e3a6587d52027448d8b3188ac00000000", "vin": [{"sequence": 4294967295, "scriptSig": {"hex": "483045022100e2c3a4f292974a4b0989157ed745a9fe999010ce0d45d793c5b9e69d9fef76fe02204e767f9f37b3556a2b6ea45be079a8d5f4e24a221d1904fda434b2ede825435d012103710f137a625458b1007ece1ecdaf33fee420d1689009da606e971724ab8ff6d0", "asm": "3045022100e2c3a4f292974a4b0989157ed745a9fe999010ce0d45d793c5b9e69d9fef76fe02204e767f9f37b3556a2b6ea45be079a8d5f4e24a221d1904fda434b2ede825435d[ALL] 03710f137a625458b1007ece1ecdaf33fee420d1689009da606e971724ab8ff6d0"}, "vout": 1, "txid": "1431339597ff6b82de53e2e16a2da32b21a3d5b4842c9cd0ef0a4eb44702c7fe"}], "txid": "f84267dbca2b54f46bae68b3f9f1b01d4c967dcc107bdbc4028c95987e6a57d8", "blocktime": 1537873282, "version": 1, "confirmations": 11485, "time": 1537873282, "locktime": 0, "vsize": 226, "size": 226}