{"hash": "1562fe4d6f0dcec736497cf7bbd33da460c955d8c61112b4ebd4513ceb8e4492", "blockhash": "0000000000000000001f76057863aec43deb6fa401d9628bb513d65a8098bfab", "vout": [{"scriptPubKey": {"reqSigs": 1, "hex": "76a9149a1b8f9b1fa2d2297863adb1cb11c71df455684888ac", "addresses": ["1F3r5We2zwNiSzG6GQUTTWnnPMCz2HJbJu"], "asm": "OP_DUP OP_HASH160 9a1b8f9b1fa2d2297863adb1cb11c71df4556848 OP_EQUALVERIFY OP_CHECKSIG", "type": "pubkeyhash"}, "value": 2.686e-05, "n": 0}, {"scriptPubKey": {"reqSigs": 1, "hex": "a9148ddb66c3371910a0ef8f38021cc4094e61e69f3a87", "addresses": ["3Ed62sPENkraPwpovPty9YMFGJ8FtTyv63"], "asm": "OP_HASH160 8ddb66c3371910a0ef8f38021cc4094e61e69f3a OP_EQUAL", "type": "scripthash"}, "value": 0.04986399, "n": 1}], "hex": "010000000001016757c5b62c44d737dfd2dbe329d0cbc48a5067fedf8298707735fcfe810fedb60100000023220020fdd23d707f55451c4e006c77b5e8df35a185a8e99f9bda70bf0ded7913bb1eb3ffffffff027e0a0000000000001976a9149a1b8f9b1fa2d2297863adb1cb11c71df455684888ac1f164c000000000017a9148ddb66c3371910a0ef8f38021cc4094e61e69f3a87040047304402207b6541814f1fbb0fc8af6b524bfbd17cc912c1bd0b7fc0f996321de76b1e401e02202894c587b799716bd3bc8a5ee659bfd3299cb02c37a20ea2f1263a315825056501483045022100ede6736dff3283d801d6e5d4fbed5ba4951aa0b6d976e0f38239438e73657c97022027ce098646da2bde02152e343b75bcd16c52bf7391a8f996fe4e841035857fac014752210286c104577b978160849865bc23f9a6df9b53d41c8ffb486754b97b2a474a181c2103148c80a5bdfddb05ff5bcffc397c8ca748d8b435ec6a175bc9d7bfc7fc6f853752ae00000000", "vin": [{"txinwitness": ["", "304402207b6541814f1fbb0fc8af6b524bfbd17cc912c1bd0b7fc0f996321de76b1e401e02202894c587b799716bd3bc8a5ee659bfd3299cb02c37a20ea2f1263a315825056501", "3045022100ede6736dff3283d801d6e5d4fbed5ba4951aa0b6d976e0f38239438e73657c97022027ce098646da2bde02152e343b75bcd16c52bf7391a8f996fe4e841035857fac01", "52210286c104577b978160849865bc23f9a6df9b53d41c8ffb486754b97b2a474a181c2103148c80a5bdfddb05ff5bcffc397c8ca748d8b435ec6a175bc9d7bfc7fc6f853752ae"], "sequence": 4294967295, "scriptSig": {"hex": "220020fdd23d707f55451c4e006c77b5e8df35a185a8e99f9bda70bf0ded7913bb1eb3", "asm": "0020fdd23d707f55451c4e006c77b5e8df35a185a8e99f9bda70bf0ded7913bb1eb3"}, "vout": 1, "txid": "b6ed0f81fefc3577709882dffe67508ac4cbd029e3dbd2df37d7442cb6c55767"}], "txid": "f8477f9057b3d155928750842f6759545352c24de4fb13aef2b610f043f0a004", "blocktime": 1537873891, "version": 1, "confirmations": 11478, "time": 1537873891, "locktime": 0, "vsize": 208, "size": 373}