{"hash": "f84c75e5175a7243ebaaf2ece16c1581f98ae0ebc1eac19edf5cac88fd79600a", "blockhash": "00000000000000000018f53835495a110e01622372bf6ae95dc86f2b0ab887b0", "vout": [{"scriptPubKey": {"reqSigs": 1, "hex": "a914939b29c951dd67b1d8fd8a500684490aadf9c54287", "addresses": ["3F9V8fyxKoZHu6c64MnFr8Kcn44WKt16Nr"], "asm": "OP_HASH160 939b29c951dd67b1d8fd8a500684490aadf9c542 OP_EQUAL", "type": "scripthash"}, "value": 0.02071984, "n": 0}], "hex": "01000000017af570a93e03d1e56889c1a770bdd2f33a43bf7aed4b6bfc337c3c46edc19c21000000006b483045022100d6d1164882cb9845a5b10e414ffd3fd2da4d6b3c28c250f31f4cb8722a9643cd0220185854804469c30276af0bca6cd178e8e11e6b6e9680be542d408d8d6c4c4b3201210395dbe70d2044ec7db8a237eb433052c36261330f291b8ab490bea576980394cbffffffff01b09d1f000000000017a914939b29c951dd67b1d8fd8a500684490aadf9c5428700000000", "vin": [{"sequence": 4294967295, "scriptSig": {"hex": "483045022100d6d1164882cb9845a5b10e414ffd3fd2da4d6b3c28c250f31f4cb8722a9643cd0220185854804469c30276af0bca6cd178e8e11e6b6e9680be542d408d8d6c4c4b3201210395dbe70d2044ec7db8a237eb433052c36261330f291b8ab490bea576980394cb", "asm": "3045022100d6d1164882cb9845a5b10e414ffd3fd2da4d6b3c28c250f31f4cb8722a9643cd0220185854804469c30276af0bca6cd178e8e11e6b6e9680be542d408d8d6c4c4b32[ALL] 0395dbe70d2044ec7db8a237eb433052c36261330f291b8ab490bea576980394cb"}, "vout": 0, "txid": "219cc1ed463c7c33fc6b4bed7abf433af3d2bd70a7c18968e5d1033ea970f57a"}], "txid": "f84c75e5175a7243ebaaf2ece16c1581f98ae0ebc1eac19edf5cac88fd79600a", "blocktime": 1537870928, "version": 1, "confirmations": 11514, "time": 1537870928, "locktime": 0, "vsize": 190, "size": 190}