{"hash": "f850d0847da21bf8705f5d469f0a647100d426fe7b67047ed7e36b6678f75a15", "blockhash": "00000000000000000004ffacab907a6b429b9a5745fa0b75af4234bf69dd7176", "vout": [{"scriptPubKey": {"type": "nulldata", "hex": "6a146f6d6e69000000000000001f0000012a5312df80", "asm": "OP_RETURN 6f6d6e69000000000000001f0000012a5312df80"}, "value": 0.0, "n": 0}, {"scriptPubKey": {"reqSigs": 1, "hex": "76a91448239e13582246b6d2d88cb790c75554c297936088ac", "addresses": ["17aSKZMgPuzUamwWMr3Fe6qZpSNKppMBWx"], "asm": "OP_DUP OP_HASH160 48239e13582246b6d2d88cb790c75554c2979360 OP_EQUALVERIFY OP_CHECKSIG", "type": "pubkeyhash"}, "value": 5.46e-06, "n": 1}, {"scriptPubKey": {"reqSigs": 1, "hex": "76a914a25dec4d0011064ef106a983c39c7a540699f22088ac", "addresses": ["1FoWyxwPXuj4C6abqwhjDWdz6D4PZgYRjA"], "asm": "OP_DUP OP_HASH160 a25dec4d0011064ef106a983c39c7a540699f220 OP_EQUALVERIFY OP_CHECKSIG", "type": "pubkeyhash"}, "value": 0.0198558, "n": 2}], "hex": "0100000001701b9a37f967622f91d0c687370ebffffe972537d30d0efb7d069a0beb4c4485010000006a4730440220644460547cd78d6bc72c69cf1f83ecb652e1a6bf3cb4621354f0df042525fec3022010c2ee847b9b93396c32a3b03cdd155fbf3379770514a3b75b014cbe024f9d4d012103da5bac7b36d5aa38f531c6b9601e21bb598a4b6716ebed38b009a55dabde9440feffffff030000000000000000166a146f6d6e69000000000000001f0000012a5312df8022020000000000001976a91448239e13582246b6d2d88cb790c75554c297936088ac2c4c1e00000000001976a914a25dec4d0011064ef106a983c39c7a540699f22088ac16490800", "vin": [{"sequence": 4294967294, "scriptSig": {"hex": "4730440220644460547cd78d6bc72c69cf1f83ecb652e1a6bf3cb4621354f0df042525fec3022010c2ee847b9b93396c32a3b03cdd155fbf3379770514a3b75b014cbe024f9d4d012103da5bac7b36d5aa38f531c6b9601e21bb598a4b6716ebed38b009a55dabde9440", "asm": "30440220644460547cd78d6bc72c69cf1f83ecb652e1a6bf3cb4621354f0df042525fec3022010c2ee847b9b93396c32a3b03cdd155fbf3379770514a3b75b014cbe024f9d4d[ALL] 03da5bac7b36d5aa38f531c6b9601e21bb598a4b6716ebed38b009a55dabde9440"}, "vout": 1, "txid": "85444ceb0b9a067dfb0e0dd3372597feffbf0e3787c6d0912f6267f9379a1b70"}], "txid": "f850d0847da21bf8705f5d469f0a647100d426fe7b67047ed7e36b6678f75a15", "blocktime": 1537875543, "version": 1, "confirmations": 11464, "time": 1537875543, "locktime": 542998, "vsize": 256, "size": 256}