{"hash": "cdfed0e5463a9651b154fc3e945ed62a9606d577c6f759f5ebd5f5b6f16963b9", "blockhash": "00000000000000000018f53835495a110e01622372bf6ae95dc86f2b0ab887b0", "vout": [{"scriptPubKey": {"reqSigs": 1, "hex": "00205bfbaf6c3d94e9f0d34db1b03904941f6bce77627ca3f7b5045e6f5470ac79d6", "addresses": ["bc1qt0a67mpajn5lp56dkxcrjpy5ra4uuamz0j3l0dgyteh4gu9v08tqsukpdr"], "asm": "0 5bfbaf6c3d94e9f0d34db1b03904941f6bce77627ca3f7b5045e6f5470ac79d6", "type": "witness_v0_scripthash"}, "value": 0.004, "n": 0}, {"scriptPubKey": {"reqSigs": 1, "hex": "0014cdaf45aebe6556316a5ba55b4fd81bc59500fef4", "addresses": ["bc1qekh5tt47v4trz6jm54d5lkqmck2splh5ns055k"], "asm": "0 cdaf45aebe6556316a5ba55b4fd81bc59500fef4", "type": "witness_v0_keyhash"}, "value": 0.09413152, "n": 1}], "hex": "0100000000010157c20f663cad68fdc29b9c38d2815806178631710b43374421ce8a02e6ccaa420100000000ffffffff02801a0600000000002200205bfbaf6c3d94e9f0d34db1b03904941f6bce77627ca3f7b5045e6f5470ac79d620a28f0000000000160014cdaf45aebe6556316a5ba55b4fd81bc59500fef40247304402200ba3b001d4e64d3e31d5e39981bc7711b4ce7237b974d497ac40200633f00ef6022048fc963ca7ed28a0d2641590800d613da5477aeaa00f58dd92820f1028f2906901210273d12df4337207e16c383c0c6776809966d7e1aa3f1c16388fa21c5bb8e5960700000000", "vin": [{"txinwitness": ["304402200ba3b001d4e64d3e31d5e39981bc7711b4ce7237b974d497ac40200633f00ef6022048fc963ca7ed28a0d2641590800d613da5477aeaa00f58dd92820f1028f2906901", "0273d12df4337207e16c383c0c6776809966d7e1aa3f1c16388fa21c5bb8e59607"], "sequence": 4294967295, "scriptSig": {"hex": "", "asm": ""}, "vout": 1, "txid": "42aacce6028ace214437430b71318617065881d2389c9bc2fd68ad3c660fc257"}], "txid": "f852eab1032e4e6a4f53753291910ef38e6962143cd017d7f64c76f493905fff", "blocktime": 1537870928, "version": 1, "confirmations": 11514, "time": 1537870928, "locktime": 0, "vsize": 153, "size": 234}