{"hash": "f859a8db1aa3be9020042051a55bc1f132df3ed791a15bfea6a87000fe8d01b2", "blockhash": "00000000000000000004ffacab907a6b429b9a5745fa0b75af4234bf69dd7176", "vout": [{"scriptPubKey": {"reqSigs": 1, "hex": "76a914f330bef0039e0efa565c8c489303ed879824215788ac", "addresses": ["1PAsbY5UqwSXeGG3h6rbFFPHb3HZr5txg6"], "asm": "OP_DUP OP_HASH160 f330bef0039e0efa565c8c489303ed8798242157 OP_EQUALVERIFY OP_CHECKSIG", "type": "pubkeyhash"}, "value": 1.0, "n": 0}, {"scriptPubKey": {"reqSigs": 1, "hex": "76a9146f7db603173ef5f23bcc649e4acece09cc5cb94d88ac", "addresses": ["1BAWbr3KghaeQbdwmt2FzLz5bPuW5Q1mmg"], "asm": "OP_DUP OP_HASH160 6f7db603173ef5f23bcc649e4acece09cc5cb94d OP_EQUALVERIFY OP_CHECKSIG", "type": "pubkeyhash"}, "value": 0.00238008, "n": 1}], "hex": "0100000002c05fcfc34349aa4f698b6f0fb0326293c4201e62e65a1288b5c243eac0a536982c0000006b483045022100af3ddbb9f79abc91623156dc8119569434faee04d00937e636ffb158038e0b7402207324de85d315caf60ea7b1f74f6c9249a6f29b639c107f1cf74856c0a2f3e68f012103e6b6794265b426355e0604edc44b7af6ed97793abc0b17140e6d03aa3ece02e4ffffffff93c955f070d046e0a2f70c29a2a676daca70f75407c3da6a574a4e47395ccabb010000006b4830450221008d083ae82e89fa86f51980da1f486c3637c36429158630e1a0370a75161e8f84022073fae6f07367ec81f9490409b08bf8dcb342a804d65cc42bddae1ca7f88600de012103deabf0a154086eed7e2f70ecf2bb91b7e9c4f790c071e38491d0123125e61342ffffffff0200e1f505000000001976a914f330bef0039e0efa565c8c489303ed879824215788acb8a10300000000001976a9146f7db603173ef5f23bcc649e4acece09cc5cb94d88ac00000000", "vin": [{"sequence": 4294967295, "scriptSig": {"hex": "483045022100af3ddbb9f79abc91623156dc8119569434faee04d00937e636ffb158038e0b7402207324de85d315caf60ea7b1f74f6c9249a6f29b639c107f1cf74856c0a2f3e68f012103e6b6794265b426355e0604edc44b7af6ed97793abc0b17140e6d03aa3ece02e4", "asm": "3045022100af3ddbb9f79abc91623156dc8119569434faee04d00937e636ffb158038e0b7402207324de85d315caf60ea7b1f74f6c9249a6f29b639c107f1cf74856c0a2f3e68f[ALL] 03e6b6794265b426355e0604edc44b7af6ed97793abc0b17140e6d03aa3ece02e4"}, "vout": 44, "txid": "9836a5c0ea43c2b588125ae6621e20c4936232b00f6f8b694faa4943c3cf5fc0"}, {"sequence": 4294967295, "scriptSig": {"hex": "4830450221008d083ae82e89fa86f51980da1f486c3637c36429158630e1a0370a75161e8f84022073fae6f07367ec81f9490409b08bf8dcb342a804d65cc42bddae1ca7f88600de012103deabf0a154086eed7e2f70ecf2bb91b7e9c4f790c071e38491d0123125e61342", "asm": "30450221008d083ae82e89fa86f51980da1f486c3637c36429158630e1a0370a75161e8f84022073fae6f07367ec81f9490409b08bf8dcb342a804d65cc42bddae1ca7f88600de[ALL] 03deabf0a154086eed7e2f70ecf2bb91b7e9c4f790c071e38491d0123125e61342"}, "vout": 1, "txid": "bbca5c39474e4a576adac30754f770cada76a6a2290cf7a2e046d070f055c993"}], "txid": "f859a8db1aa3be9020042051a55bc1f132df3ed791a15bfea6a87000fe8d01b2", "blocktime": 1537875543, "version": 1, "confirmations": 11464, "time": 1537875543, "locktime": 0, "vsize": 374, "size": 374}