{"hash": "3ad665e3ba072ec6a7cf3ea8b088141eb378e3ea4d29dc449878fe58e0069f3c", "blockhash": "00000000000000000017f5eb5941039fbcee6240d03bc1f2f8e35350df66a1d8", "vout": [{"scriptPubKey": {"reqSigs": 1, "hex": "0014502f10f5b1cfdb3ded9e6ab2267c7fafdc1b0aba", "addresses": ["bc1q2qh3pad3eldnmmv7d2ezvlrl4lwpkz46aat299"], "asm": "0 502f10f5b1cfdb3ded9e6ab2267c7fafdc1b0aba", "type": "witness_v0_keyhash"}, "value": 0.08457776, "n": 0}, {"scriptPubKey": {"reqSigs": 1, "hex": "a914fa0de766aa125b44c5259c550596b07e0240bab087", "addresses": ["3QVBWZYkyMXVLig7P9J8FpaQtB4SZvP6YV"], "asm": "OP_HASH160 fa0de766aa125b44c5259c550596b07e0240bab0 OP_EQUAL", "type": "scripthash"}, "value": 0.09655943, "n": 1}], "hex": "01000000000101a44155fc7e340eefd2a9d9f8754ab9e0e2c64d963fea106bf0883aa0e19a18610000000017160014840801386618f580a8a77dacf73dc9620d4fb9a8ffffffff02300e810000000000160014502f10f5b1cfdb3ded9e6ab2267c7fafdc1b0aba875693000000000017a914fa0de766aa125b44c5259c550596b07e0240bab08702483045022100a18742ebb5e89b31dbadb44d885623af11dfb13b8322d556210a77f24605e0cb02207a488877785ed2aa8edb114be8d299f417e1dd7b5779f4190bff5f97f2aec8db012103e670c2b66543f8f257e54a9307718f8a4e0efdf29b862543e11d6d67825f56aa00000000", "vin": [{"txinwitness": ["3045022100a18742ebb5e89b31dbadb44d885623af11dfb13b8322d556210a77f24605e0cb02207a488877785ed2aa8edb114be8d299f417e1dd7b5779f4190bff5f97f2aec8db01", "03e670c2b66543f8f257e54a9307718f8a4e0efdf29b862543e11d6d67825f56aa"], "sequence": 4294967295, "scriptSig": {"hex": "160014840801386618f580a8a77dacf73dc9620d4fb9a8", "asm": "0014840801386618f580a8a77dacf73dc9620d4fb9a8"}, "vout": 0, "txid": "61189ae1a03a88f06b10ea3f964dc6e2e0b94a75f8d9a9d2ef0e347efc5541a4"}], "txid": "f85b482a733c192c3c99e1f1d7cbf69039358b1f5aebadaeab25a2ce57770fd4", "blocktime": 1537874412, "version": 1, "confirmations": 11467, "time": 1537874412, "locktime": 0, "vsize": 165, "size": 247}