{"hash": "f86603dd899cf6dce87ade26384a4e85578e9bf8e949bc9b1a0daaf203421666", "blockhash": "0000000000000000000dcc0f55137456b1a82d3642486a52398922ac4d620174", "vout": [{"scriptPubKey": {"reqSigs": 1, "hex": "a914369dc519d94c225115345ad7dcd63ebe774cb4e987", "addresses": ["36foQx1Ps8SURmyAtZnpKoohDvwvZrAqvS"], "asm": "OP_HASH160 369dc519d94c225115345ad7dcd63ebe774cb4e9 OP_EQUAL", "type": "scripthash"}, "value": 0.0029616, "n": 0}, {"scriptPubKey": {"reqSigs": 1, "hex": "76a914ae8e7791f6c24f5fd5532f1f920694c17344b6bc88ac", "addresses": ["1GuyFAX7DhtueZseJEhPVPdh2gv46v7y1a"], "asm": "OP_DUP OP_HASH160 ae8e7791f6c24f5fd5532f1f920694c17344b6bc OP_EQUALVERIFY OP_CHECKSIG", "type": "pubkeyhash"}, "value": 0.12858962, "n": 1}], "hex": "01000000014c82a7a0f5e781f9c6d9bf23d8c12fa34387dceacc5c8718763fd81ed4f4bafd010000006b483045022100ce77ddecdc2060d9500d05261c49f03979cbf0e7fe9d9feaed8650b691218ebf022054aea40bfff814fc893e3c62a22bea6578c0748b5916f681d54e22056d1f4e6b0121022efea5dc11a7c7d6d407d9996ea38145c2bfcdca40ac79fa1cac80e079b8e1e8ffffffff02e08404000000000017a914369dc519d94c225115345ad7dcd63ebe774cb4e9875236c400000000001976a914ae8e7791f6c24f5fd5532f1f920694c17344b6bc88ac00000000", "vin": [{"sequence": 4294967295, "scriptSig": {"hex": "483045022100ce77ddecdc2060d9500d05261c49f03979cbf0e7fe9d9feaed8650b691218ebf022054aea40bfff814fc893e3c62a22bea6578c0748b5916f681d54e22056d1f4e6b0121022efea5dc11a7c7d6d407d9996ea38145c2bfcdca40ac79fa1cac80e079b8e1e8", "asm": "3045022100ce77ddecdc2060d9500d05261c49f03979cbf0e7fe9d9feaed8650b691218ebf022054aea40bfff814fc893e3c62a22bea6578c0748b5916f681d54e22056d1f4e6b[ALL] 022efea5dc11a7c7d6d407d9996ea38145c2bfcdca40ac79fa1cac80e079b8e1e8"}, "vout": 1, "txid": "fdbaf4d41ed83f7618875ccceadc8743a32fc1d823bfd9c6f981e7f5a0a7824c"}], "txid": "f86603dd899cf6dce87ade26384a4e85578e9bf8e949bc9b1a0daaf203421666", "blocktime": 1537870268, "version": 1, "confirmations": 11516, "time": 1537870268, "locktime": 0, "vsize": 224, "size": 224}