{"hash": "f7884f1ce59e42d8df3f2727a343ca1eb3c90320a0a264bb32d3dae59b239d2a", "blockhash": "0000000000000000000baef3f32e3676a92c3b2e5da21b426e4f302fc371ce76", "vout": [{"scriptPubKey": {"reqSigs": 1, "hex": "a91452d9fe28fe4ae24c907e0520cc13bb29e365f54187", "addresses": ["39F6UgPskKB5DDETnXHjk5VN51FGD1tWP7"], "asm": "OP_HASH160 52d9fe28fe4ae24c907e0520cc13bb29e365f541 OP_EQUAL", "type": "scripthash"}, "value": 0.279, "n": 0}, {"scriptPubKey": {"reqSigs": 1, "hex": "76a9141d91749778a12473489bb2624554b2219b16dbfa88ac", "addresses": ["13hLqz55eGrHSAN4ipt9yCAKqLubNzBbhz"], "asm": "OP_DUP OP_HASH160 1d91749778a12473489bb2624554b2219b16dbfa OP_EQUALVERIFY OP_CHECKSIG", "type": "pubkeyhash"}, "value": 0.0023939, "n": 1}, {"scriptPubKey": {"reqSigs": 1, "hex": "0020701a8d401c84fb13e6baf169d59684e17abd9fa216c8cc5b9fc63d622ff8c58d", "addresses": ["bc1qwqdg6squsna38e46795at95yu9atm8azzmyvckulcc7kytlcckxswvvzej"], "asm": "0 701a8d401c84fb13e6baf169d59684e17abd9fa216c8cc5b9fc63d622ff8c58d", "type": "witness_v0_scripthash"}, "value": 2.50585015, "n": 2}], "hex": "0100000000010197403f6b9b629c7b0fa3534a7e19ab88b3c6742c8f96236ec5634a39177320ec0100000000ffffffff0360b8a9010000000017a91452d9fe28fe4ae24c907e0520cc13bb29e365f541871ea70300000000001976a9141d91749778a12473489bb2624554b2219b16dbfa88acb79fef0e00000000220020701a8d401c84fb13e6baf169d59684e17abd9fa216c8cc5b9fc63d622ff8c58d040047304402206161d2830acb02192c6086f90683261dbb9f82d74fa238697bd20ccf5c1588cb02203dd0308116f8f1f1c8bd44bea7352c3ad660d91e0d6fe4c675c584d629445ed701473044022053567216ef410e6de831908f023e71d2e5287acd999c088bfa37dc4860d265a60220425ba1246fdc6b06d813c4f111a696a6f0c257e9217b2af58f80ecfd544bcd43016952210375e00eb72e29da82b89367947f29ef34afb75e8654f6ea368e0acdfd92976b7c2103a1b26313f430c4b15bb1fdce663207659d8cac749a0e53d70eff01874496feff2103c96d495bfdd5ba4145e3e046fee45e84a8a48ad05bd8dbb395c011a32cf9f88053ae00000000", "vin": [{"txinwitness": ["", "304402206161d2830acb02192c6086f90683261dbb9f82d74fa238697bd20ccf5c1588cb02203dd0308116f8f1f1c8bd44bea7352c3ad660d91e0d6fe4c675c584d629445ed701", "3044022053567216ef410e6de831908f023e71d2e5287acd999c088bfa37dc4860d265a60220425ba1246fdc6b06d813c4f111a696a6f0c257e9217b2af58f80ecfd544bcd4301", "52210375e00eb72e29da82b89367947f29ef34afb75e8654f6ea368e0acdfd92976b7c2103a1b26313f430c4b15bb1fdce663207659d8cac749a0e53d70eff01874496feff2103c96d495bfdd5ba4145e3e046fee45e84a8a48ad05bd8dbb395c011a32cf9f88053ae"], "sequence": 4294967295, "scriptSig": {"hex": "", "asm": ""}, "vout": 1, "txid": "ec207317394a63c56e23968f2c74c6b388ab197e4a53a30f7b9c629b6b3f4097"}], "txid": "f86ffb6ac0f19ed59197aed87608d2339e0f4143bad8be781c809f95617e195a", "blocktime": 1537876114, "version": 1, "confirmations": 11459, "time": 1537876114, "locktime": 0, "vsize": 224, "size": 414}