{"hash": "f87279cd0b4bda7f303b51bf3f65d2d4a3493daf1d39855980e51beb34b68c26", "blockhash": "00000000000000000017f5eb5941039fbcee6240d03bc1f2f8e35350df66a1d8", "vout": [{"scriptPubKey": {"reqSigs": 1, "hex": "a914fef636cb9b90a6dd3096a2c2df1257cf39094fd287", "addresses": ["3Qw8WX8qp7MGJ9pKccQDNJJpjB36wmuPxX"], "asm": "OP_HASH160 fef636cb9b90a6dd3096a2c2df1257cf39094fd2 OP_EQUAL", "type": "scripthash"}, "value": 0.051, "n": 0}, {"scriptPubKey": {"reqSigs": 1, "hex": "a9141adadf022ea4a13b5c779c15ab960b2d90d41bb487", "addresses": ["3491gxrfZtK9CjG4AwgkdJ5NxQEVkSXhLF"], "asm": "OP_HASH160 1adadf022ea4a13b5c779c15ab960b2d90d41bb4 OP_EQUAL", "type": "scripthash"}, "value": 0.02828704, "n": 1}], "hex": "0100000003365f9681561f1ff97a8372411d2e2d8fb0de711ad2dbc778be0de93fbe34e3be01000000fdfd0000483045022100908f1164ceff8082c52fed1aac1ed68b1e8f18f2392f071d6e86697d803fe3c6022067b71f67ef826b3cfb7d0d005d61c79bbca88e390e4ab50e59ffc2dbd7f50ab1014730440220684fc1af1a92bb143941078bb7a89f6c65880ca22feee56ed84bb5c758cc86a4022016ad85854e741a22fc94bf48cf3a51b5e7fbba24fee814534d58c7e6bf156e31014c695221024b0cd63d98008a48d7148ddb34be5e88ae91d69f0c56fabda69caa010e94688621035e8cf794eb5581a8da3b7d0127748f692ca01a0896730864f37c50df921c3ba121038f23b4e0078fbd63345d55276d0c30219997e4fa5356e6c8ea1850a9d707e6df53aefffffffff67da2e8c8c3ac217ac5c3a42058ffedfccbcfa09d62a07e11a53d75bdf745ea01000000fdfd0000483045022100e128a539384e03cdde3e9dcb07ecac252aed5a71ff11c7ebbc099e4ab08a5c7f02206c10e76c4df8e5f1cd1004b15dd0955564432ee489f2bb1f69d87e973125b5d10147304402203eef916cea8625183be437c3dc9e7656eedc576448a38c8e41f3d8d0bd5ffb3902206b667bedade1aae902c777cdd17736292ea866f6cfe8ae81d7ac663fecaa3948014c695221029056704b059c85915d2c1b33812877853c27219999cf925ffd69f2f22f2b92aa2103027e84e52702c9133b9a813b6f10e98aea8a8c4de136eaff7dd0942c7de9a8b021032f8d73ae91b9ce86e4c421d24fabdd9ac1bd08aa847cfb9b8218c9f971d37a2853aeffffffff126fe01cfbf66f06860f4d0c1c2be9d723d7ade55c2806036fd2d363db78d90c00000000fdfd0000473044022056005c2587c378e5b3877af7e662ac8a2461ba95ea3479d3c54b5d719b63b14002207be6909bbc0cea3209c6e3515db98c034baa34b575a6e41a776cdeb44ad9294001483045022100c52158771eb1908c98cd352ad35875a509926225d719a74114ef9772adfc40d2022077d41f5e9f619e9f8803aedefb400e0daf19f8b0f3db0ae5a948ff34710ea550014c695221021ff4cafaf65320e9ff6bfe01d6b895aba8af919adc0f5484ffb8b296afadac7721028bc6bc4781b461e7102ac335787f69cef150ced3cb545525e395a0396b3c87d12102a02598efda5ca7141bb80639f4adf9318a66d534eb26c47271a9b8aba3895aef53aeffffffff02e0d14d000000000017a914fef636cb9b90a6dd3096a2c2df1257cf39094fd287a0292b000000000017a9141adadf022ea4a13b5c779c15ab960b2d90d41bb48700000000", "vin": [{"sequence": 4294967295, "scriptSig": {"hex": "00483045022100908f1164ceff8082c52fed1aac1ed68b1e8f18f2392f071d6e86697d803fe3c6022067b71f67ef826b3cfb7d0d005d61c79bbca88e390e4ab50e59ffc2dbd7f50ab1014730440220684fc1af1a92bb143941078bb7a89f6c65880ca22feee56ed84bb5c758cc86a4022016ad85854e741a22fc94bf48cf3a51b5e7fbba24fee814534d58c7e6bf156e31014c695221024b0cd63d98008a48d7148ddb34be5e88ae91d69f0c56fabda69caa010e94688621035e8cf794eb5581a8da3b7d0127748f692ca01a0896730864f37c50df921c3ba121038f23b4e0078fbd63345d55276d0c30219997e4fa5356e6c8ea1850a9d707e6df53ae", "asm": "0 3045022100908f1164ceff8082c52fed1aac1ed68b1e8f18f2392f071d6e86697d803fe3c6022067b71f67ef826b3cfb7d0d005d61c79bbca88e390e4ab50e59ffc2dbd7f50ab1[ALL] 30440220684fc1af1a92bb143941078bb7a89f6c65880ca22feee56ed84bb5c758cc86a4022016ad85854e741a22fc94bf48cf3a51b5e7fbba24fee814534d58c7e6bf156e31[ALL] 5221024b0cd63d98008a48d7148ddb34be5e88ae91d69f0c56fabda69caa010e94688621035e8cf794eb5581a8da3b7d0127748f692ca01a0896730864f37c50df921c3ba121038f23b4e0078fbd63345d55276d0c30219997e4fa5356e6c8ea1850a9d707e6df53ae"}, "vout": 1, "txid": "bee334be3fe90dbe78c7dbd21a71deb08f2d2e1d4172837af91f1f5681965f36"}, {"sequence": 4294967295, "scriptSig": {"hex": "00483045022100e128a539384e03cdde3e9dcb07ecac252aed5a71ff11c7ebbc099e4ab08a5c7f02206c10e76c4df8e5f1cd1004b15dd0955564432ee489f2bb1f69d87e973125b5d10147304402203eef916cea8625183be437c3dc9e7656eedc576448a38c8e41f3d8d0bd5ffb3902206b667bedade1aae902c777cdd17736292ea866f6cfe8ae81d7ac663fecaa3948014c695221029056704b059c85915d2c1b33812877853c27219999cf925ffd69f2f22f2b92aa2103027e84e52702c9133b9a813b6f10e98aea8a8c4de136eaff7dd0942c7de9a8b021032f8d73ae91b9ce86e4c421d24fabdd9ac1bd08aa847cfb9b8218c9f971d37a2853ae", "asm": "0 3045022100e128a539384e03cdde3e9dcb07ecac252aed5a71ff11c7ebbc099e4ab08a5c7f02206c10e76c4df8e5f1cd1004b15dd0955564432ee489f2bb1f69d87e973125b5d1[ALL] 304402203eef916cea8625183be437c3dc9e7656eedc576448a38c8e41f3d8d0bd5ffb3902206b667bedade1aae902c777cdd17736292ea866f6cfe8ae81d7ac663fecaa3948[ALL] 5221029056704b059c85915d2c1b33812877853c27219999cf925ffd69f2f22f2b92aa2103027e84e52702c9133b9a813b6f10e98aea8a8c4de136eaff7dd0942c7de9a8b021032f8d73ae91b9ce86e4c421d24fabdd9ac1bd08aa847cfb9b8218c9f971d37a2853ae"}, "vout": 1, "txid": "ea45f7bd753da5117ea0629da0cfcbfcedff5820a4c3c57a21acc3c8e8a27df6"}, {"sequence": 4294967295, "scriptSig": {"hex": "00473044022056005c2587c378e5b3877af7e662ac8a2461ba95ea3479d3c54b5d719b63b14002207be6909bbc0cea3209c6e3515db98c034baa34b575a6e41a776cdeb44ad9294001483045022100c52158771eb1908c98cd352ad35875a509926225d719a74114ef9772adfc40d2022077d41f5e9f619e9f8803aedefb400e0daf19f8b0f3db0ae5a948ff34710ea550014c695221021ff4cafaf65320e9ff6bfe01d6b895aba8af919adc0f5484ffb8b296afadac7721028bc6bc4781b461e7102ac335787f69cef150ced3cb545525e395a0396b3c87d12102a02598efda5ca7141bb80639f4adf9318a66d534eb26c47271a9b8aba3895aef53ae", "asm": "0 3044022056005c2587c378e5b3877af7e662ac8a2461ba95ea3479d3c54b5d719b63b14002207be6909bbc0cea3209c6e3515db98c034baa34b575a6e41a776cdeb44ad92940[ALL] 3045022100c52158771eb1908c98cd352ad35875a509926225d719a74114ef9772adfc40d2022077d41f5e9f619e9f8803aedefb400e0daf19f8b0f3db0ae5a948ff34710ea550[ALL] 5221021ff4cafaf65320e9ff6bfe01d6b895aba8af919adc0f5484ffb8b296afadac7721028bc6bc4781b461e7102ac335787f69cef150ced3cb545525e395a0396b3c87d12102a02598efda5ca7141bb80639f4adf9318a66d534eb26c47271a9b8aba3895aef53ae"}, "vout": 0, "txid": "0cd978db63d3d26f0306285ce5add723d7e92b1c0c4d0f86066ff6fb1ce06f12"}], "txid": "f87279cd0b4bda7f303b51bf3f65d2d4a3493daf1d39855980e51beb34b68c26", "blocktime": 1537874412, "version": 1, "confirmations": 11467, "time": 1537874412, "locktime": 0, "vsize": 962, "size": 962}