{"hash": "f87612b226ef5b10d8ac7076568a787f45ae185fc795e4e9779cf8022a300371", "blockhash": "0000000000000000001f0ddff1eddb255c1121bcd4da4f1bc9a0da00cae72433", "vout": [{"scriptPubKey": {"type": "nulldata", "hex": "6a146f6d6e69000000000000001f0000000b30d72180", "asm": "OP_RETURN 6f6d6e69000000000000001f0000000b30d72180"}, "value": 0.0, "n": 0}, {"scriptPubKey": {"reqSigs": 1, "hex": "76a9140ea2c16f9786cdfea33384770c72f226ae93ef3f88ac", "addresses": ["12LPS9L3BtpHJxCw7CBABQHFsKc7wFRjAR"], "asm": "OP_DUP OP_HASH160 0ea2c16f9786cdfea33384770c72f226ae93ef3f OP_EQUALVERIFY OP_CHECKSIG", "type": "pubkeyhash"}, "value": 5.46e-06, "n": 1}, {"scriptPubKey": {"reqSigs": 1, "hex": "76a914afc42604777d2a048b162c76cdf3e3cc403376a288ac", "addresses": ["1H2NED2mda5eDWSEDdQ46Z29kjAu7mJr2C"], "asm": "OP_DUP OP_HASH160 afc42604777d2a048b162c76cdf3e3cc403376a2 OP_EQUALVERIFY OP_CHECKSIG", "type": "pubkeyhash"}, "value": 0.00013346, "n": 2}], "hex": "010000000104a5c5e6ffc020fae9381d927491122d77787d9f4c9697c805c9c78035a45e61000000006a473044022033380a2b0af6f69c37944f87ee0bf098000c8aba687d46660aa4aea3ed955ea90220360f1d1062b86865a4c3d92468f1567fb1c9b823df57cc0556fdfac3d09245b501210228fb2e6da6ee5dbf3206aef660f99b66b204d296f5f69f65a1096c0d831399fefeffffff030000000000000000166a146f6d6e69000000000000001f0000000b30d7218022020000000000001976a9140ea2c16f9786cdfea33384770c72f226ae93ef3f88ac22340000000000001976a914afc42604777d2a048b162c76cdf3e3cc403376a288ac11490800", "vin": [{"sequence": 4294967294, "scriptSig": {"hex": "473044022033380a2b0af6f69c37944f87ee0bf098000c8aba687d46660aa4aea3ed955ea90220360f1d1062b86865a4c3d92468f1567fb1c9b823df57cc0556fdfac3d09245b501210228fb2e6da6ee5dbf3206aef660f99b66b204d296f5f69f65a1096c0d831399fe", "asm": "3044022033380a2b0af6f69c37944f87ee0bf098000c8aba687d46660aa4aea3ed955ea90220360f1d1062b86865a4c3d92468f1567fb1c9b823df57cc0556fdfac3d09245b5[ALL] 0228fb2e6da6ee5dbf3206aef660f99b66b204d296f5f69f65a1096c0d831399fe"}, "vout": 0, "txid": "615ea43580c7c905c897964c9f7d78772d129174921d38e9fa20c0ffe6c5a504"}], "txid": "f87612b226ef5b10d8ac7076568a787f45ae185fc795e4e9779cf8022a300371", "blocktime": 1537872018, "version": 1, "confirmations": 11489, "time": 1537872018, "locktime": 542993, "vsize": 256, "size": 256}