{"hash": "f877673697eae0c45a712e01ce3feba74c46db56a8d759db605bf3306022c562", "blockhash": "00000000000000000004ffacab907a6b429b9a5745fa0b75af4234bf69dd7176", "vout": [{"scriptPubKey": {"reqSigs": 1, "hex": "76a914a33e5ab4143553ee129dade8b2c1d3d808741bf388ac", "addresses": ["1Ft9qis6v1T4o4N5UfmxDw8ZeGDUDHuhMg"], "asm": "OP_DUP OP_HASH160 a33e5ab4143553ee129dade8b2c1d3d808741bf3 OP_EQUALVERIFY OP_CHECKSIG", "type": "pubkeyhash"}, "value": 0.00100134, "n": 0}, {"scriptPubKey": {"reqSigs": 1, "hex": "76a914a12057f76d68d922ee60de5d4b9c25cdf44fc98688ac", "addresses": ["1FgxYAD4H8pZw62mEYw3so85dwxMLsiz9w"], "asm": "OP_DUP OP_HASH160 a12057f76d68d922ee60de5d4b9c25cdf44fc986 OP_EQUALVERIFY OP_CHECKSIG", "type": "pubkeyhash"}, "value": 0.00487512, "n": 1}], "hex": "0100000001bc2c329e20097127a4dc52513b5de1ea2888dc53dea87b9acf3148b1703ad8bd000000006b483045022100e63c2335638b62bb63c82267b0b72b36a83e370ab241bf711945f2c4d44fac1502206115998b9f028f07719f0aaad4220ef1d95832c682f55fd14246c40e4194e3e6012103e38ef77e6816a8312de8088d88fd2c8695ddd1b9c378dbaf4054feda28f76265ffffffff0226870100000000001976a914a33e5ab4143553ee129dade8b2c1d3d808741bf388ac58700700000000001976a914a12057f76d68d922ee60de5d4b9c25cdf44fc98688ac00000000", "vin": [{"sequence": 4294967295, "scriptSig": {"hex": "483045022100e63c2335638b62bb63c82267b0b72b36a83e370ab241bf711945f2c4d44fac1502206115998b9f028f07719f0aaad4220ef1d95832c682f55fd14246c40e4194e3e6012103e38ef77e6816a8312de8088d88fd2c8695ddd1b9c378dbaf4054feda28f76265", "asm": "3045022100e63c2335638b62bb63c82267b0b72b36a83e370ab241bf711945f2c4d44fac1502206115998b9f028f07719f0aaad4220ef1d95832c682f55fd14246c40e4194e3e6[ALL] 03e38ef77e6816a8312de8088d88fd2c8695ddd1b9c378dbaf4054feda28f76265"}, "vout": 0, "txid": "bdd83a70b14831cf9a7ba8de53dc8828eae15d3b5152dca4277109209e322cbc"}], "txid": "f877673697eae0c45a712e01ce3feba74c46db56a8d759db605bf3306022c562", "blocktime": 1537875543, "version": 1, "confirmations": 11464, "time": 1537875543, "locktime": 0, "vsize": 226, "size": 226}