{"hash": "f885c93634847879f6d0b4ca4f169d4ec072bacc7fde0905259ba17e4be277cc", "blockhash": "0000000000000000000e13cef7c366c0283d82e591d1acd082e914b08063cdf1", "vout": [{"scriptPubKey": {"reqSigs": 1, "hex": "76a91491d99977be02bae45b19bba15468425e70e0c88988ac", "addresses": ["1EJBetmcFzP7asdJEfD1nmq86mQtuvbUnV"], "asm": "OP_DUP OP_HASH160 91d99977be02bae45b19bba15468425e70e0c889 OP_EQUALVERIFY OP_CHECKSIG", "type": "pubkeyhash"}, "value": 0.00117167, "n": 0}, {"scriptPubKey": {"reqSigs": 1, "hex": "76a91455d1226679b9d1c25ca4b7d69de87bf6cb9ad96988ac", "addresses": ["18pkyDaGJ4zRbzgpKMQdY13uKzE5xpU5s3"], "asm": "OP_DUP OP_HASH160 55d1226679b9d1c25ca4b7d69de87bf6cb9ad969 OP_EQUALVERIFY OP_CHECKSIG", "type": "pubkeyhash"}, "value": 0.00949046, "n": 1}], "hex": "0100000001db6983355c11b1bd1b0159514a261df347598265c75f2b65c16b4878cd5d2773010000006a473044022068c19a505fb009abe305ecbc9cc860a6a2aca9bc3db4cf993a237d7965bf7a01022015708f68e0ee2e723981ebbc8557983a2890a149fa1612eb62de4cfcf74d9c4f0121035d4bd04e6670c8eeff320e2133bb96349e1558fc974ce8f5aa04968eb55acf4fffffffff02afc90100000000001976a91491d99977be02bae45b19bba15468425e70e0c88988ac367b0e00000000001976a91455d1226679b9d1c25ca4b7d69de87bf6cb9ad96988ac00000000", "vin": [{"sequence": 4294967295, "scriptSig": {"hex": "473044022068c19a505fb009abe305ecbc9cc860a6a2aca9bc3db4cf993a237d7965bf7a01022015708f68e0ee2e723981ebbc8557983a2890a149fa1612eb62de4cfcf74d9c4f0121035d4bd04e6670c8eeff320e2133bb96349e1558fc974ce8f5aa04968eb55acf4f", "asm": "3044022068c19a505fb009abe305ecbc9cc860a6a2aca9bc3db4cf993a237d7965bf7a01022015708f68e0ee2e723981ebbc8557983a2890a149fa1612eb62de4cfcf74d9c4f[ALL] 035d4bd04e6670c8eeff320e2133bb96349e1558fc974ce8f5aa04968eb55acf4f"}, "vout": 1, "txid": "73275dcd78486bc1652b5fc765825947f31d264a5159011bbdb1115c358369db"}], "txid": "f885c93634847879f6d0b4ca4f169d4ec072bacc7fde0905259ba17e4be277cc", "blocktime": 1537871767, "version": 1, "confirmations": 11495, "time": 1537871767, "locktime": 0, "vsize": 225, "size": 225}