{"hash": "f891dd640e68c0c482393d0a8f6116ff8ec2884460f92477b13e696c81fe7ecb", "blockhash": "00000000000000000017f5eb5941039fbcee6240d03bc1f2f8e35350df66a1d8", "vout": [{"scriptPubKey": {"reqSigs": 1, "hex": "76a9140f5a61b33ba6867ae4794664dd4808fab0f68e5088ac", "addresses": ["12QBQhqAuYB5HLbSXq1t6ABjqoK9U3Awu3"], "asm": "OP_DUP OP_HASH160 0f5a61b33ba6867ae4794664dd4808fab0f68e50 OP_EQUALVERIFY OP_CHECKSIG", "type": "pubkeyhash"}, "value": 0.00462043, "n": 0}], "hex": "0100000001d7caaf215baf1f4dc39cd951c808a92abeab4f11af1705a555f13a841bd89720010000008b483045022100dbc0f403fa42f7b4a45b49bad560fcc1a29f57eb964bb990d85864e24434352e022055e79bedc020d4974c49ad9993681681e4b649047089edb26d4b35189ac279080141048fce8016bcc851aeb496dde4a9fa9fb0ddd3809fa87da6e41cb63877646d5fb84f0459b03dc8245bc06d6fd56f3e0809d8c64ae6cf61658a7240c8297ba96289fdffffff01db0c0700000000001976a9140f5a61b33ba6867ae4794664dd4808fab0f68e5088ac15490800", "vin": [{"sequence": 4294967293, "scriptSig": {"hex": "483045022100dbc0f403fa42f7b4a45b49bad560fcc1a29f57eb964bb990d85864e24434352e022055e79bedc020d4974c49ad9993681681e4b649047089edb26d4b35189ac279080141048fce8016bcc851aeb496dde4a9fa9fb0ddd3809fa87da6e41cb63877646d5fb84f0459b03dc8245bc06d6fd56f3e0809d8c64ae6cf61658a7240c8297ba96289", "asm": "3045022100dbc0f403fa42f7b4a45b49bad560fcc1a29f57eb964bb990d85864e24434352e022055e79bedc020d4974c49ad9993681681e4b649047089edb26d4b35189ac27908[ALL] 048fce8016bcc851aeb496dde4a9fa9fb0ddd3809fa87da6e41cb63877646d5fb84f0459b03dc8245bc06d6fd56f3e0809d8c64ae6cf61658a7240c8297ba96289"}, "vout": 1, "txid": "2097d81b843af155a50517af114fabbe2aa908c851d99cc34d1faf5b21afcad7"}], "txid": "f891dd640e68c0c482393d0a8f6116ff8ec2884460f92477b13e696c81fe7ecb", "blocktime": 1537874412, "version": 1, "confirmations": 11468, "time": 1537874412, "locktime": 542997, "vsize": 224, "size": 224}