{"hash": "69a2acfcf6e408075872e572942789b57f70d4d63c946455647d85031ffac6f8", "blockhash": "0000000000000000000baef3f32e3676a92c3b2e5da21b426e4f302fc371ce76", "vout": [{"scriptPubKey": {"reqSigs": 1, "hex": "76a9143e47482085b9f9b991265e8e42ccbc734127de9088ac", "addresses": ["16gJHdtedDozucNUtKoQS3tWLBsg8EUxbQ"], "asm": "OP_DUP OP_HASH160 3e47482085b9f9b991265e8e42ccbc734127de90 OP_EQUALVERIFY OP_CHECKSIG", "type": "pubkeyhash"}, "value": 0.0025506, "n": 0}, {"scriptPubKey": {"reqSigs": 1, "hex": "a914fdb4b82d1444879aab76d83070d60e8829e4787787", "addresses": ["3QpVNgbdRLhePtVsqRUrQbxwFeMu3MANUn"], "asm": "OP_HASH160 fdb4b82d1444879aab76d83070d60e8829e47877 OP_EQUAL", "type": "scripthash"}, "value": 0.01097254, "n": 1}], "hex": "02000000000102243f366c281a14c53d70c4efa8c2cfcf8eb00288d578d591f13c27689ea3741601000000171600146ac10d345bd7bdf59b5f1f8f960246de40569018fefffffff575d6feaae6d6dc74bbc8384e8eb99c38c7f5bf05a3b446a263225c23cd7f3b000000001716001478511fe8d440ed7cc18c2dfdf1d3af9b7a2a279afeffffff0254e40300000000001976a9143e47482085b9f9b991265e8e42ccbc734127de9088ac26be10000000000017a914fdb4b82d1444879aab76d83070d60e8829e4787787024830450221009d9c03e2ef5bc1101859b442a0edeeb245f5bd990a40f7ce850ffbd59780707b02204c9e144da4215c1c897717d991e5e4880857afc9836ae8b7e943050d08b98f1c012102e61d0ead84aff234e1d23952fdd8331f80dac990e990f2788e3891a47eba969b0248304502210099f633195047864589d906548eb74b31b951a5aa0aaee4be75781078b37fc05d02207cff73fed2815e538a17c68c0640fe2ba6002e804aa30852ca95d17c745389e201210316051ff82027739e9f8c189f548d1b1802a70a300459ce1c5a08c41fb89db2c417490800", "vin": [{"txinwitness": ["30450221009d9c03e2ef5bc1101859b442a0edeeb245f5bd990a40f7ce850ffbd59780707b02204c9e144da4215c1c897717d991e5e4880857afc9836ae8b7e943050d08b98f1c01", "02e61d0ead84aff234e1d23952fdd8331f80dac990e990f2788e3891a47eba969b"], "sequence": 4294967294, "scriptSig": {"hex": "1600146ac10d345bd7bdf59b5f1f8f960246de40569018", "asm": "00146ac10d345bd7bdf59b5f1f8f960246de40569018"}, "vout": 1, "txid": "1674a39e68273cf191d578d58802b08ecfcfc2a8efc4703dc5141a286c363f24"}, {"txinwitness": ["304502210099f633195047864589d906548eb74b31b951a5aa0aaee4be75781078b37fc05d02207cff73fed2815e538a17c68c0640fe2ba6002e804aa30852ca95d17c745389e201", "0316051ff82027739e9f8c189f548d1b1802a70a300459ce1c5a08c41fb89db2c4"], "sequence": 4294967294, "scriptSig": {"hex": "16001478511fe8d440ed7cc18c2dfdf1d3af9b7a2a279a", "asm": "001478511fe8d440ed7cc18c2dfdf1d3af9b7a2a279a"}, "vout": 0, "txid": "3b7fcd235c2263a246b4a305bff5c7389cb98e4e38c8bb74dcd6e6aafed675f5"}], "txid": "f89180e50f051cbce13d0944d520cbf144cf54328d0bd3b2968d7416b8a2d0d4", "blocktime": 1537876114, "version": 2, "confirmations": 11462, "time": 1537876114, "locktime": 542999, "vsize": 259, "size": 422}