{"hash": "f89959ca070cb59c6f2fbb71ba15d531c8f4bdc3036dc4ba42abf55babd01ad7", "blockhash": "00000000000000000018f53835495a110e01622372bf6ae95dc86f2b0ab887b0", "vout": [{"scriptPubKey": {"reqSigs": 1, "hex": "76a914e0acbd908cc7253e89a6fb83b50fcc9b7d41bd6088ac", "addresses": ["1MUyJBzLPveHaynWz66HwRkivQTr35PCWk"], "asm": "OP_DUP OP_HASH160 e0acbd908cc7253e89a6fb83b50fcc9b7d41bd60 OP_EQUALVERIFY OP_CHECKSIG", "type": "pubkeyhash"}, "value": 0.00152597, "n": 0}, {"scriptPubKey": {"type": "nulldata", "hex": "6a146f6d6e69000000000000001f0000000005f5e100", "asm": "OP_RETURN 6f6d6e69000000000000001f0000000005f5e100"}, "value": 0.0, "n": 1}, {"scriptPubKey": {"reqSigs": 1, "hex": "76a914802c2301f3bc892a092d70e6c890cdf7b20ac33e88ac", "addresses": ["1CgiNEJWrh7oAKfa7qBnP8j3DciZMjGDTM"], "asm": "OP_DUP OP_HASH160 802c2301f3bc892a092d70e6c890cdf7b20ac33e OP_EQUALVERIFY OP_CHECKSIG", "type": "pubkeyhash"}, "value": 5.46e-06, "n": 2}], "hex": "01000000028a6abebb499a6759e9ef6ca8c725a2cc7775fa01dbd37129b563f4b5e2fc345e020000006b483045022100db73211d67b053b86229a30da4f03495fd7224ab3df0acf62fbc97eb6028f41402201d3b2439732a8b74e02331deb4a45dfa86ba25300e4260a84d39cf12463d425c012102627a34f8ebabb979d1d75664d83bf22a41d990a407565d793280e0196c821d13ffffffffb02f947763dfff4f7a316d5042338fb64477d6e76b7ba504cf6f799c1c9a5181000000006b483045022100dd151d32bd4adf32b52915cc3f11a0169028eea499dc54364c4e84f3ddf4a77802207e88e987e4c3c5cfdaa41f85a2010feb0cf704175a64583e07f15dd7d0185c62012102627a34f8ebabb979d1d75664d83bf22a41d990a407565d793280e0196c821d13ffffffff0315540200000000001976a914e0acbd908cc7253e89a6fb83b50fcc9b7d41bd6088ac0000000000000000166a146f6d6e69000000000000001f0000000005f5e10022020000000000001976a914802c2301f3bc892a092d70e6c890cdf7b20ac33e88ac00000000", "vin": [{"sequence": 4294967295, "scriptSig": {"hex": "483045022100db73211d67b053b86229a30da4f03495fd7224ab3df0acf62fbc97eb6028f41402201d3b2439732a8b74e02331deb4a45dfa86ba25300e4260a84d39cf12463d425c012102627a34f8ebabb979d1d75664d83bf22a41d990a407565d793280e0196c821d13", "asm": "3045022100db73211d67b053b86229a30da4f03495fd7224ab3df0acf62fbc97eb6028f41402201d3b2439732a8b74e02331deb4a45dfa86ba25300e4260a84d39cf12463d425c[ALL] 02627a34f8ebabb979d1d75664d83bf22a41d990a407565d793280e0196c821d13"}, "vout": 2, "txid": "5e34fce2b5f463b52971d3db01fa7577cca225c7a86cefe959679a49bbbe6a8a"}, {"sequence": 4294967295, "scriptSig": {"hex": "483045022100dd151d32bd4adf32b52915cc3f11a0169028eea499dc54364c4e84f3ddf4a77802207e88e987e4c3c5cfdaa41f85a2010feb0cf704175a64583e07f15dd7d0185c62012102627a34f8ebabb979d1d75664d83bf22a41d990a407565d793280e0196c821d13", "asm": "3045022100dd151d32bd4adf32b52915cc3f11a0169028eea499dc54364c4e84f3ddf4a77802207e88e987e4c3c5cfdaa41f85a2010feb0cf704175a64583e07f15dd7d0185c62[ALL] 02627a34f8ebabb979d1d75664d83bf22a41d990a407565d793280e0196c821d13"}, "vout": 0, "txid": "81519a1c9c796fcf04a57b6be7d67744b68f3342506d317a4fffdf6377942fb0"}], "txid": "f89959ca070cb59c6f2fbb71ba15d531c8f4bdc3036dc4ba42abf55babd01ad7", "blocktime": 1537870928, "version": 1, "confirmations": 11512, "time": 1537870928, "locktime": 0, "vsize": 405, "size": 405}