{"hash": "af8093ec28f4e550ebfae87b134fbf0722034df1ac83171c8236dcb4ccaf3791", "blockhash": "0000000000000000000baef3f32e3676a92c3b2e5da21b426e4f302fc371ce76", "vout": [{"scriptPubKey": {"reqSigs": 1, "hex": "76a9141ad805fe7ba32f2a53f2b22787bec839304cbe0d88ac", "addresses": ["13SwMZLcmhYCvy9zPSWrWPRENYd7CBX6kJ"], "asm": "OP_DUP OP_HASH160 1ad805fe7ba32f2a53f2b22787bec839304cbe0d OP_EQUALVERIFY OP_CHECKSIG", "type": "pubkeyhash"}, "value": 0.00067144, "n": 0}, {"scriptPubKey": {"reqSigs": 1, "hex": "a914414cec0fc72a9410f6836edaf08de1aa3b2a321c87", "addresses": ["37eHzewnAFRR2SVZu8rZM3nBsmuE2XBU7D"], "asm": "OP_HASH160 414cec0fc72a9410f6836edaf08de1aa3b2a321c OP_EQUAL", "type": "scripthash"}, "value": 0.23668594, "n": 1}], "hex": "0100000000010118d1bcfd275b7cebdff8777e8c41c3bb0fe27941d39bd357fab64f8174ef3cd60100000023220020ce74cde37cfb8dd71d0179287e12fc721ee236ce3c89c2745bcd365b39807eb3ffffffff0248060100000000001976a9141ad805fe7ba32f2a53f2b22787bec839304cbe0d88ac722769010000000017a914414cec0fc72a9410f6836edaf08de1aa3b2a321c870400483045022100d3e4d9ecec6d8f05ee549d10f3c462ff770dfd6ef1054c5f4f2bba70a4cc26c8022015c3f53206d8a57023062d82c47bb20684f27ca7091e7d8e2191c9671dc776f801473044022055f1444bed6d3439908c629dce26621e113267166e58f44dac0c3f0fcc19d19f0220746268defd06508f54ecdb2066aa372b3056e4426d3cec7d8c44e6e04aca9eda0147522103ada901d90d5a76319a60f228e0b1bbc84b1d9a87238550bae5d5d190067b66712103871fc2ca08e6950b38867e8e6a0e94ee625223d3aa0df5c65f414c6d784467e252ae00000000", "vin": [{"txinwitness": ["", "3045022100d3e4d9ecec6d8f05ee549d10f3c462ff770dfd6ef1054c5f4f2bba70a4cc26c8022015c3f53206d8a57023062d82c47bb20684f27ca7091e7d8e2191c9671dc776f801", "3044022055f1444bed6d3439908c629dce26621e113267166e58f44dac0c3f0fcc19d19f0220746268defd06508f54ecdb2066aa372b3056e4426d3cec7d8c44e6e04aca9eda01", "522103ada901d90d5a76319a60f228e0b1bbc84b1d9a87238550bae5d5d190067b66712103871fc2ca08e6950b38867e8e6a0e94ee625223d3aa0df5c65f414c6d784467e252ae"], "sequence": 4294967295, "scriptSig": {"hex": "220020ce74cde37cfb8dd71d0179287e12fc721ee236ce3c89c2745bcd365b39807eb3", "asm": "0020ce74cde37cfb8dd71d0179287e12fc721ee236ce3c89c2745bcd365b39807eb3"}, "vout": 1, "txid": "d63cef74814fb6fa57d39bd34179e20fbbc3418c7e77f8dfeb7c5b27fdbcd118"}], "txid": "f89ec26c0badd4e84f853dd2f0e7df5c9dbc359487e6999d4599bd853db530b6", "blocktime": 1537876114, "version": 1, "confirmations": 11460, "time": 1537876114, "locktime": 0, "vsize": 208, "size": 373}