{"hash": "bab614983b72c981395c3ef7da399b96495dd22e461f3c37e628b235afd11f59", "blockhash": "00000000000000000017f5eb5941039fbcee6240d03bc1f2f8e35350df66a1d8", "vout": [{"scriptPubKey": {"reqSigs": 1, "hex": "0014c4d4ecbb00df1e92bd66e7da75efad6ee9455caf", "addresses": ["bc1qcn2wewcqmu0f90txuld8tmaddm552h90qpcakx"], "asm": "0 c4d4ecbb00df1e92bd66e7da75efad6ee9455caf", "type": "witness_v0_keyhash"}, "value": 0.01480296, "n": 0}, {"scriptPubKey": {"reqSigs": 1, "hex": "a9146960d3eb6729e1c94fffafb0dee1a41dd16274d887", "addresses": ["3BJCsQATnWuDmYmtUcXZ8H1MXN6Szibc7F"], "asm": "OP_HASH160 6960d3eb6729e1c94fffafb0dee1a41dd16274d8 OP_EQUAL", "type": "scripthash"}, "value": 0.02589731, "n": 1}], "hex": "01000000000101f0fafc168914940d68033543e4b3953ec55b485c5507042d10b58269b750a5040000000000ffffffff026896160000000000160014c4d4ecbb00df1e92bd66e7da75efad6ee9455caf238427000000000017a9146960d3eb6729e1c94fffafb0dee1a41dd16274d88702483045022100a831e5e4092a134b4de154a501d5582b9c1b6e1fbd160a8d209f16297e9ecc8b022038c20a30246ca93412abf2f491683e1403e3cd5a4c977aa6aa790c5b0e1a0bc5012102bceac6e6e2c087385bb21c3148dbb59c69435b4a07266137932f14bf6287de5700000000", "vin": [{"txinwitness": ["3045022100a831e5e4092a134b4de154a501d5582b9c1b6e1fbd160a8d209f16297e9ecc8b022038c20a30246ca93412abf2f491683e1403e3cd5a4c977aa6aa790c5b0e1a0bc501", "02bceac6e6e2c087385bb21c3148dbb59c69435b4a07266137932f14bf6287de57"], "sequence": 4294967295, "scriptSig": {"hex": "", "asm": ""}, "vout": 0, "txid": "04a550b76982b5102d0407555c485bc53e95b3e4433503680d94148916fcfaf0"}], "txid": "f8aa52fad0ae6d9cc2f5cc4da25fbd2ee197cc7432fe740396c4ffad7ef62027", "blocktime": 1537874412, "version": 1, "confirmations": 11467, "time": 1537874412, "locktime": 0, "vsize": 142, "size": 224}