{"hash": "f8b8ca2586cf014b04992d2d84935cf21b6dfd84e686914db98bcc621bec5898", "blockhash": "00000000000000000017f5eb5941039fbcee6240d03bc1f2f8e35350df66a1d8", "vout": [{"scriptPubKey": {"reqSigs": 1, "hex": "a9147b5775cbad0ce56ddd069311c28b891fd6e3dbaf87", "addresses": ["3CwBoyZAJy2AVetAJKums3zcjtvQ3mbVrU"], "asm": "OP_HASH160 7b5775cbad0ce56ddd069311c28b891fd6e3dbaf OP_EQUAL", "type": "scripthash"}, "value": 0.0040376, "n": 0}, {"scriptPubKey": {"reqSigs": 1, "hex": "76a9142ec4a9df54ca75a6cc12a8b57f99f1251601e9aa88ac", "addresses": ["15GHgFPsysWYTLMMLfR3DdHdAzT2dV8EzA"], "asm": "OP_DUP OP_HASH160 2ec4a9df54ca75a6cc12a8b57f99f1251601e9aa OP_EQUALVERIFY OP_CHECKSIG", "type": "pubkeyhash"}, "value": 0.05498189, "n": 1}], "hex": "01000000017ec144e4c2ad1847d3778fd14cbe74ba0f77ce33bbc8dce4d253be301b6f957b010000006b48304502210081c3c1dfef678174bad7bbee7645732c456f1b0ee724074550992607069da99e02206e61d469952ecdc1b2549777d3fa4bd2dbdb4592fb0492431670e017c0aadc22012103a21991d160cbffbc52a7cf245a6961be91c03f8a07680131e012553757c7ca52ffffffff02302906000000000017a9147b5775cbad0ce56ddd069311c28b891fd6e3dbaf874de55300000000001976a9142ec4a9df54ca75a6cc12a8b57f99f1251601e9aa88ac00000000", "vin": [{"sequence": 4294967295, "scriptSig": {"hex": "48304502210081c3c1dfef678174bad7bbee7645732c456f1b0ee724074550992607069da99e02206e61d469952ecdc1b2549777d3fa4bd2dbdb4592fb0492431670e017c0aadc22012103a21991d160cbffbc52a7cf245a6961be91c03f8a07680131e012553757c7ca52", "asm": "304502210081c3c1dfef678174bad7bbee7645732c456f1b0ee724074550992607069da99e02206e61d469952ecdc1b2549777d3fa4bd2dbdb4592fb0492431670e017c0aadc22[ALL] 03a21991d160cbffbc52a7cf245a6961be91c03f8a07680131e012553757c7ca52"}, "vout": 1, "txid": "7b956f1b30be53d2e4dcc8bb33ce770fba74be4cd18f77d34718adc2e444c17e"}], "txid": "f8b8ca2586cf014b04992d2d84935cf21b6dfd84e686914db98bcc621bec5898", "blocktime": 1537874412, "version": 1, "confirmations": 11467, "time": 1537874412, "locktime": 0, "vsize": 224, "size": 224}