{"hash": "f8ba78bf53a2e399e6dded7297650541cbafbe01375241766a1db315d779fbb6", "blockhash": "0000000000000000000e13cef7c366c0283d82e591d1acd082e914b08063cdf1", "vout": [{"scriptPubKey": {"reqSigs": 1, "hex": "a91405295ea84fc434d0d2294019a8e3b5823ae13cc487", "addresses": ["32AJrvYLivdzEdm2k9VAnof7cZCgpGpywJ"], "asm": "OP_HASH160 05295ea84fc434d0d2294019a8e3b5823ae13cc4 OP_EQUAL", "type": "scripthash"}, "value": 0.00124268, "n": 0}, {"scriptPubKey": {"reqSigs": 1, "hex": "76a914f61203d5750c04e2fb4d459f30793abc8add239388ac", "addresses": ["1PS6otnD3bzdy9TsAzvuwKCUCQ7s7Z7zVt"], "asm": "OP_DUP OP_HASH160 f61203d5750c04e2fb4d459f30793abc8add2393 OP_EQUALVERIFY OP_CHECKSIG", "type": "pubkeyhash"}, "value": 0.00160943, "n": 1}], "hex": "0100000001c0573cd0dd504e4dc23067406dee13ebd1961895ea53913032f35e31aa25b014010000006b48304502210088c54a6d3f4a7517adfcd74379c2729f922b3fbb298fddd4e612446f3454a32c02202d217eaf55aa378d12da593600ea155921c41bee1243e29dbeddee7d1c0cf69e0121025f1bea3975fadde9ed611f359fa8efa5fa2e65cfce08e479b9b1de1e8655a48dffffffff026ce501000000000017a91405295ea84fc434d0d2294019a8e3b5823ae13cc487af740200000000001976a914f61203d5750c04e2fb4d459f30793abc8add239388ac00000000", "vin": [{"sequence": 4294967295, "scriptSig": {"hex": "48304502210088c54a6d3f4a7517adfcd74379c2729f922b3fbb298fddd4e612446f3454a32c02202d217eaf55aa378d12da593600ea155921c41bee1243e29dbeddee7d1c0cf69e0121025f1bea3975fadde9ed611f359fa8efa5fa2e65cfce08e479b9b1de1e8655a48d", "asm": "304502210088c54a6d3f4a7517adfcd74379c2729f922b3fbb298fddd4e612446f3454a32c02202d217eaf55aa378d12da593600ea155921c41bee1243e29dbeddee7d1c0cf69e[ALL] 025f1bea3975fadde9ed611f359fa8efa5fa2e65cfce08e479b9b1de1e8655a48d"}, "vout": 1, "txid": "14b025aa315ef332309153ea951896d1eb13ee6d406730c24d4e50ddd03c57c0"}], "txid": "f8ba78bf53a2e399e6dded7297650541cbafbe01375241766a1db315d779fbb6", "blocktime": 1537871767, "version": 1, "confirmations": 11492, "time": 1537871767, "locktime": 0, "vsize": 224, "size": 224}