{"hash": "f110a899eb31e4f6d850437078450e906f1d78df5d67fa53b661b38d411b72da", "blockhash": "0000000000000000001cda96e906b7601b7a6fb1a3b62bca570a9e5d8f4b3de1", "vout": [{"scriptPubKey": {"reqSigs": 1, "hex": "00143e1cbd42074ed6742a215524fd1e2b42572ae2fd", "addresses": ["bc1q8cwt6ss8fmt8g23p25j0683tgftj4chac2vqsh"], "asm": "0 3e1cbd42074ed6742a215524fd1e2b42572ae2fd", "type": "witness_v0_keyhash"}, "value": 0.02784866, "n": 0}, {"scriptPubKey": {"reqSigs": 1, "hex": "76a9148ff2bab835d4e98f84f7505dc59ffb5ef08a342f88ac", "addresses": ["1E88QZjDh5LC2Db6w5oRGEK4nyJDzWx5Ga"], "asm": "OP_DUP OP_HASH160 8ff2bab835d4e98f84f7505dc59ffb5ef08a342f OP_EQUALVERIFY OP_CHECKSIG", "type": "pubkeyhash"}, "value": 0.35958492, "n": 1}], "hex": "01000000000101c35e6df51c8b11090d814cfc56154ee5ba14e2756eba84f9a2124e14a54d06260100000000ffffffff02627e2a00000000001600143e1cbd42074ed6742a215524fd1e2b42572ae2fddcae2402000000001976a9148ff2bab835d4e98f84f7505dc59ffb5ef08a342f88ac02483045022100b7547c9228b266bc655409ca63daa0a35ac65b2aed5dc5a7f309d1b8f9682955022019a1be40d1f4dabd413791374a6439b2950cd9130d7a1b3f3eba4831e2937065012103a1ceab72c7e6bc48692b6100deab90b7262de1c8bfa079f5717c800ad1060c2c00000000", "vin": [{"txinwitness": ["3045022100b7547c9228b266bc655409ca63daa0a35ac65b2aed5dc5a7f309d1b8f9682955022019a1be40d1f4dabd413791374a6439b2950cd9130d7a1b3f3eba4831e293706501", "03a1ceab72c7e6bc48692b6100deab90b7262de1c8bfa079f5717c800ad1060c2c"], "sequence": 4294967295, "scriptSig": {"hex": "", "asm": ""}, "vout": 1, "txid": "26064da5144e12a2f984ba6e75e214bae54e1556fc4c810d09118b1cf56d5ec3"}], "txid": "f8bc44b57f26764dfa228efabaa79f8219873ef94a4783ee1cfd60919e87bf81", "blocktime": 1537873282, "version": 1, "confirmations": 11484, "time": 1537873282, "locktime": 0, "vsize": 144, "size": 226}