{"hash": "a7a778c891ed5c45d49c72dd2f9319047ed6627255ae3ea8cd0ea8b624fd521b", "blockhash": "0000000000000000000dcc0f55137456b1a82d3642486a52398922ac4d620174", "vout": [{"scriptPubKey": {"reqSigs": 1, "hex": "a914b44337f216fcdcf0a5895a72e8c4169a68ef293e87", "addresses": ["3J8A5VuG2KUQmCweiwHBDfv67VqWTciCM2"], "asm": "OP_HASH160 b44337f216fcdcf0a5895a72e8c4169a68ef293e OP_EQUAL", "type": "scripthash"}, "value": 0.03152574, "n": 0}], "hex": "010000000001014ff18111ab949b5e762a7ed468674e937a9ac97b6220f68162fd6204567edeb00100000017160014fe8fb7a4b1a03120d4307af8dbf35ccf36964728ffffffff01be1a30000000000017a914b44337f216fcdcf0a5895a72e8c4169a68ef293e87024830450221008c4fea227ba9a15bf64d33e21396c0149241238e173398ec35cdd148ac18ec3802204b4dbe79ee6e43f5c6e99f13d26a90f07ae56f766ea8e702c13853f5346c9513012103549c5c4ae56a9d31b6da66ab1020d618115bcbb190f1639ea11aa921e84da4d100000000", "vin": [{"txinwitness": ["30450221008c4fea227ba9a15bf64d33e21396c0149241238e173398ec35cdd148ac18ec3802204b4dbe79ee6e43f5c6e99f13d26a90f07ae56f766ea8e702c13853f5346c951301", "03549c5c4ae56a9d31b6da66ab1020d618115bcbb190f1639ea11aa921e84da4d1"], "sequence": 4294967295, "scriptSig": {"hex": "160014fe8fb7a4b1a03120d4307af8dbf35ccf36964728", "asm": "0014fe8fb7a4b1a03120d4307af8dbf35ccf36964728"}, "vout": 1, "txid": "b0de7e560462fd6281f620627bc99a7a934e6768d47e2a765e9b94ab1181f14f"}], "txid": "f8bccf449bf2e5e93330d4f08d9a81b5fe1d95adea8d9a809971b1f778746bfe", "blocktime": 1537870268, "version": 1, "confirmations": 11518, "time": 1537870268, "locktime": 0, "vsize": 134, "size": 216}