{"hash": "9374f31e297476165b60a1f34b41298778430bfb63308c09782b617dc31eeff4", "blockhash": "0000000000000000000dcc0f55137456b1a82d3642486a52398922ac4d620174", "vout": [{"scriptPubKey": {"reqSigs": 1, "hex": "76a914db687c735f5afe789abe3185d785aafe7a2ef5f988ac", "addresses": ["1M189qRMYGETZW4koz32xYHGRNrLLdtCT9"], "asm": "OP_DUP OP_HASH160 db687c735f5afe789abe3185d785aafe7a2ef5f9 OP_EQUALVERIFY OP_CHECKSIG", "type": "pubkeyhash"}, "value": 0.0027386, "n": 0}, {"scriptPubKey": {"reqSigs": 1, "hex": "a914591dceae62ad44ca42ea94ab1927a7dfe8aab99f87", "addresses": ["39pDmffr5ZjK2jg2NhVzBqnzZUGzi2dVZH"], "asm": "OP_HASH160 591dceae62ad44ca42ea94ab1927a7dfe8aab99f OP_EQUAL", "type": "scripthash"}, "value": 0.01001316, "n": 1}], "hex": "020000000001021be7c78cbc809775dad694d899e49f3771af19a998f82846a7b9b89c8637818600000000171600147d75ebc59bb0db6771ada27ceb3086521ccf582dfeffffff7d324a179cf913d558d095614a6bfff0b5e1524036462c5b83d676cffc79b02b0100000017160014b2b29cf7ec1562759282ef84520667334c6eafd7feffffff02c42d0400000000001976a914db687c735f5afe789abe3185d785aafe7a2ef5f988ac64470f000000000017a914591dceae62ad44ca42ea94ab1927a7dfe8aab99f870247304402207e596748f7fa91fa714c297dcc724a6f8fd1751c10c368694284bea7502941ca022009ab39f98a116b2040814a2b39a86c3ec28e4719327560c526891ddcd926979d0121035f0b6772d5ef75ac5bb0061456374aeb5646b8e636d66e7ca4e6b5139da05f300247304402200ca8fa3f7a30b97029269213e6e6ce4874dd0afaa66fb50b0aebc13e8d9abc4802204fa258a0cfb854a954c7b76792ac1b6894a2b18fb107410f23150772a2e71dc0012102e541aaa46902c6b13ac21e75536c7b6f1bafaaecf8ee57cbd88359947e9d2a770c490800", "vin": [{"txinwitness": ["304402207e596748f7fa91fa714c297dcc724a6f8fd1751c10c368694284bea7502941ca022009ab39f98a116b2040814a2b39a86c3ec28e4719327560c526891ddcd926979d01", "035f0b6772d5ef75ac5bb0061456374aeb5646b8e636d66e7ca4e6b5139da05f30"], "sequence": 4294967294, "scriptSig": {"hex": "1600147d75ebc59bb0db6771ada27ceb3086521ccf582d", "asm": "00147d75ebc59bb0db6771ada27ceb3086521ccf582d"}, "vout": 0, "txid": "868137869cb8b9a74628f898a919af71379fe499d894d6da759780bc8cc7e71b"}, {"txinwitness": ["304402200ca8fa3f7a30b97029269213e6e6ce4874dd0afaa66fb50b0aebc13e8d9abc4802204fa258a0cfb854a954c7b76792ac1b6894a2b18fb107410f23150772a2e71dc001", "02e541aaa46902c6b13ac21e75536c7b6f1bafaaecf8ee57cbd88359947e9d2a77"], "sequence": 4294967294, "scriptSig": {"hex": "160014b2b29cf7ec1562759282ef84520667334c6eafd7", "asm": "0014b2b29cf7ec1562759282ef84520667334c6eafd7"}, "vout": 1, "txid": "2bb079fccf76d6835b2c46364052e1b5f0ff6b4a6195d058d513f99c174a327d"}], "txid": "f8be7ee7f89dc5e105e052ece4479b11acf0616279ba70b64e19066ad0d94efb", "blocktime": 1537870268, "version": 2, "confirmations": 11518, "time": 1537870268, "locktime": 542988, "vsize": 258, "size": 420}