{"hash": "f8c1a8b4c4c764b0bb147f702a69a3b8ebcfb5b504f91d1d2cc3d4b5a712da0a", "blockhash": "0000000000000000000e13cef7c366c0283d82e591d1acd082e914b08063cdf1", "vout": [{"scriptPubKey": {"reqSigs": 1, "hex": "76a914d243e6abb9a60fbff430b421d2df4b7d59ec186088ac", "addresses": ["1LAnF8h3qMGx3TSwNUHVneBZUEpwE4gu3D"], "asm": "OP_DUP OP_HASH160 d243e6abb9a60fbff430b421d2df4b7d59ec1860 OP_EQUALVERIFY OP_CHECKSIG", "type": "pubkeyhash"}, "value": 0.00076972, "n": 0}, {"scriptPubKey": {"reqSigs": 1, "hex": "76a9143851f34d13937b673a7d24a1950bb5b21ce94af388ac", "addresses": ["168o1kqNquEJeR9vosUB5fw4eAwcVAgh8P"], "asm": "OP_DUP OP_HASH160 3851f34d13937b673a7d24a1950bb5b21ce94af3 OP_EQUALVERIFY OP_CHECKSIG", "type": "pubkeyhash"}, "value": 5.46e-06, "n": 1}, {"scriptPubKey": {"type": "nulldata", "hex": "6a146f6d6e69000000000000001f00000018084ed070", "asm": "OP_RETURN 6f6d6e69000000000000001f00000018084ed070"}, "value": 0.0, "n": 2}], "hex": "010000000257501916e7fec43be487096a3f53c636478028dcdb336aa401293a1d7609860f020000006a47304402205001267775f669a3d7569186b9120ee9801b0dc9bd7c416ffdd7686d3b01098a02202b0bc182b78fa468b7afbfae629215bc0cbd9b694d24d3ba66f61f2596815f1f012102134c128fb2de6d0b8dba231ccc2ab7a60cb7d221972e3b4d047fd47191891737ffffffff8aaa8f9b73845addefc520ae108f76049b0058bd29090ad7bc4c7d90f724754a000000006b483045022100bf07d99023673e03d209d542a5effe091c0d1a52c7b26c24a065f4e8d3251e2b02200f730f372f7c2fe38d9baae60844867696e6bf9d30c2a3d5243449872b4b993d01210271977291b74f1f5f5c42157e8aae804664eaaeccfd097918450d37f28fb94d77ffffffff03ac2c0100000000001976a914d243e6abb9a60fbff430b421d2df4b7d59ec186088ac22020000000000001976a9143851f34d13937b673a7d24a1950bb5b21ce94af388ac0000000000000000166a146f6d6e69000000000000001f00000018084ed07000000000", "vin": [{"sequence": 4294967295, "scriptSig": {"hex": "47304402205001267775f669a3d7569186b9120ee9801b0dc9bd7c416ffdd7686d3b01098a02202b0bc182b78fa468b7afbfae629215bc0cbd9b694d24d3ba66f61f2596815f1f012102134c128fb2de6d0b8dba231ccc2ab7a60cb7d221972e3b4d047fd47191891737", "asm": "304402205001267775f669a3d7569186b9120ee9801b0dc9bd7c416ffdd7686d3b01098a02202b0bc182b78fa468b7afbfae629215bc0cbd9b694d24d3ba66f61f2596815f1f[ALL] 02134c128fb2de6d0b8dba231ccc2ab7a60cb7d221972e3b4d047fd47191891737"}, "vout": 2, "txid": "0f8609761d3a2901a46a33dbdc28804736c6533f6a0987e43bc4fee716195057"}, {"sequence": 4294967295, "scriptSig": {"hex": "483045022100bf07d99023673e03d209d542a5effe091c0d1a52c7b26c24a065f4e8d3251e2b02200f730f372f7c2fe38d9baae60844867696e6bf9d30c2a3d5243449872b4b993d01210271977291b74f1f5f5c42157e8aae804664eaaeccfd097918450d37f28fb94d77", "asm": "3045022100bf07d99023673e03d209d542a5effe091c0d1a52c7b26c24a065f4e8d3251e2b02200f730f372f7c2fe38d9baae60844867696e6bf9d30c2a3d5243449872b4b993d[ALL] 0271977291b74f1f5f5c42157e8aae804664eaaeccfd097918450d37f28fb94d77"}, "vout": 0, "txid": "4a7524f7907d4cbcd70a0929bd58009b04768f10ae20c5efdd5a84739b8faa8a"}], "txid": "f8c1a8b4c4c764b0bb147f702a69a3b8ebcfb5b504f91d1d2cc3d4b5a712da0a", "blocktime": 1537871767, "version": 1, "confirmations": 11491, "time": 1537871767, "locktime": 0, "vsize": 404, "size": 404}