{"hash": "f8c27f59dca847a2b9d4b6686c7a639cbae72fb4224470d17706b4b182caf21a", "blockhash": "0000000000000000000baef3f32e3676a92c3b2e5da21b426e4f302fc371ce76", "vout": [{"scriptPubKey": {"reqSigs": 1, "hex": "76a9146fce40caa0cc96d7c4b09fcb0671c1a43dcdc48788ac", "addresses": ["1BCB61Y4XtSPknwqR2SHZFt5QV4sGpoDCN"], "asm": "OP_DUP OP_HASH160 6fce40caa0cc96d7c4b09fcb0671c1a43dcdc487 OP_EQUALVERIFY OP_CHECKSIG", "type": "pubkeyhash"}, "value": 0.0063052, "n": 0}, {"scriptPubKey": {"type": "nulldata", "hex": "6a4c50000078150001cf878b019d6ddc0f1b8ff117702940d64fa54d8eb2d19ed074892d00f8e81ec016eae9f7887d0dd90588794ef1945baa1bd406152603e32d29521d100759d4ba30d2c37bb011d97e02cf", "asm": "OP_RETURN 000078150001cf878b019d6ddc0f1b8ff117702940d64fa54d8eb2d19ed074892d00f8e81ec016eae9f7887d0dd90588794ef1945baa1bd406152603e32d29521d100759d4ba30d2c37bb011d97e02cf"}, "value": 0.0, "n": 1}], "hex": "0100000001f70a49cd8a9d5c338b7154be789271bc423646b6bda4ad736459030e0e7175b5010000006b483045022100b19a22ebf1cf1a286668d55ce7bf9cce0bf69d4c623ad39ada5b1884859a18ee02201b8728e50237352a3130792cf3aee65c4d3cc56d26da07a32499a1b5ee69313101210375628b006778fad28b90597ba23eceee4543516f42e1459376f6bc8048155c7affffffff02f89e0900000000001976a9146fce40caa0cc96d7c4b09fcb0671c1a43dcdc48788ac0000000000000000536a4c50000078150001cf878b019d6ddc0f1b8ff117702940d64fa54d8eb2d19ed074892d00f8e81ec016eae9f7887d0dd90588794ef1945baa1bd406152603e32d29521d100759d4ba30d2c37bb011d97e02cf00000000", "vin": [{"sequence": 4294967295, "scriptSig": {"hex": "483045022100b19a22ebf1cf1a286668d55ce7bf9cce0bf69d4c623ad39ada5b1884859a18ee02201b8728e50237352a3130792cf3aee65c4d3cc56d26da07a32499a1b5ee69313101210375628b006778fad28b90597ba23eceee4543516f42e1459376f6bc8048155c7a", "asm": "3045022100b19a22ebf1cf1a286668d55ce7bf9cce0bf69d4c623ad39ada5b1884859a18ee02201b8728e50237352a3130792cf3aee65c4d3cc56d26da07a32499a1b5ee693131[ALL] 0375628b006778fad28b90597ba23eceee4543516f42e1459376f6bc8048155c7a"}, "vout": 1, "txid": "b575710e0e03596473ada4bdb6463642bc719278be54718b335c9d8acd490af7"}], "txid": "f8c27f59dca847a2b9d4b6686c7a639cbae72fb4224470d17706b4b182caf21a", "blocktime": 1537876114, "version": 1, "confirmations": 11463, "time": 1537876114, "locktime": 0, "vsize": 284, "size": 284}