{"hash": "f8c2f2f8f3fe49a5ec73c9bfc12cc4d05c8f41051023b69a1443151c3c3375a9", "blockhash": "000000000000000000022b45ed06c6f4ccd3cf7fb5ba4856ebd2e58215665228", "vout": [{"scriptPubKey": {"reqSigs": 1, "hex": "76a914227867a2b005adb8fb4598b02f6adacabecf984c88ac", "addresses": ["149GDPytFd3M4mw81DayN28k6f3BJ3QPLW"], "asm": "OP_DUP OP_HASH160 227867a2b005adb8fb4598b02f6adacabecf984c OP_EQUALVERIFY OP_CHECKSIG", "type": "pubkeyhash"}, "value": 0.0002974, "n": 0}, {"scriptPubKey": {"reqSigs": 1, "hex": "76a914f1baf4c3b78e80cd1f2af0e61d589834acd9b28588ac", "addresses": ["1P39pAq8foZYTjU8tLhYq3i9dEQFbZ7bSj"], "asm": "OP_DUP OP_HASH160 f1baf4c3b78e80cd1f2af0e61d589834acd9b285 OP_EQUALVERIFY OP_CHECKSIG", "type": "pubkeyhash"}, "value": 0.436421, "n": 1}], "hex": "01000000015937ea16bb6e41d58d90fa80859b2924f28572d240f98495dec267d5a153bd2b050000006b483045022100b4280b9420c2026ce40344703dd7f71e3298b985724997c25a82badf3a0232630220034de0caf4cabe9b9e0d0a8f7b68b2188658c5599c78f255b286076f9a749b3d012103b22db6d7cc8146c636c5fba4d812b014041caa89c5bfabe80c7067a0fc88a933ffffffff022c740000000000001976a914227867a2b005adb8fb4598b02f6adacabecf984c88acf4ec9902000000001976a914f1baf4c3b78e80cd1f2af0e61d589834acd9b28588ac00000000", "vin": [{"sequence": 4294967295, "scriptSig": {"hex": "483045022100b4280b9420c2026ce40344703dd7f71e3298b985724997c25a82badf3a0232630220034de0caf4cabe9b9e0d0a8f7b68b2188658c5599c78f255b286076f9a749b3d012103b22db6d7cc8146c636c5fba4d812b014041caa89c5bfabe80c7067a0fc88a933", "asm": "3045022100b4280b9420c2026ce40344703dd7f71e3298b985724997c25a82badf3a0232630220034de0caf4cabe9b9e0d0a8f7b68b2188658c5599c78f255b286076f9a749b3d[ALL] 03b22db6d7cc8146c636c5fba4d812b014041caa89c5bfabe80c7067a0fc88a933"}, "vout": 5, "txid": "2bbd53a1d567c2de9584f940d27285f224299b8580fa908dd5416ebb16ea3759"}], "txid": "f8c2f2f8f3fe49a5ec73c9bfc12cc4d05c8f41051023b69a1443151c3c3375a9", "blocktime": 1537869901, "version": 1, "confirmations": 11524, "time": 1537869901, "locktime": 0, "vsize": 226, "size": 226}