{"hash": "f8c61b59631a6610d8244840438437478d6c6531b45b5c112fa1f1e815f185bf", "blockhash": "00000000000000000017f5eb5941039fbcee6240d03bc1f2f8e35350df66a1d8", "vout": [{"scriptPubKey": {"type": "nulldata", "hex": "6a146f6d6e69000000000000001f000000001e65fb80", "asm": "OP_RETURN 6f6d6e69000000000000001f000000001e65fb80"}, "value": 0.0, "n": 0}, {"scriptPubKey": {"reqSigs": 1, "hex": "76a91401683a5b6094ec780f992313f33cd88a41a0388088ac", "addresses": ["18SY5Uo8fozee12m2NmLr3U2WeuWTMQZg"], "asm": "OP_DUP OP_HASH160 01683a5b6094ec780f992313f33cd88a41a03880 OP_EQUALVERIFY OP_CHECKSIG", "type": "pubkeyhash"}, "value": 5.46e-06, "n": 1}, {"scriptPubKey": {"reqSigs": 1, "hex": "76a914ae64b485c1df083d26b1108e4281747284be419e88ac", "addresses": ["1Gu7DVmrdPi7PdSzSEB6aP48zF5uoMYJ6K"], "asm": "OP_DUP OP_HASH160 ae64b485c1df083d26b1108e4281747284be419e OP_EQUALVERIFY OP_CHECKSIG", "type": "pubkeyhash"}, "value": 0.09948352, "n": 2}], "hex": "0100000001c9d3117831c3c2cf6dd7a47bbf6c56f3b046c8430865af76978b394940c7d3ed0a0000006a47304402206bd3964f1c8e88cd913f7e9cec8a7a6e714bae1f601077f08bcf47707c92166802206cb79c1fc3cfd753ee2e1796ef53d83e1d247f310eaf688093a7eb2862488ac7012102744afb0d4640083b255ef79b5215b6334aa7710cad4eb46b4f7d2e597d9ce935feffffff030000000000000000166a146f6d6e69000000000000001f000000001e65fb8022020000000000001976a91401683a5b6094ec780f992313f33cd88a41a0388088acc0cc9700000000001976a914ae64b485c1df083d26b1108e4281747284be419e88ac15490800", "vin": [{"sequence": 4294967294, "scriptSig": {"hex": "47304402206bd3964f1c8e88cd913f7e9cec8a7a6e714bae1f601077f08bcf47707c92166802206cb79c1fc3cfd753ee2e1796ef53d83e1d247f310eaf688093a7eb2862488ac7012102744afb0d4640083b255ef79b5215b6334aa7710cad4eb46b4f7d2e597d9ce935", "asm": "304402206bd3964f1c8e88cd913f7e9cec8a7a6e714bae1f601077f08bcf47707c92166802206cb79c1fc3cfd753ee2e1796ef53d83e1d247f310eaf688093a7eb2862488ac7[ALL] 02744afb0d4640083b255ef79b5215b6334aa7710cad4eb46b4f7d2e597d9ce935"}, "vout": 10, "txid": "edd3c74049398b9776af650843c846b0f3566cbf7ba4d76dcfc2c3317811d3c9"}], "txid": "f8c61b59631a6610d8244840438437478d6c6531b45b5c112fa1f1e815f185bf", "blocktime": 1537874412, "version": 1, "confirmations": 11467, "time": 1537874412, "locktime": 542997, "vsize": 256, "size": 256}