{"hash": "f8cc15f25fc20c3aa14bada33816ef1eb28a9d132d62f7a1f135d7dfc508d7c2", "blockhash": "0000000000000000000e13cef7c366c0283d82e591d1acd082e914b08063cdf1", "vout": [{"scriptPubKey": {"reqSigs": 1, "hex": "76a9147510f0bafa950c935c91ff4f66d9a83bee15b10888ac", "addresses": ["1BfzMUsVFPf2CGJGWP4eYXeAAT1gGCAZ5n"], "asm": "OP_DUP OP_HASH160 7510f0bafa950c935c91ff4f66d9a83bee15b108 OP_EQUALVERIFY OP_CHECKSIG", "type": "pubkeyhash"}, "value": 0.00817684, "n": 0}], "hex": "010000000281d47a9da0c83bcef000984a775bdf8197ed83653fc9cd1902224d1573b1d4ea000000006a47304402207f14e54134f8f8ebf42b12da0031edc66adbe56ef809093fe9caf65130eb5021022042dc737a0f912ba8755518f97eedd60433a769885132c041b4349e60c213e448012102878771960ca32c1724560833cf53c8d72324aa399ab2f9fe0e71b2276c061866ffffffffe161fb3f70c63676a7c05af400a1913b8dd070dd11830abb51f14240d098a5fb000000006a47304402202aea6bc4fcda84cf572d00a86e818102442f5df135277e93ea29a67cc192ee7802206909434dae9020830ca5a7ff341f02ce53b9005c082bf8fba9b184ce552c608a012102878771960ca32c1724560833cf53c8d72324aa399ab2f9fe0e71b2276c061866ffffffff01147a0c00000000001976a9147510f0bafa950c935c91ff4f66d9a83bee15b10888ac00000000", "vin": [{"sequence": 4294967295, "scriptSig": {"hex": "47304402207f14e54134f8f8ebf42b12da0031edc66adbe56ef809093fe9caf65130eb5021022042dc737a0f912ba8755518f97eedd60433a769885132c041b4349e60c213e448012102878771960ca32c1724560833cf53c8d72324aa399ab2f9fe0e71b2276c061866", "asm": "304402207f14e54134f8f8ebf42b12da0031edc66adbe56ef809093fe9caf65130eb5021022042dc737a0f912ba8755518f97eedd60433a769885132c041b4349e60c213e448[ALL] 02878771960ca32c1724560833cf53c8d72324aa399ab2f9fe0e71b2276c061866"}, "vout": 0, "txid": "ead4b173154d220219cdc93f6583ed9781df5b774a9800f0ce3bc8a09d7ad481"}, {"sequence": 4294967295, "scriptSig": {"hex": "47304402202aea6bc4fcda84cf572d00a86e818102442f5df135277e93ea29a67cc192ee7802206909434dae9020830ca5a7ff341f02ce53b9005c082bf8fba9b184ce552c608a012102878771960ca32c1724560833cf53c8d72324aa399ab2f9fe0e71b2276c061866", "asm": "304402202aea6bc4fcda84cf572d00a86e818102442f5df135277e93ea29a67cc192ee7802206909434dae9020830ca5a7ff341f02ce53b9005c082bf8fba9b184ce552c608a[ALL] 02878771960ca32c1724560833cf53c8d72324aa399ab2f9fe0e71b2276c061866"}, "vout": 0, "txid": "fba598d04042f151bb0a8311dd70d08d3b91a100f45ac0a77636c6703ffb61e1"}], "txid": "f8cc15f25fc20c3aa14bada33816ef1eb28a9d132d62f7a1f135d7dfc508d7c2", "blocktime": 1537871767, "version": 1, "confirmations": 11495, "time": 1537871767, "locktime": 0, "vsize": 338, "size": 338}