{"hash": "c59912e86059dfd943de4305ae05b124a98f374e6b4a275458f28985707c35b8", "blockhash": "0000000000000000001cda96e906b7601b7a6fb1a3b62bca570a9e5d8f4b3de1", "vout": [{"scriptPubKey": {"reqSigs": 1, "hex": "a914dd442653e5ef8643072e5d320b182a445f67e16c87", "addresses": ["3Mrxu4eT9DxWymea1zSf6mHSecgojRQuBM"], "asm": "OP_HASH160 dd442653e5ef8643072e5d320b182a445f67e16c OP_EQUAL", "type": "scripthash"}, "value": 0.00340857, "n": 0}, {"scriptPubKey": {"reqSigs": 1, "hex": "a91443f62a3d4933e05622cd51c77017b970eed9a05b87", "addresses": ["37tN6EtYzsorm6zBcpfWz8w5xRNy3mab33"], "asm": "OP_HASH160 43f62a3d4933e05622cd51c77017b970eed9a05b OP_EQUAL", "type": "scripthash"}, "value": 0.35144409, "n": 1}], "hex": "01000000000101561c3bc29d710b7622f1a8a249f25b6c157843a6380346827d40b87845f5164501000000232200201dd6ce43abdc84f34fdcc73ab17bc29ae9c934e26a45e54e686de9b71cb3af4affffffff02793305000000000017a914dd442653e5ef8643072e5d320b182a445f67e16c87d94218020000000017a91443f62a3d4933e05622cd51c77017b970eed9a05b870400483045022100b23e208bf7e84f3af69cf0c90500d75a733eb04d4a303e520061477e1cd4accb0220405f6afe8f2acc2931be321f3d5b41f0640b81d4030e0d5cefea1ba53d2af88501483045022100f45b5c614c45777b6ff8bd4a7da5e7bae41564aaceb061e477179121fb4cc173022039948c43ade618af0938a0fc96383df61d3562e4b3b61f2b6ef7c21908980cbd01475221023d094ce44231935102dd1c672bc70808e5831d5d55d4082df3b1d9c342a4f7b92103c86ff487c5c7bef620008af5c952420bf509584280226750bb54cc3b293fd7ec52ae00000000", "vin": [{"txinwitness": ["", "3045022100b23e208bf7e84f3af69cf0c90500d75a733eb04d4a303e520061477e1cd4accb0220405f6afe8f2acc2931be321f3d5b41f0640b81d4030e0d5cefea1ba53d2af88501", "3045022100f45b5c614c45777b6ff8bd4a7da5e7bae41564aaceb061e477179121fb4cc173022039948c43ade618af0938a0fc96383df61d3562e4b3b61f2b6ef7c21908980cbd01", "5221023d094ce44231935102dd1c672bc70808e5831d5d55d4082df3b1d9c342a4f7b92103c86ff487c5c7bef620008af5c952420bf509584280226750bb54cc3b293fd7ec52ae"], "sequence": 4294967295, "scriptSig": {"hex": "2200201dd6ce43abdc84f34fdcc73ab17bc29ae9c934e26a45e54e686de9b71cb3af4a", "asm": "00201dd6ce43abdc84f34fdcc73ab17bc29ae9c934e26a45e54e686de9b71cb3af4a"}, "vout": 1, "txid": "4516f54578b8407d82460338a64378156c5bf249a2a8f122760b719dc23b1c56"}], "txid": "f8dad6f263374f55ed26f44ef025459f72c783a712e9421b9477b150581d149e", "blocktime": 1537873282, "version": 1, "confirmations": 11484, "time": 1537873282, "locktime": 0, "vsize": 206, "size": 372}