{"hash": "f8df52c24eb2fe8c2744be185b996507fd8d86270a6716c309d98b7165d19619", "blockhash": "00000000000000000024a2167bbff67b0be802c0b01cdd79e6331c2be6459f87", "vout": [{"scriptPubKey": {"reqSigs": 1, "hex": "76a91494f4eeeee103b050f6babe91ad63fc382efafc9a88ac", "addresses": ["1EacRf7oaLYqmAiAhcEQye6q6bp7L6Vcoc"], "asm": "OP_DUP OP_HASH160 94f4eeeee103b050f6babe91ad63fc382efafc9a OP_EQUALVERIFY OP_CHECKSIG", "type": "pubkeyhash"}, "value": 0.0076437, "n": 0}, {"scriptPubKey": {"reqSigs": 1, "hex": "76a91454b19dbaf8ff205a7f51fdc3507992401f90529288ac", "addresses": ["18ipY6kRC7Vho6sXRAk1MjGLW5vNwdqzDR"], "asm": "OP_DUP OP_HASH160 54b19dbaf8ff205a7f51fdc3507992401f905292 OP_EQUALVERIFY OP_CHECKSIG", "type": "pubkeyhash"}, "value": 0.04043504, "n": 1}], "hex": "02000000010652c8e419498f0b1155d6d6b792cb8b6b5c449547514a921874dda809153c29000000006a47304402203c36673a3ca9ab93656a0397aea8ca5be486558b0f63099b88ac5627ef45418d022045341be41b51caac5d695d71c6bc26c8a1c95da4dd6ce4e7bfc2293ec0d5028d012102a02a2b958a92e94e284d5bc6ad8f5bdf85223390e0980ff4e7c22971fd2bb320feffffff02d2a90b00000000001976a91494f4eeeee103b050f6babe91ad63fc382efafc9a88acf0b23d00000000001976a91454b19dbaf8ff205a7f51fdc3507992401f90529288ac0d490800", "vin": [{"sequence": 4294967294, "scriptSig": {"hex": "47304402203c36673a3ca9ab93656a0397aea8ca5be486558b0f63099b88ac5627ef45418d022045341be41b51caac5d695d71c6bc26c8a1c95da4dd6ce4e7bfc2293ec0d5028d012102a02a2b958a92e94e284d5bc6ad8f5bdf85223390e0980ff4e7c22971fd2bb320", "asm": "304402203c36673a3ca9ab93656a0397aea8ca5be486558b0f63099b88ac5627ef45418d022045341be41b51caac5d695d71c6bc26c8a1c95da4dd6ce4e7bfc2293ec0d5028d[ALL] 02a02a2b958a92e94e284d5bc6ad8f5bdf85223390e0980ff4e7c22971fd2bb320"}, "vout": 0, "txid": "293c1509a8dd7418924a514795445c6b8bcb92b7d6d655110b8f4919e4c85206"}], "txid": "f8df52c24eb2fe8c2744be185b996507fd8d86270a6716c309d98b7165d19619", "blocktime": 1537870564, "version": 2, "confirmations": 11515, "time": 1537870564, "locktime": 542989, "vsize": 225, "size": 225}