{"hash": "f8e24509107e8126314bfcf9300f6a6d33f25b9cc177aa9f3786cb67fc2d6f67", "blockhash": "00000000000000000024a2167bbff67b0be802c0b01cdd79e6331c2be6459f87", "vout": [{"scriptPubKey": {"reqSigs": 1, "hex": "76a914a8d2fdb1c3e7eaa3a07e3cf27392d6d885ace75288ac", "addresses": ["1GPfH93nrAPBCSuGRHsmtTe4Cby3aLrHfT"], "asm": "OP_DUP OP_HASH160 a8d2fdb1c3e7eaa3a07e3cf27392d6d885ace752 OP_EQUALVERIFY OP_CHECKSIG", "type": "pubkeyhash"}, "value": 0.00061044, "n": 0}], "hex": "0100000001698105eea0cb377ace5400bdbd84603767d42a4b7cbfce89d05eb86e3bc83799000000006a4730440220043a2fbd7d94431e612d8b4204086655d138f4e0ac1e5ca63e1969dc9d39d22002205d36742a8f49ccd1369b3989e383aea0a3b7e96aec029e5a43ebfb3a2c9fb1ea0121023a93fd91fcdd64c5eee4a487a5271af905b56b054e503171beae920ab76d1655ffffffff0174ee0000000000001976a914a8d2fdb1c3e7eaa3a07e3cf27392d6d885ace75288ac00000000", "vin": [{"sequence": 4294967295, "scriptSig": {"hex": "4730440220043a2fbd7d94431e612d8b4204086655d138f4e0ac1e5ca63e1969dc9d39d22002205d36742a8f49ccd1369b3989e383aea0a3b7e96aec029e5a43ebfb3a2c9fb1ea0121023a93fd91fcdd64c5eee4a487a5271af905b56b054e503171beae920ab76d1655", "asm": "30440220043a2fbd7d94431e612d8b4204086655d138f4e0ac1e5ca63e1969dc9d39d22002205d36742a8f49ccd1369b3989e383aea0a3b7e96aec029e5a43ebfb3a2c9fb1ea[ALL] 023a93fd91fcdd64c5eee4a487a5271af905b56b054e503171beae920ab76d1655"}, "vout": 0, "txid": "9937c83b6eb85ed089cebf7c4b2ad467376084bdbd0054ce7a37cba0ee058169"}], "txid": "f8e24509107e8126314bfcf9300f6a6d33f25b9cc177aa9f3786cb67fc2d6f67", "blocktime": 1537870564, "version": 1, "confirmations": 11515, "time": 1537870564, "locktime": 0, "vsize": 191, "size": 191}