{"hash": "f8e4b5e182788082ffa26d018d30e711ddb6fd9ab5cc2b4b40fdcee510a57778", "blockhash": "0000000000000000001e0dab787dd257d1dbfcb92a98c2207d5e1078be1f4165", "vout": [{"scriptPubKey": {"reqSigs": 1, "hex": "76a914933e0fd081b4d1283352b97068337ab9a924878588ac", "addresses": ["1ERYgKxQtZcy3CKJRcUGPx6VisS8x5nXDG"], "asm": "OP_DUP OP_HASH160 933e0fd081b4d1283352b97068337ab9a9248785 OP_EQUALVERIFY OP_CHECKSIG", "type": "pubkeyhash"}, "value": 3e-05, "n": 0}, {"scriptPubKey": {"reqSigs": 1, "hex": "76a9148cbcd6aa4cabc37a2b8acf8ec8f3d8402c4a11e688ac", "addresses": ["1Dq9pb6FGd439Hr99Y4rzELntARXZwmoMv"], "asm": "OP_DUP OP_HASH160 8cbcd6aa4cabc37a2b8acf8ec8f3d8402c4a11e6 OP_EQUALVERIFY OP_CHECKSIG", "type": "pubkeyhash"}, "value": 0.01001796, "n": 1}], "hex": "0100000003caeaa3333d445cd1bb2b3a5d7a46268eb3b2201eaa47edd21ef1495839323fc6010000006a473044022064098dc8b2af96b43c5d64876a6817f9d89f2c9dd5c32dd432be62ba346e2cc00220614b5c2f3275d36c97485bacf564f808441651ef75fea9d998eb72717c09237801210330c3da7b857f5729705ab80de580959dcc6cfa3889408729612cfcc10759b5bbfeffffffaddb843d9edf4b0e79dad30d4f833d2fb39f03b5b4bc6a832e5d7fca01b5f76e000000006a47304402202425639d4d893a52dd1f3759cf5a32930e7e3417ac04d36cb0577f217ca33825022013f186a3c269597614e9ca9ca7f7e56ae15b3d7d9be372eb7d8ebe70823c1b7a0121032c0a5ea7783cbe609909e31c169bd690f648b452c753df2df337dcd3066143f0feffffffb24aafc75164b29e10490c7cc0f2d7e2831a4e773c9fee217f2925ccfd8b269c000000006b483045022100df150e560d02398a0a222a8e1d18391200ad58db0ee770a97ca4037a3a01922902200ee82a3d3829e2e8b3aebc8e726117ac0b9af4772ba68e23c9d2166a3ff7b9fb012102e3429bd90104417d6cf88b1e75a1199b7ef61c42bbb65490bbf1e09498f9a99dfeffffff02b80b0000000000001976a914933e0fd081b4d1283352b97068337ab9a924878588ac44490f00000000001976a9148cbcd6aa4cabc37a2b8acf8ec8f3d8402c4a11e688ac12490800", "vin": [{"sequence": 4294967294, "scriptSig": {"hex": "473044022064098dc8b2af96b43c5d64876a6817f9d89f2c9dd5c32dd432be62ba346e2cc00220614b5c2f3275d36c97485bacf564f808441651ef75fea9d998eb72717c09237801210330c3da7b857f5729705ab80de580959dcc6cfa3889408729612cfcc10759b5bb", "asm": "3044022064098dc8b2af96b43c5d64876a6817f9d89f2c9dd5c32dd432be62ba346e2cc00220614b5c2f3275d36c97485bacf564f808441651ef75fea9d998eb72717c092378[ALL] 0330c3da7b857f5729705ab80de580959dcc6cfa3889408729612cfcc10759b5bb"}, "vout": 1, "txid": "c63f32395849f11ed2ed47aa1e20b2b38e26467a5d3a2bbbd15c443d33a3eaca"}, {"sequence": 4294967294, "scriptSig": {"hex": "47304402202425639d4d893a52dd1f3759cf5a32930e7e3417ac04d36cb0577f217ca33825022013f186a3c269597614e9ca9ca7f7e56ae15b3d7d9be372eb7d8ebe70823c1b7a0121032c0a5ea7783cbe609909e31c169bd690f648b452c753df2df337dcd3066143f0", "asm": "304402202425639d4d893a52dd1f3759cf5a32930e7e3417ac04d36cb0577f217ca33825022013f186a3c269597614e9ca9ca7f7e56ae15b3d7d9be372eb7d8ebe70823c1b7a[ALL] 032c0a5ea7783cbe609909e31c169bd690f648b452c753df2df337dcd3066143f0"}, "vout": 0, "txid": "6ef7b501ca7f5d2e836abcb4b5039fb32f3d834f0dd3da790e4bdf9e3d84dbad"}, {"sequence": 4294967294, "scriptSig": {"hex": "483045022100df150e560d02398a0a222a8e1d18391200ad58db0ee770a97ca4037a3a01922902200ee82a3d3829e2e8b3aebc8e726117ac0b9af4772ba68e23c9d2166a3ff7b9fb012102e3429bd90104417d6cf88b1e75a1199b7ef61c42bbb65490bbf1e09498f9a99d", "asm": "3045022100df150e560d02398a0a222a8e1d18391200ad58db0ee770a97ca4037a3a01922902200ee82a3d3829e2e8b3aebc8e726117ac0b9af4772ba68e23c9d2166a3ff7b9fb[ALL] 02e3429bd90104417d6cf88b1e75a1199b7ef61c42bbb65490bbf1e09498f9a99d"}, "vout": 0, "txid": "9c268bfdcc25297f21ee9f3c774e1a83e2d7f2c07c0c49109eb26451c7af4ab2"}], "txid": "f8e4b5e182788082ffa26d018d30e711ddb6fd9ab5cc2b4b40fdcee510a57778", "blocktime": 1537872475, "version": 1, "confirmations": 11488, "time": 1537872475, "locktime": 542994, "vsize": 520, "size": 520}