{"hash": "728b63a43b5bd0e7b3d7b2daf353ba257f525d5f4bd61f36ab0381f6efd00bf5", "blockhash": "0000000000000000000dcc0f55137456b1a82d3642486a52398922ac4d620174", "vout": [{"scriptPubKey": {"reqSigs": 1, "hex": "a9147cb4099c773b2a1bd702c615e998f9bbf8efb96d87", "addresses": ["3D4PPZMGVtccbtLUrq2vqodJKcsrKvqYjy"], "asm": "OP_HASH160 7cb4099c773b2a1bd702c615e998f9bbf8efb96d OP_EQUAL", "type": "scripthash"}, "value": 0.74018887, "n": 0}, {"scriptPubKey": {"reqSigs": 1, "hex": "76a9142f6fbf0e3516b4d61ea24a7f602a0131ac4d037b88ac", "addresses": ["15KpdHaSXaNQiZyCw73S6tNdQC6PpwS3qP"], "asm": "OP_DUP OP_HASH160 2f6fbf0e3516b4d61ea24a7f602a0131ac4d037b OP_EQUALVERIFY OP_CHECKSIG", "type": "pubkeyhash"}, "value": 0.0230373, "n": 1}], "hex": "02000000000101f0ae7e3a17e3ecdd6f35b4d7066f6fd48b81f8269e0e8eb707d08c472bc02d620100000017160014c237af8ab052c1adb104a768e642985dab22cf5ffeffffff02477069040000000017a9147cb4099c773b2a1bd702c615e998f9bbf8efb96d87f2262300000000001976a9142f6fbf0e3516b4d61ea24a7f602a0131ac4d037b88ac024730440220421e327d21107caf9c27e7206d96cc46feed719530e89f0a29725bca067e68c9022044eb571167b6fb5ecb033e5f50dd8f89cbcc24c2cc2ab619c3fa92d704fb61fe012103f82af740b996125dba10cd88a1d1431bba68686293f38841272f3b1b7e181edc0c490800", "vin": [{"txinwitness": ["30440220421e327d21107caf9c27e7206d96cc46feed719530e89f0a29725bca067e68c9022044eb571167b6fb5ecb033e5f50dd8f89cbcc24c2cc2ab619c3fa92d704fb61fe01", "03f82af740b996125dba10cd88a1d1431bba68686293f38841272f3b1b7e181edc"], "sequence": 4294967294, "scriptSig": {"hex": "160014c237af8ab052c1adb104a768e642985dab22cf5f", "asm": "0014c237af8ab052c1adb104a768e642985dab22cf5f"}, "vout": 1, "txid": "622dc02b478cd007b78e0e9e26f8818bd46f6f06d7b4356fddece3173a7eaef0"}], "txid": "f8e5f4e19ac767f61d95cdfe33e4baa148f1b4e45cd3294dcd11b6fc70a10f73", "blocktime": 1537870268, "version": 2, "confirmations": 11518, "time": 1537870268, "locktime": 542988, "vsize": 168, "size": 249}