{"hash": "f8e56f50880f69e837622116cea65a1d42db7656b5c7e58c3e1480d45994d077", "blockhash": "0000000000000000001f76057863aec43deb6fa401d9628bb513d65a8098bfab", "vout": [{"scriptPubKey": {"reqSigs": 1, "hex": "a914ffec7904ad9da40c23e6a3a7468f04291435af1787", "addresses": ["3R2DWsdHQetExHVq51wXxZU5un7ZS9ceSG"], "asm": "OP_HASH160 ffec7904ad9da40c23e6a3a7468f04291435af17 OP_EQUAL", "type": "scripthash"}, "value": 0.08992039, "n": 0}], "hex": "010000000176bd3fa67fbba08792748070040110e202cbb791dec7a4340b64dfaf2f87b259020000006b483045022100bef7e6fc34f0355a8f7a56cd58cbd6f48f8d5b235db600fb19e5ae22a14bc05d022075b4e8d83fcdfb5bddf11683fbfa1d5df6af7a295b36db94a9c2147abe4e4ed8012103d2edf034c33a8370575375adbb207d77ba527c3f3ff6b84daa1237ee6cde8459ffffffff01273589000000000017a914ffec7904ad9da40c23e6a3a7468f04291435af178700000000", "vin": [{"sequence": 4294967295, "scriptSig": {"hex": "483045022100bef7e6fc34f0355a8f7a56cd58cbd6f48f8d5b235db600fb19e5ae22a14bc05d022075b4e8d83fcdfb5bddf11683fbfa1d5df6af7a295b36db94a9c2147abe4e4ed8012103d2edf034c33a8370575375adbb207d77ba527c3f3ff6b84daa1237ee6cde8459", "asm": "3045022100bef7e6fc34f0355a8f7a56cd58cbd6f48f8d5b235db600fb19e5ae22a14bc05d022075b4e8d83fcdfb5bddf11683fbfa1d5df6af7a295b36db94a9c2147abe4e4ed8[ALL] 03d2edf034c33a8370575375adbb207d77ba527c3f3ff6b84daa1237ee6cde8459"}, "vout": 2, "txid": "59b2872fafdf640b34a4c7de91b7cb02e21001047080749287a0bb7fa63fbd76"}], "txid": "f8e56f50880f69e837622116cea65a1d42db7656b5c7e58c3e1480d45994d077", "blocktime": 1537873891, "version": 1, "confirmations": 11475, "time": 1537873891, "locktime": 0, "vsize": 190, "size": 190}