{"hash": "f8e6fd59ac122acf782b517b6ec8efe60385cc515aa2badaf6271c1c95971921", "blockhash": "0000000000000000000baef3f32e3676a92c3b2e5da21b426e4f302fc371ce76", "vout": [{"scriptPubKey": {"reqSigs": 1, "hex": "76a9141c979445551623b1aa7c7c3930b80fe6e2450b4388ac", "addresses": ["13cBWH6a9oiFbuzb3bLknk8PYYY8ZkxTPc"], "asm": "OP_DUP OP_HASH160 1c979445551623b1aa7c7c3930b80fe6e2450b43 OP_EQUALVERIFY OP_CHECKSIG", "type": "pubkeyhash"}, "value": 0.20814688, "n": 0}, {"scriptPubKey": {"reqSigs": 1, "hex": "76a9149496ef620bb67014339cb6fc321d513a51d6391988ac", "addresses": ["1EYfpYbgtfgNtSKmckt2P2PJgKM47RcmVa"], "asm": "OP_DUP OP_HASH160 9496ef620bb67014339cb6fc321d513a51d63919 OP_EQUALVERIFY OP_CHECKSIG", "type": "pubkeyhash"}, "value": 0.6419777, "n": 1}], "hex": "010000000367a127145a4fe97d2aaf337af5de568dc7fc9c19b51d1692ebc07edc92013884010000006a47304402200291fb14669a0aa59231e7eedda082d5a6e44f69a21c90995d94e92af9aae352022065c4cce4414402050e6790bcdf1d3d315c9580e3fdbf86bdca2c0700d5345f7101210330cbe7bfd1f5ec4edc2c239625c1a8d1b7cb77c3aa7ef26a5866cbadd855118dffffffffe3c67bc6fcc301ac033c3eee10d894d6589026c4f6f1e66b4de124200582128a010000006a473044022069c1e8bfaa2f180c472056885d57984c2d78061d41eb2cc9738f2545fed30be402201944b60e2019b1ae755f76138882abe3b02a7e5344fb396049a08a3ae91c2110012102ffad8248945f489318771e20479cd845bcc3823485d0a591bb28e78d74681295ffffffff6ac5c94069196fa27713e1014eff78fac2e24b8c0c9f3d897e74bb2c3e3323d6010000006a473044022002c202f81a2155d013d9f78a63a7f986062bb482d13fe4e3e0af7e888bd2f85602206761cbd90660d300c54471d19607c57def935586a96285f50ba198a44ac29a7b0121039644ffb6c26fce3be20f1b63a49d7a9c9abc5f8c76fb99d7655645e18b44a3bdffffffff02609b3d01000000001976a9141c979445551623b1aa7c7c3930b80fe6e2450b4388ac8a94d303000000001976a9149496ef620bb67014339cb6fc321d513a51d6391988ac00000000", "vin": [{"sequence": 4294967295, "scriptSig": {"hex": "47304402200291fb14669a0aa59231e7eedda082d5a6e44f69a21c90995d94e92af9aae352022065c4cce4414402050e6790bcdf1d3d315c9580e3fdbf86bdca2c0700d5345f7101210330cbe7bfd1f5ec4edc2c239625c1a8d1b7cb77c3aa7ef26a5866cbadd855118d", "asm": "304402200291fb14669a0aa59231e7eedda082d5a6e44f69a21c90995d94e92af9aae352022065c4cce4414402050e6790bcdf1d3d315c9580e3fdbf86bdca2c0700d5345f71[ALL] 0330cbe7bfd1f5ec4edc2c239625c1a8d1b7cb77c3aa7ef26a5866cbadd855118d"}, "vout": 1, "txid": "84380192dc7ec0eb92161db5199cfcc78d56def57a33af2a7de94f5a1427a167"}, {"sequence": 4294967295, "scriptSig": {"hex": "473044022069c1e8bfaa2f180c472056885d57984c2d78061d41eb2cc9738f2545fed30be402201944b60e2019b1ae755f76138882abe3b02a7e5344fb396049a08a3ae91c2110012102ffad8248945f489318771e20479cd845bcc3823485d0a591bb28e78d74681295", "asm": "3044022069c1e8bfaa2f180c472056885d57984c2d78061d41eb2cc9738f2545fed30be402201944b60e2019b1ae755f76138882abe3b02a7e5344fb396049a08a3ae91c2110[ALL] 02ffad8248945f489318771e20479cd845bcc3823485d0a591bb28e78d74681295"}, "vout": 1, "txid": "8a1282052024e14d6be6f1f6c4269058d694d810ee3e3c03ac01c3fcc67bc6e3"}, {"sequence": 4294967295, "scriptSig": {"hex": "473044022002c202f81a2155d013d9f78a63a7f986062bb482d13fe4e3e0af7e888bd2f85602206761cbd90660d300c54471d19607c57def935586a96285f50ba198a44ac29a7b0121039644ffb6c26fce3be20f1b63a49d7a9c9abc5f8c76fb99d7655645e18b44a3bd", "asm": "3044022002c202f81a2155d013d9f78a63a7f986062bb482d13fe4e3e0af7e888bd2f85602206761cbd90660d300c54471d19607c57def935586a96285f50ba198a44ac29a7b[ALL] 039644ffb6c26fce3be20f1b63a49d7a9c9abc5f8c76fb99d7655645e18b44a3bd"}, "vout": 1, "txid": "d623333e2cbb747e893d9f0c8c4be2c2fa78ff4e01e11377a26f196940c9c56a"}], "txid": "f8e6fd59ac122acf782b517b6ec8efe60385cc515aa2badaf6271c1c95971921", "blocktime": 1537876114, "version": 1, "confirmations": 11460, "time": 1537876114, "locktime": 0, "vsize": 519, "size": 519}