{"hash": "f8e718478ed1a87f66fd90e86b3f076169244de8ea07a291b71d2785619311a2", "blockhash": "0000000000000000001cda96e906b7601b7a6fb1a3b62bca570a9e5d8f4b3de1", "vout": [{"scriptPubKey": {"reqSigs": 1, "hex": "76a9140b8c7276de8cce3d57446e1b6d493ad841155f6a88ac", "addresses": ["1244gYkwzHvwbLEU8zsuLisKi7zkbM8oMz"], "asm": "OP_DUP OP_HASH160 0b8c7276de8cce3d57446e1b6d493ad841155f6a OP_EQUALVERIFY OP_CHECKSIG", "type": "pubkeyhash"}, "value": 4.279e-05, "n": 0}, {"scriptPubKey": {"reqSigs": 1, "hex": "a9145ce243af5db577efe8af4e6c8e5f969081714a2087", "addresses": ["3AA99KPfuChupijgRCztZgX2hMjGyZwaba"], "asm": "OP_HASH160 5ce243af5db577efe8af4e6c8e5f969081714a20 OP_EQUAL", "type": "scripthash"}, "value": 0.00259, "n": 1}], "hex": "0100000003cf90854520fc1e98d1a7318becf5110be8911b6de1cff55010813f19d42c2793000000006b483045022100982e461fc4f860265ad649b6f624e0687f18fc8e4a5c6afb90fbb87e65f3b73e02206a65a7e3254b1682569bfca43efa0a62adb7e0856e4faf8751f5c0150598e1360121036a0cb33aa2b92aa3b32182a925bc6aae2a72c1f8702fcde869e1aeb01a2ca5f0ffffffff11a732090613894c8c0cfdca36fdecb3e6b5288dd8f894a9911f7cd45bc28cbe000000006a4730440220692887d7628638d045e11a61f6c70c0e1e5071f19c2bb9344401b601f0db690f02205f9e450797604823602f83b5fc9d47e5a2286b824051970257ae18826bee4eda0121036a0cb33aa2b92aa3b32182a925bc6aae2a72c1f8702fcde869e1aeb01a2ca5f0ffffffff60c5fa00be0f8f823b129a1241708fa997b65a219fb8fd732a4bdd8d5cf7d7cf050000006a47304402205364596ee0cb196059f3aae97ae16e6500923a7e6728084dc4b0ad0b930322cb0220764d9d20db650c4b486212bea7ad99da94d2e82b63082ea846833300a576d59b0121036a0cb33aa2b92aa3b32182a925bc6aae2a72c1f8702fcde869e1aeb01a2ca5f0ffffffff02b7100000000000001976a9140b8c7276de8cce3d57446e1b6d493ad841155f6a88acb8f303000000000017a9145ce243af5db577efe8af4e6c8e5f969081714a208700000000", "vin": [{"sequence": 4294967295, "scriptSig": {"hex": "483045022100982e461fc4f860265ad649b6f624e0687f18fc8e4a5c6afb90fbb87e65f3b73e02206a65a7e3254b1682569bfca43efa0a62adb7e0856e4faf8751f5c0150598e1360121036a0cb33aa2b92aa3b32182a925bc6aae2a72c1f8702fcde869e1aeb01a2ca5f0", "asm": "3045022100982e461fc4f860265ad649b6f624e0687f18fc8e4a5c6afb90fbb87e65f3b73e02206a65a7e3254b1682569bfca43efa0a62adb7e0856e4faf8751f5c0150598e136[ALL] 036a0cb33aa2b92aa3b32182a925bc6aae2a72c1f8702fcde869e1aeb01a2ca5f0"}, "vout": 0, "txid": "93272cd4193f811050f5cfe16d1b91e80b11f5ec8b31a7d1981efc20458590cf"}, {"sequence": 4294967295, "scriptSig": {"hex": "4730440220692887d7628638d045e11a61f6c70c0e1e5071f19c2bb9344401b601f0db690f02205f9e450797604823602f83b5fc9d47e5a2286b824051970257ae18826bee4eda0121036a0cb33aa2b92aa3b32182a925bc6aae2a72c1f8702fcde869e1aeb01a2ca5f0", "asm": "30440220692887d7628638d045e11a61f6c70c0e1e5071f19c2bb9344401b601f0db690f02205f9e450797604823602f83b5fc9d47e5a2286b824051970257ae18826bee4eda[ALL] 036a0cb33aa2b92aa3b32182a925bc6aae2a72c1f8702fcde869e1aeb01a2ca5f0"}, "vout": 0, "txid": "be8cc25bd47c1f91a994f8d88d28b5e6b3ecfd36cafd0c8c4c8913060932a711"}, {"sequence": 4294967295, "scriptSig": {"hex": "47304402205364596ee0cb196059f3aae97ae16e6500923a7e6728084dc4b0ad0b930322cb0220764d9d20db650c4b486212bea7ad99da94d2e82b63082ea846833300a576d59b0121036a0cb33aa2b92aa3b32182a925bc6aae2a72c1f8702fcde869e1aeb01a2ca5f0", "asm": "304402205364596ee0cb196059f3aae97ae16e6500923a7e6728084dc4b0ad0b930322cb0220764d9d20db650c4b486212bea7ad99da94d2e82b63082ea846833300a576d59b[ALL] 036a0cb33aa2b92aa3b32182a925bc6aae2a72c1f8702fcde869e1aeb01a2ca5f0"}, "vout": 5, "txid": "cfd7f75c8ddd4b2a73fdb89f215ab697a98f7041129a123b828f0fbe00fac560"}], "txid": "f8e718478ed1a87f66fd90e86b3f076169244de8ea07a291b71d2785619311a2", "blocktime": 1537873282, "version": 1, "confirmations": 11485, "time": 1537873282, "locktime": 0, "vsize": 518, "size": 518}