{"hash": "f8e80c63ccd98707797a032b2dd21e241363453e249d9dfda54ae8aa47afc8ef", "blockhash": "0000000000000000000baef3f32e3676a92c3b2e5da21b426e4f302fc371ce76", "vout": [{"scriptPubKey": {"reqSigs": 1, "hex": "76a914e2d200865e27c5c57c6f9dcb112d919c159df91288ac", "addresses": ["1MgKHZ1h96VbThfQdwCQUnFbf1FxHTUDuW"], "asm": "OP_DUP OP_HASH160 e2d200865e27c5c57c6f9dcb112d919c159df912 OP_EQUALVERIFY OP_CHECKSIG", "type": "pubkeyhash"}, "value": 2.66772155, "n": 0}, {"scriptPubKey": {"reqSigs": 1, "hex": "76a914602e74fc3537804c0f4cd82b9f1c044e23de847988ac", "addresses": ["19mZXJZgnmVEVKDWXka74pARajd6J8Umef"], "asm": "OP_DUP OP_HASH160 602e74fc3537804c0f4cd82b9f1c044e23de8479 OP_EQUALVERIFY OP_CHECKSIG", "type": "pubkeyhash"}, "value": 0.00988808, "n": 1}], "hex": "0200000001142460e32a4bbb7334f40972dac61f7e3e9f9225267bfa3a52624cb0add9cd29040000006a473044022018bc7820031803f9b41b485f8b6c0cad10e28070bef60fcd49311ad9f2a33edc022042d7e6ae95c3bee13708571fe6b34005141e76b52ead95f7ad82c8907d3ffdcc0121033cfaf6fad18b787f637c93dae2e19090af0e0123ae951f080ac1cea35dd7f4b9ffffffff02bb9ee60f000000001976a914e2d200865e27c5c57c6f9dcb112d919c159df91288ac88160f00000000001976a914602e74fc3537804c0f4cd82b9f1c044e23de847988ac00000000", "vin": [{"sequence": 4294967295, "scriptSig": {"hex": "473044022018bc7820031803f9b41b485f8b6c0cad10e28070bef60fcd49311ad9f2a33edc022042d7e6ae95c3bee13708571fe6b34005141e76b52ead95f7ad82c8907d3ffdcc0121033cfaf6fad18b787f637c93dae2e19090af0e0123ae951f080ac1cea35dd7f4b9", "asm": "3044022018bc7820031803f9b41b485f8b6c0cad10e28070bef60fcd49311ad9f2a33edc022042d7e6ae95c3bee13708571fe6b34005141e76b52ead95f7ad82c8907d3ffdcc[ALL] 033cfaf6fad18b787f637c93dae2e19090af0e0123ae951f080ac1cea35dd7f4b9"}, "vout": 4, "txid": "29cdd9adb04c62523afa7b2625929f3e7e1fc6da7209f43473bb4b2ae3602414"}], "txid": "f8e80c63ccd98707797a032b2dd21e241363453e249d9dfda54ae8aa47afc8ef", "blocktime": 1537876114, "version": 2, "confirmations": 11460, "time": 1537876114, "locktime": 0, "vsize": 225, "size": 225}