{"hash": "efd10bc8549b6c85c730e7ccc5e0fe1668c60c902562162f9eeac0c7bf8f1832", "blockhash": "00000000000000000017f5eb5941039fbcee6240d03bc1f2f8e35350df66a1d8", "vout": [{"scriptPubKey": {"reqSigs": 1, "hex": "a914d18f25b691b7dd6657d3466cebee895e769e56d487", "addresses": ["3Lo4dgkrD8HdorQPKotPqs7EB5rzmzcbtc"], "asm": "OP_HASH160 d18f25b691b7dd6657d3466cebee895e769e56d4 OP_EQUAL", "type": "scripthash"}, "value": 0.02085349, "n": 0}, {"scriptPubKey": {"reqSigs": 1, "hex": "a9142c0811a1ead85f7bb247ff6ed6c355c62fba776f87", "addresses": ["35hqKcttNheREkXXdU2LCHekTYjBEPc2R5"], "asm": "OP_HASH160 2c0811a1ead85f7bb247ff6ed6c355c62fba776f OP_EQUAL", "type": "scripthash"}, "value": 12.94810251, "n": 1}], "hex": "01000000000104ea642549f3b59698dada131c3e50302da39c5ea1c4a6cfeab531a4d04c59f93b0100000023220020075c03fe986229cfeed197cf0de841d3b42525b222700add6f050e870b7dccbaffffffff8bdd4020f79b7aba3ced181ba4b93b20c4a400710934a62a2f6188e598102fb00000000023220020075c03fe986229cfeed197cf0de841d3b42525b222700add6f050e870b7dccbaffffffffba5d49da1fe3f812daf1bfc9ba0615db023d209d814c2604e2d960f2f4fb37bf0200000023220020075c03fe986229cfeed197cf0de841d3b42525b222700add6f050e870b7dccbaffffffff574219cfc0fb6b61b4ad0acf1592698ab700f0f144950e2f9065c6c842339ffd01000000232200202103ae869f7b7a890040cb3674c6a69da4ba20f4d1e92142af79b269d2b98bf1ffffffff02e5d11f000000000017a914d18f25b691b7dd6657d3466cebee895e769e56d4878b3c2d4d0000000017a9142c0811a1ead85f7bb247ff6ed6c355c62fba776f870400473044022059ab9808712c89dbb7486473804ed1920230a20cac7fc9426a183a0fb80f785e02203297ce12dff9af7504a9f0aee1a4e376dccf3e738014ee7d398551cd5ddd6de0014730440220310f8f4c52fbbe478b05553fa5140863afe150db0bce8fd5b55f9cf41873a56e022050c0507670c09cc59ddf681f4f1adc77213e72f6e249fe3ebdad927fedc596590147522102262e2ee5164ee21412c8dcf4e47a2fc37f4a691b850ab5aaf551b77f930c63102103d502797f3c6de858b4416448ac9513969dbc4d4c4701caabef9c4c242312e6cf52ae040048304502210090675b0c07f28453c461cdbb0f81b20976eef96b4280b9eedfa885b5da167e5f022053382b64338df2b97d763fd7b767ba1fb85865de5fac293406456bc7ec10826b0147304402204399d5546de30ebb8527f10fc387f918f59b28e64bb5dad91a9f68b8f19025cb02204df3388de22b01011a5e6392169d5bafc5da0ccefc01881f914333b5aaf26b670147522102262e2ee5164ee21412c8dcf4e47a2fc37f4a691b850ab5aaf551b77f930c63102103d502797f3c6de858b4416448ac9513969dbc4d4c4701caabef9c4c242312e6cf52ae0400473044022045dd41589349cbeaa5905dfc2f7e5d4d23a9df6c21857a058cf1f04137dae999022037504710058645516db4577b8a5ae48265df973201205cfd049acaac501d86b1014830450221008819c68ca7f7ec287e3aa2fa266e5a236a9a8a5226a19fe4509e65ad671adf750220384dc92d1815fc5c9274ce1c19ea65d82d0f01c7ee6b73c19dec2e77214f573d0147522102262e2ee5164ee21412c8dcf4e47a2fc37f4a691b850ab5aaf551b77f930c63102103d502797f3c6de858b4416448ac9513969dbc4d4c4701caabef9c4c242312e6cf52ae0400483045022100f6d8795b2149998d86df336e332f5cfd34948d3a86dbf224dc8ba77c53fe8fd902207b60765f3e19d7d67efc2987f0467f0a0f410509f3120ba99dfc63d70c4a64010147304402204079bdb929196552bf41579c1a692fca550f6b4a35da3be2cbd51f6fc36bad4602205e830eb48305396ea794f06855d284a5d37d91943ccf28371e29a1d010832bda014752210251a67f8ee16b4a86a57c0b9ee5e25adbe84157c8953c3dac0de5deb784ac79062103d502797f3c6de858b4416448ac9513969dbc4d4c4701caabef9c4c242312e6cf52ae00000000", "vin": [{"txinwitness": ["", "3044022059ab9808712c89dbb7486473804ed1920230a20cac7fc9426a183a0fb80f785e02203297ce12dff9af7504a9f0aee1a4e376dccf3e738014ee7d398551cd5ddd6de001", "30440220310f8f4c52fbbe478b05553fa5140863afe150db0bce8fd5b55f9cf41873a56e022050c0507670c09cc59ddf681f4f1adc77213e72f6e249fe3ebdad927fedc5965901", "522102262e2ee5164ee21412c8dcf4e47a2fc37f4a691b850ab5aaf551b77f930c63102103d502797f3c6de858b4416448ac9513969dbc4d4c4701caabef9c4c242312e6cf52ae"], "sequence": 4294967295, "scriptSig": {"hex": "220020075c03fe986229cfeed197cf0de841d3b42525b222700add6f050e870b7dccba", "asm": "0020075c03fe986229cfeed197cf0de841d3b42525b222700add6f050e870b7dccba"}, "vout": 1, "txid": "3bf9594cd0a431b5eacfa6c4a15e9ca32d30503e1c13dada9896b5f3492564ea"}, {"txinwitness": ["", "304502210090675b0c07f28453c461cdbb0f81b20976eef96b4280b9eedfa885b5da167e5f022053382b64338df2b97d763fd7b767ba1fb85865de5fac293406456bc7ec10826b01", "304402204399d5546de30ebb8527f10fc387f918f59b28e64bb5dad91a9f68b8f19025cb02204df3388de22b01011a5e6392169d5bafc5da0ccefc01881f914333b5aaf26b6701", "522102262e2ee5164ee21412c8dcf4e47a2fc37f4a691b850ab5aaf551b77f930c63102103d502797f3c6de858b4416448ac9513969dbc4d4c4701caabef9c4c242312e6cf52ae"], "sequence": 4294967295, "scriptSig": {"hex": "220020075c03fe986229cfeed197cf0de841d3b42525b222700add6f050e870b7dccba", "asm": "0020075c03fe986229cfeed197cf0de841d3b42525b222700add6f050e870b7dccba"}, "vout": 0, "txid": "b02f1098e588612f2aa634097100a4c4203bb9a41b18ed3cba7a9bf72040dd8b"}, {"txinwitness": ["", "3044022045dd41589349cbeaa5905dfc2f7e5d4d23a9df6c21857a058cf1f04137dae999022037504710058645516db4577b8a5ae48265df973201205cfd049acaac501d86b101", "30450221008819c68ca7f7ec287e3aa2fa266e5a236a9a8a5226a19fe4509e65ad671adf750220384dc92d1815fc5c9274ce1c19ea65d82d0f01c7ee6b73c19dec2e77214f573d01", "522102262e2ee5164ee21412c8dcf4e47a2fc37f4a691b850ab5aaf551b77f930c63102103d502797f3c6de858b4416448ac9513969dbc4d4c4701caabef9c4c242312e6cf52ae"], "sequence": 4294967295, "scriptSig": {"hex": "220020075c03fe986229cfeed197cf0de841d3b42525b222700add6f050e870b7dccba", "asm": "0020075c03fe986229cfeed197cf0de841d3b42525b222700add6f050e870b7dccba"}, "vout": 2, "txid": "bf37fbf4f260d9e204264c819d203d02db1506bac9bff1da12f8e31fda495dba"}, {"txinwitness": ["", "3045022100f6d8795b2149998d86df336e332f5cfd34948d3a86dbf224dc8ba77c53fe8fd902207b60765f3e19d7d67efc2987f0467f0a0f410509f3120ba99dfc63d70c4a640101", "304402204079bdb929196552bf41579c1a692fca550f6b4a35da3be2cbd51f6fc36bad4602205e830eb48305396ea794f06855d284a5d37d91943ccf28371e29a1d010832bda01", "52210251a67f8ee16b4a86a57c0b9ee5e25adbe84157c8953c3dac0de5deb784ac79062103d502797f3c6de858b4416448ac9513969dbc4d4c4701caabef9c4c242312e6cf52ae"], "sequence": 4294967295, "scriptSig": {"hex": "2200202103ae869f7b7a890040cb3674c6a69da4ba20f4d1e92142af79b269d2b98bf1", "asm": "00202103ae869f7b7a890040cb3674c6a69da4ba20f4d1e92142af79b269d2b98bf1"}, "vout": 1, "txid": "fd9f3342c8c665902f0e9544f1f000b78a699215cf0aadb4616bfbc0cf194257"}], "txid": "f8ea06fe427098b27be1c1576a80fa2567278165fddb8367bd6af0e4920938a5", "blocktime": 1537874412, "version": 1, "confirmations": 11468, "time": 1537874412, "locktime": 0, "vsize": 598, "size": 1255}