{"hash": "f8eb4bcf928db71e8f2b4dae9069d85d91222c58fc5a998db6dcea889f1c68cb", "blockhash": "000000000000000000022b45ed06c6f4ccd3cf7fb5ba4856ebd2e58215665228", "vout": [{"scriptPubKey": {"reqSigs": 1, "hex": "76a914890d79011b2c475edd505c60e74ef3f8067363a588ac", "addresses": ["1DVfiNxJKu6FW7eyJQCeg7taHenwgJfwKL"], "asm": "OP_DUP OP_HASH160 890d79011b2c475edd505c60e74ef3f8067363a5 OP_EQUALVERIFY OP_CHECKSIG", "type": "pubkeyhash"}, "value": 0.063, "n": 0}, {"scriptPubKey": {"reqSigs": 1, "hex": "76a91447f319d188a48558daa509f6e23392b5c410202688ac", "addresses": ["17ZSCZgCmnjotqTpwYW3bdugAkNxxT2hYb"], "asm": "OP_DUP OP_HASH160 47f319d188a48558daa509f6e23392b5c4102026 OP_EQUALVERIFY OP_CHECKSIG", "type": "pubkeyhash"}, "value": 0.06841447, "n": 1}], "hex": "0200000004c0ffe871618f097d6ab6a25e524768eda604752123a3d4d5c350203265c05169760000006b483045022100d455be4d29fabf47bde4bdd45210364fd14a053385753836f9f0bc4ab9a6de36022026a2a2944b54bb97f4179c50f5142c506465813ee44c3f0fb0d72503047aa4300121029e36dd57ffbc874a9bdc28e78f3537e2cd40f3000117e219311860dcb8dd0259ffffffffa8c7ec2563a567f0c7a549918ded89ad6637b027cce9901f762926e1b49a1368010000006b483045022100cd3c236bba19aa47f060785228c263dc959f1f4c7f1a26ba21681efe79183a010220717d5e1f07aceca02814842c92b7c1d1dbaa00c506357eb82ceb6ce8a7786544012103863d295756aa898a9e4140e8de5c6ab3a72ea5a7a97b11e72710c774248d386affffffff1ce66ad72a9f5d7839dba754bd785ae6930de8529be7add65e8865e13312ef5a040000006a473044022033abb90bff722132ebdccef6d99dbd7bfabdf3c0921bccbb30f5e88aa6e46d57022067a5a9846db75927fc89655a1bb2b4f6ba1823a1fd9ed791cd0a8b25012f86c2012103e6bd165b60e613ca070795bbce76724fdde927779f6548acc1c2b6e790bb491bffffffffc33b36a4dd050a90e5db2a89309b733552e786393007321d46c182a094847db9010000006b4830450221009d855f0d66599717170638f7cb1f3a14be34778b7539ee5514a7f1c43de4519902207c3d02f3e57e3e72c2604b90073f42cbae7c2169c36ad3aa7ceb0476288f5a21012103430ec9dc822fb4d76b96cc9980f4b1059108c5a4b6e0348447fa52b32468691fffffffff0260216000000000001976a914890d79011b2c475edd505c60e74ef3f8067363a588ac67646800000000001976a91447f319d188a48558daa509f6e23392b5c410202688ac00000000", "vin": [{"sequence": 4294967295, "scriptSig": {"hex": "483045022100d455be4d29fabf47bde4bdd45210364fd14a053385753836f9f0bc4ab9a6de36022026a2a2944b54bb97f4179c50f5142c506465813ee44c3f0fb0d72503047aa4300121029e36dd57ffbc874a9bdc28e78f3537e2cd40f3000117e219311860dcb8dd0259", "asm": "3045022100d455be4d29fabf47bde4bdd45210364fd14a053385753836f9f0bc4ab9a6de36022026a2a2944b54bb97f4179c50f5142c506465813ee44c3f0fb0d72503047aa430[ALL] 029e36dd57ffbc874a9bdc28e78f3537e2cd40f3000117e219311860dcb8dd0259"}, "vout": 118, "txid": "6951c065322050c3d5d4a323217504a6ed6847525ea2b66a7d098f6171e8ffc0"}, {"sequence": 4294967295, "scriptSig": {"hex": "483045022100cd3c236bba19aa47f060785228c263dc959f1f4c7f1a26ba21681efe79183a010220717d5e1f07aceca02814842c92b7c1d1dbaa00c506357eb82ceb6ce8a7786544012103863d295756aa898a9e4140e8de5c6ab3a72ea5a7a97b11e72710c774248d386a", "asm": "3045022100cd3c236bba19aa47f060785228c263dc959f1f4c7f1a26ba21681efe79183a010220717d5e1f07aceca02814842c92b7c1d1dbaa00c506357eb82ceb6ce8a7786544[ALL] 03863d295756aa898a9e4140e8de5c6ab3a72ea5a7a97b11e72710c774248d386a"}, "vout": 1, "txid": "68139ab4e12629761f90e9cc27b03766ad89ed8d9149a5c7f067a56325ecc7a8"}, {"sequence": 4294967295, "scriptSig": {"hex": "473044022033abb90bff722132ebdccef6d99dbd7bfabdf3c0921bccbb30f5e88aa6e46d57022067a5a9846db75927fc89655a1bb2b4f6ba1823a1fd9ed791cd0a8b25012f86c2012103e6bd165b60e613ca070795bbce76724fdde927779f6548acc1c2b6e790bb491b", "asm": "3044022033abb90bff722132ebdccef6d99dbd7bfabdf3c0921bccbb30f5e88aa6e46d57022067a5a9846db75927fc89655a1bb2b4f6ba1823a1fd9ed791cd0a8b25012f86c2[ALL] 03e6bd165b60e613ca070795bbce76724fdde927779f6548acc1c2b6e790bb491b"}, "vout": 4, "txid": "5aef1233e165885ed6ade79b52e80d93e65a78bd54a7db39785d9f2ad76ae61c"}, {"sequence": 4294967295, "scriptSig": {"hex": "4830450221009d855f0d66599717170638f7cb1f3a14be34778b7539ee5514a7f1c43de4519902207c3d02f3e57e3e72c2604b90073f42cbae7c2169c36ad3aa7ceb0476288f5a21012103430ec9dc822fb4d76b96cc9980f4b1059108c5a4b6e0348447fa52b32468691f", "asm": "30450221009d855f0d66599717170638f7cb1f3a14be34778b7539ee5514a7f1c43de4519902207c3d02f3e57e3e72c2604b90073f42cbae7c2169c36ad3aa7ceb0476288f5a21[ALL] 03430ec9dc822fb4d76b96cc9980f4b1059108c5a4b6e0348447fa52b32468691f"}, "vout": 1, "txid": "b97d8494a082c1461d3207303986e75235739b30892adbe5900a05dda4363bc3"}], "txid": "f8eb4bcf928db71e8f2b4dae9069d85d91222c58fc5a998db6dcea889f1c68cb", "blocktime": 1537869901, "version": 2, "confirmations": 11522, "time": 1537869901, "locktime": 0, "vsize": 669, "size": 669}