{"hash": "f8f50fece6e77ab6922484c4474cbd5ec5a575a49101c6e84b58c6da21f60662", "blockhash": "0000000000000000001cda96e906b7601b7a6fb1a3b62bca570a9e5d8f4b3de1", "vout": [{"scriptPubKey": {"reqSigs": 1, "hex": "76a914bd2a0a4cea56b16338b769ea719a466cb599682788ac", "addresses": ["1JFD5GEwYjPcKV4opvyNFJebCL91cynE9b"], "asm": "OP_DUP OP_HASH160 bd2a0a4cea56b16338b769ea719a466cb5996827 OP_EQUALVERIFY OP_CHECKSIG", "type": "pubkeyhash"}, "value": 0.00088852, "n": 0}, {"scriptPubKey": {"reqSigs": 1, "hex": "a914c906937817a1ec9176eb9392866cdcd2b13ed66c87", "addresses": ["3L1wd1kPweURghx4LVedc7dKYhN45aEm82"], "asm": "OP_HASH160 c906937817a1ec9176eb9392866cdcd2b13ed66c OP_EQUAL", "type": "scripthash"}, "value": 0.0210401, "n": 1}], "hex": "0100000002e6b1f6d55c9a2293a4b14e4e0187204ab67acc364cf0e7f84c725d2558d978a3000000006b4830450221009747e0b6d87518662a5989a47ede8adb9a2f3b1ecadf43d2d68e686a031d44e702202e7ea0b787857656eaf6bba1dd6ee8defc3734f9db0c87f4998c19499dce2a080121024215af2eda38e089839d33bbd6f312a892d20c2818c1827292ce8a89215582b3ffffffff2d5106d4d3a35d0c9779554874050fa5fdd10e06039803abc00059999c22a0cc000000006b48304502210080e070d0b0f2e36700941feec720735305faca2945f0b0f05d40cc28d46170110220379abec62d09643a12efc158fc8372824304eae4ae395da4fb09120c6bc3ebb90121035fde92e3607437c62641acb90e2a6f171a556654c05003df04c139719796dbf4ffffffff02145b0100000000001976a914bd2a0a4cea56b16338b769ea719a466cb599682788acca1a20000000000017a914c906937817a1ec9176eb9392866cdcd2b13ed66c8700000000", "vin": [{"sequence": 4294967295, "scriptSig": {"hex": "4830450221009747e0b6d87518662a5989a47ede8adb9a2f3b1ecadf43d2d68e686a031d44e702202e7ea0b787857656eaf6bba1dd6ee8defc3734f9db0c87f4998c19499dce2a080121024215af2eda38e089839d33bbd6f312a892d20c2818c1827292ce8a89215582b3", "asm": "30450221009747e0b6d87518662a5989a47ede8adb9a2f3b1ecadf43d2d68e686a031d44e702202e7ea0b787857656eaf6bba1dd6ee8defc3734f9db0c87f4998c19499dce2a08[ALL] 024215af2eda38e089839d33bbd6f312a892d20c2818c1827292ce8a89215582b3"}, "vout": 0, "txid": "a378d958255d724cf8e7f04c36cc7ab64a2087014e4eb1a493229a5cd5f6b1e6"}, {"sequence": 4294967295, "scriptSig": {"hex": "48304502210080e070d0b0f2e36700941feec720735305faca2945f0b0f05d40cc28d46170110220379abec62d09643a12efc158fc8372824304eae4ae395da4fb09120c6bc3ebb90121035fde92e3607437c62641acb90e2a6f171a556654c05003df04c139719796dbf4", "asm": "304502210080e070d0b0f2e36700941feec720735305faca2945f0b0f05d40cc28d46170110220379abec62d09643a12efc158fc8372824304eae4ae395da4fb09120c6bc3ebb9[ALL] 035fde92e3607437c62641acb90e2a6f171a556654c05003df04c139719796dbf4"}, "vout": 0, "txid": "cca0229c995900c0ab039803060ed1fda50f0574485579970c5da3d3d406512d"}], "txid": "f8f50fece6e77ab6922484c4474cbd5ec5a575a49101c6e84b58c6da21f60662", "blocktime": 1537873282, "version": 1, "confirmations": 11484, "time": 1537873282, "locktime": 0, "vsize": 372, "size": 372}