{"hash": "9b74155da7d1df4d12ab9e599dcd4eb4df9d95f074713d14300f8964157068dc", "blockhash": "00000000000000000024a2167bbff67b0be802c0b01cdd79e6331c2be6459f87", "vout": [{"scriptPubKey": {"reqSigs": 1, "hex": "76a914658bc2e4001cfacc64a3e041943e921b3086737588ac", "addresses": ["1AFvgAG4FN8fhtp3ZtSF8hsmKvPTDiB4RV"], "asm": "OP_DUP OP_HASH160 658bc2e4001cfacc64a3e041943e921b30867375 OP_EQUALVERIFY OP_CHECKSIG", "type": "pubkeyhash"}, "value": 3.309e-05, "n": 0}, {"scriptPubKey": {"reqSigs": 1, "hex": "a914c9f699e314ba7f0d0f38863b8dd9f88a8ccf5e6b87", "addresses": ["3L6uAFLNGUyAyZt5svPDRUaMwX9sb9vSmm"], "asm": "OP_HASH160 c9f699e314ba7f0d0f38863b8dd9f88a8ccf5e6b OP_EQUAL", "type": "scripthash"}, "value": 0.00569621, "n": 1}], "hex": "0100000000010153fedb2966cc258aa13fea0f5dfb8092535eff8f738c34b64c570d76e4a6e24b010000002322002060ed3ea6d5bc1c973749df2e70745e72681e9108ad66c36f379acf8b774b6464ffffffff02ed0c0000000000001976a914658bc2e4001cfacc64a3e041943e921b3086737588ac15b108000000000017a914c9f699e314ba7f0d0f38863b8dd9f88a8ccf5e6b870400483045022100a414a2d6c482c1c9858f911b28ed90f94f8bea29e3df6fe82ec8d402d2c82dc70220230451db6e7492676824a69e3730c621a2fd5ba1c8d985ab84df910cbb85132c0147304402207d44c8cefef0603011703369d871a2712a9d3e22aebc0f6235e08cb13322c3620220687fb6ef85c1d73877e66e3ac5f7535944c8ccd372531f4be94a660a0c7b06b80147522102815cfda15cb11edd3720f8e00ce10cd71bce3ef096ffb70b7d8798c53cace0462103148c80a5bdfddb05ff5bcffc397c8ca748d8b435ec6a175bc9d7bfc7fc6f853752ae00000000", "vin": [{"txinwitness": ["", "3045022100a414a2d6c482c1c9858f911b28ed90f94f8bea29e3df6fe82ec8d402d2c82dc70220230451db6e7492676824a69e3730c621a2fd5ba1c8d985ab84df910cbb85132c01", "304402207d44c8cefef0603011703369d871a2712a9d3e22aebc0f6235e08cb13322c3620220687fb6ef85c1d73877e66e3ac5f7535944c8ccd372531f4be94a660a0c7b06b801", "522102815cfda15cb11edd3720f8e00ce10cd71bce3ef096ffb70b7d8798c53cace0462103148c80a5bdfddb05ff5bcffc397c8ca748d8b435ec6a175bc9d7bfc7fc6f853752ae"], "sequence": 4294967295, "scriptSig": {"hex": "22002060ed3ea6d5bc1c973749df2e70745e72681e9108ad66c36f379acf8b774b6464", "asm": "002060ed3ea6d5bc1c973749df2e70745e72681e9108ad66c36f379acf8b774b6464"}, "vout": 1, "txid": "4be2a6e4760d574cb6348c738fff5e539280fb5d0fea3fa18a25cc6629dbfe53"}], "txid": "f8f5b11abf31e3cc363361078e4759377a0cf61a7ca2be99ad8aacec0d0fffc6", "blocktime": 1537870564, "version": 1, "confirmations": 11515, "time": 1537870564, "locktime": 0, "vsize": 208, "size": 373}