{"hash": "41d9bad7bac1b42fc309e55dfc5195e95d5eb1d9d45397e7e6ece956603daa02", "blockhash": "000000000000000000022b45ed06c6f4ccd3cf7fb5ba4856ebd2e58215665228", "vout": [{"scriptPubKey": {"reqSigs": 1, "hex": "a914e46f283d0b12bb58272d70ee222acffcd7e4d96287", "addresses": ["3NWs9cmNeK9FvXa8wroeF9rJikztT3xR6s"], "asm": "OP_HASH160 e46f283d0b12bb58272d70ee222acffcd7e4d962 OP_EQUAL", "type": "scripthash"}, "value": 0.01559797, "n": 0}, {"scriptPubKey": {"reqSigs": 1, "hex": "76a91455b0961e5d577c4f59f51672011e51515282609388ac", "addresses": ["18p5yk9Bp8bJT3cXruSsSMrM6J9e9k1dyK"], "asm": "OP_DUP OP_HASH160 55b0961e5d577c4f59f51672011e515152826093 OP_EQUALVERIFY OP_CHECKSIG", "type": "pubkeyhash"}, "value": 0.005, "n": 1}], "hex": "020000000001025a98d91c75b29b82139e715335869cd0087af706855fdbed6274721b5e7c1a9701000000171600143eebc0636d8386055378daebb29b1e5fdc6e43bdfdffffffd0e8e286abe4f3c7ba1a0befeb5fba7c5936596544278ba1afd476e8b1c6bd860000000017160014a397093c7aca0421d2a95fb90dec1b73689d999ffdffffff02f5cc17000000000017a914e46f283d0b12bb58272d70ee222acffcd7e4d9628720a10700000000001976a91455b0961e5d577c4f59f51672011e51515282609388ac02483045022100d5e7f285118307b70979361dd3faf5834922049c06deee73610fc45a69d31a400220400a48804ab12a9abd3b96dc3865b8589d67437db80a60c5b4b5a67cb96d3708012103158032eea952e66a0200f48774683264839a0086893127655d20f3f7a4e03efb02473044022076259aa247de770e8b2bd877a1c838629893fc8e5256dcf3f620391f6684395a02205399371596b5e0b72ecd2490f2cdd88f55c3bca4b7f7a9a2df587f6e60011aef01210277052baeb46bcf3a88cd127ec87d05309e35446ff9461196bc736cee53734b900b490800", "vin": [{"txinwitness": ["3045022100d5e7f285118307b70979361dd3faf5834922049c06deee73610fc45a69d31a400220400a48804ab12a9abd3b96dc3865b8589d67437db80a60c5b4b5a67cb96d370801", "03158032eea952e66a0200f48774683264839a0086893127655d20f3f7a4e03efb"], "sequence": 4294967293, "scriptSig": {"hex": "1600143eebc0636d8386055378daebb29b1e5fdc6e43bd", "asm": "00143eebc0636d8386055378daebb29b1e5fdc6e43bd"}, "vout": 1, "txid": "971a7c5e1b727462eddb5f8506f77a08d09c863553719e13829bb2751cd9985a"}, {"txinwitness": ["3044022076259aa247de770e8b2bd877a1c838629893fc8e5256dcf3f620391f6684395a02205399371596b5e0b72ecd2490f2cdd88f55c3bca4b7f7a9a2df587f6e60011aef01", "0277052baeb46bcf3a88cd127ec87d05309e35446ff9461196bc736cee53734b90"], "sequence": 4294967293, "scriptSig": {"hex": "160014a397093c7aca0421d2a95fb90dec1b73689d999f", "asm": "0014a397093c7aca0421d2a95fb90dec1b73689d999f"}, "vout": 0, "txid": "86bdc6b1e876d4afa18b2744655936597cba5febef0b1abac7f3e4ab86e2e8d0"}], "txid": "f8f9433f8a1fa00294444df91cca1e2a295c423a87e885546114fad6da1d1c6a", "blocktime": 1537869901, "version": 2, "confirmations": 11522, "time": 1537869901, "locktime": 542987, "vsize": 259, "size": 421}