{"hash": "f8fbd95f0166ebef68fd1149c5fa5e4763e8ae4339e453f59b9f53b5feac8cad", "blockhash": "00000000000000000024a2167bbff67b0be802c0b01cdd79e6331c2be6459f87", "vout": [{"scriptPubKey": {"reqSigs": 1, "hex": "76a914a431b5d03fcc801e30b28bba018240b9dea6693a88ac", "addresses": ["1FyBNPPgd3LYE9GefWa9aFPRk1NcEmT9e3"], "asm": "OP_DUP OP_HASH160 a431b5d03fcc801e30b28bba018240b9dea6693a OP_EQUALVERIFY OP_CHECKSIG", "type": "pubkeyhash"}, "value": 0.00388468, "n": 0}, {"scriptPubKey": {"reqSigs": 1, "hex": "76a914226d250f463adc8a3de9f2fe29b5dc08af03310f88ac", "addresses": ["1492j2wP6fdGKKspHoA9Ee7ysq13cYZgsU"], "asm": "OP_DUP OP_HASH160 226d250f463adc8a3de9f2fe29b5dc08af03310f OP_EQUALVERIFY OP_CHECKSIG", "type": "pubkeyhash"}, "value": 0.02319525, "n": 1}], "hex": "010000000111a6d79548b1183613070242cc67c5baa72da45580b97044f50347181b1d1576010000006b483045022100ee86f8c0b1ebcd2a85757932af53ac6e4263a72a8ca9fc0c8e833db425a8a2e1022019bff497ec82bbf84d78e6aaa9cde7414117395745897ff74a3ccd422dec4e4b0121035b84b8ceee48cdc259ffe9b0a67cc960de0d18a8cf1f1cb2c034de772c7bd0a5ffffffff0274ed0500000000001976a914a431b5d03fcc801e30b28bba018240b9dea6693a88aca5642300000000001976a914226d250f463adc8a3de9f2fe29b5dc08af03310f88ac00000000", "vin": [{"sequence": 4294967295, "scriptSig": {"hex": "483045022100ee86f8c0b1ebcd2a85757932af53ac6e4263a72a8ca9fc0c8e833db425a8a2e1022019bff497ec82bbf84d78e6aaa9cde7414117395745897ff74a3ccd422dec4e4b0121035b84b8ceee48cdc259ffe9b0a67cc960de0d18a8cf1f1cb2c034de772c7bd0a5", "asm": "3045022100ee86f8c0b1ebcd2a85757932af53ac6e4263a72a8ca9fc0c8e833db425a8a2e1022019bff497ec82bbf84d78e6aaa9cde7414117395745897ff74a3ccd422dec4e4b[ALL] 035b84b8ceee48cdc259ffe9b0a67cc960de0d18a8cf1f1cb2c034de772c7bd0a5"}, "vout": 1, "txid": "76151d1b184703f54470b98055a42da7bac567cc420207133618b14895d7a611"}], "txid": "f8fbd95f0166ebef68fd1149c5fa5e4763e8ae4339e453f59b9f53b5feac8cad", "blocktime": 1537870564, "version": 1, "confirmations": 11515, "time": 1537870564, "locktime": 0, "vsize": 226, "size": 226}