{"hash": "f9044df2732cd625a3f7c504a2bec3a9b8ef254468f3e9b8e97636c7254fa33b", "blockhash": "00000000000000000024a2167bbff67b0be802c0b01cdd79e6331c2be6459f87", "vout": [{"scriptPubKey": {"reqSigs": 1, "hex": "76a914e8cea30989bd15530f819b766684b00dc7ba7cfa88ac", "addresses": ["1NDyJtNTjmwk5xPNhjgAMu4HDHigtobu1s"], "asm": "OP_DUP OP_HASH160 e8cea30989bd15530f819b766684b00dc7ba7cfa OP_EQUALVERIFY OP_CHECKSIG", "type": "pubkeyhash"}, "value": 1.22127655, "n": 0}, {"scriptPubKey": {"reqSigs": 1, "hex": "76a9148ba6a820cd6e6eaf2730905d3ec5099ed327fd6c88ac", "addresses": ["1DjQaBMLBJwLjWy9JwWekW8G45EuP9xtsH"], "asm": "OP_DUP OP_HASH160 8ba6a820cd6e6eaf2730905d3ec5099ed327fd6c OP_EQUALVERIFY OP_CHECKSIG", "type": "pubkeyhash"}, "value": 0.00651848, "n": 1}], "hex": "0200000017179e6e62441a6e8ebe5a05f6077185c2f0e879568522b72eac2c7d023d6a446f100000006a47304402203c845c75cb2fe164f6071201e6eb29b1d7b3bcec743898ddec0826a4b18fefac02202d2ae6ecedd17ca27371ba93d6b8b1b917f42f1dc3e45cb0b0dffb3191d0b030012103f708e6cfd12137edd96011db3b14a452e36b07cb5f4d7398ecd08d99b0cdafe5feffffff21ba8add257620e2750488b8e440f5f2537d4bcb235a47222569e440fd973d7d010000006b483045022100d1c25220f23abe8865a83b309dceecd785d0f7283b26ae8059b447873d68746d02205f1bcf18d568e6778da1795812c1dc800897ed35084d1548f456701d020336c2012102bbddfeff595f3fd033e2f5b9a59a4b7fe8de3de001203bd5df38bc51e005d52bfeffffff2750163223eb145c8cb21a62de0f87d44c5f9c3def1f36a0f30c6178c2bca1fa5b0300006b4830450221008d8eb7e041edcaab0975a95ad72f813218ce26be0abac08964c3b529fae4fab7022076e32346fd0e3bde4729b40351b69eb576fa24ed77ffcf7d89b483f8788e4f18012102418bcc8bb945429b7df9964eefa8c62a427ef34d71f9ca09fe9e83d4b84bd00afeffffff2bf03647701c8d3724aa30dc5f9e8c99de3a042636686047c263862010fe10eb660100006b4830450221009a9b0039391b0177eddd6a60d5d99fcd739a61f510bcb19dfff4afac18b7f20e02205f2413377ced15addb52fafe5654d822242f8913ae712b11b3a25e83c5c2476c0121027a2bc01d7780f1bea4ec3ae6c4e69edcbdb15c92d77273bec5080b88b05a5780feffffff309f9cc977fc89dfa3ee0be7a9218415e406d058c3277f1a91adfba05a9357f41c0000006a47304402202ed92bfa33e5230b309eed76de67ad288a3f870cbc452bb0fad9f44dddb96a5702205a16e5dc7e61fa89a07ca84161a614981e56a0f9744a6f6b06c99131714eec0d012102bd355050174f8dbf06a0b00efd052c4ef7d5407bff3e73529b02bc5ab9995c40feffffff3b21f91d72b56f1ce7cc15da79af6c748c12c925bbaa389cd53b77f9849bff63000000006a47304402202a6cdb3fbc1ad853e3a1ef30fe4ba405a6b0065ebbb9a7e213a4e2da6909b4c602202c9dd2dca999bd69036b50c9bbb81fc04763a22df2b70273e49e60ae30f883040121026c184418ede20473fb9745313dabff168cc5042904fd01aaf4e464ac8ccef10efeffffff4c13c4eeb78c79cfbf0689cfda21ce1874462c25792b0e8fd17c1b8c9ffd979b000000006a4730440220533bc37abd09a33e8e029f7f6ba5cfe88464170e09a26d3e8001b4ddb029b1410220415932628f29b02f688e42057a7c0c0cf783cc630ef62989e51333f5bd642028012102ae44f8fbb3244b6e5eccadc7df9d6eb70b4c8e4b1eb2345f490a8b8bd350f398feffffff5acc45c564e8fa4febae0c563af4b38de7091d26a5536e1a46067e00871057cd010000006b4830450221009c7e20fb2037fd08e6eddcb8af21fe27d95dd127d7e85501ea4ccf613637f36002202c3231ab8cd2a6777f5c6b45b6e0f2f981bc79ff0cde74b7f8aefd60a59358480121030e357e8224bf7fda326707a3ea8b58984e49fa409d06f14b962c4bb1441b297afeffffff5d298ba13a1e9af813f91de9cf414a80574a5bdb85c7dc9967a647a560a9fc73010000006a473044022044a9fe149df2bd2357526f758e34a6be7d820d007a30849ccb4ee85cc2aa749202201a4f7678575a14efb945e7e7714c06a4502d3413e0869292f2e86ad045f261a101210275bb4979125901dda7851465703094e11f9296576d1c40db7ac4226ede8ebafffeffffff5d500b81072d828b3e8679e89099ca64f4286111edd7f47f90bb2e06f9fd459c550000006a4730440220475315c8aceedaedb6c311bb8d26658138bd94dee99152a2a1e8da048f783f9e022038254ccfbeef285c94f2f3a79ffc8846e44e64d09d12a8c1ae18e362f9de841801210330d11160081564d97578d78586305ce113744c8fd590a7777f47c633a15b842afeffffff6ed4bda1101bc6d64f1486e360979af0de9fa03d1d6ffed01ee02d0458833d2b090000006b483045022100d9917b44d43846fc4f3e583e444829cf9c3e7adfdbc7658fdc9669ffbfd031ff0220622d76f945191064d3bdff16e23ae880c44e3b69dc2e13da380a339c6cd8a5990121021f5a08a459622c28bf8d781e3bc437e9791cc2fe51c3ff81deda4e446a68ca8cfeffffff752300506e9c9b08001df9fdd3494f747cb58cbf71b5fd5de3c340cdec122ac2000000006a47304402205fc88d6062716c70cb1fe91f7a738e4779654d2f702fb3ebc517085ac45c732302205b99357aac53b3b8292425e85dafd63a1ff306c90ac676fa279c710e02f7a30b012103eba1b64ef539762181e1ba3fca31feb15e8edc6ee4538074b6cdb60112888ec8feffffff81a5fa51ae2eaca41b0e271ffd854731bd443ab09609da1862af167295b711d8010000006b483045022100a6bd9f071da6b7ed1505752a15aac8ec1600c8c36484d23dece5624a62e940cf02202624ea2b0f16d6ad112231e088adc5e9e981182ff90a4c96a081ab3d3ec1e7b60121024678c5cd5c3222a96bfa02bf5beca3a6681fc42018f5001c33ff6a83df9d3924feffffff9036493a3f6885ab87e0d3fb517c620c1289f2df90a0f08a47aa729f320920af010000006a473044022047b79af44d2997183dbef9965b709a275880aaf849b5266468e46719d23737880220497059bd050bd387bc6c30468f5fdbb737cb50f3d20cd0c1d2d10a75935de883012103cca74178a0597e7fb0a8ad0f0c75aab431819c4f77b58d82bbbc847adf48c5dcfeffffff9cf05997c8289f2f31007c438454af9f728eb1c7d4a7686148040157868b978bdb0000006b483045022100dd67acf3a740609f29b28633ce81c58431be94dba7da17ad7077982c8986c87b022029f550173ee2c5399e0e5d4167651c00261b7ad56a3ff441d65554d263cf30d50121029510d2dc9b269e89e82f40bbdcbdd62d4d85f8c5492e73d309bb194fd0a2827dfeffffffc0ffe871618f097d6ab6a25e524768eda604752123a3d4d5c350203265c051691f0000006a47304402201c5748ab0f0b8e8dd2337136de24a4482875aa7925301db2bc60f837a6a8a80402206b7903feb7c40e100d3c7316c4f6afdd392a2a6955092da78302e222fcfa0e2e012103997a4e827f8494665519fb4fca438550a300eb15ce8f00d9c11958016cb11e08feffffffc0ffe871618f097d6ab6a25e524768eda604752123a3d4d5c350203265c05169050100006a47304402204fdf37ec8962fde5f7ade6c5f1d2f2a2780cc858b6b8593810f1eb07479a93f50220649356a1a74b9e3ab7faff1f875e98d7c7cb4a2fdd9a02950e9b9026fba1cdaf0121032a7ba14784e4d695afd44d2d2b4cb1d1801f1342a88f9a8b876bd8fa404c203afeffffffc7b4f9afdfaa749c7ce1674f7dac5d0a5d0fa6cbeb5f2f9def333eec49bb7164000000006a473044022035197cd50b4126fb27e37707788707dcad64685c06257df652c8b6c9ec33226c02202245624b61f174e938f9b3815f7b8e1010c069fb1c1d3090c1acf9162e859be40121032a14b9a0307ea71e783dfe5934e494b2473277ff3528a5fdffba868ff8581982feffffffd1b2600a17491f080f355b1fb8b51e5ad4106def4a8cb80e37679faa70a204700f0000006a47304402204a9c4ff3b582dde974ce75c7c280df6a3b68b4a947ace560c4dd8e8fd7aa649a022057daca3707f1703e2ec5be33f66f89ad75ff323e778ea0207e22455743391cfd0121031a6ae277f3d1fa87b33e95b2740ecdc2fdba19f1beaa1390e72c6ef536b649e7feffffffd1b2600a17491f080f355b1fb8b51e5ad4106def4a8cb80e37679faa70a204703a0000006a4730440220434ca9c2ce1b3408277406cad6f439f3a0e563bdbd80e7c765775a53e0a1fc0b02201f962152eda47a71d954d19d3b04950e3c29191c198c8e67c6ee044478e9fb4e012102bcef8cf17ea940fb458dded9b3668ac41a02cdb08aeff361dd327e85f7c8c99bfeffffffd1b2600a17491f080f355b1fb8b51e5ad4106def4a8cb80e37679faa70a204703f0000006b483045022100b65b1bd7cf66ccdafb268d34047b2f2484a120266f81444cb0a943c19d0e393202201937b287cb62c92c5c79ab5b206f1df7b24c33c13ae24ec64e149df559d71a790121035bf4a67d0f6ec5e456f8eae8685b478c46a4f4aaf8d6103d608061b9d398d70bfeffffffed24bf93b3a1fa87bd0a915faf7bd6d898c4cd9634f8c96ab41bf327cc33f0f60a0000006a473044022026d7a613bdaad3df02b1b9792a219e2cea19d13da87080039cef18ad4274822b02202691079691b85a89827087dcc84ed075b27f06235764abe983de3793a1e8b23501210289f54be6f609832acba4cb21793be24d40d979ccf2cc47d5f0ace48433e6f4e5feffffffed24bf93b3a1fa87bd0a915faf7bd6d898c4cd9634f8c96ab41bf327cc33f0f6200000006a47304402201ad2096d75cca0dd004b5d09770784d0e92b54cba9885577f810ebb6065be21602204137acaf62acbad0e06490e92b3d1a1200ed9bc05df7222114bbbc98c94e921601210236e48b4e6819f1926838d2299e1bf37cc588740768a95d662b01f2b183365e8bfeffffff0227854707000000001976a914e8cea30989bd15530f819b766684b00dc7ba7cfa88ac48f20900000000001976a9148ba6a820cd6e6eaf2730905d3ec5099ed327fd6c88ac0d490800", "vin": [{"sequence": 4294967294, "scriptSig": {"hex": "47304402203c845c75cb2fe164f6071201e6eb29b1d7b3bcec743898ddec0826a4b18fefac02202d2ae6ecedd17ca27371ba93d6b8b1b917f42f1dc3e45cb0b0dffb3191d0b030012103f708e6cfd12137edd96011db3b14a452e36b07cb5f4d7398ecd08d99b0cdafe5", "asm": "304402203c845c75cb2fe164f6071201e6eb29b1d7b3bcec743898ddec0826a4b18fefac02202d2ae6ecedd17ca27371ba93d6b8b1b917f42f1dc3e45cb0b0dffb3191d0b030[ALL] 03f708e6cfd12137edd96011db3b14a452e36b07cb5f4d7398ecd08d99b0cdafe5"}, "vout": 16, "txid": "6f446a3d027d2cac2eb722855679e8f0c2857107f6055abe8e6e1a44626e9e17"}, {"sequence": 4294967294, "scriptSig": {"hex": "483045022100d1c25220f23abe8865a83b309dceecd785d0f7283b26ae8059b447873d68746d02205f1bcf18d568e6778da1795812c1dc800897ed35084d1548f456701d020336c2012102bbddfeff595f3fd033e2f5b9a59a4b7fe8de3de001203bd5df38bc51e005d52b", "asm": "3045022100d1c25220f23abe8865a83b309dceecd785d0f7283b26ae8059b447873d68746d02205f1bcf18d568e6778da1795812c1dc800897ed35084d1548f456701d020336c2[ALL] 02bbddfeff595f3fd033e2f5b9a59a4b7fe8de3de001203bd5df38bc51e005d52b"}, "vout": 1, "txid": "7d3d97fd40e4692522475a23cb4b7d53f2f540e4b8880475e2207625dd8aba21"}, {"sequence": 4294967294, "scriptSig": {"hex": "4830450221008d8eb7e041edcaab0975a95ad72f813218ce26be0abac08964c3b529fae4fab7022076e32346fd0e3bde4729b40351b69eb576fa24ed77ffcf7d89b483f8788e4f18012102418bcc8bb945429b7df9964eefa8c62a427ef34d71f9ca09fe9e83d4b84bd00a", "asm": "30450221008d8eb7e041edcaab0975a95ad72f813218ce26be0abac08964c3b529fae4fab7022076e32346fd0e3bde4729b40351b69eb576fa24ed77ffcf7d89b483f8788e4f18[ALL] 02418bcc8bb945429b7df9964eefa8c62a427ef34d71f9ca09fe9e83d4b84bd00a"}, "vout": 859, "txid": "faa1bcc278610cf3a0361fef3d9c5f4cd4870fde621ab28c5c14eb2332165027"}, {"sequence": 4294967294, "scriptSig": {"hex": "4830450221009a9b0039391b0177eddd6a60d5d99fcd739a61f510bcb19dfff4afac18b7f20e02205f2413377ced15addb52fafe5654d822242f8913ae712b11b3a25e83c5c2476c0121027a2bc01d7780f1bea4ec3ae6c4e69edcbdb15c92d77273bec5080b88b05a5780", "asm": "30450221009a9b0039391b0177eddd6a60d5d99fcd739a61f510bcb19dfff4afac18b7f20e02205f2413377ced15addb52fafe5654d822242f8913ae712b11b3a25e83c5c2476c[ALL] 027a2bc01d7780f1bea4ec3ae6c4e69edcbdb15c92d77273bec5080b88b05a5780"}, "vout": 358, "txid": "eb10fe10208663c24760683626043ade998c9e5fdc30aa24378d1c704736f02b"}, {"sequence": 4294967294, "scriptSig": {"hex": "47304402202ed92bfa33e5230b309eed76de67ad288a3f870cbc452bb0fad9f44dddb96a5702205a16e5dc7e61fa89a07ca84161a614981e56a0f9744a6f6b06c99131714eec0d012102bd355050174f8dbf06a0b00efd052c4ef7d5407bff3e73529b02bc5ab9995c40", "asm": "304402202ed92bfa33e5230b309eed76de67ad288a3f870cbc452bb0fad9f44dddb96a5702205a16e5dc7e61fa89a07ca84161a614981e56a0f9744a6f6b06c99131714eec0d[ALL] 02bd355050174f8dbf06a0b00efd052c4ef7d5407bff3e73529b02bc5ab9995c40"}, "vout": 28, "txid": "f457935aa0fbad911a7f27c358d006e4158421a9e70beea3df89fc77c99c9f30"}, {"sequence": 4294967294, "scriptSig": {"hex": "47304402202a6cdb3fbc1ad853e3a1ef30fe4ba405a6b0065ebbb9a7e213a4e2da6909b4c602202c9dd2dca999bd69036b50c9bbb81fc04763a22df2b70273e49e60ae30f883040121026c184418ede20473fb9745313dabff168cc5042904fd01aaf4e464ac8ccef10e", "asm": "304402202a6cdb3fbc1ad853e3a1ef30fe4ba405a6b0065ebbb9a7e213a4e2da6909b4c602202c9dd2dca999bd69036b50c9bbb81fc04763a22df2b70273e49e60ae30f88304[ALL] 026c184418ede20473fb9745313dabff168cc5042904fd01aaf4e464ac8ccef10e"}, "vout": 0, "txid": "63ff9b84f9773bd59c38aabb25c9128c746caf79da15cce71c6fb5721df9213b"}, {"sequence": 4294967294, "scriptSig": {"hex": "4730440220533bc37abd09a33e8e029f7f6ba5cfe88464170e09a26d3e8001b4ddb029b1410220415932628f29b02f688e42057a7c0c0cf783cc630ef62989e51333f5bd642028012102ae44f8fbb3244b6e5eccadc7df9d6eb70b4c8e4b1eb2345f490a8b8bd350f398", "asm": "30440220533bc37abd09a33e8e029f7f6ba5cfe88464170e09a26d3e8001b4ddb029b1410220415932628f29b02f688e42057a7c0c0cf783cc630ef62989e51333f5bd642028[ALL] 02ae44f8fbb3244b6e5eccadc7df9d6eb70b4c8e4b1eb2345f490a8b8bd350f398"}, "vout": 0, "txid": "9b97fd9f8c1b7cd18f0e2b79252c467418ce21dacf8906bfcf798cb7eec4134c"}, {"sequence": 4294967294, "scriptSig": {"hex": "4830450221009c7e20fb2037fd08e6eddcb8af21fe27d95dd127d7e85501ea4ccf613637f36002202c3231ab8cd2a6777f5c6b45b6e0f2f981bc79ff0cde74b7f8aefd60a59358480121030e357e8224bf7fda326707a3ea8b58984e49fa409d06f14b962c4bb1441b297a", "asm": "30450221009c7e20fb2037fd08e6eddcb8af21fe27d95dd127d7e85501ea4ccf613637f36002202c3231ab8cd2a6777f5c6b45b6e0f2f981bc79ff0cde74b7f8aefd60a5935848[ALL] 030e357e8224bf7fda326707a3ea8b58984e49fa409d06f14b962c4bb1441b297a"}, "vout": 1, "txid": "cd571087007e06461a6e53a5261d09e78db3f43a560caeeb4ffae864c545cc5a"}, {"sequence": 4294967294, "scriptSig": {"hex": "473044022044a9fe149df2bd2357526f758e34a6be7d820d007a30849ccb4ee85cc2aa749202201a4f7678575a14efb945e7e7714c06a4502d3413e0869292f2e86ad045f261a101210275bb4979125901dda7851465703094e11f9296576d1c40db7ac4226ede8ebaff", "asm": "3044022044a9fe149df2bd2357526f758e34a6be7d820d007a30849ccb4ee85cc2aa749202201a4f7678575a14efb945e7e7714c06a4502d3413e0869292f2e86ad045f261a1[ALL] 0275bb4979125901dda7851465703094e11f9296576d1c40db7ac4226ede8ebaff"}, "vout": 1, "txid": "73fca960a547a66799dcc785db5b4a57804a41cfe91df913f89a1e3aa18b295d"}, {"sequence": 4294967294, "scriptSig": {"hex": "4730440220475315c8aceedaedb6c311bb8d26658138bd94dee99152a2a1e8da048f783f9e022038254ccfbeef285c94f2f3a79ffc8846e44e64d09d12a8c1ae18e362f9de841801210330d11160081564d97578d78586305ce113744c8fd590a7777f47c633a15b842a", "asm": "30440220475315c8aceedaedb6c311bb8d26658138bd94dee99152a2a1e8da048f783f9e022038254ccfbeef285c94f2f3a79ffc8846e44e64d09d12a8c1ae18e362f9de8418[ALL] 0330d11160081564d97578d78586305ce113744c8fd590a7777f47c633a15b842a"}, "vout": 85, "txid": "9c45fdf9062ebb907ff4d7ed116128f464ca9990e879863e8b822d07810b505d"}, {"sequence": 4294967294, "scriptSig": {"hex": "483045022100d9917b44d43846fc4f3e583e444829cf9c3e7adfdbc7658fdc9669ffbfd031ff0220622d76f945191064d3bdff16e23ae880c44e3b69dc2e13da380a339c6cd8a5990121021f5a08a459622c28bf8d781e3bc437e9791cc2fe51c3ff81deda4e446a68ca8c", "asm": "3045022100d9917b44d43846fc4f3e583e444829cf9c3e7adfdbc7658fdc9669ffbfd031ff0220622d76f945191064d3bdff16e23ae880c44e3b69dc2e13da380a339c6cd8a599[ALL] 021f5a08a459622c28bf8d781e3bc437e9791cc2fe51c3ff81deda4e446a68ca8c"}, "vout": 9, "txid": "2b3d8358042de01ed0fe6f1d3da09fdef09a9760e386144fd6c61b10a1bdd46e"}, {"sequence": 4294967294, "scriptSig": {"hex": "47304402205fc88d6062716c70cb1fe91f7a738e4779654d2f702fb3ebc517085ac45c732302205b99357aac53b3b8292425e85dafd63a1ff306c90ac676fa279c710e02f7a30b012103eba1b64ef539762181e1ba3fca31feb15e8edc6ee4538074b6cdb60112888ec8", "asm": "304402205fc88d6062716c70cb1fe91f7a738e4779654d2f702fb3ebc517085ac45c732302205b99357aac53b3b8292425e85dafd63a1ff306c90ac676fa279c710e02f7a30b[ALL] 03eba1b64ef539762181e1ba3fca31feb15e8edc6ee4538074b6cdb60112888ec8"}, "vout": 0, "txid": "c22a12eccd40c3e35dfdb571bf8cb57c744f49d3fdf91d00089b9c6e50002375"}, {"sequence": 4294967294, "scriptSig": {"hex": "483045022100a6bd9f071da6b7ed1505752a15aac8ec1600c8c36484d23dece5624a62e940cf02202624ea2b0f16d6ad112231e088adc5e9e981182ff90a4c96a081ab3d3ec1e7b60121024678c5cd5c3222a96bfa02bf5beca3a6681fc42018f5001c33ff6a83df9d3924", "asm": "3045022100a6bd9f071da6b7ed1505752a15aac8ec1600c8c36484d23dece5624a62e940cf02202624ea2b0f16d6ad112231e088adc5e9e981182ff90a4c96a081ab3d3ec1e7b6[ALL] 024678c5cd5c3222a96bfa02bf5beca3a6681fc42018f5001c33ff6a83df9d3924"}, "vout": 1, "txid": "d811b7957216af6218da0996b03a44bd314785fd1f270e1ba4ac2eae51faa581"}, {"sequence": 4294967294, "scriptSig": {"hex": "473044022047b79af44d2997183dbef9965b709a275880aaf849b5266468e46719d23737880220497059bd050bd387bc6c30468f5fdbb737cb50f3d20cd0c1d2d10a75935de883012103cca74178a0597e7fb0a8ad0f0c75aab431819c4f77b58d82bbbc847adf48c5dc", "asm": "3044022047b79af44d2997183dbef9965b709a275880aaf849b5266468e46719d23737880220497059bd050bd387bc6c30468f5fdbb737cb50f3d20cd0c1d2d10a75935de883[ALL] 03cca74178a0597e7fb0a8ad0f0c75aab431819c4f77b58d82bbbc847adf48c5dc"}, "vout": 1, "txid": "af2009329f72aa478af0a090dff289120c627c51fbd3e087ab85683f3a493690"}, {"sequence": 4294967294, "scriptSig": {"hex": "483045022100dd67acf3a740609f29b28633ce81c58431be94dba7da17ad7077982c8986c87b022029f550173ee2c5399e0e5d4167651c00261b7ad56a3ff441d65554d263cf30d50121029510d2dc9b269e89e82f40bbdcbdd62d4d85f8c5492e73d309bb194fd0a2827d", "asm": "3045022100dd67acf3a740609f29b28633ce81c58431be94dba7da17ad7077982c8986c87b022029f550173ee2c5399e0e5d4167651c00261b7ad56a3ff441d65554d263cf30d5[ALL] 029510d2dc9b269e89e82f40bbdcbdd62d4d85f8c5492e73d309bb194fd0a2827d"}, "vout": 219, "txid": "8b978b86570104486168a7d4c7b18e729faf5484437c00312f9f28c89759f09c"}, {"sequence": 4294967294, "scriptSig": {"hex": "47304402201c5748ab0f0b8e8dd2337136de24a4482875aa7925301db2bc60f837a6a8a80402206b7903feb7c40e100d3c7316c4f6afdd392a2a6955092da78302e222fcfa0e2e012103997a4e827f8494665519fb4fca438550a300eb15ce8f00d9c11958016cb11e08", "asm": "304402201c5748ab0f0b8e8dd2337136de24a4482875aa7925301db2bc60f837a6a8a80402206b7903feb7c40e100d3c7316c4f6afdd392a2a6955092da78302e222fcfa0e2e[ALL] 03997a4e827f8494665519fb4fca438550a300eb15ce8f00d9c11958016cb11e08"}, "vout": 31, "txid": "6951c065322050c3d5d4a323217504a6ed6847525ea2b66a7d098f6171e8ffc0"}, {"sequence": 4294967294, "scriptSig": {"hex": "47304402204fdf37ec8962fde5f7ade6c5f1d2f2a2780cc858b6b8593810f1eb07479a93f50220649356a1a74b9e3ab7faff1f875e98d7c7cb4a2fdd9a02950e9b9026fba1cdaf0121032a7ba14784e4d695afd44d2d2b4cb1d1801f1342a88f9a8b876bd8fa404c203a", "asm": "304402204fdf37ec8962fde5f7ade6c5f1d2f2a2780cc858b6b8593810f1eb07479a93f50220649356a1a74b9e3ab7faff1f875e98d7c7cb4a2fdd9a02950e9b9026fba1cdaf[ALL] 032a7ba14784e4d695afd44d2d2b4cb1d1801f1342a88f9a8b876bd8fa404c203a"}, "vout": 261, "txid": "6951c065322050c3d5d4a323217504a6ed6847525ea2b66a7d098f6171e8ffc0"}, {"sequence": 4294967294, "scriptSig": {"hex": "473044022035197cd50b4126fb27e37707788707dcad64685c06257df652c8b6c9ec33226c02202245624b61f174e938f9b3815f7b8e1010c069fb1c1d3090c1acf9162e859be40121032a14b9a0307ea71e783dfe5934e494b2473277ff3528a5fdffba868ff8581982", "asm": "3044022035197cd50b4126fb27e37707788707dcad64685c06257df652c8b6c9ec33226c02202245624b61f174e938f9b3815f7b8e1010c069fb1c1d3090c1acf9162e859be4[ALL] 032a14b9a0307ea71e783dfe5934e494b2473277ff3528a5fdffba868ff8581982"}, "vout": 0, "txid": "6471bb49ec3e33ef9d2f5febcba60f5d0a5dac7d4f67e17c9c74aadfaff9b4c7"}, {"sequence": 4294967294, "scriptSig": {"hex": "47304402204a9c4ff3b582dde974ce75c7c280df6a3b68b4a947ace560c4dd8e8fd7aa649a022057daca3707f1703e2ec5be33f66f89ad75ff323e778ea0207e22455743391cfd0121031a6ae277f3d1fa87b33e95b2740ecdc2fdba19f1beaa1390e72c6ef536b649e7", "asm": "304402204a9c4ff3b582dde974ce75c7c280df6a3b68b4a947ace560c4dd8e8fd7aa649a022057daca3707f1703e2ec5be33f66f89ad75ff323e778ea0207e22455743391cfd[ALL] 031a6ae277f3d1fa87b33e95b2740ecdc2fdba19f1beaa1390e72c6ef536b649e7"}, "vout": 15, "txid": "7004a270aa9f67370eb88c4aef6d10d45a1eb5b81f5b350f081f49170a60b2d1"}, {"sequence": 4294967294, "scriptSig": {"hex": "4730440220434ca9c2ce1b3408277406cad6f439f3a0e563bdbd80e7c765775a53e0a1fc0b02201f962152eda47a71d954d19d3b04950e3c29191c198c8e67c6ee044478e9fb4e012102bcef8cf17ea940fb458dded9b3668ac41a02cdb08aeff361dd327e85f7c8c99b", "asm": "30440220434ca9c2ce1b3408277406cad6f439f3a0e563bdbd80e7c765775a53e0a1fc0b02201f962152eda47a71d954d19d3b04950e3c29191c198c8e67c6ee044478e9fb4e[ALL] 02bcef8cf17ea940fb458dded9b3668ac41a02cdb08aeff361dd327e85f7c8c99b"}, "vout": 58, "txid": "7004a270aa9f67370eb88c4aef6d10d45a1eb5b81f5b350f081f49170a60b2d1"}, {"sequence": 4294967294, "scriptSig": {"hex": "483045022100b65b1bd7cf66ccdafb268d34047b2f2484a120266f81444cb0a943c19d0e393202201937b287cb62c92c5c79ab5b206f1df7b24c33c13ae24ec64e149df559d71a790121035bf4a67d0f6ec5e456f8eae8685b478c46a4f4aaf8d6103d608061b9d398d70b", "asm": "3045022100b65b1bd7cf66ccdafb268d34047b2f2484a120266f81444cb0a943c19d0e393202201937b287cb62c92c5c79ab5b206f1df7b24c33c13ae24ec64e149df559d71a79[ALL] 035bf4a67d0f6ec5e456f8eae8685b478c46a4f4aaf8d6103d608061b9d398d70b"}, "vout": 63, "txid": "7004a270aa9f67370eb88c4aef6d10d45a1eb5b81f5b350f081f49170a60b2d1"}, {"sequence": 4294967294, "scriptSig": {"hex": "473044022026d7a613bdaad3df02b1b9792a219e2cea19d13da87080039cef18ad4274822b02202691079691b85a89827087dcc84ed075b27f06235764abe983de3793a1e8b23501210289f54be6f609832acba4cb21793be24d40d979ccf2cc47d5f0ace48433e6f4e5", "asm": "3044022026d7a613bdaad3df02b1b9792a219e2cea19d13da87080039cef18ad4274822b02202691079691b85a89827087dcc84ed075b27f06235764abe983de3793a1e8b235[ALL] 0289f54be6f609832acba4cb21793be24d40d979ccf2cc47d5f0ace48433e6f4e5"}, "vout": 10, "txid": "f6f033cc27f31bb46ac9f83496cdc498d8d67baf5f910abd87faa1b393bf24ed"}, {"sequence": 4294967294, "scriptSig": {"hex": "47304402201ad2096d75cca0dd004b5d09770784d0e92b54cba9885577f810ebb6065be21602204137acaf62acbad0e06490e92b3d1a1200ed9bc05df7222114bbbc98c94e921601210236e48b4e6819f1926838d2299e1bf37cc588740768a95d662b01f2b183365e8b", "asm": "304402201ad2096d75cca0dd004b5d09770784d0e92b54cba9885577f810ebb6065be21602204137acaf62acbad0e06490e92b3d1a1200ed9bc05df7222114bbbc98c94e9216[ALL] 0236e48b4e6819f1926838d2299e1bf37cc588740768a95d662b01f2b183365e8b"}, "vout": 32, "txid": "f6f033cc27f31bb46ac9f83496cdc498d8d67baf5f910abd87faa1b393bf24ed"}], "txid": "f9044df2732cd625a3f7c504a2bec3a9b8ef254468f3e9b8e97636c7254fa33b", "blocktime": 1537870564, "version": 2, "confirmations": 11515, "time": 1537870564, "locktime": 542989, "vsize": 3467, "size": 3467}