{"hash": "54a9404cae9c0c917b055b93fc17608d4e9e7cd9b90578b3f16a798b4e402401", "blockhash": "00000000000000000024a2167bbff67b0be802c0b01cdd79e6331c2be6459f87", "vout": [{"scriptPubKey": {"reqSigs": 1, "hex": "a914cc04c61bcce6db127240839a983014ccb9c3e36887", "addresses": ["3LHmVNTuqZuGmGQ35q1tkQL4k13GqCtHGj"], "asm": "OP_HASH160 cc04c61bcce6db127240839a983014ccb9c3e368 OP_EQUAL", "type": "scripthash"}, "value": 0.005, "n": 0}, {"scriptPubKey": {"reqSigs": 1, "hex": "0014392d6a54d403bfecfede7439d9300f32e573e1f9", "addresses": ["bc1q8ykk54x5qwl7elk7wsuajvq0xtjh8c0e82nd2f"], "asm": "0 392d6a54d403bfecfede7439d9300f32e573e1f9", "type": "witness_v0_keyhash"}, "value": 0.0011942, "n": 1}], "hex": "0100000000010188484d26d528fa6520542b41404fa6cf6ae058da1ee40cd58f753212e787aa260200000017160014c50518bd30a014ad342bea9a3ef2dd983ce040d4ffffffff0220a107000000000017a914cc04c61bcce6db127240839a983014ccb9c3e368877cd2010000000000160014392d6a54d403bfecfede7439d9300f32e573e1f902483045022100f9b904190bae7559c0139c3ec064ae90df77b2b6cacf6f60175d67ea6a3557ac02200c9e7c2a9a8adae510c90fb43d43e3351f8ee3573f43343fbe2334a2ba045b5a012103ac3402f64a4ac1419d8a632e000545001f2dc7281c2ed5adee1db6665276d56500000000", "vin": [{"txinwitness": ["3045022100f9b904190bae7559c0139c3ec064ae90df77b2b6cacf6f60175d67ea6a3557ac02200c9e7c2a9a8adae510c90fb43d43e3351f8ee3573f43343fbe2334a2ba045b5a01", "03ac3402f64a4ac1419d8a632e000545001f2dc7281c2ed5adee1db6665276d565"], "sequence": 4294967295, "scriptSig": {"hex": "160014c50518bd30a014ad342bea9a3ef2dd983ce040d4", "asm": "0014c50518bd30a014ad342bea9a3ef2dd983ce040d4"}, "vout": 2, "txid": "26aa87e71232758fd50ce41eda58e06acfa64f40412b542065fa28d5264d4888"}], "txid": "f904feed6fb55e61d67f2fdf1fcf8a1f91c503d3c0392e02ae27b1e59ed75353", "blocktime": 1537870564, "version": 1, "confirmations": 11515, "time": 1537870564, "locktime": 0, "vsize": 165, "size": 247}