{"hash": "f9069eabca73b87c9b335b7c0ae2ee6d439de4e18a84745f9446217b145172bf", "blockhash": "0000000000000000000e13cef7c366c0283d82e591d1acd082e914b08063cdf1", "vout": [{"scriptPubKey": {"reqSigs": 1, "hex": "a914eb6bf7f7461b60580156ab90a2761677cdcc30f587", "addresses": ["3P9p4R22pUWmJyVB6E5GwGThQhYhezdPn8"], "asm": "OP_HASH160 eb6bf7f7461b60580156ab90a2761677cdcc30f5 OP_EQUAL", "type": "scripthash"}, "value": 0.1587133, "n": 0}], "hex": "0100000004c6760dd46a29fec0e6548be9879d69eb963c9d3bd153fc5d59e72586eeb74d36000000006a47304402201ea67b6389b3b43e15d2cf40f5bd9953d37243252c739cc04f054e14743e554602206b6a51f9c5e6c87fcb4537735db24618781ab7907f588f9ab53a683a3bd6560b0121020e6202aa7a4c5f9d129c2d4860bb3e24405b8252d5e168bbf38262ee3c26c8bcffffffff19fb1cc03a0915d76f5adfc27b1cd867c57707e39268beb96153acd5cf5b5f72010000006b483045022100d77b4699d073621e1f39f80477695607f035d0256f4c30cb3c3153f22a48ee470220138dd99107393522c2ad54fbaea0af3b7abe40a0df14984985bcaac9465d6207012103dd23b1d7217ff9c341cfa0a6b3df4f97a1980c241b3f9ed23a8a1adfb639eedeffffffff3433715d8fd644f9819037a5a1dd46a081ccb2e2a8d0be165cd5685ca6ae5197010000006b4830450221008697f78c801c7a6822a33daea2418750d460af98fd15575e9fbedf57495602bd0220025a87c693b9a657ab05aabada66e9e0d3f30de5eedf31adaa4ea13a2cb3303701210383c42676ad601af9ace7a12bf94d08a6277707dd1fa8b0753dc7ccd5e1dc9881ffffffff0b996517480d3f30bc39938bad374966190b3712b2a66e12711213e9d4b3baa4010000006b483045022100b1c03677d39780e83ae059d4ad5f33b9364c0800995c1c3c69f1a9376c4bdcad02200dddef0b62f97548e8327fab963cda747c934750972d0fbb4ba748f4fc07cdd30121035ddbea8f51a805e790cd79ced1572e146f029e90c84ff96807a0cea69876f23bffffffff01622df2000000000017a914eb6bf7f7461b60580156ab90a2761677cdcc30f58700000000", "vin": [{"sequence": 4294967295, "scriptSig": {"hex": "47304402201ea67b6389b3b43e15d2cf40f5bd9953d37243252c739cc04f054e14743e554602206b6a51f9c5e6c87fcb4537735db24618781ab7907f588f9ab53a683a3bd6560b0121020e6202aa7a4c5f9d129c2d4860bb3e24405b8252d5e168bbf38262ee3c26c8bc", "asm": "304402201ea67b6389b3b43e15d2cf40f5bd9953d37243252c739cc04f054e14743e554602206b6a51f9c5e6c87fcb4537735db24618781ab7907f588f9ab53a683a3bd6560b[ALL] 020e6202aa7a4c5f9d129c2d4860bb3e24405b8252d5e168bbf38262ee3c26c8bc"}, "vout": 0, "txid": "364db7ee8625e7595dfc53d13b9d3c96eb699d87e98b54e6c0fe296ad40d76c6"}, {"sequence": 4294967295, "scriptSig": {"hex": "483045022100d77b4699d073621e1f39f80477695607f035d0256f4c30cb3c3153f22a48ee470220138dd99107393522c2ad54fbaea0af3b7abe40a0df14984985bcaac9465d6207012103dd23b1d7217ff9c341cfa0a6b3df4f97a1980c241b3f9ed23a8a1adfb639eede", "asm": "3045022100d77b4699d073621e1f39f80477695607f035d0256f4c30cb3c3153f22a48ee470220138dd99107393522c2ad54fbaea0af3b7abe40a0df14984985bcaac9465d6207[ALL] 03dd23b1d7217ff9c341cfa0a6b3df4f97a1980c241b3f9ed23a8a1adfb639eede"}, "vout": 1, "txid": "725f5bcfd5ac5361b9be6892e30777c567d81c7bc2df5a6fd715093ac01cfb19"}, {"sequence": 4294967295, "scriptSig": {"hex": "4830450221008697f78c801c7a6822a33daea2418750d460af98fd15575e9fbedf57495602bd0220025a87c693b9a657ab05aabada66e9e0d3f30de5eedf31adaa4ea13a2cb3303701210383c42676ad601af9ace7a12bf94d08a6277707dd1fa8b0753dc7ccd5e1dc9881", "asm": "30450221008697f78c801c7a6822a33daea2418750d460af98fd15575e9fbedf57495602bd0220025a87c693b9a657ab05aabada66e9e0d3f30de5eedf31adaa4ea13a2cb33037[ALL] 0383c42676ad601af9ace7a12bf94d08a6277707dd1fa8b0753dc7ccd5e1dc9881"}, "vout": 1, "txid": "9751aea65c68d55c16bed0a8e2b2cc81a046dda1a5379081f944d68f5d713334"}, {"sequence": 4294967295, "scriptSig": {"hex": "483045022100b1c03677d39780e83ae059d4ad5f33b9364c0800995c1c3c69f1a9376c4bdcad02200dddef0b62f97548e8327fab963cda747c934750972d0fbb4ba748f4fc07cdd30121035ddbea8f51a805e790cd79ced1572e146f029e90c84ff96807a0cea69876f23b", "asm": "3045022100b1c03677d39780e83ae059d4ad5f33b9364c0800995c1c3c69f1a9376c4bdcad02200dddef0b62f97548e8327fab963cda747c934750972d0fbb4ba748f4fc07cdd3[ALL] 035ddbea8f51a805e790cd79ced1572e146f029e90c84ff96807a0cea69876f23b"}, "vout": 1, "txid": "a4bab3d4e9131271126ea6b212370b19664937ad8b9339bc303f0d481765990b"}], "txid": "f9069eabca73b87c9b335b7c0ae2ee6d439de4e18a84745f9446217b145172bf", "blocktime": 1537871767, "version": 1, "confirmations": 11491, "time": 1537871767, "locktime": 0, "vsize": 633, "size": 633}