{"hash": "2c18a10523e7e7738148a4ac4e2dc6f3c6c77cc48d8edbad2350a33b7ed4ab29", "blockhash": "00000000000000000017f5eb5941039fbcee6240d03bc1f2f8e35350df66a1d8", "vout": [{"scriptPubKey": {"reqSigs": 1, "hex": "76a914ed8151bf5c944438fde924bc6dd6649dcd9fdb2188ac", "addresses": ["1Nep4jEP9QBB3duyS6TLDje5sMAtGsm1vS"], "asm": "OP_DUP OP_HASH160 ed8151bf5c944438fde924bc6dd6649dcd9fdb21 OP_EQUALVERIFY OP_CHECKSIG", "type": "pubkeyhash"}, "value": 0.00970013, "n": 0}, {"scriptPubKey": {"reqSigs": 1, "hex": "a914cfaabfe8c271f99a4364b5197ba50c6cddb7adb987", "addresses": ["3Ld4M9RPwEG3VeQbHcC1PsKUndQL7VYLZP"], "asm": "OP_HASH160 cfaabfe8c271f99a4364b5197ba50c6cddb7adb9 OP_EQUAL", "type": "scripthash"}, "value": 0.93286883, "n": 1}], "hex": "010000000001010532391706927eaeed072252eebf7965de46fe9c361958b93c8e851fac3a4f3501000000232200202f7b4024602241b47d3306a6733d9889e4b6761d9f1cb82a18aa8b9ac4506e51ffffffff021dcd0e00000000001976a914ed8151bf5c944438fde924bc6dd6649dcd9fdb2188ace3718f050000000017a914cfaabfe8c271f99a4364b5197ba50c6cddb7adb9870400483045022100cd54d4d533ffcbf218fe14001f4904bd599439c4b357a3dc7552bffe3ce3f8530220307cab500902808ddecc9de01c3008f2b0dcf71762321388140e724b3167f30b0147304402200881d8491aa69d2ae727bf229ab6ffe2c2f24256c63be79081567490511485170220192a7a7a4545580e48b014c672f8abfcc38fa1212e895b74ab0b96557f3d279b0147522102973cd851fecff3a20f08377b072729f303801eee1b7678668338adcaec770ec221033e4af03ed09dbd8a417ba042650d5bd1db7f14f271a8f660974e3abf1fdfa4da52ae00000000", "vin": [{"txinwitness": ["", "3045022100cd54d4d533ffcbf218fe14001f4904bd599439c4b357a3dc7552bffe3ce3f8530220307cab500902808ddecc9de01c3008f2b0dcf71762321388140e724b3167f30b01", "304402200881d8491aa69d2ae727bf229ab6ffe2c2f24256c63be79081567490511485170220192a7a7a4545580e48b014c672f8abfcc38fa1212e895b74ab0b96557f3d279b01", "522102973cd851fecff3a20f08377b072729f303801eee1b7678668338adcaec770ec221033e4af03ed09dbd8a417ba042650d5bd1db7f14f271a8f660974e3abf1fdfa4da52ae"], "sequence": 4294967295, "scriptSig": {"hex": "2200202f7b4024602241b47d3306a6733d9889e4b6761d9f1cb82a18aa8b9ac4506e51", "asm": "00202f7b4024602241b47d3306a6733d9889e4b6761d9f1cb82a18aa8b9ac4506e51"}, "vout": 1, "txid": "354f3aac1f858e3cb95819369cfe46de6579bfee522207edae7e920617393205"}], "txid": "f908c3c3369ad2ad9bb552155190c0f6734c95cebcff375e3b7c1c6652781e53", "blocktime": 1537874412, "version": 1, "confirmations": 11468, "time": 1537874412, "locktime": 0, "vsize": 208, "size": 373}