{"hash": "f908eb72ced459fdb636f06c77546a8605bd0c86cc530449ded3d5d4d5c76d98", "blockhash": "0000000000000000001f76057863aec43deb6fa401d9628bb513d65a8098bfab", "vout": [{"scriptPubKey": {"reqSigs": 1, "hex": "76a9148244f349e83b549a856c892136122bdc219358ad88ac", "addresses": ["1CsoSh8wb2xfGfqh5byN3fRJzxM1wFuwTr"], "asm": "OP_DUP OP_HASH160 8244f349e83b549a856c892136122bdc219358ad OP_EQUALVERIFY OP_CHECKSIG", "type": "pubkeyhash"}, "value": 0.06367288, "n": 0}, {"scriptPubKey": {"reqSigs": 1, "hex": "76a914b441eb6d6d7ee4ffd942169d3a0670d18cf8283388ac", "addresses": ["1HS7bhxqVxKjyhywiwQpky5fav3ANc6qJn"], "asm": "OP_DUP OP_HASH160 b441eb6d6d7ee4ffd942169d3a0670d18cf82833 OP_EQUALVERIFY OP_CHECKSIG", "type": "pubkeyhash"}, "value": 0.1133, "n": 1}], "hex": "0100000001a1a33da58726037edf2fae07bd1af3387ea232fd00e553f12ea4edcc58e5c572010000006b48304502210098169241d30777ed48016174c2054fb8ab27bef50cbb89346658deb6610861da022010ed3be8b5c15290d64397a7a986487b4e16b82e6932720d91a4899313c9fa8201210287fff69bf6b53a4f5034afb482155ca618fa6e0293f6587592c02f569121ad60ffffffff0238286100000000001976a9148244f349e83b549a856c892136122bdc219358ad88acd0e1ac00000000001976a914b441eb6d6d7ee4ffd942169d3a0670d18cf8283388ac00000000", "vin": [{"sequence": 4294967295, "scriptSig": {"hex": "48304502210098169241d30777ed48016174c2054fb8ab27bef50cbb89346658deb6610861da022010ed3be8b5c15290d64397a7a986487b4e16b82e6932720d91a4899313c9fa8201210287fff69bf6b53a4f5034afb482155ca618fa6e0293f6587592c02f569121ad60", "asm": "304502210098169241d30777ed48016174c2054fb8ab27bef50cbb89346658deb6610861da022010ed3be8b5c15290d64397a7a986487b4e16b82e6932720d91a4899313c9fa82[ALL] 0287fff69bf6b53a4f5034afb482155ca618fa6e0293f6587592c02f569121ad60"}, "vout": 1, "txid": "72c5e558cceda42ef153e500fd32a27e38f31abd07ae2fdf7e032687a53da3a1"}], "txid": "f908eb72ced459fdb636f06c77546a8605bd0c86cc530449ded3d5d4d5c76d98", "blocktime": 1537873891, "version": 1, "confirmations": 11478, "time": 1537873891, "locktime": 0, "vsize": 226, "size": 226}