{"hash": "f90b55b50645a8f324e1fe39c1359b3fdf3586b8ecb1abf345f6279577899ac4", "blockhash": "0000000000000000000baef3f32e3676a92c3b2e5da21b426e4f302fc371ce76", "vout": [{"scriptPubKey": {"reqSigs": 1, "hex": "76a914defe49b4c8a9719b5848ea51bb3d983f608b63f288ac", "addresses": ["1ML5dpatNix1acosWqtHJz7vtLPu6BmScC"], "asm": "OP_DUP OP_HASH160 defe49b4c8a9719b5848ea51bb3d983f608b63f2 OP_EQUALVERIFY OP_CHECKSIG", "type": "pubkeyhash"}, "value": 0.02988574, "n": 0}, {"scriptPubKey": {"reqSigs": 1, "hex": "76a914dd61e5b69e423967f584ac5cb5150fb186b44f6788ac", "addresses": ["1MBZcRKtt5grSMQqizJu7fAnnkPzzc1GtT"], "asm": "OP_DUP OP_HASH160 dd61e5b69e423967f584ac5cb5150fb186b44f67 OP_EQUALVERIFY OP_CHECKSIG", "type": "pubkeyhash"}, "value": 3.09686937, "n": 1}], "hex": "010000000186cf99d80cb3f61197549f1d56e7ea4af4bb4de33b95a90d39970d1079f57d59000000006b483045022100bcfb71fc2c88eb5f3c32b6b877d922a4767c2c00102c05325e6213d47f236d60022015e8d757e8c4c8b7e04ca28964888ed004b144c683e3ca61cdf8687c07a5e5df01210241f57e839223cce28c40a461593e7e715a309883d5a932582e99074ad1964e15ffffffff021e9a2d00000000001976a914defe49b4c8a9719b5848ea51bb3d983f608b63f288ac99727512000000001976a914dd61e5b69e423967f584ac5cb5150fb186b44f6788ac00000000", "vin": [{"sequence": 4294967295, "scriptSig": {"hex": "483045022100bcfb71fc2c88eb5f3c32b6b877d922a4767c2c00102c05325e6213d47f236d60022015e8d757e8c4c8b7e04ca28964888ed004b144c683e3ca61cdf8687c07a5e5df01210241f57e839223cce28c40a461593e7e715a309883d5a932582e99074ad1964e15", "asm": "3045022100bcfb71fc2c88eb5f3c32b6b877d922a4767c2c00102c05325e6213d47f236d60022015e8d757e8c4c8b7e04ca28964888ed004b144c683e3ca61cdf8687c07a5e5df[ALL] 0241f57e839223cce28c40a461593e7e715a309883d5a932582e99074ad1964e15"}, "vout": 0, "txid": "597df579100d97390da9953be34dbbf44aeae7561d9f549711f6b30cd899cf86"}], "txid": "f90b55b50645a8f324e1fe39c1359b3fdf3586b8ecb1abf345f6279577899ac4", "blocktime": 1537876114, "version": 1, "confirmations": 11459, "time": 1537876114, "locktime": 0, "vsize": 226, "size": 226}