{"hash": "f90cadd5e1c71bceea3ec564566f2ad20449fdddd940dca246ea4b8965970069", "blockhash": "0000000000000000001e0dab787dd257d1dbfcb92a98c2207d5e1078be1f4165", "vout": [{"scriptPubKey": {"reqSigs": 1, "hex": "76a914740c150fc4d5aac3fcd11841b90cb3677ddd50f888ac", "addresses": ["1Babrk7SnaScbHHS61KwpZLh8duEeopXop"], "asm": "OP_DUP OP_HASH160 740c150fc4d5aac3fcd11841b90cb3677ddd50f8 OP_EQUALVERIFY OP_CHECKSIG", "type": "pubkeyhash"}, "value": 0.00748282, "n": 0}, {"scriptPubKey": {"reqSigs": 1, "hex": "76a914429e1469a2841710f2a698cd0a270f5b9fcd12bf88ac", "addresses": ["175EyEYRgf97DR8EicvtoBKdVJZfcSN15C"], "asm": "OP_DUP OP_HASH160 429e1469a2841710f2a698cd0a270f5b9fcd12bf OP_EQUALVERIFY OP_CHECKSIG", "type": "pubkeyhash"}, "value": 0.06247969, "n": 1}], "hex": "0100000003304e3cf8fe73ab75c2a5a246b6fc317f9a30e8b8cd9e5fdada6e74f0f62adf2f010000006a473044022041b8d02f5b79380d5584f02a747efd04ac5c3653998f0ebb0ea5247bc92ea893022022538271cc4869889da72512293a7a76e922de529f3c56ec812b6d7869e74d62012102108668ef8eed311c60e3fb25489978edfef93ded0ef1dd51eccf673b950e6348ffffffff96fa4458de5fb8686dbc028ec0d46c68b7159f5d92be277b1445625c9fda21b5010000006a47304402200166fd14830f319cdd0c2108f1c72e4534b7a551f817d8a71ed6d7a9c25ca55702201e652ae1852563f436951a49f7651587f0d6c4846f66c8c14f2e759ef8ca65ed012102a5793b78d53e98fa70501bccc2473a21fcc21b56d7feb20260b9aa20d40b1733ffffffffbecae63568ce71ae452fb6037b679157b7b6aac7cff3737cc33ea3db822a5cd2000000006b4830450221008f983312cfa3e42fde25f22181849e8ea39eb63be793b25163e8140a5fce9615022056ffdf363561175969e4cd62b653aad4a6d15f3d11d77ae506a1762897144c49012103a526377e84d6db6120f671881414353502403bcef522c156f9f46ee90dc1e33fffffffff02fa6a0b00000000001976a914740c150fc4d5aac3fcd11841b90cb3677ddd50f888ac21565f00000000001976a914429e1469a2841710f2a698cd0a270f5b9fcd12bf88ac00000000", "vin": [{"sequence": 4294967295, "scriptSig": {"hex": "473044022041b8d02f5b79380d5584f02a747efd04ac5c3653998f0ebb0ea5247bc92ea893022022538271cc4869889da72512293a7a76e922de529f3c56ec812b6d7869e74d62012102108668ef8eed311c60e3fb25489978edfef93ded0ef1dd51eccf673b950e6348", "asm": "3044022041b8d02f5b79380d5584f02a747efd04ac5c3653998f0ebb0ea5247bc92ea893022022538271cc4869889da72512293a7a76e922de529f3c56ec812b6d7869e74d62[ALL] 02108668ef8eed311c60e3fb25489978edfef93ded0ef1dd51eccf673b950e6348"}, "vout": 1, "txid": "2fdf2af6f0746edada5f9ecdb8e8309a7f31fcb646a2a5c275ab73fef83c4e30"}, {"sequence": 4294967295, "scriptSig": {"hex": "47304402200166fd14830f319cdd0c2108f1c72e4534b7a551f817d8a71ed6d7a9c25ca55702201e652ae1852563f436951a49f7651587f0d6c4846f66c8c14f2e759ef8ca65ed012102a5793b78d53e98fa70501bccc2473a21fcc21b56d7feb20260b9aa20d40b1733", "asm": "304402200166fd14830f319cdd0c2108f1c72e4534b7a551f817d8a71ed6d7a9c25ca55702201e652ae1852563f436951a49f7651587f0d6c4846f66c8c14f2e759ef8ca65ed[ALL] 02a5793b78d53e98fa70501bccc2473a21fcc21b56d7feb20260b9aa20d40b1733"}, "vout": 1, "txid": "b521da9f5c6245147b27be925d9f15b7686cd4c08e02bc6d68b85fde5844fa96"}, {"sequence": 4294967295, "scriptSig": {"hex": "4830450221008f983312cfa3e42fde25f22181849e8ea39eb63be793b25163e8140a5fce9615022056ffdf363561175969e4cd62b653aad4a6d15f3d11d77ae506a1762897144c49012103a526377e84d6db6120f671881414353502403bcef522c156f9f46ee90dc1e33f", "asm": "30450221008f983312cfa3e42fde25f22181849e8ea39eb63be793b25163e8140a5fce9615022056ffdf363561175969e4cd62b653aad4a6d15f3d11d77ae506a1762897144c49[ALL] 03a526377e84d6db6120f671881414353502403bcef522c156f9f46ee90dc1e33f"}, "vout": 0, "txid": "d25c2a82dba33ec37c73f3cfc7aab6b75791677b03b62f45ae71ce6835e6cabe"}], "txid": "f90cadd5e1c71bceea3ec564566f2ad20449fdddd940dca246ea4b8965970069", "blocktime": 1537872475, "version": 1, "confirmations": 11487, "time": 1537872475, "locktime": 0, "vsize": 520, "size": 520}