{"hash": "f910685a23b1529237b8fca4611e15432e643cec75eb0722893fc72d5f17cc6f", "blockhash": "00000000000000000017f5eb5941039fbcee6240d03bc1f2f8e35350df66a1d8", "vout": [{"scriptPubKey": {"reqSigs": 1, "hex": "a914a90ab9920b03709e2537e86463266ff28125b0de87", "addresses": ["3H6py9956SxmmC5eiq5XBAWReqofSM4b5Y"], "asm": "OP_HASH160 a90ab9920b03709e2537e86463266ff28125b0de OP_EQUAL", "type": "scripthash"}, "value": 0.00390875, "n": 0}, {"scriptPubKey": {"reqSigs": 1, "hex": "76a914c47d969829675c35fec67b73e8b8a69c8361da4488ac", "addresses": ["1JuwtdC89DQXXbBpZwbJ8dBAdqXx2usLsp"], "asm": "OP_DUP OP_HASH160 c47d969829675c35fec67b73e8b8a69c8361da44 OP_EQUALVERIFY OP_CHECKSIG", "type": "pubkeyhash"}, "value": 0.0081249, "n": 1}], "hex": "01000000019d8ba35c7bc2c99f5d0de22c5e5bd9e67774f948a3c93dd649511aa7c7a791e3010000006b4830450221009ca0aaf591a3c76a457241d0ddc2b146031d08bcb94669f1bde25a84c5f90720022023ee837418e8c26cda1e55088c78e85e0574ba49d009bf1e290d492f25348a56012102d8681ab48c9c84d764f125cb91ee6133865766be1f12ebbcd4bc39b144c499d8ffffffff02dbf605000000000017a914a90ab9920b03709e2537e86463266ff28125b0de87ca650c00000000001976a914c47d969829675c35fec67b73e8b8a69c8361da4488ac00000000", "vin": [{"sequence": 4294967295, "scriptSig": {"hex": "4830450221009ca0aaf591a3c76a457241d0ddc2b146031d08bcb94669f1bde25a84c5f90720022023ee837418e8c26cda1e55088c78e85e0574ba49d009bf1e290d492f25348a56012102d8681ab48c9c84d764f125cb91ee6133865766be1f12ebbcd4bc39b144c499d8", "asm": "30450221009ca0aaf591a3c76a457241d0ddc2b146031d08bcb94669f1bde25a84c5f90720022023ee837418e8c26cda1e55088c78e85e0574ba49d009bf1e290d492f25348a56[ALL] 02d8681ab48c9c84d764f125cb91ee6133865766be1f12ebbcd4bc39b144c499d8"}, "vout": 1, "txid": "e391a7c7a71a5149d63dc9a348f97477e6d95b5e2ce20d5d9fc9c27b5ca38b9d"}], "txid": "f910685a23b1529237b8fca4611e15432e643cec75eb0722893fc72d5f17cc6f", "blocktime": 1537874412, "version": 1, "confirmations": 11467, "time": 1537874412, "locktime": 0, "vsize": 224, "size": 224}