{"hash": "f9146d9b13e80b05a8917f08fa4ff85cb38fdfad88792b74da784814fd468934", "blockhash": "0000000000000000001e0dab787dd257d1dbfcb92a98c2207d5e1078be1f4165", "vout": [{"scriptPubKey": {"reqSigs": 1, "hex": "76a914c805ccb1a4a7cc14e821fb133d025d7f448e6f6b88ac", "addresses": ["1KEd6L3bRwva1up8brY5javN3Mx3oExuEk"], "asm": "OP_DUP OP_HASH160 c805ccb1a4a7cc14e821fb133d025d7f448e6f6b OP_EQUALVERIFY OP_CHECKSIG", "type": "pubkeyhash"}, "value": 0.009249, "n": 0}], "hex": "0100000002bede659d0dd0a522fa4fbd6131f88846c18c65d23d060b691e9c481768f146f2010000006a47304402204d6338f588d48642bdce42ddb8a8ddd8f1794c61cce5f8d7253b7b3b6d9b57430220248c6dc0aef7735a4d853e1733c995d402a6960de7b547b02024abcd61d08599012103853e7d725e7fc45970e839a39fb85822ff54b70e3144dd9654937cbf5e46f836ffffffff3270dcfea6a6f2cedab55dba11474ceb3399b3949666fd985e05eddf6cfe67fc010000006a473044022074b30305af96233a409f603c19685c0f04f7ea10a457910b8f89fec3c3da0440022039bd01c6c17e13e42b7e8a3291474249ce1245a64ea8492a09bb3e2db155c287012102eb5995fb12b3f6b8351c8e8bad88454652389bf8e6c75ed9d578d5503a015e4cffffffff01e41c0e00000000001976a914c805ccb1a4a7cc14e821fb133d025d7f448e6f6b88ac00000000", "vin": [{"sequence": 4294967295, "scriptSig": {"hex": "47304402204d6338f588d48642bdce42ddb8a8ddd8f1794c61cce5f8d7253b7b3b6d9b57430220248c6dc0aef7735a4d853e1733c995d402a6960de7b547b02024abcd61d08599012103853e7d725e7fc45970e839a39fb85822ff54b70e3144dd9654937cbf5e46f836", "asm": "304402204d6338f588d48642bdce42ddb8a8ddd8f1794c61cce5f8d7253b7b3b6d9b57430220248c6dc0aef7735a4d853e1733c995d402a6960de7b547b02024abcd61d08599[ALL] 03853e7d725e7fc45970e839a39fb85822ff54b70e3144dd9654937cbf5e46f836"}, "vout": 1, "txid": "f246f16817489c1e690b063dd2658cc14688f83161bd4ffa22a5d00d9d65debe"}, {"sequence": 4294967295, "scriptSig": {"hex": "473044022074b30305af96233a409f603c19685c0f04f7ea10a457910b8f89fec3c3da0440022039bd01c6c17e13e42b7e8a3291474249ce1245a64ea8492a09bb3e2db155c287012102eb5995fb12b3f6b8351c8e8bad88454652389bf8e6c75ed9d578d5503a015e4c", "asm": "3044022074b30305af96233a409f603c19685c0f04f7ea10a457910b8f89fec3c3da0440022039bd01c6c17e13e42b7e8a3291474249ce1245a64ea8492a09bb3e2db155c287[ALL] 02eb5995fb12b3f6b8351c8e8bad88454652389bf8e6c75ed9d578d5503a015e4c"}, "vout": 1, "txid": "fc67fe6cdfed055e98fd669694b39933eb4c4711ba5db5dacef2a6a6fedc7032"}], "txid": "f9146d9b13e80b05a8917f08fa4ff85cb38fdfad88792b74da784814fd468934", "blocktime": 1537872475, "version": 1, "confirmations": 11486, "time": 1537872475, "locktime": 0, "vsize": 338, "size": 338}