{"hash": "da805361426829c63bd91c91b7d89e1d0d8ebdbb7fcc2abec78b77cfef442b8e", "blockhash": "0000000000000000000e13cef7c366c0283d82e591d1acd082e914b08063cdf1", "vout": [{"scriptPubKey": {"reqSigs": 1, "hex": "a91449d7e96499e76d96ef877a2fcb98823c8bccba2187", "addresses": ["38RTuMXR3rjgmqC2TwiJHrCLzc9nbGoNw7"], "asm": "OP_HASH160 49d7e96499e76d96ef877a2fcb98823c8bccba21 OP_EQUAL", "type": "scripthash"}, "value": 5.48e-05, "n": 0}], "hex": "01000000000101c6e176bd308d484539295b655e1e50b47b2fd262282d9ab70822fc94948c8a1c00000000171600149bd40f2c098e71e8c9bba8d6fc0f7816ef174e92ffffffff01681500000000000017a91449d7e96499e76d96ef877a2fcb98823c8bccba2187024730440220171857df2039efefa9bde695672ff9735d69643e39a5aa0f7e4324802dad42820220205afcd4ce0b7fb8596d48630b578336bcc0622dac9128f606c7f2507386b032012103d6b971332ac42a95f71b2f144e9065c39f34dea62dbc8e0605c99a85797775cc00000000", "vin": [{"txinwitness": ["30440220171857df2039efefa9bde695672ff9735d69643e39a5aa0f7e4324802dad42820220205afcd4ce0b7fb8596d48630b578336bcc0622dac9128f606c7f2507386b03201", "03d6b971332ac42a95f71b2f144e9065c39f34dea62dbc8e0605c99a85797775cc"], "sequence": 4294967295, "scriptSig": {"hex": "1600149bd40f2c098e71e8c9bba8d6fc0f7816ef174e92", "asm": "00149bd40f2c098e71e8c9bba8d6fc0f7816ef174e92"}, "vout": 0, "txid": "1c8a8c9494fc2208b79a2d2862d22f7bb4501e5e655b293945488d30bd76e1c6"}], "txid": "f9142e292abf3ddd884c3e016f0a5d3ecb7b2753d2f260f6fbfa58ee8df93082", "blocktime": 1537871767, "version": 1, "confirmations": 11495, "time": 1537871767, "locktime": 0, "vsize": 134, "size": 215}