{"hash": "4fad4ab1e50e0a8425907396e37b2ca04e95249aede05aef0d2ec77a9efee1b7", "blockhash": "0000000000000000000dcc0f55137456b1a82d3642486a52398922ac4d620174", "vout": [{"scriptPubKey": {"reqSigs": 1, "hex": "0014175c2fd57f53664be0ebcefc4927678453e8af99", "addresses": ["bc1qzawzl4tl2dnyhc8tem7yjfm8s3f73tueexvz4f"], "asm": "0 175c2fd57f53664be0ebcefc4927678453e8af99", "type": "witness_v0_keyhash"}, "value": 0.01713192, "n": 0}, {"scriptPubKey": {"reqSigs": 1, "hex": "76a9144a4a0852e748d256daf3116448fbc7e56f08b79488ac", "addresses": ["17moh4ktkb1FMy1QAZwmjjyPzDcWACK1yN"], "asm": "OP_DUP OP_HASH160 4a4a0852e748d256daf3116448fbc7e56f08b794 OP_EQUALVERIFY OP_CHECKSIG", "type": "pubkeyhash"}, "value": 0.048861, "n": 1}], "hex": "010000000001016ddc82ffb6fc274a9cb03fb0bef89eae9d3d226245fd498062f7eccc9a8451310100000000ffffffff0228241a0000000000160014175c2fd57f53664be0ebcefc4927678453e8af99548e4a00000000001976a9144a4a0852e748d256daf3116448fbc7e56f08b79488ac02473044022067d772cf882159eca5d28c70fab2e84c4b096e7cb83f00c3e11f47596201c54e022067a31c6ea860cc9e53e3275dbf256343eff19b5e7f5dd051e89171e3d0ea54be01210233443a40a712c681c3df44244aa52427476bf2d6281d5309891883b543d7d00600000000", "vin": [{"txinwitness": ["3044022067d772cf882159eca5d28c70fab2e84c4b096e7cb83f00c3e11f47596201c54e022067a31c6ea860cc9e53e3275dbf256343eff19b5e7f5dd051e89171e3d0ea54be01", "0233443a40a712c681c3df44244aa52427476bf2d6281d5309891883b543d7d006"], "sequence": 4294967295, "scriptSig": {"hex": "", "asm": ""}, "vout": 1, "txid": "3151849accecf7628049fd4562223d9dae9ef8beb03fb09c4a27fcb6ff82dc6d"}], "txid": "f914723d8d93f5671837e2665a3fc7677182659eea1932c90edba41e55000d38", "blocktime": 1537870268, "version": 1, "confirmations": 11518, "time": 1537870268, "locktime": 0, "vsize": 144, "size": 225}