{"hash": "6976724ee55a4c1b654477a976813075897a1347d7cd904efdf6150b9e76d090", "blockhash": "000000000000000000022b45ed06c6f4ccd3cf7fb5ba4856ebd2e58215665228", "vout": [{"scriptPubKey": {"reqSigs": 1, "hex": "a91469dad98d8d99cc8c44e18548ea9f49e602541b1c87", "addresses": ["3BLj3dwfAYTmfy4whQTp361QjR4HxYJeqS"], "asm": "OP_HASH160 69dad98d8d99cc8c44e18548ea9f49e602541b1c OP_EQUAL", "type": "scripthash"}, "value": 0.01027924, "n": 0}, {"scriptPubKey": {"reqSigs": 1, "hex": "76a914e847d1a39f797caa2e72580d9cbdfbefaadf3efa88ac", "addresses": ["1NBBoa2rFXfSANt275EJhHgqAV1Tc5CQQ7"], "asm": "OP_DUP OP_HASH160 e847d1a39f797caa2e72580d9cbdfbefaadf3efa OP_EQUALVERIFY OP_CHECKSIG", "type": "pubkeyhash"}, "value": 0.0015586, "n": 1}], "hex": "0200000000010122c907fd2988d1c5ef057d84f8246772dd9f37b16d495c1fd1024af6af798e66000000001716001485822825b281293ce8ba3e0f529de4cb70a3fa6efeffffff0254af0f000000000017a91469dad98d8d99cc8c44e18548ea9f49e602541b1c87d4600200000000001976a914e847d1a39f797caa2e72580d9cbdfbefaadf3efa88ac02483045022100b4d2fe1375a9601c5f7930de33087d40b95dc3c58de661e033efb87722cdcb6402204eeb9715d2057cc241e87f6c845370de88f7cf22353f72bdc42311bb01f678f70121024f178c6fc81fd4e6b3bf46d250552c51802a5f2c7bd7d6f08734d8e4fcdfdf260b490800", "vin": [{"txinwitness": ["3045022100b4d2fe1375a9601c5f7930de33087d40b95dc3c58de661e033efb87722cdcb6402204eeb9715d2057cc241e87f6c845370de88f7cf22353f72bdc42311bb01f678f701", "024f178c6fc81fd4e6b3bf46d250552c51802a5f2c7bd7d6f08734d8e4fcdfdf26"], "sequence": 4294967294, "scriptSig": {"hex": "16001485822825b281293ce8ba3e0f529de4cb70a3fa6e", "asm": "001485822825b281293ce8ba3e0f529de4cb70a3fa6e"}, "vout": 0, "txid": "668e79aff64a02d11f5c496db1379fdd726724f8847d05efc5d18829fd07c922"}], "txid": "f91875b9ea07af2e682545e7f74a4e4d58dee96d578148f7acffbc62ad6302fb", "blocktime": 1537869901, "version": 2, "confirmations": 11522, "time": 1537869901, "locktime": 542987, "vsize": 168, "size": 250}