{"hash": "b85877945e69dd77c28ae07868d109b547f4dedebf1f51124ea9359d0456adca", "blockhash": "000000000000000000022b45ed06c6f4ccd3cf7fb5ba4856ebd2e58215665228", "vout": [{"scriptPubKey": {"reqSigs": 1, "hex": "a914d5bedd3758a9c05e003d6cdfa98313887f90ed7e87", "addresses": ["3MBCVsjhyWZJG5CcfSkg7C1d7djUiKoqhc"], "asm": "OP_HASH160 d5bedd3758a9c05e003d6cdfa98313887f90ed7e OP_EQUAL", "type": "scripthash"}, "value": 0.00463074, "n": 0}], "hex": "01000000000101afa00554c1e732c24a33800bbf8207032a65cdd86051b0cb827e585ba03b81a40000000017160014ff03f9c02880f96dc014624352abaf556cc88f29ffffffff01e21007000000000017a914d5bedd3758a9c05e003d6cdfa98313887f90ed7e87024830450221009e2984bb219963493cbeafbd3e271df0cb03c123557ad61743af22076eb128c102207feb8dd0b1c1540b25228b706ed218bca1c2c128fae54c65504c5e81ec2293f30121031aed2e575a2c74d1607e3fbbce12636ea537bb5c8e1196073092f39a1c15d37100000000", "vin": [{"txinwitness": ["30450221009e2984bb219963493cbeafbd3e271df0cb03c123557ad61743af22076eb128c102207feb8dd0b1c1540b25228b706ed218bca1c2c128fae54c65504c5e81ec2293f301", "031aed2e575a2c74d1607e3fbbce12636ea537bb5c8e1196073092f39a1c15d371"], "sequence": 4294967295, "scriptSig": {"hex": "160014ff03f9c02880f96dc014624352abaf556cc88f29", "asm": "0014ff03f9c02880f96dc014624352abaf556cc88f29"}, "vout": 0, "txid": "a4813ba05b587e82cbb05160d8cd652a030782bf0b80334ac232e7c15405a0af"}], "txid": "f9197a4d4d2e9995dc1f43821aff65fb40941619cc4413a97b22662b31a1978d", "blocktime": 1537869901, "version": 1, "confirmations": 11523, "time": 1537869901, "locktime": 0, "vsize": 134, "size": 216}