{"hash": "f91c92e4b292819861b5ceaa77cc3499bb11a7fb4442c4139dc185a038bd3ca5", "blockhash": "00000000000000000024a2167bbff67b0be802c0b01cdd79e6331c2be6459f87", "vout": [{"scriptPubKey": {"reqSigs": 1, "hex": "76a91497ba03e7b32d80c99f3550f816b796c1b249f98588ac", "addresses": ["1EqFsXuUEcjjvU1vefjnKBC9ckJvZotgqW"], "asm": "OP_DUP OP_HASH160 97ba03e7b32d80c99f3550f816b796c1b249f985 OP_EQUALVERIFY OP_CHECKSIG", "type": "pubkeyhash"}, "value": 0.02063133, "n": 0}], "hex": "0100000002560114eefc354caa8f618d1e6a1bb0fc7c4b6c7b60310c242dc7381c736f2d0def0000006b483045022100c51eb2336f4a48d974d5fa2e8a42a8f69a4261bd5f42ca12054b80312173708f02200ed159ae00b99918ba4923e7d40a1c4902c4facd0bb6bf525f1978306dc0b042012102ba72ee08b23783a9164423494dc2cbe782e4d6dc09c794199cf604570264e24affffffffa7a3c1c363e3c30c88f60cb4656a93a8e70a6a33a403fd9dd925ba1ee6330546ab0000006b483045022100cde99ea20d591367eafca60077d6d03c83a3e1ab2971f06fbf2677dac840a0d602201226270cb37e152fc2a2acc9e7baffe8fc6de38df178ef00310bc63917e921fe012102ba72ee08b23783a9164423494dc2cbe782e4d6dc09c794199cf604570264e24affffffff011d7b1f00000000001976a91497ba03e7b32d80c99f3550f816b796c1b249f98588ac00000000", "vin": [{"sequence": 4294967295, "scriptSig": {"hex": "483045022100c51eb2336f4a48d974d5fa2e8a42a8f69a4261bd5f42ca12054b80312173708f02200ed159ae00b99918ba4923e7d40a1c4902c4facd0bb6bf525f1978306dc0b042012102ba72ee08b23783a9164423494dc2cbe782e4d6dc09c794199cf604570264e24a", "asm": "3045022100c51eb2336f4a48d974d5fa2e8a42a8f69a4261bd5f42ca12054b80312173708f02200ed159ae00b99918ba4923e7d40a1c4902c4facd0bb6bf525f1978306dc0b042[ALL] 02ba72ee08b23783a9164423494dc2cbe782e4d6dc09c794199cf604570264e24a"}, "vout": 239, "txid": "0d2d6f731c38c72d240c31607b6c4b7cfcb01b6a1e8d618faa4c35fcee140156"}, {"sequence": 4294967295, "scriptSig": {"hex": "483045022100cde99ea20d591367eafca60077d6d03c83a3e1ab2971f06fbf2677dac840a0d602201226270cb37e152fc2a2acc9e7baffe8fc6de38df178ef00310bc63917e921fe012102ba72ee08b23783a9164423494dc2cbe782e4d6dc09c794199cf604570264e24a", "asm": "3045022100cde99ea20d591367eafca60077d6d03c83a3e1ab2971f06fbf2677dac840a0d602201226270cb37e152fc2a2acc9e7baffe8fc6de38df178ef00310bc63917e921fe[ALL] 02ba72ee08b23783a9164423494dc2cbe782e4d6dc09c794199cf604570264e24a"}, "vout": 171, "txid": "460533e61eba25d99dfd03a4336a0ae7a8936a65b40cf6880cc3e363c3c1a3a7"}], "txid": "f91c92e4b292819861b5ceaa77cc3499bb11a7fb4442c4139dc185a038bd3ca5", "blocktime": 1537870564, "version": 1, "confirmations": 11515, "time": 1537870564, "locktime": 0, "vsize": 340, "size": 340}