{"hash": "f91e2367376c18d433aaf21abfdcbf23d5397623edc9a8f87b032da61d36c788", "blockhash": "00000000000000000004ffacab907a6b429b9a5745fa0b75af4234bf69dd7176", "vout": [{"scriptPubKey": {"reqSigs": 1, "hex": "a9148e6549e9294becb6c457cd5c7453539f34d37b7787", "addresses": ["3EfwDSsdTkK5zAPHP4iYPSAKsSGs3xEWRW"], "asm": "OP_HASH160 8e6549e9294becb6c457cd5c7453539f34d37b77 OP_EQUAL", "type": "scripthash"}, "value": 0.52038715, "n": 0}, {"scriptPubKey": {"reqSigs": 1, "hex": "76a9146fbef55e448c2e5b21f7f0f93a1e36c6d54c0c6b88ac", "addresses": ["1BBrmKaLAsHM4DgdkQ8HuRjFEs67tQFumQ"], "asm": "OP_DUP OP_HASH160 6fbef55e448c2e5b21f7f0f93a1e36c6d54c0c6b OP_EQUALVERIFY OP_CHECKSIG", "type": "pubkeyhash"}, "value": 0.17360362, "n": 1}], "hex": "0200000003b2e18a404a52b74ef0f8b9ba39d6e33687e9c217e87bfbac0f12bed4c0fb4d7a000000008a47304402200e090e6c88d0db8fee1cda443dbc93988589dcaa7fd043f0ef407877cf7df2fc0220203cbe036e92f8a605e0d3cda7f48112cb07779e16368be10651c84c870cc7cb014104558e2a6ad8a3f6e6d49d336df9d9207419a7273a7eb80b93ae0e6ca012e9e71a43c9e253b707aed8bb954cedc1a75b02a27afd0a25f6e1cc20337759391626effdffffff2f62543adcd900c8c414015be0fe407c6bc0011da12e5764ea3088943ad2d2e4010000008a47304402201d6288a7ae17967e77645c1c604343f7304a06f7ce555c6c2d7900f340ff03ab02200e0a80c04db37e109f6f73d9e8d5c850f752e74346156b6135004a76784521c9014104558e2a6ad8a3f6e6d49d336df9d9207419a7273a7eb80b93ae0e6ca012e9e71a43c9e253b707aed8bb954cedc1a75b02a27afd0a25f6e1cc20337759391626effdffffffe1926f9f437bcb5e0cc0b4c9c970f7f11b66df23e7093081f0bc8dfeeea0023b050000008b483045022100cb3a122decbd6e1cda05af4654d54b21bd36dfebdd294c7d64589810004828a602207a91862bf143d01b228217a92ba063f54082204e856ccfa0a9a276cb5e641286014104558e2a6ad8a3f6e6d49d336df9d9207419a7273a7eb80b93ae0e6ca012e9e71a43c9e253b707aed8bb954cedc1a75b02a27afd0a25f6e1cc20337759391626effdffffff023b0c1a030000000017a9148e6549e9294becb6c457cd5c7453539f34d37b7787eae50801000000001976a9146fbef55e448c2e5b21f7f0f93a1e36c6d54c0c6b88ac00000000", "vin": [{"sequence": 4294967293, "scriptSig": {"hex": "47304402200e090e6c88d0db8fee1cda443dbc93988589dcaa7fd043f0ef407877cf7df2fc0220203cbe036e92f8a605e0d3cda7f48112cb07779e16368be10651c84c870cc7cb014104558e2a6ad8a3f6e6d49d336df9d9207419a7273a7eb80b93ae0e6ca012e9e71a43c9e253b707aed8bb954cedc1a75b02a27afd0a25f6e1cc20337759391626ef", "asm": "304402200e090e6c88d0db8fee1cda443dbc93988589dcaa7fd043f0ef407877cf7df2fc0220203cbe036e92f8a605e0d3cda7f48112cb07779e16368be10651c84c870cc7cb[ALL] 04558e2a6ad8a3f6e6d49d336df9d9207419a7273a7eb80b93ae0e6ca012e9e71a43c9e253b707aed8bb954cedc1a75b02a27afd0a25f6e1cc20337759391626ef"}, "vout": 0, "txid": "7a4dfbc0d4be120facfb7be817c2e98736e3d639bab9f8f04eb7524a408ae1b2"}, {"sequence": 4294967293, "scriptSig": {"hex": "47304402201d6288a7ae17967e77645c1c604343f7304a06f7ce555c6c2d7900f340ff03ab02200e0a80c04db37e109f6f73d9e8d5c850f752e74346156b6135004a76784521c9014104558e2a6ad8a3f6e6d49d336df9d9207419a7273a7eb80b93ae0e6ca012e9e71a43c9e253b707aed8bb954cedc1a75b02a27afd0a25f6e1cc20337759391626ef", "asm": "304402201d6288a7ae17967e77645c1c604343f7304a06f7ce555c6c2d7900f340ff03ab02200e0a80c04db37e109f6f73d9e8d5c850f752e74346156b6135004a76784521c9[ALL] 04558e2a6ad8a3f6e6d49d336df9d9207419a7273a7eb80b93ae0e6ca012e9e71a43c9e253b707aed8bb954cedc1a75b02a27afd0a25f6e1cc20337759391626ef"}, "vout": 1, "txid": "e4d2d23a948830ea64572ea11d01c06b7c40fee05b0114c4c800d9dc3a54622f"}, {"sequence": 4294967293, "scriptSig": {"hex": "483045022100cb3a122decbd6e1cda05af4654d54b21bd36dfebdd294c7d64589810004828a602207a91862bf143d01b228217a92ba063f54082204e856ccfa0a9a276cb5e641286014104558e2a6ad8a3f6e6d49d336df9d9207419a7273a7eb80b93ae0e6ca012e9e71a43c9e253b707aed8bb954cedc1a75b02a27afd0a25f6e1cc20337759391626ef", "asm": "3045022100cb3a122decbd6e1cda05af4654d54b21bd36dfebdd294c7d64589810004828a602207a91862bf143d01b228217a92ba063f54082204e856ccfa0a9a276cb5e641286[ALL] 04558e2a6ad8a3f6e6d49d336df9d9207419a7273a7eb80b93ae0e6ca012e9e71a43c9e253b707aed8bb954cedc1a75b02a27afd0a25f6e1cc20337759391626ef"}, "vout": 5, "txid": "3b02a0eefe8dbcf0813009e723df661bf1f770c9c9b4c00c5ecb7b439f6f92e1"}], "txid": "f91e2367376c18d433aaf21abfdcbf23d5397623edc9a8f87b032da61d36c788", "blocktime": 1537875543, "version": 2, "confirmations": 11464, "time": 1537875543, "locktime": 0, "vsize": 614, "size": 614}