{"hash": "7370bda645c29032ae7c991829cf6bf743e81dad9a1ec8dd38188bce518893ef", "blockhash": "00000000000000000017f5eb5941039fbcee6240d03bc1f2f8e35350df66a1d8", "vout": [{"scriptPubKey": {"reqSigs": 1, "hex": "76a914a65cea200f2a3e92a76c8c740429285fe8a4da6c88ac", "addresses": ["1GAeUfHWJAEGP6n7QoK6kWAkKcCw7CM1qP"], "asm": "OP_DUP OP_HASH160 a65cea200f2a3e92a76c8c740429285fe8a4da6c OP_EQUALVERIFY OP_CHECKSIG", "type": "pubkeyhash"}, "value": 0.00057901, "n": 0}, {"scriptPubKey": {"reqSigs": 1, "hex": "a914f5342287aaa57f5c05756dbd5ef14091cc70030f87", "addresses": ["3Q3XvwKWsx3ocmCXheK6pAo5ieooFx75hh"], "asm": "OP_HASH160 f5342287aaa57f5c05756dbd5ef14091cc70030f OP_EQUAL", "type": "scripthash"}, "value": 0.08562018, "n": 1}], "hex": "01000000000101eeb1c405dcfadae70645032313a5df54a03b5c82730666606e09939907906dae01000000232200204fd7968ffe15cb453352a1e9ee2915eff8b6d6252d5a351f9092b82ca10eb12cffffffff022de20000000000001976a914a65cea200f2a3e92a76c8c740429285fe8a4da6c88ac62a582000000000017a914f5342287aaa57f5c05756dbd5ef14091cc70030f8704004730440220295b8e964692e437080fd912e7a48ca603353a9cb1b78ff4e06d41f72e59d77c02201c3c923c3f60fe037ec5a748cbd1d459fa0fd84c80b7acb9f6cd9f2b9a72042a0147304402207ad2ab23fea3dec66169be4bce7be95873c08b7be07075cbd54c01a0597d30f002204c0f54c108dc948a323809ce07b0bb8b1048eed1b4b863e4c0908d39096865ac0147522103b70e79262cbb7310fe069dea7c473b53276b75c67fb841ff66279f152a3fe0172103871fc2ca08e6950b38867e8e6a0e94ee625223d3aa0df5c65f414c6d784467e252ae00000000", "vin": [{"txinwitness": ["", "30440220295b8e964692e437080fd912e7a48ca603353a9cb1b78ff4e06d41f72e59d77c02201c3c923c3f60fe037ec5a748cbd1d459fa0fd84c80b7acb9f6cd9f2b9a72042a01", "304402207ad2ab23fea3dec66169be4bce7be95873c08b7be07075cbd54c01a0597d30f002204c0f54c108dc948a323809ce07b0bb8b1048eed1b4b863e4c0908d39096865ac01", "522103b70e79262cbb7310fe069dea7c473b53276b75c67fb841ff66279f152a3fe0172103871fc2ca08e6950b38867e8e6a0e94ee625223d3aa0df5c65f414c6d784467e252ae"], "sequence": 4294967295, "scriptSig": {"hex": "2200204fd7968ffe15cb453352a1e9ee2915eff8b6d6252d5a351f9092b82ca10eb12c", "asm": "00204fd7968ffe15cb453352a1e9ee2915eff8b6d6252d5a351f9092b82ca10eb12c"}, "vout": 1, "txid": "ae6d90079993096e60660673825c3ba054dfa51323034506e7dafadc05c4b1ee"}], "txid": "f922e4b0ec1c38557869d9af798c198776bf4f067a4fef007c5b94097d457cef", "blocktime": 1537874412, "version": 1, "confirmations": 11467, "time": 1537874412, "locktime": 0, "vsize": 207, "size": 372}