{"hash": "f923a959f88befd7df2510da642b13b67913ac5eba2e72a391bee673ead9842d", "blockhash": "00000000000000000024a2167bbff67b0be802c0b01cdd79e6331c2be6459f87", "vout": [{"scriptPubKey": {"reqSigs": 1, "hex": "76a914e3b3164a3e79e93f7529513501e059ef154837eb88ac", "addresses": ["1MkxvjXpMduL2MooucePRmjyawcHWBeCys"], "asm": "OP_DUP OP_HASH160 e3b3164a3e79e93f7529513501e059ef154837eb OP_EQUALVERIFY OP_CHECKSIG", "type": "pubkeyhash"}, "value": 0.00239421, "n": 0}, {"scriptPubKey": {"reqSigs": 1, "hex": "76a914cd6a3eb4475c4beffbfa5c98e21b7dac35c6240988ac", "addresses": ["1Kj8oMUP93Qs9t7GWz97Ghagxp9xd7d6yN"], "asm": "OP_DUP OP_HASH160 cd6a3eb4475c4beffbfa5c98e21b7dac35c62409 OP_EQUALVERIFY OP_CHECKSIG", "type": "pubkeyhash"}, "value": 0.033936, "n": 1}], "hex": "010000000160edceb49832d8bb70f80e4f1b57f417efb9d7298619bd06d5aca66d8365c9cc000000006b483045022100eb2935b6a20cd6a2d1da3cf5be553ff1f33b6e123efce309c3bb78bd5f594db202203dedf7a0fc715da8826e2fb22cb0eca2a1e8091cea63e72e3ddf213453084af2012103fd37988d9eeb81b501161d5fa5c76379974ea379251188888bb1f859336893b5ffffffff023da70300000000001976a914e3b3164a3e79e93f7529513501e059ef154837eb88ac40c83300000000001976a914cd6a3eb4475c4beffbfa5c98e21b7dac35c6240988ac00000000", "vin": [{"sequence": 4294967295, "scriptSig": {"hex": "483045022100eb2935b6a20cd6a2d1da3cf5be553ff1f33b6e123efce309c3bb78bd5f594db202203dedf7a0fc715da8826e2fb22cb0eca2a1e8091cea63e72e3ddf213453084af2012103fd37988d9eeb81b501161d5fa5c76379974ea379251188888bb1f859336893b5", "asm": "3045022100eb2935b6a20cd6a2d1da3cf5be553ff1f33b6e123efce309c3bb78bd5f594db202203dedf7a0fc715da8826e2fb22cb0eca2a1e8091cea63e72e3ddf213453084af2[ALL] 03fd37988d9eeb81b501161d5fa5c76379974ea379251188888bb1f859336893b5"}, "vout": 0, "txid": "ccc965836da6acd506bd198629d7b9ef17f4571b4f0ef870bbd83298b4ceed60"}], "txid": "f923a959f88befd7df2510da642b13b67913ac5eba2e72a391bee673ead9842d", "blocktime": 1537870564, "version": 1, "confirmations": 11515, "time": 1537870564, "locktime": 0, "vsize": 226, "size": 226}