{"hash": "f92457e4b86543b03cb57c0e59e177b6fbb3443ac0c7328b2ccfbbf5cce7ee45", "blockhash": "0000000000000000001cda96e906b7601b7a6fb1a3b62bca570a9e5d8f4b3de1", "vout": [{"scriptPubKey": {"reqSigs": 1, "hex": "76a91452384bad008e4a055ad643cf82a4fea8fb9fb3b688ac", "addresses": ["18VjrDcqZHpBRpC1SA8T4b8qW4hj4qEKf4"], "asm": "OP_DUP OP_HASH160 52384bad008e4a055ad643cf82a4fea8fb9fb3b6 OP_EQUALVERIFY OP_CHECKSIG", "type": "pubkeyhash"}, "value": 0.00249372, "n": 0}, {"scriptPubKey": {"reqSigs": 1, "hex": "76a914dab47e251e9ce021ef994c9b8ae547e29cf8e85c88ac", "addresses": ["1LwQXgB9C4ScvBNk1xh6Cuqzyiia8ZrXL1"], "asm": "OP_DUP OP_HASH160 dab47e251e9ce021ef994c9b8ae547e29cf8e85c OP_EQUALVERIFY OP_CHECKSIG", "type": "pubkeyhash"}, "value": 0.005015, "n": 1}], "hex": "010000000188423f193a0baf5ac0376a20eb8bf9aa2e4a48a7a1af7492b938fb519b91c2a8010000006b483045022100bedccb871145429ff98d4bc4f2887bd5666777f2fe109b1ed134e3524b85c2d70220652166154c124a047b8b3fed03862e3de40b0d2a8e093dbee7f5a4507e56a7d3012102100ea28cd8fc63aa8dab4cefcae4cd60b6d0aa6ff0d3e798559ae4d121e3de1fffffffff021cce0300000000001976a91452384bad008e4a055ad643cf82a4fea8fb9fb3b688acfca60700000000001976a914dab47e251e9ce021ef994c9b8ae547e29cf8e85c88ac00000000", "vin": [{"sequence": 4294967295, "scriptSig": {"hex": "483045022100bedccb871145429ff98d4bc4f2887bd5666777f2fe109b1ed134e3524b85c2d70220652166154c124a047b8b3fed03862e3de40b0d2a8e093dbee7f5a4507e56a7d3012102100ea28cd8fc63aa8dab4cefcae4cd60b6d0aa6ff0d3e798559ae4d121e3de1f", "asm": "3045022100bedccb871145429ff98d4bc4f2887bd5666777f2fe109b1ed134e3524b85c2d70220652166154c124a047b8b3fed03862e3de40b0d2a8e093dbee7f5a4507e56a7d3[ALL] 02100ea28cd8fc63aa8dab4cefcae4cd60b6d0aa6ff0d3e798559ae4d121e3de1f"}, "vout": 1, "txid": "a8c2919b51fb38b99274afa1a7484a2eaaf98beb206a37c05aaf0b3a193f4288"}], "txid": "f92457e4b86543b03cb57c0e59e177b6fbb3443ac0c7328b2ccfbbf5cce7ee45", "blocktime": 1537873282, "version": 1, "confirmations": 11484, "time": 1537873282, "locktime": 0, "vsize": 226, "size": 226}