{"hash": "f92a82761af59e06e86630937d41e4629236e65031ca7a5f5ea9cbd7c18c6886", "blockhash": "00000000000000000004ffacab907a6b429b9a5745fa0b75af4234bf69dd7176", "vout": [{"scriptPubKey": {"reqSigs": 1, "hex": "76a91436a1d28ca96b26020110ae5ea63d1e10f34aa7ba88ac", "addresses": ["15ysLys42PnSe3pS7A3SjUBMEtaorD1XEP"], "asm": "OP_DUP OP_HASH160 36a1d28ca96b26020110ae5ea63d1e10f34aa7ba OP_EQUALVERIFY OP_CHECKSIG", "type": "pubkeyhash"}, "value": 0.51383589, "n": 0}], "hex": "010000000107633831152d575fcc55cc86a1b689420ea49cab0832ee58ecb33382ab2a1e37010000008a47304402200440d3a36644b6aaed2fae5a9f35009d9c19986722fe9d24b585c4bf49d48bee02204952dcfa000f3dcac2f1f00b15f03e464eb2354c3b56acc3914e986f0847343501410412b005e2d6ea63ce0fb4c1e8d7484a59b32cb005f5ba2240a83590d72cb75a72c04f0ebdccdf6a10d08cb7d7e05297b049a6c0f8e1e749e440d6dd48cc7c5fb6ffffffff01250d1003000000001976a91436a1d28ca96b26020110ae5ea63d1e10f34aa7ba88ac00000000", "vin": [{"sequence": 4294967295, "scriptSig": {"hex": "47304402200440d3a36644b6aaed2fae5a9f35009d9c19986722fe9d24b585c4bf49d48bee02204952dcfa000f3dcac2f1f00b15f03e464eb2354c3b56acc3914e986f0847343501410412b005e2d6ea63ce0fb4c1e8d7484a59b32cb005f5ba2240a83590d72cb75a72c04f0ebdccdf6a10d08cb7d7e05297b049a6c0f8e1e749e440d6dd48cc7c5fb6", "asm": "304402200440d3a36644b6aaed2fae5a9f35009d9c19986722fe9d24b585c4bf49d48bee02204952dcfa000f3dcac2f1f00b15f03e464eb2354c3b56acc3914e986f08473435[ALL] 0412b005e2d6ea63ce0fb4c1e8d7484a59b32cb005f5ba2240a83590d72cb75a72c04f0ebdccdf6a10d08cb7d7e05297b049a6c0f8e1e749e440d6dd48cc7c5fb6"}, "vout": 1, "txid": "371e2aab8233b3ec58ee3208ab9ca40e4289b6a186cc55cc5f572d1531386307"}], "txid": "f92a82761af59e06e86630937d41e4629236e65031ca7a5f5ea9cbd7c18c6886", "blocktime": 1537875543, "version": 1, "confirmations": 11464, "time": 1537875543, "locktime": 0, "vsize": 223, "size": 223}