{"hash": "917eabb6921a4f21309cea041649fa3fb404ad9d7cb7ac289f2b0fd17e01d2be", "blockhash": "000000000000000000022b45ed06c6f4ccd3cf7fb5ba4856ebd2e58215665228", "vout": [{"scriptPubKey": {"reqSigs": 1, "hex": "76a914b6673bde84d8d55672443574a57901dfbf03361988ac", "addresses": ["1HdTejDCMGZvKahdWeEPnmHsMHHb9zDmjT"], "asm": "OP_DUP OP_HASH160 b6673bde84d8d55672443574a57901dfbf033619 OP_EQUALVERIFY OP_CHECKSIG", "type": "pubkeyhash"}, "value": 0.03, "n": 0}, {"scriptPubKey": {"reqSigs": 1, "hex": "00145a89095667306cbb5b0c0a5d129ffc7c7d62bcfa", "addresses": ["bc1qt2ysj4n8xpktkkcvpfw398lu037k9086upgck2"], "asm": "0 5a89095667306cbb5b0c0a5d129ffc7c7d62bcfa", "type": "witness_v0_keyhash"}, "value": 0.00061521, "n": 1}], "hex": "01000000000101fa15c49f445b8c385151831e5944597b9d039a160e2bea0f17aa00e04ccc48ea0000000017160014fc765a66553ac886fa993800ed2d44e5fb9e3ec7ffffffff02c0c62d00000000001976a914b6673bde84d8d55672443574a57901dfbf03361988ac51f00000000000001600145a89095667306cbb5b0c0a5d129ffc7c7d62bcfa02483045022100e4f7c75e0f530284b185fbf1768d884cd1f99bd660ded93219228b98c19cfc0502200854140c1df5ee036d11ae24989396873b8a9d2233b40ecd91c77bef6a13b7d0012103e46c1a22ed0a13a4f824180fb0fef30bfd549f87da32a4aa72ba43dcebd06f1900000000", "vin": [{"txinwitness": ["3045022100e4f7c75e0f530284b185fbf1768d884cd1f99bd660ded93219228b98c19cfc0502200854140c1df5ee036d11ae24989396873b8a9d2233b40ecd91c77bef6a13b7d001", "03e46c1a22ed0a13a4f824180fb0fef30bfd549f87da32a4aa72ba43dcebd06f19"], "sequence": 4294967295, "scriptSig": {"hex": "160014fc765a66553ac886fa993800ed2d44e5fb9e3ec7", "asm": "0014fc765a66553ac886fa993800ed2d44e5fb9e3ec7"}, "vout": 0, "txid": "ea48cc4ce000aa170fea2b0e169a039d7b5944591e835151388c5b449fc415fa"}], "txid": "f92b436f2613cb3ab1c7abd77ddbf5ec2e13f0d6c07674e7f1b77f9a28fc979a", "blocktime": 1537869901, "version": 1, "confirmations": 11523, "time": 1537869901, "locktime": 0, "vsize": 167, "size": 249}