{"hash": "1d154aa36930516bac74199f5db7f2fcdd8db76323c1294c4cf84399d2908408", "blockhash": "0000000000000000001f0ddff1eddb255c1121bcd4da4f1bc9a0da00cae72433", "vout": [{"scriptPubKey": {"reqSigs": 1, "hex": "76a914657c0d4bee49e85b36a2d3a7e0aac1652b80875888ac", "addresses": ["1AFbreycZXiP6YPCX2VsV3VTAEYZyKfe7R"], "asm": "OP_DUP OP_HASH160 657c0d4bee49e85b36a2d3a7e0aac1652b808758 OP_EQUALVERIFY OP_CHECKSIG", "type": "pubkeyhash"}, "value": 0.0638569, "n": 0}, {"scriptPubKey": {"reqSigs": 1, "hex": "001480bd35655419608524a9b1c213628025c976511c", "addresses": ["bc1qsz7n2e25r9sg2f9fk8ppxc5qyhyhv5guuhjf8h"], "asm": "0 80bd35655419608524a9b1c213628025c976511c", "type": "witness_v0_keyhash"}, "value": 1.1142331, "n": 1}], "hex": "020000000001017564b64c60214cd9ba4bb07075bd8bc3be0effa2ea85b4b5129ca795f0e08d540000000017160014a0c79a940cbc52123cff7346ca5cd0da9a732f8bffffffff021a706100000000001976a914657c0d4bee49e85b36a2d3a7e0aac1652b80875888ac4e2fa4060000000016001480bd35655419608524a9b1c213628025c976511c02483045022100f562e26e25a70fdd7ae44eba4af400a407369e91dad78ff3cbfc2458337a492e02203906627cf32013f22d4634711868d27b64b5899c6b942539e640aa8373ddec7d012103a7550148cac8a1bd32fb6d405805216e6c5d1c761a4fa340a51ddfa8a7111e3b00000000", "vin": [{"txinwitness": ["3045022100f562e26e25a70fdd7ae44eba4af400a407369e91dad78ff3cbfc2458337a492e02203906627cf32013f22d4634711868d27b64b5899c6b942539e640aa8373ddec7d01", "03a7550148cac8a1bd32fb6d405805216e6c5d1c761a4fa340a51ddfa8a7111e3b"], "sequence": 4294967295, "scriptSig": {"hex": "160014a0c79a940cbc52123cff7346ca5cd0da9a732f8b", "asm": "0014a0c79a940cbc52123cff7346ca5cd0da9a732f8b"}, "vout": 0, "txid": "548de0f095a79c12b5b485eaa2ff0ebec38bbd7570b04bbad94c21604cb66475"}], "txid": "f93b1e9c6d109e13549e3fa68a45c919404d554ab76fea5d950974348c4a20b7", "blocktime": 1537872018, "version": 2, "confirmations": 11489, "time": 1537872018, "locktime": 0, "vsize": 167, "size": 249}