{"hash": "f95c52473734d6c5a21f616245d14d1d59b3f1bb1014196449aa3113a47e253b", "blockhash": "0000000000000000000dcc0f55137456b1a82d3642486a52398922ac4d620174", "vout": [{"scriptPubKey": {"reqSigs": 1, "hex": "76a914a2afebf18e70b27eda094b93986b351898355fc288ac", "addresses": ["1FqDDKzJQUCZPdNG9GMoruDsDkpLLNG99v"], "asm": "OP_DUP OP_HASH160 a2afebf18e70b27eda094b93986b351898355fc2 OP_EQUALVERIFY OP_CHECKSIG", "type": "pubkeyhash"}, "value": 2.96, "n": 0}, {"scriptPubKey": {"reqSigs": 1, "hex": "76a91452fce9ab0fffe133f3c99814e3be98a6de73f0d488ac", "addresses": ["18ZoPRCPNudDbVZLBaCymsME6NTW4HdSB9"], "asm": "OP_DUP OP_HASH160 52fce9ab0fffe133f3c99814e3be98a6de73f0d4 OP_EQUALVERIFY OP_CHECKSIG", "type": "pubkeyhash"}, "value": 0.01996, "n": 1}], "hex": "0100000001b83195168c2786288bd8e8a2173d1b482e1d9a2a846a2e1e939b5622f29e98be000000006b483045022100a7b060fcd28c270536a0c255a6f85037ae66dd3fac76c526e0bcc15d03d69c5f022075d8cccab5082cd291c5d4b440d3431aa25cbd077cfe13112a6ec9f80472006101210269682d55ecc94d57a10008ddc69bd7ce3b22481d79fdd58c88d1fd2a922b06c6ffffffff02009aa411000000001976a914a2afebf18e70b27eda094b93986b351898355fc288ace0741e00000000001976a91452fce9ab0fffe133f3c99814e3be98a6de73f0d488ac00000000", "vin": [{"sequence": 4294967295, "scriptSig": {"hex": "483045022100a7b060fcd28c270536a0c255a6f85037ae66dd3fac76c526e0bcc15d03d69c5f022075d8cccab5082cd291c5d4b440d3431aa25cbd077cfe13112a6ec9f80472006101210269682d55ecc94d57a10008ddc69bd7ce3b22481d79fdd58c88d1fd2a922b06c6", "asm": "3045022100a7b060fcd28c270536a0c255a6f85037ae66dd3fac76c526e0bcc15d03d69c5f022075d8cccab5082cd291c5d4b440d3431aa25cbd077cfe13112a6ec9f804720061[ALL] 0269682d55ecc94d57a10008ddc69bd7ce3b22481d79fdd58c88d1fd2a922b06c6"}, "vout": 0, "txid": "be989ef222569b931e2e6a842a9a1d2e481b3d17a2e8d88b2886278c169531b8"}], "txid": "f95c52473734d6c5a21f616245d14d1d59b3f1bb1014196449aa3113a47e253b", "blocktime": 1537870268, "version": 1, "confirmations": 11516, "time": 1537870268, "locktime": 0, "vsize": 226, "size": 226}