{"hash": "99a910745ee856dd3184dd166c9e77eb56c4880e767269304d14dea4f9b361e2", "blockhash": "0000000000000000001f76057863aec43deb6fa401d9628bb513d65a8098bfab", "vout": [{"scriptPubKey": {"reqSigs": 1, "hex": "a914369580571ecdf9c9a25f507f8b1242bc8f28e45787", "addresses": ["36fdWSJYNkfVXXXZ9heoprL1kg9CoizHvJ"], "asm": "OP_HASH160 369580571ecdf9c9a25f507f8b1242bc8f28e457 OP_EQUAL", "type": "scripthash"}, "value": 0.00347612, "n": 0}, {"scriptPubKey": {"reqSigs": 1, "hex": "a9140148cc0c7d93f5d61e6464849a9d3e488ea3f71687", "addresses": ["31ooomHcKrYHujx9QPZexNLKUoi57LFgr1"], "asm": "OP_HASH160 0148cc0c7d93f5d61e6464849a9d3e488ea3f716 OP_EQUAL", "type": "scripthash"}, "value": 0.63604967, "n": 1}], "hex": "0100000000010152a30e6a23fa06df2e8726071aa22fb305793ac4fea25553f482d9d8a65680a101000000232200206594800033ddd458a110f5393848f5e71397d210169e47e078198df34b07cfdeffffffff02dc4d05000000000017a914369580571ecdf9c9a25f507f8b1242bc8f28e45787e788ca030000000017a9140148cc0c7d93f5d61e6464849a9d3e488ea3f716870400473044022009f3ff084ef8a2a3078e14d75fdd992cf85e6c67fadc6dbbffd9a46c99c3455802204d8ef9db17d725745b320e03780d3bd419b77d957eabfd8ecc9f97ac1b4efc8c01483045022100938d338d6f532848384f33512224535727af5229dada7f6cd2a92c79f9a69764022043899bc2b33023ef221f1f1d93d295a401adaf989dcc9a1f471ce85ee5455e4a016952210238d59b0a1c630cbe53fb706c9074fe77fe61fd931b4cc5038aca5a367ff495922102dada1e4b131d16d1ae159487aadd55b1cfaf30c62c99bbec6f1442eb1508d9402103dd4d9bd9eeef616ae1d8482fe30a1f97468ce6a2bda1c7c9506625486cde8f1f53ae00000000", "vin": [{"txinwitness": ["", "3044022009f3ff084ef8a2a3078e14d75fdd992cf85e6c67fadc6dbbffd9a46c99c3455802204d8ef9db17d725745b320e03780d3bd419b77d957eabfd8ecc9f97ac1b4efc8c01", "3045022100938d338d6f532848384f33512224535727af5229dada7f6cd2a92c79f9a69764022043899bc2b33023ef221f1f1d93d295a401adaf989dcc9a1f471ce85ee5455e4a01", "52210238d59b0a1c630cbe53fb706c9074fe77fe61fd931b4cc5038aca5a367ff495922102dada1e4b131d16d1ae159487aadd55b1cfaf30c62c99bbec6f1442eb1508d9402103dd4d9bd9eeef616ae1d8482fe30a1f97468ce6a2bda1c7c9506625486cde8f1f53ae"], "sequence": 4294967295, "scriptSig": {"hex": "2200206594800033ddd458a110f5393848f5e71397d210169e47e078198df34b07cfde", "asm": "00206594800033ddd458a110f5393848f5e71397d210169e47e078198df34b07cfde"}, "vout": 1, "txid": "a18056a6d8d982f45355a2fec43a7905b32fa21a0726872edf06fa236a0ea352"}], "txid": "f960f165df120b85cfca9bd611534aacc0abbdfd9a30b77e6614f8f8c53baad5", "blocktime": 1537873891, "version": 1, "confirmations": 11478, "time": 1537873891, "locktime": 0, "vsize": 214, "size": 405}