{"hash": "f960c874d3fa89db2d4ffdc735bd81d380dec07c6c08bf4e6e169045cf683287", "blockhash": "0000000000000000001cda96e906b7601b7a6fb1a3b62bca570a9e5d8f4b3de1", "vout": [{"scriptPubKey": {"reqSigs": 1, "hex": "a914a18608d312a7c5e98ca5a6f18fd7b2c4097d019087", "addresses": ["3GR5HJk8o4GZuy1rFcvepR4oTR5T5zxwBB"], "asm": "OP_HASH160 a18608d312a7c5e98ca5a6f18fd7b2c4097d0190 OP_EQUAL", "type": "scripthash"}, "value": 0.05178208, "n": 0}], "hex": "0100000001e1abd2febaf573361f13a589e2b4159093b631787b8c0c231bf20a8184448511010000006b483045022100a592a0e53878451f56c2367afa325c01ab0a02ac665fe23b06bf5259a88f1a990220190cd614e2ee2dd4ef524fddb7a5bcaa288f48e70283789d42b4472ab220b0f7012103ac3655f81cfe9742720048a7bb60a81c105f12bfb8401b4e516d1791287cf5efffffffff0160034f000000000017a914a18608d312a7c5e98ca5a6f18fd7b2c4097d01908700000000", "vin": [{"sequence": 4294967295, "scriptSig": {"hex": "483045022100a592a0e53878451f56c2367afa325c01ab0a02ac665fe23b06bf5259a88f1a990220190cd614e2ee2dd4ef524fddb7a5bcaa288f48e70283789d42b4472ab220b0f7012103ac3655f81cfe9742720048a7bb60a81c105f12bfb8401b4e516d1791287cf5ef", "asm": "3045022100a592a0e53878451f56c2367afa325c01ab0a02ac665fe23b06bf5259a88f1a990220190cd614e2ee2dd4ef524fddb7a5bcaa288f48e70283789d42b4472ab220b0f7[ALL] 03ac3655f81cfe9742720048a7bb60a81c105f12bfb8401b4e516d1791287cf5ef"}, "vout": 1, "txid": "11854484810af21b230c8c7b7831b6939015b4e289a5131f3673f5bafed2abe1"}], "txid": "f960c874d3fa89db2d4ffdc735bd81d380dec07c6c08bf4e6e169045cf683287", "blocktime": 1537873282, "version": 1, "confirmations": 11481, "time": 1537873282, "locktime": 0, "vsize": 190, "size": 190}