{"hash": "f9688ff36464f40451536810afa6768e2b0371d9a73be4e83a59d8eb23a20315", "blockhash": "00000000000000000018f53835495a110e01622372bf6ae95dc86f2b0ab887b0", "vout": [{"scriptPubKey": {"reqSigs": 1, "hex": "76a914e7451960e9ec03b1adb2cfb86402a18d846b5c1f88ac", "addresses": ["1N5qsQV5UTHqSzpwJBFRVVfzjjuDxqGLrW"], "asm": "OP_DUP OP_HASH160 e7451960e9ec03b1adb2cfb86402a18d846b5c1f OP_EQUALVERIFY OP_CHECKSIG", "type": "pubkeyhash"}, "value": 0.32767958, "n": 0}, {"scriptPubKey": {"reqSigs": 1, "hex": "76a9149a7f507acc7d9133e508018473ce08196971dbac88ac", "addresses": ["1F5uaVyqQnyhtvDX2pnYxKrVRDf7uYoTyY"], "asm": "OP_DUP OP_HASH160 9a7f507acc7d9133e508018473ce08196971dbac OP_EQUALVERIFY OP_CHECKSIG", "type": "pubkeyhash"}, "value": 0.45687082, "n": 1}], "hex": "01000000037a505042d04af9e8d81726f5136d23671c6ea8271edb76740c87602450279a47010000006a47304402203615609c85ffd405f75dede0afa8b84ff7a77739fe78736af684e10cdf3d75f402203bb3bdcf7102654f7764480e1289c7c022e9c383af80ac40edc1403de6a091aa012102946da7dd769afff094c417163b7b28ccecca5cd14217f83c307052a172b28381ffffffffc88e32156f405bd71a16ffda90d0f2f8ec146d741b3ab835e94e68516515bf74000000006b483045022100da1cf35a48a856b8dd9946c2ced531bc6d455e65c4c70ce9fb4be0ae9ed67c28022048cb0930cb4be287835ecd456db5138fc5ef5d71f4aa58f16444577e15cb4bab012102715599ff505c5860b1b3eb37727dab4d84e958fe3dd5b74011e80c2f1bc1cc2bffffffff180dfbaf195b143da19ff10f7007334c272cf0de290fa1c2190360912a87b1d7010000006a473044022075a6a5173f3992d86ef1868ea3907ac9bce346e68121ae78c070d9fb94aa629e02203dc51973227a0eb9d40ca0d112220e50d4cd864adb0ea1c639ea71d0aa6e05230121028d6c64dcc49b0106148357ea2b2145f3501dbccb90f1d60f0181e6fad4739980ffffffff02d6fff301000000001976a914e7451960e9ec03b1adb2cfb86402a18d846b5c1f88ac2a21b902000000001976a9149a7f507acc7d9133e508018473ce08196971dbac88ac00000000", "vin": [{"sequence": 4294967295, "scriptSig": {"hex": "47304402203615609c85ffd405f75dede0afa8b84ff7a77739fe78736af684e10cdf3d75f402203bb3bdcf7102654f7764480e1289c7c022e9c383af80ac40edc1403de6a091aa012102946da7dd769afff094c417163b7b28ccecca5cd14217f83c307052a172b28381", "asm": "304402203615609c85ffd405f75dede0afa8b84ff7a77739fe78736af684e10cdf3d75f402203bb3bdcf7102654f7764480e1289c7c022e9c383af80ac40edc1403de6a091aa[ALL] 02946da7dd769afff094c417163b7b28ccecca5cd14217f83c307052a172b28381"}, "vout": 1, "txid": "479a27502460870c7476db1e27a86e1c67236d13f52617d8e8f94ad04250507a"}, {"sequence": 4294967295, "scriptSig": {"hex": "483045022100da1cf35a48a856b8dd9946c2ced531bc6d455e65c4c70ce9fb4be0ae9ed67c28022048cb0930cb4be287835ecd456db5138fc5ef5d71f4aa58f16444577e15cb4bab012102715599ff505c5860b1b3eb37727dab4d84e958fe3dd5b74011e80c2f1bc1cc2b", "asm": "3045022100da1cf35a48a856b8dd9946c2ced531bc6d455e65c4c70ce9fb4be0ae9ed67c28022048cb0930cb4be287835ecd456db5138fc5ef5d71f4aa58f16444577e15cb4bab[ALL] 02715599ff505c5860b1b3eb37727dab4d84e958fe3dd5b74011e80c2f1bc1cc2b"}, "vout": 0, "txid": "74bf156551684ee935b83a1b746d14ecf8f2d090daff161ad75b406f15328ec8"}, {"sequence": 4294967295, "scriptSig": {"hex": "473044022075a6a5173f3992d86ef1868ea3907ac9bce346e68121ae78c070d9fb94aa629e02203dc51973227a0eb9d40ca0d112220e50d4cd864adb0ea1c639ea71d0aa6e05230121028d6c64dcc49b0106148357ea2b2145f3501dbccb90f1d60f0181e6fad4739980", "asm": "3044022075a6a5173f3992d86ef1868ea3907ac9bce346e68121ae78c070d9fb94aa629e02203dc51973227a0eb9d40ca0d112220e50d4cd864adb0ea1c639ea71d0aa6e0523[ALL] 028d6c64dcc49b0106148357ea2b2145f3501dbccb90f1d60f0181e6fad4739980"}, "vout": 1, "txid": "d7b1872a91600319c2a10f29def02c274c3307700ff19fa13d145b19affb0d18"}], "txid": "f9688ff36464f40451536810afa6768e2b0371d9a73be4e83a59d8eb23a20315", "blocktime": 1537870928, "version": 1, "confirmations": 11514, "time": 1537870928, "locktime": 0, "vsize": 520, "size": 520}