{"hash": "11388962270b32faa17c41817e19153932bce2db9cd15200adfc7561299150ea", "blockhash": "0000000000000000000e13cef7c366c0283d82e591d1acd082e914b08063cdf1", "vout": [{"scriptPubKey": {"reqSigs": 1, "hex": "76a91410793fc0a9fae4d1c41dd0f3ccf8fbfda2d33dcc88ac", "addresses": ["12W74bnqEXe636mRHpv8oZa9AbAEC5YuPT"], "asm": "OP_DUP OP_HASH160 10793fc0a9fae4d1c41dd0f3ccf8fbfda2d33dcc OP_EQUALVERIFY OP_CHECKSIG", "type": "pubkeyhash"}, "value": 0.003813, "n": 0}, {"scriptPubKey": {"reqSigs": 1, "hex": "a9143c97cee18857382f61513a1d441302fb8330937b87", "addresses": ["37DQKsFoq61Q5EBvRdiZnv2EZcu1BV6Cy8"], "asm": "OP_HASH160 3c97cee18857382f61513a1d441302fb8330937b OP_EQUAL", "type": "scripthash"}, "value": 0.01279127, "n": 1}], "hex": "020000000001027ae7b107b197f79fe7ccb59dfd9eaa233df8eb6f0ca919e485d9c11fc80dc59a01000000171600144c0d1b88db4899118b117b64e16b0da072ceea88fdffffffa34e7b36a5fd9e916bdabcdd0edaedbafd7b2ad19bee14c2547bb680ae72a26f0000000017160014ba7b0d435960d4c306235598b4ef3d1ee5a3fe26fdffffff0274d10500000000001976a91410793fc0a9fae4d1c41dd0f3ccf8fbfda2d33dcc88ac978413000000000017a9143c97cee18857382f61513a1d441302fb8330937b870247304402205432d29cd75fe06e15db712fb29324af0e267d60664281dbee97f37bfddd9ee802205008956756c728cb25c79b8c16922727fe1fd45f759a2defc424832b76b5003201210334dcb1dd3b0f8363a9545bae704ec7b6d3aa2dad76ae065e2799e5d34c8324450247304402204328b2bed9edd3bc51d6d7425165d1713638d7fd29b71ba5654a19c18094429e02203753e9a49d823edf4184a32f0c443bda60b6918e256f41af14d9bd9dbb8e9b8301210299a4fb677199b78ff163db7727b960c8a69c42f35081023025dc336d008141c0f1480800", "vin": [{"txinwitness": ["304402205432d29cd75fe06e15db712fb29324af0e267d60664281dbee97f37bfddd9ee802205008956756c728cb25c79b8c16922727fe1fd45f759a2defc424832b76b5003201", "0334dcb1dd3b0f8363a9545bae704ec7b6d3aa2dad76ae065e2799e5d34c832445"], "sequence": 4294967293, "scriptSig": {"hex": "1600144c0d1b88db4899118b117b64e16b0da072ceea88", "asm": "00144c0d1b88db4899118b117b64e16b0da072ceea88"}, "vout": 1, "txid": "9ac50dc81fc1d985e419a90c6febf83d23aa9efd9db5cce79ff797b107b1e77a"}, {"txinwitness": ["304402204328b2bed9edd3bc51d6d7425165d1713638d7fd29b71ba5654a19c18094429e02203753e9a49d823edf4184a32f0c443bda60b6918e256f41af14d9bd9dbb8e9b8301", "0299a4fb677199b78ff163db7727b960c8a69c42f35081023025dc336d008141c0"], "sequence": 4294967293, "scriptSig": {"hex": "160014ba7b0d435960d4c306235598b4ef3d1ee5a3fe26", "asm": "0014ba7b0d435960d4c306235598b4ef3d1ee5a3fe26"}, "vout": 0, "txid": "6fa272ae80b67b54c214ee9bd12a7bfdbaedda0eddbcda6b919efda5367b4ea3"}], "txid": "f96af0dfb70ad270f19ad23f18a67d65c3c1246e39eed49d966695f3d1ff4087", "blocktime": 1537871767, "version": 2, "confirmations": 11490, "time": 1537871767, "locktime": 542961, "vsize": 258, "size": 420}