{"hash": "026e3778f73a5071ee07eb19202162ddab002c5c3245e3ef5fce34724e97b169", "blockhash": "00000000000000000024a2167bbff67b0be802c0b01cdd79e6331c2be6459f87", "vout": [{"scriptPubKey": {"reqSigs": 1, "hex": "0014dad7bfe2d01d1601b2f4c5324ba5283eb9e5475f", "addresses": ["bc1qmttmlcksr5tqrvh5c5eyhffg86u7236lg0cq9d"], "asm": "0 dad7bfe2d01d1601b2f4c5324ba5283eb9e5475f", "type": "witness_v0_keyhash"}, "value": 0.00010296, "n": 0}, {"scriptPubKey": {"reqSigs": 1, "hex": "76a914c897b9739552fddfcbadbb7518bb73b339e06ad188ac", "addresses": ["1KHduN68MZiaSkF3eE22g4FkeBXFYd1SSt"], "asm": "OP_DUP OP_HASH160 c897b9739552fddfcbadbb7518bb73b339e06ad1 OP_EQUALVERIFY OP_CHECKSIG", "type": "pubkeyhash"}, "value": 0.00468, "n": 1}], "hex": "01000000000101db613c5ffb9b237ba0ae83e2516e8d98bc14a45455774c97d720a054f2e3ee220100000000ffffffff023828000000000000160014dad7bfe2d01d1601b2f4c5324ba5283eb9e5475f20240700000000001976a914c897b9739552fddfcbadbb7518bb73b339e06ad188ac02483045022100ba8a10a827f8be092334bfe32885ccb71c5a5b7db04c2ef7f3e3ee8ff61bf4c20220123cecd342fce3598c91a02608860a7b0033881d75e549f8ad1f0f41637ba40a012103c3f4efef18c5f27fc4fe5f0e3dfcfcc1a012a0dd9b5d1d554292b239ec0be25d00000000", "vin": [{"txinwitness": ["3045022100ba8a10a827f8be092334bfe32885ccb71c5a5b7db04c2ef7f3e3ee8ff61bf4c20220123cecd342fce3598c91a02608860a7b0033881d75e549f8ad1f0f41637ba40a01", "03c3f4efef18c5f27fc4fe5f0e3dfcfcc1a012a0dd9b5d1d554292b239ec0be25d"], "sequence": 4294967295, "scriptSig": {"hex": "", "asm": ""}, "vout": 1, "txid": "22eee3f254a020d7974c775554a414bc988d6e51e283aea07b239bfb5f3c61db"}], "txid": "f971d01bd4d4baba56d7f13971bb05b840332f53b42f27b7e3e3e6d17c5e1a01", "blocktime": 1537870564, "version": 1, "confirmations": 11515, "time": 1537870564, "locktime": 0, "vsize": 144, "size": 226}