{"hash": "eb51781e13b33381cfb9beebbd8bf67ac5aa3a566779f91561a0d2f85179d958", "blockhash": "00000000000000000018f53835495a110e01622372bf6ae95dc86f2b0ab887b0", "vout": [{"scriptPubKey": {"reqSigs": 1, "hex": "a9147e6f0c8b50e6d227681ab17b8bcc7ceb3fd1979387", "addresses": ["3DDY6XwQCCiBUsmrRb3ZpyGHUEYkNppBZE"], "asm": "OP_HASH160 7e6f0c8b50e6d227681ab17b8bcc7ceb3fd19793 OP_EQUAL", "type": "scripthash"}, "value": 0.01009062, "n": 0}, {"scriptPubKey": {"reqSigs": 1, "hex": "76a9142e1b944fe7ffbe969fc1df8d662fd7b5d6303c9b88ac", "addresses": ["15Co856cRnFRCKwSSzECoyT3ozVhuFoJZ6"], "asm": "OP_DUP OP_HASH160 2e1b944fe7ffbe969fc1df8d662fd7b5d6303c9b OP_EQUALVERIFY OP_CHECKSIG", "type": "pubkeyhash"}, "value": 0.0028616, "n": 1}], "hex": "02000000000102380ad1ca68351843a9497df65290042aa7088dd9aa9d496147d8c2f4ca7de76e0000000017160014a180597bd3d5dc3e9b9206af5fe731606fbd53cefeffffffea78916916e332db4845511f43328b222184a1a09c93d2a7ff795c57e46c90391100000017160014d8ac4f126e8a6c50a86e26c5641338a1c2380259feffffff02a6650f000000000017a9147e6f0c8b50e6d227681ab17b8bcc7ceb3fd1979387d05d0400000000001976a9142e1b944fe7ffbe969fc1df8d662fd7b5d6303c9b88ac0247304402204be5f8ae2fe11693132415d39f0b09c186f700ff574f8781499d8f2ac6f9b774022000c94ea930ab8d71e273d3165a158a7d344bc96e29a098b1c58c29b681725ea8012102e189f8f64aac9d3b6f8a9ba1def75cc100ac15a5d5966764b777e5450e054656024830450221009bab8344276c16284457937cc171721b3f52ae4d555d04c494aa7d718a3d1c28022006918f10d06e73eebfb9cc571f3bf047636078b6a90be41d11f1ebd00354b434012102792dfea20be7d18a4c7509eb1ccb20556b932b99064493849878f95e6c9fc79a0e490800", "vin": [{"txinwitness": ["304402204be5f8ae2fe11693132415d39f0b09c186f700ff574f8781499d8f2ac6f9b774022000c94ea930ab8d71e273d3165a158a7d344bc96e29a098b1c58c29b681725ea801", "02e189f8f64aac9d3b6f8a9ba1def75cc100ac15a5d5966764b777e5450e054656"], "sequence": 4294967294, "scriptSig": {"hex": "160014a180597bd3d5dc3e9b9206af5fe731606fbd53ce", "asm": "0014a180597bd3d5dc3e9b9206af5fe731606fbd53ce"}, "vout": 0, "txid": "6ee77dcaf4c2d84761499daad98d08a72a049052f67d49a943183568cad10a38"}, {"txinwitness": ["30450221009bab8344276c16284457937cc171721b3f52ae4d555d04c494aa7d718a3d1c28022006918f10d06e73eebfb9cc571f3bf047636078b6a90be41d11f1ebd00354b43401", "02792dfea20be7d18a4c7509eb1ccb20556b932b99064493849878f95e6c9fc79a"], "sequence": 4294967294, "scriptSig": {"hex": "160014d8ac4f126e8a6c50a86e26c5641338a1c2380259", "asm": "0014d8ac4f126e8a6c50a86e26c5641338a1c2380259"}, "vout": 17, "txid": "39906ce4575c79ffa7d2939ca0a18421228b32431f514548db32e316699178ea"}], "txid": "f97649358958452a97fccc9e6d0628907de12700b7d52008f267f4899a49e51d", "blocktime": 1537870928, "version": 2, "confirmations": 11514, "time": 1537870928, "locktime": 542990, "vsize": 259, "size": 421}