{"hash": "f9792ba9f0784f4fae9628dee8015b822900e08aeb96dcf3123a8cd68656e16b", "blockhash": "0000000000000000001f76057863aec43deb6fa401d9628bb513d65a8098bfab", "vout": [{"scriptPubKey": {"reqSigs": 1, "hex": "76a914d7a40bee42b2229252eb9e2ddde7b91020a8ce6a88ac", "addresses": ["1LfCoQHR4pC3KDCrc9mzBkVJ4i3UF1yCFw"], "asm": "OP_DUP OP_HASH160 d7a40bee42b2229252eb9e2ddde7b91020a8ce6a OP_EQUALVERIFY OP_CHECKSIG", "type": "pubkeyhash"}, "value": 1.1, "n": 0}, {"scriptPubKey": {"reqSigs": 1, "hex": "76a9141951ce7aff2f2ca924529d26c896a2ddb80335ad88ac", "addresses": ["13JstpJKk3nkRLQuriKgTis8DAaGneF2bK"], "asm": "OP_DUP OP_HASH160 1951ce7aff2f2ca924529d26c896a2ddb80335ad OP_EQUALVERIFY OP_CHECKSIG", "type": "pubkeyhash"}, "value": 0.1383207, "n": 1}], "hex": "0100000003c9dfeef6a8ec18a1882a3c914b1f08414e6950b0eb08375e611050d6a65ffc73080000006b48304502210095f3ac1af4e9da5b37d69dd285eab34bf379f2277ab7bcae783eaa3355306f7802202df7f12145adb433613277eca56b7ca08f99127e2d3948a3fb5a8b30115f6300012102520a2bde3e00d3919fcfcd6f9e67a7abff32e6c2f0b4d4b13ab3942a33d53194ffffffffc9dfeef6a8ec18a1882a3c914b1f08414e6950b0eb08375e611050d6a65ffc73050000006a47304402202de8e57ce41a741c785ed7f014a8343974f40aab02a0cd25dc98b93ea8cb676402203a4791d2e9499fb9ccb987c622b106ee64e2c802fc3c5ec952db9b548892521f012102520a2bde3e00d3919fcfcd6f9e67a7abff32e6c2f0b4d4b13ab3942a33d53194ffffffff523118293784a6fe70138d89922ce8e27565a77753ae4db27c49a9039ea84bb9010000006a4730440220495eb9bc7f245f425e36d81269aa9c3d9375e2c6f53cf394808a02546c7a52a90220716138e342a19409dd178d5daeb8fe3b10f7581cd1e6d611465f86afe71b6464012103701bb2c01171227a4ca1e7980cbe18e64439f053e5e14c53978ebb44eae77c3affffffff0280778e06000000001976a914d7a40bee42b2229252eb9e2ddde7b91020a8ce6a88ac860fd300000000001976a9141951ce7aff2f2ca924529d26c896a2ddb80335ad88ac00000000", "vin": [{"sequence": 4294967295, "scriptSig": {"hex": "48304502210095f3ac1af4e9da5b37d69dd285eab34bf379f2277ab7bcae783eaa3355306f7802202df7f12145adb433613277eca56b7ca08f99127e2d3948a3fb5a8b30115f6300012102520a2bde3e00d3919fcfcd6f9e67a7abff32e6c2f0b4d4b13ab3942a33d53194", "asm": "304502210095f3ac1af4e9da5b37d69dd285eab34bf379f2277ab7bcae783eaa3355306f7802202df7f12145adb433613277eca56b7ca08f99127e2d3948a3fb5a8b30115f6300[ALL] 02520a2bde3e00d3919fcfcd6f9e67a7abff32e6c2f0b4d4b13ab3942a33d53194"}, "vout": 8, "txid": "73fc5fa6d65010615e3708ebb050694e41081f4b913c2a88a118eca8f6eedfc9"}, {"sequence": 4294967295, "scriptSig": {"hex": "47304402202de8e57ce41a741c785ed7f014a8343974f40aab02a0cd25dc98b93ea8cb676402203a4791d2e9499fb9ccb987c622b106ee64e2c802fc3c5ec952db9b548892521f012102520a2bde3e00d3919fcfcd6f9e67a7abff32e6c2f0b4d4b13ab3942a33d53194", "asm": "304402202de8e57ce41a741c785ed7f014a8343974f40aab02a0cd25dc98b93ea8cb676402203a4791d2e9499fb9ccb987c622b106ee64e2c802fc3c5ec952db9b548892521f[ALL] 02520a2bde3e00d3919fcfcd6f9e67a7abff32e6c2f0b4d4b13ab3942a33d53194"}, "vout": 5, "txid": "73fc5fa6d65010615e3708ebb050694e41081f4b913c2a88a118eca8f6eedfc9"}, {"sequence": 4294967295, "scriptSig": {"hex": "4730440220495eb9bc7f245f425e36d81269aa9c3d9375e2c6f53cf394808a02546c7a52a90220716138e342a19409dd178d5daeb8fe3b10f7581cd1e6d611465f86afe71b6464012103701bb2c01171227a4ca1e7980cbe18e64439f053e5e14c53978ebb44eae77c3a", "asm": "30440220495eb9bc7f245f425e36d81269aa9c3d9375e2c6f53cf394808a02546c7a52a90220716138e342a19409dd178d5daeb8fe3b10f7581cd1e6d611465f86afe71b6464[ALL] 03701bb2c01171227a4ca1e7980cbe18e64439f053e5e14c53978ebb44eae77c3a"}, "vout": 1, "txid": "b94ba89e03a9497cb24dae5377a76575e2e82c92898d1370fea6843729183152"}], "txid": "f9792ba9f0784f4fae9628dee8015b822900e08aeb96dcf3123a8cd68656e16b", "blocktime": 1537873891, "version": 1, "confirmations": 11478, "time": 1537873891, "locktime": 0, "vsize": 520, "size": 520}