{"hash": "a206dabc391fece52783c5f15612dd710562e6a957e7b9075c1595c4d0c42aca", "blockhash": "0000000000000000001cda96e906b7601b7a6fb1a3b62bca570a9e5d8f4b3de1", "vout": [{"scriptPubKey": {"reqSigs": 1, "hex": "76a9144506443ad8074a25586afbc9c3632361bad45c0e88ac", "addresses": ["17Hy8eEVdw3GoDzmPAfqtxoE4TkLNU5upa"], "asm": "OP_DUP OP_HASH160 4506443ad8074a25586afbc9c3632361bad45c0e OP_EQUALVERIFY OP_CHECKSIG", "type": "pubkeyhash"}, "value": 0.1528247, "n": 0}, {"scriptPubKey": {"reqSigs": 1, "hex": "00142a9cc680967ebd4b5e4fbfb995d27cdf5ed905c3", "addresses": ["bc1q92wvdqyk0675khj0h7uet5numa0djpwrvqt4an"], "asm": "0 2a9cc680967ebd4b5e4fbfb995d27cdf5ed905c3", "type": "witness_v0_keyhash"}, "value": 0.00716451, "n": 1}], "hex": "0100000000010143fdd4606b497b434d807528b5309669e3638020624fd0c5c7d1092cad5f3e5a05000000171600148187f6028ae5a66f053ac7f62feb4716d49d76f0ffffffff022631e900000000001976a9144506443ad8074a25586afbc9c3632361bad45c0e88aca3ee0a00000000001600142a9cc680967ebd4b5e4fbfb995d27cdf5ed905c302483045022100930a28779c9f6419afa85e1a1b4f8e0ad55233c9d52b5c99564e49592cdea91d02201867a792687a5fb65da1a537dd6ce80f4411bc4ca310fe06d941a607ed282a1d01210223643f6375676146e487768a1db82d02070a258d383293c425335bcbc6b4324400000000", "vin": [{"txinwitness": ["3045022100930a28779c9f6419afa85e1a1b4f8e0ad55233c9d52b5c99564e49592cdea91d02201867a792687a5fb65da1a537dd6ce80f4411bc4ca310fe06d941a607ed282a1d01", "0223643f6375676146e487768a1db82d02070a258d383293c425335bcbc6b43244"], "sequence": 4294967295, "scriptSig": {"hex": "1600148187f6028ae5a66f053ac7f62feb4716d49d76f0", "asm": "00148187f6028ae5a66f053ac7f62feb4716d49d76f0"}, "vout": 5, "txid": "5a3e5fad2c09d1c7c5d04f62208063e3699630b52875804d437b496b60d4fd43"}], "txid": "f982f2fbd0700a2cd01f7ef0d491b4ac1f024845a741e213b793cba545955d6f", "blocktime": 1537873282, "version": 1, "confirmations": 11484, "time": 1537873282, "locktime": 0, "vsize": 167, "size": 249}