{"hash": "f984d88cae5aa449856019b181fd611a6efab1a2bde3d025c3836464dc7ace14", "blockhash": "00000000000000000018f53835495a110e01622372bf6ae95dc86f2b0ab887b0", "vout": [{"scriptPubKey": {"reqSigs": 1, "hex": "76a9140294661f487a6268eb1bdc9cf013f30e04c3279d88ac", "addresses": ["1Ee8KcwDRWQqKANJDGGhzA5czpzAyJaDw"], "asm": "OP_DUP OP_HASH160 0294661f487a6268eb1bdc9cf013f30e04c3279d OP_EQUALVERIFY OP_CHECKSIG", "type": "pubkeyhash"}, "value": 0.00093878, "n": 0}, {"scriptPubKey": {"reqSigs": 1, "hex": "76a914604077feb804b0aa4d5fe1de0491237c7ea2d7fa88ac", "addresses": ["19mw6nLSTKNd5PZ64TUtKWYKmtQDs91Uqq"], "asm": "OP_DUP OP_HASH160 604077feb804b0aa4d5fe1de0491237c7ea2d7fa OP_EQUALVERIFY OP_CHECKSIG", "type": "pubkeyhash"}, "value": 0.2230564, "n": 1}], "hex": "0100000001517a2146f203ca1ec8cf6e5084d74b159cfe12ef661ade2b398152bd50884aeb000000006b4830450221008a41c89fdffa391cd3cb0951d68972c14109528acf4c0a3815d87285d9c86d2e022016ae61a6ed92855a54e7a2c22e387c18256f7100d36c2352e907d2de4f9cc2a90121020386056b907e0ca9202087daabfcb8bdf624f37a0b813443170b898004c968a4ffffffff02b66e0100000000001976a9140294661f487a6268eb1bdc9cf013f30e04c3279d88ac685b5401000000001976a914604077feb804b0aa4d5fe1de0491237c7ea2d7fa88ac00000000", "vin": [{"sequence": 4294967295, "scriptSig": {"hex": "4830450221008a41c89fdffa391cd3cb0951d68972c14109528acf4c0a3815d87285d9c86d2e022016ae61a6ed92855a54e7a2c22e387c18256f7100d36c2352e907d2de4f9cc2a90121020386056b907e0ca9202087daabfcb8bdf624f37a0b813443170b898004c968a4", "asm": "30450221008a41c89fdffa391cd3cb0951d68972c14109528acf4c0a3815d87285d9c86d2e022016ae61a6ed92855a54e7a2c22e387c18256f7100d36c2352e907d2de4f9cc2a9[ALL] 020386056b907e0ca9202087daabfcb8bdf624f37a0b813443170b898004c968a4"}, "vout": 0, "txid": "eb4a8850bd5281392bde1a66ef12fe9c154bd784506ecfc81eca03f246217a51"}], "txid": "f984d88cae5aa449856019b181fd611a6efab1a2bde3d025c3836464dc7ace14", "blocktime": 1537870928, "version": 1, "confirmations": 11514, "time": 1537870928, "locktime": 0, "vsize": 226, "size": 226}