{"hash": "f9888de53de3257f1b149fdc753cf9526606369ac94697042a36f73e2c41224a", "blockhash": "0000000000000000001cda96e906b7601b7a6fb1a3b62bca570a9e5d8f4b3de1", "vout": [{"scriptPubKey": {"reqSigs": 1, "hex": "a91405967dc18fcba45edc8eeb74728dc649bcafc65087", "addresses": ["32CZapMLwrdALiorKqPXScjho7zwMdjWa9"], "asm": "OP_HASH160 05967dc18fcba45edc8eeb74728dc649bcafc650 OP_EQUAL", "type": "scripthash"}, "value": 10.0, "n": 0}, {"scriptPubKey": {"reqSigs": 1, "hex": "76a9141ec86146848ae5bfd9688ff3727ae771c372de1188ac", "addresses": ["13omKQD9AaxDZT9vaZxxoLaEFJGKy5FmQB"], "asm": "OP_DUP OP_HASH160 1ec86146848ae5bfd9688ff3727ae771c372de11 OP_EQUALVERIFY OP_CHECKSIG", "type": "pubkeyhash"}, "value": 9.9999, "n": 1}], "hex": "0100000001fe2f6fb3f2652589041797ca109a6779062a8375cf502f233c9ba7d048132fb9000000008a47304402201181d6bf988149d61acf4a32df25ae7a14ded559a1b18024864d1e37f4f2d3ff022043973d69d62fad1ae2df506bdbd629ac4f3ff1f3d79b322f488da808d42a3968014104e0db7c8f7148c7a66ffea7894929ebca8a0de9498ca7025d64d205b0f07b981a89eb74ae0042d74a2bb14b6b373fdb6c42c5e44591b751ceb545f810da46539cffffffff0200ca9a3b0000000017a91405967dc18fcba45edc8eeb74728dc649bcafc65087f0a29a3b000000001976a9141ec86146848ae5bfd9688ff3727ae771c372de1188ac00000000", "vin": [{"sequence": 4294967295, "scriptSig": {"hex": "47304402201181d6bf988149d61acf4a32df25ae7a14ded559a1b18024864d1e37f4f2d3ff022043973d69d62fad1ae2df506bdbd629ac4f3ff1f3d79b322f488da808d42a3968014104e0db7c8f7148c7a66ffea7894929ebca8a0de9498ca7025d64d205b0f07b981a89eb74ae0042d74a2bb14b6b373fdb6c42c5e44591b751ceb545f810da46539c", "asm": "304402201181d6bf988149d61acf4a32df25ae7a14ded559a1b18024864d1e37f4f2d3ff022043973d69d62fad1ae2df506bdbd629ac4f3ff1f3d79b322f488da808d42a3968[ALL] 04e0db7c8f7148c7a66ffea7894929ebca8a0de9498ca7025d64d205b0f07b981a89eb74ae0042d74a2bb14b6b373fdb6c42c5e44591b751ceb545f810da46539c"}, "vout": 0, "txid": "b92f1348d0a79b3c232f50cf75832a0679679a10ca971704892565f2b36f2ffe"}], "txid": "f9888de53de3257f1b149fdc753cf9526606369ac94697042a36f73e2c41224a", "blocktime": 1537873282, "version": 1, "confirmations": 11480, "time": 1537873282, "locktime": 0, "vsize": 255, "size": 255}