{"hash": "2f12b073671fa4592ef93c83b1b3965e0a75cbb1062816a6512b894238ff1c64", "blockhash": "00000000000000000024a2167bbff67b0be802c0b01cdd79e6331c2be6459f87", "vout": [{"scriptPubKey": {"reqSigs": 1, "hex": "76a914658bc2e4001cfacc64a3e041943e921b3086737588ac", "addresses": ["1AFvgAG4FN8fhtp3ZtSF8hsmKvPTDiB4RV"], "asm": "OP_DUP OP_HASH160 658bc2e4001cfacc64a3e041943e921b30867375 OP_EQUALVERIFY OP_CHECKSIG", "type": "pubkeyhash"}, "value": 3.309e-05, "n": 0}, {"scriptPubKey": {"reqSigs": 1, "hex": "a914e8db75c900cf08f06518e96d167331f2a4abfb3387", "addresses": ["3NvFbQMAkkqEFj4i1sYPPLkSWzxTFUchjA"], "asm": "OP_HASH160 e8db75c900cf08f06518e96d167331f2a4abfb33 OP_EQUAL", "type": "scripthash"}, "value": 0.00045641, "n": 1}], "hex": "0100000000010147be3b71d051b8f712ae05b0f1201f5a575024dd6aebf16a2906ef9044ebd1230000000023220020941cfaff8837763dc1f69ff82b6d6553fdea17a41cfc29a04403293eedd8ccc7ffffffff02ed0c0000000000001976a914658bc2e4001cfacc64a3e041943e921b3086737588ac49b200000000000017a914e8db75c900cf08f06518e96d167331f2a4abfb33870400483045022100cb14eea0ef35ef1c46d4ec572789dd0144faacaedfd46575461d9904c07b55e8022063b9bc444b101963caf75bfaefffe4883790c42bad3d24184d46ddfcfe497222014830450221009bf32dc1f27f91d958152c976cc0cfc7a540f43abbe83edf4ed6ef36f28e8961022012691d9fa848f81e5aa234fb563b7a002895d559a3b38a918121e1ecb5814bf90147522102531db3a5883f29bab4241dd0cd726936667bcda445d89bdd22244e828b6993342103148c80a5bdfddb05ff5bcffc397c8ca748d8b435ec6a175bc9d7bfc7fc6f853752ae00000000", "vin": [{"txinwitness": ["", "3045022100cb14eea0ef35ef1c46d4ec572789dd0144faacaedfd46575461d9904c07b55e8022063b9bc444b101963caf75bfaefffe4883790c42bad3d24184d46ddfcfe49722201", "30450221009bf32dc1f27f91d958152c976cc0cfc7a540f43abbe83edf4ed6ef36f28e8961022012691d9fa848f81e5aa234fb563b7a002895d559a3b38a918121e1ecb5814bf901", "522102531db3a5883f29bab4241dd0cd726936667bcda445d89bdd22244e828b6993342103148c80a5bdfddb05ff5bcffc397c8ca748d8b435ec6a175bc9d7bfc7fc6f853752ae"], "sequence": 4294967295, "scriptSig": {"hex": "220020941cfaff8837763dc1f69ff82b6d6553fdea17a41cfc29a04403293eedd8ccc7", "asm": "0020941cfaff8837763dc1f69ff82b6d6553fdea17a41cfc29a04403293eedd8ccc7"}, "vout": 0, "txid": "23d1eb4490ef06296af1eb6add2450575a1f20f1b005ae12f7b851d0713bbe47"}], "txid": "f992f52daf506d218a3b4894f517b37b73b1464ea4bf4db1f124c7120566b7a5", "blocktime": 1537870564, "version": 1, "confirmations": 11515, "time": 1537870564, "locktime": 0, "vsize": 208, "size": 374}