{"hash": "f9934b339b468b6beb8d7d0617fd2d32db0988f2d9d293a4e2e38d8206e21cd9", "blockhash": "0000000000000000000baef3f32e3676a92c3b2e5da21b426e4f302fc371ce76", "vout": [{"scriptPubKey": {"type": "nulldata", "hex": "6a146f6d6e69000000000000001f00000031c32e7800", "asm": "OP_RETURN 6f6d6e69000000000000001f00000031c32e7800"}, "value": 0.0, "n": 0}, {"scriptPubKey": {"reqSigs": 1, "hex": "76a91458f32143a95cd11ee5f37e5d1dff6f9fbafa660b88ac", "addresses": ["197Kir2psnjrTFwx8R9cUnmVCUFeUgCNxS"], "asm": "OP_DUP OP_HASH160 58f32143a95cd11ee5f37e5d1dff6f9fbafa660b OP_EQUALVERIFY OP_CHECKSIG", "type": "pubkeyhash"}, "value": 0.91686703, "n": 1}, {"scriptPubKey": {"reqSigs": 1, "hex": "76a91450bf7bd1dcf56c24a6245df87ba4938c319888fb88ac", "addresses": ["18MxSsBL1JHG8kDBXyDJBcZ7XcFM3iPpTr"], "asm": "OP_DUP OP_HASH160 50bf7bd1dcf56c24a6245df87ba4938c319888fb OP_EQUALVERIFY OP_CHECKSIG", "type": "pubkeyhash"}, "value": 5.46e-06, "n": 2}], "hex": "0100000001c43b2dbbf8efade2ca55d6fa3c04b32a96df43f0ce0f8b0866ddc97a9ea53fc8020000006b483045022100976b62a8d5f2db2d36e3ee6979d324bcfd73c9ba293e97dc70bc862abb53b08e02205a3acebdee5f01177a0b9fbd04f990fd152be4112c082e7bbc6f9d522ac3889901210251e12972b557d5dbac73bfd2470adeac64ac46202389f0ef2db7231f645a0aeafeffffff030000000000000000166a146f6d6e69000000000000001f00000031c32e78002f077705000000001976a91458f32143a95cd11ee5f37e5d1dff6f9fbafa660b88ac22020000000000001976a91450bf7bd1dcf56c24a6245df87ba4938c319888fb88ac17490800", "vin": [{"sequence": 4294967294, "scriptSig": {"hex": "483045022100976b62a8d5f2db2d36e3ee6979d324bcfd73c9ba293e97dc70bc862abb53b08e02205a3acebdee5f01177a0b9fbd04f990fd152be4112c082e7bbc6f9d522ac3889901210251e12972b557d5dbac73bfd2470adeac64ac46202389f0ef2db7231f645a0aea", "asm": "3045022100976b62a8d5f2db2d36e3ee6979d324bcfd73c9ba293e97dc70bc862abb53b08e02205a3acebdee5f01177a0b9fbd04f990fd152be4112c082e7bbc6f9d522ac38899[ALL] 0251e12972b557d5dbac73bfd2470adeac64ac46202389f0ef2db7231f645a0aea"}, "vout": 2, "txid": "c83fa59e7ac9dd66088b0fcef043df962ab3043cfad655cae2adeff8bb2d3bc4"}], "txid": "f9934b339b468b6beb8d7d0617fd2d32db0988f2d9d293a4e2e38d8206e21cd9", "blocktime": 1537876114, "version": 1, "confirmations": 11460, "time": 1537876114, "locktime": 542999, "vsize": 257, "size": 257}