{"hash": "f99d4f420e1794162b721f8ecc6beef45d7a93a4a6a9b64232368d3f7f6980bc", "blockhash": "0000000000000000001f0ddff1eddb255c1121bcd4da4f1bc9a0da00cae72433", "vout": [{"scriptPubKey": {"reqSigs": 1, "hex": "76a91479e0d97b68fb2e05607028075c82c5286f77c4aa88ac", "addresses": ["1C7S82pVoHwX9aNcSisXJrsLMNTRQfynwP"], "asm": "OP_DUP OP_HASH160 79e0d97b68fb2e05607028075c82c5286f77c4aa OP_EQUALVERIFY OP_CHECKSIG", "type": "pubkeyhash"}, "value": 0.00312891, "n": 0}, {"scriptPubKey": {"reqSigs": 1, "hex": "76a91464ed060c9e4f326624e5552ae850b2dcd6c3e04988ac", "addresses": ["1ACeWsfhXtsoxPpgWQqsssRryAsV47ky1s"], "asm": "OP_DUP OP_HASH160 64ed060c9e4f326624e5552ae850b2dcd6c3e049 OP_EQUALVERIFY OP_CHECKSIG", "type": "pubkeyhash"}, "value": 0.23762919, "n": 1}], "hex": "020000000112b71eae20d3af7a89cf73e90273b81724f24622ef77c6c881519e607b78dcec010000006b483045022100c5d97b883c4463629b48d2fc6580ac27253cd9409e0a35cc2aef6a434ab364cb0220061c88ba063b027e383c7afb292aacfd63524f990777bd3ae464124a2ae39bcd0121039ba153d9efb218418416f826b769123ba1dd4d4ea85f1c7263533ee1513f47b7feffffff023bc60400000000001976a91479e0d97b68fb2e05607028075c82c5286f77c4aa88ace7976a01000000001976a91464ed060c9e4f326624e5552ae850b2dcd6c3e04988ac11490800", "vin": [{"sequence": 4294967294, "scriptSig": {"hex": "483045022100c5d97b883c4463629b48d2fc6580ac27253cd9409e0a35cc2aef6a434ab364cb0220061c88ba063b027e383c7afb292aacfd63524f990777bd3ae464124a2ae39bcd0121039ba153d9efb218418416f826b769123ba1dd4d4ea85f1c7263533ee1513f47b7", "asm": "3045022100c5d97b883c4463629b48d2fc6580ac27253cd9409e0a35cc2aef6a434ab364cb0220061c88ba063b027e383c7afb292aacfd63524f990777bd3ae464124a2ae39bcd[ALL] 039ba153d9efb218418416f826b769123ba1dd4d4ea85f1c7263533ee1513f47b7"}, "vout": 1, "txid": "ecdc787b609e5181c8c677ef2246f22417b87302e973cf897aafd320ae1eb712"}], "txid": "f99d4f420e1794162b721f8ecc6beef45d7a93a4a6a9b64232368d3f7f6980bc", "blocktime": 1537872018, "version": 2, "confirmations": 11489, "time": 1537872018, "locktime": 542993, "vsize": 226, "size": 226}