{"hash": "8e5f4e3672175a47dea7d2818a87ddd3e5f7a7210dd801bd6adebafe769233b5", "blockhash": "0000000000000000001e0dab787dd257d1dbfcb92a98c2207d5e1078be1f4165", "vout": [{"scriptPubKey": {"reqSigs": 1, "hex": "76a91471add223a6212717aa01a2adee41571bef486d9588ac", "addresses": ["1BN5axn4zfAXEXKgCgHGsdMKSwKN1XxEMT"], "asm": "OP_DUP OP_HASH160 71add223a6212717aa01a2adee41571bef486d95 OP_EQUALVERIFY OP_CHECKSIG", "type": "pubkeyhash"}, "value": 0.00987969, "n": 0}, {"scriptPubKey": {"reqSigs": 1, "hex": "a9146d0140becbcc49f842dac007ee70a73faebc9faa87", "addresses": ["3BdP5WN3tHZuysaP8SoKc6SSCbJYZEvJwg"], "asm": "OP_HASH160 6d0140becbcc49f842dac007ee70a73faebc9faa OP_EQUAL", "type": "scripthash"}, "value": 0.00518258, "n": 1}], "hex": "01000000000102b3dc7334e07bbe7bf00a0511b58c0ef2ca5c1a534f8c92b6eb8418b73f48a810000000002322002079c07a24e0a3fa9720b451852641cd805a74ae02f663b0d4481c985527a32641ffffffff2e681d5ed88e36a8baba73075a3db070d634f9ef8069944b50aa4e21ef0eb81d00000000232200200c6e3324571d1d93db366220207ac4432dec109555ee4157c5d0206f6ebccc3fffffffff0241130f00000000001976a91471add223a6212717aa01a2adee41571bef486d9588ac72e807000000000017a9146d0140becbcc49f842dac007ee70a73faebc9faa870400483045022100eb1a3db4b84659ca32b371d6e25a7d99ca1f62e21448bbb719688cf8f4966e2d022049fac9735d29e238e53293b033248b49598d31f7ef15dae6213306e703b65040014730440220668a24c07494b38e5b36cbcb9f0850ac8eccb82af07ca93af63873e5e5fe772302202722776fc0c93208b6096705d13a0360560cfb53a99196f846fe9c5c448c90c10147522102f3cc78a1e57a809195edcb2c62279e2bc5e6b637f735988bc47ef467ed49dc402102d8cbd56fe56ed46b7d86e915d643e8519cf5f3c693f8be00c1dd5ac66394422e52ae0400483045022100dadc0f1b52ea11e0367459c22c8b7040347134fc533cc1ed1958214715122392022018123b1e0e00b7c49ccf1b7c0f39997af50f336abb593082be2fdd1c52c49887014730440220431ee133198aef5143bbc3e07855b7a76e111978033d662940c4f9841eda9e29022033c812f98af304c20b49d9d3a9728f2ee09a23b2d3bcca504334872ae5a4dbae0147522103562857bf5ef237a598672762819bf153571deb1f2f0619000bd6cf2980bcb8812102d8cbd56fe56ed46b7d86e915d643e8519cf5f3c693f8be00c1dd5ac66394422e52ae00000000", "vin": [{"txinwitness": ["", "3045022100eb1a3db4b84659ca32b371d6e25a7d99ca1f62e21448bbb719688cf8f4966e2d022049fac9735d29e238e53293b033248b49598d31f7ef15dae6213306e703b6504001", "30440220668a24c07494b38e5b36cbcb9f0850ac8eccb82af07ca93af63873e5e5fe772302202722776fc0c93208b6096705d13a0360560cfb53a99196f846fe9c5c448c90c101", "522102f3cc78a1e57a809195edcb2c62279e2bc5e6b637f735988bc47ef467ed49dc402102d8cbd56fe56ed46b7d86e915d643e8519cf5f3c693f8be00c1dd5ac66394422e52ae"], "sequence": 4294967295, "scriptSig": {"hex": "22002079c07a24e0a3fa9720b451852641cd805a74ae02f663b0d4481c985527a32641", "asm": "002079c07a24e0a3fa9720b451852641cd805a74ae02f663b0d4481c985527a32641"}, "vout": 0, "txid": "10a8483fb71884ebb6928c4f531a5ccaf20e8cb511050af07bbe7be03473dcb3"}, {"txinwitness": ["", "3045022100dadc0f1b52ea11e0367459c22c8b7040347134fc533cc1ed1958214715122392022018123b1e0e00b7c49ccf1b7c0f39997af50f336abb593082be2fdd1c52c4988701", "30440220431ee133198aef5143bbc3e07855b7a76e111978033d662940c4f9841eda9e29022033c812f98af304c20b49d9d3a9728f2ee09a23b2d3bcca504334872ae5a4dbae01", "522103562857bf5ef237a598672762819bf153571deb1f2f0619000bd6cf2980bcb8812102d8cbd56fe56ed46b7d86e915d643e8519cf5f3c693f8be00c1dd5ac66394422e52ae"], "sequence": 4294967295, "scriptSig": {"hex": "2200200c6e3324571d1d93db366220207ac4432dec109555ee4157c5d0206f6ebccc3f", "asm": "00200c6e3324571d1d93db366220207ac4432dec109555ee4157c5d0206f6ebccc3f"}, "vout": 0, "txid": "1db80eef214eaa504b946980eff934d670b03d5a0773babaa8368ed85e1d682e"}], "txid": "f9a9bec97b643ad722e305027de370ef0b9de3e8927554e97d1ecd5da99e28d2", "blocktime": 1537872475, "version": 1, "confirmations": 11487, "time": 1537872475, "locktime": 0, "vsize": 338, "size": 668}