{"hash": "cb596e7c92f8f18be396b714dd2b26cd6511f042428e39aba443f334d1c30465", "blockhash": "000000000000000000022b45ed06c6f4ccd3cf7fb5ba4856ebd2e58215665228", "vout": [{"scriptPubKey": {"reqSigs": 1, "hex": "76a9146247de9c743616f40e0c8409f66857891494fde888ac", "addresses": ["19xfKPL5WkvaKjCsdt77c4ec5d8SatBhQY"], "asm": "OP_DUP OP_HASH160 6247de9c743616f40e0c8409f66857891494fde8 OP_EQUALVERIFY OP_CHECKSIG", "type": "pubkeyhash"}, "value": 0.04660587, "n": 0}, {"scriptPubKey": {"reqSigs": 1, "hex": "76a914005b7c564dc8f40978814793723a142338f7928e88ac", "addresses": ["112tbYAWgMV4KE5gX1vhQhkAm3gRfs77xz"], "asm": "OP_DUP OP_HASH160 005b7c564dc8f40978814793723a142338f7928e OP_EQUALVERIFY OP_CHECKSIG", "type": "pubkeyhash"}, "value": 0.03191957, "n": 1}, {"scriptPubKey": {"reqSigs": 1, "hex": "a9141f9f465976b7430ea52ec1c29469a6aa6ef422d987", "addresses": ["34aDg6dEBm51Gsq3ire5T1Pi6kSNnQoXjV"], "asm": "OP_HASH160 1f9f465976b7430ea52ec1c29469a6aa6ef422d9 OP_EQUAL", "type": "scripthash"}, "value": 0.70665123, "n": 2}], "hex": "0200000000010196aeca628e1e9d7364976bae84947426da2b40bd7040ab50e6875290bddeb1560100000017160014957c106748d59710642137e47f262f64922584fffeffffff036b1d4700000000001976a9146247de9c743616f40e0c8409f66857891494fde888ac95b43000000000001976a914005b7c564dc8f40978814793723a142338f7928e88aca34336040000000017a9141f9f465976b7430ea52ec1c29469a6aa6ef422d987024730440220421961b325a964347c2eb90ba3b743204ad3bac5a6608a981248ec9ea6a4ec40022067acdabac15d7e823d54175957a7fa8754f8c6944c526c63e1a4f7d884d09b2d0121020a8a39106df13bce0adeb2f01a29949162705c7f08718c4b166364444c7dc9eb0b490800", "vin": [{"txinwitness": ["30440220421961b325a964347c2eb90ba3b743204ad3bac5a6608a981248ec9ea6a4ec40022067acdabac15d7e823d54175957a7fa8754f8c6944c526c63e1a4f7d884d09b2d01", "020a8a39106df13bce0adeb2f01a29949162705c7f08718c4b166364444c7dc9eb"], "sequence": 4294967294, "scriptSig": {"hex": "160014957c106748d59710642137e47f262f64922584ff", "asm": "0014957c106748d59710642137e47f262f64922584ff"}, "vout": 1, "txid": "56b1debd905287e650ab4070bd402bda26749484ae6b9764739d1e8e62caae96"}], "txid": "f9af373c8fe3635f56dfe49687fa20269c721c0860078cbe7273961dfd46e541", "blocktime": 1537869901, "version": 2, "confirmations": 11522, "time": 1537869901, "locktime": 542987, "vsize": 202, "size": 283}