{"hash": "f9b73c34619386056c57ca028bdc612756bd4bb3baa95452bd990dc9ce7ed702", "blockhash": "0000000000000000000e13cef7c366c0283d82e591d1acd082e914b08063cdf1", "vout": [{"scriptPubKey": {"reqSigs": 1, "hex": "76a9143c93e84b5887b96a49c4a2248f2f5ee01257eb6488ac", "addresses": ["16XJjJB9USWTTt9zNLZFkbcw8XvfuksZxT"], "asm": "OP_DUP OP_HASH160 3c93e84b5887b96a49c4a2248f2f5ee01257eb64 OP_EQUALVERIFY OP_CHECKSIG", "type": "pubkeyhash"}, "value": 0.00013744, "n": 0}, {"scriptPubKey": {"reqSigs": 1, "hex": "76a9141b0afbd46ae12fb6009fc508f06e183279e44a2388ac", "addresses": ["13TzQLn2N4ahyPGpew6SohQAkRo7Tkbocs"], "asm": "OP_DUP OP_HASH160 1b0afbd46ae12fb6009fc508f06e183279e44a23 OP_EQUALVERIFY OP_CHECKSIG", "type": "pubkeyhash"}, "value": 0.00156264, "n": 1}], "hex": "0100000001fb9df744f13116fe7138d708a03aff126e10cf03b838bf0f69c6b591ddf9a4b4010000006a47304402202a594095ebeccff5d2f2ff7c999a73d17f3472ce16d03cb23362d21f90a6b325022079c86944b76d60dfc075f61743f4fe197d539aaf681d96dbd4fe780132a288ba01210205954ff95b1cc5cc580f72da3070e4e0dc1252062a5b47c4f7dc144399f145e5ffffffff02b0350000000000001976a9143c93e84b5887b96a49c4a2248f2f5ee01257eb6488ac68620200000000001976a9141b0afbd46ae12fb6009fc508f06e183279e44a2388ac00000000", "vin": [{"sequence": 4294967295, "scriptSig": {"hex": "47304402202a594095ebeccff5d2f2ff7c999a73d17f3472ce16d03cb23362d21f90a6b325022079c86944b76d60dfc075f61743f4fe197d539aaf681d96dbd4fe780132a288ba01210205954ff95b1cc5cc580f72da3070e4e0dc1252062a5b47c4f7dc144399f145e5", "asm": "304402202a594095ebeccff5d2f2ff7c999a73d17f3472ce16d03cb23362d21f90a6b325022079c86944b76d60dfc075f61743f4fe197d539aaf681d96dbd4fe780132a288ba[ALL] 0205954ff95b1cc5cc580f72da3070e4e0dc1252062a5b47c4f7dc144399f145e5"}, "vout": 1, "txid": "b4a4f9dd91b5c6690fbf38b803cf106e12ff3aa008d73871fe1631f144f79dfb"}], "txid": "f9b73c34619386056c57ca028bdc612756bd4bb3baa95452bd990dc9ce7ed702", "blocktime": 1537871767, "version": 1, "confirmations": 11495, "time": 1537871767, "locktime": 0, "vsize": 225, "size": 225}