{"hash": "d69a252fc2a93473510e32d6b414e5b59b6e83fe51fce5852854d4a2b2a76960", "blockhash": "0000000000000000000e13cef7c366c0283d82e591d1acd082e914b08063cdf1", "vout": [{"scriptPubKey": {"reqSigs": 1, "hex": "a914d6e232d063f92accaf9eda84f929ab151ac01f6b87", "addresses": ["3MHDW9CjrmM1z2KoCgbH2rMVYouUxBT78U"], "asm": "OP_HASH160 d6e232d063f92accaf9eda84f929ab151ac01f6b OP_EQUAL", "type": "scripthash"}, "value": 0.01027977, "n": 0}, {"scriptPubKey": {"reqSigs": 1, "hex": "76a914e8f65ca31497c92b6b129fbb3802a3535a4dd16288ac", "addresses": ["1NEnu2ZtRRZCKqNkpPPWdS5iZasSk4jjQ2"], "asm": "OP_DUP OP_HASH160 e8f65ca31497c92b6b129fbb3802a3535a4dd162 OP_EQUALVERIFY OP_CHECKSIG", "type": "pubkeyhash"}, "value": 0.00753, "n": 1}, {"scriptPubKey": {"reqSigs": 1, "hex": "a91407fe4f3634dd7a9413ddea0898abd63161f2a5fe87", "addresses": ["32RHJccn6EHUM6mA4rGZKnbxaH2LVFTThf"], "asm": "OP_HASH160 07fe4f3634dd7a9413ddea0898abd63161f2a5fe OP_EQUAL", "type": "scripthash"}, "value": 0.0261, "n": 2}], "hex": "0200000000010206949a4d5ea2459c5b45748714faecf9316377d5640ee4a420b5b52516d0cefd01000000171600142255a0ca1b22a07f94b80c3d19e7b68ae57c2a8afeffffff7b1ddb8854e06990e5bbfd1291f138f18dd2547c1ff976da19f7bd18d95c236b0100000017160014870fff8dbb58ddc39ba60171780acdcfb424ea67feffffff0389af0f000000000017a914d6e232d063f92accaf9eda84f929ab151ac01f6b87687d0b00000000001976a914e8f65ca31497c92b6b129fbb3802a3535a4dd16288ac50d327000000000017a91407fe4f3634dd7a9413ddea0898abd63161f2a5fe8702483045022100ade053968139c6760bf1f77b0a4f618bf54498405764547029be8a3dca0177a502204b9ffb720da246d133b874190f79d3692a5f96eed445ebc412d65d4bc239505a01210314000dc8b8ddd143ea021ae0a6d199a410acfd960dc9789d6d1ff1e8fe2d076402483045022100b551aa9b2b6bfb9e1ebae8bc55685fbd73ae0e6d7aba79d31fba4971f809b01d02201a06d0ceb720d6d99edc4d0a5719b02f673aee755824d38fff5b106591ba863501210313ecd5c65a7d64b7969949101ad58e735331fd7fea0532f24b4025530202ed5400000000", "vin": [{"txinwitness": ["3045022100ade053968139c6760bf1f77b0a4f618bf54498405764547029be8a3dca0177a502204b9ffb720da246d133b874190f79d3692a5f96eed445ebc412d65d4bc239505a01", "0314000dc8b8ddd143ea021ae0a6d199a410acfd960dc9789d6d1ff1e8fe2d0764"], "sequence": 4294967294, "scriptSig": {"hex": "1600142255a0ca1b22a07f94b80c3d19e7b68ae57c2a8a", "asm": "00142255a0ca1b22a07f94b80c3d19e7b68ae57c2a8a"}, "vout": 1, "txid": "fdced01625b5b520a4e40e64d5776331f9ecfa148774455b9c45a25e4d9a9406"}, {"txinwitness": ["3045022100b551aa9b2b6bfb9e1ebae8bc55685fbd73ae0e6d7aba79d31fba4971f809b01d02201a06d0ceb720d6d99edc4d0a5719b02f673aee755824d38fff5b106591ba863501", "0313ecd5c65a7d64b7969949101ad58e735331fd7fea0532f24b4025530202ed54"], "sequence": 4294967294, "scriptSig": {"hex": "160014870fff8dbb58ddc39ba60171780acdcfb424ea67", "asm": "0014870fff8dbb58ddc39ba60171780acdcfb424ea67"}, "vout": 1, "txid": "6b235cd918bdf719da76f91f7c54d28df138f19112fdbbe59069e05488db1d7b"}], "txid": "f9c339e50765ae953c23c3caa18d25eed0e7aa9fbe56fc123df7cda44cc47fc6", "blocktime": 1537871767, "version": 2, "confirmations": 11495, "time": 1537871767, "locktime": 0, "vsize": 291, "size": 454}