{"hash": "f9c5a55b97dc136bfabf0321231961872a62266f3fc66a3ff37cb2e9d1fcbad0", "blockhash": "0000000000000000001f0ddff1eddb255c1121bcd4da4f1bc9a0da00cae72433", "vout": [{"scriptPubKey": {"reqSigs": 1, "hex": "76a9146a03d60bef03f4e8ef2805edc41e51033117677b88ac", "addresses": ["1AfZDsbNa9QDS7wKUTW2DyPneQwN8x2LtW"], "asm": "OP_DUP OP_HASH160 6a03d60bef03f4e8ef2805edc41e51033117677b OP_EQUALVERIFY OP_CHECKSIG", "type": "pubkeyhash"}, "value": 0.005, "n": 0}, {"scriptPubKey": {"reqSigs": 1, "hex": "76a9145a55c8a39083ac2a9f038c137ce4ca1cbc6711de88ac", "addresses": ["19EeadBkzw1NFEZ2yAYh4F9bpC5yU6aLa1"], "asm": "OP_DUP OP_HASH160 5a55c8a39083ac2a9f038c137ce4ca1cbc6711de OP_EQUALVERIFY OP_CHECKSIG", "type": "pubkeyhash"}, "value": 0.00658824, "n": 1}], "hex": "0100000001a50029868922b770819f6f71ac591f970fd8624d60d711564ad5796ff6a0068d010000006b483045022100dc204fe5fa34aa7dc78bacdfd4c95b6706f6bc0d0fe24518f78aa0d9ed79b61d022040694002dd68363b9c88560dfca49eb7c9765f310e047aaa6bc098d92fbaef0d01210300fc6d45503dfda40c4fb5df895cc9fb9ae32b5d1bb47b7e7d7fd81cb4a460e6fdffffff0220a10700000000001976a9146a03d60bef03f4e8ef2805edc41e51033117677b88ac880d0a00000000001976a9145a55c8a39083ac2a9f038c137ce4ca1cbc6711de88ac10490800", "vin": [{"sequence": 4294967293, "scriptSig": {"hex": "483045022100dc204fe5fa34aa7dc78bacdfd4c95b6706f6bc0d0fe24518f78aa0d9ed79b61d022040694002dd68363b9c88560dfca49eb7c9765f310e047aaa6bc098d92fbaef0d01210300fc6d45503dfda40c4fb5df895cc9fb9ae32b5d1bb47b7e7d7fd81cb4a460e6", "asm": "3045022100dc204fe5fa34aa7dc78bacdfd4c95b6706f6bc0d0fe24518f78aa0d9ed79b61d022040694002dd68363b9c88560dfca49eb7c9765f310e047aaa6bc098d92fbaef0d[ALL] 0300fc6d45503dfda40c4fb5df895cc9fb9ae32b5d1bb47b7e7d7fd81cb4a460e6"}, "vout": 1, "txid": "8d06a0f66f79d54a5611d7604d62d80f971f59ac716f9f8170b72289862900a5"}], "txid": "f9c5a55b97dc136bfabf0321231961872a62266f3fc66a3ff37cb2e9d1fcbad0", "blocktime": 1537872018, "version": 1, "confirmations": 11489, "time": 1537872018, "locktime": 542992, "vsize": 226, "size": 226}