{"hash": "f9cf2dcf8852346c5c8aab3e1edd8f0f86fde5a812c8c51aec71f0076bff6cc0", "blockhash": "0000000000000000000baef3f32e3676a92c3b2e5da21b426e4f302fc371ce76", "vout": [{"scriptPubKey": {"reqSigs": 1, "hex": "76a914e9eeb36c844256047cf0b6c3233f7c1f47ebc61b88ac", "addresses": ["1NKvPvbNtu7rJU8yHxNRJ2fYhCVyofPyjT"], "asm": "OP_DUP OP_HASH160 e9eeb36c844256047cf0b6c3233f7c1f47ebc61b OP_EQUALVERIFY OP_CHECKSIG", "type": "pubkeyhash"}, "value": 1.24544822, "n": 0}], "hex": "01000000283a021f82daea0ca99d68fddfde162d6c2eb8285f62f9b8fb7bc1bec5769d6f52000000006a47304402206c489491cac2fd492b3fa955efce9a0f4809e4e8c95513fdd612b8c441e3ac8902205448f2df423b6a7ec945131912c5d5e79bea221d2b6716a2f14a86f4bd2caafe012102fa3d8c58a1bc8e03aa3378612f4722933064d638d3af954ae55d1a7cc26509cafcffffff0e594701ff56c788a438422ce88db0460907d41b17866f6b3b7ea0acb7919ce0000000006b483045022100ae839e665e7be4394b645489c67b1557794f96afb7ef88e61a383e41f8f93ba8022052ff60fb8c3f28032beb1da5b847fbbe33ec0726a6e00de330aaa7a495316ae3012102fa3d8c58a1bc8e03aa3378612f4722933064d638d3af954ae55d1a7cc26509cafcffffff140a1bf07ddab0ff2269d03eb0edbea5faa903fd629bcf061dddbfccbf176695000000006a47304402200f8824f55c896ecff038383fd3e65fb36b49428fd1acca0a45ae310865ddde8602206e886f552ac6fd0e104efe5c5be44453395046fa71e22fb6f8bc2a05e97d38c4012102fa3d8c58a1bc8e03aa3378612f4722933064d638d3af954ae55d1a7cc26509cafcffffff3467c0d976819279bf040553300daed84d9d192ca95d28f63d18ae5577afab7f010000006b483045022100ff8ce221d16be13c1f79835105bfcfc6d5a6d8263aca3b582efb9ce9f194d95b02204d216a5240215789c7d85f0e07f53c0d4ddf19a57895bbcc02de0b389348b7fa012102fa3d8c58a1bc8e03aa3378612f4722933064d638d3af954ae55d1a7cc26509cafcffffff273b6b17e09b260b222b75499e00d0ead3f03fd08645a15aa2c87764f6794034000000006b483045022100d28f969e18c439ebbfaf2197690865b104ae4680a9f61aef63ac72d88ae4297002202e6fa6777fb80f81747245aa00068c899a444b5c070682c2cfd6fb8e99b4f413012102fa3d8c58a1bc8e03aa3378612f4722933064d638d3af954ae55d1a7cc26509cafcffffffaf29bfdfe363e141743ea55f3cc258e38652b58629e63e016a1faaf3780ed743000000006b483045022100866497fe2e0ee611b407ef26d0626beea99747d1d247675c957589ed14bfa29d02204822b4fb67e69e942ddc2e456d3b53ef092dd6a5c4ee8c13f189a521da6bcb6d012102fa3d8c58a1bc8e03aa3378612f4722933064d638d3af954ae55d1a7cc26509cafcffffffb1ef5f26e19a8336c8e4d91b8d0661853552faa5b04808ea639312de4e6877b3010000006b4830450221009553bc7cb1a82273d339d52710870d5f95733ed386e4915935e73934e4ad2d1402206cf9fa04726f507c582bde1890afa72663fe87788787935d18b395d06a83871d012102fa3d8c58a1bc8e03aa3378612f4722933064d638d3af954ae55d1a7cc26509cafcffffff2a32c1dbb1806898c8d4422f38cca9cd8e267f4024b6df4f76c6466b33432d52010000006b483045022100dd0a3588810995e37ffe6a75f3a1d20d4da48f6ec71adde343233a6b89a8e5570220653628728f2637d6f1f7f33f5131c5f813ea4a4780cc3c8d8cda2e3b3aef031e012102fa3d8c58a1bc8e03aa3378612f4722933064d638d3af954ae55d1a7cc26509cafcfffffffafb098844cc8a833dee6ae75f8818700ea550d58a5811c4f21a68b1b8de4cb6000000006b483045022100c7f4b244a5fe14219da7b5524e9ffa5d659e691c51cae2d7c2a1262af813436302205037de05e231d67516ec23c6ede412ec4ecbe1e17dc3c0013cb42872cf8d838e012102fa3d8c58a1bc8e03aa3378612f4722933064d638d3af954ae55d1a7cc26509cafcffffffb3d979e0a5af75d0eec8a116fb92ad0b4bc39071e7e13d386e11762ee3b7f22a010000006a47304402206fd9bb29e339108d345542a43942752be339bbc5cf7c1fac4796652f22ab35520220756d25c749deeef44e86c85817f92fbe1ffd2f5644a956955659db96d51b96de012102fa3d8c58a1bc8e03aa3378612f4722933064d638d3af954ae55d1a7cc26509cafcffffff647c3630e9885a3a87d59937fa958a4a1a9d994bbca7a1c96ae322d63ab93b07010000006b483045022100f53cb29703a2f2dfa256717410c2924d2a05870c1d62405953adf64f5a0f7ace022052589bc9e27947b20ad9940ba7cccdbeffd5ca2bf6472cf7f93a4e952409909c012102fa3d8c58a1bc8e03aa3378612f4722933064d638d3af954ae55d1a7cc26509cafcffffff9fa42fa31ee750cc903c3560e3c85807ee8b5fbbf0c9f8b97d27cf93b62911b8010000006b483045022100d059647be28f162f185c9f59b4b278c7f4a3d70a6909da1386a4d138d145b09f022042f7dcfad582e262b1c3be512874c917b6eda9d48c078912f294e5bc2e54ae95012102fa3d8c58a1bc8e03aa3378612f4722933064d638d3af954ae55d1a7cc26509cafcffffffb9a79dcd548f3d7947915aab9c992a6b9f919e9f43ed8a98fa7750e8c8a358c2010000006b48304502210087195866daf93a8534b82028f1da510078639d9f1213643a05e7b1cdc8967072022014b615c2774146b732aadd4dc86d520e3dadb420a3327172c4ea7825c7f453d6012102fa3d8c58a1bc8e03aa3378612f4722933064d638d3af954ae55d1a7cc26509cafcffffff149442ca44e9448d87f95f788f9c4f06515c9a6d8675472eba532d7360c95b2f000000006b483045022100a08478deade8e476a5a2af29bd231d3142fffea5c1e9eed420533cd1274b71cf02205490ba148b3209c0daa2e87a5876df8085140b094c6641fa05f017e592e9e61c012102fa3d8c58a1bc8e03aa3378612f4722933064d638d3af954ae55d1a7cc26509cafcffffff2c83b21ab8962e950f30d0f7e4e336410ab56ce3d7914f611c540ae130705240000000006a4730440220311d3485ad45277938ac208368aaaf809ba64fcdf47bfc38000a19bbc613315e02203149edce7f87393ad35e17e9879b8aa3c6fcc4d02243c12d22d9a93ae6ebcffc012102fa3d8c58a1bc8e03aa3378612f4722933064d638d3af954ae55d1a7cc26509cafcffffff5b45676930c456a8ed51c6b07aa049803ed6af7832b5295087e180ad19d2f720000000006b483045022100c8e5697161c5b8d0e774b2a916ad9c6e4a5cd55dc3be4e006355090d1ece2a170220327eea84fac92c78f96f4cfa9a53f3e92eb9300a2797fe9a683fc17ed10a2c58012102fa3d8c58a1bc8e03aa3378612f4722933064d638d3af954ae55d1a7cc26509cafcffffff4e414075557f23ccf7f6311758cb09f7fdd7d4fa9ba896e92a3543241e10765f000000006a47304402207af3e8c44dd97c24568f18e960398cd01639577f89abf31ec68d7860fa27927102205114749daf2a1852acd379ccebd8cad0f499055f87b242516cd03368edfab59e012102fa3d8c58a1bc8e03aa3378612f4722933064d638d3af954ae55d1a7cc26509cafcffffff6eb6348f9e5d7771cc3b2b91ded4b45202ad24b90fa7005dd069a9249d690983000000006a47304402207e0f43cbf62c112d4159d4ff60706c17311f84889248d832137d521399a4b616022016e3ee0cd1bb46ef903064ceb7ffcb42ca98e9e5c7e890e93630f35cbb4a57dc012102fa3d8c58a1bc8e03aa3378612f4722933064d638d3af954ae55d1a7cc26509cafcffffffa18a2f6349e3ef206caf93ec7d80f38bcc182306399aed4900ce175e27bd8e54000000006b483045022100c8681b46c3fa005380c49405a7426ba9f5bfc264a1e5d0620bc2b2403fb23f000220467abcaabfdab13318d1878e318ec9b27f38557f5645d5046d07aa184ea1cbeb012102fa3d8c58a1bc8e03aa3378612f4722933064d638d3af954ae55d1a7cc26509cafcfffffff481574ff64d83cc971d966c7396366c036655addd85b2be8c6ddbb582c99f96000000006b48304502210094703fc1bacb07eef72b829ed1b80694735900cb0d129f252dcf04be494a379302204dd4f9991bb13f81c931dfba96d7008673b20468ca331e39092554f800a9b636012102fa3d8c58a1bc8e03aa3378612f4722933064d638d3af954ae55d1a7cc26509cafcffffffe88feb4e5b066e3551fcfb62d51804810022f9f200cebf00bd35ffb20957ecf0000000006b4830450221008a311f63c67af09e3d8e2c6b7323a5b1f055ffab31524180c154c63109202e9f02206abfdbb5eafec4e83078c24b0d691d78b12dcc2fd673ccd7e25743ed32140ab0012102fa3d8c58a1bc8e03aa3378612f4722933064d638d3af954ae55d1a7cc26509cafcffffff8c56e4a84f7e3f809c5427f1fd0a5f5079cb93fe6bcb5aa4a3a3e9140e878c45000000006a4730440220190fcf396ca0531df2b71bc6b496fad775aec591b867de3105c80ffbdd1e7d2502200b21ea7b317f64d5d52c48983f157943399d56b3d121c184b8368205f2891647012102fa3d8c58a1bc8e03aa3378612f4722933064d638d3af954ae55d1a7cc26509cafcffffff00a55a6ffeb9f304d6e1cd74c4617596c92c050b222d16d347737fbf18b7e38400000000694630430220521a93ac60eed5357f670b262be6f1af869aad7218b1c829e8443258a746e473021f0f7d437a2f18237a6b07ab19424aeaed6033eaee2d0f2f3a5600f45adc9ad8012102fa3d8c58a1bc8e03aa3378612f4722933064d638d3af954ae55d1a7cc26509cafcffffffeda46bebac235a38b8c23cfbb162d195fd12a59da30a0db3a88161611702774b000000006b483045022100cf49a8049246a48b2a0671f47f9719d6b2a79a0f2b1cb20150743c295610073c0220320ebc256c035a5df950e3b00a1b192b01654c951bb31ac04aefff570c131fd4012102fa3d8c58a1bc8e03aa3378612f4722933064d638d3af954ae55d1a7cc26509cafcffffff7e402b33373e122c9c0bdbc16675562cbe3b68fb29c1c23059db6b98cb30c8e8010000006a4730440220664bcd1e83c5597747598569f149889dcaed48851522543b8df6e989ae1859d902202b494eaecbb5fbc9f4182006b3a96729349f57e2a4bc7984c155434f733d0165012102fa3d8c58a1bc8e03aa3378612f4722933064d638d3af954ae55d1a7cc26509cafcffffff4befdf4df4d45e8287d8f61cc550cc61fecd9f3d81adbdf28307eb42bbc9cb31010000006b483045022100b753b77d60d44824068fc7fcf974e655be47475bb4ec97422d1ab54033c060da02201eb26ff27a4a40fc1660a070b9f88f9ea1cd4529d1fea5045880ceab73e8ff6f012102fa3d8c58a1bc8e03aa3378612f4722933064d638d3af954ae55d1a7cc26509cafcffffff64a11824cec6647cf5347ac046e22657e431c5d6390fdc04ac4c13c41daab761010000006b483045022100f35b90cb5f235fc4459d5ce59adbb186415e4eba7dcc809bf5f421353ef987620220465a1d60b6d32202acea4c723e4fd262455ccb61de29e01e2d3d9513a816dbf6012102fa3d8c58a1bc8e03aa3378612f4722933064d638d3af954ae55d1a7cc26509cafcffffffe80c34c76c315864774f429c82e7c28d597bf555d4f6db288a61ac9351daef96010000006b483045022100814ba164bb528eaa292867eae4943ece590b4e71f944ef8f0327cf040598466602205a4c6463e25a093ec336a79dcda2c256662695a04e30cfa147acd912e0a1e640012102fa3d8c58a1bc8e03aa3378612f4722933064d638d3af954ae55d1a7cc26509cafcffffff633cd8169230f16197c3fe29f9879eec7dcddd5c9e9820869de182ee0ab93019010000006a4730440220423671b165e582a6b5aa04d00bb68f57b267049f04994293d4aa573949fb8ed4022032965e9016d9063ebcfbc0436b4766d770102dda3ef192a085a242af215d964e012102fa3d8c58a1bc8e03aa3378612f4722933064d638d3af954ae55d1a7cc26509cafcffffffcb72d158ea033fd3eb176314f611c4b2b8b588223e419136c120915b9765fb3c010000006b483045022100e93e2ac733fb6f6fd81ec4a753966faf00c78052cfb22ebabfdd25778ef1216902203d3212b144516ffb299a24a96f5101f91ae15bea56c22d8510548bfc2b0ac9d7012102fa3d8c58a1bc8e03aa3378612f4722933064d638d3af954ae55d1a7cc26509cafcffffff96085bfc16cb5a65eac31db6b9d97610593fe867de5ed2c4c123ddee11f9dfda010000006a473044022013f02532db2a58107794d4e458809c6aaaa284308020e9e37a539bb9556d45e0022013299f71ac8de67ee2fcc9df6a951c35c915162be1963d8670f79fe4313dc35e012102fa3d8c58a1bc8e03aa3378612f4722933064d638d3af954ae55d1a7cc26509cafcffffff83b9ab8a715774d852dd060b593694b05ddc26dbbd9814bf0e150bfe2f692199010000006b483045022100f82b8b8911e13ea0f1504467100938eed24499dbe212d7a688162f074855d18902204d96919f3e184de5b5ea210ad7579e9122fcf3a7bc0ae88407b588c371b011c5012102fa3d8c58a1bc8e03aa3378612f4722933064d638d3af954ae55d1a7cc26509cafcffffff103047a6d41b85510a14d83d2f3a2295457b8fc1a64cc492ede42862513bdd3c010000006a473044022050025db0608fcf854e88f8deaf6fde7b3ed565f86f9c155c6756bf5071e9402802205a094d4a450f498f09ffd3063d495a00549a95844c643bd29cbb20a9d7611d5c012102fa3d8c58a1bc8e03aa3378612f4722933064d638d3af954ae55d1a7cc26509cafcffffffca82fe2c5ce9849083996b8b4c73ce83caa2502ee56917bd1425940eb76a744a010000006a47304402204cfe622a41e57edcdb1f5dd028e6313172a2f8fbd29ed8b3701322efd2437c0702207f8e9e5266be15154aedd92e09901f5e09ed2f38c9c4029c8c534e4d5ff4907b012102fa3d8c58a1bc8e03aa3378612f4722933064d638d3af954ae55d1a7cc26509cafcffffff8c14ead1541a541d16e8f1bd6f93646579d7859a15d346b16ad0b6d3957499b0010000006b483045022100e786177f545b7bd79b513172cc324d877e6384e7cc6c39467c9bbfaa786d825102205270976782dbe40ed9dcf974c63d90f3a5a2cf86686f5992347036f186693efb012102fa3d8c58a1bc8e03aa3378612f4722933064d638d3af954ae55d1a7cc26509cafcfffffff720909010284ae05084ad93866b982574988bb6b89cefeba064fdf24dbb75db010000006b48304502210093beb23909f1ec2a166bbbb9df948ccc3e0fb1aeb455245da1e1bd57ac09240102203a3952d2a776010f3db6f273c4f0c0116e62ef8fb6d22fb26918aa9b78fdbfff012102fa3d8c58a1bc8e03aa3378612f4722933064d638d3af954ae55d1a7cc26509cafcfffffffa4f8c410e00f23a1b61467305bb3bcb0b9a3f3079c1ebc92fa041cfaeda809d010000006b483045022100e9b8a43b9daa487e3d6fe5b58074fa9f5642c46f9d2b091f48beb9eb5b55d41b0220120d696f3241972c6dfa0565c6409d1f34783627188f3c9c7905f5116c7183b3012102fa3d8c58a1bc8e03aa3378612f4722933064d638d3af954ae55d1a7cc26509cafcffffff526f4f4a9d875f1307483e52012f4146ba6afccc0641501d934185bf657b7fbf010000006b4830450221009f4ece12feafa287fae51b4fcdf71f3227619cf29a472687811b2c57f1d5f4f4022027a0fc9a6692cbea3444cdc84b2624f107753d8e248201768e6f052d297125ce012102fa3d8c58a1bc8e03aa3378612f4722933064d638d3af954ae55d1a7cc26509cafcffffffe052a3396afcbcc1895eaf8a96564fe1ded27396b8360540bd51ec312fcca9bb010000006a4730440220054d9f90353b9b84ff38fb582e87093af526e7644d28fd2a6ce9a44adaa25b4a02206e2c94bbea13afd34cafaf394167a01deedb783bf90101538e587a95d6e56206012102fa3d8c58a1bc8e03aa3378612f4722933064d638d3af954ae55d1a7cc26509cafcffffff2a38631c071a02c7a818a053920e6627997d21be443d2752f5a591c1a3781490010000006a47304402207f1dc1d79a8435fba63d3ae0d3e6ee13ba95fe3e4f91f1bbb9a7c46709b2b4e7022034a58772da64540c7c9f0013e10f3dee2dddd362bedecdc05fa76ae4cb2a3ae2012102fa3d8c58a1bc8e03aa3378612f4722933064d638d3af954ae55d1a7cc26509cafcffffff0136676c07000000001976a914e9eeb36c844256047cf0b6c3233f7c1f47ebc61b88ac00000000", "vin": [{"sequence": 4294967292, "scriptSig": {"hex": "47304402206c489491cac2fd492b3fa955efce9a0f4809e4e8c95513fdd612b8c441e3ac8902205448f2df423b6a7ec945131912c5d5e79bea221d2b6716a2f14a86f4bd2caafe012102fa3d8c58a1bc8e03aa3378612f4722933064d638d3af954ae55d1a7cc26509ca", "asm": "304402206c489491cac2fd492b3fa955efce9a0f4809e4e8c95513fdd612b8c441e3ac8902205448f2df423b6a7ec945131912c5d5e79bea221d2b6716a2f14a86f4bd2caafe[ALL] 02fa3d8c58a1bc8e03aa3378612f4722933064d638d3af954ae55d1a7cc26509ca"}, "vout": 0, "txid": "526f9d76c5bec17bfbb8f9625f28b82e6c2d16dedffd689da90ceada821f023a"}, {"sequence": 4294967292, "scriptSig": {"hex": "483045022100ae839e665e7be4394b645489c67b1557794f96afb7ef88e61a383e41f8f93ba8022052ff60fb8c3f28032beb1da5b847fbbe33ec0726a6e00de330aaa7a495316ae3012102fa3d8c58a1bc8e03aa3378612f4722933064d638d3af954ae55d1a7cc26509ca", "asm": "3045022100ae839e665e7be4394b645489c67b1557794f96afb7ef88e61a383e41f8f93ba8022052ff60fb8c3f28032beb1da5b847fbbe33ec0726a6e00de330aaa7a495316ae3[ALL] 02fa3d8c58a1bc8e03aa3378612f4722933064d638d3af954ae55d1a7cc26509ca"}, "vout": 0, "txid": "e09c91b7aca07e3b6b6f86171bd4070946b08de82c4238a488c756ff0147590e"}, {"sequence": 4294967292, "scriptSig": {"hex": "47304402200f8824f55c896ecff038383fd3e65fb36b49428fd1acca0a45ae310865ddde8602206e886f552ac6fd0e104efe5c5be44453395046fa71e22fb6f8bc2a05e97d38c4012102fa3d8c58a1bc8e03aa3378612f4722933064d638d3af954ae55d1a7cc26509ca", "asm": "304402200f8824f55c896ecff038383fd3e65fb36b49428fd1acca0a45ae310865ddde8602206e886f552ac6fd0e104efe5c5be44453395046fa71e22fb6f8bc2a05e97d38c4[ALL] 02fa3d8c58a1bc8e03aa3378612f4722933064d638d3af954ae55d1a7cc26509ca"}, "vout": 0, "txid": "956617bfccbfdd1d06cf9b62fd03a9faa5beedb03ed06922ffb0da7df01b0a14"}, {"sequence": 4294967292, "scriptSig": {"hex": "483045022100ff8ce221d16be13c1f79835105bfcfc6d5a6d8263aca3b582efb9ce9f194d95b02204d216a5240215789c7d85f0e07f53c0d4ddf19a57895bbcc02de0b389348b7fa012102fa3d8c58a1bc8e03aa3378612f4722933064d638d3af954ae55d1a7cc26509ca", "asm": "3045022100ff8ce221d16be13c1f79835105bfcfc6d5a6d8263aca3b582efb9ce9f194d95b02204d216a5240215789c7d85f0e07f53c0d4ddf19a57895bbcc02de0b389348b7fa[ALL] 02fa3d8c58a1bc8e03aa3378612f4722933064d638d3af954ae55d1a7cc26509ca"}, "vout": 1, "txid": "7fabaf7755ae183df6285da92c199d4dd8ae0d30530504bf79928176d9c06734"}, {"sequence": 4294967292, "scriptSig": {"hex": "483045022100d28f969e18c439ebbfaf2197690865b104ae4680a9f61aef63ac72d88ae4297002202e6fa6777fb80f81747245aa00068c899a444b5c070682c2cfd6fb8e99b4f413012102fa3d8c58a1bc8e03aa3378612f4722933064d638d3af954ae55d1a7cc26509ca", "asm": "3045022100d28f969e18c439ebbfaf2197690865b104ae4680a9f61aef63ac72d88ae4297002202e6fa6777fb80f81747245aa00068c899a444b5c070682c2cfd6fb8e99b4f413[ALL] 02fa3d8c58a1bc8e03aa3378612f4722933064d638d3af954ae55d1a7cc26509ca"}, "vout": 0, "txid": "344079f66477c8a25aa14586d03ff0d3ead0009e49752b220b269be0176b3b27"}, {"sequence": 4294967292, "scriptSig": {"hex": "483045022100866497fe2e0ee611b407ef26d0626beea99747d1d247675c957589ed14bfa29d02204822b4fb67e69e942ddc2e456d3b53ef092dd6a5c4ee8c13f189a521da6bcb6d012102fa3d8c58a1bc8e03aa3378612f4722933064d638d3af954ae55d1a7cc26509ca", "asm": "3045022100866497fe2e0ee611b407ef26d0626beea99747d1d247675c957589ed14bfa29d02204822b4fb67e69e942ddc2e456d3b53ef092dd6a5c4ee8c13f189a521da6bcb6d[ALL] 02fa3d8c58a1bc8e03aa3378612f4722933064d638d3af954ae55d1a7cc26509ca"}, "vout": 0, "txid": "43d70e78f3aa1f6a013ee62986b55286e358c23c5fa53e7441e163e3dfbf29af"}, {"sequence": 4294967292, "scriptSig": {"hex": "4830450221009553bc7cb1a82273d339d52710870d5f95733ed386e4915935e73934e4ad2d1402206cf9fa04726f507c582bde1890afa72663fe87788787935d18b395d06a83871d012102fa3d8c58a1bc8e03aa3378612f4722933064d638d3af954ae55d1a7cc26509ca", "asm": "30450221009553bc7cb1a82273d339d52710870d5f95733ed386e4915935e73934e4ad2d1402206cf9fa04726f507c582bde1890afa72663fe87788787935d18b395d06a83871d[ALL] 02fa3d8c58a1bc8e03aa3378612f4722933064d638d3af954ae55d1a7cc26509ca"}, "vout": 1, "txid": "b377684ede129363ea0848b0a5fa52358561068d1bd9e4c836839ae1265fefb1"}, {"sequence": 4294967292, "scriptSig": {"hex": "483045022100dd0a3588810995e37ffe6a75f3a1d20d4da48f6ec71adde343233a6b89a8e5570220653628728f2637d6f1f7f33f5131c5f813ea4a4780cc3c8d8cda2e3b3aef031e012102fa3d8c58a1bc8e03aa3378612f4722933064d638d3af954ae55d1a7cc26509ca", "asm": "3045022100dd0a3588810995e37ffe6a75f3a1d20d4da48f6ec71adde343233a6b89a8e5570220653628728f2637d6f1f7f33f5131c5f813ea4a4780cc3c8d8cda2e3b3aef031e[ALL] 02fa3d8c58a1bc8e03aa3378612f4722933064d638d3af954ae55d1a7cc26509ca"}, "vout": 1, "txid": "522d43336b46c6764fdfb624407f268ecda9cc382f42d4c8986880b1dbc1322a"}, {"sequence": 4294967292, "scriptSig": {"hex": "483045022100c7f4b244a5fe14219da7b5524e9ffa5d659e691c51cae2d7c2a1262af813436302205037de05e231d67516ec23c6ede412ec4ecbe1e17dc3c0013cb42872cf8d838e012102fa3d8c58a1bc8e03aa3378612f4722933064d638d3af954ae55d1a7cc26509ca", "asm": "3045022100c7f4b244a5fe14219da7b5524e9ffa5d659e691c51cae2d7c2a1262af813436302205037de05e231d67516ec23c6ede412ec4ecbe1e17dc3c0013cb42872cf8d838e[ALL] 02fa3d8c58a1bc8e03aa3378612f4722933064d638d3af954ae55d1a7cc26509ca"}, "vout": 0, "txid": "b64cdeb8b1681af2c411588ad550a50e7018885fe76aee3d838acc448809fbfa"}, {"sequence": 4294967292, "scriptSig": {"hex": "47304402206fd9bb29e339108d345542a43942752be339bbc5cf7c1fac4796652f22ab35520220756d25c749deeef44e86c85817f92fbe1ffd2f5644a956955659db96d51b96de012102fa3d8c58a1bc8e03aa3378612f4722933064d638d3af954ae55d1a7cc26509ca", "asm": "304402206fd9bb29e339108d345542a43942752be339bbc5cf7c1fac4796652f22ab35520220756d25c749deeef44e86c85817f92fbe1ffd2f5644a956955659db96d51b96de[ALL] 02fa3d8c58a1bc8e03aa3378612f4722933064d638d3af954ae55d1a7cc26509ca"}, "vout": 1, "txid": "2af2b7e32e76116e383de1e77190c34b0bad92fb16a1c8eed075afa5e079d9b3"}, {"sequence": 4294967292, "scriptSig": {"hex": "483045022100f53cb29703a2f2dfa256717410c2924d2a05870c1d62405953adf64f5a0f7ace022052589bc9e27947b20ad9940ba7cccdbeffd5ca2bf6472cf7f93a4e952409909c012102fa3d8c58a1bc8e03aa3378612f4722933064d638d3af954ae55d1a7cc26509ca", "asm": "3045022100f53cb29703a2f2dfa256717410c2924d2a05870c1d62405953adf64f5a0f7ace022052589bc9e27947b20ad9940ba7cccdbeffd5ca2bf6472cf7f93a4e952409909c[ALL] 02fa3d8c58a1bc8e03aa3378612f4722933064d638d3af954ae55d1a7cc26509ca"}, "vout": 1, "txid": "073bb93ad622e36ac9a1a7bc4b999d1a4a8a95fa3799d5873a5a88e930367c64"}, {"sequence": 4294967292, "scriptSig": {"hex": "483045022100d059647be28f162f185c9f59b4b278c7f4a3d70a6909da1386a4d138d145b09f022042f7dcfad582e262b1c3be512874c917b6eda9d48c078912f294e5bc2e54ae95012102fa3d8c58a1bc8e03aa3378612f4722933064d638d3af954ae55d1a7cc26509ca", "asm": "3045022100d059647be28f162f185c9f59b4b278c7f4a3d70a6909da1386a4d138d145b09f022042f7dcfad582e262b1c3be512874c917b6eda9d48c078912f294e5bc2e54ae95[ALL] 02fa3d8c58a1bc8e03aa3378612f4722933064d638d3af954ae55d1a7cc26509ca"}, "vout": 1, "txid": "b81129b693cf277db9f8c9f0bb5f8bee0758c8e360353c90cc50e71ea32fa49f"}, {"sequence": 4294967292, "scriptSig": {"hex": "48304502210087195866daf93a8534b82028f1da510078639d9f1213643a05e7b1cdc8967072022014b615c2774146b732aadd4dc86d520e3dadb420a3327172c4ea7825c7f453d6012102fa3d8c58a1bc8e03aa3378612f4722933064d638d3af954ae55d1a7cc26509ca", "asm": "304502210087195866daf93a8534b82028f1da510078639d9f1213643a05e7b1cdc8967072022014b615c2774146b732aadd4dc86d520e3dadb420a3327172c4ea7825c7f453d6[ALL] 02fa3d8c58a1bc8e03aa3378612f4722933064d638d3af954ae55d1a7cc26509ca"}, "vout": 1, "txid": "c258a3c8e85077fa988aed439f9e919f6b2a999cab5a9147793d8f54cd9da7b9"}, {"sequence": 4294967292, "scriptSig": {"hex": "483045022100a08478deade8e476a5a2af29bd231d3142fffea5c1e9eed420533cd1274b71cf02205490ba148b3209c0daa2e87a5876df8085140b094c6641fa05f017e592e9e61c012102fa3d8c58a1bc8e03aa3378612f4722933064d638d3af954ae55d1a7cc26509ca", "asm": "3045022100a08478deade8e476a5a2af29bd231d3142fffea5c1e9eed420533cd1274b71cf02205490ba148b3209c0daa2e87a5876df8085140b094c6641fa05f017e592e9e61c[ALL] 02fa3d8c58a1bc8e03aa3378612f4722933064d638d3af954ae55d1a7cc26509ca"}, "vout": 0, "txid": "2f5bc960732d53ba2e4775866d9a5c51064f9c8f785ff9878d44e944ca429414"}, {"sequence": 4294967292, "scriptSig": {"hex": "4730440220311d3485ad45277938ac208368aaaf809ba64fcdf47bfc38000a19bbc613315e02203149edce7f87393ad35e17e9879b8aa3c6fcc4d02243c12d22d9a93ae6ebcffc012102fa3d8c58a1bc8e03aa3378612f4722933064d638d3af954ae55d1a7cc26509ca", "asm": "30440220311d3485ad45277938ac208368aaaf809ba64fcdf47bfc38000a19bbc613315e02203149edce7f87393ad35e17e9879b8aa3c6fcc4d02243c12d22d9a93ae6ebcffc[ALL] 02fa3d8c58a1bc8e03aa3378612f4722933064d638d3af954ae55d1a7cc26509ca"}, "vout": 0, "txid": "40527030e10a541c614f91d7e36cb50a4136e3e4f7d0300f952e96b81ab2832c"}, {"sequence": 4294967292, "scriptSig": {"hex": "483045022100c8e5697161c5b8d0e774b2a916ad9c6e4a5cd55dc3be4e006355090d1ece2a170220327eea84fac92c78f96f4cfa9a53f3e92eb9300a2797fe9a683fc17ed10a2c58012102fa3d8c58a1bc8e03aa3378612f4722933064d638d3af954ae55d1a7cc26509ca", "asm": "3045022100c8e5697161c5b8d0e774b2a916ad9c6e4a5cd55dc3be4e006355090d1ece2a170220327eea84fac92c78f96f4cfa9a53f3e92eb9300a2797fe9a683fc17ed10a2c58[ALL] 02fa3d8c58a1bc8e03aa3378612f4722933064d638d3af954ae55d1a7cc26509ca"}, "vout": 0, "txid": "20f7d219ad80e1875029b53278afd63e8049a07ab0c651eda856c4306967455b"}, {"sequence": 4294967292, "scriptSig": {"hex": "47304402207af3e8c44dd97c24568f18e960398cd01639577f89abf31ec68d7860fa27927102205114749daf2a1852acd379ccebd8cad0f499055f87b242516cd03368edfab59e012102fa3d8c58a1bc8e03aa3378612f4722933064d638d3af954ae55d1a7cc26509ca", "asm": "304402207af3e8c44dd97c24568f18e960398cd01639577f89abf31ec68d7860fa27927102205114749daf2a1852acd379ccebd8cad0f499055f87b242516cd03368edfab59e[ALL] 02fa3d8c58a1bc8e03aa3378612f4722933064d638d3af954ae55d1a7cc26509ca"}, "vout": 0, "txid": "5f76101e2443352ae996a89bfad4d7fdf709cb581731f6f7cc237f557540414e"}, {"sequence": 4294967292, "scriptSig": {"hex": "47304402207e0f43cbf62c112d4159d4ff60706c17311f84889248d832137d521399a4b616022016e3ee0cd1bb46ef903064ceb7ffcb42ca98e9e5c7e890e93630f35cbb4a57dc012102fa3d8c58a1bc8e03aa3378612f4722933064d638d3af954ae55d1a7cc26509ca", "asm": "304402207e0f43cbf62c112d4159d4ff60706c17311f84889248d832137d521399a4b616022016e3ee0cd1bb46ef903064ceb7ffcb42ca98e9e5c7e890e93630f35cbb4a57dc[ALL] 02fa3d8c58a1bc8e03aa3378612f4722933064d638d3af954ae55d1a7cc26509ca"}, "vout": 0, "txid": "8309699d24a969d05d00a70fb924ad0252b4d4de912b3bcc71775d9e8f34b66e"}, {"sequence": 4294967292, "scriptSig": {"hex": "483045022100c8681b46c3fa005380c49405a7426ba9f5bfc264a1e5d0620bc2b2403fb23f000220467abcaabfdab13318d1878e318ec9b27f38557f5645d5046d07aa184ea1cbeb012102fa3d8c58a1bc8e03aa3378612f4722933064d638d3af954ae55d1a7cc26509ca", "asm": "3045022100c8681b46c3fa005380c49405a7426ba9f5bfc264a1e5d0620bc2b2403fb23f000220467abcaabfdab13318d1878e318ec9b27f38557f5645d5046d07aa184ea1cbeb[ALL] 02fa3d8c58a1bc8e03aa3378612f4722933064d638d3af954ae55d1a7cc26509ca"}, "vout": 0, "txid": "548ebd275e17ce0049ed9a39062318cc8bf3807dec93af6c20efe349632f8aa1"}, {"sequence": 4294967292, "scriptSig": {"hex": "48304502210094703fc1bacb07eef72b829ed1b80694735900cb0d129f252dcf04be494a379302204dd4f9991bb13f81c931dfba96d7008673b20468ca331e39092554f800a9b636012102fa3d8c58a1bc8e03aa3378612f4722933064d638d3af954ae55d1a7cc26509ca", "asm": "304502210094703fc1bacb07eef72b829ed1b80694735900cb0d129f252dcf04be494a379302204dd4f9991bb13f81c931dfba96d7008673b20468ca331e39092554f800a9b636[ALL] 02fa3d8c58a1bc8e03aa3378612f4722933064d638d3af954ae55d1a7cc26509ca"}, "vout": 0, "txid": "969fc982b5db6d8cbeb285ddad5566036c3696736c961d97cc834df64f5781f4"}, {"sequence": 4294967292, "scriptSig": {"hex": "4830450221008a311f63c67af09e3d8e2c6b7323a5b1f055ffab31524180c154c63109202e9f02206abfdbb5eafec4e83078c24b0d691d78b12dcc2fd673ccd7e25743ed32140ab0012102fa3d8c58a1bc8e03aa3378612f4722933064d638d3af954ae55d1a7cc26509ca", "asm": "30450221008a311f63c67af09e3d8e2c6b7323a5b1f055ffab31524180c154c63109202e9f02206abfdbb5eafec4e83078c24b0d691d78b12dcc2fd673ccd7e25743ed32140ab0[ALL] 02fa3d8c58a1bc8e03aa3378612f4722933064d638d3af954ae55d1a7cc26509ca"}, "vout": 0, "txid": "f0ec5709b2ff35bd00bfce00f2f92200810418d562fbfc51356e065b4eeb8fe8"}, {"sequence": 4294967292, "scriptSig": {"hex": "4730440220190fcf396ca0531df2b71bc6b496fad775aec591b867de3105c80ffbdd1e7d2502200b21ea7b317f64d5d52c48983f157943399d56b3d121c184b8368205f2891647012102fa3d8c58a1bc8e03aa3378612f4722933064d638d3af954ae55d1a7cc26509ca", "asm": "30440220190fcf396ca0531df2b71bc6b496fad775aec591b867de3105c80ffbdd1e7d2502200b21ea7b317f64d5d52c48983f157943399d56b3d121c184b8368205f2891647[ALL] 02fa3d8c58a1bc8e03aa3378612f4722933064d638d3af954ae55d1a7cc26509ca"}, "vout": 0, "txid": "458c870e14e9a3a3a45acb6bfe93cb79505f0afdf127549c803f7e4fa8e4568c"}, {"sequence": 4294967292, "scriptSig": {"hex": "4630430220521a93ac60eed5357f670b262be6f1af869aad7218b1c829e8443258a746e473021f0f7d437a2f18237a6b07ab19424aeaed6033eaee2d0f2f3a5600f45adc9ad8012102fa3d8c58a1bc8e03aa3378612f4722933064d638d3af954ae55d1a7cc26509ca", "asm": "30430220521a93ac60eed5357f670b262be6f1af869aad7218b1c829e8443258a746e473021f0f7d437a2f18237a6b07ab19424aeaed6033eaee2d0f2f3a5600f45adc9ad8[ALL] 02fa3d8c58a1bc8e03aa3378612f4722933064d638d3af954ae55d1a7cc26509ca"}, "vout": 0, "txid": "84e3b718bf7f7347d3162d220b052cc9967561c474cde1d604f3b9fe6f5aa500"}, {"sequence": 4294967292, "scriptSig": {"hex": "483045022100cf49a8049246a48b2a0671f47f9719d6b2a79a0f2b1cb20150743c295610073c0220320ebc256c035a5df950e3b00a1b192b01654c951bb31ac04aefff570c131fd4012102fa3d8c58a1bc8e03aa3378612f4722933064d638d3af954ae55d1a7cc26509ca", "asm": "3045022100cf49a8049246a48b2a0671f47f9719d6b2a79a0f2b1cb20150743c295610073c0220320ebc256c035a5df950e3b00a1b192b01654c951bb31ac04aefff570c131fd4[ALL] 02fa3d8c58a1bc8e03aa3378612f4722933064d638d3af954ae55d1a7cc26509ca"}, "vout": 0, "txid": "4b770217616181a8b30d0aa39da512fd95d162b1fb3cc2b8385a23aceb6ba4ed"}, {"sequence": 4294967292, "scriptSig": {"hex": "4730440220664bcd1e83c5597747598569f149889dcaed48851522543b8df6e989ae1859d902202b494eaecbb5fbc9f4182006b3a96729349f57e2a4bc7984c155434f733d0165012102fa3d8c58a1bc8e03aa3378612f4722933064d638d3af954ae55d1a7cc26509ca", "asm": "30440220664bcd1e83c5597747598569f149889dcaed48851522543b8df6e989ae1859d902202b494eaecbb5fbc9f4182006b3a96729349f57e2a4bc7984c155434f733d0165[ALL] 02fa3d8c58a1bc8e03aa3378612f4722933064d638d3af954ae55d1a7cc26509ca"}, "vout": 1, "txid": "e8c830cb986bdb5930c2c129fb683bbe2c567566c1db0b9c2c123e37332b407e"}, {"sequence": 4294967292, "scriptSig": {"hex": "483045022100b753b77d60d44824068fc7fcf974e655be47475bb4ec97422d1ab54033c060da02201eb26ff27a4a40fc1660a070b9f88f9ea1cd4529d1fea5045880ceab73e8ff6f012102fa3d8c58a1bc8e03aa3378612f4722933064d638d3af954ae55d1a7cc26509ca", "asm": "3045022100b753b77d60d44824068fc7fcf974e655be47475bb4ec97422d1ab54033c060da02201eb26ff27a4a40fc1660a070b9f88f9ea1cd4529d1fea5045880ceab73e8ff6f[ALL] 02fa3d8c58a1bc8e03aa3378612f4722933064d638d3af954ae55d1a7cc26509ca"}, "vout": 1, "txid": "31cbc9bb42eb0783f2bdad813d9fcdfe61cc50c51cf6d887825ed4f44ddfef4b"}, {"sequence": 4294967292, "scriptSig": {"hex": "483045022100f35b90cb5f235fc4459d5ce59adbb186415e4eba7dcc809bf5f421353ef987620220465a1d60b6d32202acea4c723e4fd262455ccb61de29e01e2d3d9513a816dbf6012102fa3d8c58a1bc8e03aa3378612f4722933064d638d3af954ae55d1a7cc26509ca", "asm": "3045022100f35b90cb5f235fc4459d5ce59adbb186415e4eba7dcc809bf5f421353ef987620220465a1d60b6d32202acea4c723e4fd262455ccb61de29e01e2d3d9513a816dbf6[ALL] 02fa3d8c58a1bc8e03aa3378612f4722933064d638d3af954ae55d1a7cc26509ca"}, "vout": 1, "txid": "61b7aa1dc4134cac04dc0f39d6c531e45726e246c07a34f57c64c6ce2418a164"}, {"sequence": 4294967292, "scriptSig": {"hex": "483045022100814ba164bb528eaa292867eae4943ece590b4e71f944ef8f0327cf040598466602205a4c6463e25a093ec336a79dcda2c256662695a04e30cfa147acd912e0a1e640012102fa3d8c58a1bc8e03aa3378612f4722933064d638d3af954ae55d1a7cc26509ca", "asm": "3045022100814ba164bb528eaa292867eae4943ece590b4e71f944ef8f0327cf040598466602205a4c6463e25a093ec336a79dcda2c256662695a04e30cfa147acd912e0a1e640[ALL] 02fa3d8c58a1bc8e03aa3378612f4722933064d638d3af954ae55d1a7cc26509ca"}, "vout": 1, "txid": "96efda5193ac618a28dbf6d455f57b598dc2e7829c424f776458316cc7340ce8"}, {"sequence": 4294967292, "scriptSig": {"hex": "4730440220423671b165e582a6b5aa04d00bb68f57b267049f04994293d4aa573949fb8ed4022032965e9016d9063ebcfbc0436b4766d770102dda3ef192a085a242af215d964e012102fa3d8c58a1bc8e03aa3378612f4722933064d638d3af954ae55d1a7cc26509ca", "asm": "30440220423671b165e582a6b5aa04d00bb68f57b267049f04994293d4aa573949fb8ed4022032965e9016d9063ebcfbc0436b4766d770102dda3ef192a085a242af215d964e[ALL] 02fa3d8c58a1bc8e03aa3378612f4722933064d638d3af954ae55d1a7cc26509ca"}, "vout": 1, "txid": "1930b90aee82e19d8620989e5cddcd7dec9e87f929fec39761f1309216d83c63"}, {"sequence": 4294967292, "scriptSig": {"hex": "483045022100e93e2ac733fb6f6fd81ec4a753966faf00c78052cfb22ebabfdd25778ef1216902203d3212b144516ffb299a24a96f5101f91ae15bea56c22d8510548bfc2b0ac9d7012102fa3d8c58a1bc8e03aa3378612f4722933064d638d3af954ae55d1a7cc26509ca", "asm": "3045022100e93e2ac733fb6f6fd81ec4a753966faf00c78052cfb22ebabfdd25778ef1216902203d3212b144516ffb299a24a96f5101f91ae15bea56c22d8510548bfc2b0ac9d7[ALL] 02fa3d8c58a1bc8e03aa3378612f4722933064d638d3af954ae55d1a7cc26509ca"}, "vout": 1, "txid": "3cfb65975b9120c13691413e2288b5b8b2c411f6146317ebd33f03ea58d172cb"}, {"sequence": 4294967292, "scriptSig": {"hex": "473044022013f02532db2a58107794d4e458809c6aaaa284308020e9e37a539bb9556d45e0022013299f71ac8de67ee2fcc9df6a951c35c915162be1963d8670f79fe4313dc35e012102fa3d8c58a1bc8e03aa3378612f4722933064d638d3af954ae55d1a7cc26509ca", "asm": "3044022013f02532db2a58107794d4e458809c6aaaa284308020e9e37a539bb9556d45e0022013299f71ac8de67ee2fcc9df6a951c35c915162be1963d8670f79fe4313dc35e[ALL] 02fa3d8c58a1bc8e03aa3378612f4722933064d638d3af954ae55d1a7cc26509ca"}, "vout": 1, "txid": "dadff911eedd23c1c4d25ede67e83f591076d9b9b61dc3ea655acb16fc5b0896"}, {"sequence": 4294967292, "scriptSig": {"hex": "483045022100f82b8b8911e13ea0f1504467100938eed24499dbe212d7a688162f074855d18902204d96919f3e184de5b5ea210ad7579e9122fcf3a7bc0ae88407b588c371b011c5012102fa3d8c58a1bc8e03aa3378612f4722933064d638d3af954ae55d1a7cc26509ca", "asm": "3045022100f82b8b8911e13ea0f1504467100938eed24499dbe212d7a688162f074855d18902204d96919f3e184de5b5ea210ad7579e9122fcf3a7bc0ae88407b588c371b011c5[ALL] 02fa3d8c58a1bc8e03aa3378612f4722933064d638d3af954ae55d1a7cc26509ca"}, "vout": 1, "txid": "9921692ffe0b150ebf1498bddb26dc5db09436590b06dd52d87457718aabb983"}, {"sequence": 4294967292, "scriptSig": {"hex": "473044022050025db0608fcf854e88f8deaf6fde7b3ed565f86f9c155c6756bf5071e9402802205a094d4a450f498f09ffd3063d495a00549a95844c643bd29cbb20a9d7611d5c012102fa3d8c58a1bc8e03aa3378612f4722933064d638d3af954ae55d1a7cc26509ca", "asm": "3044022050025db0608fcf854e88f8deaf6fde7b3ed565f86f9c155c6756bf5071e9402802205a094d4a450f498f09ffd3063d495a00549a95844c643bd29cbb20a9d7611d5c[ALL] 02fa3d8c58a1bc8e03aa3378612f4722933064d638d3af954ae55d1a7cc26509ca"}, "vout": 1, "txid": "3cdd3b516228e4ed92c44ca6c18f7b4595223a2f3dd8140a51851bd4a6473010"}, {"sequence": 4294967292, "scriptSig": {"hex": "47304402204cfe622a41e57edcdb1f5dd028e6313172a2f8fbd29ed8b3701322efd2437c0702207f8e9e5266be15154aedd92e09901f5e09ed2f38c9c4029c8c534e4d5ff4907b012102fa3d8c58a1bc8e03aa3378612f4722933064d638d3af954ae55d1a7cc26509ca", "asm": "304402204cfe622a41e57edcdb1f5dd028e6313172a2f8fbd29ed8b3701322efd2437c0702207f8e9e5266be15154aedd92e09901f5e09ed2f38c9c4029c8c534e4d5ff4907b[ALL] 02fa3d8c58a1bc8e03aa3378612f4722933064d638d3af954ae55d1a7cc26509ca"}, "vout": 1, "txid": "4a746ab70e942514bd1769e52e50a2ca83ce734c8b6b99839084e95c2cfe82ca"}, {"sequence": 4294967292, "scriptSig": {"hex": "483045022100e786177f545b7bd79b513172cc324d877e6384e7cc6c39467c9bbfaa786d825102205270976782dbe40ed9dcf974c63d90f3a5a2cf86686f5992347036f186693efb012102fa3d8c58a1bc8e03aa3378612f4722933064d638d3af954ae55d1a7cc26509ca", "asm": "3045022100e786177f545b7bd79b513172cc324d877e6384e7cc6c39467c9bbfaa786d825102205270976782dbe40ed9dcf974c63d90f3a5a2cf86686f5992347036f186693efb[ALL] 02fa3d8c58a1bc8e03aa3378612f4722933064d638d3af954ae55d1a7cc26509ca"}, "vout": 1, "txid": "b0997495d3b6d06ab146d3159a85d7796564936fbdf1e8161d541a54d1ea148c"}, {"sequence": 4294967292, "scriptSig": {"hex": "48304502210093beb23909f1ec2a166bbbb9df948ccc3e0fb1aeb455245da1e1bd57ac09240102203a3952d2a776010f3db6f273c4f0c0116e62ef8fb6d22fb26918aa9b78fdbfff012102fa3d8c58a1bc8e03aa3378612f4722933064d638d3af954ae55d1a7cc26509ca", "asm": "304502210093beb23909f1ec2a166bbbb9df948ccc3e0fb1aeb455245da1e1bd57ac09240102203a3952d2a776010f3db6f273c4f0c0116e62ef8fb6d22fb26918aa9b78fdbfff[ALL] 02fa3d8c58a1bc8e03aa3378612f4722933064d638d3af954ae55d1a7cc26509ca"}, "vout": 1, "txid": "db75bb4df2fd64a0ebef9cb8b68b987425986b8693ad8450e04a2810909020f7"}, {"sequence": 4294967292, "scriptSig": {"hex": "483045022100e9b8a43b9daa487e3d6fe5b58074fa9f5642c46f9d2b091f48beb9eb5b55d41b0220120d696f3241972c6dfa0565c6409d1f34783627188f3c9c7905f5116c7183b3012102fa3d8c58a1bc8e03aa3378612f4722933064d638d3af954ae55d1a7cc26509ca", "asm": "3045022100e9b8a43b9daa487e3d6fe5b58074fa9f5642c46f9d2b091f48beb9eb5b55d41b0220120d696f3241972c6dfa0565c6409d1f34783627188f3c9c7905f5116c7183b3[ALL] 02fa3d8c58a1bc8e03aa3378612f4722933064d638d3af954ae55d1a7cc26509ca"}, "vout": 1, "txid": "9d80daaecf41a02fc9ebc179303f9a0bcb3bbb057346611b3af2000e418c4ffa"}, {"sequence": 4294967292, "scriptSig": {"hex": "4830450221009f4ece12feafa287fae51b4fcdf71f3227619cf29a472687811b2c57f1d5f4f4022027a0fc9a6692cbea3444cdc84b2624f107753d8e248201768e6f052d297125ce012102fa3d8c58a1bc8e03aa3378612f4722933064d638d3af954ae55d1a7cc26509ca", "asm": "30450221009f4ece12feafa287fae51b4fcdf71f3227619cf29a472687811b2c57f1d5f4f4022027a0fc9a6692cbea3444cdc84b2624f107753d8e248201768e6f052d297125ce[ALL] 02fa3d8c58a1bc8e03aa3378612f4722933064d638d3af954ae55d1a7cc26509ca"}, "vout": 1, "txid": "bf7f7b65bf8541931d504106ccfc6aba46412f01523e4807135f879d4a4f6f52"}, {"sequence": 4294967292, "scriptSig": {"hex": "4730440220054d9f90353b9b84ff38fb582e87093af526e7644d28fd2a6ce9a44adaa25b4a02206e2c94bbea13afd34cafaf394167a01deedb783bf90101538e587a95d6e56206012102fa3d8c58a1bc8e03aa3378612f4722933064d638d3af954ae55d1a7cc26509ca", "asm": "30440220054d9f90353b9b84ff38fb582e87093af526e7644d28fd2a6ce9a44adaa25b4a02206e2c94bbea13afd34cafaf394167a01deedb783bf90101538e587a95d6e56206[ALL] 02fa3d8c58a1bc8e03aa3378612f4722933064d638d3af954ae55d1a7cc26509ca"}, "vout": 1, "txid": "bba9cc2f31ec51bd400536b89673d2dee14f56968aaf5e89c1bcfc6a39a352e0"}, {"sequence": 4294967292, "scriptSig": {"hex": "47304402207f1dc1d79a8435fba63d3ae0d3e6ee13ba95fe3e4f91f1bbb9a7c46709b2b4e7022034a58772da64540c7c9f0013e10f3dee2dddd362bedecdc05fa76ae4cb2a3ae2012102fa3d8c58a1bc8e03aa3378612f4722933064d638d3af954ae55d1a7cc26509ca", "asm": "304402207f1dc1d79a8435fba63d3ae0d3e6ee13ba95fe3e4f91f1bbb9a7c46709b2b4e7022034a58772da64540c7c9f0013e10f3dee2dddd362bedecdc05fa76ae4cb2a3ae2[ALL] 02fa3d8c58a1bc8e03aa3378612f4722933064d638d3af954ae55d1a7cc26509ca"}, "vout": 1, "txid": "901478a3c191a5f552273d44be217d9927660e9253a018a8c7021a071c63382a"}], "txid": "f9cf2dcf8852346c5c8aab3e1edd8f0f86fde5a812c8c51aec71f0076bff6cc0", "blocktime": 1537876114, "version": 1, "confirmations": 11459, "time": 1537876114, "locktime": 0, "vsize": 5948, "size": 5948}