{"hash": "f9d5dd01aed37ebc1e9f32268192d555f0771dc248bc19ec4ec77de2c988d6ac", "blockhash": "0000000000000000001e0dab787dd257d1dbfcb92a98c2207d5e1078be1f4165", "vout": [{"scriptPubKey": {"reqSigs": 1, "hex": "76a91405bce04cd303a0311e833965e36949b1c803883d88ac", "addresses": ["1XLeJjGPDVL5nU72JrHJUJhqJTMivnq59"], "asm": "OP_DUP OP_HASH160 05bce04cd303a0311e833965e36949b1c803883d OP_EQUALVERIFY OP_CHECKSIG", "type": "pubkeyhash"}, "value": 0.016, "n": 0}, {"scriptPubKey": {"reqSigs": 1, "hex": "76a914935edd29e36f2c72ee50d192735f32daf266cef588ac", "addresses": ["1ESDyTfpPCaF2uzXxYnKK6hDwArziSsJLj"], "asm": "OP_DUP OP_HASH160 935edd29e36f2c72ee50d192735f32daf266cef5 OP_EQUALVERIFY OP_CHECKSIG", "type": "pubkeyhash"}, "value": 0.1211809, "n": 1}], "hex": "01000000018ed1c0e0dad1fa1daf5ed8e781caca84e6dd429fe9288562dac0ed039c4814ae010000006a47304402201196ae2184a60c63f219c7cc3bc510e6e3ea727d24a16d8766fc863dd1dcc1da02202653a8eee90541af73ba6ccede9b9086b80c6febc895e8e16a454d8fef0eccee0121032cb397297604c84832043c5146677c3bad56ce2b6dae1565b12d8f61522651ceffffffff02006a1800000000001976a91405bce04cd303a0311e833965e36949b1c803883d88ac4ae8b800000000001976a914935edd29e36f2c72ee50d192735f32daf266cef588ac00000000", "vin": [{"sequence": 4294967295, "scriptSig": {"hex": "47304402201196ae2184a60c63f219c7cc3bc510e6e3ea727d24a16d8766fc863dd1dcc1da02202653a8eee90541af73ba6ccede9b9086b80c6febc895e8e16a454d8fef0eccee0121032cb397297604c84832043c5146677c3bad56ce2b6dae1565b12d8f61522651ce", "asm": "304402201196ae2184a60c63f219c7cc3bc510e6e3ea727d24a16d8766fc863dd1dcc1da02202653a8eee90541af73ba6ccede9b9086b80c6febc895e8e16a454d8fef0eccee[ALL] 032cb397297604c84832043c5146677c3bad56ce2b6dae1565b12d8f61522651ce"}, "vout": 1, "txid": "ae14489c03edc0da628528e99f42dde684caca81e7d85eaf1dfad1dae0c0d18e"}], "txid": "f9d5dd01aed37ebc1e9f32268192d555f0771dc248bc19ec4ec77de2c988d6ac", "blocktime": 1537872475, "version": 1, "confirmations": 11486, "time": 1537872475, "locktime": 0, "vsize": 225, "size": 225}