{"hash": "bf0c48f9dc9024c60527045370b83c26bae53e4674dfaa2fe6c2836669bab1c4", "blockhash": "00000000000000000018f53835495a110e01622372bf6ae95dc86f2b0ab887b0", "vout": [{"scriptPubKey": {"reqSigs": 1, "hex": "a9149d13991c4c35405be036da7d83e8c68ecca3c52587", "addresses": ["3G1ZVMqpxcPbCaB2t2MMfRR9WKLFp3bkLq"], "asm": "OP_HASH160 9d13991c4c35405be036da7d83e8c68ecca3c525 OP_EQUAL", "type": "scripthash"}, "value": 0.07192432, "n": 0}, {"scriptPubKey": {"reqSigs": 1, "hex": "a9146a271d69c1987317224a8a18c8de6a6a72e5164187", "addresses": ["3BNJQdPwXULfFARR96XwMeUzViYnaVQoHy"], "asm": "OP_HASH160 6a271d69c1987317224a8a18c8de6a6a72e51641 OP_EQUAL", "type": "scripthash"}, "value": 4.45487163, "n": 1}], "hex": "02000000000101ca89d8891ebbc898e118869dd8a2aee686e46bf012185e035ee206e925322967000000001716001401266ab429a226404758ce1d99b55de9d4793b35feffffff0270bf6d000000000017a9149d13991c4c35405be036da7d83e8c68ecca3c525873b988d1a0000000017a9146a271d69c1987317224a8a18c8de6a6a72e516418702483045022100c0986233c0c27dbd54dbae81d7f3b3f9b9a85231fddb9a9af20d685015c18d6402205802b059108b5b6403f4b035c588328ef1ad39d734958743cda778e1780217f901210215a9fd4dc2f81b12e3d5104e63003bba3e44bf9746f554a73b7c6060843879ca0e490800", "vin": [{"txinwitness": ["3045022100c0986233c0c27dbd54dbae81d7f3b3f9b9a85231fddb9a9af20d685015c18d6402205802b059108b5b6403f4b035c588328ef1ad39d734958743cda778e1780217f901", "0215a9fd4dc2f81b12e3d5104e63003bba3e44bf9746f554a73b7c6060843879ca"], "sequence": 4294967294, "scriptSig": {"hex": "16001401266ab429a226404758ce1d99b55de9d4793b35", "asm": "001401266ab429a226404758ce1d99b55de9d4793b35"}, "vout": 0, "txid": "67293225e906e25e035e1812f06be486e6aea2d89d8618e198c8bb1e89d889ca"}], "txid": "f9d60ec0b53fc244be4b8920c9eabc3130e535d856bda1824c42b0e12d1e352f", "blocktime": 1537870928, "version": 2, "confirmations": 11514, "time": 1537870928, "locktime": 542990, "vsize": 166, "size": 248}