{"hash": "f9de7f33dfd07edab313ad54a217abd4b2f03deb34a197496c49df4fecd3b3e0", "blockhash": "0000000000000000001f76057863aec43deb6fa401d9628bb513d65a8098bfab", "vout": [{"scriptPubKey": {"reqSigs": 1, "hex": "a91435b4e3e3837d0f6c15e435e93487092903a5d0ba87", "addresses": ["36azSBUvRcWED8GZxRS753cUDcVJbSpsAC"], "asm": "OP_HASH160 35b4e3e3837d0f6c15e435e93487092903a5d0ba OP_EQUAL", "type": "scripthash"}, "value": 0.1099981, "n": 0}], "hex": "01000000012ba9865164b2b2a4064a6bb0bd22a362b3e3c60fecbd848a88a13686f27dfc67010000006b483045022100f2d3b5d0da0ee2705908d9334f5ec1f2e6bc7d8d8437988bd3ac286e9699ddac02204169fec7ec5fc1f98411ffa41c07a17656ef01246ae8e520ea300e884218f789012103fd72d4a415225c4617271856e317f1d54f508bf5343536738b766e59aca58c7ffeffffff0102d8a7000000000017a91435b4e3e3837d0f6c15e435e93487092903a5d0ba8714490800", "vin": [{"sequence": 4294967294, "scriptSig": {"hex": "483045022100f2d3b5d0da0ee2705908d9334f5ec1f2e6bc7d8d8437988bd3ac286e9699ddac02204169fec7ec5fc1f98411ffa41c07a17656ef01246ae8e520ea300e884218f789012103fd72d4a415225c4617271856e317f1d54f508bf5343536738b766e59aca58c7f", "asm": "3045022100f2d3b5d0da0ee2705908d9334f5ec1f2e6bc7d8d8437988bd3ac286e9699ddac02204169fec7ec5fc1f98411ffa41c07a17656ef01246ae8e520ea300e884218f789[ALL] 03fd72d4a415225c4617271856e317f1d54f508bf5343536738b766e59aca58c7f"}, "vout": 1, "txid": "67fc7df28636a1888a84bdec0fc6e3b362a322bdb06b4a06a4b2b2645186a92b"}], "txid": "f9de7f33dfd07edab313ad54a217abd4b2f03deb34a197496c49df4fecd3b3e0", "blocktime": 1537873891, "version": 1, "confirmations": 11479, "time": 1537873891, "locktime": 542996, "vsize": 190, "size": 190}