{"hash": "de0f40adcae7b3867ff389249b49c88ea3d4070b88bd7c0d99157d58ed67ed60", "blockhash": "0000000000000000000e13cef7c366c0283d82e591d1acd082e914b08063cdf1", "vout": [{"scriptPubKey": {"reqSigs": 1, "hex": "a914594ef9dd59c028580ab29e67e05ee10aa50c94f087", "addresses": ["39qEfy5ZLvNKFaYGjD4u4q9jWFuB5MAX6w"], "asm": "OP_HASH160 594ef9dd59c028580ab29e67e05ee10aa50c94f0 OP_EQUAL", "type": "scripthash"}, "value": 0.043056, "n": 0}, {"scriptPubKey": {"reqSigs": 1, "hex": "00140d94ab4934eac815375f9885d23dda1174b7565f", "addresses": ["bc1qpk22kjf5atyp2d6lnzzay0w6z96tw4jlz9hnwd"], "asm": "0 0d94ab4934eac815375f9885d23dda1174b7565f", "type": "witness_v0_keyhash"}, "value": 0.15286318, "n": 1}], "hex": "0100000000010177480d06e12225e8ce9e299238ba69c99217d4ab54f154b80f67e3b4032521220100000000ffffffff02c0b241000000000017a914594ef9dd59c028580ab29e67e05ee10aa50c94f0872e40e900000000001600140d94ab4934eac815375f9885d23dda1174b7565f024730440220311305e97ac8629f49c81c0ad978297e01a7d466cbf3b2bcb8d995563621ee7b022009613e60225d4c25910ce2c2a3031a4cd42706be6d8944d0399f908ad6dabcf90121027152a5381d64395d71e94483a03aa4995b643ca655c7af915361044cf4eedfb600000000", "vin": [{"txinwitness": ["30440220311305e97ac8629f49c81c0ad978297e01a7d466cbf3b2bcb8d995563621ee7b022009613e60225d4c25910ce2c2a3031a4cd42706be6d8944d0399f908ad6dabcf901", "027152a5381d64395d71e94483a03aa4995b643ca655c7af915361044cf4eedfb6"], "sequence": 4294967295, "scriptSig": {"hex": "", "asm": ""}, "vout": 1, "txid": "22212503b4e3670fb854f154abd41792c969ba3892299ecee82522e1060d4877"}], "txid": "f9df295eed2441e9ceb0fe5c17e0d52f9b997ef1b1a90e5b07ce0c0d221484c9", "blocktime": 1537871767, "version": 1, "confirmations": 11495, "time": 1537871767, "locktime": 0, "vsize": 142, "size": 223}