{"hash": "f9df55b4513e8be21a7a7fe112a3e7b4f5246546a8408cd4526aef03de60f869", "blockhash": "0000000000000000000dcc0f55137456b1a82d3642486a52398922ac4d620174", "vout": [{"scriptPubKey": {"reqSigs": 1, "hex": "a9146bccf4076ed4e70af6d1e3a1947d5e4b63403b9e87", "addresses": ["3BX1kUEDzd4J6JWJXpXgm6SysdKFGPR3EB"], "asm": "OP_HASH160 6bccf4076ed4e70af6d1e3a1947d5e4b63403b9e OP_EQUAL", "type": "scripthash"}, "value": 0.00138524, "n": 0}, {"scriptPubKey": {"reqSigs": 1, "hex": "76a914bd8cf7ce96fa121df17537af42e12ebfd26a3b6788ac", "addresses": ["1JHFatGsFjpnEJQ8JfBgd8oEtoBn3t18zC"], "asm": "OP_DUP OP_HASH160 bd8cf7ce96fa121df17537af42e12ebfd26a3b67 OP_EQUALVERIFY OP_CHECKSIG", "type": "pubkeyhash"}, "value": 9.07e-05, "n": 1}], "hex": "01000000026af50aa33e18f220efd03e482b7fd42e14776e2b5b67650899be01b71e11bef7000000006a473044022015766a28259eaa0fe054a362ea9de8c53b7da1c7aab891accfacaa613c90375802204e305798a73b766f4bce0225f0e43da3184f75472bc575a09048674d5a6644c90121023589e15b3cdceb322d3d86090ebbbfe5dc3041b24aca784450a06c0ed0437d73ffffffff6a5245a8778552c01065c7ed7329ed576d652ec9d600bf6288022d90042dcdac020000006a4730440220332e665d69f7573b486a5b05469a6450717601f45472818e6108d37f6779e5d202201e5b58afab95065ed8f8835b3d8e155fa9eb935be0755dc1e4720aa70d097ac401210271a73dc3bc7bfbd12368a3b08dc33cef2bb4ae6f66ec6ccf24d78d9e28f3d518ffffffff021c1d02000000000017a9146bccf4076ed4e70af6d1e3a1947d5e4b63403b9e876e230000000000001976a914bd8cf7ce96fa121df17537af42e12ebfd26a3b6788ac00000000", "vin": [{"sequence": 4294967295, "scriptSig": {"hex": "473044022015766a28259eaa0fe054a362ea9de8c53b7da1c7aab891accfacaa613c90375802204e305798a73b766f4bce0225f0e43da3184f75472bc575a09048674d5a6644c90121023589e15b3cdceb322d3d86090ebbbfe5dc3041b24aca784450a06c0ed0437d73", "asm": "3044022015766a28259eaa0fe054a362ea9de8c53b7da1c7aab891accfacaa613c90375802204e305798a73b766f4bce0225f0e43da3184f75472bc575a09048674d5a6644c9[ALL] 023589e15b3cdceb322d3d86090ebbbfe5dc3041b24aca784450a06c0ed0437d73"}, "vout": 0, "txid": "f7be111eb701be990865675b2b6e77142ed47f2b483ed0ef20f2183ea30af56a"}, {"sequence": 4294967295, "scriptSig": {"hex": "4730440220332e665d69f7573b486a5b05469a6450717601f45472818e6108d37f6779e5d202201e5b58afab95065ed8f8835b3d8e155fa9eb935be0755dc1e4720aa70d097ac401210271a73dc3bc7bfbd12368a3b08dc33cef2bb4ae6f66ec6ccf24d78d9e28f3d518", "asm": "30440220332e665d69f7573b486a5b05469a6450717601f45472818e6108d37f6779e5d202201e5b58afab95065ed8f8835b3d8e155fa9eb935be0755dc1e4720aa70d097ac4[ALL] 0271a73dc3bc7bfbd12368a3b08dc33cef2bb4ae6f66ec6ccf24d78d9e28f3d518"}, "vout": 2, "txid": "accd2d04902d028862bf00d6c92e656d57ed2973edc76510c0528577a845526a"}], "txid": "f9df55b4513e8be21a7a7fe112a3e7b4f5246546a8408cd4526aef03de60f869", "blocktime": 1537870268, "version": 1, "confirmations": 11518, "time": 1537870268, "locktime": 0, "vsize": 370, "size": 370}