{"hash": "f9e46b2e3218257eecd12682a7e8b6e0ecf19577a8466a1c1c8966a11d7d7400", "blockhash": "0000000000000000000dcc0f55137456b1a82d3642486a52398922ac4d620174", "vout": [{"scriptPubKey": {"reqSigs": 1, "hex": "76a914365d1cd3bd814cf885c1178b938dca7b71c4698888ac", "addresses": ["15xT2wJ7E1sB5dr7u37AskdJdpBwSiZHL6"], "asm": "OP_DUP OP_HASH160 365d1cd3bd814cf885c1178b938dca7b71c46988 OP_EQUALVERIFY OP_CHECKSIG", "type": "pubkeyhash"}, "value": 0.11915168, "n": 0}, {"scriptPubKey": {"reqSigs": 1, "hex": "a914fd1f9109bc9913e40b76c9562ac37ad44d96feea87", "addresses": ["3QmQhMoiDpfXAA1ngsTx6t11xccB1GSfmY"], "asm": "OP_HASH160 fd1f9109bc9913e40b76c9562ac37ad44d96feea OP_EQUAL", "type": "scripthash"}, "value": 0.4, "n": 1}], "hex": "0100000006b555f9aadefc743537c985197362c3fde7036f7ec9aacc7459b947370ae7aec9110000006a47304402201866c9628e82b5140965029a390e74c1f549b791c5025850df3e594d93e7c3f702202363e740356d30feb0532359a44171455225729cbe30e96e3cb8a42a76df294d0121036712813e4cfbc576c6b81637fe1ef35030d7dc84d2c82cf55c63b1c937a3f3eaffffffff66dc460cee3d6d4eea77cea87a0218730a74fdf9b347b514c5c1dfa46aa7aeff810000006b483045022100e2bcc609517930dcb4ffeb82eca8c739726a2fa03021dcf78a0bc6e2895ea17002200f1743464b6b26575c110c2f2481ba61771327a58465b654a1f364adf92f83360121036712813e4cfbc576c6b81637fe1ef35030d7dc84d2c82cf55c63b1c937a3f3eaffffffffb3c0ba813165032abe5c3fd0eea148a701fad80c4f75178a15a10660c57feac12d0000006a4730440220644d7e5e5958f066863b363e4951d953f9e37f4051c28da4f6bfdd99432d775302200e23e876cd086b58b599b0b1a3eb000e2afeaa825c7f69782b23e27a344f6e090121036712813e4cfbc576c6b81637fe1ef35030d7dc84d2c82cf55c63b1c937a3f3eafffffffffeaa4de7629a3969746db4b2219ec3c3ee2e0d5653d0bb915b3967a9e6932be0120000006a47304402205517e2b5091620425f8e72183c788f20ba5adc6c94d4b24150fb5149bbdb23d402206664da96f16d3d1e0f123b4de82038fa1b3283c0b26bf5634ab43931b4db17970121036712813e4cfbc576c6b81637fe1ef35030d7dc84d2c82cf55c63b1c937a3f3eaffffffff6072d4ebee861c8fe1ff09a136aaca5f71e0ba0c087249692222491b7d8d9b26000000006a47304402203296869260ba16570f233e6b348be5771ee370fda8a5831680dbd60e0d8934fb02207b66b596fa2473cd2bedffe7b415695206d35c45afa2eab19b5e3624dee2132401210377e390c3f5e98435268132eb87e32b1a33640112ebd24220edd77a5f59e914e6ffffffff4dc6cdf14244006ef1776c455566a4f7b2c70683e13d8dacfb83f2a418227b37820000006b483045022100dabb382275a203cd9331ed2078c2d98a4c4f6a5a550f214680aa0576f6581401022011495cb828d77ee624fcd46850c11901493cf131880f4d9f50fc8a552753c7690121036712813e4cfbc576c6b81637fe1ef35030d7dc84d2c82cf55c63b1c937a3f3eaffffffff02a0cfb500000000001976a914365d1cd3bd814cf885c1178b938dca7b71c4698888ac005a62020000000017a914fd1f9109bc9913e40b76c9562ac37ad44d96feea8700000000", "vin": [{"sequence": 4294967295, "scriptSig": {"hex": "47304402201866c9628e82b5140965029a390e74c1f549b791c5025850df3e594d93e7c3f702202363e740356d30feb0532359a44171455225729cbe30e96e3cb8a42a76df294d0121036712813e4cfbc576c6b81637fe1ef35030d7dc84d2c82cf55c63b1c937a3f3ea", "asm": "304402201866c9628e82b5140965029a390e74c1f549b791c5025850df3e594d93e7c3f702202363e740356d30feb0532359a44171455225729cbe30e96e3cb8a42a76df294d[ALL] 036712813e4cfbc576c6b81637fe1ef35030d7dc84d2c82cf55c63b1c937a3f3ea"}, "vout": 17, "txid": "c9aee70a3747b95974ccaac97e6f03e7fdc362731985c9373574fcdeaaf955b5"}, {"sequence": 4294967295, "scriptSig": {"hex": "483045022100e2bcc609517930dcb4ffeb82eca8c739726a2fa03021dcf78a0bc6e2895ea17002200f1743464b6b26575c110c2f2481ba61771327a58465b654a1f364adf92f83360121036712813e4cfbc576c6b81637fe1ef35030d7dc84d2c82cf55c63b1c937a3f3ea", "asm": "3045022100e2bcc609517930dcb4ffeb82eca8c739726a2fa03021dcf78a0bc6e2895ea17002200f1743464b6b26575c110c2f2481ba61771327a58465b654a1f364adf92f8336[ALL] 036712813e4cfbc576c6b81637fe1ef35030d7dc84d2c82cf55c63b1c937a3f3ea"}, "vout": 129, "txid": "ffaea76aa4dfc1c514b547b3f9fd740a7318027aa8ce77ea4e6d3dee0c46dc66"}, {"sequence": 4294967295, "scriptSig": {"hex": "4730440220644d7e5e5958f066863b363e4951d953f9e37f4051c28da4f6bfdd99432d775302200e23e876cd086b58b599b0b1a3eb000e2afeaa825c7f69782b23e27a344f6e090121036712813e4cfbc576c6b81637fe1ef35030d7dc84d2c82cf55c63b1c937a3f3ea", "asm": "30440220644d7e5e5958f066863b363e4951d953f9e37f4051c28da4f6bfdd99432d775302200e23e876cd086b58b599b0b1a3eb000e2afeaa825c7f69782b23e27a344f6e09[ALL] 036712813e4cfbc576c6b81637fe1ef35030d7dc84d2c82cf55c63b1c937a3f3ea"}, "vout": 45, "txid": "c1ea7fc56006a1158a17754f0cd8fa01a748a1eed03f5cbe2a03653181bac0b3"}, {"sequence": 4294967295, "scriptSig": {"hex": "47304402205517e2b5091620425f8e72183c788f20ba5adc6c94d4b24150fb5149bbdb23d402206664da96f16d3d1e0f123b4de82038fa1b3283c0b26bf5634ab43931b4db17970121036712813e4cfbc576c6b81637fe1ef35030d7dc84d2c82cf55c63b1c937a3f3ea", "asm": "304402205517e2b5091620425f8e72183c788f20ba5adc6c94d4b24150fb5149bbdb23d402206664da96f16d3d1e0f123b4de82038fa1b3283c0b26bf5634ab43931b4db1797[ALL] 036712813e4cfbc576c6b81637fe1ef35030d7dc84d2c82cf55c63b1c937a3f3ea"}, "vout": 18, "txid": "e02b93e6a967395b91bbd053560d2eeec3c39e21b2b46d7469399a62e74daafe"}, {"sequence": 4294967295, "scriptSig": {"hex": "47304402203296869260ba16570f233e6b348be5771ee370fda8a5831680dbd60e0d8934fb02207b66b596fa2473cd2bedffe7b415695206d35c45afa2eab19b5e3624dee2132401210377e390c3f5e98435268132eb87e32b1a33640112ebd24220edd77a5f59e914e6", "asm": "304402203296869260ba16570f233e6b348be5771ee370fda8a5831680dbd60e0d8934fb02207b66b596fa2473cd2bedffe7b415695206d35c45afa2eab19b5e3624dee21324[ALL] 0377e390c3f5e98435268132eb87e32b1a33640112ebd24220edd77a5f59e914e6"}, "vout": 0, "txid": "269b8d7d1b492222694972080cbae0715fcaaa36a109ffe18f1c86eeebd47260"}, {"sequence": 4294967295, "scriptSig": {"hex": "483045022100dabb382275a203cd9331ed2078c2d98a4c4f6a5a550f214680aa0576f6581401022011495cb828d77ee624fcd46850c11901493cf131880f4d9f50fc8a552753c7690121036712813e4cfbc576c6b81637fe1ef35030d7dc84d2c82cf55c63b1c937a3f3ea", "asm": "3045022100dabb382275a203cd9331ed2078c2d98a4c4f6a5a550f214680aa0576f6581401022011495cb828d77ee624fcd46850c11901493cf131880f4d9f50fc8a552753c769[ALL] 036712813e4cfbc576c6b81637fe1ef35030d7dc84d2c82cf55c63b1c937a3f3ea"}, "vout": 130, "txid": "377b2218a4f283fbac8d3de18306c7b2f7a46655456c77f16e004442f1cdc64d"}], "txid": "f9e46b2e3218257eecd12682a7e8b6e0ecf19577a8466a1c1c8966a11d7d7400", "blocktime": 1537870268, "version": 1, "confirmations": 11518, "time": 1537870268, "locktime": 0, "vsize": 960, "size": 960}