{"hash": "a74fb250de5a92ce75ec344b06fbbc3e461324b053781bdc93430ecae9309232", "blockhash": "0000000000000000001e0dab787dd257d1dbfcb92a98c2207d5e1078be1f4165", "vout": [{"scriptPubKey": {"reqSigs": 1, "hex": "0014cdafb9c057ef019847930c04d3e2169c01b75e06", "addresses": ["bc1qekhmnszhauqes3unpszd8csknsqmwhsxl8z7v5"], "asm": "0 cdafb9c057ef019847930c04d3e2169c01b75e06", "type": "witness_v0_keyhash"}, "value": 0.00134459, "n": 0}, {"scriptPubKey": {"reqSigs": 1, "hex": "76a9148c528b43e2a589011d872172610f9ce875ecb40188ac", "addresses": ["1DnxV7dKPKXk8M85yvz8BHsxBedPKmBkRB"], "asm": "OP_DUP OP_HASH160 8c528b43e2a589011d872172610f9ce875ecb401 OP_EQUALVERIFY OP_CHECKSIG", "type": "pubkeyhash"}, "value": 0.01924953, "n": 1}], "hex": "01000000000101513f85c3b8247265e6c4b8a5574e9d6ed9429a45805373efefeed1f4bf882715010000001716001487651365b25f3360298b3ca0db0d82c53a04d1eeffffffff023b0d020000000000160014cdafb9c057ef019847930c04d3e2169c01b75e06595f1d00000000001976a9148c528b43e2a589011d872172610f9ce875ecb40188ac02473044022010f9c43d3be96a23d87660fc7fdbae323f30285707eb2441cfbc21185863ef3702200bae1d6278709c090c683621c5215df9841ac64043258082c9fb2da496176c1c012103bbd8a5d5525e827a8efb97f97d1adc2574ce9967927dd885ea3a82705ce283fe00000000", "vin": [{"txinwitness": ["3044022010f9c43d3be96a23d87660fc7fdbae323f30285707eb2441cfbc21185863ef3702200bae1d6278709c090c683621c5215df9841ac64043258082c9fb2da496176c1c01", "03bbd8a5d5525e827a8efb97f97d1adc2574ce9967927dd885ea3a82705ce283fe"], "sequence": 4294967295, "scriptSig": {"hex": "16001487651365b25f3360298b3ca0db0d82c53a04d1ee", "asm": "001487651365b25f3360298b3ca0db0d82c53a04d1ee"}, "vout": 1, "txid": "152788bff4d1eeefef735380459a42d96e9d4e57a5b8c4e6657224b8c3853f51"}], "txid": "f9e4e36d258cad47f41624a5c9203c63025ddee9e357c7341d309fdc5d9ce5aa", "blocktime": 1537872475, "version": 1, "confirmations": 11487, "time": 1537872475, "locktime": 0, "vsize": 167, "size": 248}