{"hash": "f9ec676e4547d31af3843de57473d597203fad5481b45439db6ab66eaa5c41ca", "blockhash": "0000000000000000000baef3f32e3676a92c3b2e5da21b426e4f302fc371ce76", "vout": [{"scriptPubKey": {"reqSigs": 1, "hex": "76a91498c43234f08e9b0d325c3ac8dd1e9a2deebe251c88ac", "addresses": ["1Evkk71fa7mbKnjrUnX2RhTp1KNaGm4rRp"], "asm": "OP_DUP OP_HASH160 98c43234f08e9b0d325c3ac8dd1e9a2deebe251c OP_EQUALVERIFY OP_CHECKSIG", "type": "pubkeyhash"}, "value": 1.748e-05, "n": 0}, {"scriptPubKey": {"reqSigs": 1, "hex": "76a9143a86bec71f4d2a0cd915bcb2e18cefcb253cbe4488ac", "addresses": ["16LTcPYDMoZXEvYiaQw76xwR4UjQp7VntX"], "asm": "OP_DUP OP_HASH160 3a86bec71f4d2a0cd915bcb2e18cefcb253cbe44 OP_EQUALVERIFY OP_CHECKSIG", "type": "pubkeyhash"}, "value": 0.0039, "n": 1}], "hex": "010000000152e9fbb3433c2a0f5e551017b6ee7baf06bb9b151a81f3c6693e64b2b0015b84000000006b483045022100830e43130032876347f46d07459b9deff0d2d2f991997dab5560a6d95b45f8c30220721c8a257c4c70c1e4ecd87346c85ad55b73a6bd9c9bf5e503aad6c35099e3fa012102f840285f7ec63cc7aa364eb8f2f52e5ae310ed5a13e8d9241d933030f74af713fdffffff02d4060000000000001976a91498c43234f08e9b0d325c3ac8dd1e9a2deebe251c88ac70f30500000000001976a9143a86bec71f4d2a0cd915bcb2e18cefcb253cbe4488ac16490800", "vin": [{"sequence": 4294967293, "scriptSig": {"hex": "483045022100830e43130032876347f46d07459b9deff0d2d2f991997dab5560a6d95b45f8c30220721c8a257c4c70c1e4ecd87346c85ad55b73a6bd9c9bf5e503aad6c35099e3fa012102f840285f7ec63cc7aa364eb8f2f52e5ae310ed5a13e8d9241d933030f74af713", "asm": "3045022100830e43130032876347f46d07459b9deff0d2d2f991997dab5560a6d95b45f8c30220721c8a257c4c70c1e4ecd87346c85ad55b73a6bd9c9bf5e503aad6c35099e3fa[ALL] 02f840285f7ec63cc7aa364eb8f2f52e5ae310ed5a13e8d9241d933030f74af713"}, "vout": 0, "txid": "845b01b0b2643e69c6f3811a159bbb06af7beeb61710555e0f2a3c43b3fbe952"}], "txid": "f9ec676e4547d31af3843de57473d597203fad5481b45439db6ab66eaa5c41ca", "blocktime": 1537876114, "version": 1, "confirmations": 11462, "time": 1537876114, "locktime": 542998, "vsize": 226, "size": 226}