{"hash": "f9f50dfa0efa73cc9044aec525670dc306b51827292ecd9b4b004c03b2fe1556", "blockhash": "0000000000000000001cda96e906b7601b7a6fb1a3b62bca570a9e5d8f4b3de1", "vout": [{"scriptPubKey": {"reqSigs": 1, "hex": "76a91402b099424e514daa5b475be3bf14a48b7755830e88ac", "addresses": ["1FDug76anSN8neGsuJHdyd9oG1HJGFic1"], "asm": "OP_DUP OP_HASH160 02b099424e514daa5b475be3bf14a48b7755830e OP_EQUALVERIFY OP_CHECKSIG", "type": "pubkeyhash"}, "value": 0.00638344, "n": 0}, {"scriptPubKey": {"type": "nulldata", "hex": "6a4c50000077c60001691fdd383fb34ac530388b685b23cc0f42c2fc38c5e5bf9ae76da98a211a9add9149fbeb3492b9304853f900db5e5baa13890612d87a55c3ba461d100759d4ba30d2c37bb011d97e02cf", "asm": "OP_RETURN 000077c60001691fdd383fb34ac530388b685b23cc0f42c2fc38c5e5bf9ae76da98a211a9add9149fbeb3492b9304853f900db5e5baa13890612d87a55c3ba461d100759d4ba30d2c37bb011d97e02cf"}, "value": 0.0, "n": 1}], "hex": "01000000016cb1ca03f4dba26dda5830d297034cd45f4eae5c213ba7cc0c471e1f224db698000000006b483045022100ec93a69b1a6cfa6d6caddbc7f74eb5afbd9b1e74c4f02809753257d42a1e384f02202bf81f97c8306a0254b5db056abb1c410df2be332d9bc9bcb567bf04f9ffb555012102fc1b342f548d854473d7932a41946ae3a3e4dc5a1258bf5b0b134b7ca9f85dd3ffffffff0288bd0900000000001976a91402b099424e514daa5b475be3bf14a48b7755830e88ac0000000000000000536a4c50000077c60001691fdd383fb34ac530388b685b23cc0f42c2fc38c5e5bf9ae76da98a211a9add9149fbeb3492b9304853f900db5e5baa13890612d87a55c3ba461d100759d4ba30d2c37bb011d97e02cf00000000", "vin": [{"sequence": 4294967295, "scriptSig": {"hex": "483045022100ec93a69b1a6cfa6d6caddbc7f74eb5afbd9b1e74c4f02809753257d42a1e384f02202bf81f97c8306a0254b5db056abb1c410df2be332d9bc9bcb567bf04f9ffb555012102fc1b342f548d854473d7932a41946ae3a3e4dc5a1258bf5b0b134b7ca9f85dd3", "asm": "3045022100ec93a69b1a6cfa6d6caddbc7f74eb5afbd9b1e74c4f02809753257d42a1e384f02202bf81f97c8306a0254b5db056abb1c410df2be332d9bc9bcb567bf04f9ffb555[ALL] 02fc1b342f548d854473d7932a41946ae3a3e4dc5a1258bf5b0b134b7ca9f85dd3"}, "vout": 0, "txid": "98b64d221f1e470ccca73b215cae4e5fd44c0397d23058da6da2dbf403cab16c"}], "txid": "f9f50dfa0efa73cc9044aec525670dc306b51827292ecd9b4b004c03b2fe1556", "blocktime": 1537873282, "version": 1, "confirmations": 11484, "time": 1537873282, "locktime": 0, "vsize": 284, "size": 284}