{"hash": "f9f9eabcfd0750d7e32e9be1cc843042ac5fea3e6626789601c85686950ed030", "blockhash": "000000000000000000022b45ed06c6f4ccd3cf7fb5ba4856ebd2e58215665228", "vout": [{"scriptPubKey": {"reqSigs": 1, "hex": "76a914d243e6abb9a60fbff430b421d2df4b7d59ec186088ac", "addresses": ["1LAnF8h3qMGx3TSwNUHVneBZUEpwE4gu3D"], "asm": "OP_DUP OP_HASH160 d243e6abb9a60fbff430b421d2df4b7d59ec1860 OP_EQUALVERIFY OP_CHECKSIG", "type": "pubkeyhash"}, "value": 0.00076972, "n": 0}, {"scriptPubKey": {"reqSigs": 1, "hex": "76a9143851f34d13937b673a7d24a1950bb5b21ce94af388ac", "addresses": ["168o1kqNquEJeR9vosUB5fw4eAwcVAgh8P"], "asm": "OP_DUP OP_HASH160 3851f34d13937b673a7d24a1950bb5b21ce94af3 OP_EQUALVERIFY OP_CHECKSIG", "type": "pubkeyhash"}, "value": 5.46e-06, "n": 1}, {"scriptPubKey": {"type": "nulldata", "hex": "6a146f6d6e69000000000000001f0000002c1b78ca70", "asm": "OP_RETURN 6f6d6e69000000000000001f0000002c1b78ca70"}, "value": 0.0, "n": 2}], "hex": "010000000278ef2d58d5731126ab97d93b9a73dc08688d0e2f5fb5d3ecf0eb02ea1361d3f9010000006b483045022100ae3d9f3be848c66b6147de24a35864bfd6225896082c0842195ea4cbf4b59746022028d7c59e9288628d2b3b77d5a8e49fcc97c22f081a242144408f03abe8c986a901210219760d8078f24b82f372eae58c46331fc80018fdd9bb4ac5d16207665a99f0abffffffffa24aa6978cc084519dc38509cb4ebb00f01def65ebc12ccdab2d6b52f4b80c6d000000006b483045022100c9907ccf1f22d080d6b105131922dcfda4680b54586412db110d77a823e0bbfa02203b8d38334a0f193f77c760aeb6ad85f1f5954ea872271ebe8874b5a18207272001210271977291b74f1f5f5c42157e8aae804664eaaeccfd097918450d37f28fb94d77ffffffff03ac2c0100000000001976a914d243e6abb9a60fbff430b421d2df4b7d59ec186088ac22020000000000001976a9143851f34d13937b673a7d24a1950bb5b21ce94af388ac0000000000000000166a146f6d6e69000000000000001f0000002c1b78ca7000000000", "vin": [{"sequence": 4294967295, "scriptSig": {"hex": "483045022100ae3d9f3be848c66b6147de24a35864bfd6225896082c0842195ea4cbf4b59746022028d7c59e9288628d2b3b77d5a8e49fcc97c22f081a242144408f03abe8c986a901210219760d8078f24b82f372eae58c46331fc80018fdd9bb4ac5d16207665a99f0ab", "asm": "3045022100ae3d9f3be848c66b6147de24a35864bfd6225896082c0842195ea4cbf4b59746022028d7c59e9288628d2b3b77d5a8e49fcc97c22f081a242144408f03abe8c986a9[ALL] 0219760d8078f24b82f372eae58c46331fc80018fdd9bb4ac5d16207665a99f0ab"}, "vout": 1, "txid": "f9d36113ea02ebf0ecd3b55f2f0e8d6808dc739a3bd997ab261173d5582def78"}, {"sequence": 4294967295, "scriptSig": {"hex": "483045022100c9907ccf1f22d080d6b105131922dcfda4680b54586412db110d77a823e0bbfa02203b8d38334a0f193f77c760aeb6ad85f1f5954ea872271ebe8874b5a18207272001210271977291b74f1f5f5c42157e8aae804664eaaeccfd097918450d37f28fb94d77", "asm": "3045022100c9907ccf1f22d080d6b105131922dcfda4680b54586412db110d77a823e0bbfa02203b8d38334a0f193f77c760aeb6ad85f1f5954ea872271ebe8874b5a182072720[ALL] 0271977291b74f1f5f5c42157e8aae804664eaaeccfd097918450d37f28fb94d77"}, "vout": 0, "txid": "6d0cb8f4526b2dabcd2cc1eb65ef1df000bb4ecb0985c39d5184c08c97a64aa2"}], "txid": "f9f9eabcfd0750d7e32e9be1cc843042ac5fea3e6626789601c85686950ed030", "blocktime": 1537869901, "version": 1, "confirmations": 11522, "time": 1537869901, "locktime": 0, "vsize": 405, "size": 405}