{"hash": "f9fa44e1dc6f4a04bca699d4e0507e8105ea1b248bed96bfab1c82f64055d2a0", "blockhash": "00000000000000000004ffacab907a6b429b9a5745fa0b75af4234bf69dd7176", "vout": [{"scriptPubKey": {"reqSigs": 1, "hex": "76a914d243e6abb9a60fbff430b421d2df4b7d59ec186088ac", "addresses": ["1LAnF8h3qMGx3TSwNUHVneBZUEpwE4gu3D"], "asm": "OP_DUP OP_HASH160 d243e6abb9a60fbff430b421d2df4b7d59ec1860 OP_EQUALVERIFY OP_CHECKSIG", "type": "pubkeyhash"}, "value": 0.00077314, "n": 0}, {"scriptPubKey": {"reqSigs": 1, "hex": "76a91424b0b982709ff49a3689fb8a9a0cbea91487782988ac", "addresses": ["14M12x5UnrK4M3FRoNYAQaqW6FHHahiaAn"], "asm": "OP_DUP OP_HASH160 24b0b982709ff49a3689fb8a9a0cbea914877829 OP_EQUALVERIFY OP_CHECKSIG", "type": "pubkeyhash"}, "value": 5.46e-06, "n": 1}, {"scriptPubKey": {"type": "nulldata", "hex": "6a146f6d6e69000000000000001f000002b00159c500", "asm": "OP_RETURN 6f6d6e69000000000000001f000002b00159c500"}, "value": 0.0, "n": 2}], "hex": "010000000142ae1bf0bbe2c1d5f6e4c9ed20b3fe78ba0ebc870feab3df83b655f5e21e5687000000006a473044022038a314c96d60a7d909e20e1a29e7a9a470b1af90cea4f245060b2f5f5e8a1877022054626c6305288c37b04070ac9029db32ded4b469d614c89d2f68907cb9052af701210271977291b74f1f5f5c42157e8aae804664eaaeccfd097918450d37f28fb94d77ffffffff03022e0100000000001976a914d243e6abb9a60fbff430b421d2df4b7d59ec186088ac22020000000000001976a91424b0b982709ff49a3689fb8a9a0cbea91487782988ac0000000000000000166a146f6d6e69000000000000001f000002b00159c50000000000", "vin": [{"sequence": 4294967295, "scriptSig": {"hex": "473044022038a314c96d60a7d909e20e1a29e7a9a470b1af90cea4f245060b2f5f5e8a1877022054626c6305288c37b04070ac9029db32ded4b469d614c89d2f68907cb9052af701210271977291b74f1f5f5c42157e8aae804664eaaeccfd097918450d37f28fb94d77", "asm": "3044022038a314c96d60a7d909e20e1a29e7a9a470b1af90cea4f245060b2f5f5e8a1877022054626c6305288c37b04070ac9029db32ded4b469d614c89d2f68907cb9052af7[ALL] 0271977291b74f1f5f5c42157e8aae804664eaaeccfd097918450d37f28fb94d77"}, "vout": 0, "txid": "87561ee2f555b683dfb3ea0f87bc0eba78feb320edc9e4f6d5c1e2bbf01bae42"}], "txid": "f9fa44e1dc6f4a04bca699d4e0507e8105ea1b248bed96bfab1c82f64055d2a0", "blocktime": 1537875543, "version": 1, "confirmations": 11464, "time": 1537875543, "locktime": 0, "vsize": 256, "size": 256}