{"hash": "6aac24d1508ea14524693087060f66f4161bbba73ab5b4789d9959500f825e00", "blockhash": "0000000000000000000baef3f32e3676a92c3b2e5da21b426e4f302fc371ce76", "vout": [{"scriptPubKey": {"reqSigs": 1, "hex": "76a91485db7cab769f93a69785c13cc1e0df51be1f9d8b88ac", "addresses": ["1DCmojk8DoVM3CmvYCzyJbGfcHzZstF2vU"], "asm": "OP_DUP OP_HASH160 85db7cab769f93a69785c13cc1e0df51be1f9d8b OP_EQUALVERIFY OP_CHECKSIG", "type": "pubkeyhash"}, "value": 2.595e-05, "n": 0}, {"scriptPubKey": {"reqSigs": 1, "hex": "a9148ddb66c3371910a0ef8f38021cc4094e61e69f3a87", "addresses": ["3Ed62sPENkraPwpovPty9YMFGJ8FtTyv63"], "asm": "OP_HASH160 8ddb66c3371910a0ef8f38021cc4094e61e69f3a OP_EQUAL", "type": "scripthash"}, "value": 0.00099723, "n": 1}], "hex": "010000000001014bde6f47d14e655811e5e30b32a85d08842a735a421bec083d6b38d166e0977b0100000023220020fdd23d707f55451c4e006c77b5e8df35a185a8e99f9bda70bf0ded7913bb1eb3ffffffff02230a0000000000001976a91485db7cab769f93a69785c13cc1e0df51be1f9d8b88ac8b8501000000000017a9148ddb66c3371910a0ef8f38021cc4094e61e69f3a87040047304402204a391593af479c2924f31e30a997e024910699b90d14a52330fb95ebc43d1b63022042b588354810d68e0528f9cad900ab9a9c9d821f04559b374f198131320ff71c0147304402203ea2b2a99460c844b59cf3463ecd703839fd248911623eeb9277a0c8baa3c1de02207b0ccb99afb195e5bc721bd3fa8f8324f117cdb2b2bd6ba0d5ab86bfe79a94a1014752210286c104577b978160849865bc23f9a6df9b53d41c8ffb486754b97b2a474a181c2103148c80a5bdfddb05ff5bcffc397c8ca748d8b435ec6a175bc9d7bfc7fc6f853752ae00000000", "vin": [{"txinwitness": ["", "304402204a391593af479c2924f31e30a997e024910699b90d14a52330fb95ebc43d1b63022042b588354810d68e0528f9cad900ab9a9c9d821f04559b374f198131320ff71c01", "304402203ea2b2a99460c844b59cf3463ecd703839fd248911623eeb9277a0c8baa3c1de02207b0ccb99afb195e5bc721bd3fa8f8324f117cdb2b2bd6ba0d5ab86bfe79a94a101", "52210286c104577b978160849865bc23f9a6df9b53d41c8ffb486754b97b2a474a181c2103148c80a5bdfddb05ff5bcffc397c8ca748d8b435ec6a175bc9d7bfc7fc6f853752ae"], "sequence": 4294967295, "scriptSig": {"hex": "220020fdd23d707f55451c4e006c77b5e8df35a185a8e99f9bda70bf0ded7913bb1eb3", "asm": "0020fdd23d707f55451c4e006c77b5e8df35a185a8e99f9bda70bf0ded7913bb1eb3"}, "vout": 1, "txid": "7b97e066d1386b3d08ec1b425a732a84085da8320be3e51158654ed1476fde4b"}], "txid": "f9fdd6f66840d9649ed6dc463cd8ea811767e051e58bc5a8d008b94f34e4af67", "blocktime": 1537876114, "version": 1, "confirmations": 11460, "time": 1537876114, "locktime": 0, "vsize": 207, "size": 372}