{"hash": "fa017de2bf13ac418799fca399f01297be309e8f855f12caeff8714e0706ca14", "blockhash": "00000000000000000017f5eb5941039fbcee6240d03bc1f2f8e35350df66a1d8", "vout": [{"scriptPubKey": {"reqSigs": 1, "hex": "a914d1867c954c69a139bda802c1111072dcd6090a3887", "addresses": ["3LntFw49UhSQitVPip85fXsYGoUw7C4yHH"], "asm": "OP_HASH160 d1867c954c69a139bda802c1111072dcd6090a38 OP_EQUAL", "type": "scripthash"}, "value": 0.00063, "n": 0}, {"scriptPubKey": {"reqSigs": 1, "hex": "76a914f6419e2a837022c8572ecfa997f8e3c80f88a8d988ac", "addresses": ["1PT5qQ46M3vvnS3yTfT2Xq3WFwCxDXw2sc"], "asm": "OP_DUP OP_HASH160 f6419e2a837022c8572ecfa997f8e3c80f88a8d9 OP_EQUALVERIFY OP_CHECKSIG", "type": "pubkeyhash"}, "value": 0.00298884, "n": 1}], "hex": "01000000018350dee16c13f23d66a78dfbc4d35f835466b5ba5bf7b7333adff9abe52c5490010000006a4730440220038a60c0376b9ff9660e876dbb200f77dc4fa7daa6843b240504401a03d09ff7022065db247c650c3fe218175b2a1f72c246cac67373c951d731de3d051bf0c23dfd0121030995c39888a9c0979a6d29c264e7671dfcc6b7ac74ffce257321119a3cab98e9ffffffff0218f600000000000017a914d1867c954c69a139bda802c1111072dcd6090a3887848f0400000000001976a914f6419e2a837022c8572ecfa997f8e3c80f88a8d988ac00000000", "vin": [{"sequence": 4294967295, "scriptSig": {"hex": "4730440220038a60c0376b9ff9660e876dbb200f77dc4fa7daa6843b240504401a03d09ff7022065db247c650c3fe218175b2a1f72c246cac67373c951d731de3d051bf0c23dfd0121030995c39888a9c0979a6d29c264e7671dfcc6b7ac74ffce257321119a3cab98e9", "asm": "30440220038a60c0376b9ff9660e876dbb200f77dc4fa7daa6843b240504401a03d09ff7022065db247c650c3fe218175b2a1f72c246cac67373c951d731de3d051bf0c23dfd[ALL] 030995c39888a9c0979a6d29c264e7671dfcc6b7ac74ffce257321119a3cab98e9"}, "vout": 1, "txid": "90542ce5abf9df3a33b7f75bbab56654835fd3c4fb8da7663df2136ce1de5083"}], "txid": "fa017de2bf13ac418799fca399f01297be309e8f855f12caeff8714e0706ca14", "blocktime": 1537874412, "version": 1, "confirmations": 11467, "time": 1537874412, "locktime": 0, "vsize": 223, "size": 223}