{"hash": "3795938b4be8fba31f8aac372ee8ad4547cdb85dbe0a0a9b9d231190a2491371", "blockhash": "0000000000000000000baef3f32e3676a92c3b2e5da21b426e4f302fc371ce76", "vout": [{"scriptPubKey": {"reqSigs": 1, "hex": "a914f72a12a7286f93d3afd4ff9ba3ba5d42945cc18487", "addresses": ["3QDuECXrzV7S3Yf52NGpN6hd8QJcGUAtQM"], "asm": "OP_HASH160 f72a12a7286f93d3afd4ff9ba3ba5d42945cc184 OP_EQUAL", "type": "scripthash"}, "value": 0.2885668, "n": 0}], "hex": "02000000000101b4ea64d9518cc17d889cf9809517b6737273976ad3446c6ea8ac1343d310b00701000000171600148e80dd4e02699f072dfd734d5dc73dff05c07eb6feffffff016851b8010000000017a914f72a12a7286f93d3afd4ff9ba3ba5d42945cc1848702473044022038fb5f44ceb94aeb7428411b7de3b0719236ad7a72c729c24d9273f6950a2de1022026b86e10540d903df19cb6295172e837d3e1229b6e3ab5bbd8158b97b5006b6d0121026eaf3e9b3df5bf68cd6c070140199fc83ec86ad6629cc62f1f05ff0f1b0db34a17490800", "vin": [{"txinwitness": ["3044022038fb5f44ceb94aeb7428411b7de3b0719236ad7a72c729c24d9273f6950a2de1022026b86e10540d903df19cb6295172e837d3e1229b6e3ab5bbd8158b97b5006b6d01", "026eaf3e9b3df5bf68cd6c070140199fc83ec86ad6629cc62f1f05ff0f1b0db34a"], "sequence": 4294967294, "scriptSig": {"hex": "1600148e80dd4e02699f072dfd734d5dc73dff05c07eb6", "asm": "00148e80dd4e02699f072dfd734d5dc73dff05c07eb6"}, "vout": 1, "txid": "07b010d34313aca86e6c44d36a97737273b6179580f99c887dc18c51d964eab4"}], "txid": "fa01a4e4109d3b73bae24e5694be0f1c7f6e85f82c0e5d7d0d2b69f2baa26f5e", "blocktime": 1537876114, "version": 2, "confirmations": 11459, "time": 1537876114, "locktime": 542999, "vsize": 134, "size": 215}