{"hash": "fa01e4ba26eb2f54ddeff6f4febec98a74249d1340eafac8ef2f74f262862621", "blockhash": "0000000000000000000e13cef7c366c0283d82e591d1acd082e914b08063cdf1", "vout": [{"scriptPubKey": {"reqSigs": 1, "hex": "76a91444e7696dc6cc1dc250468487a1190b8060622bf688ac", "addresses": ["17HLApanUSqpH6LNB7HdZ16StMRoun8u9n"], "asm": "OP_DUP OP_HASH160 44e7696dc6cc1dc250468487a1190b8060622bf6 OP_EQUALVERIFY OP_CHECKSIG", "type": "pubkeyhash"}, "value": 0.001451, "n": 0}, {"scriptPubKey": {"reqSigs": 1, "hex": "76a9148b15e5c97ca2a5e6f42b51d48a327af4a37d012488ac", "addresses": ["1DgRA8w1e5eHAiFcQcoZAT35TotMpLrUem"], "asm": "OP_DUP OP_HASH160 8b15e5c97ca2a5e6f42b51d48a327af4a37d0124 OP_EQUALVERIFY OP_CHECKSIG", "type": "pubkeyhash"}, "value": 0.00752812, "n": 1}], "hex": "0100000001941e53d0bc2ec9ffac7053c63759e991a547bb27ff9ee743ff76e76010da0c9b010000006b483045022100c7a5cedba9225ba8a7f1100bd0503d11bd22802a10dd2431d0d8b741674efbd10220490fc136660716feff52c2435044f0f6b9b6aefbf87fe85c157bc5d29444516401210306026c3b601f2e7d8db67cf834f6e22ddf003e2afca5604bcbbbd4b904b4fdb4ffffffff02cc360200000000001976a91444e7696dc6cc1dc250468487a1190b8060622bf688acac7c0b00000000001976a9148b15e5c97ca2a5e6f42b51d48a327af4a37d012488ac00000000", "vin": [{"sequence": 4294967295, "scriptSig": {"hex": "483045022100c7a5cedba9225ba8a7f1100bd0503d11bd22802a10dd2431d0d8b741674efbd10220490fc136660716feff52c2435044f0f6b9b6aefbf87fe85c157bc5d29444516401210306026c3b601f2e7d8db67cf834f6e22ddf003e2afca5604bcbbbd4b904b4fdb4", "asm": "3045022100c7a5cedba9225ba8a7f1100bd0503d11bd22802a10dd2431d0d8b741674efbd10220490fc136660716feff52c2435044f0f6b9b6aefbf87fe85c157bc5d294445164[ALL] 0306026c3b601f2e7d8db67cf834f6e22ddf003e2afca5604bcbbbd4b904b4fdb4"}, "vout": 1, "txid": "9b0cda1060e776ff43e79eff27bb47a591e95937c65370acffc92ebcd0531e94"}], "txid": "fa01e4ba26eb2f54ddeff6f4febec98a74249d1340eafac8ef2f74f262862621", "blocktime": 1537871767, "version": 1, "confirmations": 11490, "time": 1537871767, "locktime": 0, "vsize": 226, "size": 226}