{"hash": "e558f5d5acf09e8d4b34949db6e40ce550f10747f9fd066aea03d3f1158d7d31", "blockhash": "0000000000000000001e0dab787dd257d1dbfcb92a98c2207d5e1078be1f4165", "vout": [{"scriptPubKey": {"reqSigs": 1, "hex": "76a914ecf2e389acd33b8931762d73cbb5d67b3b9f2ca588ac", "addresses": ["1NbsSV1sdZZuFnA8mDiHYTwmezGKULzpzc"], "asm": "OP_DUP OP_HASH160 ecf2e389acd33b8931762d73cbb5d67b3b9f2ca5 OP_EQUALVERIFY OP_CHECKSIG", "type": "pubkeyhash"}, "value": 0.00019602, "n": 0}, {"scriptPubKey": {"reqSigs": 1, "hex": "a9140136c10502ae5684e49b302f1af10f145f74b6b787", "addresses": ["31oSC7GvQMTZoouyNLBEHVRDhXEFbVhSmh"], "asm": "OP_HASH160 0136c10502ae5684e49b302f1af10f145f74b6b7 OP_EQUAL", "type": "scripthash"}, "value": 0.10181257, "n": 1}], "hex": "0100000000010129e3f57418ad4c5eba502aa001fa303a7f51b3d10b71f125c4e3a1f31b63b7d60100000023220020efd02f10cc1074c68ec89b458572a71ce6bfc8a17595d8fde80232e47279444bffffffff02924c0000000000001976a914ecf2e389acd33b8931762d73cbb5d67b3b9f2ca588ac895a9b000000000017a9140136c10502ae5684e49b302f1af10f145f74b6b7870400473044022063a3b7714ea00d26fc5c765bf4e6cbaf131edd1618011a310bd00b78bcd24d87022067a5ff507ce5fdc01b6c27179b8d5c1d1f11cbc7ba741e2a66d4e608209b5a4d0147304402204020b35c1aa6cde71ec8b40db3cbefcd31d597b4f22684aaa3e91727d153b94a0220789c906af5e7e9636fe3fa417b6a67c01f53555368821e5e670003afd5fa83c60147522103f985ea61f461801f3abc09ebed98ce7e20804639a64616f639f492883ea4e8d62103871fc2ca08e6950b38867e8e6a0e94ee625223d3aa0df5c65f414c6d784467e252ae00000000", "vin": [{"txinwitness": ["", "3044022063a3b7714ea00d26fc5c765bf4e6cbaf131edd1618011a310bd00b78bcd24d87022067a5ff507ce5fdc01b6c27179b8d5c1d1f11cbc7ba741e2a66d4e608209b5a4d01", "304402204020b35c1aa6cde71ec8b40db3cbefcd31d597b4f22684aaa3e91727d153b94a0220789c906af5e7e9636fe3fa417b6a67c01f53555368821e5e670003afd5fa83c601", "522103f985ea61f461801f3abc09ebed98ce7e20804639a64616f639f492883ea4e8d62103871fc2ca08e6950b38867e8e6a0e94ee625223d3aa0df5c65f414c6d784467e252ae"], "sequence": 4294967295, "scriptSig": {"hex": "220020efd02f10cc1074c68ec89b458572a71ce6bfc8a17595d8fde80232e47279444b", "asm": "0020efd02f10cc1074c68ec89b458572a71ce6bfc8a17595d8fde80232e47279444b"}, "vout": 1, "txid": "d6b7631bf3a1e3c425f1710bd1b3517f3a30fa01a02a50ba5e4cad1874f5e329"}], "txid": "fa092ff3e478b301619f0fa76eddf2c34ae152fc67690f39e4d69ca0577ae54e", "blocktime": 1537872475, "version": 1, "confirmations": 11487, "time": 1537872475, "locktime": 0, "vsize": 207, "size": 372}