{"hash": "fa1380881090c1da90a57f0a90b3471ddb7b7c3d65697a40642607f47b755157", "blockhash": "000000000000000000022b45ed06c6f4ccd3cf7fb5ba4856ebd2e58215665228", "vout": [{"scriptPubKey": {"reqSigs": 1, "hex": "76a9144e18cd951f90cef50d6aa3834bb9028dd4afbaf488ac", "addresses": ["187wRJwhcZPhBUwTbQiGTgrnzG3cttmUua"], "asm": "OP_DUP OP_HASH160 4e18cd951f90cef50d6aa3834bb9028dd4afbaf4 OP_EQUALVERIFY OP_CHECKSIG", "type": "pubkeyhash"}, "value": 0.00015595, "n": 0}, {"scriptPubKey": {"reqSigs": 1, "hex": "76a9142dedc4ba9be21ebce8504c4e0c91d0ce7d3b35d488ac", "addresses": ["15BrF5NqM6R1h67YoxJLmVSSwhMX3Xhwjt"], "asm": "OP_DUP OP_HASH160 2dedc4ba9be21ebce8504c4e0c91d0ce7d3b35d4 OP_EQUALVERIFY OP_CHECKSIG", "type": "pubkeyhash"}, "value": 0.03393581, "n": 1}], "hex": "010000000158032782fb3dc5669b2f481e73ee5de2be8d555034f4c86642ab58a44d0b2b73010000006b4830450221009aba6ba77f9762c7a66648614ec01ce452e41090c0a7251d2c9c8cddfbbc913a022057fc0052425c28dae0c4b9eb10445497728a68fece9373e56927f094f2b94824012102db749d5c4f12d3f33436e9642b6102185cb20f2789a8af061d0462772373d6a6ffffffff02eb3c0000000000001976a9144e18cd951f90cef50d6aa3834bb9028dd4afbaf488ac2dc83300000000001976a9142dedc4ba9be21ebce8504c4e0c91d0ce7d3b35d488ac00000000", "vin": [{"sequence": 4294967295, "scriptSig": {"hex": "4830450221009aba6ba77f9762c7a66648614ec01ce452e41090c0a7251d2c9c8cddfbbc913a022057fc0052425c28dae0c4b9eb10445497728a68fece9373e56927f094f2b94824012102db749d5c4f12d3f33436e9642b6102185cb20f2789a8af061d0462772373d6a6", "asm": "30450221009aba6ba77f9762c7a66648614ec01ce452e41090c0a7251d2c9c8cddfbbc913a022057fc0052425c28dae0c4b9eb10445497728a68fece9373e56927f094f2b94824[ALL] 02db749d5c4f12d3f33436e9642b6102185cb20f2789a8af061d0462772373d6a6"}, "vout": 1, "txid": "732b0b4da458ab4266c8f43450558dbee25dee731e482f9b66c53dfb82270358"}], "txid": "fa1380881090c1da90a57f0a90b3471ddb7b7c3d65697a40642607f47b755157", "blocktime": 1537869901, "version": 1, "confirmations": 11524, "time": 1537869901, "locktime": 0, "vsize": 226, "size": 226}