{"hash": "0ef3546f1020c35a0badf8fd8617043c2e0c1891454054afcbb3d82baa0494d3", "blockhash": "00000000000000000017f5eb5941039fbcee6240d03bc1f2f8e35350df66a1d8", "vout": [{"scriptPubKey": {"reqSigs": 1, "hex": "a914dfe7333cb1c9e452de9ceff811cde7e06b7ed89387", "addresses": ["3N6uaPYxE4NuC8GRvogNyKn7y9ZwxLG8pL"], "asm": "OP_HASH160 dfe7333cb1c9e452de9ceff811cde7e06b7ed893 OP_EQUAL", "type": "scripthash"}, "value": 0.00156833, "n": 0}, {"scriptPubKey": {"reqSigs": 1, "hex": "a914a1ee1f3acabe110095814eeda7a54851e3e6c38787", "addresses": ["3GTDyS9fuJdaVmKT2Gefz57JAge698wajo"], "asm": "OP_HASH160 a1ee1f3acabe110095814eeda7a54851e3e6c387 OP_EQUAL", "type": "scripthash"}, "value": 0.00203121, "n": 1}], "hex": "0200000000010342a7e6cc040c3b0a174a8fdd371d7a230f2248487674270c28566d2697bafd3904000000171600145f379e5e73416f5e2dc3bb0a886c2c0ecc91826dfdffffff07a001196eda5bab5a7b29e4342181d52a1544471dcbd2f0f6119b21eb14a25d000000001716001421d05337235d7036739a468c5c32be50860f6370fdffffff1ea649d15925ef3d270d51f835d170caba83a3d6d489c4654994c2c31c041dee040000006a473044022067e864003e5e86751b23b8ab1fb17f5ee1a30a8ca2fa76c0df4b0fe62e00c56802200d501e359810ff693e2527b06282a3c16de12391abdc2c8aba952e59f46eb42a0121033a0d536063114a2bce8ba6e4b841f1ab4dfe5c8ffbe6c8387e1a97e393235120fdffffff02a16402000000000017a914dfe7333cb1c9e452de9ceff811cde7e06b7ed89387711903000000000017a914a1ee1f3acabe110095814eeda7a54851e3e6c387870247304402207c82b7a905b9f46bad7439ea1f7d4e46dcdd2fe3372e1cf4297fbd26a2e94524022012d21badd62fd6dacc430d225da7cf21188567e4b887ff801f36ba13c16d2c64012103efc8b2c5ca9bbea86b069ef7c2a6a7f122b2c66efcd09a85a5ec3f9474274abf024730440220062878323b3a3ed5e1a370cac469ff449713d0f68fb0bf11c922bdd9f1b3ec9a02201ecfa8b2dedf374cac3a4a73524cd643a9e29b0f858878047f63d210adfedb20012102a9102694354f1381ae6e9452b305df3aa666b95cf99770060297e01ca18aa98f0000000000", "vin": [{"txinwitness": ["304402207c82b7a905b9f46bad7439ea1f7d4e46dcdd2fe3372e1cf4297fbd26a2e94524022012d21badd62fd6dacc430d225da7cf21188567e4b887ff801f36ba13c16d2c6401", "03efc8b2c5ca9bbea86b069ef7c2a6a7f122b2c66efcd09a85a5ec3f9474274abf"], "sequence": 4294967293, "scriptSig": {"hex": "1600145f379e5e73416f5e2dc3bb0a886c2c0ecc91826d", "asm": "00145f379e5e73416f5e2dc3bb0a886c2c0ecc91826d"}, "vout": 4, "txid": "39fdba97266d56280c2774764848220f237a1d37dd8f4a170a3b0c04cce6a742"}, {"txinwitness": ["30440220062878323b3a3ed5e1a370cac469ff449713d0f68fb0bf11c922bdd9f1b3ec9a02201ecfa8b2dedf374cac3a4a73524cd643a9e29b0f858878047f63d210adfedb2001", "02a9102694354f1381ae6e9452b305df3aa666b95cf99770060297e01ca18aa98f"], "sequence": 4294967293, "scriptSig": {"hex": "16001421d05337235d7036739a468c5c32be50860f6370", "asm": "001421d05337235d7036739a468c5c32be50860f6370"}, "vout": 0, "txid": "5da214eb219b11f6f0d2cb1d4744152ad5812134e4297b5aab5bda6e1901a007"}, {"sequence": 4294967293, "scriptSig": {"hex": "473044022067e864003e5e86751b23b8ab1fb17f5ee1a30a8ca2fa76c0df4b0fe62e00c56802200d501e359810ff693e2527b06282a3c16de12391abdc2c8aba952e59f46eb42a0121033a0d536063114a2bce8ba6e4b841f1ab4dfe5c8ffbe6c8387e1a97e393235120", "asm": "3044022067e864003e5e86751b23b8ab1fb17f5ee1a30a8ca2fa76c0df4b0fe62e00c56802200d501e359810ff693e2527b06282a3c16de12391abdc2c8aba952e59f46eb42a[ALL] 033a0d536063114a2bce8ba6e4b841f1ab4dfe5c8ffbe6c8387e1a97e393235120"}, "vout": 4, "txid": "ee1d041cc3c2944965c489d4d6a383baca70d135f8510d273def2559d149a61e"}], "txid": "fa17c02e97e84b133713090af46aa1995bb2b779b1041206ce1afdd889ec6af3", "blocktime": 1537874412, "version": 2, "confirmations": 11466, "time": 1537874412, "locktime": 0, "vsize": 404, "size": 566}