{"hash": "1af9aa1f44b563c739ff39034f2dc7d1a7f343075a86019a33fc2e14f389386a", "blockhash": "0000000000000000001f0ddff1eddb255c1121bcd4da4f1bc9a0da00cae72433", "vout": [{"scriptPubKey": {"reqSigs": 1, "hex": "76a9142e13f5054038b2cf42925c47bb1ed0fdb6a099d288ac", "addresses": ["15CdzUBPqRyFPWv5rf7j4VtxWnFSiWjSLW"], "asm": "OP_DUP OP_HASH160 2e13f5054038b2cf42925c47bb1ed0fdb6a099d2 OP_EQUALVERIFY OP_CHECKSIG", "type": "pubkeyhash"}, "value": 0.01817992, "n": 0}, {"scriptPubKey": {"reqSigs": 1, "hex": "001476f9cfc61aa2adc1374c58b7c541a1d6096cd8be", "addresses": ["bc1qwmuul3s652kuzd6vtzmu2sdp6cykek975lytpn"], "asm": "0 76f9cfc61aa2adc1374c58b7c541a1d6096cd8be", "type": "witness_v0_keyhash"}, "value": 0.00170899, "n": 1}], "hex": "01000000000101058db1fc6bf861c240eebbb91cf10081367847b3132059eceb44de2bd2a6c4d10100000000ffffffff0288bd1b00000000001976a9142e13f5054038b2cf42925c47bb1ed0fdb6a099d288ac939b02000000000016001476f9cfc61aa2adc1374c58b7c541a1d6096cd8be024730440220605a82b226080576fd360efac29af097a90f066a5aed793de0798b77383dca6e022052aed2dd7d494c89c34e006a3ab83cfdf6f4490efc4f14de5ab6dbe3f001f56f0121020bd9a9209e5a284ebe65b323341806ed5e6334a6121affa359cdcc6c6ac46d8d00000000", "vin": [{"txinwitness": ["30440220605a82b226080576fd360efac29af097a90f066a5aed793de0798b77383dca6e022052aed2dd7d494c89c34e006a3ab83cfdf6f4490efc4f14de5ab6dbe3f001f56f01", "020bd9a9209e5a284ebe65b323341806ed5e6334a6121affa359cdcc6c6ac46d8d"], "sequence": 4294967295, "scriptSig": {"hex": "", "asm": ""}, "vout": 1, "txid": "d1c4a6d22bde44ebec592013b34778368100f11cb9bbee40c261f86bfcb18d05"}], "txid": "fa19b6829f4338cf8dd3a964b5cc7afe9c84ee634a1768aa50597bba7c471806", "blocktime": 1537872018, "version": 1, "confirmations": 11489, "time": 1537872018, "locktime": 0, "vsize": 144, "size": 225}