{"hash": "fa1afa1fe54871471f2b1cb69c903d5e889121437b39c66262570e01a4197949", "blockhash": "0000000000000000001cda96e906b7601b7a6fb1a3b62bca570a9e5d8f4b3de1", "vout": [{"scriptPubKey": {"reqSigs": 1, "hex": "a9147e4a25c82d8564e9301ed77f0b9302a9e63987d587", "addresses": ["3DCmtaXss6FWhg61RQhFdnWuukAcMp8wPg"], "asm": "OP_HASH160 7e4a25c82d8564e9301ed77f0b9302a9e63987d5 OP_EQUAL", "type": "scripthash"}, "value": 0.003117, "n": 0}, {"scriptPubKey": {"reqSigs": 1, "hex": "76a9147c2c65573eed31982b86f5446797c2d2e405dff988ac", "addresses": ["1CKZyU1Cnd8TQu8nRi7oyETGxeUdBZVoY3"], "asm": "OP_DUP OP_HASH160 7c2c65573eed31982b86f5446797c2d2e405dff9 OP_EQUALVERIFY OP_CHECKSIG", "type": "pubkeyhash"}, "value": 0.00337916, "n": 1}], "hex": "010000000100855d29bf73148d6910c53cd47cd19957f8ab92740832eed83fc7ad4888055e480000006a473044022064799f47159adee4c5334b986258116a4fb12b4e081b2db642ab647262afd0bb0220772c677614f683fe71e1e8086d85fff3e79151fd597904e8d344c280d04eb7a5012103506ea62277964e5d563c0824f4e59ce5e47881fbfe82ddb3328ebdd58d1dc8afffffffff0294c104000000000017a9147e4a25c82d8564e9301ed77f0b9302a9e63987d587fc270500000000001976a9147c2c65573eed31982b86f5446797c2d2e405dff988ac00000000", "vin": [{"sequence": 4294967295, "scriptSig": {"hex": "473044022064799f47159adee4c5334b986258116a4fb12b4e081b2db642ab647262afd0bb0220772c677614f683fe71e1e8086d85fff3e79151fd597904e8d344c280d04eb7a5012103506ea62277964e5d563c0824f4e59ce5e47881fbfe82ddb3328ebdd58d1dc8af", "asm": "3044022064799f47159adee4c5334b986258116a4fb12b4e081b2db642ab647262afd0bb0220772c677614f683fe71e1e8086d85fff3e79151fd597904e8d344c280d04eb7a5[ALL] 03506ea62277964e5d563c0824f4e59ce5e47881fbfe82ddb3328ebdd58d1dc8af"}, "vout": 72, "txid": "5e058848adc73fd8ee32087492abf85799d17cd43cc510698d1473bf295d8500"}], "txid": "fa1afa1fe54871471f2b1cb69c903d5e889121437b39c66262570e01a4197949", "blocktime": 1537873282, "version": 1, "confirmations": 11485, "time": 1537873282, "locktime": 0, "vsize": 223, "size": 223}