{"hash": "fa1b5f3c01f60ae2ae24d37f181f94e6ef670a5f630a5a0979510fc34fd44840", "blockhash": "0000000000000000001f76057863aec43deb6fa401d9628bb513d65a8098bfab", "vout": [{"scriptPubKey": {"reqSigs": 1, "hex": "76a9142c57b18cb5df85f783cbe056a32c0d053a3e6a0488ac", "addresses": ["153TnVjfcF4HJnzFc86NEaVQTJKXyMGvbA"], "asm": "OP_DUP OP_HASH160 2c57b18cb5df85f783cbe056a32c0d053a3e6a04 OP_EQUALVERIFY OP_CHECKSIG", "type": "pubkeyhash"}, "value": 8.26e-06, "n": 0}, {"scriptPubKey": {"reqSigs": 1, "hex": "a914872d80f0b81ffbd9cda4e0f774a97ad204259a8c87", "addresses": ["3E1mf6G3CKjSYsGeHQtHhUpAwDgEenodog"], "asm": "OP_HASH160 872d80f0b81ffbd9cda4e0f774a97ad204259a8c OP_EQUAL", "type": "scripthash"}, "value": 0.11875539, "n": 1}], "hex": "0100000004f77b04cd08530ae7ad68e42158c8f6f9027aa97ca00d02801a1298e1640ceb31010000006b4830450221009f317de2b0e41e7371b6fd36b7a0b41ab70d2082dcc3d2ae5f7d556681b8400c02207049670b9b28eaa884602e8bef52254bb14c77acbcf050ee5b75c3d3d617757e012102a58548c9ecbe12bb81cb6aebea0d4bc8bf2df6e6c66cae9f6198d66ce9c74964ffffffff7c40c821b7513379b83aa6352732db29e744c9447bce369263e251f09e8c5442020000006b4830450221009767d776735ce56c320e02b036157a5805ba2ceb1864bea1509cdb0b39a6ff4f02204d2bd05ec254612947724d8665400761c13d9422dd85d71f9a60b02db4750949012103112c96fd63093ba83b3d4d99723b0cae004d9bb3fab2bc8c74e42e97c89d7299ffffffff6bf14d18d9e1318db61505a86e40168ef96c500229d1d297ae47ad39cc52d359000000006b483045022100a4972b73755ed5ffbdf84bdb3ffe6ddf585c888b86144b38f839e185cdbac43302201d4fc7a451a0d652560016af42835e871ce79a8ae5e719e08c3f49ef2472c747012103112c96fd63093ba83b3d4d99723b0cae004d9bb3fab2bc8c74e42e97c89d7299ffffffffb6d06a0c7922aa9ec787e1b55e19c18885dd7de434c011893698d9c6b9df2481000000006b483045022100a8cb2fbc8a4b854722dca1dad9b9d9e12cbb6ba61a0c79f301c6edd4c6ebee6302204e85233049c4974246b45f157984c33b6436b071d81390e012ac11c9637290ce012102a58548c9ecbe12bb81cb6aebea0d4bc8bf2df6e6c66cae9f6198d66ce9c74964ffffffff023a030000000000001976a9142c57b18cb5df85f783cbe056a32c0d053a3e6a0488acd334b5000000000017a914872d80f0b81ffbd9cda4e0f774a97ad204259a8c8700000000", "vin": [{"sequence": 4294967295, "scriptSig": {"hex": "4830450221009f317de2b0e41e7371b6fd36b7a0b41ab70d2082dcc3d2ae5f7d556681b8400c02207049670b9b28eaa884602e8bef52254bb14c77acbcf050ee5b75c3d3d617757e012102a58548c9ecbe12bb81cb6aebea0d4bc8bf2df6e6c66cae9f6198d66ce9c74964", "asm": "30450221009f317de2b0e41e7371b6fd36b7a0b41ab70d2082dcc3d2ae5f7d556681b8400c02207049670b9b28eaa884602e8bef52254bb14c77acbcf050ee5b75c3d3d617757e[ALL] 02a58548c9ecbe12bb81cb6aebea0d4bc8bf2df6e6c66cae9f6198d66ce9c74964"}, "vout": 1, "txid": "31eb0c64e198121a80020da07ca97a02f9f6c85821e468ade70a5308cd047bf7"}, {"sequence": 4294967295, "scriptSig": {"hex": "4830450221009767d776735ce56c320e02b036157a5805ba2ceb1864bea1509cdb0b39a6ff4f02204d2bd05ec254612947724d8665400761c13d9422dd85d71f9a60b02db4750949012103112c96fd63093ba83b3d4d99723b0cae004d9bb3fab2bc8c74e42e97c89d7299", "asm": "30450221009767d776735ce56c320e02b036157a5805ba2ceb1864bea1509cdb0b39a6ff4f02204d2bd05ec254612947724d8665400761c13d9422dd85d71f9a60b02db4750949[ALL] 03112c96fd63093ba83b3d4d99723b0cae004d9bb3fab2bc8c74e42e97c89d7299"}, "vout": 2, "txid": "42548c9ef051e2639236ce7b44c944e729db322735a63ab8793351b721c8407c"}, {"sequence": 4294967295, "scriptSig": {"hex": "483045022100a4972b73755ed5ffbdf84bdb3ffe6ddf585c888b86144b38f839e185cdbac43302201d4fc7a451a0d652560016af42835e871ce79a8ae5e719e08c3f49ef2472c747012103112c96fd63093ba83b3d4d99723b0cae004d9bb3fab2bc8c74e42e97c89d7299", "asm": "3045022100a4972b73755ed5ffbdf84bdb3ffe6ddf585c888b86144b38f839e185cdbac43302201d4fc7a451a0d652560016af42835e871ce79a8ae5e719e08c3f49ef2472c747[ALL] 03112c96fd63093ba83b3d4d99723b0cae004d9bb3fab2bc8c74e42e97c89d7299"}, "vout": 0, "txid": "59d352cc39ad47ae97d2d12902506cf98e16406ea80515b68d31e1d9184df16b"}, {"sequence": 4294967295, "scriptSig": {"hex": "483045022100a8cb2fbc8a4b854722dca1dad9b9d9e12cbb6ba61a0c79f301c6edd4c6ebee6302204e85233049c4974246b45f157984c33b6436b071d81390e012ac11c9637290ce012102a58548c9ecbe12bb81cb6aebea0d4bc8bf2df6e6c66cae9f6198d66ce9c74964", "asm": "3045022100a8cb2fbc8a4b854722dca1dad9b9d9e12cbb6ba61a0c79f301c6edd4c6ebee6302204e85233049c4974246b45f157984c33b6436b071d81390e012ac11c9637290ce[ALL] 02a58548c9ecbe12bb81cb6aebea0d4bc8bf2df6e6c66cae9f6198d66ce9c74964"}, "vout": 0, "txid": "8124dfb9c6d998368911c034e47ddd8588c1195eb5e187c79eaa22790c6ad0b6"}], "txid": "fa1b5f3c01f60ae2ae24d37f181f94e6ef670a5f630a5a0979510fc34fd44840", "blocktime": 1537873891, "version": 1, "confirmations": 11478, "time": 1537873891, "locktime": 0, "vsize": 668, "size": 668}