{"hash": "fa2be372af3d9a06aeb9f6234d40846741e1fbc22608789f9da9f7a14fe4c3f4", "blockhash": "00000000000000000018f53835495a110e01622372bf6ae95dc86f2b0ab887b0", "vout": [{"scriptPubKey": {"reqSigs": 1, "hex": "76a9144c9973f4e270df486d888f301a9c24c71806150788ac", "addresses": ["17z2BgHgLLYJZzCEcyF1Cw94mp5rtPMZsk"], "asm": "OP_DUP OP_HASH160 4c9973f4e270df486d888f301a9c24c718061507 OP_EQUALVERIFY OP_CHECKSIG", "type": "pubkeyhash"}, "value": 0.00117174, "n": 0}, {"scriptPubKey": {"reqSigs": 1, "hex": "76a914fb98dae98c5a87a2b55dfd751b669e481699e23988ac", "addresses": ["1PwKiiAjxWYMW3nHrj3LpFSiMkvCrYNWoC"], "asm": "OP_DUP OP_HASH160 fb98dae98c5a87a2b55dfd751b669e481699e239 OP_EQUALVERIFY OP_CHECKSIG", "type": "pubkeyhash"}, "value": 0.02771422, "n": 1}], "hex": "01000000017093788c9a7b28166c70d6e766da8fb3fcdfac29e8d836c96abe9a9bb9081355010000006a4730440220464fc0e90eaaec71281b503df9334ca555cfc28ac7303d2f0edeb13106334eb502200e5a792bd22cc5a1d91a9f8d6018141ca087d0af92bb4a79dcc813d55845bd20012102579b4f8cf98a1849e05d0bbb63f278858266500261b899ecb7cdd38b4f348a55ffffffff02b6c90100000000001976a9144c9973f4e270df486d888f301a9c24c71806150788acde492a00000000001976a914fb98dae98c5a87a2b55dfd751b669e481699e23988ac00000000", "vin": [{"sequence": 4294967295, "scriptSig": {"hex": "4730440220464fc0e90eaaec71281b503df9334ca555cfc28ac7303d2f0edeb13106334eb502200e5a792bd22cc5a1d91a9f8d6018141ca087d0af92bb4a79dcc813d55845bd20012102579b4f8cf98a1849e05d0bbb63f278858266500261b899ecb7cdd38b4f348a55", "asm": "30440220464fc0e90eaaec71281b503df9334ca555cfc28ac7303d2f0edeb13106334eb502200e5a792bd22cc5a1d91a9f8d6018141ca087d0af92bb4a79dcc813d55845bd20[ALL] 02579b4f8cf98a1849e05d0bbb63f278858266500261b899ecb7cdd38b4f348a55"}, "vout": 1, "txid": "551308b99b9abe6ac936d8e829acdffcb38fda66e7d6706c16287b9a8c789370"}], "txid": "fa2be372af3d9a06aeb9f6234d40846741e1fbc22608789f9da9f7a14fe4c3f4", "blocktime": 1537870928, "version": 1, "confirmations": 11514, "time": 1537870928, "locktime": 0, "vsize": 225, "size": 225}