{"hash": "186e3e42190d2907c3b61fcc7427a97ec7df6ba338eaf1487c513c975c71ae9c", "blockhash": "00000000000000000018f53835495a110e01622372bf6ae95dc86f2b0ab887b0", "vout": [{"scriptPubKey": {"reqSigs": 1, "hex": "a914f257cdf16ea00a5eb4f4e8804243647dba6c7bac87", "addresses": ["3PnQdjAwzEcPqLECU55opCh4o3VkFZRvGL"], "asm": "OP_HASH160 f257cdf16ea00a5eb4f4e8804243647dba6c7bac OP_EQUAL", "type": "scripthash"}, "value": 3.04421285, "n": 0}, {"scriptPubKey": {"reqSigs": 1, "hex": "a914b5dda3d0f616cd1a7daf20f445611f1f5f2ba7f687", "addresses": ["3JGdk5MDbUJLNXd3RsJNnyxC1rtyi4EDVH"], "asm": "OP_HASH160 b5dda3d0f616cd1a7daf20f445611f1f5f2ba7f6 OP_EQUAL", "type": "scripthash"}, "value": 0.09573115, "n": 1}], "hex": "020000000001044f762286fced7578cfc7b891d6cce6cfd9fb6632beab6711eeab8c11642958660100000017160014055e5e584aa2020ff918a76afe898a8f43fd3073fdffffff7e399e5a642ca1158cc887eee0d40e1b5a3d0683ff1d7714fbaeed27934a20350100000017160014dec355e43dee72a82ca680ad01f7f1665d94d950fdffffffc6edeced762c26a48b1f42a07c427bed88b39607fd0a889230b5202bdb204db60100000017160014055e5e584aa2020ff918a76afe898a8f43fd3073fdffffffd57f683fcbf7a67b8122520d376d1afe7448e12265a34419170b7a7b5ddec53d0100000017160014055e5e584aa2020ff918a76afe898a8f43fd3073fdffffff02a51925120000000017a914f257cdf16ea00a5eb4f4e8804243647dba6c7bac87fb1292000000000017a914b5dda3d0f616cd1a7daf20f445611f1f5f2ba7f68702483045022100bcef47455f2aa43f4d8028c4d13d6c32a9a4344f7ba967b79f3fac5c9924296402207e12244078610dcd6ffd489a16560d4004ac85a911918e659c94996e4a2b4da9012102fd2aac4f48b8be94257b21658d2e0c211c05415ea34413b9c77139af19c143ff02483045022100d64f32c24deb121c299e1ad148a840b810fbc2b1a0429e11e524ddb967f3bd51022057a36c42def7df33238542fbfe7234ea420dcebff98d3a388e15694d89326b1f0121034d6d14c1d2df82c596aa4ee704943c1ed14af7d083bee4772f33afe8de50318902483045022100b4ed9c6ad2fddff2b609d535bbb164f54832daab4c13547f777cac94a51ace7d0220538e7ae8258b7fed567d139cd802701f221473c935696dda0d3fca246f714d68012102fd2aac4f48b8be94257b21658d2e0c211c05415ea34413b9c77139af19c143ff02483045022100a776ae475705b14af9176796e45bb3c08c9aa6d14089984655c3e93dd7135a750220514ad58ad0b4722d23035f5d2be3501a0547d61004efbb57da61c9dde3954f46012102fd2aac4f48b8be94257b21658d2e0c211c05415ea34413b9c77139af19c143ff0e490800", "vin": [{"txinwitness": ["3045022100bcef47455f2aa43f4d8028c4d13d6c32a9a4344f7ba967b79f3fac5c9924296402207e12244078610dcd6ffd489a16560d4004ac85a911918e659c94996e4a2b4da901", "02fd2aac4f48b8be94257b21658d2e0c211c05415ea34413b9c77139af19c143ff"], "sequence": 4294967293, "scriptSig": {"hex": "160014055e5e584aa2020ff918a76afe898a8f43fd3073", "asm": "0014055e5e584aa2020ff918a76afe898a8f43fd3073"}, "vout": 1, "txid": "66582964118cabee1167abbe3266fbd9cfe6ccd691b8c7cf7875edfc8622764f"}, {"txinwitness": ["3045022100d64f32c24deb121c299e1ad148a840b810fbc2b1a0429e11e524ddb967f3bd51022057a36c42def7df33238542fbfe7234ea420dcebff98d3a388e15694d89326b1f01", "034d6d14c1d2df82c596aa4ee704943c1ed14af7d083bee4772f33afe8de503189"], "sequence": 4294967293, "scriptSig": {"hex": "160014dec355e43dee72a82ca680ad01f7f1665d94d950", "asm": "0014dec355e43dee72a82ca680ad01f7f1665d94d950"}, "vout": 1, "txid": "35204a9327edaefb14771dff83063d5a1b0ed4e0ee87c88c15a12c645a9e397e"}, {"txinwitness": ["3045022100b4ed9c6ad2fddff2b609d535bbb164f54832daab4c13547f777cac94a51ace7d0220538e7ae8258b7fed567d139cd802701f221473c935696dda0d3fca246f714d6801", "02fd2aac4f48b8be94257b21658d2e0c211c05415ea34413b9c77139af19c143ff"], "sequence": 4294967293, "scriptSig": {"hex": "160014055e5e584aa2020ff918a76afe898a8f43fd3073", "asm": "0014055e5e584aa2020ff918a76afe898a8f43fd3073"}, "vout": 1, "txid": "b64d20db2b20b53092880afd0796b388ed7b427ca0421f8ba4262c76edecedc6"}, {"txinwitness": ["3045022100a776ae475705b14af9176796e45bb3c08c9aa6d14089984655c3e93dd7135a750220514ad58ad0b4722d23035f5d2be3501a0547d61004efbb57da61c9dde3954f4601", "02fd2aac4f48b8be94257b21658d2e0c211c05415ea34413b9c77139af19c143ff"], "sequence": 4294967293, "scriptSig": {"hex": "160014055e5e584aa2020ff918a76afe898a8f43fd3073", "asm": "0014055e5e584aa2020ff918a76afe898a8f43fd3073"}, "vout": 1, "txid": "3dc5de5d7b7a0b171944a36522e14874fe1a6d370d5222817ba6f7cb3f687fd5"}], "txid": "fa2c671742cee6ab7a92df29e09200e6368746d6add9e6cebc553c3a5f70a8c3", "blocktime": 1537870928, "version": 2, "confirmations": 11512, "time": 1537870928, "locktime": 542990, "vsize": 439, "size": 764}