{"hash": "fa2dfc48246a8abf3886176f85645fb94cf2f47b1f76bfae2be189851fd7cbb6", "blockhash": "0000000000000000001cda96e906b7601b7a6fb1a3b62bca570a9e5d8f4b3de1", "vout": [{"scriptPubKey": {"reqSigs": 1, "hex": "76a9148cdcbe6c99a6199193ee334763894220d3b6e2fb88ac", "addresses": ["1Dqp3QdinGijJrWQZZC9bwdLw5nsA3y8j5"], "asm": "OP_DUP OP_HASH160 8cdcbe6c99a6199193ee334763894220d3b6e2fb OP_EQUALVERIFY OP_CHECKSIG", "type": "pubkeyhash"}, "value": 0.09442632, "n": 0}], "hex": "010000000189287fc1a3782d829be74a5f37720c27c404ddeac142310482cc3e4ead683824000000006b4830450221009e5862ce9fe415d265e90618f1f0661a4e05088144abee7fa2a6c4afd9db4d5d022009c7b1ee9fc24b8764fecc6a1965f9aa4c17ddfb4cdaab2fe30ada47880661400121026f48155331e74f2f4ad8c87434f2c037f66d2c3cbe496fbeae22d75f54946121ffffffff0148159000000000001976a9148cdcbe6c99a6199193ee334763894220d3b6e2fb88ac00000000", "vin": [{"sequence": 4294967295, "scriptSig": {"hex": "4830450221009e5862ce9fe415d265e90618f1f0661a4e05088144abee7fa2a6c4afd9db4d5d022009c7b1ee9fc24b8764fecc6a1965f9aa4c17ddfb4cdaab2fe30ada47880661400121026f48155331e74f2f4ad8c87434f2c037f66d2c3cbe496fbeae22d75f54946121", "asm": "30450221009e5862ce9fe415d265e90618f1f0661a4e05088144abee7fa2a6c4afd9db4d5d022009c7b1ee9fc24b8764fecc6a1965f9aa4c17ddfb4cdaab2fe30ada4788066140[ALL] 026f48155331e74f2f4ad8c87434f2c037f66d2c3cbe496fbeae22d75f54946121"}, "vout": 0, "txid": "243868ad4e3ecc82043142c1eadd04c4270c72375f4ae79b822d78a3c17f2889"}], "txid": "fa2dfc48246a8abf3886176f85645fb94cf2f47b1f76bfae2be189851fd7cbb6", "blocktime": 1537873282, "version": 1, "confirmations": 11484, "time": 1537873282, "locktime": 0, "vsize": 192, "size": 192}