{"hash": "fa2e85fa92363c251e775731f3055dc3b0497b6fc0d0c0f8556ea4f6b2fd7973", "blockhash": "00000000000000000024a2167bbff67b0be802c0b01cdd79e6331c2be6459f87", "vout": [{"scriptPubKey": {"reqSigs": 1, "hex": "76a914e2edd6f181cc2c93014b83c11c88ba7e2aaa4b3688ac", "addresses": ["1MgtdjwagpQm3URJs391udgTMa1TuZjoYG"], "asm": "OP_DUP OP_HASH160 e2edd6f181cc2c93014b83c11c88ba7e2aaa4b36 OP_EQUALVERIFY OP_CHECKSIG", "type": "pubkeyhash"}, "value": 0.02942202, "n": 0}, {"scriptPubKey": {"reqSigs": 1, "hex": "76a914406c01813ea20658a09b59107b260e700faa493888ac", "addresses": ["16sddf7cCcDYMcDs1biVP2aEdDigqvGh9A"], "asm": "OP_DUP OP_HASH160 406c01813ea20658a09b59107b260e700faa4938 OP_EQUALVERIFY OP_CHECKSIG", "type": "pubkeyhash"}, "value": 0.130986, "n": 1}], "hex": "01000000017738d66a5423e3edf11d0308117893e7425ff13c3abbe72bd5a71a6525566e69010000006a473044022002ce4be6d27cecd944bd2258663804dcdd239c3e8d5f9bb8a1d323ff0aff7bd40220423a59ceaf269456e179c474f0b8b892384280acf9bf12eceddc3bccdbf6ffc10121034d316644e8d2bdbcdb522954a5b6fe636cf58ca42cb3fa74f83679ba003d79d7ffffffff02fae42c00000000001976a914e2edd6f181cc2c93014b83c11c88ba7e2aaa4b3688ac68dec700000000001976a914406c01813ea20658a09b59107b260e700faa493888ac00000000", "vin": [{"sequence": 4294967295, "scriptSig": {"hex": "473044022002ce4be6d27cecd944bd2258663804dcdd239c3e8d5f9bb8a1d323ff0aff7bd40220423a59ceaf269456e179c474f0b8b892384280acf9bf12eceddc3bccdbf6ffc10121034d316644e8d2bdbcdb522954a5b6fe636cf58ca42cb3fa74f83679ba003d79d7", "asm": "3044022002ce4be6d27cecd944bd2258663804dcdd239c3e8d5f9bb8a1d323ff0aff7bd40220423a59ceaf269456e179c474f0b8b892384280acf9bf12eceddc3bccdbf6ffc1[ALL] 034d316644e8d2bdbcdb522954a5b6fe636cf58ca42cb3fa74f83679ba003d79d7"}, "vout": 1, "txid": "696e5625651aa7d52be7bb3a3cf15f42e793781108031df1ede323546ad63877"}], "txid": "fa2e85fa92363c251e775731f3055dc3b0497b6fc0d0c0f8556ea4f6b2fd7973", "blocktime": 1537870564, "version": 1, "confirmations": 11515, "time": 1537870564, "locktime": 0, "vsize": 225, "size": 225}