{"hash": "f37e46f60aa9eca5494502efc08d1d5dd38d9694bc91d8bf6e0350be445668d8", "blockhash": "0000000000000000000e13cef7c366c0283d82e591d1acd082e914b08063cdf1", "vout": [{"scriptPubKey": {"reqSigs": 1, "hex": "00145133e38de7553f0691c045bd9119cbf12a18bd56", "addresses": ["bc1q2ye78r0825lsdywqgk7ezxwt7y4p302kh4jwp8"], "asm": "0 5133e38de7553f0691c045bd9119cbf12a18bd56", "type": "witness_v0_keyhash"}, "value": 1.573e-05, "n": 0}, {"scriptPubKey": {"reqSigs": 1, "hex": "a914318e367669358d696ae0a78c1c13f00ef47c387d87", "addresses": ["36D3Q4KrjRWdLnPf5pK4JGcVWiCZRgLEom"], "asm": "OP_HASH160 318e367669358d696ae0a78c1c13f00ef47c387d OP_EQUAL", "type": "scripthash"}, "value": 0.00314063, "n": 1}], "hex": "0100000000010114faaff0b41870bc4f6988b603598bbf9827f3e9952297170605351c03355e4b0000000000ffffffff0225060000000000001600145133e38de7553f0691c045bd9119cbf12a18bd56cfca04000000000017a914318e367669358d696ae0a78c1c13f00ef47c387d870247304402203fbc35d59d8803a514279adf611a9af914bd0924182bc2e0d7254d151ed0efc3022030181d452eae1fd9dd73f61a1b52742e16df91f5b9cf0d8e9c4a02092509fa6a012102ca6047d84cc52436b9bc461150650042879484dfd10d84daeb0afb9f9578a2fe00000000", "vin": [{"txinwitness": ["304402203fbc35d59d8803a514279adf611a9af914bd0924182bc2e0d7254d151ed0efc3022030181d452eae1fd9dd73f61a1b52742e16df91f5b9cf0d8e9c4a02092509fa6a01", "02ca6047d84cc52436b9bc461150650042879484dfd10d84daeb0afb9f9578a2fe"], "sequence": 4294967295, "scriptSig": {"hex": "", "asm": ""}, "vout": 0, "txid": "4b5e35031c35050617972295e9f32798bf8b5903b688694fbc7018b4f0affa14"}], "txid": "fa321a34556a6090205a9a11261635df377c068676bd17d074221491e9b6b84e", "blocktime": 1537871767, "version": 1, "confirmations": 11495, "time": 1537871767, "locktime": 0, "vsize": 142, "size": 223}