{"hash": "fa348125180d2434bacfe8f470b862d9351ff833b303448cd4131dc861861df7", "blockhash": "00000000000000000024a2167bbff67b0be802c0b01cdd79e6331c2be6459f87", "vout": [{"scriptPubKey": {"reqSigs": 1, "hex": "76a91400022ba401afa9c42152ecba7da04af1f46475fa88ac", "addresses": ["113booiGtynfyC9eZexcAXGj7vQ1gCq4M"], "asm": "OP_DUP OP_HASH160 00022ba401afa9c42152ecba7da04af1f46475fa OP_EQUALVERIFY OP_CHECKSIG", "type": "pubkeyhash"}, "value": 4.23e-05, "n": 0}, {"scriptPubKey": {"reqSigs": 1, "hex": "76a91438a5a508458ee8554a42b247f66c92f027114d5488ac", "addresses": ["16AXGwEb9htgBVQS1Z8ge5dUy97gEca6xB"], "asm": "OP_DUP OP_HASH160 38a5a508458ee8554a42b247f66c92f027114d54 OP_EQUALVERIFY OP_CHECKSIG", "type": "pubkeyhash"}, "value": 0.0200731, "n": 1}], "hex": "010000000297f4ed066e7c4241e126eaa5e2ce2ea44600cc2046ec2511f94bc9bba3fbe224000000006b483045022100f96dd3c573316bdd7a598f231516664cff35545a489ab0b88dc2a56f15ca1bae02201beff95fdf3a3534199d5ee6dd5eb48c0d1b72562b7b375db314628e358f91cb0121027d77a70dc715a6160074f652365dd46f74a78ab840aca550432f5ce753a3a567ffffffff8d5b314ed069a485a0057302b493657ff8df01d7341e6996881d80de196bb03b000000006a473044022017b275fdcee70343a859a28a63d5c69564cfd6685f33ea181a67fe4a0bb8211602205ee3c2e1781b3873b9b7cbec295e00daa9e5235080da7ff612f6a0cafcae39a501210213e8a9681c5cf0c80bd671a057b7e6b6a6788a85458ff75cbb3a4a49e3d9dd89ffffffff0286100000000000001976a91400022ba401afa9c42152ecba7da04af1f46475fa88ac0ea11e00000000001976a91438a5a508458ee8554a42b247f66c92f027114d5488ac00000000", "vin": [{"sequence": 4294967295, "scriptSig": {"hex": "483045022100f96dd3c573316bdd7a598f231516664cff35545a489ab0b88dc2a56f15ca1bae02201beff95fdf3a3534199d5ee6dd5eb48c0d1b72562b7b375db314628e358f91cb0121027d77a70dc715a6160074f652365dd46f74a78ab840aca550432f5ce753a3a567", "asm": "3045022100f96dd3c573316bdd7a598f231516664cff35545a489ab0b88dc2a56f15ca1bae02201beff95fdf3a3534199d5ee6dd5eb48c0d1b72562b7b375db314628e358f91cb[ALL] 027d77a70dc715a6160074f652365dd46f74a78ab840aca550432f5ce753a3a567"}, "vout": 0, "txid": "24e2fba3bbc94bf91125ec4620cc0046a42ecee2a5ea26e141427c6e06edf497"}, {"sequence": 4294967295, "scriptSig": {"hex": "473044022017b275fdcee70343a859a28a63d5c69564cfd6685f33ea181a67fe4a0bb8211602205ee3c2e1781b3873b9b7cbec295e00daa9e5235080da7ff612f6a0cafcae39a501210213e8a9681c5cf0c80bd671a057b7e6b6a6788a85458ff75cbb3a4a49e3d9dd89", "asm": "3044022017b275fdcee70343a859a28a63d5c69564cfd6685f33ea181a67fe4a0bb8211602205ee3c2e1781b3873b9b7cbec295e00daa9e5235080da7ff612f6a0cafcae39a5[ALL] 0213e8a9681c5cf0c80bd671a057b7e6b6a6788a85458ff75cbb3a4a49e3d9dd89"}, "vout": 0, "txid": "3bb06b19de801d8896691e34d701dff87f6593b4027305a085a469d04e315b8d"}], "txid": "fa348125180d2434bacfe8f470b862d9351ff833b303448cd4131dc861861df7", "blocktime": 1537870564, "version": 1, "confirmations": 11515, "time": 1537870564, "locktime": 0, "vsize": 373, "size": 373}