{"hash": "55de5fd5301640596e448ee38f3e87d8afda7c117c32ce84c949eee6977ee95b", "blockhash": "00000000000000000017f5eb5941039fbcee6240d03bc1f2f8e35350df66a1d8", "vout": [{"scriptPubKey": {"reqSigs": 1, "hex": "76a914b22b702a52cd441bac087aeb14e34d2b1c15deb488ac", "addresses": ["1HF5KHJcLDHmRiLsZKXiwx9LMSy6H5nWjS"], "asm": "OP_DUP OP_HASH160 b22b702a52cd441bac087aeb14e34d2b1c15deb4 OP_EQUALVERIFY OP_CHECKSIG", "type": "pubkeyhash"}, "value": 0.002871, "n": 0}, {"scriptPubKey": {"reqSigs": 1, "hex": "a914f5342287aaa57f5c05756dbd5ef14091cc70030f87", "addresses": ["3Q3XvwKWsx3ocmCXheK6pAo5ieooFx75hh"], "asm": "OP_HASH160 f5342287aaa57f5c05756dbd5ef14091cc70030f OP_EQUAL", "type": "scripthash"}, "value": 0.08274294, "n": 1}], "hex": "01000000000101ef7c457d09945b7c00ef4f7a064fbf7687198c79afd9697855381cecb0e422f901000000232200204fd7968ffe15cb453352a1e9ee2915eff8b6d6252d5a351f9092b82ca10eb12cffffffff027c610400000000001976a914b22b702a52cd441bac087aeb14e34d2b1c15deb488ac76417e000000000017a914f5342287aaa57f5c05756dbd5ef14091cc70030f870400473044022050c047113189adb24ea04c430218a399398020e825bf29c0c865abd613627254022036ebf3d0c5fc7f4f58cbccb2de91856f01d23a2ac454d9a95f4c41105b4d9f6801473044022052e09624c07d28b03af976ec0540afae88af5f0856e300888ef9f7c3005bf9a7022055058601b726b6303c8bdc3d29d94d272a911a7ef77a6aa6094f17b9b44174980147522103b70e79262cbb7310fe069dea7c473b53276b75c67fb841ff66279f152a3fe0172103871fc2ca08e6950b38867e8e6a0e94ee625223d3aa0df5c65f414c6d784467e252ae00000000", "vin": [{"txinwitness": ["", "3044022050c047113189adb24ea04c430218a399398020e825bf29c0c865abd613627254022036ebf3d0c5fc7f4f58cbccb2de91856f01d23a2ac454d9a95f4c41105b4d9f6801", "3044022052e09624c07d28b03af976ec0540afae88af5f0856e300888ef9f7c3005bf9a7022055058601b726b6303c8bdc3d29d94d272a911a7ef77a6aa6094f17b9b441749801", "522103b70e79262cbb7310fe069dea7c473b53276b75c67fb841ff66279f152a3fe0172103871fc2ca08e6950b38867e8e6a0e94ee625223d3aa0df5c65f414c6d784467e252ae"], "sequence": 4294967295, "scriptSig": {"hex": "2200204fd7968ffe15cb453352a1e9ee2915eff8b6d6252d5a351f9092b82ca10eb12c", "asm": "00204fd7968ffe15cb453352a1e9ee2915eff8b6d6252d5a351f9092b82ca10eb12c"}, "vout": 1, "txid": "f922e4b0ec1c38557869d9af798c198776bf4f067a4fef007c5b94097d457cef"}], "txid": "fa39d5fb4ccf3f039687d34d49acc22b995382dc5401411b78a137df05f75db4", "blocktime": 1537874412, "version": 1, "confirmations": 11467, "time": 1537874412, "locktime": 0, "vsize": 207, "size": 372}