{"hash": "fa3ac6619555ba81ede499c56d184af772049dc06e60e4172d49b7ca1d9b7296", "blockhash": "0000000000000000000baef3f32e3676a92c3b2e5da21b426e4f302fc371ce76", "vout": [{"scriptPubKey": {"reqSigs": 1, "hex": "76a9146d3a1f1a366e0c2f464214eced5fe2baf0ffac8488ac", "addresses": ["1AxYHGBMAJw6uwemM7h7U32CSuGFxBLcd9"], "asm": "OP_DUP OP_HASH160 6d3a1f1a366e0c2f464214eced5fe2baf0ffac84 OP_EQUALVERIFY OP_CHECKSIG", "type": "pubkeyhash"}, "value": 0.00213738, "n": 0}, {"scriptPubKey": {"reqSigs": 1, "hex": "76a9142fc6460e33d662ff61f6d8a5ebc4904621364ecf88ac", "addresses": ["15McHK3LTmUxjCMwNvfc7uW43Z3cTJtzXj"], "asm": "OP_DUP OP_HASH160 2fc6460e33d662ff61f6d8a5ebc4904621364ecf OP_EQUALVERIFY OP_CHECKSIG", "type": "pubkeyhash"}, "value": 0.00131257, "n": 1}], "hex": "0100000001e9a846f1fd99a1ef37a2b5c3e209d58fd9bf74099ab474ff525ca756dc6383ab000000006b483045022100abcc5d484b10126611676ac5894ddbcac0eae40abb12c472f17e95b76a8bd5ba02205225378bf16799aaad2054b49b65f42cfc2dfe554c70dd9010a717aa6700280d012103d1524b841027ae04b146374a5d863584cc79f7e945b84ba1d9df05fee4b0b64affffffff02ea420300000000001976a9146d3a1f1a366e0c2f464214eced5fe2baf0ffac8488acb9000200000000001976a9142fc6460e33d662ff61f6d8a5ebc4904621364ecf88ac00000000", "vin": [{"sequence": 4294967295, "scriptSig": {"hex": "483045022100abcc5d484b10126611676ac5894ddbcac0eae40abb12c472f17e95b76a8bd5ba02205225378bf16799aaad2054b49b65f42cfc2dfe554c70dd9010a717aa6700280d012103d1524b841027ae04b146374a5d863584cc79f7e945b84ba1d9df05fee4b0b64a", "asm": "3045022100abcc5d484b10126611676ac5894ddbcac0eae40abb12c472f17e95b76a8bd5ba02205225378bf16799aaad2054b49b65f42cfc2dfe554c70dd9010a717aa6700280d[ALL] 03d1524b841027ae04b146374a5d863584cc79f7e945b84ba1d9df05fee4b0b64a"}, "vout": 0, "txid": "ab8363dc56a75c52ff74b49a0974bfd98fd509e2c3b5a237efa199fdf146a8e9"}], "txid": "fa3ac6619555ba81ede499c56d184af772049dc06e60e4172d49b7ca1d9b7296", "blocktime": 1537876114, "version": 1, "confirmations": 11459, "time": 1537876114, "locktime": 0, "vsize": 226, "size": 226}