{"hash": "fa3c252ebcf5f4275ed23bb9908589cb10023ac001d7d5f0e5ac9edf7f7b9527", "blockhash": "00000000000000000024a2167bbff67b0be802c0b01cdd79e6331c2be6459f87", "vout": [{"scriptPubKey": {"reqSigs": 1, "hex": "76a914d243e6abb9a60fbff430b421d2df4b7d59ec186088ac", "addresses": ["1LAnF8h3qMGx3TSwNUHVneBZUEpwE4gu3D"], "asm": "OP_DUP OP_HASH160 d243e6abb9a60fbff430b421d2df4b7d59ec1860 OP_EQUALVERIFY OP_CHECKSIG", "type": "pubkeyhash"}, "value": 0.00087802, "n": 0}, {"scriptPubKey": {"reqSigs": 1, "hex": "76a9143851f34d13937b673a7d24a1950bb5b21ce94af388ac", "addresses": ["168o1kqNquEJeR9vosUB5fw4eAwcVAgh8P"], "asm": "OP_DUP OP_HASH160 3851f34d13937b673a7d24a1950bb5b21ce94af3 OP_EQUALVERIFY OP_CHECKSIG", "type": "pubkeyhash"}, "value": 5.46e-06, "n": 1}, {"scriptPubKey": {"type": "nulldata", "hex": "6a146f6d6e69000000000000001f000000178411b200", "asm": "OP_RETURN 6f6d6e69000000000000001f000000178411b200"}, "value": 0.0, "n": 2}], "hex": "01000000025220782ec213a9e53d511f384193ca66ab103737c694f67a3d76b07d04fddf3e020000006a473044022047354bbeac73168dd74074cbf6072b514309e0f96a2833dbb0f602f206b175d602205201cba57ce64a7b522ed1ccd811c466e6ea571242314618aabbef1dfe7cbd35012102af25b850c1fc6c41f69d268b0a403b91fcd019e05495b287329f4cb3dfd2d1d5ffffffff960096c53b6ff26bf90f69e1ebd534692f0ed1c4accaead6caaca0cf3303f59e000000006a47304402201a8ee06bce61650081b1a26d573f28b3dfd7aab7342571d6080e9ff2e14d25ce022007220eb5bad92f82475e310fcaa041b0aaa431655ba5ef62d9bcc35db439d9a101210271977291b74f1f5f5c42157e8aae804664eaaeccfd097918450d37f28fb94d77ffffffff03fa560100000000001976a914d243e6abb9a60fbff430b421d2df4b7d59ec186088ac22020000000000001976a9143851f34d13937b673a7d24a1950bb5b21ce94af388ac0000000000000000166a146f6d6e69000000000000001f000000178411b20000000000", "vin": [{"sequence": 4294967295, "scriptSig": {"hex": "473044022047354bbeac73168dd74074cbf6072b514309e0f96a2833dbb0f602f206b175d602205201cba57ce64a7b522ed1ccd811c466e6ea571242314618aabbef1dfe7cbd35012102af25b850c1fc6c41f69d268b0a403b91fcd019e05495b287329f4cb3dfd2d1d5", "asm": "3044022047354bbeac73168dd74074cbf6072b514309e0f96a2833dbb0f602f206b175d602205201cba57ce64a7b522ed1ccd811c466e6ea571242314618aabbef1dfe7cbd35[ALL] 02af25b850c1fc6c41f69d268b0a403b91fcd019e05495b287329f4cb3dfd2d1d5"}, "vout": 2, "txid": "3edffd047db0763d7af694c6373710ab66ca9341381f513de5a913c22e782052"}, {"sequence": 4294967295, "scriptSig": {"hex": "47304402201a8ee06bce61650081b1a26d573f28b3dfd7aab7342571d6080e9ff2e14d25ce022007220eb5bad92f82475e310fcaa041b0aaa431655ba5ef62d9bcc35db439d9a101210271977291b74f1f5f5c42157e8aae804664eaaeccfd097918450d37f28fb94d77", "asm": "304402201a8ee06bce61650081b1a26d573f28b3dfd7aab7342571d6080e9ff2e14d25ce022007220eb5bad92f82475e310fcaa041b0aaa431655ba5ef62d9bcc35db439d9a1[ALL] 0271977291b74f1f5f5c42157e8aae804664eaaeccfd097918450d37f28fb94d77"}, "vout": 0, "txid": "9ef50333cfa0accad6eacaacc4d10e2f6934d5ebe1690ff96bf26f3bc5960096"}], "txid": "fa3c252ebcf5f4275ed23bb9908589cb10023ac001d7d5f0e5ac9edf7f7b9527", "blocktime": 1537870564, "version": 1, "confirmations": 11515, "time": 1537870564, "locktime": 0, "vsize": 403, "size": 403}