{"hash": "fa473e700a400d38cda1c4d518ab12bcf663115a1b9518bb0d4e59ef74d81e0e", "blockhash": "0000000000000000000e13cef7c366c0283d82e591d1acd082e914b08063cdf1", "vout": [{"scriptPubKey": {"reqSigs": 1, "hex": "a914397768455562c5a3d47008670944c5fd4324324887", "addresses": ["36vsV3TtWxNBS5BM7YpnQmLMFhNsP6QSo7"], "asm": "OP_HASH160 397768455562c5a3d47008670944c5fd43243248 OP_EQUAL", "type": "scripthash"}, "value": 0.01972076, "n": 0}], "hex": "01000000010cb47fcbc94faf5d96d01c8eca32118c204c36a9c3d12ee4e6746e5a54b80d87000000006b483045022100c65d7f3b5a337b08517bc493f02bac91723c7bbb7e578c8259fda1c776e851c2022063c32dc4313ce6dc392c0700727f97b523825bde09e8df6dc0e6abad5783570c012103024044b5aff7fd6fefed7916c665c118d0d226ba05c9b33d4e7bd2059c64857effffffff016c171e000000000017a914397768455562c5a3d47008670944c5fd432432488700000000", "vin": [{"sequence": 4294967295, "scriptSig": {"hex": "483045022100c65d7f3b5a337b08517bc493f02bac91723c7bbb7e578c8259fda1c776e851c2022063c32dc4313ce6dc392c0700727f97b523825bde09e8df6dc0e6abad5783570c012103024044b5aff7fd6fefed7916c665c118d0d226ba05c9b33d4e7bd2059c64857e", "asm": "3045022100c65d7f3b5a337b08517bc493f02bac91723c7bbb7e578c8259fda1c776e851c2022063c32dc4313ce6dc392c0700727f97b523825bde09e8df6dc0e6abad5783570c[ALL] 03024044b5aff7fd6fefed7916c665c118d0d226ba05c9b33d4e7bd2059c64857e"}, "vout": 0, "txid": "870db8545a6e74e6e42ed1c3a9364c208c1132ca8e1cd0965daf4fc9cb7fb40c"}], "txid": "fa473e700a400d38cda1c4d518ab12bcf663115a1b9518bb0d4e59ef74d81e0e", "blocktime": 1537871767, "version": 1, "confirmations": 11495, "time": 1537871767, "locktime": 0, "vsize": 190, "size": 190}