{"hash": "675edd5bdaa9a41e8356628e3be08daaa110be8227afd7625d320508fdae7fa9", "blockhash": "0000000000000000001e0dab787dd257d1dbfcb92a98c2207d5e1078be1f4165", "vout": [{"scriptPubKey": {"reqSigs": 1, "hex": "a91420a5d7e783156b15c9ae371f915923b4d20de2ef87", "addresses": ["34feDgWvtPZLVPyZNRpmTzgT46h8njzBfg"], "asm": "OP_HASH160 20a5d7e783156b15c9ae371f915923b4d20de2ef OP_EQUAL", "type": "scripthash"}, "value": 0.00835, "n": 0}, {"scriptPubKey": {"reqSigs": 1, "hex": "a914a5c679defd49547b8133a1367eeadbdeaecec3da87", "addresses": ["3GoZBZ6F8g4UiCt7moPNLDX7KKwgtGgLUT"], "asm": "OP_HASH160 a5c679defd49547b8133a1367eeadbdeaecec3da OP_EQUAL", "type": "scripthash"}, "value": 0.5958653, "n": 1}], "hex": "010000000001017c7847bb7420f47a6e5d601afd4b01cf0cd6d7eecd3e51c737e70dd39c52239401000000232200202d90cd274cea8141a030c0b79acc5b5c0b80b73d028692a1104913808bff6c09ffffffff02b8bd0c000000000017a91420a5d7e783156b15c9ae371f915923b4d20de2ef87e2378d030000000017a914a5c679defd49547b8133a1367eeadbdeaecec3da870400483045022100b885e5132e2a328277b61064f86368dea0c997dcfd3e999ebbf96f27d5a6822c0220485bc14c3d9777ea6c84071ece5ca94ae8dffa70a546f97e0320a950d95e17de01483045022100bfdc4256603c2364b6c09e5a1c19081400b55d68e0ea0ff193208e8a6c688752022002615575fef2617504aef804e81ac27dbff568624af4f75b02a0e969d2c59a2c014752210295d70c0f10033e6e119fdc61ddd495bfe23995150af6df4688db5bf235f2853b21023e4b58fb2a91970de56515d11487aabd364f0404f1099bef70493cc56002342352ae00000000", "vin": [{"txinwitness": ["", "3045022100b885e5132e2a328277b61064f86368dea0c997dcfd3e999ebbf96f27d5a6822c0220485bc14c3d9777ea6c84071ece5ca94ae8dffa70a546f97e0320a950d95e17de01", "3045022100bfdc4256603c2364b6c09e5a1c19081400b55d68e0ea0ff193208e8a6c688752022002615575fef2617504aef804e81ac27dbff568624af4f75b02a0e969d2c59a2c01", "52210295d70c0f10033e6e119fdc61ddd495bfe23995150af6df4688db5bf235f2853b21023e4b58fb2a91970de56515d11487aabd364f0404f1099bef70493cc56002342352ae"], "sequence": 4294967295, "scriptSig": {"hex": "2200202d90cd274cea8141a030c0b79acc5b5c0b80b73d028692a1104913808bff6c09", "asm": "00202d90cd274cea8141a030c0b79acc5b5c0b80b73d028692a1104913808bff6c09"}, "vout": 1, "txid": "9423529cd30de737c7513ecdeed7d60ccf014bfd1a605d6e7af42074bb47787c"}], "txid": "fa499507a2ec71565e66069a7a4af35ca48530080b1d24cc73159255b3723d8e", "blocktime": 1537872475, "version": 1, "confirmations": 11487, "time": 1537872475, "locktime": 0, "vsize": 206, "size": 372}