{"hash": "1f2517948064d13f828accebe24afc4c03fdf76eb1be3417564596b01494eb07", "blockhash": "00000000000000000017f5eb5941039fbcee6240d03bc1f2f8e35350df66a1d8", "vout": [{"scriptPubKey": {"reqSigs": 1, "hex": "a9141958db8d3db21addb10e85bdb5bc556d45e996ff87", "addresses": ["3413GGvuHYNv8pnknZ8oRFcmCqspQayDJT"], "asm": "OP_HASH160 1958db8d3db21addb10e85bdb5bc556d45e996ff OP_EQUAL", "type": "scripthash"}, "value": 1.84906003, "n": 0}, {"scriptPubKey": {"reqSigs": 1, "hex": "76a9149248bc3036fad18b967f9e1ec9f9da7f2c5a107788ac", "addresses": ["1ELUnjRCL8GC1UD4LwEQMrWDmoQK2zj7pz"], "asm": "OP_DUP OP_HASH160 9248bc3036fad18b967f9e1ec9f9da7f2c5a1077 OP_EQUALVERIFY OP_CHECKSIG", "type": "pubkeyhash"}, "value": 0.0249967, "n": 1}], "hex": "02000000000101e30de47201a1bc269364a913bfa8f4459b20909a6e7ca4d45d3e42b02225e009000000001716001416ca03e61476a889195e064e8d7f290bfeb941f5feffffff021371050b0000000017a9141958db8d3db21addb10e85bdb5bc556d45e996ff8756242600000000001976a9149248bc3036fad18b967f9e1ec9f9da7f2c5a107788ac0247304402204bad546e3d86d085d9fcdde80c1c45f02b635e857243904a799230d32cb0dfe702207b0d1a70acc0c3c1c130ccb123987d9d79c42c3832957efda6d54d11a1559fab0121021f6713fc6b1a040840f755ce02195a579bed3ad99da3a07caaf09fa16429f1d315490800", "vin": [{"txinwitness": ["304402204bad546e3d86d085d9fcdde80c1c45f02b635e857243904a799230d32cb0dfe702207b0d1a70acc0c3c1c130ccb123987d9d79c42c3832957efda6d54d11a1559fab01", "021f6713fc6b1a040840f755ce02195a579bed3ad99da3a07caaf09fa16429f1d3"], "sequence": 4294967294, "scriptSig": {"hex": "16001416ca03e61476a889195e064e8d7f290bfeb941f5", "asm": "001416ca03e61476a889195e064e8d7f290bfeb941f5"}, "vout": 0, "txid": "09e02522b0423e5dd4a47c6e9a90209b45f4a8bf13a9649326bca10172e40de3"}], "txid": "fa4a0e24344ef040abbfe087d712063637d61d4c9e3bf046b41ff46f82701dd9", "blocktime": 1537874412, "version": 2, "confirmations": 11468, "time": 1537874412, "locktime": 542997, "vsize": 168, "size": 249}