{"hash": "fa4d1e3ff432ae41709ce2160b6faece8276bc7d86836264c04d9485718f9bfc", "blockhash": "0000000000000000000dcc0f55137456b1a82d3642486a52398922ac4d620174", "vout": [{"scriptPubKey": {"reqSigs": 1, "hex": "a914d3eec0ef3f23c8929c7c9e3d0b3d7720266813e287", "addresses": ["3M1cWuzRrDmnTNAxyh9S2iuztXQwDDTST5"], "asm": "OP_HASH160 d3eec0ef3f23c8929c7c9e3d0b3d7720266813e2 OP_EQUAL", "type": "scripthash"}, "value": 0.29997708, "n": 0}], "hex": "0100000001f3b8af665fc23a0bb55f3aac323533f582e7fbbec6fde1b31bf8b2cefcffe510000000006b483045022100f16b5faa5c808ba2fcc9e91396537f465ff24b00e663053d5c327b47f43e25b202206317d7cb0bab4d4f920f42e77e2a59ae86a43a628b755b6cba206b8ff545adb1012103c874276ea3393587216998c9eb8a26895b5e11f7fef1f6a5b3b299fa5c1220fbffffffff018cbac9010000000017a914d3eec0ef3f23c8929c7c9e3d0b3d7720266813e28700000000", "vin": [{"sequence": 4294967295, "scriptSig": {"hex": "483045022100f16b5faa5c808ba2fcc9e91396537f465ff24b00e663053d5c327b47f43e25b202206317d7cb0bab4d4f920f42e77e2a59ae86a43a628b755b6cba206b8ff545adb1012103c874276ea3393587216998c9eb8a26895b5e11f7fef1f6a5b3b299fa5c1220fb", "asm": "3045022100f16b5faa5c808ba2fcc9e91396537f465ff24b00e663053d5c327b47f43e25b202206317d7cb0bab4d4f920f42e77e2a59ae86a43a628b755b6cba206b8ff545adb1[ALL] 03c874276ea3393587216998c9eb8a26895b5e11f7fef1f6a5b3b299fa5c1220fb"}, "vout": 0, "txid": "10e5fffcceb2f81bb3e1fdc6befbe782f5333532ac3a5fb50b3ac25f66afb8f3"}], "txid": "fa4d1e3ff432ae41709ce2160b6faece8276bc7d86836264c04d9485718f9bfc", "blocktime": 1537870268, "version": 1, "confirmations": 11518, "time": 1537870268, "locktime": 0, "vsize": 190, "size": 190}