{"hash": "fa52c8439b26b754300651572bebd985c777ab18af7bb096a20974bdb42b877c", "blockhash": "0000000000000000001f76057863aec43deb6fa401d9628bb513d65a8098bfab", "vout": [{"scriptPubKey": {"type": "nulldata", "hex": "6a4c50000077e6000161dc3a54468767839737f9e07af8e8e963c7cfd5b95b23cc0f42c2fc38c57f206ed8c891b25601c22469470d78a35baa175506124534b18816651d100759d4ba30d2c37bb011d97e02cf", "asm": "OP_RETURN 000077e6000161dc3a54468767839737f9e07af8e8e963c7cfd5b95b23cc0f42c2fc38c57f206ed8c891b25601c22469470d78a35baa175506124534b18816651d100759d4ba30d2c37bb011d97e02cf"}, "value": 0.0, "n": 0}, {"scriptPubKey": {"reqSigs": 1, "hex": "76a9143c8bd825f93d457a77a79bd8ab67597e30a89d0188ac", "addresses": ["16X954iteCwrPWLapKUSvnAnTv3BtJcPSs"], "asm": "OP_DUP OP_HASH160 3c8bd825f93d457a77a79bd8ab67597e30a89d01 OP_EQUALVERIFY OP_CHECKSIG", "type": "pubkeyhash"}, "value": 0.0063552, "n": 1}], "hex": "010000000134eee680bc80ccdb2413eef8d07f9c222d9e2efbab44b9b3391be7109d6643f3010000006a473044022015321fd0de21daf4345af9cdd93e4e1ab3f0f1d6f460c20faeb9efc6454601ee02200498436b5f006513180df3a3427167dbb5d22f8dd747a89565610da7cc8310f0012103ec0154a2ffc2221c26dca50edf56eabe2d93c05f69ca6062cd61c1ab87d8bd75ffffffff020000000000000000536a4c50000077e6000161dc3a54468767839737f9e07af8e8e963c7cfd5b95b23cc0f42c2fc38c57f206ed8c891b25601c22469470d78a35baa175506124534b18816651d100759d4ba30d2c37bb011d97e02cf80b20900000000001976a9143c8bd825f93d457a77a79bd8ab67597e30a89d0188ac00000000", "vin": [{"sequence": 4294967295, "scriptSig": {"hex": "473044022015321fd0de21daf4345af9cdd93e4e1ab3f0f1d6f460c20faeb9efc6454601ee02200498436b5f006513180df3a3427167dbb5d22f8dd747a89565610da7cc8310f0012103ec0154a2ffc2221c26dca50edf56eabe2d93c05f69ca6062cd61c1ab87d8bd75", "asm": "3044022015321fd0de21daf4345af9cdd93e4e1ab3f0f1d6f460c20faeb9efc6454601ee02200498436b5f006513180df3a3427167dbb5d22f8dd747a89565610da7cc8310f0[ALL] 03ec0154a2ffc2221c26dca50edf56eabe2d93c05f69ca6062cd61c1ab87d8bd75"}, "vout": 1, "txid": "f343669d10e71b39b3b944abfb2e9e2d229c7fd0f8ee1324dbcc80bc80e6ee34"}], "txid": "fa52c8439b26b754300651572bebd985c777ab18af7bb096a20974bdb42b877c", "blocktime": 1537873891, "version": 1, "confirmations": 11478, "time": 1537873891, "locktime": 0, "vsize": 283, "size": 283}