{"hash": "fa5b6428daf6e60e27eeda4c32f814079381d3d43ba95319b792e86604b2cda2", "blockhash": "0000000000000000000baef3f32e3676a92c3b2e5da21b426e4f302fc371ce76", "vout": [{"scriptPubKey": {"reqSigs": 1, "hex": "76a914c4cd75d1980caaf66542298f04778c2fed883d6788ac", "addresses": ["1JwbaE6VLci8cWnNGWc6tBC4ZyKBgMnVvZ"], "asm": "OP_DUP OP_HASH160 c4cd75d1980caaf66542298f04778c2fed883d67 OP_EQUALVERIFY OP_CHECKSIG", "type": "pubkeyhash"}, "value": 3.86534143, "n": 0}, {"scriptPubKey": {"reqSigs": 1, "hex": "76a91402f2488f61aaf8a12271a22f4424303812e53c3e88ac", "addresses": ["1GabXro6DJt794hm3PKef33SkDNymD4qx"], "asm": "OP_DUP OP_HASH160 02f2488f61aaf8a12271a22f4424303812e53c3e OP_EQUALVERIFY OP_CHECKSIG", "type": "pubkeyhash"}, "value": 0.2360639, "n": 1}], "hex": "0100000001b01485dec327332c56f920929ee3d97765af9c6e6b8364bb79fe52febf8fdf42010000006b483045022100f85884056ece7b876ed1e3db652d5e1e337c916f4b4cda29ec3e8ef8fb760b20022042287877d8f1bf40f0d263830b991b16ceb752c4810a73234aeff1b5151b0fba012102561d9a640935c0d2ed1c4a248b50a608cbc4e48bf25fe41a0c0e2a8526d3a4faffffffff02ff0a0a17000000001976a914c4cd75d1980caaf66542298f04778c2fed883d6788ac76346801000000001976a91402f2488f61aaf8a12271a22f4424303812e53c3e88ac00000000", "vin": [{"sequence": 4294967295, "scriptSig": {"hex": "483045022100f85884056ece7b876ed1e3db652d5e1e337c916f4b4cda29ec3e8ef8fb760b20022042287877d8f1bf40f0d263830b991b16ceb752c4810a73234aeff1b5151b0fba012102561d9a640935c0d2ed1c4a248b50a608cbc4e48bf25fe41a0c0e2a8526d3a4fa", "asm": "3045022100f85884056ece7b876ed1e3db652d5e1e337c916f4b4cda29ec3e8ef8fb760b20022042287877d8f1bf40f0d263830b991b16ceb752c4810a73234aeff1b5151b0fba[ALL] 02561d9a640935c0d2ed1c4a248b50a608cbc4e48bf25fe41a0c0e2a8526d3a4fa"}, "vout": 1, "txid": "42df8fbffe52fe79bb64836b6e9caf6577d9e39e9220f9562c3327c3de8514b0"}], "txid": "fa5b6428daf6e60e27eeda4c32f814079381d3d43ba95319b792e86604b2cda2", "blocktime": 1537876114, "version": 1, "confirmations": 11459, "time": 1537876114, "locktime": 0, "vsize": 226, "size": 226}