{"hash": "0750d13c9960e345fa6b8e665611c82e857033eaef375c4216354c9e79199ba9", "blockhash": "000000000000000000022b45ed06c6f4ccd3cf7fb5ba4856ebd2e58215665228", "vout": [{"scriptPubKey": {"reqSigs": 1, "hex": "0014442881520f53d56b96b7956bc128f7db5027e5d0", "addresses": ["bc1qgs5gz5s0202kh94hj44uz28hmdgz0ews8nawsh"], "asm": "0 442881520f53d56b96b7956bc128f7db5027e5d0", "type": "witness_v0_keyhash"}, "value": 0.00053575, "n": 0}, {"scriptPubKey": {"reqSigs": 1, "hex": "76a9140fb074fc7ced896f0e5ad8e18f5b939fb129b4b488ac", "addresses": ["12RxXKkG2WawvGfqPbyij926Ng5b26JSMX"], "asm": "OP_DUP OP_HASH160 0fb074fc7ced896f0e5ad8e18f5b939fb129b4b4 OP_EQUALVERIFY OP_CHECKSIG", "type": "pubkeyhash"}, "value": 0.01164585, "n": 1}], "hex": "01000000000101d476ea1d98b8441b1862e7f7e3ba1fadd75d813a0d4f167d9fe95014f36bfc4e0000000017160014bbe31f5805fa8c8e6deefcc1b96fafffbb8def66ffffffff0247d1000000000000160014442881520f53d56b96b7956bc128f7db5027e5d029c51100000000001976a9140fb074fc7ced896f0e5ad8e18f5b939fb129b4b488ac024830450221008b8fdac2f84253a9d39a43d633b943d7a843bf05ae1caf09cc8de9558a8809ab0220226a809fd7255b00c7093fc19123721675c1ee363c42df580e3041025ef59d2a012102a83b123ec6a1a3c066047e5369d80aee7526af17c1504f6bcec79d2aea3b4f1300000000", "vin": [{"txinwitness": ["30450221008b8fdac2f84253a9d39a43d633b943d7a843bf05ae1caf09cc8de9558a8809ab0220226a809fd7255b00c7093fc19123721675c1ee363c42df580e3041025ef59d2a01", "02a83b123ec6a1a3c066047e5369d80aee7526af17c1504f6bcec79d2aea3b4f13"], "sequence": 4294967295, "scriptSig": {"hex": "160014bbe31f5805fa8c8e6deefcc1b96fafffbb8def66", "asm": "0014bbe31f5805fa8c8e6deefcc1b96fafffbb8def66"}, "vout": 0, "txid": "4efc6bf31450e99f7d164f0d3a815dd7ad1fbae3f7e762181b44b8981dea76d4"}], "txid": "fa61f92c4750db413ed513fb6bb032ae867e3aeb90db34b3465fa5ca08021920", "blocktime": 1537869901, "version": 1, "confirmations": 11523, "time": 1537869901, "locktime": 0, "vsize": 167, "size": 249}