{"hash": "6e950dd04ba913dc3d9741c2bcc140cbf651e3d8509a52287a56e283b442a250", "blockhash": "0000000000000000001e0dab787dd257d1dbfcb92a98c2207d5e1078be1f4165", "vout": [{"scriptPubKey": {"reqSigs": 1, "hex": "76a914361b5c4e671ba3c68f8c9aabbacf53c7fa3adfe988ac", "addresses": ["15w6GQUJFtPsW6scaQHzDQJZXvxNh3CaBy"], "asm": "OP_DUP OP_HASH160 361b5c4e671ba3c68f8c9aabbacf53c7fa3adfe9 OP_EQUALVERIFY OP_CHECKSIG", "type": "pubkeyhash"}, "value": 0.00099375, "n": 0}, {"scriptPubKey": {"reqSigs": 1, "hex": "a9145dc9a0a0ba4cb18b0689ef42f7b91f1aa5fda5ba87", "addresses": ["3AEvJhqpLG4KQC3pCQAV3CSFGY4pod12XC"], "asm": "OP_HASH160 5dc9a0a0ba4cb18b0689ef42f7b91f1aa5fda5ba OP_EQUAL", "type": "scripthash"}, "value": 0.34324466, "n": 1}], "hex": "01000000000101b8449c246f67b66ea9c79bbb224c162c1fd63357dcd2cee5c80fa06536d7dc1d01000000232200201026a1154890a43b065040abeb7166ea0ecec8afc83ce111958da1fd5de07457ffffffff022f840100000000001976a914361b5c4e671ba3c68f8c9aabbacf53c7fa3adfe988acf2bf0b020000000017a9145dc9a0a0ba4cb18b0689ef42f7b91f1aa5fda5ba870400483045022100c9077ccb33cc5b312cfc0036c4b63bb1b6bffa3d5447ad407574a9cdc365c5ba02205c3982828957af01e334b6431fd9e8fc91acfdfd13c00b4afa6675ca34ea660f01483045022100eb833ff5a69a087171af08da63ffd52c8fe7433a9d6c42a7a0ce494e88b7c5ea02201a9f47f151f699d10646a371f11dcf20a02934fa553558de193c8767209bd2b9014752210356cac76ff274063cee14bc420a52791851e9e19f1dbe50e31f97db6236e843de21035dfa073772fe4db02ae5243c31f8fb3a6089f3ddaa72946779d950562fd3b9d052ae00000000", "vin": [{"txinwitness": ["", "3045022100c9077ccb33cc5b312cfc0036c4b63bb1b6bffa3d5447ad407574a9cdc365c5ba02205c3982828957af01e334b6431fd9e8fc91acfdfd13c00b4afa6675ca34ea660f01", "3045022100eb833ff5a69a087171af08da63ffd52c8fe7433a9d6c42a7a0ce494e88b7c5ea02201a9f47f151f699d10646a371f11dcf20a02934fa553558de193c8767209bd2b901", "52210356cac76ff274063cee14bc420a52791851e9e19f1dbe50e31f97db6236e843de21035dfa073772fe4db02ae5243c31f8fb3a6089f3ddaa72946779d950562fd3b9d052ae"], "sequence": 4294967295, "scriptSig": {"hex": "2200201026a1154890a43b065040abeb7166ea0ecec8afc83ce111958da1fd5de07457", "asm": "00201026a1154890a43b065040abeb7166ea0ecec8afc83ce111958da1fd5de07457"}, "vout": 1, "txid": "1ddcd73665a00fc8e5ced2dc5733d61f2c164c22bb9bc7a96eb6676f249c44b8"}], "txid": "fa651337d7c0b221f49fe11eede8b6c5e0087fd03f196c29ceb83c0946165284", "blocktime": 1537872475, "version": 1, "confirmations": 11487, "time": 1537872475, "locktime": 0, "vsize": 208, "size": 374}