{"hash": "fa673f827eca382d06480d14bd749dd7fc2bbcf7853d1565ff661829122209bf", "blockhash": "0000000000000000001f76057863aec43deb6fa401d9628bb513d65a8098bfab", "vout": [{"scriptPubKey": {"type": "nulldata", "hex": "6a146f6d6e69000000000000001f0000001734cb8180", "asm": "OP_RETURN 6f6d6e69000000000000001f0000001734cb8180"}, "value": 0.0, "n": 0}, {"scriptPubKey": {"reqSigs": 1, "hex": "76a9144b3beb16cb22f0101d0394677dca5b01970cbc2788ac", "addresses": ["17roTavcFCYk7eCePzCeyZyBN1HH7FeeW1"], "asm": "OP_DUP OP_HASH160 4b3beb16cb22f0101d0394677dca5b01970cbc27 OP_EQUALVERIFY OP_CHECKSIG", "type": "pubkeyhash"}, "value": 5.46e-06, "n": 1}, {"scriptPubKey": {"reqSigs": 1, "hex": "76a914a25dec4d0011064ef106a983c39c7a540699f22088ac", "addresses": ["1FoWyxwPXuj4C6abqwhjDWdz6D4PZgYRjA"], "asm": "OP_DUP OP_HASH160 a25dec4d0011064ef106a983c39c7a540699f220 OP_EQUALVERIFY OP_CHECKSIG", "type": "pubkeyhash"}, "value": 0.01995188, "n": 2}], "hex": "0100000001a44813c76173a4fe9689194c29809e35be05f1741d9b5e1e9e8bd44070ac1fea7f0000006b483045022100d99547a243be276049f874f72bc4b1093af0ab410d1c7df685d4d7ccab3baa95022077bae9ab705909bb65337ac723e880466a6f0807d7d4f5c6cca00b99085fdf74012103da5bac7b36d5aa38f531c6b9601e21bb598a4b6716ebed38b009a55dabde9440feffffff030000000000000000166a146f6d6e69000000000000001f0000001734cb818022020000000000001976a9144b3beb16cb22f0101d0394677dca5b01970cbc2788acb4711e00000000001976a914a25dec4d0011064ef106a983c39c7a540699f22088ac14490800", "vin": [{"sequence": 4294967294, "scriptSig": {"hex": "483045022100d99547a243be276049f874f72bc4b1093af0ab410d1c7df685d4d7ccab3baa95022077bae9ab705909bb65337ac723e880466a6f0807d7d4f5c6cca00b99085fdf74012103da5bac7b36d5aa38f531c6b9601e21bb598a4b6716ebed38b009a55dabde9440", "asm": "3045022100d99547a243be276049f874f72bc4b1093af0ab410d1c7df685d4d7ccab3baa95022077bae9ab705909bb65337ac723e880466a6f0807d7d4f5c6cca00b99085fdf74[ALL] 03da5bac7b36d5aa38f531c6b9601e21bb598a4b6716ebed38b009a55dabde9440"}, "vout": 127, "txid": "ea1fac7040d48b9e1e5e9b1d74f105be359e80294c198996fea47361c71348a4"}], "txid": "fa673f827eca382d06480d14bd749dd7fc2bbcf7853d1565ff661829122209bf", "blocktime": 1537873891, "version": 1, "confirmations": 11475, "time": 1537873891, "locktime": 542996, "vsize": 257, "size": 257}