{"hash": "fa6d82e9facfcf7d51766ec217e49631de06b27ecaaea524e14d148bc074890e", "blockhash": "0000000000000000001e0dab787dd257d1dbfcb92a98c2207d5e1078be1f4165", "vout": [{"scriptPubKey": {"reqSigs": 1, "hex": "76a914aa6f644fe750417b60e7477591290f50732a27e288ac", "addresses": ["1GYBKFdNzcfH8fGHh7DQkEk8MGQGHuiQWG"], "asm": "OP_DUP OP_HASH160 aa6f644fe750417b60e7477591290f50732a27e2 OP_EQUALVERIFY OP_CHECKSIG", "type": "pubkeyhash"}, "value": 0.008582, "n": 0}, {"scriptPubKey": {"reqSigs": 1, "hex": "76a91445602268771b4563dd3838b1cddd830ba3f1b26488ac", "addresses": ["17KpnmmtNL1pGAKtCHH9mUc35Vfaq2YPuz"], "asm": "OP_DUP OP_HASH160 45602268771b4563dd3838b1cddd830ba3f1b264 OP_EQUALVERIFY OP_CHECKSIG", "type": "pubkeyhash"}, "value": 0.46352036, "n": 1}], "hex": "01000000010490a73748309b461161b87715783b67af87e3b1d2dfed6e70b3d33f091da923010000006a473044022056415d870cdf39a4dbaf1b41b66d3345565693993fde419454e216b66baffba6022018f2e766bf953ba77745ee126c2de1cb8648caf3b20fc69806777e94b2bd330d012103c2b9d435df975e1b7cfe2c78c25cf1ddcdc3cdd095e3fedae8d3a3af844365b5ffffffff0258180d00000000001976a914aa6f644fe750417b60e7477591290f50732a27e288aca446c302000000001976a91445602268771b4563dd3838b1cddd830ba3f1b26488ac00000000", "vin": [{"sequence": 4294967295, "scriptSig": {"hex": "473044022056415d870cdf39a4dbaf1b41b66d3345565693993fde419454e216b66baffba6022018f2e766bf953ba77745ee126c2de1cb8648caf3b20fc69806777e94b2bd330d012103c2b9d435df975e1b7cfe2c78c25cf1ddcdc3cdd095e3fedae8d3a3af844365b5", "asm": "3044022056415d870cdf39a4dbaf1b41b66d3345565693993fde419454e216b66baffba6022018f2e766bf953ba77745ee126c2de1cb8648caf3b20fc69806777e94b2bd330d[ALL] 03c2b9d435df975e1b7cfe2c78c25cf1ddcdc3cdd095e3fedae8d3a3af844365b5"}, "vout": 1, "txid": "23a91d093fd3b3706eeddfd2b1e387af673b781577b86111469b304837a79004"}], "txid": "fa6d82e9facfcf7d51766ec217e49631de06b27ecaaea524e14d148bc074890e", "blocktime": 1537872475, "version": 1, "confirmations": 11486, "time": 1537872475, "locktime": 0, "vsize": 225, "size": 225}