{"hash": "fa7070a4acb1f8e512574e753d43b05acd70952d1b3eead14a3046df12425085", "blockhash": "0000000000000000000baef3f32e3676a92c3b2e5da21b426e4f302fc371ce76", "vout": [{"scriptPubKey": {"reqSigs": 1, "hex": "76a9146eba6b5b492c5b96324acd19ec30829b3853491a88ac", "addresses": ["1B6UekFS4qoQLQ8hpN14McWNVtujmFCKw9"], "asm": "OP_DUP OP_HASH160 6eba6b5b492c5b96324acd19ec30829b3853491a OP_EQUALVERIFY OP_CHECKSIG", "type": "pubkeyhash"}, "value": 0.015573, "n": 0}, {"scriptPubKey": {"reqSigs": 1, "hex": "76a91464930d2aa7060fee46745018d20a4fd3e935194388ac", "addresses": ["1AAnjVkQzx1WM8p7qFEfBnrieVbTT3eB5A"], "asm": "OP_DUP OP_HASH160 64930d2aa7060fee46745018d20a4fd3e9351943 OP_EQUALVERIFY OP_CHECKSIG", "type": "pubkeyhash"}, "value": 86.82064061, "n": 1}], "hex": "020000000113df8c81ef44b099831ad8a22149f9a12f92bf1c6b1fd6d2f72763451b8b62e2010000006b483045022100c46d68a060b228a266f49fff6a4c265821de53c6cd835a0ff8c69da83c5209f402200a7fd3d80b211b24559d6ba98d127e7aa2907c3a0986cc568fbc7fc9cd239a6f0121028ecba7d08667929dfdd59116c852dc1d8ca3d12407e70a126ab2c7fe49449134feffffff0234c31700000000001976a9146eba6b5b492c5b96324acd19ec30829b3853491a88acbdc87d05020000001976a91464930d2aa7060fee46745018d20a4fd3e935194388ac17490800", "vin": [{"sequence": 4294967294, "scriptSig": {"hex": "483045022100c46d68a060b228a266f49fff6a4c265821de53c6cd835a0ff8c69da83c5209f402200a7fd3d80b211b24559d6ba98d127e7aa2907c3a0986cc568fbc7fc9cd239a6f0121028ecba7d08667929dfdd59116c852dc1d8ca3d12407e70a126ab2c7fe49449134", "asm": "3045022100c46d68a060b228a266f49fff6a4c265821de53c6cd835a0ff8c69da83c5209f402200a7fd3d80b211b24559d6ba98d127e7aa2907c3a0986cc568fbc7fc9cd239a6f[ALL] 028ecba7d08667929dfdd59116c852dc1d8ca3d12407e70a126ab2c7fe49449134"}, "vout": 1, "txid": "e2628b1b456327f7d2d61f6b1cbf922fa1f94921a2d81a8399b044ef818cdf13"}], "txid": "fa7070a4acb1f8e512574e753d43b05acd70952d1b3eead14a3046df12425085", "blocktime": 1537876114, "version": 2, "confirmations": 11459, "time": 1537876114, "locktime": 542999, "vsize": 226, "size": 226}