{"hash": "fa748ade7b2b67668dda4d0288d753c05301f9fc00bb25d27b7dd3837fe1536d", "blockhash": "0000000000000000000baef3f32e3676a92c3b2e5da21b426e4f302fc371ce76", "vout": [{"scriptPubKey": {"type": "nulldata", "hex": "6a146f6d6e69000000000000001f0000001438b0b250", "asm": "OP_RETURN 6f6d6e69000000000000001f0000001438b0b250"}, "value": 0.0, "n": 0}, {"scriptPubKey": {"reqSigs": 1, "hex": "76a9140ea2c16f9786cdfea33384770c72f226ae93ef3f88ac", "addresses": ["12LPS9L3BtpHJxCw7CBABQHFsKc7wFRjAR"], "asm": "OP_DUP OP_HASH160 0ea2c16f9786cdfea33384770c72f226ae93ef3f OP_EQUALVERIFY OP_CHECKSIG", "type": "pubkeyhash"}, "value": 5.46e-06, "n": 1}, {"scriptPubKey": {"reqSigs": 1, "hex": "76a9143916d05f6ea0800eb759008234085eb8b92be0b788ac", "addresses": ["16Crr5PzDoNb3aN8DPh2V8fBNYFddzZq9q"], "asm": "OP_DUP OP_HASH160 3916d05f6ea0800eb759008234085eb8b92be0b7 OP_EQUALVERIFY OP_CHECKSIG", "type": "pubkeyhash"}, "value": 0.00016485, "n": 2}], "hex": "0100000001bfc65f9228bb30139e021de19618b2081ebff822fa5e5b826d17ac30f38742bf010000006b483045022100c17e7c2d7f6cee907f174bdb965ce0351e04db048c307542476df30f46e3feef02205eaeacb8f03e423a3a5d893a7f9fccb53e20901cce1457d66e8055cf5743c7f7012102b38ac97967dbb5a155ad3e76191cd6c32a18d76598d22039058b4bdce45181d1feffffff030000000000000000166a146f6d6e69000000000000001f0000001438b0b25022020000000000001976a9140ea2c16f9786cdfea33384770c72f226ae93ef3f88ac65400000000000001976a9143916d05f6ea0800eb759008234085eb8b92be0b788ac16490800", "vin": [{"sequence": 4294967294, "scriptSig": {"hex": "483045022100c17e7c2d7f6cee907f174bdb965ce0351e04db048c307542476df30f46e3feef02205eaeacb8f03e423a3a5d893a7f9fccb53e20901cce1457d66e8055cf5743c7f7012102b38ac97967dbb5a155ad3e76191cd6c32a18d76598d22039058b4bdce45181d1", "asm": "3045022100c17e7c2d7f6cee907f174bdb965ce0351e04db048c307542476df30f46e3feef02205eaeacb8f03e423a3a5d893a7f9fccb53e20901cce1457d66e8055cf5743c7f7[ALL] 02b38ac97967dbb5a155ad3e76191cd6c32a18d76598d22039058b4bdce45181d1"}, "vout": 1, "txid": "bf4287f330ac176d825b5efa22f8bf1e08b21896e11d029e1330bb28925fc6bf"}], "txid": "fa748ade7b2b67668dda4d0288d753c05301f9fc00bb25d27b7dd3837fe1536d", "blocktime": 1537876114, "version": 1, "confirmations": 11460, "time": 1537876114, "locktime": 542998, "vsize": 257, "size": 257}