{"hash": "9053cbaa03f51756c48039cbb34cdf96eb03bfb1d4d930f89fb58813f80be633", "blockhash": "0000000000000000000baef3f32e3676a92c3b2e5da21b426e4f302fc371ce76", "vout": [{"scriptPubKey": {"reqSigs": 1, "hex": "a914f94df49bd0f8f67956bc951f0688dd781e7dae3a87", "addresses": ["3QRDZkcgdFVj6D2W4pxq27UYCeNUEygVqB"], "asm": "OP_HASH160 f94df49bd0f8f67956bc951f0688dd781e7dae3a OP_EQUAL", "type": "scripthash"}, "value": 0.03136935, "n": 0}, {"scriptPubKey": {"reqSigs": 1, "hex": "a914cfaabfe8c271f99a4364b5197ba50c6cddb7adb987", "addresses": ["3Ld4M9RPwEG3VeQbHcC1PsKUndQL7VYLZP"], "asm": "OP_HASH160 cfaabfe8c271f99a4364b5197ba50c6cddb7adb9 OP_EQUAL", "type": "scripthash"}, "value": 0.38470351, "n": 1}], "hex": "01000000000101f9c5c1ddc3b8ffba8293449b6baf370c9f32ddee5cb56595cd47d72a49b98e0a01000000232200202f7b4024602241b47d3306a6733d9889e4b6761d9f1cb82a18aa8b9ac4506e51ffffffff02a7dd2f000000000017a914f94df49bd0f8f67956bc951f0688dd781e7dae3a87cf024b020000000017a914cfaabfe8c271f99a4364b5197ba50c6cddb7adb9870400473044022031fdb763ee8d00a0e8de39dc2a0054ffd21186b8a4dccc79a1597e909047918402205050511dd51f63596720aeba299f989d4cf3742154ad5780b8fee3ac2a05052a01483045022100dc070f55720bbd542cf497189dc82221cbf1d84d055a72f3d36511ecf31af12902207fb5641452591d90be33cd89f3ab903ccd58fcb1f7ddcfbf8ae72258af68fec40147522102973cd851fecff3a20f08377b072729f303801eee1b7678668338adcaec770ec221033e4af03ed09dbd8a417ba042650d5bd1db7f14f271a8f660974e3abf1fdfa4da52ae00000000", "vin": [{"txinwitness": ["", "3044022031fdb763ee8d00a0e8de39dc2a0054ffd21186b8a4dccc79a1597e909047918402205050511dd51f63596720aeba299f989d4cf3742154ad5780b8fee3ac2a05052a01", "3045022100dc070f55720bbd542cf497189dc82221cbf1d84d055a72f3d36511ecf31af12902207fb5641452591d90be33cd89f3ab903ccd58fcb1f7ddcfbf8ae72258af68fec401", "522102973cd851fecff3a20f08377b072729f303801eee1b7678668338adcaec770ec221033e4af03ed09dbd8a417ba042650d5bd1db7f14f271a8f660974e3abf1fdfa4da52ae"], "sequence": 4294967295, "scriptSig": {"hex": "2200202f7b4024602241b47d3306a6733d9889e4b6761d9f1cb82a18aa8b9ac4506e51", "asm": "00202f7b4024602241b47d3306a6733d9889e4b6761d9f1cb82a18aa8b9ac4506e51"}, "vout": 1, "txid": "0a8eb9492ad747cd9565b55ceedd329f0c37af6b9b449382baffb8c3ddc1c5f9"}], "txid": "fa79ef98fffdbc6f96d8dcf011431114aac635f2c0c8bfb2f34befc66d8dbde7", "blocktime": 1537876114, "version": 1, "confirmations": 11462, "time": 1537876114, "locktime": 0, "vsize": 206, "size": 371}