{"hash": "fa7b8928a39689d1542c2c8f4bb758967dc23dccf2e630a575e2c4cd0b4f0223", "blockhash": "000000000000000000022b45ed06c6f4ccd3cf7fb5ba4856ebd2e58215665228", "vout": [{"scriptPubKey": {"reqSigs": 1, "hex": "76a914c90f07a72124d4c7a2c8940ec081e715372479c088ac", "addresses": ["1KL6prVLx3QszDUWcnUtT2JvfGCCz86DyC"], "asm": "OP_DUP OP_HASH160 c90f07a72124d4c7a2c8940ec081e715372479c0 OP_EQUALVERIFY OP_CHECKSIG", "type": "pubkeyhash"}, "value": 0.000814, "n": 0}, {"scriptPubKey": {"type": "nulldata", "hex": "6a42226261366564316434306465353962656331636134386431363930633461393039653065613331386432373937343133373035343163326435373637336136393522", "asm": "OP_RETURN 226261366564316434306465353962656331636134386431363930633461393039653065613331386432373937343133373035343163326435373637336136393522"}, "value": 2.73e-05, "n": 1}], "hex": "010000000131179a809c7006efa382b74d676d524475ac22488b538ad7fa8d7363c74b3e0a000000006b4830450221009aaecbf9f8b374a7d7f3ed652a130167e80a00d89031a9270430023ff3b18413022025fce4d8b0de94c8423e55f67e531b953fe91bbb1bca9a051a884530406e0a150121027dc2828baaf534032ecdbda163cec4c7ddd530dee2f647b0dcdc747c54eb41caffffffff02f83d0100000000001976a914c90f07a72124d4c7a2c8940ec081e715372479c088acaa0a000000000000446a4222626136656431643430646535396265633163613438643136393063346139303965306561333138643237393734313337303534316332643537363733613639352200000000", "vin": [{"sequence": 4294967295, "scriptSig": {"hex": "4830450221009aaecbf9f8b374a7d7f3ed652a130167e80a00d89031a9270430023ff3b18413022025fce4d8b0de94c8423e55f67e531b953fe91bbb1bca9a051a884530406e0a150121027dc2828baaf534032ecdbda163cec4c7ddd530dee2f647b0dcdc747c54eb41ca", "asm": "30450221009aaecbf9f8b374a7d7f3ed652a130167e80a00d89031a9270430023ff3b18413022025fce4d8b0de94c8423e55f67e531b953fe91bbb1bca9a051a884530406e0a15[ALL] 027dc2828baaf534032ecdbda163cec4c7ddd530dee2f647b0dcdc747c54eb41ca"}, "vout": 0, "txid": "0a3e4bc763738dfad78a538b4822ac7544526d674db782a3ef06709c809a1731"}], "txid": "fa7b8928a39689d1542c2c8f4bb758967dc23dccf2e630a575e2c4cd0b4f0223", "blocktime": 1537869901, "version": 1, "confirmations": 11522, "time": 1537869901, "locktime": 0, "vsize": 269, "size": 269}