{"hash": "fa7fc7a2d14aadce54b60cddcbd2389b3c900f630881951ca4e6542f534003be", "blockhash": "0000000000000000001e0dab787dd257d1dbfcb92a98c2207d5e1078be1f4165", "vout": [{"scriptPubKey": {"reqSigs": 1, "hex": "a9148bbebf5c06aaca8746b04da8995a621e806c7f4a87", "addresses": ["3ERvMaQEGNWznJY7RdRfRscei7i67Kg63Y"], "asm": "OP_HASH160 8bbebf5c06aaca8746b04da8995a621e806c7f4a OP_EQUAL", "type": "scripthash"}, "value": 0.01563049, "n": 0}, {"scriptPubKey": {"reqSigs": 1, "hex": "a91482c758f0e6b08a67ae9d99ebeb6b70e7545eca4887", "addresses": ["3DcWaPCxAxMXNoQiapg95mNoUAHC72VX5k"], "asm": "OP_HASH160 82c758f0e6b08a67ae9d99ebeb6b70e7545eca48 OP_EQUAL", "type": "scripthash"}, "value": 0.01539599, "n": 1}, {"scriptPubKey": {"reqSigs": 1, "hex": "76a914fa308c4d5115f6d20290868eb22789a7fe1bcd0d88ac", "addresses": ["1Pot68s7Lha4L1PPBXa3mMxr24hEMeEvEu"], "asm": "OP_DUP OP_HASH160 fa308c4d5115f6d20290868eb22789a7fe1bcd0d OP_EQUALVERIFY OP_CHECKSIG", "type": "pubkeyhash"}, "value": 0.00011886, "n": 2}], "hex": "0100000001bb75bb9369c31dc0f4c58c3425293d8f56cbdc59d800c4f13263238751315d3a14000000da00473044022049ebc25abf5e72f514d89a3ce1c7d11424bf6eaef0be233d400b1c5978d48f8f02202981b9971bb62f63465612ec6071e32b51d182a73486e98fb6ec414561200bc201483045022100d97a6a7c70ac811fbba7a786eb128315e67eb9331749ae467feccfb52008ba59022077aa43a126d0c29f2573aeaa0ac77bffa89a38be41bd4bb484a64d64046265980147522102907a54bed8ad74b3f35638c60114ca240a308cb986f3f2f306178869a8880b61210325e2d256308942939e7e5305b683910a74b37060a6280cf6bf55790971e8c8c352aeffffffff03a9d917000000000017a9148bbebf5c06aaca8746b04da8995a621e806c7f4a870f7e17000000000017a91482c758f0e6b08a67ae9d99ebeb6b70e7545eca48876e2e0000000000001976a914fa308c4d5115f6d20290868eb22789a7fe1bcd0d88ac00000000", "vin": [{"sequence": 4294967295, "scriptSig": {"hex": "00473044022049ebc25abf5e72f514d89a3ce1c7d11424bf6eaef0be233d400b1c5978d48f8f02202981b9971bb62f63465612ec6071e32b51d182a73486e98fb6ec414561200bc201483045022100d97a6a7c70ac811fbba7a786eb128315e67eb9331749ae467feccfb52008ba59022077aa43a126d0c29f2573aeaa0ac77bffa89a38be41bd4bb484a64d64046265980147522102907a54bed8ad74b3f35638c60114ca240a308cb986f3f2f306178869a8880b61210325e2d256308942939e7e5305b683910a74b37060a6280cf6bf55790971e8c8c352ae", "asm": "0 3044022049ebc25abf5e72f514d89a3ce1c7d11424bf6eaef0be233d400b1c5978d48f8f02202981b9971bb62f63465612ec6071e32b51d182a73486e98fb6ec414561200bc2[ALL] 3045022100d97a6a7c70ac811fbba7a786eb128315e67eb9331749ae467feccfb52008ba59022077aa43a126d0c29f2573aeaa0ac77bffa89a38be41bd4bb484a64d6404626598[ALL] 522102907a54bed8ad74b3f35638c60114ca240a308cb986f3f2f306178869a8880b61210325e2d256308942939e7e5305b683910a74b37060a6280cf6bf55790971e8c8c352ae"}, "vout": 20, "txid": "3a5d315187236332f1c400d859dccb568f3d2925348cc5f4c01dc36993bb75bb"}], "txid": "fa7fc7a2d14aadce54b60cddcbd2389b3c900f630881951ca4e6542f534003be", "blocktime": 1537872475, "version": 1, "confirmations": 11486, "time": 1537872475, "locktime": 0, "vsize": 367, "size": 367}