{"hash": "fa83eef269d7c2aafc282e5b6ffde1d88ebd5ee0ae5c0ba13af4a393911cbe82", "blockhash": "0000000000000000000dcc0f55137456b1a82d3642486a52398922ac4d620174", "vout": [{"scriptPubKey": {"reqSigs": 1, "hex": "76a9141bd99f87dbf5c1bab319ffaa366b9b32d05814b488ac", "addresses": ["13YFwuKnG9qDZAzyve8xztGAgPxwZYwb5X"], "asm": "OP_DUP OP_HASH160 1bd99f87dbf5c1bab319ffaa366b9b32d05814b4 OP_EQUALVERIFY OP_CHECKSIG", "type": "pubkeyhash"}, "value": 0.00012839, "n": 0}], "hex": "0100000001958250647a9f8f3ad4c73f1abb3fa8ebc60e75566ff2ddc41899cd0032712363000000006a47304402202fc32caeb39b3b843341c6ba65669d98ca4affd32e7437d11aaf2b506c78a4d7022055b6b6a393d049ef4ceb2416f1f40846c80b4cf8172b8f69158d4ef3c7dd69ef012102e7bc0b736b8231046c5fd12c158e60f9b62f183691968ace190ac5c8ae9a6f9bffffffff0127320000000000001976a9141bd99f87dbf5c1bab319ffaa366b9b32d05814b488ac00000000", "vin": [{"sequence": 4294967295, "scriptSig": {"hex": "47304402202fc32caeb39b3b843341c6ba65669d98ca4affd32e7437d11aaf2b506c78a4d7022055b6b6a393d049ef4ceb2416f1f40846c80b4cf8172b8f69158d4ef3c7dd69ef012102e7bc0b736b8231046c5fd12c158e60f9b62f183691968ace190ac5c8ae9a6f9b", "asm": "304402202fc32caeb39b3b843341c6ba65669d98ca4affd32e7437d11aaf2b506c78a4d7022055b6b6a393d049ef4ceb2416f1f40846c80b4cf8172b8f69158d4ef3c7dd69ef[ALL] 02e7bc0b736b8231046c5fd12c158e60f9b62f183691968ace190ac5c8ae9a6f9b"}, "vout": 0, "txid": "6323713200cd9918c4ddf26f56750ec6eba83fbb1a3fc7d43a8f9f7a64508295"}], "txid": "fa83eef269d7c2aafc282e5b6ffde1d88ebd5ee0ae5c0ba13af4a393911cbe82", "blocktime": 1537870268, "version": 1, "confirmations": 11516, "time": 1537870268, "locktime": 0, "vsize": 191, "size": 191}