{"hash": "fa867f1c92bb968dbbf7eb7722b167d63999abcbff65408f5cb59dc1a60f092c", "blockhash": "0000000000000000000e13cef7c366c0283d82e591d1acd082e914b08063cdf1", "vout": [{"scriptPubKey": {"reqSigs": 1, "hex": "76a914ab205360cf12151de8ddd4ea5fac4f2fd64d0cf288ac", "addresses": ["1GbqGqEwginujWeJWm1UAgi12xAjjLCobZ"], "asm": "OP_DUP OP_HASH160 ab205360cf12151de8ddd4ea5fac4f2fd64d0cf2 OP_EQUALVERIFY OP_CHECKSIG", "type": "pubkeyhash"}, "value": 0.001853, "n": 0}, {"scriptPubKey": {"reqSigs": 1, "hex": "76a914198484317184156084d9353fa46ddc001aeda0a388ac", "addresses": ["13KveCKixja83Xwiw1CSvBzsF5i3ZrzQv5"], "asm": "OP_DUP OP_HASH160 198484317184156084d9353fa46ddc001aeda0a3 OP_EQUALVERIFY OP_CHECKSIG", "type": "pubkeyhash"}, "value": 0.00022659, "n": 1}], "hex": "0100000002d2ec034f466a1f6dada9547c587b6cbba230e1150eedb9aff030c456e7e378b0010000006b483045022100dc5382e18afbf008c162077a2195e2294a58755ab6c3d6b85c4dedc6bd30c9d602207c0ca69acee254b67adae531cb88065ac9dc2d9095cd029ee33b2971744dc254012103794a11a66046beebbcb5f750ed7212ca7c335325e779c8e040d6bf13484f6ab7ffffffffb64789ec61503e04289823da4feff647efb3c6bc7153a441ff1320113b6d9e94000000006a47304402207d83a8dec259549d058f236a45b2e2b70157a404d8620fb7630222f19924224502200d0671c6c9cc6ce738b152ed345142fa908c7ea7f9e4215305f2ca14ec6fceb0012102d6ec1cb6e285bf7b6c0b6bb2ee89fd3e6e69c68487baa18cf4c1b465b7d1b472ffffffff02d4d30200000000001976a914ab205360cf12151de8ddd4ea5fac4f2fd64d0cf288ac83580000000000001976a914198484317184156084d9353fa46ddc001aeda0a388ac00000000", "vin": [{"sequence": 4294967295, "scriptSig": {"hex": "483045022100dc5382e18afbf008c162077a2195e2294a58755ab6c3d6b85c4dedc6bd30c9d602207c0ca69acee254b67adae531cb88065ac9dc2d9095cd029ee33b2971744dc254012103794a11a66046beebbcb5f750ed7212ca7c335325e779c8e040d6bf13484f6ab7", "asm": "3045022100dc5382e18afbf008c162077a2195e2294a58755ab6c3d6b85c4dedc6bd30c9d602207c0ca69acee254b67adae531cb88065ac9dc2d9095cd029ee33b2971744dc254[ALL] 03794a11a66046beebbcb5f750ed7212ca7c335325e779c8e040d6bf13484f6ab7"}, "vout": 1, "txid": "b078e3e756c430f0afb9ed0e15e130a2bb6c7b587c54a9ad6d1f6a464f03ecd2"}, {"sequence": 4294967295, "scriptSig": {"hex": "47304402207d83a8dec259549d058f236a45b2e2b70157a404d8620fb7630222f19924224502200d0671c6c9cc6ce738b152ed345142fa908c7ea7f9e4215305f2ca14ec6fceb0012102d6ec1cb6e285bf7b6c0b6bb2ee89fd3e6e69c68487baa18cf4c1b465b7d1b472", "asm": "304402207d83a8dec259549d058f236a45b2e2b70157a404d8620fb7630222f19924224502200d0671c6c9cc6ce738b152ed345142fa908c7ea7f9e4215305f2ca14ec6fceb0[ALL] 02d6ec1cb6e285bf7b6c0b6bb2ee89fd3e6e69c68487baa18cf4c1b465b7d1b472"}, "vout": 0, "txid": "949e6d3b112013ff41a45371bcc6b3ef47f6ef4fda239828043e5061ec8947b6"}], "txid": "fa867f1c92bb968dbbf7eb7722b167d63999abcbff65408f5cb59dc1a60f092c", "blocktime": 1537871767, "version": 1, "confirmations": 11490, "time": 1537871767, "locktime": 0, "vsize": 373, "size": 373}