{"hash": "fa8d84bf1a231c71af0fe50155356d5b8499b7c65b42bc52dcc452ce4266443c", "blockhash": "00000000000000000018f53835495a110e01622372bf6ae95dc86f2b0ab887b0", "vout": [{"scriptPubKey": {"reqSigs": 1, "hex": "76a914d243e6abb9a60fbff430b421d2df4b7d59ec186088ac", "addresses": ["1LAnF8h3qMGx3TSwNUHVneBZUEpwE4gu3D"], "asm": "OP_DUP OP_HASH160 d243e6abb9a60fbff430b421d2df4b7d59ec1860 OP_EQUALVERIFY OP_CHECKSIG", "type": "pubkeyhash"}, "value": 0.00077314, "n": 0}, {"scriptPubKey": {"reqSigs": 1, "hex": "76a914f52303b6783fd107b3b37987e0cf56cbd428b70588ac", "addresses": ["1PMAVrEGq8D2ohvvsipWrjt72szpCvK96N"], "asm": "OP_DUP OP_HASH160 f52303b6783fd107b3b37987e0cf56cbd428b705 OP_EQUALVERIFY OP_CHECKSIG", "type": "pubkeyhash"}, "value": 5.46e-06, "n": 1}, {"scriptPubKey": {"type": "nulldata", "hex": "6a146f6d6e69000000000000001f00000014ace47800", "asm": "OP_RETURN 6f6d6e69000000000000001f00000014ace47800"}, "value": 0.0, "n": 2}], "hex": "0100000001a69c693599a637a652d782d8ea7b7211b562d104b121c80daac3b01a3201c3b1000000006b4830450221008bd1c9efc4b0e3e585c532b0d4dd71a5f53b788c584df94df53d9777dae6e38902200c08c9bca08179eae080a4cb614b2546c91eb17a43ec4fcca25d5d26bc640ae101210271977291b74f1f5f5c42157e8aae804664eaaeccfd097918450d37f28fb94d77ffffffff03022e0100000000001976a914d243e6abb9a60fbff430b421d2df4b7d59ec186088ac22020000000000001976a914f52303b6783fd107b3b37987e0cf56cbd428b70588ac0000000000000000166a146f6d6e69000000000000001f00000014ace4780000000000", "vin": [{"sequence": 4294967295, "scriptSig": {"hex": "4830450221008bd1c9efc4b0e3e585c532b0d4dd71a5f53b788c584df94df53d9777dae6e38902200c08c9bca08179eae080a4cb614b2546c91eb17a43ec4fcca25d5d26bc640ae101210271977291b74f1f5f5c42157e8aae804664eaaeccfd097918450d37f28fb94d77", "asm": "30450221008bd1c9efc4b0e3e585c532b0d4dd71a5f53b788c584df94df53d9777dae6e38902200c08c9bca08179eae080a4cb614b2546c91eb17a43ec4fcca25d5d26bc640ae1[ALL] 0271977291b74f1f5f5c42157e8aae804664eaaeccfd097918450d37f28fb94d77"}, "vout": 0, "txid": "b1c301321ab0c3aa0dc821b104d162b511727bead882d752a637a69935699ca6"}], "txid": "fa8d84bf1a231c71af0fe50155356d5b8499b7c65b42bc52dcc452ce4266443c", "blocktime": 1537870928, "version": 1, "confirmations": 11512, "time": 1537870928, "locktime": 0, "vsize": 257, "size": 257}