{"hash": "fa8eb677f09fb20714027fbd3d6a4f753829a2a4f45f10c82f8dd1509f10747c", "blockhash": "000000000000000000022b45ed06c6f4ccd3cf7fb5ba4856ebd2e58215665228", "vout": [{"scriptPubKey": {"reqSigs": 1, "hex": "76a91430739aaa5b718a398df54d1f92a7604a5546f66488ac", "addresses": ["15RBvXVxGKQcS1kUX9bNb9Kxy5gJUq3xi1"], "asm": "OP_DUP OP_HASH160 30739aaa5b718a398df54d1f92a7604a5546f664 OP_EQUALVERIFY OP_CHECKSIG", "type": "pubkeyhash"}, "value": 0.46095, "n": 0}, {"scriptPubKey": {"reqSigs": 1, "hex": "76a914c05c27a5a8e153ee897a3e74f95413249368af3288ac", "addresses": ["1JY78s84CbnnR7kQLdCeBA6dwYGcWcEM2W"], "asm": "OP_DUP OP_HASH160 c05c27a5a8e153ee897a3e74f95413249368af32 OP_EQUALVERIFY OP_CHECKSIG", "type": "pubkeyhash"}, "value": 0.1040126, "n": 1}], "hex": "010000000239f23939339d1b89e9423ebcaf4af850d3c790223f7b2526c12376b8f8fd3a4c000000006b483045022100a9f56a2dba57c120701ad1a2b2b7d6dffd35100cf54edbd7b141a2c001b2016102202b7ead40f45a2b519c7de6b6412abd5c0b5209876ad2c0f7eb9b699d2345c311012103f22801334df35f64316ed41160d1cd04837e57c546963acc2d01dc5adc00776cffffffff3940868d751ff999045ffdd9ba005263ca8663919fcd336ccbad8fa5a1e6dd22000000006b483045022100d322996ecc20bc06e83aa01da56eb4b4f04357d0f14e55977c7150f119cc0a5202205c522e7c29440d4592734e9ddb156d854daf62cfa0588cc0f46bd6c91636bae1012103f22801334df35f64316ed41160d1cd04837e57c546963acc2d01dc5adc00776cffffffff02985abf02000000001976a91430739aaa5b718a398df54d1f92a7604a5546f66488acecb59e00000000001976a914c05c27a5a8e153ee897a3e74f95413249368af3288ac00000000", "vin": [{"sequence": 4294967295, "scriptSig": {"hex": "483045022100a9f56a2dba57c120701ad1a2b2b7d6dffd35100cf54edbd7b141a2c001b2016102202b7ead40f45a2b519c7de6b6412abd5c0b5209876ad2c0f7eb9b699d2345c311012103f22801334df35f64316ed41160d1cd04837e57c546963acc2d01dc5adc00776c", "asm": "3045022100a9f56a2dba57c120701ad1a2b2b7d6dffd35100cf54edbd7b141a2c001b2016102202b7ead40f45a2b519c7de6b6412abd5c0b5209876ad2c0f7eb9b699d2345c311[ALL] 03f22801334df35f64316ed41160d1cd04837e57c546963acc2d01dc5adc00776c"}, "vout": 0, "txid": "4c3afdf8b87623c126257b3f2290c7d350f84aafbc3e42e9891b9d333939f239"}, {"sequence": 4294967295, "scriptSig": {"hex": "483045022100d322996ecc20bc06e83aa01da56eb4b4f04357d0f14e55977c7150f119cc0a5202205c522e7c29440d4592734e9ddb156d854daf62cfa0588cc0f46bd6c91636bae1012103f22801334df35f64316ed41160d1cd04837e57c546963acc2d01dc5adc00776c", "asm": "3045022100d322996ecc20bc06e83aa01da56eb4b4f04357d0f14e55977c7150f119cc0a5202205c522e7c29440d4592734e9ddb156d854daf62cfa0588cc0f46bd6c91636bae1[ALL] 03f22801334df35f64316ed41160d1cd04837e57c546963acc2d01dc5adc00776c"}, "vout": 0, "txid": "22dde6a1a58fadcb6c33cd9f916386ca635200bad9fd5f0499f91f758d864039"}], "txid": "fa8eb677f09fb20714027fbd3d6a4f753829a2a4f45f10c82f8dd1509f10747c", "blocktime": 1537869901, "version": 1, "confirmations": 11522, "time": 1537869901, "locktime": 0, "vsize": 374, "size": 374}