{"hash": "fa8e7bc65c1144b73de7754fa74187dcd21afceddb391edc728986998a3742a2", "blockhash": "00000000000000000018f53835495a110e01622372bf6ae95dc86f2b0ab887b0", "vout": [{"scriptPubKey": {"reqSigs": 1, "hex": "76a914bd99c415511f992df0a6da9852cc23b94cb7ce0b88ac", "addresses": ["1JHWv6tMtJ9x54AnMhLspgK8aE7TteHLQN"], "asm": "OP_DUP OP_HASH160 bd99c415511f992df0a6da9852cc23b94cb7ce0b OP_EQUALVERIFY OP_CHECKSIG", "type": "pubkeyhash"}, "value": 0.01432075, "n": 0}, {"scriptPubKey": {"reqSigs": 1, "hex": "76a914c18bd428507344c63140aa38d960da25d83d176088ac", "addresses": ["1JeNvVgN63t81kxpbFvNa9o6sBpazjyg4r"], "asm": "OP_DUP OP_HASH160 c18bd428507344c63140aa38d960da25d83d1760 OP_EQUALVERIFY OP_CHECKSIG", "type": "pubkeyhash"}, "value": 1.7, "n": 1}], "hex": "0100000002ccee19d7259299edfd6888929639d744835644c3b9ec9077bebb08b9a43c2d1d040000006a47304402204fd57452d7ffc44f215940a53744fd06d558bbf1894b5eceb44b527c41302dae02203b6cd509cba118a4d42d1dcd0efe4a4795641ad38024329b34f4d9289482b3cb012103abf8357555c16ec5852e400b1c4edb8a787b98a130e35bd834d16b7d7639571cffffffff7e8b395917437b8e0d38a31c579d9b7e1c33203d12db6568d991fd446c87b6c90b0000006a473044022022a20934d128b60f7eff0cf9f5126bd7a0a532552fa4308609c1f37538d18b530220563442f2e14e7203c0984c031f75268e021782fccfe20d7fa60a925743a588aa012103abf8357555c16ec5852e400b1c4edb8a787b98a130e35bd834d16b7d7639571cffffffff020bda1500000000001976a914bd99c415511f992df0a6da9852cc23b94cb7ce0b88ac80fe210a000000001976a914c18bd428507344c63140aa38d960da25d83d176088ac00000000", "vin": [{"sequence": 4294967295, "scriptSig": {"hex": "47304402204fd57452d7ffc44f215940a53744fd06d558bbf1894b5eceb44b527c41302dae02203b6cd509cba118a4d42d1dcd0efe4a4795641ad38024329b34f4d9289482b3cb012103abf8357555c16ec5852e400b1c4edb8a787b98a130e35bd834d16b7d7639571c", "asm": "304402204fd57452d7ffc44f215940a53744fd06d558bbf1894b5eceb44b527c41302dae02203b6cd509cba118a4d42d1dcd0efe4a4795641ad38024329b34f4d9289482b3cb[ALL] 03abf8357555c16ec5852e400b1c4edb8a787b98a130e35bd834d16b7d7639571c"}, "vout": 4, "txid": "1d2d3ca4b908bbbe7790ecb9c344568344d73996928868fded999225d719eecc"}, {"sequence": 4294967295, "scriptSig": {"hex": "473044022022a20934d128b60f7eff0cf9f5126bd7a0a532552fa4308609c1f37538d18b530220563442f2e14e7203c0984c031f75268e021782fccfe20d7fa60a925743a588aa012103abf8357555c16ec5852e400b1c4edb8a787b98a130e35bd834d16b7d7639571c", "asm": "3044022022a20934d128b60f7eff0cf9f5126bd7a0a532552fa4308609c1f37538d18b530220563442f2e14e7203c0984c031f75268e021782fccfe20d7fa60a925743a588aa[ALL] 03abf8357555c16ec5852e400b1c4edb8a787b98a130e35bd834d16b7d7639571c"}, "vout": 11, "txid": "c9b6876c44fd91d96865db123d20331c7e9b9d571ca3380d8e7b431759398b7e"}], "txid": "fa8e7bc65c1144b73de7754fa74187dcd21afceddb391edc728986998a3742a2", "blocktime": 1537870928, "version": 1, "confirmations": 11514, "time": 1537870928, "locktime": 0, "vsize": 372, "size": 372}