{"hash": "0335a037793371c75075e1216eede28f47be0f2d9db9edecb6d5b017d1bf92cd", "blockhash": "0000000000000000001cda96e906b7601b7a6fb1a3b62bca570a9e5d8f4b3de1", "vout": [{"scriptPubKey": {"reqSigs": 1, "hex": "76a914c291d6d34784571c43e9dcaa228c777ebb445b4a88ac", "addresses": ["1JjnoJGPZkWwd51vjvSbJGzD8wHTeiyCeq"], "asm": "OP_DUP OP_HASH160 c291d6d34784571c43e9dcaa228c777ebb445b4a OP_EQUALVERIFY OP_CHECKSIG", "type": "pubkeyhash"}, "value": 0.003909, "n": 0}, {"scriptPubKey": {"reqSigs": 1, "hex": "00142ca774ad2d0e3eff70cde7fece62473e17cca9a6", "addresses": ["bc1q9jnhftfdpcl07uxdullvucj88ctue2dxaeu7ua"], "asm": "0 2ca774ad2d0e3eff70cde7fece62473e17cca9a6", "type": "witness_v0_keyhash"}, "value": 2.286e-05, "n": 1}], "hex": "01000000000101778188019e4e875c18578a4fa71f94c622ee9eafd65e4defcb627ef83772a3010100000000ffffffff02f4f60500000000001976a914c291d6d34784571c43e9dcaa228c777ebb445b4a88acee080000000000001600142ca774ad2d0e3eff70cde7fece62473e17cca9a602483045022100e3e64d1dfa0b5f3ce7edf8f86fa609b80ebdc4aba367cc8b5b0a55f8cf9ab62602203102682f235e638825ae5af0f8dfffc3c196a9752f6542ebaec47455e01a99c1012103521d6ce7f837ae9f4ea625ba1e13c93bdc0c7750e32bf0faf67759558cd021b400000000", "vin": [{"txinwitness": ["3045022100e3e64d1dfa0b5f3ce7edf8f86fa609b80ebdc4aba367cc8b5b0a55f8cf9ab62602203102682f235e638825ae5af0f8dfffc3c196a9752f6542ebaec47455e01a99c101", "03521d6ce7f837ae9f4ea625ba1e13c93bdc0c7750e32bf0faf67759558cd021b4"], "sequence": 4294967295, "scriptSig": {"hex": "", "asm": ""}, "vout": 1, "txid": "01a37237f87e62cbef4d5ed6af9eee22c6941fa74f8a57185c874e9e01888177"}], "txid": "fa953d28e39d5e854f49460d37684e3086f4a8dbcc246fcd71df6c3d60a3c00a", "blocktime": 1537873282, "version": 1, "confirmations": 11484, "time": 1537873282, "locktime": 0, "vsize": 144, "size": 226}