{"hash": "fa9df0b250ed3722e140e5f210040b7cedbe21fcd5f97a4fb975349261425abd", "blockhash": "0000000000000000000e13cef7c366c0283d82e591d1acd082e914b08063cdf1", "vout": [{"scriptPubKey": {"reqSigs": 1, "hex": "a914110cc33345e3431f80fe6b5ee1ad6308f4a381bc87", "addresses": ["33FAhZNi8VJdC9aFdeJM3XPbPLgh8A7KVQ"], "asm": "OP_HASH160 110cc33345e3431f80fe6b5ee1ad6308f4a381bc OP_EQUAL", "type": "scripthash"}, "value": 0.095784, "n": 0}], "hex": "01000000017879d95f55936083e4eb543acbaacee6c2d75165ecfdfa0e7736c1ff90f74816000000006b483045022100a9663ec9c8106e12c28266e162ed4b3a62986a85c8dc4c8a3e5ac27b29aa3007022046859a92aa534b7d78e4b8cab88e19ed3ae66f93c27003872fe537062a472c780121025044d298e0c6755ae91c8c6d5a03a61e94dedb6d7c7815953a23114947cb17d1ffffffff01a02792000000000017a914110cc33345e3431f80fe6b5ee1ad6308f4a381bc8700000000", "vin": [{"sequence": 4294967295, "scriptSig": {"hex": "483045022100a9663ec9c8106e12c28266e162ed4b3a62986a85c8dc4c8a3e5ac27b29aa3007022046859a92aa534b7d78e4b8cab88e19ed3ae66f93c27003872fe537062a472c780121025044d298e0c6755ae91c8c6d5a03a61e94dedb6d7c7815953a23114947cb17d1", "asm": "3045022100a9663ec9c8106e12c28266e162ed4b3a62986a85c8dc4c8a3e5ac27b29aa3007022046859a92aa534b7d78e4b8cab88e19ed3ae66f93c27003872fe537062a472c78[ALL] 025044d298e0c6755ae91c8c6d5a03a61e94dedb6d7c7815953a23114947cb17d1"}, "vout": 0, "txid": "1648f790ffc136770efafdec6551d7c2e6ceaacb3a54ebe4836093555fd97978"}], "txid": "fa9df0b250ed3722e140e5f210040b7cedbe21fcd5f97a4fb975349261425abd", "blocktime": 1537871767, "version": 1, "confirmations": 11490, "time": 1537871767, "locktime": 0, "vsize": 190, "size": 190}