{"hash": "ae3980c0cb6eb80795cab55b5652b4f460158830e79de6b74468f87cec991226", "blockhash": "0000000000000000001e0dab787dd257d1dbfcb92a98c2207d5e1078be1f4165", "vout": [{"scriptPubKey": {"reqSigs": 1, "hex": "a9147875819a5beaaf8fd501ab138323b94c021019de87", "addresses": ["3Cfwn3NAigLwf7wbzgieJMAEjRDsmMmDka"], "asm": "OP_HASH160 7875819a5beaaf8fd501ab138323b94c021019de OP_EQUAL", "type": "scripthash"}, "value": 0.00186669, "n": 0}, {"scriptPubKey": {"reqSigs": 1, "hex": "a9145cc391931306d8381e034dbc25d4e68a341c015787", "addresses": ["3A9WNYHVtpL3x7T2k6PWSBexbUxLvRnAC7"], "asm": "OP_HASH160 5cc391931306d8381e034dbc25d4e68a341c0157 OP_EQUAL", "type": "scripthash"}, "value": 0.42173944, "n": 1}], "hex": "010000000001011d73bbe9db21487fbcd72db82daa0f5cd5c933388ff9956a1212fbfdf4c336d301000000232200204a5db67497c8fffd22258b45a0632e2f62f0413f93bc32bc76f59b3cd8b8d533ffffffff022dd902000000000017a9147875819a5beaaf8fd501ab138323b94c021019de87f88583020000000017a9145cc391931306d8381e034dbc25d4e68a341c015787040048304502210090ded9a4c25c1f0308048998dc941c869c2e38fec42be1d6083f5f5d3364290e022065d9503c050e7a985b7e4faf2570e772de9d055d9c23888b9c528f82bf5f0d68014730440220499291855750dcd59ddf2a067146d1062ac6cfae722544edd14ad5bb25b0fce002203bacdc72790eb05c08eb36f2b021365f611422bab3c9000f3c518e07f08c4c9b014752210344177476959ce581e4e19ad42fbc604b35104bfd6b40a91ed53a2e218a0c37cc21033cd5fcc68f940f6921c548e8539485080ee4267f6a52c9ffdc268036306f5cff52ae00000000", "vin": [{"txinwitness": ["", "304502210090ded9a4c25c1f0308048998dc941c869c2e38fec42be1d6083f5f5d3364290e022065d9503c050e7a985b7e4faf2570e772de9d055d9c23888b9c528f82bf5f0d6801", "30440220499291855750dcd59ddf2a067146d1062ac6cfae722544edd14ad5bb25b0fce002203bacdc72790eb05c08eb36f2b021365f611422bab3c9000f3c518e07f08c4c9b01", "52210344177476959ce581e4e19ad42fbc604b35104bfd6b40a91ed53a2e218a0c37cc21033cd5fcc68f940f6921c548e8539485080ee4267f6a52c9ffdc268036306f5cff52ae"], "sequence": 4294967295, "scriptSig": {"hex": "2200204a5db67497c8fffd22258b45a0632e2f62f0413f93bc32bc76f59b3cd8b8d533", "asm": "00204a5db67497c8fffd22258b45a0632e2f62f0413f93bc32bc76f59b3cd8b8d533"}, "vout": 1, "txid": "d336c3f4fdfb12126a95f98f3833c9d55c0faa2db82dd7bc7f4821dbe9bb731d"}], "txid": "fa9f85c23fb96f08c438257c09ef279665f1ec1132dc5aa5e8a6ac2b85a3512b", "blocktime": 1537872475, "version": 1, "confirmations": 11487, "time": 1537872475, "locktime": 0, "vsize": 206, "size": 371}