{"hash": "faa2d53f2a6d7902c98b8fa579ac8b5709af43e736f7c301ebeb7d517600538e", "blockhash": "0000000000000000001cda96e906b7601b7a6fb1a3b62bca570a9e5d8f4b3de1", "vout": [{"scriptPubKey": {"type": "nulldata", "hex": "6a146f6d6e69000000000000001f000002d1c6661800", "asm": "OP_RETURN 6f6d6e69000000000000001f000002d1c6661800"}, "value": 0.0, "n": 0}, {"scriptPubKey": {"reqSigs": 1, "hex": "76a914a25dec4d0011064ef106a983c39c7a540699f22088ac", "addresses": ["1FoWyxwPXuj4C6abqwhjDWdz6D4PZgYRjA"], "asm": "OP_DUP OP_HASH160 a25dec4d0011064ef106a983c39c7a540699f220 OP_EQUALVERIFY OP_CHECKSIG", "type": "pubkeyhash"}, "value": 0.01990447, "n": 1}, {"scriptPubKey": {"reqSigs": 1, "hex": "a914ebc6513b2e2aa73207663f613cd89a479e5f24d787", "addresses": ["3PBgHxBBNsfcUT5MLLFdtQM86jHKjw5m1S"], "asm": "OP_HASH160 ebc6513b2e2aa73207663f613cd89a479e5f24d7 OP_EQUAL", "type": "scripthash"}, "value": 5.4e-06, "n": 2}], "hex": "010000000109cf7f43efb314ea065de115746a865f1422b9df60984140ba09d361d05277a1010000006a47304402203bf86252ce855a3cbb51671dd3205de3f2f2128cf088e5b4d92f079024a0a9170220354c523804ffb69ba9ab14ef68090850ee7abc2ca0d52426af18b486539fa98e012103da5bac7b36d5aa38f531c6b9601e21bb598a4b6716ebed38b009a55dabde9440feffffff030000000000000000166a146f6d6e69000000000000001f000002d1c66618002f5f1e00000000001976a914a25dec4d0011064ef106a983c39c7a540699f22088ac1c0200000000000017a914ebc6513b2e2aa73207663f613cd89a479e5f24d78713490800", "vin": [{"sequence": 4294967294, "scriptSig": {"hex": "47304402203bf86252ce855a3cbb51671dd3205de3f2f2128cf088e5b4d92f079024a0a9170220354c523804ffb69ba9ab14ef68090850ee7abc2ca0d52426af18b486539fa98e012103da5bac7b36d5aa38f531c6b9601e21bb598a4b6716ebed38b009a55dabde9440", "asm": "304402203bf86252ce855a3cbb51671dd3205de3f2f2128cf088e5b4d92f079024a0a9170220354c523804ffb69ba9ab14ef68090850ee7abc2ca0d52426af18b486539fa98e[ALL] 03da5bac7b36d5aa38f531c6b9601e21bb598a4b6716ebed38b009a55dabde9440"}, "vout": 1, "txid": "a17752d061d309ba40419860dfb922145f866a7415e15d06ea14b3ef437fcf09"}], "txid": "faa2d53f2a6d7902c98b8fa579ac8b5709af43e736f7c301ebeb7d517600538e", "blocktime": 1537873282, "version": 1, "confirmations": 11481, "time": 1537873282, "locktime": 542995, "vsize": 254, "size": 254}