{"hash": "faa3af4689a5fb6e1c30ad8d1025fe1fad3070c2156a567bea17f56c727ca9e7", "blockhash": "00000000000000000004ffacab907a6b429b9a5745fa0b75af4234bf69dd7176", "vout": [{"scriptPubKey": {"reqSigs": 1, "hex": "76a9148c0fc82772bf15ba5c0f92be01feb51905fe615988ac", "addresses": ["1DmaWQ7joPjJ1QGxALogEf7FGGm68Ta1AR"], "asm": "OP_DUP OP_HASH160 8c0fc82772bf15ba5c0f92be01feb51905fe6159 OP_EQUALVERIFY OP_CHECKSIG", "type": "pubkeyhash"}, "value": 0.00368098, "n": 0}, {"scriptPubKey": {"reqSigs": 1, "hex": "76a9147d011384c9033fa20ce81ab050927c5bb3574f7288ac", "addresses": ["1CPxkkwbWFYBNo3isB1AfQWmfec6Y8EsSz"], "asm": "OP_DUP OP_HASH160 7d011384c9033fa20ce81ab050927c5bb3574f72 OP_EQUALVERIFY OP_CHECKSIG", "type": "pubkeyhash"}, "value": 0.00187055, "n": 1}], "hex": "010000000265be326b48a98c397b1ef820786b41b1ed97e92bb40c50afc2039f1fa6a5143c010000006a473044022001ac58108d69005435c5835f405a39f72a83df675323247146e1e130dbad61690220587cd42c705a80a6ed2100f72c05a1dcefa723e79391c085da09365d645bedc7012103dbcc105ebea46d1efded50b96edb12b4488712aa4efcca89584a8e9defc3c302ffffffff61cbe4da8f49267e9a68149663d3cfb8a96508c173ccc0ef29d1d711b97cc1a8010000006a47304402203fb2d3173741b92795cc98d4df25242e14386b0b1d69f9d1ec8c6889be1143150220425cd6da5996a0c5ad18b5c58945af76955ae0e741e35b1ab593c586d3e9692601210290539c24e31cff96d5852c24756f274c617a88d733a79da69c55e234f81112b4ffffffff02e29d0500000000001976a9148c0fc82772bf15ba5c0f92be01feb51905fe615988acafda0200000000001976a9147d011384c9033fa20ce81ab050927c5bb3574f7288ac00000000", "vin": [{"sequence": 4294967295, "scriptSig": {"hex": "473044022001ac58108d69005435c5835f405a39f72a83df675323247146e1e130dbad61690220587cd42c705a80a6ed2100f72c05a1dcefa723e79391c085da09365d645bedc7012103dbcc105ebea46d1efded50b96edb12b4488712aa4efcca89584a8e9defc3c302", "asm": "3044022001ac58108d69005435c5835f405a39f72a83df675323247146e1e130dbad61690220587cd42c705a80a6ed2100f72c05a1dcefa723e79391c085da09365d645bedc7[ALL] 03dbcc105ebea46d1efded50b96edb12b4488712aa4efcca89584a8e9defc3c302"}, "vout": 1, "txid": "3c14a5a61f9f03c2af500cb42be997edb1416b7820f81e7b398ca9486b32be65"}, {"sequence": 4294967295, "scriptSig": {"hex": "47304402203fb2d3173741b92795cc98d4df25242e14386b0b1d69f9d1ec8c6889be1143150220425cd6da5996a0c5ad18b5c58945af76955ae0e741e35b1ab593c586d3e9692601210290539c24e31cff96d5852c24756f274c617a88d733a79da69c55e234f81112b4", "asm": "304402203fb2d3173741b92795cc98d4df25242e14386b0b1d69f9d1ec8c6889be1143150220425cd6da5996a0c5ad18b5c58945af76955ae0e741e35b1ab593c586d3e96926[ALL] 0290539c24e31cff96d5852c24756f274c617a88d733a79da69c55e234f81112b4"}, "vout": 1, "txid": "a8c17cb911d7d129efc0cc73c10865a9b8cfd3639614689a7e26498fdae4cb61"}], "txid": "faa3af4689a5fb6e1c30ad8d1025fe1fad3070c2156a567bea17f56c727ca9e7", "blocktime": 1537875543, "version": 1, "confirmations": 11464, "time": 1537875543, "locktime": 0, "vsize": 372, "size": 372}