{"hash": "faa3e571ad21b62a59d974901ad17c9bb55fa4a62f4a500e03861cc34a2ab812", "blockhash": "00000000000000000017f5eb5941039fbcee6240d03bc1f2f8e35350df66a1d8", "vout": [{"scriptPubKey": {"reqSigs": 1, "hex": "76a914b03c4f1f1af573a0c1ccad3ba4112f7c08214fb688ac", "addresses": ["1H4rB7MzAjJMhYkJjQ8dpfxcXHqe7k3Y26"], "asm": "OP_DUP OP_HASH160 b03c4f1f1af573a0c1ccad3ba4112f7c08214fb6 OP_EQUALVERIFY OP_CHECKSIG", "type": "pubkeyhash"}, "value": 0.00284885, "n": 0}, {"scriptPubKey": {"reqSigs": 1, "hex": "76a914aee2add54ddd0b86e9268afa8f19cec679a35bc288ac", "addresses": ["1Gwi8KDQ3eHARvJ5jttJVc4jdDEK8okj94"], "asm": "OP_DUP OP_HASH160 aee2add54ddd0b86e9268afa8f19cec679a35bc2 OP_EQUALVERIFY OP_CHECKSIG", "type": "pubkeyhash"}, "value": 0.01711684, "n": 1}], "hex": "02000000020854988e7220a145714d753a323d2840d83b33f52c911b983ee0f4b2e41aa740010000006a473044022002c444065d38662fc88d79481b4e42824691fefd200eda30194f9e8805bf4e9e02203aac496acefade08831f1f114d6a6d2347809306cb38f79848c595e81ae4bead012103cfa2812393653f7da5dbddb1e1a77155361c755ad4ccd55555a1f5d45977d817feffffff785b580c8d4d7bff5c49e3fbb2647a2df2dd283535279fc288e7b72d087217b3000000006b483045022100a7104fdee8745726e659a1a5f6516c761d25ba03455737db910b9023e59b96f902206d63be09e5f766c2a4c61bd4fa71055e64324776e588bf31fff4b8b89fcd8dd20121025ea9fc6296c333567e45c3ba087a22bccaf4d9f73da3d6e35192bf4a05b31b3bfeffffff02d5580400000000001976a914b03c4f1f1af573a0c1ccad3ba4112f7c08214fb688ac441e1a00000000001976a914aee2add54ddd0b86e9268afa8f19cec679a35bc288ac15490800", "vin": [{"sequence": 4294967294, "scriptSig": {"hex": "473044022002c444065d38662fc88d79481b4e42824691fefd200eda30194f9e8805bf4e9e02203aac496acefade08831f1f114d6a6d2347809306cb38f79848c595e81ae4bead012103cfa2812393653f7da5dbddb1e1a77155361c755ad4ccd55555a1f5d45977d817", "asm": "3044022002c444065d38662fc88d79481b4e42824691fefd200eda30194f9e8805bf4e9e02203aac496acefade08831f1f114d6a6d2347809306cb38f79848c595e81ae4bead[ALL] 03cfa2812393653f7da5dbddb1e1a77155361c755ad4ccd55555a1f5d45977d817"}, "vout": 1, "txid": "40a71ae4b2f4e03e981b912cf5333bd840283d323a754d7145a120728e985408"}, {"sequence": 4294967294, "scriptSig": {"hex": "483045022100a7104fdee8745726e659a1a5f6516c761d25ba03455737db910b9023e59b96f902206d63be09e5f766c2a4c61bd4fa71055e64324776e588bf31fff4b8b89fcd8dd20121025ea9fc6296c333567e45c3ba087a22bccaf4d9f73da3d6e35192bf4a05b31b3b", "asm": "3045022100a7104fdee8745726e659a1a5f6516c761d25ba03455737db910b9023e59b96f902206d63be09e5f766c2a4c61bd4fa71055e64324776e588bf31fff4b8b89fcd8dd2[ALL] 025ea9fc6296c333567e45c3ba087a22bccaf4d9f73da3d6e35192bf4a05b31b3b"}, "vout": 0, "txid": "b31772082db7e788c29f27353528ddf22d7a64b2fbe3495cff7b4d8d0c585b78"}], "txid": "faa3e571ad21b62a59d974901ad17c9bb55fa4a62f4a500e03861cc34a2ab812", "blocktime": 1537874412, "version": 2, "confirmations": 11466, "time": 1537874412, "locktime": 542997, "vsize": 373, "size": 373}