{"hash": "faaf559c36f9e98f4f85a202fbcdfee0f1c97028c0c4846148138fe7ca7c752f", "blockhash": "0000000000000000001cda96e906b7601b7a6fb1a3b62bca570a9e5d8f4b3de1", "vout": [{"scriptPubKey": {"reqSigs": 1, "hex": "76a9148308b5f1344b35baad1de70e5e8083cdf6b38f2288ac", "addresses": ["1CwqxMvDWNJeUJ6eJaYQTm6RRpQicPRMSy"], "asm": "OP_DUP OP_HASH160 8308b5f1344b35baad1de70e5e8083cdf6b38f22 OP_EQUALVERIFY OP_CHECKSIG", "type": "pubkeyhash"}, "value": 0.01389076, "n": 0}], "hex": "010000000293ae668d62af7104cb269719e05a727d732e574b6993cc46abd7ff227784069a080000006a473044022050adbd0dcefab761943929a01c5cd8284f12715bc0152a68a08fc4ffaa0b1f0402201ff06ea7bf8512017de035d96b33b848ab4995ffc3c45e745273f93382fcbd000121022ec6c7d8cbc8b609382e43e6af876da6e3be8c0565644112315a8298df6b7447ffffffffbd1986d1b4a5993a1b973328779c4b2bf1a447c0220cc0ce4d65f4ca13f020b7030000006b4830450221008c9f0cb6788b734aa9859d6fc0feeae4792826385b5f450e448bff05c95f5c6f02207e14295a026782473c24241e33bc1d5ebe132382eb5c8e933d03d7a4ac6d956d01210361a4b995152dde0b68b9fc8aea91c2a68b9b12c5541ff6ce384d1a411e15e938ffffffff0114321500000000001976a9148308b5f1344b35baad1de70e5e8083cdf6b38f2288ac00000000", "vin": [{"sequence": 4294967295, "scriptSig": {"hex": "473044022050adbd0dcefab761943929a01c5cd8284f12715bc0152a68a08fc4ffaa0b1f0402201ff06ea7bf8512017de035d96b33b848ab4995ffc3c45e745273f93382fcbd000121022ec6c7d8cbc8b609382e43e6af876da6e3be8c0565644112315a8298df6b7447", "asm": "3044022050adbd0dcefab761943929a01c5cd8284f12715bc0152a68a08fc4ffaa0b1f0402201ff06ea7bf8512017de035d96b33b848ab4995ffc3c45e745273f93382fcbd00[ALL] 022ec6c7d8cbc8b609382e43e6af876da6e3be8c0565644112315a8298df6b7447"}, "vout": 8, "txid": "9a06847722ffd7ab46cc93694b572e737d725ae0199726cb0471af628d66ae93"}, {"sequence": 4294967295, "scriptSig": {"hex": "4830450221008c9f0cb6788b734aa9859d6fc0feeae4792826385b5f450e448bff05c95f5c6f02207e14295a026782473c24241e33bc1d5ebe132382eb5c8e933d03d7a4ac6d956d01210361a4b995152dde0b68b9fc8aea91c2a68b9b12c5541ff6ce384d1a411e15e938", "asm": "30450221008c9f0cb6788b734aa9859d6fc0feeae4792826385b5f450e448bff05c95f5c6f02207e14295a026782473c24241e33bc1d5ebe132382eb5c8e933d03d7a4ac6d956d[ALL] 0361a4b995152dde0b68b9fc8aea91c2a68b9b12c5541ff6ce384d1a411e15e938"}, "vout": 3, "txid": "b720f013caf4654dcec00c22c047a4f12b4b9c772833971b3a99a5b4d18619bd"}], "txid": "faaf559c36f9e98f4f85a202fbcdfee0f1c97028c0c4846148138fe7ca7c752f", "blocktime": 1537873282, "version": 1, "confirmations": 11483, "time": 1537873282, "locktime": 0, "vsize": 339, "size": 339}