{"hash": "fab0f5d484de191ee062a2a69b0eb4b4678165631be615631900c7f4ace4413b", "blockhash": "0000000000000000000baef3f32e3676a92c3b2e5da21b426e4f302fc371ce76", "vout": [{"scriptPubKey": {"reqSigs": 1, "hex": "76a914041c664d515486f6cf6a9b8a5ffb06c9f5fa168e88ac", "addresses": ["1Njj1Rdq8DWdpsbng36VvWGW3f1SNQcbE"], "asm": "OP_DUP OP_HASH160 041c664d515486f6cf6a9b8a5ffb06c9f5fa168e OP_EQUALVERIFY OP_CHECKSIG", "type": "pubkeyhash"}, "value": 8.19199427, "n": 0}], "hex": "0100000001b758ffb0554b7d75fe889e7592f938c0453b3aa81c164b5823a463f2f9ac7f52020000006a473044022062d446eccac1e82887027bd4317dcbe7bd0bcd8ecbe4a4e1cbb354ee7fe51aeb02207a2f6780331d245bc473ec260a0314078cf6cfb8f446c059824f74ff45f4b0fa012103a12e84c29e55ff7c94f67d85b2ca0ac2683a0f0ee2eaa98b142b7ed8f2aa5843ffffffff01c3fdd330000000001976a914041c664d515486f6cf6a9b8a5ffb06c9f5fa168e88ac00000000", "vin": [{"sequence": 4294967295, "scriptSig": {"hex": "473044022062d446eccac1e82887027bd4317dcbe7bd0bcd8ecbe4a4e1cbb354ee7fe51aeb02207a2f6780331d245bc473ec260a0314078cf6cfb8f446c059824f74ff45f4b0fa012103a12e84c29e55ff7c94f67d85b2ca0ac2683a0f0ee2eaa98b142b7ed8f2aa5843", "asm": "3044022062d446eccac1e82887027bd4317dcbe7bd0bcd8ecbe4a4e1cbb354ee7fe51aeb02207a2f6780331d245bc473ec260a0314078cf6cfb8f446c059824f74ff45f4b0fa[ALL] 03a12e84c29e55ff7c94f67d85b2ca0ac2683a0f0ee2eaa98b142b7ed8f2aa5843"}, "vout": 2, "txid": "527facf9f263a423584b161ca83a3b45c038f992759e88fe757d4b55b0ff58b7"}], "txid": "fab0f5d484de191ee062a2a69b0eb4b4678165631be615631900c7f4ace4413b", "blocktime": 1537876114, "version": 1, "confirmations": 11460, "time": 1537876114, "locktime": 0, "vsize": 191, "size": 191}