{"hash": "4993ae8ea660be98bd996e698b00015a815bd808977587ab907f679699b74747", "blockhash": "0000000000000000001f0ddff1eddb255c1121bcd4da4f1bc9a0da00cae72433", "vout": [{"scriptPubKey": {"reqSigs": 1, "hex": "a914864fbb6f06f78922059c35e358a319ced1071bb887", "addresses": ["3DwBz8tYXk5NT7sVnLN4jDuncrfVAR7Rwu"], "asm": "OP_HASH160 864fbb6f06f78922059c35e358a319ced1071bb8 OP_EQUAL", "type": "scripthash"}, "value": 0.0039, "n": 0}, {"scriptPubKey": {"reqSigs": 1, "hex": "001452030a06259460340042e09d843f89840da152a6", "addresses": ["bc1q2gps5p39j3srgqzzuzwcg0ufssx6z54xvf0n34"], "asm": "0 52030a06259460340042e09d843f89840da152a6", "type": "witness_v0_keyhash"}, "value": 3.064e-05, "n": 1}], "hex": "010000000001012d863036d4c378f68b7c6b95875206eb5a766a56fe8bf4e4ecc4c5e1343789e80100000000ffffffff0270f305000000000017a914864fbb6f06f78922059c35e358a319ced1071bb887f80b00000000000016001452030a06259460340042e09d843f89840da152a6024830450221008c1ff06809969801bb119bc5e61f11a908d2f15db8fa430ac4f375a3b36008d10220457e62a4cae0b925f227a45a9ce13b0519568b2891b4ae8029e197a22675276c012102f35df801269c838ff34882c71f564eb8fbe3207cf16c6b72b4a597fe5605336800000000", "vin": [{"txinwitness": ["30450221008c1ff06809969801bb119bc5e61f11a908d2f15db8fa430ac4f375a3b36008d10220457e62a4cae0b925f227a45a9ce13b0519568b2891b4ae8029e197a22675276c01", "02f35df801269c838ff34882c71f564eb8fbe3207cf16c6b72b4a597fe56053368"], "sequence": 4294967295, "scriptSig": {"hex": "", "asm": ""}, "vout": 1, "txid": "e8893734e1c5c4ece4f48bfe566a765aeb065287956b7c8bf678c3d43630862d"}], "txid": "fab91bf6ac4014b4bb73019aac942b350b4f29a6fc229c57b480c4a2f5bc5d55", "blocktime": 1537872018, "version": 1, "confirmations": 11489, "time": 1537872018, "locktime": 0, "vsize": 142, "size": 224}