{"hash": "fabe152dc0d40b3c381c6ced47bf1a249a361745450b813d97797c4953b88ba6", "blockhash": "0000000000000000000baef3f32e3676a92c3b2e5da21b426e4f302fc371ce76", "vout": [{"scriptPubKey": {"type": "nulldata", "hex": "6a4c5000007836000117989f271aab8578733a9c7527b7256b4774d339f6019d6ddc0f1b8ff117a46ff18130cc1e9e8068fb46910456855baa20610613bb751e1183cf1d100759d4ba30d2c37bb011d97e02cf", "asm": "OP_RETURN 00007836000117989f271aab8578733a9c7527b7256b4774d339f6019d6ddc0f1b8ff117a46ff18130cc1e9e8068fb46910456855baa20610613bb751e1183cf1d100759d4ba30d2c37bb011d97e02cf"}, "value": 0.0, "n": 0}, {"scriptPubKey": {"reqSigs": 1, "hex": "76a9145b743351c28e51190a19bbdfdcf48d4de96f20a588ac", "addresses": ["19LZhCyhWTufdHQrJZNLSPQCPdLtKEQyWv"], "asm": "OP_DUP OP_HASH160 5b743351c28e51190a19bbdfdcf48d4de96f20a5 OP_EQUALVERIFY OP_CHECKSIG", "type": "pubkeyhash"}, "value": 0.00629057, "n": 1}], "hex": "01000000018ad8e851f361ca165abb30993be481a525b6ed9aa577cb2b76842314998e296e010000006a47304402204198dcc78b5c627080fde1ea4974c8947cb37054c5ccad0838fac46861e1105b02205b0692d357e5279b1a552d8fdbd0aa4c03816574af86ddef2ead52d1d40cdc73012102c4a61c79a79541bb85135222786ca7f87084e15ba5412f196192309ca57c503cffffffff020000000000000000536a4c5000007836000117989f271aab8578733a9c7527b7256b4774d339f6019d6ddc0f1b8ff117a46ff18130cc1e9e8068fb46910456855baa20610613bb751e1183cf1d100759d4ba30d2c37bb011d97e02cf41990900000000001976a9145b743351c28e51190a19bbdfdcf48d4de96f20a588ac00000000", "vin": [{"sequence": 4294967295, "scriptSig": {"hex": "47304402204198dcc78b5c627080fde1ea4974c8947cb37054c5ccad0838fac46861e1105b02205b0692d357e5279b1a552d8fdbd0aa4c03816574af86ddef2ead52d1d40cdc73012102c4a61c79a79541bb85135222786ca7f87084e15ba5412f196192309ca57c503c", "asm": "304402204198dcc78b5c627080fde1ea4974c8947cb37054c5ccad0838fac46861e1105b02205b0692d357e5279b1a552d8fdbd0aa4c03816574af86ddef2ead52d1d40cdc73[ALL] 02c4a61c79a79541bb85135222786ca7f87084e15ba5412f196192309ca57c503c"}, "vout": 1, "txid": "6e298e99142384762bcb77a59aedb625a581e43b9930bb5a16ca61f351e8d88a"}], "txid": "fabe152dc0d40b3c381c6ced47bf1a249a361745450b813d97797c4953b88ba6", "blocktime": 1537876114, "version": 1, "confirmations": 11460, "time": 1537876114, "locktime": 0, "vsize": 283, "size": 283}