{"hash": "fac02fef7139ced6bf32e140099b717fdac429a5c67685d862283391e594b25d", "blockhash": "0000000000000000000baef3f32e3676a92c3b2e5da21b426e4f302fc371ce76", "vout": [{"scriptPubKey": {"reqSigs": 1, "hex": "76a914d99c1cfb04e7bbf3ce7d231b693c2183f0c6aa8188ac", "addresses": ["1LqceZeTzQ19QAi9e7QZLqhX4iM3RnT8ME"], "asm": "OP_DUP OP_HASH160 d99c1cfb04e7bbf3ce7d231b693c2183f0c6aa81 OP_EQUALVERIFY OP_CHECKSIG", "type": "pubkeyhash"}, "value": 0.05169625, "n": 0}, {"scriptPubKey": {"reqSigs": 1, "hex": "a9149bd1e173d7d31707bee002900d0432e39d68931b87", "addresses": ["3Ftv63QhELLAoEZirHG9ujtwUKnvjekzC3"], "asm": "OP_HASH160 9bd1e173d7d31707bee002900d0432e39d68931b OP_EQUAL", "type": "scripthash"}, "value": 0.053168, "n": 1}], "hex": "01000000012e2e720a5ba2e8218ea7818de6f69c0f53fd2ef1de47b7d2cc9a10964ed2e19e01000000fdfe0000483045022100f06ac2e7ddb81eea7a0873072df2bc4990fd5df56382eaf32c61b7570dacf26e02205c24882e8172cb8190e3d7b95515a40a827f4708db82d145bd91e6441b1debd401483045022100f65156499404232f435f5c4317db028b030afa90978dfe69c0dc0e1915c781fe02201826312e99a336b1a6b0d4d622505a83e050aa4d9d72e91b95d33c9b043cdb1e014c695221021d9c09058590629a672a66f470707ab65b889936126ef2adef1b0e9ef4cf63902102377987bfa965e07883153673955d2fb0f0fa8cd91504b9421fce8ba8535db13f21035c120f069a7e2b2e0a513f6f68c2bfa9a64044b4edf3720227eef1b9dcf8662253aeffffffff02d9e14e00000000001976a914d99c1cfb04e7bbf3ce7d231b693c2183f0c6aa8188acc02051000000000017a9149bd1e173d7d31707bee002900d0432e39d68931b8700000000", "vin": [{"sequence": 4294967295, "scriptSig": {"hex": "00483045022100f06ac2e7ddb81eea7a0873072df2bc4990fd5df56382eaf32c61b7570dacf26e02205c24882e8172cb8190e3d7b95515a40a827f4708db82d145bd91e6441b1debd401483045022100f65156499404232f435f5c4317db028b030afa90978dfe69c0dc0e1915c781fe02201826312e99a336b1a6b0d4d622505a83e050aa4d9d72e91b95d33c9b043cdb1e014c695221021d9c09058590629a672a66f470707ab65b889936126ef2adef1b0e9ef4cf63902102377987bfa965e07883153673955d2fb0f0fa8cd91504b9421fce8ba8535db13f21035c120f069a7e2b2e0a513f6f68c2bfa9a64044b4edf3720227eef1b9dcf8662253ae", "asm": "0 3045022100f06ac2e7ddb81eea7a0873072df2bc4990fd5df56382eaf32c61b7570dacf26e02205c24882e8172cb8190e3d7b95515a40a827f4708db82d145bd91e6441b1debd4[ALL] 3045022100f65156499404232f435f5c4317db028b030afa90978dfe69c0dc0e1915c781fe02201826312e99a336b1a6b0d4d622505a83e050aa4d9d72e91b95d33c9b043cdb1e[ALL] 5221021d9c09058590629a672a66f470707ab65b889936126ef2adef1b0e9ef4cf63902102377987bfa965e07883153673955d2fb0f0fa8cd91504b9421fce8ba8535db13f21035c120f069a7e2b2e0a513f6f68c2bfa9a64044b4edf3720227eef1b9dcf8662253ae"}, "vout": 1, "txid": "9ee1d24e96109accd2b747def12efd530f9cf6e68d81a78e21e8a25b0a722e2e"}], "txid": "fac02fef7139ced6bf32e140099b717fdac429a5c67685d862283391e594b25d", "blocktime": 1537876114, "version": 1, "confirmations": 11460, "time": 1537876114, "locktime": 0, "vsize": 373, "size": 373}