{"hash": "fac2281835c2fee3524419c06a931a69ee0b7a1991b805737da044be5ee77012", "blockhash": "00000000000000000024a2167bbff67b0be802c0b01cdd79e6331c2be6459f87", "vout": [{"scriptPubKey": {"reqSigs": 1, "hex": "76a914e6ea923a3051700f9f3f9d474e2811f938dfe95f88ac", "addresses": ["1N3yRQznGgjDui7BtuYAaqocsA38E6Zapz"], "asm": "OP_DUP OP_HASH160 e6ea923a3051700f9f3f9d474e2811f938dfe95f OP_EQUALVERIFY OP_CHECKSIG", "type": "pubkeyhash"}, "value": 0.00024505, "n": 0}, {"scriptPubKey": {"reqSigs": 1, "hex": "76a91401566449d03b05694748f37169eed5dc1b96546d88ac", "addresses": ["185AoAZATT82yBoMQ4SKfoovvrzXiaq6C"], "asm": "OP_DUP OP_HASH160 01566449d03b05694748f37169eed5dc1b96546d OP_EQUALVERIFY OP_CHECKSIG", "type": "pubkeyhash"}, "value": 0.006249, "n": 1}], "hex": "0100000002b8e43f96410bcf077768ff74d68dbdb7290dbf1643bd02863ccfaacffe17eb12000000006b483045022100e2ed6b95a44c9d545413cbf973e30382ae384486bb1f4c38532c50959d4d89f702204b9c73e6e805e6dd1e5ee500866a8b5a75b0e7a47a034e6df4274a7058da7e1c0121032ef2811c2e318a2fd515865d1e476f11850c8f0f1eff35c288a9146b8251bbf2fdffffffbdada0e3864bb52d933cf25e4511e849ac2174e5dd2e2d8a0e4fcd912262d760000000006a4730440220019244cb087d0fe0a9aad1721c9c16f1e843b6f33bf7f186937da987fcbf2c2702207abc95b4e3a798b654fdb69d21bcac352cfc5d4181e908bccab23648049833b801210217d3e98d39eef9831d8e75798b7f9d742606dc8e5a1f062ce2c9a1f45a93ebd4fdffffff02b95f0000000000001976a914e6ea923a3051700f9f3f9d474e2811f938dfe95f88ac04890900000000001976a91401566449d03b05694748f37169eed5dc1b96546d88ac0d490800", "vin": [{"sequence": 4294967293, "scriptSig": {"hex": "483045022100e2ed6b95a44c9d545413cbf973e30382ae384486bb1f4c38532c50959d4d89f702204b9c73e6e805e6dd1e5ee500866a8b5a75b0e7a47a034e6df4274a7058da7e1c0121032ef2811c2e318a2fd515865d1e476f11850c8f0f1eff35c288a9146b8251bbf2", "asm": "3045022100e2ed6b95a44c9d545413cbf973e30382ae384486bb1f4c38532c50959d4d89f702204b9c73e6e805e6dd1e5ee500866a8b5a75b0e7a47a034e6df4274a7058da7e1c[ALL] 032ef2811c2e318a2fd515865d1e476f11850c8f0f1eff35c288a9146b8251bbf2"}, "vout": 0, "txid": "12eb17fecfaacf3c8602bd4316bf0d29b7bd8dd674ff687707cf0b41963fe4b8"}, {"sequence": 4294967293, "scriptSig": {"hex": "4730440220019244cb087d0fe0a9aad1721c9c16f1e843b6f33bf7f186937da987fcbf2c2702207abc95b4e3a798b654fdb69d21bcac352cfc5d4181e908bccab23648049833b801210217d3e98d39eef9831d8e75798b7f9d742606dc8e5a1f062ce2c9a1f45a93ebd4", "asm": "30440220019244cb087d0fe0a9aad1721c9c16f1e843b6f33bf7f186937da987fcbf2c2702207abc95b4e3a798b654fdb69d21bcac352cfc5d4181e908bccab23648049833b8[ALL] 0217d3e98d39eef9831d8e75798b7f9d742606dc8e5a1f062ce2c9a1f45a93ebd4"}, "vout": 0, "txid": "60d7622291cd4f0e8a2d2edde57421ac49e811455ef23c932db54b86e3a0adbd"}], "txid": "fac2281835c2fee3524419c06a931a69ee0b7a1991b805737da044be5ee77012", "blocktime": 1537870564, "version": 1, "confirmations": 11515, "time": 1537870564, "locktime": 542989, "vsize": 373, "size": 373}