{"hash": "fac385f11c1ba00340e274f4a9a94852abb937b67ee99e16ca90828cd3a30dda", "blockhash": "0000000000000000001f0ddff1eddb255c1121bcd4da4f1bc9a0da00cae72433", "vout": [{"scriptPubKey": {"reqSigs": 1, "hex": "76a914f5bdfc7916025077a6121dfa4677f528edf8f37488ac", "addresses": ["1PQN9UQtxyxYYd5zXQpfMH992SCgyY1ghH"], "asm": "OP_DUP OP_HASH160 f5bdfc7916025077a6121dfa4677f528edf8f374 OP_EQUALVERIFY OP_CHECKSIG", "type": "pubkeyhash"}, "value": 0.01509434, "n": 0}, {"scriptPubKey": {"reqSigs": 1, "hex": "76a914858cef2cfba6ab8b79191206d98860beead6b0ba88ac", "addresses": ["1DB9hoLVyPiSVm6PtxBPx61co5cDbR9KF1"], "asm": "OP_DUP OP_HASH160 858cef2cfba6ab8b79191206d98860beead6b0ba OP_EQUALVERIFY OP_CHECKSIG", "type": "pubkeyhash"}, "value": 0.7, "n": 1}], "hex": "0100000003260186a41330ce29485cf7a46f34471b355ef0f335bd0e1d8ef89d80cdc0f229010000006b483045022100ad4601ec0926a138794e1cc4b882a7e4dafb464d7fc89fc1ae195f11f504710f022066134530d139029e504b21d1349da87ec6337de4890bce9624998a94418bd9240121026cb14b4bc10757e8d310d5503382f537550fd956318b9ece4371dd708138233dffffffff22e8148e9992819c5a50dd56f8b7b397814b9d29c11756dbdf283b7f0d363457010000006a47304402206f975539513466c121c26747fff8819736e51c6561ee7a279630b9c64fa5c67d02207ffbf3ac6595d90ab8b9d02129502709d424b43cb33cc5816150ec02fc467f9c0121026cb14b4bc10757e8d310d5503382f537550fd956318b9ece4371dd708138233dffffffff0fb88602272a77c148ad0ce89121dc63683473f19399d21881a2da77f208f7c1010000006b483045022100b21f53db8e64773d4e289f6824935a8c51a39a1f762e8763430de32c1d0e38de02202cc55e3f061d95578dcc7527a534cdcd0261d975624043087520f929a8a8a9860121026cb14b4bc10757e8d310d5503382f537550fd956318b9ece4371dd708138233dffffffff023a081700000000001976a914f5bdfc7916025077a6121dfa4677f528edf8f37488ac801d2c04000000001976a914858cef2cfba6ab8b79191206d98860beead6b0ba88ac00000000", "vin": [{"sequence": 4294967295, "scriptSig": {"hex": "483045022100ad4601ec0926a138794e1cc4b882a7e4dafb464d7fc89fc1ae195f11f504710f022066134530d139029e504b21d1349da87ec6337de4890bce9624998a94418bd9240121026cb14b4bc10757e8d310d5503382f537550fd956318b9ece4371dd708138233d", "asm": "3045022100ad4601ec0926a138794e1cc4b882a7e4dafb464d7fc89fc1ae195f11f504710f022066134530d139029e504b21d1349da87ec6337de4890bce9624998a94418bd924[ALL] 026cb14b4bc10757e8d310d5503382f537550fd956318b9ece4371dd708138233d"}, "vout": 1, "txid": "29f2c0cd809df88e1d0ebd35f3f05e351b47346fa4f75c4829ce3013a4860126"}, {"sequence": 4294967295, "scriptSig": {"hex": "47304402206f975539513466c121c26747fff8819736e51c6561ee7a279630b9c64fa5c67d02207ffbf3ac6595d90ab8b9d02129502709d424b43cb33cc5816150ec02fc467f9c0121026cb14b4bc10757e8d310d5503382f537550fd956318b9ece4371dd708138233d", "asm": "304402206f975539513466c121c26747fff8819736e51c6561ee7a279630b9c64fa5c67d02207ffbf3ac6595d90ab8b9d02129502709d424b43cb33cc5816150ec02fc467f9c[ALL] 026cb14b4bc10757e8d310d5503382f537550fd956318b9ece4371dd708138233d"}, "vout": 1, "txid": "5734360d7f3b28dfdb5617c1299d4b8197b3b7f856dd505a9c8192998e14e822"}, {"sequence": 4294967295, "scriptSig": {"hex": "483045022100b21f53db8e64773d4e289f6824935a8c51a39a1f762e8763430de32c1d0e38de02202cc55e3f061d95578dcc7527a534cdcd0261d975624043087520f929a8a8a9860121026cb14b4bc10757e8d310d5503382f537550fd956318b9ece4371dd708138233d", "asm": "3045022100b21f53db8e64773d4e289f6824935a8c51a39a1f762e8763430de32c1d0e38de02202cc55e3f061d95578dcc7527a534cdcd0261d975624043087520f929a8a8a986[ALL] 026cb14b4bc10757e8d310d5503382f537550fd956318b9ece4371dd708138233d"}, "vout": 1, "txid": "c1f708f277daa28118d29993f173346863dc2191e80cad48c1772a270286b80f"}], "txid": "fac385f11c1ba00340e274f4a9a94852abb937b67ee99e16ca90828cd3a30dda", "blocktime": 1537872018, "version": 1, "confirmations": 11489, "time": 1537872018, "locktime": 0, "vsize": 521, "size": 521}