{"hash": "fac54466dafc825835d7deec20b5c4f0806e49dc562f1c4a9a7889996658e8f1", "blockhash": "0000000000000000001f76057863aec43deb6fa401d9628bb513d65a8098bfab", "vout": [{"scriptPubKey": {"reqSigs": 1, "hex": "76a914c3c8a26650783ebce8e1e5e2e631f680ae79a7cc88ac", "addresses": ["1JrD7jCfiBHFz7HqWKfnLQDcRnNmsGvRYE"], "asm": "OP_DUP OP_HASH160 c3c8a26650783ebce8e1e5e2e631f680ae79a7cc OP_EQUALVERIFY OP_CHECKSIG", "type": "pubkeyhash"}, "value": 0.00643845, "n": 0}, {"scriptPubKey": {"reqSigs": 1, "hex": "76a9148c450ad86143649c41a60d8e1e624cb4ef95b62988ac", "addresses": ["1DngK1DrrmirhHV4Y5yUDGhMpsbGik6Uot"], "asm": "OP_DUP OP_HASH160 8c450ad86143649c41a60d8e1e624cb4ef95b629 OP_EQUALVERIFY OP_CHECKSIG", "type": "pubkeyhash"}, "value": 0.03555848, "n": 1}], "hex": "010000000182f6ed9c47a94b66e441321e8b3e612520886c468d36b4a54299cc052fe15307010000006a47304402204209f36b182d87840dd4c5dd73b7293251838c313dc6453668150b1f0d2de4590220198483105403805b84307eef0e9edf22058645c0a9e951b2ebc98d908a4c96b10121029612d61074e4115d5cd5e777cd2f417f57208e4007df99d877fbf5247c4afaa0ffffffff0205d30900000000001976a914c3c8a26650783ebce8e1e5e2e631f680ae79a7cc88ac08423600000000001976a9148c450ad86143649c41a60d8e1e624cb4ef95b62988ac00000000", "vin": [{"sequence": 4294967295, "scriptSig": {"hex": "47304402204209f36b182d87840dd4c5dd73b7293251838c313dc6453668150b1f0d2de4590220198483105403805b84307eef0e9edf22058645c0a9e951b2ebc98d908a4c96b10121029612d61074e4115d5cd5e777cd2f417f57208e4007df99d877fbf5247c4afaa0", "asm": "304402204209f36b182d87840dd4c5dd73b7293251838c313dc6453668150b1f0d2de4590220198483105403805b84307eef0e9edf22058645c0a9e951b2ebc98d908a4c96b1[ALL] 029612d61074e4115d5cd5e777cd2f417f57208e4007df99d877fbf5247c4afaa0"}, "vout": 1, "txid": "0753e12f05cc9942a5b4368d466c882025613e8b1e3241e4664ba9479cedf682"}], "txid": "fac54466dafc825835d7deec20b5c4f0806e49dc562f1c4a9a7889996658e8f1", "blocktime": 1537873891, "version": 1, "confirmations": 11478, "time": 1537873891, "locktime": 0, "vsize": 225, "size": 225}