{"hash": "91f6196e52edb549aab4283af36f16d88b066bce7f29707d40f5a57ceabd6032", "blockhash": "00000000000000000004ffacab907a6b429b9a5745fa0b75af4234bf69dd7176", "vout": [{"scriptPubKey": {"reqSigs": 1, "hex": "a914d23cca9c8c4bdfa9c9e35e393710a24fc97c7fa487", "addresses": ["3Lreeh6tfFAD6AVgdx6mkeYpxyHUZhMwzu"], "asm": "OP_HASH160 d23cca9c8c4bdfa9c9e35e393710a24fc97c7fa4 OP_EQUAL", "type": "scripthash"}, "value": 0.00998071, "n": 0}, {"scriptPubKey": {"reqSigs": 1, "hex": "76a9144a17e8bea47f3374c27821a2c5bb2aa4e4a13fff88ac", "addresses": ["17kmeS7QoWcQQJa6DbiZqe8pY1Q1AFLa3o"], "asm": "OP_DUP OP_HASH160 4a17e8bea47f3374c27821a2c5bb2aa4e4a13fff OP_EQUALVERIFY OP_CHECKSIG", "type": "pubkeyhash"}, "value": 0.0135979, "n": 1}], "hex": "0200000000010158864dfdc9c9137e88e2c8fe27c55e40993159359eccaaf09d0ed1f6a82362bf000000001716001451523d8e07ae9c3e36cd6ad4545cd37d31183fa7feffffff02b73a0f000000000017a914d23cca9c8c4bdfa9c9e35e393710a24fc97c7fa487aebf1400000000001976a9144a17e8bea47f3374c27821a2c5bb2aa4e4a13fff88ac02473044022041a430e18b57341418f4185d06a829ea8f45179cb1f848a16f92c39ea711ca7e02206747d33fad55fc27fbc206a10ef443453406c29ca3c41e3f6b0c7573984fc4b3012102c832a427f2219ce39329752160549bbc8e0732d7311db4caab85c833143ce03916490800", "vin": [{"txinwitness": ["3044022041a430e18b57341418f4185d06a829ea8f45179cb1f848a16f92c39ea711ca7e02206747d33fad55fc27fbc206a10ef443453406c29ca3c41e3f6b0c7573984fc4b301", "02c832a427f2219ce39329752160549bbc8e0732d7311db4caab85c833143ce039"], "sequence": 4294967294, "scriptSig": {"hex": "16001451523d8e07ae9c3e36cd6ad4545cd37d31183fa7", "asm": "001451523d8e07ae9c3e36cd6ad4545cd37d31183fa7"}, "vout": 0, "txid": "bf6223a8f6d10e9df0aacc9e35593199405ec527fec8e2887e13c9c9fd4d8658"}], "txid": "fac5aaf3444b649521eaf92f3d8bb8a3719bb404cb94c709462b899bc93fd5b4", "blocktime": 1537875543, "version": 2, "confirmations": 11464, "time": 1537875543, "locktime": 542998, "vsize": 168, "size": 249}