{"hash": "facc6f765469e93db4fe861be1e033b824eda569c12a42b916a9ead1c5a0d676", "blockhash": "00000000000000000004ffacab907a6b429b9a5745fa0b75af4234bf69dd7176", "vout": [{"scriptPubKey": {"reqSigs": 1, "hex": "76a9143dea8d75709c388b12878f80ffef60673c11c52288ac", "addresses": ["16ePChcJejoqU4GGyzYz3RbJedfps6cYdY"], "asm": "OP_DUP OP_HASH160 3dea8d75709c388b12878f80ffef60673c11c522 OP_EQUALVERIFY OP_CHECKSIG", "type": "pubkeyhash"}, "value": 0.00903569, "n": 0}, {"scriptPubKey": {"reqSigs": 1, "hex": "76a914e8cea30989bd15530f819b766684b00dc7ba7cfa88ac", "addresses": ["1NDyJtNTjmwk5xPNhjgAMu4HDHigtobu1s"], "asm": "OP_DUP OP_HASH160 e8cea30989bd15530f819b766684b00dc7ba7cfa OP_EQUALVERIFY OP_CHECKSIG", "type": "pubkeyhash"}, "value": 1.30261507, "n": 1}], "hex": "02000000062874f53cbe7e5bb2fa2aa0fc0f09b7e64c9a80accf30eea1cfeb64799bbcd95d010000006b483045022100cd292dd5d92511c04b795c7960c494efb4ba8396165a2817d3bfd5fcbc15775e02206cc16e2ed29ac6f7f3cd315bc39b07623dc2846ceaaab8c5f359863576249b510121032900ace6c7ce6b52797369fbf3f57be309982e54683b7ac74a9c5cca34d38b94feffffff2fe7e4c00cd598fe4f3197c2720377c8d3bac4d34d0f95da1b69ca28f46a397f010000006a47304402204e79bd0879b86bcee3f812896da79a26883e5544ff8bb0af6a81ae119aa36b7102204ccf856e92cd40f3df7afd7029f645530e8bede6f6b2842a1c2d33ad335d76b9012103d0c5128608c4662217faac2534ee7b1985060c6dcc06ec9100a2bb3eb8d74057feffffff464d431efba0ad63e471af244afc71cdfc21c1f5012cb74a11535f42c94bb27c010000006a473044022020fbd90442a1b2f67cc0fb6513509d50c83bbc4473f6e52d73a475e9b557f83802202cd17d6acc3929501a73bd380b67a64e294ccc1de4661596582bdd96094c3164012102ae98a493a245de8f32ea438254f085d29273e54de759e55afbb665cd65e6c5a8feffffff5ed79face9fbeee03f02a7b468ccfc3f9e55e22e948d533ca4c4f96ca18997e3010000006b483045022100fc786b8756eb3d2e47fa5c66f457043638056a5315a14e3a7c71aaba509998d602200809446374f51367a8164d939e4c783528cdfc8f511d39a784e72c8eab34118c012103f34325c01606cd4aefa76ec471f6b51cf46f44946163d35842f1bef2fabb2e68feffffff9e18ddda86b3e0195b18c8c8588f6143d51badbfe6eaa98df5b53b286df2267c010000006b483045022100cd7c57901c7ed86e9f79bceee521d531af0f953a5d0c1dfd040ae38384782d3402207b0e94636ebf3a94bc252a234d9c848f503898134873097fe526b59a2348ed6a012103ed56aaa9d17806e63dc37b9d62570dbf5cc509d2cee9c1225da283c249a92542feffffffa95bdcf0d60322c75a1c32034aadc2b20c83f8c2cfd317f76988a6792c4eea7b000000006a47304402204dd38e0bf9a7a295456b7d8b7d7ce47129e64022f99d4d1e2c2b20629c081b9a022038140ee901842952843a30c6da12eb99d40161bd9a1ef0112c4f8320e7d58221012102a0a4e76f17a2c4d3d3fe99863642e5c8445ba4178a0ab2c87e68500d1411a019feffffff0291c90d00000000001976a9143dea8d75709c388b12878f80ffef60673c11c52288ac03a2c307000000001976a914e8cea30989bd15530f819b766684b00dc7ba7cfa88ace0480800", "vin": [{"sequence": 4294967294, "scriptSig": {"hex": "483045022100cd292dd5d92511c04b795c7960c494efb4ba8396165a2817d3bfd5fcbc15775e02206cc16e2ed29ac6f7f3cd315bc39b07623dc2846ceaaab8c5f359863576249b510121032900ace6c7ce6b52797369fbf3f57be309982e54683b7ac74a9c5cca34d38b94", "asm": "3045022100cd292dd5d92511c04b795c7960c494efb4ba8396165a2817d3bfd5fcbc15775e02206cc16e2ed29ac6f7f3cd315bc39b07623dc2846ceaaab8c5f359863576249b51[ALL] 032900ace6c7ce6b52797369fbf3f57be309982e54683b7ac74a9c5cca34d38b94"}, "vout": 1, "txid": "5dd9bc9b7964ebcfa1ee30cfac809a4ce6b7090ffca02afab25b7ebe3cf57428"}, {"sequence": 4294967294, "scriptSig": {"hex": "47304402204e79bd0879b86bcee3f812896da79a26883e5544ff8bb0af6a81ae119aa36b7102204ccf856e92cd40f3df7afd7029f645530e8bede6f6b2842a1c2d33ad335d76b9012103d0c5128608c4662217faac2534ee7b1985060c6dcc06ec9100a2bb3eb8d74057", "asm": "304402204e79bd0879b86bcee3f812896da79a26883e5544ff8bb0af6a81ae119aa36b7102204ccf856e92cd40f3df7afd7029f645530e8bede6f6b2842a1c2d33ad335d76b9[ALL] 03d0c5128608c4662217faac2534ee7b1985060c6dcc06ec9100a2bb3eb8d74057"}, "vout": 1, "txid": "7f396af428ca691bda950f4dd3c4bad3c8770372c297314ffe98d50cc0e4e72f"}, {"sequence": 4294967294, "scriptSig": {"hex": "473044022020fbd90442a1b2f67cc0fb6513509d50c83bbc4473f6e52d73a475e9b557f83802202cd17d6acc3929501a73bd380b67a64e294ccc1de4661596582bdd96094c3164012102ae98a493a245de8f32ea438254f085d29273e54de759e55afbb665cd65e6c5a8", "asm": "3044022020fbd90442a1b2f67cc0fb6513509d50c83bbc4473f6e52d73a475e9b557f83802202cd17d6acc3929501a73bd380b67a64e294ccc1de4661596582bdd96094c3164[ALL] 02ae98a493a245de8f32ea438254f085d29273e54de759e55afbb665cd65e6c5a8"}, "vout": 1, "txid": "7cb24bc9425f53114ab72c01f5c121fccd71fc4a24af71e463ada0fb1e434d46"}, {"sequence": 4294967294, "scriptSig": {"hex": "483045022100fc786b8756eb3d2e47fa5c66f457043638056a5315a14e3a7c71aaba509998d602200809446374f51367a8164d939e4c783528cdfc8f511d39a784e72c8eab34118c012103f34325c01606cd4aefa76ec471f6b51cf46f44946163d35842f1bef2fabb2e68", "asm": "3045022100fc786b8756eb3d2e47fa5c66f457043638056a5315a14e3a7c71aaba509998d602200809446374f51367a8164d939e4c783528cdfc8f511d39a784e72c8eab34118c[ALL] 03f34325c01606cd4aefa76ec471f6b51cf46f44946163d35842f1bef2fabb2e68"}, "vout": 1, "txid": "e39789a16cf9c4a43c538d942ee2559e3ffccc68b4a7023fe0eefbe9ac9fd75e"}, {"sequence": 4294967294, "scriptSig": {"hex": "483045022100cd7c57901c7ed86e9f79bceee521d531af0f953a5d0c1dfd040ae38384782d3402207b0e94636ebf3a94bc252a234d9c848f503898134873097fe526b59a2348ed6a012103ed56aaa9d17806e63dc37b9d62570dbf5cc509d2cee9c1225da283c249a92542", "asm": "3045022100cd7c57901c7ed86e9f79bceee521d531af0f953a5d0c1dfd040ae38384782d3402207b0e94636ebf3a94bc252a234d9c848f503898134873097fe526b59a2348ed6a[ALL] 03ed56aaa9d17806e63dc37b9d62570dbf5cc509d2cee9c1225da283c249a92542"}, "vout": 1, "txid": "7c26f26d283bb5f58da9eae6bfad1bd543618f58c8c8185b19e0b386dadd189e"}, {"sequence": 4294967294, "scriptSig": {"hex": "47304402204dd38e0bf9a7a295456b7d8b7d7ce47129e64022f99d4d1e2c2b20629c081b9a022038140ee901842952843a30c6da12eb99d40161bd9a1ef0112c4f8320e7d58221012102a0a4e76f17a2c4d3d3fe99863642e5c8445ba4178a0ab2c87e68500d1411a019", "asm": "304402204dd38e0bf9a7a295456b7d8b7d7ce47129e64022f99d4d1e2c2b20629c081b9a022038140ee901842952843a30c6da12eb99d40161bd9a1ef0112c4f8320e7d58221[ALL] 02a0a4e76f17a2c4d3d3fe99863642e5c8445ba4178a0ab2c87e68500d1411a019"}, "vout": 0, "txid": "7bea4e2c79a68869f717d3cfc2f8830cb2c2ad4a03321c5ac72203d6f0dc5ba9"}], "txid": "facc6f765469e93db4fe861be1e033b824eda569c12a42b916a9ead1c5a0d676", "blocktime": 1537875543, "version": 2, "confirmations": 11464, "time": 1537875543, "locktime": 542944, "vsize": 963, "size": 963}