{"hash": "fad06f1ae6828939d30ab465902ff618ef0bc1ddfe45a0872537322065e9978c", "blockhash": "00000000000000000018f53835495a110e01622372bf6ae95dc86f2b0ab887b0", "vout": [{"scriptPubKey": {"reqSigs": 1, "hex": "76a91450e4f01c908b1be32bd8fdbd78e6ed8048028f4588ac", "addresses": ["18NjKEX6RcSsJZU7Xc1StV8W4jYwV1L7Ut"], "asm": "OP_DUP OP_HASH160 50e4f01c908b1be32bd8fdbd78e6ed8048028f45 OP_EQUALVERIFY OP_CHECKSIG", "type": "pubkeyhash"}, "value": 0.0031222, "n": 0}, {"scriptPubKey": {"reqSigs": 1, "hex": "76a914f6432281145266c115dcbd4f127bbb2e3da311da88ac", "addresses": ["1PT7eoDAV6BYLMePqUVtdZe6FiX6ptUQPg"], "asm": "OP_DUP OP_HASH160 f6432281145266c115dcbd4f127bbb2e3da311da OP_EQUALVERIFY OP_CHECKSIG", "type": "pubkeyhash"}, "value": 0.02705991, "n": 1}], "hex": "0100000001d2f89caacf4f9103f4772a5d6e0b05e3687547e032c65c9243630b76285ec3cd010000008b4830450221009a320ccd262da63a0a279d146ee5d72b0478c8dbbd1ee63fe7d4ddf53264812002206e2ad63102c2c6dfecacc495629a44a00fdf82105996b348ed7346ebec92a218014104c5e76d2fbe31d2ef84152abc989a32a7efb338e92fff2d9ed1aa004fe33fe3b5e8a72bfa58c9c1f4c9413a98354780569831ad3ce1027c09dac8e4ff4774a9c8ffffffff029cc30400000000001976a91450e4f01c908b1be32bd8fdbd78e6ed8048028f4588ac474a2900000000001976a914f6432281145266c115dcbd4f127bbb2e3da311da88ac00000000", "vin": [{"sequence": 4294967295, "scriptSig": {"hex": "4830450221009a320ccd262da63a0a279d146ee5d72b0478c8dbbd1ee63fe7d4ddf53264812002206e2ad63102c2c6dfecacc495629a44a00fdf82105996b348ed7346ebec92a218014104c5e76d2fbe31d2ef84152abc989a32a7efb338e92fff2d9ed1aa004fe33fe3b5e8a72bfa58c9c1f4c9413a98354780569831ad3ce1027c09dac8e4ff4774a9c8", "asm": "30450221009a320ccd262da63a0a279d146ee5d72b0478c8dbbd1ee63fe7d4ddf53264812002206e2ad63102c2c6dfecacc495629a44a00fdf82105996b348ed7346ebec92a218[ALL] 04c5e76d2fbe31d2ef84152abc989a32a7efb338e92fff2d9ed1aa004fe33fe3b5e8a72bfa58c9c1f4c9413a98354780569831ad3ce1027c09dac8e4ff4774a9c8"}, "vout": 1, "txid": "cdc35e28760b6343925cc632e0477568e3050b6e5d2a77f403914fcfaa9cf8d2"}], "txid": "fad06f1ae6828939d30ab465902ff618ef0bc1ddfe45a0872537322065e9978c", "blocktime": 1537870928, "version": 1, "confirmations": 11512, "time": 1537870928, "locktime": 0, "vsize": 258, "size": 258}