{"hash": "fad3668d72f3068f82d12ae4a7a73618baadc5ad161dceccf31d4e0a6e61ea9f", "blockhash": "00000000000000000018f53835495a110e01622372bf6ae95dc86f2b0ab887b0", "vout": [{"scriptPubKey": {"reqSigs": 1, "hex": "a914b7acc7fe76a709b96f196646d6bb1f9f70daf58387", "addresses": ["3JSCZhV2m18SqKu841ZYBNpRW5PKiu8C2H"], "asm": "OP_HASH160 b7acc7fe76a709b96f196646d6bb1f9f70daf583 OP_EQUAL", "type": "scripthash"}, "value": 0.000781, "n": 0}, {"scriptPubKey": {"reqSigs": 1, "hex": "76a914c15bb0a1fbadfe15f5924a01078ad433da95766c88ac", "addresses": ["1JdPFkk6HKZj1r2VgkXMsJuZPnF2R7G1EM"], "asm": "OP_DUP OP_HASH160 c15bb0a1fbadfe15f5924a01078ad433da95766c OP_EQUALVERIFY OP_CHECKSIG", "type": "pubkeyhash"}, "value": 0.00994544, "n": 1}], "hex": "010000000156c2e54551b11197b45030a931a96c12d6a579e35cf893b288dc6c93dcd38104010000006a47304402201519afad880e2e4f889dbf8ac6eb5de79077b4c9a8402e5ba660ee067fee557602206827a80c8d948cd1c3f02e9ef0a0019aed702e23fa0fb2d3bb5300a7193bd6f9012102256703120dd4ae2e1a57601895b2feaf5edb7963097fc7c06824fb187ab053bbffffffff02143101000000000017a914b7acc7fe76a709b96f196646d6bb1f9f70daf58387f02c0f00000000001976a914c15bb0a1fbadfe15f5924a01078ad433da95766c88ac00000000", "vin": [{"sequence": 4294967295, "scriptSig": {"hex": "47304402201519afad880e2e4f889dbf8ac6eb5de79077b4c9a8402e5ba660ee067fee557602206827a80c8d948cd1c3f02e9ef0a0019aed702e23fa0fb2d3bb5300a7193bd6f9012102256703120dd4ae2e1a57601895b2feaf5edb7963097fc7c06824fb187ab053bb", "asm": "304402201519afad880e2e4f889dbf8ac6eb5de79077b4c9a8402e5ba660ee067fee557602206827a80c8d948cd1c3f02e9ef0a0019aed702e23fa0fb2d3bb5300a7193bd6f9[ALL] 02256703120dd4ae2e1a57601895b2feaf5edb7963097fc7c06824fb187ab053bb"}, "vout": 1, "txid": "0481d3dc936cdc88b293f85ce379a5d6126ca931a93050b49711b15145e5c256"}], "txid": "fad3668d72f3068f82d12ae4a7a73618baadc5ad161dceccf31d4e0a6e61ea9f", "blocktime": 1537870928, "version": 1, "confirmations": 11514, "time": 1537870928, "locktime": 0, "vsize": 223, "size": 223}