{"hash": "69949fb55d3fcf867095065d464a0d9c6a1726f29ef53de0358bd0e29f2c94c9", "blockhash": "0000000000000000000e13cef7c366c0283d82e591d1acd082e914b08063cdf1", "vout": [{"scriptPubKey": {"reqSigs": 1, "hex": "76a9144491e8e533d87be9d6b44f08447764706a7f3ec188ac", "addresses": ["17FZk2pnPWd8THfT7oUS2APsPKXqqyB9h4"], "asm": "OP_DUP OP_HASH160 4491e8e533d87be9d6b44f08447764706a7f3ec1 OP_EQUALVERIFY OP_CHECKSIG", "type": "pubkeyhash"}, "value": 0.0019246, "n": 0}, {"scriptPubKey": {"reqSigs": 1, "hex": "a9140bb4701c00585309e546a36d8041e6e7d1fed47d87", "addresses": ["32kuWhbxezh7A9TCRSYXpWU4W1BfEjXSnV"], "asm": "OP_HASH160 0bb4701c00585309e546a36d8041e6e7d1fed47d OP_EQUAL", "type": "scripthash"}, "value": 0.01020629, "n": 1}], "hex": "0200000000010283096b128b9d1cd35dcf5618d1802123f3838439a9841ebf9e97c28a583c0de200000000171600148baaebd607ad7002409b2c79822726e4e015da85feffffffd2d780604210f190daa080c36fe237f37f1be3089aa5f8b4ce5ae633d9098a700d00000017160014079ea4a9b2fab23c63c9dbc25578e0d4a7bc4d96feffffff02ccef0200000000001976a9144491e8e533d87be9d6b44f08447764706a7f3ec188acd5920f000000000017a9140bb4701c00585309e546a36d8041e6e7d1fed47d8702473044022057b2f41fb446bbed751e968fa0c6967525d0b92a7dbfb15ff7c78df6bf97324a02203d58b113742dfd57c5a5032271ff97100a67e5f7561961c5603dfac999df3bba0121024f0615f5962d8354e0c523b8570c2c74120bcce3d38c12836c21bede6292cfb70247304402203146d671b86075f36c8f09a9f883da43f7b2ac470772c168e3dd70fa6c8835cb022029b659463f0ebe22d8db922243d8f72bfca9d20940914e78c76364c70b86fe06012103ff26f3375369c380c52991c6203b65093b3e4b5d622a89f463a7b70bec3251f40f490800", "vin": [{"txinwitness": ["3044022057b2f41fb446bbed751e968fa0c6967525d0b92a7dbfb15ff7c78df6bf97324a02203d58b113742dfd57c5a5032271ff97100a67e5f7561961c5603dfac999df3bba01", "024f0615f5962d8354e0c523b8570c2c74120bcce3d38c12836c21bede6292cfb7"], "sequence": 4294967294, "scriptSig": {"hex": "1600148baaebd607ad7002409b2c79822726e4e015da85", "asm": "00148baaebd607ad7002409b2c79822726e4e015da85"}, "vout": 0, "txid": "e20d3c588ac2979ebf1e84a9398483f3232180d11856cf5dd31c9d8b126b0983"}, {"txinwitness": ["304402203146d671b86075f36c8f09a9f883da43f7b2ac470772c168e3dd70fa6c8835cb022029b659463f0ebe22d8db922243d8f72bfca9d20940914e78c76364c70b86fe0601", "03ff26f3375369c380c52991c6203b65093b3e4b5d622a89f463a7b70bec3251f4"], "sequence": 4294967294, "scriptSig": {"hex": "160014079ea4a9b2fab23c63c9dbc25578e0d4a7bc4d96", "asm": "0014079ea4a9b2fab23c63c9dbc25578e0d4a7bc4d96"}, "vout": 13, "txid": "708a09d933e65aceb4f8a59a08e31b7ff337e26fc380a0da90f110426080d7d2"}], "txid": "fad6d694cc6a9ad98b40833110aa6f281ac45ba1e79eb35e94012c6e94adf89f", "blocktime": 1537871767, "version": 2, "confirmations": 11495, "time": 1537871767, "locktime": 542991, "vsize": 258, "size": 420}