{"hash": "da4d3e7ab23cd0db4cf884703bc8d804e16cd6ef9e58a9f2add21c398b057f95", "blockhash": "0000000000000000000baef3f32e3676a92c3b2e5da21b426e4f302fc371ce76", "vout": [{"scriptPubKey": {"reqSigs": 1, "hex": "a914622af3ebbca17a6c9e16b593168284ca29768f2b87", "addresses": ["3Ae5bks8VD3hB1DDsvg5boa2qwQffeDB5d"], "asm": "OP_HASH160 622af3ebbca17a6c9e16b593168284ca29768f2b OP_EQUAL", "type": "scripthash"}, "value": 0.0102559, "n": 0}, {"scriptPubKey": {"reqSigs": 1, "hex": "a9147631dbc7320084decf0a756724f835765f8a2ed287", "addresses": ["3CTyPQiEpuU9LVjSur1tJydK2YaUJpjf6N"], "asm": "OP_HASH160 7631dbc7320084decf0a756724f835765f8a2ed2 OP_EQUAL", "type": "scripthash"}, "value": 0.0025, "n": 1}], "hex": "020000000001025d05a33f52e83ace6310046ba1915e99fd455f74768b8ce8ff30034a885fac050000000017160014a66591b1e1c769851a18b5fa627f34669bffbaecfeffffff9337b4c197319fc0ba2deaa4f73197b30194816e7c58db7230a8e4855b4fe7c5010000006b483045022100888592e16a190b59551ae3c6bc804b6c1d69ca1fe23fdf6c9a606626d04e9434022001754bedcab9c2ac85e2ebd68bf30e4c8e3ba2d6ee4a084ae7215c0b6d9b172a012102c310f5b5f350559b29b91150dca34096c0da0ccb2d12d86136e1a4efb7437f6dfeffffff0236a60f000000000017a914622af3ebbca17a6c9e16b593168284ca29768f2b8790d003000000000017a9147631dbc7320084decf0a756724f835765f8a2ed28702483045022100e7215d2757eff8d8c4d2d315ff856e2dbb09f66e72126973e7997836bf45f2e602202b2a4b03ff91ed2d6849f50d542a86b57a3327c92e6a2993100e59bec613195001210332e14e97d1dcc8029bd7f1ad96c850497fcf5ab0914540f0a343ebd9ee1f023c00e2480800", "vin": [{"txinwitness": ["3045022100e7215d2757eff8d8c4d2d315ff856e2dbb09f66e72126973e7997836bf45f2e602202b2a4b03ff91ed2d6849f50d542a86b57a3327c92e6a2993100e59bec613195001", "0332e14e97d1dcc8029bd7f1ad96c850497fcf5ab0914540f0a343ebd9ee1f023c"], "sequence": 4294967294, "scriptSig": {"hex": "160014a66591b1e1c769851a18b5fa627f34669bffbaec", "asm": "0014a66591b1e1c769851a18b5fa627f34669bffbaec"}, "vout": 0, "txid": "05ac5f884a0330ffe88c8b76745f45fd995e91a16b041063ce3ae8523fa3055d"}, {"sequence": 4294967294, "scriptSig": {"hex": "483045022100888592e16a190b59551ae3c6bc804b6c1d69ca1fe23fdf6c9a606626d04e9434022001754bedcab9c2ac85e2ebd68bf30e4c8e3ba2d6ee4a084ae7215c0b6d9b172a012102c310f5b5f350559b29b91150dca34096c0da0ccb2d12d86136e1a4efb7437f6d", "asm": "3045022100888592e16a190b59551ae3c6bc804b6c1d69ca1fe23fdf6c9a606626d04e9434022001754bedcab9c2ac85e2ebd68bf30e4c8e3ba2d6ee4a084ae7215c0b6d9b172a[ALL] 02c310f5b5f350559b29b91150dca34096c0da0ccb2d12d86136e1a4efb7437f6d"}, "vout": 1, "txid": "c5e74f5b85e4a83072db587c6e819401b39731f7a4ea2dbac09f3197c1b43793"}], "txid": "fad81c672a57d35a582b227c787e586160d6187b6a9056418d1b02b9a75ba112", "blocktime": 1537876114, "version": 2, "confirmations": 11459, "time": 1537876114, "locktime": 542946, "vsize": 314, "size": 397}