{"hash": "6883e2c0f6f7668ea776c6109a146ff8d4f552169837597551e0b1bd0b4dc6ad", "blockhash": "0000000000000000000e13cef7c366c0283d82e591d1acd082e914b08063cdf1", "vout": [{"scriptPubKey": {"reqSigs": 1, "hex": "76a914472e18d6c63cea8e3f9cd4a17c75f1273d4bf79c88ac", "addresses": ["17VNCVrnrh4vZWktYUDTXAmr1kNCMuBKTn"], "asm": "OP_DUP OP_HASH160 472e18d6c63cea8e3f9cd4a17c75f1273d4bf79c OP_EQUALVERIFY OP_CHECKSIG", "type": "pubkeyhash"}, "value": 0.0520747, "n": 0}, {"scriptPubKey": {"reqSigs": 1, "hex": "a914d47108f1235adb0a88f74bd4bc7ecf83cbf9838387", "addresses": ["3M4Jb1uPP6HXrfxPytY6uPXAXtVT5KDYYv"], "asm": "OP_HASH160 d47108f1235adb0a88f74bd4bc7ecf83cbf98383 OP_EQUAL", "type": "scripthash"}, "value": 0.01114154, "n": 1}], "hex": "020000000001040f9a5a4bc88215d2f0c1821a2be8192df3b9f0a4aff9f5de96d8ee172bb259830300000017160014d949118f73760cf65c3baf69986a505f622cdda1fdffffff64a03913d2b20a2d3afe4480e5c4f350a6e2a4b2746eb05fc46066a87c9c56c10100000017160014aa44b7423779d44bfb30156db27cc8bc9a9988c3fdffffffc53e9562868b3840ed4eb15b259372fc7601f9ce0ffacd903997eb4ad3f16d4701000000171600143d8545a3f9d17a77c32e42c04e7b952a1f85f692fdffffffcce9cd4e7a0e295969c22911723d0d516a1c37a988f0dfb51080f4fdee45869100000000171600140cef83c3ddd384c62f8c31b052ebf59527b22f0efdffffff02ae754f00000000001976a914472e18d6c63cea8e3f9cd4a17c75f1273d4bf79c88ac2a0011000000000017a914d47108f1235adb0a88f74bd4bc7ecf83cbf9838387024830450221009a0e5d8a2b35924afe2ebbecc355233d1ffe0aef36aa08104222598b377abc480220230651009d98b74bf5a8b3475ff90f7d952a82aa848533bf9e7223c11d6c264a0121025337d91b22001a2a0c7e24c9169c89063473d2da1e0727e2eefa4928ad07c6a20247304402204b1a4ea9db1319a635b25635bcc8b3038abc439fe7aab0af034d2c591842cb7c022020ecd1de7944144c770c2bbbf8fba30f29faa26b0fe281217480feade33469370121038bc2021420e4ad4bc9a49db1f7d627fc1bc3b8a5178b95a82f6456de7ea7a6df0247304402201d38621c9becb31aca519b5fc54c3b9d0bc6dec8703288aa1e68f4da0b1e30fc02203cad619fee0407682331bc3c1658f6b37763a51d6a05197aa9ce6cf7b5ff426c01210224be6f93ddca2d0c47124ed519db611bff4fa0513af772d194035b114c8b896002473044022024d369b144b1a4df604fe61c2c699f203e619192f691491a0187bffbb01fdb380220651925c312303420a773956b8d384f2e19a3f8c21e6fe0a5fa8ffab05fde97870121038cc6fa0d80931ca49c812b3bc3aaa3954cf9f5131c99c657143442975380daa30f490800", "vin": [{"txinwitness": ["30450221009a0e5d8a2b35924afe2ebbecc355233d1ffe0aef36aa08104222598b377abc480220230651009d98b74bf5a8b3475ff90f7d952a82aa848533bf9e7223c11d6c264a01", "025337d91b22001a2a0c7e24c9169c89063473d2da1e0727e2eefa4928ad07c6a2"], "sequence": 4294967293, "scriptSig": {"hex": "160014d949118f73760cf65c3baf69986a505f622cdda1", "asm": "0014d949118f73760cf65c3baf69986a505f622cdda1"}, "vout": 3, "txid": "8359b22b17eed896def5f9afa4f0b9f32d19e82b1a82c1f0d21582c84b5a9a0f"}, {"txinwitness": ["304402204b1a4ea9db1319a635b25635bcc8b3038abc439fe7aab0af034d2c591842cb7c022020ecd1de7944144c770c2bbbf8fba30f29faa26b0fe281217480feade334693701", "038bc2021420e4ad4bc9a49db1f7d627fc1bc3b8a5178b95a82f6456de7ea7a6df"], "sequence": 4294967293, "scriptSig": {"hex": "160014aa44b7423779d44bfb30156db27cc8bc9a9988c3", "asm": "0014aa44b7423779d44bfb30156db27cc8bc9a9988c3"}, "vout": 1, "txid": "c1569c7ca86660c45fb06e74b2a4e2a650f3c4e58044fe3a2d0ab2d21339a064"}, {"txinwitness": ["304402201d38621c9becb31aca519b5fc54c3b9d0bc6dec8703288aa1e68f4da0b1e30fc02203cad619fee0407682331bc3c1658f6b37763a51d6a05197aa9ce6cf7b5ff426c01", "0224be6f93ddca2d0c47124ed519db611bff4fa0513af772d194035b114c8b8960"], "sequence": 4294967293, "scriptSig": {"hex": "1600143d8545a3f9d17a77c32e42c04e7b952a1f85f692", "asm": "00143d8545a3f9d17a77c32e42c04e7b952a1f85f692"}, "vout": 1, "txid": "476df1d34aeb973990cdfa0fcef90176fc7293255bb14eed40388b8662953ec5"}, {"txinwitness": ["3044022024d369b144b1a4df604fe61c2c699f203e619192f691491a0187bffbb01fdb380220651925c312303420a773956b8d384f2e19a3f8c21e6fe0a5fa8ffab05fde978701", "038cc6fa0d80931ca49c812b3bc3aaa3954cf9f5131c99c657143442975380daa3"], "sequence": 4294967293, "scriptSig": {"hex": "1600140cef83c3ddd384c62f8c31b052ebf59527b22f0e", "asm": "00140cef83c3ddd384c62f8c31b052ebf59527b22f0e"}, "vout": 0, "txid": "918645eefdf48010b5dff088a9371c6a510d3d721129c26959290e7a4ecde9cc"}], "txid": "fade8e9097b92e780ecb816f552310ad985727ad301bfd8cee6bec8e8bded186", "blocktime": 1537871767, "version": 2, "confirmations": 11495, "time": 1537871767, "locktime": 542991, "vsize": 440, "size": 763}