{"hash": "1f42e22d9ea3b32f8af757f3551760b069a2ba7374225b0b851398463af87743", "blockhash": "0000000000000000001f0ddff1eddb255c1121bcd4da4f1bc9a0da00cae72433", "vout": [{"scriptPubKey": {"reqSigs": 1, "hex": "a914905b83d35844b3fb097b8eac9f1107ecca49982b87", "addresses": ["3ErJrjhpjgAM2RMmjamhCycfmcJ8zYgvw4"], "asm": "OP_HASH160 905b83d35844b3fb097b8eac9f1107ecca49982b OP_EQUAL", "type": "scripthash"}, "value": 0.00999012, "n": 0}, {"scriptPubKey": {"reqSigs": 1, "hex": "76a914f0cbd95646405f72339a71f6cb4454fb5624d06588ac", "addresses": ["1NxDNiRfiRAdvrDGu9gftPdLmdAN7t1awn"], "asm": "OP_DUP OP_HASH160 f0cbd95646405f72339a71f6cb4454fb5624d065 OP_EQUALVERIFY OP_CHECKSIG", "type": "pubkeyhash"}, "value": 0.0051316, "n": 1}], "hex": "0200000000010220cae9edf01d84bb6f5bd6b2599b5ba390f7aa9abf1755ee41577328391a208809000000171600147a7c48a7cd5a978af7ef71eab7069024595413e5feffffff7fcc7da7e393e84d98c4fee48516d6902142487e6f6dd5ead0fa4bda627087a20000000017160014b73dd2bd1960fb6af5af3797abac69f560fa0e4bfeffffff02643e0f000000000017a914905b83d35844b3fb097b8eac9f1107ecca49982b8788d40700000000001976a914f0cbd95646405f72339a71f6cb4454fb5624d06588ac02483045022100a9a4b0bb77b07aa6688eb90a83f09c05b2efb8783a9702a1246407a76ccdd879022047c5ab6650721e0439ce9bb9877c0cdb147e07b7e5b3bb21ba550deba519a7ac0121036877f69faf3e71a587670e996bfa949ba5786d480049b295368f900cda93e1680247304402206addba47a5bb73b426f9d33da973ecec820567b6c3fe371058fc1c7a6e27e42c02207003a177b6392c5479c535656bc5115a3277165d85b1f708c101448fe71636b201210201e0e4233f15018fe8225a994dcd6e87a6da92a1be65174d2d252c8d0b9d102611490800", "vin": [{"txinwitness": ["3045022100a9a4b0bb77b07aa6688eb90a83f09c05b2efb8783a9702a1246407a76ccdd879022047c5ab6650721e0439ce9bb9877c0cdb147e07b7e5b3bb21ba550deba519a7ac01", "036877f69faf3e71a587670e996bfa949ba5786d480049b295368f900cda93e168"], "sequence": 4294967294, "scriptSig": {"hex": "1600147a7c48a7cd5a978af7ef71eab7069024595413e5", "asm": "00147a7c48a7cd5a978af7ef71eab7069024595413e5"}, "vout": 9, "txid": "88201a3928735741ee5517bf9aaaf790a35b9b59b2d65b6fbb841df0ede9ca20"}, {"txinwitness": ["304402206addba47a5bb73b426f9d33da973ecec820567b6c3fe371058fc1c7a6e27e42c02207003a177b6392c5479c535656bc5115a3277165d85b1f708c101448fe71636b201", "0201e0e4233f15018fe8225a994dcd6e87a6da92a1be65174d2d252c8d0b9d1026"], "sequence": 4294967294, "scriptSig": {"hex": "160014b73dd2bd1960fb6af5af3797abac69f560fa0e4b", "asm": "0014b73dd2bd1960fb6af5af3797abac69f560fa0e4b"}, "vout": 0, "txid": "a2877062da4bfad0ead56d6f7e48422190d61685e4fec4984de893e3a77dcc7f"}], "txid": "fadedbfad40d922321dab50e89d9b3a10bd1ba31559d09484d8f7ec04cdc0059", "blocktime": 1537872018, "version": 2, "confirmations": 11489, "time": 1537872018, "locktime": 542993, "vsize": 259, "size": 421}