{"hash": "d7446a544d7b5c51bb23d6cb0dabd6dcafbbcfc3f13e2d8be63d2fae9eba83b7", "blockhash": "0000000000000000001e0dab787dd257d1dbfcb92a98c2207d5e1078be1f4165", "vout": [{"scriptPubKey": {"reqSigs": 1, "hex": "a914457d0c45ed5401318915fe329f96580c75bcd05187", "addresses": ["382SMGEGjJH5yPL9quu9cf7mQuTEbaCtag"], "asm": "OP_HASH160 457d0c45ed5401318915fe329f96580c75bcd051 OP_EQUAL", "type": "scripthash"}, "value": 0.00139609, "n": 0}, {"scriptPubKey": {"reqSigs": 1, "hex": "001429e7a1dcaaa2218c8b6e7c1720ac937fe96d6084", "addresses": ["bc1q98n6rh925gscezmw0stjptyn0l5k6cyy2prpwv"], "asm": "0 29e7a1dcaaa2218c8b6e7c1720ac937fe96d6084", "type": "witness_v0_keyhash"}, "value": 1.417e-05, "n": 1}], "hex": "01000000000101f5c932438b42479e9809571c3090ec1906e3afa56ca1b10d27f36c6f310052590000000000ffffffff02592102000000000017a914457d0c45ed5401318915fe329f96580c75bcd05187890500000000000016001429e7a1dcaaa2218c8b6e7c1720ac937fe96d608402483045022100d8831a260e5c054a1093fd34f941f2edec3236ac7f21525a2c056fbbb8cd138f02207d79ccaa13bcee150d00aa4f6a6d484e49163e75684f54df68d0592b6bbe6d3a01210295a732d2f5c0efe1661a59e41c09c26802ac1adf9c8d7ad51fabafb78fa4ebc100000000", "vin": [{"txinwitness": ["3045022100d8831a260e5c054a1093fd34f941f2edec3236ac7f21525a2c056fbbb8cd138f02207d79ccaa13bcee150d00aa4f6a6d484e49163e75684f54df68d0592b6bbe6d3a01", "0295a732d2f5c0efe1661a59e41c09c26802ac1adf9c8d7ad51fabafb78fa4ebc1"], "sequence": 4294967295, "scriptSig": {"hex": "", "asm": ""}, "vout": 0, "txid": "595200316f6cf3270db1a16ca5afe30619ec90301c5709989e47428b4332c9f5"}], "txid": "fae5fdf36ff2a557f43167407b4e36cfb343549346b4bf4fa5714bcac39d9804", "blocktime": 1537872475, "version": 1, "confirmations": 11486, "time": 1537872475, "locktime": 0, "vsize": 142, "size": 224}