{"hash": "fae796d662f188e51fa240309a113550679d9668eab2daabf44da6d26833cf27", "blockhash": "0000000000000000001e0dab787dd257d1dbfcb92a98c2207d5e1078be1f4165", "vout": [{"scriptPubKey": {"reqSigs": 1, "hex": "a91498857cc3da3f9438af493ffe08ffa45c8be27d9087", "addresses": ["3FbUYZpGMSV69kNUcXpv48RdZhemGGV2ie"], "asm": "OP_HASH160 98857cc3da3f9438af493ffe08ffa45c8be27d90 OP_EQUAL", "type": "scripthash"}, "value": 0.00097312, "n": 0}, {"scriptPubKey": {"reqSigs": 1, "hex": "76a914d2ed184a1c73669e3252cbf26a1c8c3c29b885e188ac", "addresses": ["1LEGvvgRRqTZNrgJoxXPP3nWZcCbYtJubj"], "asm": "OP_DUP OP_HASH160 d2ed184a1c73669e3252cbf26a1c8c3c29b885e1 OP_EQUALVERIFY OP_CHECKSIG", "type": "pubkeyhash"}, "value": 0.28428423, "n": 1}], "hex": "02000000017d9b191cb36549b157d3d0b1f437c5b350c3d5dff095a363ad49767b04a42c5e010000006b483045022100b8999fb25835a3c4cc412f189c0834786a5211241ba2b6239167217cbd2478320220082d5a147dfb4ad90390d1ab74b120530f8ed6a53b9da0b3171dd69fd50db9ff012102d7f6ef95788231d1131282b62ee6e23d7663df32756dc18a03fbdb075c04cdd3ffffffff02207c01000000000017a91498857cc3da3f9438af493ffe08ffa45c8be27d908787c8b101000000001976a914d2ed184a1c73669e3252cbf26a1c8c3c29b885e188ac00000000", "vin": [{"sequence": 4294967295, "scriptSig": {"hex": "483045022100b8999fb25835a3c4cc412f189c0834786a5211241ba2b6239167217cbd2478320220082d5a147dfb4ad90390d1ab74b120530f8ed6a53b9da0b3171dd69fd50db9ff012102d7f6ef95788231d1131282b62ee6e23d7663df32756dc18a03fbdb075c04cdd3", "asm": "3045022100b8999fb25835a3c4cc412f189c0834786a5211241ba2b6239167217cbd2478320220082d5a147dfb4ad90390d1ab74b120530f8ed6a53b9da0b3171dd69fd50db9ff[ALL] 02d7f6ef95788231d1131282b62ee6e23d7663df32756dc18a03fbdb075c04cdd3"}, "vout": 1, "txid": "5e2ca4047b7649ad63a395f0dfd5c350b3c537f4b1d0d357b14965b31c199b7d"}], "txid": "fae796d662f188e51fa240309a113550679d9668eab2daabf44da6d26833cf27", "blocktime": 1537872475, "version": 2, "confirmations": 11486, "time": 1537872475, "locktime": 0, "vsize": 224, "size": 224}