{"hash": "90074f5fc56fb8a7de14c604a6633eef120524ff32df938264f7f2f751f88949", "blockhash": "0000000000000000001cda96e906b7601b7a6fb1a3b62bca570a9e5d8f4b3de1", "vout": [{"scriptPubKey": {"reqSigs": 1, "hex": "76a9146eb6a32c2a836bcebe266de2aaf8afcbaaf0e48588ac", "addresses": ["1B6Q7yFbnofLoox91cSyQXdXz4CwtvagF4"], "asm": "OP_DUP OP_HASH160 6eb6a32c2a836bcebe266de2aaf8afcbaaf0e485 OP_EQUALVERIFY OP_CHECKSIG", "type": "pubkeyhash"}, "value": 0.00085681, "n": 0}, {"scriptPubKey": {"reqSigs": 1, "hex": "00140aed1ae5566171c40999b30f68726f4df17efe96", "addresses": ["bc1qptk34e2kv9cugzvekv8ksun0fhchal5kdvv5ht"], "asm": "0 0aed1ae5566171c40999b30f68726f4df17efe96", "type": "witness_v0_keyhash"}, "value": 0.00176878, "n": 1}], "hex": "01000000000101ac4a8b46c366c29b71401b8c832326a2406fcd72bf0a4a33bfc729444a62615a0100000000ffffffff02b14e0100000000001976a9146eb6a32c2a836bcebe266de2aaf8afcbaaf0e48588aceeb20200000000001600140aed1ae5566171c40999b30f68726f4df17efe960247304402206e9c31d06a5ed5829a96f2894952f805c355ae3506e0b7edcae6d109ffabfe1002200ff3b6a2efad9a4fc8c780f491a7aa6c1690ae120bfc98cac4869b8629d68c79012103b4b58e239a679352e4008ee48ce0ca0503037453aede249360bd1ed9760e82d100000000", "vin": [{"txinwitness": ["304402206e9c31d06a5ed5829a96f2894952f805c355ae3506e0b7edcae6d109ffabfe1002200ff3b6a2efad9a4fc8c780f491a7aa6c1690ae120bfc98cac4869b8629d68c7901", "03b4b58e239a679352e4008ee48ce0ca0503037453aede249360bd1ed9760e82d1"], "sequence": 4294967295, "scriptSig": {"hex": "", "asm": ""}, "vout": 1, "txid": "5a61624a4429c7bf334a0abf72cd6f40a22623838c1b40719bc266c3468b4aac"}], "txid": "fae8a2125d56d4ec287eea9d488c3bd3b903b139459c5c30b226518a1a65d9bc", "blocktime": 1537873282, "version": 1, "confirmations": 11485, "time": 1537873282, "locktime": 0, "vsize": 144, "size": 225}