{"hash": "faef37d9aecc8c8c8c780fe8615df0a88135d465b4f0e5cfd0f34c00788d8ebf", "blockhash": "0000000000000000001cda96e906b7601b7a6fb1a3b62bca570a9e5d8f4b3de1", "vout": [{"scriptPubKey": {"reqSigs": 1, "hex": "a91403b3eb30fc1b972e81516592565bb7643da9ad0587", "addresses": ["322bV6DiUL6zMfxBQNgDb3AGnb7ueeCMie"], "asm": "OP_HASH160 03b3eb30fc1b972e81516592565bb7643da9ad05 OP_EQUAL", "type": "scripthash"}, "value": 0.27575212, "n": 0}, {"scriptPubKey": {"reqSigs": 1, "hex": "76a9141cf99fb4475d5d2833ddae726f0bb35f5b29955288ac", "addresses": ["13eCxYKgkatot8FthA9FxprKKCtpvfYrE7"], "asm": "OP_DUP OP_HASH160 1cf99fb4475d5d2833ddae726f0bb35f5b299552 OP_EQUALVERIFY OP_CHECKSIG", "type": "pubkeyhash"}, "value": 0.0086577, "n": 1}], "hex": "02000000047f803f7e022f5381cb54a48f56fb174bb943e9639b68b1fe02838007b741ee9eb20300006a47304402204bfa14c0232b3c4a50e41d9ebb2d7226e10e226ea46cbcede21d3e2ac95d9e56022020c70584c555d7a6b71ce1412fc8daca1fa9d06385a380c065bbae2ea385deae012102274071efdb52d7055dbc06b83dc1ccf88555a40553ef07e8e7226e1c9db9ee0efeffffff503e7f9222e9a1bef3d7b1b115a71aabf256f13008afa3480ed7106be9c30b16000000006a473044022007f70eedcd93e066e43c07448906394d4f21326a11ef85c5f3e7bf140ccb173602206f50eab94d124b31ee0d23dc92158b869e3f024dec409a1419483c1a9bb1932e01210323c43f43650d2013675663f8eaea1a592936bb055e7c475c886e5e7381947f16feffffffe2f82821b853fe1d04d0c56fc2fd18d889feeb909fe6b7de85bbf83776c1359c000000006b483045022100a8d957879bda3f604f11d6f3a462a811a44b4117845e068463865828aadfe66102205e79c6d492b8aa7c053d5f779288e5b2d67d6c581faff2b88cf97da9a24479d501210388c24f2a6af310737e58dc3b891acea96e346e42f2cdfe2222f73ef46075e321feffffff73c14f97d25de69d811e1ea441ffa28baefb4e7efa5bdc7b918a47f54c8320a2010000006a473044022019364da6f74a1b68cad406f92ed7faa162b35b20821f5711ae70edf5487162f002201636f0dbce9f467691707d0b3352cdb74374d9b871c815081d7e159e4ec0ee14012102060723ddcc2072d6e0227407ebda4b8af8ca5deac984f26b822c6606f351d9d8feffffff02acc3a4010000000017a91403b3eb30fc1b972e81516592565bb7643da9ad0587ea350d00000000001976a9141cf99fb4475d5d2833ddae726f0bb35f5b29955288ac13490800", "vin": [{"sequence": 4294967294, "scriptSig": {"hex": "47304402204bfa14c0232b3c4a50e41d9ebb2d7226e10e226ea46cbcede21d3e2ac95d9e56022020c70584c555d7a6b71ce1412fc8daca1fa9d06385a380c065bbae2ea385deae012102274071efdb52d7055dbc06b83dc1ccf88555a40553ef07e8e7226e1c9db9ee0e", "asm": "304402204bfa14c0232b3c4a50e41d9ebb2d7226e10e226ea46cbcede21d3e2ac95d9e56022020c70584c555d7a6b71ce1412fc8daca1fa9d06385a380c065bbae2ea385deae[ALL] 02274071efdb52d7055dbc06b83dc1ccf88555a40553ef07e8e7226e1c9db9ee0e"}, "vout": 946, "txid": "9eee41b707808302feb1689b63e943b94b17fb568fa454cb81532f027e3f807f"}, {"sequence": 4294967294, "scriptSig": {"hex": "473044022007f70eedcd93e066e43c07448906394d4f21326a11ef85c5f3e7bf140ccb173602206f50eab94d124b31ee0d23dc92158b869e3f024dec409a1419483c1a9bb1932e01210323c43f43650d2013675663f8eaea1a592936bb055e7c475c886e5e7381947f16", "asm": "3044022007f70eedcd93e066e43c07448906394d4f21326a11ef85c5f3e7bf140ccb173602206f50eab94d124b31ee0d23dc92158b869e3f024dec409a1419483c1a9bb1932e[ALL] 0323c43f43650d2013675663f8eaea1a592936bb055e7c475c886e5e7381947f16"}, "vout": 0, "txid": "160bc3e96b10d70e48a3af0830f156f2ab1aa715b1b1d7f3bea1e922927f3e50"}, {"sequence": 4294967294, "scriptSig": {"hex": "483045022100a8d957879bda3f604f11d6f3a462a811a44b4117845e068463865828aadfe66102205e79c6d492b8aa7c053d5f779288e5b2d67d6c581faff2b88cf97da9a24479d501210388c24f2a6af310737e58dc3b891acea96e346e42f2cdfe2222f73ef46075e321", "asm": "3045022100a8d957879bda3f604f11d6f3a462a811a44b4117845e068463865828aadfe66102205e79c6d492b8aa7c053d5f779288e5b2d67d6c581faff2b88cf97da9a24479d5[ALL] 0388c24f2a6af310737e58dc3b891acea96e346e42f2cdfe2222f73ef46075e321"}, "vout": 0, "txid": "9c35c17637f8bb85deb7e69f90ebfe89d818fdc26fc5d0041dfe53b82128f8e2"}, {"sequence": 4294967294, "scriptSig": {"hex": "473044022019364da6f74a1b68cad406f92ed7faa162b35b20821f5711ae70edf5487162f002201636f0dbce9f467691707d0b3352cdb74374d9b871c815081d7e159e4ec0ee14012102060723ddcc2072d6e0227407ebda4b8af8ca5deac984f26b822c6606f351d9d8", "asm": "3044022019364da6f74a1b68cad406f92ed7faa162b35b20821f5711ae70edf5487162f002201636f0dbce9f467691707d0b3352cdb74374d9b871c815081d7e159e4ec0ee14[ALL] 02060723ddcc2072d6e0227407ebda4b8af8ca5deac984f26b822c6606f351d9d8"}, "vout": 1, "txid": "a220834cf5478a917bdc5bfa7e4efbae8ba2ff41a41e1e819de65dd2974fc173"}], "txid": "faef37d9aecc8c8c8c780fe8615df0a88135d465b4f0e5cfd0f34c00788d8ebf", "blocktime": 1537873282, "version": 2, "confirmations": 11480, "time": 1537873282, "locktime": 542995, "vsize": 665, "size": 665}