{"hash": "faf22617fc0968c41a60e4e966ac28a64489368d3ae4ce13634e5aca5a3ca2c8", "blockhash": "0000000000000000000baef3f32e3676a92c3b2e5da21b426e4f302fc371ce76", "vout": [{"scriptPubKey": {"reqSigs": 1, "hex": "76a914df6b3869a6d2da731691d234441e4cbb3d125f4688ac", "addresses": ["1MNL8acbchcDHef5RdataP1g9EoZ971cQj"], "asm": "OP_DUP OP_HASH160 df6b3869a6d2da731691d234441e4cbb3d125f46 OP_EQUALVERIFY OP_CHECKSIG", "type": "pubkeyhash"}, "value": 0.00627206, "n": 0}, {"scriptPubKey": {"type": "nulldata", "hex": "6a4c50000078260001c855b8a7f15b306724ff40f1019d6ddc0f1b8ff117702940d64fa54d8eb22ffc34be4671dbad33a0fa993d9cfb045baa1e6b0613bc4b0959053a1d100759d4ba30d2c37bb011d97e02cf", "asm": "OP_RETURN 000078260001c855b8a7f15b306724ff40f1019d6ddc0f1b8ff117702940d64fa54d8eb22ffc34be4671dbad33a0fa993d9cfb045baa1e6b0613bc4b0959053a1d100759d4ba30d2c37bb011d97e02cf"}, "value": 0.0, "n": 1}], "hex": "0100000001b2dc7ff9737d5f8188ffb4bb8b1e8ce1974f278fe1e993ac782156524661d502010000006b483045022100a589b186be99efc46c6346177359886a1a3048de265d728ab278de1dbc8382cf02204af27bd2ae8a86610570c64ff33aa5643094cdaf98516950668e5242bdaae6d7012103eada0d8f0b3221e1278f8c8f345df683fbf761594e1b15f1912b0af177620c67ffffffff0206920900000000001976a914df6b3869a6d2da731691d234441e4cbb3d125f4688ac0000000000000000536a4c50000078260001c855b8a7f15b306724ff40f1019d6ddc0f1b8ff117702940d64fa54d8eb22ffc34be4671dbad33a0fa993d9cfb045baa1e6b0613bc4b0959053a1d100759d4ba30d2c37bb011d97e02cf00000000", "vin": [{"sequence": 4294967295, "scriptSig": {"hex": "483045022100a589b186be99efc46c6346177359886a1a3048de265d728ab278de1dbc8382cf02204af27bd2ae8a86610570c64ff33aa5643094cdaf98516950668e5242bdaae6d7012103eada0d8f0b3221e1278f8c8f345df683fbf761594e1b15f1912b0af177620c67", "asm": "3045022100a589b186be99efc46c6346177359886a1a3048de265d728ab278de1dbc8382cf02204af27bd2ae8a86610570c64ff33aa5643094cdaf98516950668e5242bdaae6d7[ALL] 03eada0d8f0b3221e1278f8c8f345df683fbf761594e1b15f1912b0af177620c67"}, "vout": 1, "txid": "02d5614652562178ac93e9e18f274f97e18c1e8bbbb4ff88815f7d73f97fdcb2"}], "txid": "faf22617fc0968c41a60e4e966ac28a64489368d3ae4ce13634e5aca5a3ca2c8", "blocktime": 1537876114, "version": 1, "confirmations": 11462, "time": 1537876114, "locktime": 0, "vsize": 284, "size": 284}