{"hash": "1c136aa0767f5017f6c692835e1d10bd2fa7a774b20baea9d73a5c1c65c35bcd", "blockhash": "00000000000000000004ffacab907a6b429b9a5745fa0b75af4234bf69dd7176", "vout": [{"scriptPubKey": {"reqSigs": 1, "hex": "a914ca5b10cf1039983d3252c0d2bd6c81b1d3a37e4387", "addresses": ["3L8yWeSudv5PTZ4ZmsV3Jb6T9CsHi4nTGT"], "asm": "OP_HASH160 ca5b10cf1039983d3252c0d2bd6c81b1d3a37e43 OP_EQUAL", "type": "scripthash"}, "value": 0.0389, "n": 0}, {"scriptPubKey": {"reqSigs": 1, "hex": "a914874d5ce569defc4f8470449fb896b77eb6b1c34387", "addresses": ["3E2RphzvUZm7z8MdbgUYCeGapg8RBLu1V9"], "asm": "OP_HASH160 874d5ce569defc4f8470449fb896b77eb6b1c343 OP_EQUAL", "type": "scripthash"}, "value": 7.11248097, "n": 1}], "hex": "020000000001014723506e94951a3a62e140a4abd1a0a234d3618d152ca7015c381ef609a0d4730100000017160014e678ef820c8de1a4fbb668ce1b5057abc3f25d4cfeffffff02505b3b000000000017a914ca5b10cf1039983d3252c0d2bd6c81b1d3a37e4387e1c8642a0000000017a914874d5ce569defc4f8470449fb896b77eb6b1c3438702473044022066460bcb69d8f49075e68d5b6bc7921c9f349908bae85196a4fb695b7fe1e7ca02203e452b457219dc19e8fd8bfbf739f33e8b23a246ff1356d1cf20613eb3d9b56801210277356b9667cd289cf8722538a947b7a0cebd4f22e19cf423f5d867c1398bcf1916490800", "vin": [{"txinwitness": ["3044022066460bcb69d8f49075e68d5b6bc7921c9f349908bae85196a4fb695b7fe1e7ca02203e452b457219dc19e8fd8bfbf739f33e8b23a246ff1356d1cf20613eb3d9b56801", "0277356b9667cd289cf8722538a947b7a0cebd4f22e19cf423f5d867c1398bcf19"], "sequence": 4294967294, "scriptSig": {"hex": "160014e678ef820c8de1a4fbb668ce1b5057abc3f25d4c", "asm": "0014e678ef820c8de1a4fbb668ce1b5057abc3f25d4c"}, "vout": 1, "txid": "73d4a009f61e385c01a72c158d61d334a2a0d1aba440e1623a1a95946e502347"}], "txid": "faf5eb443eda3c71c83c8b8cad107373e5ca56dfd5eedcb875746e1502fada38", "blocktime": 1537875543, "version": 2, "confirmations": 11464, "time": 1537875543, "locktime": 542998, "vsize": 166, "size": 247}