{"hash": "fafbd27015d5d9c3334f08743c331fe4b197f8720850d3f5c3c90697b24a4c91", "blockhash": "000000000000000000022b45ed06c6f4ccd3cf7fb5ba4856ebd2e58215665228", "vout": [{"scriptPubKey": {"reqSigs": 1, "hex": "76a914e3bc05a7ece6eaf3fc642478d0d9849304322c6b88ac", "addresses": ["1Mm9dYsqcFYJkAnNJqtLpKgZGcZsnqqecG"], "asm": "OP_DUP OP_HASH160 e3bc05a7ece6eaf3fc642478d0d9849304322c6b OP_EQUALVERIFY OP_CHECKSIG", "type": "pubkeyhash"}, "value": 0.29974403, "n": 0}, {"scriptPubKey": {"reqSigs": 1, "hex": "a914964370bb6ca6d13db7802f98e779ce3338e1d86087", "addresses": ["3FPY5A3HcZA6PK5PMYwvKcE5WwZ7pmoCau"], "asm": "OP_HASH160 964370bb6ca6d13db7802f98e779ce3338e1d860 OP_EQUAL", "type": "scripthash"}, "value": 0.0995, "n": 1}], "hex": "020000000109e7cda318b062badb95d63ad13d12df3a8d627a2a81341e71bc1d029d63456a010000006b483045022100b7426e22ccc5d49f5408f91a1d50c1ad2d2b3ab310e289798d8c4e15bce657af022039c06c6cc3670b17aa2af03a223cfba34f33db475130004b90ab86ba096134bb0121023defa68c43a82f7488beaf9ff73fa581df6867b29fceee15a4c66efc66a55865feffffff02835fc901000000001976a914e3bc05a7ece6eaf3fc642478d0d9849304322c6b88ac30d397000000000017a914964370bb6ca6d13db7802f98e779ce3338e1d860870a490800", "vin": [{"sequence": 4294967294, "scriptSig": {"hex": "483045022100b7426e22ccc5d49f5408f91a1d50c1ad2d2b3ab310e289798d8c4e15bce657af022039c06c6cc3670b17aa2af03a223cfba34f33db475130004b90ab86ba096134bb0121023defa68c43a82f7488beaf9ff73fa581df6867b29fceee15a4c66efc66a55865", "asm": "3045022100b7426e22ccc5d49f5408f91a1d50c1ad2d2b3ab310e289798d8c4e15bce657af022039c06c6cc3670b17aa2af03a223cfba34f33db475130004b90ab86ba096134bb[ALL] 023defa68c43a82f7488beaf9ff73fa581df6867b29fceee15a4c66efc66a55865"}, "vout": 1, "txid": "6a45639d021dbc711e34812a7a628d3adf123dd13ad695dbba62b018a3cde709"}], "txid": "fafbd27015d5d9c3334f08743c331fe4b197f8720850d3f5c3c90697b24a4c91", "blocktime": 1537869901, "version": 2, "confirmations": 11522, "time": 1537869901, "locktime": 542986, "vsize": 224, "size": 224}