{"hash": "fafbcabb9edfbb530ee45e850efbb772f1c2af2dacfdd0c45c608a6727e27732", "blockhash": "0000000000000000000baef3f32e3676a92c3b2e5da21b426e4f302fc371ce76", "vout": [{"scriptPubKey": {"reqSigs": 1, "hex": "76a9144a478de907c9d9ae892014cc3c10cb6498d31bec88ac", "addresses": ["17mkisvQpYbd6RiHDA5e3dPDgwC2tR8caW"], "asm": "OP_DUP OP_HASH160 4a478de907c9d9ae892014cc3c10cb6498d31bec OP_EQUALVERIFY OP_CHECKSIG", "type": "pubkeyhash"}, "value": 0.01972417, "n": 0}, {"scriptPubKey": {"reqSigs": 1, "hex": "76a914d46b625b36bbf4a1b3dada621fc5617ffa1a658f88ac", "addresses": ["1LNAtrVjKtZifAmmc96Fdak3fiKkZ5Svtw"], "asm": "OP_DUP OP_HASH160 d46b625b36bbf4a1b3dada621fc5617ffa1a658f OP_EQUALVERIFY OP_CHECKSIG", "type": "pubkeyhash"}, "value": 0.01530601, "n": 1}, {"scriptPubKey": {"reqSigs": 1, "hex": "76a914f6c75eabb8b79397de2c355f63c26e389f7e70e388ac", "addresses": ["1PVr4eYmvQ4pGptQYPgKoSwYbf53SXeVce"], "asm": "OP_DUP OP_HASH160 f6c75eabb8b79397de2c355f63c26e389f7e70e3 OP_EQUALVERIFY OP_CHECKSIG", "type": "pubkeyhash"}, "value": 0.02004184, "n": 2}, {"scriptPubKey": {"reqSigs": 1, "hex": "76a91419bc8b32a204b4b3040d1a05dc60722528ab136b88ac", "addresses": ["13M5m3awYFhp5jMMCBGch5auYriJXexttv"], "asm": "OP_DUP OP_HASH160 19bc8b32a204b4b3040d1a05dc60722528ab136b OP_EQUALVERIFY OP_CHECKSIG", "type": "pubkeyhash"}, "value": 0.00997162, "n": 3}, {"scriptPubKey": {"reqSigs": 1, "hex": "76a91459dc61aab16d3a357b1baa3c9b8766321aee5a0588ac", "addresses": ["19C99T2WFsDasXbTrpk9SXqnYbVKqzmkTb"], "asm": "OP_DUP OP_HASH160 59dc61aab16d3a357b1baa3c9b8766321aee5a05 OP_EQUALVERIFY OP_CHECKSIG", "type": "pubkeyhash"}, "value": 0.00895808, "n": 4}, {"scriptPubKey": {"reqSigs": 1, "hex": "76a914a92ca1e48f3e7263a928ee6745efb3cdcd2d63f088ac", "addresses": ["1GRWfXt63SjNWyoyQa3jhuaGrYzkwvTJFj"], "asm": "OP_DUP OP_HASH160 a92ca1e48f3e7263a928ee6745efb3cdcd2d63f0 OP_EQUALVERIFY OP_CHECKSIG", "type": "pubkeyhash"}, "value": 0.01773986, "n": 5}], "hex": "0200000003a9fc320ba9a709f140b1b6b6ea76d10f70a475f7ea6c8c7b7bd21a9d73b512d5000000006b4830450221009f236797cd1f7f8526a00b5019c83c2ce709583a59470595b04ba980911e86270220737ecb8d19c74f8df504db621c79d26dd9fd478f94bd7f75645a33859b8f9594012102e23927ae934897322a46d160dedcc179abb0036127f56b0c92fbb9240f778deafeffffff8d845e36c7faed0a3685818143db6674e010988c8264aca8009747d185e69114000000006b483045022100bd3d37f758be74bb1ff25ea3dd91a42b0823a724471ed8c05809dbf4412d9dfc02206f2b875ca75d936ff75de4c3f5ab76f0fbe257fd5780365d99deb5a2b58045fb012102f9cdaf3723f705f9a48693a5c3c042f1c378d67582903accbddbdc018f0e0e21fefffffff8cbaf3e036c757f17ee4a65a8b75552ae8a883f8e33bc411146feff1441852d000000006b483045022100e3436d63f1618257fad70c6f79f4c5ca4e1577d2bc39c72340520df9668d50b7022070635a638e8d124875b8c3d30f81bb6865350a29b1af96b91b6d57b98eef59c5012102631b02512ba698bbbca590401c88a3bbedf86a2e5c7357d4a5ad4e05cf5fe469feffffff06c1181e00000000001976a9144a478de907c9d9ae892014cc3c10cb6498d31bec88ace95a1700000000001976a914d46b625b36bbf4a1b3dada621fc5617ffa1a658f88acd8941e00000000001976a914f6c75eabb8b79397de2c355f63c26e389f7e70e388ac2a370f00000000001976a91419bc8b32a204b4b3040d1a05dc60722528ab136b88ac40ab0d00000000001976a91459dc61aab16d3a357b1baa3c9b8766321aee5a0588aca2111b00000000001976a914a92ca1e48f3e7263a928ee6745efb3cdcd2d63f088ac00000000", "vin": [{"sequence": 4294967294, "scriptSig": {"hex": "4830450221009f236797cd1f7f8526a00b5019c83c2ce709583a59470595b04ba980911e86270220737ecb8d19c74f8df504db621c79d26dd9fd478f94bd7f75645a33859b8f9594012102e23927ae934897322a46d160dedcc179abb0036127f56b0c92fbb9240f778dea", "asm": "30450221009f236797cd1f7f8526a00b5019c83c2ce709583a59470595b04ba980911e86270220737ecb8d19c74f8df504db621c79d26dd9fd478f94bd7f75645a33859b8f9594[ALL] 02e23927ae934897322a46d160dedcc179abb0036127f56b0c92fbb9240f778dea"}, "vout": 0, "txid": "d512b5739d1ad27b7b8c6ceaf775a4700fd176eab6b6b140f109a7a90b32fca9"}, {"sequence": 4294967294, "scriptSig": {"hex": "483045022100bd3d37f758be74bb1ff25ea3dd91a42b0823a724471ed8c05809dbf4412d9dfc02206f2b875ca75d936ff75de4c3f5ab76f0fbe257fd5780365d99deb5a2b58045fb012102f9cdaf3723f705f9a48693a5c3c042f1c378d67582903accbddbdc018f0e0e21", "asm": "3045022100bd3d37f758be74bb1ff25ea3dd91a42b0823a724471ed8c05809dbf4412d9dfc02206f2b875ca75d936ff75de4c3f5ab76f0fbe257fd5780365d99deb5a2b58045fb[ALL] 02f9cdaf3723f705f9a48693a5c3c042f1c378d67582903accbddbdc018f0e0e21"}, "vout": 0, "txid": "1491e685d1479700a8ac64828c9810e07466db43818185360aedfac7365e848d"}, {"sequence": 4294967294, "scriptSig": {"hex": "483045022100e3436d63f1618257fad70c6f79f4c5ca4e1577d2bc39c72340520df9668d50b7022070635a638e8d124875b8c3d30f81bb6865350a29b1af96b91b6d57b98eef59c5012102631b02512ba698bbbca590401c88a3bbedf86a2e5c7357d4a5ad4e05cf5fe469", "asm": "3045022100e3436d63f1618257fad70c6f79f4c5ca4e1577d2bc39c72340520df9668d50b7022070635a638e8d124875b8c3d30f81bb6865350a29b1af96b91b6d57b98eef59c5[ALL] 02631b02512ba698bbbca590401c88a3bbedf86a2e5c7357d4a5ad4e05cf5fe469"}, "vout": 0, "txid": "2d854114fffe461141bc338e3f888aae5255b7a8654aee177f756c033eafcbf8"}], "txid": "fafbcabb9edfbb530ee45e850efbb772f1c2af2dacfdd0c45c608a6727e27732", "blocktime": 1537876114, "version": 2, "confirmations": 11460, "time": 1537876114, "locktime": 0, "vsize": 658, "size": 658}