{"hash": "fb017d1f3ffdcde5b6d3f24c8895a1738ce1f4d05e6d84a7b286ee9b8618a017", "blockhash": "00000000000000000018f53835495a110e01622372bf6ae95dc86f2b0ab887b0", "vout": [{"scriptPubKey": {"reqSigs": 1, "hex": "76a914d5bb0584c9cd3cd3365b3c1d8d68a4fe54db83a388ac", "addresses": ["1LV6yM3FyHBiWDUdU7VTou2jRvLBXTk3Bb"], "asm": "OP_DUP OP_HASH160 d5bb0584c9cd3cd3365b3c1d8d68a4fe54db83a3 OP_EQUALVERIFY OP_CHECKSIG", "type": "pubkeyhash"}, "value": 0.01208222, "n": 0}, {"scriptPubKey": {"reqSigs": 1, "hex": "76a9149b489fac3a635cc4e7445d9d09ba0996d86a375388ac", "addresses": ["1FA4jifaPEA18M5ae9ww85RYGf8iAhNQsZ"], "asm": "OP_DUP OP_HASH160 9b489fac3a635cc4e7445d9d09ba0996d86a3753 OP_EQUALVERIFY OP_CHECKSIG", "type": "pubkeyhash"}, "value": 0.02799441, "n": 1}], "hex": "0100000001b7d96158872ac7e393dd6c39435a5a48a07b2ddb3a749907e2b62126d8f6850d0e0000006a47304402200e78228623c7984e79671cb9a02a4636f8fb89397da6f3fc440f979aab01b5de0220288a941aafaea1dd8ae346a60a663c47b4fdc135866723f9d18f516d55244ca2012103988c1e6c6f2dac08694708efd12063d8d24934cfa3ce69cc42db96d367cefd94ffffffff029e6f1200000000001976a914d5bb0584c9cd3cd3365b3c1d8d68a4fe54db83a388ac51b72a00000000001976a9149b489fac3a635cc4e7445d9d09ba0996d86a375388ac00000000", "vin": [{"sequence": 4294967295, "scriptSig": {"hex": "47304402200e78228623c7984e79671cb9a02a4636f8fb89397da6f3fc440f979aab01b5de0220288a941aafaea1dd8ae346a60a663c47b4fdc135866723f9d18f516d55244ca2012103988c1e6c6f2dac08694708efd12063d8d24934cfa3ce69cc42db96d367cefd94", "asm": "304402200e78228623c7984e79671cb9a02a4636f8fb89397da6f3fc440f979aab01b5de0220288a941aafaea1dd8ae346a60a663c47b4fdc135866723f9d18f516d55244ca2[ALL] 03988c1e6c6f2dac08694708efd12063d8d24934cfa3ce69cc42db96d367cefd94"}, "vout": 14, "txid": "0d85f6d82621b6e20799743adb2d7ba0485a5a43396cdd93e3c72a875861d9b7"}], "txid": "fb017d1f3ffdcde5b6d3f24c8895a1738ce1f4d05e6d84a7b286ee9b8618a017", "blocktime": 1537870928, "version": 1, "confirmations": 11512, "time": 1537870928, "locktime": 0, "vsize": 225, "size": 225}