{"hash": "fb02a6dcc6f3aadff247015b70f61c06bc3c0de7fd1d418eed21b6080706c317", "blockhash": "00000000000000000017f5eb5941039fbcee6240d03bc1f2f8e35350df66a1d8", "vout": [{"scriptPubKey": {"reqSigs": 1, "hex": "76a9148b5f190f6d9ff31921c3128d4d4d1703f6ab4ffb88ac", "addresses": ["1DhvrBYWEYRWj2baWYtLMJ9FvEfcqQMomB"], "asm": "OP_DUP OP_HASH160 8b5f190f6d9ff31921c3128d4d4d1703f6ab4ffb OP_EQUALVERIFY OP_CHECKSIG", "type": "pubkeyhash"}, "value": 0.0014186, "n": 0}, {"scriptPubKey": {"reqSigs": 1, "hex": "76a9148765f75f2bf8ba3e4035ae1430645ddd0bcebad388ac", "addresses": ["1DLvNe6Ta7YvZiWmypDefN7cKERKZBnPUt"], "asm": "OP_DUP OP_HASH160 8765f75f2bf8ba3e4035ae1430645ddd0bcebad3 OP_EQUALVERIFY OP_CHECKSIG", "type": "pubkeyhash"}, "value": 2.51912938, "n": 1}], "hex": "0100000001a7fd36bfc0d364c3820f81a38542f70d4ef1ba171d124e203e940a758d63ef77010000006b483045022100d4d9587f68b44d66fb6e593d7ee221067993b949a70c6914033a40de652d76ff0220600b1c44dd99e76afc5f01671a346bbdd094f0a0bef5e7954156415897bcd5480121022aa7708c7584381ee44f7099c8c01f441ce516ef7fdb01224dffc2012999b002ffffffff02242a0200000000001976a9148b5f190f6d9ff31921c3128d4d4d1703f6ab4ffb88aceae2030f000000001976a9148765f75f2bf8ba3e4035ae1430645ddd0bcebad388ac00000000", "vin": [{"sequence": 4294967295, "scriptSig": {"hex": "483045022100d4d9587f68b44d66fb6e593d7ee221067993b949a70c6914033a40de652d76ff0220600b1c44dd99e76afc5f01671a346bbdd094f0a0bef5e7954156415897bcd5480121022aa7708c7584381ee44f7099c8c01f441ce516ef7fdb01224dffc2012999b002", "asm": "3045022100d4d9587f68b44d66fb6e593d7ee221067993b949a70c6914033a40de652d76ff0220600b1c44dd99e76afc5f01671a346bbdd094f0a0bef5e7954156415897bcd548[ALL] 022aa7708c7584381ee44f7099c8c01f441ce516ef7fdb01224dffc2012999b002"}, "vout": 1, "txid": "77ef638d750a943e204e121d17baf14e0df74285a3810f82c364d3c0bf36fda7"}], "txid": "fb02a6dcc6f3aadff247015b70f61c06bc3c0de7fd1d418eed21b6080706c317", "blocktime": 1537874412, "version": 1, "confirmations": 11467, "time": 1537874412, "locktime": 0, "vsize": 226, "size": 226}