{"hash": "cd4a8725ff7dfb675d243fa21f5390599b4a99d392072010aec5de4dee2f35a3", "blockhash": "0000000000000000001cda96e906b7601b7a6fb1a3b62bca570a9e5d8f4b3de1", "vout": [{"scriptPubKey": {"reqSigs": 1, "hex": "a91497df329406daf4398a532108d9d6938e8f08b15387", "addresses": ["3FY3LYozdSJmZ1Yry7vCkLHJizSViP9mkj"], "asm": "OP_HASH160 97df329406daf4398a532108d9d6938e8f08b153 OP_EQUAL", "type": "scripthash"}, "value": 20.50912289, "n": 0}, {"scriptPubKey": {"reqSigs": 1, "hex": "76a914c53eeb9ba47060e5ef33a20425a4eea190d08c1588ac", "addresses": ["1JywVaDcAKArR9rVQV3EXvUtLvyxsvTtwH"], "asm": "OP_DUP OP_HASH160 c53eeb9ba47060e5ef33a20425a4eea190d08c15 OP_EQUALVERIFY OP_CHECKSIG", "type": "pubkeyhash"}, "value": 0.82096648, "n": 1}], "hex": "02000000000101fde211b3d95c262d1f24ffb0e38c8921addd49c91319a8e19104c83f2825c07300000000171600146640332fff83d617bf0bcc86625019e9b2a46210feffffff0221703e7a0000000017a91497df329406daf4398a532108d9d6938e8f08b1538708b2e404000000001976a914c53eeb9ba47060e5ef33a20425a4eea190d08c1588ac02473044022046eb794fbeeae76f37a75380247168dfc62f799787626802dc306c70e9d818d80220186f6c6b3b573a8b9e8568dbd30cf2cec85cba867a17a0321b467b56cc3e47be012103ac77203bfcb30c2238d31f02242c22149f2f3ab0e357098ef710eabcd8edee9813490800", "vin": [{"txinwitness": ["3044022046eb794fbeeae76f37a75380247168dfc62f799787626802dc306c70e9d818d80220186f6c6b3b573a8b9e8568dbd30cf2cec85cba867a17a0321b467b56cc3e47be01", "03ac77203bfcb30c2238d31f02242c22149f2f3ab0e357098ef710eabcd8edee98"], "sequence": 4294967294, "scriptSig": {"hex": "1600146640332fff83d617bf0bcc86625019e9b2a46210", "asm": "00146640332fff83d617bf0bcc86625019e9b2a46210"}, "vout": 0, "txid": "73c025283fc80491e1a81913c949ddad21898ce3b0ff241f2d265cd9b311e2fd"}], "txid": "fb050387f0133c6b2d0b2bb42f128fe4a8c607928145e48cd4f6fcdf8e9e676b", "blocktime": 1537873282, "version": 2, "confirmations": 11480, "time": 1537873282, "locktime": 542995, "vsize": 168, "size": 249}