{"hash": "c31a5f77e10a7c64816b703b70026b88458481af2cb52ff2bafd74ad328e951b", "blockhash": "000000000000000000022b45ed06c6f4ccd3cf7fb5ba4856ebd2e58215665228", "vout": [{"scriptPubKey": {"reqSigs": 1, "hex": "00142e762de9103ffca982e21219432e9771458c4be8", "addresses": ["bc1q9emzm6gs8l72nqhzzgv5xt5hw9zccjlgtgjenl"], "asm": "0 2e762de9103ffca982e21219432e9771458c4be8", "type": "witness_v0_keyhash"}, "value": 0.00026556, "n": 0}, {"scriptPubKey": {"reqSigs": 1, "hex": "76a91429cbbd27f8d8ed5b85e6d728da280a6b83a08c9788ac", "addresses": ["14ozmthbX8SCC1VYMDqwHL9FXKqzzepxUV"], "asm": "OP_DUP OP_HASH160 29cbbd27f8d8ed5b85e6d728da280a6b83a08c97 OP_EQUALVERIFY OP_CHECKSIG", "type": "pubkeyhash"}, "value": 0.00405851, "n": 1}], "hex": "01000000000101b662435d2adf766b16c17b2d0f92626be5d0a223a608ecb5ac7096db0460c1561d0000001716001489276d534aaa40c35f60ef089456c8767b06750dffffffff02bc670000000000001600142e762de9103ffca982e21219432e9771458c4be85b310600000000001976a91429cbbd27f8d8ed5b85e6d728da280a6b83a08c9788ac02483045022100cfb963aa9f891fe4f0053f520325e7d0572a14ac85403ab0cc41f5eff4b0375202200b7521e0015bf4386da15e5334d2b8d5bfb27d7659c698ee4133b2309a1397bf01210279c66e0299d5a3e6e43bfd1459c731393d525cbab460c35c8a6b0b46fc66279700000000", "vin": [{"txinwitness": ["3045022100cfb963aa9f891fe4f0053f520325e7d0572a14ac85403ab0cc41f5eff4b0375202200b7521e0015bf4386da15e5334d2b8d5bfb27d7659c698ee4133b2309a1397bf01", "0279c66e0299d5a3e6e43bfd1459c731393d525cbab460c35c8a6b0b46fc662797"], "sequence": 4294967295, "scriptSig": {"hex": "16001489276d534aaa40c35f60ef089456c8767b06750d", "asm": "001489276d534aaa40c35f60ef089456c8767b06750d"}, "vout": 29, "txid": "56c16004db9670acb5ec08a623a2d0e56b62920f2d7bc1166b76df2a5d4362b6"}], "txid": "fb0e8a8f594fc270a3c39c3503eb1d98ef33f132a5d4b70c834486bed0811202", "blocktime": 1537869901, "version": 1, "confirmations": 11523, "time": 1537869901, "locktime": 0, "vsize": 167, "size": 249}