{"hash": "be6b350ba3f0459cf750f57af580a6abc19a3e8f8f13c6fcfb13accc3ce75dab", "blockhash": "0000000000000000000baef3f32e3676a92c3b2e5da21b426e4f302fc371ce76", "vout": [{"scriptPubKey": {"reqSigs": 1, "hex": "a9145d35d451c3fe4f4635c9b61e427fb85c489065b087", "addresses": ["3ABsFWna4JDuQatXmjGE9rjKLdrRkqXRRn"], "asm": "OP_HASH160 5d35d451c3fe4f4635c9b61e427fb85c489065b0 OP_EQUAL", "type": "scripthash"}, "value": 0.00188096, "n": 0}, {"scriptPubKey": {"reqSigs": 1, "hex": "a9141f00ea8dfeb17a1df5597dc18471fadff0f0bb4887", "addresses": ["34Wwy9iwdvF2H1H1ZD8tqMEi8zzJAAV66q"], "asm": "OP_HASH160 1f00ea8dfeb17a1df5597dc18471fadff0f0bb48 OP_EQUAL", "type": "scripthash"}, "value": 0.50069512, "n": 1}], "hex": "01000000000101aecf68386b68c4c6d31568499a3f90528ababa450119c704d4e7b4e960be8c760000000023220020206fd40d3048e0da99fe84d6f63a76f12f9c28836994d539d003898be23f5f63ffffffff02c0de02000000000017a9145d35d451c3fe4f4635c9b61e427fb85c489065b0870800fc020000000017a9141f00ea8dfeb17a1df5597dc18471fadff0f0bb48870400473044022034761328cdd8c5476fed153e340a1ca3d8f9457131ce098f78c30d49a543cf9102201647ea7872869c6b7154e834a6459c22948c9881d23f304c38daa0c469fe931e01473044022031b2565fa069551afc6dacdcdeafa3bd171e359fb86c222ce892e274ad16b38c02201230fd61073cee744ce26da5ccc35ce4c61c0681220146a79d888e052543d16901475221037f58da8c10251014cc84b7de0fbde26cd6925b6a81a1d4893d083e086b6371c02102d8cbd56fe56ed46b7d86e915d643e8519cf5f3c693f8be00c1dd5ac66394422e52ae00000000", "vin": [{"txinwitness": ["", "3044022034761328cdd8c5476fed153e340a1ca3d8f9457131ce098f78c30d49a543cf9102201647ea7872869c6b7154e834a6459c22948c9881d23f304c38daa0c469fe931e01", "3044022031b2565fa069551afc6dacdcdeafa3bd171e359fb86c222ce892e274ad16b38c02201230fd61073cee744ce26da5ccc35ce4c61c0681220146a79d888e052543d16901", "5221037f58da8c10251014cc84b7de0fbde26cd6925b6a81a1d4893d083e086b6371c02102d8cbd56fe56ed46b7d86e915d643e8519cf5f3c693f8be00c1dd5ac66394422e52ae"], "sequence": 4294967295, "scriptSig": {"hex": "220020206fd40d3048e0da99fe84d6f63a76f12f9c28836994d539d003898be23f5f63", "asm": "0020206fd40d3048e0da99fe84d6f63a76f12f9c28836994d539d003898be23f5f63"}, "vout": 0, "txid": "768cbe60e9b4e7d404c7190145baba8a52903f9a496815d3c6c4686b3868cfae"}], "txid": "fb197e4195ae01470e112a7741de84e7230a456e19d93f6392d6d564a6da9ee8", "blocktime": 1537876114, "version": 1, "confirmations": 11460, "time": 1537876114, "locktime": 0, "vsize": 205, "size": 370}