{"hash": "0e155194f260b770b6dc9091e1ce412a0ed3e237ffa5b8615e7af3972a406f3b", "blockhash": "0000000000000000000baef3f32e3676a92c3b2e5da21b426e4f302fc371ce76", "vout": [{"scriptPubKey": {"reqSigs": 1, "hex": "76a914bf1e0441c187ad2b9eed65626059a5be1ace4ae288ac", "addresses": ["1JRY2ERod75BW6LGefYeT4KJxBco1x6Buo"], "asm": "OP_DUP OP_HASH160 bf1e0441c187ad2b9eed65626059a5be1ace4ae2 OP_EQUALVERIFY OP_CHECKSIG", "type": "pubkeyhash"}, "value": 0.00077, "n": 0}, {"scriptPubKey": {"reqSigs": 1, "hex": "a914b752a9b880a0d3b492c5ad1ef01943cd9750d09587", "addresses": ["3JQLcAy8LMbyCBgCSv9mQppCZaALWXh8Dh"], "asm": "OP_HASH160 b752a9b880a0d3b492c5ad1ef01943cd9750d095 OP_EQUAL", "type": "scripthash"}, "value": 0.0005, "n": 1}, {"scriptPubKey": {"reqSigs": 1, "hex": "76a91489d58d3caff11d85e6e753de89738cbe234c6eee88ac", "addresses": ["1DZoQ7arjDrr2Yy8G4cYpccv2qsPemqhj3"], "asm": "OP_DUP OP_HASH160 89d58d3caff11d85e6e753de89738cbe234c6eee OP_EQUALVERIFY OP_CHECKSIG", "type": "pubkeyhash"}, "value": 0.00257708, "n": 2}, {"scriptPubKey": {"reqSigs": 1, "hex": "a9146f46cde3e2f3ea360fa4a7e588f23ee7ccbdbaa987", "addresses": ["3BqPkQL9B1Dw6ox16Z7yK61doJPjZ7pjmU"], "asm": "OP_HASH160 6f46cde3e2f3ea360fa4a7e588f23ee7ccbdbaa9 OP_EQUAL", "type": "scripthash"}, "value": 0.00135, "n": 3}, {"scriptPubKey": {"reqSigs": 1, "hex": "76a91488b5bd78009920eb986901c651cf0e66f45f354688ac", "addresses": ["1DTrccaCg11ehnj8gG7DSEM8vZLx1jreVx"], "asm": "OP_DUP OP_HASH160 88b5bd78009920eb986901c651cf0e66f45f3546 OP_EQUALVERIFY OP_CHECKSIG", "type": "pubkeyhash"}, "value": 0.0013, "n": 4}, {"scriptPubKey": {"reqSigs": 1, "hex": "76a914c221c11f027f9e0e89bb1561064f920dacd021fd88ac", "addresses": ["1JhUXWcKZPUAkuA8JtDsgSiHWnjbBoi1cX"], "asm": "OP_DUP OP_HASH160 c221c11f027f9e0e89bb1561064f920dacd021fd OP_EQUALVERIFY OP_CHECKSIG", "type": "pubkeyhash"}, "value": 0.00030894, "n": 5}, {"scriptPubKey": {"reqSigs": 1, "hex": "a9143e98b143321436c30177d740f7d5ddda91222bb987", "addresses": ["37PzjhAn6BHWZafBZMYoL99D6Qfi1q9pbF"], "asm": "OP_HASH160 3e98b143321436c30177d740f7d5ddda91222bb9 OP_EQUAL", "type": "scripthash"}, "value": 0.00070703, "n": 6}, {"scriptPubKey": {"reqSigs": 1, "hex": "76a914428b323142b0203fdaceabb3f4d791d6289344f688ac", "addresses": ["174rMB2dX3Bk6ntfSvBjzdcMsf7qraCVit"], "asm": "OP_DUP OP_HASH160 428b323142b0203fdaceabb3f4d791d6289344f6 OP_EQUALVERIFY OP_CHECKSIG", "type": "pubkeyhash"}, "value": 0.007, "n": 7}, {"scriptPubKey": {"reqSigs": 1, "hex": "76a914cbe0f7f62d097019fd7103d1b52fbdd6ece32ffd88ac", "addresses": ["1Kb1g2yBN94ewpA8fzKr8EMt6tGQ8XdtQm"], "asm": "OP_DUP OP_HASH160 cbe0f7f62d097019fd7103d1b52fbdd6ece32ffd OP_EQUALVERIFY OP_CHECKSIG", "type": "pubkeyhash"}, "value": 0.00034834, "n": 8}, {"scriptPubKey": {"reqSigs": 1, "hex": "a914286a2af032659d316806d06aa489cc32c58b2a1187", "addresses": ["35Ni8szbY1fb9dK57ZEtQVErAK4XdvGKVb"], "asm": "OP_HASH160 286a2af032659d316806d06aa489cc32c58b2a11 OP_EQUAL", "type": "scripthash"}, "value": 0.000313, "n": 9}, {"scriptPubKey": {"reqSigs": 1, "hex": "a914050e9b73041b548fc5c0102c08177fb3285ad59b87", "addresses": ["329koRvovTyNnd4ADrpR2uJHzXxfvKxta5"], "asm": "OP_HASH160 050e9b73041b548fc5c0102c08177fb3285ad59b OP_EQUAL", "type": "scripthash"}, "value": 47.87639558, "n": 10}], "hex": "02000000000101ea13b1b446f26e21778362a1384e2a03c83dbe21e3c34bb80d7c42c918a4d3a2010000001716001437de5da24ea7c8a3122ff93038f95492bd3834e5feffffff0bc82c0100000000001976a914bf1e0441c187ad2b9eed65626059a5be1ace4ae288ac50c300000000000017a914b752a9b880a0d3b492c5ad1ef01943cd9750d09587acee0300000000001976a91489d58d3caff11d85e6e753de89738cbe234c6eee88ac580f02000000000017a9146f46cde3e2f3ea360fa4a7e588f23ee7ccbdbaa987d0fb0100000000001976a91488b5bd78009920eb986901c651cf0e66f45f354688acae780000000000001976a914c221c11f027f9e0e89bb1561064f920dacd021fd88ac2f1401000000000017a9143e98b143321436c30177d740f7d5ddda91222bb98760ae0a00000000001976a914428b323142b0203fdaceabb3f4d791d6289344f688ac12880000000000001976a914cbe0f7f62d097019fd7103d1b52fbdd6ece32ffd88ac447a00000000000017a914286a2af032659d316806d06aa489cc32c58b2a118706955d1d0100000017a914050e9b73041b548fc5c0102c08177fb3285ad59b870247304402206444710f6c7af429521d2640073c419108c3bf323fb7f21a450b689af4e45bea02205a51db1d9a895a4f07140693dc421adc1245d74eff15557df6c68220815401390121036f4dd476664e417eab722cf99a991c471d38a6a7562275be1bc2dc9a606b468d17490800", "vin": [{"txinwitness": ["304402206444710f6c7af429521d2640073c419108c3bf323fb7f21a450b689af4e45bea02205a51db1d9a895a4f07140693dc421adc1245d74eff15557df6c682208154013901", "036f4dd476664e417eab722cf99a991c471d38a6a7562275be1bc2dc9a606b468d"], "sequence": 4294967294, "scriptSig": {"hex": "16001437de5da24ea7c8a3122ff93038f95492bd3834e5", "asm": "001437de5da24ea7c8a3122ff93038f95492bd3834e5"}, "vout": 1, "txid": "a2d3a418c9427c0db84bc3e321be3dc8032a4e38a1628377216ef246b4b113ea"}], "txid": "fb1b657303d5e00d765fdb320a3359c51aaa6ad717f4bc68b4dc6cc72e932713", "blocktime": 1537876114, "version": 2, "confirmations": 11462, "time": 1537876114, "locktime": 542999, "vsize": 466, "size": 547}