{"hash": "95db47a89704f685f4b3ccf83cad37aaf025761e342f53ba908ede760a635aca", "blockhash": "0000000000000000000e13cef7c366c0283d82e591d1acd082e914b08063cdf1", "vout": [{"scriptPubKey": {"reqSigs": 1, "hex": "a9141a21eecd491f7cee4702d1fef0d773bb87936ace87", "addresses": ["345C9E1AssFtWVtS13B7UcNmVbY4koQjdn"], "asm": "OP_HASH160 1a21eecd491f7cee4702d1fef0d773bb87936ace OP_EQUAL", "type": "scripthash"}, "value": 0.00019507, "n": 0}, {"scriptPubKey": {"reqSigs": 1, "hex": "0014a707de800d7eaedf57d0242933dfb3e708367cd2", "addresses": ["bc1q5uraaqqd06hd747sys5n8hanuuyrvlxj78fzek"], "asm": "0 a707de800d7eaedf57d0242933dfb3e708367cd2", "type": "witness_v0_keyhash"}, "value": 1.046e-05, "n": 1}], "hex": "01000000000101c9fd37e68086150572a58f585fd483b0a3ab84201cf0c7e5b43a56737a6dc76a0100000000ffffffff02334c00000000000017a9141a21eecd491f7cee4702d1fef0d773bb87936ace871604000000000000160014a707de800d7eaedf57d0242933dfb3e708367cd20247304402206aa5bc8aaf44cfbfa3697fe9f74a8eb43bcd11c953a5f33a095f8b190dabe52602207ce7ef8d8d25b36a22e3314c686a8d5d16de553f48b54ac16c5afe6cec6b78a10121023f6e43fcdbcf74a52f753086a5a5937e81d3bf7f5ba05ce5f01c5d3df5f4d16500000000", "vin": [{"txinwitness": ["304402206aa5bc8aaf44cfbfa3697fe9f74a8eb43bcd11c953a5f33a095f8b190dabe52602207ce7ef8d8d25b36a22e3314c686a8d5d16de553f48b54ac16c5afe6cec6b78a101", "023f6e43fcdbcf74a52f753086a5a5937e81d3bf7f5ba05ce5f01c5d3df5f4d165"], "sequence": 4294967295, "scriptSig": {"hex": "", "asm": ""}, "vout": 1, "txid": "6ac76d7a73563ab4e5c7f01c2084aba3b083d45f588fa57205158680e637fdc9"}], "txid": "fb1dfc46fd0c002811ba31dd968becb0c228859282e4b93252993fa292610883", "blocktime": 1537871767, "version": 1, "confirmations": 11495, "time": 1537871767, "locktime": 0, "vsize": 142, "size": 223}