{"hash": "2e9ebaa6b0fd8d2fdbbcd75caba7fc59d0be21e44173c6706c8a0e173a296698", "blockhash": "00000000000000000004ffacab907a6b429b9a5745fa0b75af4234bf69dd7176", "vout": [{"scriptPubKey": {"reqSigs": 1, "hex": "76a914e7709570faf921b3e3bb71a0ce298b11f439966788ac", "addresses": ["1N6jxmcqiaMYFngwN2CoYzJL6FGozTCQ33"], "asm": "OP_DUP OP_HASH160 e7709570faf921b3e3bb71a0ce298b11f4399667 OP_EQUALVERIFY OP_CHECKSIG", "type": "pubkeyhash"}, "value": 0.265716, "n": 0}], "hex": "020000000001051cf6cdc1c4be1983bee1590464bc6eb2dab3e410301cdb54ee28ab23584ffb8200000000171600145674990fadefa4c5d21960e4840fb2a695dc0e83feffffff2c1d013147c1b4e8757e73a259b16f93a45bcdb54a85ff74d3bed7fa903156dc0000000017160014dcd57357943aacb7df73bd81f91661bcfd4da6dafeffffff3f7cbe77ac96bc57a37e823f5164bf6a504a640b131f09e5410ab4b516e9da540400000017160014c59258d1640495aec6107bda46c8e06fc1a45dd3feffffff4360b0b4b734b87279a04b66f78248b1335d3a99ac08d1760ce634ee53ce7ebd010000001716001418297208d1b72d84287daf6426f43000cc21ad73feffffff5d4241714b2a77d557ad26359b7adbcedc1b301b8261163066e47e7770d3f15701000000171600145bafdf36a3d6ec92df25e1016963b851f459909cfeffffff0150739501000000001976a914e7709570faf921b3e3bb71a0ce298b11f439966788ac02483045022100d2a1b7155385742dc41eae20e4045c3a47201eaa62809680fa820cf983537161022008a8a943d94d46b4a5d5ec321d99b05d09216bc6c7a6657a7f91a34d8438c64f012103a90c30933dbfb3ad44c624a0216460433ca8243aa05a579a4ec9d2242dc94f6602473044022055d33eacf0a89abd3ed24645eb4e7cb2ef4af0af332784fa93960c4f4d0e1bed02202e7409a9061bcf3e03fc8e6c2967a970c34c51fecec43dfa596b7dd25bc2b31c01210372af1257e35f7f4af69af24a558d624b2080f1e2db379e61e92392d7daf5d61802473044022026e69d81f6a8126f0f8d100f0a5e7f4035aa2266f3315651e0fa2748786fef900220274d91cffc94044da9f374da684b5ad08dcc9e3d7b54d8232777ef14738328930121026ac22ba4583d894a192cc75b1caec2bee17bb3802ce0817548595acc9b25df6502473044022066aec534007de77fed66115c402a16734a7e7cf2eaef80e66d41f4ba03c2178b02202245a532cb60a407daad73f0ed9d4039c63445423e0b5d53548f86d447bbda920121036f93fb47e835d957a87b656783c947de9ccbc44f03572f8c4edb919bad2593830247304402200b0701755b763f9e79606655ae1892fe5580ae864b0faad08e35f11c8fd2cf940220514e122893e94d9a634367fed8e2447041b0d2edfd9cfe584f918775b1173a56012103cbac4f01d799db0b7a3f2b2de649da060dc31949dafab853b54e5ee29b290c6716490800", "vin": [{"txinwitness": ["3045022100d2a1b7155385742dc41eae20e4045c3a47201eaa62809680fa820cf983537161022008a8a943d94d46b4a5d5ec321d99b05d09216bc6c7a6657a7f91a34d8438c64f01", "03a90c30933dbfb3ad44c624a0216460433ca8243aa05a579a4ec9d2242dc94f66"], "sequence": 4294967294, "scriptSig": {"hex": "1600145674990fadefa4c5d21960e4840fb2a695dc0e83", "asm": "00145674990fadefa4c5d21960e4840fb2a695dc0e83"}, "vout": 0, "txid": "82fb4f5823ab28ee54db1c3010e4b3dab26ebc640459e1be8319bec4c1cdf61c"}, {"txinwitness": ["3044022055d33eacf0a89abd3ed24645eb4e7cb2ef4af0af332784fa93960c4f4d0e1bed02202e7409a9061bcf3e03fc8e6c2967a970c34c51fecec43dfa596b7dd25bc2b31c01", "0372af1257e35f7f4af69af24a558d624b2080f1e2db379e61e92392d7daf5d618"], "sequence": 4294967294, "scriptSig": {"hex": "160014dcd57357943aacb7df73bd81f91661bcfd4da6da", "asm": "0014dcd57357943aacb7df73bd81f91661bcfd4da6da"}, "vout": 0, "txid": "dc563190fad7bed374ff854ab5cd5ba4936fb159a2737e75e8b4c14731011d2c"}, {"txinwitness": ["3044022026e69d81f6a8126f0f8d100f0a5e7f4035aa2266f3315651e0fa2748786fef900220274d91cffc94044da9f374da684b5ad08dcc9e3d7b54d8232777ef147383289301", "026ac22ba4583d894a192cc75b1caec2bee17bb3802ce0817548595acc9b25df65"], "sequence": 4294967294, "scriptSig": {"hex": "160014c59258d1640495aec6107bda46c8e06fc1a45dd3", "asm": "0014c59258d1640495aec6107bda46c8e06fc1a45dd3"}, "vout": 4, "txid": "54dae916b5b40a41e5091f130b644a506abf64513f827ea357bc96ac77be7c3f"}, {"txinwitness": ["3044022066aec534007de77fed66115c402a16734a7e7cf2eaef80e66d41f4ba03c2178b02202245a532cb60a407daad73f0ed9d4039c63445423e0b5d53548f86d447bbda9201", "036f93fb47e835d957a87b656783c947de9ccbc44f03572f8c4edb919bad259383"], "sequence": 4294967294, "scriptSig": {"hex": "16001418297208d1b72d84287daf6426f43000cc21ad73", "asm": "001418297208d1b72d84287daf6426f43000cc21ad73"}, "vout": 1, "txid": "bd7ece53ee34e60c76d108ac993a5d33b14882f7664ba07972b834b7b4b06043"}, {"txinwitness": ["304402200b0701755b763f9e79606655ae1892fe5580ae864b0faad08e35f11c8fd2cf940220514e122893e94d9a634367fed8e2447041b0d2edfd9cfe584f918775b1173a5601", "03cbac4f01d799db0b7a3f2b2de649da060dc31949dafab853b54e5ee29b290c67"], "sequence": 4294967294, "scriptSig": {"hex": "1600145bafdf36a3d6ec92df25e1016963b851f459909c", "asm": "00145bafdf36a3d6ec92df25e1016963b851f459909c"}, "vout": 1, "txid": "57f1d370777ee466301661821b301bdccedb7a9b3526ad57d5772a4b7141425d"}], "txid": "fb1e915f8c8be4d8710ff5b07f61851e6c05ca8d731bd4ae71171d6908eb9bdf", "blocktime": 1537875543, "version": 2, "confirmations": 11464, "time": 1537875543, "locktime": 542998, "vsize": 499, "size": 902}