{"hash": "fb27427ce160f23783d4653e93a64e215055a8a8aecaa0a8c7149c0989075455", "blockhash": "0000000000000000000e13cef7c366c0283d82e591d1acd082e914b08063cdf1", "vout": [{"scriptPubKey": {"reqSigs": 1, "hex": "76a914f354b588873514cd03884ec729d78750a40ddea188ac", "addresses": ["1PBcgJpbL1yF8iRLpYRcMQNaJDKuLx3M1H"], "asm": "OP_DUP OP_HASH160 f354b588873514cd03884ec729d78750a40ddea1 OP_EQUALVERIFY OP_CHECKSIG", "type": "pubkeyhash"}, "value": 0.00062492, "n": 0}, {"scriptPubKey": {"reqSigs": 1, "hex": "76a914f0e20e1aa3ac8ca36ea74148ba9d86142dd5fb2588ac", "addresses": ["1Nxfyd7NvuHt6yvfKUKwGx77sXtgHKYAiw"], "asm": "OP_DUP OP_HASH160 f0e20e1aa3ac8ca36ea74148ba9d86142dd5fb25 OP_EQUALVERIFY OP_CHECKSIG", "type": "pubkeyhash"}, "value": 0.50861839, "n": 1}], "hex": "0100000001707a133ef7d6111a13eba7d81570dcf74fd377814047547a78f5a1980d2756c9010000006a47304402200bc584cf4092b1980f2db06ce34de17c81dd69eb0be36049c6db206cb930c36a022031a2c152ac134e5d5b53e51bf3ac38192af257cb3e4dfd0f7d5742573d8960cd012103f93c97a88c9e00d5a5a08dcea5ca139010442ff7eeee0f826a7b25beb5903361ffffffff021cf40000000000001976a914f354b588873514cd03884ec729d78750a40ddea188ac0f170803000000001976a914f0e20e1aa3ac8ca36ea74148ba9d86142dd5fb2588ac00000000", "vin": [{"sequence": 4294967295, "scriptSig": {"hex": "47304402200bc584cf4092b1980f2db06ce34de17c81dd69eb0be36049c6db206cb930c36a022031a2c152ac134e5d5b53e51bf3ac38192af257cb3e4dfd0f7d5742573d8960cd012103f93c97a88c9e00d5a5a08dcea5ca139010442ff7eeee0f826a7b25beb5903361", "asm": "304402200bc584cf4092b1980f2db06ce34de17c81dd69eb0be36049c6db206cb930c36a022031a2c152ac134e5d5b53e51bf3ac38192af257cb3e4dfd0f7d5742573d8960cd[ALL] 03f93c97a88c9e00d5a5a08dcea5ca139010442ff7eeee0f826a7b25beb5903361"}, "vout": 1, "txid": "c956270d98a1f5787a5447408177d34ff7dc7015d8a7eb131a11d6f73e137a70"}], "txid": "fb27427ce160f23783d4653e93a64e215055a8a8aecaa0a8c7149c0989075455", "blocktime": 1537871767, "version": 1, "confirmations": 11495, "time": 1537871767, "locktime": 0, "vsize": 225, "size": 225}