{"hash": "b61c2174cd49680ee26efa24616c2f162fa24f55aff745b52232df81e6368e65", "blockhash": "00000000000000000017f5eb5941039fbcee6240d03bc1f2f8e35350df66a1d8", "vout": [{"scriptPubKey": {"reqSigs": 1, "hex": "a91494b75a233701a7f437a0d438937c7a8856e3bb3f87", "addresses": ["3FFMaTk4Dt6c5aThrqhWU5heqMzS89YTBj"], "asm": "OP_HASH160 94b75a233701a7f437a0d438937c7a8856e3bb3f OP_EQUAL", "type": "scripthash"}, "value": 0.01038821, "n": 0}, {"scriptPubKey": {"reqSigs": 1, "hex": "0014697cc05bf747e09853ca226c3f560db1ec7ca042", "addresses": ["bc1qd97vqklhglsfs572yfkr74sdk8k8egzz8tsvem"], "asm": "0 697cc05bf747e09853ca226c3f560db1ec7ca042", "type": "witness_v0_keyhash"}, "value": 0.18660682, "n": 1}], "hex": "01000000000101533e2ad2087e25b30a3335cffb0756e5a4fe555d9a7f78fa5ddd0e631ce111820f000000171600146082ce2ea5e7d4efaa97ff6fa57edca95a19f6f8ffffffff02e5d90f000000000017a91494b75a233701a7f437a0d438937c7a8856e3bb3f874abd1c0100000000160014697cc05bf747e09853ca226c3f560db1ec7ca042024730440220626eefbf681c01a22ffb8b1401bbd00ed666a2854104a61086be8c451e6728a40220650a54fde57b43c60dfc3f8ddb64c45307f46097eaca563192efb16ebaa425fb012102725335d82b3e195148c48d65513336d19fce44d95112b9a72ee9816b9d18697600000000", "vin": [{"txinwitness": ["30440220626eefbf681c01a22ffb8b1401bbd00ed666a2854104a61086be8c451e6728a40220650a54fde57b43c60dfc3f8ddb64c45307f46097eaca563192efb16ebaa425fb01", "02725335d82b3e195148c48d65513336d19fce44d95112b9a72ee9816b9d186976"], "sequence": 4294967295, "scriptSig": {"hex": "1600146082ce2ea5e7d4efaa97ff6fa57edca95a19f6f8", "asm": "00146082ce2ea5e7d4efaa97ff6fa57edca95a19f6f8"}, "vout": 15, "txid": "8211e11c630edd5dfa787f9a5d55fea4e55607fbcf35330ab3257e08d22a3e53"}], "txid": "fb299bca17e091ef9c87ffec3704dd363d2f5ade4cb7d4953ae0644a4dc52b5e", "blocktime": 1537874412, "version": 1, "confirmations": 11468, "time": 1537874412, "locktime": 0, "vsize": 165, "size": 246}