{"hash": "fb2f38a39ecf6563df22055d4ebb0c24b27734c03e3f8b7bb45caf6d71309d19", "blockhash": "00000000000000000004ffacab907a6b429b9a5745fa0b75af4234bf69dd7176", "vout": [{"scriptPubKey": {"reqSigs": 1, "hex": "76a91453ee5e4c3355c28c32bbfb1baa02b8dae189581f88ac", "addresses": ["18ene3dEF8cs3ghg97jW2pvEQF96xRH5AP"], "asm": "OP_DUP OP_HASH160 53ee5e4c3355c28c32bbfb1baa02b8dae189581f OP_EQUALVERIFY OP_CHECKSIG", "type": "pubkeyhash"}, "value": 0.0016, "n": 0}, {"scriptPubKey": {"reqSigs": 1, "hex": "76a914ac05ba653fb55f5511b69f74a8eef1c10930a69388ac", "addresses": ["1Gga5zTmD8vJymjiC7RFB8344wAs3Wm427"], "asm": "OP_DUP OP_HASH160 ac05ba653fb55f5511b69f74a8eef1c10930a693 OP_EQUALVERIFY OP_CHECKSIG", "type": "pubkeyhash"}, "value": 0.00811026, "n": 1}], "hex": "010000000140918fb74387023ffc640ae92ea1d2324fdf3eb40a2ea7c1ed80ba545bced3a7000000006a473044022032ef44f47351b67e607b02dbd768ecf32b274ccff6720d4da65ba785b95044b602203d67aa412490f8d181421fe984f4e97f0bba3e9e656e1b6396d269ee479c4b5501210349cdd544fb4b32ae61bacfc193bcebd1b84e76efefb4ca066c8d0aaedc6fce5effffffff0200710200000000001976a91453ee5e4c3355c28c32bbfb1baa02b8dae189581f88ac12600c00000000001976a914ac05ba653fb55f5511b69f74a8eef1c10930a69388ac00000000", "vin": [{"sequence": 4294967295, "scriptSig": {"hex": "473044022032ef44f47351b67e607b02dbd768ecf32b274ccff6720d4da65ba785b95044b602203d67aa412490f8d181421fe984f4e97f0bba3e9e656e1b6396d269ee479c4b5501210349cdd544fb4b32ae61bacfc193bcebd1b84e76efefb4ca066c8d0aaedc6fce5e", "asm": "3044022032ef44f47351b67e607b02dbd768ecf32b274ccff6720d4da65ba785b95044b602203d67aa412490f8d181421fe984f4e97f0bba3e9e656e1b6396d269ee479c4b55[ALL] 0349cdd544fb4b32ae61bacfc193bcebd1b84e76efefb4ca066c8d0aaedc6fce5e"}, "vout": 0, "txid": "a7d3ce5b54ba80edc1a72e0ab43edf4f32d2a12ee90a64fc3f028743b78f9140"}], "txid": "fb2f38a39ecf6563df22055d4ebb0c24b27734c03e3f8b7bb45caf6d71309d19", "blocktime": 1537875543, "version": 1, "confirmations": 11464, "time": 1537875543, "locktime": 0, "vsize": 225, "size": 225}