{"hash": "fb37cf10ab4b3a91a517008c7eda23ec684abe950f97c851b642e2d7d859f251", "blockhash": "0000000000000000001e0dab787dd257d1dbfcb92a98c2207d5e1078be1f4165", "vout": [{"scriptPubKey": {"reqSigs": 1, "hex": "76a9144fbdf6633fcc7e9ed9ea3682d31ae867ece2ee6a88ac", "addresses": ["18Gdwyg9QPdwPyZYu6Yk81zLRGmFFkiFFw"], "asm": "OP_DUP OP_HASH160 4fbdf6633fcc7e9ed9ea3682d31ae867ece2ee6a OP_EQUALVERIFY OP_CHECKSIG", "type": "pubkeyhash"}, "value": 0.00156444, "n": 0}, {"scriptPubKey": {"reqSigs": 1, "hex": "76a9145f10077a32850f21290598797ed40dc3d63ea07a88ac", "addresses": ["19fePxGFduwQB6qgPpbaFh1Wovytd1rcMZ"], "asm": "OP_DUP OP_HASH160 5f10077a32850f21290598797ed40dc3d63ea07a OP_EQUALVERIFY OP_CHECKSIG", "type": "pubkeyhash"}, "value": 0.01648578, "n": 1}], "hex": "0100000001c6563e1eeda744ebda7bada8c96feda87a618e7b2b93b2057936e118e1d23f4f030000006b483045022100f258359b0b9db5eb6bebca419a37876e66beca7d2a142375a4ccdb481aa44e7f0220531e8d6ace7c795652049aab5c555d444913629a431a03cbf5fbb863fc834f8501210261bb38817fb91653da1908f2de4a66c193df338c9080cb592d95db58951fd800ffffffff021c630200000000001976a9144fbdf6633fcc7e9ed9ea3682d31ae867ece2ee6a88acc2271900000000001976a9145f10077a32850f21290598797ed40dc3d63ea07a88ac00000000", "vin": [{"sequence": 4294967295, "scriptSig": {"hex": "483045022100f258359b0b9db5eb6bebca419a37876e66beca7d2a142375a4ccdb481aa44e7f0220531e8d6ace7c795652049aab5c555d444913629a431a03cbf5fbb863fc834f8501210261bb38817fb91653da1908f2de4a66c193df338c9080cb592d95db58951fd800", "asm": "3045022100f258359b0b9db5eb6bebca419a37876e66beca7d2a142375a4ccdb481aa44e7f0220531e8d6ace7c795652049aab5c555d444913629a431a03cbf5fbb863fc834f85[ALL] 0261bb38817fb91653da1908f2de4a66c193df338c9080cb592d95db58951fd800"}, "vout": 3, "txid": "4f3fd2e118e1367905b2932b7b8e617aa8ed6fc9a8ad7bdaeb44a7ed1e3e56c6"}], "txid": "fb37cf10ab4b3a91a517008c7eda23ec684abe950f97c851b642e2d7d859f251", "blocktime": 1537872475, "version": 1, "confirmations": 11487, "time": 1537872475, "locktime": 0, "vsize": 226, "size": 226}