{"hash": "fb37aa4fa79268e4513185882c73ee80bc5aea1f14b5af51f2e5ced6f643ad8c", "blockhash": "0000000000000000001f76057863aec43deb6fa401d9628bb513d65a8098bfab", "vout": [{"scriptPubKey": {"reqSigs": 1, "hex": "76a91441802a63d62194a694e451d9fe5382ec02f22bb688ac", "addresses": ["16yLTa4V766N8EbaBX2WTnxSDhvs5MxAiV"], "asm": "OP_DUP OP_HASH160 41802a63d62194a694e451d9fe5382ec02f22bb6 OP_EQUALVERIFY OP_CHECKSIG", "type": "pubkeyhash"}, "value": 0.06991951, "n": 0}, {"scriptPubKey": {"reqSigs": 1, "hex": "76a91403fd734667e3e3dcaa8235184d9b125b9663cf7a88ac", "addresses": ["1N6ecQz1Rs7YCocZijW7WA32Afjm2aXyQ"], "asm": "OP_DUP OP_HASH160 03fd734667e3e3dcaa8235184d9b125b9663cf7a OP_EQUALVERIFY OP_CHECKSIG", "type": "pubkeyhash"}, "value": 0.01028, "n": 1}, {"scriptPubKey": {"reqSigs": 1, "hex": "76a9141095407dd26471aa83df7a5ca358cc331c4d199a88ac", "addresses": ["12WgcGvMqEkXq44n3Sq7mBUNeMCob2CpZe"], "asm": "OP_DUP OP_HASH160 1095407dd26471aa83df7a5ca358cc331c4d199a OP_EQUALVERIFY OP_CHECKSIG", "type": "pubkeyhash"}, "value": 0.0927002, "n": 2}, {"scriptPubKey": {"reqSigs": 1, "hex": "76a91493dbae4b035c12d0fc9306f09e3ce8d1f5f4b9c488ac", "addresses": ["1EUoVtfupciMG1TNAYPCiYDsuKF9cUYqMs"], "asm": "OP_DUP OP_HASH160 93dbae4b035c12d0fc9306f09e3ce8d1f5f4b9c4 OP_EQUALVERIFY OP_CHECKSIG", "type": "pubkeyhash"}, "value": 0.008166, "n": 3}, {"scriptPubKey": {"reqSigs": 1, "hex": "76a91497a47daa0f6211ad33cfb5243034fc7c03559c3e88ac", "addresses": ["1Epp5zathNhpqz6Fw7w3q6cUZBjSD4Yo4o"], "asm": "OP_DUP OP_HASH160 97a47daa0f6211ad33cfb5243034fc7c03559c3e OP_EQUALVERIFY OP_CHECKSIG", "type": "pubkeyhash"}, "value": 0.03138149, "n": 4}, {"scriptPubKey": {"reqSigs": 1, "hex": "a914ff3895912fd21f29adcb0ed67afbe4105fe3991e87", "addresses": ["3QxW217yhe2Fsf222XMxdc4eRDdYpTPfsd"], "asm": "OP_HASH160 ff3895912fd21f29adcb0ed67afbe4105fe3991e OP_EQUAL", "type": "scripthash"}, "value": 0.0095, "n": 5}, {"scriptPubKey": {"reqSigs": 1, "hex": "76a91466a025f89d85abf03e92264617d0afa60f057f3e88ac", "addresses": ["1AMdmsJtPzqbEnrPDZgW2H8noikzHPrbxn"], "asm": "OP_DUP OP_HASH160 66a025f89d85abf03e92264617d0afa60f057f3e OP_EQUALVERIFY OP_CHECKSIG", "type": "pubkeyhash"}, "value": 0.013414, "n": 6}, {"scriptPubKey": {"reqSigs": 1, "hex": "76a914a0f4378ffb4bf428bdc78726841f7b707568651688ac", "addresses": ["1Fg3gC3HgDp99tyHBMX2SBB6GYoFdLc6Uq"], "asm": "OP_DUP OP_HASH160 a0f4378ffb4bf428bdc78726841f7b7075686516 OP_EQUALVERIFY OP_CHECKSIG", "type": "pubkeyhash"}, "value": 0.0080789, "n": 7}, {"scriptPubKey": {"reqSigs": 1, "hex": "a914b475866c5ade75c5445dd2c740c1ce7c999fecdd87", "addresses": ["3J9CLrpHA3ABtz2wQ5Apg61t5JvHgbtb93"], "asm": "OP_HASH160 b475866c5ade75c5445dd2c740c1ce7c999fecdd OP_EQUAL", "type": "scripthash"}, "value": 1.9995, "n": 8}, {"scriptPubKey": {"reqSigs": 1, "hex": "a9145a79af85a49367870b70ffaadb744af3365726f387", "addresses": ["39wQWg5FfPfN6D7TuYuR1ikPrBv7LLzcMs"], "asm": "OP_HASH160 5a79af85a49367870b70ffaadb744af3365726f3 OP_EQUAL", "type": "scripthash"}, "value": 0.00152298, "n": 9}, {"scriptPubKey": {"reqSigs": 1, "hex": "76a9141ed84c2bc213e2cb36cfa5bdf2e88512cbc4960688ac", "addresses": ["13p6PNZE5AaWd6Mx5CDS33co2xu4qemTdE"], "asm": "OP_DUP OP_HASH160 1ed84c2bc213e2cb36cfa5bdf2e88512cbc49606 OP_EQUALVERIFY OP_CHECKSIG", "type": "pubkeyhash"}, "value": 0.23998632, "n": 10}, {"scriptPubKey": {"reqSigs": 1, "hex": "a914bf448b088b6843a4b3b813a0b152193777d7d04387", "addresses": ["3K8M6e9sB52VRxfVe2pKb9Sde9kKBcakrk"], "asm": "OP_HASH160 bf448b088b6843a4b3b813a0b152193777d7d043 OP_EQUAL", "type": "scripthash"}, "value": 0.08466423, "n": 11}, {"scriptPubKey": {"reqSigs": 1, "hex": "76a9147bf679f074e3e567187cbedbe48f84827f2784fc88ac", "addresses": ["1CJTP561dMVJYPrp8tc4fxDDzr2sANsaGD"], "asm": "OP_DUP OP_HASH160 7bf679f074e3e567187cbedbe48f84827f2784fc OP_EQUALVERIFY OP_CHECKSIG", "type": "pubkeyhash"}, "value": 0.01407291, "n": 12}, {"scriptPubKey": {"reqSigs": 1, "hex": "a91469f375c387b32fd1c95a52e31583910ddf54745087", "addresses": ["3BMEXaqwqFXLn9DYSWLVEJfofyCfepjJmo"], "asm": "OP_HASH160 69f375c387b32fd1c95a52e31583910ddf547450 OP_EQUAL", "type": "scripthash"}, "value": 0.09125242, "n": 13}, {"scriptPubKey": {"reqSigs": 1, "hex": "a91469f377084e204cd00ded076db310b086bbf2d23487", "addresses": ["3BMEXvpG2gCWg3P7avx3CNFCrSv7LGaoBf"], "asm": "OP_HASH160 69f377084e204cd00ded076db310b086bbf2d234 OP_EQUAL", "type": "scripthash"}, "value": 0.17850857, "n": 14}, {"scriptPubKey": {"reqSigs": 1, "hex": "76a914d23b49250b138e79c70e721709efd6776fc3c48888ac", "addresses": ["1LAbvXeyxjZaDKQsMn3MbXcrNVMGNcBgdR"], "asm": "OP_DUP OP_HASH160 d23b49250b138e79c70e721709efd6776fc3c488 OP_EQUALVERIFY OP_CHECKSIG", "type": "pubkeyhash"}, "value": 0.13283363, "n": 15}, {"scriptPubKey": {"reqSigs": 1, "hex": "a91428f71d9de254113bc199e0f7ab9fab2d470702aa87", "addresses": ["35Rcz7gy9YRKkyDniqgkdrd5WuC21ACcUb"], "asm": "OP_HASH160 28f71d9de254113bc199e0f7ab9fab2d470702aa OP_EQUAL", "type": "scripthash"}, "value": 0.06861082, "n": 16}, {"scriptPubKey": {"reqSigs": 1, "hex": "a914aecdf98a37f477d5a0dfe168dded048fe6c0542087", "addresses": ["3HdJFJLu576UavSdVU1RgGGcnG1EeFcHhg"], "asm": "OP_HASH160 aecdf98a37f477d5a0dfe168dded048fe6c05420 OP_EQUAL", "type": "scripthash"}, "value": 0.62294139, "n": 17}, {"scriptPubKey": {"reqSigs": 1, "hex": "a9143c6ea3669d91de686fb33a4f30a25a62828f33e287", "addresses": ["37CZ1LTkiYPKXzQLNsfFbPVhSqJuo8F4Hq"], "asm": "OP_HASH160 3c6ea3669d91de686fb33a4f30a25a62828f33e2 OP_EQUAL", "type": "scripthash"}, "value": 2.0225, "n": 18}, {"scriptPubKey": {"reqSigs": 1, "hex": "a91431f6254e7215c1a5c0d9ff175bfef996fcc8f17887", "addresses": ["36FBuSxuPM9sVTizrB6Htc6kZe7mNuHoHU"], "asm": "OP_HASH160 31f6254e7215c1a5c0d9ff175bfef996fcc8f178 OP_EQUAL", "type": "scripthash"}, "value": 0.00749234, "n": 19}, {"scriptPubKey": {"reqSigs": 1, "hex": "76a914aa04ef954818a8404d2ebf87b462a296d74e5ff488ac", "addresses": ["1GVynZa2m3cPnaFBuFN1dydfH7cxRGQ2Qy"], "asm": "OP_DUP OP_HASH160 aa04ef954818a8404d2ebf87b462a296d74e5ff4 OP_EQUALVERIFY OP_CHECKSIG", "type": "pubkeyhash"}, "value": 0.10032374, "n": 20}, {"scriptPubKey": {"reqSigs": 1, "hex": "a914a305b6f902f1c3d864cdcdf56997899ea2f719b387", "addresses": ["3GYzuswEevXFu1bTVtXLamjmHwHngNQiTh"], "asm": "OP_HASH160 a305b6f902f1c3d864cdcdf56997899ea2f719b3 OP_EQUAL", "type": "scripthash"}, "value": 0.01311867, "n": 21}, {"scriptPubKey": {"reqSigs": 1, "hex": "76a914f81f1110f34433ae406ef3ad80ae68b3afb2582a88ac", "addresses": ["1Pcwo8B143PCiJ5AWhcjkXzz3cUZPicay6"], "asm": "OP_DUP OP_HASH160 f81f1110f34433ae406ef3ad80ae68b3afb2582a OP_EQUALVERIFY OP_CHECKSIG", "type": "pubkeyhash"}, "value": 0.175, "n": 22}, {"scriptPubKey": {"reqSigs": 1, "hex": "a91422bf3e854599a88d0951c269ac212cbd555578aa87", "addresses": ["34rjzwuNgL7ogrEjiVUwrxEASSmQjrdjeG"], "asm": "OP_HASH160 22bf3e854599a88d0951c269ac212cbd555578aa OP_EQUAL", "type": "scripthash"}, "value": 1.31800078, "n": 23}, {"scriptPubKey": {"reqSigs": 1, "hex": "a91469f3766cc2a04b5be04464cc60fff863d0b2e8fc87", "addresses": ["3BMEXmFWP482JFgiVUSxYCHwdf6E4TgXU2"], "asm": "OP_HASH160 69f3766cc2a04b5be04464cc60fff863d0b2e8fc OP_EQUAL", "type": "scripthash"}, "value": 0.0305, "n": 24}, {"scriptPubKey": {"reqSigs": 1, "hex": "a91469f376aaece8cdebf887bc198dfe9ee9d2e2e55887", "addresses": ["3BMEXq5DidAPqktFGZtqjR7K32MgCY95Ko"], "asm": "OP_HASH160 69f376aaece8cdebf887bc198dfe9ee9d2e2e558 OP_EQUAL", "type": "scripthash"}, "value": 0.23927905, "n": 25}, {"scriptPubKey": {"reqSigs": 1, "hex": "76a914cfedfc9df36b9fbedcdd275cdeb9b06d6058241588ac", "addresses": ["1KxRyKbZEg3NCyEaLZEpshPuLN4oE7zktw"], "asm": "OP_DUP OP_HASH160 cfedfc9df36b9fbedcdd275cdeb9b06d60582415 OP_EQUALVERIFY OP_CHECKSIG", "type": "pubkeyhash"}, "value": 0.229, "n": 26}, {"scriptPubKey": {"reqSigs": 1, "hex": "76a914c1a984afa299047a6bfc734373eaf620089a277d88ac", "addresses": ["1JezVMyPNox6WWR5iMGQYxZ71Q1ikXJQLc"], "asm": "OP_DUP OP_HASH160 c1a984afa299047a6bfc734373eaf620089a277d OP_EQUALVERIFY OP_CHECKSIG", "type": "pubkeyhash"}, "value": 0.0065, "n": 27}, {"scriptPubKey": {"reqSigs": 1, "hex": "a914c997683f20d29c3961f76d18b7c57564340ceb6087", "addresses": ["3L4w84PeUWpuozQpBk8s2gvzssLFXuVYdi"], "asm": "OP_HASH160 c997683f20d29c3961f76d18b7c57564340ceb60 OP_EQUAL", "type": "scripthash"}, "value": 0.5394206, "n": 28}, {"scriptPubKey": {"reqSigs": 1, "hex": "76a9147cb9c9bf7e7c86bbcae96aa5c2af9cfda0cead9588ac", "addresses": ["1CNVMZzxWgBXwYEzzRs2GmcZqrThTZoqLZ"], "asm": "OP_DUP OP_HASH160 7cb9c9bf7e7c86bbcae96aa5c2af9cfda0cead95 OP_EQUALVERIFY OP_CHECKSIG", "type": "pubkeyhash"}, "value": 0.0618904, "n": 29}, {"scriptPubKey": {"reqSigs": 1, "hex": "76a9142c6801161e1811980cdde2620530a959edc73c0488ac", "addresses": ["153oKnMv7cMDMmVPGq6gyYkheHFSTi7pAz"], "asm": "OP_DUP OP_HASH160 2c6801161e1811980cdde2620530a959edc73c04 OP_EQUALVERIFY OP_CHECKSIG", "type": "pubkeyhash"}, "value": 0.5385, "n": 30}, {"scriptPubKey": {"reqSigs": 1, "hex": "76a9145e22fc73677a623f42b1c132b02c114a70c4ec7788ac", "addresses": ["19akRurx4jhSgKH7m6FkS3yaxrAA6mdZsd"], "asm": "OP_DUP OP_HASH160 5e22fc73677a623f42b1c132b02c114a70c4ec77 OP_EQUALVERIFY OP_CHECKSIG", "type": "pubkeyhash"}, "value": 0.0185, "n": 31}, {"scriptPubKey": {"reqSigs": 1, "hex": "76a91404de535618d884b6f7012e13def1264abfca75c988ac", "addresses": ["1Sk3DY4ifc2cWWANmRYpyF5LTuHvQvQFq"], "asm": "OP_DUP OP_HASH160 04de535618d884b6f7012e13def1264abfca75c9 OP_EQUALVERIFY OP_CHECKSIG", "type": "pubkeyhash"}, "value": 0.02189998, "n": 32}, {"scriptPubKey": {"reqSigs": 1, "hex": "a91469f374e90f78df4f3e6698496321969c2421043187", "addresses": ["3BMEXMQmjBtJ92mNVzUyLko6buxgCEeKaq"], "asm": "OP_HASH160 69f374e90f78df4f3e6698496321969c24210431 OP_EQUAL", "type": "scripthash"}, "value": 0.02, "n": 33}, {"scriptPubKey": {"reqSigs": 1, "hex": "a914a0d2cd574652e6266e36f63ad5b79c0a9473f22387", "addresses": ["3GMNa2MgGDZqxpuW9rNnRkPX2VCsdHApap"], "asm": "OP_HASH160 a0d2cd574652e6266e36f63ad5b79c0a9473f223 OP_EQUAL", "type": "scripthash"}, "value": 0.21488377, "n": 34}, {"scriptPubKey": {"reqSigs": 1, "hex": "a91477f9abf4e2df656c29f13fd83e0c3170bac35c8587", "addresses": ["3CdPRsAmK4gLeb9Vb3MwvU4mh8tFs9rDoN"], "asm": "OP_HASH160 77f9abf4e2df656c29f13fd83e0c3170bac35c85 OP_EQUAL", "type": "scripthash"}, "value": 0.0135, "n": 35}, {"scriptPubKey": {"reqSigs": 1, "hex": "a9146d3aa0e6f4d5337470a6cc41ff4ee58e462170ea87", "addresses": ["3BeZp2xSmckn7S9qy1Up6tNihnVQ4YMJV1"], "asm": "OP_HASH160 6d3aa0e6f4d5337470a6cc41ff4ee58e462170ea OP_EQUAL", "type": "scripthash"}, "value": 0.01014562, "n": 36}, {"scriptPubKey": {"reqSigs": 1, "hex": "a91469f37606518180397a2d35ff9171f21c39879ddc87", "addresses": ["3BMEXex9Vzz3U4SXAuukbHnS7SBbkMVJdF"], "asm": "OP_HASH160 69f37606518180397a2d35ff9171f21c39879ddc OP_EQUAL", "type": "scripthash"}, "value": 0.0688, "n": 37}, {"scriptPubKey": {"reqSigs": 1, "hex": "a9141d982e471f7f694d3e653cc4ecedd8dd7fed3c8c87", "addresses": ["34PVpp4pQSM9MwkCgTTayLBkVhvPDpyVdN"], "asm": "OP_HASH160 1d982e471f7f694d3e653cc4ecedd8dd7fed3c8c OP_EQUAL", "type": "scripthash"}, "value": 1.3343948, "n": 38}, {"scriptPubKey": {"reqSigs": 1, "hex": "a914d4d615bf30c2115f810b80307ec5acfbb3fb584c87", "addresses": ["3M6Pe6TBBkEygf9tYBY9um2ikVAHJ1tcvj"], "asm": "OP_HASH160 d4d615bf30c2115f810b80307ec5acfbb3fb584c OP_EQUAL", "type": "scripthash"}, "value": 0.0049, "n": 39}, {"scriptPubKey": {"reqSigs": 1, "hex": "76a914a219fe3276c95ab3f48a1e7d62853d0e2920afaa88ac", "addresses": ["1Fn7c6jdKA779Rn7UH1eP5vYZVy8GfaaXS"], "asm": "OP_DUP OP_HASH160 a219fe3276c95ab3f48a1e7d62853d0e2920afaa OP_EQUALVERIFY OP_CHECKSIG", "type": "pubkeyhash"}, "value": 0.48414934, "n": 40}, {"scriptPubKey": {"reqSigs": 1, "hex": "a9144b7779d0344acfeba51d461039e7dbf16794adee87", "addresses": ["38a3jFtLk6oNWV8uBsqqJZjH9hEe7498PD"], "asm": "OP_HASH160 4b7779d0344acfeba51d461039e7dbf16794adee OP_EQUAL", "type": "scripthash"}, "value": 0.00447, "n": 41}, {"scriptPubKey": {"reqSigs": 1, "hex": "a9144f8952912c9c174a946a9c092d248d2667c0f37a87", "addresses": ["38wZp2yVZJPwjnjk8nELHGxJBdF3xbYXMT"], "asm": "OP_HASH160 4f8952912c9c174a946a9c092d248d2667c0f37a OP_EQUAL", "type": "scripthash"}, "value": 0.04185439, "n": 42}, {"scriptPubKey": {"reqSigs": 1, "hex": "76a9140ba7cd7e1d838cb1fb4991c5a5b8e4ae3df02adc88ac", "addresses": ["124dTFJHs5U8NiSWU7aFfHVmxnJmhHk8kt"], "asm": "OP_DUP OP_HASH160 0ba7cd7e1d838cb1fb4991c5a5b8e4ae3df02adc OP_EQUALVERIFY OP_CHECKSIG", "type": "pubkeyhash"}, "value": 0.003939, "n": 43}, {"scriptPubKey": {"reqSigs": 1, "hex": "76a914e6483be4500a7774389df1ec338c273ee4901efb88ac", "addresses": ["1Mzcx2PkhuQRc2ngwh9br4kDQWZ1Dm2qBA"], "asm": "OP_DUP OP_HASH160 e6483be4500a7774389df1ec338c273ee4901efb OP_EQUALVERIFY OP_CHECKSIG", "type": "pubkeyhash"}, "value": 0.4085, "n": 44}, {"scriptPubKey": {"reqSigs": 1, "hex": "a914675e50004beb9ef7dcf666ecb5c5a1eac7dca32087", "addresses": ["3B7aWFTCDApWDaWpUFuBLEV4iqoo5FHSTx"], "asm": "OP_HASH160 675e50004beb9ef7dcf666ecb5c5a1eac7dca320 OP_EQUAL", "type": "scripthash"}, "value": 0.0185, "n": 45}, {"scriptPubKey": {"reqSigs": 1, "hex": "a914db0afe36f53bea9ce4eccf9f8e89b86dc08fb3cd87", "addresses": ["3MfD5N2vskAENxRhLzqQDrCNS2PvAQtKWB"], "asm": "OP_HASH160 db0afe36f53bea9ce4eccf9f8e89b86dc08fb3cd OP_EQUAL", "type": "scripthash"}, "value": 1.18, "n": 46}, {"scriptPubKey": {"reqSigs": 1, "hex": "a9145a604fc1ef0d304b21a8f6f7a4e3115b87d2e0fe87", "addresses": ["39vt7eoHRgEvHigSZGpVFjkimVmpdTtA9i"], "asm": "OP_HASH160 5a604fc1ef0d304b21a8f6f7a4e3115b87d2e0fe OP_EQUAL", "type": "scripthash"}, "value": 0.00591045, "n": 47}, {"scriptPubKey": {"reqSigs": 1, "hex": "a914f85e75e37653dfc615fa990fe19b82a6e8ccaa9c87", "addresses": ["3QLGfMAQk6e7ZL4NZBdRoE6hsn1NEvi6Cx"], "asm": "OP_HASH160 f85e75e37653dfc615fa990fe19b82a6e8ccaa9c OP_EQUAL", "type": "scripthash"}, "value": 0.21146185, "n": 48}, {"scriptPubKey": {"reqSigs": 1, "hex": "a9142cc886481f7ad96688d30bb130f91a4bc911616d87", "addresses": ["35mosg1jknBBFbFc3ZcWj17tCc2cegev9N"], "asm": "OP_HASH160 2cc886481f7ad96688d30bb130f91a4bc911616d OP_EQUAL", "type": "scripthash"}, "value": 0.00422687, "n": 49}, {"scriptPubKey": {"reqSigs": 1, "hex": "a91469f3740bb46af483b71564dc398fc43739d3a8b687", "addresses": ["3BMEX7oJd9hwf1cTwiaM9aZhZ4XaR16Cos"], "asm": "OP_HASH160 69f3740bb46af483b71564dc398fc43739d3a8b6 OP_EQUAL", "type": "scripthash"}, "value": 0.01749699, "n": 50}, {"scriptPubKey": {"reqSigs": 1, "hex": "a914a10c2d38af628f56e5bec7cb9792cd656e6c0b8f87", "addresses": ["3GNZJUbjzdx3iMEGXYYoEUbzRSvtTCj7pi"], "asm": "OP_HASH160 a10c2d38af628f56e5bec7cb9792cd656e6c0b8f OP_EQUAL", "type": "scripthash"}, "value": 0.0155, "n": 51}, {"scriptPubKey": {"reqSigs": 1, "hex": "76a914bb686998beebccd2d791170eaf53db68ca2616ad88ac", "addresses": ["1J5vSaayoe1uxoCXo9pShqNzeQjTQ3haPN"], "asm": "OP_DUP OP_HASH160 bb686998beebccd2d791170eaf53db68ca2616ad OP_EQUALVERIFY OP_CHECKSIG", "type": "pubkeyhash"}, "value": 0.15676887, "n": 52}, {"scriptPubKey": {"reqSigs": 1, "hex": "76a9143301e48bc16c118d303a156b14521420a0560fb588ac", "addresses": ["15ehjJ5XMZDxCKthxcRGTTkTHAqVC15Q1u"], "asm": "OP_DUP OP_HASH160 3301e48bc16c118d303a156b14521420a0560fb5 OP_EQUALVERIFY OP_CHECKSIG", "type": "pubkeyhash"}, "value": 0.1995, "n": 53}, {"scriptPubKey": {"reqSigs": 1, "hex": "a914bea6c877d95f7091dd2081df3addbb1ab046597a87", "addresses": ["3K567HNGg7WM13FuxT4z4F1eUbRC781nCm"], "asm": "OP_HASH160 bea6c877d95f7091dd2081df3addbb1ab046597a OP_EQUAL", "type": "scripthash"}, "value": 4.0, "n": 54}, {"scriptPubKey": {"reqSigs": 1, "hex": "a91489450be25501c742810ec267dbdc066002a52dfa87", "addresses": ["3ECqDFgsNjR9bDX9Ffvpw36nCntEKVaMDq"], "asm": "OP_HASH160 89450be25501c742810ec267dbdc066002a52dfa OP_EQUAL", "type": "scripthash"}, "value": 0.00548, "n": 55}, {"scriptPubKey": {"reqSigs": 1, "hex": "76a914d4cbf5b5e185b8e881a6e927760f3f90d56d391688ac", "addresses": ["1LQAb3YWEFYV7fM9pCofnjepSL2JvurVe2"], "asm": "OP_DUP OP_HASH160 d4cbf5b5e185b8e881a6e927760f3f90d56d3916 OP_EQUALVERIFY OP_CHECKSIG", "type": "pubkeyhash"}, "value": 0.0203216, "n": 56}, {"scriptPubKey": {"reqSigs": 1, "hex": "76a9140d977c52ee7e56f38b1a2708cdd0697d70b928d388ac", "addresses": ["12EsFuEfwGiamyL6nP1KYMmVCHGKQTYeP9"], "asm": "OP_DUP OP_HASH160 0d977c52ee7e56f38b1a2708cdd0697d70b928d3 OP_EQUALVERIFY OP_CHECKSIG", "type": "pubkeyhash"}, "value": 0.9995, "n": 57}, {"scriptPubKey": {"reqSigs": 1, "hex": "a914e35bdae22da5606c24b48a74e1cca9221a71114f87", "addresses": ["3NRBMHdQ944ecjQVSD7KYxGvm7XQUXegV5"], "asm": "OP_HASH160 e35bdae22da5606c24b48a74e1cca9221a71114f OP_EQUAL", "type": "scripthash"}, "value": 0.00555806, "n": 58}, {"scriptPubKey": {"reqSigs": 1, "hex": "a914e5fdda69c3086fab248b4d437e5ca279852d4d4387", "addresses": ["3Nf6mW12XEBiJtLZBXndNCTLvg9AmGSdxs"], "asm": "OP_HASH160 e5fdda69c3086fab248b4d437e5ca279852d4d43 OP_EQUAL", "type": "scripthash"}, "value": 4.0725, "n": 59}, {"scriptPubKey": {"reqSigs": 1, "hex": "a914f1fddf44fcdb095c330fa5a089a5bf35c5be265387", "addresses": ["3PkYu7xpEp3nYp21kbGijNLSAufP2itgRM"], "asm": "OP_HASH160 f1fddf44fcdb095c330fa5a089a5bf35c5be2653 OP_EQUAL", "type": "scripthash"}, "value": 0.1995, "n": 60}, {"scriptPubKey": {"reqSigs": 1, "hex": "76a914175a51ab84837cdc1ae707baab5789bc556fe21288ac", "addresses": ["138UjtVmYRzVbsVV1rANxbzVee5q3S5BVr"], "asm": "OP_DUP OP_HASH160 175a51ab84837cdc1ae707baab5789bc556fe212 OP_EQUALVERIFY OP_CHECKSIG", "type": "pubkeyhash"}, "value": 0.4995, "n": 61}, {"scriptPubKey": {"reqSigs": 1, "hex": "a914e9285b4ef846681625df973c90bb11771bd84a4c87", "addresses": ["3NwqiGgCgY9eFsAke6oNZ9cMbUAS5ztKKd"], "asm": "OP_HASH160 e9285b4ef846681625df973c90bb11771bd84a4c OP_EQUAL", "type": "scripthash"}, "value": 0.01044252, "n": 62}, {"scriptPubKey": {"reqSigs": 1, "hex": "76a9149805583f875a20afc8ad57ee586f91b38e387a7a88ac", "addresses": ["1Erp7WvGoVHQdL1LTSvaEpLQCfJG2a4iqn"], "asm": "OP_DUP OP_HASH160 9805583f875a20afc8ad57ee586f91b38e387a7a OP_EQUALVERIFY OP_CHECKSIG", "type": "pubkeyhash"}, "value": 0.00670404, "n": 63}], "hex": "02000000082941d071b55c7c44b6e0a9060e8d59b75cef5c0445b407a169c3d1794bd32c1e2f0000006a4730440220520a1f528895da891fa3c2991f33edbbeb41b4d804d20880a79d15c917d0987402205136ecaa3d8ccf14317a528e9d2192bd9289e1c172b6a03a764f01ec821691210121024802482fd86825b3dc77efcea9bae6b5f3fdb6022964cf92ec26ee1b5ab0c28afeffffff76feda89c412250cf67d9e943bfd5e80c3675a9b6b052573c9bcd9b3f4adac64010000006b483045022100ed79407c3bf771e9dec5b2c44ecd91f0b51fe5569d2d2cbaa978b9bc3075b8c902203dbd0679f8e3e1103d3d8831324d98f28bc419ad672878a1db614b1ea9a45e27012102679a681d9b5bf5c672e0413997762664a17009038674b806bf27dd6b368d9b67feffffff91a198c03105da43cafbd272cdd905f3c3235670bd1133bdc524385bcf5b4db41e0000006a4730440220699abfc1c5d925307058ae7d5ac3c677bdbd0a1878a3f683f6a41c156b90f9d6022008f5bbb89017aaf8458517b21f01f924b422fc141f05b70bb326694e9d174c47012103f49fcc7f6a01fb59d9f6fa107bb9246a1e13425424485c37bf4d6525b70553edfeffffff9c5ce148533b992c5a0fdb1d9ab42da57d0f1640d95951dc35c809497276826f000000006b483045022100d1fac308c37121582b75b25893150129ff88821b10eb83e011bcff4820fd3892022046ae6607654dfb5c96a2c3b0b5030ac1213d402e9d7aaa5cae752e660ea53436012102679a681d9b5bf5c672e0413997762664a17009038674b806bf27dd6b368d9b67feffffffa273a17451c756f6e9dc856c7c517bcbb52c2d360c5211c42a8b4e1712e80276230000006a473044022029f17ef4921b7159f2dbdfe4450049100e3e06cc0a44cd26e702b1ee053b3a9c02200c6203ca9eb0a2beff3108bd8b9deecc0ad0031ea718c8578339fbf5c542a0ed012103370f19ae56f9a07e5e5b38ed420de3cf3a642b4b1554e52f80286eaf34fb6903feffffffc9d3117831c3c2cf6dd7a47bbf6c56f3b046c8430865af76978b394940c7d3ed330000006a4730440220560fff820a39de68bc18fb162f2048f9683c434a5c6ad65bdfd63714e526c6270220635d9159dc2fdecdb2d3f7b6456c5a439ec9cb388023b37eed79e6c7f2f559c50121022fb5c6617a239a118e2242a7f5e5a399f574c58db2a8afc0080d74c59186f622feffffffcf841838acb9f4d9528b728f124084c6613aff3ff35011cec1969883055a597a2d0000006b483045022100e64fd7756738d6cf4d11ab5b6417a33e24276dc316f91f59c42495cc941189cd022031c27d4cd1e3b5b9a798af85cde0cb9802f3dbf2c385931c412059286d74501901210370d718a84340ef349ef05a7d4762746500cd0449e2bd319e42d1bab9abbafbf9feffffffd1b2600a17491f080f355b1fb8b51e5ad4106def4a8cb80e37679faa70a20470260000006b483045022100f5f5ca6456b6b9fff195833a75ed8642d1ba9df2d5750d67b8d1f167b3482a5902201de40837d760c7ee8710322fc0eb1701be4591b1ea05b6c1eb80083069a65f6d012102288d77d420cc7044afe47431fb7309cdce6b8d5f5be51255b458b5fd33581475feffffff404fb06a00000000001976a91441802a63d62194a694e451d9fe5382ec02f22bb688aca0af0f00000000001976a91403fd734667e3e3dcaa8235184d9b125b9663cf7a88ac04738d00000000001976a9141095407dd26471aa83df7a5ca358cc331c4d199a88acd8750c00000000001976a91493dbae4b035c12d0fc9306f09e3ce8d1f5f4b9c488ac65e22f00000000001976a91497a47daa0f6211ad33cfb5243034fc7c03559c3e88acf07e0e000000000017a914ff3895912fd21f29adcb0ed67afbe4105fe3991e87d8771400000000001976a91466a025f89d85abf03e92264617d0afa60f057f3e88acd2530c00000000001976a914a0f4378ffb4bf428bdc78726841f7b707568651688acb0feea0b0000000017a914b475866c5ade75c5445dd2c740c1ce7c999fecdd87ea5202000000000017a9145a79af85a49367870b70ffaadb744af3365726f387a8306e01000000001976a9141ed84c2bc213e2cb36cfa5bdf2e88512cbc4960688acf72f81000000000017a914bf448b088b6843a4b3b813a0b152193777d7d043873b791500000000001976a9147bf679f074e3e567187cbedbe48f84827f2784fc88ac7a3d8b000000000017a91469f375c387b32fd1c95a52e31583910ddf54745087e96110010000000017a91469f377084e204cd00ded076db310b086bbf2d2348723b0ca00000000001976a914d23b49250b138e79c70e721709efd6776fc3c48888ac1ab168000000000017a91428f71d9de254113bc199e0f7ab9fab2d470702aa877b88b6030000000017a914aecdf98a37f477d5a0dfe168dded048fe6c054208710170e0c0000000017a9143c6ea3669d91de686fb33a4f30a25a62828f33e287b26e0b000000000017a91431f6254e7215c1a5c0d9ff175bfef996fcc8f17887f6149900000000001976a914aa04ef954818a8404d2ebf87b462a296d74e5ff488ac7b0414000000000017a914a305b6f902f1c3d864cdcdf56997899ea2f719b38760070b01000000001976a914f81f1110f34433ae406ef3ad80ae68b3afb2582a88ac0e1cdb070000000017a91422bf3e854599a88d0951c269ac212cbd555578aa87108a2e000000000017a91469f3766cc2a04b5be04464cc60fff863d0b2e8fc87611c6d010000000017a91469f376aaece8cdebf887bc198dfe9ee9d2e2e55887206d5d01000000001976a914cfedfc9df36b9fbedcdd275cdeb9b06d6058241588ac10eb0900000000001976a914c1a984afa299047a6bfc734373eaf620089a277d88ac2c1737030000000017a914c997683f20d29c3961f76d18b7c57564340ceb6087f06f5e00000000001976a9147cb9c9bf7e7c86bbcae96aa5c2af9cfda0cead9588ac90af3503000000001976a9142c6801161e1811980cdde2620530a959edc73c0488ac903a1c00000000001976a9145e22fc73677a623f42b1c132b02c114a70c4ec7788acae6a2100000000001976a91404de535618d884b6f7012e13def1264abfca75c988ac80841e000000000017a91469f374e90f78df4f3e6698496321969c2421043187f9e247010000000017a914a0d2cd574652e6266e36f63ad5b79c0a9473f22387709914000000000017a91477f9abf4e2df656c29f13fd83e0c3170bac35c8587227b0f000000000017a9146d3aa0e6f4d5337470a6cc41ff4ee58e462170ea8700fb68000000000017a91469f37606518180397a2d35ff9171f21c39879ddc87f81ff4070000000017a9141d982e471f7f694d3e653cc4ecedd8dd7fed3c8c87107a07000000000017a914d4d615bf30c2115f810b80307ec5acfbb3fb584c87d6c0e202000000001976a914a219fe3276c95ab3f48a1e7d62853d0e2920afaa88ac18d206000000000017a9144b7779d0344acfeba51d461039e7dbf16794adee875fdd3f000000000017a9144f8952912c9c174a946a9c092d248d2667c0f37a87ac020600000000001976a9140ba7cd7e1d838cb1fb4991c5a5b8e4ae3df02adc88ac50526f02000000001976a914e6483be4500a7774389df1ec338c273ee4901efb88ac903a1c000000000017a914675e50004beb9ef7dcf666ecb5c5a1eac7dca32087808908070000000017a914db0afe36f53bea9ce4eccf9f8e89b86dc08fb3cd87c50409000000000017a9145a604fc1ef0d304b21a8f6f7a4e3115b87d2e0fe8749aa42010000000017a914f85e75e37653dfc615fa990fe19b82a6e8ccaa9c871f7306000000000017a9142cc886481f7ad96688d30bb130f91a4bc911616d87c3b21a000000000017a91469f3740bb46af483b71564dc398fc43739d3a8b687b0a617000000000017a914a10c2d38af628f56e5bec7cb9792cd656e6c0b8f87d735ef00000000001976a914bb686998beebccd2d791170eaf53db68ca2616ad88acb0693001000000001976a9143301e48bc16c118d303a156b14521420a0560fb588ac0084d7170000000017a914bea6c877d95f7091dd2081df3addbb1ab046597a87a05c08000000000017a91489450be25501c742810ec267dbdc066002a52dfa8720021f00000000001976a914d4cbf5b5e185b8e881a6e927760f3f90d56d391688acb01df505000000001976a9140d977c52ee7e56f38b1a2708cdd0697d70b928d388ac1e7b08000000000017a914e35bdae22da5606c24b48a74e1cca9221a71114f87502446180000000017a914e5fdda69c3086fab248b4d437e5ca279852d4d4387b06930010000000017a914f1fddf44fcdb095c330fa5a089a5bf35c5be265387302dfa02000000001976a914175a51ab84837cdc1ae707baab5789bc556fe21288ac1cef0f000000000017a914e9285b4ef846681625df973c90bb11771bd84a4c87c43a0a00000000001976a9149805583f875a20afc8ad57ee586f91b38e387a7a88ac14490800", "vin": [{"sequence": 4294967294, "scriptSig": {"hex": "4730440220520a1f528895da891fa3c2991f33edbbeb41b4d804d20880a79d15c917d0987402205136ecaa3d8ccf14317a528e9d2192bd9289e1c172b6a03a764f01ec821691210121024802482fd86825b3dc77efcea9bae6b5f3fdb6022964cf92ec26ee1b5ab0c28a", "asm": "30440220520a1f528895da891fa3c2991f33edbbeb41b4d804d20880a79d15c917d0987402205136ecaa3d8ccf14317a528e9d2192bd9289e1c172b6a03a764f01ec82169121[ALL] 024802482fd86825b3dc77efcea9bae6b5f3fdb6022964cf92ec26ee1b5ab0c28a"}, "vout": 47, "txid": "1e2cd34b79d1c369a107b445045cef5cb7598d0e06a9e0b6447c5cb571d04129"}, {"sequence": 4294967294, "scriptSig": {"hex": "483045022100ed79407c3bf771e9dec5b2c44ecd91f0b51fe5569d2d2cbaa978b9bc3075b8c902203dbd0679f8e3e1103d3d8831324d98f28bc419ad672878a1db614b1ea9a45e27012102679a681d9b5bf5c672e0413997762664a17009038674b806bf27dd6b368d9b67", "asm": "3045022100ed79407c3bf771e9dec5b2c44ecd91f0b51fe5569d2d2cbaa978b9bc3075b8c902203dbd0679f8e3e1103d3d8831324d98f28bc419ad672878a1db614b1ea9a45e27[ALL] 02679a681d9b5bf5c672e0413997762664a17009038674b806bf27dd6b368d9b67"}, "vout": 1, "txid": "64acadf4b3d9bcc97325056b9b5a67c3805efd3b949e7df60c2512c489dafe76"}, {"sequence": 4294967294, "scriptSig": {"hex": "4730440220699abfc1c5d925307058ae7d5ac3c677bdbd0a1878a3f683f6a41c156b90f9d6022008f5bbb89017aaf8458517b21f01f924b422fc141f05b70bb326694e9d174c47012103f49fcc7f6a01fb59d9f6fa107bb9246a1e13425424485c37bf4d6525b70553ed", "asm": "30440220699abfc1c5d925307058ae7d5ac3c677bdbd0a1878a3f683f6a41c156b90f9d6022008f5bbb89017aaf8458517b21f01f924b422fc141f05b70bb326694e9d174c47[ALL] 03f49fcc7f6a01fb59d9f6fa107bb9246a1e13425424485c37bf4d6525b70553ed"}, "vout": 30, "txid": "b44d5bcf5b3824c5bd3311bd705623c3f305d9cd72d2fbca43da0531c098a191"}, {"sequence": 4294967294, "scriptSig": {"hex": "483045022100d1fac308c37121582b75b25893150129ff88821b10eb83e011bcff4820fd3892022046ae6607654dfb5c96a2c3b0b5030ac1213d402e9d7aaa5cae752e660ea53436012102679a681d9b5bf5c672e0413997762664a17009038674b806bf27dd6b368d9b67", "asm": "3045022100d1fac308c37121582b75b25893150129ff88821b10eb83e011bcff4820fd3892022046ae6607654dfb5c96a2c3b0b5030ac1213d402e9d7aaa5cae752e660ea53436[ALL] 02679a681d9b5bf5c672e0413997762664a17009038674b806bf27dd6b368d9b67"}, "vout": 0, "txid": "6f8276724909c835dc5159d940160f7da52db49a1ddb0f5a2c993b5348e15c9c"}, {"sequence": 4294967294, "scriptSig": {"hex": "473044022029f17ef4921b7159f2dbdfe4450049100e3e06cc0a44cd26e702b1ee053b3a9c02200c6203ca9eb0a2beff3108bd8b9deecc0ad0031ea718c8578339fbf5c542a0ed012103370f19ae56f9a07e5e5b38ed420de3cf3a642b4b1554e52f80286eaf34fb6903", "asm": "3044022029f17ef4921b7159f2dbdfe4450049100e3e06cc0a44cd26e702b1ee053b3a9c02200c6203ca9eb0a2beff3108bd8b9deecc0ad0031ea718c8578339fbf5c542a0ed[ALL] 03370f19ae56f9a07e5e5b38ed420de3cf3a642b4b1554e52f80286eaf34fb6903"}, "vout": 35, "txid": "7602e812174e8b2ac411520c362d2cb5cb7b517c6c85dce9f656c75174a173a2"}, {"sequence": 4294967294, "scriptSig": {"hex": "4730440220560fff820a39de68bc18fb162f2048f9683c434a5c6ad65bdfd63714e526c6270220635d9159dc2fdecdb2d3f7b6456c5a439ec9cb388023b37eed79e6c7f2f559c50121022fb5c6617a239a118e2242a7f5e5a399f574c58db2a8afc0080d74c59186f622", "asm": "30440220560fff820a39de68bc18fb162f2048f9683c434a5c6ad65bdfd63714e526c6270220635d9159dc2fdecdb2d3f7b6456c5a439ec9cb388023b37eed79e6c7f2f559c5[ALL] 022fb5c6617a239a118e2242a7f5e5a399f574c58db2a8afc0080d74c59186f622"}, "vout": 51, "txid": "edd3c74049398b9776af650843c846b0f3566cbf7ba4d76dcfc2c3317811d3c9"}, {"sequence": 4294967294, "scriptSig": {"hex": "483045022100e64fd7756738d6cf4d11ab5b6417a33e24276dc316f91f59c42495cc941189cd022031c27d4cd1e3b5b9a798af85cde0cb9802f3dbf2c385931c412059286d74501901210370d718a84340ef349ef05a7d4762746500cd0449e2bd319e42d1bab9abbafbf9", "asm": "3045022100e64fd7756738d6cf4d11ab5b6417a33e24276dc316f91f59c42495cc941189cd022031c27d4cd1e3b5b9a798af85cde0cb9802f3dbf2c385931c412059286d745019[ALL] 0370d718a84340ef349ef05a7d4762746500cd0449e2bd319e42d1bab9abbafbf9"}, "vout": 45, "txid": "7a595a05839896c1ce1150f33fff3a61c68440128f728b52d9f4b9ac381884cf"}, {"sequence": 4294967294, "scriptSig": {"hex": "483045022100f5f5ca6456b6b9fff195833a75ed8642d1ba9df2d5750d67b8d1f167b3482a5902201de40837d760c7ee8710322fc0eb1701be4591b1ea05b6c1eb80083069a65f6d012102288d77d420cc7044afe47431fb7309cdce6b8d5f5be51255b458b5fd33581475", "asm": "3045022100f5f5ca6456b6b9fff195833a75ed8642d1ba9df2d5750d67b8d1f167b3482a5902201de40837d760c7ee8710322fc0eb1701be4591b1ea05b6c1eb80083069a65f6d[ALL] 02288d77d420cc7044afe47431fb7309cdce6b8d5f5be51255b458b5fd33581475"}, "vout": 38, "txid": "7004a270aa9f67370eb88c4aef6d10d45a1eb5b81f5b350f081f49170a60b2d1"}], "txid": "fb37aa4fa79268e4513185882c73ee80bc5aea1f14b5af51f2e5ced6f643ad8c", "blocktime": 1537873891, "version": 2, "confirmations": 11474, "time": 1537873891, "locktime": 542996, "vsize": 3292, "size": 3292}