{"hash": "fb3c79fe583a2681974a0137164863984efd795deeff8486e399e9a96c65d43f", "blockhash": "0000000000000000001f76057863aec43deb6fa401d9628bb513d65a8098bfab", "vout": [{"scriptPubKey": {"reqSigs": 1, "hex": "a914bd3c4d6535faec8d5c0b275670ffaca023e2b0ad87", "addresses": ["3JwbsgKXuykKRkXtNzNuRbs2hovoKyW4Ks"], "asm": "OP_HASH160 bd3c4d6535faec8d5c0b275670ffaca023e2b0ad OP_EQUAL", "type": "scripthash"}, "value": 0.00280076, "n": 0}, {"scriptPubKey": {"reqSigs": 1, "hex": "a914bf8e12b51bf537cdbbb25ce76a202dce630d454f87", "addresses": ["3K9sBbPbvVeccfFnEYaJg86bkZTuM5ZknP"], "asm": "OP_HASH160 bf8e12b51bf537cdbbb25ce76a202dce630d454f OP_EQUAL", "type": "scripthash"}, "value": 0.01718801, "n": 1}], "hex": "02000000017812da43aa1f78d8ed55fcfb4159dc85e13b8bd2798b62d6b964926d758651770f000000fdfd0000483045022100a4a02929f44b208517335f6b6e0450df7d8fe7b253e2c40dabbdb766519d291902205360cd55ee070333118fdceeb13d449e233feccd3ca5e61ce97c0ad62f7cdcf30147304402207613b3636bdf60ca3b08c313665142fdfde1abe2fefa9b065d0b5930d9862c470220659a1d6018df790862fd252ff8dfdf33fe37d4bb443baf443284d7cf2e4ffbca014c69522103680ce6e856212ffc2fe036f3127d59e232b3e3d1c69628dc170809b0058d220521028a770b6816065f0e6cd524a6242d1ea8fd3859ce564ea3632960f2873a9e14e3210222967f51987ff726fdbaa1b8fbaed2207139e0dfb6d53df561b27873c7592b4853aeffffffff020c4604000000000017a914bd3c4d6535faec8d5c0b275670ffaca023e2b0ad87113a1a000000000017a914bf8e12b51bf537cdbbb25ce76a202dce630d454f8700000000", "vin": [{"sequence": 4294967295, "scriptSig": {"hex": "00483045022100a4a02929f44b208517335f6b6e0450df7d8fe7b253e2c40dabbdb766519d291902205360cd55ee070333118fdceeb13d449e233feccd3ca5e61ce97c0ad62f7cdcf30147304402207613b3636bdf60ca3b08c313665142fdfde1abe2fefa9b065d0b5930d9862c470220659a1d6018df790862fd252ff8dfdf33fe37d4bb443baf443284d7cf2e4ffbca014c69522103680ce6e856212ffc2fe036f3127d59e232b3e3d1c69628dc170809b0058d220521028a770b6816065f0e6cd524a6242d1ea8fd3859ce564ea3632960f2873a9e14e3210222967f51987ff726fdbaa1b8fbaed2207139e0dfb6d53df561b27873c7592b4853ae", "asm": "0 3045022100a4a02929f44b208517335f6b6e0450df7d8fe7b253e2c40dabbdb766519d291902205360cd55ee070333118fdceeb13d449e233feccd3ca5e61ce97c0ad62f7cdcf3[ALL] 304402207613b3636bdf60ca3b08c313665142fdfde1abe2fefa9b065d0b5930d9862c470220659a1d6018df790862fd252ff8dfdf33fe37d4bb443baf443284d7cf2e4ffbca[ALL] 522103680ce6e856212ffc2fe036f3127d59e232b3e3d1c69628dc170809b0058d220521028a770b6816065f0e6cd524a6242d1ea8fd3859ce564ea3632960f2873a9e14e3210222967f51987ff726fdbaa1b8fbaed2207139e0dfb6d53df561b27873c7592b4853ae"}, "vout": 15, "txid": "775186756d9264b9d6628b79d28b3be185dc5941fbfc55edd8781faa43da1278"}], "txid": "fb3c79fe583a2681974a0137164863984efd795deeff8486e399e9a96c65d43f", "blocktime": 1537873891, "version": 2, "confirmations": 11478, "time": 1537873891, "locktime": 0, "vsize": 370, "size": 370}