{"hash": "b5bfc3162798a2dedcd430f27d1a82928b5876f5100e8f64e8a094ab619d70a4", "blockhash": "0000000000000000001f76057863aec43deb6fa401d9628bb513d65a8098bfab", "vout": [{"scriptPubKey": {"reqSigs": 1, "hex": "a914d1f83dee8fe85805b62a4f243ed04c22ff9e8a1d87", "addresses": ["3LqEXnd3JzUe54pQnrv3pgYqVUCQ2sSVbJ"], "asm": "OP_HASH160 d1f83dee8fe85805b62a4f243ed04c22ff9e8a1d OP_EQUAL", "type": "scripthash"}, "value": 0.00994685, "n": 0}, {"scriptPubKey": {"reqSigs": 1, "hex": "a914100e01c28ec96b33293911c908753d149665021987", "addresses": ["339uWpxtSk1QA2pakTaWAy3fu7VrjEf4bj"], "asm": "OP_HASH160 100e01c28ec96b33293911c908753d1496650219 OP_EQUAL", "type": "scripthash"}, "value": 0.004, "n": 1}], "hex": "0200000000010401978eb8989bfe533582c12c8d743365a3bb7675fa00dbf892304ec4b02f7d530100000017160014717b03cdbe45c279ff8042ae455aaddfc6bd97effeffffff02b387acda6bc2fb41a324fcbe07d2901fcfc5799051ee9e8e0855c5a8fd39e10800000017160014ffac90c7fd182cb3728bda3bd0af677c656011cefeffffff84bda0c5af03391db8e77ccaa3a6cacc1b50ec4b6d175835577545f495c5d613070000001716001474a6a1f2f5aabb15ca9bb3ba59d66743c6073456feffffff99b4e5539d22904b505c6be6efd989fb38b116a7b7a2240873422192ce94da5a01000000171600145caa4e1f5247a2a72ae4e50cf3cb2f949b5cd6ccfeffffff027d2d0f000000000017a914d1f83dee8fe85805b62a4f243ed04c22ff9e8a1d87801a06000000000017a914100e01c28ec96b33293911c908753d149665021987024830450221008737fcd3e0cb40a87265cd61a7673ff85182e9294d05ea7e1c8891bf1c1940ec0220470eb0c9b9d1b5afcf20faaa3dd172bce0d19fc401edba3f71aa88c0bd48d539012103093873d73caf9213c10bc26df6788bd6012e90f8414df8000115270cbb0c6eb202483045022100a44d2106e819f90a561eb73401105bacde931ad1b0c5d5972f08da7285058ad602201751dd88b81f7e3562e7d452f8e58c7472cee830dad084e580810ce24dc98ddd012103947c4b2f5fcb08f368e2847e61f5b3461a0fd33d488afacf5bebe85a63f5168e024830450221009e1db4edd5d55c1781b1b7dd276993b82d3a1e77a58829c3b1023b0cf441837a022006e70ec1e882c40f328e73bc71c033483831561e0fdcabfef042f1d5db68c49a012103622937c5e36456b245ec342bb3324fd7c6763d76214a6a475f7004fda540e46d02483045022100e3de882769f5a472a6dadb4b05730b1a68705d3ac749222a1055365733829216022012bd5d8478617697292d0de19922a76af6a4f2d0dddf2d56061df656a76cd9d10121037857c2bac05059fa2b3eda9b84f0ee3348184f7cdf4f46f7ef1d853b7236019a14490800", "vin": [{"txinwitness": ["30450221008737fcd3e0cb40a87265cd61a7673ff85182e9294d05ea7e1c8891bf1c1940ec0220470eb0c9b9d1b5afcf20faaa3dd172bce0d19fc401edba3f71aa88c0bd48d53901", "03093873d73caf9213c10bc26df6788bd6012e90f8414df8000115270cbb0c6eb2"], "sequence": 4294967294, "scriptSig": {"hex": "160014717b03cdbe45c279ff8042ae455aaddfc6bd97ef", "asm": "0014717b03cdbe45c279ff8042ae455aaddfc6bd97ef"}, "vout": 1, "txid": "537d2fb0c44e3092f8db00fa7576bba36533748d2cc1823553fe9b98b88e9701"}, {"txinwitness": ["3045022100a44d2106e819f90a561eb73401105bacde931ad1b0c5d5972f08da7285058ad602201751dd88b81f7e3562e7d452f8e58c7472cee830dad084e580810ce24dc98ddd01", "03947c4b2f5fcb08f368e2847e61f5b3461a0fd33d488afacf5bebe85a63f5168e"], "sequence": 4294967294, "scriptSig": {"hex": "160014ffac90c7fd182cb3728bda3bd0af677c656011ce", "asm": "0014ffac90c7fd182cb3728bda3bd0af677c656011ce"}, "vout": 8, "txid": "e139fda8c555088e9eee519079c5cf1f90d207befc24a341fbc26bdaac87b302"}, {"txinwitness": ["30450221009e1db4edd5d55c1781b1b7dd276993b82d3a1e77a58829c3b1023b0cf441837a022006e70ec1e882c40f328e73bc71c033483831561e0fdcabfef042f1d5db68c49a01", "03622937c5e36456b245ec342bb3324fd7c6763d76214a6a475f7004fda540e46d"], "sequence": 4294967294, "scriptSig": {"hex": "16001474a6a1f2f5aabb15ca9bb3ba59d66743c6073456", "asm": "001474a6a1f2f5aabb15ca9bb3ba59d66743c6073456"}, "vout": 7, "txid": "13d6c595f44575573558176d4bec501bcccaa6a3ca7ce7b81d3903afc5a0bd84"}, {"txinwitness": ["3045022100e3de882769f5a472a6dadb4b05730b1a68705d3ac749222a1055365733829216022012bd5d8478617697292d0de19922a76af6a4f2d0dddf2d56061df656a76cd9d101", "037857c2bac05059fa2b3eda9b84f0ee3348184f7cdf4f46f7ef1d853b7236019a"], "sequence": 4294967294, "scriptSig": {"hex": "1600145caa4e1f5247a2a72ae4e50cf3cb2f949b5cd6cc", "asm": "00145caa4e1f5247a2a72ae4e50cf3cb2f949b5cd6cc"}, "vout": 1, "txid": "5ada94ce922142730824a2b7a716b138fb89d9efe66b5c504b90229d53e5b499"}], "txid": "fb459e43645a3b87855052cbd48e084b6df22c90851856c9947efdb6cc145810", "blocktime": 1537873891, "version": 2, "confirmations": 11475, "time": 1537873891, "locktime": 542996, "vsize": 439, "size": 764}