{"hash": "fb4888b61838b90bdcf849bbaf1af8b526a1b709ec580714e1175e62cb78d1a2", "blockhash": "0000000000000000000e13cef7c366c0283d82e591d1acd082e914b08063cdf1", "vout": [{"scriptPubKey": {"reqSigs": 1, "hex": "76a9146c3e9111c84ddcfb82131654cc8270b6fc266a0788ac", "addresses": ["1AsLvvkGgLZjYYwV13pM9FrBJHipDLnR4L"], "asm": "OP_DUP OP_HASH160 6c3e9111c84ddcfb82131654cc8270b6fc266a07 OP_EQUALVERIFY OP_CHECKSIG", "type": "pubkeyhash"}, "value": 0.01036189, "n": 0}, {"scriptPubKey": {"reqSigs": 1, "hex": "76a914388f5472d07af8468e456cf4d66788d11e03436a88ac", "addresses": ["16A4YUfRsvfWLE1FkAcQ5F7tCNiuWKGjFd"], "asm": "OP_DUP OP_HASH160 388f5472d07af8468e456cf4d66788d11e03436a OP_EQUALVERIFY OP_CHECKSIG", "type": "pubkeyhash"}, "value": 0.0101194, "n": 1}, {"scriptPubKey": {"reqSigs": 1, "hex": "76a9149348031aa873d3b36c6b30eefc89498b064410e588ac", "addresses": ["1ERkbgyhpEbKTTovAYxmZPMmKUHPBzJDFP"], "asm": "OP_DUP OP_HASH160 9348031aa873d3b36c6b30eefc89498b064410e5 OP_EQUALVERIFY OP_CHECKSIG", "type": "pubkeyhash"}, "value": 0.01010022, "n": 2}, {"scriptPubKey": {"reqSigs": 1, "hex": "76a9144b7a84605e15d08c2375b801ed7142cd6435e8eb88ac", "addresses": ["17t6T2QnB6BDo5wF3Wq1qfSSqXE6pFTMk3"], "asm": "OP_DUP OP_HASH160 4b7a84605e15d08c2375b801ed7142cd6435e8eb OP_EQUALVERIFY OP_CHECKSIG", "type": "pubkeyhash"}, "value": 0.01040228, "n": 3}, {"scriptPubKey": {"reqSigs": 1, "hex": "a914d5e06636fc4c1b0add93a5c42f76f5da0b085b0787", "addresses": ["3MBtfwQ3vqbUFxNeeRiNZEhuGyTfwbBrc3"], "asm": "OP_HASH160 d5e06636fc4c1b0add93a5c42f76f5da0b085b07 OP_EQUAL", "type": "scripthash"}, "value": 0.01017196, "n": 4}, {"scriptPubKey": {"reqSigs": 1, "hex": "a914a6920cfd4a8caf2b724a9cdfcfb5ccd9c50fd53a87", "addresses": ["3Gsm4AsDKhdQsH5bJJV7pJjRa19iW7ZE8R"], "asm": "OP_HASH160 a6920cfd4a8caf2b724a9cdfcfb5ccd9c50fd53a OP_EQUAL", "type": "scripthash"}, "value": 0.01036542, "n": 5}, {"scriptPubKey": {"reqSigs": 1, "hex": "76a91406811bc4358de13a781bc7b6c36a7e9f6107d7a388ac", "addresses": ["1bPimKtCdEmT32YTodAgcsM19oAMgAVHY"], "asm": "OP_DUP OP_HASH160 06811bc4358de13a781bc7b6c36a7e9f6107d7a3 OP_EQUALVERIFY OP_CHECKSIG", "type": "pubkeyhash"}, "value": 0.01036768, "n": 6}, {"scriptPubKey": {"reqSigs": 1, "hex": "a9147b8b73f20d0f5ef9ecb87a6baaa9e83e4f38fc9b87", "addresses": ["3CxG6VnVQpkGNNXs2Jycv6SuGftkocVx2z"], "asm": "OP_HASH160 7b8b73f20d0f5ef9ecb87a6baaa9e83e4f38fc9b OP_EQUAL", "type": "scripthash"}, "value": 0.01035116, "n": 7}, {"scriptPubKey": {"reqSigs": 1, "hex": "76a91434a3f8e850f5d3a006dfcecdffda6f1d36ded1c888ac", "addresses": ["15oLZyFx9wwBp9r5oFFQMETduRvDCgXV9X"], "asm": "OP_DUP OP_HASH160 34a3f8e850f5d3a006dfcecdffda6f1d36ded1c8 OP_EQUALVERIFY OP_CHECKSIG", "type": "pubkeyhash"}, "value": 0.01035882, "n": 8}, {"scriptPubKey": {"reqSigs": 1, "hex": "a914d3f417ffd858b70bef9e9936088e14e1486c3d6687", "addresses": ["3M1iux72sGZNxikwMAxsM5AgFEPYbNMrwU"], "asm": "OP_HASH160 d3f417ffd858b70bef9e9936088e14e1486c3d66 OP_EQUAL", "type": "scripthash"}, "value": 0.01010875, "n": 9}, {"scriptPubKey": {"reqSigs": 1, "hex": "a91484c5a68eaef9b823e7aa954f33d6745dbde61c1787", "addresses": ["3Do3tsTjaNU5rDZbeTKVm5XSgXPjN4vLrh"], "asm": "OP_HASH160 84c5a68eaef9b823e7aa954f33d6745dbde61c17 OP_EQUAL", "type": "scripthash"}, "value": 0.01016602, "n": 10}, {"scriptPubKey": {"reqSigs": 1, "hex": "a9146446553e68ca564f6614857e3181e668fb70293d87", "addresses": ["3AqDkYkH21Kr6ZHz2GJNXZA1g2ELx8X2VK"], "asm": "OP_HASH160 6446553e68ca564f6614857e3181e668fb70293d OP_EQUAL", "type": "scripthash"}, "value": 0.01015184, "n": 11}, {"scriptPubKey": {"reqSigs": 1, "hex": "76a9144160a85f166d72cd90678f4a2ced097f2674510f88ac", "addresses": ["16xgiN6jqnxyfybMTcmyq1uLH2mynaGvBj"], "asm": "OP_DUP OP_HASH160 4160a85f166d72cd90678f4a2ced097f2674510f OP_EQUALVERIFY OP_CHECKSIG", "type": "pubkeyhash"}, "value": 0.01028976, "n": 12}, {"scriptPubKey": {"reqSigs": 1, "hex": "76a91480e1df469517b1ef875f5f0002023fa2bb1c996688ac", "addresses": ["1CkU5RpHbheVZ34H4DRJdhRRyYoeoZ8Ctu"], "asm": "OP_DUP OP_HASH160 80e1df469517b1ef875f5f0002023fa2bb1c9966 OP_EQUALVERIFY OP_CHECKSIG", "type": "pubkeyhash"}, "value": 0.01029599, "n": 13}, {"scriptPubKey": {"reqSigs": 1, "hex": "a9141fe17c4eb07af754c2bd7a1ef54fad225e4dc7fc87", "addresses": ["34bazW8Cnk6e7oc8XitTUFXPYVuJhXgj4y"], "asm": "OP_HASH160 1fe17c4eb07af754c2bd7a1ef54fad225e4dc7fc OP_EQUAL", "type": "scripthash"}, "value": 0.01040863, "n": 14}, {"scriptPubKey": {"reqSigs": 1, "hex": "a914cfea6193e1ef593b87fdc5b012948a162fc6706287", "addresses": ["3LeNaLkWPqrSYAs7BRf7RKG9jtszwCAPFA"], "asm": "OP_HASH160 cfea6193e1ef593b87fdc5b012948a162fc67062 OP_EQUAL", "type": "scripthash"}, "value": 0.0103158, "n": 15}, {"scriptPubKey": {"reqSigs": 1, "hex": "76a9149403e02fc187180b1b2c1969529e096c15da627188ac", "addresses": ["1EVdegWjeGFGfQYMuzZwwYbGW6BWZh3hqH"], "asm": "OP_DUP OP_HASH160 9403e02fc187180b1b2c1969529e096c15da6271 OP_EQUALVERIFY OP_CHECKSIG", "type": "pubkeyhash"}, "value": 0.01036482, "n": 16}, {"scriptPubKey": {"reqSigs": 1, "hex": "76a9140eedb2ac72f5a9523d5259338b087fbb43f13dde88ac", "addresses": ["12MwDEF1YjTWVqP9dxDc1xguyZNgFngeb8"], "asm": "OP_DUP OP_HASH160 0eedb2ac72f5a9523d5259338b087fbb43f13dde OP_EQUALVERIFY OP_CHECKSIG", "type": "pubkeyhash"}, "value": 0.0103956, "n": 17}, {"scriptPubKey": {"reqSigs": 1, "hex": "76a91441a6dfeb98250e480a83e81e8ba5804d666e70f388ac", "addresses": ["16z8q8HZKbT8SRhepMeHzBE8NEAeHJeq9T"], "asm": "OP_DUP OP_HASH160 41a6dfeb98250e480a83e81e8ba5804d666e70f3 OP_EQUALVERIFY OP_CHECKSIG", "type": "pubkeyhash"}, "value": 0.01030825, "n": 18}, {"scriptPubKey": {"reqSigs": 1, "hex": "76a9149b19b355909fd7fecdcbfedc89c5e0a736233bd388ac", "addresses": ["1F96XSNbSerbfJyG7cbkGvwSxkHeDMoEXq"], "asm": "OP_DUP OP_HASH160 9b19b355909fd7fecdcbfedc89c5e0a736233bd3 OP_EQUALVERIFY OP_CHECKSIG", "type": "pubkeyhash"}, "value": 0.01036075, "n": 19}, {"scriptPubKey": {"reqSigs": 1, "hex": "76a91483182dc4e05d29d6726732de93c16480c0f7b1ed88ac", "addresses": ["1CxAV6safLPhyCFxwaHvmZKPNtGZpE2fyr"], "asm": "OP_DUP OP_HASH160 83182dc4e05d29d6726732de93c16480c0f7b1ed OP_EQUALVERIFY OP_CHECKSIG", "type": "pubkeyhash"}, "value": 0.01011699, "n": 20}, {"scriptPubKey": {"reqSigs": 1, "hex": "76a914124c883268c5f977f70bb1b55e2cb6ff1799213688ac", "addresses": ["12fkqzUGJKaNVb55oznA2xDP87KKqBmodP"], "asm": "OP_DUP OP_HASH160 124c883268c5f977f70bb1b55e2cb6ff17992136 OP_EQUALVERIFY OP_CHECKSIG", "type": "pubkeyhash"}, "value": 0.01032958, "n": 21}, {"scriptPubKey": {"reqSigs": 1, "hex": "76a914a14e7564b48029fc10b9d455ec1dd8d550b467d288ac", "addresses": ["1FhunHLBUb54nZDgMhHa4pPRyXb3mrHB2S"], "asm": "OP_DUP OP_HASH160 a14e7564b48029fc10b9d455ec1dd8d550b467d2 OP_EQUALVERIFY OP_CHECKSIG", "type": "pubkeyhash"}, "value": 0.01024193, "n": 22}, {"scriptPubKey": {"reqSigs": 1, "hex": "76a91424609b11f4eee3bc312364cc74b6b3ea710ea27e88ac", "addresses": ["14KM4C46aFZaTDZszXdUQBp5V2DbpbDnUB"], "asm": "OP_DUP OP_HASH160 24609b11f4eee3bc312364cc74b6b3ea710ea27e OP_EQUALVERIFY OP_CHECKSIG", "type": "pubkeyhash"}, "value": 0.01017495, "n": 23}, {"scriptPubKey": {"reqSigs": 1, "hex": "76a9143a0f449412746883f835f5bfe63808ca25c8354c88ac", "addresses": ["16HzUxXbQBjmK9YrkV1y4ZTCx3mdVrMsPR"], "asm": "OP_DUP OP_HASH160 3a0f449412746883f835f5bfe63808ca25c8354c OP_EQUALVERIFY OP_CHECKSIG", "type": "pubkeyhash"}, "value": 0.01024816, "n": 24}, {"scriptPubKey": {"reqSigs": 1, "hex": "76a914fda702aec744be76aca7d8c46d47d256a4dcdb6c88ac", "addresses": ["1Q8C2dEHWhGN1rwVDKmMegRanqwqrfTiZX"], "asm": "OP_DUP OP_HASH160 fda702aec744be76aca7d8c46d47d256a4dcdb6c OP_EQUALVERIFY OP_CHECKSIG", "type": "pubkeyhash"}, "value": 0.01030642, "n": 25}, {"scriptPubKey": {"reqSigs": 1, "hex": "76a914bf382fc948310c9dbff4367bcc8175be921ec3f188ac", "addresses": ["1JS5NZLZe6EYWNrx6Gu1iZNTQ7vur9HMNU"], "asm": "OP_DUP OP_HASH160 bf382fc948310c9dbff4367bcc8175be921ec3f1 OP_EQUALVERIFY OP_CHECKSIG", "type": "pubkeyhash"}, "value": 0.0103111, "n": 26}, {"scriptPubKey": {"reqSigs": 1, "hex": "76a914500233bf5e4e2e8ba89f84231ce444543b9ae2df88ac", "addresses": ["18J3hMWuyRbGsSTgim7EJYC3mQyZa445Fm"], "asm": "OP_DUP OP_HASH160 500233bf5e4e2e8ba89f84231ce444543b9ae2df OP_EQUALVERIFY OP_CHECKSIG", "type": "pubkeyhash"}, "value": 0.01013072, "n": 27}, {"scriptPubKey": {"reqSigs": 1, "hex": "a9140e4c867dee814f3eb150533efa6ad09de280505987", "addresses": ["32zd4JcjUP47tWx1SoMtWv111FJ87v1n66"], "asm": "OP_HASH160 0e4c867dee814f3eb150533efa6ad09de2805059 OP_EQUAL", "type": "scripthash"}, "value": 0.01023396, "n": 28}, {"scriptPubKey": {"reqSigs": 1, "hex": "a914d637e567d829ed7585cd90c5158dde1302b6a09b87", "addresses": ["3MDhVKqpmNv4WQmXG4CsngRmd28TkrHZwy"], "asm": "OP_HASH160 d637e567d829ed7585cd90c5158dde1302b6a09b OP_EQUAL", "type": "scripthash"}, "value": 0.01032993, "n": 29}, {"scriptPubKey": {"reqSigs": 1, "hex": "a9145abf20a4243b396f7569af35c8ebaa25170211c887", "addresses": ["39xqhacTJeybnkvSYroqbrT75FkmtqvR4W"], "asm": "OP_HASH160 5abf20a4243b396f7569af35c8ebaa25170211c8 OP_EQUAL", "type": "scripthash"}, "value": 0.01018728, "n": 30}, {"scriptPubKey": {"reqSigs": 1, "hex": "76a914d1014c3f9503d114c9c5887ff1612fee12c1818b88ac", "addresses": ["1L47nGZyNZcguwTC4f1SdxBQJQEoGYq7px"], "asm": "OP_DUP OP_HASH160 d1014c3f9503d114c9c5887ff1612fee12c1818b OP_EQUALVERIFY OP_CHECKSIG", "type": "pubkeyhash"}, "value": 0.01042046, "n": 31}, {"scriptPubKey": {"reqSigs": 1, "hex": "a914aa47e7ebc9e265958bd6113f0033300f2936828987", "addresses": ["3HDNwGTZxLQGeKbcwYH184hDxrNLiRQVD4"], "asm": "OP_HASH160 aa47e7ebc9e265958bd6113f0033300f29368289 OP_EQUAL", "type": "scripthash"}, "value": 0.01016612, "n": 32}, {"scriptPubKey": {"reqSigs": 1, "hex": "76a91428b27fc427e800b248df2c85d8cd6dc85465a49d88ac", "addresses": ["14iBs1RDZQenqjon4YeF8GP1pBu1goeaKy"], "asm": "OP_DUP OP_HASH160 28b27fc427e800b248df2c85d8cd6dc85465a49d OP_EQUALVERIFY OP_CHECKSIG", "type": "pubkeyhash"}, "value": 0.01023503, "n": 33}, {"scriptPubKey": {"reqSigs": 1, "hex": "76a9147009cf771c91e594332bd009d0648d540b2ab15088ac", "addresses": ["1BDQS8DFNfuYbArGXB8kx3MmsbaP82g2xD"], "asm": "OP_DUP OP_HASH160 7009cf771c91e594332bd009d0648d540b2ab150 OP_EQUALVERIFY OP_CHECKSIG", "type": "pubkeyhash"}, "value": 0.01016277, "n": 34}, {"scriptPubKey": {"reqSigs": 1, "hex": "a914644a3ea3549de4dbc336799a9f0029ba3a9c193487", "addresses": ["3AqJSLXsW54AM4iCwQgo3So3X5NRdCpayf"], "asm": "OP_HASH160 644a3ea3549de4dbc336799a9f0029ba3a9c1934 OP_EQUAL", "type": "scripthash"}, "value": 0.01033756, "n": 35}, {"scriptPubKey": {"reqSigs": 1, "hex": "76a91457c5ef8d6ef327bfdbeaa4ea017e64039fc8d08688ac", "addresses": ["1916uWNVS5okvKwqqsAczfhHYjjRN2c2TV"], "asm": "OP_DUP OP_HASH160 57c5ef8d6ef327bfdbeaa4ea017e64039fc8d086 OP_EQUALVERIFY OP_CHECKSIG", "type": "pubkeyhash"}, "value": 0.01045581, "n": 36}, {"scriptPubKey": {"reqSigs": 1, "hex": "76a914748660644f6c25c342bf861afdc3cde1328081f288ac", "addresses": ["1Bd8Mu3iKgk9fTmr9qBucJ8GCmPB8JC8d7"], "asm": "OP_DUP OP_HASH160 748660644f6c25c342bf861afdc3cde1328081f2 OP_EQUALVERIFY OP_CHECKSIG", "type": "pubkeyhash"}, "value": 0.01013962, "n": 37}, {"scriptPubKey": {"reqSigs": 1, "hex": "76a914f0c2d4bbd44924539d3e8e953c4ed982b4a0683b88ac", "addresses": ["1Nx2a8mNZorSLgHy1YpCue99x9Cnm3GePU"], "asm": "OP_DUP OP_HASH160 f0c2d4bbd44924539d3e8e953c4ed982b4a0683b OP_EQUALVERIFY OP_CHECKSIG", "type": "pubkeyhash"}, "value": 0.01010882, "n": 38}, {"scriptPubKey": {"reqSigs": 1, "hex": "76a91463a5975aa412ac9f01644ebf0ef63761215a63c688ac", "addresses": ["1A5tGULe9LAixTAmS7vNfAy2RsvzuCkAog"], "asm": "OP_DUP OP_HASH160 63a5975aa412ac9f01644ebf0ef63761215a63c6 OP_EQUALVERIFY OP_CHECKSIG", "type": "pubkeyhash"}, "value": 0.01049517, "n": 39}, {"scriptPubKey": {"reqSigs": 1, "hex": "76a9148c22e1b6cb8b4b73a2bb0adfc14503da944935b588ac", "addresses": ["1DmyPUnBrJoPG9RLeFa4kF6Fc7j46zMsaZ"], "asm": "OP_DUP OP_HASH160 8c22e1b6cb8b4b73a2bb0adfc14503da944935b5 OP_EQUALVERIFY OP_CHECKSIG", "type": "pubkeyhash"}, "value": 0.01026048, "n": 40}, {"scriptPubKey": {"reqSigs": 1, "hex": "a91436da70fb45f7ccec2d267e40c6a99d996f18e1a887", "addresses": ["36h46UMzB6XXLFJYPXfEgardjcr2FEyLyZ"], "asm": "OP_HASH160 36da70fb45f7ccec2d267e40c6a99d996f18e1a8 OP_EQUAL", "type": "scripthash"}, "value": 0.01028132, "n": 41}, {"scriptPubKey": {"reqSigs": 1, "hex": "76a91404fd22f390f48f2e97902733375cb3b7ce579af988ac", "addresses": ["1TNx16irekmEzLKoKaAHtt49wtEZ7Mrvo"], "asm": "OP_DUP OP_HASH160 04fd22f390f48f2e97902733375cb3b7ce579af9 OP_EQUALVERIFY OP_CHECKSIG", "type": "pubkeyhash"}, "value": 0.01032011, "n": 42}, {"scriptPubKey": {"reqSigs": 1, "hex": "76a914eb9f3dbf10d0f4f92c3e27547f20a6d934a0b63088ac", "addresses": ["1NUrZMSguTjfrrLDfqvqRL66tHShEU7xAk"], "asm": "OP_DUP OP_HASH160 eb9f3dbf10d0f4f92c3e27547f20a6d934a0b630 OP_EQUALVERIFY OP_CHECKSIG", "type": "pubkeyhash"}, "value": 0.01019846, "n": 43}, {"scriptPubKey": {"reqSigs": 1, "hex": "76a914f54751a145aa81d1e990bce722478af90b4cafd788ac", "addresses": ["1PMuzKaBg5Zq9kaDHn9Y3JdeNAKqRiVi3E"], "asm": "OP_DUP OP_HASH160 f54751a145aa81d1e990bce722478af90b4cafd7 OP_EQUALVERIFY OP_CHECKSIG", "type": "pubkeyhash"}, "value": 0.01035769, "n": 44}, {"scriptPubKey": {"reqSigs": 1, "hex": "76a914eb56a6a9811cf1db0458cd5150df6f0add8df9d788ac", "addresses": ["1NTMbhXu3jV9eiRLFKjc2LygHM55TEoUji"], "asm": "OP_DUP OP_HASH160 eb56a6a9811cf1db0458cd5150df6f0add8df9d7 OP_EQUALVERIFY OP_CHECKSIG", "type": "pubkeyhash"}, "value": 0.01026636, "n": 45}, {"scriptPubKey": {"reqSigs": 1, "hex": "76a914837338ff92e59a070b7e5796b75ea45d4abb0be788ac", "addresses": ["1Cz3YwWdCAYU2Au3T2CPrCqPWrMmGE4wvt"], "asm": "OP_DUP OP_HASH160 837338ff92e59a070b7e5796b75ea45d4abb0be7 OP_EQUALVERIFY OP_CHECKSIG", "type": "pubkeyhash"}, "value": 0.01049628, "n": 46}, {"scriptPubKey": {"reqSigs": 1, "hex": "76a91469d7c55f80386c8c2da31e8dbd8c6e79210c86ad88ac", "addresses": ["1AeeSB3zC31gt2QB6xqTUUXGToSrpC7JkJ"], "asm": "OP_DUP OP_HASH160 69d7c55f80386c8c2da31e8dbd8c6e79210c86ad OP_EQUALVERIFY OP_CHECKSIG", "type": "pubkeyhash"}, "value": 0.01038822, "n": 47}, {"scriptPubKey": {"reqSigs": 1, "hex": "76a9142a4e9c744c1f334babe6697514cda17fbf3a493588ac", "addresses": ["14rhZ4D3VYFknmXZAP4XUvMnwMmzZL5cJA"], "asm": "OP_DUP OP_HASH160 2a4e9c744c1f334babe6697514cda17fbf3a4935 OP_EQUALVERIFY OP_CHECKSIG", "type": "pubkeyhash"}, "value": 0.01014237, "n": 48}, {"scriptPubKey": {"reqSigs": 1, "hex": "76a914404c3db60a41d67704ed0efdc956eab94bfe34a388ac", "addresses": ["16ryabjLTUVGdQa8iQUXj92G38zqQ3tpCc"], "asm": "OP_DUP OP_HASH160 404c3db60a41d67704ed0efdc956eab94bfe34a3 OP_EQUALVERIFY OP_CHECKSIG", "type": "pubkeyhash"}, "value": 0.01039126, "n": 49}, {"scriptPubKey": {"reqSigs": 1, "hex": "76a91400220645b54a61b459e6b882cc3c099a625143bd88ac", "addresses": ["11hm4haLAy3yBdY2iCzXgnQJnf2u6mjL8"], "asm": "OP_DUP OP_HASH160 00220645b54a61b459e6b882cc3c099a625143bd OP_EQUALVERIFY OP_CHECKSIG", "type": "pubkeyhash"}, "value": 0.01038039, "n": 50}, {"scriptPubKey": {"reqSigs": 1, "hex": "76a914699c49f85dfcf809072d654e126539cc8236229288ac", "addresses": ["1AdRBHjeDrPhD1jRAM9PHQ18YnqcubPAG8"], "asm": "OP_DUP OP_HASH160 699c49f85dfcf809072d654e126539cc82362292 OP_EQUALVERIFY OP_CHECKSIG", "type": "pubkeyhash"}, "value": 0.01031015, "n": 51}, {"scriptPubKey": {"reqSigs": 1, "hex": "76a9141983318a1df5fea8932aba04e7416289c0977a4288ac", "addresses": ["13Ku4HHx9N188nTuuAJ4QvK4sifkMd2QmF"], "asm": "OP_DUP OP_HASH160 1983318a1df5fea8932aba04e7416289c0977a42 OP_EQUALVERIFY OP_CHECKSIG", "type": "pubkeyhash"}, "value": 0.01047496, "n": 52}, {"scriptPubKey": {"reqSigs": 1, "hex": "76a91486d304b680f71a21089abbeb9779232f2bbcdcc988ac", "addresses": ["1DHtLXF5gjCAWJTsY8DLmbChsxQ8Eg4qrZ"], "asm": "OP_DUP OP_HASH160 86d304b680f71a21089abbeb9779232f2bbcdcc9 OP_EQUALVERIFY OP_CHECKSIG", "type": "pubkeyhash"}, "value": 0.01018762, "n": 53}, {"scriptPubKey": {"reqSigs": 1, "hex": "76a914d6ec77aeb86e3cfe2a3f6cdd62dafd31411f508388ac", "addresses": ["1LbQt6wED64MRTPWp8aEZh3f8n5BXxqrLM"], "asm": "OP_DUP OP_HASH160 d6ec77aeb86e3cfe2a3f6cdd62dafd31411f5083 OP_EQUALVERIFY OP_CHECKSIG", "type": "pubkeyhash"}, "value": 0.01029276, "n": 54}, {"scriptPubKey": {"reqSigs": 1, "hex": "a9141acc38b67279be4cc42218fd2386aabf70e87b4c87", "addresses": ["348i96Jgs8mCzhDS1SrRsrPTeW7ovt9Xrk"], "asm": "OP_HASH160 1acc38b67279be4cc42218fd2386aabf70e87b4c OP_EQUAL", "type": "scripthash"}, "value": 0.01025794, "n": 55}, {"scriptPubKey": {"reqSigs": 1, "hex": "76a9148fb33b22bcd721e79e116b5518f94f9474a2efbf88ac", "addresses": ["1E6pLcxEJ9u7yQys6Tpt8qioNaLoGfwSW2"], "asm": "OP_DUP OP_HASH160 8fb33b22bcd721e79e116b5518f94f9474a2efbf OP_EQUALVERIFY OP_CHECKSIG", "type": "pubkeyhash"}, "value": 0.01009906, "n": 56}, {"scriptPubKey": {"reqSigs": 1, "hex": "76a914f3fd09919484e1c74c15f0a5a8b101c11d44a03f88ac", "addresses": ["1PF6KxgUha6zvQJzuug66h4iDFHgb4Pf8p"], "asm": "OP_DUP OP_HASH160 f3fd09919484e1c74c15f0a5a8b101c11d44a03f OP_EQUALVERIFY OP_CHECKSIG", "type": "pubkeyhash"}, "value": 0.01043057, "n": 57}, {"scriptPubKey": {"reqSigs": 1, "hex": "76a9142383805a295418ed17a1ed87ffe8abb8e139fbca88ac", "addresses": ["14EnBbDCMoFXa19hXmXJS7BHwUMHqMCGqx"], "asm": "OP_DUP OP_HASH160 2383805a295418ed17a1ed87ffe8abb8e139fbca OP_EQUALVERIFY OP_CHECKSIG", "type": "pubkeyhash"}, "value": 0.01009429, "n": 58}, {"scriptPubKey": {"reqSigs": 1, "hex": "76a914a2bee364a1252a9eba05ae00bfeb047d0c30544788ac", "addresses": ["1FqX9E3jbRMcQ68Ha3NGKaCQEuFL6XamNn"], "asm": "OP_DUP OP_HASH160 a2bee364a1252a9eba05ae00bfeb047d0c305447 OP_EQUALVERIFY OP_CHECKSIG", "type": "pubkeyhash"}, "value": 0.01044185, "n": 59}, {"scriptPubKey": {"reqSigs": 1, "hex": "76a91421c0f018f95d71a6f559b7712f3786ecb743eb0788ac", "addresses": ["145URtavrfiXMYEzhLY5jf2VuPZyeSu3Ye"], "asm": "OP_DUP OP_HASH160 21c0f018f95d71a6f559b7712f3786ecb743eb07 OP_EQUALVERIFY OP_CHECKSIG", "type": "pubkeyhash"}, "value": 0.010345, "n": 60}, {"scriptPubKey": {"reqSigs": 1, "hex": "a914b90be10d82b490ce43377fb9f919f77bb15aff8d87", "addresses": ["3JZTAQbMdN8up3Jd8RcxhrfN9WheJX9xqP"], "asm": "OP_HASH160 b90be10d82b490ce43377fb9f919f77bb15aff8d OP_EQUAL", "type": "scripthash"}, "value": 0.01034673, "n": 61}, {"scriptPubKey": {"reqSigs": 1, "hex": "76a914c52df03ff567cbce28b9230a4e74b7acc3f96d2a88ac", "addresses": ["1Jyb9eorD8rZPvHDq4xy4ZAkbegpkWZq9T"], "asm": "OP_DUP OP_HASH160 c52df03ff567cbce28b9230a4e74b7acc3f96d2a OP_EQUALVERIFY OP_CHECKSIG", "type": "pubkeyhash"}, "value": 0.01042624, "n": 62}, {"scriptPubKey": {"reqSigs": 1, "hex": "a9148ddf1e3007fcbfc7ed81f0a8612615d8911d32d787", "addresses": ["3EdAV6ZeiuRokSVM7Rk2HjfB55Q79TXjKM"], "asm": "OP_HASH160 8ddf1e3007fcbfc7ed81f0a8612615d8911d32d7 OP_EQUAL", "type": "scripthash"}, "value": 0.01008942, "n": 63}, {"scriptPubKey": {"reqSigs": 1, "hex": "76a91411ab5d89aa613e397e8a8549f07e25b22c8a04d188ac", "addresses": ["12cRmwKgKWo5FnbAUq4m8PeHaPQu5s5YYE"], "asm": "OP_DUP OP_HASH160 11ab5d89aa613e397e8a8549f07e25b22c8a04d1 OP_EQUALVERIFY OP_CHECKSIG", "type": "pubkeyhash"}, "value": 0.0104658, "n": 64}, {"scriptPubKey": {"reqSigs": 1, "hex": "76a9141b37700afec5b1e7d162cdb49dedfbb63b24f9ef88ac", "addresses": ["13Uuf4FjzDetXvB7kKGUYc9zc92eiC1Me4"], "asm": "OP_DUP OP_HASH160 1b37700afec5b1e7d162cdb49dedfbb63b24f9ef OP_EQUALVERIFY OP_CHECKSIG", "type": "pubkeyhash"}, "value": 0.01019108, "n": 65}, {"scriptPubKey": {"reqSigs": 1, "hex": "76a91426b58c27532d348c4583e3705ea1a428d0eb3ab088ac", "addresses": ["14XgARu3Q2xeuW7aVRpdkGPJ7KcoLbkBVw"], "asm": "OP_DUP OP_HASH160 26b58c27532d348c4583e3705ea1a428d0eb3ab0 OP_EQUALVERIFY OP_CHECKSIG", "type": "pubkeyhash"}, "value": 0.01036063, "n": 66}, {"scriptPubKey": {"reqSigs": 1, "hex": "76a91433fd093d932ba712f145950e3178ba4fc1e33a2688ac", "addresses": ["15jtb3HuYGyL6hiqYJbQHMGdAmRsqYXq35"], "asm": "OP_DUP OP_HASH160 33fd093d932ba712f145950e3178ba4fc1e33a26 OP_EQUALVERIFY OP_CHECKSIG", "type": "pubkeyhash"}, "value": 0.01033448, "n": 67}, {"scriptPubKey": {"reqSigs": 1, "hex": "a914c9c3f4c5d4d8922fa4141f03da45f67f19d07d4e87", "addresses": ["3L5rVNbmjsgycW5SDsLmobUT8EkwTHCncX"], "asm": "OP_HASH160 c9c3f4c5d4d8922fa4141f03da45f67f19d07d4e OP_EQUAL", "type": "scripthash"}, "value": 0.01043566, "n": 68}, {"scriptPubKey": {"reqSigs": 1, "hex": "76a914bee5de538047a27ba9e200c0d35d298e67b16e1488ac", "addresses": ["1JQNkzLHvXGF2sQXffQULhR4yihvr4yH9r"], "asm": "OP_DUP OP_HASH160 bee5de538047a27ba9e200c0d35d298e67b16e14 OP_EQUALVERIFY OP_CHECKSIG", "type": "pubkeyhash"}, "value": 0.01044202, "n": 69}, {"scriptPubKey": {"reqSigs": 1, "hex": "76a914f02382e01712854cf07c66a3af096cb7ac5ea39988ac", "addresses": ["1NtjiQNWQjFBxMHudNPpe5SyW8FcvswSdK"], "asm": "OP_DUP OP_HASH160 f02382e01712854cf07c66a3af096cb7ac5ea399 OP_EQUALVERIFY OP_CHECKSIG", "type": "pubkeyhash"}, "value": 0.01018022, "n": 70}, {"scriptPubKey": {"reqSigs": 1, "hex": "76a914f51c5efbb405852c04ad061b2fe7a37ff2e4f8c388ac", "addresses": ["1PM2YFctu6pwrY6bE1wJiKYfmNydcwuLHr"], "asm": "OP_DUP OP_HASH160 f51c5efbb405852c04ad061b2fe7a37ff2e4f8c3 OP_EQUALVERIFY OP_CHECKSIG", "type": "pubkeyhash"}, "value": 0.01044061, "n": 71}, {"scriptPubKey": {"reqSigs": 1, "hex": "76a9149014e91807346aadb775e42c2b5170759c9ac77688ac", "addresses": ["1E8qMWhyo9X6tBtPRUNtx3DLjnxxa4ZWq5"], "asm": "OP_DUP OP_HASH160 9014e91807346aadb775e42c2b5170759c9ac776 OP_EQUALVERIFY OP_CHECKSIG", "type": "pubkeyhash"}, "value": 0.01030735, "n": 72}, {"scriptPubKey": {"reqSigs": 1, "hex": "76a9145b41dc9ca5f13a7ad3f4ec911486ca091627cabc88ac", "addresses": ["19KXPcWb9fnXbuCC5WLX25rNACevREEtqz"], "asm": "OP_DUP OP_HASH160 5b41dc9ca5f13a7ad3f4ec911486ca091627cabc OP_EQUALVERIFY OP_CHECKSIG", "type": "pubkeyhash"}, "value": 0.01039415, "n": 73}, {"scriptPubKey": {"reqSigs": 1, "hex": "76a914db8100eb94f720dec2dec76fa6acf51bf1bd24c188ac", "addresses": ["1M1dXLbDpmsaEy5uLEJ7FCsMg6fwZ4jXmU"], "asm": "OP_DUP OP_HASH160 db8100eb94f720dec2dec76fa6acf51bf1bd24c1 OP_EQUALVERIFY OP_CHECKSIG", "type": "pubkeyhash"}, "value": 0.010339, "n": 74}, {"scriptPubKey": {"reqSigs": 1, "hex": "76a9148667d6a3626aa41a78306f5ac20f43ab58a4a98988ac", "addresses": ["1DFfwXWBLeCMp5DZyBKpVBsSJU45VAhBp9"], "asm": "OP_DUP OP_HASH160 8667d6a3626aa41a78306f5ac20f43ab58a4a989 OP_EQUALVERIFY OP_CHECKSIG", "type": "pubkeyhash"}, "value": 0.0103692, "n": 75}, {"scriptPubKey": {"reqSigs": 1, "hex": "76a9144d293eec2e1bf9c1a33948a9710cfc2f8fbba67188ac", "addresses": ["182zSaZxstSCwvGhYHdejtwXRas8pR2RfB"], "asm": "OP_DUP OP_HASH160 4d293eec2e1bf9c1a33948a9710cfc2f8fbba671 OP_EQUALVERIFY OP_CHECKSIG", "type": "pubkeyhash"}, "value": 0.01023221, "n": 76}, {"scriptPubKey": {"reqSigs": 1, "hex": "a914d214c7c8352f4c77aba94e150b4bfd82ec263d4e87", "addresses": ["3Lqpig8pRx45BgQ7QFdyzm6tyPho1Wp2BY"], "asm": "OP_HASH160 d214c7c8352f4c77aba94e150b4bfd82ec263d4e OP_EQUAL", "type": "scripthash"}, "value": 0.01023241, "n": 77}, {"scriptPubKey": {"reqSigs": 1, "hex": "76a91426bbf879ee21068245f342593957028d602b806088ac", "addresses": ["14XoriZSHgpAKQP1hZxDc4P6cGhfStZUK1"], "asm": "OP_DUP OP_HASH160 26bbf879ee21068245f342593957028d602b8060 OP_EQUALVERIFY OP_CHECKSIG", "type": "pubkeyhash"}, "value": 0.01049467, "n": 78}, {"scriptPubKey": {"reqSigs": 1, "hex": "a91481af73d32469c29d84129ab09ea24099932e38ca87", "addresses": ["3DWjGwRbSfnLdMYsfzKat7rtaCeypAYRhm"], "asm": "OP_HASH160 81af73d32469c29d84129ab09ea24099932e38ca OP_EQUAL", "type": "scripthash"}, "value": 0.01019073, "n": 79}, {"scriptPubKey": {"reqSigs": 1, "hex": "76a9143d5435bf18b37ad3eea78b378091b6b7721408d188ac", "addresses": ["16bH6iG1dLnQwnkjP4Dn67Q5rutFscAnmG"], "asm": "OP_DUP OP_HASH160 3d5435bf18b37ad3eea78b378091b6b7721408d1 OP_EQUALVERIFY OP_CHECKSIG", "type": "pubkeyhash"}, "value": 0.0104595, "n": 80}, {"scriptPubKey": {"reqSigs": 1, "hex": "76a91422f3542fba57c9c4626981aa5bbb1b9abe01117188ac", "addresses": ["14BoUJpwiFH2VCzGQacHRKrgWYc7RU5opf"], "asm": "OP_DUP OP_HASH160 22f3542fba57c9c4626981aa5bbb1b9abe011171 OP_EQUALVERIFY OP_CHECKSIG", "type": "pubkeyhash"}, "value": 0.01040774, "n": 81}, {"scriptPubKey": {"reqSigs": 1, "hex": "76a9145b7b182a4ccca6e149f5c131f89bd0227abb748988ac", "addresses": ["19LhxCtyAr8uHwzVnJ9Hr39b2pb9E1ureS"], "asm": "OP_DUP OP_HASH160 5b7b182a4ccca6e149f5c131f89bd0227abb7489 OP_EQUALVERIFY OP_CHECKSIG", "type": "pubkeyhash"}, "value": 0.01037988, "n": 82}, {"scriptPubKey": {"reqSigs": 1, "hex": "a914a91e5a7761b142b1ebfb1004b7c64dc22693f56e87", "addresses": ["3H7EUxEoiA17m6RHVmR8Z9fFwR44Zbtib9"], "asm": "OP_HASH160 a91e5a7761b142b1ebfb1004b7c64dc22693f56e OP_EQUAL", "type": "scripthash"}, "value": 0.01039912, "n": 83}, {"scriptPubKey": {"reqSigs": 1, "hex": "76a91474b2c77dd141a38575546b31ab3f74fc9a2ee2d088ac", "addresses": ["1Be3Z46QQNy17xYJ6QuVAADNCFXsRevYv2"], "asm": "OP_DUP OP_HASH160 74b2c77dd141a38575546b31ab3f74fc9a2ee2d0 OP_EQUALVERIFY OP_CHECKSIG", "type": "pubkeyhash"}, "value": 0.01028636, "n": 84}, {"scriptPubKey": {"reqSigs": 1, "hex": "76a9147050df21ac532d2e881fceb4028659def1b6847388ac", "addresses": ["1BEsZYV1ZdDkpvr2ky4BNhE6A4YzucTkB9"], "asm": "OP_DUP OP_HASH160 7050df21ac532d2e881fceb4028659def1b68473 OP_EQUALVERIFY OP_CHECKSIG", "type": "pubkeyhash"}, "value": 0.01026704, "n": 85}, {"scriptPubKey": {"reqSigs": 1, "hex": "a914fe61c5d522297a0fcab69e989ca98226f5fe166c87", "addresses": ["3Qt4ge7o51UqBaABMQQTehRG6uomD3TRji"], "asm": "OP_HASH160 fe61c5d522297a0fcab69e989ca98226f5fe166c OP_EQUAL", "type": "scripthash"}, "value": 0.01034385, "n": 86}, {"scriptPubKey": {"reqSigs": 1, "hex": "76a91416e4a31d4d5d0389692eb2fd3305d14a145bac2a88ac", "addresses": ["1363mD8FtMgc4GsT1yjacocYNnskAmeWfV"], "asm": "OP_DUP OP_HASH160 16e4a31d4d5d0389692eb2fd3305d14a145bac2a OP_EQUALVERIFY OP_CHECKSIG", "type": "pubkeyhash"}, "value": 0.01031178, "n": 87}, {"scriptPubKey": {"reqSigs": 1, "hex": "a9144040bce4906824e2fc0d68c61b5444c5946af9bf87", "addresses": ["37YkitNGwTZDUaMx8N3133YqCEyE6QXZ66"], "asm": "OP_HASH160 4040bce4906824e2fc0d68c61b5444c5946af9bf OP_EQUAL", "type": "scripthash"}, "value": 0.01049151, "n": 88}, {"scriptPubKey": {"reqSigs": 1, "hex": "76a9149b5224f80789077d8e9b736203de7f9f8ebcd0c288ac", "addresses": ["1FAG9EBpiXK4hA481KDWQKCrjg7eTHaCgu"], "asm": "OP_DUP OP_HASH160 9b5224f80789077d8e9b736203de7f9f8ebcd0c2 OP_EQUALVERIFY OP_CHECKSIG", "type": "pubkeyhash"}, "value": 0.01038244, "n": 89}, {"scriptPubKey": {"reqSigs": 1, "hex": "76a914e884bcce76041bdef5d9d38aae8752756f7580ba88ac", "addresses": ["1NCSnGdx2NnMR7mij557WdbApgfktStvEL"], "asm": "OP_DUP OP_HASH160 e884bcce76041bdef5d9d38aae8752756f7580ba OP_EQUALVERIFY OP_CHECKSIG", "type": "pubkeyhash"}, "value": 0.01034586, "n": 90}, {"scriptPubKey": {"reqSigs": 1, "hex": "76a91419735307d97c5b1cb934ae83adb46629f2d7b0c988ac", "addresses": ["13Ka3fwB4uSWn6hvqwRyZzUMV1C27zFhYm"], "asm": "OP_DUP OP_HASH160 19735307d97c5b1cb934ae83adb46629f2d7b0c9 OP_EQUALVERIFY OP_CHECKSIG", "type": "pubkeyhash"}, "value": 0.01032018, "n": 91}, {"scriptPubKey": {"reqSigs": 1, "hex": "76a914a352fed6d7ad65bd2c479db6e499fc1be34a5bf788ac", "addresses": ["1FtaZtsoonsoniJRucKmYzVtjrVNA6ApNs"], "asm": "OP_DUP OP_HASH160 a352fed6d7ad65bd2c479db6e499fc1be34a5bf7 OP_EQUALVERIFY OP_CHECKSIG", "type": "pubkeyhash"}, "value": 0.01013802, "n": 92}, {"scriptPubKey": {"reqSigs": 1, "hex": "76a9149670ed899815644e6400520139ac618020c38cbf88ac", "addresses": ["1EiTe9CFQyQzgKd5Pd3hTiBnnQuYfWxV4C"], "asm": "OP_DUP OP_HASH160 9670ed899815644e6400520139ac618020c38cbf OP_EQUALVERIFY OP_CHECKSIG", "type": "pubkeyhash"}, "value": 288.969434, "n": 93}, {"scriptPubKey": {"reqSigs": 1, "hex": "76a91401bf93ca2e8e8452e99e5e4c440dbafbedeb52de88ac", "addresses": ["1AFBDYVDjYQxNy2RibPFH2q99cmzSLju4"], "asm": "OP_DUP OP_HASH160 01bf93ca2e8e8452e99e5e4c440dbafbedeb52de OP_EQUALVERIFY OP_CHECKSIG", "type": "pubkeyhash"}, "value": 0.01019108, "n": 94}, {"scriptPubKey": {"reqSigs": 1, "hex": "76a91444905ae7507fee364b0875e1603a4f5a47966f1b88ac", "addresses": ["17FXt1hiVpbh8JgfoUTFtPhSR8kZkNFALJ"], "asm": "OP_DUP OP_HASH160 44905ae7507fee364b0875e1603a4f5a47966f1b OP_EQUALVERIFY OP_CHECKSIG", "type": "pubkeyhash"}, "value": 0.01045515, "n": 95}, {"scriptPubKey": {"reqSigs": 1, "hex": "76a914f84161c2f0a7337a0825a8b97c29a6b5f32b813788ac", "addresses": ["1PdeuPRjZb9zgmvJTScE5HpnuFFKHY7twf"], "asm": "OP_DUP OP_HASH160 f84161c2f0a7337a0825a8b97c29a6b5f32b8137 OP_EQUALVERIFY OP_CHECKSIG", "type": "pubkeyhash"}, "value": 0.010403, "n": 96}, {"scriptPubKey": {"reqSigs": 1, "hex": "76a9149355bc82232a348e880333a59059e47cd946f53088ac", "addresses": ["1ES33GRKZhjQs5tfv9BiFb8ARBDTM8pivS"], "asm": "OP_DUP OP_HASH160 9355bc82232a348e880333a59059e47cd946f530 OP_EQUALVERIFY OP_CHECKSIG", "type": "pubkeyhash"}, "value": 0.01041387, "n": 97}, {"scriptPubKey": {"reqSigs": 1, "hex": "76a914a6ab574cd55573bef992074300a75ea7362b23cf88ac", "addresses": ["1GCGRpvsZCBt5ExJgxBUUs4pR3Avt2cXA1"], "asm": "OP_DUP OP_HASH160 a6ab574cd55573bef992074300a75ea7362b23cf OP_EQUALVERIFY OP_CHECKSIG", "type": "pubkeyhash"}, "value": 0.01030915, "n": 98}, {"scriptPubKey": {"reqSigs": 1, "hex": "76a9149d5cab5db53a587ce91d586b9b618dcd9862931c88ac", "addresses": ["1FM46uCqjRhv1bFLTxsWTUdmePGxKYFzQK"], "asm": "OP_DUP OP_HASH160 9d5cab5db53a587ce91d586b9b618dcd9862931c OP_EQUALVERIFY OP_CHECKSIG", "type": "pubkeyhash"}, "value": 0.01015933, "n": 99}, {"scriptPubKey": {"reqSigs": 1, "hex": "76a914cc75d43c52efb338c8f14a9b4321f8a1ddc3767a88ac", "addresses": ["1Ke613GEWvdEuoFLTN3qHEH8HEUDEPTfRx"], "asm": "OP_DUP OP_HASH160 cc75d43c52efb338c8f14a9b4321f8a1ddc3767a OP_EQUALVERIFY OP_CHECKSIG", "type": "pubkeyhash"}, "value": 0.01047827, "n": 100}], "hex": "02000000011b79d76c4a8d2deadf95f9b5ef2fa8e749afddd325eee4b5ce566c80ae545224010000006a47304402202853d81008a69045e1bfdef921eedb1b245dbdabb1d564d2870e251db9425eb202202d2b2fb87de0f26b728489488f00f4f09ed568f8f633016234577da783c09b6901210308ace3675c4a97f9910a7ce15645370f27e6923b9d0677decf18b02acb81f6b3feffffff659dcf0f00000000001976a9146c3e9111c84ddcfb82131654cc8270b6fc266a0788ace4700f00000000001976a914388f5472d07af8468e456cf4d66788d11e03436a88ac66690f00000000001976a9149348031aa873d3b36c6b30eefc89498b064410e588ac64df0f00000000001976a9144b7a84605e15d08c2375b801ed7142cd6435e8eb88ac6c850f000000000017a914d5e06636fc4c1b0add93a5c42f76f5da0b085b0787fed00f000000000017a914a6920cfd4a8caf2b724a9cdfcfb5ccd9c50fd53a87e0d10f00000000001976a91406811bc4358de13a781bc7b6c36a7e9f6107d7a388ac6ccb0f000000000017a9147b8b73f20d0f5ef9ecb87a6baaa9e83e4f38fc9b876ace0f00000000001976a91434a3f8e850f5d3a006dfcecdffda6f1d36ded1c888acbb6c0f000000000017a914d3f417ffd858b70bef9e9936088e14e1486c3d66871a830f000000000017a91484c5a68eaef9b823e7aa954f33d6745dbde61c1787907d0f000000000017a9146446553e68ca564f6614857e3181e668fb70293d8770b30f00000000001976a9144160a85f166d72cd90678f4a2ced097f2674510f88acdfb50f00000000001976a91480e1df469517b1ef875f5f0002023fa2bb1c996688acdfe10f000000000017a9141fe17c4eb07af754c2bd7a1ef54fad225e4dc7fc879cbd0f000000000017a914cfea6193e1ef593b87fdc5b012948a162fc6706287c2d00f00000000001976a9149403e02fc187180b1b2c1969529e096c15da627188acc8dc0f00000000001976a9140eedb2ac72f5a9523d5259338b087fbb43f13dde88aca9ba0f00000000001976a91441a6dfeb98250e480a83e81e8ba5804d666e70f388ac2bcf0f00000000001976a9149b19b355909fd7fecdcbfedc89c5e0a736233bd388acf36f0f00000000001976a91483182dc4e05d29d6726732de93c16480c0f7b1ed88acfec20f00000000001976a914124c883268c5f977f70bb1b55e2cb6ff1799213688acc1a00f00000000001976a914a14e7564b48029fc10b9d455ec1dd8d550b467d288ac97860f00000000001976a91424609b11f4eee3bc312364cc74b6b3ea710ea27e88ac30a30f00000000001976a9143a0f449412746883f835f5bfe63808ca25c8354c88acf2b90f00000000001976a914fda702aec744be76aca7d8c46d47d256a4dcdb6c88acc6bb0f00000000001976a914bf382fc948310c9dbff4367bcc8175be921ec3f188ac50750f00000000001976a914500233bf5e4e2e8ba89f84231ce444543b9ae2df88aca49d0f000000000017a9140e4c867dee814f3eb150533efa6ad09de28050598721c30f000000000017a914d637e567d829ed7585cd90c5158dde1302b6a09b87688b0f000000000017a9145abf20a4243b396f7569af35c8ebaa25170211c8877ee60f00000000001976a914d1014c3f9503d114c9c5887ff1612fee12c1818b88ac24830f000000000017a914aa47e7ebc9e265958bd6113f0033300f29368289870f9e0f00000000001976a91428b27fc427e800b248df2c85d8cd6dc85465a49d88acd5810f00000000001976a9147009cf771c91e594332bd009d0648d540b2ab15088ac1cc60f000000000017a914644a3ea3549de4dbc336799a9f0029ba3a9c1934874df40f00000000001976a91457c5ef8d6ef327bfdbeaa4ea017e64039fc8d08688acca780f00000000001976a914748660644f6c25c342bf861afdc3cde1328081f288acc26c0f00000000001976a914f0c2d4bbd44924539d3e8e953c4ed982b4a0683b88acad031000000000001976a91463a5975aa412ac9f01644ebf0ef63761215a63c688ac00a80f00000000001976a9148c22e1b6cb8b4b73a2bb0adfc14503da944935b588ac24b00f000000000017a91436da70fb45f7ccec2d267e40c6a99d996f18e1a8874bbf0f00000000001976a91404fd22f390f48f2e97902733375cb3b7ce579af988acc68f0f00000000001976a914eb9f3dbf10d0f4f92c3e27547f20a6d934a0b63088acf9cd0f00000000001976a914f54751a145aa81d1e990bce722478af90b4cafd788ac4caa0f00000000001976a914eb56a6a9811cf1db0458cd5150df6f0add8df9d788ac1c041000000000001976a914837338ff92e59a070b7e5796b75ea45d4abb0be788ace6d90f00000000001976a91469d7c55f80386c8c2da31e8dbd8c6e79210c86ad88acdd790f00000000001976a9142a4e9c744c1f334babe6697514cda17fbf3a493588ac16db0f00000000001976a914404c3db60a41d67704ed0efdc956eab94bfe34a388acd7d60f00000000001976a91400220645b54a61b459e6b882cc3c099a625143bd88ac67bb0f00000000001976a914699c49f85dfcf809072d654e126539cc8236229288acc8fb0f00000000001976a9141983318a1df5fea8932aba04e7416289c0977a4288ac8a8b0f00000000001976a91486d304b680f71a21089abbeb9779232f2bbcdcc988ac9cb40f00000000001976a914d6ec77aeb86e3cfe2a3f6cdd62dafd31411f508388ac02a70f000000000017a9141acc38b67279be4cc42218fd2386aabf70e87b4c87f2680f00000000001976a9148fb33b22bcd721e79e116b5518f94f9474a2efbf88ac71ea0f00000000001976a914f3fd09919484e1c74c15f0a5a8b101c11d44a03f88ac15670f00000000001976a9142383805a295418ed17a1ed87ffe8abb8e139fbca88acd9ee0f00000000001976a914a2bee364a1252a9eba05ae00bfeb047d0c30544788ac04c90f00000000001976a91421c0f018f95d71a6f559b7712f3786ecb743eb0788acb1c90f000000000017a914b90be10d82b490ce43377fb9f919f77bb15aff8d87c0e80f00000000001976a914c52df03ff567cbce28b9230a4e74b7acc3f96d2a88ac2e650f000000000017a9148ddf1e3007fcbfc7ed81f0a8612615d8911d32d78734f80f00000000001976a91411ab5d89aa613e397e8a8549f07e25b22c8a04d188ace48c0f00000000001976a9141b37700afec5b1e7d162cdb49dedfbb63b24f9ef88ac1fcf0f00000000001976a91426b58c27532d348c4583e3705ea1a428d0eb3ab088ace8c40f00000000001976a91433fd093d932ba712f145950e3178ba4fc1e33a2688ac6eec0f000000000017a914c9c3f4c5d4d8922fa4141f03da45f67f19d07d4e87eaee0f00000000001976a914bee5de538047a27ba9e200c0d35d298e67b16e1488aca6880f00000000001976a914f02382e01712854cf07c66a3af096cb7ac5ea39988ac5dee0f00000000001976a914f51c5efbb405852c04ad061b2fe7a37ff2e4f8c388ac4fba0f00000000001976a9149014e91807346aadb775e42c2b5170759c9ac77688ac37dc0f00000000001976a9145b41dc9ca5f13a7ad3f4ec911486ca091627cabc88acacc60f00000000001976a914db8100eb94f720dec2dec76fa6acf51bf1bd24c188ac78d20f00000000001976a9148667d6a3626aa41a78306f5ac20f43ab58a4a98988acf59c0f00000000001976a9144d293eec2e1bf9c1a33948a9710cfc2f8fbba67188ac099d0f000000000017a914d214c7c8352f4c77aba94e150b4bfd82ec263d4e877b031000000000001976a91426bbf879ee21068245f342593957028d602b806088acc18c0f000000000017a91481af73d32469c29d84129ab09ea24099932e38ca87bef50f00000000001976a9143d5435bf18b37ad3eea78b378091b6b7721408d188ac86e10f00000000001976a91422f3542fba57c9c4626981aa5bbb1b9abe01117188aca4d60f00000000001976a9145b7b182a4ccca6e149f5c131f89bd0227abb748988ac28de0f000000000017a914a91e5a7761b142b1ebfb1004b7c64dc22693f56e871cb20f00000000001976a91474b2c77dd141a38575546b31ab3f74fc9a2ee2d088ac90aa0f00000000001976a9147050df21ac532d2e881fceb4028659def1b6847388ac91c80f000000000017a914fe61c5d522297a0fcab69e989ca98226f5fe166c870abc0f00000000001976a91416e4a31d4d5d0389692eb2fd3305d14a145bac2a88ac3f0210000000000017a9144040bce4906824e2fc0d68c61b5444c5946af9bf87a4d70f00000000001976a9149b5224f80789077d8e9b736203de7f9f8ebcd0c288ac5ac90f00000000001976a914e884bcce76041bdef5d9d38aae8752756f7580ba88ac52bf0f00000000001976a91419735307d97c5b1cb934ae83adb46629f2d7b0c988ac2a780f00000000001976a914a352fed6d7ad65bd2c479db6e499fc1be34a5bf788ac285d64ba060000001976a9149670ed899815644e6400520139ac618020c38cbf88ace48c0f00000000001976a91401bf93ca2e8e8452e99e5e4c440dbafbedeb52de88ac0bf40f00000000001976a91444905ae7507fee364b0875e1603a4f5a47966f1b88acacdf0f00000000001976a914f84161c2f0a7337a0825a8b97c29a6b5f32b813788acebe30f00000000001976a9149355bc82232a348e880333a59059e47cd946f53088ac03bb0f00000000001976a914a6ab574cd55573bef992074300a75ea7362b23cf88ac7d800f00000000001976a9149d5cab5db53a587ce91d586b9b618dcd9862931c88ac13fd0f00000000001976a914cc75d43c52efb338c8f14a9b4321f8a1ddc3767a88ac10490800", "vin": [{"sequence": 4294967294, "scriptSig": {"hex": "47304402202853d81008a69045e1bfdef921eedb1b245dbdabb1d564d2870e251db9425eb202202d2b2fb87de0f26b728489488f00f4f09ed568f8f633016234577da783c09b6901210308ace3675c4a97f9910a7ce15645370f27e6923b9d0677decf18b02acb81f6b3", "asm": "304402202853d81008a69045e1bfdef921eedb1b245dbdabb1d564d2870e251db9425eb202202d2b2fb87de0f26b728489488f00f4f09ed568f8f633016234577da783c09b69[ALL] 0308ace3675c4a97f9910a7ce15645370f27e6923b9d0677decf18b02acb81f6b3"}, "vout": 1, "txid": "245254ae806c56ceb5e4ee25d3ddaf49e7a82fefb5f995dfea2d8d4a6cd7791b"}], "txid": "fb4888b61838b90bdcf849bbaf1af8b526a1b709ec580714e1175e62cb78d1a2", "blocktime": 1537871767, "version": 2, "confirmations": 11495, "time": 1537871767, "locktime": 542992, "vsize": 3545, "size": 3545}