{"hash": "fb4a97eb75fef43099de39ab799907723b9030badf1733bcca973a8f2dbd5f53", "blockhash": "0000000000000000000e13cef7c366c0283d82e591d1acd082e914b08063cdf1", "vout": [{"scriptPubKey": {"reqSigs": 1, "hex": "a914bc8cd795fc2c04225e9a9eb3a484af3ed31aa14687", "addresses": ["3JsygVRFr4LrdWkh2ny7WQf8KJrHM3tbXt"], "asm": "OP_HASH160 bc8cd795fc2c04225e9a9eb3a484af3ed31aa146 OP_EQUAL", "type": "scripthash"}, "value": 0.6, "n": 0}, {"scriptPubKey": {"reqSigs": 1, "hex": "76a914270714ed17ba67d1f57cb53abc13b6d9661c70f588ac", "addresses": ["14ZMqXiEY9rRhaVyxaj6ByQrVKRtnwkJ7i"], "asm": "OP_DUP OP_HASH160 270714ed17ba67d1f57cb53abc13b6d9661c70f5 OP_EQUALVERIFY OP_CHECKSIG", "type": "pubkeyhash"}, "value": 0.01495528, "n": 1}], "hex": "0100000006a444a7616df25995e0672dff55c6a65c2c4c8e3f246e316009a692acb94483ad010000006a473044022029e1c5e87b63247ec2bd92e08d1582341d4308f65662a7179a7fab323aef02ca02201f4d610d5d82024d88ae92a2ab2b582aa93f59072354cd12e53a801e1bcfa78f01210331ec2956fb3880500a017595f70723a1e2c0659d7086d57b974460ad998e00a0ffffffffbd14a27df1a6487e7f1022bcebf209793cd61602b47bd7ec266a813e007d955c290000006b48304502210096bed34f1c3fc06ace0b17f569823a77941a66e5e2e30290b511a0d01247e1c10220347f4082f44e46e6b5fa27bf0f1735c1f686ea0f190abdf49e63b1d06379fe6a012102090718afca8c0b8994c122ec127573f8c8138de625c2b8b5e865fd9b3fd8997bffffffff9c5f2c900b0e40a23e08a3af9cf74bc7588b7ac1666b6c10b913573169b7c6c4000000006a47304402204cb1a956ec10853c6c3830c6cbe9e3f90792d2d36337c9c21980eed583eca73602204135ae473b0496405da2de0083b2d73912648e434d564179b35157850981c327012103f512d5f16d9e86b87191eb80a7319a29a28e19be64a2bbb3b657fa7273aa1519ffffffffbd16f1640d6a749eb204e0ac1f6ad79ee31ee4a921c3c712aa142cbe7e1d19c1000000006b483045022100d61190c57474bed895756e0879ea5b6e0a87746141d1f445b46c204a0608a340022066c754b9c801375eb74eacf857cd70c52942c900e90fbc25bdb87455db49b1aa012103f512d5f16d9e86b87191eb80a7319a29a28e19be64a2bbb3b657fa7273aa1519ffffffff25a9a5ad2dbb015c964c4539f92243cfd5e56861e858445707d4abd67d4b7ebb010000006946304302201c8ddae3dced23e2abe21889ca670397bd5dbabde489a394bb83e3354e107e1f021f2543c900f3f07975607d3147494a3120ebc643e169308bb5628c33608773a0012103e59dd6f6d3f3176c0393eec8a1912847817170917115de3ab0c2f47357943cccffffffffd33228223077ab8f7d5e6bd5ad197348f92d15ed8c6c7cfab5aa7ebd41912dd1010000006b483045022100808bbde7ebc9f9f2117f64853f03060c732416813eb57780067ad8b38b91caec022062db09c9deba9331e10f9406fd543a78756e16f982ebc611db9a9c235aeb583501210211865b4e85d7f8ca38fb1b89a09054872fa2b71ccaeb9c7a52674c51b206e40fffffffff02008793030000000017a914bc8cd795fc2c04225e9a9eb3a484af3ed31aa14687e8d11600000000001976a914270714ed17ba67d1f57cb53abc13b6d9661c70f588ac00000000", "vin": [{"sequence": 4294967295, "scriptSig": {"hex": "473044022029e1c5e87b63247ec2bd92e08d1582341d4308f65662a7179a7fab323aef02ca02201f4d610d5d82024d88ae92a2ab2b582aa93f59072354cd12e53a801e1bcfa78f01210331ec2956fb3880500a017595f70723a1e2c0659d7086d57b974460ad998e00a0", "asm": "3044022029e1c5e87b63247ec2bd92e08d1582341d4308f65662a7179a7fab323aef02ca02201f4d610d5d82024d88ae92a2ab2b582aa93f59072354cd12e53a801e1bcfa78f[ALL] 0331ec2956fb3880500a017595f70723a1e2c0659d7086d57b974460ad998e00a0"}, "vout": 1, "txid": "ad8344b9ac92a60960316e243f8e4c2c5ca6c655ff2d67e09559f26d61a744a4"}, {"sequence": 4294967295, "scriptSig": {"hex": "48304502210096bed34f1c3fc06ace0b17f569823a77941a66e5e2e30290b511a0d01247e1c10220347f4082f44e46e6b5fa27bf0f1735c1f686ea0f190abdf49e63b1d06379fe6a012102090718afca8c0b8994c122ec127573f8c8138de625c2b8b5e865fd9b3fd8997b", "asm": "304502210096bed34f1c3fc06ace0b17f569823a77941a66e5e2e30290b511a0d01247e1c10220347f4082f44e46e6b5fa27bf0f1735c1f686ea0f190abdf49e63b1d06379fe6a[ALL] 02090718afca8c0b8994c122ec127573f8c8138de625c2b8b5e865fd9b3fd8997b"}, "vout": 41, "txid": "5c957d003e816a26ecd77bb40216d63c7909f2ebbc22107f7e48a6f17da214bd"}, {"sequence": 4294967295, "scriptSig": {"hex": "47304402204cb1a956ec10853c6c3830c6cbe9e3f90792d2d36337c9c21980eed583eca73602204135ae473b0496405da2de0083b2d73912648e434d564179b35157850981c327012103f512d5f16d9e86b87191eb80a7319a29a28e19be64a2bbb3b657fa7273aa1519", "asm": "304402204cb1a956ec10853c6c3830c6cbe9e3f90792d2d36337c9c21980eed583eca73602204135ae473b0496405da2de0083b2d73912648e434d564179b35157850981c327[ALL] 03f512d5f16d9e86b87191eb80a7319a29a28e19be64a2bbb3b657fa7273aa1519"}, "vout": 0, "txid": "c4c6b769315713b9106c6b66c17a8b58c74bf79cafa3083ea2400e0b902c5f9c"}, {"sequence": 4294967295, "scriptSig": {"hex": "483045022100d61190c57474bed895756e0879ea5b6e0a87746141d1f445b46c204a0608a340022066c754b9c801375eb74eacf857cd70c52942c900e90fbc25bdb87455db49b1aa012103f512d5f16d9e86b87191eb80a7319a29a28e19be64a2bbb3b657fa7273aa1519", "asm": "3045022100d61190c57474bed895756e0879ea5b6e0a87746141d1f445b46c204a0608a340022066c754b9c801375eb74eacf857cd70c52942c900e90fbc25bdb87455db49b1aa[ALL] 03f512d5f16d9e86b87191eb80a7319a29a28e19be64a2bbb3b657fa7273aa1519"}, "vout": 0, "txid": "c1191d7ebe2c14aa12c7c321a9e41ee39ed76a1face004b29e746a0d64f116bd"}, {"sequence": 4294967295, "scriptSig": {"hex": "46304302201c8ddae3dced23e2abe21889ca670397bd5dbabde489a394bb83e3354e107e1f021f2543c900f3f07975607d3147494a3120ebc643e169308bb5628c33608773a0012103e59dd6f6d3f3176c0393eec8a1912847817170917115de3ab0c2f47357943ccc", "asm": "304302201c8ddae3dced23e2abe21889ca670397bd5dbabde489a394bb83e3354e107e1f021f2543c900f3f07975607d3147494a3120ebc643e169308bb5628c33608773a0[ALL] 03e59dd6f6d3f3176c0393eec8a1912847817170917115de3ab0c2f47357943ccc"}, "vout": 1, "txid": "bb7e4b7dd6abd407574458e86168e5d5cf4322f939454c965c01bb2dada5a925"}, {"sequence": 4294967295, "scriptSig": {"hex": "483045022100808bbde7ebc9f9f2117f64853f03060c732416813eb57780067ad8b38b91caec022062db09c9deba9331e10f9406fd543a78756e16f982ebc611db9a9c235aeb583501210211865b4e85d7f8ca38fb1b89a09054872fa2b71ccaeb9c7a52674c51b206e40f", "asm": "3045022100808bbde7ebc9f9f2117f64853f03060c732416813eb57780067ad8b38b91caec022062db09c9deba9331e10f9406fd543a78756e16f982ebc611db9a9c235aeb5835[ALL] 0211865b4e85d7f8ca38fb1b89a09054872fa2b71ccaeb9c7a52674c51b206e40f"}, "vout": 1, "txid": "d12d9141bd7eaab5fa7c6c8ced152df9487319add56b5e7d8fab7730222832d3"}], "txid": "fb4a97eb75fef43099de39ab799907723b9030badf1733bcca973a8f2dbd5f53", "blocktime": 1537871767, "version": 1, "confirmations": 11492, "time": 1537871767, "locktime": 0, "vsize": 960, "size": 960}