{"hash": "fb4db0349e9dd877457f4ea3b6a52ceac4d0d7a74012d9cd17d09964da78ef6f", "blockhash": "0000000000000000001f76057863aec43deb6fa401d9628bb513d65a8098bfab", "vout": [{"scriptPubKey": {"reqSigs": 1, "hex": "76a9145a38677bddec958de7ba6c80e8063ac278d47dbb88ac", "addresses": ["19E3PJNt8q1w2Fgwv2K3hcN4xbsdq24Spy"], "asm": "OP_DUP OP_HASH160 5a38677bddec958de7ba6c80e8063ac278d47dbb OP_EQUALVERIFY OP_CHECKSIG", "type": "pubkeyhash"}, "value": 0.01016928, "n": 0}, {"scriptPubKey": {"reqSigs": 1, "hex": "76a914fd17aa718889ab252c0ed8b453ed3c49620834f388ac", "addresses": ["1Q5EJrxb2GzyrED14Y3q3GMY3k6wLjj8Nu"], "asm": "OP_DUP OP_HASH160 fd17aa718889ab252c0ed8b453ed3c49620834f3 OP_EQUALVERIFY OP_CHECKSIG", "type": "pubkeyhash"}, "value": 0.00577079, "n": 1}], "hex": "0100000003fdb0857b5d546e20cd05e65f626531d143904a1a2a710ea9cea3284a4f1c44ea010000006a4730440220309e5ee19285c76743b160402d1f15ede5125973f7dbcb0b1bb886d0c9a970750220308647e52ed8910713ccfb07f409b59fd68473877ffc000652f3825ae947b98c012103a91860c4c1751b6ecff27fab51b84ce01a9fb8ec81623b55a766fb6b9fd1a5a0feffffffc10a09c850b32cfd8e8c3215a7be89b568965ca74b892f0d1009264d128541df000000006b483045022100dfddcdadf1f5ec6008eaa141b94351415f06fc56b640e164c76bcacfcf21d03602205ac23bc8cb4b63849671f62d76b0a552bef2d51e999b844f672cdf50d9b129e5012102ae79cabd1f56fa92381e9df1a6bf64ab49c7225676e8a1bfbd3ce1453d21a955feffffff2658568cd79885752be5b3f3a8949c0ec3bbba6536afcffa49f9555e512250fd000000006b483045022100854f881706491b1773b94fea073236824c54cd623b068e9dc1b96af3eee7143902200409d61b910219ba9b7d4205430125144fb0c351ee292f19500f76d00f6251a60121038ebb6855fc2df1ce097d150c4ede54b6a88c261eb05222539dcfa9cdf0bdacf2feffffff0260840f00000000001976a9145a38677bddec958de7ba6c80e8063ac278d47dbb88ac37ce0800000000001976a914fd17aa718889ab252c0ed8b453ed3c49620834f388acdf480800", "vin": [{"sequence": 4294967294, "scriptSig": {"hex": "4730440220309e5ee19285c76743b160402d1f15ede5125973f7dbcb0b1bb886d0c9a970750220308647e52ed8910713ccfb07f409b59fd68473877ffc000652f3825ae947b98c012103a91860c4c1751b6ecff27fab51b84ce01a9fb8ec81623b55a766fb6b9fd1a5a0", "asm": "30440220309e5ee19285c76743b160402d1f15ede5125973f7dbcb0b1bb886d0c9a970750220308647e52ed8910713ccfb07f409b59fd68473877ffc000652f3825ae947b98c[ALL] 03a91860c4c1751b6ecff27fab51b84ce01a9fb8ec81623b55a766fb6b9fd1a5a0"}, "vout": 1, "txid": "ea441c4f4a28a3cea90e712a1a4a9043d13165625fe605cd206e545d7b85b0fd"}, {"sequence": 4294967294, "scriptSig": {"hex": "483045022100dfddcdadf1f5ec6008eaa141b94351415f06fc56b640e164c76bcacfcf21d03602205ac23bc8cb4b63849671f62d76b0a552bef2d51e999b844f672cdf50d9b129e5012102ae79cabd1f56fa92381e9df1a6bf64ab49c7225676e8a1bfbd3ce1453d21a955", "asm": "3045022100dfddcdadf1f5ec6008eaa141b94351415f06fc56b640e164c76bcacfcf21d03602205ac23bc8cb4b63849671f62d76b0a552bef2d51e999b844f672cdf50d9b129e5[ALL] 02ae79cabd1f56fa92381e9df1a6bf64ab49c7225676e8a1bfbd3ce1453d21a955"}, "vout": 0, "txid": "df4185124d2609100d2f894ba75c9668b589bea715328c8efd2cb350c8090ac1"}, {"sequence": 4294967294, "scriptSig": {"hex": "483045022100854f881706491b1773b94fea073236824c54cd623b068e9dc1b96af3eee7143902200409d61b910219ba9b7d4205430125144fb0c351ee292f19500f76d00f6251a60121038ebb6855fc2df1ce097d150c4ede54b6a88c261eb05222539dcfa9cdf0bdacf2", "asm": "3045022100854f881706491b1773b94fea073236824c54cd623b068e9dc1b96af3eee7143902200409d61b910219ba9b7d4205430125144fb0c351ee292f19500f76d00f6251a6[ALL] 038ebb6855fc2df1ce097d150c4ede54b6a88c261eb05222539dcfa9cdf0bdacf2"}, "vout": 0, "txid": "fd5022515e55f949facfaf3665babbc30e9c94a8f3b3e52b758598d78c565826"}], "txid": "fb4db0349e9dd877457f4ea3b6a52ceac4d0d7a74012d9cd17d09964da78ef6f", "blocktime": 1537873891, "version": 1, "confirmations": 11474, "time": 1537873891, "locktime": 542943, "vsize": 521, "size": 521}