{"hash": "fb4e26e41cc3819038c3f09da6745c6321a32a3cf92219c394472d8438700e69", "blockhash": "0000000000000000001e0dab787dd257d1dbfcb92a98c2207d5e1078be1f4165", "vout": [{"scriptPubKey": {"reqSigs": 1, "hex": "a914f8eaa439595ca4c245aab36cef5e1f151f3d2fdc87", "addresses": ["3QPAbJ4RSB77EDhM9dsyYfryYhQzmcraoC"], "asm": "OP_HASH160 f8eaa439595ca4c245aab36cef5e1f151f3d2fdc OP_EQUAL", "type": "scripthash"}, "value": 0.0021346, "n": 0}, {"scriptPubKey": {"reqSigs": 1, "hex": "76a914c0bf89a70b521a7448a9285f549eaaec6fcbf69188ac", "addresses": ["1JaAC74YuGM7mMgRvYZuqhzT6csE3T396P"], "asm": "OP_DUP OP_HASH160 c0bf89a70b521a7448a9285f549eaaec6fcbf691 OP_EQUALVERIFY OP_CHECKSIG", "type": "pubkeyhash"}, "value": 0.02588729, "n": 1}], "hex": "01000000010a24124fbb8e940c33e9b2b641a18380a477d2ff8ff1986acd21db846267f9a1010000006b483045022100fa3d5ff73fcb2bf971f6ac78fd0a16f6cae5c8e61c2a94818223ef70c863d5a702200ea175bd5bbc0dc9e8a4f7257e3bd3e8c41a4060beb398e80ed75af09a21ad97012102917e4b03d5d408c8b050ccbc2d05761199445732cfd103a0e3563044f769bf63ffffffff02d44103000000000017a914f8eaa439595ca4c245aab36cef5e1f151f3d2fdc8739802700000000001976a914c0bf89a70b521a7448a9285f549eaaec6fcbf69188ac00000000", "vin": [{"sequence": 4294967295, "scriptSig": {"hex": "483045022100fa3d5ff73fcb2bf971f6ac78fd0a16f6cae5c8e61c2a94818223ef70c863d5a702200ea175bd5bbc0dc9e8a4f7257e3bd3e8c41a4060beb398e80ed75af09a21ad97012102917e4b03d5d408c8b050ccbc2d05761199445732cfd103a0e3563044f769bf63", "asm": "3045022100fa3d5ff73fcb2bf971f6ac78fd0a16f6cae5c8e61c2a94818223ef70c863d5a702200ea175bd5bbc0dc9e8a4f7257e3bd3e8c41a4060beb398e80ed75af09a21ad97[ALL] 02917e4b03d5d408c8b050ccbc2d05761199445732cfd103a0e3563044f769bf63"}, "vout": 1, "txid": "a1f9676284db21cd6a98f18fffd277a48083a141b6b2e9330c948ebb4f12240a"}], "txid": "fb4e26e41cc3819038c3f09da6745c6321a32a3cf92219c394472d8438700e69", "blocktime": 1537872475, "version": 1, "confirmations": 11486, "time": 1537872475, "locktime": 0, "vsize": 224, "size": 224}