{"hash": "fb51a42afa6144c2bd6c55101c07de765c5e77ccaf0dfa5b6e538fe07cd3e022", "blockhash": "0000000000000000000baef3f32e3676a92c3b2e5da21b426e4f302fc371ce76", "vout": [{"scriptPubKey": {"reqSigs": 1, "hex": "76a914c7ebca56858a38426ad8096b55fa124f30e76be588ac", "addresses": ["1KE5wBHJ9UCVYjAdJqQLSP7MuscwqgdQxj"], "asm": "OP_DUP OP_HASH160 c7ebca56858a38426ad8096b55fa124f30e76be5 OP_EQUALVERIFY OP_CHECKSIG", "type": "pubkeyhash"}, "value": 0.00039061, "n": 0}, {"scriptPubKey": {"reqSigs": 1, "hex": "a9140f3a2bae7d833d1646397813b00c0610d847a51787", "addresses": ["335XkBq6RfS7vb4joChW7DujVNnyt5zTE4"], "asm": "OP_HASH160 0f3a2bae7d833d1646397813b00c0610d847a517 OP_EQUAL", "type": "scripthash"}, "value": 0.00547309, "n": 1}], "hex": "01000000022f2a66e8debecfbea885c75dd3c1c02938b5ce94492670274e7b16b192e0af6d0b0000006a47304402200f33016942d15ad4411dba701248a2d9da59a75c5b26593d49d564964b5b20460220013cfc64f248c564769c578bf142b6b6503b59b3fbe5e39b99e68de7bb0462830121036b017d29edaff79c5bc09f626ddf56aa4a171464683a326f24a3a1e281d6f9aefdffffffde0cf3cee47f8b311090d118cc60ce4eff5110c25f9a4d58aec4e3df7cb54eed010000006b483045022100cbb367691da1add9ac489c66ab5a24a63646b45b7ca678c2d87ab9a672edcda502207e8033f3ffcd9efa015a3fdcb6ece6a40327ad9889ed6f3f02e69502480d924c0121036b017d29edaff79c5bc09f626ddf56aa4a171464683a326f24a3a1e281d6f9aefdffffff0295980000000000001976a914c7ebca56858a38426ad8096b55fa124f30e76be588aced5908000000000017a9140f3a2bae7d833d1646397813b00c0610d847a5178716490800", "vin": [{"sequence": 4294967293, "scriptSig": {"hex": "47304402200f33016942d15ad4411dba701248a2d9da59a75c5b26593d49d564964b5b20460220013cfc64f248c564769c578bf142b6b6503b59b3fbe5e39b99e68de7bb0462830121036b017d29edaff79c5bc09f626ddf56aa4a171464683a326f24a3a1e281d6f9ae", "asm": "304402200f33016942d15ad4411dba701248a2d9da59a75c5b26593d49d564964b5b20460220013cfc64f248c564769c578bf142b6b6503b59b3fbe5e39b99e68de7bb046283[ALL] 036b017d29edaff79c5bc09f626ddf56aa4a171464683a326f24a3a1e281d6f9ae"}, "vout": 11, "txid": "6dafe092b1167b4e2770264994ceb53829c0c1d35dc785a8becfbedee8662a2f"}, {"sequence": 4294967293, "scriptSig": {"hex": "483045022100cbb367691da1add9ac489c66ab5a24a63646b45b7ca678c2d87ab9a672edcda502207e8033f3ffcd9efa015a3fdcb6ece6a40327ad9889ed6f3f02e69502480d924c0121036b017d29edaff79c5bc09f626ddf56aa4a171464683a326f24a3a1e281d6f9ae", "asm": "3045022100cbb367691da1add9ac489c66ab5a24a63646b45b7ca678c2d87ab9a672edcda502207e8033f3ffcd9efa015a3fdcb6ece6a40327ad9889ed6f3f02e69502480d924c[ALL] 036b017d29edaff79c5bc09f626ddf56aa4a171464683a326f24a3a1e281d6f9ae"}, "vout": 1, "txid": "ed4eb57cdfe3c4ae584d9a5fc21051ff4ece60cc18d19010318b7fe4cef30cde"}], "txid": "fb51a42afa6144c2bd6c55101c07de765c5e77ccaf0dfa5b6e538fe07cd3e022", "blocktime": 1537876114, "version": 1, "confirmations": 11460, "time": 1537876114, "locktime": 542998, "vsize": 371, "size": 371}