{"hash": "fb54318626cc536778cd2db45356a69869c62dc14fa205df8662cfd79dbc076b", "blockhash": "00000000000000000018f53835495a110e01622372bf6ae95dc86f2b0ab887b0", "vout": [{"scriptPubKey": {"reqSigs": 1, "hex": "76a9141ce72668ce6d8c9781b58e1ade09fcfec2a1b13788ac", "addresses": ["13dppxXaBtuV6XMAgwhvCsH2dgeW8ouobs"], "asm": "OP_DUP OP_HASH160 1ce72668ce6d8c9781b58e1ade09fcfec2a1b137 OP_EQUALVERIFY OP_CHECKSIG", "type": "pubkeyhash"}, "value": 0.00027721, "n": 0}, {"scriptPubKey": {"reqSigs": 1, "hex": "76a9140f56dbfcb248655663c21d29a163deeeed66dba488ac", "addresses": ["12Q7ByDA7weA62ZdDUesVnGeto6iwCnTXM"], "asm": "OP_DUP OP_HASH160 0f56dbfcb248655663c21d29a163deeeed66dba4 OP_EQUALVERIFY OP_CHECKSIG", "type": "pubkeyhash"}, "value": 0.00782, "n": 1}], "hex": "0100000001cf841838acb9f4d9528b728f124084c6613aff3ff35011cec1969883055a597a1d0000006b483045022100aba350c6a69da46ceedb1026cc5df66b2ce9a6f80bde7a0695dff46ebe24b026022055659dcb4051876cf84d1ced73361fecccbc50f656b4a6040319868a529992d10121036720abfd130f975ed8629b87ca97dc593dbb9607bc1f2b9c5c26097f9bdd884cffffffff02496c0000000000001976a9141ce72668ce6d8c9781b58e1ade09fcfec2a1b13788acb0ee0b00000000001976a9140f56dbfcb248655663c21d29a163deeeed66dba488ac00000000", "vin": [{"sequence": 4294967295, "scriptSig": {"hex": "483045022100aba350c6a69da46ceedb1026cc5df66b2ce9a6f80bde7a0695dff46ebe24b026022055659dcb4051876cf84d1ced73361fecccbc50f656b4a6040319868a529992d10121036720abfd130f975ed8629b87ca97dc593dbb9607bc1f2b9c5c26097f9bdd884c", "asm": "3045022100aba350c6a69da46ceedb1026cc5df66b2ce9a6f80bde7a0695dff46ebe24b026022055659dcb4051876cf84d1ced73361fecccbc50f656b4a6040319868a529992d1[ALL] 036720abfd130f975ed8629b87ca97dc593dbb9607bc1f2b9c5c26097f9bdd884c"}, "vout": 29, "txid": "7a595a05839896c1ce1150f33fff3a61c68440128f728b52d9f4b9ac381884cf"}], "txid": "fb54318626cc536778cd2db45356a69869c62dc14fa205df8662cfd79dbc076b", "blocktime": 1537870928, "version": 1, "confirmations": 11514, "time": 1537870928, "locktime": 0, "vsize": 226, "size": 226}