{"hash": "fb59eeb4c31ebc4fb59ab71058c3e373bd100df7915a7e2e70c41f1f8e128769", "blockhash": "0000000000000000000dcc0f55137456b1a82d3642486a52398922ac4d620174", "vout": [{"scriptPubKey": {"reqSigs": 1, "hex": "76a914e91182e098fb1239208bdedd140c7a1c1f98104588ac", "addresses": ["1NFMRQ8NqfavKttaZBYCiX6xS6CmWa8yd7"], "asm": "OP_DUP OP_HASH160 e91182e098fb1239208bdedd140c7a1c1f981045 OP_EQUALVERIFY OP_CHECKSIG", "type": "pubkeyhash"}, "value": 7.9e-05, "n": 0}, {"scriptPubKey": {"reqSigs": 1, "hex": "a91414b2853fac2a3e0176956fe445d72c9a2144e48987", "addresses": ["33aTJCgxrGrvJSbJsje3SrWLTFbtNioyo2"], "asm": "OP_HASH160 14b2853fac2a3e0176956fe445d72c9a2144e489 OP_EQUAL", "type": "scripthash"}, "value": 0.0004, "n": 1}], "hex": "01000000018ddad84d7f8eebfdfd8996d5005f0c9af024444d2f5a5c5398c2057051ddc248000000006a4730440220693ea22bd9358304d3b6907f02b1767c4d5d00f3bc0cef74834895ebab5dcd820220190baa73de50fd26653882b6be9d5a7521b83c37ceaed7fe5ca37a48f24cd20c012102fe88be54ffd8bd60d30d3334f2c841461cbd9898795d4951d8ee75c9f5e245d5fdffffff02dc1e0000000000001976a914e91182e098fb1239208bdedd140c7a1c1f98104588ac409c00000000000017a91414b2853fac2a3e0176956fe445d72c9a2144e489870b490800", "vin": [{"sequence": 4294967293, "scriptSig": {"hex": "4730440220693ea22bd9358304d3b6907f02b1767c4d5d00f3bc0cef74834895ebab5dcd820220190baa73de50fd26653882b6be9d5a7521b83c37ceaed7fe5ca37a48f24cd20c012102fe88be54ffd8bd60d30d3334f2c841461cbd9898795d4951d8ee75c9f5e245d5", "asm": "30440220693ea22bd9358304d3b6907f02b1767c4d5d00f3bc0cef74834895ebab5dcd820220190baa73de50fd26653882b6be9d5a7521b83c37ceaed7fe5ca37a48f24cd20c[ALL] 02fe88be54ffd8bd60d30d3334f2c841461cbd9898795d4951d8ee75c9f5e245d5"}, "vout": 0, "txid": "48c2dd517005c298535c5a2f4d4424f09a0c5f00d59689fdfdeb8e7f4dd8da8d"}], "txid": "fb59eeb4c31ebc4fb59ab71058c3e373bd100df7915a7e2e70c41f1f8e128769", "blocktime": 1537870268, "version": 1, "confirmations": 11516, "time": 1537870268, "locktime": 542987, "vsize": 223, "size": 223}