{"hash": "fb69ccc5c73f3fec634283042ca7fdecc2efe2d9fe618d94c1f6fac438d189b2", "blockhash": "0000000000000000001e0dab787dd257d1dbfcb92a98c2207d5e1078be1f4165", "vout": [{"scriptPubKey": {"reqSigs": 1, "hex": "76a9147c7a9af99778427e44060621a1572316034c878488ac", "addresses": ["1CMBfZLQANyuLr9a6vGYKWMfDEitwciBAJ"], "asm": "OP_DUP OP_HASH160 7c7a9af99778427e44060621a1572316034c8784 OP_EQUALVERIFY OP_CHECKSIG", "type": "pubkeyhash"}, "value": 0.01348827, "n": 0}, {"scriptPubKey": {"reqSigs": 1, "hex": "76a914604d84f3e5fbe5e5548715a6e2fd07f6f00c9d5088ac", "addresses": ["19nCjZ9pkNaixTSjBcsm5xbkZpGKE1eKk7"], "asm": "OP_DUP OP_HASH160 604d84f3e5fbe5e5548715a6e2fd07f6f00c9d50 OP_EQUALVERIFY OP_CHECKSIG", "type": "pubkeyhash"}, "value": 0.01593138, "n": 1}], "hex": "0100000001e735c68069cf4b18c6537e4c289427cacd76382ff488c7cdb506793189ca0974000000006b483045022100842e50f2344f817364cda7b7d2684126b00c5fea69cf6bc3a9892c29d91564f80220695f6984c83936acbdeb6e3381e5a3d64114567b1e7b4a5153f42de2c3d196fc01210363a1c6a847281ddaff15e5bcd43e2c7d9e5b023d857ed3bb00d5e20621afaf9fffffffff02db941400000000001976a9147c7a9af99778427e44060621a1572316034c878488ac324f1800000000001976a914604d84f3e5fbe5e5548715a6e2fd07f6f00c9d5088ac00000000", "vin": [{"sequence": 4294967295, "scriptSig": {"hex": "483045022100842e50f2344f817364cda7b7d2684126b00c5fea69cf6bc3a9892c29d91564f80220695f6984c83936acbdeb6e3381e5a3d64114567b1e7b4a5153f42de2c3d196fc01210363a1c6a847281ddaff15e5bcd43e2c7d9e5b023d857ed3bb00d5e20621afaf9f", "asm": "3045022100842e50f2344f817364cda7b7d2684126b00c5fea69cf6bc3a9892c29d91564f80220695f6984c83936acbdeb6e3381e5a3d64114567b1e7b4a5153f42de2c3d196fc[ALL] 0363a1c6a847281ddaff15e5bcd43e2c7d9e5b023d857ed3bb00d5e20621afaf9f"}, "vout": 0, "txid": "7409ca89317906b5cdc788f42f3876cdca2794284c7e53c6184bcf6980c635e7"}], "txid": "fb69ccc5c73f3fec634283042ca7fdecc2efe2d9fe618d94c1f6fac438d189b2", "blocktime": 1537872475, "version": 1, "confirmations": 11487, "time": 1537872475, "locktime": 0, "vsize": 226, "size": 226}