{"hash": "589852e8f0bc10e6ca505a62983e93ce4e61503fc0ce71f9470195e5cf05ba55", "blockhash": "0000000000000000000e13cef7c366c0283d82e591d1acd082e914b08063cdf1", "vout": [{"scriptPubKey": {"reqSigs": 1, "hex": "a914bfaf2e9d4fa261e31b849e3eb87dbf5d4ce9819387", "addresses": ["3KAYr3kTKefcPhSAsEL1eLR4ijvGaMdNK6"], "asm": "OP_HASH160 bfaf2e9d4fa261e31b849e3eb87dbf5d4ce98193 OP_EQUAL", "type": "scripthash"}, "value": 0.9060841, "n": 0}, {"scriptPubKey": {"reqSigs": 1, "hex": "a91458fed98bf1e4c39f511c857721d244d02f4fe59987", "addresses": ["39oaghUxegH5z9s1E7xG7deLVjet5M1nQP"], "asm": "OP_HASH160 58fed98bf1e4c39f511c857721d244d02f4fe599 OP_EQUAL", "type": "scripthash"}, "value": 0.01005313, "n": 1}], "hex": "02000000000103078074e926f02bc7cbe08d2292278c9ef91e97e6bb4a243dcffe9ea881664b3c1a000000171600147e99c701beffb640a61286fe65dd151554e76487feffffff170f94975c1d1865c4af5f12d7fcbf4239046fdd138455c9c00d3907617d7ec700000000171600145f6cb9dd153bc9ff7cc1fe35c514523948561f6cfeffffffe564d301c4a9b6a312c0a3f2e2f3d6d86da2d1b75fbc0fd3e1250e456b4abb930100000017160014b48e99019a5596c100fd03e2ce14001209b412c0feffffff021a9366050000000017a914bfaf2e9d4fa261e31b849e3eb87dbf5d4ce981938701570f000000000017a91458fed98bf1e4c39f511c857721d244d02f4fe5998702473044022046356e4ddc82c8bbee055060d692fa8b929610f24147d5deca4c9472062ee62202206efa06b8f4324308dcbe7aa3e38d914f6fc37472a7cfae8f3b67ebf8483bd6a20121038d534a402e3fe128b302fae9b47dcc74f93008a731e624160e941e3527d35f9c02473044022027ef42f8300414f3388f87de8fff3dcee9010bbe39db4829d6a14ffcd2f4cd7602206e3649f0bda8fc77d6a94708dfe3068e78fb3b10770068e03362cbf9b69e37f001210250f5fbb2231a87b01762d332eb103debe55ac9fa63760ad17c918e7777af7537024730440220708af1ca669d912fa9720c4a05242b5f803870027c5a94a391fde2b29b6bc4cf022025920aa44c0b7b61bc9059e7a307ef1da53ec13ed037a67c8ede7b56c74ba77b0121034acb0612497007719676c1f315efb105b72fa84df6c68a40b143b6d9a5c2987d10490800", "vin": [{"txinwitness": ["3044022046356e4ddc82c8bbee055060d692fa8b929610f24147d5deca4c9472062ee62202206efa06b8f4324308dcbe7aa3e38d914f6fc37472a7cfae8f3b67ebf8483bd6a201", "038d534a402e3fe128b302fae9b47dcc74f93008a731e624160e941e3527d35f9c"], "sequence": 4294967294, "scriptSig": {"hex": "1600147e99c701beffb640a61286fe65dd151554e76487", "asm": "00147e99c701beffb640a61286fe65dd151554e76487"}, "vout": 26, "txid": "3c4b6681a89efecf3d244abbe6971ef99e8c2792228de0cbc72bf026e9748007"}, {"txinwitness": ["3044022027ef42f8300414f3388f87de8fff3dcee9010bbe39db4829d6a14ffcd2f4cd7602206e3649f0bda8fc77d6a94708dfe3068e78fb3b10770068e03362cbf9b69e37f001", "0250f5fbb2231a87b01762d332eb103debe55ac9fa63760ad17c918e7777af7537"], "sequence": 4294967294, "scriptSig": {"hex": "1600145f6cb9dd153bc9ff7cc1fe35c514523948561f6c", "asm": "00145f6cb9dd153bc9ff7cc1fe35c514523948561f6c"}, "vout": 0, "txid": "c77e7d6107390dc0c9558413dd6f043942bffcd7125fafc465181d5c97940f17"}, {"txinwitness": ["30440220708af1ca669d912fa9720c4a05242b5f803870027c5a94a391fde2b29b6bc4cf022025920aa44c0b7b61bc9059e7a307ef1da53ec13ed037a67c8ede7b56c74ba77b01", "034acb0612497007719676c1f315efb105b72fa84df6c68a40b143b6d9a5c2987d"], "sequence": 4294967294, "scriptSig": {"hex": "160014b48e99019a5596c100fd03e2ce14001209b412c0", "asm": "0014b48e99019a5596c100fd03e2ce14001209b412c0"}, "vout": 1, "txid": "93bb4a6b450e25e1d30fbc5fb7d1a26dd8d6f3e2f2a3c012a3b6a9c401d364e5"}], "txid": "fb72f0c3a704e2656cd504e144bc47923844a1540eed220a1dbdca13157d7a08", "blocktime": 1537871767, "version": 2, "confirmations": 11495, "time": 1537871767, "locktime": 542992, "vsize": 347, "size": 589}