{"hash": "fb79c922b23175808781a85f791d81875ba950b0e1d69a1329f532cb9452de3c", "blockhash": "0000000000000000001cda96e906b7601b7a6fb1a3b62bca570a9e5d8f4b3de1", "vout": [{"scriptPubKey": {"reqSigs": 1, "hex": "a91403dc87055a931912885c98fcc20b96afdf19799387", "addresses": ["323S8dgxyKYEWivAGVC4S35JRG4NXSmpJ9"], "asm": "OP_HASH160 03dc87055a931912885c98fcc20b96afdf197993 OP_EQUAL", "type": "scripthash"}, "value": 0.0782, "n": 0}, {"scriptPubKey": {"reqSigs": 1, "hex": "a91459569249a58dcb3d9cdcc045e1c4934bcb19653987", "addresses": ["39qPmhsZxrMbKJNaJF6XMxBLhAWrqXgwcf"], "asm": "OP_HASH160 59569249a58dcb3d9cdcc045e1c4934bcb196539 OP_EQUAL", "type": "scripthash"}, "value": 0.00994054, "n": 1}], "hex": "0200000004525dfabfe2af18a9bf302fd1f0018e2e130f3a38198da1c6e4efb2654eb25405620000006a4730440220391fa5eea12b3e3f413168463630ca9e2aaccb03a5e093315978789e239fcbba022072a3a1c7907c61cbb510bdd883209bc9148280f2e52a4e93b6b871005c6b5101012103fd6f9b550078f7aa24120cd0d2b67ba7422ddf9fbd7d631617900ffd665d371afdffffff7b5cfb0290949ab035dc3b9dd3f63b028bf474e6cbdff982f384068b2d892a3f100000006b483045022100df1d2a2451af128da1e2e933eb87562d934d4d8fdb9c384f38b8ae9635c8e39d02206e12c826a19e94522f7bdac8ad1b180695abba20fdb44e12f8e0e5863b57330301210213a7b1d94e78f05a0d4c95bea4e6d8e7c70c5cd7633237f192f0f2b539596b61fdffffffb7ad33cc3ba552348136d3154dd19d51a8c7bd3390da380e3cafd1fa797b7385ad0800006b483045022100f3c29d7a1a3fb94502119d29073098fc6f4c5aff404c5693cd196efcfb591f69022039fdfbf0388fceb3f8ed9fdd909f6fa8f9d72e97d3b31c874fb682e950875cd5012102bbb78a91895dfafd4b5d909f11b59e7e941b60fd87b4785b621d90642491760cfdffffffbde7918316bb07bed665a9293bbe49870cdddfa28588f21ee992a54eaaddd81a570000006b483045022100cebe97bb5a391adf03aecaffbd6d58737870dc32d5257cbef1832d63adde6cfa02205e61ba15f8a3d497b4a7ca7d57986b42a8cfcb930a8a128c19059029681a9d00012103b4a66365edc3dc484301fc585d4ebeba9fe1baf9695fa10b96c669c87b8c5b90fdffffff02e05277000000000017a91403dc87055a931912885c98fcc20b96afdf19799387062b0f000000000017a91459569249a58dcb3d9cdcc045e1c4934bcb1965398713490800", "vin": [{"sequence": 4294967293, "scriptSig": {"hex": "4730440220391fa5eea12b3e3f413168463630ca9e2aaccb03a5e093315978789e239fcbba022072a3a1c7907c61cbb510bdd883209bc9148280f2e52a4e93b6b871005c6b5101012103fd6f9b550078f7aa24120cd0d2b67ba7422ddf9fbd7d631617900ffd665d371a", "asm": "30440220391fa5eea12b3e3f413168463630ca9e2aaccb03a5e093315978789e239fcbba022072a3a1c7907c61cbb510bdd883209bc9148280f2e52a4e93b6b871005c6b5101[ALL] 03fd6f9b550078f7aa24120cd0d2b67ba7422ddf9fbd7d631617900ffd665d371a"}, "vout": 98, "txid": "0554b24e65b2efe4c6a18d19383a0f132e8e01f0d12f30bfa918afe2bffa5d52"}, {"sequence": 4294967293, "scriptSig": {"hex": "483045022100df1d2a2451af128da1e2e933eb87562d934d4d8fdb9c384f38b8ae9635c8e39d02206e12c826a19e94522f7bdac8ad1b180695abba20fdb44e12f8e0e5863b57330301210213a7b1d94e78f05a0d4c95bea4e6d8e7c70c5cd7633237f192f0f2b539596b61", "asm": "3045022100df1d2a2451af128da1e2e933eb87562d934d4d8fdb9c384f38b8ae9635c8e39d02206e12c826a19e94522f7bdac8ad1b180695abba20fdb44e12f8e0e5863b573303[ALL] 0213a7b1d94e78f05a0d4c95bea4e6d8e7c70c5cd7633237f192f0f2b539596b61"}, "vout": 16, "txid": "3f2a892d8b0684f382f9dfcbe674f48b023bf6d39d3bdc35b09a949002fb5c7b"}, {"sequence": 4294967293, "scriptSig": {"hex": "483045022100f3c29d7a1a3fb94502119d29073098fc6f4c5aff404c5693cd196efcfb591f69022039fdfbf0388fceb3f8ed9fdd909f6fa8f9d72e97d3b31c874fb682e950875cd5012102bbb78a91895dfafd4b5d909f11b59e7e941b60fd87b4785b621d90642491760c", "asm": "3045022100f3c29d7a1a3fb94502119d29073098fc6f4c5aff404c5693cd196efcfb591f69022039fdfbf0388fceb3f8ed9fdd909f6fa8f9d72e97d3b31c874fb682e950875cd5[ALL] 02bbb78a91895dfafd4b5d909f11b59e7e941b60fd87b4785b621d90642491760c"}, "vout": 2221, "txid": "85737b79fad1af3c0e38da9033bdc7a8519dd14d15d336813452a53bcc33adb7"}, {"sequence": 4294967293, "scriptSig": {"hex": "483045022100cebe97bb5a391adf03aecaffbd6d58737870dc32d5257cbef1832d63adde6cfa02205e61ba15f8a3d497b4a7ca7d57986b42a8cfcb930a8a128c19059029681a9d00012103b4a66365edc3dc484301fc585d4ebeba9fe1baf9695fa10b96c669c87b8c5b90", "asm": "3045022100cebe97bb5a391adf03aecaffbd6d58737870dc32d5257cbef1832d63adde6cfa02205e61ba15f8a3d497b4a7ca7d57986b42a8cfcb930a8a128c19059029681a9d00[ALL] 03b4a66365edc3dc484301fc585d4ebeba9fe1baf9695fa10b96c669c87b8c5b90"}, "vout": 87, "txid": "1ad8ddaa4ea592e91ef28885a2dfdd0c8749be3b29a965d6be07bb168391e7bd"}], "txid": "fb79c922b23175808781a85f791d81875ba950b0e1d69a1329f532cb9452de3c", "blocktime": 1537873282, "version": 2, "confirmations": 11481, "time": 1537873282, "locktime": 542995, "vsize": 665, "size": 665}