{"hash": "fb7a66ee80f7f9ae9082ba835ce25b1c4dbbf1f88d495d055c38c5bb1673e611", "blockhash": "00000000000000000024a2167bbff67b0be802c0b01cdd79e6331c2be6459f87", "vout": [{"scriptPubKey": {"reqSigs": 1, "hex": "76a91492e4e573ef0e43c0cd3499b1ca50e069e2f80eea88ac", "addresses": ["1EPhs14MvemhkVuHoDt8kg9cB4Xe3Ey8po"], "asm": "OP_DUP OP_HASH160 92e4e573ef0e43c0cd3499b1ca50e069e2f80eea OP_EQUALVERIFY OP_CHECKSIG", "type": "pubkeyhash"}, "value": 0.005582, "n": 0}, {"scriptPubKey": {"reqSigs": 1, "hex": "76a9142e946fe2fce604f2ac89ab089da9a1f576c351e688ac", "addresses": ["15FHuQt8UWbD5y7Z5mfWRPAkoaxCyX6osp"], "asm": "OP_DUP OP_HASH160 2e946fe2fce604f2ac89ab089da9a1f576c351e6 OP_EQUALVERIFY OP_CHECKSIG", "type": "pubkeyhash"}, "value": 1.14924678, "n": 1}], "hex": "0100000001e032b5c325dde2e433cf91a5434eb315bd51f25bf3c99b33b3601b6f34f8d7f7010000006b483045022100b01751bf0629daf90824c4df73e788f8b9bc0f55e4f798b1ade7705cc1a6928202206b9abdc18a3aa61d19484b398f87bfd4a01679ea6ceed4f41cb242a5828e9f0b012102b096cb9b3c64b524dcdb61d1eb166ba20a008188ac2d30a62555c74435beb45dffffffff0278840800000000001976a91492e4e573ef0e43c0cd3499b1ca50e069e2f80eea88ac869cd906000000001976a9142e946fe2fce604f2ac89ab089da9a1f576c351e688ac00000000", "vin": [{"sequence": 4294967295, "scriptSig": {"hex": "483045022100b01751bf0629daf90824c4df73e788f8b9bc0f55e4f798b1ade7705cc1a6928202206b9abdc18a3aa61d19484b398f87bfd4a01679ea6ceed4f41cb242a5828e9f0b012102b096cb9b3c64b524dcdb61d1eb166ba20a008188ac2d30a62555c74435beb45d", "asm": "3045022100b01751bf0629daf90824c4df73e788f8b9bc0f55e4f798b1ade7705cc1a6928202206b9abdc18a3aa61d19484b398f87bfd4a01679ea6ceed4f41cb242a5828e9f0b[ALL] 02b096cb9b3c64b524dcdb61d1eb166ba20a008188ac2d30a62555c74435beb45d"}, "vout": 1, "txid": "f7d7f8346f1b60b3339bc9f35bf251bd15b34e43a591cf33e4e2dd25c3b532e0"}], "txid": "fb7a66ee80f7f9ae9082ba835ce25b1c4dbbf1f88d495d055c38c5bb1673e611", "blocktime": 1537870564, "version": 1, "confirmations": 11515, "time": 1537870564, "locktime": 0, "vsize": 226, "size": 226}