{"hash": "fb7aafc30d63001326565d65c656091a6fb87599f3ef25938f831463a9d74758", "blockhash": "00000000000000000004ffacab907a6b429b9a5745fa0b75af4234bf69dd7176", "vout": [{"scriptPubKey": {"reqSigs": 1, "hex": "21020e46e79a2a8d12b9b5d12c7a91adb4e454edfae43c0a0cb805427d2ac7613fd9ac", "addresses": ["1P3rU1Nk1pmc2BiWC8dEy9bZa1ZbMp5jfg"], "asm": "020e46e79a2a8d12b9b5d12c7a91adb4e454edfae43c0a0cb805427d2ac7613fd9 OP_CHECKSIG", "type": "pubkey"}, "value": 0.000988, "n": 0}, {"scriptPubKey": {"type": "nulldata", "hex": "6a28a3fd71c49812934ff57fe5e454921062183fa8d5ef5fbeb1144c97655a7b110224a40f004b4d4400", "asm": "OP_RETURN a3fd71c49812934ff57fe5e454921062183fa8d5ef5fbeb1144c97655a7b110224a40f004b4d4400"}, "value": 0.0, "n": 1}], "hex": "010000000dff75f31e9bc0c4a6e22302eaa584b09cb6a98c7ddf5cdf8157e1bde084cee7e60500000049483045022100d7945b76ae497918702f84f00247a1fc75d3435b397b87b07eb852f3e24b921402202eb42a2adcd58d6182ff994753ec9e79f56e0ea26a18a239e2e4abe875a77d9701ffffffff158f0fbca9c44d22481e8f4c1c2947142ee574b4ce4ee5d4a60e7d342041b3ed0600000048473044022033ea91b6b6b609b7336d435eb72207e9e80511e8fcf77343e4a493c80d909c1b0220009d0fa242d03568180ca63b3987950f47590b339ee2de5a4f87d630dacde21301ffffffff62c5accf55e66c7a1a811cac0b53c9d5cf82e46cd5e7fb3bbaf83dce16bf9e660a00000049483045022100deca803359a250bb13bd796498a0b6eb82fab5285f01993f39dd2b33dd0ad46c02206c1aedc3270d5ca4e4d5d4f2b7b39f35a61f75f1f1d071b39bcbbd05b59fa76101ffffffff2822415869c914762c4631b441c3922380be0839f4080e0609a3152baae1bea31000000049483045022100f5bee0849d589381ff993cbd70947d5114fb7233a6095deb0880d6ad556f9b5502201a9cdae78c31e597d43f92740b68be7f547a054e5683b6a4c8c2a347383a206501ffffffffc8b9a4cda86ed01d0605b4bba6a32ad3f41f712fe890814abedc639d016608731200000049483045022100f67129cf9d9475e417aa7f9249b4993bce826aacfde442f854a5552583e6c0d302200c6da4395964c91584f56ec1f7832be62429a3b4d364b15868f2467bf8d5646001ffffffff97b5c979660ad1b7c495f067f67f026d4fe31fd39e0dce566178367ca84801cc0e00000048473044022064d0832b2f92d797272cea8af10d959a77a87f751693db91254bc3bed5ecdcdb02204eac357f20eb2ae91f8a6df95d2586b172e227c601aec93b7f8655bed4d4b9ca01ffffffff25f40dc8bd7150b2956af353071e1c25bda6dea66a7f6393cee58c41ec664140010000004847304402203ef294dbd8aad0d59bb0b07120f17bb98bfdac6d83e0db948855f5529606f983022016f574ea47e03559b1f212f1ff240faa20877bfd64bec492bf352d189a144add01ffffffffbb9989df06448541a26f72b29bddb14dc57ec7e2c3f46f8329ba28c21711feb70800000048473044022025b7194d2819247288eacc2db8ce53a079ad157f270ed42b6b5ee9a8aad3a05002201e490e3cd0dffe953a2e482782731cb95fc212c4d6f79ab64d11dcc52f7f3b7d01ffffffff44b2fc16cae5f2ee204d44a821df289d95237c9de61209f0e2767e27d05b84452d00000049483045022100b703fe8727df1fee847bab9217aa62b6dff49876c8a5807d2d003eeda90e67710220469ebd9a79c937bcc2bbb708efce70afb96527f4df8515cf2c5a4da934073c1001ffffffffeedcf2b9c572fee7cf465d60743c5a28147966c2a581c04f21edf677bb24e3b30500000049483045022100c9834303b5ef49815bdc0dc132ab89893d1fdabd84c244b1872a9282dd02b2c602205c9896551af3f95873eb7eaf79d7fe40420ee51a2b0ad8931f3fae64bff0d38801ffffffff704cf182546917c3e578d780f0272c21db73358d2ce1ce67b82c841ec351f9930500000048473044022017888a7de747529994d4c01315ea33edde68c980833b90cb490da96d30db24df0220340187edc2e55b74a81c8a108fe8f25fdaa596127f9d7397c0ab834aa4191c1701ffffffff36415d47c1d5f975af09df59394e141f95d4be238f411ddc8439c7dfbc6b29f0140000004847304402206adbf1ef2b1994b51297fd176ac48219144167e8bc151c22276aa05c94cc1ff60220701f72fc5841526bd75b14746f3da2a28ac7ec18da6870e9066d076da7a2e3f301ffffffffaf795fc9ebe326c6d5984065aec2824939a39728cebe2d5b7b08567f45a810753700000049483045022100820959eba451435a0850eb06484c14e6ac35421e6ad026ace9c80bf0ad40a551022043bc13ee363b00a98e4d8816aa9452e5cbb0017c1d1b536757edf2c16317ccec01ffffffff02f0810100000000002321020e46e79a2a8d12b9b5d12c7a91adb4e454edfae43c0a0cb805427d2ac7613fd9ac00000000000000002a6a28a3fd71c49812934ff57fe5e454921062183fa8d5ef5fbeb1144c97655a7b110224a40f004b4d440000000000", "vin": [{"sequence": 4294967295, "scriptSig": {"hex": "483045022100d7945b76ae497918702f84f00247a1fc75d3435b397b87b07eb852f3e24b921402202eb42a2adcd58d6182ff994753ec9e79f56e0ea26a18a239e2e4abe875a77d9701", "asm": "3045022100d7945b76ae497918702f84f00247a1fc75d3435b397b87b07eb852f3e24b921402202eb42a2adcd58d6182ff994753ec9e79f56e0ea26a18a239e2e4abe875a77d97[ALL]"}, "vout": 5, "txid": "e6e7ce84e0bde15781df5cdf7d8ca9b69cb084a5ea0223e2a6c4c09b1ef375ff"}, {"sequence": 4294967295, "scriptSig": {"hex": "473044022033ea91b6b6b609b7336d435eb72207e9e80511e8fcf77343e4a493c80d909c1b0220009d0fa242d03568180ca63b3987950f47590b339ee2de5a4f87d630dacde21301", "asm": "3044022033ea91b6b6b609b7336d435eb72207e9e80511e8fcf77343e4a493c80d909c1b0220009d0fa242d03568180ca63b3987950f47590b339ee2de5a4f87d630dacde213[ALL]"}, "vout": 6, "txid": "edb34120347d0ea6d4e54eceb474e52e1447291c4c8f1e48224dc4a9bc0f8f15"}, {"sequence": 4294967295, "scriptSig": {"hex": "483045022100deca803359a250bb13bd796498a0b6eb82fab5285f01993f39dd2b33dd0ad46c02206c1aedc3270d5ca4e4d5d4f2b7b39f35a61f75f1f1d071b39bcbbd05b59fa76101", "asm": "3045022100deca803359a250bb13bd796498a0b6eb82fab5285f01993f39dd2b33dd0ad46c02206c1aedc3270d5ca4e4d5d4f2b7b39f35a61f75f1f1d071b39bcbbd05b59fa761[ALL]"}, "vout": 10, "txid": "669ebf16ce3df8ba3bfbe7d56ce482cfd5c9530bac1c811a7a6ce655cfacc562"}, {"sequence": 4294967295, "scriptSig": {"hex": "483045022100f5bee0849d589381ff993cbd70947d5114fb7233a6095deb0880d6ad556f9b5502201a9cdae78c31e597d43f92740b68be7f547a054e5683b6a4c8c2a347383a206501", "asm": "3045022100f5bee0849d589381ff993cbd70947d5114fb7233a6095deb0880d6ad556f9b5502201a9cdae78c31e597d43f92740b68be7f547a054e5683b6a4c8c2a347383a2065[ALL]"}, "vout": 16, "txid": "a3bee1aa2b15a309060e08f43908be802392c341b431462c7614c96958412228"}, {"sequence": 4294967295, "scriptSig": {"hex": "483045022100f67129cf9d9475e417aa7f9249b4993bce826aacfde442f854a5552583e6c0d302200c6da4395964c91584f56ec1f7832be62429a3b4d364b15868f2467bf8d5646001", "asm": "3045022100f67129cf9d9475e417aa7f9249b4993bce826aacfde442f854a5552583e6c0d302200c6da4395964c91584f56ec1f7832be62429a3b4d364b15868f2467bf8d56460[ALL]"}, "vout": 18, "txid": "730866019d63dcbe4a8190e82f711ff4d32aa3a6bbb405061dd06ea8cda4b9c8"}, {"sequence": 4294967295, "scriptSig": {"hex": "473044022064d0832b2f92d797272cea8af10d959a77a87f751693db91254bc3bed5ecdcdb02204eac357f20eb2ae91f8a6df95d2586b172e227c601aec93b7f8655bed4d4b9ca01", "asm": "3044022064d0832b2f92d797272cea8af10d959a77a87f751693db91254bc3bed5ecdcdb02204eac357f20eb2ae91f8a6df95d2586b172e227c601aec93b7f8655bed4d4b9ca[ALL]"}, "vout": 14, "txid": "cc0148a87c36786156ce0d9ed31fe34f6d027ff667f095c4b7d10a6679c9b597"}, {"sequence": 4294967295, "scriptSig": {"hex": "47304402203ef294dbd8aad0d59bb0b07120f17bb98bfdac6d83e0db948855f5529606f983022016f574ea47e03559b1f212f1ff240faa20877bfd64bec492bf352d189a144add01", "asm": "304402203ef294dbd8aad0d59bb0b07120f17bb98bfdac6d83e0db948855f5529606f983022016f574ea47e03559b1f212f1ff240faa20877bfd64bec492bf352d189a144add[ALL]"}, "vout": 1, "txid": "404166ec418ce5ce93637f6aa6dea6bd251c1e0753f36a95b25071bdc80df425"}, {"sequence": 4294967295, "scriptSig": {"hex": "473044022025b7194d2819247288eacc2db8ce53a079ad157f270ed42b6b5ee9a8aad3a05002201e490e3cd0dffe953a2e482782731cb95fc212c4d6f79ab64d11dcc52f7f3b7d01", "asm": "3044022025b7194d2819247288eacc2db8ce53a079ad157f270ed42b6b5ee9a8aad3a05002201e490e3cd0dffe953a2e482782731cb95fc212c4d6f79ab64d11dcc52f7f3b7d[ALL]"}, "vout": 8, "txid": "b7fe1117c228ba29836ff4c3e2c77ec54db1dd9bb2726fa241854406df8999bb"}, {"sequence": 4294967295, "scriptSig": {"hex": "483045022100b703fe8727df1fee847bab9217aa62b6dff49876c8a5807d2d003eeda90e67710220469ebd9a79c937bcc2bbb708efce70afb96527f4df8515cf2c5a4da934073c1001", "asm": "3045022100b703fe8727df1fee847bab9217aa62b6dff49876c8a5807d2d003eeda90e67710220469ebd9a79c937bcc2bbb708efce70afb96527f4df8515cf2c5a4da934073c10[ALL]"}, "vout": 45, "txid": "45845bd0277e76e2f00912e69d7c23959d28df21a8444d20eef2e5ca16fcb244"}, {"sequence": 4294967295, "scriptSig": {"hex": "483045022100c9834303b5ef49815bdc0dc132ab89893d1fdabd84c244b1872a9282dd02b2c602205c9896551af3f95873eb7eaf79d7fe40420ee51a2b0ad8931f3fae64bff0d38801", "asm": "3045022100c9834303b5ef49815bdc0dc132ab89893d1fdabd84c244b1872a9282dd02b2c602205c9896551af3f95873eb7eaf79d7fe40420ee51a2b0ad8931f3fae64bff0d388[ALL]"}, "vout": 5, "txid": "b3e324bb77f6ed214fc081a5c2667914285a3c74605d46cfe7fe72c5b9f2dcee"}, {"sequence": 4294967295, "scriptSig": {"hex": "473044022017888a7de747529994d4c01315ea33edde68c980833b90cb490da96d30db24df0220340187edc2e55b74a81c8a108fe8f25fdaa596127f9d7397c0ab834aa4191c1701", "asm": "3044022017888a7de747529994d4c01315ea33edde68c980833b90cb490da96d30db24df0220340187edc2e55b74a81c8a108fe8f25fdaa596127f9d7397c0ab834aa4191c17[ALL]"}, "vout": 5, "txid": "93f951c31e842cb867cee12c8d3573db212c27f080d778e5c317695482f14c70"}, {"sequence": 4294967295, "scriptSig": {"hex": "47304402206adbf1ef2b1994b51297fd176ac48219144167e8bc151c22276aa05c94cc1ff60220701f72fc5841526bd75b14746f3da2a28ac7ec18da6870e9066d076da7a2e3f301", "asm": "304402206adbf1ef2b1994b51297fd176ac48219144167e8bc151c22276aa05c94cc1ff60220701f72fc5841526bd75b14746f3da2a28ac7ec18da6870e9066d076da7a2e3f3[ALL]"}, "vout": 20, "txid": "f0296bbcdfc73984dc1d418f23bed4951f144e3959df09af75f9d5c1475d4136"}, {"sequence": 4294967295, "scriptSig": {"hex": "483045022100820959eba451435a0850eb06484c14e6ac35421e6ad026ace9c80bf0ad40a551022043bc13ee363b00a98e4d8816aa9452e5cbb0017c1d1b536757edf2c16317ccec01", "asm": "3045022100820959eba451435a0850eb06484c14e6ac35421e6ad026ace9c80bf0ad40a551022043bc13ee363b00a98e4d8816aa9452e5cbb0017c1d1b536757edf2c16317ccec[ALL]"}, "vout": 55, "txid": "7510a8457f56087b5b2dbece2897a3394982c2ae654098d5c626e3ebc95f79af"}], "txid": "fb7aafc30d63001326565d65c656091a6fb87599f3ef25938f831463a9d74758", "blocktime": 1537875543, "version": 1, "confirmations": 11464, "time": 1537875543, "locktime": 0, "vsize": 1581, "size": 1581}