{"hash": "3d39538d4aaeb2a61347f3bd8e5b124d1ccd1dd33be5b69678ab614f1a543687", "blockhash": "0000000000000000001f76057863aec43deb6fa401d9628bb513d65a8098bfab", "vout": [{"scriptPubKey": {"reqSigs": 1, "hex": "76a9145a6e46f22a791c7b97ae69499d279767681502e488ac", "addresses": ["19F9vTM55mynMuA5wJQ17RAjv6GPh6RoFA"], "asm": "OP_DUP OP_HASH160 5a6e46f22a791c7b97ae69499d279767681502e4 OP_EQUALVERIFY OP_CHECKSIG", "type": "pubkeyhash"}, "value": 0.047219, "n": 0}, {"scriptPubKey": {"reqSigs": 1, "hex": "a91464bd34944876c6f89e14ee365125433c004d8d6287", "addresses": ["3Asg9wuy5HuGfP1F71hfBZ1rMxNXDR8cSX"], "asm": "OP_HASH160 64bd34944876c6f89e14ee365125433c004d8d62 OP_EQUAL", "type": "scripthash"}, "value": 0.01028397, "n": 1}], "hex": "020000000001023c61351c7315b000589ba687ecd1807c0e102eba96968319ab437ccb38fc9df30000000017160014050c4a4bb09ffe3836334217dc8f87fd7f765cb8feffffff87c683d2b98ae6bed838a837b3c96fa26512007a8577ba9f935717980b08b5480000000017160014b7f7ba52602d9f93f7d4d1daf1378a389fcb2632feffffff02ec0c4800000000001976a9145a6e46f22a791c7b97ae69499d279767681502e488ac2db10f000000000017a91464bd34944876c6f89e14ee365125433c004d8d62870247304402206b92673da1f30bee5e5575fffad41eab15a5e3a51ca394916c336ee11c2c540002202eee6fabff76b2313a2af977abc9be53505ab2b01046b4f1f4b0b4e0177d70bb01210281a42c17f30cc3312f99f9d0bae6da17e4c4dfdef559e0aec1abf4c723e9329902483045022100c61829ceb9f2b9c988cfe25dc9f0bf7539a99fcb1efb9147d4b6641f372366e802207b6f48d01ce60a5e0b1cfd966bc1bb9dd78a3b096775c568a727548e5d5cfc090121032daf6ba25ab35cbc752c8c9ad294492dacf5996f137db2f92e4664c899f985d014490800", "vin": [{"txinwitness": ["304402206b92673da1f30bee5e5575fffad41eab15a5e3a51ca394916c336ee11c2c540002202eee6fabff76b2313a2af977abc9be53505ab2b01046b4f1f4b0b4e0177d70bb01", "0281a42c17f30cc3312f99f9d0bae6da17e4c4dfdef559e0aec1abf4c723e93299"], "sequence": 4294967294, "scriptSig": {"hex": "160014050c4a4bb09ffe3836334217dc8f87fd7f765cb8", "asm": "0014050c4a4bb09ffe3836334217dc8f87fd7f765cb8"}, "vout": 0, "txid": "f39dfc38cb7c43ab19839696ba2e100e7c80d1ec87a69b5800b015731c35613c"}, {"txinwitness": ["3045022100c61829ceb9f2b9c988cfe25dc9f0bf7539a99fcb1efb9147d4b6641f372366e802207b6f48d01ce60a5e0b1cfd966bc1bb9dd78a3b096775c568a727548e5d5cfc0901", "032daf6ba25ab35cbc752c8c9ad294492dacf5996f137db2f92e4664c899f985d0"], "sequence": 4294967294, "scriptSig": {"hex": "160014b7f7ba52602d9f93f7d4d1daf1378a389fcb2632", "asm": "0014b7f7ba52602d9f93f7d4d1daf1378a389fcb2632"}, "vout": 0, "txid": "48b5080b981757939fba77857a001265a26fc9b337a838d8bee68ab9d283c687"}], "txid": "fb7ce528e9c0eaacd5ccd3f692d12ba5786e15284efd05d8cb1a23bae14fc58b", "blocktime": 1537873891, "version": 2, "confirmations": 11479, "time": 1537873891, "locktime": 542996, "vsize": 259, "size": 421}