{"hash": "a5687d066d31e7055d887d5e392e6570f3a9a04c3f06719feb35cc9e7fdc381b", "blockhash": "0000000000000000001e0dab787dd257d1dbfcb92a98c2207d5e1078be1f4165", "vout": [{"scriptPubKey": {"reqSigs": 1, "hex": "a9142aeb2144f0a7219ac7adeecacfe2a034eb98614f87", "addresses": ["35bwyiWgKuovH1ubfAeGEtUPqmmy9d9gm7"], "asm": "OP_HASH160 2aeb2144f0a7219ac7adeecacfe2a034eb98614f OP_EQUAL", "type": "scripthash"}, "value": 0.14877695, "n": 0}, {"scriptPubKey": {"reqSigs": 1, "hex": "0014e209e3740bb2e0b852ea9504ea45b0887c9b8e5e", "addresses": ["bc1qugy7xaqtktsts5h2j5zw53ds3p7fhrj7fcndtv"], "asm": "0 e209e3740bb2e0b852ea9504ea45b0887c9b8e5e", "type": "witness_v0_keyhash"}, "value": 0.00135716, "n": 1}], "hex": "01000000000101727430b31c6637e7744b8c0343abf787209a1bf89311974bc37d9c03cd6f366f2400000017160014061cf52af93496769ae0221c2d9cfaf00c2d516cffffffff02ff03e3000000000017a9142aeb2144f0a7219ac7adeecacfe2a034eb98614f872412020000000000160014e209e3740bb2e0b852ea9504ea45b0887c9b8e5e0247304402200c3af7558f56dbc5124bc6635faddf9868a914dcda524bea1ba549f5d59b682702201f5e579683eb8983ea17afd7007fbf519a5adc3e01cfd06957b2a2b6ff48d91b0121024eb083e5e9ec562b841ec4f87f9bb141cf517ec750f965652f27f64bc1fe5cf500000000", "vin": [{"txinwitness": ["304402200c3af7558f56dbc5124bc6635faddf9868a914dcda524bea1ba549f5d59b682702201f5e579683eb8983ea17afd7007fbf519a5adc3e01cfd06957b2a2b6ff48d91b01", "024eb083e5e9ec562b841ec4f87f9bb141cf517ec750f965652f27f64bc1fe5cf5"], "sequence": 4294967295, "scriptSig": {"hex": "160014061cf52af93496769ae0221c2d9cfaf00c2d516c", "asm": "0014061cf52af93496769ae0221c2d9cfaf00c2d516c"}, "vout": 36, "txid": "6f366fcd039c7dc34b971193f81b9a2087f7ab43038c4b74e737661cb3307472"}], "txid": "fb7cc96d05754cd4fffa324f21aebb7c1fe6db8cde0c3c5c71a764af51bc2cdc", "blocktime": 1537872475, "version": 1, "confirmations": 11486, "time": 1537872475, "locktime": 0, "vsize": 165, "size": 246}