{"hash": "fb7f15e352b77b48b0b1567ffe3f4be13dfa3d1ee040f82bdf77369a5cff8ed1", "blockhash": "0000000000000000001cda96e906b7601b7a6fb1a3b62bca570a9e5d8f4b3de1", "vout": [{"scriptPubKey": {"reqSigs": 1, "hex": "76a914eea99b0157d589dddf87631bee30b0f05890fdc888ac", "addresses": ["1Nkw13zg2Xzm8pHatu6yXc23EprKwh5hFA"], "asm": "OP_DUP OP_HASH160 eea99b0157d589dddf87631bee30b0f05890fdc8 OP_EQUALVERIFY OP_CHECKSIG", "type": "pubkeyhash"}, "value": 0.00637375, "n": 0}, {"scriptPubKey": {"type": "nulldata", "hex": "6a4c50000077d4000130a81fb1653d70c89bd91b765b23cc0f42c2fc38c5e5bf9ae76da98a211ab41f5db4eccc6efab9563f503279393a5baa150f0612cbd83d5417411d100759d4ba30d2c37bb011d97e02cf", "asm": "OP_RETURN 000077d4000130a81fb1653d70c89bd91b765b23cc0f42c2fc38c5e5bf9ae76da98a211ab41f5db4eccc6efab9563f503279393a5baa150f0612cbd83d5417411d100759d4ba30d2c37bb011d97e02cf"}, "value": 0.0, "n": 1}], "hex": "0100000001af063162c4bbd3e50f394124a55ae7dd1aa43c89b1cb7bb26cc14f5bf7d9a7d4010000006b48304502210080877aa0d400ed6940daddfca37d9d3a563380a51f1842f6ec2d422a6c00541e02200f857dde72f19c7918bac070e0654c64f263c19b694d87c547b70794040e7b70012102a721e89dc6e5eb5ac368eb9305ebf852e297601c72498874320c9b69ccb6f386ffffffff02bfb90900000000001976a914eea99b0157d589dddf87631bee30b0f05890fdc888ac0000000000000000536a4c50000077d4000130a81fb1653d70c89bd91b765b23cc0f42c2fc38c5e5bf9ae76da98a211ab41f5db4eccc6efab9563f503279393a5baa150f0612cbd83d5417411d100759d4ba30d2c37bb011d97e02cf00000000", "vin": [{"sequence": 4294967295, "scriptSig": {"hex": "48304502210080877aa0d400ed6940daddfca37d9d3a563380a51f1842f6ec2d422a6c00541e02200f857dde72f19c7918bac070e0654c64f263c19b694d87c547b70794040e7b70012102a721e89dc6e5eb5ac368eb9305ebf852e297601c72498874320c9b69ccb6f386", "asm": "304502210080877aa0d400ed6940daddfca37d9d3a563380a51f1842f6ec2d422a6c00541e02200f857dde72f19c7918bac070e0654c64f263c19b694d87c547b70794040e7b70[ALL] 02a721e89dc6e5eb5ac368eb9305ebf852e297601c72498874320c9b69ccb6f386"}, "vout": 1, "txid": "d4a7d9f75b4fc16cb27bcbb1893ca41adde75aa52441390fe5d3bbc4623106af"}], "txid": "fb7f15e352b77b48b0b1567ffe3f4be13dfa3d1ee040f82bdf77369a5cff8ed1", "blocktime": 1537873282, "version": 1, "confirmations": 11484, "time": 1537873282, "locktime": 0, "vsize": 284, "size": 284}