{"hash": "fb86201154d941bfdeca8c3a64782cfec3ab2ad8a3f477b59ca60716d645fe83", "blockhash": "00000000000000000017f5eb5941039fbcee6240d03bc1f2f8e35350df66a1d8", "vout": [{"scriptPubKey": {"reqSigs": 1, "hex": "76a91458f32143a95cd11ee5f37e5d1dff6f9fbafa660b88ac", "addresses": ["197Kir2psnjrTFwx8R9cUnmVCUFeUgCNxS"], "asm": "OP_DUP OP_HASH160 58f32143a95cd11ee5f37e5d1dff6f9fbafa660b OP_EQUALVERIFY OP_CHECKSIG", "type": "pubkeyhash"}, "value": 0.91693315, "n": 0}, {"scriptPubKey": {"type": "nulldata", "hex": "6a146f6d6e69000000000000001f0000000086965880", "asm": "OP_RETURN 6f6d6e69000000000000001f0000000086965880"}, "value": 0.0, "n": 1}, {"scriptPubKey": {"reqSigs": 1, "hex": "76a914a8c8fc9ad890a705ea409bac200fd5ea21f7ae6288ac", "addresses": ["1GPTJ2nr387G6y76og1yMthbKyfvM4kc2p"], "asm": "OP_DUP OP_HASH160 a8c8fc9ad890a705ea409bac200fd5ea21f7ae62 OP_EQUALVERIFY OP_CHECKSIG", "type": "pubkeyhash"}, "value": 5.46e-06, "n": 2}], "hex": "01000000016135b5f446fee0e4e077e8484ebd079ffbfecfdd3da7e6bba677fc257371c2d7000000006a473044022058e9b1aeec1ad7b94c3bf85435378ca97f1604bb06c2f90a1d041b53ac1d0c7e0220055939779b18f5fd8c2a959af7dd8a7505b4714d5870b09b038164731863b88301210251e12972b557d5dbac73bfd2470adeac64ac46202389f0ef2db7231f645a0aeafeffffff0303217705000000001976a91458f32143a95cd11ee5f37e5d1dff6f9fbafa660b88ac0000000000000000166a146f6d6e69000000000000001f000000008696588022020000000000001976a914a8c8fc9ad890a705ea409bac200fd5ea21f7ae6288ac15490800", "vin": [{"sequence": 4294967294, "scriptSig": {"hex": "473044022058e9b1aeec1ad7b94c3bf85435378ca97f1604bb06c2f90a1d041b53ac1d0c7e0220055939779b18f5fd8c2a959af7dd8a7505b4714d5870b09b038164731863b88301210251e12972b557d5dbac73bfd2470adeac64ac46202389f0ef2db7231f645a0aea", "asm": "3044022058e9b1aeec1ad7b94c3bf85435378ca97f1604bb06c2f90a1d041b53ac1d0c7e0220055939779b18f5fd8c2a959af7dd8a7505b4714d5870b09b038164731863b883[ALL] 0251e12972b557d5dbac73bfd2470adeac64ac46202389f0ef2db7231f645a0aea"}, "vout": 0, "txid": "d7c2717325fc77a6bbe6a73dddcffefb9f07bd4e48e877e0e4e0fe46f4b53561"}], "txid": "fb86201154d941bfdeca8c3a64782cfec3ab2ad8a3f477b59ca60716d645fe83", "blocktime": 1537874412, "version": 1, "confirmations": 11467, "time": 1537874412, "locktime": 542997, "vsize": 256, "size": 256}