{"hash": "fb897911d13e87302daf6bf4fb44e3fa00f5d3d55b143f1d9d5ef18017cfb0e6", "blockhash": "0000000000000000001f0ddff1eddb255c1121bcd4da4f1bc9a0da00cae72433", "vout": [{"scriptPubKey": {"reqSigs": 1, "hex": "76a914d243e6abb9a60fbff430b421d2df4b7d59ec186088ac", "addresses": ["1LAnF8h3qMGx3TSwNUHVneBZUEpwE4gu3D"], "asm": "OP_DUP OP_HASH160 d243e6abb9a60fbff430b421d2df4b7d59ec1860 OP_EQUALVERIFY OP_CHECKSIG", "type": "pubkeyhash"}, "value": 0.00076972, "n": 0}, {"scriptPubKey": {"reqSigs": 1, "hex": "76a9143851f34d13937b673a7d24a1950bb5b21ce94af388ac", "addresses": ["168o1kqNquEJeR9vosUB5fw4eAwcVAgh8P"], "asm": "OP_DUP OP_HASH160 3851f34d13937b673a7d24a1950bb5b21ce94af3 OP_EQUALVERIFY OP_CHECKSIG", "type": "pubkeyhash"}, "value": 5.46e-06, "n": 1}, {"scriptPubKey": {"type": "nulldata", "hex": "6a146f6d6e69000000000000001f0000003c977401c0", "asm": "OP_RETURN 6f6d6e69000000000000001f0000003c977401c0"}, "value": 0.0, "n": 2}], "hex": "010000000212939482d2fabb510dddf86398d875238bc51f179ebc7985f6b2493f02e70627010000006a473044022057f11d9478f3f0bd9a4f825892cc2014812b5a0304fb0f3bfe34533f19867873022054c8bf8ec5272903d926eddb4ded14322aa23f840983329a28fdbff697fac3be012102cf62eabe4d1d88ee87c5b1a2964efea93bec0aa4db1292551cb93fd1e189cb49ffffffff93cee4eed889589cbc5539b4f923d94a24123becdf05fd60b8c027b82e235139000000006b48304502210091ab066dd0bec296487e10ac045b0de2c0bd198ec03118bdb009de4c1a904e170220091a8a8b1b5757eea254dd3caab69dab2bda63503449a7577c8ab2289ebc340301210271977291b74f1f5f5c42157e8aae804664eaaeccfd097918450d37f28fb94d77ffffffff03ac2c0100000000001976a914d243e6abb9a60fbff430b421d2df4b7d59ec186088ac22020000000000001976a9143851f34d13937b673a7d24a1950bb5b21ce94af388ac0000000000000000166a146f6d6e69000000000000001f0000003c977401c000000000", "vin": [{"sequence": 4294967295, "scriptSig": {"hex": "473044022057f11d9478f3f0bd9a4f825892cc2014812b5a0304fb0f3bfe34533f19867873022054c8bf8ec5272903d926eddb4ded14322aa23f840983329a28fdbff697fac3be012102cf62eabe4d1d88ee87c5b1a2964efea93bec0aa4db1292551cb93fd1e189cb49", "asm": "3044022057f11d9478f3f0bd9a4f825892cc2014812b5a0304fb0f3bfe34533f19867873022054c8bf8ec5272903d926eddb4ded14322aa23f840983329a28fdbff697fac3be[ALL] 02cf62eabe4d1d88ee87c5b1a2964efea93bec0aa4db1292551cb93fd1e189cb49"}, "vout": 1, "txid": "2706e7023f49b2f68579bc9e171fc58b2375d89863f8dd0d51bbfad282949312"}, {"sequence": 4294967295, "scriptSig": {"hex": "48304502210091ab066dd0bec296487e10ac045b0de2c0bd198ec03118bdb009de4c1a904e170220091a8a8b1b5757eea254dd3caab69dab2bda63503449a7577c8ab2289ebc340301210271977291b74f1f5f5c42157e8aae804664eaaeccfd097918450d37f28fb94d77", "asm": "304502210091ab066dd0bec296487e10ac045b0de2c0bd198ec03118bdb009de4c1a904e170220091a8a8b1b5757eea254dd3caab69dab2bda63503449a7577c8ab2289ebc3403[ALL] 0271977291b74f1f5f5c42157e8aae804664eaaeccfd097918450d37f28fb94d77"}, "vout": 0, "txid": "3951232eb827c0b860fd05dfec3b12244ad923f9b43955bc9c5889d8eee4ce93"}], "txid": "fb897911d13e87302daf6bf4fb44e3fa00f5d3d55b143f1d9d5ef18017cfb0e6", "blocktime": 1537872018, "version": 1, "confirmations": 11489, "time": 1537872018, "locktime": 0, "vsize": 404, "size": 404}