{"hash": "fb8f2b55a00c347d4e3ea66ab595a7ead912de1180c6a92256ec553fa39e31cc", "blockhash": "0000000000000000001f0ddff1eddb255c1121bcd4da4f1bc9a0da00cae72433", "vout": [{"scriptPubKey": {"reqSigs": 1, "hex": "a9145d3e7ad2e0953df808cce951c53c5e2d4536d4fb87", "addresses": ["3AC3cZA1arRbmzGEZirhg8bovnSYP6C8Rq"], "asm": "OP_HASH160 5d3e7ad2e0953df808cce951c53c5e2d4536d4fb OP_EQUAL", "type": "scripthash"}, "value": 0.00731188, "n": 0}, {"scriptPubKey": {"reqSigs": 1, "hex": "76a91404fea22b26107a0eb17c918575c7c7519484202e88ac", "addresses": ["1TQk1eA6ozeex8ovcCxtepmaPs4u1Fakb"], "asm": "OP_DUP OP_HASH160 04fea22b26107a0eb17c918575c7c7519484202e OP_EQUALVERIFY OP_CHECKSIG", "type": "pubkeyhash"}, "value": 0.00030118, "n": 1}], "hex": "0100000001c25bf67fa996c4d05a2e065d5388d621d9f01ec1a6344126057ebb964e94262a010000006a473044022070a985a060a1ea8e8b1d0a91fa8a5aaa9e7cd0cd5f53703e53082a8e8b9b641c02200243ed10215924a690798702ca1c8487d9ff1a278bb3b1c349317c7c916eefe00121039dfab755cb11045352a4f7b24c8b01ea46cb91c51800f10560f4c031b2e5b48effffffff0234280b000000000017a9145d3e7ad2e0953df808cce951c53c5e2d4536d4fb87a6750000000000001976a91404fea22b26107a0eb17c918575c7c7519484202e88ac00000000", "vin": [{"sequence": 4294967295, "scriptSig": {"hex": "473044022070a985a060a1ea8e8b1d0a91fa8a5aaa9e7cd0cd5f53703e53082a8e8b9b641c02200243ed10215924a690798702ca1c8487d9ff1a278bb3b1c349317c7c916eefe00121039dfab755cb11045352a4f7b24c8b01ea46cb91c51800f10560f4c031b2e5b48e", "asm": "3044022070a985a060a1ea8e8b1d0a91fa8a5aaa9e7cd0cd5f53703e53082a8e8b9b641c02200243ed10215924a690798702ca1c8487d9ff1a278bb3b1c349317c7c916eefe0[ALL] 039dfab755cb11045352a4f7b24c8b01ea46cb91c51800f10560f4c031b2e5b48e"}, "vout": 1, "txid": "2a26944e96bb7e05264134a6c11ef0d921d688535d062e5ad0c496a97ff65bc2"}], "txid": "fb8f2b55a00c347d4e3ea66ab595a7ead912de1180c6a92256ec553fa39e31cc", "blocktime": 1537872018, "version": 1, "confirmations": 11489, "time": 1537872018, "locktime": 0, "vsize": 223, "size": 223}