{"hash": "fb964421c07a54d7cd5616f0c7a1cce0c334624f3a308cb9219fc32f0a3ecf42", "blockhash": "00000000000000000004ffacab907a6b429b9a5745fa0b75af4234bf69dd7176", "vout": [{"scriptPubKey": {"reqSigs": 1, "hex": "76a9144a0f1e2f2b0d7daeec5265f10bbbbe08ed725e8988ac", "addresses": ["17kb7c9ndg7ioSuzMWEHWECdEVUegNkcGc"], "asm": "OP_DUP OP_HASH160 4a0f1e2f2b0d7daeec5265f10bbbbe08ed725e89 OP_EQUALVERIFY OP_CHECKSIG", "type": "pubkeyhash"}, "value": 0.25323008, "n": 0}], "hex": "010000000125d5ef66dc5a23b46bcff93802ef8ecc918b58d824fa2f60be0ac2f98d444414000000006b483045022100d3d574d9da551dea22928bbde3d11ab8933aed8c0668e9a658c6ddd2c79cb7800220493b1f3a337a49cff4d31d9d1bc1897763357b376a218efe64b1b23e55fe59bc012103b11ea7ddf9884e6b2dffc2743c8eb8e0ea7cbd044ce650bf036da1ebc9f50389ffffffff0100668201000000001976a9144a0f1e2f2b0d7daeec5265f10bbbbe08ed725e8988ac00000000", "vin": [{"sequence": 4294967295, "scriptSig": {"hex": "483045022100d3d574d9da551dea22928bbde3d11ab8933aed8c0668e9a658c6ddd2c79cb7800220493b1f3a337a49cff4d31d9d1bc1897763357b376a218efe64b1b23e55fe59bc012103b11ea7ddf9884e6b2dffc2743c8eb8e0ea7cbd044ce650bf036da1ebc9f50389", "asm": "3045022100d3d574d9da551dea22928bbde3d11ab8933aed8c0668e9a658c6ddd2c79cb7800220493b1f3a337a49cff4d31d9d1bc1897763357b376a218efe64b1b23e55fe59bc[ALL] 03b11ea7ddf9884e6b2dffc2743c8eb8e0ea7cbd044ce650bf036da1ebc9f50389"}, "vout": 0, "txid": "1444448df9c20abe602ffa24d8588b91cc8eef0238f9cf6bb4235adc66efd525"}], "txid": "fb964421c07a54d7cd5616f0c7a1cce0c334624f3a308cb9219fc32f0a3ecf42", "blocktime": 1537875543, "version": 1, "confirmations": 11464, "time": 1537875543, "locktime": 0, "vsize": 192, "size": 192}