{"hash": "fb984e733157b27d124fa922ef5bc63fd2114ff86a528cca0a370502432c36a8", "blockhash": "0000000000000000001f76057863aec43deb6fa401d9628bb513d65a8098bfab", "vout": [{"scriptPubKey": {"reqSigs": 1, "hex": "a9143ee33f2848417dcd763128e9e5f03b2b0194d84d87", "addresses": ["37RY3pF5XieZGFVKD36Xfrt8TcArYXgsWd"], "asm": "OP_HASH160 3ee33f2848417dcd763128e9e5f03b2b0194d84d OP_EQUAL", "type": "scripthash"}, "value": 0.0112, "n": 0}, {"scriptPubKey": {"reqSigs": 1, "hex": "76a9146dcb5b3e4e30a23c4bf75ef9ba5406e0c012fb7788ac", "addresses": ["1B1YGMxEKU1zCXYwALo9fJwPdH6zQq4aQy"], "asm": "OP_DUP OP_HASH160 6dcb5b3e4e30a23c4bf75ef9ba5406e0c012fb77 OP_EQUALVERIFY OP_CHECKSIG", "type": "pubkeyhash"}, "value": 0.00907928, "n": 1}], "hex": "0100000002e359ccd38067b73bd958be3b42078963bc45dbd9efb5809666ad0d95a3ace678450000006b483045022100f4b0e50afa4739134103399901d5f089ab254adff18a22ceb0a10bbb9a89dbc3022023d9cc44d802a75fee57c9dacd7fa222665eb5b0e19695fb6a40589aaaf3ecfa012102ee7aee0eb04afd5a930ee45d37bbd6bfacb0acc45338485411a0fc83a4576021ffffffffb30879a52ca71694449c3e49926630335b32f25ebd3c7c2db601efbad374ffca970000006b483045022100d44e6986779fe7088f44014657b13456be0443b47ceff11f667fef98ff6f8ae102204a20a2a7e380b645ce7b4629d1e671bc40a54b2b8501872328b3866e0a24de78012102ee7aee0eb04afd5a930ee45d37bbd6bfacb0acc45338485411a0fc83a4576021ffffffff02001711000000000017a9143ee33f2848417dcd763128e9e5f03b2b0194d84d8798da0d00000000001976a9146dcb5b3e4e30a23c4bf75ef9ba5406e0c012fb7788ac00000000", "vin": [{"sequence": 4294967295, "scriptSig": {"hex": "483045022100f4b0e50afa4739134103399901d5f089ab254adff18a22ceb0a10bbb9a89dbc3022023d9cc44d802a75fee57c9dacd7fa222665eb5b0e19695fb6a40589aaaf3ecfa012102ee7aee0eb04afd5a930ee45d37bbd6bfacb0acc45338485411a0fc83a4576021", "asm": "3045022100f4b0e50afa4739134103399901d5f089ab254adff18a22ceb0a10bbb9a89dbc3022023d9cc44d802a75fee57c9dacd7fa222665eb5b0e19695fb6a40589aaaf3ecfa[ALL] 02ee7aee0eb04afd5a930ee45d37bbd6bfacb0acc45338485411a0fc83a4576021"}, "vout": 69, "txid": "78e6aca3950dad669680b5efd9db45bc638907423bbe58d93bb76780d3cc59e3"}, {"sequence": 4294967295, "scriptSig": {"hex": "483045022100d44e6986779fe7088f44014657b13456be0443b47ceff11f667fef98ff6f8ae102204a20a2a7e380b645ce7b4629d1e671bc40a54b2b8501872328b3866e0a24de78012102ee7aee0eb04afd5a930ee45d37bbd6bfacb0acc45338485411a0fc83a4576021", "asm": "3045022100d44e6986779fe7088f44014657b13456be0443b47ceff11f667fef98ff6f8ae102204a20a2a7e380b645ce7b4629d1e671bc40a54b2b8501872328b3866e0a24de78[ALL] 02ee7aee0eb04afd5a930ee45d37bbd6bfacb0acc45338485411a0fc83a4576021"}, "vout": 151, "txid": "caff74d3baef01b62d7c3cbd5ef2325b33306692493e9c449416a72ca57908b3"}], "txid": "fb984e733157b27d124fa922ef5bc63fd2114ff86a528cca0a370502432c36a8", "blocktime": 1537873891, "version": 1, "confirmations": 11476, "time": 1537873891, "locktime": 0, "vsize": 372, "size": 372}