{"hash": "fba5c7a4f553b7852bc4eaae615b81025dd9270e2d978d51f211cfd852628e95", "blockhash": "00000000000000000017f5eb5941039fbcee6240d03bc1f2f8e35350df66a1d8", "vout": [{"scriptPubKey": {"reqSigs": 1, "hex": "76a9147f152ea94bad8a8aaf2504161475da4d7eb874d188ac", "addresses": ["1CaxC8gWyBoTvHnyB6tuTSBK7p8GJ9o6GM"], "asm": "OP_DUP OP_HASH160 7f152ea94bad8a8aaf2504161475da4d7eb874d1 OP_EQUALVERIFY OP_CHECKSIG", "type": "pubkeyhash"}, "value": 0.399988, "n": 0}, {"scriptPubKey": {"reqSigs": 1, "hex": "a914ad76ef3f4e43d5c8f5ac5eab163173a7b0f340a787", "addresses": ["3HWDJSy156LNC7Du3vca4yEVALhsoXEkCw"], "asm": "OP_HASH160 ad76ef3f4e43d5c8f5ac5eab163173a7b0f340a7 OP_EQUAL", "type": "scripthash"}, "value": 0.6, "n": 1}], "hex": "0100000001531259059290b6e5cb42039f037a37daddd6d538cf99cfe530742f95f3d00d05000000006b4830450221008f23ce1093fa276f593e07a38fcbef7221ecfae7d2a07b5f4aa264c3e490dcd4022053ee34bd17da8370d7e340a18eb575f4a8ec6a1e210a6ec450981a3bf9f3cc7201210343fb9810baabcaed884c7ef769a978fc3b1eee46ba0287a2f53009b8fac53989feffffff0250556202000000001976a9147f152ea94bad8a8aaf2504161475da4d7eb874d188ac008793030000000017a914ad76ef3f4e43d5c8f5ac5eab163173a7b0f340a78715490800", "vin": [{"sequence": 4294967294, "scriptSig": {"hex": "4830450221008f23ce1093fa276f593e07a38fcbef7221ecfae7d2a07b5f4aa264c3e490dcd4022053ee34bd17da8370d7e340a18eb575f4a8ec6a1e210a6ec450981a3bf9f3cc7201210343fb9810baabcaed884c7ef769a978fc3b1eee46ba0287a2f53009b8fac53989", "asm": "30450221008f23ce1093fa276f593e07a38fcbef7221ecfae7d2a07b5f4aa264c3e490dcd4022053ee34bd17da8370d7e340a18eb575f4a8ec6a1e210a6ec450981a3bf9f3cc72[ALL] 0343fb9810baabcaed884c7ef769a978fc3b1eee46ba0287a2f53009b8fac53989"}, "vout": 0, "txid": "050dd0f3952f7430e5cf99cf38d5d6ddda377a039f0342cbe5b6909205591253"}], "txid": "fba5c7a4f553b7852bc4eaae615b81025dd9270e2d978d51f211cfd852628e95", "blocktime": 1537874412, "version": 1, "confirmations": 11467, "time": 1537874412, "locktime": 542997, "vsize": 224, "size": 224}