{"hash": "fbadf91710c78de5f55e8596e53a005d3958cd465c970bc42b7e8e3e95c0c7b8", "blockhash": "0000000000000000001f0ddff1eddb255c1121bcd4da4f1bc9a0da00cae72433", "vout": [{"scriptPubKey": {"reqSigs": 1, "hex": "76a914d8c9b8935395cca95e45007a2995314f388987d688ac", "addresses": ["1LmGcFrGyiohc2AFfjPrUQCPbVtRXzH892"], "asm": "OP_DUP OP_HASH160 d8c9b8935395cca95e45007a2995314f388987d6 OP_EQUALVERIFY OP_CHECKSIG", "type": "pubkeyhash"}, "value": 8.596e-05, "n": 0}, {"scriptPubKey": {"reqSigs": 1, "hex": "a914b68e48f4c3c5443855ec4bba36b43011e224d54987", "addresses": ["3JLHMbEDD4VR8Q2GCsCKMCGYf7eb1vNK3y"], "asm": "OP_HASH160 b68e48f4c3c5443855ec4bba36b43011e224d549 OP_EQUAL", "type": "scripthash"}, "value": 0.00016, "n": 1}], "hex": "01000000024a9c1776274b1af77886552826c513d55204599f2a35c1af8aa4c77243553814000000006b48304502210091c28a37097d031a3b00f8f1f698ee3186680637de0f78ea080bdf655053fbd0022029a0660bed7538dc5611725c7d963adf840b55093f3fc64aecbdb020efb11568012102a56aa7162c5e46b7c78abd87516ebc287375d2bb9847348699ce4a601cad6378ffffffff8426a7d989366d26b3045995e4ed60e1b1e42299facb9141b6b54e4ba826a4e7000000006a47304402205c4cc7bcf7a5c31af586e8d319be973559b07b7a164be70c28910b54b271024e022004e5a44651dc7ae11ac4b10ce49cf8cf9534cc9583602fadaf43ebe169ee3001012102c1c5bfbef0f334b633d58ed22358951a466b80903a3a28471aeee6ab019f37d2ffffffff0294210000000000001976a914d8c9b8935395cca95e45007a2995314f388987d688ac803e00000000000017a914b68e48f4c3c5443855ec4bba36b43011e224d5498700000000", "vin": [{"sequence": 4294967295, "scriptSig": {"hex": "48304502210091c28a37097d031a3b00f8f1f698ee3186680637de0f78ea080bdf655053fbd0022029a0660bed7538dc5611725c7d963adf840b55093f3fc64aecbdb020efb11568012102a56aa7162c5e46b7c78abd87516ebc287375d2bb9847348699ce4a601cad6378", "asm": "304502210091c28a37097d031a3b00f8f1f698ee3186680637de0f78ea080bdf655053fbd0022029a0660bed7538dc5611725c7d963adf840b55093f3fc64aecbdb020efb11568[ALL] 02a56aa7162c5e46b7c78abd87516ebc287375d2bb9847348699ce4a601cad6378"}, "vout": 0, "txid": "1438554372c7a48aafc1352a9f590452d513c52628558678f71a4b2776179c4a"}, {"sequence": 4294967295, "scriptSig": {"hex": "47304402205c4cc7bcf7a5c31af586e8d319be973559b07b7a164be70c28910b54b271024e022004e5a44651dc7ae11ac4b10ce49cf8cf9534cc9583602fadaf43ebe169ee3001012102c1c5bfbef0f334b633d58ed22358951a466b80903a3a28471aeee6ab019f37d2", "asm": "304402205c4cc7bcf7a5c31af586e8d319be973559b07b7a164be70c28910b54b271024e022004e5a44651dc7ae11ac4b10ce49cf8cf9534cc9583602fadaf43ebe169ee3001[ALL] 02c1c5bfbef0f334b633d58ed22358951a466b80903a3a28471aeee6ab019f37d2"}, "vout": 0, "txid": "e7a426a84b4eb5b64191cbfa9922e4b1e160ede4955904b3266d3689d9a72684"}], "txid": "fbadf91710c78de5f55e8596e53a005d3958cd465c970bc42b7e8e3e95c0c7b8", "blocktime": 1537872018, "version": 1, "confirmations": 11489, "time": 1537872018, "locktime": 0, "vsize": 371, "size": 371}