{"hash": "15afcb2808c5c9c0f69f7ca2350526418d50d2c7468e9c79e3d8cc1813635ab9", "blockhash": "0000000000000000001f76057863aec43deb6fa401d9628bb513d65a8098bfab", "vout": [{"scriptPubKey": {"reqSigs": 1, "hex": "76a9141aab52eb17f3df97eed2dd3eeb1838eb89cad10288ac", "addresses": ["13S1onHioj5MS5LogYVDZsn21C6JCyGV59"], "asm": "OP_DUP OP_HASH160 1aab52eb17f3df97eed2dd3eeb1838eb89cad102 OP_EQUALVERIFY OP_CHECKSIG", "type": "pubkeyhash"}, "value": 0.0002, "n": 0}, {"scriptPubKey": {"reqSigs": 1, "hex": "a9141d7370ccde4590204155e4074f69743a8e4fac0287", "addresses": ["34Njp4ZKtmCDfqqps26wHBYQQGUo2pGkLi"], "asm": "OP_HASH160 1d7370ccde4590204155e4074f69743a8e4fac02 OP_EQUAL", "type": "scripthash"}, "value": 0.00016356, "n": 1}], "hex": "01000000000101dbed87a6d51e07fb0ea9932149b04bf6620ea439695ba702d4da39c0647dc5be0100000023220020f63dfc12340f6360d0251c22746d6b56093e3243e96ca012a65484a5d9cf0ec0ffffffff02204e0000000000001976a9141aab52eb17f3df97eed2dd3eeb1838eb89cad10288ace43f00000000000017a9141d7370ccde4590204155e4074f69743a8e4fac0287040047304402205a971e758d7b97d57e58811846acb76189c7be34bdfa358c13ef95ab32f0006c02205bb4da178358b4ec8293b05411b9519568ce7af758338a79bfa641fc50cc946601483045022100af24b565c723ee2b32a69853eecfcaad5079bef948ff9c96e0b7baa7bf13820702203a9c329eee8589b369b6839d257348cb094e28fc2b331a4b83600b355f507a4c0147522102097067a6a0cc130a9a6f6577b47bf369b840a79de31cd7457187994266b1bb7c2103338f346cab6ba87fe940591a03ac234be06520c5ab386d4b6632e8eef0d0db7652ae00000000", "vin": [{"txinwitness": ["", "304402205a971e758d7b97d57e58811846acb76189c7be34bdfa358c13ef95ab32f0006c02205bb4da178358b4ec8293b05411b9519568ce7af758338a79bfa641fc50cc946601", "3045022100af24b565c723ee2b32a69853eecfcaad5079bef948ff9c96e0b7baa7bf13820702203a9c329eee8589b369b6839d257348cb094e28fc2b331a4b83600b355f507a4c01", "522102097067a6a0cc130a9a6f6577b47bf369b840a79de31cd7457187994266b1bb7c2103338f346cab6ba87fe940591a03ac234be06520c5ab386d4b6632e8eef0d0db7652ae"], "sequence": 4294967295, "scriptSig": {"hex": "220020f63dfc12340f6360d0251c22746d6b56093e3243e96ca012a65484a5d9cf0ec0", "asm": "0020f63dfc12340f6360d0251c22746d6b56093e3243e96ca012a65484a5d9cf0ec0"}, "vout": 1, "txid": "bec57d64c039dad402a75b6939a40e62f64bb0492193a90efb071ed5a687eddb"}], "txid": "fbb1f5da2df31e0660e556ed278882d8d463d9c21e3e5709ce0b46bd40e28a0c", "blocktime": 1537873891, "version": 1, "confirmations": 11478, "time": 1537873891, "locktime": 0, "vsize": 208, "size": 373}