{"hash": "a5aaf78dd1e8ec9ceee9cf32b2be8f909316af50074960492e6801e7816b1903", "blockhash": "0000000000000000001cda96e906b7601b7a6fb1a3b62bca570a9e5d8f4b3de1", "vout": [{"scriptPubKey": {"reqSigs": 1, "hex": "76a9141d8643b8f3a67c5b776a03dc0dee40feea101e9188ac", "addresses": ["13h7SRmC1DYFQxZdfjKemKdK1bSFZB2FKD"], "asm": "OP_DUP OP_HASH160 1d8643b8f3a67c5b776a03dc0dee40feea101e91 OP_EQUALVERIFY OP_CHECKSIG", "type": "pubkeyhash"}, "value": 0.010349, "n": 0}, {"scriptPubKey": {"reqSigs": 1, "hex": "a914ddba5b8f090054a2e70a7ccc11e03a768080e7f387", "addresses": ["3MuQWJ4FuwQPpKZipmLbxvxGgVT2S3m5q2"], "asm": "OP_HASH160 ddba5b8f090054a2e70a7ccc11e03a768080e7f3 OP_EQUAL", "type": "scripthash"}, "value": 0.00010272, "n": 1}], "hex": "02000000000101bd168e92e1106d34bec643f86d85e6bb8b021c46d0ff5a59bdef278fd9a657cd0000000017160014cae15c9aa920b8813ac6d213af3b7f50e84914beffffffff0294ca0f00000000001976a9141d8643b8f3a67c5b776a03dc0dee40feea101e9188ac202800000000000017a914ddba5b8f090054a2e70a7ccc11e03a768080e7f38702473044022001be5655c6c0bdf655aeed774190b325d3f7ea74ebe341d00218882b3e961fc4022016dbb074f26ff2967a47a5ff1087c0b8b0decd693cdcd9275984f40038567a79012103290e18eb577885e3f62a29a6301b69346482afe2a6e1eb712ec97a7fc84ced2900000000", "vin": [{"txinwitness": ["3044022001be5655c6c0bdf655aeed774190b325d3f7ea74ebe341d00218882b3e961fc4022016dbb074f26ff2967a47a5ff1087c0b8b0decd693cdcd9275984f40038567a7901", "03290e18eb577885e3f62a29a6301b69346482afe2a6e1eb712ec97a7fc84ced29"], "sequence": 4294967295, "scriptSig": {"hex": "160014cae15c9aa920b8813ac6d213af3b7f50e84914be", "asm": "0014cae15c9aa920b8813ac6d213af3b7f50e84914be"}, "vout": 0, "txid": "cd57a6d98f27efbd595affd0461c028bbbe6856df843c6be346d10e1928e16bd"}], "txid": "fbb478cb564a1aa4957b69fd909d837cebacee496a4ecf36f24e419ac3bea966", "blocktime": 1537873282, "version": 2, "confirmations": 11481, "time": 1537873282, "locktime": 0, "vsize": 168, "size": 249}