{"hash": "fbb636ef8e838d7dfb45c11df51f26c5dc1659208f2bc9fdd9fa1eb952da30c6", "blockhash": "0000000000000000000e13cef7c366c0283d82e591d1acd082e914b08063cdf1", "vout": [{"scriptPubKey": {"reqSigs": 1, "hex": "a91480022e43e43d2148cc4665655d3b4ebb60ed008f87", "addresses": ["3DMs2cm5gyHr8gg8EMJTmWyLyX9E3gPYoE"], "asm": "OP_HASH160 80022e43e43d2148cc4665655d3b4ebb60ed008f OP_EQUAL", "type": "scripthash"}, "value": 0.0062504, "n": 0}, {"scriptPubKey": {"reqSigs": 1, "hex": "76a9148c0f5d9230d6e73562acf6ab36295586e1ae9dc888ac", "addresses": ["1Dma1UJb2tyGEZ76H66KitEXbeBQ88XYH6"], "asm": "OP_DUP OP_HASH160 8c0f5d9230d6e73562acf6ab36295586e1ae9dc8 OP_EQUALVERIFY OP_CHECKSIG", "type": "pubkeyhash"}, "value": 0.01016562, "n": 1}], "hex": "0100000001bf0f2b0d850098a98e25a5c954d08d43f5f94210be1ce3ceaff25f6e41895528010000006a473044022023bd5508a9ba6a275d58e5f7137b38509927ec8eb60c7ee7d530e5c251c71da3022051da6598b9b15e6a2595d3a7cd7ea4afb1647b995a584209a1a98471449e77dc012103b0ce5647d1dff1c237e145f4659a27303b4cb086f58badecc924cb47641f0038ffffffff02908909000000000017a91480022e43e43d2148cc4665655d3b4ebb60ed008f87f2820f00000000001976a9148c0f5d9230d6e73562acf6ab36295586e1ae9dc888ac00000000", "vin": [{"sequence": 4294967295, "scriptSig": {"hex": "473044022023bd5508a9ba6a275d58e5f7137b38509927ec8eb60c7ee7d530e5c251c71da3022051da6598b9b15e6a2595d3a7cd7ea4afb1647b995a584209a1a98471449e77dc012103b0ce5647d1dff1c237e145f4659a27303b4cb086f58badecc924cb47641f0038", "asm": "3044022023bd5508a9ba6a275d58e5f7137b38509927ec8eb60c7ee7d530e5c251c71da3022051da6598b9b15e6a2595d3a7cd7ea4afb1647b995a584209a1a98471449e77dc[ALL] 03b0ce5647d1dff1c237e145f4659a27303b4cb086f58badecc924cb47641f0038"}, "vout": 1, "txid": "285589416e5ff2afcee31cbe1042f9f5438dd054c9a5258ea99800850d2b0fbf"}], "txid": "fbb636ef8e838d7dfb45c11df51f26c5dc1659208f2bc9fdd9fa1eb952da30c6", "blocktime": 1537871767, "version": 1, "confirmations": 11495, "time": 1537871767, "locktime": 0, "vsize": 223, "size": 223}