{"hash": "fbb961c343fa3aa65f2ed593a7f9b94575ed5a161cce516d1bbe870608938502", "blockhash": "0000000000000000000e13cef7c366c0283d82e591d1acd082e914b08063cdf1", "vout": [{"scriptPubKey": {"reqSigs": 1, "hex": "76a914832c097908356feb7093b95da96acb216b8cdbdf88ac", "addresses": ["1CxaGsiUYWtwXZuiaojZNZpct9JuTgDyTm"], "asm": "OP_DUP OP_HASH160 832c097908356feb7093b95da96acb216b8cdbdf OP_EQUALVERIFY OP_CHECKSIG", "type": "pubkeyhash"}, "value": 0.09131472, "n": 0}, {"scriptPubKey": {"reqSigs": 1, "hex": "76a9142c98ad3f77c4385dfbb52e1672d1eefcb5e8630288ac", "addresses": ["154odcDDjmjq6vMFRpo3FKc5shf7VJ59nb"], "asm": "OP_DUP OP_HASH160 2c98ad3f77c4385dfbb52e1672d1eefcb5e86302 OP_EQUALVERIFY OP_CHECKSIG", "type": "pubkeyhash"}, "value": 0.09389756, "n": 1}, {"scriptPubKey": {"reqSigs": 1, "hex": "76a9146b617e700af28cb4daeda6c9944284ae475d6a2c88ac", "addresses": ["1Ann6XCFCdV6dRExkcfSDjHob8fCTPtpnb"], "asm": "OP_DUP OP_HASH160 6b617e700af28cb4daeda6c9944284ae475d6a2c OP_EQUALVERIFY OP_CHECKSIG", "type": "pubkeyhash"}, "value": 0.08771082, "n": 2}, {"scriptPubKey": {"reqSigs": 1, "hex": "76a914a3c0a96644124ec0b500b3fa9d93f9ff875d3d0688ac", "addresses": ["1Fvqwe4yn5wqFWDobAPiKHKN2WVrx4rrCV"], "asm": "OP_DUP OP_HASH160 a3c0a96644124ec0b500b3fa9d93f9ff875d3d06 OP_EQUALVERIFY OP_CHECKSIG", "type": "pubkeyhash"}, "value": 0.09113849, "n": 3}, {"scriptPubKey": {"reqSigs": 1, "hex": "a914cb3d2a9546d0cc423bd585636f3673c3f06163d687", "addresses": ["3LDeNPzHszKRn1WFoXRBW8xsBDpLKrz6gp"], "asm": "OP_HASH160 cb3d2a9546d0cc423bd585636f3673c3f06163d6 OP_EQUAL", "type": "scripthash"}, "value": 0.09015044, "n": 4}, {"scriptPubKey": {"reqSigs": 1, "hex": "76a9140ee2a1739ca019ad6dc3d5f2c6f21008abee13e088ac", "addresses": ["12MhxG7rR3PVu68WnEefspMqN3v99NPsvx"], "asm": "OP_DUP OP_HASH160 0ee2a1739ca019ad6dc3d5f2c6f21008abee13e0 OP_EQUALVERIFY OP_CHECKSIG", "type": "pubkeyhash"}, "value": 0.08391936, "n": 5}, {"scriptPubKey": {"reqSigs": 1, "hex": "a914c4bc451f88c14cb0fd47e51aea0cade1343fe84787", "addresses": ["3KdFuNYhY6mnTCt77dpst6dCNVY3YCA1gz"], "asm": "OP_HASH160 c4bc451f88c14cb0fd47e51aea0cade1343fe847 OP_EQUAL", "type": "scripthash"}, "value": 0.10838289, "n": 6}, {"scriptPubKey": {"reqSigs": 1, "hex": "76a91408906cea2d282e1cb7e5b7d53b63b338d2652d1088ac", "addresses": ["1nHRPfMJfE6V19CEaTM8ANYto5xfUDjnY"], "asm": "OP_DUP OP_HASH160 08906cea2d282e1cb7e5b7d53b63b338d2652d10 OP_EQUALVERIFY OP_CHECKSIG", "type": "pubkeyhash"}, "value": 0.08735931, "n": 7}, {"scriptPubKey": {"reqSigs": 1, "hex": "a91444e47bf802202ff5c03ca3301434c5a2ca102aec87", "addresses": ["37yHaxCFqwVjXhRcvT9fu2XEfGhoJydhPw"], "asm": "OP_HASH160 44e47bf802202ff5c03ca3301434c5a2ca102aec OP_EQUAL", "type": "scripthash"}, "value": 0.08506496, "n": 8}, {"scriptPubKey": {"reqSigs": 1, "hex": "76a914f3f0a39f5b45e1348c978dd532f2cb5d7b22c87f88ac", "addresses": ["1PEqUWw5pHWto8gnSVKeiG24i6GKqFDFhc"], "asm": "OP_DUP OP_HASH160 f3f0a39f5b45e1348c978dd532f2cb5d7b22c87f OP_EQUALVERIFY OP_CHECKSIG", "type": "pubkeyhash"}, "value": 0.09173822, "n": 9}, {"scriptPubKey": {"reqSigs": 1, "hex": "76a914ad7875f48947755fb2e791d0bb776b39304e50de88ac", "addresses": ["1GpECwwJqNoYvkY8Nyyop8P84Jg5ErWXbK"], "asm": "OP_DUP OP_HASH160 ad7875f48947755fb2e791d0bb776b39304e50de OP_EQUALVERIFY OP_CHECKSIG", "type": "pubkeyhash"}, "value": 0.08866447, "n": 10}, {"scriptPubKey": {"reqSigs": 1, "hex": "76a914a80ad520e5b7c9e4bcd8d4d2112a3cae9917ed3f88ac", "addresses": ["1GKXVtLXLFi2o5AXvznD9Gsde1k8841RFE"], "asm": "OP_DUP OP_HASH160 a80ad520e5b7c9e4bcd8d4d2112a3cae9917ed3f OP_EQUALVERIFY OP_CHECKSIG", "type": "pubkeyhash"}, "value": 0.84047657, "n": 11}, {"scriptPubKey": {"reqSigs": 1, "hex": "76a9142bfbb91f9672ecd5fab2da4c86d9d029bf24cfd188ac", "addresses": ["151ZcHBU8gM5euiNiDRmKytgfVfPBDjn4b"], "asm": "OP_DUP OP_HASH160 2bfbb91f9672ecd5fab2da4c86d9d029bf24cfd1 OP_EQUALVERIFY OP_CHECKSIG", "type": "pubkeyhash"}, "value": 0.09327675, "n": 12}, {"scriptPubKey": {"reqSigs": 1, "hex": "76a9145918a9d1be049c61781831f2c9dae2e4f1738ba888ac", "addresses": ["1986giMS5pPx3k4TWXW28fJYMdx5ojdSAS"], "asm": "OP_DUP OP_HASH160 5918a9d1be049c61781831f2c9dae2e4f1738ba8 OP_EQUALVERIFY OP_CHECKSIG", "type": "pubkeyhash"}, "value": 0.09057643, "n": 13}, {"scriptPubKey": {"reqSigs": 1, "hex": "76a9140dfaab61fac7ea11928b91d0c0774394e0aae35c88ac", "addresses": ["12Gv5KBYFeCWM1KK6bLgE7EMrvCqcfA3bj"], "asm": "OP_DUP OP_HASH160 0dfaab61fac7ea11928b91d0c0774394e0aae35c OP_EQUALVERIFY OP_CHECKSIG", "type": "pubkeyhash"}, "value": 0.2277534, "n": 14}, {"scriptPubKey": {"reqSigs": 1, "hex": "76a914cf3239de77678d6b51e6042ab995d630e8a4eff688ac", "addresses": ["1KtZ3UcZNf5Z4wg59Fw7QSX1hxi8kSAk8D"], "asm": "OP_DUP OP_HASH160 cf3239de77678d6b51e6042ab995d630e8a4eff6 OP_EQUALVERIFY OP_CHECKSIG", "type": "pubkeyhash"}, "value": 176.30503191, "n": 15}, {"scriptPubKey": {"reqSigs": 1, "hex": "76a914254aa3c43419d6237a3559479dce80dcbe269a7188ac", "addresses": ["14QBRA3MizpBWrBxoCCWWi8mm7VLxh2vUU"], "asm": "OP_DUP OP_HASH160 254aa3c43419d6237a3559479dce80dcbe269a71 OP_EQUALVERIFY OP_CHECKSIG", "type": "pubkeyhash"}, "value": 0.08526566, "n": 16}, {"scriptPubKey": {"reqSigs": 1, "hex": "76a914477b0f9f3782b8b5a29df1702a36d2824987646a88ac", "addresses": ["17WxQ3tN4wyH5EBYYBwwkx4vFfTuMiDVpe"], "asm": "OP_DUP OP_HASH160 477b0f9f3782b8b5a29df1702a36d2824987646a OP_EQUALVERIFY OP_CHECKSIG", "type": "pubkeyhash"}, "value": 0.09335031, "n": 17}, {"scriptPubKey": {"reqSigs": 1, "hex": "76a9145caa47577a198a82c48df0ef4b0eb2c68a62126088ac", "addresses": ["19Sy9pU6HWw6KLH5wti9m45ocZFAkzpMdK"], "asm": "OP_DUP OP_HASH160 5caa47577a198a82c48df0ef4b0eb2c68a621260 OP_EQUALVERIFY OP_CHECKSIG", "type": "pubkeyhash"}, "value": 0.09279236, "n": 18}, {"scriptPubKey": {"reqSigs": 1, "hex": "76a914f58ae8b1b15ff90d0f454f9baa61a5e788396f9088ac", "addresses": ["1PPJxZcZ3Nb12SredTgBZ8HZuoNbqQnsf1"], "asm": "OP_DUP OP_HASH160 f58ae8b1b15ff90d0f454f9baa61a5e788396f90 OP_EQUALVERIFY OP_CHECKSIG", "type": "pubkeyhash"}, "value": 0.0873687, "n": 19}, {"scriptPubKey": {"reqSigs": 1, "hex": "76a9142d129be3abf076a9fa1a6aa0dae5dbc693c9239e88ac", "addresses": ["157Khc48QVQ4XBqbTQG2EqqkTW1ujs6Zwa"], "asm": "OP_DUP OP_HASH160 2d129be3abf076a9fa1a6aa0dae5dbc693c9239e OP_EQUALVERIFY OP_CHECKSIG", "type": "pubkeyhash"}, "value": 0.17776079, "n": 20}, {"scriptPubKey": {"reqSigs": 1, "hex": "a914b4f0b0f7f071b4947e868ae6b8baa1c61bb53a6787", "addresses": ["3JBjtbZoBy9QVAvarBPhMqcun1wmoi6f6S"], "asm": "OP_HASH160 b4f0b0f7f071b4947e868ae6b8baa1c61bb53a67 OP_EQUAL", "type": "scripthash"}, "value": 0.09231495, "n": 21}, {"scriptPubKey": {"reqSigs": 1, "hex": "76a9145db2081e3a042b601cd5bf350e53e1ae3f270a5588ac", "addresses": ["19YR7hd67avAJehgDg9KdRW38mdHZZc9qK"], "asm": "OP_DUP OP_HASH160 5db2081e3a042b601cd5bf350e53e1ae3f270a55 OP_EQUALVERIFY OP_CHECKSIG", "type": "pubkeyhash"}, "value": 0.09397654, "n": 22}, {"scriptPubKey": {"reqSigs": 1, "hex": "76a9143eb8d0d4326e0384ed947cb782e4baa52581c68988ac", "addresses": ["16ieJ7jUcMVRtBgSTEF1a4S1cz7qP8Qaw1"], "asm": "OP_DUP OP_HASH160 3eb8d0d4326e0384ed947cb782e4baa52581c689 OP_EQUALVERIFY OP_CHECKSIG", "type": "pubkeyhash"}, "value": 0.09090071, "n": 23}, {"scriptPubKey": {"reqSigs": 1, "hex": "76a9142e89f9e78dfae4deb97c9fb412492d81ccb2842d88ac", "addresses": ["15F5NaX6driXEGPZxCiNsYKHHKLaYsQo6q"], "asm": "OP_DUP OP_HASH160 2e89f9e78dfae4deb97c9fb412492d81ccb2842d OP_EQUALVERIFY OP_CHECKSIG", "type": "pubkeyhash"}, "value": 0.09471706, "n": 24}, {"scriptPubKey": {"reqSigs": 1, "hex": "76a9141f37d9ca3f1c2235a8f377a669e1e23f8ee1c25488ac", "addresses": ["13r4rXQudPYKoJi8UZTqZ426anMEQeaJ47"], "asm": "OP_DUP OP_HASH160 1f37d9ca3f1c2235a8f377a669e1e23f8ee1c254 OP_EQUALVERIFY OP_CHECKSIG", "type": "pubkeyhash"}, "value": 0.09239028, "n": 25}, {"scriptPubKey": {"reqSigs": 1, "hex": "76a9146ad644e5385adc2266d7c69dc44d75a3fb60942188ac", "addresses": ["1AjuK1nxmxRBwuCBoRHKxsQ2FKwuL8AT9B"], "asm": "OP_DUP OP_HASH160 6ad644e5385adc2266d7c69dc44d75a3fb609421 OP_EQUALVERIFY OP_CHECKSIG", "type": "pubkeyhash"}, "value": 0.08772122, "n": 26}, {"scriptPubKey": {"reqSigs": 1, "hex": "76a91432c76634c64f17c2da828b9666710d7b7cc374e588ac", "addresses": ["15dVf6SXWP7HTKZkWLL9kNWFGmkoMca4Kr"], "asm": "OP_DUP OP_HASH160 32c76634c64f17c2da828b9666710d7b7cc374e5 OP_EQUALVERIFY OP_CHECKSIG", "type": "pubkeyhash"}, "value": 0.09255905, "n": 27}, {"scriptPubKey": {"reqSigs": 1, "hex": "a91475e26175067c2254fc4a556ddda680e9f6fd7b9887", "addresses": ["3CSLBCDLSTAYQLSBiBeUVZsuoM5vLV5nZE"], "asm": "OP_HASH160 75e26175067c2254fc4a556ddda680e9f6fd7b98 OP_EQUAL", "type": "scripthash"}, "value": 0.0909079, "n": 28}, {"scriptPubKey": {"reqSigs": 1, "hex": "76a914772cb23e65728c4fc84ea8976708fab810bbc14088ac", "addresses": ["1Bs8xNy3KqkXt34FDD8Zr6MdoKWoSF5XUK"], "asm": "OP_DUP OP_HASH160 772cb23e65728c4fc84ea8976708fab810bbc140 OP_EQUALVERIFY OP_CHECKSIG", "type": "pubkeyhash"}, "value": 0.08742527, "n": 29}, {"scriptPubKey": {"reqSigs": 1, "hex": "a9149e7028491b45d8ecee16b90411ffc20d2bc8655187", "addresses": ["3G8m3gazGdH77BdaDpGtFNxTWu4rYUoLH3"], "asm": "OP_HASH160 9e7028491b45d8ecee16b90411ffc20d2bc86551 OP_EQUAL", "type": "scripthash"}, "value": 0.08662968, "n": 30}, {"scriptPubKey": {"reqSigs": 1, "hex": "76a914ccbff4a40bf871a34466bb9332a90f0c679e154e88ac", "addresses": ["1KfcoSmX8YXTLizo3dMUrYiaTc1Zc2a6xo"], "asm": "OP_DUP OP_HASH160 ccbff4a40bf871a34466bb9332a90f0c679e154e OP_EQUALVERIFY OP_CHECKSIG", "type": "pubkeyhash"}, "value": 0.08364445, "n": 31}, {"scriptPubKey": {"reqSigs": 1, "hex": "a9149ebea64fc33b477e3782e0c49cd09af44d43561687", "addresses": ["3GAP5RVrngmJrz7NgA71AC9VXyTYN6CrWn"], "asm": "OP_HASH160 9ebea64fc33b477e3782e0c49cd09af44d435616 OP_EQUAL", "type": "scripthash"}, "value": 0.09212421, "n": 32}, {"scriptPubKey": {"reqSigs": 1, "hex": "76a914b514983048efa561f13f1278fc27c54f557caef188ac", "addresses": ["1HWTyen5oPaEEgSfeFi8y1YNywhKd81brw"], "asm": "OP_DUP OP_HASH160 b514983048efa561f13f1278fc27c54f557caef1 OP_EQUALVERIFY OP_CHECKSIG", "type": "pubkeyhash"}, "value": 0.08979219, "n": 33}, {"scriptPubKey": {"reqSigs": 1, "hex": "76a914a03468ca3f1fd3262c39e9ac39077e11ddd617ba88ac", "addresses": ["1Fc5uA8QbgZ6X4fL61s8h3oX4pQKiX3X7s"], "asm": "OP_DUP OP_HASH160 a03468ca3f1fd3262c39e9ac39077e11ddd617ba OP_EQUALVERIFY OP_CHECKSIG", "type": "pubkeyhash"}, "value": 0.09243326, "n": 34}, {"scriptPubKey": {"reqSigs": 1, "hex": "a914a35d3c91c1803f854852459e3144e3575cbc508e87", "addresses": ["3Gaom1DgGNMLJZDWeiWiuNZqEa6eYVQvPE"], "asm": "OP_HASH160 a35d3c91c1803f854852459e3144e3575cbc508e OP_EQUAL", "type": "scripthash"}, "value": 0.09169737, "n": 35}, {"scriptPubKey": {"reqSigs": 1, "hex": "a914090d384bf2a0c40393c27f2c4f3c095c7a5982c887", "addresses": ["32WsqogHgLXQ1U1PyKmi5QA6WGgJtxTf5Q"], "asm": "OP_HASH160 090d384bf2a0c40393c27f2c4f3c095c7a5982c8 OP_EQUAL", "type": "scripthash"}, "value": 0.08343359, "n": 36}, {"scriptPubKey": {"reqSigs": 1, "hex": "76a9142d4df0894515e042787c8359cee1420558f99fe288ac", "addresses": ["158YmyHDPh4AnoAAb8WzmEZPPHh9NPL7Tw"], "asm": "OP_DUP OP_HASH160 2d4df0894515e042787c8359cee1420558f99fe2 OP_EQUALVERIFY OP_CHECKSIG", "type": "pubkeyhash"}, "value": 0.08907914, "n": 37}, {"scriptPubKey": {"reqSigs": 1, "hex": "a914ef4a859899d46efc9dff8f199152630f8bc095fe87", "addresses": ["3PWGhG5dbxt8L2Z2YoQoEkad5WXnKM8KAt"], "asm": "OP_HASH160 ef4a859899d46efc9dff8f199152630f8bc095fe OP_EQUAL", "type": "scripthash"}, "value": 0.09265944, "n": 38}, {"scriptPubKey": {"reqSigs": 1, "hex": "76a91495abf3beca439d168f7d75c74a25d5916173b00988ac", "addresses": ["1EePg2X4FaKKRYFa2ReLcBumNeg4vyHWhY"], "asm": "OP_DUP OP_HASH160 95abf3beca439d168f7d75c74a25d5916173b009 OP_EQUALVERIFY OP_CHECKSIG", "type": "pubkeyhash"}, "value": 0.08966658, "n": 39}, {"scriptPubKey": {"reqSigs": 1, "hex": "76a914901cad57b52dfd6b03e075d5664401626bc7c30e88ac", "addresses": ["1E8zf9Q37ZPG9Q3tGkJGiPbdaXcXvfDymA"], "asm": "OP_DUP OP_HASH160 901cad57b52dfd6b03e075d5664401626bc7c30e OP_EQUALVERIFY OP_CHECKSIG", "type": "pubkeyhash"}, "value": 0.09179166, "n": 40}, {"scriptPubKey": {"reqSigs": 1, "hex": "76a9148919599de16ea6c856c113a5930064056e0bc2d288ac", "addresses": ["1DVuwdnPy297aUWDxGKNbMZa9DLfxuzReX"], "asm": "OP_DUP OP_HASH160 8919599de16ea6c856c113a5930064056e0bc2d2 OP_EQUALVERIFY OP_CHECKSIG", "type": "pubkeyhash"}, "value": 0.08482178, "n": 41}, {"scriptPubKey": {"reqSigs": 1, "hex": "76a914588fc71af596f52dbf25dd209a8b2bfdca52d4f688ac", "addresses": ["195GhjcKNDB5Mf2JxZSyGix33pDwmHs9rN"], "asm": "OP_DUP OP_HASH160 588fc71af596f52dbf25dd209a8b2bfdca52d4f6 OP_EQUALVERIFY OP_CHECKSIG", "type": "pubkeyhash"}, "value": 0.08420761, "n": 42}, {"scriptPubKey": {"reqSigs": 1, "hex": "76a9143df7b4526e49fdc51225f88e58f4c5368deb591588ac", "addresses": ["16eexWE7WHr1W1CDimnNrziXZHHBvEAkST"], "asm": "OP_DUP OP_HASH160 3df7b4526e49fdc51225f88e58f4c5368deb5915 OP_EQUALVERIFY OP_CHECKSIG", "type": "pubkeyhash"}, "value": 0.08616232, "n": 43}, {"scriptPubKey": {"reqSigs": 1, "hex": "a914318bbb600d93a33617c902c5afaa9ce4053e0fd487", "addresses": ["36CzRgtCzCXrEEwT8DvccFjHstWHHZFmFR"], "asm": "OP_HASH160 318bbb600d93a33617c902c5afaa9ce4053e0fd4 OP_EQUAL", "type": "scripthash"}, "value": 0.130941, "n": 44}, {"scriptPubKey": {"reqSigs": 1, "hex": "76a914e76cddd7e30fccde619a0e31737b8c25c295154b88ac", "addresses": ["1N6fWViWFJxVbi9ju2UBqz3XLqNeHFfNhu"], "asm": "OP_DUP OP_HASH160 e76cddd7e30fccde619a0e31737b8c25c295154b OP_EQUALVERIFY OP_CHECKSIG", "type": "pubkeyhash"}, "value": 0.09202563, "n": 45}, {"scriptPubKey": {"reqSigs": 1, "hex": "76a9147a0ae99d1abda5135ffbfad8a5a6f00f21287ff688ac", "addresses": ["1C8JWd1SEi8FXh3kvxbxcYW5bmbqW4WjPV"], "asm": "OP_DUP OP_HASH160 7a0ae99d1abda5135ffbfad8a5a6f00f21287ff6 OP_EQUALVERIFY OP_CHECKSIG", "type": "pubkeyhash"}, "value": 0.09400378, "n": 46}, {"scriptPubKey": {"reqSigs": 1, "hex": "76a9144bb3dd43a1510a38b0ffdb03ac1aa6eb961a26cd88ac", "addresses": ["17uH9aaGEwCyJx4V76r4ZdUKXP4nti6Pji"], "asm": "OP_DUP OP_HASH160 4bb3dd43a1510a38b0ffdb03ac1aa6eb961a26cd OP_EQUALVERIFY OP_CHECKSIG", "type": "pubkeyhash"}, "value": 0.09083045, "n": 47}, {"scriptPubKey": {"reqSigs": 1, "hex": "76a91438e7b14ff410314136beaeab56b38cc2aed4985a88ac", "addresses": ["16BtQ2eXXu22VuQjssUr6aLtCM9v8uzPrS"], "asm": "OP_DUP OP_HASH160 38e7b14ff410314136beaeab56b38cc2aed4985a OP_EQUALVERIFY OP_CHECKSIG", "type": "pubkeyhash"}, "value": 0.08501344, "n": 48}, {"scriptPubKey": {"reqSigs": 1, "hex": "76a914a2187e1ae83f8cc8aa5dc598ebce98d2a2f0c5a788ac", "addresses": ["1Fn5orRPH49GvUbaJGU5hntqANssiiBNmZ"], "asm": "OP_DUP OP_HASH160 a2187e1ae83f8cc8aa5dc598ebce98d2a2f0c5a7 OP_EQUALVERIFY OP_CHECKSIG", "type": "pubkeyhash"}, "value": 0.0932797, "n": 49}, {"scriptPubKey": {"reqSigs": 1, "hex": "76a914a9742f5b5dd4f43199de4ca70b7d832f071d041c88ac", "addresses": ["1GSzP6Sd2jQNyQ5x4R3cwXhsJswE8Y249p"], "asm": "OP_DUP OP_HASH160 a9742f5b5dd4f43199de4ca70b7d832f071d041c OP_EQUALVERIFY OP_CHECKSIG", "type": "pubkeyhash"}, "value": 0.08376465, "n": 50}, {"scriptPubKey": {"reqSigs": 1, "hex": "76a914fe0582066155fcf87ec4ec1e943b2541e09d14d388ac", "addresses": ["1QA9ERRxbJisUNKzyDKjoKfntQQKD6UrrH"], "asm": "OP_DUP OP_HASH160 fe0582066155fcf87ec4ec1e943b2541e09d14d3 OP_EQUALVERIFY OP_CHECKSIG", "type": "pubkeyhash"}, "value": 0.11515644, "n": 51}, {"scriptPubKey": {"reqSigs": 1, "hex": "a914e473a08fcca855e235e663162ac4030255cf1b2387", "addresses": ["3NWxWCWzSRtqbS6q1qdqvenpC9DyLqn8JR"], "asm": "OP_HASH160 e473a08fcca855e235e663162ac4030255cf1b23 OP_EQUAL", "type": "scripthash"}, "value": 0.09126623, "n": 52}, {"scriptPubKey": {"reqSigs": 1, "hex": "76a9142b234d58c8cafbfa9a79a3186aa9e510a624c35288ac", "addresses": ["14w6M5syQ9u25vUx76Un2fxnjmu8TGZLWG"], "asm": "OP_DUP OP_HASH160 2b234d58c8cafbfa9a79a3186aa9e510a624c352 OP_EQUALVERIFY OP_CHECKSIG", "type": "pubkeyhash"}, "value": 0.09288306, "n": 53}, {"scriptPubKey": {"reqSigs": 1, "hex": "a914f32243884bde05cc4a68bce5ed1fa65bff1c8f6087", "addresses": ["3PrbArCHffpv26UCUfVpLgAiDmSzZ9scQX"], "asm": "OP_HASH160 f32243884bde05cc4a68bce5ed1fa65bff1c8f60 OP_EQUAL", "type": "scripthash"}, "value": 0.09268525, "n": 54}, {"scriptPubKey": {"reqSigs": 1, "hex": "76a91480f3d2e76fc8aaf78cb6d221da9dc01bbcc5408a88ac", "addresses": ["1CkqajTM4ukjZ8HUnvXS4feHJVmqskM3je"], "asm": "OP_DUP OP_HASH160 80f3d2e76fc8aaf78cb6d221da9dc01bbcc5408a OP_EQUALVERIFY OP_CHECKSIG", "type": "pubkeyhash"}, "value": 0.10219634, "n": 55}, {"scriptPubKey": {"reqSigs": 1, "hex": "76a9141d848d86bb245322efe864484885c734271ec07588ac", "addresses": ["13h5PVkQvFRFLknoUaikaaKAQEnU9LVwi4"], "asm": "OP_DUP OP_HASH160 1d848d86bb245322efe864484885c734271ec075 OP_EQUALVERIFY OP_CHECKSIG", "type": "pubkeyhash"}, "value": 0.08891892, "n": 56}, {"scriptPubKey": {"reqSigs": 1, "hex": "a914299c567bb97a631918390b7163219b44094820cc87", "addresses": ["35V2ux8ZuKE4EunVBekMh742zTBNzHz737"], "asm": "OP_HASH160 299c567bb97a631918390b7163219b44094820cc OP_EQUAL", "type": "scripthash"}, "value": 0.08387821, "n": 57}, {"scriptPubKey": {"reqSigs": 1, "hex": "a9143256c1a04637a35cdf8a67e2dea526bde7abe0ce87", "addresses": ["36HBe59PsywDnpn8j1fxc1tq8EJY57QXvR"], "asm": "OP_HASH160 3256c1a04637a35cdf8a67e2dea526bde7abe0ce OP_EQUAL", "type": "scripthash"}, "value": 0.08412087, "n": 58}, {"scriptPubKey": {"reqSigs": 1, "hex": "a914dec9142f853264f4bfbc5a0f7165d1f81148980687", "addresses": ["3MzzpLJJ3HEJii2gcKViSEwoTtHkvJAyV5"], "asm": "OP_HASH160 dec9142f853264f4bfbc5a0f7165d1f811489806 OP_EQUAL", "type": "scripthash"}, "value": 0.09327964, "n": 59}, {"scriptPubKey": {"reqSigs": 1, "hex": "76a91412cd661e8b49f0b0db6b2b8cd3700f7b15ed90f388ac", "addresses": ["12iRDpVz9moa9JKvrJPiW5kuXmkJxU179T"], "asm": "OP_DUP OP_HASH160 12cd661e8b49f0b0db6b2b8cd3700f7b15ed90f3 OP_EQUALVERIFY OP_CHECKSIG", "type": "pubkeyhash"}, "value": 0.09052547, "n": 60}, {"scriptPubKey": {"reqSigs": 1, "hex": "a9142f6ce065698c4c97854ad719d19c068227369ead87", "addresses": ["361n7SBKnCLoWkMoKhgGLQNaGT1Yx9mgm6"], "asm": "OP_HASH160 2f6ce065698c4c97854ad719d19c068227369ead OP_EQUAL", "type": "scripthash"}, "value": 0.08611464, "n": 61}, {"scriptPubKey": {"reqSigs": 1, "hex": "76a9148b0144e6e19a9bc70a5104aafe679bdf277996a888ac", "addresses": ["1DfzSr6CwcepCCmf5xZVYgNpdPBZ9vfZr6"], "asm": "OP_DUP OP_HASH160 8b0144e6e19a9bc70a5104aafe679bdf277996a8 OP_EQUALVERIFY OP_CHECKSIG", "type": "pubkeyhash"}, "value": 0.08308492, "n": 62}, {"scriptPubKey": {"reqSigs": 1, "hex": "a91404271cc49741eb6d12c030603dbcd98e606f78aa87", "addresses": ["324yUtNVJ48FanxymmPNKBPRiurh8Y3ceE"], "asm": "OP_HASH160 04271cc49741eb6d12c030603dbcd98e606f78aa OP_EQUAL", "type": "scripthash"}, "value": 0.09247309, "n": 63}, {"scriptPubKey": {"reqSigs": 1, "hex": "76a914a462e711d8bbc5f2da6560273a9b934578833bff88ac", "addresses": ["1FzCJLQ1P4D1MDxdvCsf7xxLT1UmkUhkia"], "asm": "OP_DUP OP_HASH160 a462e711d8bbc5f2da6560273a9b934578833bff OP_EQUALVERIFY OP_CHECKSIG", "type": "pubkeyhash"}, "value": 0.090279, "n": 64}, {"scriptPubKey": {"reqSigs": 1, "hex": "a91415093b8087c298bae50d6b0f7d80038491839c1187", "addresses": ["33cFB41SijKPmGq1EXALrBXnFz7qMdb3gL"], "asm": "OP_HASH160 15093b8087c298bae50d6b0f7d80038491839c11 OP_EQUAL", "type": "scripthash"}, "value": 0.08448156, "n": 65}, {"scriptPubKey": {"reqSigs": 1, "hex": "a91435f3f0a4550a4306fc8a97118f28ea5392ce66a687", "addresses": ["36cHxxcSdDtF8eKD5G3DqHeswDsK5Wqpx4"], "asm": "OP_HASH160 35f3f0a4550a4306fc8a97118f28ea5392ce66a6 OP_EQUAL", "type": "scripthash"}, "value": 0.09065511, "n": 66}, {"scriptPubKey": {"reqSigs": 1, "hex": "76a9146335bde709ef8f28f08c1ddd8b96312acdb70f8388ac", "addresses": ["1A3aH3AonCseA78wRWCCpVDHz3duGHEXWH"], "asm": "OP_DUP OP_HASH160 6335bde709ef8f28f08c1ddd8b96312acdb70f83 OP_EQUALVERIFY OP_CHECKSIG", "type": "pubkeyhash"}, "value": 0.08302605, "n": 67}, {"scriptPubKey": {"reqSigs": 1, "hex": "76a914a90066142487621f8b792a9cc0e020ee8e958c3c88ac", "addresses": ["1GQbg8EDfbViNznYhqrYYz4rFKz1ze6jeX"], "asm": "OP_DUP OP_HASH160 a90066142487621f8b792a9cc0e020ee8e958c3c OP_EQUALVERIFY OP_CHECKSIG", "type": "pubkeyhash"}, "value": 0.09050623, "n": 68}, {"scriptPubKey": {"reqSigs": 1, "hex": "76a914923837c1077decb919d8fc142aa8ffc6a492331688ac", "addresses": ["1EL916646hfkn9Pcx9rzzMf392L8fBoW8c"], "asm": "OP_DUP OP_HASH160 923837c1077decb919d8fc142aa8ffc6a4923316 OP_EQUALVERIFY OP_CHECKSIG", "type": "pubkeyhash"}, "value": 0.0873232, "n": 69}, {"scriptPubKey": {"reqSigs": 1, "hex": "76a91467f4c65714b12fd429e811876b590bec8b87b77288ac", "addresses": ["1AUfq1S4SEsG25HnoyxkXH4cYY2teQwrNc"], "asm": "OP_DUP OP_HASH160 67f4c65714b12fd429e811876b590bec8b87b772 OP_EQUALVERIFY OP_CHECKSIG", "type": "pubkeyhash"}, "value": 0.09035855, "n": 70}, {"scriptPubKey": {"reqSigs": 1, "hex": "76a914dc64732e1aa5302e0e7ecab56d2feddeb229ad1f88ac", "addresses": ["1M6Kzay7fcNwcXNFFXc6HM5Pq4ogDgXHZj"], "asm": "OP_DUP OP_HASH160 dc64732e1aa5302e0e7ecab56d2feddeb229ad1f OP_EQUALVERIFY OP_CHECKSIG", "type": "pubkeyhash"}, "value": 0.08599668, "n": 71}, {"scriptPubKey": {"reqSigs": 1, "hex": "76a914cbcb03fdc1fbe6c79d38042e038c0347514c980c88ac", "addresses": ["1KaZNiJYwaCThL5faqwupyQ2xdi2WLc8qp"], "asm": "OP_DUP OP_HASH160 cbcb03fdc1fbe6c79d38042e038c0347514c980c OP_EQUALVERIFY OP_CHECKSIG", "type": "pubkeyhash"}, "value": 0.08921247, "n": 72}, {"scriptPubKey": {"reqSigs": 1, "hex": "76a914c521a77cc1c6d86e286ecb6bb01a058bcafa650688ac", "addresses": ["1JyLS8TvxyjRzaWNXdT3KGSSTbM7Z1XnWs"], "asm": "OP_DUP OP_HASH160 c521a77cc1c6d86e286ecb6bb01a058bcafa6506 OP_EQUALVERIFY OP_CHECKSIG", "type": "pubkeyhash"}, "value": 0.09562679, "n": 73}, {"scriptPubKey": {"reqSigs": 1, "hex": "76a914de548431f70b08e40b5eb5a1a1926a0a0abb9fd688ac", "addresses": ["1MGaFtVteNmyn5ymGTnrrqf9VbDmyjv1tk"], "asm": "OP_DUP OP_HASH160 de548431f70b08e40b5eb5a1a1926a0a0abb9fd6 OP_EQUALVERIFY OP_CHECKSIG", "type": "pubkeyhash"}, "value": 0.09094809, "n": 74}, {"scriptPubKey": {"reqSigs": 1, "hex": "76a91400706f1de88cd815e19b34c102d6885ded8455e788ac", "addresses": ["113Kh4BCfaJLBv6pewi5J4MX9CQB6J41oP"], "asm": "OP_DUP OP_HASH160 00706f1de88cd815e19b34c102d6885ded8455e7 OP_EQUALVERIFY OP_CHECKSIG", "type": "pubkeyhash"}, "value": 0.09315174, "n": 75}, {"scriptPubKey": {"reqSigs": 1, "hex": "76a914b80fd03a669ffcf8e83d763c491ec2538102e98188ac", "addresses": ["1HnEH2mWzr6AxuY8H3zkuewARUWAXu7YKE"], "asm": "OP_DUP OP_HASH160 b80fd03a669ffcf8e83d763c491ec2538102e981 OP_EQUALVERIFY OP_CHECKSIG", "type": "pubkeyhash"}, "value": 0.09155105, "n": 76}, {"scriptPubKey": {"reqSigs": 1, "hex": "76a91496062156ab50590005a9ca63b28441c195ad87fe88ac", "addresses": ["1EgFhiCXDmyZ9nWG74f777mm1nzCCJEYAc"], "asm": "OP_DUP OP_HASH160 96062156ab50590005a9ca63b28441c195ad87fe OP_EQUALVERIFY OP_CHECKSIG", "type": "pubkeyhash"}, "value": 0.08871398, "n": 77}, {"scriptPubKey": {"reqSigs": 1, "hex": "76a91407d9bf124d607cb212c329f0f78522662f5e733c88ac", "addresses": ["1iWadK1oUMMXXqxCbrxbSYtcj831pCWLa"], "asm": "OP_DUP OP_HASH160 07d9bf124d607cb212c329f0f78522662f5e733c OP_EQUALVERIFY OP_CHECKSIG", "type": "pubkeyhash"}, "value": 0.08589743, "n": 78}, {"scriptPubKey": {"reqSigs": 1, "hex": "76a914b3c7f8bb8dcca452852185a1fad7d29141a0582088ac", "addresses": ["1HPbWcK4ucBLUcvLqLG1CAqQjxtfBaSs7E"], "asm": "OP_DUP OP_HASH160 b3c7f8bb8dcca452852185a1fad7d29141a05820 OP_EQUALVERIFY OP_CHECKSIG", "type": "pubkeyhash"}, "value": 0.08769601, "n": 79}, {"scriptPubKey": {"reqSigs": 1, "hex": "76a914cbd6955f23db5902607d736d93dd4f352de0141488ac", "addresses": ["1KaoETsiqovEXDdp2EpgTaywCwpQ4S7CQ4"], "asm": "OP_DUP OP_HASH160 cbd6955f23db5902607d736d93dd4f352de01414 OP_EQUALVERIFY OP_CHECKSIG", "type": "pubkeyhash"}, "value": 0.08509154, "n": 80}, {"scriptPubKey": {"reqSigs": 1, "hex": "a91411ea95e72ed2f36c9480c79b2c490ada4fd6145e87", "addresses": ["33KkS6UeprkTHcfaC24DVyvkVn8Bv5zjUq"], "asm": "OP_HASH160 11ea95e72ed2f36c9480c79b2c490ada4fd6145e OP_EQUAL", "type": "scripthash"}, "value": 0.0856254, "n": 81}, {"scriptPubKey": {"reqSigs": 1, "hex": "76a914366717698df939e99df6ae0b91d7394c3a50a8ac88ac", "addresses": ["15xezHASRaqGnN3tHfz3sY4HM3uus5wSaF"], "asm": "OP_DUP OP_HASH160 366717698df939e99df6ae0b91d7394c3a50a8ac OP_EQUALVERIFY OP_CHECKSIG", "type": "pubkeyhash"}, "value": 0.09129948, "n": 82}, {"scriptPubKey": {"reqSigs": 1, "hex": "76a91420e273ba55a933289d85db4e10781ce0e960667488ac", "addresses": ["13zsuJcaQuuZiE5V1h4LxH6wx1P6uGdVEJ"], "asm": "OP_DUP OP_HASH160 20e273ba55a933289d85db4e10781ce0e9606674 OP_EQUALVERIFY OP_CHECKSIG", "type": "pubkeyhash"}, "value": 0.09074663, "n": 83}, {"scriptPubKey": {"reqSigs": 1, "hex": "a9146d05cefbd2041efb53423939564442d7736f0f7a87", "addresses": ["3BdUY36kFeZC1WUqTFU63jVEd39Q1F3tX9"], "asm": "OP_HASH160 6d05cefbd2041efb53423939564442d7736f0f7a OP_EQUAL", "type": "scripthash"}, "value": 0.09297356, "n": 84}, {"scriptPubKey": {"reqSigs": 1, "hex": "76a914f34e67abf54d3953a899d255c61efa97203f683988ac", "addresses": ["1PBV8HfyHPAN2V98rnM2H5UDiR3ZmNDFpF"], "asm": "OP_DUP OP_HASH160 f34e67abf54d3953a899d255c61efa97203f6839 OP_EQUALVERIFY OP_CHECKSIG", "type": "pubkeyhash"}, "value": 0.09312557, "n": 85}, {"scriptPubKey": {"reqSigs": 1, "hex": "76a9146c71f09c0006d614977c75608c4b1886fe7b506d88ac", "addresses": ["1AtQUQATPdsNvgepKb5ffMrgkt8hBLSAyu"], "asm": "OP_DUP OP_HASH160 6c71f09c0006d614977c75608c4b1886fe7b506d OP_EQUALVERIFY OP_CHECKSIG", "type": "pubkeyhash"}, "value": 0.08783329, "n": 86}, {"scriptPubKey": {"reqSigs": 1, "hex": "76a914bf7dc50db826998c89910f05c59ba4e3a8d1df3688ac", "addresses": ["1JTWjGv2o3MhwN4KMj125oy8hMeCkRGL9P"], "asm": "OP_DUP OP_HASH160 bf7dc50db826998c89910f05c59ba4e3a8d1df36 OP_EQUALVERIFY OP_CHECKSIG", "type": "pubkeyhash"}, "value": 0.08990046, "n": 87}, {"scriptPubKey": {"reqSigs": 1, "hex": "a91428a6de4a1a79d595487c08bbbb8b5167c3d6f03087", "addresses": ["35PxrRx5HeR52aHo19zCWJQUBD4K1Pj1Ki"], "asm": "OP_HASH160 28a6de4a1a79d595487c08bbbb8b5167c3d6f030 OP_EQUAL", "type": "scripthash"}, "value": 0.08435014, "n": 88}, {"scriptPubKey": {"reqSigs": 1, "hex": "76a9148b8e41b70dc37514900a6591af94d227fd897f4088ac", "addresses": ["1DiuLqKqYJXHQDFRrJ8hELodE5pytJpMMV"], "asm": "OP_DUP OP_HASH160 8b8e41b70dc37514900a6591af94d227fd897f40 OP_EQUALVERIFY OP_CHECKSIG", "type": "pubkeyhash"}, "value": 0.08832698, "n": 89}, {"scriptPubKey": {"reqSigs": 1, "hex": "76a914563a00765bcb6efce49221a91f445caf05c99e0988ac", "addresses": ["18rvbXwrnJ9gyye2oxTqas347kTtY4SSPL"], "asm": "OP_DUP OP_HASH160 563a00765bcb6efce49221a91f445caf05c99e09 OP_EQUALVERIFY OP_CHECKSIG", "type": "pubkeyhash"}, "value": 0.08593305, "n": 90}, {"scriptPubKey": {"reqSigs": 1, "hex": "a9140056bdfd0219376fa3f67290d7bee4cf5371b0ae87", "addresses": ["31ioqVa9aD9bYTv2TANTFbRXepsJcNWQsf"], "asm": "OP_HASH160 0056bdfd0219376fa3f67290d7bee4cf5371b0ae OP_EQUAL", "type": "scripthash"}, "value": 0.087728, "n": 91}, {"scriptPubKey": {"reqSigs": 1, "hex": "a91461f853515aaa78999db5bc0539e9189173ed7ee687", "addresses": ["3Ad2x79NwfBpa4qNdjqMaQpyCDt2exHcpS"], "asm": "OP_HASH160 61f853515aaa78999db5bc0539e9189173ed7ee6 OP_EQUAL", "type": "scripthash"}, "value": 0.41682392, "n": 92}, {"scriptPubKey": {"reqSigs": 1, "hex": "76a9147b6da96e5c378035c6650ba3621333dd06fd2ddc88ac", "addresses": ["1CFdV2wHKoZzSNeejsEHA1wvWG6xHq4GN2"], "asm": "OP_DUP OP_HASH160 7b6da96e5c378035c6650ba3621333dd06fd2ddc OP_EQUALVERIFY OP_CHECKSIG", "type": "pubkeyhash"}, "value": 0.09005934, "n": 93}, {"scriptPubKey": {"reqSigs": 1, "hex": "a9142a9b3c1c2ef450a2f89925dca55e71577bf8ed1e87", "addresses": ["35aJGWBdLCr2gJYTQruVCwcc2VXRGg2XzT"], "asm": "OP_HASH160 2a9b3c1c2ef450a2f89925dca55e71577bf8ed1e OP_EQUAL", "type": "scripthash"}, "value": 0.08638312, "n": 94}, {"scriptPubKey": {"reqSigs": 1, "hex": "a9142adc82515958079e1c12549dd10bc796b3afcc9e87", "addresses": ["35beTqaFgsEKLKDT8SpyTqQyKdAFHPx6fz"], "asm": "OP_HASH160 2adc82515958079e1c12549dd10bc796b3afcc9e OP_EQUAL", "type": "scripthash"}, "value": 0.08433527, "n": 95}, {"scriptPubKey": {"reqSigs": 1, "hex": "76a9140225bc7a63bdd7f6f32d7b0f64b5d3386259989b88ac", "addresses": ["1CMZLwQ7cpKt3PpLg6iMrdsCeTzWZpxCk"], "asm": "OP_DUP OP_HASH160 0225bc7a63bdd7f6f32d7b0f64b5d3386259989b OP_EQUALVERIFY OP_CHECKSIG", "type": "pubkeyhash"}, "value": 0.09372748, "n": 96}, {"scriptPubKey": {"reqSigs": 1, "hex": "76a914e85e4259438b38f5b256072d2be13ec8b9443b2988ac", "addresses": ["1NBegkKeN8o59uHDeCMPpzfN15AQjwXqKX"], "asm": "OP_DUP OP_HASH160 e85e4259438b38f5b256072d2be13ec8b9443b29 OP_EQUALVERIFY OP_CHECKSIG", "type": "pubkeyhash"}, "value": 0.0869052, "n": 97}, {"scriptPubKey": {"reqSigs": 1, "hex": "a914ff0bb46260a86111085c1491d78739c4963882df87", "addresses": ["3QwaFiG4gXC3q6KMkT32h1CKL76XFp4vNH"], "asm": "OP_HASH160 ff0bb46260a86111085c1491d78739c4963882df OP_EQUAL", "type": "scripthash"}, "value": 0.08796236, "n": 98}, {"scriptPubKey": {"reqSigs": 1, "hex": "a91457e19d4ed9cc3853a2cf9dfac41453b742b3196a87", "addresses": ["39hgzCgSVRYZVrUUJd5WvpgQDLTkDMYXH9"], "asm": "OP_HASH160 57e19d4ed9cc3853a2cf9dfac41453b742b3196a OP_EQUAL", "type": "scripthash"}, "value": 0.08712555, "n": 99}, {"scriptPubKey": {"reqSigs": 1, "hex": "76a914b0ba9c33b2b0ff7a9e21ed4676cfb803c51bd38888ac", "addresses": ["1H7TUfVWDv862qJMo3ye98xp5aG4xsBYuW"], "asm": "OP_DUP OP_HASH160 b0ba9c33b2b0ff7a9e21ed4676cfb803c51bd388 OP_EQUALVERIFY OP_CHECKSIG", "type": "pubkeyhash"}, "value": 0.08899189, "n": 100}], "hex": "02000000013800082436450f123ba5d534fba2354809920e93a9db93df1d325de9254c63142c0000006b483045022100c8cf7b596c91608e3df8f9b302269ea44af4667a23968b68eac7f10d4d4ce09f022070773c0d2d7bd337d2680bb4bb327cf6582bb28bf52e91f54a051283c45f67a801210256a2eca78f41f22f2758cebe36ca4e1207f5e1f189c233fd63a6177fe3937beafeffffff65d0558b00000000001976a914832c097908356feb7093b95da96acb216b8cdbdf88acbc468f00000000001976a9142c98ad3f77c4385dfbb52e1672d1eefcb5e8630288ac0ad68500000000001976a9146b617e700af28cb4daeda6c9944284ae475d6a2c88acf9108b00000000001976a914a3c0a96644124ec0b500b3fa9d93f9ff875d3d0688ac048f89000000000017a914cb3d2a9546d0cc423bd585636f3673c3f06163d687000d8000000000001976a9140ee2a1739ca019ad6dc3d5f2c6f21008abee13e088ac1161a5000000000017a914c4bc451f88c14cb0fd47e51aea0cade1343fe84787bb4c8500000000001976a91408906cea2d282e1cb7e5b7d53b63b338d2652d1088ac80cc81000000000017a91444e47bf802202ff5c03ca3301434c5a2ca102aec873efb8b00000000001976a914f3f0a39f5b45e1348c978dd532f2cb5d7b22c87f88ac8f4a8700000000001976a914ad7875f48947755fb2e791d0bb776b39304e50de88ac29770205000000001976a914a80ad520e5b7c9e4bcd8d4d2112a3cae9917ed3f88ac3b548e00000000001976a9142bfbb91f9672ecd5fab2da4c86d9d029bf24cfd188ac6b358a00000000001976a9145918a9d1be049c61781831f2c9dae2e4f1738ba888ac2c865b01000000001976a9140dfaab61fac7ea11928b91d0c0774394e0aae35c88ac1721dc1a040000001976a914cf3239de77678d6b51e6042ab995d630e8a4eff688ace61a8200000000001976a914254aa3c43419d6237a3559479dce80dcbe269a7188acf7708e00000000001976a914477b0f9f3782b8b5a29df1702a36d2824987646a88ac04978d00000000001976a9145caa47577a198a82c48df0ef4b0eb2c68a62126088ac66508500000000001976a914f58ae8b1b15ff90d0f454f9baa61a5e788396f9088accf3d0f01000000001976a9142d129be3abf076a9fa1a6aa0dae5dbc693c9239e88ac87dc8c000000000017a914b4f0b0f7f071b4947e868ae6b8baa1c61bb53a678796658f00000000001976a9145db2081e3a042b601cd5bf350e53e1ae3f270a5588ac17b48a00000000001976a9143eb8d0d4326e0384ed947cb782e4baa52581c68988acda869000000000001976a9142e89f9e78dfae4deb97c9fb412492d81ccb2842d88acf4f98c00000000001976a9141f37d9ca3f1c2235a8f377a669e1e23f8ee1c25488ac1ada8500000000001976a9146ad644e5385adc2266d7c69dc44d75a3fb60942188ace13b8d00000000001976a91432c76634c64f17c2da828b9666710d7b7cc374e588ace6b68a000000000017a91475e26175067c2254fc4a556ddda680e9f6fd7b98877f668500000000001976a914772cb23e65728c4fc84ea8976708fab810bbc14088acb82f84000000000017a9149e7028491b45d8ecee16b90411ffc20d2bc86551879da17f00000000001976a914ccbff4a40bf871a34466bb9332a90f0c679e154e88ac05928c000000000017a9149ebea64fc33b477e3782e0c49cd09af44d4356168713038900000000001976a914b514983048efa561f13f1278fc27c54f557caef188acbe0a8d00000000001976a914a03468ca3f1fd3262c39e9ac39077e11ddd617ba88ac49eb8b000000000017a914a35d3c91c1803f854852459e3144e3575cbc508e873f4f7f000000000017a914090d384bf2a0c40393c27f2c4f3c095c7a5982c8878aec8700000000001976a9142d4df0894515e042787c8359cee1420558f99fe288ac18638d000000000017a914ef4a859899d46efc9dff8f199152630f8bc095fe8702d28800000000001976a91495abf3beca439d168f7d75c74a25d5916173b00988ac1e108c00000000001976a914901cad57b52dfd6b03e075d5664401626bc7c30e88ac826d8100000000001976a9148919599de16ea6c856c113a5930064056e0bc2d288ac997d8000000000001976a914588fc71af596f52dbf25dd209a8b2bfdca52d4f688ac28798300000000001976a9143df7b4526e49fdc51225f88e58f4c5368deb591588acd4ccc7000000000017a914318bbb600d93a33617c902c5afaa9ce4053e0fd487836b8c00000000001976a914e76cddd7e30fccde619a0e31737b8c25c295154b88ac3a708f00000000001976a9147a0ae99d1abda5135ffbfad8a5a6f00f21287ff688aca5988a00000000001976a9144bb3dd43a1510a38b0ffdb03ac1aa6eb961a26cd88ac60b88100000000001976a91438e7b14ff410314136beaeab56b38cc2aed4985a88ac62558e00000000001976a914a2187e1ae83f8cc8aa5dc598ebce98d2a2f0c5a788ac91d07f00000000001976a914a9742f5b5dd4f43199de4ca70b7d832f071d041c88acfcb6af00000000001976a914fe0582066155fcf87ec4ec1e943b2541e09d14d388acdf428b000000000017a914e473a08fcca855e235e663162ac4030255cf1b238772ba8d00000000001976a9142b234d58c8cafbfa9a79a3186aa9e510a624c35288ac2d6d8d000000000017a914f32243884bde05cc4a68bce5ed1fa65bff1c8f608772f09b00000000001976a91480f3d2e76fc8aaf78cb6d221da9dc01bbcc5408a88acf4ad8700000000001976a9141d848d86bb245322efe864484885c734271ec07588acedfc7f000000000017a914299c567bb97a631918390b7163219b44094820cc87b75b80000000000017a9143256c1a04637a35cdf8a67e2dea526bde7abe0ce875c558e000000000017a914dec9142f853264f4bfbc5a0f7165d1f8114898068783218a00000000001976a91412cd661e8b49f0b0db6b2b8cd3700f7b15ed90f388ac886683000000000017a9142f6ce065698c4c97854ad719d19c068227369ead870cc77e00000000001976a9148b0144e6e19a9bc70a5104aafe679bdf277996a888ac4d1a8d000000000017a91404271cc49741eb6d12c030603dbcd98e606f78aa873cc18900000000001976a914a462e711d8bbc5f2da6560273a9b934578833bff88ac9ce880000000000017a91415093b8087c298bae50d6b0f7d80038491839c118727548a000000000017a91435f3f0a4550a4306fc8a97118f28ea5392ce66a6870db07e00000000001976a9146335bde709ef8f28f08c1ddd8b96312acdb70f8388acff198a00000000001976a914a90066142487621f8b792a9cc0e020ee8e958c3c88aca03e8500000000001976a914923837c1077decb919d8fc142aa8ffc6a492331688ac4fe08900000000001976a91467f4c65714b12fd429e811876b590bec8b87b77288ac74388300000000001976a914dc64732e1aa5302e0e7ecab56d2feddeb229ad1f88ac9f208800000000001976a914cbcb03fdc1fbe6c79d38042e038c0347514c980c88ac37ea9100000000001976a914c521a77cc1c6d86e286ecb6bb01a058bcafa650688ac99c68a00000000001976a914de548431f70b08e40b5eb5a1a1926a0a0abb9fd688ac66238e00000000001976a91400706f1de88cd815e19b34c102d6885ded8455e788ac21b28b00000000001976a914b80fd03a669ffcf8e83d763c491ec2538102e98188ace65d8700000000001976a91496062156ab50590005a9ca63b28441c195ad87fe88acaf118300000000001976a91407d9bf124d607cb212c329f0f78522662f5e733c88ac41d08500000000001976a914b3c7f8bb8dcca452852185a1fad7d29141a0582088ace2d68100000000001976a914cbd6955f23db5902607d736d93dd4f352de0141488ac6ca782000000000017a91411ea95e72ed2f36c9480c79b2c490ada4fd6145e87dc4f8b00000000001976a914366717698df939e99df6ae0b91d7394c3a50a8ac88ace7778a00000000001976a91420e273ba55a933289d85db4e10781ce0e960667488acccdd8d000000000017a9146d05cefbd2041efb53423939564442d7736f0f7a872d198e00000000001976a914f34e67abf54d3953a899d255c61efa97203f683988ace1058600000000001976a9146c71f09c0006d614977c75608c4b1886fe7b506d88ac5e2d8900000000001976a914bf7dc50db826998c89910f05c59ba4e3a8d1df3688ac46b580000000000017a91428a6de4a1a79d595487c08bbbb8b5167c3d6f03087bac68600000000001976a9148b8e41b70dc37514900a6591af94d227fd897f4088ac991f8300000000001976a914563a00765bcb6efce49221a91f445caf05c99e0988acc0dc85000000000017a9140056bdfd0219376fa3f67290d7bee4cf5371b0ae87d8057c020000000017a91461f853515aaa78999db5bc0539e9189173ed7ee6876e6b8900000000001976a9147b6da96e5c378035c6650ba3621333dd06fd2ddc88ac68cf83000000000017a9142a9b3c1c2ef450a2f89925dca55e71577bf8ed1e8777af80000000000017a9142adc82515958079e1c12549dd10bc796b3afcc9e874c048f00000000001976a9140225bc7a63bdd7f6f32d7b0f64b5d3386259989b88ac589b8400000000001976a914e85e4259438b38f5b256072d2be13ec8b9443b2988ac4c3886000000000017a914ff0bb46260a86111085c1491d78739c4963882df876bf184000000000017a91457e19d4ed9cc3853a2cf9dfac41453b742b3196a8775ca8700000000001976a914b0ba9c33b2b0ff7a9e21ed4676cfb803c51bd38888acbf480800", "vin": [{"sequence": 4294967294, "scriptSig": {"hex": "483045022100c8cf7b596c91608e3df8f9b302269ea44af4667a23968b68eac7f10d4d4ce09f022070773c0d2d7bd337d2680bb4bb327cf6582bb28bf52e91f54a051283c45f67a801210256a2eca78f41f22f2758cebe36ca4e1207f5e1f189c233fd63a6177fe3937bea", "asm": "3045022100c8cf7b596c91608e3df8f9b302269ea44af4667a23968b68eac7f10d4d4ce09f022070773c0d2d7bd337d2680bb4bb327cf6582bb28bf52e91f54a051283c45f67a8[ALL] 0256a2eca78f41f22f2758cebe36ca4e1207f5e1f189c233fd63a6177fe3937bea"}, "vout": 44, "txid": "14634c25e95d321ddf93dba9930e92094835a2fb34d5a53b120f453624080038"}], "txid": "fbb961c343fa3aa65f2ed593a7f9b94575ed5a161cce516d1bbe870608938502", "blocktime": 1537871767, "version": 2, "confirmations": 11495, "time": 1537871767, "locktime": 542911, "vsize": 3534, "size": 3534}