{"hash": "1857f73831ae0703072259615b64b0aece161f8a87f6462bbd68061754076368", "blockhash": "0000000000000000001e0dab787dd257d1dbfcb92a98c2207d5e1078be1f4165", "vout": [{"scriptPubKey": {"reqSigs": 1, "hex": "76a914e0a27c36c9bfbf95b25af981945255c081be114c88ac", "addresses": ["1MUm1e9HqtskCLJEXEC1N7vHkqJGYBv7Tn"], "asm": "OP_DUP OP_HASH160 e0a27c36c9bfbf95b25af981945255c081be114c OP_EQUALVERIFY OP_CHECKSIG", "type": "pubkeyhash"}, "value": 0.01025017, "n": 0}, {"scriptPubKey": {"reqSigs": 1, "hex": "0014cc2ffad876ed11dfea9de47f3e4fe6e0c8f88a4c", "addresses": ["bc1qeshl4krka5gal65au3lnunlxury03zjvnwy43w"], "asm": "0 cc2ffad876ed11dfea9de47f3e4fe6e0c8f88a4c", "type": "witness_v0_keyhash"}, "value": 7.388e-05, "n": 1}], "hex": "01000000000101a2d178cb625e17e1140758ec09b7a126b5f81aafbb49f8dc0bb93818b68848fb1d00000017160014f7c9cb701a8d6ce3a65ae798830769c78938820dffffffff02f9a30f00000000001976a914e0a27c36c9bfbf95b25af981945255c081be114c88acdc1c000000000000160014cc2ffad876ed11dfea9de47f3e4fe6e0c8f88a4c0248304502210083965e93c00596b90efbe2dd1468f4070969701eef2a37db40f9e1a2bc47e21c022058401ee103eead96e2a6037bfbfb80f5a8030b54519214c76dfe28df0848e1f00121029fdc3edefa27f87eed249a9ec8f8ce21120dd8f08d486f7e0cd572268fd8474000000000", "vin": [{"txinwitness": ["304502210083965e93c00596b90efbe2dd1468f4070969701eef2a37db40f9e1a2bc47e21c022058401ee103eead96e2a6037bfbfb80f5a8030b54519214c76dfe28df0848e1f001", "029fdc3edefa27f87eed249a9ec8f8ce21120dd8f08d486f7e0cd572268fd84740"], "sequence": 4294967295, "scriptSig": {"hex": "160014f7c9cb701a8d6ce3a65ae798830769c78938820d", "asm": "0014f7c9cb701a8d6ce3a65ae798830769c78938820d"}, "vout": 29, "txid": "fb4888b61838b90bdcf849bbaf1af8b526a1b709ec580714e1175e62cb78d1a2"}], "txid": "fbbb53583ec815e6ae5aa591d877a692f8c3fae5ed088cbaaa130d5454de203c", "blocktime": 1537872475, "version": 1, "confirmations": 11487, "time": 1537872475, "locktime": 0, "vsize": 167, "size": 249}