{"hash": "4ff4c51cd2a7159540de723c5e7e94be59bb33b4a0137f272404e5a8f13b8d23", "blockhash": "0000000000000000000e13cef7c366c0283d82e591d1acd082e914b08063cdf1", "vout": [{"scriptPubKey": {"reqSigs": 1, "hex": "a91495283622c073dfdacb49b548f37935fa2a9d9d8287", "addresses": ["3FHgn4uqgBfE45qD6mLPVcjsrUayV5rXgD"], "asm": "OP_HASH160 95283622c073dfdacb49b548f37935fa2a9d9d82 OP_EQUAL", "type": "scripthash"}, "value": 0.01069806, "n": 0}, {"scriptPubKey": {"reqSigs": 1, "hex": "76a914498819ace5c84ceb326c68e91e93af08e765374888ac", "addresses": ["17hoNREgpaqA3GxbntQq3ejBMn93LDya66"], "asm": "OP_DUP OP_HASH160 498819ace5c84ceb326c68e91e93af08e7653748 OP_EQUALVERIFY OP_CHECKSIG", "type": "pubkeyhash"}, "value": 0.0025, "n": 1}], "hex": "02000000000102b4edc21730864dd7e8c66ace24fdcc247f251c1f98b38573e320a6eb658279f2000000001716001490297be7700bf978081381da3ded1da4ff8e003ffeffffffb4edc21730864dd7e8c66ace24fdcc247f251c1f98b38573e320a6eb658279f2010000001716001423c5f2855505708ce42700d5ae87c554803dc5cdfeffffff02ee5210000000000017a91495283622c073dfdacb49b548f37935fa2a9d9d828790d00300000000001976a914498819ace5c84ceb326c68e91e93af08e765374888ac024830450221009ff6c69f0561bdbe6c3e32e51936ab1da5a2f5c56448c7d4cb5df80588c5109e02200d21eda38324560b99144d5af74d1f037b6f648c603e5b34036c6bce2cd365000121021ab60bde5900153d29732f0810fd35c73af3926ae17c4be5f7c7a092543f72ff02483045022100973aecac3ae1e9e6f0e059cfc3be8eee4d4f57d5cd09d0911ec5f6bb9bc45d84022004892a35c19ae486d65d5848389fe25cbe29b061d6cc9909956db4b08e4040cc0121036b50f8ed7e38eef3d18a56a03499e0fdc4b73fa21e8ee24d3d80bce266b63a2d10490800", "vin": [{"txinwitness": ["30450221009ff6c69f0561bdbe6c3e32e51936ab1da5a2f5c56448c7d4cb5df80588c5109e02200d21eda38324560b99144d5af74d1f037b6f648c603e5b34036c6bce2cd3650001", "021ab60bde5900153d29732f0810fd35c73af3926ae17c4be5f7c7a092543f72ff"], "sequence": 4294967294, "scriptSig": {"hex": "16001490297be7700bf978081381da3ded1da4ff8e003f", "asm": "001490297be7700bf978081381da3ded1da4ff8e003f"}, "vout": 0, "txid": "f2798265eba620e37385b3981f1c257f24ccfd24ce6ac6e8d74d863017c2edb4"}, {"txinwitness": ["3045022100973aecac3ae1e9e6f0e059cfc3be8eee4d4f57d5cd09d0911ec5f6bb9bc45d84022004892a35c19ae486d65d5848389fe25cbe29b061d6cc9909956db4b08e4040cc01", "036b50f8ed7e38eef3d18a56a03499e0fdc4b73fa21e8ee24d3d80bce266b63a2d"], "sequence": 4294967294, "scriptSig": {"hex": "16001423c5f2855505708ce42700d5ae87c554803dc5cd", "asm": "001423c5f2855505708ce42700d5ae87c554803dc5cd"}, "vout": 1, "txid": "f2798265eba620e37385b3981f1c257f24ccfd24ce6ac6e8d74d863017c2edb4"}], "txid": "fbbdd59012d7797050d89298806840185348ee8895301818fce4e888f8ad6df8", "blocktime": 1537871767, "version": 2, "confirmations": 11495, "time": 1537871767, "locktime": 542992, "vsize": 259, "size": 422}