{"hash": "fbca0a5259b24512514e7e8d18a8fc370e1c3811634947511e800a79d738d7ba", "blockhash": "00000000000000000017f5eb5941039fbcee6240d03bc1f2f8e35350df66a1d8", "vout": [{"scriptPubKey": {"reqSigs": 1, "hex": "76a914a92f81c21d778cda22cd95820b59dd15de0408ba88ac", "addresses": ["1GRa7Fkqnqug4CnzQ4R36vX9jPazczPxNn"], "asm": "OP_DUP OP_HASH160 a92f81c21d778cda22cd95820b59dd15de0408ba OP_EQUALVERIFY OP_CHECKSIG", "type": "pubkeyhash"}, "value": 6.568e-05, "n": 0}, {"scriptPubKey": {"reqSigs": 1, "hex": "76a91426fd9d91542f5f5f7bca5eca03dd1f759d69e93d88ac", "addresses": ["14ZAVobRsM55BdQrfmHimGe6EkyqwNrpNZ"], "asm": "OP_DUP OP_HASH160 26fd9d91542f5f5f7bca5eca03dd1f759d69e93d OP_EQUALVERIFY OP_CHECKSIG", "type": "pubkeyhash"}, "value": 0.0761, "n": 1}], "hex": "01000000030fb866fb6d245ed2af085c91b70500b3faaff1402ed82a7696b08ea50c1e93430f0000006b483045022100f55a36dc6075c28fe49b9c5d123db4964ea0118298dfa233220f56d640cdf54e02207a498ff9db2b655e22cc107a62a79ccdb0503cecba5cb932d612d00c90176b82012103177239c80e4d47f106518886cebfc118cbe8e0cab51e7c6d959e7099a9ba499bffffffff7e8b395917437b8e0d38a31c579d9b7e1c33203d12db6568d991fd446c87b6c9010000006a47304402203e5f680ca7bdd04acdec35a4455fceb5a185423c0e810ca0cb2f687218d94a76022009b5fb6c00d24d4a370e68851f33e23a865a57dd5242d26c4959942cec957e3c012103177239c80e4d47f106518886cebfc118cbe8e0cab51e7c6d959e7099a9ba499bffffffff5e4d23023c6a3bcece03f8cf0c862fc80dc76c95b229c48461da50fb414845e7030000006a47304402207222d2aa8de814ddb769a4026e8aa5e4cabfe330cb7cc158f6d2fd3e8cd897a00220517f6d9d8fa68ad83ceac7013564af2f4f5b8fa70008c06fa786b7543526f53e0121036ca62e52f7f2650c76d2018de3eaab2890b2ecd1284a31ed2475d2e3b36dd375ffffffff02a8190000000000001976a914a92f81c21d778cda22cd95820b59dd15de0408ba88ac901e7400000000001976a91426fd9d91542f5f5f7bca5eca03dd1f759d69e93d88ac00000000", "vin": [{"sequence": 4294967295, "scriptSig": {"hex": "483045022100f55a36dc6075c28fe49b9c5d123db4964ea0118298dfa233220f56d640cdf54e02207a498ff9db2b655e22cc107a62a79ccdb0503cecba5cb932d612d00c90176b82012103177239c80e4d47f106518886cebfc118cbe8e0cab51e7c6d959e7099a9ba499b", "asm": "3045022100f55a36dc6075c28fe49b9c5d123db4964ea0118298dfa233220f56d640cdf54e02207a498ff9db2b655e22cc107a62a79ccdb0503cecba5cb932d612d00c90176b82[ALL] 03177239c80e4d47f106518886cebfc118cbe8e0cab51e7c6d959e7099a9ba499b"}, "vout": 15, "txid": "43931e0ca58eb096762ad82e40f1affab30005b7915c08afd25e246dfb66b80f"}, {"sequence": 4294967295, "scriptSig": {"hex": "47304402203e5f680ca7bdd04acdec35a4455fceb5a185423c0e810ca0cb2f687218d94a76022009b5fb6c00d24d4a370e68851f33e23a865a57dd5242d26c4959942cec957e3c012103177239c80e4d47f106518886cebfc118cbe8e0cab51e7c6d959e7099a9ba499b", "asm": "304402203e5f680ca7bdd04acdec35a4455fceb5a185423c0e810ca0cb2f687218d94a76022009b5fb6c00d24d4a370e68851f33e23a865a57dd5242d26c4959942cec957e3c[ALL] 03177239c80e4d47f106518886cebfc118cbe8e0cab51e7c6d959e7099a9ba499b"}, "vout": 1, "txid": "c9b6876c44fd91d96865db123d20331c7e9b9d571ca3380d8e7b431759398b7e"}, {"sequence": 4294967295, "scriptSig": {"hex": "47304402207222d2aa8de814ddb769a4026e8aa5e4cabfe330cb7cc158f6d2fd3e8cd897a00220517f6d9d8fa68ad83ceac7013564af2f4f5b8fa70008c06fa786b7543526f53e0121036ca62e52f7f2650c76d2018de3eaab2890b2ecd1284a31ed2475d2e3b36dd375", "asm": "304402207222d2aa8de814ddb769a4026e8aa5e4cabfe330cb7cc158f6d2fd3e8cd897a00220517f6d9d8fa68ad83ceac7013564af2f4f5b8fa70008c06fa786b7543526f53e[ALL] 036ca62e52f7f2650c76d2018de3eaab2890b2ecd1284a31ed2475d2e3b36dd375"}, "vout": 3, "txid": "e7454841fb50da6184c429b2956cc70dc82f860ccff803cece3b6a3c02234d5e"}], "txid": "fbca0a5259b24512514e7e8d18a8fc370e1c3811634947511e800a79d738d7ba", "blocktime": 1537874412, "version": 1, "confirmations": 11468, "time": 1537874412, "locktime": 0, "vsize": 520, "size": 520}