{"hash": "fbcd238b1a54596a86c1db8253df3ccab792eab9cc046ddae15b2f766b4087b6", "blockhash": "0000000000000000000e13cef7c366c0283d82e591d1acd082e914b08063cdf1", "vout": [{"scriptPubKey": {"reqSigs": 1, "hex": "76a9144fceee700a31f782ba4f9ebd2b127cd400041bb188ac", "addresses": ["18GzH11T5h2fpvUoBJDub7MgNJVw3FfqQ8"], "asm": "OP_DUP OP_HASH160 4fceee700a31f782ba4f9ebd2b127cd400041bb1 OP_EQUALVERIFY OP_CHECKSIG", "type": "pubkeyhash"}, "value": 0.0001248, "n": 0}, {"scriptPubKey": {"reqSigs": 1, "hex": "76a914fadd924b1659add784569d22ee957a2d337ed6a388ac", "addresses": ["1PsTN1imhULPTLz2AoAo3mFm8z6puMRFjC"], "asm": "OP_DUP OP_HASH160 fadd924b1659add784569d22ee957a2d337ed6a3 OP_EQUALVERIFY OP_CHECKSIG", "type": "pubkeyhash"}, "value": 0.065464, "n": 1}, {"scriptPubKey": {"reqSigs": 1, "hex": "76a914ec670d19c5716c972de3a5a5ab5101b519578a9388ac", "addresses": ["1NYyvPoR4DnX8aZ9pyP2Rd4Mi4EF7kMMFV"], "asm": "OP_DUP OP_HASH160 ec670d19c5716c972de3a5a5ab5101b519578a93 OP_EQUALVERIFY OP_CHECKSIG", "type": "pubkeyhash"}, "value": 1.61934884, "n": 2}], "hex": "0100000001ef52d5aceb8cceeb02b6e5f56986a76efde4e9833821534209840543547f181e020000006a47304402204af3f96f03c6e23dd627c86acee0619b30560f80f738ddef3a3fdf5c34fe0ae90220089cbfd47a52d7ca610475684f0d7428fdf2a40c7d9aeeda81f4e298824160db012102f9bebb8975677dd4d7472ab274ea07fb8a68c540359d038ee478d50d90f2f1f4ffffffff03c0300000000000001976a9144fceee700a31f782ba4f9ebd2b127cd400041bb188ace0e36300000000001976a914fadd924b1659add784569d22ee957a2d337ed6a388ac24eea609000000001976a914ec670d19c5716c972de3a5a5ab5101b519578a9388ac00000000", "vin": [{"sequence": 4294967295, "scriptSig": {"hex": "47304402204af3f96f03c6e23dd627c86acee0619b30560f80f738ddef3a3fdf5c34fe0ae90220089cbfd47a52d7ca610475684f0d7428fdf2a40c7d9aeeda81f4e298824160db012102f9bebb8975677dd4d7472ab274ea07fb8a68c540359d038ee478d50d90f2f1f4", "asm": "304402204af3f96f03c6e23dd627c86acee0619b30560f80f738ddef3a3fdf5c34fe0ae90220089cbfd47a52d7ca610475684f0d7428fdf2a40c7d9aeeda81f4e298824160db[ALL] 02f9bebb8975677dd4d7472ab274ea07fb8a68c540359d038ee478d50d90f2f1f4"}, "vout": 2, "txid": "1e187f54430584094253213883e9e4fd6ea78669f5e5b602ebce8cebacd552ef"}], "txid": "fbcd238b1a54596a86c1db8253df3ccab792eab9cc046ddae15b2f766b4087b6", "blocktime": 1537871767, "version": 1, "confirmations": 11490, "time": 1537871767, "locktime": 0, "vsize": 259, "size": 259}