{"hash": "0eac533c82e293f91319b050a6aadedf40ea95e989226163e8a8902c6c59989c", "blockhash": "0000000000000000001f76057863aec43deb6fa401d9628bb513d65a8098bfab", "vout": [{"scriptPubKey": {"reqSigs": 1, "hex": "a914b7de7cff03dfd3daef5f7176bd57cf9aa801aaec87", "addresses": ["3JTE7QQtCaYudkD5evejVh3zQ6KdMrWRjL"], "asm": "OP_HASH160 b7de7cff03dfd3daef5f7176bd57cf9aa801aaec OP_EQUAL", "type": "scripthash"}, "value": 0.0488357, "n": 0}, {"scriptPubKey": {"reqSigs": 1, "hex": "a9145d26752d2e91451cb229417fe56f74ec0a13d0b187", "addresses": ["3ABYqUQJMJ1WpkC47kztGAKcU91mmTRLhH"], "asm": "OP_HASH160 5d26752d2e91451cb229417fe56f74ec0a13d0b1 OP_EQUAL", "type": "scripthash"}, "value": 0.00112342, "n": 1}], "hex": "02000000000104de40af283789499a70f80996dd1a28c1b13269d8dc0ced0bb317972e965e0b130100000017160014a9d70925d6c8a8bad939f8e818b96e5961f37748ffffffff0d2332bb528606a05b8892f70a398554e385062981efbc05acaa6abb29feb0f701000000171600142e7bb2eeb2bda171323109d5582eb8c56da92c96ffffffff55955310f921380530c5bd0d3dece9bee91a11b499e47df9686ae39b4924cdde01000000171600147142190e01c408d2a83ff2a895e7200f4a624c16ffffffffdc7f90c902dd9d40091a051a8bc0c89824a7014580867be75f280b84006b39990100000017160014f78b0e4bb8c5238b910e78a1056b55d64a8df598ffffffff0272844a000000000017a914b7de7cff03dfd3daef5f7176bd57cf9aa801aaec87d6b601000000000017a9145d26752d2e91451cb229417fe56f74ec0a13d0b18702483045022100e9c343683190fa8ae0a4977a3c34cd5d105c6673a1090275d18c2b17c27e520b0220647cdb173a6c46162e1239f0080a6f92b1a9a41ee5f14ed152043b0313656a52012103fb60056e472b4f7aa8346ec950b5eaa19457d2133d4b8beb26208c48c49e3e1102483045022100a6f56d3bcf3a34b1f40d89e5a09342ee4439b97153e0750eb2d5d4ebf4a21d9b02207358bb03b1b352382c3ab09253747f142b4eb251567bfdfc46eb4aef38b601640121027e398011bfb49bd0f9877d443f49cb4c6aaf76708cb64981dddf1c8186a13d9d0247304402207f3ef95c666af0b1f2fb8f523e5defc4bd156444291e166edd59798c5ee4b8fa022043e12d2e237dbdb1a5f9f6472a15d661be873d70572aa89851111830b0603aea012102fa2c45c64490e84685378137e5474d28810dd6034453d40bacfc5983db4cf8ff024830450221008ab9d69ba972ad4262e2de1d41ca36590765c0ff2ceb085ec5986c32957ef4b902206bd4b045cc780e254cc76d90d260431c0a4d96241eda2613f98dc17109f3e7c8012103cb1fb40dc851300785a8d1bc10017faa273af381a819d6b7f0755921917fea2800000000", "vin": [{"txinwitness": ["3045022100e9c343683190fa8ae0a4977a3c34cd5d105c6673a1090275d18c2b17c27e520b0220647cdb173a6c46162e1239f0080a6f92b1a9a41ee5f14ed152043b0313656a5201", "03fb60056e472b4f7aa8346ec950b5eaa19457d2133d4b8beb26208c48c49e3e11"], "sequence": 4294967295, "scriptSig": {"hex": "160014a9d70925d6c8a8bad939f8e818b96e5961f37748", "asm": "0014a9d70925d6c8a8bad939f8e818b96e5961f37748"}, "vout": 1, "txid": "130b5e962e9717b30bed0cdcd86932b1c1281add9609f8709a49893728af40de"}, {"txinwitness": ["3045022100a6f56d3bcf3a34b1f40d89e5a09342ee4439b97153e0750eb2d5d4ebf4a21d9b02207358bb03b1b352382c3ab09253747f142b4eb251567bfdfc46eb4aef38b6016401", "027e398011bfb49bd0f9877d443f49cb4c6aaf76708cb64981dddf1c8186a13d9d"], "sequence": 4294967295, "scriptSig": {"hex": "1600142e7bb2eeb2bda171323109d5582eb8c56da92c96", "asm": "00142e7bb2eeb2bda171323109d5582eb8c56da92c96"}, "vout": 1, "txid": "f7b0fe29bb6aaaac05bcef81290685e35485390af792885ba0068652bb32230d"}, {"txinwitness": ["304402207f3ef95c666af0b1f2fb8f523e5defc4bd156444291e166edd59798c5ee4b8fa022043e12d2e237dbdb1a5f9f6472a15d661be873d70572aa89851111830b0603aea01", "02fa2c45c64490e84685378137e5474d28810dd6034453d40bacfc5983db4cf8ff"], "sequence": 4294967295, "scriptSig": {"hex": "1600147142190e01c408d2a83ff2a895e7200f4a624c16", "asm": "00147142190e01c408d2a83ff2a895e7200f4a624c16"}, "vout": 1, "txid": "decd24499be36a68f97de499b4111ae9bee9ec3d0dbdc530053821f910539555"}, {"txinwitness": ["30450221008ab9d69ba972ad4262e2de1d41ca36590765c0ff2ceb085ec5986c32957ef4b902206bd4b045cc780e254cc76d90d260431c0a4d96241eda2613f98dc17109f3e7c801", "03cb1fb40dc851300785a8d1bc10017faa273af381a819d6b7f0755921917fea28"], "sequence": 4294967295, "scriptSig": {"hex": "160014f78b0e4bb8c5238b910e78a1056b55d64a8df598", "asm": "0014f78b0e4bb8c5238b910e78a1056b55d64a8df598"}, "vout": 1, "txid": "99396b00840b285fe77b86804501a72498c8c08b1a051a09409ddd02c9907fdc"}], "txid": "fbcfbcfc02d2ebbd05c53200d8647d1275f5ce4b809cb246156f49e447d78179", "blocktime": 1537873891, "version": 2, "confirmations": 11474, "time": 1537873891, "locktime": 0, "vsize": 439, "size": 763}