{"hash": "fbd0fb83c588b3388337229316719fc5ab7503a38333c45407c224e8a44f4c25", "blockhash": "0000000000000000000baef3f32e3676a92c3b2e5da21b426e4f302fc371ce76", "vout": [{"scriptPubKey": {"reqSigs": 1, "hex": "76a9145da5140876919b5fb71a5625f240302a034b523188ac", "addresses": ["19Y9bgMACtiw7duytoTckTYPVJMazW9QVS"], "asm": "OP_DUP OP_HASH160 5da5140876919b5fb71a5625f240302a034b5231 OP_EQUALVERIFY OP_CHECKSIG", "type": "pubkeyhash"}, "value": 0.00626027, "n": 0}, {"scriptPubKey": {"type": "nulldata", "hex": "6a4c5000007837000185d4b24afb0c01365c5d909727b7256b4774d339f6019d6ddc0f1b8ff117c3751b5b5933a362babcce031af9d3845baa20630613798aa6b085931d100759d4ba30d2c37bb011d97e02cf", "asm": "OP_RETURN 00007837000185d4b24afb0c01365c5d909727b7256b4774d339f6019d6ddc0f1b8ff117c3751b5b5933a362babcce031af9d3845baa20630613798aa6b085931d100759d4ba30d2c37bb011d97e02cf"}, "value": 0.0, "n": 1}], "hex": "010000000128ee1b2b171f1cbcab2ca7f771934d45a1b34ffd576b93bc3ca38d61112787df010000006a4730440220042948ec73fe7c3a1a0ba70cde7dd927586d90abb62aab190a395eb91d474f5b022010fb071592d9ec320f28828991cf8f62994707a9c344ed5aeef6567389ca7cec012102c7a4ead035858d21744b731798b961a79c716a7c6e1cedd60d0c20107d5f8cd1ffffffff026b8d0900000000001976a9145da5140876919b5fb71a5625f240302a034b523188ac0000000000000000536a4c5000007837000185d4b24afb0c01365c5d909727b7256b4774d339f6019d6ddc0f1b8ff117c3751b5b5933a362babcce031af9d3845baa20630613798aa6b085931d100759d4ba30d2c37bb011d97e02cf00000000", "vin": [{"sequence": 4294967295, "scriptSig": {"hex": "4730440220042948ec73fe7c3a1a0ba70cde7dd927586d90abb62aab190a395eb91d474f5b022010fb071592d9ec320f28828991cf8f62994707a9c344ed5aeef6567389ca7cec012102c7a4ead035858d21744b731798b961a79c716a7c6e1cedd60d0c20107d5f8cd1", "asm": "30440220042948ec73fe7c3a1a0ba70cde7dd927586d90abb62aab190a395eb91d474f5b022010fb071592d9ec320f28828991cf8f62994707a9c344ed5aeef6567389ca7cec[ALL] 02c7a4ead035858d21744b731798b961a79c716a7c6e1cedd60d0c20107d5f8cd1"}, "vout": 1, "txid": "df872711618da33cbc936b57fd4fb3a1454d9371f7a72cabbc1c1f172b1bee28"}], "txid": "fbd0fb83c588b3388337229316719fc5ab7503a38333c45407c224e8a44f4c25", "blocktime": 1537876114, "version": 1, "confirmations": 11460, "time": 1537876114, "locktime": 0, "vsize": 283, "size": 283}