{"hash": "d7fca71e1c4d51a71d0eb862d208d11d475b8c6e151d2efef773c241a53762e4", "blockhash": "0000000000000000000dcc0f55137456b1a82d3642486a52398922ac4d620174", "vout": [{"scriptPubKey": {"reqSigs": 1, "hex": "a914925482804079ffe4f1ad7b33eb35b1cb7302a17987", "addresses": ["3F2jpPjMezv6bkrBJ3P5hMsMfcgoj9fThM"], "asm": "OP_HASH160 925482804079ffe4f1ad7b33eb35b1cb7302a179 OP_EQUAL", "type": "scripthash"}, "value": 0.01050118, "n": 0}, {"scriptPubKey": {"reqSigs": 1, "hex": "76a914a6389cf5f79ae048c62dbc5825484ead327bb86e88ac", "addresses": ["1G9tzPnu4Kqi99g9ZoTLHLknE7V7sK5yF1"], "asm": "OP_DUP OP_HASH160 a6389cf5f79ae048c62dbc5825484ead327bb86e OP_EQUALVERIFY OP_CHECKSIG", "type": "pubkeyhash"}, "value": 0.00306356, "n": 1}], "hex": "02000000000101c0ffe871618f097d6ab6a25e524768eda604752123a3d4d5c350203265c051693301000017160014b4be0206fa516ef4c1cd06fcd7d51683d339effafeffffff02060610000000000017a914925482804079ffe4f1ad7b33eb35b1cb7302a17987b4ac0400000000001976a914a6389cf5f79ae048c62dbc5825484ead327bb86e88ac0247304402204bc16c38205810821cc8762ffe3c61acabb9ba7ff8ae2859331f127a90df857c02203a8fc397466dcba2662cacfd5df9a0e5f338e8e4db614a20e8ae3a63ccfae287012103f6cc142dea17fb2e134779f44416ad91bbb16c5c25d1db753bd9b2b6d525d3800c490800", "vin": [{"txinwitness": ["304402204bc16c38205810821cc8762ffe3c61acabb9ba7ff8ae2859331f127a90df857c02203a8fc397466dcba2662cacfd5df9a0e5f338e8e4db614a20e8ae3a63ccfae28701", "03f6cc142dea17fb2e134779f44416ad91bbb16c5c25d1db753bd9b2b6d525d380"], "sequence": 4294967294, "scriptSig": {"hex": "160014b4be0206fa516ef4c1cd06fcd7d51683d339effa", "asm": "0014b4be0206fa516ef4c1cd06fcd7d51683d339effa"}, "vout": 307, "txid": "6951c065322050c3d5d4a323217504a6ed6847525ea2b66a7d098f6171e8ffc0"}], "txid": "fbd71856675c4cc31e34525086e56325ec54b397891e2a0074838892fcb8acd4", "blocktime": 1537870268, "version": 2, "confirmations": 11516, "time": 1537870268, "locktime": 542988, "vsize": 168, "size": 249}