{"hash": "fbdbefb2adb3bdbcd835f2154f19a471483b1d63a6b83f6d6903e28f1eff2b59", "blockhash": "0000000000000000001f76057863aec43deb6fa401d9628bb513d65a8098bfab", "vout": [{"scriptPubKey": {"reqSigs": 1, "hex": "76a914374adf6abc3a3473e4b71b10fed513d78e3df96388ac", "addresses": ["163MroKaiY35H3jDVTCgfdvXRhom6iCCq7"], "asm": "OP_DUP OP_HASH160 374adf6abc3a3473e4b71b10fed513d78e3df963 OP_EQUALVERIFY OP_CHECKSIG", "type": "pubkeyhash"}, "value": 0.01785819, "n": 0}, {"scriptPubKey": {"reqSigs": 1, "hex": "76a914c51c641d8f4567c895cf46bb4b992a3f8974ec0588ac", "addresses": ["1JyE8SMY5Q16WZzVWkqmKyW5vpdbKEaT4m"], "asm": "OP_DUP OP_HASH160 c51c641d8f4567c895cf46bb4b992a3f8974ec05 OP_EQUALVERIFY OP_CHECKSIG", "type": "pubkeyhash"}, "value": 0.00012121, "n": 1}], "hex": "010000000176978bace7a5151cc053cc588719730c1b76d538a62978e29986a07109484fcd000000006a47304402202707a462197229d6dea39e55be10962e7974cd18faadd44a1664c874130c8f2902202b60387fc11b5bde64bf18a0e65b6ee1313e962c70f04bef0d5f644c0be04d9c01210334ef02a3f2094fc01c62c2b0c29296eadcb690b921f86d31613c7f0b8d1dea4dffffffff02db3f1b00000000001976a914374adf6abc3a3473e4b71b10fed513d78e3df96388ac592f0000000000001976a914c51c641d8f4567c895cf46bb4b992a3f8974ec0588ac00000000", "vin": [{"sequence": 4294967295, "scriptSig": {"hex": "47304402202707a462197229d6dea39e55be10962e7974cd18faadd44a1664c874130c8f2902202b60387fc11b5bde64bf18a0e65b6ee1313e962c70f04bef0d5f644c0be04d9c01210334ef02a3f2094fc01c62c2b0c29296eadcb690b921f86d31613c7f0b8d1dea4d", "asm": "304402202707a462197229d6dea39e55be10962e7974cd18faadd44a1664c874130c8f2902202b60387fc11b5bde64bf18a0e65b6ee1313e962c70f04bef0d5f644c0be04d9c[ALL] 0334ef02a3f2094fc01c62c2b0c29296eadcb690b921f86d31613c7f0b8d1dea4d"}, "vout": 0, "txid": "cd4f480971a08699e27829a638d5761b0c73198758cc53c01c15a5e7ac8b9776"}], "txid": "fbdbefb2adb3bdbcd835f2154f19a471483b1d63a6b83f6d6903e28f1eff2b59", "blocktime": 1537873891, "version": 1, "confirmations": 11475, "time": 1537873891, "locktime": 0, "vsize": 225, "size": 225}