{"hash": "fbe32e98ff914212d38da8aa22ada4bc80d5e5e7aa4db505fa38a3120968510c", "blockhash": "000000000000000000022b45ed06c6f4ccd3cf7fb5ba4856ebd2e58215665228", "vout": [{"scriptPubKey": {"reqSigs": 1, "hex": "76a9142cfdc6f30b8c820a28cb94cd82067fddb018e02288ac", "addresses": ["156tkBmw3v4zY6JGK1o5ff2Rcoh9xGVCGS"], "asm": "OP_DUP OP_HASH160 2cfdc6f30b8c820a28cb94cd82067fddb018e022 OP_EQUALVERIFY OP_CHECKSIG", "type": "pubkeyhash"}, "value": 0.03307565, "n": 0}, {"scriptPubKey": {"reqSigs": 1, "hex": "76a91416ffcc5a1114d0c32b3d7e06dc4a269c891f21c388ac", "addresses": ["136cJPs9FfVxGaVBk6c1iZdEXP52SBbWLF"], "asm": "OP_DUP OP_HASH160 16ffcc5a1114d0c32b3d7e06dc4a269c891f21c3 OP_EQUALVERIFY OP_CHECKSIG", "type": "pubkeyhash"}, "value": 1.94159787, "n": 1}], "hex": "0100000001ff07bf2a951d5afbda05dff3ff0fddc5f4e810e2a8b7ee7bac2e8b73bef8dd8f000000006a4730440220358d2e8e544c77e858fbe0a30ea1ae0182440351979d40ad1901942c1d95198702202cd53e287b08daa0943d5f4e44e04939d167f88a0fcb89e12c61db56ea8a1ebe012103316f92094cddd55adee1914eea42665b576e100a849742b00df6e1f98a51e499ffffffff022d783200000000001976a9142cfdc6f30b8c820a28cb94cd82067fddb018e02288acaba4920b000000001976a91416ffcc5a1114d0c32b3d7e06dc4a269c891f21c388ac00000000", "vin": [{"sequence": 4294967295, "scriptSig": {"hex": "4730440220358d2e8e544c77e858fbe0a30ea1ae0182440351979d40ad1901942c1d95198702202cd53e287b08daa0943d5f4e44e04939d167f88a0fcb89e12c61db56ea8a1ebe012103316f92094cddd55adee1914eea42665b576e100a849742b00df6e1f98a51e499", "asm": "30440220358d2e8e544c77e858fbe0a30ea1ae0182440351979d40ad1901942c1d95198702202cd53e287b08daa0943d5f4e44e04939d167f88a0fcb89e12c61db56ea8a1ebe[ALL] 03316f92094cddd55adee1914eea42665b576e100a849742b00df6e1f98a51e499"}, "vout": 0, "txid": "8fddf8be738b2eac7beeb7a8e210e8f4c5dd0ffff3df05dafb5a1d952abf07ff"}], "txid": "fbe32e98ff914212d38da8aa22ada4bc80d5e5e7aa4db505fa38a3120968510c", "blocktime": 1537869901, "version": 1, "confirmations": 11524, "time": 1537869901, "locktime": 0, "vsize": 225, "size": 225}