{"hash": "92e2d70fc91009d78072e6ec31c662d5ce59f7c20c88d26fb4455320c38540b9", "blockhash": "00000000000000000017f5eb5941039fbcee6240d03bc1f2f8e35350df66a1d8", "vout": [{"scriptPubKey": {"reqSigs": 1, "hex": "76a9149a1b8f9b1fa2d2297863adb1cb11c71df455684888ac", "addresses": ["1F3r5We2zwNiSzG6GQUTTWnnPMCz2HJbJu"], "asm": "OP_DUP OP_HASH160 9a1b8f9b1fa2d2297863adb1cb11c71df4556848 OP_EQUALVERIFY OP_CHECKSIG", "type": "pubkeyhash"}, "value": 2.685e-05, "n": 0}, {"scriptPubKey": {"reqSigs": 1, "hex": "a9148ddb66c3371910a0ef8f38021cc4094e61e69f3a87", "addresses": ["3Ed62sPENkraPwpovPty9YMFGJ8FtTyv63"], "asm": "OP_HASH160 8ddb66c3371910a0ef8f38021cc4094e61e69f3a OP_EQUAL", "type": "scripthash"}, "value": 0.00041998, "n": 1}], "hex": "010000000001016aeacb1369df48eb1917236f814b530680ccc9d90a7802879fb1ae6f54cd8be80100000023220020fdd23d707f55451c4e006c77b5e8df35a185a8e99f9bda70bf0ded7913bb1eb3ffffffff027d0a0000000000001976a9149a1b8f9b1fa2d2297863adb1cb11c71df455684888ac0ea400000000000017a9148ddb66c3371910a0ef8f38021cc4094e61e69f3a870400483045022100b22d3aeabe55ed8807edb1b0457becf506a36b16e6811c6202f58e9f0ccc175b02207e5c04277dddaaa5614f09cf9134d151d38eba18dc6566a6ef285fa4271ea8720147304402200f9a3ea877cf46e5c0f60f00c0e92b735a9213747ea9d6e9c3e36db6b8527d06022039de65fb0b4672b0016fab9e3033f29d1ee5dc783f0b051cd48115ff09244f02014752210286c104577b978160849865bc23f9a6df9b53d41c8ffb486754b97b2a474a181c2103148c80a5bdfddb05ff5bcffc397c8ca748d8b435ec6a175bc9d7bfc7fc6f853752ae00000000", "vin": [{"txinwitness": ["", "3045022100b22d3aeabe55ed8807edb1b0457becf506a36b16e6811c6202f58e9f0ccc175b02207e5c04277dddaaa5614f09cf9134d151d38eba18dc6566a6ef285fa4271ea87201", "304402200f9a3ea877cf46e5c0f60f00c0e92b735a9213747ea9d6e9c3e36db6b8527d06022039de65fb0b4672b0016fab9e3033f29d1ee5dc783f0b051cd48115ff09244f0201", "52210286c104577b978160849865bc23f9a6df9b53d41c8ffb486754b97b2a474a181c2103148c80a5bdfddb05ff5bcffc397c8ca748d8b435ec6a175bc9d7bfc7fc6f853752ae"], "sequence": 4294967295, "scriptSig": {"hex": "220020fdd23d707f55451c4e006c77b5e8df35a185a8e99f9bda70bf0ded7913bb1eb3", "asm": "0020fdd23d707f55451c4e006c77b5e8df35a185a8e99f9bda70bf0ded7913bb1eb3"}, "vout": 1, "txid": "e88bcd546faeb19f8702780ad9c9cc8006534b816f231719eb48df6913cbea6a"}], "txid": "fbe578b5ea177f965d1e401e62f00bcd4248220ffa426f7d4b14791bd2fbcc1d", "blocktime": 1537874412, "version": 1, "confirmations": 11468, "time": 1537874412, "locktime": 0, "vsize": 208, "size": 373}