{"hash": "fbe61f57d3c514767593a5ced6112f6df738cfd005056c4e57423d247c968ba9", "blockhash": "0000000000000000000e13cef7c366c0283d82e591d1acd082e914b08063cdf1", "vout": [{"scriptPubKey": {"reqSigs": 1, "hex": "a914252f5aeef58535b6bcc84081f5f6799e8f1b638287", "addresses": ["355dewRGPh7EQXw9RNSWxb7yVqcUjhuaEb"], "asm": "OP_HASH160 252f5aeef58535b6bcc84081f5f6799e8f1b6382 OP_EQUAL", "type": "scripthash"}, "value": 0.28789193, "n": 0}, {"scriptPubKey": {"reqSigs": 1, "hex": "76a9140b3e8487a7c71423ce9ce8cbdf4d87f1b2ba27a488ac", "addresses": ["122TKv7X5ZwdKyrTZ9sZhRoVMjrGQuRuLb"], "asm": "OP_DUP OP_HASH160 0b3e8487a7c71423ce9ce8cbdf4d87f1b2ba27a4 OP_EQUALVERIFY OP_CHECKSIG", "type": "pubkeyhash"}, "value": 0.00053246, "n": 1}], "hex": "010000000299c1b50d81576f445b8f98d73fe934c9b8a7a094b9e2f5984a007a34891c819400000000db00483045022100d381b86597a047a00f8a025e1805e3b187634b038934dcbcac6422f4379aefbd0220334101b5d24b52bcd760054fd998237fdb2a553d9dd3694a64248ecf96f453f501483045022100c4466ada4ac129c4f9a18c04e04d7d8cff7b4b30aedd0647c3c9652563932a2c0220255f5f53eb1c3e84ca9997594a3a422621563d0abc5b3b03d3c049e5ff0c07640147522102907a54bed8ad74b3f35638c60114ca240a308cb986f3f2f306178869a8880b612103fde086ab6aff675194948829953c03014b0dc9dfc357e9fa7384b80bba2b336f52aeffffffff937c7c24393d2733f30d6186c169a12ed24c28747e29f3b9ae47856c06b0c39a010000006a47304402202aa3f48b9fc24e4249b4ae8afb4300ab9c72196b49f09e449766fb9288efea0802200e16ec4651515e9cd3dc5c26de6a7aa698d47dbdb3faf314a1d6060c70a23f8f012102b6a766241fd7d5bd2b5bbec01f50ff19c697dc466a44065d1b23712527b98919ffffffff02c949b7010000000017a914252f5aeef58535b6bcc84081f5f6799e8f1b638287fecf0000000000001976a9140b3e8487a7c71423ce9ce8cbdf4d87f1b2ba27a488ac00000000", "vin": [{"sequence": 4294967295, "scriptSig": {"hex": "00483045022100d381b86597a047a00f8a025e1805e3b187634b038934dcbcac6422f4379aefbd0220334101b5d24b52bcd760054fd998237fdb2a553d9dd3694a64248ecf96f453f501483045022100c4466ada4ac129c4f9a18c04e04d7d8cff7b4b30aedd0647c3c9652563932a2c0220255f5f53eb1c3e84ca9997594a3a422621563d0abc5b3b03d3c049e5ff0c07640147522102907a54bed8ad74b3f35638c60114ca240a308cb986f3f2f306178869a8880b612103fde086ab6aff675194948829953c03014b0dc9dfc357e9fa7384b80bba2b336f52ae", "asm": "0 3045022100d381b86597a047a00f8a025e1805e3b187634b038934dcbcac6422f4379aefbd0220334101b5d24b52bcd760054fd998237fdb2a553d9dd3694a64248ecf96f453f5[ALL] 3045022100c4466ada4ac129c4f9a18c04e04d7d8cff7b4b30aedd0647c3c9652563932a2c0220255f5f53eb1c3e84ca9997594a3a422621563d0abc5b3b03d3c049e5ff0c0764[ALL] 522102907a54bed8ad74b3f35638c60114ca240a308cb986f3f2f306178869a8880b612103fde086ab6aff675194948829953c03014b0dc9dfc357e9fa7384b80bba2b336f52ae"}, "vout": 0, "txid": "94811c89347a004a98f5e2b994a0a7b8c934e93fd7988f5b446f57810db5c199"}, {"sequence": 4294967295, "scriptSig": {"hex": "47304402202aa3f48b9fc24e4249b4ae8afb4300ab9c72196b49f09e449766fb9288efea0802200e16ec4651515e9cd3dc5c26de6a7aa698d47dbdb3faf314a1d6060c70a23f8f012102b6a766241fd7d5bd2b5bbec01f50ff19c697dc466a44065d1b23712527b98919", "asm": "304402202aa3f48b9fc24e4249b4ae8afb4300ab9c72196b49f09e449766fb9288efea0802200e16ec4651515e9cd3dc5c26de6a7aa698d47dbdb3faf314a1d6060c70a23f8f[ALL] 02b6a766241fd7d5bd2b5bbec01f50ff19c697dc466a44065d1b23712527b98919"}, "vout": 1, "txid": "9ac3b0066c8547aeb9f3297e74284cd22ea169c186610df333273d39247c7c93"}], "txid": "fbe61f57d3c514767593a5ced6112f6df738cfd005056c4e57423d247c968ba9", "blocktime": 1537871767, "version": 1, "confirmations": 11495, "time": 1537871767, "locktime": 0, "vsize": 483, "size": 483}