{"hash": "22c3476cf348ce9fde267db9695022c703401cccdc13f1a774699930b1ff6431", "blockhash": "0000000000000000001f0ddff1eddb255c1121bcd4da4f1bc9a0da00cae72433", "vout": [{"scriptPubKey": {"reqSigs": 1, "hex": "0014de13bb3f7bde4328b8d7aefe6a0315891e85f838", "addresses": ["bc1qmcfmk0mmmepj3wxh4mlx5qc43y0gt7pc9zrjrr"], "asm": "0 de13bb3f7bde4328b8d7aefe6a0315891e85f838", "type": "witness_v0_keyhash"}, "value": 2.1380689, "n": 0}, {"scriptPubKey": {"reqSigs": 1, "hex": "76a914205f435b6ff46eb07b0fb568dd5d022f4973288588ac", "addresses": ["13xAk8sjZqrDz53r9iPhLG7mkw9Gffd7D3"], "asm": "OP_DUP OP_HASH160 205f435b6ff46eb07b0fb568dd5d022f49732885 OP_EQUALVERIFY OP_CHECKSIG", "type": "pubkeyhash"}, "value": 0.1034083, "n": 1}], "hex": "010000000001014b23b2965418b56c93fe66f1966bf0563d444403b2ac74b6c5ec8ce186d34f9d0000000000ffffffff022a6fbe0c00000000160014de13bb3f7bde4328b8d7aefe6a0315891e85f838dec99d00000000001976a914205f435b6ff46eb07b0fb568dd5d022f4973288588ac02483045022100bfe606cef3c9ec28c78cb24ac3e2638f3768b9d022516fcb30feb21872fe1d1502203de9907f4cebab9efbfa5cec767842b3c4892f6cca10245c160fc3176a48d3e2012102a7d0b48c122c03efecf82c0e3966ae579b3bf61f0293d8ad4bae135184e15a5800000000", "vin": [{"txinwitness": ["3045022100bfe606cef3c9ec28c78cb24ac3e2638f3768b9d022516fcb30feb21872fe1d1502203de9907f4cebab9efbfa5cec767842b3c4892f6cca10245c160fc3176a48d3e201", "02a7d0b48c122c03efecf82c0e3966ae579b3bf61f0293d8ad4bae135184e15a58"], "sequence": 4294967295, "scriptSig": {"hex": "", "asm": ""}, "vout": 0, "txid": "9d4fd386e18cecc5b674acb20344443d56f06b96f166fe936cb5185496b2234b"}], "txid": "fbe825c254e6a893b4426d83b10d6adc2f932f2e969f904601b0385ba7bf4154", "blocktime": 1537872018, "version": 1, "confirmations": 11489, "time": 1537872018, "locktime": 0, "vsize": 144, "size": 226}