{"hash": "0282287a7b0b69dd04474c5b1d0ce5effcfd955db48ae5cae7f4dbed50cf01cf", "blockhash": "0000000000000000000baef3f32e3676a92c3b2e5da21b426e4f302fc371ce76", "vout": [{"scriptPubKey": {"reqSigs": 1, "hex": "a91418f5bf82b4a63796e07a0e878bc4f4bf3d7246c587", "addresses": ["33xzY2Mdo52cMnXbzUZYJarRfjNhEqWfci"], "asm": "OP_HASH160 18f5bf82b4a63796e07a0e878bc4f4bf3d7246c5 OP_EQUAL", "type": "scripthash"}, "value": 0.04287678, "n": 0}, {"scriptPubKey": {"reqSigs": 1, "hex": "a914cfaabfe8c271f99a4364b5197ba50c6cddb7adb987", "addresses": ["3Ld4M9RPwEG3VeQbHcC1PsKUndQL7VYLZP"], "asm": "OP_HASH160 cfaabfe8c271f99a4364b5197ba50c6cddb7adb9 OP_EQUAL", "type": "scripthash"}, "value": 0.29511433, "n": 1}], "hex": "01000000000101c34ab892308077a11040adb29563da4b5676b911d4ad9693f8f402f31b992c3f01000000232200202f7b4024602241b47d3306a6733d9889e4b6761d9f1cb82a18aa8b9ac4506e51ffffffff02be6c41000000000017a91418f5bf82b4a63796e07a0e878bc4f4bf3d7246c587094fc2010000000017a914cfaabfe8c271f99a4364b5197ba50c6cddb7adb9870400483045022100e7e22390905db3a1e9712ccf7d1e5a7259972e3e54c6d8b5a3a4a5179cc2bf2f022009015112a5375c907dc73afb9deff9ac25a98530dd8f1ba9e72bc577ee42ac8c01473044022071677afe7b584ade876a94d0c2ab15f9cbdde1662067079401cd683042e0c77902205345a5918d23d8f208bd7abe05468a7f2d2f9d34850eee2e0bf014b001d340570147522102973cd851fecff3a20f08377b072729f303801eee1b7678668338adcaec770ec221033e4af03ed09dbd8a417ba042650d5bd1db7f14f271a8f660974e3abf1fdfa4da52ae00000000", "vin": [{"txinwitness": ["", "3045022100e7e22390905db3a1e9712ccf7d1e5a7259972e3e54c6d8b5a3a4a5179cc2bf2f022009015112a5375c907dc73afb9deff9ac25a98530dd8f1ba9e72bc577ee42ac8c01", "3044022071677afe7b584ade876a94d0c2ab15f9cbdde1662067079401cd683042e0c77902205345a5918d23d8f208bd7abe05468a7f2d2f9d34850eee2e0bf014b001d3405701", "522102973cd851fecff3a20f08377b072729f303801eee1b7678668338adcaec770ec221033e4af03ed09dbd8a417ba042650d5bd1db7f14f271a8f660974e3abf1fdfa4da52ae"], "sequence": 4294967295, "scriptSig": {"hex": "2200202f7b4024602241b47d3306a6733d9889e4b6761d9f1cb82a18aa8b9ac4506e51", "asm": "00202f7b4024602241b47d3306a6733d9889e4b6761d9f1cb82a18aa8b9ac4506e51"}, "vout": 1, "txid": "3f2c991bf302f4f89396add411b976564bda6395b2ad4010a177803092b84ac3"}], "txid": "fbe950b997f10667614e7b69c87750dcd2cb96aa69411a3d12c05c7b975d3ba6", "blocktime": 1537876114, "version": 1, "confirmations": 11462, "time": 1537876114, "locktime": 0, "vsize": 206, "size": 371}