{"hash": "f240a37cd88adc67a3424175e764bb8271d9421607774e66275c21c6398f0f69", "blockhash": "0000000000000000001cda96e906b7601b7a6fb1a3b62bca570a9e5d8f4b3de1", "vout": [{"scriptPubKey": {"reqSigs": 1, "hex": "0014b233e2d8d88a2192ee7d338c9ee6dd451c4811c5", "addresses": ["bc1qkge79kxc3gse9mnaxwxfaekag5wysyw92gla50"], "asm": "0 b233e2d8d88a2192ee7d338c9ee6dd451c4811c5", "type": "witness_v0_keyhash"}, "value": 1.081e-05, "n": 0}, {"scriptPubKey": {"reqSigs": 1, "hex": "a9141a46eeb275486bd39e903d08c74b47fbe64e337787", "addresses": ["345xU13k5KE32cvpi3wPyYtqCwnvFHKwFF"], "asm": "OP_HASH160 1a46eeb275486bd39e903d08c74b47fbe64e3377 OP_EQUAL", "type": "scripthash"}, "value": 0.0002009, "n": 1}], "hex": "0100000000010164698b587934659973d2c621357d2d232df17a14f6a1ac2834f7240042f5baa50100000000ffffffff023904000000000000160014b233e2d8d88a2192ee7d338c9ee6dd451c4811c57a4e00000000000017a9141a46eeb275486bd39e903d08c74b47fbe64e33778702483045022100ac5f420356c05373b842fcb81fcd47548086a72e35f5e18ceac03486b554552e02207c2f48dfd9353b864359d83f4986b06c56759ce61df47ca972f99eb63a39dce2012103c3a1c8187bdf8508434a7211a261ee86d416f5f59c65c7b2220cf054890c297800000000", "vin": [{"txinwitness": ["3045022100ac5f420356c05373b842fcb81fcd47548086a72e35f5e18ceac03486b554552e02207c2f48dfd9353b864359d83f4986b06c56759ce61df47ca972f99eb63a39dce201", "03c3a1c8187bdf8508434a7211a261ee86d416f5f59c65c7b2220cf054890c2978"], "sequence": 4294967295, "scriptSig": {"hex": "", "asm": ""}, "vout": 1, "txid": "a5baf5420024f73428aca1f6147af12d232d7d3521c6d27399653479588b6964"}], "txid": "fbec523e31b081c406194c5772980a3309cb9ac14ddd289a9994dc50f484ece0", "blocktime": 1537873282, "version": 1, "confirmations": 11484, "time": 1537873282, "locktime": 0, "vsize": 142, "size": 224}