{"hash": "fbed40642a725c9de45781f7562c8d37adffd885c8de5e816498c25c300d70a7", "blockhash": "0000000000000000001e0dab787dd257d1dbfcb92a98c2207d5e1078be1f4165", "vout": [{"scriptPubKey": {"reqSigs": 1, "hex": "76a914ac7bc33bb6f9cb0633880c70839e6d96a39347ec88ac", "addresses": ["1Gj1VB3MSPBLEJeY3Qzdmz1FzjpbrUAiVk"], "asm": "OP_DUP OP_HASH160 ac7bc33bb6f9cb0633880c70839e6d96a39347ec OP_EQUALVERIFY OP_CHECKSIG", "type": "pubkeyhash"}, "value": 0.0003736, "n": 0}, {"scriptPubKey": {"reqSigs": 1, "hex": "76a914700a194707450fa95938a9237551feccbe3caa4888ac", "addresses": ["1BDQnA9jJPa8cvY1nYBqTHuRoAqAnBYrJL"], "asm": "OP_DUP OP_HASH160 700a194707450fa95938a9237551feccbe3caa48 OP_EQUALVERIFY OP_CHECKSIG", "type": "pubkeyhash"}, "value": 0.04686907, "n": 1}], "hex": "0100000006b1871305cf0fccbcc8237a5e8a130477f2bf01c62413ee4d8c0ec84142222021000000006a47304402204281bc4c7b7af7d75f4cbb0aa06c97289a1d126ae29c92328df98f9b17b4e74c022006b253bfd0c3209f10b8f5dfa2df6b6b8828fa2c3056bbed80b1152488d4d3130121027b69116c2f266a1a0c168a7876d7ec2b551a15261938c5256b2234d03a4b8679fffffffffc00d19603b5c94e6a39a7dc7bc33d2edb9c4c4183c277656eac66e27a425423000000006b4830450221008223085190709fa5b99a5a955d3153e395786e59cb296d9650ac3858943640e80220422f0c3369904168515f43056a92e09b9a37a8ba13e5e90213c7a761d198c804012103f3446af62c84506c90301ecf20d88693c67a0ce17a3f1a37138d0d51dc2524c4ffffffff871233628368764152aa5e8436804273b22052d4bb01037e7e763c0dfbd6ef28010000006b483045022100ba8ce83434c044f02a00109e60320ee9a52a7fb21cd666b23025b2183644c94a022079228b6ce9fbab88e02e46c991cd6267f795698ae5612e0f31fb9a86d08026900121026ef7c3b832552d985ef9ded6283d8c1bc92f8a5afc4aa905ec93ab85e4b94485ffffffff09e414283a4011dfaa5f4e56dc2e00faa8c5ac39caf79c1fc3ec755a4a9fab77000000006b483045022100e2e33ff1b20cb101b37aed0ad17f121a6504177bccdbf18d4c7d2d925cabd5ea0220097d79f00db5111940a3b1a129fb95a83e342fe1849beda13c3263d65c375da8012102f6a945632b4594e9f6c6fc93d083500d28bd142d686becdc721873352ce28647ffffffffde233760949c5897036709a0e8c29629f014b5932e1b9f7326bf8fdbafe6a07c000000006a473044022044824539904c59b9486c73a39e6bbac4277ad5a6a4790278ec6121a1aad5fc0f02200d90e4ff376a605a5d6e688eebde8a70171060300566e5c9f12b1b439402756d012103f9bc1a9feffc466360ba43c69ab546a6e3fd36d2d4ace076821b7ac0d50a9448ffffffffc925456b711928c8bc066d2641c062a71cf69d916e29fa9b94c7a1330c0595a2000000006a47304402203c3d6ad8bbd8d4c7192fa880fe9014d8f7300c116d10fe4181446dd2b2446cf1022063525363ac9c02e92950fa1193293c0d7a8bbc3ed67cac693b1cbedde20bdc38012102cb7a4c36c64be4b2497401d9c318335144ed1d2bdf362b85cb99714b6ee3d108ffffffff02f0910000000000001976a914ac7bc33bb6f9cb0633880c70839e6d96a39347ec88ac3b844700000000001976a914700a194707450fa95938a9237551feccbe3caa4888ac00000000", "vin": [{"sequence": 4294967295, "scriptSig": {"hex": "47304402204281bc4c7b7af7d75f4cbb0aa06c97289a1d126ae29c92328df98f9b17b4e74c022006b253bfd0c3209f10b8f5dfa2df6b6b8828fa2c3056bbed80b1152488d4d3130121027b69116c2f266a1a0c168a7876d7ec2b551a15261938c5256b2234d03a4b8679", "asm": "304402204281bc4c7b7af7d75f4cbb0aa06c97289a1d126ae29c92328df98f9b17b4e74c022006b253bfd0c3209f10b8f5dfa2df6b6b8828fa2c3056bbed80b1152488d4d313[ALL] 027b69116c2f266a1a0c168a7876d7ec2b551a15261938c5256b2234d03a4b8679"}, "vout": 0, "txid": "2120224241c80e8c4dee1324c601bff27704138a5e7a23c8bccc0fcf051387b1"}, {"sequence": 4294967295, "scriptSig": {"hex": "4830450221008223085190709fa5b99a5a955d3153e395786e59cb296d9650ac3858943640e80220422f0c3369904168515f43056a92e09b9a37a8ba13e5e90213c7a761d198c804012103f3446af62c84506c90301ecf20d88693c67a0ce17a3f1a37138d0d51dc2524c4", "asm": "30450221008223085190709fa5b99a5a955d3153e395786e59cb296d9650ac3858943640e80220422f0c3369904168515f43056a92e09b9a37a8ba13e5e90213c7a761d198c804[ALL] 03f3446af62c84506c90301ecf20d88693c67a0ce17a3f1a37138d0d51dc2524c4"}, "vout": 0, "txid": "2354427ae266ac6e6577c283414c9cdb2e3dc37bdca7396a4ec9b50396d100fc"}, {"sequence": 4294967295, "scriptSig": {"hex": "483045022100ba8ce83434c044f02a00109e60320ee9a52a7fb21cd666b23025b2183644c94a022079228b6ce9fbab88e02e46c991cd6267f795698ae5612e0f31fb9a86d08026900121026ef7c3b832552d985ef9ded6283d8c1bc92f8a5afc4aa905ec93ab85e4b94485", "asm": "3045022100ba8ce83434c044f02a00109e60320ee9a52a7fb21cd666b23025b2183644c94a022079228b6ce9fbab88e02e46c991cd6267f795698ae5612e0f31fb9a86d0802690[ALL] 026ef7c3b832552d985ef9ded6283d8c1bc92f8a5afc4aa905ec93ab85e4b94485"}, "vout": 1, "txid": "28efd6fb0d3c767e7e0301bbd45220b273428036845eaa524176688362331287"}, {"sequence": 4294967295, "scriptSig": {"hex": "483045022100e2e33ff1b20cb101b37aed0ad17f121a6504177bccdbf18d4c7d2d925cabd5ea0220097d79f00db5111940a3b1a129fb95a83e342fe1849beda13c3263d65c375da8012102f6a945632b4594e9f6c6fc93d083500d28bd142d686becdc721873352ce28647", "asm": "3045022100e2e33ff1b20cb101b37aed0ad17f121a6504177bccdbf18d4c7d2d925cabd5ea0220097d79f00db5111940a3b1a129fb95a83e342fe1849beda13c3263d65c375da8[ALL] 02f6a945632b4594e9f6c6fc93d083500d28bd142d686becdc721873352ce28647"}, "vout": 0, "txid": "77ab9f4a5a75ecc31f9cf7ca39acc5a8fa002edc564e5faadf11403a2814e409"}, {"sequence": 4294967295, "scriptSig": {"hex": "473044022044824539904c59b9486c73a39e6bbac4277ad5a6a4790278ec6121a1aad5fc0f02200d90e4ff376a605a5d6e688eebde8a70171060300566e5c9f12b1b439402756d012103f9bc1a9feffc466360ba43c69ab546a6e3fd36d2d4ace076821b7ac0d50a9448", "asm": "3044022044824539904c59b9486c73a39e6bbac4277ad5a6a4790278ec6121a1aad5fc0f02200d90e4ff376a605a5d6e688eebde8a70171060300566e5c9f12b1b439402756d[ALL] 03f9bc1a9feffc466360ba43c69ab546a6e3fd36d2d4ace076821b7ac0d50a9448"}, "vout": 0, "txid": "7ca0e6afdb8fbf26739f1b2e93b514f02996c2e8a009670397589c94603723de"}, {"sequence": 4294967295, "scriptSig": {"hex": "47304402203c3d6ad8bbd8d4c7192fa880fe9014d8f7300c116d10fe4181446dd2b2446cf1022063525363ac9c02e92950fa1193293c0d7a8bbc3ed67cac693b1cbedde20bdc38012102cb7a4c36c64be4b2497401d9c318335144ed1d2bdf362b85cb99714b6ee3d108", "asm": "304402203c3d6ad8bbd8d4c7192fa880fe9014d8f7300c116d10fe4181446dd2b2446cf1022063525363ac9c02e92950fa1193293c0d7a8bbc3ed67cac693b1cbedde20bdc38[ALL] 02cb7a4c36c64be4b2497401d9c318335144ed1d2bdf362b85cb99714b6ee3d108"}, "vout": 0, "txid": "a295050c33a1c7949bfa296e919df61ca762c041266d06bcc82819716b4525c9"}], "txid": "fbed40642a725c9de45781f7562c8d37adffd885c8de5e816498c25c300d70a7", "blocktime": 1537872475, "version": 1, "confirmations": 11487, "time": 1537872475, "locktime": 0, "vsize": 963, "size": 963}