{"hash": "fbefce78ceb2bd613401cf58c74c47253101214bf70dc127635f6689e32d3a30", "blockhash": "00000000000000000004ffacab907a6b429b9a5745fa0b75af4234bf69dd7176", "vout": [{"scriptPubKey": {"reqSigs": 1, "hex": "76a91454796250a6f54cddbabeb0cff6b0a2b5635c4a3088ac", "addresses": ["18hfB2Ss9YiLDrm7i2t3wwHoXekUW4EBu8"], "asm": "OP_DUP OP_HASH160 54796250a6f54cddbabeb0cff6b0a2b5635c4a30 OP_EQUALVERIFY OP_CHECKSIG", "type": "pubkeyhash"}, "value": 0.0001, "n": 0}, {"scriptPubKey": {"reqSigs": 1, "hex": "76a914476cb347972082d3be14e4b11a86546a5de0bd3e88ac", "addresses": ["17WfCFVwpxVaVrgwX9HHiHxduaDyLqkdD4"], "asm": "OP_DUP OP_HASH160 476cb347972082d3be14e4b11a86546a5de0bd3e OP_EQUALVERIFY OP_CHECKSIG", "type": "pubkeyhash"}, "value": 0.01036743, "n": 1}], "hex": "0100000001014f393e066e5e65ac30e3f76ab68f829de3e6dd35337272ff7e6e2a572ba2e2010000006a47304402207fb0bd8f05094616ad9ac189dbfdef551e469cb0a2278ee472a84c046dd4145002200bd1c00dc10e4cf31733be9dad66a825e5c893d165d4dbfca530e3a024c75d050121036643ff6ef3b0a73ab2f3adc451a6e80d89bfac0425ad709d89d9f85e023d951effffffff0210270000000000001976a91454796250a6f54cddbabeb0cff6b0a2b5635c4a3088acc7d10f00000000001976a914476cb347972082d3be14e4b11a86546a5de0bd3e88ac00000000", "vin": [{"sequence": 4294967295, "scriptSig": {"hex": "47304402207fb0bd8f05094616ad9ac189dbfdef551e469cb0a2278ee472a84c046dd4145002200bd1c00dc10e4cf31733be9dad66a825e5c893d165d4dbfca530e3a024c75d050121036643ff6ef3b0a73ab2f3adc451a6e80d89bfac0425ad709d89d9f85e023d951e", "asm": "304402207fb0bd8f05094616ad9ac189dbfdef551e469cb0a2278ee472a84c046dd4145002200bd1c00dc10e4cf31733be9dad66a825e5c893d165d4dbfca530e3a024c75d05[ALL] 036643ff6ef3b0a73ab2f3adc451a6e80d89bfac0425ad709d89d9f85e023d951e"}, "vout": 1, "txid": "e2a22b572a6e7eff72723335dde6e39d828fb66af7e330ac655e6e063e394f01"}], "txid": "fbefce78ceb2bd613401cf58c74c47253101214bf70dc127635f6689e32d3a30", "blocktime": 1537875543, "version": 1, "confirmations": 11464, "time": 1537875543, "locktime": 0, "vsize": 225, "size": 225}