{"hash": "f042df2d0d6345d9b245129a32ee22efcd166f9d9ae95a016403c98cfb818dac", "blockhash": "00000000000000000024a2167bbff67b0be802c0b01cdd79e6331c2be6459f87", "vout": [{"scriptPubKey": {"reqSigs": 1, "hex": "76a914a3d41f220d810917860886fa4c347c87a9ac8b1488ac", "addresses": ["1FwFFjiNgTaTXjCb93UQZuNSKREagMKv63"], "asm": "OP_DUP OP_HASH160 a3d41f220d810917860886fa4c347c87a9ac8b14 OP_EQUALVERIFY OP_CHECKSIG", "type": "pubkeyhash"}, "value": 0.0013846, "n": 0}, {"scriptPubKey": {"reqSigs": 1, "hex": "a91457c6a8362abc0a54a0cb113540f37b5deae7808087", "addresses": ["39h8hAjd1NUJ8RxsxUy8s7iJpSdQmf2nE4"], "asm": "OP_HASH160 57c6a8362abc0a54a0cb113540f37b5deae78080 OP_EQUAL", "type": "scripthash"}, "value": 6.44948152, "n": 1}], "hex": "0100000000010104ba284f2ea3b8d0fe0d534df50557fa7a3e3067da8d42d2bd7fffa59a60e03b01000000232200202c32d4ec4d8d644161bac085fb71020234f7b5a46562cc3274e596a720328e91ffffffff02dc1c0200000000001976a914a3d41f220d810917860886fa4c347c87a9ac8b1488acb82071260000000017a91457c6a8362abc0a54a0cb113540f37b5deae78080870400463043022045e224f135fec0d986182e33e97d5b6ec07a4a678fbccf3ae9998d4dab4f79ee021f72e8499b477cbd799a5353d4d92178f24286889ab05727f3e543c453c7429601483045022100c4729f441f9d84727215f0259e092b79d27ebdc8b81e0d75ca7a06ab4aca3fbe0220059c70dbf5103d05a605812edb4b2240504ee41b90c45f67120956708124de5b014752210226d4bd116ea31a092e259887024a992f583862c7c62ca3126479e1d95d8ab72a2102dbb50015ecf7a401cd04b4f0dfc384ded081e22c7fc7779564b26f5d0852125252ae00000000", "vin": [{"txinwitness": ["", "3043022045e224f135fec0d986182e33e97d5b6ec07a4a678fbccf3ae9998d4dab4f79ee021f72e8499b477cbd799a5353d4d92178f24286889ab05727f3e543c453c7429601", "3045022100c4729f441f9d84727215f0259e092b79d27ebdc8b81e0d75ca7a06ab4aca3fbe0220059c70dbf5103d05a605812edb4b2240504ee41b90c45f67120956708124de5b01", "52210226d4bd116ea31a092e259887024a992f583862c7c62ca3126479e1d95d8ab72a2102dbb50015ecf7a401cd04b4f0dfc384ded081e22c7fc7779564b26f5d0852125252ae"], "sequence": 4294967295, "scriptSig": {"hex": "2200202c32d4ec4d8d644161bac085fb71020234f7b5a46562cc3274e596a720328e91", "asm": "00202c32d4ec4d8d644161bac085fb71020234f7b5a46562cc3274e596a720328e91"}, "vout": 1, "txid": "3be0609aa5ff7fbdd2428dda67303e7afa5705f54d530dfed0b8a32e4f28ba04"}], "txid": "fbf2a73bd1f1ee46cb11771f015a03b780e11fa38924d801a50e3d8eb9a21e3f", "blocktime": 1537870564, "version": 1, "confirmations": 11515, "time": 1537870564, "locktime": 0, "vsize": 207, "size": 372}