{"hash": "4cfb7c06148df2e5594b0a952191193ccd985c454f5dbed98adeb188e5c423bc", "blockhash": "0000000000000000000dcc0f55137456b1a82d3642486a52398922ac4d620174", "vout": [{"scriptPubKey": {"reqSigs": 1, "hex": "76a9149e6fb7abdb6cf800feb7ddb937e64251545f92e088ac", "addresses": ["1FSjbaLjVJsLBwFPFTiYFS8cqerht6JvQP"], "asm": "OP_DUP OP_HASH160 9e6fb7abdb6cf800feb7ddb937e64251545f92e0 OP_EQUALVERIFY OP_CHECKSIG", "type": "pubkeyhash"}, "value": 0.00535, "n": 0}, {"scriptPubKey": {"reqSigs": 1, "hex": "a914627aa52932456d89054bd84f86246af3b71b93a887", "addresses": ["3Afj4stdiLG9EktGrMbm252ySonnhYaz8v"], "asm": "OP_HASH160 627aa52932456d89054bd84f86246af3b71b93a8 OP_EQUAL", "type": "scripthash"}, "value": 0.72291252, "n": 1}], "hex": "010000000001012b7e24b71089afeebea89cc69d7f17d89b8fe33042efb359050f3299c9e5e96701000000232200205fdd641234b13964b223bd85ad2a4a667ca2099df3d42a1d3b45706a8d81abf0ffffffff02d8290800000000001976a9149e6fb7abdb6cf800feb7ddb937e64251545f92e088acb4134f040000000017a914627aa52932456d89054bd84f86246af3b71b93a8870400473044022041e273d71df8b53676e24d15ae20d274137af93b5194d9b535bd76c5ac27cb7d022005f4af21a432fce76a837a8f848dadc557c4adf46467e9f28d61f8bf92902da901483045022100c219515f6f1e2ea923e85e33bf3031648f63a5b1fc98fcf895dd33fa82bdf3c9022026bcead65df7d544b396af27428e47e1f172bd4af1cdb235c593958e7158d25c0147522103dcde3832fa56def7b4e783faad1b8af85c3cdd74a5ff4f3c7c216b1075c18da12103c70ae8ded79be1afda73b9ce5ea14a3878908ee160d66a9a717e792bb6db276952ae00000000", "vin": [{"txinwitness": ["", "3044022041e273d71df8b53676e24d15ae20d274137af93b5194d9b535bd76c5ac27cb7d022005f4af21a432fce76a837a8f848dadc557c4adf46467e9f28d61f8bf92902da901", "3045022100c219515f6f1e2ea923e85e33bf3031648f63a5b1fc98fcf895dd33fa82bdf3c9022026bcead65df7d544b396af27428e47e1f172bd4af1cdb235c593958e7158d25c01", "522103dcde3832fa56def7b4e783faad1b8af85c3cdd74a5ff4f3c7c216b1075c18da12103c70ae8ded79be1afda73b9ce5ea14a3878908ee160d66a9a717e792bb6db276952ae"], "sequence": 4294967295, "scriptSig": {"hex": "2200205fdd641234b13964b223bd85ad2a4a667ca2099df3d42a1d3b45706a8d81abf0", "asm": "00205fdd641234b13964b223bd85ad2a4a667ca2099df3d42a1d3b45706a8d81abf0"}, "vout": 1, "txid": "67e9e5c999320f0559b3ef4230e38f9bd8177f9dc69ca8beeeaf8910b7247e2b"}], "txid": "fbf6e520f8ec953d9baa831b566541ad3dadb76769f85c611ecd03d557e91a32", "blocktime": 1537870268, "version": 1, "confirmations": 11518, "time": 1537870268, "locktime": 0, "vsize": 208, "size": 373}