{"hash": "50c45d1582b0d16ba44c9d0de3d2e398e2f8d32283e783b71a94f6a6a1ac7e2f", "blockhash": "00000000000000000017f5eb5941039fbcee6240d03bc1f2f8e35350df66a1d8", "vout": [{"scriptPubKey": {"reqSigs": 1, "hex": "76a914b1c0b391d5a8f01532b5f1ff48ad78700791cc6688ac", "addresses": ["1HCsT5w5aTJtjg5t7K22TsGvGk4KyeGzUP"], "asm": "OP_DUP OP_HASH160 b1c0b391d5a8f01532b5f1ff48ad78700791cc66 OP_EQUALVERIFY OP_CHECKSIG", "type": "pubkeyhash"}, "value": 0.18434089, "n": 0}, {"scriptPubKey": {"reqSigs": 1, "hex": "0014046015fc49ea5e5f5c888b4b1697d84933a51874", "addresses": ["bc1qq3sptlzfaf097hyg3d93d97cfye62xr5tyq8q3"], "asm": "0 046015fc49ea5e5f5c888b4b1697d84933a51874", "type": "witness_v0_keyhash"}, "value": 0.01444408, "n": 1}], "hex": "0100000000010158ffea97e45089eba560e27cf3196a106c656a9877fd5ba57e4253dfbd9585580000000017160014179c67d36af074718a4c74d85e229e9041a4f86bffffffff0229481901000000001976a914b1c0b391d5a8f01532b5f1ff48ad78700791cc6688ac380a160000000000160014046015fc49ea5e5f5c888b4b1697d84933a518740247304402203285e33273540b902740ad3469087489bcc8167f0df2913affaa11bc31c8b4bb022001fb422874713d2360e8828cd0209552344e3e2c5822cf8ace1f0e3c9af2d3ad012103fb20881b3f3cee48b7412039f3ac8962061810f7114099a422e91f8af2fe51d200000000", "vin": [{"txinwitness": ["304402203285e33273540b902740ad3469087489bcc8167f0df2913affaa11bc31c8b4bb022001fb422874713d2360e8828cd0209552344e3e2c5822cf8ace1f0e3c9af2d3ad01", "03fb20881b3f3cee48b7412039f3ac8962061810f7114099a422e91f8af2fe51d2"], "sequence": 4294967295, "scriptSig": {"hex": "160014179c67d36af074718a4c74d85e229e9041a4f86b", "asm": "0014179c67d36af074718a4c74d85e229e9041a4f86b"}, "vout": 0, "txid": "588595bddf53427ea55bfd77986a656c106a19f37ce260a5eb8950e497eaff58"}], "txid": "fbfe51fff0ef8572e37142c1c08bcb64fee0593d982245e6035774dd63cae238", "blocktime": 1537874412, "version": 1, "confirmations": 11468, "time": 1537874412, "locktime": 0, "vsize": 167, "size": 248}