{"hash": "fbff2caf6c554960010103b121a15034c6f8d7af7f2f9815e8b17344e8d984c3", "blockhash": "0000000000000000001f76057863aec43deb6fa401d9628bb513d65a8098bfab", "vout": [{"scriptPubKey": {"reqSigs": 1, "hex": "a91411dd7da1e383a9f4dea3285de92ba0f84f94367487", "addresses": ["33KUkFaFDqtLxj1d98BgucjmPwaz6k5fPE"], "asm": "OP_HASH160 11dd7da1e383a9f4dea3285de92ba0f84f943674 OP_EQUAL", "type": "scripthash"}, "value": 0.0027786, "n": 0}, {"scriptPubKey": {"reqSigs": 1, "hex": "76a9145d0103a38494b98c285cc5f079e3f32b125b96ec88ac", "addresses": ["19Um4Jvck21CBqCSZnSDA92BezunjbYm4b"], "asm": "OP_DUP OP_HASH160 5d0103a38494b98c285cc5f079e3f32b125b96ec OP_EQUALVERIFY OP_CHECKSIG", "type": "pubkeyhash"}, "value": 0.05199281, "n": 1}], "hex": "0100000001f9eb4f1bfd0c247ae87b17cad4deac7448ca9c8351f6aa03e822120d66941d80010000006a47304402200e0341dd08388959544b98877f8e3e68307ef1a7f2cc604611ea33e0c234465f022030d61ff135d71e2d1e4e3ac1e28004a0b5b8c153b61b7d03e51a678af29a505601210315f7fa6bc6f9292569f8b4216c715a4058dc31fb2dc7ce73a216dd0260b9c8c9ffffffff02643d04000000000017a91411dd7da1e383a9f4dea3285de92ba0f84f94367487b1554f00000000001976a9145d0103a38494b98c285cc5f079e3f32b125b96ec88ac00000000", "vin": [{"sequence": 4294967295, "scriptSig": {"hex": "47304402200e0341dd08388959544b98877f8e3e68307ef1a7f2cc604611ea33e0c234465f022030d61ff135d71e2d1e4e3ac1e28004a0b5b8c153b61b7d03e51a678af29a505601210315f7fa6bc6f9292569f8b4216c715a4058dc31fb2dc7ce73a216dd0260b9c8c9", "asm": "304402200e0341dd08388959544b98877f8e3e68307ef1a7f2cc604611ea33e0c234465f022030d61ff135d71e2d1e4e3ac1e28004a0b5b8c153b61b7d03e51a678af29a5056[ALL] 0315f7fa6bc6f9292569f8b4216c715a4058dc31fb2dc7ce73a216dd0260b9c8c9"}, "vout": 1, "txid": "801d94660d1222e803aaf651839cca4874acded4ca177be87a240cfd1b4febf9"}], "txid": "fbff2caf6c554960010103b121a15034c6f8d7af7f2f9815e8b17344e8d984c3", "blocktime": 1537873891, "version": 1, "confirmations": 11475, "time": 1537873891, "locktime": 0, "vsize": 223, "size": 223}