{"hash": "fbff1557c9e0f7322ee4f0a74235b1b73e49488966fb784b074355629521175b", "blockhash": "0000000000000000001e0dab787dd257d1dbfcb92a98c2207d5e1078be1f4165", "vout": [{"scriptPubKey": {"reqSigs": 1, "hex": "76a914992e2ff0f30a1ecf37b9f223c11ff561e75f92c288ac", "addresses": ["1ExwiVso4dAKQRx9nNjXW2vFNymRVmoLjR"], "asm": "OP_DUP OP_HASH160 992e2ff0f30a1ecf37b9f223c11ff561e75f92c2 OP_EQUALVERIFY OP_CHECKSIG", "type": "pubkeyhash"}, "value": 0.00171869, "n": 0}, {"scriptPubKey": {"reqSigs": 1, "hex": "76a9147598f09595c44ce5a6f6df2b39db2f8ab27629e188ac", "addresses": ["1BioGtRKekV1oAyr1YZonfVFb5ZsKhG6aT"], "asm": "OP_DUP OP_HASH160 7598f09595c44ce5a6f6df2b39db2f8ab27629e1 OP_EQUALVERIFY OP_CHECKSIG", "type": "pubkeyhash"}, "value": 0.15128682, "n": 1}], "hex": "0100000001afb04a008d293b9a1c6c42068f6054a3ff8a145c99799c9f47e2914cde3b10cd010000006b483045022100bb9babf602f66e917676e2276fcc51889b17acd998cb9ca767b3ed78e97a65c9022032b2f5514aa0d444d4e0c39d8fdb7d6d1e078ea2ffc20fdd36cf4fd54902ed34012102efb9915e49beedca1930c02534d49e6dfc60515a9a63e41716fe2557e78e828dffffffff025d9f0200000000001976a914992e2ff0f30a1ecf37b9f223c11ff561e75f92c288ac6ad8e600000000001976a9147598f09595c44ce5a6f6df2b39db2f8ab27629e188ac00000000", "vin": [{"sequence": 4294967295, "scriptSig": {"hex": "483045022100bb9babf602f66e917676e2276fcc51889b17acd998cb9ca767b3ed78e97a65c9022032b2f5514aa0d444d4e0c39d8fdb7d6d1e078ea2ffc20fdd36cf4fd54902ed34012102efb9915e49beedca1930c02534d49e6dfc60515a9a63e41716fe2557e78e828d", "asm": "3045022100bb9babf602f66e917676e2276fcc51889b17acd998cb9ca767b3ed78e97a65c9022032b2f5514aa0d444d4e0c39d8fdb7d6d1e078ea2ffc20fdd36cf4fd54902ed34[ALL] 02efb9915e49beedca1930c02534d49e6dfc60515a9a63e41716fe2557e78e828d"}, "vout": 1, "txid": "cd103bde4c91e2479f9c79995c148affa354608f06426c1c9a3b298d004ab0af"}], "txid": "fbff1557c9e0f7322ee4f0a74235b1b73e49488966fb784b074355629521175b", "blocktime": 1537872475, "version": 1, "confirmations": 11487, "time": 1537872475, "locktime": 0, "vsize": 226, "size": 226}