{"hash": "fc05be51a5b1686bb9100d9b76ccc11da0e9354c31b22428fa9493d79c55af75", "blockhash": "000000000000000000022b45ed06c6f4ccd3cf7fb5ba4856ebd2e58215665228", "vout": [{"scriptPubKey": {"reqSigs": 1, "hex": "76a91450db918bd16c992cfd69459a914f8cfba785e5e588ac", "addresses": ["18NY6EgzVbBUV74cYXFUmyFQj17xrTngSa"], "asm": "OP_DUP OP_HASH160 50db918bd16c992cfd69459a914f8cfba785e5e5 OP_EQUALVERIFY OP_CHECKSIG", "type": "pubkeyhash"}, "value": 0.00649587, "n": 0}, {"scriptPubKey": {"type": "nulldata", "hex": "6a4c500000775c00010f99ba3cf20259cb5014fffa3a016b46dc7dc7d0968d120d670c1906f999e00b6b3cf12aaa55f96e175ab0a415755baa06fe06128d3ff5472e161d100759d4ba30d2c37bb011d97e02cf", "asm": "OP_RETURN 0000775c00010f99ba3cf20259cb5014fffa3a016b46dc7dc7d0968d120d670c1906f999e00b6b3cf12aaa55f96e175ab0a415755baa06fe06128d3ff5472e161d100759d4ba30d2c37bb011d97e02cf"}, "value": 0.0, "n": 1}], "hex": "0100000001c8f9d54ad3c8c3eb9c234942fa7e612d231c195125d2b728462f7c8b957ea1a4010000006b48304502210096c53a2537358b1e3b5a1c3548d68e78267266fd89adb59df947a90f1c08422e02205ebc258829f19a5efd70017034555534e807565820f5b3ff3ce02aea50b834d8012102907882160898eda5843148bebbe5ccbcfb16efe9ab620642d6c2ffdbbbe913e0ffffffff0273e90900000000001976a91450db918bd16c992cfd69459a914f8cfba785e5e588ac0000000000000000536a4c500000775c00010f99ba3cf20259cb5014fffa3a016b46dc7dc7d0968d120d670c1906f999e00b6b3cf12aaa55f96e175ab0a415755baa06fe06128d3ff5472e161d100759d4ba30d2c37bb011d97e02cf00000000", "vin": [{"sequence": 4294967295, "scriptSig": {"hex": "48304502210096c53a2537358b1e3b5a1c3548d68e78267266fd89adb59df947a90f1c08422e02205ebc258829f19a5efd70017034555534e807565820f5b3ff3ce02aea50b834d8012102907882160898eda5843148bebbe5ccbcfb16efe9ab620642d6c2ffdbbbe913e0", "asm": "304502210096c53a2537358b1e3b5a1c3548d68e78267266fd89adb59df947a90f1c08422e02205ebc258829f19a5efd70017034555534e807565820f5b3ff3ce02aea50b834d8[ALL] 02907882160898eda5843148bebbe5ccbcfb16efe9ab620642d6c2ffdbbbe913e0"}, "vout": 1, "txid": "a4a17e958b7c2f4628b7d22551191c232d617efa4249239cebc3c8d34ad5f9c8"}], "txid": "fc05be51a5b1686bb9100d9b76ccc11da0e9354c31b22428fa9493d79c55af75", "blocktime": 1537869901, "version": 1, "confirmations": 11523, "time": 1537869901, "locktime": 0, "vsize": 284, "size": 284}