{"hash": "fc06af46f50dfb66f49dedcc7ed799df5307cddc6ee93ed5162c3206b844c49d", "blockhash": "00000000000000000024a2167bbff67b0be802c0b01cdd79e6331c2be6459f87", "vout": [{"scriptPubKey": {"reqSigs": 1, "hex": "76a9141508276fd4193e83f5fce7a810a40e8f983c161988ac", "addresses": ["12vCxak5xc1t6T275xbm6AJ4xsZCxkTSc5"], "asm": "OP_DUP OP_HASH160 1508276fd4193e83f5fce7a810a40e8f983c1619 OP_EQUALVERIFY OP_CHECKSIG", "type": "pubkeyhash"}, "value": 2.69547184, "n": 0}, {"scriptPubKey": {"type": "nulldata", "hex": "6a146f6d6e69000000000000001f000000b286fe6e40", "asm": "OP_RETURN 6f6d6e69000000000000001f000000b286fe6e40"}, "value": 0.0, "n": 1}, {"scriptPubKey": {"reqSigs": 1, "hex": "76a9141508276fd4193e83f5fce7a810a40e8f983c161988ac", "addresses": ["12vCxak5xc1t6T275xbm6AJ4xsZCxkTSc5"], "asm": "OP_DUP OP_HASH160 1508276fd4193e83f5fce7a810a40e8f983c1619 OP_EQUALVERIFY OP_CHECKSIG", "type": "pubkeyhash"}, "value": 5.46e-06, "n": 2}], "hex": "0100000002fb0a51a895a02ca9ddbeb563265c72bdd384ae4d08d9b90336cedc0b35f18afd010000006b48304502210087daa9017da70e8e9988d73e7ec679e0aaa8ea16c5724285fc7834c518b5002602207bc457131db383a70b385fca61d45abdd2a045b45a2e2c3b1e94bf853df3b92a012102a5a0d137c00cfecf9ec3a0ef16c9a1a5c033f9ac547871d6a1bdc03050163a9fffffffffe9e95a8ba8bfc692605592a000c924a7b0e7e353f911b354e9865052645004a7000000006a47304402206ad4b2df70b8428965d963594885a0238be212de361e81789a0a1aa08f3019bb022028e573e2eed392c3ffb332ee83a3150695cf3298645adc1b470b8abafc082bde01210322417e407c57b7db07a9d685f5e2316a1d6407877684d852d2ee08e001d272f2ffffffff03b0f61010000000001976a9141508276fd4193e83f5fce7a810a40e8f983c161988ac0000000000000000166a146f6d6e69000000000000001f000000b286fe6e4022020000000000001976a9141508276fd4193e83f5fce7a810a40e8f983c161988ac00000000", "vin": [{"sequence": 4294967295, "scriptSig": {"hex": "48304502210087daa9017da70e8e9988d73e7ec679e0aaa8ea16c5724285fc7834c518b5002602207bc457131db383a70b385fca61d45abdd2a045b45a2e2c3b1e94bf853df3b92a012102a5a0d137c00cfecf9ec3a0ef16c9a1a5c033f9ac547871d6a1bdc03050163a9f", "asm": "304502210087daa9017da70e8e9988d73e7ec679e0aaa8ea16c5724285fc7834c518b5002602207bc457131db383a70b385fca61d45abdd2a045b45a2e2c3b1e94bf853df3b92a[ALL] 02a5a0d137c00cfecf9ec3a0ef16c9a1a5c033f9ac547871d6a1bdc03050163a9f"}, "vout": 1, "txid": "fd8af1350bdcce3603b9d9084dae84d3bd725c2663b5bedda92ca095a8510afb"}, {"sequence": 4294967295, "scriptSig": {"hex": "47304402206ad4b2df70b8428965d963594885a0238be212de361e81789a0a1aa08f3019bb022028e573e2eed392c3ffb332ee83a3150695cf3298645adc1b470b8abafc082bde01210322417e407c57b7db07a9d685f5e2316a1d6407877684d852d2ee08e001d272f2", "asm": "304402206ad4b2df70b8428965d963594885a0238be212de361e81789a0a1aa08f3019bb022028e573e2eed392c3ffb332ee83a3150695cf3298645adc1b470b8abafc082bde[ALL] 0322417e407c57b7db07a9d685f5e2316a1d6407877684d852d2ee08e001d272f2"}, "vout": 0, "txid": "a7045064525086e954b311f953e3e7b0a724c900a092556092c6bfa88b5ae9e9"}], "txid": "fc06af46f50dfb66f49dedcc7ed799df5307cddc6ee93ed5162c3206b844c49d", "blocktime": 1537870564, "version": 1, "confirmations": 11515, "time": 1537870564, "locktime": 0, "vsize": 404, "size": 404}