{"hash": "fc080730eb3a626e46a8e93003930f41dbe9d532475ad3ea04a0f80d50b881c7", "blockhash": "00000000000000000004ffacab907a6b429b9a5745fa0b75af4234bf69dd7176", "vout": [{"scriptPubKey": {"reqSigs": 1, "hex": "76a914e982b7f2e4eb601673b27454b1c3effaae2c95ac88ac", "addresses": ["1NHh3BUSMmGCi9RNVYc5G6PfiSEgx3nRQ6"], "asm": "OP_DUP OP_HASH160 e982b7f2e4eb601673b27454b1c3effaae2c95ac OP_EQUALVERIFY OP_CHECKSIG", "type": "pubkeyhash"}, "value": 1.622e-05, "n": 0}, {"scriptPubKey": {"reqSigs": 1, "hex": "76a914e159d3c8ae72a87d9f53ddf53e1582c781ca6b7f88ac", "addresses": ["1MYYeUJZskYk57qhLLBzXBkZCJ8pN2cEF1"], "asm": "OP_DUP OP_HASH160 e159d3c8ae72a87d9f53ddf53e1582c781ca6b7f OP_EQUALVERIFY OP_CHECKSIG", "type": "pubkeyhash"}, "value": 0.0352, "n": 1}], "hex": "0100000002cd989f4e9543307dd58ced7320cb484dcb6b7d50825e52bcae5f6ba8c08c10f1000000006b483045022100a28acd2067cf5a39fff0a9f71f2b15a5f509452d3bb1090f7233f2564defdacf02201cd2bae39ceb18241705da51cc365e6aed2d85f5ffe52abb4dfdf886c951c61d0121025266acec9bea15c7c7c51c9901556a94e5684c2fd809179de5e1690f7b59ef17ffffffffc7961cefe39db797d7da34c9ffe6d7167766ac93fb1e4df603eb87157c6d5ff3000000006b483045022100eef4bbbdc8975e9e2df01e5109690fe9c6cb4d83a64541f137ca57c39aa3d16a022043978488a1abbb3520bef5c92ec7bedc9e7820f24f9910b68033df18c11f06850121026aeaddeb3a75574ec0ab475dca55d0a2e15d6248fdf94a2e8ccd02a5a6baec89ffffffff0256060000000000001976a914e982b7f2e4eb601673b27454b1c3effaae2c95ac88ac00b63500000000001976a914e159d3c8ae72a87d9f53ddf53e1582c781ca6b7f88ac00000000", "vin": [{"sequence": 4294967295, "scriptSig": {"hex": "483045022100a28acd2067cf5a39fff0a9f71f2b15a5f509452d3bb1090f7233f2564defdacf02201cd2bae39ceb18241705da51cc365e6aed2d85f5ffe52abb4dfdf886c951c61d0121025266acec9bea15c7c7c51c9901556a94e5684c2fd809179de5e1690f7b59ef17", "asm": "3045022100a28acd2067cf5a39fff0a9f71f2b15a5f509452d3bb1090f7233f2564defdacf02201cd2bae39ceb18241705da51cc365e6aed2d85f5ffe52abb4dfdf886c951c61d[ALL] 025266acec9bea15c7c7c51c9901556a94e5684c2fd809179de5e1690f7b59ef17"}, "vout": 0, "txid": "f1108cc0a86b5faebc525e82507d6bcb4d48cb2073ed8cd57d3043954e9f98cd"}, {"sequence": 4294967295, "scriptSig": {"hex": "483045022100eef4bbbdc8975e9e2df01e5109690fe9c6cb4d83a64541f137ca57c39aa3d16a022043978488a1abbb3520bef5c92ec7bedc9e7820f24f9910b68033df18c11f06850121026aeaddeb3a75574ec0ab475dca55d0a2e15d6248fdf94a2e8ccd02a5a6baec89", "asm": "3045022100eef4bbbdc8975e9e2df01e5109690fe9c6cb4d83a64541f137ca57c39aa3d16a022043978488a1abbb3520bef5c92ec7bedc9e7820f24f9910b68033df18c11f0685[ALL] 026aeaddeb3a75574ec0ab475dca55d0a2e15d6248fdf94a2e8ccd02a5a6baec89"}, "vout": 0, "txid": "f35f6d7c1587eb03f64d1efb93ac667716d7e6ffc934dad797b79de3ef1c96c7"}], "txid": "fc080730eb3a626e46a8e93003930f41dbe9d532475ad3ea04a0f80d50b881c7", "blocktime": 1537875543, "version": 1, "confirmations": 11464, "time": 1537875543, "locktime": 0, "vsize": 374, "size": 374}