{"hash": "450b2959424357278ebbaa9649aa8ce0c05748500fa908371557fc07c7b87ba5", "blockhash": "00000000000000000018f53835495a110e01622372bf6ae95dc86f2b0ab887b0", "vout": [{"scriptPubKey": {"reqSigs": 1, "hex": "0014b35c5b04134d7073a692e1512e7b8b9f8662704b", "addresses": ["bc1qkdw9kpqnf4c88f5ju9gju7utn7rxyuztscm6ek"], "asm": "0 b35c5b04134d7073a692e1512e7b8b9f8662704b", "type": "witness_v0_keyhash"}, "value": 5.856e-05, "n": 0}, {"scriptPubKey": {"reqSigs": 1, "hex": "76a9140badcce1ea9ff4a4a6573a76798f1cebd14945a088ac", "addresses": ["124kdyA7VxBJEX6Pu7JXeMUm3NCdP5DyM2"], "asm": "OP_DUP OP_HASH160 0badcce1ea9ff4a4a6573a76798f1cebd14945a0 OP_EQUALVERIFY OP_CHECKSIG", "type": "pubkeyhash"}, "value": 0.00366, "n": 1}], "hex": "010000000001014fcf7bd2f569a593734a2ea3819b4c8e80f9e2515503adde8bff7728a45370313000000017160014a234a063513c2dec50581f31b87fd2527ceb2247ffffffff02e016000000000000160014b35c5b04134d7073a692e1512e7b8b9f8662704bb0950500000000001976a9140badcce1ea9ff4a4a6573a76798f1cebd14945a088ac0247304402201955f87c3c18ab66ad2536c1c314632f8ac687e2025ae6931fdd470d52bad15102202aa27ac9ca295ad685f44934d8db6b517044457512781f06c82d058d73504e810121022cb03dbaa886882c88bccea7276cbbd2e7a2d874a2330cc872bd3db5eda4e67300000000", "vin": [{"txinwitness": ["304402201955f87c3c18ab66ad2536c1c314632f8ac687e2025ae6931fdd470d52bad15102202aa27ac9ca295ad685f44934d8db6b517044457512781f06c82d058d73504e8101", "022cb03dbaa886882c88bccea7276cbbd2e7a2d874a2330cc872bd3db5eda4e673"], "sequence": 4294967295, "scriptSig": {"hex": "160014a234a063513c2dec50581f31b87fd2527ceb2247", "asm": "0014a234a063513c2dec50581f31b87fd2527ceb2247"}, "vout": 48, "txid": "317053a42877ff8bdead035551e2f9808e4c9b81a32e4a7393a569f5d27bcf4f"}], "txid": "fc0bd2accf66b05aaaea479648fda02fb3705a179a2d6864c431a0396f3b2cb1", "blocktime": 1537870928, "version": 1, "confirmations": 11514, "time": 1537870928, "locktime": 0, "vsize": 167, "size": 248}