{"hash": "fc0c5e3bbaa675672ac7bdb4cfb25caccb2dcb96006109635dbacb7460874519", "blockhash": "00000000000000000024a2167bbff67b0be802c0b01cdd79e6331c2be6459f87", "vout": [{"scriptPubKey": {"reqSigs": 1, "hex": "76a9140acddd8129ebc3ee28b7ee18753db20b1340453088ac", "addresses": ["1z8NgqLrQay2LPgMFftRaWE9mH2pSRC5G"], "asm": "OP_DUP OP_HASH160 0acddd8129ebc3ee28b7ee18753db20b13404530 OP_EQUALVERIFY OP_CHECKSIG", "type": "pubkeyhash"}, "value": 0.00299427, "n": 0}, {"scriptPubKey": {"reqSigs": 1, "hex": "76a9142bd87dc8a0d4ac58c72bb158b990a967403b5d3088ac", "addresses": ["14zqQLC8xPneu4bM5kk1UmKAuMfiakrzB1"], "asm": "OP_DUP OP_HASH160 2bd87dc8a0d4ac58c72bb158b990a967403b5d30 OP_EQUALVERIFY OP_CHECKSIG", "type": "pubkeyhash"}, "value": 0.003, "n": 1}], "hex": "010000000194b0286c11aaefc14922b20a522124ede1e81597cc9aad4cf4d3f8ad5b914396000000006a47304402201ac54b75f69fd161d2d0f6bef51d6518194ccdf17444e1a98e2bf1a5396684d0022045cbf7992a6630ddeb76d9acf1029d4fd7584376dd66c2861dc4af01a9763f810121035dd978f5b616c599201541755ddaf12bda3274c898e39e1094ec9ccdc0652310ffffffff02a3910400000000001976a9140acddd8129ebc3ee28b7ee18753db20b1340453088ace0930400000000001976a9142bd87dc8a0d4ac58c72bb158b990a967403b5d3088ac00000000", "vin": [{"sequence": 4294967295, "scriptSig": {"hex": "47304402201ac54b75f69fd161d2d0f6bef51d6518194ccdf17444e1a98e2bf1a5396684d0022045cbf7992a6630ddeb76d9acf1029d4fd7584376dd66c2861dc4af01a9763f810121035dd978f5b616c599201541755ddaf12bda3274c898e39e1094ec9ccdc0652310", "asm": "304402201ac54b75f69fd161d2d0f6bef51d6518194ccdf17444e1a98e2bf1a5396684d0022045cbf7992a6630ddeb76d9acf1029d4fd7584376dd66c2861dc4af01a9763f81[ALL] 035dd978f5b616c599201541755ddaf12bda3274c898e39e1094ec9ccdc0652310"}, "vout": 0, "txid": "9643915badf8d3f44cad9acc9715e8e1ed2421520ab22249c1efaa116c28b094"}], "txid": "fc0c5e3bbaa675672ac7bdb4cfb25caccb2dcb96006109635dbacb7460874519", "blocktime": 1537870564, "version": 1, "confirmations": 11515, "time": 1537870564, "locktime": 0, "vsize": 225, "size": 225}