{"hash": "90cd6d8936b456c6c277a722554559f4897ba905a90ae799901cbe8abca11cb6", "blockhash": "0000000000000000000e13cef7c366c0283d82e591d1acd082e914b08063cdf1", "vout": [{"scriptPubKey": {"reqSigs": 1, "hex": "a914e0d13801543832f10aa7040abb20e9c67e3435b387", "addresses": ["3NBjvHhgqsA4KnuYcvqL2o9b3qm6Rjq514"], "asm": "OP_HASH160 e0d13801543832f10aa7040abb20e9c67e3435b3 OP_EQUAL", "type": "scripthash"}, "value": 0.28781709, "n": 0}, {"scriptPubKey": {"reqSigs": 1, "hex": "a914f8733cb32844fb9c9aaff12d140e0749586a324e87", "addresses": ["3QLhYw2nMZmD6sueednVhUCMwZor3Prioy"], "asm": "OP_HASH160 f8733cb32844fb9c9aaff12d140e0749586a324e OP_EQUAL", "type": "scripthash"}, "value": 0.01315917, "n": 1}], "hex": "01000000000101418149b5ed68fcf313c1aafe96473bdd6592cd3bb278236dcba3d06c77a63f070000000023220020c4543a59c973c9e8bd62021c0efad2a71c2e7457a42b49ff6e0c12c1538a0b75ffffffff028d2cb7010000000017a914e0d13801543832f10aa7040abb20e9c67e3435b3874d1414000000000017a914f8733cb32844fb9c9aaff12d140e0749586a324e8704004830450221009a0bb262458803c5e45d8ecb946127e8a057130c9d0c74ff91c489bb714fc43f02201d94a8413856b5c6ec56d5fd62592a94be481f5d456e3ccb675a15f7915b1b4601483045022100a38b9ad0dc558e9709605bd0a847954e66302e12ee20e7ab6a905ad22573677e022077af271cf6aa5df2186ac568cafd796bc4c7cde26062a2304879259f0a7d6c52016952210240ea74581e920004a445f33cfd85d5e9802447e7715cfcd657f9b023a33e9ff221036fbfaf4687595a37a153a42f1d6df4b78dbf93032980008eae0b014dc34f214821024d988530fa12317c5dd466572d91ba6c5677e5799150a13033a16ee28a5ec57553ae00000000", "vin": [{"txinwitness": ["", "30450221009a0bb262458803c5e45d8ecb946127e8a057130c9d0c74ff91c489bb714fc43f02201d94a8413856b5c6ec56d5fd62592a94be481f5d456e3ccb675a15f7915b1b4601", "3045022100a38b9ad0dc558e9709605bd0a847954e66302e12ee20e7ab6a905ad22573677e022077af271cf6aa5df2186ac568cafd796bc4c7cde26062a2304879259f0a7d6c5201", "52210240ea74581e920004a445f33cfd85d5e9802447e7715cfcd657f9b023a33e9ff221036fbfaf4687595a37a153a42f1d6df4b78dbf93032980008eae0b014dc34f214821024d988530fa12317c5dd466572d91ba6c5677e5799150a13033a16ee28a5ec57553ae"], "sequence": 4294967295, "scriptSig": {"hex": "220020c4543a59c973c9e8bd62021c0efad2a71c2e7457a42b49ff6e0c12c1538a0b75", "asm": "0020c4543a59c973c9e8bd62021c0efad2a71c2e7457a42b49ff6e0c12c1538a0b75"}, "vout": 0, "txid": "073fa6776cd0a3cb6d2378b23bcd9265dd3b4796feaac113f3fc68edb5498141"}], "txid": "fc0dfa1349640376d194cd17c2c5bb568b9428165a9c15bbb10d8bf0f9803966", "blocktime": 1537871767, "version": 1, "confirmations": 11494, "time": 1537871767, "locktime": 0, "vsize": 214, "size": 406}