{"hash": "fc0eb74e72c187106e87bbd505d19f8174fb0cc2f67c7e96f5f423e8f8ac9805", "blockhash": "000000000000000000022b45ed06c6f4ccd3cf7fb5ba4856ebd2e58215665228", "vout": [{"scriptPubKey": {"reqSigs": 1, "hex": "76a9140a6b825daa1b89f8e100ed8eec6d79b592500f4988ac", "addresses": ["1x6YnuBVeeE65dQRZztRWgUPwyBjHCA5g"], "asm": "OP_DUP OP_HASH160 0a6b825daa1b89f8e100ed8eec6d79b592500f49 OP_EQUALVERIFY OP_CHECKSIG", "type": "pubkeyhash"}, "value": 0.44843436, "n": 0}, {"scriptPubKey": {"reqSigs": 1, "hex": "76a914aa50ff29641a6904bf9fe6aa797fcba0813cc89688ac", "addresses": ["1GXYuN1ofrEhighr3Q5K6hg9R1QS7aHdxs"], "asm": "OP_DUP OP_HASH160 aa50ff29641a6904bf9fe6aa797fcba0813cc896 OP_EQUALVERIFY OP_CHECKSIG", "type": "pubkeyhash"}, "value": 5.46e-06, "n": 1}, {"scriptPubKey": {"type": "nulldata", "hex": "6a146f6d6e69000000000000001f00000000d6fcc610", "asm": "OP_RETURN 6f6d6e69000000000000001f00000000d6fcc610"}, "value": 0.0, "n": 2}], "hex": "0100000001dcd5112ece524d24befe4db9b78038917e886442c2f87c84dcbd7c8dc5a1dc14010000006b483045022100cf73b5c0c76f39830efa95053e7deee90020c00fe9bc878fd0e5f22e91b27a1d022023ced41babe89cf8bb4c18242e7eb66847fd27b70512a5c3c925107e24d111f2012103fe02b06a6bfd9b5a83e0417430a3235a39a0b4c7973591ca27ac58f6474d9120ffffffff03ac41ac02000000001976a9140a6b825daa1b89f8e100ed8eec6d79b592500f4988ac22020000000000001976a914aa50ff29641a6904bf9fe6aa797fcba0813cc89688ac0000000000000000166a146f6d6e69000000000000001f00000000d6fcc61000000000", "vin": [{"sequence": 4294967295, "scriptSig": {"hex": "483045022100cf73b5c0c76f39830efa95053e7deee90020c00fe9bc878fd0e5f22e91b27a1d022023ced41babe89cf8bb4c18242e7eb66847fd27b70512a5c3c925107e24d111f2012103fe02b06a6bfd9b5a83e0417430a3235a39a0b4c7973591ca27ac58f6474d9120", "asm": "3045022100cf73b5c0c76f39830efa95053e7deee90020c00fe9bc878fd0e5f22e91b27a1d022023ced41babe89cf8bb4c18242e7eb66847fd27b70512a5c3c925107e24d111f2[ALL] 03fe02b06a6bfd9b5a83e0417430a3235a39a0b4c7973591ca27ac58f6474d9120"}, "vout": 1, "txid": "14dca1c58d7cbddc847cf8c24264887e913880b7b94dfebe244d52ce2e11d5dc"}], "txid": "fc0eb74e72c187106e87bbd505d19f8174fb0cc2f67c7e96f5f423e8f8ac9805", "blocktime": 1537869901, "version": 1, "confirmations": 11522, "time": 1537869901, "locktime": 0, "vsize": 257, "size": 257}