{"hash": "fc0fcac42a3efcf49d3f5ef6e3cc94d3446c95d00bb462987c93d2cb0945d926", "blockhash": "0000000000000000001cda96e906b7601b7a6fb1a3b62bca570a9e5d8f4b3de1", "vout": [{"scriptPubKey": {"reqSigs": 1, "hex": "76a914f6ad95857f262c1d077fafa5d8e35a75edfc9d0c88ac", "addresses": ["1PVKB2KekyD6RrQDjos9DNjTekRwmF6fHQ"], "asm": "OP_DUP OP_HASH160 f6ad95857f262c1d077fafa5d8e35a75edfc9d0c OP_EQUALVERIFY OP_CHECKSIG", "type": "pubkeyhash"}, "value": 1.75362069, "n": 0}, {"scriptPubKey": {"reqSigs": 1, "hex": "76a914570d357e2660d32cc1735f26b338749002a9171c88ac", "addresses": ["18wHcTtahoRVdLsRFSaEUwWXLctCVFdo1J"], "asm": "OP_DUP OP_HASH160 570d357e2660d32cc1735f26b338749002a9171c OP_EQUALVERIFY OP_CHECKSIG", "type": "pubkeyhash"}, "value": 0.01218328, "n": 1}], "hex": "020000000114609df66b9c420e9aa5f6a33934db07dccd81e8a1ea3da2690772686d419537010000006b483045022100a234a0206148099cc7c3feb80508dc309cc2edad7e6d5e74be18b7500e7ebebf0220327ac9b5ecb3426be35e15124ea21e17cb1463465fc576217c77fffe40a291d40121028a8a92233c4af2e788e31bdfaf329301ea54a6c85915f8c16e143c0e5e527a8cfeffffff0215d0730a000000001976a914f6ad95857f262c1d077fafa5d8e35a75edfc9d0c88ac18971200000000001976a914570d357e2660d32cc1735f26b338749002a9171c88ac12490800", "vin": [{"sequence": 4294967294, "scriptSig": {"hex": "483045022100a234a0206148099cc7c3feb80508dc309cc2edad7e6d5e74be18b7500e7ebebf0220327ac9b5ecb3426be35e15124ea21e17cb1463465fc576217c77fffe40a291d40121028a8a92233c4af2e788e31bdfaf329301ea54a6c85915f8c16e143c0e5e527a8c", "asm": "3045022100a234a0206148099cc7c3feb80508dc309cc2edad7e6d5e74be18b7500e7ebebf0220327ac9b5ecb3426be35e15124ea21e17cb1463465fc576217c77fffe40a291d4[ALL] 028a8a92233c4af2e788e31bdfaf329301ea54a6c85915f8c16e143c0e5e527a8c"}, "vout": 1, "txid": "3795416d68720769a23deaa1e881cddc07db3439a3f6a59a0e429c6bf69d6014"}], "txid": "fc0fcac42a3efcf49d3f5ef6e3cc94d3446c95d00bb462987c93d2cb0945d926", "blocktime": 1537873282, "version": 2, "confirmations": 11485, "time": 1537873282, "locktime": 542994, "vsize": 226, "size": 226}