{"hash": "febef49cc68e6999d0bb4e0484dc926b6d62f956bd9057d2f0d694defca69c3c", "blockhash": "00000000000000000017f5eb5941039fbcee6240d03bc1f2f8e35350df66a1d8", "vout": [{"scriptPubKey": {"reqSigs": 1, "hex": "a9147b5332c5f75bd4d1ae2b8dc32ac7a8c6298e5d2187", "addresses": ["3Cw6hrrk2Qu6y5sREzideBzESWfzJ3ZS5t"], "asm": "OP_HASH160 7b5332c5f75bd4d1ae2b8dc32ac7a8c6298e5d21 OP_EQUAL", "type": "scripthash"}, "value": 0.04151986, "n": 0}, {"scriptPubKey": {"reqSigs": 1, "hex": "0014b76491c2dd572dd1c2368c68cf1be344036e6ed9", "addresses": ["bc1qkajfrska2ukars3k335v7xlrgspkumke4zr4vv"], "asm": "0 b76491c2dd572dd1c2368c68cf1be344036e6ed9", "type": "witness_v0_keyhash"}, "value": 0.3453342, "n": 1}], "hex": "010000000001015b85054358aba4e4b7b45361d920459653e8847bd35458244bf904e8a44f912b0000000000ffffffff02b25a3f000000000017a9147b5332c5f75bd4d1ae2b8dc32ac7a8c6298e5d21872cf00e0200000000160014b76491c2dd572dd1c2368c68cf1be344036e6ed9024830450221009d6d412c3eaf21aefa59e6a783c4509d10d69d7aba8cfaffdf41a86bfffcec7f02205254b9b3161e2d64a3498d5015223c5f2d3c4f8eaf03e31450509161e9576d28012102d4a6db9627911566fcb226cdf26e3db109b04697651954377ed59f336fc7943800000000", "vin": [{"txinwitness": ["30450221009d6d412c3eaf21aefa59e6a783c4509d10d69d7aba8cfaffdf41a86bfffcec7f02205254b9b3161e2d64a3498d5015223c5f2d3c4f8eaf03e31450509161e9576d2801", "02d4a6db9627911566fcb226cdf26e3db109b04697651954377ed59f336fc79438"], "sequence": 4294967295, "scriptSig": {"hex": "", "asm": ""}, "vout": 0, "txid": "2b914fa4e804f94b245854d37b84e853964520d96153b4b7e4a4ab584305855b"}], "txid": "fc15cd0c95a436d75c1f1063c6e73dd2e4d5009181511011e06af3572b421b77", "blocktime": 1537874412, "version": 1, "confirmations": 11467, "time": 1537874412, "locktime": 0, "vsize": 142, "size": 224}