{"hash": "fc172aa582645f30f35fc3c1e3766bbf17ff9d3e1e12f46f39b8df0ffdb11ca0", "blockhash": "0000000000000000000baef3f32e3676a92c3b2e5da21b426e4f302fc371ce76", "vout": [{"scriptPubKey": {"reqSigs": 1, "hex": "76a9141d8d80b07f629e2a2db70de3b2724dc83e2a38af88ac", "addresses": ["13hG7LsPPD9Ue54spDbXsvcmDQTqJHWWTP"], "asm": "OP_DUP OP_HASH160 1d8d80b07f629e2a2db70de3b2724dc83e2a38af OP_EQUALVERIFY OP_CHECKSIG", "type": "pubkeyhash"}, "value": 0.04879394, "n": 0}, {"scriptPubKey": {"reqSigs": 1, "hex": "76a9149ef6308f3b15e19d6eae3679b7355ca3d4c7254088ac", "addresses": ["1FVWgsNRZg2PLi1xigsEuFgfe9TkHVHG4W"], "asm": "OP_DUP OP_HASH160 9ef6308f3b15e19d6eae3679b7355ca3d4c72540 OP_EQUALVERIFY OP_CHECKSIG", "type": "pubkeyhash"}, "value": 0.07843457, "n": 1}], "hex": "0100000001a5da391d357b9749cdfc7dce1471ca1e671b83247a186b95a41e857f41fd66ce000000006b483045022100b4fec7af43d377973928ceb60bcc4e1d9d456f5f7f507f6d7cea8df6835c428f02204ffb4db5434942d21195de3b8b3b387c6ed1319ea3fd7d7040697e579148dacf01210268aa049be93d1950eb666ee328b2796d8176f45eb919d6c13774663e5b96f3f8fdffffff0222744a00000000001976a9141d8d80b07f629e2a2db70de3b2724dc83e2a38af88ac81ae7700000000001976a9149ef6308f3b15e19d6eae3679b7355ca3d4c7254088ac16490800", "vin": [{"sequence": 4294967293, "scriptSig": {"hex": "483045022100b4fec7af43d377973928ceb60bcc4e1d9d456f5f7f507f6d7cea8df6835c428f02204ffb4db5434942d21195de3b8b3b387c6ed1319ea3fd7d7040697e579148dacf01210268aa049be93d1950eb666ee328b2796d8176f45eb919d6c13774663e5b96f3f8", "asm": "3045022100b4fec7af43d377973928ceb60bcc4e1d9d456f5f7f507f6d7cea8df6835c428f02204ffb4db5434942d21195de3b8b3b387c6ed1319ea3fd7d7040697e579148dacf[ALL] 0268aa049be93d1950eb666ee328b2796d8176f45eb919d6c13774663e5b96f3f8"}, "vout": 0, "txid": "ce66fd417f851ea4956b187a24831b671eca7114ce7dfccd49977b351d39daa5"}], "txid": "fc172aa582645f30f35fc3c1e3766bbf17ff9d3e1e12f46f39b8df0ffdb11ca0", "blocktime": 1537876114, "version": 1, "confirmations": 11460, "time": 1537876114, "locktime": 542998, "vsize": 226, "size": 226}