{"hash": "36c70e0fb2836fa80c247e984aab17be2d4d453ec3aaa01fd52b6c200e6d81b8", "blockhash": "0000000000000000000e13cef7c366c0283d82e591d1acd082e914b08063cdf1", "vout": [{"scriptPubKey": {"reqSigs": 1, "hex": "76a9146f104673df188baf5ac223568c5c6a735de7282688ac", "addresses": ["1B8FW7dT4b5aKLhNtrwBpJ3tUwUNPw6adC"], "asm": "OP_DUP OP_HASH160 6f104673df188baf5ac223568c5c6a735de72826 OP_EQUALVERIFY OP_CHECKSIG", "type": "pubkeyhash"}, "value": 0.00296292, "n": 0}, {"scriptPubKey": {"reqSigs": 1, "hex": "a9144628edb06f89f86b6ce4a129467770f1bd01b44087", "addresses": ["385zFjQwovEGCaqeo3gm3gug8rczvyi2Mr"], "asm": "OP_HASH160 4628edb06f89f86b6ce4a129467770f1bd01b440 OP_EQUAL", "type": "scripthash"}, "value": 0.00999338, "n": 1}], "hex": "020000000001026a84bca9c80df78337ac641b6272af1876aaef0ebd9506c87569da410e19629a00000000171600148c96533ce6b5490166720720876cfb5a36508e20feffffffbf3121ec9bbd935dba603a21f39055ff4ea3e97726bdd325691e506911e760670000000017160014064d7b498f1f1600170222a2f0c5b5855929439ffeffffff0264850400000000001976a9146f104673df188baf5ac223568c5c6a735de7282688acaa3f0f000000000017a9144628edb06f89f86b6ce4a129467770f1bd01b44087024830450221009520f9250e884202aa24d7ae940497c839176f7cf4811a517df683d25be92c5702203adf5f586126ab679791fca58caa7e26894e50c03043589b33a164bd4c29521a012103ef096ac0ff85c7ccfe74e32519ea042d39f710ed6fa49674840ba6cbab7a42bb02473044022026347727dea50b3043370bfac9b8adae2baaa7be3ae643f3739a07aadc8e94b4022034ef699965cf93845ab3d073500a07d091643984d51e372ea52c3d2c438e3fd4012102dec4037bf0eb119eb311691d30c93bb828497b4af55cd79a72fc02eeb9a6b95fcd480800", "vin": [{"txinwitness": ["30450221009520f9250e884202aa24d7ae940497c839176f7cf4811a517df683d25be92c5702203adf5f586126ab679791fca58caa7e26894e50c03043589b33a164bd4c29521a01", "03ef096ac0ff85c7ccfe74e32519ea042d39f710ed6fa49674840ba6cbab7a42bb"], "sequence": 4294967294, "scriptSig": {"hex": "1600148c96533ce6b5490166720720876cfb5a36508e20", "asm": "00148c96533ce6b5490166720720876cfb5a36508e20"}, "vout": 0, "txid": "9a62190e41da6975c80695bd0eefaa7618af72621b64ac3783f70dc8a9bc846a"}, {"txinwitness": ["3044022026347727dea50b3043370bfac9b8adae2baaa7be3ae643f3739a07aadc8e94b4022034ef699965cf93845ab3d073500a07d091643984d51e372ea52c3d2c438e3fd401", "02dec4037bf0eb119eb311691d30c93bb828497b4af55cd79a72fc02eeb9a6b95f"], "sequence": 4294967294, "scriptSig": {"hex": "160014064d7b498f1f1600170222a2f0c5b5855929439f", "asm": "0014064d7b498f1f1600170222a2f0c5b5855929439f"}, "vout": 0, "txid": "6760e71169501e6925d3bd2677e9a34eff5590f3213a60ba5d93bd9bec2131bf"}], "txid": "fc1a35d33930f287d320860210df51da121e0807c2c0e6440de8e927cffd0a28", "blocktime": 1537871767, "version": 2, "confirmations": 11495, "time": 1537871767, "locktime": 542925, "vsize": 259, "size": 421}