{"hash": "fc1ceadc9e90e7136f2f389cde38327c058c2f7cf1fd50ea8df39d785cd4b819", "blockhash": "0000000000000000000dcc0f55137456b1a82d3642486a52398922ac4d620174", "vout": [{"scriptPubKey": {"reqSigs": 1, "hex": "76a914d16fecd80a8605814760e07b0b67f1de272916d488ac", "addresses": ["1L6QJnovQN1UL3iKqM5zpDhJiHp46dYAGF"], "asm": "OP_DUP OP_HASH160 d16fecd80a8605814760e07b0b67f1de272916d4 OP_EQUALVERIFY OP_CHECKSIG", "type": "pubkeyhash"}, "value": 0.0025, "n": 0}, {"scriptPubKey": {"reqSigs": 1, "hex": "76a9146586ced214191eaee684bf8787713d2671eff5aa88ac", "addresses": ["1AFpjzWNNtmMamjbbSSNLiVdktzrYMspCQ"], "asm": "OP_DUP OP_HASH160 6586ced214191eaee684bf8787713d2671eff5aa OP_EQUALVERIFY OP_CHECKSIG", "type": "pubkeyhash"}, "value": 0.13018873, "n": 1}], "hex": "0200000001d1487883472a4e6afb245e962f5b92e287a5900ae5a8367dbf8dda403bcd8c6f010000006a47304402207a21de62166fdab37ac07fdb6746bd9c69bfe81eec23fa50682aa5144732b26202202abf42b632fd9b7bb8f981a025d04700cb96c73541e9f5b23920a233fefca87c01210210dac65f236a05432a1dbd2f909aa1c6e1870304203e734e8d07db9b57443d46ffffffff0290d00300000000001976a914d16fecd80a8605814760e07b0b67f1de272916d488acf9a6c600000000001976a9146586ced214191eaee684bf8787713d2671eff5aa88ac00000000", "vin": [{"sequence": 4294967295, "scriptSig": {"hex": "47304402207a21de62166fdab37ac07fdb6746bd9c69bfe81eec23fa50682aa5144732b26202202abf42b632fd9b7bb8f981a025d04700cb96c73541e9f5b23920a233fefca87c01210210dac65f236a05432a1dbd2f909aa1c6e1870304203e734e8d07db9b57443d46", "asm": "304402207a21de62166fdab37ac07fdb6746bd9c69bfe81eec23fa50682aa5144732b26202202abf42b632fd9b7bb8f981a025d04700cb96c73541e9f5b23920a233fefca87c[ALL] 0210dac65f236a05432a1dbd2f909aa1c6e1870304203e734e8d07db9b57443d46"}, "vout": 1, "txid": "6f8ccd3b40da8dbf7d36a8e50a90a587e2925b2f965e24fb6a4e2a47837848d1"}], "txid": "fc1ceadc9e90e7136f2f389cde38327c058c2f7cf1fd50ea8df39d785cd4b819", "blocktime": 1537870268, "version": 2, "confirmations": 11516, "time": 1537870268, "locktime": 0, "vsize": 225, "size": 225}