{"hash": "5672fb45e5c5d0bdfdb2f185d5471d8cdf0e57544dcab90334ade005dc998d90", "blockhash": "0000000000000000001cda96e906b7601b7a6fb1a3b62bca570a9e5d8f4b3de1", "vout": [{"scriptPubKey": {"reqSigs": 1, "hex": "76a91401cf6ccd97639f4f1d5fb54677df3604698dc1c588ac", "addresses": ["1AaALPh38DWzvb7mnd5AHKXDrr5tnCv2h"], "asm": "OP_DUP OP_HASH160 01cf6ccd97639f4f1d5fb54677df3604698dc1c5 OP_EQUALVERIFY OP_CHECKSIG", "type": "pubkeyhash"}, "value": 0.915, "n": 0}, {"scriptPubKey": {"reqSigs": 1, "hex": "0020701a8d401c84fb13e6baf169d59684e17abd9fa216c8cc5b9fc63d622ff8c58d", "addresses": ["bc1qwqdg6squsna38e46795at95yu9atm8azzmyvckulcc7kytlcckxswvvzej"], "asm": "0 701a8d401c84fb13e6baf169d59684e17abd9fa216c8cc5b9fc63d622ff8c58d", "type": "witness_v0_scripthash"}, "value": 1.08290928, "n": 1}], "hex": "01000000000101f09909695ba1cd0dea93eb3210c21b93c3e5bd9fcb729d7ecffe74263f2063230500000000ffffffff02e02d7405000000001976a91401cf6ccd97639f4f1d5fb54677df3604698dc1c588ac7063740600000000220020701a8d401c84fb13e6baf169d59684e17abd9fa216c8cc5b9fc63d622ff8c58d040047304402202ba1aa3dcfccff57ead8168d8c6487598ed549208a2811e314f4005814d68d990220592b001ac139d204af07e0c5091781c7c4daf0a1ab2a7ac3a505b76d6621281901483045022100b47e0b1bbf86da410d9b685a87cf9eea23d1968d8d8c2359f9d00da0e47ad10002203b911f151c0908e7aeb1b29e9f24f08cfc27135637cb1fab9c93874e384406fe016952210375e00eb72e29da82b89367947f29ef34afb75e8654f6ea368e0acdfd92976b7c2103a1b26313f430c4b15bb1fdce663207659d8cac749a0e53d70eff01874496feff2103c96d495bfdd5ba4145e3e046fee45e84a8a48ad05bd8dbb395c011a32cf9f88053ae00000000", "vin": [{"txinwitness": ["", "304402202ba1aa3dcfccff57ead8168d8c6487598ed549208a2811e314f4005814d68d990220592b001ac139d204af07e0c5091781c7c4daf0a1ab2a7ac3a505b76d6621281901", "3045022100b47e0b1bbf86da410d9b685a87cf9eea23d1968d8d8c2359f9d00da0e47ad10002203b911f151c0908e7aeb1b29e9f24f08cfc27135637cb1fab9c93874e384406fe01", "52210375e00eb72e29da82b89367947f29ef34afb75e8654f6ea368e0acdfd92976b7c2103a1b26313f430c4b15bb1fdce663207659d8cac749a0e53d70eff01874496feff2103c96d495bfdd5ba4145e3e046fee45e84a8a48ad05bd8dbb395c011a32cf9f88053ae"], "sequence": 4294967295, "scriptSig": {"hex": "", "asm": ""}, "vout": 5, "txid": "2363203f2674fecf7e9d72cb9fbde5c3931bc21032eb93ea0dcda15b690999f0"}], "txid": "fc1f27ae508b1263725f8adca7abd5c02071d88b666244e63fa11e04c4ed126b", "blocktime": 1537873282, "version": 1, "confirmations": 11480, "time": 1537873282, "locktime": 0, "vsize": 192, "size": 383}