{"hash": "fc21dbf5b386ffdeabad49cc974794f3fd3609a81842beac62e03fd2d525003b", "blockhash": "0000000000000000000dcc0f55137456b1a82d3642486a52398922ac4d620174", "vout": [{"scriptPubKey": {"type": "nulldata", "hex": "6a146f6d6e69000000000000001f0000005169f4c580", "asm": "OP_RETURN 6f6d6e69000000000000001f0000005169f4c580"}, "value": 0.0, "n": 0}, {"scriptPubKey": {"reqSigs": 1, "hex": "76a914a25dec4d0011064ef106a983c39c7a540699f22088ac", "addresses": ["1FoWyxwPXuj4C6abqwhjDWdz6D4PZgYRjA"], "asm": "OP_DUP OP_HASH160 a25dec4d0011064ef106a983c39c7a540699f220 OP_EQUALVERIFY OP_CHECKSIG", "type": "pubkeyhash"}, "value": 0.01990431, "n": 1}, {"scriptPubKey": {"reqSigs": 1, "hex": "a9145f0bbc61777167ce92167d2379165fb9b605b39687", "addresses": ["3AMaBBxDu76wpHKG7hJf5EhXhs2BhRHZ7d"], "asm": "OP_HASH160 5f0bbc61777167ce92167d2379165fb9b605b396 OP_EQUAL", "type": "scripthash"}, "value": 5.4e-06, "n": 2}], "hex": "01000000016b7695f8cc0e44d66751a6a26e3202cf1fd5aa8107f98533e4e7e85dbc34aa94020000006a473044022000cafbc9c0840f70fd69c6ad22327eb6fb657d8cb4aeaee90f473d44b645d33b022028b3d70537b9603a267c854eb3666fe3ecd8dc2cfe81079b951efd5bf064e51d012103da5bac7b36d5aa38f531c6b9601e21bb598a4b6716ebed38b009a55dabde9440feffffff030000000000000000166a146f6d6e69000000000000001f0000005169f4c5801f5f1e00000000001976a914a25dec4d0011064ef106a983c39c7a540699f22088ac1c0200000000000017a9145f0bbc61777167ce92167d2379165fb9b605b396870c490800", "vin": [{"sequence": 4294967294, "scriptSig": {"hex": "473044022000cafbc9c0840f70fd69c6ad22327eb6fb657d8cb4aeaee90f473d44b645d33b022028b3d70537b9603a267c854eb3666fe3ecd8dc2cfe81079b951efd5bf064e51d012103da5bac7b36d5aa38f531c6b9601e21bb598a4b6716ebed38b009a55dabde9440", "asm": "3044022000cafbc9c0840f70fd69c6ad22327eb6fb657d8cb4aeaee90f473d44b645d33b022028b3d70537b9603a267c854eb3666fe3ecd8dc2cfe81079b951efd5bf064e51d[ALL] 03da5bac7b36d5aa38f531c6b9601e21bb598a4b6716ebed38b009a55dabde9440"}, "vout": 2, "txid": "94aa34bc5de8e7e43385f90781aad51fcf02326ea2a65167d6440eccf895766b"}], "txid": "fc21dbf5b386ffdeabad49cc974794f3fd3609a81842beac62e03fd2d525003b", "blocktime": 1537870268, "version": 1, "confirmations": 11516, "time": 1537870268, "locktime": 542988, "vsize": 254, "size": 254}