{"hash": "90c4d34a1b6f1162ffe352e49bee3d47302278c7719c7ff098cff646699613a7", "blockhash": "00000000000000000024a2167bbff67b0be802c0b01cdd79e6331c2be6459f87", "vout": [{"scriptPubKey": {"reqSigs": 1, "hex": "a914d062880564f9fa803e9bfd534fff534319f7c37a87", "addresses": ["3LgrWXCUhsiipsuqjf1MZ5KGWcSpxToRhJ"], "asm": "OP_HASH160 d062880564f9fa803e9bfd534fff534319f7c37a OP_EQUAL", "type": "scripthash"}, "value": 0.00999876, "n": 0}, {"scriptPubKey": {"reqSigs": 1, "hex": "a9146ffa65eb258683852f0481f23fe35017833bb8bb87", "addresses": ["3Bu6toYSZQGaiWmJHi8F4css3qmp7fnn1i"], "asm": "OP_HASH160 6ffa65eb258683852f0481f23fe35017833bb8bb OP_EQUAL", "type": "scripthash"}, "value": 0.06134244, "n": 1}], "hex": "02000000000104010709f90076722bdb323de08c9ce7d5b7b3c6ff76775211a4d8725f4a18c07600000000171600144e5ef1820b7875d5ed33605f7ce6aced2682f3cefeffffff5d500b81072d828b3e8679e89099ca64f4286111edd7f47f90bb2e06f9fd459c3d0100001716001429f263d0cc59bf3dd2dcd363d4bcdd7ab5584539feffffff859bd7f77107259bf0829d852fdb6a3186d59f6783a4ded1cc92c38884fbac210000000017160014d35b5ee940a90e8e88e95601978ea45d28d89550feffffffb56d0f5e9e249be735791fece8ac0ab01bc0420b2e77ecc4975dd7c7df233e9d0100000017160014d2825a16b37f2bce4b5a12cbb05fe6e075d681f7feffffff02c4410f000000000017a914d062880564f9fa803e9bfd534fff534319f7c37a87e4995d000000000017a9146ffa65eb258683852f0481f23fe35017833bb8bb87024830450221009074165ee634d15d7019dd82ae6466ff3c8813e26e9d1a0a0f2d58f951ee59bd02201a74a4683c7a913bc2d38d7a47f085054388fc1645690176efa81a35730bbe9401210322cc36e0ef6fe3faf6666cdb8337dbdf584c9794a9f7ec7bd3ebeade826a06ee0248304502210096133857b94822ebfd461403b56a5313009ecaae95b92802ee7efbbff8ffb36602203d4e5f75751216dcb859924069dc6fbb880ac9f51778a9e21c7d3d0412a188cd012103f74a303c2a2575420c86fd2b24affc1cc3b8430005287cf08302ce4a9973268602483045022100cce6dd72f1eae6d698f732bdbdd91271d0aeb69c0aa67424af376841c697588102206c4d9aa0da019f5e8572d9b6e68a525b946a8aceb6274a60b0b3eba7809972d5012103c3bf200bd350bd7d0bb0f612493976bcc384876e7a12f240d4931d588fdbc1430247304402200d8128bead4a5b47a7e5d0b5563413e2142a1a4dbb8b1baff820ed91a1a4d02b02201315fef38bb5ac7cd86d3ff4f642de9ac01f81d9a570f7557e0caf33f6bd44460121033129cdbb0b500c147336c2d38231119728f1706eb095b6bb358d7f7dc45975260d490800", "vin": [{"txinwitness": ["30450221009074165ee634d15d7019dd82ae6466ff3c8813e26e9d1a0a0f2d58f951ee59bd02201a74a4683c7a913bc2d38d7a47f085054388fc1645690176efa81a35730bbe9401", "0322cc36e0ef6fe3faf6666cdb8337dbdf584c9794a9f7ec7bd3ebeade826a06ee"], "sequence": 4294967294, "scriptSig": {"hex": "1600144e5ef1820b7875d5ed33605f7ce6aced2682f3ce", "asm": "00144e5ef1820b7875d5ed33605f7ce6aced2682f3ce"}, "vout": 0, "txid": "76c0184a5f72d8a411527776ffc6b3b7d5e79c8ce03d32db2b727600f9090701"}, {"txinwitness": ["304502210096133857b94822ebfd461403b56a5313009ecaae95b92802ee7efbbff8ffb36602203d4e5f75751216dcb859924069dc6fbb880ac9f51778a9e21c7d3d0412a188cd01", "03f74a303c2a2575420c86fd2b24affc1cc3b8430005287cf08302ce4a99732686"], "sequence": 4294967294, "scriptSig": {"hex": "16001429f263d0cc59bf3dd2dcd363d4bcdd7ab5584539", "asm": "001429f263d0cc59bf3dd2dcd363d4bcdd7ab5584539"}, "vout": 317, "txid": "9c45fdf9062ebb907ff4d7ed116128f464ca9990e879863e8b822d07810b505d"}, {"txinwitness": ["3045022100cce6dd72f1eae6d698f732bdbdd91271d0aeb69c0aa67424af376841c697588102206c4d9aa0da019f5e8572d9b6e68a525b946a8aceb6274a60b0b3eba7809972d501", "03c3bf200bd350bd7d0bb0f612493976bcc384876e7a12f240d4931d588fdbc143"], "sequence": 4294967294, "scriptSig": {"hex": "160014d35b5ee940a90e8e88e95601978ea45d28d89550", "asm": "0014d35b5ee940a90e8e88e95601978ea45d28d89550"}, "vout": 0, "txid": "21acfb8488c392ccd1dea483679fd586316adb2f859d82f09b250771f7d79b85"}, {"txinwitness": ["304402200d8128bead4a5b47a7e5d0b5563413e2142a1a4dbb8b1baff820ed91a1a4d02b02201315fef38bb5ac7cd86d3ff4f642de9ac01f81d9a570f7557e0caf33f6bd444601", "033129cdbb0b500c147336c2d38231119728f1706eb095b6bb358d7f7dc4597526"], "sequence": 4294967294, "scriptSig": {"hex": "160014d2825a16b37f2bce4b5a12cbb05fe6e075d681f7", "asm": "0014d2825a16b37f2bce4b5a12cbb05fe6e075d681f7"}, "vout": 1, "txid": "9d3e23dfc7d75d97c4ec772e0b42c01bb00aace8ec1f7935e79b249e5e0f6db5"}], "txid": "fc2134133d3cd00667985d02674c56222c143e1e949965736897c5ed4c3eebeb", "blocktime": 1537870564, "version": 2, "confirmations": 11515, "time": 1537870564, "locktime": 542989, "vsize": 439, "size": 763}