{"hash": "fc2530accdca5137df38d5d846f298a2f0c58b126c094caeb2d04856f56cba6d", "blockhash": "0000000000000000000baef3f32e3676a92c3b2e5da21b426e4f302fc371ce76", "vout": [{"scriptPubKey": {"reqSigs": 1, "hex": "a9149192cdba72fcd5800199b39be1a15a8c55084fe687", "addresses": ["3ExjmTHHu4jWYESYEJeVwTpaAsMedpFLVQ"], "asm": "OP_HASH160 9192cdba72fcd5800199b39be1a15a8c55084fe6 OP_EQUAL", "type": "scripthash"}, "value": 0.01228046, "n": 0}], "hex": "01000000017aa766280e2168e83fe391240f973baf4c0ddcb9ee14e021b7b5c0af5957fbc5000000006b483045022100fe8cbf99d25c70e4a3e7025c1c624f4f75c57f6c933298b53a319344d391e67a02200f388a6670c563f5885831beec9cd65f2d467910216ec05265cbdf37f915361d012102697a96fb055f966873b5462e08751e2330a2f416577420d7f7066148e92aa68bffffffff010ebd12000000000017a9149192cdba72fcd5800199b39be1a15a8c55084fe68700000000", "vin": [{"sequence": 4294967295, "scriptSig": {"hex": "483045022100fe8cbf99d25c70e4a3e7025c1c624f4f75c57f6c933298b53a319344d391e67a02200f388a6670c563f5885831beec9cd65f2d467910216ec05265cbdf37f915361d012102697a96fb055f966873b5462e08751e2330a2f416577420d7f7066148e92aa68b", "asm": "3045022100fe8cbf99d25c70e4a3e7025c1c624f4f75c57f6c933298b53a319344d391e67a02200f388a6670c563f5885831beec9cd65f2d467910216ec05265cbdf37f915361d[ALL] 02697a96fb055f966873b5462e08751e2330a2f416577420d7f7066148e92aa68b"}, "vout": 0, "txid": "c5fb5759afc0b5b721e014eeb9dc0d4caf3b970f2491e33fe868210e2866a77a"}], "txid": "fc2530accdca5137df38d5d846f298a2f0c58b126c094caeb2d04856f56cba6d", "blocktime": 1537876114, "version": 1, "confirmations": 11460, "time": 1537876114, "locktime": 0, "vsize": 190, "size": 190}