{"hash": "d5260eb7d36e88fc7aeabdf3c4074eea882bcc16f6cef924700dac89d776753b", "blockhash": "00000000000000000024a2167bbff67b0be802c0b01cdd79e6331c2be6459f87", "vout": [{"scriptPubKey": {"reqSigs": 1, "hex": "a9142c273ccdf42a643b2e40f0124bff2e44be18623e87", "addresses": ["35iUfFjSBr4HnSFYFBDSKBgEGdeU3oKYX9"], "asm": "OP_HASH160 2c273ccdf42a643b2e40f0124bff2e44be18623e OP_EQUAL", "type": "scripthash"}, "value": 0.22697094, "n": 0}], "hex": "01000000000101110e1532463e52a34ba73c2399226de3266501fd7c17ea02e665e062ee05a26c0000000023220020b511626293782a8eea2ed6bf6b3fd3affee1f878c3852103d26f8b1212554eeefdffffff0186545a010000000017a9142c273ccdf42a643b2e40f0124bff2e44be18623e8704004830450221009f1b1a0912f459169e1e4295eb6dc3c55d00af51cefa0fc2bc9b31c313b8c63e02204e920cfe10c8fc4ad3285100dc9a33c0c13f94e20595ec9dc020c6e3a8fa6e5401473044022063c96f2576feb779d8b835c0aa2771160ae389e5354277d1c6da126dadf7dcd7022078a77fe6403b1bfda83970f0f4c34a4b64155b0e3f5f61937fc4892bf32955110147522102f7750d96c26b411b09c6ab882c609bae2c07a8277774e451ed6b4268a2ba538621039fb793c6978fd12ea8080227c9785d1d7655eb0a5ad4c838cd162f196beb7f0c52ae0d490800", "vin": [{"txinwitness": ["", "30450221009f1b1a0912f459169e1e4295eb6dc3c55d00af51cefa0fc2bc9b31c313b8c63e02204e920cfe10c8fc4ad3285100dc9a33c0c13f94e20595ec9dc020c6e3a8fa6e5401", "3044022063c96f2576feb779d8b835c0aa2771160ae389e5354277d1c6da126dadf7dcd7022078a77fe6403b1bfda83970f0f4c34a4b64155b0e3f5f61937fc4892bf329551101", "522102f7750d96c26b411b09c6ab882c609bae2c07a8277774e451ed6b4268a2ba538621039fb793c6978fd12ea8080227c9785d1d7655eb0a5ad4c838cd162f196beb7f0c52ae"], "sequence": 4294967293, "scriptSig": {"hex": "220020b511626293782a8eea2ed6bf6b3fd3affee1f878c3852103d26f8b1212554eee", "asm": "0020b511626293782a8eea2ed6bf6b3fd3affee1f878c3852103d26f8b1212554eee"}, "vout": 0, "txid": "6ca205ee62e065e602ea177cfd016526e36d2299233ca74ba3523e4632150e11"}], "txid": "fc2e714f290f6f2aeadc332e5e616be1f31ff928b4cee55bc5e69bd5dd7876a7", "blocktime": 1537870564, "version": 1, "confirmations": 11515, "time": 1537870564, "locktime": 542989, "vsize": 174, "size": 339}