{"hash": "1388860bc653d70ea09c362b9342a0877e1fbc4fb152ec9d810846cf9d88f4ca", "blockhash": "0000000000000000001f76057863aec43deb6fa401d9628bb513d65a8098bfab", "vout": [{"scriptPubKey": {"reqSigs": 1, "hex": "a914b2151f656be2f232cc8feaef4b6b0d1620ff1e5587", "addresses": ["3HvdWKJgKQKauFxRCxJ6CnEZfbuHB5dQdw"], "asm": "OP_HASH160 b2151f656be2f232cc8feaef4b6b0d1620ff1e55 OP_EQUAL", "type": "scripthash"}, "value": 0.01017429, "n": 0}, {"scriptPubKey": {"reqSigs": 1, "hex": "a914165ac2a62684f5c7a3bbd407b0db0df3ed070ea887", "addresses": ["33jDWuMkymD8o6PunKqVpBc2YQD8WAS63S"], "asm": "OP_HASH160 165ac2a62684f5c7a3bbd407b0db0df3ed070ea8 OP_EQUAL", "type": "scripthash"}, "value": 0.01041126, "n": 1}], "hex": "02000000000101b351eccf8ce196bc1917b846cc6f76f82b0e4c612a59c415c00c688ea96e0e3a0000000017160014d8df7421e01b92395ac53ff4980460895094a32ffeffffff0255860f000000000017a914b2151f656be2f232cc8feaef4b6b0d1620ff1e5587e6e20f000000000017a914165ac2a62684f5c7a3bbd407b0db0df3ed070ea8870247304402206da5c0fd28769b136ce09510b8455edcadc618a92a093462e0aa514c652701e602200264773e25c229aa6f168cc9fa19fb5bdd6c3f863070d7910cad1a8913ac566f012103b8d298e3e2e14a9ce9991f8a11511cdb4a6c98b4504f6699d630d4e9e93aa32114490800", "vin": [{"txinwitness": ["304402206da5c0fd28769b136ce09510b8455edcadc618a92a093462e0aa514c652701e602200264773e25c229aa6f168cc9fa19fb5bdd6c3f863070d7910cad1a8913ac566f01", "03b8d298e3e2e14a9ce9991f8a11511cdb4a6c98b4504f6699d630d4e9e93aa321"], "sequence": 4294967294, "scriptSig": {"hex": "160014d8df7421e01b92395ac53ff4980460895094a32f", "asm": "0014d8df7421e01b92395ac53ff4980460895094a32f"}, "vout": 0, "txid": "3a0e6ea98e680cc015c4592a614c0e2bf8766fcc46b81719bc96e18ccfec51b3"}], "txid": "fc36a281ca16e6ba3574c3b5a6e0aae20de10e37c4f781851e622d3d9429876e", "blocktime": 1537873891, "version": 2, "confirmations": 11479, "time": 1537873891, "locktime": 542996, "vsize": 166, "size": 247}