{"hash": "fc3bf7e8ce562f64f80e5c3ef1f3160e6990a49321d26889202a17476d1cb990", "blockhash": "0000000000000000000baef3f32e3676a92c3b2e5da21b426e4f302fc371ce76", "vout": [{"scriptPubKey": {"reqSigs": 1, "hex": "76a91438b60269f9f3f79583890509f92fa98f6b62533e88ac", "addresses": ["16ArsyocXfMtVAgg8QtieAz917CFWw4YsN"], "asm": "OP_DUP OP_HASH160 38b60269f9f3f79583890509f92fa98f6b62533e OP_EQUALVERIFY OP_CHECKSIG", "type": "pubkeyhash"}, "value": 0.0011842, "n": 0}, {"scriptPubKey": {"type": "nulldata", "hex": "6a4c50000078130001c4b3c78b8c1d11b070a58c7c702940d64fa54d8eb2d19ed074892d00f8e8321ad3a128750cdb18a514faaaf4b02b5baa1baf0614f847230b5c0bbc9a9526289ac0f6612cd74e33776ee4", "asm": "OP_RETURN 000078130001c4b3c78b8c1d11b070a58c7c702940d64fa54d8eb2d19ed074892d00f8e8321ad3a128750cdb18a514faaaf4b02b5baa1baf0614f847230b5c0bbc9a9526289ac0f6612cd74e33776ee4"}, "value": 0.0, "n": 1}], "hex": "0100000001c99ec3bc9aa18238320220563d0454b42791f69716f88bce0c3c2029eb95093f010000006a473044022017716414f2e0e781fc1d379e74019a175dbc5041e11d758775d4457678a901b9022079d6e6584ce936ca04fce7ddc60c02ecfda8e65356201d610b1f3e1c4da818b40121029b524dd0a98d98d9c3841d4557e89a36952a419552f978ba7ae69076cd37d4edffffffff0294ce0100000000001976a91438b60269f9f3f79583890509f92fa98f6b62533e88ac0000000000000000536a4c50000078130001c4b3c78b8c1d11b070a58c7c702940d64fa54d8eb2d19ed074892d00f8e8321ad3a128750cdb18a514faaaf4b02b5baa1baf0614f847230b5c0bbc9a9526289ac0f6612cd74e33776ee400000000", "vin": [{"sequence": 4294967295, "scriptSig": {"hex": "473044022017716414f2e0e781fc1d379e74019a175dbc5041e11d758775d4457678a901b9022079d6e6584ce936ca04fce7ddc60c02ecfda8e65356201d610b1f3e1c4da818b40121029b524dd0a98d98d9c3841d4557e89a36952a419552f978ba7ae69076cd37d4ed", "asm": "3044022017716414f2e0e781fc1d379e74019a175dbc5041e11d758775d4457678a901b9022079d6e6584ce936ca04fce7ddc60c02ecfda8e65356201d610b1f3e1c4da818b4[ALL] 029b524dd0a98d98d9c3841d4557e89a36952a419552f978ba7ae69076cd37d4ed"}, "vout": 1, "txid": "3f0995eb29203c0cce8bf81697f69127b454043d562002323882a19abcc39ec9"}], "txid": "fc3bf7e8ce562f64f80e5c3ef1f3160e6990a49321d26889202a17476d1cb990", "blocktime": 1537876114, "version": 1, "confirmations": 11460, "time": 1537876114, "locktime": 0, "vsize": 283, "size": 283}