{"hash": "fc3b2d87ec3edee5c5a55cdde1ca23f54e64729eacd96c73fd01f35f00a4f130", "blockhash": "0000000000000000001e0dab787dd257d1dbfcb92a98c2207d5e1078be1f4165", "vout": [{"scriptPubKey": {"reqSigs": 1, "hex": "76a914a4cb1e28ed7b1c5c765390f7521b49525571229d88ac", "addresses": ["1G2M9LKpsMs2LixVUDMDDL3tDdtPkgHjir"], "asm": "OP_DUP OP_HASH160 a4cb1e28ed7b1c5c765390f7521b49525571229d OP_EQUALVERIFY OP_CHECKSIG", "type": "pubkeyhash"}, "value": 0.23467409, "n": 0}, {"scriptPubKey": {"reqSigs": 1, "hex": "76a914711f5765da80ff0b4a977bce669f1294ea05975788ac", "addresses": ["1BK8uKHonoxaFDGRr37anqUnX4y5wjXS74"], "asm": "OP_DUP OP_HASH160 711f5765da80ff0b4a977bce669f1294ea059757 OP_EQUALVERIFY OP_CHECKSIG", "type": "pubkeyhash"}, "value": 0.009394, "n": 1}], "hex": "01000000018f2681c11c683f051de24e43227044763fbce5d17ddd32c16b420763968044b4000000006b4830450221009d3153ee77730cc598210661f04d5a8054c37e6db8c7de14c8a229d8f01e1a09022034a140df45ca0b434aa09a8e3a3108dba83fb0cc67d8ac92e18638de7293521c012103349a40fca9d16266d574903868d1db203f9e15d2ac6fa118e4ef372f65c190abffffffff0291156601000000001976a914a4cb1e28ed7b1c5c765390f7521b49525571229d88ac88550e00000000001976a914711f5765da80ff0b4a977bce669f1294ea05975788ac00000000", "vin": [{"sequence": 4294967295, "scriptSig": {"hex": "4830450221009d3153ee77730cc598210661f04d5a8054c37e6db8c7de14c8a229d8f01e1a09022034a140df45ca0b434aa09a8e3a3108dba83fb0cc67d8ac92e18638de7293521c012103349a40fca9d16266d574903868d1db203f9e15d2ac6fa118e4ef372f65c190ab", "asm": "30450221009d3153ee77730cc598210661f04d5a8054c37e6db8c7de14c8a229d8f01e1a09022034a140df45ca0b434aa09a8e3a3108dba83fb0cc67d8ac92e18638de7293521c[ALL] 03349a40fca9d16266d574903868d1db203f9e15d2ac6fa118e4ef372f65c190ab"}, "vout": 0, "txid": "b44480966307426bc132dd7dd1e5bc3f76447022434ee21d053f681cc181268f"}], "txid": "fc3b2d87ec3edee5c5a55cdde1ca23f54e64729eacd96c73fd01f35f00a4f130", "blocktime": 1537872475, "version": 1, "confirmations": 11487, "time": 1537872475, "locktime": 0, "vsize": 226, "size": 226}