{"hash": "73dd49ac9bc152cfc47e920d6d087ea197ed76ab37e40d533e57f0aec1013723", "blockhash": "0000000000000000001f76057863aec43deb6fa401d9628bb513d65a8098bfab", "vout": [{"scriptPubKey": {"reqSigs": 1, "hex": "76a9146d833f104c7f01170c3221f550eece0d9e61362788ac", "addresses": ["1Az3t4nXkzozbwYzg6ZPsGguKnKFXCv4xG"], "asm": "OP_DUP OP_HASH160 6d833f104c7f01170c3221f550eece0d9e613627 OP_EQUALVERIFY OP_CHECKSIG", "type": "pubkeyhash"}, "value": 0.03795967, "n": 0}, {"scriptPubKey": {"reqSigs": 1, "hex": "a914b6a1864f1cb0e7ec6fffd0c3d9162377aeb832e487", "addresses": ["3JLgQPLbWen1Gz2dr54HbUTMgJwExzwYZk"], "asm": "OP_HASH160 b6a1864f1cb0e7ec6fffd0c3d9162377aeb832e4 OP_EQUAL", "type": "scripthash"}, "value": 0.01202288, "n": 1}], "hex": "01000000000103c53aaf536d794ab9ca13ff5275c9da3d1514c5414dd18e3e20c837c71d4947c800000000232200203f7af629d55750b4c01b2803e8434d6248a19ebb0c98557c9ddaf595ee867a0fffffffff5f44b7dfee6b5d6467a0d55bd282bcfde24f43f28a1de919a7402ed993e3991900000000232200208a0417d0818b2b70e0b4955cba04d9b94f2d15042b2fa72bc2cdc2188a6bb030ffffffffea793a5c5769c2d38de2e39ff64b110781e1a8d82f28e9b2cacaa659e4cc749800000000232200203cbbfeff07ce40f2a4c08d7554ac57e92c13cf6afe9edfae0dc3988cd002fc2bffffffff02ffeb3900000000001976a9146d833f104c7f01170c3221f550eece0d9e61362788ac705812000000000017a914b6a1864f1cb0e7ec6fffd0c3d9162377aeb832e4870400483045022100fc1abe8f8db920fa2f257702053b6bbc4f34940581f4bfdfe7959cf75a7ac6d202204c89ed0e3e84b767c93c6fa56b416492fbfff88884e83f1560bf9997a9278e9201473044022013723d9e96924c9a8215f1306fc286578c647a81cc2d6ef9f5989e9e14305c780220477709cedab4477ed4434e1266b142162b1cf4fdd0475bfeea1e02a81f2c73ce0169522103da8db6880f4414290141688dec7914084252b9671c2bc00512ad3a2abefc3933210215731a5bbc289b6fb559051163cb4ba443adccb7040cd0798c675c307d1847712103c3c7ea3cc4c416fe8244247889f851d58da439fcac901f917e1ad657a21e87b153ae0400483045022100ab96813af8d20531e59621d94aadffae0f033c442fda30eafd8e75de514ba32e02203294e45fe56034b1eaf80450129be9c2f576fc49d09bdb1e1e6e57802ad3a78201483045022100b61f6c45748bfda002b1a86a47cc928aba4d70678446113607306a4668dc7e87022006a6072f9db55b2c66a6c1d4560eebce5dad5db927657ded773dc80334ba67440169522102358b4a841836edc0c61e70bf063a0c8301c615e07af9486283c8dec3bc34b2252102c69fc744cba98c6951f4ed8bb9e163c6916bd2a439014953bd3b30a8d4fbd5352102232e0832c1d8717a768a28c99dd1626e5356294560438639a16443734c4b1e4353ae0400483045022100ec1d493d7b2e0dc08c8fde2084a27f9c75476679ee2a6aaa3061233c2548584502204da3ccb6b9604f46dd884b150a31e1551d489339e2a4724694050ba85b99dda301483045022100d52861c8b50bda19e2e9309d9e06a04476afb996718c3760a527c7605f1d3ab102200b7d68a2132a8cdb376263208f9f11bee6548a5b0b02a6bdc24854d720035acd0169522102fff5d4c2a306879a986ea5f7ada22469c295c954e94e634b9d99724e6834bd2b2103258c3269db99cd9220eb053e88903f578e2d873bafbcba52a635019f1d79474221021f7393f66c0e6dbebba3e01e227e6bab1fc3e30196b0e2ff1962d72ea4d4c5c853ae00000000", "vin": [{"txinwitness": ["", "3045022100fc1abe8f8db920fa2f257702053b6bbc4f34940581f4bfdfe7959cf75a7ac6d202204c89ed0e3e84b767c93c6fa56b416492fbfff88884e83f1560bf9997a9278e9201", "3044022013723d9e96924c9a8215f1306fc286578c647a81cc2d6ef9f5989e9e14305c780220477709cedab4477ed4434e1266b142162b1cf4fdd0475bfeea1e02a81f2c73ce01", "522103da8db6880f4414290141688dec7914084252b9671c2bc00512ad3a2abefc3933210215731a5bbc289b6fb559051163cb4ba443adccb7040cd0798c675c307d1847712103c3c7ea3cc4c416fe8244247889f851d58da439fcac901f917e1ad657a21e87b153ae"], "sequence": 4294967295, "scriptSig": {"hex": "2200203f7af629d55750b4c01b2803e8434d6248a19ebb0c98557c9ddaf595ee867a0f", "asm": "00203f7af629d55750b4c01b2803e8434d6248a19ebb0c98557c9ddaf595ee867a0f"}, "vout": 0, "txid": "c847491dc737c8203e8ed14d41c514153ddac97552ff13cab94a796d53af3ac5"}, {"txinwitness": ["", "3045022100ab96813af8d20531e59621d94aadffae0f033c442fda30eafd8e75de514ba32e02203294e45fe56034b1eaf80450129be9c2f576fc49d09bdb1e1e6e57802ad3a78201", "3045022100b61f6c45748bfda002b1a86a47cc928aba4d70678446113607306a4668dc7e87022006a6072f9db55b2c66a6c1d4560eebce5dad5db927657ded773dc80334ba674401", "522102358b4a841836edc0c61e70bf063a0c8301c615e07af9486283c8dec3bc34b2252102c69fc744cba98c6951f4ed8bb9e163c6916bd2a439014953bd3b30a8d4fbd5352102232e0832c1d8717a768a28c99dd1626e5356294560438639a16443734c4b1e4353ae"], "sequence": 4294967295, "scriptSig": {"hex": "2200208a0417d0818b2b70e0b4955cba04d9b94f2d15042b2fa72bc2cdc2188a6bb030", "asm": "00208a0417d0818b2b70e0b4955cba04d9b94f2d15042b2fa72bc2cdc2188a6bb030"}, "vout": 0, "txid": "1999e393d92e40a719e91d8af2434fe2fdbc82d25bd5a067645d6beedfb7445f"}, {"txinwitness": ["", "3045022100ec1d493d7b2e0dc08c8fde2084a27f9c75476679ee2a6aaa3061233c2548584502204da3ccb6b9604f46dd884b150a31e1551d489339e2a4724694050ba85b99dda301", "3045022100d52861c8b50bda19e2e9309d9e06a04476afb996718c3760a527c7605f1d3ab102200b7d68a2132a8cdb376263208f9f11bee6548a5b0b02a6bdc24854d720035acd01", "522102fff5d4c2a306879a986ea5f7ada22469c295c954e94e634b9d99724e6834bd2b2103258c3269db99cd9220eb053e88903f578e2d873bafbcba52a635019f1d79474221021f7393f66c0e6dbebba3e01e227e6bab1fc3e30196b0e2ff1962d72ea4d4c5c853ae"], "sequence": 4294967295, "scriptSig": {"hex": "2200203cbbfeff07ce40f2a4c08d7554ac57e92c13cf6afe9edfae0dc3988cd002fc2b", "asm": "00203cbbfeff07ce40f2a4c08d7554ac57e92c13cf6afe9edfae0dc3988cd002fc2b"}, "vout": 0, "txid": "9874cce459a6cacab2e9282fd8a8e18107114bf69fe3e28dd3c269575c3a79ea"}], "txid": "fc3c947cdbc1d94753bb44d880dffdf5750aa82d743b479b1ef4ad8c3e557fc4", "blocktime": 1537873891, "version": 1, "confirmations": 11478, "time": 1537873891, "locktime": 0, "vsize": 495, "size": 1067}