{"hash": "fc3e7814fea4639d80e5064db232c03c96ad2761a5418b01452895cb83a9c153", "blockhash": "0000000000000000001cda96e906b7601b7a6fb1a3b62bca570a9e5d8f4b3de1", "vout": [{"scriptPubKey": {"reqSigs": 1, "hex": "a914c7075de05ea3a01f08cd0e4f15bc002d1304a65387", "addresses": ["3KqPDZm3gvm5YDboLEw2LcY4DrXf3GfZNW"], "asm": "OP_HASH160 c7075de05ea3a01f08cd0e4f15bc002d1304a653 OP_EQUAL", "type": "scripthash"}, "value": 6e-05, "n": 0}, {"scriptPubKey": {"reqSigs": 1, "hex": "76a914a0ecc635bb45a537e6a87b612373d060fe8caefe88ac", "addresses": ["1Fftm4HgFaTrda9ihP3YmNckNoUGzVrfJb"], "asm": "OP_DUP OP_HASH160 a0ecc635bb45a537e6a87b612373d060fe8caefe OP_EQUALVERIFY OP_CHECKSIG", "type": "pubkeyhash"}, "value": 1.27236461, "n": 1}], "hex": "0100000001eb548864ecc0979152fa635540a8b1df4824c9d5df41d9733091a5c85d8a0dab010000006b4830450221009424a9c3da55b0dc84ad933149ef14d63e8c3fe35b2bd8be6833d2bee66e70ed02206d6ec1eabf07d5fbff3d71120d0f0bd1cbcdb9db11f338864c1cbd07effb96a6012102872e4ee76e54b750649381ff12127b440ff2729379090ad39874f5a54abbc48affffffff02701700000000000017a914c7075de05ea3a01f08cd0e4f15bc002d1304a653876d799507000000001976a914a0ecc635bb45a537e6a87b612373d060fe8caefe88ac00000000", "vin": [{"sequence": 4294967295, "scriptSig": {"hex": "4830450221009424a9c3da55b0dc84ad933149ef14d63e8c3fe35b2bd8be6833d2bee66e70ed02206d6ec1eabf07d5fbff3d71120d0f0bd1cbcdb9db11f338864c1cbd07effb96a6012102872e4ee76e54b750649381ff12127b440ff2729379090ad39874f5a54abbc48a", "asm": "30450221009424a9c3da55b0dc84ad933149ef14d63e8c3fe35b2bd8be6833d2bee66e70ed02206d6ec1eabf07d5fbff3d71120d0f0bd1cbcdb9db11f338864c1cbd07effb96a6[ALL] 02872e4ee76e54b750649381ff12127b440ff2729379090ad39874f5a54abbc48a"}, "vout": 1, "txid": "ab0d8a5dc8a5913073d941dfd5c92448dfb1a8405563fa529197c0ec648854eb"}], "txid": "fc3e7814fea4639d80e5064db232c03c96ad2761a5418b01452895cb83a9c153", "blocktime": 1537873282, "version": 1, "confirmations": 11485, "time": 1537873282, "locktime": 0, "vsize": 224, "size": 224}