{"hash": "fc3fd93556b7d442fb312f089fe6888698e665bf49b4d845180c29d6f72db428", "blockhash": "0000000000000000000baef3f32e3676a92c3b2e5da21b426e4f302fc371ce76", "vout": [{"scriptPubKey": {"reqSigs": 1, "hex": "76a9148c644e1eeb04c6257af6ca5684f51e70674ecafd88ac", "addresses": ["1DoKmBVZpYYsuVRmVQpQym7nzNfLx6H5Yh"], "asm": "OP_DUP OP_HASH160 8c644e1eeb04c6257af6ca5684f51e70674ecafd OP_EQUALVERIFY OP_CHECKSIG", "type": "pubkeyhash"}, "value": 0.00211061, "n": 0}, {"scriptPubKey": {"reqSigs": 1, "hex": "a9145ccc6f50db2a42c1630c7d6dca298c28afdb83cf87", "addresses": ["3A9gzaBnSzHr9NE1RHyZRBsWN5icrSTGtk"], "asm": "OP_HASH160 5ccc6f50db2a42c1630c7d6dca298c28afdb83cf OP_EQUAL", "type": "scripthash"}, "value": 0.00354474, "n": 1}], "hex": "0100000001a4d6a6cfd6f4936321eb3b9b8fdb5258b77263a0c1552ec430336a24ed0668480c0000006a473044022009a86f07b7dde0df74b471ebf360c7e5bb70d0a5f9d1bc54ccf78d4b723a3e9f022046487fcd2b85947dd03d8733ade9f5298e0789a825e0179e1d576cd84bf37079012102a9dd21a1e7835646eb5410a9c84d7b98a312b8ff79475ceb7f74acbef2cdfe27ffffffff0275380300000000001976a9148c644e1eeb04c6257af6ca5684f51e70674ecafd88acaa6805000000000017a9145ccc6f50db2a42c1630c7d6dca298c28afdb83cf8700000000", "vin": [{"sequence": 4294967295, "scriptSig": {"hex": "473044022009a86f07b7dde0df74b471ebf360c7e5bb70d0a5f9d1bc54ccf78d4b723a3e9f022046487fcd2b85947dd03d8733ade9f5298e0789a825e0179e1d576cd84bf37079012102a9dd21a1e7835646eb5410a9c84d7b98a312b8ff79475ceb7f74acbef2cdfe27", "asm": "3044022009a86f07b7dde0df74b471ebf360c7e5bb70d0a5f9d1bc54ccf78d4b723a3e9f022046487fcd2b85947dd03d8733ade9f5298e0789a825e0179e1d576cd84bf37079[ALL] 02a9dd21a1e7835646eb5410a9c84d7b98a312b8ff79475ceb7f74acbef2cdfe27"}, "vout": 12, "txid": "486806ed246a3330c42e55c1a06372b75852db8f9b3beb216393f4d6cfa6d6a4"}], "txid": "fc3fd93556b7d442fb312f089fe6888698e665bf49b4d845180c29d6f72db428", "blocktime": 1537876114, "version": 1, "confirmations": 11460, "time": 1537876114, "locktime": 0, "vsize": 223, "size": 223}