{"hash": "091c20026e3cfc064e2d16424addbf3e904b03ed6ab498833ed5c12cdc1863bb", "blockhash": "0000000000000000000baef3f32e3676a92c3b2e5da21b426e4f302fc371ce76", "vout": [{"scriptPubKey": {"reqSigs": 1, "hex": "76a914705a8656d8103d5252eb62707e01713f1df4426688ac", "addresses": ["1BF58FqT82B9bSERDJpbpjDeaiP1RvVN3j"], "asm": "OP_DUP OP_HASH160 705a8656d8103d5252eb62707e01713f1df44266 OP_EQUALVERIFY OP_CHECKSIG", "type": "pubkeyhash"}, "value": 0.01307051, "n": 0}, {"scriptPubKey": {"reqSigs": 1, "hex": "a914074a69634347a98ca117b3f155ddb47aca44314287", "addresses": ["32MZo6kzG3DCbVWeif9LCGBtM5tVBh12sJ"], "asm": "OP_HASH160 074a69634347a98ca117b3f155ddb47aca443142 OP_EQUAL", "type": "scripthash"}, "value": 0.15012735, "n": 1}], "hex": "01000000000101f7dfc0b3ab3829198937ea8f7e5ac0b0fb6a20d31e7c2d199853a05118ec9b710100000023220020a4c3e8b78551736a8a7307da130fe0371682874a7781bc6b021833795649a1e9ffffffff02abf11300000000001976a914705a8656d8103d5252eb62707e01713f1df4426688ac7f13e5000000000017a914074a69634347a98ca117b3f155ddb47aca443142870400483045022100b668521629a0b6d33406d638462e7dd1c4e74f2537ee3753ffd2993e10f8523302206f83be8e0526a9bbc9a04c9f36d8ebd3560c583af79e621d53127801dd9396c401483045022100821bbf6273d9c7765b1c767c6a81adf2a88da745e70bf878897d77f4d5201585022074590f2d1f8630d3ff997ce34c960112bccefeb3764e022e51197edd520b31bd0147522102bfdd608b68f9f41dac4ad1e97745c073ed2f0a71179a03fcb5caf640dac9c5672103f62b1d27158b53be9caeae920614d9c61c0d4e3ab8a2b8afbc8e020933c6e68352ae00000000", "vin": [{"txinwitness": ["", "3045022100b668521629a0b6d33406d638462e7dd1c4e74f2537ee3753ffd2993e10f8523302206f83be8e0526a9bbc9a04c9f36d8ebd3560c583af79e621d53127801dd9396c401", "3045022100821bbf6273d9c7765b1c767c6a81adf2a88da745e70bf878897d77f4d5201585022074590f2d1f8630d3ff997ce34c960112bccefeb3764e022e51197edd520b31bd01", "522102bfdd608b68f9f41dac4ad1e97745c073ed2f0a71179a03fcb5caf640dac9c5672103f62b1d27158b53be9caeae920614d9c61c0d4e3ab8a2b8afbc8e020933c6e68352ae"], "sequence": 4294967295, "scriptSig": {"hex": "220020a4c3e8b78551736a8a7307da130fe0371682874a7781bc6b021833795649a1e9", "asm": "0020a4c3e8b78551736a8a7307da130fe0371682874a7781bc6b021833795649a1e9"}, "vout": 1, "txid": "719bec1851a05398192d7c1ed3206afbb0c05a7e8fea3789192938abb3c0dff7"}], "txid": "fc4025aba0d543b439e5f1f297ae90d6eb7488f05037c7d8a7f7e377bd0937b2", "blocktime": 1537876114, "version": 1, "confirmations": 11460, "time": 1537876114, "locktime": 0, "vsize": 208, "size": 374}