{"hash": "fc4135f1d7499b329b883f8d98af64ca12d2f0f4e22d4fac993abbecf8cae197", "blockhash": "000000000000000000022b45ed06c6f4ccd3cf7fb5ba4856ebd2e58215665228", "vout": [{"scriptPubKey": {"reqSigs": 1, "hex": "76a9140f7b817e818bb7837febd60e868dd84e71e3ad8088ac", "addresses": ["12Qs6DNxLRB6ezoxVer1G2n5rzRUpRLDTa"], "asm": "OP_DUP OP_HASH160 0f7b817e818bb7837febd60e868dd84e71e3ad80 OP_EQUALVERIFY OP_CHECKSIG", "type": "pubkeyhash"}, "value": 0.0251266, "n": 0}, {"scriptPubKey": {"reqSigs": 1, "hex": "a914ff67adb734f788e27e37c68746b120c6841a4ac887", "addresses": ["3QyUSB4eRYePHcvpS6k6YDMBUDGXRSSMPc"], "asm": "OP_HASH160 ff67adb734f788e27e37c68746b120c6841a4ac8 OP_EQUAL", "type": "scripthash"}, "value": 1.04603236, "n": 1}], "hex": "0100000001af79057aba9a2b0eff6f04c1360ea871028fca0d8c473f3b0c4b3e40be119b9702000000da00483045022100b95de33c117b473a8a40c122bcf13e1fb68c8b3cd83a7c25c07f1f81f7b78986022023814f977d4d64e3f6f253452329a95765196763b71646383c4f54a138324c8f0147304402201d33d58fe55895e4293aebb7cda8fb5fc6da2d98bad9bda0f5f6c4daafb75fe902206b55b54d3974a064ba74f5a50013f4ba429e30ec5844964df7f5733f4741abeb0147522102ba7ba7ef20369396e189ece0837706df9e94f61bed8996ba1fcc867b47cbf2f12103edcc3625b8fbcef2964c0b61ae748164d2a5a00c28350d2873d1f4869f5057ca52aeffffffff0214572600000000001976a9140f7b817e818bb7837febd60e868dd84e71e3ad8088ac641e3c060000000017a914ff67adb734f788e27e37c68746b120c6841a4ac88700000000", "vin": [{"sequence": 4294967295, "scriptSig": {"hex": "00483045022100b95de33c117b473a8a40c122bcf13e1fb68c8b3cd83a7c25c07f1f81f7b78986022023814f977d4d64e3f6f253452329a95765196763b71646383c4f54a138324c8f0147304402201d33d58fe55895e4293aebb7cda8fb5fc6da2d98bad9bda0f5f6c4daafb75fe902206b55b54d3974a064ba74f5a50013f4ba429e30ec5844964df7f5733f4741abeb0147522102ba7ba7ef20369396e189ece0837706df9e94f61bed8996ba1fcc867b47cbf2f12103edcc3625b8fbcef2964c0b61ae748164d2a5a00c28350d2873d1f4869f5057ca52ae", "asm": "0 3045022100b95de33c117b473a8a40c122bcf13e1fb68c8b3cd83a7c25c07f1f81f7b78986022023814f977d4d64e3f6f253452329a95765196763b71646383c4f54a138324c8f[ALL] 304402201d33d58fe55895e4293aebb7cda8fb5fc6da2d98bad9bda0f5f6c4daafb75fe902206b55b54d3974a064ba74f5a50013f4ba429e30ec5844964df7f5733f4741abeb[ALL] 522102ba7ba7ef20369396e189ece0837706df9e94f61bed8996ba1fcc867b47cbf2f12103edcc3625b8fbcef2964c0b61ae748164d2a5a00c28350d2873d1f4869f5057ca52ae"}, "vout": 2, "txid": "979b11be403e4b0c3b3f478c0dca8f0271a80e36c1046fff0e2b9aba7a0579af"}], "txid": "fc4135f1d7499b329b883f8d98af64ca12d2f0f4e22d4fac993abbecf8cae197", "blocktime": 1537869901, "version": 1, "confirmations": 11524, "time": 1537869901, "locktime": 0, "vsize": 335, "size": 335}