{"hash": "fc48eb925b65dbd4c3517f618e52780fbec623cb73b4d5505b35b2a794a369ef", "blockhash": "00000000000000000024a2167bbff67b0be802c0b01cdd79e6331c2be6459f87", "vout": [{"scriptPubKey": {"reqSigs": 1, "hex": "76a91477b475671ee151d6aaf555186cb841e52334ca9888ac", "addresses": ["1BuwbK4rqhjdKGiKM62aHUYc71TuP9PemZ"], "asm": "OP_DUP OP_HASH160 77b475671ee151d6aaf555186cb841e52334ca98 OP_EQUALVERIFY OP_CHECKSIG", "type": "pubkeyhash"}, "value": 0.01484886, "n": 0}, {"scriptPubKey": {"reqSigs": 1, "hex": "76a9143386cc8d3806662c4ca79798bcecd0b9887b6d2c88ac", "addresses": ["15hSwnUrJYjEwKpc9SF8aW5tMTJhgrwoYM"], "asm": "OP_DUP OP_HASH160 3386cc8d3806662c4ca79798bcecd0b9887b6d2c OP_EQUALVERIFY OP_CHECKSIG", "type": "pubkeyhash"}, "value": 0.00014887, "n": 1}], "hex": "0200000001752f94f4a9d903d6462495f2cffaf40841727153e4b5b5bac548055e0dbc786f010000006a47304402203ab6de7d0e9e18bf00ccadb5e6d7d080320f49b9acdbad24268e4a13b2892235022017e1e267f8c3e9d0c8808afdadb811759d6ad05355cef7094ecb3f7f5be8a6ea012103253720707114f4b721219d54e9b93959a28ccf6249c2fb0b0a85b249a6d6b980feffffff0256a81600000000001976a91477b475671ee151d6aaf555186cb841e52334ca9888ac273a0000000000001976a9143386cc8d3806662c4ca79798bcecd0b9887b6d2c88ac0d490800", "vin": [{"sequence": 4294967294, "scriptSig": {"hex": "47304402203ab6de7d0e9e18bf00ccadb5e6d7d080320f49b9acdbad24268e4a13b2892235022017e1e267f8c3e9d0c8808afdadb811759d6ad05355cef7094ecb3f7f5be8a6ea012103253720707114f4b721219d54e9b93959a28ccf6249c2fb0b0a85b249a6d6b980", "asm": "304402203ab6de7d0e9e18bf00ccadb5e6d7d080320f49b9acdbad24268e4a13b2892235022017e1e267f8c3e9d0c8808afdadb811759d6ad05355cef7094ecb3f7f5be8a6ea[ALL] 03253720707114f4b721219d54e9b93959a28ccf6249c2fb0b0a85b249a6d6b980"}, "vout": 1, "txid": "6f78bc0d5e0548c5bab5b5e45371724108f4facff2952446d603d9a9f4942f75"}], "txid": "fc48eb925b65dbd4c3517f618e52780fbec623cb73b4d5505b35b2a794a369ef", "blocktime": 1537870564, "version": 2, "confirmations": 11515, "time": 1537870564, "locktime": 542989, "vsize": 225, "size": 225}