{"hash": "fc4a8eea25fe7fe925dd4598114dc37f1a04f32e880ea2a6c32181bdcbf1a3af", "blockhash": "000000000000000000022b45ed06c6f4ccd3cf7fb5ba4856ebd2e58215665228", "vout": [{"scriptPubKey": {"reqSigs": 1, "hex": "76a914eadb075441f89b5ea0acbd624421c2665c8f271c88ac", "addresses": ["1NQoWGL4SmzmbbCfw9usr45Smgb3P9vePE"], "asm": "OP_DUP OP_HASH160 eadb075441f89b5ea0acbd624421c2665c8f271c OP_EQUALVERIFY OP_CHECKSIG", "type": "pubkeyhash"}, "value": 4.22622576, "n": 0}, {"scriptPubKey": {"reqSigs": 1, "hex": "76a9146f85194839d0a99b5bf1bd9f4edcbf1e4f23fc4c88ac", "addresses": ["1BAfTA7Fg6Hqb71Hw4UK7DMLC5ZywYRra8"], "asm": "OP_DUP OP_HASH160 6f85194839d0a99b5bf1bd9f4edcbf1e4f23fc4c OP_EQUALVERIFY OP_CHECKSIG", "type": "pubkeyhash"}, "value": 5.46e-06, "n": 1}, {"scriptPubKey": {"type": "nulldata", "hex": "6a146f6d6e69000000000000001f0000006fc23ac000", "asm": "OP_RETURN 6f6d6e69000000000000001f0000006fc23ac000"}, "value": 0.0, "n": 2}], "hex": "01000000027201c415dc85f444b29c9376cd6025a3b68555db86bf11ee9806a8a69f34147e020000006a473044022049e359723f88833bd30d979469d1f66f6bbba8d745aca09ef28551279dea2a14022015140e9d51cae8e0a6ddd960d093800002d73b814eced8a4d9dd14fbfd9adb440121033f67391989a6987603a33bee92c2a7607bd389c47533490d513861213b8a2451ffffffffb8f6c6017e405a958d66aea9f4111a5aef93c139e2c371874243ed1f16d850f2000000006a47304402204e327f3499bb88e9044906c49d968d6606f81dbe1cf1de8f4dd72cece32358ed02207e8facfbd60efc4887cd934e287538308e18d0ce3e3fd1b07c30adb862a9ef0b01210379f59e95aae2e42172fb2819f25a529b5e2e176b3bfbe7b83ad79187e909e5aeffffffff0370b53019000000001976a914eadb075441f89b5ea0acbd624421c2665c8f271c88ac22020000000000001976a9146f85194839d0a99b5bf1bd9f4edcbf1e4f23fc4c88ac0000000000000000166a146f6d6e69000000000000001f0000006fc23ac00000000000", "vin": [{"sequence": 4294967295, "scriptSig": {"hex": "473044022049e359723f88833bd30d979469d1f66f6bbba8d745aca09ef28551279dea2a14022015140e9d51cae8e0a6ddd960d093800002d73b814eced8a4d9dd14fbfd9adb440121033f67391989a6987603a33bee92c2a7607bd389c47533490d513861213b8a2451", "asm": "3044022049e359723f88833bd30d979469d1f66f6bbba8d745aca09ef28551279dea2a14022015140e9d51cae8e0a6ddd960d093800002d73b814eced8a4d9dd14fbfd9adb44[ALL] 033f67391989a6987603a33bee92c2a7607bd389c47533490d513861213b8a2451"}, "vout": 2, "txid": "7e14349fa6a80698ee11bf86db5585b6a32560cd76939cb244f485dc15c40172"}, {"sequence": 4294967295, "scriptSig": {"hex": "47304402204e327f3499bb88e9044906c49d968d6606f81dbe1cf1de8f4dd72cece32358ed02207e8facfbd60efc4887cd934e287538308e18d0ce3e3fd1b07c30adb862a9ef0b01210379f59e95aae2e42172fb2819f25a529b5e2e176b3bfbe7b83ad79187e909e5ae", "asm": "304402204e327f3499bb88e9044906c49d968d6606f81dbe1cf1de8f4dd72cece32358ed02207e8facfbd60efc4887cd934e287538308e18d0ce3e3fd1b07c30adb862a9ef0b[ALL] 0379f59e95aae2e42172fb2819f25a529b5e2e176b3bfbe7b83ad79187e909e5ae"}, "vout": 0, "txid": "f250d8161fed43428771c3e239c193ef5a1a11f4a9ae668d955a407e01c6f6b8"}], "txid": "fc4a8eea25fe7fe925dd4598114dc37f1a04f32e880ea2a6c32181bdcbf1a3af", "blocktime": 1537869901, "version": 1, "confirmations": 11522, "time": 1537869901, "locktime": 0, "vsize": 403, "size": 403}