{"hash": "f05c92776492aa42fe7b178c6700111e8913d529e7ac71e9459cae565389d960", "blockhash": "0000000000000000000dcc0f55137456b1a82d3642486a52398922ac4d620174", "vout": [{"scriptPubKey": {"reqSigs": 1, "hex": "a914777547acd9241aa942a9275297b50a5b4f406ee687", "addresses": ["3Caeq8MFLWDTGiLM5d9LcAisEAMikykjPA"], "asm": "OP_HASH160 777547acd9241aa942a9275297b50a5b4f406ee6 OP_EQUAL", "type": "scripthash"}, "value": 0.03121829, "n": 0}, {"scriptPubKey": {"reqSigs": 1, "hex": "a9147abe836b431608e435a9d59d8823b02fd91a303a87", "addresses": ["3Ct2b3gaBo6hjHUuYT19BHrJLWDLuzxuiu"], "asm": "OP_HASH160 7abe836b431608e435a9d59d8823b02fd91a303a OP_EQUAL", "type": "scripthash"}, "value": 0.0191521, "n": 1}], "hex": "02000000000101aae0ea641620766bc678c2da7c8e8321c50dd1164a522f5656ff77d9d6faf8710100000000fdffffff02a5a22f000000000017a914777547acd9241aa942a9275297b50a5b4f406ee6874a391d000000000017a9147abe836b431608e435a9d59d8823b02fd91a303a870247304402203871f528b0178d2aa324e21f51d3f2658245d10ff82a6641c2c1f3ea0724653f02201f2db3d566839d15b09d1c00c1b971be60521ea5aa69a9c18841cb08138fb266012103874af30826784ae4c5fd9f32b4372fcd89187f68c0833e69ea4d7007657776cf0b490800", "vin": [{"txinwitness": ["304402203871f528b0178d2aa324e21f51d3f2658245d10ff82a6641c2c1f3ea0724653f02201f2db3d566839d15b09d1c00c1b971be60521ea5aa69a9c18841cb08138fb26601", "03874af30826784ae4c5fd9f32b4372fcd89187f68c0833e69ea4d7007657776cf"], "sequence": 4294967293, "scriptSig": {"hex": "", "asm": ""}, "vout": 1, "txid": "71f8fad6d977ff56562f524a16d10dc521838e7cdac278c66b76201664eae0aa"}], "txid": "fc4b6646d67ddec7aec086f81dc8d9b4f01567873646c41d089c7fb07ca33a4a", "blocktime": 1537870268, "version": 2, "confirmations": 11517, "time": 1537870268, "locktime": 542987, "vsize": 143, "size": 224}