{"hash": "fc4bf2d9cd4ee404b44395bdce9806da41b89f16bb9cf64d1f2fb43030f6df8c", "blockhash": "0000000000000000000dcc0f55137456b1a82d3642486a52398922ac4d620174", "vout": [{"scriptPubKey": {"reqSigs": 1, "hex": "a914278c4da1e78034359e224c802982f99a468938c887", "addresses": ["35J8MTynAi4K3KgJEy7XumXq3n5JpNdu98"], "asm": "OP_HASH160 278c4da1e78034359e224c802982f99a468938c8 OP_EQUAL", "type": "scripthash"}, "value": 0.00149832, "n": 0}, {"scriptPubKey": {"reqSigs": 1, "hex": "76a914b6a9d804486a22e8ed16798c6bd57e90d22c803388ac", "addresses": ["1HeqSsN126Ur5rNiKceynXqmTXi3W1sbvW"], "asm": "OP_DUP OP_HASH160 b6a9d804486a22e8ed16798c6bd57e90d22c8033 OP_EQUALVERIFY OP_CHECKSIG", "type": "pubkeyhash"}, "value": 0.01891373, "n": 1}], "hex": "010000000122c52ad354d926120a4ef846be69b1ede340c025fb3901ce32d362801206ebea010000006b483045022100cbb0a4c490275aacd894de244ccf2c2609020990cdd3c0085c99e3a034eb2eac02203374c004e74a0267d63a657e51f14750ddc74e5e42d30a846c9e2e7c11dc65460121026b0874cdfdbb5b9355fdb2e0262723fbd74965bd9aa633ceb60f1a7eb5e5592cffffffff02484902000000000017a914278c4da1e78034359e224c802982f99a468938c8872ddc1c00000000001976a914b6a9d804486a22e8ed16798c6bd57e90d22c803388ac00000000", "vin": [{"sequence": 4294967295, "scriptSig": {"hex": "483045022100cbb0a4c490275aacd894de244ccf2c2609020990cdd3c0085c99e3a034eb2eac02203374c004e74a0267d63a657e51f14750ddc74e5e42d30a846c9e2e7c11dc65460121026b0874cdfdbb5b9355fdb2e0262723fbd74965bd9aa633ceb60f1a7eb5e5592c", "asm": "3045022100cbb0a4c490275aacd894de244ccf2c2609020990cdd3c0085c99e3a034eb2eac02203374c004e74a0267d63a657e51f14750ddc74e5e42d30a846c9e2e7c11dc6546[ALL] 026b0874cdfdbb5b9355fdb2e0262723fbd74965bd9aa633ceb60f1a7eb5e5592c"}, "vout": 1, "txid": "eaeb06128062d332ce0139fb25c040e3edb169be46f84e0a1226d954d32ac522"}], "txid": "fc4bf2d9cd4ee404b44395bdce9806da41b89f16bb9cf64d1f2fb43030f6df8c", "blocktime": 1537870268, "version": 1, "confirmations": 11518, "time": 1537870268, "locktime": 0, "vsize": 224, "size": 224}