{"hash": "fc4c35e0ace0445a7d9929071f5e88803b0fa0121fb4acb62d09e883cbbcf12b", "blockhash": "0000000000000000001cda96e906b7601b7a6fb1a3b62bca570a9e5d8f4b3de1", "vout": [{"scriptPubKey": {"reqSigs": 1, "hex": "a914c7b2c6087472aadc3e5ebb6386bfdc80701eabf187", "addresses": ["3KtvZ86bg7f3YZgcxyNJiNXtyX3si6vcdu"], "asm": "OP_HASH160 c7b2c6087472aadc3e5ebb6386bfdc80701eabf1 OP_EQUAL", "type": "scripthash"}, "value": 0.04829179, "n": 0}, {"scriptPubKey": {"reqSigs": 1, "hex": "76a9141a9c2efa1b46f5cc922e8c5e66f9f1518a63768e88ac", "addresses": ["13Rhfor3Q2K5nQdwiEXRGb3hEqSt2aQKwb"], "asm": "OP_DUP OP_HASH160 1a9c2efa1b46f5cc922e8c5e66f9f1518a63768e OP_EQUALVERIFY OP_CHECKSIG", "type": "pubkeyhash"}, "value": 0.00238376, "n": 1}], "hex": "01000000053ea4b52d9f095925acfaaea01bac52a698d14ee50c539e10649499fb0195a329010000006b483045022100d33a638c38ef74a3d25910a07fa971c39aebca65444d3c9b3c64e10f86427c38022031258c68e6252db840a8906e0629c19ef3c4e067bc19f3168016643f487f6bf00121023cd142313d10cacfdd067179368b08cd88c855b9fe8806eebab329173d0c1f80ffffffff392265196eaaf0aaac3762ea279b93209b6fac9ff6def10d5f23be8b1aa8d0840e0000006a4730440220339483233f71e797b647608a903f4ae72673dc8f1148a587636fe5bdc0f195c7022046c4e1a5af4aa651a8111633e5cf4147ab0e9c26fd6a51bb71ce2a18c600ee8f012102bbd7b36d857e0fac839cbcb408259be4708258b8196ddc70e0e82b020cf675efffffffff9deb55f2266ab79f8b0e2a066d6c10239b7da73c7aca6368cb62b374a03561e1000000006a47304402202075af937d5350a1f91022c378eec703f5e4d7116e8d135069a90a928c684a9f0220719faf801fbc4f3e34d0ad990ee30c423eda35cd575f15f2be495c86902b96ab012103da88824bd58b743d3503eaf85f49d02b7c054f307b34714521810e2aa32db284ffffffffd22f015566e790b6f4e7695cde2cd0b4bf5ca042fbf06ecde78519a2a4d6614a280000006b483045022100c82b56decbbe050bc3b7660f5a066a633a895d16bcfb1470760ea84e24e269e40220109ec7575bb360f6b8d15808e4b37f4dfbe9af29c88291dab8c3c25629e27878012102b08e5d30d9009996605f39a730a47fe4625120598e6442a2d8a748b5990e59a3ffffffff18652308356e4311eac4c257a6f1cc01d06268dc96f11ac5405e0e996d873c0c000000006b483045022100880a3813489c2590fcc086253e95f0bf33380e8f7b9ec7c19b718d7db050ab6b0220016fb57cdd9b964d45e9eeb5b3b11be4fdd60dc024da9d8538242e5fe0a38190012103e74adb887e5120eb8df830737b31e644a641363abb50d47f659e29f83ec1513fffffffff02fbaf49000000000017a914c7b2c6087472aadc3e5ebb6386bfdc80701eabf18728a30300000000001976a9141a9c2efa1b46f5cc922e8c5e66f9f1518a63768e88ac00000000", "vin": [{"sequence": 4294967295, "scriptSig": {"hex": "483045022100d33a638c38ef74a3d25910a07fa971c39aebca65444d3c9b3c64e10f86427c38022031258c68e6252db840a8906e0629c19ef3c4e067bc19f3168016643f487f6bf00121023cd142313d10cacfdd067179368b08cd88c855b9fe8806eebab329173d0c1f80", "asm": "3045022100d33a638c38ef74a3d25910a07fa971c39aebca65444d3c9b3c64e10f86427c38022031258c68e6252db840a8906e0629c19ef3c4e067bc19f3168016643f487f6bf0[ALL] 023cd142313d10cacfdd067179368b08cd88c855b9fe8806eebab329173d0c1f80"}, "vout": 1, "txid": "29a39501fb999464109e530ce54ed198a652ac1ba0aefaac2559099f2db5a43e"}, {"sequence": 4294967295, "scriptSig": {"hex": "4730440220339483233f71e797b647608a903f4ae72673dc8f1148a587636fe5bdc0f195c7022046c4e1a5af4aa651a8111633e5cf4147ab0e9c26fd6a51bb71ce2a18c600ee8f012102bbd7b36d857e0fac839cbcb408259be4708258b8196ddc70e0e82b020cf675ef", "asm": "30440220339483233f71e797b647608a903f4ae72673dc8f1148a587636fe5bdc0f195c7022046c4e1a5af4aa651a8111633e5cf4147ab0e9c26fd6a51bb71ce2a18c600ee8f[ALL] 02bbd7b36d857e0fac839cbcb408259be4708258b8196ddc70e0e82b020cf675ef"}, "vout": 14, "txid": "84d0a81a8bbe235f0df1def69fac6f9b20939b27ea6237acaaf0aa6e19652239"}, {"sequence": 4294967295, "scriptSig": {"hex": "47304402202075af937d5350a1f91022c378eec703f5e4d7116e8d135069a90a928c684a9f0220719faf801fbc4f3e34d0ad990ee30c423eda35cd575f15f2be495c86902b96ab012103da88824bd58b743d3503eaf85f49d02b7c054f307b34714521810e2aa32db284", "asm": "304402202075af937d5350a1f91022c378eec703f5e4d7116e8d135069a90a928c684a9f0220719faf801fbc4f3e34d0ad990ee30c423eda35cd575f15f2be495c86902b96ab[ALL] 03da88824bd58b743d3503eaf85f49d02b7c054f307b34714521810e2aa32db284"}, "vout": 0, "txid": "e16135a074b362cb6863ca7a3ca77d9b23106c6d062a0e8b9fb76a26f255eb9d"}, {"sequence": 4294967295, "scriptSig": {"hex": "483045022100c82b56decbbe050bc3b7660f5a066a633a895d16bcfb1470760ea84e24e269e40220109ec7575bb360f6b8d15808e4b37f4dfbe9af29c88291dab8c3c25629e27878012102b08e5d30d9009996605f39a730a47fe4625120598e6442a2d8a748b5990e59a3", "asm": "3045022100c82b56decbbe050bc3b7660f5a066a633a895d16bcfb1470760ea84e24e269e40220109ec7575bb360f6b8d15808e4b37f4dfbe9af29c88291dab8c3c25629e27878[ALL] 02b08e5d30d9009996605f39a730a47fe4625120598e6442a2d8a748b5990e59a3"}, "vout": 40, "txid": "4a61d6a4a21985e7cd6ef0fb42a05cbfb4d02cde5c69e7f4b690e76655012fd2"}, {"sequence": 4294967295, "scriptSig": {"hex": "483045022100880a3813489c2590fcc086253e95f0bf33380e8f7b9ec7c19b718d7db050ab6b0220016fb57cdd9b964d45e9eeb5b3b11be4fdd60dc024da9d8538242e5fe0a38190012103e74adb887e5120eb8df830737b31e644a641363abb50d47f659e29f83ec1513f", "asm": "3045022100880a3813489c2590fcc086253e95f0bf33380e8f7b9ec7c19b718d7db050ab6b0220016fb57cdd9b964d45e9eeb5b3b11be4fdd60dc024da9d8538242e5fe0a38190[ALL] 03e74adb887e5120eb8df830737b31e644a641363abb50d47f659e29f83ec1513f"}, "vout": 0, "txid": "0c3c876d990e5e40c51af196dc6862d001ccf1a657c2c4ea11436e3508236518"}], "txid": "fc4c35e0ace0445a7d9929071f5e88803b0fa0121fb4acb62d09e883cbbcf12b", "blocktime": 1537873282, "version": 1, "confirmations": 11480, "time": 1537873282, "locktime": 0, "vsize": 814, "size": 814}