{"hash": "fc5192b78a1e1248bca08a34bdc176d7ae1a8a82cb6c05bf4a41e2c52c105c0c", "blockhash": "0000000000000000000e13cef7c366c0283d82e591d1acd082e914b08063cdf1", "vout": [{"scriptPubKey": {"reqSigs": 1, "hex": "76a9145409096108698019f503a69917a41421206ce6a688ac", "addresses": ["18fLazSLiGSzW3wPKboTc5YMm8Yp5kwBsx"], "asm": "OP_DUP OP_HASH160 5409096108698019f503a69917a41421206ce6a6 OP_EQUALVERIFY OP_CHECKSIG", "type": "pubkeyhash"}, "value": 0.00645916, "n": 0}, {"scriptPubKey": {"type": "nulldata", "hex": "6a4c50000077920001a0817281676d533cf647e040e3ef3236678a625097bcbefa6b8351586b4e2b5d7f7fe12a80b4161f8a251134e4055baa0c830614a9679223e8961d100759d4ba30d2c37bb011d97e02cf", "asm": "OP_RETURN 000077920001a0817281676d533cf647e040e3ef3236678a625097bcbefa6b8351586b4e2b5d7f7fe12a80b4161f8a251134e4055baa0c830614a9679223e8961d100759d4ba30d2c37bb011d97e02cf"}, "value": 0.0, "n": 1}], "hex": "0100000001be4a419fceb09f318be125d0bf4c38c0f91d6d060c60b62ccdf9d3b4cc7f40b7010000006a473044022077647714d994dd057317f1ee04107645f1d9c9bcd9619fe953db2a7533c69d7d02201160ac13ae636fe70fc66de5690a6aaa4a5d9c4adadf5826c08674c8e3dedda50121026b28ff34ffb525ae9ca343510943df462f3839ca01bb5d8f4339cd2870cea0d0ffffffff021cdb0900000000001976a9145409096108698019f503a69917a41421206ce6a688ac0000000000000000536a4c50000077920001a0817281676d533cf647e040e3ef3236678a625097bcbefa6b8351586b4e2b5d7f7fe12a80b4161f8a251134e4055baa0c830614a9679223e8961d100759d4ba30d2c37bb011d97e02cf00000000", "vin": [{"sequence": 4294967295, "scriptSig": {"hex": "473044022077647714d994dd057317f1ee04107645f1d9c9bcd9619fe953db2a7533c69d7d02201160ac13ae636fe70fc66de5690a6aaa4a5d9c4adadf5826c08674c8e3dedda50121026b28ff34ffb525ae9ca343510943df462f3839ca01bb5d8f4339cd2870cea0d0", "asm": "3044022077647714d994dd057317f1ee04107645f1d9c9bcd9619fe953db2a7533c69d7d02201160ac13ae636fe70fc66de5690a6aaa4a5d9c4adadf5826c08674c8e3dedda5[ALL] 026b28ff34ffb525ae9ca343510943df462f3839ca01bb5d8f4339cd2870cea0d0"}, "vout": 1, "txid": "b7407fccb4d3f9cd2cb6600c066d1df9c0384cbfd025e18b319fb0ce9f414abe"}], "txid": "fc5192b78a1e1248bca08a34bdc176d7ae1a8a82cb6c05bf4a41e2c52c105c0c", "blocktime": 1537871767, "version": 1, "confirmations": 11495, "time": 1537871767, "locktime": 0, "vsize": 283, "size": 283}