{"hash": "fc543ae555e985601225cfead70d76888ca6186a71dbc94b1b178d9ee642c38e", "blockhash": "0000000000000000000e13cef7c366c0283d82e591d1acd082e914b08063cdf1", "vout": [{"scriptPubKey": {"reqSigs": 1, "hex": "76a914ad556e06337a7ff142f888ad39c1ebef54a5a0b988ac", "addresses": ["1GoWExDUm9HNPmh9W2CCykUdMwm4WVX4fZ"], "asm": "OP_DUP OP_HASH160 ad556e06337a7ff142f888ad39c1ebef54a5a0b9 OP_EQUALVERIFY OP_CHECKSIG", "type": "pubkeyhash"}, "value": 0.00117167, "n": 0}, {"scriptPubKey": {"reqSigs": 1, "hex": "76a914778f6ec9e09ce50a2b81b824770a3af191c5f7d288ac", "addresses": ["1BuBEiFdwqSfdBrusL3F2wJGgGgwzgT99s"], "asm": "OP_DUP OP_HASH160 778f6ec9e09ce50a2b81b824770a3af191c5f7d2 OP_EQUALVERIFY OP_CHECKSIG", "type": "pubkeyhash"}, "value": 0.00360919, "n": 1}], "hex": "010000000162fbdae7ed098e5140b53d18485c2ff66b51670fd65d6488e807a519a2638440010000006b483045022100a6ee06e936f67dbfe44015d468885a3c25d547feba99589287fe6412e514ff8a02204fa16b6b75f606a036d25da1ad72869621b3a1f73f1681334174e365965406d70121027a3d0c9f06b064e11740bac9597888006950d178fea5c3f22cc51309f6c9c6e4ffffffff02afc90100000000001976a914ad556e06337a7ff142f888ad39c1ebef54a5a0b988acd7810500000000001976a914778f6ec9e09ce50a2b81b824770a3af191c5f7d288ac00000000", "vin": [{"sequence": 4294967295, "scriptSig": {"hex": "483045022100a6ee06e936f67dbfe44015d468885a3c25d547feba99589287fe6412e514ff8a02204fa16b6b75f606a036d25da1ad72869621b3a1f73f1681334174e365965406d70121027a3d0c9f06b064e11740bac9597888006950d178fea5c3f22cc51309f6c9c6e4", "asm": "3045022100a6ee06e936f67dbfe44015d468885a3c25d547feba99589287fe6412e514ff8a02204fa16b6b75f606a036d25da1ad72869621b3a1f73f1681334174e365965406d7[ALL] 027a3d0c9f06b064e11740bac9597888006950d178fea5c3f22cc51309f6c9c6e4"}, "vout": 1, "txid": "408463a219a507e888645dd60f67516bf62f5c48183db540518e09ede7dafb62"}], "txid": "fc543ae555e985601225cfead70d76888ca6186a71dbc94b1b178d9ee642c38e", "blocktime": 1537871767, "version": 1, "confirmations": 11495, "time": 1537871767, "locktime": 0, "vsize": 226, "size": 226}