{"hash": "fc5ee4f1dacc1f1aea375a4b4344188e4532ad42d6ae8ba2b9eec70372da8f97", "blockhash": "0000000000000000001cda96e906b7601b7a6fb1a3b62bca570a9e5d8f4b3de1", "vout": [{"scriptPubKey": {"reqSigs": 1, "hex": "76a9144c2643397e7288603f5f0a27314e46937b21ac3c88ac", "addresses": ["17weC7S3KYCSJDwoDBgae6nYDKx3sQjBku"], "asm": "OP_DUP OP_HASH160 4c2643397e7288603f5f0a27314e46937b21ac3c OP_EQUALVERIFY OP_CHECKSIG", "type": "pubkeyhash"}, "value": 0.00284839, "n": 0}], "hex": "0100000001e50d2ea5a5e18f0d24d54d3c66a21256c50f2d916143de7baeff506e2dd04753000000006b483045022100860726242aadb6d82ee6b8883b868455d8d44655630818502f77e00a45396d02022031744c3052ba2ac774dec108714c43c0984d3db276ef00fa422251baca95d5ab01210274e1641fe87628beaab4e437beeea146f9d701e8a4ffd032613a07b4a33a9d5cffffffff01a7580400000000001976a9144c2643397e7288603f5f0a27314e46937b21ac3c88ac00000000", "vin": [{"sequence": 4294967295, "scriptSig": {"hex": "483045022100860726242aadb6d82ee6b8883b868455d8d44655630818502f77e00a45396d02022031744c3052ba2ac774dec108714c43c0984d3db276ef00fa422251baca95d5ab01210274e1641fe87628beaab4e437beeea146f9d701e8a4ffd032613a07b4a33a9d5c", "asm": "3045022100860726242aadb6d82ee6b8883b868455d8d44655630818502f77e00a45396d02022031744c3052ba2ac774dec108714c43c0984d3db276ef00fa422251baca95d5ab[ALL] 0274e1641fe87628beaab4e437beeea146f9d701e8a4ffd032613a07b4a33a9d5c"}, "vout": 0, "txid": "5347d02d6e50ffae7bde4361912d0fc55612a2663c4dd5240d8fe1a5a52e0de5"}], "txid": "fc5ee4f1dacc1f1aea375a4b4344188e4532ad42d6ae8ba2b9eec70372da8f97", "blocktime": 1537873282, "version": 1, "confirmations": 11484, "time": 1537873282, "locktime": 0, "vsize": 192, "size": 192}