{"hash": "fc60a9dc3957565d385752726f8fd915368d4b2092204b24b15bcb0fd97a8acd", "blockhash": "0000000000000000001cda96e906b7601b7a6fb1a3b62bca570a9e5d8f4b3de1", "vout": [{"scriptPubKey": {"reqSigs": 1, "hex": "76a9146cc82bac16d6ec5d0e8c23292ca657dcb84f47ce88ac", "addresses": ["1AvBmpEj6menu4qJiWcRHXoVDaNSf4xSFv"], "asm": "OP_DUP OP_HASH160 6cc82bac16d6ec5d0e8c23292ca657dcb84f47ce OP_EQUALVERIFY OP_CHECKSIG", "type": "pubkeyhash"}, "value": 0.0230342, "n": 0}, {"scriptPubKey": {"reqSigs": 1, "hex": "a914057d3627e40d98eb9538e8ef2451696c065863e087", "addresses": ["32C3JMTwhoXEzAiM5LwU9hEJiHdL9zi56e"], "asm": "OP_HASH160 057d3627e40d98eb9538e8ef2451696c065863e0 OP_EQUAL", "type": "scripthash"}, "value": 0.5, "n": 1}], "hex": "0100000002fb9af3717b6f4740c2624d9727b486463ef438539a09d39cb36239cd0f143041000000006a473044022052a0722d13b6e11fb6bee9436cb41c6d1e1edea0eb43988ad4991790fa107ff80220100ab0c3c23020c021f0f693130ceb66838623c27fc583921e6b99c3fbcb6234012102b768ccfdc55e73cf9531b3657a95b117e3f470f5ba6177ad1907faaa7e726a1fffffffff05b482b4e3d743f8452afa18549ed88687ba413e932db350512d6c4088ff9c78010000006a47304402206580197690fffd95476a17f66aa79c4c4e461b352c7cb3df95218319d60d985c02206f7fd38a0124f94682158f0f0cbe911a03989044835cd66c0170a115b70be5af01210234bd8b19008f6fec954e72e358bbe2b89a305d092adfeceb061414230e5cfbecffffffff02bc252300000000001976a9146cc82bac16d6ec5d0e8c23292ca657dcb84f47ce88ac80f0fa020000000017a914057d3627e40d98eb9538e8ef2451696c065863e08700000000", "vin": [{"sequence": 4294967295, "scriptSig": {"hex": "473044022052a0722d13b6e11fb6bee9436cb41c6d1e1edea0eb43988ad4991790fa107ff80220100ab0c3c23020c021f0f693130ceb66838623c27fc583921e6b99c3fbcb6234012102b768ccfdc55e73cf9531b3657a95b117e3f470f5ba6177ad1907faaa7e726a1f", "asm": "3044022052a0722d13b6e11fb6bee9436cb41c6d1e1edea0eb43988ad4991790fa107ff80220100ab0c3c23020c021f0f693130ceb66838623c27fc583921e6b99c3fbcb6234[ALL] 02b768ccfdc55e73cf9531b3657a95b117e3f470f5ba6177ad1907faaa7e726a1f"}, "vout": 0, "txid": "4130140fcd3962b39cd3099a5338f43e4686b427974d62c240476f7b71f39afb"}, {"sequence": 4294967295, "scriptSig": {"hex": "47304402206580197690fffd95476a17f66aa79c4c4e461b352c7cb3df95218319d60d985c02206f7fd38a0124f94682158f0f0cbe911a03989044835cd66c0170a115b70be5af01210234bd8b19008f6fec954e72e358bbe2b89a305d092adfeceb061414230e5cfbec", "asm": "304402206580197690fffd95476a17f66aa79c4c4e461b352c7cb3df95218319d60d985c02206f7fd38a0124f94682158f0f0cbe911a03989044835cd66c0170a115b70be5af[ALL] 0234bd8b19008f6fec954e72e358bbe2b89a305d092adfeceb061414230e5cfbec"}, "vout": 1, "txid": "789cff88406c2d5150b32d933e41ba8786d89e5418fa2a45f843d7e3b482b405"}], "txid": "fc60a9dc3957565d385752726f8fd915368d4b2092204b24b15bcb0fd97a8acd", "blocktime": 1537873282, "version": 1, "confirmations": 11481, "time": 1537873282, "locktime": 0, "vsize": 370, "size": 370}