{"hash": "fc60f0a7fbfd68e9a140fec86f209cbb2e1be20ba67d53def107e79e9257afe1", "blockhash": "0000000000000000000dcc0f55137456b1a82d3642486a52398922ac4d620174", "vout": [{"scriptPubKey": {"reqSigs": 1, "hex": "76a914d243e6abb9a60fbff430b421d2df4b7d59ec186088ac", "addresses": ["1LAnF8h3qMGx3TSwNUHVneBZUEpwE4gu3D"], "asm": "OP_DUP OP_HASH160 d243e6abb9a60fbff430b421d2df4b7d59ec1860 OP_EQUALVERIFY OP_CHECKSIG", "type": "pubkeyhash"}, "value": 0.00076972, "n": 0}, {"scriptPubKey": {"reqSigs": 1, "hex": "76a9143851f34d13937b673a7d24a1950bb5b21ce94af388ac", "addresses": ["168o1kqNquEJeR9vosUB5fw4eAwcVAgh8P"], "asm": "OP_DUP OP_HASH160 3851f34d13937b673a7d24a1950bb5b21ce94af3 OP_EQUALVERIFY OP_CHECKSIG", "type": "pubkeyhash"}, "value": 5.46e-06, "n": 1}, {"scriptPubKey": {"type": "nulldata", "hex": "6a146f6d6e69000000000000001f0000005bb5a8fdca", "asm": "OP_RETURN 6f6d6e69000000000000001f0000005bb5a8fdca"}, "value": 0.0, "n": 2}], "hex": "0100000002f858a33d93c446422830271bfe6856ced74a7a9a9f6b6f76f86f301e1bf48bf1020000006b483045022100b81d39bc408ee1c8fbe5ed59e1cf581da841941498585fbf752a562a3872f20002205d1b6560d6ad6b48f613cbffcb754f62df0eb71e2521933dd49168243c9ae23301210280a84789eb694e0ab97ac474008ef198dbdac6de29d8ff8e8e212ec1dcfa74a6ffffffffcf4bde188a63d91915dc27cb45835b0389aa5c47675108cdea511bbaafa0c136000000006a47304402202082070dccedc38a1c424050fd9cffc279e8afe5e2545d9c155d10a42e2827810220456eaa07566757f10eb07a2306220f6c991b2fce4b4a8f4b0831dd8c9676a93f01210271977291b74f1f5f5c42157e8aae804664eaaeccfd097918450d37f28fb94d77ffffffff03ac2c0100000000001976a914d243e6abb9a60fbff430b421d2df4b7d59ec186088ac22020000000000001976a9143851f34d13937b673a7d24a1950bb5b21ce94af388ac0000000000000000166a146f6d6e69000000000000001f0000005bb5a8fdca00000000", "vin": [{"sequence": 4294967295, "scriptSig": {"hex": "483045022100b81d39bc408ee1c8fbe5ed59e1cf581da841941498585fbf752a562a3872f20002205d1b6560d6ad6b48f613cbffcb754f62df0eb71e2521933dd49168243c9ae23301210280a84789eb694e0ab97ac474008ef198dbdac6de29d8ff8e8e212ec1dcfa74a6", "asm": "3045022100b81d39bc408ee1c8fbe5ed59e1cf581da841941498585fbf752a562a3872f20002205d1b6560d6ad6b48f613cbffcb754f62df0eb71e2521933dd49168243c9ae233[ALL] 0280a84789eb694e0ab97ac474008ef198dbdac6de29d8ff8e8e212ec1dcfa74a6"}, "vout": 2, "txid": "f18bf41b1e306ff8766f6b9f9a7a4ad7ce5668fe1b2730284246c4933da358f8"}, {"sequence": 4294967295, "scriptSig": {"hex": "47304402202082070dccedc38a1c424050fd9cffc279e8afe5e2545d9c155d10a42e2827810220456eaa07566757f10eb07a2306220f6c991b2fce4b4a8f4b0831dd8c9676a93f01210271977291b74f1f5f5c42157e8aae804664eaaeccfd097918450d37f28fb94d77", "asm": "304402202082070dccedc38a1c424050fd9cffc279e8afe5e2545d9c155d10a42e2827810220456eaa07566757f10eb07a2306220f6c991b2fce4b4a8f4b0831dd8c9676a93f[ALL] 0271977291b74f1f5f5c42157e8aae804664eaaeccfd097918450d37f28fb94d77"}, "vout": 0, "txid": "36c1a0afba1b51eacd085167475caa89035b8345cb27dc1519d9638a18de4bcf"}], "txid": "fc60f0a7fbfd68e9a140fec86f209cbb2e1be20ba67d53def107e79e9257afe1", "blocktime": 1537870268, "version": 1, "confirmations": 11516, "time": 1537870268, "locktime": 0, "vsize": 404, "size": 404}