{"hash": "fc60ce1d48ff81c5bc9b9df3ddf1f363d7281c0a992434d8460db6994c9d5e1b", "blockhash": "00000000000000000017f5eb5941039fbcee6240d03bc1f2f8e35350df66a1d8", "vout": [{"scriptPubKey": {"reqSigs": 1, "hex": "76a914bc7d775591377123c0296ea9e0ced17734cee0e188ac", "addresses": ["1JBeLc6FMG7nz1GukfC34GmfpPnGwzsvAZ"], "asm": "OP_DUP OP_HASH160 bc7d775591377123c0296ea9e0ced17734cee0e1 OP_EQUALVERIFY OP_CHECKSIG", "type": "pubkeyhash"}, "value": 0.00868302, "n": 0}, {"scriptPubKey": {"reqSigs": 1, "hex": "76a914c971096671c459f973216dedc5dce678f615b29b88ac", "addresses": ["1KN8EVEpwmgCWaEk2FcnxEpLbYRKpBHUj2"], "asm": "OP_DUP OP_HASH160 c971096671c459f973216dedc5dce678f615b29b OP_EQUALVERIFY OP_CHECKSIG", "type": "pubkeyhash"}, "value": 0.15916577, "n": 1}], "hex": "01000000015e19933698d746241299d176ec5d81f9da2b69511f6728bbc2eec40b3deb0fe8010000006b48304502210091c19650e82b04d11358b71f0f973830917d0d643572d9fc8135efd76b35be850220543f9e159ae14e673471656eae380cc6523d861c16723c252a9808f868b1767e012102918e26ba6e68ccc89556e590f9a84ea2a612e19593a71ad2ec9ac2a4eb20293affffffff02ce3f0d00000000001976a914bc7d775591377123c0296ea9e0ced17734cee0e188ac21def200000000001976a914c971096671c459f973216dedc5dce678f615b29b88ac00000000", "vin": [{"sequence": 4294967295, "scriptSig": {"hex": "48304502210091c19650e82b04d11358b71f0f973830917d0d643572d9fc8135efd76b35be850220543f9e159ae14e673471656eae380cc6523d861c16723c252a9808f868b1767e012102918e26ba6e68ccc89556e590f9a84ea2a612e19593a71ad2ec9ac2a4eb20293a", "asm": "304502210091c19650e82b04d11358b71f0f973830917d0d643572d9fc8135efd76b35be850220543f9e159ae14e673471656eae380cc6523d861c16723c252a9808f868b1767e[ALL] 02918e26ba6e68ccc89556e590f9a84ea2a612e19593a71ad2ec9ac2a4eb20293a"}, "vout": 1, "txid": "e80feb3d0bc4eec2bb28671f51692bdaf9815dec76d199122446d7983693195e"}], "txid": "fc60ce1d48ff81c5bc9b9df3ddf1f363d7281c0a992434d8460db6994c9d5e1b", "blocktime": 1537874412, "version": 1, "confirmations": 11467, "time": 1537874412, "locktime": 0, "vsize": 226, "size": 226}