{"hash": "fc67fe6cdfed055e98fd669694b39933eb4c4711ba5db5dacef2a6a6fedc7032", "blockhash": "0000000000000000001f0ddff1eddb255c1121bcd4da4f1bc9a0da00cae72433", "vout": [{"scriptPubKey": {"reqSigs": 1, "hex": "76a914fb3f4f8a0eb0625f224d3b2e10d17c767539a95588ac", "addresses": ["1PuUT48hYrpLkgW1rEi22xwHbrap1cgEvt"], "asm": "OP_DUP OP_HASH160 fb3f4f8a0eb0625f224d3b2e10d17c767539a955 OP_EQUALVERIFY OP_CHECKSIG", "type": "pubkeyhash"}, "value": 0.002, "n": 0}, {"scriptPubKey": {"reqSigs": 1, "hex": "76a91470b4d2f36681de2bcafdab81d4648c7fa7f675b188ac", "addresses": ["1BGwJMoRWjcrxy5FnEabZWWnemzHNyLRDV"], "asm": "OP_DUP OP_HASH160 70b4d2f36681de2bcafdab81d4648c7fa7f675b1 OP_EQUALVERIFY OP_CHECKSIG", "type": "pubkeyhash"}, "value": 0.0049779, "n": 1}], "hex": "01000000017dbd69a54a128fce3f102f5fe121e70720ca1370591edde6795464327202c85c000000006a473044022002eed620bb6a0d011d49d0e369b9e665dcfa4431c678928f4e3da6a9cc50239102204efa717a86760a2b81cf7003d1fb840dc08ccd8e0fc50f7b8c7a958e87e5d97301210399394ba9a93a7ed68fbc460f9c02891343a85e7b2ce67de661d240e930a88451ffffffff02400d0300000000001976a914fb3f4f8a0eb0625f224d3b2e10d17c767539a95588ac7e980700000000001976a91470b4d2f36681de2bcafdab81d4648c7fa7f675b188ac00000000", "vin": [{"sequence": 4294967295, "scriptSig": {"hex": "473044022002eed620bb6a0d011d49d0e369b9e665dcfa4431c678928f4e3da6a9cc50239102204efa717a86760a2b81cf7003d1fb840dc08ccd8e0fc50f7b8c7a958e87e5d97301210399394ba9a93a7ed68fbc460f9c02891343a85e7b2ce67de661d240e930a88451", "asm": "3044022002eed620bb6a0d011d49d0e369b9e665dcfa4431c678928f4e3da6a9cc50239102204efa717a86760a2b81cf7003d1fb840dc08ccd8e0fc50f7b8c7a958e87e5d973[ALL] 0399394ba9a93a7ed68fbc460f9c02891343a85e7b2ce67de661d240e930a88451"}, "vout": 0, "txid": "5cc8027232645479e6dd1e597013ca2007e721e15f2f103fce8f124aa569bd7d"}], "txid": "fc67fe6cdfed055e98fd669694b39933eb4c4711ba5db5dacef2a6a6fedc7032", "blocktime": 1537872018, "version": 1, "confirmations": 11489, "time": 1537872018, "locktime": 0, "vsize": 225, "size": 225}