{"hash": "fc68479f7a83bc5ab14be8b2465fdc4d7f4a421ba1e2a0f0d225b05f2fae421c", "blockhash": "0000000000000000000e13cef7c366c0283d82e591d1acd082e914b08063cdf1", "vout": [{"scriptPubKey": {"reqSigs": 1, "hex": "76a914a00fcbd3345c0b5485b25cee66aa7797a53fce6388ac", "addresses": ["1FbL3ERjsER3BwE5ewzAnjgpiHvEhSwstf"], "asm": "OP_DUP OP_HASH160 a00fcbd3345c0b5485b25cee66aa7797a53fce63 OP_EQUALVERIFY OP_CHECKSIG", "type": "pubkeyhash"}, "value": 0.00639833, "n": 0}, {"scriptPubKey": {"reqSigs": 1, "hex": "76a9149b39348360a0071cb189eb129440916da13a06b388ac", "addresses": ["1F9kGR7mVWJbtRCPUQcQpjS1GYXt6Vv1E6"], "asm": "OP_DUP OP_HASH160 9b39348360a0071cb189eb129440916da13a06b3 OP_EQUALVERIFY OP_CHECKSIG", "type": "pubkeyhash"}, "value": 0.07452387, "n": 1}], "hex": "010000000142fc09ba3ac543194c7fa93d05db8a9af92d99284ab793766357b0aac5db487f010000006a47304402201780333f941db3f59e048a59cf65958fa315ac39659935e172794ff14a133492022059ecc9f042b54dc6a9db4c39b0d50f9a75c5c52be23def76e38a736ce09f2f50012103e765e782679a717fb6ff4588fc3bb0784049cc5d3a365f484833d98a66b270e1ffffffff0259c30900000000001976a914a00fcbd3345c0b5485b25cee66aa7797a53fce6388ace3b67100000000001976a9149b39348360a0071cb189eb129440916da13a06b388ac00000000", "vin": [{"sequence": 4294967295, "scriptSig": {"hex": "47304402201780333f941db3f59e048a59cf65958fa315ac39659935e172794ff14a133492022059ecc9f042b54dc6a9db4c39b0d50f9a75c5c52be23def76e38a736ce09f2f50012103e765e782679a717fb6ff4588fc3bb0784049cc5d3a365f484833d98a66b270e1", "asm": "304402201780333f941db3f59e048a59cf65958fa315ac39659935e172794ff14a133492022059ecc9f042b54dc6a9db4c39b0d50f9a75c5c52be23def76e38a736ce09f2f50[ALL] 03e765e782679a717fb6ff4588fc3bb0784049cc5d3a365f484833d98a66b270e1"}, "vout": 1, "txid": "7f48dbc5aab057637693b74a28992df99a8adb053da97f4c1943c53aba09fc42"}], "txid": "fc68479f7a83bc5ab14be8b2465fdc4d7f4a421ba1e2a0f0d225b05f2fae421c", "blocktime": 1537871767, "version": 1, "confirmations": 11491, "time": 1537871767, "locktime": 0, "vsize": 225, "size": 225}