{"hash": "fc6d6ba6a2968496a0a0fd061bbb72ad8a0aec242100fda4ca477b5792d6c895", "blockhash": "0000000000000000001e0dab787dd257d1dbfcb92a98c2207d5e1078be1f4165", "vout": [{"scriptPubKey": {"reqSigs": 1, "hex": "a91498c4f3bfe46c356d5f83cce3f6e07a558ad2a57a87", "addresses": ["3FcnaBDpdn9tsLcYH2BnxYUt4WtujHuwJD"], "asm": "OP_HASH160 98c4f3bfe46c356d5f83cce3f6e07a558ad2a57a OP_EQUAL", "type": "scripthash"}, "value": 0.0023349, "n": 0}, {"scriptPubKey": {"reqSigs": 1, "hex": "76a9146d42715274461fc14cf25a6cc5fa87c9fa3f668f88ac", "addresses": ["1AxiFRkfCugd3v6iE8kk6chQqxsMCcVkpi"], "asm": "OP_DUP OP_HASH160 6d42715274461fc14cf25a6cc5fa87c9fa3f668f OP_EQUALVERIFY OP_CHECKSIG", "type": "pubkeyhash"}, "value": 0.0100451, "n": 1}], "hex": "0100000001a75a216fe694b271c93c914d6b57ad876deca4e1af0f107950dcccd74ce8dd0b010000006b483045022100c5d8f5ec218cba4a72564332a26417370036201601601320d2134cf162c5c7d602203bcc4d1383bedf7ed138b67cc3148c612818d5c6f4cfe234c4de722fba45991d012103c548c0085017fcb6d190378188e95dccb456734e41b1d4b034e648987780bf14ffffffff02129003000000000017a91498c4f3bfe46c356d5f83cce3f6e07a558ad2a57a87de530f00000000001976a9146d42715274461fc14cf25a6cc5fa87c9fa3f668f88ac00000000", "vin": [{"sequence": 4294967295, "scriptSig": {"hex": "483045022100c5d8f5ec218cba4a72564332a26417370036201601601320d2134cf162c5c7d602203bcc4d1383bedf7ed138b67cc3148c612818d5c6f4cfe234c4de722fba45991d012103c548c0085017fcb6d190378188e95dccb456734e41b1d4b034e648987780bf14", "asm": "3045022100c5d8f5ec218cba4a72564332a26417370036201601601320d2134cf162c5c7d602203bcc4d1383bedf7ed138b67cc3148c612818d5c6f4cfe234c4de722fba45991d[ALL] 03c548c0085017fcb6d190378188e95dccb456734e41b1d4b034e648987780bf14"}, "vout": 1, "txid": "0bdde84cd7ccdc5079100fafe1a4ec6d87ad576b4d913cc971b294e66f215aa7"}], "txid": "fc6d6ba6a2968496a0a0fd061bbb72ad8a0aec242100fda4ca477b5792d6c895", "blocktime": 1537872475, "version": 1, "confirmations": 11487, "time": 1537872475, "locktime": 0, "vsize": 224, "size": 224}