{"hash": "4a04b519289ac1914765851b8b4cbed63ce93619e6edcb536fae828c96d78ad9", "blockhash": "0000000000000000001e0dab787dd257d1dbfcb92a98c2207d5e1078be1f4165", "vout": [{"scriptPubKey": {"reqSigs": 1, "hex": "76a9142cd1ec6ad1bb153efe02481869fd59578a48047788ac", "addresses": ["155zDBX7m47LY87SajFLqXSZosXfnNXYr9"], "asm": "OP_DUP OP_HASH160 2cd1ec6ad1bb153efe02481869fd59578a480477 OP_EQUALVERIFY OP_CHECKSIG", "type": "pubkeyhash"}, "value": 0.003333, "n": 0}, {"scriptPubKey": {"reqSigs": 1, "hex": "a9149649ad6d2730bb28020a268d9d80df10a9f74ad487", "addresses": ["3FPfYWwfMfKMGY7fuPHvz2b73RhTNGzsm3"], "asm": "OP_HASH160 9649ad6d2730bb28020a268d9d80df10a9f74ad4 OP_EQUAL", "type": "scripthash"}, "value": 13.87006648, "n": 1}], "hex": "01000000000101d1dcc84c0461f76816b6817f8e792e6c9abf5a335f6c8d11dffa19f97172744e01000000232200207768efcc1e5eb3d28410fac3f45831004c860cc24cddd940a616b34324823fceffffffff02f4150500000000001976a9142cd1ec6ad1bb153efe02481869fd59578a48047788acb80aac520000000017a9149649ad6d2730bb28020a268d9d80df10a9f74ad487040047304402203f31e412420756579c1fb1a6ef3ebcef079a8e8dd361f51bf58703d6b45a56a702207b3dfc2f64f83658ef3c03b1516046c3c6dfd700034ddbbe1b6c4e068db6872401483045022100a610dfbc21db49414f13c9c48a632c544f64b451926388ccffd3d0045ecd042202204ca86bc7c82910b04f475b7acc4e8909a2aaa82ed43872a8fa1074ab067f57fd0147522102529d5d1f6733ab45d9d50e07db42c7f6b967ae321c38b726c2247f149959b8262103d0c936a5988dd8421c63240496b723b0ec42400c38b9350e32c2eb4f47d8796952ae00000000", "vin": [{"txinwitness": ["", "304402203f31e412420756579c1fb1a6ef3ebcef079a8e8dd361f51bf58703d6b45a56a702207b3dfc2f64f83658ef3c03b1516046c3c6dfd700034ddbbe1b6c4e068db6872401", "3045022100a610dfbc21db49414f13c9c48a632c544f64b451926388ccffd3d0045ecd042202204ca86bc7c82910b04f475b7acc4e8909a2aaa82ed43872a8fa1074ab067f57fd01", "522102529d5d1f6733ab45d9d50e07db42c7f6b967ae321c38b726c2247f149959b8262103d0c936a5988dd8421c63240496b723b0ec42400c38b9350e32c2eb4f47d8796952ae"], "sequence": 4294967295, "scriptSig": {"hex": "2200207768efcc1e5eb3d28410fac3f45831004c860cc24cddd940a616b34324823fce", "asm": "00207768efcc1e5eb3d28410fac3f45831004c860cc24cddd940a616b34324823fce"}, "vout": 1, "txid": "4e747271f919fadf118d6c5f335abf9a6c2e798e7f81b61668f761044cc8dcd1"}], "txid": "fc6eb10e77d50c7f86d0a8c68590ad13e871aebab5854e1974e052b89b6c2a81", "blocktime": 1537872475, "version": 1, "confirmations": 11487, "time": 1537872475, "locktime": 0, "vsize": 208, "size": 373}