{"hash": "fc71f0bab3e8db83b1960eebaecf2ab17de8727ab5bfd4b798d8396617f26c23", "blockhash": "0000000000000000001cda96e906b7601b7a6fb1a3b62bca570a9e5d8f4b3de1", "vout": [{"scriptPubKey": {"reqSigs": 1, "hex": "a9149a54bdfc60d61c6425d75df8bd94c39fdb17d30887", "addresses": ["3Fm3W59AcXKcy8sCcCemcVJY27DHDyP4CC"], "asm": "OP_HASH160 9a54bdfc60d61c6425d75df8bd94c39fdb17d308 OP_EQUAL", "type": "scripthash"}, "value": 0.03499618, "n": 0}], "hex": "01000000017e1b3f66a3d7052152562c6e530ae2d1fcb1d92626cb37876224f8963375d928000000006b483045022100c081916c7198fd3d77a2c6815d1fce3f7aea7ae47f637b3f215169ef3206b06c02204c0efb37df3458ae4f1de85729ae737066daebf223889f594a16fd245f5c3df30121026d860e2b93ae52ab5021cbc8ebe6ed966d3435ed072ebb10668f183258a632d1fdffffff01626635000000000017a9149a54bdfc60d61c6425d75df8bd94c39fdb17d3088713490800", "vin": [{"sequence": 4294967293, "scriptSig": {"hex": "483045022100c081916c7198fd3d77a2c6815d1fce3f7aea7ae47f637b3f215169ef3206b06c02204c0efb37df3458ae4f1de85729ae737066daebf223889f594a16fd245f5c3df30121026d860e2b93ae52ab5021cbc8ebe6ed966d3435ed072ebb10668f183258a632d1", "asm": "3045022100c081916c7198fd3d77a2c6815d1fce3f7aea7ae47f637b3f215169ef3206b06c02204c0efb37df3458ae4f1de85729ae737066daebf223889f594a16fd245f5c3df3[ALL] 026d860e2b93ae52ab5021cbc8ebe6ed966d3435ed072ebb10668f183258a632d1"}, "vout": 0, "txid": "28d9753396f824628737cb2626d9b1fcd1e20a536e2c56522105d7a3663f1b7e"}], "txid": "fc71f0bab3e8db83b1960eebaecf2ab17de8727ab5bfd4b798d8396617f26c23", "blocktime": 1537873282, "version": 1, "confirmations": 11485, "time": 1537873282, "locktime": 542995, "vsize": 190, "size": 190}