{"hash": "fc7460a3b2a91ad16c7a1455f12dc1402fe139b1ac37330b1452e178cbada976", "blockhash": "0000000000000000000baef3f32e3676a92c3b2e5da21b426e4f302fc371ce76", "vout": [{"scriptPubKey": {"reqSigs": 1, "hex": "76a914382ce655e1cdd01af2d9e46573e9fbd0bb749d3688ac", "addresses": ["1682dS3BbTDCgAgnRYMNhDwEGYjRpaS3h3"], "asm": "OP_DUP OP_HASH160 382ce655e1cdd01af2d9e46573e9fbd0bb749d36 OP_EQUALVERIFY OP_CHECKSIG", "type": "pubkeyhash"}, "value": 0.01209454, "n": 0}, {"scriptPubKey": {"type": "nulldata", "hex": "6a146f6d6e69000000000000001f00000021c6463290", "asm": "OP_RETURN 6f6d6e69000000000000001f00000021c6463290"}, "value": 0.0, "n": 1}, {"scriptPubKey": {"reqSigs": 1, "hex": "76a914dc60f34deebe4b32ed0a8beb22b465269a1218e588ac", "addresses": ["1M6FoSEmepfQC7trxmYj3bWSpQ1rYsjkBx"], "asm": "OP_DUP OP_HASH160 dc60f34deebe4b32ed0a8beb22b465269a1218e5 OP_EQUALVERIFY OP_CHECKSIG", "type": "pubkeyhash"}, "value": 5.46e-06, "n": 2}], "hex": "01000000039c64c739492f618412586b03da76669401e44d8236411cb245016f5d2c278424020000006a473044022002a17190e7ab23af4ea0891b3da818d0c3a3e6bd668a5d097bc023c01b123cb902205ed095dd9cb477fedb18fb6463b5b7e9aba071e94adfc3e12f4ae706a5aa4f520121020fd10f6014edd73bbe7f1e09b509bd7e3eb505fcf48134294a0a2e6a30a8d2c8ffffffff949bcd4bf9bdfb11e9eadff844a140a0ffce6e7085a7149df1d822e30724f6de010000006a47304402204349559c10eb0bdaf8550006ec90dc6dfc3af1c7f4e105951e24255abf548fdb02206ba99864110b49bf4e2b91ba35d613bca5592243c985b418fed83c4c4bc3c2940121020fd10f6014edd73bbe7f1e09b509bd7e3eb505fcf48134294a0a2e6a30a8d2c8ffffffffaebb0cf7c2e420b7a47cab874fe3b90163d2e09915b557e41f42802ea587a177000000006a47304402201beac3c9ea6ef7160265ec6f8d94e78cedf67a1fc32edaf248c6ece3645f73d8022013cc48d023e8009e1c8b2a368606a36fce2675538313b17a7ed175fe40dfea010121039000d0616967dd25f800d8a8f45648c89fb366c2caeefd348010ea3a8f9a69ffffffffff036e741200000000001976a914382ce655e1cdd01af2d9e46573e9fbd0bb749d3688ac0000000000000000166a146f6d6e69000000000000001f00000021c646329022020000000000001976a914dc60f34deebe4b32ed0a8beb22b465269a1218e588ac00000000", "vin": [{"sequence": 4294967295, "scriptSig": {"hex": "473044022002a17190e7ab23af4ea0891b3da818d0c3a3e6bd668a5d097bc023c01b123cb902205ed095dd9cb477fedb18fb6463b5b7e9aba071e94adfc3e12f4ae706a5aa4f520121020fd10f6014edd73bbe7f1e09b509bd7e3eb505fcf48134294a0a2e6a30a8d2c8", "asm": "3044022002a17190e7ab23af4ea0891b3da818d0c3a3e6bd668a5d097bc023c01b123cb902205ed095dd9cb477fedb18fb6463b5b7e9aba071e94adfc3e12f4ae706a5aa4f52[ALL] 020fd10f6014edd73bbe7f1e09b509bd7e3eb505fcf48134294a0a2e6a30a8d2c8"}, "vout": 2, "txid": "2484272c5d6f0145b21c4136824de401946676da036b581284612f4939c7649c"}, {"sequence": 4294967295, "scriptSig": {"hex": "47304402204349559c10eb0bdaf8550006ec90dc6dfc3af1c7f4e105951e24255abf548fdb02206ba99864110b49bf4e2b91ba35d613bca5592243c985b418fed83c4c4bc3c2940121020fd10f6014edd73bbe7f1e09b509bd7e3eb505fcf48134294a0a2e6a30a8d2c8", "asm": "304402204349559c10eb0bdaf8550006ec90dc6dfc3af1c7f4e105951e24255abf548fdb02206ba99864110b49bf4e2b91ba35d613bca5592243c985b418fed83c4c4bc3c294[ALL] 020fd10f6014edd73bbe7f1e09b509bd7e3eb505fcf48134294a0a2e6a30a8d2c8"}, "vout": 1, "txid": "def62407e322d8f19d14a785706eceffa040a144f8dfeae911fbbdf94bcd9b94"}, {"sequence": 4294967295, "scriptSig": {"hex": "47304402201beac3c9ea6ef7160265ec6f8d94e78cedf67a1fc32edaf248c6ece3645f73d8022013cc48d023e8009e1c8b2a368606a36fce2675538313b17a7ed175fe40dfea010121039000d0616967dd25f800d8a8f45648c89fb366c2caeefd348010ea3a8f9a69ff", "asm": "304402201beac3c9ea6ef7160265ec6f8d94e78cedf67a1fc32edaf248c6ece3645f73d8022013cc48d023e8009e1c8b2a368606a36fce2675538313b17a7ed175fe40dfea01[ALL] 039000d0616967dd25f800d8a8f45648c89fb366c2caeefd348010ea3a8f9a69ff"}, "vout": 0, "txid": "77a187a52e80421fe457b51599e0d26301b9e34f87ab7ca4b720e4c2f70cbbae"}], "txid": "fc7460a3b2a91ad16c7a1455f12dc1402fe139b1ac37330b1452e178cbada976", "blocktime": 1537876114, "version": 1, "confirmations": 11460, "time": 1537876114, "locktime": 0, "vsize": 550, "size": 550}