{"hash": "fc7873fb677433599f5dd24f660834dad4c3e57d8cd6b9ec536ee7603feafd47", "blockhash": "000000000000000000022b45ed06c6f4ccd3cf7fb5ba4856ebd2e58215665228", "vout": [{"scriptPubKey": {"reqSigs": 1, "hex": "76a914d3e4c1dd0dd9ddd64c90d8b9243a6bef5c1986fb88ac", "addresses": ["1LKPcp1xLyECgbw2ieuucs3ePCeB9LPYKS"], "asm": "OP_DUP OP_HASH160 d3e4c1dd0dd9ddd64c90d8b9243a6bef5c1986fb OP_EQUALVERIFY OP_CHECKSIG", "type": "pubkeyhash"}, "value": 0.001, "n": 0}, {"scriptPubKey": {"reqSigs": 1, "hex": "76a91486d792b93f9aa9fa036bc2d9c166181dd311290988ac", "addresses": ["1DHynzPvUVcrVfEvQSRMFP8YrdJs7MtQKS"], "asm": "OP_DUP OP_HASH160 86d792b93f9aa9fa036bc2d9c166181dd3112909 OP_EQUALVERIFY OP_CHECKSIG", "type": "pubkeyhash"}, "value": 0.04901634, "n": 1}], "hex": "01000000015a2b8342964efdef3fe409249b43761725ad6b378274bae84cad95eef411ffa6010000006b483045022100971850107796632b9ff8024d864380e7c9d06b4930d9fe6db664af2bc27c250002201fa81abe9684a98ddcbb9397229a656179c4bf17f38afa6cabae343e0eacd8de01210303160b21d38ec48740325fa623bb2338c2c9672d93ee71b620963e4051a25b95ffffffff02a0860100000000001976a914d3e4c1dd0dd9ddd64c90d8b9243a6bef5c1986fb88ac02cb4a00000000001976a91486d792b93f9aa9fa036bc2d9c166181dd311290988ac00000000", "vin": [{"sequence": 4294967295, "scriptSig": {"hex": "483045022100971850107796632b9ff8024d864380e7c9d06b4930d9fe6db664af2bc27c250002201fa81abe9684a98ddcbb9397229a656179c4bf17f38afa6cabae343e0eacd8de01210303160b21d38ec48740325fa623bb2338c2c9672d93ee71b620963e4051a25b95", "asm": "3045022100971850107796632b9ff8024d864380e7c9d06b4930d9fe6db664af2bc27c250002201fa81abe9684a98ddcbb9397229a656179c4bf17f38afa6cabae343e0eacd8de[ALL] 0303160b21d38ec48740325fa623bb2338c2c9672d93ee71b620963e4051a25b95"}, "vout": 1, "txid": "a6ff11f4ee95ad4ce8ba7482376bad251776439b2409e43feffd4e9642832b5a"}], "txid": "fc7873fb677433599f5dd24f660834dad4c3e57d8cd6b9ec536ee7603feafd47", "blocktime": 1537869901, "version": 1, "confirmations": 11522, "time": 1537869901, "locktime": 0, "vsize": 226, "size": 226}