{"hash": "fc7a1700cf7c143c592b50c2842784199679f8a4b8ba1b5f904fc8fe0074d7f4", "blockhash": "000000000000000000022b45ed06c6f4ccd3cf7fb5ba4856ebd2e58215665228", "vout": [{"scriptPubKey": {"reqSigs": 1, "hex": "76a9144e4ad62d8f4def0f805091854fbea3976ecf21dd88ac", "addresses": ["188yMhnTnm4dgqbQD9ArdTBYoMGmpQo5MR"], "asm": "OP_DUP OP_HASH160 4e4ad62d8f4def0f805091854fbea3976ecf21dd OP_EQUALVERIFY OP_CHECKSIG", "type": "pubkeyhash"}, "value": 0.00563081, "n": 0}, {"scriptPubKey": {"reqSigs": 1, "hex": "76a91467093b24a73ad2f84c04557a9ee4c77c54c3fc6688ac", "addresses": ["1APof9DMt2cQadwPNtNFfJY64TZvXd411w"], "asm": "OP_DUP OP_HASH160 67093b24a73ad2f84c04557a9ee4c77c54c3fc66 OP_EQUALVERIFY OP_CHECKSIG", "type": "pubkeyhash"}, "value": 0.0585, "n": 1}], "hex": "010000000538eae6a1f2f079e26c0ac784f81b6917519c34c033f04bd5999038772c1a9566000000006a47304402200f87de50f8921246a0ed87d084af2c8adf1c326aec0bfc95fb171aa54f07c9da022000dfd884b1f866b7b7e244092649399f0378602f143e6649eb37ed027e9e37b9012102664b30bb4779442cdaae0f369b29df015739ae044ba5a9830ae939cc76cf870affffffff13432169f5a7eb293c1562ef03730ee2ecfc517750edca760e706446c32a7593010000006a47304402204ea0460a02b9006dc4c5f0da38f9c3ef4948ba920c81e6985e04ffbd754c95230220770d10d51f2f4d2a2ecafea9453446d047080781a4c52559e92320abe8e44b960121029f99f05d5365934394d6e7f7ff78c0f34a6a668419352c0dfb98c2ed6bbbd698ffffffffed93e7b70ba7bafbe6e9297ddb4cd61fcc6669fa00cfc9f4877de6117b93b0c1010000006a47304402204eadbb2eea3fa4514f855f473e05f75033c919cd53257bf44fa5b2f799a8e1b1022060037a2738c3d1271e984728d9c64e7135026924121e90632dce1196d3b2e08a0121029f99f05d5365934394d6e7f7ff78c0f34a6a668419352c0dfb98c2ed6bbbd698ffffffffbae899605bd9ca23bd79ff8a49d8ad840f967b3db35c564cf5f22a2e6d6324d0190000006a473044022025f49a23296f00a476fc00e43f1dd5e4392c9ceea77a475e9784fce0d55c1d770220763f686008c293fc498245c7fcec2b0afe4c85e21ddb6d1d0b20c1369116bfd10121029f99f05d5365934394d6e7f7ff78c0f34a6a668419352c0dfb98c2ed6bbbd698ffffffff5882265adc35d44f1698a9cd559dc5ad7d890968763325806216829b765a35fb000000006a47304402200ba24d32d20afd39aadde25543db0273417e0431071fb72babbfc70b3e3da0060220216694a281c64549aa3672609c36868fcafb4bb3be450f2f26e319051a0bba780121029f99f05d5365934394d6e7f7ff78c0f34a6a668419352c0dfb98c2ed6bbbd698ffffffff0289970800000000001976a9144e4ad62d8f4def0f805091854fbea3976ecf21dd88ac90435900000000001976a91467093b24a73ad2f84c04557a9ee4c77c54c3fc6688ac00000000", "vin": [{"sequence": 4294967295, "scriptSig": {"hex": "47304402200f87de50f8921246a0ed87d084af2c8adf1c326aec0bfc95fb171aa54f07c9da022000dfd884b1f866b7b7e244092649399f0378602f143e6649eb37ed027e9e37b9012102664b30bb4779442cdaae0f369b29df015739ae044ba5a9830ae939cc76cf870a", "asm": "304402200f87de50f8921246a0ed87d084af2c8adf1c326aec0bfc95fb171aa54f07c9da022000dfd884b1f866b7b7e244092649399f0378602f143e6649eb37ed027e9e37b9[ALL] 02664b30bb4779442cdaae0f369b29df015739ae044ba5a9830ae939cc76cf870a"}, "vout": 0, "txid": "66951a2c77389099d54bf033c0349c5117691bf884c70a6ce279f0f2a1e6ea38"}, {"sequence": 4294967295, "scriptSig": {"hex": "47304402204ea0460a02b9006dc4c5f0da38f9c3ef4948ba920c81e6985e04ffbd754c95230220770d10d51f2f4d2a2ecafea9453446d047080781a4c52559e92320abe8e44b960121029f99f05d5365934394d6e7f7ff78c0f34a6a668419352c0dfb98c2ed6bbbd698", "asm": "304402204ea0460a02b9006dc4c5f0da38f9c3ef4948ba920c81e6985e04ffbd754c95230220770d10d51f2f4d2a2ecafea9453446d047080781a4c52559e92320abe8e44b96[ALL] 029f99f05d5365934394d6e7f7ff78c0f34a6a668419352c0dfb98c2ed6bbbd698"}, "vout": 1, "txid": "93752ac34664700e76caed507751fcece20e7303ef62153c29eba7f569214313"}, {"sequence": 4294967295, "scriptSig": {"hex": "47304402204eadbb2eea3fa4514f855f473e05f75033c919cd53257bf44fa5b2f799a8e1b1022060037a2738c3d1271e984728d9c64e7135026924121e90632dce1196d3b2e08a0121029f99f05d5365934394d6e7f7ff78c0f34a6a668419352c0dfb98c2ed6bbbd698", "asm": "304402204eadbb2eea3fa4514f855f473e05f75033c919cd53257bf44fa5b2f799a8e1b1022060037a2738c3d1271e984728d9c64e7135026924121e90632dce1196d3b2e08a[ALL] 029f99f05d5365934394d6e7f7ff78c0f34a6a668419352c0dfb98c2ed6bbbd698"}, "vout": 1, "txid": "c1b0937b11e67d87f4c9cf00fa6966cc1fd64cdb7d29e9e6fbbaa70bb7e793ed"}, {"sequence": 4294967295, "scriptSig": {"hex": "473044022025f49a23296f00a476fc00e43f1dd5e4392c9ceea77a475e9784fce0d55c1d770220763f686008c293fc498245c7fcec2b0afe4c85e21ddb6d1d0b20c1369116bfd10121029f99f05d5365934394d6e7f7ff78c0f34a6a668419352c0dfb98c2ed6bbbd698", "asm": "3044022025f49a23296f00a476fc00e43f1dd5e4392c9ceea77a475e9784fce0d55c1d770220763f686008c293fc498245c7fcec2b0afe4c85e21ddb6d1d0b20c1369116bfd1[ALL] 029f99f05d5365934394d6e7f7ff78c0f34a6a668419352c0dfb98c2ed6bbbd698"}, "vout": 25, "txid": "d024636d2e2af2f54c565cb33d7b960f84add8498aff79bd23cad95b6099e8ba"}, {"sequence": 4294967295, "scriptSig": {"hex": "47304402200ba24d32d20afd39aadde25543db0273417e0431071fb72babbfc70b3e3da0060220216694a281c64549aa3672609c36868fcafb4bb3be450f2f26e319051a0bba780121029f99f05d5365934394d6e7f7ff78c0f34a6a668419352c0dfb98c2ed6bbbd698", "asm": "304402200ba24d32d20afd39aadde25543db0273417e0431071fb72babbfc70b3e3da0060220216694a281c64549aa3672609c36868fcafb4bb3be450f2f26e319051a0bba78[ALL] 029f99f05d5365934394d6e7f7ff78c0f34a6a668419352c0dfb98c2ed6bbbd698"}, "vout": 0, "txid": "fb355a769b821662802533766809897dadc59d55cda998164fd435dc5a268258"}], "txid": "fc7a1700cf7c143c592b50c2842784199679f8a4b8ba1b5f904fc8fe0074d7f4", "blocktime": 1537869901, "version": 1, "confirmations": 11524, "time": 1537869901, "locktime": 0, "vsize": 813, "size": 813}