{"hash": "fc7f20af9a71f2f2781d2ef826ee855772f810d67322875773ed3105ff69a89f", "blockhash": "00000000000000000017f5eb5941039fbcee6240d03bc1f2f8e35350df66a1d8", "vout": [{"scriptPubKey": {"reqSigs": 1, "hex": "76a91422bb1e890ae905b1e658164b6fb3c4d83929e91c88ac", "addresses": ["14Ae8oGG1k24gHVx16NU3SQXpg1bZ1BRNa"], "asm": "OP_DUP OP_HASH160 22bb1e890ae905b1e658164b6fb3c4d83929e91c OP_EQUALVERIFY OP_CHECKSIG", "type": "pubkeyhash"}, "value": 0.00459017, "n": 0}, {"scriptPubKey": {"reqSigs": 1, "hex": "76a9144c13856fcf625b4badedcc9ac353110d8bb8031588ac", "addresses": ["17wFjwRyvqyLt8dPPU2mzwpS7fE2VnARKE"], "asm": "OP_DUP OP_HASH160 4c13856fcf625b4badedcc9ac353110d8bb80315 OP_EQUALVERIFY OP_CHECKSIG", "type": "pubkeyhash"}, "value": 0.41168595, "n": 1}], "hex": "0100000003d955847fd69f70b6aa3d291d5c7b7b693b434ab882c722285cb76a909456eb19010000006a47304402200f9efe390ef027f47a31e6749bd3024c2c9717a10f4f63ffedf4b9d987a556ed02207c66d324fe9dce5acc33711aaaed2de5ae5b0b94cb8ea2b5077ee739b709c0e6012103f7565aa0aa1518d7337815d519f25c16cc97ea667544662160d941d844a6a273fdffffffb3def05711eff3a56f5a68eccfd98f1ca9c2dd25ddaf6e1f4bd3233c5a73c026000000006a473044022034a0e2d951a7203a6dcc15d868c3ef3c1cb56e9f3bcbe4596a3171405db185a102202e063175af1f025ca64f55043d224ca99ae9a8a30ee3909d77473db380949f2e012103722db07e76a6007b57e707abb0f3ece1d41721e7c0b3eb120b02a06bc5394c77fdffffff22521f2d56edf26464d8164300093c8015ae73148eebd8eb3145143f29ffabb8000000006a473044022011e5bfa43f0b1b4917b6d0e79a2cab9e63678b5452202c8babfc6ab79426185302207d806f76eee79972856b28ef3782bbec81ab5d8f4ec413246ae08f88e78df2ac012102ee11c336af2cca9b2e410e2fbd23a503df692f4edb110d83aed7abfc1dde4c0bfdffffff0209010700000000001976a91422bb1e890ae905b1e658164b6fb3c4d83929e91c88acd32e7402000000001976a9144c13856fcf625b4badedcc9ac353110d8bb8031588ac15490800", "vin": [{"sequence": 4294967293, "scriptSig": {"hex": "47304402200f9efe390ef027f47a31e6749bd3024c2c9717a10f4f63ffedf4b9d987a556ed02207c66d324fe9dce5acc33711aaaed2de5ae5b0b94cb8ea2b5077ee739b709c0e6012103f7565aa0aa1518d7337815d519f25c16cc97ea667544662160d941d844a6a273", "asm": "304402200f9efe390ef027f47a31e6749bd3024c2c9717a10f4f63ffedf4b9d987a556ed02207c66d324fe9dce5acc33711aaaed2de5ae5b0b94cb8ea2b5077ee739b709c0e6[ALL] 03f7565aa0aa1518d7337815d519f25c16cc97ea667544662160d941d844a6a273"}, "vout": 1, "txid": "19eb5694906ab75c2822c782b84a433b697b7b5c1d293daab6709fd67f8455d9"}, {"sequence": 4294967293, "scriptSig": {"hex": "473044022034a0e2d951a7203a6dcc15d868c3ef3c1cb56e9f3bcbe4596a3171405db185a102202e063175af1f025ca64f55043d224ca99ae9a8a30ee3909d77473db380949f2e012103722db07e76a6007b57e707abb0f3ece1d41721e7c0b3eb120b02a06bc5394c77", "asm": "3044022034a0e2d951a7203a6dcc15d868c3ef3c1cb56e9f3bcbe4596a3171405db185a102202e063175af1f025ca64f55043d224ca99ae9a8a30ee3909d77473db380949f2e[ALL] 03722db07e76a6007b57e707abb0f3ece1d41721e7c0b3eb120b02a06bc5394c77"}, "vout": 0, "txid": "26c0735a3c23d34b1f6eafdd25ddc2a91c8fd9cfec685a6fa5f3ef1157f0deb3"}, {"sequence": 4294967293, "scriptSig": {"hex": "473044022011e5bfa43f0b1b4917b6d0e79a2cab9e63678b5452202c8babfc6ab79426185302207d806f76eee79972856b28ef3782bbec81ab5d8f4ec413246ae08f88e78df2ac012102ee11c336af2cca9b2e410e2fbd23a503df692f4edb110d83aed7abfc1dde4c0b", "asm": "3044022011e5bfa43f0b1b4917b6d0e79a2cab9e63678b5452202c8babfc6ab79426185302207d806f76eee79972856b28ef3782bbec81ab5d8f4ec413246ae08f88e78df2ac[ALL] 02ee11c336af2cca9b2e410e2fbd23a503df692f4edb110d83aed7abfc1dde4c0b"}, "vout": 0, "txid": "b8abff293f144531ebd8eb8e1473ae15803c09004316d86464f2ed562d1f5222"}], "txid": "fc7f20af9a71f2f2781d2ef826ee855772f810d67322875773ed3105ff69a89f", "blocktime": 1537874412, "version": 1, "confirmations": 11466, "time": 1537874412, "locktime": 542997, "vsize": 519, "size": 519}