{"hash": "fc833bc329d85c6fc8c2727d56d665dab25eee72102de8a48009e4342357dd75", "blockhash": "0000000000000000001cda96e906b7601b7a6fb1a3b62bca570a9e5d8f4b3de1", "vout": [{"scriptPubKey": {"reqSigs": 1, "hex": "a914601f149def74f3463c3b975e2655caeee948af6487", "addresses": ["3ATG2UP5imFbwLtxr9e8VfSNQtcs4bP3cp"], "asm": "OP_HASH160 601f149def74f3463c3b975e2655caeee948af64 OP_EQUAL", "type": "scripthash"}, "value": 0.00986951, "n": 0}, {"scriptPubKey": {"reqSigs": 1, "hex": "76a9141c8209d31376a69ca197e452fd874a056df034dd88ac", "addresses": ["13bjhbaEJteJ3akaWcBDWBmHYsnAo72Xaw"], "asm": "OP_DUP OP_HASH160 1c8209d31376a69ca197e452fd874a056df034dd OP_EQUALVERIFY OP_CHECKSIG", "type": "pubkeyhash"}, "value": 0.02498635, "n": 1}], "hex": "010000000111336a0b2098a06514df850d6540acad5cbf19b06976a8e137f5f8175291f2bb000000006a47304402203aa6aba31552199517166908183b0038428a712bdafc788bcd5ec8cc7c6afdea0220242f7f164facbb911ea9a6ac610b42b1f8893d5987b3ae19867c4dc3742d8883012102d04a7fd10387c431696dd74d126858ceb990b52939453116572b2fb00d22417ffdffffff02470f0f000000000017a914601f149def74f3463c3b975e2655caeee948af64874b202600000000001976a9141c8209d31376a69ca197e452fd874a056df034dd88ac13490800", "vin": [{"sequence": 4294967293, "scriptSig": {"hex": "47304402203aa6aba31552199517166908183b0038428a712bdafc788bcd5ec8cc7c6afdea0220242f7f164facbb911ea9a6ac610b42b1f8893d5987b3ae19867c4dc3742d8883012102d04a7fd10387c431696dd74d126858ceb990b52939453116572b2fb00d22417f", "asm": "304402203aa6aba31552199517166908183b0038428a712bdafc788bcd5ec8cc7c6afdea0220242f7f164facbb911ea9a6ac610b42b1f8893d5987b3ae19867c4dc3742d8883[ALL] 02d04a7fd10387c431696dd74d126858ceb990b52939453116572b2fb00d22417f"}, "vout": 0, "txid": "bbf2915217f8f537e1a87669b019bf5cadac40650d85df1465a098200b6a3311"}], "txid": "fc833bc329d85c6fc8c2727d56d665dab25eee72102de8a48009e4342357dd75", "blocktime": 1537873282, "version": 1, "confirmations": 11480, "time": 1537873282, "locktime": 542995, "vsize": 223, "size": 223}