{"hash": "b8a7caedeb5cb0cb944b0c50e620555352495fca247227f8569885b20dc45d53", "blockhash": "00000000000000000017f5eb5941039fbcee6240d03bc1f2f8e35350df66a1d8", "vout": [{"scriptPubKey": {"reqSigs": 1, "hex": "76a9146a2a89b15fb0d9759c035d07d16ed4f98e56b28988ac", "addresses": ["1AgMavAFhgWnX7TWeJyP4QwtxvUGnNU3cw"], "asm": "OP_DUP OP_HASH160 6a2a89b15fb0d9759c035d07d16ed4f98e56b289 OP_EQUALVERIFY OP_CHECKSIG", "type": "pubkeyhash"}, "value": 0.2, "n": 0}, {"scriptPubKey": {"reqSigs": 1, "hex": "a914b067dfa0cc2e154b475ff7778e89180e4dd9630787", "addresses": ["3HmmHZoyBkorVghu2QJXLNH6MEYmHLR38t"], "asm": "OP_HASH160 b067dfa0cc2e154b475ff7778e89180e4dd96307 OP_EQUAL", "type": "scripthash"}, "value": 0.27453633, "n": 1}], "hex": "010000000001015d0de0d7881b3d7ed893e83eb94c933879960e6df1224888110faf874980b678010000001716001485bca2cf1eb291ab183d38af5dd1a056bc4f9a7affffffff02002d3101000000001976a9146a2a89b15fb0d9759c035d07d16ed4f98e56b28988acc1e8a2010000000017a914b067dfa0cc2e154b475ff7778e89180e4dd963078702483045022100b7e81ce02784f4360e0c45ca5757f8ef782589eca5529d51933f8ff1fc2c9b2602205d262248d93f9aae89be05b98fe30c4fd15e2c936d0cf75db38942747c64356b0121035667183d0487e3fd70cb86ede0c3e2836ff210390edeea5883a5e16b502419a100000000", "vin": [{"txinwitness": ["3045022100b7e81ce02784f4360e0c45ca5757f8ef782589eca5529d51933f8ff1fc2c9b2602205d262248d93f9aae89be05b98fe30c4fd15e2c936d0cf75db38942747c64356b01", "035667183d0487e3fd70cb86ede0c3e2836ff210390edeea5883a5e16b502419a1"], "sequence": 4294967295, "scriptSig": {"hex": "16001485bca2cf1eb291ab183d38af5dd1a056bc4f9a7a", "asm": "001485bca2cf1eb291ab183d38af5dd1a056bc4f9a7a"}, "vout": 1, "txid": "78b6804987af0f11884822f16d0e967938934cb93ee893d87e3d1b88d7e00d5d"}], "txid": "fc8d3b4ff9def496d8468e131a2da61f045913c72745f11746857160ceea3111", "blocktime": 1537874412, "version": 1, "confirmations": 11468, "time": 1537874412, "locktime": 0, "vsize": 168, "size": 250}