{"hash": "92686d632e09578acb506c9cd9fa5b398454ca14f55b709f58d7458b5c9882f0", "blockhash": "0000000000000000001cda96e906b7601b7a6fb1a3b62bca570a9e5d8f4b3de1", "vout": [{"scriptPubKey": {"reqSigs": 1, "hex": "001467c3ef0a064f076b653fb9d8acf4ea54bedc3dbf", "addresses": ["bc1qvlp77zsxfurkkeflh8v2ea822jldc0dlu0eqwa"], "asm": "0 67c3ef0a064f076b653fb9d8acf4ea54bedc3dbf", "type": "witness_v0_keyhash"}, "value": 7.583e-05, "n": 0}, {"scriptPubKey": {"reqSigs": 1, "hex": "76a91437de9e6efe027f20391f4ecb30a585ee9b69c67688ac", "addresses": ["166QrP93abBqR2E1XU6L4YKsXFML1h9L8G"], "asm": "OP_DUP OP_HASH160 37de9e6efe027f20391f4ecb30a585ee9b69c676 OP_EQUALVERIFY OP_CHECKSIG", "type": "pubkeyhash"}, "value": 0.00872361, "n": 1}], "hex": "010000000001018f28c8eec00109ddadddc80da87e684a8f845d2e7b08d6cc8e5c097df5e3cd4b0100000000ffffffff029f1d00000000000016001467c3ef0a064f076b653fb9d8acf4ea54bedc3dbfa94f0d00000000001976a91437de9e6efe027f20391f4ecb30a585ee9b69c67688ac0247304402203e76e90288fbae7ea503f34e354e40592ca0646dd7bf6d8730db68f74203af8802202f0d65958e2444e947b0692fb85322c30d4b61f8c450004fe91c9930241e276a012103860486dda01ac37fccbd3a197d3ec90c2dc04ba0bf9890fc5a3599be039e1e9400000000", "vin": [{"txinwitness": ["304402203e76e90288fbae7ea503f34e354e40592ca0646dd7bf6d8730db68f74203af8802202f0d65958e2444e947b0692fb85322c30d4b61f8c450004fe91c9930241e276a01", "03860486dda01ac37fccbd3a197d3ec90c2dc04ba0bf9890fc5a3599be039e1e94"], "sequence": 4294967295, "scriptSig": {"hex": "", "asm": ""}, "vout": 1, "txid": "4bcde3f57d095c8eccd6087b2e5d848f4a687ea80dc8ddaddd0901c0eec8288f"}], "txid": "fc91566650cfab22095b7a5ee630a5ed3477a373c21ccd3483e9871eef89f17c", "blocktime": 1537873282, "version": 1, "confirmations": 11484, "time": 1537873282, "locktime": 0, "vsize": 144, "size": 225}