{"hash": "0ba6e66f66935ecb6c9dff843a86ee57d0be00e865909c042bd9af49720c02e8", "blockhash": "0000000000000000000baef3f32e3676a92c3b2e5da21b426e4f302fc371ce76", "vout": [{"scriptPubKey": {"reqSigs": 1, "hex": "76a914de85f1160e3d7ef264e6c20471501c346e8da03688ac", "addresses": ["1MHbU2GKVW9LpiHhKPCjuVfLpwo8eEMrY5"], "asm": "OP_DUP OP_HASH160 de85f1160e3d7ef264e6c20471501c346e8da036 OP_EQUALVERIFY OP_CHECKSIG", "type": "pubkeyhash"}, "value": 0.00031031, "n": 0}, {"scriptPubKey": {"reqSigs": 1, "hex": "a914b2e6a8e553bd7e11c1392f8d61e19b5888e139c087", "addresses": ["3HzxXD8PhqJETjkWrQYD4nYc6yKx3mGLXi"], "asm": "OP_HASH160 b2e6a8e553bd7e11c1392f8d61e19b5888e139c0 OP_EQUAL", "type": "scripthash"}, "value": 0.0046725, "n": 1}], "hex": "0100000000010103915d02875744bb9e627e111e43cab8b41058dce1359184eb3d57ba20589e54010000002322002045dc4a8e7a7ed593d2ea538a381c31e2607ee08f052e914f99311fee2a8f4d56ffffffff0237790000000000001976a914de85f1160e3d7ef264e6c20471501c346e8da03688ac322107000000000017a914b2e6a8e553bd7e11c1392f8d61e19b5888e139c0870400483045022100f1a6b256e0e24ffcf3b46fe472014769452f9be9afb8aa3f79895acd32d35d14022032b0b230a3d9fffe4d348a805914920913918fbcea86e8f37c7bd7229900ebca0147304402202f1ac501c569dac2a6e2b5fa560e9063f3ffc96540216eb606cd6567e93c2cdd022036df0fcece3bc5540a33f045737f67ee94b0ec82791482a9d1102b840b530079014752210333a2cce5556afb7a9431cdacaea04e945b9daa974227ab5f4aca265bc268c7952103871fc2ca08e6950b38867e8e6a0e94ee625223d3aa0df5c65f414c6d784467e252ae00000000", "vin": [{"txinwitness": ["", "3045022100f1a6b256e0e24ffcf3b46fe472014769452f9be9afb8aa3f79895acd32d35d14022032b0b230a3d9fffe4d348a805914920913918fbcea86e8f37c7bd7229900ebca01", "304402202f1ac501c569dac2a6e2b5fa560e9063f3ffc96540216eb606cd6567e93c2cdd022036df0fcece3bc5540a33f045737f67ee94b0ec82791482a9d1102b840b53007901", "52210333a2cce5556afb7a9431cdacaea04e945b9daa974227ab5f4aca265bc268c7952103871fc2ca08e6950b38867e8e6a0e94ee625223d3aa0df5c65f414c6d784467e252ae"], "sequence": 4294967295, "scriptSig": {"hex": "22002045dc4a8e7a7ed593d2ea538a381c31e2607ee08f052e914f99311fee2a8f4d56", "asm": "002045dc4a8e7a7ed593d2ea538a381c31e2607ee08f052e914f99311fee2a8f4d56"}, "vout": 1, "txid": "549e5820ba573deb849135e1dc5810b4b8ca431e117e629ebb445787025d9103"}], "txid": "fc968f970b338a6afb54df1a85e7042642201fdd1cb5d0e16ff610ea551feb48", "blocktime": 1537876114, "version": 1, "confirmations": 11460, "time": 1537876114, "locktime": 0, "vsize": 208, "size": 373}