{"hash": "6721997f1602d342c75bc50e86e4015fea257a502535848a5d8da18f5862f4c5", "blockhash": "0000000000000000001e0dab787dd257d1dbfcb92a98c2207d5e1078be1f4165", "vout": [{"scriptPubKey": {"reqSigs": 1, "hex": "a9148049cbfb45f0f18957c0d4d42c3bfe8967d04ed487", "addresses": ["3DPLpbAM9kxpdhMTNcE4jAiVksVuDHqYEK"], "asm": "OP_HASH160 8049cbfb45f0f18957c0d4d42c3bfe8967d04ed4 OP_EQUAL", "type": "scripthash"}, "value": 0.11616029, "n": 0}, {"scriptPubKey": {"reqSigs": 1, "hex": "76a914500973f2195c1097b64d6d4eee1e597cf224762988ac", "addresses": ["18JCP9VGpZ2WxZihWMEeEMVzbKSH35TGht"], "asm": "OP_DUP OP_HASH160 500973f2195c1097b64d6d4eee1e597cf2247629 OP_EQUALVERIFY OP_CHECKSIG", "type": "pubkeyhash"}, "value": 0.12333802, "n": 1}], "hex": "0200000000010153ed48d88d6c1022fc39721335d7b8ebd72e416c74f826b29ff33379b41e800816000000171600145db89fc36f7cda10789cf040942f20de9cc13a75feffffff021d3fb1000000000017a9148049cbfb45f0f18957c0d4d42c3bfe8967d04ed487ea32bc00000000001976a914500973f2195c1097b64d6d4eee1e597cf224762988ac0247304402205b5c2c032b864c4ea8dbdf6485837391c4641f5299edbac90729c892d8d15084022047d10e32423b2b25b043878de509d3bc1e2d7a17ad621f8b6161ba9bf4c8d6560121030e19b76a5d9b038b83d34cca9b8a0a9e0b437e963f716cc8ab6244d679fb3c7912490800", "vin": [{"txinwitness": ["304402205b5c2c032b864c4ea8dbdf6485837391c4641f5299edbac90729c892d8d15084022047d10e32423b2b25b043878de509d3bc1e2d7a17ad621f8b6161ba9bf4c8d65601", "030e19b76a5d9b038b83d34cca9b8a0a9e0b437e963f716cc8ab6244d679fb3c79"], "sequence": 4294967294, "scriptSig": {"hex": "1600145db89fc36f7cda10789cf040942f20de9cc13a75", "asm": "00145db89fc36f7cda10789cf040942f20de9cc13a75"}, "vout": 22, "txid": "08801eb47933f39fb226f8746c412ed7ebb8d735137239fc22106c8dd848ed53"}], "txid": "fc985c9a7490cf9230a2646f5dc3e95d6522d6ec6263fa435883383c8e43758c", "blocktime": 1537872475, "version": 2, "confirmations": 11487, "time": 1537872475, "locktime": 542994, "vsize": 168, "size": 249}