{"hash": "fc9942f2ea9b929e2f482b3b4a65d49bc49301c78675c9df1c9f9beffe079849", "blockhash": "0000000000000000000e13cef7c366c0283d82e591d1acd082e914b08063cdf1", "vout": [{"scriptPubKey": {"reqSigs": 1, "hex": "76a914c4aa2182f83b33c136272b5fca96494e6a1673b188ac", "addresses": ["1JvsFW5DjffQvRTDrZmdcqjA777TukY5wL"], "asm": "OP_DUP OP_HASH160 c4aa2182f83b33c136272b5fca96494e6a1673b1 OP_EQUALVERIFY OP_CHECKSIG", "type": "pubkeyhash"}, "value": 0.01091414, "n": 0}, {"scriptPubKey": {"reqSigs": 1, "hex": "76a914e618347720b9eaacefb0207f2aa0cde4630f9e6688ac", "addresses": ["1MydQumuraHS2XGTgxUyFx2fBUNtBM8FpU"], "asm": "OP_DUP OP_HASH160 e618347720b9eaacefb0207f2aa0cde4630f9e66 OP_EQUALVERIFY OP_CHECKSIG", "type": "pubkeyhash"}, "value": 0.02344955, "n": 1}], "hex": "0100000001f4cbbb946decefcb762bcdd2d4116dd2971f4eced7de91e3d09fde13775a50a8000000006b483045022100fb8efda44e225d1f5dd3ad61065241a81d226fb404f7fb9262f8f161bdde8dc802203da286c88477376875e41ae5e2946f30f9dbdfdc5684bd6fbd79b08d171b46d6012102337cc7c4379056832e3ac9c3b000adcdc3ba5ad60334d6df9a6a1a8a38c0d918ffffffff0256a71000000000001976a914c4aa2182f83b33c136272b5fca96494e6a1673b188acfbc72300000000001976a914e618347720b9eaacefb0207f2aa0cde4630f9e6688ac00000000", "vin": [{"sequence": 4294967295, "scriptSig": {"hex": "483045022100fb8efda44e225d1f5dd3ad61065241a81d226fb404f7fb9262f8f161bdde8dc802203da286c88477376875e41ae5e2946f30f9dbdfdc5684bd6fbd79b08d171b46d6012102337cc7c4379056832e3ac9c3b000adcdc3ba5ad60334d6df9a6a1a8a38c0d918", "asm": "3045022100fb8efda44e225d1f5dd3ad61065241a81d226fb404f7fb9262f8f161bdde8dc802203da286c88477376875e41ae5e2946f30f9dbdfdc5684bd6fbd79b08d171b46d6[ALL] 02337cc7c4379056832e3ac9c3b000adcdc3ba5ad60334d6df9a6a1a8a38c0d918"}, "vout": 0, "txid": "a8505a7713de9fd0e391ded7ce4e1f97d26d11d4d2cd2b76cbefec6d94bbcbf4"}], "txid": "fc9942f2ea9b929e2f482b3b4a65d49bc49301c78675c9df1c9f9beffe079849", "blocktime": 1537871767, "version": 1, "confirmations": 11495, "time": 1537871767, "locktime": 0, "vsize": 226, "size": 226}