{"hash": "4e4ea3bf3741fce33bf466acea6330fe08358ae3d3902c28d077d94d92856568", "blockhash": "0000000000000000001cda96e906b7601b7a6fb1a3b62bca570a9e5d8f4b3de1", "vout": [{"scriptPubKey": {"reqSigs": 1, "hex": "a914190a0ecd275c5849fbd92b453434a8e243649d5e87", "addresses": ["33yQsAkcSgja5pQYtyJAJSsKSWeUENFmvk"], "asm": "OP_HASH160 190a0ecd275c5849fbd92b453434a8e243649d5e OP_EQUAL", "type": "scripthash"}, "value": 0.01007738, "n": 0}, {"scriptPubKey": {"reqSigs": 1, "hex": "76a9146bf5d825fdc826a564706de3e597daf6a5aaf14b88ac", "addresses": ["1Aqqp6BYo68MNUBoX7myFDEicK2Xk7yxRH"], "asm": "OP_DUP OP_HASH160 6bf5d825fdc826a564706de3e597daf6a5aaf14b OP_EQUALVERIFY OP_CHECKSIG", "type": "pubkeyhash"}, "value": 0.0028946, "n": 1}], "hex": "020000000001026c8c60369fa8c25686076f7f65b238f07cb2f91bb85cc36c8080e86d0dbaa4290100000017160014ffc67e65922a483755ccbd97f69c563262b2fe95feffffffce8d34b1236978fae91dd1ff1295145df89c8674672181a70a30e2bc32264ce9030000001716001408fc8e09278849e7a684cf7004e88bee4dac11cdfeffffff027a600f000000000017a914190a0ecd275c5849fbd92b453434a8e243649d5e87b46a0400000000001976a9146bf5d825fdc826a564706de3e597daf6a5aaf14b88ac0247304402203d5419feae214f6ab6bd312850c4a2552a929c32b1a7b538aca29f095e1ec39d022030dfddbe94bdf43b07750a65efa74e82322bacc174d987d2e8e7c686781a3c130121026dd7fca219d7348bd503bbcb1a70b8427a82655c561fed4149afed30a4a8f76502483045022100895c804cb910fe9489461fc491530b9e6f1a8431cc0cc0563dbb5c5f58d624fb02205df693885a6f5c68984aa6cf2f7c80959d573d0cf379d8683fd2f6dee3f806160121022523aabc7948d3428e477035177c32c6a09da8f5142117826121aa8d5ddaf4e613490800", "vin": [{"txinwitness": ["304402203d5419feae214f6ab6bd312850c4a2552a929c32b1a7b538aca29f095e1ec39d022030dfddbe94bdf43b07750a65efa74e82322bacc174d987d2e8e7c686781a3c1301", "026dd7fca219d7348bd503bbcb1a70b8427a82655c561fed4149afed30a4a8f765"], "sequence": 4294967294, "scriptSig": {"hex": "160014ffc67e65922a483755ccbd97f69c563262b2fe95", "asm": "0014ffc67e65922a483755ccbd97f69c563262b2fe95"}, "vout": 1, "txid": "29a4ba0d6de880806cc35cb81bf9b27cf038b2657f6f078656c2a89f36608c6c"}, {"txinwitness": ["3045022100895c804cb910fe9489461fc491530b9e6f1a8431cc0cc0563dbb5c5f58d624fb02205df693885a6f5c68984aa6cf2f7c80959d573d0cf379d8683fd2f6dee3f8061601", "022523aabc7948d3428e477035177c32c6a09da8f5142117826121aa8d5ddaf4e6"], "sequence": 4294967294, "scriptSig": {"hex": "16001408fc8e09278849e7a684cf7004e88bee4dac11cd", "asm": "001408fc8e09278849e7a684cf7004e88bee4dac11cd"}, "vout": 3, "txid": "e94c2632bce2300aa781216774869cf85d149512ffd11de9fa786923b1348dce"}], "txid": "fc9be7f541dd2d35cd8c39aa97287ba1b4d8fc7c5e8a007e90096c06bbf11ae1", "blocktime": 1537873282, "version": 2, "confirmations": 11484, "time": 1537873282, "locktime": 542995, "vsize": 259, "size": 421}