{"hash": "fca9b42414c745a34cad7e6b46bb7c912694f304764adb1b97eb26b9afd782e0", "blockhash": "0000000000000000001cda96e906b7601b7a6fb1a3b62bca570a9e5d8f4b3de1", "vout": [{"scriptPubKey": {"reqSigs": 1, "hex": "76a9144434862e2dea8c0775826e41f331f0b56d673f9088ac", "addresses": ["17DdsVBNu5fruU2JHYoqM5Xr5o87zxAM9C"], "asm": "OP_DUP OP_HASH160 4434862e2dea8c0775826e41f331f0b56d673f90 OP_EQUALVERIFY OP_CHECKSIG", "type": "pubkeyhash"}, "value": 0.00012409, "n": 0}, {"scriptPubKey": {"reqSigs": 1, "hex": "76a914ab7c01466f93f2b385a2fc77b053860018f3da3288ac", "addresses": ["1Gdj6pZvXg4q9EVSmKFEe6iWrsT7gpZ4TA"], "asm": "OP_DUP OP_HASH160 ab7c01466f93f2b385a2fc77b053860018f3da32 OP_EQUALVERIFY OP_CHECKSIG", "type": "pubkeyhash"}, "value": 0.00343767, "n": 1}], "hex": "01000000023a8f2c4ec87349ef51a4a426edfa6a15ebacda461e49d8104b4fab9b515fd3aa000000006b48304502210084db20e1d75c546786c400f8b266f2b6d56b5d1b784ff7fc755d03f187cc6f6d022021e1a4485b69642559d7e13f4710b0d61262e88f0733ecb16cdca6bd103ec197012103d1d0a5cd49c7019d310e7253197215a90f940914022f6f7c637d38da112fe8f1ffffffff1b44639806d31772f084b11cd83fb7ff20745365a06a2c98071668d20f60b3f4000000006a47304402207aa911ceecc37eb8f0c4b36651e38a80bea6d18ef9c524175f565d911122ff8002202c97fa756b3c5afd864ca83d44f6ce8db4468a01ff31bf4d866a68932a57b3130121022d32074fec017c4d6d6d460c28490e6ffb7c545defada5dd7f6f73434f5008e9ffffffff0279300000000000001976a9144434862e2dea8c0775826e41f331f0b56d673f9088acd73e0500000000001976a914ab7c01466f93f2b385a2fc77b053860018f3da3288ac00000000", "vin": [{"sequence": 4294967295, "scriptSig": {"hex": "48304502210084db20e1d75c546786c400f8b266f2b6d56b5d1b784ff7fc755d03f187cc6f6d022021e1a4485b69642559d7e13f4710b0d61262e88f0733ecb16cdca6bd103ec197012103d1d0a5cd49c7019d310e7253197215a90f940914022f6f7c637d38da112fe8f1", "asm": "304502210084db20e1d75c546786c400f8b266f2b6d56b5d1b784ff7fc755d03f187cc6f6d022021e1a4485b69642559d7e13f4710b0d61262e88f0733ecb16cdca6bd103ec197[ALL] 03d1d0a5cd49c7019d310e7253197215a90f940914022f6f7c637d38da112fe8f1"}, "vout": 0, "txid": "aad35f519bab4f4b10d8491e46daaceb156afaed26a4a451ef4973c84e2c8f3a"}, {"sequence": 4294967295, "scriptSig": {"hex": "47304402207aa911ceecc37eb8f0c4b36651e38a80bea6d18ef9c524175f565d911122ff8002202c97fa756b3c5afd864ca83d44f6ce8db4468a01ff31bf4d866a68932a57b3130121022d32074fec017c4d6d6d460c28490e6ffb7c545defada5dd7f6f73434f5008e9", "asm": "304402207aa911ceecc37eb8f0c4b36651e38a80bea6d18ef9c524175f565d911122ff8002202c97fa756b3c5afd864ca83d44f6ce8db4468a01ff31bf4d866a68932a57b313[ALL] 022d32074fec017c4d6d6d460c28490e6ffb7c545defada5dd7f6f73434f5008e9"}, "vout": 0, "txid": "f4b3600fd2681607982c6aa065537420ffb73fd81cb184f07217d3069863441b"}], "txid": "fca9b42414c745a34cad7e6b46bb7c912694f304764adb1b97eb26b9afd782e0", "blocktime": 1537873282, "version": 1, "confirmations": 11485, "time": 1537873282, "locktime": 0, "vsize": 373, "size": 373}