{"hash": "42417a1da8b13a0dc3cea48adf23fbddd5275ba096451ca7562307dc10dd064c", "blockhash": "0000000000000000001cda96e906b7601b7a6fb1a3b62bca570a9e5d8f4b3de1", "vout": [{"scriptPubKey": {"reqSigs": 1, "hex": "a914cf4c3f336ef6428a81dbf55a468041b096ce2f4e87", "addresses": ["3Lb78yiRjRSWkmyr43inENi5eDDwAtPXhQ"], "asm": "OP_HASH160 cf4c3f336ef6428a81dbf55a468041b096ce2f4e OP_EQUAL", "type": "scripthash"}, "value": 0.01123825, "n": 0}, {"scriptPubKey": {"reqSigs": 1, "hex": "00144f79872575ae48695b7b38a6064c82cde2d946ac", "addresses": ["bc1qfaucwft44eyxjkmm8znqvnyzeh3dj34vyjgcpl"], "asm": "0 4f79872575ae48695b7b38a6064c82cde2d946ac", "type": "witness_v0_keyhash"}, "value": 0.00194416, "n": 1}], "hex": "01000000000101dfc801ae11682fd02599f4f9099a9359198efc641a6b167d9e51ac25de25299d0000000000ffffffff02f12511000000000017a914cf4c3f336ef6428a81dbf55a468041b096ce2f4e8770f70200000000001600144f79872575ae48695b7b38a6064c82cde2d946ac0247304402205d9833855b75747ba3b6ff53305e64726b8825d624d8a5dabec26e74c21b027f02202f897a0f2a51709da1d3cf4c2d762fc15df7cc8834f53b027e5f7f2ede86e6a701210353802abd49657d0cb9d962a1b562a47ee64af938e4fb0bbb7b556f7f8044a4fb00000000", "vin": [{"txinwitness": ["304402205d9833855b75747ba3b6ff53305e64726b8825d624d8a5dabec26e74c21b027f02202f897a0f2a51709da1d3cf4c2d762fc15df7cc8834f53b027e5f7f2ede86e6a701", "0353802abd49657d0cb9d962a1b562a47ee64af938e4fb0bbb7b556f7f8044a4fb"], "sequence": 4294967295, "scriptSig": {"hex": "", "asm": ""}, "vout": 0, "txid": "9d2925de25ac519e7d166b1a64fc8e1959939a09f9f49925d02f6811ae01c8df"}], "txid": "fca94142b9f33e53a3bf0442c3f6c99cfe56d46d809dfa05cb89cbffc4cac964", "blocktime": 1537873282, "version": 1, "confirmations": 11484, "time": 1537873282, "locktime": 0, "vsize": 142, "size": 223}