{"hash": "fcaaa8977ba4192b7731589120d9f3b3df62d3cbb7115cd8599ebc91b1c1d0a8", "blockhash": "0000000000000000000dcc0f55137456b1a82d3642486a52398922ac4d620174", "vout": [{"scriptPubKey": {"reqSigs": 1, "hex": "76a914e4394d28913331e6e6d8dc4a666da780576ca18988ac", "addresses": ["1Moji7HjkDdwrZWwEvD6QtwEfhgmZRtvCH"], "asm": "OP_DUP OP_HASH160 e4394d28913331e6e6d8dc4a666da780576ca189 OP_EQUALVERIFY OP_CHECKSIG", "type": "pubkeyhash"}, "value": 0.00273251, "n": 0}, {"scriptPubKey": {"reqSigs": 1, "hex": "76a9141f0b8d63e9cc610ccb52e5f841ceff347cb0862288ac", "addresses": ["13q9ncfwC9Ri1Kbrm5eCBw9M3gx6DuCpeA"], "asm": "OP_DUP OP_HASH160 1f0b8d63e9cc610ccb52e5f841ceff347cb08622 OP_EQUALVERIFY OP_CHECKSIG", "type": "pubkeyhash"}, "value": 0.00436557, "n": 1}], "hex": "0100000001f1016d19817f80d11e8797792b41154fc2e8957c98403a4ae59e6d1cc7fd6417010000006a473044022078561727306a353723e8f3b6d21447a19bc542415cc1cba41596b886c484f9bd022047a4ca53bed570d422bc56da980865d2eae2a5b4d88e534f46fd5e9e9f89b7210121038c130e1ec8c816b5aa31a9cb58cba5f9ada8f7984d2c4125cc4c626d775e8c4bfdffffff02632b0400000000001976a914e4394d28913331e6e6d8dc4a666da780576ca18988ac4da90600000000001976a9141f0b8d63e9cc610ccb52e5f841ceff347cb0862288ac0b490800", "vin": [{"sequence": 4294967293, "scriptSig": {"hex": "473044022078561727306a353723e8f3b6d21447a19bc542415cc1cba41596b886c484f9bd022047a4ca53bed570d422bc56da980865d2eae2a5b4d88e534f46fd5e9e9f89b7210121038c130e1ec8c816b5aa31a9cb58cba5f9ada8f7984d2c4125cc4c626d775e8c4b", "asm": "3044022078561727306a353723e8f3b6d21447a19bc542415cc1cba41596b886c484f9bd022047a4ca53bed570d422bc56da980865d2eae2a5b4d88e534f46fd5e9e9f89b721[ALL] 038c130e1ec8c816b5aa31a9cb58cba5f9ada8f7984d2c4125cc4c626d775e8c4b"}, "vout": 1, "txid": "1764fdc71c6d9ee54a3a40987c95e8c24f15412b7997871ed1807f81196d01f1"}], "txid": "fcaaa8977ba4192b7731589120d9f3b3df62d3cbb7115cd8599ebc91b1c1d0a8", "blocktime": 1537870268, "version": 1, "confirmations": 11516, "time": 1537870268, "locktime": 542987, "vsize": 225, "size": 225}