{"hash": "fcb21bfa7144b5acee0f3712c728d528f1e613bfd670666337a406cb1d471b96", "blockhash": "0000000000000000001f76057863aec43deb6fa401d9628bb513d65a8098bfab", "vout": [{"scriptPubKey": {"reqSigs": 1, "hex": "76a91452d409282500cc887f83f1f6ba4a9c58e076457688ac", "addresses": ["18YxREYo4ynfn7j6s6jXMELuhcmsQm59kH"], "asm": "OP_DUP OP_HASH160 52d409282500cc887f83f1f6ba4a9c58e0764576 OP_EQUALVERIFY OP_CHECKSIG", "type": "pubkeyhash"}, "value": 0.0005734, "n": 0}, {"scriptPubKey": {"type": "nulldata", "hex": "6a4c50000077ed000124b1f0d19ed074892d00f8e87af8e8e963c7cfd5b95b23cc0f42c2fc38c521244acc7a4e581f7130df2fcaf9cf5b5baa17b206137dee4312661dbc9a9526289ac0f6612cd74e33776ee4", "asm": "OP_RETURN 000077ed000124b1f0d19ed074892d00f8e87af8e8e963c7cfd5b95b23cc0f42c2fc38c521244acc7a4e581f7130df2fcaf9cf5b5baa17b206137dee4312661dbc9a9526289ac0f6612cd74e33776ee4"}, "value": 0.0, "n": 1}], "hex": "0100000001f945d4631a86b35e3056629b6e3f08bbb5873921310244d21dfd1c623fad84b2000000006b4830450221009612f867afc19a2b4db565f2ab1a08e37e057ace2832f3fb3e92d7b96138651402204649719211a2fabf6fad6f7c3d91dbe29cbbde8a0f818d131a217ff29c9dafd6012103e34e154bcf5a1d27cacbb62c5fc71fbdff43a512564919f6821bea4efc0132b8ffffffff02fcdf0000000000001976a91452d409282500cc887f83f1f6ba4a9c58e076457688ac0000000000000000536a4c50000077ed000124b1f0d19ed074892d00f8e87af8e8e963c7cfd5b95b23cc0f42c2fc38c521244acc7a4e581f7130df2fcaf9cf5b5baa17b206137dee4312661dbc9a9526289ac0f6612cd74e33776ee400000000", "vin": [{"sequence": 4294967295, "scriptSig": {"hex": "4830450221009612f867afc19a2b4db565f2ab1a08e37e057ace2832f3fb3e92d7b96138651402204649719211a2fabf6fad6f7c3d91dbe29cbbde8a0f818d131a217ff29c9dafd6012103e34e154bcf5a1d27cacbb62c5fc71fbdff43a512564919f6821bea4efc0132b8", "asm": "30450221009612f867afc19a2b4db565f2ab1a08e37e057ace2832f3fb3e92d7b96138651402204649719211a2fabf6fad6f7c3d91dbe29cbbde8a0f818d131a217ff29c9dafd6[ALL] 03e34e154bcf5a1d27cacbb62c5fc71fbdff43a512564919f6821bea4efc0132b8"}, "vout": 0, "txid": "b284ad3f621cfd1dd2440231213987b5bb083f6e9b6256305eb3861a63d445f9"}], "txid": "fcb21bfa7144b5acee0f3712c728d528f1e613bfd670666337a406cb1d471b96", "blocktime": 1537873891, "version": 1, "confirmations": 11478, "time": 1537873891, "locktime": 0, "vsize": 284, "size": 284}