{"hash": "e8b2656e62fa178d291cc8832dd537b291fe40cbdc2abd5c2571eaa0f3a82b93", "blockhash": "0000000000000000001f76057863aec43deb6fa401d9628bb513d65a8098bfab", "vout": [{"scriptPubKey": {"reqSigs": 1, "hex": "76a914c7e64a866d058c36f611243fd54573c2fc0f91fa88ac", "addresses": ["1KDyM5iefqsTLRzX5qnzSp63JoResSShKa"], "asm": "OP_DUP OP_HASH160 c7e64a866d058c36f611243fd54573c2fc0f91fa OP_EQUALVERIFY OP_CHECKSIG", "type": "pubkeyhash"}, "value": 0.719, "n": 0}], "hex": "01000000000109fb05659587fc511bcb0c0371ffad0319e6a09dbd18ebc3bc02b4ab4961f8b51a0100000017160014df91bb514c412abbe2d64425fe8d1cb4a0b7837bffffffffde494c8735df1a5e4fba8cdffee067c62c94233e987e085977128b6a697551330100000017160014df91bb514c412abbe2d64425fe8d1cb4a0b7837bffffffff1c0ae127273f5ac78cb7f5bd1e327e2793b25ef815945cf5be3d5393c90a22530400000017160014df91bb514c412abbe2d64425fe8d1cb4a0b7837bffffffff36c896c186270cbeac32a0c221cd36fc43ba351a0d57a081aaac062464b3d8570200000017160014df91bb514c412abbe2d64425fe8d1cb4a0b7837bffffffffb2d4faa637186067ed673aca44d522f8e1d7ccb119a58df1c6fdeecb179873640600000017160014df91bb514c412abbe2d64425fe8d1cb4a0b7837bffffffff9985bafe91e7c64463eb2df4fa0e9dc0fcc1a534e53a51153f06fd4565b71f680000000017160014df91bb514c412abbe2d64425fe8d1cb4a0b7837bffffffff62b9f37b646d215a94b34c681611333fb1f187264570f73d18474d931a59638a0000000017160014df91bb514c412abbe2d64425fe8d1cb4a0b7837bffffffff5ad07b4c85240eca48e66654c75705467f13424e7c8cafe86acd9f383515d6c10f00000017160014df91bb514c412abbe2d64425fe8d1cb4a0b7837bffffffff8b83861f366fa2caf4c47f29f047ea74d2d54bd0c4b7fe67946949219b9908ef0300000017160014df91bb514c412abbe2d64425fe8d1cb4a0b7837bffffffff01601b4904000000001976a914c7e64a866d058c36f611243fd54573c2fc0f91fa88ac0247304402203d3d53191c6900d22db350257b2969ad9efe0124644a2f3a862a58a589ec2d3902205147cebdee2ff9db9d57b50a775488d27792ad03484a517eb20c1b43eca633bc0121031441a30d272290f010a8499272b4f2a9a2c20d25318adee580085dd33671441c02483045022100b58840f07a271a40403fd58f64e6467361b9c9cc16d96a1c4dd31fe17b589ce8022058a06970ae57f7ad6ef6a60deac46c71ab3b6f69f12eb9424f44e0c4f45ddefb0121031441a30d272290f010a8499272b4f2a9a2c20d25318adee580085dd33671441c02483045022100f4fe111ce04e0df149e3b87b98856522db22f6a1a790ef0f053a10ec3c80140602204723f20fbf0c4fe3dd91f0575122780baec8f413cae84574d92804d4df83d90d0121031441a30d272290f010a8499272b4f2a9a2c20d25318adee580085dd33671441c02483045022100b8b7f19f7f5f4b162091e8b18c4d670a5214a6c42df17d98f46e088196a72fc20220481e09cc6da1354a6753e793a8e678c071a3a2e9fa7281ef75d18cdda27a578d0121031441a30d272290f010a8499272b4f2a9a2c20d25318adee580085dd33671441c02483045022100ecf7050376b59f5056f96dd3770e88dec2fa73b4aa5e1d9762f0d57d7fec273402201ee0fba077b8f4892ec892573c41534072d01cc0babe897f103751bcafc353040121031441a30d272290f010a8499272b4f2a9a2c20d25318adee580085dd33671441c024730440220518aa4ab7b493d7e5f7d22593feb8ad135353d27be97100967681304a66a2061022023d7345fa4f674f4c5b08c5d5225fb4fcf92e5a5a50aff1443503352d346ded40121031441a30d272290f010a8499272b4f2a9a2c20d25318adee580085dd33671441c0247304402202d4da3289fa7766004c5d35dc395aad357a40f27b50d5fdf2dc729537db21f7a02204b9672b48286afebcfad2613e8254805559d214720c03e8adcc25394c33b8ce70121031441a30d272290f010a8499272b4f2a9a2c20d25318adee580085dd33671441c02473044022056df53a9a10e6eb9556c7ba61a2204d040b8f18e0967cf3ceff799dfb5c068fa022008ec8aef7274fe22d201fdbea7aa5fcef91a800532062374cf7004352d8ca4ce0121031441a30d272290f010a8499272b4f2a9a2c20d25318adee580085dd33671441c0247304402206d3eee352784b98fd5a910e6e5321d20801a1d0200aeeae1c045c06a46f6469402207f58137e70f8d2f20cfaf8ee1c122f7241cf2f943135b9baa6b8558fcf142f650121031441a30d272290f010a8499272b4f2a9a2c20d25318adee580085dd33671441c00000000", "vin": [{"txinwitness": ["304402203d3d53191c6900d22db350257b2969ad9efe0124644a2f3a862a58a589ec2d3902205147cebdee2ff9db9d57b50a775488d27792ad03484a517eb20c1b43eca633bc01", "031441a30d272290f010a8499272b4f2a9a2c20d25318adee580085dd33671441c"], "sequence": 4294967295, "scriptSig": {"hex": "160014df91bb514c412abbe2d64425fe8d1cb4a0b7837b", "asm": "0014df91bb514c412abbe2d64425fe8d1cb4a0b7837b"}, "vout": 1, "txid": "1ab5f86149abb402bcc3eb18bd9da0e61903adff71030ccb1b51fc87956505fb"}, {"txinwitness": ["3045022100b58840f07a271a40403fd58f64e6467361b9c9cc16d96a1c4dd31fe17b589ce8022058a06970ae57f7ad6ef6a60deac46c71ab3b6f69f12eb9424f44e0c4f45ddefb01", "031441a30d272290f010a8499272b4f2a9a2c20d25318adee580085dd33671441c"], "sequence": 4294967295, "scriptSig": {"hex": "160014df91bb514c412abbe2d64425fe8d1cb4a0b7837b", "asm": "0014df91bb514c412abbe2d64425fe8d1cb4a0b7837b"}, "vout": 1, "txid": "335175696a8b127759087e983e23942cc667e0fedf8cba4f5e1adf35874c49de"}, {"txinwitness": ["3045022100f4fe111ce04e0df149e3b87b98856522db22f6a1a790ef0f053a10ec3c80140602204723f20fbf0c4fe3dd91f0575122780baec8f413cae84574d92804d4df83d90d01", "031441a30d272290f010a8499272b4f2a9a2c20d25318adee580085dd33671441c"], "sequence": 4294967295, "scriptSig": {"hex": "160014df91bb514c412abbe2d64425fe8d1cb4a0b7837b", "asm": "0014df91bb514c412abbe2d64425fe8d1cb4a0b7837b"}, "vout": 4, "txid": "53220ac993533dbef55c9415f85eb293277e321ebdf5b78cc75a3f2727e10a1c"}, {"txinwitness": ["3045022100b8b7f19f7f5f4b162091e8b18c4d670a5214a6c42df17d98f46e088196a72fc20220481e09cc6da1354a6753e793a8e678c071a3a2e9fa7281ef75d18cdda27a578d01", "031441a30d272290f010a8499272b4f2a9a2c20d25318adee580085dd33671441c"], "sequence": 4294967295, "scriptSig": {"hex": "160014df91bb514c412abbe2d64425fe8d1cb4a0b7837b", "asm": "0014df91bb514c412abbe2d64425fe8d1cb4a0b7837b"}, "vout": 2, "txid": "57d8b3642406acaa81a0570d1a35ba43fc36cd21c2a032acbe0c2786c196c836"}, {"txinwitness": ["3045022100ecf7050376b59f5056f96dd3770e88dec2fa73b4aa5e1d9762f0d57d7fec273402201ee0fba077b8f4892ec892573c41534072d01cc0babe897f103751bcafc3530401", "031441a30d272290f010a8499272b4f2a9a2c20d25318adee580085dd33671441c"], "sequence": 4294967295, "scriptSig": {"hex": "160014df91bb514c412abbe2d64425fe8d1cb4a0b7837b", "asm": "0014df91bb514c412abbe2d64425fe8d1cb4a0b7837b"}, "vout": 6, "txid": "64739817cbeefdc6f18da519b1ccd7e1f822d544ca3a67ed67601837a6fad4b2"}, {"txinwitness": ["30440220518aa4ab7b493d7e5f7d22593feb8ad135353d27be97100967681304a66a2061022023d7345fa4f674f4c5b08c5d5225fb4fcf92e5a5a50aff1443503352d346ded401", "031441a30d272290f010a8499272b4f2a9a2c20d25318adee580085dd33671441c"], "sequence": 4294967295, "scriptSig": {"hex": "160014df91bb514c412abbe2d64425fe8d1cb4a0b7837b", "asm": "0014df91bb514c412abbe2d64425fe8d1cb4a0b7837b"}, "vout": 0, "txid": "681fb76545fd063f15513ae534a5c1fcc09d0efaf42deb6344c6e791feba8599"}, {"txinwitness": ["304402202d4da3289fa7766004c5d35dc395aad357a40f27b50d5fdf2dc729537db21f7a02204b9672b48286afebcfad2613e8254805559d214720c03e8adcc25394c33b8ce701", "031441a30d272290f010a8499272b4f2a9a2c20d25318adee580085dd33671441c"], "sequence": 4294967295, "scriptSig": {"hex": "160014df91bb514c412abbe2d64425fe8d1cb4a0b7837b", "asm": "0014df91bb514c412abbe2d64425fe8d1cb4a0b7837b"}, "vout": 0, "txid": "8a63591a934d47183df770452687f1b13f331116684cb3945a216d647bf3b962"}, {"txinwitness": ["3044022056df53a9a10e6eb9556c7ba61a2204d040b8f18e0967cf3ceff799dfb5c068fa022008ec8aef7274fe22d201fdbea7aa5fcef91a800532062374cf7004352d8ca4ce01", "031441a30d272290f010a8499272b4f2a9a2c20d25318adee580085dd33671441c"], "sequence": 4294967295, "scriptSig": {"hex": "160014df91bb514c412abbe2d64425fe8d1cb4a0b7837b", "asm": "0014df91bb514c412abbe2d64425fe8d1cb4a0b7837b"}, "vout": 15, "txid": "c1d61535389fcd6ae8af8c7c4e42137f460557c75466e648ca0e24854c7bd05a"}, {"txinwitness": ["304402206d3eee352784b98fd5a910e6e5321d20801a1d0200aeeae1c045c06a46f6469402207f58137e70f8d2f20cfaf8ee1c122f7241cf2f943135b9baa6b8558fcf142f6501", "031441a30d272290f010a8499272b4f2a9a2c20d25318adee580085dd33671441c"], "sequence": 4294967295, "scriptSig": {"hex": "160014df91bb514c412abbe2d64425fe8d1cb4a0b7837b", "asm": "0014df91bb514c412abbe2d64425fe8d1cb4a0b7837b"}, "vout": 3, "txid": "ef08999b2149699467feb7c4d04bd5d274ea47f0297fc4f4caa26f361f86838b"}], "txid": "fcb20ecaacdb910aae7e7de78455c0a16a6f1a578cf49fe2c0188c50fa754df5", "blocktime": 1537873891, "version": 1, "confirmations": 11478, "time": 1537873891, "locktime": 0, "vsize": 863, "size": 1589}