{"hash": "029838a1bad991bc5f09ca02f7a6ed8facfb9ead97e776f0a2043935f5fbf731", "blockhash": "00000000000000000017f5eb5941039fbcee6240d03bc1f2f8e35350df66a1d8", "vout": [{"scriptPubKey": {"reqSigs": 1, "hex": "76a914ca563c538f079eb6f7108e520bd4fed3bb4a588988ac", "addresses": ["1KSroWT546imwZmcW3UVrWUm184Vj2uEFL"], "asm": "OP_DUP OP_HASH160 ca563c538f079eb6f7108e520bd4fed3bb4a5889 OP_EQUALVERIFY OP_CHECKSIG", "type": "pubkeyhash"}, "value": 0.003843, "n": 0}, {"scriptPubKey": {"reqSigs": 1, "hex": "00148c6f09d494eecc7356bca873203799031b131547", "addresses": ["bc1q33hsn4y5amx8x44u4pejqdueqvd3x9282jzdhe"], "asm": "0 8c6f09d494eecc7356bca873203799031b131547", "type": "witness_v0_keyhash"}, "value": 6.256e-05, "n": 1}], "hex": "01000000000101e7f4452a896c76d3e59262c023559b5e02c9ae2195c8b92efd57ae14fe6220cb00000000171600149f1434166b17a8232ce89a73bca9cc80241d6acdffffffff022cdd0500000000001976a914ca563c538f079eb6f7108e520bd4fed3bb4a588988ac70180000000000001600148c6f09d494eecc7356bca873203799031b131547024730440220403634e9a8b1b884befa033bb59fbbdb170b5cb67a934c5c0638f62a33cd66cb022044a5080f89a5b049ec262d614b3e5965eb762285342dae9824f1fd5171d322100121028ed2695b2d7590b90eb5f9dead8ecb786c6c82e5570222101211c317915d429c00000000", "vin": [{"txinwitness": ["30440220403634e9a8b1b884befa033bb59fbbdb170b5cb67a934c5c0638f62a33cd66cb022044a5080f89a5b049ec262d614b3e5965eb762285342dae9824f1fd5171d3221001", "028ed2695b2d7590b90eb5f9dead8ecb786c6c82e5570222101211c317915d429c"], "sequence": 4294967295, "scriptSig": {"hex": "1600149f1434166b17a8232ce89a73bca9cc80241d6acd", "asm": "00149f1434166b17a8232ce89a73bca9cc80241d6acd"}, "vout": 0, "txid": "cb2062fe14ae57fd2eb9c89521aec9025e9b5523c06292e5d3766c892a45f4e7"}], "txid": "fcb32e2bd49393c9da9d3cb9ef7a4d6531332f83593d0427d3ecbe93421808d8", "blocktime": 1537874412, "version": 1, "confirmations": 11467, "time": 1537874412, "locktime": 0, "vsize": 167, "size": 248}