{"hash": "fcb45f1f3898d943e146aabe915e261447c8fd3d3bb6c4def242d444fca03524", "blockhash": "000000000000000000022b45ed06c6f4ccd3cf7fb5ba4856ebd2e58215665228", "vout": [{"scriptPubKey": {"reqSigs": 1, "hex": "76a91477010e1fe899d9ac00058d6f4530b840112e30d988ac", "addresses": ["1BrEg9GnBsjqeDMMXBi6GqLRtXBytYfwzE"], "asm": "OP_DUP OP_HASH160 77010e1fe899d9ac00058d6f4530b840112e30d9 OP_EQUALVERIFY OP_CHECKSIG", "type": "pubkeyhash"}, "value": 0.13626264, "n": 0}, {"scriptPubKey": {"reqSigs": 1, "hex": "76a91463288276f15ff90ec40645490022891e7bad3acc88ac", "addresses": ["1A3JRefpFAVXs1CPJupLHyJjRordRpXigc"], "asm": "OP_DUP OP_HASH160 63288276f15ff90ec40645490022891e7bad3acc OP_EQUALVERIFY OP_CHECKSIG", "type": "pubkeyhash"}, "value": 0.83819288, "n": 1}], "hex": "0100000001d3950fb3ef20e972e63b514dc4f237b541355c4a59f991d7b763b895bddf1a01010000006a47304402201f7fc8212033da5a8d46cefabcde314cfc1980aaef701dd24b5b850f2ca678330220044c2c0c8e6e7c4f321c24117129c290501d9654063b6d8dae5076c02b335f0901210323e880eaaa1bef2a3da3f480a0ad7e8d668b075d1d943892a5d41d2940bbc7dcffffffff0298ebcf00000000001976a91477010e1fe899d9ac00058d6f4530b840112e30d988ac18fbfe04000000001976a91463288276f15ff90ec40645490022891e7bad3acc88ac00000000", "vin": [{"sequence": 4294967295, "scriptSig": {"hex": "47304402201f7fc8212033da5a8d46cefabcde314cfc1980aaef701dd24b5b850f2ca678330220044c2c0c8e6e7c4f321c24117129c290501d9654063b6d8dae5076c02b335f0901210323e880eaaa1bef2a3da3f480a0ad7e8d668b075d1d943892a5d41d2940bbc7dc", "asm": "304402201f7fc8212033da5a8d46cefabcde314cfc1980aaef701dd24b5b850f2ca678330220044c2c0c8e6e7c4f321c24117129c290501d9654063b6d8dae5076c02b335f09[ALL] 0323e880eaaa1bef2a3da3f480a0ad7e8d668b075d1d943892a5d41d2940bbc7dc"}, "vout": 1, "txid": "011adfbd95b863b7d791f9594a5c3541b537f2c44d513be672e920efb30f95d3"}], "txid": "fcb45f1f3898d943e146aabe915e261447c8fd3d3bb6c4def242d444fca03524", "blocktime": 1537869901, "version": 1, "confirmations": 11522, "time": 1537869901, "locktime": 0, "vsize": 225, "size": 225}