{"hash": "fcb61c240c7e224bd35bc1e327dda25c60f4839a092d3f7b49be15df994ab317", "blockhash": "00000000000000000024a2167bbff67b0be802c0b01cdd79e6331c2be6459f87", "vout": [{"scriptPubKey": {"reqSigs": 1, "hex": "76a914bc2666644e05ea52f10d3dccebf455364ce2b88f88ac", "addresses": ["1J9r39ADpGqCrw527f4VSsWYcrqCCCobaD"], "asm": "OP_DUP OP_HASH160 bc2666644e05ea52f10d3dccebf455364ce2b88f OP_EQUALVERIFY OP_CHECKSIG", "type": "pubkeyhash"}, "value": 0.01558405, "n": 0}, {"scriptPubKey": {"reqSigs": 1, "hex": "76a9142c7e864f2e07127855b019adbe308ab899b5f5b388ac", "addresses": ["154GJXZxdBZZxoPVpGRMBy3JZMmyD4rgXJ"], "asm": "OP_DUP OP_HASH160 2c7e864f2e07127855b019adbe308ab899b5f5b3 OP_EQUALVERIFY OP_CHECKSIG", "type": "pubkeyhash"}, "value": 0.06562058, "n": 1}], "hex": "0100000001fff42f16b0987953cfad26bb370eb5c21d37b52f925b77100e10e3f31e661ed6010000006b483045022100b451c510d7b928b710939a09af761798e409e214289238db8374a7f9dc007ab202205c5269b6f55f0917525f4802811973c7acdc0257d4a610c011f12e683d3fa7b6012103795cabe7b344df196cd9da0f89b0d04db06a6cbd3aa3737229b2ba22f94b40b2ffffffff0285c71700000000001976a914bc2666644e05ea52f10d3dccebf455364ce2b88f88ac0a216400000000001976a9142c7e864f2e07127855b019adbe308ab899b5f5b388ac00000000", "vin": [{"sequence": 4294967295, "scriptSig": {"hex": "483045022100b451c510d7b928b710939a09af761798e409e214289238db8374a7f9dc007ab202205c5269b6f55f0917525f4802811973c7acdc0257d4a610c011f12e683d3fa7b6012103795cabe7b344df196cd9da0f89b0d04db06a6cbd3aa3737229b2ba22f94b40b2", "asm": "3045022100b451c510d7b928b710939a09af761798e409e214289238db8374a7f9dc007ab202205c5269b6f55f0917525f4802811973c7acdc0257d4a610c011f12e683d3fa7b6[ALL] 03795cabe7b344df196cd9da0f89b0d04db06a6cbd3aa3737229b2ba22f94b40b2"}, "vout": 1, "txid": "d61e661ef3e3100e10775b922fb5371dc2b50e37bb26adcf537998b0162ff4ff"}], "txid": "fcb61c240c7e224bd35bc1e327dda25c60f4839a092d3f7b49be15df994ab317", "blocktime": 1537870564, "version": 1, "confirmations": 11515, "time": 1537870564, "locktime": 0, "vsize": 226, "size": 226}