{"hash": "fcb65ce7668b25ca137dc6cc58368082b2d447687e25b2fca6c51369d5c1e603", "blockhash": "00000000000000000018f53835495a110e01622372bf6ae95dc86f2b0ab887b0", "vout": [{"scriptPubKey": {"type": "nulldata", "hex": "6a4c500000778600012f061448616686459b63732dbcbefa6b8351586b4e86aeaeacb577c031fc8103ac2eb340c5c4766774c5a44536ff5baa0b59061431619b2703debc9a9526289ac0f6612cd74e33776ee4", "asm": "OP_RETURN 0000778600012f061448616686459b63732dbcbefa6b8351586b4e86aeaeacb577c031fc8103ac2eb340c5c4766774c5a44536ff5baa0b59061431619b2703debc9a9526289ac0f6612cd74e33776ee4"}, "value": 0.0, "n": 0}, {"scriptPubKey": {"reqSigs": 1, "hex": "76a914a27cb28e389c982ecae822300188d0f17729d7f188ac", "addresses": ["1Fp9rD9oWT8VRxJLaeKUez4GBn8jpRqU6N"], "asm": "OP_DUP OP_HASH160 a27cb28e389c982ecae822300188d0f17729d7f1 OP_EQUALVERIFY OP_CHECKSIG", "type": "pubkeyhash"}, "value": 0.0148062, "n": 1}], "hex": "010000000145e18059f14eb5a5d5d4dc86335c9d05d67abd304f8fd51a966d2be32af0614e000000006b483045022100c7a19e66513cda25a53b8d98981c5a902e50b0847feb4c4221bc1bcc4ff31e71022073e18f77ddf8252c132c9d6be1c3a62f8e44a6c31b46bef006b0f3e847d577e901210233e6bc90dc1329fefe1eeb7dca841f4282c1746c5f552b8e7260fb08d867e7deffffffff020000000000000000536a4c500000778600012f061448616686459b63732dbcbefa6b8351586b4e86aeaeacb577c031fc8103ac2eb340c5c4766774c5a44536ff5baa0b59061431619b2703debc9a9526289ac0f6612cd74e33776ee4ac971600000000001976a914a27cb28e389c982ecae822300188d0f17729d7f188ac00000000", "vin": [{"sequence": 4294967295, "scriptSig": {"hex": "483045022100c7a19e66513cda25a53b8d98981c5a902e50b0847feb4c4221bc1bcc4ff31e71022073e18f77ddf8252c132c9d6be1c3a62f8e44a6c31b46bef006b0f3e847d577e901210233e6bc90dc1329fefe1eeb7dca841f4282c1746c5f552b8e7260fb08d867e7de", "asm": "3045022100c7a19e66513cda25a53b8d98981c5a902e50b0847feb4c4221bc1bcc4ff31e71022073e18f77ddf8252c132c9d6be1c3a62f8e44a6c31b46bef006b0f3e847d577e9[ALL] 0233e6bc90dc1329fefe1eeb7dca841f4282c1746c5f552b8e7260fb08d867e7de"}, "vout": 0, "txid": "4e61f02ae32b6d961ad58f4f30bd7ad6059d5c3386dcd4d5a5b54ef15980e145"}], "txid": "fcb65ce7668b25ca137dc6cc58368082b2d447687e25b2fca6c51369d5c1e603", "blocktime": 1537870928, "version": 1, "confirmations": 11512, "time": 1537870928, "locktime": 0, "vsize": 284, "size": 284}