{"hash": "fcbecffef5f5b21ae29d1f5b72396d150190abae73c5c2e5118d16b62f3e58dc", "blockhash": "0000000000000000001e0dab787dd257d1dbfcb92a98c2207d5e1078be1f4165", "vout": [{"scriptPubKey": {"reqSigs": 1, "hex": "76a914872b3ff1bd5d2b465518ca94c2dd1f8995a0c26788ac", "addresses": ["1DKi2wnsVLd8LVjmhu8kQMEugtpNU9hXXn"], "asm": "OP_DUP OP_HASH160 872b3ff1bd5d2b465518ca94c2dd1f8995a0c267 OP_EQUALVERIFY OP_CHECKSIG", "type": "pubkeyhash"}, "value": 0.002, "n": 0}, {"scriptPubKey": {"reqSigs": 1, "hex": "76a914946a62d09e440a29d32a12e73e2710bd5bf2ab7c88ac", "addresses": ["1EXkTDjKDoqDurtacvSKKFpBDUpE1AbVTz"], "asm": "OP_DUP OP_HASH160 946a62d09e440a29d32a12e73e2710bd5bf2ab7c OP_EQUALVERIFY OP_CHECKSIG", "type": "pubkeyhash"}, "value": 0.83437468, "n": 1}], "hex": "01000000022481b3d4e930b2b7f3e2cb775bac88aec28d3e6e76e06a303f4231a861ddcaf6010000008a47304402204377fef4c9ade1a7ba20bda716ad60d68af6dc1a6330e0b1f75eb1aecd1bd2c7022052a56eb61c48c933180d44145fc1a0a68fb73cefe8ed214fad1a925801c92045014104dd002744ae9ea78e451c4d88c5734596adf5d800f134576a7e7269d097f0cb25577ee18c2ea5d363b38bb072e84fe1d0273af22b16ecd79d0286819d62afd816ffffffff386fa9231c809ca3db715baa64016a6e1d16c73962bc5f3f8c872b92adc05928010000008b483045022100d2d0feb67e7ae21974ac4c93405c9dc6331e0112a81f873fc9a2756d3549a882022016ebbe26b75013404390c46e80e797ca1139973d7ead7fe632e612677d38bca10141047e836a4ad68af593a14098ee319c4f2ed1e15638f8feaa0cd58703da95d60fdac1dcf7f266cf99de0184702f68027aa2dcd08e64ae9e67c3c875d0d1b3ebdcc1ffffffff02400d0300000000001976a914872b3ff1bd5d2b465518ca94c2dd1f8995a0c26788ac9c27f904000000001976a914946a62d09e440a29d32a12e73e2710bd5bf2ab7c88ac00000000", "vin": [{"sequence": 4294967295, "scriptSig": {"hex": "47304402204377fef4c9ade1a7ba20bda716ad60d68af6dc1a6330e0b1f75eb1aecd1bd2c7022052a56eb61c48c933180d44145fc1a0a68fb73cefe8ed214fad1a925801c92045014104dd002744ae9ea78e451c4d88c5734596adf5d800f134576a7e7269d097f0cb25577ee18c2ea5d363b38bb072e84fe1d0273af22b16ecd79d0286819d62afd816", "asm": "304402204377fef4c9ade1a7ba20bda716ad60d68af6dc1a6330e0b1f75eb1aecd1bd2c7022052a56eb61c48c933180d44145fc1a0a68fb73cefe8ed214fad1a925801c92045[ALL] 04dd002744ae9ea78e451c4d88c5734596adf5d800f134576a7e7269d097f0cb25577ee18c2ea5d363b38bb072e84fe1d0273af22b16ecd79d0286819d62afd816"}, "vout": 1, "txid": "f6cadd61a831423f306ae0766e3e8dc2ae88ac5b77cbe2f3b7b230e9d4b38124"}, {"sequence": 4294967295, "scriptSig": {"hex": "483045022100d2d0feb67e7ae21974ac4c93405c9dc6331e0112a81f873fc9a2756d3549a882022016ebbe26b75013404390c46e80e797ca1139973d7ead7fe632e612677d38bca10141047e836a4ad68af593a14098ee319c4f2ed1e15638f8feaa0cd58703da95d60fdac1dcf7f266cf99de0184702f68027aa2dcd08e64ae9e67c3c875d0d1b3ebdcc1", "asm": "3045022100d2d0feb67e7ae21974ac4c93405c9dc6331e0112a81f873fc9a2756d3549a882022016ebbe26b75013404390c46e80e797ca1139973d7ead7fe632e612677d38bca1[ALL] 047e836a4ad68af593a14098ee319c4f2ed1e15638f8feaa0cd58703da95d60fdac1dcf7f266cf99de0184702f68027aa2dcd08e64ae9e67c3c875d0d1b3ebdcc1"}, "vout": 1, "txid": "2859c0ad922b878c3f5fbc6239c7161d6e6a0164aa5b71dba39c801c23a96f38"}], "txid": "fcbecffef5f5b21ae29d1f5b72396d150190abae73c5c2e5118d16b62f3e58dc", "blocktime": 1537872475, "version": 1, "confirmations": 11486, "time": 1537872475, "locktime": 0, "vsize": 437, "size": 437}