{"hash": "bc7e23f6193d154d126d97b8959b0b9b3d668c4133b323d5848b137c28dc6661", "blockhash": "00000000000000000004ffacab907a6b429b9a5745fa0b75af4234bf69dd7176", "vout": [{"scriptPubKey": {"reqSigs": 1, "hex": "a91426e1bd32025aebf9a4b53e9d89b4286245f8f4a787", "addresses": ["35Ec2TTsPtedmb58NnMujd2ZJ4nrEix6Kw"], "asm": "OP_HASH160 26e1bd32025aebf9a4b53e9d89b4286245f8f4a7 OP_EQUAL", "type": "scripthash"}, "value": 0.0158375, "n": 0}, {"scriptPubKey": {"reqSigs": 1, "hex": "a9148061e85a2ee9db14e820e4faa1f6482e30f5406687", "addresses": ["3DPqhqdDRsurUX9aUXDGCbx4XJChxbshfN"], "asm": "OP_HASH160 8061e85a2ee9db14e820e4faa1f6482e30f54066 OP_EQUAL", "type": "scripthash"}, "value": 1.60628362, "n": 1}], "hex": "02000000000101997b59bd827364347bf4fff11ddb9af0c657e1c15ce0cf153a70d8131d1e538201000000171600143f900a8809ec11e05055b1388dc2b6d5a0dae94bfeffffff02862a18000000000017a91426e1bd32025aebf9a4b53e9d89b4286245f8f4a7878afe92090000000017a9148061e85a2ee9db14e820e4faa1f6482e30f5406687024730440220627cde738e02f0479cc2a532ff10571d3113b0cd3cc666b63543552d34e5f8600220400a4184b4f693dac707bd69b380a161326aa78e0f6d2120f27ba3e21d735e33012102d7b33854b8498223c7f1b841e2ae1b2772076f38c30cf65a375816f132f98fe216490800", "vin": [{"txinwitness": ["30440220627cde738e02f0479cc2a532ff10571d3113b0cd3cc666b63543552d34e5f8600220400a4184b4f693dac707bd69b380a161326aa78e0f6d2120f27ba3e21d735e3301", "02d7b33854b8498223c7f1b841e2ae1b2772076f38c30cf65a375816f132f98fe2"], "sequence": 4294967294, "scriptSig": {"hex": "1600143f900a8809ec11e05055b1388dc2b6d5a0dae94b", "asm": "00143f900a8809ec11e05055b1388dc2b6d5a0dae94b"}, "vout": 1, "txid": "82531e1d13d8703a15cfe05cc1e157c6f09adb1df1fff47b34647382bd597b99"}], "txid": "fcc56cc9c92a5681f808f6fc71cd4acf72838604f74770e5102de2e271b3e7a1", "blocktime": 1537875543, "version": 2, "confirmations": 11464, "time": 1537875543, "locktime": 542998, "vsize": 166, "size": 247}