{"hash": "fcc595d0ea0836239938dc9c0d29a415de5d1205d8e33c1d014d88b34e99dda0", "blockhash": "0000000000000000000e13cef7c366c0283d82e591d1acd082e914b08063cdf1", "vout": [{"scriptPubKey": {"reqSigs": 1, "hex": "76a91482bd04c4093dd3393ba79ba0c2b55dda81888d0688ac", "addresses": ["1CvHHBY5y1LoLMZ1E7qWrLtEDZoU9BRk1n"], "asm": "OP_DUP OP_HASH160 82bd04c4093dd3393ba79ba0c2b55dda81888d06 OP_EQUALVERIFY OP_CHECKSIG", "type": "pubkeyhash"}, "value": 0.00088838, "n": 0}, {"scriptPubKey": {"reqSigs": 1, "hex": "76a914a202fa8de2d0b38f9b4c52ec371efb091120691e88ac", "addresses": ["1Fme33Smj8s7m1PUNisaepfvba7tg375sc"], "asm": "OP_DUP OP_HASH160 a202fa8de2d0b38f9b4c52ec371efb091120691e OP_EQUALVERIFY OP_CHECKSIG", "type": "pubkeyhash"}, "value": 0.02178533, "n": 1}], "hex": "0100000001cd80b71eb245f2266584c6c8bee629275e8ce264900630fd64d7036850b13713010000006b4830450221009b92d3c841835ea4069f44a83ad15d9d83703cea720244ca80faa794183171af02204e9ea8596ad4d434358998276b339cd1194c06d85813d524fb00f21a156626ed0121025e7992117fab598c5bc505379a6be724af13a48cb2143ba47f1faf0eda989614ffffffff02065b0100000000001976a91482bd04c4093dd3393ba79ba0c2b55dda81888d0688ace53d2100000000001976a914a202fa8de2d0b38f9b4c52ec371efb091120691e88ac00000000", "vin": [{"sequence": 4294967295, "scriptSig": {"hex": "4830450221009b92d3c841835ea4069f44a83ad15d9d83703cea720244ca80faa794183171af02204e9ea8596ad4d434358998276b339cd1194c06d85813d524fb00f21a156626ed0121025e7992117fab598c5bc505379a6be724af13a48cb2143ba47f1faf0eda989614", "asm": "30450221009b92d3c841835ea4069f44a83ad15d9d83703cea720244ca80faa794183171af02204e9ea8596ad4d434358998276b339cd1194c06d85813d524fb00f21a156626ed[ALL] 025e7992117fab598c5bc505379a6be724af13a48cb2143ba47f1faf0eda989614"}, "vout": 1, "txid": "1337b1506803d764fd30069064e28c5e2729e6bec8c6846526f245b21eb780cd"}], "txid": "fcc595d0ea0836239938dc9c0d29a415de5d1205d8e33c1d014d88b34e99dda0", "blocktime": 1537871767, "version": 1, "confirmations": 11495, "time": 1537871767, "locktime": 0, "vsize": 226, "size": 226}