{"hash": "fcd1b3c9cd3cb91036addc0e2b682cfa1715dd27fc909c5d0cd204599a251d09", "blockhash": "0000000000000000000e13cef7c366c0283d82e591d1acd082e914b08063cdf1", "vout": [{"scriptPubKey": {"reqSigs": 1, "hex": "76a91487adb4e2b21397ab1169c65f6e5559d78a9daf9488ac", "addresses": ["1DNQKF3dHG1Fa9n35kYSujPum5wnZ8kTk8"], "asm": "OP_DUP OP_HASH160 87adb4e2b21397ab1169c65f6e5559d78a9daf94 OP_EQUALVERIFY OP_CHECKSIG", "type": "pubkeyhash"}, "value": 0.0014, "n": 0}, {"scriptPubKey": {"reqSigs": 1, "hex": "76a9142905c419f20f43091f8e4dfd328625c58d82ce1e88ac", "addresses": ["14jucVirzFU4YNPiuFdsGbQEvsSkpb8kKh"], "asm": "OP_DUP OP_HASH160 2905c419f20f43091f8e4dfd328625c58d82ce1e OP_EQUALVERIFY OP_CHECKSIG", "type": "pubkeyhash"}, "value": 0.02297734, "n": 1}], "hex": "020000000175541e0cd01f0268d4f6bf3828a618ea9fb89f5e15a07fb7156d2536f8368ac7010000006a473044022028f8fdd964c764aa62bacc769dc028ca11f1f5ce4fbcc43ad0089f27279ab91b02202067ffb2caede6052731f2513f77fbaca111bd66936e46a215548eee9ac6b857012102553619577d3b092e0dbd1d1f75ca7faa85e1f576ca2891c8ff3bc04d72904356ffffffff02e0220200000000001976a91487adb4e2b21397ab1169c65f6e5559d78a9daf9488ac860f2300000000001976a9142905c419f20f43091f8e4dfd328625c58d82ce1e88ac00000000", "vin": [{"sequence": 4294967295, "scriptSig": {"hex": "473044022028f8fdd964c764aa62bacc769dc028ca11f1f5ce4fbcc43ad0089f27279ab91b02202067ffb2caede6052731f2513f77fbaca111bd66936e46a215548eee9ac6b857012102553619577d3b092e0dbd1d1f75ca7faa85e1f576ca2891c8ff3bc04d72904356", "asm": "3044022028f8fdd964c764aa62bacc769dc028ca11f1f5ce4fbcc43ad0089f27279ab91b02202067ffb2caede6052731f2513f77fbaca111bd66936e46a215548eee9ac6b857[ALL] 02553619577d3b092e0dbd1d1f75ca7faa85e1f576ca2891c8ff3bc04d72904356"}, "vout": 1, "txid": "c78a36f836256d15b77fa0155e9fb89fea18a62838bff6d468021fd00c1e5475"}], "txid": "fcd1b3c9cd3cb91036addc0e2b682cfa1715dd27fc909c5d0cd204599a251d09", "blocktime": 1537871767, "version": 2, "confirmations": 11493, "time": 1537871767, "locktime": 0, "vsize": 225, "size": 225}