{"hash": "37c46ccde4ed541f8b1edf90b3af5c4266f18fe1cff7c716b5b7fc37e8273dfd", "blockhash": "00000000000000000017f5eb5941039fbcee6240d03bc1f2f8e35350df66a1d8", "vout": [{"scriptPubKey": {"reqSigs": 1, "hex": "a9148321bac2202c2b1e12fe11bf27bf5f01f34f5b0587", "addresses": ["3DeNrEzKoUdDa6m3FJvp4jPBk1JrUfuUHz"], "asm": "OP_HASH160 8321bac2202c2b1e12fe11bf27bf5f01f34f5b05 OP_EQUAL", "type": "scripthash"}, "value": 0.00436957, "n": 0}, {"scriptPubKey": {"reqSigs": 1, "hex": "a914858ba5b55f01c4bba8c2c0bf40cc1b4e3805ff1187", "addresses": ["3Ds95vQaiMdZ6vPEKaD6eiBbr64YyJzfFr"], "asm": "OP_HASH160 858ba5b55f01c4bba8c2c0bf40cc1b4e3805ff11 OP_EQUAL", "type": "scripthash"}, "value": 0.01126059, "n": 1}], "hex": "020000000001051db8645a65de0926771a4c444607b282c4465f342c954f0b79864b98e365d268000000001716001456d8f633d78cd64ebdfa17681db93877d3ff79b1feffffff211858cbcd5fd86546ded204f71acbf4fee0ffa8d722e13cb5bdd297e80e1e3a1c00000017160014d9a7aabb724416fb2ba9ebfd6e6f9d36a798846bfeffffff244581631c86cbcbc4565e5464001a26c7922d40d91ce2ea003ac7333c8a0e9e0000000017160014869a87e531bbad0b3156dc74fe8ac5524ec33ea4feffffffdfe7a6312ce31984ed9cc017df2373270558a0bcffd677fda25b08d0933a2c830300000017160014646b83163c153e5945b348127ad479edf392817dfefffffff200c7624e7a1ad6806cfdb18ae5fc00cb5fbc47c5d47545c4f6847778a85c2b0600000017160014b3749bebadc4d72f2321f4fd234e48a0277434a2feffffff02ddaa06000000000017a9148321bac2202c2b1e12fe11bf27bf5f01f34f5b0587ab2e11000000000017a914858ba5b55f01c4bba8c2c0bf40cc1b4e3805ff11870247304402205f59e2a616819f2f6a4d53f39126aecae38c014709c529fdb8ff75b5fb06c5a9022001208e2c36eda4f2423aa8df918df35477bb0e66008a47ee8b372c7b554891c5012103e75eda652e3a7f88c90ac9d6cc72cfe051924326bced5c2080784d4791a4067202483045022100fd417b9384fc091a4316d156846c08683e8ac4691443c7b6d3b92685702ea0c902203bebbabe8f87a5326af7f5e15826e8a07da2e558cd609ed9df34f46c227d1125012102504894038d5eede49675dc3f0b13bfb20d433938f262a24276a43e9c68d229300248304502210082c7a7b97742583f683873bf9964714e60360d96faffa60244cf4e6ba57e7ea70220611ef8f37a4c3ed39f018d6a4f088d74e95cdca0cab5e3bd25fef87dbc3e1d60012103316dd7c51112aa9f67d1cdf3ed0633bce31471c04a544bb2ef07cfaee959c1b90247304402204efcdc161fbc33333113e0d1190ba5e9752ad4f5f4f8b14240b324056a0e9c590220282ef55058df62ea03402fb491399dba445211a8fe28bb23c6c947bac207851e012103a8d2377fe0040aece23375c247696895f4c42d24a05101c7c258e30b8502e9290247304402204d79f5d9695bebb70282a5dc02913926398c0228c98a5a95b95bdb394ac8669602200acc6bca77317c4f2ddec7689cca024dff0391d46f8dad4fc4bc0114df08207d012103db9dd311c8b3643c496b89b52ace99f1c8034470e95df575fbc3dad84b20eba515490800", "vin": [{"txinwitness": ["304402205f59e2a616819f2f6a4d53f39126aecae38c014709c529fdb8ff75b5fb06c5a9022001208e2c36eda4f2423aa8df918df35477bb0e66008a47ee8b372c7b554891c501", "03e75eda652e3a7f88c90ac9d6cc72cfe051924326bced5c2080784d4791a40672"], "sequence": 4294967294, "scriptSig": {"hex": "16001456d8f633d78cd64ebdfa17681db93877d3ff79b1", "asm": "001456d8f633d78cd64ebdfa17681db93877d3ff79b1"}, "vout": 0, "txid": "68d265e3984b86790b4f952c345f46c482b20746444c1a772609de655a64b81d"}, {"txinwitness": ["3045022100fd417b9384fc091a4316d156846c08683e8ac4691443c7b6d3b92685702ea0c902203bebbabe8f87a5326af7f5e15826e8a07da2e558cd609ed9df34f46c227d112501", "02504894038d5eede49675dc3f0b13bfb20d433938f262a24276a43e9c68d22930"], "sequence": 4294967294, "scriptSig": {"hex": "160014d9a7aabb724416fb2ba9ebfd6e6f9d36a798846b", "asm": "0014d9a7aabb724416fb2ba9ebfd6e6f9d36a798846b"}, "vout": 28, "txid": "3a1e0ee897d2bdb53ce122d7a8ffe0fef4cb1af704d2de4665d85fcdcb581821"}, {"txinwitness": ["304502210082c7a7b97742583f683873bf9964714e60360d96faffa60244cf4e6ba57e7ea70220611ef8f37a4c3ed39f018d6a4f088d74e95cdca0cab5e3bd25fef87dbc3e1d6001", "03316dd7c51112aa9f67d1cdf3ed0633bce31471c04a544bb2ef07cfaee959c1b9"], "sequence": 4294967294, "scriptSig": {"hex": "160014869a87e531bbad0b3156dc74fe8ac5524ec33ea4", "asm": "0014869a87e531bbad0b3156dc74fe8ac5524ec33ea4"}, "vout": 0, "txid": "9e0e8a3c33c73a00eae21cd9402d92c7261a0064545e56c4cbcb861c63814524"}, {"txinwitness": ["304402204efcdc161fbc33333113e0d1190ba5e9752ad4f5f4f8b14240b324056a0e9c590220282ef55058df62ea03402fb491399dba445211a8fe28bb23c6c947bac207851e01", "03a8d2377fe0040aece23375c247696895f4c42d24a05101c7c258e30b8502e929"], "sequence": 4294967294, "scriptSig": {"hex": "160014646b83163c153e5945b348127ad479edf392817d", "asm": "0014646b83163c153e5945b348127ad479edf392817d"}, "vout": 3, "txid": "832c3a93d0085ba2fd77d6ffbca05805277323df17c09ced8419e32c31a6e7df"}, {"txinwitness": ["304402204d79f5d9695bebb70282a5dc02913926398c0228c98a5a95b95bdb394ac8669602200acc6bca77317c4f2ddec7689cca024dff0391d46f8dad4fc4bc0114df08207d01", "03db9dd311c8b3643c496b89b52ace99f1c8034470e95df575fbc3dad84b20eba5"], "sequence": 4294967294, "scriptSig": {"hex": "160014b3749bebadc4d72f2321f4fd234e48a0277434a2", "asm": "0014b3749bebadc4d72f2321f4fd234e48a0277434a2"}, "vout": 6, "txid": "2b5ca8787784f6c44575d4c547bc5fcb00fce58ab1fd6c80d61a7a4e62c700f2"}], "txid": "fcd28a10a59fe81e35001dc2292352041885caa742e26f0722a57b6f046e8d5d", "blocktime": 1537874412, "version": 2, "confirmations": 11468, "time": 1537874412, "locktime": 542997, "vsize": 529, "size": 933}