{"hash": "e9a95d579b3b92aee86d7a03950f0e722aef2039addbe158f64485c77995a107", "blockhash": "0000000000000000001f0ddff1eddb255c1121bcd4da4f1bc9a0da00cae72433", "vout": [{"scriptPubKey": {"reqSigs": 1, "hex": "76a914e94c3611ca8b5e6700106431cdc8f36de1d443bf88ac", "addresses": ["1NGZjwm1xkkuwJ33wJJfZsnhfYngG42uBU"], "asm": "OP_DUP OP_HASH160 e94c3611ca8b5e6700106431cdc8f36de1d443bf OP_EQUALVERIFY OP_CHECKSIG", "type": "pubkeyhash"}, "value": 0.02163291, "n": 0}, {"scriptPubKey": {"reqSigs": 1, "hex": "0014f61f4f2515a730162920e65eb6a2170f251661ac", "addresses": ["bc1q7c057fg45ucpv2fque0tdgshpuj3vcdvp5zt8p"], "asm": "0 f61f4f2515a730162920e65eb6a2170f251661ac", "type": "witness_v0_keyhash"}, "value": 0.00042098, "n": 1}], "hex": "010000000001011e7a3f8fd15520c5f48c97d68eef599ba6785ee4f6a6c07ba083b627fbb9efc900000000171600147a7e0b49ca0b00e23c63a8b78cc6c74163190f14ffffffff025b022100000000001976a914e94c3611ca8b5e6700106431cdc8f36de1d443bf88ac72a4000000000000160014f61f4f2515a730162920e65eb6a2170f251661ac02483045022100fa07156a37f3c1babdf1bc9b882327f98b24c11715616ce46437b2858cdd71a502205f44b05cd5e5a75716deb56d90e154e0cd6b641a2f3f58d962049f9c224b5da1012102c4afa0f457dd8357e38c7b7c0435a5bd703042de3c7829ba3da2aa0068b9d2ea00000000", "vin": [{"txinwitness": ["3045022100fa07156a37f3c1babdf1bc9b882327f98b24c11715616ce46437b2858cdd71a502205f44b05cd5e5a75716deb56d90e154e0cd6b641a2f3f58d962049f9c224b5da101", "02c4afa0f457dd8357e38c7b7c0435a5bd703042de3c7829ba3da2aa0068b9d2ea"], "sequence": 4294967295, "scriptSig": {"hex": "1600147a7e0b49ca0b00e23c63a8b78cc6c74163190f14", "asm": "00147a7e0b49ca0b00e23c63a8b78cc6c74163190f14"}, "vout": 0, "txid": "c9efb9fb27b683a07bc0a6f6e45e78a69b59ef8ed6978cf4c52055d18f3f7a1e"}], "txid": "fcd22336ae5298ef4b4f2eb4d52c67d84771e5e0163142acdfd04766aac45dc9", "blocktime": 1537872018, "version": 1, "confirmations": 11489, "time": 1537872018, "locktime": 0, "vsize": 167, "size": 249}