{"hash": "fcd4597efbd8b67d2f397911038532b4781d4e5a73054186641d082308438190", "blockhash": "00000000000000000024a2167bbff67b0be802c0b01cdd79e6331c2be6459f87", "vout": [{"scriptPubKey": {"reqSigs": 1, "hex": "76a91452483afc884afffc1159a9799de22940e22f7cf388ac", "addresses": ["18W4wPU7WHn8By2JwG7E2hJpUAFZt46j2z"], "asm": "OP_DUP OP_HASH160 52483afc884afffc1159a9799de22940e22f7cf3 OP_EQUALVERIFY OP_CHECKSIG", "type": "pubkeyhash"}, "value": 55.48321251, "n": 0}, {"scriptPubKey": {"reqSigs": 1, "hex": "a9146585543effb9c16db26d89ea7373b1a28010d19087", "addresses": ["3AwotnYBXqEQu8T4t9b6uyGjKB6VJSFTE9"], "asm": "OP_HASH160 6585543effb9c16db26d89ea7373b1a28010d190 OP_EQUAL", "type": "scripthash"}, "value": 0.002, "n": 1}], "hex": "0100000001b4e017ec4289e88dcd2ecfd7729635f4005cfdd955da167573c4e1c5f8435b7c000000006b48304502210094cb0a2ea2eda37f924cd63857ab139f8080066c003424defe878b6a6059d6970220246f2af49b7289b5199ebb4e2b53f060fc38d276821bd8f83129d8c844ffa1d00121038eb151254447d9cb8048247547378b72dbad6e6ef87f9a2200d1a97d7abb4976ffffffff02e3a9b44a010000001976a91452483afc884afffc1159a9799de22940e22f7cf388ac400d03000000000017a9146585543effb9c16db26d89ea7373b1a28010d1908700000000", "vin": [{"sequence": 4294967295, "scriptSig": {"hex": "48304502210094cb0a2ea2eda37f924cd63857ab139f8080066c003424defe878b6a6059d6970220246f2af49b7289b5199ebb4e2b53f060fc38d276821bd8f83129d8c844ffa1d00121038eb151254447d9cb8048247547378b72dbad6e6ef87f9a2200d1a97d7abb4976", "asm": "304502210094cb0a2ea2eda37f924cd63857ab139f8080066c003424defe878b6a6059d6970220246f2af49b7289b5199ebb4e2b53f060fc38d276821bd8f83129d8c844ffa1d0[ALL] 038eb151254447d9cb8048247547378b72dbad6e6ef87f9a2200d1a97d7abb4976"}, "vout": 0, "txid": "7c5b43f8c5e1c4737516da55d9fd5c00f4359672d7cf2ecd8de88942ec17e0b4"}], "txid": "fcd4597efbd8b67d2f397911038532b4781d4e5a73054186641d082308438190", "blocktime": 1537870564, "version": 1, "confirmations": 11515, "time": 1537870564, "locktime": 0, "vsize": 224, "size": 224}