{"hash": "e09b1b1d87c6c360583d8b92df61977b8432c8c6be1766138fcea70eb3651fcc", "blockhash": "0000000000000000001f76057863aec43deb6fa401d9628bb513d65a8098bfab", "vout": [{"scriptPubKey": {"reqSigs": 1, "hex": "76a91450b2adcfbb103870b0a2f1cef02d0c548466a09688ac", "addresses": ["18Mh7BJRdMn2f1t6Rn81dVyfQDxoNaKyNz"], "asm": "OP_DUP OP_HASH160 50b2adcfbb103870b0a2f1cef02d0c548466a096 OP_EQUALVERIFY OP_CHECKSIG", "type": "pubkeyhash"}, "value": 0.0021226, "n": 0}, {"scriptPubKey": {"reqSigs": 1, "hex": "a914922963b2605fb4d5b904992d839508e780405c6e87", "addresses": ["3F1rALf9DUxrQdQa83Ktr7Ngnr1YBUJoFV"], "asm": "OP_HASH160 922963b2605fb4d5b904992d839508e780405c6e OP_EQUAL", "type": "scripthash"}, "value": 0.01020718, "n": 1}], "hex": "020000000001029ef32be16b608b9d302d67db5ca6ba711ba3446420e038a8475255f925416bf50700000017160014e59282e95454d42088dd67da667e583568d8218afefffffff4b67d69e7aeb7271458e314149584d21252040404842a0801272a1e1a30d28a0000000017160014b1198284706346dafc56ab48fd4d18766cfeab79feffffff02243d0300000000001976a91450b2adcfbb103870b0a2f1cef02d0c548466a09688ac2e930f000000000017a914922963b2605fb4d5b904992d839508e780405c6e8702483045022100bb834c115a85dcae52bba000ca6d40a5203442b192afe205f5ac8f01baaf07db02205d4a19914a5453e7db033dfeb68ed0df8c9ad2cbfa87d4f9f8a698cbc6b61c0401210246e8a0680b14b0ad3e77987e57a52ca8b9b239863b1440c38499125249fe31050247304402206efb93c1b8449c326c1760d193abf71f5a2ff963e8aa326acfadbb1267f967ec02204f0c31a0596b03908bdc57be88ee3263e6bca4265547595a7945c34fabac1a85012102b0ca37cee974954c0fd48baf7c3f11e5c5fd679c80f81e239b42230de97c5795cd480800", "vin": [{"txinwitness": ["3045022100bb834c115a85dcae52bba000ca6d40a5203442b192afe205f5ac8f01baaf07db02205d4a19914a5453e7db033dfeb68ed0df8c9ad2cbfa87d4f9f8a698cbc6b61c0401", "0246e8a0680b14b0ad3e77987e57a52ca8b9b239863b1440c38499125249fe3105"], "sequence": 4294967294, "scriptSig": {"hex": "160014e59282e95454d42088dd67da667e583568d8218a", "asm": "0014e59282e95454d42088dd67da667e583568d8218a"}, "vout": 7, "txid": "f56b4125f9555247a838e0206444a31b71baa65cdb672d309d8b606be12bf39e"}, {"txinwitness": ["304402206efb93c1b8449c326c1760d193abf71f5a2ff963e8aa326acfadbb1267f967ec02204f0c31a0596b03908bdc57be88ee3263e6bca4265547595a7945c34fabac1a8501", "02b0ca37cee974954c0fd48baf7c3f11e5c5fd679c80f81e239b42230de97c5795"], "sequence": 4294967294, "scriptSig": {"hex": "160014b1198284706346dafc56ab48fd4d18766cfeab79", "asm": "0014b1198284706346dafc56ab48fd4d18766cfeab79"}, "vout": 0, "txid": "8ad2301a1e2a2701082a840404045212d284951414e3581427b7aee7697db6f4"}], "txid": "fcda21940d2de173de18043d78ccb7cd0808310ec8f3defe3b1ba43563f7a20a", "blocktime": 1537873891, "version": 2, "confirmations": 11478, "time": 1537873891, "locktime": 542925, "vsize": 259, "size": 421}