{"hash": "464f269d8ad5246f6c94fd68b15e7204f50f00337e2d2c50acd9410185315f23", "blockhash": "0000000000000000000e13cef7c366c0283d82e591d1acd082e914b08063cdf1", "vout": [{"scriptPubKey": {"reqSigs": 1, "hex": "00140feafe095391e3c7388bf44a915fecba3f0c2ffd", "addresses": ["bc1qpl40uz2nj83uwwyt739fzhlvhglsctlac9n096"], "asm": "0 0feafe095391e3c7388bf44a915fecba3f0c2ffd", "type": "witness_v0_keyhash"}, "value": 1.78444123, "n": 0}, {"scriptPubKey": {"reqSigs": 1, "hex": "a91454cdd84e469ecb60fdfa3470221addfea95d481487", "addresses": ["39RRH1peygoqKmadRjkwUR3kYkt2FNGC7B"], "asm": "OP_HASH160 54cdd84e469ecb60fdfa3470221addfea95d4814 OP_EQUAL", "type": "scripthash"}, "value": 0.14999507, "n": 1}], "hex": "0100000000010155c816303753c89ae0819cad27624d506d33e7fd92401871aaec70209785f0550000000000ffffffff025bd7a20a000000001600140feafe095391e3c7388bf44a915fecba3f0c2ffdd3dfe4000000000017a91454cdd84e469ecb60fdfa3470221addfea95d4814870247304402200ec6fc081c45c4f5e370684fa66f4672dda3e91cbf42324fe0b3979cc43764d1022016337ce5ca3324dd8f26480b486b67956598f2e92fecb160d778dc673b8cc66f0121021037fe9292ecaa4f9415b15218140049cded4e1e02b5e5980ddf5f74209e439400000000", "vin": [{"txinwitness": ["304402200ec6fc081c45c4f5e370684fa66f4672dda3e91cbf42324fe0b3979cc43764d1022016337ce5ca3324dd8f26480b486b67956598f2e92fecb160d778dc673b8cc66f01", "021037fe9292ecaa4f9415b15218140049cded4e1e02b5e5980ddf5f74209e4394"], "sequence": 4294967295, "scriptSig": {"hex": "", "asm": ""}, "vout": 0, "txid": "55f085972070ecaa71184092fde7336d504d6227ad9c81e09ac853373016c855"}], "txid": "fcdaa0511f49e836502f5f8d8a897c277981786a70136e26308ab1cbf27b9476", "blocktime": 1537871767, "version": 1, "confirmations": 11495, "time": 1537871767, "locktime": 0, "vsize": 142, "size": 223}