{"hash": "f197b423a2c6f9e60ae5563bdfc1cfadcd4abd50b257eee8ac374ea2de04e6c3", "blockhash": "000000000000000000022b45ed06c6f4ccd3cf7fb5ba4856ebd2e58215665228", "vout": [{"scriptPubKey": {"reqSigs": 1, "hex": "00143f9d63f2203b7f5de6a058181d7c93000a292fdb", "addresses": ["bc1q87wk8u3q8dl4me4qtqvp6lynqq9zjt7mhc5rrv"], "asm": "0 3f9d63f2203b7f5de6a058181d7c93000a292fdb", "type": "witness_v0_keyhash"}, "value": 0.00324827, "n": 0}, {"scriptPubKey": {"reqSigs": 1, "hex": "a914d63000841b38237ca95aff33a72d3e76b1e6c2fe87", "addresses": ["3MDY2qKoH8AanFCaQuXuMnRMdrifjPXPf2"], "asm": "OP_HASH160 d63000841b38237ca95aff33a72d3e76b1e6c2fe OP_EQUAL", "type": "scripthash"}, "value": 0.16430934, "n": 1}], "hex": "01000000000101e2d64b997212789c01c0a3209a99be0e06f5fd261fa02bd22c428f774776ef8e000000001716001445bf02bfd33582c2fd90634667a3dd8a42fad95effffffff02dbf40400000000001600143f9d63f2203b7f5de6a058181d7c93000a292fdb56b7fa000000000017a914d63000841b38237ca95aff33a72d3e76b1e6c2fe870247304402206f4f753c1ae7b3e048cbce579b12719c36a405ace84da5536103e28b52d10f540220031bd26654d0510ce5b750d32e4b081be3d5fc7656abebb5760c1c3912ca699b012103fbeddb65f1b40ffb64e19d346aa51efa9df8760760586a20a3b1c63af18be8e900000000", "vin": [{"txinwitness": ["304402206f4f753c1ae7b3e048cbce579b12719c36a405ace84da5536103e28b52d10f540220031bd26654d0510ce5b750d32e4b081be3d5fc7656abebb5760c1c3912ca699b01", "03fbeddb65f1b40ffb64e19d346aa51efa9df8760760586a20a3b1c63af18be8e9"], "sequence": 4294967295, "scriptSig": {"hex": "16001445bf02bfd33582c2fd90634667a3dd8a42fad95e", "asm": "001445bf02bfd33582c2fd90634667a3dd8a42fad95e"}, "vout": 0, "txid": "8eef7647778f422cd22ba01f26fdf5060ebe999a20a3c0019c781272994bd6e2"}], "txid": "fcdcce36179a4c9684691c6d18d56743dac8d83b368b9dac98f4ace94f85e277", "blocktime": 1537869901, "version": 1, "confirmations": 11523, "time": 1537869901, "locktime": 0, "vsize": 165, "size": 246}