{"hash": "ca512d9c4a3cf962c39154afcdc46e913bf95aa3f1544aa7320e42651e83794b", "blockhash": "0000000000000000001e0dab787dd257d1dbfcb92a98c2207d5e1078be1f4165", "vout": [{"scriptPubKey": {"reqSigs": 1, "hex": "a914c5a6476cff6b49117050e993c3f68dc5da102b6287", "addresses": ["3Ki6EbtMeR43DhecGuuhWa4rGPbh9iZSnU"], "asm": "OP_HASH160 c5a6476cff6b49117050e993c3f68dc5da102b62 OP_EQUAL", "type": "scripthash"}, "value": 0.01002306, "n": 0}, {"scriptPubKey": {"reqSigs": 1, "hex": "76a9148a744951921f281009398fb49762c9c20a3ec1a988ac", "addresses": ["1Dd5ZCDXwmjMdJocMFZZYGf3J5BUzDahPD"], "asm": "OP_DUP OP_HASH160 8a744951921f281009398fb49762c9c20a3ec1a9 OP_EQUALVERIFY OP_CHECKSIG", "type": "pubkeyhash"}, "value": 0.0046576, "n": 1}], "hex": "020000000001027952d5593e731daa0ee3094c5f46111e89ebb43e9019527a77fa479a0e6a7c490000000017160014f3229495a168a9fb5c91e1525c61849ac71e58d1feffffffec9d4028215caa28790bdbcf205676c89d7066abb1cf06de93fc9406d83eaa070100000017160014ce7e771c8b9ea6513ad2faf65af56afed151f133feffffff02424b0f000000000017a914c5a6476cff6b49117050e993c3f68dc5da102b6287601b0700000000001976a9148a744951921f281009398fb49762c9c20a3ec1a988ac02483045022100803f77432ccae10b84225a69825bd8ea1e83dab3182239e854131283654516fb02203f6ce6ee3610f2432b35fe81c7fda9449cc3c7785dd922e279a71cb9dc669a8d012103e0d5f05f1ff52560066c322ce0ef896713e21ed06f2de2861a44f6716b17812802473044022046233f0371b77ce2783a96c6ba5818cb22cb52b571d9a28f1bd1a25c7fdea5d902202de2ab3fec1f1b6936519503fe3e7bc255d97c65ea803724bbd4a0b830cdbecc0121022b1991376e184ab5680fff430d657bcc71138f9cc64decf97fc1446f55c454f812490800", "vin": [{"txinwitness": ["3045022100803f77432ccae10b84225a69825bd8ea1e83dab3182239e854131283654516fb02203f6ce6ee3610f2432b35fe81c7fda9449cc3c7785dd922e279a71cb9dc669a8d01", "03e0d5f05f1ff52560066c322ce0ef896713e21ed06f2de2861a44f6716b178128"], "sequence": 4294967294, "scriptSig": {"hex": "160014f3229495a168a9fb5c91e1525c61849ac71e58d1", "asm": "0014f3229495a168a9fb5c91e1525c61849ac71e58d1"}, "vout": 0, "txid": "497c6a0e9a47fa777a5219903eb4eb891e11465f4c09e30eaa1d733e59d55279"}, {"txinwitness": ["3044022046233f0371b77ce2783a96c6ba5818cb22cb52b571d9a28f1bd1a25c7fdea5d902202de2ab3fec1f1b6936519503fe3e7bc255d97c65ea803724bbd4a0b830cdbecc01", "022b1991376e184ab5680fff430d657bcc71138f9cc64decf97fc1446f55c454f8"], "sequence": 4294967294, "scriptSig": {"hex": "160014ce7e771c8b9ea6513ad2faf65af56afed151f133", "asm": "0014ce7e771c8b9ea6513ad2faf65af56afed151f133"}, "vout": 1, "txid": "07aa3ed80694fc93de06cfb1ab66709dc8765620cfdb0b7928aa5c2128409dec"}], "txid": "fce585ea58e6a22a344eb63af01e7a1b741323d96bf97583c06c7db31599d3fc", "blocktime": 1537872475, "version": 2, "confirmations": 11487, "time": 1537872475, "locktime": 542994, "vsize": 259, "size": 421}