{"hash": "fcecf8566fd2a2061ae3eae65a8ea6d23563f73acf22a22b6fec73f96e7410d6", "blockhash": "0000000000000000001f76057863aec43deb6fa401d9628bb513d65a8098bfab", "vout": [{"scriptPubKey": {"reqSigs": 1, "hex": "76a914c3d3eec51262f0eda5410791e0feab01a7a1f64388ac", "addresses": ["1JrSekRe4pixwZZcMNNueDU7rHTxD2NZ8e"], "asm": "OP_DUP OP_HASH160 c3d3eec51262f0eda5410791e0feab01a7a1f643 OP_EQUALVERIFY OP_CHECKSIG", "type": "pubkeyhash"}, "value": 7.59e-06, "n": 0}, {"scriptPubKey": {"reqSigs": 1, "hex": "76a9148cd1e3beafb9d22e76b9d1dc0f10caf75ed2126c88ac", "addresses": ["1Dqb3F7USEP1Ar7SGUzSgp7efnPiYqUR2R"], "asm": "OP_DUP OP_HASH160 8cd1e3beafb9d22e76b9d1dc0f10caf75ed2126c OP_EQUALVERIFY OP_CHECKSIG", "type": "pubkeyhash"}, "value": 3e-05, "n": 1}], "hex": "0100000002fa5b4b4b0c79b656908fb6ec4edf76f70c2e8cc793ef3ce31f940d19b3851043000000006a473044022015e585af3c4dbae112aa270581c53791b551ab819cd2a783fc88d131f097478a02204857ffdb816be28dc1e139fd2a40407987d0e51fbbb42aff999cde4840f7eee701210335cb0f2fe6b8862bdbc8f1a0e25e55a8757080bf544bc2e6df10f15adf4eb8a3feffffff58167cee089018c8d6b47715d0255c33db32a5b2f070a83d1164f67ce31da248000000006a4730440220667238913d2bc038ace86a094b4c77ba93b4fafcbf5e1194baa6901ccf907ede02205f81db3f1f1fc9d221d8e4745e9108b832fe58e21b8bb9bca91ea93fb8b16ac00121038396ca64acff6ccc9674f52438a31e0c31c459fe19496b5cea91287131f3b91dfeffffff02f7020000000000001976a914c3d3eec51262f0eda5410791e0feab01a7a1f64388acb80b0000000000001976a9148cd1e3beafb9d22e76b9d1dc0f10caf75ed2126c88ac14490800", "vin": [{"sequence": 4294967294, "scriptSig": {"hex": "473044022015e585af3c4dbae112aa270581c53791b551ab819cd2a783fc88d131f097478a02204857ffdb816be28dc1e139fd2a40407987d0e51fbbb42aff999cde4840f7eee701210335cb0f2fe6b8862bdbc8f1a0e25e55a8757080bf544bc2e6df10f15adf4eb8a3", "asm": "3044022015e585af3c4dbae112aa270581c53791b551ab819cd2a783fc88d131f097478a02204857ffdb816be28dc1e139fd2a40407987d0e51fbbb42aff999cde4840f7eee7[ALL] 0335cb0f2fe6b8862bdbc8f1a0e25e55a8757080bf544bc2e6df10f15adf4eb8a3"}, "vout": 0, "txid": "431085b3190d941fe33cef93c78c2e0cf776df4eecb68f9056b6790c4b4b5bfa"}, {"sequence": 4294967294, "scriptSig": {"hex": "4730440220667238913d2bc038ace86a094b4c77ba93b4fafcbf5e1194baa6901ccf907ede02205f81db3f1f1fc9d221d8e4745e9108b832fe58e21b8bb9bca91ea93fb8b16ac00121038396ca64acff6ccc9674f52438a31e0c31c459fe19496b5cea91287131f3b91d", "asm": "30440220667238913d2bc038ace86a094b4c77ba93b4fafcbf5e1194baa6901ccf907ede02205f81db3f1f1fc9d221d8e4745e9108b832fe58e21b8bb9bca91ea93fb8b16ac0[ALL] 038396ca64acff6ccc9674f52438a31e0c31c459fe19496b5cea91287131f3b91d"}, "vout": 0, "txid": "48a21de37cf664113da870f0b2a532db335c25d01577b4d6c8189008ee7c1658"}], "txid": "fcecf8566fd2a2061ae3eae65a8ea6d23563f73acf22a22b6fec73f96e7410d6", "blocktime": 1537873891, "version": 1, "confirmations": 11479, "time": 1537873891, "locktime": 542996, "vsize": 372, "size": 372}