{"hash": "fceedd7c94eba65d2cccb2112cd8bbf4477967365d92a943915fcfbe8f569590", "blockhash": "0000000000000000001e0dab787dd257d1dbfcb92a98c2207d5e1078be1f4165", "vout": [{"scriptPubKey": {"reqSigs": 1, "hex": "76a91422eb765ee39e13762c0626169040020ac6236b4f88ac", "addresses": ["14Be3jfWVvfjjcvBqfFzd3yrvZCpnce2ax"], "asm": "OP_DUP OP_HASH160 22eb765ee39e13762c0626169040020ac6236b4f OP_EQUALVERIFY OP_CHECKSIG", "type": "pubkeyhash"}, "value": 0.01375391, "n": 0}, {"scriptPubKey": {"reqSigs": 1, "hex": "76a914a1309ab2b927ccb588811906c1721d69871e1a1088ac", "addresses": ["1FhJ1yFtaNZzHRykaQPJfmyjyGaUkNfua1"], "asm": "OP_DUP OP_HASH160 a1309ab2b927ccb588811906c1721d69871e1a10 OP_EQUALVERIFY OP_CHECKSIG", "type": "pubkeyhash"}, "value": 2.12810956, "n": 1}], "hex": "0100000001cac2a75e008201ae60b8d917e1e63accb681fea8728282ac1f2abf9b39c4ce12010000006b483045022100fbd03d791e98a3df61138a7b2083b15a52509a1828e57a0b7cf5630920a05c410220514ede296923e3c527890a28fc6a6f06047799e7c7f6c719922e06d84c5efa9b0121029fbe39c1acbcfa738aeea14e5d7aaf20d2e285fb2fffa07039e0210fb2bd590bffffffff029ffc1400000000001976a91422eb765ee39e13762c0626169040020ac6236b4f88accc3caf0c000000001976a914a1309ab2b927ccb588811906c1721d69871e1a1088ac00000000", "vin": [{"sequence": 4294967295, "scriptSig": {"hex": "483045022100fbd03d791e98a3df61138a7b2083b15a52509a1828e57a0b7cf5630920a05c410220514ede296923e3c527890a28fc6a6f06047799e7c7f6c719922e06d84c5efa9b0121029fbe39c1acbcfa738aeea14e5d7aaf20d2e285fb2fffa07039e0210fb2bd590b", "asm": "3045022100fbd03d791e98a3df61138a7b2083b15a52509a1828e57a0b7cf5630920a05c410220514ede296923e3c527890a28fc6a6f06047799e7c7f6c719922e06d84c5efa9b[ALL] 029fbe39c1acbcfa738aeea14e5d7aaf20d2e285fb2fffa07039e0210fb2bd590b"}, "vout": 1, "txid": "12cec4399bbf2a1fac828272a8fe81b6cc3ae6e117d9b860ae0182005ea7c2ca"}], "txid": "fceedd7c94eba65d2cccb2112cd8bbf4477967365d92a943915fcfbe8f569590", "blocktime": 1537872475, "version": 1, "confirmations": 11487, "time": 1537872475, "locktime": 0, "vsize": 226, "size": 226}