{"hash": "fcf297c2fd87e285890ea69d0da42368cf01bd44af8f339084ef309c0b674a70", "blockhash": "0000000000000000000e13cef7c366c0283d82e591d1acd082e914b08063cdf1", "vout": [{"scriptPubKey": {"reqSigs": 1, "hex": "a914893d2242f8a895fa3b3bef60f181deb8f78eb7df87", "addresses": ["3ECfjUfaXz6S9CFzXgJGSX7buUQVaiVKph"], "asm": "OP_HASH160 893d2242f8a895fa3b3bef60f181deb8f78eb7df OP_EQUAL", "type": "scripthash"}, "value": 0.00062531, "n": 0}, {"scriptPubKey": {"reqSigs": 1, "hex": "a9145f85dfb35760e48b04694baf539583a1a8b1c73a87", "addresses": ["3AQ6VV3v3PPXLhk5L4pLXqmVG3dkyvLcPu"], "asm": "OP_HASH160 5f85dfb35760e48b04694baf539583a1a8b1c73a OP_EQUAL", "type": "scripthash"}, "value": 0.00138258, "n": 1}, {"scriptPubKey": {"reqSigs": 1, "hex": "76a9144c2a398377164db7f1dcb94c55045b397e4a73d288ac", "addresses": ["17wiwQCs5mLQSfZwJjE7XyDWqUBdojzvUG"], "asm": "OP_DUP OP_HASH160 4c2a398377164db7f1dcb94c55045b397e4a73d2 OP_EQUALVERIFY OP_CHECKSIG", "type": "pubkeyhash"}, "value": 0.00044246, "n": 2}], "hex": "0100000001ecfa6db658c892dec02c54c283169f757fb706ecaa9306b576da245f8c48544d01000000db00483045022100a7aab0afccf35aae4104d628191fd10ca1be071b4d55e898b91286782cc4150e022068fe4f5ea25557d27a9dbbc0475189e3110499a7db98d8e6a9ebc23464f07a9801483045022100da1aa54a66d2dbe9ccb47a984de79cae1c11085f56ae0a4fa755ad3a7cdc9645022029a207b6422f07039938a7702945e36e642829678cc9042d69ff2c6ba949b4700147522102907a54bed8ad74b3f35638c60114ca240a308cb986f3f2f306178869a8880b612103ac698f6b46278deda6f71f72700a7a17d13e5e87ecd80c1e8231a764f08394a552aeffffffff0343f400000000000017a914893d2242f8a895fa3b3bef60f181deb8f78eb7df87121c02000000000017a9145f85dfb35760e48b04694baf539583a1a8b1c73a87d6ac0000000000001976a9144c2a398377164db7f1dcb94c55045b397e4a73d288ac00000000", "vin": [{"sequence": 4294967295, "scriptSig": {"hex": "00483045022100a7aab0afccf35aae4104d628191fd10ca1be071b4d55e898b91286782cc4150e022068fe4f5ea25557d27a9dbbc0475189e3110499a7db98d8e6a9ebc23464f07a9801483045022100da1aa54a66d2dbe9ccb47a984de79cae1c11085f56ae0a4fa755ad3a7cdc9645022029a207b6422f07039938a7702945e36e642829678cc9042d69ff2c6ba949b4700147522102907a54bed8ad74b3f35638c60114ca240a308cb986f3f2f306178869a8880b612103ac698f6b46278deda6f71f72700a7a17d13e5e87ecd80c1e8231a764f08394a552ae", "asm": "0 3045022100a7aab0afccf35aae4104d628191fd10ca1be071b4d55e898b91286782cc4150e022068fe4f5ea25557d27a9dbbc0475189e3110499a7db98d8e6a9ebc23464f07a98[ALL] 3045022100da1aa54a66d2dbe9ccb47a984de79cae1c11085f56ae0a4fa755ad3a7cdc9645022029a207b6422f07039938a7702945e36e642829678cc9042d69ff2c6ba949b470[ALL] 522102907a54bed8ad74b3f35638c60114ca240a308cb986f3f2f306178869a8880b612103ac698f6b46278deda6f71f72700a7a17d13e5e87ecd80c1e8231a764f08394a552ae"}, "vout": 1, "txid": "4d54488c5f24da76b50693aaec06b77f759f1683c2542cc0de92c858b66dfaec"}], "txid": "fcf297c2fd87e285890ea69d0da42368cf01bd44af8f339084ef309c0b674a70", "blocktime": 1537871767, "version": 1, "confirmations": 11495, "time": 1537871767, "locktime": 0, "vsize": 368, "size": 368}