{"hash": "fcf4f8138aac9dfa2d66a7474f6dd51beb05ee0245f668909e2c10b711c4da75", "blockhash": "0000000000000000001cda96e906b7601b7a6fb1a3b62bca570a9e5d8f4b3de1", "vout": [{"scriptPubKey": {"reqSigs": 1, "hex": "76a91405900c4fb4bcab14cac99d2b4735300d40197bc888ac", "addresses": ["1WQwbZvPzmtPfQyvFrCnWdGSPSykxGt44"], "asm": "OP_DUP OP_HASH160 05900c4fb4bcab14cac99d2b4735300d40197bc8 OP_EQUALVERIFY OP_CHECKSIG", "type": "pubkeyhash"}, "value": 7.755e-05, "n": 0}, {"scriptPubKey": {"reqSigs": 1, "hex": "76a91405bb7a47ef07e73c692eefb8cb2457fdd7e316a188ac", "addresses": ["1XJy8rHkzinQPGYkopab5qARS2NhAR6TP"], "asm": "OP_DUP OP_HASH160 05bb7a47ef07e73c692eefb8cb2457fdd7e316a1 OP_EQUALVERIFY OP_CHECKSIG", "type": "pubkeyhash"}, "value": 0.001, "n": 1}], "hex": "010000000389f9fccda3c78972d4286fc317763bca37b382102a5ff2a2553bccd746808804000000006a47304402202407e27ac9744d3b696e5e20112277440d646abfb98543b7d2baa3cc02dbb207022056649b032edb2fcc9a7218f4d84478026ca2d945ccd763a19faad0d177b7468b0121029ed796751d8d9abeb5971b84cd5fd71effb53a073759e3073b8856a1c99e769bffffffff269db8968a8bd819dae721f4e89a915f0f609b8d858563e00cdf685e591d232f980400006a47304402202879461dccca440fed1bdf7e212e6bb1f629d555cd242b154b169603a9fd268202202a409949937dc9f2dc0022225b34de612a3c4a435d07514fea5ce619c7172e86012103bf8a8558d10f227f36c097978265489e6944dc70a18392be07fc87c94ce09182ffffffffc3fcc6626d8a7b81afc26ccb790ff8fc275cd81d583b44a33218eb2a49f46ccb000000006a4730440220251c8af3377292bc6e5ce3867ace67e404e136a579bc9935a3957a808f398ac7022046a4e291a217c986c33a10fc22f83229647b53f08cc3966a3b1ba1a8f66549380121033aa718e415ef88905607596d68be84c1c6d81090da0503b9bfb9f85ffb93ce9bffffffff024b1e0000000000001976a91405900c4fb4bcab14cac99d2b4735300d40197bc888aca0860100000000001976a91405bb7a47ef07e73c692eefb8cb2457fdd7e316a188ac00000000", "vin": [{"sequence": 4294967295, "scriptSig": {"hex": "47304402202407e27ac9744d3b696e5e20112277440d646abfb98543b7d2baa3cc02dbb207022056649b032edb2fcc9a7218f4d84478026ca2d945ccd763a19faad0d177b7468b0121029ed796751d8d9abeb5971b84cd5fd71effb53a073759e3073b8856a1c99e769b", "asm": "304402202407e27ac9744d3b696e5e20112277440d646abfb98543b7d2baa3cc02dbb207022056649b032edb2fcc9a7218f4d84478026ca2d945ccd763a19faad0d177b7468b[ALL] 029ed796751d8d9abeb5971b84cd5fd71effb53a073759e3073b8856a1c99e769b"}, "vout": 0, "txid": "04888046d7cc3b55a2f25f2a1082b337ca3b7617c36f28d47289c7a3cdfcf989"}, {"sequence": 4294967295, "scriptSig": {"hex": "47304402202879461dccca440fed1bdf7e212e6bb1f629d555cd242b154b169603a9fd268202202a409949937dc9f2dc0022225b34de612a3c4a435d07514fea5ce619c7172e86012103bf8a8558d10f227f36c097978265489e6944dc70a18392be07fc87c94ce09182", "asm": "304402202879461dccca440fed1bdf7e212e6bb1f629d555cd242b154b169603a9fd268202202a409949937dc9f2dc0022225b34de612a3c4a435d07514fea5ce619c7172e86[ALL] 03bf8a8558d10f227f36c097978265489e6944dc70a18392be07fc87c94ce09182"}, "vout": 1176, "txid": "2f231d595e68df0ce06385858d9b600f5f919ae8f421e7da19d88b8a96b89d26"}, {"sequence": 4294967295, "scriptSig": {"hex": "4730440220251c8af3377292bc6e5ce3867ace67e404e136a579bc9935a3957a808f398ac7022046a4e291a217c986c33a10fc22f83229647b53f08cc3966a3b1ba1a8f66549380121033aa718e415ef88905607596d68be84c1c6d81090da0503b9bfb9f85ffb93ce9b", "asm": "30440220251c8af3377292bc6e5ce3867ace67e404e136a579bc9935a3957a808f398ac7022046a4e291a217c986c33a10fc22f83229647b53f08cc3966a3b1ba1a8f6654938[ALL] 033aa718e415ef88905607596d68be84c1c6d81090da0503b9bfb9f85ffb93ce9b"}, "vout": 0, "txid": "cb6cf4492aeb1832a3443b581dd85c27fcf80f79cb6cc2af817b8a6d62c6fcc3"}], "txid": "fcf4f8138aac9dfa2d66a7474f6dd51beb05ee0245f668909e2c10b711c4da75", "blocktime": 1537873282, "version": 1, "confirmations": 11484, "time": 1537873282, "locktime": 0, "vsize": 519, "size": 519}