{"hash": "fcf42032dea035f4999ccff5b4f037579726eb72d299fd8c2e653a1bae2388ea", "blockhash": "000000000000000000022b45ed06c6f4ccd3cf7fb5ba4856ebd2e58215665228", "vout": [{"scriptPubKey": {"type": "nulldata", "hex": "6a146f6d6e69000000000000001f0000033ad2763a30", "asm": "OP_RETURN 6f6d6e69000000000000001f0000033ad2763a30"}, "value": 0.0, "n": 0}, {"scriptPubKey": {"reqSigs": 1, "hex": "76a914a25dec4d0011064ef106a983c39c7a540699f22088ac", "addresses": ["1FoWyxwPXuj4C6abqwhjDWdz6D4PZgYRjA"], "asm": "OP_DUP OP_HASH160 a25dec4d0011064ef106a983c39c7a540699f220 OP_EQUALVERIFY OP_CHECKSIG", "type": "pubkeyhash"}, "value": 5.46e-06, "n": 1}, {"scriptPubKey": {"reqSigs": 1, "hex": "76a914da3795650d6406791a97e050c4cefec3f2c8277888ac", "addresses": ["1LtptqLZkTESjV1auptAwssttVBLzw5RWJ"], "asm": "OP_DUP OP_HASH160 da3795650d6406791a97e050c4cefec3f2c82778 OP_EQUALVERIFY OP_CHECKSIG", "type": "pubkeyhash"}, "value": 0.00448852, "n": 2}], "hex": "010000001e160e2e13a99802c4449354403965bc9282b78d299e4c52f76128fce4525a0196010000006a47304402204ac33c8df72354ab87999264d82d1aba7a20e92eaf2a532ab39353de8d2e334202204cddf46e0b55047dfb5e4ff85652dc6bcadc8b0a2d5c9947e6a27d1a91f5ad71012103e272f27d0541c89f3fb0e76be47f0061c7b42ed48df8df593ab9c53eb332cfd7feffffff25ca94f0be67c5689fe5b3b18fe24d912dab538232630cecead8f22fd5c09188010000006b483045022100b3e65b7746020b37a4f5f9b395585edad2bcd2ba60383d024c9575f67628c2090220333c401e8e7595a6b1dfa4e592a1642c0c82b2a9d4bcf8900b994ebf28869f5c012103e272f27d0541c89f3fb0e76be47f0061c7b42ed48df8df593ab9c53eb332cfd7feffffff2b187ff1f64094ca46cb9bf9f1e7882e0fb043b8c276ee57656f7b6a7f16c02b010000006a4730440220492a0d266dcc049c4d999674f47fdd2097e46bd07db11c2b38849f1b2cc007c5022030fb28f4ab9c25c093198afefa6910b0c069b84fe98377f7de46c66f670c5c92012103e272f27d0541c89f3fb0e76be47f0061c7b42ed48df8df593ab9c53eb332cfd7feffffff3ab667672cf0c4af67f5c5559fb3e777d44172aa1d767cca25e2bb3824518d7f010000006b483045022100ba0487d9050130636f36674a48b10e4419bee7a3cc6b782f0f39dd42056cc2ab02206b7496b01eb18f1e27a68a441e9cdec95bc04561753b84f3e41d8f07a4229430012103e272f27d0541c89f3fb0e76be47f0061c7b42ed48df8df593ab9c53eb332cfd7feffffff6b2227d5ad2fa0f08110225e81683a32a4d75c6ad005d68921f6c96387724be7010000006a4730440220480b14c8f27862f81c6b9ddb31258823d2a6ddbb74c1c845d861fce0ec94f449022015acf2990d177fce8890d7293d4706c1c2b8301547b19af6ecd8b5f8482f61c4012103e272f27d0541c89f3fb0e76be47f0061c7b42ed48df8df593ab9c53eb332cfd7feffffff6faa3b3cc3f6c97456373f9bcfa188e0059015e941e3fe1523432ec6b8e6b583010000006b48304502210099f353602722797a1cb589a6c21d449ee35613c10efe696f79d36f90a8e02df80220649e3b8067a84a674041498d40c8b75c4ea0a7a8b9b9d00343740d7ff08b9d3f012103e272f27d0541c89f3fb0e76be47f0061c7b42ed48df8df593ab9c53eb332cfd7feffffff7c93ef5bc1dc0291d5145027af08a95de76c88395989ee53ec6aa06872e61379010000006a473044022015b987f5fc9101612cfe9737ba8153d7230a56cb856171ae94313970aeeedabb022036e15babd74bc5500045662bcb202dfc63339e3c2c18903813aaadb2074bb23e012103e272f27d0541c89f3fb0e76be47f0061c7b42ed48df8df593ab9c53eb332cfd7feffffff7cf8cdc35fb055e624feafcc1e2747848e32f551fa21e4cf862509be979a01a2010000006a47304402205dbf2e13fb9ca8cfc7fc16f549a9b3687dd8624687e0a9de84874ae9e48831df022033fb10169d5c78314faf836be730bcae547e4c84e84700da6dbb71996b50f4f1012103e272f27d0541c89f3fb0e76be47f0061c7b42ed48df8df593ab9c53eb332cfd7feffffff7f540aafe17ffaca1c0102b5756787adfd323e049c42398a2a94e356ae23dc06010000006a47304402202697b06257ec529716f77fa25bfb7895f94585c90bfd607a84c65955fb7e04bb0220494d2957606fdf61e0f2d8f9dc04603eb39cd574bfc469041866e3165f440dba012103e272f27d0541c89f3fb0e76be47f0061c7b42ed48df8df593ab9c53eb332cfd7feffffff88868e4f1d0729c2ee99377ac9a8cea2d947e292d0cd22ce6b42a005a06f160e010000006b483045022100d7b71d8e88e6c08b37a8b90b16fa95c0f5bea9211fb34fb37b44e838c9845b3902204a67e5fdfffa14660dcb0bf07b0e49bc91b2a96ba97c7482f854b78134d766e0012103e272f27d0541c89f3fb0e76be47f0061c7b42ed48df8df593ab9c53eb332cfd7feffffff96064feff93d15afb800579ed28b42140ec5ff2f3ef70a8d02117569210f8855010000006b483045022100f8415885472dcedd878d64ff63acade7160e8c0b09cdba33cf0e29b614153af102204033be0da575ff985e5982bf5f19ffc7bb78100d4af996429ac84580f10a72f4012103e272f27d0541c89f3fb0e76be47f0061c7b42ed48df8df593ab9c53eb332cfd7feffffffa56e2f2ed758e29379753f25d26ff2a07bfe7eafa8f88dfd9ef05e2e1395d9c4010000006b483045022100b8e5b1e87ea839314371623490ef60b9da6bc8df1a206fc918e36cbef7227f8702202be60f2cd71aeb8fe557a820266b724c1dbb4ddb04120797c5e9f87aaf591166012103e272f27d0541c89f3fb0e76be47f0061c7b42ed48df8df593ab9c53eb332cfd7feffffffb3141e067812b6c648b73aac6e89983fb335d25be6ef4867dd96c523e45997f9030000006a47304402202a16284c356993f0b50e788369c6c75b40eab3fd6b7ee6b59c06a6894785cf350220386587d598af30ba6f3136837b98e74740bd5122be5bca847fab270aa0f7cd67012103e272f27d0541c89f3fb0e76be47f0061c7b42ed48df8df593ab9c53eb332cfd7feffffffb6f4ff3cff02726879daa968ea6ae42c172fc0362e2fbd4c06c5b6066163cf8b010000006b483045022100dac734c7f3d9dc0d77729f80fea68b933a1871feeda2f910107afb31a4fe2dc40220319864cb2aafa8dd38744947d0913651324836a81eba4c1cb95599bc6978f1d2012103e272f27d0541c89f3fb0e76be47f0061c7b42ed48df8df593ab9c53eb332cfd7feffffffc943dfb8d342ca3a1d45559d917de11488e90a1fa7bd5a4354b952d0425b3f01010000006a47304402201f7e6206aa1bd9508505b7b6f5fbc962f560963e87523250c98d236c6d775b0102205444e52a6bcd8fa2054c5be479f85f63d60ed51d8a1e47520bb704f16d3957b1012103e272f27d0541c89f3fb0e76be47f0061c7b42ed48df8df593ab9c53eb332cfd7feffffffd15264bb7749c0fb5a6064c15c4ce14bd2674841925a84e55a6439972a1b9767010000006a4730440220490b2b41ae847450229673e2268a14c73ea565484ee210051923486a13ec56e8022047b82faf5843497eea8d63a9ea119a89a735ceddd431fbce477488b67768fbfc012103e272f27d0541c89f3fb0e76be47f0061c7b42ed48df8df593ab9c53eb332cfd7feffffffd2e7846949eaa858cf6ae8f4f4615e9bf27f5852c0a2af043bc2537f93182994010000006b4830450221008f433ee775fcc76d0c9249281d261d259d4add5974bd91a22cd7b07e46627df00220641c3f2f5388c055a6f34de9210c609a84374ecf60e1aed20532a33b4a99cbd1012103e272f27d0541c89f3fb0e76be47f0061c7b42ed48df8df593ab9c53eb332cfd7feffffffd8b4e218154ca6eaa56221aca08b1199e5264feb40dd8a6c7ec2d80bbd8b7b96010000006b4830450221008ec10cb0f7326bdee6793fa592fdc54d620be27bb88ef31ebb23399fbd4ea0580220472a1d53cdb9f665aab22c3c80cfef198bd5171afae1b4325545481553707972012103e272f27d0541c89f3fb0e76be47f0061c7b42ed48df8df593ab9c53eb332cfd7feffffffda63ae743d81261ffe9f3c1a8388078feee4e57d39976da6479329f5a3376ce8010000006b483045022100c2b922483b12decb2b6d394b44219ebf1eaba79f6f2f42b4b44fb087e8ad5ecb02206855b08f32f7c86f2c2c9ecb4f2fbb958fc5857f46c0a603821d6c55d72136e0012103e272f27d0541c89f3fb0e76be47f0061c7b42ed48df8df593ab9c53eb332cfd7feffffffdd6402f548e6948c82f8ab79ccbf4f11c69463f59618fe287d8119ffb37e825b010000006b483045022100e4325a2fcfe65b08315042359c6c2d04a7e4572476a23a7694d1c54531c5a3ad022017f62c0c34426e4b0a43a5ffeec5fea550acf7ef6f565dd91d622efbc6c63b06012103e272f27d0541c89f3fb0e76be47f0061c7b42ed48df8df593ab9c53eb332cfd7feffffffe1e75378de6031e0d0be5686c9033155a70f6f9788e558c606312c3ff4a834ed010000006b483045022100802955b3f816dd2229c78671af2fbe38323d028effab3ab47b027fc41159785e022079c6c92768fb83ebef7a2a06e9784d7ffa349faae850f50b8e8b4274d98b1a39012103e272f27d0541c89f3fb0e76be47f0061c7b42ed48df8df593ab9c53eb332cfd7feffffffe2b05bb3198f6bdf9a2fdf75fb04ec94ee0c2b8f0d486d4118b1f1b3bb32658d010000006a4730440220197d19e513b72e9af6fae49b560d9ccdb14883472dca918a5c020001abd9839602207160f05c59b3afebb31988d9b0088be4c855607dbf51fe86fee2c90e70624c22012103e272f27d0541c89f3fb0e76be47f0061c7b42ed48df8df593ab9c53eb332cfd7feffffffedf25b6f21e973991be2f376b7311a7b719595ef5f31462bdabf464a70b4c460010000006b483045022100d5f6f51dba9fc86f3498d3d74bf99ac1f67f9a15f3023f18b41d5dc49deb787f02200469820f7e8c90927858883a5b348261ca3682cb488afe8aeeaee38d9676c6e9012103e272f27d0541c89f3fb0e76be47f0061c7b42ed48df8df593ab9c53eb332cfd7feffffffef3688fb48ac6d527603a9c55884cae6add7bc5e4eb86bc14a036f3fd085d00f010000006b483045022100cc3d21a22569bf4b62070e4baaf92afd99773e11229ad8a12e310055f6a8c88202207b75d24cd935ee548a32a3f2c132cac6fd2daeef7e6129e7c8480c7796cdc4d8012103e272f27d0541c89f3fb0e76be47f0061c7b42ed48df8df593ab9c53eb332cfd7fefffffff0b979f1239c231e306b89c41b3c6789d1ab3e6dd5542d38d7c96a97bfb3a82f010000006a47304402205b4b447e885fa3154f6cde98c7397338b148358f3db9974cf4713e40852cdd33022002dc1ba887e015e3d9ae84473dfc197c4cb7c2d8274ef01652207051cb39c0f5012103e272f27d0541c89f3fb0e76be47f0061c7b42ed48df8df593ab9c53eb332cfd7fefffffff181054a4b7522a1f54e8a23eee0356df1b0ba924b4ccb28c4a5725b6a6d9438010000006a47304402205ba3d819aeb02273a97fc352e9735e133d47df7c5de4d774d6ddfd933a6d0fe5022051333dd4aa965a8c64c24fdce4cdecbe0eb27f1b6e11621dc784d13ec432e4de012103e272f27d0541c89f3fb0e76be47f0061c7b42ed48df8df593ab9c53eb332cfd7fefffffff656a1f604c107243f824d270904211eb1e80f5a9673981172f5ecbc8abafaab010000006a473044022014652a0b75c23267a6ab3d46c5ee3538bf8262b035de740ffaa66f72c32760c3022017150ab866b7219166e4ca5300411c8f51ae4bd9001849a687b06637e8d1aab8012103e272f27d0541c89f3fb0e76be47f0061c7b42ed48df8df593ab9c53eb332cfd7fefffffffcd72fc6fc24012106d4676668f853b77a82abc6dac802d473bef343278a2a25010000006b483045022100c54ad13f697de27062436e6fbfea4832e321c9df48f52312ef3c4cecf24efd520220739e3be3c684294ea7640f4cc25f84ff91d3d6f67378b58d60dc7b3028103e8a012103e272f27d0541c89f3fb0e76be47f0061c7b42ed48df8df593ab9c53eb332cfd7fefffffffd7dd328d34e1a21d63c5d1cbe1db5cbc7762542ea5964a3a41065b526b1a572000000006b4830450221008edba0fa8c41a49bdfa52092ce5500712e3e784c28cf6c8fb2b9e5685c91725102205f11b6737beb9d2544cfb07c952bb01652a9f9e05e1af2bc801bdba7cf81d88e012103e272f27d0541c89f3fb0e76be47f0061c7b42ed48df8df593ab9c53eb332cfd7feffffffd85e10d235dc390225f73cfca82fc13246af1db058bdd759e4139c870f755dba010000006a47304402207d7b5e0c44a470853abae7b04a1e0d6e5e0015ffaa844fe9d93930105ecdf3e0022013b9f07096d7ba97418f7f217ba06007b9e51e66a6fcb9ff0ad61ddd805e4bb9012103e272f27d0541c89f3fb0e76be47f0061c7b42ed48df8df593ab9c53eb332cfd7feffffff030000000000000000166a146f6d6e69000000000000001f0000033ad2763a3022020000000000001976a914a25dec4d0011064ef106a983c39c7a540699f22088ac54d90600000000001976a914da3795650d6406791a97e050c4cefec3f2c8277888ac0b490800", "vin": [{"sequence": 4294967294, "scriptSig": {"hex": "47304402204ac33c8df72354ab87999264d82d1aba7a20e92eaf2a532ab39353de8d2e334202204cddf46e0b55047dfb5e4ff85652dc6bcadc8b0a2d5c9947e6a27d1a91f5ad71012103e272f27d0541c89f3fb0e76be47f0061c7b42ed48df8df593ab9c53eb332cfd7", "asm": "304402204ac33c8df72354ab87999264d82d1aba7a20e92eaf2a532ab39353de8d2e334202204cddf46e0b55047dfb5e4ff85652dc6bcadc8b0a2d5c9947e6a27d1a91f5ad71[ALL] 03e272f27d0541c89f3fb0e76be47f0061c7b42ed48df8df593ab9c53eb332cfd7"}, "vout": 1, "txid": "96015a52e4fc2861f7524c9e298db78292bc653940549344c40298a9132e0e16"}, {"sequence": 4294967294, "scriptSig": {"hex": "483045022100b3e65b7746020b37a4f5f9b395585edad2bcd2ba60383d024c9575f67628c2090220333c401e8e7595a6b1dfa4e592a1642c0c82b2a9d4bcf8900b994ebf28869f5c012103e272f27d0541c89f3fb0e76be47f0061c7b42ed48df8df593ab9c53eb332cfd7", "asm": "3045022100b3e65b7746020b37a4f5f9b395585edad2bcd2ba60383d024c9575f67628c2090220333c401e8e7595a6b1dfa4e592a1642c0c82b2a9d4bcf8900b994ebf28869f5c[ALL] 03e272f27d0541c89f3fb0e76be47f0061c7b42ed48df8df593ab9c53eb332cfd7"}, "vout": 1, "txid": "8891c0d52ff2d8eaec0c63328253ab2d914de28fb1b3e59f68c567bef094ca25"}, {"sequence": 4294967294, "scriptSig": {"hex": "4730440220492a0d266dcc049c4d999674f47fdd2097e46bd07db11c2b38849f1b2cc007c5022030fb28f4ab9c25c093198afefa6910b0c069b84fe98377f7de46c66f670c5c92012103e272f27d0541c89f3fb0e76be47f0061c7b42ed48df8df593ab9c53eb332cfd7", "asm": "30440220492a0d266dcc049c4d999674f47fdd2097e46bd07db11c2b38849f1b2cc007c5022030fb28f4ab9c25c093198afefa6910b0c069b84fe98377f7de46c66f670c5c92[ALL] 03e272f27d0541c89f3fb0e76be47f0061c7b42ed48df8df593ab9c53eb332cfd7"}, "vout": 1, "txid": "2bc0167f6a7b6f6557ee76c2b843b00f2e88e7f1f99bcb46ca9440f6f17f182b"}, {"sequence": 4294967294, "scriptSig": {"hex": "483045022100ba0487d9050130636f36674a48b10e4419bee7a3cc6b782f0f39dd42056cc2ab02206b7496b01eb18f1e27a68a441e9cdec95bc04561753b84f3e41d8f07a4229430012103e272f27d0541c89f3fb0e76be47f0061c7b42ed48df8df593ab9c53eb332cfd7", "asm": "3045022100ba0487d9050130636f36674a48b10e4419bee7a3cc6b782f0f39dd42056cc2ab02206b7496b01eb18f1e27a68a441e9cdec95bc04561753b84f3e41d8f07a4229430[ALL] 03e272f27d0541c89f3fb0e76be47f0061c7b42ed48df8df593ab9c53eb332cfd7"}, "vout": 1, "txid": "7f8d512438bbe225ca7c761daa7241d477e7b39f55c5f567afc4f02c6767b63a"}, {"sequence": 4294967294, "scriptSig": {"hex": "4730440220480b14c8f27862f81c6b9ddb31258823d2a6ddbb74c1c845d861fce0ec94f449022015acf2990d177fce8890d7293d4706c1c2b8301547b19af6ecd8b5f8482f61c4012103e272f27d0541c89f3fb0e76be47f0061c7b42ed48df8df593ab9c53eb332cfd7", "asm": "30440220480b14c8f27862f81c6b9ddb31258823d2a6ddbb74c1c845d861fce0ec94f449022015acf2990d177fce8890d7293d4706c1c2b8301547b19af6ecd8b5f8482f61c4[ALL] 03e272f27d0541c89f3fb0e76be47f0061c7b42ed48df8df593ab9c53eb332cfd7"}, "vout": 1, "txid": "e74b728763c9f62189d605d06a5cd7a4323a68815e221081f0a02fadd527226b"}, {"sequence": 4294967294, "scriptSig": {"hex": "48304502210099f353602722797a1cb589a6c21d449ee35613c10efe696f79d36f90a8e02df80220649e3b8067a84a674041498d40c8b75c4ea0a7a8b9b9d00343740d7ff08b9d3f012103e272f27d0541c89f3fb0e76be47f0061c7b42ed48df8df593ab9c53eb332cfd7", "asm": "304502210099f353602722797a1cb589a6c21d449ee35613c10efe696f79d36f90a8e02df80220649e3b8067a84a674041498d40c8b75c4ea0a7a8b9b9d00343740d7ff08b9d3f[ALL] 03e272f27d0541c89f3fb0e76be47f0061c7b42ed48df8df593ab9c53eb332cfd7"}, "vout": 1, "txid": "83b5e6b8c62e432315fee341e9159005e088a1cf9b3f375674c9f6c33c3baa6f"}, {"sequence": 4294967294, "scriptSig": {"hex": "473044022015b987f5fc9101612cfe9737ba8153d7230a56cb856171ae94313970aeeedabb022036e15babd74bc5500045662bcb202dfc63339e3c2c18903813aaadb2074bb23e012103e272f27d0541c89f3fb0e76be47f0061c7b42ed48df8df593ab9c53eb332cfd7", "asm": "3044022015b987f5fc9101612cfe9737ba8153d7230a56cb856171ae94313970aeeedabb022036e15babd74bc5500045662bcb202dfc63339e3c2c18903813aaadb2074bb23e[ALL] 03e272f27d0541c89f3fb0e76be47f0061c7b42ed48df8df593ab9c53eb332cfd7"}, "vout": 1, "txid": "7913e67268a06aec53ee895939886ce75da908af275014d59102dcc15bef937c"}, {"sequence": 4294967294, "scriptSig": {"hex": "47304402205dbf2e13fb9ca8cfc7fc16f549a9b3687dd8624687e0a9de84874ae9e48831df022033fb10169d5c78314faf836be730bcae547e4c84e84700da6dbb71996b50f4f1012103e272f27d0541c89f3fb0e76be47f0061c7b42ed48df8df593ab9c53eb332cfd7", "asm": "304402205dbf2e13fb9ca8cfc7fc16f549a9b3687dd8624687e0a9de84874ae9e48831df022033fb10169d5c78314faf836be730bcae547e4c84e84700da6dbb71996b50f4f1[ALL] 03e272f27d0541c89f3fb0e76be47f0061c7b42ed48df8df593ab9c53eb332cfd7"}, "vout": 1, "txid": "a2019a97be092586cfe421fa51f5328e8447271eccaffe24e655b05fc3cdf87c"}, {"sequence": 4294967294, "scriptSig": {"hex": "47304402202697b06257ec529716f77fa25bfb7895f94585c90bfd607a84c65955fb7e04bb0220494d2957606fdf61e0f2d8f9dc04603eb39cd574bfc469041866e3165f440dba012103e272f27d0541c89f3fb0e76be47f0061c7b42ed48df8df593ab9c53eb332cfd7", "asm": "304402202697b06257ec529716f77fa25bfb7895f94585c90bfd607a84c65955fb7e04bb0220494d2957606fdf61e0f2d8f9dc04603eb39cd574bfc469041866e3165f440dba[ALL] 03e272f27d0541c89f3fb0e76be47f0061c7b42ed48df8df593ab9c53eb332cfd7"}, "vout": 1, "txid": "06dc23ae56e3942a8a39429c043e32fdad876775b502011ccafa7fe1af0a547f"}, {"sequence": 4294967294, "scriptSig": {"hex": "483045022100d7b71d8e88e6c08b37a8b90b16fa95c0f5bea9211fb34fb37b44e838c9845b3902204a67e5fdfffa14660dcb0bf07b0e49bc91b2a96ba97c7482f854b78134d766e0012103e272f27d0541c89f3fb0e76be47f0061c7b42ed48df8df593ab9c53eb332cfd7", "asm": "3045022100d7b71d8e88e6c08b37a8b90b16fa95c0f5bea9211fb34fb37b44e838c9845b3902204a67e5fdfffa14660dcb0bf07b0e49bc91b2a96ba97c7482f854b78134d766e0[ALL] 03e272f27d0541c89f3fb0e76be47f0061c7b42ed48df8df593ab9c53eb332cfd7"}, "vout": 1, "txid": "0e166fa005a0426bce22cdd092e247d9a2cea8c97a3799eec229071d4f8e8688"}, {"sequence": 4294967294, "scriptSig": {"hex": "483045022100f8415885472dcedd878d64ff63acade7160e8c0b09cdba33cf0e29b614153af102204033be0da575ff985e5982bf5f19ffc7bb78100d4af996429ac84580f10a72f4012103e272f27d0541c89f3fb0e76be47f0061c7b42ed48df8df593ab9c53eb332cfd7", "asm": "3045022100f8415885472dcedd878d64ff63acade7160e8c0b09cdba33cf0e29b614153af102204033be0da575ff985e5982bf5f19ffc7bb78100d4af996429ac84580f10a72f4[ALL] 03e272f27d0541c89f3fb0e76be47f0061c7b42ed48df8df593ab9c53eb332cfd7"}, "vout": 1, "txid": "55880f21697511028d0af73e2fffc50e14428bd29e5700b8af153df9ef4f0696"}, {"sequence": 4294967294, "scriptSig": {"hex": "483045022100b8e5b1e87ea839314371623490ef60b9da6bc8df1a206fc918e36cbef7227f8702202be60f2cd71aeb8fe557a820266b724c1dbb4ddb04120797c5e9f87aaf591166012103e272f27d0541c89f3fb0e76be47f0061c7b42ed48df8df593ab9c53eb332cfd7", "asm": "3045022100b8e5b1e87ea839314371623490ef60b9da6bc8df1a206fc918e36cbef7227f8702202be60f2cd71aeb8fe557a820266b724c1dbb4ddb04120797c5e9f87aaf591166[ALL] 03e272f27d0541c89f3fb0e76be47f0061c7b42ed48df8df593ab9c53eb332cfd7"}, "vout": 1, "txid": "c4d995132e5ef09efd8df8a8af7efe7ba0f26fd2253f757993e258d72e2f6ea5"}, {"sequence": 4294967294, "scriptSig": {"hex": "47304402202a16284c356993f0b50e788369c6c75b40eab3fd6b7ee6b59c06a6894785cf350220386587d598af30ba6f3136837b98e74740bd5122be5bca847fab270aa0f7cd67012103e272f27d0541c89f3fb0e76be47f0061c7b42ed48df8df593ab9c53eb332cfd7", "asm": "304402202a16284c356993f0b50e788369c6c75b40eab3fd6b7ee6b59c06a6894785cf350220386587d598af30ba6f3136837b98e74740bd5122be5bca847fab270aa0f7cd67[ALL] 03e272f27d0541c89f3fb0e76be47f0061c7b42ed48df8df593ab9c53eb332cfd7"}, "vout": 3, "txid": "f99759e423c596dd6748efe65bd235b33f98896eac3ab748c6b61278061e14b3"}, {"sequence": 4294967294, "scriptSig": {"hex": "483045022100dac734c7f3d9dc0d77729f80fea68b933a1871feeda2f910107afb31a4fe2dc40220319864cb2aafa8dd38744947d0913651324836a81eba4c1cb95599bc6978f1d2012103e272f27d0541c89f3fb0e76be47f0061c7b42ed48df8df593ab9c53eb332cfd7", "asm": "3045022100dac734c7f3d9dc0d77729f80fea68b933a1871feeda2f910107afb31a4fe2dc40220319864cb2aafa8dd38744947d0913651324836a81eba4c1cb95599bc6978f1d2[ALL] 03e272f27d0541c89f3fb0e76be47f0061c7b42ed48df8df593ab9c53eb332cfd7"}, "vout": 1, "txid": "8bcf636106b6c5064cbd2f2e36c02f172ce46aea68a9da79687202ff3cfff4b6"}, {"sequence": 4294967294, "scriptSig": {"hex": "47304402201f7e6206aa1bd9508505b7b6f5fbc962f560963e87523250c98d236c6d775b0102205444e52a6bcd8fa2054c5be479f85f63d60ed51d8a1e47520bb704f16d3957b1012103e272f27d0541c89f3fb0e76be47f0061c7b42ed48df8df593ab9c53eb332cfd7", "asm": "304402201f7e6206aa1bd9508505b7b6f5fbc962f560963e87523250c98d236c6d775b0102205444e52a6bcd8fa2054c5be479f85f63d60ed51d8a1e47520bb704f16d3957b1[ALL] 03e272f27d0541c89f3fb0e76be47f0061c7b42ed48df8df593ab9c53eb332cfd7"}, "vout": 1, "txid": "013f5b42d052b954435abda71f0ae98814e17d919d55451d3aca42d3b8df43c9"}, {"sequence": 4294967294, "scriptSig": {"hex": "4730440220490b2b41ae847450229673e2268a14c73ea565484ee210051923486a13ec56e8022047b82faf5843497eea8d63a9ea119a89a735ceddd431fbce477488b67768fbfc012103e272f27d0541c89f3fb0e76be47f0061c7b42ed48df8df593ab9c53eb332cfd7", "asm": "30440220490b2b41ae847450229673e2268a14c73ea565484ee210051923486a13ec56e8022047b82faf5843497eea8d63a9ea119a89a735ceddd431fbce477488b67768fbfc[ALL] 03e272f27d0541c89f3fb0e76be47f0061c7b42ed48df8df593ab9c53eb332cfd7"}, "vout": 1, "txid": "67971b2a9739645ae5845a92414867d24be14c5cc164605afbc04977bb6452d1"}, {"sequence": 4294967294, "scriptSig": {"hex": "4830450221008f433ee775fcc76d0c9249281d261d259d4add5974bd91a22cd7b07e46627df00220641c3f2f5388c055a6f34de9210c609a84374ecf60e1aed20532a33b4a99cbd1012103e272f27d0541c89f3fb0e76be47f0061c7b42ed48df8df593ab9c53eb332cfd7", "asm": "30450221008f433ee775fcc76d0c9249281d261d259d4add5974bd91a22cd7b07e46627df00220641c3f2f5388c055a6f34de9210c609a84374ecf60e1aed20532a33b4a99cbd1[ALL] 03e272f27d0541c89f3fb0e76be47f0061c7b42ed48df8df593ab9c53eb332cfd7"}, "vout": 1, "txid": "942918937f53c23b04afa2c052587ff29b5e61f4f4e86acf58a8ea496984e7d2"}, {"sequence": 4294967294, "scriptSig": {"hex": "4830450221008ec10cb0f7326bdee6793fa592fdc54d620be27bb88ef31ebb23399fbd4ea0580220472a1d53cdb9f665aab22c3c80cfef198bd5171afae1b4325545481553707972012103e272f27d0541c89f3fb0e76be47f0061c7b42ed48df8df593ab9c53eb332cfd7", "asm": "30450221008ec10cb0f7326bdee6793fa592fdc54d620be27bb88ef31ebb23399fbd4ea0580220472a1d53cdb9f665aab22c3c80cfef198bd5171afae1b4325545481553707972[ALL] 03e272f27d0541c89f3fb0e76be47f0061c7b42ed48df8df593ab9c53eb332cfd7"}, "vout": 1, "txid": "967b8bbd0bd8c27e6c8add40eb4f26e599118ba0ac2162a5eaa64c1518e2b4d8"}, {"sequence": 4294967294, "scriptSig": {"hex": "483045022100c2b922483b12decb2b6d394b44219ebf1eaba79f6f2f42b4b44fb087e8ad5ecb02206855b08f32f7c86f2c2c9ecb4f2fbb958fc5857f46c0a603821d6c55d72136e0012103e272f27d0541c89f3fb0e76be47f0061c7b42ed48df8df593ab9c53eb332cfd7", "asm": "3045022100c2b922483b12decb2b6d394b44219ebf1eaba79f6f2f42b4b44fb087e8ad5ecb02206855b08f32f7c86f2c2c9ecb4f2fbb958fc5857f46c0a603821d6c55d72136e0[ALL] 03e272f27d0541c89f3fb0e76be47f0061c7b42ed48df8df593ab9c53eb332cfd7"}, "vout": 1, "txid": "e86c37a3f5299347a66d97397de5e4ee8f0788831a3c9ffe1f26813d74ae63da"}, {"sequence": 4294967294, "scriptSig": {"hex": "483045022100e4325a2fcfe65b08315042359c6c2d04a7e4572476a23a7694d1c54531c5a3ad022017f62c0c34426e4b0a43a5ffeec5fea550acf7ef6f565dd91d622efbc6c63b06012103e272f27d0541c89f3fb0e76be47f0061c7b42ed48df8df593ab9c53eb332cfd7", "asm": "3045022100e4325a2fcfe65b08315042359c6c2d04a7e4572476a23a7694d1c54531c5a3ad022017f62c0c34426e4b0a43a5ffeec5fea550acf7ef6f565dd91d622efbc6c63b06[ALL] 03e272f27d0541c89f3fb0e76be47f0061c7b42ed48df8df593ab9c53eb332cfd7"}, "vout": 1, "txid": "5b827eb3ff19817d28fe1896f56394c6114fbfcc79abf8828c94e648f50264dd"}, {"sequence": 4294967294, "scriptSig": {"hex": "483045022100802955b3f816dd2229c78671af2fbe38323d028effab3ab47b027fc41159785e022079c6c92768fb83ebef7a2a06e9784d7ffa349faae850f50b8e8b4274d98b1a39012103e272f27d0541c89f3fb0e76be47f0061c7b42ed48df8df593ab9c53eb332cfd7", "asm": "3045022100802955b3f816dd2229c78671af2fbe38323d028effab3ab47b027fc41159785e022079c6c92768fb83ebef7a2a06e9784d7ffa349faae850f50b8e8b4274d98b1a39[ALL] 03e272f27d0541c89f3fb0e76be47f0061c7b42ed48df8df593ab9c53eb332cfd7"}, "vout": 1, "txid": "ed34a8f43f2c3106c658e588976f0fa7553103c98656bed0e03160de7853e7e1"}, {"sequence": 4294967294, "scriptSig": {"hex": "4730440220197d19e513b72e9af6fae49b560d9ccdb14883472dca918a5c020001abd9839602207160f05c59b3afebb31988d9b0088be4c855607dbf51fe86fee2c90e70624c22012103e272f27d0541c89f3fb0e76be47f0061c7b42ed48df8df593ab9c53eb332cfd7", "asm": "30440220197d19e513b72e9af6fae49b560d9ccdb14883472dca918a5c020001abd9839602207160f05c59b3afebb31988d9b0088be4c855607dbf51fe86fee2c90e70624c22[ALL] 03e272f27d0541c89f3fb0e76be47f0061c7b42ed48df8df593ab9c53eb332cfd7"}, "vout": 1, "txid": "8d6532bbb3f1b118416d480d8f2b0cee94ec04fb75df2f9adf6b8f19b35bb0e2"}, {"sequence": 4294967294, "scriptSig": {"hex": "483045022100d5f6f51dba9fc86f3498d3d74bf99ac1f67f9a15f3023f18b41d5dc49deb787f02200469820f7e8c90927858883a5b348261ca3682cb488afe8aeeaee38d9676c6e9012103e272f27d0541c89f3fb0e76be47f0061c7b42ed48df8df593ab9c53eb332cfd7", "asm": "3045022100d5f6f51dba9fc86f3498d3d74bf99ac1f67f9a15f3023f18b41d5dc49deb787f02200469820f7e8c90927858883a5b348261ca3682cb488afe8aeeaee38d9676c6e9[ALL] 03e272f27d0541c89f3fb0e76be47f0061c7b42ed48df8df593ab9c53eb332cfd7"}, "vout": 1, "txid": "60c4b4704a46bfda2b46315fef9595717b1a31b776f3e21b9973e9216f5bf2ed"}, {"sequence": 4294967294, "scriptSig": {"hex": "483045022100cc3d21a22569bf4b62070e4baaf92afd99773e11229ad8a12e310055f6a8c88202207b75d24cd935ee548a32a3f2c132cac6fd2daeef7e6129e7c8480c7796cdc4d8012103e272f27d0541c89f3fb0e76be47f0061c7b42ed48df8df593ab9c53eb332cfd7", "asm": "3045022100cc3d21a22569bf4b62070e4baaf92afd99773e11229ad8a12e310055f6a8c88202207b75d24cd935ee548a32a3f2c132cac6fd2daeef7e6129e7c8480c7796cdc4d8[ALL] 03e272f27d0541c89f3fb0e76be47f0061c7b42ed48df8df593ab9c53eb332cfd7"}, "vout": 1, "txid": "0fd085d03f6f034ac16bb84e5ebcd7ade6ca8458c5a90376526dac48fb8836ef"}, {"sequence": 4294967294, "scriptSig": {"hex": "47304402205b4b447e885fa3154f6cde98c7397338b148358f3db9974cf4713e40852cdd33022002dc1ba887e015e3d9ae84473dfc197c4cb7c2d8274ef01652207051cb39c0f5012103e272f27d0541c89f3fb0e76be47f0061c7b42ed48df8df593ab9c53eb332cfd7", "asm": "304402205b4b447e885fa3154f6cde98c7397338b148358f3db9974cf4713e40852cdd33022002dc1ba887e015e3d9ae84473dfc197c4cb7c2d8274ef01652207051cb39c0f5[ALL] 03e272f27d0541c89f3fb0e76be47f0061c7b42ed48df8df593ab9c53eb332cfd7"}, "vout": 1, "txid": "2fa8b3bf976ac9d7382d54d56d3eabd189673c1bc4896b301e239c23f179b9f0"}, {"sequence": 4294967294, "scriptSig": {"hex": "47304402205ba3d819aeb02273a97fc352e9735e133d47df7c5de4d774d6ddfd933a6d0fe5022051333dd4aa965a8c64c24fdce4cdecbe0eb27f1b6e11621dc784d13ec432e4de012103e272f27d0541c89f3fb0e76be47f0061c7b42ed48df8df593ab9c53eb332cfd7", "asm": "304402205ba3d819aeb02273a97fc352e9735e133d47df7c5de4d774d6ddfd933a6d0fe5022051333dd4aa965a8c64c24fdce4cdecbe0eb27f1b6e11621dc784d13ec432e4de[ALL] 03e272f27d0541c89f3fb0e76be47f0061c7b42ed48df8df593ab9c53eb332cfd7"}, "vout": 1, "txid": "38946d6a5b72a5c428cb4c4b92bab0f16d35e0ee238a4ef5a122754b4a0581f1"}, {"sequence": 4294967294, "scriptSig": {"hex": "473044022014652a0b75c23267a6ab3d46c5ee3538bf8262b035de740ffaa66f72c32760c3022017150ab866b7219166e4ca5300411c8f51ae4bd9001849a687b06637e8d1aab8012103e272f27d0541c89f3fb0e76be47f0061c7b42ed48df8df593ab9c53eb332cfd7", "asm": "3044022014652a0b75c23267a6ab3d46c5ee3538bf8262b035de740ffaa66f72c32760c3022017150ab866b7219166e4ca5300411c8f51ae4bd9001849a687b06637e8d1aab8[ALL] 03e272f27d0541c89f3fb0e76be47f0061c7b42ed48df8df593ab9c53eb332cfd7"}, "vout": 1, "txid": "abfaba8abcecf572119873965a0fe8b11e210409274d823f2407c104f6a156f6"}, {"sequence": 4294967294, "scriptSig": {"hex": "483045022100c54ad13f697de27062436e6fbfea4832e321c9df48f52312ef3c4cecf24efd520220739e3be3c684294ea7640f4cc25f84ff91d3d6f67378b58d60dc7b3028103e8a012103e272f27d0541c89f3fb0e76be47f0061c7b42ed48df8df593ab9c53eb332cfd7", "asm": "3045022100c54ad13f697de27062436e6fbfea4832e321c9df48f52312ef3c4cecf24efd520220739e3be3c684294ea7640f4cc25f84ff91d3d6f67378b58d60dc7b3028103e8a[ALL] 03e272f27d0541c89f3fb0e76be47f0061c7b42ed48df8df593ab9c53eb332cfd7"}, "vout": 1, "txid": "252a8a2743f3be73d402c8dac6ab827ab753f8686667d406210124fcc62fd7fc"}, {"sequence": 4294967294, "scriptSig": {"hex": "4830450221008edba0fa8c41a49bdfa52092ce5500712e3e784c28cf6c8fb2b9e5685c91725102205f11b6737beb9d2544cfb07c952bb01652a9f9e05e1af2bc801bdba7cf81d88e012103e272f27d0541c89f3fb0e76be47f0061c7b42ed48df8df593ab9c53eb332cfd7", "asm": "30450221008edba0fa8c41a49bdfa52092ce5500712e3e784c28cf6c8fb2b9e5685c91725102205f11b6737beb9d2544cfb07c952bb01652a9f9e05e1af2bc801bdba7cf81d88e[ALL] 03e272f27d0541c89f3fb0e76be47f0061c7b42ed48df8df593ab9c53eb332cfd7"}, "vout": 0, "txid": "72a5b126b56510a4a36459ea422576c7cbb51dbe1c5d3cd6211a4ed328d37dfd"}, {"sequence": 4294967294, "scriptSig": {"hex": "47304402207d7b5e0c44a470853abae7b04a1e0d6e5e0015ffaa844fe9d93930105ecdf3e0022013b9f07096d7ba97418f7f217ba06007b9e51e66a6fcb9ff0ad61ddd805e4bb9012103e272f27d0541c89f3fb0e76be47f0061c7b42ed48df8df593ab9c53eb332cfd7", "asm": "304402207d7b5e0c44a470853abae7b04a1e0d6e5e0015ffaa844fe9d93930105ecdf3e0022013b9f07096d7ba97418f7f217ba06007b9e51e66a6fcb9ff0ad61ddd805e4bb9[ALL] 03e272f27d0541c89f3fb0e76be47f0061c7b42ed48df8df593ab9c53eb332cfd7"}, "vout": 1, "txid": "ba5d750f879c13e459d7bd58b01daf4632c12fa8fc3cf7250239dc35d2105ed8"}], "txid": "fcf42032dea035f4999ccff5b4f037579726eb72d299fd8c2e653a1bae2388ea", "blocktime": 1537869901, "version": 1, "confirmations": 11524, "time": 1537869901, "locktime": 542987, "vsize": 4535, "size": 4535}