{"hash": "fcfa3251bcb6499958d5875704a2f8cc54b40d5eb2e2650dc1ac67af6525e185", "blockhash": "0000000000000000001cda96e906b7601b7a6fb1a3b62bca570a9e5d8f4b3de1", "vout": [{"scriptPubKey": {"reqSigs": 1, "hex": "a91486e20dd2d047dc150e923f37c3a5038a8355194787", "addresses": ["3DzDGkozbKVk5hUn4Xx1WmJQJC9sjJRFjC"], "asm": "OP_HASH160 86e20dd2d047dc150e923f37c3a5038a83551947 OP_EQUAL", "type": "scripthash"}, "value": 0.00434782, "n": 0}, {"scriptPubKey": {"reqSigs": 1, "hex": "0014539dea2adeba82ca5c17eba9177f7d0cce55eb6d", "addresses": ["bc1q2ww752k7h2pv5hqhaw53wlmapn89t6mdgy0fdx"], "asm": "0 539dea2adeba82ca5c17eba9177f7d0cce55eb6d", "type": "witness_v0_keyhash"}, "value": 2.305e-05, "n": 1}], "hex": "0100000001a036ce1f765b1289bb947507962517d24f4257f65b2bb31e92c45a1df2c824a0450000006a47304402201c8f6d772e15fe416a8d6cdfba10f78304bbb412d3f1b6a867853c5abd8568c302201fb8223cfe619fc37a077c1a094130b90d4ab4898f075c5c457649e4902cdba1012103208cca427620f073b781dc59e1a4271a3233093a66389a65feb8177e1c0c6fb8ffffffff025ea206000000000017a91486e20dd2d047dc150e923f37c3a5038a83551947870109000000000000160014539dea2adeba82ca5c17eba9177f7d0cce55eb6d00000000", "vin": [{"sequence": 4294967295, "scriptSig": {"hex": "47304402201c8f6d772e15fe416a8d6cdfba10f78304bbb412d3f1b6a867853c5abd8568c302201fb8223cfe619fc37a077c1a094130b90d4ab4898f075c5c457649e4902cdba1012103208cca427620f073b781dc59e1a4271a3233093a66389a65feb8177e1c0c6fb8", "asm": "304402201c8f6d772e15fe416a8d6cdfba10f78304bbb412d3f1b6a867853c5abd8568c302201fb8223cfe619fc37a077c1a094130b90d4ab4898f075c5c457649e4902cdba1[ALL] 03208cca427620f073b781dc59e1a4271a3233093a66389a65feb8177e1c0c6fb8"}, "vout": 69, "txid": "a024c8f21d5ac4921eb32b5bf657424fd2172596077594bb89125b761fce36a0"}], "txid": "fcfa3251bcb6499958d5875704a2f8cc54b40d5eb2e2650dc1ac67af6525e185", "blocktime": 1537873282, "version": 1, "confirmations": 11484, "time": 1537873282, "locktime": 0, "vsize": 220, "size": 220}