{"hash": "fcfe22f6d0c3f6728af75dbe9bc8e1d02d6f73506039dad5e19f0feed3025ae9", "blockhash": "0000000000000000001cda96e906b7601b7a6fb1a3b62bca570a9e5d8f4b3de1", "vout": [{"scriptPubKey": {"reqSigs": 1, "hex": "a91444682896c1585cab3fbb2d95c972cf34836acea087", "addresses": ["37vieeiobSEwughyxgfea9NjtXMhQNoMyv"], "asm": "OP_HASH160 44682896c1585cab3fbb2d95c972cf34836acea0 OP_EQUAL", "type": "scripthash"}, "value": 0.0260481, "n": 0}], "hex": "01000000014ff13b8048aff9534259a8f788914ffa9566a098375cfceb36f2ac7711b87e36040000006b483045022100a3575da91ccfbc0f0ae0c46357eef5893b306b7217db1ff82fa11e7ef3ac015102200eab7080afa5ed8f1e256941553216d973ce44af2a3c3a1c2b037c48599d83f4012103752c73526ef129b1c8b6fcb6bdfd0f092ea061a890e25648d0698230de94dc0dfdffffff010abf27000000000017a91444682896c1585cab3fbb2d95c972cf34836acea08713490800", "vin": [{"sequence": 4294967293, "scriptSig": {"hex": "483045022100a3575da91ccfbc0f0ae0c46357eef5893b306b7217db1ff82fa11e7ef3ac015102200eab7080afa5ed8f1e256941553216d973ce44af2a3c3a1c2b037c48599d83f4012103752c73526ef129b1c8b6fcb6bdfd0f092ea061a890e25648d0698230de94dc0d", "asm": "3045022100a3575da91ccfbc0f0ae0c46357eef5893b306b7217db1ff82fa11e7ef3ac015102200eab7080afa5ed8f1e256941553216d973ce44af2a3c3a1c2b037c48599d83f4[ALL] 03752c73526ef129b1c8b6fcb6bdfd0f092ea061a890e25648d0698230de94dc0d"}, "vout": 4, "txid": "367eb81177acf236ebfc5c3798a06695fa4f9188f7a8594253f9af48803bf14f"}], "txid": "fcfe22f6d0c3f6728af75dbe9bc8e1d02d6f73506039dad5e19f0feed3025ae9", "blocktime": 1537873282, "version": 1, "confirmations": 11485, "time": 1537873282, "locktime": 542995, "vsize": 190, "size": 190}