{"hash": "fd001ec6e35626993671cea2a983b5414830e3382258fc9d371e1125c85199e0", "blockhash": "000000000000000000022b45ed06c6f4ccd3cf7fb5ba4856ebd2e58215665228", "vout": [{"scriptPubKey": {"reqSigs": 1, "hex": "76a914bfabbceedfbf9cc651a09148ba2de75b6008ba8988ac", "addresses": ["1JUToCyRL5UwgeucjnFAagKs4v1YqhjT1d"], "asm": "OP_DUP OP_HASH160 bfabbceedfbf9cc651a09148ba2de75b6008ba89 OP_EQUALVERIFY OP_CHECKSIG", "type": "pubkeyhash"}, "value": 4.07974764, "n": 0}], "hex": "0200000006d1b2600a17491f080f355b1fb8b51e5ad4106def4a8cb80e37679faa70a20470090000006b4830450221008fc0efc1b9433662f95fb9d9fdcee097b55bd548aeb8e1a3bb57f788df15a7c70220055e66bbbb1fd6207eddf048f4bb0db7b6e3bbf6636ceb3b56e29d0cf490e530012103523eaae88f64385bffd8e45664b99e7e133eb9eef337061d91facfd15de083a5ffffffff078074e926f02bc7cbe08d2292278c9ef91e97e6bb4a243dcffe9ea881664b3c370000006a473044022073f2ca5cffa545cab5a119099e811e20aef527fd957d37b39770f59bb5e0b241022034ad33d62081a45e692e7d59279382c131294c53ead66cd52e4beaa97cf85146012102a9ee338f248b5025de50095ab9e45179e8b46499b0ee56f9466e75a4d31f3b6effffffffd24a43e700ec91ef97ed876039b6364c099033e435ab384d6a7fca61f75494f6000000006a47304402206b5075fb66ec86afce5a7183e6489a893dd92db76df130b9dde86aa5c9d10e17022028ab1ce456b043497ce63072617a8f5e0f0833785981c9d27ecbafdcba8515b001210223e87adbf8c569ef337d4e6b28e333fa5cad28320d7c92b917c561fd451afef1ffffffff1627ba5dfe4a42575abf1e33ba39cdb18c6c08e7437584f9f4e8c6c440245b79000000006b48304502210095af04afaee9491f986b565b9d1eb76145814381f8d445190e753dc79dc7164b02205a2d25e8b1693ce4a18168890fb94be3e9d7feb77babea3a372ca7881707b9ed01210214d84ab0db6f7e9c7c73a2f699e5fa112dbb6e4f5af91a3b8cf975e9b127fa4cffffffff438824101ef2147b6a1fe37e0069b79d084fa966e80f8a016d48bce2bb6e4b3b000000006a4730440220581b1bf2514fe875bc84dddc8df6e842ffcb886fc62b02206253f99fa088226b02203065e9d61c869aba53584eefc70135cd86f5ad61a2f5696146ea73500ae4fdb10121032cbcb328afea063405b8e78f7919a31a6025e558587af31bc365a625b33df640ffffffff493f227749949babc5151aebb8585e546c986be5ab0e6869f5b155f90ecaac0a000000006a4730440220611b54183e26a83b6f3a1324b01212674dd141a19a7a16a444bd2ee1f48c3ae402201821632146f26c1fb098e79e14d8657dbb8fe72a0984f5df6dc5009e4e63033401210338b7413e0f7be1922b864006f77b050dec787ea6547671a4e495de6f536ef7e6ffffffff016c335118000000001976a914bfabbceedfbf9cc651a09148ba2de75b6008ba8988ac00000000", "vin": [{"sequence": 4294967295, "scriptSig": {"hex": "4830450221008fc0efc1b9433662f95fb9d9fdcee097b55bd548aeb8e1a3bb57f788df15a7c70220055e66bbbb1fd6207eddf048f4bb0db7b6e3bbf6636ceb3b56e29d0cf490e530012103523eaae88f64385bffd8e45664b99e7e133eb9eef337061d91facfd15de083a5", "asm": "30450221008fc0efc1b9433662f95fb9d9fdcee097b55bd548aeb8e1a3bb57f788df15a7c70220055e66bbbb1fd6207eddf048f4bb0db7b6e3bbf6636ceb3b56e29d0cf490e530[ALL] 03523eaae88f64385bffd8e45664b99e7e133eb9eef337061d91facfd15de083a5"}, "vout": 9, "txid": "7004a270aa9f67370eb88c4aef6d10d45a1eb5b81f5b350f081f49170a60b2d1"}, {"sequence": 4294967295, "scriptSig": {"hex": "473044022073f2ca5cffa545cab5a119099e811e20aef527fd957d37b39770f59bb5e0b241022034ad33d62081a45e692e7d59279382c131294c53ead66cd52e4beaa97cf85146012102a9ee338f248b5025de50095ab9e45179e8b46499b0ee56f9466e75a4d31f3b6e", "asm": "3044022073f2ca5cffa545cab5a119099e811e20aef527fd957d37b39770f59bb5e0b241022034ad33d62081a45e692e7d59279382c131294c53ead66cd52e4beaa97cf85146[ALL] 02a9ee338f248b5025de50095ab9e45179e8b46499b0ee56f9466e75a4d31f3b6e"}, "vout": 55, "txid": "3c4b6681a89efecf3d244abbe6971ef99e8c2792228de0cbc72bf026e9748007"}, {"sequence": 4294967295, "scriptSig": {"hex": "47304402206b5075fb66ec86afce5a7183e6489a893dd92db76df130b9dde86aa5c9d10e17022028ab1ce456b043497ce63072617a8f5e0f0833785981c9d27ecbafdcba8515b001210223e87adbf8c569ef337d4e6b28e333fa5cad28320d7c92b917c561fd451afef1", "asm": "304402206b5075fb66ec86afce5a7183e6489a893dd92db76df130b9dde86aa5c9d10e17022028ab1ce456b043497ce63072617a8f5e0f0833785981c9d27ecbafdcba8515b0[ALL] 0223e87adbf8c569ef337d4e6b28e333fa5cad28320d7c92b917c561fd451afef1"}, "vout": 0, "txid": "f69454f761ca7f6a4d38ab35e43390094c36b6396087ed97ef91ec00e7434ad2"}, {"sequence": 4294967295, "scriptSig": {"hex": "48304502210095af04afaee9491f986b565b9d1eb76145814381f8d445190e753dc79dc7164b02205a2d25e8b1693ce4a18168890fb94be3e9d7feb77babea3a372ca7881707b9ed01210214d84ab0db6f7e9c7c73a2f699e5fa112dbb6e4f5af91a3b8cf975e9b127fa4c", "asm": "304502210095af04afaee9491f986b565b9d1eb76145814381f8d445190e753dc79dc7164b02205a2d25e8b1693ce4a18168890fb94be3e9d7feb77babea3a372ca7881707b9ed[ALL] 0214d84ab0db6f7e9c7c73a2f699e5fa112dbb6e4f5af91a3b8cf975e9b127fa4c"}, "vout": 0, "txid": "795b2440c4c6e8f4f9847543e7086c8cb1cd39ba331ebf5a57424afe5dba2716"}, {"sequence": 4294967295, "scriptSig": {"hex": "4730440220581b1bf2514fe875bc84dddc8df6e842ffcb886fc62b02206253f99fa088226b02203065e9d61c869aba53584eefc70135cd86f5ad61a2f5696146ea73500ae4fdb10121032cbcb328afea063405b8e78f7919a31a6025e558587af31bc365a625b33df640", "asm": "30440220581b1bf2514fe875bc84dddc8df6e842ffcb886fc62b02206253f99fa088226b02203065e9d61c869aba53584eefc70135cd86f5ad61a2f5696146ea73500ae4fdb1[ALL] 032cbcb328afea063405b8e78f7919a31a6025e558587af31bc365a625b33df640"}, "vout": 0, "txid": "3b4b6ebbe2bc486d018a0fe866a94f089db769007ee31f6a7b14f21e10248843"}, {"sequence": 4294967295, "scriptSig": {"hex": "4730440220611b54183e26a83b6f3a1324b01212674dd141a19a7a16a444bd2ee1f48c3ae402201821632146f26c1fb098e79e14d8657dbb8fe72a0984f5df6dc5009e4e63033401210338b7413e0f7be1922b864006f77b050dec787ea6547671a4e495de6f536ef7e6", "asm": "30440220611b54183e26a83b6f3a1324b01212674dd141a19a7a16a444bd2ee1f48c3ae402201821632146f26c1fb098e79e14d8657dbb8fe72a0984f5df6dc5009e4e630334[ALL] 0338b7413e0f7be1922b864006f77b050dec787ea6547671a4e495de6f536ef7e6"}, "vout": 0, "txid": "0aacca0ef955b1f569680eabe56b986c545e58b8eb1a15c5ab9b944977223f49"}], "txid": "fd001ec6e35626993671cea2a983b5414830e3382258fc9d371e1125c85199e0", "blocktime": 1537869901, "version": 2, "confirmations": 11523, "time": 1537869901, "locktime": 0, "vsize": 928, "size": 928}