{"hash": "fd06995b5a196116f2f8f60ea8a1af44f20c475901a879f5ce06e1c614ce3d29", "blockhash": "000000000000000000205f8b0775d31398ef75b89a5e8ec8d2c57b4dc0ac4c20", "vout": [{"scriptPubKey": {"reqSigs": 1, "hex": "76a914a25dec4d0011064ef106a983c39c7a540699f22088ac", "addresses": ["1FoWyxwPXuj4C6abqwhjDWdz6D4PZgYRjA"], "asm": "OP_DUP OP_HASH160 a25dec4d0011064ef106a983c39c7a540699f220 OP_EQUALVERIFY OP_CHECKSIG", "type": "pubkeyhash"}, "value": 0.01995188, "n": 0}, {"scriptPubKey": {"type": "nulldata", "hex": "6a146f6d6e69000000000000001f0000000b54f54380", "asm": "OP_RETURN 6f6d6e69000000000000001f0000000b54f54380"}, "value": 0.0, "n": 1}, {"scriptPubKey": {"reqSigs": 1, "hex": "76a914d5ad12da4ffb0dbc805b6217b15af2134dee9f1788ac", "addresses": ["1LUpGECBSSmcEwrCX3p81mn8Qp8Z73ryY3"], "asm": "OP_DUP OP_HASH160 d5ad12da4ffb0dbc805b6217b15af2134dee9f17 OP_EQUALVERIFY OP_CHECKSIG", "type": "pubkeyhash"}, "value": 5.46e-06, "n": 2}], "hex": "0100000001a44813c76173a4fe9689194c29809e35be05f1741d9b5e1e9e8bd44070ac1fea6f0000006b483045022100bdec81746e3ad43a460d166889317dcce7cbe8f0718ffceda03db0ab6c577775022069ad5475e8eccc9cc6481f66b9d9e59d6044b4c90391b2bfa713744e7148ba23012103da5bac7b36d5aa38f531c6b9601e21bb598a4b6716ebed38b009a55dabde9440feffffff03b4711e00000000001976a914a25dec4d0011064ef106a983c39c7a540699f22088ac0000000000000000166a146f6d6e69000000000000001f0000000b54f5438022020000000000001976a914d5ad12da4ffb0dbc805b6217b15af2134dee9f1788acde480800", "vin": [{"sequence": 4294967294, "scriptSig": {"hex": "483045022100bdec81746e3ad43a460d166889317dcce7cbe8f0718ffceda03db0ab6c577775022069ad5475e8eccc9cc6481f66b9d9e59d6044b4c90391b2bfa713744e7148ba23012103da5bac7b36d5aa38f531c6b9601e21bb598a4b6716ebed38b009a55dabde9440", "asm": "3045022100bdec81746e3ad43a460d166889317dcce7cbe8f0718ffceda03db0ab6c577775022069ad5475e8eccc9cc6481f66b9d9e59d6044b4c90391b2bfa713744e7148ba23[ALL] 03da5bac7b36d5aa38f531c6b9601e21bb598a4b6716ebed38b009a55dabde9440"}, "vout": 111, "txid": "ea1fac7040d48b9e1e5e9b1d74f105be359e80294c198996fea47361c71348a4"}], "txid": "fd06995b5a196116f2f8f60ea8a1af44f20c475901a879f5ce06e1c614ce3d29", "blocktime": 1537871175, "version": 1, "confirmations": 11511, "time": 1537871175, "locktime": 542942, "vsize": 257, "size": 257}