{"hash": "fd0a48201a5ddeeb82acdc9c548f2170d78763ec742aeffcb64f054fe62c6f3e", "blockhash": "0000000000000000000e13cef7c366c0283d82e591d1acd082e914b08063cdf1", "vout": [{"scriptPubKey": {"reqSigs": 1, "hex": "76a91408da3dd73093739339f5d7e2b9b0e49eeb443d0588ac", "addresses": ["1oorE1tWrniiZTuE8PBcRtiULKmfod57z"], "asm": "OP_DUP OP_HASH160 08da3dd73093739339f5d7e2b9b0e49eeb443d05 OP_EQUALVERIFY OP_CHECKSIG", "type": "pubkeyhash"}, "value": 0.02595577, "n": 0}, {"scriptPubKey": {"reqSigs": 1, "hex": "a91408c85290fb9d9413b5542389d3249842dd6bf40287", "addresses": ["32VTJjNn45eZ53K1qk5eoS4t29ZoEwSQ7p"], "asm": "OP_HASH160 08c85290fb9d9413b5542389d3249842dd6bf402 OP_EQUAL", "type": "scripthash"}, "value": 0.00310299, "n": 1}], "hex": "0100000002c90a0592b1a147ce3596ee1939e359151ba43247b64b52318b5d280f288b1f7801000000fdfd0000473044022067922c3020346d70825f6fd34659489f1aa46f7fd3045cb181f1d1ba064afee902203d5a55099c68dada59da7c68a1a6043c3553d947df3ae3600d0f70f8de50bee501483045022100eb7fbffe16442529e81f9b47d8595de5697385e59809bfb0ee2da8d5b22f6e7402205f977d5105eb002e304e31f79676eb6dd32467f227c8a0094d9d163c340ba294014c695221036c9ae334bb65e18ed6396ee76f3fd1e3aad1810a8f7e8c9b11d3b0d9215c791c21038c82267d2727e6642cd7f9b34c9e28255aa39cf14e650f6907a057738790dac72102b2b64a0541107a23caa32651d7799aa4993bf526905e70073830e82d8fbb727b53aeffffffff342b387959e64498cc3670ae560c47aa2bf7ec972a34f1a26df8c72d99fa19bf01000000fc0047304402201e3e3f97da2eb801c42439d5e3fe37feb9c2e7f5a454fa0195c1a1922f9c7a2a02201e9521844ead2ad65a727f1a2181b60b1d655032ae13a901340f6be07f6d393f014730440220140869c067af5435be0e7f8f6f4ef869782586d9cdf58d17332b47a404d3dc7e02203f60981a0eafcd52443ed912b73ddc793bed1d468f9a6b9e94a4d2880b257140014c6952210314fd1bd16ed32027cb98e43e2916400a6c03570e591b13c28a2a60a364ba606021038c82267d2727e6642cd7f9b34c9e28255aa39cf14e650f6907a057738790dac72102b2b64a0541107a23caa32651d7799aa4993bf526905e70073830e82d8fbb727b53aeffffffff02f99a2700000000001976a91408da3dd73093739339f5d7e2b9b0e49eeb443d0588ac1bbc04000000000017a91408c85290fb9d9413b5542389d3249842dd6bf4028700000000", "vin": [{"sequence": 4294967295, "scriptSig": {"hex": "00473044022067922c3020346d70825f6fd34659489f1aa46f7fd3045cb181f1d1ba064afee902203d5a55099c68dada59da7c68a1a6043c3553d947df3ae3600d0f70f8de50bee501483045022100eb7fbffe16442529e81f9b47d8595de5697385e59809bfb0ee2da8d5b22f6e7402205f977d5105eb002e304e31f79676eb6dd32467f227c8a0094d9d163c340ba294014c695221036c9ae334bb65e18ed6396ee76f3fd1e3aad1810a8f7e8c9b11d3b0d9215c791c21038c82267d2727e6642cd7f9b34c9e28255aa39cf14e650f6907a057738790dac72102b2b64a0541107a23caa32651d7799aa4993bf526905e70073830e82d8fbb727b53ae", "asm": "0 3044022067922c3020346d70825f6fd34659489f1aa46f7fd3045cb181f1d1ba064afee902203d5a55099c68dada59da7c68a1a6043c3553d947df3ae3600d0f70f8de50bee5[ALL] 3045022100eb7fbffe16442529e81f9b47d8595de5697385e59809bfb0ee2da8d5b22f6e7402205f977d5105eb002e304e31f79676eb6dd32467f227c8a0094d9d163c340ba294[ALL] 5221036c9ae334bb65e18ed6396ee76f3fd1e3aad1810a8f7e8c9b11d3b0d9215c791c21038c82267d2727e6642cd7f9b34c9e28255aa39cf14e650f6907a057738790dac72102b2b64a0541107a23caa32651d7799aa4993bf526905e70073830e82d8fbb727b53ae"}, "vout": 1, "txid": "781f8b280f285d8b31524bb64732a41b1559e33919ee9635ce47a1b192050ac9"}, {"sequence": 4294967295, "scriptSig": {"hex": "0047304402201e3e3f97da2eb801c42439d5e3fe37feb9c2e7f5a454fa0195c1a1922f9c7a2a02201e9521844ead2ad65a727f1a2181b60b1d655032ae13a901340f6be07f6d393f014730440220140869c067af5435be0e7f8f6f4ef869782586d9cdf58d17332b47a404d3dc7e02203f60981a0eafcd52443ed912b73ddc793bed1d468f9a6b9e94a4d2880b257140014c6952210314fd1bd16ed32027cb98e43e2916400a6c03570e591b13c28a2a60a364ba606021038c82267d2727e6642cd7f9b34c9e28255aa39cf14e650f6907a057738790dac72102b2b64a0541107a23caa32651d7799aa4993bf526905e70073830e82d8fbb727b53ae", "asm": "0 304402201e3e3f97da2eb801c42439d5e3fe37feb9c2e7f5a454fa0195c1a1922f9c7a2a02201e9521844ead2ad65a727f1a2181b60b1d655032ae13a901340f6be07f6d393f[ALL] 30440220140869c067af5435be0e7f8f6f4ef869782586d9cdf58d17332b47a404d3dc7e02203f60981a0eafcd52443ed912b73ddc793bed1d468f9a6b9e94a4d2880b257140[ALL] 52210314fd1bd16ed32027cb98e43e2916400a6c03570e591b13c28a2a60a364ba606021038c82267d2727e6642cd7f9b34c9e28255aa39cf14e650f6907a057738790dac72102b2b64a0541107a23caa32651d7799aa4993bf526905e70073830e82d8fbb727b53ae"}, "vout": 1, "txid": "bf19fa992dc7f86da2f1342a97ecf72baa470c56ae7036cc9844e65979382b34"}], "txid": "fd0a48201a5ddeeb82acdc9c548f2170d78763ec742aeffcb64f054fe62c6f3e", "blocktime": 1537871767, "version": 1, "confirmations": 11495, "time": 1537871767, "locktime": 0, "vsize": 665, "size": 665}