{"hash": "6f03d35aab39eca7525ae4a8a5d00521760c7b381095a2b3956292a1bbf30cfe", "blockhash": "0000000000000000001f76057863aec43deb6fa401d9628bb513d65a8098bfab", "vout": [{"scriptPubKey": {"reqSigs": 1, "hex": "a9145c927e79cc373ffd3fcd5d959e3d3cd0f4912e5087", "addresses": ["3A8Van1n8tr5tYu3dAMkHnv255pLhVSTsL"], "asm": "OP_HASH160 5c927e79cc373ffd3fcd5d959e3d3cd0f4912e50 OP_EQUAL", "type": "scripthash"}, "value": 0.54397809, "n": 0}, {"scriptPubKey": {"reqSigs": 1, "hex": "a9145d24c9d1ce35f97dafb350ff298c926046c7c23b87", "addresses": ["3ABWqV22tuBR3zhmxR4irVaLMLSWHocBVU"], "asm": "OP_HASH160 5d24c9d1ce35f97dafb350ff298c926046c7c23b OP_EQUAL", "type": "scripthash"}, "value": 0.0702, "n": 1}], "hex": "0200000000010195143c504678a4d15e8c5fe38e79cf6d55ebfa75f5b732e9658a5816d328faae000000001716001457297191890d04e60eacaeb3fd4a80400e7b85ecfeffffff02710b3e030000000017a9145c927e79cc373ffd3fcd5d959e3d3cd0f4912e5087e01d6b000000000017a9145d24c9d1ce35f97dafb350ff298c926046c7c23b870247304402207bb6bcc8cb9f7354f335eaa88b2a6c24c7ab071d7b43141c7ef4d934a04e160702206d4582a6e6bf52241efb54cdf9a03d6fcf898813e988bac841299e475c61089a01210329411a6c1ed078694649a1568ec17aed83ee99f9eca9c0f166ba9a7ab4a9a69714490800", "vin": [{"txinwitness": ["304402207bb6bcc8cb9f7354f335eaa88b2a6c24c7ab071d7b43141c7ef4d934a04e160702206d4582a6e6bf52241efb54cdf9a03d6fcf898813e988bac841299e475c61089a01", "0329411a6c1ed078694649a1568ec17aed83ee99f9eca9c0f166ba9a7ab4a9a697"], "sequence": 4294967294, "scriptSig": {"hex": "16001457297191890d04e60eacaeb3fd4a80400e7b85ec", "asm": "001457297191890d04e60eacaeb3fd4a80400e7b85ec"}, "vout": 0, "txid": "aefa28d316588a65e932b7f575faeb556dcf798ee35f8c5ed1a47846503c1495"}], "txid": "fd0b283dc8286b46a83c88b075ca6359682d9e926cb23f6cc4a16fd8677d4520", "blocktime": 1537873891, "version": 2, "confirmations": 11478, "time": 1537873891, "locktime": 542996, "vsize": 166, "size": 247}