{"hash": "fd0bbb92ce27a614407f1b29c39874bfabcc547ba8a732f461c9c9d721c963af", "blockhash": "00000000000000000017f5eb5941039fbcee6240d03bc1f2f8e35350df66a1d8", "vout": [{"scriptPubKey": {"reqSigs": 1, "hex": "76a914cf47f74aa9af9b7acfe72a8240df76739f8b9f4988ac", "addresses": ["1Ku15zbeT8Bdvr9uVRDobC35JGw1REub4Y"], "asm": "OP_DUP OP_HASH160 cf47f74aa9af9b7acfe72a8240df76739f8b9f49 OP_EQUALVERIFY OP_CHECKSIG", "type": "pubkeyhash"}, "value": 0.14678067, "n": 0}, {"scriptPubKey": {"reqSigs": 1, "hex": "76a914dac965c4166c3132b976f68f2ce97cb86c83c5fb88ac", "addresses": ["1LwqaAXcD6Pp54X4sopBPL1KHjSKLjofUp"], "asm": "OP_DUP OP_HASH160 dac965c4166c3132b976f68f2ce97cb86c83c5fb OP_EQUALVERIFY OP_CHECKSIG", "type": "pubkeyhash"}, "value": 0.15625585, "n": 1}], "hex": "0100000001bbcf6df1bfc24def2b61bfdab81513e9d04002770423d4900e008d937a21dceb000000006b483045022100e85ffaa345936b640cbdb3435157c394c2c38133f0e8f5accd867e14a49e412c02207b6a2f4a3af1310804a412d3cee6701e7615c37e9cde9d5c91dbfb8777ab65f90121022d8d91bdd81e623e63153c2b8d25b40ede363f7634fe4f04e2bb9bb556be1114ffffffff0233f8df00000000001976a914cf47f74aa9af9b7acfe72a8240df76739f8b9f4988ac716dee00000000001976a914dac965c4166c3132b976f68f2ce97cb86c83c5fb88ac00000000", "vin": [{"sequence": 4294967295, "scriptSig": {"hex": "483045022100e85ffaa345936b640cbdb3435157c394c2c38133f0e8f5accd867e14a49e412c02207b6a2f4a3af1310804a412d3cee6701e7615c37e9cde9d5c91dbfb8777ab65f90121022d8d91bdd81e623e63153c2b8d25b40ede363f7634fe4f04e2bb9bb556be1114", "asm": "3045022100e85ffaa345936b640cbdb3435157c394c2c38133f0e8f5accd867e14a49e412c02207b6a2f4a3af1310804a412d3cee6701e7615c37e9cde9d5c91dbfb8777ab65f9[ALL] 022d8d91bdd81e623e63153c2b8d25b40ede363f7634fe4f04e2bb9bb556be1114"}, "vout": 0, "txid": "ebdc217a938d000e90d42304770240d0e91315b8dabf612bef4dc2bff16dcfbb"}], "txid": "fd0bbb92ce27a614407f1b29c39874bfabcc547ba8a732f461c9c9d721c963af", "blocktime": 1537874412, "version": 1, "confirmations": 11468, "time": 1537874412, "locktime": 0, "vsize": 226, "size": 226}