{"hash": "e5d004d12f051ea2a345ab496031cb2f13702be595d4dc08cf3feaa5c499971f", "blockhash": "0000000000000000001cda96e906b7601b7a6fb1a3b62bca570a9e5d8f4b3de1", "vout": [{"scriptPubKey": {"reqSigs": 1, "hex": "00149dd207e2510bb8a556f2a25787fb437ff975c1d0", "addresses": ["bc1qnhfq0cj3pwu224hj5ftc076r0luhtswsvvpsus"], "asm": "0 9dd207e2510bb8a556f2a25787fb437ff975c1d0", "type": "witness_v0_keyhash"}, "value": 0.00317225, "n": 0}, {"scriptPubKey": {"reqSigs": 1, "hex": "a914e4ec4227bcf94abc0cc2927e0220241d0678190387", "addresses": ["3NZT1oaHdETUnYQUUsiKRH2ZRMfUrRqa6d"], "asm": "OP_HASH160 e4ec4227bcf94abc0cc2927e0220241d06781903 OP_EQUAL", "type": "scripthash"}, "value": 0.00796502, "n": 1}], "hex": "01000000000101180e3266a6ce73539884c00bc232a4619ad9e66de0dfed4d464655530af29d932e00000017160014e3b811c3dff57f3ece27890c0054f1bb48271bb6ffffffff0229d70400000000001600149dd207e2510bb8a556f2a25787fb437ff975c1d056270c000000000017a914e4ec4227bcf94abc0cc2927e0220241d067819038702483045022100f360e90a34d954e36f6554b99e246004a53da4cf8ca7dda03c8bde9db6e24a2602200da03766d07be2cd521a2440f94202646305d1c460964fd4ea46b9663aad63450121029749a0c8d5566ab7cdd1e2b27e1289f6c1d981f0377b146b248617eaf159afb400000000", "vin": [{"txinwitness": ["3045022100f360e90a34d954e36f6554b99e246004a53da4cf8ca7dda03c8bde9db6e24a2602200da03766d07be2cd521a2440f94202646305d1c460964fd4ea46b9663aad634501", "029749a0c8d5566ab7cdd1e2b27e1289f6c1d981f0377b146b248617eaf159afb4"], "sequence": 4294967295, "scriptSig": {"hex": "160014e3b811c3dff57f3ece27890c0054f1bb48271bb6", "asm": "0014e3b811c3dff57f3ece27890c0054f1bb48271bb6"}, "vout": 46, "txid": "939df20a535546464deddfe06de6d99a61a432c20bc084985373cea666320e18"}], "txid": "fd0b7ea372398fad2867793f6436ff4f5a1dcb28b7d266bc23fef082132cfdea", "blocktime": 1537873282, "version": 1, "confirmations": 11484, "time": 1537873282, "locktime": 0, "vsize": 165, "size": 247}