{"hash": "fd0d1697e487be29892c20253db680708de4252a6ded94d81d66a2d9131d9c3b", "blockhash": "0000000000000000001f76057863aec43deb6fa401d9628bb513d65a8098bfab", "vout": [{"scriptPubKey": {"reqSigs": 1, "hex": "76a914c2e9e492a61015732c69a5c96145eeae832cb40288ac", "addresses": ["1JmcHNpD7QpJ7PZKkU8BG2GZvF4Chutq6R"], "asm": "OP_DUP OP_HASH160 c2e9e492a61015732c69a5c96145eeae832cb402 OP_EQUALVERIFY OP_CHECKSIG", "type": "pubkeyhash"}, "value": 5.858e-05, "n": 0}, {"scriptPubKey": {"reqSigs": 1, "hex": "76a9142de59061ba8a1397099320f9a75ee88dd6be429888ac", "addresses": ["15BgR23v5pvsfqPSC6aVsz5AC9yf4v8PJE"], "asm": "OP_DUP OP_HASH160 2de59061ba8a1397099320f9a75ee88dd6be4298 OP_EQUALVERIFY OP_CHECKSIG", "type": "pubkeyhash"}, "value": 0.00015611, "n": 1}], "hex": "0100000002ede3e4bb5e9114eb5db51f2f3c63fee38a6a4c4f4ccda979190b0f98f214c86b000000006b483045022100f035ae31bb76658b51cf10c6959f61b17dfd598dc9dbee1d404e6b9b967c9b8b022038f8ac664293ec7c60d822fd91f89e3e32369c6053d8aa97880113c475256508012102e471f53b9d4b3223f5cc89194f783a196b2ec9199ac566930f4e4d9776747e5dffffffffd75cc9adf80ed52579b6ff8b2974a56339ae1662d5bde1314e162b13ddddaccec00100006b483045022100887a27d48df9a418246ef1054c8c3c573d0e8387759442ad216a5b1f7a5a3f5c02206290eb1e90c75926e608d6da9cc4b0256854f2c643a69efa899f226ca03605910121022be796517f4877d82c2f1e19e68d3bef5da5189df9b2a73fe1b52f754ee7a05bffffffff02e2160000000000001976a914c2e9e492a61015732c69a5c96145eeae832cb40288acfb3c0000000000001976a9142de59061ba8a1397099320f9a75ee88dd6be429888ac00000000", "vin": [{"sequence": 4294967295, "scriptSig": {"hex": "483045022100f035ae31bb76658b51cf10c6959f61b17dfd598dc9dbee1d404e6b9b967c9b8b022038f8ac664293ec7c60d822fd91f89e3e32369c6053d8aa97880113c475256508012102e471f53b9d4b3223f5cc89194f783a196b2ec9199ac566930f4e4d9776747e5d", "asm": "3045022100f035ae31bb76658b51cf10c6959f61b17dfd598dc9dbee1d404e6b9b967c9b8b022038f8ac664293ec7c60d822fd91f89e3e32369c6053d8aa97880113c475256508[ALL] 02e471f53b9d4b3223f5cc89194f783a196b2ec9199ac566930f4e4d9776747e5d"}, "vout": 0, "txid": "6bc814f2980f0b1979a9cd4c4f4c6a8ae3fe633c2f1fb55deb14915ebbe4e3ed"}, {"sequence": 4294967295, "scriptSig": {"hex": "483045022100887a27d48df9a418246ef1054c8c3c573d0e8387759442ad216a5b1f7a5a3f5c02206290eb1e90c75926e608d6da9cc4b0256854f2c643a69efa899f226ca03605910121022be796517f4877d82c2f1e19e68d3bef5da5189df9b2a73fe1b52f754ee7a05b", "asm": "3045022100887a27d48df9a418246ef1054c8c3c573d0e8387759442ad216a5b1f7a5a3f5c02206290eb1e90c75926e608d6da9cc4b0256854f2c643a69efa899f226ca0360591[ALL] 022be796517f4877d82c2f1e19e68d3bef5da5189df9b2a73fe1b52f754ee7a05b"}, "vout": 448, "txid": "ceacdddd132b164e31e1bdd56216ae3963a574298bffb67925d50ef8adc95cd7"}], "txid": "fd0d1697e487be29892c20253db680708de4252a6ded94d81d66a2d9131d9c3b", "blocktime": 1537873891, "version": 1, "confirmations": 11478, "time": 1537873891, "locktime": 0, "vsize": 374, "size": 374}