{"hash": "fd0fb165695d08cc3db466bb27610748219deea42816c832ece70ac281914897", "blockhash": "0000000000000000000dcc0f55137456b1a82d3642486a52398922ac4d620174", "vout": [{"scriptPubKey": {"reqSigs": 1, "hex": "76a91400e07d8753d53f8d288a1e8e70b80056bb5151a888ac", "addresses": ["115dvs38Tak17qpzc9f8vi8AcmrNYY2z45"], "asm": "OP_DUP OP_HASH160 00e07d8753d53f8d288a1e8e70b80056bb5151a8 OP_EQUALVERIFY OP_CHECKSIG", "type": "pubkeyhash"}, "value": 0.356627, "n": 0}, {"scriptPubKey": {"reqSigs": 1, "hex": "76a914c2c743b96bb19490f8d6b038ee9286804aabb7d388ac", "addresses": ["1JktoMoQJv7Jmki22seRCk1mztcTXo5Tvs"], "asm": "OP_DUP OP_HASH160 c2c743b96bb19490f8d6b038ee9286804aabb7d3 OP_EQUALVERIFY OP_CHECKSIG", "type": "pubkeyhash"}, "value": 0.0004266, "n": 1}], "hex": "01000000025e08d2f78116aba9637b3f4257ca6b36d76401f44eb1c432e82a98bc88002636010000006a473044022068aab8931b209e7c7e4eaf5463d75c2d9e4a36c13e5559308bc9cb4bae7590c702205bb5142a020855ba48b6ebe4273cd20e2cd0b69dc55d640dc6b98c0578a7db5e01210240e9494d433ddf9af58cd89b8fc4f82f0701c0292fa78aed07da29fda357f2fbffffffff4dff971250e754bf87e0e1daa7ab4f0d0ef8546e62bc410f5f42644dce5f876a010000006a47304402203166597231652f186b591678a6ad59d583dc3ad7a67d3f6f9ab666c92236ecce02203a01e6ad8ac70f5b2d68b29ac432f90e2fc5218273f3f536b3910fffe1f0bbf7012103cd9695953d5373f2dbd2c84ad5a55609a8a387ad319828e56c48586126a35c4fffffffff026c2b2002000000001976a91400e07d8753d53f8d288a1e8e70b80056bb5151a888aca4a60000000000001976a914c2c743b96bb19490f8d6b038ee9286804aabb7d388ac00000000", "vin": [{"sequence": 4294967295, "scriptSig": {"hex": "473044022068aab8931b209e7c7e4eaf5463d75c2d9e4a36c13e5559308bc9cb4bae7590c702205bb5142a020855ba48b6ebe4273cd20e2cd0b69dc55d640dc6b98c0578a7db5e01210240e9494d433ddf9af58cd89b8fc4f82f0701c0292fa78aed07da29fda357f2fb", "asm": "3044022068aab8931b209e7c7e4eaf5463d75c2d9e4a36c13e5559308bc9cb4bae7590c702205bb5142a020855ba48b6ebe4273cd20e2cd0b69dc55d640dc6b98c0578a7db5e[ALL] 0240e9494d433ddf9af58cd89b8fc4f82f0701c0292fa78aed07da29fda357f2fb"}, "vout": 1, "txid": "36260088bc982ae832c4b14ef40164d7366bca57423f7b63a9ab1681f7d2085e"}, {"sequence": 4294967295, "scriptSig": {"hex": "47304402203166597231652f186b591678a6ad59d583dc3ad7a67d3f6f9ab666c92236ecce02203a01e6ad8ac70f5b2d68b29ac432f90e2fc5218273f3f536b3910fffe1f0bbf7012103cd9695953d5373f2dbd2c84ad5a55609a8a387ad319828e56c48586126a35c4f", "asm": "304402203166597231652f186b591678a6ad59d583dc3ad7a67d3f6f9ab666c92236ecce02203a01e6ad8ac70f5b2d68b29ac432f90e2fc5218273f3f536b3910fffe1f0bbf7[ALL] 03cd9695953d5373f2dbd2c84ad5a55609a8a387ad319828e56c48586126a35c4f"}, "vout": 1, "txid": "6a875fce4d64425f0f41bc626e54f80e0d4faba7dae1e087bf54e7501297ff4d"}], "txid": "fd0fb165695d08cc3db466bb27610748219deea42816c832ece70ac281914897", "blocktime": 1537870268, "version": 1, "confirmations": 11518, "time": 1537870268, "locktime": 0, "vsize": 372, "size": 372}