{"hash": "fd1057d3e9e3c2695a9368631585d7d403c386b431a9d7c73120968a5fb27b16", "blockhash": "00000000000000000004ffacab907a6b429b9a5745fa0b75af4234bf69dd7176", "vout": [{"scriptPubKey": {"reqSigs": 1, "hex": "76a9141ad6db5c83d6899d36b2f26b9b7ef2124dcf85a588ac", "addresses": ["13SuxWK2AnsfDMqm5c638UNmMssHKrs1sm"], "asm": "OP_DUP OP_HASH160 1ad6db5c83d6899d36b2f26b9b7ef2124dcf85a5 OP_EQUALVERIFY OP_CHECKSIG", "type": "pubkeyhash"}, "value": 0.0001, "n": 0}, {"scriptPubKey": {"reqSigs": 1, "hex": "76a9143a9489f97f6049a6a7c9e7675899e49654ac31d388ac", "addresses": ["16Lk8o4uwCXYVnhancmbDSCAuVTQpE238x"], "asm": "OP_DUP OP_HASH160 3a9489f97f6049a6a7c9e7675899e49654ac31d3 OP_EQUALVERIFY OP_CHECKSIG", "type": "pubkeyhash"}, "value": 5.48e-05, "n": 1}], "hex": "0100000002d667c6cae2b1a9ed7fc6ed8c849741be7119ca07ded76cf1f1da2fb2b5ca645e000000006a47304402202d4d3665fe297c244c4a0243fb80f0571f6e279e3d994a38f0fdd3e1124bbc7f0220776fb913f66de24aa172f95d496a9f94572209fd445ce45eb863ac061eaebab201210389820716a453c3fdcfc16bf1cac178903a7809064c5c6f1fb60ece6bbc2c4855ffffffff9a3d28abc24cef4393a6e21c59504d7be215a4a934003eb451f2646b7c07aa12000000006a47304402203991a21bbbdf1d2f17072f690e7ab248292543a1d35c043689dc754ca2997b3b022055cdb87c074c0fd0ac428bbc8dbb8dde83a9faa852680772b0ef49a2902f519101210389820716a453c3fdcfc16bf1cac178903a7809064c5c6f1fb60ece6bbc2c4855ffffffff0210270000000000001976a9141ad6db5c83d6899d36b2f26b9b7ef2124dcf85a588ac68150000000000001976a9143a9489f97f6049a6a7c9e7675899e49654ac31d388ac00000000", "vin": [{"sequence": 4294967295, "scriptSig": {"hex": "47304402202d4d3665fe297c244c4a0243fb80f0571f6e279e3d994a38f0fdd3e1124bbc7f0220776fb913f66de24aa172f95d496a9f94572209fd445ce45eb863ac061eaebab201210389820716a453c3fdcfc16bf1cac178903a7809064c5c6f1fb60ece6bbc2c4855", "asm": "304402202d4d3665fe297c244c4a0243fb80f0571f6e279e3d994a38f0fdd3e1124bbc7f0220776fb913f66de24aa172f95d496a9f94572209fd445ce45eb863ac061eaebab2[ALL] 0389820716a453c3fdcfc16bf1cac178903a7809064c5c6f1fb60ece6bbc2c4855"}, "vout": 0, "txid": "5e64cab5b22fdaf1f16cd7de07ca1971be4197848cedc67feda9b1e2cac667d6"}, {"sequence": 4294967295, "scriptSig": {"hex": "47304402203991a21bbbdf1d2f17072f690e7ab248292543a1d35c043689dc754ca2997b3b022055cdb87c074c0fd0ac428bbc8dbb8dde83a9faa852680772b0ef49a2902f519101210389820716a453c3fdcfc16bf1cac178903a7809064c5c6f1fb60ece6bbc2c4855", "asm": "304402203991a21bbbdf1d2f17072f690e7ab248292543a1d35c043689dc754ca2997b3b022055cdb87c074c0fd0ac428bbc8dbb8dde83a9faa852680772b0ef49a2902f5191[ALL] 0389820716a453c3fdcfc16bf1cac178903a7809064c5c6f1fb60ece6bbc2c4855"}, "vout": 0, "txid": "12aa077c6b64f251b43e0034a9a415e27b4d50591ce2a69343ef4cc2ab283d9a"}], "txid": "fd1057d3e9e3c2695a9368631585d7d403c386b431a9d7c73120968a5fb27b16", "blocktime": 1537875543, "version": 1, "confirmations": 11464, "time": 1537875543, "locktime": 0, "vsize": 372, "size": 372}