{"hash": "fd16c0fffc31cb07b04a88d94efa8dbcae359300c54f9e1212ee505f2f8c5e12", "blockhash": "0000000000000000001f76057863aec43deb6fa401d9628bb513d65a8098bfab", "vout": [{"scriptPubKey": {"type": "nulldata", "hex": "6a146f6d6e69000000000000001f0000000000002710", "asm": "OP_RETURN 6f6d6e69000000000000001f0000000000002710"}, "value": 0.0, "n": 0}, {"scriptPubKey": {"reqSigs": 1, "hex": "76a9148b80b2920c044bdfb3ef56f0ded112c06d7ec9f288ac", "addresses": ["1Did6j8R1caPnxGHhLCsFgWZ6bQdWgx9Xm"], "asm": "OP_DUP OP_HASH160 8b80b2920c044bdfb3ef56f0ded112c06d7ec9f2 OP_EQUALVERIFY OP_CHECKSIG", "type": "pubkeyhash"}, "value": 5.46e-06, "n": 1}, {"scriptPubKey": {"reqSigs": 1, "hex": "76a914bbfc4c89ac947faad1b33988a99e9c8c8265c24388ac", "addresses": ["1J8ybuvU1FcztHdcxBAccaUPJruKKfX7xb"], "asm": "OP_DUP OP_HASH160 bbfc4c89ac947faad1b33988a99e9c8c8265c243 OP_EQUALVERIFY OP_CHECKSIG", "type": "pubkeyhash"}, "value": 0.00097688, "n": 2}], "hex": "010000000127d99f8aca0da31bc35a6ac57349bd32480d08b0aa35d89978601e2abb40fc13020000006a473044022016aea29334c2307ec3d4bb19cb804d374ecd3301746bccd8e496c0b15ff9244f0220739d5707c6447f52258379c804e9418152bacd591cf47d4f2a01004fe7456dc7012103ff140573bbd7eb60c2eba3819ea7c6b94094e9ceae01f4263b49069a2773c69efeffffff030000000000000000166a146f6d6e69000000000000001f000000000000271022020000000000001976a9148b80b2920c044bdfb3ef56f0ded112c06d7ec9f288ac987d0100000000001976a914bbfc4c89ac947faad1b33988a99e9c8c8265c24388ac14490800", "vin": [{"sequence": 4294967294, "scriptSig": {"hex": "473044022016aea29334c2307ec3d4bb19cb804d374ecd3301746bccd8e496c0b15ff9244f0220739d5707c6447f52258379c804e9418152bacd591cf47d4f2a01004fe7456dc7012103ff140573bbd7eb60c2eba3819ea7c6b94094e9ceae01f4263b49069a2773c69e", "asm": "3044022016aea29334c2307ec3d4bb19cb804d374ecd3301746bccd8e496c0b15ff9244f0220739d5707c6447f52258379c804e9418152bacd591cf47d4f2a01004fe7456dc7[ALL] 03ff140573bbd7eb60c2eba3819ea7c6b94094e9ceae01f4263b49069a2773c69e"}, "vout": 2, "txid": "13fc40bb2a1e607899d835aab0080d4832bd4973c56a5ac31ba30dca8a9fd927"}], "txid": "fd16c0fffc31cb07b04a88d94efa8dbcae359300c54f9e1212ee505f2f8c5e12", "blocktime": 1537873891, "version": 1, "confirmations": 11475, "time": 1537873891, "locktime": 542996, "vsize": 256, "size": 256}