{"hash": "fd1c06704770094848a996a99182faf8a815192b83bea35d36085492fb4001fc", "blockhash": "0000000000000000000dcc0f55137456b1a82d3642486a52398922ac4d620174", "vout": [{"scriptPubKey": {"reqSigs": 1, "hex": "76a914126a8bd41dbe634bf7cd1342045f96c512ae0fea88ac", "addresses": ["12gNoQxbwbveVm71M3QJViCVnkzikr8FWX"], "asm": "OP_DUP OP_HASH160 126a8bd41dbe634bf7cd1342045f96c512ae0fea OP_EQUALVERIFY OP_CHECKSIG", "type": "pubkeyhash"}, "value": 0.00156245, "n": 0}, {"scriptPubKey": {"reqSigs": 1, "hex": "76a914d2ed184a1c73669e3252cbf26a1c8c3c29b885e188ac", "addresses": ["1LEGvvgRRqTZNrgJoxXPP3nWZcCbYtJubj"], "asm": "OP_DUP OP_HASH160 d2ed184a1c73669e3252cbf26a1c8c3c29b885e1 OP_EQUALVERIFY OP_CHECKSIG", "type": "pubkeyhash"}, "value": 0.28594556, "n": 1}], "hex": "0200000001f24c5bd816e6ccea054d0a3c4d11aa6c3a5fd5f50235d96e8f281b6675ade3ff010000006a47304402205b6d8bca25465d91a38a838f22b3cf39d2d85298ecd66b3c1f9b52c3255daf24022071675802b34f336e8687614eefae32718d29e7db2dc2bfd524782ec1c54d9d57012102d7f6ef95788231d1131282b62ee6e23d7663df32756dc18a03fbdb075c04cdd3ffffffff0255620200000000001976a914126a8bd41dbe634bf7cd1342045f96c512ae0fea88ac7c51b401000000001976a914d2ed184a1c73669e3252cbf26a1c8c3c29b885e188ac00000000", "vin": [{"sequence": 4294967295, "scriptSig": {"hex": "47304402205b6d8bca25465d91a38a838f22b3cf39d2d85298ecd66b3c1f9b52c3255daf24022071675802b34f336e8687614eefae32718d29e7db2dc2bfd524782ec1c54d9d57012102d7f6ef95788231d1131282b62ee6e23d7663df32756dc18a03fbdb075c04cdd3", "asm": "304402205b6d8bca25465d91a38a838f22b3cf39d2d85298ecd66b3c1f9b52c3255daf24022071675802b34f336e8687614eefae32718d29e7db2dc2bfd524782ec1c54d9d57[ALL] 02d7f6ef95788231d1131282b62ee6e23d7663df32756dc18a03fbdb075c04cdd3"}, "vout": 1, "txid": "ffe3ad75661b288f6ed93502f5d55f3a6caa114d3c0a4d05eacce616d85b4cf2"}], "txid": "fd1c06704770094848a996a99182faf8a815192b83bea35d36085492fb4001fc", "blocktime": 1537870268, "version": 2, "confirmations": 11516, "time": 1537870268, "locktime": 0, "vsize": 225, "size": 225}