{"hash": "fd1e2f863f1845f1d2765e2fe1ea3a88fd5343b5f3d56f189696c96ea2ea5a03", "blockhash": "0000000000000000000e13cef7c366c0283d82e591d1acd082e914b08063cdf1", "vout": [{"scriptPubKey": {"type": "nulldata", "hex": "6a4c50000077a20001724455df2a838b0683ae37e8af6c953dd567cf27e7e3ef3236678a625097a3030b8025379696c9fb6f4f6c68466e5baa0e8d0614adbfbdeec81dbc9a9526289ac0f6612cd74e33776ee4", "asm": "OP_RETURN 000077a20001724455df2a838b0683ae37e8af6c953dd567cf27e7e3ef3236678a625097a3030b8025379696c9fb6f4f6c68466e5baa0e8d0614adbfbdeec81dbc9a9526289ac0f6612cd74e33776ee4"}, "value": 0.0, "n": 0}, {"scriptPubKey": {"reqSigs": 1, "hex": "76a914eb4e7074c3c461f33dedec213803a3012ddeda6488ac", "addresses": ["1NTBm8wpf3AqsMnhbUhRNmh9WyFb39RbCt"], "asm": "OP_DUP OP_HASH160 eb4e7074c3c461f33dedec213803a3012ddeda64 OP_EQUALVERIFY OP_CHECKSIG", "type": "pubkeyhash"}, "value": 0.00145044, "n": 1}], "hex": "010000000157b6ff4114c2b3ae115340d777f9f16867716e3facb9a542290a40a6ee12735b010000006a473044022077f2965e8c4768eb34cff60a7e95ccb7efb5d0afc842ea29f96a2dfe71c1059202207166b7c6b272ba9dacd38989b4147f76a51865ed6b7198e8ac2bbfe7d87dedda012103eefab67ae9815831270fb67baebddd3abfeab573a5a137059489d3d9972d99f6ffffffff020000000000000000536a4c50000077a20001724455df2a838b0683ae37e8af6c953dd567cf27e7e3ef3236678a625097a3030b8025379696c9fb6f4f6c68466e5baa0e8d0614adbfbdeec81dbc9a9526289ac0f6612cd74e33776ee494360200000000001976a914eb4e7074c3c461f33dedec213803a3012ddeda6488ac00000000", "vin": [{"sequence": 4294967295, "scriptSig": {"hex": "473044022077f2965e8c4768eb34cff60a7e95ccb7efb5d0afc842ea29f96a2dfe71c1059202207166b7c6b272ba9dacd38989b4147f76a51865ed6b7198e8ac2bbfe7d87dedda012103eefab67ae9815831270fb67baebddd3abfeab573a5a137059489d3d9972d99f6", "asm": "3044022077f2965e8c4768eb34cff60a7e95ccb7efb5d0afc842ea29f96a2dfe71c1059202207166b7c6b272ba9dacd38989b4147f76a51865ed6b7198e8ac2bbfe7d87dedda[ALL] 03eefab67ae9815831270fb67baebddd3abfeab573a5a137059489d3d9972d99f6"}, "vout": 1, "txid": "5b7312eea6400a2942a5b9ac3f6e716768f1f977d7405311aeb3c21441ffb657"}], "txid": "fd1e2f863f1845f1d2765e2fe1ea3a88fd5343b5f3d56f189696c96ea2ea5a03", "blocktime": 1537871767, "version": 1, "confirmations": 11493, "time": 1537871767, "locktime": 0, "vsize": 283, "size": 283}