{"hash": "fd1f6e826e070f4a0e6e0d7aa61d15a25df2cf4d6c3fbc52e98dff59dd9baf96", "blockhash": "0000000000000000000baef3f32e3676a92c3b2e5da21b426e4f302fc371ce76", "vout": [{"scriptPubKey": {"reqSigs": 1, "hex": "76a91435c4a72197212097c94c839d5fc1e59c908c53c588ac", "addresses": ["15uJPr8LUFj2r3r3gdLxNLQfHHRVrrwkvA"], "asm": "OP_DUP OP_HASH160 35c4a72197212097c94c839d5fc1e59c908c53c5 OP_EQUALVERIFY OP_CHECKSIG", "type": "pubkeyhash"}, "value": 0.00725653, "n": 0}], "hex": "01000000032ab6ef45798bff2ebe19b51c8c1a8ef44cd8db4c68d335247b24010182f71f4c000000006b483045022100ac69808c9d1008f94b6690fd05fda4529281af010469e128f74f80ba5c52d87c02207b2152132971ee740207c592fbadb4eb26d122962ce4f37a8772d482382f765b012103fab947f3c0e493641fecb15e883f8c79b45779747292ca476854c4c9c9424d4cffffffff09740490a60605254edffed0552ae49ac8f82820c5af99adc33cbd60e355255f000000006a47304402207fb0755f33d033a37fd72926dde609cf46fc80353c15887e0d94632a9f15db7c02204e0572927535fb0e9cbfe6f9cb8d31e163c49b723a6ec092d0ebdd75a1699979012102678d078a54e5830650a7e42592eba1ded9e1faddb7b518b6b1e569397a665126fffffffff9e75ef27c24e89264035d5478538332d50ffcac23de04c583bc33b89e48ce8e000000006b483045022100fa59fda65c1c7dbe9be9b16175aa364d6b3334d3888602afa9f1f47ae6ec2fac022078ffb0b086b43a5bdb384a5c7ae9bd8ccbe98b30c1c7072b670cc5daba69e62f012102f154249fa782739cca14b693f4b430b16ede1e7065e8153ee07735108ee434f1ffffffff0195120b00000000001976a91435c4a72197212097c94c839d5fc1e59c908c53c588ac00000000", "vin": [{"sequence": 4294967295, "scriptSig": {"hex": "483045022100ac69808c9d1008f94b6690fd05fda4529281af010469e128f74f80ba5c52d87c02207b2152132971ee740207c592fbadb4eb26d122962ce4f37a8772d482382f765b012103fab947f3c0e493641fecb15e883f8c79b45779747292ca476854c4c9c9424d4c", "asm": "3045022100ac69808c9d1008f94b6690fd05fda4529281af010469e128f74f80ba5c52d87c02207b2152132971ee740207c592fbadb4eb26d122962ce4f37a8772d482382f765b[ALL] 03fab947f3c0e493641fecb15e883f8c79b45779747292ca476854c4c9c9424d4c"}, "vout": 0, "txid": "4c1ff7820101247b2435d3684cdbd84cf48e1a8c1cb519be2eff8b7945efb62a"}, {"sequence": 4294967295, "scriptSig": {"hex": "47304402207fb0755f33d033a37fd72926dde609cf46fc80353c15887e0d94632a9f15db7c02204e0572927535fb0e9cbfe6f9cb8d31e163c49b723a6ec092d0ebdd75a1699979012102678d078a54e5830650a7e42592eba1ded9e1faddb7b518b6b1e569397a665126", "asm": "304402207fb0755f33d033a37fd72926dde609cf46fc80353c15887e0d94632a9f15db7c02204e0572927535fb0e9cbfe6f9cb8d31e163c49b723a6ec092d0ebdd75a1699979[ALL] 02678d078a54e5830650a7e42592eba1ded9e1faddb7b518b6b1e569397a665126"}, "vout": 0, "txid": "5f2555e360bd3cc3ad99afc52028f8c89ae42a55d0fedf4e250506a690047409"}, {"sequence": 4294967295, "scriptSig": {"hex": "483045022100fa59fda65c1c7dbe9be9b16175aa364d6b3334d3888602afa9f1f47ae6ec2fac022078ffb0b086b43a5bdb384a5c7ae9bd8ccbe98b30c1c7072b670cc5daba69e62f012102f154249fa782739cca14b693f4b430b16ede1e7065e8153ee07735108ee434f1", "asm": "3045022100fa59fda65c1c7dbe9be9b16175aa364d6b3334d3888602afa9f1f47ae6ec2fac022078ffb0b086b43a5bdb384a5c7ae9bd8ccbe98b30c1c7072b670cc5daba69e62f[ALL] 02f154249fa782739cca14b693f4b430b16ede1e7065e8153ee07735108ee434f1"}, "vout": 0, "txid": "8ece489eb833bc83c504de23acfc0fd532835378545d036492e8247cf25ee7f9"}], "txid": "fd1f6e826e070f4a0e6e0d7aa61d15a25df2cf4d6c3fbc52e98dff59dd9baf96", "blocktime": 1537876114, "version": 1, "confirmations": 11460, "time": 1537876114, "locktime": 0, "vsize": 487, "size": 487}