{"hash": "fd1f8c9862e100300f3c331fe14f2f2b99c184c61d027ea7ce07a7cf33feb15f", "blockhash": "00000000000000000017f5eb5941039fbcee6240d03bc1f2f8e35350df66a1d8", "vout": [{"scriptPubKey": {"reqSigs": 1, "hex": "a914c712c020415dbbefc4c3769c97696fc75cf38b7487", "addresses": ["3KqcrXQVxF4Hh8N41C1iQe44T8Fb15JAHw"], "asm": "OP_HASH160 c712c020415dbbefc4c3769c97696fc75cf38b74 OP_EQUAL", "type": "scripthash"}, "value": 0.002, "n": 0}, {"scriptPubKey": {"reqSigs": 1, "hex": "76a914a260304b819e6f21472e96654cb85cbc93e9978088ac", "addresses": ["1FoZhP7WPAyo614qa8TuaKqDTGiYbHmHhk"], "asm": "OP_DUP OP_HASH160 a260304b819e6f21472e96654cb85cbc93e99780 OP_EQUALVERIFY OP_CHECKSIG", "type": "pubkeyhash"}, "value": 0.0048615, "n": 1}], "hex": "01000000010f2289872852649c7b52ea59b3d274caa848e2060d64fca2f99c8088f81821ae010000006b483045022100861aa561ebb2c61dd339de6b7ac79d62c1ad90d7c63ca58d355aa508cb21e8ad02207e3bbe458a381bd7f055bd8742073496d7be17f172077fd89656a68d49ce6901012103143388b4efc99db07cc92efdf53dc059cfd904c8446861806ae8b00f6b451335ffffffff02400d03000000000017a914c712c020415dbbefc4c3769c97696fc75cf38b7487066b0700000000001976a914a260304b819e6f21472e96654cb85cbc93e9978088ac00000000", "vin": [{"sequence": 4294967295, "scriptSig": {"hex": "483045022100861aa561ebb2c61dd339de6b7ac79d62c1ad90d7c63ca58d355aa508cb21e8ad02207e3bbe458a381bd7f055bd8742073496d7be17f172077fd89656a68d49ce6901012103143388b4efc99db07cc92efdf53dc059cfd904c8446861806ae8b00f6b451335", "asm": "3045022100861aa561ebb2c61dd339de6b7ac79d62c1ad90d7c63ca58d355aa508cb21e8ad02207e3bbe458a381bd7f055bd8742073496d7be17f172077fd89656a68d49ce6901[ALL] 03143388b4efc99db07cc92efdf53dc059cfd904c8446861806ae8b00f6b451335"}, "vout": 1, "txid": "ae2118f888809cf9a2fc640d06e248a8ca74d2b359ea527b9c6452288789220f"}], "txid": "fd1f8c9862e100300f3c331fe14f2f2b99c184c61d027ea7ce07a7cf33feb15f", "blocktime": 1537874412, "version": 1, "confirmations": 11468, "time": 1537874412, "locktime": 0, "vsize": 224, "size": 224}