{"hash": "fd22245381787f57b9952a8c4089045c117c7ad9265897651c49ef92324f96ef", "blockhash": "00000000000000000004ffacab907a6b429b9a5745fa0b75af4234bf69dd7176", "vout": [{"scriptPubKey": {"reqSigs": 1, "hex": "76a9144b51533c15a8fc134343ed1c8a56c48cdca0046a88ac", "addresses": ["17sF6xVYjEPHsEVq8rFQqDtW33GyGyDD5x"], "asm": "OP_DUP OP_HASH160 4b51533c15a8fc134343ed1c8a56c48cdca0046a OP_EQUALVERIFY OP_CHECKSIG", "type": "pubkeyhash"}, "value": 0.02716029, "n": 0}, {"scriptPubKey": {"reqSigs": 1, "hex": "76a914b2a83b139212fd2c40eb1a6e365f0f1482adc75088ac", "addresses": ["1HHep2RFojsacn2w4UcbdaibDaG3c1trWf"], "asm": "OP_DUP OP_HASH160 b2a83b139212fd2c40eb1a6e365f0f1482adc750 OP_EQUALVERIFY OP_CHECKSIG", "type": "pubkeyhash"}, "value": 0.31275655, "n": 1}], "hex": "010000000207557df221d0ef8fe516e073325aee1c7e9210c88c76b5536968f0b11492a75a120000006b483045022100f5b9b28f9b611175d6e38ad744ebeafb14541f97a284914fe67faf24e69ce3e802200b6574362fd6b1d1ce2137ba0c2a9c0c5f01dcc20e5f838b6c0ec538211b2019012103846e6aa94c0e7b42926edac15344b00b9b3f420a7b14ecbd3d3e1d7e9dbd4586ffffffffa3fdeeabeff319f3510444903490276ad3e9f19b0c6d944c7484e42ebdb63ac6010000006b48304502210097826294c1f027191d772357fc44e594fd09b89e58e2fa64204d23369dd7a31a02204a887f6aa0e396a1eea2b870422b917059ca0931fae33389cfd67132530c4064012103846e6aa94c0e7b42926edac15344b00b9b3f420a7b14ecbd3d3e1d7e9dbd4586ffffffff027d712900000000001976a9144b51533c15a8fc134343ed1c8a56c48cdca0046a88ac873add01000000001976a914b2a83b139212fd2c40eb1a6e365f0f1482adc75088ac00000000", "vin": [{"sequence": 4294967295, "scriptSig": {"hex": "483045022100f5b9b28f9b611175d6e38ad744ebeafb14541f97a284914fe67faf24e69ce3e802200b6574362fd6b1d1ce2137ba0c2a9c0c5f01dcc20e5f838b6c0ec538211b2019012103846e6aa94c0e7b42926edac15344b00b9b3f420a7b14ecbd3d3e1d7e9dbd4586", "asm": "3045022100f5b9b28f9b611175d6e38ad744ebeafb14541f97a284914fe67faf24e69ce3e802200b6574362fd6b1d1ce2137ba0c2a9c0c5f01dcc20e5f838b6c0ec538211b2019[ALL] 03846e6aa94c0e7b42926edac15344b00b9b3f420a7b14ecbd3d3e1d7e9dbd4586"}, "vout": 18, "txid": "5aa79214b1f0686953b5768cc810927e1cee5a3273e016e58fefd021f27d5507"}, {"sequence": 4294967295, "scriptSig": {"hex": "48304502210097826294c1f027191d772357fc44e594fd09b89e58e2fa64204d23369dd7a31a02204a887f6aa0e396a1eea2b870422b917059ca0931fae33389cfd67132530c4064012103846e6aa94c0e7b42926edac15344b00b9b3f420a7b14ecbd3d3e1d7e9dbd4586", "asm": "304502210097826294c1f027191d772357fc44e594fd09b89e58e2fa64204d23369dd7a31a02204a887f6aa0e396a1eea2b870422b917059ca0931fae33389cfd67132530c4064[ALL] 03846e6aa94c0e7b42926edac15344b00b9b3f420a7b14ecbd3d3e1d7e9dbd4586"}, "vout": 1, "txid": "c63ab6bd2ee484744c946d0c9bf1e9d36a27903490440451f319f3efabeefda3"}], "txid": "fd22245381787f57b9952a8c4089045c117c7ad9265897651c49ef92324f96ef", "blocktime": 1537875543, "version": 1, "confirmations": 11464, "time": 1537875543, "locktime": 0, "vsize": 374, "size": 374}