{"hash": "fd238f19d00c81eb028a64e46c8dd19a03bd84a4a92b1f0f301b787e0ea9c74b", "blockhash": "0000000000000000000e13cef7c366c0283d82e591d1acd082e914b08063cdf1", "vout": [{"scriptPubKey": {"reqSigs": 1, "hex": "76a914cb2e47aac1c1e72a5fbc06a55d1a8cf6ac141e5f88ac", "addresses": ["1KXKcXfy84Rri9EoqkgX3G2wz76PQNCF2T"], "asm": "OP_DUP OP_HASH160 cb2e47aac1c1e72a5fbc06a55d1a8cf6ac141e5f OP_EQUALVERIFY OP_CHECKSIG", "type": "pubkeyhash"}, "value": 0.00122351, "n": 0}, {"scriptPubKey": {"reqSigs": 1, "hex": "76a91437c8155ea7f9ebd02afc8393b68f86628f0e4d4088ac", "addresses": ["165wrbU9QiRqhLPpThCfhjfYpWTgPKGSer"], "asm": "OP_DUP OP_HASH160 37c8155ea7f9ebd02afc8393b68f86628f0e4d40 OP_EQUALVERIFY OP_CHECKSIG", "type": "pubkeyhash"}, "value": 0.12405799, "n": 1}], "hex": "01000000010dd44121706fd5af236ec4e18d3534ff3fd06ba4475aebaccc4898ba1c36f5f1010000006b48304502210086fe9221cff9de36b1e8fe893541543b439a8a94cd015e1403b03fc44aff8aaa0220200d7560b6bf817025f857ca12811da74c7e1297cded53cb56b60ddb156a22d50121024ca1373a89afd09bf9c6a70612e4cf62de7aaa91b25630c983b9ddbbf6cc2138ffffffff02efdd0100000000001976a914cb2e47aac1c1e72a5fbc06a55d1a8cf6ac141e5f88ac274cbd00000000001976a91437c8155ea7f9ebd02afc8393b68f86628f0e4d4088ac00000000", "vin": [{"sequence": 4294967295, "scriptSig": {"hex": "48304502210086fe9221cff9de36b1e8fe893541543b439a8a94cd015e1403b03fc44aff8aaa0220200d7560b6bf817025f857ca12811da74c7e1297cded53cb56b60ddb156a22d50121024ca1373a89afd09bf9c6a70612e4cf62de7aaa91b25630c983b9ddbbf6cc2138", "asm": "304502210086fe9221cff9de36b1e8fe893541543b439a8a94cd015e1403b03fc44aff8aaa0220200d7560b6bf817025f857ca12811da74c7e1297cded53cb56b60ddb156a22d5[ALL] 024ca1373a89afd09bf9c6a70612e4cf62de7aaa91b25630c983b9ddbbf6cc2138"}, "vout": 1, "txid": "f1f5361cba9848ccaceb5a47a46bd03fff34358de1c46e23afd56f702141d40d"}], "txid": "fd238f19d00c81eb028a64e46c8dd19a03bd84a4a92b1f0f301b787e0ea9c74b", "blocktime": 1537871767, "version": 1, "confirmations": 11495, "time": 1537871767, "locktime": 0, "vsize": 226, "size": 226}