{"hash": "fd243263fbe4ec5b87701b57efeffe65636b1777cd22fc2e80e0fca206c4d0d8", "blockhash": "00000000000000000018f53835495a110e01622372bf6ae95dc86f2b0ab887b0", "vout": [{"scriptPubKey": {"reqSigs": 1, "hex": "76a914dd736d4b665c6edc96f53738f69d7f520a1a74ab88ac", "addresses": ["1MBvcQ72Dh9L4bm8zSMq9eyUPZ847NA7p8"], "asm": "OP_DUP OP_HASH160 dd736d4b665c6edc96f53738f69d7f520a1a74ab OP_EQUALVERIFY OP_CHECKSIG", "type": "pubkeyhash"}, "value": 0.00645587, "n": 0}, {"scriptPubKey": {"type": "nulldata", "hex": "6a4c500000778200015aa091b580448882568b364dbcbefa6b8351586b4e86aeaeacb577c031fc00b8ec07956fbef6f6fdb23a1c7eddd85baa0b03061403b1747f0a3a1d100759d4ba30d2c37bb011d97e02cf", "asm": "OP_RETURN 0000778200015aa091b580448882568b364dbcbefa6b8351586b4e86aeaeacb577c031fc00b8ec07956fbef6f6fdb23a1c7eddd85baa0b03061403b1747f0a3a1d100759d4ba30d2c37bb011d97e02cf"}, "value": 0.0, "n": 1}], "hex": "01000000015b65d393fae9e6a4594a06c4018a0e1e2b78d0553baf33cda89fda794112168e000000006a4730440220614143d3c93e7c1116447d8299a1885aed017387648bb74376cc2af625481f0d0220065f7d8767d777ed0d37534d47c42ee23fe3b5f2f9917e8b32e8aa190311d8130121037c8863a9650300516d81a9ba151b97df932e9f349ac12b632c9c18af74746affffffffff02d3d90900000000001976a914dd736d4b665c6edc96f53738f69d7f520a1a74ab88ac0000000000000000536a4c500000778200015aa091b580448882568b364dbcbefa6b8351586b4e86aeaeacb577c031fc00b8ec07956fbef6f6fdb23a1c7eddd85baa0b03061403b1747f0a3a1d100759d4ba30d2c37bb011d97e02cf00000000", "vin": [{"sequence": 4294967295, "scriptSig": {"hex": "4730440220614143d3c93e7c1116447d8299a1885aed017387648bb74376cc2af625481f0d0220065f7d8767d777ed0d37534d47c42ee23fe3b5f2f9917e8b32e8aa190311d8130121037c8863a9650300516d81a9ba151b97df932e9f349ac12b632c9c18af74746aff", "asm": "30440220614143d3c93e7c1116447d8299a1885aed017387648bb74376cc2af625481f0d0220065f7d8767d777ed0d37534d47c42ee23fe3b5f2f9917e8b32e8aa190311d813[ALL] 037c8863a9650300516d81a9ba151b97df932e9f349ac12b632c9c18af74746aff"}, "vout": 0, "txid": "8e16124179da9fa8cd33af3b55d0782b1e0e8a01c4064a59a4e6e9fa93d3655b"}], "txid": "fd243263fbe4ec5b87701b57efeffe65636b1777cd22fc2e80e0fca206c4d0d8", "blocktime": 1537870928, "version": 1, "confirmations": 11512, "time": 1537870928, "locktime": 0, "vsize": 283, "size": 283}