{"hash": "fd24212f2b82a9f9fac1793cd5569dc50c098172f0a753380cfa7ba719e7ad41", "blockhash": "0000000000000000001cda96e906b7601b7a6fb1a3b62bca570a9e5d8f4b3de1", "vout": [{"scriptPubKey": {"reqSigs": 1, "hex": "76a914e69e7603ee8ee58c7a5effd4592cf8f8d7bc5b6f88ac", "addresses": ["1N2QFBgPPWRf8fEC1Whxn3uH1pusnqXCu2"], "asm": "OP_DUP OP_HASH160 e69e7603ee8ee58c7a5effd4592cf8f8d7bc5b6f OP_EQUALVERIFY OP_CHECKSIG", "type": "pubkeyhash"}, "value": 0.0098, "n": 0}, {"scriptPubKey": {"type": "nulldata", "hex": "6a146f6d6e69000000000000001f00000004fd309a10", "asm": "OP_RETURN 6f6d6e69000000000000001f00000004fd309a10"}, "value": 0.0, "n": 1}, {"scriptPubKey": {"reqSigs": 1, "hex": "76a914f78607522d0dd64fed2e356da114b378316ae45588ac", "addresses": ["1PZnTrSGFR4XBx1frxYFAaXG5AjKChrmMG"], "asm": "OP_DUP OP_HASH160 f78607522d0dd64fed2e356da114b378316ae455 OP_EQUALVERIFY OP_CHECKSIG", "type": "pubkeyhash"}, "value": 5.46e-06, "n": 2}], "hex": "0100000002d11b928f1412eb5e2a9bd42d6e36239c00170d1bc5823ca6f6a5aa1f2dfb979f010000006b483045022100cbc871f2835443aab1b88ce86563863429bb9e36d5f01ebcdf33fb3106f8372c022066749926bc1f9b50261839b86ca8c47058961e9ff0549b3b85db581e62b420cd0121030db400961de11df2f284a39a805279ca6a466089798e1e8629e41a25d37474cdffffffffb4b79f67d8acdaa9bce78f80e86d64e48948a6532cecc8f424e9f0715f455382000000006b483045022100da473e3775d3f1378a0ff5d8e08845b00a3d3347ddc4e092e52603eba1462e67022020c19b91d78ade7b3ec2cfb39e03312d6c2a61ee4b1604a8a723144ad81eab5f012102ab32aefb9861596d7e16a02a3fd89980c8ad37c9341a0b373e7800fe725cef59ffffffff0320f40e00000000001976a914e69e7603ee8ee58c7a5effd4592cf8f8d7bc5b6f88ac0000000000000000166a146f6d6e69000000000000001f00000004fd309a1022020000000000001976a914f78607522d0dd64fed2e356da114b378316ae45588ac00000000", "vin": [{"sequence": 4294967295, "scriptSig": {"hex": "483045022100cbc871f2835443aab1b88ce86563863429bb9e36d5f01ebcdf33fb3106f8372c022066749926bc1f9b50261839b86ca8c47058961e9ff0549b3b85db581e62b420cd0121030db400961de11df2f284a39a805279ca6a466089798e1e8629e41a25d37474cd", "asm": "3045022100cbc871f2835443aab1b88ce86563863429bb9e36d5f01ebcdf33fb3106f8372c022066749926bc1f9b50261839b86ca8c47058961e9ff0549b3b85db581e62b420cd[ALL] 030db400961de11df2f284a39a805279ca6a466089798e1e8629e41a25d37474cd"}, "vout": 1, "txid": "9f97fb2d1faaa5f6a63c82c51b0d17009c23366e2dd49b2a5eeb12148f921bd1"}, {"sequence": 4294967295, "scriptSig": {"hex": "483045022100da473e3775d3f1378a0ff5d8e08845b00a3d3347ddc4e092e52603eba1462e67022020c19b91d78ade7b3ec2cfb39e03312d6c2a61ee4b1604a8a723144ad81eab5f012102ab32aefb9861596d7e16a02a3fd89980c8ad37c9341a0b373e7800fe725cef59", "asm": "3045022100da473e3775d3f1378a0ff5d8e08845b00a3d3347ddc4e092e52603eba1462e67022020c19b91d78ade7b3ec2cfb39e03312d6c2a61ee4b1604a8a723144ad81eab5f[ALL] 02ab32aefb9861596d7e16a02a3fd89980c8ad37c9341a0b373e7800fe725cef59"}, "vout": 0, "txid": "8253455f71f0e924f4c8ec2c53a64889e4646de8808fe7bca9daacd8679fb7b4"}], "txid": "fd24212f2b82a9f9fac1793cd5569dc50c098172f0a753380cfa7ba719e7ad41", "blocktime": 1537873282, "version": 1, "confirmations": 11480, "time": 1537873282, "locktime": 0, "vsize": 405, "size": 405}