{"hash": "35f2b30ce5e913d007fe4ca88a6f906fa37341187b92bf41275299abe6891de8", "blockhash": "00000000000000000024a2167bbff67b0be802c0b01cdd79e6331c2be6459f87", "vout": [{"scriptPubKey": {"reqSigs": 1, "hex": "76a914d57a7c37da47c746f60e4f548a924da62ded941788ac", "addresses": ["1LTmfHPtXvpmrnK8ASyU3acn5FAcxZcXvx"], "asm": "OP_DUP OP_HASH160 d57a7c37da47c746f60e4f548a924da62ded9417 OP_EQUALVERIFY OP_CHECKSIG", "type": "pubkeyhash"}, "value": 0.0154282, "n": 0}, {"scriptPubKey": {"reqSigs": 1, "hex": "a914be3957e8ee0ad9fe0220e23acef36ea1fbbdc46787", "addresses": ["3K2q1HESaexPNyE8EbVvyRrRNg1mmJupqF"], "asm": "OP_HASH160 be3957e8ee0ad9fe0220e23acef36ea1fbbdc467 OP_EQUAL", "type": "scripthash"}, "value": 0.01203051, "n": 1}, {"scriptPubKey": {"reqSigs": 1, "hex": "a914abb3ade49b19fc22e1f958c6143ef1a1ab112d8b87", "addresses": ["3HLtigU2iWLXWiAr7hLbsg8UoK9bGWANef"], "asm": "OP_HASH160 abb3ade49b19fc22e1f958c6143ef1a1ab112d8b OP_EQUAL", "type": "scripthash"}, "value": 0.023102, "n": 2}, {"scriptPubKey": {"reqSigs": 1, "hex": "76a9140a7152c7e9c383243cc1209287da42a9bc7367b488ac", "addresses": ["1xDWmHkEctw6SyrFsfVicRCQkv3wtyTLW"], "asm": "OP_DUP OP_HASH160 0a7152c7e9c383243cc1209287da42a9bc7367b4 OP_EQUALVERIFY OP_CHECKSIG", "type": "pubkeyhash"}, "value": 0.000114, "n": 3}, {"scriptPubKey": {"reqSigs": 1, "hex": "a914b8a9a8ba8cf965b7df6b05afd948e53c351b2c0d87", "addresses": ["3JXRVxhrk2o9f4w3cQchBLwUeegJBj6BEp"], "asm": "OP_HASH160 b8a9a8ba8cf965b7df6b05afd948e53c351b2c0d OP_EQUAL", "type": "scripthash"}, "value": 0.82339885, "n": 4}], "hex": "010000000001016a58f80d4c0476be1bc8704d7cf41cd3bed7ab0d3d0fb0a36611d0abb092cfa8020000002322002065d416c48a8072e0ac51c2d111eb194f009caef0332446c1bf2097316cf07fa9ffffffff05a48a1700000000001976a914d57a7c37da47c746f60e4f548a924da62ded941788ac6b5b12000000000017a914be3957e8ee0ad9fe0220e23acef36ea1fbbdc46787384023000000000017a914abb3ade49b19fc22e1f958c6143ef1a1ab112d8b87882c0000000000001976a9140a7152c7e9c383243cc1209287da42a9bc7367b488ac2d68e8040000000017a914b8a9a8ba8cf965b7df6b05afd948e53c351b2c0d870400473044022002e787981c266e652df30fb717136a8a2d628986ccee323bb26f9f06427a295902207b545dd1fad699644293537e9462ceb1ecb5aef854683d307a638b9807449e9501483045022100ec14a6ff397c0df88303a190fc807cfd410fc5031e413a78b98358eb44e03aa602207c1817db0b8eac332d2d2b567bb2f90c201156ab1fa6c1cc24fbe17a671c3f6f0169522102f44abcf9e23c9a460da309ccca56c619c04eed3bde2c2cff5e7d78fbcd980b9c2103c9443cf3047bb6c2c82f1b0c44c36109cdc3d0d601d16d1189a1602bf8d1a0a02103bfe867059274412412e088af5572b92168c2ef495cfe6c9b7a753a009eb37c4853ae00000000", "vin": [{"txinwitness": ["", "3044022002e787981c266e652df30fb717136a8a2d628986ccee323bb26f9f06427a295902207b545dd1fad699644293537e9462ceb1ecb5aef854683d307a638b9807449e9501", "3045022100ec14a6ff397c0df88303a190fc807cfd410fc5031e413a78b98358eb44e03aa602207c1817db0b8eac332d2d2b567bb2f90c201156ab1fa6c1cc24fbe17a671c3f6f01", "522102f44abcf9e23c9a460da309ccca56c619c04eed3bde2c2cff5e7d78fbcd980b9c2103c9443cf3047bb6c2c82f1b0c44c36109cdc3d0d601d16d1189a1602bf8d1a0a02103bfe867059274412412e088af5572b92168c2ef495cfe6c9b7a753a009eb37c4853ae"], "sequence": 4294967295, "scriptSig": {"hex": "22002065d416c48a8072e0ac51c2d111eb194f009caef0332446c1bf2097316cf07fa9", "asm": "002065d416c48a8072e0ac51c2d111eb194f009caef0332446c1bf2097316cf07fa9"}, "vout": 2, "txid": "a8cf92b0abd01166a3b00f3d0dabd7bed31cf47c4d70c81bbe76044c0df8586a"}], "txid": "fd25eab419601ac4010752da89d1118e21b5f4d644f986efa0f9fc094f89b572", "blocktime": 1537870564, "version": 1, "confirmations": 11515, "time": 1537870564, "locktime": 0, "vsize": 314, "size": 505}