{"hash": "fd27c403e7a7891eab3f3b0d0b6f515363ca8f5113f9baf0280db9b55402c756", "blockhash": "0000000000000000001cda96e906b7601b7a6fb1a3b62bca570a9e5d8f4b3de1", "vout": [{"scriptPubKey": {"reqSigs": 1, "hex": "76a914f110f3ec1401d222998afe282a1b7d53f6a1cdee88ac", "addresses": ["1NyeA8m48tuZtb8t35vVn2jHrYeh3qF4bE"], "asm": "OP_DUP OP_HASH160 f110f3ec1401d222998afe282a1b7d53f6a1cdee OP_EQUALVERIFY OP_CHECKSIG", "type": "pubkeyhash"}, "value": 0.11213201, "n": 0}, {"scriptPubKey": {"reqSigs": 1, "hex": "76a914e8a0205e9a7dac09f3f5bdad63e291be0b11a27488ac", "addresses": ["1ND1bHXkLtUjvw4as31paw4Ei7tEccSchH"], "asm": "OP_DUP OP_HASH160 e8a0205e9a7dac09f3f5bdad63e291be0b11a274 OP_EQUALVERIFY OP_CHECKSIG", "type": "pubkeyhash"}, "value": 0.1745, "n": 1}], "hex": "0100000003adcbc24020cf0742e9a4ae3d5d33f80cdeb195abd153cb58cbaac99291aa7640000000006b483045022100aa821cf32d9c6d5e869d5c698e4087445a661db2800ce149c42f87736e2af1b402204bdc462ef918e0db37b863df2eef7936c6763ab1e667f2cd44d6abe674c7ce76012103737aaa7d3da068351444133d361654dcff3631a6da7de1b33737eb869f512f76ffffffff89d7f3c0e26a922292b130d8e0681393949fe4161b78e8d567cbbacea076ed60010000006a473044022064c89c872015f19c8d5c3aa7ba954f8757f7cfbc4b8b94b8fd40012bd23877e1022075f4f78959e7ec51d8f3fa274f7d5a5feac126d493b156458198898991734338012102887e35b6b4046e3d260e53e65470ad06468d36b13b6b0023416e72f88a5eaefcffffffff7f1c93dd798314eeb7e77ec66a2910c900599802b17f1f83f72e2ca98c1ee3e1010000006b483045022100934f5745855dcefbe7a628544e8337dde6a2d18bfce41ae8f78ef831086a21fd02204e7064691ca09ce2509a5f2c365f042f3b55c706087d4df2bf3af2452048f2910121028043559b74a36195864f8b7a839a27b6bd165890fb2e47bec342aacfc58e147cffffffff029119ab00000000001976a914f110f3ec1401d222998afe282a1b7d53f6a1cdee88ac10440a01000000001976a914e8a0205e9a7dac09f3f5bdad63e291be0b11a27488ac00000000", "vin": [{"sequence": 4294967295, "scriptSig": {"hex": "483045022100aa821cf32d9c6d5e869d5c698e4087445a661db2800ce149c42f87736e2af1b402204bdc462ef918e0db37b863df2eef7936c6763ab1e667f2cd44d6abe674c7ce76012103737aaa7d3da068351444133d361654dcff3631a6da7de1b33737eb869f512f76", "asm": "3045022100aa821cf32d9c6d5e869d5c698e4087445a661db2800ce149c42f87736e2af1b402204bdc462ef918e0db37b863df2eef7936c6763ab1e667f2cd44d6abe674c7ce76[ALL] 03737aaa7d3da068351444133d361654dcff3631a6da7de1b33737eb869f512f76"}, "vout": 0, "txid": "4076aa9192c9aacb58cb53d1ab95b1de0cf8335d3daea4e94207cf2040c2cbad"}, {"sequence": 4294967295, "scriptSig": {"hex": "473044022064c89c872015f19c8d5c3aa7ba954f8757f7cfbc4b8b94b8fd40012bd23877e1022075f4f78959e7ec51d8f3fa274f7d5a5feac126d493b156458198898991734338012102887e35b6b4046e3d260e53e65470ad06468d36b13b6b0023416e72f88a5eaefc", "asm": "3044022064c89c872015f19c8d5c3aa7ba954f8757f7cfbc4b8b94b8fd40012bd23877e1022075f4f78959e7ec51d8f3fa274f7d5a5feac126d493b156458198898991734338[ALL] 02887e35b6b4046e3d260e53e65470ad06468d36b13b6b0023416e72f88a5eaefc"}, "vout": 1, "txid": "60ed76a0cebacb67d5e8781b16e49f94931368e0d830b19222926ae2c0f3d789"}, {"sequence": 4294967295, "scriptSig": {"hex": "483045022100934f5745855dcefbe7a628544e8337dde6a2d18bfce41ae8f78ef831086a21fd02204e7064691ca09ce2509a5f2c365f042f3b55c706087d4df2bf3af2452048f2910121028043559b74a36195864f8b7a839a27b6bd165890fb2e47bec342aacfc58e147c", "asm": "3045022100934f5745855dcefbe7a628544e8337dde6a2d18bfce41ae8f78ef831086a21fd02204e7064691ca09ce2509a5f2c365f042f3b55c706087d4df2bf3af2452048f291[ALL] 028043559b74a36195864f8b7a839a27b6bd165890fb2e47bec342aacfc58e147c"}, "vout": 1, "txid": "e1e31e8ca92c2ef7831f7fb102985900c910296ac67ee7b7ee148379dd931c7f"}], "txid": "fd27c403e7a7891eab3f3b0d0b6f515363ca8f5113f9baf0280db9b55402c756", "blocktime": 1537873282, "version": 1, "confirmations": 11485, "time": 1537873282, "locktime": 0, "vsize": 521, "size": 521}