{"hash": "2135e1c53bd28acceb174be89f3ffb6c1aad17d0349144d14b21191b67575ded", "blockhash": "0000000000000000000dcc0f55137456b1a82d3642486a52398922ac4d620174", "vout": [{"scriptPubKey": {"reqSigs": 1, "hex": "a914f3796626fbdfd76f32b0a75059bc6d48b39b3bf387", "addresses": ["3PtPZ7QHkTNNhTeDxFa6D365xTXy8ucDMT"], "asm": "OP_HASH160 f3796626fbdfd76f32b0a75059bc6d48b39b3bf3 OP_EQUAL", "type": "scripthash"}, "value": 0.00191, "n": 0}, {"scriptPubKey": {"reqSigs": 1, "hex": "001480a292de44d23ceff894edc932957e5b243b9261", "addresses": ["bc1qsz3f9hjy6g7wl7y5ahyn99t7tvjrhynpm6zz0j"], "asm": "0 80a292de44d23ceff894edc932957e5b243b9261", "type": "witness_v0_keyhash"}, "value": 2.014e-05, "n": 1}], "hex": "010000000001016aa20ec67cc8d982c717e50379cbddd1c077346b220fff43ca1f013b21a9496a0100000000ffffffff0218ea02000000000017a914f3796626fbdfd76f32b0a75059bc6d48b39b3bf387de0700000000000016001480a292de44d23ceff894edc932957e5b243b926102483045022100ccb06a1b2b7ea1226b8abf786190d17de73affe00cf29dc2eca3bba4c05912c9022025f06ab77ca0b88b8ffe2823932610c197108bb88b7b17d175d85e168c8b92bd012102de2ef74d23fc49cb6f6ee88d35159c17976a31e0a7184993b1dbf4e51edda06d00000000", "vin": [{"txinwitness": ["3045022100ccb06a1b2b7ea1226b8abf786190d17de73affe00cf29dc2eca3bba4c05912c9022025f06ab77ca0b88b8ffe2823932610c197108bb88b7b17d175d85e168c8b92bd01", "02de2ef74d23fc49cb6f6ee88d35159c17976a31e0a7184993b1dbf4e51edda06d"], "sequence": 4294967295, "scriptSig": {"hex": "", "asm": ""}, "vout": 1, "txid": "6a49a9213b011fca43ff0f226b3477c0d1ddcb7903e517c782d9c87cc60ea26a"}], "txid": "fd2d94c4a21e5781b548b10998b70ed4a393f8bb98e7a2e99ae1c8d5694a7185", "blocktime": 1537870268, "version": 1, "confirmations": 11518, "time": 1537870268, "locktime": 0, "vsize": 142, "size": 224}