{"hash": "fd2f15fa54b1e1a2d385efc67a7844403b7d77f447382c6e8c73661b4694759f", "blockhash": "0000000000000000000e13cef7c366c0283d82e591d1acd082e914b08063cdf1", "vout": [{"scriptPubKey": {"reqSigs": 1, "hex": "76a9149cfd1573e6c769dd88a74b39e46c11467930177f88ac", "addresses": ["1FK5bVnKiGFt2TyVwvqyQ9dYPDHX3asSBy"], "asm": "OP_DUP OP_HASH160 9cfd1573e6c769dd88a74b39e46c11467930177f OP_EQUALVERIFY OP_CHECKSIG", "type": "pubkeyhash"}, "value": 0.07187904, "n": 0}], "hex": "01000000018f5974b7f5c82fc91e11a7e2d8c8d58a02aad92cb6cc50932325ec25e67644b8010000006b483045022100d693e96c922449f7d0702c3b423d7dd2e9324093e0c01a1d7f0731a001bfc4ce0220476acafca86451a6fe0beeef3171b89df3c2c9a6e5141d2495afe91f52b1c1f5012102bd4f23e5717fa4407b5ffa1a78f7c17a191c2da6106c935b31e3f74fda0bb510ffffffff01c0ad6d00000000001976a9149cfd1573e6c769dd88a74b39e46c11467930177f88ac00000000", "vin": [{"sequence": 4294967295, "scriptSig": {"hex": "483045022100d693e96c922449f7d0702c3b423d7dd2e9324093e0c01a1d7f0731a001bfc4ce0220476acafca86451a6fe0beeef3171b89df3c2c9a6e5141d2495afe91f52b1c1f5012102bd4f23e5717fa4407b5ffa1a78f7c17a191c2da6106c935b31e3f74fda0bb510", "asm": "3045022100d693e96c922449f7d0702c3b423d7dd2e9324093e0c01a1d7f0731a001bfc4ce0220476acafca86451a6fe0beeef3171b89df3c2c9a6e5141d2495afe91f52b1c1f5[ALL] 02bd4f23e5717fa4407b5ffa1a78f7c17a191c2da6106c935b31e3f74fda0bb510"}, "vout": 1, "txid": "b84476e625ec25239350ccb62cd9aa028ad5c8d8e2a7111ec92fc8f5b774598f"}], "txid": "fd2f15fa54b1e1a2d385efc67a7844403b7d77f447382c6e8c73661b4694759f", "blocktime": 1537871767, "version": 1, "confirmations": 11495, "time": 1537871767, "locktime": 0, "vsize": 192, "size": 192}