{"hash": "fa0fed93412051885d335b14513559f938601c337088478843cc895dfb6cfca2", "blockhash": "0000000000000000000e13cef7c366c0283d82e591d1acd082e914b08063cdf1", "vout": [{"scriptPubKey": {"reqSigs": 1, "hex": "76a9142e1b944fe7ffbe969fc1df8d662fd7b5d6303c9b88ac", "addresses": ["15Co856cRnFRCKwSSzECoyT3ozVhuFoJZ6"], "asm": "OP_DUP OP_HASH160 2e1b944fe7ffbe969fc1df8d662fd7b5d6303c9b OP_EQUALVERIFY OP_CHECKSIG", "type": "pubkeyhash"}, "value": 0.0030896, "n": 0}, {"scriptPubKey": {"reqSigs": 1, "hex": "a914a143c5363d9e0ba2aa4d57dd0d68b03caa3f232187", "addresses": ["3GPhuCJ3Rg7nRybTZnmREfeJwbsCuv1S8A"], "asm": "OP_HASH160 a143c5363d9e0ba2aa4d57dd0d68b03caa3f2321 OP_EQUAL", "type": "scripthash"}, "value": 0.01000057, "n": 1}], "hex": "02000000000102976681b5b0812a5a9f744010875a7ca6bf85debe3cd9fc589056fea9df4ee5070800000017160014bc92ab67dea89babfb5babaf6655c605024e85b4feffffffa175057bbe25cc751d55b033572971aa81e49744816bcc90c8deaf7540447c900000000017160014fb644b4391fa81d9aed173988be4f068409afad5feffffff02e0b60400000000001976a9142e1b944fe7ffbe969fc1df8d662fd7b5d6303c9b88ac79420f000000000017a914a143c5363d9e0ba2aa4d57dd0d68b03caa3f2321870248304502210086c3fd564d34428b96f6794f21ebd795e770adae9d7ba11a25685dd51e62cf6a02202de31acdebeb4352e5c02ca0097486865f5dc8f6711a41fb2171148a6fb608b3012103f6a09d06d2caa667a416c236c10f92c84f4a40bbad8511e2479454833f7cd0f702483045022100c1ef2b2384930421172ed63f2c1d849bb5392831b0927cc3d0764801b3d7aaf702203b1bda0572b6ed26ec28586ccfb6e671ac37ae292c534a4a5f787fc618faaa400121030e03ca26bbcf277e43e1becb7ef68cb19a6a1511f89fd16cc255e7dd65a5ef7910490800", "vin": [{"txinwitness": ["304502210086c3fd564d34428b96f6794f21ebd795e770adae9d7ba11a25685dd51e62cf6a02202de31acdebeb4352e5c02ca0097486865f5dc8f6711a41fb2171148a6fb608b301", "03f6a09d06d2caa667a416c236c10f92c84f4a40bbad8511e2479454833f7cd0f7"], "sequence": 4294967294, "scriptSig": {"hex": "160014bc92ab67dea89babfb5babaf6655c605024e85b4", "asm": "0014bc92ab67dea89babfb5babaf6655c605024e85b4"}, "vout": 8, "txid": "07e54edfa9fe569058fcd93cbede85bfa67c5a871040749f5a2a81b0b5816697"}, {"txinwitness": ["3045022100c1ef2b2384930421172ed63f2c1d849bb5392831b0927cc3d0764801b3d7aaf702203b1bda0572b6ed26ec28586ccfb6e671ac37ae292c534a4a5f787fc618faaa4001", "030e03ca26bbcf277e43e1becb7ef68cb19a6a1511f89fd16cc255e7dd65a5ef79"], "sequence": 4294967294, "scriptSig": {"hex": "160014fb644b4391fa81d9aed173988be4f068409afad5", "asm": "0014fb644b4391fa81d9aed173988be4f068409afad5"}, "vout": 0, "txid": "907c444075afdec890cc6b814497e481aa71295733b0551d75cc25be7b0575a1"}], "txid": "fd2f5ef9f33854567e6225bc89a860d54d57cb79412ec919853471fdb667230d", "blocktime": 1537871767, "version": 2, "confirmations": 11495, "time": 1537871767, "locktime": 542992, "vsize": 259, "size": 422}