{"hash": "fd3bf89f6ec0a983fe6c984b10b05ed794a9efec03f9b17ff9b13e5184ad1f1e", "blockhash": "0000000000000000001cda96e906b7601b7a6fb1a3b62bca570a9e5d8f4b3de1", "vout": [{"scriptPubKey": {"reqSigs": 1, "hex": "a914d038b86065774af2f2daa08fdf1cf6ad190d6dad87", "addresses": ["3LfzRS9yVnYLSV3yA5GD3DWb797STTjgw7"], "asm": "OP_HASH160 d038b86065774af2f2daa08fdf1cf6ad190d6dad OP_EQUAL", "type": "scripthash"}, "value": 0.07338194, "n": 0}, {"scriptPubKey": {"reqSigs": 1, "hex": "76a9145d79fa7ef3ac66dfde1dad5469172f1c6115a85588ac", "addresses": ["19XFy4Bu7x1gpJRrGSkHbou6uRw1Byyc3w"], "asm": "OP_DUP OP_HASH160 5d79fa7ef3ac66dfde1dad5469172f1c6115a855 OP_EQUALVERIFY OP_CHECKSIG", "type": "pubkeyhash"}, "value": 0.38507305, "n": 1}], "hex": "010000000151f1717407438206e0baed907bf7aa911e539128960c85078ab954352e097785010000006a4730440220284aaaa81f334a3cac45fd1e3a31e9ea9c84151bcb0b3aaa2f0ea59f9ac9fbd7022016dafd75ca52f52baa2d979059ccc08a2401571bb77b5e5e51dc2ed8036b2fa501210393aed49ef4dae541ad06b4ee806928bb38871387dd1c0eecbd14605fce4dc88affffffff02d2f86f000000000017a914d038b86065774af2f2daa08fdf1cf6ad190d6dad8729934b02000000001976a9145d79fa7ef3ac66dfde1dad5469172f1c6115a85588ac00000000", "vin": [{"sequence": 4294967295, "scriptSig": {"hex": "4730440220284aaaa81f334a3cac45fd1e3a31e9ea9c84151bcb0b3aaa2f0ea59f9ac9fbd7022016dafd75ca52f52baa2d979059ccc08a2401571bb77b5e5e51dc2ed8036b2fa501210393aed49ef4dae541ad06b4ee806928bb38871387dd1c0eecbd14605fce4dc88a", "asm": "30440220284aaaa81f334a3cac45fd1e3a31e9ea9c84151bcb0b3aaa2f0ea59f9ac9fbd7022016dafd75ca52f52baa2d979059ccc08a2401571bb77b5e5e51dc2ed8036b2fa5[ALL] 0393aed49ef4dae541ad06b4ee806928bb38871387dd1c0eecbd14605fce4dc88a"}, "vout": 1, "txid": "8577092e3554b98a07850c962891531e91aaf77b90edbae0068243077471f151"}], "txid": "fd3bf89f6ec0a983fe6c984b10b05ed794a9efec03f9b17ff9b13e5184ad1f1e", "blocktime": 1537873282, "version": 1, "confirmations": 11481, "time": 1537873282, "locktime": 0, "vsize": 223, "size": 223}