{"hash": "8a44573a7fbfe8a328ed5be4f40a4286cf43b9c49e29ac72c4874c8c23ac2252", "blockhash": "0000000000000000000dcc0f55137456b1a82d3642486a52398922ac4d620174", "vout": [{"scriptPubKey": {"reqSigs": 1, "hex": "a914ee69663050ccec6cd6a1f6ba8df8675cbb8b509587", "addresses": ["3PRd1TmuEPVhSvz9yZANWitsQCzoqLDNXK"], "asm": "OP_HASH160 ee69663050ccec6cd6a1f6ba8df8675cbb8b5095 OP_EQUAL", "type": "scripthash"}, "value": 0.0113947, "n": 0}, {"scriptPubKey": {"reqSigs": 1, "hex": "76a9146af4487619239d3ab92b01156e52acd98bfb5cea88ac", "addresses": ["1AkXGRFHF2yymEwoiPFaiBhKSwWQqEFnXt"], "asm": "OP_DUP OP_HASH160 6af4487619239d3ab92b01156e52acd98bfb5cea OP_EQUALVERIFY OP_CHECKSIG", "type": "pubkeyhash"}, "value": 0.00191812, "n": 1}], "hex": "0200000000010113c5b7fccfcb9a71633826b35e791f7732917e004dfb2d65267d9ffd18edd1cc0000000017160014607b4c72f56f27264db7d4b395ffb89eaffb3e17feffffff020e6311000000000017a914ee69663050ccec6cd6a1f6ba8df8675cbb8b50958744ed0200000000001976a9146af4487619239d3ab92b01156e52acd98bfb5cea88ac0247304402201994ac6d3129cad0f87cc51842f0baade656e8d1068be14b9d68f0cb5c28d8d802206ae583f8d80e1fc04d5a9490662f1eb3020403cb77d16d0027176200c31ed69f012102bc510fef1e916b9b664d41b50d8e08765fbe92c96acc699bfa540f635bebb8200c490800", "vin": [{"txinwitness": ["304402201994ac6d3129cad0f87cc51842f0baade656e8d1068be14b9d68f0cb5c28d8d802206ae583f8d80e1fc04d5a9490662f1eb3020403cb77d16d0027176200c31ed69f01", "02bc510fef1e916b9b664d41b50d8e08765fbe92c96acc699bfa540f635bebb820"], "sequence": 4294967294, "scriptSig": {"hex": "160014607b4c72f56f27264db7d4b395ffb89eaffb3e17", "asm": "0014607b4c72f56f27264db7d4b395ffb89eaffb3e17"}, "vout": 0, "txid": "ccd1ed18fd9f7d26652dfb4d007e9132771f795eb3263863719acbcffcb7c513"}], "txid": "fd41f315afd347d19b2687047d6eab98a8c2b9399eb5b23225c6d216bc40e00b", "blocktime": 1537870268, "version": 2, "confirmations": 11518, "time": 1537870268, "locktime": 542988, "vsize": 168, "size": 249}