{"hash": "fd4118915c37151026881e233c2a2be54f6edc9f01a9fdb7f5c8b6544d0c97d8", "blockhash": "0000000000000000001f76057863aec43deb6fa401d9628bb513d65a8098bfab", "vout": [{"scriptPubKey": {"reqSigs": 1, "hex": "76a9140d4b10e2a9b455ad49acdd3d5caa442227cc480788ac", "addresses": ["12DHiAkGqiJ65WHSWcBGd9BnkQ7SpY7R3j"], "asm": "OP_DUP OP_HASH160 0d4b10e2a9b455ad49acdd3d5caa442227cc4807 OP_EQUALVERIFY OP_CHECKSIG", "type": "pubkeyhash"}, "value": 2.39617395, "n": 0}], "hex": "01000000044dffa2ca2e5117a8f6ead7f4db1367a5845f2b89818fff1d8e1f2fbc12741f75010000006a47304402201117260c180a1d4b1c7bef6797d294011f9f878351968272397be7b3bf56bd6c02203cd66c05a86a963d66c766c195cefc1a63ffd2d89a976a59403afd3d60c5092d0121024bd3b6f82f2f594bf9459a04f84e0c47280b50e9cf6a222925704cae69196067ffffffffee4630a609fbc65c52fc2ccae4593fcbabd33fb3ee029a2220b6cf0be109d386080000006a473044022054b68fd0bbd4524b4fdb1f77a6d324d2703425bf45551843c9401dd513eaa9b002207250996311e9b73de83710c946c87b9fae4ff775e853f8d5e5c2dc430f519d76012103740439c812eb99a5e2237c57899accece6e5cca6074c900573fe6eead4cb18c1ffffffffe60bd348367f55b42298ed856b3cb48d4409d351efd17007693f305f12194f9d000000006b483045022100a7697dd4e1671fe12fda74f3378c9ded163d98f71965d4260f720086f01db236022022b698d791ced7797c3eefbb205cd866191e6b6466d7f812f5d7b223c899d18f0121024bd3b6f82f2f594bf9459a04f84e0c47280b50e9cf6a222925704cae69196067ffffffffa45cafc8d361c1aeaeddaaad099907ae13736965b88e2a4a95b78e869df873dd010000006a47304402201ab5a95a261045d72166c9671f3bf3685ec8b84e37401d48c34401bf67650ad302202a61ae5ae729fdf85ebc2cb10433745f3435fae9bba63b67c54edce41dd0385a0121038c8edbec9c9cf24b7179f4b07e618fb3c4f4d84c3c145594e8c9ba4ebdc33b03ffffffff017345480e000000001976a9140d4b10e2a9b455ad49acdd3d5caa442227cc480788ac00000000", "vin": [{"sequence": 4294967295, "scriptSig": {"hex": "47304402201117260c180a1d4b1c7bef6797d294011f9f878351968272397be7b3bf56bd6c02203cd66c05a86a963d66c766c195cefc1a63ffd2d89a976a59403afd3d60c5092d0121024bd3b6f82f2f594bf9459a04f84e0c47280b50e9cf6a222925704cae69196067", "asm": "304402201117260c180a1d4b1c7bef6797d294011f9f878351968272397be7b3bf56bd6c02203cd66c05a86a963d66c766c195cefc1a63ffd2d89a976a59403afd3d60c5092d[ALL] 024bd3b6f82f2f594bf9459a04f84e0c47280b50e9cf6a222925704cae69196067"}, "vout": 1, "txid": "751f7412bc2f1f8e1dff8f81892b5f84a56713dbf4d7eaf6a817512ecaa2ff4d"}, {"sequence": 4294967295, "scriptSig": {"hex": "473044022054b68fd0bbd4524b4fdb1f77a6d324d2703425bf45551843c9401dd513eaa9b002207250996311e9b73de83710c946c87b9fae4ff775e853f8d5e5c2dc430f519d76012103740439c812eb99a5e2237c57899accece6e5cca6074c900573fe6eead4cb18c1", "asm": "3044022054b68fd0bbd4524b4fdb1f77a6d324d2703425bf45551843c9401dd513eaa9b002207250996311e9b73de83710c946c87b9fae4ff775e853f8d5e5c2dc430f519d76[ALL] 03740439c812eb99a5e2237c57899accece6e5cca6074c900573fe6eead4cb18c1"}, "vout": 8, "txid": "86d309e10bcfb620229a02eeb33fd3abcb3f59e4ca2cfc525cc6fb09a63046ee"}, {"sequence": 4294967295, "scriptSig": {"hex": "483045022100a7697dd4e1671fe12fda74f3378c9ded163d98f71965d4260f720086f01db236022022b698d791ced7797c3eefbb205cd866191e6b6466d7f812f5d7b223c899d18f0121024bd3b6f82f2f594bf9459a04f84e0c47280b50e9cf6a222925704cae69196067", "asm": "3045022100a7697dd4e1671fe12fda74f3378c9ded163d98f71965d4260f720086f01db236022022b698d791ced7797c3eefbb205cd866191e6b6466d7f812f5d7b223c899d18f[ALL] 024bd3b6f82f2f594bf9459a04f84e0c47280b50e9cf6a222925704cae69196067"}, "vout": 0, "txid": "9d4f19125f303f690770d1ef51d309448db43c6b85ed9822b4557f3648d30be6"}, {"sequence": 4294967295, "scriptSig": {"hex": "47304402201ab5a95a261045d72166c9671f3bf3685ec8b84e37401d48c34401bf67650ad302202a61ae5ae729fdf85ebc2cb10433745f3435fae9bba63b67c54edce41dd0385a0121038c8edbec9c9cf24b7179f4b07e618fb3c4f4d84c3c145594e8c9ba4ebdc33b03", "asm": "304402201ab5a95a261045d72166c9671f3bf3685ec8b84e37401d48c34401bf67650ad302202a61ae5ae729fdf85ebc2cb10433745f3435fae9bba63b67c54edce41dd0385a[ALL] 038c8edbec9c9cf24b7179f4b07e618fb3c4f4d84c3c145594e8c9ba4ebdc33b03"}, "vout": 1, "txid": "dd73f89d868eb7954a2a8eb865697313ae079909adaaddaeaec161d3c8af5ca4"}], "txid": "fd4118915c37151026881e233c2a2be54f6edc9f01a9fdb7f5c8b6544d0c97d8", "blocktime": 1537873891, "version": 1, "confirmations": 11478, "time": 1537873891, "locktime": 0, "vsize": 633, "size": 633}