{"hash": "fd42542ea8135d78439cf5e5b1df8b203b34ab139580eb88b245dd3bd83eb8f4", "blockhash": "0000000000000000000e13cef7c366c0283d82e591d1acd082e914b08063cdf1", "vout": [{"scriptPubKey": {"reqSigs": 1, "hex": "0014dcaf822dc0515af6fcb0e001a39153a1be324252", "addresses": ["bc1qmjhcytwq29d0dl9suqq68y2n5xlrysjjwclaj3"], "asm": "0 dcaf822dc0515af6fcb0e001a39153a1be324252", "type": "witness_v0_keyhash"}, "value": 0.96281436, "n": 0}, {"scriptPubKey": {"reqSigs": 1, "hex": "76a914f5cd00662c320891e7bb16baf342e397c684a92c88ac", "addresses": ["1PQg8ksp8WBvitYemoLxhrL9g56NFF4wTW"], "asm": "OP_DUP OP_HASH160 f5cd00662c320891e7bb16baf342e397c684a92c OP_EQUALVERIFY OP_CHECKSIG", "type": "pubkeyhash"}, "value": 0.02307044, "n": 1}], "hex": "0100000001c9e74c14694f318ca40fcc8ee4933765fc6284018a390afc5aff7bfa7de876e1000000006b483045022100f114abea393138ac9c495f458146dedc7df755552b3e1bc184bef1ebd44039ae022045e21e4860ab03e47f41b024d58e0a58ab8560bf33a4bd9f8ab01433af6cd761012103a346e8649b16ab5c2389ee54d0e49dd3b22c51e8a15d4cfee9b1745a9d327dcbffffffff025c23bd0500000000160014dcaf822dc0515af6fcb0e001a39153a1be324252e4332300000000001976a914f5cd00662c320891e7bb16baf342e397c684a92c88ac00000000", "vin": [{"sequence": 4294967295, "scriptSig": {"hex": "483045022100f114abea393138ac9c495f458146dedc7df755552b3e1bc184bef1ebd44039ae022045e21e4860ab03e47f41b024d58e0a58ab8560bf33a4bd9f8ab01433af6cd761012103a346e8649b16ab5c2389ee54d0e49dd3b22c51e8a15d4cfee9b1745a9d327dcb", "asm": "3045022100f114abea393138ac9c495f458146dedc7df755552b3e1bc184bef1ebd44039ae022045e21e4860ab03e47f41b024d58e0a58ab8560bf33a4bd9f8ab01433af6cd761[ALL] 03a346e8649b16ab5c2389ee54d0e49dd3b22c51e8a15d4cfee9b1745a9d327dcb"}, "vout": 0, "txid": "e176e87dfa7bff5afc0a398a018462fc653793e48ecc0fa48c314f69144ce7c9"}], "txid": "fd42542ea8135d78439cf5e5b1df8b203b34ab139580eb88b245dd3bd83eb8f4", "blocktime": 1537871767, "version": 1, "confirmations": 11495, "time": 1537871767, "locktime": 0, "vsize": 223, "size": 223}