{"hash": "ffb981628c4fae84934a792c6fb6d30588a9f986f22019c0c83938ee618f3d79", "blockhash": "00000000000000000018f53835495a110e01622372bf6ae95dc86f2b0ab887b0", "vout": [{"scriptPubKey": {"reqSigs": 1, "hex": "0014e5242249983d0746c56d83601a7a73cc9052462a", "addresses": ["bc1qu5jzyjvc85r5d3tdsdsp57nnejg9y3322jlgqx"], "asm": "0 e5242249983d0746c56d83601a7a73cc9052462a", "type": "witness_v0_keyhash"}, "value": 0.17586894, "n": 0}, {"scriptPubKey": {"reqSigs": 1, "hex": "a9149af24b151fd80196f3011191712243b1931d912887", "addresses": ["3FpJEvEYpRzwboLE5GFFKkqdb1UrihuUPE"], "asm": "OP_HASH160 9af24b151fd80196f3011191712243b1931d9128 OP_EQUAL", "type": "scripthash"}, "value": 0.01930265, "n": 1}], "hex": "0100000000010138312c87328aee379398dd03fd5f0f8dde97fb447cf7c7c3abb20d2640a163480000000017160014ca2c8b681acebb58ff0ede0fffaf13a9a2d31caaffffffff02ce5a0c0100000000160014e5242249983d0746c56d83601a7a73cc9052462a19741d000000000017a9149af24b151fd80196f3011191712243b1931d912887024830450221009bb5fa5fdb50e93d3fd357e302487a191ff03e538cff90b80027f87a1d7900d8022012162eb4f9a232a7629b3cc5fcc683aa27de7c01a970fce04aac179fb55e50810121033beb8264685658f042054474e181eccd33d35035bb57ba651d1f1580eec18ff700000000", "vin": [{"txinwitness": ["30450221009bb5fa5fdb50e93d3fd357e302487a191ff03e538cff90b80027f87a1d7900d8022012162eb4f9a232a7629b3cc5fcc683aa27de7c01a970fce04aac179fb55e508101", "033beb8264685658f042054474e181eccd33d35035bb57ba651d1f1580eec18ff7"], "sequence": 4294967295, "scriptSig": {"hex": "160014ca2c8b681acebb58ff0ede0fffaf13a9a2d31caa", "asm": "0014ca2c8b681acebb58ff0ede0fffaf13a9a2d31caa"}, "vout": 0, "txid": "4863a140260db2abc3c7f77c44fb97de8d0f5ffd03dd989337ee8a32872c3138"}], "txid": "fd4749f403208a8df01b9b6ca25c38488ca5a41ab0bc7a9a412a2826e7fd7d52", "blocktime": 1537870928, "version": 1, "confirmations": 11512, "time": 1537870928, "locktime": 0, "vsize": 165, "size": 247}