{"hash": "fd48303f5b3519ec111386fed7fb8eaed6fcc02f49ff42159ea9477b98a3b9bf", "blockhash": "000000000000000000022b45ed06c6f4ccd3cf7fb5ba4856ebd2e58215665228", "vout": [{"scriptPubKey": {"reqSigs": 1, "hex": "76a914ad55e972c2243d535733eb6ed0ef344b899cf5b488ac", "addresses": ["1GoWpT8veYAfjczotYsNw4N8pAN5Rx228C"], "asm": "OP_DUP OP_HASH160 ad55e972c2243d535733eb6ed0ef344b899cf5b4 OP_EQUALVERIFY OP_CHECKSIG", "type": "pubkeyhash"}, "value": 0.00642469, "n": 0}, {"scriptPubKey": {"type": "nulldata", "hex": "6a146f6d6e69000000000000001f0000002dfbead700", "asm": "OP_RETURN 6f6d6e69000000000000001f0000002dfbead700"}, "value": 0.0, "n": 1}, {"scriptPubKey": {"reqSigs": 1, "hex": "76a914a25dec4d0011064ef106a983c39c7a540699f22088ac", "addresses": ["1FoWyxwPXuj4C6abqwhjDWdz6D4PZgYRjA"], "asm": "OP_DUP OP_HASH160 a25dec4d0011064ef106a983c39c7a540699f220 OP_EQUALVERIFY OP_CHECKSIG", "type": "pubkeyhash"}, "value": 5.46e-06, "n": 2}], "hex": "01000000012b3a4c51b41ee4baae2057243d7472c3c38f0a229b3991fc2d3695bd242f92bf000000006b483045022100e419f8a5a5853b122530153de1a1062bc8ba4181dc407acc1bdf8fa1d11662910220318c99ec57fb50ed2ac9eeded2af39c6b21fd7f8faed46b1d5262db83b77e1740121038c0270d46742011b6f48dfbed50acaf6b9a3967077aebd74b52aaf531ce0b3fefeffffff03a5cd0900000000001976a914ad55e972c2243d535733eb6ed0ef344b899cf5b488ac0000000000000000166a146f6d6e69000000000000001f0000002dfbead70022020000000000001976a914a25dec4d0011064ef106a983c39c7a540699f22088ac0b490800", "vin": [{"sequence": 4294967294, "scriptSig": {"hex": "483045022100e419f8a5a5853b122530153de1a1062bc8ba4181dc407acc1bdf8fa1d11662910220318c99ec57fb50ed2ac9eeded2af39c6b21fd7f8faed46b1d5262db83b77e1740121038c0270d46742011b6f48dfbed50acaf6b9a3967077aebd74b52aaf531ce0b3fe", "asm": "3045022100e419f8a5a5853b122530153de1a1062bc8ba4181dc407acc1bdf8fa1d11662910220318c99ec57fb50ed2ac9eeded2af39c6b21fd7f8faed46b1d5262db83b77e174[ALL] 038c0270d46742011b6f48dfbed50acaf6b9a3967077aebd74b52aaf531ce0b3fe"}, "vout": 0, "txid": "bf922f24bd95362dfc91399b220a8fc3c372743d245720aebae41eb4514c3a2b"}], "txid": "fd48303f5b3519ec111386fed7fb8eaed6fcc02f49ff42159ea9477b98a3b9bf", "blocktime": 1537869901, "version": 1, "confirmations": 11524, "time": 1537869901, "locktime": 542987, "vsize": 257, "size": 257}