{"hash": "fd492200998155f043ec8362dbc9280ede3d627a8668b037110c8b165ede8c6f", "blockhash": "00000000000000000017f5eb5941039fbcee6240d03bc1f2f8e35350df66a1d8", "vout": [{"scriptPubKey": {"reqSigs": 1, "hex": "76a914660c45b8a867de04c1c8bb608a197a396b7ad17688ac", "addresses": ["1AJadGLd498R5661zqf8LZZuFF179iHyRT"], "asm": "OP_DUP OP_HASH160 660c45b8a867de04c1c8bb608a197a396b7ad176 OP_EQUALVERIFY OP_CHECKSIG", "type": "pubkeyhash"}, "value": 1.0929441, "n": 0}, {"scriptPubKey": {"reqSigs": 1, "hex": "a91446ab0304a96bb1e7aac0d8357fbc02131aadd89a87", "addresses": ["388g65ZC7PUCQvZxjb7eHX8LSoGxbgmxgt"], "asm": "OP_HASH160 46ab0304a96bb1e7aac0d8357fbc02131aadd89a OP_EQUAL", "type": "scripthash"}, "value": 0.128375, "n": 1}], "hex": "0200000001f8aace35616f7da1882fe2650be01b40cedfc8b542fca7e02b1050d39b646167010000006a47304402201658eaddba2a1e4bbd7abcc42e9749ef048df7257a76a784b8a8cf05ad28c79402202879e825cf078a54e180d2686a11f9cef21a9d4fb6598fb0383b505df082a1ce01210201e7ae343ae149faf959e931ec7b0588691e690ba0dff46dd4afc6af32c6cfdafeffffff024ab38306000000001976a914660c45b8a867de04c1c8bb608a197a396b7ad17688ac7ce2c3000000000017a91446ab0304a96bb1e7aac0d8357fbc02131aadd89a8715490800", "vin": [{"sequence": 4294967294, "scriptSig": {"hex": "47304402201658eaddba2a1e4bbd7abcc42e9749ef048df7257a76a784b8a8cf05ad28c79402202879e825cf078a54e180d2686a11f9cef21a9d4fb6598fb0383b505df082a1ce01210201e7ae343ae149faf959e931ec7b0588691e690ba0dff46dd4afc6af32c6cfda", "asm": "304402201658eaddba2a1e4bbd7abcc42e9749ef048df7257a76a784b8a8cf05ad28c79402202879e825cf078a54e180d2686a11f9cef21a9d4fb6598fb0383b505df082a1ce[ALL] 0201e7ae343ae149faf959e931ec7b0588691e690ba0dff46dd4afc6af32c6cfda"}, "vout": 1, "txid": "6761649bd350102be0a7fc42b5c8dfce401be00b65e22f88a17d6f6135ceaaf8"}], "txid": "fd492200998155f043ec8362dbc9280ede3d627a8668b037110c8b165ede8c6f", "blocktime": 1537874412, "version": 2, "confirmations": 11466, "time": 1537874412, "locktime": 542997, "vsize": 223, "size": 223}