{"hash": "fd4ccd53c3e39ad788a29cbc19a9fbd63a593a86de46589a7c4a45fcd107f7a8", "blockhash": "0000000000000000001e0dab787dd257d1dbfcb92a98c2207d5e1078be1f4165", "vout": [{"scriptPubKey": {"type": "nulldata", "hex": "6a4c50000077ae0001adaf350a813e09068a8e8f00af6c953dd567cf27e7e3ef3236678a6250975d38637e5e7ea8a59895ad68641c2c5b5baa10f20611f279415e8296bc9a9526289ac0f6612cd74e33776ee4", "asm": "OP_RETURN 000077ae0001adaf350a813e09068a8e8f00af6c953dd567cf27e7e3ef3236678a6250975d38637e5e7ea8a59895ad68641c2c5b5baa10f20611f279415e8296bc9a9526289ac0f6612cd74e33776ee4"}, "value": 0.0, "n": 0}, {"scriptPubKey": {"reqSigs": 1, "hex": "76a9148a47093aa2b2ef0cbb9e3b492b8332641a5e32a588ac", "addresses": ["1Dc9M9MEhfdmtK39UccFaEvuoTXFi7aKz8"], "asm": "OP_DUP OP_HASH160 8a47093aa2b2ef0cbb9e3b492b8332641a5e32a5 OP_EQUALVERIFY OP_CHECKSIG", "type": "pubkeyhash"}, "value": 0.0222812, "n": 1}], "hex": "0100000001d0c01d797122d8a209c63b2517ed854e8565928da511d5c316b6a55342036550000000006a4730440220471b28a96d3a310014ea25f6bf1355302c8397bc50e4c225e717ba426a0701f702201503652a378d16544de6c1be00a105a890fbd7a488c4bbe99d011631b2fe8c0601210242fd922fe142d102541e3bf4301ffa7e181cb46caa5414a027d3eec54db0d122ffffffff020000000000000000536a4c50000077ae0001adaf350a813e09068a8e8f00af6c953dd567cf27e7e3ef3236678a6250975d38637e5e7ea8a59895ad68641c2c5b5baa10f20611f279415e8296bc9a9526289ac0f6612cd74e33776ee498ff2100000000001976a9148a47093aa2b2ef0cbb9e3b492b8332641a5e32a588ac00000000", "vin": [{"sequence": 4294967295, "scriptSig": {"hex": "4730440220471b28a96d3a310014ea25f6bf1355302c8397bc50e4c225e717ba426a0701f702201503652a378d16544de6c1be00a105a890fbd7a488c4bbe99d011631b2fe8c0601210242fd922fe142d102541e3bf4301ffa7e181cb46caa5414a027d3eec54db0d122", "asm": "30440220471b28a96d3a310014ea25f6bf1355302c8397bc50e4c225e717ba426a0701f702201503652a378d16544de6c1be00a105a890fbd7a488c4bbe99d011631b2fe8c06[ALL] 0242fd922fe142d102541e3bf4301ffa7e181cb46caa5414a027d3eec54db0d122"}, "vout": 0, "txid": "5065034253a5b616c3d511a58d9265854e85ed17253bc609a2d82271791dc0d0"}], "txid": "fd4ccd53c3e39ad788a29cbc19a9fbd63a593a86de46589a7c4a45fcd107f7a8", "blocktime": 1537872475, "version": 1, "confirmations": 11486, "time": 1537872475, "locktime": 0, "vsize": 283, "size": 283}