{"hash": "fd4e270e4b54309c8fc015cb34abc0d5121e69b947442d9e52932d73a5b13084", "blockhash": "00000000000000000018f53835495a110e01622372bf6ae95dc86f2b0ab887b0", "vout": [{"scriptPubKey": {"reqSigs": 1, "hex": "a91435e7df84cc50f70e41c91f7d43fd29315b78826187", "addresses": ["36c3WY8iDnZD5THnTLY9DxWWbyMi2itXA4"], "asm": "OP_HASH160 35e7df84cc50f70e41c91f7d43fd29315b788261 OP_EQUAL", "type": "scripthash"}, "value": 0.01563, "n": 0}, {"scriptPubKey": {"reqSigs": 1, "hex": "76a9149c72952e7c1c71830ecce607793ea00f7f8c4a2188ac", "addresses": ["1FGDgGtWC3jxxkamoFcTkkFJ5UPBsHTb61"], "asm": "OP_DUP OP_HASH160 9c72952e7c1c71830ecce607793ea00f7f8c4a21 OP_EQUALVERIFY OP_CHECKSIG", "type": "pubkeyhash"}, "value": 0.04397068, "n": 1}], "hex": "010000000160c02cd316dda3620d9e373bcec00af494d720ace9ebcc1528607a8c227dbf0c010000006a47304402200bff15e8718fbd658d2c50a260bab4d299be508a0532ba21b0205f4db8eab6910220724b318a53d93b30f4b9868eaf9b1f2363207456d9bd3e8bdb5dc77f930e9aa30121036fc31852482e09fb349c3d228aa6b9c7697f24c101a54f761d61d6dd0667f239ffffffff0278d917000000000017a91435e7df84cc50f70e41c91f7d43fd29315b788261870c184300000000001976a9149c72952e7c1c71830ecce607793ea00f7f8c4a2188ac00000000", "vin": [{"sequence": 4294967295, "scriptSig": {"hex": "47304402200bff15e8718fbd658d2c50a260bab4d299be508a0532ba21b0205f4db8eab6910220724b318a53d93b30f4b9868eaf9b1f2363207456d9bd3e8bdb5dc77f930e9aa30121036fc31852482e09fb349c3d228aa6b9c7697f24c101a54f761d61d6dd0667f239", "asm": "304402200bff15e8718fbd658d2c50a260bab4d299be508a0532ba21b0205f4db8eab6910220724b318a53d93b30f4b9868eaf9b1f2363207456d9bd3e8bdb5dc77f930e9aa3[ALL] 036fc31852482e09fb349c3d228aa6b9c7697f24c101a54f761d61d6dd0667f239"}, "vout": 1, "txid": "0cbf7d228c7a602815ccebe9ac20d794f40ac0ce3b379e0d62a3dd16d32cc060"}], "txid": "fd4e270e4b54309c8fc015cb34abc0d5121e69b947442d9e52932d73a5b13084", "blocktime": 1537870928, "version": 1, "confirmations": 11512, "time": 1537870928, "locktime": 0, "vsize": 223, "size": 223}