{"hash": "774f7bbd6bba36adeb2bd7c758e2e1ae334851d470c01712458b278600337faa", "blockhash": "00000000000000000017f5eb5941039fbcee6240d03bc1f2f8e35350df66a1d8", "vout": [{"scriptPubKey": {"reqSigs": 1, "hex": "a914e2e673014d3e6ab2927c1d0be09d4445a6612ff487", "addresses": ["3NNkhnqy4pZ9KyDGfCEzcyBt8TkndjwaCU"], "asm": "OP_HASH160 e2e673014d3e6ab2927c1d0be09d4445a6612ff4 OP_EQUAL", "type": "scripthash"}, "value": 0.0029666, "n": 0}, {"scriptPubKey": {"reqSigs": 1, "hex": "a914fd3f98392e9905c0735cfd557f58eba486d314b187", "addresses": ["3Qn54i4H1W6ub2ZxD3Md7aUDRdMVQw13EH"], "asm": "OP_HASH160 fd3f98392e9905c0735cfd557f58eba486d314b1 OP_EQUAL", "type": "scripthash"}, "value": 0.00107635, "n": 1}, {"scriptPubKey": {"reqSigs": 1, "hex": "a914f16f9e122342141e56166ed5d0df4f4b3df57d3587", "addresses": ["3PhcV6JczcsUv3dtCfu51VR9vaMn3zEXC9"], "asm": "OP_HASH160 f16f9e122342141e56166ed5d0df4f4b3df57d35 OP_EQUAL", "type": "scripthash"}, "value": 0.00266159, "n": 2}, {"scriptPubKey": {"reqSigs": 1, "hex": "a914a736051d509c7ab08584d0f809723be62924ebad87", "addresses": ["3Gw9UxFJm9Sq3McBm67gsQJVYYcEajTvEe"], "asm": "OP_HASH160 a736051d509c7ab08584d0f809723be62924ebad OP_EQUAL", "type": "scripthash"}, "value": 0.0047016, "n": 3}, {"scriptPubKey": {"reqSigs": 1, "hex": "a914ca6fb8e78c04090825b41598a903ba4e753da0ac87", "addresses": ["3L9QFto4DMu16C8Y46QjBKNhs1KDWVrmA5"], "asm": "OP_HASH160 ca6fb8e78c04090825b41598a903ba4e753da0ac OP_EQUAL", "type": "scripthash"}, "value": 0.00498486, "n": 4}, {"scriptPubKey": {"reqSigs": 1, "hex": "a914c4d07fcd0a60fb57c9bf782da12b1d5632b5700087", "addresses": ["3Kdg8vTQhZmnUxHh5pMYjA8q5zF6qh5p3F"], "asm": "OP_HASH160 c4d07fcd0a60fb57c9bf782da12b1d5632b57000 OP_EQUAL", "type": "scripthash"}, "value": 0.00599894, "n": 5}, {"scriptPubKey": {"reqSigs": 1, "hex": "a914b0bca14d2d228198b08b0c823f05213d4ee4cbda87", "addresses": ["3HoWpZ5airThbS54R88aoEAu8sseAoKvMe"], "asm": "OP_HASH160 b0bca14d2d228198b08b0c823f05213d4ee4cbda OP_EQUAL", "type": "scripthash"}, "value": 0.0025646, "n": 6}, {"scriptPubKey": {"reqSigs": 1, "hex": "a914cf5836e7f7f93d3b0c226333bd2dc2140537883287", "addresses": ["3LbMUW4szQJoavSVvt2BfViFDL1cCjQVAD"], "asm": "OP_HASH160 cf5836e7f7f93d3b0c226333bd2dc21405378832 OP_EQUAL", "type": "scripthash"}, "value": 0.0032086, "n": 7}, {"scriptPubKey": {"reqSigs": 1, "hex": "76a914ebd9c347cfa97312b8d0b2a7f94145c5fb252c8188ac", "addresses": ["1NW4fWLMkGs8SFF6GjT78dhpjVuyCJ46oE"], "asm": "OP_DUP OP_HASH160 ebd9c347cfa97312b8d0b2a7f94145c5fb252c81 OP_EQUALVERIFY OP_CHECKSIG", "type": "pubkeyhash"}, "value": 0.0022855, "n": 8}, {"scriptPubKey": {"reqSigs": 1, "hex": "a914daf475b5f95243c992ae374fc599302d936e592987", "addresses": ["3Mek5jBJAPYQ3yTRv16ymATg8Y7WzBkZt2"], "asm": "OP_HASH160 daf475b5f95243c992ae374fc599302d936e5929 OP_EQUAL", "type": "scripthash"}, "value": 0.0021376, "n": 9}, {"scriptPubKey": {"reqSigs": 1, "hex": "a914742edea71f1b4b7f86cb50c648383a2ba8746af287", "addresses": ["3CHLTMyqeNcH83C15amiMGYwRUZEMPpD1w"], "asm": "OP_HASH160 742edea71f1b4b7f86cb50c648383a2ba8746af2 OP_EQUAL", "type": "scripthash"}, "value": 0.0027076, "n": 10}, {"scriptPubKey": {"reqSigs": 1, "hex": "76a9143257a7ff11ff45a71fded16731a1aaa80457a37e88ac", "addresses": ["15bBo47AsM5Vb6LpdoCkbxmM6stfTEDJf1"], "asm": "OP_DUP OP_HASH160 3257a7ff11ff45a71fded16731a1aaa80457a37e OP_EQUALVERIFY OP_CHECKSIG", "type": "pubkeyhash"}, "value": 0.0028, "n": 11}, {"scriptPubKey": {"reqSigs": 1, "hex": "a91403ac5c18656c751e30da84de3e5d9a66fdb74ef087", "addresses": ["322SRtFVHXFdxhHgZDNRRWpdHnJVFTCcpi"], "asm": "OP_HASH160 03ac5c18656c751e30da84de3e5d9a66fdb74ef0 OP_EQUAL", "type": "scripthash"}, "value": 0.002844, "n": 12}, {"scriptPubKey": {"reqSigs": 1, "hex": "a9146b13bef94d64ad687addc923237c1d86c1bd99d587", "addresses": ["3BTBt3a9kmGquwwQt5rMMwpd7aqdfvzpQr"], "asm": "OP_HASH160 6b13bef94d64ad687addc923237c1d86c1bd99d5 OP_EQUAL", "type": "scripthash"}, "value": 0.0023766, "n": 13}, {"scriptPubKey": {"reqSigs": 1, "hex": "a91443437c0b11707c1b692c3b9833cda6afb431753587", "addresses": ["37pg3JdGurVdLUeXknfAFc3DLNf9CsKGJS"], "asm": "OP_HASH160 43437c0b11707c1b692c3b9833cda6afb4317535 OP_EQUAL", "type": "scripthash"}, "value": 0.0028406, "n": 14}, {"scriptPubKey": {"reqSigs": 1, "hex": "a91473e722b79e50dadaaa407267146bcf0ece9029d687", "addresses": ["3CFrXBschUYdXj6YLRSrS8eC1guiy1YPJ6"], "asm": "OP_HASH160 73e722b79e50dadaaa407267146bcf0ece9029d6 OP_EQUAL", "type": "scripthash"}, "value": 0.005688, "n": 15}, {"scriptPubKey": {"reqSigs": 1, "hex": "a914581397c425117b6bf288bfe0d26c18eb607b262887", "addresses": ["39iirkyVZLymu3MxK6Xpi7kmrSXFscGXfx"], "asm": "OP_HASH160 581397c425117b6bf288bfe0d26c18eb607b2628 OP_EQUAL", "type": "scripthash"}, "value": 0.0033246, "n": 16}, {"scriptPubKey": {"reqSigs": 1, "hex": "a9148d32482a4a34db2f927756d26f7ec3330d4bbdaa87", "addresses": ["3EZbSEpqhAqHqBeP2w6hmaj4yogxJsP9bk"], "asm": "OP_HASH160 8d32482a4a34db2f927756d26f7ec3330d4bbdaa OP_EQUAL", "type": "scripthash"}, "value": 0.0019236, "n": 17}, {"scriptPubKey": {"reqSigs": 1, "hex": "a91492bc50e6c1ee5ab8c565f8b7ca3af101bf25f95f87", "addresses": ["3F4tAyeeYjvW14CPhxYknGHUfhJ5EJCZUx"], "asm": "OP_HASH160 92bc50e6c1ee5ab8c565f8b7ca3af101bf25f95f OP_EQUAL", "type": "scripthash"}, "value": 0.0025646, "n": 18}, {"scriptPubKey": {"reqSigs": 1, "hex": "a91427382aa1d09a21df0daee5054b061540b21f832087", "addresses": ["35GPZYWr2e7adnMZteG5v8cbRkkBpUeYr4"], "asm": "OP_HASH160 27382aa1d09a21df0daee5054b061540b21f8320 OP_EQUAL", "type": "scripthash"}, "value": 0.62795986, "n": 19}], "hex": "02000000000101dfe7a6312ce31984ed9cc017df2373270558a0bcffd677fda25b08d0933a2c830400000017160014c396a72603e9e90a70acfc8db61fed63b3d2108bfeffffff14d48604000000000017a914e2e673014d3e6ab2927c1d0be09d4445a6612ff48773a401000000000017a914fd3f98392e9905c0735cfd557f58eba486d314b187af0f04000000000017a914f16f9e122342141e56166ed5d0df4f4b3df57d3587902c07000000000017a914a736051d509c7ab08584d0f809723be62924ebad87369b07000000000017a914ca6fb8e78c04090825b41598a903ba4e753da0ac87562709000000000017a914c4d07fcd0a60fb57c9bf782da12b1d5632b5700087cce903000000000017a914b0bca14d2d228198b08b0c823f05213d4ee4cbda875ce504000000000017a914cf5836e7f7f93d3b0c226333bd2dc2140537883287c67c0300000000001976a914ebd9c347cfa97312b8d0b2a7f94145c5fb252c8188ac004303000000000017a914daf475b5f95243c992ae374fc599302d936e592987a82104000000000017a914742edea71f1b4b7f86cb50c648383a2ba8746af287c0450400000000001976a9143257a7ff11ff45a71fded16731a1aaa80457a37e88acf05604000000000017a91403ac5c18656c751e30da84de3e5d9a66fdb74ef0875ca003000000000017a9146b13bef94d64ad687addc923237c1d86c1bd99d5879c5504000000000017a91443437c0b11707c1b692c3b9833cda6afb431753587e0ad08000000000017a91473e722b79e50dadaaa407267146bcf0ece9029d687ac1205000000000017a914581397c425117b6bf288bfe0d26c18eb607b26288768ef02000000000017a9148d32482a4a34db2f927756d26f7ec3330d4bbdaa87cce903000000000017a91492bc50e6c1ee5ab8c565f8b7ca3af101bf25f95f87d230be030000000017a91427382aa1d09a21df0daee5054b061540b21f83208702483045022100ff4cba10da164fa9ee75508ae6f9fc48db17f633bf6be57b8fd9933267e1236c0220691207a893cb27f23719fba6fb1acb07beab04812f70a39437454a69ef140cd80121038f191c36017053dd3903a8cb33819d1ef9cbed08834384ba719290d42e9f4d7015490800", "vin": [{"txinwitness": ["3045022100ff4cba10da164fa9ee75508ae6f9fc48db17f633bf6be57b8fd9933267e1236c0220691207a893cb27f23719fba6fb1acb07beab04812f70a39437454a69ef140cd801", "038f191c36017053dd3903a8cb33819d1ef9cbed08834384ba719290d42e9f4d70"], "sequence": 4294967294, "scriptSig": {"hex": "160014c396a72603e9e90a70acfc8db61fed63b3d2108b", "asm": "0014c396a72603e9e90a70acfc8db61fed63b3d2108b"}, "vout": 4, "txid": "832c3a93d0085ba2fd77d6ffbca05805277323df17c09ced8419e32c31a6e7df"}], "txid": "fd5ee0307accc53b129732b67d9e82048faca14a7ee2857fd14ad472d0493713", "blocktime": 1537874412, "version": 2, "confirmations": 11466, "time": 1537874412, "locktime": 542997, "vsize": 746, "size": 828}