{"hash": "fd5f3557c5e5220f266453ddcad04b55a003ac8a833e45980b0a506d0d1b2ead", "blockhash": "0000000000000000000e13cef7c366c0283d82e591d1acd082e914b08063cdf1", "vout": [{"scriptPubKey": {"reqSigs": 1, "hex": "76a9145de05d59e2dad578285934e4694e431451f20e2e88ac", "addresses": ["19ZNcyEjuzcmRBF9vQDJS8iB5oe3Rx7ayn"], "asm": "OP_DUP OP_HASH160 5de05d59e2dad578285934e4694e431451f20e2e OP_EQUALVERIFY OP_CHECKSIG", "type": "pubkeyhash"}, "value": 0.00234441, "n": 0}, {"scriptPubKey": {"reqSigs": 1, "hex": "76a91493c8cb4d2e04fd09ebebd8c4f7c80f67853a001c88ac", "addresses": ["1EUQsd1skknu2K3JitPqEdx2F4naUdZx2a"], "asm": "OP_DUP OP_HASH160 93c8cb4d2e04fd09ebebd8c4f7c80f67853a001c OP_EQUALVERIFY OP_CHECKSIG", "type": "pubkeyhash"}, "value": 0.00931533, "n": 1}], "hex": "0100000001be0fc5bd951eedef96d8c074e84da24a97983f66b216d0b2d143a4322230a676010000006b483045022100bffa078878cad3881fe79a9c65d7189278b07fea98cab854fb54ddad0f71516302207f3c8d2600123782825eb0dd176fb85371501944325e4bf1ad0a5ddeb5b22ead0121029fdfaed41b2f35a16dff2fa8c7a65191b54d6da031b263b7fbcb553070b238e8feffffff02c9930300000000001976a9145de05d59e2dad578285934e4694e431451f20e2e88accd360e00000000001976a91493c8cb4d2e04fd09ebebd8c4f7c80f67853a001c88ac00000000", "vin": [{"sequence": 4294967294, "scriptSig": {"hex": "483045022100bffa078878cad3881fe79a9c65d7189278b07fea98cab854fb54ddad0f71516302207f3c8d2600123782825eb0dd176fb85371501944325e4bf1ad0a5ddeb5b22ead0121029fdfaed41b2f35a16dff2fa8c7a65191b54d6da031b263b7fbcb553070b238e8", "asm": "3045022100bffa078878cad3881fe79a9c65d7189278b07fea98cab854fb54ddad0f71516302207f3c8d2600123782825eb0dd176fb85371501944325e4bf1ad0a5ddeb5b22ead[ALL] 029fdfaed41b2f35a16dff2fa8c7a65191b54d6da031b263b7fbcb553070b238e8"}, "vout": 1, "txid": "76a6302232a443d1b2d016b2663f98974aa24de874c0d896efed1e95bdc50fbe"}], "txid": "fd5f3557c5e5220f266453ddcad04b55a003ac8a833e45980b0a506d0d1b2ead", "blocktime": 1537871767, "version": 1, "confirmations": 11490, "time": 1537871767, "locktime": 0, "vsize": 226, "size": 226}