{"hash": "fd5f8d431d7a4dc6a750e9a950c7fb7cc9e3f3e39169e88069b33b67f96db9d4", "blockhash": "0000000000000000001e0dab787dd257d1dbfcb92a98c2207d5e1078be1f4165", "vout": [{"scriptPubKey": {"reqSigs": 1, "hex": "76a91451b19aed0bec2774c2689d62c41d3e4c024de9e988ac", "addresses": ["18SxVmDyUqCmBf6mTEfBhDiGzfZH8Xh72x"], "asm": "OP_DUP OP_HASH160 51b19aed0bec2774c2689d62c41d3e4c024de9e9 OP_EQUALVERIFY OP_CHECKSIG", "type": "pubkeyhash"}, "value": 5.46e-06, "n": 0}, {"scriptPubKey": {"reqSigs": 1, "hex": "a9143f4eecba122ad73039d481c8d37f99cb4f887cd887", "addresses": ["37Tm3Qz8Zw2VJrheUUhArDAoq58S6YrS3g"], "asm": "OP_HASH160 3f4eecba122ad73039d481c8d37f99cb4f887cd8 OP_EQUAL", "type": "scripthash"}, "value": 0.99997454, "n": 1}, {"scriptPubKey": {"type": "nulldata", "hex": "6a146f6d6e69000000000000001f000000003b9aca00", "asm": "OP_RETURN 6f6d6e69000000000000001f000000003b9aca00"}, "value": 0.0, "n": 2}], "hex": "0100000001a255efca9d6e88f02077e2ff5a2cba2dea5c584661aa876c01c37eea1fdac89500000000fdfe0000483045022100a83f2e4c675976dc91e40900490951eb27055d412e47c6f48768f294e10c618f0220444f51337f2e3013547ed2fdb69dc9faadb8c3f3742f8d7d04ee7c898ad0fea7014830450221009d0d9625797fe940e7330a1fdfdffc97d7a1d8cee6c95891797580189983738a02204a39d31cf83fde493ba0a30e178ee68f376eb1e70d990ad6eebfe0024370820f014c6952210246ccf4de0c54cc7f3354cdd993c2c50cf965fd82238b89659fbd73a1b4bf05a121024fc59f72272a897fe43803374969f396058152fe4765a8d15216f94624257b1b21022593bc69ecbf3bbcc3c58082267cb49dadaf4ca8dbf1b2297338a9d628c4297653aeffffffff0322020000000000001976a91451b19aed0bec2774c2689d62c41d3e4c024de9e988ac0ed7f5050000000017a9143f4eecba122ad73039d481c8d37f99cb4f887cd8870000000000000000166a146f6d6e69000000000000001f000000003b9aca0000000000", "vin": [{"sequence": 4294967295, "scriptSig": {"hex": "00483045022100a83f2e4c675976dc91e40900490951eb27055d412e47c6f48768f294e10c618f0220444f51337f2e3013547ed2fdb69dc9faadb8c3f3742f8d7d04ee7c898ad0fea7014830450221009d0d9625797fe940e7330a1fdfdffc97d7a1d8cee6c95891797580189983738a02204a39d31cf83fde493ba0a30e178ee68f376eb1e70d990ad6eebfe0024370820f014c6952210246ccf4de0c54cc7f3354cdd993c2c50cf965fd82238b89659fbd73a1b4bf05a121024fc59f72272a897fe43803374969f396058152fe4765a8d15216f94624257b1b21022593bc69ecbf3bbcc3c58082267cb49dadaf4ca8dbf1b2297338a9d628c4297653ae", "asm": "0 3045022100a83f2e4c675976dc91e40900490951eb27055d412e47c6f48768f294e10c618f0220444f51337f2e3013547ed2fdb69dc9faadb8c3f3742f8d7d04ee7c898ad0fea7[ALL] 30450221009d0d9625797fe940e7330a1fdfdffc97d7a1d8cee6c95891797580189983738a02204a39d31cf83fde493ba0a30e178ee68f376eb1e70d990ad6eebfe0024370820f[ALL] 52210246ccf4de0c54cc7f3354cdd993c2c50cf965fd82238b89659fbd73a1b4bf05a121024fc59f72272a897fe43803374969f396058152fe4765a8d15216f94624257b1b21022593bc69ecbf3bbcc3c58082267cb49dadaf4ca8dbf1b2297338a9d628c4297653ae"}, "vout": 0, "txid": "95c8da1fea7ec3016c87aa6146585cea2dba2c5affe27720f0886e9dcaef55a2"}], "txid": "fd5f8d431d7a4dc6a750e9a950c7fb7cc9e3f3e39169e88069b33b67f96db9d4", "blocktime": 1537872475, "version": 1, "confirmations": 11486, "time": 1537872475, "locktime": 0, "vsize": 404, "size": 404}