{"hash": "751d77a701e08123a34b79601a42ea98cfb38f8aeed31941d2f60ca9f455a9bd", "blockhash": "0000000000000000001f76057863aec43deb6fa401d9628bb513d65a8098bfab", "vout": [{"scriptPubKey": {"reqSigs": 1, "hex": "76a914d279060f9ac6d8c04b2b899c0f56b1ed6652ff8388ac", "addresses": ["1LBstA6Rye5mUYYQgrdmMwEWHHAcqno9aK"], "asm": "OP_DUP OP_HASH160 d279060f9ac6d8c04b2b899c0f56b1ed6652ff83 OP_EQUALVERIFY OP_CHECKSIG", "type": "pubkeyhash"}, "value": 0.143276, "n": 0}], "hex": "020000000001033443b7f8cc9c0da0a181da38514d4b5c990c5c39176cccd0613856d9f6bd96a90000000017160014a710779ddc892f8215aa0de4ac31955b0f385781feffffff409c1fd7515813f1605c787888c7598b01741140ec6ce89af5b3c414fffcbe2800000000171600147f15d39aa41557259315b2b258cd70b7ebfbec39feffffff50193cd2df6a9615b9d1aead31bdbb0a28d5cef1c4b27cd67113f56a43b402300900000017160014a5f5afc42ffa0267943e7a55eb84879160721fcbfeffffff01309fda00000000001976a914d279060f9ac6d8c04b2b899c0f56b1ed6652ff8388ac0247304402205388bb8b5d20a3c4a3bc337bc9092a193b78b72e56fb3476debaf464859b7a5b0220665e83fbef3e8db954fb9fd7af2186efaf0a1244ed180e60612ce2d16036b603012103bdf6c9cb1ccc5b5023377b52d5f6133e43594ba0a1ea86706fc68bf49720ee6f02473044022061d417bb919ee84ac1f66cda2f5344290d62395f08fcbba99a08325eb81d8fcc022044a6c36ed86648a2b4a2ead8e916250b2aa2ab5d41af187bd64bc333559679fb012102c75467777b3c411a4b117cd801066ce3fcec81d9d4e24f44342172f5be2c9ee702473044022009abb4f4755dd43bb80acccbcdbc4ddcf6a5c1927bd8ad236eb258b8979c58c2022011b663e172e1751d5d455a019fd609b3fd6643f58315e5eef74bd36c203a6e7d0121024e21a38a996f506f33bd72ba93c8bd4bab7ac7233f3553c05820baf4d3988e1f0a490800", "vin": [{"txinwitness": ["304402205388bb8b5d20a3c4a3bc337bc9092a193b78b72e56fb3476debaf464859b7a5b0220665e83fbef3e8db954fb9fd7af2186efaf0a1244ed180e60612ce2d16036b60301", "03bdf6c9cb1ccc5b5023377b52d5f6133e43594ba0a1ea86706fc68bf49720ee6f"], "sequence": 4294967294, "scriptSig": {"hex": "160014a710779ddc892f8215aa0de4ac31955b0f385781", "asm": "0014a710779ddc892f8215aa0de4ac31955b0f385781"}, "vout": 0, "txid": "a996bdf6d9563861d0cc6c17395c0c995c4b4d5138da81a1a00d9cccf8b74334"}, {"txinwitness": ["3044022061d417bb919ee84ac1f66cda2f5344290d62395f08fcbba99a08325eb81d8fcc022044a6c36ed86648a2b4a2ead8e916250b2aa2ab5d41af187bd64bc333559679fb01", "02c75467777b3c411a4b117cd801066ce3fcec81d9d4e24f44342172f5be2c9ee7"], "sequence": 4294967294, "scriptSig": {"hex": "1600147f15d39aa41557259315b2b258cd70b7ebfbec39", "asm": "00147f15d39aa41557259315b2b258cd70b7ebfbec39"}, "vout": 0, "txid": "28befcff14c4b3f59ae86cec401174018b59c78878785c60f1135851d71f9c40"}, {"txinwitness": ["3044022009abb4f4755dd43bb80acccbcdbc4ddcf6a5c1927bd8ad236eb258b8979c58c2022011b663e172e1751d5d455a019fd609b3fd6643f58315e5eef74bd36c203a6e7d01", "024e21a38a996f506f33bd72ba93c8bd4bab7ac7233f3553c05820baf4d3988e1f"], "sequence": 4294967294, "scriptSig": {"hex": "160014a5f5afc42ffa0267943e7a55eb84879160721fcb", "asm": "0014a5f5afc42ffa0267943e7a55eb84879160721fcb"}, "vout": 9, "txid": "3002b4436af51371d67cb2c4f1ced5280abbbd31adaed1b915966adfd23c1950"}], "txid": "fd605ee618533597b2e0e4fc77c92ea67c0e04d05d3df0fb036042ec68151be6", "blocktime": 1537873891, "version": 2, "confirmations": 11475, "time": 1537873891, "locktime": 542986, "vsize": 317, "size": 559}