{"hash": "fd6210c391f73891a6340232b8c3cde909830e9347b5177759991b1e1dd545ae", "blockhash": "0000000000000000000e13cef7c366c0283d82e591d1acd082e914b08063cdf1", "vout": [{"scriptPubKey": {"reqSigs": 1, "hex": "a914a99928890ea497ef20b496f65ed8a46cc203ddfc87", "addresses": ["3H9mbbF5u96hjou8jwKm5Mcoyjixmj7Vez"], "asm": "OP_HASH160 a99928890ea497ef20b496f65ed8a46cc203ddfc OP_EQUAL", "type": "scripthash"}, "value": 0.001, "n": 0}, {"scriptPubKey": {"reqSigs": 1, "hex": "76a9140c97e6c4982250007781fa02f25af716783ab56f88ac", "addresses": ["129b5bjZEXRcNzV9AnzqkbRdJ3TPC4CSih"], "asm": "OP_DUP OP_HASH160 0c97e6c4982250007781fa02f25af716783ab56f OP_EQUALVERIFY OP_CHECKSIG", "type": "pubkeyhash"}, "value": 0.08547966, "n": 1}], "hex": "01000000014079b6be32b5976712b7902e6e9080fe980e5f67fdeb34c52e71ead0fba89334010000006b483045022100feb9ef34c4ff8e321650b99880a247fc08fffe36643e720e9aea18b3670e7c7f02205c539aea0b753d7f872c59877c3272406bcdb3631648e054980f34a5fa3f658601210299385d6e26ca05e5ea7e9b193bba06ad6a4b8c613cf963b9da8e8942b41edc3affffffff02a08601000000000017a914a99928890ea497ef20b496f65ed8a46cc203ddfc877e6e8200000000001976a9140c97e6c4982250007781fa02f25af716783ab56f88ac00000000", "vin": [{"sequence": 4294967295, "scriptSig": {"hex": "483045022100feb9ef34c4ff8e321650b99880a247fc08fffe36643e720e9aea18b3670e7c7f02205c539aea0b753d7f872c59877c3272406bcdb3631648e054980f34a5fa3f658601210299385d6e26ca05e5ea7e9b193bba06ad6a4b8c613cf963b9da8e8942b41edc3a", "asm": "3045022100feb9ef34c4ff8e321650b99880a247fc08fffe36643e720e9aea18b3670e7c7f02205c539aea0b753d7f872c59877c3272406bcdb3631648e054980f34a5fa3f6586[ALL] 0299385d6e26ca05e5ea7e9b193bba06ad6a4b8c613cf963b9da8e8942b41edc3a"}, "vout": 1, "txid": "3493a8fbd0ea712ec534ebfd675f0e98fe80906e2e90b7126797b532beb67940"}], "txid": "fd6210c391f73891a6340232b8c3cde909830e9347b5177759991b1e1dd545ae", "blocktime": 1537871767, "version": 1, "confirmations": 11495, "time": 1537871767, "locktime": 0, "vsize": 224, "size": 224}