{"hash": "1a1fda4f7d1ea099544818131a4a12a8a842485acb67f1808f8331446e2f64d0", "blockhash": "00000000000000000004ffacab907a6b429b9a5745fa0b75af4234bf69dd7176", "vout": [{"scriptPubKey": {"reqSigs": 1, "hex": "76a914e3e731d1b91bb3d89ec1e3339f4c75cc854e5a3c88ac", "addresses": ["1Mn3MEFEx5CpvVhpoyVUHq8E2Pq2qH86px"], "asm": "OP_DUP OP_HASH160 e3e731d1b91bb3d89ec1e3339f4c75cc854e5a3c OP_EQUALVERIFY OP_CHECKSIG", "type": "pubkeyhash"}, "value": 0.90746864, "n": 0}, {"scriptPubKey": {"reqSigs": 1, "hex": "a91403285902dfb632e690899930da22fdec741e731387", "addresses": ["31yiHXVihJCjyUfYxfmQxPctfggvPqmgEM"], "asm": "OP_HASH160 03285902dfb632e690899930da22fdec741e7313 OP_EQUAL", "type": "scripthash"}, "value": 0.42736383, "n": 1}], "hex": "02000000000101d836c6c1fd99206db628e2017e5f41b8668d2cf0aba882dfe888be08276912a9020000001716001447f50a39e2ab6b7bf1fc011fed6eeb167e06f858ffffffff02f0af6805000000001976a914e3e731d1b91bb3d89ec1e3339f4c75cc854e5a3c88acff1a8c020000000017a91403285902dfb632e690899930da22fdec741e7313870247304402203ff4f3c01d9b7d8e869192ac906ff999d15d9bfccc2b6401d93dc16fc60ce8100220313261c3e7d8722d3a4c9962b2b43304ee704fef571ea45d1ddb5e9ad420c4cb012102e824bbed72c75f299f8701421b0fe99db9b4311a217a97d4d3cde7b724dee5c000000000", "vin": [{"txinwitness": ["304402203ff4f3c01d9b7d8e869192ac906ff999d15d9bfccc2b6401d93dc16fc60ce8100220313261c3e7d8722d3a4c9962b2b43304ee704fef571ea45d1ddb5e9ad420c4cb01", "02e824bbed72c75f299f8701421b0fe99db9b4311a217a97d4d3cde7b724dee5c0"], "sequence": 4294967295, "scriptSig": {"hex": "16001447f50a39e2ab6b7bf1fc011fed6eeb167e06f858", "asm": "001447f50a39e2ab6b7bf1fc011fed6eeb167e06f858"}, "vout": 2, "txid": "a912692708be88e8df82a8abf02c8d66b8415f7e01e228b66d2099fdc1c636d8"}], "txid": "fd6af860df291535e43fe71cb7e5a3ca7fcf9a4a5409536b816a3a640a6aac6e", "blocktime": 1537875543, "version": 2, "confirmations": 11464, "time": 1537875543, "locktime": 0, "vsize": 168, "size": 249}