{"hash": "fd6cd5c5cb7214268e2bf5640d799d66dc420c9f7ad3166a28fab5fc6b0c7c4a", "blockhash": "00000000000000000004ffacab907a6b429b9a5745fa0b75af4234bf69dd7176", "vout": [{"scriptPubKey": {"type": "nulldata", "hex": "6a4c500000781200019ea81852a3ac197c827451f0702940d64fa54d8eb2d19ed074892d00f8e88d9486b3bde175d74214236408f9cfe15baa1b9c0614b4f305b02530c288b2720c27cdda35b5f050e1b42260", "asm": "OP_RETURN 0000781200019ea81852a3ac197c827451f0702940d64fa54d8eb2d19ed074892d00f8e88d9486b3bde175d74214236408f9cfe15baa1b9c0614b4f305b02530c288b2720c27cdda35b5f050e1b42260"}, "value": 0.0, "n": 0}, {"scriptPubKey": {"reqSigs": 1, "hex": "76a914081a82f626c97c2e6b207c2550e9e574e047792c88ac", "addresses": ["1jrAbGATVkcf3RVp6sCD2sNXZQFAvuxAm"], "asm": "OP_DUP OP_HASH160 081a82f626c97c2e6b207c2550e9e574e047792c OP_EQUALVERIFY OP_CHECKSIG", "type": "pubkeyhash"}, "value": 0.00107196, "n": 1}], "hex": "010000000189fee12ad68b79cfeec5c6246a072c9d63c07a61c94aea54751ddd3ffda360a7000000006b483045022100cb030a6ba44b2f11c7e383c9406d4f8b37d2643bcb8617b6b201ecbb8eb7e7a40220255bceb2ceeb8208388dc39e1de5d75f0c406dc094407da84a1e4b3dae9c9b44012102df39d7663fd037f02a9d031db8434555feec119a4f305989ce6e5cfe3aeaca2bffffffff020000000000000000536a4c500000781200019ea81852a3ac197c827451f0702940d64fa54d8eb2d19ed074892d00f8e88d9486b3bde175d74214236408f9cfe15baa1b9c0614b4f305b02530c288b2720c27cdda35b5f050e1b42260bca20100000000001976a914081a82f626c97c2e6b207c2550e9e574e047792c88ac00000000", "vin": [{"sequence": 4294967295, "scriptSig": {"hex": "483045022100cb030a6ba44b2f11c7e383c9406d4f8b37d2643bcb8617b6b201ecbb8eb7e7a40220255bceb2ceeb8208388dc39e1de5d75f0c406dc094407da84a1e4b3dae9c9b44012102df39d7663fd037f02a9d031db8434555feec119a4f305989ce6e5cfe3aeaca2b", "asm": "3045022100cb030a6ba44b2f11c7e383c9406d4f8b37d2643bcb8617b6b201ecbb8eb7e7a40220255bceb2ceeb8208388dc39e1de5d75f0c406dc094407da84a1e4b3dae9c9b44[ALL] 02df39d7663fd037f02a9d031db8434555feec119a4f305989ce6e5cfe3aeaca2b"}, "vout": 0, "txid": "a760a3fd3fdd1d7554ea4ac9617ac0639d2c076a24c6c5eecf798bd62ae1fe89"}], "txid": "fd6cd5c5cb7214268e2bf5640d799d66dc420c9f7ad3166a28fab5fc6b0c7c4a", "blocktime": 1537875543, "version": 1, "confirmations": 11464, "time": 1537875543, "locktime": 0, "vsize": 284, "size": 284}