{"hash": "fd6cd9c1aa523918e23e38c0c2fe83179d10d48a5a959663bc1598a53d0c5a1e", "blockhash": "0000000000000000001f0ddff1eddb255c1121bcd4da4f1bc9a0da00cae72433", "vout": [{"scriptPubKey": {"reqSigs": 1, "hex": "a914476371430af7044975bd1201150b22df77eadd8c87", "addresses": ["38CV2YZ3w9hK21mYJJrUW66XGsyDpo277R"], "asm": "OP_HASH160 476371430af7044975bd1201150b22df77eadd8c OP_EQUAL", "type": "scripthash"}, "value": 0.0012496, "n": 0}, {"scriptPubKey": {"reqSigs": 1, "hex": "76a914bcda5ec0a2b64edb6ae73eb493f052966d9278de88ac", "addresses": ["1JDZdgpV28KX5CjysWXCmVRipFdAFgoAUq"], "asm": "OP_DUP OP_HASH160 bcda5ec0a2b64edb6ae73eb493f052966d9278de OP_EQUALVERIFY OP_CHECKSIG", "type": "pubkeyhash"}, "value": 0.00312748, "n": 1}], "hex": "010000000146952c25ba88186ab36eb56b85bedc33c2a9bad785b2257a685e7e797d191a81000000006a473044022047d4c1016180f060d6bd8bf3aad239c3d315bfcb3bbbb0c302cb04f4f6ee987a02207465d2f19fd082e27c380fb9d53823765282cded4f029178e137f9f2ab27a879012102ffb5514d633f134e6e178cce68772b2c2ffd176c75a4b730eb4ff1b0ee306b9affffffff0220e801000000000017a914476371430af7044975bd1201150b22df77eadd8c87acc50400000000001976a914bcda5ec0a2b64edb6ae73eb493f052966d9278de88ac00000000", "vin": [{"sequence": 4294967295, "scriptSig": {"hex": "473044022047d4c1016180f060d6bd8bf3aad239c3d315bfcb3bbbb0c302cb04f4f6ee987a02207465d2f19fd082e27c380fb9d53823765282cded4f029178e137f9f2ab27a879012102ffb5514d633f134e6e178cce68772b2c2ffd176c75a4b730eb4ff1b0ee306b9a", "asm": "3044022047d4c1016180f060d6bd8bf3aad239c3d315bfcb3bbbb0c302cb04f4f6ee987a02207465d2f19fd082e27c380fb9d53823765282cded4f029178e137f9f2ab27a879[ALL] 02ffb5514d633f134e6e178cce68772b2c2ffd176c75a4b730eb4ff1b0ee306b9a"}, "vout": 0, "txid": "811a197d797e5e687a25b285d7baa9c233dcbe856bb56eb36a1888ba252c9546"}], "txid": "fd6cd9c1aa523918e23e38c0c2fe83179d10d48a5a959663bc1598a53d0c5a1e", "blocktime": 1537872018, "version": 1, "confirmations": 11489, "time": 1537872018, "locktime": 0, "vsize": 223, "size": 223}