{"hash": "dbc37250c1501f9bad46b992916c4d936eb29d247519ffdac8b1633c44e5be29", "blockhash": "0000000000000000001f76057863aec43deb6fa401d9628bb513d65a8098bfab", "vout": [{"scriptPubKey": {"reqSigs": 1, "hex": "76a914b3610937627e2a5845cbb16013c879b28f2134d188ac", "addresses": ["1HMUCWzvMED2P8UL94qd698wkQPD2ZLLRn"], "asm": "OP_DUP OP_HASH160 b3610937627e2a5845cbb16013c879b28f2134d1 OP_EQUALVERIFY OP_CHECKSIG", "type": "pubkeyhash"}, "value": 0.022248, "n": 0}, {"scriptPubKey": {"reqSigs": 1, "hex": "a91409709defb9ff4d62dd81cc8b3a81d797c0b6144287", "addresses": ["32Yvv2q3VtHFfbc8QqPWQRt2frQh6PftJb"], "asm": "OP_HASH160 09709defb9ff4d62dd81cc8b3a81d797c0b61442 OP_EQUAL", "type": "scripthash"}, "value": 3.75148873, "n": 1}], "hex": "01000000000101ea12e7597605a209e6349ce45ebb6a48db9d482ead6cf92af0135d84c449e92f01000000171600148a3e49dfe0134cc50cb003dd419598e0d50225f4fdffffff02a0f22100000000001976a914b3610937627e2a5845cbb16013c879b28f2134d188ac49515c160000000017a91409709defb9ff4d62dd81cc8b3a81d797c0b614428702483045022100c470d20a343d49d86f878342e6854358141db84ce68e908cbe82743b95a469840220768dff81a2c4a8c76f6abbbc545d98d846a3588bcb89556fe969da1fbef12d6701210207b1ada3ab457d68cee92b8152a91b7b5b90eac82724a64b392f68516150f92814490800", "vin": [{"txinwitness": ["3045022100c470d20a343d49d86f878342e6854358141db84ce68e908cbe82743b95a469840220768dff81a2c4a8c76f6abbbc545d98d846a3588bcb89556fe969da1fbef12d6701", "0207b1ada3ab457d68cee92b8152a91b7b5b90eac82724a64b392f68516150f928"], "sequence": 4294967293, "scriptSig": {"hex": "1600148a3e49dfe0134cc50cb003dd419598e0d50225f4", "asm": "00148a3e49dfe0134cc50cb003dd419598e0d50225f4"}, "vout": 1, "txid": "2fe949c4845d13f02af96cad2e489ddb486abb5ee49c34e609a2057659e712ea"}], "txid": "fd6f3937a049e261787d7024abec013c6e639d807dcb3a2d3c4a04be214d0de2", "blocktime": 1537873891, "version": 1, "confirmations": 11474, "time": 1537873891, "locktime": 542996, "vsize": 168, "size": 250}