{"hash": "fd7b4cf564f965a7accac74b7faa6ee8baaa440b95cb937ef2382fcbf36bdee7", "blockhash": "00000000000000000004ffacab907a6b429b9a5745fa0b75af4234bf69dd7176", "vout": [{"scriptPubKey": {"reqSigs": 1, "hex": "76a914c4ce07e91ad2a47d9e655a10fe9b2cda9e1d051288ac", "addresses": ["1JwcFsrEFN4Xx926mR5dVf5K7jdXnVSfUn"], "asm": "OP_DUP OP_HASH160 c4ce07e91ad2a47d9e655a10fe9b2cda9e1d0512 OP_EQUALVERIFY OP_CHECKSIG", "type": "pubkeyhash"}, "value": 0.00056335, "n": 0}, {"scriptPubKey": {"reqSigs": 1, "hex": "76a914a7e32aaf8d24bf138be271ade0e135328f6e335a88ac", "addresses": ["1GJhyrjrkUinNiS85XJiPpPfrYRjaXNwA8"], "asm": "OP_DUP OP_HASH160 a7e32aaf8d24bf138be271ade0e135328f6e335a OP_EQUALVERIFY OP_CHECKSIG", "type": "pubkeyhash"}, "value": 0.06174245, "n": 1}], "hex": "010000000183ed9b536e0e1ea8fafad78495baec56293990c101ed7bff0a1c01acbcfaa361050000006b4830450221009cac809f84853ee3f8af94ec0ff8f3f4f90eacec852475f5190e2fa76f89ed7002201dd973210292001feb7c90ef76c0089ae71cad061ab828b88f85bb2133124a3e01210216e35e8fba8fe9ff271c09c5a8208d5a23052b168a4fd4a402a047220b8f9dd2ffffffff020fdc0000000000001976a914c4ce07e91ad2a47d9e655a10fe9b2cda9e1d051288ac25365e00000000001976a914a7e32aaf8d24bf138be271ade0e135328f6e335a88ac00000000", "vin": [{"sequence": 4294967295, "scriptSig": {"hex": "4830450221009cac809f84853ee3f8af94ec0ff8f3f4f90eacec852475f5190e2fa76f89ed7002201dd973210292001feb7c90ef76c0089ae71cad061ab828b88f85bb2133124a3e01210216e35e8fba8fe9ff271c09c5a8208d5a23052b168a4fd4a402a047220b8f9dd2", "asm": "30450221009cac809f84853ee3f8af94ec0ff8f3f4f90eacec852475f5190e2fa76f89ed7002201dd973210292001feb7c90ef76c0089ae71cad061ab828b88f85bb2133124a3e[ALL] 0216e35e8fba8fe9ff271c09c5a8208d5a23052b168a4fd4a402a047220b8f9dd2"}, "vout": 5, "txid": "61a3fabcac011c0aff7bed01c190392956ecba9584d7fafaa81e0e6e539bed83"}], "txid": "fd7b4cf564f965a7accac74b7faa6ee8baaa440b95cb937ef2382fcbf36bdee7", "blocktime": 1537875543, "version": 1, "confirmations": 11464, "time": 1537875543, "locktime": 0, "vsize": 226, "size": 226}