{"hash": "fd816791496e0567aa0e221b925e0052a4038b8103ff9d1718b29f315d2e8bdd", "blockhash": "0000000000000000001f0ddff1eddb255c1121bcd4da4f1bc9a0da00cae72433", "vout": [{"scriptPubKey": {"type": "nulldata", "hex": "6a146f6d6e69000000000000001f0000002e5502587d", "asm": "OP_RETURN 6f6d6e69000000000000001f0000002e5502587d"}, "value": 0.0, "n": 0}, {"scriptPubKey": {"reqSigs": 1, "hex": "76a914a25dec4d0011064ef106a983c39c7a540699f22088ac", "addresses": ["1FoWyxwPXuj4C6abqwhjDWdz6D4PZgYRjA"], "asm": "OP_DUP OP_HASH160 a25dec4d0011064ef106a983c39c7a540699f220 OP_EQUALVERIFY OP_CHECKSIG", "type": "pubkeyhash"}, "value": 0.01990376, "n": 1}, {"scriptPubKey": {"reqSigs": 1, "hex": "76a914d9dd68d0d10cfdf105e0fbe73dda1618ba60f95a88ac", "addresses": ["1LrxsRd7zNuxPJcL5rttnoeJFy1y4AffYY"], "asm": "OP_DUP OP_HASH160 d9dd68d0d10cfdf105e0fbe73dda1618ba60f95a OP_EQUALVERIFY OP_CHECKSIG", "type": "pubkeyhash"}, "value": 5.46e-06, "n": 2}], "hex": "01000000016d3648bcab6fe7d1b198db8673af1f75160b36be0197c2deb73f34a460157207010000006a473044022026499600e6bfbe1eabaef67bb3e1d28c149cfebfcba3b4d808de888f8eacdd3c022023ca597dedcbad6d5eebd4844f9b6b68b501c29b78c975108eed5f7c3fd2d15d012103da5bac7b36d5aa38f531c6b9601e21bb598a4b6716ebed38b009a55dabde9440feffffff030000000000000000166a146f6d6e69000000000000001f0000002e5502587de85e1e00000000001976a914a25dec4d0011064ef106a983c39c7a540699f22088ac22020000000000001976a914d9dd68d0d10cfdf105e0fbe73dda1618ba60f95a88ac11490800", "vin": [{"sequence": 4294967294, "scriptSig": {"hex": "473044022026499600e6bfbe1eabaef67bb3e1d28c149cfebfcba3b4d808de888f8eacdd3c022023ca597dedcbad6d5eebd4844f9b6b68b501c29b78c975108eed5f7c3fd2d15d012103da5bac7b36d5aa38f531c6b9601e21bb598a4b6716ebed38b009a55dabde9440", "asm": "3044022026499600e6bfbe1eabaef67bb3e1d28c149cfebfcba3b4d808de888f8eacdd3c022023ca597dedcbad6d5eebd4844f9b6b68b501c29b78c975108eed5f7c3fd2d15d[ALL] 03da5bac7b36d5aa38f531c6b9601e21bb598a4b6716ebed38b009a55dabde9440"}, "vout": 1, "txid": "07721560a4343fb7dec29701be360b16751faf7386db98b1d1e76fabbc48366d"}], "txid": "fd816791496e0567aa0e221b925e0052a4038b8103ff9d1718b29f315d2e8bdd", "blocktime": 1537872018, "version": 1, "confirmations": 11489, "time": 1537872018, "locktime": 542993, "vsize": 256, "size": 256}