{"hash": "fd82cb40d30c3703019b227666b720caab9c7cab82b953b7894dead904c6bab2", "blockhash": "000000000000000000205f8b0775d31398ef75b89a5e8ec8d2c57b4dc0ac4c20", "vout": [{"scriptPubKey": {"reqSigs": 1, "hex": "a914baeb081ff171cb0c8d0f4fb361a8be0289fc136b87", "addresses": ["3JjMAWrneKdKmotjM3De2BaKamCjiPNSJ6"], "asm": "OP_HASH160 baeb081ff171cb0c8d0f4fb361a8be0289fc136b OP_EQUAL", "type": "scripthash"}, "value": 0.00109234, "n": 0}, {"scriptPubKey": {"reqSigs": 1, "hex": "76a9146e42029e5bd3eeafb05c112177b7d485e70d0d4188ac", "addresses": ["1B3zQaCjbPkGnQrf4zQrq9V2P5wmtd5uUE"], "asm": "OP_DUP OP_HASH160 6e42029e5bd3eeafb05c112177b7d485e70d0d41 OP_EQUALVERIFY OP_CHECKSIG", "type": "pubkeyhash"}, "value": 0.00129077, "n": 1}], "hex": "0100000001e3c91104565e90d07ae2a7eb035179a63e99ea7f68b09e5fbc3a5c7337614a9e000000006a47304402203be9ee428affac118e43335b10a688bfcd3f7a1efc3499cf612deeb4fec77b8902204e27aae2200cc57b0e35a8273d25eb83fa35170e8a1a301ec4d65c99b7a8043b012102605b1316c61697991ef3d1631eae6e4760727d8412879007de264378b6ade48cffffffff02b2aa01000000000017a914baeb081ff171cb0c8d0f4fb361a8be0289fc136b8735f80100000000001976a9146e42029e5bd3eeafb05c112177b7d485e70d0d4188ac00000000", "vin": [{"sequence": 4294967295, "scriptSig": {"hex": "47304402203be9ee428affac118e43335b10a688bfcd3f7a1efc3499cf612deeb4fec77b8902204e27aae2200cc57b0e35a8273d25eb83fa35170e8a1a301ec4d65c99b7a8043b012102605b1316c61697991ef3d1631eae6e4760727d8412879007de264378b6ade48c", "asm": "304402203be9ee428affac118e43335b10a688bfcd3f7a1efc3499cf612deeb4fec77b8902204e27aae2200cc57b0e35a8273d25eb83fa35170e8a1a301ec4d65c99b7a8043b[ALL] 02605b1316c61697991ef3d1631eae6e4760727d8412879007de264378b6ade48c"}, "vout": 0, "txid": "9e4a6137735c3abc5f9eb0687fea993ea6795103eba7e27ad0905e560411c9e3"}], "txid": "fd82cb40d30c3703019b227666b720caab9c7cab82b953b7894dead904c6bab2", "blocktime": 1537871175, "version": 1, "confirmations": 11511, "time": 1537871175, "locktime": 0, "vsize": 223, "size": 223}