{"hash": "fd826db48ee8a3401cf15638952f98b90f5f63edbe58bf2b434f83f7ece8cab7", "blockhash": "00000000000000000004ffacab907a6b429b9a5745fa0b75af4234bf69dd7176", "vout": [{"scriptPubKey": {"reqSigs": 1, "hex": "76a914836c757ec2a15ab008bbf4a4212152908d1bcb0b88ac", "addresses": ["1CyuSzU7PeUj9gVTiy4GDbfAuuXTSWsMVe"], "asm": "OP_DUP OP_HASH160 836c757ec2a15ab008bbf4a4212152908d1bcb0b OP_EQUALVERIFY OP_CHECKSIG", "type": "pubkeyhash"}, "value": 0.00098319, "n": 0}, {"scriptPubKey": {"reqSigs": 1, "hex": "76a914528c2405df91e032124c7922c92131d74facf33a88ac", "addresses": ["18XUHsuR24HbmcprFHPYaW8CqetZoaGr95"], "asm": "OP_DUP OP_HASH160 528c2405df91e032124c7922c92131d74facf33a OP_EQUALVERIFY OP_CHECKSIG", "type": "pubkeyhash"}, "value": 0.007833, "n": 1}], "hex": "0100000002b4c3aee28908b1cdf4d21965ffc701ce84e39d7ae5f835b484e881e41944fab4010000006b483045022100b99295822212fa1bee341b4e18fe218cc3168edcc4a9f0881ff584302d52346702206cc40dd417895ffa215df1f14ce086410bbeb0def3bf976e222d2b8152b9241c0121038e55b722e9e4d83fcfff377655eb507dd52f77015a3eb674bc45861715010927ffffffff98c4baacd54d4a66fd592253a9726a9f473e5940fff0d9b6b91c89fded35123c000000006a47304402204ec96577ddc0b43bb583473fb224298362675f824526296046d96788bd506179022049af027c56e359ea644039facda2b5581672b84e924284c73e0611d13bf5239801210208373f5655db58d9061ff949cb18088b52a9ebf5bd84aacc8a4aea4ec9bda2c7ffffffff020f800100000000001976a914836c757ec2a15ab008bbf4a4212152908d1bcb0b88acc4f30b00000000001976a914528c2405df91e032124c7922c92131d74facf33a88ac00000000", "vin": [{"sequence": 4294967295, "scriptSig": {"hex": "483045022100b99295822212fa1bee341b4e18fe218cc3168edcc4a9f0881ff584302d52346702206cc40dd417895ffa215df1f14ce086410bbeb0def3bf976e222d2b8152b9241c0121038e55b722e9e4d83fcfff377655eb507dd52f77015a3eb674bc45861715010927", "asm": "3045022100b99295822212fa1bee341b4e18fe218cc3168edcc4a9f0881ff584302d52346702206cc40dd417895ffa215df1f14ce086410bbeb0def3bf976e222d2b8152b9241c[ALL] 038e55b722e9e4d83fcfff377655eb507dd52f77015a3eb674bc45861715010927"}, "vout": 1, "txid": "b4fa4419e481e884b435f8e57a9de384ce01c7ff6519d2f4cdb10889e2aec3b4"}, {"sequence": 4294967295, "scriptSig": {"hex": "47304402204ec96577ddc0b43bb583473fb224298362675f824526296046d96788bd506179022049af027c56e359ea644039facda2b5581672b84e924284c73e0611d13bf5239801210208373f5655db58d9061ff949cb18088b52a9ebf5bd84aacc8a4aea4ec9bda2c7", "asm": "304402204ec96577ddc0b43bb583473fb224298362675f824526296046d96788bd506179022049af027c56e359ea644039facda2b5581672b84e924284c73e0611d13bf52398[ALL] 0208373f5655db58d9061ff949cb18088b52a9ebf5bd84aacc8a4aea4ec9bda2c7"}, "vout": 0, "txid": "3c1235edfd891cb9b6d9f0ff40593e479f6a72a9532259fd664a4dd5acbac498"}], "txid": "fd826db48ee8a3401cf15638952f98b90f5f63edbe58bf2b434f83f7ece8cab7", "blocktime": 1537875543, "version": 1, "confirmations": 11464, "time": 1537875543, "locktime": 0, "vsize": 373, "size": 373}