{"hash": "fd839a7647fdae7bbdbfbc4e0ac39c26b0480ac2e26d7e5dbb69927e1d4bfad6", "blockhash": "0000000000000000001cda96e906b7601b7a6fb1a3b62bca570a9e5d8f4b3de1", "vout": [{"scriptPubKey": {"reqSigs": 1, "hex": "a914a526e6c080413748da0837fe0f9eeb399b84576887", "addresses": ["3GkG27NayhLqa6EjwCduhB76WdFDjaPajV"], "asm": "OP_HASH160 a526e6c080413748da0837fe0f9eeb399b845768 OP_EQUAL", "type": "scripthash"}, "value": 0.00086578, "n": 0}, {"scriptPubKey": {"reqSigs": 1, "hex": "76a914dd277eba6cf64a1fc49f2a44ec03f406289038e388ac", "addresses": ["1MAMeZLJpTT2CAJnxSFRKXziF4uixwHSKx"], "asm": "OP_DUP OP_HASH160 dd277eba6cf64a1fc49f2a44ec03f406289038e3 OP_EQUALVERIFY OP_CHECKSIG", "type": "pubkeyhash"}, "value": 0.00010867, "n": 1}], "hex": "0100000002fb355bb29845805b1976f0b33e3c61393314d3ceb578bcddc204bd1972dc4b0701000000d900473044022003bf20df63782bfeeb1ee0d328edd88f869d200c99eecf985e742eb5a6bf964602203b50d3ca85ae8e3246b64db3cf2701fa361d23130202eddaecb691f2350345e00147304402203a3babe72ee62152756dbffb09f8af81ae569b53ccd98f3b8ec26f908f9b9be20220357d9fcdf1b157ee94eed6fb67b155aa02f165ae4581ce01a188d04983a798fc0147522102907a54bed8ad74b3f35638c60114ca240a308cb986f3f2f306178869a8880b6121030f947be410e49a236af3d971f535649ef2a1d7d0e4a38bf2669d76ead0dbc97652aeffffffff9337981e0ec093e4a3a94538cf7461ed2433229cf9456fc06968a7c3c7a5ccd5020000006b483045022100f2e66bfa48c14f21d9160bd0155d8eeb556d21d9ad31547fb346c5ad8550bd54022032cd4a9a527649ac9abba7e8398f259d527520c166a1b99fee86e6c584c4d87d0121033c3b542d24e313c8d86534618782eee1876d2bce2fba2de9ed988d721700dd05ffffffff02325201000000000017a914a526e6c080413748da0837fe0f9eeb399b84576887732a0000000000001976a914dd277eba6cf64a1fc49f2a44ec03f406289038e388ac00000000", "vin": [{"sequence": 4294967295, "scriptSig": {"hex": "00473044022003bf20df63782bfeeb1ee0d328edd88f869d200c99eecf985e742eb5a6bf964602203b50d3ca85ae8e3246b64db3cf2701fa361d23130202eddaecb691f2350345e00147304402203a3babe72ee62152756dbffb09f8af81ae569b53ccd98f3b8ec26f908f9b9be20220357d9fcdf1b157ee94eed6fb67b155aa02f165ae4581ce01a188d04983a798fc0147522102907a54bed8ad74b3f35638c60114ca240a308cb986f3f2f306178869a8880b6121030f947be410e49a236af3d971f535649ef2a1d7d0e4a38bf2669d76ead0dbc97652ae", "asm": "0 3044022003bf20df63782bfeeb1ee0d328edd88f869d200c99eecf985e742eb5a6bf964602203b50d3ca85ae8e3246b64db3cf2701fa361d23130202eddaecb691f2350345e0[ALL] 304402203a3babe72ee62152756dbffb09f8af81ae569b53ccd98f3b8ec26f908f9b9be20220357d9fcdf1b157ee94eed6fb67b155aa02f165ae4581ce01a188d04983a798fc[ALL] 522102907a54bed8ad74b3f35638c60114ca240a308cb986f3f2f306178869a8880b6121030f947be410e49a236af3d971f535649ef2a1d7d0e4a38bf2669d76ead0dbc97652ae"}, "vout": 1, "txid": "074bdc7219bd04c2ddbc78b5ced3143339613c3eb3f076195b804598b25b35fb"}, {"sequence": 4294967295, "scriptSig": {"hex": "483045022100f2e66bfa48c14f21d9160bd0155d8eeb556d21d9ad31547fb346c5ad8550bd54022032cd4a9a527649ac9abba7e8398f259d527520c166a1b99fee86e6c584c4d87d0121033c3b542d24e313c8d86534618782eee1876d2bce2fba2de9ed988d721700dd05", "asm": "3045022100f2e66bfa48c14f21d9160bd0155d8eeb556d21d9ad31547fb346c5ad8550bd54022032cd4a9a527649ac9abba7e8398f259d527520c166a1b99fee86e6c584c4d87d[ALL] 033c3b542d24e313c8d86534618782eee1876d2bce2fba2de9ed988d721700dd05"}, "vout": 2, "txid": "d5cca5c7c3a76869c06f45f99c223324ed6174cf3845a9a3e493c00e1e983793"}], "txid": "fd839a7647fdae7bbdbfbc4e0ac39c26b0480ac2e26d7e5dbb69927e1d4bfad6", "blocktime": 1537873282, "version": 1, "confirmations": 11484, "time": 1537873282, "locktime": 0, "vsize": 482, "size": 482}