{"hash": "fd888ea5f65cf92bef60979dd75e6b2b3c2f110b633bbf127cb81c3c38d923a1", "blockhash": "0000000000000000000e13cef7c366c0283d82e591d1acd082e914b08063cdf1", "vout": [{"scriptPubKey": {"reqSigs": 1, "hex": "76a914ea9c831b52c211f357fb7c93f7c6a07475d7664888ac", "addresses": ["1NPWcYSnykbysrSwLrzjZewZHubocrJ9XZ"], "asm": "OP_DUP OP_HASH160 ea9c831b52c211f357fb7c93f7c6a07475d76648 OP_EQUALVERIFY OP_CHECKSIG", "type": "pubkeyhash"}, "value": 0.002151, "n": 0}, {"scriptPubKey": {"reqSigs": 1, "hex": "76a914317d75f536eede8a12631959c0f87cbe7dc18e4b88ac", "addresses": ["15WgQZtSaocvmWb878rDcigNiHSaamXJzX"], "asm": "OP_DUP OP_HASH160 317d75f536eede8a12631959c0f87cbe7dc18e4b OP_EQUALVERIFY OP_CHECKSIG", "type": "pubkeyhash"}, "value": 0.09972555, "n": 1}], "hex": "01000000015b1ce194e926a5b944e17321453dd2158ce6ee36f759fca3e9b41a8161760d6e010000006a47304402201412e25099b615c73028947fd3d1d3329d6aa9c67b11ea2af7a208bb15af290202203bb2198ca19ea79a006671827bb35c0c5b7dee775803f994670ea6db8f5d60470121028b31667883f6102a612f2f51d250f4d55d10b54a6a2311c38c325762af4ef086ffffffff023c480300000000001976a914ea9c831b52c211f357fb7c93f7c6a07475d7664888ac4b2b9800000000001976a914317d75f536eede8a12631959c0f87cbe7dc18e4b88ac00000000", "vin": [{"sequence": 4294967295, "scriptSig": {"hex": "47304402201412e25099b615c73028947fd3d1d3329d6aa9c67b11ea2af7a208bb15af290202203bb2198ca19ea79a006671827bb35c0c5b7dee775803f994670ea6db8f5d60470121028b31667883f6102a612f2f51d250f4d55d10b54a6a2311c38c325762af4ef086", "asm": "304402201412e25099b615c73028947fd3d1d3329d6aa9c67b11ea2af7a208bb15af290202203bb2198ca19ea79a006671827bb35c0c5b7dee775803f994670ea6db8f5d6047[ALL] 028b31667883f6102a612f2f51d250f4d55d10b54a6a2311c38c325762af4ef086"}, "vout": 1, "txid": "6e0d7661811ab4e9a3fc59f736eee68c15d23d452173e144b9a526e994e11c5b"}], "txid": "fd888ea5f65cf92bef60979dd75e6b2b3c2f110b633bbf127cb81c3c38d923a1", "blocktime": 1537871767, "version": 1, "confirmations": 11493, "time": 1537871767, "locktime": 0, "vsize": 225, "size": 225}