{"hash": "fd8975dc0e0ca22f6478315b8ec15cab6031c988a2f58dfe58a5ff192658fcad", "blockhash": "0000000000000000001f76057863aec43deb6fa401d9628bb513d65a8098bfab", "vout": [{"scriptPubKey": {"reqSigs": 1, "hex": "a91441fd6e4b0588806375e65c271f3649315179cc1487", "addresses": ["37hwShJSVRKnwHgm2hxwsyVkCtTFUBJBKm"], "asm": "OP_HASH160 41fd6e4b0588806375e65c271f3649315179cc14 OP_EQUAL", "type": "scripthash"}, "value": 0.00256, "n": 0}, {"scriptPubKey": {"reqSigs": 1, "hex": "76a9144a9c46fac4950c273268b7398c92ea2b8ff488d888ac", "addresses": ["17oWDXkHHHiUzRQiHGuDaLzXsohw3rShgT"], "asm": "OP_DUP OP_HASH160 4a9c46fac4950c273268b7398c92ea2b8ff488d8 OP_EQUALVERIFY OP_CHECKSIG", "type": "pubkeyhash"}, "value": 0.02821911, "n": 1}], "hex": "0100000001b81f0106745afdd1d572554a2f80f6e4b6372d3bc4c3b1b7f64b1464ab5ffaee010000006a4730440220395fb3831f3258c9ad3fe26e436231e5e136b5f7f25c5ec5975b49ff5e2b19390220307f867935bb4a842a9e6b0413eb0510cdec47487e2709407ff19dfc631e633701210392457155c4157ba26fb3f2befe55709c41f30eaa7c249bb8fbb8592dcb960816ffffffff0200e803000000000017a91441fd6e4b0588806375e65c271f3649315179cc1487170f2b00000000001976a9144a9c46fac4950c273268b7398c92ea2b8ff488d888ac00000000", "vin": [{"sequence": 4294967295, "scriptSig": {"hex": "4730440220395fb3831f3258c9ad3fe26e436231e5e136b5f7f25c5ec5975b49ff5e2b19390220307f867935bb4a842a9e6b0413eb0510cdec47487e2709407ff19dfc631e633701210392457155c4157ba26fb3f2befe55709c41f30eaa7c249bb8fbb8592dcb960816", "asm": "30440220395fb3831f3258c9ad3fe26e436231e5e136b5f7f25c5ec5975b49ff5e2b19390220307f867935bb4a842a9e6b0413eb0510cdec47487e2709407ff19dfc631e6337[ALL] 0392457155c4157ba26fb3f2befe55709c41f30eaa7c249bb8fbb8592dcb960816"}, "vout": 1, "txid": "eefa5fab64144bf6b7b1c3c43b2d37b6e4f6802f4a5572d5d1fd5a7406011fb8"}], "txid": "fd8975dc0e0ca22f6478315b8ec15cab6031c988a2f58dfe58a5ff192658fcad", "blocktime": 1537873891, "version": 1, "confirmations": 11475, "time": 1537873891, "locktime": 0, "vsize": 223, "size": 223}