{"hash": "d90c83771ca798d0f331b3458f9664ae7ae73a76b14e52b4e6221c25711e83c7", "blockhash": "00000000000000000024a2167bbff67b0be802c0b01cdd79e6331c2be6459f87", "vout": [{"scriptPubKey": {"reqSigs": 1, "hex": "76a91463b36abee185da68bc4edbdc059f7961fa04dd7988ac", "addresses": ["1A6Aq6sPyjJVpcmvsSp9VHggwRCax9oJz9"], "asm": "OP_DUP OP_HASH160 63b36abee185da68bc4edbdc059f7961fa04dd79 OP_EQUALVERIFY OP_CHECKSIG", "type": "pubkeyhash"}, "value": 0.00239865, "n": 0}, {"scriptPubKey": {"reqSigs": 1, "hex": "a914aadf22eac61ef4bc06a6936cae8af124fe33a45287", "addresses": ["3HGW6wfz8xYFnGjUyMYt9mEK6TZbdUveTP"], "asm": "OP_HASH160 aadf22eac61ef4bc06a6936cae8af124fe33a452 OP_EQUAL", "type": "scripthash"}, "value": 0.02076162, "n": 1}, {"scriptPubKey": {"reqSigs": 1, "hex": "76a914deb093b51e3e251504ca3cf6b70eb81d35d1014888ac", "addresses": ["1MJUYNUGoAXiUtpcph6J4wjTGBWoCLoMRK"], "asm": "OP_DUP OP_HASH160 deb093b51e3e251504ca3cf6b70eb81d35d10148 OP_EQUALVERIFY OP_CHECKSIG", "type": "pubkeyhash"}, "value": 0.01171533, "n": 2}, {"scriptPubKey": {"reqSigs": 1, "hex": "76a9146aa558df4fd494388a43fed8fe1b1f1cabe92c1d88ac", "addresses": ["1AithreMjtFmwJbeAGQANo17niQzvcVCyv"], "asm": "OP_DUP OP_HASH160 6aa558df4fd494388a43fed8fe1b1f1cabe92c1d OP_EQUALVERIFY OP_CHECKSIG", "type": "pubkeyhash"}, "value": 0.00214649, "n": 3}, {"scriptPubKey": {"reqSigs": 1, "hex": "a9144f2662cb96c8eee8972388f5bba0fc13c74f906887", "addresses": ["38uXHoHJsw3GioQJXZK83afJoWajfRRbtD"], "asm": "OP_HASH160 4f2662cb96c8eee8972388f5bba0fc13c74f9068 OP_EQUAL", "type": "scripthash"}, "value": 0.00993114, "n": 4}, {"scriptPubKey": {"reqSigs": 1, "hex": "a91449c05194756deb9731c1866f9bbd29804c94958d87", "addresses": ["38Qye5mFDdSKxoHZzFA9ECDgbtLXYoynDn"], "asm": "OP_HASH160 49c05194756deb9731c1866f9bbd29804c94958d OP_EQUAL", "type": "scripthash"}, "value": 0.12280112, "n": 5}, {"scriptPubKey": {"reqSigs": 1, "hex": "a914e7a8a707f95f1c2b7003393d8949c152e9d89a8687", "addresses": ["3Nov4313Sn9MFZ3KnamZv4HSXCKJyNgDSn"], "asm": "OP_HASH160 e7a8a707f95f1c2b7003393d8949c152e9d89a86 OP_EQUAL", "type": "scripthash"}, "value": 0.00207347, "n": 6}, {"scriptPubKey": {"reqSigs": 1, "hex": "a9149481b3fd2b647b3ec6b7bfa893c14370395411c487", "addresses": ["3FEFJrzcPxWgDf3ARjzitneNGvQWw6a7Wg"], "asm": "OP_HASH160 9481b3fd2b647b3ec6b7bfa893c14370395411c4 OP_EQUAL", "type": "scripthash"}, "value": 0.00424256, "n": 7}, {"scriptPubKey": {"reqSigs": 1, "hex": "76a9140e3b90f4789600bf37bd3c05be2fd959d909299588ac", "addresses": ["12JFpRMRwVey3NQPh4rxFiDXZscguy9gcr"], "asm": "OP_DUP OP_HASH160 0e3b90f4789600bf37bd3c05be2fd959d9092995 OP_EQUALVERIFY OP_CHECKSIG", "type": "pubkeyhash"}, "value": 1.0, "n": 8}, {"scriptPubKey": {"reqSigs": 1, "hex": "a9144614084c24ddc594d9dd15bd7ed6fe9c56678b6787", "addresses": ["385ZDr9oXHtS4mGDqhMyDP5Uzd9ytFJFjX"], "asm": "OP_HASH160 4614084c24ddc594d9dd15bd7ed6fe9c56678b67 OP_EQUAL", "type": "scripthash"}, "value": 0.00312409, "n": 9}, {"scriptPubKey": {"reqSigs": 1, "hex": "76a91473f2087430b2d413bca272dea744a102cc14182588ac", "addresses": ["1Ba4eoxzcWr7T9e9MMk5wtjCdrziifDgCZ"], "asm": "OP_DUP OP_HASH160 73f2087430b2d413bca272dea744a102cc141825 OP_EQUALVERIFY OP_CHECKSIG", "type": "pubkeyhash"}, "value": 0.0025757, "n": 10}, {"scriptPubKey": {"reqSigs": 1, "hex": "76a91423a05a09ce81bf29a5f09e9e214fd9e6a14eb2bb88ac", "addresses": ["14FNk9VJx53DnvXyv5zJJ4tbEfsdzy7hPW"], "asm": "OP_DUP OP_HASH160 23a05a09ce81bf29a5f09e9e214fd9e6a14eb2bb OP_EQUALVERIFY OP_CHECKSIG", "type": "pubkeyhash"}, "value": 0.00107817, "n": 11}, {"scriptPubKey": {"reqSigs": 1, "hex": "76a91463b20ff4f07c458204f98e5209c9f1a15ca15e0d88ac", "addresses": ["1A69CymxPsmn37awSMdwNbwmyY2rSCuJJY"], "asm": "OP_DUP OP_HASH160 63b20ff4f07c458204f98e5209c9f1a15ca15e0d OP_EQUALVERIFY OP_CHECKSIG", "type": "pubkeyhash"}, "value": 0.15889812, "n": 12}, {"scriptPubKey": {"reqSigs": 1, "hex": "76a914cdf0f57d9c4b3f1ef63375fd9826953ca570a0ef88ac", "addresses": ["1KmvBStr1umH8efkQfTdZavtTG8gKrvyX2"], "asm": "OP_DUP OP_HASH160 cdf0f57d9c4b3f1ef63375fd9826953ca570a0ef OP_EQUALVERIFY OP_CHECKSIG", "type": "pubkeyhash"}, "value": 0.0048072, "n": 13}, {"scriptPubKey": {"reqSigs": 1, "hex": "a9149bb9ca6b0caedaf0eebbac9a9bd090afb279238687", "addresses": ["3FtREEx6Xu67bQxSiQnNGD4nqfQ3WTuCpD"], "asm": "OP_HASH160 9bb9ca6b0caedaf0eebbac9a9bd090afb2792386 OP_EQUAL", "type": "scripthash"}, "value": 0.01831026, "n": 14}, {"scriptPubKey": {"reqSigs": 1, "hex": "a9143bf356ac7d6616a6621de3077b970225200bff5d87", "addresses": ["37A1JKdLj6EfG7jVxvAFPHGDDopLd3Tzr8"], "asm": "OP_HASH160 3bf356ac7d6616a6621de3077b970225200bff5d OP_EQUAL", "type": "scripthash"}, "value": 0.00182447, "n": 15}, {"scriptPubKey": {"reqSigs": 1, "hex": "a91440f3d52858761e0ee9e10123c18ad6359e474eb287", "addresses": ["37cTGcM1vo9wfutRMD4dpdW6M5o9xsMsK5"], "asm": "OP_HASH160 40f3d52858761e0ee9e10123c18ad6359e474eb2 OP_EQUAL", "type": "scripthash"}, "value": 0.01125, "n": 16}, {"scriptPubKey": {"reqSigs": 1, "hex": "a914e780adb6783f3fafc5287d5556eee8ac7e75b8c387", "addresses": ["3No6AbkqWp4xjzYWSB153Uo7H6CPPX2Dv7"], "asm": "OP_HASH160 e780adb6783f3fafc5287d5556eee8ac7e75b8c3 OP_EQUAL", "type": "scripthash"}, "value": 0.00931288, "n": 17}, {"scriptPubKey": {"reqSigs": 1, "hex": "76a91460123db37300abe3c0b0a5fe8790ddf866dabae788ac", "addresses": ["19kyipnqJFg18HpcdAuQ1Bg2Hapy7yXvXo"], "asm": "OP_DUP OP_HASH160 60123db37300abe3c0b0a5fe8790ddf866dabae7 OP_EQUALVERIFY OP_CHECKSIG", "type": "pubkeyhash"}, "value": 0.05762656, "n": 18}], "hex": "0100000000010337489217e219fabcbb8491537f855b284bac7662b27f81cad88d0a682b3bfce20000000023220020f720dc2a4ed06dccd1f195e110c73d1a39c874fe6b2db0e187f3a8012b35b3e9ffffffff33387ccacc49f4c6e347fecffa90d1d693d98c7dd789471714afc28d313b41b80500000023220020efe37c231d61c623245f0db77deb0e19f484943a51fb192629fe6bde093cdb9cffffffff02fa6de43c73122ff1306eeabd133968835162105e7b27646adc719dad9c756801000000fc0047304402202f1cd94c50c3a9636fadc24f936fcc96c2eda9240ba7b55350fce2fb82710aaa0220166333e88c607af5d34fd46aeab20f56b53d207c4461227d0b01dbfb3eef2b020147304402205c36fa7f3402cdd9bef5e8798731a439e29001f447ebf4e94d0f2fce3235fc2f02205c8b62631e863867bd8062eaaae1eb8623754aca98efd3d15f22bafc76f9f22a014c6952210368de7f644e1d7df7e297ffd7978a4f4174f39768dbdc5a71857871eff88605c22103c9c5fdf06c4d0e86d51a7ec5e025fcc0939df62fa2e4ef6d6871f98c78e8b31821022a9fdeb02afaf7218acc624a23a909f823f2f418a56283deb678e55f962b578753aeffffffff13f9a80300000000001976a91463b36abee185da68bc4edbdc059f7961fa04dd7988ac02ae1f000000000017a914aadf22eac61ef4bc06a6936cae8af124fe33a452874de01100000000001976a914deb093b51e3e251504ca3cf6b70eb81d35d1014888ac79460300000000001976a9146aa558df4fd494388a43fed8fe1b1f1cabe92c1d88ac5a270f000000000017a9144f2662cb96c8eee8972388f5bba0fc13c74f9068873061bb000000000017a91449c05194756deb9731c1866f9bbd29804c94958d87f32903000000000017a914e7a8a707f95f1c2b7003393d8949c152e9d89a8687407906000000000017a9149481b3fd2b647b3ec6b7bfa893c14370395411c48700e1f505000000001976a9140e3b90f4789600bf37bd3c05be2fd959d909299588ac59c404000000000017a9144614084c24ddc594d9dd15bd7ed6fe9c56678b678722ee0300000000001976a91473f2087430b2d413bca272dea744a102cc14182588ac29a50100000000001976a91423a05a09ce81bf29a5f09e9e214fd9e6a14eb2bb88ac9475f200000000001976a91463b20ff4f07c458204f98e5209c9f1a15ca15e0d88acd0550700000000001976a914cdf0f57d9c4b3f1ef63375fd9826953ca570a0ef88ac72f01b000000000017a9149bb9ca6b0caedaf0eebbac9a9bd090afb279238687afc802000000000017a9143bf356ac7d6616a6621de3077b970225200bff5d87882a11000000000017a91440f3d52858761e0ee9e10123c18ad6359e474eb287d8350e000000000017a914e780adb6783f3fafc5287d5556eee8ac7e75b8c38760ee5700000000001976a91460123db37300abe3c0b0a5fe8790ddf866dabae788ac0400483045022100ab72b6858860113508872fb06884401fcffef4e4ca94943d516b2300b6f058ce0220035699e21385466a12dc9c06ccfc1c270ac22857301694ac42e32f9b8948aea801473044022039d3721529f7377046d9105bc9e8b8d0086270a7f066c34c838459e8d0d0a5fd022073027a5fa8544066b736b58e4101f84f1eada6a253bc613f1c87a7924e11eb910169522102a65a0299ad7433edfac774745cf8b3d12ce87da892cfd89897f6142046fbf0ed2103cad8b7d17b057174ba5fe2c4b071ef9930f1aeebbd6254cd9cf7bfa60fd3b12621028e2e6b9bc26ea3b3831c2ad55d553adccb4bbd24c1ca52c765688ed4b96f7d3553ae040047304402200aa3eedd50217941ba5260af2bfd97ffe127200b6b1addc79eecdc9ec5808caf022064231fb8bab82b176a0e96a70cca69f71a19d8824411ad0bbfc12b7d6e6efead01483045022100df27781de457be745dea1893e01815e73c1d4097918e206aa796d3c6165ad81702204306f81bd1d8e341ea27511b8f428d0e9bcb893d02858c2e9343a359154656c6016952210386b593040dc82f542e27f28634dcfa7d825f141b91381b4c28f7409db61e1bed2102376f7b885b425d1e17fb7b41625aa8472a10a003a7f9453d19bd4f58095baba221023be3c16c929e4df908058e9bff1a7c45cbb19f91d32e6b43f65db40d7c58b19453ae0000000000", "vin": [{"txinwitness": ["", "3045022100ab72b6858860113508872fb06884401fcffef4e4ca94943d516b2300b6f058ce0220035699e21385466a12dc9c06ccfc1c270ac22857301694ac42e32f9b8948aea801", "3044022039d3721529f7377046d9105bc9e8b8d0086270a7f066c34c838459e8d0d0a5fd022073027a5fa8544066b736b58e4101f84f1eada6a253bc613f1c87a7924e11eb9101", "522102a65a0299ad7433edfac774745cf8b3d12ce87da892cfd89897f6142046fbf0ed2103cad8b7d17b057174ba5fe2c4b071ef9930f1aeebbd6254cd9cf7bfa60fd3b12621028e2e6b9bc26ea3b3831c2ad55d553adccb4bbd24c1ca52c765688ed4b96f7d3553ae"], "sequence": 4294967295, "scriptSig": {"hex": "220020f720dc2a4ed06dccd1f195e110c73d1a39c874fe6b2db0e187f3a8012b35b3e9", "asm": "0020f720dc2a4ed06dccd1f195e110c73d1a39c874fe6b2db0e187f3a8012b35b3e9"}, "vout": 0, "txid": "e2fc3b2b680a8dd8ca817fb26276ac4b285b857f539184bbbcfa19e217924837"}, {"txinwitness": ["", "304402200aa3eedd50217941ba5260af2bfd97ffe127200b6b1addc79eecdc9ec5808caf022064231fb8bab82b176a0e96a70cca69f71a19d8824411ad0bbfc12b7d6e6efead01", "3045022100df27781de457be745dea1893e01815e73c1d4097918e206aa796d3c6165ad81702204306f81bd1d8e341ea27511b8f428d0e9bcb893d02858c2e9343a359154656c601", "52210386b593040dc82f542e27f28634dcfa7d825f141b91381b4c28f7409db61e1bed2102376f7b885b425d1e17fb7b41625aa8472a10a003a7f9453d19bd4f58095baba221023be3c16c929e4df908058e9bff1a7c45cbb19f91d32e6b43f65db40d7c58b19453ae"], "sequence": 4294967295, "scriptSig": {"hex": "220020efe37c231d61c623245f0db77deb0e19f484943a51fb192629fe6bde093cdb9c", "asm": "0020efe37c231d61c623245f0db77deb0e19f484943a51fb192629fe6bde093cdb9c"}, "vout": 5, "txid": "b8413b318dc2af14174789d77d8cd993d6d190facffe47e3c6f449ccca7c3833"}, {"sequence": 4294967295, "scriptSig": {"hex": "0047304402202f1cd94c50c3a9636fadc24f936fcc96c2eda9240ba7b55350fce2fb82710aaa0220166333e88c607af5d34fd46aeab20f56b53d207c4461227d0b01dbfb3eef2b020147304402205c36fa7f3402cdd9bef5e8798731a439e29001f447ebf4e94d0f2fce3235fc2f02205c8b62631e863867bd8062eaaae1eb8623754aca98efd3d15f22bafc76f9f22a014c6952210368de7f644e1d7df7e297ffd7978a4f4174f39768dbdc5a71857871eff88605c22103c9c5fdf06c4d0e86d51a7ec5e025fcc0939df62fa2e4ef6d6871f98c78e8b31821022a9fdeb02afaf7218acc624a23a909f823f2f418a56283deb678e55f962b578753ae", "asm": "0 304402202f1cd94c50c3a9636fadc24f936fcc96c2eda9240ba7b55350fce2fb82710aaa0220166333e88c607af5d34fd46aeab20f56b53d207c4461227d0b01dbfb3eef2b02[ALL] 304402205c36fa7f3402cdd9bef5e8798731a439e29001f447ebf4e94d0f2fce3235fc2f02205c8b62631e863867bd8062eaaae1eb8623754aca98efd3d15f22bafc76f9f22a[ALL] 52210368de7f644e1d7df7e297ffd7978a4f4174f39768dbdc5a71857871eff88605c22103c9c5fdf06c4d0e86d51a7ec5e025fcc0939df62fa2e4ef6d6871f98c78e8b31821022a9fdeb02afaf7218acc624a23a909f823f2f418a56283deb678e55f962b578753ae"}, "vout": 1, "txid": "68759cad9d71dc6a64277b5e10625183683913bdea6e30f12f12733ce46dfa02"}], "txid": "fd9eecc97757ca1ddcb0b47badfd97ec17ea81928631bcb439163e434351c9a5", "blocktime": 1537870564, "version": 1, "confirmations": 11515, "time": 1537870564, "locktime": 0, "vsize": 1209, "size": 1590}