{"hash": "fda38ff3683a08e2160a8a8dd9825d10b55e55e826252c0049c2d7eef28f5300", "blockhash": "0000000000000000000baef3f32e3676a92c3b2e5da21b426e4f302fc371ce76", "vout": [{"scriptPubKey": {"reqSigs": 1, "hex": "76a914ebb8a77612f8c6d23780ff2b68088de4e7f7c1c888ac", "addresses": ["1NVP15MdMquYocL6qCCnhH9kn3AhnhWu2s"], "asm": "OP_DUP OP_HASH160 ebb8a77612f8c6d23780ff2b68088de4e7f7c1c8 OP_EQUALVERIFY OP_CHECKSIG", "type": "pubkeyhash"}, "value": 0.00488031, "n": 0}, {"scriptPubKey": {"reqSigs": 1, "hex": "76a9146586ced214191eaee684bf8787713d2671eff5aa88ac", "addresses": ["1AFpjzWNNtmMamjbbSSNLiVdktzrYMspCQ"], "asm": "OP_DUP OP_HASH160 6586ced214191eaee684bf8787713d2671eff5aa OP_EQUALVERIFY OP_CHECKSIG", "type": "pubkeyhash"}, "value": 0.22157469, "n": 1}], "hex": "02000000013ba4021e0fa02d0a3b90758afc0c0cc71811e708eec8ae55f5211ee40c0af97c010000006b4830450221008da6911212e51b2cd743c6b4ccb8cfab67091f13154aae7d6f3b5099e254aaa602204b375b8cdc7f6eda044bdfab0b5357b9ff9dcc9445bcba9ef27f2df243347db801210210dac65f236a05432a1dbd2f909aa1c6e1870304203e734e8d07db9b57443d46ffffffff025f720700000000001976a914ebb8a77612f8c6d23780ff2b68088de4e7f7c1c888ac9d185201000000001976a9146586ced214191eaee684bf8787713d2671eff5aa88ac00000000", "vin": [{"sequence": 4294967295, "scriptSig": {"hex": "4830450221008da6911212e51b2cd743c6b4ccb8cfab67091f13154aae7d6f3b5099e254aaa602204b375b8cdc7f6eda044bdfab0b5357b9ff9dcc9445bcba9ef27f2df243347db801210210dac65f236a05432a1dbd2f909aa1c6e1870304203e734e8d07db9b57443d46", "asm": "30450221008da6911212e51b2cd743c6b4ccb8cfab67091f13154aae7d6f3b5099e254aaa602204b375b8cdc7f6eda044bdfab0b5357b9ff9dcc9445bcba9ef27f2df243347db8[ALL] 0210dac65f236a05432a1dbd2f909aa1c6e1870304203e734e8d07db9b57443d46"}, "vout": 1, "txid": "7cf90a0ce41e21f555aec8ee08e71118c70c0cfc8a75903b0a2da00f1e02a43b"}], "txid": "fda38ff3683a08e2160a8a8dd9825d10b55e55e826252c0049c2d7eef28f5300", "blocktime": 1537876114, "version": 2, "confirmations": 11460, "time": 1537876114, "locktime": 0, "vsize": 226, "size": 226}