{"hash": "fda58f287c2862fa30f2b7c3ef7211bcb2f6fe18dc4171054bb24a51d5666fe7", "blockhash": "00000000000000000017f5eb5941039fbcee6240d03bc1f2f8e35350df66a1d8", "vout": [{"scriptPubKey": {"reqSigs": 1, "hex": "76a914d911211e7c5c7a7451ddd149195ce465a189085a88ac", "addresses": ["1Lnk9oDQqqL6ACjkxf9zk5c3bC9QcTM1nQ"], "asm": "OP_DUP OP_HASH160 d911211e7c5c7a7451ddd149195ce465a189085a OP_EQUALVERIFY OP_CHECKSIG", "type": "pubkeyhash"}, "value": 0.00077813, "n": 0}, {"scriptPubKey": {"reqSigs": 1, "hex": "76a914c8527571de49dd570fca7ffe4c3a3ee8e8874c2c88ac", "addresses": ["1KGCvhhnLnnGKtPBAwvUVfCDSgXG76Tj4a"], "asm": "OP_DUP OP_HASH160 c8527571de49dd570fca7ffe4c3a3ee8e8874c2c OP_EQUALVERIFY OP_CHECKSIG", "type": "pubkeyhash"}, "value": 0.13647733, "n": 1}], "hex": "010000000128ae981875d785761e5fa1e17f831e7876c9956b44703f7dff1ae0e7f48d3de0010000006a473044022016499e704897ca62f92fb1417b81f0957a94c2e4392c64415daaf1459822b77a02202a403c13e48094da8262889f3b49fb1a3f2def25337e08f3f8227b394a6a762c012102de9db92b1845c06019937dd26298ccf976df69c3c7d56ae5c959855e11c9288cffffffff02f52f0100000000001976a914d911211e7c5c7a7451ddd149195ce465a189085a88ac753fd000000000001976a914c8527571de49dd570fca7ffe4c3a3ee8e8874c2c88ac00000000", "vin": [{"sequence": 4294967295, "scriptSig": {"hex": "473044022016499e704897ca62f92fb1417b81f0957a94c2e4392c64415daaf1459822b77a02202a403c13e48094da8262889f3b49fb1a3f2def25337e08f3f8227b394a6a762c012102de9db92b1845c06019937dd26298ccf976df69c3c7d56ae5c959855e11c9288c", "asm": "3044022016499e704897ca62f92fb1417b81f0957a94c2e4392c64415daaf1459822b77a02202a403c13e48094da8262889f3b49fb1a3f2def25337e08f3f8227b394a6a762c[ALL] 02de9db92b1845c06019937dd26298ccf976df69c3c7d56ae5c959855e11c9288c"}, "vout": 1, "txid": "e03d8df4e7e01aff7d3f70446b95c976781e837fe1a15f1e7685d7751898ae28"}], "txid": "fda58f287c2862fa30f2b7c3ef7211bcb2f6fe18dc4171054bb24a51d5666fe7", "blocktime": 1537874412, "version": 1, "confirmations": 11467, "time": 1537874412, "locktime": 0, "vsize": 225, "size": 225}