{"hash": "fda7d20ffddd570aff0ec9f16aeed9d7d5d161895aa2218378b9ea953cd134a8", "blockhash": "0000000000000000001f76057863aec43deb6fa401d9628bb513d65a8098bfab", "vout": [{"scriptPubKey": {"reqSigs": 1, "hex": "76a914ba6f7f79cdf35effa1b8af50b844d4d3e572765d88ac", "addresses": ["1HznFhFctmJKdHAiB1SYZ3SMMUF9FiaBi1"], "asm": "OP_DUP OP_HASH160 ba6f7f79cdf35effa1b8af50b844d4d3e572765d OP_EQUALVERIFY OP_CHECKSIG", "type": "pubkeyhash"}, "value": 0.00106757, "n": 0}, {"scriptPubKey": {"reqSigs": 1, "hex": "76a914103199370a20109e8d3eb44d8b021e8c1f77101988ac", "addresses": ["12UdEEXX6fnt6ma23wJmTUVacS3ex6pycH"], "asm": "OP_DUP OP_HASH160 103199370a20109e8d3eb44d8b021e8c1f771019 OP_EQUALVERIFY OP_CHECKSIG", "type": "pubkeyhash"}, "value": 0.013438, "n": 1}], "hex": "0100000002f5ea937bdc7cd47de7986d11847b2c683437f9f8ca4da6511d18a7221cbbe06d290000006b48304502210090109d4c619c926ddf761ad2efb8edc753c01a910c9408fa44090b32644a4b06022013935647c7b9417d42fd540bb5b760813ce08b3cd2c45eafac74261e4d7767380121027cd9912e8d1a6ac318ca5cf7bf00574bf38b3f70b65769f9cfd711edc88c1056ffffffff3cc710ff8a11b7e19add350eba2def30b5778551269f815dae68a33953a39cdf010000006a47304402201ff5025b0f4283ccf0b8a5f9bd3606f3b4bc50582d842de441674785afad0607022031484622ed08a9de3176b183a3f622406049ef6aa9af746d16523af7e9ae77370121027cd9912e8d1a6ac318ca5cf7bf00574bf38b3f70b65769f9cfd711edc88c1056ffffffff0205a10100000000001976a914ba6f7f79cdf35effa1b8af50b844d4d3e572765d88ac38811400000000001976a914103199370a20109e8d3eb44d8b021e8c1f77101988ac00000000", "vin": [{"sequence": 4294967295, "scriptSig": {"hex": "48304502210090109d4c619c926ddf761ad2efb8edc753c01a910c9408fa44090b32644a4b06022013935647c7b9417d42fd540bb5b760813ce08b3cd2c45eafac74261e4d7767380121027cd9912e8d1a6ac318ca5cf7bf00574bf38b3f70b65769f9cfd711edc88c1056", "asm": "304502210090109d4c619c926ddf761ad2efb8edc753c01a910c9408fa44090b32644a4b06022013935647c7b9417d42fd540bb5b760813ce08b3cd2c45eafac74261e4d776738[ALL] 027cd9912e8d1a6ac318ca5cf7bf00574bf38b3f70b65769f9cfd711edc88c1056"}, "vout": 41, "txid": "6de0bb1c22a7181d51a64dcaf8f93734682c7b84116d98e77dd47cdc7b93eaf5"}, {"sequence": 4294967295, "scriptSig": {"hex": "47304402201ff5025b0f4283ccf0b8a5f9bd3606f3b4bc50582d842de441674785afad0607022031484622ed08a9de3176b183a3f622406049ef6aa9af746d16523af7e9ae77370121027cd9912e8d1a6ac318ca5cf7bf00574bf38b3f70b65769f9cfd711edc88c1056", "asm": "304402201ff5025b0f4283ccf0b8a5f9bd3606f3b4bc50582d842de441674785afad0607022031484622ed08a9de3176b183a3f622406049ef6aa9af746d16523af7e9ae7737[ALL] 027cd9912e8d1a6ac318ca5cf7bf00574bf38b3f70b65769f9cfd711edc88c1056"}, "vout": 1, "txid": "df9ca35339a368ae5d819f26518577b530ef2dba0e35dd9ae1b7118aff10c73c"}], "txid": "fda7d20ffddd570aff0ec9f16aeed9d7d5d161895aa2218378b9ea953cd134a8", "blocktime": 1537873891, "version": 1, "confirmations": 11478, "time": 1537873891, "locktime": 0, "vsize": 373, "size": 373}