{"hash": "fdacedaee4b6faa6f7fe894d547d9f4fcb767ad2a85604a31d2c9b212bf9209e", "blockhash": "0000000000000000000baef3f32e3676a92c3b2e5da21b426e4f302fc371ce76", "vout": [{"scriptPubKey": {"reqSigs": 1, "hex": "76a9149f504fe829119d27a574b49f461bd0f32e55ed6788ac", "addresses": ["1FXNego1L8cYz2LiXRzbkhYmgqqk97LaR6"], "asm": "OP_DUP OP_HASH160 9f504fe829119d27a574b49f461bd0f32e55ed67 OP_EQUALVERIFY OP_CHECKSIG", "type": "pubkeyhash"}, "value": 0.00183147, "n": 0}, {"scriptPubKey": {"reqSigs": 1, "hex": "76a914e349bc52d6b8100b58d3fce45135a91c5c128a1d88ac", "addresses": ["1MiningDkXkhKaXBTMKXfLemnk1YY5rbkT"], "asm": "OP_DUP OP_HASH160 e349bc52d6b8100b58d3fce45135a91c5c128a1d OP_EQUALVERIFY OP_CHECKSIG", "type": "pubkeyhash"}, "value": 0.33435154, "n": 1}], "hex": "020000000182fd879d64d015da4924acb8de9a79a1eecf2bc4a1a351ed2fdd28f5c963f9fc010000008b48304502210090b4a55f7aa732fe323a045ae3dd8a8570cab4e958a0f30d691c1589436eca3502204aa468bce6b59f9a587aca2bb50b5b29a4f2641fdca2f0094ed1967f6b7c7d53014104ae414abde7876c34e01694b38b2341d10b9b4c8db18a66262bd8df26bcb57893885c9fe8b79aa25330d5f05bb5aa9ab636a908a72e27956572b44190b22809beffffffff026bcb0200000000001976a9149f504fe829119d27a574b49f461bd0f32e55ed6788ac122efe01000000001976a914e349bc52d6b8100b58d3fce45135a91c5c128a1d88ac00000000", "vin": [{"sequence": 4294967295, "scriptSig": {"hex": "48304502210090b4a55f7aa732fe323a045ae3dd8a8570cab4e958a0f30d691c1589436eca3502204aa468bce6b59f9a587aca2bb50b5b29a4f2641fdca2f0094ed1967f6b7c7d53014104ae414abde7876c34e01694b38b2341d10b9b4c8db18a66262bd8df26bcb57893885c9fe8b79aa25330d5f05bb5aa9ab636a908a72e27956572b44190b22809be", "asm": "304502210090b4a55f7aa732fe323a045ae3dd8a8570cab4e958a0f30d691c1589436eca3502204aa468bce6b59f9a587aca2bb50b5b29a4f2641fdca2f0094ed1967f6b7c7d53[ALL] 04ae414abde7876c34e01694b38b2341d10b9b4c8db18a66262bd8df26bcb57893885c9fe8b79aa25330d5f05bb5aa9ab636a908a72e27956572b44190b22809be"}, "vout": 1, "txid": "fcf963c9f528dd2fed51a3a1c42bcfeea1799adeb8ac2449da15d0649d87fd82"}], "txid": "fdacedaee4b6faa6f7fe894d547d9f4fcb767ad2a85604a31d2c9b212bf9209e", "blocktime": 1537876114, "version": 2, "confirmations": 11460, "time": 1537876114, "locktime": 0, "vsize": 258, "size": 258}