{"hash": "fdb163e3156fb3281b4cefb6b35f1fc40397e9379a92d353f7364328f5206d67", "blockhash": "00000000000000000004ffacab907a6b429b9a5745fa0b75af4234bf69dd7176", "vout": [{"scriptPubKey": {"reqSigs": 1, "hex": "a914710a53e882fbf333c6559effc99e09b0bc607e7c87", "addresses": ["3BzieoixtqN6QSWq7ThyKgf9MYmAgRfonL"], "asm": "OP_HASH160 710a53e882fbf333c6559effc99e09b0bc607e7c OP_EQUAL", "type": "scripthash"}, "value": 0.08390231, "n": 0}, {"scriptPubKey": {"reqSigs": 1, "hex": "76a914128eecd1cba50dff5ed0b38e77a39f1f8ecd6ea288ac", "addresses": ["12h8P4ZLxnJc6RQgS6J5jnDKxTeKgjHYFN"], "asm": "OP_DUP OP_HASH160 128eecd1cba50dff5ed0b38e77a39f1f8ecd6ea2 OP_EQUALVERIFY OP_CHECKSIG", "type": "pubkeyhash"}, "value": 0.03949895, "n": 1}, {"scriptPubKey": {"reqSigs": 1, "hex": "a9144f6746daed8fa52f61c57c2c68a38649b0ba865d87", "addresses": ["38vs2VeR93rd4FZvjv548mjLsuNmFqYEJH"], "asm": "OP_HASH160 4f6746daed8fa52f61c57c2c68a38649b0ba865d OP_EQUAL", "type": "scripthash"}, "value": 0.00407874, "n": 2}, {"scriptPubKey": {"reqSigs": 1, "hex": "a91451cbe88fca9f9f73e693bcd11745d8d5175bca5787", "addresses": ["399WvtXA14mWeMPMqUFvK7SK4tZGgfurLb"], "asm": "OP_HASH160 51cbe88fca9f9f73e693bcd11745d8d5175bca57 OP_EQUAL", "type": "scripthash"}, "value": 0.0747497, "n": 3}, {"scriptPubKey": {"reqSigs": 1, "hex": "76a914e6e87b998504818b755880d2fb5e5a8faf83968f88ac", "addresses": ["1N3vvJyXovnDoy2rhsihu7Rc4ThdF9gqQQ"], "asm": "OP_DUP OP_HASH160 e6e87b998504818b755880d2fb5e5a8faf83968f OP_EQUALVERIFY OP_CHECKSIG", "type": "pubkeyhash"}, "value": 11.62100636, "n": 4}], "hex": "010000001a0beb100e4c87827565046503569ba044c2fe5cee96f7fb1eab0a95d44c2c2e98010000006a4730440220418fb6182675524f7e33c266db478a64cfb032f9041dcf6749db0fd5203939c60220291b008f420ab829bb39d5733ef41fb8da7feccf03e023f6a087967f33de05fd012102f745e53a8bdce547300003d9af8534b89f49cc6e9f946ec0cf42e3594dd5bf04ffffffff4ac1814d34bb6f1ff536cd205a890fb85ff837c43a54f7e8b04d113b232127001c0000006b483045022100dd479386ee5bd0d5adfcce9776fba6b66f93632283e5569c5009de77adc59b430220475a78e43e717496f705b1366977b4d2e1fc0098ab7d678e486dfc89bf516a76012103da9a4009bf50e6b1cfb66f051a1a29d5410b98e654878836a9af5889962fd7b0ffffffff4ac1814d34bb6f1ff536cd205a890fb85ff837c43a54f7e8b04d113b23212700250000006a47304402204fcf99e1d8eab5688d105d1caf9051c1a22d439dadab3734b05b9843538da27f0220519a3fe05313fe076d76eecce8e2e14ca5351c62958f6a0c3924089722bde69e0121020eae116e6ed4750ec92829c757799fa7bf05723124a0325c4285f9bb4827b58effffffff4ac1814d34bb6f1ff536cd205a890fb85ff837c43a54f7e8b04d113b232127001d0000006a473044022072cb8a12898bc7b04c124a1afbc9f3234a95281885e0dc14383b6e3490d93f5d02206ee8987919a3b1d1bef1efe70491f22284aeeb6bcd0d99955f13f33e3e1c49da012103c7cd54e8d88201255f8ef505d5a3549d37ce743c77d23689a901dfde97c4ebe3ffffffff4ac1814d34bb6f1ff536cd205a890fb85ff837c43a54f7e8b04d113b232127001f0000006b483045022100dc7a9d6d9c9f9acbb9226bdac5fc4ee07377e8a0e089c4de525d5bc73ca62e4902204b66de795156a038d94930a4f8c5af2e3f813327ba9be9eb1d9e7ecea151a7d30121034674c6955229ce0e25a71531d07b2382ffb1a2a5666a1632cc0aa7bbd4e6377dffffffff4ac1814d34bb6f1ff536cd205a890fb85ff837c43a54f7e8b04d113b232127000c0000006a47304402207a99e9a71e536f62316e70791487c57fd131d3a8f55e704aefb83afbefd9df11022053f442fa65630d24c124735763fd385afa945c6e283f8511ebb02dec25f28794012103e5a3008bc9cd598f51b60e8f8b4a78800a03fbf6fd468f83178b2b5a2acf3958ffffffff4ac1814d34bb6f1ff536cd205a890fb85ff837c43a54f7e8b04d113b232127000b0000006a47304402201e2c5267c171c2aaaea5beab4f1302030387316fe97e7b8b965964061426611d022030c174cd1a3e9b5187be13367df3ef14991722f3640a3945eff0246b7b59e69a0121021015ad1969dfadd6d26d1361bea5065b581a64eba67e11f95fd743e48d1af49effffffff4ac1814d34bb6f1ff536cd205a890fb85ff837c43a54f7e8b04d113b23212700000000006b483045022100a35684e4b2d7bdd80b042d8e443a5f81c4400bce5489438fd147d82dd214adfd02201e17d0dcace3a2b31f69cfc9778fa3cdaac4cf8323da4e1a08e447158a5f5be2012102435fbd5fa2880cd8e733742b2cbdd1c764d21d024fd5c77fd3158244795fc3d7ffffffff4ac1814d34bb6f1ff536cd205a890fb85ff837c43a54f7e8b04d113b23212700490000006b483045022100888bced858de990c88a43c1558d5af0e2d20560bb667427662672a39ce6f0cf702206e2b0545e6b4c8359554a281a90188a656d1b83d7a0eb88da75d1e148c0e27c5012102c6471ec7a65785a815ca3b1f4d799e8c96acf3280ddca73561c5c7732b5f1908ffffffff24e48eabda7b66f1f587bf3ed4ec5b6d9d0d230915c3664c9bcfc12eb534685f100000006a4730440220012b982402ac466c8c76c0181ceb632ad1cf315423081ebd11bd5ba3fb37a4050220132f9e3e18d12a06f412db2450521a5ae93ce56cde28adc85fbe28e714a3e0130121031726eae95beda7c8291e9f36cb1c2ee04d4827d4f575055993f3c5ed544b89f5ffffffff24e48eabda7b66f1f587bf3ed4ec5b6d9d0d230915c3664c9bcfc12eb534685f420000006b483045022100814de681f4b6b616a616576ebedd5adaec5840e9bacb942dc79e0921a28e90530220751827aa5951b48b9199b88784bb177d601682ca0365e69518a5e4e47f77ac05012103ff06d2d512315d09cfa3876507f35e6823e58891f4229500a8806de729d12a49ffffffff1019d053a43bdfe605b1bdac104da3baf04fb25926446ac034e81e15434a2825250000006b483045022100b8a60fc9fe58fe1fa05b428cde122299a67aed3298f1f5727d6f58c393262c8a022021495b601b0fa632952699c818801363c43d377b823e232e924fc5b9369fb8c5012102a3f2125e9ce94d4e5e71cb243a5518c7228292365aa7e523e182752a5d7365b6ffffffff1019d053a43bdfe605b1bdac104da3baf04fb25926446ac034e81e15434a2825610000006a47304402203415bbfbdf34172f9d20d06008da717927f36b81af17161712527a2e16a4dc6102202d32bebb2991f042541b41098db21bb4c9053c271a502d41906d5e4280f51212012102729076594957993260579630aaf696a9b8d9f654389994475ee48930a963d350ffffffff1019d053a43bdfe605b1bdac104da3baf04fb25926446ac034e81e15434a28253d0000006a47304402207545fe504afd35b2cdd924729de1f3868e2f4576dd182c1dfbd3928ef6905ee40220373189aa46bd5fe96d977fe1c0dc302c979135e8c6217ca59231f897629a24bd012103ff06d2d512315d09cfa3876507f35e6823e58891f4229500a8806de729d12a49ffffffff1019d053a43bdfe605b1bdac104da3baf04fb25926446ac034e81e15434a2825260000006b483045022100d1e9b8690bf7467c59b6d98682009c01672a8d02bfe29e77cbef8e3d77c7b1d802203d48df64b3521931a45e980a3f8a8df79a9338a88bc39244f0498106a9d3ede5012103c53a8fe3060930d4a302a8e24c92b3a72c41f8f89720668eb923ba53b2b4563cffffffff1019d053a43bdfe605b1bdac104da3baf04fb25926446ac034e81e15434a28251e0000006a47304402202832b5d6aa5e8eee617d0254365f80607f357a6db4cbe4e836804f945bfa8eb90220436b1789b0cb07f8a9318cf71643c6d1b61ff4dad71e9b9a7ebe8cc2ff66465c01210376d4e5dd775bd755aeebfa9d1493d91a4832abb763bd99bd9c5f37c9ef4a6ab6ffffffff1019d053a43bdfe605b1bdac104da3baf04fb25926446ac034e81e15434a28252f0000006b483045022100c52624b6f423ab62456813dc5592af18241cf2626ab6bca1c89034350f6697ce0220560702dc452cbf8b9d9eb3bddc3ff58090f65a92b4813ef8b8b937c48d7e18d3012102cce61d7a3dde7ca5c5d25c92aa0281824b0dee38afa19764369badffc1ef3945ffffffff1019d053a43bdfe605b1bdac104da3baf04fb25926446ac034e81e15434a2825520000006a473044022044cef5df3c3e0590596d113a56edc8d02d6a292919a6fc86e0d43777d042c4ba022050efa65844134eb3ff72d21a5a02597b0afc2bcb6d7a4a7d99aac4322f0e0bd7012102d92e8b415fac6c350ffd1324fed4f889b709e080a12cc22fc34ca307c43c1902ffffffff1019d053a43bdfe605b1bdac104da3baf04fb25926446ac034e81e15434a28251b0000006a4730440220605d8a89368992656e3905d84744918595fa6d414ce1aae22f330486cff2cc6c02200489db3f468b32280b573e192b2896e2b7c26f1d46f637b83f4ebd503b395e2e01210374d9bb9f0b908375f16671f447b7093458b75855022b2ee2bc63a7d8a3085379ffffffff1019d053a43bdfe605b1bdac104da3baf04fb25926446ac034e81e15434a28255c0000006a47304402201642492b707b245584babff33d881f7905338f8bfa13a437a90c2a08e1152a99022004acd58f7fe44f99c99cbc9042dd678a8d00e0c9a939b8d5aa14a8453f3da6b901210216280aac1b3e9963406b56a48cd2b0c2107c993a68fd9cf98072cb79484c3169ffffffff1019d053a43bdfe605b1bdac104da3baf04fb25926446ac034e81e15434a2825130000006b483045022100f70255d7a1019792bd95dd8af007aecc327e24a6af6a47da76ccf35d0f8139a202200ba99a24bce5abd1ec1ab868db464fef3f6c0bf184ccd914a88f395c0536648c0121023c76d19b262b6ca47e800c4bd8b1faa9f2a22775ff1de6129db8d304f468aa79ffffffff1019d053a43bdfe605b1bdac104da3baf04fb25926446ac034e81e15434a28251d0000006b483045022100c36f1fa7d13fcf62c8ccca32ade63c6d8941612894a521d7ad00f156497b5e13022045314f065d19d747a798fe63dd3b2ca1de04a6ecafc52deab522f04b4f192a5e012103e8e68e91d81e201324ace9e61b4b39600a9f9dc65b98879f872c9afb5189ea7effffffff1019d053a43bdfe605b1bdac104da3baf04fb25926446ac034e81e15434a2825060000006b483045022100c5791a6503e95c037096fa999bdee28e6d88cb7ee4ba660716c449d7ccdb494f02205f83200c9f454c0006507e5f36b45d32506e1d6568117fb75134743ae2713234012102a7afee6cf01bd48455088aa76375795ce1b07106a6a17a620965c6ed0125669fffffffff1019d053a43bdfe605b1bdac104da3baf04fb25926446ac034e81e15434a28253e0000006a473044022047b3948f951c0ad68c64882af4d9734051d8c978889e886659ceaded537f787c02200d31d7997be5fbc4b87e1fd7ffa13fa0cfc05ed037200a0bf3196146743552a3012102646c5778184d961a9a620fac32022bc296819da3c0a8a03be1cd8904b5a8bb25ffffffff1019d053a43bdfe605b1bdac104da3baf04fb25926446ac034e81e15434a2825550000006a47304402206f5d0f8f8fe3e366566461318b6faa6d195bce5b98de15635f0b7293c85019b7022047433692c3500a3dca002bcea75ef6c11274fb74b1d3fb71535f2163c57d52ce012103431290dc19016a6b78b3b6e637b2ced0614823c9d3eb48c05bd98aa8bd8ccc0effffffff1019d053a43bdfe605b1bdac104da3baf04fb25926446ac034e81e15434a2825170000006b4830450221008e92a7972e06341ec9bc99febf7f5328f3e996d928918980635519eb2bdd07ee022031a47b18c563fe0005eb690d8455a9aa7b40097faa7877bd9326e095c7f8b167012103fb3ddd0e69aa748c8ed6267032460e88b5a74c8512d29e3324afc9191cdf4f8affffffff05570680000000000017a914710a53e882fbf333c6559effc99e09b0bc607e7c8747453c00000000001976a914128eecd1cba50dff5ed0b38e77a39f1f8ecd6ea288ac423906000000000017a9144f6746daed8fa52f61c57c2c68a38649b0ba865d871a0f72000000000017a91451cbe88fca9f9f73e693bcd11745d8d5175bca57879c3f4445000000001976a914e6e87b998504818b755880d2fb5e5a8faf83968f88ac00000000", "vin": [{"sequence": 4294967295, "scriptSig": {"hex": "4730440220418fb6182675524f7e33c266db478a64cfb032f9041dcf6749db0fd5203939c60220291b008f420ab829bb39d5733ef41fb8da7feccf03e023f6a087967f33de05fd012102f745e53a8bdce547300003d9af8534b89f49cc6e9f946ec0cf42e3594dd5bf04", "asm": "30440220418fb6182675524f7e33c266db478a64cfb032f9041dcf6749db0fd5203939c60220291b008f420ab829bb39d5733ef41fb8da7feccf03e023f6a087967f33de05fd[ALL] 02f745e53a8bdce547300003d9af8534b89f49cc6e9f946ec0cf42e3594dd5bf04"}, "vout": 1, "txid": "982e2c4cd4950aab1efbf796ee5cfec244a09b56036504657582874c0e10eb0b"}, {"sequence": 4294967295, "scriptSig": {"hex": "483045022100dd479386ee5bd0d5adfcce9776fba6b66f93632283e5569c5009de77adc59b430220475a78e43e717496f705b1366977b4d2e1fc0098ab7d678e486dfc89bf516a76012103da9a4009bf50e6b1cfb66f051a1a29d5410b98e654878836a9af5889962fd7b0", "asm": "3045022100dd479386ee5bd0d5adfcce9776fba6b66f93632283e5569c5009de77adc59b430220475a78e43e717496f705b1366977b4d2e1fc0098ab7d678e486dfc89bf516a76[ALL] 03da9a4009bf50e6b1cfb66f051a1a29d5410b98e654878836a9af5889962fd7b0"}, "vout": 28, "txid": "002721233b114db0e8f7543ac437f85fb80f895a20cd36f51f6fbb344d81c14a"}, {"sequence": 4294967295, "scriptSig": {"hex": "47304402204fcf99e1d8eab5688d105d1caf9051c1a22d439dadab3734b05b9843538da27f0220519a3fe05313fe076d76eecce8e2e14ca5351c62958f6a0c3924089722bde69e0121020eae116e6ed4750ec92829c757799fa7bf05723124a0325c4285f9bb4827b58e", "asm": "304402204fcf99e1d8eab5688d105d1caf9051c1a22d439dadab3734b05b9843538da27f0220519a3fe05313fe076d76eecce8e2e14ca5351c62958f6a0c3924089722bde69e[ALL] 020eae116e6ed4750ec92829c757799fa7bf05723124a0325c4285f9bb4827b58e"}, "vout": 37, "txid": "002721233b114db0e8f7543ac437f85fb80f895a20cd36f51f6fbb344d81c14a"}, {"sequence": 4294967295, "scriptSig": {"hex": "473044022072cb8a12898bc7b04c124a1afbc9f3234a95281885e0dc14383b6e3490d93f5d02206ee8987919a3b1d1bef1efe70491f22284aeeb6bcd0d99955f13f33e3e1c49da012103c7cd54e8d88201255f8ef505d5a3549d37ce743c77d23689a901dfde97c4ebe3", "asm": "3044022072cb8a12898bc7b04c124a1afbc9f3234a95281885e0dc14383b6e3490d93f5d02206ee8987919a3b1d1bef1efe70491f22284aeeb6bcd0d99955f13f33e3e1c49da[ALL] 03c7cd54e8d88201255f8ef505d5a3549d37ce743c77d23689a901dfde97c4ebe3"}, "vout": 29, "txid": "002721233b114db0e8f7543ac437f85fb80f895a20cd36f51f6fbb344d81c14a"}, {"sequence": 4294967295, "scriptSig": {"hex": "483045022100dc7a9d6d9c9f9acbb9226bdac5fc4ee07377e8a0e089c4de525d5bc73ca62e4902204b66de795156a038d94930a4f8c5af2e3f813327ba9be9eb1d9e7ecea151a7d30121034674c6955229ce0e25a71531d07b2382ffb1a2a5666a1632cc0aa7bbd4e6377d", "asm": "3045022100dc7a9d6d9c9f9acbb9226bdac5fc4ee07377e8a0e089c4de525d5bc73ca62e4902204b66de795156a038d94930a4f8c5af2e3f813327ba9be9eb1d9e7ecea151a7d3[ALL] 034674c6955229ce0e25a71531d07b2382ffb1a2a5666a1632cc0aa7bbd4e6377d"}, "vout": 31, "txid": "002721233b114db0e8f7543ac437f85fb80f895a20cd36f51f6fbb344d81c14a"}, {"sequence": 4294967295, "scriptSig": {"hex": "47304402207a99e9a71e536f62316e70791487c57fd131d3a8f55e704aefb83afbefd9df11022053f442fa65630d24c124735763fd385afa945c6e283f8511ebb02dec25f28794012103e5a3008bc9cd598f51b60e8f8b4a78800a03fbf6fd468f83178b2b5a2acf3958", "asm": "304402207a99e9a71e536f62316e70791487c57fd131d3a8f55e704aefb83afbefd9df11022053f442fa65630d24c124735763fd385afa945c6e283f8511ebb02dec25f28794[ALL] 03e5a3008bc9cd598f51b60e8f8b4a78800a03fbf6fd468f83178b2b5a2acf3958"}, "vout": 12, "txid": "002721233b114db0e8f7543ac437f85fb80f895a20cd36f51f6fbb344d81c14a"}, {"sequence": 4294967295, "scriptSig": {"hex": "47304402201e2c5267c171c2aaaea5beab4f1302030387316fe97e7b8b965964061426611d022030c174cd1a3e9b5187be13367df3ef14991722f3640a3945eff0246b7b59e69a0121021015ad1969dfadd6d26d1361bea5065b581a64eba67e11f95fd743e48d1af49e", "asm": "304402201e2c5267c171c2aaaea5beab4f1302030387316fe97e7b8b965964061426611d022030c174cd1a3e9b5187be13367df3ef14991722f3640a3945eff0246b7b59e69a[ALL] 021015ad1969dfadd6d26d1361bea5065b581a64eba67e11f95fd743e48d1af49e"}, "vout": 11, "txid": "002721233b114db0e8f7543ac437f85fb80f895a20cd36f51f6fbb344d81c14a"}, {"sequence": 4294967295, "scriptSig": {"hex": "483045022100a35684e4b2d7bdd80b042d8e443a5f81c4400bce5489438fd147d82dd214adfd02201e17d0dcace3a2b31f69cfc9778fa3cdaac4cf8323da4e1a08e447158a5f5be2012102435fbd5fa2880cd8e733742b2cbdd1c764d21d024fd5c77fd3158244795fc3d7", "asm": "3045022100a35684e4b2d7bdd80b042d8e443a5f81c4400bce5489438fd147d82dd214adfd02201e17d0dcace3a2b31f69cfc9778fa3cdaac4cf8323da4e1a08e447158a5f5be2[ALL] 02435fbd5fa2880cd8e733742b2cbdd1c764d21d024fd5c77fd3158244795fc3d7"}, "vout": 0, "txid": "002721233b114db0e8f7543ac437f85fb80f895a20cd36f51f6fbb344d81c14a"}, {"sequence": 4294967295, "scriptSig": {"hex": "483045022100888bced858de990c88a43c1558d5af0e2d20560bb667427662672a39ce6f0cf702206e2b0545e6b4c8359554a281a90188a656d1b83d7a0eb88da75d1e148c0e27c5012102c6471ec7a65785a815ca3b1f4d799e8c96acf3280ddca73561c5c7732b5f1908", "asm": "3045022100888bced858de990c88a43c1558d5af0e2d20560bb667427662672a39ce6f0cf702206e2b0545e6b4c8359554a281a90188a656d1b83d7a0eb88da75d1e148c0e27c5[ALL] 02c6471ec7a65785a815ca3b1f4d799e8c96acf3280ddca73561c5c7732b5f1908"}, "vout": 73, "txid": "002721233b114db0e8f7543ac437f85fb80f895a20cd36f51f6fbb344d81c14a"}, {"sequence": 4294967295, "scriptSig": {"hex": "4730440220012b982402ac466c8c76c0181ceb632ad1cf315423081ebd11bd5ba3fb37a4050220132f9e3e18d12a06f412db2450521a5ae93ce56cde28adc85fbe28e714a3e0130121031726eae95beda7c8291e9f36cb1c2ee04d4827d4f575055993f3c5ed544b89f5", "asm": "30440220012b982402ac466c8c76c0181ceb632ad1cf315423081ebd11bd5ba3fb37a4050220132f9e3e18d12a06f412db2450521a5ae93ce56cde28adc85fbe28e714a3e013[ALL] 031726eae95beda7c8291e9f36cb1c2ee04d4827d4f575055993f3c5ed544b89f5"}, "vout": 16, "txid": "5f6834b52ec1cf9b4c66c31509230d9d6d5becd43ebf87f5f1667bdaab8ee424"}, {"sequence": 4294967295, "scriptSig": {"hex": "483045022100814de681f4b6b616a616576ebedd5adaec5840e9bacb942dc79e0921a28e90530220751827aa5951b48b9199b88784bb177d601682ca0365e69518a5e4e47f77ac05012103ff06d2d512315d09cfa3876507f35e6823e58891f4229500a8806de729d12a49", "asm": "3045022100814de681f4b6b616a616576ebedd5adaec5840e9bacb942dc79e0921a28e90530220751827aa5951b48b9199b88784bb177d601682ca0365e69518a5e4e47f77ac05[ALL] 03ff06d2d512315d09cfa3876507f35e6823e58891f4229500a8806de729d12a49"}, "vout": 66, "txid": "5f6834b52ec1cf9b4c66c31509230d9d6d5becd43ebf87f5f1667bdaab8ee424"}, {"sequence": 4294967295, "scriptSig": {"hex": "483045022100b8a60fc9fe58fe1fa05b428cde122299a67aed3298f1f5727d6f58c393262c8a022021495b601b0fa632952699c818801363c43d377b823e232e924fc5b9369fb8c5012102a3f2125e9ce94d4e5e71cb243a5518c7228292365aa7e523e182752a5d7365b6", "asm": "3045022100b8a60fc9fe58fe1fa05b428cde122299a67aed3298f1f5727d6f58c393262c8a022021495b601b0fa632952699c818801363c43d377b823e232e924fc5b9369fb8c5[ALL] 02a3f2125e9ce94d4e5e71cb243a5518c7228292365aa7e523e182752a5d7365b6"}, "vout": 37, "txid": "25284a43151ee834c06a442659b24ff0baa34d10acbdb105e6df3ba453d01910"}, {"sequence": 4294967295, "scriptSig": {"hex": "47304402203415bbfbdf34172f9d20d06008da717927f36b81af17161712527a2e16a4dc6102202d32bebb2991f042541b41098db21bb4c9053c271a502d41906d5e4280f51212012102729076594957993260579630aaf696a9b8d9f654389994475ee48930a963d350", "asm": "304402203415bbfbdf34172f9d20d06008da717927f36b81af17161712527a2e16a4dc6102202d32bebb2991f042541b41098db21bb4c9053c271a502d41906d5e4280f51212[ALL] 02729076594957993260579630aaf696a9b8d9f654389994475ee48930a963d350"}, "vout": 97, "txid": "25284a43151ee834c06a442659b24ff0baa34d10acbdb105e6df3ba453d01910"}, {"sequence": 4294967295, "scriptSig": {"hex": "47304402207545fe504afd35b2cdd924729de1f3868e2f4576dd182c1dfbd3928ef6905ee40220373189aa46bd5fe96d977fe1c0dc302c979135e8c6217ca59231f897629a24bd012103ff06d2d512315d09cfa3876507f35e6823e58891f4229500a8806de729d12a49", "asm": "304402207545fe504afd35b2cdd924729de1f3868e2f4576dd182c1dfbd3928ef6905ee40220373189aa46bd5fe96d977fe1c0dc302c979135e8c6217ca59231f897629a24bd[ALL] 03ff06d2d512315d09cfa3876507f35e6823e58891f4229500a8806de729d12a49"}, "vout": 61, "txid": "25284a43151ee834c06a442659b24ff0baa34d10acbdb105e6df3ba453d01910"}, {"sequence": 4294967295, "scriptSig": {"hex": "483045022100d1e9b8690bf7467c59b6d98682009c01672a8d02bfe29e77cbef8e3d77c7b1d802203d48df64b3521931a45e980a3f8a8df79a9338a88bc39244f0498106a9d3ede5012103c53a8fe3060930d4a302a8e24c92b3a72c41f8f89720668eb923ba53b2b4563c", "asm": "3045022100d1e9b8690bf7467c59b6d98682009c01672a8d02bfe29e77cbef8e3d77c7b1d802203d48df64b3521931a45e980a3f8a8df79a9338a88bc39244f0498106a9d3ede5[ALL] 03c53a8fe3060930d4a302a8e24c92b3a72c41f8f89720668eb923ba53b2b4563c"}, "vout": 38, "txid": "25284a43151ee834c06a442659b24ff0baa34d10acbdb105e6df3ba453d01910"}, {"sequence": 4294967295, "scriptSig": {"hex": "47304402202832b5d6aa5e8eee617d0254365f80607f357a6db4cbe4e836804f945bfa8eb90220436b1789b0cb07f8a9318cf71643c6d1b61ff4dad71e9b9a7ebe8cc2ff66465c01210376d4e5dd775bd755aeebfa9d1493d91a4832abb763bd99bd9c5f37c9ef4a6ab6", "asm": "304402202832b5d6aa5e8eee617d0254365f80607f357a6db4cbe4e836804f945bfa8eb90220436b1789b0cb07f8a9318cf71643c6d1b61ff4dad71e9b9a7ebe8cc2ff66465c[ALL] 0376d4e5dd775bd755aeebfa9d1493d91a4832abb763bd99bd9c5f37c9ef4a6ab6"}, "vout": 30, "txid": "25284a43151ee834c06a442659b24ff0baa34d10acbdb105e6df3ba453d01910"}, {"sequence": 4294967295, "scriptSig": {"hex": "483045022100c52624b6f423ab62456813dc5592af18241cf2626ab6bca1c89034350f6697ce0220560702dc452cbf8b9d9eb3bddc3ff58090f65a92b4813ef8b8b937c48d7e18d3012102cce61d7a3dde7ca5c5d25c92aa0281824b0dee38afa19764369badffc1ef3945", "asm": "3045022100c52624b6f423ab62456813dc5592af18241cf2626ab6bca1c89034350f6697ce0220560702dc452cbf8b9d9eb3bddc3ff58090f65a92b4813ef8b8b937c48d7e18d3[ALL] 02cce61d7a3dde7ca5c5d25c92aa0281824b0dee38afa19764369badffc1ef3945"}, "vout": 47, "txid": "25284a43151ee834c06a442659b24ff0baa34d10acbdb105e6df3ba453d01910"}, {"sequence": 4294967295, "scriptSig": {"hex": "473044022044cef5df3c3e0590596d113a56edc8d02d6a292919a6fc86e0d43777d042c4ba022050efa65844134eb3ff72d21a5a02597b0afc2bcb6d7a4a7d99aac4322f0e0bd7012102d92e8b415fac6c350ffd1324fed4f889b709e080a12cc22fc34ca307c43c1902", "asm": "3044022044cef5df3c3e0590596d113a56edc8d02d6a292919a6fc86e0d43777d042c4ba022050efa65844134eb3ff72d21a5a02597b0afc2bcb6d7a4a7d99aac4322f0e0bd7[ALL] 02d92e8b415fac6c350ffd1324fed4f889b709e080a12cc22fc34ca307c43c1902"}, "vout": 82, "txid": "25284a43151ee834c06a442659b24ff0baa34d10acbdb105e6df3ba453d01910"}, {"sequence": 4294967295, "scriptSig": {"hex": "4730440220605d8a89368992656e3905d84744918595fa6d414ce1aae22f330486cff2cc6c02200489db3f468b32280b573e192b2896e2b7c26f1d46f637b83f4ebd503b395e2e01210374d9bb9f0b908375f16671f447b7093458b75855022b2ee2bc63a7d8a3085379", "asm": "30440220605d8a89368992656e3905d84744918595fa6d414ce1aae22f330486cff2cc6c02200489db3f468b32280b573e192b2896e2b7c26f1d46f637b83f4ebd503b395e2e[ALL] 0374d9bb9f0b908375f16671f447b7093458b75855022b2ee2bc63a7d8a3085379"}, "vout": 27, "txid": "25284a43151ee834c06a442659b24ff0baa34d10acbdb105e6df3ba453d01910"}, {"sequence": 4294967295, "scriptSig": {"hex": "47304402201642492b707b245584babff33d881f7905338f8bfa13a437a90c2a08e1152a99022004acd58f7fe44f99c99cbc9042dd678a8d00e0c9a939b8d5aa14a8453f3da6b901210216280aac1b3e9963406b56a48cd2b0c2107c993a68fd9cf98072cb79484c3169", "asm": "304402201642492b707b245584babff33d881f7905338f8bfa13a437a90c2a08e1152a99022004acd58f7fe44f99c99cbc9042dd678a8d00e0c9a939b8d5aa14a8453f3da6b9[ALL] 0216280aac1b3e9963406b56a48cd2b0c2107c993a68fd9cf98072cb79484c3169"}, "vout": 92, "txid": "25284a43151ee834c06a442659b24ff0baa34d10acbdb105e6df3ba453d01910"}, {"sequence": 4294967295, "scriptSig": {"hex": "483045022100f70255d7a1019792bd95dd8af007aecc327e24a6af6a47da76ccf35d0f8139a202200ba99a24bce5abd1ec1ab868db464fef3f6c0bf184ccd914a88f395c0536648c0121023c76d19b262b6ca47e800c4bd8b1faa9f2a22775ff1de6129db8d304f468aa79", "asm": "3045022100f70255d7a1019792bd95dd8af007aecc327e24a6af6a47da76ccf35d0f8139a202200ba99a24bce5abd1ec1ab868db464fef3f6c0bf184ccd914a88f395c0536648c[ALL] 023c76d19b262b6ca47e800c4bd8b1faa9f2a22775ff1de6129db8d304f468aa79"}, "vout": 19, "txid": "25284a43151ee834c06a442659b24ff0baa34d10acbdb105e6df3ba453d01910"}, {"sequence": 4294967295, "scriptSig": {"hex": "483045022100c36f1fa7d13fcf62c8ccca32ade63c6d8941612894a521d7ad00f156497b5e13022045314f065d19d747a798fe63dd3b2ca1de04a6ecafc52deab522f04b4f192a5e012103e8e68e91d81e201324ace9e61b4b39600a9f9dc65b98879f872c9afb5189ea7e", "asm": "3045022100c36f1fa7d13fcf62c8ccca32ade63c6d8941612894a521d7ad00f156497b5e13022045314f065d19d747a798fe63dd3b2ca1de04a6ecafc52deab522f04b4f192a5e[ALL] 03e8e68e91d81e201324ace9e61b4b39600a9f9dc65b98879f872c9afb5189ea7e"}, "vout": 29, "txid": "25284a43151ee834c06a442659b24ff0baa34d10acbdb105e6df3ba453d01910"}, {"sequence": 4294967295, "scriptSig": {"hex": "483045022100c5791a6503e95c037096fa999bdee28e6d88cb7ee4ba660716c449d7ccdb494f02205f83200c9f454c0006507e5f36b45d32506e1d6568117fb75134743ae2713234012102a7afee6cf01bd48455088aa76375795ce1b07106a6a17a620965c6ed0125669f", "asm": "3045022100c5791a6503e95c037096fa999bdee28e6d88cb7ee4ba660716c449d7ccdb494f02205f83200c9f454c0006507e5f36b45d32506e1d6568117fb75134743ae2713234[ALL] 02a7afee6cf01bd48455088aa76375795ce1b07106a6a17a620965c6ed0125669f"}, "vout": 6, "txid": "25284a43151ee834c06a442659b24ff0baa34d10acbdb105e6df3ba453d01910"}, {"sequence": 4294967295, "scriptSig": {"hex": "473044022047b3948f951c0ad68c64882af4d9734051d8c978889e886659ceaded537f787c02200d31d7997be5fbc4b87e1fd7ffa13fa0cfc05ed037200a0bf3196146743552a3012102646c5778184d961a9a620fac32022bc296819da3c0a8a03be1cd8904b5a8bb25", "asm": "3044022047b3948f951c0ad68c64882af4d9734051d8c978889e886659ceaded537f787c02200d31d7997be5fbc4b87e1fd7ffa13fa0cfc05ed037200a0bf3196146743552a3[ALL] 02646c5778184d961a9a620fac32022bc296819da3c0a8a03be1cd8904b5a8bb25"}, "vout": 62, "txid": "25284a43151ee834c06a442659b24ff0baa34d10acbdb105e6df3ba453d01910"}, {"sequence": 4294967295, "scriptSig": {"hex": "47304402206f5d0f8f8fe3e366566461318b6faa6d195bce5b98de15635f0b7293c85019b7022047433692c3500a3dca002bcea75ef6c11274fb74b1d3fb71535f2163c57d52ce012103431290dc19016a6b78b3b6e637b2ced0614823c9d3eb48c05bd98aa8bd8ccc0e", "asm": "304402206f5d0f8f8fe3e366566461318b6faa6d195bce5b98de15635f0b7293c85019b7022047433692c3500a3dca002bcea75ef6c11274fb74b1d3fb71535f2163c57d52ce[ALL] 03431290dc19016a6b78b3b6e637b2ced0614823c9d3eb48c05bd98aa8bd8ccc0e"}, "vout": 85, "txid": "25284a43151ee834c06a442659b24ff0baa34d10acbdb105e6df3ba453d01910"}, {"sequence": 4294967295, "scriptSig": {"hex": "4830450221008e92a7972e06341ec9bc99febf7f5328f3e996d928918980635519eb2bdd07ee022031a47b18c563fe0005eb690d8455a9aa7b40097faa7877bd9326e095c7f8b167012103fb3ddd0e69aa748c8ed6267032460e88b5a74c8512d29e3324afc9191cdf4f8a", "asm": "30450221008e92a7972e06341ec9bc99febf7f5328f3e996d928918980635519eb2bdd07ee022031a47b18c563fe0005eb690d8455a9aa7b40097faa7877bd9326e095c7f8b167[ALL] 03fb3ddd0e69aa748c8ed6267032460e88b5a74c8512d29e3324afc9191cdf4f8a"}, "vout": 23, "txid": "25284a43151ee834c06a442659b24ff0baa34d10acbdb105e6df3ba453d01910"}], "txid": "fdb163e3156fb3281b4cefb6b35f1fc40397e9379a92d353f7364328f5206d67", "blocktime": 1537875543, "version": 1, "confirmations": 11464, "time": 1537875543, "locktime": 0, "vsize": 4008, "size": 4008}