{"hash": "38706c2e587e32f8fb22b536cd78b1ffd8b76b94f998c5b2e54405a79ed3a62a", "blockhash": "0000000000000000001f76057863aec43deb6fa401d9628bb513d65a8098bfab", "vout": [{"scriptPubKey": {"reqSigs": 1, "hex": "76a9140e17d327c5b2ba4bb76f180bc0704ff5516fdf5488ac", "addresses": ["12HX14gigm5Hv1ixtrT48oXoeZKAFn3vTT"], "asm": "OP_DUP OP_HASH160 0e17d327c5b2ba4bb76f180bc0704ff5516fdf54 OP_EQUALVERIFY OP_CHECKSIG", "type": "pubkeyhash"}, "value": 0.019316, "n": 0}, {"scriptPubKey": {"reqSigs": 1, "hex": "a914bf209afe7203cfba21f2a86a5186904ab2f7325e87", "addresses": ["3K7c3ecqYkmfT5Ks617Cd2uLdz1SYdvZwB"], "asm": "OP_HASH160 bf209afe7203cfba21f2a86a5186904ab2f7325e OP_EQUAL", "type": "scripthash"}, "value": 0.43625937, "n": 1}], "hex": "010000000001012896a9c9908e2a6d160ce04560c4a827e4ed4500db8a1b633ffe09cc1c7c9d64010000002322002065bab43678037af4a30d3563f88df50809deeae3e985cfb76fa03bc776dd8ea3ffffffff0250791d00000000001976a9140e17d327c5b2ba4bb76f180bc0704ff5516fdf5488acd1ad99020000000017a914bf209afe7203cfba21f2a86a5186904ab2f7325e870400483045022100a20866e5a58afcc9623d6dc3e01b52bba56ac05190b7b42e58070af029d4855c02201b90abf11bdd3d779b2f8d517a2c301303762218945cc4d55cfa084f0c53151e01483045022100dc25a275b24fe4345a749029c0be40cad79fc870c7ef5776b55f028cd98204ac0220644bc36853c365259768ee157680a3d7e3d2e44d6b6ca47bdeeaaa6ef73783bf0147522103a3d2593ae3495fa14febbfc83349e45dd64ca131f61dbd863da62331f8fb08ea21022f3c7f30b6ddf74a6bbe56a5b6c3809d65e37e89ea504db544e5a4995d5ee8e752ae00000000", "vin": [{"txinwitness": ["", "3045022100a20866e5a58afcc9623d6dc3e01b52bba56ac05190b7b42e58070af029d4855c02201b90abf11bdd3d779b2f8d517a2c301303762218945cc4d55cfa084f0c53151e01", "3045022100dc25a275b24fe4345a749029c0be40cad79fc870c7ef5776b55f028cd98204ac0220644bc36853c365259768ee157680a3d7e3d2e44d6b6ca47bdeeaaa6ef73783bf01", "522103a3d2593ae3495fa14febbfc83349e45dd64ca131f61dbd863da62331f8fb08ea21022f3c7f30b6ddf74a6bbe56a5b6c3809d65e37e89ea504db544e5a4995d5ee8e752ae"], "sequence": 4294967295, "scriptSig": {"hex": "22002065bab43678037af4a30d3563f88df50809deeae3e985cfb76fa03bc776dd8ea3", "asm": "002065bab43678037af4a30d3563f88df50809deeae3e985cfb76fa03bc776dd8ea3"}, "vout": 1, "txid": "649d7c1ccc09fe3f631b8adb0045ede427a8c46045e00c166d2a8e90c9a99628"}], "txid": "fdb656c0bb967259144c3121b41b83b005c8a50765cf3add29b79f9364b75427", "blocktime": 1537873891, "version": 1, "confirmations": 11478, "time": 1537873891, "locktime": 0, "vsize": 208, "size": 374}