{"hash": "fdbaf4d41ed83f7618875ccceadc8743a32fc1d823bfd9c6f981e7f5a0a7824c", "blockhash": "0000000000000000000dcc0f55137456b1a82d3642486a52398922ac4d620174", "vout": [{"scriptPubKey": {"reqSigs": 1, "hex": "a914d8aac9a090ea1b1eb9e622e14532945fa3f9f13487", "addresses": ["3MSeUWY3N4WSWEasxNjkuYdm6PeUZXHtvz"], "asm": "OP_HASH160 d8aac9a090ea1b1eb9e622e14532945fa3f9f134 OP_EQUAL", "type": "scripthash"}, "value": 0.0035666, "n": 0}, {"scriptPubKey": {"reqSigs": 1, "hex": "76a914267f2ac1845c84353a43476395afb576b497e95788ac", "addresses": ["14WZ21WCy8wzUdsaGaoVQ3JNLYbURNdtZw"], "asm": "OP_DUP OP_HASH160 267f2ac1845c84353a43476395afb576b497e957 OP_EQUALVERIFY OP_CHECKSIG", "type": "pubkeyhash"}, "value": 0.13156445, "n": 1}], "hex": "010000000159e3d9e53bc8c9884efa69cf96b71a7fcbaafdcd229f1d125036b7cb43b9c75d010000006b483045022100f5032bc0def05ebe57b9d8eebdf04b9f2dfd522c78c75fc5a9f03061325f6f7402202a3f172527a3b224db75e76edf47ddb627efaabf6e6249c98b0f73e83fd31af3012102762be87e3b34cdb5e9af7a59f9f466036864379689e917d79a56aa2b68a8f6e5ffffffff02347105000000000017a914d8aac9a090ea1b1eb9e622e14532945fa3f9f134875dc0c800000000001976a914267f2ac1845c84353a43476395afb576b497e95788ac00000000", "vin": [{"sequence": 4294967295, "scriptSig": {"hex": "483045022100f5032bc0def05ebe57b9d8eebdf04b9f2dfd522c78c75fc5a9f03061325f6f7402202a3f172527a3b224db75e76edf47ddb627efaabf6e6249c98b0f73e83fd31af3012102762be87e3b34cdb5e9af7a59f9f466036864379689e917d79a56aa2b68a8f6e5", "asm": "3045022100f5032bc0def05ebe57b9d8eebdf04b9f2dfd522c78c75fc5a9f03061325f6f7402202a3f172527a3b224db75e76edf47ddb627efaabf6e6249c98b0f73e83fd31af3[ALL] 02762be87e3b34cdb5e9af7a59f9f466036864379689e917d79a56aa2b68a8f6e5"}, "vout": 1, "txid": "5dc7b943cbb73650121d9f22cdfdaacb7f1ab796cf69fa4e88c9c83be5d9e359"}], "txid": "fdbaf4d41ed83f7618875ccceadc8743a32fc1d823bfd9c6f981e7f5a0a7824c", "blocktime": 1537870268, "version": 1, "confirmations": 11516, "time": 1537870268, "locktime": 0, "vsize": 224, "size": 224}