{"hash": "fdc13903e03682197ab59d8204143cf8b288003a9ae4d15a500f69346f1733a1", "blockhash": "000000000000000000022b45ed06c6f4ccd3cf7fb5ba4856ebd2e58215665228", "vout": [{"scriptPubKey": {"reqSigs": 1, "hex": "76a914df5b1b5a5b33068cca91f26371a7bc3ebd813d8c88ac", "addresses": ["1MMzpzbC5JVPr5CURmq2ZjBjpeLEntCDyP"], "asm": "OP_DUP OP_HASH160 df5b1b5a5b33068cca91f26371a7bc3ebd813d8c OP_EQUALVERIFY OP_CHECKSIG", "type": "pubkeyhash"}, "value": 0.06018798, "n": 0}, {"scriptPubKey": {"reqSigs": 1, "hex": "76a914cf2d190297d0cb5b1e96f67c63fc84c6f4e1ee7d88ac", "addresses": ["1KtSu9oSM5UgMJXmewxTdLbH1u29rN6rYs"], "asm": "OP_DUP OP_HASH160 cf2d190297d0cb5b1e96f67c63fc84c6f4e1ee7d OP_EQUALVERIFY OP_CHECKSIG", "type": "pubkeyhash"}, "value": 1.66030589, "n": 1}], "hex": "0100000004228a2d64b4fbd5c3040ce6b7195f48fbd2b6068969bc36cfb38640bb3ea3b217000000006b483045022100d78640d598d72c0bc611cfd493d89c74948b0bb22cb745ca1d5968f61c60e07d02207ff88674b40e01d9e816b24f82b211d31a8624d9cb29e09ee59fc1c34544812b012102450ec91d3a6758336e317ba07299f8ff577edb3abdb9ae2afdf1365a0b9d14bbfeffffff1067f84c27b0f2c352c12f48a76de50ce3ba4f36f107624865347c30ff52fc6c010000006b483045022100c6592f7ad96547446495e8dd4beeabbb9d1cc2c67a6b2f759819937a77b06df00220236eb0393ff3034b464cb5ab775f28e65837530db40739afdc480527642f26630121029d28b0f0201a78bedd590ff0c073f76cb24b7ca21d143b27c814067aa33d4a59feffffff182ff96ed9e9de622554baf2438b2cd26666427a4bccd39857c4b0b841617f7d020000006a47304402205cfe71aeb2b75f4bdf41eb3f8897d26d333121447c3da4b19327950d8bcceb7c02205e2467b93bae96aedd15ed651502a0e8c6f65b1537069b4bc7c33d67db64902f01210217ef54ab60bcbfc61f78977bebc90e5e232b77a2a5e438e57c581fb62c4d31e0feffffff542376847d69637e95359e40be42067ad6ffafa736ee147a17381432d0fc78ca020000006a47304402204faf802d064a1341c961ff94db396cbcdb03ce8505631523b0b3cc96f531e8b102203de7dad54c3147c5a8c2fcfa15f9b4f5f461e928dd6b3f8d7eb3973b3166736f0121023fa7b159acc265a0475a305da2e1c4952ffa3397d61018a4dc13e27d36e43f51feffffff02eed65b00000000001976a914df5b1b5a5b33068cca91f26371a7bc3ebd813d8c88acfd6ce509000000001976a914cf2d190297d0cb5b1e96f67c63fc84c6f4e1ee7d88ac0a490800", "vin": [{"sequence": 4294967294, "scriptSig": {"hex": "483045022100d78640d598d72c0bc611cfd493d89c74948b0bb22cb745ca1d5968f61c60e07d02207ff88674b40e01d9e816b24f82b211d31a8624d9cb29e09ee59fc1c34544812b012102450ec91d3a6758336e317ba07299f8ff577edb3abdb9ae2afdf1365a0b9d14bb", "asm": "3045022100d78640d598d72c0bc611cfd493d89c74948b0bb22cb745ca1d5968f61c60e07d02207ff88674b40e01d9e816b24f82b211d31a8624d9cb29e09ee59fc1c34544812b[ALL] 02450ec91d3a6758336e317ba07299f8ff577edb3abdb9ae2afdf1365a0b9d14bb"}, "vout": 0, "txid": "17b2a33ebb4086b3cf36bc698906b6d2fb485f19b7e60c04c3d5fbb4642d8a22"}, {"sequence": 4294967294, "scriptSig": {"hex": "483045022100c6592f7ad96547446495e8dd4beeabbb9d1cc2c67a6b2f759819937a77b06df00220236eb0393ff3034b464cb5ab775f28e65837530db40739afdc480527642f26630121029d28b0f0201a78bedd590ff0c073f76cb24b7ca21d143b27c814067aa33d4a59", "asm": "3045022100c6592f7ad96547446495e8dd4beeabbb9d1cc2c67a6b2f759819937a77b06df00220236eb0393ff3034b464cb5ab775f28e65837530db40739afdc480527642f2663[ALL] 029d28b0f0201a78bedd590ff0c073f76cb24b7ca21d143b27c814067aa33d4a59"}, "vout": 1, "txid": "6cfc52ff307c3465486207f1364fbae30ce56da7482fc152c3f2b0274cf86710"}, {"sequence": 4294967294, "scriptSig": {"hex": "47304402205cfe71aeb2b75f4bdf41eb3f8897d26d333121447c3da4b19327950d8bcceb7c02205e2467b93bae96aedd15ed651502a0e8c6f65b1537069b4bc7c33d67db64902f01210217ef54ab60bcbfc61f78977bebc90e5e232b77a2a5e438e57c581fb62c4d31e0", "asm": "304402205cfe71aeb2b75f4bdf41eb3f8897d26d333121447c3da4b19327950d8bcceb7c02205e2467b93bae96aedd15ed651502a0e8c6f65b1537069b4bc7c33d67db64902f[ALL] 0217ef54ab60bcbfc61f78977bebc90e5e232b77a2a5e438e57c581fb62c4d31e0"}, "vout": 2, "txid": "7d7f6141b8b0c45798d3cc4b7a426666d22c8b43f2ba542562dee9d96ef92f18"}, {"sequence": 4294967294, "scriptSig": {"hex": "47304402204faf802d064a1341c961ff94db396cbcdb03ce8505631523b0b3cc96f531e8b102203de7dad54c3147c5a8c2fcfa15f9b4f5f461e928dd6b3f8d7eb3973b3166736f0121023fa7b159acc265a0475a305da2e1c4952ffa3397d61018a4dc13e27d36e43f51", "asm": "304402204faf802d064a1341c961ff94db396cbcdb03ce8505631523b0b3cc96f531e8b102203de7dad54c3147c5a8c2fcfa15f9b4f5f461e928dd6b3f8d7eb3973b3166736f[ALL] 023fa7b159acc265a0475a305da2e1c4952ffa3397d61018a4dc13e27d36e43f51"}, "vout": 2, "txid": "ca78fcd0321438177a14ee36a7afffd67a0642be409e35957e63697d84762354"}], "txid": "fdc13903e03682197ab59d8204143cf8b288003a9ae4d15a500f69346f1733a1", "blocktime": 1537869901, "version": 1, "confirmations": 11523, "time": 1537869901, "locktime": 542986, "vsize": 668, "size": 668}