{"hash": "fdc24aae24a7f01e1389e2b09914f7aa81c6a223c87e423f7cc7a6d40c8dc1dd", "blockhash": "0000000000000000000baef3f32e3676a92c3b2e5da21b426e4f302fc371ce76", "vout": [{"scriptPubKey": {"reqSigs": 1, "hex": "a91424af774ddf8d24b53e46c244cf9e71d6c93cb97387", "addresses": ["352zT3Ts9piSDhZpBsDoZMvdtDmJioQNBo"], "asm": "OP_HASH160 24af774ddf8d24b53e46c244cf9e71d6c93cb973 OP_EQUAL", "type": "scripthash"}, "value": 0.06252783, "n": 0}, {"scriptPubKey": {"reqSigs": 1, "hex": "76a91481c244bb06c0ef2ba5fa0aaa1ed505db45ea3d5888ac", "addresses": ["1Cq6tktRo2S65RQpjpLjM6Mg3pTC3JpTMH"], "asm": "OP_DUP OP_HASH160 81c244bb06c0ef2ba5fa0aaa1ed505db45ea3d58 OP_EQUALVERIFY OP_CHECKSIG", "type": "pubkeyhash"}, "value": 0.34992332, "n": 1}], "hex": "01000000015fb705c5d8116ad3990b2dbfe93583d1d5166f1a0a3bed033d225e12b5fab3f3000000006a473044022034b3801bf5358ad7f5f2dabea9c0dd87cfb207a05bd7c708a7344a625029370502207cc03a354116b0bc8b2c4ba8204b36e3c7d5627cad436554e7941e75c8bfab68012103529b0823ba932ec4f32d5289519b4fbced5d373dd22480a57178c4dc883156a8fdffffff02ef685f000000000017a91424af774ddf8d24b53e46c244cf9e71d6c93cb97387ccf01502000000001976a91481c244bb06c0ef2ba5fa0aaa1ed505db45ea3d5888ac16490800", "vin": [{"sequence": 4294967293, "scriptSig": {"hex": "473044022034b3801bf5358ad7f5f2dabea9c0dd87cfb207a05bd7c708a7344a625029370502207cc03a354116b0bc8b2c4ba8204b36e3c7d5627cad436554e7941e75c8bfab68012103529b0823ba932ec4f32d5289519b4fbced5d373dd22480a57178c4dc883156a8", "asm": "3044022034b3801bf5358ad7f5f2dabea9c0dd87cfb207a05bd7c708a7344a625029370502207cc03a354116b0bc8b2c4ba8204b36e3c7d5627cad436554e7941e75c8bfab68[ALL] 03529b0823ba932ec4f32d5289519b4fbced5d373dd22480a57178c4dc883156a8"}, "vout": 0, "txid": "f3b3fab5125e223d03ed3b0a1a6f16d5d18335e9bf2d0b99d36a11d8c505b75f"}], "txid": "fdc24aae24a7f01e1389e2b09914f7aa81c6a223c87e423f7cc7a6d40c8dc1dd", "blocktime": 1537876114, "version": 1, "confirmations": 11460, "time": 1537876114, "locktime": 542998, "vsize": 223, "size": 223}