{"hash": "fdd1c1e782019f950ce03bf468689577b59d639c58dcc23f039d223d9e94aedc", "blockhash": "0000000000000000001cda96e906b7601b7a6fb1a3b62bca570a9e5d8f4b3de1", "vout": [{"scriptPubKey": {"reqSigs": 1, "hex": "76a914a03698dc6847529d3251aa2337f3e2b2ba65bd3f88ac", "addresses": ["1Fc8XAg6H7aWLrhtS4ME8sFJMx3uUaASUt"], "asm": "OP_DUP OP_HASH160 a03698dc6847529d3251aa2337f3e2b2ba65bd3f OP_EQUALVERIFY OP_CHECKSIG", "type": "pubkeyhash"}, "value": 0.004957, "n": 0}, {"scriptPubKey": {"reqSigs": 1, "hex": "76a914016c998dbea5744d5549c7e1dcfd365174e5adb288ac", "addresses": ["18XmqhETGh5FCDgAnHpEZU7EjRF8vpPvH"], "asm": "OP_DUP OP_HASH160 016c998dbea5744d5549c7e1dcfd365174e5adb2 OP_EQUALVERIFY OP_CHECKSIG", "type": "pubkeyhash"}, "value": 0.02573936, "n": 1}], "hex": "0100000001808ff65f98a691c1193d2d75fc611dff60fb38228ce1f855438a06cc93e84074000000006a473044022053675918b5ce648ded6ed376b7f4d5856d25e2af9a03085ae09265cb52cd46bd022049d18d923154cf4999d438ea6315f07e7a71663010e194f5d08b188ccdb791a0012103bf224e9a7fce81355451f08457f65598375e99376035d3d6a1a18dd3aedabe90ffffffff0254900700000000001976a914a03698dc6847529d3251aa2337f3e2b2ba65bd3f88ac70462700000000001976a914016c998dbea5744d5549c7e1dcfd365174e5adb288ac00000000", "vin": [{"sequence": 4294967295, "scriptSig": {"hex": "473044022053675918b5ce648ded6ed376b7f4d5856d25e2af9a03085ae09265cb52cd46bd022049d18d923154cf4999d438ea6315f07e7a71663010e194f5d08b188ccdb791a0012103bf224e9a7fce81355451f08457f65598375e99376035d3d6a1a18dd3aedabe90", "asm": "3044022053675918b5ce648ded6ed376b7f4d5856d25e2af9a03085ae09265cb52cd46bd022049d18d923154cf4999d438ea6315f07e7a71663010e194f5d08b188ccdb791a0[ALL] 03bf224e9a7fce81355451f08457f65598375e99376035d3d6a1a18dd3aedabe90"}, "vout": 0, "txid": "7440e893cc068a4355f8e18c2238fb60ff1d61fc752d3d19c191a6985ff68f80"}], "txid": "fdd1c1e782019f950ce03bf468689577b59d639c58dcc23f039d223d9e94aedc", "blocktime": 1537873282, "version": 1, "confirmations": 11480, "time": 1537873282, "locktime": 0, "vsize": 225, "size": 225}