{"hash": "fdd167bd1c8b287bd2ed49bcb4b1cc6980bb394c4566df4340b981696127abe3", "blockhash": "0000000000000000001cda96e906b7601b7a6fb1a3b62bca570a9e5d8f4b3de1", "vout": [{"scriptPubKey": {"reqSigs": 1, "hex": "76a914d243e6abb9a60fbff430b421d2df4b7d59ec186088ac", "addresses": ["1LAnF8h3qMGx3TSwNUHVneBZUEpwE4gu3D"], "asm": "OP_DUP OP_HASH160 d243e6abb9a60fbff430b421d2df4b7d59ec1860 OP_EQUALVERIFY OP_CHECKSIG", "type": "pubkeyhash"}, "value": 0.00076972, "n": 0}, {"scriptPubKey": {"reqSigs": 1, "hex": "76a9143851f34d13937b673a7d24a1950bb5b21ce94af388ac", "addresses": ["168o1kqNquEJeR9vosUB5fw4eAwcVAgh8P"], "asm": "OP_DUP OP_HASH160 3851f34d13937b673a7d24a1950bb5b21ce94af3 OP_EQUALVERIFY OP_CHECKSIG", "type": "pubkeyhash"}, "value": 5.46e-06, "n": 1}, {"scriptPubKey": {"type": "nulldata", "hex": "6a146f6d6e69000000000000001f000000b6ef1245c0", "asm": "OP_RETURN 6f6d6e69000000000000001f000000b6ef1245c0"}, "value": 0.0, "n": 2}], "hex": "01000000022bd9630fbee4c83e7454fb5188f1cf995a16e66cbd14d2e52b22095948f5e792010000006a4730440220618cb42d862b5799b12a8470e6acbd115c9a9ed5540aebade24f5bfb7f6b0595022070766199115bdb4e210ee9e20068116ab50e173a5907e06be9c6afabf3bb269f012102af25b850c1fc6c41f69d268b0a403b91fcd019e05495b287329f4cb3dfd2d1d5ffffffff6c658800c599a775f97a867c60ddeca73bb604c2830e80e638ad866714a2d969000000006b483045022100bcfc8ad041a5ce5fbcd8a99b9b620c92aca8d9c8d53d76c56ccba2126f7cba8502201a36f8d202cfbe69a6500993846ff7629b35ce9c3238feefb6ba43fabe14fe6901210271977291b74f1f5f5c42157e8aae804664eaaeccfd097918450d37f28fb94d77ffffffff03ac2c0100000000001976a914d243e6abb9a60fbff430b421d2df4b7d59ec186088ac22020000000000001976a9143851f34d13937b673a7d24a1950bb5b21ce94af388ac0000000000000000166a146f6d6e69000000000000001f000000b6ef1245c000000000", "vin": [{"sequence": 4294967295, "scriptSig": {"hex": "4730440220618cb42d862b5799b12a8470e6acbd115c9a9ed5540aebade24f5bfb7f6b0595022070766199115bdb4e210ee9e20068116ab50e173a5907e06be9c6afabf3bb269f012102af25b850c1fc6c41f69d268b0a403b91fcd019e05495b287329f4cb3dfd2d1d5", "asm": "30440220618cb42d862b5799b12a8470e6acbd115c9a9ed5540aebade24f5bfb7f6b0595022070766199115bdb4e210ee9e20068116ab50e173a5907e06be9c6afabf3bb269f[ALL] 02af25b850c1fc6c41f69d268b0a403b91fcd019e05495b287329f4cb3dfd2d1d5"}, "vout": 1, "txid": "92e7f5485909222be5d214bd6ce6165a99cff18851fb54743ec8e4be0f63d92b"}, {"sequence": 4294967295, "scriptSig": {"hex": "483045022100bcfc8ad041a5ce5fbcd8a99b9b620c92aca8d9c8d53d76c56ccba2126f7cba8502201a36f8d202cfbe69a6500993846ff7629b35ce9c3238feefb6ba43fabe14fe6901210271977291b74f1f5f5c42157e8aae804664eaaeccfd097918450d37f28fb94d77", "asm": "3045022100bcfc8ad041a5ce5fbcd8a99b9b620c92aca8d9c8d53d76c56ccba2126f7cba8502201a36f8d202cfbe69a6500993846ff7629b35ce9c3238feefb6ba43fabe14fe69[ALL] 0271977291b74f1f5f5c42157e8aae804664eaaeccfd097918450d37f28fb94d77"}, "vout": 0, "txid": "69d9a2146786ad38e6800e83c204b63ba7ecdd607c867af975a799c50088656c"}], "txid": "fdd167bd1c8b287bd2ed49bcb4b1cc6980bb394c4566df4340b981696127abe3", "blocktime": 1537873282, "version": 1, "confirmations": 11483, "time": 1537873282, "locktime": 0, "vsize": 404, "size": 404}