{"hash": "fdd6e6760b6745e711b52347207135fd4bdb944851728a4140c8d7e2a4a66347", "blockhash": "0000000000000000001f76057863aec43deb6fa401d9628bb513d65a8098bfab", "vout": [{"scriptPubKey": {"reqSigs": 1, "hex": "76a91452f4c4e3bc44a73867c70b133d4bfc6b826238ba88ac", "addresses": ["18Zddawz4gm3dYbXdRb9o53qw2ZGQqprZn"], "asm": "OP_DUP OP_HASH160 52f4c4e3bc44a73867c70b133d4bfc6b826238ba OP_EQUALVERIFY OP_CHECKSIG", "type": "pubkeyhash"}, "value": 0.24352196, "n": 0}, {"scriptPubKey": {"reqSigs": 1, "hex": "76a9144a0f1e2f2b0d7daeec5265f10bbbbe08ed725e8988ac", "addresses": ["17kb7c9ndg7ioSuzMWEHWECdEVUegNkcGc"], "asm": "OP_DUP OP_HASH160 4a0f1e2f2b0d7daeec5265f10bbbbe08ed725e89 OP_EQUALVERIFY OP_CHECKSIG", "type": "pubkeyhash"}, "value": 0.00642956, "n": 1}], "hex": "010000000151761f36a9844885358de38229c15036537200d3b28119b2e873375d2f388aff010000006a473044022032864c833b45334d2190ac88c26644175391e9042b07147624e8c5c3ad9bbdb702206d7951c67128be3a2fd9de21d38c94835fa14d404117ab950acf0393fb86ef8101210363e1776495149c5a4e92acf453a3caa19000fc804e4ba2024b600ba25e09c943ffffffff02c4957301000000001976a91452f4c4e3bc44a73867c70b133d4bfc6b826238ba88ac8ccf0900000000001976a9144a0f1e2f2b0d7daeec5265f10bbbbe08ed725e8988ac00000000", "vin": [{"sequence": 4294967295, "scriptSig": {"hex": "473044022032864c833b45334d2190ac88c26644175391e9042b07147624e8c5c3ad9bbdb702206d7951c67128be3a2fd9de21d38c94835fa14d404117ab950acf0393fb86ef8101210363e1776495149c5a4e92acf453a3caa19000fc804e4ba2024b600ba25e09c943", "asm": "3044022032864c833b45334d2190ac88c26644175391e9042b07147624e8c5c3ad9bbdb702206d7951c67128be3a2fd9de21d38c94835fa14d404117ab950acf0393fb86ef81[ALL] 0363e1776495149c5a4e92acf453a3caa19000fc804e4ba2024b600ba25e09c943"}, "vout": 1, "txid": "ff8a382f5d3773e8b21981b2d30072533650c12982e38d35854884a9361f7651"}], "txid": "fdd6e6760b6745e711b52347207135fd4bdb944851728a4140c8d7e2a4a66347", "blocktime": 1537873891, "version": 1, "confirmations": 11475, "time": 1537873891, "locktime": 0, "vsize": 225, "size": 225}