{"hash": "22487ea3be074ce7d862fca783699f8642ddb3f21d0ab529c514c3517cddfeb4", "blockhash": "00000000000000000004ffacab907a6b429b9a5745fa0b75af4234bf69dd7176", "vout": [{"scriptPubKey": {"reqSigs": 1, "hex": "76a91480fed642091fadd1411405cb5e65690729dfa78e88ac", "addresses": ["1Cm4mwGYSyYrHA6Vm4u9u7zp2tVxeBAEvM"], "asm": "OP_DUP OP_HASH160 80fed642091fadd1411405cb5e65690729dfa78e OP_EQUALVERIFY OP_CHECKSIG", "type": "pubkeyhash"}, "value": 0.3, "n": 0}, {"scriptPubKey": {"reqSigs": 1, "hex": "a914ea645e5e20987adfaa9d5fa4a915d008965f102387", "addresses": ["3P4NHAbib3uvj6QNYmPWqEJMZnx4HzszTp"], "asm": "OP_HASH160 ea645e5e20987adfaa9d5fa4a915d008965f1023 OP_EQUAL", "type": "scripthash"}, "value": 0.01004631, "n": 1}], "hex": "0200000000011cf85193ea7437681962790d6773688ad9c199b1c7437437e2a888335effe10deb1f000000171600148ea2a3bfb4d37e6ccf344c26220bc572752bcf7fffffffffc662454bb8b45df93be2a630bea928db2e64863e515acf10a1cdd485d35a03e20100000017160014b73a66d49ca6b06988b3a16b18af6ba0fd52d7f3ffffffff52d109b65ff5b5288d0d6862809e6f598dabc34f25563b53972f81d681f985a31e00000017160014e59fac8bff7022c35109a00760f438c3494957eaffffffffd1ed1f85eb99c6f98b159ee21776505c959f2868fd84c4dc76a94ffb0f2e393e2c000000171600141ace949c0dc94a911a4f9e278c23d2e31c85c9d7ffffffff9769df820523786a341fddece920bb63f979ef36494fdf40a36960e8c861995d0600000017160014ceba219de5257b26d184c87f8b0451b03b4890b0ffffffff211858cbcd5fd86546ded204f71acbf4fee0ffa8d722e13cb5bdd297e80e1e3a0b00000017160014435bebf1de6952ef3668cf1b7a8b952ea8cc947bffffffff01ba074a491893464e430f4da2c26524e672311b78adf33bb32549423599071c0f00000017160014515e024931bab9a33b80921001124152b2d64a98ffffffff186856353d33ad8fa9793f2bb92bc565b2d08c8d31aec5f771bfd935ac5b5f580100000017160014366f7f692b9c337f7b8789cd4b29cf683a58eb0bffffffffbbf9d77e0c15590f962e01b3c8871884be33c744383e2d89264f34196dd5f54f0100000017160014fd6beda738a74bd60a2ea84ab2a0258e852ff044ffffffff781a5bce104f7a2e4ae3ec969d296eab32a69152b079073f5ac0cc84c6a94e3b1a00000017160014618528b47421841874eea4f6fbfbfbeef404a9a1ffffffff211858cbcd5fd86546ded204f71acbf4fee0ffa8d722e13cb5bdd297e80e1e3a1a000000171600143589ad06ce8acd9340cf34735c2f4eaea360a1dfffffffff781a5bce104f7a2e4ae3ec969d296eab32a69152b079073f5ac0cc84c6a94e3b13000000171600146b241827eaa91029b52a6b5edc7b27487f45a816ffffffff5e68d0c7d118935d980806e433f15b3d3191fe156c4547d6c1db8e03743402ff1200000017160014371e00a45e93791e2f430b307af3b62f527774b8ffffffff9769df820523786a341fddece920bb63f979ef36494fdf40a36960e8c861995d2000000017160014f3809a6a1276ec62acb33b4feda7a9ca20849f69ffffffffd1ed1f85eb99c6f98b159ee21776505c959f2868fd84c4dc76a94ffb0f2e393e0400000017160014c997223cc5b7a503547abcffadbffb1ac161e62bffffffff211858cbcd5fd86546ded204f71acbf4fee0ffa8d722e13cb5bdd297e80e1e3a0600000017160014c00a1d4752afb40d428f973c6ea714fa2ee2c716ffffffff0004a6a5d906bb21402ad97f15fb965fef317dee5f59dd073b1113f4d0e7f775020000001716001497b82e30059087fe9dc28a205ee4cbadf73ae8c4ffffffff781a5bce104f7a2e4ae3ec969d296eab32a69152b079073f5ac0cc84c6a94e3b1c0000001716001411654119c8b2649899632120265ce4b57a521e91ffffffff13baf2fa5ee06683d87217ff84379083ad14adfa4b2757b9e1c26bc79ffaafeb0800000017160014c451366c3cd55d13d8fbb420160d5a5761acfdd2ffffffff781a5bce104f7a2e4ae3ec969d296eab32a69152b079073f5ac0cc84c6a94e3b1000000017160014bd79dd56ac67f67b2aeecc42f200731129a117feffffffff211858cbcd5fd86546ded204f71acbf4fee0ffa8d722e13cb5bdd297e80e1e3a1e00000017160014da0afbbd5ef739a61585c8707b4b693f56b75d0dffffffff9769df820523786a341fddece920bb63f979ef36494fdf40a36960e8c861995d0700000017160014622d61838782f549c3f4d30eeb68d360c45ebd64ffffffff9769df820523786a341fddece920bb63f979ef36494fdf40a36960e8c861995d050000001716001484a5cbbf8d93ba5206c4fdedb406d0ff725840e3ffffffffd1ed1f85eb99c6f98b159ee21776505c959f2868fd84c4dc76a94ffb0f2e393e2a000000171600149139df730fa36e257892ebb5d830928f91683734ffffffffd1ed1f85eb99c6f98b159ee21776505c959f2868fd84c4dc76a94ffb0f2e393e1c000000171600140879ea7fd2beaae0011e6083f529bab4812234e0ffffffff6251e44df094208fc95fa4d69d67375b676f33f541add48358267d2e5a3e63cf13000000171600144b4194d4700c231d403e47c8520b60d6e5285208ffffffffceb4c4c6f05972bbb2ca22af250e5b5588d31710874aee83fa4907bd1f5bc3350000000017160014ec4201d6287cc7145291fea6383cd7754d7c1d6affffffff6251e44df094208fc95fa4d69d67375b676f33f541add48358267d2e5a3e63cf1400000017160014c6f2089b34dc2ee2e69c39980a6d1215edfdca6effffffff0280c3c901000000001976a91480fed642091fadd1411405cb5e65690729dfa78e88ac57540f000000000017a914ea645e5e20987adfaa9d5fa4a915d008965f1023870248304502210081810b1b8e3cb7186541a3d5ab7d3d498f3f7e4af170c736eda19986c30bfcc9022019955078c32a821b5f6399cedf209e77e351dbb8355a148887ba8d8479d5b631012103eacfb4c192adda506353ed2ae34bb29bb0d62cd19d66dea1a857d6d58fb893fc024730440220553c9cdaa5413f3bed4b538b60d7d163cdf70e01e7d2b2444333d44aa549c1e902206a71d11e7c9a44a0cb27c84e141ec52c5e5eb8035a9d52553285ee650d5ee6bf0121032a3752eac5fe7ac179aa72ae8a0571333e8dd8bc10d897ced844cc22d6afe758024730440220589c6d9db5728537ee6ab9e8b63eaf0286bd1e8acf3b594bf2c180d772031ce8022021d4646e2ea5d7be1eba1502506abcd0a44c4d7bc4f001453a22adc1203582490121030133a5870130b8232200fc7a77f64470a8ec0058d162fb63008e8db1f670d47b02483045022100bec6f813d81e40e66164d86bbfa0aef1260b82b03baac60f4c48498d97b6e18e0220381081861e23e5eaaa9198e53c98af81771ca262b06590c8769c4acdf41b0849012102e868f95cdd9e639630af3e6ab48e32a0bebcd148883ed907a8708305cfd90ea40247304402200bedf5fbda48514b4024665bf134307cff25dba0d9f375a800468ec5ade7261c022047469ff0f434876c1ac0f9a7e968578d83dc238cdab36c4e19f34fe64d14d9dd012102dd54bcedcf9fe9a53467eaa98121a55b829250e9444a8cb8f306759deab1645402483045022100e4edc47190d6bbffae4e9fd2dc6018a3edb8b4e1ed25ba7d2e49f04473e828b402200f6d85c35ffbb955ee1c22bd960ac15bcb5818b253ef7744cf5e37efccc731bb01210276b133709bd26ab7c96b48cd8ec9d120957b16d4bf52c406aa90ac569dd91e8202483045022100a6e4120692016dfab60b20f4ae0909e00830144184785f7d745bc52410403f4702203c13db972b54fa4cb4c0c98b978ce1c5387d26fe3bcc734d4ef106a80dba4187012102e2af5b8b24201db8a279813d8771321296d7ebdc3e1870184a22e3fd8f8ec2ae0247304402200bf59477084902ded1822062d6a70043c94f90db0485c0fa53a1256dc57fdd1002201ad247e1ae9dd7b080d5a4e6c15775ddd48a48f4f0d462d9e1331314b0349d9c012102e5233df0919b6cde6d1fe1843986ba6b272025542028a7bb93c08d59eaae8ccc0247304402207d755cffa3370dfa36a1d4c9b644ffadd45802abc3bb92274e28a7c2dbcd14ff02200be8b7f2aef5e56eec5e00f65f625afd8a0e4139a72ac2e84b1f0a56416f52a4012102ac2da268a3d56ec754a063e8073d95c50140c3e39915723a0ad728d5f82784ef0247304402203da466f7b637c762bb90aded7de0ccf73f25e8032f4b3f1816c5be1aea4a891102207c0703bf778d60b5773588add6c5b71d65ccf477adab338da1e4bab489334d390121033b2ab863641975e3a3e18fac64fa2ab46a9176d751df084c217867f552a01d61024830450221008bbcd944833d1134790867385496e5f4a438cf1603b7579d9ad5feef813e442c02206ee59779c2ae2c75a564a28f5768bfdbd7bba269ff56d29c2e69faadae09c110012102d7ed3053a7de1c1fb4cea3a3ce7e584de56c9fc16b2b6b0b6556ccafb1a010ce024730440220575330adc71e3c97129316129331f784c4d6e6d6e0970be0b10c773c4d03cfdb022044a16d0e2f51480330776b1f06e95acc8eeb71c5b9c35587512cb11cd5262ceb012102e2137ed9e73a5b3601a50f9660e7478c4231eee6869ab9c6df67086725e381bf02483045022100aceaf0be7af69d1ab0212aa0c5d78ea189f7c4047bd3ab6057969e20defdddfc022072849b1caef19fdd9345ad63deab0dea0c1f5d1ebd80d8377017c89333340e230121035deb2a2e31d0227e1faff8ac8a27201b7342c9860752844a304bea4d0ee973d70248304502210095078525482924907b61738ced4d61fc4bc2b2259d261feeb7af193815196ad9022037f4d4d69f05a5424b9784f7d6199d839deb47a6dff00311de504a7944be4d8d01210262268237a23d61998236a325bb3bf237bcb47b23689eb025b4e7dc37c639a590024730440220478ba9df0ffd2999fc09609ecdbef02652701a09cae76fe04aedfa6426521b6502205f98040925771f1a9f51a337b3aaedbc2e23d9d4a8280ea49502cc14d5e3c1f701210331db610a8bb0342d57d29f5af93fc81722c35e7bc5ee3007346eb19c580ed39502473044022065ce76ce61f0ae402afc06817749b297c80a5ab5c9d657a245ec63920f0d607602203ac51a4da9a10bef9e10abb1ccf25adeb86b3c3648b8b591ec2dc59ac5ab23ba0121038493a2d9a834410d72572f5a556e9b2d81777aa6e4f805720c37c7444777d78002483045022100ec3da25b636e0d54534025e36b1ed938ccae8b29724a661d630425d53f42fe7f02200495cec33f72eb0681b303aff61bdba69e0bb724c381d9094385b3009cc96022012103c1afa5762c6c97b2c25365a394a442cc89056e440a0e77e147d63bc297091b6602483045022100ff0d333d919520cf2182b8cd2dc6d8628e51eed1eb4c81d8de98869904ca07ff022052561224f81cc25cdc17a6d8a9979cdc87381bf56ef967f26304c53f2ea21f03012103ef8cc268054b38c83da3f9cdabb8caa70a1af74f777ae1582886af076f5dac8902473044022053f7daa5875577adf429e694b9fb2bd438b7bb3d67c7da63f5686769cecad611022054e94f0f708943064aa10ebd5f99e0d886a2702adc7b76b18153b9278752e6e0012102674695c8b55999a16ff755b5aaad94541f42301e4b92bf411bb5fc2cf6a5fbf402483045022100ca907ff75c81700ff1b149c51b1512444dab836b6b6f507fe40c93e343129453022009d8f2300b65cdd8d15d51118e221fda0ad077dd30ec1c0a35ef37c3a44259fd01210220c4d3105731bd47294054d9205357fd5902cf66766810658ca19298215c7b8a02483045022100b16ee9c9d948e7863f0d833c1152e625e51df31bba59bc217da2fd012b22cf09022004b818fc8cf5afe5d911eb7a498c6449cb82176d76cf53820dca6ee99c4f9d7c012102dcb9c2ba34a5094e232e702716630afcb79e134f6f8b7f454183210bfad646d002483045022100bd60d1bfb083d4fb6146d2e3f59e0f827e6a50a31f8fca967bdf45cd9f979f970220732d649c49b9c22c1af5d23832e97e72f84016e9b89db97094d0fd715fa36f07012103951e32c39e514df48ca629d422af61cebe50c9c5607b5a9ccea419d5af1bc8490248304502210089c7c49e5f2208837fe96105231ef411f12531b9ac9c7fe119ce436831b6730f0220481fd0bb6949962e6147cfb136dd98832f1babef3bba14c4cbdc4a3c0258fe9f012103b75ea2d2c470faa1337cee707cbdcbec398906d28963ca3c6fa60fb87f7a9b16024830450221009bbf01ea2ed790ea5215aa09ef44664072769687e8313eeaa85bc6c65defbe87022077924cabe5d8ff2ed93d53e2a3494b12bc87d6a7865c4bcc61d8d111ec6af354012103032193aecf781b359bd560d96ba5294c180d875d1cb190a62180356f78615c8502483045022100e26dac063fb5c5cf4a0af9622e15ba6580ef4311845f27e5798c1c1cca188e55022041f69943c649145a3719e461bcd29d1133412402566501bdee5f5b70e1dc7e3f01210206f9848007a20372ddce1d659596c30079cfaa9d934a674ba9ac5a7c4472135602483045022100900720806ccf3bc9535a817fcbc0c1e54e2dbcd911ee561804e642318a7d5a76022033318328ba5c3330875c13ae98259b7d522aa09be125b05376ffd39b8bdc5ffc0121023644c177b79a40cc866e9259c2ce122368f24bffa68c0ad7d4b1d3e78702014402473044022055c89df41015b269898f2689f5f60cfa11ec493337f611d5b7fcd112f2a4518702200b7a6bd573e69db614d19134dfcfc21861306a4bbe59d8280bca0a349c9ee296012103c8ffb47fe4ca8e3e61878c3e4acea7a14fffce6b91e422a7163eb73f177bf1790247304402207ea0165b2c59d06f3d0a3a1b9be6f18d686a0a56ff4a690ef6060b03863c804702205c96f32e49f8c550e090ea1cb856d6396e32197a3cb2bcc584a5e940bbd9ed96012103b650156eb1d1c1fa10232b8db66001dccfa22f0782871b5f50af5e05f7c0c65000000000", "vin": [{"txinwitness": ["304502210081810b1b8e3cb7186541a3d5ab7d3d498f3f7e4af170c736eda19986c30bfcc9022019955078c32a821b5f6399cedf209e77e351dbb8355a148887ba8d8479d5b63101", "03eacfb4c192adda506353ed2ae34bb29bb0d62cd19d66dea1a857d6d58fb893fc"], "sequence": 4294967295, "scriptSig": {"hex": "1600148ea2a3bfb4d37e6ccf344c26220bc572752bcf7f", "asm": "00148ea2a3bfb4d37e6ccf344c26220bc572752bcf7f"}, "vout": 31, "txid": "eb0de1ff5e3388a8e2377443c7b199c1d98a6873670d796219683774ea9351f8"}, {"txinwitness": ["30440220553c9cdaa5413f3bed4b538b60d7d163cdf70e01e7d2b2444333d44aa549c1e902206a71d11e7c9a44a0cb27c84e141ec52c5e5eb8035a9d52553285ee650d5ee6bf01", "032a3752eac5fe7ac179aa72ae8a0571333e8dd8bc10d897ced844cc22d6afe758"], "sequence": 4294967295, "scriptSig": {"hex": "160014b73a66d49ca6b06988b3a16b18af6ba0fd52d7f3", "asm": "0014b73a66d49ca6b06988b3a16b18af6ba0fd52d7f3"}, "vout": 1, "txid": "e2035ad385d4cda110cf5a513e86642edb28a9be30a6e23bf95db4b84b4562c6"}, {"txinwitness": ["30440220589c6d9db5728537ee6ab9e8b63eaf0286bd1e8acf3b594bf2c180d772031ce8022021d4646e2ea5d7be1eba1502506abcd0a44c4d7bc4f001453a22adc12035824901", "030133a5870130b8232200fc7a77f64470a8ec0058d162fb63008e8db1f670d47b"], "sequence": 4294967295, "scriptSig": {"hex": "160014e59fac8bff7022c35109a00760f438c3494957ea", "asm": "0014e59fac8bff7022c35109a00760f438c3494957ea"}, "vout": 30, "txid": "a385f981d6812f97533b56254fc3ab8d596f9e8062680d8d28b5f55fb609d152"}, {"txinwitness": ["3045022100bec6f813d81e40e66164d86bbfa0aef1260b82b03baac60f4c48498d97b6e18e0220381081861e23e5eaaa9198e53c98af81771ca262b06590c8769c4acdf41b084901", "02e868f95cdd9e639630af3e6ab48e32a0bebcd148883ed907a8708305cfd90ea4"], "sequence": 4294967295, "scriptSig": {"hex": "1600141ace949c0dc94a911a4f9e278c23d2e31c85c9d7", "asm": "00141ace949c0dc94a911a4f9e278c23d2e31c85c9d7"}, "vout": 44, "txid": "3e392e0ffb4fa976dcc484fd68289f955c507617e29e158bf9c699eb851fedd1"}, {"txinwitness": ["304402200bedf5fbda48514b4024665bf134307cff25dba0d9f375a800468ec5ade7261c022047469ff0f434876c1ac0f9a7e968578d83dc238cdab36c4e19f34fe64d14d9dd01", "02dd54bcedcf9fe9a53467eaa98121a55b829250e9444a8cb8f306759deab16454"], "sequence": 4294967295, "scriptSig": {"hex": "160014ceba219de5257b26d184c87f8b0451b03b4890b0", "asm": "0014ceba219de5257b26d184c87f8b0451b03b4890b0"}, "vout": 6, "txid": "5d9961c8e86069a340df4f4936ef79f963bb20e9ecdd1f346a78230582df6997"}, {"txinwitness": ["3045022100e4edc47190d6bbffae4e9fd2dc6018a3edb8b4e1ed25ba7d2e49f04473e828b402200f6d85c35ffbb955ee1c22bd960ac15bcb5818b253ef7744cf5e37efccc731bb01", "0276b133709bd26ab7c96b48cd8ec9d120957b16d4bf52c406aa90ac569dd91e82"], "sequence": 4294967295, "scriptSig": {"hex": "160014435bebf1de6952ef3668cf1b7a8b952ea8cc947b", "asm": "0014435bebf1de6952ef3668cf1b7a8b952ea8cc947b"}, "vout": 11, "txid": "3a1e0ee897d2bdb53ce122d7a8ffe0fef4cb1af704d2de4665d85fcdcb581821"}, {"txinwitness": ["3045022100a6e4120692016dfab60b20f4ae0909e00830144184785f7d745bc52410403f4702203c13db972b54fa4cb4c0c98b978ce1c5387d26fe3bcc734d4ef106a80dba418701", "02e2af5b8b24201db8a279813d8771321296d7ebdc3e1870184a22e3fd8f8ec2ae"], "sequence": 4294967295, "scriptSig": {"hex": "160014515e024931bab9a33b80921001124152b2d64a98", "asm": "0014515e024931bab9a33b80921001124152b2d64a98"}, "vout": 15, "txid": "1c079935424925b33bf3ad781b3172e62465c2a24d0f434e469318494a07ba01"}, {"txinwitness": ["304402200bf59477084902ded1822062d6a70043c94f90db0485c0fa53a1256dc57fdd1002201ad247e1ae9dd7b080d5a4e6c15775ddd48a48f4f0d462d9e1331314b0349d9c01", "02e5233df0919b6cde6d1fe1843986ba6b272025542028a7bb93c08d59eaae8ccc"], "sequence": 4294967295, "scriptSig": {"hex": "160014366f7f692b9c337f7b8789cd4b29cf683a58eb0b", "asm": "0014366f7f692b9c337f7b8789cd4b29cf683a58eb0b"}, "vout": 1, "txid": "585f5bac35d9bf71f7c5ae318d8cd0b265c52bb92b3f79a98fad333d35566818"}, {"txinwitness": ["304402207d755cffa3370dfa36a1d4c9b644ffadd45802abc3bb92274e28a7c2dbcd14ff02200be8b7f2aef5e56eec5e00f65f625afd8a0e4139a72ac2e84b1f0a56416f52a401", "02ac2da268a3d56ec754a063e8073d95c50140c3e39915723a0ad728d5f82784ef"], "sequence": 4294967295, "scriptSig": {"hex": "160014fd6beda738a74bd60a2ea84ab2a0258e852ff044", "asm": "0014fd6beda738a74bd60a2ea84ab2a0258e852ff044"}, "vout": 1, "txid": "4ff5d56d19344f26892d3e3844c733be841887c8b3012e960f59150c7ed7f9bb"}, {"txinwitness": ["304402203da466f7b637c762bb90aded7de0ccf73f25e8032f4b3f1816c5be1aea4a891102207c0703bf778d60b5773588add6c5b71d65ccf477adab338da1e4bab489334d3901", "033b2ab863641975e3a3e18fac64fa2ab46a9176d751df084c217867f552a01d61"], "sequence": 4294967295, "scriptSig": {"hex": "160014618528b47421841874eea4f6fbfbfbeef404a9a1", "asm": "0014618528b47421841874eea4f6fbfbfbeef404a9a1"}, "vout": 26, "txid": "3b4ea9c684ccc05a3f0779b05291a632ab6e299d96ece34a2e7a4f10ce5b1a78"}, {"txinwitness": ["30450221008bbcd944833d1134790867385496e5f4a438cf1603b7579d9ad5feef813e442c02206ee59779c2ae2c75a564a28f5768bfdbd7bba269ff56d29c2e69faadae09c11001", "02d7ed3053a7de1c1fb4cea3a3ce7e584de56c9fc16b2b6b0b6556ccafb1a010ce"], "sequence": 4294967295, "scriptSig": {"hex": "1600143589ad06ce8acd9340cf34735c2f4eaea360a1df", "asm": "00143589ad06ce8acd9340cf34735c2f4eaea360a1df"}, "vout": 26, "txid": "3a1e0ee897d2bdb53ce122d7a8ffe0fef4cb1af704d2de4665d85fcdcb581821"}, {"txinwitness": ["30440220575330adc71e3c97129316129331f784c4d6e6d6e0970be0b10c773c4d03cfdb022044a16d0e2f51480330776b1f06e95acc8eeb71c5b9c35587512cb11cd5262ceb01", "02e2137ed9e73a5b3601a50f9660e7478c4231eee6869ab9c6df67086725e381bf"], "sequence": 4294967295, "scriptSig": {"hex": "1600146b241827eaa91029b52a6b5edc7b27487f45a816", "asm": "00146b241827eaa91029b52a6b5edc7b27487f45a816"}, "vout": 19, "txid": "3b4ea9c684ccc05a3f0779b05291a632ab6e299d96ece34a2e7a4f10ce5b1a78"}, {"txinwitness": ["3045022100aceaf0be7af69d1ab0212aa0c5d78ea189f7c4047bd3ab6057969e20defdddfc022072849b1caef19fdd9345ad63deab0dea0c1f5d1ebd80d8377017c89333340e2301", "035deb2a2e31d0227e1faff8ac8a27201b7342c9860752844a304bea4d0ee973d7"], "sequence": 4294967295, "scriptSig": {"hex": "160014371e00a45e93791e2f430b307af3b62f527774b8", "asm": "0014371e00a45e93791e2f430b307af3b62f527774b8"}, "vout": 18, "txid": "ff023474038edbc1d647456c15fe91313d5bf133e40608985d9318d1c7d0685e"}, {"txinwitness": ["304502210095078525482924907b61738ced4d61fc4bc2b2259d261feeb7af193815196ad9022037f4d4d69f05a5424b9784f7d6199d839deb47a6dff00311de504a7944be4d8d01", "0262268237a23d61998236a325bb3bf237bcb47b23689eb025b4e7dc37c639a590"], "sequence": 4294967295, "scriptSig": {"hex": "160014f3809a6a1276ec62acb33b4feda7a9ca20849f69", "asm": "0014f3809a6a1276ec62acb33b4feda7a9ca20849f69"}, "vout": 32, "txid": "5d9961c8e86069a340df4f4936ef79f963bb20e9ecdd1f346a78230582df6997"}, {"txinwitness": ["30440220478ba9df0ffd2999fc09609ecdbef02652701a09cae76fe04aedfa6426521b6502205f98040925771f1a9f51a337b3aaedbc2e23d9d4a8280ea49502cc14d5e3c1f701", "0331db610a8bb0342d57d29f5af93fc81722c35e7bc5ee3007346eb19c580ed395"], "sequence": 4294967295, "scriptSig": {"hex": "160014c997223cc5b7a503547abcffadbffb1ac161e62b", "asm": "0014c997223cc5b7a503547abcffadbffb1ac161e62b"}, "vout": 4, "txid": "3e392e0ffb4fa976dcc484fd68289f955c507617e29e158bf9c699eb851fedd1"}, {"txinwitness": ["3044022065ce76ce61f0ae402afc06817749b297c80a5ab5c9d657a245ec63920f0d607602203ac51a4da9a10bef9e10abb1ccf25adeb86b3c3648b8b591ec2dc59ac5ab23ba01", "038493a2d9a834410d72572f5a556e9b2d81777aa6e4f805720c37c7444777d780"], "sequence": 4294967295, "scriptSig": {"hex": "160014c00a1d4752afb40d428f973c6ea714fa2ee2c716", "asm": "0014c00a1d4752afb40d428f973c6ea714fa2ee2c716"}, "vout": 6, "txid": "3a1e0ee897d2bdb53ce122d7a8ffe0fef4cb1af704d2de4665d85fcdcb581821"}, {"txinwitness": ["3045022100ec3da25b636e0d54534025e36b1ed938ccae8b29724a661d630425d53f42fe7f02200495cec33f72eb0681b303aff61bdba69e0bb724c381d9094385b3009cc9602201", "03c1afa5762c6c97b2c25365a394a442cc89056e440a0e77e147d63bc297091b66"], "sequence": 4294967295, "scriptSig": {"hex": "16001497b82e30059087fe9dc28a205ee4cbadf73ae8c4", "asm": "001497b82e30059087fe9dc28a205ee4cbadf73ae8c4"}, "vout": 2, "txid": "75f7e7d0f413113b07dd595fee7d31ef5f96fb157fd92a4021bb06d9a5a60400"}, {"txinwitness": ["3045022100ff0d333d919520cf2182b8cd2dc6d8628e51eed1eb4c81d8de98869904ca07ff022052561224f81cc25cdc17a6d8a9979cdc87381bf56ef967f26304c53f2ea21f0301", "03ef8cc268054b38c83da3f9cdabb8caa70a1af74f777ae1582886af076f5dac89"], "sequence": 4294967295, "scriptSig": {"hex": "16001411654119c8b2649899632120265ce4b57a521e91", "asm": "001411654119c8b2649899632120265ce4b57a521e91"}, "vout": 28, "txid": "3b4ea9c684ccc05a3f0779b05291a632ab6e299d96ece34a2e7a4f10ce5b1a78"}, {"txinwitness": ["3044022053f7daa5875577adf429e694b9fb2bd438b7bb3d67c7da63f5686769cecad611022054e94f0f708943064aa10ebd5f99e0d886a2702adc7b76b18153b9278752e6e001", "02674695c8b55999a16ff755b5aaad94541f42301e4b92bf411bb5fc2cf6a5fbf4"], "sequence": 4294967295, "scriptSig": {"hex": "160014c451366c3cd55d13d8fbb420160d5a5761acfdd2", "asm": "0014c451366c3cd55d13d8fbb420160d5a5761acfdd2"}, "vout": 8, "txid": "ebaffa9fc76bc2e1b957274bfaad14ad83903784ff1772d88366e05efaf2ba13"}, {"txinwitness": ["3045022100ca907ff75c81700ff1b149c51b1512444dab836b6b6f507fe40c93e343129453022009d8f2300b65cdd8d15d51118e221fda0ad077dd30ec1c0a35ef37c3a44259fd01", "0220c4d3105731bd47294054d9205357fd5902cf66766810658ca19298215c7b8a"], "sequence": 4294967295, "scriptSig": {"hex": "160014bd79dd56ac67f67b2aeecc42f200731129a117fe", "asm": "0014bd79dd56ac67f67b2aeecc42f200731129a117fe"}, "vout": 16, "txid": "3b4ea9c684ccc05a3f0779b05291a632ab6e299d96ece34a2e7a4f10ce5b1a78"}, {"txinwitness": ["3045022100b16ee9c9d948e7863f0d833c1152e625e51df31bba59bc217da2fd012b22cf09022004b818fc8cf5afe5d911eb7a498c6449cb82176d76cf53820dca6ee99c4f9d7c01", "02dcb9c2ba34a5094e232e702716630afcb79e134f6f8b7f454183210bfad646d0"], "sequence": 4294967295, "scriptSig": {"hex": "160014da0afbbd5ef739a61585c8707b4b693f56b75d0d", "asm": "0014da0afbbd5ef739a61585c8707b4b693f56b75d0d"}, "vout": 30, "txid": "3a1e0ee897d2bdb53ce122d7a8ffe0fef4cb1af704d2de4665d85fcdcb581821"}, {"txinwitness": ["3045022100bd60d1bfb083d4fb6146d2e3f59e0f827e6a50a31f8fca967bdf45cd9f979f970220732d649c49b9c22c1af5d23832e97e72f84016e9b89db97094d0fd715fa36f0701", "03951e32c39e514df48ca629d422af61cebe50c9c5607b5a9ccea419d5af1bc849"], "sequence": 4294967295, "scriptSig": {"hex": "160014622d61838782f549c3f4d30eeb68d360c45ebd64", "asm": "0014622d61838782f549c3f4d30eeb68d360c45ebd64"}, "vout": 7, "txid": "5d9961c8e86069a340df4f4936ef79f963bb20e9ecdd1f346a78230582df6997"}, {"txinwitness": ["304502210089c7c49e5f2208837fe96105231ef411f12531b9ac9c7fe119ce436831b6730f0220481fd0bb6949962e6147cfb136dd98832f1babef3bba14c4cbdc4a3c0258fe9f01", "03b75ea2d2c470faa1337cee707cbdcbec398906d28963ca3c6fa60fb87f7a9b16"], "sequence": 4294967295, "scriptSig": {"hex": "16001484a5cbbf8d93ba5206c4fdedb406d0ff725840e3", "asm": "001484a5cbbf8d93ba5206c4fdedb406d0ff725840e3"}, "vout": 5, "txid": "5d9961c8e86069a340df4f4936ef79f963bb20e9ecdd1f346a78230582df6997"}, {"txinwitness": ["30450221009bbf01ea2ed790ea5215aa09ef44664072769687e8313eeaa85bc6c65defbe87022077924cabe5d8ff2ed93d53e2a3494b12bc87d6a7865c4bcc61d8d111ec6af35401", "03032193aecf781b359bd560d96ba5294c180d875d1cb190a62180356f78615c85"], "sequence": 4294967295, "scriptSig": {"hex": "1600149139df730fa36e257892ebb5d830928f91683734", "asm": "00149139df730fa36e257892ebb5d830928f91683734"}, "vout": 42, "txid": "3e392e0ffb4fa976dcc484fd68289f955c507617e29e158bf9c699eb851fedd1"}, {"txinwitness": ["3045022100e26dac063fb5c5cf4a0af9622e15ba6580ef4311845f27e5798c1c1cca188e55022041f69943c649145a3719e461bcd29d1133412402566501bdee5f5b70e1dc7e3f01", "0206f9848007a20372ddce1d659596c30079cfaa9d934a674ba9ac5a7c44721356"], "sequence": 4294967295, "scriptSig": {"hex": "1600140879ea7fd2beaae0011e6083f529bab4812234e0", "asm": "00140879ea7fd2beaae0011e6083f529bab4812234e0"}, "vout": 28, "txid": "3e392e0ffb4fa976dcc484fd68289f955c507617e29e158bf9c699eb851fedd1"}, {"txinwitness": ["3045022100900720806ccf3bc9535a817fcbc0c1e54e2dbcd911ee561804e642318a7d5a76022033318328ba5c3330875c13ae98259b7d522aa09be125b05376ffd39b8bdc5ffc01", "023644c177b79a40cc866e9259c2ce122368f24bffa68c0ad7d4b1d3e787020144"], "sequence": 4294967295, "scriptSig": {"hex": "1600144b4194d4700c231d403e47c8520b60d6e5285208", "asm": "00144b4194d4700c231d403e47c8520b60d6e5285208"}, "vout": 19, "txid": "cf633e5a2e7d265883d4ad41f5336f675b37679dd6a45fc98f2094f04de45162"}, {"txinwitness": ["3044022055c89df41015b269898f2689f5f60cfa11ec493337f611d5b7fcd112f2a4518702200b7a6bd573e69db614d19134dfcfc21861306a4bbe59d8280bca0a349c9ee29601", "03c8ffb47fe4ca8e3e61878c3e4acea7a14fffce6b91e422a7163eb73f177bf179"], "sequence": 4294967295, "scriptSig": {"hex": "160014ec4201d6287cc7145291fea6383cd7754d7c1d6a", "asm": "0014ec4201d6287cc7145291fea6383cd7754d7c1d6a"}, "vout": 0, "txid": "35c35b1fbd0749fa83ee4a871017d388555b0e25af22cab2bb7259f0c6c4b4ce"}, {"txinwitness": ["304402207ea0165b2c59d06f3d0a3a1b9be6f18d686a0a56ff4a690ef6060b03863c804702205c96f32e49f8c550e090ea1cb856d6396e32197a3cb2bcc584a5e940bbd9ed9601", "03b650156eb1d1c1fa10232b8db66001dccfa22f0782871b5f50af5e05f7c0c650"], "sequence": 4294967295, "scriptSig": {"hex": "160014c6f2089b34dc2ee2e69c39980a6d1215edfdca6e", "asm": "0014c6f2089b34dc2ee2e69c39980a6d1215edfdca6e"}, "vout": 20, "txid": "cf633e5a2e7d265883d4ad41f5336f675b37679dd6a45fc98f2094f04de45162"}], "txid": "fdd78a3fccc6a3b18871c6ebcb7837339d1e9a0aff3a43e8e3ec1455361bd852", "blocktime": 1537875543, "version": 2, "confirmations": 11464, "time": 1537875543, "locktime": 0, "vsize": 2622, "size": 4882}