{"hash": "ed28a98165c4416d0fd9281d31b4dd8ab633286e533632494df735eba8bb16e8", "blockhash": "00000000000000000004ffacab907a6b429b9a5745fa0b75af4234bf69dd7176", "vout": [{"scriptPubKey": {"reqSigs": 1, "hex": "a914c0ad10c9ec91626a39afbd077ade9ddd1cd68cda87", "addresses": ["3KFnzBYT6X4mp5sQz1ZRvuKrtYKs3G7DRw"], "asm": "OP_HASH160 c0ad10c9ec91626a39afbd077ade9ddd1cd68cda OP_EQUAL", "type": "scripthash"}, "value": 0.00956232, "n": 0}, {"scriptPubKey": {"reqSigs": 1, "hex": "a914575069ca5442cd5b57ae3f974692a8a539cf169387", "addresses": ["39eh3SetCekkQuW9cWXsnVEbwZeoakBrTy"], "asm": "OP_HASH160 575069ca5442cd5b57ae3f974692a8a539cf1693 OP_EQUAL", "type": "scripthash"}, "value": 0.03496518, "n": 1}, {"scriptPubKey": {"reqSigs": 1, "hex": "a914849bc0e630b5bbc76c3ffa9b230da4ac9e9adbc387", "addresses": ["3DnBhotBPbUt7HVWqB5oBKer5Fv6mj9coK"], "asm": "OP_HASH160 849bc0e630b5bbc76c3ffa9b230da4ac9e9adbc3 OP_EQUAL", "type": "scripthash"}, "value": 0.1096562, "n": 2}, {"scriptPubKey": {"reqSigs": 1, "hex": "a9140ed6d7fbd2fa83c174e1ff7070400f8f6c8c947287", "addresses": ["333Ukq7iqzLwUYYQYtFoGewzach7u3ktuX"], "asm": "OP_HASH160 0ed6d7fbd2fa83c174e1ff7070400f8f6c8c9472 OP_EQUAL", "type": "scripthash"}, "value": 0.009505, "n": 3}, {"scriptPubKey": {"reqSigs": 1, "hex": "a91495e0f072208901e3210b169f87e7582177fb88ec87", "addresses": ["3FMW5BLLHjRcEckGZbwdruo3fHk59Qahwe"], "asm": "OP_HASH160 95e0f072208901e3210b169f87e7582177fb88ec OP_EQUAL", "type": "scripthash"}, "value": 0.03, "n": 4}], "hex": "0100000000010308ae60d40510beb4fcb402125d22366274d291a559247d166386ff8566eed2c0010000002322002066865bbfd84d1a752322a3ea6912339416bf60122734fc842231581e8f80cbe8000000008349f675b0f4887b785fd33adbf33bc392c8555944291278f4cf69a979b987b20e00000023220020e03af7f853d41ce5277075b21bea072ba61508b842d2f5a083e1516d11e3d2a700000000a9694430a66797d38a6d0634407d4379e1252eeae89e0cadeb1035b7df08387d2e00000023220020c78dc726e173da88160dfd54539ece3e17b640b0256be319fcaea9a0004b3015000000000548970e000000000017a914c0ad10c9ec91626a39afbd077ade9ddd1cd68cda87465a35000000000017a914575069ca5442cd5b57ae3f974692a8a539cf1693877452a7000000000017a914849bc0e630b5bbc76c3ffa9b230da4ac9e9adbc387e4800e000000000017a9140ed6d7fbd2fa83c174e1ff7070400f8f6c8c947287c0c62d000000000017a91495e0f072208901e3210b169f87e7582177fb88ec870400483045022100d559dceb2ca35e9f21c97f68bba9127336c29ae28851281c565d771db5ba5ac702201171f839a8508dcdcd272c728fb112ad03b1f17605d5b7cf41dbcc9443f73df50148304502210085c162f9f8539bc73207c85c0a10e654f9b702b2bbee458a25d8ea448f2330d602203034979d458d20d17751877342beaa13d0279257e8c8e374e20e5c0964e58fb901475221034afefcd9f80e03d4973af6349b97e76afef5c751d7498f6f165a3484d5b450702103c76c5e7797652905e0c66fc77a0d0b04157691e9b4c7e4dce0183289be9c1fab52ae0400473044022072666a3b68293cd1e02d74d1afdad3388a833c738440a04b3507ca1e28e6bd9c0220302cfc0665c739d387220b7781826ef39edcc4e2ff83c6e709bb860d8b4a775301483045022100df7f82220bb599ea0862af9562af392f802212cb0bce409586d07234d79f990c02204f1a02bb2d55a6057f76427eb3347d86a0cb7f0c45ff3afffadcd97c8985cd7d014752210217e5aae5418e77ca1898f59a671157aef6c37b78a2b9f361f415241b92dedfe4210332dd820ab7ca9901deb8c760737626c3701176faa8dc8d63424e127a1b0f920652ae0400483045022100f368cdd79b86edc109dcad6c387665ea5f862b4b0b8b7c8a8b582ffd5415381302201372769235037582d92d2506ca1760f3c60c9c7cdb962bdd0271b86d1a6badef014730440220664f20dbbdbdb5385bd382e4cee58f52438699f67991c8b12d1e2911dcb22a32022064859b7afc21630f467beaa58415daf2436660ab2bf2e1d41a56db18e353f6bb0147522103cc73128060bf95e1de19eb44181a891f12bf4cc2e36a3a12c91c9a47033995472102d290a125d91f131bd6c68e50847c48038bf4081ea01fa5a974223177758f51a152ae00000000", "vin": [{"txinwitness": ["", "3045022100d559dceb2ca35e9f21c97f68bba9127336c29ae28851281c565d771db5ba5ac702201171f839a8508dcdcd272c728fb112ad03b1f17605d5b7cf41dbcc9443f73df501", "304502210085c162f9f8539bc73207c85c0a10e654f9b702b2bbee458a25d8ea448f2330d602203034979d458d20d17751877342beaa13d0279257e8c8e374e20e5c0964e58fb901", "5221034afefcd9f80e03d4973af6349b97e76afef5c751d7498f6f165a3484d5b450702103c76c5e7797652905e0c66fc77a0d0b04157691e9b4c7e4dce0183289be9c1fab52ae"], "sequence": 0, "scriptSig": {"hex": "22002066865bbfd84d1a752322a3ea6912339416bf60122734fc842231581e8f80cbe8", "asm": "002066865bbfd84d1a752322a3ea6912339416bf60122734fc842231581e8f80cbe8"}, "vout": 1, "txid": "c0d2ee6685ff8663167d2459a591d2746236225d1202b4fcb4be1005d460ae08"}, {"txinwitness": ["", "3044022072666a3b68293cd1e02d74d1afdad3388a833c738440a04b3507ca1e28e6bd9c0220302cfc0665c739d387220b7781826ef39edcc4e2ff83c6e709bb860d8b4a775301", "3045022100df7f82220bb599ea0862af9562af392f802212cb0bce409586d07234d79f990c02204f1a02bb2d55a6057f76427eb3347d86a0cb7f0c45ff3afffadcd97c8985cd7d01", "52210217e5aae5418e77ca1898f59a671157aef6c37b78a2b9f361f415241b92dedfe4210332dd820ab7ca9901deb8c760737626c3701176faa8dc8d63424e127a1b0f920652ae"], "sequence": 0, "scriptSig": {"hex": "220020e03af7f853d41ce5277075b21bea072ba61508b842d2f5a083e1516d11e3d2a7", "asm": "0020e03af7f853d41ce5277075b21bea072ba61508b842d2f5a083e1516d11e3d2a7"}, "vout": 14, "txid": "b287b979a969cff4781229445955c892c33bf3db3ad35f787b88f4b075f64983"}, {"txinwitness": ["", "3045022100f368cdd79b86edc109dcad6c387665ea5f862b4b0b8b7c8a8b582ffd5415381302201372769235037582d92d2506ca1760f3c60c9c7cdb962bdd0271b86d1a6badef01", "30440220664f20dbbdbdb5385bd382e4cee58f52438699f67991c8b12d1e2911dcb22a32022064859b7afc21630f467beaa58415daf2436660ab2bf2e1d41a56db18e353f6bb01", "522103cc73128060bf95e1de19eb44181a891f12bf4cc2e36a3a12c91c9a47033995472102d290a125d91f131bd6c68e50847c48038bf4081ea01fa5a974223177758f51a152ae"], "sequence": 0, "scriptSig": {"hex": "220020c78dc726e173da88160dfd54539ece3e17b640b0256be319fcaea9a0004b3015", "asm": "0020c78dc726e173da88160dfd54539ece3e17b640b0256be319fcaea9a0004b3015"}, "vout": 46, "txid": "7d3808dfb73510ebad0c9ee8ea2e25e179437d4034066d8ad39767a6304469a9"}], "txid": "fdd9861d40c730377796c7287803d8c54d152253e13dab83bab7faaa8ee8dad3", "blocktime": 1537875543, "version": 1, "confirmations": 11464, "time": 1537875543, "locktime": 0, "vsize": 563, "size": 1058}