{"hash": "0fd4de51ad0ca74ca910a2d650ddf8b9406e9cea997242196326b0bebcc75d85", "blockhash": "00000000000000000004ffacab907a6b429b9a5745fa0b75af4234bf69dd7176", "vout": [{"scriptPubKey": {"reqSigs": 1, "hex": "76a914b8ea8f121aa0a73b6c876850079aba996ad5f4f488ac", "addresses": ["1HrkKjW8ddGTQzoE2tJW8oLdd73diX6EPa"], "asm": "OP_DUP OP_HASH160 b8ea8f121aa0a73b6c876850079aba996ad5f4f4 OP_EQUALVERIFY OP_CHECKSIG", "type": "pubkeyhash"}, "value": 0.0106394, "n": 0}, {"scriptPubKey": {"reqSigs": 1, "hex": "76a914accff3ee413204622b05464ede01cc49fb92a6a388ac", "addresses": ["1GkkLp85VZzqKnciwDgdN9KpQkKdov6tr5"], "asm": "OP_DUP OP_HASH160 accff3ee413204622b05464ede01cc49fb92a6a3 OP_EQUALVERIFY OP_CHECKSIG", "type": "pubkeyhash"}, "value": 0.00093049, "n": 1}], "hex": "0200000000010192c93188587c00eb87ec169c470d0ee05c7d6c61741918079b8a1a10dd3cf574000000001716001405b018e23210c30c0cf7cbfda5f47f4dea4f4a87feffffff02043c1000000000001976a914b8ea8f121aa0a73b6c876850079aba996ad5f4f488ac796b0100000000001976a914accff3ee413204622b05464ede01cc49fb92a6a388ac02483045022100bf148665fbd20819003e12a0cb990b39f05da6c28edc3fdd06d38c6113918cf402205401c733dc00b19fc66cb75bbc5bfea920e544dbdcfc7cd4ba495fd350f77b720121021faa47e73167fe1f860ebd6d9afef02225037e0baf317e5feb9a3087540f5d8416490800", "vin": [{"txinwitness": ["3045022100bf148665fbd20819003e12a0cb990b39f05da6c28edc3fdd06d38c6113918cf402205401c733dc00b19fc66cb75bbc5bfea920e544dbdcfc7cd4ba495fd350f77b7201", "021faa47e73167fe1f860ebd6d9afef02225037e0baf317e5feb9a3087540f5d84"], "sequence": 4294967294, "scriptSig": {"hex": "16001405b018e23210c30c0cf7cbfda5f47f4dea4f4a87", "asm": "001405b018e23210c30c0cf7cbfda5f47f4dea4f4a87"}, "vout": 0, "txid": "74f53cdd101a8a9b07181974616c7d5ce00e0d479c16ec87eb007c588831c992"}], "txid": "fddfbdefd52041312fb80aa354fae1194ec5df4a9c107c7cc3fad29665a66091", "blocktime": 1537875543, "version": 2, "confirmations": 11464, "time": 1537875543, "locktime": 542998, "vsize": 170, "size": 252}