{"hash": "3955aa007e3be751703878759e094d85169ab5196c8c058dac345e2906d86bcb", "blockhash": "0000000000000000001cda96e906b7601b7a6fb1a3b62bca570a9e5d8f4b3de1", "vout": [{"scriptPubKey": {"reqSigs": 1, "hex": "76a914efe777d4713fde111587aea39c3b429696304bf688ac", "addresses": ["1NsVnXrcaqbdhnC6PsdskSCDFsk2bb4YsX"], "asm": "OP_DUP OP_HASH160 efe777d4713fde111587aea39c3b429696304bf6 OP_EQUALVERIFY OP_CHECKSIG", "type": "pubkeyhash"}, "value": 0.063938, "n": 0}, {"scriptPubKey": {"reqSigs": 1, "hex": "a914dee0a1cc9f055700143e0f4ecee53180ab3530dc87", "addresses": ["3N1V2qWA5hpScEmS72pMooYRmXUiLmwPQQ"], "asm": "OP_HASH160 dee0a1cc9f055700143e0f4ecee53180ab3530dc OP_EQUAL", "type": "scripthash"}, "value": 0.78237989, "n": 1}], "hex": "02000000000101d919d5d30fb7784b56914f78af21f8ce6a188498a0c7c4bfa21026ef8d6918bf0100000017160014cb5dbe423de4d42b6425c6921084c6197a5d2937ffffffff02c88f6100000000001976a914efe777d4713fde111587aea39c3b429696304bf688ac25d1a9040000000017a914dee0a1cc9f055700143e0f4ecee53180ab3530dc8702473044022061856c6e3315d189be5835d25838ca69c94c2ce47eb4ae0e4088a561d0b0444e02205e29ec13a2e45b74937e7c469929fe36d08585c406d21798f47c28fdb5588d6e012102acecad485eda786cbe0422823b7594aea6854abb5ec85e267f1c4b87f3f758f700000000", "vin": [{"txinwitness": ["3044022061856c6e3315d189be5835d25838ca69c94c2ce47eb4ae0e4088a561d0b0444e02205e29ec13a2e45b74937e7c469929fe36d08585c406d21798f47c28fdb5588d6e01", "02acecad485eda786cbe0422823b7594aea6854abb5ec85e267f1c4b87f3f758f7"], "sequence": 4294967295, "scriptSig": {"hex": "160014cb5dbe423de4d42b6425c6921084c6197a5d2937", "asm": "0014cb5dbe423de4d42b6425c6921084c6197a5d2937"}, "vout": 1, "txid": "bf18698def2610a2bfc4c7a09884186acef821af784f91564b78b70fd3d519d9"}], "txid": "fde74819ff0fb8a0d19153544a4682678edca0d16644aaf81b7e9dba5d74b077", "blocktime": 1537873282, "version": 2, "confirmations": 11481, "time": 1537873282, "locktime": 0, "vsize": 168, "size": 249}