{"hash": "1bd525ea4385c94830b3ee8806d78eff218f946a37e145d5c28548f7c7362360", "blockhash": "0000000000000000000dcc0f55137456b1a82d3642486a52398922ac4d620174", "vout": [{"scriptPubKey": {"reqSigs": 1, "hex": "0014f87bf21afdde8479d558743d234871d7fda088d9", "addresses": ["bc1qlpalyxham6z8n42cws7jxjr36l76pzxek9kz5p"], "asm": "0 f87bf21afdde8479d558743d234871d7fda088d9", "type": "witness_v0_keyhash"}, "value": 0.00957026, "n": 0}, {"scriptPubKey": {"reqSigs": 1, "hex": "76a91419e61cd4c8e9b6a62a84ca6250d093a000feb2be88ac", "addresses": ["13MwZJTeESMotZwY4bMxeG1BnkFURJysot"], "asm": "OP_DUP OP_HASH160 19e61cd4c8e9b6a62a84ca6250d093a000feb2be OP_EQUALVERIFY OP_CHECKSIG", "type": "pubkeyhash"}, "value": 0.1830084, "n": 1}], "hex": "01000000000101aa7866bc28637bc06e19bf3f2fab999f24e4043c8c730f7f52879d5b285f48e70100000000ffffffff02629a0e0000000000160014f87bf21afdde8479d558743d234871d7fda088d9a83f1701000000001976a91419e61cd4c8e9b6a62a84ca6250d093a000feb2be88ac02483045022100afbe4ea8f2628500485da2c3ec0889340c7e1ee09eeb6cb1108d81da9ddf2102022024b8385e756b8d0c1f9a1010d35331492e15bd391a41a7bcdbb91ce04780bbc1012102b20433780acccfdc99a6a940b39deb3934560869aeb4c14fd0388a7e218b499200000000", "vin": [{"txinwitness": ["3045022100afbe4ea8f2628500485da2c3ec0889340c7e1ee09eeb6cb1108d81da9ddf2102022024b8385e756b8d0c1f9a1010d35331492e15bd391a41a7bcdbb91ce04780bbc101", "02b20433780acccfdc99a6a940b39deb3934560869aeb4c14fd0388a7e218b4992"], "sequence": 4294967295, "scriptSig": {"hex": "", "asm": ""}, "vout": 1, "txid": "e7485f285b9d87527f0f738c3c04e4249f99ab2f3fbf196ec07b6328bc6678aa"}], "txid": "fdf6aac715a6cfa3f21bf6d882890df3f8387baf620da0d69116c9c93d807785", "blocktime": 1537870268, "version": 1, "confirmations": 11518, "time": 1537870268, "locktime": 0, "vsize": 144, "size": 226}