{"hash": "fdf76182d9f93f10a5c4ed75319e8961d5e204f8511a641416c1deebbf52289c", "blockhash": "0000000000000000001f0ddff1eddb255c1121bcd4da4f1bc9a0da00cae72433", "vout": [{"scriptPubKey": {"reqSigs": 1, "hex": "76a9149c330859a505873c5c05b70410368788aeb8471488ac", "addresses": ["1FEuYjaAeoWUYdxcre9x4GKXtoM7caJmSY"], "asm": "OP_DUP OP_HASH160 9c330859a505873c5c05b70410368788aeb84714 OP_EQUALVERIFY OP_CHECKSIG", "type": "pubkeyhash"}, "value": 0.01517124, "n": 0}, {"scriptPubKey": {"reqSigs": 1, "hex": "76a91496ce01cb7f77ff74721fc424487f8cc963b858af88ac", "addresses": ["1EkP9PmsQPVRQAac4V3HmdBR29Na1brhi5"], "asm": "OP_DUP OP_HASH160 96ce01cb7f77ff74721fc424487f8cc963b858af OP_EQUALVERIFY OP_CHECKSIG", "type": "pubkeyhash"}, "value": 0.03764934, "n": 1}], "hex": "0100000002258e1e65fd3b04ff6ac90b78241de7c6c8db70a05358ff70437f055fc1dd5536010000006a47304402203e67b7b620aadefb5bdc4a1c53627392fa2fb226f04f9714c2f317b33821c733022004491fdb2a977c88f7dae97da22512a33700f1a417ce28d83f5ffbb4cf1a6eb3012103766af940f921ed10d1d0372f207dbadd7b6a2999fc2f951d9225a52c47870debffffffff168553e57d92b7115abcc493c6c7ecda0458b0526095680914994bc7e9a7d53b000000006b483045022100b9fca77c5fa76eae0ffe6aab926bdd92fac90f7db2e4d5c4715f3b08f4da753a02207728fcb732d97a82cab8e9015179a5c43a5dd8945b5fdc87108a0add9a1c9248012102e7093e823ad1a42a158fb3c5d8b09915c6ea09c28cfa94ad4b8caf8dfc11cdd1ffffffff0244261700000000001976a9149c330859a505873c5c05b70410368788aeb8471488acc6723900000000001976a91496ce01cb7f77ff74721fc424487f8cc963b858af88ac00000000", "vin": [{"sequence": 4294967295, "scriptSig": {"hex": "47304402203e67b7b620aadefb5bdc4a1c53627392fa2fb226f04f9714c2f317b33821c733022004491fdb2a977c88f7dae97da22512a33700f1a417ce28d83f5ffbb4cf1a6eb3012103766af940f921ed10d1d0372f207dbadd7b6a2999fc2f951d9225a52c47870deb", "asm": "304402203e67b7b620aadefb5bdc4a1c53627392fa2fb226f04f9714c2f317b33821c733022004491fdb2a977c88f7dae97da22512a33700f1a417ce28d83f5ffbb4cf1a6eb3[ALL] 03766af940f921ed10d1d0372f207dbadd7b6a2999fc2f951d9225a52c47870deb"}, "vout": 1, "txid": "3655ddc15f057f4370ff5853a070dbc8c6e71d24780bc96aff043bfd651e8e25"}, {"sequence": 4294967295, "scriptSig": {"hex": "483045022100b9fca77c5fa76eae0ffe6aab926bdd92fac90f7db2e4d5c4715f3b08f4da753a02207728fcb732d97a82cab8e9015179a5c43a5dd8945b5fdc87108a0add9a1c9248012102e7093e823ad1a42a158fb3c5d8b09915c6ea09c28cfa94ad4b8caf8dfc11cdd1", "asm": "3045022100b9fca77c5fa76eae0ffe6aab926bdd92fac90f7db2e4d5c4715f3b08f4da753a02207728fcb732d97a82cab8e9015179a5c43a5dd8945b5fdc87108a0add9a1c9248[ALL] 02e7093e823ad1a42a158fb3c5d8b09915c6ea09c28cfa94ad4b8caf8dfc11cdd1"}, "vout": 0, "txid": "3bd5a7e9c74b99140968956052b05804daecc7c693c4bc5a11b7927de5538516"}], "txid": "fdf76182d9f93f10a5c4ed75319e8961d5e204f8511a641416c1deebbf52289c", "blocktime": 1537872018, "version": 1, "confirmations": 11489, "time": 1537872018, "locktime": 0, "vsize": 373, "size": 373}