{"hash": "5d282f66f48bef6080bb39e6c13f21d80e1adef413d96d3f0fc1baf92b976b1c", "blockhash": "00000000000000000004ffacab907a6b429b9a5745fa0b75af4234bf69dd7176", "vout": [{"scriptPubKey": {"reqSigs": 1, "hex": "76a914fc75aaa7d7059ed2f46ff6d8fd6408d48e3b91f488ac", "addresses": ["1Q1tExmp9HUN1rk9D2MW2AsCG5CHBCseg3"], "asm": "OP_DUP OP_HASH160 fc75aaa7d7059ed2f46ff6d8fd6408d48e3b91f4 OP_EQUALVERIFY OP_CHECKSIG", "type": "pubkeyhash"}, "value": 0.041069, "n": 0}, {"scriptPubKey": {"reqSigs": 1, "hex": "a914d8a0e3587532665f0debd91641c07b3e52b3b7f387", "addresses": ["3MSScgHP9P59AvazSnzEV9fd4XBofyUP6z"], "asm": "OP_HASH160 d8a0e3587532665f0debd91641c07b3e52b3b7f3 OP_EQUAL", "type": "scripthash"}, "value": 0.00997964, "n": 1}], "hex": "020000000001017a458efe26ad9228f575ada5f655fc2922bdf5e03dee7fbcbb341e3fad04210d0100000017160014c870236eebdb95eb8ce7fc4d1be8af0c513c1bc5feffffff0294aa3e00000000001976a914fc75aaa7d7059ed2f46ff6d8fd6408d48e3b91f488ac4c3a0f000000000017a914d8a0e3587532665f0debd91641c07b3e52b3b7f38702483045022100fe4ef1331bba2b1f6f0dff16a1a897d8c00980be8985cd3b607ebe0141fd9a4f02200273b05f4eeb7d12dfabd25cbfc99d6ff0b274805ce61c418725c26f4a5cafd30121027209fd6d92a9913386df99c88abefc95a6e81dc7fd7eff9437ab558cd87b7be516490800", "vin": [{"txinwitness": ["3045022100fe4ef1331bba2b1f6f0dff16a1a897d8c00980be8985cd3b607ebe0141fd9a4f02200273b05f4eeb7d12dfabd25cbfc99d6ff0b274805ce61c418725c26f4a5cafd301", "027209fd6d92a9913386df99c88abefc95a6e81dc7fd7eff9437ab558cd87b7be5"], "sequence": 4294967294, "scriptSig": {"hex": "160014c870236eebdb95eb8ce7fc4d1be8af0c513c1bc5", "asm": "0014c870236eebdb95eb8ce7fc4d1be8af0c513c1bc5"}, "vout": 1, "txid": "0d2104ad3f1e34bbbc7fee3de0f5bd2229fc55f6a5ad75f52892ad26fe8e457a"}], "txid": "fdfa928b08a41f370b5846ac978b55bb7deb89944cca3e1cfe5ff5c4339e716b", "blocktime": 1537875543, "version": 2, "confirmations": 11464, "time": 1537875543, "locktime": 542998, "vsize": 168, "size": 250}