{"hash": "fdfbf64cc6a02ab129c2ede393582bab806ada9112a1bc209aeec0866765c8d4", "blockhash": "0000000000000000001e0dab787dd257d1dbfcb92a98c2207d5e1078be1f4165", "vout": [{"scriptPubKey": {"reqSigs": 1, "hex": "76a914880657da4db18ecb1101958fe8fd163df41e249388ac", "addresses": ["1DQEVpazMCPmALKESqNT5SRKLjvLhDjA8V"], "asm": "OP_DUP OP_HASH160 880657da4db18ecb1101958fe8fd163df41e2493 OP_EQUALVERIFY OP_CHECKSIG", "type": "pubkeyhash"}, "value": 0.240779, "n": 0}, {"scriptPubKey": {"reqSigs": 1, "hex": "76a9149f41d2d80108a528966396ca3ae4d2b57a18d82888ac", "addresses": ["1FX5J1KcFbJ5iywbomso3CdUtMbHrBqeuk"], "asm": "OP_DUP OP_HASH160 9f41d2d80108a528966396ca3ae4d2b57a18d828 OP_EQUALVERIFY OP_CHECKSIG", "type": "pubkeyhash"}, "value": 0.00034602, "n": 1}], "hex": "0100000001881fe11e5c7e92096ce8f7740e804cdd51721e6826bc006c30368574d3dbc6b8010000006a47304402202a3e4f297eed044e6b7503e00b24711e028429930e884a42534e00b957caa5c5022067c75eaf5888c6c32cecf7a508278d6cec8606d00442ed8191593afcfe6cd147012102d8cf1eb8d5357620c51041694cb639de80741bef427d4d4a24b43d95b37b5447ffffffff024c666f01000000001976a914880657da4db18ecb1101958fe8fd163df41e249388ac2a870000000000001976a9149f41d2d80108a528966396ca3ae4d2b57a18d82888ac00000000", "vin": [{"sequence": 4294967295, "scriptSig": {"hex": "47304402202a3e4f297eed044e6b7503e00b24711e028429930e884a42534e00b957caa5c5022067c75eaf5888c6c32cecf7a508278d6cec8606d00442ed8191593afcfe6cd147012102d8cf1eb8d5357620c51041694cb639de80741bef427d4d4a24b43d95b37b5447", "asm": "304402202a3e4f297eed044e6b7503e00b24711e028429930e884a42534e00b957caa5c5022067c75eaf5888c6c32cecf7a508278d6cec8606d00442ed8191593afcfe6cd147[ALL] 02d8cf1eb8d5357620c51041694cb639de80741bef427d4d4a24b43d95b37b5447"}, "vout": 1, "txid": "b8c6dbd3748536306c00bc26681e7251dd4c800e74f7e86c09927e5c1ee11f88"}], "txid": "fdfbf64cc6a02ab129c2ede393582bab806ada9112a1bc209aeec0866765c8d4", "blocktime": 1537872475, "version": 1, "confirmations": 11487, "time": 1537872475, "locktime": 0, "vsize": 225, "size": 225}