{"hash": "fe04df222ca80d0544659825fa7181825e23ee7c76ad4712baa6fcae8e711616", "blockhash": "00000000000000000017f5eb5941039fbcee6240d03bc1f2f8e35350df66a1d8", "vout": [{"scriptPubKey": {"reqSigs": 1, "hex": "76a91460e516afa44071bcfa59109a7f0664cd7e1dac0988ac", "addresses": ["19qLJmmjnJcpb2uLmLRQNwiM3bubGgsW86"], "asm": "OP_DUP OP_HASH160 60e516afa44071bcfa59109a7f0664cd7e1dac09 OP_EQUALVERIFY OP_CHECKSIG", "type": "pubkeyhash"}, "value": 0.00997666, "n": 0}, {"scriptPubKey": {"reqSigs": 1, "hex": "76a9141f11351d199c3ea06d8b3ed93918f5e01c22fed688ac", "addresses": ["13qGZYVwYxC4gAWi33Yu9qY8HZ7eTQgD2n"], "asm": "OP_DUP OP_HASH160 1f11351d199c3ea06d8b3ed93918f5e01c22fed6 OP_EQUALVERIFY OP_CHECKSIG", "type": "pubkeyhash"}, "value": 0.00892561, "n": 1}, {"scriptPubKey": {"reqSigs": 1, "hex": "76a91440e7a9fe812d64664d40c735e65a6b24ba728da388ac", "addresses": ["16vBmaTPkwYuS6kQVhqpdWD6LAiSMknZiT"], "asm": "OP_DUP OP_HASH160 40e7a9fe812d64664d40c735e65a6b24ba728da3 OP_EQUALVERIFY OP_CHECKSIG", "type": "pubkeyhash"}, "value": 0.00899031, "n": 2}], "hex": "0200000003961bd6ee345abe502a3c0faae381dc16dcad466599f5adcfdf9cea844deb7629080000006b48304502210084ef4d3da609ad070e51f2a46621f5159e464ab321734a4192fa31cecdc560c70220153156b365d095a9e99d8cdc816144e025fcc763f8cb9e2336cfd0d9a32521310121023589c98edeb0ff187118022bbf8b5928e67007b371f5c03e4238e20fafc606d9feffffff1b7895c8c2e87d49853422c1c73002ef39d31abcc849c334fd2325b036c9a815050000006b4830450221008219f3fea37cb0d9fd580a396b53c128d20e544e84067512b4237b47c6c6af980220093fef64f86d4428c07de13770f9dcb7166df1f23e80b4ee349936eca80d6c850121036f0a26ab2cb828ee088e62a318260165d4941177e8f3cfe2c9ca8bd042415705feffffffcd799f78626c21dcca7644b8af7305a213b7e3a4798e9f7c6552a61996525ba9010000006b4830450221009f46d99526858968de9e7e9e3029f0ebfc5b7c1d65a0b1306a4aa5bdf1c974e5022005092305310bbea69f8ea88a6a8b5f47942b1a287ff9c447e392756a4e8cd04f012103faabe3e47e43984b0eece9f0e9f593096ea4834e5a2c5438a69a99952e545b29feffffff0322390f00000000001976a91460e516afa44071bcfa59109a7f0664cd7e1dac0988ac919e0d00000000001976a9141f11351d199c3ea06d8b3ed93918f5e01c22fed688acd7b70d00000000001976a91440e7a9fe812d64664d40c735e65a6b24ba728da388ac00000000", "vin": [{"sequence": 4294967294, "scriptSig": {"hex": "48304502210084ef4d3da609ad070e51f2a46621f5159e464ab321734a4192fa31cecdc560c70220153156b365d095a9e99d8cdc816144e025fcc763f8cb9e2336cfd0d9a32521310121023589c98edeb0ff187118022bbf8b5928e67007b371f5c03e4238e20fafc606d9", "asm": "304502210084ef4d3da609ad070e51f2a46621f5159e464ab321734a4192fa31cecdc560c70220153156b365d095a9e99d8cdc816144e025fcc763f8cb9e2336cfd0d9a3252131[ALL] 023589c98edeb0ff187118022bbf8b5928e67007b371f5c03e4238e20fafc606d9"}, "vout": 8, "txid": "2976eb4d84ea9cdfcfadf5996546addc16dc81e3aa0f3c2a50be5a34eed61b96"}, {"sequence": 4294967294, "scriptSig": {"hex": "4830450221008219f3fea37cb0d9fd580a396b53c128d20e544e84067512b4237b47c6c6af980220093fef64f86d4428c07de13770f9dcb7166df1f23e80b4ee349936eca80d6c850121036f0a26ab2cb828ee088e62a318260165d4941177e8f3cfe2c9ca8bd042415705", "asm": "30450221008219f3fea37cb0d9fd580a396b53c128d20e544e84067512b4237b47c6c6af980220093fef64f86d4428c07de13770f9dcb7166df1f23e80b4ee349936eca80d6c85[ALL] 036f0a26ab2cb828ee088e62a318260165d4941177e8f3cfe2c9ca8bd042415705"}, "vout": 5, "txid": "15a8c936b02523fd34c349c8bc1ad339ef0230c7c1223485497de8c2c895781b"}, {"sequence": 4294967294, "scriptSig": {"hex": "4830450221009f46d99526858968de9e7e9e3029f0ebfc5b7c1d65a0b1306a4aa5bdf1c974e5022005092305310bbea69f8ea88a6a8b5f47942b1a287ff9c447e392756a4e8cd04f012103faabe3e47e43984b0eece9f0e9f593096ea4834e5a2c5438a69a99952e545b29", "asm": "30450221009f46d99526858968de9e7e9e3029f0ebfc5b7c1d65a0b1306a4aa5bdf1c974e5022005092305310bbea69f8ea88a6a8b5f47942b1a287ff9c447e392756a4e8cd04f[ALL] 03faabe3e47e43984b0eece9f0e9f593096ea4834e5a2c5438a69a99952e545b29"}, "vout": 1, "txid": "a95b529619a652657c9f8e79a4e3b713a20573afb84476cadc216c62789f79cd"}], "txid": "fe04df222ca80d0544659825fa7181825e23ee7c76ad4712baa6fcae8e711616", "blocktime": 1537874412, "version": 2, "confirmations": 11467, "time": 1537874412, "locktime": 0, "vsize": 556, "size": 556}