{"hash": "0f53622a64de172b2f34d83b357b01b99da0682831c1ddd3f6b5347f41421e9e", "blockhash": "00000000000000000017f5eb5941039fbcee6240d03bc1f2f8e35350df66a1d8", "vout": [{"scriptPubKey": {"reqSigs": 1, "hex": "a914ba3d56d45afe34df3909c0e34965c463e59847a987", "addresses": ["3Jfm69N36ADmVTogrbzSAdFBrPNj5fgi7r"], "asm": "OP_HASH160 ba3d56d45afe34df3909c0e34965c463e59847a9 OP_EQUAL", "type": "scripthash"}, "value": 0.002133, "n": 0}, {"scriptPubKey": {"reqSigs": 1, "hex": "a91450581195f759dcc9cf3f439c0808af0848fcab1887", "addresses": ["391qV1Z75KhLgrGzxY8vq7pCkvdeQ7n4NY"], "asm": "OP_HASH160 50581195f759dcc9cf3f439c0808af0848fcab18 OP_EQUAL", "type": "scripthash"}, "value": 0.01531006, "n": 1}], "hex": "010000000001014e9310ee480ab28a064b20a3afdb395eaf3d1a577f7aa73ba85bd755b8d8d5a1000000002322002051866bf89712c5ca9e59ac5ae446614bdbb775e0dd28fff7ddf736680a04216bffffffff02344103000000000017a914ba3d56d45afe34df3909c0e34965c463e59847a9877e5c17000000000017a91450581195f759dcc9cf3f439c0808af0848fcab18870400473044022068643e69d363be38861c9d918d98a5cb46dd7d2fe3acf8f58c15401de7c6c928022019399ee5f8f0bdbe6d7c26506059f8a97f1882ec1851f77273c2a904ef905f3801483045022100c8b10751c9c6c8b630a376a95f696e1800143ca49394d2b51e9872e088baa55d022065c5b67adf5a818416b41a7e2ea035dae9f8187520c2f16d503784886fb4f577016952210300c0f5f3e56b38d258236c3b0c372ba828f4299be49d0c31c2c5e7dc00e74966210339fba277a3ab0c1b6c2b05ae05c0395949d259d042ac93ffde6ae10d930b034b2103520d2436622d5476c6b1e5eee0b089123639481c96b662ba7d023ba3d698bfc453ae00000000", "vin": [{"txinwitness": ["", "3044022068643e69d363be38861c9d918d98a5cb46dd7d2fe3acf8f58c15401de7c6c928022019399ee5f8f0bdbe6d7c26506059f8a97f1882ec1851f77273c2a904ef905f3801", "3045022100c8b10751c9c6c8b630a376a95f696e1800143ca49394d2b51e9872e088baa55d022065c5b67adf5a818416b41a7e2ea035dae9f8187520c2f16d503784886fb4f57701", "52210300c0f5f3e56b38d258236c3b0c372ba828f4299be49d0c31c2c5e7dc00e74966210339fba277a3ab0c1b6c2b05ae05c0395949d259d042ac93ffde6ae10d930b034b2103520d2436622d5476c6b1e5eee0b089123639481c96b662ba7d023ba3d698bfc453ae"], "sequence": 4294967295, "scriptSig": {"hex": "22002051866bf89712c5ca9e59ac5ae446614bdbb775e0dd28fff7ddf736680a04216b", "asm": "002051866bf89712c5ca9e59ac5ae446614bdbb775e0dd28fff7ddf736680a04216b"}, "vout": 0, "txid": "a1d5d8b855d75ba83ba77a7f571a3daf5e39dbafa3204b068ab20a48ee10934e"}], "txid": "fe080762431c483c342d418a69f5f7461e6604ba4d8cb252cf5e96c707f9114d", "blocktime": 1537874412, "version": 1, "confirmations": 11467, "time": 1537874412, "locktime": 0, "vsize": 214, "size": 405}