{"hash": "146db13dc6460c42c6269b6ec0227e146b2fba005acf3706d346213a5c3ad438", "blockhash": "00000000000000000017f5eb5941039fbcee6240d03bc1f2f8e35350df66a1d8", "vout": [{"scriptPubKey": {"reqSigs": 1, "hex": "00147cdfd5f10e141c621e003b842a6b98bc7e3039e8", "addresses": ["bc1q0n0atugwzswxy8sq8wzz56uch3lrqw0g307kts"], "asm": "0 7cdfd5f10e141c621e003b842a6b98bc7e3039e8", "type": "witness_v0_keyhash"}, "value": 0.38371648, "n": 0}, {"scriptPubKey": {"reqSigs": 1, "hex": "a914a9b2b1230889acd771201a331b26a10e7cf2cbce87", "addresses": ["3HAJBhNJh8Yrcq1vscaSySCxPoA3hZr2We"], "asm": "OP_HASH160 a9b2b1230889acd771201a331b26a10e7cf2cbce OP_EQUAL", "type": "scripthash"}, "value": 0.2, "n": 1}], "hex": "010000000001010657a89a81763b1a9e63288c64cc3000c3edee220df599c0a020f1ce13a36bff0100000000ffffffff0240814902000000001600147cdfd5f10e141c621e003b842a6b98bc7e3039e8002d31010000000017a914a9b2b1230889acd771201a331b26a10e7cf2cbce8702483045022100cdde5495fffcb5c1c3374da59fdda3c981819d154c0b78359ae1023b8aaab370022000bffd2487467e91a42db7cad4e5ee5f600ac2a70cb7bf1894d3e3bc13de88b20121023cd5aa8e7503f6bcb41d79d0de062946222c73cd23c0d870e37bbebd49854b5000000000", "vin": [{"txinwitness": ["3045022100cdde5495fffcb5c1c3374da59fdda3c981819d154c0b78359ae1023b8aaab370022000bffd2487467e91a42db7cad4e5ee5f600ac2a70cb7bf1894d3e3bc13de88b201", "023cd5aa8e7503f6bcb41d79d0de062946222c73cd23c0d870e37bbebd49854b50"], "sequence": 4294967295, "scriptSig": {"hex": "", "asm": ""}, "vout": 1, "txid": "ff6ba313cef120a0c099f50d22eeedc30030cc648c28639e1a3b76819aa85706"}], "txid": "fe0aa66df176f97e2f33c9b1c7fc6e303196c6770f87b7ab5a609d2a36204308", "blocktime": 1537874412, "version": 1, "confirmations": 11467, "time": 1537874412, "locktime": 0, "vsize": 142, "size": 224}