{"hash": "864396d458b2fcc957b26aedb7dec048094b7c54b167e562b34c57dd854fafe1", "blockhash": "0000000000000000001cda96e906b7601b7a6fb1a3b62bca570a9e5d8f4b3de1", "vout": [{"scriptPubKey": {"reqSigs": 1, "hex": "a914040f377d95a359c0f2b8ea3546e9aa6394fac35f87", "addresses": ["324UrbBLdwYVaptCBKG8seCoaGwfzwW8WS"], "asm": "OP_HASH160 040f377d95a359c0f2b8ea3546e9aa6394fac35f OP_EQUAL", "type": "scripthash"}, "value": 0.002, "n": 0}, {"scriptPubKey": {"reqSigs": 1, "hex": "76a91481996757449a66dfdc531548e4edd2f38bf49c6e88ac", "addresses": ["1CpFwRP3i7MPXjw9XGGqjHJCay7hhCF1Er"], "asm": "OP_DUP OP_HASH160 81996757449a66dfdc531548e4edd2f38bf49c6e OP_EQUALVERIFY OP_CHECKSIG", "type": "pubkeyhash"}, "value": 0.083, "n": 1}, {"scriptPubKey": {"reqSigs": 1, "hex": "76a9142d9607f3631c343ba62a489cfb4d2d06d210b3bd88ac", "addresses": ["15A38ySAaQvRxCQsFUqKxUqkMwtPiX8j8N"], "asm": "OP_DUP OP_HASH160 2d9607f3631c343ba62a489cfb4d2d06d210b3bd OP_EQUALVERIFY OP_CHECKSIG", "type": "pubkeyhash"}, "value": 0.003854, "n": 2}, {"scriptPubKey": {"reqSigs": 1, "hex": "a91405160ef0fd3ebd242de5d9128bf03497c107062887", "addresses": ["329uj9Mt2mxYc6GX1xXscZukaQwRbGdYXc"], "asm": "OP_HASH160 05160ef0fd3ebd242de5d9128bf03497c1070628 OP_EQUAL", "type": "scripthash"}, "value": 9.9035248, "n": 3}, {"scriptPubKey": {"reqSigs": 1, "hex": "a9143978f0658d2c72614df63e76be9c2780f376b1c687", "addresses": ["36vuKUFEXmGujYE9zVEMrY2LNhdzcu7NHf"], "asm": "OP_HASH160 3978f0658d2c72614df63e76be9c2780f376b1c6 OP_EQUAL", "type": "scripthash"}, "value": 0.00340876, "n": 4}], "hex": "02000000000101e32ce7581b268218b608dd417b13e1f1afec4c72589f05946e659e6367e96dce01000000171600145ea9eb1e17a149eaa789c6cf794bb96d374d90bdfdffffff05400d03000000000017a914040f377d95a359c0f2b8ea3546e9aa6394fac35f87e0a57e00000000001976a91481996757449a66dfdc531548e4edd2f38bf49c6e88ac78e10500000000001976a9142d9607f3631c343ba62a489cfb4d2d06d210b3bd88ac6094073b0000000017a91405160ef0fd3ebd242de5d9128bf03497c1070628878c3305000000000017a9143978f0658d2c72614df63e76be9c2780f376b1c68702473044022017546788bef7e5daf806cdd415a499fec4d64b0e3beea3ab81949af1cbb75208022026245724aa4733cdf3f385fd9810660a837cef9ff5bccbdd01a12548d18607e40121031c4f81fcd1fa5d40a60dd87cacea002b8b5de429bea57be713868deca6e6ea0f13490800", "vin": [{"txinwitness": ["3044022017546788bef7e5daf806cdd415a499fec4d64b0e3beea3ab81949af1cbb75208022026245724aa4733cdf3f385fd9810660a837cef9ff5bccbdd01a12548d18607e401", "031c4f81fcd1fa5d40a60dd87cacea002b8b5de429bea57be713868deca6e6ea0f"], "sequence": 4294967293, "scriptSig": {"hex": "1600145ea9eb1e17a149eaa789c6cf794bb96d374d90bd", "asm": "00145ea9eb1e17a149eaa789c6cf794bb96d374d90bd"}, "vout": 1, "txid": "ce6de967639e656e94059f58724cecaff1e1137b41dd08b61882261b58e72ce3"}], "txid": "fe1330e88f588f7e1a6c5afe3abc624f6178c4bba3c7a5e1931b20ce74b1b42f", "blocktime": 1537873282, "version": 2, "confirmations": 11484, "time": 1537873282, "locktime": 542995, "vsize": 266, "size": 347}