{"hash": "fe14a39788a6bdbc09589609ea1173a443da5187d9e10d2cce217122366e1c7a", "blockhash": "000000000000000000022b45ed06c6f4ccd3cf7fb5ba4856ebd2e58215665228", "vout": [{"scriptPubKey": {"reqSigs": 1, "hex": "76a9143fd51b318e60dc0b85791845aec9751a73838aea88ac", "addresses": ["16pWrxzdEyYeLZQR8MBqbFrkY4i9SLxLAr"], "asm": "OP_DUP OP_HASH160 3fd51b318e60dc0b85791845aec9751a73838aea OP_EQUALVERIFY OP_CHECKSIG", "type": "pubkeyhash"}, "value": 0.0178635, "n": 0}], "hex": "01000000038a30f3f6b94c313d2586a2a3baa66bdcbcd748bdcc96332db39dfc168783782e010000006a47304402205f4ef00ba7a2b91c18dd04f8d01c15c695a82b190e47b2e32268425e0b598bd6022040a38805ee17d6c496c4fa22051faec25062d432aa8ffe7cefd628eada3e9512012102492ea024fdf07a5f0a605807a4025fb176b5aa908f160331fce3512b22dfc9d6ffffffff36e721e7ad1c6fea3451d49b3b69142fdbdd6c8b5151d776618333c0fb493fac000000006a47304402202b41e50f4b14d855bde017b28bd7bc36330edd1aef2174a6cc7276e131948e64022006d90a448e957f35474253b69a7c61fead6bf8aeecf2b84578a3bf202117e726012103fc08db584b9e0971684143bd7876d56ba1d29345f29b6f281a0c0cf6516b56e9ffffffff8515676f4e31ddc9050fcd5cc222fcd62bd946909120cf0ba182632408bdffdc000000006a47304402200428c36a4fc0df2b8e732b8ac302689d4bfd08da66479b9a9974dbb0f1ff0614022043ff269b8a57538a44b5cfdfdbaa8912c722e4ffa6959925b6c1ef0d0be1791601210332dfd965ab648d574855bba493c67c343f6e80ed482daa1fe888cb801831e884ffffffff01ee411b00000000001976a9143fd51b318e60dc0b85791845aec9751a73838aea88ac00000000", "vin": [{"sequence": 4294967295, "scriptSig": {"hex": "47304402205f4ef00ba7a2b91c18dd04f8d01c15c695a82b190e47b2e32268425e0b598bd6022040a38805ee17d6c496c4fa22051faec25062d432aa8ffe7cefd628eada3e9512012102492ea024fdf07a5f0a605807a4025fb176b5aa908f160331fce3512b22dfc9d6", "asm": "304402205f4ef00ba7a2b91c18dd04f8d01c15c695a82b190e47b2e32268425e0b598bd6022040a38805ee17d6c496c4fa22051faec25062d432aa8ffe7cefd628eada3e9512[ALL] 02492ea024fdf07a5f0a605807a4025fb176b5aa908f160331fce3512b22dfc9d6"}, "vout": 1, "txid": "2e78838716fc9db32d3396ccbd48d7bcdc6ba6baa3a286253d314cb9f6f3308a"}, {"sequence": 4294967295, "scriptSig": {"hex": "47304402202b41e50f4b14d855bde017b28bd7bc36330edd1aef2174a6cc7276e131948e64022006d90a448e957f35474253b69a7c61fead6bf8aeecf2b84578a3bf202117e726012103fc08db584b9e0971684143bd7876d56ba1d29345f29b6f281a0c0cf6516b56e9", "asm": "304402202b41e50f4b14d855bde017b28bd7bc36330edd1aef2174a6cc7276e131948e64022006d90a448e957f35474253b69a7c61fead6bf8aeecf2b84578a3bf202117e726[ALL] 03fc08db584b9e0971684143bd7876d56ba1d29345f29b6f281a0c0cf6516b56e9"}, "vout": 0, "txid": "ac3f49fbc033836176d751518b6cdddb2f14693b9bd45134ea6f1cade721e736"}, {"sequence": 4294967295, "scriptSig": {"hex": "47304402200428c36a4fc0df2b8e732b8ac302689d4bfd08da66479b9a9974dbb0f1ff0614022043ff269b8a57538a44b5cfdfdbaa8912c722e4ffa6959925b6c1ef0d0be1791601210332dfd965ab648d574855bba493c67c343f6e80ed482daa1fe888cb801831e884", "asm": "304402200428c36a4fc0df2b8e732b8ac302689d4bfd08da66479b9a9974dbb0f1ff0614022043ff269b8a57538a44b5cfdfdbaa8912c722e4ffa6959925b6c1ef0d0be17916[ALL] 0332dfd965ab648d574855bba493c67c343f6e80ed482daa1fe888cb801831e884"}, "vout": 0, "txid": "dcffbd08246382a10bcf20919046d92bd6fc22c25ccd0f05c9dd314e6f671585"}], "txid": "fe14a39788a6bdbc09589609ea1173a443da5187d9e10d2cce217122366e1c7a", "blocktime": 1537869901, "version": 1, "confirmations": 11522, "time": 1537869901, "locktime": 0, "vsize": 485, "size": 485}