{"hash": "fe1af5df9c069022b55b63028cdff2ad626533701080a9ae075f0d9e64ec1dcc", "blockhash": "0000000000000000001e0dab787dd257d1dbfcb92a98c2207d5e1078be1f4165", "vout": [{"scriptPubKey": {"reqSigs": 1, "hex": "a91404383555ebe425e5e9afe2a1f77c8027bdee526e87", "addresses": ["325KxjbMJawmmM3ridNtmCCTz8REPuJse4"], "asm": "OP_HASH160 04383555ebe425e5e9afe2a1f77c8027bdee526e OP_EQUAL", "type": "scripthash"}, "value": 0.00483533, "n": 0}, {"scriptPubKey": {"reqSigs": 1, "hex": "76a9146438611929060118ea682dd0559e0e906367360688ac", "addresses": ["1A8v7V7rpN5KFF94X2nFWBPBsecbUBbYpa"], "asm": "OP_DUP OP_HASH160 6438611929060118ea682dd0559e0e9063673606 OP_EQUALVERIFY OP_CHECKSIG", "type": "pubkeyhash"}, "value": 1.42223692, "n": 1}], "hex": "0100000001d2ba7ac09854f2cff76377e4d718bec7600162622f8d1681a0e33abf9b32e000010000006a473044022055968881447231a42b33908571c890acfc13ab2bf8062c0aa65f02ebfdbc8c4f02205f161f5844ce9bc27e0e66e154de29318841aaf52a9c3628c04d5bcb14f4d8150121024610d836d662dded124c10c466f9be04c3ec0d4aeae25513d2fd1a49dac2196affffffff02cd6007000000000017a91404383555ebe425e5e9afe2a1f77c8027bdee526e874c297a08000000001976a9146438611929060118ea682dd0559e0e906367360688ac00000000", "vin": [{"sequence": 4294967295, "scriptSig": {"hex": "473044022055968881447231a42b33908571c890acfc13ab2bf8062c0aa65f02ebfdbc8c4f02205f161f5844ce9bc27e0e66e154de29318841aaf52a9c3628c04d5bcb14f4d8150121024610d836d662dded124c10c466f9be04c3ec0d4aeae25513d2fd1a49dac2196a", "asm": "3044022055968881447231a42b33908571c890acfc13ab2bf8062c0aa65f02ebfdbc8c4f02205f161f5844ce9bc27e0e66e154de29318841aaf52a9c3628c04d5bcb14f4d815[ALL] 024610d836d662dded124c10c466f9be04c3ec0d4aeae25513d2fd1a49dac2196a"}, "vout": 1, "txid": "00e0329bbf3ae3a081168d2f62620160c7be18d7e47763f7cff25498c07abad2"}], "txid": "fe1af5df9c069022b55b63028cdff2ad626533701080a9ae075f0d9e64ec1dcc", "blocktime": 1537872475, "version": 1, "confirmations": 11487, "time": 1537872475, "locktime": 0, "vsize": 223, "size": 223}