{"hash": "fe1babb95bc27efe6ea2c46238166da9576ec404c9a8e3e35777791ccdf01cd9", "blockhash": "0000000000000000000dcc0f55137456b1a82d3642486a52398922ac4d620174", "vout": [{"scriptPubKey": {"reqSigs": 1, "hex": "76a91446b5ba3d16cd579c45fd796ffd595900a53d9f9388ac", "addresses": ["17St15Q3sWUat1fkSQUZwBwkQpoVHzxKHt"], "asm": "OP_DUP OP_HASH160 46b5ba3d16cd579c45fd796ffd595900a53d9f93 OP_EQUALVERIFY OP_CHECKSIG", "type": "pubkeyhash"}, "value": 0.0099, "n": 0}, {"scriptPubKey": {"reqSigs": 1, "hex": "76a9147aaf50d387f81d5fa8392357c8245b3208533fcd88ac", "addresses": ["1CBhTZ7PMm15mSvuAvR9L94R1g7Pg97dbH"], "asm": "OP_DUP OP_HASH160 7aaf50d387f81d5fa8392357c8245b3208533fcd OP_EQUALVERIFY OP_CHECKSIG", "type": "pubkeyhash"}, "value": 0.20412439, "n": 1}], "hex": "010000000105ffe68bbc07fccebffb90b4994aa3ef906acaaa23b189f704bc4d159f5cd4cd010000006a47304402206a3ce6710281241ac159c8bb3659f722ea3b6e3b0204bab9c59699c7b195bee1022011948c276c2ac2df05c9f435a5f6744c99df8a4600c9df5dd3825725060c0854012103b288c350da75c5e84ea6d23ee75cfa678042a705befe010a870c2a85ceb2d49affffffff02301b0f00000000001976a91446b5ba3d16cd579c45fd796ffd595900a53d9f9388ac17783701000000001976a9147aaf50d387f81d5fa8392357c8245b3208533fcd88ac00000000", "vin": [{"sequence": 4294967295, "scriptSig": {"hex": "47304402206a3ce6710281241ac159c8bb3659f722ea3b6e3b0204bab9c59699c7b195bee1022011948c276c2ac2df05c9f435a5f6744c99df8a4600c9df5dd3825725060c0854012103b288c350da75c5e84ea6d23ee75cfa678042a705befe010a870c2a85ceb2d49a", "asm": "304402206a3ce6710281241ac159c8bb3659f722ea3b6e3b0204bab9c59699c7b195bee1022011948c276c2ac2df05c9f435a5f6744c99df8a4600c9df5dd3825725060c0854[ALL] 03b288c350da75c5e84ea6d23ee75cfa678042a705befe010a870c2a85ceb2d49a"}, "vout": 1, "txid": "cdd45c9f154dbc04f789b123aaca6a90efa34a99b490fbbfcefc07bc8be6ff05"}], "txid": "fe1babb95bc27efe6ea2c46238166da9576ec404c9a8e3e35777791ccdf01cd9", "blocktime": 1537870268, "version": 1, "confirmations": 11518, "time": 1537870268, "locktime": 0, "vsize": 225, "size": 225}