{"hash": "fe1c8e6f6fefd2caabc826e41c6e352c9bc2763187d84e5fa94c77931496c567", "blockhash": "000000000000000000022b45ed06c6f4ccd3cf7fb5ba4856ebd2e58215665228", "vout": [{"scriptPubKey": {"reqSigs": 1, "hex": "76a914370cd9ab870cdba745165e8bf28545459c645b6b88ac", "addresses": ["1625ZQPoy1zvaC9oykBPmUP4QFahPgbRty"], "asm": "OP_DUP OP_HASH160 370cd9ab870cdba745165e8bf28545459c645b6b OP_EQUALVERIFY OP_CHECKSIG", "type": "pubkeyhash"}, "value": 0.00648309, "n": 0}, {"scriptPubKey": {"type": "nulldata", "hex": "6a4c500000775f0001f76f0f71b697c2d4765c059d3a016b46dc7dc7d0968d120d670c1906f999d5071489fc5a0da764ec84b34e3d7cba5baa077e06125119424c35b71d100759d4ba30d2c37bb011d97e02cf", "asm": "OP_RETURN 0000775f0001f76f0f71b697c2d4765c059d3a016b46dc7dc7d0968d120d670c1906f999d5071489fc5a0da764ec84b34e3d7cba5baa077e06125119424c35b71d100759d4ba30d2c37bb011d97e02cf"}, "value": 0.0, "n": 1}], "hex": "0100000001086c0ccbad42975fce1d37fee94f5cf5325543d4e9ea5551585d8529e92abda1000000006b483045022100af3d66a105ea903b0598e6eedf3e1a429cb1142af75ec2fe56ae511b2d2ca40d02202e5163f82ed9d561d4629e096bde3a9b2faf053606008a7e58914120b2f3b078012102b4d04dcbf5a1b0e77306b11cc22fad30da136b122fba628d25f4d08c4353ffc0ffffffff0275e40900000000001976a914370cd9ab870cdba745165e8bf28545459c645b6b88ac0000000000000000536a4c500000775f0001f76f0f71b697c2d4765c059d3a016b46dc7dc7d0968d120d670c1906f999d5071489fc5a0da764ec84b34e3d7cba5baa077e06125119424c35b71d100759d4ba30d2c37bb011d97e02cf00000000", "vin": [{"sequence": 4294967295, "scriptSig": {"hex": "483045022100af3d66a105ea903b0598e6eedf3e1a429cb1142af75ec2fe56ae511b2d2ca40d02202e5163f82ed9d561d4629e096bde3a9b2faf053606008a7e58914120b2f3b078012102b4d04dcbf5a1b0e77306b11cc22fad30da136b122fba628d25f4d08c4353ffc0", "asm": "3045022100af3d66a105ea903b0598e6eedf3e1a429cb1142af75ec2fe56ae511b2d2ca40d02202e5163f82ed9d561d4629e096bde3a9b2faf053606008a7e58914120b2f3b078[ALL] 02b4d04dcbf5a1b0e77306b11cc22fad30da136b122fba628d25f4d08c4353ffc0"}, "vout": 0, "txid": "a1bd2ae929855d585155eae9d4435532f55c4fe9fe371dce5f9742adcb0c6c08"}], "txid": "fe1c8e6f6fefd2caabc826e41c6e352c9bc2763187d84e5fa94c77931496c567", "blocktime": 1537869901, "version": 1, "confirmations": 11523, "time": 1537869901, "locktime": 0, "vsize": 284, "size": 284}