{"hash": "fe1ca7af7e3a2671d38c38119919dc8db524518e7886be417605a42e72573936", "blockhash": "0000000000000000001f76057863aec43deb6fa401d9628bb513d65a8098bfab", "vout": [{"scriptPubKey": {"reqSigs": 1, "hex": "76a9143a063259587bfd0d45f384a5fd8b8fe01f98580388ac", "addresses": ["16HocgNJmrdd5aMi8AV3sMH95tP9Weu4Bj"], "asm": "OP_DUP OP_HASH160 3a063259587bfd0d45f384a5fd8b8fe01f985803 OP_EQUALVERIFY OP_CHECKSIG", "type": "pubkeyhash"}, "value": 2.137e-05, "n": 0}, {"scriptPubKey": {"reqSigs": 1, "hex": "a914101b42c9053a62ec7a15380585bdd09227744ce787", "addresses": ["33ABPjRJCdFZePcUYBR7aorE7dmoaiddtL"], "asm": "OP_HASH160 101b42c9053a62ec7a15380585bdd09227744ce7 OP_EQUAL", "type": "scripthash"}, "value": 0.0009, "n": 1}], "hex": "010000000177f4b8219afb0279734c8aeb41bf19af0450525fdfcaf0683028b7e46cf7acfe010000006b483045022100ca87308325041b01fd1508c2ad6a6abb1cab50c0f23dad7be34ce6abff194d6102205aa36d6ecd32a631d92cf80f1b49548461077636a2f2b9675358102c02e75bb20121035d392d3d64f49dbef84d444af226049dd94214c2dc3cfb810a7218d9e7ceefb0ffffffff0259080000000000001976a9143a063259587bfd0d45f384a5fd8b8fe01f98580388ac905f01000000000017a914101b42c9053a62ec7a15380585bdd09227744ce78700000000", "vin": [{"sequence": 4294967295, "scriptSig": {"hex": "483045022100ca87308325041b01fd1508c2ad6a6abb1cab50c0f23dad7be34ce6abff194d6102205aa36d6ecd32a631d92cf80f1b49548461077636a2f2b9675358102c02e75bb20121035d392d3d64f49dbef84d444af226049dd94214c2dc3cfb810a7218d9e7ceefb0", "asm": "3045022100ca87308325041b01fd1508c2ad6a6abb1cab50c0f23dad7be34ce6abff194d6102205aa36d6ecd32a631d92cf80f1b49548461077636a2f2b9675358102c02e75bb2[ALL] 035d392d3d64f49dbef84d444af226049dd94214c2dc3cfb810a7218d9e7ceefb0"}, "vout": 1, "txid": "feacf76ce4b7283068f0cadf5f525004af19bf41eb8a4c737902fb9a21b8f477"}], "txid": "fe1ca7af7e3a2671d38c38119919dc8db524518e7886be417605a42e72573936", "blocktime": 1537873891, "version": 1, "confirmations": 11478, "time": 1537873891, "locktime": 0, "vsize": 224, "size": 224}