{"hash": "fe23d206652f0a90bdbd56fc5d958b2388e7a973bd3c134c8dfa087f7bc38677", "blockhash": "0000000000000000000e13cef7c366c0283d82e591d1acd082e914b08063cdf1", "vout": [{"scriptPubKey": {"reqSigs": 1, "hex": "a9146d469dd7c20dac0e64e16f2949b94925ad8c21d087", "addresses": ["3BepAyiyKfZztzY9pZyZT44eZfYqM6mD1C"], "asm": "OP_HASH160 6d469dd7c20dac0e64e16f2949b94925ad8c21d0 OP_EQUAL", "type": "scripthash"}, "value": 0.5, "n": 0}, {"scriptPubKey": {"reqSigs": 1, "hex": "76a91421c1841637a7299f52fc46accb0e945bf236f70488ac", "addresses": ["145V84D3DgwfXP6Ve3invmLBLpPt7RtZ95"], "asm": "OP_DUP OP_HASH160 21c1841637a7299f52fc46accb0e945bf236f704 OP_EQUALVERIFY OP_CHECKSIG", "type": "pubkeyhash"}, "value": 3.98106283, "n": 1}], "hex": "01000000011310dfa2a1b5e83da45a20346ebe30afd79f966160a5c4429f67117af2cd9972010000006b483045022100a323abef0791b76afcda5fe2a000686be3cfc1cee43e7b8f4121acfa911553d30220692564c3c50cbf7cc1654a565303d6ba4d2a03f5bb13e6f3d0be427428c6b47a0121033c00d9f7f58714f0fe02d416f4b78e8e6f9d69f0dc8ea2d41637a436895a0f6fffffffff0280f0fa020000000017a9146d469dd7c20dac0e64e16f2949b94925ad8c21d087ab9eba17000000001976a91421c1841637a7299f52fc46accb0e945bf236f70488ac00000000", "vin": [{"sequence": 4294967295, "scriptSig": {"hex": "483045022100a323abef0791b76afcda5fe2a000686be3cfc1cee43e7b8f4121acfa911553d30220692564c3c50cbf7cc1654a565303d6ba4d2a03f5bb13e6f3d0be427428c6b47a0121033c00d9f7f58714f0fe02d416f4b78e8e6f9d69f0dc8ea2d41637a436895a0f6f", "asm": "3045022100a323abef0791b76afcda5fe2a000686be3cfc1cee43e7b8f4121acfa911553d30220692564c3c50cbf7cc1654a565303d6ba4d2a03f5bb13e6f3d0be427428c6b47a[ALL] 033c00d9f7f58714f0fe02d416f4b78e8e6f9d69f0dc8ea2d41637a436895a0f6f"}, "vout": 1, "txid": "7299cdf27a11679f42c4a56061969fd7af30be6e34205aa43de8b5a1a2df1013"}], "txid": "fe23d206652f0a90bdbd56fc5d958b2388e7a973bd3c134c8dfa087f7bc38677", "blocktime": 1537871767, "version": 1, "confirmations": 11495, "time": 1537871767, "locktime": 0, "vsize": 224, "size": 224}