{"hash": "fe24a09fc10406ac88acde1f1cba9aff267d5540ce3fb424e1bf74fce49365f3", "blockhash": "0000000000000000001cda96e906b7601b7a6fb1a3b62bca570a9e5d8f4b3de1", "vout": [{"scriptPubKey": {"reqSigs": 1, "hex": "76a914464bb210a99ec81cd92c0b79a1f837e936cd4d2488ac", "addresses": ["17QgyrCifaoCPkHF4FicVM4vsrmghF5KcM"], "asm": "OP_DUP OP_HASH160 464bb210a99ec81cd92c0b79a1f837e936cd4d24 OP_EQUALVERIFY OP_CHECKSIG", "type": "pubkeyhash"}, "value": 0.00468415, "n": 0}, {"scriptPubKey": {"reqSigs": 1, "hex": "76a914196b4fc60ac3d03f315e8f22f584788d614cc6e388ac", "addresses": ["13KQSwNrGHG7gXeaTmNjNdHxjA2b9CrVDf"], "asm": "OP_DUP OP_HASH160 196b4fc60ac3d03f315e8f22f584788d614cc6e3 OP_EQUALVERIFY OP_CHECKSIG", "type": "pubkeyhash"}, "value": 0.05601814, "n": 1}], "hex": "0100000001fff31f8d31270f08584e94c1f5d505052ae788a5114d7165d28c9652bc729ba3010000006a47304402205645d0c920381b6239cab89c58da4602d63d871196470d6035de87fd9460383802207071e8e8dcd3910e4c85eee1c8cc1eceb9226a93618d52166fc1c5a638068088012103c23f44806da460bec8edf4ac7d7d947e35238774e362edb78ae95a67c06c83a4ffffffff02bf250700000000001976a914464bb210a99ec81cd92c0b79a1f837e936cd4d2488ac167a5500000000001976a914196b4fc60ac3d03f315e8f22f584788d614cc6e388ac00000000", "vin": [{"sequence": 4294967295, "scriptSig": {"hex": "47304402205645d0c920381b6239cab89c58da4602d63d871196470d6035de87fd9460383802207071e8e8dcd3910e4c85eee1c8cc1eceb9226a93618d52166fc1c5a638068088012103c23f44806da460bec8edf4ac7d7d947e35238774e362edb78ae95a67c06c83a4", "asm": "304402205645d0c920381b6239cab89c58da4602d63d871196470d6035de87fd9460383802207071e8e8dcd3910e4c85eee1c8cc1eceb9226a93618d52166fc1c5a638068088[ALL] 03c23f44806da460bec8edf4ac7d7d947e35238774e362edb78ae95a67c06c83a4"}, "vout": 1, "txid": "a39b72bc52968cd265714d11a588e72a0505d5f5c1944e58080f27318d1ff3ff"}], "txid": "fe24a09fc10406ac88acde1f1cba9aff267d5540ce3fb424e1bf74fce49365f3", "blocktime": 1537873282, "version": 1, "confirmations": 11480, "time": 1537873282, "locktime": 0, "vsize": 225, "size": 225}