{"hash": "da156bc6cbc795d5494fdd43377904235fe3d1c3859d1accac2962a2eebfe6a8", "blockhash": "0000000000000000000e13cef7c366c0283d82e591d1acd082e914b08063cdf1", "vout": [{"scriptPubKey": {"reqSigs": 1, "hex": "a914650c6fe2923e76754675e03af26d304d32e8a77b87", "addresses": ["3AuK54SMB35ujtKn8uT5bVS4LYr7CKnLAp"], "asm": "OP_HASH160 650c6fe2923e76754675e03af26d304d32e8a77b OP_EQUAL", "type": "scripthash"}, "value": 0.0052356, "n": 0}, {"scriptPubKey": {"reqSigs": 1, "hex": "a914b191430a1802f9237622b7baddfaf483ea006deb87", "addresses": ["3HsuYUBzCwsFkcpHH1CQnottNHfydZKtbP"], "asm": "OP_HASH160 b191430a1802f9237622b7baddfaf483ea006deb OP_EQUAL", "type": "scripthash"}, "value": 0.01304964, "n": 1}], "hex": "02000000000101aa2ee7ad6f9324ebf0147c22fc7357c88e846cb6107d7a657fd024d6c07bfc8401000000171600148973bbaa381009984a7141945645f54d60f6ca03feffffff0228fd07000000000017a914650c6fe2923e76754675e03af26d304d32e8a77b8784e913000000000017a914b191430a1802f9237622b7baddfaf483ea006deb870247304402203ea54ab0e1875d030184428dbec489bbedfa8a6857738a1469164bbb19c3303602203571247a6e5f74c0e449d8e38836f00e5f856987ff4b1b139ccfbb83a1512a3b0121022d5fb4620871fce930c2d06f67279237648ff1993db37c185df4c9a475a478c40f490800", "vin": [{"txinwitness": ["304402203ea54ab0e1875d030184428dbec489bbedfa8a6857738a1469164bbb19c3303602203571247a6e5f74c0e449d8e38836f00e5f856987ff4b1b139ccfbb83a1512a3b01", "022d5fb4620871fce930c2d06f67279237648ff1993db37c185df4c9a475a478c4"], "sequence": 4294967294, "scriptSig": {"hex": "1600148973bbaa381009984a7141945645f54d60f6ca03", "asm": "00148973bbaa381009984a7141945645f54d60f6ca03"}, "vout": 1, "txid": "84fc7bc0d624d07f657a7d10b66c848ec85773fc227c14f0eb24936fade72eaa"}], "txid": "fe256e2786ef86b30849498a7e42b679cf3f655deac17d16bf22bf10f6abdf89", "blocktime": 1537871767, "version": 2, "confirmations": 11495, "time": 1537871767, "locktime": 542991, "vsize": 166, "size": 247}