{"hash": "cadb8028bd1da84fef1e61690cce01b2865cde0146ef974de2fd265e213a1ab1", "blockhash": "000000000000000000022b45ed06c6f4ccd3cf7fb5ba4856ebd2e58215665228", "vout": [{"scriptPubKey": {"reqSigs": 1, "hex": "76a91408356d02deee06c6550cc4c14a1ce7aa2c65147288ac", "addresses": ["1kQQdK1ziVppto1eXxMCCqbfKJ5Mps66t"], "asm": "OP_DUP OP_HASH160 08356d02deee06c6550cc4c14a1ce7aa2c651472 OP_EQUALVERIFY OP_CHECKSIG", "type": "pubkeyhash"}, "value": 0.0204144, "n": 0}, {"scriptPubKey": {"reqSigs": 1, "hex": "00146ac32c17a38a8a9356c1a88650c21ab6b527a799", "addresses": ["bc1qdtpjc9ar329fx4kp4zr9pss6k66j0fuerv3k5v"], "asm": "0 6ac32c17a38a8a9356c1a88650c21ab6b527a799", "type": "witness_v0_keyhash"}, "value": 0.00066132, "n": 1}], "hex": "0100000000010188500c3b017f0eff604ec8401b1708770987092537e6099b2c414ec173ff0c080100000017160014f235b9553c0f1a7e47987a0554014fe21a032092ffffffff0260261f00000000001976a91408356d02deee06c6550cc4c14a1ce7aa2c65147288ac54020100000000001600146ac32c17a38a8a9356c1a88650c21ab6b527a79902483045022100b715ddafd66a2d362127b87b1dddc9dbba741f43366c902358686103b2fe6866022001048422c32823e644bbab6231a98a4c905fe13129414c9548517a07c05a303e0121028a832d9f7e0413c24d6fb90e737ee8ee95a2da2a061f6168fe62b4ea0c310e6f00000000", "vin": [{"txinwitness": ["3045022100b715ddafd66a2d362127b87b1dddc9dbba741f43366c902358686103b2fe6866022001048422c32823e644bbab6231a98a4c905fe13129414c9548517a07c05a303e01", "028a832d9f7e0413c24d6fb90e737ee8ee95a2da2a061f6168fe62b4ea0c310e6f"], "sequence": 4294967295, "scriptSig": {"hex": "160014f235b9553c0f1a7e47987a0554014fe21a032092", "asm": "0014f235b9553c0f1a7e47987a0554014fe21a032092"}, "vout": 1, "txid": "080cff73c14e412c9b09e637250987097708171b40c84e60ff0e7f013b0c5088"}], "txid": "fe27e684c6256a77c75b93dc8ca0c96013f02b3d646dc8506c020f5c140634ea", "blocktime": 1537869901, "version": 1, "confirmations": 11523, "time": 1537869901, "locktime": 0, "vsize": 167, "size": 249}