{"hash": "a5e5dfa976574855beed8506b08421d9e70ffda6da550727c2aa97a16603c682", "blockhash": "0000000000000000000baef3f32e3676a92c3b2e5da21b426e4f302fc371ce76", "vout": [{"scriptPubKey": {"reqSigs": 1, "hex": "a914a8b4a24d3f397265d494ce2e8b84a97c82c9a32e87", "addresses": ["3H53qSXnAKEdk4cedUGdrMM5q2AGX9oYAz"], "asm": "OP_HASH160 a8b4a24d3f397265d494ce2e8b84a97c82c9a32e OP_EQUAL", "type": "scripthash"}, "value": 8.00845071, "n": 0}, {"scriptPubKey": {"reqSigs": 1, "hex": "76a91413088b6e20cd010f5b082deccd1a135b045097ea88ac", "addresses": ["12je5La3rKeANGQodR8DgVCFkP2fFeW4T6"], "asm": "OP_DUP OP_HASH160 13088b6e20cd010f5b082deccd1a135b045097ea OP_EQUALVERIFY OP_CHECKSIG", "type": "pubkeyhash"}, "value": 0.06221139, "n": 1}], "hex": "02000000000101e4413cb7a41fbf8e91a73ed0effede2fa2fc30acbef2be686a4db77948b4920a0100000017160014ab547014d9d9a0a9cf490d41088c648acce4181cfdffffff020fedbb2f0000000017a914a8b4a24d3f397265d494ce2e8b84a97c82c9a32e8753ed5e00000000001976a91413088b6e20cd010f5b082deccd1a135b045097ea88ac024830450221009fb552e2fa2eb17f70ba74cd4dafffb7542aa57743a42465f379efa0469a789602204e967745b8dc748698bb2aeb71c226e73bb31e1bd1c8d8e3f2421699f5b915d7012103c425c5dd7b3328addcade760e6bdace0c1950e0db68c2977b75b237ae03ed85d17490800", "vin": [{"txinwitness": ["30450221009fb552e2fa2eb17f70ba74cd4dafffb7542aa57743a42465f379efa0469a789602204e967745b8dc748698bb2aeb71c226e73bb31e1bd1c8d8e3f2421699f5b915d701", "03c425c5dd7b3328addcade760e6bdace0c1950e0db68c2977b75b237ae03ed85d"], "sequence": 4294967293, "scriptSig": {"hex": "160014ab547014d9d9a0a9cf490d41088c648acce4181c", "asm": "0014ab547014d9d9a0a9cf490d41088c648acce4181c"}, "vout": 1, "txid": "0a92b44879b74d6a68bef2beac30fca22fdefeefd03ea7918ebf1fa4b73c41e4"}], "txid": "fe290c453027e693283453f2225f2d5d730d31f07fd6337f37cbb16d82ff622b", "blocktime": 1537876114, "version": 2, "confirmations": 11460, "time": 1537876114, "locktime": 542999, "vsize": 168, "size": 250}