{"hash": "fe2e2bcc0c60dfa946c7730d1203252c2ed710fdd2131d9179da669b891e97f1", "blockhash": "00000000000000000017f5eb5941039fbcee6240d03bc1f2f8e35350df66a1d8", "vout": [{"scriptPubKey": {"reqSigs": 1, "hex": "76a9143192921501032c79d5bc3c00f00a17ac2c1a075d88ac", "addresses": ["15X7hJjjbjyK4BVCFNNu7c55b178pmSydH"], "asm": "OP_DUP OP_HASH160 3192921501032c79d5bc3c00f00a17ac2c1a075d OP_EQUALVERIFY OP_CHECKSIG", "type": "pubkeyhash"}, "value": 0.08112803, "n": 0}, {"scriptPubKey": {"reqSigs": 1, "hex": "76a9144a0f1e2f2b0d7daeec5265f10bbbbe08ed725e8988ac", "addresses": ["17kb7c9ndg7ioSuzMWEHWECdEVUegNkcGc"], "asm": "OP_DUP OP_HASH160 4a0f1e2f2b0d7daeec5265f10bbbbe08ed725e89 OP_EQUALVERIFY OP_CHECKSIG", "type": "pubkeyhash"}, "value": 0.00882493, "n": 1}], "hex": "01000000019872e8bbd4f73abbc28cb6807592cd98c5b8614b215f057dce2d6367428fd551000000006b483045022100ef7a1378d5ec484c20e1cb0b2a86f906364977c88b504293cb8c364841a89617022056e2351c821c86d73f7cb706232a71a108a493e633bb1b99ff484ef8ce9f13ec01210363e1776495149c5a4e92acf453a3caa19000fc804e4ba2024b600ba25e09c943ffffffff02a3ca7b00000000001976a9143192921501032c79d5bc3c00f00a17ac2c1a075d88ac3d770d00000000001976a9144a0f1e2f2b0d7daeec5265f10bbbbe08ed725e8988ac00000000", "vin": [{"sequence": 4294967295, "scriptSig": {"hex": "483045022100ef7a1378d5ec484c20e1cb0b2a86f906364977c88b504293cb8c364841a89617022056e2351c821c86d73f7cb706232a71a108a493e633bb1b99ff484ef8ce9f13ec01210363e1776495149c5a4e92acf453a3caa19000fc804e4ba2024b600ba25e09c943", "asm": "3045022100ef7a1378d5ec484c20e1cb0b2a86f906364977c88b504293cb8c364841a89617022056e2351c821c86d73f7cb706232a71a108a493e633bb1b99ff484ef8ce9f13ec[ALL] 0363e1776495149c5a4e92acf453a3caa19000fc804e4ba2024b600ba25e09c943"}, "vout": 0, "txid": "51d58f4267632dce7d055f214b61b8c598cd927580b68cc2bb3af7d4bbe87298"}], "txid": "fe2e2bcc0c60dfa946c7730d1203252c2ed710fdd2131d9179da669b891e97f1", "blocktime": 1537874412, "version": 1, "confirmations": 11466, "time": 1537874412, "locktime": 0, "vsize": 226, "size": 226}