{"hash": "bf4576a96b0fd75def3c3c0dc44f7be7090030b37a148f931b47bf71fff69156", "blockhash": "0000000000000000000e13cef7c366c0283d82e591d1acd082e914b08063cdf1", "vout": [{"scriptPubKey": {"reqSigs": 1, "hex": "76a9142138472b387e91d8a99458188a12d71862970bdd88ac", "addresses": ["142eibVJfeFdN6ZBrXHmSWuDrJQyBJL1kA"], "asm": "OP_DUP OP_HASH160 2138472b387e91d8a99458188a12d71862970bdd OP_EQUALVERIFY OP_CHECKSIG", "type": "pubkeyhash"}, "value": 0.00061032, "n": 0}, {"scriptPubKey": {"reqSigs": 1, "hex": "001466bf5f5d4f9392ef5efd4f0453a150d03853baaa", "addresses": ["bc1qv6l47h20jwfw7hhafuz98g2s6qu98w42g7vkfe"], "asm": "0 66bf5f5d4f9392ef5efd4f0453a150d03853baaa", "type": "witness_v0_keyhash"}, "value": 1.75e-05, "n": 1}], "hex": "010000000001010d873034cf68e10456d9fd429c36bd958c22fddb3bd7f88b335f405f80e9905b0100000000ffffffff0268ee0000000000001976a9142138472b387e91d8a99458188a12d71862970bdd88acd60600000000000016001466bf5f5d4f9392ef5efd4f0453a150d03853baaa0247304402203aeeff5b80f04ca7090f50f49056436e80902760ad1faf47f3e21ca82e42f0ed022001defa127ab76e2965d221016f9bc5bbbada238165b07e0056d18db7a6be3664012103cd4b8817994524288d4a4f97b0aaddc0a603eef4bde34967b8d74dab9e8cb58200000000", "vin": [{"txinwitness": ["304402203aeeff5b80f04ca7090f50f49056436e80902760ad1faf47f3e21ca82e42f0ed022001defa127ab76e2965d221016f9bc5bbbada238165b07e0056d18db7a6be366401", "03cd4b8817994524288d4a4f97b0aaddc0a603eef4bde34967b8d74dab9e8cb582"], "sequence": 4294967295, "scriptSig": {"hex": "", "asm": ""}, "vout": 1, "txid": "5b90e9805f405f338bf8d73bdbfd228c95bd369c42fdd95604e168cf3430870d"}], "txid": "fe2ea4919dba1f28636bcf354c42ed19fca42ab1994f3d929f34d9e4089fefba", "blocktime": 1537871767, "version": 1, "confirmations": 11495, "time": 1537871767, "locktime": 0, "vsize": 144, "size": 225}