{"hash": "a68fb9b745877ab1dac038a3669ce8923a20314b0f5d4edb772e311fa57678cf", "blockhash": "00000000000000000024a2167bbff67b0be802c0b01cdd79e6331c2be6459f87", "vout": [{"scriptPubKey": {"reqSigs": 1, "hex": "76a91415ff1ff5b005c19e453610376366984aee60d0a788ac", "addresses": ["131JpQyEyVeoyJD99UN1sqDPnP8USd5H3x"], "asm": "OP_DUP OP_HASH160 15ff1ff5b005c19e453610376366984aee60d0a7 OP_EQUALVERIFY OP_CHECKSIG", "type": "pubkeyhash"}, "value": 0.014909, "n": 0}, {"scriptPubKey": {"reqSigs": 1, "hex": "a914f1c35ae9628e20b6a0d1cd2ada21cbf5fc85a3e687", "addresses": ["3PjLoHbB4eda4fzuSaJrbSzTNem8H5qSfu"], "asm": "OP_HASH160 f1c35ae9628e20b6a0d1cd2ada21cbf5fc85a3e6 OP_EQUAL", "type": "scripthash"}, "value": 0.0238162, "n": 1}], "hex": "020000000001012670afa119b2fb3a99f531f0bddeff4a6798181e5c08a9dfb7ad756db1fe302501000000171600149841a448acbb03ad33772395b0c906c66ade1cf9fdffffff02d4bf1600000000001976a91415ff1ff5b005c19e453610376366984aee60d0a788ac345724000000000017a914f1c35ae9628e20b6a0d1cd2ada21cbf5fc85a3e687024730440220507b502921577c68bae06421d14f19a7baa3d76af07989313cabfb1109a69c33022071cd9d7173fb9ad450d78f8698188372059349f05f78381b3058481b443087e101210225182a760dd3783784cc2d3369ab0249f2293c72fd4670369cb5e84701faf42db2480800", "vin": [{"txinwitness": ["30440220507b502921577c68bae06421d14f19a7baa3d76af07989313cabfb1109a69c33022071cd9d7173fb9ad450d78f8698188372059349f05f78381b3058481b443087e101", "0225182a760dd3783784cc2d3369ab0249f2293c72fd4670369cb5e84701faf42d"], "sequence": 4294967293, "scriptSig": {"hex": "1600149841a448acbb03ad33772395b0c906c66ade1cf9", "asm": "00149841a448acbb03ad33772395b0c906c66ade1cf9"}, "vout": 1, "txid": "2530feb16d75adb7dfa9085c1e1898674affdebdf031f5993afbb219a1af7026"}], "txid": "fe37b74310b9efba51bbc8ebf96313014008cb5c47366973f0803ed5115f56ed", "blocktime": 1537870564, "version": 2, "confirmations": 11515, "time": 1537870564, "locktime": 542898, "vsize": 168, "size": 249}