{"hash": "3211c5ae50889b866da032cc3d83cd9b86658ce1f3ef7f6f49957a4ef89f8ee0", "blockhash": "0000000000000000000dcc0f55137456b1a82d3642486a52398922ac4d620174", "vout": [{"scriptPubKey": {"reqSigs": 1, "hex": "00144cc4ddd7c8514b5b02f9d6acb62b4c3862e76f58", "addresses": ["bc1qfnzdm47g2994kqhe66ktv26v8p3wwm6cva6a3f"], "asm": "0 4cc4ddd7c8514b5b02f9d6acb62b4c3862e76f58", "type": "witness_v0_keyhash"}, "value": 0.01880726, "n": 0}, {"scriptPubKey": {"reqSigs": 1, "hex": "a91405961b371afb740e223026f199aa745c5f55290c87", "addresses": ["32CZ858vqRsFzYkBdi3qgbP8FNy8DFgkc4"], "asm": "OP_HASH160 05961b371afb740e223026f199aa745c5f55290c OP_EQUAL", "type": "scripthash"}, "value": 0.12257246, "n": 1}], "hex": "010000000001011c96c17dd123370909784d6c6a81c1a578b328ce9cbcfcc8990096ddc48abd600100000000ffffffff0296b21c00000000001600144cc4ddd7c8514b5b02f9d6acb62b4c3862e76f58de07bb000000000017a91405961b371afb740e223026f199aa745c5f55290c87024730440220555bbfeb53837f0550d56b782e9e5647ac70143ab1ca2462ee405a82264734d402200a53dc376ffd8b36f3eda6ced519d019f6c313addf6d28fa28ce2ada5390796701210285319b158a18ed93bd9793ac40cbfd59f7b3785a70208a9e77fabc282ff1d86b00000000", "vin": [{"txinwitness": ["30440220555bbfeb53837f0550d56b782e9e5647ac70143ab1ca2462ee405a82264734d402200a53dc376ffd8b36f3eda6ced519d019f6c313addf6d28fa28ce2ada5390796701", "0285319b158a18ed93bd9793ac40cbfd59f7b3785a70208a9e77fabc282ff1d86b"], "sequence": 4294967295, "scriptSig": {"hex": "", "asm": ""}, "vout": 1, "txid": "60bd8ac4dd960099c8fcbc9cce28b378a5c1816a6c4d7809093723d17dc1961c"}], "txid": "fe38c13f3ad466b55255f1a2350637772dfabc20c88a49f70c30998b8cf632b5", "blocktime": 1537870268, "version": 1, "confirmations": 11518, "time": 1537870268, "locktime": 0, "vsize": 142, "size": 223}