{"hash": "fe389e484d7c3c9c77dc6f0a0c46711f5aceb76cd5b0e6b4300ca680be9cb96a", "blockhash": "000000000000000000022b45ed06c6f4ccd3cf7fb5ba4856ebd2e58215665228", "vout": [{"scriptPubKey": {"reqSigs": 1, "hex": "76a9141567d468bac7a9b8049df54a28f5703ff7bccff388ac", "addresses": ["12xBaFA3x5hDiBCiNJ8Y2PK2X1Yq3SKbxs"], "asm": "OP_DUP OP_HASH160 1567d468bac7a9b8049df54a28f5703ff7bccff3 OP_EQUALVERIFY OP_CHECKSIG", "type": "pubkeyhash"}, "value": 0.00012467, "n": 0}, {"scriptPubKey": {"reqSigs": 1, "hex": "76a914467bd79d1dc3aaf969bd4de3e5079f12dce86af888ac", "addresses": ["17Rgf8zt4He478sR6yEaRP2pg1FUzvVxDN"], "asm": "OP_DUP OP_HASH160 467bd79d1dc3aaf969bd4de3e5079f12dce86af8 OP_EQUALVERIFY OP_CHECKSIG", "type": "pubkeyhash"}, "value": 0.00585056, "n": 1}], "hex": "01000000019b7503471550de9286e1e9a55f01c4bfd5fb40f93f97f0a4142081f70fd3bba0010000006b4830450221009c20e450fa013bc5e698aab3b038c7710580037876be596b2ae6ef15ef9600b002207dfb948e282ff80a2f56e28beb45aca60b7ceebccf322e696cb1f3209636a680012102b654e8262ee6e37a310f8e08cf441711840d252e4ddd014b8f8334666e0398d9ffffffff02b3300000000000001976a9141567d468bac7a9b8049df54a28f5703ff7bccff388ac60ed0800000000001976a914467bd79d1dc3aaf969bd4de3e5079f12dce86af888ac00000000", "vin": [{"sequence": 4294967295, "scriptSig": {"hex": "4830450221009c20e450fa013bc5e698aab3b038c7710580037876be596b2ae6ef15ef9600b002207dfb948e282ff80a2f56e28beb45aca60b7ceebccf322e696cb1f3209636a680012102b654e8262ee6e37a310f8e08cf441711840d252e4ddd014b8f8334666e0398d9", "asm": "30450221009c20e450fa013bc5e698aab3b038c7710580037876be596b2ae6ef15ef9600b002207dfb948e282ff80a2f56e28beb45aca60b7ceebccf322e696cb1f3209636a680[ALL] 02b654e8262ee6e37a310f8e08cf441711840d252e4ddd014b8f8334666e0398d9"}, "vout": 1, "txid": "a0bbd30ff7812014a4f0973ff940fbd5bfc4015fa5e9e18692de50154703759b"}], "txid": "fe389e484d7c3c9c77dc6f0a0c46711f5aceb76cd5b0e6b4300ca680be9cb96a", "blocktime": 1537869901, "version": 1, "confirmations": 11524, "time": 1537869901, "locktime": 0, "vsize": 226, "size": 226}