{"hash": "c9d3f008fc962ffdd314a1735ac0fff4ab7cca627b32ea84e7d8280f79980aee", "blockhash": "00000000000000000018f53835495a110e01622372bf6ae95dc86f2b0ab887b0", "vout": [{"scriptPubKey": {"reqSigs": 1, "hex": "a914370cc9f2d26358151c5348d30dff00dc832e55d487", "addresses": ["36i6QgQ6ZtQQQqRKof11AdFZYsDKupVs9Q"], "asm": "OP_HASH160 370cc9f2d26358151c5348d30dff00dc832e55d4 OP_EQUAL", "type": "scripthash"}, "value": 0.01011237, "n": 0}, {"scriptPubKey": {"reqSigs": 1, "hex": "76a9147a58eaa832b8c9d836b389b38347f692371989eb88ac", "addresses": ["1C9uxSTodGk9QbDXJfak1BxQBsgw7RyEmQ"], "asm": "OP_DUP OP_HASH160 7a58eaa832b8c9d836b389b38347f692371989eb OP_EQUALVERIFY OP_CHECKSIG", "type": "pubkeyhash"}, "value": 0.545, "n": 1}], "hex": "020000000001034afaf007004f9212f53b07bae0c67db920c8e7640ef301fb46f4b688312b89630000000017160014697af5716a554f937223c83996fdf1b214dcce5afeffffff59bf7d33cc7cfb755601324089be36c6b4d093f97df70953292ffedc901081b000000000171600140bf3688640ec8eeb142c2e920f8e89203603f3b0feffffff766e661cd95c377f43df3d25a276a9399f55e1ba35e73a916703495be4f521f41800000017160014ebf1bac4fa6293dbf0d0b07d4b582119ad9c34f9feffffff02256e0f000000000017a914370cc9f2d26358151c5348d30dff00dc832e55d487a09a3f03000000001976a9147a58eaa832b8c9d836b389b38347f692371989eb88ac02473044022064b43e65155dda3026ffb558a8c3fe5c9e592c54d92119a6381441f7f4983aec022061cc47eed597a8e5fa70b4057b1bf724c17355758979e02a35a84800a85f94c30121039bff49d532dc5c20d6dc0feff79efaddde7ba3ee808e3f0b394f2e2a598a1fcc02483045022100d5e595caabe8585e12a4899fee06e85026b5c19dcd35d912602b4c0d3b04e74e022077bfb20fce749e2a4ae2c8c04b1ad6784fa92bbe7b46ebae4b5c1027cf44dcf401210204515b89b7c33f54c46ba0485d114ff6b01e4cdac892a3d42b8805346370e5f80247304402204c7b53de6b022cf03553cd228016a61b177f35d8c3d03413c3e9347b94fd0e2002205dffa74a1312ad074ec7715b45c08119fcf0bbb0c8cb6f55a988cc38c84f16510121020b1cb242deb259e720c6d18688fd0e84fe75ca1d0ef07bbfa5546b752cb6551a0e490800", "vin": [{"txinwitness": ["3044022064b43e65155dda3026ffb558a8c3fe5c9e592c54d92119a6381441f7f4983aec022061cc47eed597a8e5fa70b4057b1bf724c17355758979e02a35a84800a85f94c301", "039bff49d532dc5c20d6dc0feff79efaddde7ba3ee808e3f0b394f2e2a598a1fcc"], "sequence": 4294967294, "scriptSig": {"hex": "160014697af5716a554f937223c83996fdf1b214dcce5a", "asm": "0014697af5716a554f937223c83996fdf1b214dcce5a"}, "vout": 0, "txid": "63892b3188b6f446fb01f30e64e7c820b97dc6e0ba073bf512924f0007f0fa4a"}, {"txinwitness": ["3045022100d5e595caabe8585e12a4899fee06e85026b5c19dcd35d912602b4c0d3b04e74e022077bfb20fce749e2a4ae2c8c04b1ad6784fa92bbe7b46ebae4b5c1027cf44dcf401", "0204515b89b7c33f54c46ba0485d114ff6b01e4cdac892a3d42b8805346370e5f8"], "sequence": 4294967294, "scriptSig": {"hex": "1600140bf3688640ec8eeb142c2e920f8e89203603f3b0", "asm": "00140bf3688640ec8eeb142c2e920f8e89203603f3b0"}, "vout": 0, "txid": "b0811090dcfe2f295309f77df993d0b4c636be894032015675fb7ccc337dbf59"}, {"txinwitness": ["304402204c7b53de6b022cf03553cd228016a61b177f35d8c3d03413c3e9347b94fd0e2002205dffa74a1312ad074ec7715b45c08119fcf0bbb0c8cb6f55a988cc38c84f165101", "020b1cb242deb259e720c6d18688fd0e84fe75ca1d0ef07bbfa5546b752cb6551a"], "sequence": 4294967294, "scriptSig": {"hex": "160014ebf1bac4fa6293dbf0d0b07d4b582119ad9c34f9", "asm": "0014ebf1bac4fa6293dbf0d0b07d4b582119ad9c34f9"}, "vout": 24, "txid": "f421f5e45b490367913ae735bae1559f39a976a2253ddf437f375cd91c666e76"}], "txid": "fe3d7af2c98aa5613e096af28003308f5234561a01716d1a7571daed14adea03", "blocktime": 1537870928, "version": 2, "confirmations": 11514, "time": 1537870928, "locktime": 542990, "vsize": 349, "size": 592}