{"hash": "71756a022d15e2ccaaaef606595eea3b434b82e7cef403c02df97c03bacf0ad7", "blockhash": "0000000000000000000e13cef7c366c0283d82e591d1acd082e914b08063cdf1", "vout": [{"scriptPubKey": {"reqSigs": 1, "hex": "a9147bdecdac859837770d977e3954b898fc3ea9cafe87", "addresses": ["3CyywnrmwetDx9KarJmYagSsrWqCkyWF59"], "asm": "OP_HASH160 7bdecdac859837770d977e3954b898fc3ea9cafe OP_EQUAL", "type": "scripthash"}, "value": 1.55752912, "n": 0}, {"scriptPubKey": {"reqSigs": 1, "hex": "a914f22a8a3c03072f9ec80a9ac500a1ad4b3898501e87", "addresses": ["3PmUQhLLGn5wyN3TfMs9qCDUSngAGo8y11"], "asm": "OP_HASH160 f22a8a3c03072f9ec80a9ac500a1ad4b3898501e OP_EQUAL", "type": "scripthash"}, "value": 0.1874224, "n": 1}, {"scriptPubKey": {"reqSigs": 1, "hex": "a914c455e8a66de81c3400447695d0de265a35693c8387", "addresses": ["3Kb9HBxvmevpLeNZ9FU9iaEaJczaLJvkHM"], "asm": "OP_HASH160 c455e8a66de81c3400447695d0de265a35693c83 OP_EQUAL", "type": "scripthash"}, "value": 0.00046855, "n": 2}], "hex": "01000000000101c959d514641e5fc5dd1073f44e599f42b4115bb7fd9b1f6231c842cb82db5e6d0100000023220020b57395f1b9f7f2cb6b58630ce10242fcbccd575097553a326e2991d366612595ffffffff03d09948090000000017a9147bdecdac859837770d977e3954b898fc3ea9cafe87e0fb1d010000000017a914f22a8a3c03072f9ec80a9ac500a1ad4b3898501e8707b700000000000017a914c455e8a66de81c3400447695d0de265a35693c838704004730440220510026ec8335bf82204e1ae72c2540a21512d075c91ab29fbe56be0e78290616022067d4cb100b5b38862e69ea7350b1169181b02fdb1af89b3994d23ff06ed15c1001483045022100de8d3e6c5ab3b7d34b0475f59d2d742b4a0e1f6b64573151bfa9c04e4897a9be022015ac87235977f752845d30270fa2fccd91a3279b36a744a945ad9f1a6e3686ad0169522103c0a409c21ad4f255c5e75e1541b6ea93f6405841db84bcd02f505f5565dcf5a4210306c1ea2f6c106ad4cb086a4c37ab5cf319fb2e48a9f88a9a0a66ac233537d77e2103afdda8e10d0981e872b1679874ccc9b08608f9f378ce455298dd0f945396788d53ae00000000", "vin": [{"txinwitness": ["", "30440220510026ec8335bf82204e1ae72c2540a21512d075c91ab29fbe56be0e78290616022067d4cb100b5b38862e69ea7350b1169181b02fdb1af89b3994d23ff06ed15c1001", "3045022100de8d3e6c5ab3b7d34b0475f59d2d742b4a0e1f6b64573151bfa9c04e4897a9be022015ac87235977f752845d30270fa2fccd91a3279b36a744a945ad9f1a6e3686ad01", "522103c0a409c21ad4f255c5e75e1541b6ea93f6405841db84bcd02f505f5565dcf5a4210306c1ea2f6c106ad4cb086a4c37ab5cf319fb2e48a9f88a9a0a66ac233537d77e2103afdda8e10d0981e872b1679874ccc9b08608f9f378ce455298dd0f945396788d53ae"], "sequence": 4294967295, "scriptSig": {"hex": "220020b57395f1b9f7f2cb6b58630ce10242fcbccd575097553a326e2991d366612595", "asm": "0020b57395f1b9f7f2cb6b58630ce10242fcbccd575097553a326e2991d366612595"}, "vout": 1, "txid": "6d5edb82cb42c831621f9bfdb75b11b4429f594ef47310ddc55f1e6414d559c9"}], "txid": "fe3e860647ff37eea1a7a0a25a3fa7bffeab80a162be7b1c9269b481a1babdea", "blocktime": 1537871767, "version": 1, "confirmations": 11494, "time": 1537871767, "locktime": 0, "vsize": 246, "size": 437}