{"hash": "1751717c2e40839d220b3803e3771166ae55888c7bd44f806b8ef795c918cf32", "blockhash": "0000000000000000001cda96e906b7601b7a6fb1a3b62bca570a9e5d8f4b3de1", "vout": [{"scriptPubKey": {"reqSigs": 1, "hex": "76a9149a1b8f9b1fa2d2297863adb1cb11c71df455684888ac", "addresses": ["1F3r5We2zwNiSzG6GQUTTWnnPMCz2HJbJu"], "asm": "OP_DUP OP_HASH160 9a1b8f9b1fa2d2297863adb1cb11c71df4556848 OP_EQUALVERIFY OP_CHECKSIG", "type": "pubkeyhash"}, "value": 2.713e-05, "n": 0}, {"scriptPubKey": {"reqSigs": 1, "hex": "a914e8db75c900cf08f06518e96d167331f2a4abfb3387", "addresses": ["3NvFbQMAkkqEFj4i1sYPPLkSWzxTFUchjA"], "asm": "OP_HASH160 e8db75c900cf08f06518e96d167331f2a4abfb33 OP_EQUAL", "type": "scripthash"}, "value": 0.00146579, "n": 1}], "hex": "0100000000010146e949bf32845b03202e514562ac09d943fbb7925941f9d8e8e95eb703f9ab3e0100000023220020941cfaff8837763dc1f69ff82b6d6553fdea17a41cfc29a04403293eedd8ccc7ffffffff02990a0000000000001976a9149a1b8f9b1fa2d2297863adb1cb11c71df455684888ac933c02000000000017a914e8db75c900cf08f06518e96d167331f2a4abfb33870400483045022100f32989e79a4c61226061d2b480014d3424842e2840fc7e66cc05774da6a74cda022021c02972a37a157cf16ad280deb1fc8a75223d7d0cae68bdd4fbffa1a35bd24601483045022100b913ec747342224c19b954137fea8025dda1f7669e5cfbe5fdaf8c417290ade902203f732ca68482b918bc09859e3176aa5f4278c9c51c22c0ab661234670684fe300147522102531db3a5883f29bab4241dd0cd726936667bcda445d89bdd22244e828b6993342103148c80a5bdfddb05ff5bcffc397c8ca748d8b435ec6a175bc9d7bfc7fc6f853752ae00000000", "vin": [{"txinwitness": ["", "3045022100f32989e79a4c61226061d2b480014d3424842e2840fc7e66cc05774da6a74cda022021c02972a37a157cf16ad280deb1fc8a75223d7d0cae68bdd4fbffa1a35bd24601", "3045022100b913ec747342224c19b954137fea8025dda1f7669e5cfbe5fdaf8c417290ade902203f732ca68482b918bc09859e3176aa5f4278c9c51c22c0ab661234670684fe3001", "522102531db3a5883f29bab4241dd0cd726936667bcda445d89bdd22244e828b6993342103148c80a5bdfddb05ff5bcffc397c8ca748d8b435ec6a175bc9d7bfc7fc6f853752ae"], "sequence": 4294967295, "scriptSig": {"hex": "220020941cfaff8837763dc1f69ff82b6d6553fdea17a41cfc29a04403293eedd8ccc7", "asm": "0020941cfaff8837763dc1f69ff82b6d6553fdea17a41cfc29a04403293eedd8ccc7"}, "vout": 1, "txid": "3eabf903b75ee9e8d8f9415992b7fb43d909ac6245512e20035b8432bf49e946"}], "txid": "fe41b895f081de813794a6e81baf282d1bcff087b40d028a1970b7ce43391404", "blocktime": 1537873282, "version": 1, "confirmations": 11484, "time": 1537873282, "locktime": 0, "vsize": 208, "size": 374}