{"hash": "fe42e15cb15f20164e0ff0f5595337b1c445f5ca229b498d893246c4550ee096", "blockhash": "0000000000000000000dcc0f55137456b1a82d3642486a52398922ac4d620174", "vout": [{"scriptPubKey": {"reqSigs": 1, "hex": "76a9144298ba6f54a710d6ebe33e323164bdf6f06bb84c88ac", "addresses": ["1758ZQaFnCGEuw5FMUdgyZfBqGVsKx3uz5"], "asm": "OP_DUP OP_HASH160 4298ba6f54a710d6ebe33e323164bdf6f06bb84c OP_EQUALVERIFY OP_CHECKSIG", "type": "pubkeyhash"}, "value": 0.02987249, "n": 0}, {"scriptPubKey": {"reqSigs": 1, "hex": "76a914032bf25180daf911155cf530316957ae527594d288ac", "addresses": ["1Hmg35Er2CMfEJfPCD8CgZfyLiTH5ksF3"], "asm": "OP_DUP OP_HASH160 032bf25180daf911155cf530316957ae527594d2 OP_EQUALVERIFY OP_CHECKSIG", "type": "pubkeyhash"}, "value": 0.10588953, "n": 1}], "hex": "01000000017c6336257acb0244bebba2532e37deb9c295d4ce43bc6e89b2dbb643eee3f728010000006b483045022100fba7cb91da6aac9166e86b6a4b7b35a03ac3f47d1a66d080ff8b3578353a076702207cdc1bf6b52283faa74b04a4e1392142a7e73d4e51db0f979af1973e691ca3b40121034d684793d4471503b59768077e3994ba0374317d4490a915faa37a6bed19c08affffffff02f1942d00000000001976a9144298ba6f54a710d6ebe33e323164bdf6f06bb84c88ac1993a100000000001976a914032bf25180daf911155cf530316957ae527594d288ac00000000", "vin": [{"sequence": 4294967295, "scriptSig": {"hex": "483045022100fba7cb91da6aac9166e86b6a4b7b35a03ac3f47d1a66d080ff8b3578353a076702207cdc1bf6b52283faa74b04a4e1392142a7e73d4e51db0f979af1973e691ca3b40121034d684793d4471503b59768077e3994ba0374317d4490a915faa37a6bed19c08a", "asm": "3045022100fba7cb91da6aac9166e86b6a4b7b35a03ac3f47d1a66d080ff8b3578353a076702207cdc1bf6b52283faa74b04a4e1392142a7e73d4e51db0f979af1973e691ca3b4[ALL] 034d684793d4471503b59768077e3994ba0374317d4490a915faa37a6bed19c08a"}, "vout": 1, "txid": "28f7e3ee43b6dbb2896ebc43ced495c2b9de372e53a2bbbe4402cb7a2536637c"}], "txid": "fe42e15cb15f20164e0ff0f5595337b1c445f5ca229b498d893246c4550ee096", "blocktime": 1537870268, "version": 1, "confirmations": 11517, "time": 1537870268, "locktime": 0, "vsize": 226, "size": 226}