{"hash": "fe4425dc4d448e9a4b1a41b25b4357140c929ed2e24ff0d7784891fe0945c051", "blockhash": "0000000000000000001f76057863aec43deb6fa401d9628bb513d65a8098bfab", "vout": [{"scriptPubKey": {"reqSigs": 1, "hex": "76a9144831f6c6c164b784715c21986f4826a0fe6d0d6a88ac", "addresses": ["17ajWNRLpEKPMtKTLwLJiV6ecT3ycpK7bi"], "asm": "OP_DUP OP_HASH160 4831f6c6c164b784715c21986f4826a0fe6d0d6a OP_EQUALVERIFY OP_CHECKSIG", "type": "pubkeyhash"}, "value": 0.05077405, "n": 0}], "hex": "0100000001b414b6e438a612cc3988b316a4393aca0ea007a5cd8ff2596c2e02baa8576303010000006b483045022100af22d2e53f9833fdf7dcb9ee8a7bcd11e993e1af0326a84634ccbd91f861ec32022009089d7c723db193e33ae67d6e3f876ac2bdd8c1285d6221743add3e94cde5460121030c35262e4dbb192a746e541d67cb6776d0e93942661ea86db1ee3dd274726ca3ffffffff019d794d00000000001976a9144831f6c6c164b784715c21986f4826a0fe6d0d6a88ac00000000", "vin": [{"sequence": 4294967295, "scriptSig": {"hex": "483045022100af22d2e53f9833fdf7dcb9ee8a7bcd11e993e1af0326a84634ccbd91f861ec32022009089d7c723db193e33ae67d6e3f876ac2bdd8c1285d6221743add3e94cde5460121030c35262e4dbb192a746e541d67cb6776d0e93942661ea86db1ee3dd274726ca3", "asm": "3045022100af22d2e53f9833fdf7dcb9ee8a7bcd11e993e1af0326a84634ccbd91f861ec32022009089d7c723db193e33ae67d6e3f876ac2bdd8c1285d6221743add3e94cde546[ALL] 030c35262e4dbb192a746e541d67cb6776d0e93942661ea86db1ee3dd274726ca3"}, "vout": 1, "txid": "036357a8ba022e6c59f28fcda507a00eca3a39a416b38839cc12a638e4b614b4"}], "txid": "fe4425dc4d448e9a4b1a41b25b4357140c929ed2e24ff0d7784891fe0945c051", "blocktime": 1537873891, "version": 1, "confirmations": 11475, "time": 1537873891, "locktime": 0, "vsize": 192, "size": 192}