{"hash": "2be75f4f738fa409b3d9833444342ad61ac2a002dfd331edff2fd094564ecc08", "blockhash": "00000000000000000017f5eb5941039fbcee6240d03bc1f2f8e35350df66a1d8", "vout": [{"scriptPubKey": {"reqSigs": 1, "hex": "a91477ba435339ac6786a999583bcd9c6cb3b79541b687", "addresses": ["3Cc5U9hvCTwWjcRwWeLy7XDT7eGTQkaHCm"], "asm": "OP_HASH160 77ba435339ac6786a999583bcd9c6cb3b79541b6 OP_EQUAL", "type": "scripthash"}, "value": 0.0024646, "n": 0}, {"scriptPubKey": {"reqSigs": 1, "hex": "a91482adb27a25f673419c6108528b59c41903f9c63787", "addresses": ["3DbyrAzZFUyd4CQntxawrYXhMjf7G7rYwK"], "asm": "OP_HASH160 82adb27a25f673419c6108528b59c41903f9c637 OP_EQUAL", "type": "scripthash"}, "value": 0.01000295, "n": 1}], "hex": "0200000000010259226881d291409f0e54a767691097a1fff9549042e4a686b9ea58c1de776257000000001716001481663cccc476efece0296f28c5708ad7b1130111feffffff63a59247bf448697908e8e400ab2611c02668bc25d1853e0fbc8d12952864eca0b0000001716001466d04820ffe875b73e7e2393071aa4fa5178e66efeffffff02bcc203000000000017a91477ba435339ac6786a999583bcd9c6cb3b79541b68767430f000000000017a91482adb27a25f673419c6108528b59c41903f9c637870247304402201f43166594d6aadbda1d70b5fe38f14a1f4f5528938c5167dadb53c923e8dbe602203338ffc53a8bfa7d8d05d516eec2e6577da3b1e5a664bd80cc404f9964d0fee501210386bff2533101047d083d164a07a447cc0daec4c0c420d6bb8cb4cab8236cd757024730440220590460aed84f19f21f2b3ad2969569331e1c9af08f3ebd5b1c265697f882aadf022037b01514de45d9608c65367a4454bf75bc9659dc350322fa0b8b37c3f68b98df0121024b16451c1ffd533b8816de24c300fa1d871be649324d7a3fc711af9fb054831415490800", "vin": [{"txinwitness": ["304402201f43166594d6aadbda1d70b5fe38f14a1f4f5528938c5167dadb53c923e8dbe602203338ffc53a8bfa7d8d05d516eec2e6577da3b1e5a664bd80cc404f9964d0fee501", "0386bff2533101047d083d164a07a447cc0daec4c0c420d6bb8cb4cab8236cd757"], "sequence": 4294967294, "scriptSig": {"hex": "16001481663cccc476efece0296f28c5708ad7b1130111", "asm": "001481663cccc476efece0296f28c5708ad7b1130111"}, "vout": 0, "txid": "576277dec158eab986a6e4429054f9ffa197106967a7540e9f4091d281682259"}, {"txinwitness": ["30440220590460aed84f19f21f2b3ad2969569331e1c9af08f3ebd5b1c265697f882aadf022037b01514de45d9608c65367a4454bf75bc9659dc350322fa0b8b37c3f68b98df01", "024b16451c1ffd533b8816de24c300fa1d871be649324d7a3fc711af9fb0548314"], "sequence": 4294967294, "scriptSig": {"hex": "16001466d04820ffe875b73e7e2393071aa4fa5178e66e", "asm": "001466d04820ffe875b73e7e2393071aa4fa5178e66e"}, "vout": 11, "txid": "ca4e865229d1c8fbe053185dc28b66021c61b20a408e8e90978644bf4792a563"}], "txid": "fe4fd2940c63a44c159a85cceeec2f28a1f1d36f54f366d6106304df196ab9b2", "blocktime": 1537874412, "version": 2, "confirmations": 11468, "time": 1537874412, "locktime": 542997, "vsize": 256, "size": 418}