{"hash": "b74e979535a6e512b51a4065bd61373e59a72ad28d3d86c990ba466f8248c4a9", "blockhash": "00000000000000000004ffacab907a6b429b9a5745fa0b75af4234bf69dd7176", "vout": [{"scriptPubKey": {"reqSigs": 1, "hex": "76a9145ea8718bed466a639713c298b954d51464b9ece288ac", "addresses": ["19dWJhHGonECXvBEvSqSTwUEaPrcCrstPX"], "asm": "OP_DUP OP_HASH160 5ea8718bed466a639713c298b954d51464b9ece2 OP_EQUALVERIFY OP_CHECKSIG", "type": "pubkeyhash"}, "value": 2.423e-05, "n": 0}, {"scriptPubKey": {"reqSigs": 1, "hex": "a9145fd6ccf3fa4f5e40b590aac3f24664f0653a71dc87", "addresses": ["3ARmSNhAYCtKywjSMAxYdagMtKiGcdVuY2"], "asm": "OP_HASH160 5fd6ccf3fa4f5e40b590aac3f24664f0653a71dc OP_EQUAL", "type": "scripthash"}, "value": 0.00771895, "n": 1}], "hex": "0100000000010190a2ac92977156f0eaaa0f00aa0e9bd327ba73abdc3501fa83a2cb426406e61101000000232200206594052309991fbaf27880f6c24f3eaa8cdd7edacf1bc50579894b9e3fe7faccffffffff0277090000000000001976a9145ea8718bed466a639713c298b954d51464b9ece288ac37c70b000000000017a9145fd6ccf3fa4f5e40b590aac3f24664f0653a71dc87040047304402207ef32c72f8bca6f2b4fb26b5754d7dc75b2da8ecf9bd3045169c312dbf32647102200be0a26dcd585a580a8a51d833afe0724a555709219d08ffcf04a46973754ab201483045022100c8b33079829e50cab24f5dd5cc30114257b24f3c8d19ff7b0c378bd4f2b7ade1022068feb2f2a553e595bb0288c9602e046e183b6cd42f947eac88844847d6d432400147522102762a59cc11c9e209028b4fdb72709e323a3db710158b03d150a252f3d53009582103148c80a5bdfddb05ff5bcffc397c8ca748d8b435ec6a175bc9d7bfc7fc6f853752ae00000000", "vin": [{"txinwitness": ["", "304402207ef32c72f8bca6f2b4fb26b5754d7dc75b2da8ecf9bd3045169c312dbf32647102200be0a26dcd585a580a8a51d833afe0724a555709219d08ffcf04a46973754ab201", "3045022100c8b33079829e50cab24f5dd5cc30114257b24f3c8d19ff7b0c378bd4f2b7ade1022068feb2f2a553e595bb0288c9602e046e183b6cd42f947eac88844847d6d4324001", "522102762a59cc11c9e209028b4fdb72709e323a3db710158b03d150a252f3d53009582103148c80a5bdfddb05ff5bcffc397c8ca748d8b435ec6a175bc9d7bfc7fc6f853752ae"], "sequence": 4294967295, "scriptSig": {"hex": "2200206594052309991fbaf27880f6c24f3eaa8cdd7edacf1bc50579894b9e3fe7facc", "asm": "00206594052309991fbaf27880f6c24f3eaa8cdd7edacf1bc50579894b9e3fe7facc"}, "vout": 1, "txid": "11e6066442cba283fa0135dcab73ba27d39b0eaa000faaeaf056719792aca290"}], "txid": "fe52e044d3a2e4da8d03664e0b971e15ebced483d273234cd29641179b6aa2d9", "blocktime": 1537875543, "version": 1, "confirmations": 11464, "time": 1537875543, "locktime": 0, "vsize": 208, "size": 373}