{"hash": "fe5dd75e69a5364ef44e78d1fa22d8d4aab45a03ab247bfb03e808bf46eaee23", "blockhash": "0000000000000000001cda96e906b7601b7a6fb1a3b62bca570a9e5d8f4b3de1", "vout": [{"scriptPubKey": {"reqSigs": 1, "hex": "76a914867722ea67475ae6f2a0c22c8492e27d0fadfed988ac", "addresses": ["1DFzGSukuEuQyiJioJwk9p2VChXdBc1DvZ"], "asm": "OP_DUP OP_HASH160 867722ea67475ae6f2a0c22c8492e27d0fadfed9 OP_EQUALVERIFY OP_CHECKSIG", "type": "pubkeyhash"}, "value": 0.0029755, "n": 0}, {"scriptPubKey": {"reqSigs": 1, "hex": "76a914165c8cb6997e5abc251b88fd37665650b1772f2388ac", "addresses": ["133EjgeBVUg8nTBNgxwJQ2m5vsF7TXTXoa"], "asm": "OP_DUP OP_HASH160 165c8cb6997e5abc251b88fd37665650b1772f23 OP_EQUALVERIFY OP_CHECKSIG", "type": "pubkeyhash"}, "value": 0.01733072, "n": 1}], "hex": "0100000001a9336597e33e0621a4baa91cc209c2847a07ddb74a81a774344140cbd9b5959b000000006b483045022100dd8bda822edb34e19fec865b04f8d61cbb41598c3e2dd68f23bd37e821025f44022047f7e2804c1f4cf971c77929a50a187005a6bd1189d19cb6cc3a81a34d185f22012102a5ccdca20ef5d35cf7c2f6dae71d1810c275d3eee11b12b0760efbfb37e30239ffffffff024e8a0400000000001976a914867722ea67475ae6f2a0c22c8492e27d0fadfed988acd0711a00000000001976a914165c8cb6997e5abc251b88fd37665650b1772f2388ac00000000", "vin": [{"sequence": 4294967295, "scriptSig": {"hex": "483045022100dd8bda822edb34e19fec865b04f8d61cbb41598c3e2dd68f23bd37e821025f44022047f7e2804c1f4cf971c77929a50a187005a6bd1189d19cb6cc3a81a34d185f22012102a5ccdca20ef5d35cf7c2f6dae71d1810c275d3eee11b12b0760efbfb37e30239", "asm": "3045022100dd8bda822edb34e19fec865b04f8d61cbb41598c3e2dd68f23bd37e821025f44022047f7e2804c1f4cf971c77929a50a187005a6bd1189d19cb6cc3a81a34d185f22[ALL] 02a5ccdca20ef5d35cf7c2f6dae71d1810c275d3eee11b12b0760efbfb37e30239"}, "vout": 0, "txid": "9b95b5d9cb40413474a7814ab7dd077a84c209c21ca9baa421063ee3976533a9"}], "txid": "fe5dd75e69a5364ef44e78d1fa22d8d4aab45a03ab247bfb03e808bf46eaee23", "blocktime": 1537873282, "version": 1, "confirmations": 11484, "time": 1537873282, "locktime": 0, "vsize": 226, "size": 226}