{"hash": "91cf6e3e88d9828a66a0495ddbd89085c72ce66729f6d94a3f1e965b80761bbf", "blockhash": "00000000000000000017f5eb5941039fbcee6240d03bc1f2f8e35350df66a1d8", "vout": [{"scriptPubKey": {"reqSigs": 1, "hex": "76a914cec0da66523c846bc3d73f2bf9f6332a02f9071388ac", "addresses": ["1KrDEBr8qM7HQqVUHA9DMt97mXt4UiPCoj"], "asm": "OP_DUP OP_HASH160 cec0da66523c846bc3d73f2bf9f6332a02f90713 OP_EQUALVERIFY OP_CHECKSIG", "type": "pubkeyhash"}, "value": 0.0168794, "n": 0}, {"scriptPubKey": {"reqSigs": 1, "hex": "a9141eaf8986a74fcf064082d3956c941ee5a8415a4e87", "addresses": ["34VGUqYwtq5FBtYGgeSXGEJe98JeiHFqd5"], "asm": "OP_HASH160 1eaf8986a74fcf064082d3956c941ee5a8415a4e OP_EQUAL", "type": "scripthash"}, "value": 0.01002428, "n": 1}], "hex": "02000000000102507ec6f57dcb91925fe032b8af48a9184578d86a4aa9769e9756c263646c49870000000017160014f268ca89826c7ba96c054be9229846994bc47d9cfdffffff7fd2305617498c293115b185ea45f0b55b80794288a5da34362fc9ca2718f9c300000000171600147b96a1e8f010df9a96b71425fdc048eeb8df1e32fdffffff0284c11900000000001976a914cec0da66523c846bc3d73f2bf9f6332a02f9071388acbc4b0f000000000017a9141eaf8986a74fcf064082d3956c941ee5a8415a4e8702473044022059f1723feab661021364e5d329626a906306f254d2ca822be9de0dcb51605bb10220198d99176a0de1dd171ed92d706094c29152472597e414de604e8ec55db3360901210346b9662066ffa09e1f81ab5ef549ef5762dd883ed24048502bef6311d9f5a05b0247304402207ef6903197f057309c5203933932408ae8d0125d0461ae4eefb68ffcea63a95a0220618cbbe173993c1b79c1de49f41311466fdc0b25de606d9ce567430bc07d6cdd012102fc2b7615a6f3cb4f3eb66088605b995c52fc1aa0b0df73f1301a64588cdbf48615490800", "vin": [{"txinwitness": ["3044022059f1723feab661021364e5d329626a906306f254d2ca822be9de0dcb51605bb10220198d99176a0de1dd171ed92d706094c29152472597e414de604e8ec55db3360901", "0346b9662066ffa09e1f81ab5ef549ef5762dd883ed24048502bef6311d9f5a05b"], "sequence": 4294967293, "scriptSig": {"hex": "160014f268ca89826c7ba96c054be9229846994bc47d9c", "asm": "0014f268ca89826c7ba96c054be9229846994bc47d9c"}, "vout": 0, "txid": "87496c6463c256979e76a94a6ad8784518a948afb832e05f9291cb7df5c67e50"}, {"txinwitness": ["304402207ef6903197f057309c5203933932408ae8d0125d0461ae4eefb68ffcea63a95a0220618cbbe173993c1b79c1de49f41311466fdc0b25de606d9ce567430bc07d6cdd01", "02fc2b7615a6f3cb4f3eb66088605b995c52fc1aa0b0df73f1301a64588cdbf486"], "sequence": 4294967293, "scriptSig": {"hex": "1600147b96a1e8f010df9a96b71425fdc048eeb8df1e32", "asm": "00147b96a1e8f010df9a96b71425fdc048eeb8df1e32"}, "vout": 0, "txid": "c3f91827cac92f3634daa5884279805bb5f045ea85b11531298c49175630d27f"}], "txid": "fe5fd083dafc03632af5b5ad493b7960f2409a789351344831ba079112ba02b5", "blocktime": 1537874412, "version": 2, "confirmations": 11466, "time": 1537874412, "locktime": 542997, "vsize": 258, "size": 420}