{"hash": "f6332691bd0d5b5f8111ddec924a0c3a0b519ec1f4c7f5190c9d6fbcb63d7f43", "blockhash": "00000000000000000018f53835495a110e01622372bf6ae95dc86f2b0ab887b0", "vout": [{"scriptPubKey": {"reqSigs": 1, "hex": "a91449d7e96499e76d96ef877a2fcb98823c8bccba2187", "addresses": ["38RTuMXR3rjgmqC2TwiJHrCLzc9nbGoNw7"], "asm": "OP_HASH160 49d7e96499e76d96ef877a2fcb98823c8bccba21 OP_EQUAL", "type": "scripthash"}, "value": 0.00052574, "n": 0}], "hex": "01000000000101bd0bfc33ea029adcd021f9f2fedfa9ac3c1c5c1b1086e9eb432c917ee590b20803000000171600140b94610642505d7374e07a7227451a29b18eb52fffffffff015ecd00000000000017a91449d7e96499e76d96ef877a2fcb98823c8bccba2187024730440220680d7e15f777a7951496560610137f34eafeb229610c84c400c01af57414ae1b022075572cb0f8ea08ddb5df67871164efcb1817f6bc4976020c0de3735eebc27ec0012102d242f04c55f9e98da1adbec96d7c24488e2b475e37d638aa9a2a4c09346264fe00000000", "vin": [{"txinwitness": ["30440220680d7e15f777a7951496560610137f34eafeb229610c84c400c01af57414ae1b022075572cb0f8ea08ddb5df67871164efcb1817f6bc4976020c0de3735eebc27ec001", "02d242f04c55f9e98da1adbec96d7c24488e2b475e37d638aa9a2a4c09346264fe"], "sequence": 4294967295, "scriptSig": {"hex": "1600140b94610642505d7374e07a7227451a29b18eb52f", "asm": "00140b94610642505d7374e07a7227451a29b18eb52f"}, "vout": 3, "txid": "08b290e57e912c43ebe986101b5c1c3caca9dffef2f921d0dc9a02ea33fc0bbd"}], "txid": "fe6515b98d16f6e4d94b2725dcbd1a5682fc36b58f8f6e5be60c427d5f30908d", "blocktime": 1537870928, "version": 1, "confirmations": 11514, "time": 1537870928, "locktime": 0, "vsize": 134, "size": 215}