{"hash": "fe67bad98ef5872b9056d04357803d650af334ea5b52a2bbedc3a0b9e8e9c81b", "blockhash": "0000000000000000000e13cef7c366c0283d82e591d1acd082e914b08063cdf1", "vout": [{"scriptPubKey": {"reqSigs": 1, "hex": "a91435d4e79b453e1e6cc9103aaa6ad3d5aaace8ea2987", "addresses": ["36benb9Y7SVdCLZBWbRjtKh3EyBrUf27tE"], "asm": "OP_HASH160 35d4e79b453e1e6cc9103aaa6ad3d5aaace8ea29 OP_EQUAL", "type": "scripthash"}, "value": 0.21067748, "n": 0}], "hex": "0100000001c0a95c0e11687edbb713aa91c06cb95d656bb6dccc3104bf1d3f47b1a7489a36000000006a47304402205842764f311dd8913d2577abb46be7a5e9c8231ddc5001192845856d09649ad702202bed498db8dda15b64d7c4327cac2827f5460f2a6708536f0843474c2283f8ef01210238db8b077b7cb652766df32f464a4b089b274df9646dc926f9aacd5b4a84c603fdffffff01e47741010000000017a91435d4e79b453e1e6cc9103aaa6ad3d5aaace8ea298710490800", "vin": [{"sequence": 4294967293, "scriptSig": {"hex": "47304402205842764f311dd8913d2577abb46be7a5e9c8231ddc5001192845856d09649ad702202bed498db8dda15b64d7c4327cac2827f5460f2a6708536f0843474c2283f8ef01210238db8b077b7cb652766df32f464a4b089b274df9646dc926f9aacd5b4a84c603", "asm": "304402205842764f311dd8913d2577abb46be7a5e9c8231ddc5001192845856d09649ad702202bed498db8dda15b64d7c4327cac2827f5460f2a6708536f0843474c2283f8ef[ALL] 0238db8b077b7cb652766df32f464a4b089b274df9646dc926f9aacd5b4a84c603"}, "vout": 0, "txid": "369a48a7b1473f1dbf0431ccdcb66b655db96cc091aa13b7db7e68110e5ca9c0"}], "txid": "fe67bad98ef5872b9056d04357803d650af334ea5b52a2bbedc3a0b9e8e9c81b", "blocktime": 1537871767, "version": 1, "confirmations": 11493, "time": 1537871767, "locktime": 542992, "vsize": 189, "size": 189}