{"hash": "49e1558cdfc921d09aaaa87c1707eabae8547516583e25489747092e020f515c", "blockhash": "0000000000000000001cda96e906b7601b7a6fb1a3b62bca570a9e5d8f4b3de1", "vout": [{"scriptPubKey": {"reqSigs": 1, "hex": "001407d65d632611aceaeefdc423f590cbd5afe3b7a4", "addresses": ["bc1qqlt96cexzxkw4mhacs3ltyxt6kh78dayg3x8sl"], "asm": "0 07d65d632611aceaeefdc423f590cbd5afe3b7a4", "type": "witness_v0_keyhash"}, "value": 0.00788463, "n": 0}, {"scriptPubKey": {"reqSigs": 1, "hex": "a9147292afa466f7862d66c04af736a22a142d4ce13287", "addresses": ["3C8pgLm24HqUYvGT9oGHMfi6dcRDAEavzt"], "asm": "OP_HASH160 7292afa466f7862d66c04af736a22a142d4ce132 OP_EQUAL", "type": "scripthash"}, "value": 0.03114193, "n": 1}], "hex": "0100000000010149aeb2b27fff291d1d3e0738c6dcc7c10af9246a06fed99bf18577e66c2650900100000017160014420f3465a9b3c25dc466b13bf2294befdf4b27c3ffffffff02ef070c000000000016001407d65d632611aceaeefdc423f590cbd5afe3b7a4d1842f000000000017a9147292afa466f7862d66c04af736a22a142d4ce13287024730440220088002ae16759a6d7dbc139fdae66f3612bfe6a9dd3a011e101839a63767ad8302206e08464fb58ceb4a49c21011312c9f80068e07e1624291b4fc141c75c86e7421012102e5cb4e60bba4d605af80ff2d0c22edb93a661e1c50e0bcf8f40834d9af4302ed00000000", "vin": [{"txinwitness": ["30440220088002ae16759a6d7dbc139fdae66f3612bfe6a9dd3a011e101839a63767ad8302206e08464fb58ceb4a49c21011312c9f80068e07e1624291b4fc141c75c86e742101", "02e5cb4e60bba4d605af80ff2d0c22edb93a661e1c50e0bcf8f40834d9af4302ed"], "sequence": 4294967295, "scriptSig": {"hex": "160014420f3465a9b3c25dc466b13bf2294befdf4b27c3", "asm": "0014420f3465a9b3c25dc466b13bf2294befdf4b27c3"}, "vout": 1, "txid": "9050266ce67785f19bd9fe066a24f90ac1c7dcc638073e1d1d29ff7fb2b2ae49"}], "txid": "fe6e201b16a04de1885875c9d95a10afe85a45a00891a511f03d251f3d5530c4", "blocktime": 1537873282, "version": 1, "confirmations": 11484, "time": 1537873282, "locktime": 0, "vsize": 165, "size": 246}