{"hash": "fe6f0794b62807a2368edf5815055f4eec5dd3c311f35c557eae56886ab2c8d4", "blockhash": "00000000000000000018f53835495a110e01622372bf6ae95dc86f2b0ab887b0", "vout": [{"scriptPubKey": {"reqSigs": 1, "hex": "76a9147af6da660f51d69ddc5735af1b6aa5b1ccb4677b88ac", "addresses": ["1CDBA4Qgcocfp8n3EZiXegFASQWMJfywNs"], "asm": "OP_DUP OP_HASH160 7af6da660f51d69ddc5735af1b6aa5b1ccb4677b OP_EQUALVERIFY OP_CHECKSIG", "type": "pubkeyhash"}, "value": 0.005, "n": 0}, {"scriptPubKey": {"reqSigs": 1, "hex": "76a9145dfa0584ca06f47944f39f7935cda3d97f01d37888ac", "addresses": ["19ZuMeGfp9b1zt8aEq8FLiydYxP18CJVdS"], "asm": "OP_DUP OP_HASH160 5dfa0584ca06f47944f39f7935cda3d97f01d378 OP_EQUALVERIFY OP_CHECKSIG", "type": "pubkeyhash"}, "value": 0.04507867, "n": 1}], "hex": "01000000018deb85c1b41d4a2661b7b8064c71dfee592286fece76cd9c47140b84de995d2f010000006b483045022100a072f302eb472c4acc5c671104d1a682b3973c67a67386121a9025ff04a58eda022044093b7c7832e0a8ffb3e29b77e64b5d319f51fdbd698a8a0f30d533ca5c7101012103ad3c461ea015600c437b8979795d44f6adde68cbe3fe1aa7947232f338a8f633ffffffff0220a10700000000001976a9147af6da660f51d69ddc5735af1b6aa5b1ccb4677b88acdbc84400000000001976a9145dfa0584ca06f47944f39f7935cda3d97f01d37888ac00000000", "vin": [{"sequence": 4294967295, "scriptSig": {"hex": "483045022100a072f302eb472c4acc5c671104d1a682b3973c67a67386121a9025ff04a58eda022044093b7c7832e0a8ffb3e29b77e64b5d319f51fdbd698a8a0f30d533ca5c7101012103ad3c461ea015600c437b8979795d44f6adde68cbe3fe1aa7947232f338a8f633", "asm": "3045022100a072f302eb472c4acc5c671104d1a682b3973c67a67386121a9025ff04a58eda022044093b7c7832e0a8ffb3e29b77e64b5d319f51fdbd698a8a0f30d533ca5c7101[ALL] 03ad3c461ea015600c437b8979795d44f6adde68cbe3fe1aa7947232f338a8f633"}, "vout": 1, "txid": "2f5d99de840b14479ccd76cefe862259eedf714c06b8b761264a1db4c185eb8d"}], "txid": "fe6f0794b62807a2368edf5815055f4eec5dd3c311f35c557eae56886ab2c8d4", "blocktime": 1537870928, "version": 1, "confirmations": 11514, "time": 1537870928, "locktime": 0, "vsize": 226, "size": 226}