{"hash": "fe7757dab45f6bd356d917ac05ded98b9c4a02ed89e217e4beff932bd4d72572", "blockhash": "00000000000000000018f53835495a110e01622372bf6ae95dc86f2b0ab887b0", "vout": [{"scriptPubKey": {"reqSigs": 1, "hex": "76a91439beb8db2cdeed333ce686fa9ff11289ebae6d0e88ac", "addresses": ["16GKzYC3WPnDtHpwZn47grPf1MCrfZKaDo"], "asm": "OP_DUP OP_HASH160 39beb8db2cdeed333ce686fa9ff11289ebae6d0e OP_EQUALVERIFY OP_CHECKSIG", "type": "pubkeyhash"}, "value": 0.00804421, "n": 0}, {"scriptPubKey": {"reqSigs": 1, "hex": "a914bffd02f1a564e7773b5398e1471cd99cf67b0a9f87", "addresses": ["3KCA5jKqj9QF1ryNkav5JfEicQGVpdtmN6"], "asm": "OP_HASH160 bffd02f1a564e7773b5398e1471cd99cf67b0a9f OP_EQUAL", "type": "scripthash"}, "value": 0.00949097, "n": 1}], "hex": "0100000001fbac712ae9c724324c8d810f7a941266c3b1ac219ca59c3ad04053e4d049b517010000006b483045022100968b01741bba491bd6f9ada6a27b9925592bd34b7733071304f03c5b10d345a90220013ab0ad54c2bc59d3e1b427d74929040db1ab01469694095c85640a1043fd2c012103fc4da93caf328cd4ab9e202b04b829b19d19e2fcfa8819b3ffcb0fc4acfa0b8dfdffffff0245460c00000000001976a91439beb8db2cdeed333ce686fa9ff11289ebae6d0e88ac697b0e000000000017a914bffd02f1a564e7773b5398e1471cd99cf67b0a9f870e490800", "vin": [{"sequence": 4294967293, "scriptSig": {"hex": "483045022100968b01741bba491bd6f9ada6a27b9925592bd34b7733071304f03c5b10d345a90220013ab0ad54c2bc59d3e1b427d74929040db1ab01469694095c85640a1043fd2c012103fc4da93caf328cd4ab9e202b04b829b19d19e2fcfa8819b3ffcb0fc4acfa0b8d", "asm": "3045022100968b01741bba491bd6f9ada6a27b9925592bd34b7733071304f03c5b10d345a90220013ab0ad54c2bc59d3e1b427d74929040db1ab01469694095c85640a1043fd2c[ALL] 03fc4da93caf328cd4ab9e202b04b829b19d19e2fcfa8819b3ffcb0fc4acfa0b8d"}, "vout": 1, "txid": "17b549d0e45340d03a9ca59c21acb1c36612947a0f818d4c3224c7e92a71acfb"}], "txid": "fe7757dab45f6bd356d917ac05ded98b9c4a02ed89e217e4beff932bd4d72572", "blocktime": 1537870928, "version": 1, "confirmations": 11512, "time": 1537870928, "locktime": 542990, "vsize": 224, "size": 224}