{"hash": "fe7861dac47a571bc8172575ada640634d4f4cf5d2914eaac8107f1784e4b7c3", "blockhash": "0000000000000000000dcc0f55137456b1a82d3642486a52398922ac4d620174", "vout": [{"scriptPubKey": {"type": "nulldata", "hex": "6a4c500000777100019fbb6c1945afd4bd7a07a7d486aeaeacb577c031fc3a016b46dc7dc7d096d57b0044fceeaf2ace887a27c80c775a5baa090606140e7084a7707d4bbf23acfcfaac8058b692fe6808c31d", "asm": "OP_RETURN 0000777100019fbb6c1945afd4bd7a07a7d486aeaeacb577c031fc3a016b46dc7dc7d096d57b0044fceeaf2ace887a27c80c775a5baa090606140e7084a7707d4bbf23acfcfaac8058b692fe6808c31d"}, "value": 0.0, "n": 0}, {"scriptPubKey": {"reqSigs": 1, "hex": "76a914a690d11b872d894c9c29423fd08d809e0896025988ac", "addresses": ["1GBietpCPamTkKMUMud9XB7eiDMLrb96Jc"], "asm": "OP_DUP OP_HASH160 a690d11b872d894c9c29423fd08d809e08960259 OP_EQUALVERIFY OP_CHECKSIG", "type": "pubkeyhash"}, "value": 0.00029575, "n": 1}], "hex": "0100000001cca1f73bac15effe2e523f72c08db22322e36ac3e8e7786db2f00a382a45ee02010000006b483045022100fec3f319c5af684dabfaee40616c8cb74b4e0b995db9e7655be16a0d069e68a1022069b339ed01c0a3eb466021a8a5f39dd0db28727ccd88d703d4b1eaada3b0b9d2012103d020d412085240bc33b2ae5a94bd6e6b331a951b7818afbc8aa45ed9244b3ca2ffffffff020000000000000000536a4c500000777100019fbb6c1945afd4bd7a07a7d486aeaeacb577c031fc3a016b46dc7dc7d096d57b0044fceeaf2ace887a27c80c775a5baa090606140e7084a7707d4bbf23acfcfaac8058b692fe6808c31d87730000000000001976a914a690d11b872d894c9c29423fd08d809e0896025988ac00000000", "vin": [{"sequence": 4294967295, "scriptSig": {"hex": "483045022100fec3f319c5af684dabfaee40616c8cb74b4e0b995db9e7655be16a0d069e68a1022069b339ed01c0a3eb466021a8a5f39dd0db28727ccd88d703d4b1eaada3b0b9d2012103d020d412085240bc33b2ae5a94bd6e6b331a951b7818afbc8aa45ed9244b3ca2", "asm": "3045022100fec3f319c5af684dabfaee40616c8cb74b4e0b995db9e7655be16a0d069e68a1022069b339ed01c0a3eb466021a8a5f39dd0db28727ccd88d703d4b1eaada3b0b9d2[ALL] 03d020d412085240bc33b2ae5a94bd6e6b331a951b7818afbc8aa45ed9244b3ca2"}, "vout": 1, "txid": "02ee452a380af0b26d78e7e8c36ae32223b28dc0723f522efeef15ac3bf7a1cc"}], "txid": "fe7861dac47a571bc8172575ada640634d4f4cf5d2914eaac8107f1784e4b7c3", "blocktime": 1537870268, "version": 1, "confirmations": 11518, "time": 1537870268, "locktime": 0, "vsize": 284, "size": 284}