{"hash": "fe7f8e465b211cdf64841e24ddd54b6bb0a6c01d662fea191d3985c670428bb3", "blockhash": "00000000000000000017f5eb5941039fbcee6240d03bc1f2f8e35350df66a1d8", "vout": [{"scriptPubKey": {"reqSigs": 1, "hex": "76a9142ce1ebd9da38db11c9c0d013397831d6b4668be088ac", "addresses": ["156KNjBB3driG69dyHizwLCitFW86sk7rY"], "asm": "OP_DUP OP_HASH160 2ce1ebd9da38db11c9c0d013397831d6b4668be0 OP_EQUALVERIFY OP_CHECKSIG", "type": "pubkeyhash"}, "value": 0.00030676, "n": 0}, {"scriptPubKey": {"reqSigs": 1, "hex": "76a9149956da60941d5488184fedfa6f69526000889d8c88ac", "addresses": ["1EynS1H9wJwwvSbSekKjZJnAtjTucVE1nc"], "asm": "OP_DUP OP_HASH160 9956da60941d5488184fedfa6f69526000889d8c OP_EQUALVERIFY OP_CHECKSIG", "type": "pubkeyhash"}, "value": 0.01560731, "n": 1}], "hex": "0100000002cff5116201b98fac8e4707e833320aba13d5f972f994e40943454b08694f705e000000006b4830450221009638d082077734d0356403d247201f8328cc29c476b86d8c28f8574fc9a2e6b402200131b650e2084c95a562788a2245fd7c19444122b3a187c9626df6ce7809f5e9012103477d9fba05381c5fc65169ad4a12002118a93b1e5d247b63e9403d3e32486772ffffffff5bfd41d13a160762b965823e4fbeacf1c09b258aacebd9627eab817aca3d8483000000006b483045022100bff525b5c02e755e1cc4abebf0969b57f3c0076824ac4abb3fa92f55421b0826022079b07c5cc308bbf4bfcb05f5ba0624c348ad108c56ba8bdc1ba05eac2b83e998012103387fb868c8d10c0bf90df460e934f66bff18d36534b81e8dfba843c2014623c5ffffffff02d4770000000000001976a9142ce1ebd9da38db11c9c0d013397831d6b4668be088ac9bd01700000000001976a9149956da60941d5488184fedfa6f69526000889d8c88ac00000000", "vin": [{"sequence": 4294967295, "scriptSig": {"hex": "4830450221009638d082077734d0356403d247201f8328cc29c476b86d8c28f8574fc9a2e6b402200131b650e2084c95a562788a2245fd7c19444122b3a187c9626df6ce7809f5e9012103477d9fba05381c5fc65169ad4a12002118a93b1e5d247b63e9403d3e32486772", "asm": "30450221009638d082077734d0356403d247201f8328cc29c476b86d8c28f8574fc9a2e6b402200131b650e2084c95a562788a2245fd7c19444122b3a187c9626df6ce7809f5e9[ALL] 03477d9fba05381c5fc65169ad4a12002118a93b1e5d247b63e9403d3e32486772"}, "vout": 0, "txid": "5e704f69084b454309e494f972f9d513ba0a3233e807478eac8fb9016211f5cf"}, {"sequence": 4294967295, "scriptSig": {"hex": "483045022100bff525b5c02e755e1cc4abebf0969b57f3c0076824ac4abb3fa92f55421b0826022079b07c5cc308bbf4bfcb05f5ba0624c348ad108c56ba8bdc1ba05eac2b83e998012103387fb868c8d10c0bf90df460e934f66bff18d36534b81e8dfba843c2014623c5", "asm": "3045022100bff525b5c02e755e1cc4abebf0969b57f3c0076824ac4abb3fa92f55421b0826022079b07c5cc308bbf4bfcb05f5ba0624c348ad108c56ba8bdc1ba05eac2b83e998[ALL] 03387fb868c8d10c0bf90df460e934f66bff18d36534b81e8dfba843c2014623c5"}, "vout": 0, "txid": "83843dca7a81ab7e62d9ebac8a259bc0f1acbe4f3e8265b96207163ad141fd5b"}], "txid": "fe7f8e465b211cdf64841e24ddd54b6bb0a6c01d662fea191d3985c670428bb3", "blocktime": 1537874412, "version": 1, "confirmations": 11468, "time": 1537874412, "locktime": 0, "vsize": 374, "size": 374}