{"hash": "fe8a6ea6eb4b864b4df06e21e2e80140bc3e2df1645a322702410d4cc0b5c1c4", "blockhash": "00000000000000000018f53835495a110e01622372bf6ae95dc86f2b0ab887b0", "vout": [{"scriptPubKey": {"reqSigs": 1, "hex": "76a914d243e6abb9a60fbff430b421d2df4b7d59ec186088ac", "addresses": ["1LAnF8h3qMGx3TSwNUHVneBZUEpwE4gu3D"], "asm": "OP_DUP OP_HASH160 d243e6abb9a60fbff430b421d2df4b7d59ec1860 OP_EQUALVERIFY OP_CHECKSIG", "type": "pubkeyhash"}, "value": 0.00077314, "n": 0}, {"scriptPubKey": {"reqSigs": 1, "hex": "a9147aa5420cbb45b46c954bf530e82d8d570435128487", "addresses": ["3CsWLGtFqoM2JbBwJsPni5EFiMsH5VPsCd"], "asm": "OP_HASH160 7aa5420cbb45b46c954bf530e82d8d5704351284 OP_EQUAL", "type": "scripthash"}, "value": 5.46e-06, "n": 1}, {"scriptPubKey": {"type": "nulldata", "hex": "6a146f6d6e69000000000000001f00000cf26a77e020", "asm": "OP_RETURN 6f6d6e69000000000000001f00000cf26a77e020"}, "value": 0.0, "n": 2}], "hex": "010000000142d2c499866ccb6b8294f58ad6c5ee94d6492aee7ff303c7c760d6b8fbbd6b94000000006b483045022100f95b0d6cc54268ca616c6bdf107294b616ad55302f663f4f9e342f0ad731ed4402200b9204105d2025ac40822570861de530d166f0ea1531b71a638fde609cead31101210271977291b74f1f5f5c42157e8aae804664eaaeccfd097918450d37f28fb94d77ffffffff03022e0100000000001976a914d243e6abb9a60fbff430b421d2df4b7d59ec186088ac220200000000000017a9147aa5420cbb45b46c954bf530e82d8d5704351284870000000000000000166a146f6d6e69000000000000001f00000cf26a77e02000000000", "vin": [{"sequence": 4294967295, "scriptSig": {"hex": "483045022100f95b0d6cc54268ca616c6bdf107294b616ad55302f663f4f9e342f0ad731ed4402200b9204105d2025ac40822570861de530d166f0ea1531b71a638fde609cead31101210271977291b74f1f5f5c42157e8aae804664eaaeccfd097918450d37f28fb94d77", "asm": "3045022100f95b0d6cc54268ca616c6bdf107294b616ad55302f663f4f9e342f0ad731ed4402200b9204105d2025ac40822570861de530d166f0ea1531b71a638fde609cead311[ALL] 0271977291b74f1f5f5c42157e8aae804664eaaeccfd097918450d37f28fb94d77"}, "vout": 0, "txid": "946bbdfbb8d660c7c703f37fee2a49d694eec5d68af594826bcb6c8699c4d242"}], "txid": "fe8a6ea6eb4b864b4df06e21e2e80140bc3e2df1645a322702410d4cc0b5c1c4", "blocktime": 1537870928, "version": 1, "confirmations": 11512, "time": 1537870928, "locktime": 0, "vsize": 255, "size": 255}