{"hash": "fe8cb37dd0456119dd6bae85f7417cfb946633ed856e1a17526396f59dee1257", "blockhash": "0000000000000000000baef3f32e3676a92c3b2e5da21b426e4f302fc371ce76", "vout": [{"scriptPubKey": {"type": "nulldata", "hex": "6a4c500000783400010a53450cfc10e8d6c32ccfec27b7256b4774d339f6019d6ddc0f1b8ff11780309731b4121d73dcd1c4c53523ba425baa1f680614324c36cb570e1d100759d4ba30d2c37bb011d97e02cf", "asm": "OP_RETURN 0000783400010a53450cfc10e8d6c32ccfec27b7256b4774d339f6019d6ddc0f1b8ff11780309731b4121d73dcd1c4c53523ba425baa1f680614324c36cb570e1d100759d4ba30d2c37bb011d97e02cf"}, "value": 0.0, "n": 0}, {"scriptPubKey": {"reqSigs": 1, "hex": "76a914b56d1576c9050dd780067624f64bda0d332e54d988ac", "addresses": ["1HYHyzyog6dPhj2ggvWEgDDR2tN2DW9U3S"], "asm": "OP_DUP OP_HASH160 b56d1576c9050dd780067624f64bda0d332e54d9 OP_EQUALVERIFY OP_CHECKSIG", "type": "pubkeyhash"}, "value": 0.00629579, "n": 1}], "hex": "01000000019d419235c56274e427ec1f282783bf47cb4c8f1579c87e74568783dc8e8f9bb70000000069463043022076c2ee640919f69231bc753b4c913ab0d28ef4c49eda96def0651f1032caea5f021f2327ddde78e9684bc6517afae13b4c6db0407c8bd60ede92bbddc272011cdf01210226a3330a83c5457012e71abc1e90240012b95315a9cab6c85721aa00b22c5c07ffffffff020000000000000000536a4c500000783400010a53450cfc10e8d6c32ccfec27b7256b4774d339f6019d6ddc0f1b8ff11780309731b4121d73dcd1c4c53523ba425baa1f680614324c36cb570e1d100759d4ba30d2c37bb011d97e02cf4b9b0900000000001976a914b56d1576c9050dd780067624f64bda0d332e54d988ac00000000", "vin": [{"sequence": 4294967295, "scriptSig": {"hex": "463043022076c2ee640919f69231bc753b4c913ab0d28ef4c49eda96def0651f1032caea5f021f2327ddde78e9684bc6517afae13b4c6db0407c8bd60ede92bbddc272011cdf01210226a3330a83c5457012e71abc1e90240012b95315a9cab6c85721aa00b22c5c07", "asm": "3043022076c2ee640919f69231bc753b4c913ab0d28ef4c49eda96def0651f1032caea5f021f2327ddde78e9684bc6517afae13b4c6db0407c8bd60ede92bbddc272011cdf[ALL] 0226a3330a83c5457012e71abc1e90240012b95315a9cab6c85721aa00b22c5c07"}, "vout": 0, "txid": "b79b8f8edc838756747ec879158f4ccb47bf8327281fec27e47462c53592419d"}], "txid": "fe8cb37dd0456119dd6bae85f7417cfb946633ed856e1a17526396f59dee1257", "blocktime": 1537876114, "version": 1, "confirmations": 11462, "time": 1537876114, "locktime": 0, "vsize": 282, "size": 282}