{"hash": "fe8cb566fe12ee51cd976ea18744c4b27c36e88d2b9b4dc0cb73dd489fa33ced", "blockhash": "0000000000000000000e13cef7c366c0283d82e591d1acd082e914b08063cdf1", "vout": [{"scriptPubKey": {"type": "nulldata", "hex": "6a146f6d6e69000000000000001f000000389bea6b80", "asm": "OP_RETURN 6f6d6e69000000000000001f000000389bea6b80"}, "value": 0.0, "n": 0}, {"scriptPubKey": {"reqSigs": 1, "hex": "76a914a25dec4d0011064ef106a983c39c7a540699f22088ac", "addresses": ["1FoWyxwPXuj4C6abqwhjDWdz6D4PZgYRjA"], "asm": "OP_DUP OP_HASH160 a25dec4d0011064ef106a983c39c7a540699f220 OP_EQUALVERIFY OP_CHECKSIG", "type": "pubkeyhash"}, "value": 5.46e-06, "n": 1}, {"scriptPubKey": {"reqSigs": 1, "hex": "76a9143f23904b2f622e2ceff6caa1827902878a79511288ac", "addresses": ["16krB6Gc7kUezjCjPdREyqQohzrovUHvki"], "asm": "OP_DUP OP_HASH160 3f23904b2f622e2ceff6caa1827902878a795112 OP_EQUALVERIFY OP_CHECKSIG", "type": "pubkeyhash"}, "value": 0.00485253, "n": 2}], "hex": "01000000026f74893b0ae8c17b499792e22c773f07ec6bdd5a37d480b00ae1819133dbf1ad020000006b483045022100f5c842de54bf667dad27326762d82aad74aa805296e713ab5305108f13665029022063ef1082767b6f5b8e7626a490b2291cb042690f3e6e654b69d422466bbeea9f0121020ea28e1cad2d9c5f5059ee4a62878075c5ef4dfb9ffbb767876984144c71421afeffffffd59de684c054fd4e9b8b061f3ab85881c420773e19b20d74f80639a98f663b69000000006a47304402200b31180e6c6d441f9790223be9670215f40e0633c77c7ba40f55c0725ef5e92402205f1b48aef8e4c14fca0165dd85009e5be2013a9c35fa768409636fe759a4dcab0121020ea28e1cad2d9c5f5059ee4a62878075c5ef4dfb9ffbb767876984144c71421afeffffff030000000000000000166a146f6d6e69000000000000001f000000389bea6b8022020000000000001976a914a25dec4d0011064ef106a983c39c7a540699f22088ac85670700000000001976a9143f23904b2f622e2ceff6caa1827902878a79511288ac10490800", "vin": [{"sequence": 4294967294, "scriptSig": {"hex": "483045022100f5c842de54bf667dad27326762d82aad74aa805296e713ab5305108f13665029022063ef1082767b6f5b8e7626a490b2291cb042690f3e6e654b69d422466bbeea9f0121020ea28e1cad2d9c5f5059ee4a62878075c5ef4dfb9ffbb767876984144c71421a", "asm": "3045022100f5c842de54bf667dad27326762d82aad74aa805296e713ab5305108f13665029022063ef1082767b6f5b8e7626a490b2291cb042690f3e6e654b69d422466bbeea9f[ALL] 020ea28e1cad2d9c5f5059ee4a62878075c5ef4dfb9ffbb767876984144c71421a"}, "vout": 2, "txid": "adf1db339181e10ab080d4375add6bec073f772ce29297497bc1e80a3b89746f"}, {"sequence": 4294967294, "scriptSig": {"hex": "47304402200b31180e6c6d441f9790223be9670215f40e0633c77c7ba40f55c0725ef5e92402205f1b48aef8e4c14fca0165dd85009e5be2013a9c35fa768409636fe759a4dcab0121020ea28e1cad2d9c5f5059ee4a62878075c5ef4dfb9ffbb767876984144c71421a", "asm": "304402200b31180e6c6d441f9790223be9670215f40e0633c77c7ba40f55c0725ef5e92402205f1b48aef8e4c14fca0165dd85009e5be2013a9c35fa768409636fe759a4dcab[ALL] 020ea28e1cad2d9c5f5059ee4a62878075c5ef4dfb9ffbb767876984144c71421a"}, "vout": 0, "txid": "693b668fa93906f8740db2193e7720c48158b83a1f068b9b4efd54c084e69dd5"}], "txid": "fe8cb566fe12ee51cd976ea18744c4b27c36e88d2b9b4dc0cb73dd489fa33ced", "blocktime": 1537871767, "version": 1, "confirmations": 11495, "time": 1537871767, "locktime": 542992, "vsize": 404, "size": 404}