{"hash": "fe8f549813bbc3f5a0fe179fe8f276ff3a1e36996e296a372dff092021daf159", "blockhash": "0000000000000000001cda96e906b7601b7a6fb1a3b62bca570a9e5d8f4b3de1", "vout": [{"scriptPubKey": {"reqSigs": 1, "hex": "76a91475a11544019bfca6403ca0bfc3022ce32f1fb7a688ac", "addresses": ["1Biy2h8u1TR6PA8XErpxTUv5SWPGFPi7ML"], "asm": "OP_DUP OP_HASH160 75a11544019bfca6403ca0bfc3022ce32f1fb7a6 OP_EQUALVERIFY OP_CHECKSIG", "type": "pubkeyhash"}, "value": 0.00927598, "n": 0}, {"scriptPubKey": {"reqSigs": 1, "hex": "76a914467df6c437c75ac8235f74662c97213c0e7592c388ac", "addresses": ["17RjCZDoFiy23wh4UCYQg4bvf9z7HL4bz7"], "asm": "OP_DUP OP_HASH160 467df6c437c75ac8235f74662c97213c0e7592c3 OP_EQUALVERIFY OP_CHECKSIG", "type": "pubkeyhash"}, "value": 0.09158245, "n": 1}, {"scriptPubKey": {"reqSigs": 1, "hex": "76a914ec0c38ce6c65ce5f76bb70b3091315be331e270a88ac", "addresses": ["1NX77TwTD68SJuiHreUw4it97Di638bBPB"], "asm": "OP_DUP OP_HASH160 ec0c38ce6c65ce5f76bb70b3091315be331e270a OP_EQUALVERIFY OP_CHECKSIG", "type": "pubkeyhash"}, "value": 2.747e-05, "n": 2}], "hex": "02000000028d5daf1a7d0aa1a0e62f7fd5cdda544d187f49a4aed179c60aa5643bbb16fb1f0d0000006a473044022069d0975332526a92d80abf3786374b28ac176b0e44f8526869533a7509f2137402205b240f19f4799f83b790edfe6de122fee739f2f0432a9150c35d4c70e507e809012103ab0aa58736026e6faf148855e1379fc17acf07afc1eedc69dcb569f382ce1eceffffffffd0b0916e999b23c9b9875df75c6cb5d9d5eda66d682ffec5aee5af9d514a88ac010000006a473044022055b2778deb5fed11b4b8ed95476aa557e3debc7f0b99a271fe78c9cbbaf25d9602201f305c07245e773cf607739c5a9b6a9947e3912ce83f9aa65f978ced10cbc1760121031b3c79bb536d1ca7dd78269757f68b2de488465a13950a1e1c0fdac72d21d345ffffffff036e270e00000000001976a91475a11544019bfca6403ca0bfc3022ce32f1fb7a688ac65be8b00000000001976a914467df6c437c75ac8235f74662c97213c0e7592c388acbb0a0000000000001976a914ec0c38ce6c65ce5f76bb70b3091315be331e270a88ac00000000", "vin": [{"sequence": 4294967295, "scriptSig": {"hex": "473044022069d0975332526a92d80abf3786374b28ac176b0e44f8526869533a7509f2137402205b240f19f4799f83b790edfe6de122fee739f2f0432a9150c35d4c70e507e809012103ab0aa58736026e6faf148855e1379fc17acf07afc1eedc69dcb569f382ce1ece", "asm": "3044022069d0975332526a92d80abf3786374b28ac176b0e44f8526869533a7509f2137402205b240f19f4799f83b790edfe6de122fee739f2f0432a9150c35d4c70e507e809[ALL] 03ab0aa58736026e6faf148855e1379fc17acf07afc1eedc69dcb569f382ce1ece"}, "vout": 13, "txid": "1ffb16bb3b64a50ac679d1aea4497f184d54dacdd57f2fe6a0a10a7d1aaf5d8d"}, {"sequence": 4294967295, "scriptSig": {"hex": "473044022055b2778deb5fed11b4b8ed95476aa557e3debc7f0b99a271fe78c9cbbaf25d9602201f305c07245e773cf607739c5a9b6a9947e3912ce83f9aa65f978ced10cbc1760121031b3c79bb536d1ca7dd78269757f68b2de488465a13950a1e1c0fdac72d21d345", "asm": "3044022055b2778deb5fed11b4b8ed95476aa557e3debc7f0b99a271fe78c9cbbaf25d9602201f305c07245e773cf607739c5a9b6a9947e3912ce83f9aa65f978ced10cbc176[ALL] 031b3c79bb536d1ca7dd78269757f68b2de488465a13950a1e1c0fdac72d21d345"}, "vout": 1, "txid": "ac884a519dafe5aec5fe2f686da6edd5d9b56c5cf75d87b9c9239b996e91b0d0"}], "txid": "fe8f549813bbc3f5a0fe179fe8f276ff3a1e36996e296a372dff092021daf159", "blocktime": 1537873282, "version": 2, "confirmations": 11483, "time": 1537873282, "locktime": 0, "vsize": 406, "size": 406}