{"hash": "c13c90a481887d01da86c0c31b44da848f4fa5ff8f9a0ac6f79b35baf8dba316", "blockhash": "0000000000000000001e0dab787dd257d1dbfcb92a98c2207d5e1078be1f4165", "vout": [{"scriptPubKey": {"reqSigs": 1, "hex": "a91426cb006e37a4c37f3af17c55e489baeb1f40ea3c87", "addresses": ["35E8ndvafCka1EQvFxR8KihpQtD2d5dbAu"], "asm": "OP_HASH160 26cb006e37a4c37f3af17c55e489baeb1f40ea3c OP_EQUAL", "type": "scripthash"}, "value": 0.20074804, "n": 0}, {"scriptPubKey": {"reqSigs": 1, "hex": "a914aade601dd21074b5a14c5201fde1c52d0d20b93d87", "addresses": ["3HGVC59rKnEJZhSw8fxjtFDPpooM6ADL9T"], "asm": "OP_HASH160 aade601dd21074b5a14c5201fde1c52d0d20b93d OP_EQUAL", "type": "scripthash"}, "value": 0.44902029, "n": 1}], "hex": "020000000001012845d91255185b4143a4c58bf47718e4713ca13bd4f58e87a38f509a70e88dec01000000171600141dd841f25199e20906107b2c2d1ba34995a902bdfeffffff02345132010000000017a91426cb006e37a4c37f3af17c55e489baeb1f40ea3c878d26ad020000000017a914aade601dd21074b5a14c5201fde1c52d0d20b93d870247304402206f26a9c7df5a188f6099627edf134312685cfba853ec117cdfea63ab7b94b80e022078b70b501d5e607828423c8350bf4a901f9830c8d4b44bd4c30be275973d5f8a012103a3bfbbfddf62ebca4362f780d1dcf4e9d70748ace0ec91897595516a463e252b12490800", "vin": [{"txinwitness": ["304402206f26a9c7df5a188f6099627edf134312685cfba853ec117cdfea63ab7b94b80e022078b70b501d5e607828423c8350bf4a901f9830c8d4b44bd4c30be275973d5f8a01", "03a3bfbbfddf62ebca4362f780d1dcf4e9d70748ace0ec91897595516a463e252b"], "sequence": 4294967294, "scriptSig": {"hex": "1600141dd841f25199e20906107b2c2d1ba34995a902bd", "asm": "00141dd841f25199e20906107b2c2d1ba34995a902bd"}, "vout": 1, "txid": "ec8de8709a508fa3878ef5d43ba13c71e41877f48bc5a443415b185512d94528"}], "txid": "fe95f5bca3f658ce3033b2be2cafcafe7755d704a2c72685deee6005233dd605", "blocktime": 1537872475, "version": 2, "confirmations": 11487, "time": 1537872475, "locktime": 542994, "vsize": 166, "size": 247}