{"hash": "cf7b33f2d7de189c032ea0a170634cc5fe752a172e597182411ddb74c19dcaa5", "blockhash": "00000000000000000024a2167bbff67b0be802c0b01cdd79e6331c2be6459f87", "vout": [{"scriptPubKey": {"reqSigs": 1, "hex": "a91482e7e273ec4e0dff2590e50d5fec2ebc665cd1f787", "addresses": ["3DdBZ734DjaqBf29PvjxWv9mvU6VaQEs8H"], "asm": "OP_HASH160 82e7e273ec4e0dff2590e50d5fec2ebc665cd1f7 OP_EQUAL", "type": "scripthash"}, "value": 1.87539081, "n": 0}, {"scriptPubKey": {"reqSigs": 1, "hex": "a914c705dced06df66c8e9dcae64ad76d13c8db7fbfc87", "addresses": ["3KqMR5vwEqoa96SEvHALv9nAYr7du4bBJp"], "asm": "OP_HASH160 c705dced06df66c8e9dcae64ad76d13c8db7fbfc OP_EQUAL", "type": "scripthash"}, "value": 0.00615783, "n": 1}], "hex": "010000000001016c763cb8f417869763a128607587286a94c06eed7f87bcc0874279f2c11e7f940000000023220020396e410c1f0faa6cf44962c0624cd22732a29701c600c1d906e0db9f939fa239ffffffff02899e2d0b0000000017a91482e7e273ec4e0dff2590e50d5fec2ebc665cd1f787676509000000000017a914c705dced06df66c8e9dcae64ad76d13c8db7fbfc870347304402201ca1cbb1385ffc8c04ef036ae3032185cc8df5b1d903ee399cffa7bed93955120220436296c9b719a56572f7a64fee2772f8aace592db2e59153948ca8bda2c9c6ab012102d941dfddbc2339802d015e0777dc30cd416ff591acd587c3e34824c6583b4dac1976a914d1cd43434d93559101682b017ed06e55a1c7119e88ac00000000", "vin": [{"txinwitness": ["304402201ca1cbb1385ffc8c04ef036ae3032185cc8df5b1d903ee399cffa7bed93955120220436296c9b719a56572f7a64fee2772f8aace592db2e59153948ca8bda2c9c6ab01", "02d941dfddbc2339802d015e0777dc30cd416ff591acd587c3e34824c6583b4dac", "76a914d1cd43434d93559101682b017ed06e55a1c7119e88ac"], "sequence": 4294967295, "scriptSig": {"hex": "220020396e410c1f0faa6cf44962c0624cd22732a29701c600c1d906e0db9f939fa239", "asm": "0020396e410c1f0faa6cf44962c0624cd22732a29701c600c1d906e0db9f939fa239"}, "vout": 0, "txid": "947f1ec1f2794287c0bc877fed6ec0946a2887756028a163978617f4b83c766c"}], "txid": "fea0c8aee419622a431fbb555062503856c02df515a68e6a948df00db3a90ce7", "blocktime": 1537870564, "version": 1, "confirmations": 11515, "time": 1537870564, "locktime": 0, "vsize": 184, "size": 285}