{"hash": "c30cb8726dc1c25c8cb59734162e711cda1dcb5550af43a5e5d278e70dab2cc4", "blockhash": "00000000000000000004ffacab907a6b429b9a5745fa0b75af4234bf69dd7176", "vout": [{"scriptPubKey": {"reqSigs": 1, "hex": "76a9147850db0545bb743890eda33c137553ac72e5e6fa88ac", "addresses": ["1ByAwxn9opfkqtrEAsxMu9YPoYhtcDVZZa"], "asm": "OP_DUP OP_HASH160 7850db0545bb743890eda33c137553ac72e5e6fa OP_EQUALVERIFY OP_CHECKSIG", "type": "pubkeyhash"}, "value": 0.03064051, "n": 0}, {"scriptPubKey": {"reqSigs": 1, "hex": "00148fc752ffb235f6b2c20ab9bb51255c372fbc133d", "addresses": ["bc1q3lr49lajxhmt9ss2hxa4zf2uxuhmcyeacmdt37"], "asm": "0 8fc752ffb235f6b2c20ab9bb51255c372fbc133d", "type": "witness_v0_keyhash"}, "value": 11.85563054, "n": 1}], "hex": "0200000000010191f949cdc3e4eb114ce5da4ca2b4eeaeaad5392dff7e8d5f15e84c4d4d3aa2a40000000000ffffffff02f3c02e00000000001976a9147850db0545bb743890eda33c137553ac72e5e6fa88acae41aa46000000001600148fc752ffb235f6b2c20ab9bb51255c372fbc133d024730440220596d82a51a5e5b8429a9114e438ecf62a2c05ea724c8970703c5eb10e632b92c02203754b4fde05fb0a40f9183744b05e13ebad6bf813dcba3fa562ed73fec9c241d01210320a5afaa9de6b506dcd061d63405951684fc0a466a189e9d885bf06e6d6c786000000000", "vin": [{"txinwitness": ["30440220596d82a51a5e5b8429a9114e438ecf62a2c05ea724c8970703c5eb10e632b92c02203754b4fde05fb0a40f9183744b05e13ebad6bf813dcba3fa562ed73fec9c241d01", "0320a5afaa9de6b506dcd061d63405951684fc0a466a189e9d885bf06e6d6c7860"], "sequence": 4294967295, "scriptSig": {"hex": "", "asm": ""}, "vout": 0, "txid": "a4a23a4d4d4ce8155f8d7eff2d39d5aaaeeeb4a24cdae54c11ebe4c3cd49f991"}], "txid": "fea9bc744fee024bb7ecedf5854873294e023db3bd2f8a1b46284c3ad0681f87", "blocktime": 1537875543, "version": 2, "confirmations": 11464, "time": 1537875543, "locktime": 0, "vsize": 144, "size": 225}