{"hash": "feaf859bbf946ab601890cc73a45e09b88a36f96d26a216fdedab93b3141e707", "blockhash": "00000000000000000024a2167bbff67b0be802c0b01cdd79e6331c2be6459f87", "vout": [{"scriptPubKey": {"type": "nulldata", "hex": "6a4c500000777b0001964f2c680e7d576e9683a0f5bcbefa6b8351586b4e86aeaeacb577c031fcdc9390c47f37d723e84212e59a02b5255baa09ec0614bb3b86f21dffbc9a9526289ac0f6612cd74e33776ee4", "asm": "OP_RETURN 0000777b0001964f2c680e7d576e9683a0f5bcbefa6b8351586b4e86aeaeacb577c031fcdc9390c47f37d723e84212e59a02b5255baa09ec0614bb3b86f21dffbc9a9526289ac0f6612cd74e33776ee4"}, "value": 0.0, "n": 0}, {"scriptPubKey": {"reqSigs": 1, "hex": "76a914df63b255c543829b1c7bc306113be9e8a20dfcd488ac", "addresses": ["1MNB7pcQ7kDxaT5TWez5YSQUh9SyLUmLmR"], "asm": "OP_DUP OP_HASH160 df63b255c543829b1c7bc306113be9e8a20dfcd4 OP_EQUALVERIFY OP_CHECKSIG", "type": "pubkeyhash"}, "value": 0.0148176, "n": 1}], "hex": "0100000001957b760322e0f61e7bda9fee4566f5ed6c6e0813ce89b7a581fc21f25892facc010000006b483045022100b1fba35ed526a0529f38374b722c1c0acf33817eecf4e8c8f62a523e29cd71cf022019e072c1d62278e9f6503d945050f6c8719abaf62ba22cf8a222dfaaa890e40f012103ee8034b568c7d80db6de402a3d05734222b70a13bcd13d6e16c10d35b9dfe603ffffffff020000000000000000536a4c500000777b0001964f2c680e7d576e9683a0f5bcbefa6b8351586b4e86aeaeacb577c031fcdc9390c47f37d723e84212e59a02b5255baa09ec0614bb3b86f21dffbc9a9526289ac0f6612cd74e33776ee4209c1600000000001976a914df63b255c543829b1c7bc306113be9e8a20dfcd488ac00000000", "vin": [{"sequence": 4294967295, "scriptSig": {"hex": "483045022100b1fba35ed526a0529f38374b722c1c0acf33817eecf4e8c8f62a523e29cd71cf022019e072c1d62278e9f6503d945050f6c8719abaf62ba22cf8a222dfaaa890e40f012103ee8034b568c7d80db6de402a3d05734222b70a13bcd13d6e16c10d35b9dfe603", "asm": "3045022100b1fba35ed526a0529f38374b722c1c0acf33817eecf4e8c8f62a523e29cd71cf022019e072c1d62278e9f6503d945050f6c8719abaf62ba22cf8a222dfaaa890e40f[ALL] 03ee8034b568c7d80db6de402a3d05734222b70a13bcd13d6e16c10d35b9dfe603"}, "vout": 1, "txid": "ccfa9258f221fc81a5b789ce13086e6cedf56645ee9fda7b1ef6e02203767b95"}], "txid": "feaf859bbf946ab601890cc73a45e09b88a36f96d26a216fdedab93b3141e707", "blocktime": 1537870564, "version": 1, "confirmations": 11515, "time": 1537870564, "locktime": 0, "vsize": 284, "size": 284}