{"hash": "feb133a1543f48c1b8cb34148b39bc5c00e7e5b6e9b39bf61abf13aff4ff7009", "blockhash": "0000000000000000001cda96e906b7601b7a6fb1a3b62bca570a9e5d8f4b3de1", "vout": [{"scriptPubKey": {"reqSigs": 1, "hex": "76a91441931627842acf94fce76f67ab8baf661a7749dc88ac", "addresses": ["16yj8DpMaFkv8KTAobXS9FVe2oo6sv3W3k"], "asm": "OP_DUP OP_HASH160 41931627842acf94fce76f67ab8baf661a7749dc OP_EQUALVERIFY OP_CHECKSIG", "type": "pubkeyhash"}, "value": 0.03747177, "n": 0}, {"scriptPubKey": {"reqSigs": 1, "hex": "76a9145a0697848b0a4746e304fb132155b49619b00eac88ac", "addresses": ["19D1iGzDr7FyAdiy3ZZdxMd6ttHj1kj6WW"], "asm": "OP_DUP OP_HASH160 5a0697848b0a4746e304fb132155b49619b00eac OP_EQUALVERIFY OP_CHECKSIG", "type": "pubkeyhash"}, "value": 0.04433654, "n": 1}], "hex": "0100000001622ce234b4c56fe3dc58c4328d149d36c473daf90a4aaf453a9bfc7cb68ab977000000006a47304402204151524d700d2070f8ddb075b8df95f8224764b30a64a215190774fb9491284a02203aa628eb9ebbb965ceaee49f3bbf4954c2e2152b10a5b345a6b6d53a2372654b012103dcd1a891622d90ea0797badb76e8a18f5b76d6ab98669a93516eeb9c43b7bb39ffffffff02692d3900000000001976a91441931627842acf94fce76f67ab8baf661a7749dc88acf6a64300000000001976a9145a0697848b0a4746e304fb132155b49619b00eac88ac00000000", "vin": [{"sequence": 4294967295, "scriptSig": {"hex": "47304402204151524d700d2070f8ddb075b8df95f8224764b30a64a215190774fb9491284a02203aa628eb9ebbb965ceaee49f3bbf4954c2e2152b10a5b345a6b6d53a2372654b012103dcd1a891622d90ea0797badb76e8a18f5b76d6ab98669a93516eeb9c43b7bb39", "asm": "304402204151524d700d2070f8ddb075b8df95f8224764b30a64a215190774fb9491284a02203aa628eb9ebbb965ceaee49f3bbf4954c2e2152b10a5b345a6b6d53a2372654b[ALL] 03dcd1a891622d90ea0797badb76e8a18f5b76d6ab98669a93516eeb9c43b7bb39"}, "vout": 0, "txid": "77b98ab67cfc9b3a45af4a0af9da73c4369d148d32c458dce36fc5b434e22c62"}], "txid": "feb133a1543f48c1b8cb34148b39bc5c00e7e5b6e9b39bf61abf13aff4ff7009", "blocktime": 1537873282, "version": 1, "confirmations": 11485, "time": 1537873282, "locktime": 0, "vsize": 225, "size": 225}