{"hash": "feb93dd60ec548ab08154eaf8ff861f4d654849a542180ab860d4920eebb9e17", "blockhash": "00000000000000000018f53835495a110e01622372bf6ae95dc86f2b0ab887b0", "vout": [{"scriptPubKey": {"type": "nulldata", "hex": "6a4c50000077880001b8a47c9880c65efa6e67733fbcbefa6b8351586b4e86aeaeacb577c031fc802d33e46e26b0999c6db454cec3cc255baa0bc006141f93731ddc68bc9a9526289ac0f6612cd74e33776ee4", "asm": "OP_RETURN 000077880001b8a47c9880c65efa6e67733fbcbefa6b8351586b4e86aeaeacb577c031fc802d33e46e26b0999c6db454cec3cc255baa0bc006141f93731ddc68bc9a9526289ac0f6612cd74e33776ee4"}, "value": 0.0, "n": 0}, {"scriptPubKey": {"reqSigs": 1, "hex": "76a9145119e64675587a28131990c66a56730c7ffe59a188ac", "addresses": ["18Ppm4waU2aVPPk6TT18JF4uJnHgZ2Xahb"], "asm": "OP_DUP OP_HASH160 5119e64675587a28131990c66a56730c7ffe59a1 OP_EQUALVERIFY OP_CHECKSIG", "type": "pubkeyhash"}, "value": 0.0014578, "n": 1}], "hex": "01000000016b9e02778f80586b1a15ce25fb4e39fba29c65c74e755411973596e7b4cf860c000000006a47304402200f4548dc0f4249bbe31cfdf41bb6c4599f963f215f8b63a1d2b048b1d988a6f802207178e665ad3550f61005d04724d191972a48661a733a2ef043e8fbb0351a970e012102e97da2e9a8adf9f322840508d5c3579115c2e7210411bf379b99cc3f2264a37fffffffff020000000000000000536a4c50000077880001b8a47c9880c65efa6e67733fbcbefa6b8351586b4e86aeaeacb577c031fc802d33e46e26b0999c6db454cec3cc255baa0bc006141f93731ddc68bc9a9526289ac0f6612cd74e33776ee474390200000000001976a9145119e64675587a28131990c66a56730c7ffe59a188ac00000000", "vin": [{"sequence": 4294967295, "scriptSig": {"hex": "47304402200f4548dc0f4249bbe31cfdf41bb6c4599f963f215f8b63a1d2b048b1d988a6f802207178e665ad3550f61005d04724d191972a48661a733a2ef043e8fbb0351a970e012102e97da2e9a8adf9f322840508d5c3579115c2e7210411bf379b99cc3f2264a37f", "asm": "304402200f4548dc0f4249bbe31cfdf41bb6c4599f963f215f8b63a1d2b048b1d988a6f802207178e665ad3550f61005d04724d191972a48661a733a2ef043e8fbb0351a970e[ALL] 02e97da2e9a8adf9f322840508d5c3579115c2e7210411bf379b99cc3f2264a37f"}, "vout": 0, "txid": "0c86cfb4e79635971154754ec7659ca2fb394efb25ce151a6b58808f77029e6b"}], "txid": "feb93dd60ec548ab08154eaf8ff861f4d654849a542180ab860d4920eebb9e17", "blocktime": 1537870928, "version": 1, "confirmations": 11512, "time": 1537870928, "locktime": 0, "vsize": 283, "size": 283}