{"hash": "9404090092cb597536ba743745a1a754274879acf373e900869c8831500b827c", "blockhash": "00000000000000000018f53835495a110e01622372bf6ae95dc86f2b0ab887b0", "vout": [{"scriptPubKey": {"reqSigs": 1, "hex": "a914374d1bf232f9059f60b5c97aafcc2b7433982e0a87", "addresses": ["36jRTjUPWyM4CkZiYCydBdvKvaeKMf38Fg"], "asm": "OP_HASH160 374d1bf232f9059f60b5c97aafcc2b7433982e0a OP_EQUAL", "type": "scripthash"}, "value": 0.02408043, "n": 0}, {"scriptPubKey": {"reqSigs": 1, "hex": "76a9146d25380d3c390d8998fb56f5f407e2a37210464a88ac", "addresses": ["1Ax7EvoZR46YZHYQRQ7hpWn8qHvXR1PYQL"], "asm": "OP_DUP OP_HASH160 6d25380d3c390d8998fb56f5f407e2a37210464a OP_EQUALVERIFY OP_CHECKSIG", "type": "pubkeyhash"}, "value": 0.095, "n": 1}], "hex": "02000000000101ecf6bc8b1ff4f3a06aacfa3210822750a63ab8754300ec91f53cb56b1f8154d4000000001716001483ec73f64d16468a1008d195b8c8ff7edf991b32feffffff026bbe24000000000017a914374d1bf232f9059f60b5c97aafcc2b7433982e0a8760f59000000000001976a9146d25380d3c390d8998fb56f5f407e2a37210464a88ac0247304402200c5fb0e394da66b7e1722169bbd9e4e5dc6466900165544aee03c5a279759c0302207371d3cf7c9fbc0bf6d1fed1ec56e062483245cb5a92630a0812157dd2a1efdf012102a1efaab3389c32308ddb8bc71978015163f92c3ef3371522694f9fde5b6d2bd60e490800", "vin": [{"txinwitness": ["304402200c5fb0e394da66b7e1722169bbd9e4e5dc6466900165544aee03c5a279759c0302207371d3cf7c9fbc0bf6d1fed1ec56e062483245cb5a92630a0812157dd2a1efdf01", "02a1efaab3389c32308ddb8bc71978015163f92c3ef3371522694f9fde5b6d2bd6"], "sequence": 4294967294, "scriptSig": {"hex": "16001483ec73f64d16468a1008d195b8c8ff7edf991b32", "asm": "001483ec73f64d16468a1008d195b8c8ff7edf991b32"}, "vout": 0, "txid": "d454811f6bb53cf591ec004375b83aa65027821032faac6aa0f3f41f8bbcf6ec"}], "txid": "feb9b6ac1da83e348770bb31d5c7d974c461f4d6d1766e9115bedf7e4cef3936", "blocktime": 1537870928, "version": 2, "confirmations": 11514, "time": 1537870928, "locktime": 542990, "vsize": 168, "size": 249}