{"hash": "febd3e85422d00dc1e22f03f5f3260600fbc48c77848214caf16d8165bb470a1", "blockhash": "0000000000000000000dcc0f55137456b1a82d3642486a52398922ac4d620174", "vout": [{"scriptPubKey": {"reqSigs": 1, "hex": "a914891396949733ad44ddcc7b9303badfef6509ab6d87", "addresses": ["3EBoxqVRVrtxh7Xo1KCaAMS1D3yp8MY9NQ"], "asm": "OP_HASH160 891396949733ad44ddcc7b9303badfef6509ab6d OP_EQUAL", "type": "scripthash"}, "value": 0.226375, "n": 0}, {"scriptPubKey": {"reqSigs": 1, "hex": "76a914cda34f7af27ce9371e2055b52fb2c171d31005d088ac", "addresses": ["1KkKALTy5Gvz9bGcqDcs85ATL9ECG9iktr"], "asm": "OP_DUP OP_HASH160 cda34f7af27ce9371e2055b52fb2c171d31005d0 OP_EQUALVERIFY OP_CHECKSIG", "type": "pubkeyhash"}, "value": 0.02659, "n": 1}, {"scriptPubKey": {"reqSigs": 1, "hex": "76a914312de5f3a2239353bb305590dc68636308dd4d1488ac", "addresses": ["15V36U2NcUAxpNvGZ4sS8x2PKoM4qnJ3et"], "asm": "OP_DUP OP_HASH160 312de5f3a2239353bb305590dc68636308dd4d14 OP_EQUALVERIFY OP_CHECKSIG", "type": "pubkeyhash"}, "value": 0.067579, "n": 2}, {"scriptPubKey": {"reqSigs": 1, "hex": "76a91403bd75f8b28505de36474c89ab400e61e08e7a1488ac", "addresses": ["1LmzYaawyoyBoqFgkAvGX9T5f7UY1tqiX"], "asm": "OP_DUP OP_HASH160 03bd75f8b28505de36474c89ab400e61e08e7a14 OP_EQUALVERIFY OP_CHECKSIG", "type": "pubkeyhash"}, "value": 3.0, "n": 3}, {"scriptPubKey": {"reqSigs": 1, "hex": "76a914d251b455970eabad759ebc278cb58c8a71340dd488ac", "addresses": ["1LB4nD3xpyQ5e3ziffGBu29rTCHvCjh5bV"], "asm": "OP_DUP OP_HASH160 d251b455970eabad759ebc278cb58c8a71340dd4 OP_EQUALVERIFY OP_CHECKSIG", "type": "pubkeyhash"}, "value": 0.535945, "n": 4}, {"scriptPubKey": {"reqSigs": 1, "hex": "76a91425969f276d47c1179f27c2df37ddff998eaae80a88ac", "addresses": ["14RkSUeFHxKz5qDSTZMfrn7gYPsmxDBujT"], "asm": "OP_DUP OP_HASH160 25969f276d47c1179f27c2df37ddff998eaae80a OP_EQUALVERIFY OP_CHECKSIG", "type": "pubkeyhash"}, "value": 10.699301, "n": 5}, {"scriptPubKey": {"reqSigs": 1, "hex": "76a914ee2d9553b9d851b528510f57ec28ac5644e33c1088ac", "addresses": ["1NiNRqgwmHvBEYvix45LUMqZBKrPnvnm5i"], "asm": "OP_DUP OP_HASH160 ee2d9553b9d851b528510f57ec28ac5644e33c10 OP_EQUALVERIFY OP_CHECKSIG", "type": "pubkeyhash"}, "value": 1.132182, "n": 6}, {"scriptPubKey": {"reqSigs": 1, "hex": "a9145c71acb163f54ebf6653f818755a8266463707b287", "addresses": ["3A7pGSWHzgWMArKC6TkfxehC74BcHvkfa6"], "asm": "OP_HASH160 5c71acb163f54ebf6653f818755a8266463707b2 OP_EQUAL", "type": "scripthash"}, "value": 10.0, "n": 7}, {"scriptPubKey": {"reqSigs": 1, "hex": "a914723cd6c0ad1f9794961b6adc2ae548ae21132c5187", "addresses": ["3C73qa7aaVpytad4JvPjZX5zH6VEEm776X"], "asm": "OP_HASH160 723cd6c0ad1f9794961b6adc2ae548ae21132c51 OP_EQUAL", "type": "scripthash"}, "value": 3.0, "n": 8}, {"scriptPubKey": {"reqSigs": 1, "hex": "76a914197a7cbce91286aee82a70522d9d01994817dd0688ac", "addresses": ["13KidMrkBVNrVojWqQcC1F3FngKpNmKYBg"], "asm": "OP_DUP OP_HASH160 197a7cbce91286aee82a70522d9d01994817dd06 OP_EQUALVERIFY OP_CHECKSIG", "type": "pubkeyhash"}, "value": 0.0115, "n": 9}, {"scriptPubKey": {"reqSigs": 1, "hex": "a914bb9d8c5d5f05800a432fae163368bed49173005287", "addresses": ["3Jo324evmqGLbHrpGRXZ6vWKtgaCbD1sEn"], "asm": "OP_HASH160 bb9d8c5d5f05800a432fae163368bed491730052 OP_EQUAL", "type": "scripthash"}, "value": 1.4995, "n": 10}, {"scriptPubKey": {"reqSigs": 1, "hex": "76a91455bb0094696852d6409cd201374e50262a6bb51388ac", "addresses": ["18pJTT9CiyGzXYux6u28nHeDPUoC6pW6MG"], "asm": "OP_DUP OP_HASH160 55bb0094696852d6409cd201374e50262a6bb513 OP_EQUALVERIFY OP_CHECKSIG", "type": "pubkeyhash"}, "value": 28.33861542, "n": 11}], "hex": "010000001e6c08a2040602acdfdc597ba278e34e1dfd76682a00b1332995023a5f06035741000000006a47304402207c6958ddc7aa2a491c985fcb9612fb2813ab61ce1240101c3bc50b5348293cd0022068f6cd54c3cc99e0ae8898235b769475ee729cc3f04f79df3de22e46e04ddf78012103e9ccb6f749236335fb21ba5882d1082ca99ec99c6d3de6972f659c7ff79f1284ffffffff6c08a2040602acdfdc597ba278e34e1dfd76682a00b1332995023a5f06035741030000006b483045022100d2bb8d9b61c0a10d683a121ee77512d332ed93a3f9b5351d1f50e6e93ca1f97e022055c27898847763fd6dfa41a8853f504ad93ebe03f812c4e7a1aa043684ef0ad90121027230e9448c824739f31ddb505c1f6c91348c2a8b9e396c16eba8b976466a9fe0ffffffff46995dddf9708f3e50deee9ec563200c60da812b284cecfd4cb03e3f72fcbf2c010000006b483045022100abc4573facd5a952cd87f578cacc0fbad9659203172f7559bb741c962242801002202a64f774cb1bb480c7882320224d34a4dd9e450fbe17074f7f154b5af8efe6120121033212363dd70f65cea63e7f218c03d88b216d86dd55ad029e553e49599bcaee96ffffffffe002b0376ba8fc7f86ccf777709f1ea31a0acf9a4127d3daf3d0e900ac90c4ff0f0000006b483045022100accc9560a8e52c12691cf1e7e63ecdfccd9e6248d47ec47b64a0b5e65e9130a202201cc020018f1c63efc996cf5445528c22821f0ac372b7cf55faeb098531246d7a012103f57b27cde605f57722d704ec5985641c76d18f0a0be5225bcc781354772d285bffffffff2d1571855421beb44c42e15cf440ffe2a89ff2c4a800b85933291f39e68660b9000000006a473044022076753024d8e94e90e0145c6baff5ae9e2b214b3b28b6e9faa6e18d564b5eb28702205391dc895407c52425a2d02e0cea932b3d63eb19268b5e31ecbeb1ea04e57597012103d40bbfc59374677dbb3002debcdc7238250a15f656e9b6baab46d0a80f5a9e56ffffffff601a3f846416b6b7479566d5a8c9e92d9985086e4eedd9c4a9f2d7ea026b3db3030000006a47304402207d682da828084f34d2552df89cda4eeabab5513e9f727de0ca5e344fe6db0b02022042e79dfb4e2e99f4c2de516e736275db3cddff20f6b57eeefa4d9102de43d40c012102f38ffcae5e08b010d1982f747da73ea9210e9be9de1ee241607fc18faed0e098ffffffff33b5c7579d03d3fb24edd8eff2da4183ae823478f0156269583e71c6b6cb7719010000006a4730440220239d4a6ac033582da8397e8ab0d99188f324bd20ef042ae50f85ba893e47cd42022026e2fb61fabfefd19f0ec67fafd8a2a7988720e798eacc906cd359f1e2aca1af012102260aaa4b5f8bb197aee67a3a79b2820ed73ffc041f774e1c5e97cf0619238464ffffffffd2bdfef3e76d9a0ef697fa675e9ffdd1cd1b7566163aad0365f0c9d2f91281f9000000006a47304402203e7e5647d20589db2699ce5f780f20f50d06755bcf8c0ac637ac4776eb13d68902207a346ec1fea08d79b5af02af6ca2f7765ff8025582a10182bbc95233573f922b0121025022b378064226da2acfecd8ddbdd5a84f7de08569fdb0b39a5d3e230c15fd5affffffff6c1852e70519baa4a17325ae11b3c1779daf5a948a89754adfc859c7fd39fee3000000006b483045022100f2ed4c41f260c5fe22afd2faec31032286512da8ad62612a5520687d49ac3b9302204e9a7823966266b3aad9f2952aac8fe4394ee9d88e9da7a43d33fd352c6779ac012102260aaa4b5f8bb197aee67a3a79b2820ed73ffc041f774e1c5e97cf0619238464ffffffffb4ab0d91e28e496a23cb2ad44b924baa350827fce31156df64f4b8ac3088c8bb010000006b483045022100c27c9f2e97d4145c1284c221c40d460e4f5dd480f27b602df5945a5e14c024dd0220456756fab5fe2e208a86cbd8f00252afc0d69d281cc120ca039230c9711c26c4012102ac5a169e9948af04548bbf80c0bdbe36ecb72b55a4db5b0f523620a765be0af4ffffffffd16f8957c9a42bc7d65ed0be20f5fb7b647363e0f6b799d0813e0d2ca1416636000000006b48304502210085d19b50124c6ac540554618b9ef3d5deb9f1535afdddffffb6c1574b88809ab022068b4568fbae24f883b03cc47d66545b0c37a182def565f5641defba57ce65071012102ac5a169e9948af04548bbf80c0bdbe36ecb72b55a4db5b0f523620a765be0af4ffffffff8f8538af08ce257211ecd45b3086a42fc28dbdf446932e5a9590168c2cc8f1ee010000006b483045022100821c7bff48ac0104a697088294aefd6d06b467e42289143092ec4b7a9cde925b02206a9222dd6ce4ceba8e243df2e06a011069d9fe0c784d4e9e68fecb5444d99cbf01210396a0530e9bfd8d9af35bbca7e6cfb85a3748a1bf327b132712ab1b2233e3b8f0ffffffff4a3819e0b37cc70890f4a8d96769f290ad42b682c9436cd37d86b1e9fd3cf4e4010000006b4830450221009a3c5659caa673e0a81e8776dd2ec46ae9c6bff3a6bdd172a1c5db1e26014e5a02206d3e3619aadda67b32fdffebac2649bbda1622bd233f7afd4b4e83d3a73d7aae0121031ba4049915c8b75bb9a18eb47938b75ccfedad3a8c9bfa0b39834a6e86657784ffffffff078074e926f02bc7cbe08d2292278c9ef91e97e6bb4a243dcffe9ea881664b3c150000006a473044022044b0821a71fb522922b890ab4321949c6328dedc8e5b296048dee1aa829349ec02201c8e26871cf49d4d57d5b463ba4e776d53634413bcba52083c515ab5dded049f012103e35a4b4b1eb0bde13a8c18b1279b54514c7f32032a4246eff6e2b28a11e1cf4effffffff024f1b31aaf6d4fe31fcfa9dd6022bdf531c7cb4fc77ed76d24c7446266c7bf7110000006b483045022100eac5bd491c0dd896f9b2c9c289f71990cee66edbc998091934ca3655712a1c47022009d32eed7cc4050cea2daba894ecbaf12a964e50a7618273b5b575e2a0da3ba6012103390e121888d94987dd77d74a40e643eaa24ae61410533046b363d602096312ceffffffff405495c3744c8e12ed5d8bd1067bfda0640038ec18f2a287ef58a18a8eb6ab70000000006b48304502210099abdb417bdb5a674cb42e6edc80ddc9049d25c14b70b14489c12d1f86047da102201689642a38bf5d85f5a8f5e74e1bac1e058dda4183543add2c44f764d118c018012103af4ffaab89cb2f0bce0567f849cf659c5490bed3414d0ba35b759b8e14fc82aaffffffff3b988d972321b5de8d4f9dddbc3a7d7d96ce439ee688c913fcd39b5cfa18fa0f000000006a47304402201ff3da287372bf895a83b27ab6ee89ab8204f15fa11321973268c6f6db75dc6b022054375e9c94f74ccae6bc65bd2f529ea33ed18dd89ffbc7fa548936c59f43e14b012102a709503aa45374a164e84f9c732e4110060bb2412f56f09dd5949fcc52b686affffffffffd5fe0d4ddb99aa037af8381907eef21579c3c4878571dd089c6572238c662ed000000006a47304402206b413d6a002404574c85b4011a7ed074f578539dfd55af503df6b9c05d1be5fd0220295dcdf63544a3dc5d16879a58a030c48768024f9e9a191acb7e0464ea1a5a9d0121038195481aa262d9e6cdeebcf89557186a686ca63151b796798ee08188f08348d7ffffffff201a6cfed87f90ad0e423ae3891627d6730bd613a561ea1c5fbcb628760c2d15000000006a473044022039677c0fcefd4182610abf5cda01cd95246b2fad38f21b9d549bbe662d18c66a0220548d4ebcd17cafc0281510f0b5c2ff7e1f97e35ae0ed7915cb7b94b66bff485e01210236cbfaa2a9e5cb46d2a873f6b378e41d3f0921f5cca0cc34a06c540d8c00df9effffffff1385448189f1ae34c24b84579bbe36447e47aa49bbba5aea2bb8013462654892000000006b483045022100eef2bc3a9ce3ebdd04fd9dc4c235eeb2a8c27532fcda0014b11cf95fd295508102207b6b1b5f087196bf2909552a7bdbd283fd15649754bacbfa3b5391ab113c15d2012103d40bbfc59374677dbb3002debcdc7238250a15f656e9b6baab46d0a80f5a9e56ffffffff7d1d9ca5159021b46007586b20e2e7edc1d72b5ad30ed303e9c294bff8da8d0f040000006a47304402206534c79cc0eed76807e4ea9e98300c749c54109356419ffad19943633c2725db022049b19e823c67fe710ddb09c6aa8fd82f615ed0fe28a8617487d41a6d4e362c8e012102a216206fc7db5c04f98c9ddbab4ba3234aaabcbbb7c3bfc196370b90ddd7d329ffffffffa3ec091e6207167aa9f364a1a4fdd10ecd7f8a172d7439dc006b5012c8c93d65000000006a47304402200b279b7f67330f4a7e0e04897e98c340c58fa47d238dc6d72b26af50207dd44102203b494812b933384f2a0b189dc42b7da6baf7e58b99d8d6c9049649a791a1f2e401210248a8321616e051d32c992df02c4a041b42b82307fcb4f2fd0b61ebfc6edec038ffffffffa75f4e2410b164e221b855cf6065bc97492b20d5578a774b3a1bfc82e79ef4ba000000006a4730440220446f13a8277893b1c144d44d90ac138ad71fe4f8e374069481d784807ff45a0f02203617c5fb69f4a14497afdaab38873d4dc676fd63ffd9d8e3704b9314e49f32ea012102260aaa4b5f8bb197aee67a3a79b2820ed73ffc041f774e1c5e97cf0619238464fffffffff40343786f853f023144d3574cff5706e371629690b98e75721b005941ad724b0c0000006a47304402200a11645fadf9eebe43addbd3bf06afc1d8e32870f89f7e20d1b0447bc7b92d0202202f9f37308bffa8f318d8b8659f34fcf20cf7bb209f56af66a49684f4344c75d50121021ba7fe2c6bccf2e4d8e54cf0d4c9f94a076cf1c8452155a2df87778ad22c92b6ffffffff55cf93e3704bda70eeec71fc8e3360a7b61083d020645e86d3421af0499f24fd010000006b4830450221008770a4da7d35d25f4eaa59080fe7ce774a24b3ea574bbe94742bae1257942410022026308fd0bf94292625be063e2fd4766762dd38efe434480cc44cf553ab2dc5ba012102ef90d4f23c55aaf19c5b783f2b095cf2a45a866f43eba19936ef67af52ef42b1ffffffff8ad92328997b4d99e91b3eb85698a5af68d07c82816b5f1f96a9527e01bbcfad000000006b483045022100884395d1de88da0f33442b3578536d0f8c60119d47e57ae6987a117637f973e102202fe00799385b6dc999e5587fe339550ff5b83e5a61975255edd44e57415090c7012103f2f4475f63b7d75a7dc024fda195e2d842e518c9ed523a63d185631ffbadbcd7ffffffffa65f355988fa57b8e34f515b1c5446222544ab93838cdc8347cd070894bc231d000000006a47304402202504dc395bddcfd7a02bac4b0c3e01622f18fea567a46d58e09f35516c6341a102202ce83ea58f2c11fbecce7bca9eef4cac9caa5903d4ab56e2379e5538df9b4eb4012103a81eb5d482b62ac45e0c0be240d635fc8ce5dedd911e3663ba4a0ea615f21fdbffffffff61036798d7c4b38e12512838ffe5e0de74165cd4ce197c87229e1678bf78d351080000006a47304402202885337a4f8711ba5cadbe38230e111ee5f0d2829499c874d399f14c773779ce022022861e8a1140307f9de549475a9be3e3ace75c897ba2ad5e655bb5e57d107e0f01210220b9c5d0645dfce810b474baf2f11a1f122f4aeddad2268803abd629b1e7c800ffffffff169b508e011433d0ea7690ad7f1da0f341c4b7d8665c5512780f725a1f1d3cdc030000006b483045022100c4516891fac86a5e85a9c908548d673167937a8d87d9e24e331d3359bf7ebd0402206c1d34bfd7fe849085b1f6dde192f8d2e99df909a3d4b8a161e7ba929ad945b60121020e670711c683e87e761408322cdd39b3f6e97207d9fc0c0848bf09869f9417b7ffffffff0f86aac292862ebd73f03c686e51854c0a43f4a9b96fa28209db45c5b001c67a000000006b483045022100cb0649007d2bc483e1b05e8a4e29f219d8fa9e64729bea8adccc76bec2c606e50220335e8551f111dc2b817f65fb1209635a319630a83afd4a162086bae51a81aaf6012102260aaa4b5f8bb197aee67a3a79b2820ed73ffc041f774e1c5e97cf0619238464ffffffff0cbc6b59010000000017a914891396949733ad44ddcc7b9303badfef6509ab6d87b8922800000000001976a914cda34f7af27ce9371e2055b52fb2c171d31005d088ac0c1e6700000000001976a914312de5f3a2239353bb305590dc68636308dd4d1488ac00a3e111000000001976a91403bd75f8b28505de36474c89ab400e61e08e7a1488ac84c93103000000001976a914d251b455970eabad759ebc278cb58c8a71340dd488ac74d6c53f000000001976a91425969f276d47c1179f27c2df37ddff998eaae80a88ac9892bf06000000001976a914ee2d9553b9d851b528510f57ec28ac5644e33c1088ac00ca9a3b0000000017a9145c71acb163f54ebf6653f818755a8266463707b28700a3e1110000000017a914723cd6c0ad1f9794961b6adc2ae548ae21132c5187308c1100000000001976a914197a7cbce91286aee82a70522d9d01994817dd0688ac300ef0080000000017a914bb9d8c5d5f05800a432fae163368bed49173005287a64be9a8000000001976a91455bb0094696852d6409cd201374e50262a6bb51388ac00000000", "vin": [{"sequence": 4294967295, "scriptSig": {"hex": "47304402207c6958ddc7aa2a491c985fcb9612fb2813ab61ce1240101c3bc50b5348293cd0022068f6cd54c3cc99e0ae8898235b769475ee729cc3f04f79df3de22e46e04ddf78012103e9ccb6f749236335fb21ba5882d1082ca99ec99c6d3de6972f659c7ff79f1284", "asm": "304402207c6958ddc7aa2a491c985fcb9612fb2813ab61ce1240101c3bc50b5348293cd0022068f6cd54c3cc99e0ae8898235b769475ee729cc3f04f79df3de22e46e04ddf78[ALL] 03e9ccb6f749236335fb21ba5882d1082ca99ec99c6d3de6972f659c7ff79f1284"}, "vout": 0, "txid": "415703065f3a02952933b1002a6876fd1d4ee378a27b59dcdfac020604a2086c"}, {"sequence": 4294967295, "scriptSig": {"hex": "483045022100d2bb8d9b61c0a10d683a121ee77512d332ed93a3f9b5351d1f50e6e93ca1f97e022055c27898847763fd6dfa41a8853f504ad93ebe03f812c4e7a1aa043684ef0ad90121027230e9448c824739f31ddb505c1f6c91348c2a8b9e396c16eba8b976466a9fe0", "asm": "3045022100d2bb8d9b61c0a10d683a121ee77512d332ed93a3f9b5351d1f50e6e93ca1f97e022055c27898847763fd6dfa41a8853f504ad93ebe03f812c4e7a1aa043684ef0ad9[ALL] 027230e9448c824739f31ddb505c1f6c91348c2a8b9e396c16eba8b976466a9fe0"}, "vout": 3, "txid": "415703065f3a02952933b1002a6876fd1d4ee378a27b59dcdfac020604a2086c"}, {"sequence": 4294967295, "scriptSig": {"hex": "483045022100abc4573facd5a952cd87f578cacc0fbad9659203172f7559bb741c962242801002202a64f774cb1bb480c7882320224d34a4dd9e450fbe17074f7f154b5af8efe6120121033212363dd70f65cea63e7f218c03d88b216d86dd55ad029e553e49599bcaee96", "asm": "3045022100abc4573facd5a952cd87f578cacc0fbad9659203172f7559bb741c962242801002202a64f774cb1bb480c7882320224d34a4dd9e450fbe17074f7f154b5af8efe612[ALL] 033212363dd70f65cea63e7f218c03d88b216d86dd55ad029e553e49599bcaee96"}, "vout": 1, "txid": "2cbffc723f3eb04cfdec4c282b81da600c2063c59eeede503e8f70f9dd5d9946"}, {"sequence": 4294967295, "scriptSig": {"hex": "483045022100accc9560a8e52c12691cf1e7e63ecdfccd9e6248d47ec47b64a0b5e65e9130a202201cc020018f1c63efc996cf5445528c22821f0ac372b7cf55faeb098531246d7a012103f57b27cde605f57722d704ec5985641c76d18f0a0be5225bcc781354772d285b", "asm": "3045022100accc9560a8e52c12691cf1e7e63ecdfccd9e6248d47ec47b64a0b5e65e9130a202201cc020018f1c63efc996cf5445528c22821f0ac372b7cf55faeb098531246d7a[ALL] 03f57b27cde605f57722d704ec5985641c76d18f0a0be5225bcc781354772d285b"}, "vout": 15, "txid": "ffc490ac00e9d0f3dad327419acf0a1aa31e9f7077f7cc867ffca86b37b002e0"}, {"sequence": 4294967295, "scriptSig": {"hex": "473044022076753024d8e94e90e0145c6baff5ae9e2b214b3b28b6e9faa6e18d564b5eb28702205391dc895407c52425a2d02e0cea932b3d63eb19268b5e31ecbeb1ea04e57597012103d40bbfc59374677dbb3002debcdc7238250a15f656e9b6baab46d0a80f5a9e56", "asm": "3044022076753024d8e94e90e0145c6baff5ae9e2b214b3b28b6e9faa6e18d564b5eb28702205391dc895407c52425a2d02e0cea932b3d63eb19268b5e31ecbeb1ea04e57597[ALL] 03d40bbfc59374677dbb3002debcdc7238250a15f656e9b6baab46d0a80f5a9e56"}, "vout": 0, "txid": "b96086e6391f293359b800a8c4f29fa8e2ff40f45ce1424cb4be21548571152d"}, {"sequence": 4294967295, "scriptSig": {"hex": "47304402207d682da828084f34d2552df89cda4eeabab5513e9f727de0ca5e344fe6db0b02022042e79dfb4e2e99f4c2de516e736275db3cddff20f6b57eeefa4d9102de43d40c012102f38ffcae5e08b010d1982f747da73ea9210e9be9de1ee241607fc18faed0e098", "asm": "304402207d682da828084f34d2552df89cda4eeabab5513e9f727de0ca5e344fe6db0b02022042e79dfb4e2e99f4c2de516e736275db3cddff20f6b57eeefa4d9102de43d40c[ALL] 02f38ffcae5e08b010d1982f747da73ea9210e9be9de1ee241607fc18faed0e098"}, "vout": 3, "txid": "b33d6b02ead7f2a9c4d9ed4e6e0885992de9c9a8d5669547b7b61664843f1a60"}, {"sequence": 4294967295, "scriptSig": {"hex": "4730440220239d4a6ac033582da8397e8ab0d99188f324bd20ef042ae50f85ba893e47cd42022026e2fb61fabfefd19f0ec67fafd8a2a7988720e798eacc906cd359f1e2aca1af012102260aaa4b5f8bb197aee67a3a79b2820ed73ffc041f774e1c5e97cf0619238464", "asm": "30440220239d4a6ac033582da8397e8ab0d99188f324bd20ef042ae50f85ba893e47cd42022026e2fb61fabfefd19f0ec67fafd8a2a7988720e798eacc906cd359f1e2aca1af[ALL] 02260aaa4b5f8bb197aee67a3a79b2820ed73ffc041f774e1c5e97cf0619238464"}, "vout": 1, "txid": "1977cbb6c6713e58696215f0783482ae8341daf2efd8ed24fbd3039d57c7b533"}, {"sequence": 4294967295, "scriptSig": {"hex": "47304402203e7e5647d20589db2699ce5f780f20f50d06755bcf8c0ac637ac4776eb13d68902207a346ec1fea08d79b5af02af6ca2f7765ff8025582a10182bbc95233573f922b0121025022b378064226da2acfecd8ddbdd5a84f7de08569fdb0b39a5d3e230c15fd5a", "asm": "304402203e7e5647d20589db2699ce5f780f20f50d06755bcf8c0ac637ac4776eb13d68902207a346ec1fea08d79b5af02af6ca2f7765ff8025582a10182bbc95233573f922b[ALL] 025022b378064226da2acfecd8ddbdd5a84f7de08569fdb0b39a5d3e230c15fd5a"}, "vout": 0, "txid": "f98112f9d2c9f06503ad3a1666751bcdd1fd9f5e67fa97f60e9a6de7f3febdd2"}, {"sequence": 4294967295, "scriptSig": {"hex": "483045022100f2ed4c41f260c5fe22afd2faec31032286512da8ad62612a5520687d49ac3b9302204e9a7823966266b3aad9f2952aac8fe4394ee9d88e9da7a43d33fd352c6779ac012102260aaa4b5f8bb197aee67a3a79b2820ed73ffc041f774e1c5e97cf0619238464", "asm": "3045022100f2ed4c41f260c5fe22afd2faec31032286512da8ad62612a5520687d49ac3b9302204e9a7823966266b3aad9f2952aac8fe4394ee9d88e9da7a43d33fd352c6779ac[ALL] 02260aaa4b5f8bb197aee67a3a79b2820ed73ffc041f774e1c5e97cf0619238464"}, "vout": 0, "txid": "e3fe39fdc759c8df4a75898a945aaf9d77c1b311ae2573a1a4ba1905e752186c"}, {"sequence": 4294967295, "scriptSig": {"hex": "483045022100c27c9f2e97d4145c1284c221c40d460e4f5dd480f27b602df5945a5e14c024dd0220456756fab5fe2e208a86cbd8f00252afc0d69d281cc120ca039230c9711c26c4012102ac5a169e9948af04548bbf80c0bdbe36ecb72b55a4db5b0f523620a765be0af4", "asm": "3045022100c27c9f2e97d4145c1284c221c40d460e4f5dd480f27b602df5945a5e14c024dd0220456756fab5fe2e208a86cbd8f00252afc0d69d281cc120ca039230c9711c26c4[ALL] 02ac5a169e9948af04548bbf80c0bdbe36ecb72b55a4db5b0f523620a765be0af4"}, "vout": 1, "txid": "bbc88830acb8f464df5611e3fc270835aa4b924bd42acb236a498ee2910dabb4"}, {"sequence": 4294967295, "scriptSig": {"hex": "48304502210085d19b50124c6ac540554618b9ef3d5deb9f1535afdddffffb6c1574b88809ab022068b4568fbae24f883b03cc47d66545b0c37a182def565f5641defba57ce65071012102ac5a169e9948af04548bbf80c0bdbe36ecb72b55a4db5b0f523620a765be0af4", "asm": "304502210085d19b50124c6ac540554618b9ef3d5deb9f1535afdddffffb6c1574b88809ab022068b4568fbae24f883b03cc47d66545b0c37a182def565f5641defba57ce65071[ALL] 02ac5a169e9948af04548bbf80c0bdbe36ecb72b55a4db5b0f523620a765be0af4"}, "vout": 0, "txid": "366641a12c0d3e81d099b7f6e06373647bfbf520bed05ed6c72ba4c957896fd1"}, {"sequence": 4294967295, "scriptSig": {"hex": "483045022100821c7bff48ac0104a697088294aefd6d06b467e42289143092ec4b7a9cde925b02206a9222dd6ce4ceba8e243df2e06a011069d9fe0c784d4e9e68fecb5444d99cbf01210396a0530e9bfd8d9af35bbca7e6cfb85a3748a1bf327b132712ab1b2233e3b8f0", "asm": "3045022100821c7bff48ac0104a697088294aefd6d06b467e42289143092ec4b7a9cde925b02206a9222dd6ce4ceba8e243df2e06a011069d9fe0c784d4e9e68fecb5444d99cbf[ALL] 0396a0530e9bfd8d9af35bbca7e6cfb85a3748a1bf327b132712ab1b2233e3b8f0"}, "vout": 1, "txid": "eef1c82c8c1690955a2e9346f4bd8dc22fa486305bd4ec117225ce08af38858f"}, {"sequence": 4294967295, "scriptSig": {"hex": "4830450221009a3c5659caa673e0a81e8776dd2ec46ae9c6bff3a6bdd172a1c5db1e26014e5a02206d3e3619aadda67b32fdffebac2649bbda1622bd233f7afd4b4e83d3a73d7aae0121031ba4049915c8b75bb9a18eb47938b75ccfedad3a8c9bfa0b39834a6e86657784", "asm": "30450221009a3c5659caa673e0a81e8776dd2ec46ae9c6bff3a6bdd172a1c5db1e26014e5a02206d3e3619aadda67b32fdffebac2649bbda1622bd233f7afd4b4e83d3a73d7aae[ALL] 031ba4049915c8b75bb9a18eb47938b75ccfedad3a8c9bfa0b39834a6e86657784"}, "vout": 1, "txid": "e4f43cfde9b1867dd36c43c982b642ad90f26967d9a8f49008c77cb3e019384a"}, {"sequence": 4294967295, "scriptSig": {"hex": "473044022044b0821a71fb522922b890ab4321949c6328dedc8e5b296048dee1aa829349ec02201c8e26871cf49d4d57d5b463ba4e776d53634413bcba52083c515ab5dded049f012103e35a4b4b1eb0bde13a8c18b1279b54514c7f32032a4246eff6e2b28a11e1cf4e", "asm": "3044022044b0821a71fb522922b890ab4321949c6328dedc8e5b296048dee1aa829349ec02201c8e26871cf49d4d57d5b463ba4e776d53634413bcba52083c515ab5dded049f[ALL] 03e35a4b4b1eb0bde13a8c18b1279b54514c7f32032a4246eff6e2b28a11e1cf4e"}, "vout": 21, "txid": "3c4b6681a89efecf3d244abbe6971ef99e8c2792228de0cbc72bf026e9748007"}, {"sequence": 4294967295, "scriptSig": {"hex": "483045022100eac5bd491c0dd896f9b2c9c289f71990cee66edbc998091934ca3655712a1c47022009d32eed7cc4050cea2daba894ecbaf12a964e50a7618273b5b575e2a0da3ba6012103390e121888d94987dd77d74a40e643eaa24ae61410533046b363d602096312ce", "asm": "3045022100eac5bd491c0dd896f9b2c9c289f71990cee66edbc998091934ca3655712a1c47022009d32eed7cc4050cea2daba894ecbaf12a964e50a7618273b5b575e2a0da3ba6[ALL] 03390e121888d94987dd77d74a40e643eaa24ae61410533046b363d602096312ce"}, "vout": 17, "txid": "f77b6c2646744cd276ed77fcb47c1c53df2b02d69dfafc31fed4f6aa311b4f02"}, {"sequence": 4294967295, "scriptSig": {"hex": "48304502210099abdb417bdb5a674cb42e6edc80ddc9049d25c14b70b14489c12d1f86047da102201689642a38bf5d85f5a8f5e74e1bac1e058dda4183543add2c44f764d118c018012103af4ffaab89cb2f0bce0567f849cf659c5490bed3414d0ba35b759b8e14fc82aa", "asm": "304502210099abdb417bdb5a674cb42e6edc80ddc9049d25c14b70b14489c12d1f86047da102201689642a38bf5d85f5a8f5e74e1bac1e058dda4183543add2c44f764d118c018[ALL] 03af4ffaab89cb2f0bce0567f849cf659c5490bed3414d0ba35b759b8e14fc82aa"}, "vout": 0, "txid": "70abb68e8aa158ef87a2f218ec380064a0fd7b06d18b5ded128e4c74c3955440"}, {"sequence": 4294967295, "scriptSig": {"hex": "47304402201ff3da287372bf895a83b27ab6ee89ab8204f15fa11321973268c6f6db75dc6b022054375e9c94f74ccae6bc65bd2f529ea33ed18dd89ffbc7fa548936c59f43e14b012102a709503aa45374a164e84f9c732e4110060bb2412f56f09dd5949fcc52b686af", "asm": "304402201ff3da287372bf895a83b27ab6ee89ab8204f15fa11321973268c6f6db75dc6b022054375e9c94f74ccae6bc65bd2f529ea33ed18dd89ffbc7fa548936c59f43e14b[ALL] 02a709503aa45374a164e84f9c732e4110060bb2412f56f09dd5949fcc52b686af"}, "vout": 0, "txid": "0ffa18fa5c9bd3fc13c988e69e43ce967d7d3abcdd9d4f8ddeb52123978d983b"}, {"sequence": 4294967295, "scriptSig": {"hex": "47304402206b413d6a002404574c85b4011a7ed074f578539dfd55af503df6b9c05d1be5fd0220295dcdf63544a3dc5d16879a58a030c48768024f9e9a191acb7e0464ea1a5a9d0121038195481aa262d9e6cdeebcf89557186a686ca63151b796798ee08188f08348d7", "asm": "304402206b413d6a002404574c85b4011a7ed074f578539dfd55af503df6b9c05d1be5fd0220295dcdf63544a3dc5d16879a58a030c48768024f9e9a191acb7e0464ea1a5a9d[ALL] 038195481aa262d9e6cdeebcf89557186a686ca63151b796798ee08188f08348d7"}, "vout": 0, "txid": "ed62c6382257c689d01d5778483c9c5721ef7e908183af37a09ab9ddd4e05ffd"}, {"sequence": 4294967295, "scriptSig": {"hex": "473044022039677c0fcefd4182610abf5cda01cd95246b2fad38f21b9d549bbe662d18c66a0220548d4ebcd17cafc0281510f0b5c2ff7e1f97e35ae0ed7915cb7b94b66bff485e01210236cbfaa2a9e5cb46d2a873f6b378e41d3f0921f5cca0cc34a06c540d8c00df9e", "asm": "3044022039677c0fcefd4182610abf5cda01cd95246b2fad38f21b9d549bbe662d18c66a0220548d4ebcd17cafc0281510f0b5c2ff7e1f97e35ae0ed7915cb7b94b66bff485e[ALL] 0236cbfaa2a9e5cb46d2a873f6b378e41d3f0921f5cca0cc34a06c540d8c00df9e"}, "vout": 0, "txid": "152d0c7628b6bc5f1cea61a513d60b73d6271689e33a420ead907fd8fe6c1a20"}, {"sequence": 4294967295, "scriptSig": {"hex": "483045022100eef2bc3a9ce3ebdd04fd9dc4c235eeb2a8c27532fcda0014b11cf95fd295508102207b6b1b5f087196bf2909552a7bdbd283fd15649754bacbfa3b5391ab113c15d2012103d40bbfc59374677dbb3002debcdc7238250a15f656e9b6baab46d0a80f5a9e56", "asm": "3045022100eef2bc3a9ce3ebdd04fd9dc4c235eeb2a8c27532fcda0014b11cf95fd295508102207b6b1b5f087196bf2909552a7bdbd283fd15649754bacbfa3b5391ab113c15d2[ALL] 03d40bbfc59374677dbb3002debcdc7238250a15f656e9b6baab46d0a80f5a9e56"}, "vout": 0, "txid": "924865623401b82bea5ababb49aa477e4436be9b57844bc234aef18981448513"}, {"sequence": 4294967295, "scriptSig": {"hex": "47304402206534c79cc0eed76807e4ea9e98300c749c54109356419ffad19943633c2725db022049b19e823c67fe710ddb09c6aa8fd82f615ed0fe28a8617487d41a6d4e362c8e012102a216206fc7db5c04f98c9ddbab4ba3234aaabcbbb7c3bfc196370b90ddd7d329", "asm": "304402206534c79cc0eed76807e4ea9e98300c749c54109356419ffad19943633c2725db022049b19e823c67fe710ddb09c6aa8fd82f615ed0fe28a8617487d41a6d4e362c8e[ALL] 02a216206fc7db5c04f98c9ddbab4ba3234aaabcbbb7c3bfc196370b90ddd7d329"}, "vout": 4, "txid": "0f8ddaf8bf94c2e903d30ed35a2bd7c1ede7e2206b580760b4219015a59c1d7d"}, {"sequence": 4294967295, "scriptSig": {"hex": "47304402200b279b7f67330f4a7e0e04897e98c340c58fa47d238dc6d72b26af50207dd44102203b494812b933384f2a0b189dc42b7da6baf7e58b99d8d6c9049649a791a1f2e401210248a8321616e051d32c992df02c4a041b42b82307fcb4f2fd0b61ebfc6edec038", "asm": "304402200b279b7f67330f4a7e0e04897e98c340c58fa47d238dc6d72b26af50207dd44102203b494812b933384f2a0b189dc42b7da6baf7e58b99d8d6c9049649a791a1f2e4[ALL] 0248a8321616e051d32c992df02c4a041b42b82307fcb4f2fd0b61ebfc6edec038"}, "vout": 0, "txid": "653dc9c812506b00dc39742d178a7fcd0ed1fda4a164f3a97a1607621e09eca3"}, {"sequence": 4294967295, "scriptSig": {"hex": "4730440220446f13a8277893b1c144d44d90ac138ad71fe4f8e374069481d784807ff45a0f02203617c5fb69f4a14497afdaab38873d4dc676fd63ffd9d8e3704b9314e49f32ea012102260aaa4b5f8bb197aee67a3a79b2820ed73ffc041f774e1c5e97cf0619238464", "asm": "30440220446f13a8277893b1c144d44d90ac138ad71fe4f8e374069481d784807ff45a0f02203617c5fb69f4a14497afdaab38873d4dc676fd63ffd9d8e3704b9314e49f32ea[ALL] 02260aaa4b5f8bb197aee67a3a79b2820ed73ffc041f774e1c5e97cf0619238464"}, "vout": 0, "txid": "baf49ee782fc1b3a4b778a57d5202b4997bc6560cf55b821e264b110244e5fa7"}, {"sequence": 4294967295, "scriptSig": {"hex": "47304402200a11645fadf9eebe43addbd3bf06afc1d8e32870f89f7e20d1b0447bc7b92d0202202f9f37308bffa8f318d8b8659f34fcf20cf7bb209f56af66a49684f4344c75d50121021ba7fe2c6bccf2e4d8e54cf0d4c9f94a076cf1c8452155a2df87778ad22c92b6", "asm": "304402200a11645fadf9eebe43addbd3bf06afc1d8e32870f89f7e20d1b0447bc7b92d0202202f9f37308bffa8f318d8b8659f34fcf20cf7bb209f56af66a49684f4344c75d5[ALL] 021ba7fe2c6bccf2e4d8e54cf0d4c9f94a076cf1c8452155a2df87778ad22c92b6"}, "vout": 12, "txid": "4b72ad4159001b72758eb990966271e30657ff4c57d34431023f856f784303f4"}, {"sequence": 4294967295, "scriptSig": {"hex": "4830450221008770a4da7d35d25f4eaa59080fe7ce774a24b3ea574bbe94742bae1257942410022026308fd0bf94292625be063e2fd4766762dd38efe434480cc44cf553ab2dc5ba012102ef90d4f23c55aaf19c5b783f2b095cf2a45a866f43eba19936ef67af52ef42b1", "asm": "30450221008770a4da7d35d25f4eaa59080fe7ce774a24b3ea574bbe94742bae1257942410022026308fd0bf94292625be063e2fd4766762dd38efe434480cc44cf553ab2dc5ba[ALL] 02ef90d4f23c55aaf19c5b783f2b095cf2a45a866f43eba19936ef67af52ef42b1"}, "vout": 1, "txid": "fd249f49f01a42d3865e6420d08310b6a760338efc71ecee70da4b70e393cf55"}, {"sequence": 4294967295, "scriptSig": {"hex": "483045022100884395d1de88da0f33442b3578536d0f8c60119d47e57ae6987a117637f973e102202fe00799385b6dc999e5587fe339550ff5b83e5a61975255edd44e57415090c7012103f2f4475f63b7d75a7dc024fda195e2d842e518c9ed523a63d185631ffbadbcd7", "asm": "3045022100884395d1de88da0f33442b3578536d0f8c60119d47e57ae6987a117637f973e102202fe00799385b6dc999e5587fe339550ff5b83e5a61975255edd44e57415090c7[ALL] 03f2f4475f63b7d75a7dc024fda195e2d842e518c9ed523a63d185631ffbadbcd7"}, "vout": 0, "txid": "adcfbb017e52a9961f5f6b81827cd068afa59856b83e1be9994d7b992823d98a"}, {"sequence": 4294967295, "scriptSig": {"hex": "47304402202504dc395bddcfd7a02bac4b0c3e01622f18fea567a46d58e09f35516c6341a102202ce83ea58f2c11fbecce7bca9eef4cac9caa5903d4ab56e2379e5538df9b4eb4012103a81eb5d482b62ac45e0c0be240d635fc8ce5dedd911e3663ba4a0ea615f21fdb", "asm": "304402202504dc395bddcfd7a02bac4b0c3e01622f18fea567a46d58e09f35516c6341a102202ce83ea58f2c11fbecce7bca9eef4cac9caa5903d4ab56e2379e5538df9b4eb4[ALL] 03a81eb5d482b62ac45e0c0be240d635fc8ce5dedd911e3663ba4a0ea615f21fdb"}, "vout": 0, "txid": "1d23bc940807cd4783dc8c8393ab44252246541c5b514fe3b857fa8859355fa6"}, {"sequence": 4294967295, "scriptSig": {"hex": "47304402202885337a4f8711ba5cadbe38230e111ee5f0d2829499c874d399f14c773779ce022022861e8a1140307f9de549475a9be3e3ace75c897ba2ad5e655bb5e57d107e0f01210220b9c5d0645dfce810b474baf2f11a1f122f4aeddad2268803abd629b1e7c800", "asm": "304402202885337a4f8711ba5cadbe38230e111ee5f0d2829499c874d399f14c773779ce022022861e8a1140307f9de549475a9be3e3ace75c897ba2ad5e655bb5e57d107e0f[ALL] 0220b9c5d0645dfce810b474baf2f11a1f122f4aeddad2268803abd629b1e7c800"}, "vout": 8, "txid": "51d378bf78169e22877c19ced45c1674dee0e5ff382851128eb3c4d798670361"}, {"sequence": 4294967295, "scriptSig": {"hex": "483045022100c4516891fac86a5e85a9c908548d673167937a8d87d9e24e331d3359bf7ebd0402206c1d34bfd7fe849085b1f6dde192f8d2e99df909a3d4b8a161e7ba929ad945b60121020e670711c683e87e761408322cdd39b3f6e97207d9fc0c0848bf09869f9417b7", "asm": "3045022100c4516891fac86a5e85a9c908548d673167937a8d87d9e24e331d3359bf7ebd0402206c1d34bfd7fe849085b1f6dde192f8d2e99df909a3d4b8a161e7ba929ad945b6[ALL] 020e670711c683e87e761408322cdd39b3f6e97207d9fc0c0848bf09869f9417b7"}, "vout": 3, "txid": "dc3c1d1f5a720f7812555c66d8b7c441f3a01d7fad9076ead03314018e509b16"}, {"sequence": 4294967295, "scriptSig": {"hex": "483045022100cb0649007d2bc483e1b05e8a4e29f219d8fa9e64729bea8adccc76bec2c606e50220335e8551f111dc2b817f65fb1209635a319630a83afd4a162086bae51a81aaf6012102260aaa4b5f8bb197aee67a3a79b2820ed73ffc041f774e1c5e97cf0619238464", "asm": "3045022100cb0649007d2bc483e1b05e8a4e29f219d8fa9e64729bea8adccc76bec2c606e50220335e8551f111dc2b817f65fb1209635a319630a83afd4a162086bae51a81aaf6[ALL] 02260aaa4b5f8bb197aee67a3a79b2820ed73ffc041f774e1c5e97cf0619238464"}, "vout": 0, "txid": "7ac601b0c545db0982a26fb9a9f4430a4c85516e683cf073bd2e8692c2aa860f"}], "txid": "febd3e85422d00dc1e22f03f5f3260600fbc48c77848214caf16d8165bb470a1", "blocktime": 1537870268, "version": 1, "confirmations": 11516, "time": 1537870268, "locktime": 0, "vsize": 4835, "size": 4835}