{"hash": "febd283a6b1e7224a3110c8399c992254b933d6c5783c65581a5131a415ba55c", "blockhash": "00000000000000000017f5eb5941039fbcee6240d03bc1f2f8e35350df66a1d8", "vout": [{"scriptPubKey": {"reqSigs": 1, "hex": "76a91431823b24f3253458004ec7bb6d850fb1e1dd632e88ac", "addresses": ["15Wn81cCxWrchSjRd35fpgC8Xc59NZ9pqu"], "asm": "OP_DUP OP_HASH160 31823b24f3253458004ec7bb6d850fb1e1dd632e OP_EQUALVERIFY OP_CHECKSIG", "type": "pubkeyhash"}, "value": 0.00056545, "n": 0}, {"scriptPubKey": {"reqSigs": 1, "hex": "76a914c0941b60cc85466a205365de20b9a22290cef36a88ac", "addresses": ["1JZGAUyw1K2vbqFcWL4XzXmMwPvTqZzHdk"], "asm": "OP_DUP OP_HASH160 c0941b60cc85466a205365de20b9a22290cef36a OP_EQUALVERIFY OP_CHECKSIG", "type": "pubkeyhash"}, "value": 0.0055, "n": 1}], "hex": "010000000257e928261ce12126bf98ac92a00fb39eb25bd40bee729d6f333a01aa27d4940e010000006b483045022100949564800030e8d8881d9068dbe475f70d91e8be571eb3c12be71e1215f95bf8022042a4571decba4725d25e4ae0d1e5ae4dc16a29e012c7285ffb1411771b69ffd701210207d54f7e09541488c89bf6e6bfbab94cd97699c58410efe0103cb750c8988f0afdffffff493f45df77ddf194a3ebba4e780c3a181b26907be1c58880e7534b43e437fa9a010000006a473044022069b609c82d106e437db119c2d08554d7aaf34de317b81218c4ef85397823b95a022007fa7c52d051c3ce7c036b14fc04ddf7b90a87f1444c716ca97092332c14f4fd012103ebb3fa758aa7616a06564f875449ace18bd266e91a15f551b674ad39dd40175cfdffffff02e1dc0000000000001976a91431823b24f3253458004ec7bb6d850fb1e1dd632e88ac70640800000000001976a914c0941b60cc85466a205365de20b9a22290cef36a88ac15490800", "vin": [{"sequence": 4294967293, "scriptSig": {"hex": "483045022100949564800030e8d8881d9068dbe475f70d91e8be571eb3c12be71e1215f95bf8022042a4571decba4725d25e4ae0d1e5ae4dc16a29e012c7285ffb1411771b69ffd701210207d54f7e09541488c89bf6e6bfbab94cd97699c58410efe0103cb750c8988f0a", "asm": "3045022100949564800030e8d8881d9068dbe475f70d91e8be571eb3c12be71e1215f95bf8022042a4571decba4725d25e4ae0d1e5ae4dc16a29e012c7285ffb1411771b69ffd7[ALL] 0207d54f7e09541488c89bf6e6bfbab94cd97699c58410efe0103cb750c8988f0a"}, "vout": 1, "txid": "0e94d427aa013a336f9d72ee0bd45bb29eb30fa092ac98bf2621e11c2628e957"}, {"sequence": 4294967293, "scriptSig": {"hex": "473044022069b609c82d106e437db119c2d08554d7aaf34de317b81218c4ef85397823b95a022007fa7c52d051c3ce7c036b14fc04ddf7b90a87f1444c716ca97092332c14f4fd012103ebb3fa758aa7616a06564f875449ace18bd266e91a15f551b674ad39dd40175c", "asm": "3044022069b609c82d106e437db119c2d08554d7aaf34de317b81218c4ef85397823b95a022007fa7c52d051c3ce7c036b14fc04ddf7b90a87f1444c716ca97092332c14f4fd[ALL] 03ebb3fa758aa7616a06564f875449ace18bd266e91a15f551b674ad39dd40175c"}, "vout": 1, "txid": "9afa37e4434b53e78088c5e17b90261b183a0c784ebaeba394f1dd77df453f49"}], "txid": "febd283a6b1e7224a3110c8399c992254b933d6c5783c65581a5131a415ba55c", "blocktime": 1537874412, "version": 1, "confirmations": 11468, "time": 1537874412, "locktime": 542997, "vsize": 373, "size": 373}