{"hash": "febdebdeaf1d7d797d9ccbce849aa7cd8c9dfbc109e4fd7753f8eea0c89c37d3", "blockhash": "00000000000000000004ffacab907a6b429b9a5745fa0b75af4234bf69dd7176", "vout": [{"scriptPubKey": {"reqSigs": 1, "hex": "76a9148f8cc3864bf91b540091267841a0418dce7309f188ac", "addresses": ["1E62FsT3QaPRhoAFastxtA7ZtdGcqYMRUo"], "asm": "OP_DUP OP_HASH160 8f8cc3864bf91b540091267841a0418dce7309f1 OP_EQUALVERIFY OP_CHECKSIG", "type": "pubkeyhash"}, "value": 0.1068, "n": 0}, {"scriptPubKey": {"reqSigs": 1, "hex": "76a9145d6f5f946576537ecf530fef87d62a577b8b628388ac", "addresses": ["19X3GCR5RYzZ4F9k8eAhaSKshBAG2Z7WVU"], "asm": "OP_DUP OP_HASH160 5d6f5f946576537ecf530fef87d62a577b8b6283 OP_EQUALVERIFY OP_CHECKSIG", "type": "pubkeyhash"}, "value": 0.01664294, "n": 1}], "hex": "0100000002a20f09fc210fe1a00e909a1b60b9aeb6a370fcccf36683400e1d6ac410b2b5eb000000006a4730440220367d8ddef67227dc51964adc9366332e577fb34a8692e03b0982a7347cf8275602204cc8b6dec5d9ca1b671f378be19be8df67e41fab222e2692b94c62e32c716fa601210382cba36fc37379c62c01e9639695dc56fd09d3a047e2e1c6c2022b17a812dc3bfeffffff05b92e0c982d7d0e3e97f16a750463f8b1ffc0b08eba7cef86f69f6554086b28000000006b483045022100f4ae9d247ea786795999aa3022d37fa5a69f3321b6c73235f5b0549b8c4bd9d6022076be8757e0205e77e87bd3f41064875f4daf3ae5718d9c38a22d6f101ed6ff4b01210204158e50699654a7dd5a6170c75b039a4a40a76f2aea98c64cf4027794adc33cfeffffff02c0f6a200000000001976a9148f8cc3864bf91b540091267841a0418dce7309f188ac26651900000000001976a9145d6f5f946576537ecf530fef87d62a577b8b628388ac16490800", "vin": [{"sequence": 4294967294, "scriptSig": {"hex": "4730440220367d8ddef67227dc51964adc9366332e577fb34a8692e03b0982a7347cf8275602204cc8b6dec5d9ca1b671f378be19be8df67e41fab222e2692b94c62e32c716fa601210382cba36fc37379c62c01e9639695dc56fd09d3a047e2e1c6c2022b17a812dc3b", "asm": "30440220367d8ddef67227dc51964adc9366332e577fb34a8692e03b0982a7347cf8275602204cc8b6dec5d9ca1b671f378be19be8df67e41fab222e2692b94c62e32c716fa6[ALL] 0382cba36fc37379c62c01e9639695dc56fd09d3a047e2e1c6c2022b17a812dc3b"}, "vout": 0, "txid": "ebb5b210c46a1d0e408366f3ccfc70a3b6aeb9601b9a900ea0e10f21fc090fa2"}, {"sequence": 4294967294, "scriptSig": {"hex": "483045022100f4ae9d247ea786795999aa3022d37fa5a69f3321b6c73235f5b0549b8c4bd9d6022076be8757e0205e77e87bd3f41064875f4daf3ae5718d9c38a22d6f101ed6ff4b01210204158e50699654a7dd5a6170c75b039a4a40a76f2aea98c64cf4027794adc33c", "asm": "3045022100f4ae9d247ea786795999aa3022d37fa5a69f3321b6c73235f5b0549b8c4bd9d6022076be8757e0205e77e87bd3f41064875f4daf3ae5718d9c38a22d6f101ed6ff4b[ALL] 0204158e50699654a7dd5a6170c75b039a4a40a76f2aea98c64cf4027794adc33c"}, "vout": 0, "txid": "286b0854659ff686ef7cba8eb0c0ffb1f86304756af1973e0e7d2d980c2eb905"}], "txid": "febdebdeaf1d7d797d9ccbce849aa7cd8c9dfbc109e4fd7753f8eea0c89c37d3", "blocktime": 1537875543, "version": 1, "confirmations": 11464, "time": 1537875543, "locktime": 542998, "vsize": 373, "size": 373}