{"hash": "fec80e062456ad2431799df731a4ce90c1cef03f5ee66dfbd6fa7e7058e42881", "blockhash": "0000000000000000000e13cef7c366c0283d82e591d1acd082e914b08063cdf1", "vout": [{"scriptPubKey": {"reqSigs": 1, "hex": "76a914b630692e2c5ca0731e6f4705fdd65119824d82b588ac", "addresses": ["1HcKyZQWg3XQEmekfqguWtxNfb65SieEQ7"], "asm": "OP_DUP OP_HASH160 b630692e2c5ca0731e6f4705fdd65119824d82b5 OP_EQUALVERIFY OP_CHECKSIG", "type": "pubkeyhash"}, "value": 0.15622266, "n": 0}, {"scriptPubKey": {"reqSigs": 1, "hex": "76a914188c28d30b0b391ff05f2678d17cd388b1c70d7f88ac", "addresses": ["13Eo84AqxTEcU9cwx2TrHRzoTudE74mdkL"], "asm": "OP_DUP OP_HASH160 188c28d30b0b391ff05f2678d17cd388b1c70d7f OP_EQUALVERIFY OP_CHECKSIG", "type": "pubkeyhash"}, "value": 0.41492163, "n": 1}], "hex": "0100000001f90ece1f30829b4ec82cb1676126da5633441a18d97674631b6945230d954916010000006a473044022048ec2df4b6e9c4fe0890c3842cc07e9a06f53a63ab2c67b7a4f3ea18d08be3550220317a7fe1503f0175f56fe0db6b20e5e9b2e2eb5915fa1d37f1f78b0bdd21e29d012102899b404e8ad17ad44dc4fa6a745ab3a79acc38a67ef103b910202c155669b5aaffffffff027a60ee00000000001976a914b630692e2c5ca0731e6f4705fdd65119824d82b588acc31e7902000000001976a914188c28d30b0b391ff05f2678d17cd388b1c70d7f88ac00000000", "vin": [{"sequence": 4294967295, "scriptSig": {"hex": "473044022048ec2df4b6e9c4fe0890c3842cc07e9a06f53a63ab2c67b7a4f3ea18d08be3550220317a7fe1503f0175f56fe0db6b20e5e9b2e2eb5915fa1d37f1f78b0bdd21e29d012102899b404e8ad17ad44dc4fa6a745ab3a79acc38a67ef103b910202c155669b5aa", "asm": "3044022048ec2df4b6e9c4fe0890c3842cc07e9a06f53a63ab2c67b7a4f3ea18d08be3550220317a7fe1503f0175f56fe0db6b20e5e9b2e2eb5915fa1d37f1f78b0bdd21e29d[ALL] 02899b404e8ad17ad44dc4fa6a745ab3a79acc38a67ef103b910202c155669b5aa"}, "vout": 1, "txid": "1649950d2345691b637476d9181a443356da266167b12cc84e9b82301fce0ef9"}], "txid": "fec80e062456ad2431799df731a4ce90c1cef03f5ee66dfbd6fa7e7058e42881", "blocktime": 1537871767, "version": 1, "confirmations": 11493, "time": 1537871767, "locktime": 0, "vsize": 225, "size": 225}