{"hash": "fecee04acb1cf19167f30a900703c702c0e7d82a80fcd983f9eaa2d868401b23", "blockhash": "0000000000000000000dcc0f55137456b1a82d3642486a52398922ac4d620174", "vout": [{"scriptPubKey": {"reqSigs": 1, "hex": "76a914af95d756a17a8556dbec4d458647d0450a7233be88ac", "addresses": ["1H1Qkib6NpmhEkJrxvw1u7FCHLRxaywVqh"], "asm": "OP_DUP OP_HASH160 af95d756a17a8556dbec4d458647d0450a7233be OP_EQUALVERIFY OP_CHECKSIG", "type": "pubkeyhash"}, "value": 0.00538035, "n": 0}, {"scriptPubKey": {"reqSigs": 1, "hex": "76a914c208991f50925616dcf4308f19159aadb6645e5a88ac", "addresses": ["1JgxPdBuGmhN3nf7vd9pvhHm2ENrw7GqtV"], "asm": "OP_DUP OP_HASH160 c208991f50925616dcf4308f19159aadb6645e5a OP_EQUALVERIFY OP_CHECKSIG", "type": "pubkeyhash"}, "value": 9.45e-05, "n": 1}], "hex": "01000000029bcc24fa15078f5dcc386ea3e79195ce3e2deb7c4e71304d3176997d207df141010000006b483045022100ea0b396bfdf4c5a79f647d1614f16501f54985d3c9f12ec2abbca0c58963e85302205df63b205b0fce21fff83a2929dbe4c8a0ae8529852e5914a66c526037bf402701210232fba9c12cad663bffddb079b50f9a804472338ad34bc291e895937dbce191edffffffff834504effa09d1970525465f3629200a9cc44d987058d741fdbe9c35c9d8bec8010000006a473044022019039e6b34c50b93a65c3e07ccdad28c28f67c0639955d4ca81ff917597ca0ff02206e3e3144c87ed8103577880a79be1c776298b3ac97feceef57efa992942724860121032f79194bc639b7d4458d6d661d93f48f469d07e76bd512c9cd3fecdf64b7caadffffffff02b3350800000000001976a914af95d756a17a8556dbec4d458647d0450a7233be88acea240000000000001976a914c208991f50925616dcf4308f19159aadb6645e5a88ac00000000", "vin": [{"sequence": 4294967295, "scriptSig": {"hex": "483045022100ea0b396bfdf4c5a79f647d1614f16501f54985d3c9f12ec2abbca0c58963e85302205df63b205b0fce21fff83a2929dbe4c8a0ae8529852e5914a66c526037bf402701210232fba9c12cad663bffddb079b50f9a804472338ad34bc291e895937dbce191ed", "asm": "3045022100ea0b396bfdf4c5a79f647d1614f16501f54985d3c9f12ec2abbca0c58963e85302205df63b205b0fce21fff83a2929dbe4c8a0ae8529852e5914a66c526037bf4027[ALL] 0232fba9c12cad663bffddb079b50f9a804472338ad34bc291e895937dbce191ed"}, "vout": 1, "txid": "41f17d207d9976314d30714e7ceb2d3ece9591e7a36e38cc5d8f0715fa24cc9b"}, {"sequence": 4294967295, "scriptSig": {"hex": "473044022019039e6b34c50b93a65c3e07ccdad28c28f67c0639955d4ca81ff917597ca0ff02206e3e3144c87ed8103577880a79be1c776298b3ac97feceef57efa992942724860121032f79194bc639b7d4458d6d661d93f48f469d07e76bd512c9cd3fecdf64b7caad", "asm": "3044022019039e6b34c50b93a65c3e07ccdad28c28f67c0639955d4ca81ff917597ca0ff02206e3e3144c87ed8103577880a79be1c776298b3ac97feceef57efa99294272486[ALL] 032f79194bc639b7d4458d6d661d93f48f469d07e76bd512c9cd3fecdf64b7caad"}, "vout": 1, "txid": "c8bed8c9359cbefd41d75870984dc49c0a2029365f46250597d109faef044583"}], "txid": "fecee04acb1cf19167f30a900703c702c0e7d82a80fcd983f9eaa2d868401b23", "blocktime": 1537870268, "version": 1, "confirmations": 11516, "time": 1537870268, "locktime": 0, "vsize": 373, "size": 373}