{"hash": "fed020f646f1f2c9c02fbf6628daab2ba93a86db0c5509e0a77ee55fe59e5162", "blockhash": "000000000000000000022b45ed06c6f4ccd3cf7fb5ba4856ebd2e58215665228", "vout": [{"scriptPubKey": {"reqSigs": 1, "hex": "76a91438e6024e1f45ac6fb246a972cf44eed91917f10288ac", "addresses": ["16BrP3oWzxxa4FqeYd7NuRNPCfHGZN1c2g"], "asm": "OP_DUP OP_HASH160 38e6024e1f45ac6fb246a972cf44eed91917f102 OP_EQUALVERIFY OP_CHECKSIG", "type": "pubkeyhash"}, "value": 5.46e-06, "n": 0}, {"scriptPubKey": {"type": "nulldata", "hex": "6a146f6d6e69000000000000001f0000000000989e50", "asm": "OP_RETURN 6f6d6e69000000000000001f0000000000989e50"}, "value": 0.0, "n": 1}, {"scriptPubKey": {"reqSigs": 1, "hex": "76a914548b6f93a7c63fce52b7bc1ac75adeca79b17dd488ac", "addresses": ["18i2oHbtyCfx52iJB5fA3gKB9XYr81uSpK"], "asm": "OP_DUP OP_HASH160 548b6f93a7c63fce52b7bc1ac75adeca79b17dd4 OP_EQUALVERIFY OP_CHECKSIG", "type": "pubkeyhash"}, "value": 0.00168362, "n": 2}], "hex": "0100000001cfc40f702ffcf2b9e41cb1e8c731732e7d97ae8c6aa662b06442c765940f058e020000006b483045022100898e8cfadec5f513557c7ba6b5a1acad98972b696531459477c114655da919d002203651e4c8643143c634fd822dab38b35d351834cce6870472f2844a19ba06deb901210341cc38f427d5b4f412202a130608069a5ff454f5a2dcdb29e52d57883e14ffa8ffffffff0322020000000000001976a91438e6024e1f45ac6fb246a972cf44eed91917f10288ac0000000000000000166a146f6d6e69000000000000001f0000000000989e50aa910200000000001976a914548b6f93a7c63fce52b7bc1ac75adeca79b17dd488ac00000000", "vin": [{"sequence": 4294967295, "scriptSig": {"hex": "483045022100898e8cfadec5f513557c7ba6b5a1acad98972b696531459477c114655da919d002203651e4c8643143c634fd822dab38b35d351834cce6870472f2844a19ba06deb901210341cc38f427d5b4f412202a130608069a5ff454f5a2dcdb29e52d57883e14ffa8", "asm": "3045022100898e8cfadec5f513557c7ba6b5a1acad98972b696531459477c114655da919d002203651e4c8643143c634fd822dab38b35d351834cce6870472f2844a19ba06deb9[ALL] 0341cc38f427d5b4f412202a130608069a5ff454f5a2dcdb29e52d57883e14ffa8"}, "vout": 2, "txid": "8e050f9465c74264b062a66a8cae977d2e7331c7e8b11ce4b9f2fc2f700fc4cf"}], "txid": "fed020f646f1f2c9c02fbf6628daab2ba93a86db0c5509e0a77ee55fe59e5162", "blocktime": 1537869901, "version": 1, "confirmations": 11522, "time": 1537869901, "locktime": 0, "vsize": 257, "size": 257}