{"hash": "fed15593602f5caa07f22f3afedfbb7aebcdcb580b79ccfcee83ba6df64b2622", "blockhash": "0000000000000000001f76057863aec43deb6fa401d9628bb513d65a8098bfab", "vout": [{"scriptPubKey": {"reqSigs": 1, "hex": "76a914becae44b72d7356a5181a190f40ab7a885c9d90488ac", "addresses": ["1JPpSchf35WBxkFkeP2iJpKWUZGSifQnfm"], "asm": "OP_DUP OP_HASH160 becae44b72d7356a5181a190f40ab7a885c9d904 OP_EQUALVERIFY OP_CHECKSIG", "type": "pubkeyhash"}, "value": 0.03967868, "n": 0}, {"scriptPubKey": {"reqSigs": 1, "hex": "76a914a147ebf7c016532f8d9e0f6baf6fd9f39ddfc54c88ac", "addresses": ["1Fhmx6Y3Cvr9DERwwE71vFoNiAec3QeibC"], "asm": "OP_DUP OP_HASH160 a147ebf7c016532f8d9e0f6baf6fd9f39ddfc54c OP_EQUALVERIFY OP_CHECKSIG", "type": "pubkeyhash"}, "value": 16.16354906, "n": 1}], "hex": "0200000001603dbb89e5d313fcd84a5b2c46cb14f9918b7712ea9f6e5c15ef2df38196d5dc010000006b483045022100f2b68fa76a6d29580908dd0fe4224cc7f681a16eac74d741e50cb774d3a44a9c02207e8130aeac12361600007be1729f82e5aec285c89b7080d4079e19045db3bf39012102ef8fe3fa99d6200601b69e4f2f176b6c585ef054b8cb0f2c4073a30f7ea421e3ffffffff027c8b3c00000000001976a914becae44b72d7356a5181a190f40ab7a885c9d90488ac5a9e5760000000001976a914a147ebf7c016532f8d9e0f6baf6fd9f39ddfc54c88ac00000000", "vin": [{"sequence": 4294967295, "scriptSig": {"hex": "483045022100f2b68fa76a6d29580908dd0fe4224cc7f681a16eac74d741e50cb774d3a44a9c02207e8130aeac12361600007be1729f82e5aec285c89b7080d4079e19045db3bf39012102ef8fe3fa99d6200601b69e4f2f176b6c585ef054b8cb0f2c4073a30f7ea421e3", "asm": "3045022100f2b68fa76a6d29580908dd0fe4224cc7f681a16eac74d741e50cb774d3a44a9c02207e8130aeac12361600007be1729f82e5aec285c89b7080d4079e19045db3bf39[ALL] 02ef8fe3fa99d6200601b69e4f2f176b6c585ef054b8cb0f2c4073a30f7ea421e3"}, "vout": 1, "txid": "dcd59681f32def155c6e9fea12778b91f914cb462c5b4ad8fc13d3e589bb3d60"}], "txid": "fed15593602f5caa07f22f3afedfbb7aebcdcb580b79ccfcee83ba6df64b2622", "blocktime": 1537873891, "version": 2, "confirmations": 11475, "time": 1537873891, "locktime": 0, "vsize": 226, "size": 226}