{"hash": "25d53cf7ff944068779b0a3c3ee5bf7e61636abd06fbbaec551d72f0dcc029fa", "blockhash": "0000000000000000001f76057863aec43deb6fa401d9628bb513d65a8098bfab", "vout": [{"scriptPubKey": {"reqSigs": 1, "hex": "a9145045fbf87548967a5118438f8c98784fa3aaf16887", "addresses": ["391TpUu5GoHhBApmJtVydjPkwwmXaVK5Fs"], "asm": "OP_HASH160 5045fbf87548967a5118438f8c98784fa3aaf168 OP_EQUAL", "type": "scripthash"}, "value": 0.001809, "n": 0}, {"scriptPubKey": {"reqSigs": 1, "hex": "a914a1a140905048d00b541d1ff0622e1c8a869fb80487", "addresses": ["3GRdtRmc4u4qCTPzaaNa98N1mS2iL88Dhg"], "asm": "OP_HASH160 a1a140905048d00b541d1ff0622e1c8a869fb804 OP_EQUAL", "type": "scripthash"}, "value": 0.0125585, "n": 1}], "hex": "02000000000101837f15c019a33b6ef8679af55f3828fe1cb48baa8f14a953f5e324ae5e289968000000001716001434e2b00bb4a0c6038c4206ccd3f3137298aeba2cfdffffff02a4c202000000000017a9145045fbf87548967a5118438f8c98784fa3aaf16887aa2913000000000017a914a1a140905048d00b541d1ff0622e1c8a869fb8048702483045022100d5afbdcb70e5af9136ef7938a8d2fc08487fa5a20ebd4b0fb623402f48388d790220604eb92ba2ef317ffd3eefd88cae47bed19ad4cb3d47942d97b4b62082896baf012103ff5e2e29b174aff1aa92832032d430e5192d7ac3cd1b7010229107135151d93014490800", "vin": [{"txinwitness": ["3045022100d5afbdcb70e5af9136ef7938a8d2fc08487fa5a20ebd4b0fb623402f48388d790220604eb92ba2ef317ffd3eefd88cae47bed19ad4cb3d47942d97b4b62082896baf01", "03ff5e2e29b174aff1aa92832032d430e5192d7ac3cd1b7010229107135151d930"], "sequence": 4294967293, "scriptSig": {"hex": "16001434e2b00bb4a0c6038c4206ccd3f3137298aeba2c", "asm": "001434e2b00bb4a0c6038c4206ccd3f3137298aeba2c"}, "vout": 0, "txid": "6899285eae24e3f553a9148faa8bb41cfe28385ff59a67f86e3ba319c0157f83"}], "txid": "fed6cacc50597a650913a4a87bf51c024dbcd0990b01f955d81a21037e5bf1fb", "blocktime": 1537873891, "version": 2, "confirmations": 11474, "time": 1537873891, "locktime": 542996, "vsize": 166, "size": 248}