{"hash": "fed732b0ff2315d76beeb2ebb6a7501424b123afc2b843598bc232d725c2d2bc", "blockhash": "0000000000000000001f76057863aec43deb6fa401d9628bb513d65a8098bfab", "vout": [{"scriptPubKey": {"reqSigs": 1, "hex": "76a9147a61c616a640e16ce7b797299b6bb0883ca3ffdd88ac", "addresses": ["1CA6Zr16yZuGVdB1ZRY29ENYegDtAyAinc"], "asm": "OP_DUP OP_HASH160 7a61c616a640e16ce7b797299b6bb0883ca3ffdd OP_EQUALVERIFY OP_CHECKSIG", "type": "pubkeyhash"}, "value": 0.05278329, "n": 0}, {"scriptPubKey": {"reqSigs": 1, "hex": "a914014d9bbbe11b042bb0fb7e0412b039fcdef470b887", "addresses": ["31oua4GvFvs5oiJmdQzxJ7ogqfpATUxjbk"], "asm": "OP_HASH160 014d9bbbe11b042bb0fb7e0412b039fcdef470b8 OP_EQUAL", "type": "scripthash"}, "value": 0.06230372, "n": 1}], "hex": "01000000021025a79942350010cf1a60cc3949cc53fbf8c5d51ee72b73d4132c65a690bf66000000006a4730440220655cb199007535fc7b3ad296545bb026eab19424d30bace8888a0de0f2f6d3a90220214470af9963fe8eddcb2694761538ee69281e73c1b385436859e4517d6872620121029f79f838821e801c9f9dae4a76659bd9aa239bc8669df208eae783cf296e7b13ffffffff22a838b2d7617d44753471daff6ee4f6735bb77292c187eee29278998807cbcc240000006a47304402205e4b1ec9b03839c36757818fe71549da05caa0a4761296f9a56f14990abf0bc00220786b2e4e91373496ad27d5d0bdae3381f345589cf131c7810c1b0c121c25cd82012103fac6a74d7eb03f3bd7b2de8a2e274281090ab96930eeebd94126daad93b61e81ffffffff02798a5000000000001976a9147a61c616a640e16ce7b797299b6bb0883ca3ffdd88ac64115f000000000017a914014d9bbbe11b042bb0fb7e0412b039fcdef470b88700000000", "vin": [{"sequence": 4294967295, "scriptSig": {"hex": "4730440220655cb199007535fc7b3ad296545bb026eab19424d30bace8888a0de0f2f6d3a90220214470af9963fe8eddcb2694761538ee69281e73c1b385436859e4517d6872620121029f79f838821e801c9f9dae4a76659bd9aa239bc8669df208eae783cf296e7b13", "asm": "30440220655cb199007535fc7b3ad296545bb026eab19424d30bace8888a0de0f2f6d3a90220214470af9963fe8eddcb2694761538ee69281e73c1b385436859e4517d687262[ALL] 029f79f838821e801c9f9dae4a76659bd9aa239bc8669df208eae783cf296e7b13"}, "vout": 0, "txid": "66bf90a6652c13d4732be71ed5c5f8fb53cc4939cc601acf1000354299a72510"}, {"sequence": 4294967295, "scriptSig": {"hex": "47304402205e4b1ec9b03839c36757818fe71549da05caa0a4761296f9a56f14990abf0bc00220786b2e4e91373496ad27d5d0bdae3381f345589cf131c7810c1b0c121c25cd82012103fac6a74d7eb03f3bd7b2de8a2e274281090ab96930eeebd94126daad93b61e81", "asm": "304402205e4b1ec9b03839c36757818fe71549da05caa0a4761296f9a56f14990abf0bc00220786b2e4e91373496ad27d5d0bdae3381f345589cf131c7810c1b0c121c25cd82[ALL] 03fac6a74d7eb03f3bd7b2de8a2e274281090ab96930eeebd94126daad93b61e81"}, "vout": 36, "txid": "cccb0788997892e2ee87c19272b75b73f6e46effda713475447d61d7b238a822"}], "txid": "fed732b0ff2315d76beeb2ebb6a7501424b123afc2b843598bc232d725c2d2bc", "blocktime": 1537873891, "version": 1, "confirmations": 11478, "time": 1537873891, "locktime": 0, "vsize": 370, "size": 370}