{"hash": "fed8274e6ef6b0e3bf87d2afb6c3ffe3c6e925a8a50df8b78292d50ba8c74b6f", "blockhash": "000000000000000000022b45ed06c6f4ccd3cf7fb5ba4856ebd2e58215665228", "vout": [{"scriptPubKey": {"reqSigs": 1, "hex": "76a914b7a8c2fd220b7478ed3c03ba4e52c723684a982588ac", "addresses": ["1Hk6psZSZve4SEjRCvdz4VxX7wYcpTpHVA"], "asm": "OP_DUP OP_HASH160 b7a8c2fd220b7478ed3c03ba4e52c723684a9825 OP_EQUALVERIFY OP_CHECKSIG", "type": "pubkeyhash"}, "value": 0.00081557, "n": 0}, {"scriptPubKey": {"reqSigs": 1, "hex": "a914f712c802ffcca66fa6aecf4f27689451a2b2451587", "addresses": ["3QDRKsbcU5eAQc1VxhWqLyW2vMpKc9LjbW"], "asm": "OP_HASH160 f712c802ffcca66fa6aecf4f27689451a2b24515 OP_EQUAL", "type": "scripthash"}, "value": 0.002564, "n": 1}], "hex": "01000000027356f759d1ecd090023f4be91aa6efad92ea3a09641ba09569630c64f2a49981000000006a4730440220084af1d44cb60c96e348468d033f4a5c7c26cb9c1197dbd6fef188e2155a7a86022079fce9049ba9078945d2b6bee80953e8dc7d560c7e364f958a4f40ff296d10dc01210316f38a2a5601be92d25e768b1915277f91994258040a6afdb0aa189819105d81ffffffff14a9da7800f810361788dd9f5fa4dd707f608a7bc419f4568e7eb567dada1b24010000006b483045022100ae34ef0e681330152b981ee0220d253433c4644c97c31641f71650734c8e3aae02205348ee3c69142cbdfca9f1eeacad4e1cf3e60f11b1595ffc140ca800aa50c9e60121032b5f99355de8d6f81144d7ad305e9fafe5e5402532835a987871577841e3102bffffffff02953e0100000000001976a914b7a8c2fd220b7478ed3c03ba4e52c723684a982588ac90e903000000000017a914f712c802ffcca66fa6aecf4f27689451a2b245158700000000", "vin": [{"sequence": 4294967295, "scriptSig": {"hex": "4730440220084af1d44cb60c96e348468d033f4a5c7c26cb9c1197dbd6fef188e2155a7a86022079fce9049ba9078945d2b6bee80953e8dc7d560c7e364f958a4f40ff296d10dc01210316f38a2a5601be92d25e768b1915277f91994258040a6afdb0aa189819105d81", "asm": "30440220084af1d44cb60c96e348468d033f4a5c7c26cb9c1197dbd6fef188e2155a7a86022079fce9049ba9078945d2b6bee80953e8dc7d560c7e364f958a4f40ff296d10dc[ALL] 0316f38a2a5601be92d25e768b1915277f91994258040a6afdb0aa189819105d81"}, "vout": 0, "txid": "8199a4f2640c636995a01b64093aea92adefa61ae94b3f0290d0ecd159f75673"}, {"sequence": 4294967295, "scriptSig": {"hex": "483045022100ae34ef0e681330152b981ee0220d253433c4644c97c31641f71650734c8e3aae02205348ee3c69142cbdfca9f1eeacad4e1cf3e60f11b1595ffc140ca800aa50c9e60121032b5f99355de8d6f81144d7ad305e9fafe5e5402532835a987871577841e3102b", "asm": "3045022100ae34ef0e681330152b981ee0220d253433c4644c97c31641f71650734c8e3aae02205348ee3c69142cbdfca9f1eeacad4e1cf3e60f11b1595ffc140ca800aa50c9e6[ALL] 032b5f99355de8d6f81144d7ad305e9fafe5e5402532835a987871577841e3102b"}, "vout": 1, "txid": "241bdada67b57e8e56f419c47b8a607f70dda45f9fdd88173610f80078daa914"}], "txid": "fed8274e6ef6b0e3bf87d2afb6c3ffe3c6e925a8a50df8b78292d50ba8c74b6f", "blocktime": 1537869901, "version": 1, "confirmations": 11522, "time": 1537869901, "locktime": 0, "vsize": 371, "size": 371}