{"hash": "73e4fcf6a5b7588bf4efb295e1c72b4b221bfdc0cfdf16c0c21bcc2bbdb121c6", "blockhash": "0000000000000000000baef3f32e3676a92c3b2e5da21b426e4f302fc371ce76", "vout": [{"scriptPubKey": {"reqSigs": 1, "hex": "a9145cc391931306d8381e034dbc25d4e68a341c015787", "addresses": ["3A9WNYHVtpL3x7T2k6PWSBexbUxLvRnAC7"], "asm": "OP_HASH160 5cc391931306d8381e034dbc25d4e68a341c0157 OP_EQUAL", "type": "scripthash"}, "value": 0.15525307, "n": 0}, {"scriptPubKey": {"reqSigs": 1, "hex": "a9140982d1308aa0332ed0041e0760e3773ccac49cbd87", "addresses": ["32ZJic3HN2wie4inXArWQPCLYbCAFGi4a2"], "asm": "OP_HASH160 0982d1308aa0332ed0041e0760e3773ccac49cbd OP_EQUAL", "type": "scripthash"}, "value": 0.00040068, "n": 1}], "hex": "01000000000102727430b31c6637e7744b8c0343abf787209a1bf89311974bc37d9c03cd6f366f04000000232200203fcf485699b7d6ed492945812b9eccb4a3aeae6f439925cb77b6fe7d5a4740e5ffffffff6e7cde63865c1f41add7f0bbba30b66f9c4062b65f3da9bdcf2d590d8e039f93000000002322002081be72203b51fbbdda9c397e52a02179ce6ef42c6a4c3f9be172683264da44e8ffffffff02bbe5ec000000000017a9145cc391931306d8381e034dbc25d4e68a341c015787849c00000000000017a9140982d1308aa0332ed0041e0760e3773ccac49cbd87040047304402207423e9c0203fff30853fb2ddc2cdb891a80d23616b7144cbf6ab33bcdf1e1f3802204d65bb25e01ddc2524d15c352fc0299232bc97ca513fc03b3cdf63047fac853201473044022005da2d2729efe023c58fef8c24526edeb7b9630cf67fbfb39c7db6784962e506022055e2d3a8b0338d746f1403be316ca53ea0a7d8934f5f184fe59f0b4774a4179801475221031a3539ab69eb3e853c3928a4e51062b594438f423e100c27ef703fe657f9845221033cd5fcc68f940f6921c548e8539485080ee4267f6a52c9ffdc268036306f5cff52ae0400473044022079ffddd50202d67698ea95ab846f6a5b796cae78f2ab21dfa9e1576923e7113502207d989f4615cf396f3496bca305a12a6bc878a0938a2174d26374c4a74084e47501483045022100e3200d4bb8a0d3195731a6bda829f6d3f63c2d68b9392129238514e7f43ea49802206f7f972edd2d92854cb02bfde2c189319bc1969b5775013857e10745a92ab3e60147522102a7d2398581db551b4306b02b22595610a45809b8de5b28cc3a0946d7866e668521033cd5fcc68f940f6921c548e8539485080ee4267f6a52c9ffdc268036306f5cff52ae00000000", "vin": [{"txinwitness": ["", "304402207423e9c0203fff30853fb2ddc2cdb891a80d23616b7144cbf6ab33bcdf1e1f3802204d65bb25e01ddc2524d15c352fc0299232bc97ca513fc03b3cdf63047fac853201", "3044022005da2d2729efe023c58fef8c24526edeb7b9630cf67fbfb39c7db6784962e506022055e2d3a8b0338d746f1403be316ca53ea0a7d8934f5f184fe59f0b4774a4179801", "5221031a3539ab69eb3e853c3928a4e51062b594438f423e100c27ef703fe657f9845221033cd5fcc68f940f6921c548e8539485080ee4267f6a52c9ffdc268036306f5cff52ae"], "sequence": 4294967295, "scriptSig": {"hex": "2200203fcf485699b7d6ed492945812b9eccb4a3aeae6f439925cb77b6fe7d5a4740e5", "asm": "00203fcf485699b7d6ed492945812b9eccb4a3aeae6f439925cb77b6fe7d5a4740e5"}, "vout": 4, "txid": "6f366fcd039c7dc34b971193f81b9a2087f7ab43038c4b74e737661cb3307472"}, {"txinwitness": ["", "3044022079ffddd50202d67698ea95ab846f6a5b796cae78f2ab21dfa9e1576923e7113502207d989f4615cf396f3496bca305a12a6bc878a0938a2174d26374c4a74084e47501", "3045022100e3200d4bb8a0d3195731a6bda829f6d3f63c2d68b9392129238514e7f43ea49802206f7f972edd2d92854cb02bfde2c189319bc1969b5775013857e10745a92ab3e601", "522102a7d2398581db551b4306b02b22595610a45809b8de5b28cc3a0946d7866e668521033cd5fcc68f940f6921c548e8539485080ee4267f6a52c9ffdc268036306f5cff52ae"], "sequence": 4294967295, "scriptSig": {"hex": "22002081be72203b51fbbdda9c397e52a02179ce6ef42c6a4c3f9be172683264da44e8", "asm": "002081be72203b51fbbdda9c397e52a02179ce6ef42c6a4c3f9be172683264da44e8"}, "vout": 0, "txid": "939f038e0d592dcfbda93d5fb662409c6fb630babbf0d7ad411f5c8663de7c6e"}], "txid": "fedfc58ddc831e5757a1718411c2c8f50b8449e72304b4e9a63483cc3b44ca42", "blocktime": 1537876114, "version": 1, "confirmations": 11460, "time": 1537876114, "locktime": 0, "vsize": 336, "size": 665}