{"hash": "fef03985e744bb0bae438823eb7277c434d2e538e6b699dc7357851ad104fc34", "blockhash": "0000000000000000001f0ddff1eddb255c1121bcd4da4f1bc9a0da00cae72433", "vout": [{"scriptPubKey": {"reqSigs": 1, "hex": "a914b478fa372ef842a5966a6e5cfbb725857f9504e587", "addresses": ["3J9GUjLBgK5Vza44Xi3VfsuQhvFqprnLJb"], "asm": "OP_HASH160 b478fa372ef842a5966a6e5cfbb725857f9504e5 OP_EQUAL", "type": "scripthash"}, "value": 0.00251031, "n": 0}, {"scriptPubKey": {"reqSigs": 1, "hex": "76a9148773b250d969727269be5fb8b2efd7ed16fe686888ac", "addresses": ["1DMCpdmzCnthPtrBGuapZUa5WTmx81uhwv"], "asm": "OP_DUP OP_HASH160 8773b250d969727269be5fb8b2efd7ed16fe6868 OP_EQUALVERIFY OP_CHECKSIG", "type": "pubkeyhash"}, "value": 0.01477448, "n": 1}], "hex": "0200000001201a3434af7ae422c03a67046b4e18330ca17bc97da0f0636307d559abd78e75010000006b483045022100dc2a4429bcfef3ba6e3d7faf50b8feadc8dabe10e30741f5c2b8278266e9ea3f022067789b682a4da31c0dd395e8a809ae0aad0c250bd25658c7d6dccb0c4a90d14e0121024583276959324edcef750b3d5bffbbdda6ad937f3e6999334fc21726ddd626cafeffffff0297d403000000000017a914b478fa372ef842a5966a6e5cfbb725857f9504e587488b1600000000001976a9148773b250d969727269be5fb8b2efd7ed16fe686888ac10490800", "vin": [{"sequence": 4294967294, "scriptSig": {"hex": "483045022100dc2a4429bcfef3ba6e3d7faf50b8feadc8dabe10e30741f5c2b8278266e9ea3f022067789b682a4da31c0dd395e8a809ae0aad0c250bd25658c7d6dccb0c4a90d14e0121024583276959324edcef750b3d5bffbbdda6ad937f3e6999334fc21726ddd626ca", "asm": "3045022100dc2a4429bcfef3ba6e3d7faf50b8feadc8dabe10e30741f5c2b8278266e9ea3f022067789b682a4da31c0dd395e8a809ae0aad0c250bd25658c7d6dccb0c4a90d14e[ALL] 024583276959324edcef750b3d5bffbbdda6ad937f3e6999334fc21726ddd626ca"}, "vout": 1, "txid": "758ed7ab59d5076363f0a07dc97ba10c33184e6b04673ac022e47aaf34341a20"}], "txid": "fef03985e744bb0bae438823eb7277c434d2e538e6b699dc7357851ad104fc34", "blocktime": 1537872018, "version": 2, "confirmations": 11489, "time": 1537872018, "locktime": 542992, "vsize": 224, "size": 224}