{"hash": "fef23425b7b9173aab9b99ed3c03d22b32ae715464161f64b07707c785354569", "blockhash": "0000000000000000000e13cef7c366c0283d82e591d1acd082e914b08063cdf1", "vout": [{"scriptPubKey": {"reqSigs": 1, "hex": "76a914d681eed1cd5ddf3d3ac3e38910c346eb848c267a88ac", "addresses": ["1LZDFww2dvpsfXNpEk9dui24jnPSRfgZ3G"], "asm": "OP_DUP OP_HASH160 d681eed1cd5ddf3d3ac3e38910c346eb848c267a OP_EQUALVERIFY OP_CHECKSIG", "type": "pubkeyhash"}, "value": 0.00694155, "n": 0}, {"scriptPubKey": {"reqSigs": 1, "hex": "a91460f645ecc7dfa8e3b92db454cf197948c9f90b4087", "addresses": ["3AXhpKNPE4a7kmtp6wuaSrcqbHx5BXwuhx"], "asm": "OP_HASH160 60f645ecc7dfa8e3b92db454cf197948c9f90b40 OP_EQUAL", "type": "scripthash"}, "value": 0.015633, "n": 1}], "hex": "0100000001944efdea46b1bd7443c1a3b98da4af277d916e41a90a76b2990244849e848009010000006b483045022100b4298123ce854101e74ef297508e41fc71b5c66d5584dedd67dbb3d1f4be24fc022014dcd87df1fe5101c17fcd08c597c642f65b3bf8f1357e1f385d69dd516da213012103909b3e135c1c93479d1adc17fd7354c2494c87f66633e0d67b3b97515d223671ffffffff028b970a00000000001976a914d681eed1cd5ddf3d3ac3e38910c346eb848c267a88aca4da17000000000017a91460f645ecc7dfa8e3b92db454cf197948c9f90b408700000000", "vin": [{"sequence": 4294967295, "scriptSig": {"hex": "483045022100b4298123ce854101e74ef297508e41fc71b5c66d5584dedd67dbb3d1f4be24fc022014dcd87df1fe5101c17fcd08c597c642f65b3bf8f1357e1f385d69dd516da213012103909b3e135c1c93479d1adc17fd7354c2494c87f66633e0d67b3b97515d223671", "asm": "3045022100b4298123ce854101e74ef297508e41fc71b5c66d5584dedd67dbb3d1f4be24fc022014dcd87df1fe5101c17fcd08c597c642f65b3bf8f1357e1f385d69dd516da213[ALL] 03909b3e135c1c93479d1adc17fd7354c2494c87f66633e0d67b3b97515d223671"}, "vout": 1, "txid": "0980849e84440299b2760aa9416e917d27afa48db9a3c14374bdb146eafd4e94"}], "txid": "fef23425b7b9173aab9b99ed3c03d22b32ae715464161f64b07707c785354569", "blocktime": 1537871767, "version": 1, "confirmations": 11495, "time": 1537871767, "locktime": 0, "vsize": 224, "size": 224}