{"hash": "254b36a313ba3e43f8af67f5f615df33e0d7f439fc7a6847c11efaac90f93533", "blockhash": "0000000000000000000baef3f32e3676a92c3b2e5da21b426e4f302fc371ce76", "vout": [{"scriptPubKey": {"reqSigs": 1, "hex": "76a914e7b81c78f66bd395b42ebc170481587ed5db705688ac", "addresses": ["1N8DeauxVYy1u66VCmJhW4PwYQFgz2ddAR"], "asm": "OP_DUP OP_HASH160 e7b81c78f66bd395b42ebc170481587ed5db7056 OP_EQUALVERIFY OP_CHECKSIG", "type": "pubkeyhash"}, "value": 0.07538144, "n": 0}, {"scriptPubKey": {"reqSigs": 1, "hex": "a914f946d0241350e6ca6a56dc3ef8451e8c973e42e387", "addresses": ["3QR51VAwkXqjpWetrBxPtkxeUZGBFqnpCZ"], "asm": "OP_HASH160 f946d0241350e6ca6a56dc3ef8451e8c973e42e3 OP_EQUAL", "type": "scripthash"}, "value": 0.10787556, "n": 1}], "hex": "01000000000103983fd5060e0d0bedabe4ad7fccfa7f8b976eae50876477ec2bf0f50ebe59935e0000000017160014121fad01d783d8e288ac9d3082206eca5971fb3fffffff00a7d0feaccc53d675ab7b86d81483ba2252670d5d74b8b11c77316ba799fa2b390000000017160014121fad01d783d8e288ac9d3082206eca5971fb3fffffff00a63b0aadd8fc4ea3c75bbb12469ef4c9beb3bc72aa7e9c7b8d0c9290e0e325e50000000017160014121fad01d783d8e288ac9d3082206eca5971fb3fffffff0002e0057300000000001976a914e7b81c78f66bd395b42ebc170481587ed5db705688ace49aa4000000000017a914f946d0241350e6ca6a56dc3ef8451e8c973e42e38702473044022058d3c2b3c15c56ef65f6bfb49fcc981bf6314bfad03b7baad57bba8ef77e51ec02204ad44f403c5bb1303e03ae60d79eb6a70bdac39487fecbd06cf84d4b51f2887c0121026c198e7c4299fee2698f6f68a7385370fc1af69727d2b3aab7880b08b2db9e5802473044022012c8ed6277697d95e335c6a6127f41b66ee85e36f230aa079cb0940a3d02c29802202692c88889ee93943129b95ae96057308a25d50147db0f7056026289bbfd55320121026c198e7c4299fee2698f6f68a7385370fc1af69727d2b3aab7880b08b2db9e5802483045022100d2b78a0306857251281c426c8623f50e29dfdd818eb5aef611d90594387e843702201f855dfe5591dcd7a0e1de078c4618eb46686c0c5951eb4d5a1d35bd897e62350121026c198e7c4299fee2698f6f68a7385370fc1af69727d2b3aab7880b08b2db9e5800000000", "vin": [{"txinwitness": ["3044022058d3c2b3c15c56ef65f6bfb49fcc981bf6314bfad03b7baad57bba8ef77e51ec02204ad44f403c5bb1303e03ae60d79eb6a70bdac39487fecbd06cf84d4b51f2887c01", "026c198e7c4299fee2698f6f68a7385370fc1af69727d2b3aab7880b08b2db9e58"], "sequence": 16777215, "scriptSig": {"hex": "160014121fad01d783d8e288ac9d3082206eca5971fb3f", "asm": "0014121fad01d783d8e288ac9d3082206eca5971fb3f"}, "vout": 0, "txid": "5e9359be0ef5f02bec77648750ae6e978b7ffacc7fade4abed0b0d0e06d53f98"}, {"txinwitness": ["3044022012c8ed6277697d95e335c6a6127f41b66ee85e36f230aa079cb0940a3d02c29802202692c88889ee93943129b95ae96057308a25d50147db0f7056026289bbfd553201", "026c198e7c4299fee2698f6f68a7385370fc1af69727d2b3aab7880b08b2db9e58"], "sequence": 16777215, "scriptSig": {"hex": "160014121fad01d783d8e288ac9d3082206eca5971fb3f", "asm": "0014121fad01d783d8e288ac9d3082206eca5971fb3f"}, "vout": 0, "txid": "392bfa99a76b31771cb1b8745d0d675222ba8314d8867bab75d653ccacfed0a7"}, {"txinwitness": ["3045022100d2b78a0306857251281c426c8623f50e29dfdd818eb5aef611d90594387e843702201f855dfe5591dcd7a0e1de078c4618eb46686c0c5951eb4d5a1d35bd897e623501", "026c198e7c4299fee2698f6f68a7385370fc1af69727d2b3aab7880b08b2db9e58"], "sequence": 16777215, "scriptSig": {"hex": "160014121fad01d783d8e288ac9d3082206eca5971fb3f", "asm": "0014121fad01d783d8e288ac9d3082206eca5971fb3f"}, "vout": 0, "txid": "e525e3e090920c8d7b9c7eaa72bcb3bec9f49e4612bb5bc7a34efcd8ad0a3ba6"}], "txid": "fef8373d95cd65e555ec6eb5f6b8545e646a10efe86745f366106ba60fe0b28e", "blocktime": 1537876114, "version": 1, "confirmations": 11460, "time": 1537876114, "locktime": 0, "vsize": 349, "size": 592}