{"hash": "c3aa02e252a5ff029ce4c4ef856b8e39f99999b189d2590beafab212cc95badc", "blockhash": "0000000000000000000baef3f32e3676a92c3b2e5da21b426e4f302fc371ce76", "vout": [{"scriptPubKey": {"reqSigs": 1, "hex": "a914b5ad66024fe73caa25e0a370407cf2780904f42487", "addresses": ["3JFdxCgL6WYopczBUDoScv4YmWBonPhDSs"], "asm": "OP_HASH160 b5ad66024fe73caa25e0a370407cf2780904f424 OP_EQUAL", "type": "scripthash"}, "value": 0.28746195, "n": 0}], "hex": "020000000001012883aabdbe76c26badd01837ed46bdb7cc61d5f35d7d9f90fa7d7e28c077755d0100000000ffffffff01d3a1b6010000000017a914b5ad66024fe73caa25e0a370407cf2780904f4248702483045022100d35b8bbcef1145830eca358808043ea13c2f9d488603022e2ced7900c560a5a902205d5f22fb9a0a3d52c665c363d897f61cac43e7cedec01e0e3ad3a37772e5ce9a012102fd71608c4e1f95c382764f1637d3df45b07869754872db79081c3cff3ff2d23a00000000", "vin": [{"txinwitness": ["3045022100d35b8bbcef1145830eca358808043ea13c2f9d488603022e2ced7900c560a5a902205d5f22fb9a0a3d52c665c363d897f61cac43e7cedec01e0e3ad3a37772e5ce9a01", "02fd71608c4e1f95c382764f1637d3df45b07869754872db79081c3cff3ff2d23a"], "sequence": 4294967295, "scriptSig": {"hex": "", "asm": ""}, "vout": 1, "txid": "5d7577c0287e7dfa909f7d5df3d561ccb7bd46ed3718d0ad6bc276bebdaa8328"}], "txid": "fef812b963ae2a798a5b342fea08137fb7a8cd1e76e6a78973bcce289f0467d7", "blocktime": 1537876114, "version": 2, "confirmations": 11460, "time": 1537876114, "locktime": 0, "vsize": 111, "size": 193}