{"hash": "fef938ef27e2511ddf642ff84a66186508c5670d66731fe7284b847c9718956d", "blockhash": "0000000000000000000baef3f32e3676a92c3b2e5da21b426e4f302fc371ce76", "vout": [{"scriptPubKey": {"reqSigs": 1, "hex": "76a9146954305962be42adccd27dc61f418484cb8bce9188ac", "addresses": ["1Abvogr6bhScqbYEKLdZKXL3WLoHc7KR6B"], "asm": "OP_DUP OP_HASH160 6954305962be42adccd27dc61f418484cb8bce91 OP_EQUALVERIFY OP_CHECKSIG", "type": "pubkeyhash"}, "value": 0.10392768, "n": 0}, {"scriptPubKey": {"reqSigs": 1, "hex": "76a914da3178ec76e8ad094ed21df4e1b7f66c14fdf15288ac", "addresses": ["1LthaDgqTEE7mL7aP2P7gtTpkjADz7LbzL"], "asm": "OP_DUP OP_HASH160 da3178ec76e8ad094ed21df4e1b7f66c14fdf152 OP_EQUALVERIFY OP_CHECKSIG", "type": "pubkeyhash"}, "value": 24.26640372, "n": 1}], "hex": "0100000001aa60c6a7273b6ead92445755f872fa48e9c72cdcada3973fb591d3c89e2163d2010000006b4830450221008fb6d29470ee3bd3a437c6e694753d4a663d047984c63a3782693cfebc0b4f55022003d9e59d637c1d4fb3cef4584469ff589ccd258d65fdffe2034d72d2305d15e00121029b3d0a0a71e3d537a7d5059445f84d267df83e95c95f5cdb166d4ae91d59fb79ffffffff02c0949e00000000001976a9146954305962be42adccd27dc61f418484cb8bce9188acf497a390000000001976a914da3178ec76e8ad094ed21df4e1b7f66c14fdf15288ac00000000", "vin": [{"sequence": 4294967295, "scriptSig": {"hex": "4830450221008fb6d29470ee3bd3a437c6e694753d4a663d047984c63a3782693cfebc0b4f55022003d9e59d637c1d4fb3cef4584469ff589ccd258d65fdffe2034d72d2305d15e00121029b3d0a0a71e3d537a7d5059445f84d267df83e95c95f5cdb166d4ae91d59fb79", "asm": "30450221008fb6d29470ee3bd3a437c6e694753d4a663d047984c63a3782693cfebc0b4f55022003d9e59d637c1d4fb3cef4584469ff589ccd258d65fdffe2034d72d2305d15e0[ALL] 029b3d0a0a71e3d537a7d5059445f84d267df83e95c95f5cdb166d4ae91d59fb79"}, "vout": 1, "txid": "d263219ec8d391b53f97a3addc2cc7e948fa72f855574492ad6e3b27a7c660aa"}], "txid": "fef938ef27e2511ddf642ff84a66186508c5670d66731fe7284b847c9718956d", "blocktime": 1537876114, "version": 1, "confirmations": 11460, "time": 1537876114, "locktime": 0, "vsize": 226, "size": 226}