{"hash": "84ac9a50ff331cff44a3ce270ebf96dee83cbbe9153e6226d62b574cf0c371b9", "blockhash": "00000000000000000018f53835495a110e01622372bf6ae95dc86f2b0ab887b0", "vout": [{"scriptPubKey": {"reqSigs": 1, "hex": "a914330dae93b6d94ff049fafed60f053977f85e3d9387", "addresses": ["36LxmxvitrSqCxjkqDQyUxjHFiEgKYKu3m"], "asm": "OP_HASH160 330dae93b6d94ff049fafed60f053977f85e3d93 OP_EQUAL", "type": "scripthash"}, "value": 0.023417, "n": 0}, {"scriptPubKey": {"reqSigs": 1, "hex": "a914fec37293f73cc540a971ea4d2fdd15cdc3e9e57d87", "addresses": ["3Qv5hCnHwXzsNm6fDb2kpgUQ74twMk8QLm"], "asm": "OP_HASH160 fec37293f73cc540a971ea4d2fdd15cdc3e9e57d OP_EQUAL", "type": "scripthash"}, "value": 0.0327872, "n": 1}], "hex": "02000000000101c5c1aeef2f59ade060a4aed80140f727ddc3303f4c6097cbd9d5143fad50efb701000000171600149749079a9c040fee0d0a0e3b209195d18cc5dd12ffffffff0244bb23000000000017a914330dae93b6d94ff049fafed60f053977f85e3d9387800732000000000017a914fec37293f73cc540a971ea4d2fdd15cdc3e9e57d870247304402207629b75a220beefc6ebb241a01ded1a73425643ba03fedca648c7a94b040adaa02201653590507371eab8a632d6b531a859e1ca7fce8f05202a89ffb6d9d49797a8e01210328f960405f1448804c2899b754664a69c1664511ce3bd84f5c30a4e653ae850400000000", "vin": [{"txinwitness": ["304402207629b75a220beefc6ebb241a01ded1a73425643ba03fedca648c7a94b040adaa02201653590507371eab8a632d6b531a859e1ca7fce8f05202a89ffb6d9d49797a8e01", "0328f960405f1448804c2899b754664a69c1664511ce3bd84f5c30a4e653ae8504"], "sequence": 4294967295, "scriptSig": {"hex": "1600149749079a9c040fee0d0a0e3b209195d18cc5dd12", "asm": "00149749079a9c040fee0d0a0e3b209195d18cc5dd12"}, "vout": 1, "txid": "b7ef50ad3f14d5d9cb97604c3f30c3dd27f74001d8aea460e0ad592fefaec1c5"}], "txid": "ff0187a7f784f022872deb2822f953085edcb3f3b2242cbe4c4fafd118006b6c", "blocktime": 1537870928, "version": 2, "confirmations": 11512, "time": 1537870928, "locktime": 0, "vsize": 166, "size": 247}