{"hash": "c6ba4f859950be274da5206961b3c52f057d841ffc07c89c6f062981aa7c2926", "blockhash": "0000000000000000001cda96e906b7601b7a6fb1a3b62bca570a9e5d8f4b3de1", "vout": [{"scriptPubKey": {"reqSigs": 1, "hex": "a914472c23b00530ff9ab292578960e25f2224fe45ea87", "addresses": ["38BLn2JfySZ6Btoozc19rkDzBRv6tGhYXx"], "asm": "OP_HASH160 472c23b00530ff9ab292578960e25f2224fe45ea OP_EQUAL", "type": "scripthash"}, "value": 0.00011347, "n": 0}, {"scriptPubKey": {"reqSigs": 1, "hex": "a91433b0b4c8523a0b778e3af5eb963f42e461a0b6db87", "addresses": ["36QL563nLf7qcXhzU3X1wXZoK7KRUyceoj"], "asm": "OP_HASH160 33b0b4c8523a0b778e3af5eb963f42e461a0b6db OP_EQUAL", "type": "scripthash"}, "value": 0.00339828, "n": 1}, {"scriptPubKey": {"reqSigs": 1, "hex": "a9141e9c4423e2066250b35ef9b9e4b9eab74f63485787", "addresses": ["34UsPrzJotj7T2vTreAjZnwUnttm8me7g3"], "asm": "OP_HASH160 1e9c4423e2066250b35ef9b9e4b9eab74f634857 OP_EQUAL", "type": "scripthash"}, "value": 0.00074007, "n": 2}, {"scriptPubKey": {"reqSigs": 1, "hex": "a9146527ac85a7c0dfdb21a7c9ae01c3a3c50caa034b87", "addresses": ["3AushWZfTJv5s3oL8h6oTBSyqDTig698y1"], "asm": "OP_HASH160 6527ac85a7c0dfdb21a7c9ae01c3a3c50caa034b OP_EQUAL", "type": "scripthash"}, "value": 0.00092, "n": 3}, {"scriptPubKey": {"reqSigs": 1, "hex": "a914a69b14e6ff52dabea50e35ceab76794c5ff3e1e987", "addresses": ["3GswsedGqddVL6HqUsfF72iLQBxRwaHvhJ"], "asm": "OP_HASH160 a69b14e6ff52dabea50e35ceab76794c5ff3e1e9 OP_EQUAL", "type": "scripthash"}, "value": 0.04019111, "n": 4}, {"scriptPubKey": {"reqSigs": 1, "hex": "76a914b265a9be6aabd3f15aa367e16461aa00c77cdf3588ac", "addresses": ["1HGH4pWj9g2s23GXxt9TymZfPBHUvHatTH"], "asm": "OP_DUP OP_HASH160 b265a9be6aabd3f15aa367e16461aa00c77cdf35 OP_EQUALVERIFY OP_CHECKSIG", "type": "pubkeyhash"}, "value": 0.00822795, "n": 5}, {"scriptPubKey": {"reqSigs": 1, "hex": "a914b202ea729ef681570e21fd55ce462361943eb8f687", "addresses": ["3HvFhHQdFUdwRkx1Jza5fWTQ5rCZ2ExSkW"], "asm": "OP_HASH160 b202ea729ef681570e21fd55ce462361943eb8f6 OP_EQUAL", "type": "scripthash"}, "value": 0.01984915, "n": 6}, {"scriptPubKey": {"reqSigs": 1, "hex": "a91489b05cd806fec4919ee91d9dbb5c080a4f26868587", "addresses": ["3EF3miamC7ZqYaHy7SVbVYwMReUJ7dtCLT"], "asm": "OP_HASH160 89b05cd806fec4919ee91d9dbb5c080a4f268685 OP_EQUAL", "type": "scripthash"}, "value": 0.00821469, "n": 7}, {"scriptPubKey": {"reqSigs": 1, "hex": "a914af41d20c86e1efaaf68295553a304f235e999bc587", "addresses": ["3Hfh2QKRgDkfewTDewgt6RLXpsmAJpayQa"], "asm": "OP_HASH160 af41d20c86e1efaaf68295553a304f235e999bc5 OP_EQUAL", "type": "scripthash"}, "value": 0.0028516, "n": 8}, {"scriptPubKey": {"reqSigs": 1, "hex": "a914940a48b3bdf2cfc78a5be4dfc6f5dbb5102ad16287", "addresses": ["3FBnFUjagismLeqqHLQycZuccEwSCgS6iQ"], "asm": "OP_HASH160 940a48b3bdf2cfc78a5be4dfc6f5dbb5102ad162 OP_EQUAL", "type": "scripthash"}, "value": 0.02277865, "n": 9}, {"scriptPubKey": {"reqSigs": 1, "hex": "a9145590ca5aa7edf7878d8b2c522e10d9292ebb2a7487", "addresses": ["39VSp4msrg7YpGdqdwyGC8XZr4L93YWQcx"], "asm": "OP_HASH160 5590ca5aa7edf7878d8b2c522e10d9292ebb2a74 OP_EQUAL", "type": "scripthash"}, "value": 0.00304999, "n": 10}, {"scriptPubKey": {"reqSigs": 1, "hex": "a914b9166ef9bb317d58b9ebe6d50d418c6f348fc22687", "addresses": ["3JZfojpmh5QZjgHs9o28KAfo5i1wJ1yr3B"], "asm": "OP_HASH160 b9166ef9bb317d58b9ebe6d50d418c6f348fc226 OP_EQUAL", "type": "scripthash"}, "value": 10.94116942, "n": 11}, {"scriptPubKey": {"reqSigs": 1, "hex": "a914f250be077299e68870da35410ab2551061f8374287", "addresses": ["3PnGB3HKPWuAhPM6cExvK4n6gTsWmafu1c"], "asm": "OP_HASH160 f250be077299e68870da35410ab2551061f83742 OP_EQUAL", "type": "scripthash"}, "value": 0.00742935, "n": 12}, {"scriptPubKey": {"reqSigs": 1, "hex": "a91423198846d72f49f7ea30e3c50646a6ab826a556c87", "addresses": ["34tcAGvGhsVohkfoM1sPZNtviZFeRnzR84"], "asm": "OP_HASH160 23198846d72f49f7ea30e3c50646a6ab826a556c OP_EQUAL", "type": "scripthash"}, "value": 0.00325338, "n": 13}, {"scriptPubKey": {"reqSigs": 1, "hex": "a914a209f6efe0e69a95c374eb0e61462db10617fc7f87", "addresses": ["3GToKyNKZUvZtD2Nspv8oYPGBc6Hm2AZbF"], "asm": "OP_HASH160 a209f6efe0e69a95c374eb0e61462db10617fc7f OP_EQUAL", "type": "scripthash"}, "value": 0.001875, "n": 14}, {"scriptPubKey": {"reqSigs": 1, "hex": "76a914cf754ca41b34d249d66a221a01e2cd95197abee788ac", "addresses": ["1KuwPp8hrdt5ZiqJUUe24nLCBTUjyNTMdS"], "asm": "OP_DUP OP_HASH160 cf754ca41b34d249d66a221a01e2cd95197abee7 OP_EQUALVERIFY OP_CHECKSIG", "type": "pubkeyhash"}, "value": 0.00481495, "n": 15}, {"scriptPubKey": {"reqSigs": 1, "hex": "a9141022da02adf43c1820b74db85e8c58a0032a931f87", "addresses": ["33ALV9Mgd8XZsB472pFPr3C1ZKTw6D6xZa"], "asm": "OP_HASH160 1022da02adf43c1820b74db85e8c58a0032a931f OP_EQUAL", "type": "scripthash"}, "value": 0.00710169, "n": 16}, {"scriptPubKey": {"reqSigs": 1, "hex": "a91471efa9ac9f60fbc14add8193cea1d11190135b2987", "addresses": ["3C5TPHNuChWjKGUGkniTixU9psNwR22ipC"], "asm": "OP_HASH160 71efa9ac9f60fbc14add8193cea1d11190135b29 OP_EQUAL", "type": "scripthash"}, "value": 0.01711587, "n": 17}, {"scriptPubKey": {"reqSigs": 1, "hex": "a914f4c5353e6553b163c23ad494ea2deab32382840787", "addresses": ["3Q1F3bpwboiMWPzx99sY8wdfENzYRsUqwj"], "asm": "OP_HASH160 f4c5353e6553b163c23ad494ea2deab323828407 OP_EQUAL", "type": "scripthash"}, "value": 0.00571624, "n": 18}, {"scriptPubKey": {"reqSigs": 1, "hex": "a9141eeeb00b538cb786a961f92dae4ecf740addfbcb87", "addresses": ["34Wa8cGeeYn1weJyVJUVykE8yTzELfmjdH"], "asm": "OP_HASH160 1eeeb00b538cb786a961f92dae4ecf740addfbcb OP_EQUAL", "type": "scripthash"}, "value": 0.08134301, "n": 19}, {"scriptPubKey": {"reqSigs": 1, "hex": "76a914a8e902a425ec8f58db191f2679e73d0921e775f088ac", "addresses": ["1GQ7f4xM5rrsYixyxY3EBvEHWPnoAzMzpA"], "asm": "OP_DUP OP_HASH160 a8e902a425ec8f58db191f2679e73d0921e775f0 OP_EQUALVERIFY OP_CHECKSIG", "type": "pubkeyhash"}, "value": 0.16823516, "n": 20}, {"scriptPubKey": {"reqSigs": 1, "hex": "a9149ce8ca3410a1ce015a076a12497b27cf13cb395487", "addresses": ["3FzgCzVjstWkuAqF96THmXr3puf8B1iubW"], "asm": "OP_HASH160 9ce8ca3410a1ce015a076a12497b27cf13cb3954 OP_EQUAL", "type": "scripthash"}, "value": 0.00358127, "n": 21}, {"scriptPubKey": {"reqSigs": 1, "hex": "76a91449038053592ad56f91b035920473b81baa4dda2a88ac", "addresses": ["17f4XH2JeFiiCpYrgeqpyvm6ktJfBCqvMr"], "asm": "OP_DUP OP_HASH160 49038053592ad56f91b035920473b81baa4dda2a OP_EQUALVERIFY OP_CHECKSIG", "type": "pubkeyhash"}, "value": 0.325195, "n": 22}, {"scriptPubKey": {"reqSigs": 1, "hex": "a914436e5ed766b136869b2a0eca85339a4665ad227587", "addresses": ["37qZR56PcynZgFC2v52oYrY9QVx6Ge3cGV"], "asm": "OP_HASH160 436e5ed766b136869b2a0eca85339a4665ad2275 OP_EQUAL", "type": "scripthash"}, "value": 0.02524729, "n": 23}, {"scriptPubKey": {"reqSigs": 1, "hex": "a9141d1b916a454981de2a827fcfaec8679b315e93fc87", "addresses": ["34LvYZqbwENcAGq3Fy26Zc7UDQFii28Aw5"], "asm": "OP_HASH160 1d1b916a454981de2a827fcfaec8679b315e93fc OP_EQUAL", "type": "scripthash"}, "value": 0.00462467, "n": 24}, {"scriptPubKey": {"reqSigs": 1, "hex": "76a914e95150145d7ecc9a776cc1d5d67bedeb5decad9588ac", "addresses": ["1NGfrQkyhNSK6ccsb87PNDT7NATtKXM24w"], "asm": "OP_DUP OP_HASH160 e95150145d7ecc9a776cc1d5d67bedeb5decad95 OP_EQUALVERIFY OP_CHECKSIG", "type": "pubkeyhash"}, "value": 0.00023767, "n": 25}, {"scriptPubKey": {"reqSigs": 1, "hex": "76a91487dc525e3a001b02777356a9c661d5896f24169188ac", "addresses": ["1DPNA7zzapvr8PYJ4uSkQB14pvReWCQivG"], "asm": "OP_DUP OP_HASH160 87dc525e3a001b02777356a9c661d5896f241691 OP_EQUALVERIFY OP_CHECKSIG", "type": "pubkeyhash"}, "value": 1.82764875, "n": 26}, {"scriptPubKey": {"reqSigs": 1, "hex": "a914fdce48014ccbc3f280c06b0312199c10a6e4b35c87", "addresses": ["3Qq1zkVmNnmxBYWuF5cCWfj7RFAxoRSdpt"], "asm": "OP_HASH160 fdce48014ccbc3f280c06b0312199c10a6e4b35c OP_EQUAL", "type": "scripthash"}, "value": 0.00543252, "n": 27}, {"scriptPubKey": {"reqSigs": 1, "hex": "76a914ae595beba5706cb6bf3c6bbd10a974af48a5c6af88ac", "addresses": ["1Gtsd9zsztaiZK8JMgXK51JX7PwbnYhHfu"], "asm": "OP_DUP OP_HASH160 ae595beba5706cb6bf3c6bbd10a974af48a5c6af OP_EQUALVERIFY OP_CHECKSIG", "type": "pubkeyhash"}, "value": 0.0029381, "n": 28}, {"scriptPubKey": {"reqSigs": 1, "hex": "76a91477208a0ff61f0a720d9a5cb5f0ac7e140429d02a88ac", "addresses": ["1BrtPhWZ44JuLQptzE9XZZMdgdqkVDnbsa"], "asm": "OP_DUP OP_HASH160 77208a0ff61f0a720d9a5cb5f0ac7e140429d02a OP_EQUALVERIFY OP_CHECKSIG", "type": "pubkeyhash"}, "value": 0.00280607, "n": 29}, {"scriptPubKey": {"reqSigs": 1, "hex": "a914bae82dad20fe1a6afd58ab629f5793665d7ac6ad87", "addresses": ["3JjHkGFrsDFFfR3SCDNPompVjQvzh8Qt2r"], "asm": "OP_HASH160 bae82dad20fe1a6afd58ab629f5793665d7ac6ad OP_EQUAL", "type": "scripthash"}, "value": 0.00226278, "n": 30}, {"scriptPubKey": {"reqSigs": 1, "hex": "76a914916515d196adb4c951ac2cd26773aefbac0ef61e88ac", "addresses": ["1EFn5LjgeLCqatoM1PiKqTf6aY93FFK8Dz"], "asm": "OP_DUP OP_HASH160 916515d196adb4c951ac2cd26773aefbac0ef61e OP_EQUALVERIFY OP_CHECKSIG", "type": "pubkeyhash"}, "value": 0.00462925, "n": 31}, {"scriptPubKey": {"reqSigs": 1, "hex": "76a914458ed1b8ab02363548d318ad3444ba9711dc38d488ac", "addresses": ["17LniVRChrnN29pwqEf3wjxd4tWHkdx1Nt"], "asm": "OP_DUP OP_HASH160 458ed1b8ab02363548d318ad3444ba9711dc38d4 OP_EQUALVERIFY OP_CHECKSIG", "type": "pubkeyhash"}, "value": 0.00421874, "n": 32}, {"scriptPubKey": {"reqSigs": 1, "hex": "a9145710365001e9a9f1dbad439c6eda230973f5e8cd87", "addresses": ["39dN8g1w9v9PPEzvE4YoC15KvJP9XfVaGH"], "asm": "OP_HASH160 5710365001e9a9f1dbad439c6eda230973f5e8cd OP_EQUAL", "type": "scripthash"}, "value": 0.00364604, "n": 33}, {"scriptPubKey": {"reqSigs": 1, "hex": "a9141a556fc98f318adfb9d4e5375d9ac191476b6c9187", "addresses": ["346Fqmv1vSB1Y91X7DLH2YHXNCEG9hmgVn"], "asm": "OP_HASH160 1a556fc98f318adfb9d4e5375d9ac191476b6c91 OP_EQUAL", "type": "scripthash"}, "value": 0.00408549, "n": 34}, {"scriptPubKey": {"reqSigs": 1, "hex": "a914a05168c9558428f888335120f9914bc4d71a852987", "addresses": ["3GJhZeyJfbp2kTkFeD8ZfGwMorBV1UoKCZ"], "asm": "OP_HASH160 a05168c9558428f888335120f9914bc4d71a8529 OP_EQUAL", "type": "scripthash"}, "value": 0.02343837, "n": 35}, {"scriptPubKey": {"reqSigs": 1, "hex": "a9142b3c32ad12bdb4229159677d2019fbabeb32b35487", "addresses": ["35dd6RHkd8X4qtSxH3FRitao5PAeCJZ21Q"], "asm": "OP_HASH160 2b3c32ad12bdb4229159677d2019fbabeb32b354 OP_EQUAL", "type": "scripthash"}, "value": 0.00596403, "n": 36}], "hex": "0200000000010182acc83b87e82c1eed6a25f6668847c13b30d4196330481ed12e353138fb1c5e1b0000001716001487ac4e17c96b1b36b16e38fd62bb15d0b43891f8feffffff25532c00000000000017a914472c23b00530ff9ab292578960e25f2224fe45ea87742f05000000000017a91433b0b4c8523a0b778e3af5eb963f42e461a0b6db87172101000000000017a9141e9c4423e2066250b35ef9b9e4b9eab74f63485787606701000000000017a9146527ac85a7c0dfdb21a7c9ae01c3a3c50caa034b87a7533d000000000017a914a69b14e6ff52dabea50e35ceab76794c5ff3e1e9870b8e0c00000000001976a914b265a9be6aabd3f15aa367e16461aa00c77cdf3588ac93491e000000000017a914b202ea729ef681570e21fd55ce462361943eb8f687dd880c000000000017a91489b05cd806fec4919ee91d9dbb5c080a4f26868587e85904000000000017a914af41d20c86e1efaaf68295553a304f235e999bc587e9c122000000000017a914940a48b3bdf2cfc78a5be4dfc6f5dbb5102ad1628767a704000000000017a9145590ca5aa7edf7878d8b2c522e10d9292ebb2a74874ee636410000000017a914b9166ef9bb317d58b9ebe6d50d418c6f348fc2268717560b000000000017a914f250be077299e68870da35410ab2551061f8374287daf604000000000017a91423198846d72f49f7ea30e3c50646a6ab826a556c876cdc02000000000017a914a209f6efe0e69a95c374eb0e61462db10617fc7f87d7580700000000001976a914cf754ca41b34d249d66a221a01e2cd95197abee788ac19d60a000000000017a9141022da02adf43c1820b74db85e8c58a0032a931f87e31d1a000000000017a91471efa9ac9f60fbc14add8193cea1d11190135b2987e8b808000000000017a914f4c5353e6553b163c23ad494ea2deab323828407879d1e7c000000000017a9141eeeb00b538cb786a961f92dae4ecf740addfbcb87dcb40001000000001976a914a8e902a425ec8f58db191f2679e73d0921e775f088acef7605000000000017a9149ce8ca3410a1ce015a076a12497b27cf13cb3954874c35f001000000001976a91449038053592ad56f91b035920473b81baa4dda2a88ac398626000000000017a914436e5ed766b136869b2a0eca85339a4665ad227587830e07000000000017a9141d1b916a454981de2a827fcfaec8679b315e93fc87d75c0000000000001976a914e95150145d7ecc9a776cc1d5d67bedeb5decad9588ac4bc5e40a000000001976a91487dc525e3a001b02777356a9c661d5896f24169188ac144a08000000000017a914fdce48014ccbc3f280c06b0312199c10a6e4b35c87b27b0400000000001976a914ae595beba5706cb6bf3c6bbd10a974af48a5c6af88ac1f480400000000001976a91477208a0ff61f0a720d9a5cb5f0ac7e140429d02a88ace67303000000000017a914bae82dad20fe1a6afd58ab629f5793665d7ac6ad874d100700000000001976a914916515d196adb4c951ac2cd26773aefbac0ef61e88acf26f0600000000001976a914458ed1b8ab02363548d318ad3444ba9711dc38d488ac3c9005000000000017a9145710365001e9a9f1dbad439c6eda230973f5e8cd87e53b06000000000017a9141a556fc98f318adfb9d4e5375d9ac191476b6c91879dc323000000000017a914a05168c9558428f888335120f9914bc4d71a852987b31909000000000017a9142b3c32ad12bdb4229159677d2019fbabeb32b3548702483045022100856003c7bfd02c9257df296a0e576ddd9db9d7193ebcb8670200d9bfd58a7b780220583fa7811895b7613e1abfc14a7d680106ef2ad9d7862c1d216649f1a8ecea290121028bd2aeb3e6d03f4d693304dfc7a01fe6265bf111404f0329bb235c8c4561cc9313490800", "vin": [{"txinwitness": ["3045022100856003c7bfd02c9257df296a0e576ddd9db9d7193ebcb8670200d9bfd58a7b780220583fa7811895b7613e1abfc14a7d680106ef2ad9d7862c1d216649f1a8ecea2901", "028bd2aeb3e6d03f4d693304dfc7a01fe6265bf111404f0329bb235c8c4561cc93"], "sequence": 4294967294, "scriptSig": {"hex": "16001487ac4e17c96b1b36b16e38fd62bb15d0b43891f8", "asm": "001487ac4e17c96b1b36b16e38fd62bb15d0b43891f8"}, "vout": 27, "txid": "5e1cfb3831352ed11e48306319d4303bc1478866f6256aed1e2ce8873bc8ac82"}], "txid": "ff023474038edbc1d647456c15fe91313d5bf133e40608985d9318d1c7d0685e", "blocktime": 1537873282, "version": 2, "confirmations": 11481, "time": 1537873282, "locktime": 542995, "vsize": 1306, "size": 1388}