{"hash": "ff045fafa8fe2c5f26fefa217295001b11b3c63891ce787eaf685d64b085e1cf", "blockhash": "0000000000000000001e0dab787dd257d1dbfcb92a98c2207d5e1078be1f4165", "vout": [{"scriptPubKey": {"reqSigs": 1, "hex": "76a914e735bf7f81e03bfe0303ef0ab792d5616633a8fa88ac", "addresses": ["1N5XUnwXcnxKA3UQ9sinrz1gwVYnir9Kew"], "asm": "OP_DUP OP_HASH160 e735bf7f81e03bfe0303ef0ab792d5616633a8fa OP_EQUALVERIFY OP_CHECKSIG", "type": "pubkeyhash"}, "value": 0.02589302, "n": 0}, {"scriptPubKey": {"reqSigs": 1, "hex": "76a914c79bc56772f3db6a70ae96291659905446f2740b88ac", "addresses": ["1KCS5Lm86wo9oETyZ7U1bu7bPBVap2h9vo"], "asm": "OP_DUP OP_HASH160 c79bc56772f3db6a70ae96291659905446f2740b OP_EQUALVERIFY OP_CHECKSIG", "type": "pubkeyhash"}, "value": 0.0458887, "n": 1}], "hex": "0100000001d467f1173057f4af90c99cbc33f332308de512dd87734d7a7f6d9d5cc8ddf1f2000000006b483045022100b91287b55eef0e8502d3e335773ead5b422c7cdac334a23e6f5a3b80687726a802206afd9b0ae9642072819571139a1c06e2173ad1c30cf4c2c8636b193e6bf2cf67012102a7bc360d09563becf3611676c135d559522d40e4ee1310e5947cc86e34d18f3bffffffff0276822700000000001976a914e735bf7f81e03bfe0303ef0ab792d5616633a8fa88ac46054600000000001976a914c79bc56772f3db6a70ae96291659905446f2740b88ac00000000", "vin": [{"sequence": 4294967295, "scriptSig": {"hex": "483045022100b91287b55eef0e8502d3e335773ead5b422c7cdac334a23e6f5a3b80687726a802206afd9b0ae9642072819571139a1c06e2173ad1c30cf4c2c8636b193e6bf2cf67012102a7bc360d09563becf3611676c135d559522d40e4ee1310e5947cc86e34d18f3b", "asm": "3045022100b91287b55eef0e8502d3e335773ead5b422c7cdac334a23e6f5a3b80687726a802206afd9b0ae9642072819571139a1c06e2173ad1c30cf4c2c8636b193e6bf2cf67[ALL] 02a7bc360d09563becf3611676c135d559522d40e4ee1310e5947cc86e34d18f3b"}, "vout": 0, "txid": "f2f1ddc85c9d6d7f7a4d7387dd12e58d3032f333bc9cc990aff4573017f167d4"}], "txid": "ff045fafa8fe2c5f26fefa217295001b11b3c63891ce787eaf685d64b085e1cf", "blocktime": 1537872475, "version": 1, "confirmations": 11486, "time": 1537872475, "locktime": 0, "vsize": 226, "size": 226}