{"hash": "08f72602f17ec5a5cb9bca9e447fc895ee8abbee2e8a32f55005b4b5c26b26b7", "blockhash": "0000000000000000000dcc0f55137456b1a82d3642486a52398922ac4d620174", "vout": [{"scriptPubKey": {"reqSigs": 1, "hex": "76a914658bc2e4001cfacc64a3e041943e921b3086737588ac", "addresses": ["1AFvgAG4FN8fhtp3ZtSF8hsmKvPTDiB4RV"], "asm": "OP_DUP OP_HASH160 658bc2e4001cfacc64a3e041943e921b30867375 OP_EQUALVERIFY OP_CHECKSIG", "type": "pubkeyhash"}, "value": 3.416e-05, "n": 0}, {"scriptPubKey": {"reqSigs": 1, "hex": "a914e8db75c900cf08f06518e96d167331f2a4abfb3387", "addresses": ["3NvFbQMAkkqEFj4i1sYPPLkSWzxTFUchjA"], "asm": "OP_HASH160 e8db75c900cf08f06518e96d167331f2a4abfb33 OP_EQUAL", "type": "scripthash"}, "value": 0.00882489, "n": 1}], "hex": "01000000000101ff5c2aebc5f1bbab7daa1de180eacd7ff8733c9de03e13a25eb99fc387b12f240100000023220020941cfaff8837763dc1f69ff82b6d6553fdea17a41cfc29a04403293eedd8ccc7ffffffff02580d0000000000001976a914658bc2e4001cfacc64a3e041943e921b3086737588ac39770d000000000017a914e8db75c900cf08f06518e96d167331f2a4abfb3387040047304402204bd7016885d9ac683c6663b1e7beec141bdfe1d65f0ace51e2d2720b4520e8e502202cd4a98083f3df63dfca8ab79be4d8b7231b0ca8a805a760f64fa31ffa52d58d01473044022054b338552a920b6320e0ae47ef2ca59d021458b2a219ae1534c787ba1c33e55b02207c68cb835fd667f1402c21b80a8b72123018b57c1e95d0b8569c383fb69144460147522102531db3a5883f29bab4241dd0cd726936667bcda445d89bdd22244e828b6993342103148c80a5bdfddb05ff5bcffc397c8ca748d8b435ec6a175bc9d7bfc7fc6f853752ae00000000", "vin": [{"txinwitness": ["", "304402204bd7016885d9ac683c6663b1e7beec141bdfe1d65f0ace51e2d2720b4520e8e502202cd4a98083f3df63dfca8ab79be4d8b7231b0ca8a805a760f64fa31ffa52d58d01", "3044022054b338552a920b6320e0ae47ef2ca59d021458b2a219ae1534c787ba1c33e55b02207c68cb835fd667f1402c21b80a8b72123018b57c1e95d0b8569c383fb691444601", "522102531db3a5883f29bab4241dd0cd726936667bcda445d89bdd22244e828b6993342103148c80a5bdfddb05ff5bcffc397c8ca748d8b435ec6a175bc9d7bfc7fc6f853752ae"], "sequence": 4294967295, "scriptSig": {"hex": "220020941cfaff8837763dc1f69ff82b6d6553fdea17a41cfc29a04403293eedd8ccc7", "asm": "0020941cfaff8837763dc1f69ff82b6d6553fdea17a41cfc29a04403293eedd8ccc7"}, "vout": 1, "txid": "242fb187c39fb95ea2133ee09d3c73f87fcdea80e11daa7dabbbf1c5eb2a5cff"}], "txid": "ff0dec02d027d3f4a027b4e1ee7cbfcd21450b2ad0001cf6189ba58fac0375e5", "blocktime": 1537870268, "version": 1, "confirmations": 11518, "time": 1537870268, "locktime": 0, "vsize": 207, "size": 372}