{"hash": "ff111bf9c2046dde89061a26bc66e6436be01cc3571615a9989cd8b874ade322", "blockhash": "0000000000000000001f76057863aec43deb6fa401d9628bb513d65a8098bfab", "vout": [{"scriptPubKey": {"reqSigs": 1, "hex": "76a91415b529141b10ff6a8cdfe2db444e43b4f3cc599f88ac", "addresses": ["12ynDH8Tm4u1pU7Lm8WxxyVCD3DmLfaBXG"], "asm": "OP_DUP OP_HASH160 15b529141b10ff6a8cdfe2db444e43b4f3cc599f OP_EQUALVERIFY OP_CHECKSIG", "type": "pubkeyhash"}, "value": 0.0147492, "n": 0}, {"scriptPubKey": {"type": "nulldata", "hex": "6a4c50000077da000176de278d66a6dcee7212292e7af8e8e963c7cfd5b95b23cc0f42c2fc38c56467b3cbf6c99e7d4156eca100db08db5baa15ae061307ddf866d28bbc9a9526289ac0f6612cd74e33776ee4", "asm": "OP_RETURN 000077da000176de278d66a6dcee7212292e7af8e8e963c7cfd5b95b23cc0f42c2fc38c56467b3cbf6c99e7d4156eca100db08db5baa15ae061307ddf866d28bbc9a9526289ac0f6612cd74e33776ee4"}, "value": 0.0, "n": 1}], "hex": "01000000018bb65be59b14ff477ac703a7c691322b75e29db3f6e51e3e6a8ad5162c9b7b61010000006a47304402203a65e9034e366df684ac82cf8166a25681fcb4e9cc59472bb9b667b377c1503f0220624979d1433a278f9525360e58e3eabd0f1203f974bd0174b87f7946ec2bac680121034176b3b6da14986c39fdbccc16b896f262c72ae6fc23dbde14af0276f67b0d22ffffffff0268811600000000001976a91415b529141b10ff6a8cdfe2db444e43b4f3cc599f88ac0000000000000000536a4c50000077da000176de278d66a6dcee7212292e7af8e8e963c7cfd5b95b23cc0f42c2fc38c56467b3cbf6c99e7d4156eca100db08db5baa15ae061307ddf866d28bbc9a9526289ac0f6612cd74e33776ee400000000", "vin": [{"sequence": 4294967295, "scriptSig": {"hex": "47304402203a65e9034e366df684ac82cf8166a25681fcb4e9cc59472bb9b667b377c1503f0220624979d1433a278f9525360e58e3eabd0f1203f974bd0174b87f7946ec2bac680121034176b3b6da14986c39fdbccc16b896f262c72ae6fc23dbde14af0276f67b0d22", "asm": "304402203a65e9034e366df684ac82cf8166a25681fcb4e9cc59472bb9b667b377c1503f0220624979d1433a278f9525360e58e3eabd0f1203f974bd0174b87f7946ec2bac68[ALL] 034176b3b6da14986c39fdbccc16b896f262c72ae6fc23dbde14af0276f67b0d22"}, "vout": 1, "txid": "617b9b2c16d58a6a3e1ee5f6b39de2752b3291c6a703c77a47ff149be55bb68b"}], "txid": "ff111bf9c2046dde89061a26bc66e6436be01cc3571615a9989cd8b874ade322", "blocktime": 1537873891, "version": 1, "confirmations": 11478, "time": 1537873891, "locktime": 0, "vsize": 283, "size": 283}