{"hash": "ff1c936b22f0cf67303e31bda1f3698be00535288ea0e22df2c0a3f59d20c129", "blockhash": "0000000000000000001e0dab787dd257d1dbfcb92a98c2207d5e1078be1f4165", "vout": [{"scriptPubKey": {"reqSigs": 1, "hex": "76a914952c8b1e9759136e68456927cfb720edf4fe78f488ac", "addresses": ["1Ebm3Ws6U9PpfTxcBh782htAe1jrc9LG9i"], "asm": "OP_DUP OP_HASH160 952c8b1e9759136e68456927cfb720edf4fe78f4 OP_EQUALVERIFY OP_CHECKSIG", "type": "pubkeyhash"}, "value": 8.172e-05, "n": 0}, {"scriptPubKey": {"reqSigs": 1, "hex": "76a91402dd19c93ac49d2e228d6a33a2902cfed74c816288ac", "addresses": ["1G9DjRgucP26fVGW2eK4T3RF8aMJE2qeh"], "asm": "OP_DUP OP_HASH160 02dd19c93ac49d2e228d6a33a2902cfed74c8162 OP_EQUALVERIFY OP_CHECKSIG", "type": "pubkeyhash"}, "value": 0.006888, "n": 1}], "hex": "010000000191003cbb2f530df00ca0d6ccb0eb49d55eeeb346eb4f6e77417fadca8cd65d2e010000006a473044022014564fc280453422b94b19a3f2f66328726f717ba104ec93d69d50a3526e2ded02202a9077902592bb11f4cf3cef5463e160c7d8b95ba18adc9a361a343a46081b25012102b9f8a87517579d24b55da2f27461dec2ac3eae8ee9c3ea37f51bd6c56a7c6002ffffffff02ec1f0000000000001976a914952c8b1e9759136e68456927cfb720edf4fe78f488aca0820a00000000001976a91402dd19c93ac49d2e228d6a33a2902cfed74c816288ac00000000", "vin": [{"sequence": 4294967295, "scriptSig": {"hex": "473044022014564fc280453422b94b19a3f2f66328726f717ba104ec93d69d50a3526e2ded02202a9077902592bb11f4cf3cef5463e160c7d8b95ba18adc9a361a343a46081b25012102b9f8a87517579d24b55da2f27461dec2ac3eae8ee9c3ea37f51bd6c56a7c6002", "asm": "3044022014564fc280453422b94b19a3f2f66328726f717ba104ec93d69d50a3526e2ded02202a9077902592bb11f4cf3cef5463e160c7d8b95ba18adc9a361a343a46081b25[ALL] 02b9f8a87517579d24b55da2f27461dec2ac3eae8ee9c3ea37f51bd6c56a7c6002"}, "vout": 1, "txid": "2e5dd68ccaad7f41776e4feb46b3ee5ed549ebb0ccd6a00cf00d532fbb3c0091"}], "txid": "ff1c936b22f0cf67303e31bda1f3698be00535288ea0e22df2c0a3f59d20c129", "blocktime": 1537872475, "version": 1, "confirmations": 11487, "time": 1537872475, "locktime": 0, "vsize": 225, "size": 225}