{"hash": "ff1e4f58673bcbcbc61994b834ca735b6f90997e735776fde16233ce860439b6", "blockhash": "0000000000000000000e13cef7c366c0283d82e591d1acd082e914b08063cdf1", "vout": [{"scriptPubKey": {"reqSigs": 1, "hex": "76a914341f529083c33a2f4567130b64b3f64cd337830688ac", "addresses": ["15kbfJWTRiXdyvVcbvz7uM4HK3qJzNFXKj"], "asm": "OP_DUP OP_HASH160 341f529083c33a2f4567130b64b3f64cd3378306 OP_EQUALVERIFY OP_CHECKSIG", "type": "pubkeyhash"}, "value": 0.0014122, "n": 0}, {"scriptPubKey": {"type": "nulldata", "hex": "6a4c500000779f00011bbada52bea64deb80d417c6af6c953dd567cf27e7e3ef3236678a6250976338b0447b36ee276d347b71a7e1b8ac5baa0e0e061705ecdd3a27bcbc9a9526289ac0f6612cd74e33776ee4", "asm": "OP_RETURN 0000779f00011bbada52bea64deb80d417c6af6c953dd567cf27e7e3ef3236678a6250976338b0447b36ee276d347b71a7e1b8ac5baa0e0e061705ecdd3a27bcbc9a9526289ac0f6612cd74e33776ee4"}, "value": 0.0, "n": 1}], "hex": "0100000001f23234a4bdd18a89f6dd5deec0b3a84453581cb1ee34ebdc7218fb8d98715854010000006b483045022100f6e084d32caf518f1ad80e34423b61550be3ccfa23ea7fb33e56b3685d5ddc020220128b0d837da9b96269bb9838dbb90421532de95aa30ef7fcb037b4dea57fdaa9012102e45e650bdcadb8f57a019285f17719eed28260c1091309bd8590a9224c8e30a0ffffffff02a4270200000000001976a914341f529083c33a2f4567130b64b3f64cd337830688ac0000000000000000536a4c500000779f00011bbada52bea64deb80d417c6af6c953dd567cf27e7e3ef3236678a6250976338b0447b36ee276d347b71a7e1b8ac5baa0e0e061705ecdd3a27bcbc9a9526289ac0f6612cd74e33776ee400000000", "vin": [{"sequence": 4294967295, "scriptSig": {"hex": "483045022100f6e084d32caf518f1ad80e34423b61550be3ccfa23ea7fb33e56b3685d5ddc020220128b0d837da9b96269bb9838dbb90421532de95aa30ef7fcb037b4dea57fdaa9012102e45e650bdcadb8f57a019285f17719eed28260c1091309bd8590a9224c8e30a0", "asm": "3045022100f6e084d32caf518f1ad80e34423b61550be3ccfa23ea7fb33e56b3685d5ddc020220128b0d837da9b96269bb9838dbb90421532de95aa30ef7fcb037b4dea57fdaa9[ALL] 02e45e650bdcadb8f57a019285f17719eed28260c1091309bd8590a9224c8e30a0"}, "vout": 1, "txid": "545871988dfb1872dceb34eeb11c585344a8b3c0ee5dddf6898ad1bda43432f2"}], "txid": "ff1e4f58673bcbcbc61994b834ca735b6f90997e735776fde16233ce860439b6", "blocktime": 1537871767, "version": 1, "confirmations": 11493, "time": 1537871767, "locktime": 0, "vsize": 284, "size": 284}