{"hash": "ff3531f34b270755c0927e922b7920c251f8c306c24e9fe81b0decb558d7387b", "blockhash": "0000000000000000001f76057863aec43deb6fa401d9628bb513d65a8098bfab", "vout": [{"scriptPubKey": {"reqSigs": 1, "hex": "a914d6a10b324499a1de9c36ab35e1ecbf72e715c48c87", "addresses": ["3MFsT7McEsJxSurhY6kKnfN7tY7rsWhwym"], "asm": "OP_HASH160 d6a10b324499a1de9c36ab35e1ecbf72e715c48c OP_EQUAL", "type": "scripthash"}, "value": 0.0071, "n": 0}, {"scriptPubKey": {"reqSigs": 1, "hex": "76a9147e9f00ef5eab071b96b470ca3362b3005b02a8fc88ac", "addresses": ["1CYWcwQjKWmXRYinWr6afMwCxevpdTyBmD"], "asm": "OP_DUP OP_HASH160 7e9f00ef5eab071b96b470ca3362b3005b02a8fc OP_EQUALVERIFY OP_CHECKSIG", "type": "pubkeyhash"}, "value": 0.00568381, "n": 1}], "hex": "0100000001dce8039a2ff64d9e484837c3fe326c29a8cc56b7ac889eb57e9d7793f6c75503020000006a47304402203fb3ca769945a63e2090429fa89c2e75784bd3f5acf1b009ac640272f6594d2b02207ddcde2c0d7cf8605ee5e53a5cd0396147338b44ffee8582f179f494621f82ad01210331d1dea1e5d29af954566d513a97e6de9da0ccd9b45a6be753d22a10cbe7b2a5ffffffff0270d50a000000000017a914d6a10b324499a1de9c36ab35e1ecbf72e715c48c873dac0800000000001976a9147e9f00ef5eab071b96b470ca3362b3005b02a8fc88ac00000000", "vin": [{"sequence": 4294967295, "scriptSig": {"hex": "47304402203fb3ca769945a63e2090429fa89c2e75784bd3f5acf1b009ac640272f6594d2b02207ddcde2c0d7cf8605ee5e53a5cd0396147338b44ffee8582f179f494621f82ad01210331d1dea1e5d29af954566d513a97e6de9da0ccd9b45a6be753d22a10cbe7b2a5", "asm": "304402203fb3ca769945a63e2090429fa89c2e75784bd3f5acf1b009ac640272f6594d2b02207ddcde2c0d7cf8605ee5e53a5cd0396147338b44ffee8582f179f494621f82ad[ALL] 0331d1dea1e5d29af954566d513a97e6de9da0ccd9b45a6be753d22a10cbe7b2a5"}, "vout": 2, "txid": "0355c7f693779d7eb59e88acb756cca8296c32fec33748489e4df62f9a03e8dc"}], "txid": "ff3531f34b270755c0927e922b7920c251f8c306c24e9fe81b0decb558d7387b", "blocktime": 1537873891, "version": 1, "confirmations": 11475, "time": 1537873891, "locktime": 0, "vsize": 223, "size": 223}