{"hash": "465297b7df05037a1297b7e1e877b8a7e611b23fa5f3da7829427375032b8bcd", "blockhash": "0000000000000000001f76057863aec43deb6fa401d9628bb513d65a8098bfab", "vout": [{"scriptPubKey": {"reqSigs": 1, "hex": "00143e14a31453d17649837dd297b84b12357c40fdb4", "addresses": ["bc1q8c22x9zn69mynqma62tmsjcjx47ypld533s0ml"], "asm": "0 3e14a31453d17649837dd297b84b12357c40fdb4", "type": "witness_v0_keyhash"}, "value": 1.53e-05, "n": 0}, {"scriptPubKey": {"reqSigs": 1, "hex": "76a914f8f9d57a0a0d37dfeafaa83651744d5ea8ff622b88ac", "addresses": ["1PhTsLZGai5HxxsVPk63JhqhE1ESuzLp1T"], "asm": "OP_DUP OP_HASH160 f8f9d57a0a0d37dfeafaa83651744d5ea8ff622b OP_EQUALVERIFY OP_CHECKSIG", "type": "pubkeyhash"}, "value": 0.0004, "n": 1}], "hex": "010000000001011bc2991290e9415d57a19761aa0945a67799f7b8716f6f4cd75b3ad8a5e94a190000000000ffffffff02fa050000000000001600143e14a31453d17649837dd297b84b12357c40fdb4409c0000000000001976a914f8f9d57a0a0d37dfeafaa83651744d5ea8ff622b88ac02483045022100b0656bbb32f3eb7609cd853b677b66e9d9f80820c9f493f17c33f7a38749fb2702206bd2a2defc05aa2844da5da77db895c9e8efc0284ef7eba10cdf69d61febd711012103394098a4df0a89a5267500503362227caaca0fc6054f9ff21ad546466626b6ba00000000", "vin": [{"txinwitness": ["3045022100b0656bbb32f3eb7609cd853b677b66e9d9f80820c9f493f17c33f7a38749fb2702206bd2a2defc05aa2844da5da77db895c9e8efc0284ef7eba10cdf69d61febd71101", "03394098a4df0a89a5267500503362227caaca0fc6054f9ff21ad546466626b6ba"], "sequence": 4294967295, "scriptSig": {"hex": "", "asm": ""}, "vout": 0, "txid": "194ae9a5d83a5bd74c6f6f71b8f79977a64509aa6197a1575d41e9901299c21b"}], "txid": "ff4bc2fadc609b812a2279966f49044b4f20c0e53c970d35a9dc124db78415e5", "blocktime": 1537873891, "version": 1, "confirmations": 11478, "time": 1537873891, "locktime": 0, "vsize": 144, "size": 226}