{"hash": "ff574aa2d23c7e2ca0aa38d378d9db9ea555093a95401687227405bb27064d23", "blockhash": "00000000000000000004ffacab907a6b429b9a5745fa0b75af4234bf69dd7176", "vout": [{"scriptPubKey": {"reqSigs": 1, "hex": "a9140c0952c71a6cb542b3c48195b1decbad337ce2f987", "addresses": ["32nfCeGu37YSf9DkYYAAmQbu8bmYrpRPJ3"], "asm": "OP_HASH160 0c0952c71a6cb542b3c48195b1decbad337ce2f9 OP_EQUAL", "type": "scripthash"}, "value": 0.0046, "n": 0}, {"scriptPubKey": {"reqSigs": 1, "hex": "a914ac06158ba89fb7f4b9cd7552c20d1cf26190fcc587", "addresses": ["3HNbSGpcggjqtFuoAe5ScJKfiuLBvup7WH"], "asm": "OP_HASH160 ac06158ba89fb7f4b9cd7552c20d1cf26190fcc5 OP_EQUAL", "type": "scripthash"}, "value": 0.00012584, "n": 1}], "hex": "01000000013ff4b4ca81dad97ff520b8d2294d0b043bad42309115ef61bcdd834bc30caced01000000fdfe0000483045022100fb63ec62f21277f371010852c66768ba1c90a5a4827487674671c54178a035a4022055f978d9ef72f466c70582427e90639332952fa9fa13ed433da38404bb8581c001483045022100b81f2d9f0c47d202917ec53fbb7841c3b6326cca1017c02ddaf52630c317fc750220370d9a49cb8267e1234476cf00d11ff0c5d488b2791f2e9c66fc46b6eeb31b52014c6952210337d27e64996e389df094f674f66a53cf31ebb63362c8baf593178aa8ed1ce5bc2102eeb69cfe6e93b6c152cafb45963a63d34019a8d323ffb037934ad7b9edd2c3a62102d65775430310a6d121db60262a69eb2a9a5cf2e16365b981ee63fade308e64d253aeffffffff02e00407000000000017a9140c0952c71a6cb542b3c48195b1decbad337ce2f987283100000000000017a914ac06158ba89fb7f4b9cd7552c20d1cf26190fcc58700000000", "vin": [{"sequence": 4294967295, "scriptSig": {"hex": "00483045022100fb63ec62f21277f371010852c66768ba1c90a5a4827487674671c54178a035a4022055f978d9ef72f466c70582427e90639332952fa9fa13ed433da38404bb8581c001483045022100b81f2d9f0c47d202917ec53fbb7841c3b6326cca1017c02ddaf52630c317fc750220370d9a49cb8267e1234476cf00d11ff0c5d488b2791f2e9c66fc46b6eeb31b52014c6952210337d27e64996e389df094f674f66a53cf31ebb63362c8baf593178aa8ed1ce5bc2102eeb69cfe6e93b6c152cafb45963a63d34019a8d323ffb037934ad7b9edd2c3a62102d65775430310a6d121db60262a69eb2a9a5cf2e16365b981ee63fade308e64d253ae", "asm": "0 3045022100fb63ec62f21277f371010852c66768ba1c90a5a4827487674671c54178a035a4022055f978d9ef72f466c70582427e90639332952fa9fa13ed433da38404bb8581c0[ALL] 3045022100b81f2d9f0c47d202917ec53fbb7841c3b6326cca1017c02ddaf52630c317fc750220370d9a49cb8267e1234476cf00d11ff0c5d488b2791f2e9c66fc46b6eeb31b52[ALL] 52210337d27e64996e389df094f674f66a53cf31ebb63362c8baf593178aa8ed1ce5bc2102eeb69cfe6e93b6c152cafb45963a63d34019a8d323ffb037934ad7b9edd2c3a62102d65775430310a6d121db60262a69eb2a9a5cf2e16365b981ee63fade308e64d253ae"}, "vout": 1, "txid": "edac0cc34b83ddbc61ef15913042ad3b040b4d29d2b820f57fd9da81cab4f43f"}], "txid": "ff574aa2d23c7e2ca0aa38d378d9db9ea555093a95401687227405bb27064d23", "blocktime": 1537875543, "version": 1, "confirmations": 11464, "time": 1537875543, "locktime": 0, "vsize": 371, "size": 371}