{"hash": "ff5bcb0ac222a3503132b143f7784598a08207ec9571d76100854b3a3aeeef5d", "blockhash": "00000000000000000004ffacab907a6b429b9a5745fa0b75af4234bf69dd7176", "vout": [{"scriptPubKey": {"reqSigs": 1, "hex": "76a9140db1b74b8a8350a921afbf9dfe4a17b07a60416688ac", "addresses": ["12FQgRE9HixYdtcFtBqSutpD2wUzTBvsnh"], "asm": "OP_DUP OP_HASH160 0db1b74b8a8350a921afbf9dfe4a17b07a604166 OP_EQUALVERIFY OP_CHECKSIG", "type": "pubkeyhash"}, "value": 0.01341315, "n": 0}, {"scriptPubKey": {"reqSigs": 1, "hex": "76a914c3f69d83a86f436eef362b13b95b33ea4cc8517488ac", "addresses": ["1JsACYBoRCYkz7DSgyKurMyibbmHwcHbPd"], "asm": "OP_DUP OP_HASH160 c3f69d83a86f436eef362b13b95b33ea4cc85174 OP_EQUALVERIFY OP_CHECKSIG", "type": "pubkeyhash"}, "value": 1.9, "n": 1}], "hex": "010000000fe74e42ffb367cde2a95ca79c192deaacad005bf09b10cb9a54e28cb182a8c743010000006a473044022037953d72ba51a58aa196b9d37f1ddc7750fe758a6f25758b52823ae17fede675022074a448aea1d08f670162100b2a5ebc49231e7b1272c9c8e69b71cda3f82fea0e012102f3658a4f3a817d28d45871300b9bf88fdcfede371c278fbcb0900563c9218471ffffffff8b72b6dd29a2af8eff100d1b5d32ac69d231b501f5fca589895b3fd34dc76047000000006b483045022100efde1396abba73ad88b670013cd90fa38b697429ffb2f70d625fbd470f4298b002202a3055fbe3428dffa2c655ea76d2a38e2dc805568d5f049b6d20a85f2646a557012102182ae89bb420fd0340d3282c11a73227a73a13a3be85b3144c9a496f25076e02ffffffff9af19aaa47172b6c6dd41f87243045ab4e5169f4bbfad9bdd3483ca542423d58010000006b4830450221009b1beb0a04250b4404c631554232485d638bdce7dfa33a386e9f63f5e7225887022050504b94e6f99d0d76efd603f8460f6f5acfef7df436c26aa1b925b95557782401210212f94823d93f769126ba560431a121899797176544f6c928a24ce23859fa10e1ffffffff45467d9a7c77334017e611cfa340cc739e7d2e1c7bbc4612ed39f928f9c89d5a010000006a47304402206e07d90672f89cfa83eacc144cd9915b05882711c76e90c07e97bbdd2e4ffc2e02206450e53aa086b20d09ae39dafea2a1c8234199628a2f663de8095fc770c8c00d012103ee7ffd9b2ece9d87aebdeb454aff26299abf2a6610e947b8fea877b2e01f5e73ffffffffac45d2451fdfeab1e78737f091838f2ea62086cef2a3c299a538d3da46c04769010000006a47304402206ddf9fa7f7a7633c5502e6d9c06355214232f45fd439f5a54681613418683cdd02204091d661c2e4684fd9a8f5f741c3a2bd105684a0dbcf17a07406a9ceed691eba01210269fa793a655095013d133e68f5a7a2b848971705fac9f0b9ab6df368926cb644ffffffff41e3af89d277436a0a52b8ebd2a431205833c88ec618d9e3ee606afbac68866e000000006a47304402201a53a9f136828b6ea4b168a6d58d3c6e28c77e2e591bbc86c4b323795088149802201b54f8b7d245a82cf5685009211a4171f8063ad8af45769bdc5de412abc202f8012102225db6a0b264555e20d9231117a0a4c7a078bff20c523758980111c59b625234ffffffff6de42e38c9ab5f85a1e090faaae43a6ade0e61522954b59c9381a541dcca4b77000000006a47304402200d17e9a756a81de12d9644bf82fc3b7d16724c63c1539b8cad1e3e92f3131814022017240468bb0773e52e4adb758a208d8370eeec3dd5195a0c5b306eadf526cb99012103ba99ed6a8c0fd9fca1a99c00f667f161896d8af63d6791794fd4c20bc9e48b58ffffffff9eeaab6086a50f3c2f4d2424a9932f2d8eb81f00984c55778adcc8c4d4a91280010000006b483045022100a40f9e8628bc2442c3398ba4525f5e70723185aff31901a533c8b48739bb15cc02203344729b00339ed49e8f85b74f4752e1ac413464401bef68278073896266d3b0012103fa48a132b7f65bf032e36c1fd71efef4b0010057a578d55bffa99fd7c92ebb1affffffffb7c1fe85fe7e4bac7273cb5f752ca6def0cc658772f48e4757bbc8f482d64b83010000006b4830450221009e2ed04520e9d93b4a49b7003a39845a43dc513eee102c76ece727366b1a098f02200b399116b999eb46bedbd29d697976c0dedda27385d63d9e9caf610ce2bc82b301210245edbddd4d548d95c008c330290a75ec51b7288c4adfd91144b39e5a9e7bc0b8ffffffff1180a5a117e3218e8b3f97e1dce5c814caad0c1ce29eb048cd6337d9d4ab518b000000006b483045022100847d4d3d5a68ab284140e840928e481ff3449de6ee0c3ca3b79dc6af75ebe062022018503dd5371f093178b7a6f3cd7661e6c8d4b338c55fdda462d6e24133810c3e01210376b5b8b15218828dfef2fc800c536c66ce468031f394c2f83384adb0b6764925ffffffff25751d258f1fac84bab0bef396e2f1e1f3687d6d10395b9e86a1fb2d07b91b93000000006a4730440220455f3fbfffdebd5f394cdddb3232d4a536d69b27f8a2f9e938f1f761c9425ea802201a887789868324f28c9b119500a1cddcf4c6d9df7acdf90bea0843ca26d11a1e012103abbbdbfafc9abfdd50761afad59697af5a18db943322905ebad749fb27f47a7effffffffeedb99fdd65d886c6e13d44d6ef26528c61ad599e84c2f3969e50e8873da7794000000006a4730440220626058fd325e8e586f4f708e5237a5594a0a0c9ad671c981f643223db068006902203271d8caff5a4c068d0cbd6557e5487cf8d12b90d8e640adaba6e7f0b847e7f10121034fe1aaf5699cc5a8e3e9dc1f81f7abf29dd3ce28f09f8bb8172f3001ce2d5e14fffffffff5ea3cef64efd3cfd3849f530a438940edff1c6daaeb805bbb1cf71ee68712c8010000006a47304402206fd37bd9da6223e102c83aa5fee4bfec6ef67289cc152255373fdb67082b71cf02205caf2f85866718b3d3de7e0dc300104c86bf0e795f0add7fd4455952c2f279ec012102a2213b632c71b99b3c66410a7bd2fd16398f8ed0ae65c4f458f25d0c4a790bdbffffffff7862e76237a4e7e22e006caa57f9cd5b642ce05d9aaf5fa513a99838887524ed000000006b483045022100c01938694e31bdb464e9246f8e5d6a96982b606eb6438a596aa47e33fd17229a022001b451d4cdf7dfbd1197d96704d46263e219d5fd4dbab2daae6d9afcd60451df0121035c7403314580c20c178426d42f0028441977a0554955fd50737bbf4e44c821dbfffffffff0698507e093949133cf20e4aa0ba3b145c991c8bb85c439b25a9312621e1cf0000000006b4830450221009ad7e8a5f6bc8e738ddac5859cbfd98c84163e0dade830a2102c94d28af8da7502207876c5541f61e717fdabb5a11c7fcef1aaafeef10ba07c056852319560795deb012103798779071789fb3cc1d066b73530ac4577ca21589f0a4766e86b6c42101a55b6ffffffff0283771400000000001976a9140db1b74b8a8350a921afbf9dfe4a17b07a60416688ac802b530b000000001976a914c3f69d83a86f436eef362b13b95b33ea4cc8517488ac00000000", "vin": [{"sequence": 4294967295, "scriptSig": {"hex": "473044022037953d72ba51a58aa196b9d37f1ddc7750fe758a6f25758b52823ae17fede675022074a448aea1d08f670162100b2a5ebc49231e7b1272c9c8e69b71cda3f82fea0e012102f3658a4f3a817d28d45871300b9bf88fdcfede371c278fbcb0900563c9218471", "asm": "3044022037953d72ba51a58aa196b9d37f1ddc7750fe758a6f25758b52823ae17fede675022074a448aea1d08f670162100b2a5ebc49231e7b1272c9c8e69b71cda3f82fea0e[ALL] 02f3658a4f3a817d28d45871300b9bf88fdcfede371c278fbcb0900563c9218471"}, "vout": 1, "txid": "43c7a882b18ce2549acb109bf05b00adacea2d199ca75ca9e2cd67b3ff424ee7"}, {"sequence": 4294967295, "scriptSig": {"hex": "483045022100efde1396abba73ad88b670013cd90fa38b697429ffb2f70d625fbd470f4298b002202a3055fbe3428dffa2c655ea76d2a38e2dc805568d5f049b6d20a85f2646a557012102182ae89bb420fd0340d3282c11a73227a73a13a3be85b3144c9a496f25076e02", "asm": "3045022100efde1396abba73ad88b670013cd90fa38b697429ffb2f70d625fbd470f4298b002202a3055fbe3428dffa2c655ea76d2a38e2dc805568d5f049b6d20a85f2646a557[ALL] 02182ae89bb420fd0340d3282c11a73227a73a13a3be85b3144c9a496f25076e02"}, "vout": 0, "txid": "4760c74dd33f5b8989a5fcf501b531d269ac325d1b0d10ff8eafa229ddb6728b"}, {"sequence": 4294967295, "scriptSig": {"hex": "4830450221009b1beb0a04250b4404c631554232485d638bdce7dfa33a386e9f63f5e7225887022050504b94e6f99d0d76efd603f8460f6f5acfef7df436c26aa1b925b95557782401210212f94823d93f769126ba560431a121899797176544f6c928a24ce23859fa10e1", "asm": "30450221009b1beb0a04250b4404c631554232485d638bdce7dfa33a386e9f63f5e7225887022050504b94e6f99d0d76efd603f8460f6f5acfef7df436c26aa1b925b955577824[ALL] 0212f94823d93f769126ba560431a121899797176544f6c928a24ce23859fa10e1"}, "vout": 1, "txid": "583d4242a53c48d3bdd9fabbf469514eab453024871fd46d6c2b1747aa9af19a"}, {"sequence": 4294967295, "scriptSig": {"hex": "47304402206e07d90672f89cfa83eacc144cd9915b05882711c76e90c07e97bbdd2e4ffc2e02206450e53aa086b20d09ae39dafea2a1c8234199628a2f663de8095fc770c8c00d012103ee7ffd9b2ece9d87aebdeb454aff26299abf2a6610e947b8fea877b2e01f5e73", "asm": "304402206e07d90672f89cfa83eacc144cd9915b05882711c76e90c07e97bbdd2e4ffc2e02206450e53aa086b20d09ae39dafea2a1c8234199628a2f663de8095fc770c8c00d[ALL] 03ee7ffd9b2ece9d87aebdeb454aff26299abf2a6610e947b8fea877b2e01f5e73"}, "vout": 1, "txid": "5a9dc8f928f939ed1246bc7b1c2e7d9e73cc40a3cf11e6174033777c9a7d4645"}, {"sequence": 4294967295, "scriptSig": {"hex": "47304402206ddf9fa7f7a7633c5502e6d9c06355214232f45fd439f5a54681613418683cdd02204091d661c2e4684fd9a8f5f741c3a2bd105684a0dbcf17a07406a9ceed691eba01210269fa793a655095013d133e68f5a7a2b848971705fac9f0b9ab6df368926cb644", "asm": "304402206ddf9fa7f7a7633c5502e6d9c06355214232f45fd439f5a54681613418683cdd02204091d661c2e4684fd9a8f5f741c3a2bd105684a0dbcf17a07406a9ceed691eba[ALL] 0269fa793a655095013d133e68f5a7a2b848971705fac9f0b9ab6df368926cb644"}, "vout": 1, "txid": "6947c046dad338a599c2a3f2ce8620a62e8f8391f03787e7b1eadf1f45d245ac"}, {"sequence": 4294967295, "scriptSig": {"hex": "47304402201a53a9f136828b6ea4b168a6d58d3c6e28c77e2e591bbc86c4b323795088149802201b54f8b7d245a82cf5685009211a4171f8063ad8af45769bdc5de412abc202f8012102225db6a0b264555e20d9231117a0a4c7a078bff20c523758980111c59b625234", "asm": "304402201a53a9f136828b6ea4b168a6d58d3c6e28c77e2e591bbc86c4b323795088149802201b54f8b7d245a82cf5685009211a4171f8063ad8af45769bdc5de412abc202f8[ALL] 02225db6a0b264555e20d9231117a0a4c7a078bff20c523758980111c59b625234"}, "vout": 0, "txid": "6e8668acfb6a60eee3d918c68ec833582031a4d2ebb8520a6a4377d289afe341"}, {"sequence": 4294967295, "scriptSig": {"hex": "47304402200d17e9a756a81de12d9644bf82fc3b7d16724c63c1539b8cad1e3e92f3131814022017240468bb0773e52e4adb758a208d8370eeec3dd5195a0c5b306eadf526cb99012103ba99ed6a8c0fd9fca1a99c00f667f161896d8af63d6791794fd4c20bc9e48b58", "asm": "304402200d17e9a756a81de12d9644bf82fc3b7d16724c63c1539b8cad1e3e92f3131814022017240468bb0773e52e4adb758a208d8370eeec3dd5195a0c5b306eadf526cb99[ALL] 03ba99ed6a8c0fd9fca1a99c00f667f161896d8af63d6791794fd4c20bc9e48b58"}, "vout": 0, "txid": "774bcadc41a581939cb5542952610ede6a3ae4aafa90e0a1855fabc9382ee46d"}, {"sequence": 4294967295, "scriptSig": {"hex": "483045022100a40f9e8628bc2442c3398ba4525f5e70723185aff31901a533c8b48739bb15cc02203344729b00339ed49e8f85b74f4752e1ac413464401bef68278073896266d3b0012103fa48a132b7f65bf032e36c1fd71efef4b0010057a578d55bffa99fd7c92ebb1a", "asm": "3045022100a40f9e8628bc2442c3398ba4525f5e70723185aff31901a533c8b48739bb15cc02203344729b00339ed49e8f85b74f4752e1ac413464401bef68278073896266d3b0[ALL] 03fa48a132b7f65bf032e36c1fd71efef4b0010057a578d55bffa99fd7c92ebb1a"}, "vout": 1, "txid": "8012a9d4c4c8dc8a77554c98001fb88e2d2f93a924244d2f3c0fa58660abea9e"}, {"sequence": 4294967295, "scriptSig": {"hex": "4830450221009e2ed04520e9d93b4a49b7003a39845a43dc513eee102c76ece727366b1a098f02200b399116b999eb46bedbd29d697976c0dedda27385d63d9e9caf610ce2bc82b301210245edbddd4d548d95c008c330290a75ec51b7288c4adfd91144b39e5a9e7bc0b8", "asm": "30450221009e2ed04520e9d93b4a49b7003a39845a43dc513eee102c76ece727366b1a098f02200b399116b999eb46bedbd29d697976c0dedda27385d63d9e9caf610ce2bc82b3[ALL] 0245edbddd4d548d95c008c330290a75ec51b7288c4adfd91144b39e5a9e7bc0b8"}, "vout": 1, "txid": "834bd682f4c8bb57478ef4728765ccf0dea62c755fcb7372ac4b7efe85fec1b7"}, {"sequence": 4294967295, "scriptSig": {"hex": "483045022100847d4d3d5a68ab284140e840928e481ff3449de6ee0c3ca3b79dc6af75ebe062022018503dd5371f093178b7a6f3cd7661e6c8d4b338c55fdda462d6e24133810c3e01210376b5b8b15218828dfef2fc800c536c66ce468031f394c2f83384adb0b6764925", "asm": "3045022100847d4d3d5a68ab284140e840928e481ff3449de6ee0c3ca3b79dc6af75ebe062022018503dd5371f093178b7a6f3cd7661e6c8d4b338c55fdda462d6e24133810c3e[ALL] 0376b5b8b15218828dfef2fc800c536c66ce468031f394c2f83384adb0b6764925"}, "vout": 0, "txid": "8b51abd4d93763cd48b09ee21c0cadca14c8e5dce1973f8b8e21e317a1a58011"}, {"sequence": 4294967295, "scriptSig": {"hex": "4730440220455f3fbfffdebd5f394cdddb3232d4a536d69b27f8a2f9e938f1f761c9425ea802201a887789868324f28c9b119500a1cddcf4c6d9df7acdf90bea0843ca26d11a1e012103abbbdbfafc9abfdd50761afad59697af5a18db943322905ebad749fb27f47a7e", "asm": "30440220455f3fbfffdebd5f394cdddb3232d4a536d69b27f8a2f9e938f1f761c9425ea802201a887789868324f28c9b119500a1cddcf4c6d9df7acdf90bea0843ca26d11a1e[ALL] 03abbbdbfafc9abfdd50761afad59697af5a18db943322905ebad749fb27f47a7e"}, "vout": 0, "txid": "931bb9072dfba1869e5b39106d7d68f3e1f1e296f3beb0ba84ac1f8f251d7525"}, {"sequence": 4294967295, "scriptSig": {"hex": "4730440220626058fd325e8e586f4f708e5237a5594a0a0c9ad671c981f643223db068006902203271d8caff5a4c068d0cbd6557e5487cf8d12b90d8e640adaba6e7f0b847e7f10121034fe1aaf5699cc5a8e3e9dc1f81f7abf29dd3ce28f09f8bb8172f3001ce2d5e14", "asm": "30440220626058fd325e8e586f4f708e5237a5594a0a0c9ad671c981f643223db068006902203271d8caff5a4c068d0cbd6557e5487cf8d12b90d8e640adaba6e7f0b847e7f1[ALL] 034fe1aaf5699cc5a8e3e9dc1f81f7abf29dd3ce28f09f8bb8172f3001ce2d5e14"}, "vout": 0, "txid": "9477da73880ee569392f4ce899d51ac62865f26e4dd4136e6c885dd6fd99dbee"}, {"sequence": 4294967295, "scriptSig": {"hex": "47304402206fd37bd9da6223e102c83aa5fee4bfec6ef67289cc152255373fdb67082b71cf02205caf2f85866718b3d3de7e0dc300104c86bf0e795f0add7fd4455952c2f279ec012102a2213b632c71b99b3c66410a7bd2fd16398f8ed0ae65c4f458f25d0c4a790bdb", "asm": "304402206fd37bd9da6223e102c83aa5fee4bfec6ef67289cc152255373fdb67082b71cf02205caf2f85866718b3d3de7e0dc300104c86bf0e795f0add7fd4455952c2f279ec[ALL] 02a2213b632c71b99b3c66410a7bd2fd16398f8ed0ae65c4f458f25d0c4a790bdb"}, "vout": 1, "txid": "c81287e61ef71cbb5b80ebaa6d1cffed4089430a539f84d3cfd3ef64ef3ceaf5"}, {"sequence": 4294967295, "scriptSig": {"hex": "483045022100c01938694e31bdb464e9246f8e5d6a96982b606eb6438a596aa47e33fd17229a022001b451d4cdf7dfbd1197d96704d46263e219d5fd4dbab2daae6d9afcd60451df0121035c7403314580c20c178426d42f0028441977a0554955fd50737bbf4e44c821db", "asm": "3045022100c01938694e31bdb464e9246f8e5d6a96982b606eb6438a596aa47e33fd17229a022001b451d4cdf7dfbd1197d96704d46263e219d5fd4dbab2daae6d9afcd60451df[ALL] 035c7403314580c20c178426d42f0028441977a0554955fd50737bbf4e44c821db"}, "vout": 0, "txid": "ed2475883898a913a55faf9a5de02c645bcdf957aa6c002ee2e7a43762e76278"}, {"sequence": 4294967295, "scriptSig": {"hex": "4830450221009ad7e8a5f6bc8e738ddac5859cbfd98c84163e0dade830a2102c94d28af8da7502207876c5541f61e717fdabb5a11c7fcef1aaafeef10ba07c056852319560795deb012103798779071789fb3cc1d066b73530ac4577ca21589f0a4766e86b6c42101a55b6", "asm": "30450221009ad7e8a5f6bc8e738ddac5859cbfd98c84163e0dade830a2102c94d28af8da7502207876c5541f61e717fdabb5a11c7fcef1aaafeef10ba07c056852319560795deb[ALL] 03798779071789fb3cc1d066b73530ac4577ca21589f0a4766e86b6c42101a55b6"}, "vout": 0, "txid": "f01c1e6212935ab239c485bbc891c945b1a30baae420cf33919493e0078569f0"}], "txid": "ff5bcb0ac222a3503132b143f7784598a08207ec9571d76100854b3a3aeeef5d", "blocktime": 1537875543, "version": 1, "confirmations": 11464, "time": 1537875543, "locktime": 0, "vsize": 2290, "size": 2290}