{"hash": "5282161202c9014d6942c0fda471d5d7e45aecf6d1bdd055ada801e32e30d2a3", "blockhash": "0000000000000000000e13cef7c366c0283d82e591d1acd082e914b08063cdf1", "vout": [{"scriptPubKey": {"reqSigs": 1, "hex": "a914b44337f216fcdcf0a5895a72e8c4169a68ef293e87", "addresses": ["3J8A5VuG2KUQmCweiwHBDfv67VqWTciCM2"], "asm": "OP_HASH160 b44337f216fcdcf0a5895a72e8c4169a68ef293e OP_EQUAL", "type": "scripthash"}, "value": 0.01171079, "n": 0}], "hex": "01000000000101f11283df8475c648c7f0c035cbbba6be9d72e24879e891c1c5a52b5e463981830100000017160014e0953d3d2950cbd536cd6f1836c568e50dbb36c6ffffffff0187de11000000000017a914b44337f216fcdcf0a5895a72e8c4169a68ef293e8702483045022100e49f96bd7656023f25b574f5bf4f0c834ef19f9808963f3a924445f7129be5010220140e9cbab90b4be1fb67f597e8eb00e42568dc37b2bd9a4480ea55b6ea0c2164012102b8d9cc8193ad104c1b4aa7a9c1ec3f1ecf32593d741fe5f9d9849bb81c941a8e00000000", "vin": [{"txinwitness": ["3045022100e49f96bd7656023f25b574f5bf4f0c834ef19f9808963f3a924445f7129be5010220140e9cbab90b4be1fb67f597e8eb00e42568dc37b2bd9a4480ea55b6ea0c216401", "02b8d9cc8193ad104c1b4aa7a9c1ec3f1ecf32593d741fe5f9d9849bb81c941a8e"], "sequence": 4294967295, "scriptSig": {"hex": "160014e0953d3d2950cbd536cd6f1836c568e50dbb36c6", "asm": "0014e0953d3d2950cbd536cd6f1836c568e50dbb36c6"}, "vout": 1, "txid": "838139465e2ba5c5c191e87948e2729dbea6bbcb35c0f0c748c67584df8312f1"}], "txid": "ff5cea240a998b301a851d1c6fe935e2d9b200521729a9d1d4ed292f9a421627", "blocktime": 1537871767, "version": 1, "confirmations": 11495, "time": 1537871767, "locktime": 0, "vsize": 134, "size": 216}