{"hash": "ff5de136365f317cb85fa5db95b0b1aaae8ee17c8b571308836325d7728862db", "blockhash": "0000000000000000000e13cef7c366c0283d82e591d1acd082e914b08063cdf1", "vout": [{"scriptPubKey": {"reqSigs": 1, "hex": "76a91443f0f0fb657d7b6eb90bc81b823405882670163388ac", "addresses": ["17CEukWWYV57Bg14sJqkXAAKHfJTc9ZjxK"], "asm": "OP_DUP OP_HASH160 43f0f0fb657d7b6eb90bc81b8234058826701633 OP_EQUALVERIFY OP_CHECKSIG", "type": "pubkeyhash"}, "value": 0.0031072, "n": 0}, {"scriptPubKey": {"reqSigs": 1, "hex": "76a914eb3638a510a2b775a6fe339752dd0b46ce100ed788ac", "addresses": ["1NSgkSWyGfaM9Gh1eYUXHwjFYPUtqGaV48"], "asm": "OP_DUP OP_HASH160 eb3638a510a2b775a6fe339752dd0b46ce100ed7 OP_EQUALVERIFY OP_CHECKSIG", "type": "pubkeyhash"}, "value": 0.02501264, "n": 1}], "hex": "010000000196765a1a5a73a5f8a2c1c810ca20e15a79eb85221add1a7ae2482240ed0ce164010000006b483045022100c57276ea49538b4087f6d306b229476b9a45b98ae38feed21d940d08bdbf9ed502202e8b695c0507467034397fc8984d0d0d2c718f963e54f062e1bd9afb2e6014850121035f428e13c7f187c2c89f2d1dcf104849d5983063fba14d82c2dbc827cbd321b3ffffffff02c0bd0400000000001976a91443f0f0fb657d7b6eb90bc81b823405882670163388ac902a2600000000001976a914eb3638a510a2b775a6fe339752dd0b46ce100ed788ac00000000", "vin": [{"sequence": 4294967295, "scriptSig": {"hex": "483045022100c57276ea49538b4087f6d306b229476b9a45b98ae38feed21d940d08bdbf9ed502202e8b695c0507467034397fc8984d0d0d2c718f963e54f062e1bd9afb2e6014850121035f428e13c7f187c2c89f2d1dcf104849d5983063fba14d82c2dbc827cbd321b3", "asm": "3045022100c57276ea49538b4087f6d306b229476b9a45b98ae38feed21d940d08bdbf9ed502202e8b695c0507467034397fc8984d0d0d2c718f963e54f062e1bd9afb2e601485[ALL] 035f428e13c7f187c2c89f2d1dcf104849d5983063fba14d82c2dbc827cbd321b3"}, "vout": 1, "txid": "64e10ced402248e27a1add1a2285eb795ae120ca10c8c1a2f8a5735a1a5a7696"}], "txid": "ff5de136365f317cb85fa5db95b0b1aaae8ee17c8b571308836325d7728862db", "blocktime": 1537871767, "version": 1, "confirmations": 11495, "time": 1537871767, "locktime": 0, "vsize": 226, "size": 226}