{"hash": "ff61635c3497755e1bcb2e2c03abbb8bd41791fda13d5474b59d65733b39b3ca", "blockhash": "00000000000000000004ffacab907a6b429b9a5745fa0b75af4234bf69dd7176", "vout": [{"scriptPubKey": {"type": "nulldata", "hex": "6a146f6d6e69000000000000001f0000000762a87e3c", "asm": "OP_RETURN 6f6d6e69000000000000001f0000000762a87e3c"}, "value": 0.0, "n": 0}, {"scriptPubKey": {"reqSigs": 1, "hex": "76a914a25dec4d0011064ef106a983c39c7a540699f22088ac", "addresses": ["1FoWyxwPXuj4C6abqwhjDWdz6D4PZgYRjA"], "asm": "OP_DUP OP_HASH160 a25dec4d0011064ef106a983c39c7a540699f220 OP_EQUALVERIFY OP_CHECKSIG", "type": "pubkeyhash"}, "value": 0.01985619, "n": 1}, {"scriptPubKey": {"reqSigs": 1, "hex": "76a914177c58786b377555e011cad015e59ade8ccf11de88ac", "addresses": ["139BW6WWaMWfDfn14pLH4q7JwAbAGEJNAG"], "asm": "OP_DUP OP_HASH160 177c58786b377555e011cad015e59ade8ccf11de OP_EQUALVERIFY OP_CHECKSIG", "type": "pubkeyhash"}, "value": 5.46e-06, "n": 2}], "hex": "01000000013a9e6e4d7b40055e6b5862b2b736934cf514f3a46fd810c650e4b1840a9bc5f3010000006b483045022100d82cdc3c8f3e587467fb08c6706cabf69da7a3c232fea7f41730b9573d230a4e02207c28dad49c88654e9fa5b3586f00d71cf9d0f07133bd58297cd6da1d369ae205012103da5bac7b36d5aa38f531c6b9601e21bb598a4b6716ebed38b009a55dabde9440feffffff030000000000000000166a146f6d6e69000000000000001f0000000762a87e3c534c1e00000000001976a914a25dec4d0011064ef106a983c39c7a540699f22088ac22020000000000001976a914177c58786b377555e011cad015e59ade8ccf11de88ac16490800", "vin": [{"sequence": 4294967294, "scriptSig": {"hex": "483045022100d82cdc3c8f3e587467fb08c6706cabf69da7a3c232fea7f41730b9573d230a4e02207c28dad49c88654e9fa5b3586f00d71cf9d0f07133bd58297cd6da1d369ae205012103da5bac7b36d5aa38f531c6b9601e21bb598a4b6716ebed38b009a55dabde9440", "asm": "3045022100d82cdc3c8f3e587467fb08c6706cabf69da7a3c232fea7f41730b9573d230a4e02207c28dad49c88654e9fa5b3586f00d71cf9d0f07133bd58297cd6da1d369ae205[ALL] 03da5bac7b36d5aa38f531c6b9601e21bb598a4b6716ebed38b009a55dabde9440"}, "vout": 1, "txid": "f3c59b0a84b1e450c610d86fa4f314f54c9336b7b262586b5e05407b4d6e9e3a"}], "txid": "ff61635c3497755e1bcb2e2c03abbb8bd41791fda13d5474b59d65733b39b3ca", "blocktime": 1537875543, "version": 1, "confirmations": 11464, "time": 1537875543, "locktime": 542998, "vsize": 257, "size": 257}