{"hash": "ff6597d1cef6979c84fe8d7e2dec78a1fa40dcf1414863b60fb29c0ad6a9f1b3", "blockhash": "000000000000000000022b45ed06c6f4ccd3cf7fb5ba4856ebd2e58215665228", "vout": [{"scriptPubKey": {"reqSigs": 1, "hex": "76a9141efeb1c83c9fd1461710f5b7c199f3fb45fd487e88ac", "addresses": ["13ptPEi4ynmfjg7CQNw1eeEfkhZzGyACUG"], "asm": "OP_DUP OP_HASH160 1efeb1c83c9fd1461710f5b7c199f3fb45fd487e OP_EQUALVERIFY OP_CHECKSIG", "type": "pubkeyhash"}, "value": 0.0001, "n": 0}, {"scriptPubKey": {"reqSigs": 1, "hex": "76a914b998b43b8c5026c07e21d29445c34763ca5f13f488ac", "addresses": ["1HvLwYxCVkaX95G2pNwFVj6Z4DXzVXtonk"], "asm": "OP_DUP OP_HASH160 b998b43b8c5026c07e21d29445c34763ca5f13f4 OP_EQUALVERIFY OP_CHECKSIG", "type": "pubkeyhash"}, "value": 0.00015043, "n": 1}, {"scriptPubKey": {"reqSigs": 1, "hex": "a91418f30736465a0c313d4234a2e4ae7f5a02e30f9d87", "addresses": ["33xwH3LWSDf4QCqajvfbsDZkcNjzu8b2zs"], "asm": "OP_HASH160 18f30736465a0c313d4234a2e4ae7f5a02e30f9d OP_EQUAL", "type": "scripthash"}, "value": 0.00042763, "n": 2}, {"scriptPubKey": {"reqSigs": 1, "hex": "a9146f408d37fb5053eac8af79ce9192e235dac1015f87", "addresses": ["3BqGFxpRxK29BC5kW4wtJcaDYhWQEUfECq"], "asm": "OP_HASH160 6f408d37fb5053eac8af79ce9192e235dac1015f OP_EQUAL", "type": "scripthash"}, "value": 0.0026, "n": 3}], "hex": "0100000001723e0e83146a8dda4ac5b66094b2de9e77c1526c66b52a36503d8e1e0e637fbb030000006b483045022100f0d73f86872878761b6be69b70ed3d5ec892107c6bcf1258501ea365f88bed9a02206c6eed278da0a2151b3fe9b4b572603a1c2a41949e84ecebb638c3d49073bf6101210349d1d6a2aa5f013e7d3066237add01cee3aec67eb60048c9f94fc3a5cdd58aa6ffffffff0410270000000000001976a9141efeb1c83c9fd1461710f5b7c199f3fb45fd487e88acc33a0000000000001976a914b998b43b8c5026c07e21d29445c34763ca5f13f488ac0ba700000000000017a91418f30736465a0c313d4234a2e4ae7f5a02e30f9d87a0f703000000000017a9146f408d37fb5053eac8af79ce9192e235dac1015f8700000000", "vin": [{"sequence": 4294967295, "scriptSig": {"hex": "483045022100f0d73f86872878761b6be69b70ed3d5ec892107c6bcf1258501ea365f88bed9a02206c6eed278da0a2151b3fe9b4b572603a1c2a41949e84ecebb638c3d49073bf6101210349d1d6a2aa5f013e7d3066237add01cee3aec67eb60048c9f94fc3a5cdd58aa6", "asm": "3045022100f0d73f86872878761b6be69b70ed3d5ec892107c6bcf1258501ea365f88bed9a02206c6eed278da0a2151b3fe9b4b572603a1c2a41949e84ecebb638c3d49073bf61[ALL] 0349d1d6a2aa5f013e7d3066237add01cee3aec67eb60048c9f94fc3a5cdd58aa6"}, "vout": 3, "txid": "bb7f630e1e8e3d50362ab5666c52c1779edeb29460b6c54ada8d6a14830e3e72"}], "txid": "ff6597d1cef6979c84fe8d7e2dec78a1fa40dcf1414863b60fb29c0ad6a9f1b3", "blocktime": 1537869901, "version": 1, "confirmations": 11524, "time": 1537869901, "locktime": 0, "vsize": 290, "size": 290}