{"hash": "ff662df44dee444ccdb3ec85b7863974ade8e945328d865e4902ae3fea7458b6", "blockhash": "00000000000000000024a2167bbff67b0be802c0b01cdd79e6331c2be6459f87", "vout": [{"scriptPubKey": {"reqSigs": 1, "hex": "76a914acf89ea4546e35cd4fcb9e7baa0ce9d8602315e488ac", "addresses": ["1Gmb4PrgeLqmpe8UufjpB2TXrhGRRyfLTZ"], "asm": "OP_DUP OP_HASH160 acf89ea4546e35cd4fcb9e7baa0ce9d8602315e4 OP_EQUALVERIFY OP_CHECKSIG", "type": "pubkeyhash"}, "value": 0.12891324, "n": 0}, {"scriptPubKey": {"reqSigs": 1, "hex": "a914665c24fc624749c571b94254c968eb96ca83690887", "addresses": ["3B2FERN9ATCKKfc5MH1bpK2r4JSx7PEWdc"], "asm": "OP_HASH160 665c24fc624749c571b94254c968eb96ca836908 OP_EQUAL", "type": "scripthash"}, "value": 0.15058141, "n": 1}], "hex": "0100000002f65d60ccd2e8048ffb8ce702aad334c85efe0ceb59ea6451449e328a454d4418010000006b483045022100be1cec7d271233e485c9e0fc90390e74e880e34bda8cedb826946231769db7f50220091aff96fa8c2d9e7520c4494f93ebf86c0bf6eb64498bed85dd121cb1cb756601210350727c9b5796a283693592ba4b9e560ebee26d61d85335f40e8ec46dbea1bda1ffffffff12365b4bf9fc518212241f6676f56ae49859e8890b597e2b492cdd229b358e9a000000006b483045022100ba76228261db9fd39584f9fd42751e3b91955e863c1292e692f0bb6b4d40fd5002207207825fe6b252f8576bb0fbcaa8e22679bf8387a216addaf3a254f66418a743012103ba9ac98c4078694518e91b019c8223870e452b03dcfad5f98d3a3b594f6c60f8ffffffff02bcb4c400000000001976a914acf89ea4546e35cd4fcb9e7baa0ce9d8602315e488acddc4e5000000000017a914665c24fc624749c571b94254c968eb96ca8369088700000000", "vin": [{"sequence": 4294967295, "scriptSig": {"hex": "483045022100be1cec7d271233e485c9e0fc90390e74e880e34bda8cedb826946231769db7f50220091aff96fa8c2d9e7520c4494f93ebf86c0bf6eb64498bed85dd121cb1cb756601210350727c9b5796a283693592ba4b9e560ebee26d61d85335f40e8ec46dbea1bda1", "asm": "3045022100be1cec7d271233e485c9e0fc90390e74e880e34bda8cedb826946231769db7f50220091aff96fa8c2d9e7520c4494f93ebf86c0bf6eb64498bed85dd121cb1cb7566[ALL] 0350727c9b5796a283693592ba4b9e560ebee26d61d85335f40e8ec46dbea1bda1"}, "vout": 1, "txid": "18444d458a329e445164ea59eb0cfe5ec834d3aa02e78cfb8f04e8d2cc605df6"}, {"sequence": 4294967295, "scriptSig": {"hex": "483045022100ba76228261db9fd39584f9fd42751e3b91955e863c1292e692f0bb6b4d40fd5002207207825fe6b252f8576bb0fbcaa8e22679bf8387a216addaf3a254f66418a743012103ba9ac98c4078694518e91b019c8223870e452b03dcfad5f98d3a3b594f6c60f8", "asm": "3045022100ba76228261db9fd39584f9fd42751e3b91955e863c1292e692f0bb6b4d40fd5002207207825fe6b252f8576bb0fbcaa8e22679bf8387a216addaf3a254f66418a743[ALL] 03ba9ac98c4078694518e91b019c8223870e452b03dcfad5f98d3a3b594f6c60f8"}, "vout": 0, "txid": "9a8e359b22dd2c492b7e590b89e85998e46af576661f24128251fcf94b5b3612"}], "txid": "ff662df44dee444ccdb3ec85b7863974ade8e945328d865e4902ae3fea7458b6", "blocktime": 1537870564, "version": 1, "confirmations": 11515, "time": 1537870564, "locktime": 0, "vsize": 372, "size": 372}