{"hash": "ff68efeac2be8fe09691553e78223c5149cb6cb83a73f2688ff9ede02be3cdc3", "blockhash": "0000000000000000001f76057863aec43deb6fa401d9628bb513d65a8098bfab", "vout": [{"scriptPubKey": {"reqSigs": 1, "hex": "76a914ed90fe1b6432254385efa0a14366ee1b23637fcc88ac", "addresses": ["1Nf8qj9TE7Bab6NNPSeRwyY8rw4MX9AAyh"], "asm": "OP_DUP OP_HASH160 ed90fe1b6432254385efa0a14366ee1b23637fcc OP_EQUALVERIFY OP_CHECKSIG", "type": "pubkeyhash"}, "value": 0.00634341, "n": 0}, {"scriptPubKey": {"type": "nulldata", "hex": "6a4c50000077ec00010bfa2521b752ef3a7ce7766b7af8e8e963c7cfd5b95b23cc0f42c2fc38c503919c38a803afc4f4de078971a44a4f5baa17a3061336a77aa18b181d100759d4ba30d2c37bb011d97e02cf", "asm": "OP_RETURN 000077ec00010bfa2521b752ef3a7ce7766b7af8e8e963c7cfd5b95b23cc0f42c2fc38c503919c38a803afc4f4de078971a44a4f5baa17a3061336a77aa18b181d100759d4ba30d2c37bb011d97e02cf"}, "value": 0.0, "n": 1}], "hex": "0100000001da34461779a881d3626c57fc51edc6090cee81aeda09ebd4cfa0f952513c054b010000006b483045022100867809d612d25dae9abc6387ac389b98bdc3b26aed7b7f4314411c8562aaa8100220489b346d72640e811a401b63461daa0785910aef07dd36b475c361ca2d0c71da0121034dfa96b2d3428adee8b2ced543d958b01f5f4ff6df4a192aada1633ca146cb04ffffffff02e5ad0900000000001976a914ed90fe1b6432254385efa0a14366ee1b23637fcc88ac0000000000000000536a4c50000077ec00010bfa2521b752ef3a7ce7766b7af8e8e963c7cfd5b95b23cc0f42c2fc38c503919c38a803afc4f4de078971a44a4f5baa17a3061336a77aa18b181d100759d4ba30d2c37bb011d97e02cf00000000", "vin": [{"sequence": 4294967295, "scriptSig": {"hex": "483045022100867809d612d25dae9abc6387ac389b98bdc3b26aed7b7f4314411c8562aaa8100220489b346d72640e811a401b63461daa0785910aef07dd36b475c361ca2d0c71da0121034dfa96b2d3428adee8b2ced543d958b01f5f4ff6df4a192aada1633ca146cb04", "asm": "3045022100867809d612d25dae9abc6387ac389b98bdc3b26aed7b7f4314411c8562aaa8100220489b346d72640e811a401b63461daa0785910aef07dd36b475c361ca2d0c71da[ALL] 034dfa96b2d3428adee8b2ced543d958b01f5f4ff6df4a192aada1633ca146cb04"}, "vout": 1, "txid": "4b053c5152f9a0cfd4eb09daae81ee0c09c6ed51fc576c62d381a879174634da"}], "txid": "ff68efeac2be8fe09691553e78223c5149cb6cb83a73f2688ff9ede02be3cdc3", "blocktime": 1537873891, "version": 1, "confirmations": 11478, "time": 1537873891, "locktime": 0, "vsize": 284, "size": 284}