{"hash": "1ccacd0506dff50f2792a262b3fb1f5219092096d1316a8286c1d98856ec9b07", "blockhash": "0000000000000000001cda96e906b7601b7a6fb1a3b62bca570a9e5d8f4b3de1", "vout": [{"scriptPubKey": {"reqSigs": 1, "hex": "76a914006c56bf066c179fabaf51e5a2f44e10e28f535888ac", "addresses": ["113EnWttZqk8SJUVd3ygVCsMwdJBCNCtCs"], "asm": "OP_DUP OP_HASH160 006c56bf066c179fabaf51e5a2f44e10e28f5358 OP_EQUALVERIFY OP_CHECKSIG", "type": "pubkeyhash"}, "value": 0.00018816, "n": 0}, {"scriptPubKey": {"reqSigs": 1, "hex": "0014183a2b823fce62765a9ee26c57ef6230a206bccf", "addresses": ["bc1qrqazhq3lee38vk57ufk90mmzxz3qd0x0prcggd"], "asm": "0 183a2b823fce62765a9ee26c57ef6230a206bccf", "type": "witness_v0_keyhash"}, "value": 1.137e-05, "n": 1}], "hex": "01000000000101dd80aa9d6e5e09fe05a5282b6e611bb54da08aebac818feaba38c08bfb908f1b0100000000ffffffff0280490000000000001976a914006c56bf066c179fabaf51e5a2f44e10e28f535888ac7104000000000000160014183a2b823fce62765a9ee26c57ef6230a206bccf024730440220482513a390cb0406363686be385f8ba0f019c6140129cf81498a532c31864e37022017b219ad1ae7ac273885262743f9b87d910631cddfa014b2abd0e56feb887b620121039026a96117c3becc882e9c05db790fc5cc79062189be46a9463f8b39dd19830f00000000", "vin": [{"txinwitness": ["30440220482513a390cb0406363686be385f8ba0f019c6140129cf81498a532c31864e37022017b219ad1ae7ac273885262743f9b87d910631cddfa014b2abd0e56feb887b6201", "039026a96117c3becc882e9c05db790fc5cc79062189be46a9463f8b39dd19830f"], "sequence": 4294967295, "scriptSig": {"hex": "", "asm": ""}, "vout": 1, "txid": "1b8f90fb8bc038baea8f81aceb8aa04db51b616e2b28a505fe095e6e9daa80dd"}], "txid": "ff6830306ee181b4a70561979753d641c722b0eb0a33a8528e88f2bdf13450a6", "blocktime": 1537873282, "version": 1, "confirmations": 11484, "time": 1537873282, "locktime": 0, "vsize": 144, "size": 225}