{"hash": "9641462a8cee92f13ba95c4337e2dc2f7255e9c2ee2c2281ac2b6990a20c76a5", "blockhash": "00000000000000000018f53835495a110e01622372bf6ae95dc86f2b0ab887b0", "vout": [{"scriptPubKey": {"reqSigs": 1, "hex": "a9140083b90d424c95cbb9f48e12e62eb2ce74177e0187", "addresses": ["31jjioqmWJSri3dEfun65p4gDuR9xXi8Pk"], "asm": "OP_HASH160 0083b90d424c95cbb9f48e12e62eb2ce74177e01 OP_EQUAL", "type": "scripthash"}, "value": 0.00033117, "n": 0}, {"scriptPubKey": {"reqSigs": 1, "hex": "a9140136c10502ae5684e49b302f1af10f145f74b6b787", "addresses": ["31oSC7GvQMTZoouyNLBEHVRDhXEFbVhSmh"], "asm": "OP_HASH160 0136c10502ae5684e49b302f1af10f145f74b6b7 OP_EQUAL", "type": "scripthash"}, "value": 0.11076265, "n": 1}], "hex": "01000000000101df43e954751fea288a17bdac1560303921508a766ef30291971c82dc4db2733a0000000023220020efd02f10cc1074c68ec89b458572a71ce6bfc8a17595d8fde80232e47279444bffffffff025d8100000000000017a9140083b90d424c95cbb9f48e12e62eb2ce74177e0187a902a9000000000017a9140136c10502ae5684e49b302f1af10f145f74b6b787040048304502210098a04fd7bdec3b15730c280eeabd74ef0ae2c7a74a05540a98a4ae0dd5076e21022003c4a7a67ab363624277d8f814c71d9e13e35e70fac6f386b1567203dcc680c001473044022068155e2dd1d7096401a33d78cc84cb417373daaebcbb0dc96f2b400c3cec092902205df9d31042d16c85f10b2e973ab3eb96a0b4c7cff9107c56e5b6535d3d75fbae0147522103f985ea61f461801f3abc09ebed98ce7e20804639a64616f639f492883ea4e8d62103871fc2ca08e6950b38867e8e6a0e94ee625223d3aa0df5c65f414c6d784467e252ae00000000", "vin": [{"txinwitness": ["", "304502210098a04fd7bdec3b15730c280eeabd74ef0ae2c7a74a05540a98a4ae0dd5076e21022003c4a7a67ab363624277d8f814c71d9e13e35e70fac6f386b1567203dcc680c001", "3044022068155e2dd1d7096401a33d78cc84cb417373daaebcbb0dc96f2b400c3cec092902205df9d31042d16c85f10b2e973ab3eb96a0b4c7cff9107c56e5b6535d3d75fbae01", "522103f985ea61f461801f3abc09ebed98ce7e20804639a64616f639f492883ea4e8d62103871fc2ca08e6950b38867e8e6a0e94ee625223d3aa0df5c65f414c6d784467e252ae"], "sequence": 4294967295, "scriptSig": {"hex": "220020efd02f10cc1074c68ec89b458572a71ce6bfc8a17595d8fde80232e47279444b", "asm": "0020efd02f10cc1074c68ec89b458572a71ce6bfc8a17595d8fde80232e47279444b"}, "vout": 0, "txid": "3a73b24ddc821c979102f36e768a502139306015acbd178a28ea1f7554e943df"}], "txid": "ff681afe185ae0f18281b77f171f9263bc8c01f8e1779055f17eb0096ba6a674", "blocktime": 1537870928, "version": 1, "confirmations": 11514, "time": 1537870928, "locktime": 0, "vsize": 206, "size": 371}