{"hash": "ff6aa109560798c6b07c4ea7907fd8540d2ca5315fd3349c84e43c5f0c1cb255", "blockhash": "0000000000000000001cda96e906b7601b7a6fb1a3b62bca570a9e5d8f4b3de1", "vout": [{"scriptPubKey": {"reqSigs": 1, "hex": "a914c0502cb5efed1b6a01312d7b8d3e2f8089b4fed187", "addresses": ["3KDsi1PsXBvTMjpw36JrXGXNZnLv4z1koJ"], "asm": "OP_HASH160 c0502cb5efed1b6a01312d7b8d3e2f8089b4fed1 OP_EQUAL", "type": "scripthash"}, "value": 0.00027349, "n": 0}, {"scriptPubKey": {"reqSigs": 1, "hex": "76a914b795222f683c50044aec0919464bdb3c077480a388ac", "addresses": ["1HjhK5uvS96epFrvep4Kk6Qs8hws4s1QVQ"], "asm": "OP_DUP OP_HASH160 b795222f683c50044aec0919464bdb3c077480a3 OP_EQUALVERIFY OP_CHECKSIG", "type": "pubkeyhash"}, "value": 0.01633877, "n": 1}], "hex": "01000000015ef9f4e68ee0be8d08dd95686c70879eaf8b8e83ff9047171139bb5da42a4d40010000006b483045022100a56fb48e6b323be716cace57cd35f854cff8a5e2d72588549df2f60cb9884fb3022015bbc85b86988d30e6778f6502387391d7a35cc329cc664da679579be7d29f46012102ae5420eaf04a29c4f165f52fbccf1f9311fd5ff0f9732e12db6db825340b4a51ffffffff02d56a00000000000017a914c0502cb5efed1b6a01312d7b8d3e2f8089b4fed18755ee1800000000001976a914b795222f683c50044aec0919464bdb3c077480a388ac00000000", "vin": [{"sequence": 4294967295, "scriptSig": {"hex": "483045022100a56fb48e6b323be716cace57cd35f854cff8a5e2d72588549df2f60cb9884fb3022015bbc85b86988d30e6778f6502387391d7a35cc329cc664da679579be7d29f46012102ae5420eaf04a29c4f165f52fbccf1f9311fd5ff0f9732e12db6db825340b4a51", "asm": "3045022100a56fb48e6b323be716cace57cd35f854cff8a5e2d72588549df2f60cb9884fb3022015bbc85b86988d30e6778f6502387391d7a35cc329cc664da679579be7d29f46[ALL] 02ae5420eaf04a29c4f165f52fbccf1f9311fd5ff0f9732e12db6db825340b4a51"}, "vout": 1, "txid": "404d2aa45dbb3911174790ff838e8baf9e87706c6895dd088dbee08ee6f4f95e"}], "txid": "ff6aa109560798c6b07c4ea7907fd8540d2ca5315fd3349c84e43c5f0c1cb255", "blocktime": 1537873282, "version": 1, "confirmations": 11485, "time": 1537873282, "locktime": 0, "vsize": 224, "size": 224}