{"hash": "0a18ce08c89b9b4534c16ef2325720792280869549567cab4e7b4afef685175b", "blockhash": "0000000000000000001cda96e906b7601b7a6fb1a3b62bca570a9e5d8f4b3de1", "vout": [{"scriptPubKey": {"reqSigs": 1, "hex": "00148d13bdc135fd1f0273cf9fa0256a19f86848519a", "addresses": ["bc1q35fmmsf4l50syu70n7sz26selp5ys5v63d0yhf"], "asm": "0 8d13bdc135fd1f0273cf9fa0256a19f86848519a", "type": "witness_v0_keyhash"}, "value": 0.00875198, "n": 0}, {"scriptPubKey": {"reqSigs": 1, "hex": "0014f191ce4cb1856f698360d59c4df80c25a47dbed5", "addresses": ["bc1q7xguun93s4hknqmq6kwym7qvykj8m0k4rvsrl9"], "asm": "0 f191ce4cb1856f698360d59c4df80c25a47dbed5", "type": "witness_v0_keyhash"}, "value": 0.58372076, "n": 1}], "hex": "0100000000010188f0b748604e41c038f875351bdc7568e39a2b7a270f29465554155b9e1edb160000000000ffffffff02be5a0d00000000001600148d13bdc135fd1f0273cf9fa0256a19f86848519aecaf7a0300000000160014f191ce4cb1856f698360d59c4df80c25a47dbed50247304402205860a5d1896d0602389ec66b14b82a678894c7e7cf6f2eea7c8f0e24ca2ad49e02207b9f7145a56ac6b036d118728622f86654cfa1bffc5e476ef01b9f29e3e39dbb012103e6b84c314d748680248cfc54be5b8b3efca56783bbc2ee4452d3816f27e9536c00000000", "vin": [{"txinwitness": ["304402205860a5d1896d0602389ec66b14b82a678894c7e7cf6f2eea7c8f0e24ca2ad49e02207b9f7145a56ac6b036d118728622f86654cfa1bffc5e476ef01b9f29e3e39dbb01", "03e6b84c314d748680248cfc54be5b8b3efca56783bbc2ee4452d3816f27e9536c"], "sequence": 4294967295, "scriptSig": {"hex": "", "asm": ""}, "vout": 0, "txid": "16db1e9e5b15545546290f277a2b9ae36875dc1b3575f838c0414e6048b7f088"}], "txid": "ff6ba313cef120a0c099f50d22eeedc30030cc648c28639e1a3b76819aa85706", "blocktime": 1537873282, "version": 1, "confirmations": 11484, "time": 1537873282, "locktime": 0, "vsize": 141, "size": 222}