{"hash": "ff70b0825ad62d35a62cc21529bccd0eebe5b68859b5d8efd28eeff4f01e5ea4", "blockhash": "00000000000000000018f53835495a110e01622372bf6ae95dc86f2b0ab887b0", "vout": [{"scriptPubKey": {"reqSigs": 1, "hex": "76a914fa6c3213e4b4bc1ec36b3ed683dd0c8f5cf58ce488ac", "addresses": ["1Pq7YXCyGzw2oyLREg2qPLmftBiY8zUrJw"], "asm": "OP_DUP OP_HASH160 fa6c3213e4b4bc1ec36b3ed683dd0c8f5cf58ce4 OP_EQUALVERIFY OP_CHECKSIG", "type": "pubkeyhash"}, "value": 0.02815026, "n": 0}, {"scriptPubKey": {"reqSigs": 1, "hex": "a914cef655d57c1c64c2d5de0dc1fc72052ef1b8157a87", "addresses": ["3LZLDjger9CJEKmM2WBzjXAHQXah5qixZg"], "asm": "OP_HASH160 cef655d57c1c64c2d5de0dc1fc72052ef1b8157a OP_EQUAL", "type": "scripthash"}, "value": 0.78, "n": 1}], "hex": "0100000005b1bf71c471f3f6d9da7f48edde152d5af5bd31041d0c8df627b88ea18d87ccba000000006a473044022049967202cf32f0d9cf7eeef4a50bf10ef7769b3e7abd200d3fa68964ec1abd1c0220395df3971289f24ba9278a8b581b58c67ab64e1e05e5d036f1d2562dd961246c012103ba38aaa175276fa0095779bd45f029f878d8a9ec978e770d4645bd0c9f8a4cbcffffffffb31889d381201fc94965eae0a005fbb33cc27628a3b9caed32834b34e382af13000000006a473044022060041fd5076d8a7659af4c8da9d680c7cdf0c479280ff3aae9f3748a140006090220498333ad1c29172d8f5e547d334956d25efe93a099c6818b92596bfb8d1d7264012103b025d1290c38445a4aaebab5e1361667aa671a1bad1f20fa5fe2d7e67bf0cf80ffffffff8e8fb20f3b3a5d74736e3d48b6718628c70b0b776c0f02b6733a3a2074f02bf1000000006b48304502210098f49394ddf0b0ede82f85559c7d78617481b3a7868199c7676d4beb11c8d6dd02201b9fed3a430bef92bc6418478c5cc7a0f1da67058d95ad1e798fed02e069046001210214a50a392174cf87179af44b3f305ddf4291679c6bab1c2a6388b976b7ea8d1cffffffff2915e7bbb28391049d7d8d86a65e4ef976d61debea5a79b928c381243c117b63010000006b483045022100d562e14f2cad1ac5ce1633fcef40e5ded71995828d66d1983192e182a6eac5d602205aa1728e333bae5a6ac21dd11fc2e13013b4d2324cae5eb9490151e0d677eaeb0121036d3c98269af3407774cfeb782bda7a9487908f2398aa4c34f420bf87cd9b8db8ffffffffa17a36fdd563f31b5539436a3e9656d3d9c82250acc3b3a27a8c28fbefe81d9f000000006b483045022100a678dbad4b4ed4e43b4d2f96fded64147c2d98913b7de63e813b56b9c3ad212302203b61a9ed558430bcca06a18e0304c3adb4789df5a98e31d143fd04d2d10cdc2c01210316e6e2b3826b200414f977941952cbf208c79a13165248fb0ead4e4aa7000813ffffffff0232f42a00000000001976a914fa6c3213e4b4bc1ec36b3ed683dd0c8f5cf58ce488ac802fa6040000000017a914cef655d57c1c64c2d5de0dc1fc72052ef1b8157a8700000000", "vin": [{"sequence": 4294967295, "scriptSig": {"hex": "473044022049967202cf32f0d9cf7eeef4a50bf10ef7769b3e7abd200d3fa68964ec1abd1c0220395df3971289f24ba9278a8b581b58c67ab64e1e05e5d036f1d2562dd961246c012103ba38aaa175276fa0095779bd45f029f878d8a9ec978e770d4645bd0c9f8a4cbc", "asm": "3044022049967202cf32f0d9cf7eeef4a50bf10ef7769b3e7abd200d3fa68964ec1abd1c0220395df3971289f24ba9278a8b581b58c67ab64e1e05e5d036f1d2562dd961246c[ALL] 03ba38aaa175276fa0095779bd45f029f878d8a9ec978e770d4645bd0c9f8a4cbc"}, "vout": 0, "txid": "bacc878da18eb827f68d0c1d0431bdf55a2d15deed487fdad9f6f371c471bfb1"}, {"sequence": 4294967295, "scriptSig": {"hex": "473044022060041fd5076d8a7659af4c8da9d680c7cdf0c479280ff3aae9f3748a140006090220498333ad1c29172d8f5e547d334956d25efe93a099c6818b92596bfb8d1d7264012103b025d1290c38445a4aaebab5e1361667aa671a1bad1f20fa5fe2d7e67bf0cf80", "asm": "3044022060041fd5076d8a7659af4c8da9d680c7cdf0c479280ff3aae9f3748a140006090220498333ad1c29172d8f5e547d334956d25efe93a099c6818b92596bfb8d1d7264[ALL] 03b025d1290c38445a4aaebab5e1361667aa671a1bad1f20fa5fe2d7e67bf0cf80"}, "vout": 0, "txid": "13af82e3344b8332edcab9a32876c23cb3fb05a0e0ea6549c91f2081d38918b3"}, {"sequence": 4294967295, "scriptSig": {"hex": "48304502210098f49394ddf0b0ede82f85559c7d78617481b3a7868199c7676d4beb11c8d6dd02201b9fed3a430bef92bc6418478c5cc7a0f1da67058d95ad1e798fed02e069046001210214a50a392174cf87179af44b3f305ddf4291679c6bab1c2a6388b976b7ea8d1c", "asm": "304502210098f49394ddf0b0ede82f85559c7d78617481b3a7868199c7676d4beb11c8d6dd02201b9fed3a430bef92bc6418478c5cc7a0f1da67058d95ad1e798fed02e0690460[ALL] 0214a50a392174cf87179af44b3f305ddf4291679c6bab1c2a6388b976b7ea8d1c"}, "vout": 0, "txid": "f12bf074203a3a73b6020f6c770b0bc7288671b6483d6e73745d3a3b0fb28f8e"}, {"sequence": 4294967295, "scriptSig": {"hex": "483045022100d562e14f2cad1ac5ce1633fcef40e5ded71995828d66d1983192e182a6eac5d602205aa1728e333bae5a6ac21dd11fc2e13013b4d2324cae5eb9490151e0d677eaeb0121036d3c98269af3407774cfeb782bda7a9487908f2398aa4c34f420bf87cd9b8db8", "asm": "3045022100d562e14f2cad1ac5ce1633fcef40e5ded71995828d66d1983192e182a6eac5d602205aa1728e333bae5a6ac21dd11fc2e13013b4d2324cae5eb9490151e0d677eaeb[ALL] 036d3c98269af3407774cfeb782bda7a9487908f2398aa4c34f420bf87cd9b8db8"}, "vout": 1, "txid": "637b113c2481c328b9795aeaeb1dd676f94e5ea6868d7d9d049183b2bbe71529"}, {"sequence": 4294967295, "scriptSig": {"hex": "483045022100a678dbad4b4ed4e43b4d2f96fded64147c2d98913b7de63e813b56b9c3ad212302203b61a9ed558430bcca06a18e0304c3adb4789df5a98e31d143fd04d2d10cdc2c01210316e6e2b3826b200414f977941952cbf208c79a13165248fb0ead4e4aa7000813", "asm": "3045022100a678dbad4b4ed4e43b4d2f96fded64147c2d98913b7de63e813b56b9c3ad212302203b61a9ed558430bcca06a18e0304c3adb4789df5a98e31d143fd04d2d10cdc2c[ALL] 0316e6e2b3826b200414f977941952cbf208c79a13165248fb0ead4e4aa7000813"}, "vout": 0, "txid": "9f1de8effb288c7aa2b3c3ac5022c8d9d356963e6a4339551bf363d5fd367aa1"}], "txid": "ff70b0825ad62d35a62cc21529bccd0eebe5b68859b5d8efd28eeff4f01e5ea4", "blocktime": 1537870928, "version": 1, "confirmations": 11512, "time": 1537870928, "locktime": 0, "vsize": 814, "size": 814}