{"hash": "ff76455e76ffec1bcf4d8ef3438b3f40251eac9592765cc9a6def1426e9ba57e", "blockhash": "0000000000000000000e13cef7c366c0283d82e591d1acd082e914b08063cdf1", "vout": [{"scriptPubKey": {"type": "nulldata", "hex": "6a4c50000077a30001f966f4bb5ab751de6692046aaf6c953dd567cf27e7e3ef3236678a625097de5e4155ec6ff010c8342a2a715108165baa0ecc0614967b449222e6bc9a9526289ac0f6612cd74e33776ee4", "asm": "OP_RETURN 000077a30001f966f4bb5ab751de6692046aaf6c953dd567cf27e7e3ef3236678a625097de5e4155ec6ff010c8342a2a715108165baa0ecc0614967b449222e6bc9a9526289ac0f6612cd74e33776ee4"}, "value": 0.0, "n": 0}, {"scriptPubKey": {"reqSigs": 1, "hex": "76a9149de1335d0da1591c9e370d51523450cf842d443f88ac", "addresses": ["1FPnsLG4H6QNTZXhZwU25fJbuhD5bWZJPZ"], "asm": "OP_DUP OP_HASH160 9de1335d0da1591c9e370d51523450cf842d443f OP_EQUALVERIFY OP_CHECKSIG", "type": "pubkeyhash"}, "value": 0.0007444, "n": 1}], "hex": "0100000001c29cec156a9d7366276a5668869bd80438e93282394c31b4c9998c7d6f74a56b000000006a47304402203b66f8ef7985f436b31847b19c1b9015b81b42b94aeb3c1b11b9c8048da1d31802206f49027c151c0da1f956f955133ca2884be8f2ddefdff1e23f546eb72f5750c50121025774b0bfc36d12c66d307badb93c0867ecc4b8578223ac036be60346cb164bc8ffffffff020000000000000000536a4c50000077a30001f966f4bb5ab751de6692046aaf6c953dd567cf27e7e3ef3236678a625097de5e4155ec6ff010c8342a2a715108165baa0ecc0614967b449222e6bc9a9526289ac0f6612cd74e33776ee4c8220100000000001976a9149de1335d0da1591c9e370d51523450cf842d443f88ac00000000", "vin": [{"sequence": 4294967295, "scriptSig": {"hex": "47304402203b66f8ef7985f436b31847b19c1b9015b81b42b94aeb3c1b11b9c8048da1d31802206f49027c151c0da1f956f955133ca2884be8f2ddefdff1e23f546eb72f5750c50121025774b0bfc36d12c66d307badb93c0867ecc4b8578223ac036be60346cb164bc8", "asm": "304402203b66f8ef7985f436b31847b19c1b9015b81b42b94aeb3c1b11b9c8048da1d31802206f49027c151c0da1f956f955133ca2884be8f2ddefdff1e23f546eb72f5750c5[ALL] 025774b0bfc36d12c66d307badb93c0867ecc4b8578223ac036be60346cb164bc8"}, "vout": 0, "txid": "6ba5746f7d8c99c9b4314c398232e93804d89b8668566a2766739d6a15ec9cc2"}], "txid": "ff76455e76ffec1bcf4d8ef3438b3f40251eac9592765cc9a6def1426e9ba57e", "blocktime": 1537871767, "version": 1, "confirmations": 11493, "time": 1537871767, "locktime": 0, "vsize": 283, "size": 283}