{"hash": "ff7a2d99704d588a7b15c45e4d43c566ef058941a0ed4675ac704f94c46c87a8", "blockhash": "0000000000000000001f0ddff1eddb255c1121bcd4da4f1bc9a0da00cae72433", "vout": [{"scriptPubKey": {"reqSigs": 1, "hex": "76a9149f23ecd5fc9213fd2eed46c49f7db78738d9e0e588ac", "addresses": ["1FWTUdAaPLSPEVPcvMYSJjBf7UZsauKmjr"], "asm": "OP_DUP OP_HASH160 9f23ecd5fc9213fd2eed46c49f7db78738d9e0e5 OP_EQUALVERIFY OP_CHECKSIG", "type": "pubkeyhash"}, "value": 0.00040802, "n": 0}, {"scriptPubKey": {"reqSigs": 1, "hex": "a914aa359df67b882a0a4c382957019d7f074f9f112487", "addresses": ["3HD12Xq29jxqDU6mauZjFq1r9SzrshfLcy"], "asm": "OP_HASH160 aa359df67b882a0a4c382957019d7f074f9f1124 OP_EQUAL", "type": "scripthash"}, "value": 0.0132, "n": 1}], "hex": "0100000003d3260e30d2b9f39899a36f550a219b2b32e33ee8c42e890a353936025591a248000000006a4730440220599269a7f2870f957092e8d19cf321a9a9ae87e74371eb252367f71075b251c602205a882fc5276e04e1e8f991117cfd5d37f6f6ccdc4e9622173c22f115147d1c940121030484e98ed216d82962260d87ffcb4aba53b14b95baa0f0c0a63622efb66a59e5ffffffff983c8dacfe9ca1042eaec8be17353836c192c94764eaded6d9a6cf1394a928c1000000006a47304402200fe6fe19a6d88e0df1e0bce967dcd3cfa6d06c3ee6932f1cebe297cc941d819b022047c37aa7fb997f0dd14eb3f47c33aada42ce2d97270a453545a61725c59280dc0121035328e29d8ed708f216b6d4fbb741136d8751fab4523c2f2426a2298dcfba44a5ffffffffa6abeaad073eb7fc7fa88af8fe7b9cef1ee119f8fddf7ae6aa889beef55054d0010000006b483045022100b2640871d253190981bb0116c645fe3c07a4ef180a44739ac218e8e43ae6469402207e9c51495133bde3bf13aaff4fea10960d56f537c72fe595b982ee6be424ee77012102e0e9d17b820ac8c0644d9f667a9938b6b0b4a5898eb41d996f96ed023fd7ff47ffffffff02629f0000000000001976a9149f23ecd5fc9213fd2eed46c49f7db78738d9e0e588ac402414000000000017a914aa359df67b882a0a4c382957019d7f074f9f11248700000000", "vin": [{"sequence": 4294967295, "scriptSig": {"hex": "4730440220599269a7f2870f957092e8d19cf321a9a9ae87e74371eb252367f71075b251c602205a882fc5276e04e1e8f991117cfd5d37f6f6ccdc4e9622173c22f115147d1c940121030484e98ed216d82962260d87ffcb4aba53b14b95baa0f0c0a63622efb66a59e5", "asm": "30440220599269a7f2870f957092e8d19cf321a9a9ae87e74371eb252367f71075b251c602205a882fc5276e04e1e8f991117cfd5d37f6f6ccdc4e9622173c22f115147d1c94[ALL] 030484e98ed216d82962260d87ffcb4aba53b14b95baa0f0c0a63622efb66a59e5"}, "vout": 0, "txid": "48a29155023639350a892ec4e83ee3322b9b210a556fa39998f3b9d2300e26d3"}, {"sequence": 4294967295, "scriptSig": {"hex": "47304402200fe6fe19a6d88e0df1e0bce967dcd3cfa6d06c3ee6932f1cebe297cc941d819b022047c37aa7fb997f0dd14eb3f47c33aada42ce2d97270a453545a61725c59280dc0121035328e29d8ed708f216b6d4fbb741136d8751fab4523c2f2426a2298dcfba44a5", "asm": "304402200fe6fe19a6d88e0df1e0bce967dcd3cfa6d06c3ee6932f1cebe297cc941d819b022047c37aa7fb997f0dd14eb3f47c33aada42ce2d97270a453545a61725c59280dc[ALL] 035328e29d8ed708f216b6d4fbb741136d8751fab4523c2f2426a2298dcfba44a5"}, "vout": 0, "txid": "c128a99413cfa6d9d6deea6447c992c136383517bec8ae2e04a19cfeac8d3c98"}, {"sequence": 4294967295, "scriptSig": {"hex": "483045022100b2640871d253190981bb0116c645fe3c07a4ef180a44739ac218e8e43ae6469402207e9c51495133bde3bf13aaff4fea10960d56f537c72fe595b982ee6be424ee77012102e0e9d17b820ac8c0644d9f667a9938b6b0b4a5898eb41d996f96ed023fd7ff47", "asm": "3045022100b2640871d253190981bb0116c645fe3c07a4ef180a44739ac218e8e43ae6469402207e9c51495133bde3bf13aaff4fea10960d56f537c72fe595b982ee6be424ee77[ALL] 02e0e9d17b820ac8c0644d9f667a9938b6b0b4a5898eb41d996f96ed023fd7ff47"}, "vout": 1, "txid": "d05450f5ee9b88aae67adffdf819e11eef9c7bfef88aa87ffcb73e07adeaaba6"}], "txid": "ff7a2d99704d588a7b15c45e4d43c566ef058941a0ed4675ac704f94c46c87a8", "blocktime": 1537872018, "version": 1, "confirmations": 11489, "time": 1537872018, "locktime": 0, "vsize": 518, "size": 518}