{"hash": "ff7caa39d8bde6c6126102e59f334a65ffd1cca1cc403712f47c5fcfbf59fd42", "blockhash": "00000000000000000018f53835495a110e01622372bf6ae95dc86f2b0ab887b0", "vout": [{"scriptPubKey": {"reqSigs": 1, "hex": "76a9149a96cd00f6b85e197f9f8a38fe03dffb08652e7d88ac", "addresses": ["1F6PiNASj4HTmi9SMtXY5C6RwFcc4wo3XM"], "asm": "OP_DUP OP_HASH160 9a96cd00f6b85e197f9f8a38fe03dffb08652e7d OP_EQUALVERIFY OP_CHECKSIG", "type": "pubkeyhash"}, "value": 0.078055, "n": 0}, {"scriptPubKey": {"reqSigs": 1, "hex": "76a9143d3e7b447e2c2451b96d4be3c0a73f8857a7d78e88ac", "addresses": ["16aq4zccwbxQzRhTPkAkTF2QXEDmUtxhYD"], "asm": "OP_DUP OP_HASH160 3d3e7b447e2c2451b96d4be3c0a73f8857a7d78e OP_EQUALVERIFY OP_CHECKSIG", "type": "pubkeyhash"}, "value": 1.06748834, "n": 1}], "hex": "01000000014ee8b4086e2a499996708e6d2795c323c35000663534953da7ebbb8e5e22700d010000006a47304402205744de2f65ad7ef8cf85ce1a6aa4c1b7376706c0016fd26b9b4eb0cf3c6b753202207be733531ca32a6afcbaeea8de59041fee8bd1609b263ca55487f87853a54cf1012102ef3caedc560c3b2e07611b65124b04bb91c1b5e52b62ac56291959ce7ff68a35ffffffff023c1a7700000000001976a9149a96cd00f6b85e197f9f8a38fe03dffb08652e7d88aca2db5c06000000001976a9143d3e7b447e2c2451b96d4be3c0a73f8857a7d78e88ac00000000", "vin": [{"sequence": 4294967295, "scriptSig": {"hex": "47304402205744de2f65ad7ef8cf85ce1a6aa4c1b7376706c0016fd26b9b4eb0cf3c6b753202207be733531ca32a6afcbaeea8de59041fee8bd1609b263ca55487f87853a54cf1012102ef3caedc560c3b2e07611b65124b04bb91c1b5e52b62ac56291959ce7ff68a35", "asm": "304402205744de2f65ad7ef8cf85ce1a6aa4c1b7376706c0016fd26b9b4eb0cf3c6b753202207be733531ca32a6afcbaeea8de59041fee8bd1609b263ca55487f87853a54cf1[ALL] 02ef3caedc560c3b2e07611b65124b04bb91c1b5e52b62ac56291959ce7ff68a35"}, "vout": 1, "txid": "0d70225e8ebbeba73d953435660050c323c395276d8e709699492a6e08b4e84e"}], "txid": "ff7caa39d8bde6c6126102e59f334a65ffd1cca1cc403712f47c5fcfbf59fd42", "blocktime": 1537870928, "version": 1, "confirmations": 11514, "time": 1537870928, "locktime": 0, "vsize": 225, "size": 225}