{"hash": "ff82a2db6be9daae2ffdeefcd06e3c30d206482da6b042088fefd029282844b7", "blockhash": "00000000000000000024a2167bbff67b0be802c0b01cdd79e6331c2be6459f87", "vout": [{"scriptPubKey": {"reqSigs": 1, "hex": "a914872a7acc5fa89cf82d465f88ad277f1c197e19cd87", "addresses": ["3E1i2yqoJNHy3NqHPiGPd8isbTMA3m1xy1"], "asm": "OP_HASH160 872a7acc5fa89cf82d465f88ad277f1c197e19cd OP_EQUAL", "type": "scripthash"}, "value": 0.11774518, "n": 0}, {"scriptPubKey": {"reqSigs": 1, "hex": "76a914f714cf3d50ebeaee8165d93ce5ef4055b06295fe88ac", "addresses": ["1PXSqFhysG2uoNEMvtM2PHmwggWi5wuFtn"], "asm": "OP_DUP OP_HASH160 f714cf3d50ebeaee8165d93ce5ef4055b06295fe OP_EQUALVERIFY OP_CHECKSIG", "type": "pubkeyhash"}, "value": 0.13193522, "n": 1}], "hex": "010000000236d1b52d35656d92b3a9d6dc4833dd2c4cdd8f773898467714d36a1fb3054809000000006a4730440220438c5e8528334d2312ed13f2d6eb895b9c5b3e6e3f960717a84031825346e57c022036f724374c7a91feb94ef3fd611b059f93c42212520cb76c63bd4fd90f72e7d901210358e878176539bc9becbb10a4c9213ce135693c3229cd79244f0081aa021109cafeffffff7868118e127370e185b3c7f1798fa8b485be99deca2e17f5d87f22c9fc26388c010000006a4730440220091e25ad229028c40ff44126fcbfedf8130f483981896eab8b626c61319011f9022028453c2fbafd860f44e154eb31d07e450b6804975dc054b5b3503b627649721601210358e878176539bc9becbb10a4c9213ce135693c3229cd79244f0081aa021109cafeffffff0236aab3000000000017a914872a7acc5fa89cf82d465f88ad277f1c197e19cd873251c900000000001976a914f714cf3d50ebeaee8165d93ce5ef4055b06295fe88ac0d490800", "vin": [{"sequence": 4294967294, "scriptSig": {"hex": "4730440220438c5e8528334d2312ed13f2d6eb895b9c5b3e6e3f960717a84031825346e57c022036f724374c7a91feb94ef3fd611b059f93c42212520cb76c63bd4fd90f72e7d901210358e878176539bc9becbb10a4c9213ce135693c3229cd79244f0081aa021109ca", "asm": "30440220438c5e8528334d2312ed13f2d6eb895b9c5b3e6e3f960717a84031825346e57c022036f724374c7a91feb94ef3fd611b059f93c42212520cb76c63bd4fd90f72e7d9[ALL] 0358e878176539bc9becbb10a4c9213ce135693c3229cd79244f0081aa021109ca"}, "vout": 0, "txid": "094805b31f6ad31477469838778fdd4c2cdd3348dcd6a9b3926d65352db5d136"}, {"sequence": 4294967294, "scriptSig": {"hex": "4730440220091e25ad229028c40ff44126fcbfedf8130f483981896eab8b626c61319011f9022028453c2fbafd860f44e154eb31d07e450b6804975dc054b5b3503b627649721601210358e878176539bc9becbb10a4c9213ce135693c3229cd79244f0081aa021109ca", "asm": "30440220091e25ad229028c40ff44126fcbfedf8130f483981896eab8b626c61319011f9022028453c2fbafd860f44e154eb31d07e450b6804975dc054b5b3503b6276497216[ALL] 0358e878176539bc9becbb10a4c9213ce135693c3229cd79244f0081aa021109ca"}, "vout": 1, "txid": "8c3826fcc9227fd8f5172ecade99be85b4a88f79f1c7b385e17073128e116878"}], "txid": "ff82a2db6be9daae2ffdeefcd06e3c30d206482da6b042088fefd029282844b7", "blocktime": 1537870564, "version": 1, "confirmations": 11515, "time": 1537870564, "locktime": 542989, "vsize": 370, "size": 370}