{"hash": "ff832e6c169a6fed9a92ff1d090294135670d5961dd333b175e11e5d4e295758", "blockhash": "0000000000000000001f0ddff1eddb255c1121bcd4da4f1bc9a0da00cae72433", "vout": [{"scriptPubKey": {"reqSigs": 1, "hex": "a914cb57f5add4d0926b791fe8bf9c731e9d9384eda987", "addresses": ["3LECU2mXmkdoHx5pQioStnBtKWV74ZNcqe"], "asm": "OP_HASH160 cb57f5add4d0926b791fe8bf9c731e9d9384eda9 OP_EQUAL", "type": "scripthash"}, "value": 0.007996, "n": 0}, {"scriptPubKey": {"reqSigs": 1, "hex": "76a91408aaf9009f457b7dc2d9c15d2654ccb801ca531488ac", "addresses": ["1nqDvaPe3Szd2Ax96DZKgyy7VKCYyhj6s"], "asm": "OP_DUP OP_HASH160 08aaf9009f457b7dc2d9c15d2654ccb801ca5314 OP_EQUALVERIFY OP_CHECKSIG", "type": "pubkeyhash"}, "value": 0.23199722, "n": 1}], "hex": "0100000001b2c01a6f5ca3daf42c811113515ae35bffa7b39ce28a601e20082e5d80e80875070000006b483045022100b0c97bbb644b21b9bde9b0bd1afaa3dc5f71b268d24d8c760e0a3490c2c2ebd1022041b42c949ae7ec7ce5135f3bd6d51ae40643e0695aa8a517f717f1a2f59a098e0121036683a10075e4e2a379a7f99f23b38ac8e3593dad38ecaddfa51a460a79002ba4ffffffff0270330c000000000017a914cb57f5add4d0926b791fe8bf9c731e9d9384eda987eaff6101000000001976a91408aaf9009f457b7dc2d9c15d2654ccb801ca531488ac00000000", "vin": [{"sequence": 4294967295, "scriptSig": {"hex": "483045022100b0c97bbb644b21b9bde9b0bd1afaa3dc5f71b268d24d8c760e0a3490c2c2ebd1022041b42c949ae7ec7ce5135f3bd6d51ae40643e0695aa8a517f717f1a2f59a098e0121036683a10075e4e2a379a7f99f23b38ac8e3593dad38ecaddfa51a460a79002ba4", "asm": "3045022100b0c97bbb644b21b9bde9b0bd1afaa3dc5f71b268d24d8c760e0a3490c2c2ebd1022041b42c949ae7ec7ce5135f3bd6d51ae40643e0695aa8a517f717f1a2f59a098e[ALL] 036683a10075e4e2a379a7f99f23b38ac8e3593dad38ecaddfa51a460a79002ba4"}, "vout": 7, "txid": "7508e8805d2e08201e608ae29cb3a7ff5be35a511311812cf4daa35c6f1ac0b2"}], "txid": "ff832e6c169a6fed9a92ff1d090294135670d5961dd333b175e11e5d4e295758", "blocktime": 1537872018, "version": 1, "confirmations": 11489, "time": 1537872018, "locktime": 0, "vsize": 224, "size": 224}