{"hash": "ff890bdea32d20ad3b7cc2e0d278447e6eb7d2fad927db453c2f8403a9bad1b8", "blockhash": "0000000000000000001f0ddff1eddb255c1121bcd4da4f1bc9a0da00cae72433", "vout": [{"scriptPubKey": {"reqSigs": 1, "hex": "76a914dbaa93731f2eba6602dceab222d84c0d3193ffa488ac", "addresses": ["1M2VKqa3ARSNS6Mp8K9XmgqZXXZp7uYMhs"], "asm": "OP_DUP OP_HASH160 dbaa93731f2eba6602dceab222d84c0d3193ffa4 OP_EQUALVERIFY OP_CHECKSIG", "type": "pubkeyhash"}, "value": 6.889e-05, "n": 0}, {"scriptPubKey": {"reqSigs": 1, "hex": "a914b6366900613a228f320269aec5ad5e9aac80781d87", "addresses": ["3JJU5wYY2rMEVmZWNmvhUpZpBecMJQWLx2"], "asm": "OP_HASH160 b6366900613a228f320269aec5ad5e9aac80781d OP_EQUAL", "type": "scripthash"}, "value": 0.02217813, "n": 1}], "hex": "01000000026679900ab64ec498d332de3df58e2777c698406faeca2818f5c03e00288ed669000000006b483045022100a265807c5f14431e7bccd98406c4720c79532f1205366252f7948469a4edcc2802204604498129e1e766a83c3cb0a2c61ee344773486f431ac444fd29fdbb77e6f62012102d54a0a7e8759106140b8cc85eab7df7a9a75a0e8e66d726121c84b735940c306ffffffffb88f4da6954af9f5af2579b2f2efa75cfbb5959a9b387df406c3e321f719b0b3000000006a473044022027ce8631fbbb95707b474a519f2d1bb3511a95aaea69ca8cbe52aba2ec78b8e0022008a02e4171f457c63421fcfce23c76c058c6564395244d32753e4d4d8d8b48e001210336ad913f72093dbff38d44a9c2bc87ccbd327507be2f57aec142bdcbdbb7bb11ffffffff02e91a0000000000001976a914dbaa93731f2eba6602dceab222d84c0d3193ffa488ac55d721000000000017a914b6366900613a228f320269aec5ad5e9aac80781d8700000000", "vin": [{"sequence": 4294967295, "scriptSig": {"hex": "483045022100a265807c5f14431e7bccd98406c4720c79532f1205366252f7948469a4edcc2802204604498129e1e766a83c3cb0a2c61ee344773486f431ac444fd29fdbb77e6f62012102d54a0a7e8759106140b8cc85eab7df7a9a75a0e8e66d726121c84b735940c306", "asm": "3045022100a265807c5f14431e7bccd98406c4720c79532f1205366252f7948469a4edcc2802204604498129e1e766a83c3cb0a2c61ee344773486f431ac444fd29fdbb77e6f62[ALL] 02d54a0a7e8759106140b8cc85eab7df7a9a75a0e8e66d726121c84b735940c306"}, "vout": 0, "txid": "69d68e28003ec0f51828caae6f4098c677278ef53dde32d398c44eb60a907966"}, {"sequence": 4294967295, "scriptSig": {"hex": "473044022027ce8631fbbb95707b474a519f2d1bb3511a95aaea69ca8cbe52aba2ec78b8e0022008a02e4171f457c63421fcfce23c76c058c6564395244d32753e4d4d8d8b48e001210336ad913f72093dbff38d44a9c2bc87ccbd327507be2f57aec142bdcbdbb7bb11", "asm": "3044022027ce8631fbbb95707b474a519f2d1bb3511a95aaea69ca8cbe52aba2ec78b8e0022008a02e4171f457c63421fcfce23c76c058c6564395244d32753e4d4d8d8b48e0[ALL] 0336ad913f72093dbff38d44a9c2bc87ccbd327507be2f57aec142bdcbdbb7bb11"}, "vout": 0, "txid": "b3b019f721e3c306f47d389b9a95b5fb5ca7eff2b27925aff5f94a95a64d8fb8"}], "txid": "ff890bdea32d20ad3b7cc2e0d278447e6eb7d2fad927db453c2f8403a9bad1b8", "blocktime": 1537872018, "version": 1, "confirmations": 11489, "time": 1537872018, "locktime": 0, "vsize": 371, "size": 371}