{"hash": "c4e2340b0c6ffe77956736e28821c487b673518f38694ef95ef7053a932ec062", "blockhash": "0000000000000000001f76057863aec43deb6fa401d9628bb513d65a8098bfab", "vout": [{"scriptPubKey": {"reqSigs": 1, "hex": "a914b44337f216fcdcf0a5895a72e8c4169a68ef293e87", "addresses": ["3J8A5VuG2KUQmCweiwHBDfv67VqWTciCM2"], "asm": "OP_HASH160 b44337f216fcdcf0a5895a72e8c4169a68ef293e OP_EQUAL", "type": "scripthash"}, "value": 0.01171493, "n": 0}], "hex": "0100000000010169614956edb1721b9c8a4e593f733fdfa3c85e7209fabf06f447b187c50c30c70000000017160014bc40973b806f0d29aeb3b52136635598720567e3ffffffff0125e011000000000017a914b44337f216fcdcf0a5895a72e8c4169a68ef293e8702483045022100bfaa9c9a783dd5fa469b890c58aac4ad0fbaf69eb6b5f53348a46a9265a3f63c02204e4d47097d8fcf937400b17e005de7832204532b89841c89a8253595b47a9ec80121038837dd7ac51493c86fe9c86666b39961e2268336702bef4e3c969ec56046527600000000", "vin": [{"txinwitness": ["3045022100bfaa9c9a783dd5fa469b890c58aac4ad0fbaf69eb6b5f53348a46a9265a3f63c02204e4d47097d8fcf937400b17e005de7832204532b89841c89a8253595b47a9ec801", "038837dd7ac51493c86fe9c86666b39961e2268336702bef4e3c969ec560465276"], "sequence": 4294967295, "scriptSig": {"hex": "160014bc40973b806f0d29aeb3b52136635598720567e3", "asm": "0014bc40973b806f0d29aeb3b52136635598720567e3"}, "vout": 0, "txid": "c7300cc587b147f406bffa09725ec8a3df3f733f594e8a9c1b72b1ed56496169"}], "txid": "ff8d2d494e401c5ba6f0d51aa6161f0baee367dd215be3ed78225ca60fe8ced5", "blocktime": 1537873891, "version": 1, "confirmations": 11478, "time": 1537873891, "locktime": 0, "vsize": 134, "size": 216}