{"hash": "ff90d860ef0584b820af8f922fcc06804307885d811de2c3afd18e9b39cc3ead", "blockhash": "00000000000000000004ffacab907a6b429b9a5745fa0b75af4234bf69dd7176", "vout": [{"scriptPubKey": {"reqSigs": 1, "hex": "a9140ee36de38d48168b7ddb250dcf7df41acc78348f87", "addresses": ["333jqHpximFXU1rYMVx7J3ywCzqMkeLdqr"], "asm": "OP_HASH160 0ee36de38d48168b7ddb250dcf7df41acc78348f OP_EQUAL", "type": "scripthash"}, "value": 0.00989534, "n": 0}, {"scriptPubKey": {"reqSigs": 1, "hex": "a9147c533d6eaf3d15c0a995599509c2c55f404a689287", "addresses": ["3D2PRwn4Ydo6Mh8NdekX5qvBGQoH9LQJ8K"], "asm": "OP_HASH160 7c533d6eaf3d15c0a995599509c2c55f404a6892 OP_EQUAL", "type": "scripthash"}, "value": 0.2303, "n": 1}], "hex": "02000000032b24e4eace3092f3814aac65f678f7977f1a5b68559f49f9159b57a453905b42000000006a473044022057f464f804971c435bfd54c82aa617d11e140f0b0d3bc5b29166ad99742f625b022029eb34951ba4cc86872ce73d63c766d07565bdbae1032df65f976f08db0a8ef0012103c2edfa0807bd4a7920b2f8f47bad411251547bdbaedcfe13c247a442111adb1cfefffffff55fc53d5eb321554e764a4cc80a8f955cdf4173efdaa5b07ba545daf34f7558030000006a47304402203ea9d56f1962cffc9c3e5c1092f5ba9df87744ab7acbf9557fba85ee1b28193f022026e7fdd0143b6064271a1e4ab7890f7cc5523e93c72321fe3077433bc485b157012102551a548d25142da22d27ff0cd4ebd0d543e15e6d64a21c512a8426995351eb5efefffffffa56a705fda8af7fd19dc569ebad7302ca8a6c8546339dba861689859f14e4e9010000006a4730440220586cbdf5c5505f73ae0dc3b0ee73b98a203830bb495d07e6d7d1cfc46c8a4b18022066ac132d921e7170240faa61abe32f7903266a876a987b27b6c0298844e092aa012102a61a7028de52817470ea0d94f8283a5beba1d34d8a96b6987f78ad864f374287feffffff025e190f000000000017a9140ee36de38d48168b7ddb250dcf7df41acc78348f87f0685f010000000017a9147c533d6eaf3d15c0a995599509c2c55f404a68928716490800", "vin": [{"sequence": 4294967294, "scriptSig": {"hex": "473044022057f464f804971c435bfd54c82aa617d11e140f0b0d3bc5b29166ad99742f625b022029eb34951ba4cc86872ce73d63c766d07565bdbae1032df65f976f08db0a8ef0012103c2edfa0807bd4a7920b2f8f47bad411251547bdbaedcfe13c247a442111adb1c", "asm": "3044022057f464f804971c435bfd54c82aa617d11e140f0b0d3bc5b29166ad99742f625b022029eb34951ba4cc86872ce73d63c766d07565bdbae1032df65f976f08db0a8ef0[ALL] 03c2edfa0807bd4a7920b2f8f47bad411251547bdbaedcfe13c247a442111adb1c"}, "vout": 0, "txid": "425b9053a4579b15f9499f55685b1a7f97f778f665ac4a81f39230ceeae4242b"}, {"sequence": 4294967294, "scriptSig": {"hex": "47304402203ea9d56f1962cffc9c3e5c1092f5ba9df87744ab7acbf9557fba85ee1b28193f022026e7fdd0143b6064271a1e4ab7890f7cc5523e93c72321fe3077433bc485b157012102551a548d25142da22d27ff0cd4ebd0d543e15e6d64a21c512a8426995351eb5e", "asm": "304402203ea9d56f1962cffc9c3e5c1092f5ba9df87744ab7acbf9557fba85ee1b28193f022026e7fdd0143b6064271a1e4ab7890f7cc5523e93c72321fe3077433bc485b157[ALL] 02551a548d25142da22d27ff0cd4ebd0d543e15e6d64a21c512a8426995351eb5e"}, "vout": 3, "txid": "58754ff3da45a57bb0a5daef7341df5c958f0ac84c4a764e5521b35e3dc55ff5"}, {"sequence": 4294967294, "scriptSig": {"hex": "4730440220586cbdf5c5505f73ae0dc3b0ee73b98a203830bb495d07e6d7d1cfc46c8a4b18022066ac132d921e7170240faa61abe32f7903266a876a987b27b6c0298844e092aa012102a61a7028de52817470ea0d94f8283a5beba1d34d8a96b6987f78ad864f374287", "asm": "30440220586cbdf5c5505f73ae0dc3b0ee73b98a203830bb495d07e6d7d1cfc46c8a4b18022066ac132d921e7170240faa61abe32f7903266a876a987b27b6c0298844e092aa[ALL] 02a61a7028de52817470ea0d94f8283a5beba1d34d8a96b6987f78ad864f374287"}, "vout": 1, "txid": "e9e4149f85891686ba9d3346856c8aca0273adeb69c59dd17fafa8fd05a756fa"}], "txid": "ff90d860ef0584b820af8f922fcc06804307885d811de2c3afd18e9b39cc3ead", "blocktime": 1537875543, "version": 2, "confirmations": 11464, "time": 1537875543, "locktime": 542998, "vsize": 515, "size": 515}