{"hash": "89ad9a7749599beb705bd708f94e3ae7c765d5cf567c0b9f7481cc8520dcdadb", "blockhash": "00000000000000000018f53835495a110e01622372bf6ae95dc86f2b0ab887b0", "vout": [{"scriptPubKey": {"reqSigs": 1, "hex": "a914bc65761b0530d0cad48ded90517b0c7136a746a787", "addresses": ["3JsAWGPEJdN23bjSZ6pnnVUeKN6TxFRHaY"], "asm": "OP_HASH160 bc65761b0530d0cad48ded90517b0c7136a746a7 OP_EQUAL", "type": "scripthash"}, "value": 0.21530403, "n": 0}, {"scriptPubKey": {"reqSigs": 1, "hex": "76a914ccfbcaa515ca37b472a3635a7a9f899c831c583e88ac", "addresses": ["1KgrUvKATaDjiyVKxaAmE5WUaRRHuZ8rJt"], "asm": "OP_DUP OP_HASH160 ccfbcaa515ca37b472a3635a7a9f899c831c583e OP_EQUALVERIFY OP_CHECKSIG", "type": "pubkeyhash"}, "value": 0.007809, "n": 1}], "hex": "0200000000010118be13c206789fcb3f7c9c3ec1aa416cbf4b849018f84fddb4da05b75a06e837000000001716001459010e64f599a44a255a31b19426275141d3c661feffffff02238748010000000017a914bc65761b0530d0cad48ded90517b0c7136a746a78764ea0b00000000001976a914ccfbcaa515ca37b472a3635a7a9f899c831c583e88ac02483045022100ded651d0f67b77bfd6b29e6602142b611a94ef92816ccb7d13605475b1979ac202205c449e73137ff55d97b0b0f2e6cd4ef485ca623a17b9334c7fda30eb06f6c93e0121035dd856c5c4c89d71812773478cba0b03adbf86cdcd1b22cb3761d79f419e62c30e490800", "vin": [{"txinwitness": ["3045022100ded651d0f67b77bfd6b29e6602142b611a94ef92816ccb7d13605475b1979ac202205c449e73137ff55d97b0b0f2e6cd4ef485ca623a17b9334c7fda30eb06f6c93e01", "035dd856c5c4c89d71812773478cba0b03adbf86cdcd1b22cb3761d79f419e62c3"], "sequence": 4294967294, "scriptSig": {"hex": "16001459010e64f599a44a255a31b19426275141d3c661", "asm": "001459010e64f599a44a255a31b19426275141d3c661"}, "vout": 0, "txid": "37e8065ab705dab4dd4ff81890844bbf6c41aac13e9c7c3fcb9f7806c213be18"}], "txid": "ff9d301f425aebcdcfc3cbd5746e229b4bcc397a38cfb7f7f1405b9836355ea7", "blocktime": 1537870928, "version": 2, "confirmations": 11514, "time": 1537870928, "locktime": 542990, "vsize": 168, "size": 250}