{"hash": "ffa0ba49e0c90c135946c989b27f9b1bb004be3351c910ab50af2a866d02d92c", "blockhash": "000000000000000000022b45ed06c6f4ccd3cf7fb5ba4856ebd2e58215665228", "vout": [{"scriptPubKey": {"reqSigs": 1, "hex": "76a9145f80dd48712ec347c36c1cd0db1de12dac5ea8b588ac", "addresses": ["19hyZsx5NbPzfFy8FaN8P3e8vgNZCrELJN"], "asm": "OP_DUP OP_HASH160 5f80dd48712ec347c36c1cd0db1de12dac5ea8b5 OP_EQUALVERIFY OP_CHECKSIG", "type": "pubkeyhash"}, "value": 0.06736172, "n": 0}, {"scriptPubKey": {"reqSigs": 1, "hex": "76a91495b8b1a15607a85771eef36961ccb9344e682c2088ac", "addresses": ["1EeewLat29gHGQHRa6VQvNj1efCuQefJAD"], "asm": "OP_DUP OP_HASH160 95b8b1a15607a85771eef36961ccb9344e682c20 OP_EQUALVERIFY OP_CHECKSIG", "type": "pubkeyhash"}, "value": 0.13763229, "n": 1}], "hex": "010000000227a2865a70bf415adec02ec477b798958c9e741c567d6b89ed0b2ebfca75ca19000000006b483045022100b407cf85123d4a85256991aa49162b11168a9449debf01064d7682c1de2f47e602202b548bb5480a602312c2091a02304368ee425b033fe0b19e6c634d9e4e16eae40121035cbf5fd1aef81109fb5b24e5dc87fdc589699cb5281561249be8de9c3dfc609bffffffffb0240033a59690327d655ce0c15c6d0d2f826572e531ca8f135932b32c03c396020000006a4730440220786db8e66f69dc121afe70ab406be2943f65ba8f566547cf2c1597c5e66e78d902201d2eb9cc02da504f4548421ac9b5408f9bdfe19172cfeecec56561c1ac0f1b41012103e7dfba8e5eaeec944668479b934ce1367b415b84a7a5c02333806cba47decbcdffffffff022cc96600000000001976a9145f80dd48712ec347c36c1cd0db1de12dac5ea8b588ac9d02d200000000001976a91495b8b1a15607a85771eef36961ccb9344e682c2088ac00000000", "vin": [{"sequence": 4294967295, "scriptSig": {"hex": "483045022100b407cf85123d4a85256991aa49162b11168a9449debf01064d7682c1de2f47e602202b548bb5480a602312c2091a02304368ee425b033fe0b19e6c634d9e4e16eae40121035cbf5fd1aef81109fb5b24e5dc87fdc589699cb5281561249be8de9c3dfc609b", "asm": "3045022100b407cf85123d4a85256991aa49162b11168a9449debf01064d7682c1de2f47e602202b548bb5480a602312c2091a02304368ee425b033fe0b19e6c634d9e4e16eae4[ALL] 035cbf5fd1aef81109fb5b24e5dc87fdc589699cb5281561249be8de9c3dfc609b"}, "vout": 0, "txid": "19ca75cabf2e0bed896b7d561c749e8c9598b777c42ec0de5a41bf705a86a227"}, {"sequence": 4294967295, "scriptSig": {"hex": "4730440220786db8e66f69dc121afe70ab406be2943f65ba8f566547cf2c1597c5e66e78d902201d2eb9cc02da504f4548421ac9b5408f9bdfe19172cfeecec56561c1ac0f1b41012103e7dfba8e5eaeec944668479b934ce1367b415b84a7a5c02333806cba47decbcd", "asm": "30440220786db8e66f69dc121afe70ab406be2943f65ba8f566547cf2c1597c5e66e78d902201d2eb9cc02da504f4548421ac9b5408f9bdfe19172cfeecec56561c1ac0f1b41[ALL] 03e7dfba8e5eaeec944668479b934ce1367b415b84a7a5c02333806cba47decbcd"}, "vout": 2, "txid": "96c3032cb33259138fca31e57265822f0d6d5cc1e05c657d329096a5330024b0"}], "txid": "ffa0ba49e0c90c135946c989b27f9b1bb004be3351c910ab50af2a866d02d92c", "blocktime": 1537869901, "version": 1, "confirmations": 11522, "time": 1537869901, "locktime": 0, "vsize": 373, "size": 373}