{"hash": "e49e404f3888df20c6af05869a308077c831d6d92c8410555e8c65d3a3477fc7", "blockhash": "0000000000000000001f0ddff1eddb255c1121bcd4da4f1bc9a0da00cae72433", "vout": [{"scriptPubKey": {"reqSigs": 1, "hex": "a9141118cf7859bddacb432a8f1ad9bb3a42b453929787", "addresses": ["33FR8fTCxszH7KT5RTjMJMstAoUJ8fLj22"], "asm": "OP_HASH160 1118cf7859bddacb432a8f1ad9bb3a42b4539297 OP_EQUAL", "type": "scripthash"}, "value": 0.1542886, "n": 0}, {"scriptPubKey": {"reqSigs": 1, "hex": "a9147db8f33a999024cbfad108c6ceb6c6ce85cf2bde87", "addresses": ["3D9mx5h3kNgJmVd1kktU15JMGTVGoxJhYK"], "asm": "OP_HASH160 7db8f33a999024cbfad108c6ceb6c6ce85cf2bde OP_EQUAL", "type": "scripthash"}, "value": 0.03527831, "n": 1}], "hex": "0200000000010193f0eb694c473ab35ccffa1380ee128b1ecfb3876fa6726d0d18468a25570823010000001716001469e777baeebe85ade51ec171c8a933b3f0bcf763feffffff02fc6ceb000000000017a9141118cf7859bddacb432a8f1ad9bb3a42b45392978797d435000000000017a9147db8f33a999024cbfad108c6ceb6c6ce85cf2bde8702483045022100f0ae3cbd7f583bfc96810d527020e6fa7be10c0cf79d078db27d3dd0298d7cc8022071876a494e7799314e15e32347af7e4c09e434b7381211833339316879327cd80121039c15a138d4b1ed8eed6b4dac83a40f989cec235c72638642e33be2fecfd8f89211490800", "vin": [{"txinwitness": ["3045022100f0ae3cbd7f583bfc96810d527020e6fa7be10c0cf79d078db27d3dd0298d7cc8022071876a494e7799314e15e32347af7e4c09e434b7381211833339316879327cd801", "039c15a138d4b1ed8eed6b4dac83a40f989cec235c72638642e33be2fecfd8f892"], "sequence": 4294967294, "scriptSig": {"hex": "16001469e777baeebe85ade51ec171c8a933b3f0bcf763", "asm": "001469e777baeebe85ade51ec171c8a933b3f0bcf763"}, "vout": 1, "txid": "230857258a46180d6d72a66f87b3cf1e8b12ee8013facf5cb33a474c69ebf093"}], "txid": "ffa3581ddd51412bb9126d0321332f11630cded036bd2c3fba2852bf2332287a", "blocktime": 1537872018, "version": 2, "confirmations": 11489, "time": 1537872018, "locktime": 542993, "vsize": 166, "size": 248}