{"hash": "95b7b140ba8bf73754fab4182e7959b303781e5b73670a1fb827e485a557b9b7", "blockhash": "0000000000000000001f0ddff1eddb255c1121bcd4da4f1bc9a0da00cae72433", "vout": [{"scriptPubKey": {"reqSigs": 1, "hex": "a914c1f64dd2871f62dbadfdabaf11588af82d5d516d87", "addresses": ["3KNbQ4vmPzmDoJjgBe3372qkbRERvbmxYE"], "asm": "OP_HASH160 c1f64dd2871f62dbadfdabaf11588af82d5d516d OP_EQUAL", "type": "scripthash"}, "value": 0.00496222, "n": 0}, {"scriptPubKey": {"reqSigs": 1, "hex": "a91460bd20d18897add757d8ba9284137fa0289335af87", "addresses": ["3AWXMpLceTUjvD4YNMuE4sVScTxapJvVod"], "asm": "OP_HASH160 60bd20d18897add757d8ba9284137fa0289335af OP_EQUAL", "type": "scripthash"}, "value": 0.18192292, "n": 1}], "hex": "010000000001028e239872058474587e03a6d9e719d0c3bc9ea7ca744df8cbb48f468e1f13d78b010000002322002044adaed94601ad89794be07b66b94bd71d707501ac7885ebeb9f82c9cf81679cffffffff31ecbc233636401b2ccf2b35c8fd3527734bccaf9970338e32410b560b3cd5e401000000232200209ef464307217ebaf080a5f3c7ffaaae55dd0158746a77d9973fe9ce418ece766ffffffff025e9207000000000017a914c1f64dd2871f62dbadfdabaf11588af82d5d516d87a49715010000000017a91460bd20d18897add757d8ba9284137fa0289335af87040047304402201bc40da267212c9b052a78dde6f5e3a6db8befbbb6feda04771b6d2517452a5802207e4024720f8bb3160c5b0e509d2b3b3dac95a447037714649c7e6ea7516e9ce30148304502210085d72fd1f5727847588a4d59421715ebd3b3add9f4157f006058cdc35ebe1a830220434119ee356a3e3303d328ffecb804214379ebe6951766bdd6e57e4ca44d6a800147522103c7ef10eb0bd420b21aa4c3d86604386a21332c109a30c8cc2cb235404ad663e921030580d373ab00643a581abb399b43fa66d7b6fc29624eb75b2d5ec8d99faa163f52ae0400483045022100da71f8fa4b13aa6c8e287dd4f7a42e1ea027198acb53d99d158c1cf7b70114c802203ed8096a678748ef74751b4f49e70f6994f473d666157851e81d9dc07f48446d01483045022100860cadee497fd2d63f6bc59a92a0e8c79885a6f88a4e84bc6d9465c8ef3b05470220429b458b96c85605a76f561f8dbe2d138b4951d8d7ea5d88e98868336ec7bd1401475221020b3b9c738c4f6cedcd53e5bcb5c90541c64f04601ca2003c17a80fc3ce87f3c821030580d373ab00643a581abb399b43fa66d7b6fc29624eb75b2d5ec8d99faa163f52ae00000000", "vin": [{"txinwitness": ["", "304402201bc40da267212c9b052a78dde6f5e3a6db8befbbb6feda04771b6d2517452a5802207e4024720f8bb3160c5b0e509d2b3b3dac95a447037714649c7e6ea7516e9ce301", "304502210085d72fd1f5727847588a4d59421715ebd3b3add9f4157f006058cdc35ebe1a830220434119ee356a3e3303d328ffecb804214379ebe6951766bdd6e57e4ca44d6a8001", "522103c7ef10eb0bd420b21aa4c3d86604386a21332c109a30c8cc2cb235404ad663e921030580d373ab00643a581abb399b43fa66d7b6fc29624eb75b2d5ec8d99faa163f52ae"], "sequence": 4294967295, "scriptSig": {"hex": "22002044adaed94601ad89794be07b66b94bd71d707501ac7885ebeb9f82c9cf81679c", "asm": "002044adaed94601ad89794be07b66b94bd71d707501ac7885ebeb9f82c9cf81679c"}, "vout": 1, "txid": "8bd7131f8e468fb4cbf84d74caa79ebcc3d019e7d9a6037e587484057298238e"}, {"txinwitness": ["", "3045022100da71f8fa4b13aa6c8e287dd4f7a42e1ea027198acb53d99d158c1cf7b70114c802203ed8096a678748ef74751b4f49e70f6994f473d666157851e81d9dc07f48446d01", "3045022100860cadee497fd2d63f6bc59a92a0e8c79885a6f88a4e84bc6d9465c8ef3b05470220429b458b96c85605a76f561f8dbe2d138b4951d8d7ea5d88e98868336ec7bd1401", "5221020b3b9c738c4f6cedcd53e5bcb5c90541c64f04601ca2003c17a80fc3ce87f3c821030580d373ab00643a581abb399b43fa66d7b6fc29624eb75b2d5ec8d99faa163f52ae"], "sequence": 4294967295, "scriptSig": {"hex": "2200209ef464307217ebaf080a5f3c7ffaaae55dd0158746a77d9973fe9ce418ece766", "asm": "00209ef464307217ebaf080a5f3c7ffaaae55dd0158746a77d9973fe9ce418ece766"}, "vout": 1, "txid": "e4d53c0b560b41328e337099afcc4b732735fdc8352bcf2c1b40363623bcec31"}], "txid": "ffa4933d9e15ec6acb199b4da88c5dee8a90f1bd7928c402bc5bb84525ae30a6", "blocktime": 1537872018, "version": 1, "confirmations": 11489, "time": 1537872018, "locktime": 0, "vsize": 337, "size": 667}