{"hash": "3710324cd93e50777bbd8d2955553e0dedd47d60702a2e76492386eeade37922", "blockhash": "000000000000000000022b45ed06c6f4ccd3cf7fb5ba4856ebd2e58215665228", "vout": [{"scriptPubKey": {"reqSigs": 1, "hex": "76a914d61c05fd0d22f351b5144fea602b32a929019e5d88ac", "addresses": ["1LX7B9mVNWBK5xF2CXFKXw83YVZzxbbmRg"], "asm": "OP_DUP OP_HASH160 d61c05fd0d22f351b5144fea602b32a929019e5d OP_EQUALVERIFY OP_CHECKSIG", "type": "pubkeyhash"}, "value": 0.028, "n": 0}, {"scriptPubKey": {"reqSigs": 1, "hex": "a914627aa52932456d89054bd84f86246af3b71b93a887", "addresses": ["3Afj4stdiLG9EktGrMbm252ySonnhYaz8v"], "asm": "OP_HASH160 627aa52932456d89054bd84f86246af3b71b93a8 OP_EQUAL", "type": "scripthash"}, "value": 0.81604298, "n": 1}], "hex": "010000000001011347957e30bee15b171fbe061005842807a293cbff472006315f5936106292d301000000232200205fdd641234b13964b223bd85ad2a4a667ca2099df3d42a1d3b45706a8d81abf0ffffffff0280b92a00000000001976a914d61c05fd0d22f351b5144fea602b32a929019e5d88acca2edd040000000017a914627aa52932456d89054bd84f86246af3b71b93a88704004730440220440424c1569adba7951b69e3cbf003ff37abd9cb51c2b15aba685acbebfb4f580220195106471f97fbe969cf05a90aa69507d6e96a318d9cde661c4df869814979b10147304402201596a74604a660ddd607afbc685239b440a03f7912856c192e498c6d3a8c9bb902204ee4eca4ef0895f2676ed023a15cbfa8f3e687c7c7264eddf461361342045dc90147522103dcde3832fa56def7b4e783faad1b8af85c3cdd74a5ff4f3c7c216b1075c18da12103c70ae8ded79be1afda73b9ce5ea14a3878908ee160d66a9a717e792bb6db276952ae00000000", "vin": [{"txinwitness": ["", "30440220440424c1569adba7951b69e3cbf003ff37abd9cb51c2b15aba685acbebfb4f580220195106471f97fbe969cf05a90aa69507d6e96a318d9cde661c4df869814979b101", "304402201596a74604a660ddd607afbc685239b440a03f7912856c192e498c6d3a8c9bb902204ee4eca4ef0895f2676ed023a15cbfa8f3e687c7c7264eddf461361342045dc901", "522103dcde3832fa56def7b4e783faad1b8af85c3cdd74a5ff4f3c7c216b1075c18da12103c70ae8ded79be1afda73b9ce5ea14a3878908ee160d66a9a717e792bb6db276952ae"], "sequence": 4294967295, "scriptSig": {"hex": "2200205fdd641234b13964b223bd85ad2a4a667ca2099df3d42a1d3b45706a8d81abf0", "asm": "00205fdd641234b13964b223bd85ad2a4a667ca2099df3d42a1d3b45706a8d81abf0"}, "vout": 1, "txid": "d392621036595f31062047ffcb93a2072884051006be1f175be1be307e954713"}], "txid": "ffaaf6fec792a4aabfe5604cf26156def218e1d80e3d264d4fa95b1b63dceb9d", "blocktime": 1537869901, "version": 1, "confirmations": 11523, "time": 1537869901, "locktime": 0, "vsize": 207, "size": 372}