{"hash": "d9fa90bfd7cfd2e6a443df9ef1a7dfd44ba8ee645ad68b07a709392cd9cc293e", "blockhash": "0000000000000000000e13cef7c366c0283d82e591d1acd082e914b08063cdf1", "vout": [{"scriptPubKey": {"reqSigs": 1, "hex": "a914777e8fa0225f661f185801e3df7c1f5cf629599187", "addresses": ["3CaqwzBBPNr2sEja1dQm18P7MhQyddLMxa"], "asm": "OP_HASH160 777e8fa0225f661f185801e3df7c1f5cf6295991 OP_EQUAL", "type": "scripthash"}, "value": 0.19716694, "n": 0}, {"scriptPubKey": {"reqSigs": 1, "hex": "76a91493b966e76e61c9397db0eec7c45155472ac1128a88ac", "addresses": ["1EU6S9v4UNvx38EDpN6XZYashF58yV8LrH"], "asm": "OP_DUP OP_HASH160 93b966e76e61c9397db0eec7c45155472ac1128a OP_EQUALVERIFY OP_CHECKSIG", "type": "pubkeyhash"}, "value": 0.01523672, "n": 1}], "hex": "020000000001033f3d58b95eff721bd93e6a6e87dbaf4a8ea7be9573acaeb18be5311e22f64efd0100000017160014986b672c12348187d75364194f7bad6168fd61c4feffffff4a8ed65b483633697467ff5b8ecb8e7bf8a0e1307cbd60f6529f5746faad496800000000171600147756af82336e6b22761df9d4dfb2edc5114d7b2cfeffffffe1ccb5376a1328b782f0f90258ee9eb4e9f88e8404365259bb676cbae1ed4c8d00000000171600142fcf3f7cfd3134e7e9a885406aeda55f4bc89f4afeffffff0256da2c010000000017a914777e8fa0225f661f185801e3df7c1f5cf629599187d83f1700000000001976a91493b966e76e61c9397db0eec7c45155472ac1128a88ac02483045022100e7864664889e89df6d2416d4dc674b4f17c2ed232df98d92b4b003437ebab92a02204d28cd9296f391987ac4dd90833a5dbc7c6b9defd0ffcc20b26515e959cf8e70012102db4a1f4f4fe28c04445afebaef9c0b74dac1978dbf3c5c05253e488054c104b802483045022100a4895ff8f25b5d9b0da145f6335e8468bbf01f3362abf311c44020a7985a9d990220532915eb0f1f2d30521c1857dd44602b6dc24e978ac2651c0b615c373d3eafb101210369cf1bf097d02aa7aaf2f8b0e4261375fc32f91cf4c185d6a325684bf9ef01b902483045022100d4dd2f784a8b8388cf693d4e49677a2118c4fb7a1334af7835bfbca0388db2e7022047b2907c51089ad7c89020271d1228c53e89bd5d9f8eecb4461728f44962d8230121022482b65df11b625e9a07ae972dc854ab7f5008c70f25f64ba00bf69f65554f9310490800", "vin": [{"txinwitness": ["3045022100e7864664889e89df6d2416d4dc674b4f17c2ed232df98d92b4b003437ebab92a02204d28cd9296f391987ac4dd90833a5dbc7c6b9defd0ffcc20b26515e959cf8e7001", "02db4a1f4f4fe28c04445afebaef9c0b74dac1978dbf3c5c05253e488054c104b8"], "sequence": 4294967294, "scriptSig": {"hex": "160014986b672c12348187d75364194f7bad6168fd61c4", "asm": "0014986b672c12348187d75364194f7bad6168fd61c4"}, "vout": 1, "txid": "fd4ef6221e31e58bb1aeac7395bea78e4aafdb876e6a3ed91b72ff5eb9583d3f"}, {"txinwitness": ["3045022100a4895ff8f25b5d9b0da145f6335e8468bbf01f3362abf311c44020a7985a9d990220532915eb0f1f2d30521c1857dd44602b6dc24e978ac2651c0b615c373d3eafb101", "0369cf1bf097d02aa7aaf2f8b0e4261375fc32f91cf4c185d6a325684bf9ef01b9"], "sequence": 4294967294, "scriptSig": {"hex": "1600147756af82336e6b22761df9d4dfb2edc5114d7b2c", "asm": "00147756af82336e6b22761df9d4dfb2edc5114d7b2c"}, "vout": 0, "txid": "6849adfa46579f52f660bd7c30e1a0f87b8ecb8e5bff6774693336485bd68e4a"}, {"txinwitness": ["3045022100d4dd2f784a8b8388cf693d4e49677a2118c4fb7a1334af7835bfbca0388db2e7022047b2907c51089ad7c89020271d1228c53e89bd5d9f8eecb4461728f44962d82301", "022482b65df11b625e9a07ae972dc854ab7f5008c70f25f64ba00bf69f65554f93"], "sequence": 4294967294, "scriptSig": {"hex": "1600142fcf3f7cfd3134e7e9a885406aeda55f4bc89f4a", "asm": "00142fcf3f7cfd3134e7e9a885406aeda55f4bc89f4a"}, "vout": 0, "txid": "8d4cede1ba6c67bb59523604848ef8e9b49eee5802f9f082b728136a37b5cce1"}], "txid": "ffad115c011cb58aef233f95893d695932c1d50255946a7cbfe56173c9a1e309", "blocktime": 1537871767, "version": 2, "confirmations": 11490, "time": 1537871767, "locktime": 542992, "vsize": 350, "size": 594}