{"hash": "da309da86f52e06e4116d6da807be84984dca311211a5719c8872547b4e27f9e", "blockhash": "0000000000000000000e13cef7c366c0283d82e591d1acd082e914b08063cdf1", "vout": [{"scriptPubKey": {"reqSigs": 1, "hex": "a914696a688f0a0f19c78ef44c3e351a93e521efffb487", "addresses": ["3BJQM5DNcdLDgxExTieXBiDhpZMLDMa6wc"], "asm": "OP_HASH160 696a688f0a0f19c78ef44c3e351a93e521efffb4 OP_EQUAL", "type": "scripthash"}, "value": 0.0583816, "n": 0}, {"scriptPubKey": {"reqSigs": 1, "hex": "a914dad111356e06c615675d3792a0d803c330280d6f87", "addresses": ["3Me1gcDZYrM1tyrGuvntaFBrX7yyuy81wS"], "asm": "OP_HASH160 dad111356e06c615675d3792a0d803c330280d6f OP_EQUAL", "type": "scripthash"}, "value": 0.0099768, "n": 1}], "hex": "020000000001029900b85c7715b77cc43d1525fb0d18aec262d4a9f4acf09ff7f76fff0c03b1bf00000000171600141fcc022f83253746687e383f8af0ae10fe3669f7feffffffd6ef757ab1cf59f821520a525582173da0f562f531d7262f9113b622cfae69320000000017160014ee135ff6048d188a70438f07c4cc160c66264ee3feffffff02501559000000000017a914696a688f0a0f19c78ef44c3e351a93e521efffb48730390f000000000017a914dad111356e06c615675d3792a0d803c330280d6f870247304402204fafc744af9cd854dc7c24410029084ef7ab9cb467385bd18903f9bef7c93dcb022065cc4cd692dec1bd497d2a910f95cfe39fbf8795992ad4326e3325ad2da57304012102c434ef23f9916352f99a72e02d4e42a1ba066fa71a91d667dda072459008a027024830450221008b9775f4f2b7a528ff97011068509859bc6a471a112cc4c1a7bc98c5dc3f6cdc0220637fb02a46c32eeae127e66e08fe4b829aa4d5fee71a222c148fe4c2a5e7ba350121039ca240c13030635b868230a308467abfce747ebd552b063b3121f8f03c692b9e10490800", "vin": [{"txinwitness": ["304402204fafc744af9cd854dc7c24410029084ef7ab9cb467385bd18903f9bef7c93dcb022065cc4cd692dec1bd497d2a910f95cfe39fbf8795992ad4326e3325ad2da5730401", "02c434ef23f9916352f99a72e02d4e42a1ba066fa71a91d667dda072459008a027"], "sequence": 4294967294, "scriptSig": {"hex": "1600141fcc022f83253746687e383f8af0ae10fe3669f7", "asm": "00141fcc022f83253746687e383f8af0ae10fe3669f7"}, "vout": 0, "txid": "bfb1030cff6ff7f79ff0acf4a9d462c2ae180dfb25153dc47cb715775cb80099"}, {"txinwitness": ["30450221008b9775f4f2b7a528ff97011068509859bc6a471a112cc4c1a7bc98c5dc3f6cdc0220637fb02a46c32eeae127e66e08fe4b829aa4d5fee71a222c148fe4c2a5e7ba3501", "039ca240c13030635b868230a308467abfce747ebd552b063b3121f8f03c692b9e"], "sequence": 4294967294, "scriptSig": {"hex": "160014ee135ff6048d188a70438f07c4cc160c66264ee3", "asm": "0014ee135ff6048d188a70438f07c4cc160c66264ee3"}, "vout": 0, "txid": "3269aecf22b613912f26d731f562f5a03d178255520a5221f859cfb17a75efd6"}], "txid": "ffb2426f6037fb48c0f44816110f6da54572565197c47efc8288a9d3d8be4800", "blocktime": 1537871767, "version": 2, "confirmations": 11491, "time": 1537871767, "locktime": 542992, "vsize": 257, "size": 419}