{"hash": "ffbcc79c5e8a4f5f9057e64cfb30e608376cbbcbddbd9448f2ec8e95a530242f", "blockhash": "0000000000000000001f76057863aec43deb6fa401d9628bb513d65a8098bfab", "vout": [{"scriptPubKey": {"reqSigs": 1, "hex": "76a914d82bfb2ea0fc28f2b8933f8e36c118828d8c6f6488ac", "addresses": ["1Li1eJUjUn95kRGmpeuoPx8su7K8uZz5Gi"], "asm": "OP_DUP OP_HASH160 d82bfb2ea0fc28f2b8933f8e36c118828d8c6f64 OP_EQUALVERIFY OP_CHECKSIG", "type": "pubkeyhash"}, "value": 6.678e-05, "n": 0}, {"scriptPubKey": {"reqSigs": 1, "hex": "a9147e4150cb126e3c737ca0141fe2dd820f108c659687", "addresses": ["3DCbJvQz9ucobiRXSuj3tdy4XSE6BHEi6o"], "asm": "OP_HASH160 7e4150cb126e3c737ca0141fe2dd820f108c6596 OP_EQUAL", "type": "scripthash"}, "value": 0.0061, "n": 1}], "hex": "0100000001726efbb7d6a427888985c273303f5022a0ea759c1bdeaf1fe46836343ad2d4ae000000006b4830450221008417ae9f9a073e908971e98189b5bfffd047d1670b60dcd13e77d8024f02fc9c0220505929d56fb0375e1256ec8248cdc3ee7769559a12e493d228de55da96c6da7101210301588b601f524373bff1ed6f2c97ab51e33b95519c1a3baa5164334f3dee7065ffffffff02161a0000000000001976a914d82bfb2ea0fc28f2b8933f8e36c118828d8c6f6488acd04e09000000000017a9147e4150cb126e3c737ca0141fe2dd820f108c65968700000000", "vin": [{"sequence": 4294967295, "scriptSig": {"hex": "4830450221008417ae9f9a073e908971e98189b5bfffd047d1670b60dcd13e77d8024f02fc9c0220505929d56fb0375e1256ec8248cdc3ee7769559a12e493d228de55da96c6da7101210301588b601f524373bff1ed6f2c97ab51e33b95519c1a3baa5164334f3dee7065", "asm": "30450221008417ae9f9a073e908971e98189b5bfffd047d1670b60dcd13e77d8024f02fc9c0220505929d56fb0375e1256ec8248cdc3ee7769559a12e493d228de55da96c6da71[ALL] 0301588b601f524373bff1ed6f2c97ab51e33b95519c1a3baa5164334f3dee7065"}, "vout": 0, "txid": "aed4d23a343668e41fafde1b9c75eaa022503f3073c285898827a4d6b7fb6e72"}], "txid": "ffbcc79c5e8a4f5f9057e64cfb30e608376cbbcbddbd9448f2ec8e95a530242f", "blocktime": 1537873891, "version": 1, "confirmations": 11478, "time": 1537873891, "locktime": 0, "vsize": 224, "size": 224}