{"hash": "ffc13922671d14f70b64862c64dce5f9e0328df5bbec1ab2feb6d25a04c68521", "blockhash": "0000000000000000000e13cef7c366c0283d82e591d1acd082e914b08063cdf1", "vout": [{"scriptPubKey": {"reqSigs": 1, "hex": "76a9148cd9413642cb0b566838eadc6eec71807ad20fa288ac", "addresses": ["1Dqjryq8wUoTUErisnV5Qm7vYEmWpxR29U"], "asm": "OP_DUP OP_HASH160 8cd9413642cb0b566838eadc6eec71807ad20fa2 OP_EQUALVERIFY OP_CHECKSIG", "type": "pubkeyhash"}, "value": 0.00110824, "n": 0}, {"scriptPubKey": {"reqSigs": 1, "hex": "a9141ece97925bc06c84e31550ae15bf77a799d9919d87", "addresses": ["34VugZtQtCN7kZHDam5DXvEYML67AAhU55"], "asm": "OP_HASH160 1ece97925bc06c84e31550ae15bf77a799d9919d OP_EQUAL", "type": "scripthash"}, "value": 0.0044436, "n": 1}], "hex": "0100000001025bad3893b20533c2120f35977c0fe44ea6ef90d5271be5e70e1bf3a3f62335010000006b48304502210081f61762152aea507f1f6e01de5f30646179791bee87c38742bf611599874f61022063f5d3907ef1fab6159b0006d080ff908c352a4f05c4b5c280e3c7c06e6ec34f012103040e652055ebe7bcecc80e92f475a41e4177494d2bc2c1e83ca7a7fd18ad0972ffffffff02e8b00100000000001976a9148cd9413642cb0b566838eadc6eec71807ad20fa288acc8c706000000000017a9141ece97925bc06c84e31550ae15bf77a799d9919d8700000000", "vin": [{"sequence": 4294967295, "scriptSig": {"hex": "48304502210081f61762152aea507f1f6e01de5f30646179791bee87c38742bf611599874f61022063f5d3907ef1fab6159b0006d080ff908c352a4f05c4b5c280e3c7c06e6ec34f012103040e652055ebe7bcecc80e92f475a41e4177494d2bc2c1e83ca7a7fd18ad0972", "asm": "304502210081f61762152aea507f1f6e01de5f30646179791bee87c38742bf611599874f61022063f5d3907ef1fab6159b0006d080ff908c352a4f05c4b5c280e3c7c06e6ec34f[ALL] 03040e652055ebe7bcecc80e92f475a41e4177494d2bc2c1e83ca7a7fd18ad0972"}, "vout": 1, "txid": "3523f6a3f31b0ee7e51b27d590efa64ee40f7c97350f12c23305b29338ad5b02"}], "txid": "ffc13922671d14f70b64862c64dce5f9e0328df5bbec1ab2feb6d25a04c68521", "blocktime": 1537871767, "version": 1, "confirmations": 11495, "time": 1537871767, "locktime": 0, "vsize": 224, "size": 224}