{"hash": "dc33907477bdf9c81254c3f0ace00e54007497a0d9785216deb35e8e9b575c4a", "blockhash": "0000000000000000000e13cef7c366c0283d82e591d1acd082e914b08063cdf1", "vout": [{"scriptPubKey": {"reqSigs": 1, "hex": "a914b44337f216fcdcf0a5895a72e8c4169a68ef293e87", "addresses": ["3J8A5VuG2KUQmCweiwHBDfv67VqWTciCM2"], "asm": "OP_HASH160 b44337f216fcdcf0a5895a72e8c4169a68ef293e OP_EQUAL", "type": "scripthash"}, "value": 0.01186927, "n": 0}], "hex": "01000000000101eab116dec8f63daedd707d60f35a3170c11a5f52ee51db6a8ba6b3d416f443840100000017160014db171753561355514da4246aa0caf9a136da88ddffffffff016f1c12000000000017a914b44337f216fcdcf0a5895a72e8c4169a68ef293e870247304402206a7cb082f0ac9e77884c6cec78898cfb964f1b2941516745d0b0dd343e90274202203e427506e1a532e025b020e69382121019849c35b0f2c2e66576e4337f91a053012103c05706e919533a7d1be53831be846d576d0a9aae08c50bf4193e64cdbaa1782600000000", "vin": [{"txinwitness": ["304402206a7cb082f0ac9e77884c6cec78898cfb964f1b2941516745d0b0dd343e90274202203e427506e1a532e025b020e69382121019849c35b0f2c2e66576e4337f91a05301", "03c05706e919533a7d1be53831be846d576d0a9aae08c50bf4193e64cdbaa17826"], "sequence": 4294967295, "scriptSig": {"hex": "160014db171753561355514da4246aa0caf9a136da88dd", "asm": "0014db171753561355514da4246aa0caf9a136da88dd"}, "vout": 1, "txid": "8443f416d4b3a68b6adb51ee525f1ac170315af3607d70ddae3df6c8de16b1ea"}], "txid": "ffcc3407b1e2242cd1969de0330df531558093214afbab08df5a243b386f10aa", "blocktime": 1537871767, "version": 1, "confirmations": 11495, "time": 1537871767, "locktime": 0, "vsize": 134, "size": 215}