{"hash": "ffd3b5000970fa92e0085debc3311635869cc0852002cf0afc564e3c4d953a6d", "blockhash": "000000000000000000022b45ed06c6f4ccd3cf7fb5ba4856ebd2e58215665228", "vout": [{"scriptPubKey": {"type": "nulldata", "hex": "6a146f6d6e69000000000000001f0000000b34be2d98", "asm": "OP_RETURN 6f6d6e69000000000000001f0000000b34be2d98"}, "value": 0.0, "n": 0}, {"scriptPubKey": {"reqSigs": 1, "hex": "76a914495b516c628be595c5244d77475287b496dff86c88ac", "addresses": ["17gsitqJLFatcFT5rRdzNfatV4YM7QXek8"], "asm": "OP_DUP OP_HASH160 495b516c628be595c5244d77475287b496dff86c OP_EQUALVERIFY OP_CHECKSIG", "type": "pubkeyhash"}, "value": 5.46e-06, "n": 1}, {"scriptPubKey": {"reqSigs": 1, "hex": "76a9140ea2c16f9786cdfea33384770c72f226ae93ef3f88ac", "addresses": ["12LPS9L3BtpHJxCw7CBABQHFsKc7wFRjAR"], "asm": "OP_DUP OP_HASH160 0ea2c16f9786cdfea33384770c72f226ae93ef3f OP_EQUALVERIFY OP_CHECKSIG", "type": "pubkeyhash"}, "value": 0.36182024, "n": 2}], "hex": "01000000014a9579acadb632793acb90f34388783c6a52917af41d843cb432167c7f439c98020000006b483045022100e8055bb60b480ad7903f93fdc92a1988ce9a0f8bd36551aec403cb71477e0902022038d86da430f0c6bc86a781aedc64059c3dd342a453a815fb48ec1020a3c2096201210242604bdd2261b6188326b9f490e074dda990f5bb746eb9716e491b86b498f4c5feffffff030000000000000000166a146f6d6e69000000000000001f0000000b34be2d9822020000000000001976a914495b516c628be595c5244d77475287b496dff86c88ac08182802000000001976a9140ea2c16f9786cdfea33384770c72f226ae93ef3f88ac0b490800", "vin": [{"sequence": 4294967294, "scriptSig": {"hex": "483045022100e8055bb60b480ad7903f93fdc92a1988ce9a0f8bd36551aec403cb71477e0902022038d86da430f0c6bc86a781aedc64059c3dd342a453a815fb48ec1020a3c2096201210242604bdd2261b6188326b9f490e074dda990f5bb746eb9716e491b86b498f4c5", "asm": "3045022100e8055bb60b480ad7903f93fdc92a1988ce9a0f8bd36551aec403cb71477e0902022038d86da430f0c6bc86a781aedc64059c3dd342a453a815fb48ec1020a3c20962[ALL] 0242604bdd2261b6188326b9f490e074dda990f5bb746eb9716e491b86b498f4c5"}, "vout": 2, "txid": "989c437f7c1632b43c841df47a91526a3c788843f390cb3a7932b6adac79954a"}], "txid": "ffd3b5000970fa92e0085debc3311635869cc0852002cf0afc564e3c4d953a6d", "blocktime": 1537869901, "version": 1, "confirmations": 11522, "time": 1537869901, "locktime": 542987, "vsize": 257, "size": 257}