{"hash": "acc9c2cbce5752144decd5c185369f8ef1ab152f3f56984e1a149579cefe9606", "blockhash": "0000000000000000001f76057863aec43deb6fa401d9628bb513d65a8098bfab", "vout": [{"scriptPubKey": {"reqSigs": 1, "hex": "a91419a2716d7f9119669d132f9608bb8308ad2c2aff87", "addresses": ["342ZR5jNgJTf8Mj4vBgfqEvo5fqwHhZtja"], "asm": "OP_HASH160 19a2716d7f9119669d132f9608bb8308ad2c2aff OP_EQUAL", "type": "scripthash"}, "value": 0.80667242, "n": 0}, {"scriptPubKey": {"reqSigs": 1, "hex": "76a9145d685f0b096d3f9141a098e7430775441c4abff288ac", "addresses": ["19WtsgbTboQTu8QFLrFkNHjdoBzdU31t78"], "asm": "OP_DUP OP_HASH160 5d685f0b096d3f9141a098e7430775441c4abff2 OP_EQUALVERIFY OP_CHECKSIG", "type": "pubkeyhash"}, "value": 0.56054621, "n": 1}, {"scriptPubKey": {"reqSigs": 1, "hex": "a91411b9d2781ed312204f6fa9de2dab2d8870b4c6fe87", "addresses": ["33Jk1xH7B6cbMHNkuoJWn64G7paurGeEHf"], "asm": "OP_HASH160 11b9d2781ed312204f6fa9de2dab2d8870b4c6fe OP_EQUAL", "type": "scripthash"}, "value": 0.48911277, "n": 2}], "hex": "02000000000105d51b22a33efa95f12928cbf4c4bc9b967b43fb887834ce2e49ce0c8aa0cce8b400000000171600144abb4d8f46be6374094f25e982a64e7bb44e3995ffffffffcbc22faa94b7f8ee105f9e05d7f9d6cececc77b2fee127a7226ec211988308f70100000017160014008f38dbffe9a16e958d49e1485324335911a218ffffffffd9557dc4c30e1771709fa3f52fdd118b846dfbc591d59a20a47c4194c18d15b20100000017160014da1a2354c5765cd56cd1fe6dd060a7417c1c4aa4ffffffffc8533fabd9951ced6072cf0fffcf05e89ce4e70cbd50b7c09894dafd8f99e1da0000000017160014975443035578ebe75f220e59f333b6bd9a55391affffffffd00a9ff27440b051c8508f4f62eeac688d17275f11afe2a99fc661e64659df98000000001716001402d9c13afadc5073ba95257d40d39cbeb7d60ca2ffffffff036ae2ce040000000017a91419a2716d7f9119669d132f9608bb8308ad2c2aff875d535703000000001976a9145d685f0b096d3f9141a098e7430775441c4abff288acad53ea020000000017a91411b9d2781ed312204f6fa9de2dab2d8870b4c6fe870247304402205c513bebd667836b852b1bbde3e2ba78f04e8c01397473b5e4e33f3210da8e34022044387b0c0bc58eceda1dd2e774ed05784d16fdd6ec933d5df76c01a543fa65e201210288dc15a62209e0c8b7962bb12ecb639808debd7f8410735a387ba9b3de5498a20248304502210082cdfb51e253b4d6b20db52f9b831d879fb74a9a686edfef2e7913389dc789be02200c9499df406e0a47d4b9d9e140a249e61167dedbc829a5008b89924c39083c2701210286d41030178866f1dfd826eea70b2e022d297e72f77777b79eb50a8231c617670247304402202422a825ce1190efc2a55395297b979f71ac49108a2868d069df5a9e66a0f8e60220131f91b6189e74d6596a250a9ae9ae9edf4c0d8efa12b87dcdb8c74d8e1ade0a01210289c82a9f69f4e160d01321ddfff1404b63d63daffcb85546e7c3a8d16191380602483045022100d9e6b34cd3672debdad61d85bbd74b4e83f6143ea38fa513f45b085b7a5d3ce5022059265175a90dae93266ce47c12f2184e6c216407d5d2a8fd45bfa67d1d59f43c012103d4898a7c05718590483761809ea6097c0c8251e0268b1821d27d962cb5aee4d402473044022065c1f378e2435958a231a7ea80a259d1e535c7e26efca2e30245aa53df2b663902204b436125b6df49d5402a862929892c2d666ff561a72110d87b55cfd2c113e498012102b85c7dfd9e398fad799538102df3242f03d1b2d0b12a6c3f43151c186cecc5fb00000000", "vin": [{"txinwitness": ["304402205c513bebd667836b852b1bbde3e2ba78f04e8c01397473b5e4e33f3210da8e34022044387b0c0bc58eceda1dd2e774ed05784d16fdd6ec933d5df76c01a543fa65e201", "0288dc15a62209e0c8b7962bb12ecb639808debd7f8410735a387ba9b3de5498a2"], "sequence": 4294967295, "scriptSig": {"hex": "1600144abb4d8f46be6374094f25e982a64e7bb44e3995", "asm": "00144abb4d8f46be6374094f25e982a64e7bb44e3995"}, "vout": 0, "txid": "b4e8cca08a0cce492ece347888fb437b969bbcc4f4cb2829f195fa3ea3221bd5"}, {"txinwitness": ["304502210082cdfb51e253b4d6b20db52f9b831d879fb74a9a686edfef2e7913389dc789be02200c9499df406e0a47d4b9d9e140a249e61167dedbc829a5008b89924c39083c2701", "0286d41030178866f1dfd826eea70b2e022d297e72f77777b79eb50a8231c61767"], "sequence": 4294967295, "scriptSig": {"hex": "160014008f38dbffe9a16e958d49e1485324335911a218", "asm": "0014008f38dbffe9a16e958d49e1485324335911a218"}, "vout": 1, "txid": "f708839811c26e22a727e1feb277ccceced6f9d7059e5f10eef8b794aa2fc2cb"}, {"txinwitness": ["304402202422a825ce1190efc2a55395297b979f71ac49108a2868d069df5a9e66a0f8e60220131f91b6189e74d6596a250a9ae9ae9edf4c0d8efa12b87dcdb8c74d8e1ade0a01", "0289c82a9f69f4e160d01321ddfff1404b63d63daffcb85546e7c3a8d161913806"], "sequence": 4294967295, "scriptSig": {"hex": "160014da1a2354c5765cd56cd1fe6dd060a7417c1c4aa4", "asm": "0014da1a2354c5765cd56cd1fe6dd060a7417c1c4aa4"}, "vout": 1, "txid": "b2158dc194417ca4209ad591c5fb6d848b11dd2ff5a39f7071170ec3c47d55d9"}, {"txinwitness": ["3045022100d9e6b34cd3672debdad61d85bbd74b4e83f6143ea38fa513f45b085b7a5d3ce5022059265175a90dae93266ce47c12f2184e6c216407d5d2a8fd45bfa67d1d59f43c01", "03d4898a7c05718590483761809ea6097c0c8251e0268b1821d27d962cb5aee4d4"], "sequence": 4294967295, "scriptSig": {"hex": "160014975443035578ebe75f220e59f333b6bd9a55391a", "asm": "0014975443035578ebe75f220e59f333b6bd9a55391a"}, "vout": 0, "txid": "dae1998ffdda9498c0b750bd0ce7e49ce805cfff0fcf7260ed1c95d9ab3f53c8"}, {"txinwitness": ["3044022065c1f378e2435958a231a7ea80a259d1e535c7e26efca2e30245aa53df2b663902204b436125b6df49d5402a862929892c2d666ff561a72110d87b55cfd2c113e49801", "02b85c7dfd9e398fad799538102df3242f03d1b2d0b12a6c3f43151c186cecc5fb"], "sequence": 4294967295, "scriptSig": {"hex": "16001402d9c13afadc5073ba95257d40d39cbeb7d60ca2", "asm": "001402d9c13afadc5073ba95257d40d39cbeb7d60ca2"}, "vout": 0, "txid": "98df5946e661c69fa9e2af115f27178d68acee624f8f50c851b04074f29f0ad0"}], "txid": "ffdf0f90be13ba325a019806b1685633e9acad05daf045d7693c7cc9042a4f70", "blocktime": 1537873891, "version": 2, "confirmations": 11474, "time": 1537873891, "locktime": 0, "vsize": 563, "size": 967}