{"hash": "f866387eeb9e99ba905806ae95e0051bd43189cf5c2aebdbdfd6291c249e9cb7", "blockhash": "000000000000000000022b45ed06c6f4ccd3cf7fb5ba4856ebd2e58215665228", "vout": [{"scriptPubKey": {"reqSigs": 1, "hex": "76a914e2e935237afbbfe00bd99aaa81246024105058c788ac", "addresses": ["1Mgo5uCE8xnPyzaSukNvFp2KYQNQKmaVky"], "asm": "OP_DUP OP_HASH160 e2e935237afbbfe00bd99aaa81246024105058c7 OP_EQUALVERIFY OP_CHECKSIG", "type": "pubkeyhash"}, "value": 0.0211906, "n": 0}, {"scriptPubKey": {"reqSigs": 1, "hex": "a9144ab4da9dbe2e618fbddae23ff072da8e28e6553987", "addresses": ["38W2ahAWftL9keGmHpfspKMT7zAguS6C4X"], "asm": "OP_HASH160 4ab4da9dbe2e618fbddae23ff072da8e28e65539 OP_EQUAL", "type": "scripthash"}, "value": 0.01143816, "n": 1}], "hex": "020000000001046605ad3d091dfa16f0fe30b366e643ec5ee9422d9f0d6d64961c67be249b6c8e00000000171600142cfdf95a9429851e2ab2d72a32230238e56fd1f9feffffffcd184bf04c3e19a97f2a763fba320574680731fd61d6faa51039aff057de7a3001000000171600145f7712b8ba59efec7d07a35f0cd86089668b66ebfeffffffd7d1e363baccc110a8eb666df37e59166b607c46d4e164639fef7c04aac8c8da00000000171600148c017819cb688725f588d1eeabde103b8456574cfefffffff9eda444024818d120713fe351d7bd3f73422c36216e775b39591f1bf4c544f80b000000171600144343d48ed520b332d5351ccc26633b8716836bd3feffffff0294552000000000001976a914e2e935237afbbfe00bd99aaa81246024105058c788ac087411000000000017a9144ab4da9dbe2e618fbddae23ff072da8e28e655398702473044022048ac321147144cdcf5a27b58cca45c2edb67a2b1d8b2fc44e172570e681dc1280220645b85e3326b3dfc630acf094e1bd594df4b45ce5f643c299a3a77926dab65cd012103ae198ddb392af2c614bb63112c657f58524bd0f24faf9742bef5ecd12099ea2d0247304402207aac21958655d2439507939eaf620b7713f7bd30fae6cd6765ebaef2194a7525022020e026a8e7fe1dad24e535663511e429f55a60e1b4917e712cf6d76b813b8fac0121030d81859ef883ae71fd176311a15f9b456f5ee467cd55fc1e7b3ae47cf885734402473044022001bf876fd78de75ba5ab39faacc0c67c626d3cab14f5a028d70cbff759a5e27e022041b0753bdd0bcb867708353ee20f2e2f166bf2e313f2b5e07273d48619fc67ad0121021cfb71bfc38c742ee1ca4707e23fd6016dcd17f123281026b79cb7f0361d339e02483045022100c766bb15dd72e00893e52bc75aed86a0b2a38e597d39d06a319d6c59a606fa5402200ab5c1ac8194772ae1e79bc1433ac50de32b711eb4c861046cc7dcfd75b7c43801210314f5548de73c96ab49f359840355b1220aa8c2f7713bdec6f3c022fe610891fafc480800", "vin": [{"txinwitness": ["3044022048ac321147144cdcf5a27b58cca45c2edb67a2b1d8b2fc44e172570e681dc1280220645b85e3326b3dfc630acf094e1bd594df4b45ce5f643c299a3a77926dab65cd01", "03ae198ddb392af2c614bb63112c657f58524bd0f24faf9742bef5ecd12099ea2d"], "sequence": 4294967294, "scriptSig": {"hex": "1600142cfdf95a9429851e2ab2d72a32230238e56fd1f9", "asm": "00142cfdf95a9429851e2ab2d72a32230238e56fd1f9"}, "vout": 0, "txid": "8e6c9b24be671c96646d0d9f2d42e95eec43e666b330fef016fa1d093dad0566"}, {"txinwitness": ["304402207aac21958655d2439507939eaf620b7713f7bd30fae6cd6765ebaef2194a7525022020e026a8e7fe1dad24e535663511e429f55a60e1b4917e712cf6d76b813b8fac01", "030d81859ef883ae71fd176311a15f9b456f5ee467cd55fc1e7b3ae47cf8857344"], "sequence": 4294967294, "scriptSig": {"hex": "1600145f7712b8ba59efec7d07a35f0cd86089668b66eb", "asm": "00145f7712b8ba59efec7d07a35f0cd86089668b66eb"}, "vout": 1, "txid": "307ade57f0af3910a5fad661fd310768740532ba3f762a7fa9193e4cf04b18cd"}, {"txinwitness": ["3044022001bf876fd78de75ba5ab39faacc0c67c626d3cab14f5a028d70cbff759a5e27e022041b0753bdd0bcb867708353ee20f2e2f166bf2e313f2b5e07273d48619fc67ad01", "021cfb71bfc38c742ee1ca4707e23fd6016dcd17f123281026b79cb7f0361d339e"], "sequence": 4294967294, "scriptSig": {"hex": "1600148c017819cb688725f588d1eeabde103b8456574c", "asm": "00148c017819cb688725f588d1eeabde103b8456574c"}, "vout": 0, "txid": "dac8c8aa047cef9f6364e1d4467c606b16597ef36d66eba810c1ccba63e3d1d7"}, {"txinwitness": ["3045022100c766bb15dd72e00893e52bc75aed86a0b2a38e597d39d06a319d6c59a606fa5402200ab5c1ac8194772ae1e79bc1433ac50de32b711eb4c861046cc7dcfd75b7c43801", "0314f5548de73c96ab49f359840355b1220aa8c2f7713bdec6f3c022fe610891fa"], "sequence": 4294967294, "scriptSig": {"hex": "1600144343d48ed520b332d5351ccc26633b8716836bd3", "asm": "00144343d48ed520b332d5351ccc26633b8716836bd3"}, "vout": 11, "txid": "f844c5f41b1f59395b776e21362c42733fbdd751e33f7120d118480244a4edf9"}], "txid": "ffe14cf46474b98b73813a5ce87435225ff03aa8ed7522c6b5e7e6974270412c", "blocktime": 1537869901, "version": 2, "confirmations": 11524, "time": 1537869901, "locktime": 542972, "vsize": 440, "size": 763}