{"hash": "f185c7b715c63d107683b7d6a8e143916570a469d536e2f82a58143f2f408660", "blockhash": "0000000000000000000baef3f32e3676a92c3b2e5da21b426e4f302fc371ce76", "vout": [{"scriptPubKey": {"reqSigs": 1, "hex": "a914f6c1f7e1d06fa4851968e973c4af624d2984ee4387", "addresses": ["3QBkWtQJjWvszx3xDEhr5fbkGS9iVqWzGx"], "asm": "OP_HASH160 f6c1f7e1d06fa4851968e973c4af624d2984ee43 OP_EQUAL", "type": "scripthash"}, "value": 1.6e-05, "n": 0}, {"scriptPubKey": {"reqSigs": 1, "hex": "a9141d7370ccde4590204155e4074f69743a8e4fac0287", "addresses": ["34Njp4ZKtmCDfqqps26wHBYQQGUo2pGkLi"], "asm": "OP_HASH160 1d7370ccde4590204155e4074f69743a8e4fac02 OP_EQUAL", "type": "scripthash"}, "value": 0.00042445, "n": 1}], "hex": "01000000000101c6f6a5cf034ad8fb1a419a0bc17c66513f57e2cb70bdf6872d759af2a81477630100000023220020f63dfc12340f6360d0251c22746d6b56093e3243e96ca012a65484a5d9cf0ec0ffffffff02400600000000000017a914f6c1f7e1d06fa4851968e973c4af624d2984ee4387cda500000000000017a9141d7370ccde4590204155e4074f69743a8e4fac02870400483045022100cf2e504d9b11c89a20af3a349fa969562235c23d9c94eb9aa083fc6df6c1a7cf02205f7238bfc58ab169e5e038db7275f579f285f7422cf050e764f996864ee38fc101473044022015cc771a97078626b1c9c6fd55b9b7c263ac90a34f2b2db25cfe44b9aaeaf57402203177ab931a29818a5721d69ef6d5eac0265b1cff1005086df2b8462cd4a977b30147522102097067a6a0cc130a9a6f6577b47bf369b840a79de31cd7457187994266b1bb7c2103338f346cab6ba87fe940591a03ac234be06520c5ab386d4b6632e8eef0d0db7652ae00000000", "vin": [{"txinwitness": ["", "3045022100cf2e504d9b11c89a20af3a349fa969562235c23d9c94eb9aa083fc6df6c1a7cf02205f7238bfc58ab169e5e038db7275f579f285f7422cf050e764f996864ee38fc101", "3044022015cc771a97078626b1c9c6fd55b9b7c263ac90a34f2b2db25cfe44b9aaeaf57402203177ab931a29818a5721d69ef6d5eac0265b1cff1005086df2b8462cd4a977b301", "522102097067a6a0cc130a9a6f6577b47bf369b840a79de31cd7457187994266b1bb7c2103338f346cab6ba87fe940591a03ac234be06520c5ab386d4b6632e8eef0d0db7652ae"], "sequence": 4294967295, "scriptSig": {"hex": "220020f63dfc12340f6360d0251c22746d6b56093e3243e96ca012a65484a5d9cf0ec0", "asm": "0020f63dfc12340f6360d0251c22746d6b56093e3243e96ca012a65484a5d9cf0ec0"}, "vout": 1, "txid": "637714a8f29a752d87f6bd70cbe2573f51667cc10b9a411afbd84a03cfa5f6c6"}], "txid": "ffe23608d3fc786f1f0a114fa06b3d6c2a8afebb8c88854770af079a73ef37cb", "blocktime": 1537876114, "version": 1, "confirmations": 11460, "time": 1537876114, "locktime": 0, "vsize": 206, "size": 371}