{"hash": "d76b49a2096ceeeed6b86b5e7837df03c4426605dc58ade91eaa757af548e7da", "blockhash": "0000000000000000001e0dab787dd257d1dbfcb92a98c2207d5e1078be1f4165", "vout": [{"scriptPubKey": {"reqSigs": 1, "hex": "a914a72457b3976eea61415b1a77e773e2ccd5fa5ab287", "addresses": ["3GvnJhvjfUoAcQ3KuqRUKibHwEAKfcCoYg"], "asm": "OP_HASH160 a72457b3976eea61415b1a77e773e2ccd5fa5ab2 OP_EQUAL", "type": "scripthash"}, "value": 0.01, "n": 0}, {"scriptPubKey": {"reqSigs": 1, "hex": "a914523f7171ae4553a4d4ea14893512f7993a92784887", "addresses": ["39BuLP2SgQXsxaWZqX1JiP4efRBnujoBo1"], "asm": "OP_HASH160 523f7171ae4553a4d4ea14893512f7993a927848 OP_EQUAL", "type": "scripthash"}, "value": 5.59263646, "n": 1}], "hex": "0200000000010105bfb59b932f402243e438d50abddd716a89918dfe5cb8bd7db69119bc173cd1000000001716001469a70415984104d6351db5b45f3ff709122c5c7afeffffff0240420f000000000017a914a72457b3976eea61415b1a77e773e2ccd5fa5ab2879eaf55210000000017a914523f7171ae4553a4d4ea14893512f7993a92784887024730440220668217e007c90e11f92c598353bb41f54bc7266c50b590f7f28d2134d7c90b5e022074b448d5123ab1a152765b2b6491db1f207ad7d23c2f28ccdef881aea5d8c5290121023481cc081e972ed9f62b00889063d4aee7a2ede63c40751525d6c1d51ebaafcc12490800", "vin": [{"txinwitness": ["30440220668217e007c90e11f92c598353bb41f54bc7266c50b590f7f28d2134d7c90b5e022074b448d5123ab1a152765b2b6491db1f207ad7d23c2f28ccdef881aea5d8c52901", "023481cc081e972ed9f62b00889063d4aee7a2ede63c40751525d6c1d51ebaafcc"], "sequence": 4294967294, "scriptSig": {"hex": "16001469a70415984104d6351db5b45f3ff709122c5c7a", "asm": "001469a70415984104d6351db5b45f3ff709122c5c7a"}, "vout": 0, "txid": "d13c17bc1991b67dbdb85cfe8d91896a71ddbd0ad538e44322402f939bb5bf05"}], "txid": "fff13b73a195bda9801a3f8a1fa78c84e36c51fa6f083d63a7b0bf8ad4936686", "blocktime": 1537872475, "version": 2, "confirmations": 11487, "time": 1537872475, "locktime": 542994, "vsize": 166, "size": 247}