{"hash": "3fbbdffb97354aefcae60f0a5d01527e0009054e2b71f022c37bcc5f53eeacec", "blockhash": "00000000000000000017f5eb5941039fbcee6240d03bc1f2f8e35350df66a1d8", "vout": [{"scriptPubKey": {"reqSigs": 1, "hex": "0014da8e5deba6e2a96a97eac44c4a44ca122455eba4", "addresses": ["bc1qm289m6axu25k49l2c3xy53x2zgj9t6aykyjm72"], "asm": "0 da8e5deba6e2a96a97eac44c4a44ca122455eba4", "type": "witness_v0_keyhash"}, "value": 9.99e-06, "n": 0}, {"scriptPubKey": {"reqSigs": 1, "hex": "76a9144330629bc646e6e0e2ce6b8fafeffca4c377f13388ac", "addresses": ["178GEiShmmWRdsRH4CP3jSj1YT3sPVj5qi"], "asm": "OP_DUP OP_HASH160 4330629bc646e6e0e2ce6b8fafeffca4c377f133 OP_EQUALVERIFY OP_CHECKSIG", "type": "pubkeyhash"}, "value": 0.0006, "n": 1}], "hex": "010000000001010104d444030771e96638f8a8bb7cf65feefbc903c9c37720f253d95268933f900000000000ffffffff02e703000000000000160014da8e5deba6e2a96a97eac44c4a44ca122455eba460ea0000000000001976a9144330629bc646e6e0e2ce6b8fafeffca4c377f13388ac02473044022052ca045126b1cf69e9b06b291f24f365f5a4b22e7aee39dc8ab44009bd1fa42302202ae3c16c0cc0cc0a8a3d2036d32a4f3716e580a9e0f341d53ce0522ddf2600c6012102f99babab2551aac6aad519a299da0f0efa0ac90db8f3798f5e1772cfcbe950c300000000", "vin": [{"txinwitness": ["3044022052ca045126b1cf69e9b06b291f24f365f5a4b22e7aee39dc8ab44009bd1fa42302202ae3c16c0cc0cc0a8a3d2036d32a4f3716e580a9e0f341d53ce0522ddf2600c601", "02f99babab2551aac6aad519a299da0f0efa0ac90db8f3798f5e1772cfcbe950c3"], "sequence": 4294967295, "scriptSig": {"hex": "", "asm": ""}, "vout": 0, "txid": "903f936852d953f22077c3c903c9fbee5ff67cbba8f83866e971070344d40401"}], "txid": "fff1cbe7b3538a5f97709cebe48f353aa891f89b7f580cec2f3e9b8b891f744b", "blocktime": 1537874412, "version": 1, "confirmations": 11467, "time": 1537874412, "locktime": 0, "vsize": 144, "size": 225}