{"hash": "302bf5e742502fd392d1400f01854fdd102c2d966f7ac337a41fc7dbcda8c01c", "blockhash": "00000000000000000004ffacab907a6b429b9a5745fa0b75af4234bf69dd7176", "vout": [{"scriptPubKey": {"reqSigs": 1, "hex": "a91418179fdbad9431dd8c5bc686a28a1a4ab819dcbf87", "addresses": ["33tQSbvaxmeyd73Dnodz7L6Ub69wPA4kYF"], "asm": "OP_HASH160 18179fdbad9431dd8c5bc686a28a1a4ab819dcbf OP_EQUAL", "type": "scripthash"}, "value": 0.00998659, "n": 0}, {"scriptPubKey": {"reqSigs": 1, "hex": "a9144014aa0b8977570b30a16e5466dbaac33109758e87", "addresses": ["37Xqvbbno73VZP5ffvGf3b6ZQ274ZwuiWo"], "asm": "OP_HASH160 4014aa0b8977570b30a16e5466dbaac33109758e OP_EQUAL", "type": "scripthash"}, "value": 0.025515, "n": 1}], "hex": "0200000000010121a972d167bee2aa0c0cd1087811103fcc9255392b5a31e08b9a5310166cdd2701000000171600142c83d0237be05574f93d9f6b448d6e38ae4b6716feffffff02033d0f000000000017a91418179fdbad9431dd8c5bc686a28a1a4ab819dcbf87ccee26000000000017a9144014aa0b8977570b30a16e5466dbaac33109758e870248304502210084e327e5121e4541ef9bf16383b2b567e59eee7f5e94bbdc4e9d1cc19597dd9d0220288c26714f1b45cf4daae7c551b823256743482c64d0b847b319e2a6ad4ce78f01210227a5be6818b40b28f7f52326eaa212e4fc3dcfe759c9319a6174d374e7c4483416490800", "vin": [{"txinwitness": ["304502210084e327e5121e4541ef9bf16383b2b567e59eee7f5e94bbdc4e9d1cc19597dd9d0220288c26714f1b45cf4daae7c551b823256743482c64d0b847b319e2a6ad4ce78f01", "0227a5be6818b40b28f7f52326eaa212e4fc3dcfe759c9319a6174d374e7c44834"], "sequence": 4294967294, "scriptSig": {"hex": "1600142c83d0237be05574f93d9f6b448d6e38ae4b6716", "asm": "00142c83d0237be05574f93d9f6b448d6e38ae4b6716"}, "vout": 1, "txid": "27dd6c1610539a8be0315a2b395592cc3f10117808d10c0caae2be67d172a921"}], "txid": "fff34fecfdad051791ee8fed9abf1fd825b2e5eb909227566108ba6e08c9c962", "blocktime": 1537875543, "version": 2, "confirmations": 11464, "time": 1537875543, "locktime": 542998, "vsize": 166, "size": 248}