{"hash": "dac5e8e2d9d5bb5bc2194f5d39ff9d0e27f35d65a1a5e6b7634f1eea6ed37d25", "blockhash": "00000000000000000004ffacab907a6b429b9a5745fa0b75af4234bf69dd7176", "vout": [{"scriptPubKey": {"reqSigs": 1, "hex": "76a91485db7cab769f93a69785c13cc1e0df51be1f9d8b88ac", "addresses": ["1DCmojk8DoVM3CmvYCzyJbGfcHzZstF2vU"], "asm": "OP_DUP OP_HASH160 85db7cab769f93a69785c13cc1e0df51be1f9d8b OP_EQUALVERIFY OP_CHECKSIG", "type": "pubkeyhash"}, "value": 2.604e-05, "n": 0}, {"scriptPubKey": {"reqSigs": 1, "hex": "a9148ddb66c3371910a0ef8f38021cc4094e61e69f3a87", "addresses": ["3Ed62sPENkraPwpovPty9YMFGJ8FtTyv63"], "asm": "OP_HASH160 8ddb66c3371910a0ef8f38021cc4094e61e69f3a OP_EQUAL", "type": "scripthash"}, "value": 0.00035671, "n": 1}], "hex": "010000000001018671ce4fae6b748ba8f66aa4a94de0a06c11c39def3b7b90e7548d37dde3574b0100000023220020fdd23d707f55451c4e006c77b5e8df35a185a8e99f9bda70bf0ded7913bb1eb3ffffffff022c0a0000000000001976a91485db7cab769f93a69785c13cc1e0df51be1f9d8b88ac578b00000000000017a9148ddb66c3371910a0ef8f38021cc4094e61e69f3a870400483045022100da7e05fcfc2bf215bbc2e44e256ad832bad87d1ed78bf5cd7f98dcb9fb2097a102205e16c33e241f65b301ca3f5685c219309423e3f3285a5fa98d3b4b8819b6915901483045022100cb164ad22b4452d803ef9f9ef2f571b1155ff0338e2d8f8f0a40325971164cd502200be0b481fbfce91bcab14f23ff9af9c5bbfd3cf7bc2eb5eebfb10929d8bfcdb6014752210286c104577b978160849865bc23f9a6df9b53d41c8ffb486754b97b2a474a181c2103148c80a5bdfddb05ff5bcffc397c8ca748d8b435ec6a175bc9d7bfc7fc6f853752ae00000000", "vin": [{"txinwitness": ["", "3045022100da7e05fcfc2bf215bbc2e44e256ad832bad87d1ed78bf5cd7f98dcb9fb2097a102205e16c33e241f65b301ca3f5685c219309423e3f3285a5fa98d3b4b8819b6915901", "3045022100cb164ad22b4452d803ef9f9ef2f571b1155ff0338e2d8f8f0a40325971164cd502200be0b481fbfce91bcab14f23ff9af9c5bbfd3cf7bc2eb5eebfb10929d8bfcdb601", "52210286c104577b978160849865bc23f9a6df9b53d41c8ffb486754b97b2a474a181c2103148c80a5bdfddb05ff5bcffc397c8ca748d8b435ec6a175bc9d7bfc7fc6f853752ae"], "sequence": 4294967295, "scriptSig": {"hex": "220020fdd23d707f55451c4e006c77b5e8df35a185a8e99f9bda70bf0ded7913bb1eb3", "asm": "0020fdd23d707f55451c4e006c77b5e8df35a185a8e99f9bda70bf0ded7913bb1eb3"}, "vout": 1, "txid": "4b57e3dd378d54e7907b3bef9dc3116ca0e04da9a46af6a88b746bae4fce7186"}], "txid": "fff42b3f9f254fd2c3cbf8b97060926ad311453cca562815d4aea647bb3bab1f", "blocktime": 1537875543, "version": 1, "confirmations": 11464, "time": 1537875543, "locktime": 0, "vsize": 208, "size": 374}