{"hash": "c205ae125143e61797f3a72e5a18db740f15b514282cd655583f77cee069a33f", "blockhash": "0000000000000000001f76057863aec43deb6fa401d9628bb513d65a8098bfab", "vout": [{"scriptPubKey": {"reqSigs": 1, "hex": "a9145fc33906ed9836327da3f60242dd76704999aa4b87", "addresses": ["3ARMz5mGucAPZG9Vcc2K8EQ5a198iJiX7G"], "asm": "OP_HASH160 5fc33906ed9836327da3f60242dd76704999aa4b OP_EQUAL", "type": "scripthash"}, "value": 0.1854309, "n": 0}, {"scriptPubKey": {"reqSigs": 1, "hex": "a91415fdf305b286f347e887f99f266dc36396f53c1d87", "addresses": ["33hJLH9mLbo8K7dz9ZRrYp1R6EyQioEjZc"], "asm": "OP_HASH160 15fdf305b286f347e887f99f266dc36396f53c1d OP_EQUAL", "type": "scripthash"}, "value": 0.01823378, "n": 1}], "hex": "02000000000101d7fbc39903ebd4789b3e2088c385c48943d00891260014c0c623fe62e41a785200000000171600142fdbdc0c18c58099bf5e63b2718f57570d60e56bfdffffff02f2f11a010000000017a9145fc33906ed9836327da3f60242dd76704999aa4b8792d21b000000000017a91415fdf305b286f347e887f99f266dc36396f53c1d8702483045022100ee82b4c49671826d659d9307f610f5f6f60e7bdb69d5ad9f0436cc460c20e5820220359f93948415d3427ce4e7b41ab05edf38d692fb866a9ce8ff6b9428b2ce9623012103f130e2e5c287dd4ed8a49afc1b1b07d3ddacf3e73e29a71fc5caedd3a5732babde480800", "vin": [{"txinwitness": ["3045022100ee82b4c49671826d659d9307f610f5f6f60e7bdb69d5ad9f0436cc460c20e5820220359f93948415d3427ce4e7b41ab05edf38d692fb866a9ce8ff6b9428b2ce962301", "03f130e2e5c287dd4ed8a49afc1b1b07d3ddacf3e73e29a71fc5caedd3a5732bab"], "sequence": 4294967293, "scriptSig": {"hex": "1600142fdbdc0c18c58099bf5e63b2718f57570d60e56b", "asm": "00142fdbdc0c18c58099bf5e63b2718f57570d60e56b"}, "vout": 0, "txid": "52781ae462fe23c6c01400269108d04389c485c388203e9b78d4eb0399c3fbd7"}], "txid": "fff7b52df3a97bc1f061fdeacaf8e5d3fc2fcdc09c05837d70c8229e30775987", "blocktime": 1537873891, "version": 2, "confirmations": 11477, "time": 1537873891, "locktime": 542942, "vsize": 166, "size": 248}