{"hash": "6e4d7a0f2cb3754a073fe909ade11d5096263e7f2f7610df3931de94d683e405", "blockhash": "0000000000000000000e13cef7c366c0283d82e591d1acd082e914b08063cdf1", "vout": [{"scriptPubKey": {"reqSigs": 1, "hex": "a914b52f400b4d9db0f4f7b03a1ec5576311e9b65da887", "addresses": ["3JD2qGJMufhFQbRqFF9yLoJ6v1wumGcNgm"], "asm": "OP_HASH160 b52f400b4d9db0f4f7b03a1ec5576311e9b65da8 OP_EQUAL", "type": "scripthash"}, "value": 0.01280642, "n": 0}, {"scriptPubKey": {"reqSigs": 1, "hex": "76a914a8d14ccf350599411331bfc3c7a17d02dc078df988ac", "addresses": ["1GPdFeeGJHdEZWYKu2yStedN2EGhNbmSXs"], "asm": "OP_DUP OP_HASH160 a8d14ccf350599411331bfc3c7a17d02dc078df9 OP_EQUALVERIFY OP_CHECKSIG", "type": "pubkeyhash"}, "value": 0.00325045, "n": 1}], "hex": "0200000000010135ec04f09a2129540fbac372e95f6d3ba17be52f9dbcecff28e550a1902a26ed01000000171600145992e816c46f8a5bf4ac8d5a9e3fdd64c303b6fffeffffff02828a13000000000017a914b52f400b4d9db0f4f7b03a1ec5576311e9b65da887b5f50400000000001976a914a8d14ccf350599411331bfc3c7a17d02dc078df988ac02483045022100ecf1500e92236e5034b1f762eff651d5add520071aef1b9be82215f51d288b5a02203dd5b8b575339f97658ab13c93ec1552e4d2514d6e98774103a04a3fb0e6d4090121034ab3e162a7716accd9295b10581d3c0b5e385a8b5aa7c7f76e4a083adec35baa10490800", "vin": [{"txinwitness": ["3045022100ecf1500e92236e5034b1f762eff651d5add520071aef1b9be82215f51d288b5a02203dd5b8b575339f97658ab13c93ec1552e4d2514d6e98774103a04a3fb0e6d40901", "034ab3e162a7716accd9295b10581d3c0b5e385a8b5aa7c7f76e4a083adec35baa"], "sequence": 4294967294, "scriptSig": {"hex": "1600145992e816c46f8a5bf4ac8d5a9e3fdd64c303b6ff", "asm": "00145992e816c46f8a5bf4ac8d5a9e3fdd64c303b6ff"}, "vout": 1, "txid": "ed262a90a150e528ffecbc9d2fe57ba13b6d5fe972c3ba0f5429219af004ec35"}], "txid": "fff8b3eda86e9453d2ffc52545fa21075eb34faf265dda24e33e3e92aef66379", "blocktime": 1537871767, "version": 2, "confirmations": 11495, "time": 1537871767, "locktime": 542992, "vsize": 168, "size": 250}