{"hash": "03b4e8e96f264f2bc90ec0eaf866f2fb6ba3e87dbcc6f3d67e0159e0b836558c", "blockhash": "000000000000000000022b45ed06c6f4ccd3cf7fb5ba4856ebd2e58215665228", "vout": [{"scriptPubKey": {"reqSigs": 1, "hex": "76a9143b143a405ddea3c3e9fce9c04c58327d293a135c88ac", "addresses": ["16PP6keCPVv4m6yMA5f2BtThn4tb1BnkJV"], "asm": "OP_DUP OP_HASH160 3b143a405ddea3c3e9fce9c04c58327d293a135c OP_EQUALVERIFY OP_CHECKSIG", "type": "pubkeyhash"}, "value": 0.083524, "n": 0}, {"scriptPubKey": {"reqSigs": 1, "hex": "0020701a8d401c84fb13e6baf169d59684e17abd9fa216c8cc5b9fc63d622ff8c58d", "addresses": ["bc1qwqdg6squsna38e46795at95yu9atm8azzmyvckulcc7kytlcckxswvvzej"], "asm": "0 701a8d401c84fb13e6baf169d59684e17abd9fa216c8cc5b9fc63d622ff8c58d", "type": "witness_v0_scripthash"}, "value": 0.08045867, "n": 1}], "hex": "010000000001010fa633aed40458cd3fdcac59d855c287a142d8360fa938b9bb93ec92559636080300000000ffffffff0290727f00000000001976a9143b143a405ddea3c3e9fce9c04c58327d293a135c88ac2bc57a0000000000220020701a8d401c84fb13e6baf169d59684e17abd9fa216c8cc5b9fc63d622ff8c58d0400483045022100b318bb359df2a69172a6922271897387d4712302dd4942c852d015644470ec6e02204c9f70b20a7fb22a541eb31c0e08fb1a6b9c7787474cb096411528d2696d58d1014830450221009460a8de1a9e1ca5044f9e122788c8fb2601e5fabbb9160538f3f81127f608cd02204ff245a1a321cd21b33e2d4831108b98315cf7baab4c9082a19107a6ca8fc29f016952210375e00eb72e29da82b89367947f29ef34afb75e8654f6ea368e0acdfd92976b7c2103a1b26313f430c4b15bb1fdce663207659d8cac749a0e53d70eff01874496feff2103c96d495bfdd5ba4145e3e046fee45e84a8a48ad05bd8dbb395c011a32cf9f88053ae00000000", "vin": [{"txinwitness": ["", "3045022100b318bb359df2a69172a6922271897387d4712302dd4942c852d015644470ec6e02204c9f70b20a7fb22a541eb31c0e08fb1a6b9c7787474cb096411528d2696d58d101", "30450221009460a8de1a9e1ca5044f9e122788c8fb2601e5fabbb9160538f3f81127f608cd02204ff245a1a321cd21b33e2d4831108b98315cf7baab4c9082a19107a6ca8fc29f01", "52210375e00eb72e29da82b89367947f29ef34afb75e8654f6ea368e0acdfd92976b7c2103a1b26313f430c4b15bb1fdce663207659d8cac749a0e53d70eff01874496feff2103c96d495bfdd5ba4145e3e046fee45e84a8a48ad05bd8dbb395c011a32cf9f88053ae"], "sequence": 4294967295, "scriptSig": {"hex": "", "asm": ""}, "vout": 3, "txid": "0836965592ec93bbb938a90f36d842a187c255d859acdc3fcd5804d4ae33a60f"}], "txid": "fff9e24fc94b07f9dbc2bbf4a282ef5ca4c28fe355d86529a40eb2d116bcfd9e", "blocktime": 1537869901, "version": 1, "confirmations": 11522, "time": 1537869901, "locktime": 0, "vsize": 192, "size": 384}