{"hash": "1d54a4694f1ba051aea2ecdc06c328b5da0d45a60e0b89d7d9000617c9d45a44", "blockhash": "00000000000000000004ffacab907a6b429b9a5745fa0b75af4234bf69dd7176", "vout": [{"scriptPubKey": {"reqSigs": 1, "hex": "0014b2b84c6067eb09baf0f4ab6b4ca3a44d03e6f346", "addresses": ["bc1qk2uyccr8avym4u854d45egayf5p7du6xvyscj6"], "asm": "0 b2b84c6067eb09baf0f4ab6b4ca3a44d03e6f346", "type": "witness_v0_keyhash"}, "value": 0.01762771, "n": 0}, {"scriptPubKey": {"reqSigs": 1, "hex": "a9146e0f1a11b94e3ede11dcc622c1295aae307dbd8687", "addresses": ["3BixLwQYEDGG3rLmdLe93EpQb23sRf6vs3"], "asm": "OP_HASH160 6e0f1a11b94e3ede11dcc622c1295aae307dbd86 OP_EQUAL", "type": "scripthash"}, "value": 0.04595588, "n": 1}], "hex": "01000000000102914dd5d918656f69398bf2f30344747401a80f5c1fc833bad7f57e24b10fcd660000000000fdffffff601f0ec7ecb0ce246c3cea1224a49247b3f072c3e53d792bdabc4a572d1915d60100000000fdffffff02d3e51a0000000000160014b2b84c6067eb09baf0f4ab6b4ca3a44d03e6f346841f46000000000017a9146e0f1a11b94e3ede11dcc622c1295aae307dbd868702483045022100b07abc1db3875880188b78fff991e069374451dcf2510f169b92b80c9bdd75e0022018ea6c5b84462adf437e7c3e6ba06dd12f34169146359aadfbb060ffda4b78d701210215d81a406294de18f5b5fcd60ede22a5323ed2d97da3cd5a973fe7575f4efd7c02483045022100f6a9a7acffba1c6a87f0230477700d2e266c982580dea699a5f85509c6cfc5d202202105e4b8fa961530a26d4a9cdfc1657c9ff2fc812821535e8b030f4e26dc92fb01210215d81a406294de18f5b5fcd60ede22a5323ed2d97da3cd5a973fe7575f4efd7c16490800", "vin": [{"txinwitness": ["3045022100b07abc1db3875880188b78fff991e069374451dcf2510f169b92b80c9bdd75e0022018ea6c5b84462adf437e7c3e6ba06dd12f34169146359aadfbb060ffda4b78d701", "0215d81a406294de18f5b5fcd60ede22a5323ed2d97da3cd5a973fe7575f4efd7c"], "sequence": 4294967293, "scriptSig": {"hex": "", "asm": ""}, "vout": 0, "txid": "66cd0fb1247ef5d7ba33c81f5c0fa80174744403f3f28b39696f6518d9d54d91"}, {"txinwitness": ["3045022100f6a9a7acffba1c6a87f0230477700d2e266c982580dea699a5f85509c6cfc5d202202105e4b8fa961530a26d4a9cdfc1657c9ff2fc812821535e8b030f4e26dc92fb01", "0215d81a406294de18f5b5fcd60ede22a5323ed2d97da3cd5a973fe7575f4efd7c"], "sequence": 4294967293, "scriptSig": {"hex": "", "asm": ""}, "vout": 1, "txid": "d615192d574abcda2b793de5c372f0b34792a42412ea3c6c24ceb0ecc70e1f60"}], "txid": "fff925fccf45c67a5320fd25be95e5cd458e9f735400633087eb8cfef339a7e5", "blocktime": 1537875543, "version": 1, "confirmations": 11464, "time": 1537875543, "locktime": 542998, "vsize": 210, "size": 373}