{"hash": "fff9a11c0c1d015a85823d8102ffbf2f4e452e89d608584976ffe11234f2da14", "blockhash": "00000000000000000018f53835495a110e01622372bf6ae95dc86f2b0ab887b0", "vout": [{"scriptPubKey": {"type": "nulldata", "hex": "6a146f6d6e69000000000000001f0000000cce416600", "asm": "OP_RETURN 6f6d6e69000000000000001f0000000cce416600"}, "value": 0.0, "n": 0}, {"scriptPubKey": {"reqSigs": 1, "hex": "76a914bbf676c726d241beafc244296f7969827012eec788ac", "addresses": ["1J8rcVPwRjJdi1jhk95AsjMfsLBbP7x7pS"], "asm": "OP_DUP OP_HASH160 bbf676c726d241beafc244296f7969827012eec7 OP_EQUALVERIFY OP_CHECKSIG", "type": "pubkeyhash"}, "value": 0.01984026, "n": 1}], "hex": "0100000002b89a5cb69825190283a9e175820dd9b32ee588016991fc20c3c80e66d94e7a66010000006b483045022100ac5e67fc527e5dfbb2efd8188ab0195d1a0b8f514ba04ea16f2d0d8300e5da59022006fa5693cd1c2b8e81ec855c9d184cd925836ba06d160dbdeb0a03661278f32f0121036bf67191feef5317c03a95b71e8a6a446024ac8dbca206d63f47d33545d95b68ffffffffec1785973118356a8b4538a97fd362b97fd624a4f60baa25be0a8a5536759e60000000006b483045022100e5a4f7f8989caf43857d388af14a1ae427244183b721f375d2470dabd87f874d0220033b2432f1c3c566abc0b513244ae27e56ff37e4b9f9ceeab64cc2a7fe78df98012102061af1d6ec220f4ce39a77205368245c29cd0d340edeb4ced8fd2bd0bc788d42ffffffff020000000000000000166a146f6d6e69000000000000001f0000000cce4166001a461e00000000001976a914bbf676c726d241beafc244296f7969827012eec788ac00000000", "vin": [{"sequence": 4294967295, "scriptSig": {"hex": "483045022100ac5e67fc527e5dfbb2efd8188ab0195d1a0b8f514ba04ea16f2d0d8300e5da59022006fa5693cd1c2b8e81ec855c9d184cd925836ba06d160dbdeb0a03661278f32f0121036bf67191feef5317c03a95b71e8a6a446024ac8dbca206d63f47d33545d95b68", "asm": "3045022100ac5e67fc527e5dfbb2efd8188ab0195d1a0b8f514ba04ea16f2d0d8300e5da59022006fa5693cd1c2b8e81ec855c9d184cd925836ba06d160dbdeb0a03661278f32f[ALL] 036bf67191feef5317c03a95b71e8a6a446024ac8dbca206d63f47d33545d95b68"}, "vout": 1, "txid": "667a4ed9660ec8c320fc91690188e52eb3d90d8275e1a98302192598b65c9ab8"}, {"sequence": 4294967295, "scriptSig": {"hex": "483045022100e5a4f7f8989caf43857d388af14a1ae427244183b721f375d2470dabd87f874d0220033b2432f1c3c566abc0b513244ae27e56ff37e4b9f9ceeab64cc2a7fe78df98012102061af1d6ec220f4ce39a77205368245c29cd0d340edeb4ced8fd2bd0bc788d42", "asm": "3045022100e5a4f7f8989caf43857d388af14a1ae427244183b721f375d2470dabd87f874d0220033b2432f1c3c566abc0b513244ae27e56ff37e4b9f9ceeab64cc2a7fe78df98[ALL] 02061af1d6ec220f4ce39a77205368245c29cd0d340edeb4ced8fd2bd0bc788d42"}, "vout": 0, "txid": "609e7536558a0abe25aa0bf6a424d67fb962d37fa938458b6a351831978517ec"}], "txid": "fff9a11c0c1d015a85823d8102ffbf2f4e452e89d608584976ffe11234f2da14", "blocktime": 1537870928, "version": 1, "confirmations": 11512, "time": 1537870928, "locktime": 0, "vsize": 371, "size": 371}